{
  "_format": "hh-sol-artifact-1",
  "contractName": "Whitelist",
  "sourceName": "contracts/Whitelist.sol",
  "abi": [
    {
      "anonymous": false,
      "inputs": [
        {
          "indexed": true,
          "internalType": "address",
          "name": "previousOwner",
          "type": "address"
        },
        {
          "indexed": true,
          "internalType": "address",
          "name": "newOwner",
          "type": "address"
        }
      ],
      "name": "OwnershipTransferred",
      "type": "event"
    },
    {
      "anonymous": false,
      "inputs": [
        {
          "indexed": false,
          "internalType": "address",
          "name": "addr",
          "type": "address"
        }
      ],
      "name": "WhitelistedAddressAdded",
      "type": "event"
    },
    {
      "anonymous": false,
      "inputs": [
        {
          "indexed": false,
          "internalType": "address",
          "name": "addr",
          "type": "address"
        }
      ],
      "name": "WhitelistedAddressRemoved",
      "type": "event"
    },
    {
      "inputs": [
        {
          "internalType": "address",
          "name": "addr",
          "type": "address"
        }
      ],
      "name": "addAddressToWhitelist",
      "outputs": [
        {
          "internalType": "bool",
          "name": "success",
          "type": "bool"
        }
      ],
      "stateMutability": "nonpayable",
      "type": "function"
    },
    {
      "inputs": [
        {
          "internalType": "address[]",
          "name": "addrs",
          "type": "address[]"
        }
      ],
      "name": "addAddressesToWhitelist",
      "outputs": [
        {
          "internalType": "bool",
          "name": "success",
          "type": "bool"
        }
      ],
      "stateMutability": "nonpayable",
      "type": "function"
    },
    {
      "inputs": [],
      "name": "owner",
      "outputs": [
        {
          "internalType": "address",
          "name": "",
          "type": "address"
        }
      ],
      "stateMutability": "view",
      "type": "function"
    },
    {
      "inputs": [
        {
          "internalType": "address",
          "name": "addr",
          "type": "address"
        }
      ],
      "name": "removeAddressFromWhitelist",
      "outputs": [
        {
          "internalType": "bool",
          "name": "success",
          "type": "bool"
        }
      ],
      "stateMutability": "nonpayable",
      "type": "function"
    },
    {
      "inputs": [
        {
          "internalType": "address[]",
          "name": "addrs",
          "type": "address[]"
        }
      ],
      "name": "removeAddressesFromWhitelist",
      "outputs": [
        {
          "internalType": "bool",
          "name": "success",
          "type": "bool"
        }
      ],
      "stateMutability": "nonpayable",
      "type": "function"
    },
    {
      "inputs": [],
      "name": "renounceOwnership",
      "outputs": [],
      "stateMutability": "nonpayable",
      "type": "function"
    },
    {
      "inputs": [
        {
          "internalType": "address",
          "name": "newOwner",
          "type": "address"
        }
      ],
      "name": "transferOwnership",
      "outputs": [],
      "stateMutability": "nonpayable",
      "type": "function"
    },
    {
      "inputs": [
        {
          "internalType": "address",
          "name": "",
          "type": "address"
        }
      ],
      "name": "whitelist",
      "outputs": [
        {
          "internalType": "bool",
          "name": "",
          "type": "bool"
        }
      ],
      "stateMutability": "view",
      "type": "function"
    }
  ],
  "bytecode": "0x608060405234801561001057600080fd5b5061002d61002261003260201b60201c565b61003a60201b60201c565b6100fe565b600033905090565b60008060009054906101000a900473ffffffffffffffffffffffffffffffffffffffff169050816000806101000a81548173ffffffffffffffffffffffffffffffffffffffff021916908373ffffffffffffffffffffffffffffffffffffffff1602179055508173ffffffffffffffffffffffffffffffffffffffff168173ffffffffffffffffffffffffffffffffffffffff167f8be0079c531659141344cd1fd0a4f28419497f9722a3daafe3b4186f6b6457e060405160405180910390a35050565b610d648061010d6000396000f3fe608060405234801561001057600080fd5b50600436106100885760003560e01c80638da5cb5b1161005b5780638da5cb5b146101275780639b19251a14610145578063e2ec6ec314610175578063f2fde38b146101a557610088565b806324953eaa1461008d578063286dd3f5146100bd578063715018a6146100ed5780637b9417c8146100f7575b600080fd5b6100a760048036038101906100a291906109a6565b6101c1565b6040516100b49190610a6e565b60405180910390f35b6100d760048036038101906100d29190610979565b610291565b6040516100e49190610a6e565b60405180910390f35b6100f56103fa565b005b610111600480360381019061010c9190610979565b610482565b60405161011e9190610a6e565b60405180910390f35b61012f6105e9565b60405161013c9190610a53565b60405180910390f35b61015f600480360381019061015a9190610979565b610612565b60405161016c9190610a6e565b60405180910390f35b61018f600480360381019061018a91906109a6565b610632565b60405161019c9190610a6e565b60405180910390f35b6101bf60048036038101906101ba9190610979565b610702565b005b60006101cb6107fa565b73ffffffffffffffffffffffffffffffffffffffff166101e96105e9565b73ffffffffffffffffffffffffffffffffffffffff161461023f576040517f08c379a000000000000000000000000000000000000000000000000000000000815260040161023690610aa9565b60405180910390fd5b60005b825181101561028b5761026e83828151811061026157610260610c1c565b5b6020026020010151610291565b1561027857600191505b808061028390610ba4565b915050610242565b50919050565b600061029b6107fa565b73ffffffffffffffffffffffffffffffffffffffff166102b96105e9565b73ffffffffffffffffffffffffffffffffffffffff161461030f576040517f08c379a000000000000000000000000000000000000000000000000000000000815260040161030690610aa9565b60405180910390fd5b600160008373ffffffffffffffffffffffffffffffffffffffff1673ffffffffffffffffffffffffffffffffffffffff16815260200190815260200160002060009054906101000a900460ff16156103f5576000600160008473ffffffffffffffffffffffffffffffffffffffff1673ffffffffffffffffffffffffffffffffffffffff16815260200190815260200160002060006101000a81548160ff0219169083151502179055507ff1abf01a1043b7c244d128e8595cf0c1d10743b022b03a02dffd8ca3bf729f5a826040516103e89190610a53565b60405180910390a1600190505b919050565b6104026107fa565b73ffffffffffffffffffffffffffffffffffffffff166104206105e9565b73ffffffffffffffffffffffffffffffffffffffff1614610476576040517f08c379a000000000000000000000000000000000000000000000000000000000815260040161046d90610aa9565b60405180910390fd5b6104806000610802565b565b600061048c6107fa565b73ffffffffffffffffffffffffffffffffffffffff166104aa6105e9565b73ffffffffffffffffffffffffffffffffffffffff1614610500576040517f08c379a00000000000000000000000000000000000000000000000000000000081526004016104f790610aa9565b60405180910390fd5b600160008373ffffffffffffffffffffffffffffffffffffffff1673ffffffffffffffffffffffffffffffffffffffff16815260200190815260200160002060009054906101000a900460ff166105e45760018060008473ffffffffffffffffffffffffffffffffffffffff1673ffffffffffffffffffffffffffffffffffffffff16815260200190815260200160002060006101000a81548160ff0219169083151502179055507fd1bba68c128cc3f427e5831b3c6f99f480b6efa6b9e80c757768f6124158cc3f826040516105d79190610a53565b60405180910390a1600190505b919050565b60008060009054906101000a900473ffffffffffffffffffffffffffffffffffffffff16905090565b60016020528060005260406000206000915054906101000a900460ff1681565b600061063c6107fa565b73ffffffffffffffffffffffffffffffffffffffff1661065a6105e9565b73ffffffffffffffffffffffffffffffffffffffff16146106b0576040517f08c379a00000000000000000000000000000000000000000000000000000000081526004016106a790610aa9565b60405180910390fd5b60005b82518110156106fc576106df8382815181106106d2576106d1610c1c565b5b6020026020010151610482565b156106e957600191505b80806106f490610ba4565b9150506106b3565b50919050565b61070a6107fa565b73ffffffffffffffffffffffffffffffffffffffff166107286105e9565b73ffffffffffffffffffffffffffffffffffffffff161461077e576040517f08c379a000000000000000000000000000000000000000000000000000000000815260040161077590610aa9565b60405180910390fd5b600073ffffffffffffffffffffffffffffffffffffffff168173ffffffffffffffffffffffffffffffffffffffff1614156107ee576040517f08c379a00000000000000000000000000000000000000000000000000000000081526004016107e590610a89565b60405180910390fd5b6107f781610802565b50565b600033905090565b60008060009054906101000a900473ffffffffffffffffffffffffffffffffffffffff169050816000806101000a81548173ffffffffffffffffffffffffffffffffffffffff021916908373ffffffffffffffffffffffffffffffffffffffff1602179055508173ffffffffffffffffffffffffffffffffffffffff168173ffffffffffffffffffffffffffffffffffffffff167f8be0079c531659141344cd1fd0a4f28419497f9722a3daafe3b4186f6b6457e060405160405180910390a35050565b60006108d96108d484610aee565b610ac9565b905080838252602082019050828560208602820111156108fc576108fb610c7f565b5b60005b8581101561092c57816109128882610936565b8452602084019350602083019250506001810190506108ff565b5050509392505050565b60008135905061094581610d17565b92915050565b600082601f8301126109605761095f610c7a565b5b81356109708482602086016108c6565b91505092915050565b60006020828403121561098f5761098e610c89565b5b600061099d84828501610936565b91505092915050565b6000602082840312156109bc576109bb610c89565b5b600082013567ffffffffffffffff8111156109da576109d9610c84565b5b6109e68482850161094b565b91505092915050565b6109f881610b2b565b82525050565b610a0781610b3d565b82525050565b6000610a1a602683610b1a565b9150610a2582610c9f565b604082019050919050565b6000610a3d602083610b1a565b9150610a4882610cee565b602082019050919050565b6000602082019050610a6860008301846109ef565b92915050565b6000602082019050610a8360008301846109fe565b92915050565b60006020820190508181036000830152610aa281610a0d565b9050919050565b60006020820190508181036000830152610ac281610a30565b9050919050565b6000610ad3610ae4565b9050610adf8282610b73565b919050565b6000604051905090565b600067ffffffffffffffff821115610b0957610b08610c4b565b5b602082029050602081019050919050565b600082825260208201905092915050565b6000610b3682610b49565b9050919050565b60008115159050919050565b600073ffffffffffffffffffffffffffffffffffffffff82169050919050565b6000819050919050565b610b7c82610c8e565b810181811067ffffffffffffffff82111715610b9b57610b9a610c4b565b5b80604052505050565b6000610baf82610b69565b91507fffffffffffffffffffffffffffffffffffffffffffffffffffffffffffffffff821415610be257610be1610bed565b5b600182019050919050565b7f4e487b7100000000000000000000000000000000000000000000000000000000600052601160045260246000fd5b7f4e487b7100000000000000000000000000000000000000000000000000000000600052603260045260246000fd5b7f4e487b7100000000000000000000000000000000000000000000000000000000600052604160045260246000fd5b600080fd5b600080fd5b600080fd5b600080fd5b6000601f19601f8301169050919050565b7f4f776e61626c653a206e6577206f776e657220697320746865207a65726f206160008201527f6464726573730000000000000000000000000000000000000000000000000000602082015250565b7f4f776e61626c653a2063616c6c6572206973206e6f7420746865206f776e6572600082015250565b610d2081610b2b565b8114610d2b57600080fd5b5056fea264697066735822122067755f15e9ec492359d32d57f34dcb4ec989695d37524ecf7d1bf48e239f38a964736f6c63430008070033",
  "linkReferences": {},
  "deployedLinkReferences": {}
}