{
  "_format": "hh-sol-artifact-1",
  "contractName": "Whitelist",
  "sourceName": "contracts/Whitelist.sol",
  "abi": [
    {
      "anonymous": false,
      "inputs": [
        {
          "indexed": true,
          "internalType": "address",
          "name": "previousOwner",
          "type": "address"
        },
        {
          "indexed": true,
          "internalType": "address",
          "name": "newOwner",
          "type": "address"
        }
      ],
      "name": "OwnershipTransferred",
      "type": "event"
    },
    {
      "anonymous": false,
      "inputs": [
        {
          "indexed": false,
          "internalType": "address",
          "name": "addr",
          "type": "address"
        }
      ],
      "name": "WhitelistedAddressAdded",
      "type": "event"
    },
    {
      "anonymous": false,
      "inputs": [
        {
          "indexed": false,
          "internalType": "address",
          "name": "addr",
          "type": "address"
        }
      ],
      "name": "WhitelistedAddressRemoved",
      "type": "event"
    },
    {
      "inputs": [
        {
          "internalType": "address",
          "name": "addr",
          "type": "address"
        }
      ],
      "name": "addAddressToWhitelist",
      "outputs": [
        {
          "internalType": "bool",
          "name": "success",
          "type": "bool"
        }
      ],
      "stateMutability": "nonpayable",
      "type": "function"
    },
    {
      "inputs": [
        {
          "internalType": "address[]",
          "name": "addrs",
          "type": "address[]"
        }
      ],
      "name": "addAddressesToWhitelist",
      "outputs": [
        {
          "internalType": "bool",
          "name": "success",
          "type": "bool"
        }
      ],
      "stateMutability": "nonpayable",
      "type": "function"
    },
    {
      "inputs": [],
      "name": "getNumWhitelisted",
      "outputs": [
        {
          "internalType": "uint256",
          "name": "",
          "type": "uint256"
        }
      ],
      "stateMutability": "view",
      "type": "function"
    },
    {
      "inputs": [],
      "name": "isPublic",
      "outputs": [
        {
          "internalType": "bool",
          "name": "",
          "type": "bool"
        }
      ],
      "stateMutability": "view",
      "type": "function"
    },
    {
      "inputs": [],
      "name": "owner",
      "outputs": [
        {
          "internalType": "address",
          "name": "",
          "type": "address"
        }
      ],
      "stateMutability": "view",
      "type": "function"
    },
    {
      "inputs": [
        {
          "internalType": "address",
          "name": "addr",
          "type": "address"
        }
      ],
      "name": "removeAddressFromWhitelist",
      "outputs": [
        {
          "internalType": "bool",
          "name": "success",
          "type": "bool"
        }
      ],
      "stateMutability": "nonpayable",
      "type": "function"
    },
    {
      "inputs": [
        {
          "internalType": "address[]",
          "name": "addrs",
          "type": "address[]"
        }
      ],
      "name": "removeAddressesFromWhitelist",
      "outputs": [
        {
          "internalType": "bool",
          "name": "success",
          "type": "bool"
        }
      ],
      "stateMutability": "nonpayable",
      "type": "function"
    },
    {
      "inputs": [],
      "name": "renounceOwnership",
      "outputs": [],
      "stateMutability": "nonpayable",
      "type": "function"
    },
    {
      "inputs": [
        {
          "internalType": "address",
          "name": "newOwner",
          "type": "address"
        }
      ],
      "name": "transferOwnership",
      "outputs": [],
      "stateMutability": "nonpayable",
      "type": "function"
    },
    {
      "inputs": [
        {
          "internalType": "address",
          "name": "",
          "type": "address"
        }
      ],
      "name": "whitelist",
      "outputs": [
        {
          "internalType": "bool",
          "name": "",
          "type": "bool"
        }
      ],
      "stateMutability": "view",
      "type": "function"
    }
  ],
  "bytecode": "0x608060405234801561001057600080fd5b5061002d61002261003260201b60201c565b61003a60201b60201c565b6100fe565b600033905090565b60008060009054906101000a900473ffffffffffffffffffffffffffffffffffffffff169050816000806101000a81548173ffffffffffffffffffffffffffffffffffffffff021916908373ffffffffffffffffffffffffffffffffffffffff1602179055508173ffffffffffffffffffffffffffffffffffffffff168173ffffffffffffffffffffffffffffffffffffffff167f8be0079c531659141344cd1fd0a4f28419497f9722a3daafe3b4186f6b6457e060405160405180910390a35050565b610eef8061010d6000396000f3fe608060405234801561001057600080fd5b506004361061009e5760003560e01c80638da5cb5b116100665780638da5cb5b1461015b5780639b19251a14610179578063dc9a1535146101a9578063e2ec6ec3146101c7578063f2fde38b146101f75761009e565b806324953eaa146100a3578063286dd3f5146100d357806344eaa84e14610103578063715018a6146101215780637b9417c81461012b575b600080fd5b6100bd60048036038101906100b89190610a7d565b610213565b6040516100ca9190610b54565b60405180910390f35b6100ed60048036038101906100e89190610a50565b6102fd565b6040516100fa9190610b54565b60405180910390f35b61010b610480565b6040516101189190610baf565b60405180910390f35b61012961048a565b005b61014560048036038101906101409190610a50565b610512565b6040516101529190610b54565b60405180910390f35b610163610693565b6040516101709190610b39565b60405180910390f35b610193600480360381019061018e9190610a50565b6106bc565b6040516101a09190610b54565b60405180910390f35b6101b16106dc565b6040516101be9190610b54565b60405180910390f35b6101e160048036038101906101dc9190610a7d565b6106ef565b6040516101ee9190610b54565b60405180910390f35b610211600480360381019061020c9190610a50565b6107d9565b005b600061021d6108d1565b73ffffffffffffffffffffffffffffffffffffffff1661023b610693565b73ffffffffffffffffffffffffffffffffffffffff1614610291576040517f08c379a000000000000000000000000000000000000000000000000000000000815260040161028890610b8f565b60405180910390fd5b60005b82518110156102f7576102c08382815181106102b3576102b2610da7565b5b60200260200101516102fd565b156102e4576001600260008282546102d89190610c82565b92505081905550600191505b80806102ef90610d2f565b915050610294565b50919050565b60006103076108d1565b73ffffffffffffffffffffffffffffffffffffffff16610325610693565b73ffffffffffffffffffffffffffffffffffffffff161461037b576040517f08c379a000000000000000000000000000000000000000000000000000000000815260040161037290610b8f565b60405180910390fd5b600160008373ffffffffffffffffffffffffffffffffffffffff1673ffffffffffffffffffffffffffffffffffffffff16815260200190815260200160002060009054906101000a900460ff161561047b576000600160008473ffffffffffffffffffffffffffffffffffffffff1673ffffffffffffffffffffffffffffffffffffffff16815260200190815260200160002060006101000a81548160ff0219169083151502179055507ff1abf01a1043b7c244d128e8595cf0c1d10743b022b03a02dffd8ca3bf729f5a826040516104549190610b39565b60405180910390a160016002600082825461046f9190610c82565b92505081905550600190505b919050565b6000600254905090565b6104926108d1565b73ffffffffffffffffffffffffffffffffffffffff166104b0610693565b73ffffffffffffffffffffffffffffffffffffffff1614610506576040517f08c379a00000000000000000000000000000000000000000000000000000000081526004016104fd90610b8f565b60405180910390fd5b61051060006108d9565b565b600061051c6108d1565b73ffffffffffffffffffffffffffffffffffffffff1661053a610693565b73ffffffffffffffffffffffffffffffffffffffff1614610590576040517f08c379a000000000000000000000000000000000000000000000000000000000815260040161058790610b8f565b60405180910390fd5b600160008373ffffffffffffffffffffffffffffffffffffffff1673ffffffffffffffffffffffffffffffffffffffff16815260200190815260200160002060009054906101000a900460ff1661068e5760018060008473ffffffffffffffffffffffffffffffffffffffff1673ffffffffffffffffffffffffffffffffffffffff16815260200190815260200160002060006101000a81548160ff0219169083151502179055507fd1bba68c128cc3f427e5831b3c6f99f480b6efa6b9e80c757768f6124158cc3f826040516106679190610b39565b60405180910390a16001600260008282546106829190610c2c565b92505081905550600190505b919050565b60008060009054906101000a900473ffffffffffffffffffffffffffffffffffffffff16905090565b60016020528060005260406000206000915054906101000a900460ff1681565b600360009054906101000a900460ff1681565b60006106f96108d1565b73ffffffffffffffffffffffffffffffffffffffff16610717610693565b73ffffffffffffffffffffffffffffffffffffffff161461076d576040517f08c379a000000000000000000000000000000000000000000000000000000000815260040161076490610b8f565b60405180910390fd5b60005b82518110156107d35761079c83828151811061078f5761078e610da7565b5b6020026020010151610512565b156107c0576001600260008282546107b49190610c2c565b92505081905550600191505b80806107cb90610d2f565b915050610770565b50919050565b6107e16108d1565b73ffffffffffffffffffffffffffffffffffffffff166107ff610693565b73ffffffffffffffffffffffffffffffffffffffff1614610855576040517f08c379a000000000000000000000000000000000000000000000000000000000815260040161084c90610b8f565b60405180910390fd5b600073ffffffffffffffffffffffffffffffffffffffff168173ffffffffffffffffffffffffffffffffffffffff1614156108c5576040517f08c379a00000000000000000000000000000000000000000000000000000000081526004016108bc90610b6f565b60405180910390fd5b6108ce816108d9565b50565b600033905090565b60008060009054906101000a900473ffffffffffffffffffffffffffffffffffffffff169050816000806101000a81548173ffffffffffffffffffffffffffffffffffffffff021916908373ffffffffffffffffffffffffffffffffffffffff1602179055508173ffffffffffffffffffffffffffffffffffffffff168173ffffffffffffffffffffffffffffffffffffffff167f8be0079c531659141344cd1fd0a4f28419497f9722a3daafe3b4186f6b6457e060405160405180910390a35050565b60006109b06109ab84610bef565b610bca565b905080838252602082019050828560208602820111156109d3576109d2610e0a565b5b60005b85811015610a0357816109e98882610a0d565b8452602084019350602083019250506001810190506109d6565b5050509392505050565b600081359050610a1c81610ea2565b92915050565b600082601f830112610a3757610a36610e05565b5b8135610a4784826020860161099d565b91505092915050565b600060208284031215610a6657610a65610e14565b5b6000610a7484828501610a0d565b91505092915050565b600060208284031215610a9357610a92610e14565b5b600082013567ffffffffffffffff811115610ab157610ab0610e0f565b5b610abd84828501610a22565b91505092915050565b610acf81610cb6565b82525050565b610ade81610cc8565b82525050565b6000610af1602683610c1b565b9150610afc82610e2a565b604082019050919050565b6000610b14602083610c1b565b9150610b1f82610e79565b602082019050919050565b610b3381610cf4565b82525050565b6000602082019050610b4e6000830184610ac6565b92915050565b6000602082019050610b696000830184610ad5565b92915050565b60006020820190508181036000830152610b8881610ae4565b9050919050565b60006020820190508181036000830152610ba881610b07565b9050919050565b6000602082019050610bc46000830184610b2a565b92915050565b6000610bd4610be5565b9050610be08282610cfe565b919050565b6000604051905090565b600067ffffffffffffffff821115610c0a57610c09610dd6565b5b602082029050602081019050919050565b600082825260208201905092915050565b6000610c3782610cf4565b9150610c4283610cf4565b9250827fffffffffffffffffffffffffffffffffffffffffffffffffffffffffffffffff03821115610c7757610c76610d78565b5b828201905092915050565b6000610c8d82610cf4565b9150610c9883610cf4565b925082821015610cab57610caa610d78565b5b828203905092915050565b6000610cc182610cd4565b9050919050565b60008115159050919050565b600073ffffffffffffffffffffffffffffffffffffffff82169050919050565b6000819050919050565b610d0782610e19565b810181811067ffffffffffffffff82111715610d2657610d25610dd6565b5b80604052505050565b6000610d3a82610cf4565b91507fffffffffffffffffffffffffffffffffffffffffffffffffffffffffffffffff821415610d6d57610d6c610d78565b5b600182019050919050565b7f4e487b7100000000000000000000000000000000000000000000000000000000600052601160045260246000fd5b7f4e487b7100000000000000000000000000000000000000000000000000000000600052603260045260246000fd5b7f4e487b7100000000000000000000000000000000000000000000000000000000600052604160045260246000fd5b600080fd5b600080fd5b600080fd5b600080fd5b6000601f19601f8301169050919050565b7f4f776e61626c653a206e6577206f776e657220697320746865207a65726f206160008201527f6464726573730000000000000000000000000000000000000000000000000000602082015250565b7f4f776e61626c653a2063616c6c6572206973206e6f7420746865206f776e6572600082015250565b610eab81610cb6565b8114610eb657600080fd5b5056fea2646970667358221220ce5a8c1ac30aa67d0790f09c9f63c08184d23037427080e7e9705621c914926764736f6c63430008070033",
  "linkReferences": {},
  "deployedLinkReferences": {}
}