{
  "_format": "hh-sol-artifact-1",
  "contractName": "Whitelist",
  "sourceName": "contracts/Whitelist.sol",
  "abi": [
    {
      "anonymous": false,
      "inputs": [
        {
          "indexed": true,
          "internalType": "address",
          "name": "previousOwner",
          "type": "address"
        },
        {
          "indexed": true,
          "internalType": "address",
          "name": "newOwner",
          "type": "address"
        }
      ],
      "name": "OwnershipTransferred",
      "type": "event"
    },
    {
      "anonymous": false,
      "inputs": [
        {
          "indexed": false,
          "internalType": "address",
          "name": "addr",
          "type": "address"
        }
      ],
      "name": "WhitelistedAddressAdded",
      "type": "event"
    },
    {
      "anonymous": false,
      "inputs": [
        {
          "indexed": false,
          "internalType": "address",
          "name": "addr",
          "type": "address"
        }
      ],
      "name": "WhitelistedAddressRemoved",
      "type": "event"
    },
    {
      "inputs": [
        {
          "internalType": "address",
          "name": "addr",
          "type": "address"
        }
      ],
      "name": "addAddressToWhitelist",
      "outputs": [
        {
          "internalType": "bool",
          "name": "success",
          "type": "bool"
        }
      ],
      "stateMutability": "nonpayable",
      "type": "function"
    },
    {
      "inputs": [
        {
          "internalType": "address[]",
          "name": "addrs",
          "type": "address[]"
        }
      ],
      "name": "addAddressesToWhitelist",
      "outputs": [
        {
          "internalType": "bool",
          "name": "success",
          "type": "bool"
        }
      ],
      "stateMutability": "nonpayable",
      "type": "function"
    },
    {
      "inputs": [],
      "name": "owner",
      "outputs": [
        {
          "internalType": "address",
          "name": "",
          "type": "address"
        }
      ],
      "stateMutability": "view",
      "type": "function"
    },
    {
      "inputs": [
        {
          "internalType": "address",
          "name": "addr",
          "type": "address"
        }
      ],
      "name": "removeAddressFromWhitelist",
      "outputs": [
        {
          "internalType": "bool",
          "name": "success",
          "type": "bool"
        }
      ],
      "stateMutability": "nonpayable",
      "type": "function"
    },
    {
      "inputs": [
        {
          "internalType": "address[]",
          "name": "addrs",
          "type": "address[]"
        }
      ],
      "name": "removeAddressesFromWhitelist",
      "outputs": [
        {
          "internalType": "bool",
          "name": "success",
          "type": "bool"
        }
      ],
      "stateMutability": "nonpayable",
      "type": "function"
    },
    {
      "inputs": [],
      "name": "renounceOwnership",
      "outputs": [],
      "stateMutability": "nonpayable",
      "type": "function"
    },
    {
      "inputs": [
        {
          "internalType": "address",
          "name": "newOwner",
          "type": "address"
        }
      ],
      "name": "transferOwnership",
      "outputs": [],
      "stateMutability": "nonpayable",
      "type": "function"
    },
    {
      "inputs": [
        {
          "internalType": "address",
          "name": "",
          "type": "address"
        }
      ],
      "name": "whitelist",
      "outputs": [
        {
          "internalType": "bool",
          "name": "",
          "type": "bool"
        }
      ],
      "stateMutability": "view",
      "type": "function"
    }
  ],
  "bytecode": "0x608060405234801561001057600080fd5b5061002d61002261003260201b60201c565b61003a60201b60201c565b6100fe565b600033905090565b60008060009054906101000a900473ffffffffffffffffffffffffffffffffffffffff169050816000806101000a81548173ffffffffffffffffffffffffffffffffffffffff021916908373ffffffffffffffffffffffffffffffffffffffff1602179055508173ffffffffffffffffffffffffffffffffffffffff168173ffffffffffffffffffffffffffffffffffffffff167f8be0079c531659141344cd1fd0a4f28419497f9722a3daafe3b4186f6b6457e060405160405180910390a35050565b610e568061010d6000396000f3fe608060405234801561001057600080fd5b50600436106100885760003560e01c80638da5cb5b1161005b5780638da5cb5b146101275780639b19251a14610145578063e2ec6ec314610175578063f2fde38b146101a557610088565b806324953eaa1461008d578063286dd3f5146100bd578063715018a6146100ed5780637b9417c8146100f7575b600080fd5b6100a760048036038101906100a29190610a0e565b6101c1565b6040516100b49190610ad6565b60405180910390f35b6100d760048036038101906100d291906109e1565b6102ab565b6040516100e49190610ad6565b60405180910390f35b6100f561042e565b005b610111600480360381019061010c91906109e1565b6104b6565b60405161011e9190610ad6565b60405180910390f35b61012f610637565b60405161013c9190610abb565b60405180910390f35b61015f600480360381019061015a91906109e1565b610660565b60405161016c9190610ad6565b60405180910390f35b61018f600480360381019061018a9190610a0e565b610680565b60405161019c9190610ad6565b60405180910390f35b6101bf60048036038101906101ba91906109e1565b61076a565b005b60006101cb610862565b73ffffffffffffffffffffffffffffffffffffffff166101e9610637565b73ffffffffffffffffffffffffffffffffffffffff161461023f576040517f08c379a000000000000000000000000000000000000000000000000000000000815260040161023690610b11565b60405180910390fd5b60005b82518110156102a55761026e83828151811061026157610260610d0e565b5b60200260200101516102ab565b15610292576001600260008282546102869190610be9565b92505081905550600191505b808061029d90610c96565b915050610242565b50919050565b60006102b5610862565b73ffffffffffffffffffffffffffffffffffffffff166102d3610637565b73ffffffffffffffffffffffffffffffffffffffff1614610329576040517f08c379a000000000000000000000000000000000000000000000000000000000815260040161032090610b11565b60405180910390fd5b600160008373ffffffffffffffffffffffffffffffffffffffff1673ffffffffffffffffffffffffffffffffffffffff16815260200190815260200160002060009054906101000a900460ff1615610429576000600160008473ffffffffffffffffffffffffffffffffffffffff1673ffffffffffffffffffffffffffffffffffffffff16815260200190815260200160002060006101000a81548160ff0219169083151502179055507ff1abf01a1043b7c244d128e8595cf0c1d10743b022b03a02dffd8ca3bf729f5a826040516104029190610abb565b60405180910390a160016002600082825461041d9190610be9565b92505081905550600190505b919050565b610436610862565b73ffffffffffffffffffffffffffffffffffffffff16610454610637565b73ffffffffffffffffffffffffffffffffffffffff16146104aa576040517f08c379a00000000000000000000000000000000000000000000000000000000081526004016104a190610b11565b60405180910390fd5b6104b4600061086a565b565b60006104c0610862565b73ffffffffffffffffffffffffffffffffffffffff166104de610637565b73ffffffffffffffffffffffffffffffffffffffff1614610534576040517f08c379a000000000000000000000000000000000000000000000000000000000815260040161052b90610b11565b60405180910390fd5b600160008373ffffffffffffffffffffffffffffffffffffffff1673ffffffffffffffffffffffffffffffffffffffff16815260200190815260200160002060009054906101000a900460ff166106325760018060008473ffffffffffffffffffffffffffffffffffffffff1673ffffffffffffffffffffffffffffffffffffffff16815260200190815260200160002060006101000a81548160ff0219169083151502179055507fd1bba68c128cc3f427e5831b3c6f99f480b6efa6b9e80c757768f6124158cc3f8260405161060b9190610abb565b60405180910390a16001600260008282546106269190610b93565b92505081905550600190505b919050565b60008060009054906101000a900473ffffffffffffffffffffffffffffffffffffffff16905090565b60016020528060005260406000206000915054906101000a900460ff1681565b600061068a610862565b73ffffffffffffffffffffffffffffffffffffffff166106a8610637565b73ffffffffffffffffffffffffffffffffffffffff16146106fe576040517f08c379a00000000000000000000000000000000000000000000000000000000081526004016106f590610b11565b60405180910390fd5b60005b82518110156107645761072d8382815181106107205761071f610d0e565b5b60200260200101516104b6565b15610751576001600260008282546107459190610b93565b92505081905550600191505b808061075c90610c96565b915050610701565b50919050565b610772610862565b73ffffffffffffffffffffffffffffffffffffffff16610790610637565b73ffffffffffffffffffffffffffffffffffffffff16146107e6576040517f08c379a00000000000000000000000000000000000000000000000000000000081526004016107dd90610b11565b60405180910390fd5b600073ffffffffffffffffffffffffffffffffffffffff168173ffffffffffffffffffffffffffffffffffffffff161415610856576040517f08c379a000000000000000000000000000000000000000000000000000000000815260040161084d90610af1565b60405180910390fd5b61085f8161086a565b50565b600033905090565b60008060009054906101000a900473ffffffffffffffffffffffffffffffffffffffff169050816000806101000a81548173ffffffffffffffffffffffffffffffffffffffff021916908373ffffffffffffffffffffffffffffffffffffffff1602179055508173ffffffffffffffffffffffffffffffffffffffff168173ffffffffffffffffffffffffffffffffffffffff167f8be0079c531659141344cd1fd0a4f28419497f9722a3daafe3b4186f6b6457e060405160405180910390a35050565b600061094161093c84610b56565b610b31565b9050808382526020820190508285602086028201111561096457610963610d71565b5b60005b85811015610994578161097a888261099e565b845260208401935060208301925050600181019050610967565b5050509392505050565b6000813590506109ad81610e09565b92915050565b600082601f8301126109c8576109c7610d6c565b5b81356109d884826020860161092e565b91505092915050565b6000602082840312156109f7576109f6610d7b565b5b6000610a058482850161099e565b91505092915050565b600060208284031215610a2457610a23610d7b565b5b600082013567ffffffffffffffff811115610a4257610a41610d76565b5b610a4e848285016109b3565b91505092915050565b610a6081610c1d565b82525050565b610a6f81610c2f565b82525050565b6000610a82602683610b82565b9150610a8d82610d91565b604082019050919050565b6000610aa5602083610b82565b9150610ab082610de0565b602082019050919050565b6000602082019050610ad06000830184610a57565b92915050565b6000602082019050610aeb6000830184610a66565b92915050565b60006020820190508181036000830152610b0a81610a75565b9050919050565b60006020820190508181036000830152610b2a81610a98565b9050919050565b6000610b3b610b4c565b9050610b478282610c65565b919050565b6000604051905090565b600067ffffffffffffffff821115610b7157610b70610d3d565b5b602082029050602081019050919050565b600082825260208201905092915050565b6000610b9e82610c5b565b9150610ba983610c5b565b9250827fffffffffffffffffffffffffffffffffffffffffffffffffffffffffffffffff03821115610bde57610bdd610cdf565b5b828201905092915050565b6000610bf482610c5b565b9150610bff83610c5b565b925082821015610c1257610c11610cdf565b5b828203905092915050565b6000610c2882610c3b565b9050919050565b60008115159050919050565b600073ffffffffffffffffffffffffffffffffffffffff82169050919050565b6000819050919050565b610c6e82610d80565b810181811067ffffffffffffffff82111715610c8d57610c8c610d3d565b5b80604052505050565b6000610ca182610c5b565b91507fffffffffffffffffffffffffffffffffffffffffffffffffffffffffffffffff821415610cd457610cd3610cdf565b5b600182019050919050565b7f4e487b7100000000000000000000000000000000000000000000000000000000600052601160045260246000fd5b7f4e487b7100000000000000000000000000000000000000000000000000000000600052603260045260246000fd5b7f4e487b7100000000000000000000000000000000000000000000000000000000600052604160045260246000fd5b600080fd5b600080fd5b600080fd5b600080fd5b6000601f19601f8301169050919050565b7f4f776e61626c653a206e6577206f776e657220697320746865207a65726f206160008201527f6464726573730000000000000000000000000000000000000000000000000000602082015250565b7f4f776e61626c653a2063616c6c6572206973206e6f7420746865206f776e6572600082015250565b610e1281610c1d565b8114610e1d57600080fd5b5056fea264697066735822122028f537dd9b5fe894d1477bbddc996ce32a420981c0b41afd39c00eed7de828ef64736f6c63430008070033",
  "linkReferences": {},
  "deployedLinkReferences": {}
}