{
  "_format": "hh-sol-artifact-1",
  "contractName": "League",
  "sourceName": "contracts/League.sol",
  "abi": [
    {
      "anonymous": false,
      "inputs": [
        {
          "indexed": true,
          "internalType": "address",
          "name": "previousOwner",
          "type": "address"
        },
        {
          "indexed": true,
          "internalType": "address",
          "name": "newOwner",
          "type": "address"
        }
      ],
      "name": "OwnershipTransferred",
      "type": "event"
    },
    {
      "inputs": [
        {
          "internalType": "uint256",
          "name": "athleteId",
          "type": "uint256"
        },
        {
          "internalType": "uint256",
          "name": "weeklyScore",
          "type": "uint256"
        }
      ],
      "name": "appendStats",
      "outputs": [],
      "stateMutability": "nonpayable",
      "type": "function"
    },
    {
      "inputs": [
        {
          "internalType": "uint256",
          "name": "",
          "type": "uint256"
        },
        {
          "internalType": "uint256",
          "name": "",
          "type": "uint256"
        }
      ],
      "name": "athleteToScores",
      "outputs": [
        {
          "internalType": "uint256",
          "name": "",
          "type": "uint256"
        }
      ],
      "stateMutability": "view",
      "type": "function"
    },
    {
      "inputs": [
        {
          "internalType": "uint256",
          "name": "",
          "type": "uint256"
        }
      ],
      "name": "athletes",
      "outputs": [
        {
          "internalType": "uint256",
          "name": "athleteID",
          "type": "uint256"
        }
      ],
      "stateMutability": "view",
      "type": "function"
    },
    {
      "inputs": [
        {
          "internalType": "address",
          "name": "addr1",
          "type": "address"
        },
        {
          "internalType": "address",
          "name": "addr2",
          "type": "address"
        }
      ],
      "name": "evaluateMatch",
      "outputs": [
        {
          "internalType": "address",
          "name": "",
          "type": "address"
        }
      ],
      "stateMutability": "nonpayable",
      "type": "function"
    },
    {
      "inputs": [
        {
          "internalType": "uint256",
          "name": "index",
          "type": "uint256"
        }
      ],
      "name": "getAthleteScores",
      "outputs": [
        {
          "internalType": "uint256[]",
          "name": "",
          "type": "uint256[]"
        }
      ],
      "stateMutability": "view",
      "type": "function"
    },
    {
      "inputs": [],
      "name": "getAthletes",
      "outputs": [
        {
          "components": [
            {
              "internalType": "uint256",
              "name": "athleteID",
              "type": "uint256"
            },
            {
              "internalType": "uint256[]",
              "name": "weeklyScores",
              "type": "uint256[]"
            }
          ],
          "internalType": "struct Athletes.Athlete[]",
          "name": "",
          "type": "tuple[]"
        }
      ],
      "stateMutability": "view",
      "type": "function"
    },
    {
      "inputs": [],
      "name": "getLineup",
      "outputs": [
        {
          "internalType": "uint256[]",
          "name": "",
          "type": "uint256[]"
        }
      ],
      "stateMutability": "view",
      "type": "function"
    },
    {
      "inputs": [],
      "name": "getStats",
      "outputs": [
        {
          "components": [
            {
              "internalType": "uint256",
              "name": "athleteID",
              "type": "uint256"
            },
            {
              "internalType": "uint256[]",
              "name": "weeklyScores",
              "type": "uint256[]"
            }
          ],
          "internalType": "struct Athletes.Athlete[]",
          "name": "",
          "type": "tuple[]"
        }
      ],
      "stateMutability": "nonpayable",
      "type": "function"
    },
    {
      "inputs": [],
      "name": "getUserTotalPts",
      "outputs": [
        {
          "internalType": "uint256",
          "name": "",
          "type": "uint256"
        }
      ],
      "stateMutability": "view",
      "type": "function"
    },
    {
      "inputs": [],
      "name": "getUserWeeklypts",
      "outputs": [
        {
          "internalType": "uint256[]",
          "name": "",
          "type": "uint256[]"
        }
      ],
      "stateMutability": "view",
      "type": "function"
    },
    {
      "inputs": [],
      "name": "owner",
      "outputs": [
        {
          "internalType": "address",
          "name": "",
          "type": "address"
        }
      ],
      "stateMutability": "view",
      "type": "function"
    },
    {
      "inputs": [],
      "name": "renounceOwnership",
      "outputs": [],
      "stateMutability": "nonpayable",
      "type": "function"
    },
    {
      "inputs": [
        {
          "internalType": "address",
          "name": "_athleteContractAddress",
          "type": "address"
        }
      ],
      "name": "setAthleteContractAddress",
      "outputs": [],
      "stateMutability": "nonpayable",
      "type": "function"
    },
    {
      "inputs": [],
      "name": "setLeagueSchedule",
      "outputs": [],
      "stateMutability": "nonpayable",
      "type": "function"
    },
    {
      "inputs": [
        {
          "internalType": "uint256[]",
          "name": "athleteIds",
          "type": "uint256[]"
        }
      ],
      "name": "setLineup",
      "outputs": [],
      "stateMutability": "nonpayable",
      "type": "function"
    },
    {
      "inputs": [
        {
          "internalType": "address",
          "name": "newOwner",
          "type": "address"
        }
      ],
      "name": "transferOwnership",
      "outputs": [],
      "stateMutability": "nonpayable",
      "type": "function"
    }
  ],
  "bytecode": "0x60806040526008600455600860055534801561001a57600080fd5b5061003761002c61003c60201b60201c565b61004460201b60201c565b610108565b600033905090565b60008060009054906101000a900473ffffffffffffffffffffffffffffffffffffffff169050816000806101000a81548173ffffffffffffffffffffffffffffffffffffffff021916908373ffffffffffffffffffffffffffffffffffffffff1602179055508173ffffffffffffffffffffffffffffffffffffffff168173ffffffffffffffffffffffffffffffffffffffff167f8be0079c531659141344cd1fd0a4f28419497f9722a3daafe3b4186f6b6457e060405160405180910390a35050565b611f4d806101176000396000f3fe608060405234801561001057600080fd5b50600436106101005760003560e01c80639e9d706611610097578063edef8b8311610066578063edef8b8314610277578063ef5c1020146102a7578063f2fde38b146102c5578063f612121a146102e157610100565b80639e9d7066146101ef578063ada3a28d1461020b578063c59d484714610229578063d4313da81461024757610100565b80636fd71a18116100d35780636fd71a1814610179578063715018a614610197578063853976dd146101a15780638da5cb5b146101d157610100565b80630655465a146101055780632186e7261461010f578063486b39441461013f5780636bdc44df1461015b575b600080fd5b61010d6102fd565b005b610129600480360381019061012491906117ec565b61037b565b6040516101369190611b41565b60405180910390f35b610159600480360381019061015491906116c0565b6103ac565b005b61016361046c565b6040516101709190611b41565b60405180910390f35b6101816104b3565b60405161018e9190611aaf565b60405180910390f35b61019f610548565b005b6101bb60048036038101906101b691906116ed565b6105d0565b6040516101c89190611a72565b60405180910390f35b6101d9610cbd565b6040516101e69190611a72565b60405180910390f35b610209600480360381019061020491906117ec565b610ce6565b005b610213610dd8565b6040516102209190611aaf565b60405180910390f35b610231610e6d565b60405161023e9190611a8d565b60405180910390f35b610261600480360381019061025c91906117bf565b61102d565b60405161026e9190611aaf565b60405180910390f35b610291600480360381019061028c91906117bf565b611098565b60405161029e9190611b41565b60405180910390f35b6102af6110c6565b6040516102bc9190611a8d565b60405180910390f35b6102df60048036038101906102da91906116c0565b611187565b005b6102fb60048036038101906102f6919061172d565b61127f565b005b6103056112d6565b73ffffffffffffffffffffffffffffffffffffffff16610323610cbd565b73ffffffffffffffffffffffffffffffffffffffff1614610379576040517f08c379a000000000000000000000000000000000000000000000000000000000815260040161037090611b21565b60405180910390fd5b565b6001602052816000526040600020818154811061039757600080fd5b90600052602060002001600091509150505481565b6103b46112d6565b73ffffffffffffffffffffffffffffffffffffffff166103d2610cbd565b73ffffffffffffffffffffffffffffffffffffffff1614610428576040517f08c379a000000000000000000000000000000000000000000000000000000000815260040161041f90611b21565b60405180910390fd5b80600a60006101000a81548173ffffffffffffffffffffffffffffffffffffffff021916908373ffffffffffffffffffffffffffffffffffffffff16021790555050565b6000600760003373ffffffffffffffffffffffffffffffffffffffff1673ffffffffffffffffffffffffffffffffffffffff16815260200190815260200160002054905090565b6060600860003373ffffffffffffffffffffffffffffffffffffffff1673ffffffffffffffffffffffffffffffffffffffff16815260200190815260200160002080548060200260200160405190810160405280929190818152602001828054801561053e57602002820191906000526020600020905b81548152602001906001019080831161052a575b5050505050905090565b6105506112d6565b73ffffffffffffffffffffffffffffffffffffffff1661056e610cbd565b73ffffffffffffffffffffffffffffffffffffffff16146105c4576040517f08c379a00000000000000000000000000000000000000000000000000000000081526004016105bb90611b21565b60405180910390fd5b6105ce60006112de565b565b60006105da6112d6565b73ffffffffffffffffffffffffffffffffffffffff166105f8610cbd565b73ffffffffffffffffffffffffffffffffffffffff161461064e576040517f08c379a000000000000000000000000000000000000000000000000000000000815260040161064590611b21565b60405180910390fd5b6000600960008573ffffffffffffffffffffffffffffffffffffffff1673ffffffffffffffffffffffffffffffffffffffff1681526020019081526020016000208054806020026020016040519081016040528092919081815260200182805480156106d957602002820191906000526020600020905b8154815260200190600101908083116106c5575b505050505090506000600960008573ffffffffffffffffffffffffffffffffffffffff1673ffffffffffffffffffffffffffffffffffffffff16815260200190815260200160002080548060200260200160405190810160405280929190818152602001828054801561076b57602002820191906000526020600020905b815481526020019060010190808311610757575b5050505050905060008060005b8451811015610a36576000600a60009054906101000a900473ffffffffffffffffffffffffffffffffffffffff1673ffffffffffffffffffffffffffffffffffffffff1663d4313da88784815181106107d4576107d3611dee565b5b60200260200101516040518263ffffffff1660e01b81526004016107f89190611b41565b60006040518083038186803b15801561081057600080fd5b505afa158015610824573d6000803e3d6000fd5b505050506040513d6000823e3d601f19601f8201168201806040525081019061084d9190611776565b90506000600a60009054906101000a900473ffffffffffffffffffffffffffffffffffffffff1673ffffffffffffffffffffffffffffffffffffffff1663d4313da88785815181106108a2576108a1611dee565b5b60200260200101516040518263ffffffff1660e01b81526004016108c69190611b41565b60006040518083038186803b1580156108de57600080fd5b505afa1580156108f2573d6000803e3d6000fd5b505050506040513d6000823e3d601f19601f8201168201806040525081019061091b9190611776565b90506000826001845161092e9190611ca2565b8151811061093f5761093e611dee565b5b602002602001015190506000826001845161095a9190611ca2565b8151811061096b5761096a611dee565b5b602002602001015190506109b46040518060400160405280600781526020017f5573657223312000000000000000000000000000000000000000000000000000815250836113a2565b6109f36040518060400160405280600781526020017f5573657223322000000000000000000000000000000000000000000000000000815250826113a2565b80821115610a0f57600187610a089190611c4c565b9650610a1f565b600186610a1c9190611c4c565b95505b505050508080610a2e90611d76565b915050610778565b50600160066000828254610a4a9190611c4c565b9250508190555080821115610b8a57600860008873ffffffffffffffffffffffffffffffffffffffff1673ffffffffffffffffffffffffffffffffffffffff16815260200190815260200160002060019080600181540180825580915050600190039060005260206000200160009091909190915055600860008773ffffffffffffffffffffffffffffffffffffffff1673ffffffffffffffffffffffffffffffffffffffff168152602001908152602001600020600090806001815401808255809150506001900390600052602060002001600090919091909150556001600760008973ffffffffffffffffffffffffffffffffffffffff1673ffffffffffffffffffffffffffffffffffffffff1681526020019081526020016000206000828254610b779190611c4c565b9250508190555086945050505050610cb7565b600860008773ffffffffffffffffffffffffffffffffffffffff1673ffffffffffffffffffffffffffffffffffffffff16815260200190815260200160002060019080600181540180825580915050600190039060005260206000200160009091909190915055600860008873ffffffffffffffffffffffffffffffffffffffff1673ffffffffffffffffffffffffffffffffffffffff168152602001908152602001600020600090806001815401808255809150506001900390600052602060002001600090919091909150556001600760008873ffffffffffffffffffffffffffffffffffffffff1673ffffffffffffffffffffffffffffffffffffffff1681526020019081526020016000206000828254610ca89190611c4c565b92505081905550859450505050505b92915050565b60008060009054906101000a900473ffffffffffffffffffffffffffffffffffffffff16905090565b610cee6112d6565b73ffffffffffffffffffffffffffffffffffffffff16610d0c610cbd565b73ffffffffffffffffffffffffffffffffffffffff1614610d62576040517f08c379a0000000000000000000000000000000000000000000000000000000008152600401610d5990611b21565b60405180910390fd5b600060016000848152602001908152602001600020805490501415610d9a5760036000815480929190610d9490611d76565b91905055505b600160008381526020019081526020016000208190806001815401808255809150506001900390600052602060002001600090919091909150555050565b6060600960003373ffffffffffffffffffffffffffffffffffffffff1673ffffffffffffffffffffffffffffffffffffffff168152602001908152602001600020805480602002602001604051908101604052809291908181526020018280548015610e6357602002820191906000526020600020905b815481526020019060010190808311610e4f575b5050505050905090565b606060026000610e7d9190611467565b60005b600354811015610f6d576000604051806040016040528083815260200160016000858152602001908152602001600020805480602002602001604051908101604052809291908181526020018280548015610efa57602002820191906000526020600020905b815481526020019060010190808311610ee6575b505050505081525090506002819080600181540180825580915050600190039060005260206000209060020201600090919091909150600082015181600001556020820151816001019080519060200190610f5692919061148b565b505050508080610f6590611d76565b915050610e80565b506002805480602002602001604051908101604052809291908181526020016000905b828210156110245783829060005260206000209060020201604051806040016040529081600082015481526020016001820180548060200260200160405190810160405280929190818152602001828054801561100c57602002820191906000526020600020905b815481526020019060010190808311610ff8575b50505050508152505081526020019060010190610f90565b50505050905090565b60606001600083815260200190815260200160002080548060200260200160405190810160405280929190818152602001828054801561108c57602002820191906000526020600020905b815481526020019060010190808311611078575b50505050509050919050565b600281815481106110a857600080fd5b90600052602060002090600202016000915090508060000154905081565b60606002805480602002602001604051908101604052809291908181526020016000905b8282101561117e5783829060005260206000209060020201604051806040016040529081600082015481526020016001820180548060200260200160405190810160405280929190818152602001828054801561116657602002820191906000526020600020905b815481526020019060010190808311611152575b505050505081525050815260200190600101906110ea565b50505050905090565b61118f6112d6565b73ffffffffffffffffffffffffffffffffffffffff166111ad610cbd565b73ffffffffffffffffffffffffffffffffffffffff1614611203576040517f08c379a00000000000000000000000000000000000000000000000000000000081526004016111fa90611b21565b60405180910390fd5b600073ffffffffffffffffffffffffffffffffffffffff168173ffffffffffffffffffffffffffffffffffffffff161415611273576040517f08c379a000000000000000000000000000000000000000000000000000000000815260040161126a90611b01565b60405180910390fd5b61127c816112de565b50565b80600960003373ffffffffffffffffffffffffffffffffffffffff1673ffffffffffffffffffffffffffffffffffffffff16815260200190815260200160002090805190602001906112d292919061148b565b5050565b600033905090565b60008060009054906101000a900473ffffffffffffffffffffffffffffffffffffffff169050816000806101000a81548173ffffffffffffffffffffffffffffffffffffffff021916908373ffffffffffffffffffffffffffffffffffffffff1602179055508173ffffffffffffffffffffffffffffffffffffffff168173ffffffffffffffffffffffffffffffffffffffff167f8be0079c531659141344cd1fd0a4f28419497f9722a3daafe3b4186f6b6457e060405160405180910390a35050565b61143a82826040516024016113b8929190611ad1565b6040516020818303038152906040527f9710a9d0000000000000000000000000000000000000000000000000000000007bffffffffffffffffffffffffffffffffffffffffffffffffffffffff19166020820180517bffffffffffffffffffffffffffffffffffffffffffffffffffffffff838183161783525050505061143e565b5050565b60008151905060006a636f6e736f6c652e6c6f679050602083016000808483855afa5050505050565b508054600082556002029060005260206000209081019061148891906114d8565b50565b8280548282559060005260206000209081019282156114c7579160200282015b828111156114c65782518255916020019190600101906114ab565b5b5090506114d49190611507565b5090565b5b80821115611503576000808201600090556001820160006114fa9190611524565b506002016114d9565b5090565b5b80821115611520576000816000905550600101611508565b5090565b50805460008255906000526020600020908101906115429190611507565b50565b600061155861155384611b81565b611b5c565b9050808382526020820190508285602086028201111561157b5761157a611e51565b5b60005b858110156115ab57816115918882611696565b84526020840193506020830192505060018101905061157e565b5050509392505050565b60006115c86115c384611b81565b611b5c565b905080838252602082019050828560208602820111156115eb576115ea611e51565b5b60005b8581101561161b578161160188826116ab565b8452602084019350602083019250506001810190506115ee565b5050509392505050565b60008135905061163481611ee9565b92915050565b600082601f83011261164f5761164e611e4c565b5b813561165f848260208601611545565b91505092915050565b600082601f83011261167d5761167c611e4c565b5b815161168d8482602086016115b5565b91505092915050565b6000813590506116a581611f00565b92915050565b6000815190506116ba81611f00565b92915050565b6000602082840312156116d6576116d5611e5b565b5b60006116e484828501611625565b91505092915050565b6000806040838503121561170457611703611e5b565b5b600061171285828601611625565b925050602061172385828601611625565b9150509250929050565b60006020828403121561174357611742611e5b565b5b600082013567ffffffffffffffff81111561176157611760611e56565b5b61176d8482850161163a565b91505092915050565b60006020828403121561178c5761178b611e5b565b5b600082015167ffffffffffffffff8111156117aa576117a9611e56565b5b6117b684828501611668565b91505092915050565b6000602082840312156117d5576117d4611e5b565b5b60006117e384828501611696565b91505092915050565b6000806040838503121561180357611802611e5b565b5b600061181185828601611696565b925050602061182285828601611696565b9150509250929050565b60006118388383611a17565b905092915050565b600061184c8383611a54565b60208301905092915050565b61186181611cd6565b82525050565b600061187282611bcd565b61187c8185611c08565b93508360208202850161188e85611bad565b8060005b858110156118ca57848403895281516118ab858261182c565b94506118b683611bee565b925060208a01995050600181019050611892565b50829750879550505050505092915050565b60006118e782611bd8565b6118f18185611c19565b93506118fc83611bbd565b8060005b8381101561192d5781516119148882611840565b975061191f83611bfb565b925050600181019050611900565b5085935050505092915050565b600061194582611bd8565b61194f8185611c2a565b935061195a83611bbd565b8060005b8381101561198b5781516119728882611840565b975061197d83611bfb565b92505060018101905061195e565b5085935050505092915050565b60006119a382611be3565b6119ad8185611c3b565b93506119bd818560208601611d12565b6119c681611e60565b840191505092915050565b60006119de602683611c3b565b91506119e982611e71565b604082019050919050565b6000611a01602083611c3b565b9150611a0c82611ec0565b602082019050919050565b6000604083016000830151611a2f6000860182611a54565b5060208301518482036020860152611a4782826118dc565b9150508091505092915050565b611a5d81611d08565b82525050565b611a6c81611d08565b82525050565b6000602082019050611a876000830184611858565b92915050565b60006020820190508181036000830152611aa78184611867565b905092915050565b60006020820190508181036000830152611ac9818461193a565b905092915050565b60006040820190508181036000830152611aeb8185611998565b9050611afa6020830184611a63565b9392505050565b60006020820190508181036000830152611b1a816119d1565b9050919050565b60006020820190508181036000830152611b3a816119f4565b9050919050565b6000602082019050611b566000830184611a63565b92915050565b6000611b66611b77565b9050611b728282611d45565b919050565b6000604051905090565b600067ffffffffffffffff821115611b9c57611b9b611e1d565b5b602082029050602081019050919050565b6000819050602082019050919050565b6000819050602082019050919050565b600081519050919050565b600081519050919050565b600081519050919050565b6000602082019050919050565b6000602082019050919050565b600082825260208201905092915050565b600082825260208201905092915050565b600082825260208201905092915050565b600082825260208201905092915050565b6000611c5782611d08565b9150611c6283611d08565b9250827fffffffffffffffffffffffffffffffffffffffffffffffffffffffffffffffff03821115611c9757611c96611dbf565b5b828201905092915050565b6000611cad82611d08565b9150611cb883611d08565b925082821015611ccb57611cca611dbf565b5b828203905092915050565b6000611ce182611ce8565b9050919050565b600073ffffffffffffffffffffffffffffffffffffffff82169050919050565b6000819050919050565b60005b83811015611d30578082015181840152602081019050611d15565b83811115611d3f576000848401525b50505050565b611d4e82611e60565b810181811067ffffffffffffffff82111715611d6d57611d6c611e1d565b5b80604052505050565b6000611d8182611d08565b91507fffffffffffffffffffffffffffffffffffffffffffffffffffffffffffffffff821415611db457611db3611dbf565b5b600182019050919050565b7f4e487b7100000000000000000000000000000000000000000000000000000000600052601160045260246000fd5b7f4e487b7100000000000000000000000000000000000000000000000000000000600052603260045260246000fd5b7f4e487b7100000000000000000000000000000000000000000000000000000000600052604160045260246000fd5b600080fd5b600080fd5b600080fd5b600080fd5b6000601f19601f8301169050919050565b7f4f776e61626c653a206e6577206f776e657220697320746865207a65726f206160008201527f6464726573730000000000000000000000000000000000000000000000000000602082015250565b7f4f776e61626c653a2063616c6c6572206973206e6f7420746865206f776e6572600082015250565b611ef281611cd6565b8114611efd57600080fd5b50565b611f0981611d08565b8114611f1457600080fd5b5056fea2646970667358221220f40b213f6dead78ed1592e73b587796583eaf05d174676dfaf19fad2b218cb4e64736f6c63430008070033",
  "linkReferences": {},
  "deployedLinkReferences": {}
}