{
  "_format": "hh-sol-artifact-1",
  "contractName": "League",
  "sourceName": "contracts/League.sol",
  "abi": [
    {
      "anonymous": false,
      "inputs": [
        {
          "indexed": true,
          "internalType": "address",
          "name": "previousOwner",
          "type": "address"
        },
        {
          "indexed": true,
          "internalType": "address",
          "name": "newOwner",
          "type": "address"
        }
      ],
      "name": "OwnershipTransferred",
      "type": "event"
    },
    {
      "inputs": [
        {
          "internalType": "uint256",
          "name": "athleteId",
          "type": "uint256"
        },
        {
          "internalType": "uint256",
          "name": "weeklyScore",
          "type": "uint256"
        }
      ],
      "name": "appendStats",
      "outputs": [],
      "stateMutability": "nonpayable",
      "type": "function"
    },
    {
      "inputs": [
        {
          "internalType": "uint256",
          "name": "",
          "type": "uint256"
        },
        {
          "internalType": "uint256",
          "name": "",
          "type": "uint256"
        }
      ],
      "name": "athleteToScores",
      "outputs": [
        {
          "internalType": "uint256",
          "name": "",
          "type": "uint256"
        }
      ],
      "stateMutability": "view",
      "type": "function"
    },
    {
      "inputs": [
        {
          "internalType": "uint256",
          "name": "",
          "type": "uint256"
        }
      ],
      "name": "athletes",
      "outputs": [
        {
          "internalType": "uint256",
          "name": "athleteID",
          "type": "uint256"
        }
      ],
      "stateMutability": "view",
      "type": "function"
    },
    {
      "inputs": [
        {
          "internalType": "address",
          "name": "addr1",
          "type": "address"
        },
        {
          "internalType": "address",
          "name": "addr2",
          "type": "address"
        }
      ],
      "name": "evaluateMatch",
      "outputs": [
        {
          "internalType": "address",
          "name": "",
          "type": "address"
        }
      ],
      "stateMutability": "nonpayable",
      "type": "function"
    },
    {
      "inputs": [],
      "name": "getAthletes",
      "outputs": [
        {
          "components": [
            {
              "internalType": "uint256",
              "name": "athleteID",
              "type": "uint256"
            },
            {
              "internalType": "uint256[]",
              "name": "weeklyScores",
              "type": "uint256[]"
            }
          ],
          "internalType": "struct Athletes.Athlete[]",
          "name": "",
          "type": "tuple[]"
        }
      ],
      "stateMutability": "view",
      "type": "function"
    },
    {
      "inputs": [],
      "name": "getLineup",
      "outputs": [
        {
          "internalType": "uint256[]",
          "name": "",
          "type": "uint256[]"
        }
      ],
      "stateMutability": "view",
      "type": "function"
    },
    {
      "inputs": [],
      "name": "getStats",
      "outputs": [
        {
          "components": [
            {
              "internalType": "uint256",
              "name": "athleteID",
              "type": "uint256"
            },
            {
              "internalType": "uint256[]",
              "name": "weeklyScores",
              "type": "uint256[]"
            }
          ],
          "internalType": "struct Athletes.Athlete[]",
          "name": "",
          "type": "tuple[]"
        }
      ],
      "stateMutability": "nonpayable",
      "type": "function"
    },
    {
      "inputs": [],
      "name": "owner",
      "outputs": [
        {
          "internalType": "address",
          "name": "",
          "type": "address"
        }
      ],
      "stateMutability": "view",
      "type": "function"
    },
    {
      "inputs": [],
      "name": "renounceOwnership",
      "outputs": [],
      "stateMutability": "nonpayable",
      "type": "function"
    },
    {
      "inputs": [
        {
          "internalType": "uint256",
          "name": "leagueSize",
          "type": "uint256"
        }
      ],
      "name": "setLeagueSchedule",
      "outputs": [],
      "stateMutability": "nonpayable",
      "type": "function"
    },
    {
      "inputs": [
        {
          "internalType": "uint256[]",
          "name": "athleteIds",
          "type": "uint256[]"
        }
      ],
      "name": "setLineup",
      "outputs": [],
      "stateMutability": "nonpayable",
      "type": "function"
    },
    {
      "inputs": [
        {
          "internalType": "address",
          "name": "newOwner",
          "type": "address"
        }
      ],
      "name": "transferOwnership",
      "outputs": [],
      "stateMutability": "nonpayable",
      "type": "function"
    }
  ],
  "bytecode": "0x60806040526008600455600860055534801561001a57600080fd5b5061003761002c61003c60201b60201c565b61004460201b60201c565b610108565b600033905090565b60008060009054906101000a900473ffffffffffffffffffffffffffffffffffffffff169050816000806101000a81548173ffffffffffffffffffffffffffffffffffffffff021916908373ffffffffffffffffffffffffffffffffffffffff1602179055508173ffffffffffffffffffffffffffffffffffffffff168173ffffffffffffffffffffffffffffffffffffffff167f8be0079c531659141344cd1fd0a4f28419497f9722a3daafe3b4186f6b6457e060405160405180910390a35050565b6116b9806101176000396000f3fe608060405234801561001057600080fd5b50600436106100b45760003560e01c8063ada3a28d11610071578063ada3a28d14610179578063c59d484714610197578063edef8b83146101b5578063ef5c1020146101e5578063f2fde38b14610203578063f612121a1461021f576100b4565b80630e4ca378146100b95780632186e726146100d5578063715018a614610105578063853976dd1461010f5780638da5cb5b1461013f5780639e9d70661461015d575b600080fd5b6100d360048036038101906100ce9190610fd2565b61023b565b005b6100ef60048036038101906100ea9190610fff565b6102ba565b6040516100fc91906112eb565b60405180910390f35b61010d6102eb565b005b61012960048036038101906101249190610f49565b610373565b604051610136919061124c565b60405180910390f35b6101476106fc565b604051610154919061124c565b60405180910390f35b61017760048036038101906101729190610fff565b610725565b005b610181610817565b60405161018e9190611289565b60405180910390f35b61019f6108ac565b6040516101ac9190611267565b60405180910390f35b6101cf60048036038101906101ca9190610fd2565b610a6c565b6040516101dc91906112eb565b60405180910390f35b6101ed610a9a565b6040516101fa9190611267565b60405180910390f35b61021d60048036038101906102189190610f1c565b610b5b565b005b61023960048036038101906102349190610f89565b610c53565b005b610243610caa565b73ffffffffffffffffffffffffffffffffffffffff166102616106fc565b73ffffffffffffffffffffffffffffffffffffffff16146102b7576040517f08c379a00000000000000000000000000000000000000000000000000000000081526004016102ae906112cb565b60405180910390fd5b50565b600160205281600052604060002081815481106102d657600080fd5b90600052602060002001600091509150505481565b6102f3610caa565b73ffffffffffffffffffffffffffffffffffffffff166103116106fc565b73ffffffffffffffffffffffffffffffffffffffff1614610367576040517f08c379a000000000000000000000000000000000000000000000000000000000815260040161035e906112cb565b60405180910390fd5b6103716000610cb2565b565b600061037d610caa565b73ffffffffffffffffffffffffffffffffffffffff1661039b6106fc565b73ffffffffffffffffffffffffffffffffffffffff16146103f1576040517f08c379a00000000000000000000000000000000000000000000000000000000081526004016103e8906112cb565b60405180910390fd5b6000600960008573ffffffffffffffffffffffffffffffffffffffff1673ffffffffffffffffffffffffffffffffffffffff16815260200190815260200160002080548060200260200160405190810160405280929190818152602001828054801561047c57602002820191906000526020600020905b815481526020019060010190808311610468575b505050505090506000600960008573ffffffffffffffffffffffffffffffffffffffff1673ffffffffffffffffffffffffffffffffffffffff16815260200190815260200160002080548060200260200160405190810160405280929190818152602001828054801561050e57602002820191906000526020600020905b8154815260200190600101908083116104fa575b5050505050905060008060005b84518110156106bf5760006001600087848151811061053d5761053c61155a565b5b6020026020010151815260200190815260200160002080548060200260200160405190810160405280929190818152602001828054801561059d57602002820191906000526020600020905b815481526020019060010190808311610589575b505050505090506000600160008785815181106105bd576105bc61155a565b5b6020026020010151815260200190815260200160002080548060200260200160405190810160405280929190818152602001828054801561061d57602002820191906000526020600020905b815481526020019060010190808311610609575b50505050509050600082600184516106359190611441565b815181106106465761064561155a565b5b60200260200101519050600082600184516106619190611441565b815181106106725761067161155a565b5b60200260200101519050808211156106985760018761069191906113eb565b96506106a8565b6001866106a591906113eb565b95505b5050505080806106b7906114e2565b91505061051b565b506001600660008282546106d391906113eb565b92505081905550808211156106ee57869450505050506106f6565b859450505050505b92915050565b60008060009054906101000a900473ffffffffffffffffffffffffffffffffffffffff16905090565b61072d610caa565b73ffffffffffffffffffffffffffffffffffffffff1661074b6106fc565b73ffffffffffffffffffffffffffffffffffffffff16146107a1576040517f08c379a0000000000000000000000000000000000000000000000000000000008152600401610798906112cb565b60405180910390fd5b6000600160008481526020019081526020016000208054905014156107d957600360008154809291906107d3906114e2565b91905055505b600160008381526020019081526020016000208190806001815401808255809150506001900390600052602060002001600090919091909150555050565b6060600960003373ffffffffffffffffffffffffffffffffffffffff1673ffffffffffffffffffffffffffffffffffffffff1681526020019081526020016000208054806020026020016040519081016040528092919081815260200182805480156108a257602002820191906000526020600020905b81548152602001906001019080831161088e575b5050505050905090565b6060600260006108bc9190610d76565b60005b6003548110156109ac57600060405180604001604052808381526020016001600085815260200190815260200160002080548060200260200160405190810160405280929190818152602001828054801561093957602002820191906000526020600020905b815481526020019060010190808311610925575b505050505081525090506002819080600181540180825580915050600190039060005260206000209060020201600090919091909150600082015181600001556020820151816001019080519060200190610995929190610d9a565b5050505080806109a4906114e2565b9150506108bf565b506002805480602002602001604051908101604052809291908181526020016000905b82821015610a6357838290600052602060002090600202016040518060400160405290816000820154815260200160018201805480602002602001604051908101604052809291908181526020018280548015610a4b57602002820191906000526020600020905b815481526020019060010190808311610a37575b505050505081525050815260200190600101906109cf565b50505050905090565b60028181548110610a7c57600080fd5b90600052602060002090600202016000915090508060000154905081565b60606002805480602002602001604051908101604052809291908181526020016000905b82821015610b5257838290600052602060002090600202016040518060400160405290816000820154815260200160018201805480602002602001604051908101604052809291908181526020018280548015610b3a57602002820191906000526020600020905b815481526020019060010190808311610b26575b50505050508152505081526020019060010190610abe565b50505050905090565b610b63610caa565b73ffffffffffffffffffffffffffffffffffffffff16610b816106fc565b73ffffffffffffffffffffffffffffffffffffffff1614610bd7576040517f08c379a0000000000000000000000000000000000000000000000000000000008152600401610bce906112cb565b60405180910390fd5b600073ffffffffffffffffffffffffffffffffffffffff168173ffffffffffffffffffffffffffffffffffffffff161415610c47576040517f08c379a0000000000000000000000000000000000000000000000000000000008152600401610c3e906112ab565b60405180910390fd5b610c5081610cb2565b50565b80600960003373ffffffffffffffffffffffffffffffffffffffff1673ffffffffffffffffffffffffffffffffffffffff1681526020019081526020016000209080519060200190610ca6929190610d9a565b5050565b600033905090565b60008060009054906101000a900473ffffffffffffffffffffffffffffffffffffffff169050816000806101000a81548173ffffffffffffffffffffffffffffffffffffffff021916908373ffffffffffffffffffffffffffffffffffffffff1602179055508173ffffffffffffffffffffffffffffffffffffffff168173ffffffffffffffffffffffffffffffffffffffff167f8be0079c531659141344cd1fd0a4f28419497f9722a3daafe3b4186f6b6457e060405160405180910390a35050565b5080546000825560020290600052602060002090810190610d979190610de7565b50565b828054828255906000526020600020908101928215610dd6579160200282015b82811115610dd5578251825591602001919060010190610dba565b5b509050610de39190610e16565b5090565b5b80821115610e1257600080820160009055600182016000610e099190610e33565b50600201610de8565b5090565b5b80821115610e2f576000816000905550600101610e17565b5090565b5080546000825590600052602060002090810190610e519190610e16565b50565b6000610e67610e628461132b565b611306565b90508083825260208201905082856020860282011115610e8a57610e896115bd565b5b60005b85811015610eba5781610ea08882610f07565b845260208401935060208301925050600181019050610e8d565b5050509392505050565b600081359050610ed381611655565b92915050565b600082601f830112610eee57610eed6115b8565b5b8135610efe848260208601610e54565b91505092915050565b600081359050610f168161166c565b92915050565b600060208284031215610f3257610f316115c7565b5b6000610f4084828501610ec4565b91505092915050565b60008060408385031215610f6057610f5f6115c7565b5b6000610f6e85828601610ec4565b9250506020610f7f85828601610ec4565b9150509250929050565b600060208284031215610f9f57610f9e6115c7565b5b600082013567ffffffffffffffff811115610fbd57610fbc6115c2565b5b610fc984828501610ed9565b91505092915050565b600060208284031215610fe857610fe76115c7565b5b6000610ff684828501610f07565b91505092915050565b60008060408385031215611016576110156115c7565b5b600061102485828601610f07565b925050602061103585828601610f07565b9150509250929050565b600061104b83836111f1565b905092915050565b600061105f838361122e565b60208301905092915050565b61107481611475565b82525050565b600061108582611377565b61108f81856113a7565b9350836020820285016110a185611357565b8060005b858110156110dd57848403895281516110be858261103f565b94506110c98361138d565b925060208a019950506001810190506110a5565b50829750879550505050505092915050565b60006110fa82611382565b61110481856113b8565b935061110f83611367565b8060005b838110156111405781516111278882611053565b97506111328361139a565b925050600181019050611113565b5085935050505092915050565b600061115882611382565b61116281856113c9565b935061116d83611367565b8060005b8381101561119e5781516111858882611053565b97506111908361139a565b925050600181019050611171565b5085935050505092915050565b60006111b86026836113da565b91506111c3826115dd565b604082019050919050565b60006111db6020836113da565b91506111e68261162c565b602082019050919050565b6000604083016000830151611209600086018261122e565b506020830151848203602086015261122182826110ef565b9150508091505092915050565b611237816114a7565b82525050565b611246816114a7565b82525050565b6000602082019050611261600083018461106b565b92915050565b60006020820190508181036000830152611281818461107a565b905092915050565b600060208201905081810360008301526112a3818461114d565b905092915050565b600060208201905081810360008301526112c4816111ab565b9050919050565b600060208201905081810360008301526112e4816111ce565b9050919050565b6000602082019050611300600083018461123d565b92915050565b6000611310611321565b905061131c82826114b1565b919050565b6000604051905090565b600067ffffffffffffffff82111561134657611345611589565b5b602082029050602081019050919050565b6000819050602082019050919050565b6000819050602082019050919050565b600081519050919050565b600081519050919050565b6000602082019050919050565b6000602082019050919050565b600082825260208201905092915050565b600082825260208201905092915050565b600082825260208201905092915050565b600082825260208201905092915050565b60006113f6826114a7565b9150611401836114a7565b9250827fffffffffffffffffffffffffffffffffffffffffffffffffffffffffffffffff038211156114365761143561152b565b5b828201905092915050565b600061144c826114a7565b9150611457836114a7565b92508282101561146a5761146961152b565b5b828203905092915050565b600061148082611487565b9050919050565b600073ffffffffffffffffffffffffffffffffffffffff82169050919050565b6000819050919050565b6114ba826115cc565b810181811067ffffffffffffffff821117156114d9576114d8611589565b5b80604052505050565b60006114ed826114a7565b91507fffffffffffffffffffffffffffffffffffffffffffffffffffffffffffffffff8214156115205761151f61152b565b5b600182019050919050565b7f4e487b7100000000000000000000000000000000000000000000000000000000600052601160045260246000fd5b7f4e487b7100000000000000000000000000000000000000000000000000000000600052603260045260246000fd5b7f4e487b7100000000000000000000000000000000000000000000000000000000600052604160045260246000fd5b600080fd5b600080fd5b600080fd5b600080fd5b6000601f19601f8301169050919050565b7f4f776e61626c653a206e6577206f776e657220697320746865207a65726f206160008201527f6464726573730000000000000000000000000000000000000000000000000000602082015250565b7f4f776e61626c653a2063616c6c6572206973206e6f7420746865206f776e6572600082015250565b61165e81611475565b811461166957600080fd5b50565b611675816114a7565b811461168057600080fd5b5056fea264697066735822122006baff864acad9d951d1a5ab262cec475504a74e04d70bc6dfaac4eacdfa846c64736f6c63430008070033",
  "linkReferences": {},
  "deployedLinkReferences": {}
}