{
  "_format": "hh-sol-artifact-1",
  "contractName": "League",
  "sourceName": "contracts/League.sol",
  "abi": [
    {
      "inputs": [
        {
          "internalType": "uint256",
          "name": "_stakeAmount",
          "type": "uint256"
        }
      ],
      "stateMutability": "nonpayable",
      "type": "constructor"
    },
    {
      "anonymous": false,
      "inputs": [
        {
          "indexed": true,
          "internalType": "address",
          "name": "previousOwner",
          "type": "address"
        },
        {
          "indexed": true,
          "internalType": "address",
          "name": "newOwner",
          "type": "address"
        }
      ],
      "name": "OwnershipTransferred",
      "type": "event"
    },
    {
      "anonymous": false,
      "inputs": [
        {
          "indexed": false,
          "internalType": "address",
          "name": "sender",
          "type": "address"
        },
        {
          "indexed": false,
          "internalType": "uint256",
          "name": "amount",
          "type": "uint256"
        }
      ],
      "name": "Staked",
      "type": "event"
    },
    {
      "inputs": [
        {
          "internalType": "address",
          "name": "addr1",
          "type": "address"
        },
        {
          "internalType": "address",
          "name": "addr2",
          "type": "address"
        }
      ],
      "name": "evaluateMatch",
      "outputs": [
        {
          "internalType": "address",
          "name": "",
          "type": "address"
        }
      ],
      "stateMutability": "nonpayable",
      "type": "function"
    },
    {
      "inputs": [],
      "name": "getLineup",
      "outputs": [
        {
          "internalType": "uint256[]",
          "name": "",
          "type": "uint256[]"
        }
      ],
      "stateMutability": "view",
      "type": "function"
    },
    {
      "inputs": [],
      "name": "getUSDCBalance",
      "outputs": [
        {
          "internalType": "uint256",
          "name": "",
          "type": "uint256"
        }
      ],
      "stateMutability": "view",
      "type": "function"
    },
    {
      "inputs": [],
      "name": "getUserTotalPts",
      "outputs": [
        {
          "internalType": "uint256",
          "name": "",
          "type": "uint256"
        }
      ],
      "stateMutability": "view",
      "type": "function"
    },
    {
      "inputs": [],
      "name": "getUserUSDCBalance",
      "outputs": [
        {
          "internalType": "uint256",
          "name": "",
          "type": "uint256"
        }
      ],
      "stateMutability": "view",
      "type": "function"
    },
    {
      "inputs": [],
      "name": "getUserWeeklypts",
      "outputs": [
        {
          "internalType": "uint256[]",
          "name": "",
          "type": "uint256[]"
        }
      ],
      "stateMutability": "view",
      "type": "function"
    },
    {
      "inputs": [],
      "name": "joinLeague",
      "outputs": [],
      "stateMutability": "payable",
      "type": "function"
    },
    {
      "inputs": [],
      "name": "owner",
      "outputs": [
        {
          "internalType": "address",
          "name": "",
          "type": "address"
        }
      ],
      "stateMutability": "view",
      "type": "function"
    },
    {
      "inputs": [],
      "name": "removeFromLeague",
      "outputs": [],
      "stateMutability": "nonpayable",
      "type": "function"
    },
    {
      "inputs": [],
      "name": "renounceOwnership",
      "outputs": [],
      "stateMutability": "nonpayable",
      "type": "function"
    },
    {
      "inputs": [
        {
          "internalType": "address",
          "name": "_athleteContractAddress",
          "type": "address"
        }
      ],
      "name": "setAthleteContractAddress",
      "outputs": [],
      "stateMutability": "nonpayable",
      "type": "function"
    },
    {
      "inputs": [],
      "name": "setLeagueSchedule",
      "outputs": [],
      "stateMutability": "nonpayable",
      "type": "function"
    },
    {
      "inputs": [
        {
          "internalType": "uint256[]",
          "name": "athleteIds",
          "type": "uint256[]"
        }
      ],
      "name": "setLineup",
      "outputs": [],
      "stateMutability": "nonpayable",
      "type": "function"
    },
    {
      "inputs": [
        {
          "internalType": "address",
          "name": "newOwner",
          "type": "address"
        }
      ],
      "name": "transferOwnership",
      "outputs": [],
      "stateMutability": "nonpayable",
      "type": "function"
    }
  ],
  "bytecode": "0x608060405260086001556008600255734dbcdf9b62e891a7cec5a2568c3f4faf9e8abe2b600460006101000a81548173ffffffffffffffffffffffffffffffffffffffff021916908373ffffffffffffffffffffffffffffffffffffffff160217905550732791bca1f2de4661ed88a30c99a7a9449aa84174600560006101000a81548173ffffffffffffffffffffffffffffffffffffffff021916908373ffffffffffffffffffffffffffffffffffffffff160217905550600460009054906101000a900473ffffffffffffffffffffffffffffffffffffffff16600660006101000a81548173ffffffffffffffffffffffffffffffffffffffff021916908373ffffffffffffffffffffffffffffffffffffffff1602179055503480156200012857600080fd5b50604051620030bc380380620030bc83398181016040528101906200014e9190620002e9565b6200016e62000162620001f860201b60201c565b6200020060201b60201c565b620f4240816200017f91906200031b565b600c819055506040516200019390620002c4565b604051809103906000f080158015620001b0573d6000803e3d6000fd5b50600f60006101000a81548173ffffffffffffffffffffffffffffffffffffffff021916908373ffffffffffffffffffffffffffffffffffffffff16021790555050620003d4565b600033905090565b60008060009054906101000a900473ffffffffffffffffffffffffffffffffffffffff169050816000806101000a81548173ffffffffffffffffffffffffffffffffffffffff021916908373ffffffffffffffffffffffffffffffffffffffff1602179055508173ffffffffffffffffffffffffffffffffffffffff168173ffffffffffffffffffffffffffffffffffffffff167f8be0079c531659141344cd1fd0a4f28419497f9722a3daafe3b4186f6b6457e060405160405180910390a35050565b610f63806200215983390190565b600081519050620002e381620003ba565b92915050565b600060208284031215620003025762000301620003b5565b5b60006200031284828501620002d2565b91505092915050565b600062000328826200037c565b915062000335836200037c565b9250817fffffffffffffffffffffffffffffffffffffffffffffffffffffffffffffffff048311821515161562000371576200037062000386565b5b828202905092915050565b6000819050919050565b7f4e487b7100000000000000000000000000000000000000000000000000000000600052601160045260246000fd5b600080fd5b620003c5816200037c565b8114620003d157600080fd5b50565b611d7580620003e46000396000f3fe6080604052600436106100dd5760003560e01c8063715018a61161007f578063ada3a28d11610059578063ada3a28d14610264578063c99fea941461028f578063f2fde38b14610299578063f612121a146102c2576100dd565b8063715018a6146101e5578063853976dd146101fc5780638da5cb5b14610239576100dd565b8063486b3944116100bb578063486b39441461013b5780635fcc6987146101645780636bdc44df1461018f5780636fd71a18146101ba576100dd565b80630655465a146100e257806311c253f5146100f95780633cfd1ccc14610110575b600080fd5b3480156100ee57600080fd5b506100f76102eb565b005b34801561010557600080fd5b5061010e610369565b005b34801561011c57600080fd5b5061012561036b565b6040516101329190611956565b60405180910390f35b34801561014757600080fd5b50610162600480360381019061015d9190611588565b61041d565b005b34801561017057600080fd5b506101796104dd565b6040516101869190611956565b60405180910390f35b34801561019b57600080fd5b506101a461058f565b6040516101b19190611956565b60405180910390f35b3480156101c657600080fd5b506101cf6105d6565b6040516101dc91906118b4565b60405180910390f35b3480156101f157600080fd5b506101fa61066b565b005b34801561020857600080fd5b50610223600480360381019061021e91906115b5565b6106f3565b6040516102309190611810565b60405180910390f35b34801561024557600080fd5b5061024e610d62565b60405161025b9190611810565b60405180910390f35b34801561027057600080fd5b50610279610d8b565b60405161028691906118b4565b60405180910390f35b610297610e20565b005b3480156102a557600080fd5b506102c060048036038101906102bb9190611588565b611099565b005b3480156102ce57600080fd5b506102e960048036038101906102e491906115f5565b611191565b005b6102f36111e8565b73ffffffffffffffffffffffffffffffffffffffff16610311610d62565b73ffffffffffffffffffffffffffffffffffffffff1614610367576040517f08c379a000000000000000000000000000000000000000000000000000000000815260040161035e90611916565b60405180910390fd5b565b565b6000600460009054906101000a900473ffffffffffffffffffffffffffffffffffffffff1673ffffffffffffffffffffffffffffffffffffffff166370a08231306040518263ffffffff1660e01b81526004016103c89190611810565b60206040518083038186803b1580156103e057600080fd5b505afa1580156103f4573d6000803e3d6000fd5b505050506040513d601f19601f8201168201806040525081019061041891906116b4565b905090565b6104256111e8565b73ffffffffffffffffffffffffffffffffffffffff16610443610d62565b73ffffffffffffffffffffffffffffffffffffffff1614610499576040517f08c379a000000000000000000000000000000000000000000000000000000000815260040161049090611916565b60405180910390fd5b80600e60006101000a81548173ffffffffffffffffffffffffffffffffffffffff021916908373ffffffffffffffffffffffffffffffffffffffff16021790555050565b6000600460009054906101000a900473ffffffffffffffffffffffffffffffffffffffff1673ffffffffffffffffffffffffffffffffffffffff166370a08231336040518263ffffffff1660e01b815260040161053a9190611810565b60206040518083038186803b15801561055257600080fd5b505afa158015610566573d6000803e3d6000fd5b505050506040513d601f19601f8201168201806040525081019061058a91906116b4565b905090565b6000600760003373ffffffffffffffffffffffffffffffffffffffff1673ffffffffffffffffffffffffffffffffffffffff16815260200190815260200160002054905090565b6060600860003373ffffffffffffffffffffffffffffffffffffffff1673ffffffffffffffffffffffffffffffffffffffff16815260200190815260200160002080548060200260200160405190810160405280929190818152602001828054801561066157602002820191906000526020600020905b81548152602001906001019080831161064d575b5050505050905090565b6106736111e8565b73ffffffffffffffffffffffffffffffffffffffff16610691610d62565b73ffffffffffffffffffffffffffffffffffffffff16146106e7576040517f08c379a00000000000000000000000000000000000000000000000000000000081526004016106de90611916565b60405180910390fd5b6106f160006111f0565b565b60006106fd6111e8565b73ffffffffffffffffffffffffffffffffffffffff1661071b610d62565b73ffffffffffffffffffffffffffffffffffffffff1614610771576040517f08c379a000000000000000000000000000000000000000000000000000000000815260040161076890611916565b60405180910390fd5b6000600960008573ffffffffffffffffffffffffffffffffffffffff1673ffffffffffffffffffffffffffffffffffffffff1681526020019081526020016000208054806020026020016040519081016040528092919081815260200182805480156107fc57602002820191906000526020600020905b8154815260200190600101908083116107e8575b505050505090506000600960008573ffffffffffffffffffffffffffffffffffffffff1673ffffffffffffffffffffffffffffffffffffffff16815260200190815260200160002080548060200260200160405190810160405280929190818152602001828054801561088e57602002820191906000526020600020905b81548152602001906001019080831161087a575b5050505050905060008060005b8451811015610adb576000600e60009054906101000a900473ffffffffffffffffffffffffffffffffffffffff1673ffffffffffffffffffffffffffffffffffffffff1663d4313da88784815181106108f7576108f6611b87565b5b60200260200101516040518263ffffffff1660e01b815260040161091b9190611956565b60006040518083038186803b15801561093357600080fd5b505afa158015610947573d6000803e3d6000fd5b505050506040513d6000823e3d601f19601f82011682018060405250810190610970919061163e565b90506000600e60009054906101000a900473ffffffffffffffffffffffffffffffffffffffff1673ffffffffffffffffffffffffffffffffffffffff1663d4313da88785815181106109c5576109c4611b87565b5b60200260200101516040518263ffffffff1660e01b81526004016109e99190611956565b60006040518083038186803b158015610a0157600080fd5b505afa158015610a15573d6000803e3d6000fd5b505050506040513d6000823e3d601f19601f82011682018060405250810190610a3e919061163e565b905060008260018451610a519190611a62565b81518110610a6257610a61611b87565b5b6020026020010151905060008260018451610a7d9190611a62565b81518110610a8e57610a8d611b87565b5b6020026020010151905080821115610ab457600187610aad9190611a0c565b9650610ac4565b600186610ac19190611a0c565b95505b505050508080610ad390611b0f565b91505061089b565b50600160036000828254610aef9190611a0c565b9250508190555080821115610c2f57600860008873ffffffffffffffffffffffffffffffffffffffff1673ffffffffffffffffffffffffffffffffffffffff16815260200190815260200160002060019080600181540180825580915050600190039060005260206000200160009091909190915055600860008773ffffffffffffffffffffffffffffffffffffffff1673ffffffffffffffffffffffffffffffffffffffff168152602001908152602001600020600090806001815401808255809150506001900390600052602060002001600090919091909150556001600760008973ffffffffffffffffffffffffffffffffffffffff1673ffffffffffffffffffffffffffffffffffffffff1681526020019081526020016000206000828254610c1c9190611a0c565b9250508190555086945050505050610d5c565b600860008773ffffffffffffffffffffffffffffffffffffffff1673ffffffffffffffffffffffffffffffffffffffff16815260200190815260200160002060019080600181540180825580915050600190039060005260206000200160009091909190915055600860008873ffffffffffffffffffffffffffffffffffffffff1673ffffffffffffffffffffffffffffffffffffffff168152602001908152602001600020600090806001815401808255809150506001900390600052602060002001600090919091909150556001600760008873ffffffffffffffffffffffffffffffffffffffff1673ffffffffffffffffffffffffffffffffffffffff1681526020019081526020016000206000828254610d4d9190611a0c565b92505081905550859450505050505b92915050565b60008060009054906101000a900473ffffffffffffffffffffffffffffffffffffffff16905090565b6060600960003373ffffffffffffffffffffffffffffffffffffffff1673ffffffffffffffffffffffffffffffffffffffff168152602001908152602001600020805480602002602001604051908101604052809291908181526020018280548015610e1657602002820191906000526020600020905b815481526020019060010190808311610e02575b5050505050905090565b600a339080600181540180825580915050600190039060005260206000200160009091909190916101000a81548173ffffffffffffffffffffffffffffffffffffffff021916908373ffffffffffffffffffffffffffffffffffffffff160217905550600c54600660009054906101000a900473ffffffffffffffffffffffffffffffffffffffff1673ffffffffffffffffffffffffffffffffffffffff166370a08231336040518263ffffffff1660e01b8152600401610ee19190611810565b60206040518083038186803b158015610ef957600080fd5b505afa158015610f0d573d6000803e3d6000fd5b505050506040513d601f19601f82011682018060405250810190610f3191906116b4565b11610f71576040517f08c379a0000000000000000000000000000000000000000000000000000000008152600401610f6890611936565b60405180910390fd5b600c54600660009054906101000a900473ffffffffffffffffffffffffffffffffffffffff1673ffffffffffffffffffffffffffffffffffffffff1663dd62ed3e33306040518363ffffffff1660e01b8152600401610fd192919061182b565b60206040518083038186803b158015610fe957600080fd5b505afa158015610ffd573d6000803e3d6000fd5b505050506040513d601f19601f8201168201806040525081019061102191906116b4565b101561102c57600080fd5b61105c600660009054906101000a900473ffffffffffffffffffffffffffffffffffffffff163330600c546112b4565b7f9e71bc8eea02a63969f509818f2dafb9254532904319f9dbda79b67bd34a5f3d33600c5460405161108f92919061188b565b60405180910390a1565b6110a16111e8565b73ffffffffffffffffffffffffffffffffffffffff166110bf610d62565b73ffffffffffffffffffffffffffffffffffffffff1614611115576040517f08c379a000000000000000000000000000000000000000000000000000000000815260040161110c90611916565b60405180910390fd5b600073ffffffffffffffffffffffffffffffffffffffff168173ffffffffffffffffffffffffffffffffffffffff161415611185576040517f08c379a000000000000000000000000000000000000000000000000000000000815260040161117c906118d6565b60405180910390fd5b61118e816111f0565b50565b80600960003373ffffffffffffffffffffffffffffffffffffffff1673ffffffffffffffffffffffffffffffffffffffff16815260200190815260200160002090805190602001906111e492919061138e565b5050565b600033905090565b60008060009054906101000a900473ffffffffffffffffffffffffffffffffffffffff169050816000806101000a81548173ffffffffffffffffffffffffffffffffffffffff021916908373ffffffffffffffffffffffffffffffffffffffff1602179055508173ffffffffffffffffffffffffffffffffffffffff168173ffffffffffffffffffffffffffffffffffffffff167f8be0079c531659141344cd1fd0a4f28419497f9722a3daafe3b4186f6b6457e060405160405180910390a35050565b60008473ffffffffffffffffffffffffffffffffffffffff166323b872dd8585856040518463ffffffff1660e01b81526004016112f393929190611854565b602060405180830381600087803b15801561130d57600080fd5b505af1158015611321573d6000803e3d6000fd5b505050506040513d601f19601f820116820180604052508101906113459190611687565b905080611387576040517f08c379a000000000000000000000000000000000000000000000000000000000815260040161137e906118f6565b60405180910390fd5b5050505050565b8280548282559060005260206000209081019282156113ca579160200282015b828111156113c95782518255916020019190600101906113ae565b5b5090506113d791906113db565b5090565b5b808211156113f45760008160009055506001016113dc565b5090565b600061140b61140684611996565b611971565b9050808382526020820190508285602086028201111561142e5761142d611bea565b5b60005b8581101561145e5781611444888261155e565b845260208401935060208301925050600181019050611431565b5050509392505050565b600061147b61147684611996565b611971565b9050808382526020820190508285602086028201111561149e5761149d611bea565b5b60005b858110156114ce57816114b48882611573565b8452602084019350602083019250506001810190506114a1565b5050509392505050565b6000813590506114e781611cfa565b92915050565b600082601f83011261150257611501611be5565b5b81356115128482602086016113f8565b91505092915050565b600082601f8301126115305761152f611be5565b5b8151611540848260208601611468565b91505092915050565b60008151905061155881611d11565b92915050565b60008135905061156d81611d28565b92915050565b60008151905061158281611d28565b92915050565b60006020828403121561159e5761159d611bf4565b5b60006115ac848285016114d8565b91505092915050565b600080604083850312156115cc576115cb611bf4565b5b60006115da858286016114d8565b92505060206115eb858286016114d8565b9150509250929050565b60006020828403121561160b5761160a611bf4565b5b600082013567ffffffffffffffff81111561162957611628611bef565b5b611635848285016114ed565b91505092915050565b60006020828403121561165457611653611bf4565b5b600082015167ffffffffffffffff81111561167257611671611bef565b5b61167e8482850161151b565b91505092915050565b60006020828403121561169d5761169c611bf4565b5b60006116ab84828501611549565b91505092915050565b6000602082840312156116ca576116c9611bf4565b5b60006116d884828501611573565b91505092915050565b60006116ed83836117f2565b60208301905092915050565b61170281611a96565b82525050565b6000611713826119d2565b61171d81856119ea565b9350611728836119c2565b8060005b8381101561175957815161174088826116e1565b975061174b836119dd565b92505060018101905061172c565b5085935050505092915050565b60006117736026836119fb565b915061177e82611c0a565b604082019050919050565b60006117966015836119fb565b91506117a182611c59565b602082019050919050565b60006117b96020836119fb565b91506117c482611c82565b602082019050919050565b60006117dc6029836119fb565b91506117e782611cab565b604082019050919050565b6117fb81611ad4565b82525050565b61180a81611ad4565b82525050565b600060208201905061182560008301846116f9565b92915050565b600060408201905061184060008301856116f9565b61184d60208301846116f9565b9392505050565b600060608201905061186960008301866116f9565b61187660208301856116f9565b6118836040830184611801565b949350505050565b60006040820190506118a060008301856116f9565b6118ad6020830184611801565b9392505050565b600060208201905081810360008301526118ce8184611708565b905092915050565b600060208201905081810360008301526118ef81611766565b9050919050565b6000602082019050818103600083015261190f81611789565b9050919050565b6000602082019050818103600083015261192f816117ac565b9050919050565b6000602082019050818103600083015261194f816117cf565b9050919050565b600060208201905061196b6000830184611801565b92915050565b600061197b61198c565b90506119878282611ade565b919050565b6000604051905090565b600067ffffffffffffffff8211156119b1576119b0611bb6565b5b602082029050602081019050919050565b6000819050602082019050919050565b600081519050919050565b6000602082019050919050565b600082825260208201905092915050565b600082825260208201905092915050565b6000611a1782611ad4565b9150611a2283611ad4565b9250827fffffffffffffffffffffffffffffffffffffffffffffffffffffffffffffffff03821115611a5757611a56611b58565b5b828201905092915050565b6000611a6d82611ad4565b9150611a7883611ad4565b925082821015611a8b57611a8a611b58565b5b828203905092915050565b6000611aa182611ab4565b9050919050565b60008115159050919050565b600073ffffffffffffffffffffffffffffffffffffffff82169050919050565b6000819050919050565b611ae782611bf9565b810181811067ffffffffffffffff82111715611b0657611b05611bb6565b5b80604052505050565b6000611b1a82611ad4565b91507fffffffffffffffffffffffffffffffffffffffffffffffffffffffffffffffff821415611b4d57611b4c611b58565b5b600182019050919050565b7f4e487b7100000000000000000000000000000000000000000000000000000000600052601160045260246000fd5b7f4e487b7100000000000000000000000000000000000000000000000000000000600052603260045260246000fd5b7f4e487b7100000000000000000000000000000000000000000000000000000000600052604160045260246000fd5b600080fd5b600080fd5b600080fd5b600080fd5b6000601f19601f8301169050919050565b7f4f776e61626c653a206e6577206f776e657220697320746865207a65726f206160008201527f6464726573730000000000000000000000000000000000000000000000000000602082015250565b7f546f6b656e207472616e73666572206661696c65640000000000000000000000600082015250565b7f4f776e61626c653a2063616c6c6572206973206e6f7420746865206f776e6572600082015250565b7f55736572206d757374206861766520656e6f756768205553444320746f206a6f60008201527f696e206c65616775650000000000000000000000000000000000000000000000602082015250565b611d0381611a96565b8114611d0e57600080fd5b50565b611d1a81611aa8565b8114611d2557600080fd5b50565b611d3181611ad4565b8114611d3c57600080fd5b5056fea2646970667358221220ca13633032e9ef55f47b0a246e603977c4cf3d8ec1ff6667a1a12552946e251664736f6c63430008070033608060405234801561001057600080fd5b5061002d61002261003260201b60201c565b61003a60201b60201c565b6100fe565b600033905090565b60008060009054906101000a900473ffffffffffffffffffffffffffffffffffffffff169050816000806101000a81548173ffffffffffffffffffffffffffffffffffffffff021916908373ffffffffffffffffffffffffffffffffffffffff1602179055508173ffffffffffffffffffffffffffffffffffffffff168173ffffffffffffffffffffffffffffffffffffffff167f8be0079c531659141344cd1fd0a4f28419497f9722a3daafe3b4186f6b6457e060405160405180910390a35050565b610e568061010d6000396000f3fe608060405234801561001057600080fd5b50600436106100885760003560e01c80638da5cb5b1161005b5780638da5cb5b146101275780639b19251a14610145578063e2ec6ec314610175578063f2fde38b146101a557610088565b806324953eaa1461008d578063286dd3f5146100bd578063715018a6146100ed5780637b9417c8146100f7575b600080fd5b6100a760048036038101906100a29190610a0e565b6101c1565b6040516100b49190610ad6565b60405180910390f35b6100d760048036038101906100d291906109e1565b6102ab565b6040516100e49190610ad6565b60405180910390f35b6100f561042e565b005b610111600480360381019061010c91906109e1565b6104b6565b60405161011e9190610ad6565b60405180910390f35b61012f610637565b60405161013c9190610abb565b60405180910390f35b61015f600480360381019061015a91906109e1565b610660565b60405161016c9190610ad6565b60405180910390f35b61018f600480360381019061018a9190610a0e565b610680565b60405161019c9190610ad6565b60405180910390f35b6101bf60048036038101906101ba91906109e1565b61076a565b005b60006101cb610862565b73ffffffffffffffffffffffffffffffffffffffff166101e9610637565b73ffffffffffffffffffffffffffffffffffffffff161461023f576040517f08c379a000000000000000000000000000000000000000000000000000000000815260040161023690610b11565b60405180910390fd5b60005b82518110156102a55761026e83828151811061026157610260610d0e565b5b60200260200101516102ab565b15610292576001600260008282546102869190610be9565b92505081905550600191505b808061029d90610c96565b915050610242565b50919050565b60006102b5610862565b73ffffffffffffffffffffffffffffffffffffffff166102d3610637565b73ffffffffffffffffffffffffffffffffffffffff1614610329576040517f08c379a000000000000000000000000000000000000000000000000000000000815260040161032090610b11565b60405180910390fd5b600160008373ffffffffffffffffffffffffffffffffffffffff1673ffffffffffffffffffffffffffffffffffffffff16815260200190815260200160002060009054906101000a900460ff1615610429576000600160008473ffffffffffffffffffffffffffffffffffffffff1673ffffffffffffffffffffffffffffffffffffffff16815260200190815260200160002060006101000a81548160ff0219169083151502179055507ff1abf01a1043b7c244d128e8595cf0c1d10743b022b03a02dffd8ca3bf729f5a826040516104029190610abb565b60405180910390a160016002600082825461041d9190610be9565b92505081905550600190505b919050565b610436610862565b73ffffffffffffffffffffffffffffffffffffffff16610454610637565b73ffffffffffffffffffffffffffffffffffffffff16146104aa576040517f08c379a00000000000000000000000000000000000000000000000000000000081526004016104a190610b11565b60405180910390fd5b6104b4600061086a565b565b60006104c0610862565b73ffffffffffffffffffffffffffffffffffffffff166104de610637565b73ffffffffffffffffffffffffffffffffffffffff1614610534576040517f08c379a000000000000000000000000000000000000000000000000000000000815260040161052b90610b11565b60405180910390fd5b600160008373ffffffffffffffffffffffffffffffffffffffff1673ffffffffffffffffffffffffffffffffffffffff16815260200190815260200160002060009054906101000a900460ff166106325760018060008473ffffffffffffffffffffffffffffffffffffffff1673ffffffffffffffffffffffffffffffffffffffff16815260200190815260200160002060006101000a81548160ff0219169083151502179055507fd1bba68c128cc3f427e5831b3c6f99f480b6efa6b9e80c757768f6124158cc3f8260405161060b9190610abb565b60405180910390a16001600260008282546106269190610b93565b92505081905550600190505b919050565b60008060009054906101000a900473ffffffffffffffffffffffffffffffffffffffff16905090565b60016020528060005260406000206000915054906101000a900460ff1681565b600061068a610862565b73ffffffffffffffffffffffffffffffffffffffff166106a8610637565b73ffffffffffffffffffffffffffffffffffffffff16146106fe576040517f08c379a00000000000000000000000000000000000000000000000000000000081526004016106f590610b11565b60405180910390fd5b60005b82518110156107645761072d8382815181106107205761071f610d0e565b5b60200260200101516104b6565b15610751576001600260008282546107459190610b93565b92505081905550600191505b808061075c90610c96565b915050610701565b50919050565b610772610862565b73ffffffffffffffffffffffffffffffffffffffff16610790610637565b73ffffffffffffffffffffffffffffffffffffffff16146107e6576040517f08c379a00000000000000000000000000000000000000000000000000000000081526004016107dd90610b11565b60405180910390fd5b600073ffffffffffffffffffffffffffffffffffffffff168173ffffffffffffffffffffffffffffffffffffffff161415610856576040517f08c379a000000000000000000000000000000000000000000000000000000000815260040161084d90610af1565b60405180910390fd5b61085f8161086a565b50565b600033905090565b60008060009054906101000a900473ffffffffffffffffffffffffffffffffffffffff169050816000806101000a81548173ffffffffffffffffffffffffffffffffffffffff021916908373ffffffffffffffffffffffffffffffffffffffff1602179055508173ffffffffffffffffffffffffffffffffffffffff168173ffffffffffffffffffffffffffffffffffffffff167f8be0079c531659141344cd1fd0a4f28419497f9722a3daafe3b4186f6b6457e060405160405180910390a35050565b600061094161093c84610b56565b610b31565b9050808382526020820190508285602086028201111561096457610963610d71565b5b60005b85811015610994578161097a888261099e565b845260208401935060208301925050600181019050610967565b5050509392505050565b6000813590506109ad81610e09565b92915050565b600082601f8301126109c8576109c7610d6c565b5b81356109d884826020860161092e565b91505092915050565b6000602082840312156109f7576109f6610d7b565b5b6000610a058482850161099e565b91505092915050565b600060208284031215610a2457610a23610d7b565b5b600082013567ffffffffffffffff811115610a4257610a41610d76565b5b610a4e848285016109b3565b91505092915050565b610a6081610c1d565b82525050565b610a6f81610c2f565b82525050565b6000610a82602683610b82565b9150610a8d82610d91565b604082019050919050565b6000610aa5602083610b82565b9150610ab082610de0565b602082019050919050565b6000602082019050610ad06000830184610a57565b92915050565b6000602082019050610aeb6000830184610a66565b92915050565b60006020820190508181036000830152610b0a81610a75565b9050919050565b60006020820190508181036000830152610b2a81610a98565b9050919050565b6000610b3b610b4c565b9050610b478282610c65565b919050565b6000604051905090565b600067ffffffffffffffff821115610b7157610b70610d3d565b5b602082029050602081019050919050565b600082825260208201905092915050565b6000610b9e82610c5b565b9150610ba983610c5b565b9250827fffffffffffffffffffffffffffffffffffffffffffffffffffffffffffffffff03821115610bde57610bdd610cdf565b5b828201905092915050565b6000610bf482610c5b565b9150610bff83610c5b565b925082821015610c1257610c11610cdf565b5b828203905092915050565b6000610c2882610c3b565b9050919050565b60008115159050919050565b600073ffffffffffffffffffffffffffffffffffffffff82169050919050565b6000819050919050565b610c6e82610d80565b810181811067ffffffffffffffff82111715610c8d57610c8c610d3d565b5b80604052505050565b6000610ca182610c5b565b91507fffffffffffffffffffffffffffffffffffffffffffffffffffffffffffffffff821415610cd457610cd3610cdf565b5b600182019050919050565b7f4e487b7100000000000000000000000000000000000000000000000000000000600052601160045260246000fd5b7f4e487b7100000000000000000000000000000000000000000000000000000000600052603260045260246000fd5b7f4e487b7100000000000000000000000000000000000000000000000000000000600052604160045260246000fd5b600080fd5b600080fd5b600080fd5b600080fd5b6000601f19601f8301169050919050565b7f4f776e61626c653a206e6577206f776e657220697320746865207a65726f206160008201527f6464726573730000000000000000000000000000000000000000000000000000602082015250565b7f4f776e61626c653a2063616c6c6572206973206e6f7420746865206f776e6572600082015250565b610e1281610c1d565b8114610e1d57600080fd5b5056fea2646970667358221220fb1abdaf2591ffa11a42327d975072cdbfaea858fb556a8e7af6f7d0ae7bc51d64736f6c63430008070033",
  "linkReferences": {},
  "deployedLinkReferences": {}
}