{
  "_format": "hh-sol-artifact-1",
  "contractName": "League",
  "sourceName": "contracts/League.sol",
  "abi": [
    {
      "anonymous": false,
      "inputs": [
        {
          "indexed": true,
          "internalType": "address",
          "name": "previousOwner",
          "type": "address"
        },
        {
          "indexed": true,
          "internalType": "address",
          "name": "newOwner",
          "type": "address"
        }
      ],
      "name": "OwnershipTransferred",
      "type": "event"
    },
    {
      "inputs": [
        {
          "internalType": "uint256",
          "name": "athleteId",
          "type": "uint256"
        },
        {
          "internalType": "uint256",
          "name": "weeklyScore",
          "type": "uint256"
        }
      ],
      "name": "appendStats",
      "outputs": [],
      "stateMutability": "nonpayable",
      "type": "function"
    },
    {
      "inputs": [
        {
          "internalType": "uint256",
          "name": "",
          "type": "uint256"
        },
        {
          "internalType": "uint256",
          "name": "",
          "type": "uint256"
        }
      ],
      "name": "athleteToScores",
      "outputs": [
        {
          "internalType": "uint256",
          "name": "",
          "type": "uint256"
        }
      ],
      "stateMutability": "view",
      "type": "function"
    },
    {
      "inputs": [
        {
          "internalType": "uint256",
          "name": "",
          "type": "uint256"
        }
      ],
      "name": "athletes",
      "outputs": [
        {
          "internalType": "uint256",
          "name": "athleteID",
          "type": "uint256"
        }
      ],
      "stateMutability": "view",
      "type": "function"
    },
    {
      "inputs": [
        {
          "internalType": "address",
          "name": "addr1",
          "type": "address"
        },
        {
          "internalType": "address",
          "name": "addr2",
          "type": "address"
        }
      ],
      "name": "evaluateMatch",
      "outputs": [
        {
          "internalType": "address",
          "name": "",
          "type": "address"
        }
      ],
      "stateMutability": "nonpayable",
      "type": "function"
    },
    {
      "inputs": [
        {
          "internalType": "uint256",
          "name": "index",
          "type": "uint256"
        }
      ],
      "name": "getAthleteScores",
      "outputs": [
        {
          "internalType": "uint256[]",
          "name": "",
          "type": "uint256[]"
        }
      ],
      "stateMutability": "view",
      "type": "function"
    },
    {
      "inputs": [],
      "name": "getAthletes",
      "outputs": [
        {
          "components": [
            {
              "internalType": "uint256",
              "name": "athleteID",
              "type": "uint256"
            },
            {
              "internalType": "uint256[]",
              "name": "weeklyScores",
              "type": "uint256[]"
            }
          ],
          "internalType": "struct Athletes.Athlete[]",
          "name": "",
          "type": "tuple[]"
        }
      ],
      "stateMutability": "view",
      "type": "function"
    },
    {
      "inputs": [],
      "name": "getLineup",
      "outputs": [
        {
          "internalType": "uint256[]",
          "name": "",
          "type": "uint256[]"
        }
      ],
      "stateMutability": "view",
      "type": "function"
    },
    {
      "inputs": [],
      "name": "getStats",
      "outputs": [
        {
          "components": [
            {
              "internalType": "uint256",
              "name": "athleteID",
              "type": "uint256"
            },
            {
              "internalType": "uint256[]",
              "name": "weeklyScores",
              "type": "uint256[]"
            }
          ],
          "internalType": "struct Athletes.Athlete[]",
          "name": "",
          "type": "tuple[]"
        }
      ],
      "stateMutability": "nonpayable",
      "type": "function"
    },
    {
      "inputs": [],
      "name": "owner",
      "outputs": [
        {
          "internalType": "address",
          "name": "",
          "type": "address"
        }
      ],
      "stateMutability": "view",
      "type": "function"
    },
    {
      "inputs": [],
      "name": "renounceOwnership",
      "outputs": [],
      "stateMutability": "nonpayable",
      "type": "function"
    },
    {
      "inputs": [
        {
          "internalType": "address",
          "name": "_athleteContractAddress",
          "type": "address"
        }
      ],
      "name": "setAthleteContractAddress",
      "outputs": [],
      "stateMutability": "nonpayable",
      "type": "function"
    },
    {
      "inputs": [],
      "name": "setLeagueSchedule",
      "outputs": [],
      "stateMutability": "nonpayable",
      "type": "function"
    },
    {
      "inputs": [
        {
          "internalType": "uint256[]",
          "name": "athleteIds",
          "type": "uint256[]"
        }
      ],
      "name": "setLineup",
      "outputs": [],
      "stateMutability": "nonpayable",
      "type": "function"
    },
    {
      "inputs": [
        {
          "internalType": "address",
          "name": "newOwner",
          "type": "address"
        }
      ],
      "name": "transferOwnership",
      "outputs": [],
      "stateMutability": "nonpayable",
      "type": "function"
    }
  ],
  "bytecode": "0x60806040526008600455600860055534801561001a57600080fd5b5061003761002c61003c60201b60201c565b61004460201b60201c565b610108565b600033905090565b60008060009054906101000a900473ffffffffffffffffffffffffffffffffffffffff169050816000806101000a81548173ffffffffffffffffffffffffffffffffffffffff021916908373ffffffffffffffffffffffffffffffffffffffff1602179055508173ffffffffffffffffffffffffffffffffffffffff168173ffffffffffffffffffffffffffffffffffffffff167f8be0079c531659141344cd1fd0a4f28419497f9722a3daafe3b4186f6b6457e060405160405180910390a35050565b6119eb806101176000396000f3fe608060405234801561001057600080fd5b50600436106100ea5760003560e01c8063ada3a28d1161008c578063edef8b8311610066578063edef8b8314610225578063ef5c102014610255578063f2fde38b14610273578063f612121a1461028f576100ea565b8063ada3a28d146101b9578063c59d4847146101d7578063d4313da8146101f5576100ea565b8063715018a6116100c8578063715018a614610145578063853976dd1461014f5780638da5cb5b1461017f5780639e9d70661461019d576100ea565b80630655465a146100ef5780632186e726146100f9578063486b394414610129575b600080fd5b6100f76102ab565b005b610113600480360381019061010e9190611331565b610329565b604051610120919061161d565b60405180910390f35b610143600480360381019061013e9190611205565b61035a565b005b61014d61041a565b005b61016960048036038101906101649190611232565b6104a2565b604051610176919061157e565b60405180910390f35b6101876108c7565b604051610194919061157e565b60405180910390f35b6101b760048036038101906101b29190611331565b6108f0565b005b6101c16109e2565b6040516101ce91906115bb565b60405180910390f35b6101df610a77565b6040516101ec9190611599565b60405180910390f35b61020f600480360381019061020a9190611304565b610c37565b60405161021c91906115bb565b60405180910390f35b61023f600480360381019061023a9190611304565b610ca2565b60405161024c919061161d565b60405180910390f35b61025d610cd0565b60405161026a9190611599565b60405180910390f35b61028d60048036038101906102889190611205565b610d91565b005b6102a960048036038101906102a49190611272565b610e89565b005b6102b3610ee0565b73ffffffffffffffffffffffffffffffffffffffff166102d16108c7565b73ffffffffffffffffffffffffffffffffffffffff1614610327576040517f08c379a000000000000000000000000000000000000000000000000000000000815260040161031e906115fd565b60405180910390fd5b565b6001602052816000526040600020818154811061034557600080fd5b90600052602060002001600091509150505481565b610362610ee0565b73ffffffffffffffffffffffffffffffffffffffff166103806108c7565b73ffffffffffffffffffffffffffffffffffffffff16146103d6576040517f08c379a00000000000000000000000000000000000000000000000000000000081526004016103cd906115fd565b60405180910390fd5b80600a60006101000a81548173ffffffffffffffffffffffffffffffffffffffff021916908373ffffffffffffffffffffffffffffffffffffffff16021790555050565b610422610ee0565b73ffffffffffffffffffffffffffffffffffffffff166104406108c7565b73ffffffffffffffffffffffffffffffffffffffff1614610496576040517f08c379a000000000000000000000000000000000000000000000000000000000815260040161048d906115fd565b60405180910390fd5b6104a06000610ee8565b565b60006104ac610ee0565b73ffffffffffffffffffffffffffffffffffffffff166104ca6108c7565b73ffffffffffffffffffffffffffffffffffffffff1614610520576040517f08c379a0000000000000000000000000000000000000000000000000000000008152600401610517906115fd565b60405180910390fd5b6000600960008573ffffffffffffffffffffffffffffffffffffffff1673ffffffffffffffffffffffffffffffffffffffff1681526020019081526020016000208054806020026020016040519081016040528092919081815260200182805480156105ab57602002820191906000526020600020905b815481526020019060010190808311610597575b505050505090506000600960008573ffffffffffffffffffffffffffffffffffffffff1673ffffffffffffffffffffffffffffffffffffffff16815260200190815260200160002080548060200260200160405190810160405280929190818152602001828054801561063d57602002820191906000526020600020905b815481526020019060010190808311610629575b5050505050905060008060005b845181101561088a576000600a60009054906101000a900473ffffffffffffffffffffffffffffffffffffffff1673ffffffffffffffffffffffffffffffffffffffff1663d4313da88784815181106106a6576106a561188c565b5b60200260200101516040518263ffffffff1660e01b81526004016106ca919061161d565b60006040518083038186803b1580156106e257600080fd5b505afa1580156106f6573d6000803e3d6000fd5b505050506040513d6000823e3d601f19601f8201168201806040525081019061071f91906112bb565b90506000600a60009054906101000a900473ffffffffffffffffffffffffffffffffffffffff1673ffffffffffffffffffffffffffffffffffffffff1663d4313da88785815181106107745761077361188c565b5b60200260200101516040518263ffffffff1660e01b8152600401610798919061161d565b60006040518083038186803b1580156107b057600080fd5b505afa1580156107c4573d6000803e3d6000fd5b505050506040513d6000823e3d601f19601f820116820180604052508101906107ed91906112bb565b9050600082600184516108009190611773565b815181106108115761081061188c565b5b602002602001015190506000826001845161082c9190611773565b8151811061083d5761083c61188c565b5b60200260200101519050808211156108635760018761085c919061171d565b9650610873565b600186610870919061171d565b95505b50505050808061088290611814565b91505061064a565b5060016006600082825461089e919061171d565b92505081905550808211156108b957869450505050506108c1565b859450505050505b92915050565b60008060009054906101000a900473ffffffffffffffffffffffffffffffffffffffff16905090565b6108f8610ee0565b73ffffffffffffffffffffffffffffffffffffffff166109166108c7565b73ffffffffffffffffffffffffffffffffffffffff161461096c576040517f08c379a0000000000000000000000000000000000000000000000000000000008152600401610963906115fd565b60405180910390fd5b6000600160008481526020019081526020016000208054905014156109a4576003600081548092919061099e90611814565b91905055505b600160008381526020019081526020016000208190806001815401808255809150506001900390600052602060002001600090919091909150555050565b6060600960003373ffffffffffffffffffffffffffffffffffffffff1673ffffffffffffffffffffffffffffffffffffffff168152602001908152602001600020805480602002602001604051908101604052809291908181526020018280548015610a6d57602002820191906000526020600020905b815481526020019060010190808311610a59575b5050505050905090565b606060026000610a879190610fac565b60005b600354811015610b77576000604051806040016040528083815260200160016000858152602001908152602001600020805480602002602001604051908101604052809291908181526020018280548015610b0457602002820191906000526020600020905b815481526020019060010190808311610af0575b505050505081525090506002819080600181540180825580915050600190039060005260206000209060020201600090919091909150600082015181600001556020820151816001019080519060200190610b60929190610fd0565b505050508080610b6f90611814565b915050610a8a565b506002805480602002602001604051908101604052809291908181526020016000905b82821015610c2e57838290600052602060002090600202016040518060400160405290816000820154815260200160018201805480602002602001604051908101604052809291908181526020018280548015610c1657602002820191906000526020600020905b815481526020019060010190808311610c02575b50505050508152505081526020019060010190610b9a565b50505050905090565b606060016000838152602001908152602001600020805480602002602001604051908101604052809291908181526020018280548015610c9657602002820191906000526020600020905b815481526020019060010190808311610c82575b50505050509050919050565b60028181548110610cb257600080fd5b90600052602060002090600202016000915090508060000154905081565b60606002805480602002602001604051908101604052809291908181526020016000905b82821015610d8857838290600052602060002090600202016040518060400160405290816000820154815260200160018201805480602002602001604051908101604052809291908181526020018280548015610d7057602002820191906000526020600020905b815481526020019060010190808311610d5c575b50505050508152505081526020019060010190610cf4565b50505050905090565b610d99610ee0565b73ffffffffffffffffffffffffffffffffffffffff16610db76108c7565b73ffffffffffffffffffffffffffffffffffffffff1614610e0d576040517f08c379a0000000000000000000000000000000000000000000000000000000008152600401610e04906115fd565b60405180910390fd5b600073ffffffffffffffffffffffffffffffffffffffff168173ffffffffffffffffffffffffffffffffffffffff161415610e7d576040517f08c379a0000000000000000000000000000000000000000000000000000000008152600401610e74906115dd565b60405180910390fd5b610e8681610ee8565b50565b80600960003373ffffffffffffffffffffffffffffffffffffffff1673ffffffffffffffffffffffffffffffffffffffff1681526020019081526020016000209080519060200190610edc929190610fd0565b5050565b600033905090565b60008060009054906101000a900473ffffffffffffffffffffffffffffffffffffffff169050816000806101000a81548173ffffffffffffffffffffffffffffffffffffffff021916908373ffffffffffffffffffffffffffffffffffffffff1602179055508173ffffffffffffffffffffffffffffffffffffffff168173ffffffffffffffffffffffffffffffffffffffff167f8be0079c531659141344cd1fd0a4f28419497f9722a3daafe3b4186f6b6457e060405160405180910390a35050565b5080546000825560020290600052602060002090810190610fcd919061101d565b50565b82805482825590600052602060002090810192821561100c579160200282015b8281111561100b578251825591602001919060010190610ff0565b5b509050611019919061104c565b5090565b5b808211156110485760008082016000905560018201600061103f9190611069565b5060020161101e565b5090565b5b8082111561106557600081600090555060010161104d565b5090565b5080546000825590600052602060002090810190611087919061104c565b50565b600061109d6110988461165d565b611638565b905080838252602082019050828560208602820111156110c0576110bf6118ef565b5b60005b858110156110f057816110d688826111db565b8452602084019350602083019250506001810190506110c3565b5050509392505050565b600061110d6111088461165d565b611638565b905080838252602082019050828560208602820111156111305761112f6118ef565b5b60005b85811015611160578161114688826111f0565b845260208401935060208301925050600181019050611133565b5050509392505050565b60008135905061117981611987565b92915050565b600082601f830112611194576111936118ea565b5b81356111a484826020860161108a565b91505092915050565b600082601f8301126111c2576111c16118ea565b5b81516111d28482602086016110fa565b91505092915050565b6000813590506111ea8161199e565b92915050565b6000815190506111ff8161199e565b92915050565b60006020828403121561121b5761121a6118f9565b5b60006112298482850161116a565b91505092915050565b60008060408385031215611249576112486118f9565b5b60006112578582860161116a565b92505060206112688582860161116a565b9150509250929050565b600060208284031215611288576112876118f9565b5b600082013567ffffffffffffffff8111156112a6576112a56118f4565b5b6112b28482850161117f565b91505092915050565b6000602082840312156112d1576112d06118f9565b5b600082015167ffffffffffffffff8111156112ef576112ee6118f4565b5b6112fb848285016111ad565b91505092915050565b60006020828403121561131a576113196118f9565b5b6000611328848285016111db565b91505092915050565b60008060408385031215611348576113476118f9565b5b6000611356858286016111db565b9250506020611367858286016111db565b9150509250929050565b600061137d8383611523565b905092915050565b60006113918383611560565b60208301905092915050565b6113a6816117a7565b82525050565b60006113b7826116a9565b6113c181856116d9565b9350836020820285016113d385611689565b8060005b8581101561140f57848403895281516113f08582611371565b94506113fb836116bf565b925060208a019950506001810190506113d7565b50829750879550505050505092915050565b600061142c826116b4565b61143681856116ea565b935061144183611699565b8060005b838110156114725781516114598882611385565b9750611464836116cc565b925050600181019050611445565b5085935050505092915050565b600061148a826116b4565b61149481856116fb565b935061149f83611699565b8060005b838110156114d05781516114b78882611385565b97506114c2836116cc565b9250506001810190506114a3565b5085935050505092915050565b60006114ea60268361170c565b91506114f58261190f565b604082019050919050565b600061150d60208361170c565b91506115188261195e565b602082019050919050565b600060408301600083015161153b6000860182611560565b50602083015184820360208601526115538282611421565b9150508091505092915050565b611569816117d9565b82525050565b611578816117d9565b82525050565b6000602082019050611593600083018461139d565b92915050565b600060208201905081810360008301526115b381846113ac565b905092915050565b600060208201905081810360008301526115d5818461147f565b905092915050565b600060208201905081810360008301526115f6816114dd565b9050919050565b6000602082019050818103600083015261161681611500565b9050919050565b6000602082019050611632600083018461156f565b92915050565b6000611642611653565b905061164e82826117e3565b919050565b6000604051905090565b600067ffffffffffffffff821115611678576116776118bb565b5b602082029050602081019050919050565b6000819050602082019050919050565b6000819050602082019050919050565b600081519050919050565b600081519050919050565b6000602082019050919050565b6000602082019050919050565b600082825260208201905092915050565b600082825260208201905092915050565b600082825260208201905092915050565b600082825260208201905092915050565b6000611728826117d9565b9150611733836117d9565b9250827fffffffffffffffffffffffffffffffffffffffffffffffffffffffffffffffff038211156117685761176761185d565b5b828201905092915050565b600061177e826117d9565b9150611789836117d9565b92508282101561179c5761179b61185d565b5b828203905092915050565b60006117b2826117b9565b9050919050565b600073ffffffffffffffffffffffffffffffffffffffff82169050919050565b6000819050919050565b6117ec826118fe565b810181811067ffffffffffffffff8211171561180b5761180a6118bb565b5b80604052505050565b600061181f826117d9565b91507fffffffffffffffffffffffffffffffffffffffffffffffffffffffffffffffff8214156118525761185161185d565b5b600182019050919050565b7f4e487b7100000000000000000000000000000000000000000000000000000000600052601160045260246000fd5b7f4e487b7100000000000000000000000000000000000000000000000000000000600052603260045260246000fd5b7f4e487b7100000000000000000000000000000000000000000000000000000000600052604160045260246000fd5b600080fd5b600080fd5b600080fd5b600080fd5b6000601f19601f8301169050919050565b7f4f776e61626c653a206e6577206f776e657220697320746865207a65726f206160008201527f6464726573730000000000000000000000000000000000000000000000000000602082015250565b7f4f776e61626c653a2063616c6c6572206973206e6f7420746865206f776e6572600082015250565b611990816117a7565b811461199b57600080fd5b50565b6119a7816117d9565b81146119b257600080fd5b5056fea2646970667358221220de658d2df4576c32812e59fa568174a3f0e1aa4f81bca4af3fbeae4be6432f1164736f6c63430008070033",
  "linkReferences": {},
  "deployedLinkReferences": {}
}