{
  "_format": "hh-sol-artifact-1",
  "contractName": "League",
  "sourceName": "contracts/League.sol",
  "abi": [
    {
      "inputs": [
        {
          "internalType": "uint256",
          "name": "_stakeAmount",
          "type": "uint256"
        },
        {
          "internalType": "address",
          "name": "_testUSDCAddress",
          "type": "address"
        }
      ],
      "stateMutability": "nonpayable",
      "type": "constructor"
    },
    {
      "anonymous": false,
      "inputs": [
        {
          "indexed": true,
          "internalType": "address",
          "name": "previousOwner",
          "type": "address"
        },
        {
          "indexed": true,
          "internalType": "address",
          "name": "newOwner",
          "type": "address"
        }
      ],
      "name": "OwnershipTransferred",
      "type": "event"
    },
    {
      "anonymous": false,
      "inputs": [
        {
          "indexed": false,
          "internalType": "address",
          "name": "sender",
          "type": "address"
        },
        {
          "indexed": false,
          "internalType": "uint256",
          "name": "amount",
          "type": "uint256"
        }
      ],
      "name": "Staked",
      "type": "event"
    },
    {
      "inputs": [
        {
          "internalType": "address",
          "name": "addr1",
          "type": "address"
        },
        {
          "internalType": "address",
          "name": "addr2",
          "type": "address"
        }
      ],
      "name": "evaluateMatch",
      "outputs": [
        {
          "internalType": "address",
          "name": "",
          "type": "address"
        }
      ],
      "stateMutability": "nonpayable",
      "type": "function"
    },
    {
      "inputs": [],
      "name": "getLineup",
      "outputs": [
        {
          "internalType": "uint256[]",
          "name": "",
          "type": "uint256[]"
        }
      ],
      "stateMutability": "view",
      "type": "function"
    },
    {
      "inputs": [],
      "name": "getUSDCBalance",
      "outputs": [
        {
          "internalType": "uint256",
          "name": "",
          "type": "uint256"
        }
      ],
      "stateMutability": "view",
      "type": "function"
    },
    {
      "inputs": [],
      "name": "getUserTotalPts",
      "outputs": [
        {
          "internalType": "uint256",
          "name": "",
          "type": "uint256"
        }
      ],
      "stateMutability": "view",
      "type": "function"
    },
    {
      "inputs": [],
      "name": "getUserUSDCBalance",
      "outputs": [
        {
          "internalType": "uint256",
          "name": "",
          "type": "uint256"
        }
      ],
      "stateMutability": "view",
      "type": "function"
    },
    {
      "inputs": [],
      "name": "getUserWeeklypts",
      "outputs": [
        {
          "internalType": "uint256[]",
          "name": "",
          "type": "uint256[]"
        }
      ],
      "stateMutability": "view",
      "type": "function"
    },
    {
      "inputs": [],
      "name": "getUsersLength",
      "outputs": [
        {
          "internalType": "uint256",
          "name": "",
          "type": "uint256"
        }
      ],
      "stateMutability": "view",
      "type": "function"
    },
    {
      "inputs": [],
      "name": "joinLeagueAndStake",
      "outputs": [],
      "stateMutability": "payable",
      "type": "function"
    },
    {
      "inputs": [],
      "name": "owner",
      "outputs": [
        {
          "internalType": "address",
          "name": "",
          "type": "address"
        }
      ],
      "stateMutability": "view",
      "type": "function"
    },
    {
      "inputs": [],
      "name": "removeFromLeague",
      "outputs": [],
      "stateMutability": "nonpayable",
      "type": "function"
    },
    {
      "inputs": [],
      "name": "renounceOwnership",
      "outputs": [],
      "stateMutability": "nonpayable",
      "type": "function"
    },
    {
      "inputs": [
        {
          "internalType": "address",
          "name": "_athleteContractAddress",
          "type": "address"
        }
      ],
      "name": "setAthleteContractAddress",
      "outputs": [],
      "stateMutability": "nonpayable",
      "type": "function"
    },
    {
      "inputs": [],
      "name": "setLeagueSchedule",
      "outputs": [],
      "stateMutability": "nonpayable",
      "type": "function"
    },
    {
      "inputs": [
        {
          "internalType": "uint256[]",
          "name": "athleteIds",
          "type": "uint256[]"
        }
      ],
      "name": "setLineup",
      "outputs": [],
      "stateMutability": "nonpayable",
      "type": "function"
    },
    {
      "inputs": [
        {
          "internalType": "address",
          "name": "newOwner",
          "type": "address"
        }
      ],
      "name": "transferOwnership",
      "outputs": [],
      "stateMutability": "nonpayable",
      "type": "function"
    }
  ],
  "bytecode": "0x608060405260086001556008600255732791bca1f2de4661ed88a30c99a7a9449aa84174600460006101000a81548173ffffffffffffffffffffffffffffffffffffffff021916908373ffffffffffffffffffffffffffffffffffffffff1602179055503480156200007057600080fd5b506040516200316538038062003165833981810160405281019062000096919062000395565b620000b6620000aa620001be60201b60201c565b620001c660201b60201c565b620001026040518060400160405280600881526020017f4144445920697320000000000000000000000000000000000000000000000000815250826200028a60201b620011821760201c565b80600e60006101000a81548173ffffffffffffffffffffffffffffffffffffffff021916908373ffffffffffffffffffffffffffffffffffffffff16021790555081600a81905550604051620001589062000359565b604051809103906000f08015801562000175573d6000803e3d6000fd5b50600d60006101000a81548173ffffffffffffffffffffffffffffffffffffffff021916908373ffffffffffffffffffffffffffffffffffffffff16021790555050506200053c565b600033905090565b60008060009054906101000a900473ffffffffffffffffffffffffffffffffffffffff169050816000806101000a81548173ffffffffffffffffffffffffffffffffffffffff021916908373ffffffffffffffffffffffffffffffffffffffff1602179055508173ffffffffffffffffffffffffffffffffffffffff168173ffffffffffffffffffffffffffffffffffffffff167f8be0079c531659141344cd1fd0a4f28419497f9722a3daafe3b4186f6b6457e060405160405180910390a35050565b6200032c8282604051602401620002a39291906200042e565b6040516020818303038152906040527f319af333000000000000000000000000000000000000000000000000000000007bffffffffffffffffffffffffffffffffffffffffffffffffffffffff19166020820180517bffffffffffffffffffffffffffffffffffffffffffffffffffffffff83818316178352505050506200033060201b60201c565b5050565b60008151905060006a636f6e736f6c652e6c6f679050602083016000808483855afa5050505050565b610f9f80620021c683390190565b600081519050620003788162000508565b92915050565b6000815190506200038f8162000522565b92915050565b60008060408385031215620003af57620003ae620004f2565b5b6000620003bf858286016200037e565b9250506020620003d28582860162000367565b9150509250929050565b620003e7816200047e565b82525050565b6000620003fa8262000462565b6200040681856200046d565b935062000418818560208601620004bc565b6200042381620004f7565b840191505092915050565b600060408201905081810360008301526200044a8185620003ed565b90506200045b6020830184620003dc565b9392505050565b600081519050919050565b600082825260208201905092915050565b60006200048b8262000492565b9050919050565b600073ffffffffffffffffffffffffffffffffffffffff82169050919050565b6000819050919050565b60005b83811015620004dc578082015181840152602081019050620004bf565b83811115620004ec576000848401525b50505050565b600080fd5b6000601f19601f8301169050919050565b62000513816200047e565b81146200051f57600080fd5b50565b6200052d81620004b2565b81146200053957600080fd5b50565b611c7a806200054c6000396000f3fe6080604052600436106100e85760003560e01c80636fd71a181161008a5780639e0e047a116100595780639e0e047a1461029a578063ada3a28d146102a4578063f2fde38b146102cf578063f612121a146102f8576100e8565b80636fd71a18146101f0578063715018a61461021b578063853976dd146102325780638da5cb5b1461026f576100e8565b8063486b3944116100c6578063486b394414610146578063595b1a3e1461016f5780635fcc69871461019a5780636bdc44df146101c5576100e8565b80630655465a146100ed57806311c253f5146101045780633cfd1ccc1461011b575b600080fd5b3480156100f957600080fd5b50610102610321565b005b34801561011057600080fd5b5061011961039f565b005b34801561012757600080fd5b5061013061041d565b60405161013d9190611895565b60405180910390f35b34801561015257600080fd5b5061016d6004803603810190610168919061150d565b6104cf565b005b34801561017b57600080fd5b5061018461058f565b6040516101919190611895565b60405180910390f35b3480156101a657600080fd5b506101af61059c565b6040516101bc9190611895565b60405180910390f35b3480156101d157600080fd5b506101da61064e565b6040516101e79190611895565b60405180910390f35b3480156101fc57600080fd5b50610205610695565b6040516102129190611803565b60405180910390f35b34801561022757600080fd5b5061023061072a565b005b34801561023e57600080fd5b506102596004803603810190610254919061153a565b6107b2565b6040516102669190611788565b60405180910390f35b34801561027b57600080fd5b50610284610e21565b6040516102919190611788565b60405180910390f35b6102a2610e4a565b005b3480156102b057600080fd5b506102b9610f9e565b6040516102c69190611803565b60405180910390f35b3480156102db57600080fd5b506102f660048036038101906102f1919061150d565b611033565b005b34801561030457600080fd5b5061031f600480360381019061031a919061157a565b61112b565b005b61032961121e565b73ffffffffffffffffffffffffffffffffffffffff16610347610e21565b73ffffffffffffffffffffffffffffffffffffffff161461039d576040517f08c379a000000000000000000000000000000000000000000000000000000000815260040161039490611875565b60405180910390fd5b565b6103a761121e565b73ffffffffffffffffffffffffffffffffffffffff166103c5610e21565b73ffffffffffffffffffffffffffffffffffffffff161461041b576040517f08c379a000000000000000000000000000000000000000000000000000000000815260040161041290611875565b60405180910390fd5b565b6000600e60009054906101000a900473ffffffffffffffffffffffffffffffffffffffff1673ffffffffffffffffffffffffffffffffffffffff166370a08231306040518263ffffffff1660e01b815260040161047a9190611788565b60206040518083038186803b15801561049257600080fd5b505afa1580156104a6573d6000803e3d6000fd5b505050506040513d601f19601f820116820180604052508101906104ca9190611639565b905090565b6104d761121e565b73ffffffffffffffffffffffffffffffffffffffff166104f5610e21565b73ffffffffffffffffffffffffffffffffffffffff161461054b576040517f08c379a000000000000000000000000000000000000000000000000000000000815260040161054290611875565b60405180910390fd5b80600c60006101000a81548173ffffffffffffffffffffffffffffffffffffffff021916908373ffffffffffffffffffffffffffffffffffffffff16021790555050565b6000600880549050905090565b6000600e60009054906101000a900473ffffffffffffffffffffffffffffffffffffffff1673ffffffffffffffffffffffffffffffffffffffff166370a08231336040518263ffffffff1660e01b81526004016105f99190611788565b60206040518083038186803b15801561061157600080fd5b505afa158015610625573d6000803e3d6000fd5b505050506040513d601f19601f820116820180604052508101906106499190611639565b905090565b6000600560003373ffffffffffffffffffffffffffffffffffffffff1673ffffffffffffffffffffffffffffffffffffffff16815260200190815260200160002054905090565b6060600660003373ffffffffffffffffffffffffffffffffffffffff1673ffffffffffffffffffffffffffffffffffffffff16815260200190815260200160002080548060200260200160405190810160405280929190818152602001828054801561072057602002820191906000526020600020905b81548152602001906001019080831161070c575b5050505050905090565b61073261121e565b73ffffffffffffffffffffffffffffffffffffffff16610750610e21565b73ffffffffffffffffffffffffffffffffffffffff16146107a6576040517f08c379a000000000000000000000000000000000000000000000000000000000815260040161079d90611875565b60405180910390fd5b6107b06000611226565b565b60006107bc61121e565b73ffffffffffffffffffffffffffffffffffffffff166107da610e21565b73ffffffffffffffffffffffffffffffffffffffff1614610830576040517f08c379a000000000000000000000000000000000000000000000000000000000815260040161082790611875565b60405180910390fd5b6000600760008573ffffffffffffffffffffffffffffffffffffffff1673ffffffffffffffffffffffffffffffffffffffff1681526020019081526020016000208054806020026020016040519081016040528092919081815260200182805480156108bb57602002820191906000526020600020905b8154815260200190600101908083116108a7575b505050505090506000600760008573ffffffffffffffffffffffffffffffffffffffff1673ffffffffffffffffffffffffffffffffffffffff16815260200190815260200160002080548060200260200160405190810160405280929190818152602001828054801561094d57602002820191906000526020600020905b815481526020019060010190808311610939575b5050505050905060008060005b8451811015610b9a576000600c60009054906101000a900473ffffffffffffffffffffffffffffffffffffffff1673ffffffffffffffffffffffffffffffffffffffff1663d4313da88784815181106109b6576109b5611b04565b5b60200260200101516040518263ffffffff1660e01b81526004016109da9190611895565b60006040518083038186803b1580156109f257600080fd5b505afa158015610a06573d6000803e3d6000fd5b505050506040513d6000823e3d601f19601f82011682018060405250810190610a2f91906115c3565b90506000600c60009054906101000a900473ffffffffffffffffffffffffffffffffffffffff1673ffffffffffffffffffffffffffffffffffffffff1663d4313da8878581518110610a8457610a83611b04565b5b60200260200101516040518263ffffffff1660e01b8152600401610aa89190611895565b60006040518083038186803b158015610ac057600080fd5b505afa158015610ad4573d6000803e3d6000fd5b505050506040513d6000823e3d601f19601f82011682018060405250810190610afd91906115c3565b905060008260018451610b1091906119ac565b81518110610b2157610b20611b04565b5b6020026020010151905060008260018451610b3c91906119ac565b81518110610b4d57610b4c611b04565b5b6020026020010151905080821115610b7357600187610b6c9190611956565b9650610b83565b600186610b809190611956565b95505b505050508080610b9290611a8c565b91505061095a565b50600160036000828254610bae9190611956565b9250508190555080821115610cee57600660008873ffffffffffffffffffffffffffffffffffffffff1673ffffffffffffffffffffffffffffffffffffffff16815260200190815260200160002060019080600181540180825580915050600190039060005260206000200160009091909190915055600660008773ffffffffffffffffffffffffffffffffffffffff1673ffffffffffffffffffffffffffffffffffffffff168152602001908152602001600020600090806001815401808255809150506001900390600052602060002001600090919091909150556001600560008973ffffffffffffffffffffffffffffffffffffffff1673ffffffffffffffffffffffffffffffffffffffff1681526020019081526020016000206000828254610cdb9190611956565b9250508190555086945050505050610e1b565b600660008773ffffffffffffffffffffffffffffffffffffffff1673ffffffffffffffffffffffffffffffffffffffff16815260200190815260200160002060019080600181540180825580915050600190039060005260206000200160009091909190915055600660008873ffffffffffffffffffffffffffffffffffffffff1673ffffffffffffffffffffffffffffffffffffffff168152602001908152602001600020600090806001815401808255809150506001900390600052602060002001600090919091909150556001600560008873ffffffffffffffffffffffffffffffffffffffff1673ffffffffffffffffffffffffffffffffffffffff1681526020019081526020016000206000828254610e0c9190611956565b92505081905550859450505050505b92915050565b60008060009054906101000a900473ffffffffffffffffffffffffffffffffffffffff16905090565b6008339080600181540180825580915050600190039060005260206000200160009091909190916101000a81548173ffffffffffffffffffffffffffffffffffffffff021916908373ffffffffffffffffffffffffffffffffffffffff160217905550600e60009054906101000a900473ffffffffffffffffffffffffffffffffffffffff1673ffffffffffffffffffffffffffffffffffffffff166323b872dd3330600a546040518463ffffffff1660e01b8152600401610f0e939291906117a3565b602060405180830381600087803b158015610f2857600080fd5b505af1158015610f3c573d6000803e3d6000fd5b505050506040513d601f19601f82011682018060405250810190610f60919061160c565b507f9e71bc8eea02a63969f509818f2dafb9254532904319f9dbda79b67bd34a5f3d33600a54604051610f949291906117da565b60405180910390a1565b6060600760003373ffffffffffffffffffffffffffffffffffffffff1673ffffffffffffffffffffffffffffffffffffffff16815260200190815260200160002080548060200260200160405190810160405280929190818152602001828054801561102957602002820191906000526020600020905b815481526020019060010190808311611015575b5050505050905090565b61103b61121e565b73ffffffffffffffffffffffffffffffffffffffff16611059610e21565b73ffffffffffffffffffffffffffffffffffffffff16146110af576040517f08c379a00000000000000000000000000000000000000000000000000000000081526004016110a690611875565b60405180910390fd5b600073ffffffffffffffffffffffffffffffffffffffff168173ffffffffffffffffffffffffffffffffffffffff16141561111f576040517f08c379a000000000000000000000000000000000000000000000000000000000815260040161111690611855565b60405180910390fd5b61112881611226565b50565b80600760003373ffffffffffffffffffffffffffffffffffffffff1673ffffffffffffffffffffffffffffffffffffffff168152602001908152602001600020908051906020019061117e929190611313565b5050565b61121a8282604051602401611198929190611825565b6040516020818303038152906040527f319af333000000000000000000000000000000000000000000000000000000007bffffffffffffffffffffffffffffffffffffffffffffffffffffffff19166020820180517bffffffffffffffffffffffffffffffffffffffffffffffffffffffff83818316178352505050506112ea565b5050565b600033905090565b60008060009054906101000a900473ffffffffffffffffffffffffffffffffffffffff169050816000806101000a81548173ffffffffffffffffffffffffffffffffffffffff021916908373ffffffffffffffffffffffffffffffffffffffff1602179055508173ffffffffffffffffffffffffffffffffffffffff168173ffffffffffffffffffffffffffffffffffffffff167f8be0079c531659141344cd1fd0a4f28419497f9722a3daafe3b4186f6b6457e060405160405180910390a35050565b60008151905060006a636f6e736f6c652e6c6f679050602083016000808483855afa5050505050565b82805482825590600052602060002090810192821561134f579160200282015b8281111561134e578251825591602001919060010190611333565b5b50905061135c9190611360565b5090565b5b80821115611379576000816000905550600101611361565b5090565b600061139061138b846118d5565b6118b0565b905080838252602082019050828560208602820111156113b3576113b2611b67565b5b60005b858110156113e357816113c988826114e3565b8452602084019350602083019250506001810190506113b6565b5050509392505050565b60006114006113fb846118d5565b6118b0565b9050808382526020820190508285602086028201111561142357611422611b67565b5b60005b85811015611453578161143988826114f8565b845260208401935060208301925050600181019050611426565b5050509392505050565b60008135905061146c81611bff565b92915050565b600082601f83011261148757611486611b62565b5b813561149784826020860161137d565b91505092915050565b600082601f8301126114b5576114b4611b62565b5b81516114c58482602086016113ed565b91505092915050565b6000815190506114dd81611c16565b92915050565b6000813590506114f281611c2d565b92915050565b60008151905061150781611c2d565b92915050565b60006020828403121561152357611522611b71565b5b60006115318482850161145d565b91505092915050565b6000806040838503121561155157611550611b71565b5b600061155f8582860161145d565b92505060206115708582860161145d565b9150509250929050565b6000602082840312156115905761158f611b71565b5b600082013567ffffffffffffffff8111156115ae576115ad611b6c565b5b6115ba84828501611472565b91505092915050565b6000602082840312156115d9576115d8611b71565b5b600082015167ffffffffffffffff8111156115f7576115f6611b6c565b5b611603848285016114a0565b91505092915050565b60006020828403121561162257611621611b71565b5b6000611630848285016114ce565b91505092915050565b60006020828403121561164f5761164e611b71565b5b600061165d848285016114f8565b91505092915050565b6000611672838361176a565b60208301905092915050565b611687816119e0565b82525050565b600061169882611911565b6116a28185611934565b93506116ad83611901565b8060005b838110156116de5781516116c58882611666565b97506116d083611927565b9250506001810190506116b1565b5085935050505092915050565b60006116f68261191c565b6117008185611945565b9350611710818560208601611a28565b61171981611b76565b840191505092915050565b6000611731602683611945565b915061173c82611b87565b604082019050919050565b6000611754602083611945565b915061175f82611bd6565b602082019050919050565b61177381611a1e565b82525050565b61178281611a1e565b82525050565b600060208201905061179d600083018461167e565b92915050565b60006060820190506117b8600083018661167e565b6117c5602083018561167e565b6117d26040830184611779565b949350505050565b60006040820190506117ef600083018561167e565b6117fc6020830184611779565b9392505050565b6000602082019050818103600083015261181d818461168d565b905092915050565b6000604082019050818103600083015261183f81856116eb565b905061184e602083018461167e565b9392505050565b6000602082019050818103600083015261186e81611724565b9050919050565b6000602082019050818103600083015261188e81611747565b9050919050565b60006020820190506118aa6000830184611779565b92915050565b60006118ba6118cb565b90506118c68282611a5b565b919050565b6000604051905090565b600067ffffffffffffffff8211156118f0576118ef611b33565b5b602082029050602081019050919050565b6000819050602082019050919050565b600081519050919050565b600081519050919050565b6000602082019050919050565b600082825260208201905092915050565b600082825260208201905092915050565b600061196182611a1e565b915061196c83611a1e565b9250827fffffffffffffffffffffffffffffffffffffffffffffffffffffffffffffffff038211156119a1576119a0611ad5565b5b828201905092915050565b60006119b782611a1e565b91506119c283611a1e565b9250828210156119d5576119d4611ad5565b5b828203905092915050565b60006119eb826119fe565b9050919050565b60008115159050919050565b600073ffffffffffffffffffffffffffffffffffffffff82169050919050565b6000819050919050565b60005b83811015611a46578082015181840152602081019050611a2b565b83811115611a55576000848401525b50505050565b611a6482611b76565b810181811067ffffffffffffffff82111715611a8357611a82611b33565b5b80604052505050565b6000611a9782611a1e565b91507fffffffffffffffffffffffffffffffffffffffffffffffffffffffffffffffff821415611aca57611ac9611ad5565b5b600182019050919050565b7f4e487b7100000000000000000000000000000000000000000000000000000000600052601160045260246000fd5b7f4e487b7100000000000000000000000000000000000000000000000000000000600052603260045260246000fd5b7f4e487b7100000000000000000000000000000000000000000000000000000000600052604160045260246000fd5b600080fd5b600080fd5b600080fd5b600080fd5b6000601f19601f8301169050919050565b7f4f776e61626c653a206e6577206f776e657220697320746865207a65726f206160008201527f6464726573730000000000000000000000000000000000000000000000000000602082015250565b7f4f776e61626c653a2063616c6c6572206973206e6f7420746865206f776e6572600082015250565b611c08816119e0565b8114611c1357600080fd5b50565b611c1f816119f2565b8114611c2a57600080fd5b50565b611c3681611a1e565b8114611c4157600080fd5b5056fea26469706673582212202f14a8f95c8f7f66e084bf02aa9feb8ae541f2573245bf1c6a268418a0cedd5864736f6c63430008070033608060405234801561001057600080fd5b5061002d61002261003260201b60201c565b61003a60201b60201c565b6100fe565b600033905090565b60008060009054906101000a900473ffffffffffffffffffffffffffffffffffffffff169050816000806101000a81548173ffffffffffffffffffffffffffffffffffffffff021916908373ffffffffffffffffffffffffffffffffffffffff1602179055508173ffffffffffffffffffffffffffffffffffffffff168173ffffffffffffffffffffffffffffffffffffffff167f8be0079c531659141344cd1fd0a4f28419497f9722a3daafe3b4186f6b6457e060405160405180910390a35050565b610e928061010d6000396000f3fe608060405234801561001057600080fd5b50600436106100935760003560e01c80638da5cb5b116100665780638da5cb5b146101325780639b19251a14610150578063dc9a153514610180578063e2ec6ec31461019e578063f2fde38b146101ce57610093565b806324953eaa14610098578063286dd3f5146100c8578063715018a6146100f85780637b9417c814610102575b600080fd5b6100b260048036038101906100ad9190610a4a565b6101ea565b6040516100bf9190610b12565b60405180910390f35b6100e260048036038101906100dd9190610a1d565b6102d4565b6040516100ef9190610b12565b60405180910390f35b610100610457565b005b61011c60048036038101906101179190610a1d565b6104df565b6040516101299190610b12565b60405180910390f35b61013a610660565b6040516101479190610af7565b60405180910390f35b61016a60048036038101906101659190610a1d565b610689565b6040516101779190610b12565b60405180910390f35b6101886106a9565b6040516101959190610b12565b60405180910390f35b6101b860048036038101906101b39190610a4a565b6106bc565b6040516101c59190610b12565b60405180910390f35b6101e860048036038101906101e39190610a1d565b6107a6565b005b60006101f461089e565b73ffffffffffffffffffffffffffffffffffffffff16610212610660565b73ffffffffffffffffffffffffffffffffffffffff1614610268576040517f08c379a000000000000000000000000000000000000000000000000000000000815260040161025f90610b4d565b60405180910390fd5b60005b82518110156102ce5761029783828151811061028a57610289610d4a565b5b60200260200101516102d4565b156102bb576001600260008282546102af9190610c25565b92505081905550600191505b80806102c690610cd2565b91505061026b565b50919050565b60006102de61089e565b73ffffffffffffffffffffffffffffffffffffffff166102fc610660565b73ffffffffffffffffffffffffffffffffffffffff1614610352576040517f08c379a000000000000000000000000000000000000000000000000000000000815260040161034990610b4d565b60405180910390fd5b600160008373ffffffffffffffffffffffffffffffffffffffff1673ffffffffffffffffffffffffffffffffffffffff16815260200190815260200160002060009054906101000a900460ff1615610452576000600160008473ffffffffffffffffffffffffffffffffffffffff1673ffffffffffffffffffffffffffffffffffffffff16815260200190815260200160002060006101000a81548160ff0219169083151502179055507ff1abf01a1043b7c244d128e8595cf0c1d10743b022b03a02dffd8ca3bf729f5a8260405161042b9190610af7565b60405180910390a16001600260008282546104469190610c25565b92505081905550600190505b919050565b61045f61089e565b73ffffffffffffffffffffffffffffffffffffffff1661047d610660565b73ffffffffffffffffffffffffffffffffffffffff16146104d3576040517f08c379a00000000000000000000000000000000000000000000000000000000081526004016104ca90610b4d565b60405180910390fd5b6104dd60006108a6565b565b60006104e961089e565b73ffffffffffffffffffffffffffffffffffffffff16610507610660565b73ffffffffffffffffffffffffffffffffffffffff161461055d576040517f08c379a000000000000000000000000000000000000000000000000000000000815260040161055490610b4d565b60405180910390fd5b600160008373ffffffffffffffffffffffffffffffffffffffff1673ffffffffffffffffffffffffffffffffffffffff16815260200190815260200160002060009054906101000a900460ff1661065b5760018060008473ffffffffffffffffffffffffffffffffffffffff1673ffffffffffffffffffffffffffffffffffffffff16815260200190815260200160002060006101000a81548160ff0219169083151502179055507fd1bba68c128cc3f427e5831b3c6f99f480b6efa6b9e80c757768f6124158cc3f826040516106349190610af7565b60405180910390a160016002600082825461064f9190610bcf565b92505081905550600190505b919050565b60008060009054906101000a900473ffffffffffffffffffffffffffffffffffffffff16905090565b60016020528060005260406000206000915054906101000a900460ff1681565b600360009054906101000a900460ff1681565b60006106c661089e565b73ffffffffffffffffffffffffffffffffffffffff166106e4610660565b73ffffffffffffffffffffffffffffffffffffffff161461073a576040517f08c379a000000000000000000000000000000000000000000000000000000000815260040161073190610b4d565b60405180910390fd5b60005b82518110156107a05761076983828151811061075c5761075b610d4a565b5b60200260200101516104df565b1561078d576001600260008282546107819190610bcf565b92505081905550600191505b808061079890610cd2565b91505061073d565b50919050565b6107ae61089e565b73ffffffffffffffffffffffffffffffffffffffff166107cc610660565b73ffffffffffffffffffffffffffffffffffffffff1614610822576040517f08c379a000000000000000000000000000000000000000000000000000000000815260040161081990610b4d565b60405180910390fd5b600073ffffffffffffffffffffffffffffffffffffffff168173ffffffffffffffffffffffffffffffffffffffff161415610892576040517f08c379a000000000000000000000000000000000000000000000000000000000815260040161088990610b2d565b60405180910390fd5b61089b816108a6565b50565b600033905090565b60008060009054906101000a900473ffffffffffffffffffffffffffffffffffffffff169050816000806101000a81548173ffffffffffffffffffffffffffffffffffffffff021916908373ffffffffffffffffffffffffffffffffffffffff1602179055508173ffffffffffffffffffffffffffffffffffffffff168173ffffffffffffffffffffffffffffffffffffffff167f8be0079c531659141344cd1fd0a4f28419497f9722a3daafe3b4186f6b6457e060405160405180910390a35050565b600061097d61097884610b92565b610b6d565b905080838252602082019050828560208602820111156109a05761099f610dad565b5b60005b858110156109d057816109b688826109da565b8452602084019350602083019250506001810190506109a3565b5050509392505050565b6000813590506109e981610e45565b92915050565b600082601f830112610a0457610a03610da8565b5b8135610a1484826020860161096a565b91505092915050565b600060208284031215610a3357610a32610db7565b5b6000610a41848285016109da565b91505092915050565b600060208284031215610a6057610a5f610db7565b5b600082013567ffffffffffffffff811115610a7e57610a7d610db2565b5b610a8a848285016109ef565b91505092915050565b610a9c81610c59565b82525050565b610aab81610c6b565b82525050565b6000610abe602683610bbe565b9150610ac982610dcd565b604082019050919050565b6000610ae1602083610bbe565b9150610aec82610e1c565b602082019050919050565b6000602082019050610b0c6000830184610a93565b92915050565b6000602082019050610b276000830184610aa2565b92915050565b60006020820190508181036000830152610b4681610ab1565b9050919050565b60006020820190508181036000830152610b6681610ad4565b9050919050565b6000610b77610b88565b9050610b838282610ca1565b919050565b6000604051905090565b600067ffffffffffffffff821115610bad57610bac610d79565b5b602082029050602081019050919050565b600082825260208201905092915050565b6000610bda82610c97565b9150610be583610c97565b9250827fffffffffffffffffffffffffffffffffffffffffffffffffffffffffffffffff03821115610c1a57610c19610d1b565b5b828201905092915050565b6000610c3082610c97565b9150610c3b83610c97565b925082821015610c4e57610c4d610d1b565b5b828203905092915050565b6000610c6482610c77565b9050919050565b60008115159050919050565b600073ffffffffffffffffffffffffffffffffffffffff82169050919050565b6000819050919050565b610caa82610dbc565b810181811067ffffffffffffffff82111715610cc957610cc8610d79565b5b80604052505050565b6000610cdd82610c97565b91507fffffffffffffffffffffffffffffffffffffffffffffffffffffffffffffffff821415610d1057610d0f610d1b565b5b600182019050919050565b7f4e487b7100000000000000000000000000000000000000000000000000000000600052601160045260246000fd5b7f4e487b7100000000000000000000000000000000000000000000000000000000600052603260045260246000fd5b7f4e487b7100000000000000000000000000000000000000000000000000000000600052604160045260246000fd5b600080fd5b600080fd5b600080fd5b600080fd5b6000601f19601f8301169050919050565b7f4f776e61626c653a206e6577206f776e657220697320746865207a65726f206160008201527f6464726573730000000000000000000000000000000000000000000000000000602082015250565b7f4f776e61626c653a2063616c6c6572206973206e6f7420746865206f776e6572600082015250565b610e4e81610c59565b8114610e5957600080fd5b5056fea2646970667358221220a21085165a95bba102b3fe59880e17f3027964706b8a63561e6b8ccd43ba90fb64736f6c63430008070033",
  "linkReferences": {},
  "deployedLinkReferences": {}
}