{
  "_format": "hh-sol-artifact-1",
  "contractName": "League",
  "sourceName": "contracts/League.sol",
  "abi": [
    {
      "inputs": [
        {
          "internalType": "uint256",
          "name": "_stakeAmount",
          "type": "uint256"
        }
      ],
      "stateMutability": "nonpayable",
      "type": "constructor"
    },
    {
      "anonymous": false,
      "inputs": [
        {
          "indexed": true,
          "internalType": "address",
          "name": "previousOwner",
          "type": "address"
        },
        {
          "indexed": true,
          "internalType": "address",
          "name": "newOwner",
          "type": "address"
        }
      ],
      "name": "OwnershipTransferred",
      "type": "event"
    },
    {
      "anonymous": false,
      "inputs": [
        {
          "indexed": false,
          "internalType": "address",
          "name": "sender",
          "type": "address"
        },
        {
          "indexed": false,
          "internalType": "uint256",
          "name": "amount",
          "type": "uint256"
        }
      ],
      "name": "Staked",
      "type": "event"
    },
    {
      "inputs": [
        {
          "internalType": "address",
          "name": "addr1",
          "type": "address"
        },
        {
          "internalType": "address",
          "name": "addr2",
          "type": "address"
        }
      ],
      "name": "evaluateMatch",
      "outputs": [
        {
          "internalType": "address",
          "name": "",
          "type": "address"
        }
      ],
      "stateMutability": "nonpayable",
      "type": "function"
    },
    {
      "inputs": [],
      "name": "getLineup",
      "outputs": [
        {
          "internalType": "uint256[]",
          "name": "",
          "type": "uint256[]"
        }
      ],
      "stateMutability": "view",
      "type": "function"
    },
    {
      "inputs": [],
      "name": "getUSDCBalance",
      "outputs": [
        {
          "internalType": "uint256",
          "name": "",
          "type": "uint256"
        }
      ],
      "stateMutability": "view",
      "type": "function"
    },
    {
      "inputs": [],
      "name": "getUserTotalPts",
      "outputs": [
        {
          "internalType": "uint256",
          "name": "",
          "type": "uint256"
        }
      ],
      "stateMutability": "view",
      "type": "function"
    },
    {
      "inputs": [],
      "name": "getUserWeeklypts",
      "outputs": [
        {
          "internalType": "uint256[]",
          "name": "",
          "type": "uint256[]"
        }
      ],
      "stateMutability": "view",
      "type": "function"
    },
    {
      "inputs": [],
      "name": "joinLeague",
      "outputs": [],
      "stateMutability": "nonpayable",
      "type": "function"
    },
    {
      "inputs": [],
      "name": "owner",
      "outputs": [
        {
          "internalType": "address",
          "name": "",
          "type": "address"
        }
      ],
      "stateMutability": "view",
      "type": "function"
    },
    {
      "inputs": [],
      "name": "removeFromLeague",
      "outputs": [],
      "stateMutability": "nonpayable",
      "type": "function"
    },
    {
      "inputs": [],
      "name": "renounceOwnership",
      "outputs": [],
      "stateMutability": "nonpayable",
      "type": "function"
    },
    {
      "inputs": [
        {
          "internalType": "address",
          "name": "_athleteContractAddress",
          "type": "address"
        }
      ],
      "name": "setAthleteContractAddress",
      "outputs": [],
      "stateMutability": "nonpayable",
      "type": "function"
    },
    {
      "inputs": [],
      "name": "setLeagueSchedule",
      "outputs": [],
      "stateMutability": "nonpayable",
      "type": "function"
    },
    {
      "inputs": [
        {
          "internalType": "uint256[]",
          "name": "athleteIds",
          "type": "uint256[]"
        }
      ],
      "name": "setLineup",
      "outputs": [],
      "stateMutability": "nonpayable",
      "type": "function"
    },
    {
      "inputs": [
        {
          "internalType": "address",
          "name": "newOwner",
          "type": "address"
        }
      ],
      "name": "transferOwnership",
      "outputs": [],
      "stateMutability": "nonpayable",
      "type": "function"
    }
  ],
  "bytecode": "0x608060405260086001556008600255734dbcdf9b62e891a7cec5a2568c3f4faf9e8abe2b600460006101000a81548173ffffffffffffffffffffffffffffffffffffffff021916908373ffffffffffffffffffffffffffffffffffffffff160217905550732791bca1f2de4661ed88a30c99a7a9449aa84174600560006101000a81548173ffffffffffffffffffffffffffffffffffffffff021916908373ffffffffffffffffffffffffffffffffffffffff160217905550600460009054906101000a900473ffffffffffffffffffffffffffffffffffffffff16600660006101000a81548173ffffffffffffffffffffffffffffffffffffffff021916908373ffffffffffffffffffffffffffffffffffffffff1602179055503480156200012857600080fd5b5060405162002fc238038062002fc283398181016040528101906200014e9190620002d9565b6200016e62000162620001e860201b60201c565b620001f060201b60201c565b80600c819055506040516200018390620002b4565b604051809103906000f080158015620001a0573d6000803e3d6000fd5b50600f60006101000a81548173ffffffffffffffffffffffffffffffffffffffff021916908373ffffffffffffffffffffffffffffffffffffffff1602179055505062000334565b600033905090565b60008060009054906101000a900473ffffffffffffffffffffffffffffffffffffffff169050816000806101000a81548173ffffffffffffffffffffffffffffffffffffffff021916908373ffffffffffffffffffffffffffffffffffffffff1602179055508173ffffffffffffffffffffffffffffffffffffffff168173ffffffffffffffffffffffffffffffffffffffff167f8be0079c531659141344cd1fd0a4f28419497f9722a3daafe3b4186f6b6457e060405160405180910390a35050565b610f63806200205f83390190565b600081519050620002d3816200031a565b92915050565b600060208284031215620002f257620002f162000315565b5b60006200030284828501620002c2565b91505092915050565b6000819050919050565b600080fd5b62000325816200030b565b81146200033157600080fd5b50565b611d1b80620003446000396000f3fe608060405234801561001057600080fd5b50600436106100cf5760003560e01c8063715018a61161008c578063ada3a28d11610066578063ada3a28d146101b6578063c99fea94146101d4578063f2fde38b146101de578063f612121a146101fa576100cf565b8063715018a61461015e578063853976dd146101685780638da5cb5b14610198576100cf565b80630655465a146100d457806311c253f5146100de5780633cfd1ccc146100e8578063486b3944146101065780636bdc44df146101225780636fd71a1814610140575b600080fd5b6100dc610216565b005b6100e6610294565b005b6100f0610296565b6040516100fd91906118aa565b60405180910390f35b610120600480360381019061011b919061147f565b610348565b005b61012a610408565b60405161013791906118aa565b60405180910390f35b61014861044f565b60405161015591906117c8565b60405180910390f35b6101666104e4565b005b610182600480360381019061017d91906114ac565b61056c565b60405161018f919061174d565b60405180910390f35b6101a0610bdb565b6040516101ad919061174d565b60405180910390f35b6101be610c04565b6040516101cb91906117c8565b60405180910390f35b6101dc610c99565b005b6101f860048036038101906101f3919061147f565b610d09565b005b610214600480360381019061020f91906114ec565b610e01565b005b61021e610e58565b73ffffffffffffffffffffffffffffffffffffffff1661023c610bdb565b73ffffffffffffffffffffffffffffffffffffffff1614610292576040517f08c379a00000000000000000000000000000000000000000000000000000000081526004016102899061186a565b60405180910390fd5b565b565b6000600460009054906101000a900473ffffffffffffffffffffffffffffffffffffffff1673ffffffffffffffffffffffffffffffffffffffff166370a08231306040518263ffffffff1660e01b81526004016102f3919061174d565b60206040518083038186803b15801561030b57600080fd5b505afa15801561031f573d6000803e3d6000fd5b505050506040513d601f19601f8201168201806040525081019061034391906115ab565b905090565b610350610e58565b73ffffffffffffffffffffffffffffffffffffffff1661036e610bdb565b73ffffffffffffffffffffffffffffffffffffffff16146103c4576040517f08c379a00000000000000000000000000000000000000000000000000000000081526004016103bb9061186a565b60405180910390fd5b80600e60006101000a81548173ffffffffffffffffffffffffffffffffffffffff021916908373ffffffffffffffffffffffffffffffffffffffff16021790555050565b6000600760003373ffffffffffffffffffffffffffffffffffffffff1673ffffffffffffffffffffffffffffffffffffffff16815260200190815260200160002054905090565b6060600860003373ffffffffffffffffffffffffffffffffffffffff1673ffffffffffffffffffffffffffffffffffffffff1681526020019081526020016000208054806020026020016040519081016040528092919081815260200182805480156104da57602002820191906000526020600020905b8154815260200190600101908083116104c6575b5050505050905090565b6104ec610e58565b73ffffffffffffffffffffffffffffffffffffffff1661050a610bdb565b73ffffffffffffffffffffffffffffffffffffffff1614610560576040517f08c379a00000000000000000000000000000000000000000000000000000000081526004016105579061186a565b60405180910390fd5b61056a6000610e60565b565b6000610576610e58565b73ffffffffffffffffffffffffffffffffffffffff16610594610bdb565b73ffffffffffffffffffffffffffffffffffffffff16146105ea576040517f08c379a00000000000000000000000000000000000000000000000000000000081526004016105e19061186a565b60405180910390fd5b6000600960008573ffffffffffffffffffffffffffffffffffffffff1673ffffffffffffffffffffffffffffffffffffffff16815260200190815260200160002080548060200260200160405190810160405280929190818152602001828054801561067557602002820191906000526020600020905b815481526020019060010190808311610661575b505050505090506000600960008573ffffffffffffffffffffffffffffffffffffffff1673ffffffffffffffffffffffffffffffffffffffff16815260200190815260200160002080548060200260200160405190810160405280929190818152602001828054801561070757602002820191906000526020600020905b8154815260200190600101908083116106f3575b5050505050905060008060005b8451811015610954576000600e60009054906101000a900473ffffffffffffffffffffffffffffffffffffffff1673ffffffffffffffffffffffffffffffffffffffff1663d4313da88784815181106107705761076f611adb565b5b60200260200101516040518263ffffffff1660e01b815260040161079491906118aa565b60006040518083038186803b1580156107ac57600080fd5b505afa1580156107c0573d6000803e3d6000fd5b505050506040513d6000823e3d601f19601f820116820180604052508101906107e99190611535565b90506000600e60009054906101000a900473ffffffffffffffffffffffffffffffffffffffff1673ffffffffffffffffffffffffffffffffffffffff1663d4313da887858151811061083e5761083d611adb565b5b60200260200101516040518263ffffffff1660e01b815260040161086291906118aa565b60006040518083038186803b15801561087a57600080fd5b505afa15801561088e573d6000803e3d6000fd5b505050506040513d6000823e3d601f19601f820116820180604052508101906108b79190611535565b9050600082600184516108ca91906119b6565b815181106108db576108da611adb565b5b60200260200101519050600082600184516108f691906119b6565b8151811061090757610906611adb565b5b602002602001015190508082111561092d576001876109269190611960565b965061093d565b60018661093a9190611960565b95505b50505050808061094c90611a63565b915050610714565b506001600360008282546109689190611960565b9250508190555080821115610aa857600860008873ffffffffffffffffffffffffffffffffffffffff1673ffffffffffffffffffffffffffffffffffffffff16815260200190815260200160002060019080600181540180825580915050600190039060005260206000200160009091909190915055600860008773ffffffffffffffffffffffffffffffffffffffff1673ffffffffffffffffffffffffffffffffffffffff168152602001908152602001600020600090806001815401808255809150506001900390600052602060002001600090919091909150556001600760008973ffffffffffffffffffffffffffffffffffffffff1673ffffffffffffffffffffffffffffffffffffffff1681526020019081526020016000206000828254610a959190611960565b9250508190555086945050505050610bd5565b600860008773ffffffffffffffffffffffffffffffffffffffff1673ffffffffffffffffffffffffffffffffffffffff16815260200190815260200160002060019080600181540180825580915050600190039060005260206000200160009091909190915055600860008873ffffffffffffffffffffffffffffffffffffffff1673ffffffffffffffffffffffffffffffffffffffff168152602001908152602001600020600090806001815401808255809150506001900390600052602060002001600090919091909150556001600760008873ffffffffffffffffffffffffffffffffffffffff1673ffffffffffffffffffffffffffffffffffffffff1681526020019081526020016000206000828254610bc69190611960565b92505081905550859450505050505b92915050565b60008060009054906101000a900473ffffffffffffffffffffffffffffffffffffffff16905090565b6060600960003373ffffffffffffffffffffffffffffffffffffffff1673ffffffffffffffffffffffffffffffffffffffff168152602001908152602001600020805480602002602001604051908101604052809291908181526020018280548015610c8f57602002820191906000526020600020905b815481526020019060010190808311610c7b575b5050505050905090565b600a339080600181540180825580915050600190039060005260206000200160009091909190916101000a81548173ffffffffffffffffffffffffffffffffffffffff021916908373ffffffffffffffffffffffffffffffffffffffff160217905550610d07600c54610f24565b565b610d11610e58565b73ffffffffffffffffffffffffffffffffffffffff16610d2f610bdb565b73ffffffffffffffffffffffffffffffffffffffff1614610d85576040517f08c379a0000000000000000000000000000000000000000000000000000000008152600401610d7c9061186a565b60405180910390fd5b600073ffffffffffffffffffffffffffffffffffffffff168173ffffffffffffffffffffffffffffffffffffffff161415610df5576040517f08c379a0000000000000000000000000000000000000000000000000000000008152600401610dec9061180a565b60405180910390fd5b610dfe81610e60565b50565b80600960003373ffffffffffffffffffffffffffffffffffffffff1673ffffffffffffffffffffffffffffffffffffffff1681526020019081526020016000209080519060200190610e54929190611285565b5050565b600033905090565b60008060009054906101000a900473ffffffffffffffffffffffffffffffffffffffff169050816000806101000a81548173ffffffffffffffffffffffffffffffffffffffff021916908373ffffffffffffffffffffffffffffffffffffffff1602179055508173ffffffffffffffffffffffffffffffffffffffff168173ffffffffffffffffffffffffffffffffffffffff167f8be0079c531659141344cd1fd0a4f28419497f9722a3daafe3b4186f6b6457e060405160405180910390a35050565b60008111610f67576040517f08c379a0000000000000000000000000000000000000000000000000000000008152600401610f5e9061182a565b60405180910390fd5b80600660009054906101000a900473ffffffffffffffffffffffffffffffffffffffff1673ffffffffffffffffffffffffffffffffffffffff166370a08231336040518263ffffffff1660e01b8152600401610fc3919061174d565b60206040518083038186803b158015610fdb57600080fd5b505afa158015610fef573d6000803e3d6000fd5b505050506040513d601f19601f8201168201806040525081019061101391906115ab565b11611053576040517f08c379a000000000000000000000000000000000000000000000000000000000815260040161104a9061188a565b60405180910390fd5b600660009054906101000a900473ffffffffffffffffffffffffffffffffffffffff1673ffffffffffffffffffffffffffffffffffffffff1663095ea7b333836040518363ffffffff1660e01b81526004016110b092919061179f565b602060405180830381600087803b1580156110ca57600080fd5b505af11580156110de573d6000803e3d6000fd5b505050506040513d601f19601f82011682018060405250810190611102919061157e565b611141576040517f08c379a0000000000000000000000000000000000000000000000000000000008152600401611138906117ea565b60405180910390fd5b61116f600660009054906101000a900473ffffffffffffffffffffffffffffffffffffffff163330846111ab565b7f9e71bc8eea02a63969f509818f2dafb9254532904319f9dbda79b67bd34a5f3d33826040516111a092919061179f565b60405180910390a150565b60008473ffffffffffffffffffffffffffffffffffffffff166323b872dd8585856040518463ffffffff1660e01b81526004016111ea93929190611768565b602060405180830381600087803b15801561120457600080fd5b505af1158015611218573d6000803e3d6000fd5b505050506040513d601f19601f8201168201806040525081019061123c919061157e565b90508061127e576040517f08c379a00000000000000000000000000000000000000000000000000000000081526004016112759061184a565b60405180910390fd5b5050505050565b8280548282559060005260206000209081019282156112c1579160200282015b828111156112c05782518255916020019190600101906112a5565b5b5090506112ce91906112d2565b5090565b5b808211156112eb5760008160009055506001016112d3565b5090565b60006113026112fd846118ea565b6118c5565b9050808382526020820190508285602086028201111561132557611324611b3e565b5b60005b85811015611355578161133b8882611455565b845260208401935060208301925050600181019050611328565b5050509392505050565b600061137261136d846118ea565b6118c5565b9050808382526020820190508285602086028201111561139557611394611b3e565b5b60005b858110156113c557816113ab888261146a565b845260208401935060208301925050600181019050611398565b5050509392505050565b6000813590506113de81611ca0565b92915050565b600082601f8301126113f9576113f8611b39565b5b81356114098482602086016112ef565b91505092915050565b600082601f83011261142757611426611b39565b5b815161143784826020860161135f565b91505092915050565b60008151905061144f81611cb7565b92915050565b60008135905061146481611cce565b92915050565b60008151905061147981611cce565b92915050565b60006020828403121561149557611494611b48565b5b60006114a3848285016113cf565b91505092915050565b600080604083850312156114c3576114c2611b48565b5b60006114d1858286016113cf565b92505060206114e2858286016113cf565b9150509250929050565b60006020828403121561150257611501611b48565b5b600082013567ffffffffffffffff8111156115205761151f611b43565b5b61152c848285016113e4565b91505092915050565b60006020828403121561154b5761154a611b48565b5b600082015167ffffffffffffffff81111561156957611568611b43565b5b61157584828501611412565b91505092915050565b60006020828403121561159457611593611b48565b5b60006115a284828501611440565b91505092915050565b6000602082840312156115c1576115c0611b48565b5b60006115cf8482850161146a565b91505092915050565b60006115e4838361172f565b60208301905092915050565b6115f9816119ea565b82525050565b600061160a82611926565b611614818561193e565b935061161f83611916565b8060005b8381101561165057815161163788826115d8565b975061164283611931565b925050600181019050611623565b5085935050505092915050565b600061166a60168361194f565b915061167582611b5e565b602082019050919050565b600061168d60268361194f565b915061169882611b87565b604082019050919050565b60006116b0600e8361194f565b91506116bb82611bd6565b602082019050919050565b60006116d360158361194f565b91506116de82611bff565b602082019050919050565b60006116f660208361194f565b915061170182611c28565b602082019050919050565b600061171960298361194f565b915061172482611c51565b604082019050919050565b61173881611a28565b82525050565b61174781611a28565b82525050565b600060208201905061176260008301846115f0565b92915050565b600060608201905061177d60008301866115f0565b61178a60208301856115f0565b611797604083018461173e565b949350505050565b60006040820190506117b460008301856115f0565b6117c1602083018461173e565b9392505050565b600060208201905081810360008301526117e281846115ff565b905092915050565b600060208201905081810360008301526118038161165d565b9050919050565b6000602082019050818103600083015261182381611680565b9050919050565b60006020820190508181036000830152611843816116a3565b9050919050565b60006020820190508181036000830152611863816116c6565b9050919050565b60006020820190508181036000830152611883816116e9565b9050919050565b600060208201905081810360008301526118a38161170c565b9050919050565b60006020820190506118bf600083018461173e565b92915050565b60006118cf6118e0565b90506118db8282611a32565b919050565b6000604051905090565b600067ffffffffffffffff82111561190557611904611b0a565b5b602082029050602081019050919050565b6000819050602082019050919050565b600081519050919050565b6000602082019050919050565b600082825260208201905092915050565b600082825260208201905092915050565b600061196b82611a28565b915061197683611a28565b9250827fffffffffffffffffffffffffffffffffffffffffffffffffffffffffffffffff038211156119ab576119aa611aac565b5b828201905092915050565b60006119c182611a28565b91506119cc83611a28565b9250828210156119df576119de611aac565b5b828203905092915050565b60006119f582611a08565b9050919050565b60008115159050919050565b600073ffffffffffffffffffffffffffffffffffffffff82169050919050565b6000819050919050565b611a3b82611b4d565b810181811067ffffffffffffffff82111715611a5a57611a59611b0a565b5b80604052505050565b6000611a6e82611a28565b91507fffffffffffffffffffffffffffffffffffffffffffffffffffffffffffffffff821415611aa157611aa0611aac565b5b600182019050919050565b7f4e487b7100000000000000000000000000000000000000000000000000000000600052601160045260246000fd5b7f4e487b7100000000000000000000000000000000000000000000000000000000600052603260045260246000fd5b7f4e487b7100000000000000000000000000000000000000000000000000000000600052604160045260246000fd5b600080fd5b600080fd5b600080fd5b600080fd5b6000601f19601f8301169050919050565b7f746f6b656e206d75737420626520617070726f76656400000000000000000000600082015250565b7f4f776e61626c653a206e6577206f776e657220697320746865207a65726f206160008201527f6464726573730000000000000000000000000000000000000000000000000000602082015250565b7f43616e6e6f74207374616b652030000000000000000000000000000000000000600082015250565b7f546f6b656e207472616e73666572206661696c65640000000000000000000000600082015250565b7f4f776e61626c653a2063616c6c6572206973206e6f7420746865206f776e6572600082015250565b7f55736572206d757374206861766520656e6f756768205553444320746f206a6f60008201527f696e206c65616775650000000000000000000000000000000000000000000000602082015250565b611ca9816119ea565b8114611cb457600080fd5b50565b611cc0816119fc565b8114611ccb57600080fd5b50565b611cd781611a28565b8114611ce257600080fd5b5056fea2646970667358221220d9191cb30709691741227e613dca975daecdbd44bbbe51d493881cd68f1c787064736f6c63430008070033608060405234801561001057600080fd5b5061002d61002261003260201b60201c565b61003a60201b60201c565b6100fe565b600033905090565b60008060009054906101000a900473ffffffffffffffffffffffffffffffffffffffff169050816000806101000a81548173ffffffffffffffffffffffffffffffffffffffff021916908373ffffffffffffffffffffffffffffffffffffffff1602179055508173ffffffffffffffffffffffffffffffffffffffff168173ffffffffffffffffffffffffffffffffffffffff167f8be0079c531659141344cd1fd0a4f28419497f9722a3daafe3b4186f6b6457e060405160405180910390a35050565b610e568061010d6000396000f3fe608060405234801561001057600080fd5b50600436106100885760003560e01c80638da5cb5b1161005b5780638da5cb5b146101275780639b19251a14610145578063e2ec6ec314610175578063f2fde38b146101a557610088565b806324953eaa1461008d578063286dd3f5146100bd578063715018a6146100ed5780637b9417c8146100f7575b600080fd5b6100a760048036038101906100a29190610a0e565b6101c1565b6040516100b49190610ad6565b60405180910390f35b6100d760048036038101906100d291906109e1565b6102ab565b6040516100e49190610ad6565b60405180910390f35b6100f561042e565b005b610111600480360381019061010c91906109e1565b6104b6565b60405161011e9190610ad6565b60405180910390f35b61012f610637565b60405161013c9190610abb565b60405180910390f35b61015f600480360381019061015a91906109e1565b610660565b60405161016c9190610ad6565b60405180910390f35b61018f600480360381019061018a9190610a0e565b610680565b60405161019c9190610ad6565b60405180910390f35b6101bf60048036038101906101ba91906109e1565b61076a565b005b60006101cb610862565b73ffffffffffffffffffffffffffffffffffffffff166101e9610637565b73ffffffffffffffffffffffffffffffffffffffff161461023f576040517f08c379a000000000000000000000000000000000000000000000000000000000815260040161023690610b11565b60405180910390fd5b60005b82518110156102a55761026e83828151811061026157610260610d0e565b5b60200260200101516102ab565b15610292576001600260008282546102869190610be9565b92505081905550600191505b808061029d90610c96565b915050610242565b50919050565b60006102b5610862565b73ffffffffffffffffffffffffffffffffffffffff166102d3610637565b73ffffffffffffffffffffffffffffffffffffffff1614610329576040517f08c379a000000000000000000000000000000000000000000000000000000000815260040161032090610b11565b60405180910390fd5b600160008373ffffffffffffffffffffffffffffffffffffffff1673ffffffffffffffffffffffffffffffffffffffff16815260200190815260200160002060009054906101000a900460ff1615610429576000600160008473ffffffffffffffffffffffffffffffffffffffff1673ffffffffffffffffffffffffffffffffffffffff16815260200190815260200160002060006101000a81548160ff0219169083151502179055507ff1abf01a1043b7c244d128e8595cf0c1d10743b022b03a02dffd8ca3bf729f5a826040516104029190610abb565b60405180910390a160016002600082825461041d9190610be9565b92505081905550600190505b919050565b610436610862565b73ffffffffffffffffffffffffffffffffffffffff16610454610637565b73ffffffffffffffffffffffffffffffffffffffff16146104aa576040517f08c379a00000000000000000000000000000000000000000000000000000000081526004016104a190610b11565b60405180910390fd5b6104b4600061086a565b565b60006104c0610862565b73ffffffffffffffffffffffffffffffffffffffff166104de610637565b73ffffffffffffffffffffffffffffffffffffffff1614610534576040517f08c379a000000000000000000000000000000000000000000000000000000000815260040161052b90610b11565b60405180910390fd5b600160008373ffffffffffffffffffffffffffffffffffffffff1673ffffffffffffffffffffffffffffffffffffffff16815260200190815260200160002060009054906101000a900460ff166106325760018060008473ffffffffffffffffffffffffffffffffffffffff1673ffffffffffffffffffffffffffffffffffffffff16815260200190815260200160002060006101000a81548160ff0219169083151502179055507fd1bba68c128cc3f427e5831b3c6f99f480b6efa6b9e80c757768f6124158cc3f8260405161060b9190610abb565b60405180910390a16001600260008282546106269190610b93565b92505081905550600190505b919050565b60008060009054906101000a900473ffffffffffffffffffffffffffffffffffffffff16905090565b60016020528060005260406000206000915054906101000a900460ff1681565b600061068a610862565b73ffffffffffffffffffffffffffffffffffffffff166106a8610637565b73ffffffffffffffffffffffffffffffffffffffff16146106fe576040517f08c379a00000000000000000000000000000000000000000000000000000000081526004016106f590610b11565b60405180910390fd5b60005b82518110156107645761072d8382815181106107205761071f610d0e565b5b60200260200101516104b6565b15610751576001600260008282546107459190610b93565b92505081905550600191505b808061075c90610c96565b915050610701565b50919050565b610772610862565b73ffffffffffffffffffffffffffffffffffffffff16610790610637565b73ffffffffffffffffffffffffffffffffffffffff16146107e6576040517f08c379a00000000000000000000000000000000000000000000000000000000081526004016107dd90610b11565b60405180910390fd5b600073ffffffffffffffffffffffffffffffffffffffff168173ffffffffffffffffffffffffffffffffffffffff161415610856576040517f08c379a000000000000000000000000000000000000000000000000000000000815260040161084d90610af1565b60405180910390fd5b61085f8161086a565b50565b600033905090565b60008060009054906101000a900473ffffffffffffffffffffffffffffffffffffffff169050816000806101000a81548173ffffffffffffffffffffffffffffffffffffffff021916908373ffffffffffffffffffffffffffffffffffffffff1602179055508173ffffffffffffffffffffffffffffffffffffffff168173ffffffffffffffffffffffffffffffffffffffff167f8be0079c531659141344cd1fd0a4f28419497f9722a3daafe3b4186f6b6457e060405160405180910390a35050565b600061094161093c84610b56565b610b31565b9050808382526020820190508285602086028201111561096457610963610d71565b5b60005b85811015610994578161097a888261099e565b845260208401935060208301925050600181019050610967565b5050509392505050565b6000813590506109ad81610e09565b92915050565b600082601f8301126109c8576109c7610d6c565b5b81356109d884826020860161092e565b91505092915050565b6000602082840312156109f7576109f6610d7b565b5b6000610a058482850161099e565b91505092915050565b600060208284031215610a2457610a23610d7b565b5b600082013567ffffffffffffffff811115610a4257610a41610d76565b5b610a4e848285016109b3565b91505092915050565b610a6081610c1d565b82525050565b610a6f81610c2f565b82525050565b6000610a82602683610b82565b9150610a8d82610d91565b604082019050919050565b6000610aa5602083610b82565b9150610ab082610de0565b602082019050919050565b6000602082019050610ad06000830184610a57565b92915050565b6000602082019050610aeb6000830184610a66565b92915050565b60006020820190508181036000830152610b0a81610a75565b9050919050565b60006020820190508181036000830152610b2a81610a98565b9050919050565b6000610b3b610b4c565b9050610b478282610c65565b919050565b6000604051905090565b600067ffffffffffffffff821115610b7157610b70610d3d565b5b602082029050602081019050919050565b600082825260208201905092915050565b6000610b9e82610c5b565b9150610ba983610c5b565b9250827fffffffffffffffffffffffffffffffffffffffffffffffffffffffffffffffff03821115610bde57610bdd610cdf565b5b828201905092915050565b6000610bf482610c5b565b9150610bff83610c5b565b925082821015610c1257610c11610cdf565b5b828203905092915050565b6000610c2882610c3b565b9050919050565b60008115159050919050565b600073ffffffffffffffffffffffffffffffffffffffff82169050919050565b6000819050919050565b610c6e82610d80565b810181811067ffffffffffffffff82111715610c8d57610c8c610d3d565b5b80604052505050565b6000610ca182610c5b565b91507fffffffffffffffffffffffffffffffffffffffffffffffffffffffffffffffff821415610cd457610cd3610cdf565b5b600182019050919050565b7f4e487b7100000000000000000000000000000000000000000000000000000000600052601160045260246000fd5b7f4e487b7100000000000000000000000000000000000000000000000000000000600052603260045260246000fd5b7f4e487b7100000000000000000000000000000000000000000000000000000000600052604160045260246000fd5b600080fd5b600080fd5b600080fd5b600080fd5b6000601f19601f8301169050919050565b7f4f776e61626c653a206e6577206f776e657220697320746865207a65726f206160008201527f6464726573730000000000000000000000000000000000000000000000000000602082015250565b7f4f776e61626c653a2063616c6c6572206973206e6f7420746865206f776e6572600082015250565b610e1281610c1d565b8114610e1d57600080fd5b5056fea264697066735822122028f537dd9b5fe894d1477bbddc996ce32a420981c0b41afd39c00eed7de828ef64736f6c63430008070033",
  "linkReferences": {},
  "deployedLinkReferences": {}
}