{
  "_format": "hh-sol-artifact-1",
  "contractName": "RandomNumber",
  "sourceName": "contracts/OldContracts/RandomNumber.sol",
  "abi": [
    {
      "inputs": [
        {
          "internalType": "uint256",
          "name": "_numOfAthletes",
          "type": "uint256"
        },
        {
          "internalType": "uint256",
          "name": "_startingNum",
          "type": "uint256"
        }
      ],
      "stateMutability": "nonpayable",
      "type": "constructor"
    },
    {
      "inputs": [
        {
          "internalType": "uint256",
          "name": "randomValue",
          "type": "uint256"
        }
      ],
      "name": "expand",
      "outputs": [
        {
          "internalType": "uint256[]",
          "name": "expandedValues",
          "type": "uint256[]"
        }
      ],
      "stateMutability": "pure",
      "type": "function"
    },
    {
      "inputs": [],
      "name": "getRandomNumber",
      "outputs": [
        {
          "internalType": "bytes32",
          "name": "requestId",
          "type": "bytes32"
        }
      ],
      "stateMutability": "nonpayable",
      "type": "function"
    },
    {
      "inputs": [],
      "name": "randomResult",
      "outputs": [
        {
          "internalType": "uint256",
          "name": "",
          "type": "uint256"
        }
      ],
      "stateMutability": "view",
      "type": "function"
    },
    {
      "inputs": [
        {
          "internalType": "bytes32",
          "name": "requestId",
          "type": "bytes32"
        },
        {
          "internalType": "uint256",
          "name": "randomness",
          "type": "uint256"
        }
      ],
      "name": "rawFulfillRandomness",
      "outputs": [],
      "stateMutability": "nonpayable",
      "type": "function"
    }
  ],
  "bytecode": "0x60c060405234801561001057600080fd5b50604051610e8e380380610e8e8339818101604052810190610032919061012f565b73b3dccb4cf7a26f6cf6b120cf5a73875b7bbc655b7301be23585060835e02b77ef475b0cc51aa1e07098173ffffffffffffffffffffffffffffffffffffffff1660a08173ffffffffffffffffffffffffffffffffffffffff1660601b815250508073ffffffffffffffffffffffffffffffffffffffff1660808173ffffffffffffffffffffffffffffffffffffffff1660601b8152505050507f2ed0feb3e7fd2022120aa84fab1945545a9f2ffc9076fd6156fa96eaff4c131160001b60018190555067016345785d8a00006002819055508160048190555080600581905550505061018c565b60008151905061012981610175565b92915050565b6000806040838503121561014257600080fd5b60006101508582860161011a565b92505060206101618582860161011a565b9150509250929050565b6000819050919050565b61017e8161016b565b811461018957600080fd5b50565b60805160601c60a05160601c610cc96101c5600039600081816101eb01526103ec01526000818161028c01526103b00152610cc96000f3fe608060405234801561001057600080fd5b506004361061004c5760003560e01c806342619f6614610051578063682904a51461006f57806394985ddd1461009f578063dbdff2c1146100bb575b600080fd5b6100596100d9565b6040516100669190610954565b60405180910390f35b61008960048036038101906100849190610633565b6100df565b6040516100969190610869565b60405180910390f35b6100b960048036038101906100b491906105f7565b6101e9565b005b6100c3610285565b6040516100d0919061088b565b60405180910390f35b60035481565b6060600367ffffffffffffffff811115610122577f4e487b7100000000000000000000000000000000000000000000000000000000600052604160045260246000fd5b6040519080825280602002602001820160405280156101505781602001602082028036833780820191505090505b50905060005b60038110156101e357828160405160200161017292919061096f565b6040516020818303038152906040528051906020012060001c8282815181106101c4577f4e487b7100000000000000000000000000000000000000000000000000000000600052603260045260246000fd5b60200260200101818152505080806101db90610ad9565b915050610156565b50919050565b7f000000000000000000000000000000000000000000000000000000000000000073ffffffffffffffffffffffffffffffffffffffff163373ffffffffffffffffffffffffffffffffffffffff1614610277576040517f08c379a000000000000000000000000000000000000000000000000000000000815260040161026e90610934565b60405180910390fd5b6102818282610387565b5050565b60006002547f000000000000000000000000000000000000000000000000000000000000000073ffffffffffffffffffffffffffffffffffffffff166370a08231306040518263ffffffff1660e01b81526004016102e39190610810565b60206040518083038186803b1580156102fb57600080fd5b505afa15801561030f573d6000803e3d6000fd5b505050506040513d601f19601f82011682018060405250810190610333919061065c565b1015610374576040517f08c379a000000000000000000000000000000000000000000000000000000000815260040161036b90610914565b60405180910390fd5b6103826001546002546103ac565b905090565b600554600454826103989190610b36565b6103a291906109fe565b6003819055505050565b60007f000000000000000000000000000000000000000000000000000000000000000073ffffffffffffffffffffffffffffffffffffffff16634000aea07f0000000000000000000000000000000000000000000000000000000000000000848660006040516020016104209291906108a6565b6040516020818303038152906040526040518463ffffffff1660e01b815260040161044d9392919061082b565b602060405180830381600087803b15801561046757600080fd5b505af115801561047b573d6000803e3d6000fd5b505050506040513d601f19601f8201168201806040525081019061049f91906105ce565b5060006104c1846000306000808981526020019081526020016000205461050b565b90506001600080868152602001908152602001600020546104e291906109fe565b600080868152602001908152602001600020819055506105028482610547565b91505092915050565b60008484848460405160200161052494939291906108cf565b6040516020818303038152906040528051906020012060001c9050949350505050565b6000828260405160200161055c9291906107e4565b60405160208183030381529060405280519060200120905092915050565b60008151905061058981610c4e565b92915050565b60008135905061059e81610c65565b92915050565b6000813590506105b381610c7c565b92915050565b6000815190506105c881610c7c565b92915050565b6000602082840312156105e057600080fd5b60006105ee8482850161057a565b91505092915050565b6000806040838503121561060a57600080fd5b60006106188582860161058f565b9250506020610629858286016105a4565b9150509250929050565b60006020828403121561064557600080fd5b6000610653848285016105a4565b91505092915050565b60006020828403121561066e57600080fd5b600061067c848285016105b9565b91505092915050565b600061069183836107af565b60208301905092915050565b6106a681610a54565b82525050565b60006106b7826109a8565b6106c181856109cb565b93506106cc83610998565b8060005b838110156106fd5781516106e48882610685565b97506106ef836109be565b9250506001810190506106d0565b5085935050505092915050565b61071381610a72565b82525050565b61072a61072582610a72565b610b22565b82525050565b600061073b826109b3565b61074581856109dc565b9350610755818560208601610aa6565b61075e81610bc5565b840191505092915050565b6000610776602b836109ed565b915061078182610bd6565b604082019050919050565b6000610799601f836109ed565b91506107a482610c25565b602082019050919050565b6107b881610a9c565b82525050565b6107c781610a9c565b82525050565b6107de6107d982610a9c565b610b2c565b82525050565b60006107f08285610719565b60208201915061080082846107cd565b6020820191508190509392505050565b6000602082019050610825600083018461069d565b92915050565b6000606082019050610840600083018661069d565b61084d60208301856107be565b818103604083015261085f8184610730565b9050949350505050565b6000602082019050818103600083015261088381846106ac565b905092915050565b60006020820190506108a0600083018461070a565b92915050565b60006040820190506108bb600083018561070a565b6108c860208301846107be565b9392505050565b60006080820190506108e4600083018761070a565b6108f160208301866107be565b6108fe604083018561069d565b61090b60608301846107be565b95945050505050565b6000602082019050818103600083015261092d81610769565b9050919050565b6000602082019050818103600083015261094d8161078c565b9050919050565b600060208201905061096960008301846107be565b92915050565b600060408201905061098460008301856107be565b61099160208301846107be565b9392505050565b6000819050602082019050919050565b600081519050919050565b600081519050919050565b6000602082019050919050565b600082825260208201905092915050565b600082825260208201905092915050565b600082825260208201905092915050565b6000610a0982610a9c565b9150610a1483610a9c565b9250827fffffffffffffffffffffffffffffffffffffffffffffffffffffffffffffffff03821115610a4957610a48610b67565b5b828201905092915050565b6000610a5f82610a7c565b9050919050565b60008115159050919050565b6000819050919050565b600073ffffffffffffffffffffffffffffffffffffffff82169050919050565b6000819050919050565b60005b83811015610ac4578082015181840152602081019050610aa9565b83811115610ad3576000848401525b50505050565b6000610ae482610a9c565b91507fffffffffffffffffffffffffffffffffffffffffffffffffffffffffffffffff821415610b1757610b16610b67565b5b600182019050919050565b6000819050919050565b6000819050919050565b6000610b4182610a9c565b9150610b4c83610a9c565b925082610b5c57610b5b610b96565b5b828206905092915050565b7f4e487b7100000000000000000000000000000000000000000000000000000000600052601160045260246000fd5b7f4e487b7100000000000000000000000000000000000000000000000000000000600052601260045260246000fd5b6000601f19601f8301169050919050565b7f4e6f7420656e6f756768204c494e4b202d2066696c6c20636f6e74726163742060008201527f7769746820666175636574000000000000000000000000000000000000000000602082015250565b7f4f6e6c7920565246436f6f7264696e61746f722063616e2066756c66696c6c00600082015250565b610c5781610a66565b8114610c6257600080fd5b50565b610c6e81610a72565b8114610c7957600080fd5b50565b610c8581610a9c565b8114610c9057600080fd5b5056fea26469706673582212205450a5f26d5b019f7ea945cd805f14e99210fe14c2db7a19b92cc9369b8ce4cb64736f6c63430008020033",
  "linkReferences": {},
  "deployedLinkReferences": {}
}