{
  "_format": "hh-sol-artifact-1",
  "contractName": "RandomNumber",
  "sourceName": "contracts/OldContracts/RandomNumber.sol",
  "abi": [
    {
      "inputs": [
        {
          "internalType": "uint256",
          "name": "_numOfAthletes",
          "type": "uint256"
        },
        {
          "internalType": "uint256",
          "name": "_startingNum",
          "type": "uint256"
        }
      ],
      "stateMutability": "nonpayable",
      "type": "constructor"
    },
    {
      "inputs": [
        {
          "internalType": "uint256",
          "name": "randomValue",
          "type": "uint256"
        }
      ],
      "name": "expand",
      "outputs": [
        {
          "internalType": "uint256[]",
          "name": "expandedValues",
          "type": "uint256[]"
        }
      ],
      "stateMutability": "pure",
      "type": "function"
    },
    {
      "inputs": [],
      "name": "getRandomNumber",
      "outputs": [
        {
          "internalType": "bytes32",
          "name": "requestId",
          "type": "bytes32"
        }
      ],
      "stateMutability": "nonpayable",
      "type": "function"
    },
    {
      "inputs": [],
      "name": "randomResult",
      "outputs": [
        {
          "internalType": "uint256",
          "name": "",
          "type": "uint256"
        }
      ],
      "stateMutability": "view",
      "type": "function"
    },
    {
      "inputs": [
        {
          "internalType": "bytes32",
          "name": "requestId",
          "type": "bytes32"
        },
        {
          "internalType": "uint256",
          "name": "randomness",
          "type": "uint256"
        }
      ],
      "name": "rawFulfillRandomness",
      "outputs": [],
      "stateMutability": "nonpayable",
      "type": "function"
    }
  ],
  "bytecode": "0x60c060405234801561001057600080fd5b50604051610e76380380610e768339818101604052810190610032919061012f565b73b3dccb4cf7a26f6cf6b120cf5a73875b7bbc655b7301be23585060835e02b77ef475b0cc51aa1e07098173ffffffffffffffffffffffffffffffffffffffff1660a08173ffffffffffffffffffffffffffffffffffffffff1660601b815250508073ffffffffffffffffffffffffffffffffffffffff1660808173ffffffffffffffffffffffffffffffffffffffff1660601b8152505050507f2ed0feb3e7fd2022120aa84fab1945545a9f2ffc9076fd6156fa96eaff4c131160001b60018190555067016345785d8a00006002819055508160048190555080600581905550505061018c565b60008151905061012981610175565b92915050565b6000806040838503121561014257600080fd5b60006101508582860161011a565b92505060206101618582860161011a565b9150509250929050565b6000819050919050565b61017e8161016b565b811461018957600080fd5b50565b60805160601c60a05160601c610cb16101c5600039600081816101eb01526103ec01526000818161028c01526103b00152610cb16000f3fe608060405234801561001057600080fd5b506004361061004c5760003560e01c806342619f6614610051578063682904a51461006f57806394985ddd1461009f578063dbdff2c1146100bb575b600080fd5b6100596100d9565b60405161006691906109b4565b60405180910390f35b61008960048036038101906100849190610633565b6100df565b60405161009691906108c9565b60405180910390f35b6100b960048036038101906100b491906105f7565b6101e9565b005b6100c3610285565b6040516100d091906108eb565b60405180910390f35b60035481565b6060600367ffffffffffffffff811115610122577f4e487b7100000000000000000000000000000000000000000000000000000000600052604160045260246000fd5b6040519080825280602002602001820160405280156101505781602001602082028036833780820191505090505b50905060005b60038110156101e35782816040516020016101729291906109cf565b6040516020818303038152906040528051906020012060001c8282815181106101c4577f4e487b7100000000000000000000000000000000000000000000000000000000600052603260045260246000fd5b60200260200101818152505080806101db90610b39565b915050610156565b50919050565b7f000000000000000000000000000000000000000000000000000000000000000073ffffffffffffffffffffffffffffffffffffffff163373ffffffffffffffffffffffffffffffffffffffff1614610277576040517f08c379a000000000000000000000000000000000000000000000000000000000815260040161026e90610994565b60405180910390fd5b6102818282610387565b5050565b60006002547f000000000000000000000000000000000000000000000000000000000000000073ffffffffffffffffffffffffffffffffffffffff166370a08231306040518263ffffffff1660e01b81526004016102e39190610870565b60206040518083038186803b1580156102fb57600080fd5b505afa15801561030f573d6000803e3d6000fd5b505050506040513d601f19601f82011682018060405250810190610333919061065c565b1015610374576040517f08c379a000000000000000000000000000000000000000000000000000000000815260040161036b90610974565b60405180910390fd5b6103826001546002546103ac565b905090565b600554600454826103989190610b96565b6103a29190610a5e565b6003819055505050565b60007f000000000000000000000000000000000000000000000000000000000000000073ffffffffffffffffffffffffffffffffffffffff16634000aea07f000000000000000000000000000000000000000000000000000000000000000084866000604051602001610420929190610906565b6040516020818303038152906040526040518463ffffffff1660e01b815260040161044d9392919061088b565b602060405180830381600087803b15801561046757600080fd5b505af115801561047b573d6000803e3d6000fd5b505050506040513d601f19601f8201168201806040525081019061049f91906105ce565b5060006104c1846000306000808981526020019081526020016000205461050b565b90506001600080868152602001908152602001600020546104e29190610a5e565b600080868152602001908152602001600020819055506105028482610547565b91505092915050565b600084848484604051602001610524949392919061092f565b6040516020818303038152906040528051906020012060001c9050949350505050565b6000828260405160200161055c929190610844565b60405160208183030381529060405280519060200120905092915050565b60008151905061058981610c36565b92915050565b60008135905061059e81610c4d565b92915050565b6000813590506105b381610c64565b92915050565b6000815190506105c881610c64565b92915050565b6000602082840312156105e057600080fd5b60006105ee8482850161057a565b91505092915050565b6000806040838503121561060a57600080fd5b60006106188582860161058f565b9250506020610629858286016105a4565b9150509250929050565b60006020828403121561064557600080fd5b6000610653848285016105a4565b91505092915050565b60006020828403121561066e57600080fd5b600061067c848285016105b9565b91505092915050565b6000610691838361080f565b60208301905092915050565b6106a681610ab4565b82525050565b60006106b782610a08565b6106c18185610a2b565b93506106cc836109f8565b8060005b838110156106fd5781516106e48882610685565b97506106ef83610a1e565b9250506001810190506106d0565b5085935050505092915050565b61071381610ad2565b82525050565b61072a61072582610ad2565b610b82565b82525050565b600061073b82610a13565b6107458185610a3c565b9350610755818560208601610b06565b61075e81610c25565b840191505092915050565b6000610776602b83610a4d565b91507f4e6f7420656e6f756768204c494e4b202d2066696c6c20636f6e74726163742060008301527f77697468206661756365740000000000000000000000000000000000000000006020830152604082019050919050565b60006107dc601f83610a4d565b91507f4f6e6c7920565246436f6f7264696e61746f722063616e2066756c66696c6c006000830152602082019050919050565b61081881610afc565b82525050565b61082781610afc565b82525050565b61083e61083982610afc565b610b8c565b82525050565b60006108508285610719565b602082019150610860828461082d565b6020820191508190509392505050565b6000602082019050610885600083018461069d565b92915050565b60006060820190506108a0600083018661069d565b6108ad602083018561081e565b81810360408301526108bf8184610730565b9050949350505050565b600060208201905081810360008301526108e381846106ac565b905092915050565b6000602082019050610900600083018461070a565b92915050565b600060408201905061091b600083018561070a565b610928602083018461081e565b9392505050565b6000608082019050610944600083018761070a565b610951602083018661081e565b61095e604083018561069d565b61096b606083018461081e565b95945050505050565b6000602082019050818103600083015261098d81610769565b9050919050565b600060208201905081810360008301526109ad816107cf565b9050919050565b60006020820190506109c9600083018461081e565b92915050565b60006040820190506109e4600083018561081e565b6109f1602083018461081e565b9392505050565b6000819050602082019050919050565b600081519050919050565b600081519050919050565b6000602082019050919050565b600082825260208201905092915050565b600082825260208201905092915050565b600082825260208201905092915050565b6000610a6982610afc565b9150610a7483610afc565b9250827fffffffffffffffffffffffffffffffffffffffffffffffffffffffffffffffff03821115610aa957610aa8610bc7565b5b828201905092915050565b6000610abf82610adc565b9050919050565b60008115159050919050565b6000819050919050565b600073ffffffffffffffffffffffffffffffffffffffff82169050919050565b6000819050919050565b60005b83811015610b24578082015181840152602081019050610b09565b83811115610b33576000848401525b50505050565b6000610b4482610afc565b91507fffffffffffffffffffffffffffffffffffffffffffffffffffffffffffffffff821415610b7757610b76610bc7565b5b600182019050919050565b6000819050919050565b6000819050919050565b6000610ba182610afc565b9150610bac83610afc565b925082610bbc57610bbb610bf6565b5b828206905092915050565b7f4e487b7100000000000000000000000000000000000000000000000000000000600052601160045260246000fd5b7f4e487b7100000000000000000000000000000000000000000000000000000000600052601260045260246000fd5b6000601f19601f8301169050919050565b610c3f81610ac6565b8114610c4a57600080fd5b50565b610c5681610ad2565b8114610c6157600080fd5b50565b610c6d81610afc565b8114610c7857600080fd5b5056fea2646970667358221220d0fc6bc7c049e803c8d9d0416acff80f3c2b31d007beb7c7171e1b67815e6a7264736f6c63430008000033",
  "linkReferences": {},
  "deployedLinkReferences": {}
}