{
  "_format": "hh-sol-artifact-1",
  "contractName": "MOBALogicLibrary",
  "sourceName": "contracts/MOBALogicLibrary.sol",
  "abi": [
    {
      "anonymous": false,
      "inputs": [
        {
          "indexed": false,
          "internalType": "address",
          "name": "winner",
          "type": "address"
        },
        {
          "indexed": false,
          "internalType": "address",
          "name": "loser",
          "type": "address"
        }
      ],
      "name": "MatchResult",
      "type": "event"
    },
    {
      "inputs": [
        {
          "components": [
            {
              "internalType": "uint256",
              "name": "kills",
              "type": "uint256"
            },
            {
              "internalType": "uint256",
              "name": "deaths",
              "type": "uint256"
            },
            {
              "internalType": "uint256",
              "name": "assists",
              "type": "uint256"
            },
            {
              "internalType": "uint256",
              "name": "minionScore",
              "type": "uint256"
            }
          ],
          "internalType": "struct LeagueOfLegendsLogic.Stats",
          "name": "athleteStats",
          "type": "tuple"
        }
      ],
      "name": "calculateScoreOnChain",
      "outputs": [
        {
          "internalType": "uint256",
          "name": "",
          "type": "uint256"
        }
      ],
      "stateMutability": "pure",
      "type": "function"
    },
    {
      "inputs": [
        {
          "internalType": "uint256[]",
          "name": "arr",
          "type": "uint256[]"
        }
      ],
      "name": "checkDuplicate",
      "outputs": [
        {
          "internalType": "bool",
          "name": "",
          "type": "bool"
        }
      ],
      "stateMutability": "pure",
      "type": "function"
    }
  ],
  "bytecode": "0x61231d610053600b82828239805160001a607314610046577f4e487b7100000000000000000000000000000000000000000000000000000000600052600060045260246000fd5b30600052607381538281f3fe73000000000000000000000000000000000000000030146080604052600436106100615760003560e01c806339695291146100665780633e7d270214610096578063c406e268146100c6578063d2c232b5146100ef578063fb0841fb14610118575b600080fd5b610080600480360381019061007b9190611bb5565b610155565b60405161008d9190611da1565b60405180910390f35b6100b060048036038101906100ab9190611a0e565b61022f565b6040516100bd9190611d64565b60405180910390f35b8180156100d257600080fd5b506100ed60048036038101906100e89190611b28565b610344565b005b8180156100fb57600080fd5b5061011660048036038101906101119190611aa0565b61067a565b005b81801561012457600080fd5b5061013f600480360381019061013a9190611920565b610e16565b60405161014c9190611d05565b60405180910390f35b6000806000905060648360000135600261016f9190611ed6565b6101799190611ed6565b816101849190611e4f565b9050606483602001356101979190611ed6565b816101a29190611f30565b9050606483604001356101b59190611ed6565b816101c09190611e4f565b90506032606484606001356101d59190611ed6565b6101df9190611ea5565b816101ea9190611e4f565b9050600a836000013510610209576101f4816102069190611e4f565b90505b600a836040013510610226576101f4816102239190611e4f565b90505b80915050919050565b6000805b82518110156102e157825183845185848151811061025457610253612169565b5b602002602001015161026691906120da565b8151811061027757610276612169565b5b60200260200101516102899190611e4f565b83845185848151811061029f5761029e612169565b5b60200260200101516102b191906120da565b815181106102c2576102c1612169565b5b60200260200101818152505080806102d990612063565b915050610233565b5060005b825181101561033957600283516102fc9190611ed6565b83828151811061030f5761030e612169565b5b60200260200101511061032657600091505061033f565b808061033190612063565b9150506102e5565b50600190505b919050565b6103656040518060600160405280602c81526020016122bc602c91396113e0565b60005b8660008781526020019081526020016000208054905081101561067157600087600088815260200190815260200160002082815481106103ab576103aa612169565b5b90600052602060002090600202016000016000600281106103cf576103ce612169565b5b0160009054906101000a900473ffffffffffffffffffffffffffffffffffffffff1690506000886000898152602001908152602001600020838154811061041957610418612169565b5b906000526020600020906002020160000160016002811061043d5761043c612169565b5b0160009054906101000a900473ffffffffffffffffffffffffffffffffffffffff16905061065b8960008a8152602001908152602001600020848154811061048857610487612169565b5b90600052602060002090600202016000016000600281106104ac576104ab612169565b5b0160009054906101000a900473ffffffffffffffffffffffffffffffffffffffff168a60008b815260200190815260200160002085815481106104f2576104f1612169565b5b906000526020600020906002020160000160016002811061051657610515612169565b5b0160009054906101000a900473ffffffffffffffffffffffffffffffffffffffff168a8a8860008873ffffffffffffffffffffffffffffffffffffffff1673ffffffffffffffffffffffffffffffffffffffff1681526020019081526020016000208054806020026020016040519081016040528092919081815260200182805480156105c257602002820191906000526020600020905b8154815260200190600101908083116105ae575b50505050508960008873ffffffffffffffffffffffffffffffffffffffff1673ffffffffffffffffffffffffffffffffffffffff16815260200190815260200160002080548060200260200160405190810160405280929190818152602001828054801561064f57602002820191906000526020600020905b81548152602001906001019080831161063b575b50505050508c8c610e16565b505050808061066990612063565b915050610368565b50505050505050565b6106b86040518060400160405280601b81526020017f73657474696e67207363686564756c6520696e206c69627261727900000000008152506113e0565b6000848054905085805490506106ce9190611ed6565b42334486866040516020016106e7959493929190611cb9565b6040516020818303038152906040528051906020012060001c61070a9190611e4f565b90506107146115d4565b61071c6115d4565b60005b86811015610e0b576107656040518060400160405280600181526020017f0a000000000000000000000000000000000000000000000000000000000000008152506113e0565b61076e81611479565b6107ac6040518060400160405280601881526020017f2a2a2a2a2a2a2a2a2a2a2a2a2a2a2a2a2a2a2a2a2a2a2a2a00000000000000008152506113e0565b60008060028a805490506107c091906120da565b146107de57600189805490506107d69190611e4f565b9050806107e7565b88805490509050805b506000836000600481106107fe576107fd612169565b5b6020020151905060005b6002836108159190611ea5565b8110156109645760008414156108bf5780866002856108349190611ea5565b89846108409190611e4f565b61084a91906120da565b6004811061085b5761085a612169565b5b6020020181815250506002836108719190611ea5565b8161087c9190611e4f565b8560028561088a9190611ea5565b89846108969190611e4f565b6108a091906120da565b600481106108b1576108b0612169565b5b602002018181525050610951565b60008682600481106108d4576108d3612169565b5b60200201519050808683600481106108ef576108ee612169565b5b602002018181525050856002856109069190611ea5565b6001846109139190611e4f565b61091d91906120da565b6004811061092e5761092d612169565b5b602002015187836004811061094657610945612169565b5b602002018181525050505b808061095c90612063565b915050610808565b50600083146109a3578085600160028561097e9190611ea5565b6109889190611f30565b6004811061099957610998612169565b5b6020020181815250505b60005b6002836109b39190611ea5565b811015610df5576109c26115f6565b8b805490508683600481106109da576109d9612169565b5b602002015110610aad5760405180604001604052808d898560048110610a0357610a02612169565b5b602002015181548110610a1957610a18612169565b5b9060005260206000200160009054906101000a900473ffffffffffffffffffffffffffffffffffffffff1673ffffffffffffffffffffffffffffffffffffffff1673ffffffffffffffffffffffffffffffffffffffff168152602001600073ffffffffffffffffffffffffffffffffffffffff1673ffffffffffffffffffffffffffffffffffffffff168152509050610cb1565b8b80549050878360048110610ac557610ac4612169565b5b602002015110610b98576040518060400160405280600073ffffffffffffffffffffffffffffffffffffffff1673ffffffffffffffffffffffffffffffffffffffff1681526020018d888560048110610b2157610b20612169565b5b602002015181548110610b3757610b36612169565b5b9060005260206000200160009054906101000a900473ffffffffffffffffffffffffffffffffffffffff1673ffffffffffffffffffffffffffffffffffffffff1673ffffffffffffffffffffffffffffffffffffffff168152509050610cb0565b60405180604001604052808d898560048110610bb757610bb6612169565b5b602002015181548110610bcd57610bcc612169565b5b9060005260206000200160009054906101000a900473ffffffffffffffffffffffffffffffffffffffff1673ffffffffffffffffffffffffffffffffffffffff1673ffffffffffffffffffffffffffffffffffffffff1681526020018d888560048110610c3d57610c3c612169565b5b602002015181548110610c5357610c52612169565b5b9060005260206000200160009054906101000a900473ffffffffffffffffffffffffffffffffffffffff1673ffffffffffffffffffffffffffffffffffffffff1673ffffffffffffffffffffffffffffffffffffffff1681525090505b5b600060405180602001604052808381525090508d6000878152602001908152602001600020819080600181540180825580915050600190039060005260206000209060020201600090919091909150600082015181600001906002610d17929190611618565b505050610d3f8160000151600060028110610d3557610d34612169565b5b6020020151611512565b610d7d6040518060400160405280600481526020017f20767320000000000000000000000000000000000000000000000000000000008152506113e0565b610da28160000151600160028110610d9857610d97612169565b5b6020020151611512565b610de06040518060400160405280600181526020017f0a000000000000000000000000000000000000000000000000000000000000008152506113e0565b50508080610ded90612063565b9150506109a6565b5050508080610e0390612063565b91505061071f565b505050505050505050565b60008073ffffffffffffffffffffffffffffffffffffffff168973ffffffffffffffffffffffffffffffffffffffff161415610eab5760028360008a73ffffffffffffffffffffffffffffffffffffffff1673ffffffffffffffffffffffffffffffffffffffff1681526020019081526020016000208860088110610e9e57610e9d612169565b5b01819055508790506113d4565b600073ffffffffffffffffffffffffffffffffffffffff168873ffffffffffffffffffffffffffffffffffffffff161415610f3f5760028360008b73ffffffffffffffffffffffffffffffffffffffff1673ffffffffffffffffffffffffffffffffffffffff1681526020019081526020016000208860088110610f3257610f31612169565b5b01819055508890506113d4565b60008060005b87518110156111415760008973ffffffffffffffffffffffffffffffffffffffff1663d4313da88a8481518110610f7f57610f7e612169565b5b60200260200101516040518263ffffffff1660e01b8152600401610fa39190611dbc565b60006040518083038186803b158015610fbb57600080fd5b505afa158015610fcf573d6000803e3d6000fd5b505050506040513d6000823e3d601f19601f82011682018060405250810190610ff89190611a57565b905060008a73ffffffffffffffffffffffffffffffffffffffff1663d4313da88a858151811061102b5761102a612169565b5b60200260200101516040518263ffffffff1660e01b815260040161104f9190611dbc565b60006040518083038186803b15801561106757600080fd5b505afa15801561107b573d6000803e3d6000fd5b505050506040513d6000823e3d601f19601f820116820180604052508101906110a49190611a57565b9050600082600184516110b79190611f30565b815181106110c8576110c7612169565b5b60200260200101519050600082600184516110e39190611f30565b815181106110f4576110f3612169565b5b602002602001015190508082111561111a576001876111139190611e4f565b965061112a565b6001866111279190611e4f565b95505b50505050808061113990612063565b915050610f45565b50808211156112915760018560008d73ffffffffffffffffffffffffffffffffffffffff1673ffffffffffffffffffffffffffffffffffffffff1681526020019081526020016000208a6008811061119c5761119b612169565b5b018190555060008560008c73ffffffffffffffffffffffffffffffffffffffff1673ffffffffffffffffffffffffffffffffffffffff1681526020019081526020016000208a600881106111f3576111f2612169565b5b018190555060018460008d73ffffffffffffffffffffffffffffffffffffffff1673ffffffffffffffffffffffffffffffffffffffff16815260200190815260200160002060008282546112479190611e4f565b925050819055507fd32ddce8faf47eb2adaacd698abb24d0f062fb81a54e788269c4aaa21f2f74118b8b60405161127f929190611d3b565b60405180910390a18a925050506113d4565b60018560008c73ffffffffffffffffffffffffffffffffffffffff1673ffffffffffffffffffffffffffffffffffffffff1681526020019081526020016000208a600881106112e3576112e2612169565b5b018190555060008560008d73ffffffffffffffffffffffffffffffffffffffff1673ffffffffffffffffffffffffffffffffffffffff1681526020019081526020016000208a6008811061133a57611339612169565b5b018190555060018460008c73ffffffffffffffffffffffffffffffffffffffff1673ffffffffffffffffffffffffffffffffffffffff168152602001908152602001600020600082825461138e9190611e4f565b925050819055507fd32ddce8faf47eb2adaacd698abb24d0f062fb81a54e788269c4aaa21f2f74118a8c6040516113c6929190611d3b565b60405180910390a189925050505b98975050505050505050565b611476816040516024016113f49190611d7f565b6040516020818303038152906040527f41304fac000000000000000000000000000000000000000000000000000000007bffffffffffffffffffffffffffffffffffffffffffffffffffffffff19166020820180517bffffffffffffffffffffffffffffffffffffffffffffffffffffffff83818316178352505050506115ab565b50565b61150f8160405160240161148d9190611dbc565b6040516020818303038152906040527ff5b1bba9000000000000000000000000000000000000000000000000000000007bffffffffffffffffffffffffffffffffffffffffffffffffffffffff19166020820180517bffffffffffffffffffffffffffffffffffffffffffffffffffffffff83818316178352505050506115ab565b50565b6115a8816040516024016115269190611d20565b6040516020818303038152906040527f2c2ecbc2000000000000000000000000000000000000000000000000000000007bffffffffffffffffffffffffffffffffffffffffffffffffffffffff19166020820180517bffffffffffffffffffffffffffffffffffffffffffffffffffffffff83818316178352505050506115ab565b50565b60008151905060006a636f6e736f6c652e6c6f679050602083016000808483855afa5050505050565b6040518060800160405280600490602082028036833780820191505090505090565b6040518060400160405280600290602082028036833780820191505090505090565b8260028101928215611684579160200282015b828111156116835782518260006101000a81548173ffffffffffffffffffffffffffffffffffffffff021916908373ffffffffffffffffffffffffffffffffffffffff1602179055509160200191906001019061162b565b5b5090506116919190611695565b5090565b5b808211156116ae576000816000905550600101611696565b5090565b60006116c56116c084611dfc565b611dd7565b905080838252602082019050828560208602820111156116e8576116e76121d6565b5b60005b8581101561171857816116fe88826118f6565b8452602084019350602083019250506001810190506116eb565b5050509392505050565b600061173561173084611dfc565b611dd7565b90508083825260208201905082856020860282011115611758576117576121d6565b5b60005b85811015611788578161176e888261190b565b84526020840193506020830192505060018101905061175b565b5050509392505050565b6000813590506117a181612203565b92915050565b6000813590506117b68161221a565b92915050565b600082601f8301126117d1576117d06121cc565b5b81356117e18482602086016116b2565b91505092915050565b600082601f8301126117ff576117fe6121cc565b5b815161180f848260208601611722565b91505092915050565b60008135905061182781612231565b92915050565b60008135905061183c81612248565b92915050565b6000813590506118518161225f565b92915050565b60008135905061186681612276565b92915050565b60008135905061187b8161228d565b92915050565b60008083601f840112611897576118966121cc565b5b8235905067ffffffffffffffff8111156118b4576118b36121c7565b5b6020830191508360018202830111156118d0576118cf6121d6565b5b9250929050565b6000608082840312156118ed576118ec6121d1565b5b81905092915050565b600081359050611905816122a4565b92915050565b60008151905061191a816122a4565b92915050565b600080600080600080600080610100898b031215611941576119406121e0565b5b600061194f8b828c01611792565b98505060206119608b828c01611792565b97505060406119718b828c016118f6565b96505060606119828b828c01611818565b955050608089013567ffffffffffffffff8111156119a3576119a26121db565b5b6119af8b828c016117bc565b94505060a089013567ffffffffffffffff8111156119d0576119cf6121db565b5b6119dc8b828c016117bc565b93505060c06119ed8b828c0161182d565b92505060e06119fe8b828c01611857565b9150509295985092959890939650565b600060208284031215611a2457611a236121e0565b5b600082013567ffffffffffffffff811115611a4257611a416121db565b5b611a4e848285016117bc565b91505092915050565b600060208284031215611a6d57611a6c6121e0565b5b600082015167ffffffffffffffff811115611a8b57611a8a6121db565b5b611a97848285016117ea565b91505092915050565b600080600080600060808688031215611abc57611abb6121e0565b5b6000611aca8882890161186c565b9550506020611adb888289016117a7565b9450506040611aec888289016118f6565b935050606086013567ffffffffffffffff811115611b0d57611b0c6121db565b5b611b1988828901611881565b92509250509295509295909350565b60008060008060008060c08789031215611b4557611b446121e0565b5b6000611b5389828a0161186c565b9650506020611b6489828a016118f6565b9550506040611b7589828a01611818565b9450506060611b8689828a0161182d565b9350506080611b9789828a01611857565b92505060a0611ba889828a01611842565b9150509295509295509295565b600060808284031215611bcb57611bca6121e0565b5b6000611bd9848285016118d7565b91505092915050565b611beb81611f64565b82525050565b611bfa81611f64565b82525050565b611c11611c0c82611f64565b6120ac565b82525050565b611c2081611f80565b82525050565b6000611c328385611e44565b9350611c3f838584611ff0565b82840190509392505050565b6000611c5682611e28565b611c608185611e33565b9350611c70818560208601611fff565b611c79816121e5565b840191505092915050565b611c8d81611fe6565b82525050565b611c9c81611fe6565b82525050565b611cb3611cae82611fe6565b6120d0565b82525050565b6000611cc58288611ca2565b602082019150611cd58287611c00565b601482019150611ce58286611ca2565b602082019150611cf6828486611c26565b91508190509695505050505050565b6000602082019050611d1a6000830184611bf1565b92915050565b6000602082019050611d356000830184611be2565b92915050565b6000604082019050611d506000830185611be2565b611d5d6020830184611be2565b9392505050565b6000602082019050611d796000830184611c17565b92915050565b60006020820190508181036000830152611d998184611c4b565b905092915050565b6000602082019050611db66000830184611c93565b92915050565b6000602082019050611dd16000830184611c84565b92915050565b6000611de1611df2565b9050611ded8282612032565b919050565b6000604051905090565b600067ffffffffffffffff821115611e1757611e16612198565b5b602082029050602081019050919050565b600081519050919050565b600082825260208201905092915050565b600081905092915050565b6000611e5a82611fe6565b9150611e6583611fe6565b9250827fffffffffffffffffffffffffffffffffffffffffffffffffffffffffffffffff03821115611e9a57611e9961210b565b5b828201905092915050565b6000611eb082611fe6565b9150611ebb83611fe6565b925082611ecb57611eca61213a565b5b828204905092915050565b6000611ee182611fe6565b9150611eec83611fe6565b9250817fffffffffffffffffffffffffffffffffffffffffffffffffffffffffffffffff0483118215151615611f2557611f2461210b565b5b828202905092915050565b6000611f3b82611fe6565b9150611f4683611fe6565b925082821015611f5957611f5861210b565b5b828203905092915050565b6000611f6f82611fc6565b9050919050565b6000819050919050565b60008115159050919050565b6000611f9782611f64565b9050919050565b6000819050919050565b6000819050919050565b6000819050919050565b6000819050919050565b600073ffffffffffffffffffffffffffffffffffffffff82169050919050565b6000819050919050565b82818337600083830152505050565b60005b8381101561201d578082015181840152602081019050612002565b8381111561202c576000848401525b50505050565b61203b826121e5565b810181811067ffffffffffffffff8211171561205a57612059612198565b5b80604052505050565b600061206e82611fe6565b91507fffffffffffffffffffffffffffffffffffffffffffffffffffffffffffffffff8214156120a1576120a061210b565b5b600182019050919050565b60006120b7826120be565b9050919050565b60006120c9826121f6565b9050919050565b6000819050919050565b60006120e582611fe6565b91506120f083611fe6565b925082612100576120ff61213a565b5b828206905092915050565b7f4e487b7100000000000000000000000000000000000000000000000000000000600052601160045260246000fd5b7f4e487b7100000000000000000000000000000000000000000000000000000000600052601260045260246000fd5b7f4e487b7100000000000000000000000000000000000000000000000000000000600052603260045260246000fd5b7f4e487b7100000000000000000000000000000000000000000000000000000000600052604160045260246000fd5b600080fd5b600080fd5b600080fd5b600080fd5b600080fd5b600080fd5b6000601f19601f8301169050919050565b60008160601b9050919050565b61220c81611f64565b811461221757600080fd5b50565b61222381611f76565b811461222e57600080fd5b50565b61223a81611f8c565b811461224557600080fd5b50565b61225181611f9e565b811461225c57600080fd5b50565b61226881611fa8565b811461227357600080fd5b50565b61227f81611fb2565b811461228a57600080fd5b50565b61229681611fbc565b81146122a157600080fd5b50565b6122ad81611fe6565b81146122b857600080fd5b5056fe494e20544845204d4f4241204c4f474943204c494252415259204556414c205745454b2046554e4354494f4ea2646970667358221220ba2fda7f7769211f805dcc4b38cac1471640d0f80763cbf1e3621a5ad8bb2d5f64736f6c63430008070033",
  "linkReferences": {},
  "deployedLinkReferences": {}
}