{
  "_format": "hh-sol-artifact-1",
  "contractName": "MOBALogicLibrary",
  "sourceName": "contracts/MOBALogicLibrary.sol",
  "abi": [
    {
      "anonymous": false,
      "inputs": [
        {
          "indexed": false,
          "internalType": "address",
          "name": "winner",
          "type": "address"
        },
        {
          "indexed": false,
          "internalType": "address",
          "name": "loser",
          "type": "address"
        }
      ],
      "name": "MatchResult",
      "type": "event"
    },
    {
      "inputs": [
        {
          "components": [
            {
              "internalType": "uint256",
              "name": "kills",
              "type": "uint256"
            },
            {
              "internalType": "uint256",
              "name": "deaths",
              "type": "uint256"
            },
            {
              "internalType": "uint256",
              "name": "assists",
              "type": "uint256"
            },
            {
              "internalType": "uint256",
              "name": "minionScore",
              "type": "uint256"
            }
          ],
          "internalType": "struct LeagueOfLegendsLogic.Stats",
          "name": "athleteStats",
          "type": "tuple"
        }
      ],
      "name": "calculateScoreOnChain",
      "outputs": [
        {
          "internalType": "uint256",
          "name": "",
          "type": "uint256"
        }
      ],
      "stateMutability": "pure",
      "type": "function"
    },
    {
      "inputs": [
        {
          "internalType": "uint256[]",
          "name": "arr",
          "type": "uint256[]"
        }
      ],
      "name": "checkDuplicate",
      "outputs": [
        {
          "internalType": "bool",
          "name": "",
          "type": "bool"
        }
      ],
      "stateMutability": "pure",
      "type": "function"
    }
  ],
  "bytecode": "0x612047610053600b82828239805160001a607314610046577f4e487b7100000000000000000000000000000000000000000000000000000000600052600060045260246000fd5b30600052607381538281f3fe73000000000000000000000000000000000000000030146080604052600436106100615760003560e01c806339695291146100665780633e7d270214610096578063c406e268146100c6578063d2c232b5146100ef578063fb0841fb14610118575b600080fd5b610080600480360381019061007b91906118fa565b610155565b60405161008d9190611acb565b60405180910390f35b6100b060048036038101906100ab9190611753565b61022f565b6040516100bd9190611a8e565b60405180910390f35b8180156100d257600080fd5b506100ed60048036038101906100e8919061186d565b610344565b005b8180156100fb57600080fd5b50610116600480360381019061011191906117e5565b61067a565b005b81801561012457600080fd5b5061013f600480360381019061013a9190611665565b610c8d565b60405161014c9190611a4a565b60405180910390f35b6000806000905060648360000135600261016f9190611c00565b6101799190611c00565b816101849190611b79565b9050606483602001356101979190611c00565b816101a29190611c5a565b9050606483604001356101b59190611c00565b816101c09190611b79565b90506032606484606001356101d59190611c00565b6101df9190611bcf565b816101ea9190611b79565b9050600a836000013510610209576101f4816102069190611b79565b90505b600a836040013510610226576101f4816102239190611b79565b90505b80915050919050565b6000805b82518110156102e157825183845185848151811061025457610253611e93565b5b60200260200101516102669190611e04565b8151811061027757610276611e93565b5b60200260200101516102899190611b79565b83845185848151811061029f5761029e611e93565b5b60200260200101516102b19190611e04565b815181106102c2576102c1611e93565b5b60200260200101818152505080806102d990611d8d565b915050610233565b5060005b825181101561033957600283516102fc9190611c00565b83828151811061030f5761030e611e93565b5b60200260200101511061032657600091505061033f565b808061033190611d8d565b9150506102e5565b50600190505b919050565b6103656040518060600160405280602c8152602001611fe6602c9139611257565b60005b8660008781526020019081526020016000208054905081101561067157600087600088815260200190815260200160002082815481106103ab576103aa611e93565b5b90600052602060002090600202016000016000600281106103cf576103ce611e93565b5b0160009054906101000a900473ffffffffffffffffffffffffffffffffffffffff1690506000886000898152602001908152602001600020838154811061041957610418611e93565b5b906000526020600020906002020160000160016002811061043d5761043c611e93565b5b0160009054906101000a900473ffffffffffffffffffffffffffffffffffffffff16905061065b8960008a8152602001908152602001600020848154811061048857610487611e93565b5b90600052602060002090600202016000016000600281106104ac576104ab611e93565b5b0160009054906101000a900473ffffffffffffffffffffffffffffffffffffffff168a60008b815260200190815260200160002085815481106104f2576104f1611e93565b5b906000526020600020906002020160000160016002811061051657610515611e93565b5b0160009054906101000a900473ffffffffffffffffffffffffffffffffffffffff168a8a8860008873ffffffffffffffffffffffffffffffffffffffff1673ffffffffffffffffffffffffffffffffffffffff1681526020019081526020016000208054806020026020016040519081016040528092919081815260200182805480156105c257602002820191906000526020600020905b8154815260200190600101908083116105ae575b50505050508960008873ffffffffffffffffffffffffffffffffffffffff1673ffffffffffffffffffffffffffffffffffffffff16815260200190815260200160002080548060200260200160405190810160405280929190818152602001828054801561064f57602002820191906000526020600020905b81548152602001906001019080831161063b575b50505050508c8c610c8d565b505050808061066990611d8d565b915050610368565b50505050505050565b6000848054905085805490506106909190611c00565b42334486866040516020016106a99594939291906119fe565b6040516020818303038152906040528051906020012060001c6106cc9190611b79565b90506106d6611319565b6106de611319565b60005b86811015610c825760008060028a805490506106fd9190611e04565b1461071b57600189805490506107139190611b79565b905080610724565b88805490509050805b5060008360006004811061073b5761073a611e93565b5b6020020151905060005b6002836107529190611bcf565b8110156108a15760008414156107fc5780866002856107719190611bcf565b898461077d9190611b79565b6107879190611e04565b6004811061079857610797611e93565b5b6020020181815250506002836107ae9190611bcf565b816107b99190611b79565b856002856107c79190611bcf565b89846107d39190611b79565b6107dd9190611e04565b600481106107ee576107ed611e93565b5b60200201818152505061088e565b600086826004811061081157610810611e93565b5b602002015190508086836004811061082c5761082b611e93565b5b602002018181525050856002856108439190611bcf565b6001846108509190611b79565b61085a9190611e04565b6004811061086b5761086a611e93565b5b602002015187836004811061088357610882611e93565b5b602002018181525050505b808061089990611d8d565b915050610745565b50600083146108e057808560016002856108bb9190611bcf565b6108c59190611c5a565b600481106108d6576108d5611e93565b5b6020020181815250505b60005b6002836108f09190611bcf565b811015610c6c576108ff61133b565b8b8054905086836004811061091757610916611e93565b5b6020020151106109ea5760405180604001604052808d8985600481106109405761093f611e93565b5b60200201518154811061095657610955611e93565b5b9060005260206000200160009054906101000a900473ffffffffffffffffffffffffffffffffffffffff1673ffffffffffffffffffffffffffffffffffffffff1673ffffffffffffffffffffffffffffffffffffffff168152602001600073ffffffffffffffffffffffffffffffffffffffff1673ffffffffffffffffffffffffffffffffffffffff168152509050610bee565b8b80549050878360048110610a0257610a01611e93565b5b602002015110610ad5576040518060400160405280600073ffffffffffffffffffffffffffffffffffffffff1673ffffffffffffffffffffffffffffffffffffffff1681526020018d888560048110610a5e57610a5d611e93565b5b602002015181548110610a7457610a73611e93565b5b9060005260206000200160009054906101000a900473ffffffffffffffffffffffffffffffffffffffff1673ffffffffffffffffffffffffffffffffffffffff1673ffffffffffffffffffffffffffffffffffffffff168152509050610bed565b60405180604001604052808d898560048110610af457610af3611e93565b5b602002015181548110610b0a57610b09611e93565b5b9060005260206000200160009054906101000a900473ffffffffffffffffffffffffffffffffffffffff1673ffffffffffffffffffffffffffffffffffffffff1673ffffffffffffffffffffffffffffffffffffffff1681526020018d888560048110610b7a57610b79611e93565b5b602002015181548110610b9057610b8f611e93565b5b9060005260206000200160009054906101000a900473ffffffffffffffffffffffffffffffffffffffff1673ffffffffffffffffffffffffffffffffffffffff1673ffffffffffffffffffffffffffffffffffffffff1681525090505b5b600060405180602001604052808381525090508d6000878152602001908152602001600020819080600181540180825580915050600190039060005260206000209060020201600090919091909150600082015181600001906002610c5492919061135d565b50505050508080610c6490611d8d565b9150506108e3565b5050508080610c7a90611d8d565b9150506106e1565b505050505050505050565b60008073ffffffffffffffffffffffffffffffffffffffff168973ffffffffffffffffffffffffffffffffffffffff161415610d225760028360008a73ffffffffffffffffffffffffffffffffffffffff1673ffffffffffffffffffffffffffffffffffffffff1681526020019081526020016000208860088110610d1557610d14611e93565b5b018190555087905061124b565b600073ffffffffffffffffffffffffffffffffffffffff168873ffffffffffffffffffffffffffffffffffffffff161415610db65760028360008b73ffffffffffffffffffffffffffffffffffffffff1673ffffffffffffffffffffffffffffffffffffffff1681526020019081526020016000208860088110610da957610da8611e93565b5b018190555088905061124b565b60008060005b8751811015610fb85760008973ffffffffffffffffffffffffffffffffffffffff1663d4313da88a8481518110610df657610df5611e93565b5b60200260200101516040518263ffffffff1660e01b8152600401610e1a9190611ae6565b60006040518083038186803b158015610e3257600080fd5b505afa158015610e46573d6000803e3d6000fd5b505050506040513d6000823e3d601f19601f82011682018060405250810190610e6f919061179c565b905060008a73ffffffffffffffffffffffffffffffffffffffff1663d4313da88a8581518110610ea257610ea1611e93565b5b60200260200101516040518263ffffffff1660e01b8152600401610ec69190611ae6565b60006040518083038186803b158015610ede57600080fd5b505afa158015610ef2573d6000803e3d6000fd5b505050506040513d6000823e3d601f19601f82011682018060405250810190610f1b919061179c565b905060008260018451610f2e9190611c5a565b81518110610f3f57610f3e611e93565b5b6020026020010151905060008260018451610f5a9190611c5a565b81518110610f6b57610f6a611e93565b5b6020026020010151905080821115610f9157600187610f8a9190611b79565b9650610fa1565b600186610f9e9190611b79565b95505b505050508080610fb090611d8d565b915050610dbc565b50808211156111085760018560008d73ffffffffffffffffffffffffffffffffffffffff1673ffffffffffffffffffffffffffffffffffffffff1681526020019081526020016000208a6008811061101357611012611e93565b5b018190555060008560008c73ffffffffffffffffffffffffffffffffffffffff1673ffffffffffffffffffffffffffffffffffffffff1681526020019081526020016000208a6008811061106a57611069611e93565b5b018190555060018460008d73ffffffffffffffffffffffffffffffffffffffff1673ffffffffffffffffffffffffffffffffffffffff16815260200190815260200160002060008282546110be9190611b79565b925050819055507fd32ddce8faf47eb2adaacd698abb24d0f062fb81a54e788269c4aaa21f2f74118b8b6040516110f6929190611a65565b60405180910390a18a9250505061124b565b60018560008c73ffffffffffffffffffffffffffffffffffffffff1673ffffffffffffffffffffffffffffffffffffffff1681526020019081526020016000208a6008811061115a57611159611e93565b5b018190555060008560008d73ffffffffffffffffffffffffffffffffffffffff1673ffffffffffffffffffffffffffffffffffffffff1681526020019081526020016000208a600881106111b1576111b0611e93565b5b018190555060018460008c73ffffffffffffffffffffffffffffffffffffffff1673ffffffffffffffffffffffffffffffffffffffff16815260200190815260200160002060008282546112059190611b79565b925050819055507fd32ddce8faf47eb2adaacd698abb24d0f062fb81a54e788269c4aaa21f2f74118a8c60405161123d929190611a65565b60405180910390a189925050505b98975050505050505050565b6112ed8160405160240161126b9190611aa9565b6040516020818303038152906040527f41304fac000000000000000000000000000000000000000000000000000000007bffffffffffffffffffffffffffffffffffffffffffffffffffffffff19166020820180517bffffffffffffffffffffffffffffffffffffffffffffffffffffffff83818316178352505050506112f0565b50565b60008151905060006a636f6e736f6c652e6c6f679050602083016000808483855afa5050505050565b6040518060800160405280600490602082028036833780820191505090505090565b6040518060400160405280600290602082028036833780820191505090505090565b82600281019282156113c9579160200282015b828111156113c85782518260006101000a81548173ffffffffffffffffffffffffffffffffffffffff021916908373ffffffffffffffffffffffffffffffffffffffff16021790555091602001919060010190611370565b5b5090506113d691906113da565b5090565b5b808211156113f35760008160009055506001016113db565b5090565b600061140a61140584611b26565b611b01565b9050808382526020820190508285602086028201111561142d5761142c611f00565b5b60005b8581101561145d5781611443888261163b565b845260208401935060208301925050600181019050611430565b5050509392505050565b600061147a61147584611b26565b611b01565b9050808382526020820190508285602086028201111561149d5761149c611f00565b5b60005b858110156114cd57816114b38882611650565b8452602084019350602083019250506001810190506114a0565b5050509392505050565b6000813590506114e681611f2d565b92915050565b6000813590506114fb81611f44565b92915050565b600082601f83011261151657611515611ef6565b5b81356115268482602086016113f7565b91505092915050565b600082601f83011261154457611543611ef6565b5b8151611554848260208601611467565b91505092915050565b60008135905061156c81611f5b565b92915050565b60008135905061158181611f72565b92915050565b60008135905061159681611f89565b92915050565b6000813590506115ab81611fa0565b92915050565b6000813590506115c081611fb7565b92915050565b60008083601f8401126115dc576115db611ef6565b5b8235905067ffffffffffffffff8111156115f9576115f8611ef1565b5b60208301915083600182028301111561161557611614611f00565b5b9250929050565b60006080828403121561163257611631611efb565b5b81905092915050565b60008135905061164a81611fce565b92915050565b60008151905061165f81611fce565b92915050565b600080600080600080600080610100898b03121561168657611685611f0a565b5b60006116948b828c016114d7565b98505060206116a58b828c016114d7565b97505060406116b68b828c0161163b565b96505060606116c78b828c0161155d565b955050608089013567ffffffffffffffff8111156116e8576116e7611f05565b5b6116f48b828c01611501565b94505060a089013567ffffffffffffffff81111561171557611714611f05565b5b6117218b828c01611501565b93505060c06117328b828c01611572565b92505060e06117438b828c0161159c565b9150509295985092959890939650565b60006020828403121561176957611768611f0a565b5b600082013567ffffffffffffffff81111561178757611786611f05565b5b61179384828501611501565b91505092915050565b6000602082840312156117b2576117b1611f0a565b5b600082015167ffffffffffffffff8111156117d0576117cf611f05565b5b6117dc8482850161152f565b91505092915050565b60008060008060006080868803121561180157611800611f0a565b5b600061180f888289016115b1565b9550506020611820888289016114ec565b94505060406118318882890161163b565b935050606086013567ffffffffffffffff81111561185257611851611f05565b5b61185e888289016115c6565b92509250509295509295909350565b60008060008060008060c0878903121561188a57611889611f0a565b5b600061189889828a016115b1565b96505060206118a989828a0161163b565b95505060406118ba89828a0161155d565b94505060606118cb89828a01611572565b93505060806118dc89828a0161159c565b92505060a06118ed89828a01611587565b9150509295509295509295565b6000608082840312156119105761190f611f0a565b5b600061191e8482850161161c565b91505092915050565b61193081611c8e565b82525050565b61193f81611c8e565b82525050565b61195661195182611c8e565b611dd6565b82525050565b61196581611caa565b82525050565b60006119778385611b6e565b9350611984838584611d1a565b82840190509392505050565b600061199b82611b52565b6119a58185611b5d565b93506119b5818560208601611d29565b6119be81611f0f565b840191505092915050565b6119d281611d10565b82525050565b6119e181611d10565b82525050565b6119f86119f382611d10565b611dfa565b82525050565b6000611a0a82886119e7565b602082019150611a1a8287611945565b601482019150611a2a82866119e7565b602082019150611a3b82848661196b565b91508190509695505050505050565b6000602082019050611a5f6000830184611936565b92915050565b6000604082019050611a7a6000830185611927565b611a876020830184611927565b9392505050565b6000602082019050611aa3600083018461195c565b92915050565b60006020820190508181036000830152611ac38184611990565b905092915050565b6000602082019050611ae060008301846119d8565b92915050565b6000602082019050611afb60008301846119c9565b92915050565b6000611b0b611b1c565b9050611b178282611d5c565b919050565b6000604051905090565b600067ffffffffffffffff821115611b4157611b40611ec2565b5b602082029050602081019050919050565b600081519050919050565b600082825260208201905092915050565b600081905092915050565b6000611b8482611d10565b9150611b8f83611d10565b9250827fffffffffffffffffffffffffffffffffffffffffffffffffffffffffffffffff03821115611bc457611bc3611e35565b5b828201905092915050565b6000611bda82611d10565b9150611be583611d10565b925082611bf557611bf4611e64565b5b828204905092915050565b6000611c0b82611d10565b9150611c1683611d10565b9250817fffffffffffffffffffffffffffffffffffffffffffffffffffffffffffffffff0483118215151615611c4f57611c4e611e35565b5b828202905092915050565b6000611c6582611d10565b9150611c7083611d10565b925082821015611c8357611c82611e35565b5b828203905092915050565b6000611c9982611cf0565b9050919050565b6000819050919050565b60008115159050919050565b6000611cc182611c8e565b9050919050565b6000819050919050565b6000819050919050565b6000819050919050565b6000819050919050565b600073ffffffffffffffffffffffffffffffffffffffff82169050919050565b6000819050919050565b82818337600083830152505050565b60005b83811015611d47578082015181840152602081019050611d2c565b83811115611d56576000848401525b50505050565b611d6582611f0f565b810181811067ffffffffffffffff82111715611d8457611d83611ec2565b5b80604052505050565b6000611d9882611d10565b91507fffffffffffffffffffffffffffffffffffffffffffffffffffffffffffffffff821415611dcb57611dca611e35565b5b600182019050919050565b6000611de182611de8565b9050919050565b6000611df382611f20565b9050919050565b6000819050919050565b6000611e0f82611d10565b9150611e1a83611d10565b925082611e2a57611e29611e64565b5b828206905092915050565b7f4e487b7100000000000000000000000000000000000000000000000000000000600052601160045260246000fd5b7f4e487b7100000000000000000000000000000000000000000000000000000000600052601260045260246000fd5b7f4e487b7100000000000000000000000000000000000000000000000000000000600052603260045260246000fd5b7f4e487b7100000000000000000000000000000000000000000000000000000000600052604160045260246000fd5b600080fd5b600080fd5b600080fd5b600080fd5b600080fd5b600080fd5b6000601f19601f8301169050919050565b60008160601b9050919050565b611f3681611c8e565b8114611f4157600080fd5b50565b611f4d81611ca0565b8114611f5857600080fd5b50565b611f6481611cb6565b8114611f6f57600080fd5b50565b611f7b81611cc8565b8114611f8657600080fd5b50565b611f9281611cd2565b8114611f9d57600080fd5b50565b611fa981611cdc565b8114611fb457600080fd5b50565b611fc081611ce6565b8114611fcb57600080fd5b50565b611fd781611d10565b8114611fe257600080fd5b5056fe494e20544845204d4f4241204c4f474943204c494252415259204556414c205745454b2046554e4354494f4ea2646970667358221220cb4f1cd7201f0f82e4acdb71c7336ea543c6663eca38f3f04b2c7978799332fd64736f6c63430008070033",
  "linkReferences": {},
  "deployedLinkReferences": {}
}