{
  "_format": "hh-sol-artifact-1",
  "contractName": "MOBALogicLibrary",
  "sourceName": "contracts/MOBALogicLibrary.sol",
  "abi": [
    {
      "anonymous": false,
      "inputs": [
        {
          "indexed": false,
          "internalType": "address",
          "name": "winner",
          "type": "address"
        },
        {
          "indexed": false,
          "internalType": "address",
          "name": "loser",
          "type": "address"
        }
      ],
      "name": "MatchResult",
      "type": "event"
    },
    {
      "inputs": [
        {
          "components": [
            {
              "internalType": "uint256",
              "name": "kills",
              "type": "uint256"
            },
            {
              "internalType": "uint256",
              "name": "deaths",
              "type": "uint256"
            },
            {
              "internalType": "uint256",
              "name": "assists",
              "type": "uint256"
            },
            {
              "internalType": "uint256",
              "name": "minionScore",
              "type": "uint256"
            }
          ],
          "internalType": "struct LeagueOfLegendsLogic.Stats",
          "name": "athleteStats",
          "type": "tuple"
        }
      ],
      "name": "calculateScoreOnChain",
      "outputs": [
        {
          "internalType": "uint256",
          "name": "",
          "type": "uint256"
        }
      ],
      "stateMutability": "pure",
      "type": "function"
    }
  ],
  "bytecode": "0x6124c7610053600b82828239805160001a607314610046577f4e487b7100000000000000000000000000000000000000000000000000000000600052600060045260246000fd5b30600052607381538281f3fe73000000000000000000000000000000000000000030146080604052600436106100565760003560e01c806303626e841461005b5780633969529114610084578063cc9b40cc146100b4578063d2c232b5146100dd575b600080fd5b81801561006757600080fd5b50610082600480360381019061007d9190611cbb565b610106565b005b61009e60048036038101906100999190611c61565b610839565b6040516100ab9190611f0b565b60405180910390f35b8180156100c057600080fd5b506100db60048036038101906100d69190611b6a565b610913565b005b8180156100e957600080fd5b5061010460048036038101906100ff9190611bd9565b610c09565b005b60005b8160008981526020019081526020016000208054905081101561082f5760008260008a8152602001908152602001600020828154811061014c5761014b6122f0565b5b90600052602060002090600202016000016000600281106101705761016f6122f0565b5b0160009054906101000a900473ffffffffffffffffffffffffffffffffffffffff16905060008360008b815260200190815260200160002083815481106101ba576101b96122f0565b5b90600052602060002090600202016000016001600281106101de576101dd6122f0565b5b0160009054906101000a900473ffffffffffffffffffffffffffffffffffffffff169050600073ffffffffffffffffffffffffffffffffffffffff168273ffffffffffffffffffffffffffffffffffffffff1614156102935760038860008373ffffffffffffffffffffffffffffffffffffffff1673ffffffffffffffffffffffffffffffffffffffff1681526020019081526020016000208b60088110610289576102886122f0565b5b018190555061081a565b600073ffffffffffffffffffffffffffffffffffffffff168173ffffffffffffffffffffffffffffffffffffffff1614156103245760038860008473ffffffffffffffffffffffffffffffffffffffff1673ffffffffffffffffffffffffffffffffffffffff1681526020019081526020016000208b6008811061031a576103196122f0565b5b0181905550610819565b60008061033484848e8c8f6113ec565b91509150818760008673ffffffffffffffffffffffffffffffffffffffff1673ffffffffffffffffffffffffffffffffffffffff1681526020019081526020016000208d60088110610389576103886122f0565b5b0181905550808760008573ffffffffffffffffffffffffffffffffffffffff1673ffffffffffffffffffffffffffffffffffffffff1681526020019081526020016000208d600881106103df576103de6122f0565b5b01819055508082111561052e5760018a60008673ffffffffffffffffffffffffffffffffffffffff1673ffffffffffffffffffffffffffffffffffffffff1681526020019081526020016000208d6008811061043e5761043d6122f0565b5b018190555060008a60008573ffffffffffffffffffffffffffffffffffffffff1673ffffffffffffffffffffffffffffffffffffffff1681526020019081526020016000208d60088110610495576104946122f0565b5b018190555060028860008673ffffffffffffffffffffffffffffffffffffffff1673ffffffffffffffffffffffffffffffffffffffff16815260200190815260200160002060008282546104e99190611fe2565b925050819055507fd32ddce8faf47eb2adaacd698abb24d0f062fb81a54e788269c4aaa21f2f74118484604051610521929190611ea0565b60405180910390a1610816565b818111156106785760018a60008573ffffffffffffffffffffffffffffffffffffffff1673ffffffffffffffffffffffffffffffffffffffff1681526020019081526020016000208d60088110610588576105876122f0565b5b018190555060008a60008673ffffffffffffffffffffffffffffffffffffffff1673ffffffffffffffffffffffffffffffffffffffff1681526020019081526020016000208d600881106105df576105de6122f0565b5b018190555060028860008573ffffffffffffffffffffffffffffffffffffffff1673ffffffffffffffffffffffffffffffffffffffff16815260200190815260200160002060008282546106339190611fe2565b925050819055507fd32ddce8faf47eb2adaacd698abb24d0f062fb81a54e788269c4aaa21f2f7411838560405161066b929190611ea0565b60405180910390a1610815565b808214156108145760028a60008573ffffffffffffffffffffffffffffffffffffffff1673ffffffffffffffffffffffffffffffffffffffff1681526020019081526020016000208d600881106106d2576106d16122f0565b5b018190555060028a60008673ffffffffffffffffffffffffffffffffffffffff1673ffffffffffffffffffffffffffffffffffffffff1681526020019081526020016000208d60088110610729576107286122f0565b5b018190555060018860008673ffffffffffffffffffffffffffffffffffffffff1673ffffffffffffffffffffffffffffffffffffffff168152602001908152602001600020600082825461077d9190611fe2565b9250508190555060018860008573ffffffffffffffffffffffffffffffffffffffff1673ffffffffffffffffffffffffffffffffffffffff16815260200190815260200160002060008282546107d39190611fe2565b925050819055507fd32ddce8faf47eb2adaacd698abb24d0f062fb81a54e788269c4aaa21f2f7411838560405161080b929190611ea0565b60405180910390a15b5b5b50505b5b50508080610827906121ea565b915050610109565b5050505050505050565b600080600090506064836000013560026108539190612069565b61085d9190612069565b816108689190611fe2565b90506064836020013561087b9190612069565b8161088691906120c3565b9050606483604001356108999190612069565b816108a49190611fe2565b90506032606484606001356108b99190612069565b6108c39190612038565b816108ce9190611fe2565b9050600a8360000135106108ed576101f4816108ea9190611fe2565b90505b600a83604001351061090a576101f4816109079190611fe2565b90505b80915050919050565b600061091d611899565b60005b8551811015610b3757828560008884815181106109405761093f6122f0565b5b602002602001015173ffffffffffffffffffffffffffffffffffffffff1673ffffffffffffffffffffffffffffffffffffffff168152602001908152602001600020541115610a9f5784600087838151811061099f5761099e6122f0565b5b602002602001015173ffffffffffffffffffffffffffffffffffffffff1673ffffffffffffffffffffffffffffffffffffffff16815260200190815260200160002054925060005b81811015610a26576000838260088110610a0457610a036122f0565b5b6020020190151590811515815250508080610a1e906121ea565b9150506109e7565b506001828260088110610a3c57610a3b6122f0565b5b6020020190151590811515815250506000600182610a5a9190611fe2565b90505b8651811015610a9d576000838260088110610a7b57610a7a6122f0565b5b6020020190151590811515815250508080610a95906121ea565b915050610a5d565b505b82856000888481518110610ab657610ab56122f0565b5b602002602001015173ffffffffffffffffffffffffffffffffffffffff1673ffffffffffffffffffffffffffffffffffffffff168152602001908152602001600020541415610b24576001828260088110610b1457610b136122f0565b5b6020020190151590811515815250505b8080610b2f906121ea565b915050610920565b506000805b6008811015610c0057828160088110610b5857610b576122f0565b5b602002015115610bed5784878281518110610b7657610b756122f0565b5b60200260200101519080600181540180825580915050600190039060005260206000200160009091909190916101000a81548173ffffffffffffffffffffffffffffffffffffffff021916908373ffffffffffffffffffffffffffffffffffffffff1602179055508180610be9906121ea565b9250505b8080610bf8906121ea565b915050610b3c565b50505050505050565b6000848054905011610c50576040517f08c379a0000000000000000000000000000000000000000000000000000000008152600401610c4790611eeb565b60405180910390fd5b610c8e6040518060400160405280601b81526020017f73657474696e67207363686564756c6520696e206c69627261727900000000008152506116a5565b600084805490508580549050610ca49190612069565b4233448686604051602001610cbd959493929190611e39565b6040516020818303038152906040528051906020012060001c610ce09190611fe2565b9050610cea6118bc565b610cf26118bc565b60005b868110156113e157610d3b6040518060400160405280600181526020017f0a000000000000000000000000000000000000000000000000000000000000008152506116a5565b610d448161173e565b610d826040518060400160405280601881526020017f2a2a2a2a2a2a2a2a2a2a2a2a2a2a2a2a2a2a2a2a2a2a2a2a00000000000000008152506116a5565b60008060028a80549050610d969190612261565b14610db45760018980549050610dac9190611fe2565b905080610dbd565b88805490509050805b50600083600060048110610dd457610dd36122f0565b5b6020020151905060005b600283610deb9190612038565b811015610f3a576000841415610e95578086600285610e0a9190612038565b8984610e169190611fe2565b610e209190612261565b60048110610e3157610e306122f0565b5b602002018181525050600283610e479190612038565b81610e529190611fe2565b85600285610e609190612038565b8984610e6c9190611fe2565b610e769190612261565b60048110610e8757610e866122f0565b5b602002018181525050610f27565b6000868260048110610eaa57610ea96122f0565b5b6020020151905080868360048110610ec557610ec46122f0565b5b60200201818152505085600285610edc9190612038565b600184610ee99190611fe2565b610ef39190612261565b60048110610f0457610f036122f0565b5b6020020151878360048110610f1c57610f1b6122f0565b5b602002018181525050505b8080610f32906121ea565b915050610dde565b5060008314610f795780856001600285610f549190612038565b610f5e91906120c3565b60048110610f6f57610f6e6122f0565b5b6020020181815250505b60005b600283610f899190612038565b8110156113cb57610f986118de565b8b80549050868360048110610fb057610faf6122f0565b5b6020020151106110835760405180604001604052808d898560048110610fd957610fd86122f0565b5b602002015181548110610fef57610fee6122f0565b5b9060005260206000200160009054906101000a900473ffffffffffffffffffffffffffffffffffffffff1673ffffffffffffffffffffffffffffffffffffffff1673ffffffffffffffffffffffffffffffffffffffff168152602001600073ffffffffffffffffffffffffffffffffffffffff1673ffffffffffffffffffffffffffffffffffffffff168152509050611287565b8b8054905087836004811061109b5761109a6122f0565b5b60200201511061116e576040518060400160405280600073ffffffffffffffffffffffffffffffffffffffff1673ffffffffffffffffffffffffffffffffffffffff1681526020018d8885600481106110f7576110f66122f0565b5b60200201518154811061110d5761110c6122f0565b5b9060005260206000200160009054906101000a900473ffffffffffffffffffffffffffffffffffffffff1673ffffffffffffffffffffffffffffffffffffffff1673ffffffffffffffffffffffffffffffffffffffff168152509050611286565b60405180604001604052808d89856004811061118d5761118c6122f0565b5b6020020151815481106111a3576111a26122f0565b5b9060005260206000200160009054906101000a900473ffffffffffffffffffffffffffffffffffffffff1673ffffffffffffffffffffffffffffffffffffffff1673ffffffffffffffffffffffffffffffffffffffff1681526020018d888560048110611213576112126122f0565b5b602002015181548110611229576112286122f0565b5b9060005260206000200160009054906101000a900473ffffffffffffffffffffffffffffffffffffffff1673ffffffffffffffffffffffffffffffffffffffff1673ffffffffffffffffffffffffffffffffffffffff1681525090505b5b600060405180602001604052808381525090508d60008781526020019081526020016000208190806001815401808255809150506001900390600052602060002090600202016000909190919091506000820151816000019060026112ed929190611900565b505050611315816000015160006002811061130b5761130a6122f0565b5b60200201516117d7565b6113536040518060400160405280600481526020017f20767320000000000000000000000000000000000000000000000000000000008152506116a5565b611378816000015160016002811061136e5761136d6122f0565b5b60200201516117d7565b6113b66040518060400160405280600181526020017f0a000000000000000000000000000000000000000000000000000000000000008152506116a5565b505080806113c3906121ea565b915050610f7c565b50505080806113d9906121ea565b915050610cf5565b505050505050505050565b60008060008060008660008b73ffffffffffffffffffffffffffffffffffffffff1673ffffffffffffffffffffffffffffffffffffffff168152602001908152602001600020600580602002604051908101604052809291908260058015611469576020028201915b815481526020019060010190808311611455575b5050505050905060008760008b73ffffffffffffffffffffffffffffffffffffffff1673ffffffffffffffffffffffffffffffffffffffff1681526020019081526020016000206005806020026040519081016040528092919082600580156114e7576020028201915b8154815260200190600101908083116114d3575b5050505050905060005b60058110156116905760008873ffffffffffffffffffffffffffffffffffffffff16637ff3a9bf85846005811061152b5761152a6122f0565b5b60200201518d6040518363ffffffff1660e01b815260040161154e929190611f41565b60206040518083038186803b15801561156657600080fd5b505afa15801561157a573d6000803e3d6000fd5b505050506040513d601f19601f8201168201806040525081019061159e9190611c8e565b905060008973ffffffffffffffffffffffffffffffffffffffff16637ff3a9bf8585600581106115d1576115d06122f0565b5b60200201518e6040518363ffffffff1660e01b81526004016115f4929190611f41565b60206040518083038186803b15801561160c57600080fd5b505afa158015611620573d6000803e3d6000fd5b505050506040513d601f19601f820116820180604052508101906116449190611c8e565b9050808211156116625760018761165b9190611fe2565b965061167b565b8181111561167a576001866116779190611fe2565b95505b5b50508080611688906121ea565b9150506114f1565b50838395509550505050509550959350505050565b61173b816040516024016116b99190611ec9565b6040516020818303038152906040527f41304fac000000000000000000000000000000000000000000000000000000007bffffffffffffffffffffffffffffffffffffffffffffffffffffffff19166020820180517bffffffffffffffffffffffffffffffffffffffffffffffffffffffff8381831617835250505050611870565b50565b6117d4816040516024016117529190611f26565b6040516020818303038152906040527ff5b1bba9000000000000000000000000000000000000000000000000000000007bffffffffffffffffffffffffffffffffffffffffffffffffffffffff19166020820180517bffffffffffffffffffffffffffffffffffffffffffffffffffffffff8381831617835250505050611870565b50565b61186d816040516024016117eb9190611e85565b6040516020818303038152906040527f2c2ecbc2000000000000000000000000000000000000000000000000000000007bffffffffffffffffffffffffffffffffffffffffffffffffffffffff19166020820180517bffffffffffffffffffffffffffffffffffffffffffffffffffffffff8381831617835250505050611870565b50565b60008151905060006a636f6e736f6c652e6c6f679050602083016000808483855afa5050505050565b604051806101000160405280600890602082028036833780820191505090505090565b6040518060800160405280600490602082028036833780820191505090505090565b6040518060400160405280600290602082028036833780820191505090505090565b826002810192821561196c579160200282015b8281111561196b5782518260006101000a81548173ffffffffffffffffffffffffffffffffffffffff021916908373ffffffffffffffffffffffffffffffffffffffff16021790555091602001919060010190611913565b5b509050611979919061197d565b5090565b5b8082111561199657600081600090555060010161197e565b5090565b60006119ad6119a884611f8f565b611f6a565b905080838252602082019050828560208602820111156119d0576119cf61235d565b5b60005b85811015611a0057816119e68882611a0a565b8452602084019350602083019250506001810190506119d3565b5050509392505050565b600081359050611a19816123d9565b92915050565b600082601f830112611a3457611a33612353565b5b8135611a4484826020860161199a565b91505092915050565b600081359050611a5c816123f0565b92915050565b600081359050611a7181612407565b92915050565b600081359050611a868161241e565b92915050565b600081359050611a9b81612435565b92915050565b600081359050611ab08161244c565b92915050565b600081359050611ac581612463565b92915050565b60008083601f840112611ae157611ae0612353565b5b8235905067ffffffffffffffff811115611afe57611afd61234e565b5b602083019150836001820283011115611b1a57611b1961235d565b5b9250929050565b600060808284031215611b3757611b36612358565b5b81905092915050565b600081359050611b4f8161247a565b92915050565b600081519050611b648161247a565b92915050565b600080600060608486031215611b8357611b82612367565b5b600084013567ffffffffffffffff811115611ba157611ba0612362565b5b611bad86828701611a1f565b9350506020611bbe86828701611aa1565b9250506040611bcf86828701611a4d565b9150509250925092565b600080600080600060808688031215611bf557611bf4612367565b5b6000611c0388828901611ab6565b9550506020611c1488828901611a4d565b9450506040611c2588828901611b40565b935050606086013567ffffffffffffffff811115611c4657611c45612362565b5b611c5288828901611acb565b92509250509295509295909350565b600060808284031215611c7757611c76612367565b5b6000611c8584828501611b21565b91505092915050565b600060208284031215611ca457611ca3612367565b5b6000611cb284828501611b55565b91505092915050565b600080600080600080600060e0888a031215611cda57611cd9612367565b5b6000611ce88a828b01611b40565b9750506020611cf98a828b01611a62565b9650506040611d0a8a828b01611a8c565b9550506060611d1b8a828b01611a77565b9450506080611d2c8a828b01611aa1565b93505060a0611d3d8a828b01611a8c565b92505060c0611d4e8a828b01611ab6565b91505092959891949750929550565b611d66816120f7565b82525050565b611d7d611d78826120f7565b612233565b82525050565b6000611d8f8385611fd7565b9350611d9c838584612177565b82840190509392505050565b6000611db382611fbb565b611dbd8185611fc6565b9350611dcd818560208601612186565b611dd68161236c565b840191505092915050565b6000611dee603f83611fc6565b9150611df98261238a565b604082019050919050565b611e0d8161216d565b82525050565b611e1c8161216d565b82525050565b611e33611e2e8261216d565b612257565b82525050565b6000611e458288611e22565b602082019150611e558287611d6c565b601482019150611e658286611e22565b602082019150611e76828486611d83565b91508190509695505050505050565b6000602082019050611e9a6000830184611d5d565b92915050565b6000604082019050611eb56000830185611d5d565b611ec26020830184611d5d565b9392505050565b60006020820190508181036000830152611ee38184611da8565b905092915050565b60006020820190508181036000830152611f0481611de1565b9050919050565b6000602082019050611f206000830184611e13565b92915050565b6000602082019050611f3b6000830184611e04565b92915050565b6000604082019050611f566000830185611e04565b611f636020830184611e04565b9392505050565b6000611f74611f85565b9050611f8082826121b9565b919050565b6000604051905090565b600067ffffffffffffffff821115611faa57611fa961231f565b5b602082029050602081019050919050565b600081519050919050565b600082825260208201905092915050565b600081905092915050565b6000611fed8261216d565b9150611ff88361216d565b9250827fffffffffffffffffffffffffffffffffffffffffffffffffffffffffffffffff0382111561202d5761202c612292565b5b828201905092915050565b60006120438261216d565b915061204e8361216d565b92508261205e5761205d6122c1565b5b828204905092915050565b60006120748261216d565b915061207f8361216d565b9250817fffffffffffffffffffffffffffffffffffffffffffffffffffffffffffffffff04831182151516156120b8576120b7612292565b5b828202905092915050565b60006120ce8261216d565b91506120d98361216d565b9250828210156120ec576120eb612292565b5b828203905092915050565b60006121028261214d565b9050919050565b6000819050919050565b600061211e826120f7565b9050919050565b6000819050919050565b6000819050919050565b6000819050919050565b6000819050919050565b600073ffffffffffffffffffffffffffffffffffffffff82169050919050565b6000819050919050565b82818337600083830152505050565b60005b838110156121a4578082015181840152602081019050612189565b838111156121b3576000848401525b50505050565b6121c28261236c565b810181811067ffffffffffffffff821117156121e1576121e061231f565b5b80604052505050565b60006121f58261216d565b91507fffffffffffffffffffffffffffffffffffffffffffffffffffffffffffffffff82141561222857612227612292565b5b600182019050919050565b600061223e82612245565b9050919050565b60006122508261237d565b9050919050565b6000819050919050565b600061226c8261216d565b91506122778361216d565b925082612287576122866122c1565b5b828206905092915050565b7f4e487b7100000000000000000000000000000000000000000000000000000000600052601160045260246000fd5b7f4e487b7100000000000000000000000000000000000000000000000000000000600052601260045260246000fd5b7f4e487b7100000000000000000000000000000000000000000000000000000000600052603260045260246000fd5b7f4e487b7100000000000000000000000000000000000000000000000000000000600052604160045260246000fd5b600080fd5b600080fd5b600080fd5b600080fd5b600080fd5b600080fd5b6000601f19601f8301169050919050565b60008160601b9050919050565b7f596f7520646f6e2774206861766520656e6f756768206d656d6265727320696e60008201527f2074686973206c656167756520746f207365742061207363686564756c652e00602082015250565b6123e2816120f7565b81146123ed57600080fd5b50565b6123f981612109565b811461240457600080fd5b50565b61241081612113565b811461241b57600080fd5b50565b61242781612125565b811461243257600080fd5b50565b61243e8161212f565b811461244957600080fd5b50565b61245581612139565b811461246057600080fd5b50565b61246c81612143565b811461247757600080fd5b50565b6124838161216d565b811461248e57600080fd5b5056fea2646970667358221220fb60a6c96b1c0c3539334650384154abfe4f8c63975aa2ddd5ad8f2af8f0a19064736f6c63430008070033",
  "linkReferences": {},
  "deployedLinkReferences": {}
}