{
  "_format": "hh-sol-artifact-1",
  "contractName": "MOBALogicLibrary",
  "sourceName": "contracts/MOBALogicLibrary.sol",
  "abi": [
    {
      "anonymous": false,
      "inputs": [
        {
          "indexed": false,
          "internalType": "address",
          "name": "winner",
          "type": "address"
        },
        {
          "indexed": false,
          "internalType": "address",
          "name": "loser",
          "type": "address"
        }
      ],
      "name": "MatchResult",
      "type": "event"
    },
    {
      "inputs": [
        {
          "components": [
            {
              "internalType": "uint256",
              "name": "kills",
              "type": "uint256"
            },
            {
              "internalType": "uint256",
              "name": "deaths",
              "type": "uint256"
            },
            {
              "internalType": "uint256",
              "name": "assists",
              "type": "uint256"
            },
            {
              "internalType": "uint256",
              "name": "minionScore",
              "type": "uint256"
            }
          ],
          "internalType": "struct LeagueOfLegendsLogic.Stats",
          "name": "athleteStats",
          "type": "tuple"
        }
      ],
      "name": "calculateScoreOnChain",
      "outputs": [
        {
          "internalType": "uint256",
          "name": "",
          "type": "uint256"
        }
      ],
      "stateMutability": "pure",
      "type": "function"
    }
  ],
  "bytecode": "0x6119aa610053600b82828239805160001a607314610046577f4e487b7100000000000000000000000000000000000000000000000000000000600052600060045260246000fd5b30600052607381538281f3fe73000000000000000000000000000000000000000030146080604052600436106100565760003560e01c8063396952911461005b57806346a42a1b1461008b578063cc9b40cc146100b6578063d2c232b5146100df575b600080fd5b6100756004803603810190610070919061129a565b610108565b6040516100829190611476565b60405180910390f35b81801561009757600080fd5b506100a06101e2565b6040516100ad9190611419565b60405180910390f35b8180156100c257600080fd5b506100dd60048036038101906100d891906111a3565b6101e7565b005b8180156100eb57600080fd5b5061010660048036038101906101019190611212565b6104dd565b005b6000806000905060648360000135600261012291906115ab565b61012c91906115ab565b816101379190611524565b90506064836020013561014a91906115ab565b816101559190611605565b90506064836040013561016891906115ab565b816101739190611524565b905060326064846060013561018891906115ab565b610192919061157a565b8161019d9190611524565b9050600a8360000135106101bc576101f4816101b99190611524565b90505b600a8360400135106101d9576101f4816101d69190611524565b90505b80915050919050565b600090565b60006101f1610f26565b60005b855181101561040b578285600088848151811061021457610213611818565b5b602002602001015173ffffffffffffffffffffffffffffffffffffffff1673ffffffffffffffffffffffffffffffffffffffff1681526020019081526020016000205411156103735784600087838151811061027357610272611818565b5b602002602001015173ffffffffffffffffffffffffffffffffffffffff1673ffffffffffffffffffffffffffffffffffffffff16815260200190815260200160002054925060005b818110156102fa5760008382600881106102d8576102d7611818565b5b60200201901515908115158152505080806102f290611712565b9150506102bb565b5060018282600881106103105761030f611818565b5b602002019015159081151581525050600060018261032e9190611524565b90505b865181101561037157600083826008811061034f5761034e611818565b5b602002019015159081151581525050808061036990611712565b915050610331565b505b8285600088848151811061038a57610389611818565b5b602002602001015173ffffffffffffffffffffffffffffffffffffffff1673ffffffffffffffffffffffffffffffffffffffff1681526020019081526020016000205414156103f85760018282600881106103e8576103e7611818565b5b6020020190151590811515815250505b808061040390611712565b9150506101f4565b506000805b60088110156104d45782816008811061042c5761042b611818565b5b6020020151156104c1578487828151811061044a57610449611818565b5b60200260200101519080600181540180825580915050600190039060005260206000200160009091909190916101000a81548173ffffffffffffffffffffffffffffffffffffffff021916908373ffffffffffffffffffffffffffffffffffffffff16021790555081806104bd90611712565b9250505b80806104cc90611712565b915050610410565b50505050505050565b6000848054905011610524576040517f08c379a000000000000000000000000000000000000000000000000000000000815260040161051b90611456565b60405180910390fd5b6105626040518060400160405280601b81526020017f73657474696e67207363686564756c6520696e206c6962726172790000000000815250610d32565b60008480549050858054905061057891906115ab565b42334486866040516020016105919594939291906113b2565b6040516020818303038152906040528051906020012060001c6105b49190611524565b90506105be610f49565b6105c6610f49565b60005b86811015610d275761060f6040518060400160405280600181526020017f0a00000000000000000000000000000000000000000000000000000000000000815250610d32565b61061881610dcb565b6106566040518060400160405280601881526020017f2a2a2a2a2a2a2a2a2a2a2a2a2a2a2a2a2a2a2a2a2a2a2a2a0000000000000000815250610d32565b60008060028a8054905061066a9190611789565b1461068857600189805490506106809190611524565b905080610691565b88805490509050805b506000836000600481106106a8576106a7611818565b5b602002015190506000856000600481106106c5576106c4611818565b5b6020020151905060005b6002846106dc919061157a565b81101561082b5760008514156107865780876002866106fb919061157a565b8a846107079190611524565b6107119190611789565b6004811061072257610721611818565b5b602002018181525050600284610738919061157a565b816107439190611524565b86600286610751919061157a565b8a8461075d9190611524565b6107679190611789565b6004811061077857610777611818565b5b602002018181525050610818565b600087826004811061079b5761079a611818565b5b60200201519050808783600481106107b6576107b5611818565b5b602002018181525050866002866107cd919061157a565b6001846107da9190611524565b6107e49190611789565b600481106107f5576107f4611818565b5b602002015188836004811061080d5761080c611818565b5b602002018181525050505b808061082390611712565b9150506106cf565b50600084146108be5781866001600286610845919061157a565b61084f9190611605565b600481106108605761085f611818565b5b6020020181815250508560006004811061087d5761087c611818565b5b60200201518560006004811061089657610895611818565b5b60200201818152505080866000600481106108b4576108b3611818565b5b6020020181815250505b60005b6002846108ce919061157a565b811015610d10576108dd610f6b565b8c805490508783600481106108f5576108f4611818565b5b6020020151106109c85760405180604001604052808e8a856004811061091e5761091d611818565b5b60200201518154811061093457610933611818565b5b9060005260206000200160009054906101000a900473ffffffffffffffffffffffffffffffffffffffff1673ffffffffffffffffffffffffffffffffffffffff1673ffffffffffffffffffffffffffffffffffffffff168152602001600073ffffffffffffffffffffffffffffffffffffffff1673ffffffffffffffffffffffffffffffffffffffff168152509050610bcc565b8c805490508883600481106109e0576109df611818565b5b602002015110610ab3576040518060400160405280600073ffffffffffffffffffffffffffffffffffffffff1673ffffffffffffffffffffffffffffffffffffffff1681526020018e898560048110610a3c57610a3b611818565b5b602002015181548110610a5257610a51611818565b5b9060005260206000200160009054906101000a900473ffffffffffffffffffffffffffffffffffffffff1673ffffffffffffffffffffffffffffffffffffffff1673ffffffffffffffffffffffffffffffffffffffff168152509050610bcb565b60405180604001604052808e8a8560048110610ad257610ad1611818565b5b602002015181548110610ae857610ae7611818565b5b9060005260206000200160009054906101000a900473ffffffffffffffffffffffffffffffffffffffff1673ffffffffffffffffffffffffffffffffffffffff1673ffffffffffffffffffffffffffffffffffffffff1681526020018e898560048110610b5857610b57611818565b5b602002015181548110610b6e57610b6d611818565b5b9060005260206000200160009054906101000a900473ffffffffffffffffffffffffffffffffffffffff1673ffffffffffffffffffffffffffffffffffffffff1673ffffffffffffffffffffffffffffffffffffffff1681525090505b5b600060405180602001604052808381525090508e6000888152602001908152602001600020819080600181540180825580915050600190039060005260206000209060020201600090919091909150600082015181600001906002610c32929190610f8d565b505050610c5a8160000151600060028110610c5057610c4f611818565b5b6020020151610e64565b610c986040518060400160405280600481526020017f2076732000000000000000000000000000000000000000000000000000000000815250610d32565b610cbd8160000151600160028110610cb357610cb2611818565b5b6020020151610e64565b610cfb6040518060400160405280600181526020017f0a00000000000000000000000000000000000000000000000000000000000000815250610d32565b50508080610d0890611712565b9150506108c1565b505050508080610d1f90611712565b9150506105c9565b505050505050505050565b610dc881604051602401610d469190611434565b6040516020818303038152906040527f41304fac000000000000000000000000000000000000000000000000000000007bffffffffffffffffffffffffffffffffffffffffffffffffffffffff19166020820180517bffffffffffffffffffffffffffffffffffffffffffffffffffffffff8381831617835250505050610efd565b50565b610e6181604051602401610ddf9190611491565b6040516020818303038152906040527ff5b1bba9000000000000000000000000000000000000000000000000000000007bffffffffffffffffffffffffffffffffffffffffffffffffffffffff19166020820180517bffffffffffffffffffffffffffffffffffffffffffffffffffffffff8381831617835250505050610efd565b50565b610efa81604051602401610e7891906113fe565b6040516020818303038152906040527f2c2ecbc2000000000000000000000000000000000000000000000000000000007bffffffffffffffffffffffffffffffffffffffffffffffffffffffff19166020820180517bffffffffffffffffffffffffffffffffffffffffffffffffffffffff8381831617835250505050610efd565b50565b60008151905060006a636f6e736f6c652e6c6f679050602083016000808483855afa5050505050565b604051806101000160405280600890602082028036833780820191505090505090565b6040518060800160405280600490602082028036833780820191505090505090565b6040518060400160405280600290602082028036833780820191505090505090565b8260028101928215610ff9579160200282015b82811115610ff85782518260006101000a81548173ffffffffffffffffffffffffffffffffffffffff021916908373ffffffffffffffffffffffffffffffffffffffff16021790555091602001919060010190610fa0565b5b509050611006919061100a565b5090565b5b8082111561102357600081600090555060010161100b565b5090565b600061103a611035846114d1565b6114ac565b9050808382526020820190508285602086028201111561105d5761105c611885565b5b60005b8581101561108d57816110738882611097565b845260208401935060208301925050600181019050611060565b5050509392505050565b6000813590506110a681611901565b92915050565b600082601f8301126110c1576110c061187b565b5b81356110d1848260208601611027565b91505092915050565b6000813590506110e981611918565b92915050565b6000813590506110fe8161192f565b92915050565b60008135905061111381611946565b92915050565b60008083601f84011261112f5761112e61187b565b5b8235905067ffffffffffffffff81111561114c5761114b611876565b5b60208301915083600182028301111561116857611167611885565b5b9250929050565b60006080828403121561118557611184611880565b5b81905092915050565b60008135905061119d8161195d565b92915050565b6000806000606084860312156111bc576111bb61188f565b5b600084013567ffffffffffffffff8111156111da576111d961188a565b5b6111e6868287016110ac565b93505060206111f7868287016110ef565b9250506040611208868287016110da565b9150509250925092565b60008060008060006080868803121561122e5761122d61188f565b5b600061123c88828901611104565b955050602061124d888289016110da565b945050604061125e8882890161118e565b935050606086013567ffffffffffffffff81111561127f5761127e61188a565b5b61128b88828901611119565b92509250509295509295909350565b6000608082840312156112b0576112af61188f565b5b60006112be8482850161116f565b91505092915050565b6112d081611639565b82525050565b6112e76112e282611639565b61175b565b82525050565b6112f681611655565b82525050565b60006113088385611519565b935061131583858461169f565b82840190509392505050565b600061132c826114fd565b6113368185611508565b93506113468185602086016116ae565b61134f81611894565b840191505092915050565b6000611367603f83611508565b9150611372826118b2565b604082019050919050565b61138681611695565b82525050565b61139581611695565b82525050565b6113ac6113a782611695565b61177f565b82525050565b60006113be828861139b565b6020820191506113ce82876112d6565b6014820191506113de828661139b565b6020820191506113ef8284866112fc565b91508190509695505050505050565b600060208201905061141360008301846112c7565b92915050565b600060208201905061142e60008301846112ed565b92915050565b6000602082019050818103600083015261144e8184611321565b905092915050565b6000602082019050818103600083015261146f8161135a565b9050919050565b600060208201905061148b600083018461138c565b92915050565b60006020820190506114a6600083018461137d565b92915050565b60006114b66114c7565b90506114c282826116e1565b919050565b6000604051905090565b600067ffffffffffffffff8211156114ec576114eb611847565b5b602082029050602081019050919050565b600081519050919050565b600082825260208201905092915050565b600081905092915050565b600061152f82611695565b915061153a83611695565b9250827fffffffffffffffffffffffffffffffffffffffffffffffffffffffffffffffff0382111561156f5761156e6117ba565b5b828201905092915050565b600061158582611695565b915061159083611695565b9250826115a05761159f6117e9565b5b828204905092915050565b60006115b682611695565b91506115c183611695565b9250817fffffffffffffffffffffffffffffffffffffffffffffffffffffffffffffffff04831182151516156115fa576115f96117ba565b5b828202905092915050565b600061161082611695565b915061161b83611695565b92508282101561162e5761162d6117ba565b5b828203905092915050565b600061164482611675565b9050919050565b6000819050919050565b60008115159050919050565b6000819050919050565b6000819050919050565b600073ffffffffffffffffffffffffffffffffffffffff82169050919050565b6000819050919050565b82818337600083830152505050565b60005b838110156116cc5780820151818401526020810190506116b1565b838111156116db576000848401525b50505050565b6116ea82611894565b810181811067ffffffffffffffff8211171561170957611708611847565b5b80604052505050565b600061171d82611695565b91507fffffffffffffffffffffffffffffffffffffffffffffffffffffffffffffffff8214156117505761174f6117ba565b5b600182019050919050565b60006117668261176d565b9050919050565b6000611778826118a5565b9050919050565b6000819050919050565b600061179482611695565b915061179f83611695565b9250826117af576117ae6117e9565b5b828206905092915050565b7f4e487b7100000000000000000000000000000000000000000000000000000000600052601160045260246000fd5b7f4e487b7100000000000000000000000000000000000000000000000000000000600052601260045260246000fd5b7f4e487b7100000000000000000000000000000000000000000000000000000000600052603260045260246000fd5b7f4e487b7100000000000000000000000000000000000000000000000000000000600052604160045260246000fd5b600080fd5b600080fd5b600080fd5b600080fd5b600080fd5b600080fd5b6000601f19601f8301169050919050565b60008160601b9050919050565b7f596f7520646f6e2774206861766520656e6f756768206d656d6265727320696e60008201527f2074686973206c656167756520746f207365742061207363686564756c652e00602082015250565b61190a81611639565b811461191557600080fd5b50565b6119218161164b565b811461192c57600080fd5b50565b61193881611661565b811461194357600080fd5b50565b61194f8161166b565b811461195a57600080fd5b50565b61196681611695565b811461197157600080fd5b5056fea264697066735822122038b0d584271cb03a775edd5e7a27a46a39b394ee469a1d9bc066278b6b3aa51c64736f6c63430008070033",
  "linkReferences": {},
  "deployedLinkReferences": {}
}