{
  "_format": "hh-sol-artifact-1",
  "contractName": "LeagueMakerLibrary",
  "sourceName": "contracts/LeagueMakerLibrary.sol",
  "abi": [
    {
      "inputs": [
        {
          "internalType": "address[]",
          "name": "leagueAddresses",
          "type": "address[]"
        },
        {
          "internalType": "uint256",
          "name": "currentWeek",
          "type": "uint256"
        }
      ],
      "name": "evaluateWeekForAllLeagues",
      "outputs": [],
      "stateMutability": "nonpayable",
      "type": "function"
    },
    {
      "inputs": [
        {
          "internalType": "address[]",
          "name": "leagueAddresses",
          "type": "address[]"
        }
      ],
      "name": "lockLeagueLineups",
      "outputs": [],
      "stateMutability": "nonpayable",
      "type": "function"
    },
    {
      "inputs": [
        {
          "internalType": "address[]",
          "name": "leagueAddresses",
          "type": "address[]"
        }
      ],
      "name": "lockLeagueMembership",
      "outputs": [],
      "stateMutability": "nonpayable",
      "type": "function"
    },
    {
      "inputs": [
        {
          "internalType": "address[]",
          "name": "leagueAddresses",
          "type": "address[]"
        }
      ],
      "name": "setLeagueSchedules",
      "outputs": [],
      "stateMutability": "nonpayable",
      "type": "function"
    },
    {
      "inputs": [
        {
          "internalType": "address[]",
          "name": "leagueAddresses",
          "type": "address[]"
        }
      ],
      "name": "unlockLeagueLineups",
      "outputs": [],
      "stateMutability": "nonpayable",
      "type": "function"
    }
  ],
  "bytecode": "0x608060405234801561001057600080fd5b50610d91806100206000396000f3fe608060405234801561001057600080fd5b50600436106100575760003560e01c806309cc1ab11461005c5780632e34055f14610078578063502a17b314610094578063b7599aac146100b0578063f3de3790146100cc575b600080fd5b61007660048036038101906100719190610967565b6100e8565b005b610092600480360381019061008d9190610967565b610264565b005b6100ae60048036038101906100a991906109b0565b610399565b005b6100ca60048036038101906100c59190610967565b6104da565b005b6100e660048036038101906100e19190610967565b61060f565b005b6000606060005b835181101561025e5783818151811061010b5761010a610caa565b5b602002602001015173ffffffffffffffffffffffffffffffffffffffff166040516024016040516020818303038152906040527f0655465a000000000000000000000000000000000000000000000000000000007bffffffffffffffffffffffffffffffffffffffffffffffffffffffff19166020820180517bffffffffffffffffffffffffffffffffffffffffffffffffffffffff83818316178352505050506040516101b99190610a94565b6000604051808303816000865af19150503d80600081146101f6576040519150601f19603f3d011682016040523d82523d6000602084013e6101fb565b606091505b5080935081945050506102426040518060400160405280600881526020017f7375636365733a20000000000000000000000000000000000000000000000000815250610744565b61024b836107dd565b808061025690610c32565b9150506100ef565b50505050565b6000606060005b83518110156103935783818151811061028757610286610caa565b5b602002602001015173ffffffffffffffffffffffffffffffffffffffff166040516024016040516020818303038152906040527fa2bc091a000000000000000000000000000000000000000000000000000000007bffffffffffffffffffffffffffffffffffffffffffffffffffffffff19166020820180517bffffffffffffffffffffffffffffffffffffffffffffffffffffffff83818316178352505050506040516103359190610a94565b6000604051808303816000865af19150503d8060008114610372576040519150601f19603f3d011682016040523d82523d6000602084013e610377565b606091505b508093508194505050808061038b90610c32565b91505061026b565b50505050565b6000606060005b84518110156104d3578481815181106103bc576103bb610caa565b5b602002602001015173ffffffffffffffffffffffffffffffffffffffff16846040516024016103eb9190610ae8565b6040516020818303038152906040527fa3e52e0e000000000000000000000000000000000000000000000000000000007bffffffffffffffffffffffffffffffffffffffffffffffffffffffff19166020820180517bffffffffffffffffffffffffffffffffffffffffffffffffffffffff83818316178352505050506040516104759190610a94565b6000604051808303816000865af19150503d80600081146104b2576040519150601f19603f3d011682016040523d82523d6000602084013e6104b7565b606091505b50809350819450505080806104cb90610c32565b9150506103a0565b5050505050565b6000606060005b8351811015610609578381815181106104fd576104fc610caa565b5b602002602001015173ffffffffffffffffffffffffffffffffffffffff166040516024016040516020818303038152906040527fc8be3b5b000000000000000000000000000000000000000000000000000000007bffffffffffffffffffffffffffffffffffffffffffffffffffffffff19166020820180517bffffffffffffffffffffffffffffffffffffffffffffffffffffffff83818316178352505050506040516105ab9190610a94565b6000604051808303816000865af19150503d80600081146105e8576040519150601f19603f3d011682016040523d82523d6000602084013e6105ed565b606091505b508093508194505050808061060190610c32565b9150506104e1565b50505050565b6000606060005b835181101561073e5783818151811061063257610631610caa565b5b602002602001015173ffffffffffffffffffffffffffffffffffffffff166040516024016040516020818303038152906040527fe4c9066b000000000000000000000000000000000000000000000000000000007bffffffffffffffffffffffffffffffffffffffffffffffffffffffff19166020820180517bffffffffffffffffffffffffffffffffffffffffffffffffffffffff83818316178352505050506040516106e09190610a94565b6000604051808303816000865af19150503d806000811461071d576040519150601f19603f3d011682016040523d82523d6000602084013e610722565b606091505b508093508194505050808061073690610c32565b915050610616565b50505050565b6107da816040516024016107589190610ac6565b6040516020818303038152906040527f41304fac000000000000000000000000000000000000000000000000000000007bffffffffffffffffffffffffffffffffffffffffffffffffffffffff19166020820180517bffffffffffffffffffffffffffffffffffffffffffffffffffffffff8381831617835250505050610876565b50565b610873816040516024016107f19190610aab565b6040516020818303038152906040527f32458eed000000000000000000000000000000000000000000000000000000007bffffffffffffffffffffffffffffffffffffffffffffffffffffffff19166020820180517bffffffffffffffffffffffffffffffffffffffffffffffffffffffff8381831617835250505050610876565b50565b60008151905060006a636f6e736f6c652e6c6f679050602083016000808483855afa5050505050565b60006108b26108ad84610b28565b610b03565b905080838252602082019050828560208602820111156108d5576108d4610d0d565b5b60005b8581101561090557816108eb888261090f565b8452602084019350602083019250506001810190506108d8565b5050509392505050565b60008135905061091e81610d2d565b92915050565b600082601f83011261093957610938610d08565b5b813561094984826020860161089f565b91505092915050565b60008135905061096181610d44565b92915050565b60006020828403121561097d5761097c610d17565b5b600082013567ffffffffffffffff81111561099b5761099a610d12565b5b6109a784828501610924565b91505092915050565b600080604083850312156109c7576109c6610d17565b5b600083013567ffffffffffffffff8111156109e5576109e4610d12565b5b6109f185828601610924565b9250506020610a0285828601610952565b9150509250929050565b610a1581610b98565b82525050565b6000610a2682610b54565b610a308185610b6a565b9350610a40818560208601610bce565b80840191505092915050565b6000610a5782610b5f565b610a618185610b75565b9350610a71818560208601610bce565b610a7a81610d1c565b840191505092915050565b610a8e81610bc4565b82525050565b6000610aa08284610a1b565b915081905092915050565b6000602082019050610ac06000830184610a0c565b92915050565b60006020820190508181036000830152610ae08184610a4c565b905092915050565b6000602082019050610afd6000830184610a85565b92915050565b6000610b0d610b1e565b9050610b198282610c01565b919050565b6000604051905090565b600067ffffffffffffffff821115610b4357610b42610cd9565b5b602082029050602081019050919050565b600081519050919050565b600081519050919050565b600081905092915050565b600082825260208201905092915050565b6000610b9182610ba4565b9050919050565b60008115159050919050565b600073ffffffffffffffffffffffffffffffffffffffff82169050919050565b6000819050919050565b60005b83811015610bec578082015181840152602081019050610bd1565b83811115610bfb576000848401525b50505050565b610c0a82610d1c565b810181811067ffffffffffffffff82111715610c2957610c28610cd9565b5b80604052505050565b6000610c3d82610bc4565b91507fffffffffffffffffffffffffffffffffffffffffffffffffffffffffffffffff821415610c7057610c6f610c7b565b5b600182019050919050565b7f4e487b7100000000000000000000000000000000000000000000000000000000600052601160045260246000fd5b7f4e487b7100000000000000000000000000000000000000000000000000000000600052603260045260246000fd5b7f4e487b7100000000000000000000000000000000000000000000000000000000600052604160045260246000fd5b600080fd5b600080fd5b600080fd5b600080fd5b6000601f19601f8301169050919050565b610d3681610b86565b8114610d4157600080fd5b50565b610d4d81610bc4565b8114610d5857600080fd5b5056fea26469706673582212206256937d21c187e4b7fd6d5085049d132ed25b3e3950ebb15bd75ea2d5dbfa0064736f6c63430008070033",
  "linkReferences": {},
  "deployedLinkReferences": {}
}