{
  "_format": "hh-sol-artifact-1",
  "contractName": "LeagueMakerLibrary",
  "sourceName": "contracts/LeagueMakerLibrary.sol",
  "abi": [
    {
      "inputs": [
        {
          "internalType": "address[]",
          "name": "leagueAddresses",
          "type": "address[]"
        },
        {
          "internalType": "uint256",
          "name": "currentWeek",
          "type": "uint256"
        }
      ],
      "name": "evaluateWeekForAllLeagues",
      "outputs": [],
      "stateMutability": "nonpayable",
      "type": "function"
    },
    {
      "inputs": [
        {
          "internalType": "address[]",
          "name": "leagueAddresses",
          "type": "address[]"
        }
      ],
      "name": "lockLeagueLineups",
      "outputs": [],
      "stateMutability": "nonpayable",
      "type": "function"
    },
    {
      "inputs": [
        {
          "internalType": "address[]",
          "name": "leagueAddresses",
          "type": "address[]"
        }
      ],
      "name": "lockLeagueMembership",
      "outputs": [],
      "stateMutability": "nonpayable",
      "type": "function"
    },
    {
      "inputs": [
        {
          "internalType": "address[]",
          "name": "leagueAddresses",
          "type": "address[]"
        }
      ],
      "name": "setLeagueSchedules",
      "outputs": [],
      "stateMutability": "nonpayable",
      "type": "function"
    },
    {
      "inputs": [
        {
          "internalType": "address[]",
          "name": "leagueAddresses",
          "type": "address[]"
        }
      ],
      "name": "test",
      "outputs": [],
      "stateMutability": "nonpayable",
      "type": "function"
    },
    {
      "inputs": [
        {
          "internalType": "address[]",
          "name": "leagueAddresses",
          "type": "address[]"
        }
      ],
      "name": "unlockLeagueLineups",
      "outputs": [],
      "stateMutability": "nonpayable",
      "type": "function"
    }
  ],
  "bytecode": "0x608060405234801561001057600080fd5b50610f33806100206000396000f3fe608060405234801561001057600080fd5b50600436106100625760003560e01c806309cc1ab1146100675780632e34055f14610083578063502a17b31461009f578063b7599aac146100bb578063d57498ea146100d7578063f3de3790146100f3575b600080fd5b610081600480360381019061007c9190610ae4565b61010f565b005b61009d60048036038101906100989190610ae4565b61028b565b005b6100b960048036038101906100b49190610b2d565b6103c0565b005b6100d560048036038101906100d09190610ae4565b610501565b005b6100f160048036038101906100ec9190610ae4565b610636565b005b61010d60048036038101906101089190610ae4565b61078c565b005b6000606060005b83518110156102855783818151811061013257610131610e27565b5b602002602001015173ffffffffffffffffffffffffffffffffffffffff166040516024016040516020818303038152906040527f0655465a000000000000000000000000000000000000000000000000000000007bffffffffffffffffffffffffffffffffffffffffffffffffffffffff19166020820180517bffffffffffffffffffffffffffffffffffffffffffffffffffffffff83818316178352505050506040516101e09190610c11565b6000604051808303816000865af19150503d806000811461021d576040519150601f19603f3d011682016040523d82523d6000602084013e610222565b606091505b5080935081945050506102696040518060400160405280600881526020017f7375636365733a200000000000000000000000000000000000000000000000008152506108c1565b6102728361095a565b808061027d90610daf565b915050610116565b50505050565b6000606060005b83518110156103ba578381815181106102ae576102ad610e27565b5b602002602001015173ffffffffffffffffffffffffffffffffffffffff166040516024016040516020818303038152906040527fa2bc091a000000000000000000000000000000000000000000000000000000007bffffffffffffffffffffffffffffffffffffffffffffffffffffffff19166020820180517bffffffffffffffffffffffffffffffffffffffffffffffffffffffff838183161783525050505060405161035c9190610c11565b6000604051808303816000865af19150503d8060008114610399576040519150601f19603f3d011682016040523d82523d6000602084013e61039e565b606091505b50809350819450505080806103b290610daf565b915050610292565b50505050565b6000606060005b84518110156104fa578481815181106103e3576103e2610e27565b5b602002602001015173ffffffffffffffffffffffffffffffffffffffff16846040516024016104129190610c65565b6040516020818303038152906040527fa3e52e0e000000000000000000000000000000000000000000000000000000007bffffffffffffffffffffffffffffffffffffffffffffffffffffffff19166020820180517bffffffffffffffffffffffffffffffffffffffffffffffffffffffff838183161783525050505060405161049c9190610c11565b6000604051808303816000865af19150503d80600081146104d9576040519150601f19603f3d011682016040523d82523d6000602084013e6104de565b606091505b50809350819450505080806104f290610daf565b9150506103c7565b5050505050565b6000606060005b83518110156106305783818151811061052457610523610e27565b5b602002602001015173ffffffffffffffffffffffffffffffffffffffff166040516024016040516020818303038152906040527fc8be3b5b000000000000000000000000000000000000000000000000000000007bffffffffffffffffffffffffffffffffffffffffffffffffffffffff19166020820180517bffffffffffffffffffffffffffffffffffffffffffffffffffffffff83818316178352505050506040516105d29190610c11565b6000604051808303816000865af19150503d806000811461060f576040519150601f19603f3d011682016040523d82523d6000602084013e610614565b606091505b508093508194505050808061062890610daf565b915050610508565b50505050565b610657604051806060016040528060258152602001610ed9602591396108c1565b6000606060005b83518110156107865783818151811061067a57610679610e27565b5b602002602001015173ffffffffffffffffffffffffffffffffffffffff166040516024016040516020818303038152906040527f0edb2db7000000000000000000000000000000000000000000000000000000007bffffffffffffffffffffffffffffffffffffffffffffffffffffffff19166020820180517bffffffffffffffffffffffffffffffffffffffffffffffffffffffff83818316178352505050506040516107289190610c11565b6000604051808303816000865af19150503d8060008114610765576040519150601f19603f3d011682016040523d82523d6000602084013e61076a565b606091505b508093508194505050808061077e90610daf565b91505061065e565b50505050565b6000606060005b83518110156108bb578381815181106107af576107ae610e27565b5b602002602001015173ffffffffffffffffffffffffffffffffffffffff166040516024016040516020818303038152906040527fe4c9066b000000000000000000000000000000000000000000000000000000007bffffffffffffffffffffffffffffffffffffffffffffffffffffffff19166020820180517bffffffffffffffffffffffffffffffffffffffffffffffffffffffff838183161783525050505060405161085d9190610c11565b6000604051808303816000865af19150503d806000811461089a576040519150601f19603f3d011682016040523d82523d6000602084013e61089f565b606091505b50809350819450505080806108b390610daf565b915050610793565b50505050565b610957816040516024016108d59190610c43565b6040516020818303038152906040527f41304fac000000000000000000000000000000000000000000000000000000007bffffffffffffffffffffffffffffffffffffffffffffffffffffffff19166020820180517bffffffffffffffffffffffffffffffffffffffffffffffffffffffff83818316178352505050506109f3565b50565b6109f08160405160240161096e9190610c28565b6040516020818303038152906040527f32458eed000000000000000000000000000000000000000000000000000000007bffffffffffffffffffffffffffffffffffffffffffffffffffffffff19166020820180517bffffffffffffffffffffffffffffffffffffffffffffffffffffffff83818316178352505050506109f3565b50565b60008151905060006a636f6e736f6c652e6c6f679050602083016000808483855afa5050505050565b6000610a2f610a2a84610ca5565b610c80565b90508083825260208201905082856020860282011115610a5257610a51610e8a565b5b60005b85811015610a825781610a688882610a8c565b845260208401935060208301925050600181019050610a55565b5050509392505050565b600081359050610a9b81610eaa565b92915050565b600082601f830112610ab657610ab5610e85565b5b8135610ac6848260208601610a1c565b91505092915050565b600081359050610ade81610ec1565b92915050565b600060208284031215610afa57610af9610e94565b5b600082013567ffffffffffffffff811115610b1857610b17610e8f565b5b610b2484828501610aa1565b91505092915050565b60008060408385031215610b4457610b43610e94565b5b600083013567ffffffffffffffff811115610b6257610b61610e8f565b5b610b6e85828601610aa1565b9250506020610b7f85828601610acf565b9150509250929050565b610b9281610d15565b82525050565b6000610ba382610cd1565b610bad8185610ce7565b9350610bbd818560208601610d4b565b80840191505092915050565b6000610bd482610cdc565b610bde8185610cf2565b9350610bee818560208601610d4b565b610bf781610e99565b840191505092915050565b610c0b81610d41565b82525050565b6000610c1d8284610b98565b915081905092915050565b6000602082019050610c3d6000830184610b89565b92915050565b60006020820190508181036000830152610c5d8184610bc9565b905092915050565b6000602082019050610c7a6000830184610c02565b92915050565b6000610c8a610c9b565b9050610c968282610d7e565b919050565b6000604051905090565b600067ffffffffffffffff821115610cc057610cbf610e56565b5b602082029050602081019050919050565b600081519050919050565b600081519050919050565b600081905092915050565b600082825260208201905092915050565b6000610d0e82610d21565b9050919050565b60008115159050919050565b600073ffffffffffffffffffffffffffffffffffffffff82169050919050565b6000819050919050565b60005b83811015610d69578082015181840152602081019050610d4e565b83811115610d78576000848401525b50505050565b610d8782610e99565b810181811067ffffffffffffffff82111715610da657610da5610e56565b5b80604052505050565b6000610dba82610d41565b91507fffffffffffffffffffffffffffffffffffffffffffffffffffffffffffffffff821415610ded57610dec610df8565b5b600182019050919050565b7f4e487b7100000000000000000000000000000000000000000000000000000000600052601160045260246000fd5b7f4e487b7100000000000000000000000000000000000000000000000000000000600052603260045260246000fd5b7f4e487b7100000000000000000000000000000000000000000000000000000000600052604160045260246000fd5b600080fd5b600080fd5b600080fd5b600080fd5b6000601f19601f8301169050919050565b610eb381610d03565b8114610ebe57600080fd5b50565b610eca81610d41565b8114610ed557600080fd5b5056fe494e204c4541475545204d414b4552204c49425241525920544553542046554e4354494f4ea264697066735822122091885a052317ec953cab02dc7bd1f00cf8548ea05897ac9c9ad1a783dd89e6e364736f6c63430008070033",
  "linkReferences": {},
  "deployedLinkReferences": {}
}