{
  "_format": "hh-sol-artifact-1",
  "contractName": "LeagueMakerLibrary",
  "sourceName": "contracts/LeagueMakerLibrary.sol",
  "abi": [
    {
      "inputs": [
        {
          "internalType": "address[]",
          "name": "leagueAddresses",
          "type": "address[]"
        },
        {
          "internalType": "uint256",
          "name": "currentWeek",
          "type": "uint256"
        }
      ],
      "name": "evaluateWeekForAllLeagues",
      "outputs": [],
      "stateMutability": "nonpayable",
      "type": "function"
    },
    {
      "inputs": [
        {
          "internalType": "address[]",
          "name": "leagueAddresses",
          "type": "address[]"
        }
      ],
      "name": "lockLeagueLineups",
      "outputs": [],
      "stateMutability": "nonpayable",
      "type": "function"
    },
    {
      "inputs": [
        {
          "internalType": "address[]",
          "name": "leagueAddresses",
          "type": "address[]"
        }
      ],
      "name": "lockLeagueMembership",
      "outputs": [],
      "stateMutability": "nonpayable",
      "type": "function"
    },
    {
      "inputs": [
        {
          "internalType": "address[]",
          "name": "leagueAddresses",
          "type": "address[]"
        }
      ],
      "name": "setLeagueSchedules",
      "outputs": [],
      "stateMutability": "nonpayable",
      "type": "function"
    },
    {
      "inputs": [
        {
          "internalType": "address[]",
          "name": "leagueAddresses",
          "type": "address[]"
        }
      ],
      "name": "unlockLeagueLineups",
      "outputs": [],
      "stateMutability": "nonpayable",
      "type": "function"
    }
  ],
  "bytecode": "0x608060405234801561001057600080fd5b50610dde806100206000396000f3fe608060405234801561001057600080fd5b50600436106100575760003560e01c806309cc1ab11461005c5780632e34055f14610078578063502a17b314610094578063b7599aac146100b0578063f3de3790146100cc575b600080fd5b61007660048036038101906100719190610988565b6100e8565b005b610092600480360381019061008d9190610988565b610264565b005b6100ae60048036038101906100a991906109d1565b610399565b005b6100ca60048036038101906100c59190610988565b6104da565b005b6100e660048036038101906100e19190610988565b610630565b005b6000606060005b835181101561025e5783818151811061010b5761010a610ccb565b5b602002602001015173ffffffffffffffffffffffffffffffffffffffff166040516024016040516020818303038152906040527f0655465a000000000000000000000000000000000000000000000000000000007bffffffffffffffffffffffffffffffffffffffffffffffffffffffff19166020820180517bffffffffffffffffffffffffffffffffffffffffffffffffffffffff83818316178352505050506040516101b99190610ab5565b6000604051808303816000865af19150503d80600081146101f6576040519150601f19603f3d011682016040523d82523d6000602084013e6101fb565b606091505b5080935081945050506102426040518060400160405280600881526020017f7375636365733a20000000000000000000000000000000000000000000000000815250610765565b61024b836107fe565b808061025690610c53565b9150506100ef565b50505050565b6000606060005b83518110156103935783818151811061028757610286610ccb565b5b602002602001015173ffffffffffffffffffffffffffffffffffffffff166040516024016040516020818303038152906040527fa2bc091a000000000000000000000000000000000000000000000000000000007bffffffffffffffffffffffffffffffffffffffffffffffffffffffff19166020820180517bffffffffffffffffffffffffffffffffffffffffffffffffffffffff83818316178352505050506040516103359190610ab5565b6000604051808303816000865af19150503d8060008114610372576040519150601f19603f3d011682016040523d82523d6000602084013e610377565b606091505b508093508194505050808061038b90610c53565b91505061026b565b50505050565b6000606060005b84518110156104d3578481815181106103bc576103bb610ccb565b5b602002602001015173ffffffffffffffffffffffffffffffffffffffff16846040516024016103eb9190610b09565b6040516020818303038152906040527fa3e52e0e000000000000000000000000000000000000000000000000000000007bffffffffffffffffffffffffffffffffffffffffffffffffffffffff19166020820180517bffffffffffffffffffffffffffffffffffffffffffffffffffffffff83818316178352505050506040516104759190610ab5565b6000604051808303816000865af19150503d80600081146104b2576040519150601f19603f3d011682016040523d82523d6000602084013e6104b7565b606091505b50809350819450505080806104cb90610c53565b9150506103a0565b5050505050565b6104fb6040518060600160405280602c8152602001610d7d602c9139610765565b6000606060005b835181101561062a5783818151811061051e5761051d610ccb565b5b602002602001015173ffffffffffffffffffffffffffffffffffffffff166040516024016040516020818303038152906040527fc8be3b5b000000000000000000000000000000000000000000000000000000007bffffffffffffffffffffffffffffffffffffffffffffffffffffffff19166020820180517bffffffffffffffffffffffffffffffffffffffffffffffffffffffff83818316178352505050506040516105cc9190610ab5565b6000604051808303816000865af19150503d8060008114610609576040519150601f19603f3d011682016040523d82523d6000602084013e61060e565b606091505b508093508194505050808061062290610c53565b915050610502565b50505050565b6000606060005b835181101561075f5783818151811061065357610652610ccb565b5b602002602001015173ffffffffffffffffffffffffffffffffffffffff166040516024016040516020818303038152906040527fe4c9066b000000000000000000000000000000000000000000000000000000007bffffffffffffffffffffffffffffffffffffffffffffffffffffffff19166020820180517bffffffffffffffffffffffffffffffffffffffffffffffffffffffff83818316178352505050506040516107019190610ab5565b6000604051808303816000865af19150503d806000811461073e576040519150601f19603f3d011682016040523d82523d6000602084013e610743565b606091505b508093508194505050808061075790610c53565b915050610637565b50505050565b6107fb816040516024016107799190610ae7565b6040516020818303038152906040527f41304fac000000000000000000000000000000000000000000000000000000007bffffffffffffffffffffffffffffffffffffffffffffffffffffffff19166020820180517bffffffffffffffffffffffffffffffffffffffffffffffffffffffff8381831617835250505050610897565b50565b610894816040516024016108129190610acc565b6040516020818303038152906040527f32458eed000000000000000000000000000000000000000000000000000000007bffffffffffffffffffffffffffffffffffffffffffffffffffffffff19166020820180517bffffffffffffffffffffffffffffffffffffffffffffffffffffffff8381831617835250505050610897565b50565b60008151905060006a636f6e736f6c652e6c6f679050602083016000808483855afa5050505050565b60006108d36108ce84610b49565b610b24565b905080838252602082019050828560208602820111156108f6576108f5610d2e565b5b60005b85811015610926578161090c8882610930565b8452602084019350602083019250506001810190506108f9565b5050509392505050565b60008135905061093f81610d4e565b92915050565b600082601f83011261095a57610959610d29565b5b813561096a8482602086016108c0565b91505092915050565b60008135905061098281610d65565b92915050565b60006020828403121561099e5761099d610d38565b5b600082013567ffffffffffffffff8111156109bc576109bb610d33565b5b6109c884828501610945565b91505092915050565b600080604083850312156109e8576109e7610d38565b5b600083013567ffffffffffffffff811115610a0657610a05610d33565b5b610a1285828601610945565b9250506020610a2385828601610973565b9150509250929050565b610a3681610bb9565b82525050565b6000610a4782610b75565b610a518185610b8b565b9350610a61818560208601610bef565b80840191505092915050565b6000610a7882610b80565b610a828185610b96565b9350610a92818560208601610bef565b610a9b81610d3d565b840191505092915050565b610aaf81610be5565b82525050565b6000610ac18284610a3c565b915081905092915050565b6000602082019050610ae16000830184610a2d565b92915050565b60006020820190508181036000830152610b018184610a6d565b905092915050565b6000602082019050610b1e6000830184610aa6565b92915050565b6000610b2e610b3f565b9050610b3a8282610c22565b919050565b6000604051905090565b600067ffffffffffffffff821115610b6457610b63610cfa565b5b602082029050602081019050919050565b600081519050919050565b600081519050919050565b600081905092915050565b600082825260208201905092915050565b6000610bb282610bc5565b9050919050565b60008115159050919050565b600073ffffffffffffffffffffffffffffffffffffffff82169050919050565b6000819050919050565b60005b83811015610c0d578082015181840152602081019050610bf2565b83811115610c1c576000848401525b50505050565b610c2b82610d3d565b810181811067ffffffffffffffff82111715610c4a57610c49610cfa565b5b80604052505050565b6000610c5e82610be5565b91507fffffffffffffffffffffffffffffffffffffffffffffffffffffffffffffffff821415610c9157610c90610c9c565b5b600182019050919050565b7f4e487b7100000000000000000000000000000000000000000000000000000000600052601160045260246000fd5b7f4e487b7100000000000000000000000000000000000000000000000000000000600052603260045260246000fd5b7f4e487b7100000000000000000000000000000000000000000000000000000000600052604160045260246000fd5b600080fd5b600080fd5b600080fd5b600080fd5b6000601f19601f8301169050919050565b610d5781610ba7565b8114610d6257600080fd5b50565b610d6e81610be5565b8114610d7957600080fd5b5056fe4c6f636b696e67206c6561677565206c696e6575707320696e204c65616775654d616b65724c696272617279a2646970667358221220b887e9530331e8b2da2b1413fd9e5c7802f7b923dc547f8c806cb2ac6dc7b0e364736f6c63430008070033",
  "linkReferences": {},
  "deployedLinkReferences": {}
}