{
  "_format": "hh-sol-artifact-1",
  "contractName": "GameItems",
  "sourceName": "contracts/GameItems.sol",
  "abi": [
    {
      "inputs": [
        {
          "components": [
            {
              "internalType": "uint256",
              "name": "_numAthletes",
              "type": "uint256"
            },
            {
              "internalType": "uint256",
              "name": "_nftPerAthlete",
              "type": "uint256"
            },
            {
              "internalType": "uint256",
              "name": "_starterPackSize",
              "type": "uint256"
            },
            {
              "internalType": "uint256",
              "name": "_boosterPackSize",
              "type": "uint256"
            },
            {
              "internalType": "uint256",
              "name": "_maxStarterPackBalance",
              "type": "uint256"
            },
            {
              "internalType": "uint256",
              "name": "_maxBoosterPackBalance",
              "type": "uint256"
            },
            {
              "internalType": "uint256",
              "name": "_maxPacks",
              "type": "uint256"
            },
            {
              "internalType": "uint256",
              "name": "_maxBoosterPacks",
              "type": "uint256"
            }
          ],
          "internalType": "struct GameItems.Parameters",
          "name": "params",
          "type": "tuple"
        },
        {
          "internalType": "string",
          "name": "_athleteURI",
          "type": "string"
        },
        {
          "internalType": "string",
          "name": "_starterPackURI",
          "type": "string"
        },
        {
          "internalType": "string",
          "name": "_boosterPackURI",
          "type": "string"
        }
      ],
      "stateMutability": "nonpayable",
      "type": "constructor"
    },
    {
      "anonymous": false,
      "inputs": [
        {
          "indexed": true,
          "internalType": "address",
          "name": "account",
          "type": "address"
        },
        {
          "indexed": true,
          "internalType": "address",
          "name": "operator",
          "type": "address"
        },
        {
          "indexed": false,
          "internalType": "bool",
          "name": "approved",
          "type": "bool"
        }
      ],
      "name": "ApprovalForAll",
      "type": "event"
    },
    {
      "anonymous": false,
      "inputs": [
        {
          "indexed": true,
          "internalType": "address",
          "name": "previousOwner",
          "type": "address"
        },
        {
          "indexed": true,
          "internalType": "address",
          "name": "newOwner",
          "type": "address"
        }
      ],
      "name": "OwnershipTransferred",
      "type": "event"
    },
    {
      "anonymous": false,
      "inputs": [
        {
          "indexed": true,
          "internalType": "address",
          "name": "operator",
          "type": "address"
        },
        {
          "indexed": true,
          "internalType": "address",
          "name": "from",
          "type": "address"
        },
        {
          "indexed": true,
          "internalType": "address",
          "name": "to",
          "type": "address"
        },
        {
          "indexed": false,
          "internalType": "uint256[]",
          "name": "ids",
          "type": "uint256[]"
        },
        {
          "indexed": false,
          "internalType": "uint256[]",
          "name": "values",
          "type": "uint256[]"
        }
      ],
      "name": "TransferBatch",
      "type": "event"
    },
    {
      "anonymous": false,
      "inputs": [
        {
          "indexed": true,
          "internalType": "address",
          "name": "operator",
          "type": "address"
        },
        {
          "indexed": true,
          "internalType": "address",
          "name": "from",
          "type": "address"
        },
        {
          "indexed": true,
          "internalType": "address",
          "name": "to",
          "type": "address"
        },
        {
          "indexed": false,
          "internalType": "uint256",
          "name": "id",
          "type": "uint256"
        },
        {
          "indexed": false,
          "internalType": "uint256",
          "name": "value",
          "type": "uint256"
        }
      ],
      "name": "TransferSingle",
      "type": "event"
    },
    {
      "anonymous": false,
      "inputs": [
        {
          "indexed": false,
          "internalType": "string",
          "name": "value",
          "type": "string"
        },
        {
          "indexed": true,
          "internalType": "uint256",
          "name": "id",
          "type": "uint256"
        }
      ],
      "name": "URI",
      "type": "event"
    },
    {
      "anonymous": false,
      "inputs": [
        {
          "indexed": false,
          "internalType": "uint256[3]",
          "name": "",
          "type": "uint256[3]"
        },
        {
          "indexed": false,
          "internalType": "address",
          "name": "signer",
          "type": "address"
        }
      ],
      "name": "boosterPackBurned",
      "type": "event"
    },
    {
      "anonymous": false,
      "inputs": [
        {
          "indexed": false,
          "internalType": "address",
          "name": "signer",
          "type": "address"
        },
        {
          "indexed": false,
          "internalType": "uint256",
          "name": "id",
          "type": "uint256"
        }
      ],
      "name": "boosterPackMinted",
      "type": "event"
    },
    {
      "anonymous": false,
      "inputs": [
        {
          "indexed": false,
          "internalType": "uint256[5]",
          "name": "",
          "type": "uint256[5]"
        },
        {
          "indexed": false,
          "internalType": "address",
          "name": "signer",
          "type": "address"
        }
      ],
      "name": "starterPackBurned",
      "type": "event"
    },
    {
      "anonymous": false,
      "inputs": [
        {
          "indexed": false,
          "internalType": "address",
          "name": "signer",
          "type": "address"
        },
        {
          "indexed": false,
          "internalType": "uint256",
          "name": "id",
          "type": "uint256"
        }
      ],
      "name": "starterPackMinted",
      "type": "event"
    },
    {
      "inputs": [
        {
          "internalType": "address",
          "name": "_userToAdd",
          "type": "address"
        }
      ],
      "name": "addUserToWhitelist",
      "outputs": [
        {
          "internalType": "bool",
          "name": "success",
          "type": "bool"
        }
      ],
      "stateMutability": "nonpayable",
      "type": "function"
    },
    {
      "inputs": [
        {
          "internalType": "address[]",
          "name": "addrs",
          "type": "address[]"
        }
      ],
      "name": "addUsersToWhitelist",
      "outputs": [
        {
          "internalType": "bool",
          "name": "success",
          "type": "bool"
        }
      ],
      "stateMutability": "nonpayable",
      "type": "function"
    },
    {
      "inputs": [],
      "name": "allowBoosterPacks",
      "outputs": [],
      "stateMutability": "nonpayable",
      "type": "function"
    },
    {
      "inputs": [],
      "name": "allowStarterPacks",
      "outputs": [],
      "stateMutability": "nonpayable",
      "type": "function"
    },
    {
      "inputs": [
        {
          "internalType": "address",
          "name": "account",
          "type": "address"
        },
        {
          "internalType": "uint256",
          "name": "id",
          "type": "uint256"
        }
      ],
      "name": "balanceOf",
      "outputs": [
        {
          "internalType": "uint256",
          "name": "",
          "type": "uint256"
        }
      ],
      "stateMutability": "view",
      "type": "function"
    },
    {
      "inputs": [
        {
          "internalType": "address[]",
          "name": "accounts",
          "type": "address[]"
        },
        {
          "internalType": "uint256[]",
          "name": "ids",
          "type": "uint256[]"
        }
      ],
      "name": "balanceOfBatch",
      "outputs": [
        {
          "internalType": "uint256[]",
          "name": "",
          "type": "uint256[]"
        }
      ],
      "stateMutability": "view",
      "type": "function"
    },
    {
      "inputs": [],
      "name": "boosterPacksMinted",
      "outputs": [
        {
          "internalType": "uint256",
          "name": "",
          "type": "uint256"
        }
      ],
      "stateMutability": "view",
      "type": "function"
    },
    {
      "inputs": [],
      "name": "boosterPacksReadyToOpen",
      "outputs": [
        {
          "internalType": "bool",
          "name": "",
          "type": "bool"
        }
      ],
      "stateMutability": "view",
      "type": "function"
    },
    {
      "inputs": [],
      "name": "burnBoosterPack",
      "outputs": [],
      "stateMutability": "nonpayable",
      "type": "function"
    },
    {
      "inputs": [],
      "name": "burnStarterPack",
      "outputs": [],
      "stateMutability": "nonpayable",
      "type": "function"
    },
    {
      "inputs": [],
      "name": "getNumWhitelisted",
      "outputs": [
        {
          "internalType": "uint256",
          "name": "",
          "type": "uint256"
        }
      ],
      "stateMutability": "view",
      "type": "function"
    },
    {
      "inputs": [
        {
          "internalType": "address",
          "name": "account",
          "type": "address"
        },
        {
          "internalType": "address",
          "name": "operator",
          "type": "address"
        }
      ],
      "name": "isApprovedForAll",
      "outputs": [
        {
          "internalType": "bool",
          "name": "",
          "type": "bool"
        }
      ],
      "stateMutability": "view",
      "type": "function"
    },
    {
      "inputs": [],
      "name": "mintBoosterPack",
      "outputs": [],
      "stateMutability": "nonpayable",
      "type": "function"
    },
    {
      "inputs": [],
      "name": "mintStarterPack",
      "outputs": [],
      "stateMutability": "nonpayable",
      "type": "function"
    },
    {
      "inputs": [],
      "name": "name",
      "outputs": [
        {
          "internalType": "string",
          "name": "",
          "type": "string"
        }
      ],
      "stateMutability": "view",
      "type": "function"
    },
    {
      "inputs": [],
      "name": "numWhitelisted",
      "outputs": [
        {
          "internalType": "uint256",
          "name": "",
          "type": "uint256"
        }
      ],
      "stateMutability": "view",
      "type": "function"
    },
    {
      "inputs": [],
      "name": "openBoosterPackSale",
      "outputs": [],
      "stateMutability": "nonpayable",
      "type": "function"
    },
    {
      "inputs": [],
      "name": "openPrivateSale",
      "outputs": [],
      "stateMutability": "nonpayable",
      "type": "function"
    },
    {
      "inputs": [],
      "name": "openPublicSale",
      "outputs": [],
      "stateMutability": "nonpayable",
      "type": "function"
    },
    {
      "inputs": [],
      "name": "owner",
      "outputs": [
        {
          "internalType": "address",
          "name": "",
          "type": "address"
        }
      ],
      "stateMutability": "view",
      "type": "function"
    },
    {
      "inputs": [],
      "name": "packsAvailable",
      "outputs": [
        {
          "internalType": "uint256",
          "name": "",
          "type": "uint256"
        }
      ],
      "stateMutability": "view",
      "type": "function"
    },
    {
      "inputs": [],
      "name": "packsReadyToOpen",
      "outputs": [
        {
          "internalType": "bool",
          "name": "",
          "type": "bool"
        }
      ],
      "stateMutability": "view",
      "type": "function"
    },
    {
      "inputs": [],
      "name": "renounceOwnership",
      "outputs": [],
      "stateMutability": "nonpayable",
      "type": "function"
    },
    {
      "inputs": [
        {
          "internalType": "address",
          "name": "from",
          "type": "address"
        },
        {
          "internalType": "address",
          "name": "to",
          "type": "address"
        },
        {
          "internalType": "uint256[]",
          "name": "ids",
          "type": "uint256[]"
        },
        {
          "internalType": "uint256[]",
          "name": "amounts",
          "type": "uint256[]"
        },
        {
          "internalType": "bytes",
          "name": "data",
          "type": "bytes"
        }
      ],
      "name": "safeBatchTransferFrom",
      "outputs": [],
      "stateMutability": "nonpayable",
      "type": "function"
    },
    {
      "inputs": [
        {
          "internalType": "address",
          "name": "from",
          "type": "address"
        },
        {
          "internalType": "address",
          "name": "to",
          "type": "address"
        },
        {
          "internalType": "uint256",
          "name": "id",
          "type": "uint256"
        },
        {
          "internalType": "uint256",
          "name": "amount",
          "type": "uint256"
        },
        {
          "internalType": "bytes",
          "name": "data",
          "type": "bytes"
        }
      ],
      "name": "safeTransferFrom",
      "outputs": [],
      "stateMutability": "nonpayable",
      "type": "function"
    },
    {
      "inputs": [
        {
          "internalType": "address",
          "name": "operator",
          "type": "address"
        },
        {
          "internalType": "bool",
          "name": "approved",
          "type": "bool"
        }
      ],
      "name": "setApprovalForAll",
      "outputs": [],
      "stateMutability": "nonpayable",
      "type": "function"
    },
    {
      "inputs": [],
      "name": "setStartingIndex",
      "outputs": [],
      "stateMutability": "nonpayable",
      "type": "function"
    },
    {
      "inputs": [
        {
          "internalType": "uint256",
          "name": "tokenId",
          "type": "uint256"
        },
        {
          "internalType": "string",
          "name": "uri",
          "type": "string"
        }
      ],
      "name": "setTokenUri",
      "outputs": [],
      "stateMutability": "nonpayable",
      "type": "function"
    },
    {
      "inputs": [],
      "name": "setURIs",
      "outputs": [],
      "stateMutability": "nonpayable",
      "type": "function"
    },
    {
      "inputs": [],
      "name": "starterPacksMinted",
      "outputs": [
        {
          "internalType": "uint256",
          "name": "",
          "type": "uint256"
        }
      ],
      "stateMutability": "view",
      "type": "function"
    },
    {
      "inputs": [
        {
          "internalType": "bytes4",
          "name": "interfaceId",
          "type": "bytes4"
        }
      ],
      "name": "supportsInterface",
      "outputs": [
        {
          "internalType": "bool",
          "name": "",
          "type": "bool"
        }
      ],
      "stateMutability": "view",
      "type": "function"
    },
    {
      "inputs": [
        {
          "internalType": "address",
          "name": "newOwner",
          "type": "address"
        }
      ],
      "name": "transferOwnership",
      "outputs": [],
      "stateMutability": "nonpayable",
      "type": "function"
    },
    {
      "inputs": [
        {
          "internalType": "uint256",
          "name": "tokenId",
          "type": "uint256"
        }
      ],
      "name": "uri",
      "outputs": [
        {
          "internalType": "string",
          "name": "",
          "type": "string"
        }
      ],
      "stateMutability": "view",
      "type": "function"
    },
    {
      "inputs": [
        {
          "internalType": "address",
          "name": "",
          "type": "address"
        }
      ],
      "name": "userToHasBurnedStarterPack",
      "outputs": [
        {
          "internalType": "bool",
          "name": "",
          "type": "bool"
        }
      ],
      "stateMutability": "view",
      "type": "function"
    },
    {
      "inputs": [
        {
          "internalType": "address",
          "name": "",
          "type": "address"
        }
      ],
      "name": "userToHasMintedStarterPack",
      "outputs": [
        {
          "internalType": "bool",
          "name": "",
          "type": "bool"
        }
      ],
      "stateMutability": "view",
      "type": "function"
    },
    {
      "inputs": [
        {
          "internalType": "address",
          "name": "",
          "type": "address"
        }
      ],
      "name": "usersBoosterPacksMinted",
      "outputs": [
        {
          "internalType": "uint256",
          "name": "",
          "type": "uint256"
        }
      ],
      "stateMutability": "view",
      "type": "function"
    },
    {
      "inputs": [
        {
          "internalType": "address",
          "name": "",
          "type": "address"
        }
      ],
      "name": "whitelist",
      "outputs": [
        {
          "internalType": "bool",
          "name": "",
          "type": "bool"
        }
      ],
      "stateMutability": "view",
      "type": "function"
    }
  ],
  "bytecode": "0x60806040526040518060400160405280600881526020017f5465616d44696666000000000000000000000000000000000000000000000000815250600f908051906020019062000051929190620002b5565b50604051806020016040528060008152506016908051906020019062000079929190620002b5565b503480156200008757600080fd5b5060405162005f7838038062005f788339818101604052810190620000ad9190620004d9565b6040518060400160405280600281526020017f5444000000000000000000000000000000000000000000000000000000000000815250620000f481620001cb60201b60201c565b506200011562000109620001e760201b60201c565b620001ef60201b60201c565b8360000151600d819055508360200151600e819055508360400151600781905550836060015160088190555083608001516009819055508360a00151600a819055508360c00151600b819055508360e00151600c81905550826004908051906020019062000185929190620002b5565b5081600590805190602001906200019e929190620002b5565b508060069080519060200190620001b7929190620002b5565b50600b54601f819055505050505062000759565b8060029080519060200190620001e3929190620002b5565b5050565b600033905090565b6000600360009054906101000a900473ffffffffffffffffffffffffffffffffffffffff16905081600360006101000a81548173ffffffffffffffffffffffffffffffffffffffff021916908373ffffffffffffffffffffffffffffffffffffffff1602179055508173ffffffffffffffffffffffffffffffffffffffff168173ffffffffffffffffffffffffffffffffffffffff167f8be0079c531659141344cd1fd0a4f28419497f9722a3daafe3b4186f6b6457e060405160405180910390a35050565b828054620002c3906200064b565b90600052602060002090601f016020900481019282620002e7576000855562000333565b82601f106200030257805160ff191683800117855562000333565b8280016001018555821562000333579182015b828111156200033257825182559160200191906001019062000315565b5b50905062000342919062000346565b5090565b5b808211156200036157600081600090555060010162000347565b5090565b60006200037c6200037684620005d5565b620005ac565b9050828152602081018484840111156200039b576200039a6200071f565b5b620003a884828562000615565b509392505050565b600082601f830112620003c857620003c762000715565b5b8151620003da84826020860162000365565b91505092915050565b60006101008284031215620003fd57620003fc6200071a565b5b6200040a610100620005ac565b905060006200041c84828501620004c2565b60008301525060206200043284828501620004c2565b60208301525060406200044884828501620004c2565b60408301525060606200045e84828501620004c2565b60608301525060806200047484828501620004c2565b60808301525060a06200048a84828501620004c2565b60a08301525060c0620004a084828501620004c2565b60c08301525060e0620004b684828501620004c2565b60e08301525092915050565b600081519050620004d3816200073f565b92915050565b6000806000806101608587031215620004f757620004f662000729565b5b60006200050787828801620003e3565b94505061010085015167ffffffffffffffff8111156200052c576200052b62000724565b5b6200053a87828801620003b0565b93505061012085015167ffffffffffffffff8111156200055f576200055e62000724565b5b6200056d87828801620003b0565b92505061014085015167ffffffffffffffff81111562000592576200059162000724565b5b620005a087828801620003b0565b91505092959194509250565b6000620005b8620005cb565b9050620005c6828262000681565b919050565b6000604051905090565b600067ffffffffffffffff821115620005f357620005f2620006e6565b5b620005fe826200072e565b9050602081019050919050565b6000819050919050565b60005b838110156200063557808201518184015260208101905062000618565b8381111562000645576000848401525b50505050565b600060028204905060018216806200066457607f821691505b602082108114156200067b576200067a620006b7565b5b50919050565b6200068c826200072e565b810181811067ffffffffffffffff82111715620006ae57620006ad620006e6565b5b80604052505050565b7f4e487b7100000000000000000000000000000000000000000000000000000000600052602260045260246000fd5b7f4e487b7100000000000000000000000000000000000000000000000000000000600052604160045260246000fd5b600080fd5b600080fd5b600080fd5b600080fd5b600080fd5b6000601f19601f8301169050919050565b6200074a816200060b565b81146200075657600080fd5b50565b61580f80620007696000396000f3fe608060405234801561001057600080fd5b50600436106102265760003560e01c80639b19251a11610130578063bbb13e17116100b8578063e2bd21bc1161007c578063e2bd21bc146105ab578063e985e9c5146105db578063e98665501461060b578063f242432a14610615578063f2fde38b1461063157610226565b8063bbb13e171461052b578063be59ec2614610535578063c54ec09614610553578063cb6bfdb91461055d578063d759000b1461058d57610226565b8063a788f4f4116100ff578063a788f4f4146104ab578063ac4c07d4146104c9578063afb8fd2d146104f9578063b1d8bb9c14610503578063b585209b1461052157610226565b80639b19251a1461044b5780639ebf488b1461047b578063a22cb46514610485578063a6ad4c01146104a157610226565b80634f3551d7116101b35780635d2db2bf116101825780635d2db2bf146103df578063715018a6146103e9578063747b8050146103f357806375223f92146104235780638da5cb5b1461042d57610226565b80634f3551d71461036b57806354dacb961461037557806357f7789e146103935780635ae698ff146103af57610226565b80632eb2c2d6116101fa5780632eb2c2d6146102d95780633526715d146102f55780634190a9221461031357806344eaa84e1461031d5780634e1273f41461033b57610226565b8062fdd58e1461022b57806301ffc9a71461025b57806306fdde031461028b5780630e89341c146102a9575b600080fd5b61024560048036038101906102409190613988565b61064d565b6040516102529190614869565b60405180910390f35b61027560048036038101906102709190613a89565b610716565b604051610282919061448c565b60405180910390f35b6102936107f8565b6040516102a091906144a7565b60405180910390f35b6102c360048036038101906102be9190613ae3565b610886565b6040516102d091906144a7565b60405180910390f35b6102f360048036038101906102ee91906137e2565b61092b565b005b6102fd6109cc565b60405161030a9190614869565b60405180910390f35b61031b6109d2565b005b610325610a6b565b6040516103329190614869565b60405180910390f35b61035560048036038101906103509190613a11565b610a75565b6040516103629190614433565b60405180910390f35b610373610b8e565b005b61037d610d81565b60405161038a9190614869565b60405180910390f35b6103ad60048036038101906103a89190613b10565b610d87565b005b6103c960048036038101906103c491906139c8565b610e91565b6040516103d6919061448c565b60405180910390f35b6103e7610f61565b005b6103f16110b8565b005b61040d60048036038101906104089190613775565b611140565b60405161041a919061448c565b60405180910390f35b61042b61128b565b005b6104356113d4565b60405161044291906142db565b60405180910390f35b61046560048036038101906104609190613775565b6113fe565b604051610472919061448c565b60405180910390f35b61048361141d565b005b61049f600480360381019061049a9190613948565b611724565b005b6104a961173a565b005b6104b36117d3565b6040516104c0919061448c565b60405180910390f35b6104e360048036038101906104de9190613775565b6117e6565b6040516104f09190614869565b60405180910390f35b6105016117fe565b005b61050b611897565b6040516105189190614869565b60405180910390f35b61052961189d565b005b610533611936565b005b61053d611b58565b60405161054a919061448c565b60405180910390f35b61055b611b6b565b005b61057760048036038101906105729190613775565b611c04565b604051610584919061448c565b60405180910390f35b610595611c24565b6040516105a29190614869565b60405180910390f35b6105c560048036038101906105c09190613775565b611c2a565b6040516105d2919061448c565b60405180910390f35b6105f560048036038101906105f091906137a2565b611c4a565b604051610602919061448c565b60405180910390f35b610613611cde565b005b61062f600480360381019061062a91906138b1565b611db5565b005b61064b60048036038101906106469190613775565b611e56565b005b60008073ffffffffffffffffffffffffffffffffffffffff168373ffffffffffffffffffffffffffffffffffffffff1614156106be576040517f08c379a00000000000000000000000000000000000000000000000000000000081526004016106b590614529565b60405180910390fd5b60008083815260200190815260200160002060008473ffffffffffffffffffffffffffffffffffffffff1673ffffffffffffffffffffffffffffffffffffffff16815260200190815260200160002054905092915050565b60007fd9b67a26000000000000000000000000000000000000000000000000000000007bffffffffffffffffffffffffffffffffffffffffffffffffffffffff1916827bffffffffffffffffffffffffffffffffffffffffffffffffffffffff191614806107e157507f0e89341c000000000000000000000000000000000000000000000000000000007bffffffffffffffffffffffffffffffffffffffffffffffffffffffff1916827bffffffffffffffffffffffffffffffffffffffffffffffffffffffff1916145b806107f157506107f082611f4e565b5b9050919050565b600f805461080590614c4f565b80601f016020809104026020016040519081016040528092919081815260200182805461083190614c4f565b801561087e5780601f106108535761010080835404028352916020019161087e565b820191906000526020600020905b81548152906001019060200180831161086157829003601f168201915b505050505081565b60606023600083815260200190815260200160002080546108a690614c4f565b80601f01602080910402602001604051908101604052809291908181526020018280546108d290614c4f565b801561091f5780601f106108f45761010080835404028352916020019161091f565b820191906000526020600020905b81548152906001019060200180831161090257829003601f168201915b50505050509050919050565b610933611fb8565b73ffffffffffffffffffffffffffffffffffffffff168573ffffffffffffffffffffffffffffffffffffffff161480610979575061097885610973611fb8565b611c4a565b5b6109b8576040517f08c379a00000000000000000000000000000000000000000000000000000000081526004016109af90614649565b60405180910390fd5b6109c58585858585611fc0565b5050505050565b60115481565b6109da611fb8565b73ffffffffffffffffffffffffffffffffffffffff166109f86113d4565b73ffffffffffffffffffffffffffffffffffffffff1614610a4e576040517f08c379a0000000000000000000000000000000000000000000000000000000008152600401610a4590614709565b60405180910390fd5b6001601060016101000a81548160ff021916908315150217905550565b6000602154905090565b60608151835114610abb576040517f08c379a0000000000000000000000000000000000000000000000000000000008152600401610ab2906147e9565b60405180910390fd5b6000835167ffffffffffffffff811115610ad857610ad7614e40565b5b604051908082528060200260200182016040528015610b065781602001602082028036833780820191505090505b50905060005b8451811015610b8357610b53858281518110610b2b57610b2a614e11565b5b6020026020010151858381518110610b4657610b45614e11565b5b602002602001015161064d565b828281518110610b6657610b65614e11565b5b60200260200101818152505080610b7c90614cb2565b9050610b0c565b508091505092915050565b602260029054906101000a900460ff16610bdd576040517f08c379a0000000000000000000000000000000000000000000000000000000008152600401610bd490614689565b60405180910390fd5b600c5460125410610c23576040517f08c379a0000000000000000000000000000000000000000000000000000000008152600401610c1a906145e9565b60405180910390fd5b6002602760003373ffffffffffffffffffffffffffffffffffffffff1673ffffffffffffffffffffffffffffffffffffffff1681526020019081526020016000205410610ca5576040517f08c379a0000000000000000000000000000000000000000000000000000000008152600401610c9c90614769565b60405180910390fd5b602760003373ffffffffffffffffffffffffffffffffffffffff1673ffffffffffffffffffffffffffffffffffffffff1681526020019081526020016000206000815480929190610cf590614cb2565b919050555060006001600d54610d0b9190614a77565b9050610d2933826001604051806020016040528060008152506122d4565b600160126000828254610d3c9190614a77565b925050819055507f291f5163bddacea6a9c07f03b441256f0b5584e25fb060dbc4350552d4e9b52433601254604051610d769291906143b8565b60405180910390a150565b60215481565b610d8f611fb8565b73ffffffffffffffffffffffffffffffffffffffff16610dad6113d4565b73ffffffffffffffffffffffffffffffffffffffff1614610e03576040517f08c379a0000000000000000000000000000000000000000000000000000000008152600401610dfa90614709565b60405180910390fd5b6000602360008481526020019081526020016000208054610e2390614c4f565b905014610e65576040517f08c379a0000000000000000000000000000000000000000000000000000000008152600401610e5c90614669565b60405180910390fd5b80602360008481526020019081526020016000209080519060200190610e8c929190613409565b505050565b6000610e9b611fb8565b73ffffffffffffffffffffffffffffffffffffffff16610eb96113d4565b73ffffffffffffffffffffffffffffffffffffffff1614610f0f576040517f08c379a0000000000000000000000000000000000000000000000000000000008152600401610f0690614709565b60405180910390fd5b60005b8251811015610f5b57610f3e838281518110610f3157610f30614e11565b5b6020026020010151611140565b15610f4857600191505b8080610f5390614cb2565b915050610f12565b50919050565b610f69611fb8565b73ffffffffffffffffffffffffffffffffffffffff16610f876113d4565b73ffffffffffffffffffffffffffffffffffffffff1614610fdd576040517f08c379a0000000000000000000000000000000000000000000000000000000008152600401610fd490614709565b60405180910390fd5b60005b600d54811015611051576000600d5482601554610ffd9190614a77565b6110079190614d53565b905061103d8160046110188461246a565b60405160200161102992919061424d565b604051602081830303815290604052610d87565b50808061104990614cb2565b915050610fe0565b5061107e600d54600560405160200161106a9190614236565b604051602081830303815290604052610d87565b6110b66001600d546110909190614a77565b60066040516020016110a29190614236565b604051602081830303815290604052610d87565b565b6110c0611fb8565b73ffffffffffffffffffffffffffffffffffffffff166110de6113d4565b73ffffffffffffffffffffffffffffffffffffffff1614611134576040517f08c379a000000000000000000000000000000000000000000000000000000000815260040161112b90614709565b60405180910390fd5b61113e60006125cb565b565b600061114a611fb8565b73ffffffffffffffffffffffffffffffffffffffff166111686113d4565b73ffffffffffffffffffffffffffffffffffffffff16146111be576040517f08c379a00000000000000000000000000000000000000000000000000000000081526004016111b590614709565b60405180910390fd5b602060008373ffffffffffffffffffffffffffffffffffffffff1673ffffffffffffffffffffffffffffffffffffffff16815260200190815260200160002060009054906101000a900460ff16611286576001602060008473ffffffffffffffffffffffffffffffffffffffff1673ffffffffffffffffffffffffffffffffffffffff16815260200190815260200160002060006101000a81548160ff02191690831515021790555060016021600082825461127a9190614a77565b92505081905550600190505b919050565b60006001600d5461129c9190614a77565b9050601060019054906101000a900460ff166112ed576040517f08c379a00000000000000000000000000000000000000000000000000000000081526004016112e490614609565b60405180910390fd5b60006112f9338361064d565b11611339576040517f08c379a000000000000000000000000000000000000000000000000000000000815260040161133090614509565b60405180910390fd5b6000611343612691565b905060005b60038160ff16101561138a57611377828260ff166003811061136d5761136c614e11565b5b60200201516127a5565b808061138290614cfb565b915050611348565b50611397338360016128a0565b7fbcb32b44239ac671808c82d921ce5fe68940a520f60a18bba7a850aa2df5e0f581336040516113c89291906143e1565b60405180910390a15050565b6000600360009054906101000a900473ffffffffffffffffffffffffffffffffffffffff16905090565b602080528060005260406000206000915054906101000a900460ff1681565b602260009054906101000a900460ff16806114445750602260019054906101000a900460ff165b611483576040517f08c379a000000000000000000000000000000000000000000000000000000000815260040161147a90614829565b60405180910390fd5b602260009054906101000a900460ff1680156114ac5750602260019054906101000a900460ff16155b1561153e57602060003373ffffffffffffffffffffffffffffffffffffffff1673ffffffffffffffffffffffffffffffffffffffff16815260200190815260200160002060009054906101000a900460ff1661153d576040517f08c379a0000000000000000000000000000000000000000000000000000000008152600401611534906145a9565b60405180910390fd5b5b600b5460115410611584576040517f08c379a000000000000000000000000000000000000000000000000000000000815260040161157b90614749565b60405180910390fd5b602660003373ffffffffffffffffffffffffffffffffffffffff1673ffffffffffffffffffffffffffffffffffffffff16815260200190815260200160002060009054906101000a900460ff1615611611576040517f08c379a0000000000000000000000000000000000000000000000000000000008152600401611608906147a9565b60405180910390fd5b6001602660003373ffffffffffffffffffffffffffffffffffffffff1673ffffffffffffffffffffffffffffffffffffffff16815260200190815260200160002060006101000a81548160ff0219169083151502179055506000600d5490506116b2338260016040518060400160405280600481526020017f30783030000000000000000000000000000000000000000000000000000000008152506122d4565b6001601160008282546116c59190614a77565b925050819055506001601f60008282546116df9190614b58565b925050819055507f860d172ac100c8812174aed296380fd0f991c9eb7e662a43998a370526fd9bfe336011546040516117199291906143b8565b60405180910390a150565b61173661172f611fb8565b8383612abd565b5050565b611742611fb8565b73ffffffffffffffffffffffffffffffffffffffff166117606113d4565b73ffffffffffffffffffffffffffffffffffffffff16146117b6576040517f08c379a00000000000000000000000000000000000000000000000000000000081526004016117ad90614709565b60405180910390fd5b6001602260006101000a81548160ff021916908315150217905550565b601060019054906101000a900460ff1681565b60276020528060005260406000206000915090505481565b611806611fb8565b73ffffffffffffffffffffffffffffffffffffffff166118246113d4565b73ffffffffffffffffffffffffffffffffffffffff161461187a576040517f08c379a000000000000000000000000000000000000000000000000000000000815260040161187190614709565b60405180910390fd5b6001602260026101000a81548160ff021916908315150217905550565b60125481565b6118a5611fb8565b73ffffffffffffffffffffffffffffffffffffffff166118c36113d4565b73ffffffffffffffffffffffffffffffffffffffff1614611919576040517f08c379a000000000000000000000000000000000000000000000000000000000815260040161191090614709565b60405180910390fd5b6001602260016101000a81548160ff021916908315150217905550565b6000600d549050602560003373ffffffffffffffffffffffffffffffffffffffff1673ffffffffffffffffffffffffffffffffffffffff16815260200190815260200160002060009054906101000a900460ff16156119ca576040517f08c379a00000000000000000000000000000000000000000000000000000000081526004016119c1906146e9565b60405180910390fd5b601060009054906101000a900460ff16611a19576040517f08c379a0000000000000000000000000000000000000000000000000000000008152600401611a1090614789565b60405180910390fd5b6000611a25338361064d565b11611a65576040517f08c379a0000000000000000000000000000000000000000000000000000000008152600401611a5c90614729565b60405180910390fd5b6001602560003373ffffffffffffffffffffffffffffffffffffffff1673ffffffffffffffffffffffffffffffffffffffff16815260200190815260200160002060006101000a81548160ff0219169083151502179055506000611ac7612c2a565b905060005b60058160ff161015611b0e57611afb828260ff1660058110611af157611af0614e11565b5b60200201516127a5565b8080611b0690614cfb565b915050611acc565b50611b1b338360016128a0565b7ff701dcbe064b8772e0f5c01bc8f97456e13e83bd1dcfefd7ee6bddfc366b6caa8133604051611b4c92919061440a565b60405180910390a15050565b601060009054906101000a900460ff1681565b611b73611fb8565b73ffffffffffffffffffffffffffffffffffffffff16611b916113d4565b73ffffffffffffffffffffffffffffffffffffffff1614611be7576040517f08c379a0000000000000000000000000000000000000000000000000000000008152600401611bde90614709565b60405180910390fd5b6001601060006101000a81548160ff021916908315150217905550565b60266020528060005260406000206000915054906101000a900460ff1681565b601f5481565b60256020528060005260406000206000915054906101000a900460ff1681565b6000600160008473ffffffffffffffffffffffffffffffffffffffff1673ffffffffffffffffffffffffffffffffffffffff16815260200190815260200160002060008373ffffffffffffffffffffffffffffffffffffffff1673ffffffffffffffffffffffffffffffffffffffff16815260200190815260200160002060009054906101000a900460ff16905092915050565b611ce6611fb8565b73ffffffffffffffffffffffffffffffffffffffff16611d046113d4565b73ffffffffffffffffffffffffffffffffffffffff1614611d5a576040517f08c379a0000000000000000000000000000000000000000000000000000000008152600401611d5190614709565b60405180910390fd5b600e54600d54611d6a9190614afe565b600143611d779190614b58565b4060001c611d859190614d53565b60158190555060006015541415611db357611dac6001601554612d0e90919063ffffffff16565b6015819055505b565b611dbd611fb8565b73ffffffffffffffffffffffffffffffffffffffff168573ffffffffffffffffffffffffffffffffffffffff161480611e035750611e0285611dfd611fb8565b611c4a565b5b611e42576040517f08c379a0000000000000000000000000000000000000000000000000000000008152600401611e3990614589565b60405180910390fd5b611e4f8585858585612d24565b5050505050565b611e5e611fb8565b73ffffffffffffffffffffffffffffffffffffffff16611e7c6113d4565b73ffffffffffffffffffffffffffffffffffffffff1614611ed2576040517f08c379a0000000000000000000000000000000000000000000000000000000008152600401611ec990614709565b60405180910390fd5b600073ffffffffffffffffffffffffffffffffffffffff168173ffffffffffffffffffffffffffffffffffffffff161415611f42576040517f08c379a0000000000000000000000000000000000000000000000000000000008152600401611f3990614549565b60405180910390fd5b611f4b816125cb565b50565b60007f01ffc9a7000000000000000000000000000000000000000000000000000000007bffffffffffffffffffffffffffffffffffffffffffffffffffffffff1916827bffffffffffffffffffffffffffffffffffffffffffffffffffffffff1916149050919050565b600033905090565b8151835114612004576040517f08c379a0000000000000000000000000000000000000000000000000000000008152600401611ffb90614809565b60405180910390fd5b600073ffffffffffffffffffffffffffffffffffffffff168473ffffffffffffffffffffffffffffffffffffffff161415612074576040517f08c379a000000000000000000000000000000000000000000000000000000000815260040161206b90614629565b60405180910390fd5b600061207e611fb8565b905061208e818787878787612fa6565b60005b845181101561223f5760008582815181106120af576120ae614e11565b5b6020026020010151905060008583815181106120ce576120cd614e11565b5b60200260200101519050600080600084815260200190815260200160002060008b73ffffffffffffffffffffffffffffffffffffffff1673ffffffffffffffffffffffffffffffffffffffff1681526020019081526020016000205490508181101561216f576040517f08c379a0000000000000000000000000000000000000000000000000000000008152600401612166906146c9565b60405180910390fd5b81810360008085815260200190815260200160002060008c73ffffffffffffffffffffffffffffffffffffffff1673ffffffffffffffffffffffffffffffffffffffff168152602001908152602001600020819055508160008085815260200190815260200160002060008b73ffffffffffffffffffffffffffffffffffffffff1673ffffffffffffffffffffffffffffffffffffffff16815260200190815260200160002060008282546122249190614a77565b925050819055505050508061223890614cb2565b9050612091565b508473ffffffffffffffffffffffffffffffffffffffff168673ffffffffffffffffffffffffffffffffffffffff168273ffffffffffffffffffffffffffffffffffffffff167f4a39dc06d4c0dbc64b70af90fd698a233a518aa5d07e595d983b8c0526c8f7fb87876040516122b6929190614455565b60405180910390a46122cc818787878787612fae565b505050505050565b600073ffffffffffffffffffffffffffffffffffffffff168473ffffffffffffffffffffffffffffffffffffffff161415612344576040517f08c379a000000000000000000000000000000000000000000000000000000000815260040161233b90614849565b60405180910390fd5b600061234e611fb8565b905061236f8160008761236088613195565b61236988613195565b87612fa6565b8260008086815260200190815260200160002060008773ffffffffffffffffffffffffffffffffffffffff1673ffffffffffffffffffffffffffffffffffffffff16815260200190815260200160002060008282546123ce9190614a77565b925050819055508473ffffffffffffffffffffffffffffffffffffffff16600073ffffffffffffffffffffffffffffffffffffffff168273ffffffffffffffffffffffffffffffffffffffff167fc3d58168c5ae7397731d063d5bbf3d657854427343f4c083240f7aacaa2d0f62878760405161244c929190614884565b60405180910390a46124638160008787878761320f565b5050505050565b606060008214156124b2576040518060400160405280600181526020017f300000000000000000000000000000000000000000000000000000000000000081525090506125c6565b600082905060005b600082146124e45780806124cd90614cb2565b915050600a826124dd9190614acd565b91506124ba565b60008167ffffffffffffffff811115612500576124ff614e40565b5b6040519080825280601f01601f1916602001820160405280156125325781602001600182028036833780820191505090505b5090505b600085146125bf5760018261254b9190614b58565b9150600a8561255a9190614d53565b60306125669190614a77565b60f81b81838151811061257c5761257b614e11565b5b60200101907effffffffffffffffffffffffffffffffffffffffffffffffffffffffffffff1916908160001a905350600a856125b89190614acd565b9450612536565b8093505050505b919050565b6000600360009054906101000a900473ffffffffffffffffffffffffffffffffffffffff16905081600360006101000a81548173ffffffffffffffffffffffffffffffffffffffff021916908373ffffffffffffffffffffffffffffffffffffffff1602179055508173ffffffffffffffffffffffffffffffffffffffff168173ffffffffffffffffffffffffffffffffffffffff167f8be0079c531659141344cd1fd0a4f28419497f9722a3daafe3b4186f6b6457e060405160405180910390a35050565b61269961348f565b6126a161348f565b60006005436126b09190614d53565b905060005b600381101561279c576005826126cb9190614d53565b91506000600a836126dc9190614afe565b905060006009600a856126ef9190614afe565b6126f99190614a77565b9050816001838361270a9190614b58565b6127149190614a77565b4233448760125460405160200161272f95949392919061427c565b6040516020818303038152906040528051906020012060001c6127529190614d53565b61275c9190614a77565b85846003811061276f5761276e614e11565b5b6020020181815250506001846127859190614a77565b93505050808061279490614cb2565b9150506126b5565b50819250505090565b600e54600d546127b59190614afe565b601354101561289d57600e54602460008381526020019081526020016000205410612815576040517f08c379a000000000000000000000000000000000000000000000000000000000815260040161280c906145c9565b60405180910390fd5b612857338260016040518060400160405280600481526020017f30783030000000000000000000000000000000000000000000000000000000008152506122d4565b600160246000838152602001908152602001600020600082825461287b9190614a77565b925050819055506001601360008282546128959190614a77565b925050819055505b50565b600073ffffffffffffffffffffffffffffffffffffffff168373ffffffffffffffffffffffffffffffffffffffff161415612910576040517f08c379a0000000000000000000000000000000000000000000000000000000008152600401612907906146a9565b60405180910390fd5b600061291a611fb8565b905061294a8185600061292c87613195565b61293587613195565b60405180602001604052806000815250612fa6565b600080600085815260200190815260200160002060008673ffffffffffffffffffffffffffffffffffffffff1673ffffffffffffffffffffffffffffffffffffffff168152602001908152602001600020549050828110156129e1576040517f08c379a00000000000000000000000000000000000000000000000000000000081526004016129d890614569565b60405180910390fd5b82810360008086815260200190815260200160002060008773ffffffffffffffffffffffffffffffffffffffff1673ffffffffffffffffffffffffffffffffffffffff16815260200190815260200160002081905550600073ffffffffffffffffffffffffffffffffffffffff168573ffffffffffffffffffffffffffffffffffffffff168373ffffffffffffffffffffffffffffffffffffffff167fc3d58168c5ae7397731d063d5bbf3d657854427343f4c083240f7aacaa2d0f628787604051612aae929190614884565b60405180910390a45050505050565b8173ffffffffffffffffffffffffffffffffffffffff168373ffffffffffffffffffffffffffffffffffffffff161415612b2c576040517f08c379a0000000000000000000000000000000000000000000000000000000008152600401612b23906147c9565b60405180910390fd5b80600160008573ffffffffffffffffffffffffffffffffffffffff1673ffffffffffffffffffffffffffffffffffffffff16815260200190815260200160002060008473ffffffffffffffffffffffffffffffffffffffff1673ffffffffffffffffffffffffffffffffffffffff16815260200190815260200160002060006101000a81548160ff0219169083151502179055508173ffffffffffffffffffffffffffffffffffffffff168373ffffffffffffffffffffffffffffffffffffffff167f17307eab39ab6107e8899845ad3d59bd9653f200f220920489ca2b5937696c3183604051612c1d919061448c565b60405180910390a3505050565b612c326134b1565b612c3a6134b1565b60005b6005811015612d06576000600a82612c559190614afe565b905060006009600a84612c689190614afe565b612c729190614a77565b90508160018383612c839190614b58565b612c8d9190614a77565b42334487601154604051602001612ca895949392919061427c565b6040516020818303038152906040528051906020012060001c612ccb9190614d53565b612cd59190614a77565b848460058110612ce857612ce7614e11565b5b60200201818152505050508080612cfe90614cb2565b915050612c3d565b508091505090565b60008183612d1c9190614a77565b905092915050565b600073ffffffffffffffffffffffffffffffffffffffff168473ffffffffffffffffffffffffffffffffffffffff161415612d94576040517f08c379a0000000000000000000000000000000000000000000000000000000008152600401612d8b90614629565b60405180910390fd5b6000612d9e611fb8565b9050612dbe818787612daf88613195565b612db888613195565b87612fa6565b600080600086815260200190815260200160002060008873ffffffffffffffffffffffffffffffffffffffff1673ffffffffffffffffffffffffffffffffffffffff16815260200190815260200160002054905083811015612e55576040517f08c379a0000000000000000000000000000000000000000000000000000000008152600401612e4c906146c9565b60405180910390fd5b83810360008087815260200190815260200160002060008973ffffffffffffffffffffffffffffffffffffffff1673ffffffffffffffffffffffffffffffffffffffff168152602001908152602001600020819055508360008087815260200190815260200160002060008873ffffffffffffffffffffffffffffffffffffffff1673ffffffffffffffffffffffffffffffffffffffff1681526020019081526020016000206000828254612f0a9190614a77565b925050819055508573ffffffffffffffffffffffffffffffffffffffff168773ffffffffffffffffffffffffffffffffffffffff168373ffffffffffffffffffffffffffffffffffffffff167fc3d58168c5ae7397731d063d5bbf3d657854427343f4c083240f7aacaa2d0f628888604051612f87929190614884565b60405180910390a4612f9d82888888888861320f565b50505050505050565b505050505050565b612fcd8473ffffffffffffffffffffffffffffffffffffffff166133f6565b1561318d578373ffffffffffffffffffffffffffffffffffffffff1663bc197c8187878686866040518663ffffffff1660e01b81526004016130139594939291906142f6565b602060405180830381600087803b15801561302d57600080fd5b505af192505050801561305e57506040513d601f19601f8201168201806040525081019061305b9190613ab6565b60015b6131045761306a614e6f565b806308c379a014156130c7575061307f6156e7565b8061308a57506130c9565b806040517f08c379a00000000000000000000000000000000000000000000000000000000081526004016130be91906144a7565b60405180910390fd5b505b6040517f08c379a00000000000000000000000000000000000000000000000000000000081526004016130fb906144c9565b60405180910390fd5b63bc197c8160e01b7bffffffffffffffffffffffffffffffffffffffffffffffffffffffff1916817bffffffffffffffffffffffffffffffffffffffffffffffffffffffff19161461318b576040517f08c379a0000000000000000000000000000000000000000000000000000000008152600401613182906144e9565b60405180910390fd5b505b505050505050565b60606000600167ffffffffffffffff8111156131b4576131b3614e40565b5b6040519080825280602002602001820160405280156131e25781602001602082028036833780820191505090505b50905082816000815181106131fa576131f9614e11565b5b60200260200101818152505080915050919050565b61322e8473ffffffffffffffffffffffffffffffffffffffff166133f6565b156133ee578373ffffffffffffffffffffffffffffffffffffffff1663f23a6e6187878686866040518663ffffffff1660e01b815260040161327495949392919061435e565b602060405180830381600087803b15801561328e57600080fd5b505af19250505080156132bf57506040513d601f19601f820116820180604052508101906132bc9190613ab6565b60015b613365576132cb614e6f565b806308c379a0141561332857506132e06156e7565b806132eb575061332a565b806040517f08c379a000000000000000000000000000000000000000000000000000000000815260040161331f91906144a7565b60405180910390fd5b505b6040517f08c379a000000000000000000000000000000000000000000000000000000000815260040161335c906144c9565b60405180910390fd5b63f23a6e6160e01b7bffffffffffffffffffffffffffffffffffffffffffffffffffffffff1916817bffffffffffffffffffffffffffffffffffffffffffffffffffffffff1916146133ec576040517f08c379a00000000000000000000000000000000000000000000000000000000081526004016133e3906144e9565b60405180910390fd5b505b505050505050565b600080823b905060008111915050919050565b82805461341590614c4f565b90600052602060002090601f016020900481019282613437576000855561347e565b82601f1061345057805160ff191683800117855561347e565b8280016001018555821561347e579182015b8281111561347d578251825591602001919060010190613462565b5b50905061348b91906134d3565b5090565b6040518060600160405280600390602082028036833780820191505090505090565b6040518060a00160405280600590602082028036833780820191505090505090565b5b808211156134ec5760008160009055506001016134d4565b5090565b60006135036134fe846148d2565b6148ad565b9050808382526020820190508285602086028201111561352657613525614e96565b5b60005b85811015613556578161353c8882613654565b845260208401935060208301925050600181019050613529565b5050509392505050565b600061357361356e846148fe565b6148ad565b9050808382526020820190508285602086028201111561359657613595614e96565b5b60005b858110156135c657816135ac8882613760565b845260208401935060208301925050600181019050613599565b5050509392505050565b60006135e36135de8461492a565b6148ad565b9050828152602081018484840111156135ff576135fe614e9b565b5b61360a848285614c0d565b509392505050565b60006136256136208461495b565b6148ad565b90508281526020810184848401111561364157613640614e9b565b5b61364c848285614c0d565b509392505050565b6000813590506136638161577d565b92915050565b600082601f83011261367e5761367d614e91565b5b813561368e8482602086016134f0565b91505092915050565b600082601f8301126136ac576136ab614e91565b5b81356136bc848260208601613560565b91505092915050565b6000813590506136d481615794565b92915050565b6000813590506136e9816157ab565b92915050565b6000815190506136fe816157ab565b92915050565b600082601f83011261371957613718614e91565b5b81356137298482602086016135d0565b91505092915050565b600082601f83011261374757613746614e91565b5b8135613757848260208601613612565b91505092915050565b60008135905061376f816157c2565b92915050565b60006020828403121561378b5761378a614ea5565b5b600061379984828501613654565b91505092915050565b600080604083850312156137b9576137b8614ea5565b5b60006137c785828601613654565b92505060206137d885828601613654565b9150509250929050565b600080600080600060a086880312156137fe576137fd614ea5565b5b600061380c88828901613654565b955050602061381d88828901613654565b945050604086013567ffffffffffffffff81111561383e5761383d614ea0565b5b61384a88828901613697565b935050606086013567ffffffffffffffff81111561386b5761386a614ea0565b5b61387788828901613697565b925050608086013567ffffffffffffffff81111561389857613897614ea0565b5b6138a488828901613704565b9150509295509295909350565b600080600080600060a086880312156138cd576138cc614ea5565b5b60006138db88828901613654565b95505060206138ec88828901613654565b94505060406138fd88828901613760565b935050606061390e88828901613760565b925050608086013567ffffffffffffffff81111561392f5761392e614ea0565b5b61393b88828901613704565b9150509295509295909350565b6000806040838503121561395f5761395e614ea5565b5b600061396d85828601613654565b925050602061397e858286016136c5565b9150509250929050565b6000806040838503121561399f5761399e614ea5565b5b60006139ad85828601613654565b92505060206139be85828601613760565b9150509250929050565b6000602082840312156139de576139dd614ea5565b5b600082013567ffffffffffffffff8111156139fc576139fb614ea0565b5b613a0884828501613669565b91505092915050565b60008060408385031215613a2857613a27614ea5565b5b600083013567ffffffffffffffff811115613a4657613a45614ea0565b5b613a5285828601613669565b925050602083013567ffffffffffffffff811115613a7357613a72614ea0565b5b613a7f85828601613697565b9150509250929050565b600060208284031215613a9f57613a9e614ea5565b5b6000613aad848285016136da565b91505092915050565b600060208284031215613acc57613acb614ea5565b5b6000613ada848285016136ef565b91505092915050565b600060208284031215613af957613af8614ea5565b5b6000613b0784828501613760565b91505092915050565b60008060408385031215613b2757613b26614ea5565b5b6000613b3585828601613760565b925050602083013567ffffffffffffffff811115613b5657613b55614ea0565b5b613b6285828601613732565b9150509250929050565b6000613b788383614201565b60208301905092915050565b613b8d81614b8c565b82525050565b613ba4613b9f82614b8c565b614d25565b82525050565b613bb3816149c5565b613bbd8184614a23565b9250613bc88261498c565b8060005b83811015613bf9578151613be08782613b6c565b9650613beb836149fc565b925050600181019050613bcc565b505050505050565b613c0a816149d0565b613c148184614a2e565b9250613c1f82614996565b8060005b83811015613c50578151613c378782613b6c565b9650613c4283614a09565b925050600181019050613c23565b505050505050565b6000613c63826149db565b613c6d8185614a39565b9350613c78836149a0565b8060005b83811015613ca9578151613c908882613b6c565b9750613c9b83614a16565b925050600181019050613c7c565b5085935050505092915050565b613cbf81614b9e565b82525050565b6000613cd0826149e6565b613cda8185614a4a565b9350613cea818560208601614c1c565b613cf381614eaa565b840191505092915050565b6000613d09826149f1565b613d138185614a5b565b9350613d23818560208601614c1c565b613d2c81614eaa565b840191505092915050565b6000613d42826149f1565b613d4c8185614a6c565b9350613d5c818560208601614c1c565b80840191505092915050565b60008154613d7581614c4f565b613d7f8186614a6c565b94506001821660008114613d9a5760018114613dab57613dde565b60ff19831686528186019350613dde565b613db4856149b0565b60005b83811015613dd657815481890152600182019150602081019050613db7565b838801955050505b50505092915050565b6000613df4603483614a5b565b9150613dff82614ed5565b604082019050919050565b6000613e17602883614a5b565b9150613e2282614f24565b604082019050919050565b6000613e3a601b83614a5b565b9150613e4582614f73565b602082019050919050565b6000613e5d602b83614a5b565b9150613e6882614f9c565b604082019050919050565b6000613e80602683614a5b565b9150613e8b82614feb565b604082019050919050565b6000613ea3602483614a5b565b9150613eae8261503a565b604082019050919050565b6000613ec6602983614a5b565b9150613ed182615089565b604082019050919050565b6000613ee9601883614a5b565b9150613ef4826150d8565b602082019050919050565b6000613f0c602d83614a5b565b9150613f1782615101565b604082019050919050565b6000613f2f602b83614a5b565b9150613f3a82615150565b604082019050919050565b6000613f52602783614a5b565b9150613f5d8261519f565b604082019050919050565b6000613f75602583614a5b565b9150613f80826151ee565b604082019050919050565b6000613f98603283614a5b565b9150613fa38261523d565b604082019050919050565b6000613fbb601483614a5b565b9150613fc68261528c565b602082019050919050565b6000613fde602483614a5b565b9150613fe9826152b5565b604082019050919050565b6000614001602383614a5b565b915061400c82615304565b604082019050919050565b6000614024602a83614a5b565b915061402f82615353565b604082019050919050565b6000614047602083614a5b565b9150614052826153a2565b602082019050919050565b600061406a600583614a6c565b9150614075826153cb565b600582019050919050565b600061408d602083614a5b565b9150614098826153f4565b602082019050919050565b60006140b0602b83614a5b565b91506140bb8261541d565b604082019050919050565b60006140d3602383614a5b565b91506140de8261546c565b604082019050919050565b60006140f6602b83614a5b565b9150614101826154bb565b604082019050919050565b6000614119601f83614a5b565b91506141248261550a565b602082019050919050565b600061413c602a83614a5b565b915061414782615533565b604082019050919050565b600061415f602983614a5b565b915061416a82615582565b604082019050919050565b6000614182602983614a5b565b915061418d826155d1565b604082019050919050565b60006141a5602883614a5b565b91506141b082615620565b604082019050919050565b60006141c8601f83614a5b565b91506141d38261566f565b602082019050919050565b60006141eb602183614a5b565b91506141f682615698565b604082019050919050565b61420a81614bf6565b82525050565b61421981614bf6565b82525050565b61423061422b82614bf6565b614d49565b82525050565b60006142428284613d68565b915081905092915050565b60006142598285613d68565b91506142658284613d37565b91506142708261405d565b91508190509392505050565b6000614288828861421f565b6020820191506142988287613b93565b6014820191506142a8828661421f565b6020820191506142b8828561421f565b6020820191506142c8828461421f565b6020820191508190509695505050505050565b60006020820190506142f06000830184613b84565b92915050565b600060a08201905061430b6000830188613b84565b6143186020830187613b84565b818103604083015261432a8186613c58565b9050818103606083015261433e8185613c58565b905081810360808301526143528184613cc5565b90509695505050505050565b600060a0820190506143736000830188613b84565b6143806020830187613b84565b61438d6040830186614210565b61439a6060830185614210565b81810360808301526143ac8184613cc5565b90509695505050505050565b60006040820190506143cd6000830185613b84565b6143da6020830184614210565b9392505050565b60006080820190506143f66000830185613baa565b6144036060830184613b84565b9392505050565b600060c08201905061441f6000830185613c01565b61442c60a0830184613b84565b9392505050565b6000602082019050818103600083015261444d8184613c58565b905092915050565b6000604082019050818103600083015261446f8185613c58565b905081810360208301526144838184613c58565b90509392505050565b60006020820190506144a16000830184613cb6565b92915050565b600060208201905081810360008301526144c18184613cfe565b905092915050565b600060208201905081810360008301526144e281613de7565b9050919050565b6000602082019050818103600083015261450281613e0a565b9050919050565b6000602082019050818103600083015261452281613e2d565b9050919050565b6000602082019050818103600083015261454281613e50565b9050919050565b6000602082019050818103600083015261456281613e73565b9050919050565b6000602082019050818103600083015261458281613e96565b9050919050565b600060208201905081810360008301526145a281613eb9565b9050919050565b600060208201905081810360008301526145c281613edc565b9050919050565b600060208201905081810360008301526145e281613eff565b9050919050565b6000602082019050818103600083015261460281613f22565b9050919050565b6000602082019050818103600083015261462281613f45565b9050919050565b6000602082019050818103600083015261464281613f68565b9050919050565b6000602082019050818103600083015261466281613f8b565b9050919050565b6000602082019050818103600083015261468281613fae565b9050919050565b600060208201905081810360008301526146a281613fd1565b9050919050565b600060208201905081810360008301526146c281613ff4565b9050919050565b600060208201905081810360008301526146e281614017565b9050919050565b600060208201905081810360008301526147028161403a565b9050919050565b6000602082019050818103600083015261472281614080565b9050919050565b60006020820190508181036000830152614742816140a3565b9050919050565b60006020820190508181036000830152614762816140c6565b9050919050565b60006020820190508181036000830152614782816140e9565b9050919050565b600060208201905081810360008301526147a28161410c565b9050919050565b600060208201905081810360008301526147c28161412f565b9050919050565b600060208201905081810360008301526147e281614152565b9050919050565b6000602082019050818103600083015261480281614175565b9050919050565b6000602082019050818103600083015261482281614198565b9050919050565b60006020820190508181036000830152614842816141bb565b9050919050565b60006020820190508181036000830152614862816141de565b9050919050565b600060208201905061487e6000830184614210565b92915050565b60006040820190506148996000830185614210565b6148a66020830184614210565b9392505050565b60006148b76148c8565b90506148c38282614c81565b919050565b6000604051905090565b600067ffffffffffffffff8211156148ed576148ec614e40565b5b602082029050602081019050919050565b600067ffffffffffffffff82111561491957614918614e40565b5b602082029050602081019050919050565b600067ffffffffffffffff82111561494557614944614e40565b5b61494e82614eaa565b9050602081019050919050565b600067ffffffffffffffff82111561497657614975614e40565b5b61497f82614eaa565b9050602081019050919050565b6000819050919050565b6000819050919050565b6000819050602082019050919050565b60008190508160005260206000209050919050565b600060039050919050565b600060059050919050565b600081519050919050565b600081519050919050565b600081519050919050565b6000602082019050919050565b6000602082019050919050565b6000602082019050919050565b600081905092915050565b600081905092915050565b600082825260208201905092915050565b600082825260208201905092915050565b600082825260208201905092915050565b600081905092915050565b6000614a8282614bf6565b9150614a8d83614bf6565b9250827fffffffffffffffffffffffffffffffffffffffffffffffffffffffffffffffff03821115614ac257614ac1614d84565b5b828201905092915050565b6000614ad882614bf6565b9150614ae383614bf6565b925082614af357614af2614db3565b5b828204905092915050565b6000614b0982614bf6565b9150614b1483614bf6565b9250817fffffffffffffffffffffffffffffffffffffffffffffffffffffffffffffffff0483118215151615614b4d57614b4c614d84565b5b828202905092915050565b6000614b6382614bf6565b9150614b6e83614bf6565b925082821015614b8157614b80614d84565b5b828203905092915050565b6000614b9782614bd6565b9050919050565b60008115159050919050565b60007fffffffff0000000000000000000000000000000000000000000000000000000082169050919050565b600073ffffffffffffffffffffffffffffffffffffffff82169050919050565b6000819050919050565b600060ff82169050919050565b82818337600083830152505050565b60005b83811015614c3a578082015181840152602081019050614c1f565b83811115614c49576000848401525b50505050565b60006002820490506001821680614c6757607f821691505b60208210811415614c7b57614c7a614de2565b5b50919050565b614c8a82614eaa565b810181811067ffffffffffffffff82111715614ca957614ca8614e40565b5b80604052505050565b6000614cbd82614bf6565b91507fffffffffffffffffffffffffffffffffffffffffffffffffffffffffffffffff821415614cf057614cef614d84565b5b600182019050919050565b6000614d0682614c00565b915060ff821415614d1a57614d19614d84565b5b600182019050919050565b6000614d3082614d37565b9050919050565b6000614d4282614ebb565b9050919050565b6000819050919050565b6000614d5e82614bf6565b9150614d6983614bf6565b925082614d7957614d78614db3565b5b828206905092915050565b7f4e487b7100000000000000000000000000000000000000000000000000000000600052601160045260246000fd5b7f4e487b7100000000000000000000000000000000000000000000000000000000600052601260045260246000fd5b7f4e487b7100000000000000000000000000000000000000000000000000000000600052602260045260246000fd5b7f4e487b7100000000000000000000000000000000000000000000000000000000600052603260045260246000fd5b7f4e487b7100000000000000000000000000000000000000000000000000000000600052604160045260246000fd5b600060033d1115614e8e5760046000803e614e8b600051614ec8565b90505b90565b600080fd5b600080fd5b600080fd5b600080fd5b600080fd5b6000601f19601f8301169050919050565b60008160601b9050919050565b60008160e01c9050919050565b7f455243313135353a207472616e7366657220746f206e6f6e204552433131353560008201527f526563656976657220696d706c656d656e746572000000000000000000000000602082015250565b7f455243313135353a204552433131353552656365697665722072656a6563746560008201527f6420746f6b656e73000000000000000000000000000000000000000000000000602082015250565b7f4e6f2072656d61696e696e6720626f6f73746572207061636b73210000000000600082015250565b7f455243313135353a2062616c616e636520717565727920666f7220746865207a60008201527f65726f2061646472657373000000000000000000000000000000000000000000602082015250565b7f4f776e61626c653a206e6577206f776e657220697320746865207a65726f206160008201527f6464726573730000000000000000000000000000000000000000000000000000602082015250565b7f455243313135353a206275726e20616d6f756e7420657863656564732062616c60008201527f616e636500000000000000000000000000000000000000000000000000000000602082015250565b7f455243313135353a2063616c6c6572206973206e6f74206f776e6572206e6f7260008201527f20617070726f7665640000000000000000000000000000000000000000000000602082015250565b7f55736572206973206e6f742077686974656c69737465642e0000000000000000600082015250565b7f416c6c206f662074686973206174686c657465206861766520616c726561647960008201527f206265656e206d696e7465642100000000000000000000000000000000000000602082015250565b7f416c6c20626f6f73746572207061636b73206861766520616c7265616479206260008201527f65656e206d696e74656421000000000000000000000000000000000000000000602082015250565b7f426f6f73746572207061636b73206172656e277420726561647920746f206f7060008201527f656e207965742100000000000000000000000000000000000000000000000000602082015250565b7f455243313135353a207472616e7366657220746f20746865207a65726f20616460008201527f6472657373000000000000000000000000000000000000000000000000000000602082015250565b7f455243313135353a207472616e736665722063616c6c6572206973206e6f742060008201527f6f776e6572206e6f7220617070726f7665640000000000000000000000000000602082015250565b7f43616e6e6f742073657420757269207477696365000000000000000000000000600082015250565b7f426f6f73746572207061636b2073616c65206861736e2774206f70656e65642060008201527f7965742e00000000000000000000000000000000000000000000000000000000602082015250565b7f455243313135353a206275726e2066726f6d20746865207a65726f206164647260008201527f6573730000000000000000000000000000000000000000000000000000000000602082015250565b7f455243313135353a20696e73756666696369656e742062616c616e636520666f60008201527f72207472616e7366657200000000000000000000000000000000000000000000602082015250565b7f596f752063616e6e6f74206275726e206d6f7265207468616e2031207061636b600082015250565b7f2e6a736f6e000000000000000000000000000000000000000000000000000000600082015250565b7f4f776e61626c653a2063616c6c6572206973206e6f7420746865206f776e6572600082015250565b7f53746172746572207061636b20646f6573206e6f7420657869737420696e207560008201527f736572732077616c6c6574000000000000000000000000000000000000000000602082015250565b7f416c6c207061636b73206861766520616c7265616479206265656e206d696e7460008201527f6564210000000000000000000000000000000000000000000000000000000000602082015250565b7f43616e206f6e6c79206d696e742074776f20626f6f73746572207061636b732060008201527f706572206163636f756e74000000000000000000000000000000000000000000602082015250565b7f5061636b73206172656e277420726561647920746f206f70656e207965742100600082015250565b7f43616e206f6e6c79206d696e74206f6e652073746172746572207061636b207060008201527f6572206163636f756e7400000000000000000000000000000000000000000000602082015250565b7f455243313135353a2073657474696e6720617070726f76616c2073746174757360008201527f20666f722073656c660000000000000000000000000000000000000000000000602082015250565b7f455243313135353a206163636f756e747320616e6420696473206c656e67746860008201527f206d69736d617463680000000000000000000000000000000000000000000000602082015250565b7f455243313135353a2069647320616e6420616d6f756e7473206c656e6774682060008201527f6d69736d61746368000000000000000000000000000000000000000000000000602082015250565b7f507269766174652073616c65206861736e2774206f70656e6564207965742e00600082015250565b7f455243313135353a206d696e7420746f20746865207a65726f2061646472657360008201527f7300000000000000000000000000000000000000000000000000000000000000602082015250565b600060443d10156156f75761577a565b6156ff6148c8565b60043d036004823e80513d602482011167ffffffffffffffff8211171561572757505061577a565b808201805167ffffffffffffffff811115615745575050505061577a565b80602083010160043d03850181111561576257505050505061577a565b61577182602001850186614c81565b82955050505050505b90565b61578681614b8c565b811461579157600080fd5b50565b61579d81614b9e565b81146157a857600080fd5b50565b6157b481614baa565b81146157bf57600080fd5b50565b6157cb81614bf6565b81146157d657600080fd5b5056fea2646970667358221220f30cb122c234d2efc35acb41beff5acb73309a554ef7a23b242c9caf383e18b664736f6c63430008070033",
  "linkReferences": {},
  "deployedLinkReferences": {}
}