{
  "_format": "hh-sol-artifact-1",
  "contractName": "GameItems",
  "sourceName": "contracts/GameItems.sol",
  "abi": [
    {
      "inputs": [
        {
          "components": [
            {
              "internalType": "uint256",
              "name": "_numAthletes",
              "type": "uint256"
            },
            {
              "internalType": "uint256",
              "name": "_nftPerAthlete",
              "type": "uint256"
            },
            {
              "internalType": "uint256",
              "name": "_starterPackSize",
              "type": "uint256"
            },
            {
              "internalType": "uint256",
              "name": "_boosterPackSize",
              "type": "uint256"
            },
            {
              "internalType": "uint256",
              "name": "_maxStarterPackBalance",
              "type": "uint256"
            },
            {
              "internalType": "uint256",
              "name": "_maxBoosterPackBalance",
              "type": "uint256"
            },
            {
              "internalType": "uint256",
              "name": "_maxPacks",
              "type": "uint256"
            },
            {
              "internalType": "uint256",
              "name": "_revealTimestamp",
              "type": "uint256"
            }
          ],
          "internalType": "struct GameItems.Parameters",
          "name": "params",
          "type": "tuple"
        },
        {
          "internalType": "string",
          "name": "_athleteURI",
          "type": "string"
        },
        {
          "internalType": "string",
          "name": "_starterPackURI",
          "type": "string"
        },
        {
          "internalType": "string",
          "name": "_boosterPackURI",
          "type": "string"
        }
      ],
      "stateMutability": "nonpayable",
      "type": "constructor"
    },
    {
      "anonymous": false,
      "inputs": [
        {
          "indexed": true,
          "internalType": "address",
          "name": "account",
          "type": "address"
        },
        {
          "indexed": true,
          "internalType": "address",
          "name": "operator",
          "type": "address"
        },
        {
          "indexed": false,
          "internalType": "bool",
          "name": "approved",
          "type": "bool"
        }
      ],
      "name": "ApprovalForAll",
      "type": "event"
    },
    {
      "anonymous": false,
      "inputs": [
        {
          "indexed": true,
          "internalType": "address",
          "name": "previousOwner",
          "type": "address"
        },
        {
          "indexed": true,
          "internalType": "address",
          "name": "newOwner",
          "type": "address"
        }
      ],
      "name": "OwnershipTransferred",
      "type": "event"
    },
    {
      "anonymous": false,
      "inputs": [
        {
          "indexed": true,
          "internalType": "address",
          "name": "operator",
          "type": "address"
        },
        {
          "indexed": true,
          "internalType": "address",
          "name": "from",
          "type": "address"
        },
        {
          "indexed": true,
          "internalType": "address",
          "name": "to",
          "type": "address"
        },
        {
          "indexed": false,
          "internalType": "uint256[]",
          "name": "ids",
          "type": "uint256[]"
        },
        {
          "indexed": false,
          "internalType": "uint256[]",
          "name": "values",
          "type": "uint256[]"
        }
      ],
      "name": "TransferBatch",
      "type": "event"
    },
    {
      "anonymous": false,
      "inputs": [
        {
          "indexed": true,
          "internalType": "address",
          "name": "operator",
          "type": "address"
        },
        {
          "indexed": true,
          "internalType": "address",
          "name": "from",
          "type": "address"
        },
        {
          "indexed": true,
          "internalType": "address",
          "name": "to",
          "type": "address"
        },
        {
          "indexed": false,
          "internalType": "uint256",
          "name": "id",
          "type": "uint256"
        },
        {
          "indexed": false,
          "internalType": "uint256",
          "name": "value",
          "type": "uint256"
        }
      ],
      "name": "TransferSingle",
      "type": "event"
    },
    {
      "anonymous": false,
      "inputs": [
        {
          "indexed": false,
          "internalType": "string",
          "name": "value",
          "type": "string"
        },
        {
          "indexed": true,
          "internalType": "uint256",
          "name": "id",
          "type": "uint256"
        }
      ],
      "name": "URI",
      "type": "event"
    },
    {
      "anonymous": false,
      "inputs": [
        {
          "indexed": false,
          "internalType": "uint256[5]",
          "name": "",
          "type": "uint256[5]"
        },
        {
          "indexed": false,
          "internalType": "address",
          "name": "signer",
          "type": "address"
        }
      ],
      "name": "packBurned",
      "type": "event"
    },
    {
      "anonymous": false,
      "inputs": [
        {
          "indexed": false,
          "internalType": "address",
          "name": "signer",
          "type": "address"
        },
        {
          "indexed": false,
          "internalType": "uint256",
          "name": "id",
          "type": "uint256"
        }
      ],
      "name": "packMinted",
      "type": "event"
    },
    {
      "inputs": [],
      "name": "REVEAL_TIMESTAMP",
      "outputs": [
        {
          "internalType": "uint256",
          "name": "",
          "type": "uint256"
        }
      ],
      "stateMutability": "view",
      "type": "function"
    },
    {
      "inputs": [
        {
          "internalType": "address",
          "name": "_userToAdd",
          "type": "address"
        }
      ],
      "name": "addUserToWhitelist",
      "outputs": [
        {
          "internalType": "bool",
          "name": "success",
          "type": "bool"
        }
      ],
      "stateMutability": "nonpayable",
      "type": "function"
    },
    {
      "inputs": [
        {
          "internalType": "address[]",
          "name": "addrs",
          "type": "address[]"
        }
      ],
      "name": "addUsersToWhitelist",
      "outputs": [
        {
          "internalType": "bool",
          "name": "success",
          "type": "bool"
        }
      ],
      "stateMutability": "nonpayable",
      "type": "function"
    },
    {
      "inputs": [
        {
          "internalType": "address",
          "name": "account",
          "type": "address"
        },
        {
          "internalType": "uint256",
          "name": "id",
          "type": "uint256"
        }
      ],
      "name": "balanceOf",
      "outputs": [
        {
          "internalType": "uint256",
          "name": "",
          "type": "uint256"
        }
      ],
      "stateMutability": "view",
      "type": "function"
    },
    {
      "inputs": [
        {
          "internalType": "address[]",
          "name": "accounts",
          "type": "address[]"
        },
        {
          "internalType": "uint256[]",
          "name": "ids",
          "type": "uint256[]"
        }
      ],
      "name": "balanceOfBatch",
      "outputs": [
        {
          "internalType": "uint256[]",
          "name": "",
          "type": "uint256[]"
        }
      ],
      "stateMutability": "view",
      "type": "function"
    },
    {
      "inputs": [],
      "name": "burnStarterPack",
      "outputs": [],
      "stateMutability": "nonpayable",
      "type": "function"
    },
    {
      "inputs": [],
      "name": "getNFTPerAthlete",
      "outputs": [
        {
          "internalType": "uint256",
          "name": "",
          "type": "uint256"
        }
      ],
      "stateMutability": "view",
      "type": "function"
    },
    {
      "inputs": [],
      "name": "getNumWhitelisted",
      "outputs": [
        {
          "internalType": "uint256",
          "name": "",
          "type": "uint256"
        }
      ],
      "stateMutability": "view",
      "type": "function"
    },
    {
      "inputs": [
        {
          "internalType": "address",
          "name": "account",
          "type": "address"
        },
        {
          "internalType": "address",
          "name": "operator",
          "type": "address"
        }
      ],
      "name": "isApprovedForAll",
      "outputs": [
        {
          "internalType": "bool",
          "name": "",
          "type": "bool"
        }
      ],
      "stateMutability": "view",
      "type": "function"
    },
    {
      "inputs": [
        {
          "internalType": "uint256",
          "name": "index",
          "type": "uint256"
        }
      ],
      "name": "mintAthlete",
      "outputs": [],
      "stateMutability": "nonpayable",
      "type": "function"
    },
    {
      "inputs": [],
      "name": "mintStarterPack",
      "outputs": [],
      "stateMutability": "nonpayable",
      "type": "function"
    },
    {
      "inputs": [],
      "name": "name",
      "outputs": [
        {
          "internalType": "string",
          "name": "",
          "type": "string"
        }
      ],
      "stateMutability": "view",
      "type": "function"
    },
    {
      "inputs": [],
      "name": "numWhitelisted",
      "outputs": [
        {
          "internalType": "uint256",
          "name": "",
          "type": "uint256"
        }
      ],
      "stateMutability": "view",
      "type": "function"
    },
    {
      "inputs": [],
      "name": "owner",
      "outputs": [
        {
          "internalType": "address",
          "name": "",
          "type": "address"
        }
      ],
      "stateMutability": "view",
      "type": "function"
    },
    {
      "inputs": [],
      "name": "packsAvailable",
      "outputs": [
        {
          "internalType": "uint256",
          "name": "",
          "type": "uint256"
        }
      ],
      "stateMutability": "view",
      "type": "function"
    },
    {
      "inputs": [],
      "name": "packsReadyToOpen",
      "outputs": [
        {
          "internalType": "bool",
          "name": "",
          "type": "bool"
        }
      ],
      "stateMutability": "view",
      "type": "function"
    },
    {
      "inputs": [
        {
          "internalType": "address",
          "name": "_userToRemove",
          "type": "address"
        }
      ],
      "name": "removeUserFromWhitelist",
      "outputs": [
        {
          "internalType": "bool",
          "name": "success",
          "type": "bool"
        }
      ],
      "stateMutability": "nonpayable",
      "type": "function"
    },
    {
      "inputs": [
        {
          "internalType": "address[]",
          "name": "addrs",
          "type": "address[]"
        }
      ],
      "name": "removeUsersFromWhitelist",
      "outputs": [
        {
          "internalType": "bool",
          "name": "success",
          "type": "bool"
        }
      ],
      "stateMutability": "nonpayable",
      "type": "function"
    },
    {
      "inputs": [],
      "name": "renounceOwnership",
      "outputs": [],
      "stateMutability": "nonpayable",
      "type": "function"
    },
    {
      "inputs": [
        {
          "internalType": "address",
          "name": "from",
          "type": "address"
        },
        {
          "internalType": "address",
          "name": "to",
          "type": "address"
        },
        {
          "internalType": "uint256[]",
          "name": "ids",
          "type": "uint256[]"
        },
        {
          "internalType": "uint256[]",
          "name": "amounts",
          "type": "uint256[]"
        },
        {
          "internalType": "bytes",
          "name": "data",
          "type": "bytes"
        }
      ],
      "name": "safeBatchTransferFrom",
      "outputs": [],
      "stateMutability": "nonpayable",
      "type": "function"
    },
    {
      "inputs": [
        {
          "internalType": "address",
          "name": "from",
          "type": "address"
        },
        {
          "internalType": "address",
          "name": "to",
          "type": "address"
        },
        {
          "internalType": "uint256",
          "name": "id",
          "type": "uint256"
        },
        {
          "internalType": "uint256",
          "name": "amount",
          "type": "uint256"
        },
        {
          "internalType": "bytes",
          "name": "data",
          "type": "bytes"
        }
      ],
      "name": "safeTransferFrom",
      "outputs": [],
      "stateMutability": "nonpayable",
      "type": "function"
    },
    {
      "inputs": [
        {
          "internalType": "address",
          "name": "operator",
          "type": "address"
        },
        {
          "internalType": "bool",
          "name": "approved",
          "type": "bool"
        }
      ],
      "name": "setApprovalForAll",
      "outputs": [],
      "stateMutability": "nonpayable",
      "type": "function"
    },
    {
      "inputs": [],
      "name": "setPacksReady",
      "outputs": [],
      "stateMutability": "nonpayable",
      "type": "function"
    },
    {
      "inputs": [],
      "name": "setStartingIndex",
      "outputs": [],
      "stateMutability": "nonpayable",
      "type": "function"
    },
    {
      "inputs": [
        {
          "internalType": "uint256",
          "name": "tokenId",
          "type": "uint256"
        },
        {
          "internalType": "string",
          "name": "uri",
          "type": "string"
        }
      ],
      "name": "setTokenUri",
      "outputs": [],
      "stateMutability": "nonpayable",
      "type": "function"
    },
    {
      "inputs": [],
      "name": "setURIs",
      "outputs": [],
      "stateMutability": "nonpayable",
      "type": "function"
    },
    {
      "inputs": [
        {
          "internalType": "bytes4",
          "name": "interfaceId",
          "type": "bytes4"
        }
      ],
      "name": "supportsInterface",
      "outputs": [
        {
          "internalType": "bool",
          "name": "",
          "type": "bool"
        }
      ],
      "stateMutability": "view",
      "type": "function"
    },
    {
      "inputs": [
        {
          "internalType": "address",
          "name": "newOwner",
          "type": "address"
        }
      ],
      "name": "transferOwnership",
      "outputs": [],
      "stateMutability": "nonpayable",
      "type": "function"
    },
    {
      "inputs": [
        {
          "internalType": "uint256",
          "name": "tokenId",
          "type": "uint256"
        }
      ],
      "name": "uri",
      "outputs": [
        {
          "internalType": "string",
          "name": "",
          "type": "string"
        }
      ],
      "stateMutability": "view",
      "type": "function"
    },
    {
      "inputs": [
        {
          "internalType": "address",
          "name": "",
          "type": "address"
        }
      ],
      "name": "whitelist",
      "outputs": [
        {
          "internalType": "bool",
          "name": "",
          "type": "bool"
        }
      ],
      "stateMutability": "view",
      "type": "function"
    }
  ],
  "bytecode": "0x6080604052612710600f556040518060400160405280600881526020017f5465616d446966660000000000000000000000000000000000000000000000008152506010908051906020019062000057929190620002d6565b506001601160006101000a81548160ff02191690831515021790555060405180602001604052806000815250601790805190602001906200009a929190620002d6565b50348015620000a857600080fd5b506040516200534f3803806200534f8339818101604052810190620000ce9190620004fa565b6040518060400160405280600281526020017f54440000000000000000000000000000000000000000000000000000000000008152506200011581620001ec60201b60201c565b50620001366200012a6200020860201b60201c565b6200021060201b60201c565b8360000151600c819055508360200151600d819055508360400151600781905550836060015160088190555083608001516009819055508360a00151600a819055508360c00151600b8190555082600490805190602001906200019b929190620002d6565b508160059080519060200190620001b4929190620002d6565b508060069080519060200190620001cd929190620002d6565b508360e00151600f81905550600b54602081905550505050506200077a565b806002908051906020019062000204929190620002d6565b5050565b600033905090565b6000600360009054906101000a900473ffffffffffffffffffffffffffffffffffffffff16905081600360006101000a81548173ffffffffffffffffffffffffffffffffffffffff021916908373ffffffffffffffffffffffffffffffffffffffff1602179055508173ffffffffffffffffffffffffffffffffffffffff168173ffffffffffffffffffffffffffffffffffffffff167f8be0079c531659141344cd1fd0a4f28419497f9722a3daafe3b4186f6b6457e060405160405180910390a35050565b828054620002e4906200066c565b90600052602060002090601f01602090048101928262000308576000855562000354565b82601f106200032357805160ff191683800117855562000354565b8280016001018555821562000354579182015b828111156200035357825182559160200191906001019062000336565b5b50905062000363919062000367565b5090565b5b808211156200038257600081600090555060010162000368565b5090565b60006200039d6200039784620005f6565b620005cd565b905082815260208101848484011115620003bc57620003bb62000740565b5b620003c984828562000636565b509392505050565b600082601f830112620003e957620003e862000736565b5b8151620003fb84826020860162000386565b91505092915050565b600061010082840312156200041e576200041d6200073b565b5b6200042b610100620005cd565b905060006200043d84828501620004e3565b60008301525060206200045384828501620004e3565b60208301525060406200046984828501620004e3565b60408301525060606200047f84828501620004e3565b60608301525060806200049584828501620004e3565b60808301525060a0620004ab84828501620004e3565b60a08301525060c0620004c184828501620004e3565b60c08301525060e0620004d784828501620004e3565b60e08301525092915050565b600081519050620004f48162000760565b92915050565b60008060008061016085870312156200051857620005176200074a565b5b6000620005288782880162000404565b94505061010085015167ffffffffffffffff8111156200054d576200054c62000745565b5b6200055b87828801620003d1565b93505061012085015167ffffffffffffffff81111562000580576200057f62000745565b5b6200058e87828801620003d1565b92505061014085015167ffffffffffffffff811115620005b357620005b262000745565b5b620005c187828801620003d1565b91505092959194509250565b6000620005d9620005ec565b9050620005e78282620006a2565b919050565b6000604051905090565b600067ffffffffffffffff82111562000614576200061362000707565b5b6200061f826200074f565b9050602081019050919050565b6000819050919050565b60005b838110156200065657808201518184015260208101905062000639565b8381111562000666576000848401525b50505050565b600060028204905060018216806200068557607f821691505b602082108114156200069c576200069b620006d8565b5b50919050565b620006ad826200074f565b810181811067ffffffffffffffff82111715620006cf57620006ce62000707565b5b80604052505050565b7f4e487b7100000000000000000000000000000000000000000000000000000000600052602260045260246000fd5b7f4e487b7100000000000000000000000000000000000000000000000000000000600052604160045260246000fd5b600080fd5b600080fd5b600080fd5b600080fd5b600080fd5b6000601f19601f8301169050919050565b6200076b816200062c565b81146200077757600080fd5b50565b614bc5806200078a6000396000f3fe608060405234801561001057600080fd5b50600436106101d95760003560e01c8063747b805011610104578063bbb13e17116100a2578063e986655011610071578063e986655014610520578063f242432a1461052a578063f2fde38b14610546578063f9902bb114610562576101d9565b8063bbb13e17146104aa578063be59ec26146104b4578063d759000b146104d2578063e985e9c5146104f0576101d9565b80639a25ab83116100de5780639a25ab83146104385780639b19251a146104545780639ebf488b14610484578063a22cb4651461048e576101d9565b8063747b8050146103ba5780638d21c770146103ea5780638da5cb5b1461041a576101d9565b80632eb2c2d61161017c57806357f7789e1161014b57806357f7789e1461035a5780635ae698ff146103765780635d2db2bf146103a6578063715018a6146103b0576101d9565b80632eb2c2d6146102d257806344eaa84e146102ee5780634e1273f41461030c57806354dacb961461033c576101d9565b80630e89341c116101b85780630e89341c1461025c578063143cc1441461028c57806318e20a38146102aa57806319b60439146102c8576101d9565b8062fdd58e146101de57806301ffc9a71461020e57806306fdde031461023e575b600080fd5b6101f860048036038101906101f39190613209565b610592565b6040516102059190613e52565b60405180910390f35b6102286004803603810190610223919061330a565b61065b565b6040516102359190613b75565b60405180910390f35b61024661073d565b6040516102539190613b90565b60405180910390f35b61027660048036038101906102719190613364565b6107cb565b6040516102839190613b90565b60405180910390f35b610294610870565b6040516102a19190613e52565b60405180910390f35b6102b261087a565b6040516102bf9190613e52565b60405180910390f35b6102d0610880565b005b6102ec60048036038101906102e79190613063565b610928565b005b6102f66109c9565b6040516103039190613e52565b60405180910390f35b61032660048036038101906103219190613292565b6109d3565b6040516103339190613b1c565b60405180910390f35b610344610aec565b6040516103519190613e52565b60405180910390f35b610374600480360381019061036f9190613391565b610af2565b005b610390600480360381019061038b9190613249565b610bfc565b60405161039d9190613b75565b60405180910390f35b6103ae610ccc565b005b6103b8610deb565b005b6103d460048036038101906103cf9190612ff6565b610e73565b6040516103e19190613b75565b60405180910390f35b61040460048036038101906103ff9190613249565b610fbe565b6040516104119190613b75565b60405180910390f35b61042261108e565b60405161042f91906139ed565b60405180910390f35b610452600480360381019061044d9190613364565b6110b8565b005b61046e60048036038101906104699190612ff6565b6111b3565b60405161047b9190613b75565b60405180910390f35b61048c6111d3565b005b6104a860048036038101906104a391906131c9565b611360565b005b6104b2611376565b005b6104bc611597565b6040516104c99190613b75565b60405180910390f35b6104da6115aa565b6040516104e79190613e52565b60405180910390f35b61050a60048036038101906105059190613023565b6115b0565b6040516105179190613b75565b60405180910390f35b610528611644565b005b610544600480360381019061053f9190613132565b61171b565b005b610560600480360381019061055b9190612ff6565b6117bc565b005b61057c60048036038101906105779190612ff6565b6118b4565b6040516105899190613b75565b60405180910390f35b60008073ffffffffffffffffffffffffffffffffffffffff168373ffffffffffffffffffffffffffffffffffffffff161415610603576040517f08c379a00000000000000000000000000000000000000000000000000000000081526004016105fa90613bf2565b60405180910390fd5b60008083815260200190815260200160002060008473ffffffffffffffffffffffffffffffffffffffff1673ffffffffffffffffffffffffffffffffffffffff16815260200190815260200160002054905092915050565b60007fd9b67a26000000000000000000000000000000000000000000000000000000007bffffffffffffffffffffffffffffffffffffffffffffffffffffffff1916827bffffffffffffffffffffffffffffffffffffffffffffffffffffffff1916148061072657507f0e89341c000000000000000000000000000000000000000000000000000000007bffffffffffffffffffffffffffffffffffffffffffffffffffffffff1916827bffffffffffffffffffffffffffffffffffffffffffffffffffffffff1916145b80610736575061073582611a00565b5b9050919050565b6010805461074a9061420b565b80601f01602080910402602001604051908101604052809291908181526020018280546107769061420b565b80156107c35780601f10610798576101008083540402835291602001916107c3565b820191906000526020600020905b8154815290600101906020018083116107a657829003601f168201915b505050505081565b60606023600083815260200190815260200160002080546107eb9061420b565b80601f01602080910402602001604051908101604052809291908181526020018280546108179061420b565b80156108645780601f1061083957610100808354040283529160200191610864565b820191906000526020600020905b81548152906001019060200180831161084757829003601f168201915b50505050509050919050565b6000600d54905090565b600f5481565b610888611a6a565b73ffffffffffffffffffffffffffffffffffffffff166108a661108e565b73ffffffffffffffffffffffffffffffffffffffff16146108fc576040517f08c379a00000000000000000000000000000000000000000000000000000000081526004016108f390613d52565b60405180910390fd5b601160009054906101000a900460ff1615601160006101000a81548160ff021916908315150217905550565b610930611a6a565b73ffffffffffffffffffffffffffffffffffffffff168573ffffffffffffffffffffffffffffffffffffffff161480610976575061097585610970611a6a565b6115b0565b5b6109b5576040517f08c379a00000000000000000000000000000000000000000000000000000000081526004016109ac90613cd2565b60405180910390fd5b6109c28585858585611a72565b5050505050565b6000602254905090565b60608151835114610a19576040517f08c379a0000000000000000000000000000000000000000000000000000000008152600401610a1090613df2565b60405180910390fd5b6000835167ffffffffffffffff811115610a3657610a356143fc565b5b604051908082528060200260200182016040528015610a645781602001602082028036833780820191505090505b50905060005b8451811015610ae157610ab1858281518110610a8957610a886143cd565b5b6020026020010151858381518110610aa457610aa36143cd565b5b6020026020010151610592565b828281518110610ac457610ac36143cd565b5b60200260200101818152505080610ada9061426e565b9050610a6a565b508091505092915050565b60225481565b610afa611a6a565b73ffffffffffffffffffffffffffffffffffffffff16610b1861108e565b73ffffffffffffffffffffffffffffffffffffffff1614610b6e576040517f08c379a0000000000000000000000000000000000000000000000000000000008152600401610b6590613d52565b60405180910390fd5b6000602360008481526020019081526020016000208054610b8e9061420b565b905014610bd0576040517f08c379a0000000000000000000000000000000000000000000000000000000008152600401610bc790613cf2565b60405180910390fd5b80602360008481526020019081526020016000209080519060200190610bf7929190612cac565b505050565b6000610c06611a6a565b73ffffffffffffffffffffffffffffffffffffffff16610c2461108e565b73ffffffffffffffffffffffffffffffffffffffff1614610c7a576040517f08c379a0000000000000000000000000000000000000000000000000000000008152600401610c7190613d52565b60405180910390fd5b60005b8251811015610cc657610ca9838281518110610c9c57610c9b6143cd565b5b6020026020010151610e73565b15610cb357600191505b8080610cbe9061426e565b915050610c7d565b50919050565b610cd4611a6a565b73ffffffffffffffffffffffffffffffffffffffff16610cf261108e565b73ffffffffffffffffffffffffffffffffffffffff1614610d48576040517f08c379a0000000000000000000000000000000000000000000000000000000008152600401610d3f90613d52565b60405180910390fd5b60005b600c54811015610dbc576000600c5482601654610d689190614033565b610d72919061430f565b9050610da8816004610d8384611d86565b604051602001610d9492919061395f565b604051602081830303815290604052610af2565b508080610db49061426e565b915050610d4b565b50610de9600c546005604051602001610dd59190613948565b604051602081830303815290604052610af2565b565b610df3611a6a565b73ffffffffffffffffffffffffffffffffffffffff16610e1161108e565b73ffffffffffffffffffffffffffffffffffffffff1614610e67576040517f08c379a0000000000000000000000000000000000000000000000000000000008152600401610e5e90613d52565b60405180910390fd5b610e716000611ee7565b565b6000610e7d611a6a565b73ffffffffffffffffffffffffffffffffffffffff16610e9b61108e565b73ffffffffffffffffffffffffffffffffffffffff1614610ef1576040517f08c379a0000000000000000000000000000000000000000000000000000000008152600401610ee890613d52565b60405180910390fd5b602160008373ffffffffffffffffffffffffffffffffffffffff1673ffffffffffffffffffffffffffffffffffffffff16815260200190815260200160002060009054906101000a900460ff16610fb9576001602160008473ffffffffffffffffffffffffffffffffffffffff1673ffffffffffffffffffffffffffffffffffffffff16815260200190815260200160002060006101000a81548160ff021916908315150217905550600160226000828254610fad9190614033565b92505081905550600190505b919050565b6000610fc8611a6a565b73ffffffffffffffffffffffffffffffffffffffff16610fe661108e565b73ffffffffffffffffffffffffffffffffffffffff161461103c576040517f08c379a000000000000000000000000000000000000000000000000000000000815260040161103390613d52565b60405180910390fd5b60005b82518110156110885761106b83828151811061105e5761105d6143cd565b5b60200260200101516118b4565b1561107557600191505b80806110809061426e565b91505061103f565b50919050565b6000600360009054906101000a900473ffffffffffffffffffffffffffffffffffffffff16905090565b600d54600c546110c891906140ba565b60145410156111b057600d54602460008381526020019081526020016000205410611128576040517f08c379a000000000000000000000000000000000000000000000000000000000815260040161111f90613c92565b60405180910390fd5b61116a338260016040518060400160405280600481526020017f3078303000000000000000000000000000000000000000000000000000000000815250611fad565b600160246000838152602001908152602001600020600082825461118e9190614033565b925050819055506001601460008282546111a89190614033565b925050819055505b50565b60216020528060005260406000206000915054906101000a900460ff1681565b602160003373ffffffffffffffffffffffffffffffffffffffff1673ffffffffffffffffffffffffffffffffffffffff16815260200190815260200160002060009054906101000a900460ff1661125f576040517f08c379a000000000000000000000000000000000000000000000000000000000815260040161125690613c72565b60405180910390fd5b6000600c549050600b54601254106112ac576040517f08c379a00000000000000000000000000000000000000000000000000000000081526004016112a390613d92565b60405180910390fd5b6112ee338260016040518060400160405280600481526020017f3078303000000000000000000000000000000000000000000000000000000000815250611fad565b6001601260008282546113019190614033565b9250508190555060016020600082825461131b9190614114565b925050819055507f2e0f4d63dcc00e6a11c8aef9f6e15c1f9cd6e9a090b2dd99c7b797f1a28d300d33601254604051611355929190613aca565b60405180910390a150565b61137261136b611a6a565b8383612143565b5050565b602160003373ffffffffffffffffffffffffffffffffffffffff1673ffffffffffffffffffffffffffffffffffffffff16815260200190815260200160002060009054906101000a900460ff16611402576040517f08c379a00000000000000000000000000000000000000000000000000000000081526004016113f990613c72565b60405180910390fd5b6000600c549050601160009054906101000a900460ff16611458576040517f08c379a000000000000000000000000000000000000000000000000000000000815260040161144f90613db2565b60405180910390fd5b60006114643383610592565b116114a4576040517f08c379a000000000000000000000000000000000000000000000000000000000815260040161149b90613d72565b60405180910390fd5b6001602560003373ffffffffffffffffffffffffffffffffffffffff1673ffffffffffffffffffffffffffffffffffffffff16815260200190815260200160002060006101000a81548160ff02191690831515021790555060006115066122b0565b905060005b60058160ff16101561154d5761153a828260ff16600581106115305761152f6143cd565b5b60200201516110b8565b8080611545906142b7565b91505061150b565b5061155a33836001612394565b7f15abe0b63b201b70614c230381f0fabc4a26a1957629948558095a11db1d6fb5813360405161158b929190613af3565b60405180910390a15050565b601160009054906101000a900460ff1681565b60205481565b6000600160008473ffffffffffffffffffffffffffffffffffffffff1673ffffffffffffffffffffffffffffffffffffffff16815260200190815260200160002060008373ffffffffffffffffffffffffffffffffffffffff1673ffffffffffffffffffffffffffffffffffffffff16815260200190815260200160002060009054906101000a900460ff16905092915050565b61164c611a6a565b73ffffffffffffffffffffffffffffffffffffffff1661166a61108e565b73ffffffffffffffffffffffffffffffffffffffff16146116c0576040517f08c379a00000000000000000000000000000000000000000000000000000000081526004016116b790613d52565b60405180910390fd5b600d54600c546116d091906140ba565b6001436116dd9190614114565b4060001c6116eb919061430f565b601681905550600060165414156117195761171260016016546125b190919063ffffffff16565b6016819055505b565b611723611a6a565b73ffffffffffffffffffffffffffffffffffffffff168573ffffffffffffffffffffffffffffffffffffffff161480611769575061176885611763611a6a565b6115b0565b5b6117a8576040517f08c379a000000000000000000000000000000000000000000000000000000000815260040161179f90613c52565b60405180910390fd5b6117b585858585856125c7565b5050505050565b6117c4611a6a565b73ffffffffffffffffffffffffffffffffffffffff166117e261108e565b73ffffffffffffffffffffffffffffffffffffffff1614611838576040517f08c379a000000000000000000000000000000000000000000000000000000000815260040161182f90613d52565b60405180910390fd5b600073ffffffffffffffffffffffffffffffffffffffff168173ffffffffffffffffffffffffffffffffffffffff1614156118a8576040517f08c379a000000000000000000000000000000000000000000000000000000000815260040161189f90613c12565b60405180910390fd5b6118b181611ee7565b50565b60006118be611a6a565b73ffffffffffffffffffffffffffffffffffffffff166118dc61108e565b73ffffffffffffffffffffffffffffffffffffffff1614611932576040517f08c379a000000000000000000000000000000000000000000000000000000000815260040161192990613d52565b60405180910390fd5b602160008373ffffffffffffffffffffffffffffffffffffffff1673ffffffffffffffffffffffffffffffffffffffff16815260200190815260200160002060009054906101000a900460ff16156119fb576000602160008473ffffffffffffffffffffffffffffffffffffffff1673ffffffffffffffffffffffffffffffffffffffff16815260200190815260200160002060006101000a81548160ff0219169083151502179055506001602260008282546119ef9190614114565b92505081905550600190505b919050565b60007f01ffc9a7000000000000000000000000000000000000000000000000000000007bffffffffffffffffffffffffffffffffffffffffffffffffffffffff1916827bffffffffffffffffffffffffffffffffffffffffffffffffffffffff1916149050919050565b600033905090565b8151835114611ab6576040517f08c379a0000000000000000000000000000000000000000000000000000000008152600401611aad90613e12565b60405180910390fd5b600073ffffffffffffffffffffffffffffffffffffffff168473ffffffffffffffffffffffffffffffffffffffff161415611b26576040517f08c379a0000000000000000000000000000000000000000000000000000000008152600401611b1d90613cb2565b60405180910390fd5b6000611b30611a6a565b9050611b40818787878787612849565b60005b8451811015611cf1576000858281518110611b6157611b606143cd565b5b602002602001015190506000858381518110611b8057611b7f6143cd565b5b60200260200101519050600080600084815260200190815260200160002060008b73ffffffffffffffffffffffffffffffffffffffff1673ffffffffffffffffffffffffffffffffffffffff16815260200190815260200160002054905081811015611c21576040517f08c379a0000000000000000000000000000000000000000000000000000000008152600401611c1890613d32565b60405180910390fd5b81810360008085815260200190815260200160002060008c73ffffffffffffffffffffffffffffffffffffffff1673ffffffffffffffffffffffffffffffffffffffff168152602001908152602001600020819055508160008085815260200190815260200160002060008b73ffffffffffffffffffffffffffffffffffffffff1673ffffffffffffffffffffffffffffffffffffffff1681526020019081526020016000206000828254611cd69190614033565b9250508190555050505080611cea9061426e565b9050611b43565b508473ffffffffffffffffffffffffffffffffffffffff168673ffffffffffffffffffffffffffffffffffffffff168273ffffffffffffffffffffffffffffffffffffffff167f4a39dc06d4c0dbc64b70af90fd698a233a518aa5d07e595d983b8c0526c8f7fb8787604051611d68929190613b3e565b60405180910390a4611d7e818787878787612851565b505050505050565b60606000821415611dce576040518060400160405280600181526020017f30000000000000000000000000000000000000000000000000000000000000008152509050611ee2565b600082905060005b60008214611e00578080611de99061426e565b915050600a82611df99190614089565b9150611dd6565b60008167ffffffffffffffff811115611e1c57611e1b6143fc565b5b6040519080825280601f01601f191660200182016040528015611e4e5781602001600182028036833780820191505090505b5090505b60008514611edb57600182611e679190614114565b9150600a85611e76919061430f565b6030611e829190614033565b60f81b818381518110611e9857611e976143cd565b5b60200101907effffffffffffffffffffffffffffffffffffffffffffffffffffffffffffff1916908160001a905350600a85611ed49190614089565b9450611e52565b8093505050505b919050565b6000600360009054906101000a900473ffffffffffffffffffffffffffffffffffffffff16905081600360006101000a81548173ffffffffffffffffffffffffffffffffffffffff021916908373ffffffffffffffffffffffffffffffffffffffff1602179055508173ffffffffffffffffffffffffffffffffffffffff168173ffffffffffffffffffffffffffffffffffffffff167f8be0079c531659141344cd1fd0a4f28419497f9722a3daafe3b4186f6b6457e060405160405180910390a35050565b600073ffffffffffffffffffffffffffffffffffffffff168473ffffffffffffffffffffffffffffffffffffffff16141561201d576040517f08c379a000000000000000000000000000000000000000000000000000000000815260040161201490613e32565b60405180910390fd5b6000612027611a6a565b90506120488160008761203988612a38565b61204288612a38565b87612849565b8260008086815260200190815260200160002060008773ffffffffffffffffffffffffffffffffffffffff1673ffffffffffffffffffffffffffffffffffffffff16815260200190815260200160002060008282546120a79190614033565b925050819055508473ffffffffffffffffffffffffffffffffffffffff16600073ffffffffffffffffffffffffffffffffffffffff168273ffffffffffffffffffffffffffffffffffffffff167fc3d58168c5ae7397731d063d5bbf3d657854427343f4c083240f7aacaa2d0f628787604051612125929190613e6d565b60405180910390a461213c81600087878787612ab2565b5050505050565b8173ffffffffffffffffffffffffffffffffffffffff168373ffffffffffffffffffffffffffffffffffffffff1614156121b2576040517f08c379a00000000000000000000000000000000000000000000000000000000081526004016121a990613dd2565b60405180910390fd5b80600160008573ffffffffffffffffffffffffffffffffffffffff1673ffffffffffffffffffffffffffffffffffffffff16815260200190815260200160002060008473ffffffffffffffffffffffffffffffffffffffff1673ffffffffffffffffffffffffffffffffffffffff16815260200190815260200160002060006101000a81548160ff0219169083151502179055508173ffffffffffffffffffffffffffffffffffffffff168373ffffffffffffffffffffffffffffffffffffffff167f17307eab39ab6107e8899845ad3d59bd9653f200f220920489ca2b5937696c31836040516122a39190613b75565b60405180910390a3505050565b6122b8612d32565b6122c0612d32565b60005b600581101561238c576000600a826122db91906140ba565b905060006009600a846122ee91906140ba565b6122f89190614033565b905081600183836123099190614114565b6123139190614033565b4233448760125460405160200161232e95949392919061398e565b6040516020818303038152906040528051906020012060001c612351919061430f565b61235b9190614033565b84846005811061236e5761236d6143cd565b5b602002018181525050505080806123849061426e565b9150506122c3565b508091505090565b600073ffffffffffffffffffffffffffffffffffffffff168373ffffffffffffffffffffffffffffffffffffffff161415612404576040517f08c379a00000000000000000000000000000000000000000000000000000000081526004016123fb90613d12565b60405180910390fd5b600061240e611a6a565b905061243e8185600061242087612a38565b61242987612a38565b60405180602001604052806000815250612849565b600080600085815260200190815260200160002060008673ffffffffffffffffffffffffffffffffffffffff1673ffffffffffffffffffffffffffffffffffffffff168152602001908152602001600020549050828110156124d5576040517f08c379a00000000000000000000000000000000000000000000000000000000081526004016124cc90613c32565b60405180910390fd5b82810360008086815260200190815260200160002060008773ffffffffffffffffffffffffffffffffffffffff1673ffffffffffffffffffffffffffffffffffffffff16815260200190815260200160002081905550600073ffffffffffffffffffffffffffffffffffffffff168573ffffffffffffffffffffffffffffffffffffffff168373ffffffffffffffffffffffffffffffffffffffff167fc3d58168c5ae7397731d063d5bbf3d657854427343f4c083240f7aacaa2d0f6287876040516125a2929190613e6d565b60405180910390a45050505050565b600081836125bf9190614033565b905092915050565b600073ffffffffffffffffffffffffffffffffffffffff168473ffffffffffffffffffffffffffffffffffffffff161415612637576040517f08c379a000000000000000000000000000000000000000000000000000000000815260040161262e90613cb2565b60405180910390fd5b6000612641611a6a565b905061266181878761265288612a38565b61265b88612a38565b87612849565b600080600086815260200190815260200160002060008873ffffffffffffffffffffffffffffffffffffffff1673ffffffffffffffffffffffffffffffffffffffff168152602001908152602001600020549050838110156126f8576040517f08c379a00000000000000000000000000000000000000000000000000000000081526004016126ef90613d32565b60405180910390fd5b83810360008087815260200190815260200160002060008973ffffffffffffffffffffffffffffffffffffffff1673ffffffffffffffffffffffffffffffffffffffff168152602001908152602001600020819055508360008087815260200190815260200160002060008873ffffffffffffffffffffffffffffffffffffffff1673ffffffffffffffffffffffffffffffffffffffff16815260200190815260200160002060008282546127ad9190614033565b925050819055508573ffffffffffffffffffffffffffffffffffffffff168773ffffffffffffffffffffffffffffffffffffffff168373ffffffffffffffffffffffffffffffffffffffff167fc3d58168c5ae7397731d063d5bbf3d657854427343f4c083240f7aacaa2d0f62888860405161282a929190613e6d565b60405180910390a4612840828888888888612ab2565b50505050505050565b505050505050565b6128708473ffffffffffffffffffffffffffffffffffffffff16612c99565b15612a30578373ffffffffffffffffffffffffffffffffffffffff1663bc197c8187878686866040518663ffffffff1660e01b81526004016128b6959493929190613a08565b602060405180830381600087803b1580156128d057600080fd5b505af192505050801561290157506040513d601f19601f820116820180604052508101906128fe9190613337565b60015b6129a75761290d61442b565b806308c379a0141561296a5750612922614a9d565b8061292d575061296c565b806040517f08c379a00000000000000000000000000000000000000000000000000000000081526004016129619190613b90565b60405180910390fd5b505b6040517f08c379a000000000000000000000000000000000000000000000000000000000815260040161299e90613bb2565b60405180910390fd5b63bc197c8160e01b7bffffffffffffffffffffffffffffffffffffffffffffffffffffffff1916817bffffffffffffffffffffffffffffffffffffffffffffffffffffffff191614612a2e576040517f08c379a0000000000000000000000000000000000000000000000000000000008152600401612a2590613bd2565b60405180910390fd5b505b505050505050565b60606000600167ffffffffffffffff811115612a5757612a566143fc565b5b604051908082528060200260200182016040528015612a855781602001602082028036833780820191505090505b5090508281600081518110612a9d57612a9c6143cd565b5b60200260200101818152505080915050919050565b612ad18473ffffffffffffffffffffffffffffffffffffffff16612c99565b15612c91578373ffffffffffffffffffffffffffffffffffffffff1663f23a6e6187878686866040518663ffffffff1660e01b8152600401612b17959493929190613a70565b602060405180830381600087803b158015612b3157600080fd5b505af1925050508015612b6257506040513d601f19601f82011682018060405250810190612b5f9190613337565b60015b612c0857612b6e61442b565b806308c379a01415612bcb5750612b83614a9d565b80612b8e5750612bcd565b806040517f08c379a0000000000000000000000000000000000000000000000000000000008152600401612bc29190613b90565b60405180910390fd5b505b6040517f08c379a0000000000000000000000000000000000000000000000000000000008152600401612bff90613bb2565b60405180910390fd5b63f23a6e6160e01b7bffffffffffffffffffffffffffffffffffffffffffffffffffffffff1916817bffffffffffffffffffffffffffffffffffffffffffffffffffffffff191614612c8f576040517f08c379a0000000000000000000000000000000000000000000000000000000008152600401612c8690613bd2565b60405180910390fd5b505b505050505050565b600080823b905060008111915050919050565b828054612cb89061420b565b90600052602060002090601f016020900481019282612cda5760008555612d21565b82601f10612cf357805160ff1916838001178555612d21565b82800160010185558215612d21579182015b82811115612d20578251825591602001919060010190612d05565b5b509050612d2e9190612d54565b5090565b6040518060a00160405280600590602082028036833780820191505090505090565b5b80821115612d6d576000816000905550600101612d55565b5090565b6000612d84612d7f84613ebb565b613e96565b90508083825260208201905082856020860282011115612da757612da6614452565b5b60005b85811015612dd75781612dbd8882612ed5565b845260208401935060208301925050600181019050612daa565b5050509392505050565b6000612df4612def84613ee7565b613e96565b90508083825260208201905082856020860282011115612e1757612e16614452565b5b60005b85811015612e475781612e2d8882612fe1565b845260208401935060208301925050600181019050612e1a565b5050509392505050565b6000612e64612e5f84613f13565b613e96565b905082815260208101848484011115612e8057612e7f614457565b5b612e8b8482856141c9565b509392505050565b6000612ea6612ea184613f44565b613e96565b905082815260208101848484011115612ec257612ec1614457565b5b612ecd8482856141c9565b509392505050565b600081359050612ee481614b33565b92915050565b600082601f830112612eff57612efe61444d565b5b8135612f0f848260208601612d71565b91505092915050565b600082601f830112612f2d57612f2c61444d565b5b8135612f3d848260208601612de1565b91505092915050565b600081359050612f5581614b4a565b92915050565b600081359050612f6a81614b61565b92915050565b600081519050612f7f81614b61565b92915050565b600082601f830112612f9a57612f9961444d565b5b8135612faa848260208601612e51565b91505092915050565b600082601f830112612fc857612fc761444d565b5b8135612fd8848260208601612e93565b91505092915050565b600081359050612ff081614b78565b92915050565b60006020828403121561300c5761300b614461565b5b600061301a84828501612ed5565b91505092915050565b6000806040838503121561303a57613039614461565b5b600061304885828601612ed5565b925050602061305985828601612ed5565b9150509250929050565b600080600080600060a0868803121561307f5761307e614461565b5b600061308d88828901612ed5565b955050602061309e88828901612ed5565b945050604086013567ffffffffffffffff8111156130bf576130be61445c565b5b6130cb88828901612f18565b935050606086013567ffffffffffffffff8111156130ec576130eb61445c565b5b6130f888828901612f18565b925050608086013567ffffffffffffffff8111156131195761311861445c565b5b61312588828901612f85565b9150509295509295909350565b600080600080600060a0868803121561314e5761314d614461565b5b600061315c88828901612ed5565b955050602061316d88828901612ed5565b945050604061317e88828901612fe1565b935050606061318f88828901612fe1565b925050608086013567ffffffffffffffff8111156131b0576131af61445c565b5b6131bc88828901612f85565b9150509295509295909350565b600080604083850312156131e0576131df614461565b5b60006131ee85828601612ed5565b92505060206131ff85828601612f46565b9150509250929050565b600080604083850312156132205761321f614461565b5b600061322e85828601612ed5565b925050602061323f85828601612fe1565b9150509250929050565b60006020828403121561325f5761325e614461565b5b600082013567ffffffffffffffff81111561327d5761327c61445c565b5b61328984828501612eea565b91505092915050565b600080604083850312156132a9576132a8614461565b5b600083013567ffffffffffffffff8111156132c7576132c661445c565b5b6132d385828601612eea565b925050602083013567ffffffffffffffff8111156132f4576132f361445c565b5b61330085828601612f18565b9150509250929050565b6000602082840312156133205761331f614461565b5b600061332e84828501612f5b565b91505092915050565b60006020828403121561334d5761334c614461565b5b600061335b84828501612f70565b91505092915050565b60006020828403121561337a57613379614461565b5b600061338884828501612fe1565b91505092915050565b600080604083850312156133a8576133a7614461565b5b60006133b685828601612fe1565b925050602083013567ffffffffffffffff8111156133d7576133d661445c565b5b6133e385828601612fb3565b9150509250929050565b60006133f98383613913565b60208301905092915050565b61340e81614148565b82525050565b61342561342082614148565b6142e1565b82525050565b61343481613fa4565b61343e8184613fea565b925061344982613f75565b8060005b8381101561347a57815161346187826133ed565b965061346c83613fd0565b92505060018101905061344d565b505050505050565b600061348d82613faf565b6134978185613ff5565b93506134a283613f7f565b8060005b838110156134d35781516134ba88826133ed565b97506134c583613fdd565b9250506001810190506134a6565b5085935050505092915050565b6134e98161415a565b82525050565b60006134fa82613fba565b6135048185614006565b93506135148185602086016141d8565b61351d81614466565b840191505092915050565b600061353382613fc5565b61353d8185614017565b935061354d8185602086016141d8565b61355681614466565b840191505092915050565b600061356c82613fc5565b6135768185614028565b93506135868185602086016141d8565b80840191505092915050565b6000815461359f8161420b565b6135a98186614028565b945060018216600081146135c457600181146135d557613608565b60ff19831686528186019350613608565b6135de85613f8f565b60005b83811015613600578154818901526001820191506020810190506135e1565b838801955050505b50505092915050565b600061361e603483614017565b915061362982614491565b604082019050919050565b6000613641602883614017565b915061364c826144e0565b604082019050919050565b6000613664602b83614017565b915061366f8261452f565b604082019050919050565b6000613687602683614017565b91506136928261457e565b604082019050919050565b60006136aa602483614017565b91506136b5826145cd565b604082019050919050565b60006136cd602983614017565b91506136d88261461c565b604082019050919050565b60006136f0601883614017565b91506136fb8261466b565b602082019050919050565b6000613713602d83614017565b915061371e82614694565b604082019050919050565b6000613736602583614017565b9150613741826146e3565b604082019050919050565b6000613759603283614017565b915061376482614732565b604082019050919050565b600061377c601483614017565b915061378782614781565b602082019050919050565b600061379f602383614017565b91506137aa826147aa565b604082019050919050565b60006137c2602a83614017565b91506137cd826147f9565b604082019050919050565b60006137e5600583614028565b91506137f082614848565b600582019050919050565b6000613808602083614017565b915061381382614871565b602082019050919050565b600061382b602b83614017565b91506138368261489a565b604082019050919050565b600061384e602383614017565b9150613859826148e9565b604082019050919050565b6000613871601f83614017565b915061387c82614938565b602082019050919050565b6000613894602983614017565b915061389f82614961565b604082019050919050565b60006138b7602983614017565b91506138c2826149b0565b604082019050919050565b60006138da602883614017565b91506138e5826149ff565b604082019050919050565b60006138fd602183614017565b915061390882614a4e565b604082019050919050565b61391c816141b2565b82525050565b61392b816141b2565b82525050565b61394261393d826141b2565b614305565b82525050565b60006139548284613592565b915081905092915050565b600061396b8285613592565b91506139778284613561565b9150613982826137d8565b91508190509392505050565b600061399a8288613931565b6020820191506139aa8287613414565b6014820191506139ba8286613931565b6020820191506139ca8285613931565b6020820191506139da8284613931565b6020820191508190509695505050505050565b6000602082019050613a026000830184613405565b92915050565b600060a082019050613a1d6000830188613405565b613a2a6020830187613405565b8181036040830152613a3c8186613482565b90508181036060830152613a508185613482565b90508181036080830152613a6481846134ef565b90509695505050505050565b600060a082019050613a856000830188613405565b613a926020830187613405565b613a9f6040830186613922565b613aac6060830185613922565b8181036080830152613abe81846134ef565b90509695505050505050565b6000604082019050613adf6000830185613405565b613aec6020830184613922565b9392505050565b600060c082019050613b08600083018561342b565b613b1560a0830184613405565b9392505050565b60006020820190508181036000830152613b368184613482565b905092915050565b60006040820190508181036000830152613b588185613482565b90508181036020830152613b6c8184613482565b90509392505050565b6000602082019050613b8a60008301846134e0565b92915050565b60006020820190508181036000830152613baa8184613528565b905092915050565b60006020820190508181036000830152613bcb81613611565b9050919050565b60006020820190508181036000830152613beb81613634565b9050919050565b60006020820190508181036000830152613c0b81613657565b9050919050565b60006020820190508181036000830152613c2b8161367a565b9050919050565b60006020820190508181036000830152613c4b8161369d565b9050919050565b60006020820190508181036000830152613c6b816136c0565b9050919050565b60006020820190508181036000830152613c8b816136e3565b9050919050565b60006020820190508181036000830152613cab81613706565b9050919050565b60006020820190508181036000830152613ccb81613729565b9050919050565b60006020820190508181036000830152613ceb8161374c565b9050919050565b60006020820190508181036000830152613d0b8161376f565b9050919050565b60006020820190508181036000830152613d2b81613792565b9050919050565b60006020820190508181036000830152613d4b816137b5565b9050919050565b60006020820190508181036000830152613d6b816137fb565b9050919050565b60006020820190508181036000830152613d8b8161381e565b9050919050565b60006020820190508181036000830152613dab81613841565b9050919050565b60006020820190508181036000830152613dcb81613864565b9050919050565b60006020820190508181036000830152613deb81613887565b9050919050565b60006020820190508181036000830152613e0b816138aa565b9050919050565b60006020820190508181036000830152613e2b816138cd565b9050919050565b60006020820190508181036000830152613e4b816138f0565b9050919050565b6000602082019050613e676000830184613922565b92915050565b6000604082019050613e826000830185613922565b613e8f6020830184613922565b9392505050565b6000613ea0613eb1565b9050613eac828261423d565b919050565b6000604051905090565b600067ffffffffffffffff821115613ed657613ed56143fc565b5b602082029050602081019050919050565b600067ffffffffffffffff821115613f0257613f016143fc565b5b602082029050602081019050919050565b600067ffffffffffffffff821115613f2e57613f2d6143fc565b5b613f3782614466565b9050602081019050919050565b600067ffffffffffffffff821115613f5f57613f5e6143fc565b5b613f6882614466565b9050602081019050919050565b6000819050919050565b6000819050602082019050919050565b60008190508160005260206000209050919050565b600060059050919050565b600081519050919050565b600081519050919050565b600081519050919050565b6000602082019050919050565b6000602082019050919050565b600081905092915050565b600082825260208201905092915050565b600082825260208201905092915050565b600082825260208201905092915050565b600081905092915050565b600061403e826141b2565b9150614049836141b2565b9250827fffffffffffffffffffffffffffffffffffffffffffffffffffffffffffffffff0382111561407e5761407d614340565b5b828201905092915050565b6000614094826141b2565b915061409f836141b2565b9250826140af576140ae61436f565b5b828204905092915050565b60006140c5826141b2565b91506140d0836141b2565b9250817fffffffffffffffffffffffffffffffffffffffffffffffffffffffffffffffff048311821515161561410957614108614340565b5b828202905092915050565b600061411f826141b2565b915061412a836141b2565b92508282101561413d5761413c614340565b5b828203905092915050565b600061415382614192565b9050919050565b60008115159050919050565b60007fffffffff0000000000000000000000000000000000000000000000000000000082169050919050565b600073ffffffffffffffffffffffffffffffffffffffff82169050919050565b6000819050919050565b600060ff82169050919050565b82818337600083830152505050565b60005b838110156141f65780820151818401526020810190506141db565b83811115614205576000848401525b50505050565b6000600282049050600182168061422357607f821691505b602082108114156142375761423661439e565b5b50919050565b61424682614466565b810181811067ffffffffffffffff82111715614265576142646143fc565b5b80604052505050565b6000614279826141b2565b91507fffffffffffffffffffffffffffffffffffffffffffffffffffffffffffffffff8214156142ac576142ab614340565b5b600182019050919050565b60006142c2826141bc565b915060ff8214156142d6576142d5614340565b5b600182019050919050565b60006142ec826142f3565b9050919050565b60006142fe82614477565b9050919050565b6000819050919050565b600061431a826141b2565b9150614325836141b2565b9250826143355761433461436f565b5b828206905092915050565b7f4e487b7100000000000000000000000000000000000000000000000000000000600052601160045260246000fd5b7f4e487b7100000000000000000000000000000000000000000000000000000000600052601260045260246000fd5b7f4e487b7100000000000000000000000000000000000000000000000000000000600052602260045260246000fd5b7f4e487b7100000000000000000000000000000000000000000000000000000000600052603260045260246000fd5b7f4e487b7100000000000000000000000000000000000000000000000000000000600052604160045260246000fd5b600060033d111561444a5760046000803e614447600051614484565b90505b90565b600080fd5b600080fd5b600080fd5b600080fd5b600080fd5b6000601f19601f8301169050919050565b60008160601b9050919050565b60008160e01c9050919050565b7f455243313135353a207472616e7366657220746f206e6f6e204552433131353560008201527f526563656976657220696d706c656d656e746572000000000000000000000000602082015250565b7f455243313135353a204552433131353552656365697665722072656a6563746560008201527f6420746f6b656e73000000000000000000000000000000000000000000000000602082015250565b7f455243313135353a2062616c616e636520717565727920666f7220746865207a60008201527f65726f2061646472657373000000000000000000000000000000000000000000602082015250565b7f4f776e61626c653a206e6577206f776e657220697320746865207a65726f206160008201527f6464726573730000000000000000000000000000000000000000000000000000602082015250565b7f455243313135353a206275726e20616d6f756e7420657863656564732062616c60008201527f616e636500000000000000000000000000000000000000000000000000000000602082015250565b7f455243313135353a2063616c6c6572206973206e6f74206f776e6572206e6f7260008201527f20617070726f7665640000000000000000000000000000000000000000000000602082015250565b7f55736572206973206e6f742077686974656c69737465642e0000000000000000600082015250565b7f416c6c206f662074686973206174686c657465206861766520616c726561647960008201527f206265656e206d696e7465642100000000000000000000000000000000000000602082015250565b7f455243313135353a207472616e7366657220746f20746865207a65726f20616460008201527f6472657373000000000000000000000000000000000000000000000000000000602082015250565b7f455243313135353a207472616e736665722063616c6c6572206973206e6f742060008201527f6f776e6572206e6f7220617070726f7665640000000000000000000000000000602082015250565b7f43616e6e6f742073657420757269207477696365000000000000000000000000600082015250565b7f455243313135353a206275726e2066726f6d20746865207a65726f206164647260008201527f6573730000000000000000000000000000000000000000000000000000000000602082015250565b7f455243313135353a20696e73756666696369656e742062616c616e636520666f60008201527f72207472616e7366657200000000000000000000000000000000000000000000602082015250565b7f2e6a736f6e000000000000000000000000000000000000000000000000000000600082015250565b7f4f776e61626c653a2063616c6c6572206973206e6f7420746865206f776e6572600082015250565b7f53746172746572207061636b20646f6573206e6f7420657869737420696e207560008201527f736572732077616c6c6574000000000000000000000000000000000000000000602082015250565b7f416c6c207061636b73206861766520616c7265616479206265656e206d696e7460008201527f6564210000000000000000000000000000000000000000000000000000000000602082015250565b7f5061636b73206172656e277420726561647920746f206f70656e207965742100600082015250565b7f455243313135353a2073657474696e6720617070726f76616c2073746174757360008201527f20666f722073656c660000000000000000000000000000000000000000000000602082015250565b7f455243313135353a206163636f756e747320616e6420696473206c656e67746860008201527f206d69736d617463680000000000000000000000000000000000000000000000602082015250565b7f455243313135353a2069647320616e6420616d6f756e7473206c656e6774682060008201527f6d69736d61746368000000000000000000000000000000000000000000000000602082015250565b7f455243313135353a206d696e7420746f20746865207a65726f2061646472657360008201527f7300000000000000000000000000000000000000000000000000000000000000602082015250565b600060443d1015614aad57614b30565b614ab5613eb1565b60043d036004823e80513d602482011167ffffffffffffffff82111715614add575050614b30565b808201805167ffffffffffffffff811115614afb5750505050614b30565b80602083010160043d038501811115614b18575050505050614b30565b614b278260200185018661423d565b82955050505050505b90565b614b3c81614148565b8114614b4757600080fd5b50565b614b538161415a565b8114614b5e57600080fd5b50565b614b6a81614166565b8114614b7557600080fd5b50565b614b81816141b2565b8114614b8c57600080fd5b5056fea2646970667358221220636711cf1b8ef92effe524ac7de0037f3ab29a5d3ab0e03ed1338f3f73d36ae764736f6c63430008070033",
  "linkReferences": {},
  "deployedLinkReferences": {}
}