{
  "_format": "hh-sol-artifact-1",
  "contractName": "GameItems",
  "sourceName": "contracts/GameItems.sol",
  "abi": [
    {
      "inputs": [
        {
          "components": [
            {
              "internalType": "uint256",
              "name": "_numAthletes",
              "type": "uint256"
            },
            {
              "internalType": "uint256",
              "name": "_nftPerAthlete",
              "type": "uint256"
            },
            {
              "internalType": "uint256",
              "name": "_starterPackSize",
              "type": "uint256"
            },
            {
              "internalType": "uint256",
              "name": "_boosterPackSize",
              "type": "uint256"
            },
            {
              "internalType": "uint256",
              "name": "_maxStarterPackBalance",
              "type": "uint256"
            },
            {
              "internalType": "uint256",
              "name": "_maxBoosterPackBalance",
              "type": "uint256"
            },
            {
              "internalType": "uint256",
              "name": "_maxPacks",
              "type": "uint256"
            },
            {
              "internalType": "uint256",
              "name": "_revealTimestamp",
              "type": "uint256"
            }
          ],
          "internalType": "struct GameItems.Parameters",
          "name": "params",
          "type": "tuple"
        },
        {
          "internalType": "string",
          "name": "_athleteURI",
          "type": "string"
        },
        {
          "internalType": "string",
          "name": "_starterPackURI",
          "type": "string"
        },
        {
          "internalType": "string",
          "name": "_boosterPackURI",
          "type": "string"
        }
      ],
      "stateMutability": "nonpayable",
      "type": "constructor"
    },
    {
      "anonymous": false,
      "inputs": [
        {
          "indexed": true,
          "internalType": "address",
          "name": "account",
          "type": "address"
        },
        {
          "indexed": true,
          "internalType": "address",
          "name": "operator",
          "type": "address"
        },
        {
          "indexed": false,
          "internalType": "bool",
          "name": "approved",
          "type": "bool"
        }
      ],
      "name": "ApprovalForAll",
      "type": "event"
    },
    {
      "anonymous": false,
      "inputs": [
        {
          "indexed": true,
          "internalType": "address",
          "name": "previousOwner",
          "type": "address"
        },
        {
          "indexed": true,
          "internalType": "address",
          "name": "newOwner",
          "type": "address"
        }
      ],
      "name": "OwnershipTransferred",
      "type": "event"
    },
    {
      "anonymous": false,
      "inputs": [
        {
          "indexed": true,
          "internalType": "address",
          "name": "operator",
          "type": "address"
        },
        {
          "indexed": true,
          "internalType": "address",
          "name": "from",
          "type": "address"
        },
        {
          "indexed": true,
          "internalType": "address",
          "name": "to",
          "type": "address"
        },
        {
          "indexed": false,
          "internalType": "uint256[]",
          "name": "ids",
          "type": "uint256[]"
        },
        {
          "indexed": false,
          "internalType": "uint256[]",
          "name": "values",
          "type": "uint256[]"
        }
      ],
      "name": "TransferBatch",
      "type": "event"
    },
    {
      "anonymous": false,
      "inputs": [
        {
          "indexed": true,
          "internalType": "address",
          "name": "operator",
          "type": "address"
        },
        {
          "indexed": true,
          "internalType": "address",
          "name": "from",
          "type": "address"
        },
        {
          "indexed": true,
          "internalType": "address",
          "name": "to",
          "type": "address"
        },
        {
          "indexed": false,
          "internalType": "uint256",
          "name": "id",
          "type": "uint256"
        },
        {
          "indexed": false,
          "internalType": "uint256",
          "name": "value",
          "type": "uint256"
        }
      ],
      "name": "TransferSingle",
      "type": "event"
    },
    {
      "anonymous": false,
      "inputs": [
        {
          "indexed": false,
          "internalType": "string",
          "name": "value",
          "type": "string"
        },
        {
          "indexed": true,
          "internalType": "uint256",
          "name": "id",
          "type": "uint256"
        }
      ],
      "name": "URI",
      "type": "event"
    },
    {
      "anonymous": false,
      "inputs": [
        {
          "indexed": false,
          "internalType": "uint256[5]",
          "name": "",
          "type": "uint256[5]"
        },
        {
          "indexed": false,
          "internalType": "address",
          "name": "signer",
          "type": "address"
        }
      ],
      "name": "packBurned",
      "type": "event"
    },
    {
      "anonymous": false,
      "inputs": [
        {
          "indexed": false,
          "internalType": "address",
          "name": "signer",
          "type": "address"
        },
        {
          "indexed": false,
          "internalType": "uint256",
          "name": "id",
          "type": "uint256"
        }
      ],
      "name": "packMinted",
      "type": "event"
    },
    {
      "inputs": [],
      "name": "REVEAL_TIMESTAMP",
      "outputs": [
        {
          "internalType": "uint256",
          "name": "",
          "type": "uint256"
        }
      ],
      "stateMutability": "view",
      "type": "function"
    },
    {
      "inputs": [
        {
          "internalType": "address",
          "name": "_userToAdd",
          "type": "address"
        }
      ],
      "name": "addUserToWhitelist",
      "outputs": [
        {
          "internalType": "bool",
          "name": "success",
          "type": "bool"
        }
      ],
      "stateMutability": "nonpayable",
      "type": "function"
    },
    {
      "inputs": [
        {
          "internalType": "address[]",
          "name": "addrs",
          "type": "address[]"
        }
      ],
      "name": "addUsersToWhitelist",
      "outputs": [
        {
          "internalType": "bool",
          "name": "success",
          "type": "bool"
        }
      ],
      "stateMutability": "nonpayable",
      "type": "function"
    },
    {
      "inputs": [
        {
          "internalType": "address",
          "name": "account",
          "type": "address"
        },
        {
          "internalType": "uint256",
          "name": "id",
          "type": "uint256"
        }
      ],
      "name": "balanceOf",
      "outputs": [
        {
          "internalType": "uint256",
          "name": "",
          "type": "uint256"
        }
      ],
      "stateMutability": "view",
      "type": "function"
    },
    {
      "inputs": [
        {
          "internalType": "address[]",
          "name": "accounts",
          "type": "address[]"
        },
        {
          "internalType": "uint256[]",
          "name": "ids",
          "type": "uint256[]"
        }
      ],
      "name": "balanceOfBatch",
      "outputs": [
        {
          "internalType": "uint256[]",
          "name": "",
          "type": "uint256[]"
        }
      ],
      "stateMutability": "view",
      "type": "function"
    },
    {
      "inputs": [],
      "name": "burnStarterPack",
      "outputs": [],
      "stateMutability": "nonpayable",
      "type": "function"
    },
    {
      "inputs": [],
      "name": "getNFTPerAthlete",
      "outputs": [
        {
          "internalType": "uint256",
          "name": "",
          "type": "uint256"
        }
      ],
      "stateMutability": "view",
      "type": "function"
    },
    {
      "inputs": [],
      "name": "getNumWhitelisted",
      "outputs": [
        {
          "internalType": "uint256",
          "name": "",
          "type": "uint256"
        }
      ],
      "stateMutability": "view",
      "type": "function"
    },
    {
      "inputs": [
        {
          "internalType": "address",
          "name": "account",
          "type": "address"
        },
        {
          "internalType": "address",
          "name": "operator",
          "type": "address"
        }
      ],
      "name": "isApprovedForAll",
      "outputs": [
        {
          "internalType": "bool",
          "name": "",
          "type": "bool"
        }
      ],
      "stateMutability": "view",
      "type": "function"
    },
    {
      "inputs": [
        {
          "internalType": "uint256",
          "name": "index",
          "type": "uint256"
        }
      ],
      "name": "mintAthlete",
      "outputs": [],
      "stateMutability": "nonpayable",
      "type": "function"
    },
    {
      "inputs": [],
      "name": "mintStarterPack",
      "outputs": [],
      "stateMutability": "nonpayable",
      "type": "function"
    },
    {
      "inputs": [],
      "name": "name",
      "outputs": [
        {
          "internalType": "string",
          "name": "",
          "type": "string"
        }
      ],
      "stateMutability": "view",
      "type": "function"
    },
    {
      "inputs": [],
      "name": "numWhitelisted",
      "outputs": [
        {
          "internalType": "uint256",
          "name": "",
          "type": "uint256"
        }
      ],
      "stateMutability": "view",
      "type": "function"
    },
    {
      "inputs": [],
      "name": "owner",
      "outputs": [
        {
          "internalType": "address",
          "name": "",
          "type": "address"
        }
      ],
      "stateMutability": "view",
      "type": "function"
    },
    {
      "inputs": [],
      "name": "packsAvailable",
      "outputs": [
        {
          "internalType": "uint256",
          "name": "",
          "type": "uint256"
        }
      ],
      "stateMutability": "view",
      "type": "function"
    },
    {
      "inputs": [],
      "name": "packsReadyToOpen",
      "outputs": [
        {
          "internalType": "bool",
          "name": "",
          "type": "bool"
        }
      ],
      "stateMutability": "view",
      "type": "function"
    },
    {
      "inputs": [
        {
          "internalType": "address",
          "name": "_userToRemove",
          "type": "address"
        }
      ],
      "name": "removeUserFromWhitelist",
      "outputs": [
        {
          "internalType": "bool",
          "name": "success",
          "type": "bool"
        }
      ],
      "stateMutability": "nonpayable",
      "type": "function"
    },
    {
      "inputs": [
        {
          "internalType": "address[]",
          "name": "addrs",
          "type": "address[]"
        }
      ],
      "name": "removeUsersFromWhitelist",
      "outputs": [
        {
          "internalType": "bool",
          "name": "success",
          "type": "bool"
        }
      ],
      "stateMutability": "nonpayable",
      "type": "function"
    },
    {
      "inputs": [],
      "name": "renounceOwnership",
      "outputs": [],
      "stateMutability": "nonpayable",
      "type": "function"
    },
    {
      "inputs": [
        {
          "internalType": "address",
          "name": "from",
          "type": "address"
        },
        {
          "internalType": "address",
          "name": "to",
          "type": "address"
        },
        {
          "internalType": "uint256[]",
          "name": "ids",
          "type": "uint256[]"
        },
        {
          "internalType": "uint256[]",
          "name": "amounts",
          "type": "uint256[]"
        },
        {
          "internalType": "bytes",
          "name": "data",
          "type": "bytes"
        }
      ],
      "name": "safeBatchTransferFrom",
      "outputs": [],
      "stateMutability": "nonpayable",
      "type": "function"
    },
    {
      "inputs": [
        {
          "internalType": "address",
          "name": "from",
          "type": "address"
        },
        {
          "internalType": "address",
          "name": "to",
          "type": "address"
        },
        {
          "internalType": "uint256",
          "name": "id",
          "type": "uint256"
        },
        {
          "internalType": "uint256",
          "name": "amount",
          "type": "uint256"
        },
        {
          "internalType": "bytes",
          "name": "data",
          "type": "bytes"
        }
      ],
      "name": "safeTransferFrom",
      "outputs": [],
      "stateMutability": "nonpayable",
      "type": "function"
    },
    {
      "inputs": [
        {
          "internalType": "address",
          "name": "operator",
          "type": "address"
        },
        {
          "internalType": "bool",
          "name": "approved",
          "type": "bool"
        }
      ],
      "name": "setApprovalForAll",
      "outputs": [],
      "stateMutability": "nonpayable",
      "type": "function"
    },
    {
      "inputs": [],
      "name": "setPacksReady",
      "outputs": [],
      "stateMutability": "nonpayable",
      "type": "function"
    },
    {
      "inputs": [],
      "name": "setStartingIndex",
      "outputs": [],
      "stateMutability": "nonpayable",
      "type": "function"
    },
    {
      "inputs": [
        {
          "internalType": "uint256",
          "name": "tokenId",
          "type": "uint256"
        },
        {
          "internalType": "string",
          "name": "uri",
          "type": "string"
        }
      ],
      "name": "setTokenUri",
      "outputs": [],
      "stateMutability": "nonpayable",
      "type": "function"
    },
    {
      "inputs": [],
      "name": "setURIs",
      "outputs": [],
      "stateMutability": "nonpayable",
      "type": "function"
    },
    {
      "inputs": [
        {
          "internalType": "bytes4",
          "name": "interfaceId",
          "type": "bytes4"
        }
      ],
      "name": "supportsInterface",
      "outputs": [
        {
          "internalType": "bool",
          "name": "",
          "type": "bool"
        }
      ],
      "stateMutability": "view",
      "type": "function"
    },
    {
      "inputs": [
        {
          "internalType": "address",
          "name": "newOwner",
          "type": "address"
        }
      ],
      "name": "transferOwnership",
      "outputs": [],
      "stateMutability": "nonpayable",
      "type": "function"
    },
    {
      "inputs": [
        {
          "internalType": "uint256",
          "name": "tokenId",
          "type": "uint256"
        }
      ],
      "name": "uri",
      "outputs": [
        {
          "internalType": "string",
          "name": "",
          "type": "string"
        }
      ],
      "stateMutability": "view",
      "type": "function"
    },
    {
      "inputs": [
        {
          "internalType": "address",
          "name": "",
          "type": "address"
        }
      ],
      "name": "userToHasBurnedPack",
      "outputs": [
        {
          "internalType": "bool",
          "name": "",
          "type": "bool"
        }
      ],
      "stateMutability": "view",
      "type": "function"
    },
    {
      "inputs": [
        {
          "internalType": "address",
          "name": "",
          "type": "address"
        }
      ],
      "name": "userToHasMintedPack",
      "outputs": [
        {
          "internalType": "bool",
          "name": "",
          "type": "bool"
        }
      ],
      "stateMutability": "view",
      "type": "function"
    },
    {
      "inputs": [
        {
          "internalType": "address",
          "name": "",
          "type": "address"
        }
      ],
      "name": "whitelist",
      "outputs": [
        {
          "internalType": "bool",
          "name": "",
          "type": "bool"
        }
      ],
      "stateMutability": "view",
      "type": "function"
    }
  ],
  "bytecode": "0x6080604052612710600f556040518060400160405280600881526020017f5465616d446966660000000000000000000000000000000000000000000000008152506010908051906020019062000057929190620002d6565b506000601160006101000a81548160ff02191690831515021790555060405180602001604052806000815250601790805190602001906200009a929190620002d6565b50348015620000a857600080fd5b506040516200561c3803806200561c8339818101604052810190620000ce9190620004fa565b6040518060400160405280600281526020017f54440000000000000000000000000000000000000000000000000000000000008152506200011581620001ec60201b60201c565b50620001366200012a6200020860201b60201c565b6200021060201b60201c565b8360000151600c819055508360200151600d819055508360400151600781905550836060015160088190555083608001516009819055508360a00151600a819055508360c00151600b8190555082600490805190602001906200019b929190620002d6565b508160059080519060200190620001b4929190620002d6565b508060069080519060200190620001cd929190620002d6565b508360e00151600f81905550600b54602081905550505050506200077a565b806002908051906020019062000204929190620002d6565b5050565b600033905090565b6000600360009054906101000a900473ffffffffffffffffffffffffffffffffffffffff16905081600360006101000a81548173ffffffffffffffffffffffffffffffffffffffff021916908373ffffffffffffffffffffffffffffffffffffffff1602179055508173ffffffffffffffffffffffffffffffffffffffff168173ffffffffffffffffffffffffffffffffffffffff167f8be0079c531659141344cd1fd0a4f28419497f9722a3daafe3b4186f6b6457e060405160405180910390a35050565b828054620002e4906200066c565b90600052602060002090601f01602090048101928262000308576000855562000354565b82601f106200032357805160ff191683800117855562000354565b8280016001018555821562000354579182015b828111156200035357825182559160200191906001019062000336565b5b50905062000363919062000367565b5090565b5b808211156200038257600081600090555060010162000368565b5090565b60006200039d6200039784620005f6565b620005cd565b905082815260208101848484011115620003bc57620003bb62000740565b5b620003c984828562000636565b509392505050565b600082601f830112620003e957620003e862000736565b5b8151620003fb84826020860162000386565b91505092915050565b600061010082840312156200041e576200041d6200073b565b5b6200042b610100620005cd565b905060006200043d84828501620004e3565b60008301525060206200045384828501620004e3565b60208301525060406200046984828501620004e3565b60408301525060606200047f84828501620004e3565b60608301525060806200049584828501620004e3565b60808301525060a0620004ab84828501620004e3565b60a08301525060c0620004c184828501620004e3565b60c08301525060e0620004d784828501620004e3565b60e08301525092915050565b600081519050620004f48162000760565b92915050565b60008060008061016085870312156200051857620005176200074a565b5b6000620005288782880162000404565b94505061010085015167ffffffffffffffff8111156200054d576200054c62000745565b5b6200055b87828801620003d1565b93505061012085015167ffffffffffffffff81111562000580576200057f62000745565b5b6200058e87828801620003d1565b92505061014085015167ffffffffffffffff811115620005b357620005b262000745565b5b620005c187828801620003d1565b91505092959194509250565b6000620005d9620005ec565b9050620005e78282620006a2565b919050565b6000604051905090565b600067ffffffffffffffff82111562000614576200061362000707565b5b6200061f826200074f565b9050602081019050919050565b6000819050919050565b60005b838110156200065657808201518184015260208101905062000639565b8381111562000666576000848401525b50505050565b600060028204905060018216806200068557607f821691505b602082108114156200069c576200069b620006d8565b5b50919050565b620006ad826200074f565b810181811067ffffffffffffffff82111715620006cf57620006ce62000707565b5b80604052505050565b7f4e487b7100000000000000000000000000000000000000000000000000000000600052602260045260246000fd5b7f4e487b7100000000000000000000000000000000000000000000000000000000600052604160045260246000fd5b600080fd5b600080fd5b600080fd5b600080fd5b600080fd5b6000601f19601f8301169050919050565b6200076b816200062c565b81146200077757600080fd5b50565b614e92806200078a6000396000f3fe608060405234801561001057600080fd5b50600436106101ef5760003560e01c8063747b80501161010f578063be59ec26116100a2578063f242432a11610071578063f242432a14610570578063f2fde38b1461058c578063f4b0b166146105a8578063f9902bb1146105d8576101ef565b8063be59ec26146104fa578063d759000b14610518578063e985e9c514610536578063e986655014610566576101ef565b80639b19251a116100de5780639b19251a1461049a5780639ebf488b146104ca578063a22cb465146104d4578063bbb13e17146104f0576101ef565b8063747b8050146104005780638d21c770146104305780638da5cb5b146104605780639a25ab831461047e576101ef565b80632eb2c2d61161018757806357f7789e1161015657806357f7789e146103a05780635ae698ff146103bc5780635d2db2bf146103ec578063715018a6146103f6576101ef565b80632eb2c2d61461031857806344eaa84e146103345780634e1273f41461035257806354dacb9614610382576101ef565b8063143cc144116101c3578063143cc144146102a257806318e20a38146102c057806319b60439146102de5780631d170162146102e8576101ef565b8062fdd58e146101f457806301ffc9a71461022457806306fdde03146102545780630e89341c14610272575b600080fd5b61020e600480360381019061020991906133d8565b610608565b60405161021b91906140a7565b60405180910390f35b61023e600480360381019061023991906134d9565b6106d1565b60405161024b9190613d8a565b60405180910390f35b61025c6107b3565b6040516102699190613da5565b60405180910390f35b61028c60048036038101906102879190613533565b610841565b6040516102999190613da5565b60405180910390f35b6102aa6108e6565b6040516102b791906140a7565b60405180910390f35b6102c86108f0565b6040516102d591906140a7565b60405180910390f35b6102e66108f6565b005b61030260048036038101906102fd91906131c5565b61099e565b60405161030f9190613d8a565b60405180910390f35b610332600480360381019061032d9190613232565b6109be565b005b61033c610a5f565b60405161034991906140a7565b60405180910390f35b61036c60048036038101906103679190613461565b610a69565b6040516103799190613d31565b60405180910390f35b61038a610b82565b60405161039791906140a7565b60405180910390f35b6103ba60048036038101906103b59190613560565b610b88565b005b6103d660048036038101906103d19190613418565b610c92565b6040516103e39190613d8a565b60405180910390f35b6103f4610d62565b005b6103fe610e81565b005b61041a600480360381019061041591906131c5565b610f09565b6040516104279190613d8a565b60405180910390f35b61044a60048036038101906104459190613418565b611054565b6040516104579190613d8a565b60405180910390f35b610468611124565b6040516104759190613c02565b60405180910390f35b61049860048036038101906104939190613533565b61114e565b005b6104b460048036038101906104af91906131c5565b611249565b6040516104c19190613d8a565b60405180910390f35b6104d2611269565b005b6104ee60048036038101906104e99190613398565b611482565b005b6104f8611498565b005b610502611746565b60405161050f9190613d8a565b60405180910390f35b610520611759565b60405161052d91906140a7565b60405180910390f35b610550600480360381019061054b91906131f2565b61175f565b60405161055d9190613d8a565b60405180910390f35b61056e6117f3565b005b61058a60048036038101906105859190613301565b6118ca565b005b6105a660048036038101906105a191906131c5565b61196b565b005b6105c260048036038101906105bd91906131c5565b611a63565b6040516105cf9190613d8a565b60405180910390f35b6105f260048036038101906105ed91906131c5565b611a83565b6040516105ff9190613d8a565b60405180910390f35b60008073ffffffffffffffffffffffffffffffffffffffff168373ffffffffffffffffffffffffffffffffffffffff161415610679576040517f08c379a000000000000000000000000000000000000000000000000000000000815260040161067090613e07565b60405180910390fd5b60008083815260200190815260200160002060008473ffffffffffffffffffffffffffffffffffffffff1673ffffffffffffffffffffffffffffffffffffffff16815260200190815260200160002054905092915050565b60007fd9b67a26000000000000000000000000000000000000000000000000000000007bffffffffffffffffffffffffffffffffffffffffffffffffffffffff1916827bffffffffffffffffffffffffffffffffffffffffffffffffffffffff1916148061079c57507f0e89341c000000000000000000000000000000000000000000000000000000007bffffffffffffffffffffffffffffffffffffffffffffffffffffffff1916827bffffffffffffffffffffffffffffffffffffffffffffffffffffffff1916145b806107ac57506107ab82611bcf565b5b9050919050565b601080546107c090614460565b80601f01602080910402602001604051908101604052809291908181526020018280546107ec90614460565b80156108395780601f1061080e57610100808354040283529160200191610839565b820191906000526020600020905b81548152906001019060200180831161081c57829003601f168201915b505050505081565b606060236000838152602001908152602001600020805461086190614460565b80601f016020809104026020016040519081016040528092919081815260200182805461088d90614460565b80156108da5780601f106108af576101008083540402835291602001916108da565b820191906000526020600020905b8154815290600101906020018083116108bd57829003601f168201915b50505050509050919050565b6000600d54905090565b600f5481565b6108fe611c39565b73ffffffffffffffffffffffffffffffffffffffff1661091c611124565b73ffffffffffffffffffffffffffffffffffffffff1614610972576040517f08c379a000000000000000000000000000000000000000000000000000000000815260040161096990613f87565b60405180910390fd5b601160009054906101000a900460ff1615601160006101000a81548160ff021916908315150217905550565b60256020528060005260406000206000915054906101000a900460ff1681565b6109c6611c39565b73ffffffffffffffffffffffffffffffffffffffff168573ffffffffffffffffffffffffffffffffffffffff161480610a0c5750610a0b85610a06611c39565b61175f565b5b610a4b576040517f08c379a0000000000000000000000000000000000000000000000000000000008152600401610a4290613ee7565b60405180910390fd5b610a588585858585611c41565b5050505050565b6000602254905090565b60608151835114610aaf576040517f08c379a0000000000000000000000000000000000000000000000000000000008152600401610aa690614047565b60405180910390fd5b6000835167ffffffffffffffff811115610acc57610acb614651565b5b604051908082528060200260200182016040528015610afa5781602001602082028036833780820191505090505b50905060005b8451811015610b7757610b47858281518110610b1f57610b1e614622565b5b6020026020010151858381518110610b3a57610b39614622565b5b6020026020010151610608565b828281518110610b5a57610b59614622565b5b60200260200101818152505080610b70906144c3565b9050610b00565b508091505092915050565b60225481565b610b90611c39565b73ffffffffffffffffffffffffffffffffffffffff16610bae611124565b73ffffffffffffffffffffffffffffffffffffffff1614610c04576040517f08c379a0000000000000000000000000000000000000000000000000000000008152600401610bfb90613f87565b60405180910390fd5b6000602360008481526020019081526020016000208054610c2490614460565b905014610c66576040517f08c379a0000000000000000000000000000000000000000000000000000000008152600401610c5d90613f07565b60405180910390fd5b80602360008481526020019081526020016000209080519060200190610c8d929190612e7b565b505050565b6000610c9c611c39565b73ffffffffffffffffffffffffffffffffffffffff16610cba611124565b73ffffffffffffffffffffffffffffffffffffffff1614610d10576040517f08c379a0000000000000000000000000000000000000000000000000000000008152600401610d0790613f87565b60405180910390fd5b60005b8251811015610d5c57610d3f838281518110610d3257610d31614622565b5b6020026020010151610f09565b15610d4957600191505b8080610d54906144c3565b915050610d13565b50919050565b610d6a611c39565b73ffffffffffffffffffffffffffffffffffffffff16610d88611124565b73ffffffffffffffffffffffffffffffffffffffff1614610dde576040517f08c379a0000000000000000000000000000000000000000000000000000000008152600401610dd590613f87565b60405180910390fd5b60005b600c54811015610e52576000600c5482601654610dfe9190614288565b610e089190614564565b9050610e3e816004610e1984611f55565b604051602001610e2a929190613b74565b604051602081830303815290604052610b88565b508080610e4a906144c3565b915050610de1565b50610e7f600c546005604051602001610e6b9190613b5d565b604051602081830303815290604052610b88565b565b610e89611c39565b73ffffffffffffffffffffffffffffffffffffffff16610ea7611124565b73ffffffffffffffffffffffffffffffffffffffff1614610efd576040517f08c379a0000000000000000000000000000000000000000000000000000000008152600401610ef490613f87565b60405180910390fd5b610f0760006120b6565b565b6000610f13611c39565b73ffffffffffffffffffffffffffffffffffffffff16610f31611124565b73ffffffffffffffffffffffffffffffffffffffff1614610f87576040517f08c379a0000000000000000000000000000000000000000000000000000000008152600401610f7e90613f87565b60405180910390fd5b602160008373ffffffffffffffffffffffffffffffffffffffff1673ffffffffffffffffffffffffffffffffffffffff16815260200190815260200160002060009054906101000a900460ff1661104f576001602160008473ffffffffffffffffffffffffffffffffffffffff1673ffffffffffffffffffffffffffffffffffffffff16815260200190815260200160002060006101000a81548160ff0219169083151502179055506001602260008282546110439190614288565b92505081905550600190505b919050565b600061105e611c39565b73ffffffffffffffffffffffffffffffffffffffff1661107c611124565b73ffffffffffffffffffffffffffffffffffffffff16146110d2576040517f08c379a00000000000000000000000000000000000000000000000000000000081526004016110c990613f87565b60405180910390fd5b60005b825181101561111e576111018382815181106110f4576110f3614622565b5b6020026020010151611a83565b1561110b57600191505b8080611116906144c3565b9150506110d5565b50919050565b6000600360009054906101000a900473ffffffffffffffffffffffffffffffffffffffff16905090565b600d54600c5461115e919061430f565b601454101561124657600d546024600083815260200190815260200160002054106111be576040517f08c379a00000000000000000000000000000000000000000000000000000000081526004016111b590613ea7565b60405180910390fd5b611200338260016040518060400160405280600481526020017f307830300000000000000000000000000000000000000000000000000000000081525061217c565b60016024600083815260200190815260200160002060008282546112249190614288565b9250508190555060016014600082825461123e9190614288565b925050819055505b50565b60216020528060005260406000206000915054906101000a900460ff1681565b602160003373ffffffffffffffffffffffffffffffffffffffff1673ffffffffffffffffffffffffffffffffffffffff16815260200190815260200160002060009054906101000a900460ff166112f5576040517f08c379a00000000000000000000000000000000000000000000000000000000081526004016112ec90613e87565b60405180910390fd5b6000600c549050600b5460125410611342576040517f08c379a000000000000000000000000000000000000000000000000000000000815260040161133990613fc7565b60405180910390fd5b602660003373ffffffffffffffffffffffffffffffffffffffff1673ffffffffffffffffffffffffffffffffffffffff16815260200190815260200160002060009054906101000a900460ff166113ce576040517f08c379a00000000000000000000000000000000000000000000000000000000081526004016113c590614007565b60405180910390fd5b611410338260016040518060400160405280600481526020017f307830300000000000000000000000000000000000000000000000000000000081525061217c565b6001601260008282546114239190614288565b9250508190555060016020600082825461143d9190614369565b925050819055507f2e0f4d63dcc00e6a11c8aef9f6e15c1f9cd6e9a090b2dd99c7b797f1a28d300d33601254604051611477929190613cdf565b60405180910390a150565b61149461148d611c39565b8383612312565b5050565b602160003373ffffffffffffffffffffffffffffffffffffffff1673ffffffffffffffffffffffffffffffffffffffff16815260200190815260200160002060009054906101000a900460ff16611524576040517f08c379a000000000000000000000000000000000000000000000000000000000815260040161151b90613e87565b60405180910390fd5b6000600c549050602560003373ffffffffffffffffffffffffffffffffffffffff1673ffffffffffffffffffffffffffffffffffffffff16815260200190815260200160002060009054906101000a900460ff16156115b8576040517f08c379a00000000000000000000000000000000000000000000000000000000081526004016115af90613f67565b60405180910390fd5b601160009054906101000a900460ff16611607576040517f08c379a00000000000000000000000000000000000000000000000000000000081526004016115fe90613fe7565b60405180910390fd5b60006116133383610608565b11611653576040517f08c379a000000000000000000000000000000000000000000000000000000000815260040161164a90613fa7565b60405180910390fd5b6001602560003373ffffffffffffffffffffffffffffffffffffffff1673ffffffffffffffffffffffffffffffffffffffff16815260200190815260200160002060006101000a81548160ff02191690831515021790555060006116b561247f565b905060005b60058160ff1610156116fc576116e9828260ff16600581106116df576116de614622565b5b602002015161114e565b80806116f49061450c565b9150506116ba565b5061170933836001612563565b7f15abe0b63b201b70614c230381f0fabc4a26a1957629948558095a11db1d6fb5813360405161173a929190613d08565b60405180910390a15050565b601160009054906101000a900460ff1681565b60205481565b6000600160008473ffffffffffffffffffffffffffffffffffffffff1673ffffffffffffffffffffffffffffffffffffffff16815260200190815260200160002060008373ffffffffffffffffffffffffffffffffffffffff1673ffffffffffffffffffffffffffffffffffffffff16815260200190815260200160002060009054906101000a900460ff16905092915050565b6117fb611c39565b73ffffffffffffffffffffffffffffffffffffffff16611819611124565b73ffffffffffffffffffffffffffffffffffffffff161461186f576040517f08c379a000000000000000000000000000000000000000000000000000000000815260040161186690613f87565b60405180910390fd5b600d54600c5461187f919061430f565b60014361188c9190614369565b4060001c61189a9190614564565b601681905550600060165414156118c8576118c1600160165461278090919063ffffffff16565b6016819055505b565b6118d2611c39565b73ffffffffffffffffffffffffffffffffffffffff168573ffffffffffffffffffffffffffffffffffffffff161480611918575061191785611912611c39565b61175f565b5b611957576040517f08c379a000000000000000000000000000000000000000000000000000000000815260040161194e90613e67565b60405180910390fd5b6119648585858585612796565b5050505050565b611973611c39565b73ffffffffffffffffffffffffffffffffffffffff16611991611124565b73ffffffffffffffffffffffffffffffffffffffff16146119e7576040517f08c379a00000000000000000000000000000000000000000000000000000000081526004016119de90613f87565b60405180910390fd5b600073ffffffffffffffffffffffffffffffffffffffff168173ffffffffffffffffffffffffffffffffffffffff161415611a57576040517f08c379a0000000000000000000000000000000000000000000000000000000008152600401611a4e90613e27565b60405180910390fd5b611a60816120b6565b50565b60266020528060005260406000206000915054906101000a900460ff1681565b6000611a8d611c39565b73ffffffffffffffffffffffffffffffffffffffff16611aab611124565b73ffffffffffffffffffffffffffffffffffffffff1614611b01576040517f08c379a0000000000000000000000000000000000000000000000000000000008152600401611af890613f87565b60405180910390fd5b602160008373ffffffffffffffffffffffffffffffffffffffff1673ffffffffffffffffffffffffffffffffffffffff16815260200190815260200160002060009054906101000a900460ff1615611bca576000602160008473ffffffffffffffffffffffffffffffffffffffff1673ffffffffffffffffffffffffffffffffffffffff16815260200190815260200160002060006101000a81548160ff021916908315150217905550600160226000828254611bbe9190614369565b92505081905550600190505b919050565b60007f01ffc9a7000000000000000000000000000000000000000000000000000000007bffffffffffffffffffffffffffffffffffffffffffffffffffffffff1916827bffffffffffffffffffffffffffffffffffffffffffffffffffffffff1916149050919050565b600033905090565b8151835114611c85576040517f08c379a0000000000000000000000000000000000000000000000000000000008152600401611c7c90614067565b60405180910390fd5b600073ffffffffffffffffffffffffffffffffffffffff168473ffffffffffffffffffffffffffffffffffffffff161415611cf5576040517f08c379a0000000000000000000000000000000000000000000000000000000008152600401611cec90613ec7565b60405180910390fd5b6000611cff611c39565b9050611d0f818787878787612a18565b60005b8451811015611ec0576000858281518110611d3057611d2f614622565b5b602002602001015190506000858381518110611d4f57611d4e614622565b5b60200260200101519050600080600084815260200190815260200160002060008b73ffffffffffffffffffffffffffffffffffffffff1673ffffffffffffffffffffffffffffffffffffffff16815260200190815260200160002054905081811015611df0576040517f08c379a0000000000000000000000000000000000000000000000000000000008152600401611de790613f47565b60405180910390fd5b81810360008085815260200190815260200160002060008c73ffffffffffffffffffffffffffffffffffffffff1673ffffffffffffffffffffffffffffffffffffffff168152602001908152602001600020819055508160008085815260200190815260200160002060008b73ffffffffffffffffffffffffffffffffffffffff1673ffffffffffffffffffffffffffffffffffffffff1681526020019081526020016000206000828254611ea59190614288565b9250508190555050505080611eb9906144c3565b9050611d12565b508473ffffffffffffffffffffffffffffffffffffffff168673ffffffffffffffffffffffffffffffffffffffff168273ffffffffffffffffffffffffffffffffffffffff167f4a39dc06d4c0dbc64b70af90fd698a233a518aa5d07e595d983b8c0526c8f7fb8787604051611f37929190613d53565b60405180910390a4611f4d818787878787612a20565b505050505050565b60606000821415611f9d576040518060400160405280600181526020017f300000000000000000000000000000000000000000000000000000000000000081525090506120b1565b600082905060005b60008214611fcf578080611fb8906144c3565b915050600a82611fc891906142de565b9150611fa5565b60008167ffffffffffffffff811115611feb57611fea614651565b5b6040519080825280601f01601f19166020018201604052801561201d5781602001600182028036833780820191505090505b5090505b600085146120aa576001826120369190614369565b9150600a856120459190614564565b60306120519190614288565b60f81b81838151811061206757612066614622565b5b60200101907effffffffffffffffffffffffffffffffffffffffffffffffffffffffffffff1916908160001a905350600a856120a391906142de565b9450612021565b8093505050505b919050565b6000600360009054906101000a900473ffffffffffffffffffffffffffffffffffffffff16905081600360006101000a81548173ffffffffffffffffffffffffffffffffffffffff021916908373ffffffffffffffffffffffffffffffffffffffff1602179055508173ffffffffffffffffffffffffffffffffffffffff168173ffffffffffffffffffffffffffffffffffffffff167f8be0079c531659141344cd1fd0a4f28419497f9722a3daafe3b4186f6b6457e060405160405180910390a35050565b600073ffffffffffffffffffffffffffffffffffffffff168473ffffffffffffffffffffffffffffffffffffffff1614156121ec576040517f08c379a00000000000000000000000000000000000000000000000000000000081526004016121e390614087565b60405180910390fd5b60006121f6611c39565b90506122178160008761220888612c07565b61221188612c07565b87612a18565b8260008086815260200190815260200160002060008773ffffffffffffffffffffffffffffffffffffffff1673ffffffffffffffffffffffffffffffffffffffff16815260200190815260200160002060008282546122769190614288565b925050819055508473ffffffffffffffffffffffffffffffffffffffff16600073ffffffffffffffffffffffffffffffffffffffff168273ffffffffffffffffffffffffffffffffffffffff167fc3d58168c5ae7397731d063d5bbf3d657854427343f4c083240f7aacaa2d0f6287876040516122f49291906140c2565b60405180910390a461230b81600087878787612c81565b5050505050565b8173ffffffffffffffffffffffffffffffffffffffff168373ffffffffffffffffffffffffffffffffffffffff161415612381576040517f08c379a000000000000000000000000000000000000000000000000000000000815260040161237890614027565b60405180910390fd5b80600160008573ffffffffffffffffffffffffffffffffffffffff1673ffffffffffffffffffffffffffffffffffffffff16815260200190815260200160002060008473ffffffffffffffffffffffffffffffffffffffff1673ffffffffffffffffffffffffffffffffffffffff16815260200190815260200160002060006101000a81548160ff0219169083151502179055508173ffffffffffffffffffffffffffffffffffffffff168373ffffffffffffffffffffffffffffffffffffffff167f17307eab39ab6107e8899845ad3d59bd9653f200f220920489ca2b5937696c31836040516124729190613d8a565b60405180910390a3505050565b612487612f01565b61248f612f01565b60005b600581101561255b576000600a826124aa919061430f565b905060006009600a846124bd919061430f565b6124c79190614288565b905081600183836124d89190614369565b6124e29190614288565b423344876012546040516020016124fd959493929190613ba3565b6040516020818303038152906040528051906020012060001c6125209190614564565b61252a9190614288565b84846005811061253d5761253c614622565b5b60200201818152505050508080612553906144c3565b915050612492565b508091505090565b600073ffffffffffffffffffffffffffffffffffffffff168373ffffffffffffffffffffffffffffffffffffffff1614156125d3576040517f08c379a00000000000000000000000000000000000000000000000000000000081526004016125ca90613f27565b60405180910390fd5b60006125dd611c39565b905061260d818560006125ef87612c07565b6125f887612c07565b60405180602001604052806000815250612a18565b600080600085815260200190815260200160002060008673ffffffffffffffffffffffffffffffffffffffff1673ffffffffffffffffffffffffffffffffffffffff168152602001908152602001600020549050828110156126a4576040517f08c379a000000000000000000000000000000000000000000000000000000000815260040161269b90613e47565b60405180910390fd5b82810360008086815260200190815260200160002060008773ffffffffffffffffffffffffffffffffffffffff1673ffffffffffffffffffffffffffffffffffffffff16815260200190815260200160002081905550600073ffffffffffffffffffffffffffffffffffffffff168573ffffffffffffffffffffffffffffffffffffffff168373ffffffffffffffffffffffffffffffffffffffff167fc3d58168c5ae7397731d063d5bbf3d657854427343f4c083240f7aacaa2d0f6287876040516127719291906140c2565b60405180910390a45050505050565b6000818361278e9190614288565b905092915050565b600073ffffffffffffffffffffffffffffffffffffffff168473ffffffffffffffffffffffffffffffffffffffff161415612806576040517f08c379a00000000000000000000000000000000000000000000000000000000081526004016127fd90613ec7565b60405180910390fd5b6000612810611c39565b905061283081878761282188612c07565b61282a88612c07565b87612a18565b600080600086815260200190815260200160002060008873ffffffffffffffffffffffffffffffffffffffff1673ffffffffffffffffffffffffffffffffffffffff168152602001908152602001600020549050838110156128c7576040517f08c379a00000000000000000000000000000000000000000000000000000000081526004016128be90613f47565b60405180910390fd5b83810360008087815260200190815260200160002060008973ffffffffffffffffffffffffffffffffffffffff1673ffffffffffffffffffffffffffffffffffffffff168152602001908152602001600020819055508360008087815260200190815260200160002060008873ffffffffffffffffffffffffffffffffffffffff1673ffffffffffffffffffffffffffffffffffffffff168152602001908152602001600020600082825461297c9190614288565b925050819055508573ffffffffffffffffffffffffffffffffffffffff168773ffffffffffffffffffffffffffffffffffffffff168373ffffffffffffffffffffffffffffffffffffffff167fc3d58168c5ae7397731d063d5bbf3d657854427343f4c083240f7aacaa2d0f6288886040516129f99291906140c2565b60405180910390a4612a0f828888888888612c81565b50505050505050565b505050505050565b612a3f8473ffffffffffffffffffffffffffffffffffffffff16612e68565b15612bff578373ffffffffffffffffffffffffffffffffffffffff1663bc197c8187878686866040518663ffffffff1660e01b8152600401612a85959493929190613c1d565b602060405180830381600087803b158015612a9f57600080fd5b505af1925050508015612ad057506040513d601f19601f82011682018060405250810190612acd9190613506565b60015b612b7657612adc614680565b806308c379a01415612b395750612af1614d6a565b80612afc5750612b3b565b806040517f08c379a0000000000000000000000000000000000000000000000000000000008152600401612b309190613da5565b60405180910390fd5b505b6040517f08c379a0000000000000000000000000000000000000000000000000000000008152600401612b6d90613dc7565b60405180910390fd5b63bc197c8160e01b7bffffffffffffffffffffffffffffffffffffffffffffffffffffffff1916817bffffffffffffffffffffffffffffffffffffffffffffffffffffffff191614612bfd576040517f08c379a0000000000000000000000000000000000000000000000000000000008152600401612bf490613de7565b60405180910390fd5b505b505050505050565b60606000600167ffffffffffffffff811115612c2657612c25614651565b5b604051908082528060200260200182016040528015612c545781602001602082028036833780820191505090505b5090508281600081518110612c6c57612c6b614622565b5b60200260200101818152505080915050919050565b612ca08473ffffffffffffffffffffffffffffffffffffffff16612e68565b15612e60578373ffffffffffffffffffffffffffffffffffffffff1663f23a6e6187878686866040518663ffffffff1660e01b8152600401612ce6959493929190613c85565b602060405180830381600087803b158015612d0057600080fd5b505af1925050508015612d3157506040513d601f19601f82011682018060405250810190612d2e9190613506565b60015b612dd757612d3d614680565b806308c379a01415612d9a5750612d52614d6a565b80612d5d5750612d9c565b806040517f08c379a0000000000000000000000000000000000000000000000000000000008152600401612d919190613da5565b60405180910390fd5b505b6040517f08c379a0000000000000000000000000000000000000000000000000000000008152600401612dce90613dc7565b60405180910390fd5b63f23a6e6160e01b7bffffffffffffffffffffffffffffffffffffffffffffffffffffffff1916817bffffffffffffffffffffffffffffffffffffffffffffffffffffffff191614612e5e576040517f08c379a0000000000000000000000000000000000000000000000000000000008152600401612e5590613de7565b60405180910390fd5b505b505050505050565b600080823b905060008111915050919050565b828054612e8790614460565b90600052602060002090601f016020900481019282612ea95760008555612ef0565b82601f10612ec257805160ff1916838001178555612ef0565b82800160010185558215612ef0579182015b82811115612eef578251825591602001919060010190612ed4565b5b509050612efd9190612f23565b5090565b6040518060a00160405280600590602082028036833780820191505090505090565b5b80821115612f3c576000816000905550600101612f24565b5090565b6000612f53612f4e84614110565b6140eb565b90508083825260208201905082856020860282011115612f7657612f756146a7565b5b60005b85811015612fa65781612f8c88826130a4565b845260208401935060208301925050600181019050612f79565b5050509392505050565b6000612fc3612fbe8461413c565b6140eb565b90508083825260208201905082856020860282011115612fe657612fe56146a7565b5b60005b858110156130165781612ffc88826131b0565b845260208401935060208301925050600181019050612fe9565b5050509392505050565b600061303361302e84614168565b6140eb565b90508281526020810184848401111561304f5761304e6146ac565b5b61305a84828561441e565b509392505050565b600061307561307084614199565b6140eb565b905082815260208101848484011115613091576130906146ac565b5b61309c84828561441e565b509392505050565b6000813590506130b381614e00565b92915050565b600082601f8301126130ce576130cd6146a2565b5b81356130de848260208601612f40565b91505092915050565b600082601f8301126130fc576130fb6146a2565b5b813561310c848260208601612fb0565b91505092915050565b60008135905061312481614e17565b92915050565b60008135905061313981614e2e565b92915050565b60008151905061314e81614e2e565b92915050565b600082601f830112613169576131686146a2565b5b8135613179848260208601613020565b91505092915050565b600082601f830112613197576131966146a2565b5b81356131a7848260208601613062565b91505092915050565b6000813590506131bf81614e45565b92915050565b6000602082840312156131db576131da6146b6565b5b60006131e9848285016130a4565b91505092915050565b60008060408385031215613209576132086146b6565b5b6000613217858286016130a4565b9250506020613228858286016130a4565b9150509250929050565b600080600080600060a0868803121561324e5761324d6146b6565b5b600061325c888289016130a4565b955050602061326d888289016130a4565b945050604086013567ffffffffffffffff81111561328e5761328d6146b1565b5b61329a888289016130e7565b935050606086013567ffffffffffffffff8111156132bb576132ba6146b1565b5b6132c7888289016130e7565b925050608086013567ffffffffffffffff8111156132e8576132e76146b1565b5b6132f488828901613154565b9150509295509295909350565b600080600080600060a0868803121561331d5761331c6146b6565b5b600061332b888289016130a4565b955050602061333c888289016130a4565b945050604061334d888289016131b0565b935050606061335e888289016131b0565b925050608086013567ffffffffffffffff81111561337f5761337e6146b1565b5b61338b88828901613154565b9150509295509295909350565b600080604083850312156133af576133ae6146b6565b5b60006133bd858286016130a4565b92505060206133ce85828601613115565b9150509250929050565b600080604083850312156133ef576133ee6146b6565b5b60006133fd858286016130a4565b925050602061340e858286016131b0565b9150509250929050565b60006020828403121561342e5761342d6146b6565b5b600082013567ffffffffffffffff81111561344c5761344b6146b1565b5b613458848285016130b9565b91505092915050565b60008060408385031215613478576134776146b6565b5b600083013567ffffffffffffffff811115613496576134956146b1565b5b6134a2858286016130b9565b925050602083013567ffffffffffffffff8111156134c3576134c26146b1565b5b6134cf858286016130e7565b9150509250929050565b6000602082840312156134ef576134ee6146b6565b5b60006134fd8482850161312a565b91505092915050565b60006020828403121561351c5761351b6146b6565b5b600061352a8482850161313f565b91505092915050565b600060208284031215613549576135486146b6565b5b6000613557848285016131b0565b91505092915050565b60008060408385031215613577576135766146b6565b5b6000613585858286016131b0565b925050602083013567ffffffffffffffff8111156135a6576135a56146b1565b5b6135b285828601613182565b9150509250929050565b60006135c88383613b28565b60208301905092915050565b6135dd8161439d565b82525050565b6135f46135ef8261439d565b614536565b82525050565b613603816141f9565b61360d818461423f565b9250613618826141ca565b8060005b8381101561364957815161363087826135bc565b965061363b83614225565b92505060018101905061361c565b505050505050565b600061365c82614204565b613666818561424a565b9350613671836141d4565b8060005b838110156136a257815161368988826135bc565b975061369483614232565b925050600181019050613675565b5085935050505092915050565b6136b8816143af565b82525050565b60006136c98261420f565b6136d3818561425b565b93506136e381856020860161442d565b6136ec816146bb565b840191505092915050565b60006137028261421a565b61370c818561426c565b935061371c81856020860161442d565b613725816146bb565b840191505092915050565b600061373b8261421a565b613745818561427d565b935061375581856020860161442d565b80840191505092915050565b6000815461376e81614460565b613778818661427d565b9450600182166000811461379357600181146137a4576137d7565b60ff198316865281860193506137d7565b6137ad856141e4565b60005b838110156137cf578154818901526001820191506020810190506137b0565b838801955050505b50505092915050565b60006137ed60348361426c565b91506137f8826146e6565b604082019050919050565b600061381060288361426c565b915061381b82614735565b604082019050919050565b6000613833602b8361426c565b915061383e82614784565b604082019050919050565b600061385660268361426c565b9150613861826147d3565b604082019050919050565b600061387960248361426c565b915061388482614822565b604082019050919050565b600061389c60298361426c565b91506138a782614871565b604082019050919050565b60006138bf60188361426c565b91506138ca826148c0565b602082019050919050565b60006138e2602d8361426c565b91506138ed826148e9565b604082019050919050565b600061390560258361426c565b915061391082614938565b604082019050919050565b600061392860328361426c565b915061393382614987565b604082019050919050565b600061394b60148361426c565b9150613956826149d6565b602082019050919050565b600061396e60238361426c565b9150613979826149ff565b604082019050919050565b6000613991602a8361426c565b915061399c82614a4e565b604082019050919050565b60006139b460208361426c565b91506139bf82614a9d565b602082019050919050565b60006139d760058361427d565b91506139e282614ac6565b600582019050919050565b60006139fa60208361426c565b9150613a0582614aef565b602082019050919050565b6000613a1d602b8361426c565b9150613a2882614b18565b604082019050919050565b6000613a4060238361426c565b9150613a4b82614b67565b604082019050919050565b6000613a63601f8361426c565b9150613a6e82614bb6565b602082019050919050565b6000613a86602a8361426c565b9150613a9182614bdf565b604082019050919050565b6000613aa960298361426c565b9150613ab482614c2e565b604082019050919050565b6000613acc60298361426c565b9150613ad782614c7d565b604082019050919050565b6000613aef60288361426c565b9150613afa82614ccc565b604082019050919050565b6000613b1260218361426c565b9150613b1d82614d1b565b604082019050919050565b613b3181614407565b82525050565b613b4081614407565b82525050565b613b57613b5282614407565b61455a565b82525050565b6000613b698284613761565b915081905092915050565b6000613b808285613761565b9150613b8c8284613730565b9150613b97826139ca565b91508190509392505050565b6000613baf8288613b46565b602082019150613bbf82876135e3565b601482019150613bcf8286613b46565b602082019150613bdf8285613b46565b602082019150613bef8284613b46565b6020820191508190509695505050505050565b6000602082019050613c1760008301846135d4565b92915050565b600060a082019050613c3260008301886135d4565b613c3f60208301876135d4565b8181036040830152613c518186613651565b90508181036060830152613c658185613651565b90508181036080830152613c7981846136be565b90509695505050505050565b600060a082019050613c9a60008301886135d4565b613ca760208301876135d4565b613cb46040830186613b37565b613cc16060830185613b37565b8181036080830152613cd381846136be565b90509695505050505050565b6000604082019050613cf460008301856135d4565b613d016020830184613b37565b9392505050565b600060c082019050613d1d60008301856135fa565b613d2a60a08301846135d4565b9392505050565b60006020820190508181036000830152613d4b8184613651565b905092915050565b60006040820190508181036000830152613d6d8185613651565b90508181036020830152613d818184613651565b90509392505050565b6000602082019050613d9f60008301846136af565b92915050565b60006020820190508181036000830152613dbf81846136f7565b905092915050565b60006020820190508181036000830152613de0816137e0565b9050919050565b60006020820190508181036000830152613e0081613803565b9050919050565b60006020820190508181036000830152613e2081613826565b9050919050565b60006020820190508181036000830152613e4081613849565b9050919050565b60006020820190508181036000830152613e608161386c565b9050919050565b60006020820190508181036000830152613e808161388f565b9050919050565b60006020820190508181036000830152613ea0816138b2565b9050919050565b60006020820190508181036000830152613ec0816138d5565b9050919050565b60006020820190508181036000830152613ee0816138f8565b9050919050565b60006020820190508181036000830152613f008161391b565b9050919050565b60006020820190508181036000830152613f208161393e565b9050919050565b60006020820190508181036000830152613f4081613961565b9050919050565b60006020820190508181036000830152613f6081613984565b9050919050565b60006020820190508181036000830152613f80816139a7565b9050919050565b60006020820190508181036000830152613fa0816139ed565b9050919050565b60006020820190508181036000830152613fc081613a10565b9050919050565b60006020820190508181036000830152613fe081613a33565b9050919050565b6000602082019050818103600083015261400081613a56565b9050919050565b6000602082019050818103600083015261402081613a79565b9050919050565b6000602082019050818103600083015261404081613a9c565b9050919050565b6000602082019050818103600083015261406081613abf565b9050919050565b6000602082019050818103600083015261408081613ae2565b9050919050565b600060208201905081810360008301526140a081613b05565b9050919050565b60006020820190506140bc6000830184613b37565b92915050565b60006040820190506140d76000830185613b37565b6140e46020830184613b37565b9392505050565b60006140f5614106565b90506141018282614492565b919050565b6000604051905090565b600067ffffffffffffffff82111561412b5761412a614651565b5b602082029050602081019050919050565b600067ffffffffffffffff82111561415757614156614651565b5b602082029050602081019050919050565b600067ffffffffffffffff82111561418357614182614651565b5b61418c826146bb565b9050602081019050919050565b600067ffffffffffffffff8211156141b4576141b3614651565b5b6141bd826146bb565b9050602081019050919050565b6000819050919050565b6000819050602082019050919050565b60008190508160005260206000209050919050565b600060059050919050565b600081519050919050565b600081519050919050565b600081519050919050565b6000602082019050919050565b6000602082019050919050565b600081905092915050565b600082825260208201905092915050565b600082825260208201905092915050565b600082825260208201905092915050565b600081905092915050565b600061429382614407565b915061429e83614407565b9250827fffffffffffffffffffffffffffffffffffffffffffffffffffffffffffffffff038211156142d3576142d2614595565b5b828201905092915050565b60006142e982614407565b91506142f483614407565b925082614304576143036145c4565b5b828204905092915050565b600061431a82614407565b915061432583614407565b9250817fffffffffffffffffffffffffffffffffffffffffffffffffffffffffffffffff048311821515161561435e5761435d614595565b5b828202905092915050565b600061437482614407565b915061437f83614407565b92508282101561439257614391614595565b5b828203905092915050565b60006143a8826143e7565b9050919050565b60008115159050919050565b60007fffffffff0000000000000000000000000000000000000000000000000000000082169050919050565b600073ffffffffffffffffffffffffffffffffffffffff82169050919050565b6000819050919050565b600060ff82169050919050565b82818337600083830152505050565b60005b8381101561444b578082015181840152602081019050614430565b8381111561445a576000848401525b50505050565b6000600282049050600182168061447857607f821691505b6020821081141561448c5761448b6145f3565b5b50919050565b61449b826146bb565b810181811067ffffffffffffffff821117156144ba576144b9614651565b5b80604052505050565b60006144ce82614407565b91507fffffffffffffffffffffffffffffffffffffffffffffffffffffffffffffffff82141561450157614500614595565b5b600182019050919050565b600061451782614411565b915060ff82141561452b5761452a614595565b5b600182019050919050565b600061454182614548565b9050919050565b6000614553826146cc565b9050919050565b6000819050919050565b600061456f82614407565b915061457a83614407565b92508261458a576145896145c4565b5b828206905092915050565b7f4e487b7100000000000000000000000000000000000000000000000000000000600052601160045260246000fd5b7f4e487b7100000000000000000000000000000000000000000000000000000000600052601260045260246000fd5b7f4e487b7100000000000000000000000000000000000000000000000000000000600052602260045260246000fd5b7f4e487b7100000000000000000000000000000000000000000000000000000000600052603260045260246000fd5b7f4e487b7100000000000000000000000000000000000000000000000000000000600052604160045260246000fd5b600060033d111561469f5760046000803e61469c6000516146d9565b90505b90565b600080fd5b600080fd5b600080fd5b600080fd5b600080fd5b6000601f19601f8301169050919050565b60008160601b9050919050565b60008160e01c9050919050565b7f455243313135353a207472616e7366657220746f206e6f6e204552433131353560008201527f526563656976657220696d706c656d656e746572000000000000000000000000602082015250565b7f455243313135353a204552433131353552656365697665722072656a6563746560008201527f6420746f6b656e73000000000000000000000000000000000000000000000000602082015250565b7f455243313135353a2062616c616e636520717565727920666f7220746865207a60008201527f65726f2061646472657373000000000000000000000000000000000000000000602082015250565b7f4f776e61626c653a206e6577206f776e657220697320746865207a65726f206160008201527f6464726573730000000000000000000000000000000000000000000000000000602082015250565b7f455243313135353a206275726e20616d6f756e7420657863656564732062616c60008201527f616e636500000000000000000000000000000000000000000000000000000000602082015250565b7f455243313135353a2063616c6c6572206973206e6f74206f776e6572206e6f7260008201527f20617070726f7665640000000000000000000000000000000000000000000000602082015250565b7f55736572206973206e6f742077686974656c69737465642e0000000000000000600082015250565b7f416c6c206f662074686973206174686c657465206861766520616c726561647960008201527f206265656e206d696e7465642100000000000000000000000000000000000000602082015250565b7f455243313135353a207472616e7366657220746f20746865207a65726f20616460008201527f6472657373000000000000000000000000000000000000000000000000000000602082015250565b7f455243313135353a207472616e736665722063616c6c6572206973206e6f742060008201527f6f776e6572206e6f7220617070726f7665640000000000000000000000000000602082015250565b7f43616e6e6f742073657420757269207477696365000000000000000000000000600082015250565b7f455243313135353a206275726e2066726f6d20746865207a65726f206164647260008201527f6573730000000000000000000000000000000000000000000000000000000000602082015250565b7f455243313135353a20696e73756666696369656e742062616c616e636520666f60008201527f72207472616e7366657200000000000000000000000000000000000000000000602082015250565b7f596f752063616e6e6f74206275726e206d6f7265207468616e2031207061636b600082015250565b7f2e6a736f6e000000000000000000000000000000000000000000000000000000600082015250565b7f4f776e61626c653a2063616c6c6572206973206e6f7420746865206f776e6572600082015250565b7f53746172746572207061636b20646f6573206e6f7420657869737420696e207560008201527f736572732077616c6c6574000000000000000000000000000000000000000000602082015250565b7f416c6c207061636b73206861766520616c7265616479206265656e206d696e7460008201527f6564210000000000000000000000000000000000000000000000000000000000602082015250565b7f5061636b73206172656e277420726561647920746f206f70656e207965742100600082015250565b7f43616e206f6e6c79206d696e74206f6e652073746172746572207061636b207060008201527f6572206163636f756e7400000000000000000000000000000000000000000000602082015250565b7f455243313135353a2073657474696e6720617070726f76616c2073746174757360008201527f20666f722073656c660000000000000000000000000000000000000000000000602082015250565b7f455243313135353a206163636f756e747320616e6420696473206c656e67746860008201527f206d69736d617463680000000000000000000000000000000000000000000000602082015250565b7f455243313135353a2069647320616e6420616d6f756e7473206c656e6774682060008201527f6d69736d61746368000000000000000000000000000000000000000000000000602082015250565b7f455243313135353a206d696e7420746f20746865207a65726f2061646472657360008201527f7300000000000000000000000000000000000000000000000000000000000000602082015250565b600060443d1015614d7a57614dfd565b614d82614106565b60043d036004823e80513d602482011167ffffffffffffffff82111715614daa575050614dfd565b808201805167ffffffffffffffff811115614dc85750505050614dfd565b80602083010160043d038501811115614de5575050505050614dfd565b614df482602001850186614492565b82955050505050505b90565b614e098161439d565b8114614e1457600080fd5b50565b614e20816143af565b8114614e2b57600080fd5b50565b614e37816143bb565b8114614e4257600080fd5b50565b614e4e81614407565b8114614e5957600080fd5b5056fea2646970667358221220f91a636603121f1db68b183381f6287258bc1fd4c2cec3de958e949e11fe0ecc64736f6c63430008070033",
  "linkReferences": {},
  "deployedLinkReferences": {}
}