{
  "_format": "hh-sol-artifact-1",
  "contractName": "GameItems",
  "sourceName": "contracts/GameItems.sol",
  "abi": [
    {
      "inputs": [
        {
          "components": [
            {
              "internalType": "uint256",
              "name": "_numAthletes",
              "type": "uint256"
            },
            {
              "internalType": "uint256",
              "name": "_nftPerAthlete",
              "type": "uint256"
            },
            {
              "internalType": "uint256",
              "name": "_starterPackSize",
              "type": "uint256"
            },
            {
              "internalType": "uint256",
              "name": "_boosterPackSize",
              "type": "uint256"
            },
            {
              "internalType": "uint256",
              "name": "_maxStarterPackBalance",
              "type": "uint256"
            },
            {
              "internalType": "uint256",
              "name": "_maxBoosterPackBalance",
              "type": "uint256"
            }
          ],
          "internalType": "struct GameItems.Parameters",
          "name": "params",
          "type": "tuple"
        },
        {
          "internalType": "string",
          "name": "_athleteURI",
          "type": "string"
        },
        {
          "internalType": "string",
          "name": "_starterPackURI",
          "type": "string"
        },
        {
          "internalType": "string",
          "name": "_boosterPackURI",
          "type": "string"
        }
      ],
      "stateMutability": "nonpayable",
      "type": "constructor"
    },
    {
      "anonymous": false,
      "inputs": [
        {
          "indexed": true,
          "internalType": "address",
          "name": "account",
          "type": "address"
        },
        {
          "indexed": true,
          "internalType": "address",
          "name": "operator",
          "type": "address"
        },
        {
          "indexed": false,
          "internalType": "bool",
          "name": "approved",
          "type": "bool"
        }
      ],
      "name": "ApprovalForAll",
      "type": "event"
    },
    {
      "anonymous": false,
      "inputs": [
        {
          "indexed": true,
          "internalType": "address",
          "name": "previousOwner",
          "type": "address"
        },
        {
          "indexed": true,
          "internalType": "address",
          "name": "newOwner",
          "type": "address"
        }
      ],
      "name": "OwnershipTransferred",
      "type": "event"
    },
    {
      "anonymous": false,
      "inputs": [
        {
          "indexed": true,
          "internalType": "address",
          "name": "operator",
          "type": "address"
        },
        {
          "indexed": true,
          "internalType": "address",
          "name": "from",
          "type": "address"
        },
        {
          "indexed": true,
          "internalType": "address",
          "name": "to",
          "type": "address"
        },
        {
          "indexed": false,
          "internalType": "uint256[]",
          "name": "ids",
          "type": "uint256[]"
        },
        {
          "indexed": false,
          "internalType": "uint256[]",
          "name": "values",
          "type": "uint256[]"
        }
      ],
      "name": "TransferBatch",
      "type": "event"
    },
    {
      "anonymous": false,
      "inputs": [
        {
          "indexed": true,
          "internalType": "address",
          "name": "operator",
          "type": "address"
        },
        {
          "indexed": true,
          "internalType": "address",
          "name": "from",
          "type": "address"
        },
        {
          "indexed": true,
          "internalType": "address",
          "name": "to",
          "type": "address"
        },
        {
          "indexed": false,
          "internalType": "uint256",
          "name": "id",
          "type": "uint256"
        },
        {
          "indexed": false,
          "internalType": "uint256",
          "name": "value",
          "type": "uint256"
        }
      ],
      "name": "TransferSingle",
      "type": "event"
    },
    {
      "anonymous": false,
      "inputs": [
        {
          "indexed": false,
          "internalType": "string",
          "name": "value",
          "type": "string"
        },
        {
          "indexed": true,
          "internalType": "uint256",
          "name": "id",
          "type": "uint256"
        }
      ],
      "name": "URI",
      "type": "event"
    },
    {
      "anonymous": false,
      "inputs": [
        {
          "indexed": false,
          "internalType": "uint256[3]",
          "name": "",
          "type": "uint256[3]"
        },
        {
          "indexed": false,
          "internalType": "address",
          "name": "signer",
          "type": "address"
        }
      ],
      "name": "boosterPackBurned",
      "type": "event"
    },
    {
      "anonymous": false,
      "inputs": [
        {
          "indexed": false,
          "internalType": "address",
          "name": "signer",
          "type": "address"
        },
        {
          "indexed": false,
          "internalType": "uint256",
          "name": "id",
          "type": "uint256"
        }
      ],
      "name": "boosterPackMinted",
      "type": "event"
    },
    {
      "anonymous": false,
      "inputs": [
        {
          "indexed": false,
          "internalType": "uint256[5]",
          "name": "",
          "type": "uint256[5]"
        },
        {
          "indexed": false,
          "internalType": "address",
          "name": "signer",
          "type": "address"
        }
      ],
      "name": "starterPackBurned",
      "type": "event"
    },
    {
      "anonymous": false,
      "inputs": [
        {
          "indexed": false,
          "internalType": "address",
          "name": "signer",
          "type": "address"
        },
        {
          "indexed": false,
          "internalType": "uint256",
          "name": "id",
          "type": "uint256"
        }
      ],
      "name": "starterPackMinted",
      "type": "event"
    },
    {
      "inputs": [
        {
          "internalType": "address",
          "name": "_userToAdd",
          "type": "address"
        }
      ],
      "name": "addUserToWhitelist",
      "outputs": [
        {
          "internalType": "bool",
          "name": "success",
          "type": "bool"
        }
      ],
      "stateMutability": "nonpayable",
      "type": "function"
    },
    {
      "inputs": [
        {
          "internalType": "address[]",
          "name": "addrs",
          "type": "address[]"
        }
      ],
      "name": "addUsersToWhitelist",
      "outputs": [
        {
          "internalType": "bool",
          "name": "success",
          "type": "bool"
        }
      ],
      "stateMutability": "nonpayable",
      "type": "function"
    },
    {
      "inputs": [],
      "name": "allowBoosterPacks",
      "outputs": [],
      "stateMutability": "nonpayable",
      "type": "function"
    },
    {
      "inputs": [
        {
          "internalType": "address",
          "name": "account",
          "type": "address"
        },
        {
          "internalType": "uint256",
          "name": "id",
          "type": "uint256"
        }
      ],
      "name": "balanceOf",
      "outputs": [
        {
          "internalType": "uint256",
          "name": "",
          "type": "uint256"
        }
      ],
      "stateMutability": "view",
      "type": "function"
    },
    {
      "inputs": [
        {
          "internalType": "address[]",
          "name": "accounts",
          "type": "address[]"
        },
        {
          "internalType": "uint256[]",
          "name": "ids",
          "type": "uint256[]"
        }
      ],
      "name": "balanceOfBatch",
      "outputs": [
        {
          "internalType": "uint256[]",
          "name": "",
          "type": "uint256[]"
        }
      ],
      "stateMutability": "view",
      "type": "function"
    },
    {
      "inputs": [],
      "name": "boosterPacksMinted",
      "outputs": [
        {
          "internalType": "uint256",
          "name": "",
          "type": "uint256"
        }
      ],
      "stateMutability": "view",
      "type": "function"
    },
    {
      "inputs": [],
      "name": "boosterPacksReadyToOpen",
      "outputs": [
        {
          "internalType": "bool",
          "name": "",
          "type": "bool"
        }
      ],
      "stateMutability": "view",
      "type": "function"
    },
    {
      "inputs": [],
      "name": "burnBoosterPack",
      "outputs": [],
      "stateMutability": "nonpayable",
      "type": "function"
    },
    {
      "inputs": [],
      "name": "burnStarterPack",
      "outputs": [],
      "stateMutability": "nonpayable",
      "type": "function"
    },
    {
      "inputs": [],
      "name": "getNFTPerAthlete",
      "outputs": [
        {
          "internalType": "uint256",
          "name": "",
          "type": "uint256"
        }
      ],
      "stateMutability": "view",
      "type": "function"
    },
    {
      "inputs": [],
      "name": "getNumWhitelisted",
      "outputs": [
        {
          "internalType": "uint256",
          "name": "",
          "type": "uint256"
        }
      ],
      "stateMutability": "view",
      "type": "function"
    },
    {
      "inputs": [
        {
          "internalType": "address",
          "name": "account",
          "type": "address"
        },
        {
          "internalType": "address",
          "name": "operator",
          "type": "address"
        }
      ],
      "name": "isApprovedForAll",
      "outputs": [
        {
          "internalType": "bool",
          "name": "",
          "type": "bool"
        }
      ],
      "stateMutability": "view",
      "type": "function"
    },
    {
      "inputs": [],
      "name": "mintBoosterPack",
      "outputs": [],
      "stateMutability": "nonpayable",
      "type": "function"
    },
    {
      "inputs": [],
      "name": "mintStarterPack",
      "outputs": [],
      "stateMutability": "nonpayable",
      "type": "function"
    },
    {
      "inputs": [],
      "name": "numWhitelisted",
      "outputs": [
        {
          "internalType": "uint256",
          "name": "",
          "type": "uint256"
        }
      ],
      "stateMutability": "view",
      "type": "function"
    },
    {
      "inputs": [],
      "name": "openPrivateSale",
      "outputs": [],
      "stateMutability": "nonpayable",
      "type": "function"
    },
    {
      "inputs": [],
      "name": "openPublicSale",
      "outputs": [],
      "stateMutability": "nonpayable",
      "type": "function"
    },
    {
      "inputs": [],
      "name": "owner",
      "outputs": [
        {
          "internalType": "address",
          "name": "",
          "type": "address"
        }
      ],
      "stateMutability": "view",
      "type": "function"
    },
    {
      "inputs": [],
      "name": "packsAvailable",
      "outputs": [
        {
          "internalType": "uint256",
          "name": "",
          "type": "uint256"
        }
      ],
      "stateMutability": "view",
      "type": "function"
    },
    {
      "inputs": [],
      "name": "packsReadyToOpen",
      "outputs": [
        {
          "internalType": "bool",
          "name": "",
          "type": "bool"
        }
      ],
      "stateMutability": "view",
      "type": "function"
    },
    {
      "inputs": [],
      "name": "renounceOwnership",
      "outputs": [],
      "stateMutability": "nonpayable",
      "type": "function"
    },
    {
      "inputs": [
        {
          "internalType": "address",
          "name": "from",
          "type": "address"
        },
        {
          "internalType": "address",
          "name": "to",
          "type": "address"
        },
        {
          "internalType": "uint256[]",
          "name": "ids",
          "type": "uint256[]"
        },
        {
          "internalType": "uint256[]",
          "name": "amounts",
          "type": "uint256[]"
        },
        {
          "internalType": "bytes",
          "name": "data",
          "type": "bytes"
        }
      ],
      "name": "safeBatchTransferFrom",
      "outputs": [],
      "stateMutability": "nonpayable",
      "type": "function"
    },
    {
      "inputs": [
        {
          "internalType": "address",
          "name": "from",
          "type": "address"
        },
        {
          "internalType": "address",
          "name": "to",
          "type": "address"
        },
        {
          "internalType": "uint256",
          "name": "id",
          "type": "uint256"
        },
        {
          "internalType": "uint256",
          "name": "amount",
          "type": "uint256"
        },
        {
          "internalType": "bytes",
          "name": "data",
          "type": "bytes"
        }
      ],
      "name": "safeTransferFrom",
      "outputs": [],
      "stateMutability": "nonpayable",
      "type": "function"
    },
    {
      "inputs": [
        {
          "internalType": "address",
          "name": "operator",
          "type": "address"
        },
        {
          "internalType": "bool",
          "name": "approved",
          "type": "bool"
        }
      ],
      "name": "setApprovalForAll",
      "outputs": [],
      "stateMutability": "nonpayable",
      "type": "function"
    },
    {
      "inputs": [],
      "name": "setPacksReady",
      "outputs": [],
      "stateMutability": "nonpayable",
      "type": "function"
    },
    {
      "inputs": [],
      "name": "setStartingIndex",
      "outputs": [],
      "stateMutability": "nonpayable",
      "type": "function"
    },
    {
      "inputs": [
        {
          "internalType": "uint256",
          "name": "tokenId",
          "type": "uint256"
        },
        {
          "internalType": "string",
          "name": "uri",
          "type": "string"
        }
      ],
      "name": "setTokenUri",
      "outputs": [],
      "stateMutability": "nonpayable",
      "type": "function"
    },
    {
      "inputs": [],
      "name": "setURIs",
      "outputs": [],
      "stateMutability": "nonpayable",
      "type": "function"
    },
    {
      "inputs": [],
      "name": "starterPacksMinted",
      "outputs": [
        {
          "internalType": "uint256",
          "name": "",
          "type": "uint256"
        }
      ],
      "stateMutability": "view",
      "type": "function"
    },
    {
      "inputs": [
        {
          "internalType": "bytes4",
          "name": "interfaceId",
          "type": "bytes4"
        }
      ],
      "name": "supportsInterface",
      "outputs": [
        {
          "internalType": "bool",
          "name": "",
          "type": "bool"
        }
      ],
      "stateMutability": "view",
      "type": "function"
    },
    {
      "inputs": [
        {
          "internalType": "address",
          "name": "newOwner",
          "type": "address"
        }
      ],
      "name": "transferOwnership",
      "outputs": [],
      "stateMutability": "nonpayable",
      "type": "function"
    },
    {
      "inputs": [
        {
          "internalType": "uint256",
          "name": "tokenId",
          "type": "uint256"
        }
      ],
      "name": "uri",
      "outputs": [
        {
          "internalType": "string",
          "name": "",
          "type": "string"
        }
      ],
      "stateMutability": "view",
      "type": "function"
    },
    {
      "inputs": [
        {
          "internalType": "address",
          "name": "",
          "type": "address"
        }
      ],
      "name": "userToHasBurnedStarterPack",
      "outputs": [
        {
          "internalType": "bool",
          "name": "",
          "type": "bool"
        }
      ],
      "stateMutability": "view",
      "type": "function"
    },
    {
      "inputs": [
        {
          "internalType": "address",
          "name": "",
          "type": "address"
        }
      ],
      "name": "userToHasMintedStarterPack",
      "outputs": [
        {
          "internalType": "bool",
          "name": "",
          "type": "bool"
        }
      ],
      "stateMutability": "view",
      "type": "function"
    },
    {
      "inputs": [
        {
          "internalType": "address",
          "name": "",
          "type": "address"
        }
      ],
      "name": "usersBoosterPacksMinted",
      "outputs": [
        {
          "internalType": "uint256",
          "name": "",
          "type": "uint256"
        }
      ],
      "stateMutability": "view",
      "type": "function"
    },
    {
      "inputs": [
        {
          "internalType": "address",
          "name": "",
          "type": "address"
        }
      ],
      "name": "whitelist",
      "outputs": [
        {
          "internalType": "bool",
          "name": "",
          "type": "bool"
        }
      ],
      "stateMutability": "view",
      "type": "function"
    }
  ],
  "bytecode": "0x608060405260405180602001604052806000815250601590805190602001906200002b92919062000287565b503480156200003957600080fd5b5060405162005e4e38038062005e4e83398181016040528101906200005f91906200047d565b6040518060400160405280600281526020017f5444000000000000000000000000000000000000000000000000000000000000815250620000a6816200019d60201b60201c565b50620000c7620000bb620001b960201b60201c565b620001c160201b60201c565b8360000151600d819055508360200151600e819055508360400151600781905550836060015160088190555083608001516009819055508360a00151600a81905550836040015184600001518560200151620001249190620005e5565b620001309190620005ad565b600b819055506101f4600c8190555082600490805190602001906200015792919062000287565b5081600590805190602001906200017092919062000287565b5080600690805190602001906200018992919062000287565b50600b54601e8190555050505050620007f2565b8060029080519060200190620001b592919062000287565b5050565b600033905090565b6000600360009054906101000a900473ffffffffffffffffffffffffffffffffffffffff16905081600360006101000a81548173ffffffffffffffffffffffffffffffffffffffff021916908373ffffffffffffffffffffffffffffffffffffffff1602179055508173ffffffffffffffffffffffffffffffffffffffff168173ffffffffffffffffffffffffffffffffffffffff167f8be0079c531659141344cd1fd0a4f28419497f9722a3daafe3b4186f6b6457e060405160405180910390a35050565b828054620002959062000686565b90600052602060002090601f016020900481019282620002b9576000855562000305565b82601f10620002d457805160ff191683800117855562000305565b8280016001018555821562000305579182015b8281111562000304578251825591602001919060010190620002e7565b5b50905062000314919062000318565b5090565b5b808211156200033357600081600090555060010162000319565b5090565b60006200034e620003488462000577565b6200054e565b9050828152602081018484840111156200036d576200036c620007b8565b5b6200037a84828562000650565b509392505050565b600082601f8301126200039a5762000399620007ae565b5b8151620003ac84826020860162000337565b91505092915050565b600060c08284031215620003ce57620003cd620007b3565b5b620003da60c06200054e565b90506000620003ec8482850162000466565b6000830152506020620004028482850162000466565b6020830152506040620004188482850162000466565b60408301525060606200042e8482850162000466565b6060830152506080620004448482850162000466565b60808301525060a06200045a8482850162000466565b60a08301525092915050565b6000815190506200047781620007d8565b92915050565b60008060008061012085870312156200049b576200049a620007c2565b5b6000620004ab87828801620003b5565b94505060c085015167ffffffffffffffff811115620004cf57620004ce620007bd565b5b620004dd8782880162000382565b93505060e085015167ffffffffffffffff811115620005015762000500620007bd565b5b6200050f8782880162000382565b92505061010085015167ffffffffffffffff811115620005345762000533620007bd565b5b620005428782880162000382565b91505092959194509250565b60006200055a6200056d565b9050620005688282620006bc565b919050565b6000604051905090565b600067ffffffffffffffff8211156200059557620005946200077f565b5b620005a082620007c7565b9050602081019050919050565b6000620005ba8262000646565b9150620005c78362000646565b925082620005da57620005d962000721565b5b828204905092915050565b6000620005f28262000646565b9150620005ff8362000646565b9250817fffffffffffffffffffffffffffffffffffffffffffffffffffffffffffffffff04831182151516156200063b576200063a620006f2565b5b828202905092915050565b6000819050919050565b60005b838110156200067057808201518184015260208101905062000653565b8381111562000680576000848401525b50505050565b600060028204905060018216806200069f57607f821691505b60208210811415620006b657620006b562000750565b5b50919050565b620006c782620007c7565b810181811067ffffffffffffffff82111715620006e957620006e86200077f565b5b80604052505050565b7f4e487b7100000000000000000000000000000000000000000000000000000000600052601160045260246000fd5b7f4e487b7100000000000000000000000000000000000000000000000000000000600052601260045260246000fd5b7f4e487b7100000000000000000000000000000000000000000000000000000000600052602260045260246000fd5b7f4e487b7100000000000000000000000000000000000000000000000000000000600052604160045260246000fd5b600080fd5b600080fd5b600080fd5b600080fd5b600080fd5b6000601f19601f8301169050919050565b620007e38162000646565b8114620007ef57600080fd5b50565b61564c80620008026000396000f3fe608060405234801561001057600080fd5b506004361061021b5760003560e01c80638da5cb5b11610125578063bbb13e17116100ad578063e2bd21bc1161007c578063e2bd21bc14610596578063e985e9c5146105c6578063e9866550146105f6578063f242432a14610600578063f2fde38b1461061c5761021b565b8063bbb13e1714610520578063be59ec261461052a578063cb6bfdb914610548578063d759000b146105785761021b565b8063a6ad4c01116100f4578063a6ad4c01146104a0578063a788f4f4146104aa578063ac4c07d4146104c8578063b1d8bb9c146104f8578063b585209b146105165761021b565b80638da5cb5b1461042c5780639b19251a1461044a5780639ebf488b1461047a578063a22cb465146104845761021b565b80634e1273f4116101a85780635ae698ff116101775780635ae698ff146103ae5780635d2db2bf146103de578063715018a6146103e8578063747b8050146103f257806375223f92146104225761021b565b80634e1273f41461033a5780634f3551d71461036a57806354dacb961461037457806357f7789e146103925761021b565b806319b60439116101ef57806319b60439146102ce5780632eb2c2d6146102d85780633526715d146102f45780634190a9221461031257806344eaa84e1461031c5761021b565b8062fdd58e1461022057806301ffc9a7146102505780630e89341c14610280578063143cc144146102b0575b600080fd5b61023a60048036038101906102359190613857565b610638565b60405161024791906146f5565b60405180910390f35b61026a60048036038101906102659190613958565b610701565b6040516102779190614338565b60405180910390f35b61029a600480360381019061029591906139b2565b6107e3565b6040516102a79190614353565b60405180910390f35b6102b8610888565b6040516102c591906146f5565b60405180910390f35b6102d6610892565b005b6102f260048036038101906102ed91906136b1565b61092b565b005b6102fc6109cc565b60405161030991906146f5565b60405180910390f35b61031a6109d2565b005b610324610a6b565b60405161033191906146f5565b60405180910390f35b610354600480360381019061034f91906138e0565b610a75565b60405161036191906142df565b60405180910390f35b610372610b8e565b005b61037c610d81565b60405161038991906146f5565b60405180910390f35b6103ac60048036038101906103a791906139df565b610d87565b005b6103c860048036038101906103c39190613897565b610e91565b6040516103d59190614338565b60405180910390f35b6103e6610f61565b005b6103f06110b8565b005b61040c60048036038101906104079190613644565b611140565b6040516104199190614338565b60405180910390f35b61042a61128b565b005b6104346113d4565b6040516104419190614187565b60405180910390f35b610464600480360381019061045f9190613644565b6113fe565b6040516104719190614338565b60405180910390f35b61048261141e565b005b61049e60048036038101906104999190613817565b611725565b005b6104a861173b565b005b6104b26117d4565b6040516104bf9190614338565b60405180910390f35b6104e260048036038101906104dd9190613644565b6117e7565b6040516104ef91906146f5565b60405180910390f35b6105006117ff565b60405161050d91906146f5565b60405180910390f35b61051e611805565b005b61052861189e565b005b610532611ac0565b60405161053f9190614338565b60405180910390f35b610562600480360381019061055d9190613644565b611ad3565b60405161056f9190614338565b60405180910390f35b610580611af3565b60405161058d91906146f5565b60405180910390f35b6105b060048036038101906105ab9190613644565b611af9565b6040516105bd9190614338565b60405180910390f35b6105e060048036038101906105db9190613671565b611b19565b6040516105ed9190614338565b60405180910390f35b6105fe611bad565b005b61061a60048036038101906106159190613780565b611c84565b005b61063660048036038101906106319190613644565b611d25565b005b60008073ffffffffffffffffffffffffffffffffffffffff168373ffffffffffffffffffffffffffffffffffffffff1614156106a9576040517f08c379a00000000000000000000000000000000000000000000000000000000081526004016106a0906143d5565b60405180910390fd5b60008083815260200190815260200160002060008473ffffffffffffffffffffffffffffffffffffffff1673ffffffffffffffffffffffffffffffffffffffff16815260200190815260200160002054905092915050565b60007fd9b67a26000000000000000000000000000000000000000000000000000000007bffffffffffffffffffffffffffffffffffffffffffffffffffffffff1916827bffffffffffffffffffffffffffffffffffffffffffffffffffffffff191614806107cc57507f0e89341c000000000000000000000000000000000000000000000000000000007bffffffffffffffffffffffffffffffffffffffffffffffffffffffff1916827bffffffffffffffffffffffffffffffffffffffffffffffffffffffff1916145b806107dc57506107db82611e1d565b5b9050919050565b606060226000838152602001908152602001600020805461080390614adb565b80601f016020809104026020016040519081016040528092919081815260200182805461082f90614adb565b801561087c5780601f106108515761010080835404028352916020019161087c565b820191906000526020600020905b81548152906001019060200180831161085f57829003601f168201915b50505050509050919050565b6000600e54905090565b61089a611e87565b73ffffffffffffffffffffffffffffffffffffffff166108b86113d4565b73ffffffffffffffffffffffffffffffffffffffff161461090e576040517f08c379a000000000000000000000000000000000000000000000000000000000815260040161090590614595565b60405180910390fd5b6001600f60006101000a81548160ff021916908315150217905550565b610933611e87565b73ffffffffffffffffffffffffffffffffffffffff168573ffffffffffffffffffffffffffffffffffffffff161480610979575061097885610973611e87565b611b19565b5b6109b8576040517f08c379a00000000000000000000000000000000000000000000000000000000081526004016109af906144d5565b60405180910390fd5b6109c58585858585611e8f565b5050505050565b60105481565b6109da611e87565b73ffffffffffffffffffffffffffffffffffffffff166109f86113d4565b73ffffffffffffffffffffffffffffffffffffffff1614610a4e576040517f08c379a0000000000000000000000000000000000000000000000000000000008152600401610a4590614595565b60405180910390fd5b6001600f60016101000a81548160ff021916908315150217905550565b6000602054905090565b60608151835114610abb576040517f08c379a0000000000000000000000000000000000000000000000000000000008152600401610ab290614675565b60405180910390fd5b6000835167ffffffffffffffff811115610ad857610ad7614ccc565b5b604051908082528060200260200182016040528015610b065781602001602082028036833780820191505090505b50905060005b8451811015610b8357610b53858281518110610b2b57610b2a614c9d565b5b6020026020010151858381518110610b4657610b45614c9d565b5b6020026020010151610638565b828281518110610b6657610b65614c9d565b5b60200260200101818152505080610b7c90614b3e565b9050610b0c565b508091505092915050565b600f60019054906101000a900460ff16610bdd576040517f08c379a0000000000000000000000000000000000000000000000000000000008152600401610bd490614535565b60405180910390fd5b600c5460115410610c23576040517f08c379a0000000000000000000000000000000000000000000000000000000008152600401610c1a90614495565b60405180910390fd5b6002602660003373ffffffffffffffffffffffffffffffffffffffff1673ffffffffffffffffffffffffffffffffffffffff1681526020019081526020016000205410610ca5576040517f08c379a0000000000000000000000000000000000000000000000000000000008152600401610c9c906145f5565b60405180910390fd5b602660003373ffffffffffffffffffffffffffffffffffffffff1673ffffffffffffffffffffffffffffffffffffffff1681526020019081526020016000206000815480929190610cf590614b3e565b919050555060006001600d54610d0b9190614903565b9050610d2933826001604051806020016040528060008152506121a3565b600160116000828254610d3c9190614903565b925050819055507f291f5163bddacea6a9c07f03b441256f0b5584e25fb060dbc4350552d4e9b52433601154604051610d76929190614264565b60405180910390a150565b60205481565b610d8f611e87565b73ffffffffffffffffffffffffffffffffffffffff16610dad6113d4565b73ffffffffffffffffffffffffffffffffffffffff1614610e03576040517f08c379a0000000000000000000000000000000000000000000000000000000008152600401610dfa90614595565b60405180910390fd5b6000602260008481526020019081526020016000208054610e2390614adb565b905014610e65576040517f08c379a0000000000000000000000000000000000000000000000000000000008152600401610e5c906144f5565b60405180910390fd5b80602260008481526020019081526020016000209080519060200190610e8c9291906132d8565b505050565b6000610e9b611e87565b73ffffffffffffffffffffffffffffffffffffffff16610eb96113d4565b73ffffffffffffffffffffffffffffffffffffffff1614610f0f576040517f08c379a0000000000000000000000000000000000000000000000000000000008152600401610f0690614595565b60405180910390fd5b60005b8251811015610f5b57610f3e838281518110610f3157610f30614c9d565b5b6020026020010151611140565b15610f4857600191505b8080610f5390614b3e565b915050610f12565b50919050565b610f69611e87565b73ffffffffffffffffffffffffffffffffffffffff16610f876113d4565b73ffffffffffffffffffffffffffffffffffffffff1614610fdd576040517f08c379a0000000000000000000000000000000000000000000000000000000008152600401610fd490614595565b60405180910390fd5b60005b600d54811015611051576000600d5482601454610ffd9190614903565b6110079190614bdf565b905061103d81600461101884612339565b6040516020016110299291906140f9565b604051602081830303815290604052610d87565b50808061104990614b3e565b915050610fe0565b5061107e600d54600560405160200161106a91906140e2565b604051602081830303815290604052610d87565b6110b66001600d546110909190614903565b60066040516020016110a291906140e2565b604051602081830303815290604052610d87565b565b6110c0611e87565b73ffffffffffffffffffffffffffffffffffffffff166110de6113d4565b73ffffffffffffffffffffffffffffffffffffffff1614611134576040517f08c379a000000000000000000000000000000000000000000000000000000000815260040161112b90614595565b60405180910390fd5b61113e600061249a565b565b600061114a611e87565b73ffffffffffffffffffffffffffffffffffffffff166111686113d4565b73ffffffffffffffffffffffffffffffffffffffff16146111be576040517f08c379a00000000000000000000000000000000000000000000000000000000081526004016111b590614595565b60405180910390fd5b601f60008373ffffffffffffffffffffffffffffffffffffffff1673ffffffffffffffffffffffffffffffffffffffff16815260200190815260200160002060009054906101000a900460ff16611286576001601f60008473ffffffffffffffffffffffffffffffffffffffff1673ffffffffffffffffffffffffffffffffffffffff16815260200190815260200160002060006101000a81548160ff02191690831515021790555060016020600082825461127a9190614903565b92505081905550600190505b919050565b60006001600d5461129c9190614903565b9050600f60019054906101000a900460ff166112ed576040517f08c379a00000000000000000000000000000000000000000000000000000000081526004016112e490614615565b60405180910390fd5b60006112f93383610638565b11611339576040517f08c379a0000000000000000000000000000000000000000000000000000000008152600401611330906143b5565b60405180910390fd5b6000611343612560565b905060005b60038160ff16101561138a57611377828260ff166003811061136d5761136c614c9d565b5b6020020151612674565b808061138290614b87565b915050611348565b506113973383600161276f565b7fbcb32b44239ac671808c82d921ce5fe68940a520f60a18bba7a850aa2df5e0f581336040516113c892919061428d565b60405180910390a15050565b6000600360009054906101000a900473ffffffffffffffffffffffffffffffffffffffff16905090565b601f6020528060005260406000206000915054906101000a900460ff1681565b602160009054906101000a900460ff16806114455750602160019054906101000a900460ff165b611484576040517f08c379a000000000000000000000000000000000000000000000000000000000815260040161147b906146b5565b60405180910390fd5b602160009054906101000a900460ff1680156114ad5750602160019054906101000a900460ff16155b1561153f57601f60003373ffffffffffffffffffffffffffffffffffffffff1673ffffffffffffffffffffffffffffffffffffffff16815260200190815260200160002060009054906101000a900460ff1661153e576040517f08c379a000000000000000000000000000000000000000000000000000000000815260040161153590614455565b60405180910390fd5b5b600b5460105410611585576040517f08c379a000000000000000000000000000000000000000000000000000000000815260040161157c906145d5565b60405180910390fd5b602560003373ffffffffffffffffffffffffffffffffffffffff1673ffffffffffffffffffffffffffffffffffffffff16815260200190815260200160002060009054906101000a900460ff1615611612576040517f08c379a000000000000000000000000000000000000000000000000000000000815260040161160990614635565b60405180910390fd5b6001602560003373ffffffffffffffffffffffffffffffffffffffff1673ffffffffffffffffffffffffffffffffffffffff16815260200190815260200160002060006101000a81548160ff0219169083151502179055506000600d5490506116b3338260016040518060400160405280600481526020017f30783030000000000000000000000000000000000000000000000000000000008152506121a3565b6001601060008282546116c69190614903565b925050819055506001601e60008282546116e091906149e4565b925050819055507f860d172ac100c8812174aed296380fd0f991c9eb7e662a43998a370526fd9bfe3360105460405161171a929190614264565b60405180910390a150565b611737611730611e87565b838361298c565b5050565b611743611e87565b73ffffffffffffffffffffffffffffffffffffffff166117616113d4565b73ffffffffffffffffffffffffffffffffffffffff16146117b7576040517f08c379a00000000000000000000000000000000000000000000000000000000081526004016117ae90614595565b60405180910390fd5b6001602160006101000a81548160ff021916908315150217905550565b600f60019054906101000a900460ff1681565b60266020528060005260406000206000915090505481565b60115481565b61180d611e87565b73ffffffffffffffffffffffffffffffffffffffff1661182b6113d4565b73ffffffffffffffffffffffffffffffffffffffff1614611881576040517f08c379a000000000000000000000000000000000000000000000000000000000815260040161187890614595565b60405180910390fd5b6001602160016101000a81548160ff021916908315150217905550565b6000600d549050602460003373ffffffffffffffffffffffffffffffffffffffff1673ffffffffffffffffffffffffffffffffffffffff16815260200190815260200160002060009054906101000a900460ff1615611932576040517f08c379a000000000000000000000000000000000000000000000000000000000815260040161192990614575565b60405180910390fd5b600f60009054906101000a900460ff16611981576040517f08c379a000000000000000000000000000000000000000000000000000000000815260040161197890614615565b60405180910390fd5b600061198d3383610638565b116119cd576040517f08c379a00000000000000000000000000000000000000000000000000000000081526004016119c4906145b5565b60405180910390fd5b6001602460003373ffffffffffffffffffffffffffffffffffffffff1673ffffffffffffffffffffffffffffffffffffffff16815260200190815260200160002060006101000a81548160ff0219169083151502179055506000611a2f612af9565b905060005b60058160ff161015611a7657611a63828260ff1660058110611a5957611a58614c9d565b5b6020020151612674565b8080611a6e90614b87565b915050611a34565b50611a833383600161276f565b7ff701dcbe064b8772e0f5c01bc8f97456e13e83bd1dcfefd7ee6bddfc366b6caa8133604051611ab49291906142b6565b60405180910390a15050565b600f60009054906101000a900460ff1681565b60256020528060005260406000206000915054906101000a900460ff1681565b601e5481565b60246020528060005260406000206000915054906101000a900460ff1681565b6000600160008473ffffffffffffffffffffffffffffffffffffffff1673ffffffffffffffffffffffffffffffffffffffff16815260200190815260200160002060008373ffffffffffffffffffffffffffffffffffffffff1673ffffffffffffffffffffffffffffffffffffffff16815260200190815260200160002060009054906101000a900460ff16905092915050565b611bb5611e87565b73ffffffffffffffffffffffffffffffffffffffff16611bd36113d4565b73ffffffffffffffffffffffffffffffffffffffff1614611c29576040517f08c379a0000000000000000000000000000000000000000000000000000000008152600401611c2090614595565b60405180910390fd5b600e54600d54611c39919061498a565b600143611c4691906149e4565b4060001c611c549190614bdf565b60148190555060006014541415611c8257611c7b6001601454612bdd90919063ffffffff16565b6014819055505b565b611c8c611e87565b73ffffffffffffffffffffffffffffffffffffffff168573ffffffffffffffffffffffffffffffffffffffff161480611cd25750611cd185611ccc611e87565b611b19565b5b611d11576040517f08c379a0000000000000000000000000000000000000000000000000000000008152600401611d0890614435565b60405180910390fd5b611d1e8585858585612bf3565b5050505050565b611d2d611e87565b73ffffffffffffffffffffffffffffffffffffffff16611d4b6113d4565b73ffffffffffffffffffffffffffffffffffffffff1614611da1576040517f08c379a0000000000000000000000000000000000000000000000000000000008152600401611d9890614595565b60405180910390fd5b600073ffffffffffffffffffffffffffffffffffffffff168173ffffffffffffffffffffffffffffffffffffffff161415611e11576040517f08c379a0000000000000000000000000000000000000000000000000000000008152600401611e08906143f5565b60405180910390fd5b611e1a8161249a565b50565b60007f01ffc9a7000000000000000000000000000000000000000000000000000000007bffffffffffffffffffffffffffffffffffffffffffffffffffffffff1916827bffffffffffffffffffffffffffffffffffffffffffffffffffffffff1916149050919050565b600033905090565b8151835114611ed3576040517f08c379a0000000000000000000000000000000000000000000000000000000008152600401611eca90614695565b60405180910390fd5b600073ffffffffffffffffffffffffffffffffffffffff168473ffffffffffffffffffffffffffffffffffffffff161415611f43576040517f08c379a0000000000000000000000000000000000000000000000000000000008152600401611f3a906144b5565b60405180910390fd5b6000611f4d611e87565b9050611f5d818787878787612e75565b60005b845181101561210e576000858281518110611f7e57611f7d614c9d565b5b602002602001015190506000858381518110611f9d57611f9c614c9d565b5b60200260200101519050600080600084815260200190815260200160002060008b73ffffffffffffffffffffffffffffffffffffffff1673ffffffffffffffffffffffffffffffffffffffff1681526020019081526020016000205490508181101561203e576040517f08c379a000000000000000000000000000000000000000000000000000000000815260040161203590614555565b60405180910390fd5b81810360008085815260200190815260200160002060008c73ffffffffffffffffffffffffffffffffffffffff1673ffffffffffffffffffffffffffffffffffffffff168152602001908152602001600020819055508160008085815260200190815260200160002060008b73ffffffffffffffffffffffffffffffffffffffff1673ffffffffffffffffffffffffffffffffffffffff16815260200190815260200160002060008282546120f39190614903565b925050819055505050508061210790614b3e565b9050611f60565b508473ffffffffffffffffffffffffffffffffffffffff168673ffffffffffffffffffffffffffffffffffffffff168273ffffffffffffffffffffffffffffffffffffffff167f4a39dc06d4c0dbc64b70af90fd698a233a518aa5d07e595d983b8c0526c8f7fb8787604051612185929190614301565b60405180910390a461219b818787878787612e7d565b505050505050565b600073ffffffffffffffffffffffffffffffffffffffff168473ffffffffffffffffffffffffffffffffffffffff161415612213576040517f08c379a000000000000000000000000000000000000000000000000000000000815260040161220a906146d5565b60405180910390fd5b600061221d611e87565b905061223e8160008761222f88613064565b61223888613064565b87612e75565b8260008086815260200190815260200160002060008773ffffffffffffffffffffffffffffffffffffffff1673ffffffffffffffffffffffffffffffffffffffff168152602001908152602001600020600082825461229d9190614903565b925050819055508473ffffffffffffffffffffffffffffffffffffffff16600073ffffffffffffffffffffffffffffffffffffffff168273ffffffffffffffffffffffffffffffffffffffff167fc3d58168c5ae7397731d063d5bbf3d657854427343f4c083240f7aacaa2d0f62878760405161231b929190614710565b60405180910390a4612332816000878787876130de565b5050505050565b60606000821415612381576040518060400160405280600181526020017f30000000000000000000000000000000000000000000000000000000000000008152509050612495565b600082905060005b600082146123b357808061239c90614b3e565b915050600a826123ac9190614959565b9150612389565b60008167ffffffffffffffff8111156123cf576123ce614ccc565b5b6040519080825280601f01601f1916602001820160405280156124015781602001600182028036833780820191505090505b5090505b6000851461248e5760018261241a91906149e4565b9150600a856124299190614bdf565b60306124359190614903565b60f81b81838151811061244b5761244a614c9d565b5b60200101907effffffffffffffffffffffffffffffffffffffffffffffffffffffffffffff1916908160001a905350600a856124879190614959565b9450612405565b8093505050505b919050565b6000600360009054906101000a900473ffffffffffffffffffffffffffffffffffffffff16905081600360006101000a81548173ffffffffffffffffffffffffffffffffffffffff021916908373ffffffffffffffffffffffffffffffffffffffff1602179055508173ffffffffffffffffffffffffffffffffffffffff168173ffffffffffffffffffffffffffffffffffffffff167f8be0079c531659141344cd1fd0a4f28419497f9722a3daafe3b4186f6b6457e060405160405180910390a35050565b61256861335e565b61257061335e565b600060054361257f9190614bdf565b905060005b600381101561266b5760058261259a9190614bdf565b91506000600a836125ab919061498a565b905060006009600a856125be919061498a565b6125c89190614903565b905081600183836125d991906149e4565b6125e39190614903565b423344876011546040516020016125fe959493929190614128565b6040516020818303038152906040528051906020012060001c6126219190614bdf565b61262b9190614903565b85846003811061263e5761263d614c9d565b5b6020020181815250506001846126549190614903565b93505050808061266390614b3e565b915050612584565b50819250505090565b600e54600d54612684919061498a565b601254101561276c57600e546023600083815260200190815260200160002054106126e4576040517f08c379a00000000000000000000000000000000000000000000000000000000081526004016126db90614475565b60405180910390fd5b612726338260016040518060400160405280600481526020017f30783030000000000000000000000000000000000000000000000000000000008152506121a3565b600160236000838152602001908152602001600020600082825461274a9190614903565b925050819055506001601260008282546127649190614903565b925050819055505b50565b600073ffffffffffffffffffffffffffffffffffffffff168373ffffffffffffffffffffffffffffffffffffffff1614156127df576040517f08c379a00000000000000000000000000000000000000000000000000000000081526004016127d690614515565b60405180910390fd5b60006127e9611e87565b9050612819818560006127fb87613064565b61280487613064565b60405180602001604052806000815250612e75565b600080600085815260200190815260200160002060008673ffffffffffffffffffffffffffffffffffffffff1673ffffffffffffffffffffffffffffffffffffffff168152602001908152602001600020549050828110156128b0576040517f08c379a00000000000000000000000000000000000000000000000000000000081526004016128a790614415565b60405180910390fd5b82810360008086815260200190815260200160002060008773ffffffffffffffffffffffffffffffffffffffff1673ffffffffffffffffffffffffffffffffffffffff16815260200190815260200160002081905550600073ffffffffffffffffffffffffffffffffffffffff168573ffffffffffffffffffffffffffffffffffffffff168373ffffffffffffffffffffffffffffffffffffffff167fc3d58168c5ae7397731d063d5bbf3d657854427343f4c083240f7aacaa2d0f62878760405161297d929190614710565b60405180910390a45050505050565b8173ffffffffffffffffffffffffffffffffffffffff168373ffffffffffffffffffffffffffffffffffffffff1614156129fb576040517f08c379a00000000000000000000000000000000000000000000000000000000081526004016129f290614655565b60405180910390fd5b80600160008573ffffffffffffffffffffffffffffffffffffffff1673ffffffffffffffffffffffffffffffffffffffff16815260200190815260200160002060008473ffffffffffffffffffffffffffffffffffffffff1673ffffffffffffffffffffffffffffffffffffffff16815260200190815260200160002060006101000a81548160ff0219169083151502179055508173ffffffffffffffffffffffffffffffffffffffff168373ffffffffffffffffffffffffffffffffffffffff167f17307eab39ab6107e8899845ad3d59bd9653f200f220920489ca2b5937696c3183604051612aec9190614338565b60405180910390a3505050565b612b01613380565b612b09613380565b60005b6005811015612bd5576000600a82612b24919061498a565b905060006009600a84612b37919061498a565b612b419190614903565b90508160018383612b5291906149e4565b612b5c9190614903565b42334487601054604051602001612b77959493929190614128565b6040516020818303038152906040528051906020012060001c612b9a9190614bdf565b612ba49190614903565b848460058110612bb757612bb6614c9d565b5b60200201818152505050508080612bcd90614b3e565b915050612b0c565b508091505090565b60008183612beb9190614903565b905092915050565b600073ffffffffffffffffffffffffffffffffffffffff168473ffffffffffffffffffffffffffffffffffffffff161415612c63576040517f08c379a0000000000000000000000000000000000000000000000000000000008152600401612c5a906144b5565b60405180910390fd5b6000612c6d611e87565b9050612c8d818787612c7e88613064565b612c8788613064565b87612e75565b600080600086815260200190815260200160002060008873ffffffffffffffffffffffffffffffffffffffff1673ffffffffffffffffffffffffffffffffffffffff16815260200190815260200160002054905083811015612d24576040517f08c379a0000000000000000000000000000000000000000000000000000000008152600401612d1b90614555565b60405180910390fd5b83810360008087815260200190815260200160002060008973ffffffffffffffffffffffffffffffffffffffff1673ffffffffffffffffffffffffffffffffffffffff168152602001908152602001600020819055508360008087815260200190815260200160002060008873ffffffffffffffffffffffffffffffffffffffff1673ffffffffffffffffffffffffffffffffffffffff1681526020019081526020016000206000828254612dd99190614903565b925050819055508573ffffffffffffffffffffffffffffffffffffffff168773ffffffffffffffffffffffffffffffffffffffff168373ffffffffffffffffffffffffffffffffffffffff167fc3d58168c5ae7397731d063d5bbf3d657854427343f4c083240f7aacaa2d0f628888604051612e56929190614710565b60405180910390a4612e6c8288888888886130de565b50505050505050565b505050505050565b612e9c8473ffffffffffffffffffffffffffffffffffffffff166132c5565b1561305c578373ffffffffffffffffffffffffffffffffffffffff1663bc197c8187878686866040518663ffffffff1660e01b8152600401612ee29594939291906141a2565b602060405180830381600087803b158015612efc57600080fd5b505af1925050508015612f2d57506040513d601f19601f82011682018060405250810190612f2a9190613985565b60015b612fd357612f39614cfb565b806308c379a01415612f965750612f4e615524565b80612f595750612f98565b806040517f08c379a0000000000000000000000000000000000000000000000000000000008152600401612f8d9190614353565b60405180910390fd5b505b6040517f08c379a0000000000000000000000000000000000000000000000000000000008152600401612fca90614375565b60405180910390fd5b63bc197c8160e01b7bffffffffffffffffffffffffffffffffffffffffffffffffffffffff1916817bffffffffffffffffffffffffffffffffffffffffffffffffffffffff19161461305a576040517f08c379a000000000000000000000000000000000000000000000000000000000815260040161305190614395565b60405180910390fd5b505b505050505050565b60606000600167ffffffffffffffff81111561308357613082614ccc565b5b6040519080825280602002602001820160405280156130b15781602001602082028036833780820191505090505b50905082816000815181106130c9576130c8614c9d565b5b60200260200101818152505080915050919050565b6130fd8473ffffffffffffffffffffffffffffffffffffffff166132c5565b156132bd578373ffffffffffffffffffffffffffffffffffffffff1663f23a6e6187878686866040518663ffffffff1660e01b815260040161314395949392919061420a565b602060405180830381600087803b15801561315d57600080fd5b505af192505050801561318e57506040513d601f19601f8201168201806040525081019061318b9190613985565b60015b6132345761319a614cfb565b806308c379a014156131f757506131af615524565b806131ba57506131f9565b806040517f08c379a00000000000000000000000000000000000000000000000000000000081526004016131ee9190614353565b60405180910390fd5b505b6040517f08c379a000000000000000000000000000000000000000000000000000000000815260040161322b90614375565b60405180910390fd5b63f23a6e6160e01b7bffffffffffffffffffffffffffffffffffffffffffffffffffffffff1916817bffffffffffffffffffffffffffffffffffffffffffffffffffffffff1916146132bb576040517f08c379a00000000000000000000000000000000000000000000000000000000081526004016132b290614395565b60405180910390fd5b505b505050505050565b600080823b905060008111915050919050565b8280546132e490614adb565b90600052602060002090601f016020900481019282613306576000855561334d565b82601f1061331f57805160ff191683800117855561334d565b8280016001018555821561334d579182015b8281111561334c578251825591602001919060010190613331565b5b50905061335a91906133a2565b5090565b6040518060600160405280600390602082028036833780820191505090505090565b6040518060a00160405280600590602082028036833780820191505090505090565b5b808211156133bb5760008160009055506001016133a3565b5090565b60006133d26133cd8461475e565b614739565b905080838252602082019050828560208602820111156133f5576133f4614d22565b5b60005b85811015613425578161340b8882613523565b8452602084019350602083019250506001810190506133f8565b5050509392505050565b600061344261343d8461478a565b614739565b9050808382526020820190508285602086028201111561346557613464614d22565b5b60005b85811015613495578161347b888261362f565b845260208401935060208301925050600181019050613468565b5050509392505050565b60006134b26134ad846147b6565b614739565b9050828152602081018484840111156134ce576134cd614d27565b5b6134d9848285614a99565b509392505050565b60006134f46134ef846147e7565b614739565b9050828152602081018484840111156135105761350f614d27565b5b61351b848285614a99565b509392505050565b600081359050613532816155ba565b92915050565b600082601f83011261354d5761354c614d1d565b5b813561355d8482602086016133bf565b91505092915050565b600082601f83011261357b5761357a614d1d565b5b813561358b84826020860161342f565b91505092915050565b6000813590506135a3816155d1565b92915050565b6000813590506135b8816155e8565b92915050565b6000815190506135cd816155e8565b92915050565b600082601f8301126135e8576135e7614d1d565b5b81356135f884826020860161349f565b91505092915050565b600082601f83011261361657613615614d1d565b5b81356136268482602086016134e1565b91505092915050565b60008135905061363e816155ff565b92915050565b60006020828403121561365a57613659614d31565b5b600061366884828501613523565b91505092915050565b6000806040838503121561368857613687614d31565b5b600061369685828601613523565b92505060206136a785828601613523565b9150509250929050565b600080600080600060a086880312156136cd576136cc614d31565b5b60006136db88828901613523565b95505060206136ec88828901613523565b945050604086013567ffffffffffffffff81111561370d5761370c614d2c565b5b61371988828901613566565b935050606086013567ffffffffffffffff81111561373a57613739614d2c565b5b61374688828901613566565b925050608086013567ffffffffffffffff81111561376757613766614d2c565b5b613773888289016135d3565b9150509295509295909350565b600080600080600060a0868803121561379c5761379b614d31565b5b60006137aa88828901613523565b95505060206137bb88828901613523565b94505060406137cc8882890161362f565b93505060606137dd8882890161362f565b925050608086013567ffffffffffffffff8111156137fe576137fd614d2c565b5b61380a888289016135d3565b9150509295509295909350565b6000806040838503121561382e5761382d614d31565b5b600061383c85828601613523565b925050602061384d85828601613594565b9150509250929050565b6000806040838503121561386e5761386d614d31565b5b600061387c85828601613523565b925050602061388d8582860161362f565b9150509250929050565b6000602082840312156138ad576138ac614d31565b5b600082013567ffffffffffffffff8111156138cb576138ca614d2c565b5b6138d784828501613538565b91505092915050565b600080604083850312156138f7576138f6614d31565b5b600083013567ffffffffffffffff81111561391557613914614d2c565b5b61392185828601613538565b925050602083013567ffffffffffffffff81111561394257613941614d2c565b5b61394e85828601613566565b9150509250929050565b60006020828403121561396e5761396d614d31565b5b600061397c848285016135a9565b91505092915050565b60006020828403121561399b5761399a614d31565b5b60006139a9848285016135be565b91505092915050565b6000602082840312156139c8576139c7614d31565b5b60006139d68482850161362f565b91505092915050565b600080604083850312156139f6576139f5614d31565b5b6000613a048582860161362f565b925050602083013567ffffffffffffffff811115613a2557613a24614d2c565b5b613a3185828601613601565b9150509250929050565b6000613a4783836140ad565b60208301905092915050565b613a5c81614a18565b82525050565b613a73613a6e82614a18565b614bb1565b82525050565b613a8281614851565b613a8c81846148af565b9250613a9782614818565b8060005b83811015613ac8578151613aaf8782613a3b565b9650613aba83614888565b925050600181019050613a9b565b505050505050565b613ad98161485c565b613ae381846148ba565b9250613aee82614822565b8060005b83811015613b1f578151613b068782613a3b565b9650613b1183614895565b925050600181019050613af2565b505050505050565b6000613b3282614867565b613b3c81856148c5565b9350613b478361482c565b8060005b83811015613b78578151613b5f8882613a3b565b9750613b6a836148a2565b925050600181019050613b4b565b5085935050505092915050565b613b8e81614a2a565b82525050565b6000613b9f82614872565b613ba981856148d6565b9350613bb9818560208601614aa8565b613bc281614d36565b840191505092915050565b6000613bd88261487d565b613be281856148e7565b9350613bf2818560208601614aa8565b613bfb81614d36565b840191505092915050565b6000613c118261487d565b613c1b81856148f8565b9350613c2b818560208601614aa8565b80840191505092915050565b60008154613c4481614adb565b613c4e81866148f8565b94506001821660008114613c695760018114613c7a57613cad565b60ff19831686528186019350613cad565b613c838561483c565b60005b83811015613ca557815481890152600182019150602081019050613c86565b838801955050505b50505092915050565b6000613cc36034836148e7565b9150613cce82614d61565b604082019050919050565b6000613ce66028836148e7565b9150613cf182614db0565b604082019050919050565b6000613d09601b836148e7565b9150613d1482614dff565b602082019050919050565b6000613d2c602b836148e7565b9150613d3782614e28565b604082019050919050565b6000613d4f6026836148e7565b9150613d5a82614e77565b604082019050919050565b6000613d726024836148e7565b9150613d7d82614ec6565b604082019050919050565b6000613d956029836148e7565b9150613da082614f15565b604082019050919050565b6000613db86018836148e7565b9150613dc382614f64565b602082019050919050565b6000613ddb602d836148e7565b9150613de682614f8d565b604082019050919050565b6000613dfe602b836148e7565b9150613e0982614fdc565b604082019050919050565b6000613e216025836148e7565b9150613e2c8261502b565b604082019050919050565b6000613e446032836148e7565b9150613e4f8261507a565b604082019050919050565b6000613e676014836148e7565b9150613e72826150c9565b602082019050919050565b6000613e8a6023836148e7565b9150613e95826150f2565b604082019050919050565b6000613ead6023836148e7565b9150613eb882615141565b604082019050919050565b6000613ed0602a836148e7565b9150613edb82615190565b604082019050919050565b6000613ef36020836148e7565b9150613efe826151df565b602082019050919050565b6000613f166005836148f8565b9150613f2182615208565b600582019050919050565b6000613f396020836148e7565b9150613f4482615231565b602082019050919050565b6000613f5c602b836148e7565b9150613f678261525a565b604082019050919050565b6000613f7f6023836148e7565b9150613f8a826152a9565b604082019050919050565b6000613fa2602b836148e7565b9150613fad826152f8565b604082019050919050565b6000613fc5601f836148e7565b9150613fd082615347565b602082019050919050565b6000613fe8602a836148e7565b9150613ff382615370565b604082019050919050565b600061400b6029836148e7565b9150614016826153bf565b604082019050919050565b600061402e6029836148e7565b91506140398261540e565b604082019050919050565b60006140516028836148e7565b915061405c8261545d565b604082019050919050565b6000614074601f836148e7565b915061407f826154ac565b602082019050919050565b60006140976021836148e7565b91506140a2826154d5565b604082019050919050565b6140b681614a82565b82525050565b6140c581614a82565b82525050565b6140dc6140d782614a82565b614bd5565b82525050565b60006140ee8284613c37565b915081905092915050565b60006141058285613c37565b91506141118284613c06565b915061411c82613f09565b91508190509392505050565b600061413482886140cb565b6020820191506141448287613a62565b60148201915061415482866140cb565b60208201915061416482856140cb565b60208201915061417482846140cb565b6020820191508190509695505050505050565b600060208201905061419c6000830184613a53565b92915050565b600060a0820190506141b76000830188613a53565b6141c46020830187613a53565b81810360408301526141d68186613b27565b905081810360608301526141ea8185613b27565b905081810360808301526141fe8184613b94565b90509695505050505050565b600060a08201905061421f6000830188613a53565b61422c6020830187613a53565b61423960408301866140bc565b61424660608301856140bc565b81810360808301526142588184613b94565b90509695505050505050565b60006040820190506142796000830185613a53565b61428660208301846140bc565b9392505050565b60006080820190506142a26000830185613a79565b6142af6060830184613a53565b9392505050565b600060c0820190506142cb6000830185613ad0565b6142d860a0830184613a53565b9392505050565b600060208201905081810360008301526142f98184613b27565b905092915050565b6000604082019050818103600083015261431b8185613b27565b9050818103602083015261432f8184613b27565b90509392505050565b600060208201905061434d6000830184613b85565b92915050565b6000602082019050818103600083015261436d8184613bcd565b905092915050565b6000602082019050818103600083015261438e81613cb6565b9050919050565b600060208201905081810360008301526143ae81613cd9565b9050919050565b600060208201905081810360008301526143ce81613cfc565b9050919050565b600060208201905081810360008301526143ee81613d1f565b9050919050565b6000602082019050818103600083015261440e81613d42565b9050919050565b6000602082019050818103600083015261442e81613d65565b9050919050565b6000602082019050818103600083015261444e81613d88565b9050919050565b6000602082019050818103600083015261446e81613dab565b9050919050565b6000602082019050818103600083015261448e81613dce565b9050919050565b600060208201905081810360008301526144ae81613df1565b9050919050565b600060208201905081810360008301526144ce81613e14565b9050919050565b600060208201905081810360008301526144ee81613e37565b9050919050565b6000602082019050818103600083015261450e81613e5a565b9050919050565b6000602082019050818103600083015261452e81613e7d565b9050919050565b6000602082019050818103600083015261454e81613ea0565b9050919050565b6000602082019050818103600083015261456e81613ec3565b9050919050565b6000602082019050818103600083015261458e81613ee6565b9050919050565b600060208201905081810360008301526145ae81613f2c565b9050919050565b600060208201905081810360008301526145ce81613f4f565b9050919050565b600060208201905081810360008301526145ee81613f72565b9050919050565b6000602082019050818103600083015261460e81613f95565b9050919050565b6000602082019050818103600083015261462e81613fb8565b9050919050565b6000602082019050818103600083015261464e81613fdb565b9050919050565b6000602082019050818103600083015261466e81613ffe565b9050919050565b6000602082019050818103600083015261468e81614021565b9050919050565b600060208201905081810360008301526146ae81614044565b9050919050565b600060208201905081810360008301526146ce81614067565b9050919050565b600060208201905081810360008301526146ee8161408a565b9050919050565b600060208201905061470a60008301846140bc565b92915050565b600060408201905061472560008301856140bc565b61473260208301846140bc565b9392505050565b6000614743614754565b905061474f8282614b0d565b919050565b6000604051905090565b600067ffffffffffffffff82111561477957614778614ccc565b5b602082029050602081019050919050565b600067ffffffffffffffff8211156147a5576147a4614ccc565b5b602082029050602081019050919050565b600067ffffffffffffffff8211156147d1576147d0614ccc565b5b6147da82614d36565b9050602081019050919050565b600067ffffffffffffffff82111561480257614801614ccc565b5b61480b82614d36565b9050602081019050919050565b6000819050919050565b6000819050919050565b6000819050602082019050919050565b60008190508160005260206000209050919050565b600060039050919050565b600060059050919050565b600081519050919050565b600081519050919050565b600081519050919050565b6000602082019050919050565b6000602082019050919050565b6000602082019050919050565b600081905092915050565b600081905092915050565b600082825260208201905092915050565b600082825260208201905092915050565b600082825260208201905092915050565b600081905092915050565b600061490e82614a82565b915061491983614a82565b9250827fffffffffffffffffffffffffffffffffffffffffffffffffffffffffffffffff0382111561494e5761494d614c10565b5b828201905092915050565b600061496482614a82565b915061496f83614a82565b92508261497f5761497e614c3f565b5b828204905092915050565b600061499582614a82565b91506149a083614a82565b9250817fffffffffffffffffffffffffffffffffffffffffffffffffffffffffffffffff04831182151516156149d9576149d8614c10565b5b828202905092915050565b60006149ef82614a82565b91506149fa83614a82565b925082821015614a0d57614a0c614c10565b5b828203905092915050565b6000614a2382614a62565b9050919050565b60008115159050919050565b60007fffffffff0000000000000000000000000000000000000000000000000000000082169050919050565b600073ffffffffffffffffffffffffffffffffffffffff82169050919050565b6000819050919050565b600060ff82169050919050565b82818337600083830152505050565b60005b83811015614ac6578082015181840152602081019050614aab565b83811115614ad5576000848401525b50505050565b60006002820490506001821680614af357607f821691505b60208210811415614b0757614b06614c6e565b5b50919050565b614b1682614d36565b810181811067ffffffffffffffff82111715614b3557614b34614ccc565b5b80604052505050565b6000614b4982614a82565b91507fffffffffffffffffffffffffffffffffffffffffffffffffffffffffffffffff821415614b7c57614b7b614c10565b5b600182019050919050565b6000614b9282614a8c565b915060ff821415614ba657614ba5614c10565b5b600182019050919050565b6000614bbc82614bc3565b9050919050565b6000614bce82614d47565b9050919050565b6000819050919050565b6000614bea82614a82565b9150614bf583614a82565b925082614c0557614c04614c3f565b5b828206905092915050565b7f4e487b7100000000000000000000000000000000000000000000000000000000600052601160045260246000fd5b7f4e487b7100000000000000000000000000000000000000000000000000000000600052601260045260246000fd5b7f4e487b7100000000000000000000000000000000000000000000000000000000600052602260045260246000fd5b7f4e487b7100000000000000000000000000000000000000000000000000000000600052603260045260246000fd5b7f4e487b7100000000000000000000000000000000000000000000000000000000600052604160045260246000fd5b600060033d1115614d1a5760046000803e614d17600051614d54565b90505b90565b600080fd5b600080fd5b600080fd5b600080fd5b600080fd5b6000601f19601f8301169050919050565b60008160601b9050919050565b60008160e01c9050919050565b7f455243313135353a207472616e7366657220746f206e6f6e204552433131353560008201527f526563656976657220696d706c656d656e746572000000000000000000000000602082015250565b7f455243313135353a204552433131353552656365697665722072656a6563746560008201527f6420746f6b656e73000000000000000000000000000000000000000000000000602082015250565b7f4e6f2072656d61696e696e6720626f6f73746572207061636b73210000000000600082015250565b7f455243313135353a2062616c616e636520717565727920666f7220746865207a60008201527f65726f2061646472657373000000000000000000000000000000000000000000602082015250565b7f4f776e61626c653a206e6577206f776e657220697320746865207a65726f206160008201527f6464726573730000000000000000000000000000000000000000000000000000602082015250565b7f455243313135353a206275726e20616d6f756e7420657863656564732062616c60008201527f616e636500000000000000000000000000000000000000000000000000000000602082015250565b7f455243313135353a2063616c6c6572206973206e6f74206f776e6572206e6f7260008201527f20617070726f7665640000000000000000000000000000000000000000000000602082015250565b7f55736572206973206e6f742077686974656c69737465642e0000000000000000600082015250565b7f416c6c206f662074686973206174686c657465206861766520616c726561647960008201527f206265656e206d696e7465642100000000000000000000000000000000000000602082015250565b7f416c6c20626f6f73746572207061636b73206861766520616c7265616479206260008201527f65656e206d696e74656421000000000000000000000000000000000000000000602082015250565b7f455243313135353a207472616e7366657220746f20746865207a65726f20616460008201527f6472657373000000000000000000000000000000000000000000000000000000602082015250565b7f455243313135353a207472616e736665722063616c6c6572206973206e6f742060008201527f6f776e6572206e6f7220617070726f7665640000000000000000000000000000602082015250565b7f43616e6e6f742073657420757269207477696365000000000000000000000000600082015250565b7f455243313135353a206275726e2066726f6d20746865207a65726f206164647260008201527f6573730000000000000000000000000000000000000000000000000000000000602082015250565b7f426f6f73746572207061636b732063616e6e6f74206265206f70656e6564207960008201527f6574210000000000000000000000000000000000000000000000000000000000602082015250565b7f455243313135353a20696e73756666696369656e742062616c616e636520666f60008201527f72207472616e7366657200000000000000000000000000000000000000000000602082015250565b7f596f752063616e6e6f74206275726e206d6f7265207468616e2031207061636b600082015250565b7f2e6a736f6e000000000000000000000000000000000000000000000000000000600082015250565b7f4f776e61626c653a2063616c6c6572206973206e6f7420746865206f776e6572600082015250565b7f53746172746572207061636b20646f6573206e6f7420657869737420696e207560008201527f736572732077616c6c6574000000000000000000000000000000000000000000602082015250565b7f416c6c207061636b73206861766520616c7265616479206265656e206d696e7460008201527f6564210000000000000000000000000000000000000000000000000000000000602082015250565b7f43616e206f6e6c79206d696e742074776f20626f6f73746572207061636b732060008201527f706572206163636f756e74000000000000000000000000000000000000000000602082015250565b7f5061636b73206172656e277420726561647920746f206f70656e207965742100600082015250565b7f43616e206f6e6c79206d696e74206f6e652073746172746572207061636b207060008201527f6572206163636f756e7400000000000000000000000000000000000000000000602082015250565b7f455243313135353a2073657474696e6720617070726f76616c2073746174757360008201527f20666f722073656c660000000000000000000000000000000000000000000000602082015250565b7f455243313135353a206163636f756e747320616e6420696473206c656e67746860008201527f206d69736d617463680000000000000000000000000000000000000000000000602082015250565b7f455243313135353a2069647320616e6420616d6f756e7473206c656e6774682060008201527f6d69736d61746368000000000000000000000000000000000000000000000000602082015250565b7f507269766174652073616c65206861736e2774206f70656e6564207965742e00600082015250565b7f455243313135353a206d696e7420746f20746865207a65726f2061646472657360008201527f7300000000000000000000000000000000000000000000000000000000000000602082015250565b600060443d1015615534576155b7565b61553c614754565b60043d036004823e80513d602482011167ffffffffffffffff821117156155645750506155b7565b808201805167ffffffffffffffff81111561558257505050506155b7565b80602083010160043d03850181111561559f5750505050506155b7565b6155ae82602001850186614b0d565b82955050505050505b90565b6155c381614a18565b81146155ce57600080fd5b50565b6155da81614a2a565b81146155e557600080fd5b50565b6155f181614a36565b81146155fc57600080fd5b50565b61560881614a82565b811461561357600080fd5b5056fea2646970667358221220cd456c7c135c023c4e686842c8d397c5956b7d48dec7170192d1e3f5fe0cd80c64736f6c63430008070033",
  "linkReferences": {},
  "deployedLinkReferences": {}
}