{
  "_format": "hh-sol-artifact-1",
  "contractName": "GameItems",
  "sourceName": "contracts/GameItems.sol",
  "abi": [
    {
      "inputs": [
        {
          "components": [
            {
              "internalType": "uint256",
              "name": "_numAthletes",
              "type": "uint256"
            },
            {
              "internalType": "uint256",
              "name": "_nftPerAthlete",
              "type": "uint256"
            },
            {
              "internalType": "uint256",
              "name": "_starterPackSize",
              "type": "uint256"
            },
            {
              "internalType": "uint256",
              "name": "_boosterPackSize",
              "type": "uint256"
            },
            {
              "internalType": "uint256",
              "name": "_maxStarterPackBalance",
              "type": "uint256"
            },
            {
              "internalType": "uint256",
              "name": "_maxBoosterPackBalance",
              "type": "uint256"
            }
          ],
          "internalType": "struct GameItems.Parameters",
          "name": "params",
          "type": "tuple"
        },
        {
          "internalType": "string",
          "name": "_athleteURI",
          "type": "string"
        },
        {
          "internalType": "string",
          "name": "_starterPackURI",
          "type": "string"
        },
        {
          "internalType": "string",
          "name": "_boosterPackURI",
          "type": "string"
        }
      ],
      "stateMutability": "nonpayable",
      "type": "constructor"
    },
    {
      "anonymous": false,
      "inputs": [
        {
          "indexed": true,
          "internalType": "address",
          "name": "account",
          "type": "address"
        },
        {
          "indexed": true,
          "internalType": "address",
          "name": "operator",
          "type": "address"
        },
        {
          "indexed": false,
          "internalType": "bool",
          "name": "approved",
          "type": "bool"
        }
      ],
      "name": "ApprovalForAll",
      "type": "event"
    },
    {
      "anonymous": false,
      "inputs": [
        {
          "indexed": true,
          "internalType": "address",
          "name": "previousOwner",
          "type": "address"
        },
        {
          "indexed": true,
          "internalType": "address",
          "name": "newOwner",
          "type": "address"
        }
      ],
      "name": "OwnershipTransferred",
      "type": "event"
    },
    {
      "anonymous": false,
      "inputs": [
        {
          "indexed": true,
          "internalType": "address",
          "name": "operator",
          "type": "address"
        },
        {
          "indexed": true,
          "internalType": "address",
          "name": "from",
          "type": "address"
        },
        {
          "indexed": true,
          "internalType": "address",
          "name": "to",
          "type": "address"
        },
        {
          "indexed": false,
          "internalType": "uint256[]",
          "name": "ids",
          "type": "uint256[]"
        },
        {
          "indexed": false,
          "internalType": "uint256[]",
          "name": "values",
          "type": "uint256[]"
        }
      ],
      "name": "TransferBatch",
      "type": "event"
    },
    {
      "anonymous": false,
      "inputs": [
        {
          "indexed": true,
          "internalType": "address",
          "name": "operator",
          "type": "address"
        },
        {
          "indexed": true,
          "internalType": "address",
          "name": "from",
          "type": "address"
        },
        {
          "indexed": true,
          "internalType": "address",
          "name": "to",
          "type": "address"
        },
        {
          "indexed": false,
          "internalType": "uint256",
          "name": "id",
          "type": "uint256"
        },
        {
          "indexed": false,
          "internalType": "uint256",
          "name": "value",
          "type": "uint256"
        }
      ],
      "name": "TransferSingle",
      "type": "event"
    },
    {
      "anonymous": false,
      "inputs": [
        {
          "indexed": false,
          "internalType": "string",
          "name": "value",
          "type": "string"
        },
        {
          "indexed": true,
          "internalType": "uint256",
          "name": "id",
          "type": "uint256"
        }
      ],
      "name": "URI",
      "type": "event"
    },
    {
      "anonymous": false,
      "inputs": [
        {
          "indexed": false,
          "internalType": "uint256[3]",
          "name": "",
          "type": "uint256[3]"
        },
        {
          "indexed": false,
          "internalType": "address",
          "name": "signer",
          "type": "address"
        }
      ],
      "name": "boosterPackBurned",
      "type": "event"
    },
    {
      "anonymous": false,
      "inputs": [
        {
          "indexed": false,
          "internalType": "address",
          "name": "signer",
          "type": "address"
        },
        {
          "indexed": false,
          "internalType": "uint256",
          "name": "id",
          "type": "uint256"
        }
      ],
      "name": "boosterPackMinted",
      "type": "event"
    },
    {
      "anonymous": false,
      "inputs": [
        {
          "indexed": false,
          "internalType": "uint256[5]",
          "name": "",
          "type": "uint256[5]"
        },
        {
          "indexed": false,
          "internalType": "address",
          "name": "signer",
          "type": "address"
        }
      ],
      "name": "starterPackBurned",
      "type": "event"
    },
    {
      "anonymous": false,
      "inputs": [
        {
          "indexed": false,
          "internalType": "address",
          "name": "signer",
          "type": "address"
        },
        {
          "indexed": false,
          "internalType": "uint256",
          "name": "id",
          "type": "uint256"
        }
      ],
      "name": "starterPackMinted",
      "type": "event"
    },
    {
      "inputs": [
        {
          "internalType": "address",
          "name": "_userToAdd",
          "type": "address"
        }
      ],
      "name": "addUserToWhitelist",
      "outputs": [
        {
          "internalType": "bool",
          "name": "success",
          "type": "bool"
        }
      ],
      "stateMutability": "nonpayable",
      "type": "function"
    },
    {
      "inputs": [
        {
          "internalType": "address[]",
          "name": "addrs",
          "type": "address[]"
        }
      ],
      "name": "addUsersToWhitelist",
      "outputs": [
        {
          "internalType": "bool",
          "name": "success",
          "type": "bool"
        }
      ],
      "stateMutability": "nonpayable",
      "type": "function"
    },
    {
      "inputs": [],
      "name": "allowBoosterPacks",
      "outputs": [],
      "stateMutability": "nonpayable",
      "type": "function"
    },
    {
      "inputs": [
        {
          "internalType": "address",
          "name": "account",
          "type": "address"
        },
        {
          "internalType": "uint256",
          "name": "id",
          "type": "uint256"
        }
      ],
      "name": "balanceOf",
      "outputs": [
        {
          "internalType": "uint256",
          "name": "",
          "type": "uint256"
        }
      ],
      "stateMutability": "view",
      "type": "function"
    },
    {
      "inputs": [
        {
          "internalType": "address[]",
          "name": "accounts",
          "type": "address[]"
        },
        {
          "internalType": "uint256[]",
          "name": "ids",
          "type": "uint256[]"
        }
      ],
      "name": "balanceOfBatch",
      "outputs": [
        {
          "internalType": "uint256[]",
          "name": "",
          "type": "uint256[]"
        }
      ],
      "stateMutability": "view",
      "type": "function"
    },
    {
      "inputs": [],
      "name": "boosterPacksReadyToOpen",
      "outputs": [
        {
          "internalType": "bool",
          "name": "",
          "type": "bool"
        }
      ],
      "stateMutability": "view",
      "type": "function"
    },
    {
      "inputs": [],
      "name": "burnBoosterPack",
      "outputs": [],
      "stateMutability": "nonpayable",
      "type": "function"
    },
    {
      "inputs": [],
      "name": "burnStarterPack",
      "outputs": [],
      "stateMutability": "nonpayable",
      "type": "function"
    },
    {
      "inputs": [],
      "name": "getNFTPerAthlete",
      "outputs": [
        {
          "internalType": "uint256",
          "name": "",
          "type": "uint256"
        }
      ],
      "stateMutability": "view",
      "type": "function"
    },
    {
      "inputs": [],
      "name": "getNumWhitelisted",
      "outputs": [
        {
          "internalType": "uint256",
          "name": "",
          "type": "uint256"
        }
      ],
      "stateMutability": "view",
      "type": "function"
    },
    {
      "inputs": [
        {
          "internalType": "address",
          "name": "account",
          "type": "address"
        },
        {
          "internalType": "address",
          "name": "operator",
          "type": "address"
        }
      ],
      "name": "isApprovedForAll",
      "outputs": [
        {
          "internalType": "bool",
          "name": "",
          "type": "bool"
        }
      ],
      "stateMutability": "view",
      "type": "function"
    },
    {
      "inputs": [],
      "name": "mintBoosterPack",
      "outputs": [],
      "stateMutability": "nonpayable",
      "type": "function"
    },
    {
      "inputs": [],
      "name": "mintStarterPack",
      "outputs": [],
      "stateMutability": "nonpayable",
      "type": "function"
    },
    {
      "inputs": [],
      "name": "numWhitelisted",
      "outputs": [
        {
          "internalType": "uint256",
          "name": "",
          "type": "uint256"
        }
      ],
      "stateMutability": "view",
      "type": "function"
    },
    {
      "inputs": [],
      "name": "openPrivateSale",
      "outputs": [],
      "stateMutability": "nonpayable",
      "type": "function"
    },
    {
      "inputs": [],
      "name": "openPublicSale",
      "outputs": [],
      "stateMutability": "nonpayable",
      "type": "function"
    },
    {
      "inputs": [],
      "name": "owner",
      "outputs": [
        {
          "internalType": "address",
          "name": "",
          "type": "address"
        }
      ],
      "stateMutability": "view",
      "type": "function"
    },
    {
      "inputs": [],
      "name": "packsAvailable",
      "outputs": [
        {
          "internalType": "uint256",
          "name": "",
          "type": "uint256"
        }
      ],
      "stateMutability": "view",
      "type": "function"
    },
    {
      "inputs": [],
      "name": "packsReadyToOpen",
      "outputs": [
        {
          "internalType": "bool",
          "name": "",
          "type": "bool"
        }
      ],
      "stateMutability": "view",
      "type": "function"
    },
    {
      "inputs": [],
      "name": "renounceOwnership",
      "outputs": [],
      "stateMutability": "nonpayable",
      "type": "function"
    },
    {
      "inputs": [
        {
          "internalType": "address",
          "name": "from",
          "type": "address"
        },
        {
          "internalType": "address",
          "name": "to",
          "type": "address"
        },
        {
          "internalType": "uint256[]",
          "name": "ids",
          "type": "uint256[]"
        },
        {
          "internalType": "uint256[]",
          "name": "amounts",
          "type": "uint256[]"
        },
        {
          "internalType": "bytes",
          "name": "data",
          "type": "bytes"
        }
      ],
      "name": "safeBatchTransferFrom",
      "outputs": [],
      "stateMutability": "nonpayable",
      "type": "function"
    },
    {
      "inputs": [
        {
          "internalType": "address",
          "name": "from",
          "type": "address"
        },
        {
          "internalType": "address",
          "name": "to",
          "type": "address"
        },
        {
          "internalType": "uint256",
          "name": "id",
          "type": "uint256"
        },
        {
          "internalType": "uint256",
          "name": "amount",
          "type": "uint256"
        },
        {
          "internalType": "bytes",
          "name": "data",
          "type": "bytes"
        }
      ],
      "name": "safeTransferFrom",
      "outputs": [],
      "stateMutability": "nonpayable",
      "type": "function"
    },
    {
      "inputs": [
        {
          "internalType": "address",
          "name": "operator",
          "type": "address"
        },
        {
          "internalType": "bool",
          "name": "approved",
          "type": "bool"
        }
      ],
      "name": "setApprovalForAll",
      "outputs": [],
      "stateMutability": "nonpayable",
      "type": "function"
    },
    {
      "inputs": [],
      "name": "setPacksReady",
      "outputs": [],
      "stateMutability": "nonpayable",
      "type": "function"
    },
    {
      "inputs": [],
      "name": "setStartingIndex",
      "outputs": [],
      "stateMutability": "nonpayable",
      "type": "function"
    },
    {
      "inputs": [
        {
          "internalType": "uint256",
          "name": "tokenId",
          "type": "uint256"
        },
        {
          "internalType": "string",
          "name": "uri",
          "type": "string"
        }
      ],
      "name": "setTokenUri",
      "outputs": [],
      "stateMutability": "nonpayable",
      "type": "function"
    },
    {
      "inputs": [],
      "name": "setURIs",
      "outputs": [],
      "stateMutability": "nonpayable",
      "type": "function"
    },
    {
      "inputs": [
        {
          "internalType": "bytes4",
          "name": "interfaceId",
          "type": "bytes4"
        }
      ],
      "name": "supportsInterface",
      "outputs": [
        {
          "internalType": "bool",
          "name": "",
          "type": "bool"
        }
      ],
      "stateMutability": "view",
      "type": "function"
    },
    {
      "inputs": [
        {
          "internalType": "address",
          "name": "newOwner",
          "type": "address"
        }
      ],
      "name": "transferOwnership",
      "outputs": [],
      "stateMutability": "nonpayable",
      "type": "function"
    },
    {
      "inputs": [
        {
          "internalType": "uint256",
          "name": "tokenId",
          "type": "uint256"
        }
      ],
      "name": "uri",
      "outputs": [
        {
          "internalType": "string",
          "name": "",
          "type": "string"
        }
      ],
      "stateMutability": "view",
      "type": "function"
    },
    {
      "inputs": [
        {
          "internalType": "address",
          "name": "",
          "type": "address"
        }
      ],
      "name": "userToHasBurnedStarterPack",
      "outputs": [
        {
          "internalType": "bool",
          "name": "",
          "type": "bool"
        }
      ],
      "stateMutability": "view",
      "type": "function"
    },
    {
      "inputs": [
        {
          "internalType": "address",
          "name": "",
          "type": "address"
        }
      ],
      "name": "userToHasMintedStarterPack",
      "outputs": [
        {
          "internalType": "bool",
          "name": "",
          "type": "bool"
        }
      ],
      "stateMutability": "view",
      "type": "function"
    },
    {
      "inputs": [
        {
          "internalType": "address",
          "name": "",
          "type": "address"
        }
      ],
      "name": "usersBoosterPacksMinted",
      "outputs": [
        {
          "internalType": "uint256",
          "name": "",
          "type": "uint256"
        }
      ],
      "stateMutability": "view",
      "type": "function"
    },
    {
      "inputs": [
        {
          "internalType": "address",
          "name": "",
          "type": "address"
        }
      ],
      "name": "whitelist",
      "outputs": [
        {
          "internalType": "bool",
          "name": "",
          "type": "bool"
        }
      ],
      "stateMutability": "view",
      "type": "function"
    }
  ],
  "bytecode": "0x608060405260405180602001604052806000815250601590805190602001906200002b92919062000287565b503480156200003957600080fd5b5060405162005dff38038062005dff83398181016040528101906200005f91906200047d565b6040518060400160405280600281526020017f5444000000000000000000000000000000000000000000000000000000000000815250620000a6816200019d60201b60201c565b50620000c7620000bb620001b960201b60201c565b620001c160201b60201c565b8360000151600d819055508360200151600e819055508360400151600781905550836060015160088190555083608001516009819055508360a00151600a81905550836040015184600001518560200151620001249190620005e5565b620001309190620005ad565b600b819055506101f4600c8190555082600490805190602001906200015792919062000287565b5081600590805190602001906200017092919062000287565b5080600690805190602001906200018992919062000287565b50600b54601e8190555050505050620007f2565b8060029080519060200190620001b592919062000287565b5050565b600033905090565b6000600360009054906101000a900473ffffffffffffffffffffffffffffffffffffffff16905081600360006101000a81548173ffffffffffffffffffffffffffffffffffffffff021916908373ffffffffffffffffffffffffffffffffffffffff1602179055508173ffffffffffffffffffffffffffffffffffffffff168173ffffffffffffffffffffffffffffffffffffffff167f8be0079c531659141344cd1fd0a4f28419497f9722a3daafe3b4186f6b6457e060405160405180910390a35050565b828054620002959062000686565b90600052602060002090601f016020900481019282620002b9576000855562000305565b82601f10620002d457805160ff191683800117855562000305565b8280016001018555821562000305579182015b8281111562000304578251825591602001919060010190620002e7565b5b50905062000314919062000318565b5090565b5b808211156200033357600081600090555060010162000319565b5090565b60006200034e620003488462000577565b6200054e565b9050828152602081018484840111156200036d576200036c620007b8565b5b6200037a84828562000650565b509392505050565b600082601f8301126200039a5762000399620007ae565b5b8151620003ac84826020860162000337565b91505092915050565b600060c08284031215620003ce57620003cd620007b3565b5b620003da60c06200054e565b90506000620003ec8482850162000466565b6000830152506020620004028482850162000466565b6020830152506040620004188482850162000466565b60408301525060606200042e8482850162000466565b6060830152506080620004448482850162000466565b60808301525060a06200045a8482850162000466565b60a08301525092915050565b6000815190506200047781620007d8565b92915050565b60008060008061012085870312156200049b576200049a620007c2565b5b6000620004ab87828801620003b5565b94505060c085015167ffffffffffffffff811115620004cf57620004ce620007bd565b5b620004dd8782880162000382565b93505060e085015167ffffffffffffffff811115620005015762000500620007bd565b5b6200050f8782880162000382565b92505061010085015167ffffffffffffffff811115620005345762000533620007bd565b5b620005428782880162000382565b91505092959194509250565b60006200055a6200056d565b9050620005688282620006bc565b919050565b6000604051905090565b600067ffffffffffffffff8211156200059557620005946200077f565b5b620005a082620007c7565b9050602081019050919050565b6000620005ba8262000646565b9150620005c78362000646565b925082620005da57620005d962000721565b5b828204905092915050565b6000620005f28262000646565b9150620005ff8362000646565b9250817fffffffffffffffffffffffffffffffffffffffffffffffffffffffffffffffff04831182151516156200063b576200063a620006f2565b5b828202905092915050565b6000819050919050565b60005b838110156200067057808201518184015260208101905062000653565b8381111562000680576000848401525b50505050565b600060028204905060018216806200069f57607f821691505b60208210811415620006b657620006b562000750565b5b50919050565b620006c782620007c7565b810181811067ffffffffffffffff82111715620006e957620006e86200077f565b5b80604052505050565b7f4e487b7100000000000000000000000000000000000000000000000000000000600052601160045260246000fd5b7f4e487b7100000000000000000000000000000000000000000000000000000000600052601260045260246000fd5b7f4e487b7100000000000000000000000000000000000000000000000000000000600052602260045260246000fd5b7f4e487b7100000000000000000000000000000000000000000000000000000000600052604160045260246000fd5b600080fd5b600080fd5b600080fd5b600080fd5b600080fd5b6000601f19601f8301169050919050565b620007e38162000646565b8114620007ef57600080fd5b50565b6155fd80620008026000396000f3fe608060405234801561001057600080fd5b50600436106102055760003560e01c80638da5cb5b1161011a578063bbb13e17116100ad578063e2bd21bc1161007c578063e2bd21bc14610544578063e985e9c514610574578063e9866550146105a4578063f242432a146105ae578063f2fde38b146105ca57610205565b8063bbb13e17146104ce578063be59ec26146104d8578063cb6bfdb9146104f6578063d759000b1461052657610205565b8063a6ad4c01116100e9578063a6ad4c011461046c578063a788f4f414610476578063ac4c07d414610494578063b585209b146104c457610205565b80638da5cb5b146103f85780639b19251a146104165780639ebf488b14610446578063a22cb4651461045057610205565b80634e1273f41161019d5780635ae698ff1161016c5780635ae698ff1461037a5780635d2db2bf146103aa578063715018a6146103b4578063747b8050146103be57806375223f92146103ee57610205565b80634e1273f4146103065780634f3551d71461033657806354dacb961461034057806357f7789e1461035e57610205565b806319b60439116101d957806319b60439146102b85780632eb2c2d6146102c25780634190a922146102de57806344eaa84e146102e857610205565b8062fdd58e1461020a57806301ffc9a71461023a5780630e89341c1461026a578063143cc1441461029a575b600080fd5b610224600480360381019061021f9190613808565b6105e6565b60405161023191906146a6565b60405180910390f35b610254600480360381019061024f9190613909565b6106af565b60405161026191906142e9565b60405180910390f35b610284600480360381019061027f9190613963565b610791565b6040516102919190614304565b60405180910390f35b6102a2610836565b6040516102af91906146a6565b60405180910390f35b6102c0610840565b005b6102dc60048036038101906102d79190613662565b6108e8565b005b6102e6610989565b005b6102f0610a22565b6040516102fd91906146a6565b60405180910390f35b610320600480360381019061031b9190613891565b610a2c565b60405161032d9190614290565b60405180910390f35b61033e610b45565b005b610348610d38565b60405161035591906146a6565b60405180910390f35b61037860048036038101906103739190613990565b610d3e565b005b610394600480360381019061038f9190613848565b610e48565b6040516103a191906142e9565b60405180910390f35b6103b2610f18565b005b6103bc61106f565b005b6103d860048036038101906103d391906135f5565b6110f7565b6040516103e591906142e9565b60405180910390f35b6103f6611242565b005b61040061138b565b60405161040d9190614138565b60405180910390f35b610430600480360381019061042b91906135f5565b6113b5565b60405161043d91906142e9565b60405180910390f35b61044e6113d5565b005b61046a600480360381019061046591906137c8565b6116dc565b005b6104746116f2565b005b61047e61178b565b60405161048b91906142e9565b60405180910390f35b6104ae60048036038101906104a991906135f5565b61179e565b6040516104bb91906146a6565b60405180910390f35b6104cc6117b6565b005b6104d661184f565b005b6104e0611a71565b6040516104ed91906142e9565b60405180910390f35b610510600480360381019061050b91906135f5565b611a84565b60405161051d91906142e9565b60405180910390f35b61052e611aa4565b60405161053b91906146a6565b60405180910390f35b61055e600480360381019061055991906135f5565b611aaa565b60405161056b91906142e9565b60405180910390f35b61058e60048036038101906105899190613622565b611aca565b60405161059b91906142e9565b60405180910390f35b6105ac611b5e565b005b6105c860048036038101906105c39190613731565b611c35565b005b6105e460048036038101906105df91906135f5565b611cd6565b005b60008073ffffffffffffffffffffffffffffffffffffffff168373ffffffffffffffffffffffffffffffffffffffff161415610657576040517f08c379a000000000000000000000000000000000000000000000000000000000815260040161064e90614386565b60405180910390fd5b60008083815260200190815260200160002060008473ffffffffffffffffffffffffffffffffffffffff1673ffffffffffffffffffffffffffffffffffffffff16815260200190815260200160002054905092915050565b60007fd9b67a26000000000000000000000000000000000000000000000000000000007bffffffffffffffffffffffffffffffffffffffffffffffffffffffff1916827bffffffffffffffffffffffffffffffffffffffffffffffffffffffff1916148061077a57507f0e89341c000000000000000000000000000000000000000000000000000000007bffffffffffffffffffffffffffffffffffffffffffffffffffffffff1916827bffffffffffffffffffffffffffffffffffffffffffffffffffffffff1916145b8061078a575061078982611dce565b5b9050919050565b60606022600083815260200190815260200160002080546107b190614a8c565b80601f01602080910402602001604051908101604052809291908181526020018280546107dd90614a8c565b801561082a5780601f106107ff5761010080835404028352916020019161082a565b820191906000526020600020905b81548152906001019060200180831161080d57829003601f168201915b50505050509050919050565b6000600e54905090565b610848611e38565b73ffffffffffffffffffffffffffffffffffffffff1661086661138b565b73ffffffffffffffffffffffffffffffffffffffff16146108bc576040517f08c379a00000000000000000000000000000000000000000000000000000000081526004016108b390614546565b60405180910390fd5b600f60009054906101000a900460ff1615600f60006101000a81548160ff021916908315150217905550565b6108f0611e38565b73ffffffffffffffffffffffffffffffffffffffff168573ffffffffffffffffffffffffffffffffffffffff161480610936575061093585610930611e38565b611aca565b5b610975576040517f08c379a000000000000000000000000000000000000000000000000000000000815260040161096c90614486565b60405180910390fd5b6109828585858585611e40565b5050505050565b610991611e38565b73ffffffffffffffffffffffffffffffffffffffff166109af61138b565b73ffffffffffffffffffffffffffffffffffffffff1614610a05576040517f08c379a00000000000000000000000000000000000000000000000000000000081526004016109fc90614546565b60405180910390fd5b6001600f60016101000a81548160ff021916908315150217905550565b6000602054905090565b60608151835114610a72576040517f08c379a0000000000000000000000000000000000000000000000000000000008152600401610a6990614626565b60405180910390fd5b6000835167ffffffffffffffff811115610a8f57610a8e614c7d565b5b604051908082528060200260200182016040528015610abd5781602001602082028036833780820191505090505b50905060005b8451811015610b3a57610b0a858281518110610ae257610ae1614c4e565b5b6020026020010151858381518110610afd57610afc614c4e565b5b60200260200101516105e6565b828281518110610b1d57610b1c614c4e565b5b60200260200101818152505080610b3390614aef565b9050610ac3565b508091505092915050565b600f60019054906101000a900460ff16610b94576040517f08c379a0000000000000000000000000000000000000000000000000000000008152600401610b8b906144e6565b60405180910390fd5b600c5460115410610bda576040517f08c379a0000000000000000000000000000000000000000000000000000000008152600401610bd190614446565b60405180910390fd5b6002602660003373ffffffffffffffffffffffffffffffffffffffff1673ffffffffffffffffffffffffffffffffffffffff1681526020019081526020016000205410610c5c576040517f08c379a0000000000000000000000000000000000000000000000000000000008152600401610c53906145a6565b60405180910390fd5b602660003373ffffffffffffffffffffffffffffffffffffffff1673ffffffffffffffffffffffffffffffffffffffff1681526020019081526020016000206000815480929190610cac90614aef565b919050555060006001600d54610cc291906148b4565b9050610ce03382600160405180602001604052806000815250612154565b600160116000828254610cf391906148b4565b925050819055507f291f5163bddacea6a9c07f03b441256f0b5584e25fb060dbc4350552d4e9b52433601154604051610d2d929190614215565b60405180910390a150565b60205481565b610d46611e38565b73ffffffffffffffffffffffffffffffffffffffff16610d6461138b565b73ffffffffffffffffffffffffffffffffffffffff1614610dba576040517f08c379a0000000000000000000000000000000000000000000000000000000008152600401610db190614546565b60405180910390fd5b6000602260008481526020019081526020016000208054610dda90614a8c565b905014610e1c576040517f08c379a0000000000000000000000000000000000000000000000000000000008152600401610e13906144a6565b60405180910390fd5b80602260008481526020019081526020016000209080519060200190610e43929190613289565b505050565b6000610e52611e38565b73ffffffffffffffffffffffffffffffffffffffff16610e7061138b565b73ffffffffffffffffffffffffffffffffffffffff1614610ec6576040517f08c379a0000000000000000000000000000000000000000000000000000000008152600401610ebd90614546565b60405180910390fd5b60005b8251811015610f1257610ef5838281518110610ee857610ee7614c4e565b5b60200260200101516110f7565b15610eff57600191505b8080610f0a90614aef565b915050610ec9565b50919050565b610f20611e38565b73ffffffffffffffffffffffffffffffffffffffff16610f3e61138b565b73ffffffffffffffffffffffffffffffffffffffff1614610f94576040517f08c379a0000000000000000000000000000000000000000000000000000000008152600401610f8b90614546565b60405180910390fd5b60005b600d54811015611008576000600d5482601454610fb491906148b4565b610fbe9190614b90565b9050610ff4816004610fcf846122ea565b604051602001610fe09291906140aa565b604051602081830303815290604052610d3e565b50808061100090614aef565b915050610f97565b50611035600d5460056040516020016110219190614093565b604051602081830303815290604052610d3e565b61106d6001600d5461104791906148b4565b60066040516020016110599190614093565b604051602081830303815290604052610d3e565b565b611077611e38565b73ffffffffffffffffffffffffffffffffffffffff1661109561138b565b73ffffffffffffffffffffffffffffffffffffffff16146110eb576040517f08c379a00000000000000000000000000000000000000000000000000000000081526004016110e290614546565b60405180910390fd5b6110f5600061244b565b565b6000611101611e38565b73ffffffffffffffffffffffffffffffffffffffff1661111f61138b565b73ffffffffffffffffffffffffffffffffffffffff1614611175576040517f08c379a000000000000000000000000000000000000000000000000000000000815260040161116c90614546565b60405180910390fd5b601f60008373ffffffffffffffffffffffffffffffffffffffff1673ffffffffffffffffffffffffffffffffffffffff16815260200190815260200160002060009054906101000a900460ff1661123d576001601f60008473ffffffffffffffffffffffffffffffffffffffff1673ffffffffffffffffffffffffffffffffffffffff16815260200190815260200160002060006101000a81548160ff02191690831515021790555060016020600082825461123191906148b4565b92505081905550600190505b919050565b60006001600d5461125391906148b4565b9050600f60019054906101000a900460ff166112a4576040517f08c379a000000000000000000000000000000000000000000000000000000000815260040161129b906145c6565b60405180910390fd5b60006112b033836105e6565b116112f0576040517f08c379a00000000000000000000000000000000000000000000000000000000081526004016112e790614366565b60405180910390fd5b60006112fa612511565b905060005b60038160ff1610156113415761132e828260ff166003811061132457611323614c4e565b5b6020020151612625565b808061133990614b38565b9150506112ff565b5061134e33836001612720565b7fbcb32b44239ac671808c82d921ce5fe68940a520f60a18bba7a850aa2df5e0f5813360405161137f92919061423e565b60405180910390a15050565b6000600360009054906101000a900473ffffffffffffffffffffffffffffffffffffffff16905090565b601f6020528060005260406000206000915054906101000a900460ff1681565b602160009054906101000a900460ff16806113fc5750602160019054906101000a900460ff165b61143b576040517f08c379a000000000000000000000000000000000000000000000000000000000815260040161143290614666565b60405180910390fd5b602160009054906101000a900460ff1680156114645750602160019054906101000a900460ff16155b156114f657601f60003373ffffffffffffffffffffffffffffffffffffffff1673ffffffffffffffffffffffffffffffffffffffff16815260200190815260200160002060009054906101000a900460ff166114f5576040517f08c379a00000000000000000000000000000000000000000000000000000000081526004016114ec90614406565b60405180910390fd5b5b600b546010541061153c576040517f08c379a000000000000000000000000000000000000000000000000000000000815260040161153390614586565b60405180910390fd5b602560003373ffffffffffffffffffffffffffffffffffffffff1673ffffffffffffffffffffffffffffffffffffffff16815260200190815260200160002060009054906101000a900460ff16156115c9576040517f08c379a00000000000000000000000000000000000000000000000000000000081526004016115c0906145e6565b60405180910390fd5b6001602560003373ffffffffffffffffffffffffffffffffffffffff1673ffffffffffffffffffffffffffffffffffffffff16815260200190815260200160002060006101000a81548160ff0219169083151502179055506000600d54905061166a338260016040518060400160405280600481526020017f3078303000000000000000000000000000000000000000000000000000000000815250612154565b60016010600082825461167d91906148b4565b925050819055506001601e60008282546116979190614995565b925050819055507f860d172ac100c8812174aed296380fd0f991c9eb7e662a43998a370526fd9bfe336010546040516116d1929190614215565b60405180910390a150565b6116ee6116e7611e38565b838361293d565b5050565b6116fa611e38565b73ffffffffffffffffffffffffffffffffffffffff1661171861138b565b73ffffffffffffffffffffffffffffffffffffffff161461176e576040517f08c379a000000000000000000000000000000000000000000000000000000000815260040161176590614546565b60405180910390fd5b6001602160006101000a81548160ff021916908315150217905550565b600f60019054906101000a900460ff1681565b60266020528060005260406000206000915090505481565b6117be611e38565b73ffffffffffffffffffffffffffffffffffffffff166117dc61138b565b73ffffffffffffffffffffffffffffffffffffffff1614611832576040517f08c379a000000000000000000000000000000000000000000000000000000000815260040161182990614546565b60405180910390fd5b6001602160016101000a81548160ff021916908315150217905550565b6000600d549050602460003373ffffffffffffffffffffffffffffffffffffffff1673ffffffffffffffffffffffffffffffffffffffff16815260200190815260200160002060009054906101000a900460ff16156118e3576040517f08c379a00000000000000000000000000000000000000000000000000000000081526004016118da90614526565b60405180910390fd5b600f60009054906101000a900460ff16611932576040517f08c379a0000000000000000000000000000000000000000000000000000000008152600401611929906145c6565b60405180910390fd5b600061193e33836105e6565b1161197e576040517f08c379a000000000000000000000000000000000000000000000000000000000815260040161197590614566565b60405180910390fd5b6001602460003373ffffffffffffffffffffffffffffffffffffffff1673ffffffffffffffffffffffffffffffffffffffff16815260200190815260200160002060006101000a81548160ff02191690831515021790555060006119e0612aaa565b905060005b60058160ff161015611a2757611a14828260ff1660058110611a0a57611a09614c4e565b5b6020020151612625565b8080611a1f90614b38565b9150506119e5565b50611a3433836001612720565b7ff701dcbe064b8772e0f5c01bc8f97456e13e83bd1dcfefd7ee6bddfc366b6caa8133604051611a65929190614267565b60405180910390a15050565b600f60009054906101000a900460ff1681565b60256020528060005260406000206000915054906101000a900460ff1681565b601e5481565b60246020528060005260406000206000915054906101000a900460ff1681565b6000600160008473ffffffffffffffffffffffffffffffffffffffff1673ffffffffffffffffffffffffffffffffffffffff16815260200190815260200160002060008373ffffffffffffffffffffffffffffffffffffffff1673ffffffffffffffffffffffffffffffffffffffff16815260200190815260200160002060009054906101000a900460ff16905092915050565b611b66611e38565b73ffffffffffffffffffffffffffffffffffffffff16611b8461138b565b73ffffffffffffffffffffffffffffffffffffffff1614611bda576040517f08c379a0000000000000000000000000000000000000000000000000000000008152600401611bd190614546565b60405180910390fd5b600e54600d54611bea919061493b565b600143611bf79190614995565b4060001c611c059190614b90565b60148190555060006014541415611c3357611c2c6001601454612b8e90919063ffffffff16565b6014819055505b565b611c3d611e38565b73ffffffffffffffffffffffffffffffffffffffff168573ffffffffffffffffffffffffffffffffffffffff161480611c835750611c8285611c7d611e38565b611aca565b5b611cc2576040517f08c379a0000000000000000000000000000000000000000000000000000000008152600401611cb9906143e6565b60405180910390fd5b611ccf8585858585612ba4565b5050505050565b611cde611e38565b73ffffffffffffffffffffffffffffffffffffffff16611cfc61138b565b73ffffffffffffffffffffffffffffffffffffffff1614611d52576040517f08c379a0000000000000000000000000000000000000000000000000000000008152600401611d4990614546565b60405180910390fd5b600073ffffffffffffffffffffffffffffffffffffffff168173ffffffffffffffffffffffffffffffffffffffff161415611dc2576040517f08c379a0000000000000000000000000000000000000000000000000000000008152600401611db9906143a6565b60405180910390fd5b611dcb8161244b565b50565b60007f01ffc9a7000000000000000000000000000000000000000000000000000000007bffffffffffffffffffffffffffffffffffffffffffffffffffffffff1916827bffffffffffffffffffffffffffffffffffffffffffffffffffffffff1916149050919050565b600033905090565b8151835114611e84576040517f08c379a0000000000000000000000000000000000000000000000000000000008152600401611e7b90614646565b60405180910390fd5b600073ffffffffffffffffffffffffffffffffffffffff168473ffffffffffffffffffffffffffffffffffffffff161415611ef4576040517f08c379a0000000000000000000000000000000000000000000000000000000008152600401611eeb90614466565b60405180910390fd5b6000611efe611e38565b9050611f0e818787878787612e26565b60005b84518110156120bf576000858281518110611f2f57611f2e614c4e565b5b602002602001015190506000858381518110611f4e57611f4d614c4e565b5b60200260200101519050600080600084815260200190815260200160002060008b73ffffffffffffffffffffffffffffffffffffffff1673ffffffffffffffffffffffffffffffffffffffff16815260200190815260200160002054905081811015611fef576040517f08c379a0000000000000000000000000000000000000000000000000000000008152600401611fe690614506565b60405180910390fd5b81810360008085815260200190815260200160002060008c73ffffffffffffffffffffffffffffffffffffffff1673ffffffffffffffffffffffffffffffffffffffff168152602001908152602001600020819055508160008085815260200190815260200160002060008b73ffffffffffffffffffffffffffffffffffffffff1673ffffffffffffffffffffffffffffffffffffffff16815260200190815260200160002060008282546120a491906148b4565b92505081905550505050806120b890614aef565b9050611f11565b508473ffffffffffffffffffffffffffffffffffffffff168673ffffffffffffffffffffffffffffffffffffffff168273ffffffffffffffffffffffffffffffffffffffff167f4a39dc06d4c0dbc64b70af90fd698a233a518aa5d07e595d983b8c0526c8f7fb87876040516121369291906142b2565b60405180910390a461214c818787878787612e2e565b505050505050565b600073ffffffffffffffffffffffffffffffffffffffff168473ffffffffffffffffffffffffffffffffffffffff1614156121c4576040517f08c379a00000000000000000000000000000000000000000000000000000000081526004016121bb90614686565b60405180910390fd5b60006121ce611e38565b90506121ef816000876121e088613015565b6121e988613015565b87612e26565b8260008086815260200190815260200160002060008773ffffffffffffffffffffffffffffffffffffffff1673ffffffffffffffffffffffffffffffffffffffff168152602001908152602001600020600082825461224e91906148b4565b925050819055508473ffffffffffffffffffffffffffffffffffffffff16600073ffffffffffffffffffffffffffffffffffffffff168273ffffffffffffffffffffffffffffffffffffffff167fc3d58168c5ae7397731d063d5bbf3d657854427343f4c083240f7aacaa2d0f6287876040516122cc9291906146c1565b60405180910390a46122e38160008787878761308f565b5050505050565b60606000821415612332576040518060400160405280600181526020017f30000000000000000000000000000000000000000000000000000000000000008152509050612446565b600082905060005b6000821461236457808061234d90614aef565b915050600a8261235d919061490a565b915061233a565b60008167ffffffffffffffff8111156123805761237f614c7d565b5b6040519080825280601f01601f1916602001820160405280156123b25781602001600182028036833780820191505090505b5090505b6000851461243f576001826123cb9190614995565b9150600a856123da9190614b90565b60306123e691906148b4565b60f81b8183815181106123fc576123fb614c4e565b5b60200101907effffffffffffffffffffffffffffffffffffffffffffffffffffffffffffff1916908160001a905350600a85612438919061490a565b94506123b6565b8093505050505b919050565b6000600360009054906101000a900473ffffffffffffffffffffffffffffffffffffffff16905081600360006101000a81548173ffffffffffffffffffffffffffffffffffffffff021916908373ffffffffffffffffffffffffffffffffffffffff1602179055508173ffffffffffffffffffffffffffffffffffffffff168173ffffffffffffffffffffffffffffffffffffffff167f8be0079c531659141344cd1fd0a4f28419497f9722a3daafe3b4186f6b6457e060405160405180910390a35050565b61251961330f565b61252161330f565b60006005436125309190614b90565b905060005b600381101561261c5760058261254b9190614b90565b91506000600a8361255c919061493b565b905060006009600a8561256f919061493b565b61257991906148b4565b9050816001838361258a9190614995565b61259491906148b4565b423344876011546040516020016125af9594939291906140d9565b6040516020818303038152906040528051906020012060001c6125d29190614b90565b6125dc91906148b4565b8584600381106125ef576125ee614c4e565b5b60200201818152505060018461260591906148b4565b93505050808061261490614aef565b915050612535565b50819250505090565b600e54600d54612635919061493b565b601254101561271d57600e54602360008381526020019081526020016000205410612695576040517f08c379a000000000000000000000000000000000000000000000000000000000815260040161268c90614426565b60405180910390fd5b6126d7338260016040518060400160405280600481526020017f3078303000000000000000000000000000000000000000000000000000000000815250612154565b60016023600083815260200190815260200160002060008282546126fb91906148b4565b9250508190555060016012600082825461271591906148b4565b925050819055505b50565b600073ffffffffffffffffffffffffffffffffffffffff168373ffffffffffffffffffffffffffffffffffffffff161415612790576040517f08c379a0000000000000000000000000000000000000000000000000000000008152600401612787906144c6565b60405180910390fd5b600061279a611e38565b90506127ca818560006127ac87613015565b6127b587613015565b60405180602001604052806000815250612e26565b600080600085815260200190815260200160002060008673ffffffffffffffffffffffffffffffffffffffff1673ffffffffffffffffffffffffffffffffffffffff16815260200190815260200160002054905082811015612861576040517f08c379a0000000000000000000000000000000000000000000000000000000008152600401612858906143c6565b60405180910390fd5b82810360008086815260200190815260200160002060008773ffffffffffffffffffffffffffffffffffffffff1673ffffffffffffffffffffffffffffffffffffffff16815260200190815260200160002081905550600073ffffffffffffffffffffffffffffffffffffffff168573ffffffffffffffffffffffffffffffffffffffff168373ffffffffffffffffffffffffffffffffffffffff167fc3d58168c5ae7397731d063d5bbf3d657854427343f4c083240f7aacaa2d0f62878760405161292e9291906146c1565b60405180910390a45050505050565b8173ffffffffffffffffffffffffffffffffffffffff168373ffffffffffffffffffffffffffffffffffffffff1614156129ac576040517f08c379a00000000000000000000000000000000000000000000000000000000081526004016129a390614606565b60405180910390fd5b80600160008573ffffffffffffffffffffffffffffffffffffffff1673ffffffffffffffffffffffffffffffffffffffff16815260200190815260200160002060008473ffffffffffffffffffffffffffffffffffffffff1673ffffffffffffffffffffffffffffffffffffffff16815260200190815260200160002060006101000a81548160ff0219169083151502179055508173ffffffffffffffffffffffffffffffffffffffff168373ffffffffffffffffffffffffffffffffffffffff167f17307eab39ab6107e8899845ad3d59bd9653f200f220920489ca2b5937696c3183604051612a9d91906142e9565b60405180910390a3505050565b612ab2613331565b612aba613331565b60005b6005811015612b86576000600a82612ad5919061493b565b905060006009600a84612ae8919061493b565b612af291906148b4565b90508160018383612b039190614995565b612b0d91906148b4565b42334487601054604051602001612b289594939291906140d9565b6040516020818303038152906040528051906020012060001c612b4b9190614b90565b612b5591906148b4565b848460058110612b6857612b67614c4e565b5b60200201818152505050508080612b7e90614aef565b915050612abd565b508091505090565b60008183612b9c91906148b4565b905092915050565b600073ffffffffffffffffffffffffffffffffffffffff168473ffffffffffffffffffffffffffffffffffffffff161415612c14576040517f08c379a0000000000000000000000000000000000000000000000000000000008152600401612c0b90614466565b60405180910390fd5b6000612c1e611e38565b9050612c3e818787612c2f88613015565b612c3888613015565b87612e26565b600080600086815260200190815260200160002060008873ffffffffffffffffffffffffffffffffffffffff1673ffffffffffffffffffffffffffffffffffffffff16815260200190815260200160002054905083811015612cd5576040517f08c379a0000000000000000000000000000000000000000000000000000000008152600401612ccc90614506565b60405180910390fd5b83810360008087815260200190815260200160002060008973ffffffffffffffffffffffffffffffffffffffff1673ffffffffffffffffffffffffffffffffffffffff168152602001908152602001600020819055508360008087815260200190815260200160002060008873ffffffffffffffffffffffffffffffffffffffff1673ffffffffffffffffffffffffffffffffffffffff1681526020019081526020016000206000828254612d8a91906148b4565b925050819055508573ffffffffffffffffffffffffffffffffffffffff168773ffffffffffffffffffffffffffffffffffffffff168373ffffffffffffffffffffffffffffffffffffffff167fc3d58168c5ae7397731d063d5bbf3d657854427343f4c083240f7aacaa2d0f628888604051612e079291906146c1565b60405180910390a4612e1d82888888888861308f565b50505050505050565b505050505050565b612e4d8473ffffffffffffffffffffffffffffffffffffffff16613276565b1561300d578373ffffffffffffffffffffffffffffffffffffffff1663bc197c8187878686866040518663ffffffff1660e01b8152600401612e93959493929190614153565b602060405180830381600087803b158015612ead57600080fd5b505af1925050508015612ede57506040513d601f19601f82011682018060405250810190612edb9190613936565b60015b612f8457612eea614cac565b806308c379a01415612f475750612eff6154d5565b80612f0a5750612f49565b806040517f08c379a0000000000000000000000000000000000000000000000000000000008152600401612f3e9190614304565b60405180910390fd5b505b6040517f08c379a0000000000000000000000000000000000000000000000000000000008152600401612f7b90614326565b60405180910390fd5b63bc197c8160e01b7bffffffffffffffffffffffffffffffffffffffffffffffffffffffff1916817bffffffffffffffffffffffffffffffffffffffffffffffffffffffff19161461300b576040517f08c379a000000000000000000000000000000000000000000000000000000000815260040161300290614346565b60405180910390fd5b505b505050505050565b60606000600167ffffffffffffffff81111561303457613033614c7d565b5b6040519080825280602002602001820160405280156130625781602001602082028036833780820191505090505b509050828160008151811061307a57613079614c4e565b5b60200260200101818152505080915050919050565b6130ae8473ffffffffffffffffffffffffffffffffffffffff16613276565b1561326e578373ffffffffffffffffffffffffffffffffffffffff1663f23a6e6187878686866040518663ffffffff1660e01b81526004016130f49594939291906141bb565b602060405180830381600087803b15801561310e57600080fd5b505af192505050801561313f57506040513d601f19601f8201168201806040525081019061313c9190613936565b60015b6131e55761314b614cac565b806308c379a014156131a857506131606154d5565b8061316b57506131aa565b806040517f08c379a000000000000000000000000000000000000000000000000000000000815260040161319f9190614304565b60405180910390fd5b505b6040517f08c379a00000000000000000000000000000000000000000000000000000000081526004016131dc90614326565b60405180910390fd5b63f23a6e6160e01b7bffffffffffffffffffffffffffffffffffffffffffffffffffffffff1916817bffffffffffffffffffffffffffffffffffffffffffffffffffffffff19161461326c576040517f08c379a000000000000000000000000000000000000000000000000000000000815260040161326390614346565b60405180910390fd5b505b505050505050565b600080823b905060008111915050919050565b82805461329590614a8c565b90600052602060002090601f0160209004810192826132b757600085556132fe565b82601f106132d057805160ff19168380011785556132fe565b828001600101855582156132fe579182015b828111156132fd5782518255916020019190600101906132e2565b5b50905061330b9190613353565b5090565b6040518060600160405280600390602082028036833780820191505090505090565b6040518060a00160405280600590602082028036833780820191505090505090565b5b8082111561336c576000816000905550600101613354565b5090565b600061338361337e8461470f565b6146ea565b905080838252602082019050828560208602820111156133a6576133a5614cd3565b5b60005b858110156133d657816133bc88826134d4565b8452602084019350602083019250506001810190506133a9565b5050509392505050565b60006133f36133ee8461473b565b6146ea565b9050808382526020820190508285602086028201111561341657613415614cd3565b5b60005b85811015613446578161342c88826135e0565b845260208401935060208301925050600181019050613419565b5050509392505050565b600061346361345e84614767565b6146ea565b90508281526020810184848401111561347f5761347e614cd8565b5b61348a848285614a4a565b509392505050565b60006134a56134a084614798565b6146ea565b9050828152602081018484840111156134c1576134c0614cd8565b5b6134cc848285614a4a565b509392505050565b6000813590506134e38161556b565b92915050565b600082601f8301126134fe576134fd614cce565b5b813561350e848260208601613370565b91505092915050565b600082601f83011261352c5761352b614cce565b5b813561353c8482602086016133e0565b91505092915050565b60008135905061355481615582565b92915050565b60008135905061356981615599565b92915050565b60008151905061357e81615599565b92915050565b600082601f83011261359957613598614cce565b5b81356135a9848260208601613450565b91505092915050565b600082601f8301126135c7576135c6614cce565b5b81356135d7848260208601613492565b91505092915050565b6000813590506135ef816155b0565b92915050565b60006020828403121561360b5761360a614ce2565b5b6000613619848285016134d4565b91505092915050565b6000806040838503121561363957613638614ce2565b5b6000613647858286016134d4565b9250506020613658858286016134d4565b9150509250929050565b600080600080600060a0868803121561367e5761367d614ce2565b5b600061368c888289016134d4565b955050602061369d888289016134d4565b945050604086013567ffffffffffffffff8111156136be576136bd614cdd565b5b6136ca88828901613517565b935050606086013567ffffffffffffffff8111156136eb576136ea614cdd565b5b6136f788828901613517565b925050608086013567ffffffffffffffff81111561371857613717614cdd565b5b61372488828901613584565b9150509295509295909350565b600080600080600060a0868803121561374d5761374c614ce2565b5b600061375b888289016134d4565b955050602061376c888289016134d4565b945050604061377d888289016135e0565b935050606061378e888289016135e0565b925050608086013567ffffffffffffffff8111156137af576137ae614cdd565b5b6137bb88828901613584565b9150509295509295909350565b600080604083850312156137df576137de614ce2565b5b60006137ed858286016134d4565b92505060206137fe85828601613545565b9150509250929050565b6000806040838503121561381f5761381e614ce2565b5b600061382d858286016134d4565b925050602061383e858286016135e0565b9150509250929050565b60006020828403121561385e5761385d614ce2565b5b600082013567ffffffffffffffff81111561387c5761387b614cdd565b5b613888848285016134e9565b91505092915050565b600080604083850312156138a8576138a7614ce2565b5b600083013567ffffffffffffffff8111156138c6576138c5614cdd565b5b6138d2858286016134e9565b925050602083013567ffffffffffffffff8111156138f3576138f2614cdd565b5b6138ff85828601613517565b9150509250929050565b60006020828403121561391f5761391e614ce2565b5b600061392d8482850161355a565b91505092915050565b60006020828403121561394c5761394b614ce2565b5b600061395a8482850161356f565b91505092915050565b60006020828403121561397957613978614ce2565b5b6000613987848285016135e0565b91505092915050565b600080604083850312156139a7576139a6614ce2565b5b60006139b5858286016135e0565b925050602083013567ffffffffffffffff8111156139d6576139d5614cdd565b5b6139e2858286016135b2565b9150509250929050565b60006139f8838361405e565b60208301905092915050565b613a0d816149c9565b82525050565b613a24613a1f826149c9565b614b62565b82525050565b613a3381614802565b613a3d8184614860565b9250613a48826147c9565b8060005b83811015613a79578151613a6087826139ec565b9650613a6b83614839565b925050600181019050613a4c565b505050505050565b613a8a8161480d565b613a94818461486b565b9250613a9f826147d3565b8060005b83811015613ad0578151613ab787826139ec565b9650613ac283614846565b925050600181019050613aa3565b505050505050565b6000613ae382614818565b613aed8185614876565b9350613af8836147dd565b8060005b83811015613b29578151613b1088826139ec565b9750613b1b83614853565b925050600181019050613afc565b5085935050505092915050565b613b3f816149db565b82525050565b6000613b5082614823565b613b5a8185614887565b9350613b6a818560208601614a59565b613b7381614ce7565b840191505092915050565b6000613b898261482e565b613b938185614898565b9350613ba3818560208601614a59565b613bac81614ce7565b840191505092915050565b6000613bc28261482e565b613bcc81856148a9565b9350613bdc818560208601614a59565b80840191505092915050565b60008154613bf581614a8c565b613bff81866148a9565b94506001821660008114613c1a5760018114613c2b57613c5e565b60ff19831686528186019350613c5e565b613c34856147ed565b60005b83811015613c5657815481890152600182019150602081019050613c37565b838801955050505b50505092915050565b6000613c74603483614898565b9150613c7f82614d12565b604082019050919050565b6000613c97602883614898565b9150613ca282614d61565b604082019050919050565b6000613cba601b83614898565b9150613cc582614db0565b602082019050919050565b6000613cdd602b83614898565b9150613ce882614dd9565b604082019050919050565b6000613d00602683614898565b9150613d0b82614e28565b604082019050919050565b6000613d23602483614898565b9150613d2e82614e77565b604082019050919050565b6000613d46602983614898565b9150613d5182614ec6565b604082019050919050565b6000613d69601883614898565b9150613d7482614f15565b602082019050919050565b6000613d8c602d83614898565b9150613d9782614f3e565b604082019050919050565b6000613daf602b83614898565b9150613dba82614f8d565b604082019050919050565b6000613dd2602583614898565b9150613ddd82614fdc565b604082019050919050565b6000613df5603283614898565b9150613e008261502b565b604082019050919050565b6000613e18601483614898565b9150613e238261507a565b602082019050919050565b6000613e3b602383614898565b9150613e46826150a3565b604082019050919050565b6000613e5e602383614898565b9150613e69826150f2565b604082019050919050565b6000613e81602a83614898565b9150613e8c82615141565b604082019050919050565b6000613ea4602083614898565b9150613eaf82615190565b602082019050919050565b6000613ec76005836148a9565b9150613ed2826151b9565b600582019050919050565b6000613eea602083614898565b9150613ef5826151e2565b602082019050919050565b6000613f0d602b83614898565b9150613f188261520b565b604082019050919050565b6000613f30602383614898565b9150613f3b8261525a565b604082019050919050565b6000613f53602b83614898565b9150613f5e826152a9565b604082019050919050565b6000613f76601f83614898565b9150613f81826152f8565b602082019050919050565b6000613f99602a83614898565b9150613fa482615321565b604082019050919050565b6000613fbc602983614898565b9150613fc782615370565b604082019050919050565b6000613fdf602983614898565b9150613fea826153bf565b604082019050919050565b6000614002602883614898565b915061400d8261540e565b604082019050919050565b6000614025601f83614898565b91506140308261545d565b602082019050919050565b6000614048602183614898565b915061405382615486565b604082019050919050565b61406781614a33565b82525050565b61407681614a33565b82525050565b61408d61408882614a33565b614b86565b82525050565b600061409f8284613be8565b915081905092915050565b60006140b68285613be8565b91506140c28284613bb7565b91506140cd82613eba565b91508190509392505050565b60006140e5828861407c565b6020820191506140f58287613a13565b601482019150614105828661407c565b602082019150614115828561407c565b602082019150614125828461407c565b6020820191508190509695505050505050565b600060208201905061414d6000830184613a04565b92915050565b600060a0820190506141686000830188613a04565b6141756020830187613a04565b81810360408301526141878186613ad8565b9050818103606083015261419b8185613ad8565b905081810360808301526141af8184613b45565b90509695505050505050565b600060a0820190506141d06000830188613a04565b6141dd6020830187613a04565b6141ea604083018661406d565b6141f7606083018561406d565b81810360808301526142098184613b45565b90509695505050505050565b600060408201905061422a6000830185613a04565b614237602083018461406d565b9392505050565b60006080820190506142536000830185613a2a565b6142606060830184613a04565b9392505050565b600060c08201905061427c6000830185613a81565b61428960a0830184613a04565b9392505050565b600060208201905081810360008301526142aa8184613ad8565b905092915050565b600060408201905081810360008301526142cc8185613ad8565b905081810360208301526142e08184613ad8565b90509392505050565b60006020820190506142fe6000830184613b36565b92915050565b6000602082019050818103600083015261431e8184613b7e565b905092915050565b6000602082019050818103600083015261433f81613c67565b9050919050565b6000602082019050818103600083015261435f81613c8a565b9050919050565b6000602082019050818103600083015261437f81613cad565b9050919050565b6000602082019050818103600083015261439f81613cd0565b9050919050565b600060208201905081810360008301526143bf81613cf3565b9050919050565b600060208201905081810360008301526143df81613d16565b9050919050565b600060208201905081810360008301526143ff81613d39565b9050919050565b6000602082019050818103600083015261441f81613d5c565b9050919050565b6000602082019050818103600083015261443f81613d7f565b9050919050565b6000602082019050818103600083015261445f81613da2565b9050919050565b6000602082019050818103600083015261447f81613dc5565b9050919050565b6000602082019050818103600083015261449f81613de8565b9050919050565b600060208201905081810360008301526144bf81613e0b565b9050919050565b600060208201905081810360008301526144df81613e2e565b9050919050565b600060208201905081810360008301526144ff81613e51565b9050919050565b6000602082019050818103600083015261451f81613e74565b9050919050565b6000602082019050818103600083015261453f81613e97565b9050919050565b6000602082019050818103600083015261455f81613edd565b9050919050565b6000602082019050818103600083015261457f81613f00565b9050919050565b6000602082019050818103600083015261459f81613f23565b9050919050565b600060208201905081810360008301526145bf81613f46565b9050919050565b600060208201905081810360008301526145df81613f69565b9050919050565b600060208201905081810360008301526145ff81613f8c565b9050919050565b6000602082019050818103600083015261461f81613faf565b9050919050565b6000602082019050818103600083015261463f81613fd2565b9050919050565b6000602082019050818103600083015261465f81613ff5565b9050919050565b6000602082019050818103600083015261467f81614018565b9050919050565b6000602082019050818103600083015261469f8161403b565b9050919050565b60006020820190506146bb600083018461406d565b92915050565b60006040820190506146d6600083018561406d565b6146e3602083018461406d565b9392505050565b60006146f4614705565b90506147008282614abe565b919050565b6000604051905090565b600067ffffffffffffffff82111561472a57614729614c7d565b5b602082029050602081019050919050565b600067ffffffffffffffff82111561475657614755614c7d565b5b602082029050602081019050919050565b600067ffffffffffffffff82111561478257614781614c7d565b5b61478b82614ce7565b9050602081019050919050565b600067ffffffffffffffff8211156147b3576147b2614c7d565b5b6147bc82614ce7565b9050602081019050919050565b6000819050919050565b6000819050919050565b6000819050602082019050919050565b60008190508160005260206000209050919050565b600060039050919050565b600060059050919050565b600081519050919050565b600081519050919050565b600081519050919050565b6000602082019050919050565b6000602082019050919050565b6000602082019050919050565b600081905092915050565b600081905092915050565b600082825260208201905092915050565b600082825260208201905092915050565b600082825260208201905092915050565b600081905092915050565b60006148bf82614a33565b91506148ca83614a33565b9250827fffffffffffffffffffffffffffffffffffffffffffffffffffffffffffffffff038211156148ff576148fe614bc1565b5b828201905092915050565b600061491582614a33565b915061492083614a33565b9250826149305761492f614bf0565b5b828204905092915050565b600061494682614a33565b915061495183614a33565b9250817fffffffffffffffffffffffffffffffffffffffffffffffffffffffffffffffff048311821515161561498a57614989614bc1565b5b828202905092915050565b60006149a082614a33565b91506149ab83614a33565b9250828210156149be576149bd614bc1565b5b828203905092915050565b60006149d482614a13565b9050919050565b60008115159050919050565b60007fffffffff0000000000000000000000000000000000000000000000000000000082169050919050565b600073ffffffffffffffffffffffffffffffffffffffff82169050919050565b6000819050919050565b600060ff82169050919050565b82818337600083830152505050565b60005b83811015614a77578082015181840152602081019050614a5c565b83811115614a86576000848401525b50505050565b60006002820490506001821680614aa457607f821691505b60208210811415614ab857614ab7614c1f565b5b50919050565b614ac782614ce7565b810181811067ffffffffffffffff82111715614ae657614ae5614c7d565b5b80604052505050565b6000614afa82614a33565b91507fffffffffffffffffffffffffffffffffffffffffffffffffffffffffffffffff821415614b2d57614b2c614bc1565b5b600182019050919050565b6000614b4382614a3d565b915060ff821415614b5757614b56614bc1565b5b600182019050919050565b6000614b6d82614b74565b9050919050565b6000614b7f82614cf8565b9050919050565b6000819050919050565b6000614b9b82614a33565b9150614ba683614a33565b925082614bb657614bb5614bf0565b5b828206905092915050565b7f4e487b7100000000000000000000000000000000000000000000000000000000600052601160045260246000fd5b7f4e487b7100000000000000000000000000000000000000000000000000000000600052601260045260246000fd5b7f4e487b7100000000000000000000000000000000000000000000000000000000600052602260045260246000fd5b7f4e487b7100000000000000000000000000000000000000000000000000000000600052603260045260246000fd5b7f4e487b7100000000000000000000000000000000000000000000000000000000600052604160045260246000fd5b600060033d1115614ccb5760046000803e614cc8600051614d05565b90505b90565b600080fd5b600080fd5b600080fd5b600080fd5b600080fd5b6000601f19601f8301169050919050565b60008160601b9050919050565b60008160e01c9050919050565b7f455243313135353a207472616e7366657220746f206e6f6e204552433131353560008201527f526563656976657220696d706c656d656e746572000000000000000000000000602082015250565b7f455243313135353a204552433131353552656365697665722072656a6563746560008201527f6420746f6b656e73000000000000000000000000000000000000000000000000602082015250565b7f4e6f2072656d61696e696e6720626f6f73746572207061636b73210000000000600082015250565b7f455243313135353a2062616c616e636520717565727920666f7220746865207a60008201527f65726f2061646472657373000000000000000000000000000000000000000000602082015250565b7f4f776e61626c653a206e6577206f776e657220697320746865207a65726f206160008201527f6464726573730000000000000000000000000000000000000000000000000000602082015250565b7f455243313135353a206275726e20616d6f756e7420657863656564732062616c60008201527f616e636500000000000000000000000000000000000000000000000000000000602082015250565b7f455243313135353a2063616c6c6572206973206e6f74206f776e6572206e6f7260008201527f20617070726f7665640000000000000000000000000000000000000000000000602082015250565b7f55736572206973206e6f742077686974656c69737465642e0000000000000000600082015250565b7f416c6c206f662074686973206174686c657465206861766520616c726561647960008201527f206265656e206d696e7465642100000000000000000000000000000000000000602082015250565b7f416c6c20626f6f73746572207061636b73206861766520616c7265616479206260008201527f65656e206d696e74656421000000000000000000000000000000000000000000602082015250565b7f455243313135353a207472616e7366657220746f20746865207a65726f20616460008201527f6472657373000000000000000000000000000000000000000000000000000000602082015250565b7f455243313135353a207472616e736665722063616c6c6572206973206e6f742060008201527f6f776e6572206e6f7220617070726f7665640000000000000000000000000000602082015250565b7f43616e6e6f742073657420757269207477696365000000000000000000000000600082015250565b7f455243313135353a206275726e2066726f6d20746865207a65726f206164647260008201527f6573730000000000000000000000000000000000000000000000000000000000602082015250565b7f426f6f73746572207061636b732063616e6e6f74206265206f70656e6564207960008201527f6574210000000000000000000000000000000000000000000000000000000000602082015250565b7f455243313135353a20696e73756666696369656e742062616c616e636520666f60008201527f72207472616e7366657200000000000000000000000000000000000000000000602082015250565b7f596f752063616e6e6f74206275726e206d6f7265207468616e2031207061636b600082015250565b7f2e6a736f6e000000000000000000000000000000000000000000000000000000600082015250565b7f4f776e61626c653a2063616c6c6572206973206e6f7420746865206f776e6572600082015250565b7f53746172746572207061636b20646f6573206e6f7420657869737420696e207560008201527f736572732077616c6c6574000000000000000000000000000000000000000000602082015250565b7f416c6c207061636b73206861766520616c7265616479206265656e206d696e7460008201527f6564210000000000000000000000000000000000000000000000000000000000602082015250565b7f43616e206f6e6c79206d696e742074776f20626f6f73746572207061636b732060008201527f706572206163636f756e74000000000000000000000000000000000000000000602082015250565b7f5061636b73206172656e277420726561647920746f206f70656e207965742100600082015250565b7f43616e206f6e6c79206d696e74206f6e652073746172746572207061636b207060008201527f6572206163636f756e7400000000000000000000000000000000000000000000602082015250565b7f455243313135353a2073657474696e6720617070726f76616c2073746174757360008201527f20666f722073656c660000000000000000000000000000000000000000000000602082015250565b7f455243313135353a206163636f756e747320616e6420696473206c656e67746860008201527f206d69736d617463680000000000000000000000000000000000000000000000602082015250565b7f455243313135353a2069647320616e6420616d6f756e7473206c656e6774682060008201527f6d69736d61746368000000000000000000000000000000000000000000000000602082015250565b7f507269766174652073616c65206861736e2774206f70656e6564207965742e00600082015250565b7f455243313135353a206d696e7420746f20746865207a65726f2061646472657360008201527f7300000000000000000000000000000000000000000000000000000000000000602082015250565b600060443d10156154e557615568565b6154ed614705565b60043d036004823e80513d602482011167ffffffffffffffff82111715615515575050615568565b808201805167ffffffffffffffff8111156155335750505050615568565b80602083010160043d038501811115615550575050505050615568565b61555f82602001850186614abe565b82955050505050505b90565b615574816149c9565b811461557f57600080fd5b50565b61558b816149db565b811461559657600080fd5b50565b6155a2816149e7565b81146155ad57600080fd5b50565b6155b981614a33565b81146155c457600080fd5b5056fea2646970667358221220331790d7107aa358b286ffc1b27040c39c8cbd8d121a89e2bfbf4d970eb0f5c764736f6c63430008070033",
  "linkReferences": {},
  "deployedLinkReferences": {}
}