{
  "_format": "hh-sol-artifact-1",
  "contractName": "GameItems",
  "sourceName": "contracts/GameItems.sol",
  "abi": [
    {
      "inputs": [
        {
          "components": [
            {
              "internalType": "uint256",
              "name": "_numAthletes",
              "type": "uint256"
            },
            {
              "internalType": "uint256",
              "name": "_nftPerAthlete",
              "type": "uint256"
            },
            {
              "internalType": "uint256",
              "name": "_starterPackSize",
              "type": "uint256"
            },
            {
              "internalType": "uint256",
              "name": "_boosterPackSize",
              "type": "uint256"
            },
            {
              "internalType": "uint256",
              "name": "_maxStarterPackBalance",
              "type": "uint256"
            },
            {
              "internalType": "uint256",
              "name": "_maxBoosterPackBalance",
              "type": "uint256"
            },
            {
              "internalType": "uint256",
              "name": "_maxPacks",
              "type": "uint256"
            },
            {
              "internalType": "uint256",
              "name": "_revealTimestamp",
              "type": "uint256"
            }
          ],
          "internalType": "struct GameItems.Parameters",
          "name": "params",
          "type": "tuple"
        },
        {
          "internalType": "string",
          "name": "_athleteURI",
          "type": "string"
        },
        {
          "internalType": "string",
          "name": "_starterPackURI",
          "type": "string"
        },
        {
          "internalType": "string",
          "name": "_boosterPackURI",
          "type": "string"
        }
      ],
      "stateMutability": "nonpayable",
      "type": "constructor"
    },
    {
      "anonymous": false,
      "inputs": [
        {
          "indexed": true,
          "internalType": "address",
          "name": "account",
          "type": "address"
        },
        {
          "indexed": true,
          "internalType": "address",
          "name": "operator",
          "type": "address"
        },
        {
          "indexed": false,
          "internalType": "bool",
          "name": "approved",
          "type": "bool"
        }
      ],
      "name": "ApprovalForAll",
      "type": "event"
    },
    {
      "anonymous": false,
      "inputs": [
        {
          "indexed": true,
          "internalType": "address",
          "name": "previousOwner",
          "type": "address"
        },
        {
          "indexed": true,
          "internalType": "address",
          "name": "newOwner",
          "type": "address"
        }
      ],
      "name": "OwnershipTransferred",
      "type": "event"
    },
    {
      "anonymous": false,
      "inputs": [
        {
          "indexed": true,
          "internalType": "address",
          "name": "operator",
          "type": "address"
        },
        {
          "indexed": true,
          "internalType": "address",
          "name": "from",
          "type": "address"
        },
        {
          "indexed": true,
          "internalType": "address",
          "name": "to",
          "type": "address"
        },
        {
          "indexed": false,
          "internalType": "uint256[]",
          "name": "ids",
          "type": "uint256[]"
        },
        {
          "indexed": false,
          "internalType": "uint256[]",
          "name": "values",
          "type": "uint256[]"
        }
      ],
      "name": "TransferBatch",
      "type": "event"
    },
    {
      "anonymous": false,
      "inputs": [
        {
          "indexed": true,
          "internalType": "address",
          "name": "operator",
          "type": "address"
        },
        {
          "indexed": true,
          "internalType": "address",
          "name": "from",
          "type": "address"
        },
        {
          "indexed": true,
          "internalType": "address",
          "name": "to",
          "type": "address"
        },
        {
          "indexed": false,
          "internalType": "uint256",
          "name": "id",
          "type": "uint256"
        },
        {
          "indexed": false,
          "internalType": "uint256",
          "name": "value",
          "type": "uint256"
        }
      ],
      "name": "TransferSingle",
      "type": "event"
    },
    {
      "anonymous": false,
      "inputs": [
        {
          "indexed": false,
          "internalType": "string",
          "name": "value",
          "type": "string"
        },
        {
          "indexed": true,
          "internalType": "uint256",
          "name": "id",
          "type": "uint256"
        }
      ],
      "name": "URI",
      "type": "event"
    },
    {
      "anonymous": false,
      "inputs": [
        {
          "indexed": false,
          "internalType": "uint256[5]",
          "name": "",
          "type": "uint256[5]"
        },
        {
          "indexed": false,
          "internalType": "address",
          "name": "signer",
          "type": "address"
        }
      ],
      "name": "packBurned",
      "type": "event"
    },
    {
      "anonymous": false,
      "inputs": [
        {
          "indexed": false,
          "internalType": "address",
          "name": "signer",
          "type": "address"
        },
        {
          "indexed": false,
          "internalType": "uint256",
          "name": "id",
          "type": "uint256"
        }
      ],
      "name": "packMinted",
      "type": "event"
    },
    {
      "inputs": [],
      "name": "REVEAL_TIMESTAMP",
      "outputs": [
        {
          "internalType": "uint256",
          "name": "",
          "type": "uint256"
        }
      ],
      "stateMutability": "view",
      "type": "function"
    },
    {
      "inputs": [
        {
          "internalType": "address",
          "name": "_userToAdd",
          "type": "address"
        }
      ],
      "name": "addUserToWhitelist",
      "outputs": [
        {
          "internalType": "bool",
          "name": "success",
          "type": "bool"
        }
      ],
      "stateMutability": "nonpayable",
      "type": "function"
    },
    {
      "inputs": [
        {
          "internalType": "address[]",
          "name": "addrs",
          "type": "address[]"
        }
      ],
      "name": "addUsersToWhitelist",
      "outputs": [
        {
          "internalType": "bool",
          "name": "success",
          "type": "bool"
        }
      ],
      "stateMutability": "nonpayable",
      "type": "function"
    },
    {
      "inputs": [
        {
          "internalType": "address",
          "name": "account",
          "type": "address"
        },
        {
          "internalType": "uint256",
          "name": "id",
          "type": "uint256"
        }
      ],
      "name": "balanceOf",
      "outputs": [
        {
          "internalType": "uint256",
          "name": "",
          "type": "uint256"
        }
      ],
      "stateMutability": "view",
      "type": "function"
    },
    {
      "inputs": [
        {
          "internalType": "address[]",
          "name": "accounts",
          "type": "address[]"
        },
        {
          "internalType": "uint256[]",
          "name": "ids",
          "type": "uint256[]"
        }
      ],
      "name": "balanceOfBatch",
      "outputs": [
        {
          "internalType": "uint256[]",
          "name": "",
          "type": "uint256[]"
        }
      ],
      "stateMutability": "view",
      "type": "function"
    },
    {
      "inputs": [],
      "name": "burnStarterPack",
      "outputs": [],
      "stateMutability": "nonpayable",
      "type": "function"
    },
    {
      "inputs": [],
      "name": "getNFTPerAthlete",
      "outputs": [
        {
          "internalType": "uint256",
          "name": "",
          "type": "uint256"
        }
      ],
      "stateMutability": "view",
      "type": "function"
    },
    {
      "inputs": [],
      "name": "getNumWhitelisted",
      "outputs": [
        {
          "internalType": "uint256",
          "name": "",
          "type": "uint256"
        }
      ],
      "stateMutability": "view",
      "type": "function"
    },
    {
      "inputs": [
        {
          "internalType": "address",
          "name": "account",
          "type": "address"
        },
        {
          "internalType": "address",
          "name": "operator",
          "type": "address"
        }
      ],
      "name": "isApprovedForAll",
      "outputs": [
        {
          "internalType": "bool",
          "name": "",
          "type": "bool"
        }
      ],
      "stateMutability": "view",
      "type": "function"
    },
    {
      "inputs": [
        {
          "internalType": "uint256",
          "name": "index",
          "type": "uint256"
        }
      ],
      "name": "mintAthlete",
      "outputs": [],
      "stateMutability": "nonpayable",
      "type": "function"
    },
    {
      "inputs": [],
      "name": "mintStarterPack",
      "outputs": [],
      "stateMutability": "nonpayable",
      "type": "function"
    },
    {
      "inputs": [],
      "name": "name",
      "outputs": [
        {
          "internalType": "string",
          "name": "",
          "type": "string"
        }
      ],
      "stateMutability": "view",
      "type": "function"
    },
    {
      "inputs": [],
      "name": "numWhitelisted",
      "outputs": [
        {
          "internalType": "uint256",
          "name": "",
          "type": "uint256"
        }
      ],
      "stateMutability": "view",
      "type": "function"
    },
    {
      "inputs": [],
      "name": "openPrivateSale",
      "outputs": [],
      "stateMutability": "nonpayable",
      "type": "function"
    },
    {
      "inputs": [],
      "name": "openPublicSale",
      "outputs": [],
      "stateMutability": "nonpayable",
      "type": "function"
    },
    {
      "inputs": [],
      "name": "owner",
      "outputs": [
        {
          "internalType": "address",
          "name": "",
          "type": "address"
        }
      ],
      "stateMutability": "view",
      "type": "function"
    },
    {
      "inputs": [],
      "name": "packsAvailable",
      "outputs": [
        {
          "internalType": "uint256",
          "name": "",
          "type": "uint256"
        }
      ],
      "stateMutability": "view",
      "type": "function"
    },
    {
      "inputs": [],
      "name": "packsReadyToOpen",
      "outputs": [
        {
          "internalType": "bool",
          "name": "",
          "type": "bool"
        }
      ],
      "stateMutability": "view",
      "type": "function"
    },
    {
      "inputs": [
        {
          "internalType": "address",
          "name": "_userToRemove",
          "type": "address"
        }
      ],
      "name": "removeUserFromWhitelist",
      "outputs": [
        {
          "internalType": "bool",
          "name": "success",
          "type": "bool"
        }
      ],
      "stateMutability": "nonpayable",
      "type": "function"
    },
    {
      "inputs": [
        {
          "internalType": "address[]",
          "name": "addrs",
          "type": "address[]"
        }
      ],
      "name": "removeUsersFromWhitelist",
      "outputs": [
        {
          "internalType": "bool",
          "name": "success",
          "type": "bool"
        }
      ],
      "stateMutability": "nonpayable",
      "type": "function"
    },
    {
      "inputs": [],
      "name": "renounceOwnership",
      "outputs": [],
      "stateMutability": "nonpayable",
      "type": "function"
    },
    {
      "inputs": [
        {
          "internalType": "address",
          "name": "from",
          "type": "address"
        },
        {
          "internalType": "address",
          "name": "to",
          "type": "address"
        },
        {
          "internalType": "uint256[]",
          "name": "ids",
          "type": "uint256[]"
        },
        {
          "internalType": "uint256[]",
          "name": "amounts",
          "type": "uint256[]"
        },
        {
          "internalType": "bytes",
          "name": "data",
          "type": "bytes"
        }
      ],
      "name": "safeBatchTransferFrom",
      "outputs": [],
      "stateMutability": "nonpayable",
      "type": "function"
    },
    {
      "inputs": [
        {
          "internalType": "address",
          "name": "from",
          "type": "address"
        },
        {
          "internalType": "address",
          "name": "to",
          "type": "address"
        },
        {
          "internalType": "uint256",
          "name": "id",
          "type": "uint256"
        },
        {
          "internalType": "uint256",
          "name": "amount",
          "type": "uint256"
        },
        {
          "internalType": "bytes",
          "name": "data",
          "type": "bytes"
        }
      ],
      "name": "safeTransferFrom",
      "outputs": [],
      "stateMutability": "nonpayable",
      "type": "function"
    },
    {
      "inputs": [
        {
          "internalType": "address",
          "name": "operator",
          "type": "address"
        },
        {
          "internalType": "bool",
          "name": "approved",
          "type": "bool"
        }
      ],
      "name": "setApprovalForAll",
      "outputs": [],
      "stateMutability": "nonpayable",
      "type": "function"
    },
    {
      "inputs": [],
      "name": "setPacksReady",
      "outputs": [],
      "stateMutability": "nonpayable",
      "type": "function"
    },
    {
      "inputs": [],
      "name": "setStartingIndex",
      "outputs": [],
      "stateMutability": "nonpayable",
      "type": "function"
    },
    {
      "inputs": [
        {
          "internalType": "uint256",
          "name": "tokenId",
          "type": "uint256"
        },
        {
          "internalType": "string",
          "name": "uri",
          "type": "string"
        }
      ],
      "name": "setTokenUri",
      "outputs": [],
      "stateMutability": "nonpayable",
      "type": "function"
    },
    {
      "inputs": [],
      "name": "setURIs",
      "outputs": [],
      "stateMutability": "nonpayable",
      "type": "function"
    },
    {
      "inputs": [
        {
          "internalType": "bytes4",
          "name": "interfaceId",
          "type": "bytes4"
        }
      ],
      "name": "supportsInterface",
      "outputs": [
        {
          "internalType": "bool",
          "name": "",
          "type": "bool"
        }
      ],
      "stateMutability": "view",
      "type": "function"
    },
    {
      "inputs": [
        {
          "internalType": "address",
          "name": "newOwner",
          "type": "address"
        }
      ],
      "name": "transferOwnership",
      "outputs": [],
      "stateMutability": "nonpayable",
      "type": "function"
    },
    {
      "inputs": [
        {
          "internalType": "uint256",
          "name": "tokenId",
          "type": "uint256"
        }
      ],
      "name": "uri",
      "outputs": [
        {
          "internalType": "string",
          "name": "",
          "type": "string"
        }
      ],
      "stateMutability": "view",
      "type": "function"
    },
    {
      "inputs": [
        {
          "internalType": "address",
          "name": "",
          "type": "address"
        }
      ],
      "name": "userToHasBurnedPack",
      "outputs": [
        {
          "internalType": "bool",
          "name": "",
          "type": "bool"
        }
      ],
      "stateMutability": "view",
      "type": "function"
    },
    {
      "inputs": [
        {
          "internalType": "address",
          "name": "",
          "type": "address"
        }
      ],
      "name": "userToHasMintedPack",
      "outputs": [
        {
          "internalType": "bool",
          "name": "",
          "type": "bool"
        }
      ],
      "stateMutability": "view",
      "type": "function"
    },
    {
      "inputs": [
        {
          "internalType": "address",
          "name": "",
          "type": "address"
        }
      ],
      "name": "whitelist",
      "outputs": [
        {
          "internalType": "bool",
          "name": "",
          "type": "bool"
        }
      ],
      "stateMutability": "view",
      "type": "function"
    }
  ],
  "bytecode": "0x6080604052612710600f556040518060400160405280600881526020017f5465616d446966660000000000000000000000000000000000000000000000008152506010908051906020019062000057929190620002d6565b506000601160006101000a81548160ff02191690831515021790555060405180602001604052806000815250601790805190602001906200009a929190620002d6565b50348015620000a857600080fd5b5060405162005774380380620057748339818101604052810190620000ce9190620004fa565b6040518060400160405280600281526020017f54440000000000000000000000000000000000000000000000000000000000008152506200011581620001ec60201b60201c565b50620001366200012a6200020860201b60201c565b6200021060201b60201c565b8360000151600c819055508360200151600d819055508360400151600781905550836060015160088190555083608001516009819055508360a00151600a819055508360c00151600b8190555082600490805190602001906200019b929190620002d6565b508160059080519060200190620001b4929190620002d6565b508060069080519060200190620001cd929190620002d6565b508360e00151600f81905550600b54602081905550505050506200077a565b806002908051906020019062000204929190620002d6565b5050565b600033905090565b6000600360009054906101000a900473ffffffffffffffffffffffffffffffffffffffff16905081600360006101000a81548173ffffffffffffffffffffffffffffffffffffffff021916908373ffffffffffffffffffffffffffffffffffffffff1602179055508173ffffffffffffffffffffffffffffffffffffffff168173ffffffffffffffffffffffffffffffffffffffff167f8be0079c531659141344cd1fd0a4f28419497f9722a3daafe3b4186f6b6457e060405160405180910390a35050565b828054620002e4906200066c565b90600052602060002090601f01602090048101928262000308576000855562000354565b82601f106200032357805160ff191683800117855562000354565b8280016001018555821562000354579182015b828111156200035357825182559160200191906001019062000336565b5b50905062000363919062000367565b5090565b5b808211156200038257600081600090555060010162000368565b5090565b60006200039d6200039784620005f6565b620005cd565b905082815260208101848484011115620003bc57620003bb62000740565b5b620003c984828562000636565b509392505050565b600082601f830112620003e957620003e862000736565b5b8151620003fb84826020860162000386565b91505092915050565b600061010082840312156200041e576200041d6200073b565b5b6200042b610100620005cd565b905060006200043d84828501620004e3565b60008301525060206200045384828501620004e3565b60208301525060406200046984828501620004e3565b60408301525060606200047f84828501620004e3565b60608301525060806200049584828501620004e3565b60808301525060a0620004ab84828501620004e3565b60a08301525060c0620004c184828501620004e3565b60c08301525060e0620004d784828501620004e3565b60e08301525092915050565b600081519050620004f48162000760565b92915050565b60008060008061016085870312156200051857620005176200074a565b5b6000620005288782880162000404565b94505061010085015167ffffffffffffffff8111156200054d576200054c62000745565b5b6200055b87828801620003d1565b93505061012085015167ffffffffffffffff81111562000580576200057f62000745565b5b6200058e87828801620003d1565b92505061014085015167ffffffffffffffff811115620005b357620005b262000745565b5b620005c187828801620003d1565b91505092959194509250565b6000620005d9620005ec565b9050620005e78282620006a2565b919050565b6000604051905090565b600067ffffffffffffffff82111562000614576200061362000707565b5b6200061f826200074f565b9050602081019050919050565b6000819050919050565b60005b838110156200065657808201518184015260208101905062000639565b8381111562000666576000848401525b50505050565b600060028204905060018216806200068557607f821691505b602082108114156200069c576200069b620006d8565b5b50919050565b620006ad826200074f565b810181811067ffffffffffffffff82111715620006cf57620006ce62000707565b5b80604052505050565b7f4e487b7100000000000000000000000000000000000000000000000000000000600052602260045260246000fd5b7f4e487b7100000000000000000000000000000000000000000000000000000000600052604160045260246000fd5b600080fd5b600080fd5b600080fd5b600080fd5b600080fd5b6000601f19601f8301169050919050565b6200076b816200062c565b81146200077757600080fd5b50565b614fea806200078a6000396000f3fe608060405234801561001057600080fd5b50600436106102055760003560e01c80638d21c7701161011a578063bbb13e17116100ad578063e98665501161007c578063e986655014610590578063f242432a1461059a578063f2fde38b146105b6578063f4b0b166146105d2578063f9902bb11461060257610205565b8063bbb13e171461051a578063be59ec2614610524578063d759000b14610542578063e985e9c51461056057610205565b80639ebf488b116100e95780639ebf488b146104e0578063a22cb465146104ea578063a6ad4c0114610506578063b585209b1461051057610205565b80638d21c770146104465780638da5cb5b146104765780639a25ab83146104945780639b19251a146104b057610205565b80632eb2c2d61161019d57806357f7789e1161016c57806357f7789e146103b65780635ae698ff146103d25780635d2db2bf14610402578063715018a61461040c578063747b80501461041657610205565b80632eb2c2d61461032e57806344eaa84e1461034a5780634e1273f41461036857806354dacb961461039857610205565b8063143cc144116101d9578063143cc144146102b857806318e20a38146102d657806319b60439146102f45780631d170162146102fe57610205565b8062fdd58e1461020a57806301ffc9a71461023a57806306fdde031461026a5780630e89341c14610288575b600080fd5b610224600480360381019061021f9190613530565b610632565b60405161023191906141ff565b60405180910390f35b610254600480360381019061024f9190613631565b6106fb565b6040516102619190613ee2565b60405180910390f35b6102726107dd565b60405161027f9190613efd565b60405180910390f35b6102a2600480360381019061029d919061368b565b61086b565b6040516102af9190613efd565b60405180910390f35b6102c0610910565b6040516102cd91906141ff565b60405180910390f35b6102de61091a565b6040516102eb91906141ff565b60405180910390f35b6102fc610920565b005b6103186004803603810190610313919061331d565b6109c8565b6040516103259190613ee2565b60405180910390f35b6103486004803603810190610343919061338a565b6109e8565b005b610352610a89565b60405161035f91906141ff565b60405180910390f35b610382600480360381019061037d91906135b9565b610a93565b60405161038f9190613e89565b60405180910390f35b6103a0610bac565b6040516103ad91906141ff565b60405180910390f35b6103d060048036038101906103cb91906136b8565b610bb2565b005b6103ec60048036038101906103e79190613570565b610cbc565b6040516103f99190613ee2565b60405180910390f35b61040a610d8c565b005b610414610eab565b005b610430600480360381019061042b919061331d565b610f33565b60405161043d9190613ee2565b60405180910390f35b610460600480360381019061045b9190613570565b61107e565b60405161046d9190613ee2565b60405180910390f35b61047e61114e565b60405161048b9190613d5a565b60405180910390f35b6104ae60048036038101906104a9919061368b565b611178565b005b6104ca60048036038101906104c5919061331d565b611273565b6040516104d79190613ee2565b60405180910390f35b6104e8611293565b005b61050460048036038101906104ff91906134f0565b611534565b005b61050e61154a565b005b6105186115e3565b005b61052261167c565b005b61052c61189e565b6040516105399190613ee2565b60405180910390f35b61054a6118b1565b60405161055791906141ff565b60405180910390f35b61057a6004803603810190610575919061334a565b6118b7565b6040516105879190613ee2565b60405180910390f35b61059861194b565b005b6105b460048036038101906105af9190613459565b611a22565b005b6105d060048036038101906105cb919061331d565b611ac3565b005b6105ec60048036038101906105e7919061331d565b611bbb565b6040516105f99190613ee2565b60405180910390f35b61061c6004803603810190610617919061331d565b611bdb565b6040516106299190613ee2565b60405180910390f35b60008073ffffffffffffffffffffffffffffffffffffffff168373ffffffffffffffffffffffffffffffffffffffff1614156106a3576040517f08c379a000000000000000000000000000000000000000000000000000000000815260040161069a90613f5f565b60405180910390fd5b60008083815260200190815260200160002060008473ffffffffffffffffffffffffffffffffffffffff1673ffffffffffffffffffffffffffffffffffffffff16815260200190815260200160002054905092915050565b60007fd9b67a26000000000000000000000000000000000000000000000000000000007bffffffffffffffffffffffffffffffffffffffffffffffffffffffff1916827bffffffffffffffffffffffffffffffffffffffffffffffffffffffff191614806107c657507f0e89341c000000000000000000000000000000000000000000000000000000007bffffffffffffffffffffffffffffffffffffffffffffffffffffffff1916827bffffffffffffffffffffffffffffffffffffffffffffffffffffffff1916145b806107d657506107d582611d27565b5b9050919050565b601080546107ea906145b8565b80601f0160208091040260200160405190810160405280929190818152602001828054610816906145b8565b80156108635780601f1061083857610100808354040283529160200191610863565b820191906000526020600020905b81548152906001019060200180831161084657829003601f168201915b505050505081565b606060246000838152602001908152602001600020805461088b906145b8565b80601f01602080910402602001604051908101604052809291908181526020018280546108b7906145b8565b80156109045780601f106108d957610100808354040283529160200191610904565b820191906000526020600020905b8154815290600101906020018083116108e757829003601f168201915b50505050509050919050565b6000600d54905090565b600f5481565b610928611d91565b73ffffffffffffffffffffffffffffffffffffffff1661094661114e565b73ffffffffffffffffffffffffffffffffffffffff161461099c576040517f08c379a0000000000000000000000000000000000000000000000000000000008152600401610993906140df565b60405180910390fd5b601160009054906101000a900460ff1615601160006101000a81548160ff021916908315150217905550565b60266020528060005260406000206000915054906101000a900460ff1681565b6109f0611d91565b73ffffffffffffffffffffffffffffffffffffffff168573ffffffffffffffffffffffffffffffffffffffff161480610a365750610a3585610a30611d91565b6118b7565b5b610a75576040517f08c379a0000000000000000000000000000000000000000000000000000000008152600401610a6c9061403f565b60405180910390fd5b610a828585858585611d99565b5050505050565b6000602254905090565b60608151835114610ad9576040517f08c379a0000000000000000000000000000000000000000000000000000000008152600401610ad09061419f565b60405180910390fd5b6000835167ffffffffffffffff811115610af657610af56147a9565b5b604051908082528060200260200182016040528015610b245781602001602082028036833780820191505090505b50905060005b8451811015610ba157610b71858281518110610b4957610b4861477a565b5b6020026020010151858381518110610b6457610b6361477a565b5b6020026020010151610632565b828281518110610b8457610b8361477a565b5b60200260200101818152505080610b9a9061461b565b9050610b2a565b508091505092915050565b60225481565b610bba611d91565b73ffffffffffffffffffffffffffffffffffffffff16610bd861114e565b73ffffffffffffffffffffffffffffffffffffffff1614610c2e576040517f08c379a0000000000000000000000000000000000000000000000000000000008152600401610c25906140df565b60405180910390fd5b6000602460008481526020019081526020016000208054610c4e906145b8565b905014610c90576040517f08c379a0000000000000000000000000000000000000000000000000000000008152600401610c879061405f565b60405180910390fd5b80602460008481526020019081526020016000209080519060200190610cb7929190612fd3565b505050565b6000610cc6611d91565b73ffffffffffffffffffffffffffffffffffffffff16610ce461114e565b73ffffffffffffffffffffffffffffffffffffffff1614610d3a576040517f08c379a0000000000000000000000000000000000000000000000000000000008152600401610d31906140df565b60405180910390fd5b60005b8251811015610d8657610d69838281518110610d5c57610d5b61477a565b5b6020026020010151610f33565b15610d7357600191505b8080610d7e9061461b565b915050610d3d565b50919050565b610d94611d91565b73ffffffffffffffffffffffffffffffffffffffff16610db261114e565b73ffffffffffffffffffffffffffffffffffffffff1614610e08576040517f08c379a0000000000000000000000000000000000000000000000000000000008152600401610dff906140df565b60405180910390fd5b60005b600c54811015610e7c576000600c5482601654610e2891906143e0565b610e3291906146bc565b9050610e68816004610e43846120ad565b604051602001610e54929190613ccc565b604051602081830303815290604052610bb2565b508080610e749061461b565b915050610e0b565b50610ea9600c546005604051602001610e959190613cb5565b604051602081830303815290604052610bb2565b565b610eb3611d91565b73ffffffffffffffffffffffffffffffffffffffff16610ed161114e565b73ffffffffffffffffffffffffffffffffffffffff1614610f27576040517f08c379a0000000000000000000000000000000000000000000000000000000008152600401610f1e906140df565b60405180910390fd5b610f31600061220e565b565b6000610f3d611d91565b73ffffffffffffffffffffffffffffffffffffffff16610f5b61114e565b73ffffffffffffffffffffffffffffffffffffffff1614610fb1576040517f08c379a0000000000000000000000000000000000000000000000000000000008152600401610fa8906140df565b60405180910390fd5b602160008373ffffffffffffffffffffffffffffffffffffffff1673ffffffffffffffffffffffffffffffffffffffff16815260200190815260200160002060009054906101000a900460ff16611079576001602160008473ffffffffffffffffffffffffffffffffffffffff1673ffffffffffffffffffffffffffffffffffffffff16815260200190815260200160002060006101000a81548160ff02191690831515021790555060016022600082825461106d91906143e0565b92505081905550600190505b919050565b6000611088611d91565b73ffffffffffffffffffffffffffffffffffffffff166110a661114e565b73ffffffffffffffffffffffffffffffffffffffff16146110fc576040517f08c379a00000000000000000000000000000000000000000000000000000000081526004016110f3906140df565b60405180910390fd5b60005b82518110156111485761112b83828151811061111e5761111d61477a565b5b6020026020010151611bdb565b1561113557600191505b80806111409061461b565b9150506110ff565b50919050565b6000600360009054906101000a900473ffffffffffffffffffffffffffffffffffffffff16905090565b600d54600c546111889190614467565b601454101561127057600d546025600083815260200190815260200160002054106111e8576040517f08c379a00000000000000000000000000000000000000000000000000000000081526004016111df90613fff565b60405180910390fd5b61122a338260016040518060400160405280600481526020017f30783030000000000000000000000000000000000000000000000000000000008152506122d4565b600160256000838152602001908152602001600020600082825461124e91906143e0565b9250508190555060016014600082825461126891906143e0565b925050819055505b50565b60216020528060005260406000206000915054906101000a900460ff1681565b602360009054906101000a900460ff1680156112bc5750602360019054906101000a900460ff16155b1561134e57602160003373ffffffffffffffffffffffffffffffffffffffff1673ffffffffffffffffffffffffffffffffffffffff16815260200190815260200160002060009054906101000a900460ff1661134d576040517f08c379a000000000000000000000000000000000000000000000000000000000815260040161134490613fdf565b60405180910390fd5b5b600b5460125410611394576040517f08c379a000000000000000000000000000000000000000000000000000000000815260040161138b9061411f565b60405180910390fd5b602760003373ffffffffffffffffffffffffffffffffffffffff1673ffffffffffffffffffffffffffffffffffffffff16815260200190815260200160002060009054906101000a900460ff1615611421576040517f08c379a00000000000000000000000000000000000000000000000000000000081526004016114189061415f565b60405180910390fd5b6001602760003373ffffffffffffffffffffffffffffffffffffffff1673ffffffffffffffffffffffffffffffffffffffff16815260200190815260200160002060006101000a81548160ff0219169083151502179055506000600c5490506114c2338260016040518060400160405280600481526020017f30783030000000000000000000000000000000000000000000000000000000008152506122d4565b6001601260008282546114d591906143e0565b925050819055506001602060008282546114ef91906144c1565b925050819055507f2e0f4d63dcc00e6a11c8aef9f6e15c1f9cd6e9a090b2dd99c7b797f1a28d300d33601254604051611529929190613e37565b60405180910390a150565b61154661153f611d91565b838361246a565b5050565b611552611d91565b73ffffffffffffffffffffffffffffffffffffffff1661157061114e565b73ffffffffffffffffffffffffffffffffffffffff16146115c6576040517f08c379a00000000000000000000000000000000000000000000000000000000081526004016115bd906140df565b60405180910390fd5b6001602360006101000a81548160ff021916908315150217905550565b6115eb611d91565b73ffffffffffffffffffffffffffffffffffffffff1661160961114e565b73ffffffffffffffffffffffffffffffffffffffff161461165f576040517f08c379a0000000000000000000000000000000000000000000000000000000008152600401611656906140df565b60405180910390fd5b6001602360016101000a81548160ff021916908315150217905550565b6000600c549050602660003373ffffffffffffffffffffffffffffffffffffffff1673ffffffffffffffffffffffffffffffffffffffff16815260200190815260200160002060009054906101000a900460ff1615611710576040517f08c379a0000000000000000000000000000000000000000000000000000000008152600401611707906140bf565b60405180910390fd5b601160009054906101000a900460ff1661175f576040517f08c379a00000000000000000000000000000000000000000000000000000000081526004016117569061413f565b60405180910390fd5b600061176b3383610632565b116117ab576040517f08c379a00000000000000000000000000000000000000000000000000000000081526004016117a2906140ff565b60405180910390fd5b6001602660003373ffffffffffffffffffffffffffffffffffffffff1673ffffffffffffffffffffffffffffffffffffffff16815260200190815260200160002060006101000a81548160ff021916908315150217905550600061180d6125d7565b905060005b60058160ff16101561185457611841828260ff16600581106118375761183661477a565b5b6020020151611178565b808061184c90614664565b915050611812565b50611861338360016126bb565b7f15abe0b63b201b70614c230381f0fabc4a26a1957629948558095a11db1d6fb58133604051611892929190613e60565b60405180910390a15050565b601160009054906101000a900460ff1681565b60205481565b6000600160008473ffffffffffffffffffffffffffffffffffffffff1673ffffffffffffffffffffffffffffffffffffffff16815260200190815260200160002060008373ffffffffffffffffffffffffffffffffffffffff1673ffffffffffffffffffffffffffffffffffffffff16815260200190815260200160002060009054906101000a900460ff16905092915050565b611953611d91565b73ffffffffffffffffffffffffffffffffffffffff1661197161114e565b73ffffffffffffffffffffffffffffffffffffffff16146119c7576040517f08c379a00000000000000000000000000000000000000000000000000000000081526004016119be906140df565b60405180910390fd5b600d54600c546119d79190614467565b6001436119e491906144c1565b4060001c6119f291906146bc565b60168190555060006016541415611a2057611a1960016016546128d890919063ffffffff16565b6016819055505b565b611a2a611d91565b73ffffffffffffffffffffffffffffffffffffffff168573ffffffffffffffffffffffffffffffffffffffff161480611a705750611a6f85611a6a611d91565b6118b7565b5b611aaf576040517f08c379a0000000000000000000000000000000000000000000000000000000008152600401611aa690613fbf565b60405180910390fd5b611abc85858585856128ee565b5050505050565b611acb611d91565b73ffffffffffffffffffffffffffffffffffffffff16611ae961114e565b73ffffffffffffffffffffffffffffffffffffffff1614611b3f576040517f08c379a0000000000000000000000000000000000000000000000000000000008152600401611b36906140df565b60405180910390fd5b600073ffffffffffffffffffffffffffffffffffffffff168173ffffffffffffffffffffffffffffffffffffffff161415611baf576040517f08c379a0000000000000000000000000000000000000000000000000000000008152600401611ba690613f7f565b60405180910390fd5b611bb88161220e565b50565b60276020528060005260406000206000915054906101000a900460ff1681565b6000611be5611d91565b73ffffffffffffffffffffffffffffffffffffffff16611c0361114e565b73ffffffffffffffffffffffffffffffffffffffff1614611c59576040517f08c379a0000000000000000000000000000000000000000000000000000000008152600401611c50906140df565b60405180910390fd5b602160008373ffffffffffffffffffffffffffffffffffffffff1673ffffffffffffffffffffffffffffffffffffffff16815260200190815260200160002060009054906101000a900460ff1615611d22576000602160008473ffffffffffffffffffffffffffffffffffffffff1673ffffffffffffffffffffffffffffffffffffffff16815260200190815260200160002060006101000a81548160ff021916908315150217905550600160226000828254611d1691906144c1565b92505081905550600190505b919050565b60007f01ffc9a7000000000000000000000000000000000000000000000000000000007bffffffffffffffffffffffffffffffffffffffffffffffffffffffff1916827bffffffffffffffffffffffffffffffffffffffffffffffffffffffff1916149050919050565b600033905090565b8151835114611ddd576040517f08c379a0000000000000000000000000000000000000000000000000000000008152600401611dd4906141bf565b60405180910390fd5b600073ffffffffffffffffffffffffffffffffffffffff168473ffffffffffffffffffffffffffffffffffffffff161415611e4d576040517f08c379a0000000000000000000000000000000000000000000000000000000008152600401611e449061401f565b60405180910390fd5b6000611e57611d91565b9050611e67818787878787612b70565b60005b8451811015612018576000858281518110611e8857611e8761477a565b5b602002602001015190506000858381518110611ea757611ea661477a565b5b60200260200101519050600080600084815260200190815260200160002060008b73ffffffffffffffffffffffffffffffffffffffff1673ffffffffffffffffffffffffffffffffffffffff16815260200190815260200160002054905081811015611f48576040517f08c379a0000000000000000000000000000000000000000000000000000000008152600401611f3f9061409f565b60405180910390fd5b81810360008085815260200190815260200160002060008c73ffffffffffffffffffffffffffffffffffffffff1673ffffffffffffffffffffffffffffffffffffffff168152602001908152602001600020819055508160008085815260200190815260200160002060008b73ffffffffffffffffffffffffffffffffffffffff1673ffffffffffffffffffffffffffffffffffffffff1681526020019081526020016000206000828254611ffd91906143e0565b92505081905550505050806120119061461b565b9050611e6a565b508473ffffffffffffffffffffffffffffffffffffffff168673ffffffffffffffffffffffffffffffffffffffff168273ffffffffffffffffffffffffffffffffffffffff167f4a39dc06d4c0dbc64b70af90fd698a233a518aa5d07e595d983b8c0526c8f7fb878760405161208f929190613eab565b60405180910390a46120a5818787878787612b78565b505050505050565b606060008214156120f5576040518060400160405280600181526020017f30000000000000000000000000000000000000000000000000000000000000008152509050612209565b600082905060005b600082146121275780806121109061461b565b915050600a826121209190614436565b91506120fd565b60008167ffffffffffffffff811115612143576121426147a9565b5b6040519080825280601f01601f1916602001820160405280156121755781602001600182028036833780820191505090505b5090505b600085146122025760018261218e91906144c1565b9150600a8561219d91906146bc565b60306121a991906143e0565b60f81b8183815181106121bf576121be61477a565b5b60200101907effffffffffffffffffffffffffffffffffffffffffffffffffffffffffffff1916908160001a905350600a856121fb9190614436565b9450612179565b8093505050505b919050565b6000600360009054906101000a900473ffffffffffffffffffffffffffffffffffffffff16905081600360006101000a81548173ffffffffffffffffffffffffffffffffffffffff021916908373ffffffffffffffffffffffffffffffffffffffff1602179055508173ffffffffffffffffffffffffffffffffffffffff168173ffffffffffffffffffffffffffffffffffffffff167f8be0079c531659141344cd1fd0a4f28419497f9722a3daafe3b4186f6b6457e060405160405180910390a35050565b600073ffffffffffffffffffffffffffffffffffffffff168473ffffffffffffffffffffffffffffffffffffffff161415612344576040517f08c379a000000000000000000000000000000000000000000000000000000000815260040161233b906141df565b60405180910390fd5b600061234e611d91565b905061236f8160008761236088612d5f565b61236988612d5f565b87612b70565b8260008086815260200190815260200160002060008773ffffffffffffffffffffffffffffffffffffffff1673ffffffffffffffffffffffffffffffffffffffff16815260200190815260200160002060008282546123ce91906143e0565b925050819055508473ffffffffffffffffffffffffffffffffffffffff16600073ffffffffffffffffffffffffffffffffffffffff168273ffffffffffffffffffffffffffffffffffffffff167fc3d58168c5ae7397731d063d5bbf3d657854427343f4c083240f7aacaa2d0f62878760405161244c92919061421a565b60405180910390a461246381600087878787612dd9565b5050505050565b8173ffffffffffffffffffffffffffffffffffffffff168373ffffffffffffffffffffffffffffffffffffffff1614156124d9576040517f08c379a00000000000000000000000000000000000000000000000000000000081526004016124d09061417f565b60405180910390fd5b80600160008573ffffffffffffffffffffffffffffffffffffffff1673ffffffffffffffffffffffffffffffffffffffff16815260200190815260200160002060008473ffffffffffffffffffffffffffffffffffffffff1673ffffffffffffffffffffffffffffffffffffffff16815260200190815260200160002060006101000a81548160ff0219169083151502179055508173ffffffffffffffffffffffffffffffffffffffff168373ffffffffffffffffffffffffffffffffffffffff167f17307eab39ab6107e8899845ad3d59bd9653f200f220920489ca2b5937696c31836040516125ca9190613ee2565b60405180910390a3505050565b6125df613059565b6125e7613059565b60005b60058110156126b3576000600a826126029190614467565b905060006009600a846126159190614467565b61261f91906143e0565b9050816001838361263091906144c1565b61263a91906143e0565b42334487601254604051602001612655959493929190613cfb565b6040516020818303038152906040528051906020012060001c61267891906146bc565b61268291906143e0565b8484600581106126955761269461477a565b5b602002018181525050505080806126ab9061461b565b9150506125ea565b508091505090565b600073ffffffffffffffffffffffffffffffffffffffff168373ffffffffffffffffffffffffffffffffffffffff16141561272b576040517f08c379a00000000000000000000000000000000000000000000000000000000081526004016127229061407f565b60405180910390fd5b6000612735611d91565b90506127658185600061274787612d5f565b61275087612d5f565b60405180602001604052806000815250612b70565b600080600085815260200190815260200160002060008673ffffffffffffffffffffffffffffffffffffffff1673ffffffffffffffffffffffffffffffffffffffff168152602001908152602001600020549050828110156127fc576040517f08c379a00000000000000000000000000000000000000000000000000000000081526004016127f390613f9f565b60405180910390fd5b82810360008086815260200190815260200160002060008773ffffffffffffffffffffffffffffffffffffffff1673ffffffffffffffffffffffffffffffffffffffff16815260200190815260200160002081905550600073ffffffffffffffffffffffffffffffffffffffff168573ffffffffffffffffffffffffffffffffffffffff168373ffffffffffffffffffffffffffffffffffffffff167fc3d58168c5ae7397731d063d5bbf3d657854427343f4c083240f7aacaa2d0f6287876040516128c992919061421a565b60405180910390a45050505050565b600081836128e691906143e0565b905092915050565b600073ffffffffffffffffffffffffffffffffffffffff168473ffffffffffffffffffffffffffffffffffffffff16141561295e576040517f08c379a00000000000000000000000000000000000000000000000000000000081526004016129559061401f565b60405180910390fd5b6000612968611d91565b905061298881878761297988612d5f565b61298288612d5f565b87612b70565b600080600086815260200190815260200160002060008873ffffffffffffffffffffffffffffffffffffffff1673ffffffffffffffffffffffffffffffffffffffff16815260200190815260200160002054905083811015612a1f576040517f08c379a0000000000000000000000000000000000000000000000000000000008152600401612a169061409f565b60405180910390fd5b83810360008087815260200190815260200160002060008973ffffffffffffffffffffffffffffffffffffffff1673ffffffffffffffffffffffffffffffffffffffff168152602001908152602001600020819055508360008087815260200190815260200160002060008873ffffffffffffffffffffffffffffffffffffffff1673ffffffffffffffffffffffffffffffffffffffff1681526020019081526020016000206000828254612ad491906143e0565b925050819055508573ffffffffffffffffffffffffffffffffffffffff168773ffffffffffffffffffffffffffffffffffffffff168373ffffffffffffffffffffffffffffffffffffffff167fc3d58168c5ae7397731d063d5bbf3d657854427343f4c083240f7aacaa2d0f628888604051612b5192919061421a565b60405180910390a4612b67828888888888612dd9565b50505050505050565b505050505050565b612b978473ffffffffffffffffffffffffffffffffffffffff16612fc0565b15612d57578373ffffffffffffffffffffffffffffffffffffffff1663bc197c8187878686866040518663ffffffff1660e01b8152600401612bdd959493929190613d75565b602060405180830381600087803b158015612bf757600080fd5b505af1925050508015612c2857506040513d601f19601f82011682018060405250810190612c25919061365e565b60015b612cce57612c346147d8565b806308c379a01415612c915750612c49614ec2565b80612c545750612c93565b806040517f08c379a0000000000000000000000000000000000000000000000000000000008152600401612c889190613efd565b60405180910390fd5b505b6040517f08c379a0000000000000000000000000000000000000000000000000000000008152600401612cc590613f1f565b60405180910390fd5b63bc197c8160e01b7bffffffffffffffffffffffffffffffffffffffffffffffffffffffff1916817bffffffffffffffffffffffffffffffffffffffffffffffffffffffff191614612d55576040517f08c379a0000000000000000000000000000000000000000000000000000000008152600401612d4c90613f3f565b60405180910390fd5b505b505050505050565b60606000600167ffffffffffffffff811115612d7e57612d7d6147a9565b5b604051908082528060200260200182016040528015612dac5781602001602082028036833780820191505090505b5090508281600081518110612dc457612dc361477a565b5b60200260200101818152505080915050919050565b612df88473ffffffffffffffffffffffffffffffffffffffff16612fc0565b15612fb8578373ffffffffffffffffffffffffffffffffffffffff1663f23a6e6187878686866040518663ffffffff1660e01b8152600401612e3e959493929190613ddd565b602060405180830381600087803b158015612e5857600080fd5b505af1925050508015612e8957506040513d601f19601f82011682018060405250810190612e86919061365e565b60015b612f2f57612e956147d8565b806308c379a01415612ef25750612eaa614ec2565b80612eb55750612ef4565b806040517f08c379a0000000000000000000000000000000000000000000000000000000008152600401612ee99190613efd565b60405180910390fd5b505b6040517f08c379a0000000000000000000000000000000000000000000000000000000008152600401612f2690613f1f565b60405180910390fd5b63f23a6e6160e01b7bffffffffffffffffffffffffffffffffffffffffffffffffffffffff1916817bffffffffffffffffffffffffffffffffffffffffffffffffffffffff191614612fb6576040517f08c379a0000000000000000000000000000000000000000000000000000000008152600401612fad90613f3f565b60405180910390fd5b505b505050505050565b600080823b905060008111915050919050565b828054612fdf906145b8565b90600052602060002090601f0160209004810192826130015760008555613048565b82601f1061301a57805160ff1916838001178555613048565b82800160010185558215613048579182015b8281111561304757825182559160200191906001019061302c565b5b509050613055919061307b565b5090565b6040518060a00160405280600590602082028036833780820191505090505090565b5b8082111561309457600081600090555060010161307c565b5090565b60006130ab6130a684614268565b614243565b905080838252602082019050828560208602820111156130ce576130cd6147ff565b5b60005b858110156130fe57816130e488826131fc565b8452602084019350602083019250506001810190506130d1565b5050509392505050565b600061311b61311684614294565b614243565b9050808382526020820190508285602086028201111561313e5761313d6147ff565b5b60005b8581101561316e57816131548882613308565b845260208401935060208301925050600181019050613141565b5050509392505050565b600061318b613186846142c0565b614243565b9050828152602081018484840111156131a7576131a6614804565b5b6131b2848285614576565b509392505050565b60006131cd6131c8846142f1565b614243565b9050828152602081018484840111156131e9576131e8614804565b5b6131f4848285614576565b509392505050565b60008135905061320b81614f58565b92915050565b600082601f830112613226576132256147fa565b5b8135613236848260208601613098565b91505092915050565b600082601f830112613254576132536147fa565b5b8135613264848260208601613108565b91505092915050565b60008135905061327c81614f6f565b92915050565b60008135905061329181614f86565b92915050565b6000815190506132a681614f86565b92915050565b600082601f8301126132c1576132c06147fa565b5b81356132d1848260208601613178565b91505092915050565b600082601f8301126132ef576132ee6147fa565b5b81356132ff8482602086016131ba565b91505092915050565b60008135905061331781614f9d565b92915050565b6000602082840312156133335761333261480e565b5b6000613341848285016131fc565b91505092915050565b600080604083850312156133615761336061480e565b5b600061336f858286016131fc565b9250506020613380858286016131fc565b9150509250929050565b600080600080600060a086880312156133a6576133a561480e565b5b60006133b4888289016131fc565b95505060206133c5888289016131fc565b945050604086013567ffffffffffffffff8111156133e6576133e5614809565b5b6133f28882890161323f565b935050606086013567ffffffffffffffff81111561341357613412614809565b5b61341f8882890161323f565b925050608086013567ffffffffffffffff8111156134405761343f614809565b5b61344c888289016132ac565b9150509295509295909350565b600080600080600060a086880312156134755761347461480e565b5b6000613483888289016131fc565b9550506020613494888289016131fc565b94505060406134a588828901613308565b93505060606134b688828901613308565b925050608086013567ffffffffffffffff8111156134d7576134d6614809565b5b6134e3888289016132ac565b9150509295509295909350565b600080604083850312156135075761350661480e565b5b6000613515858286016131fc565b92505060206135268582860161326d565b9150509250929050565b600080604083850312156135475761354661480e565b5b6000613555858286016131fc565b925050602061356685828601613308565b9150509250929050565b6000602082840312156135865761358561480e565b5b600082013567ffffffffffffffff8111156135a4576135a3614809565b5b6135b084828501613211565b91505092915050565b600080604083850312156135d0576135cf61480e565b5b600083013567ffffffffffffffff8111156135ee576135ed614809565b5b6135fa85828601613211565b925050602083013567ffffffffffffffff81111561361b5761361a614809565b5b6136278582860161323f565b9150509250929050565b6000602082840312156136475761364661480e565b5b600061365584828501613282565b91505092915050565b6000602082840312156136745761367361480e565b5b600061368284828501613297565b91505092915050565b6000602082840312156136a1576136a061480e565b5b60006136af84828501613308565b91505092915050565b600080604083850312156136cf576136ce61480e565b5b60006136dd85828601613308565b925050602083013567ffffffffffffffff8111156136fe576136fd614809565b5b61370a858286016132da565b9150509250929050565b60006137208383613c80565b60208301905092915050565b613735816144f5565b82525050565b61374c613747826144f5565b61468e565b82525050565b61375b81614351565b6137658184614397565b925061377082614322565b8060005b838110156137a15781516137888782613714565b96506137938361437d565b925050600181019050613774565b505050505050565b60006137b48261435c565b6137be81856143a2565b93506137c98361432c565b8060005b838110156137fa5781516137e18882613714565b97506137ec8361438a565b9250506001810190506137cd565b5085935050505092915050565b61381081614507565b82525050565b600061382182614367565b61382b81856143b3565b935061383b818560208601614585565b61384481614813565b840191505092915050565b600061385a82614372565b61386481856143c4565b9350613874818560208601614585565b61387d81614813565b840191505092915050565b600061389382614372565b61389d81856143d5565b93506138ad818560208601614585565b80840191505092915050565b600081546138c6816145b8565b6138d081866143d5565b945060018216600081146138eb57600181146138fc5761392f565b60ff1983168652818601935061392f565b6139058561433c565b60005b8381101561392757815481890152600182019150602081019050613908565b838801955050505b50505092915050565b60006139456034836143c4565b91506139508261483e565b604082019050919050565b60006139686028836143c4565b91506139738261488d565b604082019050919050565b600061398b602b836143c4565b9150613996826148dc565b604082019050919050565b60006139ae6026836143c4565b91506139b98261492b565b604082019050919050565b60006139d16024836143c4565b91506139dc8261497a565b604082019050919050565b60006139f46029836143c4565b91506139ff826149c9565b604082019050919050565b6000613a176018836143c4565b9150613a2282614a18565b602082019050919050565b6000613a3a602d836143c4565b9150613a4582614a41565b604082019050919050565b6000613a5d6025836143c4565b9150613a6882614a90565b604082019050919050565b6000613a806032836143c4565b9150613a8b82614adf565b604082019050919050565b6000613aa36014836143c4565b9150613aae82614b2e565b602082019050919050565b6000613ac66023836143c4565b9150613ad182614b57565b604082019050919050565b6000613ae9602a836143c4565b9150613af482614ba6565b604082019050919050565b6000613b0c6020836143c4565b9150613b1782614bf5565b602082019050919050565b6000613b2f6005836143d5565b9150613b3a82614c1e565b600582019050919050565b6000613b526020836143c4565b9150613b5d82614c47565b602082019050919050565b6000613b75602b836143c4565b9150613b8082614c70565b604082019050919050565b6000613b986023836143c4565b9150613ba382614cbf565b604082019050919050565b6000613bbb601f836143c4565b9150613bc682614d0e565b602082019050919050565b6000613bde602a836143c4565b9150613be982614d37565b604082019050919050565b6000613c016029836143c4565b9150613c0c82614d86565b604082019050919050565b6000613c246029836143c4565b9150613c2f82614dd5565b604082019050919050565b6000613c476028836143c4565b9150613c5282614e24565b604082019050919050565b6000613c6a6021836143c4565b9150613c7582614e73565b604082019050919050565b613c898161455f565b82525050565b613c988161455f565b82525050565b613caf613caa8261455f565b6146b2565b82525050565b6000613cc182846138b9565b915081905092915050565b6000613cd882856138b9565b9150613ce48284613888565b9150613cef82613b22565b91508190509392505050565b6000613d078288613c9e565b602082019150613d17828761373b565b601482019150613d278286613c9e565b602082019150613d378285613c9e565b602082019150613d478284613c9e565b6020820191508190509695505050505050565b6000602082019050613d6f600083018461372c565b92915050565b600060a082019050613d8a600083018861372c565b613d97602083018761372c565b8181036040830152613da981866137a9565b90508181036060830152613dbd81856137a9565b90508181036080830152613dd18184613816565b90509695505050505050565b600060a082019050613df2600083018861372c565b613dff602083018761372c565b613e0c6040830186613c8f565b613e196060830185613c8f565b8181036080830152613e2b8184613816565b90509695505050505050565b6000604082019050613e4c600083018561372c565b613e596020830184613c8f565b9392505050565b600060c082019050613e756000830185613752565b613e8260a083018461372c565b9392505050565b60006020820190508181036000830152613ea381846137a9565b905092915050565b60006040820190508181036000830152613ec581856137a9565b90508181036020830152613ed981846137a9565b90509392505050565b6000602082019050613ef76000830184613807565b92915050565b60006020820190508181036000830152613f17818461384f565b905092915050565b60006020820190508181036000830152613f3881613938565b9050919050565b60006020820190508181036000830152613f588161395b565b9050919050565b60006020820190508181036000830152613f788161397e565b9050919050565b60006020820190508181036000830152613f98816139a1565b9050919050565b60006020820190508181036000830152613fb8816139c4565b9050919050565b60006020820190508181036000830152613fd8816139e7565b9050919050565b60006020820190508181036000830152613ff881613a0a565b9050919050565b6000602082019050818103600083015261401881613a2d565b9050919050565b6000602082019050818103600083015261403881613a50565b9050919050565b6000602082019050818103600083015261405881613a73565b9050919050565b6000602082019050818103600083015261407881613a96565b9050919050565b6000602082019050818103600083015261409881613ab9565b9050919050565b600060208201905081810360008301526140b881613adc565b9050919050565b600060208201905081810360008301526140d881613aff565b9050919050565b600060208201905081810360008301526140f881613b45565b9050919050565b6000602082019050818103600083015261411881613b68565b9050919050565b6000602082019050818103600083015261413881613b8b565b9050919050565b6000602082019050818103600083015261415881613bae565b9050919050565b6000602082019050818103600083015261417881613bd1565b9050919050565b6000602082019050818103600083015261419881613bf4565b9050919050565b600060208201905081810360008301526141b881613c17565b9050919050565b600060208201905081810360008301526141d881613c3a565b9050919050565b600060208201905081810360008301526141f881613c5d565b9050919050565b60006020820190506142146000830184613c8f565b92915050565b600060408201905061422f6000830185613c8f565b61423c6020830184613c8f565b9392505050565b600061424d61425e565b905061425982826145ea565b919050565b6000604051905090565b600067ffffffffffffffff821115614283576142826147a9565b5b602082029050602081019050919050565b600067ffffffffffffffff8211156142af576142ae6147a9565b5b602082029050602081019050919050565b600067ffffffffffffffff8211156142db576142da6147a9565b5b6142e482614813565b9050602081019050919050565b600067ffffffffffffffff82111561430c5761430b6147a9565b5b61431582614813565b9050602081019050919050565b6000819050919050565b6000819050602082019050919050565b60008190508160005260206000209050919050565b600060059050919050565b600081519050919050565b600081519050919050565b600081519050919050565b6000602082019050919050565b6000602082019050919050565b600081905092915050565b600082825260208201905092915050565b600082825260208201905092915050565b600082825260208201905092915050565b600081905092915050565b60006143eb8261455f565b91506143f68361455f565b9250827fffffffffffffffffffffffffffffffffffffffffffffffffffffffffffffffff0382111561442b5761442a6146ed565b5b828201905092915050565b60006144418261455f565b915061444c8361455f565b92508261445c5761445b61471c565b5b828204905092915050565b60006144728261455f565b915061447d8361455f565b9250817fffffffffffffffffffffffffffffffffffffffffffffffffffffffffffffffff04831182151516156144b6576144b56146ed565b5b828202905092915050565b60006144cc8261455f565b91506144d78361455f565b9250828210156144ea576144e96146ed565b5b828203905092915050565b60006145008261453f565b9050919050565b60008115159050919050565b60007fffffffff0000000000000000000000000000000000000000000000000000000082169050919050565b600073ffffffffffffffffffffffffffffffffffffffff82169050919050565b6000819050919050565b600060ff82169050919050565b82818337600083830152505050565b60005b838110156145a3578082015181840152602081019050614588565b838111156145b2576000848401525b50505050565b600060028204905060018216806145d057607f821691505b602082108114156145e4576145e361474b565b5b50919050565b6145f382614813565b810181811067ffffffffffffffff82111715614612576146116147a9565b5b80604052505050565b60006146268261455f565b91507fffffffffffffffffffffffffffffffffffffffffffffffffffffffffffffffff821415614659576146586146ed565b5b600182019050919050565b600061466f82614569565b915060ff821415614683576146826146ed565b5b600182019050919050565b6000614699826146a0565b9050919050565b60006146ab82614824565b9050919050565b6000819050919050565b60006146c78261455f565b91506146d28361455f565b9250826146e2576146e161471c565b5b828206905092915050565b7f4e487b7100000000000000000000000000000000000000000000000000000000600052601160045260246000fd5b7f4e487b7100000000000000000000000000000000000000000000000000000000600052601260045260246000fd5b7f4e487b7100000000000000000000000000000000000000000000000000000000600052602260045260246000fd5b7f4e487b7100000000000000000000000000000000000000000000000000000000600052603260045260246000fd5b7f4e487b7100000000000000000000000000000000000000000000000000000000600052604160045260246000fd5b600060033d11156147f75760046000803e6147f4600051614831565b90505b90565b600080fd5b600080fd5b600080fd5b600080fd5b600080fd5b6000601f19601f8301169050919050565b60008160601b9050919050565b60008160e01c9050919050565b7f455243313135353a207472616e7366657220746f206e6f6e204552433131353560008201527f526563656976657220696d706c656d656e746572000000000000000000000000602082015250565b7f455243313135353a204552433131353552656365697665722072656a6563746560008201527f6420746f6b656e73000000000000000000000000000000000000000000000000602082015250565b7f455243313135353a2062616c616e636520717565727920666f7220746865207a60008201527f65726f2061646472657373000000000000000000000000000000000000000000602082015250565b7f4f776e61626c653a206e6577206f776e657220697320746865207a65726f206160008201527f6464726573730000000000000000000000000000000000000000000000000000602082015250565b7f455243313135353a206275726e20616d6f756e7420657863656564732062616c60008201527f616e636500000000000000000000000000000000000000000000000000000000602082015250565b7f455243313135353a2063616c6c6572206973206e6f74206f776e6572206e6f7260008201527f20617070726f7665640000000000000000000000000000000000000000000000602082015250565b7f55736572206973206e6f742077686974656c69737465642e0000000000000000600082015250565b7f416c6c206f662074686973206174686c657465206861766520616c726561647960008201527f206265656e206d696e7465642100000000000000000000000000000000000000602082015250565b7f455243313135353a207472616e7366657220746f20746865207a65726f20616460008201527f6472657373000000000000000000000000000000000000000000000000000000602082015250565b7f455243313135353a207472616e736665722063616c6c6572206973206e6f742060008201527f6f776e6572206e6f7220617070726f7665640000000000000000000000000000602082015250565b7f43616e6e6f742073657420757269207477696365000000000000000000000000600082015250565b7f455243313135353a206275726e2066726f6d20746865207a65726f206164647260008201527f6573730000000000000000000000000000000000000000000000000000000000602082015250565b7f455243313135353a20696e73756666696369656e742062616c616e636520666f60008201527f72207472616e7366657200000000000000000000000000000000000000000000602082015250565b7f596f752063616e6e6f74206275726e206d6f7265207468616e2031207061636b600082015250565b7f2e6a736f6e000000000000000000000000000000000000000000000000000000600082015250565b7f4f776e61626c653a2063616c6c6572206973206e6f7420746865206f776e6572600082015250565b7f53746172746572207061636b20646f6573206e6f7420657869737420696e207560008201527f736572732077616c6c6574000000000000000000000000000000000000000000602082015250565b7f416c6c207061636b73206861766520616c7265616479206265656e206d696e7460008201527f6564210000000000000000000000000000000000000000000000000000000000602082015250565b7f5061636b73206172656e277420726561647920746f206f70656e207965742100600082015250565b7f43616e206f6e6c79206d696e74206f6e652073746172746572207061636b207060008201527f6572206163636f756e7400000000000000000000000000000000000000000000602082015250565b7f455243313135353a2073657474696e6720617070726f76616c2073746174757360008201527f20666f722073656c660000000000000000000000000000000000000000000000602082015250565b7f455243313135353a206163636f756e747320616e6420696473206c656e67746860008201527f206d69736d617463680000000000000000000000000000000000000000000000602082015250565b7f455243313135353a2069647320616e6420616d6f756e7473206c656e6774682060008201527f6d69736d61746368000000000000000000000000000000000000000000000000602082015250565b7f455243313135353a206d696e7420746f20746865207a65726f2061646472657360008201527f7300000000000000000000000000000000000000000000000000000000000000602082015250565b600060443d1015614ed257614f55565b614eda61425e565b60043d036004823e80513d602482011167ffffffffffffffff82111715614f02575050614f55565b808201805167ffffffffffffffff811115614f205750505050614f55565b80602083010160043d038501811115614f3d575050505050614f55565b614f4c826020018501866145ea565b82955050505050505b90565b614f61816144f5565b8114614f6c57600080fd5b50565b614f7881614507565b8114614f8357600080fd5b50565b614f8f81614513565b8114614f9a57600080fd5b50565b614fa68161455f565b8114614fb157600080fd5b5056fea2646970667358221220356b8acb894869522155bbb41d1e67a10af69069a0b392fa48b17c31455871ac64736f6c63430008070033",
  "linkReferences": {},
  "deployedLinkReferences": {}
}