{
  "_format": "hh-sol-artifact-1",
  "contractName": "GameItems",
  "sourceName": "contracts/GameItems.sol",
  "abi": [
    {
      "inputs": [
        {
          "components": [
            {
              "internalType": "uint256",
              "name": "_numAthletes",
              "type": "uint256"
            },
            {
              "internalType": "uint256",
              "name": "_nftPerAthlete",
              "type": "uint256"
            },
            {
              "internalType": "uint256",
              "name": "_starterPackSize",
              "type": "uint256"
            },
            {
              "internalType": "uint256",
              "name": "_boosterPackSize",
              "type": "uint256"
            },
            {
              "internalType": "uint256",
              "name": "_maxStarterPackBalance",
              "type": "uint256"
            },
            {
              "internalType": "uint256",
              "name": "_maxBoosterPackBalance",
              "type": "uint256"
            },
            {
              "internalType": "uint256",
              "name": "_maxPacks",
              "type": "uint256"
            },
            {
              "internalType": "uint256",
              "name": "_revealTimestamp",
              "type": "uint256"
            }
          ],
          "internalType": "struct GameItems.Parameters",
          "name": "params",
          "type": "tuple"
        },
        {
          "internalType": "string",
          "name": "_athleteURI",
          "type": "string"
        },
        {
          "internalType": "string",
          "name": "_starterPackURI",
          "type": "string"
        },
        {
          "internalType": "string",
          "name": "_boosterPackURI",
          "type": "string"
        }
      ],
      "stateMutability": "nonpayable",
      "type": "constructor"
    },
    {
      "anonymous": false,
      "inputs": [
        {
          "indexed": true,
          "internalType": "address",
          "name": "account",
          "type": "address"
        },
        {
          "indexed": true,
          "internalType": "address",
          "name": "operator",
          "type": "address"
        },
        {
          "indexed": false,
          "internalType": "bool",
          "name": "approved",
          "type": "bool"
        }
      ],
      "name": "ApprovalForAll",
      "type": "event"
    },
    {
      "anonymous": false,
      "inputs": [
        {
          "indexed": true,
          "internalType": "address",
          "name": "previousOwner",
          "type": "address"
        },
        {
          "indexed": true,
          "internalType": "address",
          "name": "newOwner",
          "type": "address"
        }
      ],
      "name": "OwnershipTransferred",
      "type": "event"
    },
    {
      "anonymous": false,
      "inputs": [
        {
          "indexed": true,
          "internalType": "address",
          "name": "operator",
          "type": "address"
        },
        {
          "indexed": true,
          "internalType": "address",
          "name": "from",
          "type": "address"
        },
        {
          "indexed": true,
          "internalType": "address",
          "name": "to",
          "type": "address"
        },
        {
          "indexed": false,
          "internalType": "uint256[]",
          "name": "ids",
          "type": "uint256[]"
        },
        {
          "indexed": false,
          "internalType": "uint256[]",
          "name": "values",
          "type": "uint256[]"
        }
      ],
      "name": "TransferBatch",
      "type": "event"
    },
    {
      "anonymous": false,
      "inputs": [
        {
          "indexed": true,
          "internalType": "address",
          "name": "operator",
          "type": "address"
        },
        {
          "indexed": true,
          "internalType": "address",
          "name": "from",
          "type": "address"
        },
        {
          "indexed": true,
          "internalType": "address",
          "name": "to",
          "type": "address"
        },
        {
          "indexed": false,
          "internalType": "uint256",
          "name": "id",
          "type": "uint256"
        },
        {
          "indexed": false,
          "internalType": "uint256",
          "name": "value",
          "type": "uint256"
        }
      ],
      "name": "TransferSingle",
      "type": "event"
    },
    {
      "anonymous": false,
      "inputs": [
        {
          "indexed": false,
          "internalType": "string",
          "name": "value",
          "type": "string"
        },
        {
          "indexed": true,
          "internalType": "uint256",
          "name": "id",
          "type": "uint256"
        }
      ],
      "name": "URI",
      "type": "event"
    },
    {
      "anonymous": false,
      "inputs": [
        {
          "indexed": false,
          "internalType": "uint256[5]",
          "name": "",
          "type": "uint256[5]"
        },
        {
          "indexed": false,
          "internalType": "address",
          "name": "signer",
          "type": "address"
        }
      ],
      "name": "packBurned",
      "type": "event"
    },
    {
      "anonymous": false,
      "inputs": [
        {
          "indexed": false,
          "internalType": "address",
          "name": "signer",
          "type": "address"
        },
        {
          "indexed": false,
          "internalType": "uint256",
          "name": "id",
          "type": "uint256"
        }
      ],
      "name": "packMinted",
      "type": "event"
    },
    {
      "inputs": [],
      "name": "REVEAL_TIMESTAMP",
      "outputs": [
        {
          "internalType": "uint256",
          "name": "",
          "type": "uint256"
        }
      ],
      "stateMutability": "view",
      "type": "function"
    },
    {
      "inputs": [
        {
          "internalType": "address",
          "name": "_userToAdd",
          "type": "address"
        }
      ],
      "name": "addUserToWhitelist",
      "outputs": [
        {
          "internalType": "bool",
          "name": "success",
          "type": "bool"
        }
      ],
      "stateMutability": "nonpayable",
      "type": "function"
    },
    {
      "inputs": [
        {
          "internalType": "address[]",
          "name": "addrs",
          "type": "address[]"
        }
      ],
      "name": "addUsersToWhitelist",
      "outputs": [
        {
          "internalType": "bool",
          "name": "success",
          "type": "bool"
        }
      ],
      "stateMutability": "nonpayable",
      "type": "function"
    },
    {
      "inputs": [],
      "name": "allowBoosterPacks",
      "outputs": [],
      "stateMutability": "nonpayable",
      "type": "function"
    },
    {
      "inputs": [
        {
          "internalType": "address",
          "name": "account",
          "type": "address"
        },
        {
          "internalType": "uint256",
          "name": "id",
          "type": "uint256"
        }
      ],
      "name": "balanceOf",
      "outputs": [
        {
          "internalType": "uint256",
          "name": "",
          "type": "uint256"
        }
      ],
      "stateMutability": "view",
      "type": "function"
    },
    {
      "inputs": [
        {
          "internalType": "address[]",
          "name": "accounts",
          "type": "address[]"
        },
        {
          "internalType": "uint256[]",
          "name": "ids",
          "type": "uint256[]"
        }
      ],
      "name": "balanceOfBatch",
      "outputs": [
        {
          "internalType": "uint256[]",
          "name": "",
          "type": "uint256[]"
        }
      ],
      "stateMutability": "view",
      "type": "function"
    },
    {
      "inputs": [],
      "name": "boosterPacksReadyToOpen",
      "outputs": [
        {
          "internalType": "bool",
          "name": "",
          "type": "bool"
        }
      ],
      "stateMutability": "view",
      "type": "function"
    },
    {
      "inputs": [],
      "name": "burnBoosterPack",
      "outputs": [],
      "stateMutability": "nonpayable",
      "type": "function"
    },
    {
      "inputs": [],
      "name": "burnStarterPack",
      "outputs": [],
      "stateMutability": "nonpayable",
      "type": "function"
    },
    {
      "inputs": [],
      "name": "getNFTPerAthlete",
      "outputs": [
        {
          "internalType": "uint256",
          "name": "",
          "type": "uint256"
        }
      ],
      "stateMutability": "view",
      "type": "function"
    },
    {
      "inputs": [],
      "name": "getNumWhitelisted",
      "outputs": [
        {
          "internalType": "uint256",
          "name": "",
          "type": "uint256"
        }
      ],
      "stateMutability": "view",
      "type": "function"
    },
    {
      "inputs": [
        {
          "internalType": "address",
          "name": "account",
          "type": "address"
        },
        {
          "internalType": "address",
          "name": "operator",
          "type": "address"
        }
      ],
      "name": "isApprovedForAll",
      "outputs": [
        {
          "internalType": "bool",
          "name": "",
          "type": "bool"
        }
      ],
      "stateMutability": "view",
      "type": "function"
    },
    {
      "inputs": [],
      "name": "mintBoosterPack",
      "outputs": [],
      "stateMutability": "nonpayable",
      "type": "function"
    },
    {
      "inputs": [],
      "name": "mintStarterPack",
      "outputs": [],
      "stateMutability": "nonpayable",
      "type": "function"
    },
    {
      "inputs": [],
      "name": "name",
      "outputs": [
        {
          "internalType": "string",
          "name": "",
          "type": "string"
        }
      ],
      "stateMutability": "view",
      "type": "function"
    },
    {
      "inputs": [],
      "name": "numWhitelisted",
      "outputs": [
        {
          "internalType": "uint256",
          "name": "",
          "type": "uint256"
        }
      ],
      "stateMutability": "view",
      "type": "function"
    },
    {
      "inputs": [],
      "name": "openPrivateSale",
      "outputs": [],
      "stateMutability": "nonpayable",
      "type": "function"
    },
    {
      "inputs": [],
      "name": "openPublicSale",
      "outputs": [],
      "stateMutability": "nonpayable",
      "type": "function"
    },
    {
      "inputs": [],
      "name": "owner",
      "outputs": [
        {
          "internalType": "address",
          "name": "",
          "type": "address"
        }
      ],
      "stateMutability": "view",
      "type": "function"
    },
    {
      "inputs": [],
      "name": "packsAvailable",
      "outputs": [
        {
          "internalType": "uint256",
          "name": "",
          "type": "uint256"
        }
      ],
      "stateMutability": "view",
      "type": "function"
    },
    {
      "inputs": [],
      "name": "packsReadyToOpen",
      "outputs": [
        {
          "internalType": "bool",
          "name": "",
          "type": "bool"
        }
      ],
      "stateMutability": "view",
      "type": "function"
    },
    {
      "inputs": [
        {
          "internalType": "address",
          "name": "_userToRemove",
          "type": "address"
        }
      ],
      "name": "removeUserFromWhitelist",
      "outputs": [
        {
          "internalType": "bool",
          "name": "success",
          "type": "bool"
        }
      ],
      "stateMutability": "nonpayable",
      "type": "function"
    },
    {
      "inputs": [
        {
          "internalType": "address[]",
          "name": "addrs",
          "type": "address[]"
        }
      ],
      "name": "removeUsersFromWhitelist",
      "outputs": [
        {
          "internalType": "bool",
          "name": "success",
          "type": "bool"
        }
      ],
      "stateMutability": "nonpayable",
      "type": "function"
    },
    {
      "inputs": [],
      "name": "renounceOwnership",
      "outputs": [],
      "stateMutability": "nonpayable",
      "type": "function"
    },
    {
      "inputs": [
        {
          "internalType": "address",
          "name": "from",
          "type": "address"
        },
        {
          "internalType": "address",
          "name": "to",
          "type": "address"
        },
        {
          "internalType": "uint256[]",
          "name": "ids",
          "type": "uint256[]"
        },
        {
          "internalType": "uint256[]",
          "name": "amounts",
          "type": "uint256[]"
        },
        {
          "internalType": "bytes",
          "name": "data",
          "type": "bytes"
        }
      ],
      "name": "safeBatchTransferFrom",
      "outputs": [],
      "stateMutability": "nonpayable",
      "type": "function"
    },
    {
      "inputs": [
        {
          "internalType": "address",
          "name": "from",
          "type": "address"
        },
        {
          "internalType": "address",
          "name": "to",
          "type": "address"
        },
        {
          "internalType": "uint256",
          "name": "id",
          "type": "uint256"
        },
        {
          "internalType": "uint256",
          "name": "amount",
          "type": "uint256"
        },
        {
          "internalType": "bytes",
          "name": "data",
          "type": "bytes"
        }
      ],
      "name": "safeTransferFrom",
      "outputs": [],
      "stateMutability": "nonpayable",
      "type": "function"
    },
    {
      "inputs": [
        {
          "internalType": "address",
          "name": "operator",
          "type": "address"
        },
        {
          "internalType": "bool",
          "name": "approved",
          "type": "bool"
        }
      ],
      "name": "setApprovalForAll",
      "outputs": [],
      "stateMutability": "nonpayable",
      "type": "function"
    },
    {
      "inputs": [],
      "name": "setPacksReady",
      "outputs": [],
      "stateMutability": "nonpayable",
      "type": "function"
    },
    {
      "inputs": [],
      "name": "setStartingIndex",
      "outputs": [],
      "stateMutability": "nonpayable",
      "type": "function"
    },
    {
      "inputs": [
        {
          "internalType": "uint256",
          "name": "tokenId",
          "type": "uint256"
        },
        {
          "internalType": "string",
          "name": "uri",
          "type": "string"
        }
      ],
      "name": "setTokenUri",
      "outputs": [],
      "stateMutability": "nonpayable",
      "type": "function"
    },
    {
      "inputs": [],
      "name": "setURIs",
      "outputs": [],
      "stateMutability": "nonpayable",
      "type": "function"
    },
    {
      "inputs": [
        {
          "internalType": "bytes4",
          "name": "interfaceId",
          "type": "bytes4"
        }
      ],
      "name": "supportsInterface",
      "outputs": [
        {
          "internalType": "bool",
          "name": "",
          "type": "bool"
        }
      ],
      "stateMutability": "view",
      "type": "function"
    },
    {
      "inputs": [
        {
          "internalType": "address",
          "name": "newOwner",
          "type": "address"
        }
      ],
      "name": "transferOwnership",
      "outputs": [],
      "stateMutability": "nonpayable",
      "type": "function"
    },
    {
      "inputs": [
        {
          "internalType": "uint256",
          "name": "tokenId",
          "type": "uint256"
        }
      ],
      "name": "uri",
      "outputs": [
        {
          "internalType": "string",
          "name": "",
          "type": "string"
        }
      ],
      "stateMutability": "view",
      "type": "function"
    },
    {
      "inputs": [
        {
          "internalType": "address",
          "name": "",
          "type": "address"
        }
      ],
      "name": "userToHasBurnedStarterPack",
      "outputs": [
        {
          "internalType": "bool",
          "name": "",
          "type": "bool"
        }
      ],
      "stateMutability": "view",
      "type": "function"
    },
    {
      "inputs": [
        {
          "internalType": "address",
          "name": "",
          "type": "address"
        }
      ],
      "name": "userToHasMintedStarterPack",
      "outputs": [
        {
          "internalType": "bool",
          "name": "",
          "type": "bool"
        }
      ],
      "stateMutability": "view",
      "type": "function"
    },
    {
      "inputs": [
        {
          "internalType": "address",
          "name": "",
          "type": "address"
        }
      ],
      "name": "usersBoosterPacksMinted",
      "outputs": [
        {
          "internalType": "uint256",
          "name": "",
          "type": "uint256"
        }
      ],
      "stateMutability": "view",
      "type": "function"
    },
    {
      "inputs": [
        {
          "internalType": "address",
          "name": "",
          "type": "address"
        }
      ],
      "name": "whitelist",
      "outputs": [
        {
          "internalType": "bool",
          "name": "",
          "type": "bool"
        }
      ],
      "stateMutability": "view",
      "type": "function"
    }
  ],
  "bytecode": "0x60806040526127106010556040518060400160405280600881526020017f5465616d446966660000000000000000000000000000000000000000000000008152506011908051906020019062000057929190620002c4565b5060405180602001604052806000815250601890805190602001906200007f929190620002c4565b503480156200008d57600080fd5b5060405162006007380380620060078339818101604052810190620000b39190620004e8565b6040518060400160405280600281526020017f5444000000000000000000000000000000000000000000000000000000000000815250620000fa81620001da60201b60201c565b506200011b6200010f620001f660201b60201c565b620001fe60201b60201c565b8360000151600d819055508360200151600e819055508360400151600781905550836060015160088190555083608001516009819055508360a00151600a819055508360c00151600b819055506101f4600c81905550826004908051906020019062000189929190620002c4565b508160059080519060200190620001a2929190620002c4565b508060069080519060200190620001bb929190620002c4565b508360e00151601081905550600b546021819055505050505062000768565b8060029080519060200190620001f2929190620002c4565b5050565b600033905090565b6000600360009054906101000a900473ffffffffffffffffffffffffffffffffffffffff16905081600360006101000a81548173ffffffffffffffffffffffffffffffffffffffff021916908373ffffffffffffffffffffffffffffffffffffffff1602179055508173ffffffffffffffffffffffffffffffffffffffff168173ffffffffffffffffffffffffffffffffffffffff167f8be0079c531659141344cd1fd0a4f28419497f9722a3daafe3b4186f6b6457e060405160405180910390a35050565b828054620002d2906200065a565b90600052602060002090601f016020900481019282620002f6576000855562000342565b82601f106200031157805160ff191683800117855562000342565b8280016001018555821562000342579182015b828111156200034157825182559160200191906001019062000324565b5b50905062000351919062000355565b5090565b5b808211156200037057600081600090555060010162000356565b5090565b60006200038b6200038584620005e4565b620005bb565b905082815260208101848484011115620003aa57620003a96200072e565b5b620003b784828562000624565b509392505050565b600082601f830112620003d757620003d662000724565b5b8151620003e984826020860162000374565b91505092915050565b600061010082840312156200040c576200040b62000729565b5b62000419610100620005bb565b905060006200042b84828501620004d1565b60008301525060206200044184828501620004d1565b60208301525060406200045784828501620004d1565b60408301525060606200046d84828501620004d1565b60608301525060806200048384828501620004d1565b60808301525060a06200049984828501620004d1565b60a08301525060c0620004af84828501620004d1565b60c08301525060e0620004c584828501620004d1565b60e08301525092915050565b600081519050620004e2816200074e565b92915050565b600080600080610160858703121562000506576200050562000738565b5b60006200051687828801620003f2565b94505061010085015167ffffffffffffffff8111156200053b576200053a62000733565b5b6200054987828801620003bf565b93505061012085015167ffffffffffffffff8111156200056e576200056d62000733565b5b6200057c87828801620003bf565b92505061014085015167ffffffffffffffff811115620005a157620005a062000733565b5b620005af87828801620003bf565b91505092959194509250565b6000620005c7620005da565b9050620005d5828262000690565b919050565b6000604051905090565b600067ffffffffffffffff821115620006025762000601620006f5565b5b6200060d826200073d565b9050602081019050919050565b6000819050919050565b60005b838110156200064457808201518184015260208101905062000627565b8381111562000654576000848401525b50505050565b600060028204905060018216806200067357607f821691505b602082108114156200068a5762000689620006c6565b5b50919050565b6200069b826200073d565b810181811067ffffffffffffffff82111715620006bd57620006bc620006f5565b5b80604052505050565b7f4e487b7100000000000000000000000000000000000000000000000000000000600052602260045260246000fd5b7f4e487b7100000000000000000000000000000000000000000000000000000000600052604160045260246000fd5b600080fd5b600080fd5b600080fd5b600080fd5b600080fd5b6000601f19601f8301169050919050565b62000759816200061a565b81146200076557600080fd5b50565b61588f80620007786000396000f3fe608060405234801561001057600080fd5b50600436106102315760003560e01c80638d21c77011610130578063bbb13e17116100b8578063e985e9c51161007c578063e985e9c51461060c578063e98665501461063c578063f242432a14610646578063f2fde38b14610662578063f9902bb11461067e57610231565b8063bbb13e1714610566578063be59ec2614610570578063cb6bfdb91461058e578063d759000b146105be578063e2bd21bc146105dc57610231565b8063a22cb465116100ff578063a22cb465146104e8578063a6ad4c0114610504578063a788f4f41461050e578063ac4c07d41461052c578063b585209b1461055c57610231565b80638d21c770146104605780638da5cb5b146104905780639b19251a146104ae5780639ebf488b146104de57610231565b806344eaa84e116101be5780635ae698ff116101825780635ae698ff146103e25780635d2db2bf14610412578063715018a61461041c578063747b80501461042657806375223f921461045657610231565b806344eaa84e146103505780634e1273f41461036e5780634f3551d71461039e57806354dacb96146103a857806357f7789e146103c657610231565b8063143cc14411610205578063143cc144146102e457806318e20a381461030257806319b60439146103205780632eb2c2d61461032a5780634190a9221461034657610231565b8062fdd58e1461023657806301ffc9a71461026657806306fdde03146102965780630e89341c146102b4575b600080fd5b610250600480360381019061024b9190613b47565b6106ae565b60405161025d9190614965565b60405180910390f35b610280600480360381019061027b9190613c48565b610777565b60405161028d91906145a8565b60405180910390f35b61029e610859565b6040516102ab91906145c3565b60405180910390f35b6102ce60048036038101906102c99190613ca2565b6108e7565b6040516102db91906145c3565b60405180910390f35b6102ec61098c565b6040516102f99190614965565b60405180910390f35b61030a610996565b6040516103179190614965565b60405180910390f35b61032861099c565b005b610344600480360381019061033f91906139a1565b610a44565b005b61034e610ae5565b005b610358610b7e565b6040516103659190614965565b60405180910390f35b61038860048036038101906103839190613bd0565b610b88565b604051610395919061454f565b60405180910390f35b6103a6610ca1565b005b6103b0610e94565b6040516103bd9190614965565b60405180910390f35b6103e060048036038101906103db9190613ccf565b610e9a565b005b6103fc60048036038101906103f79190613b87565b610fa4565b60405161040991906145a8565b60405180910390f35b61041a611074565b005b6104246111cb565b005b610440600480360381019061043b9190613934565b611253565b60405161044d91906145a8565b60405180910390f35b61045e61139e565b005b61047a60048036038101906104759190613b87565b6114ae565b60405161048791906145a8565b60405180910390f35b61049861157e565b6040516104a59190614420565b60405180910390f35b6104c860048036038101906104c39190613934565b6115a8565b6040516104d591906145a8565b60405180910390f35b6104e66115c8565b005b61050260048036038101906104fd9190613b07565b6118cf565b005b61050c6118e5565b005b61051661197e565b60405161052391906145a8565b60405180910390f35b61054660048036038101906105419190613934565b611991565b6040516105539190614965565b60405180910390f35b6105646119a9565b005b61056e611a42565b005b610578611c64565b60405161058591906145a8565b60405180910390f35b6105a860048036038101906105a39190613934565b611c77565b6040516105b591906145a8565b60405180910390f35b6105c6611c97565b6040516105d39190614965565b60405180910390f35b6105f660048036038101906105f19190613934565b611c9d565b60405161060391906145a8565b60405180910390f35b61062660048036038101906106219190613961565b611cbd565b60405161063391906145a8565b60405180910390f35b610644611d51565b005b610660600480360381019061065b9190613a70565b611e28565b005b61067c60048036038101906106779190613934565b611ec9565b005b61069860048036038101906106939190613934565b611fc1565b6040516106a591906145a8565b60405180910390f35b60008073ffffffffffffffffffffffffffffffffffffffff168373ffffffffffffffffffffffffffffffffffffffff16141561071f576040517f08c379a000000000000000000000000000000000000000000000000000000000815260040161071690614645565b60405180910390fd5b60008083815260200190815260200160002060008473ffffffffffffffffffffffffffffffffffffffff1673ffffffffffffffffffffffffffffffffffffffff16815260200190815260200160002054905092915050565b60007fd9b67a26000000000000000000000000000000000000000000000000000000007bffffffffffffffffffffffffffffffffffffffffffffffffffffffff1916827bffffffffffffffffffffffffffffffffffffffffffffffffffffffff1916148061084257507f0e89341c000000000000000000000000000000000000000000000000000000007bffffffffffffffffffffffffffffffffffffffffffffffffffffffff1916827bffffffffffffffffffffffffffffffffffffffffffffffffffffffff1916145b8061085257506108518261210d565b5b9050919050565b6011805461086690614d1e565b80601f016020809104026020016040519081016040528092919081815260200182805461089290614d1e565b80156108df5780601f106108b4576101008083540402835291602001916108df565b820191906000526020600020905b8154815290600101906020018083116108c257829003601f168201915b505050505081565b606060256000838152602001908152602001600020805461090790614d1e565b80601f016020809104026020016040519081016040528092919081815260200182805461093390614d1e565b80156109805780601f1061095557610100808354040283529160200191610980565b820191906000526020600020905b81548152906001019060200180831161096357829003601f168201915b50505050509050919050565b6000600e54905090565b60105481565b6109a4612177565b73ffffffffffffffffffffffffffffffffffffffff166109c261157e565b73ffffffffffffffffffffffffffffffffffffffff1614610a18576040517f08c379a0000000000000000000000000000000000000000000000000000000008152600401610a0f90614805565b60405180910390fd5b601260009054906101000a900460ff1615601260006101000a81548160ff021916908315150217905550565b610a4c612177565b73ffffffffffffffffffffffffffffffffffffffff168573ffffffffffffffffffffffffffffffffffffffff161480610a925750610a9185610a8c612177565b611cbd565b5b610ad1576040517f08c379a0000000000000000000000000000000000000000000000000000000008152600401610ac890614745565b60405180910390fd5b610ade858585858561217f565b5050505050565b610aed612177565b73ffffffffffffffffffffffffffffffffffffffff16610b0b61157e565b73ffffffffffffffffffffffffffffffffffffffff1614610b61576040517f08c379a0000000000000000000000000000000000000000000000000000000008152600401610b5890614805565b60405180910390fd5b6001601260016101000a81548160ff021916908315150217905550565b6000602354905090565b60608151835114610bce576040517f08c379a0000000000000000000000000000000000000000000000000000000008152600401610bc5906148e5565b60405180910390fd5b6000835167ffffffffffffffff811115610beb57610bea614f0f565b5b604051908082528060200260200182016040528015610c195781602001602082028036833780820191505090505b50905060005b8451811015610c9657610c66858281518110610c3e57610c3d614ee0565b5b6020026020010151858381518110610c5957610c58614ee0565b5b60200260200101516106ae565b828281518110610c7957610c78614ee0565b5b60200260200101818152505080610c8f90614d81565b9050610c1f565b508091505092915050565b601260019054906101000a900460ff16610cf0576040517f08c379a0000000000000000000000000000000000000000000000000000000008152600401610ce7906147a5565b60405180910390fd5b600c5460145410610d36576040517f08c379a0000000000000000000000000000000000000000000000000000000008152600401610d2d90614705565b60405180910390fd5b6002602960003373ffffffffffffffffffffffffffffffffffffffff1673ffffffffffffffffffffffffffffffffffffffff1681526020019081526020016000205410610db8576040517f08c379a0000000000000000000000000000000000000000000000000000000008152600401610daf90614865565b60405180910390fd5b602960003373ffffffffffffffffffffffffffffffffffffffff1673ffffffffffffffffffffffffffffffffffffffff1681526020019081526020016000206000815480929190610e0890614d81565b919050555060006001600d54610e1e9190614b46565b9050610e3c3382600160405180602001604052806000815250612493565b600160146000828254610e4f9190614b46565b925050819055507f2e0f4d63dcc00e6a11c8aef9f6e15c1f9cd6e9a090b2dd99c7b797f1a28d300d33601454604051610e899291906144fd565b60405180910390a150565b60235481565b610ea2612177565b73ffffffffffffffffffffffffffffffffffffffff16610ec061157e565b73ffffffffffffffffffffffffffffffffffffffff1614610f16576040517f08c379a0000000000000000000000000000000000000000000000000000000008152600401610f0d90614805565b60405180910390fd5b6000602560008481526020019081526020016000208054610f3690614d1e565b905014610f78576040517f08c379a0000000000000000000000000000000000000000000000000000000008152600401610f6f90614765565b60405180910390fd5b80602560008481526020019081526020016000209080519060200190610f9f9291906135c8565b505050565b6000610fae612177565b73ffffffffffffffffffffffffffffffffffffffff16610fcc61157e565b73ffffffffffffffffffffffffffffffffffffffff1614611022576040517f08c379a000000000000000000000000000000000000000000000000000000000815260040161101990614805565b60405180910390fd5b60005b825181101561106e5761105183828151811061104457611043614ee0565b5b6020026020010151611253565b1561105b57600191505b808061106690614d81565b915050611025565b50919050565b61107c612177565b73ffffffffffffffffffffffffffffffffffffffff1661109a61157e565b73ffffffffffffffffffffffffffffffffffffffff16146110f0576040517f08c379a00000000000000000000000000000000000000000000000000000000081526004016110e790614805565b60405180910390fd5b60005b600d54811015611164576000600d54826017546111109190614b46565b61111a9190614e22565b905061115081600461112b84612629565b60405160200161113c929190614392565b604051602081830303815290604052610e9a565b50808061115c90614d81565b9150506110f3565b50611191600d54600560405160200161117d919061437b565b604051602081830303815290604052610e9a565b6111c96001600d546111a39190614b46565b60066040516020016111b5919061437b565b604051602081830303815290604052610e9a565b565b6111d3612177565b73ffffffffffffffffffffffffffffffffffffffff166111f161157e565b73ffffffffffffffffffffffffffffffffffffffff1614611247576040517f08c379a000000000000000000000000000000000000000000000000000000000815260040161123e90614805565b60405180910390fd5b611251600061278a565b565b600061125d612177565b73ffffffffffffffffffffffffffffffffffffffff1661127b61157e565b73ffffffffffffffffffffffffffffffffffffffff16146112d1576040517f08c379a00000000000000000000000000000000000000000000000000000000081526004016112c890614805565b60405180910390fd5b602260008373ffffffffffffffffffffffffffffffffffffffff1673ffffffffffffffffffffffffffffffffffffffff16815260200190815260200160002060009054906101000a900460ff16611399576001602260008473ffffffffffffffffffffffffffffffffffffffff1673ffffffffffffffffffffffffffffffffffffffff16815260200190815260200160002060006101000a81548160ff02191690831515021790555060016023600082825461138d9190614b46565b92505081905550600190505b919050565b60006001600d546113af9190614b46565b9050601260019054906101000a900460ff16611400576040517f08c379a00000000000000000000000000000000000000000000000000000000081526004016113f790614885565b60405180910390fd5b600061140c33836106ae565b1161144c576040517f08c379a000000000000000000000000000000000000000000000000000000000815260040161144390614625565b60405180910390fd5b6000611456612850565b905060005b60038160ff16101561149d5761148a828260ff16600381106114805761147f614ee0565b5b6020020151612964565b808061149590614dca565b91505061145b565b506114aa33836001612a5f565b5050565b60006114b8612177565b73ffffffffffffffffffffffffffffffffffffffff166114d661157e565b73ffffffffffffffffffffffffffffffffffffffff161461152c576040517f08c379a000000000000000000000000000000000000000000000000000000000815260040161152390614805565b60405180910390fd5b60005b82518110156115785761155b83828151811061154e5761154d614ee0565b5b6020026020010151611fc1565b1561156557600191505b808061157090614d81565b91505061152f565b50919050565b6000600360009054906101000a900473ffffffffffffffffffffffffffffffffffffffff16905090565b60226020528060005260406000206000915054906101000a900460ff1681565b602460009054906101000a900460ff16806115ef5750602460019054906101000a900460ff165b61162e576040517f08c379a000000000000000000000000000000000000000000000000000000000815260040161162590614925565b60405180910390fd5b602460009054906101000a900460ff1680156116575750602460019054906101000a900460ff16155b156116e957602260003373ffffffffffffffffffffffffffffffffffffffff1673ffffffffffffffffffffffffffffffffffffffff16815260200190815260200160002060009054906101000a900460ff166116e8576040517f08c379a00000000000000000000000000000000000000000000000000000000081526004016116df906146c5565b60405180910390fd5b5b600b546013541061172f576040517f08c379a000000000000000000000000000000000000000000000000000000000815260040161172690614845565b60405180910390fd5b602860003373ffffffffffffffffffffffffffffffffffffffff1673ffffffffffffffffffffffffffffffffffffffff16815260200190815260200160002060009054906101000a900460ff16156117bc576040517f08c379a00000000000000000000000000000000000000000000000000000000081526004016117b3906148a5565b60405180910390fd5b6001602860003373ffffffffffffffffffffffffffffffffffffffff1673ffffffffffffffffffffffffffffffffffffffff16815260200190815260200160002060006101000a81548160ff0219169083151502179055506000600d54905061185d338260016040518060400160405280600481526020017f3078303000000000000000000000000000000000000000000000000000000000815250612493565b6001601360008282546118709190614b46565b9250508190555060016021600082825461188a9190614c27565b925050819055507f2e0f4d63dcc00e6a11c8aef9f6e15c1f9cd6e9a090b2dd99c7b797f1a28d300d336013546040516118c49291906144fd565b60405180910390a150565b6118e16118da612177565b8383612c7c565b5050565b6118ed612177565b73ffffffffffffffffffffffffffffffffffffffff1661190b61157e565b73ffffffffffffffffffffffffffffffffffffffff1614611961576040517f08c379a000000000000000000000000000000000000000000000000000000000815260040161195890614805565b60405180910390fd5b6001602460006101000a81548160ff021916908315150217905550565b601260019054906101000a900460ff1681565b60296020528060005260406000206000915090505481565b6119b1612177565b73ffffffffffffffffffffffffffffffffffffffff166119cf61157e565b73ffffffffffffffffffffffffffffffffffffffff1614611a25576040517f08c379a0000000000000000000000000000000000000000000000000000000008152600401611a1c90614805565b60405180910390fd5b6001602460016101000a81548160ff021916908315150217905550565b6000600d549050602760003373ffffffffffffffffffffffffffffffffffffffff1673ffffffffffffffffffffffffffffffffffffffff16815260200190815260200160002060009054906101000a900460ff1615611ad6576040517f08c379a0000000000000000000000000000000000000000000000000000000008152600401611acd906147e5565b60405180910390fd5b601260009054906101000a900460ff16611b25576040517f08c379a0000000000000000000000000000000000000000000000000000000008152600401611b1c90614885565b60405180910390fd5b6000611b3133836106ae565b11611b71576040517f08c379a0000000000000000000000000000000000000000000000000000000008152600401611b6890614825565b60405180910390fd5b6001602760003373ffffffffffffffffffffffffffffffffffffffff1673ffffffffffffffffffffffffffffffffffffffff16815260200190815260200160002060006101000a81548160ff0219169083151502179055506000611bd3612de9565b905060005b60058160ff161015611c1a57611c07828260ff1660058110611bfd57611bfc614ee0565b5b6020020151612964565b8080611c1290614dca565b915050611bd8565b50611c2733836001612a5f565b7f15abe0b63b201b70614c230381f0fabc4a26a1957629948558095a11db1d6fb58133604051611c58929190614526565b60405180910390a15050565b601260009054906101000a900460ff1681565b60286020528060005260406000206000915054906101000a900460ff1681565b60215481565b60276020528060005260406000206000915054906101000a900460ff1681565b6000600160008473ffffffffffffffffffffffffffffffffffffffff1673ffffffffffffffffffffffffffffffffffffffff16815260200190815260200160002060008373ffffffffffffffffffffffffffffffffffffffff1673ffffffffffffffffffffffffffffffffffffffff16815260200190815260200160002060009054906101000a900460ff16905092915050565b611d59612177565b73ffffffffffffffffffffffffffffffffffffffff16611d7761157e565b73ffffffffffffffffffffffffffffffffffffffff1614611dcd576040517f08c379a0000000000000000000000000000000000000000000000000000000008152600401611dc490614805565b60405180910390fd5b600e54600d54611ddd9190614bcd565b600143611dea9190614c27565b4060001c611df89190614e22565b60178190555060006017541415611e2657611e1f6001601754612ecd90919063ffffffff16565b6017819055505b565b611e30612177565b73ffffffffffffffffffffffffffffffffffffffff168573ffffffffffffffffffffffffffffffffffffffff161480611e765750611e7585611e70612177565b611cbd565b5b611eb5576040517f08c379a0000000000000000000000000000000000000000000000000000000008152600401611eac906146a5565b60405180910390fd5b611ec28585858585612ee3565b5050505050565b611ed1612177565b73ffffffffffffffffffffffffffffffffffffffff16611eef61157e565b73ffffffffffffffffffffffffffffffffffffffff1614611f45576040517f08c379a0000000000000000000000000000000000000000000000000000000008152600401611f3c90614805565b60405180910390fd5b600073ffffffffffffffffffffffffffffffffffffffff168173ffffffffffffffffffffffffffffffffffffffff161415611fb5576040517f08c379a0000000000000000000000000000000000000000000000000000000008152600401611fac90614665565b60405180910390fd5b611fbe8161278a565b50565b6000611fcb612177565b73ffffffffffffffffffffffffffffffffffffffff16611fe961157e565b73ffffffffffffffffffffffffffffffffffffffff161461203f576040517f08c379a000000000000000000000000000000000000000000000000000000000815260040161203690614805565b60405180910390fd5b602260008373ffffffffffffffffffffffffffffffffffffffff1673ffffffffffffffffffffffffffffffffffffffff16815260200190815260200160002060009054906101000a900460ff1615612108576000602260008473ffffffffffffffffffffffffffffffffffffffff1673ffffffffffffffffffffffffffffffffffffffff16815260200190815260200160002060006101000a81548160ff0219169083151502179055506001602360008282546120fc9190614c27565b92505081905550600190505b919050565b60007f01ffc9a7000000000000000000000000000000000000000000000000000000007bffffffffffffffffffffffffffffffffffffffffffffffffffffffff1916827bffffffffffffffffffffffffffffffffffffffffffffffffffffffff1916149050919050565b600033905090565b81518351146121c3576040517f08c379a00000000000000000000000000000000000000000000000000000000081526004016121ba90614905565b60405180910390fd5b600073ffffffffffffffffffffffffffffffffffffffff168473ffffffffffffffffffffffffffffffffffffffff161415612233576040517f08c379a000000000000000000000000000000000000000000000000000000000815260040161222a90614725565b60405180910390fd5b600061223d612177565b905061224d818787878787613165565b60005b84518110156123fe57600085828151811061226e5761226d614ee0565b5b60200260200101519050600085838151811061228d5761228c614ee0565b5b60200260200101519050600080600084815260200190815260200160002060008b73ffffffffffffffffffffffffffffffffffffffff1673ffffffffffffffffffffffffffffffffffffffff1681526020019081526020016000205490508181101561232e576040517f08c379a0000000000000000000000000000000000000000000000000000000008152600401612325906147c5565b60405180910390fd5b81810360008085815260200190815260200160002060008c73ffffffffffffffffffffffffffffffffffffffff1673ffffffffffffffffffffffffffffffffffffffff168152602001908152602001600020819055508160008085815260200190815260200160002060008b73ffffffffffffffffffffffffffffffffffffffff1673ffffffffffffffffffffffffffffffffffffffff16815260200190815260200160002060008282546123e39190614b46565b92505081905550505050806123f790614d81565b9050612250565b508473ffffffffffffffffffffffffffffffffffffffff168673ffffffffffffffffffffffffffffffffffffffff168273ffffffffffffffffffffffffffffffffffffffff167f4a39dc06d4c0dbc64b70af90fd698a233a518aa5d07e595d983b8c0526c8f7fb8787604051612475929190614571565b60405180910390a461248b81878787878761316d565b505050505050565b600073ffffffffffffffffffffffffffffffffffffffff168473ffffffffffffffffffffffffffffffffffffffff161415612503576040517f08c379a00000000000000000000000000000000000000000000000000000000081526004016124fa90614945565b60405180910390fd5b600061250d612177565b905061252e8160008761251f88613354565b61252888613354565b87613165565b8260008086815260200190815260200160002060008773ffffffffffffffffffffffffffffffffffffffff1673ffffffffffffffffffffffffffffffffffffffff168152602001908152602001600020600082825461258d9190614b46565b925050819055508473ffffffffffffffffffffffffffffffffffffffff16600073ffffffffffffffffffffffffffffffffffffffff168273ffffffffffffffffffffffffffffffffffffffff167fc3d58168c5ae7397731d063d5bbf3d657854427343f4c083240f7aacaa2d0f62878760405161260b929190614980565b60405180910390a4612622816000878787876133ce565b5050505050565b60606000821415612671576040518060400160405280600181526020017f30000000000000000000000000000000000000000000000000000000000000008152509050612785565b600082905060005b600082146126a357808061268c90614d81565b915050600a8261269c9190614b9c565b9150612679565b60008167ffffffffffffffff8111156126bf576126be614f0f565b5b6040519080825280601f01601f1916602001820160405280156126f15781602001600182028036833780820191505090505b5090505b6000851461277e5760018261270a9190614c27565b9150600a856127199190614e22565b60306127259190614b46565b60f81b81838151811061273b5761273a614ee0565b5b60200101907effffffffffffffffffffffffffffffffffffffffffffffffffffffffffffff1916908160001a905350600a856127779190614b9c565b94506126f5565b8093505050505b919050565b6000600360009054906101000a900473ffffffffffffffffffffffffffffffffffffffff16905081600360006101000a81548173ffffffffffffffffffffffffffffffffffffffff021916908373ffffffffffffffffffffffffffffffffffffffff1602179055508173ffffffffffffffffffffffffffffffffffffffff168173ffffffffffffffffffffffffffffffffffffffff167f8be0079c531659141344cd1fd0a4f28419497f9722a3daafe3b4186f6b6457e060405160405180910390a35050565b61285861364e565b61286061364e565b600060054361286f9190614e22565b905060005b600381101561295b5760058261288a9190614e22565b91506000600a8361289b9190614bcd565b905060006009600a856128ae9190614bcd565b6128b89190614b46565b905081600183836128c99190614c27565b6128d39190614b46565b423344876014546040516020016128ee9594939291906143c1565b6040516020818303038152906040528051906020012060001c6129119190614e22565b61291b9190614b46565b85846003811061292e5761292d614ee0565b5b6020020181815250506001846129449190614b46565b93505050808061295390614d81565b915050612874565b50819250505090565b600e54600d546129749190614bcd565b6015541015612a5c57600e546026600083815260200190815260200160002054106129d4576040517f08c379a00000000000000000000000000000000000000000000000000000000081526004016129cb906146e5565b60405180910390fd5b612a16338260016040518060400160405280600481526020017f3078303000000000000000000000000000000000000000000000000000000000815250612493565b6001602660008381526020019081526020016000206000828254612a3a9190614b46565b92505081905550600160156000828254612a549190614b46565b925050819055505b50565b600073ffffffffffffffffffffffffffffffffffffffff168373ffffffffffffffffffffffffffffffffffffffff161415612acf576040517f08c379a0000000000000000000000000000000000000000000000000000000008152600401612ac690614785565b60405180910390fd5b6000612ad9612177565b9050612b0981856000612aeb87613354565b612af487613354565b60405180602001604052806000815250613165565b600080600085815260200190815260200160002060008673ffffffffffffffffffffffffffffffffffffffff1673ffffffffffffffffffffffffffffffffffffffff16815260200190815260200160002054905082811015612ba0576040517f08c379a0000000000000000000000000000000000000000000000000000000008152600401612b9790614685565b60405180910390fd5b82810360008086815260200190815260200160002060008773ffffffffffffffffffffffffffffffffffffffff1673ffffffffffffffffffffffffffffffffffffffff16815260200190815260200160002081905550600073ffffffffffffffffffffffffffffffffffffffff168573ffffffffffffffffffffffffffffffffffffffff168373ffffffffffffffffffffffffffffffffffffffff167fc3d58168c5ae7397731d063d5bbf3d657854427343f4c083240f7aacaa2d0f628787604051612c6d929190614980565b60405180910390a45050505050565b8173ffffffffffffffffffffffffffffffffffffffff168373ffffffffffffffffffffffffffffffffffffffff161415612ceb576040517f08c379a0000000000000000000000000000000000000000000000000000000008152600401612ce2906148c5565b60405180910390fd5b80600160008573ffffffffffffffffffffffffffffffffffffffff1673ffffffffffffffffffffffffffffffffffffffff16815260200190815260200160002060008473ffffffffffffffffffffffffffffffffffffffff1673ffffffffffffffffffffffffffffffffffffffff16815260200190815260200160002060006101000a81548160ff0219169083151502179055508173ffffffffffffffffffffffffffffffffffffffff168373ffffffffffffffffffffffffffffffffffffffff167f17307eab39ab6107e8899845ad3d59bd9653f200f220920489ca2b5937696c3183604051612ddc91906145a8565b60405180910390a3505050565b612df1613670565b612df9613670565b60005b6005811015612ec5576000600a82612e149190614bcd565b905060006009600a84612e279190614bcd565b612e319190614b46565b90508160018383612e429190614c27565b612e4c9190614b46565b42334487601354604051602001612e679594939291906143c1565b6040516020818303038152906040528051906020012060001c612e8a9190614e22565b612e949190614b46565b848460058110612ea757612ea6614ee0565b5b60200201818152505050508080612ebd90614d81565b915050612dfc565b508091505090565b60008183612edb9190614b46565b905092915050565b600073ffffffffffffffffffffffffffffffffffffffff168473ffffffffffffffffffffffffffffffffffffffff161415612f53576040517f08c379a0000000000000000000000000000000000000000000000000000000008152600401612f4a90614725565b60405180910390fd5b6000612f5d612177565b9050612f7d818787612f6e88613354565b612f7788613354565b87613165565b600080600086815260200190815260200160002060008873ffffffffffffffffffffffffffffffffffffffff1673ffffffffffffffffffffffffffffffffffffffff16815260200190815260200160002054905083811015613014576040517f08c379a000000000000000000000000000000000000000000000000000000000815260040161300b906147c5565b60405180910390fd5b83810360008087815260200190815260200160002060008973ffffffffffffffffffffffffffffffffffffffff1673ffffffffffffffffffffffffffffffffffffffff168152602001908152602001600020819055508360008087815260200190815260200160002060008873ffffffffffffffffffffffffffffffffffffffff1673ffffffffffffffffffffffffffffffffffffffff16815260200190815260200160002060008282546130c99190614b46565b925050819055508573ffffffffffffffffffffffffffffffffffffffff168773ffffffffffffffffffffffffffffffffffffffff168373ffffffffffffffffffffffffffffffffffffffff167fc3d58168c5ae7397731d063d5bbf3d657854427343f4c083240f7aacaa2d0f628888604051613146929190614980565b60405180910390a461315c8288888888886133ce565b50505050505050565b505050505050565b61318c8473ffffffffffffffffffffffffffffffffffffffff166135b5565b1561334c578373ffffffffffffffffffffffffffffffffffffffff1663bc197c8187878686866040518663ffffffff1660e01b81526004016131d295949392919061443b565b602060405180830381600087803b1580156131ec57600080fd5b505af192505050801561321d57506040513d601f19601f8201168201806040525081019061321a9190613c75565b60015b6132c357613229614f3e565b806308c379a01415613286575061323e615767565b806132495750613288565b806040517f08c379a000000000000000000000000000000000000000000000000000000000815260040161327d91906145c3565b60405180910390fd5b505b6040517f08c379a00000000000000000000000000000000000000000000000000000000081526004016132ba906145e5565b60405180910390fd5b63bc197c8160e01b7bffffffffffffffffffffffffffffffffffffffffffffffffffffffff1916817bffffffffffffffffffffffffffffffffffffffffffffffffffffffff19161461334a576040517f08c379a000000000000000000000000000000000000000000000000000000000815260040161334190614605565b60405180910390fd5b505b505050505050565b60606000600167ffffffffffffffff81111561337357613372614f0f565b5b6040519080825280602002602001820160405280156133a15781602001602082028036833780820191505090505b50905082816000815181106133b9576133b8614ee0565b5b60200260200101818152505080915050919050565b6133ed8473ffffffffffffffffffffffffffffffffffffffff166135b5565b156135ad578373ffffffffffffffffffffffffffffffffffffffff1663f23a6e6187878686866040518663ffffffff1660e01b81526004016134339594939291906144a3565b602060405180830381600087803b15801561344d57600080fd5b505af192505050801561347e57506040513d601f19601f8201168201806040525081019061347b9190613c75565b60015b6135245761348a614f3e565b806308c379a014156134e7575061349f615767565b806134aa57506134e9565b806040517f08c379a00000000000000000000000000000000000000000000000000000000081526004016134de91906145c3565b60405180910390fd5b505b6040517f08c379a000000000000000000000000000000000000000000000000000000000815260040161351b906145e5565b60405180910390fd5b63f23a6e6160e01b7bffffffffffffffffffffffffffffffffffffffffffffffffffffffff1916817bffffffffffffffffffffffffffffffffffffffffffffffffffffffff1916146135ab576040517f08c379a00000000000000000000000000000000000000000000000000000000081526004016135a290614605565b60405180910390fd5b505b505050505050565b600080823b905060008111915050919050565b8280546135d490614d1e565b90600052602060002090601f0160209004810192826135f6576000855561363d565b82601f1061360f57805160ff191683800117855561363d565b8280016001018555821561363d579182015b8281111561363c578251825591602001919060010190613621565b5b50905061364a9190613692565b5090565b6040518060600160405280600390602082028036833780820191505090505090565b6040518060a00160405280600590602082028036833780820191505090505090565b5b808211156136ab576000816000905550600101613693565b5090565b60006136c26136bd846149ce565b6149a9565b905080838252602082019050828560208602820111156136e5576136e4614f65565b5b60005b8581101561371557816136fb8882613813565b8452602084019350602083019250506001810190506136e8565b5050509392505050565b600061373261372d846149fa565b6149a9565b9050808382526020820190508285602086028201111561375557613754614f65565b5b60005b85811015613785578161376b888261391f565b845260208401935060208301925050600181019050613758565b5050509392505050565b60006137a261379d84614a26565b6149a9565b9050828152602081018484840111156137be576137bd614f6a565b5b6137c9848285614cdc565b509392505050565b60006137e46137df84614a57565b6149a9565b905082815260208101848484011115613800576137ff614f6a565b5b61380b848285614cdc565b509392505050565b600081359050613822816157fd565b92915050565b600082601f83011261383d5761383c614f60565b5b813561384d8482602086016136af565b91505092915050565b600082601f83011261386b5761386a614f60565b5b813561387b84826020860161371f565b91505092915050565b60008135905061389381615814565b92915050565b6000813590506138a88161582b565b92915050565b6000815190506138bd8161582b565b92915050565b600082601f8301126138d8576138d7614f60565b5b81356138e884826020860161378f565b91505092915050565b600082601f83011261390657613905614f60565b5b81356139168482602086016137d1565b91505092915050565b60008135905061392e81615842565b92915050565b60006020828403121561394a57613949614f74565b5b600061395884828501613813565b91505092915050565b6000806040838503121561397857613977614f74565b5b600061398685828601613813565b925050602061399785828601613813565b9150509250929050565b600080600080600060a086880312156139bd576139bc614f74565b5b60006139cb88828901613813565b95505060206139dc88828901613813565b945050604086013567ffffffffffffffff8111156139fd576139fc614f6f565b5b613a0988828901613856565b935050606086013567ffffffffffffffff811115613a2a57613a29614f6f565b5b613a3688828901613856565b925050608086013567ffffffffffffffff811115613a5757613a56614f6f565b5b613a63888289016138c3565b9150509295509295909350565b600080600080600060a08688031215613a8c57613a8b614f74565b5b6000613a9a88828901613813565b9550506020613aab88828901613813565b9450506040613abc8882890161391f565b9350506060613acd8882890161391f565b925050608086013567ffffffffffffffff811115613aee57613aed614f6f565b5b613afa888289016138c3565b9150509295509295909350565b60008060408385031215613b1e57613b1d614f74565b5b6000613b2c85828601613813565b9250506020613b3d85828601613884565b9150509250929050565b60008060408385031215613b5e57613b5d614f74565b5b6000613b6c85828601613813565b9250506020613b7d8582860161391f565b9150509250929050565b600060208284031215613b9d57613b9c614f74565b5b600082013567ffffffffffffffff811115613bbb57613bba614f6f565b5b613bc784828501613828565b91505092915050565b60008060408385031215613be757613be6614f74565b5b600083013567ffffffffffffffff811115613c0557613c04614f6f565b5b613c1185828601613828565b925050602083013567ffffffffffffffff811115613c3257613c31614f6f565b5b613c3e85828601613856565b9150509250929050565b600060208284031215613c5e57613c5d614f74565b5b6000613c6c84828501613899565b91505092915050565b600060208284031215613c8b57613c8a614f74565b5b6000613c99848285016138ae565b91505092915050565b600060208284031215613cb857613cb7614f74565b5b6000613cc68482850161391f565b91505092915050565b60008060408385031215613ce657613ce5614f74565b5b6000613cf48582860161391f565b925050602083013567ffffffffffffffff811115613d1557613d14614f6f565b5b613d21858286016138f1565b9150509250929050565b6000613d378383614346565b60208301905092915050565b613d4c81614c5b565b82525050565b613d63613d5e82614c5b565b614df4565b82525050565b613d7281614ab7565b613d7c8184614afd565b9250613d8782614a88565b8060005b83811015613db8578151613d9f8782613d2b565b9650613daa83614ae3565b925050600181019050613d8b565b505050505050565b6000613dcb82614ac2565b613dd58185614b08565b9350613de083614a92565b8060005b83811015613e11578151613df88882613d2b565b9750613e0383614af0565b925050600181019050613de4565b5085935050505092915050565b613e2781614c6d565b82525050565b6000613e3882614acd565b613e428185614b19565b9350613e52818560208601614ceb565b613e5b81614f79565b840191505092915050565b6000613e7182614ad8565b613e7b8185614b2a565b9350613e8b818560208601614ceb565b613e9481614f79565b840191505092915050565b6000613eaa82614ad8565b613eb48185614b3b565b9350613ec4818560208601614ceb565b80840191505092915050565b60008154613edd81614d1e565b613ee78186614b3b565b94506001821660008114613f025760018114613f1357613f46565b60ff19831686528186019350613f46565b613f1c85614aa2565b60005b83811015613f3e57815481890152600182019150602081019050613f1f565b838801955050505b50505092915050565b6000613f5c603483614b2a565b9150613f6782614fa4565b604082019050919050565b6000613f7f602883614b2a565b9150613f8a82614ff3565b604082019050919050565b6000613fa2601b83614b2a565b9150613fad82615042565b602082019050919050565b6000613fc5602b83614b2a565b9150613fd08261506b565b604082019050919050565b6000613fe8602683614b2a565b9150613ff3826150ba565b604082019050919050565b600061400b602483614b2a565b915061401682615109565b604082019050919050565b600061402e602983614b2a565b915061403982615158565b604082019050919050565b6000614051601883614b2a565b915061405c826151a7565b602082019050919050565b6000614074602d83614b2a565b915061407f826151d0565b604082019050919050565b6000614097602b83614b2a565b91506140a28261521f565b604082019050919050565b60006140ba602583614b2a565b91506140c58261526e565b604082019050919050565b60006140dd603283614b2a565b91506140e8826152bd565b604082019050919050565b6000614100601483614b2a565b915061410b8261530c565b602082019050919050565b6000614123602383614b2a565b915061412e82615335565b604082019050919050565b6000614146602383614b2a565b915061415182615384565b604082019050919050565b6000614169602a83614b2a565b9150614174826153d3565b604082019050919050565b600061418c602083614b2a565b915061419782615422565b602082019050919050565b60006141af600583614b3b565b91506141ba8261544b565b600582019050919050565b60006141d2602083614b2a565b91506141dd82615474565b602082019050919050565b60006141f5602b83614b2a565b91506142008261549d565b604082019050919050565b6000614218602383614b2a565b9150614223826154ec565b604082019050919050565b600061423b602b83614b2a565b91506142468261553b565b604082019050919050565b600061425e601f83614b2a565b91506142698261558a565b602082019050919050565b6000614281602a83614b2a565b915061428c826155b3565b604082019050919050565b60006142a4602983614b2a565b91506142af82615602565b604082019050919050565b60006142c7602983614b2a565b91506142d282615651565b604082019050919050565b60006142ea602883614b2a565b91506142f5826156a0565b604082019050919050565b600061430d601f83614b2a565b9150614318826156ef565b602082019050919050565b6000614330602183614b2a565b915061433b82615718565b604082019050919050565b61434f81614cc5565b82525050565b61435e81614cc5565b82525050565b61437561437082614cc5565b614e18565b82525050565b60006143878284613ed0565b915081905092915050565b600061439e8285613ed0565b91506143aa8284613e9f565b91506143b5826141a2565b91508190509392505050565b60006143cd8288614364565b6020820191506143dd8287613d52565b6014820191506143ed8286614364565b6020820191506143fd8285614364565b60208201915061440d8284614364565b6020820191508190509695505050505050565b60006020820190506144356000830184613d43565b92915050565b600060a0820190506144506000830188613d43565b61445d6020830187613d43565b818103604083015261446f8186613dc0565b905081810360608301526144838185613dc0565b905081810360808301526144978184613e2d565b90509695505050505050565b600060a0820190506144b86000830188613d43565b6144c56020830187613d43565b6144d26040830186614355565b6144df6060830185614355565b81810360808301526144f18184613e2d565b90509695505050505050565b60006040820190506145126000830185613d43565b61451f6020830184614355565b9392505050565b600060c08201905061453b6000830185613d69565b61454860a0830184613d43565b9392505050565b600060208201905081810360008301526145698184613dc0565b905092915050565b6000604082019050818103600083015261458b8185613dc0565b9050818103602083015261459f8184613dc0565b90509392505050565b60006020820190506145bd6000830184613e1e565b92915050565b600060208201905081810360008301526145dd8184613e66565b905092915050565b600060208201905081810360008301526145fe81613f4f565b9050919050565b6000602082019050818103600083015261461e81613f72565b9050919050565b6000602082019050818103600083015261463e81613f95565b9050919050565b6000602082019050818103600083015261465e81613fb8565b9050919050565b6000602082019050818103600083015261467e81613fdb565b9050919050565b6000602082019050818103600083015261469e81613ffe565b9050919050565b600060208201905081810360008301526146be81614021565b9050919050565b600060208201905081810360008301526146de81614044565b9050919050565b600060208201905081810360008301526146fe81614067565b9050919050565b6000602082019050818103600083015261471e8161408a565b9050919050565b6000602082019050818103600083015261473e816140ad565b9050919050565b6000602082019050818103600083015261475e816140d0565b9050919050565b6000602082019050818103600083015261477e816140f3565b9050919050565b6000602082019050818103600083015261479e81614116565b9050919050565b600060208201905081810360008301526147be81614139565b9050919050565b600060208201905081810360008301526147de8161415c565b9050919050565b600060208201905081810360008301526147fe8161417f565b9050919050565b6000602082019050818103600083015261481e816141c5565b9050919050565b6000602082019050818103600083015261483e816141e8565b9050919050565b6000602082019050818103600083015261485e8161420b565b9050919050565b6000602082019050818103600083015261487e8161422e565b9050919050565b6000602082019050818103600083015261489e81614251565b9050919050565b600060208201905081810360008301526148be81614274565b9050919050565b600060208201905081810360008301526148de81614297565b9050919050565b600060208201905081810360008301526148fe816142ba565b9050919050565b6000602082019050818103600083015261491e816142dd565b9050919050565b6000602082019050818103600083015261493e81614300565b9050919050565b6000602082019050818103600083015261495e81614323565b9050919050565b600060208201905061497a6000830184614355565b92915050565b60006040820190506149956000830185614355565b6149a26020830184614355565b9392505050565b60006149b36149c4565b90506149bf8282614d50565b919050565b6000604051905090565b600067ffffffffffffffff8211156149e9576149e8614f0f565b5b602082029050602081019050919050565b600067ffffffffffffffff821115614a1557614a14614f0f565b5b602082029050602081019050919050565b600067ffffffffffffffff821115614a4157614a40614f0f565b5b614a4a82614f79565b9050602081019050919050565b600067ffffffffffffffff821115614a7257614a71614f0f565b5b614a7b82614f79565b9050602081019050919050565b6000819050919050565b6000819050602082019050919050565b60008190508160005260206000209050919050565b600060059050919050565b600081519050919050565b600081519050919050565b600081519050919050565b6000602082019050919050565b6000602082019050919050565b600081905092915050565b600082825260208201905092915050565b600082825260208201905092915050565b600082825260208201905092915050565b600081905092915050565b6000614b5182614cc5565b9150614b5c83614cc5565b9250827fffffffffffffffffffffffffffffffffffffffffffffffffffffffffffffffff03821115614b9157614b90614e53565b5b828201905092915050565b6000614ba782614cc5565b9150614bb283614cc5565b925082614bc257614bc1614e82565b5b828204905092915050565b6000614bd882614cc5565b9150614be383614cc5565b9250817fffffffffffffffffffffffffffffffffffffffffffffffffffffffffffffffff0483118215151615614c1c57614c1b614e53565b5b828202905092915050565b6000614c3282614cc5565b9150614c3d83614cc5565b925082821015614c5057614c4f614e53565b5b828203905092915050565b6000614c6682614ca5565b9050919050565b60008115159050919050565b60007fffffffff0000000000000000000000000000000000000000000000000000000082169050919050565b600073ffffffffffffffffffffffffffffffffffffffff82169050919050565b6000819050919050565b600060ff82169050919050565b82818337600083830152505050565b60005b83811015614d09578082015181840152602081019050614cee565b83811115614d18576000848401525b50505050565b60006002820490506001821680614d3657607f821691505b60208210811415614d4a57614d49614eb1565b5b50919050565b614d5982614f79565b810181811067ffffffffffffffff82111715614d7857614d77614f0f565b5b80604052505050565b6000614d8c82614cc5565b91507fffffffffffffffffffffffffffffffffffffffffffffffffffffffffffffffff821415614dbf57614dbe614e53565b5b600182019050919050565b6000614dd582614ccf565b915060ff821415614de957614de8614e53565b5b600182019050919050565b6000614dff82614e06565b9050919050565b6000614e1182614f8a565b9050919050565b6000819050919050565b6000614e2d82614cc5565b9150614e3883614cc5565b925082614e4857614e47614e82565b5b828206905092915050565b7f4e487b7100000000000000000000000000000000000000000000000000000000600052601160045260246000fd5b7f4e487b7100000000000000000000000000000000000000000000000000000000600052601260045260246000fd5b7f4e487b7100000000000000000000000000000000000000000000000000000000600052602260045260246000fd5b7f4e487b7100000000000000000000000000000000000000000000000000000000600052603260045260246000fd5b7f4e487b7100000000000000000000000000000000000000000000000000000000600052604160045260246000fd5b600060033d1115614f5d5760046000803e614f5a600051614f97565b90505b90565b600080fd5b600080fd5b600080fd5b600080fd5b600080fd5b6000601f19601f8301169050919050565b60008160601b9050919050565b60008160e01c9050919050565b7f455243313135353a207472616e7366657220746f206e6f6e204552433131353560008201527f526563656976657220696d706c656d656e746572000000000000000000000000602082015250565b7f455243313135353a204552433131353552656365697665722072656a6563746560008201527f6420746f6b656e73000000000000000000000000000000000000000000000000602082015250565b7f4e6f2072656d61696e696e6720626f6f73746572207061636b73210000000000600082015250565b7f455243313135353a2062616c616e636520717565727920666f7220746865207a60008201527f65726f2061646472657373000000000000000000000000000000000000000000602082015250565b7f4f776e61626c653a206e6577206f776e657220697320746865207a65726f206160008201527f6464726573730000000000000000000000000000000000000000000000000000602082015250565b7f455243313135353a206275726e20616d6f756e7420657863656564732062616c60008201527f616e636500000000000000000000000000000000000000000000000000000000602082015250565b7f455243313135353a2063616c6c6572206973206e6f74206f776e6572206e6f7260008201527f20617070726f7665640000000000000000000000000000000000000000000000602082015250565b7f55736572206973206e6f742077686974656c69737465642e0000000000000000600082015250565b7f416c6c206f662074686973206174686c657465206861766520616c726561647960008201527f206265656e206d696e7465642100000000000000000000000000000000000000602082015250565b7f416c6c20626f6f73746572207061636b73206861766520616c7265616479206260008201527f65656e206d696e74656421000000000000000000000000000000000000000000602082015250565b7f455243313135353a207472616e7366657220746f20746865207a65726f20616460008201527f6472657373000000000000000000000000000000000000000000000000000000602082015250565b7f455243313135353a207472616e736665722063616c6c6572206973206e6f742060008201527f6f776e6572206e6f7220617070726f7665640000000000000000000000000000602082015250565b7f43616e6e6f742073657420757269207477696365000000000000000000000000600082015250565b7f455243313135353a206275726e2066726f6d20746865207a65726f206164647260008201527f6573730000000000000000000000000000000000000000000000000000000000602082015250565b7f426f6f73746572207061636b732063616e6e6f74206265206f70656e6564207960008201527f6574210000000000000000000000000000000000000000000000000000000000602082015250565b7f455243313135353a20696e73756666696369656e742062616c616e636520666f60008201527f72207472616e7366657200000000000000000000000000000000000000000000602082015250565b7f596f752063616e6e6f74206275726e206d6f7265207468616e2031207061636b600082015250565b7f2e6a736f6e000000000000000000000000000000000000000000000000000000600082015250565b7f4f776e61626c653a2063616c6c6572206973206e6f7420746865206f776e6572600082015250565b7f53746172746572207061636b20646f6573206e6f7420657869737420696e207560008201527f736572732077616c6c6574000000000000000000000000000000000000000000602082015250565b7f416c6c207061636b73206861766520616c7265616479206265656e206d696e7460008201527f6564210000000000000000000000000000000000000000000000000000000000602082015250565b7f43616e206f6e6c79206d696e742074776f20626f6f73746572207061636b732060008201527f706572206163636f756e74000000000000000000000000000000000000000000602082015250565b7f5061636b73206172656e277420726561647920746f206f70656e207965742100600082015250565b7f43616e206f6e6c79206d696e74206f6e652073746172746572207061636b207060008201527f6572206163636f756e7400000000000000000000000000000000000000000000602082015250565b7f455243313135353a2073657474696e6720617070726f76616c2073746174757360008201527f20666f722073656c660000000000000000000000000000000000000000000000602082015250565b7f455243313135353a206163636f756e747320616e6420696473206c656e67746860008201527f206d69736d617463680000000000000000000000000000000000000000000000602082015250565b7f455243313135353a2069647320616e6420616d6f756e7473206c656e6774682060008201527f6d69736d61746368000000000000000000000000000000000000000000000000602082015250565b7f507269766174652073616c65206861736e2774206f70656e6564207965742e00600082015250565b7f455243313135353a206d696e7420746f20746865207a65726f2061646472657360008201527f7300000000000000000000000000000000000000000000000000000000000000602082015250565b600060443d1015615777576157fa565b61577f6149c4565b60043d036004823e80513d602482011167ffffffffffffffff821117156157a75750506157fa565b808201805167ffffffffffffffff8111156157c557505050506157fa565b80602083010160043d0385018111156157e25750505050506157fa565b6157f182602001850186614d50565b82955050505050505b90565b61580681614c5b565b811461581157600080fd5b50565b61581d81614c6d565b811461582857600080fd5b50565b61583481614c79565b811461583f57600080fd5b50565b61584b81614cc5565b811461585657600080fd5b5056fea2646970667358221220b31f47593565474464358a2e852147d8d254ab10d360597943b9cdabcefc8bc264736f6c63430008070033",
  "linkReferences": {},
  "deployedLinkReferences": {}
}