{
  "_format": "hh-sol-artifact-1",
  "contractName": "LeagueMaker",
  "sourceName": "contracts/LeagueMaker.sol",
  "abi": [
    {
      "inputs": [
        {
          "internalType": "address",
          "name": "_logic",
          "type": "address"
        }
      ],
      "stateMutability": "nonpayable",
      "type": "constructor"
    },
    {
      "anonymous": false,
      "inputs": [
        {
          "indexed": false,
          "internalType": "string",
          "name": "name",
          "type": "string"
        },
        {
          "indexed": false,
          "internalType": "address",
          "name": "proxyAddress",
          "type": "address"
        },
        {
          "indexed": false,
          "internalType": "address",
          "name": "proxyAdminAddress",
          "type": "address"
        },
        {
          "indexed": false,
          "internalType": "address[]",
          "name": "initialWhitelistAddresses",
          "type": "address[]"
        }
      ],
      "name": "LeagueCreated",
      "type": "event"
    },
    {
      "anonymous": false,
      "inputs": [
        {
          "indexed": true,
          "internalType": "address",
          "name": "previousOwner",
          "type": "address"
        },
        {
          "indexed": true,
          "internalType": "address",
          "name": "newOwner",
          "type": "address"
        }
      ],
      "name": "OwnershipTransferred",
      "type": "event"
    },
    {
      "anonymous": false,
      "inputs": [
        {
          "indexed": false,
          "internalType": "bool",
          "name": "success",
          "type": "bool"
        },
        {
          "indexed": false,
          "internalType": "bytes",
          "name": "data",
          "type": "bytes"
        }
      ],
      "name": "Response",
      "type": "event"
    },
    {
      "inputs": [
        {
          "internalType": "string",
          "name": "_name",
          "type": "string"
        },
        {
          "internalType": "uint256",
          "name": "_stakeAmount",
          "type": "uint256"
        },
        {
          "internalType": "bool",
          "name": "_isPublic",
          "type": "bool"
        },
        {
          "internalType": "address",
          "name": "_admin",
          "type": "address"
        },
        {
          "internalType": "address",
          "name": "_testUSDCAddress",
          "type": "address"
        },
        {
          "internalType": "address",
          "name": "_athletesContractAddress",
          "type": "address"
        },
        {
          "internalType": "address",
          "name": "_gameItemsContractAddress",
          "type": "address"
        },
        {
          "internalType": "address[]",
          "name": "_whitelistUsers",
          "type": "address[]"
        }
      ],
      "name": "createLeague",
      "outputs": [
        {
          "internalType": "address",
          "name": "",
          "type": "address"
        }
      ],
      "stateMutability": "nonpayable",
      "type": "function"
    },
    {
      "inputs": [],
      "name": "currentWeek",
      "outputs": [
        {
          "internalType": "uint256",
          "name": "",
          "type": "uint256"
        }
      ],
      "stateMutability": "view",
      "type": "function"
    },
    {
      "inputs": [],
      "name": "getLeagueAddresses",
      "outputs": [
        {
          "internalType": "address[]",
          "name": "",
          "type": "address[]"
        }
      ],
      "stateMutability": "view",
      "type": "function"
    },
    {
      "inputs": [
        {
          "internalType": "address",
          "name": "",
          "type": "address"
        }
      ],
      "name": "isProxyMap",
      "outputs": [
        {
          "internalType": "bool",
          "name": "",
          "type": "bool"
        }
      ],
      "stateMutability": "view",
      "type": "function"
    },
    {
      "inputs": [
        {
          "internalType": "uint256",
          "name": "",
          "type": "uint256"
        }
      ],
      "name": "leagueAddresses",
      "outputs": [
        {
          "internalType": "address",
          "name": "",
          "type": "address"
        }
      ],
      "stateMutability": "view",
      "type": "function"
    },
    {
      "inputs": [],
      "name": "owner",
      "outputs": [
        {
          "internalType": "address",
          "name": "",
          "type": "address"
        }
      ],
      "stateMutability": "view",
      "type": "function"
    },
    {
      "inputs": [],
      "name": "renounceOwnership",
      "outputs": [],
      "stateMutability": "nonpayable",
      "type": "function"
    },
    {
      "inputs": [
        {
          "internalType": "address",
          "name": "logic",
          "type": "address"
        }
      ],
      "name": "setBeacon",
      "outputs": [
        {
          "internalType": "address",
          "name": "",
          "type": "address"
        }
      ],
      "stateMutability": "nonpayable",
      "type": "function"
    },
    {
      "inputs": [
        {
          "internalType": "address",
          "name": "newOwner",
          "type": "address"
        }
      ],
      "name": "transferOwnership",
      "outputs": [],
      "stateMutability": "nonpayable",
      "type": "function"
    },
    {
      "inputs": [
        {
          "internalType": "address",
          "name": "user",
          "type": "address"
        }
      ],
      "name": "updateUserToLeagueMapping",
      "outputs": [],
      "stateMutability": "nonpayable",
      "type": "function"
    },
    {
      "inputs": [
        {
          "internalType": "address",
          "name": "",
          "type": "address"
        },
        {
          "internalType": "uint256",
          "name": "",
          "type": "uint256"
        }
      ],
      "name": "userToLeagueMap",
      "outputs": [
        {
          "internalType": "address",
          "name": "",
          "type": "address"
        }
      ],
      "stateMutability": "view",
      "type": "function"
    }
  ],
  "bytecode": "0x60c0604052600880556000600955732791bca1f2de4661ed88a30c99a7a9449aa84174600a60006101000a81548173ffffffffffffffffffffffffffffffffffffffff021916908373ffffffffffffffffffffffffffffffffffffffff16021790555073eb8f08a975ab53e34d8a0330e0d34de942c95926600b60006101000a81548173ffffffffffffffffffffffffffffffffffffffff021916908373ffffffffffffffffffffffffffffffffffffffff160217905550348015620000c457600080fd5b5060405162006276380380620062768339818101604052810190620000ea9190620002a8565b6200010a620000fe620001b760201b60201c565b620001bf60201b60201c565b80604051620001199062000283565b620001259190620002eb565b604051809103906000f08015801562000142573d6000803e3d6000fd5b5073ffffffffffffffffffffffffffffffffffffffff1660808173ffffffffffffffffffffffffffffffffffffffff1660601b815250503373ffffffffffffffffffffffffffffffffffffffff1660a08173ffffffffffffffffffffffffffffffffffffffff1660601b81525050506200035b565b600033905090565b60008060009054906101000a900473ffffffffffffffffffffffffffffffffffffffff169050816000806101000a81548173ffffffffffffffffffffffffffffffffffffffff021916908373ffffffffffffffffffffffffffffffffffffffff1602179055508173ffffffffffffffffffffffffffffffffffffffff168173ffffffffffffffffffffffffffffffffffffffff167f8be0079c531659141344cd1fd0a4f28419497f9722a3daafe3b4186f6b6457e060405160405180910390a35050565b610a9180620057e583390190565b600081519050620002a28162000341565b92915050565b600060208284031215620002c157620002c06200033c565b5b6000620002d18482850162000291565b91505092915050565b620002e58162000308565b82525050565b6000602082019050620003026000830184620002da565b92915050565b600062000315826200031c565b9050919050565b600073ffffffffffffffffffffffffffffffffffffffff82169050919050565b600080fd5b6200034c8162000308565b81146200035857600080fd5b50565b60805160601c60a05160601c61545e6200038760003960006102b301526000610372015261545e6000f3fe60806040523480156200001157600080fd5b5060043610620000b85760003560e01c80638da5cb5b116200007b5780638da5cb5b14620001775780639c77955b1462000199578063b37cc9f114620001bb578063c3530ff414620001f1578063d42afb561462000227578063f2fde38b146200025d57620000b8565b806306575c8914620000bd5780630b792e4814620000df57806329ffe5e91462000115578063715018a6146200014b578063771bd4ce1462000157575b600080fd5b620000c76200027d565b604051620000d6919062001205565b60405180910390f35b620000fd6004803603810190620000f7919062000c99565b62000283565b6040516200010c919062000ff5565b60405180910390f35b6200013360048036038101906200012d919062000da9565b6200057e565b60405162000142919062000ff5565b60405180910390f35b62000155620005be565b005b6200017560048036038101906200016f919062000c20565b6200064f565b005b6200018162000781565b60405162000190919062000ff5565b60405180910390f35b620001a3620007aa565b604051620001b2919062001046565b60405180910390f35b620001d96004803603810190620001d3919062000c20565b6200083a565b604051620001e891906200106a565b60405180910390f35b6200020f600480360381019062000209919062000c52565b6200085a565b6040516200021e919062000ff5565b60405180910390f35b6200024560048036038101906200023f919062000c20565b620008a9565b60405162000254919062000ff5565b60405180910390f35b6200027b600480360381019062000275919062000c20565b62000931565b005b60095481565b6000808b8b8b8b898c600b60009054906101000a900473ffffffffffffffffffffffffffffffffffffffff168d8c7f000000000000000000000000000000000000000000000000000000000000000030604051602401620002ef9b9a99989796959493929190620010e6565b6040516020818303038152906040527f3c3ae13f000000000000000000000000000000000000000000000000000000007bffffffffffffffffffffffffffffffffffffffffffffffffffffffff19166020820180517bffffffffffffffffffffffffffffffffffffffffffffffffffffffff8381831617835250505050905060007f000000000000000000000000000000000000000000000000000000000000000082604051620003a09062000b01565b620003ad92919062001012565b604051809103906000f080158015620003ca573d6000803e3d6000fd5b5090506004819080600181540180825580915050600190039060005260206000200160009091909190916101000a81548173ffffffffffffffffffffffffffffffffffffffff021916908373ffffffffffffffffffffffffffffffffffffffff160217905550600560003373ffffffffffffffffffffffffffffffffffffffff1673ffffffffffffffffffffffffffffffffffffffff168152602001908152602001600020819080600181540180825580915050600190039060005260206000200160009091909190916101000a81548173ffffffffffffffffffffffffffffffffffffffff021916908373ffffffffffffffffffffffffffffffffffffffff1602179055506001600660008373ffffffffffffffffffffffffffffffffffffffff1673ffffffffffffffffffffffffffffffffffffffff16815260200190815260200160002060006101000a81548160ff0219169083151502179055507f55f20cc44cd266564ce419a146a1cafd9b19bb2e68a296cb675fa17bed72724c8d8d838c8989604051620005639695949392919062001087565b60405180910390a180925050509a9950505050505050505050565b600481815481106200058f57600080fd5b906000526020600020016000915054906101000a900473ffffffffffffffffffffffffffffffffffffffff1681565b620005c862000a35565b73ffffffffffffffffffffffffffffffffffffffff16620005e862000781565b73ffffffffffffffffffffffffffffffffffffffff161462000641576040517f08c379a00000000000000000000000000000000000000000000000000000000081526004016200063890620011e3565b60405180910390fd5b6200064d600062000a3d565b565b600660003373ffffffffffffffffffffffffffffffffffffffff1673ffffffffffffffffffffffffffffffffffffffff16815260200190815260200160002060009054906101000a900460ff16620006de576040517f08c379a0000000000000000000000000000000000000000000000000000000008152600401620006d590620011c1565b60405180910390fd5b600560008273ffffffffffffffffffffffffffffffffffffffff1673ffffffffffffffffffffffffffffffffffffffff168152602001908152602001600020339080600181540180825580915050600190039060005260206000200160009091909190916101000a81548173ffffffffffffffffffffffffffffffffffffffff021916908373ffffffffffffffffffffffffffffffffffffffff16021790555050565b60008060009054906101000a900473ffffffffffffffffffffffffffffffffffffffff16905090565b606060048054806020026020016040519081016040528092919081815260200182805480156200083057602002820191906000526020600020905b8160009054906101000a900473ffffffffffffffffffffffffffffffffffffffff1673ffffffffffffffffffffffffffffffffffffffff1681526020019060010190808311620007e5575b5050505050905090565b60066020528060005260406000206000915054906101000a900460ff1681565b600560205281600052604060002081815481106200087757600080fd5b906000526020600020016000915091509054906101000a900473ffffffffffffffffffffffffffffffffffffffff1681565b60008082604051620008bb9062000b0f565b620008c7919062000ff5565b604051809103906000f080158015620008e4573d6000803e3d6000fd5b50905080600360006101000a81548173ffffffffffffffffffffffffffffffffffffffff021916908373ffffffffffffffffffffffffffffffffffffffff16021790555080915050919050565b6200093b62000a35565b73ffffffffffffffffffffffffffffffffffffffff166200095b62000781565b73ffffffffffffffffffffffffffffffffffffffff1614620009b4576040517f08c379a0000000000000000000000000000000000000000000000000000000008152600401620009ab90620011e3565b60405180910390fd5b600073ffffffffffffffffffffffffffffffffffffffff168173ffffffffffffffffffffffffffffffffffffffff16141562000a27576040517f08c379a000000000000000000000000000000000000000000000000000000000815260040162000a1e906200119f565b60405180910390fd5b62000a328162000a3d565b50565b600033905090565b60008060009054906101000a900473ffffffffffffffffffffffffffffffffffffffff169050816000806101000a81548173ffffffffffffffffffffffffffffffffffffffff021916908373ffffffffffffffffffffffffffffffffffffffff1602179055508173ffffffffffffffffffffffffffffffffffffffff168173ffffffffffffffffffffffffffffffffffffffff167f8be0079c531659141344cd1fd0a4f28419497f9722a3daafe3b4186f6b6457e060405160405180910390a35050565b613511806200148783390190565b610a91806200499883390190565b60008135905062000b2e8162001438565b92915050565b60008083601f84011262000b4d5762000b4c6200134c565b5b8235905067ffffffffffffffff81111562000b6d5762000b6c62001347565b5b60208301915083602082028301111562000b8c5762000b8b62001351565b5b9250929050565b60008135905062000ba48162001452565b92915050565b60008083601f84011262000bc35762000bc26200134c565b5b8235905067ffffffffffffffff81111562000be35762000be262001347565b5b60208301915083600182028301111562000c025762000c0162001351565b5b9250929050565b60008135905062000c1a816200146c565b92915050565b60006020828403121562000c395762000c386200135b565b5b600062000c498482850162000b1d565b91505092915050565b6000806040838503121562000c6c5762000c6b6200135b565b5b600062000c7c8582860162000b1d565b925050602062000c8f8582860162000c09565b9150509250929050565b6000806000806000806000806000806101008b8d03121562000cc05762000cbf6200135b565b5b60008b013567ffffffffffffffff81111562000ce15762000ce062001356565b5b62000cef8d828e0162000baa565b9a509a5050602062000d048d828e0162000c09565b985050604062000d178d828e0162000b93565b975050606062000d2a8d828e0162000b1d565b965050608062000d3d8d828e0162000b1d565b95505060a062000d508d828e0162000b1d565b94505060c062000d638d828e0162000b1d565b93505060e08b013567ffffffffffffffff81111562000d875762000d8662001356565b5b62000d958d828e0162000b34565b92509250509295989b9194979a5092959850565b60006020828403121562000dc25762000dc16200135b565b5b600062000dd28482850162000c09565b91505092915050565b600062000de9838362000df5565b60208301905092915050565b62000e0081620012b8565b82525050565b62000e1181620012b8565b82525050565b600062000e2583856200126c565b935062000e328262001222565b8060005b8581101562000e735762000e4b82846200129f565b62000e57888262000ddb565b975062000e648362001252565b92505060018101905062000e36565b5085925050509392505050565b600062000e8d826200123c565b62000e9981856200126c565b935062000ea6836200122c565b8060005b8381101562000edd57815162000ec1888262000ddb565b975062000ece836200125f565b92505060018101905062000eaa565b5085935050505092915050565b62000ef581620012cc565b82525050565b600062000f088262001247565b62000f1481856200127d565b935062000f2681856020860162001311565b62000f318162001360565b840191505092915050565b600062000f4a83856200128e565b935062000f5983858462001302565b62000f648362001360565b840190509392505050565b600062000f7e6026836200128e565b915062000f8b8262001371565b604082019050919050565b600062000fa56024836200128e565b915062000fb282620013c0565b604082019050919050565b600062000fcc6020836200128e565b915062000fd9826200140f565b602082019050919050565b62000fef81620012f8565b82525050565b60006020820190506200100c600083018462000e06565b92915050565b600060408201905062001029600083018562000e06565b81810360208301526200103d818462000efb565b90509392505050565b6000602082019050818103600083015262001062818462000e80565b905092915050565b600060208201905062001081600083018462000eea565b92915050565b60006080820190508181036000830152620010a481888a62000f3c565b9050620010b5602083018762000e06565b620010c4604083018662000e06565b8181036060830152620010d981848662000e17565b9050979650505050505050565b600061014082019050818103600083015262001104818d8f62000f3c565b905062001115602083018c62000fe4565b62001124604083018b62000eea565b62001133606083018a62000e06565b62001142608083018962000e06565b6200115160a083018862000e06565b6200116060c083018762000e06565b6200116f60e083018662000e06565b6200117f61010083018562000e06565b6200118f61012083018462000e06565b9c9b505050505050505050505050565b60006020820190508181036000830152620011ba8162000f6f565b9050919050565b60006020820190508181036000830152620011dc8162000f96565b9050919050565b60006020820190508181036000830152620011fe8162000fbd565b9050919050565b60006020820190506200121c600083018462000fe4565b92915050565b6000819050919050565b6000819050602082019050919050565b600081519050919050565b600081519050919050565b6000602082019050919050565b6000602082019050919050565b600082825260208201905092915050565b600082825260208201905092915050565b600082825260208201905092915050565b6000620012b0602084018462000b1d565b905092915050565b6000620012c582620012d8565b9050919050565b60008115159050919050565b600073ffffffffffffffffffffffffffffffffffffffff82169050919050565b6000819050919050565b82818337600083830152505050565b60005b838110156200133157808201518184015260208101905062001314565b8381111562001341576000848401525b50505050565b600080fd5b600080fd5b600080fd5b600080fd5b600080fd5b6000601f19601f8301169050919050565b7f4f776e61626c653a206e6577206f776e657220697320746865207a65726f206160008201527f6464726573730000000000000000000000000000000000000000000000000000602082015250565b7f43616c6c6572206973206e6f7420612076616c69642070726f7879206164647260008201527f6573732e00000000000000000000000000000000000000000000000000000000602082015250565b7f4f776e61626c653a2063616c6c6572206973206e6f7420746865206f776e6572600082015250565b6200144381620012b8565b81146200144f57600080fd5b50565b6200145d81620012cc565b81146200146957600080fd5b50565b6200147781620012f8565b81146200148357600080fd5b5056fe608060405260405162003511380380620035118339818101604052810190620000299190620006bb565b620000496200003d620000cf60201b60201c565b620000d760201b60201c565b60017fa3f0ad74e5423aebfd80d3ef4346578335a9a72aeaee59ff6cb3582b35133d5160001c6200007b919062000942565b60001b7fa3f0ad74e5423aebfd80d3ef4346578335a9a72aeaee59ff6cb3582b35133d5060001b14620000b357620000b262000a27565b5b620000c7828260006200019b60201b60201c565b505062000be0565b600033905090565b60008060009054906101000a900473ffffffffffffffffffffffffffffffffffffffff169050816000806101000a81548173ffffffffffffffffffffffffffffffffffffffff021916908373ffffffffffffffffffffffffffffffffffffffff1602179055508173ffffffffffffffffffffffffffffffffffffffff168173ffffffffffffffffffffffffffffffffffffffff167f8be0079c531659141344cd1fd0a4f28419497f9722a3daafe3b4186f6b6457e060405160405180910390a35050565b620001ac83620002a260201b60201c565b8273ffffffffffffffffffffffffffffffffffffffff167f1cf3b03a6cf19fa2baba4df148e9dcabedea7f8a5c07840e207e5c089be95d3e60405160405180910390a2600082511180620001fd5750805b156200029d576200029b8373ffffffffffffffffffffffffffffffffffffffff16635c60da1b6040518163ffffffff1660e01b815260040160206040518083038186803b1580156200024e57600080fd5b505afa15801562000263573d6000803e3d6000fd5b505050506040513d601f19601f8201168201806040525081019062000289919062000689565b836200045160201b620013e41760201c565b505b505050565b620002b8816200048760201b620014111760201c565b620002fa576040517f08c379a0000000000000000000000000000000000000000000000000000000008152600401620002f1906200084b565b60405180910390fd5b620003918173ffffffffffffffffffffffffffffffffffffffff16635c60da1b6040518163ffffffff1660e01b815260040160206040518083038186803b1580156200034557600080fd5b505afa1580156200035a573d6000803e3d6000fd5b505050506040513d601f19601f8201168201806040525081019062000380919062000689565b6200048760201b620014111760201c565b620003d3576040517f08c379a0000000000000000000000000000000000000000000000000000000008152600401620003ca906200088f565b60405180910390fd5b806200040d7fa3f0ad74e5423aebfd80d3ef4346578335a9a72aeaee59ff6cb3582b35133d5060001b6200049a60201b620014241760201c565b60000160006101000a81548173ffffffffffffffffffffffffffffffffffffffff021916908373ffffffffffffffffffffffffffffffffffffffff16021790555050565b60606200047f8383604051806060016040528060278152602001620034ea60279139620004a460201b60201c565b905092915050565b600080823b905060008111915050919050565b6000819050919050565b6060620004b7846200048760201b60201c565b620004f9576040517f08c379a0000000000000000000000000000000000000000000000000000000008152600401620004f0906200086d565b60405180910390fd5b6000808573ffffffffffffffffffffffffffffffffffffffff16856040516200052391906200080e565b600060405180830381855af49150503d806000811462000560576040519150601f19603f3d011682016040523d82523d6000602084013e62000565565b606091505b50915091506200057d8282866200058860201b60201c565b925050509392505050565b606083156200059a57829050620005ed565b600083511115620005ae5782518084602001fd5b816040517f08c379a0000000000000000000000000000000000000000000000000000000008152600401620005e4919062000827565b60405180910390fd5b9392505050565b60006200060b6200060584620008da565b620008b1565b9050828152602081018484840111156200062a576200062962000ab9565b5b62000637848285620009bb565b509392505050565b600081519050620006508162000bc6565b92915050565b600082601f8301126200066e576200066d62000ab4565b5b815162000680848260208601620005f4565b91505092915050565b600060208284031215620006a257620006a162000ac3565b5b6000620006b2848285016200063f565b91505092915050565b60008060408385031215620006d557620006d462000ac3565b5b6000620006e5858286016200063f565b925050602083015167ffffffffffffffff81111562000709576200070862000abe565b5b620007178582860162000656565b9150509250929050565b60006200072e8262000910565b6200073a818562000926565b93506200074c818560208601620009bb565b80840191505092915050565b600062000765826200091b565b62000771818562000931565b935062000783818560208601620009bb565b6200078e8162000ac8565b840191505092915050565b6000620007a860258362000931565b9150620007b58262000ad9565b604082019050919050565b6000620007cf60268362000931565b9150620007dc8262000b28565b604082019050919050565b6000620007f660308362000931565b9150620008038262000b77565b604082019050919050565b60006200081c828462000721565b915081905092915050565b6000602082019050818103600083015262000843818462000758565b905092915050565b60006020820190508181036000830152620008668162000799565b9050919050565b600060208201905081810360008301526200088881620007c0565b9050919050565b60006020820190508181036000830152620008aa81620007e7565b9050919050565b6000620008bd620008d0565b9050620008cb8282620009f1565b919050565b6000604051905090565b600067ffffffffffffffff821115620008f857620008f762000a85565b5b620009038262000ac8565b9050602081019050919050565b600081519050919050565b600081519050919050565b600081905092915050565b600082825260208201905092915050565b60006200094f82620009b1565b91506200095c83620009b1565b92508282101562000972576200097162000a56565b5b828203905092915050565b60006200098a8262000991565b9050919050565b600073ffffffffffffffffffffffffffffffffffffffff82169050919050565b6000819050919050565b60005b83811015620009db578082015181840152602081019050620009be565b83811115620009eb576000848401525b50505050565b620009fc8262000ac8565b810181811067ffffffffffffffff8211171562000a1e5762000a1d62000a85565b5b80604052505050565b7f4e487b7100000000000000000000000000000000000000000000000000000000600052600160045260246000fd5b7f4e487b7100000000000000000000000000000000000000000000000000000000600052601160045260246000fd5b7f4e487b7100000000000000000000000000000000000000000000000000000000600052604160045260246000fd5b600080fd5b600080fd5b600080fd5b600080fd5b6000601f19601f8301169050919050565b7f455243313936373a206e657720626561636f6e206973206e6f74206120636f6e60008201527f7472616374000000000000000000000000000000000000000000000000000000602082015250565b7f416464726573733a2064656c65676174652063616c6c20746f206e6f6e2d636f60008201527f6e74726163740000000000000000000000000000000000000000000000000000602082015250565b7f455243313936373a20626561636f6e20696d706c656d656e746174696f6e206960008201527f73206e6f74206120636f6e747261637400000000000000000000000000000000602082015250565b62000bd1816200097d565b811462000bdd57600080fd5b50565b6128fa8062000bf06000396000f3fe6080604052600436106101fc5760003560e01c80637b9417c81161010d578063a217fddf116100a0578063dc9a15351161006f578063dc9a1535146107b2578063e2ec6ec3146107dd578063e35a89991461081a578063f2fde38b14610857578063f851a440146108805761020b565b8063a217fddf146106f6578063a949a9d714610721578063cff560031461074c578063d547741f146107895761020b565b80638da5cb5b116100dc5780638da5cb5b146106145780639122ce6d1461063f57806391d148541461067c5780639b19251a146106b95761020b565b80637b9417c8146105565780637eed33f114610593578063841abf6e146105be57806384900b04146105e95761020b565b8063286dd3f51161019057806344eaa84e1161015f57806344eaa84e1461049357806352e6e5f3146104be57806360c7dc47146104e95780636cc15ad514610514578063715018a61461053f5761020b565b8063286dd3f5146103c75780632ae6b135146104045780632f2ff15d1461044157806336568abe1461046a5761020b565b80631dd7f8ca116101cc5780631dd7f8ca146102e5578063248a9ca31461031057806324953eaa1461034d578063267175db1461038a5761020b565b8062b2476f1461021557806301ffc9a7146102405780630635dbcb1461027d5780630c6f7959146102a85761020b565b3661020b576102096108ab565b005b6102136108ab565b005b34801561022157600080fd5b5061022a6108c5565b604051610237919061212a565b60405180910390f35b34801561024c57600080fd5b5061026760048036038101906102629190611e95565b6108eb565b6040516102749190612145565b60405180910390f35b34801561028957600080fd5b50610292610965565b60405161029f9190612145565b60405180910390f35b3480156102b457600080fd5b506102cf60048036038101906102ca9190611d9f565b610978565b6040516102dc9190612273565b60405180910390f35b3480156102f157600080fd5b506102fa6109a9565b604051610307919061212a565b60405180910390f35b34801561031c57600080fd5b5061033760048036038101906103329190611e28565b6109cf565b6040516103449190612160565b60405180910390f35b34801561035957600080fd5b50610374600480360381019061036f9190611ddf565b6109ef565b6040516103819190612145565b60405180910390f35b34801561039657600080fd5b506103b160048036038101906103ac9190611ec2565b610abf565b6040516103be919061212a565b60405180910390f35b3480156103d357600080fd5b506103ee60048036038101906103e99190611d45565b610afe565b6040516103fb9190612145565b60405180910390f35b34801561041057600080fd5b5061042b60048036038101906104269190611d45565b610c81565b6040516104389190612273565b60405180910390f35b34801561044d57600080fd5b5061046860048036038101906104639190611e55565b610c99565b005b34801561047657600080fd5b50610491600480360381019061048c9190611e55565b610cc2565b005b34801561049f57600080fd5b506104a8610d45565b6040516104b59190612273565b60405180910390f35b3480156104ca57600080fd5b506104d3610d4f565b6040516104e09190612273565b60405180910390f35b3480156104f557600080fd5b506104fe610d55565b60405161050b9190612273565b60405180910390f35b34801561052057600080fd5b50610529610d5b565b6040516105369190612145565b60405180910390f35b34801561054b57600080fd5b50610554610d6e565b005b34801561056257600080fd5b5061057d60048036038101906105789190611d45565b610df6565b60405161058a9190612145565b60405180910390f35b34801561059f57600080fd5b506105a8610f78565b6040516105b59190612273565b60405180910390f35b3480156105ca57600080fd5b506105d3610f7e565b6040516105e091906121b1565b60405180910390f35b3480156105f557600080fd5b506105fe61100c565b60405161060b9190612196565b60405180910390f35b34801561062057600080fd5b50610629611032565b604051610636919061212a565b60405180910390f35b34801561064b57600080fd5b5061066660048036038101906106619190611d45565b61105b565b6040516106739190612145565b60405180910390f35b34801561068857600080fd5b506106a3600480360381019061069e9190611e55565b61107b565b6040516106b09190612145565b60405180910390f35b3480156106c557600080fd5b506106e060048036038101906106db9190611d45565b6110e6565b6040516106ed9190612145565b60405180910390f35b34801561070257600080fd5b5061070b611106565b6040516107189190612160565b60405180910390f35b34801561072d57600080fd5b5061073661110d565b604051610743919061217b565b60405180910390f35b34801561075857600080fd5b50610773600480360381019061076e9190611d9f565b611133565b6040516107809190612273565b60405180910390f35b34801561079557600080fd5b506107b060048036038101906107ab9190611e55565b611164565b005b3480156107be57600080fd5b506107c761118d565b6040516107d49190612145565b60405180910390f35b3480156107e957600080fd5b5061080460048036038101906107ff9190611ddf565b6111a0565b6040516108119190612145565b60405180910390f35b34801561082657600080fd5b50610841600480360381019061083c9190611d45565b611270565b60405161084e9190612145565b60405180910390f35b34801561086357600080fd5b5061087e60048036038101906108799190611d45565b6112c6565b005b34801561088c57600080fd5b506108956113be565b6040516108a2919061212a565b60405180910390f35b6108b361142e565b6108c36108be611430565b6114bc565b565b601360009054906101000a900473ffffffffffffffffffffffffffffffffffffffff1681565b60007f7965db0b000000000000000000000000000000000000000000000000000000007bffffffffffffffffffffffffffffffffffffffffffffffffffffffff1916827bffffffffffffffffffffffffffffffffffffffffffffffffffffffff1916148061095e575061095d826114e2565b5b9050919050565b600a60159054906101000a900460ff1681565b600c602052816000526040600020818154811061099457600080fd5b90600052602060002001600091509150505481565b600a60009054906101000a900473ffffffffffffffffffffffffffffffffffffffff1681565b600060016000838152602001908152602001600020600101549050919050565b60006109f961154c565b73ffffffffffffffffffffffffffffffffffffffff16610a17611032565b73ffffffffffffffffffffffffffffffffffffffff1614610a6d576040517f08c379a0000000000000000000000000000000000000000000000000000000008152600401610a6490612213565b60405180910390fd5b60005b8251811015610ab957610a9c838281518110610a8f57610a8e61262d565b5b6020026020010151610afe565b15610aa657600191505b8080610ab190612586565b915050610a70565b50919050565b60108181548110610acf57600080fd5b906000526020600020016000915054906101000a900473ffffffffffffffffffffffffffffffffffffffff1681565b6000610b0861154c565b73ffffffffffffffffffffffffffffffffffffffff16610b26611032565b73ffffffffffffffffffffffffffffffffffffffff1614610b7c576040517f08c379a0000000000000000000000000000000000000000000000000000000008152600401610b7390612213565b60405180910390fd5b600260008373ffffffffffffffffffffffffffffffffffffffff1673ffffffffffffffffffffffffffffffffffffffff16815260200190815260200160002060009054906101000a900460ff1615610c7c576000600260008473ffffffffffffffffffffffffffffffffffffffff1673ffffffffffffffffffffffffffffffffffffffff16815260200190815260200160002060006101000a81548160ff0219169083151502179055507ff1abf01a1043b7c244d128e8595cf0c1d10743b022b03a02dffd8ca3bf729f5a82604051610c55919061212a565b60405180910390a1600160036000828254610c7091906123cc565b92505081905550600190505b919050565b600e6020528060005260406000206000915090505481565b610ca2826109cf565b610cb381610cae61154c565b611554565b610cbd83836115f1565b505050565b610cca61154c565b73ffffffffffffffffffffffffffffffffffffffff168173ffffffffffffffffffffffffffffffffffffffff1614610d37576040517f08c379a0000000000000000000000000000000000000000000000000000000008152600401610d2e90612253565b60405180910390fd5b610d4182826116d1565b5050565b6000600354905090565b60085481565b60075481565b600a60149054906101000a900460ff1681565b610d7661154c565b73ffffffffffffffffffffffffffffffffffffffff16610d94611032565b73ffffffffffffffffffffffffffffffffffffffff1614610dea576040517f08c379a0000000000000000000000000000000000000000000000000000000008152600401610de190612213565b60405180910390fd5b610df460006117b3565b565b6000610e0061154c565b73ffffffffffffffffffffffffffffffffffffffff16610e1e611032565b73ffffffffffffffffffffffffffffffffffffffff1614610e74576040517f08c379a0000000000000000000000000000000000000000000000000000000008152600401610e6b90612213565b60405180910390fd5b600260008373ffffffffffffffffffffffffffffffffffffffff1673ffffffffffffffffffffffffffffffffffffffff16815260200190815260200160002060009054906101000a900460ff16610f73576001600260008473ffffffffffffffffffffffffffffffffffffffff1673ffffffffffffffffffffffffffffffffffffffff16815260200190815260200160002060006101000a81548160ff0219169083151502179055507fd1bba68c128cc3f427e5831b3c6f99f480b6efa6b9e80c757768f6124158cc3f82604051610f4c919061212a565b60405180910390a1600160036000828254610f67919061231c565b92505081905550600190505b919050565b60065481565b60058054610f8b90612523565b80601f0160208091040260200160405190810160405280929190818152602001828054610fb790612523565b80156110045780601f10610fd957610100808354040283529160200191611004565b820191906000526020600020905b815481529060010190602001808311610fe757829003601f168201915b505050505081565b601560009054906101000a900473ffffffffffffffffffffffffffffffffffffffff1681565b60008060009054906101000a900473ffffffffffffffffffffffffffffffffffffffff16905090565b600f6020528060005260406000206000915054906101000a900460ff1681565b60006001600084815260200190815260200160002060000160008373ffffffffffffffffffffffffffffffffffffffff1673ffffffffffffffffffffffffffffffffffffffff16815260200190815260200160002060009054906101000a900460ff16905092915050565b60026020528060005260406000206000915054906101000a900460ff1681565b6000801b81565b601760009054906101000a900473ffffffffffffffffffffffffffffffffffffffff1681565b600d602052816000526040600020818154811061114f57600080fd5b90600052602060002001600091509150505481565b61116d826109cf565b61117e8161117961154c565b611554565b61118883836116d1565b505050565b600460009054906101000a900460ff1681565b60006111aa61154c565b73ffffffffffffffffffffffffffffffffffffffff166111c8611032565b73ffffffffffffffffffffffffffffffffffffffff161461121e576040517f08c379a000000000000000000000000000000000000000000000000000000000815260040161121590612213565b60405180910390fd5b60005b825181101561126a5761124d8382815181106112405761123f61262d565b5b6020026020010151610df6565b1561125757600191505b808061126290612586565b915050611221565b50919050565b6000600260008373ffffffffffffffffffffffffffffffffffffffff1673ffffffffffffffffffffffffffffffffffffffff16815260200190815260200160002060009054906101000a900460ff169050919050565b6112ce61154c565b73ffffffffffffffffffffffffffffffffffffffff166112ec611032565b73ffffffffffffffffffffffffffffffffffffffff1614611342576040517f08c379a000000000000000000000000000000000000000000000000000000000815260040161133990612213565b60405180910390fd5b600073ffffffffffffffffffffffffffffffffffffffff168173ffffffffffffffffffffffffffffffffffffffff1614156113b2576040517f08c379a00000000000000000000000000000000000000000000000000000000081526004016113a9906121f3565b60405180910390fd5b6113bb816117b3565b50565b600960009054906101000a900473ffffffffffffffffffffffffffffffffffffffff1681565b6060611409838360405180606001604052806027815260200161289e60279139611877565b905092915050565b600080823b905060008111915050919050565b6000819050919050565b565b600061143a611944565b73ffffffffffffffffffffffffffffffffffffffff16635c60da1b6040518163ffffffff1660e01b815260040160206040518083038186803b15801561147f57600080fd5b505afa158015611493573d6000803e3d6000fd5b505050506040513d601f19601f820116820180604052508101906114b79190611d72565b905090565b3660008037600080366000845af43d6000803e80600081146114dd573d6000f35b3d6000fd5b60007f01ffc9a7000000000000000000000000000000000000000000000000000000007bffffffffffffffffffffffffffffffffffffffffffffffffffffffff1916827bffffffffffffffffffffffffffffffffffffffffffffffffffffffff1916149050919050565b600033905090565b61155e828261107b565b6115ed576115838173ffffffffffffffffffffffffffffffffffffffff16601461199b565b6115918360001c602061199b565b6040516020016115a29291906120f0565b6040516020818303038152906040526040517f08c379a00000000000000000000000000000000000000000000000000000000081526004016115e491906121b1565b60405180910390fd5b5050565b6115fb828261107b565b6116cd57600180600084815260200190815260200160002060000160008373ffffffffffffffffffffffffffffffffffffffff1673ffffffffffffffffffffffffffffffffffffffff16815260200190815260200160002060006101000a81548160ff02191690831515021790555061167261154c565b73ffffffffffffffffffffffffffffffffffffffff168173ffffffffffffffffffffffffffffffffffffffff16837f2f8788117e7eff1d82e926ec794901d17c78024a50270940304540a733656f0d60405160405180910390a45b5050565b6116db828261107b565b156117af5760006001600084815260200190815260200160002060000160008373ffffffffffffffffffffffffffffffffffffffff1673ffffffffffffffffffffffffffffffffffffffff16815260200190815260200160002060006101000a81548160ff02191690831515021790555061175461154c565b73ffffffffffffffffffffffffffffffffffffffff168173ffffffffffffffffffffffffffffffffffffffff16837ff6391f5c32d9c69d2a47ea670b442974b53935d1edc7fd64eb21e047a839171b60405160405180910390a45b5050565b60008060009054906101000a900473ffffffffffffffffffffffffffffffffffffffff169050816000806101000a81548173ffffffffffffffffffffffffffffffffffffffff021916908373ffffffffffffffffffffffffffffffffffffffff1602179055508173ffffffffffffffffffffffffffffffffffffffff168173ffffffffffffffffffffffffffffffffffffffff167f8be0079c531659141344cd1fd0a4f28419497f9722a3daafe3b4186f6b6457e060405160405180910390a35050565b606061188284611411565b6118c1576040517f08c379a00000000000000000000000000000000000000000000000000000000081526004016118b890612233565b60405180910390fd5b6000808573ffffffffffffffffffffffffffffffffffffffff16856040516118e991906120d9565b600060405180830381855af49150503d8060008114611924576040519150601f19603f3d011682016040523d82523d6000602084013e611929565b606091505b5091509150611939828286611bd7565b925050509392505050565b60006119727fa3f0ad74e5423aebfd80d3ef4346578335a9a72aeaee59ff6cb3582b35133d5060001b611424565b60000160009054906101000a900473ffffffffffffffffffffffffffffffffffffffff16905090565b6060600060028360026119ae9190612372565b6119b8919061231c565b67ffffffffffffffff8111156119d1576119d061265c565b5b6040519080825280601f01601f191660200182016040528015611a035781602001600182028036833780820191505090505b5090507f300000000000000000000000000000000000000000000000000000000000000081600081518110611a3b57611a3a61262d565b5b60200101907effffffffffffffffffffffffffffffffffffffffffffffffffffffffffffff1916908160001a9053507f780000000000000000000000000000000000000000000000000000000000000081600181518110611a9f57611a9e61262d565b5b60200101907effffffffffffffffffffffffffffffffffffffffffffffffffffffffffffff1916908160001a90535060006001846002611adf9190612372565b611ae9919061231c565b90505b6001811115611b89577f3031323334353637383961626364656600000000000000000000000000000000600f861660108110611b2b57611b2a61262d565b5b1a60f81b828281518110611b4257611b4161262d565b5b60200101907effffffffffffffffffffffffffffffffffffffffffffffffffffffffffffff1916908160001a905350600485901c945080611b82906124f9565b9050611aec565b5060008414611bcd576040517f08c379a0000000000000000000000000000000000000000000000000000000008152600401611bc4906121d3565b60405180910390fd5b8091505092915050565b60608315611be757829050611c37565b600083511115611bfa5782518084602001fd5b816040517f08c379a0000000000000000000000000000000000000000000000000000000008152600401611c2e91906121b1565b60405180910390fd5b9392505050565b6000611c51611c4c846122b3565b61228e565b90508083825260208201905082856020860282011115611c7457611c73612690565b5b60005b85811015611ca45781611c8a8882611cae565b845260208401935060208301925050600181019050611c77565b5050509392505050565b600081359050611cbd81612841565b92915050565b600081519050611cd281612841565b92915050565b600082601f830112611ced57611cec61268b565b5b8135611cfd848260208601611c3e565b91505092915050565b600081359050611d1581612858565b92915050565b600081359050611d2a8161286f565b92915050565b600081359050611d3f81612886565b92915050565b600060208284031215611d5b57611d5a61269a565b5b6000611d6984828501611cae565b91505092915050565b600060208284031215611d8857611d8761269a565b5b6000611d9684828501611cc3565b91505092915050565b60008060408385031215611db657611db561269a565b5b6000611dc485828601611cae565b9250506020611dd585828601611d30565b9150509250929050565b600060208284031215611df557611df461269a565b5b600082013567ffffffffffffffff811115611e1357611e12612695565b5b611e1f84828501611cd8565b91505092915050565b600060208284031215611e3e57611e3d61269a565b5b6000611e4c84828501611d06565b91505092915050565b60008060408385031215611e6c57611e6b61269a565b5b6000611e7a85828601611d06565b9250506020611e8b85828601611cae565b9150509250929050565b600060208284031215611eab57611eaa61269a565b5b6000611eb984828501611d1b565b91505092915050565b600060208284031215611ed857611ed761269a565b5b6000611ee684828501611d30565b91505092915050565b611ef881612400565b82525050565b611f0781612412565b82525050565b611f168161241e565b82525050565b6000611f27826122df565b611f3181856122f5565b9350611f418185602086016124c6565b80840191505092915050565b611f568161247e565b82525050565b611f6581612490565b82525050565b6000611f76826122ea565b611f808185612300565b9350611f908185602086016124c6565b611f998161269f565b840191505092915050565b6000611faf826122ea565b611fb98185612311565b9350611fc98185602086016124c6565b80840191505092915050565b6000611fe2602083612300565b9150611fed826126b0565b602082019050919050565b6000612005602683612300565b9150612010826126d9565b604082019050919050565b6000612028602083612300565b915061203382612728565b602082019050919050565b600061204b602683612300565b915061205682612751565b604082019050919050565b600061206e601783612311565b9150612079826127a0565b601782019050919050565b6000612091601183612311565b915061209c826127c9565b601182019050919050565b60006120b4602f83612300565b91506120bf826127f2565b604082019050919050565b6120d381612474565b82525050565b60006120e58284611f1c565b915081905092915050565b60006120fb82612061565b91506121078285611fa4565b915061211282612084565b915061211e8284611fa4565b91508190509392505050565b600060208201905061213f6000830184611eef565b92915050565b600060208201905061215a6000830184611efe565b92915050565b60006020820190506121756000830184611f0d565b92915050565b60006020820190506121906000830184611f4d565b92915050565b60006020820190506121ab6000830184611f5c565b92915050565b600060208201905081810360008301526121cb8184611f6b565b905092915050565b600060208201905081810360008301526121ec81611fd5565b9050919050565b6000602082019050818103600083015261220c81611ff8565b9050919050565b6000602082019050818103600083015261222c8161201b565b9050919050565b6000602082019050818103600083015261224c8161203e565b9050919050565b6000602082019050818103600083015261226c816120a7565b9050919050565b600060208201905061228860008301846120ca565b92915050565b60006122986122a9565b90506122a48282612555565b919050565b6000604051905090565b600067ffffffffffffffff8211156122ce576122cd61265c565b5b602082029050602081019050919050565b600081519050919050565b600081519050919050565b600081905092915050565b600082825260208201905092915050565b600081905092915050565b600061232782612474565b915061233283612474565b9250827fffffffffffffffffffffffffffffffffffffffffffffffffffffffffffffffff03821115612367576123666125cf565b5b828201905092915050565b600061237d82612474565b915061238883612474565b9250817fffffffffffffffffffffffffffffffffffffffffffffffffffffffffffffffff04831182151516156123c1576123c06125cf565b5b828202905092915050565b60006123d782612474565b91506123e283612474565b9250828210156123f5576123f46125cf565b5b828203905092915050565b600061240b82612454565b9050919050565b60008115159050919050565b6000819050919050565b60007fffffffff0000000000000000000000000000000000000000000000000000000082169050919050565b600073ffffffffffffffffffffffffffffffffffffffff82169050919050565b6000819050919050565b6000612489826124a2565b9050919050565b600061249b826124a2565b9050919050565b60006124ad826124b4565b9050919050565b60006124bf82612454565b9050919050565b60005b838110156124e45780820151818401526020810190506124c9565b838111156124f3576000848401525b50505050565b600061250482612474565b91506000821415612518576125176125cf565b5b600182039050919050565b6000600282049050600182168061253b57607f821691505b6020821081141561254f5761254e6125fe565b5b50919050565b61255e8261269f565b810181811067ffffffffffffffff8211171561257d5761257c61265c565b5b80604052505050565b600061259182612474565b91507fffffffffffffffffffffffffffffffffffffffffffffffffffffffffffffffff8214156125c4576125c36125cf565b5b600182019050919050565b7f4e487b7100000000000000000000000000000000000000000000000000000000600052601160045260246000fd5b7f4e487b7100000000000000000000000000000000000000000000000000000000600052602260045260246000fd5b7f4e487b7100000000000000000000000000000000000000000000000000000000600052603260045260246000fd5b7f4e487b7100000000000000000000000000000000000000000000000000000000600052604160045260246000fd5b600080fd5b600080fd5b600080fd5b600080fd5b6000601f19601f8301169050919050565b7f537472696e67733a20686578206c656e67746820696e73756666696369656e74600082015250565b7f4f776e61626c653a206e6577206f776e657220697320746865207a65726f206160008201527f6464726573730000000000000000000000000000000000000000000000000000602082015250565b7f4f776e61626c653a2063616c6c6572206973206e6f7420746865206f776e6572600082015250565b7f416464726573733a2064656c65676174652063616c6c20746f206e6f6e2d636f60008201527f6e74726163740000000000000000000000000000000000000000000000000000602082015250565b7f416363657373436f6e74726f6c3a206163636f756e7420000000000000000000600082015250565b7f206973206d697373696e6720726f6c6520000000000000000000000000000000600082015250565b7f416363657373436f6e74726f6c3a2063616e206f6e6c792072656e6f756e636560008201527f20726f6c657320666f722073656c660000000000000000000000000000000000602082015250565b61284a81612400565b811461285557600080fd5b50565b6128618161241e565b811461286c57600080fd5b50565b61287881612428565b811461288357600080fd5b50565b61288f81612474565b811461289a57600080fd5b5056fe416464726573733a206c6f772d6c6576656c2064656c65676174652063616c6c206661696c6564a2646970667358221220b320e9757eb62f50efbbb6bdbe05f9a74617d7c9d626528b2877b5ca74864c2164736f6c63430008070033416464726573733a206c6f772d6c6576656c2064656c65676174652063616c6c206661696c6564608060405234801561001057600080fd5b5060405162000a9138038062000a91833981810160405281019061003491906101ef565b61005061004561006560201b60201c565b61006d60201b60201c565b61005f8161013160201b60201c565b5061030d565b600033905090565b60008060009054906101000a900473ffffffffffffffffffffffffffffffffffffffff169050816000806101000a81548173ffffffffffffffffffffffffffffffffffffffff021916908373ffffffffffffffffffffffffffffffffffffffff1602179055508173ffffffffffffffffffffffffffffffffffffffff168173ffffffffffffffffffffffffffffffffffffffff167f8be0079c531659141344cd1fd0a4f28419497f9722a3daafe3b4186f6b6457e060405160405180910390a35050565b610144816101c760201b6103781760201c565b610183576040517f08c379a000000000000000000000000000000000000000000000000000000000815260040161017a9061023f565b60405180910390fd5b80600160006101000a81548173ffffffffffffffffffffffffffffffffffffffff021916908373ffffffffffffffffffffffffffffffffffffffff16021790555050565b600080823b905060008111915050919050565b6000815190506101e9816102f6565b92915050565b600060208284031215610205576102046102a2565b5b6000610213848285016101da565b91505092915050565b600061022960338361025f565b9150610234826102a7565b604082019050919050565b600060208201905081810360008301526102588161021c565b9050919050565b600082825260208201905092915050565b600061027b82610282565b9050919050565b600073ffffffffffffffffffffffffffffffffffffffff82169050919050565b600080fd5b7f5570677261646561626c65426561636f6e3a20696d706c656d656e746174696f60008201527f6e206973206e6f74206120636f6e747261637400000000000000000000000000602082015250565b6102ff81610270565b811461030a57600080fd5b50565b610774806200031d6000396000f3fe608060405234801561001057600080fd5b50600436106100575760003560e01c80633659cfe61461005c5780635c60da1b14610078578063715018a6146100965780638da5cb5b146100a0578063f2fde38b146100be575b600080fd5b610076600480360381019061007191906104f8565b6100da565b005b6100806101a5565b60405161008d919061059d565b60405180910390f35b61009e6101cf565b005b6100a8610257565b6040516100b5919061059d565b60405180910390f35b6100d860048036038101906100d391906104f8565b610280565b005b6100e261038b565b73ffffffffffffffffffffffffffffffffffffffff16610100610257565b73ffffffffffffffffffffffffffffffffffffffff1614610156576040517f08c379a000000000000000000000000000000000000000000000000000000000815260040161014d906105f8565b60405180910390fd5b61015f81610393565b8073ffffffffffffffffffffffffffffffffffffffff167fbc7cd75a20ee27fd9adebab32041f755214dbc6bffa90cc0225b39da2e5c2d3b60405160405180910390a250565b6000600160009054906101000a900473ffffffffffffffffffffffffffffffffffffffff16905090565b6101d761038b565b73ffffffffffffffffffffffffffffffffffffffff166101f5610257565b73ffffffffffffffffffffffffffffffffffffffff161461024b576040517f08c379a0000000000000000000000000000000000000000000000000000000008152600401610242906105f8565b60405180910390fd5b610255600061041f565b565b60008060009054906101000a900473ffffffffffffffffffffffffffffffffffffffff16905090565b61028861038b565b73ffffffffffffffffffffffffffffffffffffffff166102a6610257565b73ffffffffffffffffffffffffffffffffffffffff16146102fc576040517f08c379a00000000000000000000000000000000000000000000000000000000081526004016102f3906105f8565b60405180910390fd5b600073ffffffffffffffffffffffffffffffffffffffff168173ffffffffffffffffffffffffffffffffffffffff16141561036c576040517f08c379a0000000000000000000000000000000000000000000000000000000008152600401610363906105b8565b60405180910390fd5b6103758161041f565b50565b600080823b905060008111915050919050565b600033905090565b61039c81610378565b6103db576040517f08c379a00000000000000000000000000000000000000000000000000000000081526004016103d2906105d8565b60405180910390fd5b80600160006101000a81548173ffffffffffffffffffffffffffffffffffffffff021916908373ffffffffffffffffffffffffffffffffffffffff16021790555050565b60008060009054906101000a900473ffffffffffffffffffffffffffffffffffffffff169050816000806101000a81548173ffffffffffffffffffffffffffffffffffffffff021916908373ffffffffffffffffffffffffffffffffffffffff1602179055508173ffffffffffffffffffffffffffffffffffffffff168173ffffffffffffffffffffffffffffffffffffffff167f8be0079c531659141344cd1fd0a4f28419497f9722a3daafe3b4186f6b6457e060405160405180910390a35050565b6000813590506104f281610727565b92915050565b60006020828403121561050e5761050d61065b565b5b600061051c848285016104e3565b91505092915050565b61052e81610629565b82525050565b6000610541602683610618565b915061054c82610660565b604082019050919050565b6000610564603383610618565b915061056f826106af565b604082019050919050565b6000610587602083610618565b9150610592826106fe565b602082019050919050565b60006020820190506105b26000830184610525565b92915050565b600060208201905081810360008301526105d181610534565b9050919050565b600060208201905081810360008301526105f181610557565b9050919050565b600060208201905081810360008301526106118161057a565b9050919050565b600082825260208201905092915050565b60006106348261063b565b9050919050565b600073ffffffffffffffffffffffffffffffffffffffff82169050919050565b600080fd5b7f4f776e61626c653a206e6577206f776e657220697320746865207a65726f206160008201527f6464726573730000000000000000000000000000000000000000000000000000602082015250565b7f5570677261646561626c65426561636f6e3a20696d706c656d656e746174696f60008201527f6e206973206e6f74206120636f6e747261637400000000000000000000000000602082015250565b7f4f776e61626c653a2063616c6c6572206973206e6f7420746865206f776e6572600082015250565b61073081610629565b811461073b57600080fd5b5056fea2646970667358221220f14c1e123fc6650c2510ce92a5938ce8dbd619e20ec5ceb7ad4526f9ccdb6aca64736f6c63430008070033a2646970667358221220b014646ee0ada4a7bfd8950c9dbf1d9bcc1b7c0c4f7f1e71239da0b32685a30464736f6c63430008070033608060405234801561001057600080fd5b5060405162000a9138038062000a91833981810160405281019061003491906101ef565b61005061004561006560201b60201c565b61006d60201b60201c565b61005f8161013160201b60201c565b5061030d565b600033905090565b60008060009054906101000a900473ffffffffffffffffffffffffffffffffffffffff169050816000806101000a81548173ffffffffffffffffffffffffffffffffffffffff021916908373ffffffffffffffffffffffffffffffffffffffff1602179055508173ffffffffffffffffffffffffffffffffffffffff168173ffffffffffffffffffffffffffffffffffffffff167f8be0079c531659141344cd1fd0a4f28419497f9722a3daafe3b4186f6b6457e060405160405180910390a35050565b610144816101c760201b6103781760201c565b610183576040517f08c379a000000000000000000000000000000000000000000000000000000000815260040161017a9061023f565b60405180910390fd5b80600160006101000a81548173ffffffffffffffffffffffffffffffffffffffff021916908373ffffffffffffffffffffffffffffffffffffffff16021790555050565b600080823b905060008111915050919050565b6000815190506101e9816102f6565b92915050565b600060208284031215610205576102046102a2565b5b6000610213848285016101da565b91505092915050565b600061022960338361025f565b9150610234826102a7565b604082019050919050565b600060208201905081810360008301526102588161021c565b9050919050565b600082825260208201905092915050565b600061027b82610282565b9050919050565b600073ffffffffffffffffffffffffffffffffffffffff82169050919050565b600080fd5b7f5570677261646561626c65426561636f6e3a20696d706c656d656e746174696f60008201527f6e206973206e6f74206120636f6e747261637400000000000000000000000000602082015250565b6102ff81610270565b811461030a57600080fd5b50565b610774806200031d6000396000f3fe608060405234801561001057600080fd5b50600436106100575760003560e01c80633659cfe61461005c5780635c60da1b14610078578063715018a6146100965780638da5cb5b146100a0578063f2fde38b146100be575b600080fd5b610076600480360381019061007191906104f8565b6100da565b005b6100806101a5565b60405161008d919061059d565b60405180910390f35b61009e6101cf565b005b6100a8610257565b6040516100b5919061059d565b60405180910390f35b6100d860048036038101906100d391906104f8565b610280565b005b6100e261038b565b73ffffffffffffffffffffffffffffffffffffffff16610100610257565b73ffffffffffffffffffffffffffffffffffffffff1614610156576040517f08c379a000000000000000000000000000000000000000000000000000000000815260040161014d906105f8565b60405180910390fd5b61015f81610393565b8073ffffffffffffffffffffffffffffffffffffffff167fbc7cd75a20ee27fd9adebab32041f755214dbc6bffa90cc0225b39da2e5c2d3b60405160405180910390a250565b6000600160009054906101000a900473ffffffffffffffffffffffffffffffffffffffff16905090565b6101d761038b565b73ffffffffffffffffffffffffffffffffffffffff166101f5610257565b73ffffffffffffffffffffffffffffffffffffffff161461024b576040517f08c379a0000000000000000000000000000000000000000000000000000000008152600401610242906105f8565b60405180910390fd5b610255600061041f565b565b60008060009054906101000a900473ffffffffffffffffffffffffffffffffffffffff16905090565b61028861038b565b73ffffffffffffffffffffffffffffffffffffffff166102a6610257565b73ffffffffffffffffffffffffffffffffffffffff16146102fc576040517f08c379a00000000000000000000000000000000000000000000000000000000081526004016102f3906105f8565b60405180910390fd5b600073ffffffffffffffffffffffffffffffffffffffff168173ffffffffffffffffffffffffffffffffffffffff16141561036c576040517f08c379a0000000000000000000000000000000000000000000000000000000008152600401610363906105b8565b60405180910390fd5b6103758161041f565b50565b600080823b905060008111915050919050565b600033905090565b61039c81610378565b6103db576040517f08c379a00000000000000000000000000000000000000000000000000000000081526004016103d2906105d8565b60405180910390fd5b80600160006101000a81548173ffffffffffffffffffffffffffffffffffffffff021916908373ffffffffffffffffffffffffffffffffffffffff16021790555050565b60008060009054906101000a900473ffffffffffffffffffffffffffffffffffffffff169050816000806101000a81548173ffffffffffffffffffffffffffffffffffffffff021916908373ffffffffffffffffffffffffffffffffffffffff1602179055508173ffffffffffffffffffffffffffffffffffffffff168173ffffffffffffffffffffffffffffffffffffffff167f8be0079c531659141344cd1fd0a4f28419497f9722a3daafe3b4186f6b6457e060405160405180910390a35050565b6000813590506104f281610727565b92915050565b60006020828403121561050e5761050d61065b565b5b600061051c848285016104e3565b91505092915050565b61052e81610629565b82525050565b6000610541602683610618565b915061054c82610660565b604082019050919050565b6000610564603383610618565b915061056f826106af565b604082019050919050565b6000610587602083610618565b9150610592826106fe565b602082019050919050565b60006020820190506105b26000830184610525565b92915050565b600060208201905081810360008301526105d181610534565b9050919050565b600060208201905081810360008301526105f181610557565b9050919050565b600060208201905081810360008301526106118161057a565b9050919050565b600082825260208201905092915050565b60006106348261063b565b9050919050565b600073ffffffffffffffffffffffffffffffffffffffff82169050919050565b600080fd5b7f4f776e61626c653a206e6577206f776e657220697320746865207a65726f206160008201527f6464726573730000000000000000000000000000000000000000000000000000602082015250565b7f5570677261646561626c65426561636f6e3a20696d706c656d656e746174696f60008201527f6e206973206e6f74206120636f6e747261637400000000000000000000000000602082015250565b7f4f776e61626c653a2063616c6c6572206973206e6f7420746865206f776e6572600082015250565b61073081610629565b811461073b57600080fd5b5056fea2646970667358221220f14c1e123fc6650c2510ce92a5938ce8dbd619e20ec5ceb7ad4526f9ccdb6aca64736f6c63430008070033",
  "linkReferences": {},
  "deployedLinkReferences": {}
}