{
  "_format": "hh-sol-artifact-1",
  "contractName": "LeagueOfLegendsLogic",
  "sourceName": "contracts/LeagueOfLegendsLogic.sol",
  "abi": [
    {
      "anonymous": false,
      "inputs": [
        {
          "indexed": true,
          "internalType": "address",
          "name": "previousOwner",
          "type": "address"
        },
        {
          "indexed": true,
          "internalType": "address",
          "name": "newOwner",
          "type": "address"
        }
      ],
      "name": "OwnershipTransferred",
      "type": "event"
    },
    {
      "anonymous": false,
      "inputs": [
        {
          "indexed": false,
          "internalType": "address",
          "name": "sender",
          "type": "address"
        },
        {
          "indexed": false,
          "internalType": "uint256",
          "name": "amount",
          "type": "uint256"
        }
      ],
      "name": "Staked",
      "type": "event"
    },
    {
      "anonymous": false,
      "inputs": [
        {
          "indexed": false,
          "internalType": "address",
          "name": "addr",
          "type": "address"
        }
      ],
      "name": "WhitelistedAddressAdded",
      "type": "event"
    },
    {
      "anonymous": false,
      "inputs": [
        {
          "indexed": false,
          "internalType": "address",
          "name": "addr",
          "type": "address"
        }
      ],
      "name": "WhitelistedAddressRemoved",
      "type": "event"
    },
    {
      "anonymous": false,
      "inputs": [
        {
          "indexed": false,
          "internalType": "address",
          "name": "sender",
          "type": "address"
        },
        {
          "indexed": false,
          "internalType": "address",
          "name": "contractAddress",
          "type": "address"
        }
      ],
      "name": "testUSDCDeployed",
      "type": "event"
    },
    {
      "inputs": [
        {
          "internalType": "address",
          "name": "addr",
          "type": "address"
        }
      ],
      "name": "addAddressToWhitelist",
      "outputs": [
        {
          "internalType": "bool",
          "name": "success",
          "type": "bool"
        }
      ],
      "stateMutability": "nonpayable",
      "type": "function"
    },
    {
      "inputs": [
        {
          "internalType": "address[]",
          "name": "addrs",
          "type": "address[]"
        }
      ],
      "name": "addAddressesToWhitelist",
      "outputs": [
        {
          "internalType": "bool",
          "name": "success",
          "type": "bool"
        }
      ],
      "stateMutability": "nonpayable",
      "type": "function"
    },
    {
      "inputs": [
        {
          "internalType": "address",
          "name": "_userToAdd",
          "type": "address"
        }
      ],
      "name": "addUserToWhitelist",
      "outputs": [],
      "stateMutability": "nonpayable",
      "type": "function"
    },
    {
      "inputs": [],
      "name": "admin",
      "outputs": [
        {
          "internalType": "address",
          "name": "",
          "type": "address"
        }
      ],
      "stateMutability": "view",
      "type": "function"
    },
    {
      "inputs": [
        {
          "internalType": "uint256",
          "name": "currentWeekNum",
          "type": "uint256"
        }
      ],
      "name": "evaluateWeek",
      "outputs": [],
      "stateMutability": "nonpayable",
      "type": "function"
    },
    {
      "inputs": [
        {
          "internalType": "uint256",
          "name": "index",
          "type": "uint256"
        }
      ],
      "name": "getLeagueMember",
      "outputs": [
        {
          "internalType": "address",
          "name": "",
          "type": "address"
        }
      ],
      "stateMutability": "view",
      "type": "function"
    },
    {
      "inputs": [],
      "name": "getNumWhitelisted",
      "outputs": [
        {
          "internalType": "uint256",
          "name": "",
          "type": "uint256"
        }
      ],
      "stateMutability": "view",
      "type": "function"
    },
    {
      "inputs": [
        {
          "internalType": "address",
          "name": "_user",
          "type": "address"
        }
      ],
      "name": "getUserIsWhitelisted",
      "outputs": [
        {
          "internalType": "bool",
          "name": "",
          "type": "bool"
        }
      ],
      "stateMutability": "view",
      "type": "function"
    },
    {
      "inputs": [],
      "name": "getUserRecord",
      "outputs": [
        {
          "internalType": "uint256[8]",
          "name": "",
          "type": "uint256[8]"
        }
      ],
      "stateMutability": "view",
      "type": "function"
    },
    {
      "inputs": [],
      "name": "getUserTotalPts",
      "outputs": [
        {
          "internalType": "uint256",
          "name": "",
          "type": "uint256"
        }
      ],
      "stateMutability": "view",
      "type": "function"
    },
    {
      "inputs": [],
      "name": "getUserUSDCBalance",
      "outputs": [
        {
          "internalType": "uint256",
          "name": "",
          "type": "uint256"
        }
      ],
      "stateMutability": "view",
      "type": "function"
    },
    {
      "inputs": [],
      "name": "getUsersLength",
      "outputs": [
        {
          "internalType": "uint256",
          "name": "",
          "type": "uint256"
        }
      ],
      "stateMutability": "view",
      "type": "function"
    },
    {
      "inputs": [
        {
          "internalType": "address",
          "name": "",
          "type": "address"
        }
      ],
      "name": "inLeague",
      "outputs": [
        {
          "internalType": "bool",
          "name": "",
          "type": "bool"
        }
      ],
      "stateMutability": "view",
      "type": "function"
    },
    {
      "inputs": [
        {
          "internalType": "string",
          "name": "_name",
          "type": "string"
        },
        {
          "internalType": "uint256",
          "name": "_stakeAmount",
          "type": "uint256"
        },
        {
          "internalType": "bool",
          "name": "_isPublic",
          "type": "bool"
        },
        {
          "internalType": "address",
          "name": "_admin",
          "type": "address"
        },
        {
          "internalType": "address[5]",
          "name": "constructorContractAddresses",
          "type": "address[5]"
        },
        {
          "internalType": "address[]",
          "name": "whitelistUsers",
          "type": "address[]"
        }
      ],
      "name": "initialize",
      "outputs": [],
      "stateMutability": "nonpayable",
      "type": "function"
    },
    {
      "inputs": [],
      "name": "isPublic",
      "outputs": [
        {
          "internalType": "bool",
          "name": "",
          "type": "bool"
        }
      ],
      "stateMutability": "view",
      "type": "function"
    },
    {
      "inputs": [],
      "name": "joinLeague",
      "outputs": [],
      "stateMutability": "nonpayable",
      "type": "function"
    },
    {
      "inputs": [
        {
          "internalType": "uint256",
          "name": "",
          "type": "uint256"
        }
      ],
      "name": "leagueMembers",
      "outputs": [
        {
          "internalType": "address",
          "name": "",
          "type": "address"
        }
      ],
      "stateMutability": "view",
      "type": "function"
    },
    {
      "inputs": [],
      "name": "leagueName",
      "outputs": [
        {
          "internalType": "string",
          "name": "",
          "type": "string"
        }
      ],
      "stateMutability": "view",
      "type": "function"
    },
    {
      "inputs": [],
      "name": "lockLineup",
      "outputs": [],
      "stateMutability": "nonpayable",
      "type": "function"
    },
    {
      "inputs": [],
      "name": "numWeeks",
      "outputs": [
        {
          "internalType": "uint256",
          "name": "",
          "type": "uint256"
        }
      ],
      "stateMutability": "view",
      "type": "function"
    },
    {
      "inputs": [],
      "name": "onLeagueEnd",
      "outputs": [],
      "stateMutability": "nonpayable",
      "type": "function"
    },
    {
      "inputs": [],
      "name": "owner",
      "outputs": [
        {
          "internalType": "address",
          "name": "",
          "type": "address"
        }
      ],
      "stateMutability": "view",
      "type": "function"
    },
    {
      "inputs": [],
      "name": "polygonUSDCAddress",
      "outputs": [
        {
          "internalType": "address",
          "name": "",
          "type": "address"
        }
      ],
      "stateMutability": "view",
      "type": "function"
    },
    {
      "inputs": [
        {
          "internalType": "address",
          "name": "addr",
          "type": "address"
        }
      ],
      "name": "removeAddressFromWhitelist",
      "outputs": [
        {
          "internalType": "bool",
          "name": "success",
          "type": "bool"
        }
      ],
      "stateMutability": "nonpayable",
      "type": "function"
    },
    {
      "inputs": [
        {
          "internalType": "address[]",
          "name": "addrs",
          "type": "address[]"
        }
      ],
      "name": "removeAddressesFromWhitelist",
      "outputs": [
        {
          "internalType": "bool",
          "name": "success",
          "type": "bool"
        }
      ],
      "stateMutability": "nonpayable",
      "type": "function"
    },
    {
      "inputs": [
        {
          "internalType": "address",
          "name": "_userToRemove",
          "type": "address"
        }
      ],
      "name": "removeFromWhitelist",
      "outputs": [],
      "stateMutability": "nonpayable",
      "type": "function"
    },
    {
      "inputs": [],
      "name": "renounceOwnership",
      "outputs": [],
      "stateMutability": "nonpayable",
      "type": "function"
    },
    {
      "inputs": [],
      "name": "rinkebyUSDCAddress",
      "outputs": [
        {
          "internalType": "address",
          "name": "",
          "type": "address"
        }
      ],
      "stateMutability": "view",
      "type": "function"
    },
    {
      "inputs": [],
      "name": "setLeagueEntryIsClosed",
      "outputs": [],
      "stateMutability": "nonpayable",
      "type": "function"
    },
    {
      "inputs": [],
      "name": "setLeagueSchedule",
      "outputs": [],
      "stateMutability": "nonpayable",
      "type": "function"
    },
    {
      "inputs": [
        {
          "internalType": "uint256[]",
          "name": "athleteIds",
          "type": "uint256[]"
        }
      ],
      "name": "setLineup",
      "outputs": [],
      "stateMutability": "nonpayable",
      "type": "function"
    },
    {
      "inputs": [],
      "name": "stakeAmount",
      "outputs": [
        {
          "internalType": "uint256",
          "name": "",
          "type": "uint256"
        }
      ],
      "stateMutability": "view",
      "type": "function"
    },
    {
      "inputs": [
        {
          "internalType": "address",
          "name": "newOwner",
          "type": "address"
        }
      ],
      "name": "transferOwnership",
      "outputs": [],
      "stateMutability": "nonpayable",
      "type": "function"
    },
    {
      "inputs": [],
      "name": "unlockLineup",
      "outputs": [],
      "stateMutability": "nonpayable",
      "type": "function"
    },
    {
      "inputs": [
        {
          "internalType": "address",
          "name": "",
          "type": "address"
        },
        {
          "internalType": "uint256",
          "name": "",
          "type": "uint256"
        }
      ],
      "name": "userToLineup",
      "outputs": [
        {
          "internalType": "uint256",
          "name": "",
          "type": "uint256"
        }
      ],
      "stateMutability": "view",
      "type": "function"
    },
    {
      "inputs": [
        {
          "internalType": "address",
          "name": "",
          "type": "address"
        },
        {
          "internalType": "uint256",
          "name": "",
          "type": "uint256"
        }
      ],
      "name": "userToRecord",
      "outputs": [
        {
          "internalType": "uint256",
          "name": "",
          "type": "uint256"
        }
      ],
      "stateMutability": "view",
      "type": "function"
    },
    {
      "inputs": [
        {
          "internalType": "address",
          "name": "",
          "type": "address"
        }
      ],
      "name": "userToTotalWins",
      "outputs": [
        {
          "internalType": "uint256",
          "name": "",
          "type": "uint256"
        }
      ],
      "stateMutability": "view",
      "type": "function"
    },
    {
      "inputs": [
        {
          "internalType": "address",
          "name": "",
          "type": "address"
        }
      ],
      "name": "whitelist",
      "outputs": [
        {
          "internalType": "bool",
          "name": "",
          "type": "bool"
        }
      ],
      "stateMutability": "view",
      "type": "function"
    }
  ],
  "bytecode": "0x60806040523480156200001157600080fd5b5062000032620000266200004060201b60201c565b6200004860201b60201c565b60016004819055506200010d565b600033905090565b60008060029054906101000a900473ffffffffffffffffffffffffffffffffffffffff16905081600060026101000a81548173ffffffffffffffffffffffffffffffffffffffff021916908373ffffffffffffffffffffffffffffffffffffffff1602179055508173ffffffffffffffffffffffffffffffffffffffff168173ffffffffffffffffffffffffffffffffffffffff167f8be0079c531659141344cd1fd0a4f28419497f9722a3daafe3b4186f6b6457e060405160405180910390a35050565b61559a806200011d6000396000f3fe60806040523480156200001157600080fd5b50600436106200025b5760003560e01c80638ab1d681116200014d578063cff5600311620000c9578063edcbe96c1162000087578063edcbe96c14620006c6578063f2fde38b14620006fc578063f612121a146200071c578063f851a440146200073c578063f8816045146200075e576200025b565b8063cff5600314620005f6578063dc9a1535146200062c578063e2ec6ec3146200064e578063e35a89991462000684578063e4c9066b14620006ba576200025b565b80639b19251a11620001175780639b19251a146200057c5780639f2d548114620005b2578063a2bc091a14620005d2578063c8be3b5b14620005de578063c99fea9414620005ea576200025b565b80638ab1d68114620004e25780638da5cb5b14620005025780639122ce6d146200052457806393f3706c146200055a576200025b565b8063595b1a3e11620001dd578063715018a611620001a7578063715018a6146200043c578063747b805014620004485780637b9417c814620004685780637eed33f1146200049e578063841abf6e14620004c0576200025b565b8063595b1a3e14620003b45780635fcc698714620003d657806360c7dc4714620003f85780636bdc44df146200041a576200025b565b806324953eaa116200022b57806324953eaa14620002d0578063267175db146200030657806326f07a25146200033c578063286dd3f5146200035c57806344eaa84e1462000392576200025b565b8062b2476f14620002605780630655465a14620002825780630c6f7959146200028e5780631d803e0014620002c4575b600080fd5b6200026a62000780565b604051620002799190620038c0565b60405180910390f35b6200028c620007a6565b005b620002ac6004803603810190620002a69190620031d2565b6200085e565b604051620002bb919062003c69565b60405180910390f35b620002ce62000887565b005b620002ee6004803603810190620002e8919062003219565b62000bb8565b604051620002fd91906200398b565b60405180910390f35b6200032460048036038101906200031e9190620033d3565b62000cb5565b604051620003339190620038c0565b60405180910390f35b6200035a6004803603810190620003549190620032ed565b62000cf5565b005b6200037a6004803603810190620003749190620031a0565b620012d7565b6040516200038991906200398b565b60405180910390f35b6200039c62001466565b604051620003ab919062003c69565b60405180910390f35b620003be62001470565b604051620003cd919062003c69565b60405180910390f35b620003e06200147d565b604051620003ef919062003c69565b60405180910390f35b620004026200158c565b60405162000411919062003c69565b60405180910390f35b6200042462001592565b60405162000433919062003c69565b60405180910390f35b62000446620015d9565b005b620004666004803603810190620004609190620031a0565b6200166a565b005b620004866004803603810190620004809190620031a0565b620017b4565b6040516200049591906200398b565b60405180910390f35b620004a862001941565b604051620004b7919062003c69565b60405180910390f35b620004ca62001947565b604051620004d9919062003a69565b60405180910390f35b620005006004803603810190620004fa9190620031a0565b620019dd565b005b6200050c62001b7a565b6040516200051b9190620038c0565b60405180910390f35b6200054260048036038101906200053c9190620031a0565b62001ba3565b6040516200055191906200398b565b60405180910390f35b6200056462001bc3565b604051620005739190620038c0565b60405180910390f35b6200059a6004803603810190620005949190620031a0565b62001be9565b604051620005a991906200398b565b60405180910390f35b620005d06004803603810190620005ca9190620033d3565b62001c09565b005b620005dc62001d2a565b005b620005e862001dca565b005b620005f462001e6a565b005b6200061460048036038101906200060e9190620031d2565b620022f8565b60405162000623919062003c69565b60405180910390f35b620006366200232a565b6040516200064591906200398b565b60405180910390f35b6200066c600480360381019062000666919062003219565b6200233d565b6040516200067b91906200398b565b60405180910390f35b620006a260048036038101906200069c9190620031a0565b6200243a565b604051620006b191906200398b565b60405180910390f35b620006c462002490565b005b620006e46004803603810190620006de9190620031a0565b62002530565b604051620006f3919062003c69565b60405180910390f35b6200071a6004803603810190620007149190620031a0565b62002548565b005b6200073a60048036038101906200073491906200326a565b6200264c565b005b6200074662002b40565b604051620007559190620038c0565b60405180910390f35b6200076862002b66565b6040516200077791906200396d565b60405180910390f35b601260009054906101000a900473ffffffffffffffffffffffffffffffffffffffff1681565b620007e66040518060400160405280601081526020017f73657474696e67207363686564756c650000000000000000000000000000000081525062002bf2565b73__$36fdb4e0c2cb91f3ceca5ea81b025328f3$__63d2c232b56010600f60065460056040518563ffffffff1660e01b81526004016200082a9493929190620039a8565b60006040518083038186803b1580156200084357600080fd5b505af415801562000858573d6000803e3d6000fd5b50505050565b600b60205281600052604060002081600881106200087b57600080fd5b01600091509150505481565b6200089162002c8f565b73ffffffffffffffffffffffffffffffffffffffff16620008b162001b7a565b73ffffffffffffffffffffffffffffffffffffffff16146200090a576040517f08c379a0000000000000000000000000000000000000000000000000000000008152600401620009019062003b7b565b60405180910390fd5b6002600454141562000953576040517f08c379a00000000000000000000000000000000000000000000000000000000081526004016200094a9062003c25565b60405180910390fd5b60026004819055506000600f8054905060075462000972919062003e1a565b90506000600f6000815481106200098e576200098d620040b9565b5b9060005260206000200160009054906101000a900473ffffffffffffffffffffffffffffffffffffffff1690506000600190505b600f8054905081101562000af357600a60008373ffffffffffffffffffffffffffffffffffffffff1673ffffffffffffffffffffffffffffffffffffffff16815260200190815260200160002054600a6000600f848154811062000a2b5762000a2a620040b9565b5b9060005260206000200160009054906101000a900473ffffffffffffffffffffffffffffffffffffffff1673ffffffffffffffffffffffffffffffffffffffff1673ffffffffffffffffffffffffffffffffffffffff16815260200190815260200160002054111562000add57600f818154811062000aaf5762000aae620040b9565b5b9060005260206000200160009054906101000a900473ffffffffffffffffffffffffffffffffffffffff1691505b808062000aea906200400d565b915050620009c2565b50601660009054906101000a900473ffffffffffffffffffffffffffffffffffffffff1673ffffffffffffffffffffffffffffffffffffffff166323b872dd3083856040518463ffffffff1660e01b815260040162000b5593929190620038dd565b602060405180830381600087803b15801562000b7057600080fd5b505af115801562000b85573d6000803e3d6000fd5b505050506040513d601f19601f8201168201806040525081019062000bab9190620032bb565b5050506001600481905550565b600062000bc462002c8f565b73ffffffffffffffffffffffffffffffffffffffff1662000be462001b7a565b73ffffffffffffffffffffffffffffffffffffffff161462000c3d576040517f08c379a000000000000000000000000000000000000000000000000000000000815260040162000c349062003b7b565b60405180910390fd5b60005b825181101562000caf5762000c7283828151811062000c645762000c63620040b9565b5b6020026020010151620012d7565b1562000c995760016002600082825462000c8d919062003e7b565b92505081905550600191505b808062000ca6906200400d565b91505062000c40565b50919050565b600f818154811062000cc657600080fd5b906000526020600020016000915054906101000a900473ffffffffffffffffffffffffffffffffffffffff1681565b600060019054906101000a900460ff1662000d1f5760008054906101000a900460ff161562000d2a565b62000d2962002c97565b5b62000d6c576040517f08c379a000000000000000000000000000000000000000000000000000000000815260040162000d639062003b59565b60405180910390fd5b60008060019054906101000a900460ff16159050801562000dbd576001600060016101000a81548160ff02191690831515021790555060016000806101000a81548160ff0219169083151502179055505b88886005919062000dd092919062002dbb565b5060086006819055506001600e60008773ffffffffffffffffffffffffffffffffffffffff1673ffffffffffffffffffffffffffffffffffffffff16815260200190815260200160002060006101000a81548160ff021916908315150217905550600f859080600181540180825580915050600190039060005260206000200160009091909190916101000a81548173ffffffffffffffffffffffffffffffffffffffff021916908373ffffffffffffffffffffffffffffffffffffffff16021790555084600860006101000a81548173ffffffffffffffffffffffffffffffffffffffff021916908373ffffffffffffffffffffffffffffffffffffffff1602179055508660078190555085600360006101000a81548160ff0219169083151502179055506000600960156101000a81548160ff0219169083151502179055506000600960146101000a81548160ff0219169083151502179055508360036005811062000f435762000f42620040b9565b5b60200201602081019062000f589190620031a0565b601360006101000a81548173ffffffffffffffffffffffffffffffffffffffff021916908373ffffffffffffffffffffffffffffffffffffffff1602179055508360046005811062000faf5762000fae620040b9565b5b60200201602081019062000fc49190620031a0565b601560006101000a81548173ffffffffffffffffffffffffffffffffffffffff021916908373ffffffffffffffffffffffffffffffffffffffff160217905550604051620010129062002e4c565b604051809103906000f0801580156200102f573d6000803e3d6000fd5b50601460006101000a81548173ffffffffffffffffffffffffffffffffffffffff021916908373ffffffffffffffffffffffffffffffffffffffff160217905550601460009054906101000a900473ffffffffffffffffffffffffffffffffffffffff1673ffffffffffffffffffffffffffffffffffffffff1663e2ec6ec384846040518363ffffffff1660e01b8152600401620010cf92919062003947565b602060405180830381600087803b158015620010ea57600080fd5b505af1158015620010ff573d6000803e3d6000fd5b505050506040513d601f19601f82011682018060405250810190620011259190620032bb565b50836000600581106200113d576200113c620040b9565b5b602002016020810190620011529190620031a0565b601160006101000a81548173ffffffffffffffffffffffffffffffffffffffff021916908373ffffffffffffffffffffffffffffffffffffffff16021790555083600160058110620011a957620011a8620040b9565b5b602002016020810190620011be9190620031a0565b601260006101000a81548173ffffffffffffffffffffffffffffffffffffffff021916908373ffffffffffffffffffffffffffffffffffffffff16021790555083600260058110620012155762001214620040b9565b5b6020020160208101906200122a9190620031a0565b601660006101000a81548173ffffffffffffffffffffffffffffffffffffffff021916908373ffffffffffffffffffffffffffffffffffffffff160217905550620012aa6040518060400160405280601281526020017f50726f787920696e697469616c697a656421000000000000000000000000000081525062002bf2565b8015620012cc5760008060016101000a81548160ff0219169083151502179055505b505050505050505050565b6000620012e362002c8f565b73ffffffffffffffffffffffffffffffffffffffff166200130362001b7a565b73ffffffffffffffffffffffffffffffffffffffff16146200135c576040517f08c379a0000000000000000000000000000000000000000000000000000000008152600401620013539062003b7b565b60405180910390fd5b600160008373ffffffffffffffffffffffffffffffffffffffff1673ffffffffffffffffffffffffffffffffffffffff16815260200190815260200160002060009054906101000a900460ff161562001461576000600160008473ffffffffffffffffffffffffffffffffffffffff1673ffffffffffffffffffffffffffffffffffffffff16815260200190815260200160002060006101000a81548160ff0219169083151502179055507ff1abf01a1043b7c244d128e8595cf0c1d10743b022b03a02dffd8ca3bf729f5a82604051620014389190620038c0565b60405180910390a160016002600082825462001455919062003e7b565b92505081905550600190505b919050565b6000600254905090565b6000600f80549050905090565b6000600e60003373ffffffffffffffffffffffffffffffffffffffff1673ffffffffffffffffffffffffffffffffffffffff16815260200190815260200160002060009054906101000a900460ff16620014d657600080fd5b601660009054906101000a900473ffffffffffffffffffffffffffffffffffffffff1673ffffffffffffffffffffffffffffffffffffffff166370a08231336040518263ffffffff1660e01b8152600401620015339190620038c0565b60206040518083038186803b1580156200154c57600080fd5b505afa15801562001561573d6000803e3d6000fd5b505050506040513d601f19601f8201168201806040525081019062001587919062003405565b905090565b60075481565b6000600a60003373ffffffffffffffffffffffffffffffffffffffff1673ffffffffffffffffffffffffffffffffffffffff16815260200190815260200160002054905090565b620015e362002c8f565b73ffffffffffffffffffffffffffffffffffffffff166200160362001b7a565b73ffffffffffffffffffffffffffffffffffffffff16146200165c576040517f08c379a0000000000000000000000000000000000000000000000000000000008152600401620016539062003b7b565b60405180910390fd5b62001668600062002caa565b565b600860009054906101000a900473ffffffffffffffffffffffffffffffffffffffff1673ffffffffffffffffffffffffffffffffffffffff163373ffffffffffffffffffffffffffffffffffffffff1614620016fd576040517f08c379a0000000000000000000000000000000000000000000000000000000008152600401620016f49062003bbf565b60405180910390fd5b601460009054906101000a900473ffffffffffffffffffffffffffffffffffffffff1673ffffffffffffffffffffffffffffffffffffffff16637b9417c8826040518263ffffffff1660e01b81526004016200175a9190620038c0565b602060405180830381600087803b1580156200177557600080fd5b505af11580156200178a573d6000803e3d6000fd5b505050506040513d601f19601f82011682018060405250810190620017b09190620032bb565b5050565b6000620017c062002c8f565b73ffffffffffffffffffffffffffffffffffffffff16620017e062001b7a565b73ffffffffffffffffffffffffffffffffffffffff161462001839576040517f08c379a0000000000000000000000000000000000000000000000000000000008152600401620018309062003b7b565b60405180910390fd5b600160008373ffffffffffffffffffffffffffffffffffffffff1673ffffffffffffffffffffffffffffffffffffffff16815260200190815260200160002060009054906101000a900460ff166200193c5760018060008473ffffffffffffffffffffffffffffffffffffffff1673ffffffffffffffffffffffffffffffffffffffff16815260200190815260200160002060006101000a81548160ff0219169083151502179055507fd1bba68c128cc3f427e5831b3c6f99f480b6efa6b9e80c757768f6124158cc3f82604051620019139190620038c0565b60405180910390a160016002600082825462001930919062003dbd565b92505081905550600190505b919050565b60065481565b60058054620019569062003fa1565b80601f0160208091040260200160405190810160405280929190818152602001828054620019849062003fa1565b8015620019d55780601f10620019a957610100808354040283529160200191620019d5565b820191906000526020600020905b815481529060010190602001808311620019b757829003601f168201915b505050505081565b600860009054906101000a900473ffffffffffffffffffffffffffffffffffffffff1673ffffffffffffffffffffffffffffffffffffffff163373ffffffffffffffffffffffffffffffffffffffff161462001a70576040517f08c379a000000000000000000000000000000000000000000000000000000000815260040162001a679062003bbf565b60405180910390fd5b600960149054906101000a900460ff161562001ac3576040517f08c379a000000000000000000000000000000000000000000000000000000000815260040162001aba9062003be1565b60405180910390fd5b601460009054906101000a900473ffffffffffffffffffffffffffffffffffffffff1673ffffffffffffffffffffffffffffffffffffffff1663286dd3f5826040518263ffffffff1660e01b815260040162001b209190620038c0565b602060405180830381600087803b15801562001b3b57600080fd5b505af115801562001b50573d6000803e3d6000fd5b505050506040513d601f19601f8201168201806040525081019062001b769190620032bb565b5050565b60008060029054906101000a900473ffffffffffffffffffffffffffffffffffffffff16905090565b600e6020528060005260406000206000915054906101000a900460ff1681565b601160009054906101000a900473ffffffffffffffffffffffffffffffffffffffff1681565b60016020528060005260406000206000915054906101000a900460ff1681565b62001c1362002c8f565b73ffffffffffffffffffffffffffffffffffffffff1662001c3362001b7a565b73ffffffffffffffffffffffffffffffffffffffff161462001c8c576040517f08c379a000000000000000000000000000000000000000000000000000000000815260040162001c839062003b7b565b60405180910390fd5b73__$36fdb4e0c2cb91f3ceca5ea81b025328f3$__63c406e268601083601360009054906101000a900473ffffffffffffffffffffffffffffffffffffffff16600b600a600d6040518763ffffffff1660e01b815260040162001cf596959493929190620039fc565b60006040518083038186803b15801562001d0e57600080fd5b505af415801562001d23573d6000803e3d6000fd5b5050505050565b62001d3462002c8f565b73ffffffffffffffffffffffffffffffffffffffff1662001d5462001b7a565b73ffffffffffffffffffffffffffffffffffffffff161462001dad576040517f08c379a000000000000000000000000000000000000000000000000000000000815260040162001da49062003b7b565b60405180910390fd5b6000600960156101000a81548160ff021916908315150217905550565b62001dd462002c8f565b73ffffffffffffffffffffffffffffffffffffffff1662001df462001b7a565b73ffffffffffffffffffffffffffffffffffffffff161462001e4d576040517f08c379a000000000000000000000000000000000000000000000000000000000815260040162001e449062003b7b565b60405180910390fd5b6001600960156101000a81548160ff021916908315150217905550565b600160003373ffffffffffffffffffffffffffffffffffffffff1673ffffffffffffffffffffffffffffffffffffffff16815260200190815260200160002060009054906101000a900460ff168062001ecf5750600360009054906101000a900460ff165b62001f11576040517f08c379a000000000000000000000000000000000000000000000000000000000815260040162001f089062003af3565b60405180910390fd5b6002600454141562001f5a576040517f08c379a000000000000000000000000000000000000000000000000000000000815260040162001f519062003c25565b60405180910390fd5b6002600481905550600960149054906101000a900460ff161562001fb5576040517f08c379a000000000000000000000000000000000000000000000000000000000815260040162001fac9062003c47565b60405180910390fd5b600e60003373ffffffffffffffffffffffffffffffffffffffff1673ffffffffffffffffffffffffffffffffffffffff16815260200190815260200160002060009054906101000a900460ff161562002045576040517f08c379a00000000000000000000000000000000000000000000000000000000081526004016200203c9062003ad1565b60405180910390fd5b600754601660009054906101000a900473ffffffffffffffffffffffffffffffffffffffff1673ffffffffffffffffffffffffffffffffffffffff166370a08231336040518263ffffffff1660e01b8152600401620020a59190620038c0565b60206040518083038186803b158015620020be57600080fd5b505afa158015620020d3573d6000803e3d6000fd5b505050506040513d601f19601f82011682018060405250810190620020f9919062003405565b116200213c576040517f08c379a0000000000000000000000000000000000000000000000000000000008152600401620021339062003aaf565b60405180910390fd5b6001600e60003373ffffffffffffffffffffffffffffffffffffffff1673ffffffffffffffffffffffffffffffffffffffff16815260200190815260200160002060006101000a81548160ff021916908315150217905550600f339080600181540180825580915050600190039060005260206000200160009091909190916101000a81548173ffffffffffffffffffffffffffffffffffffffff021916908373ffffffffffffffffffffffffffffffffffffffff160217905550601660009054906101000a900473ffffffffffffffffffffffffffffffffffffffff1673ffffffffffffffffffffffffffffffffffffffff166323b872dd33306007546040518463ffffffff1660e01b81526004016200225a93929190620038dd565b602060405180830381600087803b1580156200227557600080fd5b505af11580156200228a573d6000803e3d6000fd5b505050506040513d601f19601f82011682018060405250810190620022b09190620032bb565b507f9e71bc8eea02a63969f509818f2dafb9254532904319f9dbda79b67bd34a5f3d33600754604051620022e69291906200391a565b60405180910390a16001600481905550565b600d60205281600052604060002081815481106200231557600080fd5b90600052602060002001600091509150505481565b600360009054906101000a900460ff1681565b60006200234962002c8f565b73ffffffffffffffffffffffffffffffffffffffff166200236962001b7a565b73ffffffffffffffffffffffffffffffffffffffff1614620023c2576040517f08c379a0000000000000000000000000000000000000000000000000000000008152600401620023b99062003b7b565b60405180910390fd5b60005b82518110156200243457620023f7838281518110620023e957620023e8620040b9565b5b6020026020010151620017b4565b156200241e5760016002600082825462002412919062003dbd565b92505081905550600191505b80806200242b906200400d565b915050620023c5565b50919050565b6000600160008373ffffffffffffffffffffffffffffffffffffffff1673ffffffffffffffffffffffffffffffffffffffff16815260200190815260200160002060009054906101000a900460ff169050919050565b6200249a62002c8f565b73ffffffffffffffffffffffffffffffffffffffff16620024ba62001b7a565b73ffffffffffffffffffffffffffffffffffffffff161462002513576040517f08c379a00000000000000000000000000000000000000000000000000000000081526004016200250a9062003b7b565b60405180910390fd5b6001600960146101000a81548160ff021916908315150217905550565b600a6020528060005260406000206000915090505481565b6200255262002c8f565b73ffffffffffffffffffffffffffffffffffffffff166200257262001b7a565b73ffffffffffffffffffffffffffffffffffffffff1614620025cb576040517f08c379a0000000000000000000000000000000000000000000000000000000008152600401620025c29062003b7b565b60405180910390fd5b600073ffffffffffffffffffffffffffffffffffffffff168173ffffffffffffffffffffffffffffffffffffffff1614156200263e576040517f08c379a0000000000000000000000000000000000000000000000000000000008152600401620026359062003a8d565b60405180910390fd5b620026498162002caa565b50565b600960159054906101000a900460ff16156200269f576040517f08c379a0000000000000000000000000000000000000000000000000000000008152600401620026969062003b37565b60405180910390fd5b600e60003373ffffffffffffffffffffffffffffffffffffffff1673ffffffffffffffffffffffffffffffffffffffff16815260200190815260200160002060009054906101000a900460ff166200272e576040517f08c379a0000000000000000000000000000000000000000000000000000000008152600401620027259062003b9d565b60405180910390fd5b6000601560009054906101000a900473ffffffffffffffffffffffffffffffffffffffff1673ffffffffffffffffffffffffffffffffffffffff166306575c896040518163ffffffff1660e01b815260040160206040518083038186803b1580156200279957600080fd5b505afa158015620027ae573d6000803e3d6000fd5b505050506040513d601f19601f82011682018060405250810190620027d4919062003405565b905060005b600d60003373ffffffffffffffffffffffffffffffffffffffff1673ffffffffffffffffffffffffffffffffffffffff16815260200190815260200160002080549050811015620028d957600c6000600d60003373ffffffffffffffffffffffffffffffffffffffff1673ffffffffffffffffffffffffffffffffffffffff16815260200190815260200160002083815481106200287c576200287b620040b9565b5b906000526020600020015481526020019081526020016000208260088110620028aa57620028a9620040b9565b5b016000815480929190620028be9062003f72565b91905055508080620028d0906200400d565b915050620027d9565b5060005b825181101562002a5257600c600082815260200190815260200160002082600881106200290f576200290e620040b9565b5b01600081548092919062002923906200400d565b91905055506000601760009054906101000a900473ffffffffffffffffffffffffffffffffffffffff1673ffffffffffffffffffffffffffffffffffffffff1662fdd58e338685815181106200297e576200297d620040b9565b5b60200260200101516040518363ffffffff1660e01b8152600401620029a59291906200391a565b60206040518083038186803b158015620029be57600080fd5b505afa158015620029d3573d6000803e3d6000fd5b505050506040513d601f19601f82011682018060405250810190620029f9919062003405565b1162002a3c576040517f08c379a000000000000000000000000000000000000000000000000000000000815260040162002a339062003c03565b60405180910390fd5b808062002a49906200400d565b915050620028dd565b5060005b825181101562002ae5576001600c6000838152602001908152602001600020836008811062002a8a5762002a89620040b9565b5b01541462002acf576040517f08c379a000000000000000000000000000000000000000000000000000000000815260040162002ac69062003b15565b60405180910390fd5b808062002adc906200400d565b91505062002a56565b5081600d60003373ffffffffffffffffffffffffffffffffffffffff1673ffffffffffffffffffffffffffffffffffffffff168152602001908152602001600020908051906020019062002b3b92919062002e5a565b505050565b600860009054906101000a900473ffffffffffffffffffffffffffffffffffffffff1681565b62002b7062002eac565b600b60003373ffffffffffffffffffffffffffffffffffffffff1673ffffffffffffffffffffffffffffffffffffffff16815260200190815260200160002060088060200260405190810160405280929190826008801562002be8576020028201915b81548152602001906001019080831162002bd3575b5050505050905090565b62002c8c8160405160240162002c09919062003a69565b6040516020818303038152906040527f41304fac000000000000000000000000000000000000000000000000000000007bffffffffffffffffffffffffffffffffffffffffffffffffffffffff19166020820180517bffffffffffffffffffffffffffffffffffffffffffffffffffffffff838183161783525050505062002d6f565b50565b600033905090565b600062002ca43062002d98565b15905090565b60008060029054906101000a900473ffffffffffffffffffffffffffffffffffffffff16905081600060026101000a81548173ffffffffffffffffffffffffffffffffffffffff021916908373ffffffffffffffffffffffffffffffffffffffff1602179055508173ffffffffffffffffffffffffffffffffffffffff168173ffffffffffffffffffffffffffffffffffffffff167f8be0079c531659141344cd1fd0a4f28419497f9722a3daafe3b4186f6b6457e060405160405180910390a35050565b60008151905060006a636f6e736f6c652e6c6f679050602083016000808483855afa5050505050565b6000808273ffffffffffffffffffffffffffffffffffffffff163b119050919050565b82805462002dc99062003fa1565b90600052602060002090601f01602090048101928262002ded576000855562002e39565b82601f1062002e0857803560ff191683800117855562002e39565b8280016001018555821562002e39579182015b8281111562002e3857823582559160200191906001019062002e1b565b5b50905062002e48919062002ecf565b5090565b61108d80620044d883390190565b82805482825590600052602060002090810192821562002e99579160200282015b8281111562002e9857825182559160200191906001019062002e7b565b5b50905062002ea8919062002ecf565b5090565b604051806101000160405280600890602082028036833780820191505090505090565b5b8082111562002eea57600081600090555060010162002ed0565b5090565b600062002f0562002eff8462003caf565b62003c86565b9050808382526020820190508285602086028201111562002f2b5762002f2a62004121565b5b60005b8581101562002f5f578162002f44888262002fe4565b84526020840193506020830192505060018101905062002f2e565b5050509392505050565b600062002f8062002f7a8462003cde565b62003c86565b9050808382526020820190508285602086028201111562002fa65762002fa562004121565b5b60005b8581101562002fda578162002fbf888262003172565b84526020840193506020830192505060018101905062002fa9565b5050509392505050565b60008135905062002ff58162004489565b92915050565b6000819050826020600502820111156200301a576200301962004121565b5b92915050565b60008083601f8401126200303957620030386200411c565b5b8235905067ffffffffffffffff81111562003059576200305862004117565b5b60208301915083602082028301111562003078576200307762004121565b5b9250929050565b600082601f8301126200309757620030966200411c565b5b8135620030a984826020860162002eee565b91505092915050565b600082601f830112620030ca57620030c96200411c565b5b8135620030dc84826020860162002f69565b91505092915050565b600081359050620030f681620044a3565b92915050565b6000815190506200310d81620044a3565b92915050565b60008083601f8401126200312c576200312b6200411c565b5b8235905067ffffffffffffffff8111156200314c576200314b62004117565b5b6020830191508360018202830111156200316b576200316a62004121565b5b9250929050565b6000813590506200318381620044bd565b92915050565b6000815190506200319a81620044bd565b92915050565b600060208284031215620031b957620031b86200412b565b5b6000620031c98482850162002fe4565b91505092915050565b60008060408385031215620031ec57620031eb6200412b565b5b6000620031fc8582860162002fe4565b92505060206200320f8582860162003172565b9150509250929050565b6000602082840312156200323257620032316200412b565b5b600082013567ffffffffffffffff81111562003253576200325262004126565b5b62003261848285016200307f565b91505092915050565b6000602082840312156200328357620032826200412b565b5b600082013567ffffffffffffffff811115620032a457620032a362004126565b5b620032b284828501620030b2565b91505092915050565b600060208284031215620032d457620032d36200412b565b5b6000620032e484828501620030fc565b91505092915050565b600080600080600080600080610140898b0312156200331157620033106200412b565b5b600089013567ffffffffffffffff81111562003332576200333162004126565b5b620033408b828c0162003113565b98509850506020620033558b828c0162003172565b9650506040620033688b828c01620030e5565b95505060606200337b8b828c0162002fe4565b94505060806200338e8b828c0162002ffb565b93505061012089013567ffffffffffffffff811115620033b357620033b262004126565b5b620033c18b828c0162003020565b92509250509295985092959890939650565b600060208284031215620033ec57620033eb6200412b565b5b6000620033fc8482850162003172565b91505092915050565b6000602082840312156200341e576200341d6200412b565b5b60006200342e8482850162003189565b91505092915050565b60006200344583836200346b565b60208301905092915050565b60006200345f83836200388d565b60208301905092915050565b620034768162003eb6565b82525050565b620034878162003eb6565b82525050565b60006200349b838562003d66565b9350620034a88262003d0d565b8060005b85811015620034e957620034c1828462003da4565b620034cd888262003437565b9750620034da8362003d4c565b925050600181019050620034ac565b5085925050509392505050565b8082525050565b620035088162003d36565b62003514818462003d77565b9250620035218262003d17565b8060005b83811015620035585781516200353c878262003451565b9650620035498362003d59565b92505060018101905062003525565b505050505050565b6200356b8162003eca565b82525050565b6200357c8162003f00565b82525050565b8082525050565b8082525050565b8082525050565b8082525050565b6000620035ab8262003d41565b620035b7818562003d82565b9350620035c981856020860162003f3c565b620035d48162004130565b840191505092915050565b60008154620035ee8162003fa1565b620035fa818662003d93565b945060018216600081146200361857600181146200362b5762003662565b60ff198316865260208601935062003662565b620036368562003d21565b60005b838110156200365a5781548189015260018201915060208101905062003639565b808801955050505b50505092915050565b60006200367a60268362003d82565b9150620036878262004141565b604082019050919050565b6000620036a1601d8362003d82565b9150620036ae8262004190565b602082019050919050565b6000620036c860238362003d82565b9150620036d582620041b9565b604082019050919050565b6000620036ef601a8362003d82565b9150620036fc8262004208565b602082019050919050565b60006200371660258362003d82565b9150620037238262004231565b604082019050919050565b60006200373d601e8362003d82565b91506200374a8262004280565b602082019050919050565b600062003764602e8362003d82565b91506200377182620042a9565b604082019050919050565b60006200378b60208362003d82565b91506200379882620042f8565b602082019050919050565b6000620037b260158362003d82565b9150620037bf8262004321565b602082019050919050565b6000620037d960178362003d82565b9150620037e6826200434a565b602082019050919050565b60006200380060418362003d82565b91506200380d8262004373565b606082019050919050565b60006200382760248362003d82565b91506200383482620043e8565b604082019050919050565b60006200384e601f8362003d82565b91506200385b8262004437565b602082019050919050565b60006200387560178362003d82565b9150620038828262004460565b602082019050919050565b620038988162003ef6565b82525050565b620038a98162003ef6565b82525050565b620038ba8162003ef6565b82525050565b6000602082019050620038d760008301846200347c565b92915050565b6000606082019050620038f460008301866200347c565b6200390360208301856200347c565b6200391260408301846200389e565b949350505050565b60006040820190506200393160008301856200347c565b6200394060208301846200389e565b9392505050565b60006020820190508181036000830152620039648184866200348d565b90509392505050565b600061010082019050620039856000830184620034fd565b92915050565b6000602082019050620039a2600083018462003560565b92915050565b6000608082019050620039bf600083018762003597565b620039ce6020830186620034f6565b620039dd6040830185620038af565b8181036060830152620039f18184620035df565b905095945050505050565b600060c08201905062003a13600083018962003597565b62003a226020830188620038af565b62003a31604083018762003571565b62003a40606083018662003582565b62003a4f608083018562003590565b62003a5e60a083018462003589565b979650505050505050565b6000602082019050818103600083015262003a8581846200359e565b905092915050565b6000602082019050818103600083015262003aa8816200366b565b9050919050565b6000602082019050818103600083015262003aca8162003692565b9050919050565b6000602082019050818103600083015262003aec81620036b9565b9050919050565b6000602082019050818103600083015262003b0e81620036e0565b9050919050565b6000602082019050818103600083015262003b308162003707565b9050919050565b6000602082019050818103600083015262003b52816200372e565b9050919050565b6000602082019050818103600083015262003b748162003755565b9050919050565b6000602082019050818103600083015262003b96816200377c565b9050919050565b6000602082019050818103600083015262003bb881620037a3565b9050919050565b6000602082019050818103600083015262003bda81620037ca565b9050919050565b6000602082019050818103600083015262003bfc81620037f1565b9050919050565b6000602082019050818103600083015262003c1e8162003818565b9050919050565b6000602082019050818103600083015262003c40816200383f565b9050919050565b6000602082019050818103600083015262003c628162003866565b9050919050565b600060208201905062003c8060008301846200389e565b92915050565b600062003c9262003ca5565b905062003ca0828262003fd7565b919050565b6000604051905090565b600067ffffffffffffffff82111562003ccd5762003ccc620040e8565b5b602082029050602081019050919050565b600067ffffffffffffffff82111562003cfc5762003cfb620040e8565b5b602082029050602081019050919050565b6000819050919050565b6000819050919050565b60008190508160005260206000209050919050565b600060089050919050565b600081519050919050565b6000602082019050919050565b6000602082019050919050565b600082825260208201905092915050565b600081905092915050565b600082825260208201905092915050565b600082825260208201905092915050565b600062003db5602084018462002fe4565b905092915050565b600062003dca8262003ef6565b915062003dd78362003ef6565b9250827fffffffffffffffffffffffffffffffffffffffffffffffffffffffffffffffff0382111562003e0f5762003e0e6200405b565b5b828201905092915050565b600062003e278262003ef6565b915062003e348362003ef6565b9250817fffffffffffffffffffffffffffffffffffffffffffffffffffffffffffffffff048311821515161562003e705762003e6f6200405b565b5b828202905092915050565b600062003e888262003ef6565b915062003e958362003ef6565b92508282101562003eab5762003eaa6200405b565b5b828203905092915050565b600062003ec38262003ed6565b9050919050565b60008115159050919050565b600073ffffffffffffffffffffffffffffffffffffffff82169050919050565b6000819050919050565b600062003f0d8262003f14565b9050919050565b600062003f218262003f28565b9050919050565b600062003f358262003ed6565b9050919050565b60005b8381101562003f5c57808201518184015260208101905062003f3f565b8381111562003f6c576000848401525b50505050565b600062003f7f8262003ef6565b9150600082141562003f965762003f956200405b565b5b600182039050919050565b6000600282049050600182168062003fba57607f821691505b6020821081141562003fd15762003fd06200408a565b5b50919050565b62003fe28262004130565b810181811067ffffffffffffffff82111715620040045762004003620040e8565b5b80604052505050565b60006200401a8262003ef6565b91507fffffffffffffffffffffffffffffffffffffffffffffffffffffffffffffffff82141562004050576200404f6200405b565b5b600182019050919050565b7f4e487b7100000000000000000000000000000000000000000000000000000000600052601160045260246000fd5b7f4e487b7100000000000000000000000000000000000000000000000000000000600052602260045260246000fd5b7f4e487b7100000000000000000000000000000000000000000000000000000000600052603260045260246000fd5b7f4e487b7100000000000000000000000000000000000000000000000000000000600052604160045260246000fd5b600080fd5b600080fd5b600080fd5b600080fd5b600080fd5b6000601f19601f8301169050919050565b7f4f776e61626c653a206e6577206f776e657220697320746865207a65726f206160008201527f6464726573730000000000000000000000000000000000000000000000000000602082015250565b7f496e737566666963656e742066756e647320666f72207374616b696e67000000600082015250565b7f596f75206861766520616c7265616479206a6f696e65642074686973206c656160008201527f6775650000000000000000000000000000000000000000000000000000000000602082015250565b7f55736572206973206e6f742077686974656c6973746564203a28000000000000600082015250565b7f4475706c6963617465206174686c65746549447320617265206e6f7420616c6c60008201527f6f7765642e000000000000000000000000000000000000000000000000000000602082015250565b7f6c696e657570206973206c6f636b656420666f7220746865207765656b210000600082015250565b7f496e697469616c697a61626c653a20636f6e747261637420697320616c72656160008201527f647920696e697469616c697a6564000000000000000000000000000000000000602082015250565b7f4f776e61626c653a2063616c6c6572206973206e6f7420746865206f776e6572600082015250565b7f75736572206973206e6f7420696e204c65616775650000000000000000000000600082015250565b7f43616c6c6572206973206e6f74207468652061646d696e000000000000000000600082015250565b7f4e6f626f64792063616e20656e7465722f6578697420746865206c656167756560008201527f20616e796d6f72652e2054686520736561736f6e20686173207374617274656460208201527f2100000000000000000000000000000000000000000000000000000000000000604082015250565b7f43616c6c657220646f6573206e6f74206f776e20676976656e206174686c657460008201527f6549647300000000000000000000000000000000000000000000000000000000602082015250565b7f5265656e7472616e637947756172643a207265656e7472616e742063616c6c00600082015250565b7f4c656167756520456e74727920697320436c6f73656421000000000000000000600082015250565b620044948162003eb6565b8114620044a057600080fd5b50565b620044ae8162003eca565b8114620044ba57600080fd5b50565b620044c88162003ef6565b8114620044d457600080fd5b5056fe608060405234801561001057600080fd5b5061002d61002261003260201b60201c565b61003a60201b60201c565b6100fe565b600033905090565b60008060009054906101000a900473ffffffffffffffffffffffffffffffffffffffff169050816000806101000a81548173ffffffffffffffffffffffffffffffffffffffff021916908373ffffffffffffffffffffffffffffffffffffffff1602179055508173ffffffffffffffffffffffffffffffffffffffff168173ffffffffffffffffffffffffffffffffffffffff167f8be0079c531659141344cd1fd0a4f28419497f9722a3daafe3b4186f6b6457e060405160405180910390a35050565b610f808061010d6000396000f3fe608060405234801561001057600080fd5b50600436106100a95760003560e01c80638da5cb5b116100715780638da5cb5b146101665780639b19251a14610184578063dc9a1535146101b4578063e2ec6ec3146101d2578063e35a899914610202578063f2fde38b14610232576100a9565b806324953eaa146100ae578063286dd3f5146100de57806344eaa84e1461010e578063715018a61461012c5780637b9417c814610136575b600080fd5b6100c860048036038101906100c39190610b0e565b61024e565b6040516100d59190610be5565b60405180910390f35b6100f860048036038101906100f39190610ae1565b610338565b6040516101059190610be5565b60405180910390f35b6101166104bb565b6040516101239190610c40565b60405180910390f35b6101346104c5565b005b610150600480360381019061014b9190610ae1565b61054d565b60405161015d9190610be5565b60405180910390f35b61016e6106ce565b60405161017b9190610bca565b60405180910390f35b61019e60048036038101906101999190610ae1565b6106f7565b6040516101ab9190610be5565b60405180910390f35b6101bc610717565b6040516101c99190610be5565b60405180910390f35b6101ec60048036038101906101e79190610b0e565b61072a565b6040516101f99190610be5565b60405180910390f35b61021c60048036038101906102179190610ae1565b610814565b6040516102299190610be5565b60405180910390f35b61024c60048036038101906102479190610ae1565b61086a565b005b6000610258610962565b73ffffffffffffffffffffffffffffffffffffffff166102766106ce565b73ffffffffffffffffffffffffffffffffffffffff16146102cc576040517f08c379a00000000000000000000000000000000000000000000000000000000081526004016102c390610c20565b60405180910390fd5b60005b8251811015610332576102fb8382815181106102ee576102ed610e38565b5b6020026020010151610338565b1561031f576001600260008282546103139190610d13565b92505081905550600191505b808061032a90610dc0565b9150506102cf565b50919050565b6000610342610962565b73ffffffffffffffffffffffffffffffffffffffff166103606106ce565b73ffffffffffffffffffffffffffffffffffffffff16146103b6576040517f08c379a00000000000000000000000000000000000000000000000000000000081526004016103ad90610c20565b60405180910390fd5b600160008373ffffffffffffffffffffffffffffffffffffffff1673ffffffffffffffffffffffffffffffffffffffff16815260200190815260200160002060009054906101000a900460ff16156104b6576000600160008473ffffffffffffffffffffffffffffffffffffffff1673ffffffffffffffffffffffffffffffffffffffff16815260200190815260200160002060006101000a81548160ff0219169083151502179055507ff1abf01a1043b7c244d128e8595cf0c1d10743b022b03a02dffd8ca3bf729f5a8260405161048f9190610bca565b60405180910390a16001600260008282546104aa9190610d13565b92505081905550600190505b919050565b6000600254905090565b6104cd610962565b73ffffffffffffffffffffffffffffffffffffffff166104eb6106ce565b73ffffffffffffffffffffffffffffffffffffffff1614610541576040517f08c379a000000000000000000000000000000000000000000000000000000000815260040161053890610c20565b60405180910390fd5b61054b600061096a565b565b6000610557610962565b73ffffffffffffffffffffffffffffffffffffffff166105756106ce565b73ffffffffffffffffffffffffffffffffffffffff16146105cb576040517f08c379a00000000000000000000000000000000000000000000000000000000081526004016105c290610c20565b60405180910390fd5b600160008373ffffffffffffffffffffffffffffffffffffffff1673ffffffffffffffffffffffffffffffffffffffff16815260200190815260200160002060009054906101000a900460ff166106c95760018060008473ffffffffffffffffffffffffffffffffffffffff1673ffffffffffffffffffffffffffffffffffffffff16815260200190815260200160002060006101000a81548160ff0219169083151502179055507fd1bba68c128cc3f427e5831b3c6f99f480b6efa6b9e80c757768f6124158cc3f826040516106a29190610bca565b60405180910390a16001600260008282546106bd9190610cbd565b92505081905550600190505b919050565b60008060009054906101000a900473ffffffffffffffffffffffffffffffffffffffff16905090565b60016020528060005260406000206000915054906101000a900460ff1681565b600360009054906101000a900460ff1681565b6000610734610962565b73ffffffffffffffffffffffffffffffffffffffff166107526106ce565b73ffffffffffffffffffffffffffffffffffffffff16146107a8576040517f08c379a000000000000000000000000000000000000000000000000000000000815260040161079f90610c20565b60405180910390fd5b60005b825181101561080e576107d78382815181106107ca576107c9610e38565b5b602002602001015161054d565b156107fb576001600260008282546107ef9190610cbd565b92505081905550600191505b808061080690610dc0565b9150506107ab565b50919050565b6000600160008373ffffffffffffffffffffffffffffffffffffffff1673ffffffffffffffffffffffffffffffffffffffff16815260200190815260200160002060009054906101000a900460ff169050919050565b610872610962565b73ffffffffffffffffffffffffffffffffffffffff166108906106ce565b73ffffffffffffffffffffffffffffffffffffffff16146108e6576040517f08c379a00000000000000000000000000000000000000000000000000000000081526004016108dd90610c20565b60405180910390fd5b600073ffffffffffffffffffffffffffffffffffffffff168173ffffffffffffffffffffffffffffffffffffffff161415610956576040517f08c379a000000000000000000000000000000000000000000000000000000000815260040161094d90610c00565b60405180910390fd5b61095f8161096a565b50565b600033905090565b60008060009054906101000a900473ffffffffffffffffffffffffffffffffffffffff169050816000806101000a81548173ffffffffffffffffffffffffffffffffffffffff021916908373ffffffffffffffffffffffffffffffffffffffff1602179055508173ffffffffffffffffffffffffffffffffffffffff168173ffffffffffffffffffffffffffffffffffffffff167f8be0079c531659141344cd1fd0a4f28419497f9722a3daafe3b4186f6b6457e060405160405180910390a35050565b6000610a41610a3c84610c80565b610c5b565b90508083825260208201905082856020860282011115610a6457610a63610e9b565b5b60005b85811015610a945781610a7a8882610a9e565b845260208401935060208301925050600181019050610a67565b5050509392505050565b600081359050610aad81610f33565b92915050565b600082601f830112610ac857610ac7610e96565b5b8135610ad8848260208601610a2e565b91505092915050565b600060208284031215610af757610af6610ea5565b5b6000610b0584828501610a9e565b91505092915050565b600060208284031215610b2457610b23610ea5565b5b600082013567ffffffffffffffff811115610b4257610b41610ea0565b5b610b4e84828501610ab3565b91505092915050565b610b6081610d47565b82525050565b610b6f81610d59565b82525050565b6000610b82602683610cac565b9150610b8d82610ebb565b604082019050919050565b6000610ba5602083610cac565b9150610bb082610f0a565b602082019050919050565b610bc481610d85565b82525050565b6000602082019050610bdf6000830184610b57565b92915050565b6000602082019050610bfa6000830184610b66565b92915050565b60006020820190508181036000830152610c1981610b75565b9050919050565b60006020820190508181036000830152610c3981610b98565b9050919050565b6000602082019050610c556000830184610bbb565b92915050565b6000610c65610c76565b9050610c718282610d8f565b919050565b6000604051905090565b600067ffffffffffffffff821115610c9b57610c9a610e67565b5b602082029050602081019050919050565b600082825260208201905092915050565b6000610cc882610d85565b9150610cd383610d85565b9250827fffffffffffffffffffffffffffffffffffffffffffffffffffffffffffffffff03821115610d0857610d07610e09565b5b828201905092915050565b6000610d1e82610d85565b9150610d2983610d85565b925082821015610d3c57610d3b610e09565b5b828203905092915050565b6000610d5282610d65565b9050919050565b60008115159050919050565b600073ffffffffffffffffffffffffffffffffffffffff82169050919050565b6000819050919050565b610d9882610eaa565b810181811067ffffffffffffffff82111715610db757610db6610e67565b5b80604052505050565b6000610dcb82610d85565b91507fffffffffffffffffffffffffffffffffffffffffffffffffffffffffffffffff821415610dfe57610dfd610e09565b5b600182019050919050565b7f4e487b7100000000000000000000000000000000000000000000000000000000600052601160045260246000fd5b7f4e487b7100000000000000000000000000000000000000000000000000000000600052603260045260246000fd5b7f4e487b7100000000000000000000000000000000000000000000000000000000600052604160045260246000fd5b600080fd5b600080fd5b600080fd5b600080fd5b6000601f19601f8301169050919050565b7f4f776e61626c653a206e6577206f776e657220697320746865207a65726f206160008201527f6464726573730000000000000000000000000000000000000000000000000000602082015250565b7f4f776e61626c653a2063616c6c6572206973206e6f7420746865206f776e6572600082015250565b610f3c81610d47565b8114610f4757600080fd5b5056fea26469706673582212207192af37282fd7bfe53350acb10318f34b6fed008a48fb804e840facad443e6364736f6c63430008070033a26469706673582212207e1a4ce8ec0bbfddb8155743d33437af1e7e924b5d8c3df424614275c1d5a7e664736f6c63430008070033",
  "linkReferences": {
    "contracts/MOBALogicLibrary.sol": {
      "MOBALogicLibrary": [
        {
          "length": 20,
          "start": 2375
        },
        {
          "length": 20,
          "start": 7266
        }
      ]
    }
  },
  "deployedLinkReferences": {
    "contracts/MOBALogicLibrary.sol": {
      "MOBALogicLibrary": [
        {
          "length": 20,
          "start": 2090
        },
        {
          "length": 20,
          "start": 6981
        }
      ]
    }
  }
}