{
  "_format": "hh-sol-artifact-1",
  "contractName": "LeagueOfLegendsLogic",
  "sourceName": "contracts/LeagueOfLegendsLogic.sol",
  "abi": [
    {
      "anonymous": false,
      "inputs": [
        {
          "indexed": false,
          "internalType": "address",
          "name": "sender",
          "type": "address"
        },
        {
          "indexed": false,
          "internalType": "uint256",
          "name": "amount",
          "type": "uint256"
        },
        {
          "indexed": false,
          "internalType": "address",
          "name": "leagueAddress",
          "type": "address"
        }
      ],
      "name": "Staked",
      "type": "event"
    },
    {
      "anonymous": false,
      "inputs": [
        {
          "indexed": false,
          "internalType": "address[]",
          "name": "winner",
          "type": "address[]"
        },
        {
          "indexed": false,
          "internalType": "uint256",
          "name": "prizePotPerWinner",
          "type": "uint256"
        }
      ],
      "name": "leagueEnded",
      "type": "event"
    },
    {
      "anonymous": false,
      "inputs": [
        {
          "indexed": false,
          "internalType": "address",
          "name": "sender",
          "type": "address"
        },
        {
          "indexed": false,
          "internalType": "address",
          "name": "contractAddress",
          "type": "address"
        }
      ],
      "name": "testUSDCDeployed",
      "type": "event"
    },
    {
      "inputs": [
        {
          "internalType": "address",
          "name": "_userToAdd",
          "type": "address"
        }
      ],
      "name": "addUserToWhitelist",
      "outputs": [],
      "stateMutability": "nonpayable",
      "type": "function"
    },
    {
      "inputs": [],
      "name": "admin",
      "outputs": [
        {
          "internalType": "address",
          "name": "",
          "type": "address"
        }
      ],
      "stateMutability": "view",
      "type": "function"
    },
    {
      "inputs": [],
      "name": "currentWeekNum",
      "outputs": [
        {
          "internalType": "uint256",
          "name": "",
          "type": "uint256"
        }
      ],
      "stateMutability": "view",
      "type": "function"
    },
    {
      "inputs": [],
      "name": "evaluateMatches",
      "outputs": [],
      "stateMutability": "nonpayable",
      "type": "function"
    },
    {
      "inputs": [],
      "name": "getContractUSDCBalance",
      "outputs": [
        {
          "internalType": "uint256",
          "name": "",
          "type": "uint256"
        }
      ],
      "stateMutability": "view",
      "type": "function"
    },
    {
      "inputs": [
        {
          "internalType": "uint256",
          "name": "index",
          "type": "uint256"
        }
      ],
      "name": "getLeagueMember",
      "outputs": [
        {
          "internalType": "address",
          "name": "",
          "type": "address"
        }
      ],
      "stateMutability": "view",
      "type": "function"
    },
    {
      "inputs": [
        {
          "internalType": "address",
          "name": "_user",
          "type": "address"
        }
      ],
      "name": "getLineup",
      "outputs": [
        {
          "internalType": "uint256[]",
          "name": "",
          "type": "uint256[]"
        }
      ],
      "stateMutability": "view",
      "type": "function"
    },
    {
      "inputs": [],
      "name": "getLineupIsLocked",
      "outputs": [
        {
          "internalType": "bool",
          "name": "",
          "type": "bool"
        }
      ],
      "stateMutability": "view",
      "type": "function"
    },
    {
      "inputs": [
        {
          "internalType": "uint256",
          "name": "_week",
          "type": "uint256"
        }
      ],
      "name": "getScheduleForWeek",
      "outputs": [
        {
          "components": [
            {
              "internalType": "address[2]",
              "name": "players",
              "type": "address[2]"
            }
          ],
          "internalType": "struct LeagueOfLegendsLogic.Matchup[]",
          "name": "",
          "type": "tuple[]"
        }
      ],
      "stateMutability": "view",
      "type": "function"
    },
    {
      "inputs": [],
      "name": "getUserRecord",
      "outputs": [
        {
          "internalType": "uint256[]",
          "name": "",
          "type": "uint256[]"
        }
      ],
      "stateMutability": "view",
      "type": "function"
    },
    {
      "inputs": [
        {
          "internalType": "address",
          "name": "",
          "type": "address"
        }
      ],
      "name": "inLeague",
      "outputs": [
        {
          "internalType": "bool",
          "name": "",
          "type": "bool"
        }
      ],
      "stateMutability": "view",
      "type": "function"
    },
    {
      "inputs": [
        {
          "internalType": "string",
          "name": "_name",
          "type": "string"
        },
        {
          "internalType": "uint256",
          "name": "_stakeAmount",
          "type": "uint256"
        },
        {
          "internalType": "bool",
          "name": "_isPublic",
          "type": "bool"
        },
        {
          "internalType": "address",
          "name": "athletesDataStorageAddress",
          "type": "address"
        },
        {
          "internalType": "address",
          "name": "_admin",
          "type": "address"
        },
        {
          "internalType": "address",
          "name": "_rinkebyUSDCAddress",
          "type": "address"
        },
        {
          "internalType": "address",
          "name": "_testUSDCAddress",
          "type": "address"
        },
        {
          "internalType": "address",
          "name": "_gameItemsContractAddress",
          "type": "address"
        },
        {
          "internalType": "address",
          "name": "_teamDiffAddress",
          "type": "address"
        },
        {
          "internalType": "address",
          "name": "_leagueMakerContractAddress",
          "type": "address"
        }
      ],
      "name": "initialize",
      "outputs": [],
      "stateMutability": "nonpayable",
      "type": "function"
    },
    {
      "inputs": [],
      "name": "joinLeague",
      "outputs": [],
      "stateMutability": "nonpayable",
      "type": "function"
    },
    {
      "inputs": [],
      "name": "leagueEntryIsClosed",
      "outputs": [
        {
          "internalType": "bool",
          "name": "",
          "type": "bool"
        }
      ],
      "stateMutability": "view",
      "type": "function"
    },
    {
      "inputs": [
        {
          "internalType": "uint256",
          "name": "",
          "type": "uint256"
        }
      ],
      "name": "leagueMembers",
      "outputs": [
        {
          "internalType": "address",
          "name": "",
          "type": "address"
        }
      ],
      "stateMutability": "view",
      "type": "function"
    },
    {
      "inputs": [],
      "name": "leagueName",
      "outputs": [
        {
          "internalType": "string",
          "name": "",
          "type": "string"
        }
      ],
      "stateMutability": "view",
      "type": "function"
    },
    {
      "inputs": [],
      "name": "lineupIsLocked",
      "outputs": [
        {
          "internalType": "bool",
          "name": "",
          "type": "bool"
        }
      ],
      "stateMutability": "view",
      "type": "function"
    },
    {
      "inputs": [],
      "name": "lockLineup",
      "outputs": [],
      "stateMutability": "nonpayable",
      "type": "function"
    },
    {
      "inputs": [],
      "name": "numWeeks",
      "outputs": [
        {
          "internalType": "uint256",
          "name": "",
          "type": "uint256"
        }
      ],
      "stateMutability": "view",
      "type": "function"
    },
    {
      "inputs": [],
      "name": "onLeagueEnd",
      "outputs": [],
      "stateMutability": "nonpayable",
      "type": "function"
    },
    {
      "inputs": [],
      "name": "rinkebyUSDC",
      "outputs": [
        {
          "internalType": "contract IERC20",
          "name": "",
          "type": "address"
        }
      ],
      "stateMutability": "view",
      "type": "function"
    },
    {
      "inputs": [],
      "name": "rinkebyUSDCAddress",
      "outputs": [
        {
          "internalType": "address",
          "name": "",
          "type": "address"
        }
      ],
      "stateMutability": "view",
      "type": "function"
    },
    {
      "inputs": [],
      "name": "setLeagueEntryIsClosed",
      "outputs": [],
      "stateMutability": "nonpayable",
      "type": "function"
    },
    {
      "inputs": [],
      "name": "setLeagueSchedule",
      "outputs": [],
      "stateMutability": "nonpayable",
      "type": "function"
    },
    {
      "inputs": [
        {
          "internalType": "uint256[]",
          "name": "athleteIds",
          "type": "uint256[]"
        }
      ],
      "name": "setLineup",
      "outputs": [],
      "stateMutability": "nonpayable",
      "type": "function"
    },
    {
      "inputs": [],
      "name": "stakeAmount",
      "outputs": [
        {
          "internalType": "uint256",
          "name": "",
          "type": "uint256"
        }
      ],
      "stateMutability": "view",
      "type": "function"
    },
    {
      "inputs": [],
      "name": "teamDiffAddress",
      "outputs": [
        {
          "internalType": "address",
          "name": "",
          "type": "address"
        }
      ],
      "stateMutability": "view",
      "type": "function"
    },
    {
      "inputs": [],
      "name": "unlockLineup",
      "outputs": [],
      "stateMutability": "nonpayable",
      "type": "function"
    },
    {
      "inputs": [
        {
          "internalType": "address",
          "name": "",
          "type": "address"
        },
        {
          "internalType": "uint256",
          "name": "",
          "type": "uint256"
        }
      ],
      "name": "userToLineup",
      "outputs": [
        {
          "internalType": "uint256",
          "name": "",
          "type": "uint256"
        }
      ],
      "stateMutability": "view",
      "type": "function"
    },
    {
      "inputs": [
        {
          "internalType": "address",
          "name": "",
          "type": "address"
        }
      ],
      "name": "userToPoints",
      "outputs": [
        {
          "internalType": "uint256",
          "name": "",
          "type": "uint256"
        }
      ],
      "stateMutability": "view",
      "type": "function"
    },
    {
      "inputs": [
        {
          "internalType": "address",
          "name": "",
          "type": "address"
        },
        {
          "internalType": "uint256",
          "name": "",
          "type": "uint256"
        }
      ],
      "name": "userToRecord",
      "outputs": [
        {
          "internalType": "uint256",
          "name": "",
          "type": "uint256"
        }
      ],
      "stateMutability": "view",
      "type": "function"
    },
    {
      "inputs": [],
      "name": "whitelistContract",
      "outputs": [
        {
          "internalType": "contract Whitelist",
          "name": "",
          "type": "address"
        }
      ],
      "stateMutability": "view",
      "type": "function"
    }
  ],
  "bytecode": "0x608060405234801561001057600080fd5b506001808190555061511e806100276000396000f3fe60806040523480156200001157600080fd5b50600436106200021e5760003560e01c8063747b80501162000129578063c99fea9411620000b1578063ee90080f116200007b578063ee90080f14620005c9578063f612121a14620005ff578063f851a440146200061f578063f88160451462000641576200021e565b8063c99fea941462000545578063cff560031462000551578063e4c9066b1462000587578063e5f7322f1462000593576200021e565b80639122ce6d11620000f35780639122ce6d14620004d5578063a2bc091a146200050b578063a949a9d71462000517578063c8be3b5b1462000539576200021e565b8063747b8050146200044f5780637eed33f1146200046f578063841abf6e146200049157806384900b0414620004b3576200021e565b806327311b3211620001ad5780633c3ae13f11620001775780633c3ae13f14620003c957806352e6e5f314620003e957806360c7dc47146200040b5780636cc15ad5146200042d576200021e565b806327311b32146200032f5780632ae6b13514620003515780632d382ee01462000387578063305a578214620003bd576200021e565b80630c6f795911620001ef5780630c6f795914620002955780631d803e0014620002cb5780631dd7f8ca14620002d7578063267175db14620002f9576200021e565b80622772c21462000223578062b2476f14620002455780630635dbcb14620002675780630655465a1462000289575b600080fd5b6200022d62000663565b6040516200023c91906200367d565b60405180910390f35b6200024f6200071b565b6040516200025e91906200325e565b60405180910390f35b6200027162000741565b604051620002809190620033e2565b60405180910390f35b6200029362000754565b005b620002b36004803603810190620002ad919062002a0c565b6200085f565b604051620002c291906200367d565b60405180910390f35b620002d562000891565b005b620002e162000cd8565b604051620002f091906200325e565b60405180910390f35b62000317600480360381019062000311919062002bf0565b62000cfe565b6040516200032691906200325e565b60405180910390f35b6200033962000d3e565b604051620003489190620033e2565b60405180910390f35b6200036f6004803603810190620003699190620029da565b62000d55565b6040516200037e91906200367d565b60405180910390f35b620003a560048036038101906200039f919062002bf0565b62000d6d565b604051620003b491906200339a565b60405180910390f35b620003c762000e5e565b005b620003e76004803603810190620003e1919062002ad6565b62000fd6565b005b620003f362001366565b6040516200040291906200367d565b60405180910390f35b620004156200136c565b6040516200042491906200367d565b60405180910390f35b6200043762001372565b604051620004469190620033e2565b60405180910390f35b6200046d6004803603810190620004679190620029da565b62001385565b005b6200047962001560565b6040516200048891906200367d565b60405180910390f35b6200049b62001566565b604051620004aa91906200348d565b60405180910390f35b620004bd620015fc565b604051620004cc91906200341c565b60405180910390f35b620004f36004803603810190620004ed9190620029da565b62001622565b604051620005029190620033e2565b60405180910390f35b6200051562001642565b005b62000521620016f2565b604051620005309190620033ff565b60405180910390f35b6200054362001718565b005b6200054f620017c8565b005b6200056f600480360381019062000569919062002a0c565b62001da8565b6040516200057e91906200367d565b60405180910390f35b6200059162001dda565b005b620005b16004803603810190620005ab9190620029da565b62001e8a565b604051620005c09190620033be565b60405180910390f35b620005e76004803603810190620005e1919062002bf0565b62001f23565b604051620005f691906200325e565b60405180910390f35b6200061d600480360381019062000617919062002a53565b62001f6e565b005b6200062962002454565b6040516200063891906200325e565b60405180910390f35b6200064b6200247a565b6040516200065a9190620033be565b60405180910390f35b6000601460009054906101000a900473ffffffffffffffffffffffffffffffffffffffff1673ffffffffffffffffffffffffffffffffffffffff166370a08231306040518263ffffffff1660e01b8152600401620006c291906200325e565b60206040518083038186803b158015620006db57600080fd5b505afa158015620006f0573d6000803e3d6000fd5b505050506040513d601f19601f8201168201806040525081019062000716919062002c22565b905090565b601060009054906101000a900473ffffffffffffffffffffffffffffffffffffffff1681565b600760159054906101000a900460ff1681565b600760009054906101000a900473ffffffffffffffffffffffffffffffffffffffff1673ffffffffffffffffffffffffffffffffffffffff163373ffffffffffffffffffffffffffffffffffffffff1614620007e7576040517f08c379a0000000000000000000000000000000000000000000000000000000008152600401620007de90620035b1565b60405180910390fd5b73__$36fdb4e0c2cb91f3ceca5ea81b025328f3$__63d2c232b5600f600d60035460026040518563ffffffff1660e01b81526004016200082b949392919062003439565b60006040518083038186803b1580156200084457600080fd5b505af415801562000859573d6000803e3d6000fd5b50505050565b600960205281600052604060002081815481106200087c57600080fd5b90600052602060002001600091509150505481565b600760009054906101000a900473ffffffffffffffffffffffffffffffffffffffff1673ffffffffffffffffffffffffffffffffffffffff163373ffffffffffffffffffffffffffffffffffffffff161462000924576040517f08c379a00000000000000000000000000000000000000000000000000000000081526004016200091b90620035b1565b60405180910390fd5b6000600454600d805490506200093b919062003924565b905073__$36fdb4e0c2cb91f3ceca5ea81b025328f3$__63cc9b40cc600d600b600e6040518463ffffffff1660e01b81526004016200097d9392919062003322565b60006040518083038186803b1580156200099657600080fd5b505af4158015620009ab573d6000803e3d6000fd5b5050505060005b600e8054905081101562000a225762000a0c600e8281548110620009db57620009da62003c58565b5b9060005260206000200160009054906101000a900473ffffffffffffffffffffffffffffffffffffffff1662002511565b808062000a199062003b7d565b915050620009b2565b506000600e805490508262000a389190620038ec565b905062000a806040518060400160405280601681526020017f4c65616775652077696e6e657273206c656e2069732000000000000000000000815250600e80549050620025ae565b62000ac16040518060400160405280601681526020017f5072697a65207065722077696e6e6572206973203a200000000000000000000081525082620025ae565b7f648f2405ea194f3e49fe1655279883b3474e63909ab7e4a579b051d548ad8389600e8260405162000af592919062003366565b60405180910390a160005b600e8054905081101562000cd357601460009054906101000a900473ffffffffffffffffffffffffffffffffffffffff1673ffffffffffffffffffffffffffffffffffffffff1663095ea7b330846040518363ffffffff1660e01b815260040162000b6d929190620032b8565b602060405180830381600087803b15801562000b8857600080fd5b505af115801562000b9d573d6000803e3d6000fd5b505050506040513d601f19601f8201168201806040525081019062000bc3919062002aa4565b50601460009054906101000a900473ffffffffffffffffffffffffffffffffffffffff1673ffffffffffffffffffffffffffffffffffffffff166323b872dd30600e848154811062000c1a5762000c1962003c58565b5b9060005260206000200160009054906101000a900473ffffffffffffffffffffffffffffffffffffffff16856040518463ffffffff1660e01b815260040162000c66939291906200327b565b602060405180830381600087803b15801562000c8157600080fd5b505af115801562000c96573d6000803e3d6000fd5b505050506040513d601f19601f8201168201806040525081019062000cbc919062002aa4565b50808062000cca9062003b7d565b91505062000b00565b505050565b600760009054906101000a900473ffffffffffffffffffffffffffffffffffffffff1681565b600d818154811062000d0f57600080fd5b906000526020600020016000915054906101000a900473ffffffffffffffffffffffffffffffffffffffff1681565b6000600760159054906101000a900460ff16905090565b600b6020528060005260406000206000915090505481565b6060600f6000838152602001908152602001600020805480602002602001604051908101604052809291908181526020016000905b8282101562000e5357838290600052602060002090600202016040518060200160405290816000820160028060200260405190810160405280929190826002801562000e3a576020028201915b8160009054906101000a900473ffffffffffffffffffffffffffffffffffffffff1673ffffffffffffffffffffffffffffffffffffffff168152602001906001019080831162000def575b5050505050815250508152602001906001019062000da2565b505050509050919050565b600760009054906101000a900473ffffffffffffffffffffffffffffffffffffffff1673ffffffffffffffffffffffffffffffffffffffff163373ffffffffffffffffffffffffffffffffffffffff161462000ef1576040517f08c379a000000000000000000000000000000000000000000000000000000000815260040162000ee890620035b1565b60405180910390fd5b73__$36fdb4e0c2cb91f3ceca5ea81b025328f3$__63c930f4bc600554601160009054906101000a900473ffffffffffffffffffffffffffffffffffffffff166009600a600b600f6040518763ffffffff1660e01b815260040162000f5c969594939291906200369a565b60006040518083038186803b15801562000f7557600080fd5b505af415801562000f8a573d6000803e3d6000fd5b50505050600160035462000f9f919062003985565b600554141562000fb95762000fb362000891565b62000fd4565b6005600081548092919062000fce9062003b7d565b91905055505b565b600060019054906101000a900460ff16620010005760008054906101000a900460ff16156200100b565b6200100a6200264e565b5b6200104d576040517f08c379a000000000000000000000000000000000000000000000000000000000815260040162001044906200356d565b60405180910390fd5b60008060019054906101000a900460ff1615905080156200109e576001600060016101000a81548160ff02191690831515021790555060016000806101000a81548160ff0219169083151502179055505b8b8b60029190620010b19291906200274a565b50600860038190555086600660006101000a81548173ffffffffffffffffffffffffffffffffffffffff021916908373ffffffffffffffffffffffffffffffffffffffff160217905550896004819055506000600760146101000a81548160ff0219169083151502179055506000600760156101000a81548160ff02191690831515021790555087601160006101000a81548173ffffffffffffffffffffffffffffffffffffffff021916908373ffffffffffffffffffffffffffffffffffffffff16021790555081601360006101000a81548173ffffffffffffffffffffffffffffffffffffffff021916908373ffffffffffffffffffffffffffffffffffffffff16021790555088604051620011c990620027db565b620011d59190620033e2565b604051809103906000f080158015620011f2573d6000803e3d6000fd5b50601260006101000a81548173ffffffffffffffffffffffffffffffffffffffff021916908373ffffffffffffffffffffffffffffffffffffffff16021790555085601460006101000a81548173ffffffffffffffffffffffffffffffffffffffff021916908373ffffffffffffffffffffffffffffffffffffffff16021790555082600760006101000a81548173ffffffffffffffffffffffffffffffffffffffff021916908373ffffffffffffffffffffffffffffffffffffffff16021790555083601560006101000a81548173ffffffffffffffffffffffffffffffffffffffff021916908373ffffffffffffffffffffffffffffffffffffffff160217905550620013366040518060400160405280601281526020017f50726f787920696e697469616c697a656421000000000000000000000000000081525062002661565b8015620013585760008060016101000a81548160ff0219169083151502179055505b505050505050505050505050565b60055481565b60045481565b600760149054906101000a900460ff1681565b600660009054906101000a900473ffffffffffffffffffffffffffffffffffffffff1673ffffffffffffffffffffffffffffffffffffffff163373ffffffffffffffffffffffffffffffffffffffff161462001418576040517f08c379a00000000000000000000000000000000000000000000000000000000081526004016200140f906200358f565b60405180910390fd5b601260009054906101000a900473ffffffffffffffffffffffffffffffffffffffff1673ffffffffffffffffffffffffffffffffffffffff16637b9417c8826040518263ffffffff1660e01b81526004016200147591906200325e565b602060405180830381600087803b1580156200149057600080fd5b505af1158015620014a5573d6000803e3d6000fd5b505050506040513d601f19601f82011682018060405250810190620014cb919062002aa4565b50601360009054906101000a900473ffffffffffffffffffffffffffffffffffffffff1673ffffffffffffffffffffffffffffffffffffffff1663771bd4ce826040518263ffffffff1660e01b81526004016200152991906200325e565b600060405180830381600087803b1580156200154457600080fd5b505af115801562001559573d6000803e3d6000fd5b5050505050565b60035481565b60028054620015759062003af3565b80601f0160208091040260200160405190810160405280929190818152602001828054620015a39062003af3565b8015620015f45780601f10620015c857610100808354040283529160200191620015f4565b820191906000526020600020905b815481529060010190602001808311620015d657829003601f168201915b505050505081565b601260009054906101000a900473ffffffffffffffffffffffffffffffffffffffff1681565b600c6020528060005260406000206000915054906101000a900460ff1681565b600760009054906101000a900473ffffffffffffffffffffffffffffffffffffffff1673ffffffffffffffffffffffffffffffffffffffff163373ffffffffffffffffffffffffffffffffffffffff1614620016d5576040517f08c379a0000000000000000000000000000000000000000000000000000000008152600401620016cc90620035b1565b60405180910390fd5b6000600760156101000a81548160ff021916908315150217905550565b601460009054906101000a900473ffffffffffffffffffffffffffffffffffffffff1681565b600760009054906101000a900473ffffffffffffffffffffffffffffffffffffffff1673ffffffffffffffffffffffffffffffffffffffff163373ffffffffffffffffffffffffffffffffffffffff1614620017ab576040517f08c379a0000000000000000000000000000000000000000000000000000000008152600401620017a290620035b1565b60405180910390fd5b6001600760156101000a81548160ff021916908315150217905550565b6002600154141562001811576040517f08c379a0000000000000000000000000000000000000000000000000000000008152600401620018089062003639565b60405180910390fd5b6002600181905550601260009054906101000a900473ffffffffffffffffffffffffffffffffffffffff1673ffffffffffffffffffffffffffffffffffffffff16639b19251a336040518263ffffffff1660e01b81526004016200187691906200325e565b60206040518083038186803b1580156200188f57600080fd5b505afa158015620018a4573d6000803e3d6000fd5b505050506040513d601f19601f82011682018060405250810190620018ca919062002aa4565b80620019765750601260009054906101000a900473ffffffffffffffffffffffffffffffffffffffff1673ffffffffffffffffffffffffffffffffffffffff1663dc9a15356040518163ffffffff1660e01b815260040160206040518083038186803b1580156200193a57600080fd5b505afa1580156200194f573d6000803e3d6000fd5b505050506040513d601f19601f8201168201806040525081019062001975919062002aa4565b5b80620019cf5750600660009054906101000a900473ffffffffffffffffffffffffffffffffffffffff1673ffffffffffffffffffffffffffffffffffffffff163373ffffffffffffffffffffffffffffffffffffffff16145b62001a11576040517f08c379a000000000000000000000000000000000000000000000000000000000815260040162001a0890620035f5565b60405180910390fd5b600760149054906101000a900460ff161562001a64576040517f08c379a000000000000000000000000000000000000000000000000000000000815260040162001a5b906200365b565b60405180910390fd5b600c60003373ffffffffffffffffffffffffffffffffffffffff1673ffffffffffffffffffffffffffffffffffffffff16815260200190815260200160002060009054906101000a900460ff161562001af4576040517f08c379a000000000000000000000000000000000000000000000000000000000815260040162001aeb9062003507565b60405180910390fd5b600454601460009054906101000a900473ffffffffffffffffffffffffffffffffffffffff1673ffffffffffffffffffffffffffffffffffffffff166370a08231336040518263ffffffff1660e01b815260040162001b5491906200325e565b60206040518083038186803b15801562001b6d57600080fd5b505afa15801562001b82573d6000803e3d6000fd5b505050506040513d601f19601f8201168201806040525081019062001ba8919062002c22565b1162001beb576040517f08c379a000000000000000000000000000000000000000000000000000000000815260040162001be290620034e5565b60405180910390fd5b6001600c60003373ffffffffffffffffffffffffffffffffffffffff1673ffffffffffffffffffffffffffffffffffffffff16815260200190815260200160002060006101000a81548160ff021916908315150217905550600d339080600181540180825580915050600190039060005260206000200160009091909190916101000a81548173ffffffffffffffffffffffffffffffffffffffff021916908373ffffffffffffffffffffffffffffffffffffffff160217905550601460009054906101000a900473ffffffffffffffffffffffffffffffffffffffff1673ffffffffffffffffffffffffffffffffffffffff166323b872dd33306004546040518463ffffffff1660e01b815260040162001d09939291906200327b565b602060405180830381600087803b15801562001d2457600080fd5b505af115801562001d39573d6000803e3d6000fd5b505050506040513d601f19601f8201168201806040525081019062001d5f919062002aa4565b507f9f9e4044c5742cca66ca090b21552bac14645e68bad7a92364a9d9ff18111a1c336004543060405162001d9793929190620032e5565b60405180910390a160018081905550565b600a602052816000526040600020818154811062001dc557600080fd5b90600052602060002001600091509150505481565b600760009054906101000a900473ffffffffffffffffffffffffffffffffffffffff1673ffffffffffffffffffffffffffffffffffffffff163373ffffffffffffffffffffffffffffffffffffffff161462001e6d576040517f08c379a000000000000000000000000000000000000000000000000000000000815260040162001e6490620035b1565b60405180910390fd5b6001600760146101000a81548160ff021916908315150217905550565b6060600a60008373ffffffffffffffffffffffffffffffffffffffff1673ffffffffffffffffffffffffffffffffffffffff16815260200190815260200160002080548060200260200160405190810160405280929190818152602001828054801562001f1757602002820191906000526020600020905b81548152602001906001019080831162001f02575b50505050509050919050565b6000600d828154811062001f3c5762001f3b62003c58565b5b9060005260206000200160009054906101000a900473ffffffffffffffffffffffffffffffffffffffff169050919050565b600760159054906101000a900460ff161562001fc1576040517f08c379a000000000000000000000000000000000000000000000000000000000815260040162001fb8906200354b565b60405180910390fd5b600c60003373ffffffffffffffffffffffffffffffffffffffff1673ffffffffffffffffffffffffffffffffffffffff16815260200190815260200160002060009054906101000a900460ff1662002050576040517f08c379a00000000000000000000000000000000000000000000000000000000081526004016200204790620035d3565b60405180910390fd5b60005b600a60003373ffffffffffffffffffffffffffffffffffffffff1673ffffffffffffffffffffffffffffffffffffffff16815260200190815260200160002080549050811015620021555760086000600a60003373ffffffffffffffffffffffffffffffffffffffff1673ffffffffffffffffffffffffffffffffffffffff1681526020019081526020016000208381548110620020f657620020f562003c58565b5b906000526020600020015481526020019081526020016000206005546008811062002126576200212562003c58565b5b0160008154809291906200213a9062003ac4565b919050555080806200214c9062003b7d565b91505062002053565b5060005b8151811015620021d957600860008383815181106200217d576200217c62003c58565b5b6020026020010151815260200190815260200160002060055460088110620021aa57620021a962003c58565b5b016000815480929190620021be9062003b7d565b91905055508080620021d09062003b7d565b91505062002159565b5060005b815181101562002311576000601560009054906101000a900473ffffffffffffffffffffffffffffffffffffffff1673ffffffffffffffffffffffffffffffffffffffff1662fdd58e338585815181106200223d576200223c62003c58565b5b60200260200101516040518363ffffffff1660e01b815260040162002264929190620032b8565b60206040518083038186803b1580156200227d57600080fd5b505afa15801562002292573d6000803e3d6000fd5b505050506040513d601f19601f82011682018060405250810190620022b8919062002c22565b11620022fb576040517f08c379a0000000000000000000000000000000000000000000000000000000008152600401620022f29062003617565b60405180910390fd5b8080620023089062003b7d565b915050620021dd565b5060005b8151811015620023fa57600a816200232e919062003924565b82828151811062002344576200234362003c58565b5b602002602001015110158015620023a257506001600a6001836200236991906200388f565b62002375919062003924565b62002381919062003985565b82828151811062002397576200239662003c58565b5b602002602001015111155b620023e4576040517f08c379a0000000000000000000000000000000000000000000000000000000008152600401620023db9062003529565b60405180910390fd5b8080620023f19062003b7d565b91505062002315565b5080600a60003373ffffffffffffffffffffffffffffffffffffffff1673ffffffffffffffffffffffffffffffffffffffff168152602001908152602001600020908051906020019062002450929190620027e9565b5050565b600660009054906101000a900473ffffffffffffffffffffffffffffffffffffffff1681565b6060600960003373ffffffffffffffffffffffffffffffffffffffff1673ffffffffffffffffffffffffffffffffffffffff1681526020019081526020016000208054806020026020016040519081016040528092919081815260200182805480156200250757602002820191906000526020600020905b815481526020019060010190808311620024f2575b5050505050905090565b620025ab816040516024016200252891906200325e565b6040516020818303038152906040527f2c2ecbc2000000000000000000000000000000000000000000000000000000007bffffffffffffffffffffffffffffffffffffffffffffffffffffffff19166020820180517bffffffffffffffffffffffffffffffffffffffffffffffffffffffff8381831617835250505050620026fe565b50565b6200264a8282604051602401620025c7929190620034b1565b6040516020818303038152906040527f9710a9d0000000000000000000000000000000000000000000000000000000007bffffffffffffffffffffffffffffffffffffffffffffffffffffffff19166020820180517bffffffffffffffffffffffffffffffffffffffffffffffffffffffff8381831617835250505050620026fe565b5050565b60006200265b3062002727565b15905090565b620026fb816040516024016200267891906200348d565b6040516020818303038152906040527f41304fac000000000000000000000000000000000000000000000000000000007bffffffffffffffffffffffffffffffffffffffffffffffffffffffff19166020820180517bffffffffffffffffffffffffffffffffffffffffffffffffffffffff8381831617835250505050620026fe565b50565b60008151905060006a636f6e736f6c652e6c6f679050602083016000808483855afa5050505050565b6000808273ffffffffffffffffffffffffffffffffffffffff163b119050919050565b828054620027589062003af3565b90600052602060002090601f0160209004810192826200277c5760008555620027c8565b82601f106200279757803560ff1916838001178555620027c8565b82800160010185558215620027c8579182015b82811115620027c7578235825591602001919060010190620027aa565b5b509050620027d791906200283b565b5090565b6111148062003fd583390190565b82805482825590600052602060002090810192821562002828579160200282015b82811115620028275782518255916020019190600101906200280a565b5b5090506200283791906200283b565b5090565b5b80821115620028565760008160009055506001016200283c565b5090565b6000620028716200286b8462003730565b62003707565b9050808382526020820190508285602086028201111562002897576200289662003cd5565b5b60005b85811015620028cb5781620028b08882620029ac565b8452602084019350602083019250506001810190506200289a565b5050509392505050565b600081359050620028e68162003f86565b92915050565b600082601f83011262002904576200290362003cd0565b5b8135620029168482602086016200285a565b91505092915050565b600081359050620029308162003fa0565b92915050565b600081519050620029478162003fa0565b92915050565b60008083601f84011262002966576200296562003cd0565b5b8235905067ffffffffffffffff81111562002986576200298562003ccb565b5b602083019150836001820283011115620029a557620029a462003cd5565b5b9250929050565b600081359050620029bd8162003fba565b92915050565b600081519050620029d48162003fba565b92915050565b600060208284031215620029f357620029f262003cdf565b5b600062002a0384828501620028d5565b91505092915050565b6000806040838503121562002a265762002a2562003cdf565b5b600062002a3685828601620028d5565b925050602062002a4985828601620029ac565b9150509250929050565b60006020828403121562002a6c5762002a6b62003cdf565b5b600082013567ffffffffffffffff81111562002a8d5762002a8c62003cda565b5b62002a9b84828501620028ec565b91505092915050565b60006020828403121562002abd5762002abc62003cdf565b5b600062002acd8482850162002936565b91505092915050565b60008060008060008060008060008060006101408c8e03121562002aff5762002afe62003cdf565b5b60008c013567ffffffffffffffff81111562002b205762002b1f62003cda565b5b62002b2e8e828f016200294d565b9b509b5050602062002b438e828f01620029ac565b995050604062002b568e828f016200291f565b985050606062002b698e828f01620028d5565b975050608062002b7c8e828f01620028d5565b96505060a062002b8f8e828f01620028d5565b95505060c062002ba28e828f01620028d5565b94505060e062002bb58e828f01620028d5565b93505061010062002bc98e828f01620028d5565b92505061012062002bdd8e828f01620028d5565b9150509295989b509295989b9093969950565b60006020828403121562002c095762002c0862003cdf565b5b600062002c1984828501620029ac565b91505092915050565b60006020828403121562002c3b5762002c3a62003cdf565b5b600062002c4b84828501620029c3565b91505092915050565b600062002c62838362002cbc565b60208301905092915050565b600062002c7c838362002cde565b60208301905092915050565b600062002c9683836200320d565b60408301905092915050565b600062002cb083836200322b565b60208301905092915050565b62002cc781620039e0565b82525050565b62002cd881620039e0565b82525050565b62002ce981620039e0565b82525050565b62002cfa81620037b3565b62002d0681846200381e565b925062002d13826200375f565b8060005b8381101562002d4a57815162002d2e878262002c54565b965062002d3b83620037ea565b92505060018101905062002d17565b505050505050565b600062002d5f82620037be565b62002d6b818562003829565b935062002d788362003769565b8060005b8381101562002db85762002d908262003cb6565b62002d9c888262002c54565b975062002da983620037f7565b92505060018101905062002d7c565b5085935050505092915050565b600062002dd282620037be565b62002dde81856200383a565b935062002deb8362003769565b8060005b8381101562002e2b5762002e038262003cb6565b62002e0f888262002c6e565b975062002e1c83620037f7565b92505060018101905062002def565b5085935050505092915050565b8082525050565b600062002e4c82620037c9565b62002e5881856200384b565b935062002e65836200377e565b8060005b8381101562002e9c57815162002e80888262002c88565b975062002e8d8362003804565b92505060018101905062002e69565b5085935050505092915050565b600062002eb682620037d4565b62002ec281856200385c565b935062002ecf836200378e565b8060005b8381101562002f0657815162002eea888262002ca2565b975062002ef78362003811565b92505060018101905062002ed3565b5085935050505092915050565b62002f1e81620039f4565b82525050565b62002f2f8162003a2a565b82525050565b62002f408162003a3e565b82525050565b62002f518162003a52565b82525050565b8082525050565b8082525050565b8082525050565b600062002f7982620037df565b62002f8581856200386d565b935062002f9781856020860162003a8e565b62002fa28162003ce4565b840191505092915050565b6000815462002fbc8162003af3565b62002fc881866200387e565b9450600182166000811462002fe6576001811462002ff95762003030565b60ff198316865260208601935062003030565b62003004856200379e565b60005b83811015620030285781548189015260018201915060208101905062003007565b808801955050505b50505092915050565b600062003048601d836200386d565b9150620030558262003d02565b602082019050919050565b60006200306f6023836200386d565b91506200307c8262003d2b565b604082019050919050565b6000620030966031836200386d565b9150620030a38262003d7a565b604082019050919050565b6000620030bd601e836200386d565b9150620030ca8262003dc9565b602082019050919050565b6000620030e4602e836200386d565b9150620030f18262003df2565b604082019050919050565b60006200310b6017836200386d565b9150620031188262003e41565b602082019050919050565b6000620031326016836200386d565b91506200313f8262003e6a565b602082019050919050565b6000620031596016836200386d565b9150620031668262003e93565b602082019050919050565b600062003180601c836200386d565b91506200318d8262003ebc565b602082019050919050565b6000620031a76024836200386d565b9150620031b48262003ee5565b604082019050919050565b6000620031ce601f836200386d565b9150620031db8262003f34565b602082019050919050565b6000620031f56017836200386d565b9150620032028262003f5d565b602082019050919050565b60408201600082015162003225600085018262002cef565b50505050565b620032368162003a20565b82525050565b620032478162003a20565b82525050565b620032588162003a20565b82525050565b600060208201905062003275600083018462002ccd565b92915050565b600060608201905062003292600083018662002ccd565b620032a1602083018562002ccd565b620032b060408301846200323c565b949350505050565b6000604082019050620032cf600083018562002ccd565b620032de60208301846200323c565b9392505050565b6000606082019050620032fc600083018662002ccd565b6200330b60208301856200323c565b6200331a604083018462002ccd565b949350505050565b600060608201905081810360008301526200333e818662002dc5565b90506200334f602083018562002f5e565b6200335e604083018462002e38565b949350505050565b6000604082019050818103600083015262003382818562002d52565b90506200339360208301846200323c565b9392505050565b60006020820190508181036000830152620033b6818462002e3f565b905092915050565b60006020820190508181036000830152620033da818462002ea9565b905092915050565b6000602082019050620033f9600083018462002f13565b92915050565b600060208201905062003416600083018462002f35565b92915050565b600060208201905062003433600083018462002f46565b92915050565b600060808201905062003450600083018762002f65565b6200345f602083018662002e38565b6200346e60408301856200324d565b818103606083015262003482818462002fad565b905095945050505050565b60006020820190508181036000830152620034a9818462002f6c565b905092915050565b60006040820190508181036000830152620034cd818562002f6c565b9050620034de60208301846200323c565b9392505050565b60006020820190508181036000830152620035008162003039565b9050919050565b60006020820190508181036000830152620035228162003060565b9050919050565b60006020820190508181036000830152620035448162003087565b9050919050565b600060208201905081810360008301526200356681620030ae565b9050919050565b600060208201905081810360008301526200358881620030d5565b9050919050565b60006020820190508181036000830152620035aa81620030fc565b9050919050565b60006020820190508181036000830152620035cc8162003123565b9050919050565b60006020820190508181036000830152620035ee816200314a565b9050919050565b60006020820190508181036000830152620036108162003171565b9050919050565b60006020820190508181036000830152620036328162003198565b9050919050565b600060208201905081810360008301526200365481620031bf565b9050919050565b600060208201905081810360008301526200367681620031e6565b9050919050565b60006020820190506200369460008301846200323c565b92915050565b600060c082019050620036b160008301896200324d565b620036c0602083018862002f24565b620036cf604083018762002f57565b620036de606083018662002f57565b620036ed608083018562002f5e565b620036fc60a083018462002f65565b979650505050505050565b60006200371362003726565b905062003721828262003b47565b919050565b6000604051905090565b600067ffffffffffffffff8211156200374e576200374d62003c87565b5b602082029050602081019050919050565b6000819050919050565b60008190508160005260206000209050919050565b6000819050602082019050919050565b6000819050602082019050919050565b60008190508160005260206000209050919050565b600060029050919050565b600081549050919050565b600081519050919050565b600081519050919050565b600081519050919050565b6000602082019050919050565b6000600182019050919050565b6000602082019050919050565b6000602082019050919050565b600081905092915050565b600082825260208201905092915050565b600082825260208201905092915050565b600082825260208201905092915050565b600082825260208201905092915050565b600082825260208201905092915050565b600082825260208201905092915050565b60006200389c8262003a20565b9150620038a98362003a20565b9250827fffffffffffffffffffffffffffffffffffffffffffffffffffffffffffffffff03821115620038e157620038e062003bcb565b5b828201905092915050565b6000620038f98262003a20565b9150620039068362003a20565b92508262003919576200391862003bfa565b5b828204905092915050565b6000620039318262003a20565b91506200393e8362003a20565b9250817fffffffffffffffffffffffffffffffffffffffffffffffffffffffffffffffff04831182151516156200397a576200397962003bcb565b5b828202905092915050565b6000620039928262003a20565b91506200399f8362003a20565b925082821015620039b557620039b462003bcb565b5b828203905092915050565b600073ffffffffffffffffffffffffffffffffffffffff82169050919050565b6000620039ed8262003a00565b9050919050565b60008115159050919050565b600073ffffffffffffffffffffffffffffffffffffffff82169050919050565b6000819050919050565b600062003a378262003a66565b9050919050565b600062003a4b8262003a66565b9050919050565b600062003a5f8262003a66565b9050919050565b600062003a738262003a7a565b9050919050565b600062003a878262003a00565b9050919050565b60005b8381101562003aae57808201518184015260208101905062003a91565b8381111562003abe576000848401525b50505050565b600062003ad18262003a20565b9150600082141562003ae85762003ae762003bcb565b5b600182039050919050565b6000600282049050600182168062003b0c57607f821691505b6020821081141562003b235762003b2262003c29565b5b50919050565b600062003b4062003b3a8362003cf5565b620039c0565b9050919050565b62003b528262003ce4565b810181811067ffffffffffffffff8211171562003b745762003b7362003c87565b5b80604052505050565b600062003b8a8262003a20565b91507fffffffffffffffffffffffffffffffffffffffffffffffffffffffffffffffff82141562003bc05762003bbf62003bcb565b5b600182019050919050565b7f4e487b7100000000000000000000000000000000000000000000000000000000600052601160045260246000fd5b7f4e487b7100000000000000000000000000000000000000000000000000000000600052601260045260246000fd5b7f4e487b7100000000000000000000000000000000000000000000000000000000600052602260045260246000fd5b7f4e487b7100000000000000000000000000000000000000000000000000000000600052603260045260246000fd5b7f4e487b7100000000000000000000000000000000000000000000000000000000600052604160045260246000fd5b600062003cc4825462003b29565b9050919050565b600080fd5b600080fd5b600080fd5b600080fd5b600080fd5b6000601f19601f8301169050919050565b60008160001c9050919050565b7f496e737566666963656e742066756e647320666f72207374616b696e67000000600082015250565b7f596f75206861766520616c7265616479206a6f696e65642074686973206c656160008201527f6775650000000000000000000000000000000000000000000000000000000000602082015250565b7f596f75206172652073657474696e6720616e206174686c65746520696e20746860008201527f652077726f6e6720706f736974696f6e21000000000000000000000000000000602082015250565b7f6c696e657570206973206c6f636b656420666f7220746865207765656b210000600082015250565b7f496e697469616c697a61626c653a20636f6e747261637420697320616c72656160008201527f647920696e697469616c697a6564000000000000000000000000000000000000602082015250565b7f43616c6c6572206973206e6f74207468652061646d696e000000000000000000600082015250565b7f43616c6c6572206973206e6f74205465616d4469666600000000000000000000600082015250565b7f55736572206973206e6f7420696e204c65616775652e00000000000000000000600082015250565b7f55736572206973206e6f74206f6e2077686974656c6973742062726f00000000600082015250565b7f43616c6c657220646f6573206e6f74206f776e20676976656e206174686c657460008201527f6549647300000000000000000000000000000000000000000000000000000000602082015250565b7f5265656e7472616e637947756172643a207265656e7472616e742063616c6c00600082015250565b7f4c656167756520456e74727920697320436c6f73656421000000000000000000600082015250565b62003f9181620039e0565b811462003f9d57600080fd5b50565b62003fab81620039f4565b811462003fb757600080fd5b50565b62003fc58162003a20565b811462003fd157600080fd5b5056fe60806040523480156200001157600080fd5b50604051620011143803806200111483398181016040528101906200003791906200015b565b620000576200004b6200007860201b60201c565b6200008060201b60201c565b80600360006101000a81548160ff02191690831515021790555050620001b8565b600033905090565b60008060009054906101000a900473ffffffffffffffffffffffffffffffffffffffff169050816000806101000a81548173ffffffffffffffffffffffffffffffffffffffff021916908373ffffffffffffffffffffffffffffffffffffffff1602179055508173ffffffffffffffffffffffffffffffffffffffff168173ffffffffffffffffffffffffffffffffffffffff167f8be0079c531659141344cd1fd0a4f28419497f9722a3daafe3b4186f6b6457e060405160405180910390a35050565b60008151905062000155816200019e565b92915050565b60006020828403121562000174576200017362000199565b5b6000620001848482850162000144565b91505092915050565b60008115159050919050565b600080fd5b620001a9816200018d565b8114620001b557600080fd5b50565b610f4c80620001c86000396000f3fe608060405234801561001057600080fd5b50600436106100a95760003560e01c80638da5cb5b116100715780638da5cb5b146101665780639b19251a14610184578063dc9a1535146101b4578063e2ec6ec3146101d2578063e35a899914610202578063f2fde38b14610232576100a9565b806324953eaa146100ae578063286dd3f5146100de57806344eaa84e1461010e578063715018a61461012c5780637b9417c814610136575b600080fd5b6100c860048036038101906100c39190610ada565b61024e565b6040516100d59190610bb1565b60405180910390f35b6100f860048036038101906100f39190610aad565b61031e565b6040516101059190610bb1565b60405180910390f35b6101166104a1565b6040516101239190610c0c565b60405180910390f35b6101346104ab565b005b610150600480360381019061014b9190610aad565b610533565b60405161015d9190610bb1565b60405180910390f35b61016e6106b4565b60405161017b9190610b96565b60405180910390f35b61019e60048036038101906101999190610aad565b6106dd565b6040516101ab9190610bb1565b60405180910390f35b6101bc6106fd565b6040516101c99190610bb1565b60405180910390f35b6101ec60048036038101906101e79190610ada565b610710565b6040516101f99190610bb1565b60405180910390f35b61021c60048036038101906102179190610aad565b6107e0565b6040516102299190610bb1565b60405180910390f35b61024c60048036038101906102479190610aad565b610836565b005b600061025861092e565b73ffffffffffffffffffffffffffffffffffffffff166102766106b4565b73ffffffffffffffffffffffffffffffffffffffff16146102cc576040517f08c379a00000000000000000000000000000000000000000000000000000000081526004016102c390610bec565b60405180910390fd5b60005b8251811015610318576102fb8382815181106102ee576102ed610e04565b5b602002602001015161031e565b1561030557600191505b808061031090610d8c565b9150506102cf565b50919050565b600061032861092e565b73ffffffffffffffffffffffffffffffffffffffff166103466106b4565b73ffffffffffffffffffffffffffffffffffffffff161461039c576040517f08c379a000000000000000000000000000000000000000000000000000000000815260040161039390610bec565b60405180910390fd5b600160008373ffffffffffffffffffffffffffffffffffffffff1673ffffffffffffffffffffffffffffffffffffffff16815260200190815260200160002060009054906101000a900460ff161561049c576000600160008473ffffffffffffffffffffffffffffffffffffffff1673ffffffffffffffffffffffffffffffffffffffff16815260200190815260200160002060006101000a81548160ff0219169083151502179055507ff1abf01a1043b7c244d128e8595cf0c1d10743b022b03a02dffd8ca3bf729f5a826040516104759190610b96565b60405180910390a16001600260008282546104909190610cdf565b92505081905550600190505b919050565b6000600254905090565b6104b361092e565b73ffffffffffffffffffffffffffffffffffffffff166104d16106b4565b73ffffffffffffffffffffffffffffffffffffffff1614610527576040517f08c379a000000000000000000000000000000000000000000000000000000000815260040161051e90610bec565b60405180910390fd5b6105316000610936565b565b600061053d61092e565b73ffffffffffffffffffffffffffffffffffffffff1661055b6106b4565b73ffffffffffffffffffffffffffffffffffffffff16146105b1576040517f08c379a00000000000000000000000000000000000000000000000000000000081526004016105a890610bec565b60405180910390fd5b600160008373ffffffffffffffffffffffffffffffffffffffff1673ffffffffffffffffffffffffffffffffffffffff16815260200190815260200160002060009054906101000a900460ff166106af5760018060008473ffffffffffffffffffffffffffffffffffffffff1673ffffffffffffffffffffffffffffffffffffffff16815260200190815260200160002060006101000a81548160ff0219169083151502179055507fd1bba68c128cc3f427e5831b3c6f99f480b6efa6b9e80c757768f6124158cc3f826040516106889190610b96565b60405180910390a16001600260008282546106a39190610c89565b92505081905550600190505b919050565b60008060009054906101000a900473ffffffffffffffffffffffffffffffffffffffff16905090565b60016020528060005260406000206000915054906101000a900460ff1681565b600360009054906101000a900460ff1681565b600061071a61092e565b73ffffffffffffffffffffffffffffffffffffffff166107386106b4565b73ffffffffffffffffffffffffffffffffffffffff161461078e576040517f08c379a000000000000000000000000000000000000000000000000000000000815260040161078590610bec565b60405180910390fd5b60005b82518110156107da576107bd8382815181106107b0576107af610e04565b5b6020026020010151610533565b156107c757600191505b80806107d290610d8c565b915050610791565b50919050565b6000600160008373ffffffffffffffffffffffffffffffffffffffff1673ffffffffffffffffffffffffffffffffffffffff16815260200190815260200160002060009054906101000a900460ff169050919050565b61083e61092e565b73ffffffffffffffffffffffffffffffffffffffff1661085c6106b4565b73ffffffffffffffffffffffffffffffffffffffff16146108b2576040517f08c379a00000000000000000000000000000000000000000000000000000000081526004016108a990610bec565b60405180910390fd5b600073ffffffffffffffffffffffffffffffffffffffff168173ffffffffffffffffffffffffffffffffffffffff161415610922576040517f08c379a000000000000000000000000000000000000000000000000000000000815260040161091990610bcc565b60405180910390fd5b61092b81610936565b50565b600033905090565b60008060009054906101000a900473ffffffffffffffffffffffffffffffffffffffff169050816000806101000a81548173ffffffffffffffffffffffffffffffffffffffff021916908373ffffffffffffffffffffffffffffffffffffffff1602179055508173ffffffffffffffffffffffffffffffffffffffff168173ffffffffffffffffffffffffffffffffffffffff167f8be0079c531659141344cd1fd0a4f28419497f9722a3daafe3b4186f6b6457e060405160405180910390a35050565b6000610a0d610a0884610c4c565b610c27565b90508083825260208201905082856020860282011115610a3057610a2f610e67565b5b60005b85811015610a605781610a468882610a6a565b845260208401935060208301925050600181019050610a33565b5050509392505050565b600081359050610a7981610eff565b92915050565b600082601f830112610a9457610a93610e62565b5b8135610aa48482602086016109fa565b91505092915050565b600060208284031215610ac357610ac2610e71565b5b6000610ad184828501610a6a565b91505092915050565b600060208284031215610af057610aef610e71565b5b600082013567ffffffffffffffff811115610b0e57610b0d610e6c565b5b610b1a84828501610a7f565b91505092915050565b610b2c81610d13565b82525050565b610b3b81610d25565b82525050565b6000610b4e602683610c78565b9150610b5982610e87565b604082019050919050565b6000610b71602083610c78565b9150610b7c82610ed6565b602082019050919050565b610b9081610d51565b82525050565b6000602082019050610bab6000830184610b23565b92915050565b6000602082019050610bc66000830184610b32565b92915050565b60006020820190508181036000830152610be581610b41565b9050919050565b60006020820190508181036000830152610c0581610b64565b9050919050565b6000602082019050610c216000830184610b87565b92915050565b6000610c31610c42565b9050610c3d8282610d5b565b919050565b6000604051905090565b600067ffffffffffffffff821115610c6757610c66610e33565b5b602082029050602081019050919050565b600082825260208201905092915050565b6000610c9482610d51565b9150610c9f83610d51565b9250827fffffffffffffffffffffffffffffffffffffffffffffffffffffffffffffffff03821115610cd457610cd3610dd5565b5b828201905092915050565b6000610cea82610d51565b9150610cf583610d51565b925082821015610d0857610d07610dd5565b5b828203905092915050565b6000610d1e82610d31565b9050919050565b60008115159050919050565b600073ffffffffffffffffffffffffffffffffffffffff82169050919050565b6000819050919050565b610d6482610e76565b810181811067ffffffffffffffff82111715610d8357610d82610e33565b5b80604052505050565b6000610d9782610d51565b91507fffffffffffffffffffffffffffffffffffffffffffffffffffffffffffffffff821415610dca57610dc9610dd5565b5b600182019050919050565b7f4e487b7100000000000000000000000000000000000000000000000000000000600052601160045260246000fd5b7f4e487b7100000000000000000000000000000000000000000000000000000000600052603260045260246000fd5b7f4e487b7100000000000000000000000000000000000000000000000000000000600052604160045260246000fd5b600080fd5b600080fd5b600080fd5b600080fd5b6000601f19601f8301169050919050565b7f4f776e61626c653a206e6577206f776e657220697320746865207a65726f206160008201527f6464726573730000000000000000000000000000000000000000000000000000602082015250565b7f4f776e61626c653a2063616c6c6572206973206e6f7420746865206f776e6572600082015250565b610f0881610d13565b8114610f1357600080fd5b5056fea2646970667358221220d9b559c67c9c95c9212a7622f5c7dc9fab9234f044c42f52ae92caa64e6b8af364736f6c63430008070033a2646970667358221220faf55889028f56301da142acf11d6baf3e31b50a0a8f8205a36d32aa2cfa298564736f6c63430008070033",
  "linkReferences": {
    "contracts/MOBALogicLibrary.sol": {
      "MOBALogicLibrary": [
        {
          "length": 20,
          "start": 2064
        },
        {
          "length": 20,
          "start": 2406
        },
        {
          "length": 20,
          "start": 3866
        }
      ]
    }
  },
  "deployedLinkReferences": {
    "contracts/MOBALogicLibrary.sol": {
      "MOBALogicLibrary": [
        {
          "length": 20,
          "start": 2025
        },
        {
          "length": 20,
          "start": 2367
        },
        {
          "length": 20,
          "start": 3827
        }
      ]
    }
  }
}