{
  "_format": "hh-sol-artifact-1",
  "contractName": "LeagueMaker",
  "sourceName": "contracts/LeagueMaker.sol",
  "abi": [
    {
      "inputs": [
        {
          "internalType": "address",
          "name": "_logic",
          "type": "address"
        }
      ],
      "stateMutability": "nonpayable",
      "type": "constructor"
    },
    {
      "anonymous": false,
      "inputs": [
        {
          "indexed": false,
          "internalType": "string",
          "name": "name",
          "type": "string"
        },
        {
          "indexed": false,
          "internalType": "address",
          "name": "proxyAddress",
          "type": "address"
        },
        {
          "indexed": false,
          "internalType": "address",
          "name": "proxyAdminAddress",
          "type": "address"
        }
      ],
      "name": "LeagueCreated",
      "type": "event"
    },
    {
      "anonymous": false,
      "inputs": [
        {
          "indexed": true,
          "internalType": "address",
          "name": "previousOwner",
          "type": "address"
        },
        {
          "indexed": true,
          "internalType": "address",
          "name": "newOwner",
          "type": "address"
        }
      ],
      "name": "OwnershipTransferred",
      "type": "event"
    },
    {
      "anonymous": false,
      "inputs": [
        {
          "indexed": false,
          "internalType": "bool",
          "name": "success",
          "type": "bool"
        },
        {
          "indexed": false,
          "internalType": "bytes",
          "name": "data",
          "type": "bytes"
        }
      ],
      "name": "Response",
      "type": "event"
    },
    {
      "inputs": [
        {
          "internalType": "string",
          "name": "_name",
          "type": "string"
        },
        {
          "internalType": "uint256",
          "name": "_stakeAmount",
          "type": "uint256"
        },
        {
          "internalType": "bool",
          "name": "_isPublic",
          "type": "bool"
        },
        {
          "internalType": "address",
          "name": "_adminAddress",
          "type": "address"
        },
        {
          "internalType": "address",
          "name": "_testUSDCAddress",
          "type": "address"
        },
        {
          "internalType": "address",
          "name": "_athletesContractAddress",
          "type": "address"
        }
      ],
      "name": "createLeague",
      "outputs": [
        {
          "internalType": "address",
          "name": "",
          "type": "address"
        }
      ],
      "stateMutability": "nonpayable",
      "type": "function"
    },
    {
      "inputs": [],
      "name": "currentWeek",
      "outputs": [
        {
          "internalType": "uint256",
          "name": "",
          "type": "uint256"
        }
      ],
      "stateMutability": "view",
      "type": "function"
    },
    {
      "inputs": [],
      "name": "evaluateWeekForAllLeagues",
      "outputs": [],
      "stateMutability": "nonpayable",
      "type": "function"
    },
    {
      "inputs": [],
      "name": "incrementCurrentWeek",
      "outputs": [],
      "stateMutability": "nonpayable",
      "type": "function"
    },
    {
      "inputs": [
        {
          "internalType": "address",
          "name": "",
          "type": "address"
        }
      ],
      "name": "isProxyMap",
      "outputs": [
        {
          "internalType": "bool",
          "name": "",
          "type": "bool"
        }
      ],
      "stateMutability": "view",
      "type": "function"
    },
    {
      "inputs": [
        {
          "internalType": "uint256",
          "name": "",
          "type": "uint256"
        }
      ],
      "name": "leagueAddresses",
      "outputs": [
        {
          "internalType": "address",
          "name": "",
          "type": "address"
        }
      ],
      "stateMutability": "view",
      "type": "function"
    },
    {
      "inputs": [],
      "name": "lockLeagueLineups",
      "outputs": [],
      "stateMutability": "nonpayable",
      "type": "function"
    },
    {
      "inputs": [],
      "name": "lockLeagueMembership",
      "outputs": [],
      "stateMutability": "nonpayable",
      "type": "function"
    },
    {
      "inputs": [],
      "name": "owner",
      "outputs": [
        {
          "internalType": "address",
          "name": "",
          "type": "address"
        }
      ],
      "stateMutability": "view",
      "type": "function"
    },
    {
      "inputs": [],
      "name": "renounceOwnership",
      "outputs": [],
      "stateMutability": "nonpayable",
      "type": "function"
    },
    {
      "inputs": [
        {
          "internalType": "address",
          "name": "logic",
          "type": "address"
        }
      ],
      "name": "setBeacon",
      "outputs": [
        {
          "internalType": "address",
          "name": "",
          "type": "address"
        }
      ],
      "stateMutability": "nonpayable",
      "type": "function"
    },
    {
      "inputs": [],
      "name": "setLeagueSchedules",
      "outputs": [],
      "stateMutability": "nonpayable",
      "type": "function"
    },
    {
      "inputs": [
        {
          "internalType": "address",
          "name": "newOwner",
          "type": "address"
        }
      ],
      "name": "transferOwnership",
      "outputs": [],
      "stateMutability": "nonpayable",
      "type": "function"
    },
    {
      "inputs": [],
      "name": "unlockLeagueLineups",
      "outputs": [],
      "stateMutability": "nonpayable",
      "type": "function"
    },
    {
      "inputs": [
        {
          "internalType": "address",
          "name": "user",
          "type": "address"
        }
      ],
      "name": "updateUserToLeagueMapping",
      "outputs": [],
      "stateMutability": "nonpayable",
      "type": "function"
    },
    {
      "inputs": [
        {
          "internalType": "address",
          "name": "",
          "type": "address"
        },
        {
          "internalType": "uint256",
          "name": "",
          "type": "uint256"
        }
      ],
      "name": "userToLeagueMap",
      "outputs": [
        {
          "internalType": "address",
          "name": "",
          "type": "address"
        }
      ],
      "stateMutability": "view",
      "type": "function"
    }
  ],
  "bytecode": "0x60a0604052600880556000600955732791bca1f2de4661ed88a30c99a7a9449aa84174600a60006101000a81548173ffffffffffffffffffffffffffffffffffffffff021916908373ffffffffffffffffffffffffffffffffffffffff16021790555073eb8f08a975ab53e34d8a0330e0d34de942c95926600b60006101000a81548173ffffffffffffffffffffffffffffffffffffffff021916908373ffffffffffffffffffffffffffffffffffffffff160217905550348015620000c457600080fd5b50604051620068d5380380620068d58339818101604052810190620000ea919062000271565b6200010a620000fe6200018060201b60201c565b6200018860201b60201c565b8060405162000119906200024c565b620001259190620002b4565b604051809103906000f08015801562000142573d6000803e3d6000fd5b5073ffffffffffffffffffffffffffffffffffffffff1660808173ffffffffffffffffffffffffffffffffffffffff1660601b815250505062000324565b600033905090565b60008060009054906101000a900473ffffffffffffffffffffffffffffffffffffffff169050816000806101000a81548173ffffffffffffffffffffffffffffffffffffffff021916908373ffffffffffffffffffffffffffffffffffffffff1602179055508173ffffffffffffffffffffffffffffffffffffffff168173ffffffffffffffffffffffffffffffffffffffff167f8be0079c531659141344cd1fd0a4f28419497f9722a3daafe3b4186f6b6457e060405160405180910390a35050565b610a918062005e4483390190565b6000815190506200026b816200030a565b92915050565b6000602082840312156200028a576200028962000305565b5b60006200029a848285016200025a565b91505092915050565b620002ae81620002d1565b82525050565b6000602082019050620002cb6000830184620002a3565b92915050565b6000620002de82620002e5565b9050919050565b600073ffffffffffffffffffffffffffffffffffffffff82169050919050565b600080fd5b6200031581620002d1565b81146200032157600080fd5b50565b60805160601c615b01620003436000396000610f060152615b016000f3fe60806040523480156200001157600080fd5b5060043610620001185760003560e01c8063a945320f11620000a5578063d42afb56116200006f578063d42afb56146200026b578063d46dc6c414620002a1578063d54c9d1614620002d7578063f2fde38b14620002e35762000118565b8063a945320f14620001e7578063b37cc9f114620001f3578063c3530ff41462000229578063c49986a5146200025f5762000118565b8063715018a611620000e7578063715018a6146200018d578063771bd4ce14620001995780638da5cb5b14620001b9578063a69b331814620001db5762000118565b806306575c89146200011d578063270cb3eb146200013f57806329ffe5e9146200014b578063449f77fb1462000181575b600080fd5b6200012762000303565b60405162000136919062001af8565b60405180910390f35b6200014962000309565b005b6200016960048036038101906200016391906200168c565b6200059a565b60405162000178919062001883565b60405180910390f35b6200018b620005da565b005b62000197620006e9565b005b620001b76004803603810190620001b1919062001552565b6200077a565b005b620001c3620008ac565b604051620001d2919062001883565b60405180910390f35b620001e5620008d5565b005b620001f162000976565b005b6200021160048036038101906200020b919062001552565b62000c2b565b6040516200022091906200191e565b60405180910390f35b62000247600480360381019062000241919062001584565b62000c4b565b60405162000256919062001883565b60405180910390f35b6200026962000c9a565b005b62000289600480360381019062000283919062001552565b62000d8b565b60405162000298919062001883565b60405180910390f35b620002bf6004803603810190620002b99190620015cb565b62000e13565b604051620002ce919062001883565b60405180910390f35b620002e16200110b565b005b620003016004803603810190620002fb919062001552565b620011fc565b005b60095481565b6200031362001300565b73ffffffffffffffffffffffffffffffffffffffff1662000333620008ac565b73ffffffffffffffffffffffffffffffffffffffff16146200038c576040517f08c379a0000000000000000000000000000000000000000000000000000000008152600401620003839062001ad6565b60405180910390fd5b73__$12cdf1fac25abe52b1eb298b32a4f32efb$__6388fa0a1f60036040518263ffffffff1660e01b8152600401620003c69190620018d4565b60006040518083038186803b158015620003df57600080fd5b505af4158015620003f4573d6000803e3d6000fd5b505050506000606060005b60038054905081101562000595576003818154811062000424576200042362001cc1565b5b9060005260206000200160009054906101000a900473ffffffffffffffffffffffffffffffffffffffff1673ffffffffffffffffffffffffffffffffffffffff166040516024016040516020818303038152906040527fe4c9066b000000000000000000000000000000000000000000000000000000007bffffffffffffffffffffffffffffffffffffffffffffffffffffffff19166020820180517bffffffffffffffffffffffffffffffffffffffffffffffffffffffff8381831617835250505050604051620004f791906200186a565b6000604051808303816000865af19150503d806000811462000536576040519150601f19603f3d011682016040523d82523d6000602084013e6200053b565b606091505b5080935081945050507f13848c3e38f8886f3f5d2ad9dff80d8092c2bbb8efd5b887a99c2c6cfc09ac2a8383604051620005779291906200193b565b60405180910390a180806200058c9062001c44565b915050620003ff565b505050565b60038181548110620005ab57600080fd5b906000526020600020016000915054906101000a900473ffffffffffffffffffffffffffffffffffffffff1681565b620005e462001300565b73ffffffffffffffffffffffffffffffffffffffff1662000604620008ac565b73ffffffffffffffffffffffffffffffffffffffff16146200065d576040517f08c379a0000000000000000000000000000000000000000000000000000000008152600401620006549062001ad6565b60405180910390fd5b73__$12cdf1fac25abe52b1eb298b32a4f32efb$__6335c83fd360036009546040518363ffffffff1660e01b81526004016200069b929190620018f1565b60006040518083038186803b158015620006b457600080fd5b505af4158015620006c9573d6000803e3d6000fd5b5050505060096000815480929190620006e29062001c44565b9190505550565b620006f362001300565b73ffffffffffffffffffffffffffffffffffffffff1662000713620008ac565b73ffffffffffffffffffffffffffffffffffffffff16146200076c576040517f08c379a0000000000000000000000000000000000000000000000000000000008152600401620007639062001ad6565b60405180910390fd5b62000778600062001308565b565b600560003373ffffffffffffffffffffffffffffffffffffffff1673ffffffffffffffffffffffffffffffffffffffff16815260200190815260200160002060009054906101000a900460ff1662000809576040517f08c379a0000000000000000000000000000000000000000000000000000000008152600401620008009062001ab4565b60405180910390fd5b600460008273ffffffffffffffffffffffffffffffffffffffff1673ffffffffffffffffffffffffffffffffffffffff168152602001908152602001600020339080600181540180825580915050600190039060005260206000200160009091909190916101000a81548173ffffffffffffffffffffffffffffffffffffffff021916908373ffffffffffffffffffffffffffffffffffffffff16021790555050565b60008060009054906101000a900473ffffffffffffffffffffffffffffffffffffffff16905090565b620008df62001300565b73ffffffffffffffffffffffffffffffffffffffff16620008ff620008ac565b73ffffffffffffffffffffffffffffffffffffffff161462000958576040517f08c379a00000000000000000000000000000000000000000000000000000000081526004016200094f9062001ad6565b60405180910390fd5b6001600960008282546200096d919062001b58565b92505081905550565b6200098062001300565b73ffffffffffffffffffffffffffffffffffffffff16620009a0620008ac565b73ffffffffffffffffffffffffffffffffffffffff1614620009f9576040517f08c379a0000000000000000000000000000000000000000000000000000000008152600401620009f09062001ad6565b60405180910390fd5b62000a1d60405180606001604052806026815260200162005aa660269139620013cc565b73__$12cdf1fac25abe52b1eb298b32a4f32efb$__630e2a112660036040518263ffffffff1660e01b815260040162000a579190620018d4565b60006040518083038186803b15801562000a7057600080fd5b505af415801562000a85573d6000803e3d6000fd5b505050506000606060005b60038054905081101562000c26576003818154811062000ab55762000ab462001cc1565b5b9060005260206000200160009054906101000a900473ffffffffffffffffffffffffffffffffffffffff1673ffffffffffffffffffffffffffffffffffffffff166040516024016040516020818303038152906040527f0655465a000000000000000000000000000000000000000000000000000000007bffffffffffffffffffffffffffffffffffffffffffffffffffffffff19166020820180517bffffffffffffffffffffffffffffffffffffffffffffffffffffffff838183161783525050505060405162000b8891906200186a565b6000604051808303816000865af19150503d806000811462000bc7576040519150601f19603f3d011682016040523d82523d6000602084013e62000bcc565b606091505b5080935081945050507f13848c3e38f8886f3f5d2ad9dff80d8092c2bbb8efd5b887a99c2c6cfc09ac2a838360405162000c089291906200193b565b60405180910390a1808062000c1d9062001c44565b91505062000a90565b505050565b60056020528060005260406000206000915054906101000a900460ff1681565b6004602052816000526040600020818154811062000c6857600080fd5b906000526020600020016000915091509054906101000a900473ffffffffffffffffffffffffffffffffffffffff1681565b62000ca462001300565b73ffffffffffffffffffffffffffffffffffffffff1662000cc4620008ac565b73ffffffffffffffffffffffffffffffffffffffff161462000d1d576040517f08c379a000000000000000000000000000000000000000000000000000000000815260040162000d149062001ad6565b60405180910390fd5b73__$12cdf1fac25abe52b1eb298b32a4f32efb$__63c311d4f660036040518263ffffffff1660e01b815260040162000d579190620018d4565b60006040518083038186803b15801562000d7057600080fd5b505af415801562000d85573d6000803e3d6000fd5b50505050565b6000808260405162000d9d9062001492565b62000da9919062001883565b604051809103906000f08015801562000dc6573d6000803e3d6000fd5b50905080600260006101000a81548173ffffffffffffffffffffffffffffffffffffffff021916908373ffffffffffffffffffffffffffffffffffffffff16021790555080915050919050565b60008088886008548989878a600a60009054906101000a900473ffffffffffffffffffffffffffffffffffffffff16600b60009054906101000a900473ffffffffffffffffffffffffffffffffffffffff168c3060405160240162000e839b9a99989796959493929190620019b5565b6040516020818303038152906040527f5d514d69000000000000000000000000000000000000000000000000000000007bffffffffffffffffffffffffffffffffffffffffffffffffffffffff19166020820180517bffffffffffffffffffffffffffffffffffffffffffffffffffffffff8381831617835250505050905060007f00000000000000000000000000000000000000000000000000000000000000008260405162000f3490620014a0565b62000f41929190620018a0565b604051809103906000f08015801562000f5e573d6000803e3d6000fd5b5090506003819080600181540180825580915050600190039060005260206000200160009091909190916101000a81548173ffffffffffffffffffffffffffffffffffffffff021916908373ffffffffffffffffffffffffffffffffffffffff160217905550600460008773ffffffffffffffffffffffffffffffffffffffff1673ffffffffffffffffffffffffffffffffffffffff168152602001908152602001600020819080600181540180825580915050600190039060005260206000200160009091909190916101000a81548173ffffffffffffffffffffffffffffffffffffffff021916908373ffffffffffffffffffffffffffffffffffffffff1602179055506001600560008373ffffffffffffffffffffffffffffffffffffffff1673ffffffffffffffffffffffffffffffffffffffff16815260200190815260200160002060006101000a81548160ff0219169083151502179055507fc47056fccf84218e4e94c23620f6dff0eca24341da09715bdf519222f79d83c38a8a8389604051620010f394939291906200196f565b60405180910390a18092505050979650505050505050565b6200111562001300565b73ffffffffffffffffffffffffffffffffffffffff1662001135620008ac565b73ffffffffffffffffffffffffffffffffffffffff16146200118e576040517f08c379a0000000000000000000000000000000000000000000000000000000008152600401620011859062001ad6565b60405180910390fd5b73__$12cdf1fac25abe52b1eb298b32a4f32efb$__63a71e139860036040518263ffffffff1660e01b8152600401620011c89190620018d4565b60006040518083038186803b158015620011e157600080fd5b505af4158015620011f6573d6000803e3d6000fd5b50505050565b6200120662001300565b73ffffffffffffffffffffffffffffffffffffffff1662001226620008ac565b73ffffffffffffffffffffffffffffffffffffffff16146200127f576040517f08c379a0000000000000000000000000000000000000000000000000000000008152600401620012769062001ad6565b60405180910390fd5b600073ffffffffffffffffffffffffffffffffffffffff168173ffffffffffffffffffffffffffffffffffffffff161415620012f2576040517f08c379a0000000000000000000000000000000000000000000000000000000008152600401620012e99062001a92565b60405180910390fd5b620012fd8162001308565b50565b600033905090565b60008060009054906101000a900473ffffffffffffffffffffffffffffffffffffffff169050816000806101000a81548173ffffffffffffffffffffffffffffffffffffffff021916908373ffffffffffffffffffffffffffffffffffffffff1602179055508173ffffffffffffffffffffffffffffffffffffffff168173ffffffffffffffffffffffffffffffffffffffff167f8be0079c531659141344cd1fd0a4f28419497f9722a3daafe3b4186f6b6457e060405160405180910390a35050565b6200146681604051602401620013e3919062001a6e565b6040516020818303038152906040527f41304fac000000000000000000000000000000000000000000000000000000007bffffffffffffffffffffffffffffffffffffffffffffffffffffffff19166020820180517bffffffffffffffffffffffffffffffffffffffffffffffffffffffff838183161783525050505062001469565b50565b60008151905060006a636f6e736f6c652e6c6f679050602083016000808483855afa5050505050565b610a918062001e3083390190565b6131e580620028c183390190565b600081359050620014bf8162001de1565b92915050565b600081359050620014d68162001dfb565b92915050565b60008083601f840112620014f557620014f462001cf5565b5b8235905067ffffffffffffffff81111562001515576200151462001cf0565b5b60208301915083600182028301111562001534576200153362001cfa565b5b9250929050565b6000813590506200154c8162001e15565b92915050565b6000602082840312156200156b576200156a62001d04565b5b60006200157b84828501620014ae565b91505092915050565b600080604083850312156200159e576200159d62001d04565b5b6000620015ae85828601620014ae565b9250506020620015c1858286016200153b565b9150509250929050565b600080600080600080600060c0888a031215620015ed57620015ec62001d04565b5b600088013567ffffffffffffffff8111156200160e576200160d62001cff565b5b6200161c8a828b01620014dc565b97509750506020620016318a828b016200153b565b9550506040620016448a828b01620014c5565b9450506060620016578a828b01620014ae565b93505060806200166a8a828b01620014ae565b92505060a06200167d8a828b01620014ae565b91505092959891949750929550565b600060208284031215620016a557620016a462001d04565b5b6000620016b5848285016200153b565b91505092915050565b620016c98162001bb5565b82525050565b8082525050565b620016e18162001bc9565b82525050565b6000620016f48262001b15565b62001700818562001b2b565b93506200171281856020860162001c0e565b6200171d8162001d09565b840191505092915050565b6000620017358262001b15565b62001741818562001b3c565b93506200175381856020860162001c0e565b80840191505092915050565b60006200176d838562001b47565b93506200177c83858462001bff565b620017878362001d09565b840190509392505050565b60006200179f8262001b20565b620017ab818562001b47565b9350620017bd81856020860162001c0e565b620017c88162001d09565b840191505092915050565b6000620017e260268362001b47565b9150620017ef8262001d1a565b604082019050919050565b60006200180960248362001b47565b9150620018168262001d69565b604082019050919050565b60006200183060208362001b47565b91506200183d8262001db8565b602082019050919050565b620018538162001bf5565b82525050565b620018648162001bf5565b82525050565b600062001878828462001728565b915081905092915050565b60006020820190506200189a6000830184620016be565b92915050565b6000604082019050620018b76000830185620016be565b8181036020830152620018cb8184620016e7565b90509392505050565b6000602082019050620018eb6000830184620016cf565b92915050565b6000604082019050620019086000830185620016cf565b62001917602083018462001859565b9392505050565b6000602082019050620019356000830184620016d6565b92915050565b6000604082019050620019526000830185620016d6565b8181036020830152620019668184620016e7565b90509392505050565b600060608201905081810360008301526200198c8186886200175f565b90506200199d6020830185620016be565b620019ac6040830184620016be565b95945050505050565b6000610140820190508181036000830152620019d3818d8f6200175f565b9050620019e4602083018c62001848565b620019f3604083018b62001848565b62001a02606083018a620016d6565b62001a116080830189620016be565b62001a2060a0830188620016be565b62001a2f60c0830187620016be565b62001a3e60e0830186620016be565b62001a4e610100830185620016be565b62001a5e610120830184620016be565b9c9b505050505050505050505050565b6000602082019050818103600083015262001a8a818462001792565b905092915050565b6000602082019050818103600083015262001aad81620017d3565b9050919050565b6000602082019050818103600083015262001acf81620017fa565b9050919050565b6000602082019050818103600083015262001af18162001821565b9050919050565b600060208201905062001b0f600083018462001848565b92915050565b600081519050919050565b600081519050919050565b600082825260208201905092915050565b600081905092915050565b600082825260208201905092915050565b600062001b658262001bf5565b915062001b728362001bf5565b9250827fffffffffffffffffffffffffffffffffffffffffffffffffffffffffffffffff0382111562001baa5762001ba962001c92565b5b828201905092915050565b600062001bc28262001bd5565b9050919050565b60008115159050919050565b600073ffffffffffffffffffffffffffffffffffffffff82169050919050565b6000819050919050565b82818337600083830152505050565b60005b8381101562001c2e57808201518184015260208101905062001c11565b8381111562001c3e576000848401525b50505050565b600062001c518262001bf5565b91507fffffffffffffffffffffffffffffffffffffffffffffffffffffffffffffffff82141562001c875762001c8662001c92565b5b600182019050919050565b7f4e487b7100000000000000000000000000000000000000000000000000000000600052601160045260246000fd5b7f4e487b7100000000000000000000000000000000000000000000000000000000600052603260045260246000fd5b600080fd5b600080fd5b600080fd5b600080fd5b600080fd5b6000601f19601f8301169050919050565b7f4f776e61626c653a206e6577206f776e657220697320746865207a65726f206160008201527f6464726573730000000000000000000000000000000000000000000000000000602082015250565b7f43616c6c6572206973206e6f7420612076616c69642070726f7879206164647260008201527f6573732e00000000000000000000000000000000000000000000000000000000602082015250565b7f4f776e61626c653a2063616c6c6572206973206e6f7420746865206f776e6572600082015250565b62001dec8162001bb5565b811462001df857600080fd5b50565b62001e068162001bc9565b811462001e1257600080fd5b50565b62001e208162001bf5565b811462001e2c57600080fd5b5056fe608060405234801561001057600080fd5b5060405162000a9138038062000a91833981810160405281019061003491906101ef565b61005061004561006560201b60201c565b61006d60201b60201c565b61005f8161013160201b60201c565b5061030d565b600033905090565b60008060009054906101000a900473ffffffffffffffffffffffffffffffffffffffff169050816000806101000a81548173ffffffffffffffffffffffffffffffffffffffff021916908373ffffffffffffffffffffffffffffffffffffffff1602179055508173ffffffffffffffffffffffffffffffffffffffff168173ffffffffffffffffffffffffffffffffffffffff167f8be0079c531659141344cd1fd0a4f28419497f9722a3daafe3b4186f6b6457e060405160405180910390a35050565b610144816101c760201b6103781760201c565b610183576040517f08c379a000000000000000000000000000000000000000000000000000000000815260040161017a9061023f565b60405180910390fd5b80600160006101000a81548173ffffffffffffffffffffffffffffffffffffffff021916908373ffffffffffffffffffffffffffffffffffffffff16021790555050565b600080823b905060008111915050919050565b6000815190506101e9816102f6565b92915050565b600060208284031215610205576102046102a2565b5b6000610213848285016101da565b91505092915050565b600061022960338361025f565b9150610234826102a7565b604082019050919050565b600060208201905081810360008301526102588161021c565b9050919050565b600082825260208201905092915050565b600061027b82610282565b9050919050565b600073ffffffffffffffffffffffffffffffffffffffff82169050919050565b600080fd5b7f5570677261646561626c65426561636f6e3a20696d706c656d656e746174696f60008201527f6e206973206e6f74206120636f6e747261637400000000000000000000000000602082015250565b6102ff81610270565b811461030a57600080fd5b50565b610774806200031d6000396000f3fe608060405234801561001057600080fd5b50600436106100575760003560e01c80633659cfe61461005c5780635c60da1b14610078578063715018a6146100965780638da5cb5b146100a0578063f2fde38b146100be575b600080fd5b610076600480360381019061007191906104f8565b6100da565b005b6100806101a5565b60405161008d919061059d565b60405180910390f35b61009e6101cf565b005b6100a8610257565b6040516100b5919061059d565b60405180910390f35b6100d860048036038101906100d391906104f8565b610280565b005b6100e261038b565b73ffffffffffffffffffffffffffffffffffffffff16610100610257565b73ffffffffffffffffffffffffffffffffffffffff1614610156576040517f08c379a000000000000000000000000000000000000000000000000000000000815260040161014d906105f8565b60405180910390fd5b61015f81610393565b8073ffffffffffffffffffffffffffffffffffffffff167fbc7cd75a20ee27fd9adebab32041f755214dbc6bffa90cc0225b39da2e5c2d3b60405160405180910390a250565b6000600160009054906101000a900473ffffffffffffffffffffffffffffffffffffffff16905090565b6101d761038b565b73ffffffffffffffffffffffffffffffffffffffff166101f5610257565b73ffffffffffffffffffffffffffffffffffffffff161461024b576040517f08c379a0000000000000000000000000000000000000000000000000000000008152600401610242906105f8565b60405180910390fd5b610255600061041f565b565b60008060009054906101000a900473ffffffffffffffffffffffffffffffffffffffff16905090565b61028861038b565b73ffffffffffffffffffffffffffffffffffffffff166102a6610257565b73ffffffffffffffffffffffffffffffffffffffff16146102fc576040517f08c379a00000000000000000000000000000000000000000000000000000000081526004016102f3906105f8565b60405180910390fd5b600073ffffffffffffffffffffffffffffffffffffffff168173ffffffffffffffffffffffffffffffffffffffff16141561036c576040517f08c379a0000000000000000000000000000000000000000000000000000000008152600401610363906105b8565b60405180910390fd5b6103758161041f565b50565b600080823b905060008111915050919050565b600033905090565b61039c81610378565b6103db576040517f08c379a00000000000000000000000000000000000000000000000000000000081526004016103d2906105d8565b60405180910390fd5b80600160006101000a81548173ffffffffffffffffffffffffffffffffffffffff021916908373ffffffffffffffffffffffffffffffffffffffff16021790555050565b60008060009054906101000a900473ffffffffffffffffffffffffffffffffffffffff169050816000806101000a81548173ffffffffffffffffffffffffffffffffffffffff021916908373ffffffffffffffffffffffffffffffffffffffff1602179055508173ffffffffffffffffffffffffffffffffffffffff168173ffffffffffffffffffffffffffffffffffffffff167f8be0079c531659141344cd1fd0a4f28419497f9722a3daafe3b4186f6b6457e060405160405180910390a35050565b6000813590506104f281610727565b92915050565b60006020828403121561050e5761050d61065b565b5b600061051c848285016104e3565b91505092915050565b61052e81610629565b82525050565b6000610541602683610618565b915061054c82610660565b604082019050919050565b6000610564603383610618565b915061056f826106af565b604082019050919050565b6000610587602083610618565b9150610592826106fe565b602082019050919050565b60006020820190506105b26000830184610525565b92915050565b600060208201905081810360008301526105d181610534565b9050919050565b600060208201905081810360008301526105f181610557565b9050919050565b600060208201905081810360008301526106118161057a565b9050919050565b600082825260208201905092915050565b60006106348261063b565b9050919050565b600073ffffffffffffffffffffffffffffffffffffffff82169050919050565b600080fd5b7f4f776e61626c653a206e6577206f776e657220697320746865207a65726f206160008201527f6464726573730000000000000000000000000000000000000000000000000000602082015250565b7f5570677261646561626c65426561636f6e3a20696d706c656d656e746174696f60008201527f6e206973206e6f74206120636f6e747261637400000000000000000000000000602082015250565b7f4f776e61626c653a2063616c6c6572206973206e6f7420746865206f776e6572600082015250565b61073081610629565b811461073b57600080fd5b5056fea2646970667358221220f14c1e123fc6650c2510ce92a5938ce8dbd619e20ec5ceb7ad4526f9ccdb6aca64736f6c634300080700336080604052604051620031e5380380620031e58339818101604052810190620000299190620006bb565b620000496200003d620000cf60201b60201c565b620000d760201b60201c565b60017fa3f0ad74e5423aebfd80d3ef4346578335a9a72aeaee59ff6cb3582b35133d5160001c6200007b919062000942565b60001b7fa3f0ad74e5423aebfd80d3ef4346578335a9a72aeaee59ff6cb3582b35133d5060001b14620000b357620000b262000a27565b5b620000c7828260006200019b60201b60201c565b505062000be0565b600033905090565b60008060009054906101000a900473ffffffffffffffffffffffffffffffffffffffff169050816000806101000a81548173ffffffffffffffffffffffffffffffffffffffff021916908373ffffffffffffffffffffffffffffffffffffffff1602179055508173ffffffffffffffffffffffffffffffffffffffff168173ffffffffffffffffffffffffffffffffffffffff167f8be0079c531659141344cd1fd0a4f28419497f9722a3daafe3b4186f6b6457e060405160405180910390a35050565b620001ac83620002a260201b60201c565b8273ffffffffffffffffffffffffffffffffffffffff167f1cf3b03a6cf19fa2baba4df148e9dcabedea7f8a5c07840e207e5c089be95d3e60405160405180910390a2600082511180620001fd5750805b156200029d576200029b8373ffffffffffffffffffffffffffffffffffffffff16635c60da1b6040518163ffffffff1660e01b815260040160206040518083038186803b1580156200024e57600080fd5b505afa15801562000263573d6000803e3d6000fd5b505050506040513d601f19601f8201168201806040525081019062000289919062000689565b836200045160201b620011541760201c565b505b505050565b620002b8816200048760201b620011811760201c565b620002fa576040517f08c379a0000000000000000000000000000000000000000000000000000000008152600401620002f1906200084b565b60405180910390fd5b620003918173ffffffffffffffffffffffffffffffffffffffff16635c60da1b6040518163ffffffff1660e01b815260040160206040518083038186803b1580156200034557600080fd5b505afa1580156200035a573d6000803e3d6000fd5b505050506040513d601f19601f8201168201806040525081019062000380919062000689565b6200048760201b620011811760201c565b620003d3576040517f08c379a0000000000000000000000000000000000000000000000000000000008152600401620003ca906200088f565b60405180910390fd5b806200040d7fa3f0ad74e5423aebfd80d3ef4346578335a9a72aeaee59ff6cb3582b35133d5060001b6200049a60201b620011941760201c565b60000160006101000a81548173ffffffffffffffffffffffffffffffffffffffff021916908373ffffffffffffffffffffffffffffffffffffffff16021790555050565b60606200047f8383604051806060016040528060278152602001620031be60279139620004a460201b60201c565b905092915050565b600080823b905060008111915050919050565b6000819050919050565b6060620004b7846200048760201b60201c565b620004f9576040517f08c379a0000000000000000000000000000000000000000000000000000000008152600401620004f0906200086d565b60405180910390fd5b6000808573ffffffffffffffffffffffffffffffffffffffff16856040516200052391906200080e565b600060405180830381855af49150503d806000811462000560576040519150601f19603f3d011682016040523d82523d6000602084013e62000565565b606091505b50915091506200057d8282866200058860201b60201c565b925050509392505050565b606083156200059a57829050620005ed565b600083511115620005ae5782518084602001fd5b816040517f08c379a0000000000000000000000000000000000000000000000000000000008152600401620005e4919062000827565b60405180910390fd5b9392505050565b60006200060b6200060584620008da565b620008b1565b9050828152602081018484840111156200062a576200062962000ab9565b5b62000637848285620009bb565b509392505050565b600081519050620006508162000bc6565b92915050565b600082601f8301126200066e576200066d62000ab4565b5b815162000680848260208601620005f4565b91505092915050565b600060208284031215620006a257620006a162000ac3565b5b6000620006b2848285016200063f565b91505092915050565b60008060408385031215620006d557620006d462000ac3565b5b6000620006e5858286016200063f565b925050602083015167ffffffffffffffff81111562000709576200070862000abe565b5b620007178582860162000656565b9150509250929050565b60006200072e8262000910565b6200073a818562000926565b93506200074c818560208601620009bb565b80840191505092915050565b600062000765826200091b565b62000771818562000931565b935062000783818560208601620009bb565b6200078e8162000ac8565b840191505092915050565b6000620007a860258362000931565b9150620007b58262000ad9565b604082019050919050565b6000620007cf60268362000931565b9150620007dc8262000b28565b604082019050919050565b6000620007f660308362000931565b9150620008038262000b77565b604082019050919050565b60006200081c828462000721565b915081905092915050565b6000602082019050818103600083015262000843818462000758565b905092915050565b60006020820190508181036000830152620008668162000799565b9050919050565b600060208201905081810360008301526200088881620007c0565b9050919050565b60006020820190508181036000830152620008aa81620007e7565b9050919050565b6000620008bd620008d0565b9050620008cb8282620009f1565b919050565b6000604051905090565b600067ffffffffffffffff821115620008f857620008f762000a85565b5b620009038262000ac8565b9050602081019050919050565b600081519050919050565b600081519050919050565b600081905092915050565b600082825260208201905092915050565b60006200094f82620009b1565b91506200095c83620009b1565b92508282101562000972576200097162000a56565b5b828203905092915050565b60006200098a8262000991565b9050919050565b600073ffffffffffffffffffffffffffffffffffffffff82169050919050565b6000819050919050565b60005b83811015620009db578082015181840152602081019050620009be565b83811115620009eb576000848401525b50505050565b620009fc8262000ac8565b810181811067ffffffffffffffff8211171562000a1e5762000a1d62000a85565b5b80604052505050565b7f4e487b7100000000000000000000000000000000000000000000000000000000600052600160045260246000fd5b7f4e487b7100000000000000000000000000000000000000000000000000000000600052601160045260246000fd5b7f4e487b7100000000000000000000000000000000000000000000000000000000600052604160045260246000fd5b600080fd5b600080fd5b600080fd5b600080fd5b6000601f19601f8301169050919050565b7f455243313936373a206e657720626561636f6e206973206e6f74206120636f6e60008201527f7472616374000000000000000000000000000000000000000000000000000000602082015250565b7f416464726573733a2064656c65676174652063616c6c20746f206e6f6e2d636f60008201527f6e74726163740000000000000000000000000000000000000000000000000000602082015250565b7f455243313936373a20626561636f6e20696d706c656d656e746174696f6e206960008201527f73206e6f74206120636f6e747261637400000000000000000000000000000000602082015250565b62000bd1816200097d565b811462000bdd57600080fd5b50565b6125ce8062000bf06000396000f3fe60806040526004361061019f5760003560e01c8063715018a6116100ec5780639b19251a1161008a578063dc9a153511610064578063dc9a15351461061d578063e2ec6ec314610648578063e35a899914610685578063f2fde38b146106c2576101ae565b80639b19251a1461058c578063a217fddf146105c9578063d547741f146105f4576101ae565b8063841abf6e116100c6578063841abf6e146104ce5780638da5cb5b146104f957806391d148541461052457806393f3706c14610561576101ae565b8063715018a61461044f5780637b9417c8146104665780637eed33f1146104a3576101ae565b8063286dd3f51161015957806344eaa84e1161013357806344eaa84e146103a357806352e6e5f3146103ce57806354fd4d50146103f957806360c7dc4714610424576101ae565b8063286dd3f5146103145780632f2ff15d1461035157806336568abe1461037a576101ae565b8062b2476f146101b857806301ffc9a7146101e35780630c6f795914610220578063248a9ca31461025d57806324953eaa1461029a578063267175db146102d7576101ae565b366101ae576101ac6106eb565b005b6101b66106eb565b005b3480156101c457600080fd5b506101cd610705565b6040516101da9190611e7c565b60405180910390f35b3480156101ef57600080fd5b5061020a60048036038101906102059190611c05565b61072b565b6040516102179190611e97565b60405180910390f35b34801561022c57600080fd5b5061024760048036038101906102429190611b0f565b6107a5565b6040516102549190611f8f565b60405180910390f35b34801561026957600080fd5b50610284600480360381019061027f9190611b98565b6107cd565b6040516102919190611eb2565b60405180910390f35b3480156102a657600080fd5b506102c160048036038101906102bc9190611b4f565b6107ed565b6040516102ce9190611e97565b60405180910390f35b3480156102e357600080fd5b506102fe60048036038101906102f99190611c32565b6108d7565b60405161030b9190611e7c565b60405180910390f35b34801561032057600080fd5b5061033b60048036038101906103369190611ab5565b610916565b6040516103489190611e97565b60405180910390f35b34801561035d57600080fd5b5061037860048036038101906103739190611bc5565b610a99565b005b34801561038657600080fd5b506103a1600480360381019061039c9190611bc5565b610ac2565b005b3480156103af57600080fd5b506103b8610b45565b6040516103c59190611f8f565b60405180910390f35b3480156103da57600080fd5b506103e3610b4f565b6040516103f09190611f8f565b60405180910390f35b34801561040557600080fd5b5061040e610b55565b60405161041b9190611f8f565b60405180910390f35b34801561043057600080fd5b50610439610b5b565b6040516104469190611f8f565b60405180910390f35b34801561045b57600080fd5b50610464610b61565b005b34801561047257600080fd5b5061048d60048036038101906104889190611ab5565b610be9565b60405161049a9190611e97565b60405180910390f35b3480156104af57600080fd5b506104b8610d6b565b6040516104c59190611f8f565b60405180910390f35b3480156104da57600080fd5b506104e3610d71565b6040516104f09190611ecd565b60405180910390f35b34801561050557600080fd5b5061050e610dff565b60405161051b9190611e7c565b60405180910390f35b34801561053057600080fd5b5061054b60048036038101906105469190611bc5565b610e28565b6040516105589190611e97565b60405180910390f35b34801561056d57600080fd5b50610576610e93565b6040516105839190611e7c565b60405180910390f35b34801561059857600080fd5b506105b360048036038101906105ae9190611ab5565b610eb9565b6040516105c09190611e97565b60405180910390f35b3480156105d557600080fd5b506105de610ed9565b6040516105eb9190611eb2565b60405180910390f35b34801561060057600080fd5b5061061b60048036038101906106169190611bc5565b610ee0565b005b34801561062957600080fd5b50610632610f09565b60405161063f9190611e97565b60405180910390f35b34801561065457600080fd5b5061066f600480360381019061066a9190611b4f565b610f1c565b60405161067c9190611e97565b60405180910390f35b34801561069157600080fd5b506106ac60048036038101906106a79190611ab5565b611006565b6040516106b99190611e97565b60405180910390f35b3480156106ce57600080fd5b506106e960048036038101906106e49190611ab5565b61105c565b005b6106f361119e565b6107036106fe6111a0565b61122c565b565b601260009054906101000a900473ffffffffffffffffffffffffffffffffffffffff1681565b60007f7965db0b000000000000000000000000000000000000000000000000000000007bffffffffffffffffffffffffffffffffffffffffffffffffffffffff1916827bffffffffffffffffffffffffffffffffffffffffffffffffffffffff1916148061079e575061079d82611252565b5b9050919050565b600c60205281600052604060002081600881106107c157600080fd5b01600091509150505481565b600060016000838152602001908152602001600020600101549050919050565b60006107f76112bc565b73ffffffffffffffffffffffffffffffffffffffff16610815610dff565b73ffffffffffffffffffffffffffffffffffffffff161461086b576040517f08c379a000000000000000000000000000000000000000000000000000000000815260040161086290611f2f565b60405180910390fd5b60005b82518110156108d15761089a83828151811061088d5761088c612301565b5b6020026020010151610916565b156108be576001600360008282546108b291906120e8565b92505081905550600191505b80806108c99061225a565b91505061086e565b50919050565b600981815481106108e757600080fd5b906000526020600020016000915054906101000a900473ffffffffffffffffffffffffffffffffffffffff1681565b60006109206112bc565b73ffffffffffffffffffffffffffffffffffffffff1661093e610dff565b73ffffffffffffffffffffffffffffffffffffffff1614610994576040517f08c379a000000000000000000000000000000000000000000000000000000000815260040161098b90611f2f565b60405180910390fd5b600260008373ffffffffffffffffffffffffffffffffffffffff1673ffffffffffffffffffffffffffffffffffffffff16815260200190815260200160002060009054906101000a900460ff1615610a94576000600260008473ffffffffffffffffffffffffffffffffffffffff1673ffffffffffffffffffffffffffffffffffffffff16815260200190815260200160002060006101000a81548160ff0219169083151502179055507ff1abf01a1043b7c244d128e8595cf0c1d10743b022b03a02dffd8ca3bf729f5a82604051610a6d9190611e7c565b60405180910390a1600160036000828254610a8891906120e8565b92505081905550600190505b919050565b610aa2826107cd565b610ab381610aae6112bc565b6112c4565b610abd8383611361565b505050565b610aca6112bc565b73ffffffffffffffffffffffffffffffffffffffff168173ffffffffffffffffffffffffffffffffffffffff1614610b37576040517f08c379a0000000000000000000000000000000000000000000000000000000008152600401610b2e90611f6f565b60405180910390fd5b610b418282611441565b5050565b6000600354905090565b60085481565b60055481565b600f5481565b610b696112bc565b73ffffffffffffffffffffffffffffffffffffffff16610b87610dff565b73ffffffffffffffffffffffffffffffffffffffff1614610bdd576040517f08c379a0000000000000000000000000000000000000000000000000000000008152600401610bd490611f2f565b60405180910390fd5b610be76000611523565b565b6000610bf36112bc565b73ffffffffffffffffffffffffffffffffffffffff16610c11610dff565b73ffffffffffffffffffffffffffffffffffffffff1614610c67576040517f08c379a0000000000000000000000000000000000000000000000000000000008152600401610c5e90611f2f565b60405180910390fd5b600260008373ffffffffffffffffffffffffffffffffffffffff1673ffffffffffffffffffffffffffffffffffffffff16815260200190815260200160002060009054906101000a900460ff16610d66576001600260008473ffffffffffffffffffffffffffffffffffffffff1673ffffffffffffffffffffffffffffffffffffffff16815260200190815260200160002060006101000a81548160ff0219169083151502179055507fd1bba68c128cc3f427e5831b3c6f99f480b6efa6b9e80c757768f6124158cc3f82604051610d3f9190611e7c565b60405180910390a1600160036000828254610d5a9190612038565b92505081905550600190505b919050565b60075481565b60068054610d7e906121f7565b80601f0160208091040260200160405190810160405280929190818152602001828054610daa906121f7565b8015610df75780601f10610dcc57610100808354040283529160200191610df7565b820191906000526020600020905b815481529060010190602001808311610dda57829003601f168201915b505050505081565b60008060009054906101000a900473ffffffffffffffffffffffffffffffffffffffff16905090565b60006001600084815260200190815260200160002060000160008373ffffffffffffffffffffffffffffffffffffffff1673ffffffffffffffffffffffffffffffffffffffff16815260200190815260200160002060009054906101000a900460ff16905092915050565b601160009054906101000a900473ffffffffffffffffffffffffffffffffffffffff1681565b60026020528060005260406000206000915054906101000a900460ff1681565b6000801b81565b610ee9826107cd565b610efa81610ef56112bc565b6112c4565b610f048383611441565b505050565b600460009054906101000a900460ff1681565b6000610f266112bc565b73ffffffffffffffffffffffffffffffffffffffff16610f44610dff565b73ffffffffffffffffffffffffffffffffffffffff1614610f9a576040517f08c379a0000000000000000000000000000000000000000000000000000000008152600401610f9190611f2f565b60405180910390fd5b60005b825181101561100057610fc9838281518110610fbc57610fbb612301565b5b6020026020010151610be9565b15610fed57600160036000828254610fe19190612038565b92505081905550600191505b8080610ff89061225a565b915050610f9d565b50919050565b6000600260008373ffffffffffffffffffffffffffffffffffffffff1673ffffffffffffffffffffffffffffffffffffffff16815260200190815260200160002060009054906101000a900460ff169050919050565b6110646112bc565b73ffffffffffffffffffffffffffffffffffffffff16611082610dff565b73ffffffffffffffffffffffffffffffffffffffff16146110d8576040517f08c379a00000000000000000000000000000000000000000000000000000000081526004016110cf90611f2f565b60405180910390fd5b600073ffffffffffffffffffffffffffffffffffffffff168173ffffffffffffffffffffffffffffffffffffffff161415611148576040517f08c379a000000000000000000000000000000000000000000000000000000000815260040161113f90611f0f565b60405180910390fd5b61115181611523565b50565b60606111798383604051806060016040528060278152602001612572602791396115e7565b905092915050565b600080823b905060008111915050919050565b6000819050919050565b565b60006111aa6116b4565b73ffffffffffffffffffffffffffffffffffffffff16635c60da1b6040518163ffffffff1660e01b815260040160206040518083038186803b1580156111ef57600080fd5b505afa158015611203573d6000803e3d6000fd5b505050506040513d601f19601f820116820180604052508101906112279190611ae2565b905090565b3660008037600080366000845af43d6000803e806000811461124d573d6000f35b3d6000fd5b60007f01ffc9a7000000000000000000000000000000000000000000000000000000007bffffffffffffffffffffffffffffffffffffffffffffffffffffffff1916827bffffffffffffffffffffffffffffffffffffffffffffffffffffffff1916149050919050565b600033905090565b6112ce8282610e28565b61135d576112f38173ffffffffffffffffffffffffffffffffffffffff16601461170b565b6113018360001c602061170b565b604051602001611312929190611e42565b6040516020818303038152906040526040517f08c379a00000000000000000000000000000000000000000000000000000000081526004016113549190611ecd565b60405180910390fd5b5050565b61136b8282610e28565b61143d57600180600084815260200190815260200160002060000160008373ffffffffffffffffffffffffffffffffffffffff1673ffffffffffffffffffffffffffffffffffffffff16815260200190815260200160002060006101000a81548160ff0219169083151502179055506113e26112bc565b73ffffffffffffffffffffffffffffffffffffffff168173ffffffffffffffffffffffffffffffffffffffff16837f2f8788117e7eff1d82e926ec794901d17c78024a50270940304540a733656f0d60405160405180910390a45b5050565b61144b8282610e28565b1561151f5760006001600084815260200190815260200160002060000160008373ffffffffffffffffffffffffffffffffffffffff1673ffffffffffffffffffffffffffffffffffffffff16815260200190815260200160002060006101000a81548160ff0219169083151502179055506114c46112bc565b73ffffffffffffffffffffffffffffffffffffffff168173ffffffffffffffffffffffffffffffffffffffff16837ff6391f5c32d9c69d2a47ea670b442974b53935d1edc7fd64eb21e047a839171b60405160405180910390a45b5050565b60008060009054906101000a900473ffffffffffffffffffffffffffffffffffffffff169050816000806101000a81548173ffffffffffffffffffffffffffffffffffffffff021916908373ffffffffffffffffffffffffffffffffffffffff1602179055508173ffffffffffffffffffffffffffffffffffffffff168173ffffffffffffffffffffffffffffffffffffffff167f8be0079c531659141344cd1fd0a4f28419497f9722a3daafe3b4186f6b6457e060405160405180910390a35050565b60606115f284611181565b611631576040517f08c379a000000000000000000000000000000000000000000000000000000000815260040161162890611f4f565b60405180910390fd5b6000808573ffffffffffffffffffffffffffffffffffffffff16856040516116599190611e2b565b600060405180830381855af49150503d8060008114611694576040519150601f19603f3d011682016040523d82523d6000602084013e611699565b606091505b50915091506116a9828286611947565b925050509392505050565b60006116e27fa3f0ad74e5423aebfd80d3ef4346578335a9a72aeaee59ff6cb3582b35133d5060001b611194565b60000160009054906101000a900473ffffffffffffffffffffffffffffffffffffffff16905090565b60606000600283600261171e919061208e565b6117289190612038565b67ffffffffffffffff81111561174157611740612330565b5b6040519080825280601f01601f1916602001820160405280156117735781602001600182028036833780820191505090505b5090507f3000000000000000000000000000000000000000000000000000000000000000816000815181106117ab576117aa612301565b5b60200101907effffffffffffffffffffffffffffffffffffffffffffffffffffffffffffff1916908160001a9053507f78000000000000000000000000000000000000000000000000000000000000008160018151811061180f5761180e612301565b5b60200101907effffffffffffffffffffffffffffffffffffffffffffffffffffffffffffff1916908160001a9053506000600184600261184f919061208e565b6118599190612038565b90505b60018111156118f9577f3031323334353637383961626364656600000000000000000000000000000000600f86166010811061189b5761189a612301565b5b1a60f81b8282815181106118b2576118b1612301565b5b60200101907effffffffffffffffffffffffffffffffffffffffffffffffffffffffffffff1916908160001a905350600485901c9450806118f2906121cd565b905061185c565b506000841461193d576040517f08c379a000000000000000000000000000000000000000000000000000000000815260040161193490611eef565b60405180910390fd5b8091505092915050565b60608315611957578290506119a7565b60008351111561196a5782518084602001fd5b816040517f08c379a000000000000000000000000000000000000000000000000000000000815260040161199e9190611ecd565b60405180910390fd5b9392505050565b60006119c16119bc84611fcf565b611faa565b905080838252602082019050828560208602820111156119e4576119e3612364565b5b60005b85811015611a1457816119fa8882611a1e565b8452602084019350602083019250506001810190506119e7565b5050509392505050565b600081359050611a2d81612515565b92915050565b600081519050611a4281612515565b92915050565b600082601f830112611a5d57611a5c61235f565b5b8135611a6d8482602086016119ae565b91505092915050565b600081359050611a858161252c565b92915050565b600081359050611a9a81612543565b92915050565b600081359050611aaf8161255a565b92915050565b600060208284031215611acb57611aca61236e565b5b6000611ad984828501611a1e565b91505092915050565b600060208284031215611af857611af761236e565b5b6000611b0684828501611a33565b91505092915050565b60008060408385031215611b2657611b2561236e565b5b6000611b3485828601611a1e565b9250506020611b4585828601611aa0565b9150509250929050565b600060208284031215611b6557611b6461236e565b5b600082013567ffffffffffffffff811115611b8357611b82612369565b5b611b8f84828501611a48565b91505092915050565b600060208284031215611bae57611bad61236e565b5b6000611bbc84828501611a76565b91505092915050565b60008060408385031215611bdc57611bdb61236e565b5b6000611bea85828601611a76565b9250506020611bfb85828601611a1e565b9150509250929050565b600060208284031215611c1b57611c1a61236e565b5b6000611c2984828501611a8b565b91505092915050565b600060208284031215611c4857611c4761236e565b5b6000611c5684828501611aa0565b91505092915050565b611c688161211c565b82525050565b611c778161212e565b82525050565b611c868161213a565b82525050565b6000611c9782611ffb565b611ca18185612011565b9350611cb181856020860161219a565b80840191505092915050565b6000611cc882612006565b611cd2818561201c565b9350611ce281856020860161219a565b611ceb81612373565b840191505092915050565b6000611d0182612006565b611d0b818561202d565b9350611d1b81856020860161219a565b80840191505092915050565b6000611d3460208361201c565b9150611d3f82612384565b602082019050919050565b6000611d5760268361201c565b9150611d62826123ad565b604082019050919050565b6000611d7a60208361201c565b9150611d85826123fc565b602082019050919050565b6000611d9d60268361201c565b9150611da882612425565b604082019050919050565b6000611dc060178361202d565b9150611dcb82612474565b601782019050919050565b6000611de360118361202d565b9150611dee8261249d565b601182019050919050565b6000611e06602f8361201c565b9150611e11826124c6565b604082019050919050565b611e2581612190565b82525050565b6000611e378284611c8c565b915081905092915050565b6000611e4d82611db3565b9150611e598285611cf6565b9150611e6482611dd6565b9150611e708284611cf6565b91508190509392505050565b6000602082019050611e916000830184611c5f565b92915050565b6000602082019050611eac6000830184611c6e565b92915050565b6000602082019050611ec76000830184611c7d565b92915050565b60006020820190508181036000830152611ee78184611cbd565b905092915050565b60006020820190508181036000830152611f0881611d27565b9050919050565b60006020820190508181036000830152611f2881611d4a565b9050919050565b60006020820190508181036000830152611f4881611d6d565b9050919050565b60006020820190508181036000830152611f6881611d90565b9050919050565b60006020820190508181036000830152611f8881611df9565b9050919050565b6000602082019050611fa46000830184611e1c565b92915050565b6000611fb4611fc5565b9050611fc08282612229565b919050565b6000604051905090565b600067ffffffffffffffff821115611fea57611fe9612330565b5b602082029050602081019050919050565b600081519050919050565b600081519050919050565b600081905092915050565b600082825260208201905092915050565b600081905092915050565b600061204382612190565b915061204e83612190565b9250827fffffffffffffffffffffffffffffffffffffffffffffffffffffffffffffffff03821115612083576120826122a3565b5b828201905092915050565b600061209982612190565b91506120a483612190565b9250817fffffffffffffffffffffffffffffffffffffffffffffffffffffffffffffffff04831182151516156120dd576120dc6122a3565b5b828202905092915050565b60006120f382612190565b91506120fe83612190565b925082821015612111576121106122a3565b5b828203905092915050565b600061212782612170565b9050919050565b60008115159050919050565b6000819050919050565b60007fffffffff0000000000000000000000000000000000000000000000000000000082169050919050565b600073ffffffffffffffffffffffffffffffffffffffff82169050919050565b6000819050919050565b60005b838110156121b857808201518184015260208101905061219d565b838111156121c7576000848401525b50505050565b60006121d882612190565b915060008214156121ec576121eb6122a3565b5b600182039050919050565b6000600282049050600182168061220f57607f821691505b60208210811415612223576122226122d2565b5b50919050565b61223282612373565b810181811067ffffffffffffffff8211171561225157612250612330565b5b80604052505050565b600061226582612190565b91507fffffffffffffffffffffffffffffffffffffffffffffffffffffffffffffffff821415612298576122976122a3565b5b600182019050919050565b7f4e487b7100000000000000000000000000000000000000000000000000000000600052601160045260246000fd5b7f4e487b7100000000000000000000000000000000000000000000000000000000600052602260045260246000fd5b7f4e487b7100000000000000000000000000000000000000000000000000000000600052603260045260246000fd5b7f4e487b7100000000000000000000000000000000000000000000000000000000600052604160045260246000fd5b600080fd5b600080fd5b600080fd5b600080fd5b6000601f19601f8301169050919050565b7f537472696e67733a20686578206c656e67746820696e73756666696369656e74600082015250565b7f4f776e61626c653a206e6577206f776e657220697320746865207a65726f206160008201527f6464726573730000000000000000000000000000000000000000000000000000602082015250565b7f4f776e61626c653a2063616c6c6572206973206e6f7420746865206f776e6572600082015250565b7f416464726573733a2064656c65676174652063616c6c20746f206e6f6e2d636f60008201527f6e74726163740000000000000000000000000000000000000000000000000000602082015250565b7f416363657373436f6e74726f6c3a206163636f756e7420000000000000000000600082015250565b7f206973206d697373696e6720726f6c6520000000000000000000000000000000600082015250565b7f416363657373436f6e74726f6c3a2063616e206f6e6c792072656e6f756e636560008201527f20726f6c657320666f722073656c660000000000000000000000000000000000602082015250565b61251e8161211c565b811461252957600080fd5b50565b6125358161213a565b811461254057600080fd5b50565b61254c81612144565b811461255757600080fd5b50565b61256381612190565b811461256e57600080fd5b5056fe416464726573733a206c6f772d6c6576656c2064656c65676174652063616c6c206661696c6564a2646970667358221220569510816959b5de58a841aa0ac56d9aa89c4984e6cb343db83588e44b8da18c64736f6c63430008070033416464726573733a206c6f772d6c6576656c2064656c65676174652063616c6c206661696c656473657474696e67206c6561677565207363686564756c6520696e206c65616775656d616b6572a264697066735822122008ce0c507300ce57b86b49228801cd2646cb6508f2f51c5a535687599f6745a864736f6c63430008070033608060405234801561001057600080fd5b5060405162000a9138038062000a91833981810160405281019061003491906101ef565b61005061004561006560201b60201c565b61006d60201b60201c565b61005f8161013160201b60201c565b5061030d565b600033905090565b60008060009054906101000a900473ffffffffffffffffffffffffffffffffffffffff169050816000806101000a81548173ffffffffffffffffffffffffffffffffffffffff021916908373ffffffffffffffffffffffffffffffffffffffff1602179055508173ffffffffffffffffffffffffffffffffffffffff168173ffffffffffffffffffffffffffffffffffffffff167f8be0079c531659141344cd1fd0a4f28419497f9722a3daafe3b4186f6b6457e060405160405180910390a35050565b610144816101c760201b6103781760201c565b610183576040517f08c379a000000000000000000000000000000000000000000000000000000000815260040161017a9061023f565b60405180910390fd5b80600160006101000a81548173ffffffffffffffffffffffffffffffffffffffff021916908373ffffffffffffffffffffffffffffffffffffffff16021790555050565b600080823b905060008111915050919050565b6000815190506101e9816102f6565b92915050565b600060208284031215610205576102046102a2565b5b6000610213848285016101da565b91505092915050565b600061022960338361025f565b9150610234826102a7565b604082019050919050565b600060208201905081810360008301526102588161021c565b9050919050565b600082825260208201905092915050565b600061027b82610282565b9050919050565b600073ffffffffffffffffffffffffffffffffffffffff82169050919050565b600080fd5b7f5570677261646561626c65426561636f6e3a20696d706c656d656e746174696f60008201527f6e206973206e6f74206120636f6e747261637400000000000000000000000000602082015250565b6102ff81610270565b811461030a57600080fd5b50565b610774806200031d6000396000f3fe608060405234801561001057600080fd5b50600436106100575760003560e01c80633659cfe61461005c5780635c60da1b14610078578063715018a6146100965780638da5cb5b146100a0578063f2fde38b146100be575b600080fd5b610076600480360381019061007191906104f8565b6100da565b005b6100806101a5565b60405161008d919061059d565b60405180910390f35b61009e6101cf565b005b6100a8610257565b6040516100b5919061059d565b60405180910390f35b6100d860048036038101906100d391906104f8565b610280565b005b6100e261038b565b73ffffffffffffffffffffffffffffffffffffffff16610100610257565b73ffffffffffffffffffffffffffffffffffffffff1614610156576040517f08c379a000000000000000000000000000000000000000000000000000000000815260040161014d906105f8565b60405180910390fd5b61015f81610393565b8073ffffffffffffffffffffffffffffffffffffffff167fbc7cd75a20ee27fd9adebab32041f755214dbc6bffa90cc0225b39da2e5c2d3b60405160405180910390a250565b6000600160009054906101000a900473ffffffffffffffffffffffffffffffffffffffff16905090565b6101d761038b565b73ffffffffffffffffffffffffffffffffffffffff166101f5610257565b73ffffffffffffffffffffffffffffffffffffffff161461024b576040517f08c379a0000000000000000000000000000000000000000000000000000000008152600401610242906105f8565b60405180910390fd5b610255600061041f565b565b60008060009054906101000a900473ffffffffffffffffffffffffffffffffffffffff16905090565b61028861038b565b73ffffffffffffffffffffffffffffffffffffffff166102a6610257565b73ffffffffffffffffffffffffffffffffffffffff16146102fc576040517f08c379a00000000000000000000000000000000000000000000000000000000081526004016102f3906105f8565b60405180910390fd5b600073ffffffffffffffffffffffffffffffffffffffff168173ffffffffffffffffffffffffffffffffffffffff16141561036c576040517f08c379a0000000000000000000000000000000000000000000000000000000008152600401610363906105b8565b60405180910390fd5b6103758161041f565b50565b600080823b905060008111915050919050565b600033905090565b61039c81610378565b6103db576040517f08c379a00000000000000000000000000000000000000000000000000000000081526004016103d2906105d8565b60405180910390fd5b80600160006101000a81548173ffffffffffffffffffffffffffffffffffffffff021916908373ffffffffffffffffffffffffffffffffffffffff16021790555050565b60008060009054906101000a900473ffffffffffffffffffffffffffffffffffffffff169050816000806101000a81548173ffffffffffffffffffffffffffffffffffffffff021916908373ffffffffffffffffffffffffffffffffffffffff1602179055508173ffffffffffffffffffffffffffffffffffffffff168173ffffffffffffffffffffffffffffffffffffffff167f8be0079c531659141344cd1fd0a4f28419497f9722a3daafe3b4186f6b6457e060405160405180910390a35050565b6000813590506104f281610727565b92915050565b60006020828403121561050e5761050d61065b565b5b600061051c848285016104e3565b91505092915050565b61052e81610629565b82525050565b6000610541602683610618565b915061054c82610660565b604082019050919050565b6000610564603383610618565b915061056f826106af565b604082019050919050565b6000610587602083610618565b9150610592826106fe565b602082019050919050565b60006020820190506105b26000830184610525565b92915050565b600060208201905081810360008301526105d181610534565b9050919050565b600060208201905081810360008301526105f181610557565b9050919050565b600060208201905081810360008301526106118161057a565b9050919050565b600082825260208201905092915050565b60006106348261063b565b9050919050565b600073ffffffffffffffffffffffffffffffffffffffff82169050919050565b600080fd5b7f4f776e61626c653a206e6577206f776e657220697320746865207a65726f206160008201527f6464726573730000000000000000000000000000000000000000000000000000602082015250565b7f5570677261646561626c65426561636f6e3a20696d706c656d656e746174696f60008201527f6e206973206e6f74206120636f6e747261637400000000000000000000000000602082015250565b7f4f776e61626c653a2063616c6c6572206973206e6f7420746865206f776e6572600082015250565b61073081610629565b811461073b57600080fd5b5056fea2646970667358221220f14c1e123fc6650c2510ce92a5938ce8dbd619e20ec5ceb7ad4526f9ccdb6aca64736f6c63430008070033",
  "linkReferences": {
    "contracts/LeagueMakerLibrary.sol": {
      "LeagueMakerLibrary": [
        {
          "length": 20,
          "start": 1745
        },
        {
          "length": 20,
          "start": 2466
        },
        {
          "length": 20,
          "start": 3426
        },
        {
          "length": 20,
          "start": 4194
        },
        {
          "length": 20,
          "start": 5331
        }
      ]
    }
  },
  "deployedLinkReferences": {
    "contracts/LeagueMakerLibrary.sol": {
      "LeagueMakerLibrary": [
        {
          "length": 20,
          "start": 910
        },
        {
          "length": 20,
          "start": 1631
        },
        {
          "length": 20,
          "start": 2591
        },
        {
          "length": 20,
          "start": 3359
        },
        {
          "length": 20,
          "start": 4496
        }
      ]
    }
  }
}