{
  "_format": "hh-sol-artifact-1",
  "contractName": "GameLogic",
  "sourceName": "contracts/GameLogic.sol",
  "abi": [
    {
      "anonymous": false,
      "inputs": [
        {
          "indexed": true,
          "internalType": "address",
          "name": "previousOwner",
          "type": "address"
        },
        {
          "indexed": true,
          "internalType": "address",
          "name": "newOwner",
          "type": "address"
        }
      ],
      "name": "OwnershipTransferred",
      "type": "event"
    },
    {
      "anonymous": false,
      "inputs": [
        {
          "indexed": true,
          "internalType": "bytes32",
          "name": "role",
          "type": "bytes32"
        },
        {
          "indexed": true,
          "internalType": "bytes32",
          "name": "previousAdminRole",
          "type": "bytes32"
        },
        {
          "indexed": true,
          "internalType": "bytes32",
          "name": "newAdminRole",
          "type": "bytes32"
        }
      ],
      "name": "RoleAdminChanged",
      "type": "event"
    },
    {
      "anonymous": false,
      "inputs": [
        {
          "indexed": true,
          "internalType": "bytes32",
          "name": "role",
          "type": "bytes32"
        },
        {
          "indexed": true,
          "internalType": "address",
          "name": "account",
          "type": "address"
        },
        {
          "indexed": true,
          "internalType": "address",
          "name": "sender",
          "type": "address"
        }
      ],
      "name": "RoleGranted",
      "type": "event"
    },
    {
      "anonymous": false,
      "inputs": [
        {
          "indexed": true,
          "internalType": "bytes32",
          "name": "role",
          "type": "bytes32"
        },
        {
          "indexed": true,
          "internalType": "address",
          "name": "account",
          "type": "address"
        },
        {
          "indexed": true,
          "internalType": "address",
          "name": "sender",
          "type": "address"
        }
      ],
      "name": "RoleRevoked",
      "type": "event"
    },
    {
      "anonymous": false,
      "inputs": [
        {
          "indexed": false,
          "internalType": "address",
          "name": "sender",
          "type": "address"
        },
        {
          "indexed": false,
          "internalType": "uint256",
          "name": "amount",
          "type": "uint256"
        }
      ],
      "name": "Staked",
      "type": "event"
    },
    {
      "anonymous": false,
      "inputs": [
        {
          "indexed": false,
          "internalType": "address",
          "name": "addr",
          "type": "address"
        }
      ],
      "name": "WhitelistedAddressAdded",
      "type": "event"
    },
    {
      "anonymous": false,
      "inputs": [
        {
          "indexed": false,
          "internalType": "address",
          "name": "addr",
          "type": "address"
        }
      ],
      "name": "WhitelistedAddressRemoved",
      "type": "event"
    },
    {
      "anonymous": false,
      "inputs": [
        {
          "indexed": false,
          "internalType": "uint256",
          "name": "newVersion",
          "type": "uint256"
        }
      ],
      "name": "versionIncremented",
      "type": "event"
    },
    {
      "inputs": [],
      "name": "DEFAULT_ADMIN_ROLE",
      "outputs": [
        {
          "internalType": "bytes32",
          "name": "",
          "type": "bytes32"
        }
      ],
      "stateMutability": "view",
      "type": "function"
    },
    {
      "inputs": [
        {
          "internalType": "address",
          "name": "addr",
          "type": "address"
        }
      ],
      "name": "addAddressToWhitelist",
      "outputs": [
        {
          "internalType": "bool",
          "name": "success",
          "type": "bool"
        }
      ],
      "stateMutability": "nonpayable",
      "type": "function"
    },
    {
      "inputs": [
        {
          "internalType": "address[]",
          "name": "addrs",
          "type": "address[]"
        }
      ],
      "name": "addAddressesToWhitelist",
      "outputs": [
        {
          "internalType": "bool",
          "name": "success",
          "type": "bool"
        }
      ],
      "stateMutability": "nonpayable",
      "type": "function"
    },
    {
      "inputs": [
        {
          "internalType": "address",
          "name": "user",
          "type": "address"
        }
      ],
      "name": "addUserToLeague",
      "outputs": [],
      "stateMutability": "nonpayable",
      "type": "function"
    },
    {
      "inputs": [],
      "name": "addUserToWhitelist",
      "outputs": [],
      "stateMutability": "nonpayable",
      "type": "function"
    },
    {
      "inputs": [],
      "name": "currentWeekNum",
      "outputs": [
        {
          "internalType": "uint256",
          "name": "",
          "type": "uint256"
        }
      ],
      "stateMutability": "view",
      "type": "function"
    },
    {
      "inputs": [
        {
          "internalType": "address",
          "name": "addr1",
          "type": "address"
        },
        {
          "internalType": "address",
          "name": "addr2",
          "type": "address"
        }
      ],
      "name": "evaluateMatch",
      "outputs": [
        {
          "internalType": "address",
          "name": "",
          "type": "address"
        }
      ],
      "stateMutability": "nonpayable",
      "type": "function"
    },
    {
      "inputs": [],
      "name": "getLeagueName",
      "outputs": [
        {
          "internalType": "string",
          "name": "",
          "type": "string"
        }
      ],
      "stateMutability": "view",
      "type": "function"
    },
    {
      "inputs": [],
      "name": "getLineup",
      "outputs": [
        {
          "internalType": "uint256[]",
          "name": "",
          "type": "uint256[]"
        }
      ],
      "stateMutability": "view",
      "type": "function"
    },
    {
      "inputs": [
        {
          "internalType": "bytes32",
          "name": "role",
          "type": "bytes32"
        }
      ],
      "name": "getRoleAdmin",
      "outputs": [
        {
          "internalType": "bytes32",
          "name": "",
          "type": "bytes32"
        }
      ],
      "stateMutability": "view",
      "type": "function"
    },
    {
      "inputs": [
        {
          "internalType": "address",
          "name": "_token",
          "type": "address"
        }
      ],
      "name": "getUSDCBalance",
      "outputs": [
        {
          "internalType": "uint256",
          "name": "",
          "type": "uint256"
        }
      ],
      "stateMutability": "view",
      "type": "function"
    },
    {
      "inputs": [],
      "name": "getUserTotalPts",
      "outputs": [
        {
          "internalType": "uint256",
          "name": "",
          "type": "uint256"
        }
      ],
      "stateMutability": "view",
      "type": "function"
    },
    {
      "inputs": [],
      "name": "getUserWeeklypts",
      "outputs": [
        {
          "internalType": "uint256[]",
          "name": "",
          "type": "uint256[]"
        }
      ],
      "stateMutability": "view",
      "type": "function"
    },
    {
      "inputs": [],
      "name": "getVersion",
      "outputs": [
        {
          "internalType": "uint256",
          "name": "",
          "type": "uint256"
        }
      ],
      "stateMutability": "view",
      "type": "function"
    },
    {
      "inputs": [
        {
          "internalType": "bytes32",
          "name": "role",
          "type": "bytes32"
        },
        {
          "internalType": "address",
          "name": "account",
          "type": "address"
        }
      ],
      "name": "grantRole",
      "outputs": [],
      "stateMutability": "nonpayable",
      "type": "function"
    },
    {
      "inputs": [
        {
          "internalType": "bytes32",
          "name": "role",
          "type": "bytes32"
        },
        {
          "internalType": "address",
          "name": "account",
          "type": "address"
        }
      ],
      "name": "hasRole",
      "outputs": [
        {
          "internalType": "bool",
          "name": "",
          "type": "bool"
        }
      ],
      "stateMutability": "view",
      "type": "function"
    },
    {
      "inputs": [],
      "name": "incrementVersion",
      "outputs": [
        {
          "internalType": "uint256",
          "name": "",
          "type": "uint256"
        }
      ],
      "stateMutability": "nonpayable",
      "type": "function"
    },
    {
      "inputs": [
        {
          "internalType": "string",
          "name": "_name",
          "type": "string"
        },
        {
          "internalType": "uint256",
          "name": "_version",
          "type": "uint256"
        },
        {
          "internalType": "uint256",
          "name": "_numWeeks",
          "type": "uint256"
        },
        {
          "internalType": "uint256",
          "name": "_stakeAmount",
          "type": "uint256"
        },
        {
          "internalType": "address",
          "name": "athletesDataStorageAddress",
          "type": "address"
        },
        {
          "internalType": "address",
          "name": "_owner",
          "type": "address"
        },
        {
          "internalType": "address",
          "name": "_admin",
          "type": "address"
        },
        {
          "internalType": "address",
          "name": "_polygonUSDCAddress",
          "type": "address"
        },
        {
          "internalType": "address",
          "name": "_rinkebyUSDCAddress",
          "type": "address"
        },
        {
          "internalType": "address",
          "name": "leagueMakerContractAddress",
          "type": "address"
        }
      ],
      "name": "initialize",
      "outputs": [],
      "stateMutability": "nonpayable",
      "type": "function"
    },
    {
      "inputs": [],
      "name": "joinLeague",
      "outputs": [],
      "stateMutability": "nonpayable",
      "type": "function"
    },
    {
      "inputs": [
        {
          "internalType": "uint256",
          "name": "",
          "type": "uint256"
        }
      ],
      "name": "leagueMembers",
      "outputs": [
        {
          "internalType": "address",
          "name": "",
          "type": "address"
        }
      ],
      "stateMutability": "view",
      "type": "function"
    },
    {
      "inputs": [],
      "name": "leagueName",
      "outputs": [
        {
          "internalType": "string",
          "name": "",
          "type": "string"
        }
      ],
      "stateMutability": "view",
      "type": "function"
    },
    {
      "inputs": [],
      "name": "numWeeks",
      "outputs": [
        {
          "internalType": "uint256",
          "name": "",
          "type": "uint256"
        }
      ],
      "stateMutability": "view",
      "type": "function"
    },
    {
      "inputs": [],
      "name": "owner",
      "outputs": [
        {
          "internalType": "address",
          "name": "",
          "type": "address"
        }
      ],
      "stateMutability": "view",
      "type": "function"
    },
    {
      "inputs": [],
      "name": "polygonUSDCAddress",
      "outputs": [
        {
          "internalType": "address",
          "name": "",
          "type": "address"
        }
      ],
      "stateMutability": "view",
      "type": "function"
    },
    {
      "inputs": [
        {
          "internalType": "address",
          "name": "addr",
          "type": "address"
        }
      ],
      "name": "removeAddressFromWhitelist",
      "outputs": [
        {
          "internalType": "bool",
          "name": "success",
          "type": "bool"
        }
      ],
      "stateMutability": "nonpayable",
      "type": "function"
    },
    {
      "inputs": [
        {
          "internalType": "address[]",
          "name": "addrs",
          "type": "address[]"
        }
      ],
      "name": "removeAddressesFromWhitelist",
      "outputs": [
        {
          "internalType": "bool",
          "name": "success",
          "type": "bool"
        }
      ],
      "stateMutability": "nonpayable",
      "type": "function"
    },
    {
      "inputs": [],
      "name": "removeFromLeague",
      "outputs": [],
      "stateMutability": "nonpayable",
      "type": "function"
    },
    {
      "inputs": [],
      "name": "renounceOwnership",
      "outputs": [],
      "stateMutability": "nonpayable",
      "type": "function"
    },
    {
      "inputs": [
        {
          "internalType": "bytes32",
          "name": "role",
          "type": "bytes32"
        },
        {
          "internalType": "address",
          "name": "account",
          "type": "address"
        }
      ],
      "name": "renounceRole",
      "outputs": [],
      "stateMutability": "nonpayable",
      "type": "function"
    },
    {
      "inputs": [
        {
          "internalType": "bytes32",
          "name": "role",
          "type": "bytes32"
        },
        {
          "internalType": "address",
          "name": "account",
          "type": "address"
        }
      ],
      "name": "revokeRole",
      "outputs": [],
      "stateMutability": "nonpayable",
      "type": "function"
    },
    {
      "inputs": [],
      "name": "rinkebyUSDCAddress",
      "outputs": [
        {
          "internalType": "address",
          "name": "",
          "type": "address"
        }
      ],
      "stateMutability": "view",
      "type": "function"
    },
    {
      "inputs": [
        {
          "internalType": "address",
          "name": "_athleteContractAddress",
          "type": "address"
        }
      ],
      "name": "setAthleteContractAddress",
      "outputs": [],
      "stateMutability": "nonpayable",
      "type": "function"
    },
    {
      "inputs": [],
      "name": "setLeagueSchedule",
      "outputs": [],
      "stateMutability": "nonpayable",
      "type": "function"
    },
    {
      "inputs": [
        {
          "internalType": "uint256[]",
          "name": "athleteIds",
          "type": "uint256[]"
        }
      ],
      "name": "setLineup",
      "outputs": [],
      "stateMutability": "nonpayable",
      "type": "function"
    },
    {
      "inputs": [],
      "name": "stakeAmount",
      "outputs": [
        {
          "internalType": "uint256",
          "name": "",
          "type": "uint256"
        }
      ],
      "stateMutability": "view",
      "type": "function"
    },
    {
      "inputs": [
        {
          "internalType": "bytes4",
          "name": "interfaceId",
          "type": "bytes4"
        }
      ],
      "name": "supportsInterface",
      "outputs": [
        {
          "internalType": "bool",
          "name": "",
          "type": "bool"
        }
      ],
      "stateMutability": "view",
      "type": "function"
    },
    {
      "inputs": [
        {
          "internalType": "address",
          "name": "newOwner",
          "type": "address"
        }
      ],
      "name": "transferOwnership",
      "outputs": [],
      "stateMutability": "nonpayable",
      "type": "function"
    },
    {
      "inputs": [],
      "name": "version",
      "outputs": [
        {
          "internalType": "uint256",
          "name": "",
          "type": "uint256"
        }
      ],
      "stateMutability": "view",
      "type": "function"
    },
    {
      "inputs": [
        {
          "internalType": "address",
          "name": "",
          "type": "address"
        }
      ],
      "name": "whitelist",
      "outputs": [
        {
          "internalType": "bool",
          "name": "",
          "type": "bool"
        }
      ],
      "stateMutability": "view",
      "type": "function"
    }
  ],
  "bytecode": "0x60806040523480156200001157600080fd5b5062000032620000266200003860201b60201c565b6200004060201b60201c565b62000105565b600033905090565b60008060029054906101000a900473ffffffffffffffffffffffffffffffffffffffff16905081600060026101000a81548173ffffffffffffffffffffffffffffffffffffffff021916908373ffffffffffffffffffffffffffffffffffffffff1602179055508173ffffffffffffffffffffffffffffffffffffffff168173ffffffffffffffffffffffffffffffffffffffff167f8be0079c531659141344cd1fd0a4f28419497f9722a3daafe3b4186f6b6457e060405160405180910390a35050565b61588d80620001156000396000f3fe60806040523480156200001157600080fd5b50600436106200022c5760003560e01c8063715018a611620001355780639b19251a11620000bd578063c99fea941162000087578063c99fea94146200063b578063d547741f1462000647578063e2ec6ec31462000667578063f2fde38b146200069d578063f612121a14620006bd576200022c565b80639b19251a14620005a1578063a217fddf14620005d7578063ada3a28d14620005f9578063bb1a0461146200061b576200022c565b8063841abf6e11620000ff578063841abf6e14620004f1578063853976dd14620005135780638da5cb5b146200054957806391d14854146200056b576200022c565b8063715018a614620004815780637ac6aa1d146200048d5780637b9417c814620004995780637eed33f114620004cf576200022c565b80632cf0a1fc11620001b957806354fd4d50116200018357806354fd4d5014620003e55780636802471714620004075780636bdc44df146200043d5780636fd71a18146200045f576200022c565b80632cf0a1fc14620003635780632f2ff15d146200038557806336568abe14620003a5578063486b394414620003c5576200022c565b806311c253f511620001fb57806311c253f514620002b5578063248a9ca314620002c157806324953eaa14620002f7578063286dd3f5146200032d576200022c565b806301ffc9a714620002315780630655465a1462000267578063087e18a714620002735780630d8e6e2c1462000293575b600080fd5b6200024f6004803603810190620002499190620039ea565b620006dd565b6040516200025e919062003ff1565b60405180910390f35b620002716200075a565b005b6200029160048036038101906200028b9190620037d3565b62000f7f565b005b6200029d620010af565b604051620002ac91906200411b565b60405180910390f35b620002bf620010b9565b005b620002df6004803603810190620002d9919062003971565b62001120565b604051620002ee91906200400e565b60405180910390f35b6200031560048036038101906200030f91906200384c565b62001140565b60405162000324919062003ff1565b60405180910390f35b6200034b6004803603810190620003459190620037d3565b6200123d565b6040516200035a919062003ff1565b60405180910390f35b6200036d620013cc565b6040516200037c91906200411b565b60405180910390f35b620003a360048036038101906200039d9190620039a3565b62001470565b005b620003c36004803603810190620003bd9190620039a3565b620014a1565b005b620003e36004803603810190620003dd9190620037d3565b6200152b565b005b620003ef620015f2565b604051620003fe91906200411b565b60405180910390f35b6200042560048036038101906200041f9190620037d3565b620015f8565b6040516200043491906200411b565b60405180910390f35b6200044762001690565b6040516200045691906200411b565b60405180910390f35b62000469620016d7565b60405162000478919062003fcd565b60405180910390f35b6200048b6200176e565b005b62000497620017ff565b005b620004b76004803603810190620004b19190620037d3565b62001872565b604051620004c6919062003ff1565b60405180910390f35b620004d962001a00565b604051620004e891906200411b565b60405180910390f35b620004fb62001a06565b6040516200050a91906200402b565b60405180910390f35b6200053160048036038101906200052b919062003805565b62001a9c565b60405162000540919062003f46565b60405180910390f35b6200055362002144565b60405162000562919062003f46565b60405180910390f35b620005896004803603810190620005839190620039a3565b6200216d565b60405162000598919062003ff1565b60405180910390f35b620005bf6004803603810190620005b99190620037d3565b620021d8565b604051620005ce919062003ff1565b60405180910390f35b620005e1620021f8565b604051620005f091906200400e565b60405180910390f35b62000603620021ff565b60405162000612919062003fcd565b60405180910390f35b62000639600480360381019062000633919062003a1c565b62002296565b005b62000645620025e9565b005b6200066560048036038101906200065f9190620039a3565b620026e3565b005b6200068560048036038101906200067f91906200384c565b62002714565b60405162000694919062003ff1565b60405180910390f35b620006bb6004803603810190620006b59190620037d3565b62002811565b005b620006db6004803603810190620006d591906200389d565b62002915565b005b60007f7965db0b000000000000000000000000000000000000000000000000000000007bffffffffffffffffffffffffffffffffffffffffffffffffffffffff1916827bffffffffffffffffffffffffffffffffffffffffffffffffffffffff1916148062000753575062000752826200296e565b5b9050919050565b6200079a6040518060400160405280601081526020017f73657474696e67207363686564756c6500000000000000000000000000000000815250620029d8565b6000600880549050600880549050620007b49190620042c9565b4233446005604051602001620007ce949392919062003ef4565b6040516020818303038152906040528051906020012060001c620007f3919062004234565b9050620007ff6200330a565b620008096200330a565b60005b600881101562000f7957620008566040518060400160405280600181526020017f0a00000000000000000000000000000000000000000000000000000000000000815250620029d8565b620008618162002a75565b620008a16040518060400160405280601881526020017f2a2a2a2a2a2a2a2a2a2a2a2a2a2a2a2a2a2a2a2a2a2a2a2a0000000000000000815250620029d8565b6000806002600880549050620008b8919062004536565b14620008db576001600880549050620008d2919062004234565b905080620008e5565b6008805490509050805b50600083600060048110620008ff57620008fe620045fb565b5b6020020151905060005b60028362000918919062004291565b81101562000a95576000841415620009db5780866002856200093b919062004291565b898462000949919062004234565b62000955919062004536565b60048110620009695762000968620045fb565b5b60200201818152505060028362000981919062004291565b816200098e919062004234565b856002856200099e919062004291565b8984620009ac919062004234565b620009b8919062004536565b60048110620009cc57620009cb620045fb565b5b60200201818152505062000a7f565b6000868260048110620009f357620009f2620045fb565b5b602002015190508086836004811062000a115762000a10620045fb565b5b6020020181815250508560028562000a2a919062004291565b60018462000a39919062004234565b62000a45919062004536565b6004811062000a595762000a58620045fb565b5b602002015187836004811062000a745762000a73620045fb565b5b602002018181525050505b808062000a8c90620044b6565b91505062000909565b506000831462000adc578085600160028562000ab2919062004291565b62000abe91906200432a565b6004811062000ad25762000ad1620045fb565b5b6020020181815250505b60005b60028362000aee919062004291565b81101562000f605762000b006200332c565b60088054905086836004811062000b1c5762000b1b620045fb565b5b60200201511062000bf8576040518060400160405280600889856004811062000b4a5762000b49620045fb565b5b60200201518154811062000b635762000b62620045fb565b5b9060005260206000200160009054906101000a900473ffffffffffffffffffffffffffffffffffffffff1673ffffffffffffffffffffffffffffffffffffffff1673ffffffffffffffffffffffffffffffffffffffff168152602001600073ffffffffffffffffffffffffffffffffffffffff1673ffffffffffffffffffffffffffffffffffffffff16815250905062000e17565b60088054905087836004811062000c145762000c13620045fb565b5b60200201511062000cf0576040518060400160405280600073ffffffffffffffffffffffffffffffffffffffff1673ffffffffffffffffffffffffffffffffffffffff168152602001600888856004811062000c755762000c74620045fb565b5b60200201518154811062000c8e5762000c8d620045fb565b5b9060005260206000200160009054906101000a900473ffffffffffffffffffffffffffffffffffffffff1673ffffffffffffffffffffffffffffffffffffffff1673ffffffffffffffffffffffffffffffffffffffff16815250905062000e16565b6040518060400160405280600889856004811062000d135762000d12620045fb565b5b60200201518154811062000d2c5762000d2b620045fb565b5b9060005260206000200160009054906101000a900473ffffffffffffffffffffffffffffffffffffffff1673ffffffffffffffffffffffffffffffffffffffff1673ffffffffffffffffffffffffffffffffffffffff168152602001600888856004811062000da05762000d9f620045fb565b5b60200201518154811062000db95762000db8620045fb565b5b9060005260206000200160009054906101000a900473ffffffffffffffffffffffffffffffffffffffff1673ffffffffffffffffffffffffffffffffffffffff1673ffffffffffffffffffffffffffffffffffffffff1681525090505b5b600060405180602001604052808381525090508060136000888152602001908152602001600020846008811062000e535762000e52620045fb565b5b6002020160008201518160000190600262000e709291906200334e565b5090505062000e9e816000015160006002811062000e935762000e92620045fb565b5b602002015162002b12565b62000ede6040518060400160405280600481526020017f2076732000000000000000000000000000000000000000000000000000000000815250620029d8565b62000f08816000015160016002811062000efd5762000efc620045fb565b5b602002015162002b12565b62000f486040518060400160405280600181526020017f0a00000000000000000000000000000000000000000000000000000000000000815250620029d8565b5050808062000f5790620044b6565b91505062000adf565b505050808062000f7090620044b6565b9150506200080c565b50505050565b60088080549050101562001087576008819080600181540180825580915050600190039060005260206000200160009091909190916101000a81548173ffffffffffffffffffffffffffffffffffffffff021916908373ffffffffffffffffffffffffffffffffffffffff160217905550601260009054906101000a900473ffffffffffffffffffffffffffffffffffffffff1673ffffffffffffffffffffffffffffffffffffffff1663771bd4ce826040518263ffffffff1660e01b81526004016200104d919062003f46565b600060405180830381600087803b1580156200106857600080fd5b505af11580156200107d573d6000803e3d6000fd5b50505050620010ac565b620010ab6040518060600160405280602881526020016200583060289139620029d8565b5b50565b6000600454905090565b600260003373ffffffffffffffffffffffffffffffffffffffff1673ffffffffffffffffffffffffffffffffffffffff16815260200190815260200160002060009054906101000a900460ff16806200111457506000600354145b6200111e57600080fd5b565b600060016000838152602001908152602001600020600101549050919050565b60006200114c62002baf565b73ffffffffffffffffffffffffffffffffffffffff166200116c62002144565b73ffffffffffffffffffffffffffffffffffffffff1614620011c5576040517f08c379a0000000000000000000000000000000000000000000000000000000008152600401620011bc90620040d7565b60405180910390fd5b60005b82518110156200123757620011fa838281518110620011ec57620011eb620045fb565b5b60200260200101516200123d565b1562001221576001600360008282546200121591906200432a565b92505081905550600191505b80806200122e90620044b6565b915050620011c8565b50919050565b60006200124962002baf565b73ffffffffffffffffffffffffffffffffffffffff166200126962002144565b73ffffffffffffffffffffffffffffffffffffffff1614620012c2576040517f08c379a0000000000000000000000000000000000000000000000000000000008152600401620012b990620040d7565b60405180910390fd5b600260008373ffffffffffffffffffffffffffffffffffffffff1673ffffffffffffffffffffffffffffffffffffffff16815260200190815260200160002060009054906101000a900460ff1615620013c7576000600260008473ffffffffffffffffffffffffffffffffffffffff1673ffffffffffffffffffffffffffffffffffffffff16815260200190815260200160002060006101000a81548160ff0219169083151502179055507ff1abf01a1043b7c244d128e8595cf0c1d10743b022b03a02dffd8ca3bf729f5a826040516200139e919062003f46565b60405180910390a1600160036000828254620013bb91906200432a565b92505081905550600190505b919050565b60006200140e6040518060400160405280601581526020017f696e6372656d656e74696e672076657273696f6e3a0000000000000000000000815250620029d8565b60016004546200141f919062004234565b6004819055506200143260045462002a75565b7f2f23a8b1c76a44af619c48a5ae5637ab2bc86bc815c717b98d4f336ce1c44ba26004546040516200146591906200411b565b60405180910390a190565b6200147b8262001120565b62001490816200148a62002baf565b62002bb7565b6200149c838362002c5f565b505050565b620014ab62002baf565b73ffffffffffffffffffffffffffffffffffffffff168173ffffffffffffffffffffffffffffffffffffffff16146200151b576040517f08c379a00000000000000000000000000000000000000000000000000000000081526004016200151290620040f9565b60405180910390fd5b62001527828262002d44565b5050565b6200153562002baf565b73ffffffffffffffffffffffffffffffffffffffff166200155562002144565b73ffffffffffffffffffffffffffffffffffffffff1614620015ae576040517f08c379a0000000000000000000000000000000000000000000000000000000008152600401620015a590620040d7565b60405180910390fd5b80601060006101000a81548173ffffffffffffffffffffffffffffffffffffffff021916908373ffffffffffffffffffffffffffffffffffffffff16021790555050565b60045481565b60008173ffffffffffffffffffffffffffffffffffffffff166370a08231306040518263ffffffff1660e01b815260040162001635919062003f46565b60206040518083038186803b1580156200164e57600080fd5b505afa15801562001663573d6000803e3d6000fd5b505050506040513d601f19601f8201168201806040525081019062001689919062003b36565b9050919050565b6000600960003373ffffffffffffffffffffffffffffffffffffffff1673ffffffffffffffffffffffffffffffffffffffff16815260200190815260200160002054905090565b6060600a60003373ffffffffffffffffffffffffffffffffffffffff1673ffffffffffffffffffffffffffffffffffffffff1681526020019081526020016000208054806020026020016040519081016040528092919081815260200182805480156200176457602002820191906000526020600020905b8154815260200190600101908083116200174f575b5050505050905090565b6200177862002baf565b73ffffffffffffffffffffffffffffffffffffffff166200179862002144565b73ffffffffffffffffffffffffffffffffffffffff1614620017f1576040517f08c379a0000000000000000000000000000000000000000000000000000000008152600401620017e890620040d7565b60405180910390fd5b620017fd600062002e2b565b565b6200180e6000801b336200216d565b6200181857600080fd5b6001600260003373ffffffffffffffffffffffffffffffffffffffff1673ffffffffffffffffffffffffffffffffffffffff16815260200190815260200160002060006101000a81548160ff021916908315150217905550565b60006200187e62002baf565b73ffffffffffffffffffffffffffffffffffffffff166200189e62002144565b73ffffffffffffffffffffffffffffffffffffffff1614620018f7576040517f08c379a0000000000000000000000000000000000000000000000000000000008152600401620018ee90620040d7565b60405180910390fd5b600260008373ffffffffffffffffffffffffffffffffffffffff1673ffffffffffffffffffffffffffffffffffffffff16815260200190815260200160002060009054906101000a900460ff16620019fb576001600260008473ffffffffffffffffffffffffffffffffffffffff1673ffffffffffffffffffffffffffffffffffffffff16815260200190815260200160002060006101000a81548160ff0219169083151502179055507fd1bba68c128cc3f427e5831b3c6f99f480b6efa6b9e80c757768f6124158cc3f82604051620019d2919062003f46565b60405180910390a1600160036000828254620019ef919062004234565b92505081905550600190505b919050565b60065481565b6005805462001a15906200444a565b80601f016020809104026020016040519081016040528092919081815260200182805462001a43906200444a565b801562001a945780601f1062001a685761010080835404028352916020019162001a94565b820191906000526020600020905b81548152906001019060200180831162001a7657829003601f168201915b505050505081565b600062001aa862002baf565b73ffffffffffffffffffffffffffffffffffffffff1662001ac862002144565b73ffffffffffffffffffffffffffffffffffffffff161462001b21576040517f08c379a000000000000000000000000000000000000000000000000000000000815260040162001b1890620040d7565b60405180910390fd5b6000600b60008573ffffffffffffffffffffffffffffffffffffffff1673ffffffffffffffffffffffffffffffffffffffff16815260200190815260200160002080548060200260200160405190810160405280929190818152602001828054801562001bae57602002820191906000526020600020905b81548152602001906001019080831162001b99575b505050505090506000600b60008573ffffffffffffffffffffffffffffffffffffffff1673ffffffffffffffffffffffffffffffffffffffff16815260200190815260200160002080548060200260200160405190810160405280929190818152602001828054801562001c4257602002820191906000526020600020905b81548152602001906001019080831162001c2d575b5050505050905060008060005b845181101562001eb5576000601060009054906101000a900473ffffffffffffffffffffffffffffffffffffffff1673ffffffffffffffffffffffffffffffffffffffff1663d4313da887848151811062001caf5762001cae620045fb565b5b60200260200101516040518263ffffffff1660e01b815260040162001cd591906200411b565b60006040518083038186803b15801562001cee57600080fd5b505afa15801562001d03573d6000803e3d6000fd5b505050506040513d6000823e3d601f19601f8201168201806040525081019062001d2e9190620038ee565b90506000601060009054906101000a900473ffffffffffffffffffffffffffffffffffffffff1673ffffffffffffffffffffffffffffffffffffffff1663d4313da887858151811062001d865762001d85620045fb565b5b60200260200101516040518263ffffffff1660e01b815260040162001dac91906200411b565b60006040518083038186803b15801562001dc557600080fd5b505afa15801562001dda573d6000803e3d6000fd5b505050506040513d6000823e3d601f19601f8201168201806040525081019062001e059190620038ee565b90506000826001845162001e1a91906200432a565b8151811062001e2e5762001e2d620045fb565b5b602002602001015190506000826001845162001e4b91906200432a565b8151811062001e5f5762001e5e620045fb565b5b602002602001015190508082111562001e895760018762001e81919062004234565b965062001e9b565b60018662001e98919062004234565b95505b50505050808062001eac90620044b6565b91505062001c4f565b5060016007600082825462001ecb919062004234565b92505081905550808211156200200f57600a60008873ffffffffffffffffffffffffffffffffffffffff1673ffffffffffffffffffffffffffffffffffffffff16815260200190815260200160002060019080600181540180825580915050600190039060005260206000200160009091909190915055600a60008773ffffffffffffffffffffffffffffffffffffffff1673ffffffffffffffffffffffffffffffffffffffff168152602001908152602001600020600090806001815401808255809150506001900390600052602060002001600090919091909150556001600960008973ffffffffffffffffffffffffffffffffffffffff1673ffffffffffffffffffffffffffffffffffffffff168152602001908152602001600020600082825462001ffb919062004234565b92505081905550869450505050506200213e565b600a60008773ffffffffffffffffffffffffffffffffffffffff1673ffffffffffffffffffffffffffffffffffffffff16815260200190815260200160002060019080600181540180825580915050600190039060005260206000200160009091909190915055600a60008873ffffffffffffffffffffffffffffffffffffffff1673ffffffffffffffffffffffffffffffffffffffff168152602001908152602001600020600090806001815401808255809150506001900390600052602060002001600090919091909150556001600960008873ffffffffffffffffffffffffffffffffffffffff1673ffffffffffffffffffffffffffffffffffffffff16815260200190815260200160002060008282546200212f919062004234565b92505081905550859450505050505b92915050565b60008060029054906101000a900473ffffffffffffffffffffffffffffffffffffffff16905090565b60006001600084815260200190815260200160002060000160008373ffffffffffffffffffffffffffffffffffffffff1673ffffffffffffffffffffffffffffffffffffffff16815260200190815260200160002060009054906101000a900460ff16905092915050565b60026020528060005260406000206000915054906101000a900460ff1681565b6000801b81565b6060600b60003373ffffffffffffffffffffffffffffffffffffffff1673ffffffffffffffffffffffffffffffffffffffff1681526020019081526020016000208054806020026020016040519081016040528092919081815260200182805480156200228c57602002820191906000526020600020905b81548152602001906001019080831162002277575b5050505050905090565b600060019054906101000a900460ff16620022c05760008054906101000a900460ff1615620022cb565b620022ca62002ef0565b5b6200230d576040517f08c379a00000000000000000000000000000000000000000000000000000000081526004016200230490620040b5565b60405180910390fd5b60008060019054906101000a900460ff1615905080156200235e576001600060016101000a81548160ff02191690831515021790555060016000806101000a81548160ff0219169083151502179055505b8b8b6005919062002371929190620033d0565b50896004819055508860068190555060006007819055506000600c8190555087600d8190555086601060006101000a81548173ffffffffffffffffffffffffffffffffffffffff021916908373ffffffffffffffffffffffffffffffffffffffff16021790555081601260006101000a81548173ffffffffffffffffffffffffffffffffffffffff021916908373ffffffffffffffffffffffffffffffffffffffff160217905550620024286000801b8662002f03565b83600e60006101000a81548173ffffffffffffffffffffffffffffffffffffffff021916908373ffffffffffffffffffffffffffffffffffffffff16021790555082600f60006101000a81548173ffffffffffffffffffffffffffffffffffffffff021916908373ffffffffffffffffffffffffffffffffffffffff1602179055506008339080600181540180825580915050600190039060005260206000200160009091909190916101000a81548173ffffffffffffffffffffffffffffffffffffffff021916908373ffffffffffffffffffffffffffffffffffffffff1602179055506040516200251b9062003461565b604051809103906000f08015801562002538573d6000803e3d6000fd5b50601160006101000a81548173ffffffffffffffffffffffffffffffffffffffff021916908373ffffffffffffffffffffffffffffffffffffffff160217905550620025b96040518060400160405280601281526020017f50726f787920696e697469616c697a6564210000000000000000000000000000815250620029d8565b8015620025db5760008060016101000a81548160ff0219169083151502179055505b505050505050505050505050565b600260003373ffffffffffffffffffffffffffffffffffffffff1673ffffffffffffffffffffffffffffffffffffffff16815260200190815260200160002060009054906101000a900460ff16806200264457506000600354145b6200264e57600080fd5b6008339080600181540180825580915050600190039060005260206000200160009091909190916101000a81548173ffffffffffffffffffffffffffffffffffffffff021916908373ffffffffffffffffffffffffffffffffffffffff160217905550620026e1600f60009054906101000a900473ffffffffffffffffffffffffffffffffffffffff16600d5462002f13565b565b620026ee8262001120565b6200270381620026fd62002baf565b62002bb7565b6200270f838362002d44565b505050565b60006200272062002baf565b73ffffffffffffffffffffffffffffffffffffffff166200274062002144565b73ffffffffffffffffffffffffffffffffffffffff161462002799576040517f08c379a00000000000000000000000000000000000000000000000000000000081526004016200279090620040d7565b60405180910390fd5b60005b82518110156200280b57620027ce838281518110620027c057620027bf620045fb565b5b602002602001015162001872565b15620027f557600160036000828254620027e9919062004234565b92505081905550600191505b80806200280290620044b6565b9150506200279c565b50919050565b6200281b62002baf565b73ffffffffffffffffffffffffffffffffffffffff166200283b62002144565b73ffffffffffffffffffffffffffffffffffffffff161462002894576040517f08c379a00000000000000000000000000000000000000000000000000000000081526004016200288b90620040d7565b60405180910390fd5b600073ffffffffffffffffffffffffffffffffffffffff168173ffffffffffffffffffffffffffffffffffffffff16141562002907576040517f08c379a0000000000000000000000000000000000000000000000000000000008152600401620028fe9062004071565b60405180910390fd5b620029128162002e2b565b50565b80600b60003373ffffffffffffffffffffffffffffffffffffffff1673ffffffffffffffffffffffffffffffffffffffff16815260200190815260200160002090805190602001906200296a9291906200346f565b5050565b60007f01ffc9a7000000000000000000000000000000000000000000000000000000007bffffffffffffffffffffffffffffffffffffffffffffffffffffffff1916827bffffffffffffffffffffffffffffffffffffffffffffffffffffffff1916149050919050565b62002a7281604051602401620029ef91906200402b565b6040516020818303038152906040527f41304fac000000000000000000000000000000000000000000000000000000007bffffffffffffffffffffffffffffffffffffffffffffffffffffffff19166020820180517bffffffffffffffffffffffffffffffffffffffffffffffffffffffff83818316178352505050506200304b565b50565b62002b0f8160405160240162002a8c91906200411b565b6040516020818303038152906040527ff5b1bba9000000000000000000000000000000000000000000000000000000007bffffffffffffffffffffffffffffffffffffffffffffffffffffffff19166020820180517bffffffffffffffffffffffffffffffffffffffffffffffffffffffff83818316178352505050506200304b565b50565b62002bac8160405160240162002b29919062003f46565b6040516020818303038152906040527f2c2ecbc2000000000000000000000000000000000000000000000000000000007bffffffffffffffffffffffffffffffffffffffffffffffffffffffff19166020820180517bffffffffffffffffffffffffffffffffffffffffffffffffffffffff83818316178352505050506200304b565b50565b600033905090565b62002bc382826200216d565b62002c5b5762002beb8173ffffffffffffffffffffffffffffffffffffffff16601462003074565b62002bfb8360001c602062003074565b60405160200162002c0e92919062003eb2565b6040516020818303038152906040526040517f08c379a000000000000000000000000000000000000000000000000000000000815260040162002c5291906200402b565b60405180910390fd5b5050565b62002c6b82826200216d565b62002d4057600180600084815260200190815260200160002060000160008373ffffffffffffffffffffffffffffffffffffffff1673ffffffffffffffffffffffffffffffffffffffff16815260200190815260200160002060006101000a81548160ff02191690831515021790555062002ce562002baf565b73ffffffffffffffffffffffffffffffffffffffff168173ffffffffffffffffffffffffffffffffffffffff16837f2f8788117e7eff1d82e926ec794901d17c78024a50270940304540a733656f0d60405160405180910390a45b5050565b62002d5082826200216d565b1562002e275760006001600084815260200190815260200160002060000160008373ffffffffffffffffffffffffffffffffffffffff1673ffffffffffffffffffffffffffffffffffffffff16815260200190815260200160002060006101000a81548160ff02191690831515021790555062002dcc62002baf565b73ffffffffffffffffffffffffffffffffffffffff168173ffffffffffffffffffffffffffffffffffffffff16837ff6391f5c32d9c69d2a47ea670b442974b53935d1edc7fd64eb21e047a839171b60405160405180910390a45b5050565b60008060029054906101000a900473ffffffffffffffffffffffffffffffffffffffff16905081600060026101000a81548173ffffffffffffffffffffffffffffffffffffffff021916908373ffffffffffffffffffffffffffffffffffffffff1602179055508173ffffffffffffffffffffffffffffffffffffffff168173ffffffffffffffffffffffffffffffffffffffff167f8be0079c531659141344cd1fd0a4f28419497f9722a3daafe3b4186f6b6457e060405160405180910390a35050565b600062002efd30620032cf565b15905090565b62002f0f828262002c5f565b5050565b6000811162002f59576040517f08c379a000000000000000000000000000000000000000000000000000000000815260040162002f509062004093565b60405180910390fd5b62002f7081600c54620032f290919063ffffffff16565b600c819055508173ffffffffffffffffffffffffffffffffffffffff166323b872dd3330846040518463ffffffff1660e01b815260040162002fb59392919062003f63565b602060405180830381600087803b15801562002fd057600080fd5b505af115801562002fe5573d6000803e3d6000fd5b505050506040513d601f19601f820116820180604052508101906200300b91906200393f565b507f9e71bc8eea02a63969f509818f2dafb9254532904319f9dbda79b67bd34a5f3d33826040516200303f92919062003fa0565b60405180910390a15050565b60008151905060006a636f6e736f6c652e6c6f679050602083016000808483855afa5050505050565b606060006002836002620030899190620042c9565b62003095919062004234565b67ffffffffffffffff811115620030b157620030b06200462a565b5b6040519080825280601f01601f191660200182016040528015620030e45781602001600182028036833780820191505090505b5090507f3000000000000000000000000000000000000000000000000000000000000000816000815181106200311f576200311e620045fb565b5b60200101907effffffffffffffffffffffffffffffffffffffffffffffffffffffffffffff1916908160001a9053507f780000000000000000000000000000000000000000000000000000000000000081600181518110620031865762003185620045fb565b5b60200101907effffffffffffffffffffffffffffffffffffffffffffffffffffffffffffff1916908160001a90535060006001846002620031c89190620042c9565b620031d4919062004234565b90505b60018111156200327e577f3031323334353637383961626364656600000000000000000000000000000000600f8616601081106200321a5762003219620045fb565b5b1a60f81b828281518110620032345762003233620045fb565b5b60200101907effffffffffffffffffffffffffffffffffffffffffffffffffffffffffffff1916908160001a905350600485901c94508062003276906200441b565b9050620031d7565b5060008414620032c5576040517f08c379a0000000000000000000000000000000000000000000000000000000008152600401620032bc906200404f565b60405180910390fd5b8091505092915050565b6000808273ffffffffffffffffffffffffffffffffffffffff163b119050919050565b6000818362003302919062004234565b905092915050565b6040518060800160405280600490602082028036833780820191505090505090565b6040518060400160405280600290602082028036833780820191505090505090565b8260028101928215620033bd579160200282015b82811115620033bc5782518260006101000a81548173ffffffffffffffffffffffffffffffffffffffff021916908373ffffffffffffffffffffffffffffffffffffffff1602179055509160200191906001019062003362565b5b509050620033cc9190620034c1565b5090565b828054620033de906200444a565b90600052602060002090601f0160209004810192826200340257600085556200344e565b82601f106200341d57803560ff19168380011785556200344e565b828001600101855582156200344e579182015b828111156200344d57823582559160200191906001019062003430565b5b5090506200345d9190620034c1565b5090565b610f6380620048cd83390190565b828054828255906000526020600020908101928215620034ae579160200282015b82811115620034ad57825182559160200191906001019062003490565b5b509050620034bd9190620034c1565b5090565b5b80821115620034dc576000816000905550600101620034c2565b5090565b6000620034f7620034f18462004161565b62004138565b905080838252602082019050828560208602820111156200351d576200351c62004663565b5b60005b8581101562003551578162003536888262003651565b84526020840193506020830192505060018101905062003520565b5050509392505050565b6000620035726200356c8462004190565b62004138565b9050808382526020820190508285602086028201111562003598576200359762004663565b5b60005b85811015620035cc5781620035b18882620037a5565b8452602084019350602083019250506001810190506200359b565b5050509392505050565b6000620035ed620035e78462004190565b62004138565b9050808382526020820190508285602086028201111562003613576200361262004663565b5b60005b858110156200364757816200362c8882620037bc565b84526020840193506020830192505060018101905062003616565b5050509392505050565b60008135905062003662816200484a565b92915050565b600082601f83011262003680576200367f6200465e565b5b813562003692848260208601620034e0565b91505092915050565b600082601f830112620036b357620036b26200465e565b5b8135620036c58482602086016200355b565b91505092915050565b600082601f830112620036e657620036e56200465e565b5b8151620036f8848260208601620035d6565b91505092915050565b600081519050620037128162004864565b92915050565b60008135905062003729816200487e565b92915050565b600081359050620037408162004898565b92915050565b60008083601f8401126200375f576200375e6200465e565b5b8235905067ffffffffffffffff8111156200377f576200377e62004659565b5b6020830191508360018202830111156200379e576200379d62004663565b5b9250929050565b600081359050620037b681620048b2565b92915050565b600081519050620037cd81620048b2565b92915050565b600060208284031215620037ec57620037eb6200466d565b5b6000620037fc8482850162003651565b91505092915050565b600080604083850312156200381f576200381e6200466d565b5b60006200382f8582860162003651565b9250506020620038428582860162003651565b9150509250929050565b6000602082840312156200386557620038646200466d565b5b600082013567ffffffffffffffff81111562003886576200388562004668565b5b620038948482850162003668565b91505092915050565b600060208284031215620038b657620038b56200466d565b5b600082013567ffffffffffffffff811115620038d757620038d662004668565b5b620038e5848285016200369b565b91505092915050565b6000602082840312156200390757620039066200466d565b5b600082015167ffffffffffffffff81111562003928576200392762004668565b5b6200393684828501620036ce565b91505092915050565b6000602082840312156200395857620039576200466d565b5b6000620039688482850162003701565b91505092915050565b6000602082840312156200398a57620039896200466d565b5b60006200399a8482850162003718565b91505092915050565b60008060408385031215620039bd57620039bc6200466d565b5b6000620039cd8582860162003718565b9250506020620039e08582860162003651565b9150509250929050565b60006020828403121562003a035762003a026200466d565b5b600062003a13848285016200372f565b91505092915050565b60008060008060008060008060008060006101408c8e03121562003a455762003a446200466d565b5b60008c013567ffffffffffffffff81111562003a665762003a6562004668565b5b62003a748e828f0162003746565b9b509b5050602062003a898e828f01620037a5565b995050604062003a9c8e828f01620037a5565b985050606062003aaf8e828f01620037a5565b975050608062003ac28e828f0162003651565b96505060a062003ad58e828f0162003651565b95505060c062003ae88e828f0162003651565b94505060e062003afb8e828f0162003651565b93505061010062003b0f8e828f0162003651565b92505061012062003b238e828f0162003651565b9150509295989b509295989b9093969950565b60006020828403121562003b4f5762003b4e6200466d565b5b600062003b5f84828501620037bc565b91505092915050565b600062003b76838362003e75565b60208301905092915050565b62003b8d8162004365565b82525050565b62003ba862003ba28262004365565b62004504565b82525050565b600062003bbb82620041e4565b62003bc7818562004207565b935062003bd483620041bf565b8060005b8381101562003c0b57815162003bef888262003b68565b975062003bfc83620041fa565b92505060018101905062003bd8565b5085935050505092915050565b62003c238162004379565b82525050565b62003c348162004385565b82525050565b600062003c4782620041ef565b62003c53818562004218565b935062003c65818560208601620043e5565b62003c708162004672565b840191505092915050565b600062003c8882620041ef565b62003c94818562004229565b935062003ca6818560208601620043e5565b80840191505092915050565b6000815462003cc1816200444a565b62003ccd818662004229565b9450600182166000811462003ceb576001811462003cfd5762003d34565b60ff1983168652818601935062003d34565b62003d0885620041cf565b60005b8381101562003d2c5781548189015260018201915060208101905062003d0b565b838801955050505b50505092915050565b600062003d4c60208362004218565b915062003d598262004690565b602082019050919050565b600062003d7360268362004218565b915062003d8082620046b9565b604082019050919050565b600062003d9a600e8362004218565b915062003da78262004708565b602082019050919050565b600062003dc1602e8362004218565b915062003dce8262004731565b604082019050919050565b600062003de860208362004218565b915062003df58262004780565b602082019050919050565b600062003e0f60178362004229565b915062003e1c82620047a9565b601782019050919050565b600062003e3660118362004229565b915062003e4382620047d2565b601182019050919050565b600062003e5d602f8362004218565b915062003e6a82620047fb565b604082019050919050565b62003e8081620043db565b82525050565b62003e9181620043db565b82525050565b62003eac62003ea682620043db565b6200452c565b82525050565b600062003ebf8262003e00565b915062003ecd828562003c7b565b915062003eda8262003e27565b915062003ee8828462003c7b565b91508190509392505050565b600062003f02828762003e97565b60208201915062003f14828662003b93565b60148201915062003f26828562003e97565b60208201915062003f38828462003cb2565b915081905095945050505050565b600060208201905062003f5d600083018462003b82565b92915050565b600060608201905062003f7a600083018662003b82565b62003f89602083018562003b82565b62003f98604083018462003e86565b949350505050565b600060408201905062003fb7600083018562003b82565b62003fc6602083018462003e86565b9392505050565b6000602082019050818103600083015262003fe9818462003bae565b905092915050565b600060208201905062004008600083018462003c18565b92915050565b600060208201905062004025600083018462003c29565b92915050565b6000602082019050818103600083015262004047818462003c3a565b905092915050565b600060208201905081810360008301526200406a8162003d3d565b9050919050565b600060208201905081810360008301526200408c8162003d64565b9050919050565b60006020820190508181036000830152620040ae8162003d8b565b9050919050565b60006020820190508181036000830152620040d08162003db2565b9050919050565b60006020820190508181036000830152620040f28162003dd9565b9050919050565b60006020820190508181036000830152620041148162003e4e565b9050919050565b600060208201905062004132600083018462003e86565b92915050565b60006200414462004157565b905062004152828262004480565b919050565b6000604051905090565b600067ffffffffffffffff8211156200417f576200417e6200462a565b5b602082029050602081019050919050565b600067ffffffffffffffff821115620041ae57620041ad6200462a565b5b602082029050602081019050919050565b6000819050602082019050919050565b60008190508160005260206000209050919050565b600081519050919050565b600081519050919050565b6000602082019050919050565b600082825260208201905092915050565b600082825260208201905092915050565b600081905092915050565b60006200424182620043db565b91506200424e83620043db565b9250827fffffffffffffffffffffffffffffffffffffffffffffffffffffffffffffffff038211156200428657620042856200456e565b5b828201905092915050565b60006200429e82620043db565b9150620042ab83620043db565b925082620042be57620042bd6200459d565b5b828204905092915050565b6000620042d682620043db565b9150620042e383620043db565b9250817fffffffffffffffffffffffffffffffffffffffffffffffffffffffffffffffff04831182151516156200431f576200431e6200456e565b5b828202905092915050565b60006200433782620043db565b91506200434483620043db565b9250828210156200435a57620043596200456e565b5b828203905092915050565b60006200437282620043bb565b9050919050565b60008115159050919050565b6000819050919050565b60007fffffffff0000000000000000000000000000000000000000000000000000000082169050919050565b600073ffffffffffffffffffffffffffffffffffffffff82169050919050565b6000819050919050565b60005b8381101562004405578082015181840152602081019050620043e8565b8381111562004415576000848401525b50505050565b60006200442882620043db565b915060008214156200443f576200443e6200456e565b5b600182039050919050565b600060028204905060018216806200446357607f821691505b602082108114156200447a5762004479620045cc565b5b50919050565b6200448b8262004672565b810181811067ffffffffffffffff82111715620044ad57620044ac6200462a565b5b80604052505050565b6000620044c382620043db565b91507fffffffffffffffffffffffffffffffffffffffffffffffffffffffffffffffff821415620044f957620044f86200456e565b5b600182019050919050565b6000620045118262004518565b9050919050565b6000620045258262004683565b9050919050565b6000819050919050565b60006200454382620043db565b91506200455083620043db565b9250826200456357620045626200459d565b5b828206905092915050565b7f4e487b7100000000000000000000000000000000000000000000000000000000600052601160045260246000fd5b7f4e487b7100000000000000000000000000000000000000000000000000000000600052601260045260246000fd5b7f4e487b7100000000000000000000000000000000000000000000000000000000600052602260045260246000fd5b7f4e487b7100000000000000000000000000000000000000000000000000000000600052603260045260246000fd5b7f4e487b7100000000000000000000000000000000000000000000000000000000600052604160045260246000fd5b600080fd5b600080fd5b600080fd5b600080fd5b600080fd5b6000601f19601f8301169050919050565b60008160601b9050919050565b7f537472696e67733a20686578206c656e67746820696e73756666696369656e74600082015250565b7f4f776e61626c653a206e6577206f776e657220697320746865207a65726f206160008201527f6464726573730000000000000000000000000000000000000000000000000000602082015250565b7f43616e6e6f74207374616b652030000000000000000000000000000000000000600082015250565b7f496e697469616c697a61626c653a20636f6e747261637420697320616c72656160008201527f647920696e697469616c697a6564000000000000000000000000000000000000602082015250565b7f4f776e61626c653a2063616c6c6572206973206e6f7420746865206f776e6572600082015250565b7f416363657373436f6e74726f6c3a206163636f756e7420000000000000000000600082015250565b7f206973206d697373696e6720726f6c6520000000000000000000000000000000600082015250565b7f416363657373436f6e74726f6c3a2063616e206f6e6c792072656e6f756e636560008201527f20726f6c657320666f722073656c660000000000000000000000000000000000602082015250565b620048558162004365565b81146200486157600080fd5b50565b6200486f8162004379565b81146200487b57600080fd5b50565b620048898162004385565b81146200489557600080fd5b50565b620048a3816200438f565b8114620048af57600080fd5b50565b620048bd81620043db565b8114620048c957600080fd5b5056fe608060405234801561001057600080fd5b5061002d61002261003260201b60201c565b61003a60201b60201c565b6100fe565b600033905090565b60008060009054906101000a900473ffffffffffffffffffffffffffffffffffffffff169050816000806101000a81548173ffffffffffffffffffffffffffffffffffffffff021916908373ffffffffffffffffffffffffffffffffffffffff1602179055508173ffffffffffffffffffffffffffffffffffffffff168173ffffffffffffffffffffffffffffffffffffffff167f8be0079c531659141344cd1fd0a4f28419497f9722a3daafe3b4186f6b6457e060405160405180910390a35050565b610e568061010d6000396000f3fe608060405234801561001057600080fd5b50600436106100885760003560e01c80638da5cb5b1161005b5780638da5cb5b146101275780639b19251a14610145578063e2ec6ec314610175578063f2fde38b146101a557610088565b806324953eaa1461008d578063286dd3f5146100bd578063715018a6146100ed5780637b9417c8146100f7575b600080fd5b6100a760048036038101906100a29190610a0e565b6101c1565b6040516100b49190610ad6565b60405180910390f35b6100d760048036038101906100d291906109e1565b6102ab565b6040516100e49190610ad6565b60405180910390f35b6100f561042e565b005b610111600480360381019061010c91906109e1565b6104b6565b60405161011e9190610ad6565b60405180910390f35b61012f610637565b60405161013c9190610abb565b60405180910390f35b61015f600480360381019061015a91906109e1565b610660565b60405161016c9190610ad6565b60405180910390f35b61018f600480360381019061018a9190610a0e565b610680565b60405161019c9190610ad6565b60405180910390f35b6101bf60048036038101906101ba91906109e1565b61076a565b005b60006101cb610862565b73ffffffffffffffffffffffffffffffffffffffff166101e9610637565b73ffffffffffffffffffffffffffffffffffffffff161461023f576040517f08c379a000000000000000000000000000000000000000000000000000000000815260040161023690610b11565b60405180910390fd5b60005b82518110156102a55761026e83828151811061026157610260610d0e565b5b60200260200101516102ab565b15610292576001600260008282546102869190610be9565b92505081905550600191505b808061029d90610c96565b915050610242565b50919050565b60006102b5610862565b73ffffffffffffffffffffffffffffffffffffffff166102d3610637565b73ffffffffffffffffffffffffffffffffffffffff1614610329576040517f08c379a000000000000000000000000000000000000000000000000000000000815260040161032090610b11565b60405180910390fd5b600160008373ffffffffffffffffffffffffffffffffffffffff1673ffffffffffffffffffffffffffffffffffffffff16815260200190815260200160002060009054906101000a900460ff1615610429576000600160008473ffffffffffffffffffffffffffffffffffffffff1673ffffffffffffffffffffffffffffffffffffffff16815260200190815260200160002060006101000a81548160ff0219169083151502179055507ff1abf01a1043b7c244d128e8595cf0c1d10743b022b03a02dffd8ca3bf729f5a826040516104029190610abb565b60405180910390a160016002600082825461041d9190610be9565b92505081905550600190505b919050565b610436610862565b73ffffffffffffffffffffffffffffffffffffffff16610454610637565b73ffffffffffffffffffffffffffffffffffffffff16146104aa576040517f08c379a00000000000000000000000000000000000000000000000000000000081526004016104a190610b11565b60405180910390fd5b6104b4600061086a565b565b60006104c0610862565b73ffffffffffffffffffffffffffffffffffffffff166104de610637565b73ffffffffffffffffffffffffffffffffffffffff1614610534576040517f08c379a000000000000000000000000000000000000000000000000000000000815260040161052b90610b11565b60405180910390fd5b600160008373ffffffffffffffffffffffffffffffffffffffff1673ffffffffffffffffffffffffffffffffffffffff16815260200190815260200160002060009054906101000a900460ff166106325760018060008473ffffffffffffffffffffffffffffffffffffffff1673ffffffffffffffffffffffffffffffffffffffff16815260200190815260200160002060006101000a81548160ff0219169083151502179055507fd1bba68c128cc3f427e5831b3c6f99f480b6efa6b9e80c757768f6124158cc3f8260405161060b9190610abb565b60405180910390a16001600260008282546106269190610b93565b92505081905550600190505b919050565b60008060009054906101000a900473ffffffffffffffffffffffffffffffffffffffff16905090565b60016020528060005260406000206000915054906101000a900460ff1681565b600061068a610862565b73ffffffffffffffffffffffffffffffffffffffff166106a8610637565b73ffffffffffffffffffffffffffffffffffffffff16146106fe576040517f08c379a00000000000000000000000000000000000000000000000000000000081526004016106f590610b11565b60405180910390fd5b60005b82518110156107645761072d8382815181106107205761071f610d0e565b5b60200260200101516104b6565b15610751576001600260008282546107459190610b93565b92505081905550600191505b808061075c90610c96565b915050610701565b50919050565b610772610862565b73ffffffffffffffffffffffffffffffffffffffff16610790610637565b73ffffffffffffffffffffffffffffffffffffffff16146107e6576040517f08c379a00000000000000000000000000000000000000000000000000000000081526004016107dd90610b11565b60405180910390fd5b600073ffffffffffffffffffffffffffffffffffffffff168173ffffffffffffffffffffffffffffffffffffffff161415610856576040517f08c379a000000000000000000000000000000000000000000000000000000000815260040161084d90610af1565b60405180910390fd5b61085f8161086a565b50565b600033905090565b60008060009054906101000a900473ffffffffffffffffffffffffffffffffffffffff169050816000806101000a81548173ffffffffffffffffffffffffffffffffffffffff021916908373ffffffffffffffffffffffffffffffffffffffff1602179055508173ffffffffffffffffffffffffffffffffffffffff168173ffffffffffffffffffffffffffffffffffffffff167f8be0079c531659141344cd1fd0a4f28419497f9722a3daafe3b4186f6b6457e060405160405180910390a35050565b600061094161093c84610b56565b610b31565b9050808382526020820190508285602086028201111561096457610963610d71565b5b60005b85811015610994578161097a888261099e565b845260208401935060208301925050600181019050610967565b5050509392505050565b6000813590506109ad81610e09565b92915050565b600082601f8301126109c8576109c7610d6c565b5b81356109d884826020860161092e565b91505092915050565b6000602082840312156109f7576109f6610d7b565b5b6000610a058482850161099e565b91505092915050565b600060208284031215610a2457610a23610d7b565b5b600082013567ffffffffffffffff811115610a4257610a41610d76565b5b610a4e848285016109b3565b91505092915050565b610a6081610c1d565b82525050565b610a6f81610c2f565b82525050565b6000610a82602683610b82565b9150610a8d82610d91565b604082019050919050565b6000610aa5602083610b82565b9150610ab082610de0565b602082019050919050565b6000602082019050610ad06000830184610a57565b92915050565b6000602082019050610aeb6000830184610a66565b92915050565b60006020820190508181036000830152610b0a81610a75565b9050919050565b60006020820190508181036000830152610b2a81610a98565b9050919050565b6000610b3b610b4c565b9050610b478282610c65565b919050565b6000604051905090565b600067ffffffffffffffff821115610b7157610b70610d3d565b5b602082029050602081019050919050565b600082825260208201905092915050565b6000610b9e82610c5b565b9150610ba983610c5b565b9250827fffffffffffffffffffffffffffffffffffffffffffffffffffffffffffffffff03821115610bde57610bdd610cdf565b5b828201905092915050565b6000610bf482610c5b565b9150610bff83610c5b565b925082821015610c1257610c11610cdf565b5b828203905092915050565b6000610c2882610c3b565b9050919050565b60008115159050919050565b600073ffffffffffffffffffffffffffffffffffffffff82169050919050565b6000819050919050565b610c6e82610d80565b810181811067ffffffffffffffff82111715610c8d57610c8c610d3d565b5b80604052505050565b6000610ca182610c5b565b91507fffffffffffffffffffffffffffffffffffffffffffffffffffffffffffffffff821415610cd457610cd3610cdf565b5b600182019050919050565b7f4e487b7100000000000000000000000000000000000000000000000000000000600052601160045260246000fd5b7f4e487b7100000000000000000000000000000000000000000000000000000000600052603260045260246000fd5b7f4e487b7100000000000000000000000000000000000000000000000000000000600052604160045260246000fd5b600080fd5b600080fd5b600080fd5b600080fd5b6000601f19601f8301169050919050565b7f4f776e61626c653a206e6577206f776e657220697320746865207a65726f206160008201527f6464726573730000000000000000000000000000000000000000000000000000602082015250565b7f4f776e61626c653a2063616c6c6572206973206e6f7420746865206f776e6572600082015250565b610e1281610c1d565b8114610e1d57600080fd5b5056fea2646970667358221220fb1abdaf2591ffa11a42327d975072cdbfaea858fb556a8e7af6f7d0ae7bc51d64736f6c63430008070033746f6f206d616e7920757365727320696e206c656167756520746f20616464206e65772075736572a2646970667358221220617d47814a06ccfb6d28d0e58b18dacdc0d279dea1887f3a824d334fe5b3775764736f6c63430008070033",
  "linkReferences": {},
  "deployedLinkReferences": {}
}