{
  "_format": "hh-sol-artifact-1",
  "contractName": "GameLogic",
  "sourceName": "contracts/GameLogic.sol",
  "abi": [
    {
      "anonymous": false,
      "inputs": [
        {
          "indexed": true,
          "internalType": "address",
          "name": "previousOwner",
          "type": "address"
        },
        {
          "indexed": true,
          "internalType": "address",
          "name": "newOwner",
          "type": "address"
        }
      ],
      "name": "OwnershipTransferred",
      "type": "event"
    },
    {
      "anonymous": false,
      "inputs": [
        {
          "indexed": true,
          "internalType": "bytes32",
          "name": "role",
          "type": "bytes32"
        },
        {
          "indexed": true,
          "internalType": "bytes32",
          "name": "previousAdminRole",
          "type": "bytes32"
        },
        {
          "indexed": true,
          "internalType": "bytes32",
          "name": "newAdminRole",
          "type": "bytes32"
        }
      ],
      "name": "RoleAdminChanged",
      "type": "event"
    },
    {
      "anonymous": false,
      "inputs": [
        {
          "indexed": true,
          "internalType": "bytes32",
          "name": "role",
          "type": "bytes32"
        },
        {
          "indexed": true,
          "internalType": "address",
          "name": "account",
          "type": "address"
        },
        {
          "indexed": true,
          "internalType": "address",
          "name": "sender",
          "type": "address"
        }
      ],
      "name": "RoleGranted",
      "type": "event"
    },
    {
      "anonymous": false,
      "inputs": [
        {
          "indexed": true,
          "internalType": "bytes32",
          "name": "role",
          "type": "bytes32"
        },
        {
          "indexed": true,
          "internalType": "address",
          "name": "account",
          "type": "address"
        },
        {
          "indexed": true,
          "internalType": "address",
          "name": "sender",
          "type": "address"
        }
      ],
      "name": "RoleRevoked",
      "type": "event"
    },
    {
      "anonymous": false,
      "inputs": [
        {
          "indexed": false,
          "internalType": "address",
          "name": "sender",
          "type": "address"
        },
        {
          "indexed": false,
          "internalType": "uint256",
          "name": "amount",
          "type": "uint256"
        }
      ],
      "name": "Staked",
      "type": "event"
    },
    {
      "anonymous": false,
      "inputs": [
        {
          "indexed": false,
          "internalType": "address",
          "name": "addr",
          "type": "address"
        }
      ],
      "name": "WhitelistedAddressAdded",
      "type": "event"
    },
    {
      "anonymous": false,
      "inputs": [
        {
          "indexed": false,
          "internalType": "address",
          "name": "addr",
          "type": "address"
        }
      ],
      "name": "WhitelistedAddressRemoved",
      "type": "event"
    },
    {
      "inputs": [],
      "name": "DEFAULT_ADMIN_ROLE",
      "outputs": [
        {
          "internalType": "bytes32",
          "name": "",
          "type": "bytes32"
        }
      ],
      "stateMutability": "view",
      "type": "function"
    },
    {
      "inputs": [
        {
          "internalType": "address",
          "name": "addr",
          "type": "address"
        }
      ],
      "name": "addAddressToWhitelist",
      "outputs": [
        {
          "internalType": "bool",
          "name": "success",
          "type": "bool"
        }
      ],
      "stateMutability": "nonpayable",
      "type": "function"
    },
    {
      "inputs": [
        {
          "internalType": "address[]",
          "name": "addrs",
          "type": "address[]"
        }
      ],
      "name": "addAddressesToWhitelist",
      "outputs": [
        {
          "internalType": "bool",
          "name": "success",
          "type": "bool"
        }
      ],
      "stateMutability": "nonpayable",
      "type": "function"
    },
    {
      "inputs": [
        {
          "internalType": "address",
          "name": "user",
          "type": "address"
        }
      ],
      "name": "addUserToLeague",
      "outputs": [],
      "stateMutability": "nonpayable",
      "type": "function"
    },
    {
      "inputs": [],
      "name": "addUserToWhitelist",
      "outputs": [],
      "stateMutability": "nonpayable",
      "type": "function"
    },
    {
      "inputs": [
        {
          "internalType": "address",
          "name": "addr1",
          "type": "address"
        },
        {
          "internalType": "address",
          "name": "addr2",
          "type": "address"
        }
      ],
      "name": "evaluateMatch",
      "outputs": [
        {
          "internalType": "address",
          "name": "",
          "type": "address"
        }
      ],
      "stateMutability": "nonpayable",
      "type": "function"
    },
    {
      "inputs": [],
      "name": "getLineup",
      "outputs": [
        {
          "internalType": "uint256[]",
          "name": "",
          "type": "uint256[]"
        }
      ],
      "stateMutability": "view",
      "type": "function"
    },
    {
      "inputs": [
        {
          "internalType": "bytes32",
          "name": "role",
          "type": "bytes32"
        }
      ],
      "name": "getRoleAdmin",
      "outputs": [
        {
          "internalType": "bytes32",
          "name": "",
          "type": "bytes32"
        }
      ],
      "stateMutability": "view",
      "type": "function"
    },
    {
      "inputs": [
        {
          "internalType": "address",
          "name": "_token",
          "type": "address"
        }
      ],
      "name": "getUSDCBalance",
      "outputs": [
        {
          "internalType": "uint256",
          "name": "",
          "type": "uint256"
        }
      ],
      "stateMutability": "view",
      "type": "function"
    },
    {
      "inputs": [],
      "name": "getUserTotalPts",
      "outputs": [
        {
          "internalType": "uint256",
          "name": "",
          "type": "uint256"
        }
      ],
      "stateMutability": "view",
      "type": "function"
    },
    {
      "inputs": [],
      "name": "getUserWeeklypts",
      "outputs": [
        {
          "internalType": "uint256[]",
          "name": "",
          "type": "uint256[]"
        }
      ],
      "stateMutability": "view",
      "type": "function"
    },
    {
      "inputs": [
        {
          "internalType": "bytes32",
          "name": "role",
          "type": "bytes32"
        },
        {
          "internalType": "address",
          "name": "account",
          "type": "address"
        }
      ],
      "name": "grantRole",
      "outputs": [],
      "stateMutability": "nonpayable",
      "type": "function"
    },
    {
      "inputs": [
        {
          "internalType": "bytes32",
          "name": "role",
          "type": "bytes32"
        },
        {
          "internalType": "address",
          "name": "account",
          "type": "address"
        }
      ],
      "name": "hasRole",
      "outputs": [
        {
          "internalType": "bool",
          "name": "",
          "type": "bool"
        }
      ],
      "stateMutability": "view",
      "type": "function"
    },
    {
      "inputs": [],
      "name": "incrementVersion",
      "outputs": [
        {
          "internalType": "uint256",
          "name": "",
          "type": "uint256"
        }
      ],
      "stateMutability": "nonpayable",
      "type": "function"
    },
    {
      "inputs": [
        {
          "internalType": "string",
          "name": "_name",
          "type": "string"
        },
        {
          "internalType": "uint256",
          "name": "_version",
          "type": "uint256"
        },
        {
          "internalType": "uint256",
          "name": "_numWeeks",
          "type": "uint256"
        },
        {
          "internalType": "uint256",
          "name": "_stakeAmount",
          "type": "uint256"
        },
        {
          "internalType": "address",
          "name": "athletesDataStorageAddress",
          "type": "address"
        },
        {
          "internalType": "address",
          "name": "_owner",
          "type": "address"
        },
        {
          "internalType": "address",
          "name": "_admin",
          "type": "address"
        },
        {
          "internalType": "address",
          "name": "_polygonUSDCAddress",
          "type": "address"
        },
        {
          "internalType": "address",
          "name": "_rinkebyUSDCAddress",
          "type": "address"
        },
        {
          "internalType": "address",
          "name": "leagueMakerContractAddress",
          "type": "address"
        }
      ],
      "name": "initialize",
      "outputs": [],
      "stateMutability": "nonpayable",
      "type": "function"
    },
    {
      "inputs": [],
      "name": "joinLeague",
      "outputs": [],
      "stateMutability": "nonpayable",
      "type": "function"
    },
    {
      "inputs": [],
      "name": "leagueName",
      "outputs": [
        {
          "internalType": "string",
          "name": "",
          "type": "string"
        }
      ],
      "stateMutability": "view",
      "type": "function"
    },
    {
      "inputs": [],
      "name": "numWeeks",
      "outputs": [
        {
          "internalType": "uint256",
          "name": "",
          "type": "uint256"
        }
      ],
      "stateMutability": "view",
      "type": "function"
    },
    {
      "inputs": [],
      "name": "owner",
      "outputs": [
        {
          "internalType": "address",
          "name": "",
          "type": "address"
        }
      ],
      "stateMutability": "view",
      "type": "function"
    },
    {
      "inputs": [
        {
          "internalType": "address",
          "name": "addr",
          "type": "address"
        }
      ],
      "name": "removeAddressFromWhitelist",
      "outputs": [
        {
          "internalType": "bool",
          "name": "success",
          "type": "bool"
        }
      ],
      "stateMutability": "nonpayable",
      "type": "function"
    },
    {
      "inputs": [
        {
          "internalType": "address[]",
          "name": "addrs",
          "type": "address[]"
        }
      ],
      "name": "removeAddressesFromWhitelist",
      "outputs": [
        {
          "internalType": "bool",
          "name": "success",
          "type": "bool"
        }
      ],
      "stateMutability": "nonpayable",
      "type": "function"
    },
    {
      "inputs": [],
      "name": "removeFromLeague",
      "outputs": [],
      "stateMutability": "nonpayable",
      "type": "function"
    },
    {
      "inputs": [],
      "name": "renounceOwnership",
      "outputs": [],
      "stateMutability": "nonpayable",
      "type": "function"
    },
    {
      "inputs": [
        {
          "internalType": "bytes32",
          "name": "role",
          "type": "bytes32"
        },
        {
          "internalType": "address",
          "name": "account",
          "type": "address"
        }
      ],
      "name": "renounceRole",
      "outputs": [],
      "stateMutability": "nonpayable",
      "type": "function"
    },
    {
      "inputs": [
        {
          "internalType": "bytes32",
          "name": "role",
          "type": "bytes32"
        },
        {
          "internalType": "address",
          "name": "account",
          "type": "address"
        }
      ],
      "name": "revokeRole",
      "outputs": [],
      "stateMutability": "nonpayable",
      "type": "function"
    },
    {
      "inputs": [
        {
          "internalType": "address",
          "name": "_athleteContractAddress",
          "type": "address"
        }
      ],
      "name": "setAthleteContractAddress",
      "outputs": [],
      "stateMutability": "nonpayable",
      "type": "function"
    },
    {
      "inputs": [],
      "name": "setLeagueSchedule",
      "outputs": [],
      "stateMutability": "nonpayable",
      "type": "function"
    },
    {
      "inputs": [
        {
          "internalType": "uint256[]",
          "name": "athleteIds",
          "type": "uint256[]"
        }
      ],
      "name": "setLineup",
      "outputs": [],
      "stateMutability": "nonpayable",
      "type": "function"
    },
    {
      "inputs": [
        {
          "internalType": "bytes4",
          "name": "interfaceId",
          "type": "bytes4"
        }
      ],
      "name": "supportsInterface",
      "outputs": [
        {
          "internalType": "bool",
          "name": "",
          "type": "bool"
        }
      ],
      "stateMutability": "view",
      "type": "function"
    },
    {
      "inputs": [
        {
          "internalType": "address",
          "name": "newOwner",
          "type": "address"
        }
      ],
      "name": "transferOwnership",
      "outputs": [],
      "stateMutability": "nonpayable",
      "type": "function"
    },
    {
      "inputs": [],
      "name": "version",
      "outputs": [
        {
          "internalType": "uint256",
          "name": "",
          "type": "uint256"
        }
      ],
      "stateMutability": "view",
      "type": "function"
    },
    {
      "inputs": [
        {
          "internalType": "address",
          "name": "",
          "type": "address"
        }
      ],
      "name": "whitelist",
      "outputs": [
        {
          "internalType": "bool",
          "name": "",
          "type": "bool"
        }
      ],
      "stateMutability": "view",
      "type": "function"
    }
  ],
  "bytecode": "0x60806040523480156200001157600080fd5b5062000032620000266200003860201b60201c565b6200004060201b60201c565b62000105565b600033905090565b60008060029054906101000a900473ffffffffffffffffffffffffffffffffffffffff16905081600060026101000a81548173ffffffffffffffffffffffffffffffffffffffff021916908373ffffffffffffffffffffffffffffffffffffffff1602179055508173ffffffffffffffffffffffffffffffffffffffff168173ffffffffffffffffffffffffffffffffffffffff167f8be0079c531659141344cd1fd0a4f28419497f9722a3daafe3b4186f6b6457e060405160405180910390a35050565b6158b780620001156000396000f3fe60806040523480156200001157600080fd5b5060043610620002205760003560e01c80637ac6aa1d1162000129578063a217fddf11620000b1578063d547741f116200007b578063d547741f1462000619578063e2ec6ec31462000639578063f2fde38b146200066f578063f612121a146200068f5762000220565b8063a217fddf14620005a9578063ada3a28d14620005cb578063bb1a046114620005ed578063c99fea94146200060d5762000220565b8063853976dd11620000f3578063853976dd14620004e55780638da5cb5b146200051b57806391d14854146200053d5780639b19251a14620005735762000220565b80637ac6aa1d146200045f5780637b9417c8146200046b5780637eed33f114620004a1578063841abf6e14620004c35762000220565b80632f2ff15d11620001ad5780636802471711620001775780636802471714620003d95780636bdc44df146200040f5780636fd71a181462000431578063715018a614620004535762000220565b80632f2ff15d146200035757806336568abe1462000377578063486b3944146200039757806354fd4d5014620003b75762000220565b8063248a9ca311620001ef578063248a9ca3146200029357806324953eaa14620002c9578063286dd3f514620002ff5780632cf0a1fc14620003355762000220565b806301ffc9a714620002255780630655465a146200025b578063087e18a7146200026757806311c253f51462000287575b600080fd5b6200024360048036038101906200023d919062003a14565b620006af565b6040516200025291906200401b565b60405180910390f35b620002656200072c565b005b6200028560048036038101906200027f9190620037fd565b62000f51565b005b6200029162001081565b005b620002b16004803603810190620002ab91906200399b565b620010e8565b604051620002c0919062004038565b60405180910390f35b620002e76004803603810190620002e1919062003876565b62001108565b604051620002f691906200401b565b60405180910390f35b6200031d6004803603810190620003179190620037fd565b62001205565b6040516200032c91906200401b565b60405180910390f35b6200033f62001394565b6040516200034e919062004145565b60405180910390f35b6200037560048036038101906200036f9190620039cd565b6200149a565b005b6200039560048036038101906200038f9190620039cd565b620014cb565b005b620003b56004803603810190620003af9190620037fd565b62001555565b005b620003c16200161c565b604051620003d0919062004145565b60405180910390f35b620003f76004803603810190620003f19190620037fd565b62001622565b60405162000406919062004145565b60405180910390f35b62000419620016ba565b60405162000428919062004145565b60405180910390f35b6200043b62001701565b6040516200044a919062003ff7565b60405180910390f35b6200045d62001798565b005b6200046962001829565b005b620004896004803603810190620004839190620037fd565b6200189c565b6040516200049891906200401b565b60405180910390f35b620004ab62001a2a565b604051620004ba919062004145565b60405180910390f35b620004cd62001a30565b604051620004dc919062004055565b60405180910390f35b620005036004803603810190620004fd91906200382f565b62001ac6565b60405162000512919062003f70565b60405180910390f35b620005256200216e565b60405162000534919062003f70565b60405180910390f35b6200055b6004803603810190620005559190620039cd565b62002197565b6040516200056a91906200401b565b60405180910390f35b6200059160048036038101906200058b9190620037fd565b62002202565b604051620005a091906200401b565b60405180910390f35b620005b362002222565b604051620005c2919062004038565b60405180910390f35b620005d562002229565b604051620005e4919062003ff7565b60405180910390f35b6200060b600480360381019062000605919062003a46565b620022c0565b005b6200061762002613565b005b620006376004803603810190620006319190620039cd565b6200270d565b005b62000657600480360381019062000651919062003876565b6200273e565b6040516200066691906200401b565b60405180910390f35b6200068d6004803603810190620006879190620037fd565b6200283b565b005b620006ad6004803603810190620006a79190620038c7565b6200293f565b005b60007f7965db0b000000000000000000000000000000000000000000000000000000007bffffffffffffffffffffffffffffffffffffffffffffffffffffffff1916827bffffffffffffffffffffffffffffffffffffffffffffffffffffffff19161480620007255750620007248262002998565b5b9050919050565b6200076c6040518060400160405280601081526020017f73657474696e67207363686564756c650000000000000000000000000000000081525062002a02565b6000600880549050600880549050620007869190620042f3565b4233446005604051602001620007a0949392919062003f1e565b6040516020818303038152906040528051906020012060001c620007c591906200425e565b9050620007d162003334565b620007db62003334565b60005b600881101562000f4b57620008286040518060400160405280600181526020017f0a0000000000000000000000000000000000000000000000000000000000000081525062002a02565b620008338162002a9f565b620008736040518060400160405280601881526020017f2a2a2a2a2a2a2a2a2a2a2a2a2a2a2a2a2a2a2a2a2a2a2a2a000000000000000081525062002a02565b60008060026008805490506200088a919062004560565b14620008ad576001600880549050620008a491906200425e565b905080620008b7565b6008805490509050805b50600083600060048110620008d157620008d062004625565b5b6020020151905060005b600283620008ea9190620042bb565b81101562000a67576000841415620009ad5780866002856200090d9190620042bb565b89846200091b91906200425e565b62000927919062004560565b600481106200093b576200093a62004625565b5b602002018181525050600283620009539190620042bb565b816200096091906200425e565b85600285620009709190620042bb565b89846200097e91906200425e565b6200098a919062004560565b600481106200099e576200099d62004625565b5b60200201818152505062000a51565b6000868260048110620009c557620009c462004625565b5b6020020151905080868360048110620009e357620009e262004625565b5b60200201818152505085600285620009fc9190620042bb565b60018462000a0b91906200425e565b62000a17919062004560565b6004811062000a2b5762000a2a62004625565b5b602002015187836004811062000a465762000a4562004625565b5b602002018181525050505b808062000a5e90620044e0565b915050620008db565b506000831462000aae578085600160028562000a849190620042bb565b62000a90919062004354565b6004811062000aa45762000aa362004625565b5b6020020181815250505b60005b60028362000ac09190620042bb565b81101562000f325762000ad262003356565b60088054905086836004811062000aee5762000aed62004625565b5b60200201511062000bca576040518060400160405280600889856004811062000b1c5762000b1b62004625565b5b60200201518154811062000b355762000b3462004625565b5b9060005260206000200160009054906101000a900473ffffffffffffffffffffffffffffffffffffffff1673ffffffffffffffffffffffffffffffffffffffff1673ffffffffffffffffffffffffffffffffffffffff168152602001600073ffffffffffffffffffffffffffffffffffffffff1673ffffffffffffffffffffffffffffffffffffffff16815250905062000de9565b60088054905087836004811062000be65762000be562004625565b5b60200201511062000cc2576040518060400160405280600073ffffffffffffffffffffffffffffffffffffffff1673ffffffffffffffffffffffffffffffffffffffff168152602001600888856004811062000c475762000c4662004625565b5b60200201518154811062000c605762000c5f62004625565b5b9060005260206000200160009054906101000a900473ffffffffffffffffffffffffffffffffffffffff1673ffffffffffffffffffffffffffffffffffffffff1673ffffffffffffffffffffffffffffffffffffffff16815250905062000de8565b6040518060400160405280600889856004811062000ce55762000ce462004625565b5b60200201518154811062000cfe5762000cfd62004625565b5b9060005260206000200160009054906101000a900473ffffffffffffffffffffffffffffffffffffffff1673ffffffffffffffffffffffffffffffffffffffff1673ffffffffffffffffffffffffffffffffffffffff168152602001600888856004811062000d725762000d7162004625565b5b60200201518154811062000d8b5762000d8a62004625565b5b9060005260206000200160009054906101000a900473ffffffffffffffffffffffffffffffffffffffff1673ffffffffffffffffffffffffffffffffffffffff1673ffffffffffffffffffffffffffffffffffffffff1681525090505b5b600060405180602001604052808381525090508060136000888152602001908152602001600020846008811062000e255762000e2462004625565b5b6002020160008201518160000190600262000e4292919062003378565b5090505062000e70816000015160006002811062000e655762000e6462004625565b5b602002015162002b3c565b62000eb06040518060400160405280600481526020017f207673200000000000000000000000000000000000000000000000000000000081525062002a02565b62000eda816000015160016002811062000ecf5762000ece62004625565b5b602002015162002b3c565b62000f1a6040518060400160405280600181526020017f0a0000000000000000000000000000000000000000000000000000000000000081525062002a02565b5050808062000f2990620044e0565b91505062000ab1565b505050808062000f4290620044e0565b915050620007de565b50505050565b60088080549050101562001059576008819080600181540180825580915050600190039060005260206000200160009091909190916101000a81548173ffffffffffffffffffffffffffffffffffffffff021916908373ffffffffffffffffffffffffffffffffffffffff160217905550601260009054906101000a900473ffffffffffffffffffffffffffffffffffffffff1673ffffffffffffffffffffffffffffffffffffffff1663771bd4ce826040518263ffffffff1660e01b81526004016200101f919062003f70565b600060405180830381600087803b1580156200103a57600080fd5b505af11580156200104f573d6000803e3d6000fd5b505050506200107e565b6200107d6040518060600160405280602881526020016200585a6028913962002a02565b5b50565b600260003373ffffffffffffffffffffffffffffffffffffffff1673ffffffffffffffffffffffffffffffffffffffff16815260200190815260200160002060009054906101000a900460ff1680620010dc57506000600354145b620010e657600080fd5b565b600060016000838152602001908152602001600020600101549050919050565b60006200111462002bd9565b73ffffffffffffffffffffffffffffffffffffffff16620011346200216e565b73ffffffffffffffffffffffffffffffffffffffff16146200118d576040517f08c379a0000000000000000000000000000000000000000000000000000000008152600401620011849062004101565b60405180910390fd5b60005b8251811015620011ff57620011c2838281518110620011b457620011b362004625565b5b602002602001015162001205565b15620011e957600160036000828254620011dd919062004354565b92505081905550600191505b8080620011f690620044e0565b91505062001190565b50919050565b60006200121162002bd9565b73ffffffffffffffffffffffffffffffffffffffff16620012316200216e565b73ffffffffffffffffffffffffffffffffffffffff16146200128a576040517f08c379a0000000000000000000000000000000000000000000000000000000008152600401620012819062004101565b60405180910390fd5b600260008373ffffffffffffffffffffffffffffffffffffffff1673ffffffffffffffffffffffffffffffffffffffff16815260200190815260200160002060009054906101000a900460ff16156200138f576000600260008473ffffffffffffffffffffffffffffffffffffffff1673ffffffffffffffffffffffffffffffffffffffff16815260200190815260200160002060006101000a81548160ff0219169083151502179055507ff1abf01a1043b7c244d128e8595cf0c1d10743b022b03a02dffd8ca3bf729f5a8260405162001366919062003f70565b60405180910390a160016003600082825462001383919062004354565b92505081905550600190505b919050565b6000620013d66040518060400160405280601581526020017f696e6372656d656e74696e672076657273696f6e3a000000000000000000000081525062002a02565b6002600454620013e791906200425e565b600481905550620013fa60045462002a9f565b62001497600580546200140d9062004474565b80601f01602080910402602001604051908101604052809291908181526020018280546200143b9062004474565b80156200148c5780601f1062001460576101008083540402835291602001916200148c565b820191906000526020600020905b8154815290600101906020018083116200146e57829003601f168201915b505050505062002a02565b90565b620014a582620010e8565b620014ba81620014b462002bd9565b62002be1565b620014c6838362002c89565b505050565b620014d562002bd9565b73ffffffffffffffffffffffffffffffffffffffff168173ffffffffffffffffffffffffffffffffffffffff161462001545576040517f08c379a00000000000000000000000000000000000000000000000000000000081526004016200153c9062004123565b60405180910390fd5b62001551828262002d6e565b5050565b6200155f62002bd9565b73ffffffffffffffffffffffffffffffffffffffff166200157f6200216e565b73ffffffffffffffffffffffffffffffffffffffff1614620015d8576040517f08c379a0000000000000000000000000000000000000000000000000000000008152600401620015cf9062004101565b60405180910390fd5b80601060006101000a81548173ffffffffffffffffffffffffffffffffffffffff021916908373ffffffffffffffffffffffffffffffffffffffff16021790555050565b60045481565b60008173ffffffffffffffffffffffffffffffffffffffff166370a08231306040518263ffffffff1660e01b81526004016200165f919062003f70565b60206040518083038186803b1580156200167857600080fd5b505afa1580156200168d573d6000803e3d6000fd5b505050506040513d601f19601f82011682018060405250810190620016b3919062003b60565b9050919050565b6000600960003373ffffffffffffffffffffffffffffffffffffffff1673ffffffffffffffffffffffffffffffffffffffff16815260200190815260200160002054905090565b6060600a60003373ffffffffffffffffffffffffffffffffffffffff1673ffffffffffffffffffffffffffffffffffffffff1681526020019081526020016000208054806020026020016040519081016040528092919081815260200182805480156200178e57602002820191906000526020600020905b81548152602001906001019080831162001779575b5050505050905090565b620017a262002bd9565b73ffffffffffffffffffffffffffffffffffffffff16620017c26200216e565b73ffffffffffffffffffffffffffffffffffffffff16146200181b576040517f08c379a0000000000000000000000000000000000000000000000000000000008152600401620018129062004101565b60405180910390fd5b62001827600062002e55565b565b620018386000801b3362002197565b6200184257600080fd5b6001600260003373ffffffffffffffffffffffffffffffffffffffff1673ffffffffffffffffffffffffffffffffffffffff16815260200190815260200160002060006101000a81548160ff021916908315150217905550565b6000620018a862002bd9565b73ffffffffffffffffffffffffffffffffffffffff16620018c86200216e565b73ffffffffffffffffffffffffffffffffffffffff161462001921576040517f08c379a0000000000000000000000000000000000000000000000000000000008152600401620019189062004101565b60405180910390fd5b600260008373ffffffffffffffffffffffffffffffffffffffff1673ffffffffffffffffffffffffffffffffffffffff16815260200190815260200160002060009054906101000a900460ff1662001a25576001600260008473ffffffffffffffffffffffffffffffffffffffff1673ffffffffffffffffffffffffffffffffffffffff16815260200190815260200160002060006101000a81548160ff0219169083151502179055507fd1bba68c128cc3f427e5831b3c6f99f480b6efa6b9e80c757768f6124158cc3f82604051620019fc919062003f70565b60405180910390a160016003600082825462001a1991906200425e565b92505081905550600190505b919050565b60065481565b6005805462001a3f9062004474565b80601f016020809104026020016040519081016040528092919081815260200182805462001a6d9062004474565b801562001abe5780601f1062001a925761010080835404028352916020019162001abe565b820191906000526020600020905b81548152906001019060200180831162001aa057829003601f168201915b505050505081565b600062001ad262002bd9565b73ffffffffffffffffffffffffffffffffffffffff1662001af26200216e565b73ffffffffffffffffffffffffffffffffffffffff161462001b4b576040517f08c379a000000000000000000000000000000000000000000000000000000000815260040162001b429062004101565b60405180910390fd5b6000600b60008573ffffffffffffffffffffffffffffffffffffffff1673ffffffffffffffffffffffffffffffffffffffff16815260200190815260200160002080548060200260200160405190810160405280929190818152602001828054801562001bd857602002820191906000526020600020905b81548152602001906001019080831162001bc3575b505050505090506000600b60008573ffffffffffffffffffffffffffffffffffffffff1673ffffffffffffffffffffffffffffffffffffffff16815260200190815260200160002080548060200260200160405190810160405280929190818152602001828054801562001c6c57602002820191906000526020600020905b81548152602001906001019080831162001c57575b5050505050905060008060005b845181101562001edf576000601060009054906101000a900473ffffffffffffffffffffffffffffffffffffffff1673ffffffffffffffffffffffffffffffffffffffff1663d4313da887848151811062001cd95762001cd862004625565b5b60200260200101516040518263ffffffff1660e01b815260040162001cff919062004145565b60006040518083038186803b15801562001d1857600080fd5b505afa15801562001d2d573d6000803e3d6000fd5b505050506040513d6000823e3d601f19601f8201168201806040525081019062001d58919062003918565b90506000601060009054906101000a900473ffffffffffffffffffffffffffffffffffffffff1673ffffffffffffffffffffffffffffffffffffffff1663d4313da887858151811062001db05762001daf62004625565b5b60200260200101516040518263ffffffff1660e01b815260040162001dd6919062004145565b60006040518083038186803b15801562001def57600080fd5b505afa15801562001e04573d6000803e3d6000fd5b505050506040513d6000823e3d601f19601f8201168201806040525081019062001e2f919062003918565b90506000826001845162001e44919062004354565b8151811062001e585762001e5762004625565b5b602002602001015190506000826001845162001e75919062004354565b8151811062001e895762001e8862004625565b5b602002602001015190508082111562001eb35760018762001eab91906200425e565b965062001ec5565b60018662001ec291906200425e565b95505b50505050808062001ed690620044e0565b91505062001c79565b5060016007600082825462001ef591906200425e565b92505081905550808211156200203957600a60008873ffffffffffffffffffffffffffffffffffffffff1673ffffffffffffffffffffffffffffffffffffffff16815260200190815260200160002060019080600181540180825580915050600190039060005260206000200160009091909190915055600a60008773ffffffffffffffffffffffffffffffffffffffff1673ffffffffffffffffffffffffffffffffffffffff168152602001908152602001600020600090806001815401808255809150506001900390600052602060002001600090919091909150556001600960008973ffffffffffffffffffffffffffffffffffffffff1673ffffffffffffffffffffffffffffffffffffffff16815260200190815260200160002060008282546200202591906200425e565b925050819055508694505050505062002168565b600a60008773ffffffffffffffffffffffffffffffffffffffff1673ffffffffffffffffffffffffffffffffffffffff16815260200190815260200160002060019080600181540180825580915050600190039060005260206000200160009091909190915055600a60008873ffffffffffffffffffffffffffffffffffffffff1673ffffffffffffffffffffffffffffffffffffffff168152602001908152602001600020600090806001815401808255809150506001900390600052602060002001600090919091909150556001600960008873ffffffffffffffffffffffffffffffffffffffff1673ffffffffffffffffffffffffffffffffffffffff16815260200190815260200160002060008282546200215991906200425e565b92505081905550859450505050505b92915050565b60008060029054906101000a900473ffffffffffffffffffffffffffffffffffffffff16905090565b60006001600084815260200190815260200160002060000160008373ffffffffffffffffffffffffffffffffffffffff1673ffffffffffffffffffffffffffffffffffffffff16815260200190815260200160002060009054906101000a900460ff16905092915050565b60026020528060005260406000206000915054906101000a900460ff1681565b6000801b81565b6060600b60003373ffffffffffffffffffffffffffffffffffffffff1673ffffffffffffffffffffffffffffffffffffffff168152602001908152602001600020805480602002602001604051908101604052809291908181526020018280548015620022b657602002820191906000526020600020905b815481526020019060010190808311620022a1575b5050505050905090565b600060019054906101000a900460ff16620022ea5760008054906101000a900460ff1615620022f5565b620022f462002f1a565b5b62002337576040517f08c379a00000000000000000000000000000000000000000000000000000000081526004016200232e90620040df565b60405180910390fd5b60008060019054906101000a900460ff16159050801562002388576001600060016101000a81548160ff02191690831515021790555060016000806101000a81548160ff0219169083151502179055505b8b8b600591906200239b929190620033fa565b50896004819055508860068190555060006007819055506000600c8190555087600d8190555086601060006101000a81548173ffffffffffffffffffffffffffffffffffffffff021916908373ffffffffffffffffffffffffffffffffffffffff16021790555081601260006101000a81548173ffffffffffffffffffffffffffffffffffffffff021916908373ffffffffffffffffffffffffffffffffffffffff160217905550620024526000801b8662002f2d565b83600e60006101000a81548173ffffffffffffffffffffffffffffffffffffffff021916908373ffffffffffffffffffffffffffffffffffffffff16021790555082600f60006101000a81548173ffffffffffffffffffffffffffffffffffffffff021916908373ffffffffffffffffffffffffffffffffffffffff1602179055506008339080600181540180825580915050600190039060005260206000200160009091909190916101000a81548173ffffffffffffffffffffffffffffffffffffffff021916908373ffffffffffffffffffffffffffffffffffffffff16021790555060405162002545906200348b565b604051809103906000f08015801562002562573d6000803e3d6000fd5b50601160006101000a81548173ffffffffffffffffffffffffffffffffffffffff021916908373ffffffffffffffffffffffffffffffffffffffff160217905550620025e36040518060400160405280601281526020017f50726f787920696e697469616c697a656421000000000000000000000000000081525062002a02565b8015620026055760008060016101000a81548160ff0219169083151502179055505b505050505050505050505050565b600260003373ffffffffffffffffffffffffffffffffffffffff1673ffffffffffffffffffffffffffffffffffffffff16815260200190815260200160002060009054906101000a900460ff16806200266e57506000600354145b6200267857600080fd5b6008339080600181540180825580915050600190039060005260206000200160009091909190916101000a81548173ffffffffffffffffffffffffffffffffffffffff021916908373ffffffffffffffffffffffffffffffffffffffff1602179055506200270b600f60009054906101000a900473ffffffffffffffffffffffffffffffffffffffff16600d5462002f3d565b565b6200271882620010e8565b6200272d816200272762002bd9565b62002be1565b62002739838362002d6e565b505050565b60006200274a62002bd9565b73ffffffffffffffffffffffffffffffffffffffff166200276a6200216e565b73ffffffffffffffffffffffffffffffffffffffff1614620027c3576040517f08c379a0000000000000000000000000000000000000000000000000000000008152600401620027ba9062004101565b60405180910390fd5b60005b82518110156200283557620027f8838281518110620027ea57620027e962004625565b5b60200260200101516200189c565b156200281f576001600360008282546200281391906200425e565b92505081905550600191505b80806200282c90620044e0565b915050620027c6565b50919050565b6200284562002bd9565b73ffffffffffffffffffffffffffffffffffffffff16620028656200216e565b73ffffffffffffffffffffffffffffffffffffffff1614620028be576040517f08c379a0000000000000000000000000000000000000000000000000000000008152600401620028b59062004101565b60405180910390fd5b600073ffffffffffffffffffffffffffffffffffffffff168173ffffffffffffffffffffffffffffffffffffffff16141562002931576040517f08c379a000000000000000000000000000000000000000000000000000000000815260040162002928906200409b565b60405180910390fd5b6200293c8162002e55565b50565b80600b60003373ffffffffffffffffffffffffffffffffffffffff1673ffffffffffffffffffffffffffffffffffffffff16815260200190815260200160002090805190602001906200299492919062003499565b5050565b60007f01ffc9a7000000000000000000000000000000000000000000000000000000007bffffffffffffffffffffffffffffffffffffffffffffffffffffffff1916827bffffffffffffffffffffffffffffffffffffffffffffffffffffffff1916149050919050565b62002a9c8160405160240162002a19919062004055565b6040516020818303038152906040527f41304fac000000000000000000000000000000000000000000000000000000007bffffffffffffffffffffffffffffffffffffffffffffffffffffffff19166020820180517bffffffffffffffffffffffffffffffffffffffffffffffffffffffff838183161783525050505062003075565b50565b62002b398160405160240162002ab6919062004145565b6040516020818303038152906040527ff5b1bba9000000000000000000000000000000000000000000000000000000007bffffffffffffffffffffffffffffffffffffffffffffffffffffffff19166020820180517bffffffffffffffffffffffffffffffffffffffffffffffffffffffff838183161783525050505062003075565b50565b62002bd68160405160240162002b53919062003f70565b6040516020818303038152906040527f2c2ecbc2000000000000000000000000000000000000000000000000000000007bffffffffffffffffffffffffffffffffffffffffffffffffffffffff19166020820180517bffffffffffffffffffffffffffffffffffffffffffffffffffffffff838183161783525050505062003075565b50565b600033905090565b62002bed828262002197565b62002c855762002c158173ffffffffffffffffffffffffffffffffffffffff1660146200309e565b62002c258360001c60206200309e565b60405160200162002c3892919062003edc565b6040516020818303038152906040526040517f08c379a000000000000000000000000000000000000000000000000000000000815260040162002c7c919062004055565b60405180910390fd5b5050565b62002c95828262002197565b62002d6a57600180600084815260200190815260200160002060000160008373ffffffffffffffffffffffffffffffffffffffff1673ffffffffffffffffffffffffffffffffffffffff16815260200190815260200160002060006101000a81548160ff02191690831515021790555062002d0f62002bd9565b73ffffffffffffffffffffffffffffffffffffffff168173ffffffffffffffffffffffffffffffffffffffff16837f2f8788117e7eff1d82e926ec794901d17c78024a50270940304540a733656f0d60405160405180910390a45b5050565b62002d7a828262002197565b1562002e515760006001600084815260200190815260200160002060000160008373ffffffffffffffffffffffffffffffffffffffff1673ffffffffffffffffffffffffffffffffffffffff16815260200190815260200160002060006101000a81548160ff02191690831515021790555062002df662002bd9565b73ffffffffffffffffffffffffffffffffffffffff168173ffffffffffffffffffffffffffffffffffffffff16837ff6391f5c32d9c69d2a47ea670b442974b53935d1edc7fd64eb21e047a839171b60405160405180910390a45b5050565b60008060029054906101000a900473ffffffffffffffffffffffffffffffffffffffff16905081600060026101000a81548173ffffffffffffffffffffffffffffffffffffffff021916908373ffffffffffffffffffffffffffffffffffffffff1602179055508173ffffffffffffffffffffffffffffffffffffffff168173ffffffffffffffffffffffffffffffffffffffff167f8be0079c531659141344cd1fd0a4f28419497f9722a3daafe3b4186f6b6457e060405160405180910390a35050565b600062002f2730620032f9565b15905090565b62002f39828262002c89565b5050565b6000811162002f83576040517f08c379a000000000000000000000000000000000000000000000000000000000815260040162002f7a90620040bd565b60405180910390fd5b62002f9a81600c546200331c90919063ffffffff16565b600c819055508173ffffffffffffffffffffffffffffffffffffffff166323b872dd3330846040518463ffffffff1660e01b815260040162002fdf9392919062003f8d565b602060405180830381600087803b15801562002ffa57600080fd5b505af11580156200300f573d6000803e3d6000fd5b505050506040513d601f19601f8201168201806040525081019062003035919062003969565b507f9e71bc8eea02a63969f509818f2dafb9254532904319f9dbda79b67bd34a5f3d33826040516200306992919062003fca565b60405180910390a15050565b60008151905060006a636f6e736f6c652e6c6f679050602083016000808483855afa5050505050565b606060006002836002620030b39190620042f3565b620030bf91906200425e565b67ffffffffffffffff811115620030db57620030da62004654565b5b6040519080825280601f01601f1916602001820160405280156200310e5781602001600182028036833780820191505090505b5090507f30000000000000000000000000000000000000000000000000000000000000008160008151811062003149576200314862004625565b5b60200101907effffffffffffffffffffffffffffffffffffffffffffffffffffffffffffff1916908160001a9053507f780000000000000000000000000000000000000000000000000000000000000081600181518110620031b057620031af62004625565b5b60200101907effffffffffffffffffffffffffffffffffffffffffffffffffffffffffffff1916908160001a90535060006001846002620031f29190620042f3565b620031fe91906200425e565b90505b6001811115620032a8577f3031323334353637383961626364656600000000000000000000000000000000600f86166010811062003244576200324362004625565b5b1a60f81b8282815181106200325e576200325d62004625565b5b60200101907effffffffffffffffffffffffffffffffffffffffffffffffffffffffffffff1916908160001a905350600485901c945080620032a09062004445565b905062003201565b5060008414620032ef576040517f08c379a0000000000000000000000000000000000000000000000000000000008152600401620032e69062004079565b60405180910390fd5b8091505092915050565b6000808273ffffffffffffffffffffffffffffffffffffffff163b119050919050565b600081836200332c91906200425e565b905092915050565b6040518060800160405280600490602082028036833780820191505090505090565b6040518060400160405280600290602082028036833780820191505090505090565b8260028101928215620033e7579160200282015b82811115620033e65782518260006101000a81548173ffffffffffffffffffffffffffffffffffffffff021916908373ffffffffffffffffffffffffffffffffffffffff160217905550916020019190600101906200338c565b5b509050620033f69190620034eb565b5090565b828054620034089062004474565b90600052602060002090601f0160209004810192826200342c576000855562003478565b82601f106200344757803560ff191683800117855562003478565b8280016001018555821562003478579182015b82811115620034775782358255916020019190600101906200345a565b5b509050620034879190620034eb565b5090565b610f6380620048f783390190565b828054828255906000526020600020908101928215620034d8579160200282015b82811115620034d7578251825591602001919060010190620034ba565b5b509050620034e79190620034eb565b5090565b5b8082111562003506576000816000905550600101620034ec565b5090565b6000620035216200351b846200418b565b62004162565b905080838252602082019050828560208602820111156200354757620035466200468d565b5b60005b858110156200357b57816200356088826200367b565b8452602084019350602083019250506001810190506200354a565b5050509392505050565b60006200359c6200359684620041ba565b62004162565b90508083825260208201905082856020860282011115620035c257620035c16200468d565b5b60005b85811015620035f65781620035db8882620037cf565b845260208401935060208301925050600181019050620035c5565b5050509392505050565b6000620036176200361184620041ba565b62004162565b905080838252602082019050828560208602820111156200363d576200363c6200468d565b5b60005b85811015620036715781620036568882620037e6565b84526020840193506020830192505060018101905062003640565b5050509392505050565b6000813590506200368c8162004874565b92915050565b600082601f830112620036aa57620036a962004688565b5b8135620036bc8482602086016200350a565b91505092915050565b600082601f830112620036dd57620036dc62004688565b5b8135620036ef84826020860162003585565b91505092915050565b600082601f83011262003710576200370f62004688565b5b81516200372284826020860162003600565b91505092915050565b6000815190506200373c816200488e565b92915050565b6000813590506200375381620048a8565b92915050565b6000813590506200376a81620048c2565b92915050565b60008083601f84011262003789576200378862004688565b5b8235905067ffffffffffffffff811115620037a957620037a862004683565b5b602083019150836001820283011115620037c857620037c76200468d565b5b9250929050565b600081359050620037e081620048dc565b92915050565b600081519050620037f781620048dc565b92915050565b60006020828403121562003816576200381562004697565b5b600062003826848285016200367b565b91505092915050565b6000806040838503121562003849576200384862004697565b5b600062003859858286016200367b565b92505060206200386c858286016200367b565b9150509250929050565b6000602082840312156200388f576200388e62004697565b5b600082013567ffffffffffffffff811115620038b057620038af62004692565b5b620038be8482850162003692565b91505092915050565b600060208284031215620038e057620038df62004697565b5b600082013567ffffffffffffffff81111562003901576200390062004692565b5b6200390f84828501620036c5565b91505092915050565b60006020828403121562003931576200393062004697565b5b600082015167ffffffffffffffff81111562003952576200395162004692565b5b6200396084828501620036f8565b91505092915050565b60006020828403121562003982576200398162004697565b5b600062003992848285016200372b565b91505092915050565b600060208284031215620039b457620039b362004697565b5b6000620039c48482850162003742565b91505092915050565b60008060408385031215620039e757620039e662004697565b5b6000620039f78582860162003742565b925050602062003a0a858286016200367b565b9150509250929050565b60006020828403121562003a2d5762003a2c62004697565b5b600062003a3d8482850162003759565b91505092915050565b60008060008060008060008060008060006101408c8e03121562003a6f5762003a6e62004697565b5b60008c013567ffffffffffffffff81111562003a905762003a8f62004692565b5b62003a9e8e828f0162003770565b9b509b5050602062003ab38e828f01620037cf565b995050604062003ac68e828f01620037cf565b985050606062003ad98e828f01620037cf565b975050608062003aec8e828f016200367b565b96505060a062003aff8e828f016200367b565b95505060c062003b128e828f016200367b565b94505060e062003b258e828f016200367b565b93505061010062003b398e828f016200367b565b92505061012062003b4d8e828f016200367b565b9150509295989b509295989b9093969950565b60006020828403121562003b795762003b7862004697565b5b600062003b8984828501620037e6565b91505092915050565b600062003ba0838362003e9f565b60208301905092915050565b62003bb7816200438f565b82525050565b62003bd262003bcc826200438f565b6200452e565b82525050565b600062003be5826200420e565b62003bf1818562004231565b935062003bfe83620041e9565b8060005b8381101562003c3557815162003c19888262003b92565b975062003c268362004224565b92505060018101905062003c02565b5085935050505092915050565b62003c4d81620043a3565b82525050565b62003c5e81620043af565b82525050565b600062003c718262004219565b62003c7d818562004242565b935062003c8f8185602086016200440f565b62003c9a816200469c565b840191505092915050565b600062003cb28262004219565b62003cbe818562004253565b935062003cd08185602086016200440f565b80840191505092915050565b6000815462003ceb8162004474565b62003cf7818662004253565b9450600182166000811462003d15576001811462003d275762003d5e565b60ff1983168652818601935062003d5e565b62003d3285620041f9565b60005b8381101562003d565781548189015260018201915060208101905062003d35565b838801955050505b50505092915050565b600062003d7660208362004242565b915062003d8382620046ba565b602082019050919050565b600062003d9d60268362004242565b915062003daa82620046e3565b604082019050919050565b600062003dc4600e8362004242565b915062003dd18262004732565b602082019050919050565b600062003deb602e8362004242565b915062003df8826200475b565b604082019050919050565b600062003e1260208362004242565b915062003e1f82620047aa565b602082019050919050565b600062003e3960178362004253565b915062003e4682620047d3565b601782019050919050565b600062003e6060118362004253565b915062003e6d82620047fc565b601182019050919050565b600062003e87602f8362004242565b915062003e948262004825565b604082019050919050565b62003eaa8162004405565b82525050565b62003ebb8162004405565b82525050565b62003ed662003ed08262004405565b62004556565b82525050565b600062003ee98262003e2a565b915062003ef7828562003ca5565b915062003f048262003e51565b915062003f12828462003ca5565b91508190509392505050565b600062003f2c828762003ec1565b60208201915062003f3e828662003bbd565b60148201915062003f50828562003ec1565b60208201915062003f62828462003cdc565b915081905095945050505050565b600060208201905062003f87600083018462003bac565b92915050565b600060608201905062003fa4600083018662003bac565b62003fb3602083018562003bac565b62003fc2604083018462003eb0565b949350505050565b600060408201905062003fe1600083018562003bac565b62003ff0602083018462003eb0565b9392505050565b6000602082019050818103600083015262004013818462003bd8565b905092915050565b600060208201905062004032600083018462003c42565b92915050565b60006020820190506200404f600083018462003c53565b92915050565b6000602082019050818103600083015262004071818462003c64565b905092915050565b60006020820190508181036000830152620040948162003d67565b9050919050565b60006020820190508181036000830152620040b68162003d8e565b9050919050565b60006020820190508181036000830152620040d88162003db5565b9050919050565b60006020820190508181036000830152620040fa8162003ddc565b9050919050565b600060208201905081810360008301526200411c8162003e03565b9050919050565b600060208201905081810360008301526200413e8162003e78565b9050919050565b60006020820190506200415c600083018462003eb0565b92915050565b60006200416e62004181565b90506200417c8282620044aa565b919050565b6000604051905090565b600067ffffffffffffffff821115620041a957620041a862004654565b5b602082029050602081019050919050565b600067ffffffffffffffff821115620041d857620041d762004654565b5b602082029050602081019050919050565b6000819050602082019050919050565b60008190508160005260206000209050919050565b600081519050919050565b600081519050919050565b6000602082019050919050565b600082825260208201905092915050565b600082825260208201905092915050565b600081905092915050565b60006200426b8262004405565b9150620042788362004405565b9250827fffffffffffffffffffffffffffffffffffffffffffffffffffffffffffffffff03821115620042b057620042af62004598565b5b828201905092915050565b6000620042c88262004405565b9150620042d58362004405565b925082620042e857620042e7620045c7565b5b828204905092915050565b6000620043008262004405565b91506200430d8362004405565b9250817fffffffffffffffffffffffffffffffffffffffffffffffffffffffffffffffff048311821515161562004349576200434862004598565b5b828202905092915050565b6000620043618262004405565b91506200436e8362004405565b92508282101562004384576200438362004598565b5b828203905092915050565b60006200439c82620043e5565b9050919050565b60008115159050919050565b6000819050919050565b60007fffffffff0000000000000000000000000000000000000000000000000000000082169050919050565b600073ffffffffffffffffffffffffffffffffffffffff82169050919050565b6000819050919050565b60005b838110156200442f57808201518184015260208101905062004412565b838111156200443f576000848401525b50505050565b6000620044528262004405565b9150600082141562004469576200446862004598565b5b600182039050919050565b600060028204905060018216806200448d57607f821691505b60208210811415620044a457620044a3620045f6565b5b50919050565b620044b5826200469c565b810181811067ffffffffffffffff82111715620044d757620044d662004654565b5b80604052505050565b6000620044ed8262004405565b91507fffffffffffffffffffffffffffffffffffffffffffffffffffffffffffffffff82141562004523576200452262004598565b5b600182019050919050565b60006200453b8262004542565b9050919050565b60006200454f82620046ad565b9050919050565b6000819050919050565b60006200456d8262004405565b91506200457a8362004405565b9250826200458d576200458c620045c7565b5b828206905092915050565b7f4e487b7100000000000000000000000000000000000000000000000000000000600052601160045260246000fd5b7f4e487b7100000000000000000000000000000000000000000000000000000000600052601260045260246000fd5b7f4e487b7100000000000000000000000000000000000000000000000000000000600052602260045260246000fd5b7f4e487b7100000000000000000000000000000000000000000000000000000000600052603260045260246000fd5b7f4e487b7100000000000000000000000000000000000000000000000000000000600052604160045260246000fd5b600080fd5b600080fd5b600080fd5b600080fd5b600080fd5b6000601f19601f8301169050919050565b60008160601b9050919050565b7f537472696e67733a20686578206c656e67746820696e73756666696369656e74600082015250565b7f4f776e61626c653a206e6577206f776e657220697320746865207a65726f206160008201527f6464726573730000000000000000000000000000000000000000000000000000602082015250565b7f43616e6e6f74207374616b652030000000000000000000000000000000000000600082015250565b7f496e697469616c697a61626c653a20636f6e747261637420697320616c72656160008201527f647920696e697469616c697a6564000000000000000000000000000000000000602082015250565b7f4f776e61626c653a2063616c6c6572206973206e6f7420746865206f776e6572600082015250565b7f416363657373436f6e74726f6c3a206163636f756e7420000000000000000000600082015250565b7f206973206d697373696e6720726f6c6520000000000000000000000000000000600082015250565b7f416363657373436f6e74726f6c3a2063616e206f6e6c792072656e6f756e636560008201527f20726f6c657320666f722073656c660000000000000000000000000000000000602082015250565b6200487f816200438f565b81146200488b57600080fd5b50565b6200489981620043a3565b8114620048a557600080fd5b50565b620048b381620043af565b8114620048bf57600080fd5b50565b620048cd81620043b9565b8114620048d957600080fd5b50565b620048e78162004405565b8114620048f357600080fd5b5056fe608060405234801561001057600080fd5b5061002d61002261003260201b60201c565b61003a60201b60201c565b6100fe565b600033905090565b60008060009054906101000a900473ffffffffffffffffffffffffffffffffffffffff169050816000806101000a81548173ffffffffffffffffffffffffffffffffffffffff021916908373ffffffffffffffffffffffffffffffffffffffff1602179055508173ffffffffffffffffffffffffffffffffffffffff168173ffffffffffffffffffffffffffffffffffffffff167f8be0079c531659141344cd1fd0a4f28419497f9722a3daafe3b4186f6b6457e060405160405180910390a35050565b610e568061010d6000396000f3fe608060405234801561001057600080fd5b50600436106100885760003560e01c80638da5cb5b1161005b5780638da5cb5b146101275780639b19251a14610145578063e2ec6ec314610175578063f2fde38b146101a557610088565b806324953eaa1461008d578063286dd3f5146100bd578063715018a6146100ed5780637b9417c8146100f7575b600080fd5b6100a760048036038101906100a29190610a0e565b6101c1565b6040516100b49190610ad6565b60405180910390f35b6100d760048036038101906100d291906109e1565b6102ab565b6040516100e49190610ad6565b60405180910390f35b6100f561042e565b005b610111600480360381019061010c91906109e1565b6104b6565b60405161011e9190610ad6565b60405180910390f35b61012f610637565b60405161013c9190610abb565b60405180910390f35b61015f600480360381019061015a91906109e1565b610660565b60405161016c9190610ad6565b60405180910390f35b61018f600480360381019061018a9190610a0e565b610680565b60405161019c9190610ad6565b60405180910390f35b6101bf60048036038101906101ba91906109e1565b61076a565b005b60006101cb610862565b73ffffffffffffffffffffffffffffffffffffffff166101e9610637565b73ffffffffffffffffffffffffffffffffffffffff161461023f576040517f08c379a000000000000000000000000000000000000000000000000000000000815260040161023690610b11565b60405180910390fd5b60005b82518110156102a55761026e83828151811061026157610260610d0e565b5b60200260200101516102ab565b15610292576001600260008282546102869190610be9565b92505081905550600191505b808061029d90610c96565b915050610242565b50919050565b60006102b5610862565b73ffffffffffffffffffffffffffffffffffffffff166102d3610637565b73ffffffffffffffffffffffffffffffffffffffff1614610329576040517f08c379a000000000000000000000000000000000000000000000000000000000815260040161032090610b11565b60405180910390fd5b600160008373ffffffffffffffffffffffffffffffffffffffff1673ffffffffffffffffffffffffffffffffffffffff16815260200190815260200160002060009054906101000a900460ff1615610429576000600160008473ffffffffffffffffffffffffffffffffffffffff1673ffffffffffffffffffffffffffffffffffffffff16815260200190815260200160002060006101000a81548160ff0219169083151502179055507ff1abf01a1043b7c244d128e8595cf0c1d10743b022b03a02dffd8ca3bf729f5a826040516104029190610abb565b60405180910390a160016002600082825461041d9190610be9565b92505081905550600190505b919050565b610436610862565b73ffffffffffffffffffffffffffffffffffffffff16610454610637565b73ffffffffffffffffffffffffffffffffffffffff16146104aa576040517f08c379a00000000000000000000000000000000000000000000000000000000081526004016104a190610b11565b60405180910390fd5b6104b4600061086a565b565b60006104c0610862565b73ffffffffffffffffffffffffffffffffffffffff166104de610637565b73ffffffffffffffffffffffffffffffffffffffff1614610534576040517f08c379a000000000000000000000000000000000000000000000000000000000815260040161052b90610b11565b60405180910390fd5b600160008373ffffffffffffffffffffffffffffffffffffffff1673ffffffffffffffffffffffffffffffffffffffff16815260200190815260200160002060009054906101000a900460ff166106325760018060008473ffffffffffffffffffffffffffffffffffffffff1673ffffffffffffffffffffffffffffffffffffffff16815260200190815260200160002060006101000a81548160ff0219169083151502179055507fd1bba68c128cc3f427e5831b3c6f99f480b6efa6b9e80c757768f6124158cc3f8260405161060b9190610abb565b60405180910390a16001600260008282546106269190610b93565b92505081905550600190505b919050565b60008060009054906101000a900473ffffffffffffffffffffffffffffffffffffffff16905090565b60016020528060005260406000206000915054906101000a900460ff1681565b600061068a610862565b73ffffffffffffffffffffffffffffffffffffffff166106a8610637565b73ffffffffffffffffffffffffffffffffffffffff16146106fe576040517f08c379a00000000000000000000000000000000000000000000000000000000081526004016106f590610b11565b60405180910390fd5b60005b82518110156107645761072d8382815181106107205761071f610d0e565b5b60200260200101516104b6565b15610751576001600260008282546107459190610b93565b92505081905550600191505b808061075c90610c96565b915050610701565b50919050565b610772610862565b73ffffffffffffffffffffffffffffffffffffffff16610790610637565b73ffffffffffffffffffffffffffffffffffffffff16146107e6576040517f08c379a00000000000000000000000000000000000000000000000000000000081526004016107dd90610b11565b60405180910390fd5b600073ffffffffffffffffffffffffffffffffffffffff168173ffffffffffffffffffffffffffffffffffffffff161415610856576040517f08c379a000000000000000000000000000000000000000000000000000000000815260040161084d90610af1565b60405180910390fd5b61085f8161086a565b50565b600033905090565b60008060009054906101000a900473ffffffffffffffffffffffffffffffffffffffff169050816000806101000a81548173ffffffffffffffffffffffffffffffffffffffff021916908373ffffffffffffffffffffffffffffffffffffffff1602179055508173ffffffffffffffffffffffffffffffffffffffff168173ffffffffffffffffffffffffffffffffffffffff167f8be0079c531659141344cd1fd0a4f28419497f9722a3daafe3b4186f6b6457e060405160405180910390a35050565b600061094161093c84610b56565b610b31565b9050808382526020820190508285602086028201111561096457610963610d71565b5b60005b85811015610994578161097a888261099e565b845260208401935060208301925050600181019050610967565b5050509392505050565b6000813590506109ad81610e09565b92915050565b600082601f8301126109c8576109c7610d6c565b5b81356109d884826020860161092e565b91505092915050565b6000602082840312156109f7576109f6610d7b565b5b6000610a058482850161099e565b91505092915050565b600060208284031215610a2457610a23610d7b565b5b600082013567ffffffffffffffff811115610a4257610a41610d76565b5b610a4e848285016109b3565b91505092915050565b610a6081610c1d565b82525050565b610a6f81610c2f565b82525050565b6000610a82602683610b82565b9150610a8d82610d91565b604082019050919050565b6000610aa5602083610b82565b9150610ab082610de0565b602082019050919050565b6000602082019050610ad06000830184610a57565b92915050565b6000602082019050610aeb6000830184610a66565b92915050565b60006020820190508181036000830152610b0a81610a75565b9050919050565b60006020820190508181036000830152610b2a81610a98565b9050919050565b6000610b3b610b4c565b9050610b478282610c65565b919050565b6000604051905090565b600067ffffffffffffffff821115610b7157610b70610d3d565b5b602082029050602081019050919050565b600082825260208201905092915050565b6000610b9e82610c5b565b9150610ba983610c5b565b9250827fffffffffffffffffffffffffffffffffffffffffffffffffffffffffffffffff03821115610bde57610bdd610cdf565b5b828201905092915050565b6000610bf482610c5b565b9150610bff83610c5b565b925082821015610c1257610c11610cdf565b5b828203905092915050565b6000610c2882610c3b565b9050919050565b60008115159050919050565b600073ffffffffffffffffffffffffffffffffffffffff82169050919050565b6000819050919050565b610c6e82610d80565b810181811067ffffffffffffffff82111715610c8d57610c8c610d3d565b5b80604052505050565b6000610ca182610c5b565b91507fffffffffffffffffffffffffffffffffffffffffffffffffffffffffffffffff821415610cd457610cd3610cdf565b5b600182019050919050565b7f4e487b7100000000000000000000000000000000000000000000000000000000600052601160045260246000fd5b7f4e487b7100000000000000000000000000000000000000000000000000000000600052603260045260246000fd5b7f4e487b7100000000000000000000000000000000000000000000000000000000600052604160045260246000fd5b600080fd5b600080fd5b600080fd5b600080fd5b6000601f19601f8301169050919050565b7f4f776e61626c653a206e6577206f776e657220697320746865207a65726f206160008201527f6464726573730000000000000000000000000000000000000000000000000000602082015250565b7f4f776e61626c653a2063616c6c6572206973206e6f7420746865206f776e6572600082015250565b610e1281610c1d565b8114610e1d57600080fd5b5056fea2646970667358221220fb1abdaf2591ffa11a42327d975072cdbfaea858fb556a8e7af6f7d0ae7bc51d64736f6c63430008070033746f6f206d616e7920757365727320696e206c656167756520746f20616464206e65772075736572a26469706673582212205b35a7c784bb8658129b8a8a7f46efb0bdf9c8b18ebb6a30890067e159c56e5f64736f6c63430008070033",
  "linkReferences": {},
  "deployedLinkReferences": {}
}