{
  "_format": "hh-sol-artifact-1",
  "contractName": "GameLogic",
  "sourceName": "contracts/GameLogic.sol",
  "abi": [
    {
      "anonymous": false,
      "inputs": [
        {
          "indexed": true,
          "internalType": "address",
          "name": "previousOwner",
          "type": "address"
        },
        {
          "indexed": true,
          "internalType": "address",
          "name": "newOwner",
          "type": "address"
        }
      ],
      "name": "OwnershipTransferred",
      "type": "event"
    },
    {
      "anonymous": false,
      "inputs": [
        {
          "indexed": true,
          "internalType": "bytes32",
          "name": "role",
          "type": "bytes32"
        },
        {
          "indexed": true,
          "internalType": "bytes32",
          "name": "previousAdminRole",
          "type": "bytes32"
        },
        {
          "indexed": true,
          "internalType": "bytes32",
          "name": "newAdminRole",
          "type": "bytes32"
        }
      ],
      "name": "RoleAdminChanged",
      "type": "event"
    },
    {
      "anonymous": false,
      "inputs": [
        {
          "indexed": true,
          "internalType": "bytes32",
          "name": "role",
          "type": "bytes32"
        },
        {
          "indexed": true,
          "internalType": "address",
          "name": "account",
          "type": "address"
        },
        {
          "indexed": true,
          "internalType": "address",
          "name": "sender",
          "type": "address"
        }
      ],
      "name": "RoleGranted",
      "type": "event"
    },
    {
      "anonymous": false,
      "inputs": [
        {
          "indexed": true,
          "internalType": "bytes32",
          "name": "role",
          "type": "bytes32"
        },
        {
          "indexed": true,
          "internalType": "address",
          "name": "account",
          "type": "address"
        },
        {
          "indexed": true,
          "internalType": "address",
          "name": "sender",
          "type": "address"
        }
      ],
      "name": "RoleRevoked",
      "type": "event"
    },
    {
      "anonymous": false,
      "inputs": [
        {
          "indexed": false,
          "internalType": "address",
          "name": "sender",
          "type": "address"
        },
        {
          "indexed": false,
          "internalType": "uint256",
          "name": "amount",
          "type": "uint256"
        }
      ],
      "name": "Staked",
      "type": "event"
    },
    {
      "anonymous": false,
      "inputs": [
        {
          "indexed": false,
          "internalType": "address",
          "name": "addr",
          "type": "address"
        }
      ],
      "name": "WhitelistedAddressAdded",
      "type": "event"
    },
    {
      "anonymous": false,
      "inputs": [
        {
          "indexed": false,
          "internalType": "address",
          "name": "addr",
          "type": "address"
        }
      ],
      "name": "WhitelistedAddressRemoved",
      "type": "event"
    },
    {
      "anonymous": false,
      "inputs": [
        {
          "indexed": false,
          "internalType": "uint256",
          "name": "newVersion",
          "type": "uint256"
        }
      ],
      "name": "versionIncremented",
      "type": "event"
    },
    {
      "inputs": [],
      "name": "DEFAULT_ADMIN_ROLE",
      "outputs": [
        {
          "internalType": "bytes32",
          "name": "",
          "type": "bytes32"
        }
      ],
      "stateMutability": "view",
      "type": "function"
    },
    {
      "inputs": [
        {
          "internalType": "address",
          "name": "addr",
          "type": "address"
        }
      ],
      "name": "addAddressToWhitelist",
      "outputs": [
        {
          "internalType": "bool",
          "name": "success",
          "type": "bool"
        }
      ],
      "stateMutability": "nonpayable",
      "type": "function"
    },
    {
      "inputs": [
        {
          "internalType": "address[]",
          "name": "addrs",
          "type": "address[]"
        }
      ],
      "name": "addAddressesToWhitelist",
      "outputs": [
        {
          "internalType": "bool",
          "name": "success",
          "type": "bool"
        }
      ],
      "stateMutability": "nonpayable",
      "type": "function"
    },
    {
      "inputs": [],
      "name": "addUserToWhitelist",
      "outputs": [],
      "stateMutability": "nonpayable",
      "type": "function"
    },
    {
      "inputs": [
        {
          "internalType": "address",
          "name": "addr1",
          "type": "address"
        },
        {
          "internalType": "address",
          "name": "addr2",
          "type": "address"
        },
        {
          "internalType": "uint256",
          "name": "currentWeekNum",
          "type": "uint256"
        }
      ],
      "name": "evaluateMatch",
      "outputs": [
        {
          "internalType": "address",
          "name": "",
          "type": "address"
        }
      ],
      "stateMutability": "nonpayable",
      "type": "function"
    },
    {
      "inputs": [
        {
          "internalType": "uint256",
          "name": "currentWeekNum",
          "type": "uint256"
        }
      ],
      "name": "evaluateWeek",
      "outputs": [],
      "stateMutability": "nonpayable",
      "type": "function"
    },
    {
      "inputs": [],
      "name": "getLeagueName",
      "outputs": [
        {
          "internalType": "string",
          "name": "",
          "type": "string"
        }
      ],
      "stateMutability": "view",
      "type": "function"
    },
    {
      "inputs": [],
      "name": "getLineup",
      "outputs": [
        {
          "internalType": "uint256[]",
          "name": "",
          "type": "uint256[]"
        }
      ],
      "stateMutability": "view",
      "type": "function"
    },
    {
      "inputs": [
        {
          "internalType": "bytes32",
          "name": "role",
          "type": "bytes32"
        }
      ],
      "name": "getRoleAdmin",
      "outputs": [
        {
          "internalType": "bytes32",
          "name": "",
          "type": "bytes32"
        }
      ],
      "stateMutability": "view",
      "type": "function"
    },
    {
      "inputs": [],
      "name": "getStakeAmount",
      "outputs": [
        {
          "internalType": "uint256",
          "name": "stakeAmount",
          "type": "uint256"
        }
      ],
      "stateMutability": "view",
      "type": "function"
    },
    {
      "inputs": [
        {
          "internalType": "address",
          "name": "_token",
          "type": "address"
        }
      ],
      "name": "getUSDCBalance",
      "outputs": [
        {
          "internalType": "uint256",
          "name": "",
          "type": "uint256"
        }
      ],
      "stateMutability": "view",
      "type": "function"
    },
    {
      "inputs": [],
      "name": "getUserRecord",
      "outputs": [
        {
          "internalType": "uint256[8]",
          "name": "",
          "type": "uint256[8]"
        }
      ],
      "stateMutability": "view",
      "type": "function"
    },
    {
      "inputs": [],
      "name": "getUserTotalWins",
      "outputs": [
        {
          "internalType": "uint256",
          "name": "",
          "type": "uint256"
        }
      ],
      "stateMutability": "view",
      "type": "function"
    },
    {
      "inputs": [],
      "name": "getVersion",
      "outputs": [
        {
          "internalType": "uint256",
          "name": "version",
          "type": "uint256"
        }
      ],
      "stateMutability": "view",
      "type": "function"
    },
    {
      "inputs": [
        {
          "internalType": "bytes32",
          "name": "role",
          "type": "bytes32"
        },
        {
          "internalType": "address",
          "name": "account",
          "type": "address"
        }
      ],
      "name": "grantRole",
      "outputs": [],
      "stateMutability": "nonpayable",
      "type": "function"
    },
    {
      "inputs": [
        {
          "internalType": "bytes32",
          "name": "role",
          "type": "bytes32"
        },
        {
          "internalType": "address",
          "name": "account",
          "type": "address"
        }
      ],
      "name": "hasRole",
      "outputs": [
        {
          "internalType": "bool",
          "name": "",
          "type": "bool"
        }
      ],
      "stateMutability": "view",
      "type": "function"
    },
    {
      "inputs": [],
      "name": "incrementVersion",
      "outputs": [],
      "stateMutability": "nonpayable",
      "type": "function"
    },
    {
      "inputs": [
        {
          "internalType": "string",
          "name": "_name",
          "type": "string"
        },
        {
          "internalType": "uint256",
          "name": "_version",
          "type": "uint256"
        },
        {
          "internalType": "uint256",
          "name": "_stakeAmount",
          "type": "uint256"
        },
        {
          "internalType": "bool",
          "name": "_isPublic",
          "type": "bool"
        },
        {
          "internalType": "address",
          "name": "athletesDataStorageAddress",
          "type": "address"
        },
        {
          "internalType": "address",
          "name": "_admin",
          "type": "address"
        },
        {
          "internalType": "address",
          "name": "_polygonUSDCAddress",
          "type": "address"
        },
        {
          "internalType": "address",
          "name": "_rinkebyUSDCAddress",
          "type": "address"
        },
        {
          "internalType": "address",
          "name": "leagueMakerContractAddress",
          "type": "address"
        }
      ],
      "name": "initialize",
      "outputs": [],
      "stateMutability": "nonpayable",
      "type": "function"
    },
    {
      "inputs": [],
      "name": "isPublic",
      "outputs": [
        {
          "internalType": "bool",
          "name": "",
          "type": "bool"
        }
      ],
      "stateMutability": "view",
      "type": "function"
    },
    {
      "inputs": [],
      "name": "joinLeague",
      "outputs": [],
      "stateMutability": "nonpayable",
      "type": "function"
    },
    {
      "inputs": [
        {
          "internalType": "uint256",
          "name": "",
          "type": "uint256"
        }
      ],
      "name": "leagueMembers",
      "outputs": [
        {
          "internalType": "address",
          "name": "",
          "type": "address"
        }
      ],
      "stateMutability": "view",
      "type": "function"
    },
    {
      "inputs": [],
      "name": "leagueName",
      "outputs": [
        {
          "internalType": "string",
          "name": "",
          "type": "string"
        }
      ],
      "stateMutability": "view",
      "type": "function"
    },
    {
      "inputs": [],
      "name": "lockLineup",
      "outputs": [],
      "stateMutability": "nonpayable",
      "type": "function"
    },
    {
      "inputs": [],
      "name": "owner",
      "outputs": [
        {
          "internalType": "address",
          "name": "",
          "type": "address"
        }
      ],
      "stateMutability": "view",
      "type": "function"
    },
    {
      "inputs": [],
      "name": "polygonUSDCAddress",
      "outputs": [
        {
          "internalType": "address",
          "name": "",
          "type": "address"
        }
      ],
      "stateMutability": "view",
      "type": "function"
    },
    {
      "inputs": [
        {
          "internalType": "address",
          "name": "addr",
          "type": "address"
        }
      ],
      "name": "removeAddressFromWhitelist",
      "outputs": [
        {
          "internalType": "bool",
          "name": "success",
          "type": "bool"
        }
      ],
      "stateMutability": "nonpayable",
      "type": "function"
    },
    {
      "inputs": [
        {
          "internalType": "address[]",
          "name": "addrs",
          "type": "address[]"
        }
      ],
      "name": "removeAddressesFromWhitelist",
      "outputs": [
        {
          "internalType": "bool",
          "name": "success",
          "type": "bool"
        }
      ],
      "stateMutability": "nonpayable",
      "type": "function"
    },
    {
      "inputs": [],
      "name": "removeFromLeague",
      "outputs": [],
      "stateMutability": "nonpayable",
      "type": "function"
    },
    {
      "inputs": [],
      "name": "renounceOwnership",
      "outputs": [],
      "stateMutability": "nonpayable",
      "type": "function"
    },
    {
      "inputs": [
        {
          "internalType": "bytes32",
          "name": "role",
          "type": "bytes32"
        },
        {
          "internalType": "address",
          "name": "account",
          "type": "address"
        }
      ],
      "name": "renounceRole",
      "outputs": [],
      "stateMutability": "nonpayable",
      "type": "function"
    },
    {
      "inputs": [
        {
          "internalType": "bytes32",
          "name": "role",
          "type": "bytes32"
        },
        {
          "internalType": "address",
          "name": "account",
          "type": "address"
        }
      ],
      "name": "revokeRole",
      "outputs": [],
      "stateMutability": "nonpayable",
      "type": "function"
    },
    {
      "inputs": [],
      "name": "rinkebyUSDCAddress",
      "outputs": [
        {
          "internalType": "address",
          "name": "",
          "type": "address"
        }
      ],
      "stateMutability": "view",
      "type": "function"
    },
    {
      "inputs": [],
      "name": "setLeagueEntryIsClosed",
      "outputs": [],
      "stateMutability": "nonpayable",
      "type": "function"
    },
    {
      "inputs": [],
      "name": "setLeagueSchedule",
      "outputs": [],
      "stateMutability": "nonpayable",
      "type": "function"
    },
    {
      "inputs": [
        {
          "internalType": "uint256[]",
          "name": "athleteIds",
          "type": "uint256[]"
        }
      ],
      "name": "setLineup",
      "outputs": [],
      "stateMutability": "nonpayable",
      "type": "function"
    },
    {
      "inputs": [],
      "name": "stakeAmount",
      "outputs": [
        {
          "internalType": "uint256",
          "name": "",
          "type": "uint256"
        }
      ],
      "stateMutability": "view",
      "type": "function"
    },
    {
      "inputs": [
        {
          "internalType": "bytes4",
          "name": "interfaceId",
          "type": "bytes4"
        }
      ],
      "name": "supportsInterface",
      "outputs": [
        {
          "internalType": "bool",
          "name": "",
          "type": "bool"
        }
      ],
      "stateMutability": "view",
      "type": "function"
    },
    {
      "inputs": [
        {
          "internalType": "address",
          "name": "newOwner",
          "type": "address"
        }
      ],
      "name": "transferOwnership",
      "outputs": [],
      "stateMutability": "nonpayable",
      "type": "function"
    },
    {
      "inputs": [],
      "name": "unlockLineup",
      "outputs": [],
      "stateMutability": "nonpayable",
      "type": "function"
    },
    {
      "inputs": [],
      "name": "version",
      "outputs": [
        {
          "internalType": "uint256",
          "name": "",
          "type": "uint256"
        }
      ],
      "stateMutability": "view",
      "type": "function"
    },
    {
      "inputs": [
        {
          "internalType": "address",
          "name": "",
          "type": "address"
        }
      ],
      "name": "whitelist",
      "outputs": [
        {
          "internalType": "bool",
          "name": "",
          "type": "bool"
        }
      ],
      "stateMutability": "view",
      "type": "function"
    }
  ],
  "bytecode": "0x60806040523480156200001157600080fd5b5062000032620000266200003860201b60201c565b6200004060201b60201c565b62000105565b600033905090565b60008060029054906101000a900473ffffffffffffffffffffffffffffffffffffffff16905081600060026101000a81548173ffffffffffffffffffffffffffffffffffffffff021916908373ffffffffffffffffffffffffffffffffffffffff1602179055508173ffffffffffffffffffffffffffffffffffffffff168173ffffffffffffffffffffffffffffffffffffffff167f8be0079c531659141344cd1fd0a4f28419497f9722a3daafe3b4186f6b6457e060405160405180910390a35050565b615f0480620001156000396000f3fe60806040523480156200001157600080fd5b50600436106200028b5760003560e01c80637b9417c81162000165578063c8be3b5b11620000d5578063e2ec6ec31162000093578063e2ec6ec31462000744578063e4c9066b146200077a578063e6bab8ad1462000786578063f2fde38b14620007a8578063f612121a14620007c8578063f881604514620007e8576200028b565b8063c8be3b5b14620006b4578063c99fea9414620006c0578063cb6f545e14620006cc578063d547741f1462000702578063dc9a15351462000722576200028b565b80639b19251a11620001235780639b19251a146200060e5780639f2d54811462000644578063a217fddf1462000664578063a2bc091a1462000686578063ada3a28d1462000692576200028b565b80637b9417c8146200053c578063841abf6e14620005725780638da5cb5b146200059457806391d1485414620005b657806393f3706c14620005ec576200028b565b80632cf0a1fc116200020157806360c7dc4711620001bf57806360c7dc4714620004aa5780636802471714620004cc578063715018a61462000502578063722580b6146200050e5780637ac6aa1d1462000530576200028b565b80632cf0a1fc146200041a5780632f2ff15d146200042657806336568abe1462000446578063403570c5146200046657806354fd4d501462000488576200028b565b806311c253f5116200024f57806311c253f51462000336578063248a9ca3146200034257806324953eaa1462000378578063267175db14620003ae578063286dd3f514620003e4576200028b565b8062b2476f146200029057806301ffc9a714620002b25780630655465a14620002e85780630bdcd5f014620002f45780630d8e6e2c1462000314575b600080fd5b6200029a6200080a565b604051620002a99190620044c8565b60405180910390f35b620002d06004803603810190620002ca919062003ea0565b62000830565b604051620002df919062004591565b60405180910390f35b620002f2620008ad565b005b6200031260048036038101906200030c919062003ed2565b620010e1565b005b6200031e6200146c565b6040516200032d9190620046ff565b60405180910390f35b6200034062001471565b005b6200036060048036038101906200035a919062003e27565b620014e2565b6040516200036f9190620045ae565b60405180910390f35b62000396600480360381019062000390919062003d02565b62001502565b604051620003a5919062004591565b60405180910390f35b620003cc6004803603810190620003c6919062003fd5565b620015ff565b604051620003db9190620044c8565b60405180910390f35b620004026004803603810190620003fc919062003c74565b6200163f565b60405162000411919062004591565b60405180910390f35b62000424620017ce565b005b6200044460048036038101906200043e919062003e59565b62001822565b005b6200046460048036038101906200045e919062003e59565b62001853565b005b62000470620018dd565b6040516200047f9190620045cb565b60405180910390f35b6200049262001977565b604051620004a19190620046ff565b60405180910390f35b620004b46200197d565b604051620004c39190620046ff565b60405180910390f35b620004ea6004803603810190620004e4919062003c74565b62001983565b604051620004f99190620046ff565b60405180910390f35b6200050c62001a1b565b005b6200051862001aac565b604051620005279190620046ff565b60405180910390f35b6200053a62001ab1565b005b6200055a600480360381019062000554919062003c74565b62001b24565b60405162000569919062004591565b60405180910390f35b6200057c62001cb2565b6040516200058b9190620045cb565b60405180910390f35b6200059e62001d48565b604051620005ad9190620044c8565b60405180910390f35b620005d46004803603810190620005ce919062003e59565b62001d71565b604051620005e3919062004591565b60405180910390f35b620005f662001ddc565b604051620006059190620044c8565b60405180910390f35b6200062c600480360381019062000626919062003c74565b62001e02565b6040516200063b919062004591565b60405180910390f35b6200066260048036038101906200065c919062003fd5565b62001e22565b005b6200066e62001fcf565b6040516200067d9190620045ae565b60405180910390f35b6200069062001fd6565b005b6200069c62002076565b604051620006ab91906200456d565b60405180910390f35b620006be6200210d565b005b620006ca620021ad565b005b620006ea6004803603810190620006e4919062003ca6565b62002304565b604051620006f99190620044c8565b60405180910390f35b6200072060048036038101906200071a919062003e59565b620028af565b005b6200072c620028e0565b6040516200073b919062004591565b60405180910390f35b6200076260048036038101906200075c919062003d02565b620028f3565b60405162000771919062004591565b60405180910390f35b62000784620029f0565b005b6200079062002a90565b6040516200079f9190620046ff565b60405180910390f35b620007c66004803603810190620007c0919062003c74565b62002bce565b005b620007e66004803603810190620007e0919062003d53565b62002cd2565b005b620007f262002d7e565b6040516200080191906200454f565b60405180910390f35b600e60009054906101000a900473ffffffffffffffffffffffffffffffffffffffff1681565b60007f7965db0b000000000000000000000000000000000000000000000000000000007bffffffffffffffffffffffffffffffffffffffffffffffffffffffff1916827bffffffffffffffffffffffffffffffffffffffffffffffffffffffff19161480620008a65750620008a58262002e0a565b5b9050919050565b620008ed6040518060400160405280601081526020017f73657474696e67207363686564756c650000000000000000000000000000000081525062002e74565b6000600780549050600780549050620009079190620048da565b423344600660405160200162000921949392919062004476565b6040516020818303038152906040528051906020012060001c62000946919062004845565b90506200095262003771565b6200095c62003771565b60005b6008811015620010db57620009a96040518060400160405280600181526020017f0a0000000000000000000000000000000000000000000000000000000000000081525062002e74565b620009b48162002f11565b620009f46040518060400160405280601881526020017f2a2a2a2a2a2a2a2a2a2a2a2a2a2a2a2a2a2a2a2a2a2a2a2a000000000000000081525062002e74565b600080600260078054905062000a0b919062004b47565b1462000a2e57600160078054905062000a25919062004845565b90508062000a38565b6007805490509050805b5060008360006004811062000a525762000a5162004c0c565b5b6020020151905060005b60028362000a6b9190620048a2565b81101562000be857600084141562000b2e57808660028562000a8e9190620048a2565b898462000a9c919062004845565b62000aa8919062004b47565b6004811062000abc5762000abb62004c0c565b5b60200201818152505060028362000ad49190620048a2565b8162000ae1919062004845565b8560028562000af19190620048a2565b898462000aff919062004845565b62000b0b919062004b47565b6004811062000b1f5762000b1e62004c0c565b5b60200201818152505062000bd2565b600086826004811062000b465762000b4562004c0c565b5b602002015190508086836004811062000b645762000b6362004c0c565b5b6020020181815250508560028562000b7d9190620048a2565b60018462000b8c919062004845565b62000b98919062004b47565b6004811062000bac5762000bab62004c0c565b5b602002015187836004811062000bc75762000bc662004c0c565b5b602002018181525050505b808062000bdf9062004ac7565b91505062000a5c565b506000831462000c2f578085600160028562000c059190620048a2565b62000c1191906200493b565b6004811062000c255762000c2462004c0c565b5b6020020181815250505b60005b60028362000c419190620048a2565b811015620010c25762000c5362003793565b60078054905086836004811062000c6f5762000c6e62004c0c565b5b60200201511062000d4b576040518060400160405280600789856004811062000c9d5762000c9c62004c0c565b5b60200201518154811062000cb65762000cb562004c0c565b5b9060005260206000200160009054906101000a900473ffffffffffffffffffffffffffffffffffffffff1673ffffffffffffffffffffffffffffffffffffffff1673ffffffffffffffffffffffffffffffffffffffff168152602001600073ffffffffffffffffffffffffffffffffffffffff1673ffffffffffffffffffffffffffffffffffffffff16815250905062000f6a565b60078054905087836004811062000d675762000d6662004c0c565b5b60200201511062000e43576040518060400160405280600073ffffffffffffffffffffffffffffffffffffffff1673ffffffffffffffffffffffffffffffffffffffff168152602001600788856004811062000dc85762000dc762004c0c565b5b60200201518154811062000de15762000de062004c0c565b5b9060005260206000200160009054906101000a900473ffffffffffffffffffffffffffffffffffffffff1673ffffffffffffffffffffffffffffffffffffffff1673ffffffffffffffffffffffffffffffffffffffff16815250905062000f69565b6040518060400160405280600789856004811062000e665762000e6562004c0c565b5b60200201518154811062000e7f5762000e7e62004c0c565b5b9060005260206000200160009054906101000a900473ffffffffffffffffffffffffffffffffffffffff1673ffffffffffffffffffffffffffffffffffffffff1673ffffffffffffffffffffffffffffffffffffffff168152602001600788856004811062000ef35762000ef262004c0c565b5b60200201518154811062000f0c5762000f0b62004c0c565b5b9060005260206000200160009054906101000a900473ffffffffffffffffffffffffffffffffffffffff1673ffffffffffffffffffffffffffffffffffffffff1673ffffffffffffffffffffffffffffffffffffffff1681525090505b5b60006040518060200160405280838152509050600c600087815260200190815260200160002081908060018154018082558091505060019003906000526020600020906002020160009091909190915060008201518160000190600262000fd3929190620037b5565b50505062001000816000015160006002811062000ff55762000ff462004c0c565b5b602002015162002fae565b620010406040518060400160405280600481526020017f207673200000000000000000000000000000000000000000000000000000000081525062002e74565b6200106a81600001516001600281106200105f576200105e62004c0c565b5b602002015162002fae565b620010aa6040518060400160405280600181526020017f0a0000000000000000000000000000000000000000000000000000000000000081525062002e74565b50508080620010b99062004ac7565b91505062000c32565b5050508080620010d29062004ac7565b9150506200095f565b50505050565b600060019054906101000a900460ff166200110b5760008054906101000a900460ff161562001116565b620011156200304b565b5b62001158576040517f08c379a00000000000000000000000000000000000000000000000000000000081526004016200114f9062004677565b60405180910390fd5b60008060019054906101000a900460ff161590508015620011a9576001600060016101000a81548160ff02191690831515021790555060016000806101000a81548160ff0219169083151502179055505b886005819055508a8a60069190620011c392919062003837565b5087600b8190555086600460006101000a81548160ff0219169083151502179055506000600960016101000a81548160ff0219169083151502179055506000600960006101000a81548160ff02191690831515021790555085600f60006101000a81548173ffffffffffffffffffffffffffffffffffffffff021916908373ffffffffffffffffffffffffffffffffffffffff16021790555081601160006101000a81548173ffffffffffffffffffffffffffffffffffffffff021916908373ffffffffffffffffffffffffffffffffffffffff160217905550620012ac6000801b866200305e565b83600d60006101000a81548173ffffffffffffffffffffffffffffffffffffffff021916908373ffffffffffffffffffffffffffffffffffffffff16021790555082600e60006101000a81548173ffffffffffffffffffffffffffffffffffffffff021916908373ffffffffffffffffffffffffffffffffffffffff1602179055506007859080600181540180825580915050600190039060005260206000200160009091909190916101000a81548173ffffffffffffffffffffffffffffffffffffffff021916908373ffffffffffffffffffffffffffffffffffffffff1602179055506040516200139f90620038c8565b604051809103906000f080158015620013bc573d6000803e3d6000fd5b50601060006101000a81548173ffffffffffffffffffffffffffffffffffffffff021916908373ffffffffffffffffffffffffffffffffffffffff1602179055506200143d6040518060400160405280601281526020017f50726f787920696e697469616c697a656421000000000000000000000000000081525062002e74565b80156200145f5760008060016101000a81548160ff0219169083151502179055505b5050505050505050505050565b600090565b600260003373ffffffffffffffffffffffffffffffffffffffff1673ffffffffffffffffffffffffffffffffffffffff16815260200190815260200160002060009054906101000a900460ff1680620014d65750600460009054906101000a900460ff165b620014e057600080fd5b565b600060016000838152602001908152602001600020600101549050919050565b60006200150e6200306e565b73ffffffffffffffffffffffffffffffffffffffff166200152e62001d48565b73ffffffffffffffffffffffffffffffffffffffff161462001587576040517f08c379a00000000000000000000000000000000000000000000000000000000081526004016200157e9062004699565b60405180910390fd5b60005b8251811015620015f957620015bc838281518110620015ae57620015ad62004c0c565b5b60200260200101516200163f565b15620015e357600160036000828254620015d791906200493b565b92505081905550600191505b8080620015f09062004ac7565b9150506200158a565b50919050565b600781815481106200161057600080fd5b906000526020600020016000915054906101000a900473ffffffffffffffffffffffffffffffffffffffff1681565b60006200164b6200306e565b73ffffffffffffffffffffffffffffffffffffffff166200166b62001d48565b73ffffffffffffffffffffffffffffffffffffffff1614620016c4576040517f08c379a0000000000000000000000000000000000000000000000000000000008152600401620016bb9062004699565b60405180910390fd5b600260008373ffffffffffffffffffffffffffffffffffffffff1673ffffffffffffffffffffffffffffffffffffffff16815260200190815260200160002060009054906101000a900460ff1615620017c9576000600260008473ffffffffffffffffffffffffffffffffffffffff1673ffffffffffffffffffffffffffffffffffffffff16815260200190815260200160002060006101000a81548160ff0219169083151502179055507ff1abf01a1043b7c244d128e8595cf0c1d10743b022b03a02dffd8ca3bf729f5a82604051620017a09190620044c8565b60405180910390a1600160036000828254620017bd91906200493b565b92505081905550600190505b919050565b6001600554620017df919062004845565b6005819055507f2f23a8b1c76a44af619c48a5ae5637ab2bc86bc815c717b98d4f336ce1c44ba2600554604051620018189190620046ff565b60405180910390a1565b6200182d82620014e2565b62001842816200183c6200306e565b62003076565b6200184e83836200311e565b505050565b6200185d6200306e565b73ffffffffffffffffffffffffffffffffffffffff168173ffffffffffffffffffffffffffffffffffffffff1614620018cd576040517f08c379a0000000000000000000000000000000000000000000000000000000008152600401620018c490620046dd565b60405180910390fd5b620018d9828262003203565b5050565b606060068054620018ee9062004a5b565b80601f01602080910402602001604051908101604052809291908181526020018280546200191c9062004a5b565b80156200196d5780601f1062001941576101008083540402835291602001916200196d565b820191906000526020600020905b8154815290600101906020018083116200194f57829003601f168201915b5050505050905090565b60055481565b600b5481565b60008173ffffffffffffffffffffffffffffffffffffffff166370a08231306040518263ffffffff1660e01b8152600401620019c09190620044c8565b60206040518083038186803b158015620019d957600080fd5b505afa158015620019ee573d6000803e3d6000fd5b505050506040513d601f19601f8201168201806040525081019062001a14919062004007565b9050919050565b62001a256200306e565b73ffffffffffffffffffffffffffffffffffffffff1662001a4562001d48565b73ffffffffffffffffffffffffffffffffffffffff161462001a9e576040517f08c379a000000000000000000000000000000000000000000000000000000000815260040162001a959062004699565b60405180910390fd5b62001aaa6000620032ea565b565b600090565b62001ac06000801b3362001d71565b62001aca57600080fd5b6001600260003373ffffffffffffffffffffffffffffffffffffffff1673ffffffffffffffffffffffffffffffffffffffff16815260200190815260200160002060006101000a81548160ff021916908315150217905550565b600062001b306200306e565b73ffffffffffffffffffffffffffffffffffffffff1662001b5062001d48565b73ffffffffffffffffffffffffffffffffffffffff161462001ba9576040517f08c379a000000000000000000000000000000000000000000000000000000000815260040162001ba09062004699565b60405180910390fd5b600260008373ffffffffffffffffffffffffffffffffffffffff1673ffffffffffffffffffffffffffffffffffffffff16815260200190815260200160002060009054906101000a900460ff1662001cad576001600260008473ffffffffffffffffffffffffffffffffffffffff1673ffffffffffffffffffffffffffffffffffffffff16815260200190815260200160002060006101000a81548160ff0219169083151502179055507fd1bba68c128cc3f427e5831b3c6f99f480b6efa6b9e80c757768f6124158cc3f8260405162001c849190620044c8565b60405180910390a160016003600082825462001ca1919062004845565b92505081905550600190505b919050565b6006805462001cc19062004a5b565b80601f016020809104026020016040519081016040528092919081815260200182805462001cef9062004a5b565b801562001d405780601f1062001d145761010080835404028352916020019162001d40565b820191906000526020600020905b81548152906001019060200180831162001d2257829003601f168201915b505050505081565b60008060029054906101000a900473ffffffffffffffffffffffffffffffffffffffff16905090565b60006001600084815260200190815260200160002060000160008373ffffffffffffffffffffffffffffffffffffffff1673ffffffffffffffffffffffffffffffffffffffff16815260200190815260200160002060009054906101000a900460ff16905092915050565b600d60009054906101000a900473ffffffffffffffffffffffffffffffffffffffff1681565b60026020528060005260406000206000915054906101000a900460ff1681565b62001e2c6200306e565b73ffffffffffffffffffffffffffffffffffffffff1662001e4c62001d48565b73ffffffffffffffffffffffffffffffffffffffff161462001ea5576040517f08c379a000000000000000000000000000000000000000000000000000000000815260040162001e9c9062004699565b60405180910390fd5b60005b600c60008381526020019081526020016000208054905081101562001fcb5762001fb4600c6000848152602001908152602001600020828154811062001ef35762001ef262004c0c565b5b906000526020600020906002020160000160006002811062001f1a5762001f1962004c0c565b5b0160009054906101000a900473ffffffffffffffffffffffffffffffffffffffff16600c6000858152602001908152602001600020838154811062001f645762001f6362004c0c565b5b906000526020600020906002020160000160016002811062001f8b5762001f8a62004c0c565b5b0160009054906101000a900473ffffffffffffffffffffffffffffffffffffffff168462002304565b50808062001fc29062004ac7565b91505062001ea8565b5050565b6000801b81565b62001fe06200306e565b73ffffffffffffffffffffffffffffffffffffffff166200200062001d48565b73ffffffffffffffffffffffffffffffffffffffff161462002059576040517f08c379a0000000000000000000000000000000000000000000000000000000008152600401620020509062004699565b60405180910390fd5b6000600960016101000a81548160ff021916908315150217905550565b6060600a60003373ffffffffffffffffffffffffffffffffffffffff1673ffffffffffffffffffffffffffffffffffffffff1681526020019081526020016000208054806020026020016040519081016040528092919081815260200182805480156200210357602002820191906000526020600020905b815481526020019060010190808311620020ee575b5050505050905090565b620021176200306e565b73ffffffffffffffffffffffffffffffffffffffff166200213762001d48565b73ffffffffffffffffffffffffffffffffffffffff161462002190576040517f08c379a0000000000000000000000000000000000000000000000000000000008152600401620021879062004699565b60405180910390fd5b6001600960016101000a81548160ff021916908315150217905550565b600260003373ffffffffffffffffffffffffffffffffffffffff1673ffffffffffffffffffffffffffffffffffffffff16815260200190815260200160002060009054906101000a900460ff1680620022125750600460009054906101000a900460ff165b6200221c57600080fd5b600960009054906101000a900460ff16156200226f576040517f08c379a00000000000000000000000000000000000000000000000000000000081526004016200226690620046bb565b60405180910390fd5b6007339080600181540180825580915050600190039060005260206000200160009091909190916101000a81548173ffffffffffffffffffffffffffffffffffffffff021916908373ffffffffffffffffffffffffffffffffffffffff16021790555062002302600e60009054906101000a900473ffffffffffffffffffffffffffffffffffffffff16600b54620033af565b565b6000620023106200306e565b73ffffffffffffffffffffffffffffffffffffffff166200233062001d48565b73ffffffffffffffffffffffffffffffffffffffff161462002389576040517f08c379a0000000000000000000000000000000000000000000000000000000008152600401620023809062004699565b60405180910390fd5b6000600a60008673ffffffffffffffffffffffffffffffffffffffff1673ffffffffffffffffffffffffffffffffffffffff1681526020019081526020016000208054806020026020016040519081016040528092919081815260200182805480156200241657602002820191906000526020600020905b81548152602001906001019080831162002401575b505050505090506000600a60008673ffffffffffffffffffffffffffffffffffffffff1673ffffffffffffffffffffffffffffffffffffffff168152602001908152602001600020805480602002602001604051908101604052809291908181526020018280548015620024aa57602002820191906000526020600020905b81548152602001906001019080831162002495575b5050505050905060008060005b84518110156200271d576000600f60009054906101000a900473ffffffffffffffffffffffffffffffffffffffff1673ffffffffffffffffffffffffffffffffffffffff1663d4313da887848151811062002517576200251662004c0c565b5b60200260200101516040518263ffffffff1660e01b81526004016200253d9190620046ff565b60006040518083038186803b1580156200255657600080fd5b505afa1580156200256b573d6000803e3d6000fd5b505050506040513d6000823e3d601f19601f8201168201806040525081019062002596919062003da4565b90506000600f60009054906101000a900473ffffffffffffffffffffffffffffffffffffffff1673ffffffffffffffffffffffffffffffffffffffff1663d4313da8878581518110620025ee57620025ed62004c0c565b5b60200260200101516040518263ffffffff1660e01b8152600401620026149190620046ff565b60006040518083038186803b1580156200262d57600080fd5b505afa15801562002642573d6000803e3d6000fd5b505050506040513d6000823e3d601f19601f820116820180604052508101906200266d919062003da4565b9050600082600184516200268291906200493b565b8151811062002696576200269562004c0c565b5b6020026020010151905060008260018451620026b391906200493b565b81518110620026c757620026c662004c0c565b5b6020026020010151905080821115620026f157600187620026e9919062004845565b965062002703565b60018662002700919062004845565b95505b505050508080620027149062004ac7565b915050620024b7565b5080821115620027ea576001600860008a73ffffffffffffffffffffffffffffffffffffffff1673ffffffffffffffffffffffffffffffffffffffff16815260200190815260200160002087600881106200277d576200277c62004c0c565b5b01819055506000600860008973ffffffffffffffffffffffffffffffffffffffff1673ffffffffffffffffffffffffffffffffffffffff1681526020019081526020016000208760088110620027d857620027d762004c0c565b5b018190555087945050505050620028a8565b6001600860008973ffffffffffffffffffffffffffffffffffffffff1673ffffffffffffffffffffffffffffffffffffffff168152602001908152602001600020876008811062002840576200283f62004c0c565b5b01819055506000600860008a73ffffffffffffffffffffffffffffffffffffffff1673ffffffffffffffffffffffffffffffffffffffff16815260200190815260200160002087600881106200289b576200289a62004c0c565b5b0181905550869450505050505b9392505050565b620028ba82620014e2565b620028cf81620028c96200306e565b62003076565b620028db838362003203565b505050565b600460009054906101000a900460ff1681565b6000620028ff6200306e565b73ffffffffffffffffffffffffffffffffffffffff166200291f62001d48565b73ffffffffffffffffffffffffffffffffffffffff161462002978576040517f08c379a00000000000000000000000000000000000000000000000000000000081526004016200296f9062004699565b60405180910390fd5b60005b8251811015620029ea57620029ad8382815181106200299f576200299e62004c0c565b5b602002602001015162001b24565b15620029d457600160036000828254620029c8919062004845565b92505081905550600191505b8080620029e19062004ac7565b9150506200297b565b50919050565b620029fa6200306e565b73ffffffffffffffffffffffffffffffffffffffff1662002a1a62001d48565b73ffffffffffffffffffffffffffffffffffffffff161462002a73576040517f08c379a000000000000000000000000000000000000000000000000000000000815260040162002a6a9062004699565b60405180910390fd5b6001600960006101000a81548160ff021916908315150217905550565b600080600090506000601160009054906101000a900473ffffffffffffffffffffffffffffffffffffffff1673ffffffffffffffffffffffffffffffffffffffff166306575c896040518163ffffffff1660e01b815260040160206040518083038186803b15801562002b0257600080fd5b505afa15801562002b17573d6000803e3d6000fd5b505050506040513d601f19601f8201168201806040525081019062002b3d919062004007565b905060005b81811162002bc557600860003373ffffffffffffffffffffffffffffffffffffffff1673ffffffffffffffffffffffffffffffffffffffff168152602001908152602001600020816008811062002b9e5762002b9d62004c0c565b5b01548362002bad919062004845565b9250808062002bbc9062004ac7565b91505062002b42565b50819250505090565b62002bd86200306e565b73ffffffffffffffffffffffffffffffffffffffff1662002bf862001d48565b73ffffffffffffffffffffffffffffffffffffffff161462002c51576040517f08c379a000000000000000000000000000000000000000000000000000000000815260040162002c489062004699565b60405180910390fd5b600073ffffffffffffffffffffffffffffffffffffffff168173ffffffffffffffffffffffffffffffffffffffff16141562002cc4576040517f08c379a000000000000000000000000000000000000000000000000000000000815260040162002cbb9062004611565b60405180910390fd5b62002ccf81620032ea565b50565b600960019054906101000a900460ff161562002d25576040517f08c379a000000000000000000000000000000000000000000000000000000000815260040162002d1c9062004655565b60405180910390fd5b80600a60003373ffffffffffffffffffffffffffffffffffffffff1673ffffffffffffffffffffffffffffffffffffffff168152602001908152602001600020908051906020019062002d7a929190620038d6565b5050565b62002d8862003928565b600860003373ffffffffffffffffffffffffffffffffffffffff1673ffffffffffffffffffffffffffffffffffffffff16815260200190815260200160002060088060200260405190810160405280929190826008801562002e00576020028201915b81548152602001906001019080831162002deb575b5050505050905090565b60007f01ffc9a7000000000000000000000000000000000000000000000000000000007bffffffffffffffffffffffffffffffffffffffffffffffffffffffff1916827bffffffffffffffffffffffffffffffffffffffffffffffffffffffff1916149050919050565b62002f0e8160405160240162002e8b9190620045cb565b6040516020818303038152906040527f41304fac000000000000000000000000000000000000000000000000000000007bffffffffffffffffffffffffffffffffffffffffffffffffffffffff19166020820180517bffffffffffffffffffffffffffffffffffffffffffffffffffffffff8381831617835250505050620034ca565b50565b62002fab8160405160240162002f289190620046ff565b6040516020818303038152906040527ff5b1bba9000000000000000000000000000000000000000000000000000000007bffffffffffffffffffffffffffffffffffffffffffffffffffffffff19166020820180517bffffffffffffffffffffffffffffffffffffffffffffffffffffffff8381831617835250505050620034ca565b50565b620030488160405160240162002fc59190620044c8565b6040516020818303038152906040527f2c2ecbc2000000000000000000000000000000000000000000000000000000007bffffffffffffffffffffffffffffffffffffffffffffffffffffffff19166020820180517bffffffffffffffffffffffffffffffffffffffffffffffffffffffff8381831617835250505050620034ca565b50565b60006200305830620034f3565b15905090565b6200306a82826200311e565b5050565b600033905090565b62003082828262001d71565b6200311a57620030aa8173ffffffffffffffffffffffffffffffffffffffff16601462003516565b620030ba8360001c602062003516565b604051602001620030cd92919062004434565b6040516020818303038152906040526040517f08c379a0000000000000000000000000000000000000000000000000000000008152600401620031119190620045cb565b60405180910390fd5b5050565b6200312a828262001d71565b620031ff57600180600084815260200190815260200160002060000160008373ffffffffffffffffffffffffffffffffffffffff1673ffffffffffffffffffffffffffffffffffffffff16815260200190815260200160002060006101000a81548160ff021916908315150217905550620031a46200306e565b73ffffffffffffffffffffffffffffffffffffffff168173ffffffffffffffffffffffffffffffffffffffff16837f2f8788117e7eff1d82e926ec794901d17c78024a50270940304540a733656f0d60405160405180910390a45b5050565b6200320f828262001d71565b15620032e65760006001600084815260200190815260200160002060000160008373ffffffffffffffffffffffffffffffffffffffff1673ffffffffffffffffffffffffffffffffffffffff16815260200190815260200160002060006101000a81548160ff0219169083151502179055506200328b6200306e565b73ffffffffffffffffffffffffffffffffffffffff168173ffffffffffffffffffffffffffffffffffffffff16837ff6391f5c32d9c69d2a47ea670b442974b53935d1edc7fd64eb21e047a839171b60405160405180910390a45b5050565b60008060029054906101000a900473ffffffffffffffffffffffffffffffffffffffff16905081600060026101000a81548173ffffffffffffffffffffffffffffffffffffffff021916908373ffffffffffffffffffffffffffffffffffffffff1602179055508173ffffffffffffffffffffffffffffffffffffffff168173ffffffffffffffffffffffffffffffffffffffff167f8be0079c531659141344cd1fd0a4f28419497f9722a3daafe3b4186f6b6457e060405160405180910390a35050565b60008111620033f5576040517f08c379a0000000000000000000000000000000000000000000000000000000008152600401620033ec9062004633565b60405180910390fd5b8173ffffffffffffffffffffffffffffffffffffffff166323b872dd3330846040518463ffffffff1660e01b81526004016200343493929190620044e5565b602060405180830381600087803b1580156200344f57600080fd5b505af115801562003464573d6000803e3d6000fd5b505050506040513d601f19601f820116820180604052508101906200348a919062003df5565b507f9e71bc8eea02a63969f509818f2dafb9254532904319f9dbda79b67bd34a5f3d3382604051620034be92919062004522565b60405180910390a15050565b60008151905060006a636f6e736f6c652e6c6f679050602083016000808483855afa5050505050565b6000808273ffffffffffffffffffffffffffffffffffffffff163b119050919050565b6060600060028360026200352b9190620048da565b62003537919062004845565b67ffffffffffffffff81111562003553576200355262004c3b565b5b6040519080825280601f01601f191660200182016040528015620035865781602001600182028036833780820191505090505b5090507f300000000000000000000000000000000000000000000000000000000000000081600081518110620035c157620035c062004c0c565b5b60200101907effffffffffffffffffffffffffffffffffffffffffffffffffffffffffffff1916908160001a9053507f78000000000000000000000000000000000000000000000000000000000000008160018151811062003628576200362762004c0c565b5b60200101907effffffffffffffffffffffffffffffffffffffffffffffffffffffffffffff1916908160001a905350600060018460026200366a9190620048da565b62003676919062004845565b90505b600181111562003720577f3031323334353637383961626364656600000000000000000000000000000000600f861660108110620036bc57620036bb62004c0c565b5b1a60f81b828281518110620036d657620036d562004c0c565b5b60200101907effffffffffffffffffffffffffffffffffffffffffffffffffffffffffffff1916908160001a905350600485901c945080620037189062004a2c565b905062003679565b506000841462003767576040517f08c379a00000000000000000000000000000000000000000000000000000000081526004016200375e90620045ef565b60405180910390fd5b8091505092915050565b6040518060800160405280600490602082028036833780820191505090505090565b6040518060400160405280600290602082028036833780820191505090505090565b826002810192821562003824579160200282015b82811115620038235782518260006101000a81548173ffffffffffffffffffffffffffffffffffffffff021916908373ffffffffffffffffffffffffffffffffffffffff16021790555091602001919060010190620037c9565b5b5090506200383391906200394b565b5090565b828054620038459062004a5b565b90600052602060002090601f016020900481019282620038695760008555620038b5565b82601f106200388457803560ff1916838001178555620038b5565b82800160010185558215620038b5579182015b82811115620038b457823582559160200191906001019062003897565b5b509050620038c491906200394b565b5090565b610f9f8062004f3083390190565b82805482825590600052602060002090810192821562003915579160200282015b8281111562003914578251825591602001919060010190620038f7565b5b5090506200392491906200394b565b5090565b604051806101000160405280600890602082028036833780820191505090505090565b5b80821115620039665760008160009055506001016200394c565b5090565b6000620039816200397b8462004745565b6200471c565b90508083825260208201905082856020860282011115620039a757620039a662004c74565b5b60005b85811015620039db5781620039c0888262003adb565b845260208401935060208301925050600181019050620039aa565b5050509392505050565b6000620039fc620039f68462004774565b6200471c565b9050808382526020820190508285602086028201111562003a225762003a2162004c74565b5b60005b8581101562003a56578162003a3b888262003c46565b84526020840193506020830192505060018101905062003a25565b5050509392505050565b600062003a7762003a718462004774565b6200471c565b9050808382526020820190508285602086028201111562003a9d5762003a9c62004c74565b5b60005b8581101562003ad1578162003ab6888262003c5d565b84526020840193506020830192505060018101905062003aa0565b5050509392505050565b60008135905062003aec8162004ead565b92915050565b600082601f83011262003b0a5762003b0962004c6f565b5b813562003b1c8482602086016200396a565b91505092915050565b600082601f83011262003b3d5762003b3c62004c6f565b5b813562003b4f848260208601620039e5565b91505092915050565b600082601f83011262003b705762003b6f62004c6f565b5b815162003b8284826020860162003a60565b91505092915050565b60008135905062003b9c8162004ec7565b92915050565b60008151905062003bb38162004ec7565b92915050565b60008135905062003bca8162004ee1565b92915050565b60008135905062003be18162004efb565b92915050565b60008083601f84011262003c005762003bff62004c6f565b5b8235905067ffffffffffffffff81111562003c205762003c1f62004c6a565b5b60208301915083600182028301111562003c3f5762003c3e62004c74565b5b9250929050565b60008135905062003c578162004f15565b92915050565b60008151905062003c6e8162004f15565b92915050565b60006020828403121562003c8d5762003c8c62004c7e565b5b600062003c9d8482850162003adb565b91505092915050565b60008060006060848603121562003cc25762003cc162004c7e565b5b600062003cd28682870162003adb565b935050602062003ce58682870162003adb565b925050604062003cf88682870162003c46565b9150509250925092565b60006020828403121562003d1b5762003d1a62004c7e565b5b600082013567ffffffffffffffff81111562003d3c5762003d3b62004c79565b5b62003d4a8482850162003af2565b91505092915050565b60006020828403121562003d6c5762003d6b62004c7e565b5b600082013567ffffffffffffffff81111562003d8d5762003d8c62004c79565b5b62003d9b8482850162003b25565b91505092915050565b60006020828403121562003dbd5762003dbc62004c7e565b5b600082015167ffffffffffffffff81111562003dde5762003ddd62004c79565b5b62003dec8482850162003b58565b91505092915050565b60006020828403121562003e0e5762003e0d62004c7e565b5b600062003e1e8482850162003ba2565b91505092915050565b60006020828403121562003e405762003e3f62004c7e565b5b600062003e508482850162003bb9565b91505092915050565b6000806040838503121562003e735762003e7262004c7e565b5b600062003e838582860162003bb9565b925050602062003e968582860162003adb565b9150509250929050565b60006020828403121562003eb95762003eb862004c7e565b5b600062003ec98482850162003bd0565b91505092915050565b6000806000806000806000806000806101208b8d03121562003ef95762003ef862004c7e565b5b60008b013567ffffffffffffffff81111562003f1a5762003f1962004c79565b5b62003f288d828e0162003be7565b9a509a5050602062003f3d8d828e0162003c46565b985050604062003f508d828e0162003c46565b975050606062003f638d828e0162003b8b565b965050608062003f768d828e0162003adb565b95505060a062003f898d828e0162003adb565b94505060c062003f9c8d828e0162003adb565b93505060e062003faf8d828e0162003adb565b92505061010062003fc38d828e0162003adb565b9150509295989b9194979a5092959850565b60006020828403121562003fee5762003fed62004c7e565b5b600062003ffe8482850162003c46565b91505092915050565b60006020828403121562004020576200401f62004c7e565b5b6000620040308482850162003c5d565b91505092915050565b6000620040478383620043f7565b60208301905092915050565b6200405e8162004976565b82525050565b62004079620040738262004976565b62004b15565b82525050565b6200408a81620047d2565b6200409681846200480d565b9250620040a382620047a3565b8060005b83811015620040da578151620040be878262004039565b9650620040cb83620047f3565b925050600181019050620040a7565b505050505050565b6000620040ef82620047dd565b620040fb818562004818565b93506200410883620047ad565b8060005b838110156200413f57815162004123888262004039565b9750620041308362004800565b9250506001810190506200410c565b5085935050505092915050565b62004157816200498a565b82525050565b620041688162004996565b82525050565b60006200417b82620047e8565b62004187818562004829565b935062004199818560208601620049f6565b620041a48162004c83565b840191505092915050565b6000620041bc82620047e8565b620041c881856200483a565b9350620041da818560208601620049f6565b80840191505092915050565b60008154620041f58162004a5b565b6200420181866200483a565b945060018216600081146200421f5760018114620042315762004268565b60ff1983168652818601935062004268565b6200423c85620047bd565b60005b8381101562004260578154818901526001820191506020810190506200423f565b838801955050505b50505092915050565b60006200428060208362004829565b91506200428d8262004ca1565b602082019050919050565b6000620042a760268362004829565b9150620042b48262004cca565b604082019050919050565b6000620042ce600e8362004829565b9150620042db8262004d19565b602082019050919050565b6000620042f5601e8362004829565b9150620043028262004d42565b602082019050919050565b60006200431c602e8362004829565b9150620043298262004d6b565b604082019050919050565b60006200434360208362004829565b9150620043508262004dba565b602082019050919050565b60006200436a6017836200483a565b9150620043778262004de3565b601782019050919050565b60006200439160178362004829565b91506200439e8262004e0c565b602082019050919050565b6000620043b86011836200483a565b9150620043c58262004e35565b601182019050919050565b6000620043df602f8362004829565b9150620043ec8262004e5e565b604082019050919050565b6200440281620049ec565b82525050565b6200441381620049ec565b82525050565b6200442e6200442882620049ec565b62004b3d565b82525050565b600062004441826200435b565b91506200444f8285620041af565b91506200445c82620043a9565b91506200446a8284620041af565b91508190509392505050565b600062004484828762004419565b60208201915062004496828662004064565b601482019150620044a8828562004419565b602082019150620044ba8284620041e6565b915081905095945050505050565b6000602082019050620044df600083018462004053565b92915050565b6000606082019050620044fc600083018662004053565b6200450b602083018562004053565b6200451a604083018462004408565b949350505050565b600060408201905062004539600083018562004053565b62004548602083018462004408565b9392505050565b6000610100820190506200456760008301846200407f565b92915050565b60006020820190508181036000830152620045898184620040e2565b905092915050565b6000602082019050620045a860008301846200414c565b92915050565b6000602082019050620045c560008301846200415d565b92915050565b60006020820190508181036000830152620045e781846200416e565b905092915050565b600060208201905081810360008301526200460a8162004271565b9050919050565b600060208201905081810360008301526200462c8162004298565b9050919050565b600060208201905081810360008301526200464e81620042bf565b9050919050565b600060208201905081810360008301526200467081620042e6565b9050919050565b6000602082019050818103600083015262004692816200430d565b9050919050565b60006020820190508181036000830152620046b48162004334565b9050919050565b60006020820190508181036000830152620046d68162004382565b9050919050565b60006020820190508181036000830152620046f881620043d0565b9050919050565b600060208201905062004716600083018462004408565b92915050565b6000620047286200473b565b905062004736828262004a91565b919050565b6000604051905090565b600067ffffffffffffffff82111562004763576200476262004c3b565b5b602082029050602081019050919050565b600067ffffffffffffffff82111562004792576200479162004c3b565b5b602082029050602081019050919050565b6000819050919050565b6000819050602082019050919050565b60008190508160005260206000209050919050565b600060089050919050565b600081519050919050565b600081519050919050565b6000602082019050919050565b6000602082019050919050565b600081905092915050565b600082825260208201905092915050565b600082825260208201905092915050565b600081905092915050565b60006200485282620049ec565b91506200485f83620049ec565b9250827fffffffffffffffffffffffffffffffffffffffffffffffffffffffffffffffff0382111562004897576200489662004b7f565b5b828201905092915050565b6000620048af82620049ec565b9150620048bc83620049ec565b925082620048cf57620048ce62004bae565b5b828204905092915050565b6000620048e782620049ec565b9150620048f483620049ec565b9250817fffffffffffffffffffffffffffffffffffffffffffffffffffffffffffffffff048311821515161562004930576200492f62004b7f565b5b828202905092915050565b60006200494882620049ec565b91506200495583620049ec565b9250828210156200496b576200496a62004b7f565b5b828203905092915050565b60006200498382620049cc565b9050919050565b60008115159050919050565b6000819050919050565b60007fffffffff0000000000000000000000000000000000000000000000000000000082169050919050565b600073ffffffffffffffffffffffffffffffffffffffff82169050919050565b6000819050919050565b60005b8381101562004a16578082015181840152602081019050620049f9565b8381111562004a26576000848401525b50505050565b600062004a3982620049ec565b9150600082141562004a505762004a4f62004b7f565b5b600182039050919050565b6000600282049050600182168062004a7457607f821691505b6020821081141562004a8b5762004a8a62004bdd565b5b50919050565b62004a9c8262004c83565b810181811067ffffffffffffffff8211171562004abe5762004abd62004c3b565b5b80604052505050565b600062004ad482620049ec565b91507fffffffffffffffffffffffffffffffffffffffffffffffffffffffffffffffff82141562004b0a5762004b0962004b7f565b5b600182019050919050565b600062004b228262004b29565b9050919050565b600062004b368262004c94565b9050919050565b6000819050919050565b600062004b5482620049ec565b915062004b6183620049ec565b92508262004b745762004b7362004bae565b5b828206905092915050565b7f4e487b7100000000000000000000000000000000000000000000000000000000600052601160045260246000fd5b7f4e487b7100000000000000000000000000000000000000000000000000000000600052601260045260246000fd5b7f4e487b7100000000000000000000000000000000000000000000000000000000600052602260045260246000fd5b7f4e487b7100000000000000000000000000000000000000000000000000000000600052603260045260246000fd5b7f4e487b7100000000000000000000000000000000000000000000000000000000600052604160045260246000fd5b600080fd5b600080fd5b600080fd5b600080fd5b600080fd5b6000601f19601f8301169050919050565b60008160601b9050919050565b7f537472696e67733a20686578206c656e67746820696e73756666696369656e74600082015250565b7f4f776e61626c653a206e6577206f776e657220697320746865207a65726f206160008201527f6464726573730000000000000000000000000000000000000000000000000000602082015250565b7f43616e6e6f74207374616b652030000000000000000000000000000000000000600082015250565b7f6c696e657570206973206c6f636b656420666f7220746865207765656b210000600082015250565b7f496e697469616c697a61626c653a20636f6e747261637420697320616c72656160008201527f647920696e697469616c697a6564000000000000000000000000000000000000602082015250565b7f4f776e61626c653a2063616c6c6572206973206e6f7420746865206f776e6572600082015250565b7f416363657373436f6e74726f6c3a206163636f756e7420000000000000000000600082015250565b7f4c656167756520456e74727920697320436c6f73656421000000000000000000600082015250565b7f206973206d697373696e6720726f6c6520000000000000000000000000000000600082015250565b7f416363657373436f6e74726f6c3a2063616e206f6e6c792072656e6f756e636560008201527f20726f6c657320666f722073656c660000000000000000000000000000000000602082015250565b62004eb88162004976565b811462004ec457600080fd5b50565b62004ed2816200498a565b811462004ede57600080fd5b50565b62004eec8162004996565b811462004ef857600080fd5b50565b62004f0681620049a0565b811462004f1257600080fd5b50565b62004f2081620049ec565b811462004f2c57600080fd5b5056fe608060405234801561001057600080fd5b5061002d61002261003260201b60201c565b61003a60201b60201c565b6100fe565b600033905090565b60008060009054906101000a900473ffffffffffffffffffffffffffffffffffffffff169050816000806101000a81548173ffffffffffffffffffffffffffffffffffffffff021916908373ffffffffffffffffffffffffffffffffffffffff1602179055508173ffffffffffffffffffffffffffffffffffffffff168173ffffffffffffffffffffffffffffffffffffffff167f8be0079c531659141344cd1fd0a4f28419497f9722a3daafe3b4186f6b6457e060405160405180910390a35050565b610e928061010d6000396000f3fe608060405234801561001057600080fd5b50600436106100935760003560e01c80638da5cb5b116100665780638da5cb5b146101325780639b19251a14610150578063dc9a153514610180578063e2ec6ec31461019e578063f2fde38b146101ce57610093565b806324953eaa14610098578063286dd3f5146100c8578063715018a6146100f85780637b9417c814610102575b600080fd5b6100b260048036038101906100ad9190610a4a565b6101ea565b6040516100bf9190610b12565b60405180910390f35b6100e260048036038101906100dd9190610a1d565b6102d4565b6040516100ef9190610b12565b60405180910390f35b610100610457565b005b61011c60048036038101906101179190610a1d565b6104df565b6040516101299190610b12565b60405180910390f35b61013a610660565b6040516101479190610af7565b60405180910390f35b61016a60048036038101906101659190610a1d565b610689565b6040516101779190610b12565b60405180910390f35b6101886106a9565b6040516101959190610b12565b60405180910390f35b6101b860048036038101906101b39190610a4a565b6106bc565b6040516101c59190610b12565b60405180910390f35b6101e860048036038101906101e39190610a1d565b6107a6565b005b60006101f461089e565b73ffffffffffffffffffffffffffffffffffffffff16610212610660565b73ffffffffffffffffffffffffffffffffffffffff1614610268576040517f08c379a000000000000000000000000000000000000000000000000000000000815260040161025f90610b4d565b60405180910390fd5b60005b82518110156102ce5761029783828151811061028a57610289610d4a565b5b60200260200101516102d4565b156102bb576001600260008282546102af9190610c25565b92505081905550600191505b80806102c690610cd2565b91505061026b565b50919050565b60006102de61089e565b73ffffffffffffffffffffffffffffffffffffffff166102fc610660565b73ffffffffffffffffffffffffffffffffffffffff1614610352576040517f08c379a000000000000000000000000000000000000000000000000000000000815260040161034990610b4d565b60405180910390fd5b600160008373ffffffffffffffffffffffffffffffffffffffff1673ffffffffffffffffffffffffffffffffffffffff16815260200190815260200160002060009054906101000a900460ff1615610452576000600160008473ffffffffffffffffffffffffffffffffffffffff1673ffffffffffffffffffffffffffffffffffffffff16815260200190815260200160002060006101000a81548160ff0219169083151502179055507ff1abf01a1043b7c244d128e8595cf0c1d10743b022b03a02dffd8ca3bf729f5a8260405161042b9190610af7565b60405180910390a16001600260008282546104469190610c25565b92505081905550600190505b919050565b61045f61089e565b73ffffffffffffffffffffffffffffffffffffffff1661047d610660565b73ffffffffffffffffffffffffffffffffffffffff16146104d3576040517f08c379a00000000000000000000000000000000000000000000000000000000081526004016104ca90610b4d565b60405180910390fd5b6104dd60006108a6565b565b60006104e961089e565b73ffffffffffffffffffffffffffffffffffffffff16610507610660565b73ffffffffffffffffffffffffffffffffffffffff161461055d576040517f08c379a000000000000000000000000000000000000000000000000000000000815260040161055490610b4d565b60405180910390fd5b600160008373ffffffffffffffffffffffffffffffffffffffff1673ffffffffffffffffffffffffffffffffffffffff16815260200190815260200160002060009054906101000a900460ff1661065b5760018060008473ffffffffffffffffffffffffffffffffffffffff1673ffffffffffffffffffffffffffffffffffffffff16815260200190815260200160002060006101000a81548160ff0219169083151502179055507fd1bba68c128cc3f427e5831b3c6f99f480b6efa6b9e80c757768f6124158cc3f826040516106349190610af7565b60405180910390a160016002600082825461064f9190610bcf565b92505081905550600190505b919050565b60008060009054906101000a900473ffffffffffffffffffffffffffffffffffffffff16905090565b60016020528060005260406000206000915054906101000a900460ff1681565b600360009054906101000a900460ff1681565b60006106c661089e565b73ffffffffffffffffffffffffffffffffffffffff166106e4610660565b73ffffffffffffffffffffffffffffffffffffffff161461073a576040517f08c379a000000000000000000000000000000000000000000000000000000000815260040161073190610b4d565b60405180910390fd5b60005b82518110156107a05761076983828151811061075c5761075b610d4a565b5b60200260200101516104df565b1561078d576001600260008282546107819190610bcf565b92505081905550600191505b808061079890610cd2565b91505061073d565b50919050565b6107ae61089e565b73ffffffffffffffffffffffffffffffffffffffff166107cc610660565b73ffffffffffffffffffffffffffffffffffffffff1614610822576040517f08c379a000000000000000000000000000000000000000000000000000000000815260040161081990610b4d565b60405180910390fd5b600073ffffffffffffffffffffffffffffffffffffffff168173ffffffffffffffffffffffffffffffffffffffff161415610892576040517f08c379a000000000000000000000000000000000000000000000000000000000815260040161088990610b2d565b60405180910390fd5b61089b816108a6565b50565b600033905090565b60008060009054906101000a900473ffffffffffffffffffffffffffffffffffffffff169050816000806101000a81548173ffffffffffffffffffffffffffffffffffffffff021916908373ffffffffffffffffffffffffffffffffffffffff1602179055508173ffffffffffffffffffffffffffffffffffffffff168173ffffffffffffffffffffffffffffffffffffffff167f8be0079c531659141344cd1fd0a4f28419497f9722a3daafe3b4186f6b6457e060405160405180910390a35050565b600061097d61097884610b92565b610b6d565b905080838252602082019050828560208602820111156109a05761099f610dad565b5b60005b858110156109d057816109b688826109da565b8452602084019350602083019250506001810190506109a3565b5050509392505050565b6000813590506109e981610e45565b92915050565b600082601f830112610a0457610a03610da8565b5b8135610a1484826020860161096a565b91505092915050565b600060208284031215610a3357610a32610db7565b5b6000610a41848285016109da565b91505092915050565b600060208284031215610a6057610a5f610db7565b5b600082013567ffffffffffffffff811115610a7e57610a7d610db2565b5b610a8a848285016109ef565b91505092915050565b610a9c81610c59565b82525050565b610aab81610c6b565b82525050565b6000610abe602683610bbe565b9150610ac982610dcd565b604082019050919050565b6000610ae1602083610bbe565b9150610aec82610e1c565b602082019050919050565b6000602082019050610b0c6000830184610a93565b92915050565b6000602082019050610b276000830184610aa2565b92915050565b60006020820190508181036000830152610b4681610ab1565b9050919050565b60006020820190508181036000830152610b6681610ad4565b9050919050565b6000610b77610b88565b9050610b838282610ca1565b919050565b6000604051905090565b600067ffffffffffffffff821115610bad57610bac610d79565b5b602082029050602081019050919050565b600082825260208201905092915050565b6000610bda82610c97565b9150610be583610c97565b9250827fffffffffffffffffffffffffffffffffffffffffffffffffffffffffffffffff03821115610c1a57610c19610d1b565b5b828201905092915050565b6000610c3082610c97565b9150610c3b83610c97565b925082821015610c4e57610c4d610d1b565b5b828203905092915050565b6000610c6482610c77565b9050919050565b60008115159050919050565b600073ffffffffffffffffffffffffffffffffffffffff82169050919050565b6000819050919050565b610caa82610dbc565b810181811067ffffffffffffffff82111715610cc957610cc8610d79565b5b80604052505050565b6000610cdd82610c97565b91507fffffffffffffffffffffffffffffffffffffffffffffffffffffffffffffffff821415610d1057610d0f610d1b565b5b600182019050919050565b7f4e487b7100000000000000000000000000000000000000000000000000000000600052601160045260246000fd5b7f4e487b7100000000000000000000000000000000000000000000000000000000600052603260045260246000fd5b7f4e487b7100000000000000000000000000000000000000000000000000000000600052604160045260246000fd5b600080fd5b600080fd5b600080fd5b600080fd5b6000601f19601f8301169050919050565b7f4f776e61626c653a206e6577206f776e657220697320746865207a65726f206160008201527f6464726573730000000000000000000000000000000000000000000000000000602082015250565b7f4f776e61626c653a2063616c6c6572206973206e6f7420746865206f776e6572600082015250565b610e4e81610c59565b8114610e5957600080fd5b5056fea2646970667358221220070224275ad0b13d0a847fbeb4a423ae740dee42968a8d236c8eedaef3b3cc5764736f6c63430008070033a26469706673582212201c856884037139d5ba936df4fd9c44526af084f557bb478eb59c48479530cc1164736f6c63430008070033",
  "linkReferences": {},
  "deployedLinkReferences": {}
}