{
  "_format": "hh-sol-artifact-1",
  "contractName": "GameLogic",
  "sourceName": "contracts/GameLogic.sol",
  "abi": [
    {
      "stateMutability": "payable",
      "type": "fallback"
    },
    {
      "inputs": [],
      "name": "incrementVersion",
      "outputs": [
        {
          "internalType": "uint256",
          "name": "",
          "type": "uint256"
        }
      ],
      "stateMutability": "nonpayable",
      "type": "function"
    },
    {
      "inputs": [
        {
          "internalType": "uint256",
          "name": "_version",
          "type": "uint256"
        }
      ],
      "name": "initialize",
      "outputs": [],
      "stateMutability": "nonpayable",
      "type": "function"
    },
    {
      "inputs": [],
      "name": "name",
      "outputs": [
        {
          "internalType": "string",
          "name": "",
          "type": "string"
        }
      ],
      "stateMutability": "view",
      "type": "function"
    },
    {
      "inputs": [],
      "name": "version",
      "outputs": [
        {
          "internalType": "uint256",
          "name": "",
          "type": "uint256"
        }
      ],
      "stateMutability": "view",
      "type": "function"
    }
  ],
  "bytecode": "0x608060405234801561001057600080fd5b506108be806100206000396000f3fe6080604052600436106100435760003560e01c806306fdde03146100845780632cf0a1fc146100af57806354fd4d50146100da578063fe4b84df1461010557610044565b5b6100826040518060400160405280601581526020017f66616c6c6261636b20696e20746865206c6f676963000000000000000000000081525061012e565b005b34801561009057600080fd5b506100996101c7565b6040516100a69190610675565b60405180910390f35b3480156100bb57600080fd5b506100c4610255565b6040516100d191906106b7565b60405180910390f35b3480156100e657600080fd5b506100ef6102b7565b6040516100fc91906106b7565b60405180910390f35b34801561011157600080fd5b5061012c600480360381019061012791906105e1565b6102bd565b005b6101c4816040516024016101429190610675565b6040516020818303038152906040527f41304fac000000000000000000000000000000000000000000000000000000007bffffffffffffffffffffffffffffffffffffffffffffffffffffffff19166020820180517bffffffffffffffffffffffffffffffffffffffffffffffffffffffff8381831617835250505050610433565b50565b600280546101d490610781565b80601f016020809104026020016040519081016040528092919081815260200182805461020090610781565b801561024d5780601f106102225761010080835404028352916020019161024d565b820191906000526020600020905b81548152906001019060200180831161023057829003601f168201915b505050505081565b60006102956040518060400160405280601681526020017f696e6372656d656e74696e672076657273696f6e3a0a0000000000000000000081525061012e565b6102a060015461045c565b600180546102ae91906106ee565b60018190555090565b60015481565b600060019054906101000a900460ff166102e55760008054906101000a900460ff16156102ee565b6102ed6104f5565b5b61032d576040517f08c379a000000000000000000000000000000000000000000000000000000000815260040161032490610697565b60405180910390fd5b60008060019054906101000a900460ff16159050801561037d576001600060016101000a81548160ff02191690831515021790555060016000806101000a81548160ff0219169083151502179055505b816001819055506040518060400160405280600b81526020017f4c6561677565204e616d65000000000000000000000000000000000000000000815250600290805190602001906103cf929190610529565b5061040e6040518060400160405280601681526020017f47616d654c6f67696320696e697469616c697a6564210000000000000000000081525061012e565b801561042f5760008060016101000a81548160ff0219169083151502179055505b5050565b60008151905060006a636f6e736f6c652e6c6f679050602083016000808483855afa5050505050565b6104f28160405160240161047091906106b7565b6040516020818303038152906040527ff5b1bba9000000000000000000000000000000000000000000000000000000007bffffffffffffffffffffffffffffffffffffffffffffffffffffffff19166020820180517bffffffffffffffffffffffffffffffffffffffffffffffffffffffff8381831617835250505050610433565b50565b600061050030610506565b15905090565b6000808273ffffffffffffffffffffffffffffffffffffffff163b119050919050565b82805461053590610781565b90600052602060002090601f016020900481019282610557576000855561059e565b82601f1061057057805160ff191683800117855561059e565b8280016001018555821561059e579182015b8281111561059d578251825591602001919060010190610582565b5b5090506105ab91906105af565b5090565b5b808211156105c85760008160009055506001016105b0565b5090565b6000813590506105db81610871565b92915050565b6000602082840312156105f357600080fd5b6000610601848285016105cc565b91505092915050565b6000610615826106d2565b61061f81856106dd565b935061062f81856020860161074e565b61063881610811565b840191505092915050565b6000610650602e836106dd565b915061065b82610822565b604082019050919050565b61066f81610744565b82525050565b6000602082019050818103600083015261068f818461060a565b905092915050565b600060208201905081810360008301526106b081610643565b9050919050565b60006020820190506106cc6000830184610666565b92915050565b600081519050919050565b600082825260208201905092915050565b60006106f982610744565b915061070483610744565b9250827fffffffffffffffffffffffffffffffffffffffffffffffffffffffffffffffff03821115610739576107386107b3565b5b828201905092915050565b6000819050919050565b60005b8381101561076c578082015181840152602081019050610751565b8381111561077b576000848401525b50505050565b6000600282049050600182168061079957607f821691505b602082108114156107ad576107ac6107e2565b5b50919050565b7f4e487b7100000000000000000000000000000000000000000000000000000000600052601160045260246000fd5b7f4e487b7100000000000000000000000000000000000000000000000000000000600052602260045260246000fd5b6000601f19601f8301169050919050565b7f496e697469616c697a61626c653a20636f6e747261637420697320616c72656160008201527f647920696e697469616c697a6564000000000000000000000000000000000000602082015250565b61087a81610744565b811461088557600080fd5b5056fea264697066735822122087be4c8ec18e26320dbec66fb2c7ed8d343ae67187f4afba1e5a55c6880744d164736f6c63430008020033",
  "linkReferences": {},
  "deployedLinkReferences": {}
}