{
  "_format": "hh-sol-artifact-1",
  "contractName": "GameLogic",
  "sourceName": "contracts/GameLogic.sol",
  "abi": [
    {
      "anonymous": false,
      "inputs": [
        {
          "indexed": true,
          "internalType": "address",
          "name": "previousOwner",
          "type": "address"
        },
        {
          "indexed": true,
          "internalType": "address",
          "name": "newOwner",
          "type": "address"
        }
      ],
      "name": "OwnershipTransferred",
      "type": "event"
    },
    {
      "anonymous": false,
      "inputs": [
        {
          "indexed": true,
          "internalType": "bytes32",
          "name": "role",
          "type": "bytes32"
        },
        {
          "indexed": true,
          "internalType": "bytes32",
          "name": "previousAdminRole",
          "type": "bytes32"
        },
        {
          "indexed": true,
          "internalType": "bytes32",
          "name": "newAdminRole",
          "type": "bytes32"
        }
      ],
      "name": "RoleAdminChanged",
      "type": "event"
    },
    {
      "anonymous": false,
      "inputs": [
        {
          "indexed": true,
          "internalType": "bytes32",
          "name": "role",
          "type": "bytes32"
        },
        {
          "indexed": true,
          "internalType": "address",
          "name": "account",
          "type": "address"
        },
        {
          "indexed": true,
          "internalType": "address",
          "name": "sender",
          "type": "address"
        }
      ],
      "name": "RoleGranted",
      "type": "event"
    },
    {
      "anonymous": false,
      "inputs": [
        {
          "indexed": true,
          "internalType": "bytes32",
          "name": "role",
          "type": "bytes32"
        },
        {
          "indexed": true,
          "internalType": "address",
          "name": "account",
          "type": "address"
        },
        {
          "indexed": true,
          "internalType": "address",
          "name": "sender",
          "type": "address"
        }
      ],
      "name": "RoleRevoked",
      "type": "event"
    },
    {
      "anonymous": false,
      "inputs": [
        {
          "indexed": false,
          "internalType": "address",
          "name": "sender",
          "type": "address"
        },
        {
          "indexed": false,
          "internalType": "uint256",
          "name": "amount",
          "type": "uint256"
        }
      ],
      "name": "Staked",
      "type": "event"
    },
    {
      "anonymous": false,
      "inputs": [
        {
          "indexed": false,
          "internalType": "address",
          "name": "addr",
          "type": "address"
        }
      ],
      "name": "WhitelistedAddressAdded",
      "type": "event"
    },
    {
      "anonymous": false,
      "inputs": [
        {
          "indexed": false,
          "internalType": "address",
          "name": "addr",
          "type": "address"
        }
      ],
      "name": "WhitelistedAddressRemoved",
      "type": "event"
    },
    {
      "inputs": [],
      "name": "DEFAULT_ADMIN_ROLE",
      "outputs": [
        {
          "internalType": "bytes32",
          "name": "",
          "type": "bytes32"
        }
      ],
      "stateMutability": "view",
      "type": "function"
    },
    {
      "inputs": [
        {
          "internalType": "address",
          "name": "addr",
          "type": "address"
        }
      ],
      "name": "addAddressToWhitelist",
      "outputs": [
        {
          "internalType": "bool",
          "name": "success",
          "type": "bool"
        }
      ],
      "stateMutability": "nonpayable",
      "type": "function"
    },
    {
      "inputs": [
        {
          "internalType": "address[]",
          "name": "addrs",
          "type": "address[]"
        }
      ],
      "name": "addAddressesToWhitelist",
      "outputs": [
        {
          "internalType": "bool",
          "name": "success",
          "type": "bool"
        }
      ],
      "stateMutability": "nonpayable",
      "type": "function"
    },
    {
      "inputs": [],
      "name": "addUserToWhitelist",
      "outputs": [],
      "stateMutability": "nonpayable",
      "type": "function"
    },
    {
      "inputs": [
        {
          "internalType": "address",
          "name": "addr1",
          "type": "address"
        },
        {
          "internalType": "address",
          "name": "addr2",
          "type": "address"
        },
        {
          "internalType": "uint256",
          "name": "currentWeekNum",
          "type": "uint256"
        }
      ],
      "name": "evaluateMatch",
      "outputs": [
        {
          "internalType": "address",
          "name": "",
          "type": "address"
        }
      ],
      "stateMutability": "nonpayable",
      "type": "function"
    },
    {
      "inputs": [
        {
          "internalType": "uint256",
          "name": "currentWeekNum",
          "type": "uint256"
        }
      ],
      "name": "evaluateWeek",
      "outputs": [],
      "stateMutability": "nonpayable",
      "type": "function"
    },
    {
      "inputs": [
        {
          "internalType": "bytes32",
          "name": "role",
          "type": "bytes32"
        }
      ],
      "name": "getRoleAdmin",
      "outputs": [
        {
          "internalType": "bytes32",
          "name": "",
          "type": "bytes32"
        }
      ],
      "stateMutability": "view",
      "type": "function"
    },
    {
      "inputs": [
        {
          "internalType": "address",
          "name": "_token",
          "type": "address"
        }
      ],
      "name": "getUSDCBalance",
      "outputs": [
        {
          "internalType": "uint256",
          "name": "",
          "type": "uint256"
        }
      ],
      "stateMutability": "view",
      "type": "function"
    },
    {
      "inputs": [],
      "name": "getUserTotalWins",
      "outputs": [
        {
          "internalType": "uint256",
          "name": "",
          "type": "uint256"
        }
      ],
      "stateMutability": "view",
      "type": "function"
    },
    {
      "inputs": [
        {
          "internalType": "bytes32",
          "name": "role",
          "type": "bytes32"
        },
        {
          "internalType": "address",
          "name": "account",
          "type": "address"
        }
      ],
      "name": "grantRole",
      "outputs": [],
      "stateMutability": "nonpayable",
      "type": "function"
    },
    {
      "inputs": [
        {
          "internalType": "bytes32",
          "name": "role",
          "type": "bytes32"
        },
        {
          "internalType": "address",
          "name": "account",
          "type": "address"
        }
      ],
      "name": "hasRole",
      "outputs": [
        {
          "internalType": "bool",
          "name": "",
          "type": "bool"
        }
      ],
      "stateMutability": "view",
      "type": "function"
    },
    {
      "inputs": [],
      "name": "incrementVersion",
      "outputs": [],
      "stateMutability": "nonpayable",
      "type": "function"
    },
    {
      "inputs": [
        {
          "internalType": "string",
          "name": "_name",
          "type": "string"
        },
        {
          "internalType": "uint256",
          "name": "_version",
          "type": "uint256"
        },
        {
          "internalType": "uint256",
          "name": "_stakeAmount",
          "type": "uint256"
        },
        {
          "internalType": "bool",
          "name": "_isPublic",
          "type": "bool"
        },
        {
          "internalType": "address",
          "name": "athletesDataStorageAddress",
          "type": "address"
        },
        {
          "internalType": "address",
          "name": "_admin",
          "type": "address"
        },
        {
          "internalType": "address",
          "name": "_polygonUSDCAddress",
          "type": "address"
        },
        {
          "internalType": "address",
          "name": "_rinkebyUSDCAddress",
          "type": "address"
        },
        {
          "internalType": "address",
          "name": "leagueMakerContractAddress",
          "type": "address"
        }
      ],
      "name": "initialize",
      "outputs": [],
      "stateMutability": "nonpayable",
      "type": "function"
    },
    {
      "inputs": [],
      "name": "isPublic",
      "outputs": [
        {
          "internalType": "bool",
          "name": "",
          "type": "bool"
        }
      ],
      "stateMutability": "view",
      "type": "function"
    },
    {
      "inputs": [],
      "name": "joinLeague",
      "outputs": [],
      "stateMutability": "nonpayable",
      "type": "function"
    },
    {
      "inputs": [
        {
          "internalType": "uint256",
          "name": "",
          "type": "uint256"
        }
      ],
      "name": "leagueMembers",
      "outputs": [
        {
          "internalType": "address",
          "name": "",
          "type": "address"
        }
      ],
      "stateMutability": "view",
      "type": "function"
    },
    {
      "inputs": [],
      "name": "leagueName",
      "outputs": [
        {
          "internalType": "string",
          "name": "",
          "type": "string"
        }
      ],
      "stateMutability": "view",
      "type": "function"
    },
    {
      "inputs": [],
      "name": "lockLineup",
      "outputs": [],
      "stateMutability": "nonpayable",
      "type": "function"
    },
    {
      "inputs": [],
      "name": "owner",
      "outputs": [
        {
          "internalType": "address",
          "name": "",
          "type": "address"
        }
      ],
      "stateMutability": "view",
      "type": "function"
    },
    {
      "inputs": [],
      "name": "polygonUSDCAddress",
      "outputs": [
        {
          "internalType": "address",
          "name": "",
          "type": "address"
        }
      ],
      "stateMutability": "view",
      "type": "function"
    },
    {
      "inputs": [
        {
          "internalType": "address",
          "name": "addr",
          "type": "address"
        }
      ],
      "name": "removeAddressFromWhitelist",
      "outputs": [
        {
          "internalType": "bool",
          "name": "success",
          "type": "bool"
        }
      ],
      "stateMutability": "nonpayable",
      "type": "function"
    },
    {
      "inputs": [
        {
          "internalType": "address[]",
          "name": "addrs",
          "type": "address[]"
        }
      ],
      "name": "removeAddressesFromWhitelist",
      "outputs": [
        {
          "internalType": "bool",
          "name": "success",
          "type": "bool"
        }
      ],
      "stateMutability": "nonpayable",
      "type": "function"
    },
    {
      "inputs": [],
      "name": "removeFromLeague",
      "outputs": [],
      "stateMutability": "nonpayable",
      "type": "function"
    },
    {
      "inputs": [],
      "name": "renounceOwnership",
      "outputs": [],
      "stateMutability": "nonpayable",
      "type": "function"
    },
    {
      "inputs": [
        {
          "internalType": "bytes32",
          "name": "role",
          "type": "bytes32"
        },
        {
          "internalType": "address",
          "name": "account",
          "type": "address"
        }
      ],
      "name": "renounceRole",
      "outputs": [],
      "stateMutability": "nonpayable",
      "type": "function"
    },
    {
      "inputs": [
        {
          "internalType": "bytes32",
          "name": "role",
          "type": "bytes32"
        },
        {
          "internalType": "address",
          "name": "account",
          "type": "address"
        }
      ],
      "name": "revokeRole",
      "outputs": [],
      "stateMutability": "nonpayable",
      "type": "function"
    },
    {
      "inputs": [],
      "name": "rinkebyUSDCAddress",
      "outputs": [
        {
          "internalType": "address",
          "name": "",
          "type": "address"
        }
      ],
      "stateMutability": "view",
      "type": "function"
    },
    {
      "inputs": [],
      "name": "setLeagueEntryIsClosed",
      "outputs": [],
      "stateMutability": "nonpayable",
      "type": "function"
    },
    {
      "inputs": [],
      "name": "setLeagueSchedule",
      "outputs": [],
      "stateMutability": "nonpayable",
      "type": "function"
    },
    {
      "inputs": [
        {
          "internalType": "uint256[]",
          "name": "athleteIds",
          "type": "uint256[]"
        }
      ],
      "name": "setLineup",
      "outputs": [],
      "stateMutability": "nonpayable",
      "type": "function"
    },
    {
      "inputs": [],
      "name": "stakeAmount",
      "outputs": [
        {
          "internalType": "uint256",
          "name": "",
          "type": "uint256"
        }
      ],
      "stateMutability": "view",
      "type": "function"
    },
    {
      "inputs": [
        {
          "internalType": "bytes4",
          "name": "interfaceId",
          "type": "bytes4"
        }
      ],
      "name": "supportsInterface",
      "outputs": [
        {
          "internalType": "bool",
          "name": "",
          "type": "bool"
        }
      ],
      "stateMutability": "view",
      "type": "function"
    },
    {
      "inputs": [
        {
          "internalType": "address",
          "name": "newOwner",
          "type": "address"
        }
      ],
      "name": "transferOwnership",
      "outputs": [],
      "stateMutability": "nonpayable",
      "type": "function"
    },
    {
      "inputs": [],
      "name": "unlockLineup",
      "outputs": [],
      "stateMutability": "nonpayable",
      "type": "function"
    },
    {
      "inputs": [
        {
          "internalType": "address",
          "name": "",
          "type": "address"
        },
        {
          "internalType": "uint256",
          "name": "",
          "type": "uint256"
        }
      ],
      "name": "userToRecord",
      "outputs": [
        {
          "internalType": "uint256",
          "name": "",
          "type": "uint256"
        }
      ],
      "stateMutability": "view",
      "type": "function"
    },
    {
      "inputs": [],
      "name": "version",
      "outputs": [
        {
          "internalType": "uint256",
          "name": "",
          "type": "uint256"
        }
      ],
      "stateMutability": "view",
      "type": "function"
    },
    {
      "inputs": [
        {
          "internalType": "address",
          "name": "",
          "type": "address"
        }
      ],
      "name": "whitelist",
      "outputs": [
        {
          "internalType": "bool",
          "name": "",
          "type": "bool"
        }
      ],
      "stateMutability": "view",
      "type": "function"
    }
  ],
  "bytecode": "0x60806040523480156200001157600080fd5b5062000032620000266200003860201b60201c565b6200004060201b60201c565b62000105565b600033905090565b60008060029054906101000a900473ffffffffffffffffffffffffffffffffffffffff16905081600060026101000a81548173ffffffffffffffffffffffffffffffffffffffff021916908373ffffffffffffffffffffffffffffffffffffffff1602179055508173ffffffffffffffffffffffffffffffffffffffff168173ffffffffffffffffffffffffffffffffffffffff167f8be0079c531659141344cd1fd0a4f28419497f9722a3daafe3b4186f6b6457e060405160405180910390a35050565b615b9380620001156000396000f3fe60806040523480156200001157600080fd5b50600436106200025b5760003560e01c80637b9417c8116200014d578063c8be3b5b11620000c9578063e2ec6ec31162000087578063e2ec6ec314620006c2578063e4c9066b14620006f8578063e6bab8ad1462000704578063f2fde38b1462000726578063f612121a1462000746576200025b565b8063c8be3b5b1462000632578063c99fea94146200063e578063cb6f545e146200064a578063d547741f1462000680578063dc9a153514620006a0576200025b565b806393f3706c116200011757806393f3706c146200058c5780639b19251a14620005ae5780639f2d548114620005e4578063a217fddf1462000604578063a2bc091a1462000626576200025b565b80637b9417c814620004dc578063841abf6e14620005125780638da5cb5b146200053457806391d148541462000556576200025b565b8063286dd3f511620001dd57806354fd4d5011620001a757806354fd4d50146200044a57806360c7dc47146200046c57806368024717146200048e578063715018a614620004c45780637ac6aa1d14620004d0576200025b565b8063286dd3f514620003c85780632cf0a1fc14620003fe5780632f2ff15d146200040a57806336568abe146200042a576200025b565b80630c6f7959116200022b5780630c6f795914620002e457806311c253f5146200031a578063248a9ca3146200032657806324953eaa146200035c578063267175db1462000392576200025b565b8062b2476f146200026057806301ffc9a714620002825780630655465a14620002b85780630bdcd5f014620002c4575b600080fd5b6200026a62000766565b604051620002799190620041ff565b60405180910390f35b620002a060048036038101906200029a919062003ccf565b6200078c565b604051620002af919062004286565b60405180910390f35b620002c262000809565b005b620002e26004803603810190620002dc919062003d01565b620010c0565b005b620003026004803603810190620002fc919062003aea565b6200144b565b604051620003119190620043f4565b60405180910390f35b6200032462001474565b005b6200034460048036038101906200033e919062003c56565b620014e5565b604051620003539190620042a3565b60405180910390f35b6200037a600480360381019062000374919062003b31565b62001505565b60405162000389919062004286565b60405180910390f35b620003b06004803603810190620003aa919062003e04565b62001602565b604051620003bf9190620041ff565b60405180910390f35b620003e66004803603810190620003e0919062003a5c565b62001642565b604051620003f5919062004286565b60405180910390f35b62000408620017d1565b005b62000428600480360381019062000422919062003c88565b620017ef565b005b62000448600480360381019062000442919062003c88565b62001820565b005b62000454620018aa565b604051620004639190620043f4565b60405180910390f35b62000476620018b0565b604051620004859190620043f4565b60405180910390f35b620004ac6004803603810190620004a6919062003a5c565b620018b6565b604051620004bb9190620043f4565b60405180910390f35b620004ce6200194e565b005b620004da620019df565b005b620004fa6004803603810190620004f4919062003a5c565b62001a52565b60405162000509919062004286565b60405180910390f35b6200051c62001be0565b6040516200052b9190620042c0565b60405180910390f35b6200053e62001c76565b6040516200054d9190620041ff565b60405180910390f35b6200057460048036038101906200056e919062003c88565b62001c9f565b60405162000583919062004286565b60405180910390f35b6200059662001d0a565b604051620005a59190620041ff565b60405180910390f35b620005cc6004803603810190620005c6919062003a5c565b62001d30565b604051620005db919062004286565b60405180910390f35b620006026004803603810190620005fc919062003e04565b62001d50565b005b6200060e62001efd565b6040516200061d9190620042a3565b60405180910390f35b6200063062001f04565b005b6200063c62001fa4565b005b6200064862002044565b005b62000668600480360381019062000662919062003a8e565b6200219b565b604051620006779190620041ff565b60405180910390f35b6200069e600480360381019062000698919062003c88565b62002746565b005b620006aa62002777565b604051620006b9919062004286565b60405180910390f35b620006e06004803603810190620006da919062003b31565b6200278a565b604051620006ef919062004286565b60405180910390f35b6200070262002887565b005b6200070e62002927565b6040516200071d9190620043f4565b60405180910390f35b6200074460048036038101906200073e919062003a5c565b62002a65565b005b6200076460048036038101906200075e919062003b82565b62002b69565b005b600e60009054906101000a900473ffffffffffffffffffffffffffffffffffffffff1681565b60007f7965db0b000000000000000000000000000000000000000000000000000000007bffffffffffffffffffffffffffffffffffffffffffffffffffffffff1916827bffffffffffffffffffffffffffffffffffffffffffffffffffffffff19161480620008025750620008018262002c15565b5b9050919050565b6200081362002c7f565b73ffffffffffffffffffffffffffffffffffffffff166200083362001c76565b73ffffffffffffffffffffffffffffffffffffffff16146200088c576040517f08c379a000000000000000000000000000000000000000000000000000000000815260040162000883906200438e565b60405180910390fd5b620008cc6040518060400160405280601081526020017f73657474696e67207363686564756c650000000000000000000000000000000081525062002c87565b6000600780549050600780549050620008e6919062004569565b4233446006604051602001620009009493929190620041ad565b6040516020818303038152906040528051906020012060001c620009259190620044d4565b9050620009316200357c565b6200093b6200357c565b60005b6008811015620010ba57620009886040518060400160405280600181526020017f0a0000000000000000000000000000000000000000000000000000000000000081525062002c87565b620009938162002d24565b620009d36040518060400160405280601881526020017f2a2a2a2a2a2a2a2a2a2a2a2a2a2a2a2a2a2a2a2a2a2a2a2a000000000000000081525062002c87565b6000806002600780549050620009ea9190620047d6565b1462000a0d57600160078054905062000a049190620044d4565b90508062000a17565b6007805490509050805b5060008360006004811062000a315762000a306200489b565b5b6020020151905060005b60028362000a4a919062004531565b81101562000bc757600084141562000b0d57808660028562000a6d919062004531565b898462000a7b9190620044d4565b62000a879190620047d6565b6004811062000a9b5762000a9a6200489b565b5b60200201818152505060028362000ab3919062004531565b8162000ac09190620044d4565b8560028562000ad0919062004531565b898462000ade9190620044d4565b62000aea9190620047d6565b6004811062000afe5762000afd6200489b565b5b60200201818152505062000bb1565b600086826004811062000b255762000b246200489b565b5b602002015190508086836004811062000b435762000b426200489b565b5b6020020181815250508560028562000b5c919062004531565b60018462000b6b9190620044d4565b62000b779190620047d6565b6004811062000b8b5762000b8a6200489b565b5b602002015187836004811062000ba65762000ba56200489b565b5b602002018181525050505b808062000bbe9062004756565b91505062000a3b565b506000831462000c0e578085600160028562000be4919062004531565b62000bf09190620045ca565b6004811062000c045762000c036200489b565b5b6020020181815250505b60005b60028362000c20919062004531565b811015620010a15762000c326200359e565b60078054905086836004811062000c4e5762000c4d6200489b565b5b60200201511062000d2a576040518060400160405280600789856004811062000c7c5762000c7b6200489b565b5b60200201518154811062000c955762000c946200489b565b5b9060005260206000200160009054906101000a900473ffffffffffffffffffffffffffffffffffffffff1673ffffffffffffffffffffffffffffffffffffffff1673ffffffffffffffffffffffffffffffffffffffff168152602001600073ffffffffffffffffffffffffffffffffffffffff1673ffffffffffffffffffffffffffffffffffffffff16815250905062000f49565b60078054905087836004811062000d465762000d456200489b565b5b60200201511062000e22576040518060400160405280600073ffffffffffffffffffffffffffffffffffffffff1673ffffffffffffffffffffffffffffffffffffffff168152602001600788856004811062000da75762000da66200489b565b5b60200201518154811062000dc05762000dbf6200489b565b5b9060005260206000200160009054906101000a900473ffffffffffffffffffffffffffffffffffffffff1673ffffffffffffffffffffffffffffffffffffffff1673ffffffffffffffffffffffffffffffffffffffff16815250905062000f48565b6040518060400160405280600789856004811062000e455762000e446200489b565b5b60200201518154811062000e5e5762000e5d6200489b565b5b9060005260206000200160009054906101000a900473ffffffffffffffffffffffffffffffffffffffff1673ffffffffffffffffffffffffffffffffffffffff1673ffffffffffffffffffffffffffffffffffffffff168152602001600788856004811062000ed25762000ed16200489b565b5b60200201518154811062000eeb5762000eea6200489b565b5b9060005260206000200160009054906101000a900473ffffffffffffffffffffffffffffffffffffffff1673ffffffffffffffffffffffffffffffffffffffff1673ffffffffffffffffffffffffffffffffffffffff1681525090505b5b60006040518060200160405280838152509050600c600087815260200190815260200160002081908060018154018082558091505060019003906000526020600020906002020160009091909190915060008201518160000190600262000fb2929190620035c0565b50505062000fdf816000015160006002811062000fd45762000fd36200489b565b5b602002015162002dc1565b6200101f6040518060400160405280600481526020017f207673200000000000000000000000000000000000000000000000000000000081525062002c87565b6200104981600001516001600281106200103e576200103d6200489b565b5b602002015162002dc1565b620010896040518060400160405280600181526020017f0a0000000000000000000000000000000000000000000000000000000000000081525062002c87565b50508080620010989062004756565b91505062000c11565b5050508080620010b19062004756565b9150506200093e565b50505050565b600060019054906101000a900460ff16620010ea5760008054906101000a900460ff1615620010f5565b620010f462002e5e565b5b62001137576040517f08c379a00000000000000000000000000000000000000000000000000000000081526004016200112e906200436c565b60405180910390fd5b60008060019054906101000a900460ff16159050801562001188576001600060016101000a81548160ff02191690831515021790555060016000806101000a81548160ff0219169083151502179055505b886005819055508a8a60069190620011a292919062003642565b5087600b8190555086600460006101000a81548160ff0219169083151502179055506000600960016101000a81548160ff0219169083151502179055506000600960006101000a81548160ff02191690831515021790555085600f60006101000a81548173ffffffffffffffffffffffffffffffffffffffff021916908373ffffffffffffffffffffffffffffffffffffffff16021790555081601160006101000a81548173ffffffffffffffffffffffffffffffffffffffff021916908373ffffffffffffffffffffffffffffffffffffffff1602179055506200128b6000801b8662002e71565b83600d60006101000a81548173ffffffffffffffffffffffffffffffffffffffff021916908373ffffffffffffffffffffffffffffffffffffffff16021790555082600e60006101000a81548173ffffffffffffffffffffffffffffffffffffffff021916908373ffffffffffffffffffffffffffffffffffffffff1602179055506007859080600181540180825580915050600190039060005260206000200160009091909190916101000a81548173ffffffffffffffffffffffffffffffffffffffff021916908373ffffffffffffffffffffffffffffffffffffffff1602179055506040516200137e90620036d3565b604051809103906000f0801580156200139b573d6000803e3d6000fd5b50601060006101000a81548173ffffffffffffffffffffffffffffffffffffffff021916908373ffffffffffffffffffffffffffffffffffffffff1602179055506200141c6040518060400160405280601281526020017f50726f787920696e697469616c697a656421000000000000000000000000000081525062002c87565b80156200143e5760008060016101000a81548160ff0219169083151502179055505b5050505050505050505050565b600860205281600052604060002081600881106200146857600080fd5b01600091509150505481565b600260003373ffffffffffffffffffffffffffffffffffffffff1673ffffffffffffffffffffffffffffffffffffffff16815260200190815260200160002060009054906101000a900460ff1680620014d95750600460009054906101000a900460ff165b620014e357600080fd5b565b600060016000838152602001908152602001600020600101549050919050565b60006200151162002c7f565b73ffffffffffffffffffffffffffffffffffffffff166200153162001c76565b73ffffffffffffffffffffffffffffffffffffffff16146200158a576040517f08c379a000000000000000000000000000000000000000000000000000000000815260040162001581906200438e565b60405180910390fd5b60005b8251811015620015fc57620015bf838281518110620015b157620015b06200489b565b5b602002602001015162001642565b15620015e657600160036000828254620015da9190620045ca565b92505081905550600191505b8080620015f39062004756565b9150506200158d565b50919050565b600781815481106200161357600080fd5b906000526020600020016000915054906101000a900473ffffffffffffffffffffffffffffffffffffffff1681565b60006200164e62002c7f565b73ffffffffffffffffffffffffffffffffffffffff166200166e62001c76565b73ffffffffffffffffffffffffffffffffffffffff1614620016c7576040517f08c379a0000000000000000000000000000000000000000000000000000000008152600401620016be906200438e565b60405180910390fd5b600260008373ffffffffffffffffffffffffffffffffffffffff1673ffffffffffffffffffffffffffffffffffffffff16815260200190815260200160002060009054906101000a900460ff1615620017cc576000600260008473ffffffffffffffffffffffffffffffffffffffff1673ffffffffffffffffffffffffffffffffffffffff16815260200190815260200160002060006101000a81548160ff0219169083151502179055507ff1abf01a1043b7c244d128e8595cf0c1d10743b022b03a02dffd8ca3bf729f5a82604051620017a39190620041ff565b60405180910390a1600160036000828254620017c09190620045ca565b92505081905550600190505b919050565b600160056000828254620017e69190620044d4565b92505081905550565b620017fa82620014e5565b6200180f816200180962002c7f565b62002e81565b6200181b838362002f29565b505050565b6200182a62002c7f565b73ffffffffffffffffffffffffffffffffffffffff168173ffffffffffffffffffffffffffffffffffffffff16146200189a576040517f08c379a00000000000000000000000000000000000000000000000000000000081526004016200189190620043d2565b60405180910390fd5b620018a682826200300e565b5050565b60055481565b600b5481565b60008173ffffffffffffffffffffffffffffffffffffffff166370a08231306040518263ffffffff1660e01b8152600401620018f39190620041ff565b60206040518083038186803b1580156200190c57600080fd5b505afa15801562001921573d6000803e3d6000fd5b505050506040513d601f19601f8201168201806040525081019062001947919062003e36565b9050919050565b6200195862002c7f565b73ffffffffffffffffffffffffffffffffffffffff166200197862001c76565b73ffffffffffffffffffffffffffffffffffffffff1614620019d1576040517f08c379a0000000000000000000000000000000000000000000000000000000008152600401620019c8906200438e565b60405180910390fd5b620019dd6000620030f5565b565b620019ee6000801b3362001c9f565b620019f857600080fd5b6001600260003373ffffffffffffffffffffffffffffffffffffffff1673ffffffffffffffffffffffffffffffffffffffff16815260200190815260200160002060006101000a81548160ff021916908315150217905550565b600062001a5e62002c7f565b73ffffffffffffffffffffffffffffffffffffffff1662001a7e62001c76565b73ffffffffffffffffffffffffffffffffffffffff161462001ad7576040517f08c379a000000000000000000000000000000000000000000000000000000000815260040162001ace906200438e565b60405180910390fd5b600260008373ffffffffffffffffffffffffffffffffffffffff1673ffffffffffffffffffffffffffffffffffffffff16815260200190815260200160002060009054906101000a900460ff1662001bdb576001600260008473ffffffffffffffffffffffffffffffffffffffff1673ffffffffffffffffffffffffffffffffffffffff16815260200190815260200160002060006101000a81548160ff0219169083151502179055507fd1bba68c128cc3f427e5831b3c6f99f480b6efa6b9e80c757768f6124158cc3f8260405162001bb29190620041ff565b60405180910390a160016003600082825462001bcf9190620044d4565b92505081905550600190505b919050565b6006805462001bef90620046ea565b80601f016020809104026020016040519081016040528092919081815260200182805462001c1d90620046ea565b801562001c6e5780601f1062001c425761010080835404028352916020019162001c6e565b820191906000526020600020905b81548152906001019060200180831162001c5057829003601f168201915b505050505081565b60008060029054906101000a900473ffffffffffffffffffffffffffffffffffffffff16905090565b60006001600084815260200190815260200160002060000160008373ffffffffffffffffffffffffffffffffffffffff1673ffffffffffffffffffffffffffffffffffffffff16815260200190815260200160002060009054906101000a900460ff16905092915050565b600d60009054906101000a900473ffffffffffffffffffffffffffffffffffffffff1681565b60026020528060005260406000206000915054906101000a900460ff1681565b62001d5a62002c7f565b73ffffffffffffffffffffffffffffffffffffffff1662001d7a62001c76565b73ffffffffffffffffffffffffffffffffffffffff161462001dd3576040517f08c379a000000000000000000000000000000000000000000000000000000000815260040162001dca906200438e565b60405180910390fd5b60005b600c60008381526020019081526020016000208054905081101562001ef95762001ee2600c6000848152602001908152602001600020828154811062001e215762001e206200489b565b5b906000526020600020906002020160000160006002811062001e485762001e476200489b565b5b0160009054906101000a900473ffffffffffffffffffffffffffffffffffffffff16600c6000858152602001908152602001600020838154811062001e925762001e916200489b565b5b906000526020600020906002020160000160016002811062001eb95762001eb86200489b565b5b0160009054906101000a900473ffffffffffffffffffffffffffffffffffffffff16846200219b565b50808062001ef09062004756565b91505062001dd6565b5050565b6000801b81565b62001f0e62002c7f565b73ffffffffffffffffffffffffffffffffffffffff1662001f2e62001c76565b73ffffffffffffffffffffffffffffffffffffffff161462001f87576040517f08c379a000000000000000000000000000000000000000000000000000000000815260040162001f7e906200438e565b60405180910390fd5b6000600960016101000a81548160ff021916908315150217905550565b62001fae62002c7f565b73ffffffffffffffffffffffffffffffffffffffff1662001fce62001c76565b73ffffffffffffffffffffffffffffffffffffffff161462002027576040517f08c379a00000000000000000000000000000000000000000000000000000000081526004016200201e906200438e565b60405180910390fd5b6001600960016101000a81548160ff021916908315150217905550565b600260003373ffffffffffffffffffffffffffffffffffffffff1673ffffffffffffffffffffffffffffffffffffffff16815260200190815260200160002060009054906101000a900460ff1680620020a95750600460009054906101000a900460ff165b620020b357600080fd5b600960009054906101000a900460ff161562002106576040517f08c379a0000000000000000000000000000000000000000000000000000000008152600401620020fd90620043b0565b60405180910390fd5b6007339080600181540180825580915050600190039060005260206000200160009091909190916101000a81548173ffffffffffffffffffffffffffffffffffffffff021916908373ffffffffffffffffffffffffffffffffffffffff16021790555062002199600e60009054906101000a900473ffffffffffffffffffffffffffffffffffffffff16600b54620031ba565b565b6000620021a762002c7f565b73ffffffffffffffffffffffffffffffffffffffff16620021c762001c76565b73ffffffffffffffffffffffffffffffffffffffff161462002220576040517f08c379a000000000000000000000000000000000000000000000000000000000815260040162002217906200438e565b60405180910390fd5b6000600a60008673ffffffffffffffffffffffffffffffffffffffff1673ffffffffffffffffffffffffffffffffffffffff168152602001908152602001600020805480602002602001604051908101604052809291908181526020018280548015620022ad57602002820191906000526020600020905b81548152602001906001019080831162002298575b505050505090506000600a60008673ffffffffffffffffffffffffffffffffffffffff1673ffffffffffffffffffffffffffffffffffffffff1681526020019081526020016000208054806020026020016040519081016040528092919081815260200182805480156200234157602002820191906000526020600020905b8154815260200190600101908083116200232c575b5050505050905060008060005b8451811015620025b4576000600f60009054906101000a900473ffffffffffffffffffffffffffffffffffffffff1673ffffffffffffffffffffffffffffffffffffffff1663d4313da8878481518110620023ae57620023ad6200489b565b5b60200260200101516040518263ffffffff1660e01b8152600401620023d49190620043f4565b60006040518083038186803b158015620023ed57600080fd5b505afa15801562002402573d6000803e3d6000fd5b505050506040513d6000823e3d601f19601f820116820180604052508101906200242d919062003bd3565b90506000600f60009054906101000a900473ffffffffffffffffffffffffffffffffffffffff1673ffffffffffffffffffffffffffffffffffffffff1663d4313da88785815181106200248557620024846200489b565b5b60200260200101516040518263ffffffff1660e01b8152600401620024ab9190620043f4565b60006040518083038186803b158015620024c457600080fd5b505afa158015620024d9573d6000803e3d6000fd5b505050506040513d6000823e3d601f19601f8201168201806040525081019062002504919062003bd3565b905060008260018451620025199190620045ca565b815181106200252d576200252c6200489b565b5b60200260200101519050600082600184516200254a9190620045ca565b815181106200255e576200255d6200489b565b5b60200260200101519050808211156200258857600187620025809190620044d4565b96506200259a565b600186620025979190620044d4565b95505b505050508080620025ab9062004756565b9150506200234e565b508082111562002681576001600860008a73ffffffffffffffffffffffffffffffffffffffff1673ffffffffffffffffffffffffffffffffffffffff16815260200190815260200160002087600881106200261457620026136200489b565b5b01819055506000600860008973ffffffffffffffffffffffffffffffffffffffff1673ffffffffffffffffffffffffffffffffffffffff16815260200190815260200160002087600881106200266f576200266e6200489b565b5b0181905550879450505050506200273f565b6001600860008973ffffffffffffffffffffffffffffffffffffffff1673ffffffffffffffffffffffffffffffffffffffff1681526020019081526020016000208760088110620026d757620026d66200489b565b5b01819055506000600860008a73ffffffffffffffffffffffffffffffffffffffff1673ffffffffffffffffffffffffffffffffffffffff16815260200190815260200160002087600881106200273257620027316200489b565b5b0181905550869450505050505b9392505050565b6200275182620014e5565b62002766816200276062002c7f565b62002e81565b6200277283836200300e565b505050565b600460009054906101000a900460ff1681565b60006200279662002c7f565b73ffffffffffffffffffffffffffffffffffffffff16620027b662001c76565b73ffffffffffffffffffffffffffffffffffffffff16146200280f576040517f08c379a000000000000000000000000000000000000000000000000000000000815260040162002806906200438e565b60405180910390fd5b60005b82518110156200288157620028448382815181106200283657620028356200489b565b5b602002602001015162001a52565b156200286b576001600360008282546200285f9190620044d4565b92505081905550600191505b8080620028789062004756565b91505062002812565b50919050565b6200289162002c7f565b73ffffffffffffffffffffffffffffffffffffffff16620028b162001c76565b73ffffffffffffffffffffffffffffffffffffffff16146200290a576040517f08c379a000000000000000000000000000000000000000000000000000000000815260040162002901906200438e565b60405180910390fd5b6001600960006101000a81548160ff021916908315150217905550565b600080600090506000601160009054906101000a900473ffffffffffffffffffffffffffffffffffffffff1673ffffffffffffffffffffffffffffffffffffffff166306575c896040518163ffffffff1660e01b815260040160206040518083038186803b1580156200299957600080fd5b505afa158015620029ae573d6000803e3d6000fd5b505050506040513d601f19601f82011682018060405250810190620029d4919062003e36565b905060005b81811162002a5c57600860003373ffffffffffffffffffffffffffffffffffffffff1673ffffffffffffffffffffffffffffffffffffffff168152602001908152602001600020816008811062002a355762002a346200489b565b5b01548362002a449190620044d4565b9250808062002a539062004756565b915050620029d9565b50819250505090565b62002a6f62002c7f565b73ffffffffffffffffffffffffffffffffffffffff1662002a8f62001c76565b73ffffffffffffffffffffffffffffffffffffffff161462002ae8576040517f08c379a000000000000000000000000000000000000000000000000000000000815260040162002adf906200438e565b60405180910390fd5b600073ffffffffffffffffffffffffffffffffffffffff168173ffffffffffffffffffffffffffffffffffffffff16141562002b5b576040517f08c379a000000000000000000000000000000000000000000000000000000000815260040162002b529062004306565b60405180910390fd5b62002b6681620030f5565b50565b600960019054906101000a900460ff161562002bbc576040517f08c379a000000000000000000000000000000000000000000000000000000000815260040162002bb3906200434a565b60405180910390fd5b80600a60003373ffffffffffffffffffffffffffffffffffffffff1673ffffffffffffffffffffffffffffffffffffffff168152602001908152602001600020908051906020019062002c11929190620036e1565b5050565b60007f01ffc9a7000000000000000000000000000000000000000000000000000000007bffffffffffffffffffffffffffffffffffffffffffffffffffffffff1916827bffffffffffffffffffffffffffffffffffffffffffffffffffffffff1916149050919050565b600033905090565b62002d218160405160240162002c9e9190620042c0565b6040516020818303038152906040527f41304fac000000000000000000000000000000000000000000000000000000007bffffffffffffffffffffffffffffffffffffffffffffffffffffffff19166020820180517bffffffffffffffffffffffffffffffffffffffffffffffffffffffff8381831617835250505050620032d5565b50565b62002dbe8160405160240162002d3b9190620043f4565b6040516020818303038152906040527ff5b1bba9000000000000000000000000000000000000000000000000000000007bffffffffffffffffffffffffffffffffffffffffffffffffffffffff19166020820180517bffffffffffffffffffffffffffffffffffffffffffffffffffffffff8381831617835250505050620032d5565b50565b62002e5b8160405160240162002dd89190620041ff565b6040516020818303038152906040527f2c2ecbc2000000000000000000000000000000000000000000000000000000007bffffffffffffffffffffffffffffffffffffffffffffffffffffffff19166020820180517bffffffffffffffffffffffffffffffffffffffffffffffffffffffff8381831617835250505050620032d5565b50565b600062002e6b30620032fe565b15905090565b62002e7d828262002f29565b5050565b62002e8d828262001c9f565b62002f255762002eb58173ffffffffffffffffffffffffffffffffffffffff16601462003321565b62002ec58360001c602062003321565b60405160200162002ed89291906200416b565b6040516020818303038152906040526040517f08c379a000000000000000000000000000000000000000000000000000000000815260040162002f1c9190620042c0565b60405180910390fd5b5050565b62002f35828262001c9f565b6200300a57600180600084815260200190815260200160002060000160008373ffffffffffffffffffffffffffffffffffffffff1673ffffffffffffffffffffffffffffffffffffffff16815260200190815260200160002060006101000a81548160ff02191690831515021790555062002faf62002c7f565b73ffffffffffffffffffffffffffffffffffffffff168173ffffffffffffffffffffffffffffffffffffffff16837f2f8788117e7eff1d82e926ec794901d17c78024a50270940304540a733656f0d60405160405180910390a45b5050565b6200301a828262001c9f565b15620030f15760006001600084815260200190815260200160002060000160008373ffffffffffffffffffffffffffffffffffffffff1673ffffffffffffffffffffffffffffffffffffffff16815260200190815260200160002060006101000a81548160ff0219169083151502179055506200309662002c7f565b73ffffffffffffffffffffffffffffffffffffffff168173ffffffffffffffffffffffffffffffffffffffff16837ff6391f5c32d9c69d2a47ea670b442974b53935d1edc7fd64eb21e047a839171b60405160405180910390a45b5050565b60008060029054906101000a900473ffffffffffffffffffffffffffffffffffffffff16905081600060026101000a81548173ffffffffffffffffffffffffffffffffffffffff021916908373ffffffffffffffffffffffffffffffffffffffff1602179055508173ffffffffffffffffffffffffffffffffffffffff168173ffffffffffffffffffffffffffffffffffffffff167f8be0079c531659141344cd1fd0a4f28419497f9722a3daafe3b4186f6b6457e060405160405180910390a35050565b6000811162003200576040517f08c379a0000000000000000000000000000000000000000000000000000000008152600401620031f79062004328565b60405180910390fd5b8173ffffffffffffffffffffffffffffffffffffffff166323b872dd3330846040518463ffffffff1660e01b81526004016200323f939291906200421c565b602060405180830381600087803b1580156200325a57600080fd5b505af11580156200326f573d6000803e3d6000fd5b505050506040513d601f19601f8201168201806040525081019062003295919062003c24565b507f9e71bc8eea02a63969f509818f2dafb9254532904319f9dbda79b67bd34a5f3d3382604051620032c992919062004259565b60405180910390a15050565b60008151905060006a636f6e736f6c652e6c6f679050602083016000808483855afa5050505050565b6000808273ffffffffffffffffffffffffffffffffffffffff163b119050919050565b60606000600283600262003336919062004569565b620033429190620044d4565b67ffffffffffffffff8111156200335e576200335d620048ca565b5b6040519080825280601f01601f191660200182016040528015620033915781602001600182028036833780820191505090505b5090507f300000000000000000000000000000000000000000000000000000000000000081600081518110620033cc57620033cb6200489b565b5b60200101907effffffffffffffffffffffffffffffffffffffffffffffffffffffffffffff1916908160001a9053507f7800000000000000000000000000000000000000000000000000000000000000816001815181106200343357620034326200489b565b5b60200101907effffffffffffffffffffffffffffffffffffffffffffffffffffffffffffff1916908160001a9053506000600184600262003475919062004569565b620034819190620044d4565b90505b60018111156200352b577f3031323334353637383961626364656600000000000000000000000000000000600f861660108110620034c757620034c66200489b565b5b1a60f81b828281518110620034e157620034e06200489b565b5b60200101907effffffffffffffffffffffffffffffffffffffffffffffffffffffffffffff1916908160001a905350600485901c9450806200352390620046bb565b905062003484565b506000841462003572576040517f08c379a00000000000000000000000000000000000000000000000000000000081526004016200356990620042e4565b60405180910390fd5b8091505092915050565b6040518060800160405280600490602082028036833780820191505090505090565b6040518060400160405280600290602082028036833780820191505090505090565b82600281019282156200362f579160200282015b828111156200362e5782518260006101000a81548173ffffffffffffffffffffffffffffffffffffffff021916908373ffffffffffffffffffffffffffffffffffffffff16021790555091602001919060010190620035d4565b5b5090506200363e919062003733565b5090565b8280546200365090620046ea565b90600052602060002090601f016020900481019282620036745760008555620036c0565b82601f106200368f57803560ff1916838001178555620036c0565b82800160010185558215620036c0579182015b82811115620036bf578235825591602001919060010190620036a2565b5b509050620036cf919062003733565b5090565b610f9f8062004bbf83390190565b82805482825590600052602060002090810192821562003720579160200282015b828111156200371f57825182559160200191906001019062003702565b5b5090506200372f919062003733565b5090565b5b808211156200374e57600081600090555060010162003734565b5090565b60006200376962003763846200443a565b62004411565b905080838252602082019050828560208602820111156200378f576200378e62004903565b5b60005b85811015620037c35781620037a88882620038c3565b84526020840193506020830192505060018101905062003792565b5050509392505050565b6000620037e4620037de8462004469565b62004411565b905080838252602082019050828560208602820111156200380a576200380962004903565b5b60005b858110156200383e578162003823888262003a2e565b8452602084019350602083019250506001810190506200380d565b5050509392505050565b60006200385f620038598462004469565b62004411565b9050808382526020820190508285602086028201111562003885576200388462004903565b5b60005b85811015620038b957816200389e888262003a45565b84526020840193506020830192505060018101905062003888565b5050509392505050565b600081359050620038d48162004b3c565b92915050565b600082601f830112620038f257620038f1620048fe565b5b81356200390484826020860162003752565b91505092915050565b600082601f830112620039255762003924620048fe565b5b813562003937848260208601620037cd565b91505092915050565b600082601f830112620039585762003957620048fe565b5b81516200396a84826020860162003848565b91505092915050565b600081359050620039848162004b56565b92915050565b6000815190506200399b8162004b56565b92915050565b600081359050620039b28162004b70565b92915050565b600081359050620039c98162004b8a565b92915050565b60008083601f840112620039e857620039e7620048fe565b5b8235905067ffffffffffffffff81111562003a085762003a07620048f9565b5b60208301915083600182028301111562003a275762003a2662004903565b5b9250929050565b60008135905062003a3f8162004ba4565b92915050565b60008151905062003a568162004ba4565b92915050565b60006020828403121562003a755762003a746200490d565b5b600062003a8584828501620038c3565b91505092915050565b60008060006060848603121562003aaa5762003aa96200490d565b5b600062003aba86828701620038c3565b935050602062003acd86828701620038c3565b925050604062003ae08682870162003a2e565b9150509250925092565b6000806040838503121562003b045762003b036200490d565b5b600062003b1485828601620038c3565b925050602062003b278582860162003a2e565b9150509250929050565b60006020828403121562003b4a5762003b496200490d565b5b600082013567ffffffffffffffff81111562003b6b5762003b6a62004908565b5b62003b7984828501620038da565b91505092915050565b60006020828403121562003b9b5762003b9a6200490d565b5b600082013567ffffffffffffffff81111562003bbc5762003bbb62004908565b5b62003bca848285016200390d565b91505092915050565b60006020828403121562003bec5762003beb6200490d565b5b600082015167ffffffffffffffff81111562003c0d5762003c0c62004908565b5b62003c1b8482850162003940565b91505092915050565b60006020828403121562003c3d5762003c3c6200490d565b5b600062003c4d848285016200398a565b91505092915050565b60006020828403121562003c6f5762003c6e6200490d565b5b600062003c7f84828501620039a1565b91505092915050565b6000806040838503121562003ca25762003ca16200490d565b5b600062003cb285828601620039a1565b925050602062003cc585828601620038c3565b9150509250929050565b60006020828403121562003ce85762003ce76200490d565b5b600062003cf884828501620039b8565b91505092915050565b6000806000806000806000806000806101208b8d03121562003d285762003d276200490d565b5b60008b013567ffffffffffffffff81111562003d495762003d4862004908565b5b62003d578d828e01620039cf565b9a509a5050602062003d6c8d828e0162003a2e565b985050604062003d7f8d828e0162003a2e565b975050606062003d928d828e0162003973565b965050608062003da58d828e01620038c3565b95505060a062003db88d828e01620038c3565b94505060c062003dcb8d828e01620038c3565b93505060e062003dde8d828e01620038c3565b92505061010062003df28d828e01620038c3565b9150509295989b9194979a5092959850565b60006020828403121562003e1d5762003e1c6200490d565b5b600062003e2d8482850162003a2e565b91505092915050565b60006020828403121562003e4f5762003e4e6200490d565b5b600062003e5f8482850162003a45565b91505092915050565b62003e738162004605565b82525050565b62003e8e62003e888262004605565b620047a4565b82525050565b62003e9f8162004619565b82525050565b62003eb08162004625565b82525050565b600062003ec382620044ad565b62003ecf8185620044b8565b935062003ee181856020860162004685565b62003eec8162004912565b840191505092915050565b600062003f0482620044ad565b62003f108185620044c9565b935062003f2281856020860162004685565b80840191505092915050565b6000815462003f3d81620046ea565b62003f498186620044c9565b9450600182166000811462003f67576001811462003f795762003fb0565b60ff1983168652818601935062003fb0565b62003f848562004498565b60005b8381101562003fa85781548189015260018201915060208101905062003f87565b838801955050505b50505092915050565b600062003fc8602083620044b8565b915062003fd58262004930565b602082019050919050565b600062003fef602683620044b8565b915062003ffc8262004959565b604082019050919050565b600062004016600e83620044b8565b91506200402382620049a8565b602082019050919050565b60006200403d601e83620044b8565b91506200404a82620049d1565b602082019050919050565b600062004064602e83620044b8565b91506200407182620049fa565b604082019050919050565b60006200408b602083620044b8565b9150620040988262004a49565b602082019050919050565b6000620040b2601783620044c9565b9150620040bf8262004a72565b601782019050919050565b6000620040d9601783620044b8565b9150620040e68262004a9b565b602082019050919050565b600062004100601183620044c9565b91506200410d8262004ac4565b601182019050919050565b600062004127602f83620044b8565b9150620041348262004aed565b604082019050919050565b6200414a816200467b565b82525050565b620041656200415f826200467b565b620047cc565b82525050565b60006200417882620040a3565b915062004186828562003ef7565b91506200419382620040f1565b9150620041a1828462003ef7565b91508190509392505050565b6000620041bb828762004150565b602082019150620041cd828662003e79565b601482019150620041df828562004150565b602082019150620041f1828462003f2e565b915081905095945050505050565b600060208201905062004216600083018462003e68565b92915050565b600060608201905062004233600083018662003e68565b62004242602083018562003e68565b6200425160408301846200413f565b949350505050565b600060408201905062004270600083018562003e68565b6200427f60208301846200413f565b9392505050565b60006020820190506200429d600083018462003e94565b92915050565b6000602082019050620042ba600083018462003ea5565b92915050565b60006020820190508181036000830152620042dc818462003eb6565b905092915050565b60006020820190508181036000830152620042ff8162003fb9565b9050919050565b60006020820190508181036000830152620043218162003fe0565b9050919050565b60006020820190508181036000830152620043438162004007565b9050919050565b6000602082019050818103600083015262004365816200402e565b9050919050565b60006020820190508181036000830152620043878162004055565b9050919050565b60006020820190508181036000830152620043a9816200407c565b9050919050565b60006020820190508181036000830152620043cb81620040ca565b9050919050565b60006020820190508181036000830152620043ed8162004118565b9050919050565b60006020820190506200440b60008301846200413f565b92915050565b60006200441d62004430565b90506200442b828262004720565b919050565b6000604051905090565b600067ffffffffffffffff821115620044585762004457620048ca565b5b602082029050602081019050919050565b600067ffffffffffffffff821115620044875762004486620048ca565b5b602082029050602081019050919050565b60008190508160005260206000209050919050565b600081519050919050565b600082825260208201905092915050565b600081905092915050565b6000620044e1826200467b565b9150620044ee836200467b565b9250827fffffffffffffffffffffffffffffffffffffffffffffffffffffffffffffffff038211156200452657620045256200480e565b5b828201905092915050565b60006200453e826200467b565b91506200454b836200467b565b9250826200455e576200455d6200483d565b5b828204905092915050565b600062004576826200467b565b915062004583836200467b565b9250817fffffffffffffffffffffffffffffffffffffffffffffffffffffffffffffffff0483118215151615620045bf57620045be6200480e565b5b828202905092915050565b6000620045d7826200467b565b9150620045e4836200467b565b925082821015620045fa57620045f96200480e565b5b828203905092915050565b600062004612826200465b565b9050919050565b60008115159050919050565b6000819050919050565b60007fffffffff0000000000000000000000000000000000000000000000000000000082169050919050565b600073ffffffffffffffffffffffffffffffffffffffff82169050919050565b6000819050919050565b60005b83811015620046a557808201518184015260208101905062004688565b83811115620046b5576000848401525b50505050565b6000620046c8826200467b565b91506000821415620046df57620046de6200480e565b5b600182039050919050565b600060028204905060018216806200470357607f821691505b602082108114156200471a57620047196200486c565b5b50919050565b6200472b8262004912565b810181811067ffffffffffffffff821117156200474d576200474c620048ca565b5b80604052505050565b600062004763826200467b565b91507fffffffffffffffffffffffffffffffffffffffffffffffffffffffffffffffff8214156200479957620047986200480e565b5b600182019050919050565b6000620047b182620047b8565b9050919050565b6000620047c58262004923565b9050919050565b6000819050919050565b6000620047e3826200467b565b9150620047f0836200467b565b9250826200480357620048026200483d565b5b828206905092915050565b7f4e487b7100000000000000000000000000000000000000000000000000000000600052601160045260246000fd5b7f4e487b7100000000000000000000000000000000000000000000000000000000600052601260045260246000fd5b7f4e487b7100000000000000000000000000000000000000000000000000000000600052602260045260246000fd5b7f4e487b7100000000000000000000000000000000000000000000000000000000600052603260045260246000fd5b7f4e487b7100000000000000000000000000000000000000000000000000000000600052604160045260246000fd5b600080fd5b600080fd5b600080fd5b600080fd5b600080fd5b6000601f19601f8301169050919050565b60008160601b9050919050565b7f537472696e67733a20686578206c656e67746820696e73756666696369656e74600082015250565b7f4f776e61626c653a206e6577206f776e657220697320746865207a65726f206160008201527f6464726573730000000000000000000000000000000000000000000000000000602082015250565b7f43616e6e6f74207374616b652030000000000000000000000000000000000000600082015250565b7f6c696e657570206973206c6f636b656420666f7220746865207765656b210000600082015250565b7f496e697469616c697a61626c653a20636f6e747261637420697320616c72656160008201527f647920696e697469616c697a6564000000000000000000000000000000000000602082015250565b7f4f776e61626c653a2063616c6c6572206973206e6f7420746865206f776e6572600082015250565b7f416363657373436f6e74726f6c3a206163636f756e7420000000000000000000600082015250565b7f4c656167756520456e74727920697320436c6f73656421000000000000000000600082015250565b7f206973206d697373696e6720726f6c6520000000000000000000000000000000600082015250565b7f416363657373436f6e74726f6c3a2063616e206f6e6c792072656e6f756e636560008201527f20726f6c657320666f722073656c660000000000000000000000000000000000602082015250565b62004b478162004605565b811462004b5357600080fd5b50565b62004b618162004619565b811462004b6d57600080fd5b50565b62004b7b8162004625565b811462004b8757600080fd5b50565b62004b95816200462f565b811462004ba157600080fd5b50565b62004baf816200467b565b811462004bbb57600080fd5b5056fe608060405234801561001057600080fd5b5061002d61002261003260201b60201c565b61003a60201b60201c565b6100fe565b600033905090565b60008060009054906101000a900473ffffffffffffffffffffffffffffffffffffffff169050816000806101000a81548173ffffffffffffffffffffffffffffffffffffffff021916908373ffffffffffffffffffffffffffffffffffffffff1602179055508173ffffffffffffffffffffffffffffffffffffffff168173ffffffffffffffffffffffffffffffffffffffff167f8be0079c531659141344cd1fd0a4f28419497f9722a3daafe3b4186f6b6457e060405160405180910390a35050565b610e928061010d6000396000f3fe608060405234801561001057600080fd5b50600436106100935760003560e01c80638da5cb5b116100665780638da5cb5b146101325780639b19251a14610150578063dc9a153514610180578063e2ec6ec31461019e578063f2fde38b146101ce57610093565b806324953eaa14610098578063286dd3f5146100c8578063715018a6146100f85780637b9417c814610102575b600080fd5b6100b260048036038101906100ad9190610a4a565b6101ea565b6040516100bf9190610b12565b60405180910390f35b6100e260048036038101906100dd9190610a1d565b6102d4565b6040516100ef9190610b12565b60405180910390f35b610100610457565b005b61011c60048036038101906101179190610a1d565b6104df565b6040516101299190610b12565b60405180910390f35b61013a610660565b6040516101479190610af7565b60405180910390f35b61016a60048036038101906101659190610a1d565b610689565b6040516101779190610b12565b60405180910390f35b6101886106a9565b6040516101959190610b12565b60405180910390f35b6101b860048036038101906101b39190610a4a565b6106bc565b6040516101c59190610b12565b60405180910390f35b6101e860048036038101906101e39190610a1d565b6107a6565b005b60006101f461089e565b73ffffffffffffffffffffffffffffffffffffffff16610212610660565b73ffffffffffffffffffffffffffffffffffffffff1614610268576040517f08c379a000000000000000000000000000000000000000000000000000000000815260040161025f90610b4d565b60405180910390fd5b60005b82518110156102ce5761029783828151811061028a57610289610d4a565b5b60200260200101516102d4565b156102bb576001600260008282546102af9190610c25565b92505081905550600191505b80806102c690610cd2565b91505061026b565b50919050565b60006102de61089e565b73ffffffffffffffffffffffffffffffffffffffff166102fc610660565b73ffffffffffffffffffffffffffffffffffffffff1614610352576040517f08c379a000000000000000000000000000000000000000000000000000000000815260040161034990610b4d565b60405180910390fd5b600160008373ffffffffffffffffffffffffffffffffffffffff1673ffffffffffffffffffffffffffffffffffffffff16815260200190815260200160002060009054906101000a900460ff1615610452576000600160008473ffffffffffffffffffffffffffffffffffffffff1673ffffffffffffffffffffffffffffffffffffffff16815260200190815260200160002060006101000a81548160ff0219169083151502179055507ff1abf01a1043b7c244d128e8595cf0c1d10743b022b03a02dffd8ca3bf729f5a8260405161042b9190610af7565b60405180910390a16001600260008282546104469190610c25565b92505081905550600190505b919050565b61045f61089e565b73ffffffffffffffffffffffffffffffffffffffff1661047d610660565b73ffffffffffffffffffffffffffffffffffffffff16146104d3576040517f08c379a00000000000000000000000000000000000000000000000000000000081526004016104ca90610b4d565b60405180910390fd5b6104dd60006108a6565b565b60006104e961089e565b73ffffffffffffffffffffffffffffffffffffffff16610507610660565b73ffffffffffffffffffffffffffffffffffffffff161461055d576040517f08c379a000000000000000000000000000000000000000000000000000000000815260040161055490610b4d565b60405180910390fd5b600160008373ffffffffffffffffffffffffffffffffffffffff1673ffffffffffffffffffffffffffffffffffffffff16815260200190815260200160002060009054906101000a900460ff1661065b5760018060008473ffffffffffffffffffffffffffffffffffffffff1673ffffffffffffffffffffffffffffffffffffffff16815260200190815260200160002060006101000a81548160ff0219169083151502179055507fd1bba68c128cc3f427e5831b3c6f99f480b6efa6b9e80c757768f6124158cc3f826040516106349190610af7565b60405180910390a160016002600082825461064f9190610bcf565b92505081905550600190505b919050565b60008060009054906101000a900473ffffffffffffffffffffffffffffffffffffffff16905090565b60016020528060005260406000206000915054906101000a900460ff1681565b600360009054906101000a900460ff1681565b60006106c661089e565b73ffffffffffffffffffffffffffffffffffffffff166106e4610660565b73ffffffffffffffffffffffffffffffffffffffff161461073a576040517f08c379a000000000000000000000000000000000000000000000000000000000815260040161073190610b4d565b60405180910390fd5b60005b82518110156107a05761076983828151811061075c5761075b610d4a565b5b60200260200101516104df565b1561078d576001600260008282546107819190610bcf565b92505081905550600191505b808061079890610cd2565b91505061073d565b50919050565b6107ae61089e565b73ffffffffffffffffffffffffffffffffffffffff166107cc610660565b73ffffffffffffffffffffffffffffffffffffffff1614610822576040517f08c379a000000000000000000000000000000000000000000000000000000000815260040161081990610b4d565b60405180910390fd5b600073ffffffffffffffffffffffffffffffffffffffff168173ffffffffffffffffffffffffffffffffffffffff161415610892576040517f08c379a000000000000000000000000000000000000000000000000000000000815260040161088990610b2d565b60405180910390fd5b61089b816108a6565b50565b600033905090565b60008060009054906101000a900473ffffffffffffffffffffffffffffffffffffffff169050816000806101000a81548173ffffffffffffffffffffffffffffffffffffffff021916908373ffffffffffffffffffffffffffffffffffffffff1602179055508173ffffffffffffffffffffffffffffffffffffffff168173ffffffffffffffffffffffffffffffffffffffff167f8be0079c531659141344cd1fd0a4f28419497f9722a3daafe3b4186f6b6457e060405160405180910390a35050565b600061097d61097884610b92565b610b6d565b905080838252602082019050828560208602820111156109a05761099f610dad565b5b60005b858110156109d057816109b688826109da565b8452602084019350602083019250506001810190506109a3565b5050509392505050565b6000813590506109e981610e45565b92915050565b600082601f830112610a0457610a03610da8565b5b8135610a1484826020860161096a565b91505092915050565b600060208284031215610a3357610a32610db7565b5b6000610a41848285016109da565b91505092915050565b600060208284031215610a6057610a5f610db7565b5b600082013567ffffffffffffffff811115610a7e57610a7d610db2565b5b610a8a848285016109ef565b91505092915050565b610a9c81610c59565b82525050565b610aab81610c6b565b82525050565b6000610abe602683610bbe565b9150610ac982610dcd565b604082019050919050565b6000610ae1602083610bbe565b9150610aec82610e1c565b602082019050919050565b6000602082019050610b0c6000830184610a93565b92915050565b6000602082019050610b276000830184610aa2565b92915050565b60006020820190508181036000830152610b4681610ab1565b9050919050565b60006020820190508181036000830152610b6681610ad4565b9050919050565b6000610b77610b88565b9050610b838282610ca1565b919050565b6000604051905090565b600067ffffffffffffffff821115610bad57610bac610d79565b5b602082029050602081019050919050565b600082825260208201905092915050565b6000610bda82610c97565b9150610be583610c97565b9250827fffffffffffffffffffffffffffffffffffffffffffffffffffffffffffffffff03821115610c1a57610c19610d1b565b5b828201905092915050565b6000610c3082610c97565b9150610c3b83610c97565b925082821015610c4e57610c4d610d1b565b5b828203905092915050565b6000610c6482610c77565b9050919050565b60008115159050919050565b600073ffffffffffffffffffffffffffffffffffffffff82169050919050565b6000819050919050565b610caa82610dbc565b810181811067ffffffffffffffff82111715610cc957610cc8610d79565b5b80604052505050565b6000610cdd82610c97565b91507fffffffffffffffffffffffffffffffffffffffffffffffffffffffffffffffff821415610d1057610d0f610d1b565b5b600182019050919050565b7f4e487b7100000000000000000000000000000000000000000000000000000000600052601160045260246000fd5b7f4e487b7100000000000000000000000000000000000000000000000000000000600052603260045260246000fd5b7f4e487b7100000000000000000000000000000000000000000000000000000000600052604160045260246000fd5b600080fd5b600080fd5b600080fd5b600080fd5b6000601f19601f8301169050919050565b7f4f776e61626c653a206e6577206f776e657220697320746865207a65726f206160008201527f6464726573730000000000000000000000000000000000000000000000000000602082015250565b7f4f776e61626c653a2063616c6c6572206973206e6f7420746865206f776e6572600082015250565b610e4e81610c59565b8114610e5957600080fd5b5056fea2646970667358221220a21085165a95bba102b3fe59880e17f3027964706b8a63561e6b8ccd43ba90fb64736f6c63430008070033a26469706673582212209a69f2e8cf03b5104f7c58753d92e8aeb1be92dca58d9da0a4a7c905c8102d0664736f6c63430008070033",
  "linkReferences": {},
  "deployedLinkReferences": {}
}