{
  "_format": "hh-sol-artifact-1",
  "contractName": "GameLogic",
  "sourceName": "contracts/GameLogic.sol",
  "abi": [
    {
      "inputs": [
        {
          "internalType": "address",
          "name": "user",
          "type": "address"
        }
      ],
      "name": "addUserToLeague",
      "outputs": [],
      "stateMutability": "nonpayable",
      "type": "function"
    },
    {
      "inputs": [],
      "name": "addUserToWhitelist",
      "outputs": [],
      "stateMutability": "nonpayable",
      "type": "function"
    },
    {
      "inputs": [],
      "name": "getLineup",
      "outputs": [
        {
          "internalType": "uint256[]",
          "name": "",
          "type": "uint256[]"
        }
      ],
      "stateMutability": "view",
      "type": "function"
    },
    {
      "inputs": [],
      "name": "incrementVersion",
      "outputs": [
        {
          "internalType": "uint256",
          "name": "",
          "type": "uint256"
        }
      ],
      "stateMutability": "nonpayable",
      "type": "function"
    },
    {
      "inputs": [
        {
          "internalType": "uint256",
          "name": "_version",
          "type": "uint256"
        },
        {
          "internalType": "uint256",
          "name": "_numWeeks",
          "type": "uint256"
        },
        {
          "internalType": "address",
          "name": "athletesDataStorage",
          "type": "address"
        }
      ],
      "name": "initialize",
      "outputs": [],
      "stateMutability": "nonpayable",
      "type": "function"
    },
    {
      "inputs": [],
      "name": "setLeagueSchedule",
      "outputs": [],
      "stateMutability": "nonpayable",
      "type": "function"
    },
    {
      "inputs": [
        {
          "internalType": "uint256[]",
          "name": "athleteIds",
          "type": "uint256[]"
        }
      ],
      "name": "setLineup",
      "outputs": [],
      "stateMutability": "nonpayable",
      "type": "function"
    }
  ],
  "bytecode": "0x608060405234801561001057600080fd5b506117e0806100206000396000f3fe608060405234801561001057600080fd5b506004361061007d5760003560e01c80637ac6aa1d1161005b5780637ac6aa1d146100c6578063a6ab36f2146100d0578063ada3a28d146100ec578063f612121a1461010a5761007d565b80630655465a14610082578063087e18a71461008c5780632cf0a1fc146100a8575b600080fd5b61008a610126565b005b6100a660048036038101906100a1919061110e565b610829565b005b6100b061088f565b6040516100bd9190611355565b60405180910390f35b6100ce6108f1565b005b6100ea60048036038101906100e59190611184565b610956565b005b6100f4610b81565b60405161010191906112f1565b60405180910390f35b610124600480360381019061011f919061113b565b610c16565b005b6101646040518060400160405280601081526020017f73657474696e67207363686564756c6500000000000000000000000000000000815250610c6d565b61016c610e95565b610174610e95565b60005b6008811015610824576101be6040518060400160405280600181526020017f0a00000000000000000000000000000000000000000000000000000000000000815250610c6d565b6101c781610d06565b6102056040518060400160405280601881526020017f2a2a2a2a2a2a2a2a2a2a2a2a2a2a2a2a2a2a2a2a2a2a2a2a0000000000000000815250610c6d565b600080600260058054905061021a91906115ec565b146102395760016005805490506102319190611416565b905080610243565b6005805490509050805b5060008360006004811061025a576102596116aa565b5b6020020151905060005b600283610271919061146c565b81101561037c5760008414156102d75780868260048110610295576102946116aa565b5b6020020181815250506002836102ab919061146c565b816102b69190611416565b8582600481106102c9576102c86116aa565b5b602002018181525050610369565b60008682600481106102ec576102eb6116aa565b5b6020020151905080868360048110610307576103066116aa565b5b6020020181815250508560028561031e919061146c565b60018461032b9190611416565b61033591906115ec565b60048110610346576103456116aa565b5b602002015187836004811061035e5761035d6116aa565b5b602002018181525050505b8080610374906115a3565b915050610264565b50600083146103bb5780856001600285610396919061146c565b6103a0919061149d565b600481106103b1576103b06116aa565b5b6020020181815250505b60005b6002836103cb919061146c565b81101561080e576103da610eb7565b6005805490508683600481106103f3576103f26116aa565b5b6020020151106104c7576040518060400160405280600589856004811061041d5761041c6116aa565b5b602002015181548110610433576104326116aa565b5b9060005260206000200160009054906101000a900473ffffffffffffffffffffffffffffffffffffffff1673ffffffffffffffffffffffffffffffffffffffff1673ffffffffffffffffffffffffffffffffffffffff168152602001600073ffffffffffffffffffffffffffffffffffffffff1673ffffffffffffffffffffffffffffffffffffffff1681525090506106cf565b6005805490508783600481106104e0576104df6116aa565b5b6020020151106105b4576040518060400160405280600073ffffffffffffffffffffffffffffffffffffffff1673ffffffffffffffffffffffffffffffffffffffff168152602001600588856004811061053d5761053c6116aa565b5b602002015181548110610553576105526116aa565b5b9060005260206000200160009054906101000a900473ffffffffffffffffffffffffffffffffffffffff1673ffffffffffffffffffffffffffffffffffffffff1673ffffffffffffffffffffffffffffffffffffffff1681525090506106ce565b604051806040016040528060058985600481106105d4576105d36116aa565b5b6020020151815481106105ea576105e96116aa565b5b9060005260206000200160009054906101000a900473ffffffffffffffffffffffffffffffffffffffff1673ffffffffffffffffffffffffffffffffffffffff1673ffffffffffffffffffffffffffffffffffffffff168152602001600588856004811061065b5761065a6116aa565b5b602002015181548110610671576106706116aa565b5b9060005260206000200160009054906101000a900473ffffffffffffffffffffffffffffffffffffffff1673ffffffffffffffffffffffffffffffffffffffff1673ffffffffffffffffffffffffffffffffffffffff1681525090505b5b6000604051806020016040528083815250905080600c6000888152602001908152602001600020600285610703919061146c565b60088110610714576107136116aa565b5b6002020160008201518160000190600261072f929190610ed9565b50905050610758816000015160006002811061074e5761074d6116aa565b5b6020020151610d9f565b6107966040518060400160405280600481526020017f2076732000000000000000000000000000000000000000000000000000000000815250610c6d565b6107bb81600001516001600281106107b1576107b06116aa565b5b6020020151610d9f565b6107f96040518060400160405280600181526020017f0a00000000000000000000000000000000000000000000000000000000000000815250610c6d565b50508080610806906115a3565b9150506103be565b505050808061081c906115a3565b915050610177565b505050565b6005819080600181540180825580915050600190039060005260206000200160009091909190916101000a81548173ffffffffffffffffffffffffffffffffffffffff021916908373ffffffffffffffffffffffffffffffffffffffff16021790555050565b60006108cf6040518060400160405280601581526020017f696e6372656d656e74696e672076657273696f6e3a0000000000000000000000815250610c6d565b600180546108dd9190611416565b6001819055506108ee600154610d06565b90565b6006339080600181540180825580915050600190039060005260206000200160009091909190916101000a81548173ffffffffffffffffffffffffffffffffffffffff021916908373ffffffffffffffffffffffffffffffffffffffff160217905550565b600060019054906101000a900460ff1661097e5760008054906101000a900460ff1615610987565b610986610e38565b5b6109c6576040517f08c379a00000000000000000000000000000000000000000000000000000000081526004016109bd90611335565b60405180910390fd5b60008060019054906101000a900460ff161590508015610a16576001600060016101000a81548160ff02191690831515021790555060016000806101000a81548160ff0219169083151502179055505b836001819055508260028190555060006004819055506040518060400160405280600b81526020017f4c6561677565204e616d6500000000000000000000000000000000000000000081525060079080519060200190610a77929190610f56565b5081600b60006101000a81548173ffffffffffffffffffffffffffffffffffffffff021916908373ffffffffffffffffffffffffffffffffffffffff1602179055506005339080600181540180825580915050600190039060005260206000200160009091909190916101000a81548173ffffffffffffffffffffffffffffffffffffffff021916908373ffffffffffffffffffffffffffffffffffffffff160217905550610b5a6040518060400160405280601281526020017f50726f787920696e697469616c697a6564210000000000000000000000000000815250610c6d565b8015610b7b5760008060016101000a81548160ff0219169083151502179055505b50505050565b6060600a60003373ffffffffffffffffffffffffffffffffffffffff1673ffffffffffffffffffffffffffffffffffffffff168152602001908152602001600020805480602002602001604051908101604052809291908181526020018280548015610c0c57602002820191906000526020600020905b815481526020019060010190808311610bf8575b5050505050905090565b80600a60003373ffffffffffffffffffffffffffffffffffffffff1673ffffffffffffffffffffffffffffffffffffffff1681526020019081526020016000209080519060200190610c69929190610fdc565b5050565b610d0381604051602401610c819190611313565b6040516020818303038152906040527f41304fac000000000000000000000000000000000000000000000000000000007bffffffffffffffffffffffffffffffffffffffffffffffffffffffff19166020820180517bffffffffffffffffffffffffffffffffffffffffffffffffffffffff8381831617835250505050610e49565b50565b610d9c81604051602401610d1a9190611355565b6040516020818303038152906040527ff5b1bba9000000000000000000000000000000000000000000000000000000007bffffffffffffffffffffffffffffffffffffffffffffffffffffffff19166020820180517bffffffffffffffffffffffffffffffffffffffffffffffffffffffff8381831617835250505050610e49565b50565b610e3581604051602401610db391906112d6565b6040516020818303038152906040527f2c2ecbc2000000000000000000000000000000000000000000000000000000007bffffffffffffffffffffffffffffffffffffffffffffffffffffffff19166020820180517bffffffffffffffffffffffffffffffffffffffffffffffffffffffff8381831617835250505050610e49565b50565b6000610e4330610e72565b15905090565b60008151905060006a636f6e736f6c652e6c6f679050602083016000808483855afa5050505050565b6000808273ffffffffffffffffffffffffffffffffffffffff163b119050919050565b6040518060800160405280600490602082028036833780820191505090505090565b6040518060400160405280600290602082028036833780820191505090505090565b8260028101928215610f45579160200282015b82811115610f445782518260006101000a81548173ffffffffffffffffffffffffffffffffffffffff021916908373ffffffffffffffffffffffffffffffffffffffff16021790555091602001919060010190610eec565b5b509050610f529190611029565b5090565b828054610f6290611540565b90600052602060002090601f016020900481019282610f845760008555610fcb565b82601f10610f9d57805160ff1916838001178555610fcb565b82800160010185558215610fcb579182015b82811115610fca578251825591602001919060010190610faf565b5b509050610fd89190611029565b5090565b828054828255906000526020600020908101928215611018579160200282015b82811115611017578251825591602001919060010190610ffc565b5b5090506110259190611029565b5090565b5b8082111561104257600081600090555060010161102a565b5090565b600061105961105484611395565b611370565b9050808382526020820190508285602086028201111561107c5761107b61170d565b5b60005b858110156110ac578161109288826110f9565b84526020840193506020830192505060018101905061107f565b5050509392505050565b6000813590506110c58161177c565b92915050565b600082601f8301126110e0576110df611708565b5b81356110f0848260208601611046565b91505092915050565b60008135905061110881611793565b92915050565b60006020828403121561112457611123611717565b5b6000611132848285016110b6565b91505092915050565b60006020828403121561115157611150611717565b5b600082013567ffffffffffffffff81111561116f5761116e611712565b5b61117b848285016110cb565b91505092915050565b60008060006060848603121561119d5761119c611717565b5b60006111ab868287016110f9565b93505060206111bc868287016110f9565b92505060406111cd868287016110b6565b9150509250925092565b60006111e383836112b8565b60208301905092915050565b6111f8816114d1565b82525050565b6000611209826113d1565b61121381856113f4565b935061121e836113c1565b8060005b8381101561124f57815161123688826111d7565b9750611241836113e7565b925050600181019050611222565b5085935050505092915050565b6000611267826113dc565b6112718185611405565b935061128181856020860161150d565b61128a8161171c565b840191505092915050565b60006112a2602e83611405565b91506112ad8261172d565b604082019050919050565b6112c181611503565b82525050565b6112d081611503565b82525050565b60006020820190506112eb60008301846111ef565b92915050565b6000602082019050818103600083015261130b81846111fe565b905092915050565b6000602082019050818103600083015261132d818461125c565b905092915050565b6000602082019050818103600083015261134e81611295565b9050919050565b600060208201905061136a60008301846112c7565b92915050565b600061137a61138b565b90506113868282611572565b919050565b6000604051905090565b600067ffffffffffffffff8211156113b0576113af6116d9565b5b602082029050602081019050919050565b6000819050602082019050919050565b600081519050919050565b600081519050919050565b6000602082019050919050565b600082825260208201905092915050565b600082825260208201905092915050565b600061142182611503565b915061142c83611503565b9250827fffffffffffffffffffffffffffffffffffffffffffffffffffffffffffffffff038211156114615761146061161d565b5b828201905092915050565b600061147782611503565b915061148283611503565b9250826114925761149161164c565b5b828204905092915050565b60006114a882611503565b91506114b383611503565b9250828210156114c6576114c561161d565b5b828203905092915050565b60006114dc826114e3565b9050919050565b600073ffffffffffffffffffffffffffffffffffffffff82169050919050565b6000819050919050565b60005b8381101561152b578082015181840152602081019050611510565b8381111561153a576000848401525b50505050565b6000600282049050600182168061155857607f821691505b6020821081141561156c5761156b61167b565b5b50919050565b61157b8261171c565b810181811067ffffffffffffffff8211171561159a576115996116d9565b5b80604052505050565b60006115ae82611503565b91507fffffffffffffffffffffffffffffffffffffffffffffffffffffffffffffffff8214156115e1576115e061161d565b5b600182019050919050565b60006115f782611503565b915061160283611503565b9250826116125761161161164c565b5b828206905092915050565b7f4e487b7100000000000000000000000000000000000000000000000000000000600052601160045260246000fd5b7f4e487b7100000000000000000000000000000000000000000000000000000000600052601260045260246000fd5b7f4e487b7100000000000000000000000000000000000000000000000000000000600052602260045260246000fd5b7f4e487b7100000000000000000000000000000000000000000000000000000000600052603260045260246000fd5b7f4e487b7100000000000000000000000000000000000000000000000000000000600052604160045260246000fd5b600080fd5b600080fd5b600080fd5b600080fd5b6000601f19601f8301169050919050565b7f496e697469616c697a61626c653a20636f6e747261637420697320616c72656160008201527f647920696e697469616c697a6564000000000000000000000000000000000000602082015250565b611785816114d1565b811461179057600080fd5b50565b61179c81611503565b81146117a757600080fd5b5056fea2646970667358221220f63e465971bd1f7ea6e8539517437d7ea1b5cd8f9acabdaede187a7ec9944b9264736f6c63430008070033",
  "linkReferences": {},
  "deployedLinkReferences": {}
}