{
  "_format": "hh-sol-artifact-1",
  "contractName": "GameLogic",
  "sourceName": "contracts/GameLogic.sol",
  "abi": [
    {
      "anonymous": false,
      "inputs": [
        {
          "indexed": true,
          "internalType": "address",
          "name": "previousOwner",
          "type": "address"
        },
        {
          "indexed": true,
          "internalType": "address",
          "name": "newOwner",
          "type": "address"
        }
      ],
      "name": "OwnershipTransferred",
      "type": "event"
    },
    {
      "inputs": [],
      "name": "incrementVersion",
      "outputs": [
        {
          "internalType": "uint256",
          "name": "",
          "type": "uint256"
        }
      ],
      "stateMutability": "nonpayable",
      "type": "function"
    },
    {
      "inputs": [
        {
          "internalType": "uint256",
          "name": "_secretNumber",
          "type": "uint256"
        }
      ],
      "name": "initialize",
      "outputs": [],
      "stateMutability": "nonpayable",
      "type": "function"
    },
    {
      "inputs": [],
      "name": "owner",
      "outputs": [
        {
          "internalType": "address",
          "name": "",
          "type": "address"
        }
      ],
      "stateMutability": "view",
      "type": "function"
    },
    {
      "inputs": [],
      "name": "renounceOwnership",
      "outputs": [],
      "stateMutability": "nonpayable",
      "type": "function"
    },
    {
      "inputs": [],
      "name": "secretNumber",
      "outputs": [
        {
          "internalType": "uint256",
          "name": "",
          "type": "uint256"
        }
      ],
      "stateMutability": "view",
      "type": "function"
    },
    {
      "inputs": [
        {
          "internalType": "address",
          "name": "newOwner",
          "type": "address"
        }
      ],
      "name": "transferOwnership",
      "outputs": [],
      "stateMutability": "nonpayable",
      "type": "function"
    },
    {
      "inputs": [],
      "name": "version",
      "outputs": [
        {
          "internalType": "uint256",
          "name": "",
          "type": "uint256"
        }
      ],
      "stateMutability": "view",
      "type": "function"
    }
  ],
  "bytecode": "0x608060405234801561001057600080fd5b50610892806100206000396000f3fe608060405234801561001057600080fd5b506004361061007d5760003560e01c80638da5cb5b1161005b5780638da5cb5b146100c8578063c36604ed146100e6578063f2fde38b14610104578063fe4b84df146101205761007d565b80632cf0a1fc1461008257806354fd4d50146100a0578063715018a6146100be575b600080fd5b61008a61013c565b604051610097919061067a565b60405180910390f35b6100a8610157565b6040516100b5919061067a565b60405180910390f35b6100c661015d565b005b6100d06101e5565b6040516100dd91906105ff565b60405180910390f35b6100ee61020f565b6040516100fb919061067a565b60405180910390f35b61011e60048036038101906101199190610526565b610215565b005b61013a6004803603810190610135919061054f565b61030d565b005b6000600160655461014d91906106a6565b6065819055905090565b60655481565b61016561040a565b73ffffffffffffffffffffffffffffffffffffffff166101836101e5565b73ffffffffffffffffffffffffffffffffffffffff16146101d9576040517f08c379a00000000000000000000000000000000000000000000000000000000081526004016101d09061065a565b60405180910390fd5b6101e36000610412565b565b6000603360009054906101000a900473ffffffffffffffffffffffffffffffffffffffff16905090565b60665481565b61021d61040a565b73ffffffffffffffffffffffffffffffffffffffff1661023b6101e5565b73ffffffffffffffffffffffffffffffffffffffff1614610291576040517f08c379a00000000000000000000000000000000000000000000000000000000081526004016102889061065a565b60405180910390fd5b600073ffffffffffffffffffffffffffffffffffffffff168173ffffffffffffffffffffffffffffffffffffffff161415610301576040517f08c379a00000000000000000000000000000000000000000000000000000000081526004016102f89061061a565b60405180910390fd5b61030a81610412565b50565b600060019054906101000a900460ff166103355760008054906101000a900460ff161561033e565b61033d6104d8565b5b61037d576040517f08c379a00000000000000000000000000000000000000000000000000000000081526004016103749061063a565b60405180910390fd5b60008060019054906101000a900460ff1615905080156103cd576001600060016101000a81548160ff02191690831515021790555060016000806101000a81548160ff0219169083151502179055505b6001606581905550816066819055506103e461013c565b5080156104065760008060016101000a81548160ff0219169083151502179055505b5050565b600033905090565b6000603360009054906101000a900473ffffffffffffffffffffffffffffffffffffffff16905081603360006101000a81548173ffffffffffffffffffffffffffffffffffffffff021916908373ffffffffffffffffffffffffffffffffffffffff1602179055508173ffffffffffffffffffffffffffffffffffffffff168173ffffffffffffffffffffffffffffffffffffffff167f8be0079c531659141344cd1fd0a4f28419497f9722a3daafe3b4186f6b6457e060405160405180910390a35050565b60006104e3306104e9565b15905090565b600080823b905060008111915050919050565b60008135905061050b8161082e565b92915050565b60008135905061052081610845565b92915050565b60006020828403121561053857600080fd5b6000610546848285016104fc565b91505092915050565b60006020828403121561056157600080fd5b600061056f84828501610511565b91505092915050565b610581816106fc565b82525050565b6000610594602683610695565b915061059f82610767565b604082019050919050565b60006105b7602e83610695565b91506105c2826107b6565b604082019050919050565b60006105da602083610695565b91506105e582610805565b602082019050919050565b6105f98161072e565b82525050565b60006020820190506106146000830184610578565b92915050565b6000602082019050818103600083015261063381610587565b9050919050565b60006020820190508181036000830152610653816105aa565b9050919050565b60006020820190508181036000830152610673816105cd565b9050919050565b600060208201905061068f60008301846105f0565b92915050565b600082825260208201905092915050565b60006106b18261072e565b91506106bc8361072e565b9250827fffffffffffffffffffffffffffffffffffffffffffffffffffffffffffffffff038211156106f1576106f0610738565b5b828201905092915050565b60006107078261070e565b9050919050565b600073ffffffffffffffffffffffffffffffffffffffff82169050919050565b6000819050919050565b7f4e487b7100000000000000000000000000000000000000000000000000000000600052601160045260246000fd5b7f4f776e61626c653a206e6577206f776e657220697320746865207a65726f206160008201527f6464726573730000000000000000000000000000000000000000000000000000602082015250565b7f496e697469616c697a61626c653a20636f6e747261637420697320616c72656160008201527f647920696e697469616c697a6564000000000000000000000000000000000000602082015250565b7f4f776e61626c653a2063616c6c6572206973206e6f7420746865206f776e6572600082015250565b610837816106fc565b811461084257600080fd5b50565b61084e8161072e565b811461085957600080fd5b5056fea2646970667358221220042a07025b14d3a0b952415b36c56b3fc6782e3ccc6fc167ee9bb56d1fad10c764736f6c63430008020033",
  "linkReferences": {},
  "deployedLinkReferences": {}
}