{
  "_format": "hh-sol-artifact-1",
  "contractName": "GameLogic",
  "sourceName": "contracts/GameLogic.sol",
  "abi": [
    {
      "anonymous": false,
      "inputs": [
        {
          "indexed": true,
          "internalType": "address",
          "name": "previousOwner",
          "type": "address"
        },
        {
          "indexed": true,
          "internalType": "address",
          "name": "newOwner",
          "type": "address"
        }
      ],
      "name": "OwnershipTransferred",
      "type": "event"
    },
    {
      "anonymous": false,
      "inputs": [
        {
          "indexed": true,
          "internalType": "bytes32",
          "name": "role",
          "type": "bytes32"
        },
        {
          "indexed": true,
          "internalType": "bytes32",
          "name": "previousAdminRole",
          "type": "bytes32"
        },
        {
          "indexed": true,
          "internalType": "bytes32",
          "name": "newAdminRole",
          "type": "bytes32"
        }
      ],
      "name": "RoleAdminChanged",
      "type": "event"
    },
    {
      "anonymous": false,
      "inputs": [
        {
          "indexed": true,
          "internalType": "bytes32",
          "name": "role",
          "type": "bytes32"
        },
        {
          "indexed": true,
          "internalType": "address",
          "name": "account",
          "type": "address"
        },
        {
          "indexed": true,
          "internalType": "address",
          "name": "sender",
          "type": "address"
        }
      ],
      "name": "RoleGranted",
      "type": "event"
    },
    {
      "anonymous": false,
      "inputs": [
        {
          "indexed": true,
          "internalType": "bytes32",
          "name": "role",
          "type": "bytes32"
        },
        {
          "indexed": true,
          "internalType": "address",
          "name": "account",
          "type": "address"
        },
        {
          "indexed": true,
          "internalType": "address",
          "name": "sender",
          "type": "address"
        }
      ],
      "name": "RoleRevoked",
      "type": "event"
    },
    {
      "anonymous": false,
      "inputs": [
        {
          "indexed": false,
          "internalType": "address",
          "name": "sender",
          "type": "address"
        },
        {
          "indexed": false,
          "internalType": "uint256",
          "name": "amount",
          "type": "uint256"
        }
      ],
      "name": "Staked",
      "type": "event"
    },
    {
      "anonymous": false,
      "inputs": [
        {
          "indexed": false,
          "internalType": "address",
          "name": "addr",
          "type": "address"
        }
      ],
      "name": "WhitelistedAddressAdded",
      "type": "event"
    },
    {
      "anonymous": false,
      "inputs": [
        {
          "indexed": false,
          "internalType": "address",
          "name": "addr",
          "type": "address"
        }
      ],
      "name": "WhitelistedAddressRemoved",
      "type": "event"
    },
    {
      "inputs": [],
      "name": "DEFAULT_ADMIN_ROLE",
      "outputs": [
        {
          "internalType": "bytes32",
          "name": "",
          "type": "bytes32"
        }
      ],
      "stateMutability": "view",
      "type": "function"
    },
    {
      "inputs": [
        {
          "internalType": "address",
          "name": "addr",
          "type": "address"
        }
      ],
      "name": "addAddressToWhitelist",
      "outputs": [
        {
          "internalType": "bool",
          "name": "success",
          "type": "bool"
        }
      ],
      "stateMutability": "nonpayable",
      "type": "function"
    },
    {
      "inputs": [
        {
          "internalType": "address[]",
          "name": "addrs",
          "type": "address[]"
        }
      ],
      "name": "addAddressesToWhitelist",
      "outputs": [
        {
          "internalType": "bool",
          "name": "success",
          "type": "bool"
        }
      ],
      "stateMutability": "nonpayable",
      "type": "function"
    },
    {
      "inputs": [
        {
          "internalType": "address",
          "name": "user",
          "type": "address"
        }
      ],
      "name": "addUserToLeague",
      "outputs": [],
      "stateMutability": "nonpayable",
      "type": "function"
    },
    {
      "inputs": [],
      "name": "addUserToWhitelist",
      "outputs": [],
      "stateMutability": "nonpayable",
      "type": "function"
    },
    {
      "inputs": [
        {
          "internalType": "address",
          "name": "addr1",
          "type": "address"
        },
        {
          "internalType": "address",
          "name": "addr2",
          "type": "address"
        }
      ],
      "name": "evaluateMatch",
      "outputs": [
        {
          "internalType": "address",
          "name": "",
          "type": "address"
        }
      ],
      "stateMutability": "nonpayable",
      "type": "function"
    },
    {
      "inputs": [],
      "name": "getLineup",
      "outputs": [
        {
          "internalType": "uint256[]",
          "name": "",
          "type": "uint256[]"
        }
      ],
      "stateMutability": "view",
      "type": "function"
    },
    {
      "inputs": [
        {
          "internalType": "bytes32",
          "name": "role",
          "type": "bytes32"
        }
      ],
      "name": "getRoleAdmin",
      "outputs": [
        {
          "internalType": "bytes32",
          "name": "",
          "type": "bytes32"
        }
      ],
      "stateMutability": "view",
      "type": "function"
    },
    {
      "inputs": [
        {
          "internalType": "address",
          "name": "_token",
          "type": "address"
        }
      ],
      "name": "getUSDCBalance",
      "outputs": [
        {
          "internalType": "uint256",
          "name": "",
          "type": "uint256"
        }
      ],
      "stateMutability": "view",
      "type": "function"
    },
    {
      "inputs": [],
      "name": "getUserTotalPts",
      "outputs": [
        {
          "internalType": "uint256",
          "name": "",
          "type": "uint256"
        }
      ],
      "stateMutability": "view",
      "type": "function"
    },
    {
      "inputs": [],
      "name": "getUserWeeklypts",
      "outputs": [
        {
          "internalType": "uint256[]",
          "name": "",
          "type": "uint256[]"
        }
      ],
      "stateMutability": "view",
      "type": "function"
    },
    {
      "inputs": [
        {
          "internalType": "bytes32",
          "name": "role",
          "type": "bytes32"
        },
        {
          "internalType": "address",
          "name": "account",
          "type": "address"
        }
      ],
      "name": "grantRole",
      "outputs": [],
      "stateMutability": "nonpayable",
      "type": "function"
    },
    {
      "inputs": [
        {
          "internalType": "bytes32",
          "name": "role",
          "type": "bytes32"
        },
        {
          "internalType": "address",
          "name": "account",
          "type": "address"
        }
      ],
      "name": "hasRole",
      "outputs": [
        {
          "internalType": "bool",
          "name": "",
          "type": "bool"
        }
      ],
      "stateMutability": "view",
      "type": "function"
    },
    {
      "inputs": [],
      "name": "incrementVersion",
      "outputs": [
        {
          "internalType": "uint256",
          "name": "",
          "type": "uint256"
        }
      ],
      "stateMutability": "nonpayable",
      "type": "function"
    },
    {
      "inputs": [
        {
          "internalType": "string",
          "name": "_name",
          "type": "string"
        },
        {
          "internalType": "uint256",
          "name": "_version",
          "type": "uint256"
        },
        {
          "internalType": "uint256",
          "name": "_numWeeks",
          "type": "uint256"
        },
        {
          "internalType": "uint256",
          "name": "_stakeAmount",
          "type": "uint256"
        },
        {
          "internalType": "address",
          "name": "athletesDataStorageAddress",
          "type": "address"
        },
        {
          "internalType": "address",
          "name": "_owner",
          "type": "address"
        },
        {
          "internalType": "address",
          "name": "_admin",
          "type": "address"
        },
        {
          "internalType": "address",
          "name": "_polygonUSDCAddress",
          "type": "address"
        },
        {
          "internalType": "address",
          "name": "_rinkebyUSDCAddress",
          "type": "address"
        }
      ],
      "name": "initialize",
      "outputs": [],
      "stateMutability": "nonpayable",
      "type": "function"
    },
    {
      "inputs": [],
      "name": "joinLeague",
      "outputs": [],
      "stateMutability": "nonpayable",
      "type": "function"
    },
    {
      "inputs": [],
      "name": "leagueName",
      "outputs": [
        {
          "internalType": "string",
          "name": "",
          "type": "string"
        }
      ],
      "stateMutability": "view",
      "type": "function"
    },
    {
      "inputs": [],
      "name": "numWeeks",
      "outputs": [
        {
          "internalType": "uint256",
          "name": "",
          "type": "uint256"
        }
      ],
      "stateMutability": "view",
      "type": "function"
    },
    {
      "inputs": [],
      "name": "owner",
      "outputs": [
        {
          "internalType": "address",
          "name": "",
          "type": "address"
        }
      ],
      "stateMutability": "view",
      "type": "function"
    },
    {
      "inputs": [
        {
          "internalType": "address",
          "name": "addr",
          "type": "address"
        }
      ],
      "name": "removeAddressFromWhitelist",
      "outputs": [
        {
          "internalType": "bool",
          "name": "success",
          "type": "bool"
        }
      ],
      "stateMutability": "nonpayable",
      "type": "function"
    },
    {
      "inputs": [
        {
          "internalType": "address[]",
          "name": "addrs",
          "type": "address[]"
        }
      ],
      "name": "removeAddressesFromWhitelist",
      "outputs": [
        {
          "internalType": "bool",
          "name": "success",
          "type": "bool"
        }
      ],
      "stateMutability": "nonpayable",
      "type": "function"
    },
    {
      "inputs": [],
      "name": "removeFromLeague",
      "outputs": [],
      "stateMutability": "nonpayable",
      "type": "function"
    },
    {
      "inputs": [],
      "name": "renounceOwnership",
      "outputs": [],
      "stateMutability": "nonpayable",
      "type": "function"
    },
    {
      "inputs": [
        {
          "internalType": "bytes32",
          "name": "role",
          "type": "bytes32"
        },
        {
          "internalType": "address",
          "name": "account",
          "type": "address"
        }
      ],
      "name": "renounceRole",
      "outputs": [],
      "stateMutability": "nonpayable",
      "type": "function"
    },
    {
      "inputs": [
        {
          "internalType": "bytes32",
          "name": "role",
          "type": "bytes32"
        },
        {
          "internalType": "address",
          "name": "account",
          "type": "address"
        }
      ],
      "name": "revokeRole",
      "outputs": [],
      "stateMutability": "nonpayable",
      "type": "function"
    },
    {
      "inputs": [
        {
          "internalType": "address",
          "name": "_athleteContractAddress",
          "type": "address"
        }
      ],
      "name": "setAthleteContractAddress",
      "outputs": [],
      "stateMutability": "nonpayable",
      "type": "function"
    },
    {
      "inputs": [],
      "name": "setLeagueSchedule",
      "outputs": [],
      "stateMutability": "nonpayable",
      "type": "function"
    },
    {
      "inputs": [
        {
          "internalType": "uint256[]",
          "name": "athleteIds",
          "type": "uint256[]"
        }
      ],
      "name": "setLineup",
      "outputs": [],
      "stateMutability": "nonpayable",
      "type": "function"
    },
    {
      "inputs": [
        {
          "internalType": "bytes4",
          "name": "interfaceId",
          "type": "bytes4"
        }
      ],
      "name": "supportsInterface",
      "outputs": [
        {
          "internalType": "bool",
          "name": "",
          "type": "bool"
        }
      ],
      "stateMutability": "view",
      "type": "function"
    },
    {
      "inputs": [
        {
          "internalType": "address",
          "name": "newOwner",
          "type": "address"
        }
      ],
      "name": "transferOwnership",
      "outputs": [],
      "stateMutability": "nonpayable",
      "type": "function"
    },
    {
      "inputs": [],
      "name": "version",
      "outputs": [
        {
          "internalType": "uint256",
          "name": "",
          "type": "uint256"
        }
      ],
      "stateMutability": "view",
      "type": "function"
    },
    {
      "inputs": [
        {
          "internalType": "address",
          "name": "",
          "type": "address"
        }
      ],
      "name": "whitelist",
      "outputs": [
        {
          "internalType": "bool",
          "name": "",
          "type": "bool"
        }
      ],
      "stateMutability": "view",
      "type": "function"
    }
  ],
  "bytecode": "0x60806040523480156200001157600080fd5b5062000032620000266200003860201b60201c565b6200004060201b60201c565b62000105565b600033905090565b60008060029054906101000a900473ffffffffffffffffffffffffffffffffffffffff16905081600060026101000a81548173ffffffffffffffffffffffffffffffffffffffff021916908373ffffffffffffffffffffffffffffffffffffffff1602179055508173ffffffffffffffffffffffffffffffffffffffff168173ffffffffffffffffffffffffffffffffffffffff167f8be0079c531659141344cd1fd0a4f28419497f9722a3daafe3b4186f6b6457e060405160405180910390a35050565b61566d80620001156000396000f3fe60806040523480156200001157600080fd5b5060043610620002205760003560e01c80637ac6aa1d11620001295780639b19251a11620000b1578063d547741f116200007b578063d547741f1462000619578063e2ec6ec31462000639578063f2fde38b146200066f578063f612121a146200068f5762000220565b80639b19251a1462000593578063a217fddf14620005c9578063ada3a28d14620005eb578063c99fea94146200060d5762000220565b8063841abf6e11620000f3578063841abf6e14620004e3578063853976dd14620005055780638da5cb5b146200053b57806391d14854146200055d5762000220565b80637ac6aa1d146200045f5780637b9417c8146200046b5780637eed33f114620004a1578063832ca71614620004c35762000220565b80632f2ff15d11620001ad5780636802471711620001775780636802471714620003d95780636bdc44df146200040f5780636fd71a181462000431578063715018a614620004535762000220565b80632f2ff15d146200035757806336568abe1462000377578063486b3944146200039757806354fd4d5014620003b75762000220565b8063248a9ca311620001ef578063248a9ca3146200029357806324953eaa14620002c9578063286dd3f514620002ff5780632cf0a1fc14620003355762000220565b806301ffc9a714620002255780630655465a146200025b578063087e18a7146200026757806311c253f51462000287575b600080fd5b6200024360048036038101906200023d919062003948565b620006af565b60405162000252919062003e25565b60405180910390f35b620002656200072c565b005b6200028560048036038101906200027f919062003731565b62000f28565b005b6200029162000fc7565b005b620002b16004803603810190620002ab9190620038cf565b6200102e565b604051620002c0919062003e42565b60405180910390f35b620002e76004803603810190620002e19190620037aa565b6200104e565b604051620002f6919062003e25565b60405180910390f35b6200031d600480360381019062000317919062003731565b6200114b565b6040516200032c919062003e25565b60405180910390f35b6200033f620012da565b6040516200034e919062003f4f565b60405180910390f35b6200037560048036038101906200036f919062003901565b620013e0565b005b6200039560048036038101906200038f919062003901565b62001411565b005b620003b56004803603810190620003af919062003731565b6200149b565b005b620003c162001562565b604051620003d0919062003f4f565b60405180910390f35b620003f76004803603810190620003f1919062003731565b62001568565b60405162000406919062003f4f565b60405180910390f35b6200041962001600565b60405162000428919062003f4f565b60405180910390f35b6200043b62001647565b6040516200044a919062003e01565b60405180910390f35b6200045d620016de565b005b620004696200176f565b005b62000489600480360381019062000483919062003731565b620017e2565b60405162000498919062003e25565b60405180910390f35b620004ab62001970565b604051620004ba919062003f4f565b60405180910390f35b620004e16004803603810190620004db91906200397a565b62001976565b005b620004ed62001cb7565b604051620004fc919062003e5f565b60405180910390f35b6200052360048036038101906200051d919062003763565b62001d4d565b60405162000532919062003d7a565b60405180910390f35b62000545620023f5565b60405162000554919062003d7a565b60405180910390f35b6200057b600480360381019062000575919062003901565b6200241e565b6040516200058a919062003e25565b60405180910390f35b620005b16004803603810190620005ab919062003731565b62002489565b604051620005c0919062003e25565b60405180910390f35b620005d3620024a9565b604051620005e2919062003e42565b60405180910390f35b620005f5620024b0565b60405162000604919062003e01565b60405180910390f35b6200061762002547565b005b62000637600480360381019062000631919062003901565b62002641565b005b620006576004803603810190620006519190620037aa565b62002672565b60405162000666919062003e25565b60405180910390f35b6200068d600480360381019062000687919062003731565b6200276f565b005b620006ad6004803603810190620006a79190620037fb565b62002873565b005b60007f7965db0b000000000000000000000000000000000000000000000000000000007bffffffffffffffffffffffffffffffffffffffffffffffffffffffff1916827bffffffffffffffffffffffffffffffffffffffffffffffffffffffff191614806200072557506200072482620028cc565b5b9050919050565b6200073662002936565b73ffffffffffffffffffffffffffffffffffffffff1662000756620023f5565b73ffffffffffffffffffffffffffffffffffffffff1614620007af576040517f08c379a0000000000000000000000000000000000000000000000000000000008152600401620007a69062003f0b565b60405180910390fd5b620007ef6040518060400160405280601081526020017f73657474696e67207363686564756c65000000000000000000000000000000008152506200293e565b620007f962003268565b6200080362003268565b60005b600881101562000f2357620008506040518060400160405280600181526020017f0a000000000000000000000000000000000000000000000000000000000000008152506200293e565b6200085b81620029db565b6200089b6040518060400160405280601881526020017f2a2a2a2a2a2a2a2a2a2a2a2a2a2a2a2a2a2a2a2a2a2a2a2a00000000000000008152506200293e565b6000806002600880549050620008b2919062004323565b14620008d5576001600880549050620008cc919062004053565b905080620008df565b6008805490509050805b50600083600060048110620008f957620008f8620043e8565b5b6020020151905060005b600283620009129190620040b0565b81101562000a3f5760008414156200098557808682600481106200093b576200093a620043e8565b5b602002018181525050600283620009539190620040b0565b8162000960919062004053565b858260048110620009765762000975620043e8565b5b60200201818152505062000a29565b60008682600481106200099d576200099c620043e8565b5b6020020151905080868360048110620009bb57620009ba620043e8565b5b60200201818152505085600285620009d49190620040b0565b600184620009e3919062004053565b620009ef919062004323565b6004811062000a035762000a02620043e8565b5b602002015187836004811062000a1e5762000a1d620043e8565b5b602002018181525050505b808062000a3690620042d5565b91505062000903565b506000831462000a86578085600160028562000a5c9190620040b0565b62000a68919062004149565b6004811062000a7c5762000a7b620043e8565b5b6020020181815250505b60005b60028362000a989190620040b0565b81101562000f0a5762000aaa6200328a565b60088054905086836004811062000ac65762000ac5620043e8565b5b60200201511062000ba2576040518060400160405280600889856004811062000af45762000af3620043e8565b5b60200201518154811062000b0d5762000b0c620043e8565b5b9060005260206000200160009054906101000a900473ffffffffffffffffffffffffffffffffffffffff1673ffffffffffffffffffffffffffffffffffffffff1673ffffffffffffffffffffffffffffffffffffffff168152602001600073ffffffffffffffffffffffffffffffffffffffff1673ffffffffffffffffffffffffffffffffffffffff16815250905062000dc1565b60088054905087836004811062000bbe5762000bbd620043e8565b5b60200201511062000c9a576040518060400160405280600073ffffffffffffffffffffffffffffffffffffffff1673ffffffffffffffffffffffffffffffffffffffff168152602001600888856004811062000c1f5762000c1e620043e8565b5b60200201518154811062000c385762000c37620043e8565b5b9060005260206000200160009054906101000a900473ffffffffffffffffffffffffffffffffffffffff1673ffffffffffffffffffffffffffffffffffffffff1673ffffffffffffffffffffffffffffffffffffffff16815250905062000dc0565b6040518060400160405280600889856004811062000cbd5762000cbc620043e8565b5b60200201518154811062000cd65762000cd5620043e8565b5b9060005260206000200160009054906101000a900473ffffffffffffffffffffffffffffffffffffffff1673ffffffffffffffffffffffffffffffffffffffff1673ffffffffffffffffffffffffffffffffffffffff168152602001600888856004811062000d4a5762000d49620043e8565b5b60200201518154811062000d635762000d62620043e8565b5b9060005260206000200160009054906101000a900473ffffffffffffffffffffffffffffffffffffffff1673ffffffffffffffffffffffffffffffffffffffff1673ffffffffffffffffffffffffffffffffffffffff1681525090505b5b600060405180602001604052808381525090508060126000888152602001908152602001600020846008811062000dfd5762000dfc620043e8565b5b6002020160008201518160000190600262000e1a929190620032ac565b5090505062000e48816000015160006002811062000e3d5762000e3c620043e8565b5b602002015162002a78565b62000e886040518060400160405280600481526020017f20767320000000000000000000000000000000000000000000000000000000008152506200293e565b62000eb2816000015160016002811062000ea75762000ea6620043e8565b5b602002015162002a78565b62000ef26040518060400160405280600181526020017f0a000000000000000000000000000000000000000000000000000000000000008152506200293e565b5050808062000f0190620042d5565b91505062000a89565b505050808062000f1a90620042d5565b91505062000806565b505050565b60088080549050101562000f9f576008819080600181540180825580915050600190039060005260206000200160009091909190916101000a81548173ffffffffffffffffffffffffffffffffffffffff021916908373ffffffffffffffffffffffffffffffffffffffff16021790555062000fc4565b62000fc360405180606001604052806028815260200162005610602891396200293e565b5b50565b600260003373ffffffffffffffffffffffffffffffffffffffff1673ffffffffffffffffffffffffffffffffffffffff16815260200190815260200160002060009054906101000a900460ff16806200102257506000600354145b6200102c57600080fd5b565b600060016000838152602001908152602001600020600101549050919050565b60006200105a62002936565b73ffffffffffffffffffffffffffffffffffffffff166200107a620023f5565b73ffffffffffffffffffffffffffffffffffffffff1614620010d3576040517f08c379a0000000000000000000000000000000000000000000000000000000008152600401620010ca9062003f0b565b60405180910390fd5b60005b8251811015620011455762001108838281518110620010fa57620010f9620043e8565b5b60200260200101516200114b565b156200112f5760016003600082825462001123919062004149565b92505081905550600191505b80806200113c90620042d5565b915050620010d6565b50919050565b60006200115762002936565b73ffffffffffffffffffffffffffffffffffffffff1662001177620023f5565b73ffffffffffffffffffffffffffffffffffffffff1614620011d0576040517f08c379a0000000000000000000000000000000000000000000000000000000008152600401620011c79062003f0b565b60405180910390fd5b600260008373ffffffffffffffffffffffffffffffffffffffff1673ffffffffffffffffffffffffffffffffffffffff16815260200190815260200160002060009054906101000a900460ff1615620012d5576000600260008473ffffffffffffffffffffffffffffffffffffffff1673ffffffffffffffffffffffffffffffffffffffff16815260200190815260200160002060006101000a81548160ff0219169083151502179055507ff1abf01a1043b7c244d128e8595cf0c1d10743b022b03a02dffd8ca3bf729f5a82604051620012ac919062003d7a565b60405180910390a1600160036000828254620012c9919062004149565b92505081905550600190505b919050565b60006200131c6040518060400160405280601581526020017f696e6372656d656e74696e672076657273696f6e3a00000000000000000000008152506200293e565b60026004546200132d919062004053565b60048190555062001340600454620029db565b620013dd60058054620013539062004269565b80601f0160208091040260200160405190810160405280929190818152602001828054620013819062004269565b8015620013d25780601f10620013a657610100808354040283529160200191620013d2565b820191906000526020600020905b815481529060010190602001808311620013b457829003601f168201915b50505050506200293e565b90565b620013eb826200102e565b6200140081620013fa62002936565b62002b15565b6200140c838362002bbd565b505050565b6200141b62002936565b73ffffffffffffffffffffffffffffffffffffffff168173ffffffffffffffffffffffffffffffffffffffff16146200148b576040517f08c379a0000000000000000000000000000000000000000000000000000000008152600401620014829062003f2d565b60405180910390fd5b62001497828262002ca2565b5050565b620014a562002936565b73ffffffffffffffffffffffffffffffffffffffff16620014c5620023f5565b73ffffffffffffffffffffffffffffffffffffffff16146200151e576040517f08c379a0000000000000000000000000000000000000000000000000000000008152600401620015159062003f0b565b60405180910390fd5b80601060006101000a81548173ffffffffffffffffffffffffffffffffffffffff021916908373ffffffffffffffffffffffffffffffffffffffff16021790555050565b60045481565b60008173ffffffffffffffffffffffffffffffffffffffff166370a08231306040518263ffffffff1660e01b8152600401620015a5919062003d7a565b60206040518083038186803b158015620015be57600080fd5b505afa158015620015d3573d6000803e3d6000fd5b505050506040513d601f19601f82011682018060405250810190620015f9919062003a7d565b9050919050565b6000600960003373ffffffffffffffffffffffffffffffffffffffff1673ffffffffffffffffffffffffffffffffffffffff16815260200190815260200160002054905090565b6060600a60003373ffffffffffffffffffffffffffffffffffffffff1673ffffffffffffffffffffffffffffffffffffffff168152602001908152602001600020805480602002602001604051908101604052809291908181526020018280548015620016d457602002820191906000526020600020905b815481526020019060010190808311620016bf575b5050505050905090565b620016e862002936565b73ffffffffffffffffffffffffffffffffffffffff1662001708620023f5565b73ffffffffffffffffffffffffffffffffffffffff161462001761576040517f08c379a0000000000000000000000000000000000000000000000000000000008152600401620017589062003f0b565b60405180910390fd5b6200176d600062002d89565b565b6200177e6000801b336200241e565b6200178857600080fd5b6001600260003373ffffffffffffffffffffffffffffffffffffffff1673ffffffffffffffffffffffffffffffffffffffff16815260200190815260200160002060006101000a81548160ff021916908315150217905550565b6000620017ee62002936565b73ffffffffffffffffffffffffffffffffffffffff166200180e620023f5565b73ffffffffffffffffffffffffffffffffffffffff161462001867576040517f08c379a00000000000000000000000000000000000000000000000000000000081526004016200185e9062003f0b565b60405180910390fd5b600260008373ffffffffffffffffffffffffffffffffffffffff1673ffffffffffffffffffffffffffffffffffffffff16815260200190815260200160002060009054906101000a900460ff166200196b576001600260008473ffffffffffffffffffffffffffffffffffffffff1673ffffffffffffffffffffffffffffffffffffffff16815260200190815260200160002060006101000a81548160ff0219169083151502179055507fd1bba68c128cc3f427e5831b3c6f99f480b6efa6b9e80c757768f6124158cc3f8260405162001942919062003d7a565b60405180910390a16001600360008282546200195f919062004053565b92505081905550600190505b919050565b60065481565b600060019054906101000a900460ff16620019a05760008054906101000a900460ff1615620019ab565b620019aa62002e4e565b5b620019ed576040517f08c379a0000000000000000000000000000000000000000000000000000000008152600401620019e49062003ee9565b60405180910390fd5b60008060019054906101000a900460ff16159050801562001a3e576001600060016101000a81548160ff02191690831515021790555060016000806101000a81548160ff0219169083151502179055505b8a8a6005919062001a519291906200332e565b50886004819055508760068190555060006007819055506000600c8190555086600d8190555062001aa7600f60009054906101000a900473ffffffffffffffffffffffffffffffffffffffff16600d5462002e61565b85601060006101000a81548173ffffffffffffffffffffffffffffffffffffffff021916908373ffffffffffffffffffffffffffffffffffffffff16021790555062001af76000801b8562002f99565b82600e60006101000a81548173ffffffffffffffffffffffffffffffffffffffff021916908373ffffffffffffffffffffffffffffffffffffffff16021790555081600f60006101000a81548173ffffffffffffffffffffffffffffffffffffffff021916908373ffffffffffffffffffffffffffffffffffffffff1602179055506008339080600181540180825580915050600190039060005260206000200160009091909190916101000a81548173ffffffffffffffffffffffffffffffffffffffff021916908373ffffffffffffffffffffffffffffffffffffffff16021790555060405162001bea90620033bf565b604051809103906000f08015801562001c07573d6000803e3d6000fd5b50601160006101000a81548173ffffffffffffffffffffffffffffffffffffffff021916908373ffffffffffffffffffffffffffffffffffffffff16021790555062001c886040518060400160405280601281526020017f50726f787920696e697469616c697a65642100000000000000000000000000008152506200293e565b801562001caa5760008060016101000a81548160ff0219169083151502179055505b5050505050505050505050565b6005805462001cc69062004269565b80601f016020809104026020016040519081016040528092919081815260200182805462001cf49062004269565b801562001d455780601f1062001d195761010080835404028352916020019162001d45565b820191906000526020600020905b81548152906001019060200180831162001d2757829003601f168201915b505050505081565b600062001d5962002936565b73ffffffffffffffffffffffffffffffffffffffff1662001d79620023f5565b73ffffffffffffffffffffffffffffffffffffffff161462001dd2576040517f08c379a000000000000000000000000000000000000000000000000000000000815260040162001dc99062003f0b565b60405180910390fd5b6000600b60008573ffffffffffffffffffffffffffffffffffffffff1673ffffffffffffffffffffffffffffffffffffffff16815260200190815260200160002080548060200260200160405190810160405280929190818152602001828054801562001e5f57602002820191906000526020600020905b81548152602001906001019080831162001e4a575b505050505090506000600b60008573ffffffffffffffffffffffffffffffffffffffff1673ffffffffffffffffffffffffffffffffffffffff16815260200190815260200160002080548060200260200160405190810160405280929190818152602001828054801562001ef357602002820191906000526020600020905b81548152602001906001019080831162001ede575b5050505050905060008060005b845181101562002166576000601060009054906101000a900473ffffffffffffffffffffffffffffffffffffffff1673ffffffffffffffffffffffffffffffffffffffff1663d4313da887848151811062001f605762001f5f620043e8565b5b60200260200101516040518263ffffffff1660e01b815260040162001f86919062003f4f565b60006040518083038186803b15801562001f9f57600080fd5b505afa15801562001fb4573d6000803e3d6000fd5b505050506040513d6000823e3d601f19601f8201168201806040525081019062001fdf91906200384c565b90506000601060009054906101000a900473ffffffffffffffffffffffffffffffffffffffff1673ffffffffffffffffffffffffffffffffffffffff1663d4313da8878581518110620020375762002036620043e8565b5b60200260200101516040518263ffffffff1660e01b81526004016200205d919062003f4f565b60006040518083038186803b1580156200207657600080fd5b505afa1580156200208b573d6000803e3d6000fd5b505050506040513d6000823e3d601f19601f82011682018060405250810190620020b691906200384c565b905060008260018451620020cb919062004149565b81518110620020df57620020de620043e8565b5b6020026020010151905060008260018451620020fc919062004149565b8151811062002110576200210f620043e8565b5b60200260200101519050808211156200213a5760018762002132919062004053565b96506200214c565b60018662002149919062004053565b95505b5050505080806200215d90620042d5565b91505062001f00565b506001600760008282546200217c919062004053565b9250508190555080821115620022c057600a60008873ffffffffffffffffffffffffffffffffffffffff1673ffffffffffffffffffffffffffffffffffffffff16815260200190815260200160002060019080600181540180825580915050600190039060005260206000200160009091909190915055600a60008773ffffffffffffffffffffffffffffffffffffffff1673ffffffffffffffffffffffffffffffffffffffff168152602001908152602001600020600090806001815401808255809150506001900390600052602060002001600090919091909150556001600960008973ffffffffffffffffffffffffffffffffffffffff1673ffffffffffffffffffffffffffffffffffffffff1681526020019081526020016000206000828254620022ac919062004053565b9250508190555086945050505050620023ef565b600a60008773ffffffffffffffffffffffffffffffffffffffff1673ffffffffffffffffffffffffffffffffffffffff16815260200190815260200160002060019080600181540180825580915050600190039060005260206000200160009091909190915055600a60008873ffffffffffffffffffffffffffffffffffffffff1673ffffffffffffffffffffffffffffffffffffffff168152602001908152602001600020600090806001815401808255809150506001900390600052602060002001600090919091909150556001600960008873ffffffffffffffffffffffffffffffffffffffff1673ffffffffffffffffffffffffffffffffffffffff1681526020019081526020016000206000828254620023e0919062004053565b92505081905550859450505050505b92915050565b60008060029054906101000a900473ffffffffffffffffffffffffffffffffffffffff16905090565b60006001600084815260200190815260200160002060000160008373ffffffffffffffffffffffffffffffffffffffff1673ffffffffffffffffffffffffffffffffffffffff16815260200190815260200160002060009054906101000a900460ff16905092915050565b60026020528060005260406000206000915054906101000a900460ff1681565b6000801b81565b6060600b60003373ffffffffffffffffffffffffffffffffffffffff1673ffffffffffffffffffffffffffffffffffffffff1681526020019081526020016000208054806020026020016040519081016040528092919081815260200182805480156200253d57602002820191906000526020600020905b81548152602001906001019080831162002528575b5050505050905090565b600260003373ffffffffffffffffffffffffffffffffffffffff1673ffffffffffffffffffffffffffffffffffffffff16815260200190815260200160002060009054906101000a900460ff1680620025a257506000600354145b620025ac57600080fd5b6008339080600181540180825580915050600190039060005260206000200160009091909190916101000a81548173ffffffffffffffffffffffffffffffffffffffff021916908373ffffffffffffffffffffffffffffffffffffffff1602179055506200263f600f60009054906101000a900473ffffffffffffffffffffffffffffffffffffffff16600d5462002e61565b565b6200264c826200102e565b62002661816200265b62002936565b62002b15565b6200266d838362002ca2565b505050565b60006200267e62002936565b73ffffffffffffffffffffffffffffffffffffffff166200269e620023f5565b73ffffffffffffffffffffffffffffffffffffffff1614620026f7576040517f08c379a0000000000000000000000000000000000000000000000000000000008152600401620026ee9062003f0b565b60405180910390fd5b60005b825181101562002769576200272c8382815181106200271e576200271d620043e8565b5b6020026020010151620017e2565b15620027535760016003600082825462002747919062004053565b92505081905550600191505b80806200276090620042d5565b915050620026fa565b50919050565b6200277962002936565b73ffffffffffffffffffffffffffffffffffffffff1662002799620023f5565b73ffffffffffffffffffffffffffffffffffffffff1614620027f2576040517f08c379a0000000000000000000000000000000000000000000000000000000008152600401620027e99062003f0b565b60405180910390fd5b600073ffffffffffffffffffffffffffffffffffffffff168173ffffffffffffffffffffffffffffffffffffffff16141562002865576040517f08c379a00000000000000000000000000000000000000000000000000000000081526004016200285c9062003ea5565b60405180910390fd5b620028708162002d89565b50565b80600b60003373ffffffffffffffffffffffffffffffffffffffff1673ffffffffffffffffffffffffffffffffffffffff1681526020019081526020016000209080519060200190620028c8929190620033cd565b5050565b60007f01ffc9a7000000000000000000000000000000000000000000000000000000007bffffffffffffffffffffffffffffffffffffffffffffffffffffffff1916827bffffffffffffffffffffffffffffffffffffffffffffffffffffffff1916149050919050565b600033905090565b620029d88160405160240162002955919062003e5f565b6040516020818303038152906040527f41304fac000000000000000000000000000000000000000000000000000000007bffffffffffffffffffffffffffffffffffffffffffffffffffffffff19166020820180517bffffffffffffffffffffffffffffffffffffffffffffffffffffffff838183161783525050505062002fa9565b50565b62002a7581604051602401620029f2919062003f4f565b6040516020818303038152906040527ff5b1bba9000000000000000000000000000000000000000000000000000000007bffffffffffffffffffffffffffffffffffffffffffffffffffffffff19166020820180517bffffffffffffffffffffffffffffffffffffffffffffffffffffffff838183161783525050505062002fa9565b50565b62002b128160405160240162002a8f919062003d7a565b6040516020818303038152906040527f2c2ecbc2000000000000000000000000000000000000000000000000000000007bffffffffffffffffffffffffffffffffffffffffffffffffffffffff19166020820180517bffffffffffffffffffffffffffffffffffffffffffffffffffffffff838183161783525050505062002fa9565b50565b62002b2182826200241e565b62002bb95762002b498173ffffffffffffffffffffffffffffffffffffffff16601462002fd2565b62002b598360001c602062002fd2565b60405160200162002b6c92919062003d38565b6040516020818303038152906040526040517f08c379a000000000000000000000000000000000000000000000000000000000815260040162002bb0919062003e5f565b60405180910390fd5b5050565b62002bc982826200241e565b62002c9e57600180600084815260200190815260200160002060000160008373ffffffffffffffffffffffffffffffffffffffff1673ffffffffffffffffffffffffffffffffffffffff16815260200190815260200160002060006101000a81548160ff02191690831515021790555062002c4362002936565b73ffffffffffffffffffffffffffffffffffffffff168173ffffffffffffffffffffffffffffffffffffffff16837f2f8788117e7eff1d82e926ec794901d17c78024a50270940304540a733656f0d60405160405180910390a45b5050565b62002cae82826200241e565b1562002d855760006001600084815260200190815260200160002060000160008373ffffffffffffffffffffffffffffffffffffffff1673ffffffffffffffffffffffffffffffffffffffff16815260200190815260200160002060006101000a81548160ff02191690831515021790555062002d2a62002936565b73ffffffffffffffffffffffffffffffffffffffff168173ffffffffffffffffffffffffffffffffffffffff16837ff6391f5c32d9c69d2a47ea670b442974b53935d1edc7fd64eb21e047a839171b60405160405180910390a45b5050565b60008060029054906101000a900473ffffffffffffffffffffffffffffffffffffffff16905081600060026101000a81548173ffffffffffffffffffffffffffffffffffffffff021916908373ffffffffffffffffffffffffffffffffffffffff1602179055508173ffffffffffffffffffffffffffffffffffffffff168173ffffffffffffffffffffffffffffffffffffffff167f8be0079c531659141344cd1fd0a4f28419497f9722a3daafe3b4186f6b6457e060405160405180910390a35050565b600062002e5b306200322d565b15905090565b6000811162002ea7576040517f08c379a000000000000000000000000000000000000000000000000000000000815260040162002e9e9062003ec7565b60405180910390fd5b62002ebe81600c546200325090919063ffffffff16565b600c819055508173ffffffffffffffffffffffffffffffffffffffff166323b872dd3330846040518463ffffffff1660e01b815260040162002f039392919062003d97565b602060405180830381600087803b15801562002f1e57600080fd5b505af115801562002f33573d6000803e3d6000fd5b505050506040513d601f19601f8201168201806040525081019062002f5991906200389d565b507f9e71bc8eea02a63969f509818f2dafb9254532904319f9dbda79b67bd34a5f3d338260405162002f8d92919062003dd4565b60405180910390a15050565b62002fa5828262002bbd565b5050565b60008151905060006a636f6e736f6c652e6c6f679050602083016000808483855afa5050505050565b60606000600283600262002fe79190620040e8565b62002ff3919062004053565b67ffffffffffffffff8111156200300f576200300e62004417565b5b6040519080825280601f01601f191660200182016040528015620030425781602001600182028036833780820191505090505b5090507f3000000000000000000000000000000000000000000000000000000000000000816000815181106200307d576200307c620043e8565b5b60200101907effffffffffffffffffffffffffffffffffffffffffffffffffffffffffffff1916908160001a9053507f780000000000000000000000000000000000000000000000000000000000000081600181518110620030e457620030e3620043e8565b5b60200101907effffffffffffffffffffffffffffffffffffffffffffffffffffffffffffff1916908160001a90535060006001846002620031269190620040e8565b62003132919062004053565b90505b6001811115620031dc577f3031323334353637383961626364656600000000000000000000000000000000600f861660108110620031785762003177620043e8565b5b1a60f81b828281518110620031925762003191620043e8565b5b60200101907effffffffffffffffffffffffffffffffffffffffffffffffffffffffffffff1916908160001a905350600485901c945080620031d4906200423a565b905062003135565b506000841462003223576040517f08c379a00000000000000000000000000000000000000000000000000000000081526004016200321a9062003e83565b60405180910390fd5b8091505092915050565b6000808273ffffffffffffffffffffffffffffffffffffffff163b119050919050565b6000818362003260919062004053565b905092915050565b6040518060800160405280600490602082028036833780820191505090505090565b6040518060400160405280600290602082028036833780820191505090505090565b82600281019282156200331b579160200282015b828111156200331a5782518260006101000a81548173ffffffffffffffffffffffffffffffffffffffff021916908373ffffffffffffffffffffffffffffffffffffffff16021790555091602001919060010190620032c0565b5b5090506200332a91906200341f565b5090565b8280546200333c9062004269565b90600052602060002090601f016020900481019282620033605760008555620033ac565b82601f106200337b57803560ff1916838001178555620033ac565b82800160010185558215620033ac579182015b82811115620033ab5782358255916020019190600101906200338e565b5b509050620033bb91906200341f565b5090565b610f6380620046ad83390190565b8280548282559060005260206000209081019282156200340c579160200282015b828111156200340b578251825591602001919060010190620033ee565b5b5090506200341b91906200341f565b5090565b5b808211156200343a57600081600090555060010162003420565b5090565b6000620034556200344f8462003f95565b62003f6c565b905080838252602082019050828560208602820111156200347b576200347a62004450565b5b60005b85811015620034af5781620034948882620035af565b8452602084019350602083019250506001810190506200347e565b5050509392505050565b6000620034d0620034ca8462003fc4565b62003f6c565b90508083825260208201905082856020860282011115620034f657620034f562004450565b5b60005b858110156200352a57816200350f888262003703565b845260208401935060208301925050600181019050620034f9565b5050509392505050565b60006200354b620035458462003fc4565b62003f6c565b9050808382526020820190508285602086028201111562003571576200357062004450565b5b60005b85811015620035a557816200358a88826200371a565b84526020840193506020830192505060018101905062003574565b5050509392505050565b600081359050620035c0816200462a565b92915050565b600082601f830112620035de57620035dd6200444b565b5b8135620035f08482602086016200343e565b91505092915050565b600082601f8301126200361157620036106200444b565b5b813562003623848260208601620034b9565b91505092915050565b600082601f8301126200364457620036436200444b565b5b81516200365684826020860162003534565b91505092915050565b600081519050620036708162004644565b92915050565b60008135905062003687816200465e565b92915050565b6000813590506200369e8162004678565b92915050565b60008083601f840112620036bd57620036bc6200444b565b5b8235905067ffffffffffffffff811115620036dd57620036dc62004446565b5b602083019150836001820283011115620036fc57620036fb62004450565b5b9250929050565b600081359050620037148162004692565b92915050565b6000815190506200372b8162004692565b92915050565b6000602082840312156200374a57620037496200445a565b5b60006200375a84828501620035af565b91505092915050565b600080604083850312156200377d576200377c6200445a565b5b60006200378d85828601620035af565b9250506020620037a085828601620035af565b9150509250929050565b600060208284031215620037c357620037c26200445a565b5b600082013567ffffffffffffffff811115620037e457620037e362004455565b5b620037f284828501620035c6565b91505092915050565b6000602082840312156200381457620038136200445a565b5b600082013567ffffffffffffffff81111562003835576200383462004455565b5b6200384384828501620035f9565b91505092915050565b6000602082840312156200386557620038646200445a565b5b600082015167ffffffffffffffff81111562003886576200388562004455565b5b62003894848285016200362c565b91505092915050565b600060208284031215620038b657620038b56200445a565b5b6000620038c6848285016200365f565b91505092915050565b600060208284031215620038e857620038e76200445a565b5b6000620038f88482850162003676565b91505092915050565b600080604083850312156200391b576200391a6200445a565b5b60006200392b8582860162003676565b92505060206200393e85828601620035af565b9150509250929050565b6000602082840312156200396157620039606200445a565b5b600062003971848285016200368d565b91505092915050565b6000806000806000806000806000806101208b8d031215620039a157620039a06200445a565b5b60008b013567ffffffffffffffff811115620039c257620039c162004455565b5b620039d08d828e01620036a4565b9a509a50506020620039e58d828e0162003703565b9850506040620039f88d828e0162003703565b975050606062003a0b8d828e0162003703565b965050608062003a1e8d828e01620035af565b95505060a062003a318d828e01620035af565b94505060c062003a448d828e01620035af565b93505060e062003a578d828e01620035af565b92505061010062003a6b8d828e01620035af565b9150509295989b9194979a5092959850565b60006020828403121562003a965762003a956200445a565b5b600062003aa6848285016200371a565b91505092915050565b600062003abd838362003d16565b60208301905092915050565b62003ad48162004184565b82525050565b600062003ae78262004003565b62003af3818562004026565b935062003b008362003ff3565b8060005b8381101562003b3757815162003b1b888262003aaf565b975062003b288362004019565b92505060018101905062003b04565b5085935050505092915050565b62003b4f8162004198565b82525050565b62003b6081620041a4565b82525050565b600062003b73826200400e565b62003b7f818562004037565b935062003b9181856020860162004204565b62003b9c816200445f565b840191505092915050565b600062003bb4826200400e565b62003bc0818562004048565b935062003bd281856020860162004204565b80840191505092915050565b600062003bed60208362004037565b915062003bfa8262004470565b602082019050919050565b600062003c1460268362004037565b915062003c218262004499565b604082019050919050565b600062003c3b600e8362004037565b915062003c4882620044e8565b602082019050919050565b600062003c62602e8362004037565b915062003c6f8262004511565b604082019050919050565b600062003c8960208362004037565b915062003c968262004560565b602082019050919050565b600062003cb060178362004048565b915062003cbd8262004589565b601782019050919050565b600062003cd760118362004048565b915062003ce482620045b2565b601182019050919050565b600062003cfe602f8362004037565b915062003d0b82620045db565b604082019050919050565b62003d2181620041fa565b82525050565b62003d3281620041fa565b82525050565b600062003d458262003ca1565b915062003d53828562003ba7565b915062003d608262003cc8565b915062003d6e828462003ba7565b91508190509392505050565b600060208201905062003d91600083018462003ac9565b92915050565b600060608201905062003dae600083018662003ac9565b62003dbd602083018562003ac9565b62003dcc604083018462003d27565b949350505050565b600060408201905062003deb600083018562003ac9565b62003dfa602083018462003d27565b9392505050565b6000602082019050818103600083015262003e1d818462003ada565b905092915050565b600060208201905062003e3c600083018462003b44565b92915050565b600060208201905062003e59600083018462003b55565b92915050565b6000602082019050818103600083015262003e7b818462003b66565b905092915050565b6000602082019050818103600083015262003e9e8162003bde565b9050919050565b6000602082019050818103600083015262003ec08162003c05565b9050919050565b6000602082019050818103600083015262003ee28162003c2c565b9050919050565b6000602082019050818103600083015262003f048162003c53565b9050919050565b6000602082019050818103600083015262003f268162003c7a565b9050919050565b6000602082019050818103600083015262003f488162003cef565b9050919050565b600060208201905062003f66600083018462003d27565b92915050565b600062003f7862003f8b565b905062003f8682826200429f565b919050565b6000604051905090565b600067ffffffffffffffff82111562003fb35762003fb262004417565b5b602082029050602081019050919050565b600067ffffffffffffffff82111562003fe25762003fe162004417565b5b602082029050602081019050919050565b6000819050602082019050919050565b600081519050919050565b600081519050919050565b6000602082019050919050565b600082825260208201905092915050565b600082825260208201905092915050565b600081905092915050565b60006200406082620041fa565b91506200406d83620041fa565b9250827fffffffffffffffffffffffffffffffffffffffffffffffffffffffffffffffff03821115620040a557620040a46200435b565b5b828201905092915050565b6000620040bd82620041fa565b9150620040ca83620041fa565b925082620040dd57620040dc6200438a565b5b828204905092915050565b6000620040f582620041fa565b91506200410283620041fa565b9250817fffffffffffffffffffffffffffffffffffffffffffffffffffffffffffffffff04831182151516156200413e576200413d6200435b565b5b828202905092915050565b60006200415682620041fa565b91506200416383620041fa565b9250828210156200417957620041786200435b565b5b828203905092915050565b60006200419182620041da565b9050919050565b60008115159050919050565b6000819050919050565b60007fffffffff0000000000000000000000000000000000000000000000000000000082169050919050565b600073ffffffffffffffffffffffffffffffffffffffff82169050919050565b6000819050919050565b60005b838110156200422457808201518184015260208101905062004207565b8381111562004234576000848401525b50505050565b60006200424782620041fa565b915060008214156200425e576200425d6200435b565b5b600182039050919050565b600060028204905060018216806200428257607f821691505b60208210811415620042995762004298620043b9565b5b50919050565b620042aa826200445f565b810181811067ffffffffffffffff82111715620042cc57620042cb62004417565b5b80604052505050565b6000620042e282620041fa565b91507fffffffffffffffffffffffffffffffffffffffffffffffffffffffffffffffff8214156200431857620043176200435b565b5b600182019050919050565b60006200433082620041fa565b91506200433d83620041fa565b92508262004350576200434f6200438a565b5b828206905092915050565b7f4e487b7100000000000000000000000000000000000000000000000000000000600052601160045260246000fd5b7f4e487b7100000000000000000000000000000000000000000000000000000000600052601260045260246000fd5b7f4e487b7100000000000000000000000000000000000000000000000000000000600052602260045260246000fd5b7f4e487b7100000000000000000000000000000000000000000000000000000000600052603260045260246000fd5b7f4e487b7100000000000000000000000000000000000000000000000000000000600052604160045260246000fd5b600080fd5b600080fd5b600080fd5b600080fd5b600080fd5b6000601f19601f8301169050919050565b7f537472696e67733a20686578206c656e67746820696e73756666696369656e74600082015250565b7f4f776e61626c653a206e6577206f776e657220697320746865207a65726f206160008201527f6464726573730000000000000000000000000000000000000000000000000000602082015250565b7f43616e6e6f74207374616b652030000000000000000000000000000000000000600082015250565b7f496e697469616c697a61626c653a20636f6e747261637420697320616c72656160008201527f647920696e697469616c697a6564000000000000000000000000000000000000602082015250565b7f4f776e61626c653a2063616c6c6572206973206e6f7420746865206f776e6572600082015250565b7f416363657373436f6e74726f6c3a206163636f756e7420000000000000000000600082015250565b7f206973206d697373696e6720726f6c6520000000000000000000000000000000600082015250565b7f416363657373436f6e74726f6c3a2063616e206f6e6c792072656e6f756e636560008201527f20726f6c657320666f722073656c660000000000000000000000000000000000602082015250565b620046358162004184565b81146200464157600080fd5b50565b6200464f8162004198565b81146200465b57600080fd5b50565b6200466981620041a4565b81146200467557600080fd5b50565b6200468381620041ae565b81146200468f57600080fd5b50565b6200469d81620041fa565b8114620046a957600080fd5b5056fe608060405234801561001057600080fd5b5061002d61002261003260201b60201c565b61003a60201b60201c565b6100fe565b600033905090565b60008060009054906101000a900473ffffffffffffffffffffffffffffffffffffffff169050816000806101000a81548173ffffffffffffffffffffffffffffffffffffffff021916908373ffffffffffffffffffffffffffffffffffffffff1602179055508173ffffffffffffffffffffffffffffffffffffffff168173ffffffffffffffffffffffffffffffffffffffff167f8be0079c531659141344cd1fd0a4f28419497f9722a3daafe3b4186f6b6457e060405160405180910390a35050565b610e568061010d6000396000f3fe608060405234801561001057600080fd5b50600436106100885760003560e01c80638da5cb5b1161005b5780638da5cb5b146101275780639b19251a14610145578063e2ec6ec314610175578063f2fde38b146101a557610088565b806324953eaa1461008d578063286dd3f5146100bd578063715018a6146100ed5780637b9417c8146100f7575b600080fd5b6100a760048036038101906100a29190610a0e565b6101c1565b6040516100b49190610ad6565b60405180910390f35b6100d760048036038101906100d291906109e1565b6102ab565b6040516100e49190610ad6565b60405180910390f35b6100f561042e565b005b610111600480360381019061010c91906109e1565b6104b6565b60405161011e9190610ad6565b60405180910390f35b61012f610637565b60405161013c9190610abb565b60405180910390f35b61015f600480360381019061015a91906109e1565b610660565b60405161016c9190610ad6565b60405180910390f35b61018f600480360381019061018a9190610a0e565b610680565b60405161019c9190610ad6565b60405180910390f35b6101bf60048036038101906101ba91906109e1565b61076a565b005b60006101cb610862565b73ffffffffffffffffffffffffffffffffffffffff166101e9610637565b73ffffffffffffffffffffffffffffffffffffffff161461023f576040517f08c379a000000000000000000000000000000000000000000000000000000000815260040161023690610b11565b60405180910390fd5b60005b82518110156102a55761026e83828151811061026157610260610d0e565b5b60200260200101516102ab565b15610292576001600260008282546102869190610be9565b92505081905550600191505b808061029d90610c96565b915050610242565b50919050565b60006102b5610862565b73ffffffffffffffffffffffffffffffffffffffff166102d3610637565b73ffffffffffffffffffffffffffffffffffffffff1614610329576040517f08c379a000000000000000000000000000000000000000000000000000000000815260040161032090610b11565b60405180910390fd5b600160008373ffffffffffffffffffffffffffffffffffffffff1673ffffffffffffffffffffffffffffffffffffffff16815260200190815260200160002060009054906101000a900460ff1615610429576000600160008473ffffffffffffffffffffffffffffffffffffffff1673ffffffffffffffffffffffffffffffffffffffff16815260200190815260200160002060006101000a81548160ff0219169083151502179055507ff1abf01a1043b7c244d128e8595cf0c1d10743b022b03a02dffd8ca3bf729f5a826040516104029190610abb565b60405180910390a160016002600082825461041d9190610be9565b92505081905550600190505b919050565b610436610862565b73ffffffffffffffffffffffffffffffffffffffff16610454610637565b73ffffffffffffffffffffffffffffffffffffffff16146104aa576040517f08c379a00000000000000000000000000000000000000000000000000000000081526004016104a190610b11565b60405180910390fd5b6104b4600061086a565b565b60006104c0610862565b73ffffffffffffffffffffffffffffffffffffffff166104de610637565b73ffffffffffffffffffffffffffffffffffffffff1614610534576040517f08c379a000000000000000000000000000000000000000000000000000000000815260040161052b90610b11565b60405180910390fd5b600160008373ffffffffffffffffffffffffffffffffffffffff1673ffffffffffffffffffffffffffffffffffffffff16815260200190815260200160002060009054906101000a900460ff166106325760018060008473ffffffffffffffffffffffffffffffffffffffff1673ffffffffffffffffffffffffffffffffffffffff16815260200190815260200160002060006101000a81548160ff0219169083151502179055507fd1bba68c128cc3f427e5831b3c6f99f480b6efa6b9e80c757768f6124158cc3f8260405161060b9190610abb565b60405180910390a16001600260008282546106269190610b93565b92505081905550600190505b919050565b60008060009054906101000a900473ffffffffffffffffffffffffffffffffffffffff16905090565b60016020528060005260406000206000915054906101000a900460ff1681565b600061068a610862565b73ffffffffffffffffffffffffffffffffffffffff166106a8610637565b73ffffffffffffffffffffffffffffffffffffffff16146106fe576040517f08c379a00000000000000000000000000000000000000000000000000000000081526004016106f590610b11565b60405180910390fd5b60005b82518110156107645761072d8382815181106107205761071f610d0e565b5b60200260200101516104b6565b15610751576001600260008282546107459190610b93565b92505081905550600191505b808061075c90610c96565b915050610701565b50919050565b610772610862565b73ffffffffffffffffffffffffffffffffffffffff16610790610637565b73ffffffffffffffffffffffffffffffffffffffff16146107e6576040517f08c379a00000000000000000000000000000000000000000000000000000000081526004016107dd90610b11565b60405180910390fd5b600073ffffffffffffffffffffffffffffffffffffffff168173ffffffffffffffffffffffffffffffffffffffff161415610856576040517f08c379a000000000000000000000000000000000000000000000000000000000815260040161084d90610af1565b60405180910390fd5b61085f8161086a565b50565b600033905090565b60008060009054906101000a900473ffffffffffffffffffffffffffffffffffffffff169050816000806101000a81548173ffffffffffffffffffffffffffffffffffffffff021916908373ffffffffffffffffffffffffffffffffffffffff1602179055508173ffffffffffffffffffffffffffffffffffffffff168173ffffffffffffffffffffffffffffffffffffffff167f8be0079c531659141344cd1fd0a4f28419497f9722a3daafe3b4186f6b6457e060405160405180910390a35050565b600061094161093c84610b56565b610b31565b9050808382526020820190508285602086028201111561096457610963610d71565b5b60005b85811015610994578161097a888261099e565b845260208401935060208301925050600181019050610967565b5050509392505050565b6000813590506109ad81610e09565b92915050565b600082601f8301126109c8576109c7610d6c565b5b81356109d884826020860161092e565b91505092915050565b6000602082840312156109f7576109f6610d7b565b5b6000610a058482850161099e565b91505092915050565b600060208284031215610a2457610a23610d7b565b5b600082013567ffffffffffffffff811115610a4257610a41610d76565b5b610a4e848285016109b3565b91505092915050565b610a6081610c1d565b82525050565b610a6f81610c2f565b82525050565b6000610a82602683610b82565b9150610a8d82610d91565b604082019050919050565b6000610aa5602083610b82565b9150610ab082610de0565b602082019050919050565b6000602082019050610ad06000830184610a57565b92915050565b6000602082019050610aeb6000830184610a66565b92915050565b60006020820190508181036000830152610b0a81610a75565b9050919050565b60006020820190508181036000830152610b2a81610a98565b9050919050565b6000610b3b610b4c565b9050610b478282610c65565b919050565b6000604051905090565b600067ffffffffffffffff821115610b7157610b70610d3d565b5b602082029050602081019050919050565b600082825260208201905092915050565b6000610b9e82610c5b565b9150610ba983610c5b565b9250827fffffffffffffffffffffffffffffffffffffffffffffffffffffffffffffffff03821115610bde57610bdd610cdf565b5b828201905092915050565b6000610bf482610c5b565b9150610bff83610c5b565b925082821015610c1257610c11610cdf565b5b828203905092915050565b6000610c2882610c3b565b9050919050565b60008115159050919050565b600073ffffffffffffffffffffffffffffffffffffffff82169050919050565b6000819050919050565b610c6e82610d80565b810181811067ffffffffffffffff82111715610c8d57610c8c610d3d565b5b80604052505050565b6000610ca182610c5b565b91507fffffffffffffffffffffffffffffffffffffffffffffffffffffffffffffffff821415610cd457610cd3610cdf565b5b600182019050919050565b7f4e487b7100000000000000000000000000000000000000000000000000000000600052601160045260246000fd5b7f4e487b7100000000000000000000000000000000000000000000000000000000600052603260045260246000fd5b7f4e487b7100000000000000000000000000000000000000000000000000000000600052604160045260246000fd5b600080fd5b600080fd5b600080fd5b600080fd5b6000601f19601f8301169050919050565b7f4f776e61626c653a206e6577206f776e657220697320746865207a65726f206160008201527f6464726573730000000000000000000000000000000000000000000000000000602082015250565b7f4f776e61626c653a2063616c6c6572206973206e6f7420746865206f776e6572600082015250565b610e1281610c1d565b8114610e1d57600080fd5b5056fea264697066735822122028f537dd9b5fe894d1477bbddc996ce32a420981c0b41afd39c00eed7de828ef64736f6c63430008070033746f6f206d616e7920757365727320696e206c656167756520746f20616464206e65772075736572a26469706673582212209f9c816f1d625876baf27c31fbfc9ad7251ec7f6f731648ff0177c9aa6c4597e64736f6c63430008070033",
  "linkReferences": {},
  "deployedLinkReferences": {}
}