{
  "_format": "hh-sol-artifact-1",
  "contractName": "GameLogic",
  "sourceName": "contracts/GameLogic.sol",
  "abi": [
    {
      "anonymous": false,
      "inputs": [
        {
          "indexed": true,
          "internalType": "address",
          "name": "previousOwner",
          "type": "address"
        },
        {
          "indexed": true,
          "internalType": "address",
          "name": "newOwner",
          "type": "address"
        }
      ],
      "name": "OwnershipTransferred",
      "type": "event"
    },
    {
      "anonymous": false,
      "inputs": [
        {
          "indexed": true,
          "internalType": "bytes32",
          "name": "role",
          "type": "bytes32"
        },
        {
          "indexed": true,
          "internalType": "bytes32",
          "name": "previousAdminRole",
          "type": "bytes32"
        },
        {
          "indexed": true,
          "internalType": "bytes32",
          "name": "newAdminRole",
          "type": "bytes32"
        }
      ],
      "name": "RoleAdminChanged",
      "type": "event"
    },
    {
      "anonymous": false,
      "inputs": [
        {
          "indexed": true,
          "internalType": "bytes32",
          "name": "role",
          "type": "bytes32"
        },
        {
          "indexed": true,
          "internalType": "address",
          "name": "account",
          "type": "address"
        },
        {
          "indexed": true,
          "internalType": "address",
          "name": "sender",
          "type": "address"
        }
      ],
      "name": "RoleGranted",
      "type": "event"
    },
    {
      "anonymous": false,
      "inputs": [
        {
          "indexed": true,
          "internalType": "bytes32",
          "name": "role",
          "type": "bytes32"
        },
        {
          "indexed": true,
          "internalType": "address",
          "name": "account",
          "type": "address"
        },
        {
          "indexed": true,
          "internalType": "address",
          "name": "sender",
          "type": "address"
        }
      ],
      "name": "RoleRevoked",
      "type": "event"
    },
    {
      "anonymous": false,
      "inputs": [
        {
          "indexed": false,
          "internalType": "address",
          "name": "sender",
          "type": "address"
        },
        {
          "indexed": false,
          "internalType": "uint256",
          "name": "amount",
          "type": "uint256"
        }
      ],
      "name": "Staked",
      "type": "event"
    },
    {
      "anonymous": false,
      "inputs": [
        {
          "indexed": false,
          "internalType": "address",
          "name": "addr",
          "type": "address"
        }
      ],
      "name": "WhitelistedAddressAdded",
      "type": "event"
    },
    {
      "anonymous": false,
      "inputs": [
        {
          "indexed": false,
          "internalType": "address",
          "name": "addr",
          "type": "address"
        }
      ],
      "name": "WhitelistedAddressRemoved",
      "type": "event"
    },
    {
      "inputs": [],
      "name": "DEFAULT_ADMIN_ROLE",
      "outputs": [
        {
          "internalType": "bytes32",
          "name": "",
          "type": "bytes32"
        }
      ],
      "stateMutability": "view",
      "type": "function"
    },
    {
      "inputs": [
        {
          "internalType": "address",
          "name": "addr",
          "type": "address"
        }
      ],
      "name": "addAddressToWhitelist",
      "outputs": [
        {
          "internalType": "bool",
          "name": "success",
          "type": "bool"
        }
      ],
      "stateMutability": "nonpayable",
      "type": "function"
    },
    {
      "inputs": [
        {
          "internalType": "address[]",
          "name": "addrs",
          "type": "address[]"
        }
      ],
      "name": "addAddressesToWhitelist",
      "outputs": [
        {
          "internalType": "bool",
          "name": "success",
          "type": "bool"
        }
      ],
      "stateMutability": "nonpayable",
      "type": "function"
    },
    {
      "inputs": [
        {
          "internalType": "address",
          "name": "user",
          "type": "address"
        }
      ],
      "name": "addUserToLeague",
      "outputs": [],
      "stateMutability": "nonpayable",
      "type": "function"
    },
    {
      "inputs": [],
      "name": "addUserToWhitelist",
      "outputs": [],
      "stateMutability": "nonpayable",
      "type": "function"
    },
    {
      "inputs": [
        {
          "internalType": "address",
          "name": "addr1",
          "type": "address"
        },
        {
          "internalType": "address",
          "name": "addr2",
          "type": "address"
        }
      ],
      "name": "evaluateMatch",
      "outputs": [
        {
          "internalType": "address",
          "name": "",
          "type": "address"
        }
      ],
      "stateMutability": "nonpayable",
      "type": "function"
    },
    {
      "inputs": [],
      "name": "getLineup",
      "outputs": [
        {
          "internalType": "uint256[]",
          "name": "",
          "type": "uint256[]"
        }
      ],
      "stateMutability": "view",
      "type": "function"
    },
    {
      "inputs": [
        {
          "internalType": "bytes32",
          "name": "role",
          "type": "bytes32"
        }
      ],
      "name": "getRoleAdmin",
      "outputs": [
        {
          "internalType": "bytes32",
          "name": "",
          "type": "bytes32"
        }
      ],
      "stateMutability": "view",
      "type": "function"
    },
    {
      "inputs": [
        {
          "internalType": "address",
          "name": "_token",
          "type": "address"
        }
      ],
      "name": "getUSDCBalance",
      "outputs": [
        {
          "internalType": "uint256",
          "name": "",
          "type": "uint256"
        }
      ],
      "stateMutability": "view",
      "type": "function"
    },
    {
      "inputs": [],
      "name": "getUserTotalPts",
      "outputs": [
        {
          "internalType": "uint256",
          "name": "",
          "type": "uint256"
        }
      ],
      "stateMutability": "view",
      "type": "function"
    },
    {
      "inputs": [],
      "name": "getUserWeeklypts",
      "outputs": [
        {
          "internalType": "uint256[]",
          "name": "",
          "type": "uint256[]"
        }
      ],
      "stateMutability": "view",
      "type": "function"
    },
    {
      "inputs": [
        {
          "internalType": "bytes32",
          "name": "role",
          "type": "bytes32"
        },
        {
          "internalType": "address",
          "name": "account",
          "type": "address"
        }
      ],
      "name": "grantRole",
      "outputs": [],
      "stateMutability": "nonpayable",
      "type": "function"
    },
    {
      "inputs": [
        {
          "internalType": "bytes32",
          "name": "role",
          "type": "bytes32"
        },
        {
          "internalType": "address",
          "name": "account",
          "type": "address"
        }
      ],
      "name": "hasRole",
      "outputs": [
        {
          "internalType": "bool",
          "name": "",
          "type": "bool"
        }
      ],
      "stateMutability": "view",
      "type": "function"
    },
    {
      "inputs": [],
      "name": "incrementVersion",
      "outputs": [
        {
          "internalType": "uint256",
          "name": "",
          "type": "uint256"
        }
      ],
      "stateMutability": "nonpayable",
      "type": "function"
    },
    {
      "inputs": [
        {
          "internalType": "string",
          "name": "_name",
          "type": "string"
        },
        {
          "internalType": "uint256",
          "name": "_version",
          "type": "uint256"
        },
        {
          "internalType": "uint256",
          "name": "_numWeeks",
          "type": "uint256"
        },
        {
          "internalType": "uint256",
          "name": "_stakeAmount",
          "type": "uint256"
        },
        {
          "internalType": "address",
          "name": "athletesDataStorageAddress",
          "type": "address"
        },
        {
          "internalType": "address",
          "name": "_owner",
          "type": "address"
        },
        {
          "internalType": "address",
          "name": "_admin",
          "type": "address"
        },
        {
          "internalType": "address",
          "name": "_polygonUSDCAddress",
          "type": "address"
        },
        {
          "internalType": "address",
          "name": "_rinkebyUSDCAddress",
          "type": "address"
        }
      ],
      "name": "initialize",
      "outputs": [],
      "stateMutability": "nonpayable",
      "type": "function"
    },
    {
      "inputs": [],
      "name": "joinLeague",
      "outputs": [],
      "stateMutability": "nonpayable",
      "type": "function"
    },
    {
      "inputs": [],
      "name": "leagueName",
      "outputs": [
        {
          "internalType": "string",
          "name": "",
          "type": "string"
        }
      ],
      "stateMutability": "view",
      "type": "function"
    },
    {
      "inputs": [],
      "name": "numWeeks",
      "outputs": [
        {
          "internalType": "uint256",
          "name": "",
          "type": "uint256"
        }
      ],
      "stateMutability": "view",
      "type": "function"
    },
    {
      "inputs": [],
      "name": "owner",
      "outputs": [
        {
          "internalType": "address",
          "name": "",
          "type": "address"
        }
      ],
      "stateMutability": "view",
      "type": "function"
    },
    {
      "inputs": [
        {
          "internalType": "address",
          "name": "addr",
          "type": "address"
        }
      ],
      "name": "removeAddressFromWhitelist",
      "outputs": [
        {
          "internalType": "bool",
          "name": "success",
          "type": "bool"
        }
      ],
      "stateMutability": "nonpayable",
      "type": "function"
    },
    {
      "inputs": [
        {
          "internalType": "address[]",
          "name": "addrs",
          "type": "address[]"
        }
      ],
      "name": "removeAddressesFromWhitelist",
      "outputs": [
        {
          "internalType": "bool",
          "name": "success",
          "type": "bool"
        }
      ],
      "stateMutability": "nonpayable",
      "type": "function"
    },
    {
      "inputs": [],
      "name": "removeFromLeague",
      "outputs": [],
      "stateMutability": "nonpayable",
      "type": "function"
    },
    {
      "inputs": [],
      "name": "renounceOwnership",
      "outputs": [],
      "stateMutability": "nonpayable",
      "type": "function"
    },
    {
      "inputs": [
        {
          "internalType": "bytes32",
          "name": "role",
          "type": "bytes32"
        },
        {
          "internalType": "address",
          "name": "account",
          "type": "address"
        }
      ],
      "name": "renounceRole",
      "outputs": [],
      "stateMutability": "nonpayable",
      "type": "function"
    },
    {
      "inputs": [
        {
          "internalType": "bytes32",
          "name": "role",
          "type": "bytes32"
        },
        {
          "internalType": "address",
          "name": "account",
          "type": "address"
        }
      ],
      "name": "revokeRole",
      "outputs": [],
      "stateMutability": "nonpayable",
      "type": "function"
    },
    {
      "inputs": [
        {
          "internalType": "address",
          "name": "_athleteContractAddress",
          "type": "address"
        }
      ],
      "name": "setAthleteContractAddress",
      "outputs": [],
      "stateMutability": "nonpayable",
      "type": "function"
    },
    {
      "inputs": [],
      "name": "setLeagueSchedule",
      "outputs": [],
      "stateMutability": "nonpayable",
      "type": "function"
    },
    {
      "inputs": [
        {
          "internalType": "uint256[]",
          "name": "athleteIds",
          "type": "uint256[]"
        }
      ],
      "name": "setLineup",
      "outputs": [],
      "stateMutability": "nonpayable",
      "type": "function"
    },
    {
      "inputs": [
        {
          "internalType": "bytes4",
          "name": "interfaceId",
          "type": "bytes4"
        }
      ],
      "name": "supportsInterface",
      "outputs": [
        {
          "internalType": "bool",
          "name": "",
          "type": "bool"
        }
      ],
      "stateMutability": "view",
      "type": "function"
    },
    {
      "inputs": [
        {
          "internalType": "address",
          "name": "newOwner",
          "type": "address"
        }
      ],
      "name": "transferOwnership",
      "outputs": [],
      "stateMutability": "nonpayable",
      "type": "function"
    },
    {
      "inputs": [],
      "name": "version",
      "outputs": [
        {
          "internalType": "uint256",
          "name": "",
          "type": "uint256"
        }
      ],
      "stateMutability": "view",
      "type": "function"
    },
    {
      "inputs": [
        {
          "internalType": "address",
          "name": "",
          "type": "address"
        }
      ],
      "name": "whitelist",
      "outputs": [
        {
          "internalType": "bool",
          "name": "",
          "type": "bool"
        }
      ],
      "stateMutability": "view",
      "type": "function"
    }
  ],
  "bytecode": "0x60806040523480156200001157600080fd5b5062000032620000266200003860201b60201c565b6200004060201b60201c565b62000105565b600033905090565b60008060029054906101000a900473ffffffffffffffffffffffffffffffffffffffff16905081600060026101000a81548173ffffffffffffffffffffffffffffffffffffffff021916908373ffffffffffffffffffffffffffffffffffffffff1602179055508173ffffffffffffffffffffffffffffffffffffffff168173ffffffffffffffffffffffffffffffffffffffff167f8be0079c531659141344cd1fd0a4f28419497f9722a3daafe3b4186f6b6457e060405160405180910390a35050565b6157d880620001156000396000f3fe60806040523480156200001157600080fd5b5060043610620002205760003560e01c80637ac6aa1d11620001295780639b19251a11620000b1578063d547741f116200007b578063d547741f1462000619578063e2ec6ec31462000639578063f2fde38b146200066f578063f612121a146200068f5762000220565b80639b19251a1462000593578063a217fddf14620005c9578063ada3a28d14620005eb578063c99fea94146200060d5762000220565b8063841abf6e11620000f3578063841abf6e14620004e3578063853976dd14620005055780638da5cb5b146200053b57806391d14854146200055d5762000220565b80637ac6aa1d146200045f5780637b9417c8146200046b5780637eed33f114620004a1578063832ca71614620004c35762000220565b80632f2ff15d11620001ad5780636802471711620001775780636802471714620003d95780636bdc44df146200040f5780636fd71a181462000431578063715018a614620004535762000220565b80632f2ff15d146200035757806336568abe1462000377578063486b3944146200039757806354fd4d5014620003b75762000220565b8063248a9ca311620001ef578063248a9ca3146200029357806324953eaa14620002c9578063286dd3f514620002ff5780632cf0a1fc14620003355762000220565b806301ffc9a714620002255780630655465a146200025b578063087e18a7146200026757806311c253f51462000287575b600080fd5b6200024360048036038101906200023d91906200394c565b620006af565b60405162000252919062003f3c565b60405180910390f35b620002656200072c565b005b6200028560048036038101906200027f919062003735565b62000f5c565b005b6200029162000ffb565b005b620002b16004803603810190620002ab9190620038d3565b62001062565b604051620002c0919062003f59565b60405180910390f35b620002e76004803603810190620002e19190620037ae565b62001082565b604051620002f6919062003f3c565b60405180910390f35b6200031d600480360381019062000317919062003735565b6200117f565b6040516200032c919062003f3c565b60405180910390f35b6200033f6200130e565b6040516200034e919062004066565b60405180910390f35b6200037560048036038101906200036f919062003905565b62001414565b005b6200039560048036038101906200038f919062003905565b62001445565b005b620003b56004803603810190620003af919062003735565b620014cf565b005b620003c162001596565b604051620003d0919062004066565b60405180910390f35b620003f76004803603810190620003f1919062003735565b6200159c565b60405162000406919062004066565b60405180910390f35b6200041962001634565b60405162000428919062004066565b60405180910390f35b6200043b6200167b565b6040516200044a919062003f18565b60405180910390f35b6200045d62001712565b005b62000469620017a3565b005b62000489600480360381019062000483919062003735565b62001816565b60405162000498919062003f3c565b60405180910390f35b620004ab620019a4565b604051620004ba919062004066565b60405180910390f35b620004e16004803603810190620004db91906200397e565b620019aa565b005b620004ed62001cbb565b604051620004fc919062003f76565b60405180910390f35b6200052360048036038101906200051d919062003767565b62001d51565b60405162000532919062003e91565b60405180910390f35b62000545620023f9565b60405162000554919062003e91565b60405180910390f35b6200057b600480360381019062000575919062003905565b62002422565b6040516200058a919062003f3c565b60405180910390f35b620005b16004803603810190620005ab919062003735565b6200248d565b604051620005c0919062003f3c565b60405180910390f35b620005d3620024ad565b604051620005e2919062003f59565b60405180910390f35b620005f5620024b4565b60405162000604919062003f18565b60405180910390f35b620006176200254b565b005b62000637600480360381019062000631919062003905565b62002645565b005b620006576004803603810190620006519190620037ae565b62002676565b60405162000666919062003f3c565b60405180910390f35b6200068d600480360381019062000687919062003735565b62002773565b005b620006ad6004803603810190620006a79190620037ff565b62002877565b005b60007f7965db0b000000000000000000000000000000000000000000000000000000007bffffffffffffffffffffffffffffffffffffffffffffffffffffffff1916827bffffffffffffffffffffffffffffffffffffffffffffffffffffffff191614806200072557506200072482620028d0565b5b9050919050565b6200076c6040518060400160405280601081526020017f73657474696e67207363686564756c65000000000000000000000000000000008152506200293a565b600060088054905060088054905062000786919062004214565b4233446005604051602001620007a0949392919062003e3f565b6040516020818303038152906040528051906020012060001c620007c591906200417f565b9050620007d281620029d7565b620007dc6200326c565b620007e66200326c565b60005b600881101562000f5657620008336040518060400160405280600181526020017f0a000000000000000000000000000000000000000000000000000000000000008152506200293a565b6200083e81620029d7565b6200087e6040518060400160405280601881526020017f2a2a2a2a2a2a2a2a2a2a2a2a2a2a2a2a2a2a2a2a2a2a2a2a00000000000000008152506200293a565b600080600260088054905062000895919062004481565b14620008b8576001600880549050620008af91906200417f565b905080620008c2565b6008805490509050805b50600083600060048110620008dc57620008db62004546565b5b6020020151905060005b600283620008f59190620041dc565b81101562000a72576000841415620009b8578086600285620009189190620041dc565b89846200092691906200417f565b62000932919062004481565b6004811062000946576200094562004546565b5b6020020181815250506002836200095e9190620041dc565b816200096b91906200417f565b856002856200097b9190620041dc565b89846200098991906200417f565b62000995919062004481565b60048110620009a957620009a862004546565b5b60200201818152505062000a5c565b6000868260048110620009d057620009cf62004546565b5b6020020151905080868360048110620009ee57620009ed62004546565b5b6020020181815250508560028562000a079190620041dc565b60018462000a1691906200417f565b62000a22919062004481565b6004811062000a365762000a3562004546565b5b602002015187836004811062000a515762000a5062004546565b5b602002018181525050505b808062000a699062004401565b915050620008e6565b506000831462000ab9578085600160028562000a8f9190620041dc565b62000a9b919062004275565b6004811062000aaf5762000aae62004546565b5b6020020181815250505b60005b60028362000acb9190620041dc565b81101562000f3d5762000add6200328e565b60088054905086836004811062000af95762000af862004546565b5b60200201511062000bd5576040518060400160405280600889856004811062000b275762000b2662004546565b5b60200201518154811062000b405762000b3f62004546565b5b9060005260206000200160009054906101000a900473ffffffffffffffffffffffffffffffffffffffff1673ffffffffffffffffffffffffffffffffffffffff1673ffffffffffffffffffffffffffffffffffffffff168152602001600073ffffffffffffffffffffffffffffffffffffffff1673ffffffffffffffffffffffffffffffffffffffff16815250905062000df4565b60088054905087836004811062000bf15762000bf062004546565b5b60200201511062000ccd576040518060400160405280600073ffffffffffffffffffffffffffffffffffffffff1673ffffffffffffffffffffffffffffffffffffffff168152602001600888856004811062000c525762000c5162004546565b5b60200201518154811062000c6b5762000c6a62004546565b5b9060005260206000200160009054906101000a900473ffffffffffffffffffffffffffffffffffffffff1673ffffffffffffffffffffffffffffffffffffffff1673ffffffffffffffffffffffffffffffffffffffff16815250905062000df3565b6040518060400160405280600889856004811062000cf05762000cef62004546565b5b60200201518154811062000d095762000d0862004546565b5b9060005260206000200160009054906101000a900473ffffffffffffffffffffffffffffffffffffffff1673ffffffffffffffffffffffffffffffffffffffff1673ffffffffffffffffffffffffffffffffffffffff168152602001600888856004811062000d7d5762000d7c62004546565b5b60200201518154811062000d965762000d9562004546565b5b9060005260206000200160009054906101000a900473ffffffffffffffffffffffffffffffffffffffff1673ffffffffffffffffffffffffffffffffffffffff1673ffffffffffffffffffffffffffffffffffffffff1681525090505b5b600060405180602001604052808381525090508060126000888152602001908152602001600020846008811062000e305762000e2f62004546565b5b6002020160008201518160000190600262000e4d929190620032b0565b5090505062000e7b816000015160006002811062000e705762000e6f62004546565b5b602002015162002a74565b62000ebb6040518060400160405280600481526020017f20767320000000000000000000000000000000000000000000000000000000008152506200293a565b62000ee5816000015160016002811062000eda5762000ed962004546565b5b602002015162002a74565b62000f256040518060400160405280600181526020017f0a000000000000000000000000000000000000000000000000000000000000008152506200293a565b5050808062000f349062004401565b91505062000abc565b505050808062000f4d9062004401565b915050620007e9565b50505050565b60088080549050101562000fd3576008819080600181540180825580915050600190039060005260206000200160009091909190916101000a81548173ffffffffffffffffffffffffffffffffffffffff021916908373ffffffffffffffffffffffffffffffffffffffff16021790555062000ff8565b62000ff76040518060600160405280602881526020016200577b602891396200293a565b5b50565b600260003373ffffffffffffffffffffffffffffffffffffffff1673ffffffffffffffffffffffffffffffffffffffff16815260200190815260200160002060009054906101000a900460ff16806200105657506000600354145b6200106057600080fd5b565b600060016000838152602001908152602001600020600101549050919050565b60006200108e62002b11565b73ffffffffffffffffffffffffffffffffffffffff16620010ae620023f9565b73ffffffffffffffffffffffffffffffffffffffff161462001107576040517f08c379a0000000000000000000000000000000000000000000000000000000008152600401620010fe9062004022565b60405180910390fd5b60005b825181101562001179576200113c8382815181106200112e576200112d62004546565b5b60200260200101516200117f565b15620011635760016003600082825462001157919062004275565b92505081905550600191505b8080620011709062004401565b9150506200110a565b50919050565b60006200118b62002b11565b73ffffffffffffffffffffffffffffffffffffffff16620011ab620023f9565b73ffffffffffffffffffffffffffffffffffffffff161462001204576040517f08c379a0000000000000000000000000000000000000000000000000000000008152600401620011fb9062004022565b60405180910390fd5b600260008373ffffffffffffffffffffffffffffffffffffffff1673ffffffffffffffffffffffffffffffffffffffff16815260200190815260200160002060009054906101000a900460ff161562001309576000600260008473ffffffffffffffffffffffffffffffffffffffff1673ffffffffffffffffffffffffffffffffffffffff16815260200190815260200160002060006101000a81548160ff0219169083151502179055507ff1abf01a1043b7c244d128e8595cf0c1d10743b022b03a02dffd8ca3bf729f5a82604051620012e0919062003e91565b60405180910390a1600160036000828254620012fd919062004275565b92505081905550600190505b919050565b6000620013506040518060400160405280601581526020017f696e6372656d656e74696e672076657273696f6e3a00000000000000000000008152506200293a565b60026004546200136191906200417f565b60048190555062001374600454620029d7565b6200141160058054620013879062004395565b80601f0160208091040260200160405190810160405280929190818152602001828054620013b59062004395565b8015620014065780601f10620013da5761010080835404028352916020019162001406565b820191906000526020600020905b815481529060010190602001808311620013e857829003601f168201915b50505050506200293a565b90565b6200141f8262001062565b62001434816200142e62002b11565b62002b19565b62001440838362002bc1565b505050565b6200144f62002b11565b73ffffffffffffffffffffffffffffffffffffffff168173ffffffffffffffffffffffffffffffffffffffff1614620014bf576040517f08c379a0000000000000000000000000000000000000000000000000000000008152600401620014b69062004044565b60405180910390fd5b620014cb828262002ca6565b5050565b620014d962002b11565b73ffffffffffffffffffffffffffffffffffffffff16620014f9620023f9565b73ffffffffffffffffffffffffffffffffffffffff161462001552576040517f08c379a0000000000000000000000000000000000000000000000000000000008152600401620015499062004022565b60405180910390fd5b80601060006101000a81548173ffffffffffffffffffffffffffffffffffffffff021916908373ffffffffffffffffffffffffffffffffffffffff16021790555050565b60045481565b60008173ffffffffffffffffffffffffffffffffffffffff166370a08231306040518263ffffffff1660e01b8152600401620015d9919062003e91565b60206040518083038186803b158015620015f257600080fd5b505afa15801562001607573d6000803e3d6000fd5b505050506040513d601f19601f820116820180604052508101906200162d919062003a81565b9050919050565b6000600960003373ffffffffffffffffffffffffffffffffffffffff1673ffffffffffffffffffffffffffffffffffffffff16815260200190815260200160002054905090565b6060600a60003373ffffffffffffffffffffffffffffffffffffffff1673ffffffffffffffffffffffffffffffffffffffff1681526020019081526020016000208054806020026020016040519081016040528092919081815260200182805480156200170857602002820191906000526020600020905b815481526020019060010190808311620016f3575b5050505050905090565b6200171c62002b11565b73ffffffffffffffffffffffffffffffffffffffff166200173c620023f9565b73ffffffffffffffffffffffffffffffffffffffff161462001795576040517f08c379a00000000000000000000000000000000000000000000000000000000081526004016200178c9062004022565b60405180910390fd5b620017a1600062002d8d565b565b620017b26000801b3362002422565b620017bc57600080fd5b6001600260003373ffffffffffffffffffffffffffffffffffffffff1673ffffffffffffffffffffffffffffffffffffffff16815260200190815260200160002060006101000a81548160ff021916908315150217905550565b60006200182262002b11565b73ffffffffffffffffffffffffffffffffffffffff1662001842620023f9565b73ffffffffffffffffffffffffffffffffffffffff16146200189b576040517f08c379a0000000000000000000000000000000000000000000000000000000008152600401620018929062004022565b60405180910390fd5b600260008373ffffffffffffffffffffffffffffffffffffffff1673ffffffffffffffffffffffffffffffffffffffff16815260200190815260200160002060009054906101000a900460ff166200199f576001600260008473ffffffffffffffffffffffffffffffffffffffff1673ffffffffffffffffffffffffffffffffffffffff16815260200190815260200160002060006101000a81548160ff0219169083151502179055507fd1bba68c128cc3f427e5831b3c6f99f480b6efa6b9e80c757768f6124158cc3f8260405162001976919062003e91565b60405180910390a16001600360008282546200199391906200417f565b92505081905550600190505b919050565b60065481565b600060019054906101000a900460ff16620019d45760008054906101000a900460ff1615620019df565b620019de62002e52565b5b62001a21576040517f08c379a000000000000000000000000000000000000000000000000000000000815260040162001a189062004000565b60405180910390fd5b60008060019054906101000a900460ff16159050801562001a72576001600060016101000a81548160ff02191690831515021790555060016000806101000a81548160ff0219169083151502179055505b8a8a6005919062001a8592919062003332565b50886004819055508760068190555060006007819055506000600c8190555086600d8190555085601060006101000a81548173ffffffffffffffffffffffffffffffffffffffff021916908373ffffffffffffffffffffffffffffffffffffffff16021790555062001afb6000801b8562002e65565b82600e60006101000a81548173ffffffffffffffffffffffffffffffffffffffff021916908373ffffffffffffffffffffffffffffffffffffffff16021790555081600f60006101000a81548173ffffffffffffffffffffffffffffffffffffffff021916908373ffffffffffffffffffffffffffffffffffffffff1602179055506008339080600181540180825580915050600190039060005260206000200160009091909190916101000a81548173ffffffffffffffffffffffffffffffffffffffff021916908373ffffffffffffffffffffffffffffffffffffffff16021790555060405162001bee90620033c3565b604051809103906000f08015801562001c0b573d6000803e3d6000fd5b50601160006101000a81548173ffffffffffffffffffffffffffffffffffffffff021916908373ffffffffffffffffffffffffffffffffffffffff16021790555062001c8c6040518060400160405280601281526020017f50726f787920696e697469616c697a65642100000000000000000000000000008152506200293a565b801562001cae5760008060016101000a81548160ff0219169083151502179055505b5050505050505050505050565b6005805462001cca9062004395565b80601f016020809104026020016040519081016040528092919081815260200182805462001cf89062004395565b801562001d495780601f1062001d1d5761010080835404028352916020019162001d49565b820191906000526020600020905b81548152906001019060200180831162001d2b57829003601f168201915b505050505081565b600062001d5d62002b11565b73ffffffffffffffffffffffffffffffffffffffff1662001d7d620023f9565b73ffffffffffffffffffffffffffffffffffffffff161462001dd6576040517f08c379a000000000000000000000000000000000000000000000000000000000815260040162001dcd9062004022565b60405180910390fd5b6000600b60008573ffffffffffffffffffffffffffffffffffffffff1673ffffffffffffffffffffffffffffffffffffffff16815260200190815260200160002080548060200260200160405190810160405280929190818152602001828054801562001e6357602002820191906000526020600020905b81548152602001906001019080831162001e4e575b505050505090506000600b60008573ffffffffffffffffffffffffffffffffffffffff1673ffffffffffffffffffffffffffffffffffffffff16815260200190815260200160002080548060200260200160405190810160405280929190818152602001828054801562001ef757602002820191906000526020600020905b81548152602001906001019080831162001ee2575b5050505050905060008060005b84518110156200216a576000601060009054906101000a900473ffffffffffffffffffffffffffffffffffffffff1673ffffffffffffffffffffffffffffffffffffffff1663d4313da887848151811062001f645762001f6362004546565b5b60200260200101516040518263ffffffff1660e01b815260040162001f8a919062004066565b60006040518083038186803b15801562001fa357600080fd5b505afa15801562001fb8573d6000803e3d6000fd5b505050506040513d6000823e3d601f19601f8201168201806040525081019062001fe3919062003850565b90506000601060009054906101000a900473ffffffffffffffffffffffffffffffffffffffff1673ffffffffffffffffffffffffffffffffffffffff1663d4313da88785815181106200203b576200203a62004546565b5b60200260200101516040518263ffffffff1660e01b815260040162002061919062004066565b60006040518083038186803b1580156200207a57600080fd5b505afa1580156200208f573d6000803e3d6000fd5b505050506040513d6000823e3d601f19601f82011682018060405250810190620020ba919062003850565b905060008260018451620020cf919062004275565b81518110620020e357620020e262004546565b5b602002602001015190506000826001845162002100919062004275565b8151811062002114576200211362004546565b5b60200260200101519050808211156200213e576001876200213691906200417f565b965062002150565b6001866200214d91906200417f565b95505b505050508080620021619062004401565b91505062001f04565b506001600760008282546200218091906200417f565b9250508190555080821115620022c457600a60008873ffffffffffffffffffffffffffffffffffffffff1673ffffffffffffffffffffffffffffffffffffffff16815260200190815260200160002060019080600181540180825580915050600190039060005260206000200160009091909190915055600a60008773ffffffffffffffffffffffffffffffffffffffff1673ffffffffffffffffffffffffffffffffffffffff168152602001908152602001600020600090806001815401808255809150506001900390600052602060002001600090919091909150556001600960008973ffffffffffffffffffffffffffffffffffffffff1673ffffffffffffffffffffffffffffffffffffffff1681526020019081526020016000206000828254620022b091906200417f565b9250508190555086945050505050620023f3565b600a60008773ffffffffffffffffffffffffffffffffffffffff1673ffffffffffffffffffffffffffffffffffffffff16815260200190815260200160002060019080600181540180825580915050600190039060005260206000200160009091909190915055600a60008873ffffffffffffffffffffffffffffffffffffffff1673ffffffffffffffffffffffffffffffffffffffff168152602001908152602001600020600090806001815401808255809150506001900390600052602060002001600090919091909150556001600960008873ffffffffffffffffffffffffffffffffffffffff1673ffffffffffffffffffffffffffffffffffffffff1681526020019081526020016000206000828254620023e491906200417f565b92505081905550859450505050505b92915050565b60008060029054906101000a900473ffffffffffffffffffffffffffffffffffffffff16905090565b60006001600084815260200190815260200160002060000160008373ffffffffffffffffffffffffffffffffffffffff1673ffffffffffffffffffffffffffffffffffffffff16815260200190815260200160002060009054906101000a900460ff16905092915050565b60026020528060005260406000206000915054906101000a900460ff1681565b6000801b81565b6060600b60003373ffffffffffffffffffffffffffffffffffffffff1673ffffffffffffffffffffffffffffffffffffffff1681526020019081526020016000208054806020026020016040519081016040528092919081815260200182805480156200254157602002820191906000526020600020905b8154815260200190600101908083116200252c575b5050505050905090565b600260003373ffffffffffffffffffffffffffffffffffffffff1673ffffffffffffffffffffffffffffffffffffffff16815260200190815260200160002060009054906101000a900460ff1680620025a657506000600354145b620025b057600080fd5b6008339080600181540180825580915050600190039060005260206000200160009091909190916101000a81548173ffffffffffffffffffffffffffffffffffffffff021916908373ffffffffffffffffffffffffffffffffffffffff16021790555062002643600f60009054906101000a900473ffffffffffffffffffffffffffffffffffffffff16600d5462002e75565b565b620026508262001062565b62002665816200265f62002b11565b62002b19565b62002671838362002ca6565b505050565b60006200268262002b11565b73ffffffffffffffffffffffffffffffffffffffff16620026a2620023f9565b73ffffffffffffffffffffffffffffffffffffffff1614620026fb576040517f08c379a0000000000000000000000000000000000000000000000000000000008152600401620026f29062004022565b60405180910390fd5b60005b82518110156200276d576200273083828151811062002722576200272162004546565b5b602002602001015162001816565b1562002757576001600360008282546200274b91906200417f565b92505081905550600191505b8080620027649062004401565b915050620026fe565b50919050565b6200277d62002b11565b73ffffffffffffffffffffffffffffffffffffffff166200279d620023f9565b73ffffffffffffffffffffffffffffffffffffffff1614620027f6576040517f08c379a0000000000000000000000000000000000000000000000000000000008152600401620027ed9062004022565b60405180910390fd5b600073ffffffffffffffffffffffffffffffffffffffff168173ffffffffffffffffffffffffffffffffffffffff16141562002869576040517f08c379a0000000000000000000000000000000000000000000000000000000008152600401620028609062003fbc565b60405180910390fd5b620028748162002d8d565b50565b80600b60003373ffffffffffffffffffffffffffffffffffffffff1673ffffffffffffffffffffffffffffffffffffffff1681526020019081526020016000209080519060200190620028cc929190620033d1565b5050565b60007f01ffc9a7000000000000000000000000000000000000000000000000000000007bffffffffffffffffffffffffffffffffffffffffffffffffffffffff1916827bffffffffffffffffffffffffffffffffffffffffffffffffffffffff1916149050919050565b620029d48160405160240162002951919062003f76565b6040516020818303038152906040527f41304fac000000000000000000000000000000000000000000000000000000007bffffffffffffffffffffffffffffffffffffffffffffffffffffffff19166020820180517bffffffffffffffffffffffffffffffffffffffffffffffffffffffff838183161783525050505062002fad565b50565b62002a7181604051602401620029ee919062004066565b6040516020818303038152906040527ff5b1bba9000000000000000000000000000000000000000000000000000000007bffffffffffffffffffffffffffffffffffffffffffffffffffffffff19166020820180517bffffffffffffffffffffffffffffffffffffffffffffffffffffffff838183161783525050505062002fad565b50565b62002b0e8160405160240162002a8b919062003e91565b6040516020818303038152906040527f2c2ecbc2000000000000000000000000000000000000000000000000000000007bffffffffffffffffffffffffffffffffffffffffffffffffffffffff19166020820180517bffffffffffffffffffffffffffffffffffffffffffffffffffffffff838183161783525050505062002fad565b50565b600033905090565b62002b25828262002422565b62002bbd5762002b4d8173ffffffffffffffffffffffffffffffffffffffff16601462002fd6565b62002b5d8360001c602062002fd6565b60405160200162002b7092919062003dfd565b6040516020818303038152906040526040517f08c379a000000000000000000000000000000000000000000000000000000000815260040162002bb4919062003f76565b60405180910390fd5b5050565b62002bcd828262002422565b62002ca257600180600084815260200190815260200160002060000160008373ffffffffffffffffffffffffffffffffffffffff1673ffffffffffffffffffffffffffffffffffffffff16815260200190815260200160002060006101000a81548160ff02191690831515021790555062002c4762002b11565b73ffffffffffffffffffffffffffffffffffffffff168173ffffffffffffffffffffffffffffffffffffffff16837f2f8788117e7eff1d82e926ec794901d17c78024a50270940304540a733656f0d60405160405180910390a45b5050565b62002cb2828262002422565b1562002d895760006001600084815260200190815260200160002060000160008373ffffffffffffffffffffffffffffffffffffffff1673ffffffffffffffffffffffffffffffffffffffff16815260200190815260200160002060006101000a81548160ff02191690831515021790555062002d2e62002b11565b73ffffffffffffffffffffffffffffffffffffffff168173ffffffffffffffffffffffffffffffffffffffff16837ff6391f5c32d9c69d2a47ea670b442974b53935d1edc7fd64eb21e047a839171b60405160405180910390a45b5050565b60008060029054906101000a900473ffffffffffffffffffffffffffffffffffffffff16905081600060026101000a81548173ffffffffffffffffffffffffffffffffffffffff021916908373ffffffffffffffffffffffffffffffffffffffff1602179055508173ffffffffffffffffffffffffffffffffffffffff168173ffffffffffffffffffffffffffffffffffffffff167f8be0079c531659141344cd1fd0a4f28419497f9722a3daafe3b4186f6b6457e060405160405180910390a35050565b600062002e5f3062003231565b15905090565b62002e71828262002bc1565b5050565b6000811162002ebb576040517f08c379a000000000000000000000000000000000000000000000000000000000815260040162002eb29062003fde565b60405180910390fd5b62002ed281600c546200325490919063ffffffff16565b600c819055508173ffffffffffffffffffffffffffffffffffffffff166323b872dd3330846040518463ffffffff1660e01b815260040162002f179392919062003eae565b602060405180830381600087803b15801562002f3257600080fd5b505af115801562002f47573d6000803e3d6000fd5b505050506040513d601f19601f8201168201806040525081019062002f6d9190620038a1565b507f9e71bc8eea02a63969f509818f2dafb9254532904319f9dbda79b67bd34a5f3d338260405162002fa192919062003eeb565b60405180910390a15050565b60008151905060006a636f6e736f6c652e6c6f679050602083016000808483855afa5050505050565b60606000600283600262002feb919062004214565b62002ff791906200417f565b67ffffffffffffffff81111562003013576200301262004575565b5b6040519080825280601f01601f191660200182016040528015620030465781602001600182028036833780820191505090505b5090507f30000000000000000000000000000000000000000000000000000000000000008160008151811062003081576200308062004546565b5b60200101907effffffffffffffffffffffffffffffffffffffffffffffffffffffffffffff1916908160001a9053507f780000000000000000000000000000000000000000000000000000000000000081600181518110620030e857620030e762004546565b5b60200101907effffffffffffffffffffffffffffffffffffffffffffffffffffffffffffff1916908160001a905350600060018460026200312a919062004214565b6200313691906200417f565b90505b6001811115620031e0577f3031323334353637383961626364656600000000000000000000000000000000600f8616601081106200317c576200317b62004546565b5b1a60f81b82828151811062003196576200319562004546565b5b60200101907effffffffffffffffffffffffffffffffffffffffffffffffffffffffffffff1916908160001a905350600485901c945080620031d89062004366565b905062003139565b506000841462003227576040517f08c379a00000000000000000000000000000000000000000000000000000000081526004016200321e9062003f9a565b60405180910390fd5b8091505092915050565b6000808273ffffffffffffffffffffffffffffffffffffffff163b119050919050565b600081836200326491906200417f565b905092915050565b6040518060800160405280600490602082028036833780820191505090505090565b6040518060400160405280600290602082028036833780820191505090505090565b82600281019282156200331f579160200282015b828111156200331e5782518260006101000a81548173ffffffffffffffffffffffffffffffffffffffff021916908373ffffffffffffffffffffffffffffffffffffffff16021790555091602001919060010190620032c4565b5b5090506200332e919062003423565b5090565b828054620033409062004395565b90600052602060002090601f016020900481019282620033645760008555620033b0565b82601f106200337f57803560ff1916838001178555620033b0565b82800160010185558215620033b0579182015b82811115620033af57823582559160200191906001019062003392565b5b509050620033bf919062003423565b5090565b610f63806200481883390190565b82805482825590600052602060002090810192821562003410579160200282015b828111156200340f578251825591602001919060010190620033f2565b5b5090506200341f919062003423565b5090565b5b808211156200343e57600081600090555060010162003424565b5090565b6000620034596200345384620040ac565b62004083565b905080838252602082019050828560208602820111156200347f576200347e620045ae565b5b60005b85811015620034b35781620034988882620035b3565b84526020840193506020830192505060018101905062003482565b5050509392505050565b6000620034d4620034ce84620040db565b62004083565b90508083825260208201905082856020860282011115620034fa57620034f9620045ae565b5b60005b858110156200352e578162003513888262003707565b845260208401935060208301925050600181019050620034fd565b5050509392505050565b60006200354f6200354984620040db565b62004083565b90508083825260208201905082856020860282011115620035755762003574620045ae565b5b60005b85811015620035a957816200358e88826200371e565b84526020840193506020830192505060018101905062003578565b5050509392505050565b600081359050620035c48162004795565b92915050565b600082601f830112620035e257620035e1620045a9565b5b8135620035f484826020860162003442565b91505092915050565b600082601f830112620036155762003614620045a9565b5b813562003627848260208601620034bd565b91505092915050565b600082601f830112620036485762003647620045a9565b5b81516200365a84826020860162003538565b91505092915050565b6000815190506200367481620047af565b92915050565b6000813590506200368b81620047c9565b92915050565b600081359050620036a281620047e3565b92915050565b60008083601f840112620036c157620036c0620045a9565b5b8235905067ffffffffffffffff811115620036e157620036e0620045a4565b5b6020830191508360018202830111156200370057620036ff620045ae565b5b9250929050565b6000813590506200371881620047fd565b92915050565b6000815190506200372f81620047fd565b92915050565b6000602082840312156200374e576200374d620045b8565b5b60006200375e84828501620035b3565b91505092915050565b60008060408385031215620037815762003780620045b8565b5b60006200379185828601620035b3565b9250506020620037a485828601620035b3565b9150509250929050565b600060208284031215620037c757620037c6620045b8565b5b600082013567ffffffffffffffff811115620037e857620037e7620045b3565b5b620037f684828501620035ca565b91505092915050565b600060208284031215620038185762003817620045b8565b5b600082013567ffffffffffffffff811115620038395762003838620045b3565b5b6200384784828501620035fd565b91505092915050565b600060208284031215620038695762003868620045b8565b5b600082015167ffffffffffffffff8111156200388a5762003889620045b3565b5b620038988482850162003630565b91505092915050565b600060208284031215620038ba57620038b9620045b8565b5b6000620038ca8482850162003663565b91505092915050565b600060208284031215620038ec57620038eb620045b8565b5b6000620038fc848285016200367a565b91505092915050565b600080604083850312156200391f576200391e620045b8565b5b60006200392f858286016200367a565b92505060206200394285828601620035b3565b9150509250929050565b600060208284031215620039655762003964620045b8565b5b6000620039758482850162003691565b91505092915050565b6000806000806000806000806000806101208b8d031215620039a557620039a4620045b8565b5b60008b013567ffffffffffffffff811115620039c657620039c5620045b3565b5b620039d48d828e01620036a8565b9a509a50506020620039e98d828e0162003707565b9850506040620039fc8d828e0162003707565b975050606062003a0f8d828e0162003707565b965050608062003a228d828e01620035b3565b95505060a062003a358d828e01620035b3565b94505060c062003a488d828e01620035b3565b93505060e062003a5b8d828e01620035b3565b92505061010062003a6f8d828e01620035b3565b9150509295989b9194979a5092959850565b60006020828403121562003a9a5762003a99620045b8565b5b600062003aaa848285016200371e565b91505092915050565b600062003ac1838362003dc0565b60208301905092915050565b62003ad881620042b0565b82525050565b62003af362003aed82620042b0565b6200444f565b82525050565b600062003b06826200412f565b62003b12818562004152565b935062003b1f836200410a565b8060005b8381101562003b5657815162003b3a888262003ab3565b975062003b478362004145565b92505060018101905062003b23565b5085935050505092915050565b62003b6e81620042c4565b82525050565b62003b7f81620042d0565b82525050565b600062003b92826200413a565b62003b9e818562004163565b935062003bb081856020860162004330565b62003bbb81620045bd565b840191505092915050565b600062003bd3826200413a565b62003bdf818562004174565b935062003bf181856020860162004330565b80840191505092915050565b6000815462003c0c8162004395565b62003c18818662004174565b9450600182166000811462003c36576001811462003c485762003c7f565b60ff1983168652818601935062003c7f565b62003c53856200411a565b60005b8381101562003c775781548189015260018201915060208101905062003c56565b838801955050505b50505092915050565b600062003c9760208362004163565b915062003ca482620045db565b602082019050919050565b600062003cbe60268362004163565b915062003ccb8262004604565b604082019050919050565b600062003ce5600e8362004163565b915062003cf28262004653565b602082019050919050565b600062003d0c602e8362004163565b915062003d19826200467c565b604082019050919050565b600062003d3360208362004163565b915062003d4082620046cb565b602082019050919050565b600062003d5a60178362004174565b915062003d6782620046f4565b601782019050919050565b600062003d8160118362004174565b915062003d8e826200471d565b601182019050919050565b600062003da8602f8362004163565b915062003db58262004746565b604082019050919050565b62003dcb8162004326565b82525050565b62003ddc8162004326565b82525050565b62003df762003df18262004326565b62004477565b82525050565b600062003e0a8262003d4b565b915062003e18828562003bc6565b915062003e258262003d72565b915062003e33828462003bc6565b91508190509392505050565b600062003e4d828762003de2565b60208201915062003e5f828662003ade565b60148201915062003e71828562003de2565b60208201915062003e83828462003bfd565b915081905095945050505050565b600060208201905062003ea8600083018462003acd565b92915050565b600060608201905062003ec5600083018662003acd565b62003ed4602083018562003acd565b62003ee3604083018462003dd1565b949350505050565b600060408201905062003f02600083018562003acd565b62003f11602083018462003dd1565b9392505050565b6000602082019050818103600083015262003f34818462003af9565b905092915050565b600060208201905062003f53600083018462003b63565b92915050565b600060208201905062003f70600083018462003b74565b92915050565b6000602082019050818103600083015262003f92818462003b85565b905092915050565b6000602082019050818103600083015262003fb58162003c88565b9050919050565b6000602082019050818103600083015262003fd78162003caf565b9050919050565b6000602082019050818103600083015262003ff98162003cd6565b9050919050565b600060208201905081810360008301526200401b8162003cfd565b9050919050565b600060208201905081810360008301526200403d8162003d24565b9050919050565b600060208201905081810360008301526200405f8162003d99565b9050919050565b60006020820190506200407d600083018462003dd1565b92915050565b60006200408f620040a2565b90506200409d8282620043cb565b919050565b6000604051905090565b600067ffffffffffffffff821115620040ca57620040c962004575565b5b602082029050602081019050919050565b600067ffffffffffffffff821115620040f957620040f862004575565b5b602082029050602081019050919050565b6000819050602082019050919050565b60008190508160005260206000209050919050565b600081519050919050565b600081519050919050565b6000602082019050919050565b600082825260208201905092915050565b600082825260208201905092915050565b600081905092915050565b60006200418c8262004326565b9150620041998362004326565b9250827fffffffffffffffffffffffffffffffffffffffffffffffffffffffffffffffff03821115620041d157620041d0620044b9565b5b828201905092915050565b6000620041e98262004326565b9150620041f68362004326565b925082620042095762004208620044e8565b5b828204905092915050565b6000620042218262004326565b91506200422e8362004326565b9250817fffffffffffffffffffffffffffffffffffffffffffffffffffffffffffffffff04831182151516156200426a5762004269620044b9565b5b828202905092915050565b6000620042828262004326565b91506200428f8362004326565b925082821015620042a557620042a4620044b9565b5b828203905092915050565b6000620042bd8262004306565b9050919050565b60008115159050919050565b6000819050919050565b60007fffffffff0000000000000000000000000000000000000000000000000000000082169050919050565b600073ffffffffffffffffffffffffffffffffffffffff82169050919050565b6000819050919050565b60005b838110156200435057808201518184015260208101905062004333565b8381111562004360576000848401525b50505050565b6000620043738262004326565b915060008214156200438a5762004389620044b9565b5b600182039050919050565b60006002820490506001821680620043ae57607f821691505b60208210811415620043c557620043c462004517565b5b50919050565b620043d682620045bd565b810181811067ffffffffffffffff82111715620043f857620043f762004575565b5b80604052505050565b60006200440e8262004326565b91507fffffffffffffffffffffffffffffffffffffffffffffffffffffffffffffffff821415620044445762004443620044b9565b5b600182019050919050565b60006200445c8262004463565b9050919050565b60006200447082620045ce565b9050919050565b6000819050919050565b60006200448e8262004326565b91506200449b8362004326565b925082620044ae57620044ad620044e8565b5b828206905092915050565b7f4e487b7100000000000000000000000000000000000000000000000000000000600052601160045260246000fd5b7f4e487b7100000000000000000000000000000000000000000000000000000000600052601260045260246000fd5b7f4e487b7100000000000000000000000000000000000000000000000000000000600052602260045260246000fd5b7f4e487b7100000000000000000000000000000000000000000000000000000000600052603260045260246000fd5b7f4e487b7100000000000000000000000000000000000000000000000000000000600052604160045260246000fd5b600080fd5b600080fd5b600080fd5b600080fd5b600080fd5b6000601f19601f8301169050919050565b60008160601b9050919050565b7f537472696e67733a20686578206c656e67746820696e73756666696369656e74600082015250565b7f4f776e61626c653a206e6577206f776e657220697320746865207a65726f206160008201527f6464726573730000000000000000000000000000000000000000000000000000602082015250565b7f43616e6e6f74207374616b652030000000000000000000000000000000000000600082015250565b7f496e697469616c697a61626c653a20636f6e747261637420697320616c72656160008201527f647920696e697469616c697a6564000000000000000000000000000000000000602082015250565b7f4f776e61626c653a2063616c6c6572206973206e6f7420746865206f776e6572600082015250565b7f416363657373436f6e74726f6c3a206163636f756e7420000000000000000000600082015250565b7f206973206d697373696e6720726f6c6520000000000000000000000000000000600082015250565b7f416363657373436f6e74726f6c3a2063616e206f6e6c792072656e6f756e636560008201527f20726f6c657320666f722073656c660000000000000000000000000000000000602082015250565b620047a081620042b0565b8114620047ac57600080fd5b50565b620047ba81620042c4565b8114620047c657600080fd5b50565b620047d481620042d0565b8114620047e057600080fd5b50565b620047ee81620042da565b8114620047fa57600080fd5b50565b620048088162004326565b81146200481457600080fd5b5056fe608060405234801561001057600080fd5b5061002d61002261003260201b60201c565b61003a60201b60201c565b6100fe565b600033905090565b60008060009054906101000a900473ffffffffffffffffffffffffffffffffffffffff169050816000806101000a81548173ffffffffffffffffffffffffffffffffffffffff021916908373ffffffffffffffffffffffffffffffffffffffff1602179055508173ffffffffffffffffffffffffffffffffffffffff168173ffffffffffffffffffffffffffffffffffffffff167f8be0079c531659141344cd1fd0a4f28419497f9722a3daafe3b4186f6b6457e060405160405180910390a35050565b610e568061010d6000396000f3fe608060405234801561001057600080fd5b50600436106100885760003560e01c80638da5cb5b1161005b5780638da5cb5b146101275780639b19251a14610145578063e2ec6ec314610175578063f2fde38b146101a557610088565b806324953eaa1461008d578063286dd3f5146100bd578063715018a6146100ed5780637b9417c8146100f7575b600080fd5b6100a760048036038101906100a29190610a0e565b6101c1565b6040516100b49190610ad6565b60405180910390f35b6100d760048036038101906100d291906109e1565b6102ab565b6040516100e49190610ad6565b60405180910390f35b6100f561042e565b005b610111600480360381019061010c91906109e1565b6104b6565b60405161011e9190610ad6565b60405180910390f35b61012f610637565b60405161013c9190610abb565b60405180910390f35b61015f600480360381019061015a91906109e1565b610660565b60405161016c9190610ad6565b60405180910390f35b61018f600480360381019061018a9190610a0e565b610680565b60405161019c9190610ad6565b60405180910390f35b6101bf60048036038101906101ba91906109e1565b61076a565b005b60006101cb610862565b73ffffffffffffffffffffffffffffffffffffffff166101e9610637565b73ffffffffffffffffffffffffffffffffffffffff161461023f576040517f08c379a000000000000000000000000000000000000000000000000000000000815260040161023690610b11565b60405180910390fd5b60005b82518110156102a55761026e83828151811061026157610260610d0e565b5b60200260200101516102ab565b15610292576001600260008282546102869190610be9565b92505081905550600191505b808061029d90610c96565b915050610242565b50919050565b60006102b5610862565b73ffffffffffffffffffffffffffffffffffffffff166102d3610637565b73ffffffffffffffffffffffffffffffffffffffff1614610329576040517f08c379a000000000000000000000000000000000000000000000000000000000815260040161032090610b11565b60405180910390fd5b600160008373ffffffffffffffffffffffffffffffffffffffff1673ffffffffffffffffffffffffffffffffffffffff16815260200190815260200160002060009054906101000a900460ff1615610429576000600160008473ffffffffffffffffffffffffffffffffffffffff1673ffffffffffffffffffffffffffffffffffffffff16815260200190815260200160002060006101000a81548160ff0219169083151502179055507ff1abf01a1043b7c244d128e8595cf0c1d10743b022b03a02dffd8ca3bf729f5a826040516104029190610abb565b60405180910390a160016002600082825461041d9190610be9565b92505081905550600190505b919050565b610436610862565b73ffffffffffffffffffffffffffffffffffffffff16610454610637565b73ffffffffffffffffffffffffffffffffffffffff16146104aa576040517f08c379a00000000000000000000000000000000000000000000000000000000081526004016104a190610b11565b60405180910390fd5b6104b4600061086a565b565b60006104c0610862565b73ffffffffffffffffffffffffffffffffffffffff166104de610637565b73ffffffffffffffffffffffffffffffffffffffff1614610534576040517f08c379a000000000000000000000000000000000000000000000000000000000815260040161052b90610b11565b60405180910390fd5b600160008373ffffffffffffffffffffffffffffffffffffffff1673ffffffffffffffffffffffffffffffffffffffff16815260200190815260200160002060009054906101000a900460ff166106325760018060008473ffffffffffffffffffffffffffffffffffffffff1673ffffffffffffffffffffffffffffffffffffffff16815260200190815260200160002060006101000a81548160ff0219169083151502179055507fd1bba68c128cc3f427e5831b3c6f99f480b6efa6b9e80c757768f6124158cc3f8260405161060b9190610abb565b60405180910390a16001600260008282546106269190610b93565b92505081905550600190505b919050565b60008060009054906101000a900473ffffffffffffffffffffffffffffffffffffffff16905090565b60016020528060005260406000206000915054906101000a900460ff1681565b600061068a610862565b73ffffffffffffffffffffffffffffffffffffffff166106a8610637565b73ffffffffffffffffffffffffffffffffffffffff16146106fe576040517f08c379a00000000000000000000000000000000000000000000000000000000081526004016106f590610b11565b60405180910390fd5b60005b82518110156107645761072d8382815181106107205761071f610d0e565b5b60200260200101516104b6565b15610751576001600260008282546107459190610b93565b92505081905550600191505b808061075c90610c96565b915050610701565b50919050565b610772610862565b73ffffffffffffffffffffffffffffffffffffffff16610790610637565b73ffffffffffffffffffffffffffffffffffffffff16146107e6576040517f08c379a00000000000000000000000000000000000000000000000000000000081526004016107dd90610b11565b60405180910390fd5b600073ffffffffffffffffffffffffffffffffffffffff168173ffffffffffffffffffffffffffffffffffffffff161415610856576040517f08c379a000000000000000000000000000000000000000000000000000000000815260040161084d90610af1565b60405180910390fd5b61085f8161086a565b50565b600033905090565b60008060009054906101000a900473ffffffffffffffffffffffffffffffffffffffff169050816000806101000a81548173ffffffffffffffffffffffffffffffffffffffff021916908373ffffffffffffffffffffffffffffffffffffffff1602179055508173ffffffffffffffffffffffffffffffffffffffff168173ffffffffffffffffffffffffffffffffffffffff167f8be0079c531659141344cd1fd0a4f28419497f9722a3daafe3b4186f6b6457e060405160405180910390a35050565b600061094161093c84610b56565b610b31565b9050808382526020820190508285602086028201111561096457610963610d71565b5b60005b85811015610994578161097a888261099e565b845260208401935060208301925050600181019050610967565b5050509392505050565b6000813590506109ad81610e09565b92915050565b600082601f8301126109c8576109c7610d6c565b5b81356109d884826020860161092e565b91505092915050565b6000602082840312156109f7576109f6610d7b565b5b6000610a058482850161099e565b91505092915050565b600060208284031215610a2457610a23610d7b565b5b600082013567ffffffffffffffff811115610a4257610a41610d76565b5b610a4e848285016109b3565b91505092915050565b610a6081610c1d565b82525050565b610a6f81610c2f565b82525050565b6000610a82602683610b82565b9150610a8d82610d91565b604082019050919050565b6000610aa5602083610b82565b9150610ab082610de0565b602082019050919050565b6000602082019050610ad06000830184610a57565b92915050565b6000602082019050610aeb6000830184610a66565b92915050565b60006020820190508181036000830152610b0a81610a75565b9050919050565b60006020820190508181036000830152610b2a81610a98565b9050919050565b6000610b3b610b4c565b9050610b478282610c65565b919050565b6000604051905090565b600067ffffffffffffffff821115610b7157610b70610d3d565b5b602082029050602081019050919050565b600082825260208201905092915050565b6000610b9e82610c5b565b9150610ba983610c5b565b9250827fffffffffffffffffffffffffffffffffffffffffffffffffffffffffffffffff03821115610bde57610bdd610cdf565b5b828201905092915050565b6000610bf482610c5b565b9150610bff83610c5b565b925082821015610c1257610c11610cdf565b5b828203905092915050565b6000610c2882610c3b565b9050919050565b60008115159050919050565b600073ffffffffffffffffffffffffffffffffffffffff82169050919050565b6000819050919050565b610c6e82610d80565b810181811067ffffffffffffffff82111715610c8d57610c8c610d3d565b5b80604052505050565b6000610ca182610c5b565b91507fffffffffffffffffffffffffffffffffffffffffffffffffffffffffffffffff821415610cd457610cd3610cdf565b5b600182019050919050565b7f4e487b7100000000000000000000000000000000000000000000000000000000600052601160045260246000fd5b7f4e487b7100000000000000000000000000000000000000000000000000000000600052603260045260246000fd5b7f4e487b7100000000000000000000000000000000000000000000000000000000600052604160045260246000fd5b600080fd5b600080fd5b600080fd5b600080fd5b6000601f19601f8301169050919050565b7f4f776e61626c653a206e6577206f776e657220697320746865207a65726f206160008201527f6464726573730000000000000000000000000000000000000000000000000000602082015250565b7f4f776e61626c653a2063616c6c6572206973206e6f7420746865206f776e6572600082015250565b610e1281610c1d565b8114610e1d57600080fd5b5056fea264697066735822122028f537dd9b5fe894d1477bbddc996ce32a420981c0b41afd39c00eed7de828ef64736f6c63430008070033746f6f206d616e7920757365727320696e206c656167756520746f20616464206e65772075736572a2646970667358221220eae8a899eac7dcd5e31d01a063f15e5c3775f87cfb63a410b625e16cd45eab2664736f6c63430008070033",
  "linkReferences": {},
  "deployedLinkReferences": {}
}