{
  "_format": "hh-sol-artifact-1",
  "contractName": "GameLogic",
  "sourceName": "contracts/GameLogic.sol",
  "abi": [
    {
      "anonymous": false,
      "inputs": [
        {
          "indexed": true,
          "internalType": "address",
          "name": "previousOwner",
          "type": "address"
        },
        {
          "indexed": true,
          "internalType": "address",
          "name": "newOwner",
          "type": "address"
        }
      ],
      "name": "OwnershipTransferred",
      "type": "event"
    },
    {
      "anonymous": false,
      "inputs": [
        {
          "indexed": true,
          "internalType": "bytes32",
          "name": "role",
          "type": "bytes32"
        },
        {
          "indexed": true,
          "internalType": "bytes32",
          "name": "previousAdminRole",
          "type": "bytes32"
        },
        {
          "indexed": true,
          "internalType": "bytes32",
          "name": "newAdminRole",
          "type": "bytes32"
        }
      ],
      "name": "RoleAdminChanged",
      "type": "event"
    },
    {
      "anonymous": false,
      "inputs": [
        {
          "indexed": true,
          "internalType": "bytes32",
          "name": "role",
          "type": "bytes32"
        },
        {
          "indexed": true,
          "internalType": "address",
          "name": "account",
          "type": "address"
        },
        {
          "indexed": true,
          "internalType": "address",
          "name": "sender",
          "type": "address"
        }
      ],
      "name": "RoleGranted",
      "type": "event"
    },
    {
      "anonymous": false,
      "inputs": [
        {
          "indexed": true,
          "internalType": "bytes32",
          "name": "role",
          "type": "bytes32"
        },
        {
          "indexed": true,
          "internalType": "address",
          "name": "account",
          "type": "address"
        },
        {
          "indexed": true,
          "internalType": "address",
          "name": "sender",
          "type": "address"
        }
      ],
      "name": "RoleRevoked",
      "type": "event"
    },
    {
      "anonymous": false,
      "inputs": [
        {
          "indexed": false,
          "internalType": "address",
          "name": "sender",
          "type": "address"
        },
        {
          "indexed": false,
          "internalType": "uint256",
          "name": "amount",
          "type": "uint256"
        }
      ],
      "name": "Staked",
      "type": "event"
    },
    {
      "anonymous": false,
      "inputs": [
        {
          "indexed": false,
          "internalType": "address",
          "name": "addr",
          "type": "address"
        }
      ],
      "name": "WhitelistedAddressAdded",
      "type": "event"
    },
    {
      "anonymous": false,
      "inputs": [
        {
          "indexed": false,
          "internalType": "address",
          "name": "addr",
          "type": "address"
        }
      ],
      "name": "WhitelistedAddressRemoved",
      "type": "event"
    },
    {
      "anonymous": false,
      "inputs": [
        {
          "indexed": false,
          "internalType": "uint256",
          "name": "newVersion",
          "type": "uint256"
        }
      ],
      "name": "versionIncremented",
      "type": "event"
    },
    {
      "inputs": [],
      "name": "DEFAULT_ADMIN_ROLE",
      "outputs": [
        {
          "internalType": "bytes32",
          "name": "",
          "type": "bytes32"
        }
      ],
      "stateMutability": "view",
      "type": "function"
    },
    {
      "inputs": [
        {
          "internalType": "address",
          "name": "addr",
          "type": "address"
        }
      ],
      "name": "addAddressToWhitelist",
      "outputs": [
        {
          "internalType": "bool",
          "name": "success",
          "type": "bool"
        }
      ],
      "stateMutability": "nonpayable",
      "type": "function"
    },
    {
      "inputs": [
        {
          "internalType": "address[]",
          "name": "addrs",
          "type": "address[]"
        }
      ],
      "name": "addAddressesToWhitelist",
      "outputs": [
        {
          "internalType": "bool",
          "name": "success",
          "type": "bool"
        }
      ],
      "stateMutability": "nonpayable",
      "type": "function"
    },
    {
      "inputs": [
        {
          "internalType": "address",
          "name": "user",
          "type": "address"
        }
      ],
      "name": "addUserToLeague",
      "outputs": [],
      "stateMutability": "nonpayable",
      "type": "function"
    },
    {
      "inputs": [],
      "name": "addUserToWhitelist",
      "outputs": [],
      "stateMutability": "nonpayable",
      "type": "function"
    },
    {
      "inputs": [],
      "name": "currentWeekNum",
      "outputs": [
        {
          "internalType": "uint256",
          "name": "",
          "type": "uint256"
        }
      ],
      "stateMutability": "view",
      "type": "function"
    },
    {
      "inputs": [
        {
          "internalType": "address",
          "name": "addr1",
          "type": "address"
        },
        {
          "internalType": "address",
          "name": "addr2",
          "type": "address"
        }
      ],
      "name": "evaluateMatch",
      "outputs": [
        {
          "internalType": "address",
          "name": "",
          "type": "address"
        }
      ],
      "stateMutability": "nonpayable",
      "type": "function"
    },
    {
      "inputs": [],
      "name": "getLeagueName",
      "outputs": [
        {
          "internalType": "string",
          "name": "",
          "type": "string"
        }
      ],
      "stateMutability": "view",
      "type": "function"
    },
    {
      "inputs": [],
      "name": "getLineup",
      "outputs": [
        {
          "internalType": "uint256[]",
          "name": "",
          "type": "uint256[]"
        }
      ],
      "stateMutability": "view",
      "type": "function"
    },
    {
      "inputs": [
        {
          "internalType": "bytes32",
          "name": "role",
          "type": "bytes32"
        }
      ],
      "name": "getRoleAdmin",
      "outputs": [
        {
          "internalType": "bytes32",
          "name": "",
          "type": "bytes32"
        }
      ],
      "stateMutability": "view",
      "type": "function"
    },
    {
      "inputs": [
        {
          "internalType": "address",
          "name": "_token",
          "type": "address"
        }
      ],
      "name": "getUSDCBalance",
      "outputs": [
        {
          "internalType": "uint256",
          "name": "",
          "type": "uint256"
        }
      ],
      "stateMutability": "view",
      "type": "function"
    },
    {
      "inputs": [],
      "name": "getUserTotalPts",
      "outputs": [
        {
          "internalType": "uint256",
          "name": "",
          "type": "uint256"
        }
      ],
      "stateMutability": "view",
      "type": "function"
    },
    {
      "inputs": [],
      "name": "getUserWeeklypts",
      "outputs": [
        {
          "internalType": "uint256[]",
          "name": "",
          "type": "uint256[]"
        }
      ],
      "stateMutability": "view",
      "type": "function"
    },
    {
      "inputs": [],
      "name": "getVersion",
      "outputs": [
        {
          "internalType": "uint256",
          "name": "",
          "type": "uint256"
        }
      ],
      "stateMutability": "view",
      "type": "function"
    },
    {
      "inputs": [
        {
          "internalType": "bytes32",
          "name": "role",
          "type": "bytes32"
        },
        {
          "internalType": "address",
          "name": "account",
          "type": "address"
        }
      ],
      "name": "grantRole",
      "outputs": [],
      "stateMutability": "nonpayable",
      "type": "function"
    },
    {
      "inputs": [
        {
          "internalType": "bytes32",
          "name": "role",
          "type": "bytes32"
        },
        {
          "internalType": "address",
          "name": "account",
          "type": "address"
        }
      ],
      "name": "hasRole",
      "outputs": [
        {
          "internalType": "bool",
          "name": "",
          "type": "bool"
        }
      ],
      "stateMutability": "view",
      "type": "function"
    },
    {
      "inputs": [],
      "name": "incrementVersion",
      "outputs": [
        {
          "internalType": "uint256",
          "name": "",
          "type": "uint256"
        }
      ],
      "stateMutability": "nonpayable",
      "type": "function"
    },
    {
      "inputs": [
        {
          "internalType": "string",
          "name": "_name",
          "type": "string"
        },
        {
          "internalType": "uint256",
          "name": "_version",
          "type": "uint256"
        },
        {
          "internalType": "uint256",
          "name": "_numWeeks",
          "type": "uint256"
        },
        {
          "internalType": "uint256",
          "name": "_stakeAmount",
          "type": "uint256"
        },
        {
          "internalType": "address",
          "name": "athletesDataStorageAddress",
          "type": "address"
        },
        {
          "internalType": "address",
          "name": "_owner",
          "type": "address"
        },
        {
          "internalType": "address",
          "name": "_admin",
          "type": "address"
        },
        {
          "internalType": "address",
          "name": "_polygonUSDCAddress",
          "type": "address"
        },
        {
          "internalType": "address",
          "name": "_rinkebyUSDCAddress",
          "type": "address"
        },
        {
          "internalType": "address",
          "name": "leagueMakerContractAddress",
          "type": "address"
        }
      ],
      "name": "initialize",
      "outputs": [],
      "stateMutability": "nonpayable",
      "type": "function"
    },
    {
      "inputs": [],
      "name": "joinLeague",
      "outputs": [],
      "stateMutability": "nonpayable",
      "type": "function"
    },
    {
      "inputs": [
        {
          "internalType": "uint256",
          "name": "",
          "type": "uint256"
        }
      ],
      "name": "leagueMembers",
      "outputs": [
        {
          "internalType": "address",
          "name": "",
          "type": "address"
        }
      ],
      "stateMutability": "view",
      "type": "function"
    },
    {
      "inputs": [],
      "name": "leagueName",
      "outputs": [
        {
          "internalType": "string",
          "name": "",
          "type": "string"
        }
      ],
      "stateMutability": "view",
      "type": "function"
    },
    {
      "inputs": [],
      "name": "numWeeks",
      "outputs": [
        {
          "internalType": "uint256",
          "name": "",
          "type": "uint256"
        }
      ],
      "stateMutability": "view",
      "type": "function"
    },
    {
      "inputs": [],
      "name": "owner",
      "outputs": [
        {
          "internalType": "address",
          "name": "",
          "type": "address"
        }
      ],
      "stateMutability": "view",
      "type": "function"
    },
    {
      "inputs": [],
      "name": "polygonUSDCAddress",
      "outputs": [
        {
          "internalType": "address",
          "name": "",
          "type": "address"
        }
      ],
      "stateMutability": "view",
      "type": "function"
    },
    {
      "inputs": [
        {
          "internalType": "address",
          "name": "addr",
          "type": "address"
        }
      ],
      "name": "removeAddressFromWhitelist",
      "outputs": [
        {
          "internalType": "bool",
          "name": "success",
          "type": "bool"
        }
      ],
      "stateMutability": "nonpayable",
      "type": "function"
    },
    {
      "inputs": [
        {
          "internalType": "address[]",
          "name": "addrs",
          "type": "address[]"
        }
      ],
      "name": "removeAddressesFromWhitelist",
      "outputs": [
        {
          "internalType": "bool",
          "name": "success",
          "type": "bool"
        }
      ],
      "stateMutability": "nonpayable",
      "type": "function"
    },
    {
      "inputs": [],
      "name": "removeFromLeague",
      "outputs": [],
      "stateMutability": "nonpayable",
      "type": "function"
    },
    {
      "inputs": [],
      "name": "renounceOwnership",
      "outputs": [],
      "stateMutability": "nonpayable",
      "type": "function"
    },
    {
      "inputs": [
        {
          "internalType": "bytes32",
          "name": "role",
          "type": "bytes32"
        },
        {
          "internalType": "address",
          "name": "account",
          "type": "address"
        }
      ],
      "name": "renounceRole",
      "outputs": [],
      "stateMutability": "nonpayable",
      "type": "function"
    },
    {
      "inputs": [
        {
          "internalType": "bytes32",
          "name": "role",
          "type": "bytes32"
        },
        {
          "internalType": "address",
          "name": "account",
          "type": "address"
        }
      ],
      "name": "revokeRole",
      "outputs": [],
      "stateMutability": "nonpayable",
      "type": "function"
    },
    {
      "inputs": [],
      "name": "rinkebyUSDCAddress",
      "outputs": [
        {
          "internalType": "address",
          "name": "",
          "type": "address"
        }
      ],
      "stateMutability": "view",
      "type": "function"
    },
    {
      "inputs": [
        {
          "internalType": "address",
          "name": "_athleteContractAddress",
          "type": "address"
        }
      ],
      "name": "setAthleteContractAddress",
      "outputs": [],
      "stateMutability": "nonpayable",
      "type": "function"
    },
    {
      "inputs": [],
      "name": "setLeagueSchedule",
      "outputs": [],
      "stateMutability": "nonpayable",
      "type": "function"
    },
    {
      "inputs": [
        {
          "internalType": "uint256[]",
          "name": "athleteIds",
          "type": "uint256[]"
        }
      ],
      "name": "setLineup",
      "outputs": [],
      "stateMutability": "nonpayable",
      "type": "function"
    },
    {
      "inputs": [],
      "name": "stakeAmount",
      "outputs": [
        {
          "internalType": "uint256",
          "name": "",
          "type": "uint256"
        }
      ],
      "stateMutability": "view",
      "type": "function"
    },
    {
      "inputs": [
        {
          "internalType": "bytes4",
          "name": "interfaceId",
          "type": "bytes4"
        }
      ],
      "name": "supportsInterface",
      "outputs": [
        {
          "internalType": "bool",
          "name": "",
          "type": "bool"
        }
      ],
      "stateMutability": "view",
      "type": "function"
    },
    {
      "inputs": [
        {
          "internalType": "address",
          "name": "newOwner",
          "type": "address"
        }
      ],
      "name": "transferOwnership",
      "outputs": [],
      "stateMutability": "nonpayable",
      "type": "function"
    },
    {
      "inputs": [],
      "name": "version",
      "outputs": [
        {
          "internalType": "uint256",
          "name": "",
          "type": "uint256"
        }
      ],
      "stateMutability": "view",
      "type": "function"
    },
    {
      "inputs": [
        {
          "internalType": "address",
          "name": "",
          "type": "address"
        }
      ],
      "name": "whitelist",
      "outputs": [
        {
          "internalType": "bool",
          "name": "",
          "type": "bool"
        }
      ],
      "stateMutability": "view",
      "type": "function"
    }
  ],
  "bytecode": "0x60806040523480156200001157600080fd5b5062000032620000266200003860201b60201c565b6200004060201b60201c565b62000105565b600033905090565b60008060029054906101000a900473ffffffffffffffffffffffffffffffffffffffff16905081600060026101000a81548173ffffffffffffffffffffffffffffffffffffffff021916908373ffffffffffffffffffffffffffffffffffffffff1602179055508173ffffffffffffffffffffffffffffffffffffffff168173ffffffffffffffffffffffffffffffffffffffff167f8be0079c531659141344cd1fd0a4f28419497f9722a3daafe3b4186f6b6457e060405160405180910390a35050565b615acb80620001156000396000f3fe60806040523480156200001157600080fd5b5060043610620002735760003560e01c80636bdc44df116200015957806393f3706c11620000c9578063c99fea941162000087578063c99fea941462000762578063d547741f146200076e578063e2ec6ec3146200078e578063f2fde38b14620007c4578063f612121a14620007e45762000273565b806393f3706c14620006a65780639b19251a14620006c8578063a217fddf14620006fe578063ada3a28d1462000720578063bb1a046114620007425762000273565b80637eed33f111620001175780637eed33f114620005d4578063841abf6e14620005f6578063853976dd14620006185780638da5cb5b146200064e57806391d1485414620006705762000273565b80636bdc44df14620005425780636fd71a181462000564578063715018a614620005865780637ac6aa1d14620005925780637b9417c8146200059e5762000273565b8063286dd3f511620001f5578063486b394411620001b3578063486b3944146200048657806352e6e5f314620004a657806354fd4d5014620004c857806360c7dc4714620004ea57806368024717146200050c5762000273565b8063286dd3f514620003cc5780632cf0a1fc14620004025780632f2ff15d146200042457806336568abe1462000444578063403570c514620004645762000273565b80630d8e6e2c11620002435780630d8e6e2c14620002fc57806311c253f5146200031e578063248a9ca3146200032a57806324953eaa1462000360578063267175db14620003965762000273565b8062b2476f146200027857806301ffc9a7146200029a5780630655465a14620002d0578063087e18a714620002dc575b600080fd5b6200028262000804565b60405162000291919062004184565b60405180910390f35b620002b86004803603810190620002b2919062003bf6565b6200082a565b604051620002c791906200422f565b60405180910390f35b620002da620008a7565b005b620002fa6004803603810190620002f49190620039df565b620010cc565b005b62000306620011fc565b60405162000315919062004359565b60405180910390f35b6200032862001206565b005b62000348600480360381019062000342919062003b7d565b6200126d565b6040516200035791906200424c565b60405180910390f35b6200037e600480360381019062000378919062003a58565b6200128d565b6040516200038d91906200422f565b60405180910390f35b620003b46004803603810190620003ae919062003d42565b6200138a565b604051620003c3919062004184565b60405180910390f35b620003ea6004803603810190620003e49190620039df565b620013ca565b604051620003f991906200422f565b60405180910390f35b6200040c62001559565b6040516200041b919062004359565b60405180910390f35b6200044260048036038101906200043c919062003baf565b620015b0565b005b6200046260048036038101906200045c919062003baf565b620015e1565b005b6200046e6200166b565b6040516200047d919062004269565b60405180910390f35b620004a460048036038101906200049e9190620039df565b62001705565b005b620004b0620017cc565b604051620004bf919062004359565b60405180910390f35b620004d2620017d2565b604051620004e1919062004359565b60405180910390f35b620004f4620017d8565b60405162000503919062004359565b60405180910390f35b6200052a6004803603810190620005249190620039df565b620017de565b60405162000539919062004359565b60405180910390f35b6200054c62001876565b6040516200055b919062004359565b60405180910390f35b6200056e620018bd565b6040516200057d91906200420b565b60405180910390f35b6200059062001954565b005b6200059c620019e5565b005b620005bc6004803603810190620005b69190620039df565b62001a58565b604051620005cb91906200422f565b60405180910390f35b620005de62001be6565b604051620005ed919062004359565b60405180910390f35b6200060062001bec565b6040516200060f919062004269565b60405180910390f35b62000636600480360381019062000630919062003a11565b62001c82565b60405162000645919062004184565b60405180910390f35b620006586200232a565b60405162000667919062004184565b60405180910390f35b6200068e600480360381019062000688919062003baf565b62002353565b6040516200069d91906200422f565b60405180910390f35b620006b0620023be565b604051620006bf919062004184565b60405180910390f35b620006e66004803603810190620006e09190620039df565b620023e4565b604051620006f591906200422f565b60405180910390f35b6200070862002404565b6040516200071791906200424c565b60405180910390f35b6200072a6200240b565b6040516200073991906200420b565b60405180910390f35b6200076060048036038101906200075a919062003c28565b620024a2565b005b6200076c620027f5565b005b6200078c600480360381019062000786919062003baf565b620028ef565b005b620007ac6004803603810190620007a6919062003a58565b62002920565b604051620007bb91906200422f565b60405180910390f35b620007e26004803603810190620007dc9190620039df565b62002a1d565b005b620008026004803603810190620007fc919062003aa9565b62002b21565b005b600f60009054906101000a900473ffffffffffffffffffffffffffffffffffffffff1681565b60007f7965db0b000000000000000000000000000000000000000000000000000000007bffffffffffffffffffffffffffffffffffffffffffffffffffffffff1916827bffffffffffffffffffffffffffffffffffffffffffffffffffffffff19161480620008a057506200089f8262002b7a565b5b9050919050565b620008e76040518060400160405280601081526020017f73657474696e67207363686564756c650000000000000000000000000000000081525062002be4565b600060088054905060088054905062000901919062004507565b42334460056040516020016200091b949392919062004132565b6040516020818303038152906040528051906020012060001c62000940919062004472565b90506200094c62003516565b6200095662003516565b60005b6008811015620010c657620009a36040518060400160405280600181526020017f0a0000000000000000000000000000000000000000000000000000000000000081525062002be4565b620009ae8162002c81565b620009ee6040518060400160405280601881526020017f2a2a2a2a2a2a2a2a2a2a2a2a2a2a2a2a2a2a2a2a2a2a2a2a000000000000000081525062002be4565b600080600260088054905062000a05919062004774565b1462000a2857600160088054905062000a1f919062004472565b90508062000a32565b6008805490509050805b5060008360006004811062000a4c5762000a4b62004839565b5b6020020151905060005b60028362000a659190620044cf565b81101562000be257600084141562000b2857808660028562000a889190620044cf565b898462000a96919062004472565b62000aa2919062004774565b6004811062000ab65762000ab562004839565b5b60200201818152505060028362000ace9190620044cf565b8162000adb919062004472565b8560028562000aeb9190620044cf565b898462000af9919062004472565b62000b05919062004774565b6004811062000b195762000b1862004839565b5b60200201818152505062000bcc565b600086826004811062000b405762000b3f62004839565b5b602002015190508086836004811062000b5e5762000b5d62004839565b5b6020020181815250508560028562000b779190620044cf565b60018462000b86919062004472565b62000b92919062004774565b6004811062000ba65762000ba562004839565b5b602002015187836004811062000bc15762000bc062004839565b5b602002018181525050505b808062000bd990620046f4565b91505062000a56565b506000831462000c29578085600160028562000bff9190620044cf565b62000c0b919062004568565b6004811062000c1f5762000c1e62004839565b5b6020020181815250505b60005b60028362000c3b9190620044cf565b811015620010ad5762000c4d62003538565b60088054905086836004811062000c695762000c6862004839565b5b60200201511062000d45576040518060400160405280600889856004811062000c975762000c9662004839565b5b60200201518154811062000cb05762000caf62004839565b5b9060005260206000200160009054906101000a900473ffffffffffffffffffffffffffffffffffffffff1673ffffffffffffffffffffffffffffffffffffffff1673ffffffffffffffffffffffffffffffffffffffff168152602001600073ffffffffffffffffffffffffffffffffffffffff1673ffffffffffffffffffffffffffffffffffffffff16815250905062000f64565b60088054905087836004811062000d615762000d6062004839565b5b60200201511062000e3d576040518060400160405280600073ffffffffffffffffffffffffffffffffffffffff1673ffffffffffffffffffffffffffffffffffffffff168152602001600888856004811062000dc25762000dc162004839565b5b60200201518154811062000ddb5762000dda62004839565b5b9060005260206000200160009054906101000a900473ffffffffffffffffffffffffffffffffffffffff1673ffffffffffffffffffffffffffffffffffffffff1673ffffffffffffffffffffffffffffffffffffffff16815250905062000f63565b6040518060400160405280600889856004811062000e605762000e5f62004839565b5b60200201518154811062000e795762000e7862004839565b5b9060005260206000200160009054906101000a900473ffffffffffffffffffffffffffffffffffffffff1673ffffffffffffffffffffffffffffffffffffffff1673ffffffffffffffffffffffffffffffffffffffff168152602001600888856004811062000eed5762000eec62004839565b5b60200201518154811062000f065762000f0562004839565b5b9060005260206000200160009054906101000a900473ffffffffffffffffffffffffffffffffffffffff1673ffffffffffffffffffffffffffffffffffffffff1673ffffffffffffffffffffffffffffffffffffffff1681525090505b5b600060405180602001604052808381525090508060136000888152602001908152602001600020846008811062000fa05762000f9f62004839565b5b6002020160008201518160000190600262000fbd9291906200355a565b5090505062000feb816000015160006002811062000fe05762000fdf62004839565b5b602002015162002d1e565b6200102b6040518060400160405280600481526020017f207673200000000000000000000000000000000000000000000000000000000081525062002be4565b6200105581600001516001600281106200104a576200104962004839565b5b602002015162002d1e565b620010956040518060400160405280600181526020017f0a0000000000000000000000000000000000000000000000000000000000000081525062002be4565b50508080620010a490620046f4565b91505062000c2c565b5050508080620010bd90620046f4565b91505062000959565b50505050565b600880805490501015620011d4576008819080600181540180825580915050600190039060005260206000200160009091909190916101000a81548173ffffffffffffffffffffffffffffffffffffffff021916908373ffffffffffffffffffffffffffffffffffffffff160217905550601260009054906101000a900473ffffffffffffffffffffffffffffffffffffffff1673ffffffffffffffffffffffffffffffffffffffff1663771bd4ce826040518263ffffffff1660e01b81526004016200119a919062004184565b600060405180830381600087803b158015620011b557600080fd5b505af1158015620011ca573d6000803e3d6000fd5b50505050620011f9565b620011f860405180606001604052806028815260200162005a6e6028913962002be4565b5b50565b6000600454905090565b600260003373ffffffffffffffffffffffffffffffffffffffff1673ffffffffffffffffffffffffffffffffffffffff16815260200190815260200160002060009054906101000a900460ff16806200126157506000600354145b6200126b57600080fd5b565b600060016000838152602001908152602001600020600101549050919050565b60006200129962002dbb565b73ffffffffffffffffffffffffffffffffffffffff16620012b96200232a565b73ffffffffffffffffffffffffffffffffffffffff161462001312576040517f08c379a0000000000000000000000000000000000000000000000000000000008152600401620013099062004315565b60405180910390fd5b60005b825181101562001384576200134783828151811062001339576200133862004839565b5b6020026020010151620013ca565b156200136e5760016003600082825462001362919062004568565b92505081905550600191505b80806200137b90620046f4565b91505062001315565b50919050565b600881815481106200139b57600080fd5b906000526020600020016000915054906101000a900473ffffffffffffffffffffffffffffffffffffffff1681565b6000620013d662002dbb565b73ffffffffffffffffffffffffffffffffffffffff16620013f66200232a565b73ffffffffffffffffffffffffffffffffffffffff16146200144f576040517f08c379a0000000000000000000000000000000000000000000000000000000008152600401620014469062004315565b60405180910390fd5b600260008373ffffffffffffffffffffffffffffffffffffffff1673ffffffffffffffffffffffffffffffffffffffff16815260200190815260200160002060009054906101000a900460ff161562001554576000600260008473ffffffffffffffffffffffffffffffffffffffff1673ffffffffffffffffffffffffffffffffffffffff16815260200190815260200160002060006101000a81548160ff0219169083151502179055507ff1abf01a1043b7c244d128e8595cf0c1d10743b022b03a02dffd8ca3bf729f5a826040516200152b919062004184565b60405180910390a160016003600082825462001548919062004568565b92505081905550600190505b919050565b600060016004546200156c919062004472565b6004819055507f2f23a8b1c76a44af619c48a5ae5637ab2bc86bc815c717b98d4f336ce1c44ba2600454604051620015a5919062004359565b60405180910390a190565b620015bb826200126d565b620015d081620015ca62002dbb565b62002dc3565b620015dc838362002e6b565b505050565b620015eb62002dbb565b73ffffffffffffffffffffffffffffffffffffffff168173ffffffffffffffffffffffffffffffffffffffff16146200165b576040517f08c379a0000000000000000000000000000000000000000000000000000000008152600401620016529062004337565b60405180910390fd5b62001667828262002f50565b5050565b6060600580546200167c9062004688565b80601f0160208091040260200160405190810160405280929190818152602001828054620016aa9062004688565b8015620016fb5780601f10620016cf57610100808354040283529160200191620016fb565b820191906000526020600020905b815481529060010190602001808311620016dd57829003601f168201915b5050505050905090565b6200170f62002dbb565b73ffffffffffffffffffffffffffffffffffffffff166200172f6200232a565b73ffffffffffffffffffffffffffffffffffffffff161462001788576040517f08c379a00000000000000000000000000000000000000000000000000000000081526004016200177f9062004315565b60405180910390fd5b80601060006101000a81548173ffffffffffffffffffffffffffffffffffffffff021916908373ffffffffffffffffffffffffffffffffffffffff16021790555050565b60075481565b60045481565b600d5481565b60008173ffffffffffffffffffffffffffffffffffffffff166370a08231306040518263ffffffff1660e01b81526004016200181b919062004184565b60206040518083038186803b1580156200183457600080fd5b505afa15801562001849573d6000803e3d6000fd5b505050506040513d601f19601f820116820180604052508101906200186f919062003d74565b9050919050565b6000600960003373ffffffffffffffffffffffffffffffffffffffff1673ffffffffffffffffffffffffffffffffffffffff16815260200190815260200160002054905090565b6060600a60003373ffffffffffffffffffffffffffffffffffffffff1673ffffffffffffffffffffffffffffffffffffffff1681526020019081526020016000208054806020026020016040519081016040528092919081815260200182805480156200194a57602002820191906000526020600020905b81548152602001906001019080831162001935575b5050505050905090565b6200195e62002dbb565b73ffffffffffffffffffffffffffffffffffffffff166200197e6200232a565b73ffffffffffffffffffffffffffffffffffffffff1614620019d7576040517f08c379a0000000000000000000000000000000000000000000000000000000008152600401620019ce9062004315565b60405180910390fd5b620019e3600062003037565b565b620019f46000801b3362002353565b620019fe57600080fd5b6001600260003373ffffffffffffffffffffffffffffffffffffffff1673ffffffffffffffffffffffffffffffffffffffff16815260200190815260200160002060006101000a81548160ff021916908315150217905550565b600062001a6462002dbb565b73ffffffffffffffffffffffffffffffffffffffff1662001a846200232a565b73ffffffffffffffffffffffffffffffffffffffff161462001add576040517f08c379a000000000000000000000000000000000000000000000000000000000815260040162001ad49062004315565b60405180910390fd5b600260008373ffffffffffffffffffffffffffffffffffffffff1673ffffffffffffffffffffffffffffffffffffffff16815260200190815260200160002060009054906101000a900460ff1662001be1576001600260008473ffffffffffffffffffffffffffffffffffffffff1673ffffffffffffffffffffffffffffffffffffffff16815260200190815260200160002060006101000a81548160ff0219169083151502179055507fd1bba68c128cc3f427e5831b3c6f99f480b6efa6b9e80c757768f6124158cc3f8260405162001bb8919062004184565b60405180910390a160016003600082825462001bd5919062004472565b92505081905550600190505b919050565b60065481565b6005805462001bfb9062004688565b80601f016020809104026020016040519081016040528092919081815260200182805462001c299062004688565b801562001c7a5780601f1062001c4e5761010080835404028352916020019162001c7a565b820191906000526020600020905b81548152906001019060200180831162001c5c57829003601f168201915b505050505081565b600062001c8e62002dbb565b73ffffffffffffffffffffffffffffffffffffffff1662001cae6200232a565b73ffffffffffffffffffffffffffffffffffffffff161462001d07576040517f08c379a000000000000000000000000000000000000000000000000000000000815260040162001cfe9062004315565b60405180910390fd5b6000600b60008573ffffffffffffffffffffffffffffffffffffffff1673ffffffffffffffffffffffffffffffffffffffff16815260200190815260200160002080548060200260200160405190810160405280929190818152602001828054801562001d9457602002820191906000526020600020905b81548152602001906001019080831162001d7f575b505050505090506000600b60008573ffffffffffffffffffffffffffffffffffffffff1673ffffffffffffffffffffffffffffffffffffffff16815260200190815260200160002080548060200260200160405190810160405280929190818152602001828054801562001e2857602002820191906000526020600020905b81548152602001906001019080831162001e13575b5050505050905060008060005b84518110156200209b576000601060009054906101000a900473ffffffffffffffffffffffffffffffffffffffff1673ffffffffffffffffffffffffffffffffffffffff1663d4313da887848151811062001e955762001e9462004839565b5b60200260200101516040518263ffffffff1660e01b815260040162001ebb919062004359565b60006040518083038186803b15801562001ed457600080fd5b505afa15801562001ee9573d6000803e3d6000fd5b505050506040513d6000823e3d601f19601f8201168201806040525081019062001f14919062003afa565b90506000601060009054906101000a900473ffffffffffffffffffffffffffffffffffffffff1673ffffffffffffffffffffffffffffffffffffffff1663d4313da887858151811062001f6c5762001f6b62004839565b5b60200260200101516040518263ffffffff1660e01b815260040162001f92919062004359565b60006040518083038186803b15801562001fab57600080fd5b505afa15801562001fc0573d6000803e3d6000fd5b505050506040513d6000823e3d601f19601f8201168201806040525081019062001feb919062003afa565b90506000826001845162002000919062004568565b8151811062002014576200201362004839565b5b602002602001015190506000826001845162002031919062004568565b8151811062002045576200204462004839565b5b60200260200101519050808211156200206f5760018762002067919062004472565b965062002081565b6001866200207e919062004472565b95505b5050505080806200209290620046f4565b91505062001e35565b50600160076000828254620020b1919062004472565b9250508190555080821115620021f557600a60008873ffffffffffffffffffffffffffffffffffffffff1673ffffffffffffffffffffffffffffffffffffffff16815260200190815260200160002060019080600181540180825580915050600190039060005260206000200160009091909190915055600a60008773ffffffffffffffffffffffffffffffffffffffff1673ffffffffffffffffffffffffffffffffffffffff168152602001908152602001600020600090806001815401808255809150506001900390600052602060002001600090919091909150556001600960008973ffffffffffffffffffffffffffffffffffffffff1673ffffffffffffffffffffffffffffffffffffffff1681526020019081526020016000206000828254620021e1919062004472565b925050819055508694505050505062002324565b600a60008773ffffffffffffffffffffffffffffffffffffffff1673ffffffffffffffffffffffffffffffffffffffff16815260200190815260200160002060019080600181540180825580915050600190039060005260206000200160009091909190915055600a60008873ffffffffffffffffffffffffffffffffffffffff1673ffffffffffffffffffffffffffffffffffffffff168152602001908152602001600020600090806001815401808255809150506001900390600052602060002001600090919091909150556001600960008873ffffffffffffffffffffffffffffffffffffffff1673ffffffffffffffffffffffffffffffffffffffff168152602001908152602001600020600082825462002315919062004472565b92505081905550859450505050505b92915050565b60008060029054906101000a900473ffffffffffffffffffffffffffffffffffffffff16905090565b60006001600084815260200190815260200160002060000160008373ffffffffffffffffffffffffffffffffffffffff1673ffffffffffffffffffffffffffffffffffffffff16815260200190815260200160002060009054906101000a900460ff16905092915050565b600e60009054906101000a900473ffffffffffffffffffffffffffffffffffffffff1681565b60026020528060005260406000206000915054906101000a900460ff1681565b6000801b81565b6060600b60003373ffffffffffffffffffffffffffffffffffffffff1673ffffffffffffffffffffffffffffffffffffffff1681526020019081526020016000208054806020026020016040519081016040528092919081815260200182805480156200249857602002820191906000526020600020905b81548152602001906001019080831162002483575b5050505050905090565b600060019054906101000a900460ff16620024cc5760008054906101000a900460ff1615620024d7565b620024d6620030fc565b5b62002519576040517f08c379a00000000000000000000000000000000000000000000000000000000081526004016200251090620042f3565b60405180910390fd5b60008060019054906101000a900460ff1615905080156200256a576001600060016101000a81548160ff02191690831515021790555060016000806101000a81548160ff0219169083151502179055505b8b8b600591906200257d929190620035dc565b50896004819055508860068190555060006007819055506000600c8190555087600d8190555086601060006101000a81548173ffffffffffffffffffffffffffffffffffffffff021916908373ffffffffffffffffffffffffffffffffffffffff16021790555081601260006101000a81548173ffffffffffffffffffffffffffffffffffffffff021916908373ffffffffffffffffffffffffffffffffffffffff160217905550620026346000801b866200310f565b83600e60006101000a81548173ffffffffffffffffffffffffffffffffffffffff021916908373ffffffffffffffffffffffffffffffffffffffff16021790555082600f60006101000a81548173ffffffffffffffffffffffffffffffffffffffff021916908373ffffffffffffffffffffffffffffffffffffffff1602179055506008339080600181540180825580915050600190039060005260206000200160009091909190916101000a81548173ffffffffffffffffffffffffffffffffffffffff021916908373ffffffffffffffffffffffffffffffffffffffff16021790555060405162002727906200366d565b604051809103906000f08015801562002744573d6000803e3d6000fd5b50601160006101000a81548173ffffffffffffffffffffffffffffffffffffffff021916908373ffffffffffffffffffffffffffffffffffffffff160217905550620027c56040518060400160405280601281526020017f50726f787920696e697469616c697a656421000000000000000000000000000081525062002be4565b8015620027e75760008060016101000a81548160ff0219169083151502179055505b505050505050505050505050565b600260003373ffffffffffffffffffffffffffffffffffffffff1673ffffffffffffffffffffffffffffffffffffffff16815260200190815260200160002060009054906101000a900460ff16806200285057506000600354145b6200285a57600080fd5b6008339080600181540180825580915050600190039060005260206000200160009091909190916101000a81548173ffffffffffffffffffffffffffffffffffffffff021916908373ffffffffffffffffffffffffffffffffffffffff160217905550620028ed600f60009054906101000a900473ffffffffffffffffffffffffffffffffffffffff16600d546200311f565b565b620028fa826200126d565b6200290f816200290962002dbb565b62002dc3565b6200291b838362002f50565b505050565b60006200292c62002dbb565b73ffffffffffffffffffffffffffffffffffffffff166200294c6200232a565b73ffffffffffffffffffffffffffffffffffffffff1614620029a5576040517f08c379a00000000000000000000000000000000000000000000000000000000081526004016200299c9062004315565b60405180910390fd5b60005b825181101562002a1757620029da838281518110620029cc57620029cb62004839565b5b602002602001015162001a58565b1562002a0157600160036000828254620029f5919062004472565b92505081905550600191505b808062002a0e90620046f4565b915050620029a8565b50919050565b62002a2762002dbb565b73ffffffffffffffffffffffffffffffffffffffff1662002a476200232a565b73ffffffffffffffffffffffffffffffffffffffff161462002aa0576040517f08c379a000000000000000000000000000000000000000000000000000000000815260040162002a979062004315565b60405180910390fd5b600073ffffffffffffffffffffffffffffffffffffffff168173ffffffffffffffffffffffffffffffffffffffff16141562002b13576040517f08c379a000000000000000000000000000000000000000000000000000000000815260040162002b0a90620042af565b60405180910390fd5b62002b1e8162003037565b50565b80600b60003373ffffffffffffffffffffffffffffffffffffffff1673ffffffffffffffffffffffffffffffffffffffff168152602001908152602001600020908051906020019062002b769291906200367b565b5050565b60007f01ffc9a7000000000000000000000000000000000000000000000000000000007bffffffffffffffffffffffffffffffffffffffffffffffffffffffff1916827bffffffffffffffffffffffffffffffffffffffffffffffffffffffff1916149050919050565b62002c7e8160405160240162002bfb919062004269565b6040516020818303038152906040527f41304fac000000000000000000000000000000000000000000000000000000007bffffffffffffffffffffffffffffffffffffffffffffffffffffffff19166020820180517bffffffffffffffffffffffffffffffffffffffffffffffffffffffff838183161783525050505062003257565b50565b62002d1b8160405160240162002c98919062004359565b6040516020818303038152906040527ff5b1bba9000000000000000000000000000000000000000000000000000000007bffffffffffffffffffffffffffffffffffffffffffffffffffffffff19166020820180517bffffffffffffffffffffffffffffffffffffffffffffffffffffffff838183161783525050505062003257565b50565b62002db88160405160240162002d35919062004184565b6040516020818303038152906040527f2c2ecbc2000000000000000000000000000000000000000000000000000000007bffffffffffffffffffffffffffffffffffffffffffffffffffffffff19166020820180517bffffffffffffffffffffffffffffffffffffffffffffffffffffffff838183161783525050505062003257565b50565b600033905090565b62002dcf828262002353565b62002e675762002df78173ffffffffffffffffffffffffffffffffffffffff16601462003280565b62002e078360001c602062003280565b60405160200162002e1a929190620040f0565b6040516020818303038152906040526040517f08c379a000000000000000000000000000000000000000000000000000000000815260040162002e5e919062004269565b60405180910390fd5b5050565b62002e77828262002353565b62002f4c57600180600084815260200190815260200160002060000160008373ffffffffffffffffffffffffffffffffffffffff1673ffffffffffffffffffffffffffffffffffffffff16815260200190815260200160002060006101000a81548160ff02191690831515021790555062002ef162002dbb565b73ffffffffffffffffffffffffffffffffffffffff168173ffffffffffffffffffffffffffffffffffffffff16837f2f8788117e7eff1d82e926ec794901d17c78024a50270940304540a733656f0d60405160405180910390a45b5050565b62002f5c828262002353565b15620030335760006001600084815260200190815260200160002060000160008373ffffffffffffffffffffffffffffffffffffffff1673ffffffffffffffffffffffffffffffffffffffff16815260200190815260200160002060006101000a81548160ff02191690831515021790555062002fd862002dbb565b73ffffffffffffffffffffffffffffffffffffffff168173ffffffffffffffffffffffffffffffffffffffff16837ff6391f5c32d9c69d2a47ea670b442974b53935d1edc7fd64eb21e047a839171b60405160405180910390a45b5050565b60008060029054906101000a900473ffffffffffffffffffffffffffffffffffffffff16905081600060026101000a81548173ffffffffffffffffffffffffffffffffffffffff021916908373ffffffffffffffffffffffffffffffffffffffff1602179055508173ffffffffffffffffffffffffffffffffffffffff168173ffffffffffffffffffffffffffffffffffffffff167f8be0079c531659141344cd1fd0a4f28419497f9722a3daafe3b4186f6b6457e060405160405180910390a35050565b60006200310930620034db565b15905090565b6200311b828262002e6b565b5050565b6000811162003165576040517f08c379a00000000000000000000000000000000000000000000000000000000081526004016200315c90620042d1565b60405180910390fd5b6200317c81600c54620034fe90919063ffffffff16565b600c819055508173ffffffffffffffffffffffffffffffffffffffff166323b872dd3330846040518463ffffffff1660e01b8152600401620031c193929190620041a1565b602060405180830381600087803b158015620031dc57600080fd5b505af1158015620031f1573d6000803e3d6000fd5b505050506040513d601f19601f8201168201806040525081019062003217919062003b4b565b507f9e71bc8eea02a63969f509818f2dafb9254532904319f9dbda79b67bd34a5f3d33826040516200324b929190620041de565b60405180910390a15050565b60008151905060006a636f6e736f6c652e6c6f679050602083016000808483855afa5050505050565b60606000600283600262003295919062004507565b620032a1919062004472565b67ffffffffffffffff811115620032bd57620032bc62004868565b5b6040519080825280601f01601f191660200182016040528015620032f05781602001600182028036833780820191505090505b5090507f3000000000000000000000000000000000000000000000000000000000000000816000815181106200332b576200332a62004839565b5b60200101907effffffffffffffffffffffffffffffffffffffffffffffffffffffffffffff1916908160001a9053507f78000000000000000000000000000000000000000000000000000000000000008160018151811062003392576200339162004839565b5b60200101907effffffffffffffffffffffffffffffffffffffffffffffffffffffffffffff1916908160001a90535060006001846002620033d4919062004507565b620033e0919062004472565b90505b60018111156200348a577f3031323334353637383961626364656600000000000000000000000000000000600f86166010811062003426576200342562004839565b5b1a60f81b82828151811062003440576200343f62004839565b5b60200101907effffffffffffffffffffffffffffffffffffffffffffffffffffffffffffff1916908160001a905350600485901c945080620034829062004659565b9050620033e3565b5060008414620034d1576040517f08c379a0000000000000000000000000000000000000000000000000000000008152600401620034c8906200428d565b60405180910390fd5b8091505092915050565b6000808273ffffffffffffffffffffffffffffffffffffffff163b119050919050565b600081836200350e919062004472565b905092915050565b6040518060800160405280600490602082028036833780820191505090505090565b6040518060400160405280600290602082028036833780820191505090505090565b8260028101928215620035c9579160200282015b82811115620035c85782518260006101000a81548173ffffffffffffffffffffffffffffffffffffffff021916908373ffffffffffffffffffffffffffffffffffffffff160217905550916020019190600101906200356e565b5b509050620035d89190620036cd565b5090565b828054620035ea9062004688565b90600052602060002090601f0160209004810192826200360e57600085556200365a565b82601f106200362957803560ff19168380011785556200365a565b828001600101855582156200365a579182015b82811115620036595782358255916020019190600101906200363c565b5b509050620036699190620036cd565b5090565b610f638062004b0b83390190565b828054828255906000526020600020908101928215620036ba579160200282015b82811115620036b95782518255916020019190600101906200369c565b5b509050620036c99190620036cd565b5090565b5b80821115620036e8576000816000905550600101620036ce565b5090565b600062003703620036fd846200439f565b62004376565b90508083825260208201905082856020860282011115620037295762003728620048a1565b5b60005b858110156200375d57816200374288826200385d565b8452602084019350602083019250506001810190506200372c565b5050509392505050565b60006200377e6200377884620043ce565b62004376565b90508083825260208201905082856020860282011115620037a457620037a3620048a1565b5b60005b85811015620037d85781620037bd8882620039b1565b845260208401935060208301925050600181019050620037a7565b5050509392505050565b6000620037f9620037f384620043ce565b62004376565b905080838252602082019050828560208602820111156200381f576200381e620048a1565b5b60005b85811015620038535781620038388882620039c8565b84526020840193506020830192505060018101905062003822565b5050509392505050565b6000813590506200386e8162004a88565b92915050565b600082601f8301126200388c576200388b6200489c565b5b81356200389e848260208601620036ec565b91505092915050565b600082601f830112620038bf57620038be6200489c565b5b8135620038d184826020860162003767565b91505092915050565b600082601f830112620038f257620038f16200489c565b5b815162003904848260208601620037e2565b91505092915050565b6000815190506200391e8162004aa2565b92915050565b600081359050620039358162004abc565b92915050565b6000813590506200394c8162004ad6565b92915050565b60008083601f8401126200396b576200396a6200489c565b5b8235905067ffffffffffffffff8111156200398b576200398a62004897565b5b602083019150836001820283011115620039aa57620039a9620048a1565b5b9250929050565b600081359050620039c28162004af0565b92915050565b600081519050620039d98162004af0565b92915050565b600060208284031215620039f857620039f7620048ab565b5b600062003a08848285016200385d565b91505092915050565b6000806040838503121562003a2b5762003a2a620048ab565b5b600062003a3b858286016200385d565b925050602062003a4e858286016200385d565b9150509250929050565b60006020828403121562003a715762003a70620048ab565b5b600082013567ffffffffffffffff81111562003a925762003a91620048a6565b5b62003aa08482850162003874565b91505092915050565b60006020828403121562003ac25762003ac1620048ab565b5b600082013567ffffffffffffffff81111562003ae35762003ae2620048a6565b5b62003af184828501620038a7565b91505092915050565b60006020828403121562003b135762003b12620048ab565b5b600082015167ffffffffffffffff81111562003b345762003b33620048a6565b5b62003b4284828501620038da565b91505092915050565b60006020828403121562003b645762003b63620048ab565b5b600062003b74848285016200390d565b91505092915050565b60006020828403121562003b965762003b95620048ab565b5b600062003ba68482850162003924565b91505092915050565b6000806040838503121562003bc95762003bc8620048ab565b5b600062003bd98582860162003924565b925050602062003bec858286016200385d565b9150509250929050565b60006020828403121562003c0f5762003c0e620048ab565b5b600062003c1f848285016200393b565b91505092915050565b60008060008060008060008060008060006101408c8e03121562003c515762003c50620048ab565b5b60008c013567ffffffffffffffff81111562003c725762003c71620048a6565b5b62003c808e828f0162003952565b9b509b5050602062003c958e828f01620039b1565b995050604062003ca88e828f01620039b1565b985050606062003cbb8e828f01620039b1565b975050608062003cce8e828f016200385d565b96505060a062003ce18e828f016200385d565b95505060c062003cf48e828f016200385d565b94505060e062003d078e828f016200385d565b93505061010062003d1b8e828f016200385d565b92505061012062003d2f8e828f016200385d565b9150509295989b509295989b9093969950565b60006020828403121562003d5b5762003d5a620048ab565b5b600062003d6b84828501620039b1565b91505092915050565b60006020828403121562003d8d5762003d8c620048ab565b5b600062003d9d84828501620039c8565b91505092915050565b600062003db48383620040b3565b60208301905092915050565b62003dcb81620045a3565b82525050565b62003de662003de082620045a3565b62004742565b82525050565b600062003df98262004422565b62003e05818562004445565b935062003e1283620043fd565b8060005b8381101562003e4957815162003e2d888262003da6565b975062003e3a8362004438565b92505060018101905062003e16565b5085935050505092915050565b62003e6181620045b7565b82525050565b62003e7281620045c3565b82525050565b600062003e85826200442d565b62003e91818562004456565b935062003ea381856020860162004623565b62003eae81620048b0565b840191505092915050565b600062003ec6826200442d565b62003ed2818562004467565b935062003ee481856020860162004623565b80840191505092915050565b6000815462003eff8162004688565b62003f0b818662004467565b9450600182166000811462003f29576001811462003f3b5762003f72565b60ff1983168652818601935062003f72565b62003f46856200440d565b60005b8381101562003f6a5781548189015260018201915060208101905062003f49565b838801955050505b50505092915050565b600062003f8a60208362004456565b915062003f9782620048ce565b602082019050919050565b600062003fb160268362004456565b915062003fbe82620048f7565b604082019050919050565b600062003fd8600e8362004456565b915062003fe58262004946565b602082019050919050565b600062003fff602e8362004456565b91506200400c826200496f565b604082019050919050565b60006200402660208362004456565b91506200403382620049be565b602082019050919050565b60006200404d60178362004467565b91506200405a82620049e7565b601782019050919050565b60006200407460118362004467565b9150620040818262004a10565b601182019050919050565b60006200409b602f8362004456565b9150620040a88262004a39565b604082019050919050565b620040be8162004619565b82525050565b620040cf8162004619565b82525050565b620040ea620040e48262004619565b6200476a565b82525050565b6000620040fd826200403e565b91506200410b828562003eb9565b9150620041188262004065565b915062004126828462003eb9565b91508190509392505050565b6000620041408287620040d5565b60208201915062004152828662003dd1565b601482019150620041648285620040d5565b60208201915062004176828462003ef0565b915081905095945050505050565b60006020820190506200419b600083018462003dc0565b92915050565b6000606082019050620041b8600083018662003dc0565b620041c7602083018562003dc0565b620041d66040830184620040c4565b949350505050565b6000604082019050620041f5600083018562003dc0565b620042046020830184620040c4565b9392505050565b6000602082019050818103600083015262004227818462003dec565b905092915050565b600060208201905062004246600083018462003e56565b92915050565b600060208201905062004263600083018462003e67565b92915050565b6000602082019050818103600083015262004285818462003e78565b905092915050565b60006020820190508181036000830152620042a88162003f7b565b9050919050565b60006020820190508181036000830152620042ca8162003fa2565b9050919050565b60006020820190508181036000830152620042ec8162003fc9565b9050919050565b600060208201905081810360008301526200430e8162003ff0565b9050919050565b60006020820190508181036000830152620043308162004017565b9050919050565b6000602082019050818103600083015262004352816200408c565b9050919050565b6000602082019050620043706000830184620040c4565b92915050565b60006200438262004395565b9050620043908282620046be565b919050565b6000604051905090565b600067ffffffffffffffff821115620043bd57620043bc62004868565b5b602082029050602081019050919050565b600067ffffffffffffffff821115620043ec57620043eb62004868565b5b602082029050602081019050919050565b6000819050602082019050919050565b60008190508160005260206000209050919050565b600081519050919050565b600081519050919050565b6000602082019050919050565b600082825260208201905092915050565b600082825260208201905092915050565b600081905092915050565b60006200447f8262004619565b91506200448c8362004619565b9250827fffffffffffffffffffffffffffffffffffffffffffffffffffffffffffffffff03821115620044c457620044c3620047ac565b5b828201905092915050565b6000620044dc8262004619565b9150620044e98362004619565b925082620044fc57620044fb620047db565b5b828204905092915050565b6000620045148262004619565b9150620045218362004619565b9250817fffffffffffffffffffffffffffffffffffffffffffffffffffffffffffffffff04831182151516156200455d576200455c620047ac565b5b828202905092915050565b6000620045758262004619565b9150620045828362004619565b925082821015620045985762004597620047ac565b5b828203905092915050565b6000620045b082620045f9565b9050919050565b60008115159050919050565b6000819050919050565b60007fffffffff0000000000000000000000000000000000000000000000000000000082169050919050565b600073ffffffffffffffffffffffffffffffffffffffff82169050919050565b6000819050919050565b60005b838110156200464357808201518184015260208101905062004626565b8381111562004653576000848401525b50505050565b6000620046668262004619565b915060008214156200467d576200467c620047ac565b5b600182039050919050565b60006002820490506001821680620046a157607f821691505b60208210811415620046b857620046b76200480a565b5b50919050565b620046c982620048b0565b810181811067ffffffffffffffff82111715620046eb57620046ea62004868565b5b80604052505050565b6000620047018262004619565b91507fffffffffffffffffffffffffffffffffffffffffffffffffffffffffffffffff821415620047375762004736620047ac565b5b600182019050919050565b60006200474f8262004756565b9050919050565b60006200476382620048c1565b9050919050565b6000819050919050565b6000620047818262004619565b91506200478e8362004619565b925082620047a157620047a0620047db565b5b828206905092915050565b7f4e487b7100000000000000000000000000000000000000000000000000000000600052601160045260246000fd5b7f4e487b7100000000000000000000000000000000000000000000000000000000600052601260045260246000fd5b7f4e487b7100000000000000000000000000000000000000000000000000000000600052602260045260246000fd5b7f4e487b7100000000000000000000000000000000000000000000000000000000600052603260045260246000fd5b7f4e487b7100000000000000000000000000000000000000000000000000000000600052604160045260246000fd5b600080fd5b600080fd5b600080fd5b600080fd5b600080fd5b6000601f19601f8301169050919050565b60008160601b9050919050565b7f537472696e67733a20686578206c656e67746820696e73756666696369656e74600082015250565b7f4f776e61626c653a206e6577206f776e657220697320746865207a65726f206160008201527f6464726573730000000000000000000000000000000000000000000000000000602082015250565b7f43616e6e6f74207374616b652030000000000000000000000000000000000000600082015250565b7f496e697469616c697a61626c653a20636f6e747261637420697320616c72656160008201527f647920696e697469616c697a6564000000000000000000000000000000000000602082015250565b7f4f776e61626c653a2063616c6c6572206973206e6f7420746865206f776e6572600082015250565b7f416363657373436f6e74726f6c3a206163636f756e7420000000000000000000600082015250565b7f206973206d697373696e6720726f6c6520000000000000000000000000000000600082015250565b7f416363657373436f6e74726f6c3a2063616e206f6e6c792072656e6f756e636560008201527f20726f6c657320666f722073656c660000000000000000000000000000000000602082015250565b62004a9381620045a3565b811462004a9f57600080fd5b50565b62004aad81620045b7565b811462004ab957600080fd5b50565b62004ac781620045c3565b811462004ad357600080fd5b50565b62004ae181620045cd565b811462004aed57600080fd5b50565b62004afb8162004619565b811462004b0757600080fd5b5056fe608060405234801561001057600080fd5b5061002d61002261003260201b60201c565b61003a60201b60201c565b6100fe565b600033905090565b60008060009054906101000a900473ffffffffffffffffffffffffffffffffffffffff169050816000806101000a81548173ffffffffffffffffffffffffffffffffffffffff021916908373ffffffffffffffffffffffffffffffffffffffff1602179055508173ffffffffffffffffffffffffffffffffffffffff168173ffffffffffffffffffffffffffffffffffffffff167f8be0079c531659141344cd1fd0a4f28419497f9722a3daafe3b4186f6b6457e060405160405180910390a35050565b610e568061010d6000396000f3fe608060405234801561001057600080fd5b50600436106100885760003560e01c80638da5cb5b1161005b5780638da5cb5b146101275780639b19251a14610145578063e2ec6ec314610175578063f2fde38b146101a557610088565b806324953eaa1461008d578063286dd3f5146100bd578063715018a6146100ed5780637b9417c8146100f7575b600080fd5b6100a760048036038101906100a29190610a0e565b6101c1565b6040516100b49190610ad6565b60405180910390f35b6100d760048036038101906100d291906109e1565b6102ab565b6040516100e49190610ad6565b60405180910390f35b6100f561042e565b005b610111600480360381019061010c91906109e1565b6104b6565b60405161011e9190610ad6565b60405180910390f35b61012f610637565b60405161013c9190610abb565b60405180910390f35b61015f600480360381019061015a91906109e1565b610660565b60405161016c9190610ad6565b60405180910390f35b61018f600480360381019061018a9190610a0e565b610680565b60405161019c9190610ad6565b60405180910390f35b6101bf60048036038101906101ba91906109e1565b61076a565b005b60006101cb610862565b73ffffffffffffffffffffffffffffffffffffffff166101e9610637565b73ffffffffffffffffffffffffffffffffffffffff161461023f576040517f08c379a000000000000000000000000000000000000000000000000000000000815260040161023690610b11565b60405180910390fd5b60005b82518110156102a55761026e83828151811061026157610260610d0e565b5b60200260200101516102ab565b15610292576001600260008282546102869190610be9565b92505081905550600191505b808061029d90610c96565b915050610242565b50919050565b60006102b5610862565b73ffffffffffffffffffffffffffffffffffffffff166102d3610637565b73ffffffffffffffffffffffffffffffffffffffff1614610329576040517f08c379a000000000000000000000000000000000000000000000000000000000815260040161032090610b11565b60405180910390fd5b600160008373ffffffffffffffffffffffffffffffffffffffff1673ffffffffffffffffffffffffffffffffffffffff16815260200190815260200160002060009054906101000a900460ff1615610429576000600160008473ffffffffffffffffffffffffffffffffffffffff1673ffffffffffffffffffffffffffffffffffffffff16815260200190815260200160002060006101000a81548160ff0219169083151502179055507ff1abf01a1043b7c244d128e8595cf0c1d10743b022b03a02dffd8ca3bf729f5a826040516104029190610abb565b60405180910390a160016002600082825461041d9190610be9565b92505081905550600190505b919050565b610436610862565b73ffffffffffffffffffffffffffffffffffffffff16610454610637565b73ffffffffffffffffffffffffffffffffffffffff16146104aa576040517f08c379a00000000000000000000000000000000000000000000000000000000081526004016104a190610b11565b60405180910390fd5b6104b4600061086a565b565b60006104c0610862565b73ffffffffffffffffffffffffffffffffffffffff166104de610637565b73ffffffffffffffffffffffffffffffffffffffff1614610534576040517f08c379a000000000000000000000000000000000000000000000000000000000815260040161052b90610b11565b60405180910390fd5b600160008373ffffffffffffffffffffffffffffffffffffffff1673ffffffffffffffffffffffffffffffffffffffff16815260200190815260200160002060009054906101000a900460ff166106325760018060008473ffffffffffffffffffffffffffffffffffffffff1673ffffffffffffffffffffffffffffffffffffffff16815260200190815260200160002060006101000a81548160ff0219169083151502179055507fd1bba68c128cc3f427e5831b3c6f99f480b6efa6b9e80c757768f6124158cc3f8260405161060b9190610abb565b60405180910390a16001600260008282546106269190610b93565b92505081905550600190505b919050565b60008060009054906101000a900473ffffffffffffffffffffffffffffffffffffffff16905090565b60016020528060005260406000206000915054906101000a900460ff1681565b600061068a610862565b73ffffffffffffffffffffffffffffffffffffffff166106a8610637565b73ffffffffffffffffffffffffffffffffffffffff16146106fe576040517f08c379a00000000000000000000000000000000000000000000000000000000081526004016106f590610b11565b60405180910390fd5b60005b82518110156107645761072d8382815181106107205761071f610d0e565b5b60200260200101516104b6565b15610751576001600260008282546107459190610b93565b92505081905550600191505b808061075c90610c96565b915050610701565b50919050565b610772610862565b73ffffffffffffffffffffffffffffffffffffffff16610790610637565b73ffffffffffffffffffffffffffffffffffffffff16146107e6576040517f08c379a00000000000000000000000000000000000000000000000000000000081526004016107dd90610b11565b60405180910390fd5b600073ffffffffffffffffffffffffffffffffffffffff168173ffffffffffffffffffffffffffffffffffffffff161415610856576040517f08c379a000000000000000000000000000000000000000000000000000000000815260040161084d90610af1565b60405180910390fd5b61085f8161086a565b50565b600033905090565b60008060009054906101000a900473ffffffffffffffffffffffffffffffffffffffff169050816000806101000a81548173ffffffffffffffffffffffffffffffffffffffff021916908373ffffffffffffffffffffffffffffffffffffffff1602179055508173ffffffffffffffffffffffffffffffffffffffff168173ffffffffffffffffffffffffffffffffffffffff167f8be0079c531659141344cd1fd0a4f28419497f9722a3daafe3b4186f6b6457e060405160405180910390a35050565b600061094161093c84610b56565b610b31565b9050808382526020820190508285602086028201111561096457610963610d71565b5b60005b85811015610994578161097a888261099e565b845260208401935060208301925050600181019050610967565b5050509392505050565b6000813590506109ad81610e09565b92915050565b600082601f8301126109c8576109c7610d6c565b5b81356109d884826020860161092e565b91505092915050565b6000602082840312156109f7576109f6610d7b565b5b6000610a058482850161099e565b91505092915050565b600060208284031215610a2457610a23610d7b565b5b600082013567ffffffffffffffff811115610a4257610a41610d76565b5b610a4e848285016109b3565b91505092915050565b610a6081610c1d565b82525050565b610a6f81610c2f565b82525050565b6000610a82602683610b82565b9150610a8d82610d91565b604082019050919050565b6000610aa5602083610b82565b9150610ab082610de0565b602082019050919050565b6000602082019050610ad06000830184610a57565b92915050565b6000602082019050610aeb6000830184610a66565b92915050565b60006020820190508181036000830152610b0a81610a75565b9050919050565b60006020820190508181036000830152610b2a81610a98565b9050919050565b6000610b3b610b4c565b9050610b478282610c65565b919050565b6000604051905090565b600067ffffffffffffffff821115610b7157610b70610d3d565b5b602082029050602081019050919050565b600082825260208201905092915050565b6000610b9e82610c5b565b9150610ba983610c5b565b9250827fffffffffffffffffffffffffffffffffffffffffffffffffffffffffffffffff03821115610bde57610bdd610cdf565b5b828201905092915050565b6000610bf482610c5b565b9150610bff83610c5b565b925082821015610c1257610c11610cdf565b5b828203905092915050565b6000610c2882610c3b565b9050919050565b60008115159050919050565b600073ffffffffffffffffffffffffffffffffffffffff82169050919050565b6000819050919050565b610c6e82610d80565b810181811067ffffffffffffffff82111715610c8d57610c8c610d3d565b5b80604052505050565b6000610ca182610c5b565b91507fffffffffffffffffffffffffffffffffffffffffffffffffffffffffffffffff821415610cd457610cd3610cdf565b5b600182019050919050565b7f4e487b7100000000000000000000000000000000000000000000000000000000600052601160045260246000fd5b7f4e487b7100000000000000000000000000000000000000000000000000000000600052603260045260246000fd5b7f4e487b7100000000000000000000000000000000000000000000000000000000600052604160045260246000fd5b600080fd5b600080fd5b600080fd5b600080fd5b6000601f19601f8301169050919050565b7f4f776e61626c653a206e6577206f776e657220697320746865207a65726f206160008201527f6464726573730000000000000000000000000000000000000000000000000000602082015250565b7f4f776e61626c653a2063616c6c6572206973206e6f7420746865206f776e6572600082015250565b610e1281610c1d565b8114610e1d57600080fd5b5056fea264697066735822122028f537dd9b5fe894d1477bbddc996ce32a420981c0b41afd39c00eed7de828ef64736f6c63430008070033746f6f206d616e7920757365727320696e206c656167756520746f20616464206e65772075736572a26469706673582212203188e041d87c752753ce5e2cb583dcb581dd38c5d20dc671fd0f01fc0001634f64736f6c63430008070033",
  "linkReferences": {},
  "deployedLinkReferences": {}
}