{
  "_format": "hh-sol-artifact-1",
  "contractName": "GameLogic",
  "sourceName": "contracts/GameLogic.sol",
  "abi": [
    {
      "anonymous": false,
      "inputs": [
        {
          "indexed": true,
          "internalType": "address",
          "name": "previousOwner",
          "type": "address"
        },
        {
          "indexed": true,
          "internalType": "address",
          "name": "newOwner",
          "type": "address"
        }
      ],
      "name": "OwnershipTransferred",
      "type": "event"
    },
    {
      "anonymous": false,
      "inputs": [
        {
          "indexed": true,
          "internalType": "bytes32",
          "name": "role",
          "type": "bytes32"
        },
        {
          "indexed": true,
          "internalType": "bytes32",
          "name": "previousAdminRole",
          "type": "bytes32"
        },
        {
          "indexed": true,
          "internalType": "bytes32",
          "name": "newAdminRole",
          "type": "bytes32"
        }
      ],
      "name": "RoleAdminChanged",
      "type": "event"
    },
    {
      "anonymous": false,
      "inputs": [
        {
          "indexed": true,
          "internalType": "bytes32",
          "name": "role",
          "type": "bytes32"
        },
        {
          "indexed": true,
          "internalType": "address",
          "name": "account",
          "type": "address"
        },
        {
          "indexed": true,
          "internalType": "address",
          "name": "sender",
          "type": "address"
        }
      ],
      "name": "RoleGranted",
      "type": "event"
    },
    {
      "anonymous": false,
      "inputs": [
        {
          "indexed": true,
          "internalType": "bytes32",
          "name": "role",
          "type": "bytes32"
        },
        {
          "indexed": true,
          "internalType": "address",
          "name": "account",
          "type": "address"
        },
        {
          "indexed": true,
          "internalType": "address",
          "name": "sender",
          "type": "address"
        }
      ],
      "name": "RoleRevoked",
      "type": "event"
    },
    {
      "anonymous": false,
      "inputs": [
        {
          "indexed": false,
          "internalType": "address",
          "name": "sender",
          "type": "address"
        },
        {
          "indexed": false,
          "internalType": "uint256",
          "name": "amount",
          "type": "uint256"
        }
      ],
      "name": "Staked",
      "type": "event"
    },
    {
      "anonymous": false,
      "inputs": [
        {
          "indexed": false,
          "internalType": "address",
          "name": "addr",
          "type": "address"
        }
      ],
      "name": "WhitelistedAddressAdded",
      "type": "event"
    },
    {
      "anonymous": false,
      "inputs": [
        {
          "indexed": false,
          "internalType": "address",
          "name": "addr",
          "type": "address"
        }
      ],
      "name": "WhitelistedAddressRemoved",
      "type": "event"
    },
    {
      "anonymous": false,
      "inputs": [
        {
          "indexed": false,
          "internalType": "uint256",
          "name": "newVersion",
          "type": "uint256"
        }
      ],
      "name": "versionIncremented",
      "type": "event"
    },
    {
      "inputs": [],
      "name": "DEFAULT_ADMIN_ROLE",
      "outputs": [
        {
          "internalType": "bytes32",
          "name": "",
          "type": "bytes32"
        }
      ],
      "stateMutability": "view",
      "type": "function"
    },
    {
      "inputs": [
        {
          "internalType": "address",
          "name": "addr",
          "type": "address"
        }
      ],
      "name": "addAddressToWhitelist",
      "outputs": [
        {
          "internalType": "bool",
          "name": "success",
          "type": "bool"
        }
      ],
      "stateMutability": "nonpayable",
      "type": "function"
    },
    {
      "inputs": [
        {
          "internalType": "address[]",
          "name": "addrs",
          "type": "address[]"
        }
      ],
      "name": "addAddressesToWhitelist",
      "outputs": [
        {
          "internalType": "bool",
          "name": "success",
          "type": "bool"
        }
      ],
      "stateMutability": "nonpayable",
      "type": "function"
    },
    {
      "inputs": [
        {
          "internalType": "address",
          "name": "user",
          "type": "address"
        }
      ],
      "name": "addUserToLeague",
      "outputs": [],
      "stateMutability": "nonpayable",
      "type": "function"
    },
    {
      "inputs": [],
      "name": "addUserToWhitelist",
      "outputs": [],
      "stateMutability": "nonpayable",
      "type": "function"
    },
    {
      "inputs": [
        {
          "internalType": "address",
          "name": "addr1",
          "type": "address"
        },
        {
          "internalType": "address",
          "name": "addr2",
          "type": "address"
        }
      ],
      "name": "evaluateMatch",
      "outputs": [
        {
          "internalType": "address",
          "name": "",
          "type": "address"
        }
      ],
      "stateMutability": "nonpayable",
      "type": "function"
    },
    {
      "inputs": [],
      "name": "getLineup",
      "outputs": [
        {
          "internalType": "uint256[]",
          "name": "",
          "type": "uint256[]"
        }
      ],
      "stateMutability": "view",
      "type": "function"
    },
    {
      "inputs": [
        {
          "internalType": "bytes32",
          "name": "role",
          "type": "bytes32"
        }
      ],
      "name": "getRoleAdmin",
      "outputs": [
        {
          "internalType": "bytes32",
          "name": "",
          "type": "bytes32"
        }
      ],
      "stateMutability": "view",
      "type": "function"
    },
    {
      "inputs": [
        {
          "internalType": "address",
          "name": "_token",
          "type": "address"
        }
      ],
      "name": "getUSDCBalance",
      "outputs": [
        {
          "internalType": "uint256",
          "name": "",
          "type": "uint256"
        }
      ],
      "stateMutability": "view",
      "type": "function"
    },
    {
      "inputs": [],
      "name": "getUserTotalPts",
      "outputs": [
        {
          "internalType": "uint256",
          "name": "",
          "type": "uint256"
        }
      ],
      "stateMutability": "view",
      "type": "function"
    },
    {
      "inputs": [],
      "name": "getUserWeeklypts",
      "outputs": [
        {
          "internalType": "uint256[]",
          "name": "",
          "type": "uint256[]"
        }
      ],
      "stateMutability": "view",
      "type": "function"
    },
    {
      "inputs": [],
      "name": "getVersion",
      "outputs": [
        {
          "internalType": "uint256",
          "name": "version",
          "type": "uint256"
        }
      ],
      "stateMutability": "view",
      "type": "function"
    },
    {
      "inputs": [
        {
          "internalType": "bytes32",
          "name": "role",
          "type": "bytes32"
        },
        {
          "internalType": "address",
          "name": "account",
          "type": "address"
        }
      ],
      "name": "grantRole",
      "outputs": [],
      "stateMutability": "nonpayable",
      "type": "function"
    },
    {
      "inputs": [
        {
          "internalType": "bytes32",
          "name": "role",
          "type": "bytes32"
        },
        {
          "internalType": "address",
          "name": "account",
          "type": "address"
        }
      ],
      "name": "hasRole",
      "outputs": [
        {
          "internalType": "bool",
          "name": "",
          "type": "bool"
        }
      ],
      "stateMutability": "view",
      "type": "function"
    },
    {
      "inputs": [],
      "name": "incrementVersion",
      "outputs": [
        {
          "internalType": "uint256",
          "name": "",
          "type": "uint256"
        }
      ],
      "stateMutability": "nonpayable",
      "type": "function"
    },
    {
      "inputs": [
        {
          "internalType": "string",
          "name": "_name",
          "type": "string"
        },
        {
          "internalType": "uint256",
          "name": "_version",
          "type": "uint256"
        },
        {
          "internalType": "uint256",
          "name": "_numWeeks",
          "type": "uint256"
        },
        {
          "internalType": "uint256",
          "name": "_stakeAmount",
          "type": "uint256"
        },
        {
          "internalType": "address",
          "name": "athletesDataStorageAddress",
          "type": "address"
        },
        {
          "internalType": "address",
          "name": "_owner",
          "type": "address"
        },
        {
          "internalType": "address",
          "name": "_admin",
          "type": "address"
        },
        {
          "internalType": "address",
          "name": "_polygonUSDCAddress",
          "type": "address"
        },
        {
          "internalType": "address",
          "name": "_rinkebyUSDCAddress",
          "type": "address"
        },
        {
          "internalType": "address",
          "name": "leagueMakerContractAddress",
          "type": "address"
        }
      ],
      "name": "initialize",
      "outputs": [],
      "stateMutability": "nonpayable",
      "type": "function"
    },
    {
      "inputs": [],
      "name": "joinLeague",
      "outputs": [],
      "stateMutability": "nonpayable",
      "type": "function"
    },
    {
      "inputs": [],
      "name": "leagueName",
      "outputs": [
        {
          "internalType": "string",
          "name": "",
          "type": "string"
        }
      ],
      "stateMutability": "view",
      "type": "function"
    },
    {
      "inputs": [],
      "name": "numWeeks",
      "outputs": [
        {
          "internalType": "uint256",
          "name": "",
          "type": "uint256"
        }
      ],
      "stateMutability": "view",
      "type": "function"
    },
    {
      "inputs": [],
      "name": "owner",
      "outputs": [
        {
          "internalType": "address",
          "name": "",
          "type": "address"
        }
      ],
      "stateMutability": "view",
      "type": "function"
    },
    {
      "inputs": [
        {
          "internalType": "address",
          "name": "addr",
          "type": "address"
        }
      ],
      "name": "removeAddressFromWhitelist",
      "outputs": [
        {
          "internalType": "bool",
          "name": "success",
          "type": "bool"
        }
      ],
      "stateMutability": "nonpayable",
      "type": "function"
    },
    {
      "inputs": [
        {
          "internalType": "address[]",
          "name": "addrs",
          "type": "address[]"
        }
      ],
      "name": "removeAddressesFromWhitelist",
      "outputs": [
        {
          "internalType": "bool",
          "name": "success",
          "type": "bool"
        }
      ],
      "stateMutability": "nonpayable",
      "type": "function"
    },
    {
      "inputs": [],
      "name": "removeFromLeague",
      "outputs": [],
      "stateMutability": "nonpayable",
      "type": "function"
    },
    {
      "inputs": [],
      "name": "renounceOwnership",
      "outputs": [],
      "stateMutability": "nonpayable",
      "type": "function"
    },
    {
      "inputs": [
        {
          "internalType": "bytes32",
          "name": "role",
          "type": "bytes32"
        },
        {
          "internalType": "address",
          "name": "account",
          "type": "address"
        }
      ],
      "name": "renounceRole",
      "outputs": [],
      "stateMutability": "nonpayable",
      "type": "function"
    },
    {
      "inputs": [
        {
          "internalType": "bytes32",
          "name": "role",
          "type": "bytes32"
        },
        {
          "internalType": "address",
          "name": "account",
          "type": "address"
        }
      ],
      "name": "revokeRole",
      "outputs": [],
      "stateMutability": "nonpayable",
      "type": "function"
    },
    {
      "inputs": [
        {
          "internalType": "address",
          "name": "_athleteContractAddress",
          "type": "address"
        }
      ],
      "name": "setAthleteContractAddress",
      "outputs": [],
      "stateMutability": "nonpayable",
      "type": "function"
    },
    {
      "inputs": [],
      "name": "setLeagueSchedule",
      "outputs": [],
      "stateMutability": "nonpayable",
      "type": "function"
    },
    {
      "inputs": [
        {
          "internalType": "uint256[]",
          "name": "athleteIds",
          "type": "uint256[]"
        }
      ],
      "name": "setLineup",
      "outputs": [],
      "stateMutability": "nonpayable",
      "type": "function"
    },
    {
      "inputs": [
        {
          "internalType": "bytes4",
          "name": "interfaceId",
          "type": "bytes4"
        }
      ],
      "name": "supportsInterface",
      "outputs": [
        {
          "internalType": "bool",
          "name": "",
          "type": "bool"
        }
      ],
      "stateMutability": "view",
      "type": "function"
    },
    {
      "inputs": [
        {
          "internalType": "address",
          "name": "newOwner",
          "type": "address"
        }
      ],
      "name": "transferOwnership",
      "outputs": [],
      "stateMutability": "nonpayable",
      "type": "function"
    },
    {
      "inputs": [],
      "name": "version",
      "outputs": [
        {
          "internalType": "uint256",
          "name": "",
          "type": "uint256"
        }
      ],
      "stateMutability": "view",
      "type": "function"
    },
    {
      "inputs": [
        {
          "internalType": "address",
          "name": "",
          "type": "address"
        }
      ],
      "name": "whitelist",
      "outputs": [
        {
          "internalType": "bool",
          "name": "",
          "type": "bool"
        }
      ],
      "stateMutability": "view",
      "type": "function"
    }
  ],
  "bytecode": "0x60806040523480156200001157600080fd5b5062000032620000266200003860201b60201c565b6200004060201b60201c565b62000105565b600033905090565b60008060029054906101000a900473ffffffffffffffffffffffffffffffffffffffff16905081600060026101000a81548173ffffffffffffffffffffffffffffffffffffffff021916908373ffffffffffffffffffffffffffffffffffffffff1602179055508173ffffffffffffffffffffffffffffffffffffffff168173ffffffffffffffffffffffffffffffffffffffff167f8be0079c531659141344cd1fd0a4f28419497f9722a3daafe3b4186f6b6457e060405160405180910390a35050565b61588880620001156000396000f3fe60806040523480156200001157600080fd5b50600436106200022c5760003560e01c8063715018a611620001355780639b19251a11620000bd578063c99fea941162000087578063c99fea94146200063b578063d547741f1462000647578063e2ec6ec31462000667578063f2fde38b146200069d578063f612121a14620006bd576200022c565b80639b19251a14620005a1578063a217fddf14620005d7578063ada3a28d14620005f9578063bb1a0461146200061b576200022c565b8063841abf6e11620000ff578063841abf6e14620004f1578063853976dd14620005135780638da5cb5b146200054957806391d14854146200056b576200022c565b8063715018a614620004815780637ac6aa1d146200048d5780637b9417c814620004995780637eed33f114620004cf576200022c565b80632cf0a1fc11620001b957806354fd4d50116200018357806354fd4d5014620003e55780636802471714620004075780636bdc44df146200043d5780636fd71a18146200045f576200022c565b80632cf0a1fc14620003635780632f2ff15d146200038557806336568abe14620003a5578063486b394414620003c5576200022c565b806311c253f511620001fb57806311c253f514620002b5578063248a9ca314620002c157806324953eaa14620002f7578063286dd3f5146200032d576200022c565b806301ffc9a714620002315780630655465a1462000267578063087e18a714620002735780630d8e6e2c1462000293575b600080fd5b6200024f6004803603810190620002499190620039e5565b620006dd565b6040516200025e919062003fec565b60405180910390f35b620002716200075a565b005b6200029160048036038101906200028b9190620037ce565b62000f7f565b005b6200029d620010af565b604051620002ac919062004116565b60405180910390f35b620002bf620010b4565b005b620002df6004803603810190620002d991906200396c565b6200111b565b604051620002ee919062004009565b60405180910390f35b6200031560048036038101906200030f919062003847565b6200113b565b60405162000324919062003fec565b60405180910390f35b6200034b6004803603810190620003459190620037ce565b62001238565b6040516200035a919062003fec565b60405180910390f35b6200036d620013c7565b6040516200037c919062004116565b60405180910390f35b620003a360048036038101906200039d91906200399e565b6200146b565b005b620003c36004803603810190620003bd91906200399e565b6200149c565b005b620003e36004803603810190620003dd9190620037ce565b62001526565b005b620003ef620015ed565b604051620003fe919062004116565b60405180910390f35b6200042560048036038101906200041f9190620037ce565b620015f3565b60405162000434919062004116565b60405180910390f35b620004476200168b565b60405162000456919062004116565b60405180910390f35b62000469620016d2565b60405162000478919062003fc8565b60405180910390f35b6200048b62001769565b005b62000497620017fa565b005b620004b76004803603810190620004b19190620037ce565b6200186d565b604051620004c6919062003fec565b60405180910390f35b620004d9620019fb565b604051620004e8919062004116565b60405180910390f35b620004fb62001a01565b6040516200050a919062004026565b60405180910390f35b6200053160048036038101906200052b919062003800565b62001a97565b60405162000540919062003f41565b60405180910390f35b620005536200213f565b60405162000562919062003f41565b60405180910390f35b6200058960048036038101906200058391906200399e565b62002168565b60405162000598919062003fec565b60405180910390f35b620005bf6004803603810190620005b99190620037ce565b620021d3565b604051620005ce919062003fec565b60405180910390f35b620005e1620021f3565b604051620005f0919062004009565b60405180910390f35b62000603620021fa565b60405162000612919062003fc8565b60405180910390f35b62000639600480360381019062000633919062003a17565b62002291565b005b62000645620025e4565b005b6200066560048036038101906200065f91906200399e565b620026de565b005b6200068560048036038101906200067f919062003847565b6200270f565b60405162000694919062003fec565b60405180910390f35b620006bb6004803603810190620006b59190620037ce565b6200280c565b005b620006db6004803603810190620006d5919062003898565b62002910565b005b60007f7965db0b000000000000000000000000000000000000000000000000000000007bffffffffffffffffffffffffffffffffffffffffffffffffffffffff1916827bffffffffffffffffffffffffffffffffffffffffffffffffffffffff19161480620007535750620007528262002969565b5b9050919050565b6200079a6040518060400160405280601081526020017f73657474696e67207363686564756c6500000000000000000000000000000000815250620029d3565b6000600880549050600880549050620007b49190620042c4565b4233446005604051602001620007ce949392919062003eef565b6040516020818303038152906040528051906020012060001c620007f391906200422f565b9050620007ff62003305565b6200080962003305565b60005b600881101562000f7957620008566040518060400160405280600181526020017f0a00000000000000000000000000000000000000000000000000000000000000815250620029d3565b620008618162002a70565b620008a16040518060400160405280601881526020017f2a2a2a2a2a2a2a2a2a2a2a2a2a2a2a2a2a2a2a2a2a2a2a2a0000000000000000815250620029d3565b6000806002600880549050620008b8919062004531565b14620008db576001600880549050620008d291906200422f565b905080620008e5565b6008805490509050805b50600083600060048110620008ff57620008fe620045f6565b5b6020020151905060005b6002836200091891906200428c565b81101562000a95576000841415620009db5780866002856200093b91906200428c565b89846200094991906200422f565b62000955919062004531565b60048110620009695762000968620045f6565b5b6020020181815250506002836200098191906200428c565b816200098e91906200422f565b856002856200099e91906200428c565b8984620009ac91906200422f565b620009b8919062004531565b60048110620009cc57620009cb620045f6565b5b60200201818152505062000a7f565b6000868260048110620009f357620009f2620045f6565b5b602002015190508086836004811062000a115762000a10620045f6565b5b6020020181815250508560028562000a2a91906200428c565b60018462000a3991906200422f565b62000a45919062004531565b6004811062000a595762000a58620045f6565b5b602002015187836004811062000a745762000a73620045f6565b5b602002018181525050505b808062000a8c90620044b1565b91505062000909565b506000831462000adc578085600160028562000ab291906200428c565b62000abe919062004325565b6004811062000ad25762000ad1620045f6565b5b6020020181815250505b60005b60028362000aee91906200428c565b81101562000f605762000b0062003327565b60088054905086836004811062000b1c5762000b1b620045f6565b5b60200201511062000bf8576040518060400160405280600889856004811062000b4a5762000b49620045f6565b5b60200201518154811062000b635762000b62620045f6565b5b9060005260206000200160009054906101000a900473ffffffffffffffffffffffffffffffffffffffff1673ffffffffffffffffffffffffffffffffffffffff1673ffffffffffffffffffffffffffffffffffffffff168152602001600073ffffffffffffffffffffffffffffffffffffffff1673ffffffffffffffffffffffffffffffffffffffff16815250905062000e17565b60088054905087836004811062000c145762000c13620045f6565b5b60200201511062000cf0576040518060400160405280600073ffffffffffffffffffffffffffffffffffffffff1673ffffffffffffffffffffffffffffffffffffffff168152602001600888856004811062000c755762000c74620045f6565b5b60200201518154811062000c8e5762000c8d620045f6565b5b9060005260206000200160009054906101000a900473ffffffffffffffffffffffffffffffffffffffff1673ffffffffffffffffffffffffffffffffffffffff1673ffffffffffffffffffffffffffffffffffffffff16815250905062000e16565b6040518060400160405280600889856004811062000d135762000d12620045f6565b5b60200201518154811062000d2c5762000d2b620045f6565b5b9060005260206000200160009054906101000a900473ffffffffffffffffffffffffffffffffffffffff1673ffffffffffffffffffffffffffffffffffffffff1673ffffffffffffffffffffffffffffffffffffffff168152602001600888856004811062000da05762000d9f620045f6565b5b60200201518154811062000db95762000db8620045f6565b5b9060005260206000200160009054906101000a900473ffffffffffffffffffffffffffffffffffffffff1673ffffffffffffffffffffffffffffffffffffffff1673ffffffffffffffffffffffffffffffffffffffff1681525090505b5b600060405180602001604052808381525090508060136000888152602001908152602001600020846008811062000e535762000e52620045f6565b5b6002020160008201518160000190600262000e7092919062003349565b5090505062000e9e816000015160006002811062000e935762000e92620045f6565b5b602002015162002b0d565b62000ede6040518060400160405280600481526020017f2076732000000000000000000000000000000000000000000000000000000000815250620029d3565b62000f08816000015160016002811062000efd5762000efc620045f6565b5b602002015162002b0d565b62000f486040518060400160405280600181526020017f0a00000000000000000000000000000000000000000000000000000000000000815250620029d3565b5050808062000f5790620044b1565b91505062000adf565b505050808062000f7090620044b1565b9150506200080c565b50505050565b60088080549050101562001087576008819080600181540180825580915050600190039060005260206000200160009091909190916101000a81548173ffffffffffffffffffffffffffffffffffffffff021916908373ffffffffffffffffffffffffffffffffffffffff160217905550601260009054906101000a900473ffffffffffffffffffffffffffffffffffffffff1673ffffffffffffffffffffffffffffffffffffffff1663771bd4ce826040518263ffffffff1660e01b81526004016200104d919062003f41565b600060405180830381600087803b1580156200106857600080fd5b505af11580156200107d573d6000803e3d6000fd5b50505050620010ac565b620010ab6040518060600160405280602881526020016200582b60289139620029d3565b5b50565b600090565b600260003373ffffffffffffffffffffffffffffffffffffffff1673ffffffffffffffffffffffffffffffffffffffff16815260200190815260200160002060009054906101000a900460ff16806200110f57506000600354145b6200111957600080fd5b565b600060016000838152602001908152602001600020600101549050919050565b60006200114762002baa565b73ffffffffffffffffffffffffffffffffffffffff16620011676200213f565b73ffffffffffffffffffffffffffffffffffffffff1614620011c0576040517f08c379a0000000000000000000000000000000000000000000000000000000008152600401620011b790620040d2565b60405180910390fd5b60005b82518110156200123257620011f5838281518110620011e757620011e6620045f6565b5b602002602001015162001238565b156200121c5760016003600082825462001210919062004325565b92505081905550600191505b80806200122990620044b1565b915050620011c3565b50919050565b60006200124462002baa565b73ffffffffffffffffffffffffffffffffffffffff16620012646200213f565b73ffffffffffffffffffffffffffffffffffffffff1614620012bd576040517f08c379a0000000000000000000000000000000000000000000000000000000008152600401620012b490620040d2565b60405180910390fd5b600260008373ffffffffffffffffffffffffffffffffffffffff1673ffffffffffffffffffffffffffffffffffffffff16815260200190815260200160002060009054906101000a900460ff1615620013c2576000600260008473ffffffffffffffffffffffffffffffffffffffff1673ffffffffffffffffffffffffffffffffffffffff16815260200190815260200160002060006101000a81548160ff0219169083151502179055507ff1abf01a1043b7c244d128e8595cf0c1d10743b022b03a02dffd8ca3bf729f5a8260405162001399919062003f41565b60405180910390a1600160036000828254620013b6919062004325565b92505081905550600190505b919050565b6000620014096040518060400160405280601581526020017f696e6372656d656e74696e672076657273696f6e3a0000000000000000000000815250620029d3565b60016004546200141a91906200422f565b6004819055506200142d60045462002a70565b7f2f23a8b1c76a44af619c48a5ae5637ab2bc86bc815c717b98d4f336ce1c44ba260045460405162001460919062004116565b60405180910390a190565b62001476826200111b565b6200148b816200148562002baa565b62002bb2565b62001497838362002c5a565b505050565b620014a662002baa565b73ffffffffffffffffffffffffffffffffffffffff168173ffffffffffffffffffffffffffffffffffffffff161462001516576040517f08c379a00000000000000000000000000000000000000000000000000000000081526004016200150d90620040f4565b60405180910390fd5b62001522828262002d3f565b5050565b6200153062002baa565b73ffffffffffffffffffffffffffffffffffffffff16620015506200213f565b73ffffffffffffffffffffffffffffffffffffffff1614620015a9576040517f08c379a0000000000000000000000000000000000000000000000000000000008152600401620015a090620040d2565b60405180910390fd5b80601060006101000a81548173ffffffffffffffffffffffffffffffffffffffff021916908373ffffffffffffffffffffffffffffffffffffffff16021790555050565b60045481565b60008173ffffffffffffffffffffffffffffffffffffffff166370a08231306040518263ffffffff1660e01b815260040162001630919062003f41565b60206040518083038186803b1580156200164957600080fd5b505afa1580156200165e573d6000803e3d6000fd5b505050506040513d601f19601f8201168201806040525081019062001684919062003b31565b9050919050565b6000600960003373ffffffffffffffffffffffffffffffffffffffff1673ffffffffffffffffffffffffffffffffffffffff16815260200190815260200160002054905090565b6060600a60003373ffffffffffffffffffffffffffffffffffffffff1673ffffffffffffffffffffffffffffffffffffffff1681526020019081526020016000208054806020026020016040519081016040528092919081815260200182805480156200175f57602002820191906000526020600020905b8154815260200190600101908083116200174a575b5050505050905090565b6200177362002baa565b73ffffffffffffffffffffffffffffffffffffffff16620017936200213f565b73ffffffffffffffffffffffffffffffffffffffff1614620017ec576040517f08c379a0000000000000000000000000000000000000000000000000000000008152600401620017e390620040d2565b60405180910390fd5b620017f8600062002e26565b565b620018096000801b3362002168565b6200181357600080fd5b6001600260003373ffffffffffffffffffffffffffffffffffffffff1673ffffffffffffffffffffffffffffffffffffffff16815260200190815260200160002060006101000a81548160ff021916908315150217905550565b60006200187962002baa565b73ffffffffffffffffffffffffffffffffffffffff16620018996200213f565b73ffffffffffffffffffffffffffffffffffffffff1614620018f2576040517f08c379a0000000000000000000000000000000000000000000000000000000008152600401620018e990620040d2565b60405180910390fd5b600260008373ffffffffffffffffffffffffffffffffffffffff1673ffffffffffffffffffffffffffffffffffffffff16815260200190815260200160002060009054906101000a900460ff16620019f6576001600260008473ffffffffffffffffffffffffffffffffffffffff1673ffffffffffffffffffffffffffffffffffffffff16815260200190815260200160002060006101000a81548160ff0219169083151502179055507fd1bba68c128cc3f427e5831b3c6f99f480b6efa6b9e80c757768f6124158cc3f82604051620019cd919062003f41565b60405180910390a1600160036000828254620019ea91906200422f565b92505081905550600190505b919050565b60065481565b6005805462001a109062004445565b80601f016020809104026020016040519081016040528092919081815260200182805462001a3e9062004445565b801562001a8f5780601f1062001a635761010080835404028352916020019162001a8f565b820191906000526020600020905b81548152906001019060200180831162001a7157829003601f168201915b505050505081565b600062001aa362002baa565b73ffffffffffffffffffffffffffffffffffffffff1662001ac36200213f565b73ffffffffffffffffffffffffffffffffffffffff161462001b1c576040517f08c379a000000000000000000000000000000000000000000000000000000000815260040162001b1390620040d2565b60405180910390fd5b6000600b60008573ffffffffffffffffffffffffffffffffffffffff1673ffffffffffffffffffffffffffffffffffffffff16815260200190815260200160002080548060200260200160405190810160405280929190818152602001828054801562001ba957602002820191906000526020600020905b81548152602001906001019080831162001b94575b505050505090506000600b60008573ffffffffffffffffffffffffffffffffffffffff1673ffffffffffffffffffffffffffffffffffffffff16815260200190815260200160002080548060200260200160405190810160405280929190818152602001828054801562001c3d57602002820191906000526020600020905b81548152602001906001019080831162001c28575b5050505050905060008060005b845181101562001eb0576000601060009054906101000a900473ffffffffffffffffffffffffffffffffffffffff1673ffffffffffffffffffffffffffffffffffffffff1663d4313da887848151811062001caa5762001ca9620045f6565b5b60200260200101516040518263ffffffff1660e01b815260040162001cd0919062004116565b60006040518083038186803b15801562001ce957600080fd5b505afa15801562001cfe573d6000803e3d6000fd5b505050506040513d6000823e3d601f19601f8201168201806040525081019062001d299190620038e9565b90506000601060009054906101000a900473ffffffffffffffffffffffffffffffffffffffff1673ffffffffffffffffffffffffffffffffffffffff1663d4313da887858151811062001d815762001d80620045f6565b5b60200260200101516040518263ffffffff1660e01b815260040162001da7919062004116565b60006040518083038186803b15801562001dc057600080fd5b505afa15801562001dd5573d6000803e3d6000fd5b505050506040513d6000823e3d601f19601f8201168201806040525081019062001e009190620038e9565b90506000826001845162001e15919062004325565b8151811062001e295762001e28620045f6565b5b602002602001015190506000826001845162001e46919062004325565b8151811062001e5a5762001e59620045f6565b5b602002602001015190508082111562001e845760018762001e7c91906200422f565b965062001e96565b60018662001e9391906200422f565b95505b50505050808062001ea790620044b1565b91505062001c4a565b5060016007600082825462001ec691906200422f565b92505081905550808211156200200a57600a60008873ffffffffffffffffffffffffffffffffffffffff1673ffffffffffffffffffffffffffffffffffffffff16815260200190815260200160002060019080600181540180825580915050600190039060005260206000200160009091909190915055600a60008773ffffffffffffffffffffffffffffffffffffffff1673ffffffffffffffffffffffffffffffffffffffff168152602001908152602001600020600090806001815401808255809150506001900390600052602060002001600090919091909150556001600960008973ffffffffffffffffffffffffffffffffffffffff1673ffffffffffffffffffffffffffffffffffffffff168152602001908152602001600020600082825462001ff691906200422f565b925050819055508694505050505062002139565b600a60008773ffffffffffffffffffffffffffffffffffffffff1673ffffffffffffffffffffffffffffffffffffffff16815260200190815260200160002060019080600181540180825580915050600190039060005260206000200160009091909190915055600a60008873ffffffffffffffffffffffffffffffffffffffff1673ffffffffffffffffffffffffffffffffffffffff168152602001908152602001600020600090806001815401808255809150506001900390600052602060002001600090919091909150556001600960008873ffffffffffffffffffffffffffffffffffffffff1673ffffffffffffffffffffffffffffffffffffffff16815260200190815260200160002060008282546200212a91906200422f565b92505081905550859450505050505b92915050565b60008060029054906101000a900473ffffffffffffffffffffffffffffffffffffffff16905090565b60006001600084815260200190815260200160002060000160008373ffffffffffffffffffffffffffffffffffffffff1673ffffffffffffffffffffffffffffffffffffffff16815260200190815260200160002060009054906101000a900460ff16905092915050565b60026020528060005260406000206000915054906101000a900460ff1681565b6000801b81565b6060600b60003373ffffffffffffffffffffffffffffffffffffffff1673ffffffffffffffffffffffffffffffffffffffff1681526020019081526020016000208054806020026020016040519081016040528092919081815260200182805480156200228757602002820191906000526020600020905b81548152602001906001019080831162002272575b5050505050905090565b600060019054906101000a900460ff16620022bb5760008054906101000a900460ff1615620022c6565b620022c562002eeb565b5b62002308576040517f08c379a0000000000000000000000000000000000000000000000000000000008152600401620022ff90620040b0565b60405180910390fd5b60008060019054906101000a900460ff16159050801562002359576001600060016101000a81548160ff02191690831515021790555060016000806101000a81548160ff0219169083151502179055505b8b8b600591906200236c929190620033cb565b50896004819055508860068190555060006007819055506000600c8190555087600d8190555086601060006101000a81548173ffffffffffffffffffffffffffffffffffffffff021916908373ffffffffffffffffffffffffffffffffffffffff16021790555081601260006101000a81548173ffffffffffffffffffffffffffffffffffffffff021916908373ffffffffffffffffffffffffffffffffffffffff160217905550620024236000801b8662002efe565b83600e60006101000a81548173ffffffffffffffffffffffffffffffffffffffff021916908373ffffffffffffffffffffffffffffffffffffffff16021790555082600f60006101000a81548173ffffffffffffffffffffffffffffffffffffffff021916908373ffffffffffffffffffffffffffffffffffffffff1602179055506008339080600181540180825580915050600190039060005260206000200160009091909190916101000a81548173ffffffffffffffffffffffffffffffffffffffff021916908373ffffffffffffffffffffffffffffffffffffffff16021790555060405162002516906200345c565b604051809103906000f08015801562002533573d6000803e3d6000fd5b50601160006101000a81548173ffffffffffffffffffffffffffffffffffffffff021916908373ffffffffffffffffffffffffffffffffffffffff160217905550620025b46040518060400160405280601281526020017f50726f787920696e697469616c697a6564210000000000000000000000000000815250620029d3565b8015620025d65760008060016101000a81548160ff0219169083151502179055505b505050505050505050505050565b600260003373ffffffffffffffffffffffffffffffffffffffff1673ffffffffffffffffffffffffffffffffffffffff16815260200190815260200160002060009054906101000a900460ff16806200263f57506000600354145b6200264957600080fd5b6008339080600181540180825580915050600190039060005260206000200160009091909190916101000a81548173ffffffffffffffffffffffffffffffffffffffff021916908373ffffffffffffffffffffffffffffffffffffffff160217905550620026dc600f60009054906101000a900473ffffffffffffffffffffffffffffffffffffffff16600d5462002f0e565b565b620026e9826200111b565b620026fe81620026f862002baa565b62002bb2565b6200270a838362002d3f565b505050565b60006200271b62002baa565b73ffffffffffffffffffffffffffffffffffffffff166200273b6200213f565b73ffffffffffffffffffffffffffffffffffffffff161462002794576040517f08c379a00000000000000000000000000000000000000000000000000000000081526004016200278b90620040d2565b60405180910390fd5b60005b82518110156200280657620027c9838281518110620027bb57620027ba620045f6565b5b60200260200101516200186d565b15620027f057600160036000828254620027e491906200422f565b92505081905550600191505b8080620027fd90620044b1565b91505062002797565b50919050565b6200281662002baa565b73ffffffffffffffffffffffffffffffffffffffff16620028366200213f565b73ffffffffffffffffffffffffffffffffffffffff16146200288f576040517f08c379a00000000000000000000000000000000000000000000000000000000081526004016200288690620040d2565b60405180910390fd5b600073ffffffffffffffffffffffffffffffffffffffff168173ffffffffffffffffffffffffffffffffffffffff16141562002902576040517f08c379a0000000000000000000000000000000000000000000000000000000008152600401620028f9906200406c565b60405180910390fd5b6200290d8162002e26565b50565b80600b60003373ffffffffffffffffffffffffffffffffffffffff1673ffffffffffffffffffffffffffffffffffffffff1681526020019081526020016000209080519060200190620029659291906200346a565b5050565b60007f01ffc9a7000000000000000000000000000000000000000000000000000000007bffffffffffffffffffffffffffffffffffffffffffffffffffffffff1916827bffffffffffffffffffffffffffffffffffffffffffffffffffffffff1916149050919050565b62002a6d81604051602401620029ea919062004026565b6040516020818303038152906040527f41304fac000000000000000000000000000000000000000000000000000000007bffffffffffffffffffffffffffffffffffffffffffffffffffffffff19166020820180517bffffffffffffffffffffffffffffffffffffffffffffffffffffffff838183161783525050505062003046565b50565b62002b0a8160405160240162002a87919062004116565b6040516020818303038152906040527ff5b1bba9000000000000000000000000000000000000000000000000000000007bffffffffffffffffffffffffffffffffffffffffffffffffffffffff19166020820180517bffffffffffffffffffffffffffffffffffffffffffffffffffffffff838183161783525050505062003046565b50565b62002ba78160405160240162002b24919062003f41565b6040516020818303038152906040527f2c2ecbc2000000000000000000000000000000000000000000000000000000007bffffffffffffffffffffffffffffffffffffffffffffffffffffffff19166020820180517bffffffffffffffffffffffffffffffffffffffffffffffffffffffff838183161783525050505062003046565b50565b600033905090565b62002bbe828262002168565b62002c565762002be68173ffffffffffffffffffffffffffffffffffffffff1660146200306f565b62002bf68360001c60206200306f565b60405160200162002c0992919062003ead565b6040516020818303038152906040526040517f08c379a000000000000000000000000000000000000000000000000000000000815260040162002c4d919062004026565b60405180910390fd5b5050565b62002c66828262002168565b62002d3b57600180600084815260200190815260200160002060000160008373ffffffffffffffffffffffffffffffffffffffff1673ffffffffffffffffffffffffffffffffffffffff16815260200190815260200160002060006101000a81548160ff02191690831515021790555062002ce062002baa565b73ffffffffffffffffffffffffffffffffffffffff168173ffffffffffffffffffffffffffffffffffffffff16837f2f8788117e7eff1d82e926ec794901d17c78024a50270940304540a733656f0d60405160405180910390a45b5050565b62002d4b828262002168565b1562002e225760006001600084815260200190815260200160002060000160008373ffffffffffffffffffffffffffffffffffffffff1673ffffffffffffffffffffffffffffffffffffffff16815260200190815260200160002060006101000a81548160ff02191690831515021790555062002dc762002baa565b73ffffffffffffffffffffffffffffffffffffffff168173ffffffffffffffffffffffffffffffffffffffff16837ff6391f5c32d9c69d2a47ea670b442974b53935d1edc7fd64eb21e047a839171b60405160405180910390a45b5050565b60008060029054906101000a900473ffffffffffffffffffffffffffffffffffffffff16905081600060026101000a81548173ffffffffffffffffffffffffffffffffffffffff021916908373ffffffffffffffffffffffffffffffffffffffff1602179055508173ffffffffffffffffffffffffffffffffffffffff168173ffffffffffffffffffffffffffffffffffffffff167f8be0079c531659141344cd1fd0a4f28419497f9722a3daafe3b4186f6b6457e060405160405180910390a35050565b600062002ef830620032ca565b15905090565b62002f0a828262002c5a565b5050565b6000811162002f54576040517f08c379a000000000000000000000000000000000000000000000000000000000815260040162002f4b906200408e565b60405180910390fd5b62002f6b81600c54620032ed90919063ffffffff16565b600c819055508173ffffffffffffffffffffffffffffffffffffffff166323b872dd3330846040518463ffffffff1660e01b815260040162002fb09392919062003f5e565b602060405180830381600087803b15801562002fcb57600080fd5b505af115801562002fe0573d6000803e3d6000fd5b505050506040513d601f19601f820116820180604052508101906200300691906200393a565b507f9e71bc8eea02a63969f509818f2dafb9254532904319f9dbda79b67bd34a5f3d33826040516200303a92919062003f9b565b60405180910390a15050565b60008151905060006a636f6e736f6c652e6c6f679050602083016000808483855afa5050505050565b606060006002836002620030849190620042c4565b6200309091906200422f565b67ffffffffffffffff811115620030ac57620030ab62004625565b5b6040519080825280601f01601f191660200182016040528015620030df5781602001600182028036833780820191505090505b5090507f3000000000000000000000000000000000000000000000000000000000000000816000815181106200311a5762003119620045f6565b5b60200101907effffffffffffffffffffffffffffffffffffffffffffffffffffffffffffff1916908160001a9053507f780000000000000000000000000000000000000000000000000000000000000081600181518110620031815762003180620045f6565b5b60200101907effffffffffffffffffffffffffffffffffffffffffffffffffffffffffffff1916908160001a90535060006001846002620031c39190620042c4565b620031cf91906200422f565b90505b600181111562003279577f3031323334353637383961626364656600000000000000000000000000000000600f861660108110620032155762003214620045f6565b5b1a60f81b8282815181106200322f576200322e620045f6565b5b60200101907effffffffffffffffffffffffffffffffffffffffffffffffffffffffffffff1916908160001a905350600485901c945080620032719062004416565b9050620031d2565b5060008414620032c0576040517f08c379a0000000000000000000000000000000000000000000000000000000008152600401620032b7906200404a565b60405180910390fd5b8091505092915050565b6000808273ffffffffffffffffffffffffffffffffffffffff163b119050919050565b60008183620032fd91906200422f565b905092915050565b6040518060800160405280600490602082028036833780820191505090505090565b6040518060400160405280600290602082028036833780820191505090505090565b8260028101928215620033b8579160200282015b82811115620033b75782518260006101000a81548173ffffffffffffffffffffffffffffffffffffffff021916908373ffffffffffffffffffffffffffffffffffffffff160217905550916020019190600101906200335d565b5b509050620033c79190620034bc565b5090565b828054620033d99062004445565b90600052602060002090601f016020900481019282620033fd576000855562003449565b82601f106200341857803560ff191683800117855562003449565b8280016001018555821562003449579182015b82811115620034485782358255916020019190600101906200342b565b5b509050620034589190620034bc565b5090565b610f6380620048c883390190565b828054828255906000526020600020908101928215620034a9579160200282015b82811115620034a85782518255916020019190600101906200348b565b5b509050620034b89190620034bc565b5090565b5b80821115620034d7576000816000905550600101620034bd565b5090565b6000620034f2620034ec846200415c565b62004133565b905080838252602082019050828560208602820111156200351857620035176200465e565b5b60005b858110156200354c57816200353188826200364c565b8452602084019350602083019250506001810190506200351b565b5050509392505050565b60006200356d62003567846200418b565b62004133565b905080838252602082019050828560208602820111156200359357620035926200465e565b5b60005b85811015620035c75781620035ac8882620037a0565b84526020840193506020830192505060018101905062003596565b5050509392505050565b6000620035e8620035e2846200418b565b62004133565b905080838252602082019050828560208602820111156200360e576200360d6200465e565b5b60005b85811015620036425781620036278882620037b7565b84526020840193506020830192505060018101905062003611565b5050509392505050565b6000813590506200365d8162004845565b92915050565b600082601f8301126200367b576200367a62004659565b5b81356200368d848260208601620034db565b91505092915050565b600082601f830112620036ae57620036ad62004659565b5b8135620036c084826020860162003556565b91505092915050565b600082601f830112620036e157620036e062004659565b5b8151620036f3848260208601620035d1565b91505092915050565b6000815190506200370d816200485f565b92915050565b600081359050620037248162004879565b92915050565b6000813590506200373b8162004893565b92915050565b60008083601f8401126200375a576200375962004659565b5b8235905067ffffffffffffffff8111156200377a576200377962004654565b5b6020830191508360018202830111156200379957620037986200465e565b5b9250929050565b600081359050620037b181620048ad565b92915050565b600081519050620037c881620048ad565b92915050565b600060208284031215620037e757620037e662004668565b5b6000620037f7848285016200364c565b91505092915050565b600080604083850312156200381a576200381962004668565b5b60006200382a858286016200364c565b92505060206200383d858286016200364c565b9150509250929050565b60006020828403121562003860576200385f62004668565b5b600082013567ffffffffffffffff81111562003881576200388062004663565b5b6200388f8482850162003663565b91505092915050565b600060208284031215620038b157620038b062004668565b5b600082013567ffffffffffffffff811115620038d257620038d162004663565b5b620038e08482850162003696565b91505092915050565b60006020828403121562003902576200390162004668565b5b600082015167ffffffffffffffff81111562003923576200392262004663565b5b6200393184828501620036c9565b91505092915050565b60006020828403121562003953576200395262004668565b5b60006200396384828501620036fc565b91505092915050565b60006020828403121562003985576200398462004668565b5b6000620039958482850162003713565b91505092915050565b60008060408385031215620039b857620039b762004668565b5b6000620039c88582860162003713565b9250506020620039db858286016200364c565b9150509250929050565b600060208284031215620039fe57620039fd62004668565b5b600062003a0e848285016200372a565b91505092915050565b60008060008060008060008060008060006101408c8e03121562003a405762003a3f62004668565b5b60008c013567ffffffffffffffff81111562003a615762003a6062004663565b5b62003a6f8e828f0162003741565b9b509b5050602062003a848e828f01620037a0565b995050604062003a978e828f01620037a0565b985050606062003aaa8e828f01620037a0565b975050608062003abd8e828f016200364c565b96505060a062003ad08e828f016200364c565b95505060c062003ae38e828f016200364c565b94505060e062003af68e828f016200364c565b93505061010062003b0a8e828f016200364c565b92505061012062003b1e8e828f016200364c565b9150509295989b509295989b9093969950565b60006020828403121562003b4a5762003b4962004668565b5b600062003b5a84828501620037b7565b91505092915050565b600062003b71838362003e70565b60208301905092915050565b62003b888162004360565b82525050565b62003ba362003b9d8262004360565b620044ff565b82525050565b600062003bb682620041df565b62003bc2818562004202565b935062003bcf83620041ba565b8060005b8381101562003c0657815162003bea888262003b63565b975062003bf783620041f5565b92505060018101905062003bd3565b5085935050505092915050565b62003c1e8162004374565b82525050565b62003c2f8162004380565b82525050565b600062003c4282620041ea565b62003c4e818562004213565b935062003c60818560208601620043e0565b62003c6b816200466d565b840191505092915050565b600062003c8382620041ea565b62003c8f818562004224565b935062003ca1818560208601620043e0565b80840191505092915050565b6000815462003cbc8162004445565b62003cc8818662004224565b9450600182166000811462003ce6576001811462003cf85762003d2f565b60ff1983168652818601935062003d2f565b62003d0385620041ca565b60005b8381101562003d275781548189015260018201915060208101905062003d06565b838801955050505b50505092915050565b600062003d4760208362004213565b915062003d54826200468b565b602082019050919050565b600062003d6e60268362004213565b915062003d7b82620046b4565b604082019050919050565b600062003d95600e8362004213565b915062003da28262004703565b602082019050919050565b600062003dbc602e8362004213565b915062003dc9826200472c565b604082019050919050565b600062003de360208362004213565b915062003df0826200477b565b602082019050919050565b600062003e0a60178362004224565b915062003e1782620047a4565b601782019050919050565b600062003e3160118362004224565b915062003e3e82620047cd565b601182019050919050565b600062003e58602f8362004213565b915062003e6582620047f6565b604082019050919050565b62003e7b81620043d6565b82525050565b62003e8c81620043d6565b82525050565b62003ea762003ea182620043d6565b62004527565b82525050565b600062003eba8262003dfb565b915062003ec8828562003c76565b915062003ed58262003e22565b915062003ee3828462003c76565b91508190509392505050565b600062003efd828762003e92565b60208201915062003f0f828662003b8e565b60148201915062003f21828562003e92565b60208201915062003f33828462003cad565b915081905095945050505050565b600060208201905062003f58600083018462003b7d565b92915050565b600060608201905062003f75600083018662003b7d565b62003f84602083018562003b7d565b62003f93604083018462003e81565b949350505050565b600060408201905062003fb2600083018562003b7d565b62003fc1602083018462003e81565b9392505050565b6000602082019050818103600083015262003fe4818462003ba9565b905092915050565b600060208201905062004003600083018462003c13565b92915050565b600060208201905062004020600083018462003c24565b92915050565b6000602082019050818103600083015262004042818462003c35565b905092915050565b60006020820190508181036000830152620040658162003d38565b9050919050565b60006020820190508181036000830152620040878162003d5f565b9050919050565b60006020820190508181036000830152620040a98162003d86565b9050919050565b60006020820190508181036000830152620040cb8162003dad565b9050919050565b60006020820190508181036000830152620040ed8162003dd4565b9050919050565b600060208201905081810360008301526200410f8162003e49565b9050919050565b60006020820190506200412d600083018462003e81565b92915050565b60006200413f62004152565b90506200414d82826200447b565b919050565b6000604051905090565b600067ffffffffffffffff8211156200417a576200417962004625565b5b602082029050602081019050919050565b600067ffffffffffffffff821115620041a957620041a862004625565b5b602082029050602081019050919050565b6000819050602082019050919050565b60008190508160005260206000209050919050565b600081519050919050565b600081519050919050565b6000602082019050919050565b600082825260208201905092915050565b600082825260208201905092915050565b600081905092915050565b60006200423c82620043d6565b91506200424983620043d6565b9250827fffffffffffffffffffffffffffffffffffffffffffffffffffffffffffffffff0382111562004281576200428062004569565b5b828201905092915050565b60006200429982620043d6565b9150620042a683620043d6565b925082620042b957620042b862004598565b5b828204905092915050565b6000620042d182620043d6565b9150620042de83620043d6565b9250817fffffffffffffffffffffffffffffffffffffffffffffffffffffffffffffffff04831182151516156200431a576200431962004569565b5b828202905092915050565b60006200433282620043d6565b91506200433f83620043d6565b92508282101562004355576200435462004569565b5b828203905092915050565b60006200436d82620043b6565b9050919050565b60008115159050919050565b6000819050919050565b60007fffffffff0000000000000000000000000000000000000000000000000000000082169050919050565b600073ffffffffffffffffffffffffffffffffffffffff82169050919050565b6000819050919050565b60005b8381101562004400578082015181840152602081019050620043e3565b8381111562004410576000848401525b50505050565b60006200442382620043d6565b915060008214156200443a576200443962004569565b5b600182039050919050565b600060028204905060018216806200445e57607f821691505b60208210811415620044755762004474620045c7565b5b50919050565b62004486826200466d565b810181811067ffffffffffffffff82111715620044a857620044a762004625565b5b80604052505050565b6000620044be82620043d6565b91507fffffffffffffffffffffffffffffffffffffffffffffffffffffffffffffffff821415620044f457620044f362004569565b5b600182019050919050565b60006200450c8262004513565b9050919050565b600062004520826200467e565b9050919050565b6000819050919050565b60006200453e82620043d6565b91506200454b83620043d6565b9250826200455e576200455d62004598565b5b828206905092915050565b7f4e487b7100000000000000000000000000000000000000000000000000000000600052601160045260246000fd5b7f4e487b7100000000000000000000000000000000000000000000000000000000600052601260045260246000fd5b7f4e487b7100000000000000000000000000000000000000000000000000000000600052602260045260246000fd5b7f4e487b7100000000000000000000000000000000000000000000000000000000600052603260045260246000fd5b7f4e487b7100000000000000000000000000000000000000000000000000000000600052604160045260246000fd5b600080fd5b600080fd5b600080fd5b600080fd5b600080fd5b6000601f19601f8301169050919050565b60008160601b9050919050565b7f537472696e67733a20686578206c656e67746820696e73756666696369656e74600082015250565b7f4f776e61626c653a206e6577206f776e657220697320746865207a65726f206160008201527f6464726573730000000000000000000000000000000000000000000000000000602082015250565b7f43616e6e6f74207374616b652030000000000000000000000000000000000000600082015250565b7f496e697469616c697a61626c653a20636f6e747261637420697320616c72656160008201527f647920696e697469616c697a6564000000000000000000000000000000000000602082015250565b7f4f776e61626c653a2063616c6c6572206973206e6f7420746865206f776e6572600082015250565b7f416363657373436f6e74726f6c3a206163636f756e7420000000000000000000600082015250565b7f206973206d697373696e6720726f6c6520000000000000000000000000000000600082015250565b7f416363657373436f6e74726f6c3a2063616e206f6e6c792072656e6f756e636560008201527f20726f6c657320666f722073656c660000000000000000000000000000000000602082015250565b620048508162004360565b81146200485c57600080fd5b50565b6200486a8162004374565b81146200487657600080fd5b50565b620048848162004380565b81146200489057600080fd5b50565b6200489e816200438a565b8114620048aa57600080fd5b50565b620048b881620043d6565b8114620048c457600080fd5b5056fe608060405234801561001057600080fd5b5061002d61002261003260201b60201c565b61003a60201b60201c565b6100fe565b600033905090565b60008060009054906101000a900473ffffffffffffffffffffffffffffffffffffffff169050816000806101000a81548173ffffffffffffffffffffffffffffffffffffffff021916908373ffffffffffffffffffffffffffffffffffffffff1602179055508173ffffffffffffffffffffffffffffffffffffffff168173ffffffffffffffffffffffffffffffffffffffff167f8be0079c531659141344cd1fd0a4f28419497f9722a3daafe3b4186f6b6457e060405160405180910390a35050565b610e568061010d6000396000f3fe608060405234801561001057600080fd5b50600436106100885760003560e01c80638da5cb5b1161005b5780638da5cb5b146101275780639b19251a14610145578063e2ec6ec314610175578063f2fde38b146101a557610088565b806324953eaa1461008d578063286dd3f5146100bd578063715018a6146100ed5780637b9417c8146100f7575b600080fd5b6100a760048036038101906100a29190610a0e565b6101c1565b6040516100b49190610ad6565b60405180910390f35b6100d760048036038101906100d291906109e1565b6102ab565b6040516100e49190610ad6565b60405180910390f35b6100f561042e565b005b610111600480360381019061010c91906109e1565b6104b6565b60405161011e9190610ad6565b60405180910390f35b61012f610637565b60405161013c9190610abb565b60405180910390f35b61015f600480360381019061015a91906109e1565b610660565b60405161016c9190610ad6565b60405180910390f35b61018f600480360381019061018a9190610a0e565b610680565b60405161019c9190610ad6565b60405180910390f35b6101bf60048036038101906101ba91906109e1565b61076a565b005b60006101cb610862565b73ffffffffffffffffffffffffffffffffffffffff166101e9610637565b73ffffffffffffffffffffffffffffffffffffffff161461023f576040517f08c379a000000000000000000000000000000000000000000000000000000000815260040161023690610b11565b60405180910390fd5b60005b82518110156102a55761026e83828151811061026157610260610d0e565b5b60200260200101516102ab565b15610292576001600260008282546102869190610be9565b92505081905550600191505b808061029d90610c96565b915050610242565b50919050565b60006102b5610862565b73ffffffffffffffffffffffffffffffffffffffff166102d3610637565b73ffffffffffffffffffffffffffffffffffffffff1614610329576040517f08c379a000000000000000000000000000000000000000000000000000000000815260040161032090610b11565b60405180910390fd5b600160008373ffffffffffffffffffffffffffffffffffffffff1673ffffffffffffffffffffffffffffffffffffffff16815260200190815260200160002060009054906101000a900460ff1615610429576000600160008473ffffffffffffffffffffffffffffffffffffffff1673ffffffffffffffffffffffffffffffffffffffff16815260200190815260200160002060006101000a81548160ff0219169083151502179055507ff1abf01a1043b7c244d128e8595cf0c1d10743b022b03a02dffd8ca3bf729f5a826040516104029190610abb565b60405180910390a160016002600082825461041d9190610be9565b92505081905550600190505b919050565b610436610862565b73ffffffffffffffffffffffffffffffffffffffff16610454610637565b73ffffffffffffffffffffffffffffffffffffffff16146104aa576040517f08c379a00000000000000000000000000000000000000000000000000000000081526004016104a190610b11565b60405180910390fd5b6104b4600061086a565b565b60006104c0610862565b73ffffffffffffffffffffffffffffffffffffffff166104de610637565b73ffffffffffffffffffffffffffffffffffffffff1614610534576040517f08c379a000000000000000000000000000000000000000000000000000000000815260040161052b90610b11565b60405180910390fd5b600160008373ffffffffffffffffffffffffffffffffffffffff1673ffffffffffffffffffffffffffffffffffffffff16815260200190815260200160002060009054906101000a900460ff166106325760018060008473ffffffffffffffffffffffffffffffffffffffff1673ffffffffffffffffffffffffffffffffffffffff16815260200190815260200160002060006101000a81548160ff0219169083151502179055507fd1bba68c128cc3f427e5831b3c6f99f480b6efa6b9e80c757768f6124158cc3f8260405161060b9190610abb565b60405180910390a16001600260008282546106269190610b93565b92505081905550600190505b919050565b60008060009054906101000a900473ffffffffffffffffffffffffffffffffffffffff16905090565b60016020528060005260406000206000915054906101000a900460ff1681565b600061068a610862565b73ffffffffffffffffffffffffffffffffffffffff166106a8610637565b73ffffffffffffffffffffffffffffffffffffffff16146106fe576040517f08c379a00000000000000000000000000000000000000000000000000000000081526004016106f590610b11565b60405180910390fd5b60005b82518110156107645761072d8382815181106107205761071f610d0e565b5b60200260200101516104b6565b15610751576001600260008282546107459190610b93565b92505081905550600191505b808061075c90610c96565b915050610701565b50919050565b610772610862565b73ffffffffffffffffffffffffffffffffffffffff16610790610637565b73ffffffffffffffffffffffffffffffffffffffff16146107e6576040517f08c379a00000000000000000000000000000000000000000000000000000000081526004016107dd90610b11565b60405180910390fd5b600073ffffffffffffffffffffffffffffffffffffffff168173ffffffffffffffffffffffffffffffffffffffff161415610856576040517f08c379a000000000000000000000000000000000000000000000000000000000815260040161084d90610af1565b60405180910390fd5b61085f8161086a565b50565b600033905090565b60008060009054906101000a900473ffffffffffffffffffffffffffffffffffffffff169050816000806101000a81548173ffffffffffffffffffffffffffffffffffffffff021916908373ffffffffffffffffffffffffffffffffffffffff1602179055508173ffffffffffffffffffffffffffffffffffffffff168173ffffffffffffffffffffffffffffffffffffffff167f8be0079c531659141344cd1fd0a4f28419497f9722a3daafe3b4186f6b6457e060405160405180910390a35050565b600061094161093c84610b56565b610b31565b9050808382526020820190508285602086028201111561096457610963610d71565b5b60005b85811015610994578161097a888261099e565b845260208401935060208301925050600181019050610967565b5050509392505050565b6000813590506109ad81610e09565b92915050565b600082601f8301126109c8576109c7610d6c565b5b81356109d884826020860161092e565b91505092915050565b6000602082840312156109f7576109f6610d7b565b5b6000610a058482850161099e565b91505092915050565b600060208284031215610a2457610a23610d7b565b5b600082013567ffffffffffffffff811115610a4257610a41610d76565b5b610a4e848285016109b3565b91505092915050565b610a6081610c1d565b82525050565b610a6f81610c2f565b82525050565b6000610a82602683610b82565b9150610a8d82610d91565b604082019050919050565b6000610aa5602083610b82565b9150610ab082610de0565b602082019050919050565b6000602082019050610ad06000830184610a57565b92915050565b6000602082019050610aeb6000830184610a66565b92915050565b60006020820190508181036000830152610b0a81610a75565b9050919050565b60006020820190508181036000830152610b2a81610a98565b9050919050565b6000610b3b610b4c565b9050610b478282610c65565b919050565b6000604051905090565b600067ffffffffffffffff821115610b7157610b70610d3d565b5b602082029050602081019050919050565b600082825260208201905092915050565b6000610b9e82610c5b565b9150610ba983610c5b565b9250827fffffffffffffffffffffffffffffffffffffffffffffffffffffffffffffffff03821115610bde57610bdd610cdf565b5b828201905092915050565b6000610bf482610c5b565b9150610bff83610c5b565b925082821015610c1257610c11610cdf565b5b828203905092915050565b6000610c2882610c3b565b9050919050565b60008115159050919050565b600073ffffffffffffffffffffffffffffffffffffffff82169050919050565b6000819050919050565b610c6e82610d80565b810181811067ffffffffffffffff82111715610c8d57610c8c610d3d565b5b80604052505050565b6000610ca182610c5b565b91507fffffffffffffffffffffffffffffffffffffffffffffffffffffffffffffffff821415610cd457610cd3610cdf565b5b600182019050919050565b7f4e487b7100000000000000000000000000000000000000000000000000000000600052601160045260246000fd5b7f4e487b7100000000000000000000000000000000000000000000000000000000600052603260045260246000fd5b7f4e487b7100000000000000000000000000000000000000000000000000000000600052604160045260246000fd5b600080fd5b600080fd5b600080fd5b600080fd5b6000601f19601f8301169050919050565b7f4f776e61626c653a206e6577206f776e657220697320746865207a65726f206160008201527f6464726573730000000000000000000000000000000000000000000000000000602082015250565b7f4f776e61626c653a2063616c6c6572206973206e6f7420746865206f776e6572600082015250565b610e1281610c1d565b8114610e1d57600080fd5b5056fea264697066735822122028f537dd9b5fe894d1477bbddc996ce32a420981c0b41afd39c00eed7de828ef64736f6c63430008070033746f6f206d616e7920757365727320696e206c656167756520746f20616464206e65772075736572a2646970667358221220f44cd1a71228c5f704d7dc5e13c53f813eaa751d1057d563e44e05b6491d9b0564736f6c63430008070033",
  "linkReferences": {},
  "deployedLinkReferences": {}
}