{
  "_format": "hh-sol-artifact-1",
  "contractName": "TestUSDC",
  "sourceName": "contracts/TestUSDC.sol",
  "abi": [
    {
      "inputs": [],
      "stateMutability": "nonpayable",
      "type": "constructor"
    },
    {
      "anonymous": false,
      "inputs": [
        {
          "indexed": true,
          "internalType": "address",
          "name": "owner",
          "type": "address"
        },
        {
          "indexed": true,
          "internalType": "address",
          "name": "spender",
          "type": "address"
        },
        {
          "indexed": false,
          "internalType": "uint256",
          "name": "value",
          "type": "uint256"
        }
      ],
      "name": "Approval",
      "type": "event"
    },
    {
      "anonymous": false,
      "inputs": [
        {
          "indexed": true,
          "internalType": "address",
          "name": "from",
          "type": "address"
        },
        {
          "indexed": true,
          "internalType": "address",
          "name": "to",
          "type": "address"
        },
        {
          "indexed": false,
          "internalType": "uint256",
          "name": "value",
          "type": "uint256"
        }
      ],
      "name": "Transfer",
      "type": "event"
    },
    {
      "inputs": [
        {
          "internalType": "address",
          "name": "owner",
          "type": "address"
        },
        {
          "internalType": "address",
          "name": "spender",
          "type": "address"
        }
      ],
      "name": "allowance",
      "outputs": [
        {
          "internalType": "uint256",
          "name": "",
          "type": "uint256"
        }
      ],
      "stateMutability": "view",
      "type": "function"
    },
    {
      "inputs": [
        {
          "internalType": "address",
          "name": "spender",
          "type": "address"
        },
        {
          "internalType": "uint256",
          "name": "amount",
          "type": "uint256"
        }
      ],
      "name": "approve",
      "outputs": [
        {
          "internalType": "bool",
          "name": "",
          "type": "bool"
        }
      ],
      "stateMutability": "nonpayable",
      "type": "function"
    },
    {
      "inputs": [
        {
          "internalType": "address",
          "name": "account",
          "type": "address"
        }
      ],
      "name": "balanceOf",
      "outputs": [
        {
          "internalType": "uint256",
          "name": "",
          "type": "uint256"
        }
      ],
      "stateMutability": "view",
      "type": "function"
    },
    {
      "inputs": [],
      "name": "createSupply",
      "outputs": [],
      "stateMutability": "nonpayable",
      "type": "function"
    },
    {
      "inputs": [],
      "name": "decimals",
      "outputs": [
        {
          "internalType": "uint8",
          "name": "",
          "type": "uint8"
        }
      ],
      "stateMutability": "view",
      "type": "function"
    },
    {
      "inputs": [
        {
          "internalType": "address",
          "name": "spender",
          "type": "address"
        },
        {
          "internalType": "uint256",
          "name": "subtractedValue",
          "type": "uint256"
        }
      ],
      "name": "decreaseAllowance",
      "outputs": [
        {
          "internalType": "bool",
          "name": "",
          "type": "bool"
        }
      ],
      "stateMutability": "nonpayable",
      "type": "function"
    },
    {
      "inputs": [
        {
          "internalType": "address",
          "name": "spender",
          "type": "address"
        },
        {
          "internalType": "uint256",
          "name": "addedValue",
          "type": "uint256"
        }
      ],
      "name": "increaseAllowance",
      "outputs": [
        {
          "internalType": "bool",
          "name": "",
          "type": "bool"
        }
      ],
      "stateMutability": "nonpayable",
      "type": "function"
    },
    {
      "inputs": [],
      "name": "name",
      "outputs": [
        {
          "internalType": "string",
          "name": "",
          "type": "string"
        }
      ],
      "stateMutability": "view",
      "type": "function"
    },
    {
      "inputs": [],
      "name": "symbol",
      "outputs": [
        {
          "internalType": "string",
          "name": "",
          "type": "string"
        }
      ],
      "stateMutability": "view",
      "type": "function"
    },
    {
      "inputs": [],
      "name": "totalSupply",
      "outputs": [
        {
          "internalType": "uint256",
          "name": "",
          "type": "uint256"
        }
      ],
      "stateMutability": "view",
      "type": "function"
    },
    {
      "inputs": [
        {
          "internalType": "address",
          "name": "recipient",
          "type": "address"
        },
        {
          "internalType": "uint256",
          "name": "amount",
          "type": "uint256"
        }
      ],
      "name": "transfer",
      "outputs": [
        {
          "internalType": "bool",
          "name": "",
          "type": "bool"
        }
      ],
      "stateMutability": "nonpayable",
      "type": "function"
    },
    {
      "inputs": [
        {
          "internalType": "address",
          "name": "sender",
          "type": "address"
        },
        {
          "internalType": "address",
          "name": "recipient",
          "type": "address"
        },
        {
          "internalType": "uint256",
          "name": "amount",
          "type": "uint256"
        }
      ],
      "name": "transferFrom",
      "outputs": [
        {
          "internalType": "bool",
          "name": "",
          "type": "bool"
        }
      ],
      "stateMutability": "nonpayable",
      "type": "function"
    }
  ],
  "bytecode": "0x60806040523480156200001157600080fd5b506040518060400160405280601081526020017f546573742052696e6b65792055534443000000000000000000000000000000008152506040518060400160405280600581526020017f54555344430000000000000000000000000000000000000000000000000000008152508160039080519060200190620000969291906200024e565b508060049080519060200190620000af9291906200024e565b505050620000c5336064620000cb60201b60201c565b620004aa565b600073ffffffffffffffffffffffffffffffffffffffff168273ffffffffffffffffffffffffffffffffffffffff1614156200013e576040517f08c379a0000000000000000000000000000000000000000000000000000000008152600401620001359062000336565b60405180910390fd5b62000152600083836200024460201b60201c565b806002600082825462000166919062000386565b92505081905550806000808473ffffffffffffffffffffffffffffffffffffffff1673ffffffffffffffffffffffffffffffffffffffff1681526020019081526020016000206000828254620001bd919062000386565b925050819055508173ffffffffffffffffffffffffffffffffffffffff16600073ffffffffffffffffffffffffffffffffffffffff167fddf252ad1be2c89b69c2b068fc378daa952ba7f163c4a11628f55a4df523b3ef8360405162000224919062000358565b60405180910390a362000240600083836200024960201b60201c565b5050565b505050565b505050565b8280546200025c90620003ed565b90600052602060002090601f016020900481019282620002805760008555620002cc565b82601f106200029b57805160ff1916838001178555620002cc565b82800160010185558215620002cc579182015b82811115620002cb578251825591602001919060010190620002ae565b5b509050620002db9190620002df565b5090565b5b80821115620002fa576000816000905550600101620002e0565b5090565b60006200030d601f8362000375565b91506200031a8262000481565b602082019050919050565b6200033081620003e3565b82525050565b600060208201905081810360008301526200035181620002fe565b9050919050565b60006020820190506200036f600083018462000325565b92915050565b600082825260208201905092915050565b60006200039382620003e3565b9150620003a083620003e3565b9250827fffffffffffffffffffffffffffffffffffffffffffffffffffffffffffffffff03821115620003d857620003d762000423565b5b828201905092915050565b6000819050919050565b600060028204905060018216806200040657607f821691505b602082108114156200041d576200041c62000452565b5b50919050565b7f4e487b7100000000000000000000000000000000000000000000000000000000600052601160045260246000fd5b7f4e487b7100000000000000000000000000000000000000000000000000000000600052602260045260246000fd5b7f45524332303a206d696e7420746f20746865207a65726f206164647265737300600082015250565b61159980620004ba6000396000f3fe608060405234801561001057600080fd5b50600436106100b45760003560e01c80635daad572116100715780635daad572146101a357806370a08231146101ad57806395d89b41146101dd578063a457c2d7146101fb578063a9059cbb1461022b578063dd62ed3e1461025b576100b4565b806306fdde03146100b9578063095ea7b3146100d757806318160ddd1461010757806323b872dd14610125578063313ce567146101555780633950935114610173575b600080fd5b6100c161028b565b6040516100ce9190610feb565b60405180910390f35b6100f160048036038101906100ec9190610e12565b61031d565b6040516100fe9190610fd0565b60405180910390f35b61010f61033b565b60405161011c919061110d565b60405180910390f35b61013f600480360381019061013a9190610dbf565b610345565b60405161014c9190610fd0565b60405180910390f35b61015d61043d565b60405161016a9190611128565b60405180910390f35b61018d60048036038101906101889190610e12565b610446565b60405161019a9190610fd0565b60405180910390f35b6101ab6104f2565b005b6101c760048036038101906101c29190610d52565b610500565b6040516101d4919061110d565b60405180910390f35b6101e5610548565b6040516101f29190610feb565b60405180910390f35b61021560048036038101906102109190610e12565b6105da565b6040516102229190610fd0565b60405180910390f35b61024560048036038101906102409190610e12565b6106c5565b6040516102529190610fd0565b60405180910390f35b61027560048036038101906102709190610d7f565b6106e3565b604051610282919061110d565b60405180910390f35b60606003805461029a9061123d565b80601f01602080910402602001604051908101604052809291908181526020018280546102c69061123d565b80156103135780601f106102e857610100808354040283529160200191610313565b820191906000526020600020905b8154815290600101906020018083116102f657829003601f168201915b5050505050905090565b600061033161032a61076a565b8484610772565b6001905092915050565b6000600254905090565b600061035284848461093d565b6000600160008673ffffffffffffffffffffffffffffffffffffffff1673ffffffffffffffffffffffffffffffffffffffff168152602001908152602001600020600061039d61076a565b73ffffffffffffffffffffffffffffffffffffffff1673ffffffffffffffffffffffffffffffffffffffff1681526020019081526020016000205490508281101561041d576040517f08c379a00000000000000000000000000000000000000000000000000000000081526004016104149061106d565b60405180910390fd5b6104318561042961076a565b858403610772565b60019150509392505050565b60006012905090565b60006104e861045361076a565b84846001600061046161076a565b73ffffffffffffffffffffffffffffffffffffffff1673ffffffffffffffffffffffffffffffffffffffff16815260200190815260200160002060008873ffffffffffffffffffffffffffffffffffffffff1673ffffffffffffffffffffffffffffffffffffffff168152602001908152602001600020546104e3919061115f565b610772565b6001905092915050565b6104fe336103e8610bbe565b565b60008060008373ffffffffffffffffffffffffffffffffffffffff1673ffffffffffffffffffffffffffffffffffffffff168152602001908152602001600020549050919050565b6060600480546105579061123d565b80601f01602080910402602001604051908101604052809291908181526020018280546105839061123d565b80156105d05780601f106105a5576101008083540402835291602001916105d0565b820191906000526020600020905b8154815290600101906020018083116105b357829003601f168201915b5050505050905090565b600080600160006105e961076a565b73ffffffffffffffffffffffffffffffffffffffff1673ffffffffffffffffffffffffffffffffffffffff16815260200190815260200160002060008573ffffffffffffffffffffffffffffffffffffffff1673ffffffffffffffffffffffffffffffffffffffff168152602001908152602001600020549050828110156106a6576040517f08c379a000000000000000000000000000000000000000000000000000000000815260040161069d906110cd565b60405180910390fd5b6106ba6106b161076a565b85858403610772565b600191505092915050565b60006106d96106d261076a565b848461093d565b6001905092915050565b6000600160008473ffffffffffffffffffffffffffffffffffffffff1673ffffffffffffffffffffffffffffffffffffffff16815260200190815260200160002060008373ffffffffffffffffffffffffffffffffffffffff1673ffffffffffffffffffffffffffffffffffffffff16815260200190815260200160002054905092915050565b600033905090565b600073ffffffffffffffffffffffffffffffffffffffff168373ffffffffffffffffffffffffffffffffffffffff1614156107e2576040517f08c379a00000000000000000000000000000000000000000000000000000000081526004016107d9906110ad565b60405180910390fd5b600073ffffffffffffffffffffffffffffffffffffffff168273ffffffffffffffffffffffffffffffffffffffff161415610852576040517f08c379a00000000000000000000000000000000000000000000000000000000081526004016108499061102d565b60405180910390fd5b80600160008573ffffffffffffffffffffffffffffffffffffffff1673ffffffffffffffffffffffffffffffffffffffff16815260200190815260200160002060008473ffffffffffffffffffffffffffffffffffffffff1673ffffffffffffffffffffffffffffffffffffffff168152602001908152602001600020819055508173ffffffffffffffffffffffffffffffffffffffff168373ffffffffffffffffffffffffffffffffffffffff167f8c5be1e5ebec7d5bd14f71427d1e84f3dd0314c0f7b2291e5b200ac8c7c3b92583604051610930919061110d565b60405180910390a3505050565b600073ffffffffffffffffffffffffffffffffffffffff168373ffffffffffffffffffffffffffffffffffffffff1614156109ad576040517f08c379a00000000000000000000000000000000000000000000000000000000081526004016109a49061108d565b60405180910390fd5b600073ffffffffffffffffffffffffffffffffffffffff168273ffffffffffffffffffffffffffffffffffffffff161415610a1d576040517f08c379a0000000000000000000000000000000000000000000000000000000008152600401610a149061100d565b60405180910390fd5b610a28838383610d1e565b60008060008573ffffffffffffffffffffffffffffffffffffffff1673ffffffffffffffffffffffffffffffffffffffff16815260200190815260200160002054905081811015610aae576040517f08c379a0000000000000000000000000000000000000000000000000000000008152600401610aa59061104d565b60405180910390fd5b8181036000808673ffffffffffffffffffffffffffffffffffffffff1673ffffffffffffffffffffffffffffffffffffffff16815260200190815260200160002081905550816000808573ffffffffffffffffffffffffffffffffffffffff1673ffffffffffffffffffffffffffffffffffffffff1681526020019081526020016000206000828254610b41919061115f565b925050819055508273ffffffffffffffffffffffffffffffffffffffff168473ffffffffffffffffffffffffffffffffffffffff167fddf252ad1be2c89b69c2b068fc378daa952ba7f163c4a11628f55a4df523b3ef84604051610ba5919061110d565b60405180910390a3610bb8848484610d23565b50505050565b600073ffffffffffffffffffffffffffffffffffffffff168273ffffffffffffffffffffffffffffffffffffffff161415610c2e576040517f08c379a0000000000000000000000000000000000000000000000000000000008152600401610c25906110ed565b60405180910390fd5b610c3a60008383610d1e565b8060026000828254610c4c919061115f565b92505081905550806000808473ffffffffffffffffffffffffffffffffffffffff1673ffffffffffffffffffffffffffffffffffffffff1681526020019081526020016000206000828254610ca1919061115f565b925050819055508173ffffffffffffffffffffffffffffffffffffffff16600073ffffffffffffffffffffffffffffffffffffffff167fddf252ad1be2c89b69c2b068fc378daa952ba7f163c4a11628f55a4df523b3ef83604051610d06919061110d565b60405180910390a3610d1a60008383610d23565b5050565b505050565b505050565b600081359050610d3781611535565b92915050565b600081359050610d4c8161154c565b92915050565b600060208284031215610d6857610d676112cd565b5b6000610d7684828501610d28565b91505092915050565b60008060408385031215610d9657610d956112cd565b5b6000610da485828601610d28565b9250506020610db585828601610d28565b9150509250929050565b600080600060608486031215610dd857610dd76112cd565b5b6000610de686828701610d28565b9350506020610df786828701610d28565b9250506040610e0886828701610d3d565b9150509250925092565b60008060408385031215610e2957610e286112cd565b5b6000610e3785828601610d28565b9250506020610e4885828601610d3d565b9150509250929050565b610e5b816111c7565b82525050565b6000610e6c82611143565b610e76818561114e565b9350610e8681856020860161120a565b610e8f816112d2565b840191505092915050565b6000610ea760238361114e565b9150610eb2826112e3565b604082019050919050565b6000610eca60228361114e565b9150610ed582611332565b604082019050919050565b6000610eed60268361114e565b9150610ef882611381565b604082019050919050565b6000610f1060288361114e565b9150610f1b826113d0565b604082019050919050565b6000610f3360258361114e565b9150610f3e8261141f565b604082019050919050565b6000610f5660248361114e565b9150610f618261146e565b604082019050919050565b6000610f7960258361114e565b9150610f84826114bd565b604082019050919050565b6000610f9c601f8361114e565b9150610fa78261150c565b602082019050919050565b610fbb816111f3565b82525050565b610fca816111fd565b82525050565b6000602082019050610fe56000830184610e52565b92915050565b600060208201905081810360008301526110058184610e61565b905092915050565b6000602082019050818103600083015261102681610e9a565b9050919050565b6000602082019050818103600083015261104681610ebd565b9050919050565b6000602082019050818103600083015261106681610ee0565b9050919050565b6000602082019050818103600083015261108681610f03565b9050919050565b600060208201905081810360008301526110a681610f26565b9050919050565b600060208201905081810360008301526110c681610f49565b9050919050565b600060208201905081810360008301526110e681610f6c565b9050919050565b6000602082019050818103600083015261110681610f8f565b9050919050565b60006020820190506111226000830184610fb2565b92915050565b600060208201905061113d6000830184610fc1565b92915050565b600081519050919050565b600082825260208201905092915050565b600061116a826111f3565b9150611175836111f3565b9250827fffffffffffffffffffffffffffffffffffffffffffffffffffffffffffffffff038211156111aa576111a961126f565b5b828201905092915050565b60006111c0826111d3565b9050919050565b60008115159050919050565b600073ffffffffffffffffffffffffffffffffffffffff82169050919050565b6000819050919050565b600060ff82169050919050565b60005b8381101561122857808201518184015260208101905061120d565b83811115611237576000848401525b50505050565b6000600282049050600182168061125557607f821691505b602082108114156112695761126861129e565b5b50919050565b7f4e487b7100000000000000000000000000000000000000000000000000000000600052601160045260246000fd5b7f4e487b7100000000000000000000000000000000000000000000000000000000600052602260045260246000fd5b600080fd5b6000601f19601f8301169050919050565b7f45524332303a207472616e7366657220746f20746865207a65726f206164647260008201527f6573730000000000000000000000000000000000000000000000000000000000602082015250565b7f45524332303a20617070726f766520746f20746865207a65726f20616464726560008201527f7373000000000000000000000000000000000000000000000000000000000000602082015250565b7f45524332303a207472616e7366657220616d6f756e742065786365656473206260008201527f616c616e63650000000000000000000000000000000000000000000000000000602082015250565b7f45524332303a207472616e7366657220616d6f756e742065786365656473206160008201527f6c6c6f77616e6365000000000000000000000000000000000000000000000000602082015250565b7f45524332303a207472616e736665722066726f6d20746865207a65726f20616460008201527f6472657373000000000000000000000000000000000000000000000000000000602082015250565b7f45524332303a20617070726f76652066726f6d20746865207a65726f2061646460008201527f7265737300000000000000000000000000000000000000000000000000000000602082015250565b7f45524332303a2064656372656173656420616c6c6f77616e63652062656c6f7760008201527f207a65726f000000000000000000000000000000000000000000000000000000602082015250565b7f45524332303a206d696e7420746f20746865207a65726f206164647265737300600082015250565b61153e816111b5565b811461154957600080fd5b50565b611555816111f3565b811461156057600080fd5b5056fea2646970667358221220c6a176968e88026058f05a05b83092c5a554214956a8b3dad2a5e0c0f948655164736f6c63430008070033",
  "linkReferences": {},
  "deployedLinkReferences": {}
}