{
  "_format": "hh-sol-artifact-1",
  "contractName": "MOBALogicHelper",
  "sourceName": "contracts/MOBALogicHelper.sol",
  "abi": [
    {
      "anonymous": false,
      "inputs": [
        {
          "indexed": true,
          "internalType": "address",
          "name": "previousOwner",
          "type": "address"
        },
        {
          "indexed": true,
          "internalType": "address",
          "name": "newOwner",
          "type": "address"
        }
      ],
      "name": "OwnershipTransferred",
      "type": "event"
    },
    {
      "anonymous": false,
      "inputs": [
        {
          "indexed": true,
          "internalType": "bytes32",
          "name": "role",
          "type": "bytes32"
        },
        {
          "indexed": true,
          "internalType": "bytes32",
          "name": "previousAdminRole",
          "type": "bytes32"
        },
        {
          "indexed": true,
          "internalType": "bytes32",
          "name": "newAdminRole",
          "type": "bytes32"
        }
      ],
      "name": "RoleAdminChanged",
      "type": "event"
    },
    {
      "anonymous": false,
      "inputs": [
        {
          "indexed": true,
          "internalType": "bytes32",
          "name": "role",
          "type": "bytes32"
        },
        {
          "indexed": true,
          "internalType": "address",
          "name": "account",
          "type": "address"
        },
        {
          "indexed": true,
          "internalType": "address",
          "name": "sender",
          "type": "address"
        }
      ],
      "name": "RoleGranted",
      "type": "event"
    },
    {
      "anonymous": false,
      "inputs": [
        {
          "indexed": true,
          "internalType": "bytes32",
          "name": "role",
          "type": "bytes32"
        },
        {
          "indexed": true,
          "internalType": "address",
          "name": "account",
          "type": "address"
        },
        {
          "indexed": true,
          "internalType": "address",
          "name": "sender",
          "type": "address"
        }
      ],
      "name": "RoleRevoked",
      "type": "event"
    },
    {
      "anonymous": false,
      "inputs": [
        {
          "indexed": false,
          "internalType": "address",
          "name": "addr",
          "type": "address"
        }
      ],
      "name": "WhitelistedAddressAdded",
      "type": "event"
    },
    {
      "anonymous": false,
      "inputs": [
        {
          "indexed": false,
          "internalType": "address",
          "name": "addr",
          "type": "address"
        }
      ],
      "name": "WhitelistedAddressRemoved",
      "type": "event"
    },
    {
      "inputs": [],
      "name": "DEFAULT_ADMIN_ROLE",
      "outputs": [
        {
          "internalType": "bytes32",
          "name": "",
          "type": "bytes32"
        }
      ],
      "stateMutability": "view",
      "type": "function"
    },
    {
      "inputs": [
        {
          "internalType": "address",
          "name": "addr",
          "type": "address"
        }
      ],
      "name": "addAddressToWhitelist",
      "outputs": [
        {
          "internalType": "bool",
          "name": "success",
          "type": "bool"
        }
      ],
      "stateMutability": "nonpayable",
      "type": "function"
    },
    {
      "inputs": [
        {
          "internalType": "address[]",
          "name": "addrs",
          "type": "address[]"
        }
      ],
      "name": "addAddressesToWhitelist",
      "outputs": [
        {
          "internalType": "bool",
          "name": "success",
          "type": "bool"
        }
      ],
      "stateMutability": "nonpayable",
      "type": "function"
    },
    {
      "inputs": [
        {
          "internalType": "uint256[8]",
          "name": "matchupPlayerIndices",
          "type": "uint256[8]"
        },
        {
          "internalType": "address[]",
          "name": "leagueMembers",
          "type": "address[]"
        },
        {
          "internalType": "uint256",
          "name": "week",
          "type": "uint256"
        },
        {
          "internalType": "uint256",
          "name": "i",
          "type": "uint256"
        }
      ],
      "name": "generateWeekMatchups",
      "outputs": [
        {
          "internalType": "address",
          "name": "",
          "type": "address"
        },
        {
          "internalType": "address",
          "name": "",
          "type": "address"
        }
      ],
      "stateMutability": "nonpayable",
      "type": "function"
    },
    {
      "inputs": [
        {
          "internalType": "bytes32",
          "name": "role",
          "type": "bytes32"
        }
      ],
      "name": "getRoleAdmin",
      "outputs": [
        {
          "internalType": "bytes32",
          "name": "",
          "type": "bytes32"
        }
      ],
      "stateMutability": "view",
      "type": "function"
    },
    {
      "inputs": [
        {
          "internalType": "bytes32",
          "name": "role",
          "type": "bytes32"
        },
        {
          "internalType": "address",
          "name": "account",
          "type": "address"
        }
      ],
      "name": "grantRole",
      "outputs": [],
      "stateMutability": "nonpayable",
      "type": "function"
    },
    {
      "inputs": [
        {
          "internalType": "bytes32",
          "name": "role",
          "type": "bytes32"
        },
        {
          "internalType": "address",
          "name": "account",
          "type": "address"
        }
      ],
      "name": "hasRole",
      "outputs": [
        {
          "internalType": "bool",
          "name": "",
          "type": "bool"
        }
      ],
      "stateMutability": "view",
      "type": "function"
    },
    {
      "inputs": [],
      "name": "isPublic",
      "outputs": [
        {
          "internalType": "bool",
          "name": "",
          "type": "bool"
        }
      ],
      "stateMutability": "view",
      "type": "function"
    },
    {
      "inputs": [],
      "name": "owner",
      "outputs": [
        {
          "internalType": "address",
          "name": "",
          "type": "address"
        }
      ],
      "stateMutability": "view",
      "type": "function"
    },
    {
      "inputs": [
        {
          "internalType": "address",
          "name": "addr",
          "type": "address"
        }
      ],
      "name": "removeAddressFromWhitelist",
      "outputs": [
        {
          "internalType": "bool",
          "name": "success",
          "type": "bool"
        }
      ],
      "stateMutability": "nonpayable",
      "type": "function"
    },
    {
      "inputs": [
        {
          "internalType": "address[]",
          "name": "addrs",
          "type": "address[]"
        }
      ],
      "name": "removeAddressesFromWhitelist",
      "outputs": [
        {
          "internalType": "bool",
          "name": "success",
          "type": "bool"
        }
      ],
      "stateMutability": "nonpayable",
      "type": "function"
    },
    {
      "inputs": [],
      "name": "renounceOwnership",
      "outputs": [],
      "stateMutability": "nonpayable",
      "type": "function"
    },
    {
      "inputs": [
        {
          "internalType": "bytes32",
          "name": "role",
          "type": "bytes32"
        },
        {
          "internalType": "address",
          "name": "account",
          "type": "address"
        }
      ],
      "name": "renounceRole",
      "outputs": [],
      "stateMutability": "nonpayable",
      "type": "function"
    },
    {
      "inputs": [
        {
          "internalType": "bytes32",
          "name": "role",
          "type": "bytes32"
        },
        {
          "internalType": "address",
          "name": "account",
          "type": "address"
        }
      ],
      "name": "revokeRole",
      "outputs": [],
      "stateMutability": "nonpayable",
      "type": "function"
    },
    {
      "inputs": [
        {
          "internalType": "uint256[8]",
          "name": "matchupPlayerIndices",
          "type": "uint256[8]"
        },
        {
          "internalType": "uint256",
          "name": "numOfLeagueMembers",
          "type": "uint256"
        },
        {
          "internalType": "uint256",
          "name": "week",
          "type": "uint256"
        },
        {
          "internalType": "string",
          "name": "leagueName",
          "type": "string"
        }
      ],
      "name": "setMatchupPlayerIndices",
      "outputs": [
        {
          "internalType": "uint256[8]",
          "name": "",
          "type": "uint256[8]"
        }
      ],
      "stateMutability": "nonpayable",
      "type": "function"
    },
    {
      "inputs": [
        {
          "internalType": "bytes4",
          "name": "interfaceId",
          "type": "bytes4"
        }
      ],
      "name": "supportsInterface",
      "outputs": [
        {
          "internalType": "bool",
          "name": "",
          "type": "bool"
        }
      ],
      "stateMutability": "view",
      "type": "function"
    },
    {
      "inputs": [
        {
          "internalType": "address",
          "name": "newOwner",
          "type": "address"
        }
      ],
      "name": "transferOwnership",
      "outputs": [],
      "stateMutability": "nonpayable",
      "type": "function"
    },
    {
      "inputs": [
        {
          "internalType": "address",
          "name": "",
          "type": "address"
        }
      ],
      "name": "whitelist",
      "outputs": [
        {
          "internalType": "bool",
          "name": "",
          "type": "bool"
        }
      ],
      "stateMutability": "view",
      "type": "function"
    }
  ],
  "bytecode": "0x60806040523480156200001157600080fd5b5062000032620000266200003860201b60201c565b6200004060201b60201c565b62000105565b600033905090565b60008060029054906101000a900473ffffffffffffffffffffffffffffffffffffffff16905081600060026101000a81548173ffffffffffffffffffffffffffffffffffffffff021916908373ffffffffffffffffffffffffffffffffffffffff1602179055508173ffffffffffffffffffffffffffffffffffffffff168173ffffffffffffffffffffffffffffffffffffffff167f8be0079c531659141344cd1fd0a4f28419497f9722a3daafe3b4186f6b6457e060405160405180910390a35050565b61282680620001156000396000f3fe608060405234801561001057600080fd5b50600436106101165760003560e01c806391d14854116100a2578063d547741f11610071578063d547741f14610319578063dc9a153514610335578063e2ec6ec314610353578063f2fde38b14610383578063f4acfcb81461039f57610116565b806391d148541461026b5780639b19251a1461029b578063a217fddf146102cb578063b52aa76e146102e957610116565b80632f2ff15d116100e95780632f2ff15d146101db57806336568abe146101f7578063715018a6146102135780637b9417c81461021d5780638da5cb5b1461024d57610116565b806301ffc9a71461011b578063248a9ca31461014b57806324953eaa1461017b578063286dd3f5146101ab575b600080fd5b61013560048036038101906101309190611d97565b6103d0565b60405161014291906120e4565b60405180910390f35b61016560048036038101906101609190611d2a565b61044a565b60405161017291906120ff565b60405180910390f35b61019560048036038101906101909190611bc9565b61046a565b6040516101a291906120e4565b60405180910390f35b6101c560048036038101906101c09190611b9c565b610554565b6040516101d291906120e4565b60405180910390f35b6101f560048036038101906101f09190611d57565b6106d7565b005b610211600480360381019061020c9190611d57565b610700565b005b61021b610783565b005b61023760048036038101906102329190611b9c565b61080b565b60405161024491906120e4565b60405180910390f35b61025561098d565b6040516102629190612084565b60405180910390f35b61028560048036038101906102809190611d57565b6109b6565b60405161029291906120e4565b60405180910390f35b6102b560048036038101906102b09190611b9c565b610a21565b6040516102c291906120e4565b60405180910390f35b6102d3610a41565b6040516102e091906120ff565b60405180910390f35b61030360048036038101906102fe9190611c9e565b610a48565b60405161031091906120c8565b60405180910390f35b610333600480360381019061032e9190611d57565b610cf8565b005b61033d610d21565b60405161034a91906120e4565b60405180910390f35b61036d60048036038101906103689190611bc9565b610d34565b60405161037a91906120e4565b60405180910390f35b61039d60048036038101906103989190611b9c565b610e1e565b005b6103b960048036038101906103b49190611c12565b610f16565b6040516103c792919061209f565b60405180910390f35b60007f7965db0b000000000000000000000000000000000000000000000000000000007bffffffffffffffffffffffffffffffffffffffffffffffffffffffff1916827bffffffffffffffffffffffffffffffffffffffffffffffffffffffff19161480610443575061044282611293565b5b9050919050565b600060016000838152602001908152602001600020600101549050919050565b60006104746112fd565b73ffffffffffffffffffffffffffffffffffffffff1661049261098d565b73ffffffffffffffffffffffffffffffffffffffff16146104e8576040517f08c379a00000000000000000000000000000000000000000000000000000000081526004016104df9061217c565b60405180910390fd5b60005b825181101561054e5761051783828151811061050a576105096125bd565b5b6020026020010151610554565b1561053b5760016003600082825461052f9190612368565b92505081905550600191505b8080610546906124b7565b9150506104eb565b50919050565b600061055e6112fd565b73ffffffffffffffffffffffffffffffffffffffff1661057c61098d565b73ffffffffffffffffffffffffffffffffffffffff16146105d2576040517f08c379a00000000000000000000000000000000000000000000000000000000081526004016105c99061217c565b60405180910390fd5b600260008373ffffffffffffffffffffffffffffffffffffffff1673ffffffffffffffffffffffffffffffffffffffff16815260200190815260200160002060009054906101000a900460ff16156106d2576000600260008473ffffffffffffffffffffffffffffffffffffffff1673ffffffffffffffffffffffffffffffffffffffff16815260200190815260200160002060006101000a81548160ff0219169083151502179055507ff1abf01a1043b7c244d128e8595cf0c1d10743b022b03a02dffd8ca3bf729f5a826040516106ab9190612084565b60405180910390a16001600360008282546106c69190612368565b92505081905550600190505b919050565b6106e08261044a565b6106f1816106ec6112fd565b611305565b6106fb83836113a2565b505050565b6107086112fd565b73ffffffffffffffffffffffffffffffffffffffff168173ffffffffffffffffffffffffffffffffffffffff1614610775576040517f08c379a000000000000000000000000000000000000000000000000000000000815260040161076c9061219c565b60405180910390fd5b61077f8282611482565b5050565b61078b6112fd565b73ffffffffffffffffffffffffffffffffffffffff166107a961098d565b73ffffffffffffffffffffffffffffffffffffffff16146107ff576040517f08c379a00000000000000000000000000000000000000000000000000000000081526004016107f69061217c565b60405180910390fd5b6108096000611564565b565b60006108156112fd565b73ffffffffffffffffffffffffffffffffffffffff1661083361098d565b73ffffffffffffffffffffffffffffffffffffffff1614610889576040517f08c379a00000000000000000000000000000000000000000000000000000000081526004016108809061217c565b60405180910390fd5b600260008373ffffffffffffffffffffffffffffffffffffffff1673ffffffffffffffffffffffffffffffffffffffff16815260200190815260200160002060009054906101000a900460ff16610988576001600260008473ffffffffffffffffffffffffffffffffffffffff1673ffffffffffffffffffffffffffffffffffffffff16815260200190815260200160002060006101000a81548160ff0219169083151502179055507fd1bba68c128cc3f427e5831b3c6f99f480b6efa6b9e80c757768f6124158cc3f826040516109619190612084565b60405180910390a160016003600082825461097c9190612287565b92505081905550600190505b919050565b60008060029054906101000a900473ffffffffffffffffffffffffffffffffffffffff16905090565b60006001600084815260200190815260200160002060000160008373ffffffffffffffffffffffffffffffffffffffff1673ffffffffffffffffffffffffffffffffffffffff16815260200190815260200160002060009054906101000a900460ff16905092915050565b60026020528060005260406000206000915054906101000a900460ff1681565b6000801b81565b610a50611927565b610a8e6040518060400160405280601081526020017f73657474696e67207363686564756c6500000000000000000000000000000000815250611629565b60008586610a9c919061230e565b4233448787604051602001610ab5959493929190612038565b6040516020818303038152906040528051906020012060001c610ad89190612287565b9050600080600288610aea919061252e565b14610b0457600187610afc9190612287565b905080610b09565b869050805b50600088600460088110610b2057610b1f6125bd565b5b6020020151905060005b600283610b3791906122dd565b811015610caa576000881415610bed57808a600285610b5691906122dd565b8684610b629190612287565b610b6c919061252e565b60088110610b7d57610b7c6125bd565b5b602002018181525050600283610b9391906122dd565b81610b9e9190612287565b8a6004600286610bae91906122dd565b8785610bba9190612287565b610bc4919061252e565b610bce9190612287565b60088110610bdf57610bde6125bd565b5b602002018181525050610c97565b60008a8260088110610c0257610c016125bd565b5b60200201519050808b600484610c189190612287565b60088110610c2957610c286125bd565b5b6020020181815250508a6004600286610c4291906122dd565b600185610c4f9190612287565b610c59919061252e565b610c639190612287565b60088110610c7457610c736125bd565b5b60200201518b8360088110610c8c57610c8b6125bd565b5b602002018181525050505b8080610ca2906124b7565b915050610b2a565b5060008714610ce95780896001600285610cc491906122dd565b610cce9190612368565b60088110610cdf57610cde6125bd565b5b6020020181815250505b88935050505095945050505050565b610d018261044a565b610d1281610d0d6112fd565b611305565b610d1c8383611482565b505050565b600460009054906101000a900460ff1681565b6000610d3e6112fd565b73ffffffffffffffffffffffffffffffffffffffff16610d5c61098d565b73ffffffffffffffffffffffffffffffffffffffff1614610db2576040517f08c379a0000000000000000000000000000000000000000000000000000000008152600401610da99061217c565b60405180910390fd5b60005b8251811015610e1857610de1838281518110610dd457610dd36125bd565b5b602002602001015161080b565b15610e0557600160036000828254610df99190612287565b92505081905550600191505b8080610e10906124b7565b915050610db5565b50919050565b610e266112fd565b73ffffffffffffffffffffffffffffffffffffffff16610e4461098d565b73ffffffffffffffffffffffffffffffffffffffff1614610e9a576040517f08c379a0000000000000000000000000000000000000000000000000000000008152600401610e919061217c565b60405180910390fd5b600073ffffffffffffffffffffffffffffffffffffffff168173ffffffffffffffffffffffffffffffffffffffff161415610f0a576040517f08c379a0000000000000000000000000000000000000000000000000000000008152600401610f019061215c565b60405180910390fd5b610f1381611564565b50565b600080610f576040518060400160405280601081526020017f73657474696e67207363686564756c6500000000000000000000000000000000815250611629565b600080600288889050610f6a919061252e565b14610f8757600187879050610f7f9190612287565b905080610f8f565b868690509050805b50610f9861194a565b8787905089600487610faa9190612287565b60088110610fbb57610fba6125bd565b5b60200201511061107857604051806040016040528089898c8960088110610fe557610fe46125bd565b5b6020020151818110610ffa57610ff96125bd565b5b905060200201602081019061100f9190611b9c565b73ffffffffffffffffffffffffffffffffffffffff1673ffffffffffffffffffffffffffffffffffffffff168152602001600073ffffffffffffffffffffffffffffffffffffffff1673ffffffffffffffffffffffffffffffffffffffff168152509050611251565b8787905089866008811061108f5761108e6125bd565b5b602002015110611158576040518060400160405280600073ffffffffffffffffffffffffffffffffffffffff1673ffffffffffffffffffffffffffffffffffffffff16815260200189898c60048a6110e79190612287565b600881106110f8576110f76125bd565b5b602002015181811061110d5761110c6125bd565b5b90506020020160208101906111229190611b9c565b73ffffffffffffffffffffffffffffffffffffffff1673ffffffffffffffffffffffffffffffffffffffff168152509050611250565b604051806040016040528089898c8960088110611178576111776125bd565b5b602002015181811061118d5761118c6125bd565b5b90506020020160208101906111a29190611b9c565b73ffffffffffffffffffffffffffffffffffffffff1673ffffffffffffffffffffffffffffffffffffffff16815260200189898c60048a6111e39190612287565b600881106111f4576111f36125bd565b5b6020020151818110611209576112086125bd565b5b905060200201602081019061121e9190611b9c565b73ffffffffffffffffffffffffffffffffffffffff1673ffffffffffffffffffffffffffffffffffffffff1681525090505b5b80600060028110611265576112646125bd565b5b60200201518160016002811061127e5761127d6125bd565b5b60200201519350935050509550959350505050565b60007f01ffc9a7000000000000000000000000000000000000000000000000000000007bffffffffffffffffffffffffffffffffffffffffffffffffffffffff1916827bffffffffffffffffffffffffffffffffffffffffffffffffffffffff1916149050919050565b600033905090565b61130f82826109b6565b61139e576113348173ffffffffffffffffffffffffffffffffffffffff1660146116c2565b6113428360001c60206116c2565b604051602001611353929190611ffe565b6040516020818303038152906040526040517f08c379a0000000000000000000000000000000000000000000000000000000008152600401611395919061211a565b60405180910390fd5b5050565b6113ac82826109b6565b61147e57600180600084815260200190815260200160002060000160008373ffffffffffffffffffffffffffffffffffffffff1673ffffffffffffffffffffffffffffffffffffffff16815260200190815260200160002060006101000a81548160ff0219169083151502179055506114236112fd565b73ffffffffffffffffffffffffffffffffffffffff168173ffffffffffffffffffffffffffffffffffffffff16837f2f8788117e7eff1d82e926ec794901d17c78024a50270940304540a733656f0d60405160405180910390a45b5050565b61148c82826109b6565b156115605760006001600084815260200190815260200160002060000160008373ffffffffffffffffffffffffffffffffffffffff1673ffffffffffffffffffffffffffffffffffffffff16815260200190815260200160002060006101000a81548160ff0219169083151502179055506115056112fd565b73ffffffffffffffffffffffffffffffffffffffff168173ffffffffffffffffffffffffffffffffffffffff16837ff6391f5c32d9c69d2a47ea670b442974b53935d1edc7fd64eb21e047a839171b60405160405180910390a45b5050565b60008060029054906101000a900473ffffffffffffffffffffffffffffffffffffffff16905081600060026101000a81548173ffffffffffffffffffffffffffffffffffffffff021916908373ffffffffffffffffffffffffffffffffffffffff1602179055508173ffffffffffffffffffffffffffffffffffffffff168173ffffffffffffffffffffffffffffffffffffffff167f8be0079c531659141344cd1fd0a4f28419497f9722a3daafe3b4186f6b6457e060405160405180910390a35050565b6116bf8160405160240161163d919061211a565b6040516020818303038152906040527f41304fac000000000000000000000000000000000000000000000000000000007bffffffffffffffffffffffffffffffffffffffffffffffffffffffff19166020820180517bffffffffffffffffffffffffffffffffffffffffffffffffffffffff83818316178352505050506118fe565b50565b6060600060028360026116d5919061230e565b6116df9190612287565b67ffffffffffffffff8111156116f8576116f76125ec565b5b6040519080825280601f01601f19166020018201604052801561172a5781602001600182028036833780820191505090505b5090507f300000000000000000000000000000000000000000000000000000000000000081600081518110611762576117616125bd565b5b60200101907effffffffffffffffffffffffffffffffffffffffffffffffffffffffffffff1916908160001a9053507f7800000000000000000000000000000000000000000000000000000000000000816001815181106117c6576117c56125bd565b5b60200101907effffffffffffffffffffffffffffffffffffffffffffffffffffffffffffff1916908160001a90535060006001846002611806919061230e565b6118109190612287565b90505b60018111156118b0577f3031323334353637383961626364656600000000000000000000000000000000600f861660108110611852576118516125bd565b5b1a60f81b828281518110611869576118686125bd565b5b60200101907effffffffffffffffffffffffffffffffffffffffffffffffffffffffffffff1916908160001a905350600485901c9450806118a99061245c565b9050611813565b50600084146118f4576040517f08c379a00000000000000000000000000000000000000000000000000000000081526004016118eb9061213c565b60405180910390fd5b8091505092915050565b60008151905060006a636f6e736f6c652e6c6f679050602083016000808483855afa5050505050565b604051806101000160405280600890602082028036833780820191505090505090565b6040518060400160405280600290602082028036833780820191505090505090565b600061197f61197a846121e1565b6121bc565b905080838252602082019050828560208602820111156119a2576119a1612625565b5b60005b858110156119d257816119b88882611a43565b8452602084019350602083019250506001810190506119a5565b5050509392505050565b60006119ef6119ea8461220d565b6121bc565b90508082856020860282011115611a0957611a08612625565b5b60005b85811015611a395781611a1f8882611b87565b845260208401935060208301925050600181019050611a0c565b5050509392505050565b600081359050611a5281612794565b92915050565b60008083601f840112611a6e57611a6d612620565b5b8235905067ffffffffffffffff811115611a8b57611a8a61261b565b5b602083019150836020820283011115611aa757611aa6612625565b5b9250929050565b600082601f830112611ac357611ac2612620565b5b8135611ad384826020860161196c565b91505092915050565b600082601f830112611af157611af0612620565b5b6008611afe8482856119dc565b91505092915050565b600081359050611b16816127ab565b92915050565b600081359050611b2b816127c2565b92915050565b60008083601f840112611b4757611b46612620565b5b8235905067ffffffffffffffff811115611b6457611b6361261b565b5b602083019150836001820283011115611b8057611b7f612625565b5b9250929050565b600081359050611b96816127d9565b92915050565b600060208284031215611bb257611bb161262f565b5b6000611bc084828501611a43565b91505092915050565b600060208284031215611bdf57611bde61262f565b5b600082013567ffffffffffffffff811115611bfd57611bfc61262a565b5b611c0984828501611aae565b91505092915050565b60008060008060006101608688031215611c2f57611c2e61262f565b5b6000611c3d88828901611adc565b95505061010086013567ffffffffffffffff811115611c5f57611c5e61262a565b5b611c6b88828901611a58565b9450945050610120611c7f88828901611b87565b925050610140611c9188828901611b87565b9150509295509295909350565b60008060008060006101608688031215611cbb57611cba61262f565b5b6000611cc988828901611adc565b955050610100611cdb88828901611b87565b945050610120611ced88828901611b87565b93505061014086013567ffffffffffffffff811115611d0f57611d0e61262a565b5b611d1b88828901611b31565b92509250509295509295909350565b600060208284031215611d4057611d3f61262f565b5b6000611d4e84828501611b07565b91505092915050565b60008060408385031215611d6e57611d6d61262f565b5b6000611d7c85828601611b07565b9250506020611d8d85828601611a43565b9150509250929050565b600060208284031215611dad57611dac61262f565b5b6000611dbb84828501611b1c565b91505092915050565b6000611dd08383611fd8565b60208301905092915050565b611de58161239c565b82525050565b611dfc611df78261239c565b612500565b82525050565b611e0b8161223d565b611e158184612260565b9250611e2082612233565b8060005b83811015611e51578151611e388782611dc4565b9650611e4383612253565b925050600181019050611e24565b505050505050565b611e62816123ae565b82525050565b611e71816123ba565b82525050565b6000611e83838561227c565b9350611e9083858461241a565b82840190509392505050565b6000611ea782612248565b611eb1818561226b565b9350611ec1818560208601612429565b611eca81612634565b840191505092915050565b6000611ee082612248565b611eea818561227c565b9350611efa818560208601612429565b80840191505092915050565b6000611f1360208361226b565b9150611f1e82612652565b602082019050919050565b6000611f3660268361226b565b9150611f418261267b565b604082019050919050565b6000611f5960208361226b565b9150611f64826126ca565b602082019050919050565b6000611f7c60178361227c565b9150611f87826126f3565b601782019050919050565b6000611f9f60118361227c565b9150611faa8261271c565b601182019050919050565b6000611fc2602f8361226b565b9150611fcd82612745565b604082019050919050565b611fe181612410565b82525050565b611ff8611ff382612410565b612524565b82525050565b600061200982611f6f565b91506120158285611ed5565b915061202082611f92565b915061202c8284611ed5565b91508190509392505050565b60006120448288611fe7565b6020820191506120548287611deb565b6014820191506120648286611fe7565b602082019150612075828486611e77565b91508190509695505050505050565b60006020820190506120996000830184611ddc565b92915050565b60006040820190506120b46000830185611ddc565b6120c16020830184611ddc565b9392505050565b6000610100820190506120de6000830184611e02565b92915050565b60006020820190506120f96000830184611e59565b92915050565b60006020820190506121146000830184611e68565b92915050565b600060208201905081810360008301526121348184611e9c565b905092915050565b6000602082019050818103600083015261215581611f06565b9050919050565b6000602082019050818103600083015261217581611f29565b9050919050565b6000602082019050818103600083015261219581611f4c565b9050919050565b600060208201905081810360008301526121b581611fb5565b9050919050565b60006121c66121d7565b90506121d28282612486565b919050565b6000604051905090565b600067ffffffffffffffff8211156121fc576121fb6125ec565b5b602082029050602081019050919050565b600067ffffffffffffffff821115612228576122276125ec565b5b602082029050919050565b6000819050919050565b600060089050919050565b600081519050919050565b6000602082019050919050565b600081905092915050565b600082825260208201905092915050565b600081905092915050565b600061229282612410565b915061229d83612410565b9250827fffffffffffffffffffffffffffffffffffffffffffffffffffffffffffffffff038211156122d2576122d161255f565b5b828201905092915050565b60006122e882612410565b91506122f383612410565b9250826123035761230261258e565b5b828204905092915050565b600061231982612410565b915061232483612410565b9250817fffffffffffffffffffffffffffffffffffffffffffffffffffffffffffffffff048311821515161561235d5761235c61255f565b5b828202905092915050565b600061237382612410565b915061237e83612410565b9250828210156123915761239061255f565b5b828203905092915050565b60006123a7826123f0565b9050919050565b60008115159050919050565b6000819050919050565b60007fffffffff0000000000000000000000000000000000000000000000000000000082169050919050565b600073ffffffffffffffffffffffffffffffffffffffff82169050919050565b6000819050919050565b82818337600083830152505050565b60005b8381101561244757808201518184015260208101905061242c565b83811115612456576000848401525b50505050565b600061246782612410565b9150600082141561247b5761247a61255f565b5b600182039050919050565b61248f82612634565b810181811067ffffffffffffffff821117156124ae576124ad6125ec565b5b80604052505050565b60006124c282612410565b91507fffffffffffffffffffffffffffffffffffffffffffffffffffffffffffffffff8214156124f5576124f461255f565b5b600182019050919050565b600061250b82612512565b9050919050565b600061251d82612645565b9050919050565b6000819050919050565b600061253982612410565b915061254483612410565b9250826125545761255361258e565b5b828206905092915050565b7f4e487b7100000000000000000000000000000000000000000000000000000000600052601160045260246000fd5b7f4e487b7100000000000000000000000000000000000000000000000000000000600052601260045260246000fd5b7f4e487b7100000000000000000000000000000000000000000000000000000000600052603260045260246000fd5b7f4e487b7100000000000000000000000000000000000000000000000000000000600052604160045260246000fd5b600080fd5b600080fd5b600080fd5b600080fd5b600080fd5b6000601f19601f8301169050919050565b60008160601b9050919050565b7f537472696e67733a20686578206c656e67746820696e73756666696369656e74600082015250565b7f4f776e61626c653a206e6577206f776e657220697320746865207a65726f206160008201527f6464726573730000000000000000000000000000000000000000000000000000602082015250565b7f4f776e61626c653a2063616c6c6572206973206e6f7420746865206f776e6572600082015250565b7f416363657373436f6e74726f6c3a206163636f756e7420000000000000000000600082015250565b7f206973206d697373696e6720726f6c6520000000000000000000000000000000600082015250565b7f416363657373436f6e74726f6c3a2063616e206f6e6c792072656e6f756e636560008201527f20726f6c657320666f722073656c660000000000000000000000000000000000602082015250565b61279d8161239c565b81146127a857600080fd5b50565b6127b4816123ba565b81146127bf57600080fd5b50565b6127cb816123c4565b81146127d657600080fd5b50565b6127e281612410565b81146127ed57600080fd5b5056fea26469706673582212205e0cc5bf2e0063ccaf63461ed661238104f3fd7abfc4b5df35f5a6dc10b4bac264736f6c63430008070033",
  "linkReferences": {},
  "deployedLinkReferences": {}
}