{
  "_format": "hh-sol-artifact-1",
  "contractName": "MOBALogicHelper",
  "sourceName": "contracts/MOBALogicHelper.sol",
  "abi": [
    {
      "anonymous": false,
      "inputs": [
        {
          "indexed": true,
          "internalType": "address",
          "name": "previousOwner",
          "type": "address"
        },
        {
          "indexed": true,
          "internalType": "address",
          "name": "newOwner",
          "type": "address"
        }
      ],
      "name": "OwnershipTransferred",
      "type": "event"
    },
    {
      "anonymous": false,
      "inputs": [
        {
          "indexed": true,
          "internalType": "bytes32",
          "name": "role",
          "type": "bytes32"
        },
        {
          "indexed": true,
          "internalType": "bytes32",
          "name": "previousAdminRole",
          "type": "bytes32"
        },
        {
          "indexed": true,
          "internalType": "bytes32",
          "name": "newAdminRole",
          "type": "bytes32"
        }
      ],
      "name": "RoleAdminChanged",
      "type": "event"
    },
    {
      "anonymous": false,
      "inputs": [
        {
          "indexed": true,
          "internalType": "bytes32",
          "name": "role",
          "type": "bytes32"
        },
        {
          "indexed": true,
          "internalType": "address",
          "name": "account",
          "type": "address"
        },
        {
          "indexed": true,
          "internalType": "address",
          "name": "sender",
          "type": "address"
        }
      ],
      "name": "RoleGranted",
      "type": "event"
    },
    {
      "anonymous": false,
      "inputs": [
        {
          "indexed": true,
          "internalType": "bytes32",
          "name": "role",
          "type": "bytes32"
        },
        {
          "indexed": true,
          "internalType": "address",
          "name": "account",
          "type": "address"
        },
        {
          "indexed": true,
          "internalType": "address",
          "name": "sender",
          "type": "address"
        }
      ],
      "name": "RoleRevoked",
      "type": "event"
    },
    {
      "anonymous": false,
      "inputs": [
        {
          "indexed": false,
          "internalType": "address",
          "name": "sender",
          "type": "address"
        },
        {
          "indexed": false,
          "internalType": "uint256",
          "name": "amount",
          "type": "uint256"
        }
      ],
      "name": "Staked",
      "type": "event"
    },
    {
      "anonymous": false,
      "inputs": [
        {
          "indexed": false,
          "internalType": "address",
          "name": "addr",
          "type": "address"
        }
      ],
      "name": "WhitelistedAddressAdded",
      "type": "event"
    },
    {
      "anonymous": false,
      "inputs": [
        {
          "indexed": false,
          "internalType": "address",
          "name": "addr",
          "type": "address"
        }
      ],
      "name": "WhitelistedAddressRemoved",
      "type": "event"
    },
    {
      "inputs": [],
      "name": "DEFAULT_ADMIN_ROLE",
      "outputs": [
        {
          "internalType": "bytes32",
          "name": "",
          "type": "bytes32"
        }
      ],
      "stateMutability": "view",
      "type": "function"
    },
    {
      "inputs": [
        {
          "internalType": "address",
          "name": "addr",
          "type": "address"
        }
      ],
      "name": "addAddressToWhitelist",
      "outputs": [
        {
          "internalType": "bool",
          "name": "success",
          "type": "bool"
        }
      ],
      "stateMutability": "nonpayable",
      "type": "function"
    },
    {
      "inputs": [
        {
          "internalType": "address[]",
          "name": "addrs",
          "type": "address[]"
        }
      ],
      "name": "addAddressesToWhitelist",
      "outputs": [
        {
          "internalType": "bool",
          "name": "success",
          "type": "bool"
        }
      ],
      "stateMutability": "nonpayable",
      "type": "function"
    },
    {
      "inputs": [
        {
          "components": [
            {
              "internalType": "uint256",
              "name": "kills",
              "type": "uint256"
            }
          ],
          "internalType": "struct MOBALogicHelper.Stats",
          "name": "athleteStats",
          "type": "tuple"
        }
      ],
      "name": "calculateScoreOnChain",
      "outputs": [
        {
          "internalType": "uint256",
          "name": "score",
          "type": "uint256"
        }
      ],
      "stateMutability": "pure",
      "type": "function"
    },
    {
      "inputs": [
        {
          "internalType": "address",
          "name": "addr1",
          "type": "address"
        },
        {
          "internalType": "address",
          "name": "addr2",
          "type": "address"
        },
        {
          "internalType": "uint256",
          "name": "currentWeekNum",
          "type": "uint256"
        },
        {
          "internalType": "uint256[]",
          "name": "lineup1",
          "type": "uint256[]"
        },
        {
          "internalType": "uint256[]",
          "name": "lineup2",
          "type": "uint256[]"
        }
      ],
      "name": "evaluateMatch",
      "outputs": [
        {
          "internalType": "address",
          "name": "",
          "type": "address"
        }
      ],
      "stateMutability": "nonpayable",
      "type": "function"
    },
    {
      "inputs": [
        {
          "internalType": "bytes32",
          "name": "role",
          "type": "bytes32"
        }
      ],
      "name": "getRoleAdmin",
      "outputs": [
        {
          "internalType": "bytes32",
          "name": "",
          "type": "bytes32"
        }
      ],
      "stateMutability": "view",
      "type": "function"
    },
    {
      "inputs": [
        {
          "internalType": "bytes32",
          "name": "role",
          "type": "bytes32"
        },
        {
          "internalType": "address",
          "name": "account",
          "type": "address"
        }
      ],
      "name": "grantRole",
      "outputs": [],
      "stateMutability": "nonpayable",
      "type": "function"
    },
    {
      "inputs": [
        {
          "internalType": "bytes32",
          "name": "role",
          "type": "bytes32"
        },
        {
          "internalType": "address",
          "name": "account",
          "type": "address"
        }
      ],
      "name": "hasRole",
      "outputs": [
        {
          "internalType": "bool",
          "name": "",
          "type": "bool"
        }
      ],
      "stateMutability": "view",
      "type": "function"
    },
    {
      "inputs": [],
      "name": "isPublic",
      "outputs": [
        {
          "internalType": "bool",
          "name": "",
          "type": "bool"
        }
      ],
      "stateMutability": "view",
      "type": "function"
    },
    {
      "inputs": [],
      "name": "owner",
      "outputs": [
        {
          "internalType": "address",
          "name": "",
          "type": "address"
        }
      ],
      "stateMutability": "view",
      "type": "function"
    },
    {
      "inputs": [
        {
          "internalType": "address",
          "name": "addr",
          "type": "address"
        }
      ],
      "name": "removeAddressFromWhitelist",
      "outputs": [
        {
          "internalType": "bool",
          "name": "success",
          "type": "bool"
        }
      ],
      "stateMutability": "nonpayable",
      "type": "function"
    },
    {
      "inputs": [
        {
          "internalType": "address[]",
          "name": "addrs",
          "type": "address[]"
        }
      ],
      "name": "removeAddressesFromWhitelist",
      "outputs": [
        {
          "internalType": "bool",
          "name": "success",
          "type": "bool"
        }
      ],
      "stateMutability": "nonpayable",
      "type": "function"
    },
    {
      "inputs": [],
      "name": "renounceOwnership",
      "outputs": [],
      "stateMutability": "nonpayable",
      "type": "function"
    },
    {
      "inputs": [
        {
          "internalType": "bytes32",
          "name": "role",
          "type": "bytes32"
        },
        {
          "internalType": "address",
          "name": "account",
          "type": "address"
        }
      ],
      "name": "renounceRole",
      "outputs": [],
      "stateMutability": "nonpayable",
      "type": "function"
    },
    {
      "inputs": [
        {
          "internalType": "bytes32",
          "name": "role",
          "type": "bytes32"
        },
        {
          "internalType": "address",
          "name": "account",
          "type": "address"
        }
      ],
      "name": "revokeRole",
      "outputs": [],
      "stateMutability": "nonpayable",
      "type": "function"
    },
    {
      "inputs": [
        {
          "internalType": "bytes4",
          "name": "interfaceId",
          "type": "bytes4"
        }
      ],
      "name": "supportsInterface",
      "outputs": [
        {
          "internalType": "bool",
          "name": "",
          "type": "bool"
        }
      ],
      "stateMutability": "view",
      "type": "function"
    },
    {
      "inputs": [
        {
          "internalType": "address",
          "name": "newOwner",
          "type": "address"
        }
      ],
      "name": "transferOwnership",
      "outputs": [],
      "stateMutability": "nonpayable",
      "type": "function"
    },
    {
      "inputs": [
        {
          "internalType": "address",
          "name": "",
          "type": "address"
        }
      ],
      "name": "whitelist",
      "outputs": [
        {
          "internalType": "bool",
          "name": "",
          "type": "bool"
        }
      ],
      "stateMutability": "view",
      "type": "function"
    }
  ],
  "bytecode": "0x608060405234801561001057600080fd5b5061002d61002261003260201b60201c565b61003a60201b60201c565b6100ff565b600033905090565b60008060029054906101000a900473ffffffffffffffffffffffffffffffffffffffff16905081600060026101000a81548173ffffffffffffffffffffffffffffffffffffffff021916908373ffffffffffffffffffffffffffffffffffffffff1602179055508173ffffffffffffffffffffffffffffffffffffffff168173ffffffffffffffffffffffffffffffffffffffff167f8be0079c531659141344cd1fd0a4f28419497f9722a3daafe3b4186f6b6457e060405160405180910390a35050565b612181806200010f6000396000f3fe608060405234801561001057600080fd5b50600436106101165760003560e01c80637b9417c8116100a2578063a217fddf11610071578063a217fddf1461032b578063d547741f14610349578063dc9a153514610365578063e2ec6ec314610383578063f2fde38b146103b357610116565b80637b9417c81461027d5780638da5cb5b146102ad57806391d14854146102cb5780639b19251a146102fb57610116565b80632f2ff15d116100e95780632f2ff15d146101db57806336568abe146101f757806341d2fe341461021357806356185d7414610243578063715018a61461027357610116565b806301ffc9a71461011b578063248a9ca31461014b57806324953eaa1461017b578063286dd3f5146101ab575b600080fd5b610135600480360381019061013091906118ff565b6103cf565b6040516101429190611b26565b60405180910390f35b61016560048036038101906101609190611892565b610449565b6040516101729190611b41565b60405180910390f35b61019560048036038101906101909190611800565b610469565b6040516101a29190611b26565b60405180910390f35b6101c560048036038101906101c09190611720565b610553565b6040516101d29190611b26565b60405180910390f35b6101f560048036038101906101f091906118bf565b6106d6565b005b610211600480360381019061020c91906118bf565b6106ff565b005b61022d6004803603810190610228919061174d565b610782565b60405161023a9190611b0b565b60405180910390f35b61025d6004803603810190610258919061192c565b6109ef565b60405161026a9190611bfe565b60405180910390f35b61027b610a09565b005b61029760048036038101906102929190611720565b610a91565b6040516102a49190611b26565b60405180910390f35b6102b5610c13565b6040516102c29190611b0b565b60405180910390f35b6102e560048036038101906102e091906118bf565b610c3c565b6040516102f29190611b26565b60405180910390f35b61031560048036038101906103109190611720565b610ca7565b6040516103229190611b26565b60405180910390f35b610333610cc7565b6040516103409190611b41565b60405180910390f35b610363600480360381019061035e91906118bf565b610cce565b005b61036d610cf7565b60405161037a9190611b26565b60405180910390f35b61039d60048036038101906103989190611800565b610d0a565b6040516103aa9190611b26565b60405180910390f35b6103cd60048036038101906103c89190611720565b610df4565b005b60007f7965db0b000000000000000000000000000000000000000000000000000000007bffffffffffffffffffffffffffffffffffffffffffffffffffffffff1916827bffffffffffffffffffffffffffffffffffffffffffffffffffffffff19161480610442575061044182610eec565b5b9050919050565b600060016000838152602001908152602001600020600101549050919050565b6000610473610f56565b73ffffffffffffffffffffffffffffffffffffffff16610491610c13565b73ffffffffffffffffffffffffffffffffffffffff16146104e7576040517f08c379a00000000000000000000000000000000000000000000000000000000081526004016104de90611bbe565b60405180910390fd5b60005b825181101561054d5761051683828151811061050957610508611f25565b5b6020026020010151610553565b1561053a5760016003600082825461052e9190611d6d565b92505081905550600191505b808061054590611ead565b9150506104ea565b50919050565b600061055d610f56565b73ffffffffffffffffffffffffffffffffffffffff1661057b610c13565b73ffffffffffffffffffffffffffffffffffffffff16146105d1576040517f08c379a00000000000000000000000000000000000000000000000000000000081526004016105c890611bbe565b60405180910390fd5b600260008373ffffffffffffffffffffffffffffffffffffffff1673ffffffffffffffffffffffffffffffffffffffff16815260200190815260200160002060009054906101000a900460ff16156106d1576000600260008473ffffffffffffffffffffffffffffffffffffffff1673ffffffffffffffffffffffffffffffffffffffff16815260200190815260200160002060006101000a81548160ff0219169083151502179055507ff1abf01a1043b7c244d128e8595cf0c1d10743b022b03a02dffd8ca3bf729f5a826040516106aa9190611b0b565b60405180910390a16001600360008282546106c59190611d6d565b92505081905550600190505b919050565b6106df82610449565b6106f0816106eb610f56565b610f5e565b6106fa8383610ffb565b505050565b610707610f56565b73ffffffffffffffffffffffffffffffffffffffff168173ffffffffffffffffffffffffffffffffffffffff1614610774576040517f08c379a000000000000000000000000000000000000000000000000000000000815260040161076b90611bde565b60405180910390fd5b61077e82826110db565b5050565b600080600080600090505b85518110156109cd576000600460019054906101000a900473ffffffffffffffffffffffffffffffffffffffff1673ffffffffffffffffffffffffffffffffffffffff1663d4313da88884815181106107e9576107e8611f25565b5b60200260200101516040518263ffffffff1660e01b815260040161080d9190611bfe565b60006040518083038186803b15801561082557600080fd5b505afa158015610839573d6000803e3d6000fd5b505050506040513d6000823e3d601f19601f820116820180604052508101906108629190611849565b90506000600460019054906101000a900473ffffffffffffffffffffffffffffffffffffffff1673ffffffffffffffffffffffffffffffffffffffff1663d4313da88885815181106108b7576108b6611f25565b5b60200260200101516040518263ffffffff1660e01b81526004016108db9190611bfe565b60006040518083038186803b1580156108f357600080fd5b505afa158015610907573d6000803e3d6000fd5b505050506040513d6000823e3d601f19601f820116820180604052508101906109309190611849565b9050600082600184516109439190611d6d565b8151811061095457610953611f25565b5b602002602001015190506000826001845161096f9190611d6d565b815181106109805761097f611f25565b5b60200260200101519050808211156109a65760018761099f9190611cbd565b96506109b6565b6001866109b39190611cbd565b95505b5050505080806109c590611ead565b91505061078d565b50808211156109e05787925050506109e6565b86925050505b95945050505050565b600060028260000135610a029190611d13565b9050919050565b610a11610f56565b73ffffffffffffffffffffffffffffffffffffffff16610a2f610c13565b73ffffffffffffffffffffffffffffffffffffffff1614610a85576040517f08c379a0000000000000000000000000000000000000000000000000000000008152600401610a7c90611bbe565b60405180910390fd5b610a8f60006111bd565b565b6000610a9b610f56565b73ffffffffffffffffffffffffffffffffffffffff16610ab9610c13565b73ffffffffffffffffffffffffffffffffffffffff1614610b0f576040517f08c379a0000000000000000000000000000000000000000000000000000000008152600401610b0690611bbe565b60405180910390fd5b600260008373ffffffffffffffffffffffffffffffffffffffff1673ffffffffffffffffffffffffffffffffffffffff16815260200190815260200160002060009054906101000a900460ff16610c0e576001600260008473ffffffffffffffffffffffffffffffffffffffff1673ffffffffffffffffffffffffffffffffffffffff16815260200190815260200160002060006101000a81548160ff0219169083151502179055507fd1bba68c128cc3f427e5831b3c6f99f480b6efa6b9e80c757768f6124158cc3f82604051610be79190611b0b565b60405180910390a1600160036000828254610c029190611cbd565b92505081905550600190505b919050565b60008060029054906101000a900473ffffffffffffffffffffffffffffffffffffffff16905090565b60006001600084815260200190815260200160002060000160008373ffffffffffffffffffffffffffffffffffffffff1673ffffffffffffffffffffffffffffffffffffffff16815260200190815260200160002060009054906101000a900460ff16905092915050565b60026020528060005260406000206000915054906101000a900460ff1681565b6000801b81565b610cd782610449565b610ce881610ce3610f56565b610f5e565b610cf283836110db565b505050565b600460009054906101000a900460ff1681565b6000610d14610f56565b73ffffffffffffffffffffffffffffffffffffffff16610d32610c13565b73ffffffffffffffffffffffffffffffffffffffff1614610d88576040517f08c379a0000000000000000000000000000000000000000000000000000000008152600401610d7f90611bbe565b60405180910390fd5b60005b8251811015610dee57610db7838281518110610daa57610da9611f25565b5b6020026020010151610a91565b15610ddb57600160036000828254610dcf9190611cbd565b92505081905550600191505b8080610de690611ead565b915050610d8b565b50919050565b610dfc610f56565b73ffffffffffffffffffffffffffffffffffffffff16610e1a610c13565b73ffffffffffffffffffffffffffffffffffffffff1614610e70576040517f08c379a0000000000000000000000000000000000000000000000000000000008152600401610e6790611bbe565b60405180910390fd5b600073ffffffffffffffffffffffffffffffffffffffff168173ffffffffffffffffffffffffffffffffffffffff161415610ee0576040517f08c379a0000000000000000000000000000000000000000000000000000000008152600401610ed790611b9e565b60405180910390fd5b610ee9816111bd565b50565b60007f01ffc9a7000000000000000000000000000000000000000000000000000000007bffffffffffffffffffffffffffffffffffffffffffffffffffffffff1916827bffffffffffffffffffffffffffffffffffffffffffffffffffffffff1916149050919050565b600033905090565b610f688282610c3c565b610ff757610f8d8173ffffffffffffffffffffffffffffffffffffffff166014611282565b610f9b8360001c6020611282565b604051602001610fac929190611ad1565b6040516020818303038152906040526040517f08c379a0000000000000000000000000000000000000000000000000000000008152600401610fee9190611b5c565b60405180910390fd5b5050565b6110058282610c3c565b6110d757600180600084815260200190815260200160002060000160008373ffffffffffffffffffffffffffffffffffffffff1673ffffffffffffffffffffffffffffffffffffffff16815260200190815260200160002060006101000a81548160ff02191690831515021790555061107c610f56565b73ffffffffffffffffffffffffffffffffffffffff168173ffffffffffffffffffffffffffffffffffffffff16837f2f8788117e7eff1d82e926ec794901d17c78024a50270940304540a733656f0d60405160405180910390a45b5050565b6110e58282610c3c565b156111b95760006001600084815260200190815260200160002060000160008373ffffffffffffffffffffffffffffffffffffffff1673ffffffffffffffffffffffffffffffffffffffff16815260200190815260200160002060006101000a81548160ff02191690831515021790555061115e610f56565b73ffffffffffffffffffffffffffffffffffffffff168173ffffffffffffffffffffffffffffffffffffffff16837ff6391f5c32d9c69d2a47ea670b442974b53935d1edc7fd64eb21e047a839171b60405160405180910390a45b5050565b60008060029054906101000a900473ffffffffffffffffffffffffffffffffffffffff16905081600060026101000a81548173ffffffffffffffffffffffffffffffffffffffff021916908373ffffffffffffffffffffffffffffffffffffffff1602179055508173ffffffffffffffffffffffffffffffffffffffff168173ffffffffffffffffffffffffffffffffffffffff167f8be0079c531659141344cd1fd0a4f28419497f9722a3daafe3b4186f6b6457e060405160405180910390a35050565b6060600060028360026112959190611d13565b61129f9190611cbd565b67ffffffffffffffff8111156112b8576112b7611f54565b5b6040519080825280601f01601f1916602001820160405280156112ea5781602001600182028036833780820191505090505b5090507f30000000000000000000000000000000000000000000000000000000000000008160008151811061132257611321611f25565b5b60200101907effffffffffffffffffffffffffffffffffffffffffffffffffffffffffffff1916908160001a9053507f78000000000000000000000000000000000000000000000000000000000000008160018151811061138657611385611f25565b5b60200101907effffffffffffffffffffffffffffffffffffffffffffffffffffffffffffff1916908160001a905350600060018460026113c69190611d13565b6113d09190611cbd565b90505b6001811115611470577f3031323334353637383961626364656600000000000000000000000000000000600f86166010811061141257611411611f25565b5b1a60f81b82828151811061142957611428611f25565b5b60200101907effffffffffffffffffffffffffffffffffffffffffffffffffffffffffffff1916908160001a905350600485901c94508061146990611e52565b90506113d3565b50600084146114b4576040517f08c379a00000000000000000000000000000000000000000000000000000000081526004016114ab90611b7e565b60405180910390fd5b8091505092915050565b60006114d16114cc84611c3e565b611c19565b905080838252602082019050828560208602820111156114f4576114f3611f8d565b5b60005b85811015611524578161150a888261160e565b8452602084019350602083019250506001810190506114f7565b5050509392505050565b600061154161153c84611c6a565b611c19565b9050808382526020820190508285602086028201111561156457611563611f8d565b5b60005b85811015611594578161157a88826116f6565b845260208401935060208301925050600181019050611567565b5050509392505050565b60006115b16115ac84611c6a565b611c19565b905080838252602082019050828560208602820111156115d4576115d3611f8d565b5b60005b8581101561160457816115ea888261170b565b8452602084019350602083019250506001810190506115d7565b5050509392505050565b60008135905061161d816120ef565b92915050565b600082601f83011261163857611637611f83565b5b81356116488482602086016114be565b91505092915050565b600082601f83011261166657611665611f83565b5b813561167684826020860161152e565b91505092915050565b600082601f83011261169457611693611f83565b5b81516116a484826020860161159e565b91505092915050565b6000813590506116bc81612106565b92915050565b6000813590506116d18161211d565b92915050565b6000602082840312156116ed576116ec611f88565b5b81905092915050565b60008135905061170581612134565b92915050565b60008151905061171a81612134565b92915050565b60006020828403121561173657611735611f97565b5b60006117448482850161160e565b91505092915050565b600080600080600060a0868803121561176957611768611f97565b5b60006117778882890161160e565b95505060206117888882890161160e565b9450506040611799888289016116f6565b935050606086013567ffffffffffffffff8111156117ba576117b9611f92565b5b6117c688828901611651565b925050608086013567ffffffffffffffff8111156117e7576117e6611f92565b5b6117f388828901611651565b9150509295509295909350565b60006020828403121561181657611815611f97565b5b600082013567ffffffffffffffff81111561183457611833611f92565b5b61184084828501611623565b91505092915050565b60006020828403121561185f5761185e611f97565b5b600082015167ffffffffffffffff81111561187d5761187c611f92565b5b6118898482850161167f565b91505092915050565b6000602082840312156118a8576118a7611f97565b5b60006118b6848285016116ad565b91505092915050565b600080604083850312156118d6576118d5611f97565b5b60006118e4858286016116ad565b92505060206118f58582860161160e565b9150509250929050565b60006020828403121561191557611914611f97565b5b6000611923848285016116c2565b91505092915050565b60006020828403121561194257611941611f97565b5b6000611950848285016116d7565b91505092915050565b61196281611da1565b82525050565b61197181611db3565b82525050565b61198081611dbf565b82525050565b600061199182611c96565b61199b8185611ca1565b93506119ab818560208601611e1f565b6119b481611f9c565b840191505092915050565b60006119ca82611c96565b6119d48185611cb2565b93506119e4818560208601611e1f565b80840191505092915050565b60006119fd602083611ca1565b9150611a0882611fad565b602082019050919050565b6000611a20602683611ca1565b9150611a2b82611fd6565b604082019050919050565b6000611a43602083611ca1565b9150611a4e82612025565b602082019050919050565b6000611a66601783611cb2565b9150611a718261204e565b601782019050919050565b6000611a89601183611cb2565b9150611a9482612077565b601182019050919050565b6000611aac602f83611ca1565b9150611ab7826120a0565b604082019050919050565b611acb81611e15565b82525050565b6000611adc82611a59565b9150611ae882856119bf565b9150611af382611a7c565b9150611aff82846119bf565b91508190509392505050565b6000602082019050611b206000830184611959565b92915050565b6000602082019050611b3b6000830184611968565b92915050565b6000602082019050611b566000830184611977565b92915050565b60006020820190508181036000830152611b768184611986565b905092915050565b60006020820190508181036000830152611b97816119f0565b9050919050565b60006020820190508181036000830152611bb781611a13565b9050919050565b60006020820190508181036000830152611bd781611a36565b9050919050565b60006020820190508181036000830152611bf781611a9f565b9050919050565b6000602082019050611c136000830184611ac2565b92915050565b6000611c23611c34565b9050611c2f8282611e7c565b919050565b6000604051905090565b600067ffffffffffffffff821115611c5957611c58611f54565b5b602082029050602081019050919050565b600067ffffffffffffffff821115611c8557611c84611f54565b5b602082029050602081019050919050565b600081519050919050565b600082825260208201905092915050565b600081905092915050565b6000611cc882611e15565b9150611cd383611e15565b9250827fffffffffffffffffffffffffffffffffffffffffffffffffffffffffffffffff03821115611d0857611d07611ef6565b5b828201905092915050565b6000611d1e82611e15565b9150611d2983611e15565b9250817fffffffffffffffffffffffffffffffffffffffffffffffffffffffffffffffff0483118215151615611d6257611d61611ef6565b5b828202905092915050565b6000611d7882611e15565b9150611d8383611e15565b925082821015611d9657611d95611ef6565b5b828203905092915050565b6000611dac82611df5565b9050919050565b60008115159050919050565b6000819050919050565b60007fffffffff0000000000000000000000000000000000000000000000000000000082169050919050565b600073ffffffffffffffffffffffffffffffffffffffff82169050919050565b6000819050919050565b60005b83811015611e3d578082015181840152602081019050611e22565b83811115611e4c576000848401525b50505050565b6000611e5d82611e15565b91506000821415611e7157611e70611ef6565b5b600182039050919050565b611e8582611f9c565b810181811067ffffffffffffffff82111715611ea457611ea3611f54565b5b80604052505050565b6000611eb882611e15565b91507fffffffffffffffffffffffffffffffffffffffffffffffffffffffffffffffff821415611eeb57611eea611ef6565b5b600182019050919050565b7f4e487b7100000000000000000000000000000000000000000000000000000000600052601160045260246000fd5b7f4e487b7100000000000000000000000000000000000000000000000000000000600052603260045260246000fd5b7f4e487b7100000000000000000000000000000000000000000000000000000000600052604160045260246000fd5b600080fd5b600080fd5b600080fd5b600080fd5b600080fd5b6000601f19601f8301169050919050565b7f537472696e67733a20686578206c656e67746820696e73756666696369656e74600082015250565b7f4f776e61626c653a206e6577206f776e657220697320746865207a65726f206160008201527f6464726573730000000000000000000000000000000000000000000000000000602082015250565b7f4f776e61626c653a2063616c6c6572206973206e6f7420746865206f776e6572600082015250565b7f416363657373436f6e74726f6c3a206163636f756e7420000000000000000000600082015250565b7f206973206d697373696e6720726f6c6520000000000000000000000000000000600082015250565b7f416363657373436f6e74726f6c3a2063616e206f6e6c792072656e6f756e636560008201527f20726f6c657320666f722073656c660000000000000000000000000000000000602082015250565b6120f881611da1565b811461210357600080fd5b50565b61210f81611dbf565b811461211a57600080fd5b50565b61212681611dc9565b811461213157600080fd5b50565b61213d81611e15565b811461214857600080fd5b5056fea2646970667358221220f58bd96f674cc3dbf1902bb1b451adca53409812568955094744e15f34cf90fb64736f6c63430008070033",
  "linkReferences": {},
  "deployedLinkReferences": {}
}