{
  "_format": "hh-sol-artifact-1",
  "contractName": "GameItems",
  "sourceName": "contracts/GameItems.sol",
  "abi": [
    {
      "inputs": [
        {
          "components": [
            {
              "internalType": "uint256",
              "name": "_numAthletes",
              "type": "uint256"
            },
            {
              "internalType": "uint256",
              "name": "_nftPerAthlete",
              "type": "uint256"
            },
            {
              "internalType": "uint256",
              "name": "_starterPackSize",
              "type": "uint256"
            },
            {
              "internalType": "uint256",
              "name": "_boosterPackSize",
              "type": "uint256"
            },
            {
              "internalType": "uint256",
              "name": "_maxStarterPackBalance",
              "type": "uint256"
            },
            {
              "internalType": "uint256",
              "name": "_maxBoosterPackBalance",
              "type": "uint256"
            },
            {
              "internalType": "uint256",
              "name": "_maxPacks",
              "type": "uint256"
            },
            {
              "internalType": "uint256",
              "name": "_revealTimestamp",
              "type": "uint256"
            }
          ],
          "internalType": "struct GameItems.Parameters",
          "name": "params",
          "type": "tuple"
        },
        {
          "internalType": "string",
          "name": "_athleteURI",
          "type": "string"
        },
        {
          "internalType": "string",
          "name": "_starterPackURI",
          "type": "string"
        },
        {
          "internalType": "string",
          "name": "_boosterPackURI",
          "type": "string"
        }
      ],
      "stateMutability": "nonpayable",
      "type": "constructor"
    },
    {
      "anonymous": false,
      "inputs": [
        {
          "indexed": true,
          "internalType": "address",
          "name": "account",
          "type": "address"
        },
        {
          "indexed": true,
          "internalType": "address",
          "name": "operator",
          "type": "address"
        },
        {
          "indexed": false,
          "internalType": "bool",
          "name": "approved",
          "type": "bool"
        }
      ],
      "name": "ApprovalForAll",
      "type": "event"
    },
    {
      "anonymous": false,
      "inputs": [
        {
          "indexed": true,
          "internalType": "address",
          "name": "previousOwner",
          "type": "address"
        },
        {
          "indexed": true,
          "internalType": "address",
          "name": "newOwner",
          "type": "address"
        }
      ],
      "name": "OwnershipTransferred",
      "type": "event"
    },
    {
      "anonymous": false,
      "inputs": [
        {
          "indexed": true,
          "internalType": "address",
          "name": "operator",
          "type": "address"
        },
        {
          "indexed": true,
          "internalType": "address",
          "name": "from",
          "type": "address"
        },
        {
          "indexed": true,
          "internalType": "address",
          "name": "to",
          "type": "address"
        },
        {
          "indexed": false,
          "internalType": "uint256[]",
          "name": "ids",
          "type": "uint256[]"
        },
        {
          "indexed": false,
          "internalType": "uint256[]",
          "name": "values",
          "type": "uint256[]"
        }
      ],
      "name": "TransferBatch",
      "type": "event"
    },
    {
      "anonymous": false,
      "inputs": [
        {
          "indexed": true,
          "internalType": "address",
          "name": "operator",
          "type": "address"
        },
        {
          "indexed": true,
          "internalType": "address",
          "name": "from",
          "type": "address"
        },
        {
          "indexed": true,
          "internalType": "address",
          "name": "to",
          "type": "address"
        },
        {
          "indexed": false,
          "internalType": "uint256",
          "name": "id",
          "type": "uint256"
        },
        {
          "indexed": false,
          "internalType": "uint256",
          "name": "value",
          "type": "uint256"
        }
      ],
      "name": "TransferSingle",
      "type": "event"
    },
    {
      "anonymous": false,
      "inputs": [
        {
          "indexed": false,
          "internalType": "string",
          "name": "value",
          "type": "string"
        },
        {
          "indexed": true,
          "internalType": "uint256",
          "name": "id",
          "type": "uint256"
        }
      ],
      "name": "URI",
      "type": "event"
    },
    {
      "anonymous": false,
      "inputs": [
        {
          "indexed": false,
          "internalType": "address",
          "name": "addr",
          "type": "address"
        }
      ],
      "name": "WhitelistedAddressAdded",
      "type": "event"
    },
    {
      "anonymous": false,
      "inputs": [
        {
          "indexed": false,
          "internalType": "address",
          "name": "addr",
          "type": "address"
        }
      ],
      "name": "WhitelistedAddressRemoved",
      "type": "event"
    },
    {
      "anonymous": false,
      "inputs": [
        {
          "indexed": false,
          "internalType": "uint256[5]",
          "name": "",
          "type": "uint256[5]"
        },
        {
          "indexed": false,
          "internalType": "address",
          "name": "signer",
          "type": "address"
        }
      ],
      "name": "packBurned",
      "type": "event"
    },
    {
      "anonymous": false,
      "inputs": [
        {
          "indexed": false,
          "internalType": "address",
          "name": "signer",
          "type": "address"
        },
        {
          "indexed": false,
          "internalType": "uint256",
          "name": "id",
          "type": "uint256"
        }
      ],
      "name": "packMinted",
      "type": "event"
    },
    {
      "inputs": [],
      "name": "REVEAL_TIMESTAMP",
      "outputs": [
        {
          "internalType": "uint256",
          "name": "",
          "type": "uint256"
        }
      ],
      "stateMutability": "view",
      "type": "function"
    },
    {
      "inputs": [
        {
          "internalType": "address",
          "name": "addr",
          "type": "address"
        }
      ],
      "name": "addAddressToWhitelist",
      "outputs": [
        {
          "internalType": "bool",
          "name": "success",
          "type": "bool"
        }
      ],
      "stateMutability": "nonpayable",
      "type": "function"
    },
    {
      "inputs": [
        {
          "internalType": "address[]",
          "name": "addrs",
          "type": "address[]"
        }
      ],
      "name": "addAddressesToWhitelist",
      "outputs": [
        {
          "internalType": "bool",
          "name": "success",
          "type": "bool"
        }
      ],
      "stateMutability": "nonpayable",
      "type": "function"
    },
    {
      "inputs": [
        {
          "internalType": "address",
          "name": "_user",
          "type": "address"
        }
      ],
      "name": "addUserToWhitelist",
      "outputs": [],
      "stateMutability": "nonpayable",
      "type": "function"
    },
    {
      "inputs": [
        {
          "internalType": "address",
          "name": "account",
          "type": "address"
        },
        {
          "internalType": "uint256",
          "name": "id",
          "type": "uint256"
        }
      ],
      "name": "balanceOf",
      "outputs": [
        {
          "internalType": "uint256",
          "name": "",
          "type": "uint256"
        }
      ],
      "stateMutability": "view",
      "type": "function"
    },
    {
      "inputs": [
        {
          "internalType": "address[]",
          "name": "accounts",
          "type": "address[]"
        },
        {
          "internalType": "uint256[]",
          "name": "ids",
          "type": "uint256[]"
        }
      ],
      "name": "balanceOfBatch",
      "outputs": [
        {
          "internalType": "uint256[]",
          "name": "",
          "type": "uint256[]"
        }
      ],
      "stateMutability": "view",
      "type": "function"
    },
    {
      "inputs": [],
      "name": "burnStarterPack",
      "outputs": [],
      "stateMutability": "nonpayable",
      "type": "function"
    },
    {
      "inputs": [],
      "name": "getNFTPerAthlete",
      "outputs": [
        {
          "internalType": "uint256",
          "name": "",
          "type": "uint256"
        }
      ],
      "stateMutability": "view",
      "type": "function"
    },
    {
      "inputs": [],
      "name": "getNumWhitelisted",
      "outputs": [
        {
          "internalType": "uint256",
          "name": "",
          "type": "uint256"
        }
      ],
      "stateMutability": "view",
      "type": "function"
    },
    {
      "inputs": [],
      "name": "getWhitelistedUsers",
      "outputs": [
        {
          "internalType": "uint256",
          "name": "",
          "type": "uint256"
        }
      ],
      "stateMutability": "view",
      "type": "function"
    },
    {
      "inputs": [
        {
          "internalType": "address",
          "name": "account",
          "type": "address"
        },
        {
          "internalType": "address",
          "name": "operator",
          "type": "address"
        }
      ],
      "name": "isApprovedForAll",
      "outputs": [
        {
          "internalType": "bool",
          "name": "",
          "type": "bool"
        }
      ],
      "stateMutability": "view",
      "type": "function"
    },
    {
      "inputs": [],
      "name": "isPublic",
      "outputs": [
        {
          "internalType": "bool",
          "name": "",
          "type": "bool"
        }
      ],
      "stateMutability": "view",
      "type": "function"
    },
    {
      "inputs": [
        {
          "internalType": "uint256",
          "name": "index",
          "type": "uint256"
        }
      ],
      "name": "mintAthlete",
      "outputs": [],
      "stateMutability": "nonpayable",
      "type": "function"
    },
    {
      "inputs": [],
      "name": "mintStarterPack",
      "outputs": [],
      "stateMutability": "nonpayable",
      "type": "function"
    },
    {
      "inputs": [],
      "name": "name",
      "outputs": [
        {
          "internalType": "string",
          "name": "",
          "type": "string"
        }
      ],
      "stateMutability": "view",
      "type": "function"
    },
    {
      "inputs": [],
      "name": "owner",
      "outputs": [
        {
          "internalType": "address",
          "name": "",
          "type": "address"
        }
      ],
      "stateMutability": "view",
      "type": "function"
    },
    {
      "inputs": [],
      "name": "packsAvailable",
      "outputs": [
        {
          "internalType": "uint256",
          "name": "",
          "type": "uint256"
        }
      ],
      "stateMutability": "view",
      "type": "function"
    },
    {
      "inputs": [],
      "name": "packsReadyToOpen",
      "outputs": [
        {
          "internalType": "bool",
          "name": "",
          "type": "bool"
        }
      ],
      "stateMutability": "view",
      "type": "function"
    },
    {
      "inputs": [
        {
          "internalType": "address",
          "name": "addr",
          "type": "address"
        }
      ],
      "name": "removeAddressFromWhitelist",
      "outputs": [
        {
          "internalType": "bool",
          "name": "success",
          "type": "bool"
        }
      ],
      "stateMutability": "nonpayable",
      "type": "function"
    },
    {
      "inputs": [
        {
          "internalType": "address[]",
          "name": "addrs",
          "type": "address[]"
        }
      ],
      "name": "removeAddressesFromWhitelist",
      "outputs": [
        {
          "internalType": "bool",
          "name": "success",
          "type": "bool"
        }
      ],
      "stateMutability": "nonpayable",
      "type": "function"
    },
    {
      "inputs": [
        {
          "internalType": "address",
          "name": "_user",
          "type": "address"
        }
      ],
      "name": "removeUserFromWhitelist",
      "outputs": [],
      "stateMutability": "nonpayable",
      "type": "function"
    },
    {
      "inputs": [],
      "name": "renounceOwnership",
      "outputs": [],
      "stateMutability": "nonpayable",
      "type": "function"
    },
    {
      "inputs": [
        {
          "internalType": "address",
          "name": "from",
          "type": "address"
        },
        {
          "internalType": "address",
          "name": "to",
          "type": "address"
        },
        {
          "internalType": "uint256[]",
          "name": "ids",
          "type": "uint256[]"
        },
        {
          "internalType": "uint256[]",
          "name": "amounts",
          "type": "uint256[]"
        },
        {
          "internalType": "bytes",
          "name": "data",
          "type": "bytes"
        }
      ],
      "name": "safeBatchTransferFrom",
      "outputs": [],
      "stateMutability": "nonpayable",
      "type": "function"
    },
    {
      "inputs": [
        {
          "internalType": "address",
          "name": "from",
          "type": "address"
        },
        {
          "internalType": "address",
          "name": "to",
          "type": "address"
        },
        {
          "internalType": "uint256",
          "name": "id",
          "type": "uint256"
        },
        {
          "internalType": "uint256",
          "name": "amount",
          "type": "uint256"
        },
        {
          "internalType": "bytes",
          "name": "data",
          "type": "bytes"
        }
      ],
      "name": "safeTransferFrom",
      "outputs": [],
      "stateMutability": "nonpayable",
      "type": "function"
    },
    {
      "inputs": [
        {
          "internalType": "address",
          "name": "operator",
          "type": "address"
        },
        {
          "internalType": "bool",
          "name": "approved",
          "type": "bool"
        }
      ],
      "name": "setApprovalForAll",
      "outputs": [],
      "stateMutability": "nonpayable",
      "type": "function"
    },
    {
      "inputs": [],
      "name": "setPacksReady",
      "outputs": [],
      "stateMutability": "nonpayable",
      "type": "function"
    },
    {
      "inputs": [],
      "name": "setStartingIndex",
      "outputs": [],
      "stateMutability": "nonpayable",
      "type": "function"
    },
    {
      "inputs": [
        {
          "internalType": "uint256",
          "name": "tokenId",
          "type": "uint256"
        },
        {
          "internalType": "string",
          "name": "uri",
          "type": "string"
        }
      ],
      "name": "setTokenUri",
      "outputs": [],
      "stateMutability": "nonpayable",
      "type": "function"
    },
    {
      "inputs": [],
      "name": "setURIs",
      "outputs": [],
      "stateMutability": "nonpayable",
      "type": "function"
    },
    {
      "inputs": [
        {
          "internalType": "bytes4",
          "name": "interfaceId",
          "type": "bytes4"
        }
      ],
      "name": "supportsInterface",
      "outputs": [
        {
          "internalType": "bool",
          "name": "",
          "type": "bool"
        }
      ],
      "stateMutability": "view",
      "type": "function"
    },
    {
      "inputs": [
        {
          "internalType": "address",
          "name": "newOwner",
          "type": "address"
        }
      ],
      "name": "transferOwnership",
      "outputs": [],
      "stateMutability": "nonpayable",
      "type": "function"
    },
    {
      "inputs": [
        {
          "internalType": "uint256",
          "name": "tokenId",
          "type": "uint256"
        }
      ],
      "name": "uri",
      "outputs": [
        {
          "internalType": "string",
          "name": "",
          "type": "string"
        }
      ],
      "stateMutability": "view",
      "type": "function"
    },
    {
      "inputs": [
        {
          "internalType": "address",
          "name": "",
          "type": "address"
        }
      ],
      "name": "whitelist",
      "outputs": [
        {
          "internalType": "bool",
          "name": "",
          "type": "bool"
        }
      ],
      "stateMutability": "view",
      "type": "function"
    }
  ],
  "bytecode": "0x60806040526127106012556040518060400160405280600881526020017f5465616d44696666000000000000000000000000000000000000000000000000815250601390805190602001906200005792919062000342565b506001601460006101000a81548160ff02191690831515021790555060405180602001604052806000815250601a90805190602001906200009a92919062000342565b50348015620000a857600080fd5b5060405162006a4338038062006a438339818101604052810190620000ce919062000574565b6040518060400160405280600281526020017f544400000000000000000000000000000000000000000000000000000000000081525062000115816200025860201b60201c565b50620001366200012a6200027460201b60201c565b6200027c60201b60201c565b8360000151600f8190555083602001516010819055508360400151600a819055508360600151600b819055508360800151600c819055508360a00151600d819055508360c00151600e8190555082600790805190602001906200019b92919062000342565b508160089080519060200190620001b492919062000342565b508060099080519060200190620001cd92919062000342565b508360e00151601281905550600e54602381905550604051620001f090620003d3565b604051809103906000f0801580156200020d573d6000803e3d6000fd5b50602460006101000a81548173ffffffffffffffffffffffffffffffffffffffff021916908373ffffffffffffffffffffffffffffffffffffffff16021790555050505050620007f4565b80600290805190602001906200027092919062000342565b5050565b600033905090565b6000600360009054906101000a900473ffffffffffffffffffffffffffffffffffffffff16905081600360006101000a81548173ffffffffffffffffffffffffffffffffffffffff021916908373ffffffffffffffffffffffffffffffffffffffff1602179055508173ffffffffffffffffffffffffffffffffffffffff168173ffffffffffffffffffffffffffffffffffffffff167f8be0079c531659141344cd1fd0a4f28419497f9722a3daafe3b4186f6b6457e060405160405180910390a35050565b8280546200035090620006e6565b90600052602060002090601f016020900481019282620003745760008555620003c0565b82601f106200038f57805160ff1916838001178555620003c0565b82800160010185558215620003c0579182015b82811115620003bf578251825591602001919060010190620003a2565b5b509050620003cf9190620003e1565b5090565b610ffc8062005a4783390190565b5b80821115620003fc576000816000905550600101620003e2565b5090565b600062000417620004118462000670565b62000647565b905082815260208101848484011115620004365762000435620007ba565b5b62000443848285620006b0565b509392505050565b600082601f830112620004635762000462620007b0565b5b81516200047584826020860162000400565b91505092915050565b60006101008284031215620004985762000497620007b5565b5b620004a561010062000647565b90506000620004b7848285016200055d565b6000830152506020620004cd848285016200055d565b6020830152506040620004e3848285016200055d565b6040830152506060620004f9848285016200055d565b60608301525060806200050f848285016200055d565b60808301525060a062000525848285016200055d565b60a08301525060c06200053b848285016200055d565b60c08301525060e062000551848285016200055d565b60e08301525092915050565b6000815190506200056e81620007da565b92915050565b6000806000806101608587031215620005925762000591620007c4565b5b6000620005a2878288016200047e565b94505061010085015167ffffffffffffffff811115620005c757620005c6620007bf565b5b620005d5878288016200044b565b93505061012085015167ffffffffffffffff811115620005fa57620005f9620007bf565b5b62000608878288016200044b565b92505061014085015167ffffffffffffffff8111156200062d576200062c620007bf565b5b6200063b878288016200044b565b91505092959194509250565b60006200065362000666565b90506200066182826200071c565b919050565b6000604051905090565b600067ffffffffffffffff8211156200068e576200068d62000781565b5b6200069982620007c9565b9050602081019050919050565b6000819050919050565b60005b83811015620006d0578082015181840152602081019050620006b3565b83811115620006e0576000848401525b50505050565b60006002820490506001821680620006ff57607f821691505b6020821081141562000716576200071562000752565b5b50919050565b6200072782620007c9565b810181811067ffffffffffffffff8211171562000749576200074862000781565b5b80604052505050565b7f4e487b7100000000000000000000000000000000000000000000000000000000600052602260045260246000fd5b7f4e487b7100000000000000000000000000000000000000000000000000000000600052604160045260246000fd5b600080fd5b600080fd5b600080fd5b600080fd5b600080fd5b6000601f19601f8301169050919050565b620007e581620006a6565b8114620007f157600080fd5b50565b61524380620008046000396000f3fe608060405234801561001057600080fd5b50600436106101fa5760003560e01c8063747b80501161011a578063be59ec26116100ad578063e985e9c51161007c578063e985e9c51461057b578063e9866550146105ab578063f242432a146105b5578063f2fde38b146105d1578063f9902bb1146105ed576101fa565b8063be59ec26146104f1578063d759000b1461050f578063dc9a15351461052d578063e2ec6ec31461054b576101fa565b80639b19251a116100e95780639b19251a146104915780639ebf488b146104c1578063a22cb465146104cb578063bbb13e17146104e7576101fa565b8063747b80501461040b5780637b9417c8146104275780638da5cb5b146104575780639a25ab8314610475576101fa565b8063286dd3f51161019257806350bfc4491161016157806350bfc449146103bd57806357f7789e146103db5780635d2db2bf146103f7578063715018a614610401576101fa565b8063286dd3f5146103235780632eb2c2d61461035357806344eaa84e1461036f5780634e1273f41461038d576101fa565b8063143cc144116101ce578063143cc144146102ad57806318e20a38146102cb57806319b60439146102e957806324953eaa146102f3576101fa565b8062fdd58e146101ff57806301ffc9a71461022f57806306fdde031461025f5780630e89341c1461027d575b600080fd5b6102196004803603810190610214919061379b565b610609565b6040516102269190614481565b60405180910390f35b610249600480360381019061024491906138c9565b6106d2565b6040516102569190614184565b60405180910390f35b6102676107b4565b604051610274919061419f565b60405180910390f35b61029760048036038101906102929190613923565b610842565b6040516102a4919061419f565b60405180910390f35b6102b56108e7565b6040516102c29190614481565b60405180910390f35b6102d361096d565b6040516102e09190614481565b60405180910390f35b6102f1610973565b005b61030d600480360381019061030891906137db565b610a1b565b60405161031a9190614184565b60405180910390f35b61033d60048036038101906103389190613588565b610b05565b60405161034a9190614184565b60405180910390f35b61036d600480360381019061036891906135f5565b610c88565b005b610377610d29565b6040516103849190614481565b60405180910390f35b6103a760048036038101906103a29190613824565b610d33565b6040516103b4919061412b565b60405180910390f35b6103c5610e4c565b6040516103d29190614481565b60405180910390f35b6103f560048036038101906103f0919061397d565b610f96565b005b6103ff6110a0565b005b6104096111bf565b005b61042560048036038101906104209190613588565b611247565b005b610441600480360381019061043c9190613588565b611374565b60405161044e9190614184565b60405180910390f35b61045f6114f6565b60405161046c9190613ffc565b60405180910390f35b61048f600480360381019061048a9190613923565b611520565b005b6104ab60048036038101906104a69190613588565b61161b565b6040516104b89190614184565b60405180910390f35b6104c961163b565b005b6104e560048036038101906104e0919061375b565b61182b565b005b6104ef611841565b005b6104f9611a21565b6040516105069190614184565b60405180910390f35b610517611a34565b6040516105249190614481565b60405180910390f35b610535611a3a565b6040516105429190614184565b60405180910390f35b610565600480360381019061056091906137db565b611a4d565b6040516105729190614184565b60405180910390f35b610595600480360381019061059091906135b5565b611b37565b6040516105a29190614184565b60405180910390f35b6105b3611bcb565b005b6105cf60048036038101906105ca91906136c4565b611ca2565b005b6105eb60048036038101906105e69190613588565b611d43565b005b61060760048036038101906106029190613588565b611e3b565b005b60008073ffffffffffffffffffffffffffffffffffffffff168373ffffffffffffffffffffffffffffffffffffffff16141561067a576040517f08c379a000000000000000000000000000000000000000000000000000000000815260040161067190614201565b60405180910390fd5b60008083815260200190815260200160002060008473ffffffffffffffffffffffffffffffffffffffff1673ffffffffffffffffffffffffffffffffffffffff16815260200190815260200160002054905092915050565b60007fd9b67a26000000000000000000000000000000000000000000000000000000007bffffffffffffffffffffffffffffffffffffffffffffffffffffffff1916827bffffffffffffffffffffffffffffffffffffffffffffffffffffffff1916148061079d57507f0e89341c000000000000000000000000000000000000000000000000000000007bffffffffffffffffffffffffffffffffffffffffffffffffffffffff1916827bffffffffffffffffffffffffffffffffffffffffffffffffffffffff1916145b806107ad57506107ac82611f68565b5b9050919050565b601380546107c19061483a565b80601f01602080910402602001604051908101604052809291908181526020018280546107ed9061483a565b801561083a5780601f1061080f5761010080835404028352916020019161083a565b820191906000526020600020905b81548152906001019060200180831161081d57829003601f168201915b505050505081565b60606025600083815260200190815260200160002080546108629061483a565b80601f016020809104026020016040519081016040528092919081815260200182805461088e9061483a565b80156108db5780601f106108b0576101008083540402835291602001916108db565b820191906000526020600020905b8154815290600101906020018083116108be57829003601f168201915b50505050509050919050565b60006108f1611fd2565b73ffffffffffffffffffffffffffffffffffffffff1661090f6114f6565b73ffffffffffffffffffffffffffffffffffffffff1614610965576040517f08c379a000000000000000000000000000000000000000000000000000000000815260040161095c90614361565b60405180910390fd5b601054905090565b60125481565b61097b611fd2565b73ffffffffffffffffffffffffffffffffffffffff166109996114f6565b73ffffffffffffffffffffffffffffffffffffffff16146109ef576040517f08c379a00000000000000000000000000000000000000000000000000000000081526004016109e690614361565b60405180910390fd5b601460009054906101000a900460ff1615601460006101000a81548160ff021916908315150217905550565b6000610a25611fd2565b73ffffffffffffffffffffffffffffffffffffffff16610a436114f6565b73ffffffffffffffffffffffffffffffffffffffff1614610a99576040517f08c379a0000000000000000000000000000000000000000000000000000000008152600401610a9090614361565b60405180910390fd5b60005b8251811015610aff57610ac8838281518110610abb57610aba6149fc565b5b6020026020010151610b05565b15610aec57600160056000828254610ae09190614743565b92505081905550600191505b8080610af79061489d565b915050610a9c565b50919050565b6000610b0f611fd2565b73ffffffffffffffffffffffffffffffffffffffff16610b2d6114f6565b73ffffffffffffffffffffffffffffffffffffffff1614610b83576040517f08c379a0000000000000000000000000000000000000000000000000000000008152600401610b7a90614361565b60405180910390fd5b600460008373ffffffffffffffffffffffffffffffffffffffff1673ffffffffffffffffffffffffffffffffffffffff16815260200190815260200160002060009054906101000a900460ff1615610c83576000600460008473ffffffffffffffffffffffffffffffffffffffff1673ffffffffffffffffffffffffffffffffffffffff16815260200190815260200160002060006101000a81548160ff0219169083151502179055507ff1abf01a1043b7c244d128e8595cf0c1d10743b022b03a02dffd8ca3bf729f5a82604051610c5c9190613ffc565b60405180910390a1600160056000828254610c779190614743565b92505081905550600190505b919050565b610c90611fd2565b73ffffffffffffffffffffffffffffffffffffffff168573ffffffffffffffffffffffffffffffffffffffff161480610cd65750610cd585610cd0611fd2565b611b37565b5b610d15576040517f08c379a0000000000000000000000000000000000000000000000000000000008152600401610d0c906142e1565b60405180910390fd5b610d228585858585611fda565b5050505050565b6000600554905090565b60608151835114610d79576040517f08c379a0000000000000000000000000000000000000000000000000000000008152600401610d7090614421565b60405180910390fd5b6000835167ffffffffffffffff811115610d9657610d95614a2b565b5b604051908082528060200260200182016040528015610dc45781602001602082028036833780820191505090505b50905060005b8451811015610e4157610e11858281518110610de957610de86149fc565b5b6020026020010151858381518110610e0457610e036149fc565b5b6020026020010151610609565b828281518110610e2457610e236149fc565b5b60200260200101818152505080610e3a9061489d565b9050610dca565b508091505092915050565b6000600460003373ffffffffffffffffffffffffffffffffffffffff1673ffffffffffffffffffffffffffffffffffffffff16815260200190815260200160002060009054906101000a900460ff1680610eb25750600660009054906101000a900460ff165b610ef1576040517f08c379a0000000000000000000000000000000000000000000000000000000008152600401610ee890614281565b60405180910390fd5b602460009054906101000a900473ffffffffffffffffffffffffffffffffffffffff1673ffffffffffffffffffffffffffffffffffffffff166344eaa84e6040518163ffffffff1660e01b815260040160206040518083038186803b158015610f5957600080fd5b505afa158015610f6d573d6000803e3d6000fd5b505050506040513d601f19601f82011682018060405250810190610f919190613950565b905090565b610f9e611fd2565b73ffffffffffffffffffffffffffffffffffffffff16610fbc6114f6565b73ffffffffffffffffffffffffffffffffffffffff1614611012576040517f08c379a000000000000000000000000000000000000000000000000000000000815260040161100990614361565b60405180910390fd5b60006025600084815260200190815260200160002080546110329061483a565b905014611074576040517f08c379a000000000000000000000000000000000000000000000000000000000815260040161106b90614301565b60405180910390fd5b8060256000848152602001908152602001600020908051906020019061109b929190613214565b505050565b6110a8611fd2565b73ffffffffffffffffffffffffffffffffffffffff166110c66114f6565b73ffffffffffffffffffffffffffffffffffffffff161461111c576040517f08c379a000000000000000000000000000000000000000000000000000000000815260040161111390614361565b60405180910390fd5b60005b600f54811015611190576000600f548260195461113c9190614662565b611146919061493e565b905061117c816007611157846122ee565b604051602001611168929190613f6e565b604051602081830303815290604052610f96565b5080806111889061489d565b91505061111f565b506111bd600f5460086040516020016111a99190613f57565b604051602081830303815290604052610f96565b565b6111c7611fd2565b73ffffffffffffffffffffffffffffffffffffffff166111e56114f6565b73ffffffffffffffffffffffffffffffffffffffff161461123b576040517f08c379a000000000000000000000000000000000000000000000000000000000815260040161123290614361565b60405180910390fd5b611245600061244f565b565b61124f611fd2565b73ffffffffffffffffffffffffffffffffffffffff1661126d6114f6565b73ffffffffffffffffffffffffffffffffffffffff16146112c3576040517f08c379a00000000000000000000000000000000000000000000000000000000081526004016112ba90614361565b60405180910390fd5b602460009054906101000a900473ffffffffffffffffffffffffffffffffffffffff1673ffffffffffffffffffffffffffffffffffffffff16637b9417c8826040518263ffffffff1660e01b815260040161131e9190613ffc565b602060405180830381600087803b15801561133857600080fd5b505af115801561134c573d6000803e3d6000fd5b505050506040513d601f19601f82011682018060405250810190611370919061389c565b5050565b600061137e611fd2565b73ffffffffffffffffffffffffffffffffffffffff1661139c6114f6565b73ffffffffffffffffffffffffffffffffffffffff16146113f2576040517f08c379a00000000000000000000000000000000000000000000000000000000081526004016113e990614361565b60405180910390fd5b600460008373ffffffffffffffffffffffffffffffffffffffff1673ffffffffffffffffffffffffffffffffffffffff16815260200190815260200160002060009054906101000a900460ff166114f1576001600460008473ffffffffffffffffffffffffffffffffffffffff1673ffffffffffffffffffffffffffffffffffffffff16815260200190815260200160002060006101000a81548160ff0219169083151502179055507fd1bba68c128cc3f427e5831b3c6f99f480b6efa6b9e80c757768f6124158cc3f826040516114ca9190613ffc565b60405180910390a16001600560008282546114e59190614662565b92505081905550600190505b919050565b6000600360009054906101000a900473ffffffffffffffffffffffffffffffffffffffff16905090565b601054600f5461153091906146e9565b601754101561161857601054602660008381526020019081526020016000205410611590576040517f08c379a0000000000000000000000000000000000000000000000000000000008152600401611587906142a1565b60405180910390fd5b6115d2338260016040518060400160405280600481526020017f3078303000000000000000000000000000000000000000000000000000000000815250612515565b60016026600083815260200190815260200160002060008282546115f69190614662565b925050819055506001601760008282546116109190614662565b925050819055505b50565b60046020528060005260406000206000915054906101000a900460ff1681565b600460003373ffffffffffffffffffffffffffffffffffffffff1673ffffffffffffffffffffffffffffffffffffffff16815260200190815260200160002060009054906101000a900460ff168061169f5750600660009054906101000a900460ff165b6116de576040517f08c379a00000000000000000000000000000000000000000000000000000000081526004016116d590614281565b60405180910390fd5b6000600f549050600e546015541061172b576040517f08c379a0000000000000000000000000000000000000000000000000000000008152600401611722906143a1565b60405180910390fd5b60016117373383610609565b10611777576040517f08c379a000000000000000000000000000000000000000000000000000000000815260040161176e906143e1565b60405180910390fd5b6117b9338260016040518060400160405280600481526020017f3078303000000000000000000000000000000000000000000000000000000000815250612515565b6001601560008282546117cc9190614662565b925050819055506001602360008282546117e69190614743565b925050819055507f2e0f4d63dcc00e6a11c8aef9f6e15c1f9cd6e9a090b2dd99c7b797f1a28d300d336015546040516118209291906140d9565b60405180910390a150565b61183d611836611fd2565b83836126ab565b5050565b600460003373ffffffffffffffffffffffffffffffffffffffff1673ffffffffffffffffffffffffffffffffffffffff16815260200190815260200160002060009054906101000a900460ff16806118a55750600660009054906101000a900460ff165b6118e4576040517f08c379a00000000000000000000000000000000000000000000000000000000081526004016118db90614281565b60405180910390fd5b6000600f549050601460009054906101000a900460ff1661193a576040517f08c379a0000000000000000000000000000000000000000000000000000000008152600401611931906143c1565b60405180910390fd5b60016119463383610609565b14611986576040517f08c379a000000000000000000000000000000000000000000000000000000000815260040161197d90614381565b60405180910390fd5b6000611990612818565b905060005b60058160ff1610156119d7576119c4828260ff16600581106119ba576119b96149fc565b5b6020020151611520565b80806119cf906148e6565b915050611995565b506119e4338360016128fc565b7f15abe0b63b201b70614c230381f0fabc4a26a1957629948558095a11db1d6fb58133604051611a15929190614102565b60405180910390a15050565b601460009054906101000a900460ff1681565b60235481565b600660009054906101000a900460ff1681565b6000611a57611fd2565b73ffffffffffffffffffffffffffffffffffffffff16611a756114f6565b73ffffffffffffffffffffffffffffffffffffffff1614611acb576040517f08c379a0000000000000000000000000000000000000000000000000000000008152600401611ac290614361565b60405180910390fd5b60005b8251811015611b3157611afa838281518110611aed57611aec6149fc565b5b6020026020010151611374565b15611b1e57600160056000828254611b129190614662565b92505081905550600191505b8080611b299061489d565b915050611ace565b50919050565b6000600160008473ffffffffffffffffffffffffffffffffffffffff1673ffffffffffffffffffffffffffffffffffffffff16815260200190815260200160002060008373ffffffffffffffffffffffffffffffffffffffff1673ffffffffffffffffffffffffffffffffffffffff16815260200190815260200160002060009054906101000a900460ff16905092915050565b611bd3611fd2565b73ffffffffffffffffffffffffffffffffffffffff16611bf16114f6565b73ffffffffffffffffffffffffffffffffffffffff1614611c47576040517f08c379a0000000000000000000000000000000000000000000000000000000008152600401611c3e90614361565b60405180910390fd5b601054600f54611c5791906146e9565b600143611c649190614743565b4060001c611c72919061493e565b60198190555060006019541415611ca057611c996001601954612b1990919063ffffffff16565b6019819055505b565b611caa611fd2565b73ffffffffffffffffffffffffffffffffffffffff168573ffffffffffffffffffffffffffffffffffffffff161480611cf05750611cef85611cea611fd2565b611b37565b5b611d2f576040517f08c379a0000000000000000000000000000000000000000000000000000000008152600401611d2690614261565b60405180910390fd5b611d3c8585858585612b2f565b5050505050565b611d4b611fd2565b73ffffffffffffffffffffffffffffffffffffffff16611d696114f6565b73ffffffffffffffffffffffffffffffffffffffff1614611dbf576040517f08c379a0000000000000000000000000000000000000000000000000000000008152600401611db690614361565b60405180910390fd5b600073ffffffffffffffffffffffffffffffffffffffff168173ffffffffffffffffffffffffffffffffffffffff161415611e2f576040517f08c379a0000000000000000000000000000000000000000000000000000000008152600401611e2690614221565b60405180910390fd5b611e388161244f565b50565b611e43611fd2565b73ffffffffffffffffffffffffffffffffffffffff16611e616114f6565b73ffffffffffffffffffffffffffffffffffffffff1614611eb7576040517f08c379a0000000000000000000000000000000000000000000000000000000008152600401611eae90614361565b60405180910390fd5b602460009054906101000a900473ffffffffffffffffffffffffffffffffffffffff1673ffffffffffffffffffffffffffffffffffffffff1663286dd3f5826040518263ffffffff1660e01b8152600401611f129190613ffc565b602060405180830381600087803b158015611f2c57600080fd5b505af1158015611f40573d6000803e3d6000fd5b505050506040513d601f19601f82011682018060405250810190611f64919061389c565b5050565b60007f01ffc9a7000000000000000000000000000000000000000000000000000000007bffffffffffffffffffffffffffffffffffffffffffffffffffffffff1916827bffffffffffffffffffffffffffffffffffffffffffffffffffffffff1916149050919050565b600033905090565b815183511461201e576040517f08c379a000000000000000000000000000000000000000000000000000000000815260040161201590614441565b60405180910390fd5b600073ffffffffffffffffffffffffffffffffffffffff168473ffffffffffffffffffffffffffffffffffffffff16141561208e576040517f08c379a0000000000000000000000000000000000000000000000000000000008152600401612085906142c1565b60405180910390fd5b6000612098611fd2565b90506120a8818787878787612db1565b60005b84518110156122595760008582815181106120c9576120c86149fc565b5b6020026020010151905060008583815181106120e8576120e76149fc565b5b60200260200101519050600080600084815260200190815260200160002060008b73ffffffffffffffffffffffffffffffffffffffff1673ffffffffffffffffffffffffffffffffffffffff16815260200190815260200160002054905081811015612189576040517f08c379a000000000000000000000000000000000000000000000000000000000815260040161218090614341565b60405180910390fd5b81810360008085815260200190815260200160002060008c73ffffffffffffffffffffffffffffffffffffffff1673ffffffffffffffffffffffffffffffffffffffff168152602001908152602001600020819055508160008085815260200190815260200160002060008b73ffffffffffffffffffffffffffffffffffffffff1673ffffffffffffffffffffffffffffffffffffffff168152602001908152602001600020600082825461223e9190614662565b92505081905550505050806122529061489d565b90506120ab565b508473ffffffffffffffffffffffffffffffffffffffff168673ffffffffffffffffffffffffffffffffffffffff168273ffffffffffffffffffffffffffffffffffffffff167f4a39dc06d4c0dbc64b70af90fd698a233a518aa5d07e595d983b8c0526c8f7fb87876040516122d092919061414d565b60405180910390a46122e6818787878787612db9565b505050505050565b60606000821415612336576040518060400160405280600181526020017f3000000000000000000000000000000000000000000000000000000000000000815250905061244a565b600082905060005b600082146123685780806123519061489d565b915050600a8261236191906146b8565b915061233e565b60008167ffffffffffffffff81111561238457612383614a2b565b5b6040519080825280601f01601f1916602001820160405280156123b65781602001600182028036833780820191505090505b5090505b60008514612443576001826123cf9190614743565b9150600a856123de919061493e565b60306123ea9190614662565b60f81b818381518110612400576123ff6149fc565b5b60200101907effffffffffffffffffffffffffffffffffffffffffffffffffffffffffffff1916908160001a905350600a8561243c91906146b8565b94506123ba565b8093505050505b919050565b6000600360009054906101000a900473ffffffffffffffffffffffffffffffffffffffff16905081600360006101000a81548173ffffffffffffffffffffffffffffffffffffffff021916908373ffffffffffffffffffffffffffffffffffffffff1602179055508173ffffffffffffffffffffffffffffffffffffffff168173ffffffffffffffffffffffffffffffffffffffff167f8be0079c531659141344cd1fd0a4f28419497f9722a3daafe3b4186f6b6457e060405160405180910390a35050565b600073ffffffffffffffffffffffffffffffffffffffff168473ffffffffffffffffffffffffffffffffffffffff161415612585576040517f08c379a000000000000000000000000000000000000000000000000000000000815260040161257c90614461565b60405180910390fd5b600061258f611fd2565b90506125b0816000876125a188612fa0565b6125aa88612fa0565b87612db1565b8260008086815260200190815260200160002060008773ffffffffffffffffffffffffffffffffffffffff1673ffffffffffffffffffffffffffffffffffffffff168152602001908152602001600020600082825461260f9190614662565b925050819055508473ffffffffffffffffffffffffffffffffffffffff16600073ffffffffffffffffffffffffffffffffffffffff168273ffffffffffffffffffffffffffffffffffffffff167fc3d58168c5ae7397731d063d5bbf3d657854427343f4c083240f7aacaa2d0f62878760405161268d92919061449c565b60405180910390a46126a48160008787878761301a565b5050505050565b8173ffffffffffffffffffffffffffffffffffffffff168373ffffffffffffffffffffffffffffffffffffffff16141561271a576040517f08c379a000000000000000000000000000000000000000000000000000000000815260040161271190614401565b60405180910390fd5b80600160008573ffffffffffffffffffffffffffffffffffffffff1673ffffffffffffffffffffffffffffffffffffffff16815260200190815260200160002060008473ffffffffffffffffffffffffffffffffffffffff1673ffffffffffffffffffffffffffffffffffffffff16815260200190815260200160002060006101000a81548160ff0219169083151502179055508173ffffffffffffffffffffffffffffffffffffffff168373ffffffffffffffffffffffffffffffffffffffff167f17307eab39ab6107e8899845ad3d59bd9653f200f220920489ca2b5937696c318360405161280b9190614184565b60405180910390a3505050565b61282061329a565b61282861329a565b60005b60058110156128f4576000600a8261284391906146e9565b905060006009600a8461285691906146e9565b6128609190614662565b905081600183836128719190614743565b61287b9190614662565b42334487601554604051602001612896959493929190613f9d565b6040516020818303038152906040528051906020012060001c6128b9919061493e565b6128c39190614662565b8484600581106128d6576128d56149fc565b5b602002018181525050505080806128ec9061489d565b91505061282b565b508091505090565b600073ffffffffffffffffffffffffffffffffffffffff168373ffffffffffffffffffffffffffffffffffffffff16141561296c576040517f08c379a000000000000000000000000000000000000000000000000000000000815260040161296390614321565b60405180910390fd5b6000612976611fd2565b90506129a68185600061298887612fa0565b61299187612fa0565b60405180602001604052806000815250612db1565b600080600085815260200190815260200160002060008673ffffffffffffffffffffffffffffffffffffffff1673ffffffffffffffffffffffffffffffffffffffff16815260200190815260200160002054905082811015612a3d576040517f08c379a0000000000000000000000000000000000000000000000000000000008152600401612a3490614241565b60405180910390fd5b82810360008086815260200190815260200160002060008773ffffffffffffffffffffffffffffffffffffffff1673ffffffffffffffffffffffffffffffffffffffff16815260200190815260200160002081905550600073ffffffffffffffffffffffffffffffffffffffff168573ffffffffffffffffffffffffffffffffffffffff168373ffffffffffffffffffffffffffffffffffffffff167fc3d58168c5ae7397731d063d5bbf3d657854427343f4c083240f7aacaa2d0f628787604051612b0a92919061449c565b60405180910390a45050505050565b60008183612b279190614662565b905092915050565b600073ffffffffffffffffffffffffffffffffffffffff168473ffffffffffffffffffffffffffffffffffffffff161415612b9f576040517f08c379a0000000000000000000000000000000000000000000000000000000008152600401612b96906142c1565b60405180910390fd5b6000612ba9611fd2565b9050612bc9818787612bba88612fa0565b612bc388612fa0565b87612db1565b600080600086815260200190815260200160002060008873ffffffffffffffffffffffffffffffffffffffff1673ffffffffffffffffffffffffffffffffffffffff16815260200190815260200160002054905083811015612c60576040517f08c379a0000000000000000000000000000000000000000000000000000000008152600401612c5790614341565b60405180910390fd5b83810360008087815260200190815260200160002060008973ffffffffffffffffffffffffffffffffffffffff1673ffffffffffffffffffffffffffffffffffffffff168152602001908152602001600020819055508360008087815260200190815260200160002060008873ffffffffffffffffffffffffffffffffffffffff1673ffffffffffffffffffffffffffffffffffffffff1681526020019081526020016000206000828254612d159190614662565b925050819055508573ffffffffffffffffffffffffffffffffffffffff168773ffffffffffffffffffffffffffffffffffffffff168373ffffffffffffffffffffffffffffffffffffffff167fc3d58168c5ae7397731d063d5bbf3d657854427343f4c083240f7aacaa2d0f628888604051612d9292919061449c565b60405180910390a4612da882888888888861301a565b50505050505050565b505050505050565b612dd88473ffffffffffffffffffffffffffffffffffffffff16613201565b15612f98578373ffffffffffffffffffffffffffffffffffffffff1663bc197c8187878686866040518663ffffffff1660e01b8152600401612e1e959493929190614017565b602060405180830381600087803b158015612e3857600080fd5b505af1925050508015612e6957506040513d601f19601f82011682018060405250810190612e6691906138f6565b60015b612f0f57612e75614a5a565b806308c379a01415612ed25750612e8a61511b565b80612e955750612ed4565b806040517f08c379a0000000000000000000000000000000000000000000000000000000008152600401612ec9919061419f565b60405180910390fd5b505b6040517f08c379a0000000000000000000000000000000000000000000000000000000008152600401612f06906141c1565b60405180910390fd5b63bc197c8160e01b7bffffffffffffffffffffffffffffffffffffffffffffffffffffffff1916817bffffffffffffffffffffffffffffffffffffffffffffffffffffffff191614612f96576040517f08c379a0000000000000000000000000000000000000000000000000000000008152600401612f8d906141e1565b60405180910390fd5b505b505050505050565b60606000600167ffffffffffffffff811115612fbf57612fbe614a2b565b5b604051908082528060200260200182016040528015612fed5781602001602082028036833780820191505090505b5090508281600081518110613005576130046149fc565b5b60200260200101818152505080915050919050565b6130398473ffffffffffffffffffffffffffffffffffffffff16613201565b156131f9578373ffffffffffffffffffffffffffffffffffffffff1663f23a6e6187878686866040518663ffffffff1660e01b815260040161307f95949392919061407f565b602060405180830381600087803b15801561309957600080fd5b505af19250505080156130ca57506040513d601f19601f820116820180604052508101906130c791906138f6565b60015b613170576130d6614a5a565b806308c379a0141561313357506130eb61511b565b806130f65750613135565b806040517f08c379a000000000000000000000000000000000000000000000000000000000815260040161312a919061419f565b60405180910390fd5b505b6040517f08c379a0000000000000000000000000000000000000000000000000000000008152600401613167906141c1565b60405180910390fd5b63f23a6e6160e01b7bffffffffffffffffffffffffffffffffffffffffffffffffffffffff1916817bffffffffffffffffffffffffffffffffffffffffffffffffffffffff1916146131f7576040517f08c379a00000000000000000000000000000000000000000000000000000000081526004016131ee906141e1565b60405180910390fd5b505b505050505050565b600080823b905060008111915050919050565b8280546132209061483a565b90600052602060002090601f0160209004810192826132425760008555613289565b82601f1061325b57805160ff1916838001178555613289565b82800160010185558215613289579182015b8281111561328857825182559160200191906001019061326d565b5b50905061329691906132bc565b5090565b6040518060a00160405280600590602082028036833780820191505090505090565b5b808211156132d55760008160009055506001016132bd565b5090565b60006132ec6132e7846144ea565b6144c5565b9050808382526020820190508285602086028201111561330f5761330e614a81565b5b60005b8581101561333f5781613325888261343d565b845260208401935060208301925050600181019050613312565b5050509392505050565b600061335c61335784614516565b6144c5565b9050808382526020820190508285602086028201111561337f5761337e614a81565b5b60005b858110156133af5781613395888261355e565b845260208401935060208301925050600181019050613382565b5050509392505050565b60006133cc6133c784614542565b6144c5565b9050828152602081018484840111156133e8576133e7614a86565b5b6133f38482856147f8565b509392505050565b600061340e61340984614573565b6144c5565b90508281526020810184848401111561342a57613429614a86565b5b6134358482856147f8565b509392505050565b60008135905061344c816151b1565b92915050565b600082601f83011261346757613466614a7c565b5b81356134778482602086016132d9565b91505092915050565b600082601f83011261349557613494614a7c565b5b81356134a5848260208601613349565b91505092915050565b6000813590506134bd816151c8565b92915050565b6000815190506134d2816151c8565b92915050565b6000813590506134e7816151df565b92915050565b6000815190506134fc816151df565b92915050565b600082601f83011261351757613516614a7c565b5b81356135278482602086016133b9565b91505092915050565b600082601f83011261354557613544614a7c565b5b81356135558482602086016133fb565b91505092915050565b60008135905061356d816151f6565b92915050565b600081519050613582816151f6565b92915050565b60006020828403121561359e5761359d614a90565b5b60006135ac8482850161343d565b91505092915050565b600080604083850312156135cc576135cb614a90565b5b60006135da8582860161343d565b92505060206135eb8582860161343d565b9150509250929050565b600080600080600060a0868803121561361157613610614a90565b5b600061361f8882890161343d565b95505060206136308882890161343d565b945050604086013567ffffffffffffffff81111561365157613650614a8b565b5b61365d88828901613480565b935050606086013567ffffffffffffffff81111561367e5761367d614a8b565b5b61368a88828901613480565b925050608086013567ffffffffffffffff8111156136ab576136aa614a8b565b5b6136b788828901613502565b9150509295509295909350565b600080600080600060a086880312156136e0576136df614a90565b5b60006136ee8882890161343d565b95505060206136ff8882890161343d565b94505060406137108882890161355e565b93505060606137218882890161355e565b925050608086013567ffffffffffffffff81111561374257613741614a8b565b5b61374e88828901613502565b9150509295509295909350565b6000806040838503121561377257613771614a90565b5b60006137808582860161343d565b9250506020613791858286016134ae565b9150509250929050565b600080604083850312156137b2576137b1614a90565b5b60006137c08582860161343d565b92505060206137d18582860161355e565b9150509250929050565b6000602082840312156137f1576137f0614a90565b5b600082013567ffffffffffffffff81111561380f5761380e614a8b565b5b61381b84828501613452565b91505092915050565b6000806040838503121561383b5761383a614a90565b5b600083013567ffffffffffffffff81111561385957613858614a8b565b5b61386585828601613452565b925050602083013567ffffffffffffffff81111561388657613885614a8b565b5b61389285828601613480565b9150509250929050565b6000602082840312156138b2576138b1614a90565b5b60006138c0848285016134c3565b91505092915050565b6000602082840312156138df576138de614a90565b5b60006138ed848285016134d8565b91505092915050565b60006020828403121561390c5761390b614a90565b5b600061391a848285016134ed565b91505092915050565b60006020828403121561393957613938614a90565b5b60006139478482850161355e565b91505092915050565b60006020828403121561396657613965614a90565b5b600061397484828501613573565b91505092915050565b6000806040838503121561399457613993614a90565b5b60006139a28582860161355e565b925050602083013567ffffffffffffffff8111156139c3576139c2614a8b565b5b6139cf85828601613530565b9150509250929050565b60006139e58383613f22565b60208301905092915050565b6139fa81614777565b82525050565b613a11613a0c82614777565b614910565b82525050565b613a20816145d3565b613a2a8184614619565b9250613a35826145a4565b8060005b83811015613a66578151613a4d87826139d9565b9650613a58836145ff565b925050600181019050613a39565b505050505050565b6000613a79826145de565b613a838185614624565b9350613a8e836145ae565b8060005b83811015613abf578151613aa688826139d9565b9750613ab18361460c565b925050600181019050613a92565b5085935050505092915050565b613ad581614789565b82525050565b6000613ae6826145e9565b613af08185614635565b9350613b00818560208601614807565b613b0981614a95565b840191505092915050565b6000613b1f826145f4565b613b298185614646565b9350613b39818560208601614807565b613b4281614a95565b840191505092915050565b6000613b58826145f4565b613b628185614657565b9350613b72818560208601614807565b80840191505092915050565b60008154613b8b8161483a565b613b958186614657565b94506001821660008114613bb05760018114613bc157613bf4565b60ff19831686528186019350613bf4565b613bca856145be565b60005b83811015613bec57815481890152600182019150602081019050613bcd565b838801955050505b50505092915050565b6000613c0a603483614646565b9150613c1582614ac0565b604082019050919050565b6000613c2d602883614646565b9150613c3882614b0f565b604082019050919050565b6000613c50602b83614646565b9150613c5b82614b5e565b604082019050919050565b6000613c73602683614646565b9150613c7e82614bad565b604082019050919050565b6000613c96602483614646565b9150613ca182614bfc565b604082019050919050565b6000613cb9602983614646565b9150613cc482614c4b565b604082019050919050565b6000613cdc601a83614646565b9150613ce782614c9a565b602082019050919050565b6000613cff602d83614646565b9150613d0a82614cc3565b604082019050919050565b6000613d22602583614646565b9150613d2d82614d12565b604082019050919050565b6000613d45603283614646565b9150613d5082614d61565b604082019050919050565b6000613d68601483614646565b9150613d7382614db0565b602082019050919050565b6000613d8b602383614646565b9150613d9682614dd9565b604082019050919050565b6000613dae602a83614646565b9150613db982614e28565b604082019050919050565b6000613dd1600583614657565b9150613ddc82614e77565b600582019050919050565b6000613df4602083614646565b9150613dff82614ea0565b602082019050919050565b6000613e17602f83614646565b9150613e2282614ec9565b604082019050919050565b6000613e3a602383614646565b9150613e4582614f18565b604082019050919050565b6000613e5d601f83614646565b9150613e6882614f67565b602082019050919050565b6000613e80602a83614646565b9150613e8b82614f90565b604082019050919050565b6000613ea3602983614646565b9150613eae82614fdf565b604082019050919050565b6000613ec6602983614646565b9150613ed18261502e565b604082019050919050565b6000613ee9602883614646565b9150613ef48261507d565b604082019050919050565b6000613f0c602183614646565b9150613f17826150cc565b604082019050919050565b613f2b816147e1565b82525050565b613f3a816147e1565b82525050565b613f51613f4c826147e1565b614934565b82525050565b6000613f638284613b7e565b915081905092915050565b6000613f7a8285613b7e565b9150613f868284613b4d565b9150613f9182613dc4565b91508190509392505050565b6000613fa98288613f40565b602082019150613fb98287613a00565b601482019150613fc98286613f40565b602082019150613fd98285613f40565b602082019150613fe98284613f40565b6020820191508190509695505050505050565b600060208201905061401160008301846139f1565b92915050565b600060a08201905061402c60008301886139f1565b61403960208301876139f1565b818103604083015261404b8186613a6e565b9050818103606083015261405f8185613a6e565b905081810360808301526140738184613adb565b90509695505050505050565b600060a08201905061409460008301886139f1565b6140a160208301876139f1565b6140ae6040830186613f31565b6140bb6060830185613f31565b81810360808301526140cd8184613adb565b90509695505050505050565b60006040820190506140ee60008301856139f1565b6140fb6020830184613f31565b9392505050565b600060c0820190506141176000830185613a17565b61412460a08301846139f1565b9392505050565b600060208201905081810360008301526141458184613a6e565b905092915050565b600060408201905081810360008301526141678185613a6e565b9050818103602083015261417b8184613a6e565b90509392505050565b60006020820190506141996000830184613acc565b92915050565b600060208201905081810360008301526141b98184613b14565b905092915050565b600060208201905081810360008301526141da81613bfd565b9050919050565b600060208201905081810360008301526141fa81613c20565b9050919050565b6000602082019050818103600083015261421a81613c43565b9050919050565b6000602082019050818103600083015261423a81613c66565b9050919050565b6000602082019050818103600083015261425a81613c89565b9050919050565b6000602082019050818103600083015261427a81613cac565b9050919050565b6000602082019050818103600083015261429a81613ccf565b9050919050565b600060208201905081810360008301526142ba81613cf2565b9050919050565b600060208201905081810360008301526142da81613d15565b9050919050565b600060208201905081810360008301526142fa81613d38565b9050919050565b6000602082019050818103600083015261431a81613d5b565b9050919050565b6000602082019050818103600083015261433a81613d7e565b9050919050565b6000602082019050818103600083015261435a81613da1565b9050919050565b6000602082019050818103600083015261437a81613de7565b9050919050565b6000602082019050818103600083015261439a81613e0a565b9050919050565b600060208201905081810360008301526143ba81613e2d565b9050919050565b600060208201905081810360008301526143da81613e50565b9050919050565b600060208201905081810360008301526143fa81613e73565b9050919050565b6000602082019050818103600083015261441a81613e96565b9050919050565b6000602082019050818103600083015261443a81613eb9565b9050919050565b6000602082019050818103600083015261445a81613edc565b9050919050565b6000602082019050818103600083015261447a81613eff565b9050919050565b60006020820190506144966000830184613f31565b92915050565b60006040820190506144b16000830185613f31565b6144be6020830184613f31565b9392505050565b60006144cf6144e0565b90506144db828261486c565b919050565b6000604051905090565b600067ffffffffffffffff82111561450557614504614a2b565b5b602082029050602081019050919050565b600067ffffffffffffffff82111561453157614530614a2b565b5b602082029050602081019050919050565b600067ffffffffffffffff82111561455d5761455c614a2b565b5b61456682614a95565b9050602081019050919050565b600067ffffffffffffffff82111561458e5761458d614a2b565b5b61459782614a95565b9050602081019050919050565b6000819050919050565b6000819050602082019050919050565b60008190508160005260206000209050919050565b600060059050919050565b600081519050919050565b600081519050919050565b600081519050919050565b6000602082019050919050565b6000602082019050919050565b600081905092915050565b600082825260208201905092915050565b600082825260208201905092915050565b600082825260208201905092915050565b600081905092915050565b600061466d826147e1565b9150614678836147e1565b9250827fffffffffffffffffffffffffffffffffffffffffffffffffffffffffffffffff038211156146ad576146ac61496f565b5b828201905092915050565b60006146c3826147e1565b91506146ce836147e1565b9250826146de576146dd61499e565b5b828204905092915050565b60006146f4826147e1565b91506146ff836147e1565b9250817fffffffffffffffffffffffffffffffffffffffffffffffffffffffffffffffff04831182151516156147385761473761496f565b5b828202905092915050565b600061474e826147e1565b9150614759836147e1565b92508282101561476c5761476b61496f565b5b828203905092915050565b6000614782826147c1565b9050919050565b60008115159050919050565b60007fffffffff0000000000000000000000000000000000000000000000000000000082169050919050565b600073ffffffffffffffffffffffffffffffffffffffff82169050919050565b6000819050919050565b600060ff82169050919050565b82818337600083830152505050565b60005b8381101561482557808201518184015260208101905061480a565b83811115614834576000848401525b50505050565b6000600282049050600182168061485257607f821691505b60208210811415614866576148656149cd565b5b50919050565b61487582614a95565b810181811067ffffffffffffffff8211171561489457614893614a2b565b5b80604052505050565b60006148a8826147e1565b91507fffffffffffffffffffffffffffffffffffffffffffffffffffffffffffffffff8214156148db576148da61496f565b5b600182019050919050565b60006148f1826147eb565b915060ff8214156149055761490461496f565b5b600182019050919050565b600061491b82614922565b9050919050565b600061492d82614aa6565b9050919050565b6000819050919050565b6000614949826147e1565b9150614954836147e1565b9250826149645761496361499e565b5b828206905092915050565b7f4e487b7100000000000000000000000000000000000000000000000000000000600052601160045260246000fd5b7f4e487b7100000000000000000000000000000000000000000000000000000000600052601260045260246000fd5b7f4e487b7100000000000000000000000000000000000000000000000000000000600052602260045260246000fd5b7f4e487b7100000000000000000000000000000000000000000000000000000000600052603260045260246000fd5b7f4e487b7100000000000000000000000000000000000000000000000000000000600052604160045260246000fd5b600060033d1115614a795760046000803e614a76600051614ab3565b90505b90565b600080fd5b600080fd5b600080fd5b600080fd5b600080fd5b6000601f19601f8301169050919050565b60008160601b9050919050565b60008160e01c9050919050565b7f455243313135353a207472616e7366657220746f206e6f6e204552433131353560008201527f526563656976657220696d706c656d656e746572000000000000000000000000602082015250565b7f455243313135353a204552433131353552656365697665722072656a6563746560008201527f6420746f6b656e73000000000000000000000000000000000000000000000000602082015250565b7f455243313135353a2062616c616e636520717565727920666f7220746865207a60008201527f65726f2061646472657373000000000000000000000000000000000000000000602082015250565b7f4f776e61626c653a206e6577206f776e657220697320746865207a65726f206160008201527f6464726573730000000000000000000000000000000000000000000000000000602082015250565b7f455243313135353a206275726e20616d6f756e7420657863656564732062616c60008201527f616e636500000000000000000000000000000000000000000000000000000000602082015250565b7f455243313135353a2063616c6c6572206973206e6f74206f776e6572206e6f7260008201527f20617070726f7665640000000000000000000000000000000000000000000000602082015250565b7f55736572206973206e6f742077686974656c6973746564203a28000000000000600082015250565b7f416c6c206f662074686973206174686c657465206861766520616c726561647960008201527f206265656e206d696e7465642100000000000000000000000000000000000000602082015250565b7f455243313135353a207472616e7366657220746f20746865207a65726f20616460008201527f6472657373000000000000000000000000000000000000000000000000000000602082015250565b7f455243313135353a207472616e736665722063616c6c6572206973206e6f742060008201527f6f776e6572206e6f7220617070726f7665640000000000000000000000000000602082015250565b7f43616e6e6f742073657420757269207477696365000000000000000000000000600082015250565b7f455243313135353a206275726e2066726f6d20746865207a65726f206164647260008201527f6573730000000000000000000000000000000000000000000000000000000000602082015250565b7f455243313135353a20696e73756666696369656e742062616c616e636520666f60008201527f72207472616e7366657200000000000000000000000000000000000000000000602082015250565b7f2e6a736f6e000000000000000000000000000000000000000000000000000000600082015250565b7f4f776e61626c653a2063616c6c6572206973206e6f7420746865206f776e6572600082015250565b7f5061636b2068617320616c7265616479206265656e206275726e6564206f722060008201527f646f6573206e6f742065786973742e0000000000000000000000000000000000602082015250565b7f416c6c207061636b73206861766520616c7265616479206265656e206d696e7460008201527f6564210000000000000000000000000000000000000000000000000000000000602082015250565b7f5061636b73206172656e277420726561647920746f206f70656e207965742100600082015250565b7f43616e206f6e6c79206d696e74206f6e652073746172746572207061636b207060008201527f6572206163636f756e7400000000000000000000000000000000000000000000602082015250565b7f455243313135353a2073657474696e6720617070726f76616c2073746174757360008201527f20666f722073656c660000000000000000000000000000000000000000000000602082015250565b7f455243313135353a206163636f756e747320616e6420696473206c656e67746860008201527f206d69736d617463680000000000000000000000000000000000000000000000602082015250565b7f455243313135353a2069647320616e6420616d6f756e7473206c656e6774682060008201527f6d69736d61746368000000000000000000000000000000000000000000000000602082015250565b7f455243313135353a206d696e7420746f20746865207a65726f2061646472657360008201527f7300000000000000000000000000000000000000000000000000000000000000602082015250565b600060443d101561512b576151ae565b6151336144e0565b60043d036004823e80513d602482011167ffffffffffffffff8211171561515b5750506151ae565b808201805167ffffffffffffffff81111561517957505050506151ae565b80602083010160043d0385018111156151965750505050506151ae565b6151a58260200185018661486c565b82955050505050505b90565b6151ba81614777565b81146151c557600080fd5b50565b6151d181614789565b81146151dc57600080fd5b50565b6151e881614795565b81146151f357600080fd5b50565b6151ff816147e1565b811461520a57600080fd5b5056fea2646970667358221220aa42756fc4953ea424bc695d560cbbd156fd4e2642ac178e41186c8bbb27c9e064736f6c63430008070033608060405234801561001057600080fd5b5061002d61002261003260201b60201c565b61003a60201b60201c565b6100fe565b600033905090565b60008060009054906101000a900473ffffffffffffffffffffffffffffffffffffffff169050816000806101000a81548173ffffffffffffffffffffffffffffffffffffffff021916908373ffffffffffffffffffffffffffffffffffffffff1602179055508173ffffffffffffffffffffffffffffffffffffffff168173ffffffffffffffffffffffffffffffffffffffff167f8be0079c531659141344cd1fd0a4f28419497f9722a3daafe3b4186f6b6457e060405160405180910390a35050565b610eef8061010d6000396000f3fe608060405234801561001057600080fd5b506004361061009e5760003560e01c80638da5cb5b116100665780638da5cb5b1461015b5780639b19251a14610179578063dc9a1535146101a9578063e2ec6ec3146101c7578063f2fde38b146101f75761009e565b806324953eaa146100a3578063286dd3f5146100d357806344eaa84e14610103578063715018a6146101215780637b9417c81461012b575b600080fd5b6100bd60048036038101906100b89190610a7d565b610213565b6040516100ca9190610b54565b60405180910390f35b6100ed60048036038101906100e89190610a50565b6102fd565b6040516100fa9190610b54565b60405180910390f35b61010b610480565b6040516101189190610baf565b60405180910390f35b61012961048a565b005b61014560048036038101906101409190610a50565b610512565b6040516101529190610b54565b60405180910390f35b610163610693565b6040516101709190610b39565b60405180910390f35b610193600480360381019061018e9190610a50565b6106bc565b6040516101a09190610b54565b60405180910390f35b6101b16106dc565b6040516101be9190610b54565b60405180910390f35b6101e160048036038101906101dc9190610a7d565b6106ef565b6040516101ee9190610b54565b60405180910390f35b610211600480360381019061020c9190610a50565b6107d9565b005b600061021d6108d1565b73ffffffffffffffffffffffffffffffffffffffff1661023b610693565b73ffffffffffffffffffffffffffffffffffffffff1614610291576040517f08c379a000000000000000000000000000000000000000000000000000000000815260040161028890610b8f565b60405180910390fd5b60005b82518110156102f7576102c08382815181106102b3576102b2610da7565b5b60200260200101516102fd565b156102e4576001600260008282546102d89190610c82565b92505081905550600191505b80806102ef90610d2f565b915050610294565b50919050565b60006103076108d1565b73ffffffffffffffffffffffffffffffffffffffff16610325610693565b73ffffffffffffffffffffffffffffffffffffffff161461037b576040517f08c379a000000000000000000000000000000000000000000000000000000000815260040161037290610b8f565b60405180910390fd5b600160008373ffffffffffffffffffffffffffffffffffffffff1673ffffffffffffffffffffffffffffffffffffffff16815260200190815260200160002060009054906101000a900460ff161561047b576000600160008473ffffffffffffffffffffffffffffffffffffffff1673ffffffffffffffffffffffffffffffffffffffff16815260200190815260200160002060006101000a81548160ff0219169083151502179055507ff1abf01a1043b7c244d128e8595cf0c1d10743b022b03a02dffd8ca3bf729f5a826040516104549190610b39565b60405180910390a160016002600082825461046f9190610c82565b92505081905550600190505b919050565b6000600254905090565b6104926108d1565b73ffffffffffffffffffffffffffffffffffffffff166104b0610693565b73ffffffffffffffffffffffffffffffffffffffff1614610506576040517f08c379a00000000000000000000000000000000000000000000000000000000081526004016104fd90610b8f565b60405180910390fd5b61051060006108d9565b565b600061051c6108d1565b73ffffffffffffffffffffffffffffffffffffffff1661053a610693565b73ffffffffffffffffffffffffffffffffffffffff1614610590576040517f08c379a000000000000000000000000000000000000000000000000000000000815260040161058790610b8f565b60405180910390fd5b600160008373ffffffffffffffffffffffffffffffffffffffff1673ffffffffffffffffffffffffffffffffffffffff16815260200190815260200160002060009054906101000a900460ff1661068e5760018060008473ffffffffffffffffffffffffffffffffffffffff1673ffffffffffffffffffffffffffffffffffffffff16815260200190815260200160002060006101000a81548160ff0219169083151502179055507fd1bba68c128cc3f427e5831b3c6f99f480b6efa6b9e80c757768f6124158cc3f826040516106679190610b39565b60405180910390a16001600260008282546106829190610c2c565b92505081905550600190505b919050565b60008060009054906101000a900473ffffffffffffffffffffffffffffffffffffffff16905090565b60016020528060005260406000206000915054906101000a900460ff1681565b600360009054906101000a900460ff1681565b60006106f96108d1565b73ffffffffffffffffffffffffffffffffffffffff16610717610693565b73ffffffffffffffffffffffffffffffffffffffff161461076d576040517f08c379a000000000000000000000000000000000000000000000000000000000815260040161076490610b8f565b60405180910390fd5b60005b82518110156107d35761079c83828151811061078f5761078e610da7565b5b6020026020010151610512565b156107c0576001600260008282546107b49190610c2c565b92505081905550600191505b80806107cb90610d2f565b915050610770565b50919050565b6107e16108d1565b73ffffffffffffffffffffffffffffffffffffffff166107ff610693565b73ffffffffffffffffffffffffffffffffffffffff1614610855576040517f08c379a000000000000000000000000000000000000000000000000000000000815260040161084c90610b8f565b60405180910390fd5b600073ffffffffffffffffffffffffffffffffffffffff168173ffffffffffffffffffffffffffffffffffffffff1614156108c5576040517f08c379a00000000000000000000000000000000000000000000000000000000081526004016108bc90610b6f565b60405180910390fd5b6108ce816108d9565b50565b600033905090565b60008060009054906101000a900473ffffffffffffffffffffffffffffffffffffffff169050816000806101000a81548173ffffffffffffffffffffffffffffffffffffffff021916908373ffffffffffffffffffffffffffffffffffffffff1602179055508173ffffffffffffffffffffffffffffffffffffffff168173ffffffffffffffffffffffffffffffffffffffff167f8be0079c531659141344cd1fd0a4f28419497f9722a3daafe3b4186f6b6457e060405160405180910390a35050565b60006109b06109ab84610bef565b610bca565b905080838252602082019050828560208602820111156109d3576109d2610e0a565b5b60005b85811015610a0357816109e98882610a0d565b8452602084019350602083019250506001810190506109d6565b5050509392505050565b600081359050610a1c81610ea2565b92915050565b600082601f830112610a3757610a36610e05565b5b8135610a4784826020860161099d565b91505092915050565b600060208284031215610a6657610a65610e14565b5b6000610a7484828501610a0d565b91505092915050565b600060208284031215610a9357610a92610e14565b5b600082013567ffffffffffffffff811115610ab157610ab0610e0f565b5b610abd84828501610a22565b91505092915050565b610acf81610cb6565b82525050565b610ade81610cc8565b82525050565b6000610af1602683610c1b565b9150610afc82610e2a565b604082019050919050565b6000610b14602083610c1b565b9150610b1f82610e79565b602082019050919050565b610b3381610cf4565b82525050565b6000602082019050610b4e6000830184610ac6565b92915050565b6000602082019050610b696000830184610ad5565b92915050565b60006020820190508181036000830152610b8881610ae4565b9050919050565b60006020820190508181036000830152610ba881610b07565b9050919050565b6000602082019050610bc46000830184610b2a565b92915050565b6000610bd4610be5565b9050610be08282610cfe565b919050565b6000604051905090565b600067ffffffffffffffff821115610c0a57610c09610dd6565b5b602082029050602081019050919050565b600082825260208201905092915050565b6000610c3782610cf4565b9150610c4283610cf4565b9250827fffffffffffffffffffffffffffffffffffffffffffffffffffffffffffffffff03821115610c7757610c76610d78565b5b828201905092915050565b6000610c8d82610cf4565b9150610c9883610cf4565b925082821015610cab57610caa610d78565b5b828203905092915050565b6000610cc182610cd4565b9050919050565b60008115159050919050565b600073ffffffffffffffffffffffffffffffffffffffff82169050919050565b6000819050919050565b610d0782610e19565b810181811067ffffffffffffffff82111715610d2657610d25610dd6565b5b80604052505050565b6000610d3a82610cf4565b91507fffffffffffffffffffffffffffffffffffffffffffffffffffffffffffffffff821415610d6d57610d6c610d78565b5b600182019050919050565b7f4e487b7100000000000000000000000000000000000000000000000000000000600052601160045260246000fd5b7f4e487b7100000000000000000000000000000000000000000000000000000000600052603260045260246000fd5b7f4e487b7100000000000000000000000000000000000000000000000000000000600052604160045260246000fd5b600080fd5b600080fd5b600080fd5b600080fd5b6000601f19601f8301169050919050565b7f4f776e61626c653a206e6577206f776e657220697320746865207a65726f206160008201527f6464726573730000000000000000000000000000000000000000000000000000602082015250565b7f4f776e61626c653a2063616c6c6572206973206e6f7420746865206f776e6572600082015250565b610eab81610cb6565b8114610eb657600080fd5b5056fea2646970667358221220ce5a8c1ac30aa67d0790f09c9f63c08184d23037427080e7e9705621c914926764736f6c63430008070033",
  "linkReferences": {},
  "deployedLinkReferences": {}
}