{
  "_format": "hh-sol-artifact-1",
  "contractName": "GameItems",
  "sourceName": "contracts/GameItems.sol",
  "abi": [
    {
      "inputs": [
        {
          "components": [
            {
              "internalType": "uint256",
              "name": "_numAthletes",
              "type": "uint256"
            },
            {
              "internalType": "uint256",
              "name": "_nftPerAthlete",
              "type": "uint256"
            },
            {
              "internalType": "uint256",
              "name": "_starterPackSize",
              "type": "uint256"
            },
            {
              "internalType": "uint256",
              "name": "_boosterPackSize",
              "type": "uint256"
            },
            {
              "internalType": "uint256",
              "name": "_maxStarterPackBalance",
              "type": "uint256"
            },
            {
              "internalType": "uint256",
              "name": "_maxBoosterPackBalance",
              "type": "uint256"
            },
            {
              "internalType": "uint256",
              "name": "_maxPacks",
              "type": "uint256"
            },
            {
              "internalType": "uint256",
              "name": "_revealTimestamp",
              "type": "uint256"
            }
          ],
          "internalType": "struct GameItems.Parameters",
          "name": "params",
          "type": "tuple"
        },
        {
          "internalType": "string",
          "name": "_athleteURI",
          "type": "string"
        },
        {
          "internalType": "string",
          "name": "_starterPackURI",
          "type": "string"
        },
        {
          "internalType": "string",
          "name": "_boosterPackURI",
          "type": "string"
        }
      ],
      "stateMutability": "nonpayable",
      "type": "constructor"
    },
    {
      "anonymous": false,
      "inputs": [
        {
          "indexed": true,
          "internalType": "address",
          "name": "account",
          "type": "address"
        },
        {
          "indexed": true,
          "internalType": "address",
          "name": "operator",
          "type": "address"
        },
        {
          "indexed": false,
          "internalType": "bool",
          "name": "approved",
          "type": "bool"
        }
      ],
      "name": "ApprovalForAll",
      "type": "event"
    },
    {
      "anonymous": false,
      "inputs": [
        {
          "indexed": true,
          "internalType": "address",
          "name": "previousOwner",
          "type": "address"
        },
        {
          "indexed": true,
          "internalType": "address",
          "name": "newOwner",
          "type": "address"
        }
      ],
      "name": "OwnershipTransferred",
      "type": "event"
    },
    {
      "anonymous": false,
      "inputs": [
        {
          "indexed": true,
          "internalType": "address",
          "name": "operator",
          "type": "address"
        },
        {
          "indexed": true,
          "internalType": "address",
          "name": "from",
          "type": "address"
        },
        {
          "indexed": true,
          "internalType": "address",
          "name": "to",
          "type": "address"
        },
        {
          "indexed": false,
          "internalType": "uint256[]",
          "name": "ids",
          "type": "uint256[]"
        },
        {
          "indexed": false,
          "internalType": "uint256[]",
          "name": "values",
          "type": "uint256[]"
        }
      ],
      "name": "TransferBatch",
      "type": "event"
    },
    {
      "anonymous": false,
      "inputs": [
        {
          "indexed": true,
          "internalType": "address",
          "name": "operator",
          "type": "address"
        },
        {
          "indexed": true,
          "internalType": "address",
          "name": "from",
          "type": "address"
        },
        {
          "indexed": true,
          "internalType": "address",
          "name": "to",
          "type": "address"
        },
        {
          "indexed": false,
          "internalType": "uint256",
          "name": "id",
          "type": "uint256"
        },
        {
          "indexed": false,
          "internalType": "uint256",
          "name": "value",
          "type": "uint256"
        }
      ],
      "name": "TransferSingle",
      "type": "event"
    },
    {
      "anonymous": false,
      "inputs": [
        {
          "indexed": false,
          "internalType": "string",
          "name": "value",
          "type": "string"
        },
        {
          "indexed": true,
          "internalType": "uint256",
          "name": "id",
          "type": "uint256"
        }
      ],
      "name": "URI",
      "type": "event"
    },
    {
      "anonymous": false,
      "inputs": [
        {
          "indexed": false,
          "internalType": "address",
          "name": "addr",
          "type": "address"
        }
      ],
      "name": "WhitelistedAddressAdded",
      "type": "event"
    },
    {
      "anonymous": false,
      "inputs": [
        {
          "indexed": false,
          "internalType": "address",
          "name": "addr",
          "type": "address"
        }
      ],
      "name": "WhitelistedAddressRemoved",
      "type": "event"
    },
    {
      "anonymous": false,
      "inputs": [
        {
          "indexed": false,
          "internalType": "uint256[5]",
          "name": "",
          "type": "uint256[5]"
        },
        {
          "indexed": false,
          "internalType": "address",
          "name": "signer",
          "type": "address"
        }
      ],
      "name": "packBurned",
      "type": "event"
    },
    {
      "anonymous": false,
      "inputs": [
        {
          "indexed": false,
          "internalType": "address",
          "name": "signer",
          "type": "address"
        },
        {
          "indexed": false,
          "internalType": "uint256",
          "name": "id",
          "type": "uint256"
        }
      ],
      "name": "packMinted",
      "type": "event"
    },
    {
      "inputs": [],
      "name": "REVEAL_TIMESTAMP",
      "outputs": [
        {
          "internalType": "uint256",
          "name": "",
          "type": "uint256"
        }
      ],
      "stateMutability": "view",
      "type": "function"
    },
    {
      "inputs": [
        {
          "internalType": "address",
          "name": "addr",
          "type": "address"
        }
      ],
      "name": "addAddressToWhitelist",
      "outputs": [
        {
          "internalType": "bool",
          "name": "success",
          "type": "bool"
        }
      ],
      "stateMutability": "nonpayable",
      "type": "function"
    },
    {
      "inputs": [
        {
          "internalType": "address[]",
          "name": "addrs",
          "type": "address[]"
        }
      ],
      "name": "addAddressesToWhitelist",
      "outputs": [
        {
          "internalType": "bool",
          "name": "success",
          "type": "bool"
        }
      ],
      "stateMutability": "nonpayable",
      "type": "function"
    },
    {
      "inputs": [
        {
          "internalType": "address",
          "name": "_user",
          "type": "address"
        }
      ],
      "name": "addUserToWhitelist",
      "outputs": [],
      "stateMutability": "nonpayable",
      "type": "function"
    },
    {
      "inputs": [
        {
          "internalType": "address",
          "name": "account",
          "type": "address"
        },
        {
          "internalType": "uint256",
          "name": "id",
          "type": "uint256"
        }
      ],
      "name": "balanceOf",
      "outputs": [
        {
          "internalType": "uint256",
          "name": "",
          "type": "uint256"
        }
      ],
      "stateMutability": "view",
      "type": "function"
    },
    {
      "inputs": [
        {
          "internalType": "address[]",
          "name": "accounts",
          "type": "address[]"
        },
        {
          "internalType": "uint256[]",
          "name": "ids",
          "type": "uint256[]"
        }
      ],
      "name": "balanceOfBatch",
      "outputs": [
        {
          "internalType": "uint256[]",
          "name": "",
          "type": "uint256[]"
        }
      ],
      "stateMutability": "view",
      "type": "function"
    },
    {
      "inputs": [],
      "name": "burnStarterPack",
      "outputs": [],
      "stateMutability": "nonpayable",
      "type": "function"
    },
    {
      "inputs": [],
      "name": "getNFTPerAthlete",
      "outputs": [
        {
          "internalType": "uint256",
          "name": "",
          "type": "uint256"
        }
      ],
      "stateMutability": "view",
      "type": "function"
    },
    {
      "inputs": [
        {
          "internalType": "address",
          "name": "account",
          "type": "address"
        },
        {
          "internalType": "address",
          "name": "operator",
          "type": "address"
        }
      ],
      "name": "isApprovedForAll",
      "outputs": [
        {
          "internalType": "bool",
          "name": "",
          "type": "bool"
        }
      ],
      "stateMutability": "view",
      "type": "function"
    },
    {
      "inputs": [],
      "name": "isPublic",
      "outputs": [
        {
          "internalType": "bool",
          "name": "",
          "type": "bool"
        }
      ],
      "stateMutability": "view",
      "type": "function"
    },
    {
      "inputs": [],
      "name": "mintStarterPack",
      "outputs": [],
      "stateMutability": "nonpayable",
      "type": "function"
    },
    {
      "inputs": [],
      "name": "name",
      "outputs": [
        {
          "internalType": "string",
          "name": "",
          "type": "string"
        }
      ],
      "stateMutability": "view",
      "type": "function"
    },
    {
      "inputs": [],
      "name": "owner",
      "outputs": [
        {
          "internalType": "address",
          "name": "",
          "type": "address"
        }
      ],
      "stateMutability": "view",
      "type": "function"
    },
    {
      "inputs": [],
      "name": "packsAvailable",
      "outputs": [
        {
          "internalType": "uint256",
          "name": "",
          "type": "uint256"
        }
      ],
      "stateMutability": "view",
      "type": "function"
    },
    {
      "inputs": [],
      "name": "packsReadyToOpen",
      "outputs": [
        {
          "internalType": "bool",
          "name": "",
          "type": "bool"
        }
      ],
      "stateMutability": "view",
      "type": "function"
    },
    {
      "inputs": [
        {
          "internalType": "address",
          "name": "addr",
          "type": "address"
        }
      ],
      "name": "removeAddressFromWhitelist",
      "outputs": [
        {
          "internalType": "bool",
          "name": "success",
          "type": "bool"
        }
      ],
      "stateMutability": "nonpayable",
      "type": "function"
    },
    {
      "inputs": [
        {
          "internalType": "address[]",
          "name": "addrs",
          "type": "address[]"
        }
      ],
      "name": "removeAddressesFromWhitelist",
      "outputs": [
        {
          "internalType": "bool",
          "name": "success",
          "type": "bool"
        }
      ],
      "stateMutability": "nonpayable",
      "type": "function"
    },
    {
      "inputs": [
        {
          "internalType": "address",
          "name": "_user",
          "type": "address"
        }
      ],
      "name": "removeUserFromWhitelist",
      "outputs": [],
      "stateMutability": "nonpayable",
      "type": "function"
    },
    {
      "inputs": [],
      "name": "renounceOwnership",
      "outputs": [],
      "stateMutability": "nonpayable",
      "type": "function"
    },
    {
      "inputs": [
        {
          "internalType": "address",
          "name": "from",
          "type": "address"
        },
        {
          "internalType": "address",
          "name": "to",
          "type": "address"
        },
        {
          "internalType": "uint256[]",
          "name": "ids",
          "type": "uint256[]"
        },
        {
          "internalType": "uint256[]",
          "name": "amounts",
          "type": "uint256[]"
        },
        {
          "internalType": "bytes",
          "name": "data",
          "type": "bytes"
        }
      ],
      "name": "safeBatchTransferFrom",
      "outputs": [],
      "stateMutability": "nonpayable",
      "type": "function"
    },
    {
      "inputs": [
        {
          "internalType": "address",
          "name": "from",
          "type": "address"
        },
        {
          "internalType": "address",
          "name": "to",
          "type": "address"
        },
        {
          "internalType": "uint256",
          "name": "id",
          "type": "uint256"
        },
        {
          "internalType": "uint256",
          "name": "amount",
          "type": "uint256"
        },
        {
          "internalType": "bytes",
          "name": "data",
          "type": "bytes"
        }
      ],
      "name": "safeTransferFrom",
      "outputs": [],
      "stateMutability": "nonpayable",
      "type": "function"
    },
    {
      "inputs": [
        {
          "internalType": "address",
          "name": "operator",
          "type": "address"
        },
        {
          "internalType": "bool",
          "name": "approved",
          "type": "bool"
        }
      ],
      "name": "setApprovalForAll",
      "outputs": [],
      "stateMutability": "nonpayable",
      "type": "function"
    },
    {
      "inputs": [],
      "name": "setPacksReady",
      "outputs": [],
      "stateMutability": "nonpayable",
      "type": "function"
    },
    {
      "inputs": [],
      "name": "setStartingIndex",
      "outputs": [],
      "stateMutability": "nonpayable",
      "type": "function"
    },
    {
      "inputs": [
        {
          "internalType": "uint256",
          "name": "tokenId",
          "type": "uint256"
        },
        {
          "internalType": "string",
          "name": "uri",
          "type": "string"
        }
      ],
      "name": "setTokenUri",
      "outputs": [],
      "stateMutability": "nonpayable",
      "type": "function"
    },
    {
      "inputs": [],
      "name": "setURIs",
      "outputs": [],
      "stateMutability": "nonpayable",
      "type": "function"
    },
    {
      "inputs": [
        {
          "internalType": "bytes4",
          "name": "interfaceId",
          "type": "bytes4"
        }
      ],
      "name": "supportsInterface",
      "outputs": [
        {
          "internalType": "bool",
          "name": "",
          "type": "bool"
        }
      ],
      "stateMutability": "view",
      "type": "function"
    },
    {
      "inputs": [
        {
          "internalType": "address",
          "name": "newOwner",
          "type": "address"
        }
      ],
      "name": "transferOwnership",
      "outputs": [],
      "stateMutability": "nonpayable",
      "type": "function"
    },
    {
      "inputs": [
        {
          "internalType": "uint256",
          "name": "tokenId",
          "type": "uint256"
        }
      ],
      "name": "uri",
      "outputs": [
        {
          "internalType": "string",
          "name": "",
          "type": "string"
        }
      ],
      "stateMutability": "view",
      "type": "function"
    },
    {
      "inputs": [
        {
          "internalType": "address",
          "name": "",
          "type": "address"
        }
      ],
      "name": "whitelist",
      "outputs": [
        {
          "internalType": "bool",
          "name": "",
          "type": "bool"
        }
      ],
      "stateMutability": "view",
      "type": "function"
    }
  ],
  "bytecode": "0x60806040526127106012556040518060400160405280600881526020017f5465616d44696666000000000000000000000000000000000000000000000000815250601390805190602001906200005792919062000342565b506001601460006101000a81548160ff02191690831515021790555060405180602001604052806000815250601a90805190602001906200009a92919062000342565b50348015620000a857600080fd5b50604051620066ff380380620066ff8339818101604052810190620000ce919062000574565b6040518060400160405280600281526020017f544400000000000000000000000000000000000000000000000000000000000081525062000115816200025860201b60201c565b50620001366200012a6200027460201b60201c565b6200027c60201b60201c565b8360000151600f8190555083602001516010819055508360400151600a819055508360600151600b819055508360800151600c819055508360a00151600d819055508360c00151600e8190555082600790805190602001906200019b92919062000342565b508160089080519060200190620001b492919062000342565b508060099080519060200190620001cd92919062000342565b508360e00151601281905550600e54602381905550604051620001f090620003d3565b604051809103906000f0801580156200020d573d6000803e3d6000fd5b50602460006101000a81548173ffffffffffffffffffffffffffffffffffffffff021916908373ffffffffffffffffffffffffffffffffffffffff16021790555050505050620007f4565b80600290805190602001906200027092919062000342565b5050565b600033905090565b6000600360009054906101000a900473ffffffffffffffffffffffffffffffffffffffff16905081600360006101000a81548173ffffffffffffffffffffffffffffffffffffffff021916908373ffffffffffffffffffffffffffffffffffffffff1602179055508173ffffffffffffffffffffffffffffffffffffffff168173ffffffffffffffffffffffffffffffffffffffff167f8be0079c531659141344cd1fd0a4f28419497f9722a3daafe3b4186f6b6457e060405160405180910390a35050565b8280546200035090620006e6565b90600052602060002090601f016020900481019282620003745760008555620003c0565b82601f106200038f57805160ff1916838001178555620003c0565b82800160010185558215620003c0579182015b82811115620003bf578251825591602001919060010190620003a2565b5b509050620003cf9190620003e1565b5090565b610f9f806200576083390190565b5b80821115620003fc576000816000905550600101620003e2565b5090565b600062000417620004118462000670565b62000647565b905082815260208101848484011115620004365762000435620007ba565b5b62000443848285620006b0565b509392505050565b600082601f830112620004635762000462620007b0565b5b81516200047584826020860162000400565b91505092915050565b60006101008284031215620004985762000497620007b5565b5b620004a561010062000647565b90506000620004b7848285016200055d565b6000830152506020620004cd848285016200055d565b6020830152506040620004e3848285016200055d565b6040830152506060620004f9848285016200055d565b60608301525060806200050f848285016200055d565b60808301525060a062000525848285016200055d565b60a08301525060c06200053b848285016200055d565b60c08301525060e062000551848285016200055d565b60e08301525092915050565b6000815190506200056e81620007da565b92915050565b6000806000806101608587031215620005925762000591620007c4565b5b6000620005a2878288016200047e565b94505061010085015167ffffffffffffffff811115620005c757620005c6620007bf565b5b620005d5878288016200044b565b93505061012085015167ffffffffffffffff811115620005fa57620005f9620007bf565b5b62000608878288016200044b565b92505061014085015167ffffffffffffffff8111156200062d576200062c620007bf565b5b6200063b878288016200044b565b91505092959194509250565b60006200065362000666565b90506200066182826200071c565b919050565b6000604051905090565b600067ffffffffffffffff8211156200068e576200068d62000781565b5b6200069982620007c9565b9050602081019050919050565b6000819050919050565b60005b83811015620006d0578082015181840152602081019050620006b3565b83811115620006e0576000848401525b50505050565b60006002820490506001821680620006ff57607f821691505b6020821081141562000716576200071562000752565b5b50919050565b6200072782620007c9565b810181811067ffffffffffffffff8211171562000749576200074862000781565b5b80604052505050565b7f4e487b7100000000000000000000000000000000000000000000000000000000600052602260045260246000fd5b7f4e487b7100000000000000000000000000000000000000000000000000000000600052604160045260246000fd5b600080fd5b600080fd5b600080fd5b600080fd5b600080fd5b6000601f19601f8301169050919050565b620007e581620006a6565b8114620007f157600080fd5b50565b614f5c80620008046000396000f3fe608060405234801561001057600080fd5b50600436106101d95760003560e01c80637b9417c811610104578063d759000b116100a2578063e986655011610071578063e986655014610532578063f242432a1461053c578063f2fde38b14610558578063f9902bb114610574576101d9565b8063d759000b14610496578063dc9a1535146104b4578063e2ec6ec3146104d2578063e985e9c514610502576101d9565b80639ebf488b116100de5780639ebf488b14610448578063a22cb46514610452578063bbb13e171461046e578063be59ec2614610478576101d9565b80637b9417c8146103ca5780638da5cb5b146103fa5780639b19251a14610418576101d9565b806324953eaa1161017c57806357f7789e1161014b57806357f7789e1461037e5780635d2db2bf1461039a578063715018a6146103a4578063747b8050146103ae576101d9565b806324953eaa146102d2578063286dd3f5146103025780632eb2c2d6146103325780634e1273f41461034e576101d9565b80630e89341c116101b85780630e89341c1461025c578063143cc1441461028c57806318e20a38146102aa57806319b60439146102c8576101d9565b8062fdd58e146101de57806301ffc9a71461020e57806306fdde031461023e575b600080fd5b6101f860048036038101906101f3919061354d565b610590565b60405161020591906141c3565b60405180910390f35b6102286004803603810190610223919061367b565b610659565b6040516102359190613ee6565b60405180910390f35b61024661073b565b6040516102539190613f01565b60405180910390f35b610276600480360381019061027191906136d5565b6107c9565b6040516102839190613f01565b60405180910390f35b61029461086e565b6040516102a191906141c3565b60405180910390f35b6102b26108f4565b6040516102bf91906141c3565b60405180910390f35b6102d06108fa565b005b6102ec60048036038101906102e7919061358d565b6109a2565b6040516102f99190613ee6565b60405180910390f35b61031c6004803603810190610317919061333a565b610a8c565b6040516103299190613ee6565b60405180910390f35b61034c600480360381019061034791906133a7565b610c0f565b005b610368600480360381019061036391906135d6565b610cb0565b6040516103759190613e8d565b60405180910390f35b61039860048036038101906103939190613702565b610dc9565b005b6103a2610ed3565b005b6103ac610ff2565b005b6103c860048036038101906103c3919061333a565b61107a565b005b6103e460048036038101906103df919061333a565b6111a7565b6040516103f19190613ee6565b60405180910390f35b610402611329565b60405161040f9190613d5e565b60405180910390f35b610432600480360381019061042d919061333a565b611353565b60405161043f9190613ee6565b60405180910390f35b610450611373565b005b61046c6004803603810190610467919061350d565b61152d565b005b610476611543565b005b6104806116ed565b60405161048d9190613ee6565b60405180910390f35b61049e611700565b6040516104ab91906141c3565b60405180910390f35b6104bc611706565b6040516104c99190613ee6565b60405180910390f35b6104ec60048036038101906104e7919061358d565b611719565b6040516104f99190613ee6565b60405180910390f35b61051c60048036038101906105179190613367565b611803565b6040516105299190613ee6565b60405180910390f35b61053a611897565b005b61055660048036038101906105519190613476565b61196e565b005b610572600480360381019061056d919061333a565b611a0f565b005b61058e6004803603810190610589919061333a565b611b07565b005b60008073ffffffffffffffffffffffffffffffffffffffff168373ffffffffffffffffffffffffffffffffffffffff161415610601576040517f08c379a00000000000000000000000000000000000000000000000000000000081526004016105f890613f63565b60405180910390fd5b60008083815260200190815260200160002060008473ffffffffffffffffffffffffffffffffffffffff1673ffffffffffffffffffffffffffffffffffffffff16815260200190815260200160002054905092915050565b60007fd9b67a26000000000000000000000000000000000000000000000000000000007bffffffffffffffffffffffffffffffffffffffffffffffffffffffff1916827bffffffffffffffffffffffffffffffffffffffffffffffffffffffff1916148061072457507f0e89341c000000000000000000000000000000000000000000000000000000007bffffffffffffffffffffffffffffffffffffffffffffffffffffffff1916827bffffffffffffffffffffffffffffffffffffffffffffffffffffffff1916145b80610734575061073382611c34565b5b9050919050565b601380546107489061457c565b80601f01602080910402602001604051908101604052809291908181526020018280546107749061457c565b80156107c15780601f10610796576101008083540402835291602001916107c1565b820191906000526020600020905b8154815290600101906020018083116107a457829003601f168201915b505050505081565b60606025600083815260200190815260200160002080546107e99061457c565b80601f01602080910402602001604051908101604052809291908181526020018280546108159061457c565b80156108625780601f1061083757610100808354040283529160200191610862565b820191906000526020600020905b81548152906001019060200180831161084557829003601f168201915b50505050509050919050565b6000610878611c9e565b73ffffffffffffffffffffffffffffffffffffffff16610896611329565b73ffffffffffffffffffffffffffffffffffffffff16146108ec576040517f08c379a00000000000000000000000000000000000000000000000000000000081526004016108e3906140a3565b60405180910390fd5b601054905090565b60125481565b610902611c9e565b73ffffffffffffffffffffffffffffffffffffffff16610920611329565b73ffffffffffffffffffffffffffffffffffffffff1614610976576040517f08c379a000000000000000000000000000000000000000000000000000000000815260040161096d906140a3565b60405180910390fd5b601460009054906101000a900460ff1615601460006101000a81548160ff021916908315150217905550565b60006109ac611c9e565b73ffffffffffffffffffffffffffffffffffffffff166109ca611329565b73ffffffffffffffffffffffffffffffffffffffff1614610a20576040517f08c379a0000000000000000000000000000000000000000000000000000000008152600401610a17906140a3565b60405180910390fd5b60005b8251811015610a8657610a4f838281518110610a4257610a4161473e565b5b6020026020010151610a8c565b15610a7357600160056000828254610a679190614485565b92505081905550600191505b8080610a7e906145df565b915050610a23565b50919050565b6000610a96611c9e565b73ffffffffffffffffffffffffffffffffffffffff16610ab4611329565b73ffffffffffffffffffffffffffffffffffffffff1614610b0a576040517f08c379a0000000000000000000000000000000000000000000000000000000008152600401610b01906140a3565b60405180910390fd5b600460008373ffffffffffffffffffffffffffffffffffffffff1673ffffffffffffffffffffffffffffffffffffffff16815260200190815260200160002060009054906101000a900460ff1615610c0a576000600460008473ffffffffffffffffffffffffffffffffffffffff1673ffffffffffffffffffffffffffffffffffffffff16815260200190815260200160002060006101000a81548160ff0219169083151502179055507ff1abf01a1043b7c244d128e8595cf0c1d10743b022b03a02dffd8ca3bf729f5a82604051610be39190613d5e565b60405180910390a1600160056000828254610bfe9190614485565b92505081905550600190505b919050565b610c17611c9e565b73ffffffffffffffffffffffffffffffffffffffff168573ffffffffffffffffffffffffffffffffffffffff161480610c5d5750610c5c85610c57611c9e565b611803565b5b610c9c576040517f08c379a0000000000000000000000000000000000000000000000000000000008152600401610c9390614023565b60405180910390fd5b610ca98585858585611ca6565b5050505050565b60608151835114610cf6576040517f08c379a0000000000000000000000000000000000000000000000000000000008152600401610ced90614163565b60405180910390fd5b6000835167ffffffffffffffff811115610d1357610d1261476d565b5b604051908082528060200260200182016040528015610d415781602001602082028036833780820191505090505b50905060005b8451811015610dbe57610d8e858281518110610d6657610d6561473e565b5b6020026020010151858381518110610d8157610d8061473e565b5b6020026020010151610590565b828281518110610da157610da061473e565b5b60200260200101818152505080610db7906145df565b9050610d47565b508091505092915050565b610dd1611c9e565b73ffffffffffffffffffffffffffffffffffffffff16610def611329565b73ffffffffffffffffffffffffffffffffffffffff1614610e45576040517f08c379a0000000000000000000000000000000000000000000000000000000008152600401610e3c906140a3565b60405180910390fd5b6000602560008481526020019081526020016000208054610e659061457c565b905014610ea7576040517f08c379a0000000000000000000000000000000000000000000000000000000008152600401610e9e90614043565b60405180910390fd5b80602560008481526020019081526020016000209080519060200190610ece929190612fdb565b505050565b610edb611c9e565b73ffffffffffffffffffffffffffffffffffffffff16610ef9611329565b73ffffffffffffffffffffffffffffffffffffffff1614610f4f576040517f08c379a0000000000000000000000000000000000000000000000000000000008152600401610f46906140a3565b60405180910390fd5b60005b600f54811015610fc3576000600f5482601954610f6f91906143a4565b610f799190614680565b9050610faf816007610f8a84611fba565b604051602001610f9b929190613cd0565b604051602081830303815290604052610dc9565b508080610fbb906145df565b915050610f52565b50610ff0600f546008604051602001610fdc9190613cb9565b604051602081830303815290604052610dc9565b565b610ffa611c9e565b73ffffffffffffffffffffffffffffffffffffffff16611018611329565b73ffffffffffffffffffffffffffffffffffffffff161461106e576040517f08c379a0000000000000000000000000000000000000000000000000000000008152600401611065906140a3565b60405180910390fd5b611078600061211b565b565b611082611c9e565b73ffffffffffffffffffffffffffffffffffffffff166110a0611329565b73ffffffffffffffffffffffffffffffffffffffff16146110f6576040517f08c379a00000000000000000000000000000000000000000000000000000000081526004016110ed906140a3565b60405180910390fd5b602460009054906101000a900473ffffffffffffffffffffffffffffffffffffffff1673ffffffffffffffffffffffffffffffffffffffff16637b9417c8826040518263ffffffff1660e01b81526004016111519190613d5e565b602060405180830381600087803b15801561116b57600080fd5b505af115801561117f573d6000803e3d6000fd5b505050506040513d601f19601f820116820180604052508101906111a3919061364e565b5050565b60006111b1611c9e565b73ffffffffffffffffffffffffffffffffffffffff166111cf611329565b73ffffffffffffffffffffffffffffffffffffffff1614611225576040517f08c379a000000000000000000000000000000000000000000000000000000000815260040161121c906140a3565b60405180910390fd5b600460008373ffffffffffffffffffffffffffffffffffffffff1673ffffffffffffffffffffffffffffffffffffffff16815260200190815260200160002060009054906101000a900460ff16611324576001600460008473ffffffffffffffffffffffffffffffffffffffff1673ffffffffffffffffffffffffffffffffffffffff16815260200190815260200160002060006101000a81548160ff0219169083151502179055507fd1bba68c128cc3f427e5831b3c6f99f480b6efa6b9e80c757768f6124158cc3f826040516112fd9190613d5e565b60405180910390a160016005600082825461131891906143a4565b92505081905550600190505b919050565b6000600360009054906101000a900473ffffffffffffffffffffffffffffffffffffffff16905090565b60046020528060005260406000206000915054906101000a900460ff1681565b600460003373ffffffffffffffffffffffffffffffffffffffff1673ffffffffffffffffffffffffffffffffffffffff16815260200190815260200160002060009054906101000a900460ff16806113d75750600660009054906101000a900460ff165b6113e057600080fd5b6000600f549050600e546015541061142d576040517f08c379a0000000000000000000000000000000000000000000000000000000008152600401611424906140e3565b60405180910390fd5b60016114393383610590565b10611479576040517f08c379a000000000000000000000000000000000000000000000000000000000815260040161147090614123565b60405180910390fd5b6114bb338260016040518060400160405280600481526020017f30783030000000000000000000000000000000000000000000000000000000008152506121e1565b6001601560008282546114ce91906143a4565b925050819055506001602360008282546114e89190614485565b925050819055507f2e0f4d63dcc00e6a11c8aef9f6e15c1f9cd6e9a090b2dd99c7b797f1a28d300d33601554604051611522929190613e3b565b60405180910390a150565b61153f611538611c9e565b8383612377565b5050565b600460003373ffffffffffffffffffffffffffffffffffffffff1673ffffffffffffffffffffffffffffffffffffffff16815260200190815260200160002060009054906101000a900460ff16806115a75750600660009054906101000a900460ff165b6115b057600080fd5b6000600f549050601460009054906101000a900460ff16611606576040517f08c379a00000000000000000000000000000000000000000000000000000000081526004016115fd90614103565b60405180910390fd5b60016116123383610590565b14611652576040517f08c379a0000000000000000000000000000000000000000000000000000000008152600401611649906140c3565b60405180910390fd5b600061165c6124e4565b905060005b60058160ff1610156116a357611690828260ff16600581106116865761168561473e565b5b60200201516125c8565b808061169b90614628565b915050611661565b506116b0338360016126c3565b7f15abe0b63b201b70614c230381f0fabc4a26a1957629948558095a11db1d6fb581336040516116e1929190613e64565b60405180910390a15050565b601460009054906101000a900460ff1681565b60235481565b600660009054906101000a900460ff1681565b6000611723611c9e565b73ffffffffffffffffffffffffffffffffffffffff16611741611329565b73ffffffffffffffffffffffffffffffffffffffff1614611797576040517f08c379a000000000000000000000000000000000000000000000000000000000815260040161178e906140a3565b60405180910390fd5b60005b82518110156117fd576117c68382815181106117b9576117b861473e565b5b60200260200101516111a7565b156117ea576001600560008282546117de91906143a4565b92505081905550600191505b80806117f5906145df565b91505061179a565b50919050565b6000600160008473ffffffffffffffffffffffffffffffffffffffff1673ffffffffffffffffffffffffffffffffffffffff16815260200190815260200160002060008373ffffffffffffffffffffffffffffffffffffffff1673ffffffffffffffffffffffffffffffffffffffff16815260200190815260200160002060009054906101000a900460ff16905092915050565b61189f611c9e565b73ffffffffffffffffffffffffffffffffffffffff166118bd611329565b73ffffffffffffffffffffffffffffffffffffffff1614611913576040517f08c379a000000000000000000000000000000000000000000000000000000000815260040161190a906140a3565b60405180910390fd5b601054600f54611923919061442b565b6001436119309190614485565b4060001c61193e9190614680565b6019819055506000601954141561196c5761196560016019546128e090919063ffffffff16565b6019819055505b565b611976611c9e565b73ffffffffffffffffffffffffffffffffffffffff168573ffffffffffffffffffffffffffffffffffffffff1614806119bc57506119bb856119b6611c9e565b611803565b5b6119fb576040517f08c379a00000000000000000000000000000000000000000000000000000000081526004016119f290613fc3565b60405180910390fd5b611a0885858585856128f6565b5050505050565b611a17611c9e565b73ffffffffffffffffffffffffffffffffffffffff16611a35611329565b73ffffffffffffffffffffffffffffffffffffffff1614611a8b576040517f08c379a0000000000000000000000000000000000000000000000000000000008152600401611a82906140a3565b60405180910390fd5b600073ffffffffffffffffffffffffffffffffffffffff168173ffffffffffffffffffffffffffffffffffffffff161415611afb576040517f08c379a0000000000000000000000000000000000000000000000000000000008152600401611af290613f83565b60405180910390fd5b611b048161211b565b50565b611b0f611c9e565b73ffffffffffffffffffffffffffffffffffffffff16611b2d611329565b73ffffffffffffffffffffffffffffffffffffffff1614611b83576040517f08c379a0000000000000000000000000000000000000000000000000000000008152600401611b7a906140a3565b60405180910390fd5b602460009054906101000a900473ffffffffffffffffffffffffffffffffffffffff1673ffffffffffffffffffffffffffffffffffffffff1663286dd3f5826040518263ffffffff1660e01b8152600401611bde9190613d5e565b602060405180830381600087803b158015611bf857600080fd5b505af1158015611c0c573d6000803e3d6000fd5b505050506040513d601f19601f82011682018060405250810190611c30919061364e565b5050565b60007f01ffc9a7000000000000000000000000000000000000000000000000000000007bffffffffffffffffffffffffffffffffffffffffffffffffffffffff1916827bffffffffffffffffffffffffffffffffffffffffffffffffffffffff1916149050919050565b600033905090565b8151835114611cea576040517f08c379a0000000000000000000000000000000000000000000000000000000008152600401611ce190614183565b60405180910390fd5b600073ffffffffffffffffffffffffffffffffffffffff168473ffffffffffffffffffffffffffffffffffffffff161415611d5a576040517f08c379a0000000000000000000000000000000000000000000000000000000008152600401611d5190614003565b60405180910390fd5b6000611d64611c9e565b9050611d74818787878787612b78565b60005b8451811015611f25576000858281518110611d9557611d9461473e565b5b602002602001015190506000858381518110611db457611db361473e565b5b60200260200101519050600080600084815260200190815260200160002060008b73ffffffffffffffffffffffffffffffffffffffff1673ffffffffffffffffffffffffffffffffffffffff16815260200190815260200160002054905081811015611e55576040517f08c379a0000000000000000000000000000000000000000000000000000000008152600401611e4c90614083565b60405180910390fd5b81810360008085815260200190815260200160002060008c73ffffffffffffffffffffffffffffffffffffffff1673ffffffffffffffffffffffffffffffffffffffff168152602001908152602001600020819055508160008085815260200190815260200160002060008b73ffffffffffffffffffffffffffffffffffffffff1673ffffffffffffffffffffffffffffffffffffffff1681526020019081526020016000206000828254611f0a91906143a4565b9250508190555050505080611f1e906145df565b9050611d77565b508473ffffffffffffffffffffffffffffffffffffffff168673ffffffffffffffffffffffffffffffffffffffff168273ffffffffffffffffffffffffffffffffffffffff167f4a39dc06d4c0dbc64b70af90fd698a233a518aa5d07e595d983b8c0526c8f7fb8787604051611f9c929190613eaf565b60405180910390a4611fb2818787878787612b80565b505050505050565b60606000821415612002576040518060400160405280600181526020017f30000000000000000000000000000000000000000000000000000000000000008152509050612116565b600082905060005b6000821461203457808061201d906145df565b915050600a8261202d91906143fa565b915061200a565b60008167ffffffffffffffff8111156120505761204f61476d565b5b6040519080825280601f01601f1916602001820160405280156120825781602001600182028036833780820191505090505b5090505b6000851461210f5760018261209b9190614485565b9150600a856120aa9190614680565b60306120b691906143a4565b60f81b8183815181106120cc576120cb61473e565b5b60200101907effffffffffffffffffffffffffffffffffffffffffffffffffffffffffffff1916908160001a905350600a8561210891906143fa565b9450612086565b8093505050505b919050565b6000600360009054906101000a900473ffffffffffffffffffffffffffffffffffffffff16905081600360006101000a81548173ffffffffffffffffffffffffffffffffffffffff021916908373ffffffffffffffffffffffffffffffffffffffff1602179055508173ffffffffffffffffffffffffffffffffffffffff168173ffffffffffffffffffffffffffffffffffffffff167f8be0079c531659141344cd1fd0a4f28419497f9722a3daafe3b4186f6b6457e060405160405180910390a35050565b600073ffffffffffffffffffffffffffffffffffffffff168473ffffffffffffffffffffffffffffffffffffffff161415612251576040517f08c379a0000000000000000000000000000000000000000000000000000000008152600401612248906141a3565b60405180910390fd5b600061225b611c9e565b905061227c8160008761226d88612d67565b61227688612d67565b87612b78565b8260008086815260200190815260200160002060008773ffffffffffffffffffffffffffffffffffffffff1673ffffffffffffffffffffffffffffffffffffffff16815260200190815260200160002060008282546122db91906143a4565b925050819055508473ffffffffffffffffffffffffffffffffffffffff16600073ffffffffffffffffffffffffffffffffffffffff168273ffffffffffffffffffffffffffffffffffffffff167fc3d58168c5ae7397731d063d5bbf3d657854427343f4c083240f7aacaa2d0f6287876040516123599291906141de565b60405180910390a461237081600087878787612de1565b5050505050565b8173ffffffffffffffffffffffffffffffffffffffff168373ffffffffffffffffffffffffffffffffffffffff1614156123e6576040517f08c379a00000000000000000000000000000000000000000000000000000000081526004016123dd90614143565b60405180910390fd5b80600160008573ffffffffffffffffffffffffffffffffffffffff1673ffffffffffffffffffffffffffffffffffffffff16815260200190815260200160002060008473ffffffffffffffffffffffffffffffffffffffff1673ffffffffffffffffffffffffffffffffffffffff16815260200190815260200160002060006101000a81548160ff0219169083151502179055508173ffffffffffffffffffffffffffffffffffffffff168373ffffffffffffffffffffffffffffffffffffffff167f17307eab39ab6107e8899845ad3d59bd9653f200f220920489ca2b5937696c31836040516124d79190613ee6565b60405180910390a3505050565b6124ec613061565b6124f4613061565b60005b60058110156125c0576000600a8261250f919061442b565b905060006009600a84612522919061442b565b61252c91906143a4565b9050816001838361253d9190614485565b61254791906143a4565b42334487601554604051602001612562959493929190613cff565b6040516020818303038152906040528051906020012060001c6125859190614680565b61258f91906143a4565b8484600581106125a2576125a161473e565b5b602002018181525050505080806125b8906145df565b9150506124f7565b508091505090565b601054600f546125d8919061442b565b60175410156126c057601054602660008381526020019081526020016000205410612638576040517f08c379a000000000000000000000000000000000000000000000000000000000815260040161262f90613fe3565b60405180910390fd5b61267a338260016040518060400160405280600481526020017f30783030000000000000000000000000000000000000000000000000000000008152506121e1565b600160266000838152602001908152602001600020600082825461269e91906143a4565b925050819055506001601760008282546126b891906143a4565b925050819055505b50565b600073ffffffffffffffffffffffffffffffffffffffff168373ffffffffffffffffffffffffffffffffffffffff161415612733576040517f08c379a000000000000000000000000000000000000000000000000000000000815260040161272a90614063565b60405180910390fd5b600061273d611c9e565b905061276d8185600061274f87612d67565b61275887612d67565b60405180602001604052806000815250612b78565b600080600085815260200190815260200160002060008673ffffffffffffffffffffffffffffffffffffffff1673ffffffffffffffffffffffffffffffffffffffff16815260200190815260200160002054905082811015612804576040517f08c379a00000000000000000000000000000000000000000000000000000000081526004016127fb90613fa3565b60405180910390fd5b82810360008086815260200190815260200160002060008773ffffffffffffffffffffffffffffffffffffffff1673ffffffffffffffffffffffffffffffffffffffff16815260200190815260200160002081905550600073ffffffffffffffffffffffffffffffffffffffff168573ffffffffffffffffffffffffffffffffffffffff168373ffffffffffffffffffffffffffffffffffffffff167fc3d58168c5ae7397731d063d5bbf3d657854427343f4c083240f7aacaa2d0f6287876040516128d19291906141de565b60405180910390a45050505050565b600081836128ee91906143a4565b905092915050565b600073ffffffffffffffffffffffffffffffffffffffff168473ffffffffffffffffffffffffffffffffffffffff161415612966576040517f08c379a000000000000000000000000000000000000000000000000000000000815260040161295d90614003565b60405180910390fd5b6000612970611c9e565b905061299081878761298188612d67565b61298a88612d67565b87612b78565b600080600086815260200190815260200160002060008873ffffffffffffffffffffffffffffffffffffffff1673ffffffffffffffffffffffffffffffffffffffff16815260200190815260200160002054905083811015612a27576040517f08c379a0000000000000000000000000000000000000000000000000000000008152600401612a1e90614083565b60405180910390fd5b83810360008087815260200190815260200160002060008973ffffffffffffffffffffffffffffffffffffffff1673ffffffffffffffffffffffffffffffffffffffff168152602001908152602001600020819055508360008087815260200190815260200160002060008873ffffffffffffffffffffffffffffffffffffffff1673ffffffffffffffffffffffffffffffffffffffff1681526020019081526020016000206000828254612adc91906143a4565b925050819055508573ffffffffffffffffffffffffffffffffffffffff168773ffffffffffffffffffffffffffffffffffffffff168373ffffffffffffffffffffffffffffffffffffffff167fc3d58168c5ae7397731d063d5bbf3d657854427343f4c083240f7aacaa2d0f628888604051612b599291906141de565b60405180910390a4612b6f828888888888612de1565b50505050505050565b505050505050565b612b9f8473ffffffffffffffffffffffffffffffffffffffff16612fc8565b15612d5f578373ffffffffffffffffffffffffffffffffffffffff1663bc197c8187878686866040518663ffffffff1660e01b8152600401612be5959493929190613d79565b602060405180830381600087803b158015612bff57600080fd5b505af1925050508015612c3057506040513d601f19601f82011682018060405250810190612c2d91906136a8565b60015b612cd657612c3c61479c565b806308c379a01415612c995750612c51614e34565b80612c5c5750612c9b565b806040517f08c379a0000000000000000000000000000000000000000000000000000000008152600401612c909190613f01565b60405180910390fd5b505b6040517f08c379a0000000000000000000000000000000000000000000000000000000008152600401612ccd90613f23565b60405180910390fd5b63bc197c8160e01b7bffffffffffffffffffffffffffffffffffffffffffffffffffffffff1916817bffffffffffffffffffffffffffffffffffffffffffffffffffffffff191614612d5d576040517f08c379a0000000000000000000000000000000000000000000000000000000008152600401612d5490613f43565b60405180910390fd5b505b505050505050565b60606000600167ffffffffffffffff811115612d8657612d8561476d565b5b604051908082528060200260200182016040528015612db45781602001602082028036833780820191505090505b5090508281600081518110612dcc57612dcb61473e565b5b60200260200101818152505080915050919050565b612e008473ffffffffffffffffffffffffffffffffffffffff16612fc8565b15612fc0578373ffffffffffffffffffffffffffffffffffffffff1663f23a6e6187878686866040518663ffffffff1660e01b8152600401612e46959493929190613de1565b602060405180830381600087803b158015612e6057600080fd5b505af1925050508015612e9157506040513d601f19601f82011682018060405250810190612e8e91906136a8565b60015b612f3757612e9d61479c565b806308c379a01415612efa5750612eb2614e34565b80612ebd5750612efc565b806040517f08c379a0000000000000000000000000000000000000000000000000000000008152600401612ef19190613f01565b60405180910390fd5b505b6040517f08c379a0000000000000000000000000000000000000000000000000000000008152600401612f2e90613f23565b60405180910390fd5b63f23a6e6160e01b7bffffffffffffffffffffffffffffffffffffffffffffffffffffffff1916817bffffffffffffffffffffffffffffffffffffffffffffffffffffffff191614612fbe576040517f08c379a0000000000000000000000000000000000000000000000000000000008152600401612fb590613f43565b60405180910390fd5b505b505050505050565b600080823b905060008111915050919050565b828054612fe79061457c565b90600052602060002090601f0160209004810192826130095760008555613050565b82601f1061302257805160ff1916838001178555613050565b82800160010185558215613050579182015b8281111561304f578251825591602001919060010190613034565b5b50905061305d9190613083565b5090565b6040518060a00160405280600590602082028036833780820191505090505090565b5b8082111561309c576000816000905550600101613084565b5090565b60006130b36130ae8461422c565b614207565b905080838252602082019050828560208602820111156130d6576130d56147c3565b5b60005b8581101561310657816130ec8882613204565b8452602084019350602083019250506001810190506130d9565b5050509392505050565b600061312361311e84614258565b614207565b90508083825260208201905082856020860282011115613146576131456147c3565b5b60005b85811015613176578161315c8882613325565b845260208401935060208301925050600181019050613149565b5050509392505050565b600061319361318e84614284565b614207565b9050828152602081018484840111156131af576131ae6147c8565b5b6131ba84828561453a565b509392505050565b60006131d56131d0846142b5565b614207565b9050828152602081018484840111156131f1576131f06147c8565b5b6131fc84828561453a565b509392505050565b60008135905061321381614eca565b92915050565b600082601f83011261322e5761322d6147be565b5b813561323e8482602086016130a0565b91505092915050565b600082601f83011261325c5761325b6147be565b5b813561326c848260208601613110565b91505092915050565b60008135905061328481614ee1565b92915050565b60008151905061329981614ee1565b92915050565b6000813590506132ae81614ef8565b92915050565b6000815190506132c381614ef8565b92915050565b600082601f8301126132de576132dd6147be565b5b81356132ee848260208601613180565b91505092915050565b600082601f83011261330c5761330b6147be565b5b813561331c8482602086016131c2565b91505092915050565b60008135905061333481614f0f565b92915050565b6000602082840312156133505761334f6147d2565b5b600061335e84828501613204565b91505092915050565b6000806040838503121561337e5761337d6147d2565b5b600061338c85828601613204565b925050602061339d85828601613204565b9150509250929050565b600080600080600060a086880312156133c3576133c26147d2565b5b60006133d188828901613204565b95505060206133e288828901613204565b945050604086013567ffffffffffffffff811115613403576134026147cd565b5b61340f88828901613247565b935050606086013567ffffffffffffffff8111156134305761342f6147cd565b5b61343c88828901613247565b925050608086013567ffffffffffffffff81111561345d5761345c6147cd565b5b613469888289016132c9565b9150509295509295909350565b600080600080600060a08688031215613492576134916147d2565b5b60006134a088828901613204565b95505060206134b188828901613204565b94505060406134c288828901613325565b93505060606134d388828901613325565b925050608086013567ffffffffffffffff8111156134f4576134f36147cd565b5b613500888289016132c9565b9150509295509295909350565b60008060408385031215613524576135236147d2565b5b600061353285828601613204565b925050602061354385828601613275565b9150509250929050565b60008060408385031215613564576135636147d2565b5b600061357285828601613204565b925050602061358385828601613325565b9150509250929050565b6000602082840312156135a3576135a26147d2565b5b600082013567ffffffffffffffff8111156135c1576135c06147cd565b5b6135cd84828501613219565b91505092915050565b600080604083850312156135ed576135ec6147d2565b5b600083013567ffffffffffffffff81111561360b5761360a6147cd565b5b61361785828601613219565b925050602083013567ffffffffffffffff811115613638576136376147cd565b5b61364485828601613247565b9150509250929050565b600060208284031215613664576136636147d2565b5b60006136728482850161328a565b91505092915050565b600060208284031215613691576136906147d2565b5b600061369f8482850161329f565b91505092915050565b6000602082840312156136be576136bd6147d2565b5b60006136cc848285016132b4565b91505092915050565b6000602082840312156136eb576136ea6147d2565b5b60006136f984828501613325565b91505092915050565b60008060408385031215613719576137186147d2565b5b600061372785828601613325565b925050602083013567ffffffffffffffff811115613748576137476147cd565b5b613754858286016132f7565b9150509250929050565b600061376a8383613c84565b60208301905092915050565b61377f816144b9565b82525050565b613796613791826144b9565b614652565b82525050565b6137a581614315565b6137af818461435b565b92506137ba826142e6565b8060005b838110156137eb5781516137d2878261375e565b96506137dd83614341565b9250506001810190506137be565b505050505050565b60006137fe82614320565b6138088185614366565b9350613813836142f0565b8060005b8381101561384457815161382b888261375e565b97506138368361434e565b925050600181019050613817565b5085935050505092915050565b61385a816144cb565b82525050565b600061386b8261432b565b6138758185614377565b9350613885818560208601614549565b61388e816147d7565b840191505092915050565b60006138a482614336565b6138ae8185614388565b93506138be818560208601614549565b6138c7816147d7565b840191505092915050565b60006138dd82614336565b6138e78185614399565b93506138f7818560208601614549565b80840191505092915050565b600081546139108161457c565b61391a8186614399565b94506001821660008114613935576001811461394657613979565b60ff19831686528186019350613979565b61394f85614300565b60005b8381101561397157815481890152600182019150602081019050613952565b838801955050505b50505092915050565b600061398f603483614388565b915061399a82614802565b604082019050919050565b60006139b2602883614388565b91506139bd82614851565b604082019050919050565b60006139d5602b83614388565b91506139e0826148a0565b604082019050919050565b60006139f8602683614388565b9150613a03826148ef565b604082019050919050565b6000613a1b602483614388565b9150613a268261493e565b604082019050919050565b6000613a3e602983614388565b9150613a498261498d565b604082019050919050565b6000613a61602d83614388565b9150613a6c826149dc565b604082019050919050565b6000613a84602583614388565b9150613a8f82614a2b565b604082019050919050565b6000613aa7603283614388565b9150613ab282614a7a565b604082019050919050565b6000613aca601483614388565b9150613ad582614ac9565b602082019050919050565b6000613aed602383614388565b9150613af882614af2565b604082019050919050565b6000613b10602a83614388565b9150613b1b82614b41565b604082019050919050565b6000613b33600583614399565b9150613b3e82614b90565b600582019050919050565b6000613b56602083614388565b9150613b6182614bb9565b602082019050919050565b6000613b79602f83614388565b9150613b8482614be2565b604082019050919050565b6000613b9c602383614388565b9150613ba782614c31565b604082019050919050565b6000613bbf601f83614388565b9150613bca82614c80565b602082019050919050565b6000613be2602a83614388565b9150613bed82614ca9565b604082019050919050565b6000613c05602983614388565b9150613c1082614cf8565b604082019050919050565b6000613c28602983614388565b9150613c3382614d47565b604082019050919050565b6000613c4b602883614388565b9150613c5682614d96565b604082019050919050565b6000613c6e602183614388565b9150613c7982614de5565b604082019050919050565b613c8d81614523565b82525050565b613c9c81614523565b82525050565b613cb3613cae82614523565b614676565b82525050565b6000613cc58284613903565b915081905092915050565b6000613cdc8285613903565b9150613ce882846138d2565b9150613cf382613b26565b91508190509392505050565b6000613d0b8288613ca2565b602082019150613d1b8287613785565b601482019150613d2b8286613ca2565b602082019150613d3b8285613ca2565b602082019150613d4b8284613ca2565b6020820191508190509695505050505050565b6000602082019050613d736000830184613776565b92915050565b600060a082019050613d8e6000830188613776565b613d9b6020830187613776565b8181036040830152613dad81866137f3565b90508181036060830152613dc181856137f3565b90508181036080830152613dd58184613860565b90509695505050505050565b600060a082019050613df66000830188613776565b613e036020830187613776565b613e106040830186613c93565b613e1d6060830185613c93565b8181036080830152613e2f8184613860565b90509695505050505050565b6000604082019050613e506000830185613776565b613e5d6020830184613c93565b9392505050565b600060c082019050613e79600083018561379c565b613e8660a0830184613776565b9392505050565b60006020820190508181036000830152613ea781846137f3565b905092915050565b60006040820190508181036000830152613ec981856137f3565b90508181036020830152613edd81846137f3565b90509392505050565b6000602082019050613efb6000830184613851565b92915050565b60006020820190508181036000830152613f1b8184613899565b905092915050565b60006020820190508181036000830152613f3c81613982565b9050919050565b60006020820190508181036000830152613f5c816139a5565b9050919050565b60006020820190508181036000830152613f7c816139c8565b9050919050565b60006020820190508181036000830152613f9c816139eb565b9050919050565b60006020820190508181036000830152613fbc81613a0e565b9050919050565b60006020820190508181036000830152613fdc81613a31565b9050919050565b60006020820190508181036000830152613ffc81613a54565b9050919050565b6000602082019050818103600083015261401c81613a77565b9050919050565b6000602082019050818103600083015261403c81613a9a565b9050919050565b6000602082019050818103600083015261405c81613abd565b9050919050565b6000602082019050818103600083015261407c81613ae0565b9050919050565b6000602082019050818103600083015261409c81613b03565b9050919050565b600060208201905081810360008301526140bc81613b49565b9050919050565b600060208201905081810360008301526140dc81613b6c565b9050919050565b600060208201905081810360008301526140fc81613b8f565b9050919050565b6000602082019050818103600083015261411c81613bb2565b9050919050565b6000602082019050818103600083015261413c81613bd5565b9050919050565b6000602082019050818103600083015261415c81613bf8565b9050919050565b6000602082019050818103600083015261417c81613c1b565b9050919050565b6000602082019050818103600083015261419c81613c3e565b9050919050565b600060208201905081810360008301526141bc81613c61565b9050919050565b60006020820190506141d86000830184613c93565b92915050565b60006040820190506141f36000830185613c93565b6142006020830184613c93565b9392505050565b6000614211614222565b905061421d82826145ae565b919050565b6000604051905090565b600067ffffffffffffffff8211156142475761424661476d565b5b602082029050602081019050919050565b600067ffffffffffffffff8211156142735761427261476d565b5b602082029050602081019050919050565b600067ffffffffffffffff82111561429f5761429e61476d565b5b6142a8826147d7565b9050602081019050919050565b600067ffffffffffffffff8211156142d0576142cf61476d565b5b6142d9826147d7565b9050602081019050919050565b6000819050919050565b6000819050602082019050919050565b60008190508160005260206000209050919050565b600060059050919050565b600081519050919050565b600081519050919050565b600081519050919050565b6000602082019050919050565b6000602082019050919050565b600081905092915050565b600082825260208201905092915050565b600082825260208201905092915050565b600082825260208201905092915050565b600081905092915050565b60006143af82614523565b91506143ba83614523565b9250827fffffffffffffffffffffffffffffffffffffffffffffffffffffffffffffffff038211156143ef576143ee6146b1565b5b828201905092915050565b600061440582614523565b915061441083614523565b9250826144205761441f6146e0565b5b828204905092915050565b600061443682614523565b915061444183614523565b9250817fffffffffffffffffffffffffffffffffffffffffffffffffffffffffffffffff048311821515161561447a576144796146b1565b5b828202905092915050565b600061449082614523565b915061449b83614523565b9250828210156144ae576144ad6146b1565b5b828203905092915050565b60006144c482614503565b9050919050565b60008115159050919050565b60007fffffffff0000000000000000000000000000000000000000000000000000000082169050919050565b600073ffffffffffffffffffffffffffffffffffffffff82169050919050565b6000819050919050565b600060ff82169050919050565b82818337600083830152505050565b60005b8381101561456757808201518184015260208101905061454c565b83811115614576576000848401525b50505050565b6000600282049050600182168061459457607f821691505b602082108114156145a8576145a761470f565b5b50919050565b6145b7826147d7565b810181811067ffffffffffffffff821117156145d6576145d561476d565b5b80604052505050565b60006145ea82614523565b91507fffffffffffffffffffffffffffffffffffffffffffffffffffffffffffffffff82141561461d5761461c6146b1565b5b600182019050919050565b60006146338261452d565b915060ff821415614647576146466146b1565b5b600182019050919050565b600061465d82614664565b9050919050565b600061466f826147e8565b9050919050565b6000819050919050565b600061468b82614523565b915061469683614523565b9250826146a6576146a56146e0565b5b828206905092915050565b7f4e487b7100000000000000000000000000000000000000000000000000000000600052601160045260246000fd5b7f4e487b7100000000000000000000000000000000000000000000000000000000600052601260045260246000fd5b7f4e487b7100000000000000000000000000000000000000000000000000000000600052602260045260246000fd5b7f4e487b7100000000000000000000000000000000000000000000000000000000600052603260045260246000fd5b7f4e487b7100000000000000000000000000000000000000000000000000000000600052604160045260246000fd5b600060033d11156147bb5760046000803e6147b86000516147f5565b90505b90565b600080fd5b600080fd5b600080fd5b600080fd5b600080fd5b6000601f19601f8301169050919050565b60008160601b9050919050565b60008160e01c9050919050565b7f455243313135353a207472616e7366657220746f206e6f6e204552433131353560008201527f526563656976657220696d706c656d656e746572000000000000000000000000602082015250565b7f455243313135353a204552433131353552656365697665722072656a6563746560008201527f6420746f6b656e73000000000000000000000000000000000000000000000000602082015250565b7f455243313135353a2062616c616e636520717565727920666f7220746865207a60008201527f65726f2061646472657373000000000000000000000000000000000000000000602082015250565b7f4f776e61626c653a206e6577206f776e657220697320746865207a65726f206160008201527f6464726573730000000000000000000000000000000000000000000000000000602082015250565b7f455243313135353a206275726e20616d6f756e7420657863656564732062616c60008201527f616e636500000000000000000000000000000000000000000000000000000000602082015250565b7f455243313135353a2063616c6c6572206973206e6f74206f776e6572206e6f7260008201527f20617070726f7665640000000000000000000000000000000000000000000000602082015250565b7f416c6c206f662074686973206174686c657465206861766520616c726561647960008201527f206265656e206d696e7465642100000000000000000000000000000000000000602082015250565b7f455243313135353a207472616e7366657220746f20746865207a65726f20616460008201527f6472657373000000000000000000000000000000000000000000000000000000602082015250565b7f455243313135353a207472616e736665722063616c6c6572206973206e6f742060008201527f6f776e6572206e6f7220617070726f7665640000000000000000000000000000602082015250565b7f43616e6e6f742073657420757269207477696365000000000000000000000000600082015250565b7f455243313135353a206275726e2066726f6d20746865207a65726f206164647260008201527f6573730000000000000000000000000000000000000000000000000000000000602082015250565b7f455243313135353a20696e73756666696369656e742062616c616e636520666f60008201527f72207472616e7366657200000000000000000000000000000000000000000000602082015250565b7f2e6a736f6e000000000000000000000000000000000000000000000000000000600082015250565b7f4f776e61626c653a2063616c6c6572206973206e6f7420746865206f776e6572600082015250565b7f5061636b2068617320616c7265616479206265656e206275726e6564206f722060008201527f646f6573206e6f742065786973742e0000000000000000000000000000000000602082015250565b7f416c6c207061636b73206861766520616c7265616479206265656e206d696e7460008201527f6564210000000000000000000000000000000000000000000000000000000000602082015250565b7f5061636b73206172656e277420726561647920746f206f70656e207965742100600082015250565b7f43616e206f6e6c79206d696e74206f6e652073746172746572207061636b207060008201527f6572206163636f756e7400000000000000000000000000000000000000000000602082015250565b7f455243313135353a2073657474696e6720617070726f76616c2073746174757360008201527f20666f722073656c660000000000000000000000000000000000000000000000602082015250565b7f455243313135353a206163636f756e747320616e6420696473206c656e67746860008201527f206d69736d617463680000000000000000000000000000000000000000000000602082015250565b7f455243313135353a2069647320616e6420616d6f756e7473206c656e6774682060008201527f6d69736d61746368000000000000000000000000000000000000000000000000602082015250565b7f455243313135353a206d696e7420746f20746865207a65726f2061646472657360008201527f7300000000000000000000000000000000000000000000000000000000000000602082015250565b600060443d1015614e4457614ec7565b614e4c614222565b60043d036004823e80513d602482011167ffffffffffffffff82111715614e74575050614ec7565b808201805167ffffffffffffffff811115614e925750505050614ec7565b80602083010160043d038501811115614eaf575050505050614ec7565b614ebe826020018501866145ae565b82955050505050505b90565b614ed3816144b9565b8114614ede57600080fd5b50565b614eea816144cb565b8114614ef557600080fd5b50565b614f01816144d7565b8114614f0c57600080fd5b50565b614f1881614523565b8114614f2357600080fd5b5056fea2646970667358221220dff0b7b31845d0cb9663b61b946459917530e64357601a8c6d1c0eba955c042264736f6c63430008070033608060405234801561001057600080fd5b5061002d61002261003260201b60201c565b61003a60201b60201c565b6100fe565b600033905090565b60008060009054906101000a900473ffffffffffffffffffffffffffffffffffffffff169050816000806101000a81548173ffffffffffffffffffffffffffffffffffffffff021916908373ffffffffffffffffffffffffffffffffffffffff1602179055508173ffffffffffffffffffffffffffffffffffffffff168173ffffffffffffffffffffffffffffffffffffffff167f8be0079c531659141344cd1fd0a4f28419497f9722a3daafe3b4186f6b6457e060405160405180910390a35050565b610e928061010d6000396000f3fe608060405234801561001057600080fd5b50600436106100935760003560e01c80638da5cb5b116100665780638da5cb5b146101325780639b19251a14610150578063dc9a153514610180578063e2ec6ec31461019e578063f2fde38b146101ce57610093565b806324953eaa14610098578063286dd3f5146100c8578063715018a6146100f85780637b9417c814610102575b600080fd5b6100b260048036038101906100ad9190610a4a565b6101ea565b6040516100bf9190610b12565b60405180910390f35b6100e260048036038101906100dd9190610a1d565b6102d4565b6040516100ef9190610b12565b60405180910390f35b610100610457565b005b61011c60048036038101906101179190610a1d565b6104df565b6040516101299190610b12565b60405180910390f35b61013a610660565b6040516101479190610af7565b60405180910390f35b61016a60048036038101906101659190610a1d565b610689565b6040516101779190610b12565b60405180910390f35b6101886106a9565b6040516101959190610b12565b60405180910390f35b6101b860048036038101906101b39190610a4a565b6106bc565b6040516101c59190610b12565b60405180910390f35b6101e860048036038101906101e39190610a1d565b6107a6565b005b60006101f461089e565b73ffffffffffffffffffffffffffffffffffffffff16610212610660565b73ffffffffffffffffffffffffffffffffffffffff1614610268576040517f08c379a000000000000000000000000000000000000000000000000000000000815260040161025f90610b4d565b60405180910390fd5b60005b82518110156102ce5761029783828151811061028a57610289610d4a565b5b60200260200101516102d4565b156102bb576001600260008282546102af9190610c25565b92505081905550600191505b80806102c690610cd2565b91505061026b565b50919050565b60006102de61089e565b73ffffffffffffffffffffffffffffffffffffffff166102fc610660565b73ffffffffffffffffffffffffffffffffffffffff1614610352576040517f08c379a000000000000000000000000000000000000000000000000000000000815260040161034990610b4d565b60405180910390fd5b600160008373ffffffffffffffffffffffffffffffffffffffff1673ffffffffffffffffffffffffffffffffffffffff16815260200190815260200160002060009054906101000a900460ff1615610452576000600160008473ffffffffffffffffffffffffffffffffffffffff1673ffffffffffffffffffffffffffffffffffffffff16815260200190815260200160002060006101000a81548160ff0219169083151502179055507ff1abf01a1043b7c244d128e8595cf0c1d10743b022b03a02dffd8ca3bf729f5a8260405161042b9190610af7565b60405180910390a16001600260008282546104469190610c25565b92505081905550600190505b919050565b61045f61089e565b73ffffffffffffffffffffffffffffffffffffffff1661047d610660565b73ffffffffffffffffffffffffffffffffffffffff16146104d3576040517f08c379a00000000000000000000000000000000000000000000000000000000081526004016104ca90610b4d565b60405180910390fd5b6104dd60006108a6565b565b60006104e961089e565b73ffffffffffffffffffffffffffffffffffffffff16610507610660565b73ffffffffffffffffffffffffffffffffffffffff161461055d576040517f08c379a000000000000000000000000000000000000000000000000000000000815260040161055490610b4d565b60405180910390fd5b600160008373ffffffffffffffffffffffffffffffffffffffff1673ffffffffffffffffffffffffffffffffffffffff16815260200190815260200160002060009054906101000a900460ff1661065b5760018060008473ffffffffffffffffffffffffffffffffffffffff1673ffffffffffffffffffffffffffffffffffffffff16815260200190815260200160002060006101000a81548160ff0219169083151502179055507fd1bba68c128cc3f427e5831b3c6f99f480b6efa6b9e80c757768f6124158cc3f826040516106349190610af7565b60405180910390a160016002600082825461064f9190610bcf565b92505081905550600190505b919050565b60008060009054906101000a900473ffffffffffffffffffffffffffffffffffffffff16905090565b60016020528060005260406000206000915054906101000a900460ff1681565b600360009054906101000a900460ff1681565b60006106c661089e565b73ffffffffffffffffffffffffffffffffffffffff166106e4610660565b73ffffffffffffffffffffffffffffffffffffffff161461073a576040517f08c379a000000000000000000000000000000000000000000000000000000000815260040161073190610b4d565b60405180910390fd5b60005b82518110156107a05761076983828151811061075c5761075b610d4a565b5b60200260200101516104df565b1561078d576001600260008282546107819190610bcf565b92505081905550600191505b808061079890610cd2565b91505061073d565b50919050565b6107ae61089e565b73ffffffffffffffffffffffffffffffffffffffff166107cc610660565b73ffffffffffffffffffffffffffffffffffffffff1614610822576040517f08c379a000000000000000000000000000000000000000000000000000000000815260040161081990610b4d565b60405180910390fd5b600073ffffffffffffffffffffffffffffffffffffffff168173ffffffffffffffffffffffffffffffffffffffff161415610892576040517f08c379a000000000000000000000000000000000000000000000000000000000815260040161088990610b2d565b60405180910390fd5b61089b816108a6565b50565b600033905090565b60008060009054906101000a900473ffffffffffffffffffffffffffffffffffffffff169050816000806101000a81548173ffffffffffffffffffffffffffffffffffffffff021916908373ffffffffffffffffffffffffffffffffffffffff1602179055508173ffffffffffffffffffffffffffffffffffffffff168173ffffffffffffffffffffffffffffffffffffffff167f8be0079c531659141344cd1fd0a4f28419497f9722a3daafe3b4186f6b6457e060405160405180910390a35050565b600061097d61097884610b92565b610b6d565b905080838252602082019050828560208602820111156109a05761099f610dad565b5b60005b858110156109d057816109b688826109da565b8452602084019350602083019250506001810190506109a3565b5050509392505050565b6000813590506109e981610e45565b92915050565b600082601f830112610a0457610a03610da8565b5b8135610a1484826020860161096a565b91505092915050565b600060208284031215610a3357610a32610db7565b5b6000610a41848285016109da565b91505092915050565b600060208284031215610a6057610a5f610db7565b5b600082013567ffffffffffffffff811115610a7e57610a7d610db2565b5b610a8a848285016109ef565b91505092915050565b610a9c81610c59565b82525050565b610aab81610c6b565b82525050565b6000610abe602683610bbe565b9150610ac982610dcd565b604082019050919050565b6000610ae1602083610bbe565b9150610aec82610e1c565b602082019050919050565b6000602082019050610b0c6000830184610a93565b92915050565b6000602082019050610b276000830184610aa2565b92915050565b60006020820190508181036000830152610b4681610ab1565b9050919050565b60006020820190508181036000830152610b6681610ad4565b9050919050565b6000610b77610b88565b9050610b838282610ca1565b919050565b6000604051905090565b600067ffffffffffffffff821115610bad57610bac610d79565b5b602082029050602081019050919050565b600082825260208201905092915050565b6000610bda82610c97565b9150610be583610c97565b9250827fffffffffffffffffffffffffffffffffffffffffffffffffffffffffffffffff03821115610c1a57610c19610d1b565b5b828201905092915050565b6000610c3082610c97565b9150610c3b83610c97565b925082821015610c4e57610c4d610d1b565b5b828203905092915050565b6000610c6482610c77565b9050919050565b60008115159050919050565b600073ffffffffffffffffffffffffffffffffffffffff82169050919050565b6000819050919050565b610caa82610dbc565b810181811067ffffffffffffffff82111715610cc957610cc8610d79565b5b80604052505050565b6000610cdd82610c97565b91507fffffffffffffffffffffffffffffffffffffffffffffffffffffffffffffffff821415610d1057610d0f610d1b565b5b600182019050919050565b7f4e487b7100000000000000000000000000000000000000000000000000000000600052601160045260246000fd5b7f4e487b7100000000000000000000000000000000000000000000000000000000600052603260045260246000fd5b7f4e487b7100000000000000000000000000000000000000000000000000000000600052604160045260246000fd5b600080fd5b600080fd5b600080fd5b600080fd5b6000601f19601f8301169050919050565b7f4f776e61626c653a206e6577206f776e657220697320746865207a65726f206160008201527f6464726573730000000000000000000000000000000000000000000000000000602082015250565b7f4f776e61626c653a2063616c6c6572206973206e6f7420746865206f776e6572600082015250565b610e4e81610c59565b8114610e5957600080fd5b5056fea2646970667358221220a21085165a95bba102b3fe59880e17f3027964706b8a63561e6b8ccd43ba90fb64736f6c63430008070033",
  "linkReferences": {},
  "deployedLinkReferences": {}
}