{
  "_format": "hh-sol-artifact-1",
  "contractName": "GameItems",
  "sourceName": "contracts/GameItems.sol",
  "abi": [
    {
      "inputs": [
        {
          "internalType": "uint256",
          "name": "_numAthletes",
          "type": "uint256"
        },
        {
          "internalType": "uint256",
          "name": "_nftPerAthlete",
          "type": "uint256"
        },
        {
          "internalType": "uint256",
          "name": "_starterPackSize",
          "type": "uint256"
        },
        {
          "internalType": "uint256",
          "name": "_boosterPackSize",
          "type": "uint256"
        },
        {
          "internalType": "uint256",
          "name": "_maxStarterPackBalance",
          "type": "uint256"
        },
        {
          "internalType": "uint256",
          "name": "_maxBoosterPackBalance",
          "type": "uint256"
        },
        {
          "internalType": "uint256",
          "name": "_maxPacks",
          "type": "uint256"
        },
        {
          "internalType": "string",
          "name": "_athleteURI",
          "type": "string"
        },
        {
          "internalType": "string",
          "name": "_starterPackURI",
          "type": "string"
        },
        {
          "internalType": "string",
          "name": "_boosterPackURI",
          "type": "string"
        },
        {
          "internalType": "uint256",
          "name": "_revealTimestamp",
          "type": "uint256"
        }
      ],
      "stateMutability": "nonpayable",
      "type": "constructor"
    },
    {
      "anonymous": false,
      "inputs": [
        {
          "indexed": true,
          "internalType": "address",
          "name": "account",
          "type": "address"
        },
        {
          "indexed": true,
          "internalType": "address",
          "name": "operator",
          "type": "address"
        },
        {
          "indexed": false,
          "internalType": "bool",
          "name": "approved",
          "type": "bool"
        }
      ],
      "name": "ApprovalForAll",
      "type": "event"
    },
    {
      "anonymous": false,
      "inputs": [
        {
          "indexed": true,
          "internalType": "address",
          "name": "previousOwner",
          "type": "address"
        },
        {
          "indexed": true,
          "internalType": "address",
          "name": "newOwner",
          "type": "address"
        }
      ],
      "name": "OwnershipTransferred",
      "type": "event"
    },
    {
      "anonymous": false,
      "inputs": [
        {
          "indexed": true,
          "internalType": "address",
          "name": "operator",
          "type": "address"
        },
        {
          "indexed": true,
          "internalType": "address",
          "name": "from",
          "type": "address"
        },
        {
          "indexed": true,
          "internalType": "address",
          "name": "to",
          "type": "address"
        },
        {
          "indexed": false,
          "internalType": "uint256[]",
          "name": "ids",
          "type": "uint256[]"
        },
        {
          "indexed": false,
          "internalType": "uint256[]",
          "name": "values",
          "type": "uint256[]"
        }
      ],
      "name": "TransferBatch",
      "type": "event"
    },
    {
      "anonymous": false,
      "inputs": [
        {
          "indexed": true,
          "internalType": "address",
          "name": "operator",
          "type": "address"
        },
        {
          "indexed": true,
          "internalType": "address",
          "name": "from",
          "type": "address"
        },
        {
          "indexed": true,
          "internalType": "address",
          "name": "to",
          "type": "address"
        },
        {
          "indexed": false,
          "internalType": "uint256",
          "name": "id",
          "type": "uint256"
        },
        {
          "indexed": false,
          "internalType": "uint256",
          "name": "value",
          "type": "uint256"
        }
      ],
      "name": "TransferSingle",
      "type": "event"
    },
    {
      "anonymous": false,
      "inputs": [
        {
          "indexed": false,
          "internalType": "string",
          "name": "value",
          "type": "string"
        },
        {
          "indexed": true,
          "internalType": "uint256",
          "name": "id",
          "type": "uint256"
        }
      ],
      "name": "URI",
      "type": "event"
    },
    {
      "anonymous": false,
      "inputs": [
        {
          "indexed": false,
          "internalType": "address",
          "name": "user",
          "type": "address"
        },
        {
          "indexed": false,
          "internalType": "uint256",
          "name": "id",
          "type": "uint256"
        }
      ],
      "name": "packMinted",
      "type": "event"
    },
    {
      "inputs": [],
      "name": "REVEAL_TIMESTAMP",
      "outputs": [
        {
          "internalType": "uint256",
          "name": "",
          "type": "uint256"
        }
      ],
      "stateMutability": "view",
      "type": "function"
    },
    {
      "inputs": [
        {
          "internalType": "address",
          "name": "account",
          "type": "address"
        },
        {
          "internalType": "uint256",
          "name": "id",
          "type": "uint256"
        }
      ],
      "name": "balanceOf",
      "outputs": [
        {
          "internalType": "uint256",
          "name": "",
          "type": "uint256"
        }
      ],
      "stateMutability": "view",
      "type": "function"
    },
    {
      "inputs": [
        {
          "internalType": "address[]",
          "name": "accounts",
          "type": "address[]"
        },
        {
          "internalType": "uint256[]",
          "name": "ids",
          "type": "uint256[]"
        }
      ],
      "name": "balanceOfBatch",
      "outputs": [
        {
          "internalType": "uint256[]",
          "name": "",
          "type": "uint256[]"
        }
      ],
      "stateMutability": "view",
      "type": "function"
    },
    {
      "inputs": [],
      "name": "burnBoosterPack",
      "outputs": [],
      "stateMutability": "nonpayable",
      "type": "function"
    },
    {
      "inputs": [],
      "name": "burnStarterPack",
      "outputs": [],
      "stateMutability": "nonpayable",
      "type": "function"
    },
    {
      "inputs": [],
      "name": "emergencySetStartingIndexBlock",
      "outputs": [],
      "stateMutability": "nonpayable",
      "type": "function"
    },
    {
      "inputs": [],
      "name": "generateMagicNum",
      "outputs": [
        {
          "internalType": "uint256",
          "name": "",
          "type": "uint256"
        }
      ],
      "stateMutability": "view",
      "type": "function"
    },
    {
      "inputs": [],
      "name": "generateStarterPackIndices",
      "outputs": [],
      "stateMutability": "nonpayable",
      "type": "function"
    },
    {
      "inputs": [],
      "name": "getNFTPerAthlete",
      "outputs": [
        {
          "internalType": "uint256",
          "name": "",
          "type": "uint256"
        }
      ],
      "stateMutability": "view",
      "type": "function"
    },
    {
      "inputs": [],
      "name": "getStarterPackIndices",
      "outputs": [
        {
          "internalType": "uint256[5]",
          "name": "",
          "type": "uint256[5]"
        }
      ],
      "stateMutability": "view",
      "type": "function"
    },
    {
      "inputs": [
        {
          "internalType": "address",
          "name": "account",
          "type": "address"
        },
        {
          "internalType": "address",
          "name": "operator",
          "type": "address"
        }
      ],
      "name": "isApprovedForAll",
      "outputs": [
        {
          "internalType": "bool",
          "name": "",
          "type": "bool"
        }
      ],
      "stateMutability": "view",
      "type": "function"
    },
    {
      "inputs": [],
      "name": "mintBoosterPack",
      "outputs": [],
      "stateMutability": "nonpayable",
      "type": "function"
    },
    {
      "inputs": [
        {
          "internalType": "uint256",
          "name": "initialSupply",
          "type": "uint256"
        }
      ],
      "name": "mintCurrency",
      "outputs": [],
      "stateMutability": "nonpayable",
      "type": "function"
    },
    {
      "inputs": [],
      "name": "mintStarterPack",
      "outputs": [],
      "stateMutability": "nonpayable",
      "type": "function"
    },
    {
      "inputs": [],
      "name": "owner",
      "outputs": [
        {
          "internalType": "address",
          "name": "",
          "type": "address"
        }
      ],
      "stateMutability": "view",
      "type": "function"
    },
    {
      "inputs": [],
      "name": "packsReadyToOpen",
      "outputs": [
        {
          "internalType": "bool",
          "name": "",
          "type": "bool"
        }
      ],
      "stateMutability": "view",
      "type": "function"
    },
    {
      "inputs": [],
      "name": "renounceOwnership",
      "outputs": [],
      "stateMutability": "nonpayable",
      "type": "function"
    },
    {
      "inputs": [
        {
          "internalType": "address",
          "name": "from",
          "type": "address"
        },
        {
          "internalType": "address",
          "name": "to",
          "type": "address"
        },
        {
          "internalType": "uint256[]",
          "name": "ids",
          "type": "uint256[]"
        },
        {
          "internalType": "uint256[]",
          "name": "amounts",
          "type": "uint256[]"
        },
        {
          "internalType": "bytes",
          "name": "data",
          "type": "bytes"
        }
      ],
      "name": "safeBatchTransferFrom",
      "outputs": [],
      "stateMutability": "nonpayable",
      "type": "function"
    },
    {
      "inputs": [
        {
          "internalType": "address",
          "name": "from",
          "type": "address"
        },
        {
          "internalType": "address",
          "name": "to",
          "type": "address"
        },
        {
          "internalType": "uint256",
          "name": "id",
          "type": "uint256"
        },
        {
          "internalType": "uint256",
          "name": "amount",
          "type": "uint256"
        },
        {
          "internalType": "bytes",
          "name": "data",
          "type": "bytes"
        }
      ],
      "name": "safeTransferFrom",
      "outputs": [],
      "stateMutability": "nonpayable",
      "type": "function"
    },
    {
      "inputs": [
        {
          "internalType": "address",
          "name": "operator",
          "type": "address"
        },
        {
          "internalType": "bool",
          "name": "approved",
          "type": "bool"
        }
      ],
      "name": "setApprovalForAll",
      "outputs": [],
      "stateMutability": "nonpayable",
      "type": "function"
    },
    {
      "inputs": [],
      "name": "setPacksReady",
      "outputs": [],
      "stateMutability": "nonpayable",
      "type": "function"
    },
    {
      "inputs": [
        {
          "internalType": "string",
          "name": "provenanceHash",
          "type": "string"
        }
      ],
      "name": "setProvenanceHash",
      "outputs": [],
      "stateMutability": "nonpayable",
      "type": "function"
    },
    {
      "inputs": [],
      "name": "setStartingIndex",
      "outputs": [],
      "stateMutability": "nonpayable",
      "type": "function"
    },
    {
      "inputs": [
        {
          "internalType": "uint256",
          "name": "tokenId",
          "type": "uint256"
        },
        {
          "internalType": "string",
          "name": "uri",
          "type": "string"
        }
      ],
      "name": "setTokenUri",
      "outputs": [],
      "stateMutability": "nonpayable",
      "type": "function"
    },
    {
      "inputs": [],
      "name": "setURIs",
      "outputs": [],
      "stateMutability": "nonpayable",
      "type": "function"
    },
    {
      "inputs": [
        {
          "internalType": "bytes4",
          "name": "interfaceId",
          "type": "bytes4"
        }
      ],
      "name": "supportsInterface",
      "outputs": [
        {
          "internalType": "bool",
          "name": "",
          "type": "bool"
        }
      ],
      "stateMutability": "view",
      "type": "function"
    },
    {
      "inputs": [
        {
          "internalType": "address",
          "name": "from",
          "type": "address"
        },
        {
          "internalType": "address",
          "name": "to",
          "type": "address"
        },
        {
          "internalType": "uint256",
          "name": "amount",
          "type": "uint256"
        },
        {
          "internalType": "bytes",
          "name": "data",
          "type": "bytes"
        }
      ],
      "name": "transferCurrency",
      "outputs": [],
      "stateMutability": "nonpayable",
      "type": "function"
    },
    {
      "inputs": [
        {
          "internalType": "address",
          "name": "newOwner",
          "type": "address"
        }
      ],
      "name": "transferOwnership",
      "outputs": [],
      "stateMutability": "nonpayable",
      "type": "function"
    },
    {
      "inputs": [
        {
          "internalType": "uint256",
          "name": "tokenId",
          "type": "uint256"
        }
      ],
      "name": "uri",
      "outputs": [
        {
          "internalType": "string",
          "name": "",
          "type": "string"
        }
      ],
      "stateMutability": "view",
      "type": "function"
    }
  ],
  "bytecode": "0x6080604052612710600f556001601060006101000a81548160ff0219169083151502179055506005546011556011546012556040518060400160405280601581526020017f68747470733a2f2f697066732e696f2f697066732f0000000000000000000000815250601690805190602001906200007e929190620003b1565b506040518060200160405280600081525060199080519060200190620000a6929190620003b1565b50348015620000b457600080fd5b5060405162005d3038038062005d308339818101604052810190620000da9190620004ea565b60405180602001604052806000815250620000fb81620001fb60201b60201c565b506200011c620001106200021760201b60201c565b6200021f60201b60201c565b620001676040518060400160405280601281526020017f4d616b696e6720636f6e74726163742e2e2e0000000000000000000000000000815250620002e560201b62001d6a1760201c565b8a6005819055508960068190555088600781905550876008819055508660098190555085600a8190555084600b8190555083600c9080519060200190620001b0929190620003b1565b5082600d9080519060200190620001c9929190620003b1565b5081600e9080519060200190620001e2929190620003b1565b5080600f81905550505050505050505050505062000851565b806002908051906020019062000213929190620003b1565b5050565b600033905090565b6000600360009054906101000a900473ffffffffffffffffffffffffffffffffffffffff16905081600360006101000a81548173ffffffffffffffffffffffffffffffffffffffff021916908373ffffffffffffffffffffffffffffffffffffffff1602179055508173ffffffffffffffffffffffffffffffffffffffff168173ffffffffffffffffffffffffffffffffffffffff167f8be0079c531659141344cd1fd0a4f28419497f9722a3daafe3b4186f6b6457e060405160405180910390a35050565b6200038581604051602401620002fc91906200067d565b6040516020818303038152906040527f41304fac000000000000000000000000000000000000000000000000000000007bffffffffffffffffffffffffffffffffffffffffffffffffffffffff19166020820180517bffffffffffffffffffffffffffffffffffffffffffffffffffffffff83818316178352505050506200038860201b60201c565b50565b60008151905060006a636f6e736f6c652e6c6f679050602083016000808483855afa5050505050565b828054620003bf906200075c565b90600052602060002090601f016020900481019282620003e357600085556200042f565b82601f10620003fe57805160ff19168380011785556200042f565b828001600101855582156200042f579182015b828111156200042e57825182559160200191906001019062000411565b5b5090506200043e919062000442565b5090565b5b808211156200045d57600081600090555060010162000443565b5090565b6000620004786200047284620006ca565b620006a1565b9050828152602081018484840111156200049157600080fd5b6200049e84828562000726565b509392505050565b600082601f830112620004b857600080fd5b8151620004ca84826020860162000461565b91505092915050565b600081519050620004e48162000837565b92915050565b60008060008060008060008060008060006101608c8e0312156200050d57600080fd5b60006200051d8e828f01620004d3565b9b50506020620005308e828f01620004d3565b9a50506040620005438e828f01620004d3565b9950506060620005568e828f01620004d3565b9850506080620005698e828f01620004d3565b97505060a06200057c8e828f01620004d3565b96505060c06200058f8e828f01620004d3565b95505060e08c015167ffffffffffffffff811115620005ad57600080fd5b620005bb8e828f01620004a6565b9450506101008c015167ffffffffffffffff811115620005da57600080fd5b620005e88e828f01620004a6565b9350506101208c015167ffffffffffffffff8111156200060757600080fd5b620006158e828f01620004a6565b925050610140620006298e828f01620004d3565b9150509295989b509295989b9093969950565b6000620006498262000700565b6200065581856200070b565b93506200066781856020860162000726565b620006728162000826565b840191505092915050565b600060208201905081810360008301526200069981846200063c565b905092915050565b6000620006ad620006c0565b9050620006bb828262000792565b919050565b6000604051905090565b600067ffffffffffffffff821115620006e857620006e7620007f7565b5b620006f38262000826565b9050602081019050919050565b600081519050919050565b600082825260208201905092915050565b6000819050919050565b60005b838110156200074657808201518184015260208101905062000729565b8381111562000756576000848401525b50505050565b600060028204905060018216806200077557607f821691505b602082108114156200078c576200078b620007c8565b5b50919050565b6200079d8262000826565b810181811067ffffffffffffffff82111715620007bf57620007be620007f7565b5b80604052505050565b7f4e487b7100000000000000000000000000000000000000000000000000000000600052602260045260246000fd5b7f4e487b7100000000000000000000000000000000000000000000000000000000600052604160045260246000fd5b6000601f19601f8301169050919050565b62000842816200071c565b81146200084e57600080fd5b50565b6154cf80620008616000396000f3fe608060405234801561001057600080fd5b50600436106101ce5760003560e01c806357f7789e116101045780639ebf488b116100a2578063e985e9c511610071578063e985e9c514610449578063e986655014610479578063f242432a14610483578063f2fde38b1461049f576101ce565b80639ebf488b146103fb578063a22cb46514610405578063bbb13e1714610421578063be59ec261461042b576101ce565b806375223f92116100de57806375223f92146103ab5780637d17fcbe146103b557806382a3bf3d146103bf5780638da5cb5b146103dd576101ce565b806357f7789e1461037b5780635d2db2bf14610397578063715018a6146103a1576101ce565b806318e20a38116101715780632eb2c2d61161014b5780632eb2c2d6146103075780633c1d4a99146103235780634e1273f4146103415780634f3551d714610371576101ce565b806318e20a38146102c357806319b60439146102e157806319bfbb9e146102eb576101ce565b80631072b91f116101ad5780631072b91f14610263578063109695231461027f57806313dc2db21461029b578063143cc144146102a5576101ce565b8062fdd58e146101d357806301ffc9a7146102035780630e89341c14610233575b600080fd5b6101ed60048036038101906101e891906139a4565b6104bb565b6040516101fa9190614613565b60405180910390f35b61021d60048036038101906102189190613a4c565b610584565b60405161022a919061428f565b60405180910390f35b61024d60048036038101906102489190613adf565b610666565b60405161025a91906142aa565b60405180910390f35b61027d60048036038101906102789190613adf565b61070b565b005b61029960048036038101906102949190613a9e565b610742565b005b6102a36107d8565b005b6102ad610957565b6040516102ba9190614613565b60405180910390f35b6102cb6109dd565b6040516102d89190614613565b60405180910390f35b6102e96109e3565b005b6103056004803603810190610300919061385e565b610a8b565b005b610321600480360381019061031c919061379f565b610a9f565b005b61032b610b40565b604051610338919061421b565b60405180910390f35b61035b600480360381019061035691906139e0565b610c07565b6040516103689190614236565b60405180910390f35b610379610db8565b005b61039560048036038101906103909190613b08565b610ec1565b005b61039f610fcb565b005b6103a96112c9565b005b6103b3611351565b005b6103bd6113fe565b005b6103c76114c8565b6040516103d49190614613565b60405180910390f35b6103e56117f1565b6040516103f29190614115565b60405180910390f35b61040361181b565b005b61041f600480360381019061041a9190613968565b611924565b005b61042961193a565b005b610433611a53565b604051610440919061428f565b60405180910390f35b610463600480360381019061045e9190613763565b611a66565b604051610470919061428f565b60405180910390f35b610481611afa565b005b61049d600480360381019061049891906138d9565b611bd1565b005b6104b960048036038101906104b4919061373a565b611c72565b005b60008073ffffffffffffffffffffffffffffffffffffffff168373ffffffffffffffffffffffffffffffffffffffff16141561052c576040517f08c379a000000000000000000000000000000000000000000000000000000000815260040161052390614393565b60405180910390fd5b60008083815260200190815260200160002060008473ffffffffffffffffffffffffffffffffffffffff1673ffffffffffffffffffffffffffffffffffffffff16815260200190815260200160002054905092915050565b60007fd9b67a26000000000000000000000000000000000000000000000000000000007bffffffffffffffffffffffffffffffffffffffffffffffffffffffff1916827bffffffffffffffffffffffffffffffffffffffffffffffffffffffff1916148061064f57507f0e89341c000000000000000000000000000000000000000000000000000000007bffffffffffffffffffffffffffffffffffffffffffffffffffffffff1916827bffffffffffffffffffffffffffffffffffffffffffffffffffffffff1916145b8061065f575061065e82611e03565b5b9050919050565b606060236000838152602001908152602001600020805461068690614b3d565b80601f01602080910402602001604051908101604052809291908181526020018280546106b290614b3d565b80156106ff5780601f106106d4576101008083540402835291602001916106ff565b820191906000526020600020905b8154815290600101906020018083116106e257829003601f168201915b50505050509050919050565b60006107176004611e6d565b905061073433828460405180602001604052806000815250611e7b565b61073e6004612011565b5050565b61074a612027565b73ffffffffffffffffffffffffffffffffffffffff166107686117f1565b73ffffffffffffffffffffffffffffffffffffffff16146107be576040517f08c379a00000000000000000000000000000000000000000000000000000000081526004016107b5906144f3565b60405180910390fd5b80601990805190602001906107d4929190613410565b5050565b6107e0612027565b73ffffffffffffffffffffffffffffffffffffffff166107fe6117f1565b73ffffffffffffffffffffffffffffffffffffffff1614610854576040517f08c379a000000000000000000000000000000000000000000000000000000000815260040161084b906144f3565b60405180910390fd5b6000600190505b6005811161095457600061086d6114c8565b90506108d16040518060400160405280600c81526020017f4e657720696e64657820697300000000000000000000000000000000000000008152506001600a856108b791906149ec565b6108c19190614a46565b836108cc9190614be9565b61202f565b6001600a836108e091906149ec565b6108ea9190614a46565b816108f59190614be9565b601a6001846109049190614a46565b6005811061093b577f4e487b7100000000000000000000000000000000000000000000000000000000600052603260045260246000fd5b018190555050808061094c90614ba0565b91505061085b565b50565b6000610961612027565b73ffffffffffffffffffffffffffffffffffffffff1661097f6117f1565b73ffffffffffffffffffffffffffffffffffffffff16146109d5576040517f08c379a00000000000000000000000000000000000000000000000000000000081526004016109cc906144f3565b60405180910390fd5b600654905090565b600f5481565b6109eb612027565b73ffffffffffffffffffffffffffffffffffffffff16610a096117f1565b73ffffffffffffffffffffffffffffffffffffffff1614610a5f576040517f08c379a0000000000000000000000000000000000000000000000000000000008152600401610a56906144f3565b60405180910390fd5b601060009054906101000a900460ff1615601060006101000a81548160ff021916908315150217905550565b610a99848460008585611bd1565b50505050565b610aa7612027565b73ffffffffffffffffffffffffffffffffffffffff168573ffffffffffffffffffffffffffffffffffffffff161480610aed5750610aec85610ae7612027565b611a66565b5b610b2c576040517f08c379a0000000000000000000000000000000000000000000000000000000008152600401610b2390614473565b60405180910390fd5b610b3985858585856120cb565b5050505050565b610b48613496565b610b50612027565b73ffffffffffffffffffffffffffffffffffffffff16610b6e6117f1565b73ffffffffffffffffffffffffffffffffffffffff1614610bc4576040517f08c379a0000000000000000000000000000000000000000000000000000000008152600401610bbb906144f3565b60405180910390fd5b601a600580602002604051908101604052809291908260058015610bfd576020028201915b815481526020019060010190808311610be9575b5050505050905090565b60608151835114610c4d576040517f08c379a0000000000000000000000000000000000000000000000000000000008152600401610c44906145b3565b60405180910390fd5b6000835167ffffffffffffffff811115610c90577f4e487b7100000000000000000000000000000000000000000000000000000000600052604160045260246000fd5b604051908082528060200260200182016040528015610cbe5781602001602082028036833780820191505090505b50905060005b8451811015610dad57610d57858281518110610d09577f4e487b7100000000000000000000000000000000000000000000000000000000600052603260045260246000fd5b6020026020010151858381518110610d4a577f4e487b7100000000000000000000000000000000000000000000000000000000600052603260045260246000fd5b60200260200101516104bb565b828281518110610d90577f4e487b7100000000000000000000000000000000000000000000000000000000600052603260045260246000fd5b60200260200101818152505080610da690614ba0565b9050610cc4565b508091505092915050565b600b5460145410610dfe576040517f08c379a0000000000000000000000000000000000000000000000000000000008152600401610df590614533565b60405180910390fd5b6001610e0c336011546104bb565b10610e4c576040517f08c379a0000000000000000000000000000000000000000000000000000000008152600401610e4390614573565b60405180910390fd5b610e6a33601254600160405180602001604052806000815250611e7b565b600160146000828254610e7d91906147f4565b925050819055507f2e0f4d63dcc00e6a11c8aef9f6e15c1f9cd6e9a090b2dd99c7b797f1a28d300d33601454604051610eb79291906141f2565b60405180910390a1565b610ec9612027565b73ffffffffffffffffffffffffffffffffffffffff16610ee76117f1565b73ffffffffffffffffffffffffffffffffffffffff1614610f3d576040517f08c379a0000000000000000000000000000000000000000000000000000000008152600401610f34906144f3565b60405180910390fd5b6000602360008481526020019081526020016000208054610f5d90614b3d565b905014610f9f576040517f08c379a0000000000000000000000000000000000000000000000000000000008152600401610f9690614493565b60405180910390fd5b80602360008481526020019081526020016000209080519060200190610fc6929190613410565b505050565b610fd3612027565b73ffffffffffffffffffffffffffffffffffffffff16610ff16117f1565b73ffffffffffffffffffffffffffffffffffffffff1614611047576040517f08c379a000000000000000000000000000000000000000000000000000000000815260040161103e906144f3565b60405180910390fd5b60005b600554811015611256576110956040518060400160405280601281526020017f5374617274696e6720696e64657820697320000000000000000000000000000081525060185461202f565b6110d66040518060400160405280600c81526020017f6e756d206174686c65746573000000000000000000000000000000000000000081525060055461202f565b6000600554826018546110e991906147f4565b6110f39190614be9565b90506111346040518060400160405280600b81526020017f6d696e7420696e646578200000000000000000000000000000000000000000008152508261202f565b61116881600c6111438461242b565b6040516020016111549291906140e6565b604051602081830303815290604052610ec1565b6112426040518060400160405280600881526020017f4e657720555249200000000000000000000000000000000000000000000000008152506023600084815260200190815260200160002080546111bf90614b3d565b80601f01602080910402602001604051908101604052809291908181526020018280546111eb90614b3d565b80156112385780601f1061120d57610100808354040283529160200191611238565b820191906000526020600020905b81548152906001019060200180831161121b57829003601f168201915b50505050506125d8565b50808061124e90614ba0565b91505061104a565b5061128f600160055461126991906147f4565b600d60405160200161127b91906140cf565b604051602081830303815290604052610ec1565b6112c760026005546112a191906147f4565b600e6040516020016112b391906140cf565b604051602081830303815290604052610ec1565b565b6112d1612027565b73ffffffffffffffffffffffffffffffffffffffff166112ef6117f1565b73ffffffffffffffffffffffffffffffffffffffff1614611345576040517f08c379a000000000000000000000000000000000000000000000000000000000815260040161133c906144f3565b60405180910390fd5b61134f6000612674565b565b601060009054906101000a900460ff166113a0576040517f08c379a000000000000000000000000000000000000000000000000000000000815260040161139790614553565b60405180910390fd5b60006113ae336012546104bb565b116113ee576040517f08c379a00000000000000000000000000000000000000000000000000000000081526004016113e590614373565b60405180910390fd5b6113fc33601254600161273a565b565b611406612027565b73ffffffffffffffffffffffffffffffffffffffff166114246117f1565b73ffffffffffffffffffffffffffffffffffffffff161461147a576040517f08c379a0000000000000000000000000000000000000000000000000000000008152600401611471906144f3565b60405180910390fd5b6000601854146114bf576040517f08c379a00000000000000000000000000000000000000000000000000000000081526004016114b690614433565b60405180910390fd5b43601781905550565b60006114d2612027565b73ffffffffffffffffffffffffffffffffffffffff166114f06117f1565b73ffffffffffffffffffffffffffffffffffffffff1614611546576040517f08c379a000000000000000000000000000000000000000000000000000000000815260040161153d906144f3565b60405180910390fd5b6000601a600060058110611583577f4e487b7100000000000000000000000000000000000000000000000000000000600052603260045260246000fd5b01541480156115ce57506000601a6001600581106115ca577f4e487b7100000000000000000000000000000000000000000000000000000000600052603260045260246000fd5b0154145b801561161657506000601a600260058110611612577f4e487b7100000000000000000000000000000000000000000000000000000000600052603260045260246000fd5b0154145b801561165e57506000601a60036005811061165a577f4e487b7100000000000000000000000000000000000000000000000000000000600052603260045260246000fd5b0154145b80156116a657506000601a6004600581106116a2577f4e487b7100000000000000000000000000000000000000000000000000000000600052603260045260246000fd5b0154145b156116b55760185490506117ee565b600080600090505b60058110156117e8576002601a8260058110611702577f4e487b7100000000000000000000000000000000000000000000000000000000600052603260045260246000fd5b015461170e91906148ce565b8261171991906147f4565b9150600082141561172e5761172c6114c8565b505b6001600561173c9190614a46565b8114801561178657506000601a8260058110611781577f4e487b7100000000000000000000000000000000000000000000000000000000600052603260045260246000fd5b015414155b156117d557601a81600581106117c5577f4e487b7100000000000000000000000000000000000000000000000000000000600052603260045260246000fd5b0154826117d2919061484a565b91505b80806117e090614ba0565b9150506116bd565b50809150505b90565b6000600360009054906101000a900473ffffffffffffffffffffffffffffffffffffffff16905090565b600b5460135410611861576040517f08c379a000000000000000000000000000000000000000000000000000000000815260040161185890614533565b60405180910390fd5b600161186f336011546104bb565b106118af576040517f08c379a00000000000000000000000000000000000000000000000000000000081526004016118a690614573565b60405180910390fd5b6118cd33601154600160405180602001604052806000815250611e7b565b6001601360008282546118e091906147f4565b925050819055507f2e0f4d63dcc00e6a11c8aef9f6e15c1f9cd6e9a090b2dd99c7b797f1a28d300d3360135460405161191a9291906141f2565b60405180910390a1565b61193661192f612027565b8383612957565b5050565b601060009054906101000a900460ff16611989576040517f08c379a000000000000000000000000000000000000000000000000000000000815260040161198090614553565b60405180910390fd5b6001611997336011546104bb565b146119d7576040517f08c379a00000000000000000000000000000000000000000000000000000000081526004016119ce90614513565b60405180910390fd5b6119df6107d8565b60005b6005811015611a4257611a2f601a8260058110611a28577f4e487b7100000000000000000000000000000000000000000000000000000000600052603260045260246000fd5b0154612ac4565b8080611a3a90614ba0565b9150506119e2565b50611a5133601154600161273a565b565b601060009054906101000a900460ff1681565b6000600160008473ffffffffffffffffffffffffffffffffffffffff1673ffffffffffffffffffffffffffffffffffffffff16815260200190815260200160002060008373ffffffffffffffffffffffffffffffffffffffff1673ffffffffffffffffffffffffffffffffffffffff16815260200190815260200160002060009054906101000a900460ff16905092915050565b611b02612027565b73ffffffffffffffffffffffffffffffffffffffff16611b206117f1565b73ffffffffffffffffffffffffffffffffffffffff1614611b76576040517f08c379a0000000000000000000000000000000000000000000000000000000008152600401611b6d906144f3565b60405180910390fd5b600654600554611b8691906149ec565b600143611b939190614a46565b4060001c611ba19190614be9565b60188190555060006018541415611bcf57611bc86001601854612ca090919063ffffffff16565b6018819055505b565b611bd9612027565b73ffffffffffffffffffffffffffffffffffffffff168573ffffffffffffffffffffffffffffffffffffffff161480611c1f5750611c1e85611c19612027565b611a66565b5b611c5e576040517f08c379a0000000000000000000000000000000000000000000000000000000008152600401611c55906143f3565b60405180910390fd5b611c6b8585858585612cb6565b5050505050565b611c7a612027565b73ffffffffffffffffffffffffffffffffffffffff16611c986117f1565b73ffffffffffffffffffffffffffffffffffffffff1614611cee576040517f08c379a0000000000000000000000000000000000000000000000000000000008152600401611ce5906144f3565b60405180910390fd5b600073ffffffffffffffffffffffffffffffffffffffff168173ffffffffffffffffffffffffffffffffffffffff161415611d5e576040517f08c379a0000000000000000000000000000000000000000000000000000000008152600401611d55906143b3565b60405180910390fd5b611d6781612674565b50565b611e0081604051602401611d7e91906142aa565b6040516020818303038152906040527f41304fac000000000000000000000000000000000000000000000000000000007bffffffffffffffffffffffffffffffffffffffffffffffffffffffff19166020820180517bffffffffffffffffffffffffffffffffffffffffffffffffffffffff8381831617835250505050612f38565b50565b60007f01ffc9a7000000000000000000000000000000000000000000000000000000007bffffffffffffffffffffffffffffffffffffffffffffffffffffffff1916827bffffffffffffffffffffffffffffffffffffffffffffffffffffffff1916149050919050565b600081600001549050919050565b600073ffffffffffffffffffffffffffffffffffffffff168473ffffffffffffffffffffffffffffffffffffffff161415611eeb576040517f08c379a0000000000000000000000000000000000000000000000000000000008152600401611ee2906145f3565b60405180910390fd5b6000611ef5612027565b9050611f1681600087611f0788612f61565b611f1088612f61565b87613027565b8260008086815260200190815260200160002060008773ffffffffffffffffffffffffffffffffffffffff1673ffffffffffffffffffffffffffffffffffffffff1681526020019081526020016000206000828254611f7591906147f4565b925050819055508473ffffffffffffffffffffffffffffffffffffffff16600073ffffffffffffffffffffffffffffffffffffffff168273ffffffffffffffffffffffffffffffffffffffff167fc3d58168c5ae7397731d063d5bbf3d657854427343f4c083240f7aacaa2d0f628787604051611ff392919061462e565b60405180910390a461200a8160008787878761302f565b5050505050565b6001816000016000828254019250508190555050565b600033905090565b6120c78282604051602401612045929190614303565b6040516020818303038152906040527f9710a9d0000000000000000000000000000000000000000000000000000000007bffffffffffffffffffffffffffffffffffffffffffffffffffffffff19166020820180517bffffffffffffffffffffffffffffffffffffffffffffffffffffffff8381831617835250505050612f38565b5050565b815183511461210f576040517f08c379a0000000000000000000000000000000000000000000000000000000008152600401612106906145d3565b60405180910390fd5b600073ffffffffffffffffffffffffffffffffffffffff168473ffffffffffffffffffffffffffffffffffffffff16141561217f576040517f08c379a000000000000000000000000000000000000000000000000000000000815260040161217690614453565b60405180910390fd5b6000612189612027565b9050612199818787878787613027565b60005b84518110156123965760008582815181106121e0577f4e487b7100000000000000000000000000000000000000000000000000000000600052603260045260246000fd5b602002602001015190506000858381518110612225577f4e487b7100000000000000000000000000000000000000000000000000000000600052603260045260246000fd5b60200260200101519050600080600084815260200190815260200160002060008b73ffffffffffffffffffffffffffffffffffffffff1673ffffffffffffffffffffffffffffffffffffffff168152602001908152602001600020549050818110156122c6576040517f08c379a00000000000000000000000000000000000000000000000000000000081526004016122bd906144d3565b60405180910390fd5b81810360008085815260200190815260200160002060008c73ffffffffffffffffffffffffffffffffffffffff1673ffffffffffffffffffffffffffffffffffffffff168152602001908152602001600020819055508160008085815260200190815260200160002060008b73ffffffffffffffffffffffffffffffffffffffff1673ffffffffffffffffffffffffffffffffffffffff168152602001908152602001600020600082825461237b91906147f4565b925050819055505050508061238f90614ba0565b905061219c565b508473ffffffffffffffffffffffffffffffffffffffff168673ffffffffffffffffffffffffffffffffffffffff168273ffffffffffffffffffffffffffffffffffffffff167f4a39dc06d4c0dbc64b70af90fd698a233a518aa5d07e595d983b8c0526c8f7fb878760405161240d929190614258565b60405180910390a4612423818787878787613216565b505050505050565b60606000821415612473576040518060400160405280600181526020017f300000000000000000000000000000000000000000000000000000000000000081525090506125d3565b600082905060005b600082146124a557808061248e90614ba0565b915050600a8261249e919061484a565b915061247b565b60008167ffffffffffffffff8111156124e7577f4e487b7100000000000000000000000000000000000000000000000000000000600052604160045260246000fd5b6040519080825280601f01601f1916602001820160405280156125195781602001600182028036833780820191505090505b5090505b600085146125cc576001826125329190614a46565b9150600a856125419190614be9565b603061254d91906147f4565b60f81b818381518110612589577f4e487b7100000000000000000000000000000000000000000000000000000000600052603260045260246000fd5b60200101907effffffffffffffffffffffffffffffffffffffffffffffffffffffffffffff1916908160001a905350600a856125c5919061484a565b945061251d565b8093505050505b919050565b61267082826040516024016125ee9291906142cc565b6040516020818303038152906040527f4b5c4277000000000000000000000000000000000000000000000000000000007bffffffffffffffffffffffffffffffffffffffffffffffffffffffff19166020820180517bffffffffffffffffffffffffffffffffffffffffffffffffffffffff8381831617835250505050612f38565b5050565b6000600360009054906101000a900473ffffffffffffffffffffffffffffffffffffffff16905081600360006101000a81548173ffffffffffffffffffffffffffffffffffffffff021916908373ffffffffffffffffffffffffffffffffffffffff1602179055508173ffffffffffffffffffffffffffffffffffffffff168173ffffffffffffffffffffffffffffffffffffffff167f8be0079c531659141344cd1fd0a4f28419497f9722a3daafe3b4186f6b6457e060405160405180910390a35050565b600073ffffffffffffffffffffffffffffffffffffffff168373ffffffffffffffffffffffffffffffffffffffff1614156127aa576040517f08c379a00000000000000000000000000000000000000000000000000000000081526004016127a1906144b3565b60405180910390fd5b60006127b4612027565b90506127e4818560006127c687612f61565b6127cf87612f61565b60405180602001604052806000815250613027565b600080600085815260200190815260200160002060008673ffffffffffffffffffffffffffffffffffffffff1673ffffffffffffffffffffffffffffffffffffffff1681526020019081526020016000205490508281101561287b576040517f08c379a0000000000000000000000000000000000000000000000000000000008152600401612872906143d3565b60405180910390fd5b82810360008086815260200190815260200160002060008773ffffffffffffffffffffffffffffffffffffffff1673ffffffffffffffffffffffffffffffffffffffff16815260200190815260200160002081905550600073ffffffffffffffffffffffffffffffffffffffff168573ffffffffffffffffffffffffffffffffffffffff168373ffffffffffffffffffffffffffffffffffffffff167fc3d58168c5ae7397731d063d5bbf3d657854427343f4c083240f7aacaa2d0f62878760405161294892919061462e565b60405180910390a45050505050565b8173ffffffffffffffffffffffffffffffffffffffff168373ffffffffffffffffffffffffffffffffffffffff1614156129c6576040517f08c379a00000000000000000000000000000000000000000000000000000000081526004016129bd90614593565b60405180910390fd5b80600160008573ffffffffffffffffffffffffffffffffffffffff1673ffffffffffffffffffffffffffffffffffffffff16815260200190815260200160002060008473ffffffffffffffffffffffffffffffffffffffff1673ffffffffffffffffffffffffffffffffffffffff16815260200190815260200160002060006101000a81548160ff0219169083151502179055508173ffffffffffffffffffffffffffffffffffffffff168373ffffffffffffffffffffffffffffffffffffffff167f17307eab39ab6107e8899845ad3d59bd9653f200f220920489ca2b5937696c3183604051612ab7919061428f565b60405180910390a3505050565b6000600554601554601854612ad991906147f4565b612ae39190614be9565b9050612b266040518060400160405280600e81526020017f5374617274696e6720696e64657800000000000000000000000000000000000081525060185461202f565b612b656040518060400160405280600e81526020017f4f6c64206d696e7420696e6465780000000000000000000000000000000000008152508261202f565b612ba46040518060400160405280600e81526020017f4e6577206d696e7420696e6465780000000000000000000000000000000000008152508361202f565b600654600554612bb491906149ec565b6015541015612c9c57600654602460008481526020019081526020016000205410612c14576040517f08c379a0000000000000000000000000000000000000000000000000000000008152600401612c0b90614413565b60405180910390fd5b612c56338360016040518060400160405280600481526020017f3078303000000000000000000000000000000000000000000000000000000000815250611e7b565b6001602460008481526020019081526020016000206000828254612c7a91906147f4565b92505081905550600160156000828254612c9491906147f4565b925050819055505b5050565b60008183612cae91906147f4565b905092915050565b600073ffffffffffffffffffffffffffffffffffffffff168473ffffffffffffffffffffffffffffffffffffffff161415612d26576040517f08c379a0000000000000000000000000000000000000000000000000000000008152600401612d1d90614453565b60405180910390fd5b6000612d30612027565b9050612d50818787612d4188612f61565b612d4a88612f61565b87613027565b600080600086815260200190815260200160002060008873ffffffffffffffffffffffffffffffffffffffff1673ffffffffffffffffffffffffffffffffffffffff16815260200190815260200160002054905083811015612de7576040517f08c379a0000000000000000000000000000000000000000000000000000000008152600401612dde906144d3565b60405180910390fd5b83810360008087815260200190815260200160002060008973ffffffffffffffffffffffffffffffffffffffff1673ffffffffffffffffffffffffffffffffffffffff168152602001908152602001600020819055508360008087815260200190815260200160002060008873ffffffffffffffffffffffffffffffffffffffff1673ffffffffffffffffffffffffffffffffffffffff1681526020019081526020016000206000828254612e9c91906147f4565b925050819055508573ffffffffffffffffffffffffffffffffffffffff168773ffffffffffffffffffffffffffffffffffffffff168373ffffffffffffffffffffffffffffffffffffffff167fc3d58168c5ae7397731d063d5bbf3d657854427343f4c083240f7aacaa2d0f628888604051612f1992919061462e565b60405180910390a4612f2f82888888888861302f565b50505050505050565b60008151905060006a636f6e736f6c652e6c6f679050602083016000808483855afa5050505050565b60606000600167ffffffffffffffff811115612fa6577f4e487b7100000000000000000000000000000000000000000000000000000000600052604160045260246000fd5b604051908082528060200260200182016040528015612fd45781602001602082028036833780820191505090505b5090508281600081518110613012577f4e487b7100000000000000000000000000000000000000000000000000000000600052603260045260246000fd5b60200260200101818152505080915050919050565b505050505050565b61304e8473ffffffffffffffffffffffffffffffffffffffff166133fd565b1561320e578373ffffffffffffffffffffffffffffffffffffffff1663f23a6e6187878686866040518663ffffffff1660e01b8152600401613094959493929190614198565b602060405180830381600087803b1580156130ae57600080fd5b505af19250505080156130df57506040513d601f19601f820116820180604052508101906130dc9190613a75565b60015b613185576130eb614cd6565b806308c379a0141561314857506131006153a7565b8061310b575061314a565b806040517f08c379a000000000000000000000000000000000000000000000000000000000815260040161313f91906142aa565b60405180910390fd5b505b6040517f08c379a000000000000000000000000000000000000000000000000000000000815260040161317c90614333565b60405180910390fd5b63f23a6e6160e01b7bffffffffffffffffffffffffffffffffffffffffffffffffffffffff1916817bffffffffffffffffffffffffffffffffffffffffffffffffffffffff19161461320c576040517f08c379a000000000000000000000000000000000000000000000000000000000815260040161320390614353565b60405180910390fd5b505b505050505050565b6132358473ffffffffffffffffffffffffffffffffffffffff166133fd565b156133f5578373ffffffffffffffffffffffffffffffffffffffff1663bc197c8187878686866040518663ffffffff1660e01b815260040161327b959493929190614130565b602060405180830381600087803b15801561329557600080fd5b505af19250505080156132c657506040513d601f19601f820116820180604052508101906132c39190613a75565b60015b61336c576132d2614cd6565b806308c379a0141561332f57506132e76153a7565b806132f25750613331565b806040517f08c379a000000000000000000000000000000000000000000000000000000000815260040161332691906142aa565b60405180910390fd5b505b6040517f08c379a000000000000000000000000000000000000000000000000000000000815260040161336390614333565b60405180910390fd5b63bc197c8160e01b7bffffffffffffffffffffffffffffffffffffffffffffffffffffffff1916817bffffffffffffffffffffffffffffffffffffffffffffffffffffffff1916146133f3576040517f08c379a00000000000000000000000000000000000000000000000000000000081526004016133ea90614353565b60405180910390fd5b505b505050505050565b600080823b905060008111915050919050565b82805461341c90614b3d565b90600052602060002090601f01602090048101928261343e5760008555613485565b82601f1061345757805160ff1916838001178555613485565b82800160010185558215613485579182015b82811115613484578251825591602001919060010190613469565b5b50905061349291906134b8565b5090565b6040518060a00160405280600590602082028036833780820191505090505090565b5b808211156134d15760008160009055506001016134b9565b5090565b60006134e86134e38461467c565b614657565b9050808382526020820190508285602086028201111561350757600080fd5b60005b85811015613537578161351d8882613629565b84526020840193506020830192505060018101905061350a565b5050509392505050565b600061355461354f846146a8565b614657565b9050808382526020820190508285602086028201111561357357600080fd5b60005b858110156135a357816135898882613725565b845260208401935060208301925050600181019050613576565b5050509392505050565b60006135c06135bb846146d4565b614657565b9050828152602081018484840111156135d857600080fd5b6135e3848285614afb565b509392505050565b60006135fe6135f984614705565b614657565b90508281526020810184848401111561361657600080fd5b613621848285614afb565b509392505050565b6000813590506136388161543d565b92915050565b600082601f83011261364f57600080fd5b813561365f8482602086016134d5565b91505092915050565b600082601f83011261367957600080fd5b8135613689848260208601613541565b91505092915050565b6000813590506136a181615454565b92915050565b6000813590506136b68161546b565b92915050565b6000815190506136cb8161546b565b92915050565b600082601f8301126136e257600080fd5b81356136f28482602086016135ad565b91505092915050565b600082601f83011261370c57600080fd5b813561371c8482602086016135eb565b91505092915050565b60008135905061373481615482565b92915050565b60006020828403121561374c57600080fd5b600061375a84828501613629565b91505092915050565b6000806040838503121561377657600080fd5b600061378485828601613629565b925050602061379585828601613629565b9150509250929050565b600080600080600060a086880312156137b757600080fd5b60006137c588828901613629565b95505060206137d688828901613629565b945050604086013567ffffffffffffffff8111156137f357600080fd5b6137ff88828901613668565b935050606086013567ffffffffffffffff81111561381c57600080fd5b61382888828901613668565b925050608086013567ffffffffffffffff81111561384557600080fd5b613851888289016136d1565b9150509295509295909350565b6000806000806080858703121561387457600080fd5b600061388287828801613629565b945050602061389387828801613629565b93505060406138a487828801613725565b925050606085013567ffffffffffffffff8111156138c157600080fd5b6138cd878288016136d1565b91505092959194509250565b600080600080600060a086880312156138f157600080fd5b60006138ff88828901613629565b955050602061391088828901613629565b945050604061392188828901613725565b935050606061393288828901613725565b925050608086013567ffffffffffffffff81111561394f57600080fd5b61395b888289016136d1565b9150509295509295909350565b6000806040838503121561397b57600080fd5b600061398985828601613629565b925050602061399a85828601613692565b9150509250929050565b600080604083850312156139b757600080fd5b60006139c585828601613629565b92505060206139d685828601613725565b9150509250929050565b600080604083850312156139f357600080fd5b600083013567ffffffffffffffff811115613a0d57600080fd5b613a198582860161363e565b925050602083013567ffffffffffffffff811115613a3657600080fd5b613a4285828601613668565b9150509250929050565b600060208284031215613a5e57600080fd5b6000613a6c848285016136a7565b91505092915050565b600060208284031215613a8757600080fd5b6000613a95848285016136bc565b91505092915050565b600060208284031215613ab057600080fd5b600082013567ffffffffffffffff811115613aca57600080fd5b613ad6848285016136fb565b91505092915050565b600060208284031215613af157600080fd5b6000613aff84828501613725565b91505092915050565b60008060408385031215613b1b57600080fd5b6000613b2985828601613725565b925050602083013567ffffffffffffffff811115613b4657600080fd5b613b52858286016136fb565b9150509250929050565b6000613b6883836140b1565b60208301905092915050565b613b7d81614a7a565b82525050565b613b8c81614765565b613b9681846147ab565b9250613ba182614736565b8060005b83811015613bd2578151613bb98782613b5c565b9650613bc483614791565b925050600181019050613ba5565b505050505050565b6000613be582614770565b613bef81856147b6565b9350613bfa83614740565b8060005b83811015613c2b578151613c128882613b5c565b9750613c1d8361479e565b925050600181019050613bfe565b5085935050505092915050565b613c4181614a8c565b82525050565b6000613c528261477b565b613c5c81856147c7565b9350613c6c818560208601614b0a565b613c7581614cf8565b840191505092915050565b6000613c8b82614786565b613c9581856147d8565b9350613ca5818560208601614b0a565b613cae81614cf8565b840191505092915050565b6000613cc482614786565b613cce81856147e9565b9350613cde818560208601614b0a565b80840191505092915050565b60008154613cf781614b3d565b613d0181866147e9565b94506001821660008114613d1c5760018114613d2d57613d60565b60ff19831686528186019350613d60565b613d3685614750565b60005b83811015613d5857815481890152600182019150602081019050613d39565b838801955050505b50505092915050565b6000613d766034836147d8565b9150613d8182614d23565b604082019050919050565b6000613d996028836147d8565b9150613da482614d72565b604082019050919050565b6000613dbc601b836147d8565b9150613dc782614dc1565b602082019050919050565b6000613ddf602b836147d8565b9150613dea82614dea565b604082019050919050565b6000613e026026836147d8565b9150613e0d82614e39565b604082019050919050565b6000613e256024836147d8565b9150613e3082614e88565b604082019050919050565b6000613e486029836147d8565b9150613e5382614ed7565b604082019050919050565b6000613e6b602d836147d8565b9150613e7682614f26565b604082019050919050565b6000613e8e601d836147d8565b9150613e9982614f75565b602082019050919050565b6000613eb16025836147d8565b9150613ebc82614f9e565b604082019050919050565b6000613ed46032836147d8565b9150613edf82614fed565b604082019050919050565b6000613ef76014836147d8565b9150613f028261503c565b602082019050919050565b6000613f1a6023836147d8565b9150613f2582615065565b604082019050919050565b6000613f3d602a836147d8565b9150613f48826150b4565b604082019050919050565b6000613f606005836147e9565b9150613f6b82615103565b600582019050919050565b6000613f836020836147d8565b9150613f8e8261512c565b602082019050919050565b6000613fa6602f836147d8565b9150613fb182615155565b604082019050919050565b6000613fc96023836147d8565b9150613fd4826151a4565b604082019050919050565b6000613fec601f836147d8565b9150613ff7826151f3565b602082019050919050565b600061400f602a836147d8565b915061401a8261521c565b604082019050919050565b60006140326029836147d8565b915061403d8261526b565b604082019050919050565b60006140556029836147d8565b9150614060826152ba565b604082019050919050565b60006140786028836147d8565b915061408382615309565b604082019050919050565b600061409b6021836147d8565b91506140a682615358565b604082019050919050565b6140ba81614ae4565b82525050565b6140c981614ae4565b82525050565b60006140db8284613cea565b915081905092915050565b60006140f28285613cea565b91506140fe8284613cb9565b915061410982613f53565b91508190509392505050565b600060208201905061412a6000830184613b74565b92915050565b600060a0820190506141456000830188613b74565b6141526020830187613b74565b81810360408301526141648186613bda565b905081810360608301526141788185613bda565b9050818103608083015261418c8184613c47565b90509695505050505050565b600060a0820190506141ad6000830188613b74565b6141ba6020830187613b74565b6141c760408301866140c0565b6141d460608301856140c0565b81810360808301526141e68184613c47565b90509695505050505050565b60006040820190506142076000830185613b74565b61421460208301846140c0565b9392505050565b600060a0820190506142306000830184613b83565b92915050565b600060208201905081810360008301526142508184613bda565b905092915050565b600060408201905081810360008301526142728185613bda565b905081810360208301526142868184613bda565b90509392505050565b60006020820190506142a46000830184613c38565b92915050565b600060208201905081810360008301526142c48184613c80565b905092915050565b600060408201905081810360008301526142e68185613c80565b905081810360208301526142fa8184613c80565b90509392505050565b6000604082019050818103600083015261431d8185613c80565b905061432c60208301846140c0565b9392505050565b6000602082019050818103600083015261434c81613d69565b9050919050565b6000602082019050818103600083015261436c81613d8c565b9050919050565b6000602082019050818103600083015261438c81613daf565b9050919050565b600060208201905081810360008301526143ac81613dd2565b9050919050565b600060208201905081810360008301526143cc81613df5565b9050919050565b600060208201905081810360008301526143ec81613e18565b9050919050565b6000602082019050818103600083015261440c81613e3b565b9050919050565b6000602082019050818103600083015261442c81613e5e565b9050919050565b6000602082019050818103600083015261444c81613e81565b9050919050565b6000602082019050818103600083015261446c81613ea4565b9050919050565b6000602082019050818103600083015261448c81613ec7565b9050919050565b600060208201905081810360008301526144ac81613eea565b9050919050565b600060208201905081810360008301526144cc81613f0d565b9050919050565b600060208201905081810360008301526144ec81613f30565b9050919050565b6000602082019050818103600083015261450c81613f76565b9050919050565b6000602082019050818103600083015261452c81613f99565b9050919050565b6000602082019050818103600083015261454c81613fbc565b9050919050565b6000602082019050818103600083015261456c81613fdf565b9050919050565b6000602082019050818103600083015261458c81614002565b9050919050565b600060208201905081810360008301526145ac81614025565b9050919050565b600060208201905081810360008301526145cc81614048565b9050919050565b600060208201905081810360008301526145ec8161406b565b9050919050565b6000602082019050818103600083015261460c8161408e565b9050919050565b600060208201905061462860008301846140c0565b92915050565b600060408201905061464360008301856140c0565b61465060208301846140c0565b9392505050565b6000614661614672565b905061466d8282614b6f565b919050565b6000604051905090565b600067ffffffffffffffff82111561469757614696614ca7565b5b602082029050602081019050919050565b600067ffffffffffffffff8211156146c3576146c2614ca7565b5b602082029050602081019050919050565b600067ffffffffffffffff8211156146ef576146ee614ca7565b5b6146f882614cf8565b9050602081019050919050565b600067ffffffffffffffff8211156147205761471f614ca7565b5b61472982614cf8565b9050602081019050919050565b6000819050919050565b6000819050602082019050919050565b60008190508160005260206000209050919050565b600060059050919050565b600081519050919050565b600081519050919050565b600081519050919050565b6000602082019050919050565b6000602082019050919050565b600081905092915050565b600082825260208201905092915050565b600082825260208201905092915050565b600082825260208201905092915050565b600081905092915050565b60006147ff82614ae4565b915061480a83614ae4565b9250827fffffffffffffffffffffffffffffffffffffffffffffffffffffffffffffffff0382111561483f5761483e614c1a565b5b828201905092915050565b600061485582614ae4565b915061486083614ae4565b9250826148705761486f614c49565b5b828204905092915050565b6000808291508390505b60018511156148c5578086048111156148a1576148a0614c1a565b5b60018516156148b05780820291505b80810290506148be85614d09565b9450614885565b94509492505050565b60006148d982614ae4565b91506148e483614aee565b92506149117fffffffffffffffffffffffffffffffffffffffffffffffffffffffffffffffff8484614919565b905092915050565b60008261492957600190506149e5565b8161493757600090506149e5565b816001811461494d576002811461495757614986565b60019150506149e5565b60ff84111561496957614968614c1a565b5b8360020a9150848211156149805761497f614c1a565b5b506149e5565b5060208310610133831016604e8410600b84101617156149bb5782820a9050838111156149b6576149b5614c1a565b5b6149e5565b6149c8848484600161487b565b925090508184048111156149df576149de614c1a565b5b81810290505b9392505050565b60006149f782614ae4565b9150614a0283614ae4565b9250817fffffffffffffffffffffffffffffffffffffffffffffffffffffffffffffffff0483118215151615614a3b57614a3a614c1a565b5b828202905092915050565b6000614a5182614ae4565b9150614a5c83614ae4565b925082821015614a6f57614a6e614c1a565b5b828203905092915050565b6000614a8582614ac4565b9050919050565b60008115159050919050565b60007fffffffff0000000000000000000000000000000000000000000000000000000082169050919050565b600073ffffffffffffffffffffffffffffffffffffffff82169050919050565b6000819050919050565b600060ff82169050919050565b82818337600083830152505050565b60005b83811015614b28578082015181840152602081019050614b0d565b83811115614b37576000848401525b50505050565b60006002820490506001821680614b5557607f821691505b60208210811415614b6957614b68614c78565b5b50919050565b614b7882614cf8565b810181811067ffffffffffffffff82111715614b9757614b96614ca7565b5b80604052505050565b6000614bab82614ae4565b91507fffffffffffffffffffffffffffffffffffffffffffffffffffffffffffffffff821415614bde57614bdd614c1a565b5b600182019050919050565b6000614bf482614ae4565b9150614bff83614ae4565b925082614c0f57614c0e614c49565b5b828206905092915050565b7f4e487b7100000000000000000000000000000000000000000000000000000000600052601160045260246000fd5b7f4e487b7100000000000000000000000000000000000000000000000000000000600052601260045260246000fd5b7f4e487b7100000000000000000000000000000000000000000000000000000000600052602260045260246000fd5b7f4e487b7100000000000000000000000000000000000000000000000000000000600052604160045260246000fd5b600060033d1115614cf55760046000803e614cf2600051614d16565b90505b90565b6000601f19601f8301169050919050565b60008160011c9050919050565b60008160e01c9050919050565b7f455243313135353a207472616e7366657220746f206e6f6e204552433131353560008201527f526563656976657220696d706c656d656e746572000000000000000000000000602082015250565b7f455243313135353a204552433131353552656365697665722072656a6563746560008201527f6420746f6b656e73000000000000000000000000000000000000000000000000602082015250565b7f4e6f2072656d61696e696e6720626f6f73746572207061636b73210000000000600082015250565b7f455243313135353a2062616c616e636520717565727920666f7220746865207a60008201527f65726f2061646472657373000000000000000000000000000000000000000000602082015250565b7f4f776e61626c653a206e6577206f776e657220697320746865207a65726f206160008201527f6464726573730000000000000000000000000000000000000000000000000000602082015250565b7f455243313135353a206275726e20616d6f756e7420657863656564732062616c60008201527f616e636500000000000000000000000000000000000000000000000000000000602082015250565b7f455243313135353a2063616c6c6572206973206e6f74206f776e6572206e6f7260008201527f20617070726f7665640000000000000000000000000000000000000000000000602082015250565b7f416c6c206f662074686973206174686c657465206861766520616c726561647960008201527f206265656e206d696e7465642100000000000000000000000000000000000000602082015250565b7f5374617274696e6720696e64657820697320616c726561647920736574000000600082015250565b7f455243313135353a207472616e7366657220746f20746865207a65726f20616460008201527f6472657373000000000000000000000000000000000000000000000000000000602082015250565b7f455243313135353a207472616e736665722063616c6c6572206973206e6f742060008201527f6f776e6572206e6f7220617070726f7665640000000000000000000000000000602082015250565b7f43616e6e6f742073657420757269207477696365000000000000000000000000600082015250565b7f455243313135353a206275726e2066726f6d20746865207a65726f206164647260008201527f6573730000000000000000000000000000000000000000000000000000000000602082015250565b7f455243313135353a20696e73756666696369656e742062616c616e636520666f60008201527f72207472616e7366657200000000000000000000000000000000000000000000602082015250565b7f2e6a736f6e000000000000000000000000000000000000000000000000000000600082015250565b7f4f776e61626c653a2063616c6c6572206973206e6f7420746865206f776e6572600082015250565b7f5061636b2068617320616c7265616479206265656e206275726e6564206f722060008201527f646f6573206e6f742065786973742e0000000000000000000000000000000000602082015250565b7f416c6c207061636b73206861766520616c7265616479206265656e206d696e7460008201527f6564210000000000000000000000000000000000000000000000000000000000602082015250565b7f5061636b73206172656e277420726561647920746f206f70656e207965742100600082015250565b7f43616e206f6e6c79206d696e74206f6e652073746172746572207061636b207060008201527f6572206163636f756e7400000000000000000000000000000000000000000000602082015250565b7f455243313135353a2073657474696e6720617070726f76616c2073746174757360008201527f20666f722073656c660000000000000000000000000000000000000000000000602082015250565b7f455243313135353a206163636f756e747320616e6420696473206c656e67746860008201527f206d69736d617463680000000000000000000000000000000000000000000000602082015250565b7f455243313135353a2069647320616e6420616d6f756e7473206c656e6774682060008201527f6d69736d61746368000000000000000000000000000000000000000000000000602082015250565b7f455243313135353a206d696e7420746f20746865207a65726f2061646472657360008201527f7300000000000000000000000000000000000000000000000000000000000000602082015250565b600060443d10156153b75761543a565b6153bf614672565b60043d036004823e80513d602482011167ffffffffffffffff821117156153e757505061543a565b808201805167ffffffffffffffff811115615405575050505061543a565b80602083010160043d03850181111561542257505050505061543a565b61543182602001850186614b6f565b82955050505050505b90565b61544681614a7a565b811461545157600080fd5b50565b61545d81614a8c565b811461546857600080fd5b50565b61547481614a98565b811461547f57600080fd5b50565b61548b81614ae4565b811461549657600080fd5b5056fea26469706673582212208106e8f2bb554a8a4e5a9290fb128a6faa43ee4ef8fed33f27597a995eb2ece564736f6c63430008020033",
  "linkReferences": {},
  "deployedLinkReferences": {}
}