{
  "_format": "hh-sol-artifact-1",
  "contractName": "GameItems",
  "sourceName": "contracts/GameItems.sol",
  "abi": [
    {
      "inputs": [
        {
          "internalType": "uint256",
          "name": "_numAthletes",
          "type": "uint256"
        },
        {
          "internalType": "uint256",
          "name": "_nftPerAthlete",
          "type": "uint256"
        },
        {
          "internalType": "uint256",
          "name": "_starterPackSize",
          "type": "uint256"
        },
        {
          "internalType": "uint256",
          "name": "_boosterPackSize",
          "type": "uint256"
        },
        {
          "internalType": "uint256",
          "name": "_maxStarterPackBalance",
          "type": "uint256"
        },
        {
          "internalType": "uint256",
          "name": "_maxBoosterPackBalance",
          "type": "uint256"
        },
        {
          "internalType": "uint256",
          "name": "_maxPacks",
          "type": "uint256"
        },
        {
          "internalType": "string",
          "name": "_athleteURI",
          "type": "string"
        },
        {
          "internalType": "string",
          "name": "_starterPackURI",
          "type": "string"
        },
        {
          "internalType": "string",
          "name": "_boosterPackURI",
          "type": "string"
        },
        {
          "internalType": "uint256",
          "name": "_revealTimestamp",
          "type": "uint256"
        }
      ],
      "stateMutability": "nonpayable",
      "type": "constructor"
    },
    {
      "anonymous": false,
      "inputs": [
        {
          "indexed": true,
          "internalType": "address",
          "name": "account",
          "type": "address"
        },
        {
          "indexed": true,
          "internalType": "address",
          "name": "operator",
          "type": "address"
        },
        {
          "indexed": false,
          "internalType": "bool",
          "name": "approved",
          "type": "bool"
        }
      ],
      "name": "ApprovalForAll",
      "type": "event"
    },
    {
      "anonymous": false,
      "inputs": [
        {
          "indexed": true,
          "internalType": "address",
          "name": "previousOwner",
          "type": "address"
        },
        {
          "indexed": true,
          "internalType": "address",
          "name": "newOwner",
          "type": "address"
        }
      ],
      "name": "OwnershipTransferred",
      "type": "event"
    },
    {
      "anonymous": false,
      "inputs": [
        {
          "indexed": false,
          "internalType": "bool",
          "name": "success",
          "type": "bool"
        },
        {
          "indexed": false,
          "internalType": "bytes",
          "name": "data",
          "type": "bytes"
        }
      ],
      "name": "Response",
      "type": "event"
    },
    {
      "anonymous": false,
      "inputs": [
        {
          "indexed": true,
          "internalType": "address",
          "name": "operator",
          "type": "address"
        },
        {
          "indexed": true,
          "internalType": "address",
          "name": "from",
          "type": "address"
        },
        {
          "indexed": true,
          "internalType": "address",
          "name": "to",
          "type": "address"
        },
        {
          "indexed": false,
          "internalType": "uint256[]",
          "name": "ids",
          "type": "uint256[]"
        },
        {
          "indexed": false,
          "internalType": "uint256[]",
          "name": "values",
          "type": "uint256[]"
        }
      ],
      "name": "TransferBatch",
      "type": "event"
    },
    {
      "anonymous": false,
      "inputs": [
        {
          "indexed": true,
          "internalType": "address",
          "name": "operator",
          "type": "address"
        },
        {
          "indexed": true,
          "internalType": "address",
          "name": "from",
          "type": "address"
        },
        {
          "indexed": true,
          "internalType": "address",
          "name": "to",
          "type": "address"
        },
        {
          "indexed": false,
          "internalType": "uint256",
          "name": "id",
          "type": "uint256"
        },
        {
          "indexed": false,
          "internalType": "uint256",
          "name": "value",
          "type": "uint256"
        }
      ],
      "name": "TransferSingle",
      "type": "event"
    },
    {
      "anonymous": false,
      "inputs": [
        {
          "indexed": false,
          "internalType": "string",
          "name": "value",
          "type": "string"
        },
        {
          "indexed": true,
          "internalType": "uint256",
          "name": "id",
          "type": "uint256"
        }
      ],
      "name": "URI",
      "type": "event"
    },
    {
      "anonymous": false,
      "inputs": [
        {
          "indexed": false,
          "internalType": "address",
          "name": "user",
          "type": "address"
        },
        {
          "indexed": false,
          "internalType": "uint256",
          "name": "id",
          "type": "uint256"
        }
      ],
      "name": "packMinted",
      "type": "event"
    },
    {
      "inputs": [],
      "name": "REVEAL_TIMESTAMP",
      "outputs": [
        {
          "internalType": "uint256",
          "name": "",
          "type": "uint256"
        }
      ],
      "stateMutability": "view",
      "type": "function"
    },
    {
      "inputs": [
        {
          "internalType": "address",
          "name": "account",
          "type": "address"
        },
        {
          "internalType": "uint256",
          "name": "id",
          "type": "uint256"
        }
      ],
      "name": "balanceOf",
      "outputs": [
        {
          "internalType": "uint256",
          "name": "",
          "type": "uint256"
        }
      ],
      "stateMutability": "view",
      "type": "function"
    },
    {
      "inputs": [
        {
          "internalType": "address[]",
          "name": "accounts",
          "type": "address[]"
        },
        {
          "internalType": "uint256[]",
          "name": "ids",
          "type": "uint256[]"
        }
      ],
      "name": "balanceOfBatch",
      "outputs": [
        {
          "internalType": "uint256[]",
          "name": "",
          "type": "uint256[]"
        }
      ],
      "stateMutability": "view",
      "type": "function"
    },
    {
      "inputs": [],
      "name": "burnBoosterPack",
      "outputs": [],
      "stateMutability": "nonpayable",
      "type": "function"
    },
    {
      "inputs": [],
      "name": "burnStarterPack",
      "outputs": [],
      "stateMutability": "nonpayable",
      "type": "function"
    },
    {
      "inputs": [],
      "name": "emergencySetStartingIndexBlock",
      "outputs": [],
      "stateMutability": "nonpayable",
      "type": "function"
    },
    {
      "inputs": [],
      "name": "generateStarterPackIndices",
      "outputs": [],
      "stateMutability": "nonpayable",
      "type": "function"
    },
    {
      "inputs": [],
      "name": "getNFTPerAthlete",
      "outputs": [
        {
          "internalType": "uint256",
          "name": "",
          "type": "uint256"
        }
      ],
      "stateMutability": "view",
      "type": "function"
    },
    {
      "inputs": [],
      "name": "getStarterPackIndices",
      "outputs": [
        {
          "internalType": "uint256[5]",
          "name": "",
          "type": "uint256[5]"
        }
      ],
      "stateMutability": "view",
      "type": "function"
    },
    {
      "inputs": [
        {
          "internalType": "address",
          "name": "_addr",
          "type": "address"
        }
      ],
      "name": "grabRandomWord",
      "outputs": [],
      "stateMutability": "nonpayable",
      "type": "function"
    },
    {
      "inputs": [
        {
          "internalType": "address",
          "name": "account",
          "type": "address"
        },
        {
          "internalType": "address",
          "name": "operator",
          "type": "address"
        }
      ],
      "name": "isApprovedForAll",
      "outputs": [
        {
          "internalType": "bool",
          "name": "",
          "type": "bool"
        }
      ],
      "stateMutability": "view",
      "type": "function"
    },
    {
      "inputs": [],
      "name": "mintBoosterPack",
      "outputs": [],
      "stateMutability": "nonpayable",
      "type": "function"
    },
    {
      "inputs": [],
      "name": "mintStarterPack",
      "outputs": [],
      "stateMutability": "nonpayable",
      "type": "function"
    },
    {
      "inputs": [],
      "name": "owner",
      "outputs": [
        {
          "internalType": "address",
          "name": "",
          "type": "address"
        }
      ],
      "stateMutability": "view",
      "type": "function"
    },
    {
      "inputs": [],
      "name": "packsReadyToOpen",
      "outputs": [
        {
          "internalType": "bool",
          "name": "",
          "type": "bool"
        }
      ],
      "stateMutability": "view",
      "type": "function"
    },
    {
      "inputs": [],
      "name": "pseudoRandomNumber",
      "outputs": [
        {
          "internalType": "uint256",
          "name": "",
          "type": "uint256"
        }
      ],
      "stateMutability": "view",
      "type": "function"
    },
    {
      "inputs": [],
      "name": "renounceOwnership",
      "outputs": [],
      "stateMutability": "nonpayable",
      "type": "function"
    },
    {
      "inputs": [
        {
          "internalType": "address",
          "name": "from",
          "type": "address"
        },
        {
          "internalType": "address",
          "name": "to",
          "type": "address"
        },
        {
          "internalType": "uint256[]",
          "name": "ids",
          "type": "uint256[]"
        },
        {
          "internalType": "uint256[]",
          "name": "amounts",
          "type": "uint256[]"
        },
        {
          "internalType": "bytes",
          "name": "data",
          "type": "bytes"
        }
      ],
      "name": "safeBatchTransferFrom",
      "outputs": [],
      "stateMutability": "nonpayable",
      "type": "function"
    },
    {
      "inputs": [
        {
          "internalType": "address",
          "name": "from",
          "type": "address"
        },
        {
          "internalType": "address",
          "name": "to",
          "type": "address"
        },
        {
          "internalType": "uint256",
          "name": "id",
          "type": "uint256"
        },
        {
          "internalType": "uint256",
          "name": "amount",
          "type": "uint256"
        },
        {
          "internalType": "bytes",
          "name": "data",
          "type": "bytes"
        }
      ],
      "name": "safeTransferFrom",
      "outputs": [],
      "stateMutability": "nonpayable",
      "type": "function"
    },
    {
      "inputs": [
        {
          "internalType": "address",
          "name": "operator",
          "type": "address"
        },
        {
          "internalType": "bool",
          "name": "approved",
          "type": "bool"
        }
      ],
      "name": "setApprovalForAll",
      "outputs": [],
      "stateMutability": "nonpayable",
      "type": "function"
    },
    {
      "inputs": [],
      "name": "setPacksReady",
      "outputs": [],
      "stateMutability": "nonpayable",
      "type": "function"
    },
    {
      "inputs": [
        {
          "internalType": "string",
          "name": "provenanceHash",
          "type": "string"
        }
      ],
      "name": "setProvenanceHash",
      "outputs": [],
      "stateMutability": "nonpayable",
      "type": "function"
    },
    {
      "inputs": [],
      "name": "setStartingIndex",
      "outputs": [],
      "stateMutability": "nonpayable",
      "type": "function"
    },
    {
      "inputs": [
        {
          "internalType": "uint256",
          "name": "tokenId",
          "type": "uint256"
        },
        {
          "internalType": "string",
          "name": "uri",
          "type": "string"
        }
      ],
      "name": "setTokenUri",
      "outputs": [],
      "stateMutability": "nonpayable",
      "type": "function"
    },
    {
      "inputs": [],
      "name": "setURIs",
      "outputs": [],
      "stateMutability": "nonpayable",
      "type": "function"
    },
    {
      "inputs": [
        {
          "internalType": "bytes4",
          "name": "interfaceId",
          "type": "bytes4"
        }
      ],
      "name": "supportsInterface",
      "outputs": [
        {
          "internalType": "bool",
          "name": "",
          "type": "bool"
        }
      ],
      "stateMutability": "view",
      "type": "function"
    },
    {
      "inputs": [
        {
          "internalType": "address",
          "name": "newOwner",
          "type": "address"
        }
      ],
      "name": "transferOwnership",
      "outputs": [],
      "stateMutability": "nonpayable",
      "type": "function"
    },
    {
      "inputs": [
        {
          "internalType": "uint256",
          "name": "tokenId",
          "type": "uint256"
        }
      ],
      "name": "uri",
      "outputs": [
        {
          "internalType": "string",
          "name": "",
          "type": "string"
        }
      ],
      "stateMutability": "view",
      "type": "function"
    }
  ],
  "bytecode": "0x6080604052612710600f556001601060006101000a81548160ff0219169083151502179055506008546011556011546012556040518060400160405280601581526020017f68747470733a2f2f697066732e696f2f697066732f0000000000000000000000815250601690805190602001906200007e929190620003b1565b506040518060200160405280600081525060199080519060200190620000a6929190620003b1565b50348015620000b457600080fd5b50604051620056f5380380620056f58339818101604052810190620000da9190620004ea565b60405180602001604052806000815250620000fb81620001fb60201b60201c565b506200011c620001106200021760201b60201c565b6200021f60201b60201c565b620001676040518060400160405280601281526020017f4d616b696e6720636f6e74726163742e2e2e0000000000000000000000000000815250620002e560201b620019831760201c565b8a6008819055508960098190555088600a8190555087600b8190555086600c8190555085600d8190555084600e819055508360059080519060200190620001b0929190620003b1565b508260069080519060200190620001c9929190620003b1565b508160079080519060200190620001e2929190620003b1565b5080600f81905550505050505050505050505062000851565b806002908051906020019062000213929190620003b1565b5050565b600033905090565b6000600360009054906101000a900473ffffffffffffffffffffffffffffffffffffffff16905081600360006101000a81548173ffffffffffffffffffffffffffffffffffffffff021916908373ffffffffffffffffffffffffffffffffffffffff1602179055508173ffffffffffffffffffffffffffffffffffffffff168173ffffffffffffffffffffffffffffffffffffffff167f8be0079c531659141344cd1fd0a4f28419497f9722a3daafe3b4186f6b6457e060405160405180910390a35050565b6200038581604051602401620002fc91906200067d565b6040516020818303038152906040527f41304fac000000000000000000000000000000000000000000000000000000007bffffffffffffffffffffffffffffffffffffffffffffffffffffffff19166020820180517bffffffffffffffffffffffffffffffffffffffffffffffffffffffff83818316178352505050506200038860201b60201c565b50565b60008151905060006a636f6e736f6c652e6c6f679050602083016000808483855afa5050505050565b828054620003bf906200075c565b90600052602060002090601f016020900481019282620003e357600085556200042f565b82601f10620003fe57805160ff19168380011785556200042f565b828001600101855582156200042f579182015b828111156200042e57825182559160200191906001019062000411565b5b5090506200043e919062000442565b5090565b5b808211156200045d57600081600090555060010162000443565b5090565b6000620004786200047284620006ca565b620006a1565b9050828152602081018484840111156200049157600080fd5b6200049e84828562000726565b509392505050565b600082601f830112620004b857600080fd5b8151620004ca84826020860162000461565b91505092915050565b600081519050620004e48162000837565b92915050565b60008060008060008060008060008060006101608c8e0312156200050d57600080fd5b60006200051d8e828f01620004d3565b9b50506020620005308e828f01620004d3565b9a50506040620005438e828f01620004d3565b9950506060620005568e828f01620004d3565b9850506080620005698e828f01620004d3565b97505060a06200057c8e828f01620004d3565b96505060c06200058f8e828f01620004d3565b95505060e08c015167ffffffffffffffff811115620005ad57600080fd5b620005bb8e828f01620004a6565b9450506101008c015167ffffffffffffffff811115620005da57600080fd5b620005e88e828f01620004a6565b9350506101208c015167ffffffffffffffff8111156200060757600080fd5b620006158e828f01620004a6565b925050610140620006298e828f01620004d3565b9150509295989b509295989b9093969950565b6000620006498262000700565b6200065581856200070b565b93506200066781856020860162000726565b620006728162000826565b840191505092915050565b600060208201905081810360008301526200069981846200063c565b905092915050565b6000620006ad620006c0565b9050620006bb828262000792565b919050565b6000604051905090565b600067ffffffffffffffff821115620006e857620006e7620007f7565b5b620006f38262000826565b9050602081019050919050565b600081519050919050565b600082825260208201905092915050565b6000819050919050565b60005b838110156200074657808201518184015260208101905062000729565b8381111562000756576000848401525b50505050565b600060028204905060018216806200077557607f821691505b602082108114156200078c576200078b620007c8565b5b50919050565b6200079d8262000826565b810181811067ffffffffffffffff82111715620007bf57620007be620007f7565b5b80604052505050565b7f4e487b7100000000000000000000000000000000000000000000000000000000600052602260045260246000fd5b7f4e487b7100000000000000000000000000000000000000000000000000000000600052604160045260246000fd5b6000601f19601f8301169050919050565b62000842816200071c565b81146200084e57600080fd5b50565b614e9480620008616000396000f3fe608060405234801561001057600080fd5b50600436106101a85760003560e01c80635d2db2bf116100f9578063bbb13e1711610097578063e986655011610071578063e9866550146103fd578063f242432a14610407578063f2fde38b14610423578063f7b6cf751461043f576101a8565b8063bbb13e17146103a5578063be59ec26146103af578063e985e9c5146103cd576101a8565b80637d17fcbe116100d35780637d17fcbe146103575780638da5cb5b146103615780639ebf488b1461037f578063a22cb46514610389576101a8565b80635d2db2bf14610339578063715018a61461034357806375223f921461034d576101a8565b806318e20a38116101665780633c1d4a99116101405780633c1d4a99146102c55780634e1273f4146102e35780634f3551d71461031357806357f7789e1461031d576101a8565b806318e20a381461028157806319b604391461029f5780632eb2c2d6146102a9576101a8565b8062fdd58e146101ad57806301ffc9a7146101dd5780630e89341c1461020d578063109695231461023d57806313dc2db214610259578063143cc14414610263575b600080fd5b6101c760048036038101906101c291906134bd565b61045d565b6040516101d4919061412c565b60405180910390f35b6101f760048036038101906101f29190613565565b610526565b6040516102049190613da8565b60405180910390f35b610227600480360381019061022291906135f8565b610608565b6040516102349190613dc3565b60405180910390f35b610257600480360381019061025291906135b7565b6106ad565b005b610261610743565b005b61026b6108a1565b604051610278919061412c565b60405180910390f35b610289610927565b604051610296919061412c565b60405180910390f35b6102a761092d565b005b6102c360048036038101906102be9190613333565b6109d5565b005b6102cd610a76565b6040516102da9190613d34565b60405180910390f35b6102fd60048036038101906102f891906134f9565b610b3d565b60405161030a9190613d4f565b60405180910390f35b61031b610cee565b005b61033760048036038101906103329190613621565b610df7565b005b610341610f01565b005b61034b6111ff565b005b610355611287565b005b61035f611334565b005b6103696113fe565b6040516103769190613c2e565b60405180910390f35b610387611428565b005b6103a3600480360381019061039e9190613481565b611531565b005b6103ad611547565b005b6103b7611666565b6040516103c49190613da8565b60405180910390f35b6103e760048036038101906103e291906132f7565b611679565b6040516103f49190613da8565b60405180910390f35b61040561170d565b005b610421600480360381019061041c91906133f2565b6117e4565b005b61043d600480360381019061043891906132ce565b611885565b005b61044761197d565b604051610454919061412c565b60405180910390f35b60008073ffffffffffffffffffffffffffffffffffffffff168373ffffffffffffffffffffffffffffffffffffffff1614156104ce576040517f08c379a00000000000000000000000000000000000000000000000000000000081526004016104c590613eac565b60405180910390fd5b60008083815260200190815260200160002060008473ffffffffffffffffffffffffffffffffffffffff1673ffffffffffffffffffffffffffffffffffffffff16815260200190815260200160002054905092915050565b60007fd9b67a26000000000000000000000000000000000000000000000000000000007bffffffffffffffffffffffffffffffffffffffffffffffffffffffff1916827bffffffffffffffffffffffffffffffffffffffffffffffffffffffff191614806105f157507f0e89341c000000000000000000000000000000000000000000000000000000007bffffffffffffffffffffffffffffffffffffffffffffffffffffffff1916827bffffffffffffffffffffffffffffffffffffffffffffffffffffffff1916145b80610601575061060082611a1c565b5b9050919050565b6060602460008381526020019081526020016000208054610628906144e5565b80601f0160208091040260200160405190810160405280929190818152602001828054610654906144e5565b80156106a15780601f10610676576101008083540402835291602001916106a1565b820191906000526020600020905b81548152906001019060200180831161068457829003601f168201915b50505050509050919050565b6106b5611a86565b73ffffffffffffffffffffffffffffffffffffffff166106d36113fe565b73ffffffffffffffffffffffffffffffffffffffff1614610729576040517f08c379a00000000000000000000000000000000000000000000000000000000081526004016107209061400c565b60405180910390fd5b806019908051906020019061073f929190612fa4565b5050565b61074b611a86565b73ffffffffffffffffffffffffffffffffffffffff166107696113fe565b73ffffffffffffffffffffffffffffffffffffffff16146107bf576040517f08c379a00000000000000000000000000000000000000000000000000000000081526004016107b69061400c565b60405180910390fd5b60006040518060a00160405280600260ff168152602001600c60ff168152602001601b60ff168152602001602460ff168152602001603160ff16815250905060005b600581101561089d57818160058110610843577f4e487b7100000000000000000000000000000000000000000000000000000000600052603260045260246000fd5b602002015160ff16601c8260058110610885577f4e487b7100000000000000000000000000000000000000000000000000000000600052603260045260246000fd5b0181905550808061089590614548565b915050610801565b5050565b60006108ab611a86565b73ffffffffffffffffffffffffffffffffffffffff166108c96113fe565b73ffffffffffffffffffffffffffffffffffffffff161461091f576040517f08c379a00000000000000000000000000000000000000000000000000000000081526004016109169061400c565b60405180910390fd5b600954905090565b600f5481565b610935611a86565b73ffffffffffffffffffffffffffffffffffffffff166109536113fe565b73ffffffffffffffffffffffffffffffffffffffff16146109a9576040517f08c379a00000000000000000000000000000000000000000000000000000000081526004016109a09061400c565b60405180910390fd5b601060009054906101000a900460ff1615601060006101000a81548160ff021916908315150217905550565b6109dd611a86565b73ffffffffffffffffffffffffffffffffffffffff168573ffffffffffffffffffffffffffffffffffffffff161480610a235750610a2285610a1d611a86565b611679565b5b610a62576040517f08c379a0000000000000000000000000000000000000000000000000000000008152600401610a5990613f8c565b60405180910390fd5b610a6f8585858585611a8e565b5050505050565b610a7e61302a565b610a86611a86565b73ffffffffffffffffffffffffffffffffffffffff16610aa46113fe565b73ffffffffffffffffffffffffffffffffffffffff1614610afa576040517f08c379a0000000000000000000000000000000000000000000000000000000008152600401610af19061400c565b60405180910390fd5b601c600580602002604051908101604052809291908260058015610b33576020028201915b815481526020019060010190808311610b1f575b5050505050905090565b60608151835114610b83576040517f08c379a0000000000000000000000000000000000000000000000000000000008152600401610b7a906140cc565b60405180910390fd5b6000835167ffffffffffffffff811115610bc6577f4e487b7100000000000000000000000000000000000000000000000000000000600052604160045260246000fd5b604051908082528060200260200182016040528015610bf45781602001602082028036833780820191505090505b50905060005b8451811015610ce357610c8d858281518110610c3f577f4e487b7100000000000000000000000000000000000000000000000000000000600052603260045260246000fd5b6020026020010151858381518110610c80577f4e487b7100000000000000000000000000000000000000000000000000000000600052603260045260246000fd5b602002602001015161045d565b828281518110610cc6577f4e487b7100000000000000000000000000000000000000000000000000000000600052603260045260246000fd5b60200260200101818152505080610cdc90614548565b9050610bfa565b508091505092915050565b600e5460145410610d34576040517f08c379a0000000000000000000000000000000000000000000000000000000008152600401610d2b9061404c565b60405180910390fd5b6001610d423360115461045d565b10610d82576040517f08c379a0000000000000000000000000000000000000000000000000000000008152600401610d799061408c565b60405180910390fd5b610da033601254600160405180602001604052806000815250611dee565b600160146000828254610db3919061430d565b925050819055507f2e0f4d63dcc00e6a11c8aef9f6e15c1f9cd6e9a090b2dd99c7b797f1a28d300d33601454604051610ded929190613d0b565b60405180910390a1565b610dff611a86565b73ffffffffffffffffffffffffffffffffffffffff16610e1d6113fe565b73ffffffffffffffffffffffffffffffffffffffff1614610e73576040517f08c379a0000000000000000000000000000000000000000000000000000000008152600401610e6a9061400c565b60405180910390fd5b6000602460008481526020019081526020016000208054610e93906144e5565b905014610ed5576040517f08c379a0000000000000000000000000000000000000000000000000000000008152600401610ecc90613fac565b60405180910390fd5b80602460008481526020019081526020016000209080519060200190610efc929190612fa4565b505050565b610f09611a86565b73ffffffffffffffffffffffffffffffffffffffff16610f276113fe565b73ffffffffffffffffffffffffffffffffffffffff1614610f7d576040517f08c379a0000000000000000000000000000000000000000000000000000000008152600401610f749061400c565b60405180910390fd5b60005b60085481101561118c57610fcb6040518060400160405280601281526020017f5374617274696e6720696e646578206973200000000000000000000000000000815250601854611f84565b61100c6040518060400160405280600c81526020017f6e756d206174686c657465730000000000000000000000000000000000000000815250600854611f84565b60006008548260185461101f919061430d565b61102991906145bb565b905061106a6040518060400160405280600b81526020017f6d696e7420696e6465782000000000000000000000000000000000000000000081525082611f84565b61109e81600561107984612020565b60405160200161108a929190613bff565b604051602081830303815290604052610df7565b6111786040518060400160405280600881526020017f4e657720555249200000000000000000000000000000000000000000000000008152506024600084815260200190815260200160002080546110f5906144e5565b80601f0160208091040260200160405190810160405280929190818152602001828054611121906144e5565b801561116e5780601f106111435761010080835404028352916020019161116e565b820191906000526020600020905b81548152906001019060200180831161115157829003601f168201915b50505050506121cd565b50808061118490614548565b915050610f80565b506111c5600160085461119f919061430d565b60066040516020016111b19190613be8565b604051602081830303815290604052610df7565b6111fd60026008546111d7919061430d565b60076040516020016111e99190613be8565b604051602081830303815290604052610df7565b565b611207611a86565b73ffffffffffffffffffffffffffffffffffffffff166112256113fe565b73ffffffffffffffffffffffffffffffffffffffff161461127b576040517f08c379a00000000000000000000000000000000000000000000000000000000081526004016112729061400c565b60405180910390fd5b6112856000612269565b565b601060009054906101000a900460ff166112d6576040517f08c379a00000000000000000000000000000000000000000000000000000000081526004016112cd9061406c565b60405180910390fd5b60006112e43360125461045d565b11611324576040517f08c379a000000000000000000000000000000000000000000000000000000000815260040161131b90613e8c565b60405180910390fd5b61133233601254600161232f565b565b61133c611a86565b73ffffffffffffffffffffffffffffffffffffffff1661135a6113fe565b73ffffffffffffffffffffffffffffffffffffffff16146113b0576040517f08c379a00000000000000000000000000000000000000000000000000000000081526004016113a79061400c565b60405180910390fd5b6000601854146113f5576040517f08c379a00000000000000000000000000000000000000000000000000000000081526004016113ec90613f4c565b60405180910390fd5b43601781905550565b6000600360009054906101000a900473ffffffffffffffffffffffffffffffffffffffff16905090565b600e546013541061146e576040517f08c379a00000000000000000000000000000000000000000000000000000000081526004016114659061404c565b60405180910390fd5b600161147c3360115461045d565b106114bc576040517f08c379a00000000000000000000000000000000000000000000000000000000081526004016114b39061408c565b60405180910390fd5b6114da33601154600160405180602001604052806000815250611dee565b6001601360008282546114ed919061430d565b925050819055507f2e0f4d63dcc00e6a11c8aef9f6e15c1f9cd6e9a090b2dd99c7b797f1a28d300d33601354604051611527929190613d0b565b60405180910390a1565b61154361153c611a86565b838361254c565b5050565b601060009054906101000a900460ff16611596576040517f08c379a000000000000000000000000000000000000000000000000000000000815260040161158d9061406c565b60405180910390fd5b60016115a43360115461045d565b146115e4576040517f08c379a00000000000000000000000000000000000000000000000000000000081526004016115db9061402c565b60405180910390fd5b6115ec610743565b60005b60058160ff16101561165557611642601c8260ff166005811061163b577f4e487b7100000000000000000000000000000000000000000000000000000000600052603260045260246000fd5b01546126b9565b808061164d90614591565b9150506115ef565b5061166433601154600161232f565b565b601060009054906101000a900460ff1681565b6000600160008473ffffffffffffffffffffffffffffffffffffffff1673ffffffffffffffffffffffffffffffffffffffff16815260200190815260200160002060008373ffffffffffffffffffffffffffffffffffffffff1673ffffffffffffffffffffffffffffffffffffffff16815260200190815260200160002060009054906101000a900460ff16905092915050565b611715611a86565b73ffffffffffffffffffffffffffffffffffffffff166117336113fe565b73ffffffffffffffffffffffffffffffffffffffff1614611789576040517f08c379a00000000000000000000000000000000000000000000000000000000081526004016117809061400c565b60405180910390fd5b6009546008546117999190614394565b6001436117a691906143ee565b4060001c6117b491906145bb565b601881905550600060185414156117e2576117db600160185461283490919063ffffffff16565b6018819055505b565b6117ec611a86565b73ffffffffffffffffffffffffffffffffffffffff168573ffffffffffffffffffffffffffffffffffffffff16148061183257506118318561182c611a86565b611679565b5b611871576040517f08c379a000000000000000000000000000000000000000000000000000000000815260040161186890613f0c565b60405180910390fd5b61187e858585858561284a565b5050505050565b61188d611a86565b73ffffffffffffffffffffffffffffffffffffffff166118ab6113fe565b73ffffffffffffffffffffffffffffffffffffffff1614611901576040517f08c379a00000000000000000000000000000000000000000000000000000000081526004016118f89061400c565b60405180910390fd5b600073ffffffffffffffffffffffffffffffffffffffff168173ffffffffffffffffffffffffffffffffffffffff161415611971576040517f08c379a000000000000000000000000000000000000000000000000000000000815260040161196890613ecc565b60405180910390fd5b61197a81612269565b50565b601b5481565b611a19816040516024016119979190613dc3565b6040516020818303038152906040527f41304fac000000000000000000000000000000000000000000000000000000007bffffffffffffffffffffffffffffffffffffffffffffffffffffffff19166020820180517bffffffffffffffffffffffffffffffffffffffffffffffffffffffff8381831617835250505050612acc565b50565b60007f01ffc9a7000000000000000000000000000000000000000000000000000000007bffffffffffffffffffffffffffffffffffffffffffffffffffffffff1916827bffffffffffffffffffffffffffffffffffffffffffffffffffffffff1916149050919050565b600033905090565b8151835114611ad2576040517f08c379a0000000000000000000000000000000000000000000000000000000008152600401611ac9906140ec565b60405180910390fd5b600073ffffffffffffffffffffffffffffffffffffffff168473ffffffffffffffffffffffffffffffffffffffff161415611b42576040517f08c379a0000000000000000000000000000000000000000000000000000000008152600401611b3990613f6c565b60405180910390fd5b6000611b4c611a86565b9050611b5c818787878787612af5565b60005b8451811015611d59576000858281518110611ba3577f4e487b7100000000000000000000000000000000000000000000000000000000600052603260045260246000fd5b602002602001015190506000858381518110611be8577f4e487b7100000000000000000000000000000000000000000000000000000000600052603260045260246000fd5b60200260200101519050600080600084815260200190815260200160002060008b73ffffffffffffffffffffffffffffffffffffffff1673ffffffffffffffffffffffffffffffffffffffff16815260200190815260200160002054905081811015611c89576040517f08c379a0000000000000000000000000000000000000000000000000000000008152600401611c8090613fec565b60405180910390fd5b81810360008085815260200190815260200160002060008c73ffffffffffffffffffffffffffffffffffffffff1673ffffffffffffffffffffffffffffffffffffffff168152602001908152602001600020819055508160008085815260200190815260200160002060008b73ffffffffffffffffffffffffffffffffffffffff1673ffffffffffffffffffffffffffffffffffffffff1681526020019081526020016000206000828254611d3e919061430d565b9250508190555050505080611d5290614548565b9050611b5f565b508473ffffffffffffffffffffffffffffffffffffffff168673ffffffffffffffffffffffffffffffffffffffff168273ffffffffffffffffffffffffffffffffffffffff167f4a39dc06d4c0dbc64b70af90fd698a233a518aa5d07e595d983b8c0526c8f7fb8787604051611dd0929190613d71565b60405180910390a4611de6818787878787612afd565b505050505050565b600073ffffffffffffffffffffffffffffffffffffffff168473ffffffffffffffffffffffffffffffffffffffff161415611e5e576040517f08c379a0000000000000000000000000000000000000000000000000000000008152600401611e559061410c565b60405180910390fd5b6000611e68611a86565b9050611e8981600087611e7a88612ce4565b611e8388612ce4565b87612af5565b8260008086815260200190815260200160002060008773ffffffffffffffffffffffffffffffffffffffff1673ffffffffffffffffffffffffffffffffffffffff1681526020019081526020016000206000828254611ee8919061430d565b925050819055508473ffffffffffffffffffffffffffffffffffffffff16600073ffffffffffffffffffffffffffffffffffffffff168273ffffffffffffffffffffffffffffffffffffffff167fc3d58168c5ae7397731d063d5bbf3d657854427343f4c083240f7aacaa2d0f628787604051611f66929190614147565b60405180910390a4611f7d81600087878787612daa565b5050505050565b61201c8282604051602401611f9a929190613e1c565b6040516020818303038152906040527f9710a9d0000000000000000000000000000000000000000000000000000000007bffffffffffffffffffffffffffffffffffffffffffffffffffffffff19166020820180517bffffffffffffffffffffffffffffffffffffffffffffffffffffffff8381831617835250505050612acc565b5050565b60606000821415612068576040518060400160405280600181526020017f300000000000000000000000000000000000000000000000000000000000000081525090506121c8565b600082905060005b6000821461209a57808061208390614548565b915050600a826120939190614363565b9150612070565b60008167ffffffffffffffff8111156120dc577f4e487b7100000000000000000000000000000000000000000000000000000000600052604160045260246000fd5b6040519080825280601f01601f19166020018201604052801561210e5781602001600182028036833780820191505090505b5090505b600085146121c15760018261212791906143ee565b9150600a8561213691906145bb565b6030612142919061430d565b60f81b81838151811061217e577f4e487b7100000000000000000000000000000000000000000000000000000000600052603260045260246000fd5b60200101907effffffffffffffffffffffffffffffffffffffffffffffffffffffffffffff1916908160001a905350600a856121ba9190614363565b9450612112565b8093505050505b919050565b61226582826040516024016121e3929190613de5565b6040516020818303038152906040527f4b5c4277000000000000000000000000000000000000000000000000000000007bffffffffffffffffffffffffffffffffffffffffffffffffffffffff19166020820180517bffffffffffffffffffffffffffffffffffffffffffffffffffffffff8381831617835250505050612acc565b5050565b6000600360009054906101000a900473ffffffffffffffffffffffffffffffffffffffff16905081600360006101000a81548173ffffffffffffffffffffffffffffffffffffffff021916908373ffffffffffffffffffffffffffffffffffffffff1602179055508173ffffffffffffffffffffffffffffffffffffffff168173ffffffffffffffffffffffffffffffffffffffff167f8be0079c531659141344cd1fd0a4f28419497f9722a3daafe3b4186f6b6457e060405160405180910390a35050565b600073ffffffffffffffffffffffffffffffffffffffff168373ffffffffffffffffffffffffffffffffffffffff16141561239f576040517f08c379a000000000000000000000000000000000000000000000000000000000815260040161239690613fcc565b60405180910390fd5b60006123a9611a86565b90506123d9818560006123bb87612ce4565b6123c487612ce4565b60405180602001604052806000815250612af5565b600080600085815260200190815260200160002060008673ffffffffffffffffffffffffffffffffffffffff1673ffffffffffffffffffffffffffffffffffffffff16815260200190815260200160002054905082811015612470576040517f08c379a000000000000000000000000000000000000000000000000000000000815260040161246790613eec565b60405180910390fd5b82810360008086815260200190815260200160002060008773ffffffffffffffffffffffffffffffffffffffff1673ffffffffffffffffffffffffffffffffffffffff16815260200190815260200160002081905550600073ffffffffffffffffffffffffffffffffffffffff168573ffffffffffffffffffffffffffffffffffffffff168373ffffffffffffffffffffffffffffffffffffffff167fc3d58168c5ae7397731d063d5bbf3d657854427343f4c083240f7aacaa2d0f62878760405161253d929190614147565b60405180910390a45050505050565b8173ffffffffffffffffffffffffffffffffffffffff168373ffffffffffffffffffffffffffffffffffffffff1614156125bb576040517f08c379a00000000000000000000000000000000000000000000000000000000081526004016125b2906140ac565b60405180910390fd5b80600160008573ffffffffffffffffffffffffffffffffffffffff1673ffffffffffffffffffffffffffffffffffffffff16815260200190815260200160002060008473ffffffffffffffffffffffffffffffffffffffff1673ffffffffffffffffffffffffffffffffffffffff16815260200190815260200160002060006101000a81548160ff0219169083151502179055508173ffffffffffffffffffffffffffffffffffffffff168373ffffffffffffffffffffffffffffffffffffffff167f17307eab39ab6107e8899845ad3d59bd9653f200f220920489ca2b5937696c31836040516126ac9190613da8565b60405180910390a3505050565b6126fa6040518060400160405280600f81526020017f5374617274696e6720696e646578200000000000000000000000000000000000815250601854611f84565b6127396040518060400160405280600f81526020017f4e6577206d696e7420696e64657820000000000000000000000000000000000081525082611f84565b6009546008546127499190614394565b6015541015612831576009546025600083815260200190815260200160002054106127a9576040517f08c379a00000000000000000000000000000000000000000000000000000000081526004016127a090613f2c565b60405180910390fd5b6127eb338260016040518060400160405280600481526020017f3078303000000000000000000000000000000000000000000000000000000000815250611dee565b600160256000838152602001908152602001600020600082825461280f919061430d565b92505081905550600160156000828254612829919061430d565b925050819055505b50565b60008183612842919061430d565b905092915050565b600073ffffffffffffffffffffffffffffffffffffffff168473ffffffffffffffffffffffffffffffffffffffff1614156128ba576040517f08c379a00000000000000000000000000000000000000000000000000000000081526004016128b190613f6c565b60405180910390fd5b60006128c4611a86565b90506128e48187876128d588612ce4565b6128de88612ce4565b87612af5565b600080600086815260200190815260200160002060008873ffffffffffffffffffffffffffffffffffffffff1673ffffffffffffffffffffffffffffffffffffffff1681526020019081526020016000205490508381101561297b576040517f08c379a000000000000000000000000000000000000000000000000000000000815260040161297290613fec565b60405180910390fd5b83810360008087815260200190815260200160002060008973ffffffffffffffffffffffffffffffffffffffff1673ffffffffffffffffffffffffffffffffffffffff168152602001908152602001600020819055508360008087815260200190815260200160002060008873ffffffffffffffffffffffffffffffffffffffff1673ffffffffffffffffffffffffffffffffffffffff1681526020019081526020016000206000828254612a30919061430d565b925050819055508573ffffffffffffffffffffffffffffffffffffffff168773ffffffffffffffffffffffffffffffffffffffff168373ffffffffffffffffffffffffffffffffffffffff167fc3d58168c5ae7397731d063d5bbf3d657854427343f4c083240f7aacaa2d0f628888604051612aad929190614147565b60405180910390a4612ac3828888888888612daa565b50505050505050565b60008151905060006a636f6e736f6c652e6c6f679050602083016000808483855afa5050505050565b505050505050565b612b1c8473ffffffffffffffffffffffffffffffffffffffff16612f91565b15612cdc578373ffffffffffffffffffffffffffffffffffffffff1663bc197c8187878686866040518663ffffffff1660e01b8152600401612b62959493929190613c49565b602060405180830381600087803b158015612b7c57600080fd5b505af1925050508015612bad57506040513d601f19601f82011682018060405250810190612baa919061358e565b60015b612c5357612bb96146a8565b806308c379a01415612c165750612bce614d6c565b80612bd95750612c18565b806040517f08c379a0000000000000000000000000000000000000000000000000000000008152600401612c0d9190613dc3565b60405180910390fd5b505b6040517f08c379a0000000000000000000000000000000000000000000000000000000008152600401612c4a90613e4c565b60405180910390fd5b63bc197c8160e01b7bffffffffffffffffffffffffffffffffffffffffffffffffffffffff1916817bffffffffffffffffffffffffffffffffffffffffffffffffffffffff191614612cda576040517f08c379a0000000000000000000000000000000000000000000000000000000008152600401612cd190613e6c565b60405180910390fd5b505b505050505050565b60606000600167ffffffffffffffff811115612d29577f4e487b7100000000000000000000000000000000000000000000000000000000600052604160045260246000fd5b604051908082528060200260200182016040528015612d575781602001602082028036833780820191505090505b5090508281600081518110612d95577f4e487b7100000000000000000000000000000000000000000000000000000000600052603260045260246000fd5b60200260200101818152505080915050919050565b612dc98473ffffffffffffffffffffffffffffffffffffffff16612f91565b15612f89578373ffffffffffffffffffffffffffffffffffffffff1663f23a6e6187878686866040518663ffffffff1660e01b8152600401612e0f959493929190613cb1565b602060405180830381600087803b158015612e2957600080fd5b505af1925050508015612e5a57506040513d601f19601f82011682018060405250810190612e57919061358e565b60015b612f0057612e666146a8565b806308c379a01415612ec35750612e7b614d6c565b80612e865750612ec5565b806040517f08c379a0000000000000000000000000000000000000000000000000000000008152600401612eba9190613dc3565b60405180910390fd5b505b6040517f08c379a0000000000000000000000000000000000000000000000000000000008152600401612ef790613e4c565b60405180910390fd5b63f23a6e6160e01b7bffffffffffffffffffffffffffffffffffffffffffffffffffffffff1916817bffffffffffffffffffffffffffffffffffffffffffffffffffffffff191614612f87576040517f08c379a0000000000000000000000000000000000000000000000000000000008152600401612f7e90613e6c565b60405180910390fd5b505b505050505050565b600080823b905060008111915050919050565b828054612fb0906144e5565b90600052602060002090601f016020900481019282612fd25760008555613019565b82601f10612feb57805160ff1916838001178555613019565b82800160010185558215613019579182015b82811115613018578251825591602001919060010190612ffd565b5b509050613026919061304c565b5090565b6040518060a00160405280600590602082028036833780820191505090505090565b5b8082111561306557600081600090555060010161304d565b5090565b600061307c61307784614195565b614170565b9050808382526020820190508285602086028201111561309b57600080fd5b60005b858110156130cb57816130b188826131bd565b84526020840193506020830192505060018101905061309e565b5050509392505050565b60006130e86130e3846141c1565b614170565b9050808382526020820190508285602086028201111561310757600080fd5b60005b85811015613137578161311d88826132b9565b84526020840193506020830192505060018101905061310a565b5050509392505050565b600061315461314f846141ed565b614170565b90508281526020810184848401111561316c57600080fd5b6131778482856144a3565b509392505050565b600061319261318d8461421e565b614170565b9050828152602081018484840111156131aa57600080fd5b6131b58482856144a3565b509392505050565b6000813590506131cc81614e02565b92915050565b600082601f8301126131e357600080fd5b81356131f3848260208601613069565b91505092915050565b600082601f83011261320d57600080fd5b813561321d8482602086016130d5565b91505092915050565b60008135905061323581614e19565b92915050565b60008135905061324a81614e30565b92915050565b60008151905061325f81614e30565b92915050565b600082601f83011261327657600080fd5b8135613286848260208601613141565b91505092915050565b600082601f8301126132a057600080fd5b81356132b084826020860161317f565b91505092915050565b6000813590506132c881614e47565b92915050565b6000602082840312156132e057600080fd5b60006132ee848285016131bd565b91505092915050565b6000806040838503121561330a57600080fd5b6000613318858286016131bd565b9250506020613329858286016131bd565b9150509250929050565b600080600080600060a0868803121561334b57600080fd5b6000613359888289016131bd565b955050602061336a888289016131bd565b945050604086013567ffffffffffffffff81111561338757600080fd5b613393888289016131fc565b935050606086013567ffffffffffffffff8111156133b057600080fd5b6133bc888289016131fc565b925050608086013567ffffffffffffffff8111156133d957600080fd5b6133e588828901613265565b9150509295509295909350565b600080600080600060a0868803121561340a57600080fd5b6000613418888289016131bd565b9550506020613429888289016131bd565b945050604061343a888289016132b9565b935050606061344b888289016132b9565b925050608086013567ffffffffffffffff81111561346857600080fd5b61347488828901613265565b9150509295509295909350565b6000806040838503121561349457600080fd5b60006134a2858286016131bd565b92505060206134b385828601613226565b9150509250929050565b600080604083850312156134d057600080fd5b60006134de858286016131bd565b92505060206134ef858286016132b9565b9150509250929050565b6000806040838503121561350c57600080fd5b600083013567ffffffffffffffff81111561352657600080fd5b613532858286016131d2565b925050602083013567ffffffffffffffff81111561354f57600080fd5b61355b858286016131fc565b9150509250929050565b60006020828403121561357757600080fd5b60006135858482850161323b565b91505092915050565b6000602082840312156135a057600080fd5b60006135ae84828501613250565b91505092915050565b6000602082840312156135c957600080fd5b600082013567ffffffffffffffff8111156135e357600080fd5b6135ef8482850161328f565b91505092915050565b60006020828403121561360a57600080fd5b6000613618848285016132b9565b91505092915050565b6000806040838503121561363457600080fd5b6000613642858286016132b9565b925050602083013567ffffffffffffffff81111561365f57600080fd5b61366b8582860161328f565b9150509250929050565b60006136818383613bca565b60208301905092915050565b61369681614422565b82525050565b6136a58161427e565b6136af81846142c4565b92506136ba8261424f565b8060005b838110156136eb5781516136d28782613675565b96506136dd836142aa565b9250506001810190506136be565b505050505050565b60006136fe82614289565b61370881856142cf565b935061371383614259565b8060005b8381101561374457815161372b8882613675565b9750613736836142b7565b925050600181019050613717565b5085935050505092915050565b61375a81614434565b82525050565b600061376b82614294565b61377581856142e0565b93506137858185602086016144b2565b61378e816146ca565b840191505092915050565b60006137a48261429f565b6137ae81856142f1565b93506137be8185602086016144b2565b6137c7816146ca565b840191505092915050565b60006137dd8261429f565b6137e78185614302565b93506137f78185602086016144b2565b80840191505092915050565b60008154613810816144e5565b61381a8186614302565b94506001821660008114613835576001811461384657613879565b60ff19831686528186019350613879565b61384f85614269565b60005b8381101561387157815481890152600182019150602081019050613852565b838801955050505b50505092915050565b600061388f6034836142f1565b915061389a826146e8565b604082019050919050565b60006138b26028836142f1565b91506138bd82614737565b604082019050919050565b60006138d5601b836142f1565b91506138e082614786565b602082019050919050565b60006138f8602b836142f1565b9150613903826147af565b604082019050919050565b600061391b6026836142f1565b9150613926826147fe565b604082019050919050565b600061393e6024836142f1565b91506139498261484d565b604082019050919050565b60006139616029836142f1565b915061396c8261489c565b604082019050919050565b6000613984602d836142f1565b915061398f826148eb565b604082019050919050565b60006139a7601d836142f1565b91506139b28261493a565b602082019050919050565b60006139ca6025836142f1565b91506139d582614963565b604082019050919050565b60006139ed6032836142f1565b91506139f8826149b2565b604082019050919050565b6000613a106014836142f1565b9150613a1b82614a01565b602082019050919050565b6000613a336023836142f1565b9150613a3e82614a2a565b604082019050919050565b6000613a56602a836142f1565b9150613a6182614a79565b604082019050919050565b6000613a79600583614302565b9150613a8482614ac8565b600582019050919050565b6000613a9c6020836142f1565b9150613aa782614af1565b602082019050919050565b6000613abf602f836142f1565b9150613aca82614b1a565b604082019050919050565b6000613ae26023836142f1565b9150613aed82614b69565b604082019050919050565b6000613b05601f836142f1565b9150613b1082614bb8565b602082019050919050565b6000613b28602a836142f1565b9150613b3382614be1565b604082019050919050565b6000613b4b6029836142f1565b9150613b5682614c30565b604082019050919050565b6000613b6e6029836142f1565b9150613b7982614c7f565b604082019050919050565b6000613b916028836142f1565b9150613b9c82614cce565b604082019050919050565b6000613bb46021836142f1565b9150613bbf82614d1d565b604082019050919050565b613bd38161448c565b82525050565b613be28161448c565b82525050565b6000613bf48284613803565b915081905092915050565b6000613c0b8285613803565b9150613c1782846137d2565b9150613c2282613a6c565b91508190509392505050565b6000602082019050613c43600083018461368d565b92915050565b600060a082019050613c5e600083018861368d565b613c6b602083018761368d565b8181036040830152613c7d81866136f3565b90508181036060830152613c9181856136f3565b90508181036080830152613ca58184613760565b90509695505050505050565b600060a082019050613cc6600083018861368d565b613cd3602083018761368d565b613ce06040830186613bd9565b613ced6060830185613bd9565b8181036080830152613cff8184613760565b90509695505050505050565b6000604082019050613d20600083018561368d565b613d2d6020830184613bd9565b9392505050565b600060a082019050613d49600083018461369c565b92915050565b60006020820190508181036000830152613d6981846136f3565b905092915050565b60006040820190508181036000830152613d8b81856136f3565b90508181036020830152613d9f81846136f3565b90509392505050565b6000602082019050613dbd6000830184613751565b92915050565b60006020820190508181036000830152613ddd8184613799565b905092915050565b60006040820190508181036000830152613dff8185613799565b90508181036020830152613e138184613799565b90509392505050565b60006040820190508181036000830152613e368185613799565b9050613e456020830184613bd9565b9392505050565b60006020820190508181036000830152613e6581613882565b9050919050565b60006020820190508181036000830152613e85816138a5565b9050919050565b60006020820190508181036000830152613ea5816138c8565b9050919050565b60006020820190508181036000830152613ec5816138eb565b9050919050565b60006020820190508181036000830152613ee58161390e565b9050919050565b60006020820190508181036000830152613f0581613931565b9050919050565b60006020820190508181036000830152613f2581613954565b9050919050565b60006020820190508181036000830152613f4581613977565b9050919050565b60006020820190508181036000830152613f658161399a565b9050919050565b60006020820190508181036000830152613f85816139bd565b9050919050565b60006020820190508181036000830152613fa5816139e0565b9050919050565b60006020820190508181036000830152613fc581613a03565b9050919050565b60006020820190508181036000830152613fe581613a26565b9050919050565b6000602082019050818103600083015261400581613a49565b9050919050565b6000602082019050818103600083015261402581613a8f565b9050919050565b6000602082019050818103600083015261404581613ab2565b9050919050565b6000602082019050818103600083015261406581613ad5565b9050919050565b6000602082019050818103600083015261408581613af8565b9050919050565b600060208201905081810360008301526140a581613b1b565b9050919050565b600060208201905081810360008301526140c581613b3e565b9050919050565b600060208201905081810360008301526140e581613b61565b9050919050565b6000602082019050818103600083015261410581613b84565b9050919050565b6000602082019050818103600083015261412581613ba7565b9050919050565b60006020820190506141416000830184613bd9565b92915050565b600060408201905061415c6000830185613bd9565b6141696020830184613bd9565b9392505050565b600061417a61418b565b90506141868282614517565b919050565b6000604051905090565b600067ffffffffffffffff8211156141b0576141af614679565b5b602082029050602081019050919050565b600067ffffffffffffffff8211156141dc576141db614679565b5b602082029050602081019050919050565b600067ffffffffffffffff82111561420857614207614679565b5b614211826146ca565b9050602081019050919050565b600067ffffffffffffffff82111561423957614238614679565b5b614242826146ca565b9050602081019050919050565b6000819050919050565b6000819050602082019050919050565b60008190508160005260206000209050919050565b600060059050919050565b600081519050919050565b600081519050919050565b600081519050919050565b6000602082019050919050565b6000602082019050919050565b600081905092915050565b600082825260208201905092915050565b600082825260208201905092915050565b600082825260208201905092915050565b600081905092915050565b60006143188261448c565b91506143238361448c565b9250827fffffffffffffffffffffffffffffffffffffffffffffffffffffffffffffffff03821115614358576143576145ec565b5b828201905092915050565b600061436e8261448c565b91506143798361448c565b9250826143895761438861461b565b5b828204905092915050565b600061439f8261448c565b91506143aa8361448c565b9250817fffffffffffffffffffffffffffffffffffffffffffffffffffffffffffffffff04831182151516156143e3576143e26145ec565b5b828202905092915050565b60006143f98261448c565b91506144048361448c565b925082821015614417576144166145ec565b5b828203905092915050565b600061442d8261446c565b9050919050565b60008115159050919050565b60007fffffffff0000000000000000000000000000000000000000000000000000000082169050919050565b600073ffffffffffffffffffffffffffffffffffffffff82169050919050565b6000819050919050565b600060ff82169050919050565b82818337600083830152505050565b60005b838110156144d05780820151818401526020810190506144b5565b838111156144df576000848401525b50505050565b600060028204905060018216806144fd57607f821691505b602082108114156145115761451061464a565b5b50919050565b614520826146ca565b810181811067ffffffffffffffff8211171561453f5761453e614679565b5b80604052505050565b60006145538261448c565b91507fffffffffffffffffffffffffffffffffffffffffffffffffffffffffffffffff821415614586576145856145ec565b5b600182019050919050565b600061459c82614496565b915060ff8214156145b0576145af6145ec565b5b600182019050919050565b60006145c68261448c565b91506145d18361448c565b9250826145e1576145e061461b565b5b828206905092915050565b7f4e487b7100000000000000000000000000000000000000000000000000000000600052601160045260246000fd5b7f4e487b7100000000000000000000000000000000000000000000000000000000600052601260045260246000fd5b7f4e487b7100000000000000000000000000000000000000000000000000000000600052602260045260246000fd5b7f4e487b7100000000000000000000000000000000000000000000000000000000600052604160045260246000fd5b600060033d11156146c75760046000803e6146c46000516146db565b90505b90565b6000601f19601f8301169050919050565b60008160e01c9050919050565b7f455243313135353a207472616e7366657220746f206e6f6e204552433131353560008201527f526563656976657220696d706c656d656e746572000000000000000000000000602082015250565b7f455243313135353a204552433131353552656365697665722072656a6563746560008201527f6420746f6b656e73000000000000000000000000000000000000000000000000602082015250565b7f4e6f2072656d61696e696e6720626f6f73746572207061636b73210000000000600082015250565b7f455243313135353a2062616c616e636520717565727920666f7220746865207a60008201527f65726f2061646472657373000000000000000000000000000000000000000000602082015250565b7f4f776e61626c653a206e6577206f776e657220697320746865207a65726f206160008201527f6464726573730000000000000000000000000000000000000000000000000000602082015250565b7f455243313135353a206275726e20616d6f756e7420657863656564732062616c60008201527f616e636500000000000000000000000000000000000000000000000000000000602082015250565b7f455243313135353a2063616c6c6572206973206e6f74206f776e6572206e6f7260008201527f20617070726f7665640000000000000000000000000000000000000000000000602082015250565b7f416c6c206f662074686973206174686c657465206861766520616c726561647960008201527f206265656e206d696e7465642100000000000000000000000000000000000000602082015250565b7f5374617274696e6720696e64657820697320616c726561647920736574000000600082015250565b7f455243313135353a207472616e7366657220746f20746865207a65726f20616460008201527f6472657373000000000000000000000000000000000000000000000000000000602082015250565b7f455243313135353a207472616e736665722063616c6c6572206973206e6f742060008201527f6f776e6572206e6f7220617070726f7665640000000000000000000000000000602082015250565b7f43616e6e6f742073657420757269207477696365000000000000000000000000600082015250565b7f455243313135353a206275726e2066726f6d20746865207a65726f206164647260008201527f6573730000000000000000000000000000000000000000000000000000000000602082015250565b7f455243313135353a20696e73756666696369656e742062616c616e636520666f60008201527f72207472616e7366657200000000000000000000000000000000000000000000602082015250565b7f2e6a736f6e000000000000000000000000000000000000000000000000000000600082015250565b7f4f776e61626c653a2063616c6c6572206973206e6f7420746865206f776e6572600082015250565b7f5061636b2068617320616c7265616479206265656e206275726e6564206f722060008201527f646f6573206e6f742065786973742e0000000000000000000000000000000000602082015250565b7f416c6c207061636b73206861766520616c7265616479206265656e206d696e7460008201527f6564210000000000000000000000000000000000000000000000000000000000602082015250565b7f5061636b73206172656e277420726561647920746f206f70656e207965742100600082015250565b7f43616e206f6e6c79206d696e74206f6e652073746172746572207061636b207060008201527f6572206163636f756e7400000000000000000000000000000000000000000000602082015250565b7f455243313135353a2073657474696e6720617070726f76616c2073746174757360008201527f20666f722073656c660000000000000000000000000000000000000000000000602082015250565b7f455243313135353a206163636f756e747320616e6420696473206c656e67746860008201527f206d69736d617463680000000000000000000000000000000000000000000000602082015250565b7f455243313135353a2069647320616e6420616d6f756e7473206c656e6774682060008201527f6d69736d61746368000000000000000000000000000000000000000000000000602082015250565b7f455243313135353a206d696e7420746f20746865207a65726f2061646472657360008201527f7300000000000000000000000000000000000000000000000000000000000000602082015250565b600060443d1015614d7c57614dff565b614d8461418b565b60043d036004823e80513d602482011167ffffffffffffffff82111715614dac575050614dff565b808201805167ffffffffffffffff811115614dca5750505050614dff565b80602083010160043d038501811115614de7575050505050614dff565b614df682602001850186614517565b82955050505050505b90565b614e0b81614422565b8114614e1657600080fd5b50565b614e2281614434565b8114614e2d57600080fd5b50565b614e3981614440565b8114614e4457600080fd5b50565b614e508161448c565b8114614e5b57600080fd5b5056fea2646970667358221220b0afdf31de49eeaa4c08dce6dadff97ed50924db6e4e73bb09f66f7f8a66248264736f6c63430008020033",
  "linkReferences": {},
  "deployedLinkReferences": {}
}