{
  "_format": "hh-sol-artifact-1",
  "contractName": "GameItems",
  "sourceName": "contracts/GameItems.sol",
  "abi": [
    {
      "inputs": [
        {
          "components": [
            {
              "internalType": "uint256",
              "name": "_numAthletes",
              "type": "uint256"
            },
            {
              "internalType": "uint256",
              "name": "_nftPerAthlete",
              "type": "uint256"
            },
            {
              "internalType": "uint256",
              "name": "_starterPackSize",
              "type": "uint256"
            },
            {
              "internalType": "uint256",
              "name": "_boosterPackSize",
              "type": "uint256"
            },
            {
              "internalType": "uint256",
              "name": "_maxStarterPackBalance",
              "type": "uint256"
            },
            {
              "internalType": "uint256",
              "name": "_maxBoosterPackBalance",
              "type": "uint256"
            },
            {
              "internalType": "uint256",
              "name": "_maxPacks",
              "type": "uint256"
            },
            {
              "internalType": "uint256",
              "name": "_revealTimestamp",
              "type": "uint256"
            }
          ],
          "internalType": "struct GameItems.Parameters",
          "name": "params",
          "type": "tuple"
        },
        {
          "internalType": "string",
          "name": "_athleteURI",
          "type": "string"
        },
        {
          "internalType": "string",
          "name": "_starterPackURI",
          "type": "string"
        },
        {
          "internalType": "string",
          "name": "_boosterPackURI",
          "type": "string"
        }
      ],
      "stateMutability": "nonpayable",
      "type": "constructor"
    },
    {
      "anonymous": false,
      "inputs": [
        {
          "indexed": true,
          "internalType": "address",
          "name": "account",
          "type": "address"
        },
        {
          "indexed": true,
          "internalType": "address",
          "name": "operator",
          "type": "address"
        },
        {
          "indexed": false,
          "internalType": "bool",
          "name": "approved",
          "type": "bool"
        }
      ],
      "name": "ApprovalForAll",
      "type": "event"
    },
    {
      "anonymous": false,
      "inputs": [
        {
          "indexed": true,
          "internalType": "address",
          "name": "previousOwner",
          "type": "address"
        },
        {
          "indexed": true,
          "internalType": "address",
          "name": "newOwner",
          "type": "address"
        }
      ],
      "name": "OwnershipTransferred",
      "type": "event"
    },
    {
      "anonymous": false,
      "inputs": [
        {
          "indexed": true,
          "internalType": "address",
          "name": "operator",
          "type": "address"
        },
        {
          "indexed": true,
          "internalType": "address",
          "name": "from",
          "type": "address"
        },
        {
          "indexed": true,
          "internalType": "address",
          "name": "to",
          "type": "address"
        },
        {
          "indexed": false,
          "internalType": "uint256[]",
          "name": "ids",
          "type": "uint256[]"
        },
        {
          "indexed": false,
          "internalType": "uint256[]",
          "name": "values",
          "type": "uint256[]"
        }
      ],
      "name": "TransferBatch",
      "type": "event"
    },
    {
      "anonymous": false,
      "inputs": [
        {
          "indexed": true,
          "internalType": "address",
          "name": "operator",
          "type": "address"
        },
        {
          "indexed": true,
          "internalType": "address",
          "name": "from",
          "type": "address"
        },
        {
          "indexed": true,
          "internalType": "address",
          "name": "to",
          "type": "address"
        },
        {
          "indexed": false,
          "internalType": "uint256",
          "name": "id",
          "type": "uint256"
        },
        {
          "indexed": false,
          "internalType": "uint256",
          "name": "value",
          "type": "uint256"
        }
      ],
      "name": "TransferSingle",
      "type": "event"
    },
    {
      "anonymous": false,
      "inputs": [
        {
          "indexed": false,
          "internalType": "string",
          "name": "value",
          "type": "string"
        },
        {
          "indexed": true,
          "internalType": "uint256",
          "name": "id",
          "type": "uint256"
        }
      ],
      "name": "URI",
      "type": "event"
    },
    {
      "anonymous": false,
      "inputs": [
        {
          "indexed": false,
          "internalType": "uint256[5]",
          "name": "",
          "type": "uint256[5]"
        },
        {
          "indexed": false,
          "internalType": "address",
          "name": "signer",
          "type": "address"
        }
      ],
      "name": "packBurned",
      "type": "event"
    },
    {
      "anonymous": false,
      "inputs": [
        {
          "indexed": false,
          "internalType": "address",
          "name": "signer",
          "type": "address"
        },
        {
          "indexed": false,
          "internalType": "uint256",
          "name": "id",
          "type": "uint256"
        }
      ],
      "name": "packMinted",
      "type": "event"
    },
    {
      "inputs": [],
      "name": "REVEAL_TIMESTAMP",
      "outputs": [
        {
          "internalType": "uint256",
          "name": "",
          "type": "uint256"
        }
      ],
      "stateMutability": "view",
      "type": "function"
    },
    {
      "inputs": [
        {
          "internalType": "address",
          "name": "_userToAdd",
          "type": "address"
        }
      ],
      "name": "addUserToWhitelist",
      "outputs": [
        {
          "internalType": "bool",
          "name": "success",
          "type": "bool"
        }
      ],
      "stateMutability": "nonpayable",
      "type": "function"
    },
    {
      "inputs": [
        {
          "internalType": "address",
          "name": "account",
          "type": "address"
        },
        {
          "internalType": "uint256",
          "name": "id",
          "type": "uint256"
        }
      ],
      "name": "balanceOf",
      "outputs": [
        {
          "internalType": "uint256",
          "name": "",
          "type": "uint256"
        }
      ],
      "stateMutability": "view",
      "type": "function"
    },
    {
      "inputs": [
        {
          "internalType": "address[]",
          "name": "accounts",
          "type": "address[]"
        },
        {
          "internalType": "uint256[]",
          "name": "ids",
          "type": "uint256[]"
        }
      ],
      "name": "balanceOfBatch",
      "outputs": [
        {
          "internalType": "uint256[]",
          "name": "",
          "type": "uint256[]"
        }
      ],
      "stateMutability": "view",
      "type": "function"
    },
    {
      "inputs": [],
      "name": "burnStarterPack",
      "outputs": [],
      "stateMutability": "nonpayable",
      "type": "function"
    },
    {
      "inputs": [],
      "name": "getNFTPerAthlete",
      "outputs": [
        {
          "internalType": "uint256",
          "name": "",
          "type": "uint256"
        }
      ],
      "stateMutability": "view",
      "type": "function"
    },
    {
      "inputs": [],
      "name": "getNumWhitelisted",
      "outputs": [
        {
          "internalType": "uint256",
          "name": "",
          "type": "uint256"
        }
      ],
      "stateMutability": "view",
      "type": "function"
    },
    {
      "inputs": [
        {
          "internalType": "address",
          "name": "account",
          "type": "address"
        },
        {
          "internalType": "address",
          "name": "operator",
          "type": "address"
        }
      ],
      "name": "isApprovedForAll",
      "outputs": [
        {
          "internalType": "bool",
          "name": "",
          "type": "bool"
        }
      ],
      "stateMutability": "view",
      "type": "function"
    },
    {
      "inputs": [],
      "name": "isPublic",
      "outputs": [
        {
          "internalType": "bool",
          "name": "",
          "type": "bool"
        }
      ],
      "stateMutability": "view",
      "type": "function"
    },
    {
      "inputs": [
        {
          "internalType": "uint256",
          "name": "index",
          "type": "uint256"
        }
      ],
      "name": "mintAthlete",
      "outputs": [],
      "stateMutability": "nonpayable",
      "type": "function"
    },
    {
      "inputs": [],
      "name": "mintStarterPack",
      "outputs": [],
      "stateMutability": "nonpayable",
      "type": "function"
    },
    {
      "inputs": [],
      "name": "name",
      "outputs": [
        {
          "internalType": "string",
          "name": "",
          "type": "string"
        }
      ],
      "stateMutability": "view",
      "type": "function"
    },
    {
      "inputs": [],
      "name": "numWhitelisted",
      "outputs": [
        {
          "internalType": "uint256",
          "name": "",
          "type": "uint256"
        }
      ],
      "stateMutability": "view",
      "type": "function"
    },
    {
      "inputs": [],
      "name": "owner",
      "outputs": [
        {
          "internalType": "address",
          "name": "",
          "type": "address"
        }
      ],
      "stateMutability": "view",
      "type": "function"
    },
    {
      "inputs": [],
      "name": "packsAvailable",
      "outputs": [
        {
          "internalType": "uint256",
          "name": "",
          "type": "uint256"
        }
      ],
      "stateMutability": "view",
      "type": "function"
    },
    {
      "inputs": [],
      "name": "packsReadyToOpen",
      "outputs": [
        {
          "internalType": "bool",
          "name": "",
          "type": "bool"
        }
      ],
      "stateMutability": "view",
      "type": "function"
    },
    {
      "inputs": [
        {
          "internalType": "address",
          "name": "_userToRemove",
          "type": "address"
        }
      ],
      "name": "removeAddressFromWhitelist",
      "outputs": [
        {
          "internalType": "bool",
          "name": "success",
          "type": "bool"
        }
      ],
      "stateMutability": "nonpayable",
      "type": "function"
    },
    {
      "inputs": [],
      "name": "renounceOwnership",
      "outputs": [],
      "stateMutability": "nonpayable",
      "type": "function"
    },
    {
      "inputs": [
        {
          "internalType": "address",
          "name": "from",
          "type": "address"
        },
        {
          "internalType": "address",
          "name": "to",
          "type": "address"
        },
        {
          "internalType": "uint256[]",
          "name": "ids",
          "type": "uint256[]"
        },
        {
          "internalType": "uint256[]",
          "name": "amounts",
          "type": "uint256[]"
        },
        {
          "internalType": "bytes",
          "name": "data",
          "type": "bytes"
        }
      ],
      "name": "safeBatchTransferFrom",
      "outputs": [],
      "stateMutability": "nonpayable",
      "type": "function"
    },
    {
      "inputs": [
        {
          "internalType": "address",
          "name": "from",
          "type": "address"
        },
        {
          "internalType": "address",
          "name": "to",
          "type": "address"
        },
        {
          "internalType": "uint256",
          "name": "id",
          "type": "uint256"
        },
        {
          "internalType": "uint256",
          "name": "amount",
          "type": "uint256"
        },
        {
          "internalType": "bytes",
          "name": "data",
          "type": "bytes"
        }
      ],
      "name": "safeTransferFrom",
      "outputs": [],
      "stateMutability": "nonpayable",
      "type": "function"
    },
    {
      "inputs": [
        {
          "internalType": "address",
          "name": "operator",
          "type": "address"
        },
        {
          "internalType": "bool",
          "name": "approved",
          "type": "bool"
        }
      ],
      "name": "setApprovalForAll",
      "outputs": [],
      "stateMutability": "nonpayable",
      "type": "function"
    },
    {
      "inputs": [],
      "name": "setPacksReady",
      "outputs": [],
      "stateMutability": "nonpayable",
      "type": "function"
    },
    {
      "inputs": [],
      "name": "setStartingIndex",
      "outputs": [],
      "stateMutability": "nonpayable",
      "type": "function"
    },
    {
      "inputs": [
        {
          "internalType": "uint256",
          "name": "tokenId",
          "type": "uint256"
        },
        {
          "internalType": "string",
          "name": "uri",
          "type": "string"
        }
      ],
      "name": "setTokenUri",
      "outputs": [],
      "stateMutability": "nonpayable",
      "type": "function"
    },
    {
      "inputs": [],
      "name": "setURIs",
      "outputs": [],
      "stateMutability": "nonpayable",
      "type": "function"
    },
    {
      "inputs": [
        {
          "internalType": "bytes4",
          "name": "interfaceId",
          "type": "bytes4"
        }
      ],
      "name": "supportsInterface",
      "outputs": [
        {
          "internalType": "bool",
          "name": "",
          "type": "bool"
        }
      ],
      "stateMutability": "view",
      "type": "function"
    },
    {
      "inputs": [
        {
          "internalType": "address",
          "name": "newOwner",
          "type": "address"
        }
      ],
      "name": "transferOwnership",
      "outputs": [],
      "stateMutability": "nonpayable",
      "type": "function"
    },
    {
      "inputs": [
        {
          "internalType": "uint256",
          "name": "tokenId",
          "type": "uint256"
        }
      ],
      "name": "uri",
      "outputs": [
        {
          "internalType": "string",
          "name": "",
          "type": "string"
        }
      ],
      "stateMutability": "view",
      "type": "function"
    },
    {
      "inputs": [
        {
          "internalType": "address",
          "name": "",
          "type": "address"
        }
      ],
      "name": "whitelist",
      "outputs": [
        {
          "internalType": "bool",
          "name": "",
          "type": "bool"
        }
      ],
      "stateMutability": "view",
      "type": "function"
    }
  ],
  "bytecode": "0x6080604052612710600f556040518060400160405280600881526020017f5465616d446966660000000000000000000000000000000000000000000000008152506010908051906020019062000057929190620002d6565b506001601160006101000a81548160ff02191690831515021790555060405180602001604052806000815250601790805190602001906200009a929190620002d6565b50348015620000a857600080fd5b50604051620051bb380380620051bb8339818101604052810190620000ce9190620004fa565b6040518060400160405280600281526020017f54440000000000000000000000000000000000000000000000000000000000008152506200011581620001ec60201b60201c565b50620001366200012a6200020860201b60201c565b6200021060201b60201c565b8360000151600c819055508360200151600d819055508360400151600781905550836060015160088190555083608001516009819055508360a00151600a819055508360c00151600b8190555082600490805190602001906200019b929190620002d6565b508160059080519060200190620001b4929190620002d6565b508060069080519060200190620001cd929190620002d6565b508360e00151600f81905550600b54602081905550505050506200077a565b806002908051906020019062000204929190620002d6565b5050565b600033905090565b6000600360009054906101000a900473ffffffffffffffffffffffffffffffffffffffff16905081600360006101000a81548173ffffffffffffffffffffffffffffffffffffffff021916908373ffffffffffffffffffffffffffffffffffffffff1602179055508173ffffffffffffffffffffffffffffffffffffffff168173ffffffffffffffffffffffffffffffffffffffff167f8be0079c531659141344cd1fd0a4f28419497f9722a3daafe3b4186f6b6457e060405160405180910390a35050565b828054620002e4906200066c565b90600052602060002090601f01602090048101928262000308576000855562000354565b82601f106200032357805160ff191683800117855562000354565b8280016001018555821562000354579182015b828111156200035357825182559160200191906001019062000336565b5b50905062000363919062000367565b5090565b5b808211156200038257600081600090555060010162000368565b5090565b60006200039d6200039784620005f6565b620005cd565b905082815260208101848484011115620003bc57620003bb62000740565b5b620003c984828562000636565b509392505050565b600082601f830112620003e957620003e862000736565b5b8151620003fb84826020860162000386565b91505092915050565b600061010082840312156200041e576200041d6200073b565b5b6200042b610100620005cd565b905060006200043d84828501620004e3565b60008301525060206200045384828501620004e3565b60208301525060406200046984828501620004e3565b60408301525060606200047f84828501620004e3565b60608301525060806200049584828501620004e3565b60808301525060a0620004ab84828501620004e3565b60a08301525060c0620004c184828501620004e3565b60c08301525060e0620004d784828501620004e3565b60e08301525092915050565b600081519050620004f48162000760565b92915050565b60008060008061016085870312156200051857620005176200074a565b5b6000620005288782880162000404565b94505061010085015167ffffffffffffffff8111156200054d576200054c62000745565b5b6200055b87828801620003d1565b93505061012085015167ffffffffffffffff81111562000580576200057f62000745565b5b6200058e87828801620003d1565b92505061014085015167ffffffffffffffff811115620005b357620005b262000745565b5b620005c187828801620003d1565b91505092959194509250565b6000620005d9620005ec565b9050620005e78282620006a2565b919050565b6000604051905090565b600067ffffffffffffffff82111562000614576200061362000707565b5b6200061f826200074f565b9050602081019050919050565b6000819050919050565b60005b838110156200065657808201518184015260208101905062000639565b8381111562000666576000848401525b50505050565b600060028204905060018216806200068557607f821691505b602082108114156200069c576200069b620006d8565b5b50919050565b620006ad826200074f565b810181811067ffffffffffffffff82111715620006cf57620006ce62000707565b5b80604052505050565b7f4e487b7100000000000000000000000000000000000000000000000000000000600052602260045260246000fd5b7f4e487b7100000000000000000000000000000000000000000000000000000000600052604160045260246000fd5b600080fd5b600080fd5b600080fd5b600080fd5b600080fd5b6000601f19601f8301169050919050565b6200076b816200062c565b81146200077757600080fd5b50565b614a31806200078a6000396000f3fe608060405234801561001057600080fd5b50600436106101a85760003560e01c80635d2db2bf116100f9578063bbb13e1711610097578063e985e9c511610071578063e985e9c514610473578063e9866550146104a3578063f242432a146104ad578063f2fde38b146104c9576101a8565b8063bbb13e171461042d578063be59ec2614610437578063d759000b14610455576101a8565b80638da5cb5b116100d35780638da5cb5b146103b95780639b19251a146103d75780639ebf488b14610407578063a22cb46514610411576101a8565b80635d2db2bf14610375578063715018a61461037f578063747b805014610389576101a8565b806319b604391161016657806344eaa84e1161014057806344eaa84e146102ed5780634e1273f41461030b57806354dacb961461033b57806357f7789e14610359576101a8565b806319b6043914610297578063286dd3f5146102a15780632eb2c2d6146102d1576101a8565b8062fdd58e146101ad57806301ffc9a7146101dd57806306fdde031461020d5780630e89341c1461022b578063143cc1441461025b57806318e20a3814610279575b600080fd5b6101c760048036038101906101c2919061302c565b6104e5565b6040516101d49190613c6f565b60405180910390f35b6101f760048036038101906101f291906130e4565b6105ae565b6040516102049190613972565b60405180910390f35b610215610690565b604051610222919061398d565b60405180910390f35b6102456004803603810190610240919061313e565b61071e565b604051610252919061398d565b60405180910390f35b6102636107c3565b6040516102709190613c6f565b60405180910390f35b610281610849565b60405161028e9190613c6f565b60405180910390f35b61029f61084f565b005b6102bb60048036038101906102b69190612e19565b6108f7565b6040516102c89190613972565b60405180910390f35b6102eb60048036038101906102e69190612e86565b610a43565b005b6102f5610ae4565b6040516103029190613c6f565b60405180910390f35b6103256004803603810190610320919061306c565b610aee565b6040516103329190613919565b60405180910390f35b610343610c07565b6040516103509190613c6f565b60405180910390f35b610373600480360381019061036e919061316b565b610c0d565b005b61037d610d17565b005b610387610e36565b005b6103a3600480360381019061039e9190612e19565b610ebe565b6040516103b09190613972565b60405180910390f35b6103c1611009565b6040516103ce91906137ea565b60405180910390f35b6103f160048036038101906103ec9190612e19565b611033565b6040516103fe9190613972565b60405180910390f35b61040f611053565b005b61042b60048036038101906104269190612fec565b61122c565b005b610435611242565b005b61043f61140b565b60405161044c9190613972565b60405180910390f35b61045d61141e565b60405161046a9190613c6f565b60405180910390f35b61048d60048036038101906104889190612e46565b611424565b60405161049a9190613972565b60405180910390f35b6104ab6114b8565b005b6104c760048036038101906104c29190612f55565b61158f565b005b6104e360048036038101906104de9190612e19565b611630565b005b60008073ffffffffffffffffffffffffffffffffffffffff168373ffffffffffffffffffffffffffffffffffffffff161415610556576040517f08c379a000000000000000000000000000000000000000000000000000000000815260040161054d906139ef565b60405180910390fd5b60008083815260200190815260200160002060008473ffffffffffffffffffffffffffffffffffffffff1673ffffffffffffffffffffffffffffffffffffffff16815260200190815260200160002054905092915050565b60007fd9b67a26000000000000000000000000000000000000000000000000000000007bffffffffffffffffffffffffffffffffffffffffffffffffffffffff1916827bffffffffffffffffffffffffffffffffffffffffffffffffffffffff1916148061067957507f0e89341c000000000000000000000000000000000000000000000000000000007bffffffffffffffffffffffffffffffffffffffffffffffffffffffff1916827bffffffffffffffffffffffffffffffffffffffffffffffffffffffff1916145b80610689575061068882611728565b5b9050919050565b6010805461069d90614028565b80601f01602080910402602001604051908101604052809291908181526020018280546106c990614028565b80156107165780601f106106eb57610100808354040283529160200191610716565b820191906000526020600020905b8154815290600101906020018083116106f957829003601f168201915b505050505081565b606060236000838152602001908152602001600020805461073e90614028565b80601f016020809104026020016040519081016040528092919081815260200182805461076a90614028565b80156107b75780601f1061078c576101008083540402835291602001916107b7565b820191906000526020600020905b81548152906001019060200180831161079a57829003601f168201915b50505050509050919050565b60006107cd611792565b73ffffffffffffffffffffffffffffffffffffffff166107eb611009565b73ffffffffffffffffffffffffffffffffffffffff1614610841576040517f08c379a000000000000000000000000000000000000000000000000000000000815260040161083890613b4f565b60405180910390fd5b600d54905090565b600f5481565b610857611792565b73ffffffffffffffffffffffffffffffffffffffff16610875611009565b73ffffffffffffffffffffffffffffffffffffffff16146108cb576040517f08c379a00000000000000000000000000000000000000000000000000000000081526004016108c290613b4f565b60405180910390fd5b601160009054906101000a900460ff1615601160006101000a81548160ff021916908315150217905550565b6000610901611792565b73ffffffffffffffffffffffffffffffffffffffff1661091f611009565b73ffffffffffffffffffffffffffffffffffffffff1614610975576040517f08c379a000000000000000000000000000000000000000000000000000000000815260040161096c90613b4f565b60405180910390fd5b602160008373ffffffffffffffffffffffffffffffffffffffff1673ffffffffffffffffffffffffffffffffffffffff16815260200190815260200160002060009054906101000a900460ff1615610a3e576000602160008473ffffffffffffffffffffffffffffffffffffffff1673ffffffffffffffffffffffffffffffffffffffff16815260200190815260200160002060006101000a81548160ff021916908315150217905550600160226000828254610a329190613f31565b92505081905550600190505b919050565b610a4b611792565b73ffffffffffffffffffffffffffffffffffffffff168573ffffffffffffffffffffffffffffffffffffffff161480610a915750610a9085610a8b611792565b611424565b5b610ad0576040517f08c379a0000000000000000000000000000000000000000000000000000000008152600401610ac790613acf565b60405180910390fd5b610add858585858561179a565b5050505050565b6000602254905090565b60608151835114610b34576040517f08c379a0000000000000000000000000000000000000000000000000000000008152600401610b2b90613c0f565b60405180910390fd5b6000835167ffffffffffffffff811115610b5157610b50614219565b5b604051908082528060200260200182016040528015610b7f5781602001602082028036833780820191505090505b50905060005b8451811015610bfc57610bcc858281518110610ba457610ba36141ea565b5b6020026020010151858381518110610bbf57610bbe6141ea565b5b60200260200101516104e5565b828281518110610bdf57610bde6141ea565b5b60200260200101818152505080610bf59061408b565b9050610b85565b508091505092915050565b60225481565b610c15611792565b73ffffffffffffffffffffffffffffffffffffffff16610c33611009565b73ffffffffffffffffffffffffffffffffffffffff1614610c89576040517f08c379a0000000000000000000000000000000000000000000000000000000008152600401610c8090613b4f565b60405180910390fd5b6000602360008481526020019081526020016000208054610ca990614028565b905014610ceb576040517f08c379a0000000000000000000000000000000000000000000000000000000008152600401610ce290613aef565b60405180910390fd5b80602360008481526020019081526020016000209080519060200190610d12929190612acf565b505050565b610d1f611792565b73ffffffffffffffffffffffffffffffffffffffff16610d3d611009565b73ffffffffffffffffffffffffffffffffffffffff1614610d93576040517f08c379a0000000000000000000000000000000000000000000000000000000008152600401610d8a90613b4f565b60405180910390fd5b60005b600c54811015610e07576000600c5482601654610db39190613e50565b610dbd919061412c565b9050610df3816004610dce84611aae565b604051602001610ddf92919061375c565b604051602081830303815290604052610c0d565b508080610dff9061408b565b915050610d96565b50610e34600c546005604051602001610e209190613745565b604051602081830303815290604052610c0d565b565b610e3e611792565b73ffffffffffffffffffffffffffffffffffffffff16610e5c611009565b73ffffffffffffffffffffffffffffffffffffffff1614610eb2576040517f08c379a0000000000000000000000000000000000000000000000000000000008152600401610ea990613b4f565b60405180910390fd5b610ebc6000611c0f565b565b6000610ec8611792565b73ffffffffffffffffffffffffffffffffffffffff16610ee6611009565b73ffffffffffffffffffffffffffffffffffffffff1614610f3c576040517f08c379a0000000000000000000000000000000000000000000000000000000008152600401610f3390613b4f565b60405180910390fd5b602160008373ffffffffffffffffffffffffffffffffffffffff1673ffffffffffffffffffffffffffffffffffffffff16815260200190815260200160002060009054906101000a900460ff16611004576001602160008473ffffffffffffffffffffffffffffffffffffffff1673ffffffffffffffffffffffffffffffffffffffff16815260200190815260200160002060006101000a81548160ff021916908315150217905550600160226000828254610ff89190613e50565b92505081905550600190505b919050565b6000600360009054906101000a900473ffffffffffffffffffffffffffffffffffffffff16905090565b60216020528060005260406000206000915054906101000a900460ff1681565b602160003373ffffffffffffffffffffffffffffffffffffffff1673ffffffffffffffffffffffffffffffffffffffff16815260200190815260200160002060009054906101000a900460ff166110df576040517f08c379a00000000000000000000000000000000000000000000000000000000081526004016110d690613a6f565b60405180910390fd5b6000600c549050600b546012541061112c576040517f08c379a000000000000000000000000000000000000000000000000000000000815260040161112390613b8f565b60405180910390fd5b600161113833836104e5565b10611178576040517f08c379a000000000000000000000000000000000000000000000000000000000815260040161116f90613bcf565b60405180910390fd5b6111ba338260016040518060400160405280600481526020017f3078303000000000000000000000000000000000000000000000000000000000815250611cd5565b6001601260008282546111cd9190613e50565b925050819055506001602060008282546111e79190613f31565b925050819055507f2e0f4d63dcc00e6a11c8aef9f6e15c1f9cd6e9a090b2dd99c7b797f1a28d300d336012546040516112219291906138c7565b60405180910390a150565b61123e611237611792565b8383611e6b565b5050565b602160003373ffffffffffffffffffffffffffffffffffffffff1673ffffffffffffffffffffffffffffffffffffffff16815260200190815260200160002060009054906101000a900460ff166112ce576040517f08c379a00000000000000000000000000000000000000000000000000000000081526004016112c590613a6f565b60405180910390fd5b6000600c549050601160009054906101000a900460ff16611324576040517f08c379a000000000000000000000000000000000000000000000000000000000815260040161131b90613baf565b60405180910390fd5b600161133033836104e5565b14611370576040517f08c379a000000000000000000000000000000000000000000000000000000000815260040161136790613b6f565b60405180910390fd5b600061137a611fd8565b905060005b60058160ff1610156113c1576113ae828260ff16600581106113a4576113a36141ea565b5b60200201516120bc565b80806113b9906140d4565b91505061137f565b506113ce338360016121b7565b7f15abe0b63b201b70614c230381f0fabc4a26a1957629948558095a11db1d6fb581336040516113ff9291906138f0565b60405180910390a15050565b601160009054906101000a900460ff1681565b60205481565b6000600160008473ffffffffffffffffffffffffffffffffffffffff1673ffffffffffffffffffffffffffffffffffffffff16815260200190815260200160002060008373ffffffffffffffffffffffffffffffffffffffff1673ffffffffffffffffffffffffffffffffffffffff16815260200190815260200160002060009054906101000a900460ff16905092915050565b6114c0611792565b73ffffffffffffffffffffffffffffffffffffffff166114de611009565b73ffffffffffffffffffffffffffffffffffffffff1614611534576040517f08c379a000000000000000000000000000000000000000000000000000000000815260040161152b90613b4f565b60405180910390fd5b600d54600c546115449190613ed7565b6001436115519190613f31565b4060001c61155f919061412c565b6016819055506000601654141561158d5761158660016016546123d490919063ffffffff16565b6016819055505b565b611597611792565b73ffffffffffffffffffffffffffffffffffffffff168573ffffffffffffffffffffffffffffffffffffffff1614806115dd57506115dc856115d7611792565b611424565b5b61161c576040517f08c379a000000000000000000000000000000000000000000000000000000000815260040161161390613a4f565b60405180910390fd5b61162985858585856123ea565b5050505050565b611638611792565b73ffffffffffffffffffffffffffffffffffffffff16611656611009565b73ffffffffffffffffffffffffffffffffffffffff16146116ac576040517f08c379a00000000000000000000000000000000000000000000000000000000081526004016116a390613b4f565b60405180910390fd5b600073ffffffffffffffffffffffffffffffffffffffff168173ffffffffffffffffffffffffffffffffffffffff16141561171c576040517f08c379a000000000000000000000000000000000000000000000000000000000815260040161171390613a0f565b60405180910390fd5b61172581611c0f565b50565b60007f01ffc9a7000000000000000000000000000000000000000000000000000000007bffffffffffffffffffffffffffffffffffffffffffffffffffffffff1916827bffffffffffffffffffffffffffffffffffffffffffffffffffffffff1916149050919050565b600033905090565b81518351146117de576040517f08c379a00000000000000000000000000000000000000000000000000000000081526004016117d590613c2f565b60405180910390fd5b600073ffffffffffffffffffffffffffffffffffffffff168473ffffffffffffffffffffffffffffffffffffffff16141561184e576040517f08c379a000000000000000000000000000000000000000000000000000000000815260040161184590613aaf565b60405180910390fd5b6000611858611792565b905061186881878787878761266c565b60005b8451811015611a19576000858281518110611889576118886141ea565b5b6020026020010151905060008583815181106118a8576118a76141ea565b5b60200260200101519050600080600084815260200190815260200160002060008b73ffffffffffffffffffffffffffffffffffffffff1673ffffffffffffffffffffffffffffffffffffffff16815260200190815260200160002054905081811015611949576040517f08c379a000000000000000000000000000000000000000000000000000000000815260040161194090613b2f565b60405180910390fd5b81810360008085815260200190815260200160002060008c73ffffffffffffffffffffffffffffffffffffffff1673ffffffffffffffffffffffffffffffffffffffff168152602001908152602001600020819055508160008085815260200190815260200160002060008b73ffffffffffffffffffffffffffffffffffffffff1673ffffffffffffffffffffffffffffffffffffffff16815260200190815260200160002060008282546119fe9190613e50565b9250508190555050505080611a129061408b565b905061186b565b508473ffffffffffffffffffffffffffffffffffffffff168673ffffffffffffffffffffffffffffffffffffffff168273ffffffffffffffffffffffffffffffffffffffff167f4a39dc06d4c0dbc64b70af90fd698a233a518aa5d07e595d983b8c0526c8f7fb8787604051611a9092919061393b565b60405180910390a4611aa6818787878787612674565b505050505050565b60606000821415611af6576040518060400160405280600181526020017f30000000000000000000000000000000000000000000000000000000000000008152509050611c0a565b600082905060005b60008214611b28578080611b119061408b565b915050600a82611b219190613ea6565b9150611afe565b60008167ffffffffffffffff811115611b4457611b43614219565b5b6040519080825280601f01601f191660200182016040528015611b765781602001600182028036833780820191505090505b5090505b60008514611c0357600182611b8f9190613f31565b9150600a85611b9e919061412c565b6030611baa9190613e50565b60f81b818381518110611bc057611bbf6141ea565b5b60200101907effffffffffffffffffffffffffffffffffffffffffffffffffffffffffffff1916908160001a905350600a85611bfc9190613ea6565b9450611b7a565b8093505050505b919050565b6000600360009054906101000a900473ffffffffffffffffffffffffffffffffffffffff16905081600360006101000a81548173ffffffffffffffffffffffffffffffffffffffff021916908373ffffffffffffffffffffffffffffffffffffffff1602179055508173ffffffffffffffffffffffffffffffffffffffff168173ffffffffffffffffffffffffffffffffffffffff167f8be0079c531659141344cd1fd0a4f28419497f9722a3daafe3b4186f6b6457e060405160405180910390a35050565b600073ffffffffffffffffffffffffffffffffffffffff168473ffffffffffffffffffffffffffffffffffffffff161415611d45576040517f08c379a0000000000000000000000000000000000000000000000000000000008152600401611d3c90613c4f565b60405180910390fd5b6000611d4f611792565b9050611d7081600087611d618861285b565b611d6a8861285b565b8761266c565b8260008086815260200190815260200160002060008773ffffffffffffffffffffffffffffffffffffffff1673ffffffffffffffffffffffffffffffffffffffff1681526020019081526020016000206000828254611dcf9190613e50565b925050819055508473ffffffffffffffffffffffffffffffffffffffff16600073ffffffffffffffffffffffffffffffffffffffff168273ffffffffffffffffffffffffffffffffffffffff167fc3d58168c5ae7397731d063d5bbf3d657854427343f4c083240f7aacaa2d0f628787604051611e4d929190613c8a565b60405180910390a4611e64816000878787876128d5565b5050505050565b8173ffffffffffffffffffffffffffffffffffffffff168373ffffffffffffffffffffffffffffffffffffffff161415611eda576040517f08c379a0000000000000000000000000000000000000000000000000000000008152600401611ed190613bef565b60405180910390fd5b80600160008573ffffffffffffffffffffffffffffffffffffffff1673ffffffffffffffffffffffffffffffffffffffff16815260200190815260200160002060008473ffffffffffffffffffffffffffffffffffffffff1673ffffffffffffffffffffffffffffffffffffffff16815260200190815260200160002060006101000a81548160ff0219169083151502179055508173ffffffffffffffffffffffffffffffffffffffff168373ffffffffffffffffffffffffffffffffffffffff167f17307eab39ab6107e8899845ad3d59bd9653f200f220920489ca2b5937696c3183604051611fcb9190613972565b60405180910390a3505050565b611fe0612b55565b611fe8612b55565b60005b60058110156120b4576000600a826120039190613ed7565b905060006009600a846120169190613ed7565b6120209190613e50565b905081600183836120319190613f31565b61203b9190613e50565b4233448760125460405160200161205695949392919061378b565b6040516020818303038152906040528051906020012060001c612079919061412c565b6120839190613e50565b848460058110612096576120956141ea565b5b602002018181525050505080806120ac9061408b565b915050611feb565b508091505090565b600d54600c546120cc9190613ed7565b60145410156121b457600d5460246000838152602001908152602001600020541061212c576040517f08c379a000000000000000000000000000000000000000000000000000000000815260040161212390613a8f565b60405180910390fd5b61216e338260016040518060400160405280600481526020017f3078303000000000000000000000000000000000000000000000000000000000815250611cd5565b60016024600083815260200190815260200160002060008282546121929190613e50565b925050819055506001601460008282546121ac9190613e50565b925050819055505b50565b600073ffffffffffffffffffffffffffffffffffffffff168373ffffffffffffffffffffffffffffffffffffffff161415612227576040517f08c379a000000000000000000000000000000000000000000000000000000000815260040161221e90613b0f565b60405180910390fd5b6000612231611792565b9050612261818560006122438761285b565b61224c8761285b565b6040518060200160405280600081525061266c565b600080600085815260200190815260200160002060008673ffffffffffffffffffffffffffffffffffffffff1673ffffffffffffffffffffffffffffffffffffffff168152602001908152602001600020549050828110156122f8576040517f08c379a00000000000000000000000000000000000000000000000000000000081526004016122ef90613a2f565b60405180910390fd5b82810360008086815260200190815260200160002060008773ffffffffffffffffffffffffffffffffffffffff1673ffffffffffffffffffffffffffffffffffffffff16815260200190815260200160002081905550600073ffffffffffffffffffffffffffffffffffffffff168573ffffffffffffffffffffffffffffffffffffffff168373ffffffffffffffffffffffffffffffffffffffff167fc3d58168c5ae7397731d063d5bbf3d657854427343f4c083240f7aacaa2d0f6287876040516123c5929190613c8a565b60405180910390a45050505050565b600081836123e29190613e50565b905092915050565b600073ffffffffffffffffffffffffffffffffffffffff168473ffffffffffffffffffffffffffffffffffffffff16141561245a576040517f08c379a000000000000000000000000000000000000000000000000000000000815260040161245190613aaf565b60405180910390fd5b6000612464611792565b90506124848187876124758861285b565b61247e8861285b565b8761266c565b600080600086815260200190815260200160002060008873ffffffffffffffffffffffffffffffffffffffff1673ffffffffffffffffffffffffffffffffffffffff1681526020019081526020016000205490508381101561251b576040517f08c379a000000000000000000000000000000000000000000000000000000000815260040161251290613b2f565b60405180910390fd5b83810360008087815260200190815260200160002060008973ffffffffffffffffffffffffffffffffffffffff1673ffffffffffffffffffffffffffffffffffffffff168152602001908152602001600020819055508360008087815260200190815260200160002060008873ffffffffffffffffffffffffffffffffffffffff1673ffffffffffffffffffffffffffffffffffffffff16815260200190815260200160002060008282546125d09190613e50565b925050819055508573ffffffffffffffffffffffffffffffffffffffff168773ffffffffffffffffffffffffffffffffffffffff168373ffffffffffffffffffffffffffffffffffffffff167fc3d58168c5ae7397731d063d5bbf3d657854427343f4c083240f7aacaa2d0f62888860405161264d929190613c8a565b60405180910390a46126638288888888886128d5565b50505050505050565b505050505050565b6126938473ffffffffffffffffffffffffffffffffffffffff16612abc565b15612853578373ffffffffffffffffffffffffffffffffffffffff1663bc197c8187878686866040518663ffffffff1660e01b81526004016126d9959493929190613805565b602060405180830381600087803b1580156126f357600080fd5b505af192505050801561272457506040513d601f19601f820116820180604052508101906127219190613111565b60015b6127ca57612730614248565b806308c379a0141561278d5750612745614909565b80612750575061278f565b806040517f08c379a0000000000000000000000000000000000000000000000000000000008152600401612784919061398d565b60405180910390fd5b505b6040517f08c379a00000000000000000000000000000000000000000000000000000000081526004016127c1906139af565b60405180910390fd5b63bc197c8160e01b7bffffffffffffffffffffffffffffffffffffffffffffffffffffffff1916817bffffffffffffffffffffffffffffffffffffffffffffffffffffffff191614612851576040517f08c379a0000000000000000000000000000000000000000000000000000000008152600401612848906139cf565b60405180910390fd5b505b505050505050565b60606000600167ffffffffffffffff81111561287a57612879614219565b5b6040519080825280602002602001820160405280156128a85781602001602082028036833780820191505090505b50905082816000815181106128c0576128bf6141ea565b5b60200260200101818152505080915050919050565b6128f48473ffffffffffffffffffffffffffffffffffffffff16612abc565b15612ab4578373ffffffffffffffffffffffffffffffffffffffff1663f23a6e6187878686866040518663ffffffff1660e01b815260040161293a95949392919061386d565b602060405180830381600087803b15801561295457600080fd5b505af192505050801561298557506040513d601f19601f820116820180604052508101906129829190613111565b60015b612a2b57612991614248565b806308c379a014156129ee57506129a6614909565b806129b157506129f0565b806040517f08c379a00000000000000000000000000000000000000000000000000000000081526004016129e5919061398d565b60405180910390fd5b505b6040517f08c379a0000000000000000000000000000000000000000000000000000000008152600401612a22906139af565b60405180910390fd5b63f23a6e6160e01b7bffffffffffffffffffffffffffffffffffffffffffffffffffffffff1916817bffffffffffffffffffffffffffffffffffffffffffffffffffffffff191614612ab2576040517f08c379a0000000000000000000000000000000000000000000000000000000008152600401612aa9906139cf565b60405180910390fd5b505b505050505050565b600080823b905060008111915050919050565b828054612adb90614028565b90600052602060002090601f016020900481019282612afd5760008555612b44565b82601f10612b1657805160ff1916838001178555612b44565b82800160010185558215612b44579182015b82811115612b43578251825591602001919060010190612b28565b5b509050612b519190612b77565b5090565b6040518060a00160405280600590602082028036833780820191505090505090565b5b80821115612b90576000816000905550600101612b78565b5090565b6000612ba7612ba284613cd8565b613cb3565b90508083825260208201905082856020860282011115612bca57612bc961426f565b5b60005b85811015612bfa5781612be08882612cf8565b845260208401935060208301925050600181019050612bcd565b5050509392505050565b6000612c17612c1284613d04565b613cb3565b90508083825260208201905082856020860282011115612c3a57612c3961426f565b5b60005b85811015612c6a5781612c508882612e04565b845260208401935060208301925050600181019050612c3d565b5050509392505050565b6000612c87612c8284613d30565b613cb3565b905082815260208101848484011115612ca357612ca2614274565b5b612cae848285613fe6565b509392505050565b6000612cc9612cc484613d61565b613cb3565b905082815260208101848484011115612ce557612ce4614274565b5b612cf0848285613fe6565b509392505050565b600081359050612d078161499f565b92915050565b600082601f830112612d2257612d2161426a565b5b8135612d32848260208601612b94565b91505092915050565b600082601f830112612d5057612d4f61426a565b5b8135612d60848260208601612c04565b91505092915050565b600081359050612d78816149b6565b92915050565b600081359050612d8d816149cd565b92915050565b600081519050612da2816149cd565b92915050565b600082601f830112612dbd57612dbc61426a565b5b8135612dcd848260208601612c74565b91505092915050565b600082601f830112612deb57612dea61426a565b5b8135612dfb848260208601612cb6565b91505092915050565b600081359050612e13816149e4565b92915050565b600060208284031215612e2f57612e2e61427e565b5b6000612e3d84828501612cf8565b91505092915050565b60008060408385031215612e5d57612e5c61427e565b5b6000612e6b85828601612cf8565b9250506020612e7c85828601612cf8565b9150509250929050565b600080600080600060a08688031215612ea257612ea161427e565b5b6000612eb088828901612cf8565b9550506020612ec188828901612cf8565b945050604086013567ffffffffffffffff811115612ee257612ee1614279565b5b612eee88828901612d3b565b935050606086013567ffffffffffffffff811115612f0f57612f0e614279565b5b612f1b88828901612d3b565b925050608086013567ffffffffffffffff811115612f3c57612f3b614279565b5b612f4888828901612da8565b9150509295509295909350565b600080600080600060a08688031215612f7157612f7061427e565b5b6000612f7f88828901612cf8565b9550506020612f9088828901612cf8565b9450506040612fa188828901612e04565b9350506060612fb288828901612e04565b925050608086013567ffffffffffffffff811115612fd357612fd2614279565b5b612fdf88828901612da8565b9150509295509295909350565b600080604083850312156130035761300261427e565b5b600061301185828601612cf8565b925050602061302285828601612d69565b9150509250929050565b600080604083850312156130435761304261427e565b5b600061305185828601612cf8565b925050602061306285828601612e04565b9150509250929050565b600080604083850312156130835761308261427e565b5b600083013567ffffffffffffffff8111156130a1576130a0614279565b5b6130ad85828601612d0d565b925050602083013567ffffffffffffffff8111156130ce576130cd614279565b5b6130da85828601612d3b565b9150509250929050565b6000602082840312156130fa576130f961427e565b5b600061310884828501612d7e565b91505092915050565b6000602082840312156131275761312661427e565b5b600061313584828501612d93565b91505092915050565b6000602082840312156131545761315361427e565b5b600061316284828501612e04565b91505092915050565b600080604083850312156131825761318161427e565b5b600061319085828601612e04565b925050602083013567ffffffffffffffff8111156131b1576131b0614279565b5b6131bd85828601612dd6565b9150509250929050565b60006131d38383613710565b60208301905092915050565b6131e881613f65565b82525050565b6131ff6131fa82613f65565b6140fe565b82525050565b61320e81613dc1565b6132188184613e07565b925061322382613d92565b8060005b8381101561325457815161323b87826131c7565b965061324683613ded565b925050600181019050613227565b505050505050565b600061326782613dcc565b6132718185613e12565b935061327c83613d9c565b8060005b838110156132ad57815161329488826131c7565b975061329f83613dfa565b925050600181019050613280565b5085935050505092915050565b6132c381613f77565b82525050565b60006132d482613dd7565b6132de8185613e23565b93506132ee818560208601613ff5565b6132f781614283565b840191505092915050565b600061330d82613de2565b6133178185613e34565b9350613327818560208601613ff5565b61333081614283565b840191505092915050565b600061334682613de2565b6133508185613e45565b9350613360818560208601613ff5565b80840191505092915050565b6000815461337981614028565b6133838186613e45565b9450600182166000811461339e57600181146133af576133e2565b60ff198316865281860193506133e2565b6133b885613dac565b60005b838110156133da578154818901526001820191506020810190506133bb565b838801955050505b50505092915050565b60006133f8603483613e34565b9150613403826142ae565b604082019050919050565b600061341b602883613e34565b9150613426826142fd565b604082019050919050565b600061343e602b83613e34565b91506134498261434c565b604082019050919050565b6000613461602683613e34565b915061346c8261439b565b604082019050919050565b6000613484602483613e34565b915061348f826143ea565b604082019050919050565b60006134a7602983613e34565b91506134b282614439565b604082019050919050565b60006134ca601883613e34565b91506134d582614488565b602082019050919050565b60006134ed602d83613e34565b91506134f8826144b1565b604082019050919050565b6000613510602583613e34565b915061351b82614500565b604082019050919050565b6000613533603283613e34565b915061353e8261454f565b604082019050919050565b6000613556601483613e34565b91506135618261459e565b602082019050919050565b6000613579602383613e34565b9150613584826145c7565b604082019050919050565b600061359c602a83613e34565b91506135a782614616565b604082019050919050565b60006135bf600583613e45565b91506135ca82614665565b600582019050919050565b60006135e2602083613e34565b91506135ed8261468e565b602082019050919050565b6000613605602f83613e34565b9150613610826146b7565b604082019050919050565b6000613628602383613e34565b915061363382614706565b604082019050919050565b600061364b601f83613e34565b915061365682614755565b602082019050919050565b600061366e602a83613e34565b91506136798261477e565b604082019050919050565b6000613691602983613e34565b915061369c826147cd565b604082019050919050565b60006136b4602983613e34565b91506136bf8261481c565b604082019050919050565b60006136d7602883613e34565b91506136e28261486b565b604082019050919050565b60006136fa602183613e34565b9150613705826148ba565b604082019050919050565b61371981613fcf565b82525050565b61372881613fcf565b82525050565b61373f61373a82613fcf565b614122565b82525050565b6000613751828461336c565b915081905092915050565b6000613768828561336c565b9150613774828461333b565b915061377f826135b2565b91508190509392505050565b6000613797828861372e565b6020820191506137a782876131ee565b6014820191506137b7828661372e565b6020820191506137c7828561372e565b6020820191506137d7828461372e565b6020820191508190509695505050505050565b60006020820190506137ff60008301846131df565b92915050565b600060a08201905061381a60008301886131df565b61382760208301876131df565b8181036040830152613839818661325c565b9050818103606083015261384d818561325c565b9050818103608083015261386181846132c9565b90509695505050505050565b600060a08201905061388260008301886131df565b61388f60208301876131df565b61389c604083018661371f565b6138a9606083018561371f565b81810360808301526138bb81846132c9565b90509695505050505050565b60006040820190506138dc60008301856131df565b6138e9602083018461371f565b9392505050565b600060c0820190506139056000830185613205565b61391260a08301846131df565b9392505050565b60006020820190508181036000830152613933818461325c565b905092915050565b60006040820190508181036000830152613955818561325c565b90508181036020830152613969818461325c565b90509392505050565b600060208201905061398760008301846132ba565b92915050565b600060208201905081810360008301526139a78184613302565b905092915050565b600060208201905081810360008301526139c8816133eb565b9050919050565b600060208201905081810360008301526139e88161340e565b9050919050565b60006020820190508181036000830152613a0881613431565b9050919050565b60006020820190508181036000830152613a2881613454565b9050919050565b60006020820190508181036000830152613a4881613477565b9050919050565b60006020820190508181036000830152613a688161349a565b9050919050565b60006020820190508181036000830152613a88816134bd565b9050919050565b60006020820190508181036000830152613aa8816134e0565b9050919050565b60006020820190508181036000830152613ac881613503565b9050919050565b60006020820190508181036000830152613ae881613526565b9050919050565b60006020820190508181036000830152613b0881613549565b9050919050565b60006020820190508181036000830152613b288161356c565b9050919050565b60006020820190508181036000830152613b488161358f565b9050919050565b60006020820190508181036000830152613b68816135d5565b9050919050565b60006020820190508181036000830152613b88816135f8565b9050919050565b60006020820190508181036000830152613ba88161361b565b9050919050565b60006020820190508181036000830152613bc88161363e565b9050919050565b60006020820190508181036000830152613be881613661565b9050919050565b60006020820190508181036000830152613c0881613684565b9050919050565b60006020820190508181036000830152613c28816136a7565b9050919050565b60006020820190508181036000830152613c48816136ca565b9050919050565b60006020820190508181036000830152613c68816136ed565b9050919050565b6000602082019050613c84600083018461371f565b92915050565b6000604082019050613c9f600083018561371f565b613cac602083018461371f565b9392505050565b6000613cbd613cce565b9050613cc9828261405a565b919050565b6000604051905090565b600067ffffffffffffffff821115613cf357613cf2614219565b5b602082029050602081019050919050565b600067ffffffffffffffff821115613d1f57613d1e614219565b5b602082029050602081019050919050565b600067ffffffffffffffff821115613d4b57613d4a614219565b5b613d5482614283565b9050602081019050919050565b600067ffffffffffffffff821115613d7c57613d7b614219565b5b613d8582614283565b9050602081019050919050565b6000819050919050565b6000819050602082019050919050565b60008190508160005260206000209050919050565b600060059050919050565b600081519050919050565b600081519050919050565b600081519050919050565b6000602082019050919050565b6000602082019050919050565b600081905092915050565b600082825260208201905092915050565b600082825260208201905092915050565b600082825260208201905092915050565b600081905092915050565b6000613e5b82613fcf565b9150613e6683613fcf565b9250827fffffffffffffffffffffffffffffffffffffffffffffffffffffffffffffffff03821115613e9b57613e9a61415d565b5b828201905092915050565b6000613eb182613fcf565b9150613ebc83613fcf565b925082613ecc57613ecb61418c565b5b828204905092915050565b6000613ee282613fcf565b9150613eed83613fcf565b9250817fffffffffffffffffffffffffffffffffffffffffffffffffffffffffffffffff0483118215151615613f2657613f2561415d565b5b828202905092915050565b6000613f3c82613fcf565b9150613f4783613fcf565b925082821015613f5a57613f5961415d565b5b828203905092915050565b6000613f7082613faf565b9050919050565b60008115159050919050565b60007fffffffff0000000000000000000000000000000000000000000000000000000082169050919050565b600073ffffffffffffffffffffffffffffffffffffffff82169050919050565b6000819050919050565b600060ff82169050919050565b82818337600083830152505050565b60005b83811015614013578082015181840152602081019050613ff8565b83811115614022576000848401525b50505050565b6000600282049050600182168061404057607f821691505b60208210811415614054576140536141bb565b5b50919050565b61406382614283565b810181811067ffffffffffffffff8211171561408257614081614219565b5b80604052505050565b600061409682613fcf565b91507fffffffffffffffffffffffffffffffffffffffffffffffffffffffffffffffff8214156140c9576140c861415d565b5b600182019050919050565b60006140df82613fd9565b915060ff8214156140f3576140f261415d565b5b600182019050919050565b600061410982614110565b9050919050565b600061411b82614294565b9050919050565b6000819050919050565b600061413782613fcf565b915061414283613fcf565b9250826141525761415161418c565b5b828206905092915050565b7f4e487b7100000000000000000000000000000000000000000000000000000000600052601160045260246000fd5b7f4e487b7100000000000000000000000000000000000000000000000000000000600052601260045260246000fd5b7f4e487b7100000000000000000000000000000000000000000000000000000000600052602260045260246000fd5b7f4e487b7100000000000000000000000000000000000000000000000000000000600052603260045260246000fd5b7f4e487b7100000000000000000000000000000000000000000000000000000000600052604160045260246000fd5b600060033d11156142675760046000803e6142646000516142a1565b90505b90565b600080fd5b600080fd5b600080fd5b600080fd5b600080fd5b6000601f19601f8301169050919050565b60008160601b9050919050565b60008160e01c9050919050565b7f455243313135353a207472616e7366657220746f206e6f6e204552433131353560008201527f526563656976657220696d706c656d656e746572000000000000000000000000602082015250565b7f455243313135353a204552433131353552656365697665722072656a6563746560008201527f6420746f6b656e73000000000000000000000000000000000000000000000000602082015250565b7f455243313135353a2062616c616e636520717565727920666f7220746865207a60008201527f65726f2061646472657373000000000000000000000000000000000000000000602082015250565b7f4f776e61626c653a206e6577206f776e657220697320746865207a65726f206160008201527f6464726573730000000000000000000000000000000000000000000000000000602082015250565b7f455243313135353a206275726e20616d6f756e7420657863656564732062616c60008201527f616e636500000000000000000000000000000000000000000000000000000000602082015250565b7f455243313135353a2063616c6c6572206973206e6f74206f776e6572206e6f7260008201527f20617070726f7665640000000000000000000000000000000000000000000000602082015250565b7f55736572206973206e6f742077686974656c69737465642e0000000000000000600082015250565b7f416c6c206f662074686973206174686c657465206861766520616c726561647960008201527f206265656e206d696e7465642100000000000000000000000000000000000000602082015250565b7f455243313135353a207472616e7366657220746f20746865207a65726f20616460008201527f6472657373000000000000000000000000000000000000000000000000000000602082015250565b7f455243313135353a207472616e736665722063616c6c6572206973206e6f742060008201527f6f776e6572206e6f7220617070726f7665640000000000000000000000000000602082015250565b7f43616e6e6f742073657420757269207477696365000000000000000000000000600082015250565b7f455243313135353a206275726e2066726f6d20746865207a65726f206164647260008201527f6573730000000000000000000000000000000000000000000000000000000000602082015250565b7f455243313135353a20696e73756666696369656e742062616c616e636520666f60008201527f72207472616e7366657200000000000000000000000000000000000000000000602082015250565b7f2e6a736f6e000000000000000000000000000000000000000000000000000000600082015250565b7f4f776e61626c653a2063616c6c6572206973206e6f7420746865206f776e6572600082015250565b7f5061636b2068617320616c7265616479206265656e206275726e6564206f722060008201527f646f6573206e6f742065786973742e0000000000000000000000000000000000602082015250565b7f416c6c207061636b73206861766520616c7265616479206265656e206d696e7460008201527f6564210000000000000000000000000000000000000000000000000000000000602082015250565b7f5061636b73206172656e277420726561647920746f206f70656e207965742100600082015250565b7f43616e206f6e6c79206d696e74206f6e652073746172746572207061636b207060008201527f6572206163636f756e7400000000000000000000000000000000000000000000602082015250565b7f455243313135353a2073657474696e6720617070726f76616c2073746174757360008201527f20666f722073656c660000000000000000000000000000000000000000000000602082015250565b7f455243313135353a206163636f756e747320616e6420696473206c656e67746860008201527f206d69736d617463680000000000000000000000000000000000000000000000602082015250565b7f455243313135353a2069647320616e6420616d6f756e7473206c656e6774682060008201527f6d69736d61746368000000000000000000000000000000000000000000000000602082015250565b7f455243313135353a206d696e7420746f20746865207a65726f2061646472657360008201527f7300000000000000000000000000000000000000000000000000000000000000602082015250565b600060443d10156149195761499c565b614921613cce565b60043d036004823e80513d602482011167ffffffffffffffff8211171561494957505061499c565b808201805167ffffffffffffffff811115614967575050505061499c565b80602083010160043d03850181111561498457505050505061499c565b6149938260200185018661405a565b82955050505050505b90565b6149a881613f65565b81146149b357600080fd5b50565b6149bf81613f77565b81146149ca57600080fd5b50565b6149d681613f83565b81146149e157600080fd5b50565b6149ed81613fcf565b81146149f857600080fd5b5056fea26469706673582212203f6a49124fbfe139db88da1d434c167a2c8446bb7c4e7c16ae6c4306b319c1cd64736f6c63430008070033",
  "linkReferences": {},
  "deployedLinkReferences": {}
}