{
  "_format": "hh-sol-artifact-1",
  "contractName": "GameItems",
  "sourceName": "contracts/GameItems.sol",
  "abi": [
    {
      "inputs": [
        {
          "internalType": "uint256",
          "name": "_numAthletes",
          "type": "uint256"
        },
        {
          "internalType": "uint256",
          "name": "_nftPerAthlete",
          "type": "uint256"
        },
        {
          "internalType": "uint256",
          "name": "_starterPackSize",
          "type": "uint256"
        },
        {
          "internalType": "uint256",
          "name": "_boosterPackSize",
          "type": "uint256"
        },
        {
          "internalType": "uint256",
          "name": "_maxStarterPackBalance",
          "type": "uint256"
        },
        {
          "internalType": "uint256",
          "name": "_maxBoosterPackBalance",
          "type": "uint256"
        },
        {
          "internalType": "uint256",
          "name": "_maxPacks",
          "type": "uint256"
        },
        {
          "internalType": "string",
          "name": "_athleteURI",
          "type": "string"
        },
        {
          "internalType": "string",
          "name": "_starterPackURI",
          "type": "string"
        },
        {
          "internalType": "string",
          "name": "_boosterPackURI",
          "type": "string"
        },
        {
          "internalType": "uint256",
          "name": "_revealTimestamp",
          "type": "uint256"
        }
      ],
      "stateMutability": "nonpayable",
      "type": "constructor"
    },
    {
      "anonymous": false,
      "inputs": [
        {
          "indexed": true,
          "internalType": "address",
          "name": "account",
          "type": "address"
        },
        {
          "indexed": true,
          "internalType": "address",
          "name": "operator",
          "type": "address"
        },
        {
          "indexed": false,
          "internalType": "bool",
          "name": "approved",
          "type": "bool"
        }
      ],
      "name": "ApprovalForAll",
      "type": "event"
    },
    {
      "anonymous": false,
      "inputs": [
        {
          "indexed": true,
          "internalType": "address",
          "name": "previousOwner",
          "type": "address"
        },
        {
          "indexed": true,
          "internalType": "address",
          "name": "newOwner",
          "type": "address"
        }
      ],
      "name": "OwnershipTransferred",
      "type": "event"
    },
    {
      "anonymous": false,
      "inputs": [
        {
          "indexed": false,
          "internalType": "bool",
          "name": "success",
          "type": "bool"
        },
        {
          "indexed": false,
          "internalType": "bytes",
          "name": "data",
          "type": "bytes"
        }
      ],
      "name": "Response",
      "type": "event"
    },
    {
      "anonymous": false,
      "inputs": [
        {
          "indexed": true,
          "internalType": "address",
          "name": "operator",
          "type": "address"
        },
        {
          "indexed": true,
          "internalType": "address",
          "name": "from",
          "type": "address"
        },
        {
          "indexed": true,
          "internalType": "address",
          "name": "to",
          "type": "address"
        },
        {
          "indexed": false,
          "internalType": "uint256[]",
          "name": "ids",
          "type": "uint256[]"
        },
        {
          "indexed": false,
          "internalType": "uint256[]",
          "name": "values",
          "type": "uint256[]"
        }
      ],
      "name": "TransferBatch",
      "type": "event"
    },
    {
      "anonymous": false,
      "inputs": [
        {
          "indexed": true,
          "internalType": "address",
          "name": "operator",
          "type": "address"
        },
        {
          "indexed": true,
          "internalType": "address",
          "name": "from",
          "type": "address"
        },
        {
          "indexed": true,
          "internalType": "address",
          "name": "to",
          "type": "address"
        },
        {
          "indexed": false,
          "internalType": "uint256",
          "name": "id",
          "type": "uint256"
        },
        {
          "indexed": false,
          "internalType": "uint256",
          "name": "value",
          "type": "uint256"
        }
      ],
      "name": "TransferSingle",
      "type": "event"
    },
    {
      "anonymous": false,
      "inputs": [
        {
          "indexed": false,
          "internalType": "string",
          "name": "value",
          "type": "string"
        },
        {
          "indexed": true,
          "internalType": "uint256",
          "name": "id",
          "type": "uint256"
        }
      ],
      "name": "URI",
      "type": "event"
    },
    {
      "anonymous": false,
      "inputs": [
        {
          "indexed": false,
          "internalType": "address",
          "name": "user",
          "type": "address"
        },
        {
          "indexed": false,
          "internalType": "uint256",
          "name": "id",
          "type": "uint256"
        }
      ],
      "name": "packMinted",
      "type": "event"
    },
    {
      "inputs": [],
      "name": "REVEAL_TIMESTAMP",
      "outputs": [
        {
          "internalType": "uint256",
          "name": "",
          "type": "uint256"
        }
      ],
      "stateMutability": "view",
      "type": "function"
    },
    {
      "inputs": [
        {
          "internalType": "address",
          "name": "account",
          "type": "address"
        },
        {
          "internalType": "uint256",
          "name": "id",
          "type": "uint256"
        }
      ],
      "name": "balanceOf",
      "outputs": [
        {
          "internalType": "uint256",
          "name": "",
          "type": "uint256"
        }
      ],
      "stateMutability": "view",
      "type": "function"
    },
    {
      "inputs": [
        {
          "internalType": "address[]",
          "name": "accounts",
          "type": "address[]"
        },
        {
          "internalType": "uint256[]",
          "name": "ids",
          "type": "uint256[]"
        }
      ],
      "name": "balanceOfBatch",
      "outputs": [
        {
          "internalType": "uint256[]",
          "name": "",
          "type": "uint256[]"
        }
      ],
      "stateMutability": "view",
      "type": "function"
    },
    {
      "inputs": [],
      "name": "burnBoosterPack",
      "outputs": [],
      "stateMutability": "nonpayable",
      "type": "function"
    },
    {
      "inputs": [],
      "name": "burnStarterPack",
      "outputs": [],
      "stateMutability": "nonpayable",
      "type": "function"
    },
    {
      "inputs": [],
      "name": "emergencySetStartingIndexBlock",
      "outputs": [],
      "stateMutability": "nonpayable",
      "type": "function"
    },
    {
      "inputs": [],
      "name": "generateMagicNum",
      "outputs": [
        {
          "internalType": "uint256",
          "name": "",
          "type": "uint256"
        }
      ],
      "stateMutability": "view",
      "type": "function"
    },
    {
      "inputs": [],
      "name": "generateStarterPackIndices",
      "outputs": [],
      "stateMutability": "nonpayable",
      "type": "function"
    },
    {
      "inputs": [],
      "name": "getNFTPerAthlete",
      "outputs": [
        {
          "internalType": "uint256",
          "name": "",
          "type": "uint256"
        }
      ],
      "stateMutability": "view",
      "type": "function"
    },
    {
      "inputs": [],
      "name": "getStarterPackIndices",
      "outputs": [
        {
          "internalType": "uint256[5]",
          "name": "",
          "type": "uint256[5]"
        }
      ],
      "stateMutability": "view",
      "type": "function"
    },
    {
      "inputs": [
        {
          "internalType": "address",
          "name": "_addr",
          "type": "address"
        }
      ],
      "name": "grabRandomWord",
      "outputs": [],
      "stateMutability": "nonpayable",
      "type": "function"
    },
    {
      "inputs": [
        {
          "internalType": "address",
          "name": "account",
          "type": "address"
        },
        {
          "internalType": "address",
          "name": "operator",
          "type": "address"
        }
      ],
      "name": "isApprovedForAll",
      "outputs": [
        {
          "internalType": "bool",
          "name": "",
          "type": "bool"
        }
      ],
      "stateMutability": "view",
      "type": "function"
    },
    {
      "inputs": [],
      "name": "mintBoosterPack",
      "outputs": [],
      "stateMutability": "nonpayable",
      "type": "function"
    },
    {
      "inputs": [
        {
          "internalType": "uint256",
          "name": "initialSupply",
          "type": "uint256"
        }
      ],
      "name": "mintCurrency",
      "outputs": [],
      "stateMutability": "nonpayable",
      "type": "function"
    },
    {
      "inputs": [],
      "name": "mintStarterPack",
      "outputs": [],
      "stateMutability": "nonpayable",
      "type": "function"
    },
    {
      "inputs": [],
      "name": "owner",
      "outputs": [
        {
          "internalType": "address",
          "name": "",
          "type": "address"
        }
      ],
      "stateMutability": "view",
      "type": "function"
    },
    {
      "inputs": [],
      "name": "packsReadyToOpen",
      "outputs": [
        {
          "internalType": "bool",
          "name": "",
          "type": "bool"
        }
      ],
      "stateMutability": "view",
      "type": "function"
    },
    {
      "inputs": [],
      "name": "renounceOwnership",
      "outputs": [],
      "stateMutability": "nonpayable",
      "type": "function"
    },
    {
      "inputs": [
        {
          "internalType": "address",
          "name": "from",
          "type": "address"
        },
        {
          "internalType": "address",
          "name": "to",
          "type": "address"
        },
        {
          "internalType": "uint256[]",
          "name": "ids",
          "type": "uint256[]"
        },
        {
          "internalType": "uint256[]",
          "name": "amounts",
          "type": "uint256[]"
        },
        {
          "internalType": "bytes",
          "name": "data",
          "type": "bytes"
        }
      ],
      "name": "safeBatchTransferFrom",
      "outputs": [],
      "stateMutability": "nonpayable",
      "type": "function"
    },
    {
      "inputs": [
        {
          "internalType": "address",
          "name": "from",
          "type": "address"
        },
        {
          "internalType": "address",
          "name": "to",
          "type": "address"
        },
        {
          "internalType": "uint256",
          "name": "id",
          "type": "uint256"
        },
        {
          "internalType": "uint256",
          "name": "amount",
          "type": "uint256"
        },
        {
          "internalType": "bytes",
          "name": "data",
          "type": "bytes"
        }
      ],
      "name": "safeTransferFrom",
      "outputs": [],
      "stateMutability": "nonpayable",
      "type": "function"
    },
    {
      "inputs": [
        {
          "internalType": "address",
          "name": "operator",
          "type": "address"
        },
        {
          "internalType": "bool",
          "name": "approved",
          "type": "bool"
        }
      ],
      "name": "setApprovalForAll",
      "outputs": [],
      "stateMutability": "nonpayable",
      "type": "function"
    },
    {
      "inputs": [],
      "name": "setPacksReady",
      "outputs": [],
      "stateMutability": "nonpayable",
      "type": "function"
    },
    {
      "inputs": [
        {
          "internalType": "string",
          "name": "provenanceHash",
          "type": "string"
        }
      ],
      "name": "setProvenanceHash",
      "outputs": [],
      "stateMutability": "nonpayable",
      "type": "function"
    },
    {
      "inputs": [],
      "name": "setStartingIndex",
      "outputs": [],
      "stateMutability": "nonpayable",
      "type": "function"
    },
    {
      "inputs": [
        {
          "internalType": "uint256",
          "name": "tokenId",
          "type": "uint256"
        },
        {
          "internalType": "string",
          "name": "uri",
          "type": "string"
        }
      ],
      "name": "setTokenUri",
      "outputs": [],
      "stateMutability": "nonpayable",
      "type": "function"
    },
    {
      "inputs": [],
      "name": "setURIs",
      "outputs": [],
      "stateMutability": "nonpayable",
      "type": "function"
    },
    {
      "inputs": [
        {
          "internalType": "bytes4",
          "name": "interfaceId",
          "type": "bytes4"
        }
      ],
      "name": "supportsInterface",
      "outputs": [
        {
          "internalType": "bool",
          "name": "",
          "type": "bool"
        }
      ],
      "stateMutability": "view",
      "type": "function"
    },
    {
      "inputs": [
        {
          "internalType": "address",
          "name": "from",
          "type": "address"
        },
        {
          "internalType": "address",
          "name": "to",
          "type": "address"
        },
        {
          "internalType": "uint256",
          "name": "amount",
          "type": "uint256"
        },
        {
          "internalType": "bytes",
          "name": "data",
          "type": "bytes"
        }
      ],
      "name": "transferCurrency",
      "outputs": [],
      "stateMutability": "nonpayable",
      "type": "function"
    },
    {
      "inputs": [
        {
          "internalType": "address",
          "name": "newOwner",
          "type": "address"
        }
      ],
      "name": "transferOwnership",
      "outputs": [],
      "stateMutability": "nonpayable",
      "type": "function"
    },
    {
      "inputs": [
        {
          "internalType": "uint256",
          "name": "tokenId",
          "type": "uint256"
        }
      ],
      "name": "uri",
      "outputs": [
        {
          "internalType": "string",
          "name": "",
          "type": "string"
        }
      ],
      "stateMutability": "view",
      "type": "function"
    }
  ],
  "bytecode": "0x6080604052612710600f556001601060006101000a81548160ff0219169083151502179055506005546011556011546012556040518060400160405280601581526020017f68747470733a2f2f697066732e696f2f697066732f0000000000000000000000815250601690805190602001906200007e929190620003b1565b506040518060200160405280600081525060199080519060200190620000a6929190620003b1565b50348015620000b457600080fd5b5060405162005d0938038062005d098339818101604052810190620000da9190620004f6565b60405180602001604052806000815250620000fb81620001fb60201b60201c565b506200011c620001106200021760201b60201c565b6200021f60201b60201c565b620001676040518060400160405280601281526020017f4d616b696e6720636f6e74726163742e2e2e0000000000000000000000000000815250620002e560201b62001cac1760201c565b8a6005819055508960068190555088600781905550876008819055508660098190555085600a8190555084600b8190555083600c9080519060200190620001b0929190620003b1565b5082600d9080519060200190620001c9929190620003b1565b5081600e9080519060200190620001e2929190620003b1565b5080600f81905550505050505050505050505062000889565b806002908051906020019062000213929190620003b1565b5050565b600033905090565b6000600360009054906101000a900473ffffffffffffffffffffffffffffffffffffffff16905081600360006101000a81548173ffffffffffffffffffffffffffffffffffffffff021916908373ffffffffffffffffffffffffffffffffffffffff1602179055508173ffffffffffffffffffffffffffffffffffffffff168173ffffffffffffffffffffffffffffffffffffffff167f8be0079c531659141344cd1fd0a4f28419497f9722a3daafe3b4186f6b6457e060405160405180910390a35050565b6200038581604051602401620002fc9190620006a1565b6040516020818303038152906040527f41304fac000000000000000000000000000000000000000000000000000000007bffffffffffffffffffffffffffffffffffffffffffffffffffffffff19166020820180517bffffffffffffffffffffffffffffffffffffffffffffffffffffffff83818316178352505050506200038860201b60201c565b50565b60008151905060006a636f6e736f6c652e6c6f679050602083016000808483855afa5050505050565b828054620003bf9062000780565b90600052602060002090601f016020900481019282620003e357600085556200042f565b82601f10620003fe57805160ff19168380011785556200042f565b828001600101855582156200042f579182015b828111156200042e57825182559160200191906001019062000411565b5b5090506200043e919062000442565b5090565b5b808211156200045d57600081600090555060010162000443565b5090565b6000620004786200047284620006ee565b620006c5565b9050828152602081018484840111156200049757620004966200084f565b5b620004a48482856200074a565b509392505050565b600082601f830112620004c457620004c36200084a565b5b8151620004d684826020860162000461565b91505092915050565b600081519050620004f0816200086f565b92915050565b60008060008060008060008060008060006101608c8e0312156200051f576200051e62000859565b5b60006200052f8e828f01620004df565b9b50506020620005428e828f01620004df565b9a50506040620005558e828f01620004df565b9950506060620005688e828f01620004df565b98505060806200057b8e828f01620004df565b97505060a06200058e8e828f01620004df565b96505060c0620005a18e828f01620004df565b95505060e08c015167ffffffffffffffff811115620005c557620005c462000854565b5b620005d38e828f01620004ac565b9450506101008c015167ffffffffffffffff811115620005f857620005f762000854565b5b620006068e828f01620004ac565b9350506101208c015167ffffffffffffffff8111156200062b576200062a62000854565b5b620006398e828f01620004ac565b9250506101406200064d8e828f01620004df565b9150509295989b509295989b9093969950565b60006200066d8262000724565b6200067981856200072f565b93506200068b8185602086016200074a565b62000696816200085e565b840191505092915050565b60006020820190508181036000830152620006bd818462000660565b905092915050565b6000620006d1620006e4565b9050620006df8282620007b6565b919050565b6000604051905090565b600067ffffffffffffffff8211156200070c576200070b6200081b565b5b62000717826200085e565b9050602081019050919050565b600081519050919050565b600082825260208201905092915050565b6000819050919050565b60005b838110156200076a5780820151818401526020810190506200074d565b838111156200077a576000848401525b50505050565b600060028204905060018216806200079957607f821691505b60208210811415620007b057620007af620007ec565b5b50919050565b620007c1826200085e565b810181811067ffffffffffffffff82111715620007e357620007e26200081b565b5b80604052505050565b7f4e487b7100000000000000000000000000000000000000000000000000000000600052602260045260246000fd5b7f4e487b7100000000000000000000000000000000000000000000000000000000600052604160045260246000fd5b600080fd5b600080fd5b600080fd5b600080fd5b6000601f19601f8301169050919050565b6200087a8162000740565b81146200088657600080fd5b50565b61547080620008996000396000f3fe608060405234801561001057600080fd5b50600436106101d95760003560e01c80635d2db2bf11610104578063a22cb465116100a2578063e985e9c511610071578063e985e9c514610470578063e9866550146104a0578063f242432a146104aa578063f2fde38b146104c6576101d9565b8063a22cb46514610410578063bbb13e171461042c578063be59ec2614610436578063db0f53b014610454576101d9565b80637d17fcbe116100de5780637d17fcbe146103c057806382a3bf3d146103ca5780638da5cb5b146103e85780639ebf488b14610406576101d9565b80635d2db2bf146103a2578063715018a6146103ac57806375223f92146103b6576101d9565b806318e20a381161017c5780633c1d4a991161014b5780633c1d4a991461032e5780634e1273f41461034c5780634f3551d71461037c57806357f7789e14610386576101d9565b806318e20a38146102ce57806319b60439146102ec57806319bfbb9e146102f65780632eb2c2d614610312576101d9565b80631072b91f116101b85780631072b91f1461026e578063109695231461028a57806313dc2db2146102a6578063143cc144146102b0576101d9565b8062fdd58e146101de57806301ffc9a71461020e5780630e89341c1461023e575b600080fd5b6101f860048036038101906101f3919061384e565b6104e2565b6040516102059190614561565b60405180910390f35b61022860048036038101906102239190613906565b6105ab565b60405161023591906141ad565b60405180910390f35b610258600480360381019061025391906139a9565b61068d565b60405161026591906141f8565b60405180910390f35b610288600480360381019061028391906139a9565b610732565b005b6102a4600480360381019061029f9190613960565b610769565b005b6102ae6107ff565b005b6102b8610958565b6040516102c59190614561565b60405180910390f35b6102d66109de565b6040516102e39190614561565b60405180910390f35b6102f46109e4565b005b610310600480360381019061030b91906136f4565b610a8c565b005b61032c60048036038101906103279190613625565b610aa0565b005b610336610b41565b6040516103439190614139565b60405180910390f35b6103666004803603810190610361919061388e565b610c08565b6040516103739190614154565b60405180910390f35b610384610d21565b005b6103a0600480360381019061039b91906139d6565b610e2a565b005b6103aa610f34565b005b6103b4611232565b005b6103be6112ba565b005b6103c8611367565b005b6103d2611431565b6040516103df9190614561565b60405180910390f35b6103f061162a565b6040516103fd9190614033565b60405180910390f35b61040e611654565b005b61042a6004803603810190610425919061380e565b61175d565b005b610434611773565b005b61043e611866565b60405161044b91906141ad565b60405180910390f35b61046e600480360381019061046991906135b8565b611879565b005b61048a600480360381019061048591906135e5565b6119a8565b60405161049791906141ad565b60405180910390f35b6104a8611a3c565b005b6104c460048036038101906104bf9190613777565b611b13565b005b6104e060048036038101906104db91906135b8565b611bb4565b005b60008073ffffffffffffffffffffffffffffffffffffffff168373ffffffffffffffffffffffffffffffffffffffff161415610553576040517f08c379a000000000000000000000000000000000000000000000000000000000815260040161054a906142e1565b60405180910390fd5b60008083815260200190815260200160002060008473ffffffffffffffffffffffffffffffffffffffff1673ffffffffffffffffffffffffffffffffffffffff16815260200190815260200160002054905092915050565b60007fd9b67a26000000000000000000000000000000000000000000000000000000007bffffffffffffffffffffffffffffffffffffffffffffffffffffffff1916827bffffffffffffffffffffffffffffffffffffffffffffffffffffffff1916148061067657507f0e89341c000000000000000000000000000000000000000000000000000000007bffffffffffffffffffffffffffffffffffffffffffffffffffffffff1916827bffffffffffffffffffffffffffffffffffffffffffffffffffffffff1916145b80610686575061068582611d45565b5b9050919050565b60606023600083815260200190815260200160002080546106ad90614a96565b80601f01602080910402602001604051908101604052809291908181526020018280546106d990614a96565b80156107265780601f106106fb57610100808354040283529160200191610726565b820191906000526020600020905b81548152906001019060200180831161070957829003601f168201915b50505050509050919050565b600061073e6004611daf565b905061075b33828460405180602001604052806000815250611dbd565b6107656004611f53565b5050565b610771611f69565b73ffffffffffffffffffffffffffffffffffffffff1661078f61162a565b73ffffffffffffffffffffffffffffffffffffffff16146107e5576040517f08c379a00000000000000000000000000000000000000000000000000000000081526004016107dc90614441565b60405180910390fd5b80601990805190602001906107fb92919061326e565b5050565b610807611f69565b73ffffffffffffffffffffffffffffffffffffffff1661082561162a565b73ffffffffffffffffffffffffffffffffffffffff161461087b576040517f08c379a000000000000000000000000000000000000000000000000000000000815260040161087290614441565b60405180910390fd5b6000600190505b60058111610955576000610894611431565b90506108f86040518060400160405280600c81526020017f4e657720696e64657820697300000000000000000000000000000000000000008152506001600a856108de9190614945565b6108e8919061499f565b836108f39190614b42565b611f71565b6001600a836109079190614945565b610911919061499f565b8161091c9190614b42565b601a60018461092b919061499f565b6005811061093c5761093b614c00565b5b018190555050808061094d90614af9565b915050610882565b50565b6000610962611f69565b73ffffffffffffffffffffffffffffffffffffffff1661098061162a565b73ffffffffffffffffffffffffffffffffffffffff16146109d6576040517f08c379a00000000000000000000000000000000000000000000000000000000081526004016109cd90614441565b60405180910390fd5b600654905090565b600f5481565b6109ec611f69565b73ffffffffffffffffffffffffffffffffffffffff16610a0a61162a565b73ffffffffffffffffffffffffffffffffffffffff1614610a60576040517f08c379a0000000000000000000000000000000000000000000000000000000008152600401610a5790614441565b60405180910390fd5b601060009054906101000a900460ff1615601060006101000a81548160ff021916908315150217905550565b610a9a848460008585611b13565b50505050565b610aa8611f69565b73ffffffffffffffffffffffffffffffffffffffff168573ffffffffffffffffffffffffffffffffffffffff161480610aee5750610aed85610ae8611f69565b6119a8565b5b610b2d576040517f08c379a0000000000000000000000000000000000000000000000000000000008152600401610b24906143c1565b60405180910390fd5b610b3a858585858561200d565b5050505050565b610b496132f4565b610b51611f69565b73ffffffffffffffffffffffffffffffffffffffff16610b6f61162a565b73ffffffffffffffffffffffffffffffffffffffff1614610bc5576040517f08c379a0000000000000000000000000000000000000000000000000000000008152600401610bbc90614441565b60405180910390fd5b601a600580602002604051908101604052809291908260058015610bfe576020028201915b815481526020019060010190808311610bea575b5050505050905090565b60608151835114610c4e576040517f08c379a0000000000000000000000000000000000000000000000000000000008152600401610c4590614501565b60405180910390fd5b6000835167ffffffffffffffff811115610c6b57610c6a614c2f565b5b604051908082528060200260200182016040528015610c995781602001602082028036833780820191505090505b50905060005b8451811015610d1657610ce6858281518110610cbe57610cbd614c00565b5b6020026020010151858381518110610cd957610cd8614c00565b5b60200260200101516104e2565b828281518110610cf957610cf8614c00565b5b60200260200101818152505080610d0f90614af9565b9050610c9f565b508091505092915050565b600b5460145410610d67576040517f08c379a0000000000000000000000000000000000000000000000000000000008152600401610d5e90614481565b60405180910390fd5b6001610d75336011546104e2565b10610db5576040517f08c379a0000000000000000000000000000000000000000000000000000000008152600401610dac906144c1565b60405180910390fd5b610dd333601254600160405180602001604052806000815250611dbd565b600160146000828254610de6919061474d565b925050819055507f2e0f4d63dcc00e6a11c8aef9f6e15c1f9cd6e9a090b2dd99c7b797f1a28d300d33601454604051610e20929190614110565b60405180910390a1565b610e32611f69565b73ffffffffffffffffffffffffffffffffffffffff16610e5061162a565b73ffffffffffffffffffffffffffffffffffffffff1614610ea6576040517f08c379a0000000000000000000000000000000000000000000000000000000008152600401610e9d90614441565b60405180910390fd5b6000602360008481526020019081526020016000208054610ec690614a96565b905014610f08576040517f08c379a0000000000000000000000000000000000000000000000000000000008152600401610eff906143e1565b60405180910390fd5b80602360008481526020019081526020016000209080519060200190610f2f92919061326e565b505050565b610f3c611f69565b73ffffffffffffffffffffffffffffffffffffffff16610f5a61162a565b73ffffffffffffffffffffffffffffffffffffffff1614610fb0576040517f08c379a0000000000000000000000000000000000000000000000000000000008152600401610fa790614441565b60405180910390fd5b60005b6005548110156111bf57610ffe6040518060400160405280601281526020017f5374617274696e6720696e646578206973200000000000000000000000000000815250601854611f71565b61103f6040518060400160405280600c81526020017f6e756d206174686c657465730000000000000000000000000000000000000000815250600554611f71565b600060055482601854611052919061474d565b61105c9190614b42565b905061109d6040518060400160405280600b81526020017f6d696e7420696e6465782000000000000000000000000000000000000000000081525082611f71565b6110d181600c6110ac84612321565b6040516020016110bd929190614004565b604051602081830303815290604052610e2a565b6111ab6040518060400160405280600881526020017f4e6577205552492000000000000000000000000000000000000000000000000081525060236000848152602001908152602001600020805461112890614a96565b80601f016020809104026020016040519081016040528092919081815260200182805461115490614a96565b80156111a15780601f10611176576101008083540402835291602001916111a1565b820191906000526020600020905b81548152906001019060200180831161118457829003601f168201915b5050505050612482565b5080806111b790614af9565b915050610fb3565b506111f860016005546111d2919061474d565b600d6040516020016111e49190613fed565b604051602081830303815290604052610e2a565b611230600260055461120a919061474d565b600e60405160200161121c9190613fed565b604051602081830303815290604052610e2a565b565b61123a611f69565b73ffffffffffffffffffffffffffffffffffffffff1661125861162a565b73ffffffffffffffffffffffffffffffffffffffff16146112ae576040517f08c379a00000000000000000000000000000000000000000000000000000000081526004016112a590614441565b60405180910390fd5b6112b8600061251e565b565b601060009054906101000a900460ff16611309576040517f08c379a0000000000000000000000000000000000000000000000000000000008152600401611300906144a1565b60405180910390fd5b6000611317336012546104e2565b11611357576040517f08c379a000000000000000000000000000000000000000000000000000000000815260040161134e906142c1565b60405180910390fd5b6113653360125460016125e4565b565b61136f611f69565b73ffffffffffffffffffffffffffffffffffffffff1661138d61162a565b73ffffffffffffffffffffffffffffffffffffffff16146113e3576040517f08c379a00000000000000000000000000000000000000000000000000000000081526004016113da90614441565b60405180910390fd5b600060185414611428576040517f08c379a000000000000000000000000000000000000000000000000000000000815260040161141f90614381565b60405180910390fd5b43601781905550565b600061143b611f69565b73ffffffffffffffffffffffffffffffffffffffff1661145961162a565b73ffffffffffffffffffffffffffffffffffffffff16146114af576040517f08c379a00000000000000000000000000000000000000000000000000000000081526004016114a690614441565b60405180910390fd5b6000601a6000600581106114c6576114c5614c00565b5b01541480156114eb57506000601a6001600581106114e7576114e6614c00565b5b0154145b801561150d57506000601a60026005811061150957611508614c00565b5b0154145b801561152f57506000601a60036005811061152b5761152a614c00565b5b0154145b801561155157506000601a60046005811061154d5761154c614c00565b5b0154145b15611560576018549050611627565b600080600090505b6005811015611621576002601a826005811061158757611586614c00565b5b01546115939190614827565b8261159e919061474d565b915060008214156115b3576115b1611431565b505b600160056115c1919061499f565b811480156115e557506000601a82600581106115e0576115df614c00565b5b015414155b1561160e57601a81600581106115fe576115fd614c00565b5b01548261160b91906147a3565b91505b808061161990614af9565b915050611568565b50809150505b90565b6000600360009054906101000a900473ffffffffffffffffffffffffffffffffffffffff16905090565b600b546013541061169a576040517f08c379a000000000000000000000000000000000000000000000000000000000815260040161169190614481565b60405180910390fd5b60016116a8336011546104e2565b106116e8576040517f08c379a00000000000000000000000000000000000000000000000000000000081526004016116df906144c1565b60405180910390fd5b61170633601154600160405180602001604052806000815250611dbd565b600160136000828254611719919061474d565b925050819055507f2e0f4d63dcc00e6a11c8aef9f6e15c1f9cd6e9a090b2dd99c7b797f1a28d300d33601354604051611753929190614110565b60405180910390a1565b61176f611768611f69565b8383612801565b5050565b601060009054906101000a900460ff166117c2576040517f08c379a00000000000000000000000000000000000000000000000000000000081526004016117b9906144a1565b60405180910390fd5b60016117d0336011546104e2565b14611810576040517f08c379a000000000000000000000000000000000000000000000000000000000815260040161180790614461565b60405180910390fd5b6118186107ff565b60005b600581101561185557611842601a826005811061183b5761183a614c00565b5b015461296e565b808061184d90614af9565b91505061181b565b506118643360115460016125e4565b565b601060009054906101000a900460ff1681565b6000808273ffffffffffffffffffffffffffffffffffffffff166040516024016040516020818303038152906040527f892e5b4e000000000000000000000000000000000000000000000000000000007bffffffffffffffffffffffffffffffffffffffffffffffffffffffff19166020820180517bffffffffffffffffffffffffffffffffffffffffffffffffffffffff83818316178352505050506040516119239190613fd6565b6000604051808303816000865af19150503d8060008114611960576040519150601f19603f3d011682016040523d82523d6000602084013e611965565b606091505b50915091507f13848c3e38f8886f3f5d2ad9dff80d8092c2bbb8efd5b887a99c2c6cfc09ac2a828260405161199b9291906141c8565b60405180910390a1505050565b6000600160008473ffffffffffffffffffffffffffffffffffffffff1673ffffffffffffffffffffffffffffffffffffffff16815260200190815260200160002060008373ffffffffffffffffffffffffffffffffffffffff1673ffffffffffffffffffffffffffffffffffffffff16815260200190815260200160002060009054906101000a900460ff16905092915050565b611a44611f69565b73ffffffffffffffffffffffffffffffffffffffff16611a6261162a565b73ffffffffffffffffffffffffffffffffffffffff1614611ab8576040517f08c379a0000000000000000000000000000000000000000000000000000000008152600401611aaf90614441565b60405180910390fd5b600654600554611ac89190614945565b600143611ad5919061499f565b4060001c611ae39190614b42565b60188190555060006018541415611b1157611b0a6001601854612b4a90919063ffffffff16565b6018819055505b565b611b1b611f69565b73ffffffffffffffffffffffffffffffffffffffff168573ffffffffffffffffffffffffffffffffffffffff161480611b615750611b6085611b5b611f69565b6119a8565b5b611ba0576040517f08c379a0000000000000000000000000000000000000000000000000000000008152600401611b9790614341565b60405180910390fd5b611bad8585858585612b60565b5050505050565b611bbc611f69565b73ffffffffffffffffffffffffffffffffffffffff16611bda61162a565b73ffffffffffffffffffffffffffffffffffffffff1614611c30576040517f08c379a0000000000000000000000000000000000000000000000000000000008152600401611c2790614441565b60405180910390fd5b600073ffffffffffffffffffffffffffffffffffffffff168173ffffffffffffffffffffffffffffffffffffffff161415611ca0576040517f08c379a0000000000000000000000000000000000000000000000000000000008152600401611c9790614301565b60405180910390fd5b611ca98161251e565b50565b611d4281604051602401611cc091906141f8565b6040516020818303038152906040527f41304fac000000000000000000000000000000000000000000000000000000007bffffffffffffffffffffffffffffffffffffffffffffffffffffffff19166020820180517bffffffffffffffffffffffffffffffffffffffffffffffffffffffff8381831617835250505050612de2565b50565b60007f01ffc9a7000000000000000000000000000000000000000000000000000000007bffffffffffffffffffffffffffffffffffffffffffffffffffffffff1916827bffffffffffffffffffffffffffffffffffffffffffffffffffffffff1916149050919050565b600081600001549050919050565b600073ffffffffffffffffffffffffffffffffffffffff168473ffffffffffffffffffffffffffffffffffffffff161415611e2d576040517f08c379a0000000000000000000000000000000000000000000000000000000008152600401611e2490614541565b60405180910390fd5b6000611e37611f69565b9050611e5881600087611e4988612e0b565b611e5288612e0b565b87612e85565b8260008086815260200190815260200160002060008773ffffffffffffffffffffffffffffffffffffffff1673ffffffffffffffffffffffffffffffffffffffff1681526020019081526020016000206000828254611eb7919061474d565b925050819055508473ffffffffffffffffffffffffffffffffffffffff16600073ffffffffffffffffffffffffffffffffffffffff168273ffffffffffffffffffffffffffffffffffffffff167fc3d58168c5ae7397731d063d5bbf3d657854427343f4c083240f7aacaa2d0f628787604051611f3592919061457c565b60405180910390a4611f4c81600087878787612e8d565b5050505050565b6001816000016000828254019250508190555050565b600033905090565b6120098282604051602401611f87929190614251565b6040516020818303038152906040527f9710a9d0000000000000000000000000000000000000000000000000000000007bffffffffffffffffffffffffffffffffffffffffffffffffffffffff19166020820180517bffffffffffffffffffffffffffffffffffffffffffffffffffffffff8381831617835250505050612de2565b5050565b8151835114612051576040517f08c379a000000000000000000000000000000000000000000000000000000000815260040161204890614521565b60405180910390fd5b600073ffffffffffffffffffffffffffffffffffffffff168473ffffffffffffffffffffffffffffffffffffffff1614156120c1576040517f08c379a00000000000000000000000000000000000000000000000000000000081526004016120b8906143a1565b60405180910390fd5b60006120cb611f69565b90506120db818787878787612e85565b60005b845181101561228c5760008582815181106120fc576120fb614c00565b5b60200260200101519050600085838151811061211b5761211a614c00565b5b60200260200101519050600080600084815260200190815260200160002060008b73ffffffffffffffffffffffffffffffffffffffff1673ffffffffffffffffffffffffffffffffffffffff168152602001908152602001600020549050818110156121bc576040517f08c379a00000000000000000000000000000000000000000000000000000000081526004016121b390614421565b60405180910390fd5b81810360008085815260200190815260200160002060008c73ffffffffffffffffffffffffffffffffffffffff1673ffffffffffffffffffffffffffffffffffffffff168152602001908152602001600020819055508160008085815260200190815260200160002060008b73ffffffffffffffffffffffffffffffffffffffff1673ffffffffffffffffffffffffffffffffffffffff1681526020019081526020016000206000828254612271919061474d565b925050819055505050508061228590614af9565b90506120de565b508473ffffffffffffffffffffffffffffffffffffffff168673ffffffffffffffffffffffffffffffffffffffff168273ffffffffffffffffffffffffffffffffffffffff167f4a39dc06d4c0dbc64b70af90fd698a233a518aa5d07e595d983b8c0526c8f7fb8787604051612303929190614176565b60405180910390a4612319818787878787613074565b505050505050565b60606000821415612369576040518060400160405280600181526020017f3000000000000000000000000000000000000000000000000000000000000000815250905061247d565b600082905060005b6000821461239b57808061238490614af9565b915050600a8261239491906147a3565b9150612371565b60008167ffffffffffffffff8111156123b7576123b6614c2f565b5b6040519080825280601f01601f1916602001820160405280156123e95781602001600182028036833780820191505090505b5090505b6000851461247657600182612402919061499f565b9150600a856124119190614b42565b603061241d919061474d565b60f81b81838151811061243357612432614c00565b5b60200101907effffffffffffffffffffffffffffffffffffffffffffffffffffffffffffff1916908160001a905350600a8561246f91906147a3565b94506123ed565b8093505050505b919050565b61251a828260405160240161249892919061421a565b6040516020818303038152906040527f4b5c4277000000000000000000000000000000000000000000000000000000007bffffffffffffffffffffffffffffffffffffffffffffffffffffffff19166020820180517bffffffffffffffffffffffffffffffffffffffffffffffffffffffff8381831617835250505050612de2565b5050565b6000600360009054906101000a900473ffffffffffffffffffffffffffffffffffffffff16905081600360006101000a81548173ffffffffffffffffffffffffffffffffffffffff021916908373ffffffffffffffffffffffffffffffffffffffff1602179055508173ffffffffffffffffffffffffffffffffffffffff168173ffffffffffffffffffffffffffffffffffffffff167f8be0079c531659141344cd1fd0a4f28419497f9722a3daafe3b4186f6b6457e060405160405180910390a35050565b600073ffffffffffffffffffffffffffffffffffffffff168373ffffffffffffffffffffffffffffffffffffffff161415612654576040517f08c379a000000000000000000000000000000000000000000000000000000000815260040161264b90614401565b60405180910390fd5b600061265e611f69565b905061268e8185600061267087612e0b565b61267987612e0b565b60405180602001604052806000815250612e85565b600080600085815260200190815260200160002060008673ffffffffffffffffffffffffffffffffffffffff1673ffffffffffffffffffffffffffffffffffffffff16815260200190815260200160002054905082811015612725576040517f08c379a000000000000000000000000000000000000000000000000000000000815260040161271c90614321565b60405180910390fd5b82810360008086815260200190815260200160002060008773ffffffffffffffffffffffffffffffffffffffff1673ffffffffffffffffffffffffffffffffffffffff16815260200190815260200160002081905550600073ffffffffffffffffffffffffffffffffffffffff168573ffffffffffffffffffffffffffffffffffffffff168373ffffffffffffffffffffffffffffffffffffffff167fc3d58168c5ae7397731d063d5bbf3d657854427343f4c083240f7aacaa2d0f6287876040516127f292919061457c565b60405180910390a45050505050565b8173ffffffffffffffffffffffffffffffffffffffff168373ffffffffffffffffffffffffffffffffffffffff161415612870576040517f08c379a0000000000000000000000000000000000000000000000000000000008152600401612867906144e1565b60405180910390fd5b80600160008573ffffffffffffffffffffffffffffffffffffffff1673ffffffffffffffffffffffffffffffffffffffff16815260200190815260200160002060008473ffffffffffffffffffffffffffffffffffffffff1673ffffffffffffffffffffffffffffffffffffffff16815260200190815260200160002060006101000a81548160ff0219169083151502179055508173ffffffffffffffffffffffffffffffffffffffff168373ffffffffffffffffffffffffffffffffffffffff167f17307eab39ab6107e8899845ad3d59bd9653f200f220920489ca2b5937696c318360405161296191906141ad565b60405180910390a3505050565b6000600554601554601854612983919061474d565b61298d9190614b42565b90506129d06040518060400160405280600e81526020017f5374617274696e6720696e646578000000000000000000000000000000000000815250601854611f71565b612a0f6040518060400160405280600e81526020017f4f6c64206d696e7420696e64657800000000000000000000000000000000000081525082611f71565b612a4e6040518060400160405280600e81526020017f4e6577206d696e7420696e64657800000000000000000000000000000000000081525083611f71565b600654600554612a5e9190614945565b6015541015612b4657600654602460008481526020019081526020016000205410612abe576040517f08c379a0000000000000000000000000000000000000000000000000000000008152600401612ab590614361565b60405180910390fd5b612b00338360016040518060400160405280600481526020017f3078303000000000000000000000000000000000000000000000000000000000815250611dbd565b6001602460008481526020019081526020016000206000828254612b24919061474d565b92505081905550600160156000828254612b3e919061474d565b925050819055505b5050565b60008183612b58919061474d565b905092915050565b600073ffffffffffffffffffffffffffffffffffffffff168473ffffffffffffffffffffffffffffffffffffffff161415612bd0576040517f08c379a0000000000000000000000000000000000000000000000000000000008152600401612bc7906143a1565b60405180910390fd5b6000612bda611f69565b9050612bfa818787612beb88612e0b565b612bf488612e0b565b87612e85565b600080600086815260200190815260200160002060008873ffffffffffffffffffffffffffffffffffffffff1673ffffffffffffffffffffffffffffffffffffffff16815260200190815260200160002054905083811015612c91576040517f08c379a0000000000000000000000000000000000000000000000000000000008152600401612c8890614421565b60405180910390fd5b83810360008087815260200190815260200160002060008973ffffffffffffffffffffffffffffffffffffffff1673ffffffffffffffffffffffffffffffffffffffff168152602001908152602001600020819055508360008087815260200190815260200160002060008873ffffffffffffffffffffffffffffffffffffffff1673ffffffffffffffffffffffffffffffffffffffff1681526020019081526020016000206000828254612d46919061474d565b925050819055508573ffffffffffffffffffffffffffffffffffffffff168773ffffffffffffffffffffffffffffffffffffffff168373ffffffffffffffffffffffffffffffffffffffff167fc3d58168c5ae7397731d063d5bbf3d657854427343f4c083240f7aacaa2d0f628888604051612dc392919061457c565b60405180910390a4612dd9828888888888612e8d565b50505050505050565b60008151905060006a636f6e736f6c652e6c6f679050602083016000808483855afa5050505050565b60606000600167ffffffffffffffff811115612e2a57612e29614c2f565b5b604051908082528060200260200182016040528015612e585781602001602082028036833780820191505090505b5090508281600081518110612e7057612e6f614c00565b5b60200260200101818152505080915050919050565b505050505050565b612eac8473ffffffffffffffffffffffffffffffffffffffff1661325b565b1561306c578373ffffffffffffffffffffffffffffffffffffffff1663f23a6e6187878686866040518663ffffffff1660e01b8152600401612ef29594939291906140b6565b602060405180830381600087803b158015612f0c57600080fd5b505af1925050508015612f3d57506040513d601f19601f82011682018060405250810190612f3a9190613933565b60015b612fe357612f49614c5e565b806308c379a01415612fa65750612f5e615348565b80612f695750612fa8565b806040517f08c379a0000000000000000000000000000000000000000000000000000000008152600401612f9d91906141f8565b60405180910390fd5b505b6040517f08c379a0000000000000000000000000000000000000000000000000000000008152600401612fda90614281565b60405180910390fd5b63f23a6e6160e01b7bffffffffffffffffffffffffffffffffffffffffffffffffffffffff1916817bffffffffffffffffffffffffffffffffffffffffffffffffffffffff19161461306a576040517f08c379a0000000000000000000000000000000000000000000000000000000008152600401613061906142a1565b60405180910390fd5b505b505050505050565b6130938473ffffffffffffffffffffffffffffffffffffffff1661325b565b15613253578373ffffffffffffffffffffffffffffffffffffffff1663bc197c8187878686866040518663ffffffff1660e01b81526004016130d995949392919061404e565b602060405180830381600087803b1580156130f357600080fd5b505af192505050801561312457506040513d601f19601f820116820180604052508101906131219190613933565b60015b6131ca57613130614c5e565b806308c379a0141561318d5750613145615348565b80613150575061318f565b806040517f08c379a000000000000000000000000000000000000000000000000000000000815260040161318491906141f8565b60405180910390fd5b505b6040517f08c379a00000000000000000000000000000000000000000000000000000000081526004016131c190614281565b60405180910390fd5b63bc197c8160e01b7bffffffffffffffffffffffffffffffffffffffffffffffffffffffff1916817bffffffffffffffffffffffffffffffffffffffffffffffffffffffff191614613251576040517f08c379a0000000000000000000000000000000000000000000000000000000008152600401613248906142a1565b60405180910390fd5b505b505050505050565b600080823b905060008111915050919050565b82805461327a90614a96565b90600052602060002090601f01602090048101928261329c57600085556132e3565b82601f106132b557805160ff19168380011785556132e3565b828001600101855582156132e3579182015b828111156132e25782518255916020019190600101906132c7565b5b5090506132f09190613316565b5090565b6040518060a00160405280600590602082028036833780820191505090505090565b5b8082111561332f576000816000905550600101613317565b5090565b6000613346613341846145ca565b6145a5565b9050808382526020820190508285602086028201111561336957613368614c85565b5b60005b85811015613399578161337f8882613497565b84526020840193506020830192505060018101905061336c565b5050509392505050565b60006133b66133b1846145f6565b6145a5565b905080838252602082019050828560208602820111156133d9576133d8614c85565b5b60005b8581101561340957816133ef88826135a3565b8452602084019350602083019250506001810190506133dc565b5050509392505050565b600061342661342184614622565b6145a5565b90508281526020810184848401111561344257613441614c8a565b5b61344d848285614a54565b509392505050565b600061346861346384614653565b6145a5565b90508281526020810184848401111561348457613483614c8a565b5b61348f848285614a54565b509392505050565b6000813590506134a6816153de565b92915050565b600082601f8301126134c1576134c0614c80565b5b81356134d1848260208601613333565b91505092915050565b600082601f8301126134ef576134ee614c80565b5b81356134ff8482602086016133a3565b91505092915050565b600081359050613517816153f5565b92915050565b60008135905061352c8161540c565b92915050565b6000815190506135418161540c565b92915050565b600082601f83011261355c5761355b614c80565b5b813561356c848260208601613413565b91505092915050565b600082601f83011261358a57613589614c80565b5b813561359a848260208601613455565b91505092915050565b6000813590506135b281615423565b92915050565b6000602082840312156135ce576135cd614c94565b5b60006135dc84828501613497565b91505092915050565b600080604083850312156135fc576135fb614c94565b5b600061360a85828601613497565b925050602061361b85828601613497565b9150509250929050565b600080600080600060a0868803121561364157613640614c94565b5b600061364f88828901613497565b955050602061366088828901613497565b945050604086013567ffffffffffffffff81111561368157613680614c8f565b5b61368d888289016134da565b935050606086013567ffffffffffffffff8111156136ae576136ad614c8f565b5b6136ba888289016134da565b925050608086013567ffffffffffffffff8111156136db576136da614c8f565b5b6136e788828901613547565b9150509295509295909350565b6000806000806080858703121561370e5761370d614c94565b5b600061371c87828801613497565b945050602061372d87828801613497565b935050604061373e878288016135a3565b925050606085013567ffffffffffffffff81111561375f5761375e614c8f565b5b61376b87828801613547565b91505092959194509250565b600080600080600060a0868803121561379357613792614c94565b5b60006137a188828901613497565b95505060206137b288828901613497565b94505060406137c3888289016135a3565b93505060606137d4888289016135a3565b925050608086013567ffffffffffffffff8111156137f5576137f4614c8f565b5b61380188828901613547565b9150509295509295909350565b6000806040838503121561382557613824614c94565b5b600061383385828601613497565b925050602061384485828601613508565b9150509250929050565b6000806040838503121561386557613864614c94565b5b600061387385828601613497565b9250506020613884858286016135a3565b9150509250929050565b600080604083850312156138a5576138a4614c94565b5b600083013567ffffffffffffffff8111156138c3576138c2614c8f565b5b6138cf858286016134ac565b925050602083013567ffffffffffffffff8111156138f0576138ef614c8f565b5b6138fc858286016134da565b9150509250929050565b60006020828403121561391c5761391b614c94565b5b600061392a8482850161351d565b91505092915050565b60006020828403121561394957613948614c94565b5b600061395784828501613532565b91505092915050565b60006020828403121561397657613975614c94565b5b600082013567ffffffffffffffff81111561399457613993614c8f565b5b6139a084828501613575565b91505092915050565b6000602082840312156139bf576139be614c94565b5b60006139cd848285016135a3565b91505092915050565b600080604083850312156139ed576139ec614c94565b5b60006139fb858286016135a3565b925050602083013567ffffffffffffffff811115613a1c57613a1b614c8f565b5b613a2885828601613575565b9150509250929050565b6000613a3e8383613fb8565b60208301905092915050565b613a53816149d3565b82525050565b613a62816146b3565b613a6c81846146f9565b9250613a7782614684565b8060005b83811015613aa8578151613a8f8782613a32565b9650613a9a836146df565b925050600181019050613a7b565b505050505050565b6000613abb826146be565b613ac58185614704565b9350613ad08361468e565b8060005b83811015613b01578151613ae88882613a32565b9750613af3836146ec565b925050600181019050613ad4565b5085935050505092915050565b613b17816149e5565b82525050565b6000613b28826146c9565b613b328185614715565b9350613b42818560208601614a63565b613b4b81614c99565b840191505092915050565b6000613b61826146c9565b613b6b8185614726565b9350613b7b818560208601614a63565b80840191505092915050565b6000613b92826146d4565b613b9c8185614731565b9350613bac818560208601614a63565b613bb581614c99565b840191505092915050565b6000613bcb826146d4565b613bd58185614742565b9350613be5818560208601614a63565b80840191505092915050565b60008154613bfe81614a96565b613c088186614742565b94506001821660008114613c235760018114613c3457613c67565b60ff19831686528186019350613c67565b613c3d8561469e565b60005b83811015613c5f57815481890152600182019150602081019050613c40565b838801955050505b50505092915050565b6000613c7d603483614731565b9150613c8882614cc4565b604082019050919050565b6000613ca0602883614731565b9150613cab82614d13565b604082019050919050565b6000613cc3601b83614731565b9150613cce82614d62565b602082019050919050565b6000613ce6602b83614731565b9150613cf182614d8b565b604082019050919050565b6000613d09602683614731565b9150613d1482614dda565b604082019050919050565b6000613d2c602483614731565b9150613d3782614e29565b604082019050919050565b6000613d4f602983614731565b9150613d5a82614e78565b604082019050919050565b6000613d72602d83614731565b9150613d7d82614ec7565b604082019050919050565b6000613d95601d83614731565b9150613da082614f16565b602082019050919050565b6000613db8602583614731565b9150613dc382614f3f565b604082019050919050565b6000613ddb603283614731565b9150613de682614f8e565b604082019050919050565b6000613dfe601483614731565b9150613e0982614fdd565b602082019050919050565b6000613e21602383614731565b9150613e2c82615006565b604082019050919050565b6000613e44602a83614731565b9150613e4f82615055565b604082019050919050565b6000613e67600583614742565b9150613e72826150a4565b600582019050919050565b6000613e8a602083614731565b9150613e95826150cd565b602082019050919050565b6000613ead602f83614731565b9150613eb8826150f6565b604082019050919050565b6000613ed0602383614731565b9150613edb82615145565b604082019050919050565b6000613ef3601f83614731565b9150613efe82615194565b602082019050919050565b6000613f16602a83614731565b9150613f21826151bd565b604082019050919050565b6000613f39602983614731565b9150613f448261520c565b604082019050919050565b6000613f5c602983614731565b9150613f678261525b565b604082019050919050565b6000613f7f602883614731565b9150613f8a826152aa565b604082019050919050565b6000613fa2602183614731565b9150613fad826152f9565b604082019050919050565b613fc181614a3d565b82525050565b613fd081614a3d565b82525050565b6000613fe28284613b56565b915081905092915050565b6000613ff98284613bf1565b915081905092915050565b60006140108285613bf1565b915061401c8284613bc0565b915061402782613e5a565b91508190509392505050565b60006020820190506140486000830184613a4a565b92915050565b600060a0820190506140636000830188613a4a565b6140706020830187613a4a565b81810360408301526140828186613ab0565b905081810360608301526140968185613ab0565b905081810360808301526140aa8184613b1d565b90509695505050505050565b600060a0820190506140cb6000830188613a4a565b6140d86020830187613a4a565b6140e56040830186613fc7565b6140f26060830185613fc7565b81810360808301526141048184613b1d565b90509695505050505050565b60006040820190506141256000830185613a4a565b6141326020830184613fc7565b9392505050565b600060a08201905061414e6000830184613a59565b92915050565b6000602082019050818103600083015261416e8184613ab0565b905092915050565b600060408201905081810360008301526141908185613ab0565b905081810360208301526141a48184613ab0565b90509392505050565b60006020820190506141c26000830184613b0e565b92915050565b60006040820190506141dd6000830185613b0e565b81810360208301526141ef8184613b1d565b90509392505050565b600060208201905081810360008301526142128184613b87565b905092915050565b600060408201905081810360008301526142348185613b87565b905081810360208301526142488184613b87565b90509392505050565b6000604082019050818103600083015261426b8185613b87565b905061427a6020830184613fc7565b9392505050565b6000602082019050818103600083015261429a81613c70565b9050919050565b600060208201905081810360008301526142ba81613c93565b9050919050565b600060208201905081810360008301526142da81613cb6565b9050919050565b600060208201905081810360008301526142fa81613cd9565b9050919050565b6000602082019050818103600083015261431a81613cfc565b9050919050565b6000602082019050818103600083015261433a81613d1f565b9050919050565b6000602082019050818103600083015261435a81613d42565b9050919050565b6000602082019050818103600083015261437a81613d65565b9050919050565b6000602082019050818103600083015261439a81613d88565b9050919050565b600060208201905081810360008301526143ba81613dab565b9050919050565b600060208201905081810360008301526143da81613dce565b9050919050565b600060208201905081810360008301526143fa81613df1565b9050919050565b6000602082019050818103600083015261441a81613e14565b9050919050565b6000602082019050818103600083015261443a81613e37565b9050919050565b6000602082019050818103600083015261445a81613e7d565b9050919050565b6000602082019050818103600083015261447a81613ea0565b9050919050565b6000602082019050818103600083015261449a81613ec3565b9050919050565b600060208201905081810360008301526144ba81613ee6565b9050919050565b600060208201905081810360008301526144da81613f09565b9050919050565b600060208201905081810360008301526144fa81613f2c565b9050919050565b6000602082019050818103600083015261451a81613f4f565b9050919050565b6000602082019050818103600083015261453a81613f72565b9050919050565b6000602082019050818103600083015261455a81613f95565b9050919050565b60006020820190506145766000830184613fc7565b92915050565b60006040820190506145916000830185613fc7565b61459e6020830184613fc7565b9392505050565b60006145af6145c0565b90506145bb8282614ac8565b919050565b6000604051905090565b600067ffffffffffffffff8211156145e5576145e4614c2f565b5b602082029050602081019050919050565b600067ffffffffffffffff82111561461157614610614c2f565b5b602082029050602081019050919050565b600067ffffffffffffffff82111561463d5761463c614c2f565b5b61464682614c99565b9050602081019050919050565b600067ffffffffffffffff82111561466e5761466d614c2f565b5b61467782614c99565b9050602081019050919050565b6000819050919050565b6000819050602082019050919050565b60008190508160005260206000209050919050565b600060059050919050565b600081519050919050565b600081519050919050565b600081519050919050565b6000602082019050919050565b6000602082019050919050565b600081905092915050565b600082825260208201905092915050565b600082825260208201905092915050565b600081905092915050565b600082825260208201905092915050565b600081905092915050565b600061475882614a3d565b915061476383614a3d565b9250827fffffffffffffffffffffffffffffffffffffffffffffffffffffffffffffffff0382111561479857614797614b73565b5b828201905092915050565b60006147ae82614a3d565b91506147b983614a3d565b9250826147c9576147c8614ba2565b5b828204905092915050565b6000808291508390505b600185111561481e578086048111156147fa576147f9614b73565b5b60018516156148095780820291505b808102905061481785614caa565b94506147de565b94509492505050565b600061483282614a3d565b915061483d83614a47565b925061486a7fffffffffffffffffffffffffffffffffffffffffffffffffffffffffffffffff8484614872565b905092915050565b600082614882576001905061493e565b81614890576000905061493e565b81600181146148a657600281146148b0576148df565b600191505061493e565b60ff8411156148c2576148c1614b73565b5b8360020a9150848211156148d9576148d8614b73565b5b5061493e565b5060208310610133831016604e8410600b84101617156149145782820a90508381111561490f5761490e614b73565b5b61493e565b61492184848460016147d4565b9250905081840481111561493857614937614b73565b5b81810290505b9392505050565b600061495082614a3d565b915061495b83614a3d565b9250817fffffffffffffffffffffffffffffffffffffffffffffffffffffffffffffffff048311821515161561499457614993614b73565b5b828202905092915050565b60006149aa82614a3d565b91506149b583614a3d565b9250828210156149c8576149c7614b73565b5b828203905092915050565b60006149de82614a1d565b9050919050565b60008115159050919050565b60007fffffffff0000000000000000000000000000000000000000000000000000000082169050919050565b600073ffffffffffffffffffffffffffffffffffffffff82169050919050565b6000819050919050565b600060ff82169050919050565b82818337600083830152505050565b60005b83811015614a81578082015181840152602081019050614a66565b83811115614a90576000848401525b50505050565b60006002820490506001821680614aae57607f821691505b60208210811415614ac257614ac1614bd1565b5b50919050565b614ad182614c99565b810181811067ffffffffffffffff82111715614af057614aef614c2f565b5b80604052505050565b6000614b0482614a3d565b91507fffffffffffffffffffffffffffffffffffffffffffffffffffffffffffffffff821415614b3757614b36614b73565b5b600182019050919050565b6000614b4d82614a3d565b9150614b5883614a3d565b925082614b6857614b67614ba2565b5b828206905092915050565b7f4e487b7100000000000000000000000000000000000000000000000000000000600052601160045260246000fd5b7f4e487b7100000000000000000000000000000000000000000000000000000000600052601260045260246000fd5b7f4e487b7100000000000000000000000000000000000000000000000000000000600052602260045260246000fd5b7f4e487b7100000000000000000000000000000000000000000000000000000000600052603260045260246000fd5b7f4e487b7100000000000000000000000000000000000000000000000000000000600052604160045260246000fd5b600060033d1115614c7d5760046000803e614c7a600051614cb7565b90505b90565b600080fd5b600080fd5b600080fd5b600080fd5b600080fd5b6000601f19601f8301169050919050565b60008160011c9050919050565b60008160e01c9050919050565b7f455243313135353a207472616e7366657220746f206e6f6e204552433131353560008201527f526563656976657220696d706c656d656e746572000000000000000000000000602082015250565b7f455243313135353a204552433131353552656365697665722072656a6563746560008201527f6420746f6b656e73000000000000000000000000000000000000000000000000602082015250565b7f4e6f2072656d61696e696e6720626f6f73746572207061636b73210000000000600082015250565b7f455243313135353a2062616c616e636520717565727920666f7220746865207a60008201527f65726f2061646472657373000000000000000000000000000000000000000000602082015250565b7f4f776e61626c653a206e6577206f776e657220697320746865207a65726f206160008201527f6464726573730000000000000000000000000000000000000000000000000000602082015250565b7f455243313135353a206275726e20616d6f756e7420657863656564732062616c60008201527f616e636500000000000000000000000000000000000000000000000000000000602082015250565b7f455243313135353a2063616c6c6572206973206e6f74206f776e6572206e6f7260008201527f20617070726f7665640000000000000000000000000000000000000000000000602082015250565b7f416c6c206f662074686973206174686c657465206861766520616c726561647960008201527f206265656e206d696e7465642100000000000000000000000000000000000000602082015250565b7f5374617274696e6720696e64657820697320616c726561647920736574000000600082015250565b7f455243313135353a207472616e7366657220746f20746865207a65726f20616460008201527f6472657373000000000000000000000000000000000000000000000000000000602082015250565b7f455243313135353a207472616e736665722063616c6c6572206973206e6f742060008201527f6f776e6572206e6f7220617070726f7665640000000000000000000000000000602082015250565b7f43616e6e6f742073657420757269207477696365000000000000000000000000600082015250565b7f455243313135353a206275726e2066726f6d20746865207a65726f206164647260008201527f6573730000000000000000000000000000000000000000000000000000000000602082015250565b7f455243313135353a20696e73756666696369656e742062616c616e636520666f60008201527f72207472616e7366657200000000000000000000000000000000000000000000602082015250565b7f2e6a736f6e000000000000000000000000000000000000000000000000000000600082015250565b7f4f776e61626c653a2063616c6c6572206973206e6f7420746865206f776e6572600082015250565b7f5061636b2068617320616c7265616479206265656e206275726e6564206f722060008201527f646f6573206e6f742065786973742e0000000000000000000000000000000000602082015250565b7f416c6c207061636b73206861766520616c7265616479206265656e206d696e7460008201527f6564210000000000000000000000000000000000000000000000000000000000602082015250565b7f5061636b73206172656e277420726561647920746f206f70656e207965742100600082015250565b7f43616e206f6e6c79206d696e74206f6e652073746172746572207061636b207060008201527f6572206163636f756e7400000000000000000000000000000000000000000000602082015250565b7f455243313135353a2073657474696e6720617070726f76616c2073746174757360008201527f20666f722073656c660000000000000000000000000000000000000000000000602082015250565b7f455243313135353a206163636f756e747320616e6420696473206c656e67746860008201527f206d69736d617463680000000000000000000000000000000000000000000000602082015250565b7f455243313135353a2069647320616e6420616d6f756e7473206c656e6774682060008201527f6d69736d61746368000000000000000000000000000000000000000000000000602082015250565b7f455243313135353a206d696e7420746f20746865207a65726f2061646472657360008201527f7300000000000000000000000000000000000000000000000000000000000000602082015250565b600060443d1015615358576153db565b6153606145c0565b60043d036004823e80513d602482011167ffffffffffffffff821117156153885750506153db565b808201805167ffffffffffffffff8111156153a657505050506153db565b80602083010160043d0385018111156153c35750505050506153db565b6153d282602001850186614ac8565b82955050505050505b90565b6153e7816149d3565b81146153f257600080fd5b50565b6153fe816149e5565b811461540957600080fd5b50565b615415816149f1565b811461542057600080fd5b50565b61542c81614a3d565b811461543757600080fd5b5056fea2646970667358221220e46934dc8b70c3148f74fdb96959b5af0322305ace7b8f56d7abc3bd7b8d504f64736f6c63430008070033",
  "linkReferences": {},
  "deployedLinkReferences": {}
}