{
  "_format": "hh-sol-artifact-1",
  "contractName": "GameItems",
  "sourceName": "contracts/GameItems.sol",
  "abi": [
    {
      "inputs": [],
      "stateMutability": "nonpayable",
      "type": "constructor"
    },
    {
      "anonymous": false,
      "inputs": [
        {
          "indexed": true,
          "internalType": "address",
          "name": "account",
          "type": "address"
        },
        {
          "indexed": true,
          "internalType": "address",
          "name": "operator",
          "type": "address"
        },
        {
          "indexed": false,
          "internalType": "bool",
          "name": "approved",
          "type": "bool"
        }
      ],
      "name": "ApprovalForAll",
      "type": "event"
    },
    {
      "anonymous": false,
      "inputs": [
        {
          "indexed": true,
          "internalType": "address",
          "name": "previousOwner",
          "type": "address"
        },
        {
          "indexed": true,
          "internalType": "address",
          "name": "newOwner",
          "type": "address"
        }
      ],
      "name": "OwnershipTransferred",
      "type": "event"
    },
    {
      "anonymous": false,
      "inputs": [
        {
          "indexed": true,
          "internalType": "address",
          "name": "operator",
          "type": "address"
        },
        {
          "indexed": true,
          "internalType": "address",
          "name": "from",
          "type": "address"
        },
        {
          "indexed": true,
          "internalType": "address",
          "name": "to",
          "type": "address"
        },
        {
          "indexed": false,
          "internalType": "uint256[]",
          "name": "ids",
          "type": "uint256[]"
        },
        {
          "indexed": false,
          "internalType": "uint256[]",
          "name": "values",
          "type": "uint256[]"
        }
      ],
      "name": "TransferBatch",
      "type": "event"
    },
    {
      "anonymous": false,
      "inputs": [
        {
          "indexed": true,
          "internalType": "address",
          "name": "operator",
          "type": "address"
        },
        {
          "indexed": true,
          "internalType": "address",
          "name": "from",
          "type": "address"
        },
        {
          "indexed": true,
          "internalType": "address",
          "name": "to",
          "type": "address"
        },
        {
          "indexed": false,
          "internalType": "uint256",
          "name": "id",
          "type": "uint256"
        },
        {
          "indexed": false,
          "internalType": "uint256",
          "name": "value",
          "type": "uint256"
        }
      ],
      "name": "TransferSingle",
      "type": "event"
    },
    {
      "anonymous": false,
      "inputs": [
        {
          "indexed": false,
          "internalType": "string",
          "name": "value",
          "type": "string"
        },
        {
          "indexed": true,
          "internalType": "uint256",
          "name": "id",
          "type": "uint256"
        }
      ],
      "name": "URI",
      "type": "event"
    },
    {
      "anonymous": false,
      "inputs": [
        {
          "indexed": false,
          "internalType": "address",
          "name": "user",
          "type": "address"
        },
        {
          "indexed": false,
          "internalType": "uint256",
          "name": "id",
          "type": "uint256"
        }
      ],
      "name": "packMinted",
      "type": "event"
    },
    {
      "inputs": [],
      "name": "REVEAL_TIMESTAMP",
      "outputs": [
        {
          "internalType": "uint256",
          "name": "",
          "type": "uint256"
        }
      ],
      "stateMutability": "view",
      "type": "function"
    },
    {
      "inputs": [
        {
          "internalType": "address",
          "name": "account",
          "type": "address"
        },
        {
          "internalType": "uint256",
          "name": "id",
          "type": "uint256"
        }
      ],
      "name": "balanceOf",
      "outputs": [
        {
          "internalType": "uint256",
          "name": "",
          "type": "uint256"
        }
      ],
      "stateMutability": "view",
      "type": "function"
    },
    {
      "inputs": [
        {
          "internalType": "address[]",
          "name": "accounts",
          "type": "address[]"
        },
        {
          "internalType": "uint256[]",
          "name": "ids",
          "type": "uint256[]"
        }
      ],
      "name": "balanceOfBatch",
      "outputs": [
        {
          "internalType": "uint256[]",
          "name": "",
          "type": "uint256[]"
        }
      ],
      "stateMutability": "view",
      "type": "function"
    },
    {
      "inputs": [],
      "name": "burnBoosterPack",
      "outputs": [],
      "stateMutability": "nonpayable",
      "type": "function"
    },
    {
      "inputs": [],
      "name": "burnStarterPack",
      "outputs": [],
      "stateMutability": "nonpayable",
      "type": "function"
    },
    {
      "inputs": [],
      "name": "emergencySetStartingIndexBlock",
      "outputs": [],
      "stateMutability": "nonpayable",
      "type": "function"
    },
    {
      "inputs": [],
      "name": "getNFTPerAthlete",
      "outputs": [
        {
          "internalType": "uint256",
          "name": "",
          "type": "uint256"
        }
      ],
      "stateMutability": "view",
      "type": "function"
    },
    {
      "inputs": [
        {
          "internalType": "address",
          "name": "account",
          "type": "address"
        },
        {
          "internalType": "address",
          "name": "operator",
          "type": "address"
        }
      ],
      "name": "isApprovedForAll",
      "outputs": [
        {
          "internalType": "bool",
          "name": "",
          "type": "bool"
        }
      ],
      "stateMutability": "view",
      "type": "function"
    },
    {
      "inputs": [],
      "name": "mintBoosterPack",
      "outputs": [],
      "stateMutability": "nonpayable",
      "type": "function"
    },
    {
      "inputs": [
        {
          "internalType": "uint256",
          "name": "initialSupply",
          "type": "uint256"
        }
      ],
      "name": "mintCurrency",
      "outputs": [],
      "stateMutability": "nonpayable",
      "type": "function"
    },
    {
      "inputs": [],
      "name": "mintStarterPack",
      "outputs": [],
      "stateMutability": "nonpayable",
      "type": "function"
    },
    {
      "inputs": [],
      "name": "owner",
      "outputs": [
        {
          "internalType": "address",
          "name": "",
          "type": "address"
        }
      ],
      "stateMutability": "view",
      "type": "function"
    },
    {
      "inputs": [],
      "name": "packsReadyToOpen",
      "outputs": [
        {
          "internalType": "bool",
          "name": "",
          "type": "bool"
        }
      ],
      "stateMutability": "view",
      "type": "function"
    },
    {
      "inputs": [],
      "name": "renounceOwnership",
      "outputs": [],
      "stateMutability": "nonpayable",
      "type": "function"
    },
    {
      "inputs": [
        {
          "internalType": "address",
          "name": "from",
          "type": "address"
        },
        {
          "internalType": "address",
          "name": "to",
          "type": "address"
        },
        {
          "internalType": "uint256[]",
          "name": "ids",
          "type": "uint256[]"
        },
        {
          "internalType": "uint256[]",
          "name": "amounts",
          "type": "uint256[]"
        },
        {
          "internalType": "bytes",
          "name": "data",
          "type": "bytes"
        }
      ],
      "name": "safeBatchTransferFrom",
      "outputs": [],
      "stateMutability": "nonpayable",
      "type": "function"
    },
    {
      "inputs": [
        {
          "internalType": "address",
          "name": "from",
          "type": "address"
        },
        {
          "internalType": "address",
          "name": "to",
          "type": "address"
        },
        {
          "internalType": "uint256",
          "name": "id",
          "type": "uint256"
        },
        {
          "internalType": "uint256",
          "name": "amount",
          "type": "uint256"
        },
        {
          "internalType": "bytes",
          "name": "data",
          "type": "bytes"
        }
      ],
      "name": "safeTransferFrom",
      "outputs": [],
      "stateMutability": "nonpayable",
      "type": "function"
    },
    {
      "inputs": [
        {
          "internalType": "address",
          "name": "operator",
          "type": "address"
        },
        {
          "internalType": "bool",
          "name": "approved",
          "type": "bool"
        }
      ],
      "name": "setApprovalForAll",
      "outputs": [],
      "stateMutability": "nonpayable",
      "type": "function"
    },
    {
      "inputs": [],
      "name": "setPacksReady",
      "outputs": [],
      "stateMutability": "nonpayable",
      "type": "function"
    },
    {
      "inputs": [
        {
          "internalType": "string",
          "name": "provenanceHash",
          "type": "string"
        }
      ],
      "name": "setProvenanceHash",
      "outputs": [],
      "stateMutability": "nonpayable",
      "type": "function"
    },
    {
      "inputs": [],
      "name": "setStartingIndex",
      "outputs": [],
      "stateMutability": "nonpayable",
      "type": "function"
    },
    {
      "inputs": [],
      "name": "startingIndex",
      "outputs": [
        {
          "internalType": "uint256",
          "name": "",
          "type": "uint256"
        }
      ],
      "stateMutability": "view",
      "type": "function"
    },
    {
      "inputs": [],
      "name": "startingIndexBlock",
      "outputs": [
        {
          "internalType": "uint256",
          "name": "",
          "type": "uint256"
        }
      ],
      "stateMutability": "view",
      "type": "function"
    },
    {
      "inputs": [
        {
          "internalType": "bytes4",
          "name": "interfaceId",
          "type": "bytes4"
        }
      ],
      "name": "supportsInterface",
      "outputs": [
        {
          "internalType": "bool",
          "name": "",
          "type": "bool"
        }
      ],
      "stateMutability": "view",
      "type": "function"
    },
    {
      "inputs": [
        {
          "internalType": "address",
          "name": "from",
          "type": "address"
        },
        {
          "internalType": "address",
          "name": "to",
          "type": "address"
        },
        {
          "internalType": "uint256",
          "name": "amount",
          "type": "uint256"
        },
        {
          "internalType": "bytes",
          "name": "data",
          "type": "bytes"
        }
      ],
      "name": "transferCurrency",
      "outputs": [],
      "stateMutability": "nonpayable",
      "type": "function"
    },
    {
      "inputs": [
        {
          "internalType": "address",
          "name": "newOwner",
          "type": "address"
        }
      ],
      "name": "transferOwnership",
      "outputs": [],
      "stateMutability": "nonpayable",
      "type": "function"
    },
    {
      "inputs": [
        {
          "internalType": "uint256",
          "name": "tokenId",
          "type": "uint256"
        }
      ],
      "name": "uri",
      "outputs": [
        {
          "internalType": "string",
          "name": "",
          "type": "string"
        }
      ],
      "stateMutability": "view",
      "type": "function"
    }
  ],
  "bytecode": "0x608060405260405180608001604052806051815260200162004ca3605191396005908051906020019062000035929190620003be565b5060405180608001604052806056815260200162004c4d605691396006908051906020019062000067929190620003be565b506040518060400160405280601f81526020017f496e7365727420626f6f73746572207061636b205552492068657265203a290081525060079080519060200190620000b5929190620003be565b506001600860006101000a81548160ff0219169083151502179055506127106009556003600a55600a54600b556000600c556000600d556000600e556040518060400160405280601581526020017f68747470733a2f2f697066732e696f2f697066732f0000000000000000000000815250600f90805190602001906200013e929190620003be565b50604051806020016040528060008152506012908051906020019062000166929190620003be565b503480156200017457600080fd5b506040518060200160405280600081525062000196816200020860201b60201c565b50620001b7620001ab6200022460201b60201c565b6200022c60201b60201c565b620002026040518060400160405280601281526020017f4d616b696e6720636f6e74726163742e2e2e0000000000000000000000000000815250620002f260201b620013de1760201c565b6200059b565b806002908051906020019062000220929190620003be565b5050565b600033905090565b6000600360009054906101000a900473ffffffffffffffffffffffffffffffffffffffff16905081600360006101000a81548173ffffffffffffffffffffffffffffffffffffffff021916908373ffffffffffffffffffffffffffffffffffffffff1602179055508173ffffffffffffffffffffffffffffffffffffffff168173ffffffffffffffffffffffffffffffffffffffff167f8be0079c531659141344cd1fd0a4f28419497f9722a3daafe3b4186f6b6457e060405160405180910390a35050565b6200039281604051602401620003099190620004af565b6040516020818303038152906040527f41304fac000000000000000000000000000000000000000000000000000000007bffffffffffffffffffffffffffffffffffffffffffffffffffffffff19166020820180517bffffffffffffffffffffffffffffffffffffffffffffffffffffffff83818316178352505050506200039560201b60201c565b50565b60008151905060006a636f6e736f6c652e6c6f679050602083016000808483855afa5050505050565b828054620003cc9062000525565b90600052602060002090601f016020900481019282620003f057600085556200043c565b82601f106200040b57805160ff19168380011785556200043c565b828001600101855582156200043c579182015b828111156200043b5782518255916020019190600101906200041e565b5b5090506200044b91906200044f565b5090565b5b808211156200046a57600081600090555060010162000450565b5090565b60006200047b82620004d3565b620004878185620004de565b935062000499818560208601620004ef565b620004a4816200058a565b840191505092915050565b60006020820190508181036000830152620004cb81846200046e565b905092915050565b600081519050919050565b600082825260208201905092915050565b60005b838110156200050f578082015181840152602081019050620004f2565b838111156200051f576000848401525b50505050565b600060028204905060018216806200053e57607f821691505b602082108114156200055557620005546200055b565b5b50919050565b7f4e487b7100000000000000000000000000000000000000000000000000000000600052602260045260246000fd5b6000601f19601f8301169050919050565b6146a280620005ab6000396000f3fe608060405234801561001057600080fd5b506004361061018d5760003560e01c806375223f92116100de578063be59ec2611610097578063e985e9c511610071578063e985e9c5146103d8578063e986655014610408578063f242432a14610412578063f2fde38b1461042e5761018d565b8063be59ec261461037e578063cb774d471461039c578063e36d6498146103ba5761018d565b806375223f921461031c5780637d17fcbe146103265780638da5cb5b146103305780639ebf488b1461034e578063a22cb46514610358578063bbb13e17146103745761018d565b806318e20a381161014b5780632eb2c2d6116101255780632eb2c2d6146102bc5780634e1273f4146102d85780634f3551d714610308578063715018a6146103125761018d565b806318e20a381461027857806319b604391461029657806319bfbb9e146102a05761018d565b8062fdd58e1461019257806301ffc9a7146101c25780630e89341c146101f25780631072b91f14610222578063109695231461023e578063143cc1441461025a575b600080fd5b6101ac60048036038101906101a79190612f2a565b61044a565b6040516101b99190613a16565b60405180910390f35b6101dc60048036038101906101d79190612fd2565b610513565b6040516101e99190613709565b60405180910390f35b61020c60048036038101906102079190613065565b6105f5565b6040516102199190613724565b60405180910390f35b61023c60048036038101906102379190613065565b61069a565b005b61025860048036038101906102539190613024565b6106d1565b005b610262610767565b60405161026f9190613a16565b60405180910390f35b6102806107ec565b60405161028d9190613a16565b60405180910390f35b61029e6107f2565b005b6102ba60048036038101906102b59190612de4565b61089a565b005b6102d660048036038101906102d19190612d25565b6108ae565b005b6102f260048036038101906102ed9190612f66565b61094f565b6040516102ff91906136b0565b60405180910390f35b610310610b00565b005b61031a610c34565b005b610324610cbc565b005b61032e610d69565b005b610338610e33565b60405161034591906135aa565b60405180910390f35b610356610e5d565b005b610372600480360381019061036d9190612eee565b610f91565b005b61037c610fa7565b005b61038661107c565b6040516103939190613709565b60405180910390f35b6103a461108f565b6040516103b19190613a16565b60405180910390f35b6103c2611095565b6040516103cf9190613a16565b60405180910390f35b6103f260048036038101906103ed9190612ce9565b61109b565b6040516103ff9190613709565b60405180910390f35b61041061112f565b005b61042c60048036038101906104279190612e5f565b611245565b005b61044860048036038101906104439190612cc0565b6112e6565b005b60008073ffffffffffffffffffffffffffffffffffffffff168373ffffffffffffffffffffffffffffffffffffffff1614156104bb576040517f08c379a00000000000000000000000000000000000000000000000000000000081526004016104b2906137d6565b60405180910390fd5b60008083815260200190815260200160002060008473ffffffffffffffffffffffffffffffffffffffff1673ffffffffffffffffffffffffffffffffffffffff16815260200190815260200160002054905092915050565b60007fd9b67a26000000000000000000000000000000000000000000000000000000007bffffffffffffffffffffffffffffffffffffffffffffffffffffffff1916827bffffffffffffffffffffffffffffffffffffffffffffffffffffffff191614806105de57507f0e89341c000000000000000000000000000000000000000000000000000000007bffffffffffffffffffffffffffffffffffffffffffffffffffffffff1916827bffffffffffffffffffffffffffffffffffffffffffffffffffffffff1916145b806105ee57506105ed82611477565b5b9050919050565b606060136000838152602001908152602001600020805461061590613d95565b80601f016020809104026020016040519081016040528092919081815260200182805461064190613d95565b801561068e5780601f106106635761010080835404028352916020019161068e565b820191906000526020600020905b81548152906001019060200180831161067157829003601f168201915b50505050509050919050565b60006106a660046114e1565b90506106c3338284604051806020016040528060008152506114ef565b6106cd6004611685565b5050565b6106d961169b565b73ffffffffffffffffffffffffffffffffffffffff166106f7610e33565b73ffffffffffffffffffffffffffffffffffffffff161461074d576040517f08c379a0000000000000000000000000000000000000000000000000000000008152600401610744906138f6565b60405180910390fd5b80601290805190602001906107639291906129b8565b5050565b600061077161169b565b73ffffffffffffffffffffffffffffffffffffffff1661078f610e33565b73ffffffffffffffffffffffffffffffffffffffff16146107e5576040517f08c379a00000000000000000000000000000000000000000000000000000000081526004016107dc906138f6565b60405180910390fd5b600a905090565b60095481565b6107fa61169b565b73ffffffffffffffffffffffffffffffffffffffff16610818610e33565b73ffffffffffffffffffffffffffffffffffffffff161461086e576040517f08c379a0000000000000000000000000000000000000000000000000000000008152600401610865906138f6565b60405180910390fd5b600860009054906101000a900460ff1615600860006101000a81548160ff021916908315150217905550565b6108a8848460008585611245565b50505050565b6108b661169b565b73ffffffffffffffffffffffffffffffffffffffff168573ffffffffffffffffffffffffffffffffffffffff1614806108fc57506108fb856108f661169b565b61109b565b5b61093b576040517f08c379a000000000000000000000000000000000000000000000000000000000815260040161093290613896565b60405180910390fd5b61094885858585856116a3565b5050505050565b60608151835114610995576040517f08c379a000000000000000000000000000000000000000000000000000000000815260040161098c906139b6565b60405180910390fd5b6000835167ffffffffffffffff8111156109d8577f4e487b7100000000000000000000000000000000000000000000000000000000600052604160045260246000fd5b604051908082528060200260200182016040528015610a065781602001602082028036833780820191505090505b50905060005b8451811015610af557610a9f858281518110610a51577f4e487b7100000000000000000000000000000000000000000000000000000000600052603260045260246000fd5b6020026020010151858381518110610a92577f4e487b7100000000000000000000000000000000000000000000000000000000600052603260045260246000fd5b602002602001015161044a565b828281518110610ad8577f4e487b7100000000000000000000000000000000000000000000000000000000600052603260045260246000fd5b60200260200101818152505080610aee90613df8565b9050610a0c565b508091505092915050565b600a600d5410610b45576040517f08c379a0000000000000000000000000000000000000000000000000000000008152600401610b3c90613936565b60405180910390fd5b6001610b5333600a5461044a565b10610b93576040517f08c379a0000000000000000000000000000000000000000000000000000000008152600401610b8a90613976565b60405180910390fd5b610bb133600b546001604051806020016040528060008152506114ef565b610bdd600b546007604051602001610bc99190613564565b604051602081830303815290604052611a03565b6001600d6000828254610bf09190613bca565b925050819055507f2e0f4d63dcc00e6a11c8aef9f6e15c1f9cd6e9a090b2dd99c7b797f1a28d300d33600d54604051610c2a929190613687565b60405180910390a1565b610c3c61169b565b73ffffffffffffffffffffffffffffffffffffffff16610c5a610e33565b73ffffffffffffffffffffffffffffffffffffffff1614610cb0576040517f08c379a0000000000000000000000000000000000000000000000000000000008152600401610ca7906138f6565b60405180910390fd5b610cba6000611a2f565b565b600860009054906101000a900460ff16610d0b576040517f08c379a0000000000000000000000000000000000000000000000000000000008152600401610d0290613956565b60405180910390fd5b6000610d1933600b5461044a565b11610d59576040517f08c379a0000000000000000000000000000000000000000000000000000000008152600401610d50906137b6565b60405180910390fd5b610d6733600b546001611af5565b565b610d7161169b565b73ffffffffffffffffffffffffffffffffffffffff16610d8f610e33565b73ffffffffffffffffffffffffffffffffffffffff1614610de5576040517f08c379a0000000000000000000000000000000000000000000000000000000008152600401610ddc906138f6565b60405180910390fd5b600060115414610e2a576040517f08c379a0000000000000000000000000000000000000000000000000000000008152600401610e2190613856565b60405180910390fd5b43601081905550565b6000600360009054906101000a900473ffffffffffffffffffffffffffffffffffffffff16905090565b600a600c5410610ea2576040517f08c379a0000000000000000000000000000000000000000000000000000000008152600401610e9990613936565b60405180910390fd5b6001610eb033600a5461044a565b10610ef0576040517f08c379a0000000000000000000000000000000000000000000000000000000008152600401610ee790613976565b60405180910390fd5b610f0e33600a546001604051806020016040528060008152506114ef565b610f3a600a546006604051602001610f269190613564565b604051602081830303815290604052611a03565b6001600c6000828254610f4d9190613bca565b925050819055507f2e0f4d63dcc00e6a11c8aef9f6e15c1f9cd6e9a090b2dd99c7b797f1a28d300d33600c54604051610f87929190613687565b60405180910390a1565b610fa3610f9c61169b565b8383611d12565b5050565b600860009054906101000a900460ff16610ff6576040517f08c379a0000000000000000000000000000000000000000000000000000000008152600401610fed90613956565b60405180910390fd5b600161100433600a5461044a565b14611044576040517f08c379a000000000000000000000000000000000000000000000000000000000815260040161103b90613916565b60405180910390fd5b60005b600581101561106b57611058611e7f565b808061106390613df8565b915050611047565b5061107a33600a546001611af5565b565b600860009054906101000a900460ff1681565b60115481565b60105481565b6000600160008473ffffffffffffffffffffffffffffffffffffffff1673ffffffffffffffffffffffffffffffffffffffff16815260200190815260200160002060008373ffffffffffffffffffffffffffffffffffffffff1673ffffffffffffffffffffffffffffffffffffffff16815260200190815260200160002060009054906101000a900460ff16905092915050565b61113761169b565b73ffffffffffffffffffffffffffffffffffffffff16611155610e33565b73ffffffffffffffffffffffffffffffffffffffff16146111ab576040517f08c379a00000000000000000000000000000000000000000000000000000000081526004016111a2906138f6565b60405180910390fd5b600a60036111b99190613c51565b6001436111c69190613cab565b4060001c6111d49190613e41565b60118190555061121b6040518060400160405280600f81526020017f5374617274696e6720696e646578200000000000000000000000000000000000815250601154611fff565b600060115414156112435761123c600160115461209b90919063ffffffff16565b6011819055505b565b61124d61169b565b73ffffffffffffffffffffffffffffffffffffffff168573ffffffffffffffffffffffffffffffffffffffff16148061129357506112928561128d61169b565b61109b565b5b6112d2576040517f08c379a00000000000000000000000000000000000000000000000000000000081526004016112c990613836565b60405180910390fd5b6112df85858585856120b1565b5050505050565b6112ee61169b565b73ffffffffffffffffffffffffffffffffffffffff1661130c610e33565b73ffffffffffffffffffffffffffffffffffffffff1614611362576040517f08c379a0000000000000000000000000000000000000000000000000000000008152600401611359906138f6565b60405180910390fd5b600073ffffffffffffffffffffffffffffffffffffffff168173ffffffffffffffffffffffffffffffffffffffff1614156113d2576040517f08c379a00000000000000000000000000000000000000000000000000000000081526004016113c9906137f6565b60405180910390fd5b6113db81611a2f565b50565b611474816040516024016113f29190613724565b6040516020818303038152906040527f41304fac000000000000000000000000000000000000000000000000000000007bffffffffffffffffffffffffffffffffffffffffffffffffffffffff19166020820180517bffffffffffffffffffffffffffffffffffffffffffffffffffffffff8381831617835250505050612333565b50565b60007f01ffc9a7000000000000000000000000000000000000000000000000000000007bffffffffffffffffffffffffffffffffffffffffffffffffffffffff1916827bffffffffffffffffffffffffffffffffffffffffffffffffffffffff1916149050919050565b600081600001549050919050565b600073ffffffffffffffffffffffffffffffffffffffff168473ffffffffffffffffffffffffffffffffffffffff16141561155f576040517f08c379a0000000000000000000000000000000000000000000000000000000008152600401611556906139f6565b60405180910390fd5b600061156961169b565b905061158a8160008761157b8861235c565b6115848861235c565b87612422565b8260008086815260200190815260200160002060008773ffffffffffffffffffffffffffffffffffffffff1673ffffffffffffffffffffffffffffffffffffffff16815260200190815260200160002060008282546115e99190613bca565b925050819055508473ffffffffffffffffffffffffffffffffffffffff16600073ffffffffffffffffffffffffffffffffffffffff168273ffffffffffffffffffffffffffffffffffffffff167fc3d58168c5ae7397731d063d5bbf3d657854427343f4c083240f7aacaa2d0f628787604051611667929190613a31565b60405180910390a461167e8160008787878761242a565b5050505050565b6001816000016000828254019250508190555050565b600033905090565b81518351146116e7576040517f08c379a00000000000000000000000000000000000000000000000000000000081526004016116de906139d6565b60405180910390fd5b600073ffffffffffffffffffffffffffffffffffffffff168473ffffffffffffffffffffffffffffffffffffffff161415611757576040517f08c379a000000000000000000000000000000000000000000000000000000000815260040161174e90613876565b60405180910390fd5b600061176161169b565b9050611771818787878787612422565b60005b845181101561196e5760008582815181106117b8577f4e487b7100000000000000000000000000000000000000000000000000000000600052603260045260246000fd5b6020026020010151905060008583815181106117fd577f4e487b7100000000000000000000000000000000000000000000000000000000600052603260045260246000fd5b60200260200101519050600080600084815260200190815260200160002060008b73ffffffffffffffffffffffffffffffffffffffff1673ffffffffffffffffffffffffffffffffffffffff1681526020019081526020016000205490508181101561189e576040517f08c379a0000000000000000000000000000000000000000000000000000000008152600401611895906138d6565b60405180910390fd5b81810360008085815260200190815260200160002060008c73ffffffffffffffffffffffffffffffffffffffff1673ffffffffffffffffffffffffffffffffffffffff168152602001908152602001600020819055508160008085815260200190815260200160002060008b73ffffffffffffffffffffffffffffffffffffffff1673ffffffffffffffffffffffffffffffffffffffff16815260200190815260200160002060008282546119539190613bca565b925050819055505050508061196790613df8565b9050611774565b508473ffffffffffffffffffffffffffffffffffffffff168673ffffffffffffffffffffffffffffffffffffffff168273ffffffffffffffffffffffffffffffffffffffff167f4a39dc06d4c0dbc64b70af90fd698a233a518aa5d07e595d983b8c0526c8f7fb87876040516119e59291906136d2565b60405180910390a46119fb818787878787612611565b505050505050565b80601360008481526020019081526020016000209080519060200190611a2a9291906129b8565b505050565b6000600360009054906101000a900473ffffffffffffffffffffffffffffffffffffffff16905081600360006101000a81548173ffffffffffffffffffffffffffffffffffffffff021916908373ffffffffffffffffffffffffffffffffffffffff1602179055508173ffffffffffffffffffffffffffffffffffffffff168173ffffffffffffffffffffffffffffffffffffffff167f8be0079c531659141344cd1fd0a4f28419497f9722a3daafe3b4186f6b6457e060405160405180910390a35050565b600073ffffffffffffffffffffffffffffffffffffffff168373ffffffffffffffffffffffffffffffffffffffff161415611b65576040517f08c379a0000000000000000000000000000000000000000000000000000000008152600401611b5c906138b6565b60405180910390fd5b6000611b6f61169b565b9050611b9f81856000611b818761235c565b611b8a8761235c565b60405180602001604052806000815250612422565b600080600085815260200190815260200160002060008673ffffffffffffffffffffffffffffffffffffffff1673ffffffffffffffffffffffffffffffffffffffff16815260200190815260200160002054905082811015611c36576040517f08c379a0000000000000000000000000000000000000000000000000000000008152600401611c2d90613816565b60405180910390fd5b82810360008086815260200190815260200160002060008773ffffffffffffffffffffffffffffffffffffffff1673ffffffffffffffffffffffffffffffffffffffff16815260200190815260200160002081905550600073ffffffffffffffffffffffffffffffffffffffff168573ffffffffffffffffffffffffffffffffffffffff168373ffffffffffffffffffffffffffffffffffffffff167fc3d58168c5ae7397731d063d5bbf3d657854427343f4c083240f7aacaa2d0f628787604051611d03929190613a31565b60405180910390a45050505050565b8173ffffffffffffffffffffffffffffffffffffffff168373ffffffffffffffffffffffffffffffffffffffff161415611d81576040517f08c379a0000000000000000000000000000000000000000000000000000000008152600401611d7890613996565b60405180910390fd5b80600160008573ffffffffffffffffffffffffffffffffffffffff1673ffffffffffffffffffffffffffffffffffffffff16815260200190815260200160002060008473ffffffffffffffffffffffffffffffffffffffff1673ffffffffffffffffffffffffffffffffffffffff16815260200190815260200160002060006101000a81548160ff0219169083151502179055508173ffffffffffffffffffffffffffffffffffffffff168373ffffffffffffffffffffffffffffffffffffffff167f17307eab39ab6107e8899845ad3d59bd9653f200f220920489ca2b5937696c3183604051611e729190613709565b60405180910390a3505050565b60006003600e54601154611e939190613bca565b611e9d9190613e41565b9050611ee06040518060400160405280600e81526020017f5374617274696e6720696e646578000000000000000000000000000000000000815250601154611fff565b611f1f6040518060400160405280600a81526020017f4d696e7420696e6465780000000000000000000000000000000000000000000081525082611fff565b600a6003611f2d9190613c51565b600e541015611ffc57611f78338260016040518060400160405280600481526020017f30783030000000000000000000000000000000000000000000000000000000008152506114ef565b6000601360008381526020019081526020016000208054611f9890613d95565b90501415611fe157611fe0816005611fbb600185611fb69190613bca565b6127f8565b604051602001611fcc92919061357b565b604051602081830303815290604052611a03565b5b6001600e6000828254611ff49190613bca565b925050819055505b50565b6120978282604051602401612015929190613746565b6040516020818303038152906040527f9710a9d0000000000000000000000000000000000000000000000000000000007bffffffffffffffffffffffffffffffffffffffffffffffffffffffff19166020820180517bffffffffffffffffffffffffffffffffffffffffffffffffffffffff8381831617835250505050612333565b5050565b600081836120a99190613bca565b905092915050565b600073ffffffffffffffffffffffffffffffffffffffff168473ffffffffffffffffffffffffffffffffffffffff161415612121576040517f08c379a000000000000000000000000000000000000000000000000000000000815260040161211890613876565b60405180910390fd5b600061212b61169b565b905061214b81878761213c8861235c565b6121458861235c565b87612422565b600080600086815260200190815260200160002060008873ffffffffffffffffffffffffffffffffffffffff1673ffffffffffffffffffffffffffffffffffffffff168152602001908152602001600020549050838110156121e2576040517f08c379a00000000000000000000000000000000000000000000000000000000081526004016121d9906138d6565b60405180910390fd5b83810360008087815260200190815260200160002060008973ffffffffffffffffffffffffffffffffffffffff1673ffffffffffffffffffffffffffffffffffffffff168152602001908152602001600020819055508360008087815260200190815260200160002060008873ffffffffffffffffffffffffffffffffffffffff1673ffffffffffffffffffffffffffffffffffffffff16815260200190815260200160002060008282546122979190613bca565b925050819055508573ffffffffffffffffffffffffffffffffffffffff168773ffffffffffffffffffffffffffffffffffffffff168373ffffffffffffffffffffffffffffffffffffffff167fc3d58168c5ae7397731d063d5bbf3d657854427343f4c083240f7aacaa2d0f628888604051612314929190613a31565b60405180910390a461232a82888888888861242a565b50505050505050565b60008151905060006a636f6e736f6c652e6c6f679050602083016000808483855afa5050505050565b60606000600167ffffffffffffffff8111156123a1577f4e487b7100000000000000000000000000000000000000000000000000000000600052604160045260246000fd5b6040519080825280602002602001820160405280156123cf5781602001602082028036833780820191505090505b509050828160008151811061240d577f4e487b7100000000000000000000000000000000000000000000000000000000600052603260045260246000fd5b60200260200101818152505080915050919050565b505050505050565b6124498473ffffffffffffffffffffffffffffffffffffffff166129a5565b15612609578373ffffffffffffffffffffffffffffffffffffffff1663f23a6e6187878686866040518663ffffffff1660e01b815260040161248f95949392919061362d565b602060405180830381600087803b1580156124a957600080fd5b505af19250505080156124da57506040513d601f19601f820116820180604052508101906124d79190612ffb565b60015b612580576124e6613f2e565b806308c379a0141561254357506124fb61457a565b806125065750612545565b806040517f08c379a000000000000000000000000000000000000000000000000000000000815260040161253a9190613724565b60405180910390fd5b505b6040517f08c379a000000000000000000000000000000000000000000000000000000000815260040161257790613776565b60405180910390fd5b63f23a6e6160e01b7bffffffffffffffffffffffffffffffffffffffffffffffffffffffff1916817bffffffffffffffffffffffffffffffffffffffffffffffffffffffff191614612607576040517f08c379a00000000000000000000000000000000000000000000000000000000081526004016125fe90613796565b60405180910390fd5b505b505050505050565b6126308473ffffffffffffffffffffffffffffffffffffffff166129a5565b156127f0578373ffffffffffffffffffffffffffffffffffffffff1663bc197c8187878686866040518663ffffffff1660e01b81526004016126769594939291906135c5565b602060405180830381600087803b15801561269057600080fd5b505af19250505080156126c157506040513d601f19601f820116820180604052508101906126be9190612ffb565b60015b612767576126cd613f2e565b806308c379a0141561272a57506126e261457a565b806126ed575061272c565b806040517f08c379a00000000000000000000000000000000000000000000000000000000081526004016127219190613724565b60405180910390fd5b505b6040517f08c379a000000000000000000000000000000000000000000000000000000000815260040161275e90613776565b60405180910390fd5b63bc197c8160e01b7bffffffffffffffffffffffffffffffffffffffffffffffffffffffff1916817bffffffffffffffffffffffffffffffffffffffffffffffffffffffff1916146127ee576040517f08c379a00000000000000000000000000000000000000000000000000000000081526004016127e590613796565b60405180910390fd5b505b505050505050565b60606000821415612840576040518060400160405280600181526020017f300000000000000000000000000000000000000000000000000000000000000081525090506129a0565b600082905060005b6000821461287257808061285b90613df8565b915050600a8261286b9190613c20565b9150612848565b60008167ffffffffffffffff8111156128b4577f4e487b7100000000000000000000000000000000000000000000000000000000600052604160045260246000fd5b6040519080825280601f01601f1916602001820160405280156128e65781602001600182028036833780820191505090505b5090505b60008514612999576001826128ff9190613cab565b9150600a8561290e9190613e41565b603061291a9190613bca565b60f81b818381518110612956577f4e487b7100000000000000000000000000000000000000000000000000000000600052603260045260246000fd5b60200101907effffffffffffffffffffffffffffffffffffffffffffffffffffffffffffff1916908160001a905350600a856129929190613c20565b94506128ea565b8093505050505b919050565b600080823b905060008111915050919050565b8280546129c490613d95565b90600052602060002090601f0160209004810192826129e65760008555612a2d565b82601f106129ff57805160ff1916838001178555612a2d565b82800160010185558215612a2d579182015b82811115612a2c578251825591602001919060010190612a11565b5b509050612a3a9190612a3e565b5090565b5b80821115612a57576000816000905550600101612a3f565b5090565b6000612a6e612a6984613a7f565b613a5a565b90508083825260208201905082856020860282011115612a8d57600080fd5b60005b85811015612abd5781612aa38882612baf565b845260208401935060208301925050600181019050612a90565b5050509392505050565b6000612ada612ad584613aab565b613a5a565b90508083825260208201905082856020860282011115612af957600080fd5b60005b85811015612b295781612b0f8882612cab565b845260208401935060208301925050600181019050612afc565b5050509392505050565b6000612b46612b4184613ad7565b613a5a565b905082815260208101848484011115612b5e57600080fd5b612b69848285613d53565b509392505050565b6000612b84612b7f84613b08565b613a5a565b905082815260208101848484011115612b9c57600080fd5b612ba7848285613d53565b509392505050565b600081359050612bbe81614610565b92915050565b600082601f830112612bd557600080fd5b8135612be5848260208601612a5b565b91505092915050565b600082601f830112612bff57600080fd5b8135612c0f848260208601612ac7565b91505092915050565b600081359050612c2781614627565b92915050565b600081359050612c3c8161463e565b92915050565b600081519050612c518161463e565b92915050565b600082601f830112612c6857600080fd5b8135612c78848260208601612b33565b91505092915050565b600082601f830112612c9257600080fd5b8135612ca2848260208601612b71565b91505092915050565b600081359050612cba81614655565b92915050565b600060208284031215612cd257600080fd5b6000612ce084828501612baf565b91505092915050565b60008060408385031215612cfc57600080fd5b6000612d0a85828601612baf565b9250506020612d1b85828601612baf565b9150509250929050565b600080600080600060a08688031215612d3d57600080fd5b6000612d4b88828901612baf565b9550506020612d5c88828901612baf565b945050604086013567ffffffffffffffff811115612d7957600080fd5b612d8588828901612bee565b935050606086013567ffffffffffffffff811115612da257600080fd5b612dae88828901612bee565b925050608086013567ffffffffffffffff811115612dcb57600080fd5b612dd788828901612c57565b9150509295509295909350565b60008060008060808587031215612dfa57600080fd5b6000612e0887828801612baf565b9450506020612e1987828801612baf565b9350506040612e2a87828801612cab565b925050606085013567ffffffffffffffff811115612e4757600080fd5b612e5387828801612c57565b91505092959194509250565b600080600080600060a08688031215612e7757600080fd5b6000612e8588828901612baf565b9550506020612e9688828901612baf565b9450506040612ea788828901612cab565b9350506060612eb888828901612cab565b925050608086013567ffffffffffffffff811115612ed557600080fd5b612ee188828901612c57565b9150509295509295909350565b60008060408385031215612f0157600080fd5b6000612f0f85828601612baf565b9250506020612f2085828601612c18565b9150509250929050565b60008060408385031215612f3d57600080fd5b6000612f4b85828601612baf565b9250506020612f5c85828601612cab565b9150509250929050565b60008060408385031215612f7957600080fd5b600083013567ffffffffffffffff811115612f9357600080fd5b612f9f85828601612bc4565b925050602083013567ffffffffffffffff811115612fbc57600080fd5b612fc885828601612bee565b9150509250929050565b600060208284031215612fe457600080fd5b6000612ff284828501612c2d565b91505092915050565b60006020828403121561300d57600080fd5b600061301b84828501612c42565b91505092915050565b60006020828403121561303657600080fd5b600082013567ffffffffffffffff81111561305057600080fd5b61305c84828501612c81565b91505092915050565b60006020828403121561307757600080fd5b600061308584828501612cab565b91505092915050565b600061309a8383613546565b60208301905092915050565b6130af81613cdf565b82525050565b60006130c082613b5e565b6130ca8185613b8c565b93506130d583613b39565b8060005b838110156131065781516130ed888261308e565b97506130f883613b7f565b9250506001810190506130d9565b5085935050505092915050565b61311c81613cf1565b82525050565b600061312d82613b69565b6131378185613b9d565b9350613147818560208601613d62565b61315081613f50565b840191505092915050565b600061316682613b74565b6131708185613bae565b9350613180818560208601613d62565b61318981613f50565b840191505092915050565b600061319f82613b74565b6131a98185613bbf565b93506131b9818560208601613d62565b80840191505092915050565b600081546131d281613d95565b6131dc8186613bbf565b945060018216600081146131f757600181146132085761323b565b60ff1983168652818601935061323b565b61321185613b49565b60005b8381101561323357815481890152600182019150602081019050613214565b838801955050505b50505092915050565b6000613251603483613bae565b915061325c82613f6e565b604082019050919050565b6000613274602883613bae565b915061327f82613fbd565b604082019050919050565b6000613297601b83613bae565b91506132a28261400c565b602082019050919050565b60006132ba602b83613bae565b91506132c582614035565b604082019050919050565b60006132dd602683613bae565b91506132e882614084565b604082019050919050565b6000613300602483613bae565b915061330b826140d3565b604082019050919050565b6000613323602983613bae565b915061332e82614122565b604082019050919050565b6000613346601d83613bae565b915061335182614171565b602082019050919050565b6000613369602583613bae565b91506133748261419a565b604082019050919050565b600061338c603283613bae565b9150613397826141e9565b604082019050919050565b60006133af602383613bae565b91506133ba82614238565b604082019050919050565b60006133d2602a83613bae565b91506133dd82614287565b604082019050919050565b60006133f5600583613bbf565b9150613400826142d6565b600582019050919050565b6000613418602083613bae565b9150613423826142ff565b602082019050919050565b600061343b602f83613bae565b915061344682614328565b604082019050919050565b600061345e602383613bae565b915061346982614377565b604082019050919050565b6000613481601f83613bae565b915061348c826143c6565b602082019050919050565b60006134a4602a83613bae565b91506134af826143ef565b604082019050919050565b60006134c7602983613bae565b91506134d28261443e565b604082019050919050565b60006134ea602983613bae565b91506134f58261448d565b604082019050919050565b600061350d602883613bae565b9150613518826144dc565b604082019050919050565b6000613530602183613bae565b915061353b8261452b565b604082019050919050565b61354f81613d49565b82525050565b61355e81613d49565b82525050565b600061357082846131c5565b915081905092915050565b600061358782856131c5565b91506135938284613194565b915061359e826133e8565b91508190509392505050565b60006020820190506135bf60008301846130a6565b92915050565b600060a0820190506135da60008301886130a6565b6135e760208301876130a6565b81810360408301526135f981866130b5565b9050818103606083015261360d81856130b5565b905081810360808301526136218184613122565b90509695505050505050565b600060a08201905061364260008301886130a6565b61364f60208301876130a6565b61365c6040830186613555565b6136696060830185613555565b818103608083015261367b8184613122565b90509695505050505050565b600060408201905061369c60008301856130a6565b6136a96020830184613555565b9392505050565b600060208201905081810360008301526136ca81846130b5565b905092915050565b600060408201905081810360008301526136ec81856130b5565b9050818103602083015261370081846130b5565b90509392505050565b600060208201905061371e6000830184613113565b92915050565b6000602082019050818103600083015261373e818461315b565b905092915050565b60006040820190508181036000830152613760818561315b565b905061376f6020830184613555565b9392505050565b6000602082019050818103600083015261378f81613244565b9050919050565b600060208201905081810360008301526137af81613267565b9050919050565b600060208201905081810360008301526137cf8161328a565b9050919050565b600060208201905081810360008301526137ef816132ad565b9050919050565b6000602082019050818103600083015261380f816132d0565b9050919050565b6000602082019050818103600083015261382f816132f3565b9050919050565b6000602082019050818103600083015261384f81613316565b9050919050565b6000602082019050818103600083015261386f81613339565b9050919050565b6000602082019050818103600083015261388f8161335c565b9050919050565b600060208201905081810360008301526138af8161337f565b9050919050565b600060208201905081810360008301526138cf816133a2565b9050919050565b600060208201905081810360008301526138ef816133c5565b9050919050565b6000602082019050818103600083015261390f8161340b565b9050919050565b6000602082019050818103600083015261392f8161342e565b9050919050565b6000602082019050818103600083015261394f81613451565b9050919050565b6000602082019050818103600083015261396f81613474565b9050919050565b6000602082019050818103600083015261398f81613497565b9050919050565b600060208201905081810360008301526139af816134ba565b9050919050565b600060208201905081810360008301526139cf816134dd565b9050919050565b600060208201905081810360008301526139ef81613500565b9050919050565b60006020820190508181036000830152613a0f81613523565b9050919050565b6000602082019050613a2b6000830184613555565b92915050565b6000604082019050613a466000830185613555565b613a536020830184613555565b9392505050565b6000613a64613a75565b9050613a708282613dc7565b919050565b6000604051905090565b600067ffffffffffffffff821115613a9a57613a99613eff565b5b602082029050602081019050919050565b600067ffffffffffffffff821115613ac657613ac5613eff565b5b602082029050602081019050919050565b600067ffffffffffffffff821115613af257613af1613eff565b5b613afb82613f50565b9050602081019050919050565b600067ffffffffffffffff821115613b2357613b22613eff565b5b613b2c82613f50565b9050602081019050919050565b6000819050602082019050919050565b60008190508160005260206000209050919050565b600081519050919050565b600081519050919050565b600081519050919050565b6000602082019050919050565b600082825260208201905092915050565b600082825260208201905092915050565b600082825260208201905092915050565b600081905092915050565b6000613bd582613d49565b9150613be083613d49565b9250827fffffffffffffffffffffffffffffffffffffffffffffffffffffffffffffffff03821115613c1557613c14613e72565b5b828201905092915050565b6000613c2b82613d49565b9150613c3683613d49565b925082613c4657613c45613ea1565b5b828204905092915050565b6000613c5c82613d49565b9150613c6783613d49565b9250817fffffffffffffffffffffffffffffffffffffffffffffffffffffffffffffffff0483118215151615613ca057613c9f613e72565b5b828202905092915050565b6000613cb682613d49565b9150613cc183613d49565b925082821015613cd457613cd3613e72565b5b828203905092915050565b6000613cea82613d29565b9050919050565b60008115159050919050565b60007fffffffff0000000000000000000000000000000000000000000000000000000082169050919050565b600073ffffffffffffffffffffffffffffffffffffffff82169050919050565b6000819050919050565b82818337600083830152505050565b60005b83811015613d80578082015181840152602081019050613d65565b83811115613d8f576000848401525b50505050565b60006002820490506001821680613dad57607f821691505b60208210811415613dc157613dc0613ed0565b5b50919050565b613dd082613f50565b810181811067ffffffffffffffff82111715613def57613dee613eff565b5b80604052505050565b6000613e0382613d49565b91507fffffffffffffffffffffffffffffffffffffffffffffffffffffffffffffffff821415613e3657613e35613e72565b5b600182019050919050565b6000613e4c82613d49565b9150613e5783613d49565b925082613e6757613e66613ea1565b5b828206905092915050565b7f4e487b7100000000000000000000000000000000000000000000000000000000600052601160045260246000fd5b7f4e487b7100000000000000000000000000000000000000000000000000000000600052601260045260246000fd5b7f4e487b7100000000000000000000000000000000000000000000000000000000600052602260045260246000fd5b7f4e487b7100000000000000000000000000000000000000000000000000000000600052604160045260246000fd5b600060033d1115613f4d5760046000803e613f4a600051613f61565b90505b90565b6000601f19601f8301169050919050565b60008160e01c9050919050565b7f455243313135353a207472616e7366657220746f206e6f6e204552433131353560008201527f526563656976657220696d706c656d656e746572000000000000000000000000602082015250565b7f455243313135353a204552433131353552656365697665722072656a6563746560008201527f6420746f6b656e73000000000000000000000000000000000000000000000000602082015250565b7f4e6f2072656d61696e696e6720626f6f73746572207061636b73210000000000600082015250565b7f455243313135353a2062616c616e636520717565727920666f7220746865207a60008201527f65726f2061646472657373000000000000000000000000000000000000000000602082015250565b7f4f776e61626c653a206e6577206f776e657220697320746865207a65726f206160008201527f6464726573730000000000000000000000000000000000000000000000000000602082015250565b7f455243313135353a206275726e20616d6f756e7420657863656564732062616c60008201527f616e636500000000000000000000000000000000000000000000000000000000602082015250565b7f455243313135353a2063616c6c6572206973206e6f74206f776e6572206e6f7260008201527f20617070726f7665640000000000000000000000000000000000000000000000602082015250565b7f5374617274696e6720696e64657820697320616c726561647920736574000000600082015250565b7f455243313135353a207472616e7366657220746f20746865207a65726f20616460008201527f6472657373000000000000000000000000000000000000000000000000000000602082015250565b7f455243313135353a207472616e736665722063616c6c6572206973206e6f742060008201527f6f776e6572206e6f7220617070726f7665640000000000000000000000000000602082015250565b7f455243313135353a206275726e2066726f6d20746865207a65726f206164647260008201527f6573730000000000000000000000000000000000000000000000000000000000602082015250565b7f455243313135353a20696e73756666696369656e742062616c616e636520666f60008201527f72207472616e7366657200000000000000000000000000000000000000000000602082015250565b7f2e6a736f6e000000000000000000000000000000000000000000000000000000600082015250565b7f4f776e61626c653a2063616c6c6572206973206e6f7420746865206f776e6572600082015250565b7f5061636b2068617320616c7265616479206265656e206275726e6564206f722060008201527f646f6573206e6f742065786973742e0000000000000000000000000000000000602082015250565b7f416c6c207061636b73206861766520616c7265616479206265656e206d696e7460008201527f6564210000000000000000000000000000000000000000000000000000000000602082015250565b7f5061636b73206172656e277420726561647920746f206f70656e207965742100600082015250565b7f43616e206f6e6c79206d696e74206f6e652073746172746572207061636b207060008201527f6572206163636f756e7400000000000000000000000000000000000000000000602082015250565b7f455243313135353a2073657474696e6720617070726f76616c2073746174757360008201527f20666f722073656c660000000000000000000000000000000000000000000000602082015250565b7f455243313135353a206163636f756e747320616e6420696473206c656e67746860008201527f206d69736d617463680000000000000000000000000000000000000000000000602082015250565b7f455243313135353a2069647320616e6420616d6f756e7473206c656e6774682060008201527f6d69736d61746368000000000000000000000000000000000000000000000000602082015250565b7f455243313135353a206d696e7420746f20746865207a65726f2061646472657360008201527f7300000000000000000000000000000000000000000000000000000000000000602082015250565b600060443d101561458a5761460d565b614592613a75565b60043d036004823e80513d602482011167ffffffffffffffff821117156145ba57505061460d565b808201805167ffffffffffffffff8111156145d8575050505061460d565b80602083010160043d0385018111156145f557505050505061460d565b61460482602001850186613dc7565b82955050505050505b90565b61461981613cdf565b811461462457600080fd5b50565b61463081613cf1565b811461463b57600080fd5b50565b61464781613cfd565b811461465257600080fd5b50565b61465e81613d49565b811461466957600080fd5b5056fea2646970667358221220d887102f09e835dd67460bb066b1adbcd1a133b3e16d78a11599867cd42f40cd64736f6c6343000802003368747470733a2f2f697066732e696f2f697066732f516d573448457a33397a647a4644696744613138537a77537a55656a4366326934644e334c6574667a61723667483f66696c656e616d653d7061636b2e6a736f6e68747470733a2f2f676174657761792e70696e6174612e636c6f75642f697066732f516d563642743778567a3436387344377067415958484a715344705075796d4d566e70623254756b35387a5856552f",
  "linkReferences": {},
  "deployedLinkReferences": {}
}