{
  "_format": "hh-sol-artifact-1",
  "contractName": "GameItems",
  "sourceName": "contracts/GameItems.sol",
  "abi": [
    {
      "inputs": [
        {
          "components": [
            {
              "internalType": "uint256",
              "name": "_numAthletes",
              "type": "uint256"
            },
            {
              "internalType": "uint256",
              "name": "_nftPerAthlete",
              "type": "uint256"
            },
            {
              "internalType": "uint256",
              "name": "_starterPackSize",
              "type": "uint256"
            },
            {
              "internalType": "uint256",
              "name": "_boosterPackSize",
              "type": "uint256"
            },
            {
              "internalType": "uint256",
              "name": "_maxStarterPackBalance",
              "type": "uint256"
            },
            {
              "internalType": "uint256",
              "name": "_maxBoosterPackBalance",
              "type": "uint256"
            },
            {
              "internalType": "uint256",
              "name": "_maxPacks",
              "type": "uint256"
            },
            {
              "internalType": "uint256",
              "name": "_revealTimestamp",
              "type": "uint256"
            }
          ],
          "internalType": "struct GameItems.Parameters",
          "name": "params",
          "type": "tuple"
        },
        {
          "internalType": "string",
          "name": "_athleteURI",
          "type": "string"
        },
        {
          "internalType": "string",
          "name": "_starterPackURI",
          "type": "string"
        },
        {
          "internalType": "string",
          "name": "_boosterPackURI",
          "type": "string"
        }
      ],
      "stateMutability": "nonpayable",
      "type": "constructor"
    },
    {
      "anonymous": false,
      "inputs": [
        {
          "indexed": true,
          "internalType": "address",
          "name": "account",
          "type": "address"
        },
        {
          "indexed": true,
          "internalType": "address",
          "name": "operator",
          "type": "address"
        },
        {
          "indexed": false,
          "internalType": "bool",
          "name": "approved",
          "type": "bool"
        }
      ],
      "name": "ApprovalForAll",
      "type": "event"
    },
    {
      "anonymous": false,
      "inputs": [
        {
          "indexed": true,
          "internalType": "address",
          "name": "previousOwner",
          "type": "address"
        },
        {
          "indexed": true,
          "internalType": "address",
          "name": "newOwner",
          "type": "address"
        }
      ],
      "name": "OwnershipTransferred",
      "type": "event"
    },
    {
      "anonymous": false,
      "inputs": [
        {
          "indexed": false,
          "internalType": "bool",
          "name": "success",
          "type": "bool"
        },
        {
          "indexed": false,
          "internalType": "bytes",
          "name": "data",
          "type": "bytes"
        }
      ],
      "name": "Response",
      "type": "event"
    },
    {
      "anonymous": false,
      "inputs": [
        {
          "indexed": true,
          "internalType": "address",
          "name": "operator",
          "type": "address"
        },
        {
          "indexed": true,
          "internalType": "address",
          "name": "from",
          "type": "address"
        },
        {
          "indexed": true,
          "internalType": "address",
          "name": "to",
          "type": "address"
        },
        {
          "indexed": false,
          "internalType": "uint256[]",
          "name": "ids",
          "type": "uint256[]"
        },
        {
          "indexed": false,
          "internalType": "uint256[]",
          "name": "values",
          "type": "uint256[]"
        }
      ],
      "name": "TransferBatch",
      "type": "event"
    },
    {
      "anonymous": false,
      "inputs": [
        {
          "indexed": true,
          "internalType": "address",
          "name": "operator",
          "type": "address"
        },
        {
          "indexed": true,
          "internalType": "address",
          "name": "from",
          "type": "address"
        },
        {
          "indexed": true,
          "internalType": "address",
          "name": "to",
          "type": "address"
        },
        {
          "indexed": false,
          "internalType": "uint256",
          "name": "id",
          "type": "uint256"
        },
        {
          "indexed": false,
          "internalType": "uint256",
          "name": "value",
          "type": "uint256"
        }
      ],
      "name": "TransferSingle",
      "type": "event"
    },
    {
      "anonymous": false,
      "inputs": [
        {
          "indexed": false,
          "internalType": "string",
          "name": "value",
          "type": "string"
        },
        {
          "indexed": true,
          "internalType": "uint256",
          "name": "id",
          "type": "uint256"
        }
      ],
      "name": "URI",
      "type": "event"
    },
    {
      "anonymous": false,
      "inputs": [
        {
          "indexed": false,
          "internalType": "address",
          "name": "a",
          "type": "address"
        }
      ],
      "name": "VRFConsumerCreated",
      "type": "event"
    },
    {
      "anonymous": false,
      "inputs": [
        {
          "indexed": false,
          "internalType": "address",
          "name": "user",
          "type": "address"
        },
        {
          "indexed": false,
          "internalType": "uint256",
          "name": "id",
          "type": "uint256"
        }
      ],
      "name": "packMinted",
      "type": "event"
    },
    {
      "inputs": [],
      "name": "REVEAL_TIMESTAMP",
      "outputs": [
        {
          "internalType": "uint256",
          "name": "",
          "type": "uint256"
        }
      ],
      "stateMutability": "view",
      "type": "function"
    },
    {
      "inputs": [
        {
          "internalType": "address",
          "name": "account",
          "type": "address"
        },
        {
          "internalType": "uint256",
          "name": "id",
          "type": "uint256"
        }
      ],
      "name": "balanceOf",
      "outputs": [
        {
          "internalType": "uint256",
          "name": "",
          "type": "uint256"
        }
      ],
      "stateMutability": "view",
      "type": "function"
    },
    {
      "inputs": [
        {
          "internalType": "address[]",
          "name": "accounts",
          "type": "address[]"
        },
        {
          "internalType": "uint256[]",
          "name": "ids",
          "type": "uint256[]"
        }
      ],
      "name": "balanceOfBatch",
      "outputs": [
        {
          "internalType": "uint256[]",
          "name": "",
          "type": "uint256[]"
        }
      ],
      "stateMutability": "view",
      "type": "function"
    },
    {
      "inputs": [],
      "name": "burnBoosterPack",
      "outputs": [],
      "stateMutability": "nonpayable",
      "type": "function"
    },
    {
      "inputs": [],
      "name": "burnStarterPack",
      "outputs": [],
      "stateMutability": "nonpayable",
      "type": "function"
    },
    {
      "inputs": [],
      "name": "emergencySetStartingIndexBlock",
      "outputs": [],
      "stateMutability": "nonpayable",
      "type": "function"
    },
    {
      "inputs": [],
      "name": "generateStarterPackIndices",
      "outputs": [],
      "stateMutability": "nonpayable",
      "type": "function"
    },
    {
      "inputs": [],
      "name": "getNFTPerAthlete",
      "outputs": [
        {
          "internalType": "uint256",
          "name": "",
          "type": "uint256"
        }
      ],
      "stateMutability": "view",
      "type": "function"
    },
    {
      "inputs": [],
      "name": "getRandomNum",
      "outputs": [],
      "stateMutability": "nonpayable",
      "type": "function"
    },
    {
      "inputs": [],
      "name": "getStarterPackIndices",
      "outputs": [
        {
          "internalType": "uint256[5]",
          "name": "",
          "type": "uint256[5]"
        }
      ],
      "stateMutability": "view",
      "type": "function"
    },
    {
      "inputs": [
        {
          "internalType": "address",
          "name": "account",
          "type": "address"
        },
        {
          "internalType": "address",
          "name": "operator",
          "type": "address"
        }
      ],
      "name": "isApprovedForAll",
      "outputs": [
        {
          "internalType": "bool",
          "name": "",
          "type": "bool"
        }
      ],
      "stateMutability": "view",
      "type": "function"
    },
    {
      "inputs": [],
      "name": "mintBoosterPack",
      "outputs": [],
      "stateMutability": "nonpayable",
      "type": "function"
    },
    {
      "inputs": [],
      "name": "mintStarterPack",
      "outputs": [],
      "stateMutability": "nonpayable",
      "type": "function"
    },
    {
      "inputs": [],
      "name": "owner",
      "outputs": [
        {
          "internalType": "address",
          "name": "",
          "type": "address"
        }
      ],
      "stateMutability": "view",
      "type": "function"
    },
    {
      "inputs": [],
      "name": "packsReadyToOpen",
      "outputs": [
        {
          "internalType": "bool",
          "name": "",
          "type": "bool"
        }
      ],
      "stateMutability": "view",
      "type": "function"
    },
    {
      "inputs": [],
      "name": "pseudoRandomNumber",
      "outputs": [
        {
          "internalType": "uint256",
          "name": "",
          "type": "uint256"
        }
      ],
      "stateMutability": "view",
      "type": "function"
    },
    {
      "inputs": [],
      "name": "renounceOwnership",
      "outputs": [],
      "stateMutability": "nonpayable",
      "type": "function"
    },
    {
      "inputs": [
        {
          "internalType": "address",
          "name": "from",
          "type": "address"
        },
        {
          "internalType": "address",
          "name": "to",
          "type": "address"
        },
        {
          "internalType": "uint256[]",
          "name": "ids",
          "type": "uint256[]"
        },
        {
          "internalType": "uint256[]",
          "name": "amounts",
          "type": "uint256[]"
        },
        {
          "internalType": "bytes",
          "name": "data",
          "type": "bytes"
        }
      ],
      "name": "safeBatchTransferFrom",
      "outputs": [],
      "stateMutability": "nonpayable",
      "type": "function"
    },
    {
      "inputs": [
        {
          "internalType": "address",
          "name": "from",
          "type": "address"
        },
        {
          "internalType": "address",
          "name": "to",
          "type": "address"
        },
        {
          "internalType": "uint256",
          "name": "id",
          "type": "uint256"
        },
        {
          "internalType": "uint256",
          "name": "amount",
          "type": "uint256"
        },
        {
          "internalType": "bytes",
          "name": "data",
          "type": "bytes"
        }
      ],
      "name": "safeTransferFrom",
      "outputs": [],
      "stateMutability": "nonpayable",
      "type": "function"
    },
    {
      "inputs": [
        {
          "internalType": "address",
          "name": "operator",
          "type": "address"
        },
        {
          "internalType": "bool",
          "name": "approved",
          "type": "bool"
        }
      ],
      "name": "setApprovalForAll",
      "outputs": [],
      "stateMutability": "nonpayable",
      "type": "function"
    },
    {
      "inputs": [],
      "name": "setPacksReady",
      "outputs": [],
      "stateMutability": "nonpayable",
      "type": "function"
    },
    {
      "inputs": [
        {
          "internalType": "string",
          "name": "provenanceHash",
          "type": "string"
        }
      ],
      "name": "setProvenanceHash",
      "outputs": [],
      "stateMutability": "nonpayable",
      "type": "function"
    },
    {
      "inputs": [],
      "name": "setStartingIndex",
      "outputs": [],
      "stateMutability": "nonpayable",
      "type": "function"
    },
    {
      "inputs": [
        {
          "internalType": "uint256",
          "name": "tokenId",
          "type": "uint256"
        },
        {
          "internalType": "string",
          "name": "uri",
          "type": "string"
        }
      ],
      "name": "setTokenUri",
      "outputs": [],
      "stateMutability": "nonpayable",
      "type": "function"
    },
    {
      "inputs": [],
      "name": "setURIs",
      "outputs": [],
      "stateMutability": "nonpayable",
      "type": "function"
    },
    {
      "inputs": [
        {
          "internalType": "bytes4",
          "name": "interfaceId",
          "type": "bytes4"
        }
      ],
      "name": "supportsInterface",
      "outputs": [
        {
          "internalType": "bool",
          "name": "",
          "type": "bool"
        }
      ],
      "stateMutability": "view",
      "type": "function"
    },
    {
      "inputs": [
        {
          "internalType": "address",
          "name": "newOwner",
          "type": "address"
        }
      ],
      "name": "transferOwnership",
      "outputs": [],
      "stateMutability": "nonpayable",
      "type": "function"
    },
    {
      "inputs": [
        {
          "internalType": "uint256",
          "name": "tokenId",
          "type": "uint256"
        }
      ],
      "name": "uri",
      "outputs": [
        {
          "internalType": "string",
          "name": "",
          "type": "string"
        }
      ],
      "stateMutability": "view",
      "type": "function"
    }
  ],
  "bytecode": "0x6080604052612710600f556001601060086101000a81548160ff0219169083151502179055506008546011556011546012556040518060400160405280601581526020017f68747470733a2f2f697066732e696f2f697066732f0000000000000000000000815250601690805190602001906200007e9291906200041f565b506040518060200160405280600081525060199080519060200190620000a69291906200041f565b5073613314b67165013054fa0497b7074189b411fee1602460006101000a81548173ffffffffffffffffffffffffffffffffffffffff021916908373ffffffffffffffffffffffffffffffffffffffff1602179055503480156200010957600080fd5b50604051620057d7380380620057d783398181016040528101906200012f919062000643565b6040518060200160405280600081525062000150816200026960201b60201c565b5062000171620001656200028560201b60201c565b6200028d60201b60201c565b620001bc6040518060400160405280601281526020017f4d616b696e6720636f6e74726163742e2e2e00000000000000000000000000008152506200035360201b6200199e1760201c565b836000015160088190555083602001516009819055508360400151600a819055508360600151600b819055508360800151600c819055508360a00151600d819055508360c00151600e819055508260059080519060200190620002219291906200041f565b5081600690805190602001906200023a9291906200041f565b508060079080519060200190620002539291906200041f565b508360e00151600f819055505050505062000944565b8060029080519060200190620002819291906200041f565b5050565b600033905090565b6000600360009054906101000a900473ffffffffffffffffffffffffffffffffffffffff16905081600360006101000a81548173ffffffffffffffffffffffffffffffffffffffff021916908373ffffffffffffffffffffffffffffffffffffffff1602179055508173ffffffffffffffffffffffffffffffffffffffff168173ffffffffffffffffffffffffffffffffffffffff167f8be0079c531659141344cd1fd0a4f28419497f9722a3daafe3b4186f6b6457e060405160405180910390a35050565b620003f3816040516024016200036a919062000757565b6040516020818303038152906040527f41304fac000000000000000000000000000000000000000000000000000000007bffffffffffffffffffffffffffffffffffffffffffffffffffffffff19166020820180517bffffffffffffffffffffffffffffffffffffffffffffffffffffffff8381831617835250505050620003f660201b60201c565b50565b60008151905060006a636f6e736f6c652e6c6f679050602083016000808483855afa5050505050565b8280546200042d9062000836565b90600052602060002090601f0160209004810192826200045157600085556200049d565b82601f106200046c57805160ff19168380011785556200049d565b828001600101855582156200049d579182015b828111156200049c5782518255916020019190600101906200047f565b5b509050620004ac9190620004b0565b5090565b5b80821115620004cb576000816000905550600101620004b1565b5090565b6000620004e6620004e084620007a4565b6200077b565b9050828152602081018484840111156200050557620005046200090a565b5b6200051284828562000800565b509392505050565b600082601f83011262000532576200053162000900565b5b815162000544848260208601620004cf565b91505092915050565b6000610100828403121562000567576200056662000905565b5b620005746101006200077b565b9050600062000586848285016200062c565b60008301525060206200059c848285016200062c565b6020830152506040620005b2848285016200062c565b6040830152506060620005c8848285016200062c565b6060830152506080620005de848285016200062c565b60808301525060a0620005f4848285016200062c565b60a08301525060c06200060a848285016200062c565b60c08301525060e062000620848285016200062c565b60e08301525092915050565b6000815190506200063d816200092a565b92915050565b600080600080610160858703121562000661576200066062000914565b5b600062000671878288016200054d565b94505061010085015167ffffffffffffffff8111156200069657620006956200090f565b5b620006a4878288016200051a565b93505061012085015167ffffffffffffffff811115620006c957620006c86200090f565b5b620006d7878288016200051a565b92505061014085015167ffffffffffffffff811115620006fc57620006fb6200090f565b5b6200070a878288016200051a565b91505092959194509250565b60006200072382620007da565b6200072f8185620007e5565b93506200074181856020860162000800565b6200074c8162000919565b840191505092915050565b6000602082019050818103600083015262000773818462000716565b905092915050565b6000620007876200079a565b90506200079582826200086c565b919050565b6000604051905090565b600067ffffffffffffffff821115620007c257620007c1620008d1565b5b620007cd8262000919565b9050602081019050919050565b600081519050919050565b600082825260208201905092915050565b6000819050919050565b60005b838110156200082057808201518184015260208101905062000803565b8381111562000830576000848401525b50505050565b600060028204905060018216806200084f57607f821691505b60208210811415620008665762000865620008a2565b5b50919050565b620008778262000919565b810181811067ffffffffffffffff82111715620008995762000898620008d1565b5b80604052505050565b7f4e487b7100000000000000000000000000000000000000000000000000000000600052602260045260246000fd5b7f4e487b7100000000000000000000000000000000000000000000000000000000600052604160045260246000fd5b600080fd5b600080fd5b600080fd5b600080fd5b600080fd5b6000601f19601f8301169050919050565b6200093581620007f6565b81146200094157600080fd5b50565b614e8380620009546000396000f3fe608060405234801561001057600080fd5b50600436106101c35760003560e01c80635d2db2bf116100f9578063bbb13e1711610097578063e986655011610071578063e986655014610422578063f242432a1461042c578063f2fde38b14610448578063f7b6cf7514610464576101c3565b8063bbb13e17146103ca578063be59ec26146103d4578063e985e9c5146103f2576101c3565b80637d17fcbe116100d35780637d17fcbe1461037c5780638da5cb5b146103865780639ebf488b146103a4578063a22cb465146103ae576101c3565b80635d2db2bf1461035e578063715018a61461036857806375223f9214610372576101c3565b806319b60439116101665780633c1d4a99116101405780633c1d4a99146102ea5780634e1273f4146103085780634f3551d71461033857806357f7789e14610342576101c3565b806319b60439146102ba57806325b814f4146102c45780632eb2c2d6146102ce576101c3565b806310969523116101a2578063109695231461025857806313dc2db214610274578063143cc1441461027e57806318e20a381461029c576101c3565b8062fdd58e146101c857806301ffc9a7146101f85780630e89341c14610228575b600080fd5b6101e260048036038101906101dd9190613438565b610482565b6040516101ef91906140d3565b60405180910390f35b610212600480360381019061020d91906134f0565b61054b565b60405161021f9190613d4f565b60405180910390f35b610242600480360381019061023d9190613593565b61062d565b60405161024f9190613d6a565b60405180910390f35b610272600480360381019061026d919061354a565b6106d2565b005b61027c610768565b005b61028661087a565b60405161029391906140d3565b60405180910390f35b6102a4610900565b6040516102b191906140d3565b60405180910390f35b6102c2610906565b005b6102cc6109ae565b005b6102e860048036038101906102e39190613292565b610aae565b005b6102f2610b4f565b6040516102ff9190613cdb565b60405180910390f35b610322600480360381019061031d9190613478565b610c16565b60405161032f9190613cf6565b60405180910390f35b610340610d2f565b005b61035c600480360381019061035791906135c0565b610e38565b005b610366610f42565b005b610370611240565b005b61037a6112c8565b005b610384611375565b005b61038e61143f565b60405161039b9190613bd5565b60405180910390f35b6103ac611469565b005b6103c860048036038101906103c391906133f8565b611572565b005b6103d2611588565b005b6103dc611681565b6040516103e99190613d4f565b60405180910390f35b61040c60048036038101906104079190613252565b611694565b6040516104199190613d4f565b60405180910390f35b61042a611728565b005b61044660048036038101906104419190613361565b6117ff565b005b610462600480360381019061045d9190613225565b6118a0565b005b61046c611998565b60405161047991906140d3565b60405180910390f35b60008073ffffffffffffffffffffffffffffffffffffffff168373ffffffffffffffffffffffffffffffffffffffff1614156104f3576040517f08c379a00000000000000000000000000000000000000000000000000000000081526004016104ea90613e53565b60405180910390fd5b60008083815260200190815260200160002060008473ffffffffffffffffffffffffffffffffffffffff1673ffffffffffffffffffffffffffffffffffffffff16815260200190815260200160002054905092915050565b60007fd9b67a26000000000000000000000000000000000000000000000000000000007bffffffffffffffffffffffffffffffffffffffffffffffffffffffff1916827bffffffffffffffffffffffffffffffffffffffffffffffffffffffff1916148061061657507f0e89341c000000000000000000000000000000000000000000000000000000007bffffffffffffffffffffffffffffffffffffffffffffffffffffffff1916827bffffffffffffffffffffffffffffffffffffffffffffffffffffffff1916145b80610626575061062582611a37565b5b9050919050565b606060256000838152602001908152602001600020805461064d9061448c565b80601f01602080910402602001604051908101604052809291908181526020018280546106799061448c565b80156106c65780601f1061069b576101008083540402835291602001916106c6565b820191906000526020600020905b8154815290600101906020018083116106a957829003601f168201915b50505050509050919050565b6106da611aa1565b73ffffffffffffffffffffffffffffffffffffffff166106f861143f565b73ffffffffffffffffffffffffffffffffffffffff161461074e576040517f08c379a000000000000000000000000000000000000000000000000000000000815260040161074590613fb3565b60405180910390fd5b8060199080519060200190610764929190612edb565b5050565b610770611aa1565b73ffffffffffffffffffffffffffffffffffffffff1661078e61143f565b73ffffffffffffffffffffffffffffffffffffffff16146107e4576040517f08c379a00000000000000000000000000000000000000000000000000000000081526004016107db90613fb3565b60405180910390fd5b60006040518060a00160405280600260ff168152602001600c60ff168152602001601b60ff168152602001602460ff168152602001603160ff16815250905060005b60058110156108765781816005811061084257610841614620565b5b602002015160ff16601c826005811061085e5761085d614620565b5b0181905550808061086e906144ef565b915050610826565b5050565b6000610884611aa1565b73ffffffffffffffffffffffffffffffffffffffff166108a261143f565b73ffffffffffffffffffffffffffffffffffffffff16146108f8576040517f08c379a00000000000000000000000000000000000000000000000000000000081526004016108ef90613fb3565b60405180910390fd5b600954905090565b600f5481565b61090e611aa1565b73ffffffffffffffffffffffffffffffffffffffff1661092c61143f565b73ffffffffffffffffffffffffffffffffffffffff1614610982576040517f08c379a000000000000000000000000000000000000000000000000000000000815260040161097990613fb3565b60405180910390fd5b601060089054906101000a900460ff1615601060086101000a81548160ff021916908315150217905550565b6109ec6040518060400160405280601a81526020017f52657175657374696e672072616e646f6d20776f7264732e2e2e00000000000081525061199e565b602460009054906101000a900473ffffffffffffffffffffffffffffffffffffffff1673ffffffffffffffffffffffffffffffffffffffff1663e0c862896040518163ffffffff1660e01b8152600401600060405180830381600087803b158015610a5657600080fd5b505af1158015610a6a573d6000803e3d6000fd5b50505050610aac6040518060400160405280601381526020017f476f742072616e646f6d20776f7264732e2e2e0000000000000000000000000081525061199e565b565b610ab6611aa1565b73ffffffffffffffffffffffffffffffffffffffff168573ffffffffffffffffffffffffffffffffffffffff161480610afc5750610afb85610af6611aa1565b611694565b5b610b3b576040517f08c379a0000000000000000000000000000000000000000000000000000000008152600401610b3290613f33565b60405180910390fd5b610b488585858585611aa9565b5050505050565b610b57612f61565b610b5f611aa1565b73ffffffffffffffffffffffffffffffffffffffff16610b7d61143f565b73ffffffffffffffffffffffffffffffffffffffff1614610bd3576040517f08c379a0000000000000000000000000000000000000000000000000000000008152600401610bca90613fb3565b60405180910390fd5b601c600580602002604051908101604052809291908260058015610c0c576020028201915b815481526020019060010190808311610bf8575b5050505050905090565b60608151835114610c5c576040517f08c379a0000000000000000000000000000000000000000000000000000000008152600401610c5390614073565b60405180910390fd5b6000835167ffffffffffffffff811115610c7957610c7861464f565b5b604051908082528060200260200182016040528015610ca75781602001602082028036833780820191505090505b50905060005b8451811015610d2457610cf4858281518110610ccc57610ccb614620565b5b6020026020010151858381518110610ce757610ce6614620565b5b6020026020010151610482565b828281518110610d0757610d06614620565b5b60200260200101818152505080610d1d906144ef565b9050610cad565b508091505092915050565b600e5460145410610d75576040517f08c379a0000000000000000000000000000000000000000000000000000000008152600401610d6c90613ff3565b60405180910390fd5b6001610d8333601154610482565b10610dc3576040517f08c379a0000000000000000000000000000000000000000000000000000000008152600401610dba90614033565b60405180910390fd5b610de133601254600160405180602001604052806000815250611dbd565b600160146000828254610df491906142b4565b925050819055507f2e0f4d63dcc00e6a11c8aef9f6e15c1f9cd6e9a090b2dd99c7b797f1a28d300d33601454604051610e2e929190613cb2565b60405180910390a1565b610e40611aa1565b73ffffffffffffffffffffffffffffffffffffffff16610e5e61143f565b73ffffffffffffffffffffffffffffffffffffffff1614610eb4576040517f08c379a0000000000000000000000000000000000000000000000000000000008152600401610eab90613fb3565b60405180910390fd5b6000602560008481526020019081526020016000208054610ed49061448c565b905014610f16576040517f08c379a0000000000000000000000000000000000000000000000000000000008152600401610f0d90613f53565b60405180910390fd5b80602560008481526020019081526020016000209080519060200190610f3d929190612edb565b505050565b610f4a611aa1565b73ffffffffffffffffffffffffffffffffffffffff16610f6861143f565b73ffffffffffffffffffffffffffffffffffffffff1614610fbe576040517f08c379a0000000000000000000000000000000000000000000000000000000008152600401610fb590613fb3565b60405180910390fd5b60005b6008548110156111cd5761100c6040518060400160405280601281526020017f5374617274696e6720696e646578206973200000000000000000000000000000815250601854611f53565b61104d6040518060400160405280600c81526020017f6e756d206174686c657465730000000000000000000000000000000000000000815250600854611f53565b60006008548260185461106091906142b4565b61106a9190614562565b90506110ab6040518060400160405280600b81526020017f6d696e7420696e6465782000000000000000000000000000000000000000000081525082611f53565b6110df8160056110ba84611fef565b6040516020016110cb929190613ba6565b604051602081830303815290604052610e38565b6111b96040518060400160405280600881526020017f4e657720555249200000000000000000000000000000000000000000000000008152506025600084815260200190815260200160002080546111369061448c565b80601f01602080910402602001604051908101604052809291908181526020018280546111629061448c565b80156111af5780601f10611184576101008083540402835291602001916111af565b820191906000526020600020905b81548152906001019060200180831161119257829003601f168201915b5050505050612150565b5080806111c5906144ef565b915050610fc1565b5061120660016008546111e091906142b4565b60066040516020016111f29190613b8f565b604051602081830303815290604052610e38565b61123e600260085461121891906142b4565b600760405160200161122a9190613b8f565b604051602081830303815290604052610e38565b565b611248611aa1565b73ffffffffffffffffffffffffffffffffffffffff1661126661143f565b73ffffffffffffffffffffffffffffffffffffffff16146112bc576040517f08c379a00000000000000000000000000000000000000000000000000000000081526004016112b390613fb3565b60405180910390fd5b6112c660006121ec565b565b601060089054906101000a900460ff16611317576040517f08c379a000000000000000000000000000000000000000000000000000000000815260040161130e90614013565b60405180910390fd5b600061132533601254610482565b11611365576040517f08c379a000000000000000000000000000000000000000000000000000000000815260040161135c90613e33565b60405180910390fd5b6113733360125460016122b2565b565b61137d611aa1565b73ffffffffffffffffffffffffffffffffffffffff1661139b61143f565b73ffffffffffffffffffffffffffffffffffffffff16146113f1576040517f08c379a00000000000000000000000000000000000000000000000000000000081526004016113e890613fb3565b60405180910390fd5b600060185414611436576040517f08c379a000000000000000000000000000000000000000000000000000000000815260040161142d90613ef3565b60405180910390fd5b43601781905550565b6000600360009054906101000a900473ffffffffffffffffffffffffffffffffffffffff16905090565b600e54601354106114af576040517f08c379a00000000000000000000000000000000000000000000000000000000081526004016114a690613ff3565b60405180910390fd5b60016114bd33601154610482565b106114fd576040517f08c379a00000000000000000000000000000000000000000000000000000000081526004016114f490614033565b60405180910390fd5b61151b33601154600160405180602001604052806000815250611dbd565b60016013600082825461152e91906142b4565b925050819055507f2e0f4d63dcc00e6a11c8aef9f6e15c1f9cd6e9a090b2dd99c7b797f1a28d300d33601354604051611568929190613cb2565b60405180910390a1565b61158461157d611aa1565b83836124cf565b5050565b601060089054906101000a900460ff166115d7576040517f08c379a00000000000000000000000000000000000000000000000000000000081526004016115ce90614013565b60405180910390fd5b60016115e533601154610482565b14611625576040517f08c379a000000000000000000000000000000000000000000000000000000000815260040161161c90613fd3565b60405180910390fd5b61162d610768565b60005b60058160ff1610156116705761165d601c8260ff166005811061165657611655614620565b5b015461263c565b808061166890614538565b915050611630565b5061167f3360115460016122b2565b565b601060089054906101000a900460ff1681565b6000600160008473ffffffffffffffffffffffffffffffffffffffff1673ffffffffffffffffffffffffffffffffffffffff16815260200190815260200160002060008373ffffffffffffffffffffffffffffffffffffffff1673ffffffffffffffffffffffffffffffffffffffff16815260200190815260200160002060009054906101000a900460ff16905092915050565b611730611aa1565b73ffffffffffffffffffffffffffffffffffffffff1661174e61143f565b73ffffffffffffffffffffffffffffffffffffffff16146117a4576040517f08c379a000000000000000000000000000000000000000000000000000000000815260040161179b90613fb3565b60405180910390fd5b6009546008546117b4919061433b565b6001436117c19190614395565b4060001c6117cf9190614562565b601881905550600060185414156117fd576117f660016018546127b790919063ffffffff16565b6018819055505b565b611807611aa1565b73ffffffffffffffffffffffffffffffffffffffff168573ffffffffffffffffffffffffffffffffffffffff16148061184d575061184c85611847611aa1565b611694565b5b61188c576040517f08c379a000000000000000000000000000000000000000000000000000000000815260040161188390613eb3565b60405180910390fd5b61189985858585856127cd565b5050505050565b6118a8611aa1565b73ffffffffffffffffffffffffffffffffffffffff166118c661143f565b73ffffffffffffffffffffffffffffffffffffffff161461191c576040517f08c379a000000000000000000000000000000000000000000000000000000000815260040161191390613fb3565b60405180910390fd5b600073ffffffffffffffffffffffffffffffffffffffff168173ffffffffffffffffffffffffffffffffffffffff16141561198c576040517f08c379a000000000000000000000000000000000000000000000000000000000815260040161198390613e73565b60405180910390fd5b611995816121ec565b50565b601b5481565b611a34816040516024016119b29190613d6a565b6040516020818303038152906040527f41304fac000000000000000000000000000000000000000000000000000000007bffffffffffffffffffffffffffffffffffffffffffffffffffffffff19166020820180517bffffffffffffffffffffffffffffffffffffffffffffffffffffffff8381831617835250505050612a4f565b50565b60007f01ffc9a7000000000000000000000000000000000000000000000000000000007bffffffffffffffffffffffffffffffffffffffffffffffffffffffff1916827bffffffffffffffffffffffffffffffffffffffffffffffffffffffff1916149050919050565b600033905090565b8151835114611aed576040517f08c379a0000000000000000000000000000000000000000000000000000000008152600401611ae490614093565b60405180910390fd5b600073ffffffffffffffffffffffffffffffffffffffff168473ffffffffffffffffffffffffffffffffffffffff161415611b5d576040517f08c379a0000000000000000000000000000000000000000000000000000000008152600401611b5490613f13565b60405180910390fd5b6000611b67611aa1565b9050611b77818787878787612a78565b60005b8451811015611d28576000858281518110611b9857611b97614620565b5b602002602001015190506000858381518110611bb757611bb6614620565b5b60200260200101519050600080600084815260200190815260200160002060008b73ffffffffffffffffffffffffffffffffffffffff1673ffffffffffffffffffffffffffffffffffffffff16815260200190815260200160002054905081811015611c58576040517f08c379a0000000000000000000000000000000000000000000000000000000008152600401611c4f90613f93565b60405180910390fd5b81810360008085815260200190815260200160002060008c73ffffffffffffffffffffffffffffffffffffffff1673ffffffffffffffffffffffffffffffffffffffff168152602001908152602001600020819055508160008085815260200190815260200160002060008b73ffffffffffffffffffffffffffffffffffffffff1673ffffffffffffffffffffffffffffffffffffffff1681526020019081526020016000206000828254611d0d91906142b4565b9250508190555050505080611d21906144ef565b9050611b7a565b508473ffffffffffffffffffffffffffffffffffffffff168673ffffffffffffffffffffffffffffffffffffffff168273ffffffffffffffffffffffffffffffffffffffff167f4a39dc06d4c0dbc64b70af90fd698a233a518aa5d07e595d983b8c0526c8f7fb8787604051611d9f929190613d18565b60405180910390a4611db5818787878787612a80565b505050505050565b600073ffffffffffffffffffffffffffffffffffffffff168473ffffffffffffffffffffffffffffffffffffffff161415611e2d576040517f08c379a0000000000000000000000000000000000000000000000000000000008152600401611e24906140b3565b60405180910390fd5b6000611e37611aa1565b9050611e5881600087611e4988612c67565b611e5288612c67565b87612a78565b8260008086815260200190815260200160002060008773ffffffffffffffffffffffffffffffffffffffff1673ffffffffffffffffffffffffffffffffffffffff1681526020019081526020016000206000828254611eb791906142b4565b925050819055508473ffffffffffffffffffffffffffffffffffffffff16600073ffffffffffffffffffffffffffffffffffffffff168273ffffffffffffffffffffffffffffffffffffffff167fc3d58168c5ae7397731d063d5bbf3d657854427343f4c083240f7aacaa2d0f628787604051611f359291906140ee565b60405180910390a4611f4c81600087878787612ce1565b5050505050565b611feb8282604051602401611f69929190613dc3565b6040516020818303038152906040527f9710a9d0000000000000000000000000000000000000000000000000000000007bffffffffffffffffffffffffffffffffffffffffffffffffffffffff19166020820180517bffffffffffffffffffffffffffffffffffffffffffffffffffffffff8381831617835250505050612a4f565b5050565b60606000821415612037576040518060400160405280600181526020017f3000000000000000000000000000000000000000000000000000000000000000815250905061214b565b600082905060005b60008214612069578080612052906144ef565b915050600a82612062919061430a565b915061203f565b60008167ffffffffffffffff8111156120855761208461464f565b5b6040519080825280601f01601f1916602001820160405280156120b75781602001600182028036833780820191505090505b5090505b60008514612144576001826120d09190614395565b9150600a856120df9190614562565b60306120eb91906142b4565b60f81b81838151811061210157612100614620565b5b60200101907effffffffffffffffffffffffffffffffffffffffffffffffffffffffffffff1916908160001a905350600a8561213d919061430a565b94506120bb565b8093505050505b919050565b6121e88282604051602401612166929190613d8c565b6040516020818303038152906040527f4b5c4277000000000000000000000000000000000000000000000000000000007bffffffffffffffffffffffffffffffffffffffffffffffffffffffff19166020820180517bffffffffffffffffffffffffffffffffffffffffffffffffffffffff8381831617835250505050612a4f565b5050565b6000600360009054906101000a900473ffffffffffffffffffffffffffffffffffffffff16905081600360006101000a81548173ffffffffffffffffffffffffffffffffffffffff021916908373ffffffffffffffffffffffffffffffffffffffff1602179055508173ffffffffffffffffffffffffffffffffffffffff168173ffffffffffffffffffffffffffffffffffffffff167f8be0079c531659141344cd1fd0a4f28419497f9722a3daafe3b4186f6b6457e060405160405180910390a35050565b600073ffffffffffffffffffffffffffffffffffffffff168373ffffffffffffffffffffffffffffffffffffffff161415612322576040517f08c379a000000000000000000000000000000000000000000000000000000000815260040161231990613f73565b60405180910390fd5b600061232c611aa1565b905061235c8185600061233e87612c67565b61234787612c67565b60405180602001604052806000815250612a78565b600080600085815260200190815260200160002060008673ffffffffffffffffffffffffffffffffffffffff1673ffffffffffffffffffffffffffffffffffffffff168152602001908152602001600020549050828110156123f3576040517f08c379a00000000000000000000000000000000000000000000000000000000081526004016123ea90613e93565b60405180910390fd5b82810360008086815260200190815260200160002060008773ffffffffffffffffffffffffffffffffffffffff1673ffffffffffffffffffffffffffffffffffffffff16815260200190815260200160002081905550600073ffffffffffffffffffffffffffffffffffffffff168573ffffffffffffffffffffffffffffffffffffffff168373ffffffffffffffffffffffffffffffffffffffff167fc3d58168c5ae7397731d063d5bbf3d657854427343f4c083240f7aacaa2d0f6287876040516124c09291906140ee565b60405180910390a45050505050565b8173ffffffffffffffffffffffffffffffffffffffff168373ffffffffffffffffffffffffffffffffffffffff16141561253e576040517f08c379a000000000000000000000000000000000000000000000000000000000815260040161253590614053565b60405180910390fd5b80600160008573ffffffffffffffffffffffffffffffffffffffff1673ffffffffffffffffffffffffffffffffffffffff16815260200190815260200160002060008473ffffffffffffffffffffffffffffffffffffffff1673ffffffffffffffffffffffffffffffffffffffff16815260200190815260200160002060006101000a81548160ff0219169083151502179055508173ffffffffffffffffffffffffffffffffffffffff168373ffffffffffffffffffffffffffffffffffffffff167f17307eab39ab6107e8899845ad3d59bd9653f200f220920489ca2b5937696c318360405161262f9190613d4f565b60405180910390a3505050565b61267d6040518060400160405280600f81526020017f5374617274696e6720696e646578200000000000000000000000000000000000815250601854611f53565b6126bc6040518060400160405280600f81526020017f4e6577206d696e7420696e64657820000000000000000000000000000000000081525082611f53565b6009546008546126cc919061433b565b60155410156127b45760095460266000838152602001908152602001600020541061272c576040517f08c379a000000000000000000000000000000000000000000000000000000000815260040161272390613ed3565b60405180910390fd5b61276e338260016040518060400160405280600481526020017f3078303000000000000000000000000000000000000000000000000000000000815250611dbd565b600160266000838152602001908152602001600020600082825461279291906142b4565b925050819055506001601560008282546127ac91906142b4565b925050819055505b50565b600081836127c591906142b4565b905092915050565b600073ffffffffffffffffffffffffffffffffffffffff168473ffffffffffffffffffffffffffffffffffffffff16141561283d576040517f08c379a000000000000000000000000000000000000000000000000000000000815260040161283490613f13565b60405180910390fd5b6000612847611aa1565b905061286781878761285888612c67565b61286188612c67565b87612a78565b600080600086815260200190815260200160002060008873ffffffffffffffffffffffffffffffffffffffff1673ffffffffffffffffffffffffffffffffffffffff168152602001908152602001600020549050838110156128fe576040517f08c379a00000000000000000000000000000000000000000000000000000000081526004016128f590613f93565b60405180910390fd5b83810360008087815260200190815260200160002060008973ffffffffffffffffffffffffffffffffffffffff1673ffffffffffffffffffffffffffffffffffffffff168152602001908152602001600020819055508360008087815260200190815260200160002060008873ffffffffffffffffffffffffffffffffffffffff1673ffffffffffffffffffffffffffffffffffffffff16815260200190815260200160002060008282546129b391906142b4565b925050819055508573ffffffffffffffffffffffffffffffffffffffff168773ffffffffffffffffffffffffffffffffffffffff168373ffffffffffffffffffffffffffffffffffffffff167fc3d58168c5ae7397731d063d5bbf3d657854427343f4c083240f7aacaa2d0f628888604051612a309291906140ee565b60405180910390a4612a46828888888888612ce1565b50505050505050565b60008151905060006a636f6e736f6c652e6c6f679050602083016000808483855afa5050505050565b505050505050565b612a9f8473ffffffffffffffffffffffffffffffffffffffff16612ec8565b15612c5f578373ffffffffffffffffffffffffffffffffffffffff1663bc197c8187878686866040518663ffffffff1660e01b8152600401612ae5959493929190613bf0565b602060405180830381600087803b158015612aff57600080fd5b505af1925050508015612b3057506040513d601f19601f82011682018060405250810190612b2d919061351d565b60015b612bd657612b3c61467e565b806308c379a01415612b995750612b51614d5b565b80612b5c5750612b9b565b806040517f08c379a0000000000000000000000000000000000000000000000000000000008152600401612b909190613d6a565b60405180910390fd5b505b6040517f08c379a0000000000000000000000000000000000000000000000000000000008152600401612bcd90613df3565b60405180910390fd5b63bc197c8160e01b7bffffffffffffffffffffffffffffffffffffffffffffffffffffffff1916817bffffffffffffffffffffffffffffffffffffffffffffffffffffffff191614612c5d576040517f08c379a0000000000000000000000000000000000000000000000000000000008152600401612c5490613e13565b60405180910390fd5b505b505050505050565b60606000600167ffffffffffffffff811115612c8657612c8561464f565b5b604051908082528060200260200182016040528015612cb45781602001602082028036833780820191505090505b5090508281600081518110612ccc57612ccb614620565b5b60200260200101818152505080915050919050565b612d008473ffffffffffffffffffffffffffffffffffffffff16612ec8565b15612ec0578373ffffffffffffffffffffffffffffffffffffffff1663f23a6e6187878686866040518663ffffffff1660e01b8152600401612d46959493929190613c58565b602060405180830381600087803b158015612d6057600080fd5b505af1925050508015612d9157506040513d601f19601f82011682018060405250810190612d8e919061351d565b60015b612e3757612d9d61467e565b806308c379a01415612dfa5750612db2614d5b565b80612dbd5750612dfc565b806040517f08c379a0000000000000000000000000000000000000000000000000000000008152600401612df19190613d6a565b60405180910390fd5b505b6040517f08c379a0000000000000000000000000000000000000000000000000000000008152600401612e2e90613df3565b60405180910390fd5b63f23a6e6160e01b7bffffffffffffffffffffffffffffffffffffffffffffffffffffffff1916817bffffffffffffffffffffffffffffffffffffffffffffffffffffffff191614612ebe576040517f08c379a0000000000000000000000000000000000000000000000000000000008152600401612eb590613e13565b60405180910390fd5b505b505050505050565b600080823b905060008111915050919050565b828054612ee79061448c565b90600052602060002090601f016020900481019282612f095760008555612f50565b82601f10612f2257805160ff1916838001178555612f50565b82800160010185558215612f50579182015b82811115612f4f578251825591602001919060010190612f34565b5b509050612f5d9190612f83565b5090565b6040518060a00160405280600590602082028036833780820191505090505090565b5b80821115612f9c576000816000905550600101612f84565b5090565b6000612fb3612fae8461413c565b614117565b90508083825260208201905082856020860282011115612fd657612fd56146a5565b5b60005b858110156130065781612fec8882613104565b845260208401935060208301925050600181019050612fd9565b5050509392505050565b600061302361301e84614168565b614117565b90508083825260208201905082856020860282011115613046576130456146a5565b5b60005b85811015613076578161305c8882613210565b845260208401935060208301925050600181019050613049565b5050509392505050565b600061309361308e84614194565b614117565b9050828152602081018484840111156130af576130ae6146aa565b5b6130ba84828561444a565b509392505050565b60006130d56130d0846141c5565b614117565b9050828152602081018484840111156130f1576130f06146aa565b5b6130fc84828561444a565b509392505050565b60008135905061311381614df1565b92915050565b600082601f83011261312e5761312d6146a0565b5b813561313e848260208601612fa0565b91505092915050565b600082601f83011261315c5761315b6146a0565b5b813561316c848260208601613010565b91505092915050565b60008135905061318481614e08565b92915050565b60008135905061319981614e1f565b92915050565b6000815190506131ae81614e1f565b92915050565b600082601f8301126131c9576131c86146a0565b5b81356131d9848260208601613080565b91505092915050565b600082601f8301126131f7576131f66146a0565b5b81356132078482602086016130c2565b91505092915050565b60008135905061321f81614e36565b92915050565b60006020828403121561323b5761323a6146b4565b5b600061324984828501613104565b91505092915050565b60008060408385031215613269576132686146b4565b5b600061327785828601613104565b925050602061328885828601613104565b9150509250929050565b600080600080600060a086880312156132ae576132ad6146b4565b5b60006132bc88828901613104565b95505060206132cd88828901613104565b945050604086013567ffffffffffffffff8111156132ee576132ed6146af565b5b6132fa88828901613147565b935050606086013567ffffffffffffffff81111561331b5761331a6146af565b5b61332788828901613147565b925050608086013567ffffffffffffffff811115613348576133476146af565b5b613354888289016131b4565b9150509295509295909350565b600080600080600060a0868803121561337d5761337c6146b4565b5b600061338b88828901613104565b955050602061339c88828901613104565b94505060406133ad88828901613210565b93505060606133be88828901613210565b925050608086013567ffffffffffffffff8111156133df576133de6146af565b5b6133eb888289016131b4565b9150509295509295909350565b6000806040838503121561340f5761340e6146b4565b5b600061341d85828601613104565b925050602061342e85828601613175565b9150509250929050565b6000806040838503121561344f5761344e6146b4565b5b600061345d85828601613104565b925050602061346e85828601613210565b9150509250929050565b6000806040838503121561348f5761348e6146b4565b5b600083013567ffffffffffffffff8111156134ad576134ac6146af565b5b6134b985828601613119565b925050602083013567ffffffffffffffff8111156134da576134d96146af565b5b6134e685828601613147565b9150509250929050565b600060208284031215613506576135056146b4565b5b60006135148482850161318a565b91505092915050565b600060208284031215613533576135326146b4565b5b60006135418482850161319f565b91505092915050565b6000602082840312156135605761355f6146b4565b5b600082013567ffffffffffffffff81111561357e5761357d6146af565b5b61358a848285016131e2565b91505092915050565b6000602082840312156135a9576135a86146b4565b5b60006135b784828501613210565b91505092915050565b600080604083850312156135d7576135d66146b4565b5b60006135e585828601613210565b925050602083013567ffffffffffffffff811115613606576136056146af565b5b613612858286016131e2565b9150509250929050565b60006136288383613b71565b60208301905092915050565b61363d816143c9565b82525050565b61364c81614225565b613656818461426b565b9250613661826141f6565b8060005b83811015613692578151613679878261361c565b965061368483614251565b925050600181019050613665565b505050505050565b60006136a582614230565b6136af8185614276565b93506136ba83614200565b8060005b838110156136eb5781516136d2888261361c565b97506136dd8361425e565b9250506001810190506136be565b5085935050505092915050565b613701816143db565b82525050565b60006137128261423b565b61371c8185614287565b935061372c818560208601614459565b613735816146b9565b840191505092915050565b600061374b82614246565b6137558185614298565b9350613765818560208601614459565b61376e816146b9565b840191505092915050565b600061378482614246565b61378e81856142a9565b935061379e818560208601614459565b80840191505092915050565b600081546137b78161448c565b6137c181866142a9565b945060018216600081146137dc57600181146137ed57613820565b60ff19831686528186019350613820565b6137f685614210565b60005b83811015613818578154818901526001820191506020810190506137f9565b838801955050505b50505092915050565b6000613836603483614298565b9150613841826146d7565b604082019050919050565b6000613859602883614298565b915061386482614726565b604082019050919050565b600061387c601b83614298565b915061388782614775565b602082019050919050565b600061389f602b83614298565b91506138aa8261479e565b604082019050919050565b60006138c2602683614298565b91506138cd826147ed565b604082019050919050565b60006138e5602483614298565b91506138f08261483c565b604082019050919050565b6000613908602983614298565b91506139138261488b565b604082019050919050565b600061392b602d83614298565b9150613936826148da565b604082019050919050565b600061394e601d83614298565b915061395982614929565b602082019050919050565b6000613971602583614298565b915061397c82614952565b604082019050919050565b6000613994603283614298565b915061399f826149a1565b604082019050919050565b60006139b7601483614298565b91506139c2826149f0565b602082019050919050565b60006139da602383614298565b91506139e582614a19565b604082019050919050565b60006139fd602a83614298565b9150613a0882614a68565b604082019050919050565b6000613a206005836142a9565b9150613a2b82614ab7565b600582019050919050565b6000613a43602083614298565b9150613a4e82614ae0565b602082019050919050565b6000613a66602f83614298565b9150613a7182614b09565b604082019050919050565b6000613a89602383614298565b9150613a9482614b58565b604082019050919050565b6000613aac601f83614298565b9150613ab782614ba7565b602082019050919050565b6000613acf602a83614298565b9150613ada82614bd0565b604082019050919050565b6000613af2602983614298565b9150613afd82614c1f565b604082019050919050565b6000613b15602983614298565b9150613b2082614c6e565b604082019050919050565b6000613b38602883614298565b9150613b4382614cbd565b604082019050919050565b6000613b5b602183614298565b9150613b6682614d0c565b604082019050919050565b613b7a81614433565b82525050565b613b8981614433565b82525050565b6000613b9b82846137aa565b915081905092915050565b6000613bb282856137aa565b9150613bbe8284613779565b9150613bc982613a13565b91508190509392505050565b6000602082019050613bea6000830184613634565b92915050565b600060a082019050613c056000830188613634565b613c126020830187613634565b8181036040830152613c24818661369a565b90508181036060830152613c38818561369a565b90508181036080830152613c4c8184613707565b90509695505050505050565b600060a082019050613c6d6000830188613634565b613c7a6020830187613634565b613c876040830186613b80565b613c946060830185613b80565b8181036080830152613ca68184613707565b90509695505050505050565b6000604082019050613cc76000830185613634565b613cd46020830184613b80565b9392505050565b600060a082019050613cf06000830184613643565b92915050565b60006020820190508181036000830152613d10818461369a565b905092915050565b60006040820190508181036000830152613d32818561369a565b90508181036020830152613d46818461369a565b90509392505050565b6000602082019050613d6460008301846136f8565b92915050565b60006020820190508181036000830152613d848184613740565b905092915050565b60006040820190508181036000830152613da68185613740565b90508181036020830152613dba8184613740565b90509392505050565b60006040820190508181036000830152613ddd8185613740565b9050613dec6020830184613b80565b9392505050565b60006020820190508181036000830152613e0c81613829565b9050919050565b60006020820190508181036000830152613e2c8161384c565b9050919050565b60006020820190508181036000830152613e4c8161386f565b9050919050565b60006020820190508181036000830152613e6c81613892565b9050919050565b60006020820190508181036000830152613e8c816138b5565b9050919050565b60006020820190508181036000830152613eac816138d8565b9050919050565b60006020820190508181036000830152613ecc816138fb565b9050919050565b60006020820190508181036000830152613eec8161391e565b9050919050565b60006020820190508181036000830152613f0c81613941565b9050919050565b60006020820190508181036000830152613f2c81613964565b9050919050565b60006020820190508181036000830152613f4c81613987565b9050919050565b60006020820190508181036000830152613f6c816139aa565b9050919050565b60006020820190508181036000830152613f8c816139cd565b9050919050565b60006020820190508181036000830152613fac816139f0565b9050919050565b60006020820190508181036000830152613fcc81613a36565b9050919050565b60006020820190508181036000830152613fec81613a59565b9050919050565b6000602082019050818103600083015261400c81613a7c565b9050919050565b6000602082019050818103600083015261402c81613a9f565b9050919050565b6000602082019050818103600083015261404c81613ac2565b9050919050565b6000602082019050818103600083015261406c81613ae5565b9050919050565b6000602082019050818103600083015261408c81613b08565b9050919050565b600060208201905081810360008301526140ac81613b2b565b9050919050565b600060208201905081810360008301526140cc81613b4e565b9050919050565b60006020820190506140e86000830184613b80565b92915050565b60006040820190506141036000830185613b80565b6141106020830184613b80565b9392505050565b6000614121614132565b905061412d82826144be565b919050565b6000604051905090565b600067ffffffffffffffff8211156141575761415661464f565b5b602082029050602081019050919050565b600067ffffffffffffffff8211156141835761418261464f565b5b602082029050602081019050919050565b600067ffffffffffffffff8211156141af576141ae61464f565b5b6141b8826146b9565b9050602081019050919050565b600067ffffffffffffffff8211156141e0576141df61464f565b5b6141e9826146b9565b9050602081019050919050565b6000819050919050565b6000819050602082019050919050565b60008190508160005260206000209050919050565b600060059050919050565b600081519050919050565b600081519050919050565b600081519050919050565b6000602082019050919050565b6000602082019050919050565b600081905092915050565b600082825260208201905092915050565b600082825260208201905092915050565b600082825260208201905092915050565b600081905092915050565b60006142bf82614433565b91506142ca83614433565b9250827fffffffffffffffffffffffffffffffffffffffffffffffffffffffffffffffff038211156142ff576142fe614593565b5b828201905092915050565b600061431582614433565b915061432083614433565b9250826143305761432f6145c2565b5b828204905092915050565b600061434682614433565b915061435183614433565b9250817fffffffffffffffffffffffffffffffffffffffffffffffffffffffffffffffff048311821515161561438a57614389614593565b5b828202905092915050565b60006143a082614433565b91506143ab83614433565b9250828210156143be576143bd614593565b5b828203905092915050565b60006143d482614413565b9050919050565b60008115159050919050565b60007fffffffff0000000000000000000000000000000000000000000000000000000082169050919050565b600073ffffffffffffffffffffffffffffffffffffffff82169050919050565b6000819050919050565b600060ff82169050919050565b82818337600083830152505050565b60005b8381101561447757808201518184015260208101905061445c565b83811115614486576000848401525b50505050565b600060028204905060018216806144a457607f821691505b602082108114156144b8576144b76145f1565b5b50919050565b6144c7826146b9565b810181811067ffffffffffffffff821117156144e6576144e561464f565b5b80604052505050565b60006144fa82614433565b91507fffffffffffffffffffffffffffffffffffffffffffffffffffffffffffffffff82141561452d5761452c614593565b5b600182019050919050565b60006145438261443d565b915060ff82141561455757614556614593565b5b600182019050919050565b600061456d82614433565b915061457883614433565b925082614588576145876145c2565b5b828206905092915050565b7f4e487b7100000000000000000000000000000000000000000000000000000000600052601160045260246000fd5b7f4e487b7100000000000000000000000000000000000000000000000000000000600052601260045260246000fd5b7f4e487b7100000000000000000000000000000000000000000000000000000000600052602260045260246000fd5b7f4e487b7100000000000000000000000000000000000000000000000000000000600052603260045260246000fd5b7f4e487b7100000000000000000000000000000000000000000000000000000000600052604160045260246000fd5b600060033d111561469d5760046000803e61469a6000516146ca565b90505b90565b600080fd5b600080fd5b600080fd5b600080fd5b600080fd5b6000601f19601f8301169050919050565b60008160e01c9050919050565b7f455243313135353a207472616e7366657220746f206e6f6e204552433131353560008201527f526563656976657220696d706c656d656e746572000000000000000000000000602082015250565b7f455243313135353a204552433131353552656365697665722072656a6563746560008201527f6420746f6b656e73000000000000000000000000000000000000000000000000602082015250565b7f4e6f2072656d61696e696e6720626f6f73746572207061636b73210000000000600082015250565b7f455243313135353a2062616c616e636520717565727920666f7220746865207a60008201527f65726f2061646472657373000000000000000000000000000000000000000000602082015250565b7f4f776e61626c653a206e6577206f776e657220697320746865207a65726f206160008201527f6464726573730000000000000000000000000000000000000000000000000000602082015250565b7f455243313135353a206275726e20616d6f756e7420657863656564732062616c60008201527f616e636500000000000000000000000000000000000000000000000000000000602082015250565b7f455243313135353a2063616c6c6572206973206e6f74206f776e6572206e6f7260008201527f20617070726f7665640000000000000000000000000000000000000000000000602082015250565b7f416c6c206f662074686973206174686c657465206861766520616c726561647960008201527f206265656e206d696e7465642100000000000000000000000000000000000000602082015250565b7f5374617274696e6720696e64657820697320616c726561647920736574000000600082015250565b7f455243313135353a207472616e7366657220746f20746865207a65726f20616460008201527f6472657373000000000000000000000000000000000000000000000000000000602082015250565b7f455243313135353a207472616e736665722063616c6c6572206973206e6f742060008201527f6f776e6572206e6f7220617070726f7665640000000000000000000000000000602082015250565b7f43616e6e6f742073657420757269207477696365000000000000000000000000600082015250565b7f455243313135353a206275726e2066726f6d20746865207a65726f206164647260008201527f6573730000000000000000000000000000000000000000000000000000000000602082015250565b7f455243313135353a20696e73756666696369656e742062616c616e636520666f60008201527f72207472616e7366657200000000000000000000000000000000000000000000602082015250565b7f2e6a736f6e000000000000000000000000000000000000000000000000000000600082015250565b7f4f776e61626c653a2063616c6c6572206973206e6f7420746865206f776e6572600082015250565b7f5061636b2068617320616c7265616479206265656e206275726e6564206f722060008201527f646f6573206e6f742065786973742e0000000000000000000000000000000000602082015250565b7f416c6c207061636b73206861766520616c7265616479206265656e206d696e7460008201527f6564210000000000000000000000000000000000000000000000000000000000602082015250565b7f5061636b73206172656e277420726561647920746f206f70656e207965742100600082015250565b7f43616e206f6e6c79206d696e74206f6e652073746172746572207061636b207060008201527f6572206163636f756e7400000000000000000000000000000000000000000000602082015250565b7f455243313135353a2073657474696e6720617070726f76616c2073746174757360008201527f20666f722073656c660000000000000000000000000000000000000000000000602082015250565b7f455243313135353a206163636f756e747320616e6420696473206c656e67746860008201527f206d69736d617463680000000000000000000000000000000000000000000000602082015250565b7f455243313135353a2069647320616e6420616d6f756e7473206c656e6774682060008201527f6d69736d61746368000000000000000000000000000000000000000000000000602082015250565b7f455243313135353a206d696e7420746f20746865207a65726f2061646472657360008201527f7300000000000000000000000000000000000000000000000000000000000000602082015250565b600060443d1015614d6b57614dee565b614d73614132565b60043d036004823e80513d602482011167ffffffffffffffff82111715614d9b575050614dee565b808201805167ffffffffffffffff811115614db95750505050614dee565b80602083010160043d038501811115614dd6575050505050614dee565b614de5826020018501866144be565b82955050505050505b90565b614dfa816143c9565b8114614e0557600080fd5b50565b614e11816143db565b8114614e1c57600080fd5b50565b614e28816143e7565b8114614e3357600080fd5b50565b614e3f81614433565b8114614e4a57600080fd5b5056fea264697066735822122004750ce71a360a0a4741f97794f08916f97f508cc895b3e66c622848174e2cbc64736f6c63430008070033",
  "linkReferences": {},
  "deployedLinkReferences": {}
}