{
  "_format": "hh-sol-artifact-1",
  "contractName": "GameItems",
  "sourceName": "contracts/GameItems.sol",
  "abi": [
    {
      "inputs": [],
      "stateMutability": "nonpayable",
      "type": "constructor"
    },
    {
      "anonymous": false,
      "inputs": [
        {
          "indexed": true,
          "internalType": "address",
          "name": "account",
          "type": "address"
        },
        {
          "indexed": true,
          "internalType": "address",
          "name": "operator",
          "type": "address"
        },
        {
          "indexed": false,
          "internalType": "bool",
          "name": "approved",
          "type": "bool"
        }
      ],
      "name": "ApprovalForAll",
      "type": "event"
    },
    {
      "anonymous": false,
      "inputs": [
        {
          "indexed": true,
          "internalType": "address",
          "name": "previousOwner",
          "type": "address"
        },
        {
          "indexed": true,
          "internalType": "address",
          "name": "newOwner",
          "type": "address"
        }
      ],
      "name": "OwnershipTransferred",
      "type": "event"
    },
    {
      "anonymous": false,
      "inputs": [
        {
          "indexed": true,
          "internalType": "address",
          "name": "operator",
          "type": "address"
        },
        {
          "indexed": true,
          "internalType": "address",
          "name": "from",
          "type": "address"
        },
        {
          "indexed": true,
          "internalType": "address",
          "name": "to",
          "type": "address"
        },
        {
          "indexed": false,
          "internalType": "uint256[]",
          "name": "ids",
          "type": "uint256[]"
        },
        {
          "indexed": false,
          "internalType": "uint256[]",
          "name": "values",
          "type": "uint256[]"
        }
      ],
      "name": "TransferBatch",
      "type": "event"
    },
    {
      "anonymous": false,
      "inputs": [
        {
          "indexed": true,
          "internalType": "address",
          "name": "operator",
          "type": "address"
        },
        {
          "indexed": true,
          "internalType": "address",
          "name": "from",
          "type": "address"
        },
        {
          "indexed": true,
          "internalType": "address",
          "name": "to",
          "type": "address"
        },
        {
          "indexed": false,
          "internalType": "uint256",
          "name": "id",
          "type": "uint256"
        },
        {
          "indexed": false,
          "internalType": "uint256",
          "name": "value",
          "type": "uint256"
        }
      ],
      "name": "TransferSingle",
      "type": "event"
    },
    {
      "anonymous": false,
      "inputs": [
        {
          "indexed": false,
          "internalType": "string",
          "name": "value",
          "type": "string"
        },
        {
          "indexed": true,
          "internalType": "uint256",
          "name": "id",
          "type": "uint256"
        }
      ],
      "name": "URI",
      "type": "event"
    },
    {
      "anonymous": false,
      "inputs": [
        {
          "indexed": false,
          "internalType": "address",
          "name": "user",
          "type": "address"
        },
        {
          "indexed": false,
          "internalType": "uint256",
          "name": "id",
          "type": "uint256"
        }
      ],
      "name": "packMinted",
      "type": "event"
    },
    {
      "inputs": [],
      "name": "REVEAL_TIMESTAMP",
      "outputs": [
        {
          "internalType": "uint256",
          "name": "",
          "type": "uint256"
        }
      ],
      "stateMutability": "view",
      "type": "function"
    },
    {
      "inputs": [
        {
          "internalType": "address",
          "name": "account",
          "type": "address"
        },
        {
          "internalType": "uint256",
          "name": "id",
          "type": "uint256"
        }
      ],
      "name": "balanceOf",
      "outputs": [
        {
          "internalType": "uint256",
          "name": "",
          "type": "uint256"
        }
      ],
      "stateMutability": "view",
      "type": "function"
    },
    {
      "inputs": [
        {
          "internalType": "address[]",
          "name": "accounts",
          "type": "address[]"
        },
        {
          "internalType": "uint256[]",
          "name": "ids",
          "type": "uint256[]"
        }
      ],
      "name": "balanceOfBatch",
      "outputs": [
        {
          "internalType": "uint256[]",
          "name": "",
          "type": "uint256[]"
        }
      ],
      "stateMutability": "view",
      "type": "function"
    },
    {
      "inputs": [],
      "name": "burnBoosterPack",
      "outputs": [],
      "stateMutability": "nonpayable",
      "type": "function"
    },
    {
      "inputs": [],
      "name": "burnStarterPack",
      "outputs": [],
      "stateMutability": "nonpayable",
      "type": "function"
    },
    {
      "inputs": [],
      "name": "emergencySetStartingIndexBlock",
      "outputs": [],
      "stateMutability": "nonpayable",
      "type": "function"
    },
    {
      "inputs": [],
      "name": "getNFTPerAthlete",
      "outputs": [
        {
          "internalType": "uint256",
          "name": "",
          "type": "uint256"
        }
      ],
      "stateMutability": "view",
      "type": "function"
    },
    {
      "inputs": [
        {
          "internalType": "address",
          "name": "account",
          "type": "address"
        },
        {
          "internalType": "address",
          "name": "operator",
          "type": "address"
        }
      ],
      "name": "isApprovedForAll",
      "outputs": [
        {
          "internalType": "bool",
          "name": "",
          "type": "bool"
        }
      ],
      "stateMutability": "view",
      "type": "function"
    },
    {
      "inputs": [],
      "name": "mintAthlete",
      "outputs": [],
      "stateMutability": "nonpayable",
      "type": "function"
    },
    {
      "inputs": [],
      "name": "mintBoosterPack",
      "outputs": [],
      "stateMutability": "nonpayable",
      "type": "function"
    },
    {
      "inputs": [
        {
          "internalType": "uint256",
          "name": "initialSupply",
          "type": "uint256"
        }
      ],
      "name": "mintCurrency",
      "outputs": [],
      "stateMutability": "nonpayable",
      "type": "function"
    },
    {
      "inputs": [],
      "name": "mintStarterPack",
      "outputs": [],
      "stateMutability": "nonpayable",
      "type": "function"
    },
    {
      "inputs": [],
      "name": "owner",
      "outputs": [
        {
          "internalType": "address",
          "name": "",
          "type": "address"
        }
      ],
      "stateMutability": "view",
      "type": "function"
    },
    {
      "inputs": [],
      "name": "packsReadyToOpen",
      "outputs": [
        {
          "internalType": "bool",
          "name": "",
          "type": "bool"
        }
      ],
      "stateMutability": "view",
      "type": "function"
    },
    {
      "inputs": [],
      "name": "renounceOwnership",
      "outputs": [],
      "stateMutability": "nonpayable",
      "type": "function"
    },
    {
      "inputs": [
        {
          "internalType": "address",
          "name": "from",
          "type": "address"
        },
        {
          "internalType": "address",
          "name": "to",
          "type": "address"
        },
        {
          "internalType": "uint256[]",
          "name": "ids",
          "type": "uint256[]"
        },
        {
          "internalType": "uint256[]",
          "name": "amounts",
          "type": "uint256[]"
        },
        {
          "internalType": "bytes",
          "name": "data",
          "type": "bytes"
        }
      ],
      "name": "safeBatchTransferFrom",
      "outputs": [],
      "stateMutability": "nonpayable",
      "type": "function"
    },
    {
      "inputs": [
        {
          "internalType": "address",
          "name": "from",
          "type": "address"
        },
        {
          "internalType": "address",
          "name": "to",
          "type": "address"
        },
        {
          "internalType": "uint256",
          "name": "id",
          "type": "uint256"
        },
        {
          "internalType": "uint256",
          "name": "amount",
          "type": "uint256"
        },
        {
          "internalType": "bytes",
          "name": "data",
          "type": "bytes"
        }
      ],
      "name": "safeTransferFrom",
      "outputs": [],
      "stateMutability": "nonpayable",
      "type": "function"
    },
    {
      "inputs": [
        {
          "internalType": "address",
          "name": "operator",
          "type": "address"
        },
        {
          "internalType": "bool",
          "name": "approved",
          "type": "bool"
        }
      ],
      "name": "setApprovalForAll",
      "outputs": [],
      "stateMutability": "nonpayable",
      "type": "function"
    },
    {
      "inputs": [],
      "name": "setPacksReady",
      "outputs": [],
      "stateMutability": "nonpayable",
      "type": "function"
    },
    {
      "inputs": [
        {
          "internalType": "string",
          "name": "provenanceHash",
          "type": "string"
        }
      ],
      "name": "setProvenanceHash",
      "outputs": [],
      "stateMutability": "nonpayable",
      "type": "function"
    },
    {
      "inputs": [],
      "name": "setStartingIndex",
      "outputs": [],
      "stateMutability": "nonpayable",
      "type": "function"
    },
    {
      "inputs": [
        {
          "internalType": "uint256",
          "name": "tokenId",
          "type": "uint256"
        },
        {
          "internalType": "string",
          "name": "uri",
          "type": "string"
        }
      ],
      "name": "setTokenUri",
      "outputs": [],
      "stateMutability": "nonpayable",
      "type": "function"
    },
    {
      "inputs": [],
      "name": "startingIndex",
      "outputs": [
        {
          "internalType": "uint256",
          "name": "",
          "type": "uint256"
        }
      ],
      "stateMutability": "view",
      "type": "function"
    },
    {
      "inputs": [],
      "name": "startingIndexBlock",
      "outputs": [
        {
          "internalType": "uint256",
          "name": "",
          "type": "uint256"
        }
      ],
      "stateMutability": "view",
      "type": "function"
    },
    {
      "inputs": [
        {
          "internalType": "bytes4",
          "name": "interfaceId",
          "type": "bytes4"
        }
      ],
      "name": "supportsInterface",
      "outputs": [
        {
          "internalType": "bool",
          "name": "",
          "type": "bool"
        }
      ],
      "stateMutability": "view",
      "type": "function"
    },
    {
      "inputs": [
        {
          "internalType": "address",
          "name": "from",
          "type": "address"
        },
        {
          "internalType": "address",
          "name": "to",
          "type": "address"
        },
        {
          "internalType": "uint256",
          "name": "amount",
          "type": "uint256"
        },
        {
          "internalType": "bytes",
          "name": "data",
          "type": "bytes"
        }
      ],
      "name": "transferCurrency",
      "outputs": [],
      "stateMutability": "nonpayable",
      "type": "function"
    },
    {
      "inputs": [
        {
          "internalType": "address",
          "name": "newOwner",
          "type": "address"
        }
      ],
      "name": "transferOwnership",
      "outputs": [],
      "stateMutability": "nonpayable",
      "type": "function"
    },
    {
      "inputs": [
        {
          "internalType": "uint256",
          "name": "tokenId",
          "type": "uint256"
        }
      ],
      "name": "uri",
      "outputs": [
        {
          "internalType": "string",
          "name": "",
          "type": "string"
        }
      ],
      "stateMutability": "view",
      "type": "function"
    }
  ],
  "bytecode": "0x608060405260405180608001604052806044815260200162004c9360449139600590805190602001906200003592919062000370565b5060405180608001604052806056815260200162004cd760569139600690805190602001906200006792919062000370565b506040518060400160405280601f81526020017f496e7365727420626f6f73746572207061636b205552492068657265203a290081525060079080519060200190620000b592919062000370565b506001600860006101000a81548160ff0219169083151502179055506127106009556003600a55600a54600b556000600c556000600d556000600e5560405180602001604052806000815250601190805190602001906200011892919062000370565b503480156200012657600080fd5b50604051806020016040528060008152506200014881620001ba60201b60201c565b50620001696200015d620001d660201b60201c565b620001de60201b60201c565b620001b46040518060400160405280601281526020017f4d616b696e6720636f6e74726163742e2e2e0000000000000000000000000000815250620002a460201b620016de1760201c565b6200054d565b8060029080519060200190620001d292919062000370565b5050565b600033905090565b6000600360009054906101000a900473ffffffffffffffffffffffffffffffffffffffff16905081600360006101000a81548173ffffffffffffffffffffffffffffffffffffffff021916908373ffffffffffffffffffffffffffffffffffffffff1602179055508173ffffffffffffffffffffffffffffffffffffffff168173ffffffffffffffffffffffffffffffffffffffff167f8be0079c531659141344cd1fd0a4f28419497f9722a3daafe3b4186f6b6457e060405160405180910390a35050565b6200034481604051602401620002bb919062000461565b6040516020818303038152906040527f41304fac000000000000000000000000000000000000000000000000000000007bffffffffffffffffffffffffffffffffffffffffffffffffffffffff19166020820180517bffffffffffffffffffffffffffffffffffffffffffffffffffffffff83818316178352505050506200034760201b60201c565b50565b60008151905060006a636f6e736f6c652e6c6f679050602083016000808483855afa5050505050565b8280546200037e90620004d7565b90600052602060002090601f016020900481019282620003a25760008555620003ee565b82601f10620003bd57805160ff1916838001178555620003ee565b82800160010185558215620003ee579182015b82811115620003ed578251825591602001919060010190620003d0565b5b509050620003fd919062000401565b5090565b5b808211156200041c57600081600090555060010162000402565b5090565b60006200042d8262000485565b62000439818562000490565b93506200044b818560208601620004a1565b62000456816200053c565b840191505092915050565b600060208201905081810360008301526200047d818462000420565b905092915050565b600081519050919050565b600082825260208201905092915050565b60005b83811015620004c1578082015181840152602081019050620004a4565b83811115620004d1576000848401525b50505050565b60006002820490506001821680620004f057607f821691505b602082108114156200050757620005066200050d565b5b50919050565b7f4e487b7100000000000000000000000000000000000000000000000000000000600052602260045260246000fd5b6000601f19601f8301169050919050565b614736806200055d6000396000f3fe608060405234801561001057600080fd5b50600436106101c35760003560e01c8063715018a6116100f9578063be59ec2611610097578063e985e9c511610071578063e985e9c514610434578063e986655014610464578063f242432a1461046e578063f2fde38b1461048a576101c3565b8063be59ec26146103da578063cb774d47146103f8578063e36d649814610416576101c3565b80638da5cb5b116100d35780638da5cb5b1461038c5780639ebf488b146103aa578063a22cb465146103b4578063bbb13e17146103d0576101c3565b8063715018a61461036e57806375223f92146103785780637d17fcbe14610382576101c3565b806319b60439116101665780632eb2c2d6116101405780632eb2c2d6146102fc5780634e1273f4146103185780634f3551d71461034857806357f7789e14610352576101c3565b806319b60439146102cc57806319bfbb9e146102d65780631c0d84fc146102f2576101c3565b80631072b91f116101a25780631072b91f146102585780631096952314610274578063143cc1441461029057806318e20a38146102ae576101c3565b8062fdd58e146101c857806301ffc9a7146101f85780630e89341c14610228575b600080fd5b6101e260048036038101906101dd9190613050565b6104a6565b6040516101ef91906140df565b60405180910390f35b610212600480360381019061020d91906130f8565b61056f565b60405161021f9190613dd2565b60405180910390f35b610242600480360381019061023d919061318b565b610651565b60405161024f9190613ded565b60405180910390f35b610272600480360381019061026d919061318b565b6106f6565b005b61028e6004803603810190610289919061314a565b61072d565b005b6102986107c3565b6040516102a591906140df565b60405180910390f35b6102b6610848565b6040516102c391906140df565b60405180910390f35b6102d461084e565b005b6102f060048036038101906102eb9190612f0a565b6108f6565b005b6102fa61090a565b005b61031660048036038101906103119190612e4b565b610b06565b005b610332600480360381019061032d919061308c565b610ba7565b60405161033f9190613d79565b60405180910390f35b610350610d58565b005b61036c600480360381019061036791906131b4565b610e8c565b005b610376610f34565b005b610380610fbc565b005b61038a611069565b005b610394611133565b6040516103a19190613c73565b60405180910390f35b6103b261115d565b005b6103ce60048036038101906103c99190613014565b611291565b005b6103d86112a7565b005b6103e261137c565b6040516103ef9190613dd2565b60405180910390f35b61040061138f565b60405161040d91906140df565b60405180910390f35b61041e611395565b60405161042b91906140df565b60405180910390f35b61044e60048036038101906104499190612e0f565b61139b565b60405161045b9190613dd2565b60405180910390f35b61046c61142f565b005b61048860048036038101906104839190612f85565b611545565b005b6104a4600480360381019061049f9190612de6565b6115e6565b005b60008073ffffffffffffffffffffffffffffffffffffffff168373ffffffffffffffffffffffffffffffffffffffff161415610517576040517f08c379a000000000000000000000000000000000000000000000000000000000815260040161050e90613e9f565b60405180910390fd5b60008083815260200190815260200160002060008473ffffffffffffffffffffffffffffffffffffffff1673ffffffffffffffffffffffffffffffffffffffff16815260200190815260200160002054905092915050565b60007fd9b67a26000000000000000000000000000000000000000000000000000000007bffffffffffffffffffffffffffffffffffffffffffffffffffffffff1916827bffffffffffffffffffffffffffffffffffffffffffffffffffffffff1916148061063a57507f0e89341c000000000000000000000000000000000000000000000000000000007bffffffffffffffffffffffffffffffffffffffffffffffffffffffff1916827bffffffffffffffffffffffffffffffffffffffffffffffffffffffff1916145b8061064a575061064982611777565b5b9050919050565b606060126000838152602001908152602001600020805461067190614468565b80601f016020809104026020016040519081016040528092919081815260200182805461069d90614468565b80156106ea5780601f106106bf576101008083540402835291602001916106ea565b820191906000526020600020905b8154815290600101906020018083116106cd57829003601f168201915b50505050509050919050565b600061070260046117e1565b905061071f338284604051806020016040528060008152506117ef565b6107296004611985565b5050565b61073561199b565b73ffffffffffffffffffffffffffffffffffffffff16610753611133565b73ffffffffffffffffffffffffffffffffffffffff16146107a9576040517f08c379a00000000000000000000000000000000000000000000000000000000081526004016107a090613fbf565b60405180910390fd5b80601190805190602001906107bf929190612ade565b5050565b60006107cd61199b565b73ffffffffffffffffffffffffffffffffffffffff166107eb611133565b73ffffffffffffffffffffffffffffffffffffffff1614610841576040517f08c379a000000000000000000000000000000000000000000000000000000000815260040161083890613fbf565b60405180910390fd5b600a905090565b60095481565b61085661199b565b73ffffffffffffffffffffffffffffffffffffffff16610874611133565b73ffffffffffffffffffffffffffffffffffffffff16146108ca576040517f08c379a00000000000000000000000000000000000000000000000000000000081526004016108c190613fbf565b60405180910390fd5b600860009054906101000a900460ff1615600860006101000a81548160ff021916908315150217905550565b610904848460008585611545565b50505050565b61091261199b565b73ffffffffffffffffffffffffffffffffffffffff16610930611133565b73ffffffffffffffffffffffffffffffffffffffff1614610986576040517f08c379a000000000000000000000000000000000000000000000000000000000815260040161097d90613fbf565b60405180910390fd5b60006003600e5460105461099a919061429d565b6109a491906144e3565b90506109e76040518060400160405280600e81526020017f5374617274696e6720696e6465780000000000000000000000000000000000008152506010546119a3565b610a266040518060400160405280600a81526020017f4d696e7420696e64657800000000000000000000000000000000000000000000815250826119a3565b600a6003610a349190614324565b600e541015610b0357610a7f338260016040518060400160405280600481526020017f30783030000000000000000000000000000000000000000000000000000000008152506117ef565b6000601260008381526020019081526020016000208054610a9f90614468565b90501415610ae857610ae7816005610ac2600185610abd919061429d565b611a3f565b604051602001610ad3929190613c39565b604051602081830303815290604052610e8c565b5b6001600e6000828254610afb919061429d565b925050819055505b50565b610b0e61199b565b73ffffffffffffffffffffffffffffffffffffffff168573ffffffffffffffffffffffffffffffffffffffff161480610b545750610b5385610b4e61199b565b61139b565b5b610b93576040517f08c379a0000000000000000000000000000000000000000000000000000000008152600401610b8a90613f5f565b60405180910390fd5b610ba08585858585611bec565b5050505050565b60608151835114610bed576040517f08c379a0000000000000000000000000000000000000000000000000000000008152600401610be49061407f565b60405180910390fd5b6000835167ffffffffffffffff811115610c30577f4e487b7100000000000000000000000000000000000000000000000000000000600052604160045260246000fd5b604051908082528060200260200182016040528015610c5e5781602001602082028036833780820191505090505b50905060005b8451811015610d4d57610cf7858281518110610ca9577f4e487b7100000000000000000000000000000000000000000000000000000000600052603260045260246000fd5b6020026020010151858381518110610cea577f4e487b7100000000000000000000000000000000000000000000000000000000600052603260045260246000fd5b60200260200101516104a6565b828281518110610d30577f4e487b7100000000000000000000000000000000000000000000000000000000600052603260045260246000fd5b60200260200101818152505080610d469061449a565b9050610c64565b508091505092915050565b600a600d5410610d9d576040517f08c379a0000000000000000000000000000000000000000000000000000000008152600401610d9490613fff565b60405180910390fd5b6001610dab33600a546104a6565b10610deb576040517f08c379a0000000000000000000000000000000000000000000000000000000008152600401610de29061403f565b60405180910390fd5b610e0933600b546001604051806020016040528060008152506117ef565b610e35600b546007604051602001610e219190613c22565b604051602081830303815290604052610e8c565b6001600d6000828254610e48919061429d565b925050819055507f2e0f4d63dcc00e6a11c8aef9f6e15c1f9cd6e9a090b2dd99c7b797f1a28d300d33600d54604051610e82929190613d50565b60405180910390a1565b610e9461199b565b73ffffffffffffffffffffffffffffffffffffffff16610eb2611133565b73ffffffffffffffffffffffffffffffffffffffff1614610f08576040517f08c379a0000000000000000000000000000000000000000000000000000000008152600401610eff90613fbf565b60405180910390fd5b80601260008481526020019081526020016000209080519060200190610f2f929190612ade565b505050565b610f3c61199b565b73ffffffffffffffffffffffffffffffffffffffff16610f5a611133565b73ffffffffffffffffffffffffffffffffffffffff1614610fb0576040517f08c379a0000000000000000000000000000000000000000000000000000000008152600401610fa790613fbf565b60405180910390fd5b610fba6000611f4c565b565b600860009054906101000a900460ff1661100b576040517f08c379a00000000000000000000000000000000000000000000000000000000081526004016110029061401f565b60405180910390fd5b600061101933600b546104a6565b11611059576040517f08c379a000000000000000000000000000000000000000000000000000000000815260040161105090613e7f565b60405180910390fd5b61106733600b546001612012565b565b61107161199b565b73ffffffffffffffffffffffffffffffffffffffff1661108f611133565b73ffffffffffffffffffffffffffffffffffffffff16146110e5576040517f08c379a00000000000000000000000000000000000000000000000000000000081526004016110dc90613fbf565b60405180910390fd5b60006010541461112a576040517f08c379a000000000000000000000000000000000000000000000000000000000815260040161112190613f1f565b60405180910390fd5b43600f81905550565b6000600360009054906101000a900473ffffffffffffffffffffffffffffffffffffffff16905090565b600a600c54106111a2576040517f08c379a000000000000000000000000000000000000000000000000000000000815260040161119990613fff565b60405180910390fd5b60016111b033600a546104a6565b106111f0576040517f08c379a00000000000000000000000000000000000000000000000000000000081526004016111e79061403f565b60405180910390fd5b61120e33600a546001604051806020016040528060008152506117ef565b61123a600a5460066040516020016112269190613c22565b604051602081830303815290604052610e8c565b6001600c600082825461124d919061429d565b925050819055507f2e0f4d63dcc00e6a11c8aef9f6e15c1f9cd6e9a090b2dd99c7b797f1a28d300d33600c54604051611287929190613d50565b60405180910390a1565b6112a361129c61199b565b838361222f565b5050565b600860009054906101000a900460ff166112f6576040517f08c379a00000000000000000000000000000000000000000000000000000000081526004016112ed9061401f565b60405180910390fd5b600161130433600a546104a6565b14611344576040517f08c379a000000000000000000000000000000000000000000000000000000000815260040161133b90613fdf565b60405180910390fd5b60005b600581101561136b5761135861090a565b80806113639061449a565b915050611347565b5061137a33600a546001612012565b565b600860009054906101000a900460ff1681565b60105481565b600f5481565b6000600160008473ffffffffffffffffffffffffffffffffffffffff1673ffffffffffffffffffffffffffffffffffffffff16815260200190815260200160002060008373ffffffffffffffffffffffffffffffffffffffff1673ffffffffffffffffffffffffffffffffffffffff16815260200190815260200160002060009054906101000a900460ff16905092915050565b61143761199b565b73ffffffffffffffffffffffffffffffffffffffff16611455611133565b73ffffffffffffffffffffffffffffffffffffffff16146114ab576040517f08c379a00000000000000000000000000000000000000000000000000000000081526004016114a290613fbf565b60405180910390fd5b600a60036114b99190614324565b6001436114c6919061437e565b4060001c6114d491906144e3565b60108190555061151b6040518060400160405280600f81526020017f5374617274696e6720696e6465782000000000000000000000000000000000008152506010546119a3565b600060105414156115435761153c600160105461239c90919063ffffffff16565b6010819055505b565b61154d61199b565b73ffffffffffffffffffffffffffffffffffffffff168573ffffffffffffffffffffffffffffffffffffffff16148061159357506115928561158d61199b565b61139b565b5b6115d2576040517f08c379a00000000000000000000000000000000000000000000000000000000081526004016115c990613eff565b60405180910390fd5b6115df85858585856123b2565b5050505050565b6115ee61199b565b73ffffffffffffffffffffffffffffffffffffffff1661160c611133565b73ffffffffffffffffffffffffffffffffffffffff1614611662576040517f08c379a000000000000000000000000000000000000000000000000000000000815260040161165990613fbf565b60405180910390fd5b600073ffffffffffffffffffffffffffffffffffffffff168173ffffffffffffffffffffffffffffffffffffffff1614156116d2576040517f08c379a00000000000000000000000000000000000000000000000000000000081526004016116c990613ebf565b60405180910390fd5b6116db81611f4c565b50565b611774816040516024016116f29190613ded565b6040516020818303038152906040527f41304fac000000000000000000000000000000000000000000000000000000007bffffffffffffffffffffffffffffffffffffffffffffffffffffffff19166020820180517bffffffffffffffffffffffffffffffffffffffffffffffffffffffff8381831617835250505050612634565b50565b60007f01ffc9a7000000000000000000000000000000000000000000000000000000007bffffffffffffffffffffffffffffffffffffffffffffffffffffffff1916827bffffffffffffffffffffffffffffffffffffffffffffffffffffffff1916149050919050565b600081600001549050919050565b600073ffffffffffffffffffffffffffffffffffffffff168473ffffffffffffffffffffffffffffffffffffffff16141561185f576040517f08c379a0000000000000000000000000000000000000000000000000000000008152600401611856906140bf565b60405180910390fd5b600061186961199b565b905061188a8160008761187b8861265d565b6118848861265d565b87612723565b8260008086815260200190815260200160002060008773ffffffffffffffffffffffffffffffffffffffff1673ffffffffffffffffffffffffffffffffffffffff16815260200190815260200160002060008282546118e9919061429d565b925050819055508473ffffffffffffffffffffffffffffffffffffffff16600073ffffffffffffffffffffffffffffffffffffffff168273ffffffffffffffffffffffffffffffffffffffff167fc3d58168c5ae7397731d063d5bbf3d657854427343f4c083240f7aacaa2d0f6287876040516119679291906140fa565b60405180910390a461197e8160008787878761272b565b5050505050565b6001816000016000828254019250508190555050565b600033905090565b611a3b82826040516024016119b9929190613e0f565b6040516020818303038152906040527f9710a9d0000000000000000000000000000000000000000000000000000000007bffffffffffffffffffffffffffffffffffffffffffffffffffffffff19166020820180517bffffffffffffffffffffffffffffffffffffffffffffffffffffffff8381831617835250505050612634565b5050565b60606000821415611a87576040518060400160405280600181526020017f30000000000000000000000000000000000000000000000000000000000000008152509050611be7565b600082905060005b60008214611ab9578080611aa29061449a565b915050600a82611ab291906142f3565b9150611a8f565b60008167ffffffffffffffff811115611afb577f4e487b7100000000000000000000000000000000000000000000000000000000600052604160045260246000fd5b6040519080825280601f01601f191660200182016040528015611b2d5781602001600182028036833780820191505090505b5090505b60008514611be057600182611b46919061437e565b9150600a85611b5591906144e3565b6030611b61919061429d565b60f81b818381518110611b9d577f4e487b7100000000000000000000000000000000000000000000000000000000600052603260045260246000fd5b60200101907effffffffffffffffffffffffffffffffffffffffffffffffffffffffffffff1916908160001a905350600a85611bd991906142f3565b9450611b31565b8093505050505b919050565b8151835114611c30576040517f08c379a0000000000000000000000000000000000000000000000000000000008152600401611c279061409f565b60405180910390fd5b600073ffffffffffffffffffffffffffffffffffffffff168473ffffffffffffffffffffffffffffffffffffffff161415611ca0576040517f08c379a0000000000000000000000000000000000000000000000000000000008152600401611c9790613f3f565b60405180910390fd5b6000611caa61199b565b9050611cba818787878787612723565b60005b8451811015611eb7576000858281518110611d01577f4e487b7100000000000000000000000000000000000000000000000000000000600052603260045260246000fd5b602002602001015190506000858381518110611d46577f4e487b7100000000000000000000000000000000000000000000000000000000600052603260045260246000fd5b60200260200101519050600080600084815260200190815260200160002060008b73ffffffffffffffffffffffffffffffffffffffff1673ffffffffffffffffffffffffffffffffffffffff16815260200190815260200160002054905081811015611de7576040517f08c379a0000000000000000000000000000000000000000000000000000000008152600401611dde90613f9f565b60405180910390fd5b81810360008085815260200190815260200160002060008c73ffffffffffffffffffffffffffffffffffffffff1673ffffffffffffffffffffffffffffffffffffffff168152602001908152602001600020819055508160008085815260200190815260200160002060008b73ffffffffffffffffffffffffffffffffffffffff1673ffffffffffffffffffffffffffffffffffffffff1681526020019081526020016000206000828254611e9c919061429d565b9250508190555050505080611eb09061449a565b9050611cbd565b508473ffffffffffffffffffffffffffffffffffffffff168673ffffffffffffffffffffffffffffffffffffffff168273ffffffffffffffffffffffffffffffffffffffff167f4a39dc06d4c0dbc64b70af90fd698a233a518aa5d07e595d983b8c0526c8f7fb8787604051611f2e929190613d9b565b60405180910390a4611f448187878787876128fb565b505050505050565b6000600360009054906101000a900473ffffffffffffffffffffffffffffffffffffffff16905081600360006101000a81548173ffffffffffffffffffffffffffffffffffffffff021916908373ffffffffffffffffffffffffffffffffffffffff1602179055508173ffffffffffffffffffffffffffffffffffffffff168173ffffffffffffffffffffffffffffffffffffffff167f8be0079c531659141344cd1fd0a4f28419497f9722a3daafe3b4186f6b6457e060405160405180910390a35050565b600073ffffffffffffffffffffffffffffffffffffffff168373ffffffffffffffffffffffffffffffffffffffff161415612082576040517f08c379a000000000000000000000000000000000000000000000000000000000815260040161207990613f7f565b60405180910390fd5b600061208c61199b565b90506120bc8185600061209e8761265d565b6120a78761265d565b60405180602001604052806000815250612723565b600080600085815260200190815260200160002060008673ffffffffffffffffffffffffffffffffffffffff1673ffffffffffffffffffffffffffffffffffffffff16815260200190815260200160002054905082811015612153576040517f08c379a000000000000000000000000000000000000000000000000000000000815260040161214a90613edf565b60405180910390fd5b82810360008086815260200190815260200160002060008773ffffffffffffffffffffffffffffffffffffffff1673ffffffffffffffffffffffffffffffffffffffff16815260200190815260200160002081905550600073ffffffffffffffffffffffffffffffffffffffff168573ffffffffffffffffffffffffffffffffffffffff168373ffffffffffffffffffffffffffffffffffffffff167fc3d58168c5ae7397731d063d5bbf3d657854427343f4c083240f7aacaa2d0f6287876040516122209291906140fa565b60405180910390a45050505050565b8173ffffffffffffffffffffffffffffffffffffffff168373ffffffffffffffffffffffffffffffffffffffff16141561229e576040517f08c379a00000000000000000000000000000000000000000000000000000000081526004016122959061405f565b60405180910390fd5b80600160008573ffffffffffffffffffffffffffffffffffffffff1673ffffffffffffffffffffffffffffffffffffffff16815260200190815260200160002060008473ffffffffffffffffffffffffffffffffffffffff1673ffffffffffffffffffffffffffffffffffffffff16815260200190815260200160002060006101000a81548160ff0219169083151502179055508173ffffffffffffffffffffffffffffffffffffffff168373ffffffffffffffffffffffffffffffffffffffff167f17307eab39ab6107e8899845ad3d59bd9653f200f220920489ca2b5937696c318360405161238f9190613dd2565b60405180910390a3505050565b600081836123aa919061429d565b905092915050565b600073ffffffffffffffffffffffffffffffffffffffff168473ffffffffffffffffffffffffffffffffffffffff161415612422576040517f08c379a000000000000000000000000000000000000000000000000000000000815260040161241990613f3f565b60405180910390fd5b600061242c61199b565b905061244c81878761243d8861265d565b6124468861265d565b87612723565b600080600086815260200190815260200160002060008873ffffffffffffffffffffffffffffffffffffffff1673ffffffffffffffffffffffffffffffffffffffff168152602001908152602001600020549050838110156124e3576040517f08c379a00000000000000000000000000000000000000000000000000000000081526004016124da90613f9f565b60405180910390fd5b83810360008087815260200190815260200160002060008973ffffffffffffffffffffffffffffffffffffffff1673ffffffffffffffffffffffffffffffffffffffff168152602001908152602001600020819055508360008087815260200190815260200160002060008873ffffffffffffffffffffffffffffffffffffffff1673ffffffffffffffffffffffffffffffffffffffff1681526020019081526020016000206000828254612598919061429d565b925050819055508573ffffffffffffffffffffffffffffffffffffffff168773ffffffffffffffffffffffffffffffffffffffff168373ffffffffffffffffffffffffffffffffffffffff167fc3d58168c5ae7397731d063d5bbf3d657854427343f4c083240f7aacaa2d0f6288886040516126159291906140fa565b60405180910390a461262b82888888888861272b565b50505050505050565b60008151905060006a636f6e736f6c652e6c6f679050602083016000808483855afa5050505050565b60606000600167ffffffffffffffff8111156126a2577f4e487b7100000000000000000000000000000000000000000000000000000000600052604160045260246000fd5b6040519080825280602002602001820160405280156126d05781602001602082028036833780820191505090505b509050828160008151811061270e577f4e487b7100000000000000000000000000000000000000000000000000000000600052603260045260246000fd5b60200260200101818152505080915050919050565b505050505050565b61274a8473ffffffffffffffffffffffffffffffffffffffff16612acb565b156128f3578373ffffffffffffffffffffffffffffffffffffffff1663f23a6e6187878686866040518663ffffffff1660e01b8152600401612790959493929190613cf6565b602060405180830381600087803b1580156127aa57600080fd5b505af19250505080156127db57506040513d601f19601f820116820180604052508101906127d89190613121565b60015b61286a576127e76145ee565b806127f2575061282f565b806040517f08c379a00000000000000000000000000000000000000000000000000000000081526004016128269190613ded565b60405180910390fd5b6040517f08c379a000000000000000000000000000000000000000000000000000000000815260040161286190613e3f565b60405180910390fd5b63f23a6e6160e01b7bffffffffffffffffffffffffffffffffffffffffffffffffffffffff1916817bffffffffffffffffffffffffffffffffffffffffffffffffffffffff1916146128f1576040517f08c379a00000000000000000000000000000000000000000000000000000000081526004016128e890613e5f565b60405180910390fd5b505b505050505050565b61291a8473ffffffffffffffffffffffffffffffffffffffff16612acb565b15612ac3578373ffffffffffffffffffffffffffffffffffffffff1663bc197c8187878686866040518663ffffffff1660e01b8152600401612960959493929190613c8e565b602060405180830381600087803b15801561297a57600080fd5b505af19250505080156129ab57506040513d601f19601f820116820180604052508101906129a89190613121565b60015b612a3a576129b76145ee565b806129c257506129ff565b806040517f08c379a00000000000000000000000000000000000000000000000000000000081526004016129f69190613ded565b60405180910390fd5b6040517f08c379a0000000000000000000000000000000000000000000000000000000008152600401612a3190613e3f565b60405180910390fd5b63bc197c8160e01b7bffffffffffffffffffffffffffffffffffffffffffffffffffffffff1916817bffffffffffffffffffffffffffffffffffffffffffffffffffffffff191614612ac1576040517f08c379a0000000000000000000000000000000000000000000000000000000008152600401612ab890613e5f565b60405180910390fd5b505b505050505050565b600080823b905060008111915050919050565b828054612aea90614468565b90600052602060002090601f016020900481019282612b0c5760008555612b53565b82601f10612b2557805160ff1916838001178555612b53565b82800160010185558215612b53579182015b82811115612b52578251825591602001919060010190612b37565b5b509050612b609190612b64565b5090565b5b80821115612b7d576000816000905550600101612b65565b5090565b6000612b94612b8f84614154565b614123565b90508083825260208201905082856020860282011115612bb357600080fd5b60005b85811015612be35781612bc98882612cd5565b845260208401935060208301925050600181019050612bb6565b5050509392505050565b6000612c00612bfb84614180565b614123565b90508083825260208201905082856020860282011115612c1f57600080fd5b60005b85811015612c4f5781612c358882612dd1565b845260208401935060208301925050600181019050612c22565b5050509392505050565b6000612c6c612c67846141ac565b614123565b905082815260208101848484011115612c8457600080fd5b612c8f848285614426565b509392505050565b6000612caa612ca5846141dc565b614123565b905082815260208101848484011115612cc257600080fd5b612ccd848285614426565b509392505050565b600081359050612ce4816146a4565b92915050565b600082601f830112612cfb57600080fd5b8135612d0b848260208601612b81565b91505092915050565b600082601f830112612d2557600080fd5b8135612d35848260208601612bed565b91505092915050565b600081359050612d4d816146bb565b92915050565b600081359050612d62816146d2565b92915050565b600081519050612d77816146d2565b92915050565b600082601f830112612d8e57600080fd5b8135612d9e848260208601612c59565b91505092915050565b600082601f830112612db857600080fd5b8135612dc8848260208601612c97565b91505092915050565b600081359050612de0816146e9565b92915050565b600060208284031215612df857600080fd5b6000612e0684828501612cd5565b91505092915050565b60008060408385031215612e2257600080fd5b6000612e3085828601612cd5565b9250506020612e4185828601612cd5565b9150509250929050565b600080600080600060a08688031215612e6357600080fd5b6000612e7188828901612cd5565b9550506020612e8288828901612cd5565b945050604086013567ffffffffffffffff811115612e9f57600080fd5b612eab88828901612d14565b935050606086013567ffffffffffffffff811115612ec857600080fd5b612ed488828901612d14565b925050608086013567ffffffffffffffff811115612ef157600080fd5b612efd88828901612d7d565b9150509295509295909350565b60008060008060808587031215612f2057600080fd5b6000612f2e87828801612cd5565b9450506020612f3f87828801612cd5565b9350506040612f5087828801612dd1565b925050606085013567ffffffffffffffff811115612f6d57600080fd5b612f7987828801612d7d565b91505092959194509250565b600080600080600060a08688031215612f9d57600080fd5b6000612fab88828901612cd5565b9550506020612fbc88828901612cd5565b9450506040612fcd88828901612dd1565b9350506060612fde88828901612dd1565b925050608086013567ffffffffffffffff811115612ffb57600080fd5b61300788828901612d7d565b9150509295509295909350565b6000806040838503121561302757600080fd5b600061303585828601612cd5565b925050602061304685828601612d3e565b9150509250929050565b6000806040838503121561306357600080fd5b600061307185828601612cd5565b925050602061308285828601612dd1565b9150509250929050565b6000806040838503121561309f57600080fd5b600083013567ffffffffffffffff8111156130b957600080fd5b6130c585828601612cea565b925050602083013567ffffffffffffffff8111156130e257600080fd5b6130ee85828601612d14565b9150509250929050565b60006020828403121561310a57600080fd5b600061311884828501612d53565b91505092915050565b60006020828403121561313357600080fd5b600061314184828501612d68565b91505092915050565b60006020828403121561315c57600080fd5b600082013567ffffffffffffffff81111561317657600080fd5b61318284828501612da7565b91505092915050565b60006020828403121561319d57600080fd5b60006131ab84828501612dd1565b91505092915050565b600080604083850312156131c757600080fd5b60006131d585828601612dd1565b925050602083013567ffffffffffffffff8111156131f257600080fd5b6131fe85828601612da7565b9150509250929050565b60006132148383613c04565b60208301905092915050565b613229816143b2565b82525050565b600061323a82614231565b613244818561425f565b935061324f8361420c565b8060005b838110156132805781516132678882613208565b975061327283614252565b925050600181019050613253565b5085935050505092915050565b613296816143c4565b82525050565b60006132a78261423c565b6132b18185614270565b93506132c1818560208601614435565b6132ca816145d0565b840191505092915050565b60006132e082614247565b6132ea8185614281565b93506132fa818560208601614435565b613303816145d0565b840191505092915050565b600061331982614247565b6133238185614292565b9350613333818560208601614435565b80840191505092915050565b6000815461334c81614468565b6133568186614292565b945060018216600081146133715760018114613382576133b5565b60ff198316865281860193506133b5565b61338b8561421c565b60005b838110156133ad5781548189015260018201915060208101905061338e565b838801955050505b50505092915050565b60006133cb603483614281565b91507f455243313135353a207472616e7366657220746f206e6f6e204552433131353560008301527f526563656976657220696d706c656d656e7465720000000000000000000000006020830152604082019050919050565b6000613431602883614281565b91507f455243313135353a204552433131353552656365697665722072656a6563746560008301527f6420746f6b656e730000000000000000000000000000000000000000000000006020830152604082019050919050565b6000613497601b83614281565b91507f4e6f2072656d61696e696e6720626f6f73746572207061636b732100000000006000830152602082019050919050565b60006134d7602b83614281565b91507f455243313135353a2062616c616e636520717565727920666f7220746865207a60008301527f65726f20616464726573730000000000000000000000000000000000000000006020830152604082019050919050565b600061353d602683614281565b91507f4f776e61626c653a206e6577206f776e657220697320746865207a65726f206160008301527f64647265737300000000000000000000000000000000000000000000000000006020830152604082019050919050565b60006135a3602483614281565b91507f455243313135353a206275726e20616d6f756e7420657863656564732062616c60008301527f616e6365000000000000000000000000000000000000000000000000000000006020830152604082019050919050565b6000613609602983614281565b91507f455243313135353a2063616c6c6572206973206e6f74206f776e6572206e6f7260008301527f20617070726f76656400000000000000000000000000000000000000000000006020830152604082019050919050565b600061366f601d83614281565b91507f5374617274696e6720696e64657820697320616c7265616479207365740000006000830152602082019050919050565b60006136af602583614281565b91507f455243313135353a207472616e7366657220746f20746865207a65726f20616460008301527f64726573730000000000000000000000000000000000000000000000000000006020830152604082019050919050565b6000613715603283614281565b91507f455243313135353a207472616e736665722063616c6c6572206973206e6f742060008301527f6f776e6572206e6f7220617070726f76656400000000000000000000000000006020830152604082019050919050565b600061377b602383614281565b91507f455243313135353a206275726e2066726f6d20746865207a65726f206164647260008301527f65737300000000000000000000000000000000000000000000000000000000006020830152604082019050919050565b60006137e1602a83614281565b91507f455243313135353a20696e73756666696369656e742062616c616e636520666f60008301527f72207472616e73666572000000000000000000000000000000000000000000006020830152604082019050919050565b6000613847600583614292565b91507f2e6a736f6e0000000000000000000000000000000000000000000000000000006000830152600582019050919050565b6000613887600783614292565b91507f6174686c657465000000000000000000000000000000000000000000000000006000830152600782019050919050565b60006138c7602083614281565b91507f4f776e61626c653a2063616c6c6572206973206e6f7420746865206f776e65726000830152602082019050919050565b6000613907602f83614281565b91507f5061636b2068617320616c7265616479206265656e206275726e6564206f722060008301527f646f6573206e6f742065786973742e00000000000000000000000000000000006020830152604082019050919050565b600061396d602383614281565b91507f416c6c207061636b73206861766520616c7265616479206265656e206d696e7460008301527f65642100000000000000000000000000000000000000000000000000000000006020830152604082019050919050565b60006139d3601f83614281565b91507f5061636b73206172656e277420726561647920746f206f70656e2079657421006000830152602082019050919050565b6000613a13602a83614281565b91507f43616e206f6e6c79206d696e74206f6e652073746172746572207061636b207060008301527f6572206163636f756e74000000000000000000000000000000000000000000006020830152604082019050919050565b6000613a79602983614281565b91507f455243313135353a2073657474696e6720617070726f76616c2073746174757360008301527f20666f722073656c6600000000000000000000000000000000000000000000006020830152604082019050919050565b6000613adf602983614281565b91507f455243313135353a206163636f756e747320616e6420696473206c656e67746860008301527f206d69736d6174636800000000000000000000000000000000000000000000006020830152604082019050919050565b6000613b45602883614281565b91507f455243313135353a2069647320616e6420616d6f756e7473206c656e6774682060008301527f6d69736d617463680000000000000000000000000000000000000000000000006020830152604082019050919050565b6000613bab602183614281565b91507f455243313135353a206d696e7420746f20746865207a65726f2061646472657360008301527f73000000000000000000000000000000000000000000000000000000000000006020830152604082019050919050565b613c0d8161441c565b82525050565b613c1c8161441c565b82525050565b6000613c2e828461333f565b915081905092915050565b6000613c45828561333f565b9150613c508261387a565b9150613c5c828461330e565b9150613c678261383a565b91508190509392505050565b6000602082019050613c886000830184613220565b92915050565b600060a082019050613ca36000830188613220565b613cb06020830187613220565b8181036040830152613cc2818661322f565b90508181036060830152613cd6818561322f565b90508181036080830152613cea818461329c565b90509695505050505050565b600060a082019050613d0b6000830188613220565b613d186020830187613220565b613d256040830186613c13565b613d326060830185613c13565b8181036080830152613d44818461329c565b90509695505050505050565b6000604082019050613d656000830185613220565b613d726020830184613c13565b9392505050565b60006020820190508181036000830152613d93818461322f565b905092915050565b60006040820190508181036000830152613db5818561322f565b90508181036020830152613dc9818461322f565b90509392505050565b6000602082019050613de7600083018461328d565b92915050565b60006020820190508181036000830152613e0781846132d5565b905092915050565b60006040820190508181036000830152613e2981856132d5565b9050613e386020830184613c13565b9392505050565b60006020820190508181036000830152613e58816133be565b9050919050565b60006020820190508181036000830152613e7881613424565b9050919050565b60006020820190508181036000830152613e988161348a565b9050919050565b60006020820190508181036000830152613eb8816134ca565b9050919050565b60006020820190508181036000830152613ed881613530565b9050919050565b60006020820190508181036000830152613ef881613596565b9050919050565b60006020820190508181036000830152613f18816135fc565b9050919050565b60006020820190508181036000830152613f3881613662565b9050919050565b60006020820190508181036000830152613f58816136a2565b9050919050565b60006020820190508181036000830152613f7881613708565b9050919050565b60006020820190508181036000830152613f988161376e565b9050919050565b60006020820190508181036000830152613fb8816137d4565b9050919050565b60006020820190508181036000830152613fd8816138ba565b9050919050565b60006020820190508181036000830152613ff8816138fa565b9050919050565b6000602082019050818103600083015261401881613960565b9050919050565b60006020820190508181036000830152614038816139c6565b9050919050565b6000602082019050818103600083015261405881613a06565b9050919050565b6000602082019050818103600083015261407881613a6c565b9050919050565b6000602082019050818103600083015261409881613ad2565b9050919050565b600060208201905081810360008301526140b881613b38565b9050919050565b600060208201905081810360008301526140d881613b9e565b9050919050565b60006020820190506140f46000830184613c13565b92915050565b600060408201905061410f6000830185613c13565b61411c6020830184613c13565b9392505050565b6000604051905081810181811067ffffffffffffffff8211171561414a576141496145a1565b5b8060405250919050565b600067ffffffffffffffff82111561416f5761416e6145a1565b5b602082029050602081019050919050565b600067ffffffffffffffff82111561419b5761419a6145a1565b5b602082029050602081019050919050565b600067ffffffffffffffff8211156141c7576141c66145a1565b5b601f19601f8301169050602081019050919050565b600067ffffffffffffffff8211156141f7576141f66145a1565b5b601f19601f8301169050602081019050919050565b6000819050602082019050919050565b60008190508160005260206000209050919050565b600081519050919050565b600081519050919050565b600081519050919050565b6000602082019050919050565b600082825260208201905092915050565b600082825260208201905092915050565b600082825260208201905092915050565b600081905092915050565b60006142a88261441c565b91506142b38361441c565b9250827fffffffffffffffffffffffffffffffffffffffffffffffffffffffffffffffff038211156142e8576142e7614514565b5b828201905092915050565b60006142fe8261441c565b91506143098361441c565b92508261431957614318614543565b5b828204905092915050565b600061432f8261441c565b915061433a8361441c565b9250817fffffffffffffffffffffffffffffffffffffffffffffffffffffffffffffffff048311821515161561437357614372614514565b5b828202905092915050565b60006143898261441c565b91506143948361441c565b9250828210156143a7576143a6614514565b5b828203905092915050565b60006143bd826143fc565b9050919050565b60008115159050919050565b60007fffffffff0000000000000000000000000000000000000000000000000000000082169050919050565b600073ffffffffffffffffffffffffffffffffffffffff82169050919050565b6000819050919050565b82818337600083830152505050565b60005b83811015614453578082015181840152602081019050614438565b83811115614462576000848401525b50505050565b6000600282049050600182168061448057607f821691505b6020821081141561449457614493614572565b5b50919050565b60006144a58261441c565b91507fffffffffffffffffffffffffffffffffffffffffffffffffffffffffffffffff8214156144d8576144d7614514565b5b600182019050919050565b60006144ee8261441c565b91506144f98361441c565b92508261450957614508614543565b5b828206905092915050565b7f4e487b7100000000000000000000000000000000000000000000000000000000600052601160045260246000fd5b7f4e487b7100000000000000000000000000000000000000000000000000000000600052601260045260246000fd5b7f4e487b7100000000000000000000000000000000000000000000000000000000600052602260045260246000fd5b7f4e487b7100000000000000000000000000000000000000000000000000000000600052604160045260246000fd5b6000601f19601f8301169050919050565b60008160e01c9050919050565b600060443d10156145fe576146a1565b60046000803e61460f6000516145e1565b6308c379a0811461462057506146a1565b60405160043d036004823e80513d602482011167ffffffffffffffff8211171561464c575050506146a1565b808201805167ffffffffffffffff81111561466b5750505050506146a1565b8060208301013d8501811115614686575050505050506146a1565b61468f826145d0565b60208401016040528296505050505050505b90565b6146ad816143b2565b81146146b857600080fd5b50565b6146c4816143c4565b81146146cf57600080fd5b50565b6146db816143d0565b81146146e657600080fd5b50565b6146f28161441c565b81146146fd57600080fd5b5056fea2646970667358221220b916468a36eed17ce729651516ad054ed400cc40cf063ed03d53a68a04ac4fac64736f6c6343000800003368747470733a2f2f697066732e696f2f697066732f516d5a545339746b6b75654c76524b647465527a58594872683834594142325446433341705153447447793150422f68747470733a2f2f697066732e696f2f697066732f516d573448457a33397a647a4644696744613138537a77537a55656a4366326934644e334c6574667a61723667483f66696c656e616d653d7061636b2e6a736f6e",
  "linkReferences": {},
  "deployedLinkReferences": {}
}