{
  "_format": "hh-sol-artifact-1",
  "contractName": "GameItems",
  "sourceName": "contracts/GameItems.sol",
  "abi": [
    {
      "inputs": [
        {
          "internalType": "uint256",
          "name": "_numAthletes",
          "type": "uint256"
        },
        {
          "internalType": "uint256",
          "name": "_nftPerAthlete",
          "type": "uint256"
        },
        {
          "internalType": "uint256",
          "name": "_starterPackSize",
          "type": "uint256"
        },
        {
          "internalType": "uint256",
          "name": "_boosterPackSize",
          "type": "uint256"
        },
        {
          "internalType": "uint256",
          "name": "_maxStarterPackBalance",
          "type": "uint256"
        },
        {
          "internalType": "uint256",
          "name": "_maxBoosterPackBalance",
          "type": "uint256"
        },
        {
          "internalType": "uint256",
          "name": "_maxPacks",
          "type": "uint256"
        },
        {
          "internalType": "string",
          "name": "_athleteURI",
          "type": "string"
        },
        {
          "internalType": "string",
          "name": "_starterPackURI",
          "type": "string"
        },
        {
          "internalType": "string",
          "name": "_boosterPackURI",
          "type": "string"
        },
        {
          "internalType": "uint256",
          "name": "_revealTimestamp",
          "type": "uint256"
        }
      ],
      "stateMutability": "nonpayable",
      "type": "constructor"
    },
    {
      "anonymous": false,
      "inputs": [
        {
          "indexed": true,
          "internalType": "address",
          "name": "account",
          "type": "address"
        },
        {
          "indexed": true,
          "internalType": "address",
          "name": "operator",
          "type": "address"
        },
        {
          "indexed": false,
          "internalType": "bool",
          "name": "approved",
          "type": "bool"
        }
      ],
      "name": "ApprovalForAll",
      "type": "event"
    },
    {
      "anonymous": false,
      "inputs": [
        {
          "indexed": true,
          "internalType": "address",
          "name": "previousOwner",
          "type": "address"
        },
        {
          "indexed": true,
          "internalType": "address",
          "name": "newOwner",
          "type": "address"
        }
      ],
      "name": "OwnershipTransferred",
      "type": "event"
    },
    {
      "anonymous": false,
      "inputs": [
        {
          "indexed": true,
          "internalType": "address",
          "name": "operator",
          "type": "address"
        },
        {
          "indexed": true,
          "internalType": "address",
          "name": "from",
          "type": "address"
        },
        {
          "indexed": true,
          "internalType": "address",
          "name": "to",
          "type": "address"
        },
        {
          "indexed": false,
          "internalType": "uint256[]",
          "name": "ids",
          "type": "uint256[]"
        },
        {
          "indexed": false,
          "internalType": "uint256[]",
          "name": "values",
          "type": "uint256[]"
        }
      ],
      "name": "TransferBatch",
      "type": "event"
    },
    {
      "anonymous": false,
      "inputs": [
        {
          "indexed": true,
          "internalType": "address",
          "name": "operator",
          "type": "address"
        },
        {
          "indexed": true,
          "internalType": "address",
          "name": "from",
          "type": "address"
        },
        {
          "indexed": true,
          "internalType": "address",
          "name": "to",
          "type": "address"
        },
        {
          "indexed": false,
          "internalType": "uint256",
          "name": "id",
          "type": "uint256"
        },
        {
          "indexed": false,
          "internalType": "uint256",
          "name": "value",
          "type": "uint256"
        }
      ],
      "name": "TransferSingle",
      "type": "event"
    },
    {
      "anonymous": false,
      "inputs": [
        {
          "indexed": false,
          "internalType": "string",
          "name": "value",
          "type": "string"
        },
        {
          "indexed": true,
          "internalType": "uint256",
          "name": "id",
          "type": "uint256"
        }
      ],
      "name": "URI",
      "type": "event"
    },
    {
      "anonymous": false,
      "inputs": [
        {
          "indexed": false,
          "internalType": "address",
          "name": "user",
          "type": "address"
        },
        {
          "indexed": false,
          "internalType": "uint256",
          "name": "id",
          "type": "uint256"
        }
      ],
      "name": "packMinted",
      "type": "event"
    },
    {
      "inputs": [],
      "name": "REVEAL_TIMESTAMP",
      "outputs": [
        {
          "internalType": "uint256",
          "name": "",
          "type": "uint256"
        }
      ],
      "stateMutability": "view",
      "type": "function"
    },
    {
      "inputs": [
        {
          "internalType": "address",
          "name": "account",
          "type": "address"
        },
        {
          "internalType": "uint256",
          "name": "id",
          "type": "uint256"
        }
      ],
      "name": "balanceOf",
      "outputs": [
        {
          "internalType": "uint256",
          "name": "",
          "type": "uint256"
        }
      ],
      "stateMutability": "view",
      "type": "function"
    },
    {
      "inputs": [
        {
          "internalType": "address[]",
          "name": "accounts",
          "type": "address[]"
        },
        {
          "internalType": "uint256[]",
          "name": "ids",
          "type": "uint256[]"
        }
      ],
      "name": "balanceOfBatch",
      "outputs": [
        {
          "internalType": "uint256[]",
          "name": "",
          "type": "uint256[]"
        }
      ],
      "stateMutability": "view",
      "type": "function"
    },
    {
      "inputs": [],
      "name": "burnBoosterPack",
      "outputs": [],
      "stateMutability": "nonpayable",
      "type": "function"
    },
    {
      "inputs": [],
      "name": "burnStarterPack",
      "outputs": [],
      "stateMutability": "nonpayable",
      "type": "function"
    },
    {
      "inputs": [],
      "name": "emergencySetStartingIndexBlock",
      "outputs": [],
      "stateMutability": "nonpayable",
      "type": "function"
    },
    {
      "inputs": [],
      "name": "generateStarterPackIndices",
      "outputs": [],
      "stateMutability": "nonpayable",
      "type": "function"
    },
    {
      "inputs": [],
      "name": "getNFTPerAthlete",
      "outputs": [
        {
          "internalType": "uint256",
          "name": "",
          "type": "uint256"
        }
      ],
      "stateMutability": "view",
      "type": "function"
    },
    {
      "inputs": [],
      "name": "getStarterPackIndices",
      "outputs": [
        {
          "internalType": "uint256[5]",
          "name": "",
          "type": "uint256[5]"
        }
      ],
      "stateMutability": "view",
      "type": "function"
    },
    {
      "inputs": [
        {
          "internalType": "address",
          "name": "account",
          "type": "address"
        },
        {
          "internalType": "address",
          "name": "operator",
          "type": "address"
        }
      ],
      "name": "isApprovedForAll",
      "outputs": [
        {
          "internalType": "bool",
          "name": "",
          "type": "bool"
        }
      ],
      "stateMutability": "view",
      "type": "function"
    },
    {
      "inputs": [],
      "name": "mintBoosterPack",
      "outputs": [],
      "stateMutability": "nonpayable",
      "type": "function"
    },
    {
      "inputs": [
        {
          "internalType": "uint256",
          "name": "initialSupply",
          "type": "uint256"
        }
      ],
      "name": "mintCurrency",
      "outputs": [],
      "stateMutability": "nonpayable",
      "type": "function"
    },
    {
      "inputs": [],
      "name": "mintStarterPack",
      "outputs": [],
      "stateMutability": "nonpayable",
      "type": "function"
    },
    {
      "inputs": [],
      "name": "owner",
      "outputs": [
        {
          "internalType": "address",
          "name": "",
          "type": "address"
        }
      ],
      "stateMutability": "view",
      "type": "function"
    },
    {
      "inputs": [],
      "name": "packsReadyToOpen",
      "outputs": [
        {
          "internalType": "bool",
          "name": "",
          "type": "bool"
        }
      ],
      "stateMutability": "view",
      "type": "function"
    },
    {
      "inputs": [],
      "name": "pseudoRandomNumber",
      "outputs": [
        {
          "internalType": "uint256",
          "name": "",
          "type": "uint256"
        }
      ],
      "stateMutability": "view",
      "type": "function"
    },
    {
      "inputs": [],
      "name": "randomPlaceholder",
      "outputs": [
        {
          "internalType": "uint256",
          "name": "",
          "type": "uint256"
        }
      ],
      "stateMutability": "nonpayable",
      "type": "function"
    },
    {
      "inputs": [],
      "name": "renounceOwnership",
      "outputs": [],
      "stateMutability": "nonpayable",
      "type": "function"
    },
    {
      "inputs": [
        {
          "internalType": "address",
          "name": "from",
          "type": "address"
        },
        {
          "internalType": "address",
          "name": "to",
          "type": "address"
        },
        {
          "internalType": "uint256[]",
          "name": "ids",
          "type": "uint256[]"
        },
        {
          "internalType": "uint256[]",
          "name": "amounts",
          "type": "uint256[]"
        },
        {
          "internalType": "bytes",
          "name": "data",
          "type": "bytes"
        }
      ],
      "name": "safeBatchTransferFrom",
      "outputs": [],
      "stateMutability": "nonpayable",
      "type": "function"
    },
    {
      "inputs": [
        {
          "internalType": "address",
          "name": "from",
          "type": "address"
        },
        {
          "internalType": "address",
          "name": "to",
          "type": "address"
        },
        {
          "internalType": "uint256",
          "name": "id",
          "type": "uint256"
        },
        {
          "internalType": "uint256",
          "name": "amount",
          "type": "uint256"
        },
        {
          "internalType": "bytes",
          "name": "data",
          "type": "bytes"
        }
      ],
      "name": "safeTransferFrom",
      "outputs": [],
      "stateMutability": "nonpayable",
      "type": "function"
    },
    {
      "inputs": [
        {
          "internalType": "address",
          "name": "operator",
          "type": "address"
        },
        {
          "internalType": "bool",
          "name": "approved",
          "type": "bool"
        }
      ],
      "name": "setApprovalForAll",
      "outputs": [],
      "stateMutability": "nonpayable",
      "type": "function"
    },
    {
      "inputs": [],
      "name": "setPacksReady",
      "outputs": [],
      "stateMutability": "nonpayable",
      "type": "function"
    },
    {
      "inputs": [
        {
          "internalType": "string",
          "name": "provenanceHash",
          "type": "string"
        }
      ],
      "name": "setProvenanceHash",
      "outputs": [],
      "stateMutability": "nonpayable",
      "type": "function"
    },
    {
      "inputs": [],
      "name": "setStartingIndex",
      "outputs": [],
      "stateMutability": "nonpayable",
      "type": "function"
    },
    {
      "inputs": [],
      "name": "setURIs",
      "outputs": [],
      "stateMutability": "nonpayable",
      "type": "function"
    },
    {
      "inputs": [
        {
          "internalType": "bytes4",
          "name": "interfaceId",
          "type": "bytes4"
        }
      ],
      "name": "supportsInterface",
      "outputs": [
        {
          "internalType": "bool",
          "name": "",
          "type": "bool"
        }
      ],
      "stateMutability": "view",
      "type": "function"
    },
    {
      "inputs": [
        {
          "internalType": "address",
          "name": "from",
          "type": "address"
        },
        {
          "internalType": "address",
          "name": "to",
          "type": "address"
        },
        {
          "internalType": "uint256",
          "name": "amount",
          "type": "uint256"
        },
        {
          "internalType": "bytes",
          "name": "data",
          "type": "bytes"
        }
      ],
      "name": "transferCurrency",
      "outputs": [],
      "stateMutability": "nonpayable",
      "type": "function"
    },
    {
      "inputs": [
        {
          "internalType": "address",
          "name": "newOwner",
          "type": "address"
        }
      ],
      "name": "transferOwnership",
      "outputs": [],
      "stateMutability": "nonpayable",
      "type": "function"
    },
    {
      "inputs": [
        {
          "internalType": "uint256",
          "name": "tokenId",
          "type": "uint256"
        }
      ],
      "name": "uri",
      "outputs": [
        {
          "internalType": "string",
          "name": "",
          "type": "string"
        }
      ],
      "stateMutability": "view",
      "type": "function"
    }
  ],
  "bytecode": "0x6080604052612710600f556001601060006101000a81548160ff0219169083151502179055506005546011556011546012556040518060400160405280601581526020017f68747470733a2f2f697066732e696f2f697066732f0000000000000000000000815250601690805190602001906200007e929190620003b1565b506040518060200160405280600081525060199080519060200190620000a6929190620003b1565b50348015620000b457600080fd5b50604051620059cd380380620059cd8339818101604052810190620000da9190620004ea565b60405180602001604052806000815250620000fb81620001fb60201b60201c565b506200011c620001106200021760201b60201c565b6200021f60201b60201c565b620001676040518060400160405280601281526020017f4d616b696e6720636f6e74726163742e2e2e0000000000000000000000000000815250620002e560201b62001b271760201c565b8a6005819055508960068190555088600781905550876008819055508660098190555085600a8190555084600b8190555083600c9080519060200190620001b0929190620003b1565b5082600d9080519060200190620001c9929190620003b1565b5081600e9080519060200190620001e2929190620003b1565b5080600f81905550505050505050505050505062000851565b806002908051906020019062000213929190620003b1565b5050565b600033905090565b6000600360009054906101000a900473ffffffffffffffffffffffffffffffffffffffff16905081600360006101000a81548173ffffffffffffffffffffffffffffffffffffffff021916908373ffffffffffffffffffffffffffffffffffffffff1602179055508173ffffffffffffffffffffffffffffffffffffffff168173ffffffffffffffffffffffffffffffffffffffff167f8be0079c531659141344cd1fd0a4f28419497f9722a3daafe3b4186f6b6457e060405160405180910390a35050565b6200038581604051602401620002fc91906200067d565b6040516020818303038152906040527f41304fac000000000000000000000000000000000000000000000000000000007bffffffffffffffffffffffffffffffffffffffffffffffffffffffff19166020820180517bffffffffffffffffffffffffffffffffffffffffffffffffffffffff83818316178352505050506200038860201b60201c565b50565b60008151905060006a636f6e736f6c652e6c6f679050602083016000808483855afa5050505050565b828054620003bf906200075c565b90600052602060002090601f016020900481019282620003e357600085556200042f565b82601f10620003fe57805160ff19168380011785556200042f565b828001600101855582156200042f579182015b828111156200042e57825182559160200191906001019062000411565b5b5090506200043e919062000442565b5090565b5b808211156200045d57600081600090555060010162000443565b5090565b6000620004786200047284620006ca565b620006a1565b9050828152602081018484840111156200049157600080fd5b6200049e84828562000726565b509392505050565b600082601f830112620004b857600080fd5b8151620004ca84826020860162000461565b91505092915050565b600081519050620004e48162000837565b92915050565b60008060008060008060008060008060006101608c8e0312156200050d57600080fd5b60006200051d8e828f01620004d3565b9b50506020620005308e828f01620004d3565b9a50506040620005438e828f01620004d3565b9950506060620005568e828f01620004d3565b9850506080620005698e828f01620004d3565b97505060a06200057c8e828f01620004d3565b96505060c06200058f8e828f01620004d3565b95505060e08c015167ffffffffffffffff811115620005ad57600080fd5b620005bb8e828f01620004a6565b9450506101008c015167ffffffffffffffff811115620005da57600080fd5b620005e88e828f01620004a6565b9350506101208c015167ffffffffffffffff8111156200060757600080fd5b620006158e828f01620004a6565b925050610140620006298e828f01620004d3565b9150509295989b509295989b9093969950565b6000620006498262000700565b6200065581856200070b565b93506200066781856020860162000726565b620006728162000826565b840191505092915050565b600060208201905081810360008301526200069981846200063c565b905092915050565b6000620006ad620006c0565b9050620006bb828262000792565b919050565b6000604051905090565b600067ffffffffffffffff821115620006e857620006e7620007f7565b5b620006f38262000826565b9050602081019050919050565b600081519050919050565b600082825260208201905092915050565b6000819050919050565b60005b838110156200074657808201518184015260208101905062000729565b8381111562000756576000848401525b50505050565b600060028204905060018216806200077557607f821691505b602082108114156200078c576200078b620007c8565b5b50919050565b6200079d8262000826565b810181811067ffffffffffffffff82111715620007bf57620007be620007f7565b5b80604052505050565b7f4e487b7100000000000000000000000000000000000000000000000000000000600052602260045260246000fd5b7f4e487b7100000000000000000000000000000000000000000000000000000000600052604160045260246000fd5b6000601f19601f8301169050919050565b62000842816200071c565b81146200084e57600080fd5b50565b61516c80620008616000396000f3fe608060405234801561001057600080fd5b50600436106101d95760003560e01c80635d2db2bf11610104578063a22cb465116100a2578063e986655011610071578063e986655014610484578063f242432a1461048e578063f2fde38b146104aa578063f7b6cf75146104c6576101d9565b8063a22cb46514610410578063bbb13e171461042c578063be59ec2614610436578063e985e9c514610454576101d9565b806375223f92116100de57806375223f92146103d45780637d17fcbe146103de5780638da5cb5b146103e85780639ebf488b14610406576101d9565b80635d2db2bf146103a257806368200edf146103ac578063715018a6146103ca576101d9565b806318e20a381161017c5780633c1d4a991161014b5780633c1d4a991461032e5780634e1273f41461034c5780634f3551d71461037c57806357f7789e14610386576101d9565b806318e20a38146102ce57806319b60439146102ec57806319bfbb9e146102f65780632eb2c2d614610312576101d9565b80631072b91f116101b85780631072b91f1461026e578063109695231461028a57806313dc2db2146102a6578063143cc144146102b0576101d9565b8062fdd58e146101de57806301ffc9a71461020e5780630e89341c1461023e575b600080fd5b6101f860048036038101906101f39190613700565b6104e4565b60405161020591906143c9565b60405180910390f35b610228600480360381019061022391906137a8565b6105ad565b6040516102359190614045565b60405180910390f35b6102586004803603810190610253919061383b565b61068f565b6040516102659190614060565b60405180910390f35b6102886004803603810190610283919061383b565b610734565b005b6102a4600480360381019061029f91906137fa565b61076b565b005b6102ae610801565b005b6102b861095f565b6040516102c591906143c9565b60405180910390f35b6102d66109e5565b6040516102e391906143c9565b60405180910390f35b6102f46109eb565b005b610310600480360381019061030b91906135ba565b610a93565b005b61032c600480360381019061032791906134fb565b610aa7565b005b610336610b48565b6040516103439190613fd1565b60405180910390f35b6103666004803603810190610361919061373c565b610c0f565b6040516103739190613fec565b60405180910390f35b610384610dc0565b005b6103a0600480360381019061039b9190613864565b610ec9565b005b6103aa610fd3565b005b6103b46112d1565b6040516103c191906143c9565b60405180910390f35b6103d26113a3565b005b6103dc61142b565b005b6103e66114d8565b005b6103f06115a2565b6040516103fd9190613ecb565b60405180910390f35b61040e6115cc565b005b61042a600480360381019061042591906136c4565b6116d5565b005b6104346116eb565b005b61043e61180a565b60405161044b9190614045565b60405180910390f35b61046e600480360381019061046991906134bf565b61181d565b60405161047b9190614045565b60405180910390f35b61048c6118b1565b005b6104a860048036038101906104a39190613635565b611988565b005b6104c460048036038101906104bf9190613496565b611a29565b005b6104ce611b21565b6040516104db91906143c9565b60405180910390f35b60008073ffffffffffffffffffffffffffffffffffffffff168373ffffffffffffffffffffffffffffffffffffffff161415610555576040517f08c379a000000000000000000000000000000000000000000000000000000000815260040161054c90614149565b60405180910390fd5b60008083815260200190815260200160002060008473ffffffffffffffffffffffffffffffffffffffff1673ffffffffffffffffffffffffffffffffffffffff16815260200190815260200160002054905092915050565b60007fd9b67a26000000000000000000000000000000000000000000000000000000007bffffffffffffffffffffffffffffffffffffffffffffffffffffffff1916827bffffffffffffffffffffffffffffffffffffffffffffffffffffffff1916148061067857507f0e89341c000000000000000000000000000000000000000000000000000000007bffffffffffffffffffffffffffffffffffffffffffffffffffffffff1916827bffffffffffffffffffffffffffffffffffffffffffffffffffffffff1916145b80610688575061068782611bc0565b5b9050919050565b60606024600083815260200190815260200160002080546106af90614782565b80601f01602080910402602001604051908101604052809291908181526020018280546106db90614782565b80156107285780601f106106fd57610100808354040283529160200191610728565b820191906000526020600020905b81548152906001019060200180831161070b57829003601f168201915b50505050509050919050565b60006107406004611c2a565b905061075d33828460405180602001604052806000815250611c38565b6107676004611dce565b5050565b610773611de4565b73ffffffffffffffffffffffffffffffffffffffff166107916115a2565b73ffffffffffffffffffffffffffffffffffffffff16146107e7576040517f08c379a00000000000000000000000000000000000000000000000000000000081526004016107de906142a9565b60405180910390fd5b80601990805190602001906107fd92919061316c565b5050565b610809611de4565b73ffffffffffffffffffffffffffffffffffffffff166108276115a2565b73ffffffffffffffffffffffffffffffffffffffff161461087d576040517f08c379a0000000000000000000000000000000000000000000000000000000008152600401610874906142a9565b60405180910390fd5b60006040518060a00160405280600260ff168152602001600c60ff168152602001601b60ff168152602001602460ff168152602001603160ff16815250905060005b600581101561095b57818160058110610901577f4e487b7100000000000000000000000000000000000000000000000000000000600052603260045260246000fd5b602002015160ff16601a8260058110610943577f4e487b7100000000000000000000000000000000000000000000000000000000600052603260045260246000fd5b01819055508080610953906147e5565b9150506108bf565b5050565b6000610969611de4565b73ffffffffffffffffffffffffffffffffffffffff166109876115a2565b73ffffffffffffffffffffffffffffffffffffffff16146109dd576040517f08c379a00000000000000000000000000000000000000000000000000000000081526004016109d4906142a9565b60405180910390fd5b600654905090565b600f5481565b6109f3611de4565b73ffffffffffffffffffffffffffffffffffffffff16610a116115a2565b73ffffffffffffffffffffffffffffffffffffffff1614610a67576040517f08c379a0000000000000000000000000000000000000000000000000000000008152600401610a5e906142a9565b60405180910390fd5b601060009054906101000a900460ff1615601060006101000a81548160ff021916908315150217905550565b610aa1848460008585611988565b50505050565b610aaf611de4565b73ffffffffffffffffffffffffffffffffffffffff168573ffffffffffffffffffffffffffffffffffffffff161480610af55750610af485610aef611de4565b61181d565b5b610b34576040517f08c379a0000000000000000000000000000000000000000000000000000000008152600401610b2b90614229565b60405180910390fd5b610b418585858585611dec565b5050505050565b610b506131f2565b610b58611de4565b73ffffffffffffffffffffffffffffffffffffffff16610b766115a2565b73ffffffffffffffffffffffffffffffffffffffff1614610bcc576040517f08c379a0000000000000000000000000000000000000000000000000000000008152600401610bc3906142a9565b60405180910390fd5b601a600580602002604051908101604052809291908260058015610c05576020028201915b815481526020019060010190808311610bf1575b5050505050905090565b60608151835114610c55576040517f08c379a0000000000000000000000000000000000000000000000000000000008152600401610c4c90614369565b60405180910390fd5b6000835167ffffffffffffffff811115610c98577f4e487b7100000000000000000000000000000000000000000000000000000000600052604160045260246000fd5b604051908082528060200260200182016040528015610cc65781602001602082028036833780820191505090505b50905060005b8451811015610db557610d5f858281518110610d11577f4e487b7100000000000000000000000000000000000000000000000000000000600052603260045260246000fd5b6020026020010151858381518110610d52577f4e487b7100000000000000000000000000000000000000000000000000000000600052603260045260246000fd5b60200260200101516104e4565b828281518110610d98577f4e487b7100000000000000000000000000000000000000000000000000000000600052603260045260246000fd5b60200260200101818152505080610dae906147e5565b9050610ccc565b508091505092915050565b600b5460145410610e06576040517f08c379a0000000000000000000000000000000000000000000000000000000008152600401610dfd906142e9565b60405180910390fd5b6001610e14336011546104e4565b10610e54576040517f08c379a0000000000000000000000000000000000000000000000000000000008152600401610e4b90614329565b60405180910390fd5b610e7233601254600160405180602001604052806000815250611c38565b600160146000828254610e8591906145aa565b925050819055507f2e0f4d63dcc00e6a11c8aef9f6e15c1f9cd6e9a090b2dd99c7b797f1a28d300d33601454604051610ebf929190613fa8565b60405180910390a1565b610ed1611de4565b73ffffffffffffffffffffffffffffffffffffffff16610eef6115a2565b73ffffffffffffffffffffffffffffffffffffffff1614610f45576040517f08c379a0000000000000000000000000000000000000000000000000000000008152600401610f3c906142a9565b60405180910390fd5b6000602460008481526020019081526020016000208054610f6590614782565b905014610fa7576040517f08c379a0000000000000000000000000000000000000000000000000000000008152600401610f9e90614249565b60405180910390fd5b80602460008481526020019081526020016000209080519060200190610fce92919061316c565b505050565b610fdb611de4565b73ffffffffffffffffffffffffffffffffffffffff16610ff96115a2565b73ffffffffffffffffffffffffffffffffffffffff161461104f576040517f08c379a0000000000000000000000000000000000000000000000000000000008152600401611046906142a9565b60405180910390fd5b60005b60055481101561125e5761109d6040518060400160405280601281526020017f5374617274696e6720696e64657820697320000000000000000000000000000081525060185461214c565b6110de6040518060400160405280600c81526020017f6e756d206174686c65746573000000000000000000000000000000000000000081525060055461214c565b6000600554826018546110f191906145aa565b6110fb9190614886565b905061113c6040518060400160405280600b81526020017f6d696e7420696e646578200000000000000000000000000000000000000000008152508261214c565b61117081600c61114b846121e8565b60405160200161115c929190613e70565b604051602081830303815290604052610ec9565b61124a6040518060400160405280600881526020017f4e657720555249200000000000000000000000000000000000000000000000008152506024600084815260200190815260200160002080546111c790614782565b80601f01602080910402602001604051908101604052809291908181526020018280546111f390614782565b80156112405780601f1061121557610100808354040283529160200191611240565b820191906000526020600020905b81548152906001019060200180831161122357829003601f168201915b5050505050612395565b508080611256906147e5565b915050611052565b50611297600160055461127191906145aa565b600d6040516020016112839190613e59565b604051602081830303815290604052610ec9565b6112cf60026005546112a991906145aa565b600e6040516020016112bb9190613e59565b604051602081830303815290604052610ec9565b565b60006112db611de4565b73ffffffffffffffffffffffffffffffffffffffff166112f96115a2565b73ffffffffffffffffffffffffffffffffffffffff161461134f576040517f08c379a0000000000000000000000000000000000000000000000000000000008152600401611346906142a9565b60405180910390fd5b60006103844233604051602001611367929190613e9f565b6040516020818303038152906040528051906020012060001c61138a9190614886565b905060018161139991906145aa565b6023819055505090565b6113ab611de4565b73ffffffffffffffffffffffffffffffffffffffff166113c96115a2565b73ffffffffffffffffffffffffffffffffffffffff161461141f576040517f08c379a0000000000000000000000000000000000000000000000000000000008152600401611416906142a9565b60405180910390fd5b6114296000612431565b565b601060009054906101000a900460ff1661147a576040517f08c379a000000000000000000000000000000000000000000000000000000000815260040161147190614309565b60405180910390fd5b6000611488336012546104e4565b116114c8576040517f08c379a00000000000000000000000000000000000000000000000000000000081526004016114bf90614129565b60405180910390fd5b6114d63360125460016124f7565b565b6114e0611de4565b73ffffffffffffffffffffffffffffffffffffffff166114fe6115a2565b73ffffffffffffffffffffffffffffffffffffffff1614611554576040517f08c379a000000000000000000000000000000000000000000000000000000000815260040161154b906142a9565b60405180910390fd5b600060185414611599576040517f08c379a0000000000000000000000000000000000000000000000000000000008152600401611590906141e9565b60405180910390fd5b43601781905550565b6000600360009054906101000a900473ffffffffffffffffffffffffffffffffffffffff16905090565b600b5460135410611612576040517f08c379a0000000000000000000000000000000000000000000000000000000008152600401611609906142e9565b60405180910390fd5b6001611620336011546104e4565b10611660576040517f08c379a000000000000000000000000000000000000000000000000000000000815260040161165790614329565b60405180910390fd5b61167e33601154600160405180602001604052806000815250611c38565b60016013600082825461169191906145aa565b925050819055507f2e0f4d63dcc00e6a11c8aef9f6e15c1f9cd6e9a090b2dd99c7b797f1a28d300d336013546040516116cb929190613fa8565b60405180910390a1565b6116e76116e0611de4565b8383612714565b5050565b601060009054906101000a900460ff1661173a576040517f08c379a000000000000000000000000000000000000000000000000000000000815260040161173190614309565b60405180910390fd5b6001611748336011546104e4565b14611788576040517f08c379a000000000000000000000000000000000000000000000000000000000815260040161177f906142c9565b60405180910390fd5b611790610801565b60005b60058160ff1610156117f9576117e6601a8260ff16600581106117df577f4e487b7100000000000000000000000000000000000000000000000000000000600052603260045260246000fd5b0154612881565b80806117f19061482e565b915050611793565b506118083360115460016124f7565b565b601060009054906101000a900460ff1681565b6000600160008473ffffffffffffffffffffffffffffffffffffffff1673ffffffffffffffffffffffffffffffffffffffff16815260200190815260200160002060008373ffffffffffffffffffffffffffffffffffffffff1673ffffffffffffffffffffffffffffffffffffffff16815260200190815260200160002060009054906101000a900460ff16905092915050565b6118b9611de4565b73ffffffffffffffffffffffffffffffffffffffff166118d76115a2565b73ffffffffffffffffffffffffffffffffffffffff161461192d576040517f08c379a0000000000000000000000000000000000000000000000000000000008152600401611924906142a9565b60405180910390fd5b60065460055461193d9190614631565b60014361194a919061468b565b4060001c6119589190614886565b601881905550600060185414156119865761197f60016018546129fc90919063ffffffff16565b6018819055505b565b611990611de4565b73ffffffffffffffffffffffffffffffffffffffff168573ffffffffffffffffffffffffffffffffffffffff1614806119d657506119d5856119d0611de4565b61181d565b5b611a15576040517f08c379a0000000000000000000000000000000000000000000000000000000008152600401611a0c906141a9565b60405180910390fd5b611a228585858585612a12565b5050505050565b611a31611de4565b73ffffffffffffffffffffffffffffffffffffffff16611a4f6115a2565b73ffffffffffffffffffffffffffffffffffffffff1614611aa5576040517f08c379a0000000000000000000000000000000000000000000000000000000008152600401611a9c906142a9565b60405180910390fd5b600073ffffffffffffffffffffffffffffffffffffffff168173ffffffffffffffffffffffffffffffffffffffff161415611b15576040517f08c379a0000000000000000000000000000000000000000000000000000000008152600401611b0c90614169565b60405180910390fd5b611b1e81612431565b50565b60235481565b611bbd81604051602401611b3b9190614060565b6040516020818303038152906040527f41304fac000000000000000000000000000000000000000000000000000000007bffffffffffffffffffffffffffffffffffffffffffffffffffffffff19166020820180517bffffffffffffffffffffffffffffffffffffffffffffffffffffffff8381831617835250505050612c94565b50565b60007f01ffc9a7000000000000000000000000000000000000000000000000000000007bffffffffffffffffffffffffffffffffffffffffffffffffffffffff1916827bffffffffffffffffffffffffffffffffffffffffffffffffffffffff1916149050919050565b600081600001549050919050565b600073ffffffffffffffffffffffffffffffffffffffff168473ffffffffffffffffffffffffffffffffffffffff161415611ca8576040517f08c379a0000000000000000000000000000000000000000000000000000000008152600401611c9f906143a9565b60405180910390fd5b6000611cb2611de4565b9050611cd381600087611cc488612cbd565b611ccd88612cbd565b87612d83565b8260008086815260200190815260200160002060008773ffffffffffffffffffffffffffffffffffffffff1673ffffffffffffffffffffffffffffffffffffffff1681526020019081526020016000206000828254611d3291906145aa565b925050819055508473ffffffffffffffffffffffffffffffffffffffff16600073ffffffffffffffffffffffffffffffffffffffff168273ffffffffffffffffffffffffffffffffffffffff167fc3d58168c5ae7397731d063d5bbf3d657854427343f4c083240f7aacaa2d0f628787604051611db09291906143e4565b60405180910390a4611dc781600087878787612d8b565b5050505050565b6001816000016000828254019250508190555050565b600033905090565b8151835114611e30576040517f08c379a0000000000000000000000000000000000000000000000000000000008152600401611e2790614389565b60405180910390fd5b600073ffffffffffffffffffffffffffffffffffffffff168473ffffffffffffffffffffffffffffffffffffffff161415611ea0576040517f08c379a0000000000000000000000000000000000000000000000000000000008152600401611e9790614209565b60405180910390fd5b6000611eaa611de4565b9050611eba818787878787612d83565b60005b84518110156120b7576000858281518110611f01577f4e487b7100000000000000000000000000000000000000000000000000000000600052603260045260246000fd5b602002602001015190506000858381518110611f46577f4e487b7100000000000000000000000000000000000000000000000000000000600052603260045260246000fd5b60200260200101519050600080600084815260200190815260200160002060008b73ffffffffffffffffffffffffffffffffffffffff1673ffffffffffffffffffffffffffffffffffffffff16815260200190815260200160002054905081811015611fe7576040517f08c379a0000000000000000000000000000000000000000000000000000000008152600401611fde90614289565b60405180910390fd5b81810360008085815260200190815260200160002060008c73ffffffffffffffffffffffffffffffffffffffff1673ffffffffffffffffffffffffffffffffffffffff168152602001908152602001600020819055508160008085815260200190815260200160002060008b73ffffffffffffffffffffffffffffffffffffffff1673ffffffffffffffffffffffffffffffffffffffff168152602001908152602001600020600082825461209c91906145aa565b92505081905550505050806120b0906147e5565b9050611ebd565b508473ffffffffffffffffffffffffffffffffffffffff168673ffffffffffffffffffffffffffffffffffffffff168273ffffffffffffffffffffffffffffffffffffffff167f4a39dc06d4c0dbc64b70af90fd698a233a518aa5d07e595d983b8c0526c8f7fb878760405161212e92919061400e565b60405180910390a4612144818787878787612f72565b505050505050565b6121e482826040516024016121629291906140b9565b6040516020818303038152906040527f9710a9d0000000000000000000000000000000000000000000000000000000007bffffffffffffffffffffffffffffffffffffffffffffffffffffffff19166020820180517bffffffffffffffffffffffffffffffffffffffffffffffffffffffff8381831617835250505050612c94565b5050565b60606000821415612230576040518060400160405280600181526020017f30000000000000000000000000000000000000000000000000000000000000008152509050612390565b600082905060005b6000821461226257808061224b906147e5565b915050600a8261225b9190614600565b9150612238565b60008167ffffffffffffffff8111156122a4577f4e487b7100000000000000000000000000000000000000000000000000000000600052604160045260246000fd5b6040519080825280601f01601f1916602001820160405280156122d65781602001600182028036833780820191505090505b5090505b60008514612389576001826122ef919061468b565b9150600a856122fe9190614886565b603061230a91906145aa565b60f81b818381518110612346577f4e487b7100000000000000000000000000000000000000000000000000000000600052603260045260246000fd5b60200101907effffffffffffffffffffffffffffffffffffffffffffffffffffffffffffff1916908160001a905350600a856123829190614600565b94506122da565b8093505050505b919050565b61242d82826040516024016123ab929190614082565b6040516020818303038152906040527f4b5c4277000000000000000000000000000000000000000000000000000000007bffffffffffffffffffffffffffffffffffffffffffffffffffffffff19166020820180517bffffffffffffffffffffffffffffffffffffffffffffffffffffffff8381831617835250505050612c94565b5050565b6000600360009054906101000a900473ffffffffffffffffffffffffffffffffffffffff16905081600360006101000a81548173ffffffffffffffffffffffffffffffffffffffff021916908373ffffffffffffffffffffffffffffffffffffffff1602179055508173ffffffffffffffffffffffffffffffffffffffff168173ffffffffffffffffffffffffffffffffffffffff167f8be0079c531659141344cd1fd0a4f28419497f9722a3daafe3b4186f6b6457e060405160405180910390a35050565b600073ffffffffffffffffffffffffffffffffffffffff168373ffffffffffffffffffffffffffffffffffffffff161415612567576040517f08c379a000000000000000000000000000000000000000000000000000000000815260040161255e90614269565b60405180910390fd5b6000612571611de4565b90506125a18185600061258387612cbd565b61258c87612cbd565b60405180602001604052806000815250612d83565b600080600085815260200190815260200160002060008673ffffffffffffffffffffffffffffffffffffffff1673ffffffffffffffffffffffffffffffffffffffff16815260200190815260200160002054905082811015612638576040517f08c379a000000000000000000000000000000000000000000000000000000000815260040161262f90614189565b60405180910390fd5b82810360008086815260200190815260200160002060008773ffffffffffffffffffffffffffffffffffffffff1673ffffffffffffffffffffffffffffffffffffffff16815260200190815260200160002081905550600073ffffffffffffffffffffffffffffffffffffffff168573ffffffffffffffffffffffffffffffffffffffff168373ffffffffffffffffffffffffffffffffffffffff167fc3d58168c5ae7397731d063d5bbf3d657854427343f4c083240f7aacaa2d0f6287876040516127059291906143e4565b60405180910390a45050505050565b8173ffffffffffffffffffffffffffffffffffffffff168373ffffffffffffffffffffffffffffffffffffffff161415612783576040517f08c379a000000000000000000000000000000000000000000000000000000000815260040161277a90614349565b60405180910390fd5b80600160008573ffffffffffffffffffffffffffffffffffffffff1673ffffffffffffffffffffffffffffffffffffffff16815260200190815260200160002060008473ffffffffffffffffffffffffffffffffffffffff1673ffffffffffffffffffffffffffffffffffffffff16815260200190815260200160002060006101000a81548160ff0219169083151502179055508173ffffffffffffffffffffffffffffffffffffffff168373ffffffffffffffffffffffffffffffffffffffff167f17307eab39ab6107e8899845ad3d59bd9653f200f220920489ca2b5937696c31836040516128749190614045565b60405180910390a3505050565b6128c26040518060400160405280600f81526020017f5374617274696e6720696e64657820000000000000000000000000000000000081525060185461214c565b6129016040518060400160405280600f81526020017f4e6577206d696e7420696e6465782000000000000000000000000000000000008152508261214c565b6006546005546129119190614631565b60155410156129f957600654602560008381526020019081526020016000205410612971576040517f08c379a0000000000000000000000000000000000000000000000000000000008152600401612968906141c9565b60405180910390fd5b6129b3338260016040518060400160405280600481526020017f3078303000000000000000000000000000000000000000000000000000000000815250611c38565b60016025600083815260200190815260200160002060008282546129d791906145aa565b925050819055506001601560008282546129f191906145aa565b925050819055505b50565b60008183612a0a91906145aa565b905092915050565b600073ffffffffffffffffffffffffffffffffffffffff168473ffffffffffffffffffffffffffffffffffffffff161415612a82576040517f08c379a0000000000000000000000000000000000000000000000000000000008152600401612a7990614209565b60405180910390fd5b6000612a8c611de4565b9050612aac818787612a9d88612cbd565b612aa688612cbd565b87612d83565b600080600086815260200190815260200160002060008873ffffffffffffffffffffffffffffffffffffffff1673ffffffffffffffffffffffffffffffffffffffff16815260200190815260200160002054905083811015612b43576040517f08c379a0000000000000000000000000000000000000000000000000000000008152600401612b3a90614289565b60405180910390fd5b83810360008087815260200190815260200160002060008973ffffffffffffffffffffffffffffffffffffffff1673ffffffffffffffffffffffffffffffffffffffff168152602001908152602001600020819055508360008087815260200190815260200160002060008873ffffffffffffffffffffffffffffffffffffffff1673ffffffffffffffffffffffffffffffffffffffff1681526020019081526020016000206000828254612bf891906145aa565b925050819055508573ffffffffffffffffffffffffffffffffffffffff168773ffffffffffffffffffffffffffffffffffffffff168373ffffffffffffffffffffffffffffffffffffffff167fc3d58168c5ae7397731d063d5bbf3d657854427343f4c083240f7aacaa2d0f628888604051612c759291906143e4565b60405180910390a4612c8b828888888888612d8b565b50505050505050565b60008151905060006a636f6e736f6c652e6c6f679050602083016000808483855afa5050505050565b60606000600167ffffffffffffffff811115612d02577f4e487b7100000000000000000000000000000000000000000000000000000000600052604160045260246000fd5b604051908082528060200260200182016040528015612d305781602001602082028036833780820191505090505b5090508281600081518110612d6e577f4e487b7100000000000000000000000000000000000000000000000000000000600052603260045260246000fd5b60200260200101818152505080915050919050565b505050505050565b612daa8473ffffffffffffffffffffffffffffffffffffffff16613159565b15612f6a578373ffffffffffffffffffffffffffffffffffffffff1663f23a6e6187878686866040518663ffffffff1660e01b8152600401612df0959493929190613f4e565b602060405180830381600087803b158015612e0a57600080fd5b505af1925050508015612e3b57506040513d601f19601f82011682018060405250810190612e3891906137d1565b60015b612ee157612e47614973565b806308c379a01415612ea45750612e5c615044565b80612e675750612ea6565b806040517f08c379a0000000000000000000000000000000000000000000000000000000008152600401612e9b9190614060565b60405180910390fd5b505b6040517f08c379a0000000000000000000000000000000000000000000000000000000008152600401612ed8906140e9565b60405180910390fd5b63f23a6e6160e01b7bffffffffffffffffffffffffffffffffffffffffffffffffffffffff1916817bffffffffffffffffffffffffffffffffffffffffffffffffffffffff191614612f68576040517f08c379a0000000000000000000000000000000000000000000000000000000008152600401612f5f90614109565b60405180910390fd5b505b505050505050565b612f918473ffffffffffffffffffffffffffffffffffffffff16613159565b15613151578373ffffffffffffffffffffffffffffffffffffffff1663bc197c8187878686866040518663ffffffff1660e01b8152600401612fd7959493929190613ee6565b602060405180830381600087803b158015612ff157600080fd5b505af192505050801561302257506040513d601f19601f8201168201806040525081019061301f91906137d1565b60015b6130c85761302e614973565b806308c379a0141561308b5750613043615044565b8061304e575061308d565b806040517f08c379a00000000000000000000000000000000000000000000000000000000081526004016130829190614060565b60405180910390fd5b505b6040517f08c379a00000000000000000000000000000000000000000000000000000000081526004016130bf906140e9565b60405180910390fd5b63bc197c8160e01b7bffffffffffffffffffffffffffffffffffffffffffffffffffffffff1916817bffffffffffffffffffffffffffffffffffffffffffffffffffffffff19161461314f576040517f08c379a000000000000000000000000000000000000000000000000000000000815260040161314690614109565b60405180910390fd5b505b505050505050565b600080823b905060008111915050919050565b82805461317890614782565b90600052602060002090601f01602090048101928261319a57600085556131e1565b82601f106131b357805160ff19168380011785556131e1565b828001600101855582156131e1579182015b828111156131e05782518255916020019190600101906131c5565b5b5090506131ee9190613214565b5090565b6040518060a00160405280600590602082028036833780820191505090505090565b5b8082111561322d576000816000905550600101613215565b5090565b600061324461323f84614432565b61440d565b9050808382526020820190508285602086028201111561326357600080fd5b60005b8581101561329357816132798882613385565b845260208401935060208301925050600181019050613266565b5050509392505050565b60006132b06132ab8461445e565b61440d565b905080838252602082019050828560208602820111156132cf57600080fd5b60005b858110156132ff57816132e58882613481565b8452602084019350602083019250506001810190506132d2565b5050509392505050565b600061331c6133178461448a565b61440d565b90508281526020810184848401111561333457600080fd5b61333f848285614740565b509392505050565b600061335a613355846144bb565b61440d565b90508281526020810184848401111561337257600080fd5b61337d848285614740565b509392505050565b600081359050613394816150da565b92915050565b600082601f8301126133ab57600080fd5b81356133bb848260208601613231565b91505092915050565b600082601f8301126133d557600080fd5b81356133e584826020860161329d565b91505092915050565b6000813590506133fd816150f1565b92915050565b60008135905061341281615108565b92915050565b60008151905061342781615108565b92915050565b600082601f83011261343e57600080fd5b813561344e848260208601613309565b91505092915050565b600082601f83011261346857600080fd5b8135613478848260208601613347565b91505092915050565b6000813590506134908161511f565b92915050565b6000602082840312156134a857600080fd5b60006134b684828501613385565b91505092915050565b600080604083850312156134d257600080fd5b60006134e085828601613385565b92505060206134f185828601613385565b9150509250929050565b600080600080600060a0868803121561351357600080fd5b600061352188828901613385565b955050602061353288828901613385565b945050604086013567ffffffffffffffff81111561354f57600080fd5b61355b888289016133c4565b935050606086013567ffffffffffffffff81111561357857600080fd5b613584888289016133c4565b925050608086013567ffffffffffffffff8111156135a157600080fd5b6135ad8882890161342d565b9150509295509295909350565b600080600080608085870312156135d057600080fd5b60006135de87828801613385565b94505060206135ef87828801613385565b935050604061360087828801613481565b925050606085013567ffffffffffffffff81111561361d57600080fd5b6136298782880161342d565b91505092959194509250565b600080600080600060a0868803121561364d57600080fd5b600061365b88828901613385565b955050602061366c88828901613385565b945050604061367d88828901613481565b935050606061368e88828901613481565b925050608086013567ffffffffffffffff8111156136ab57600080fd5b6136b78882890161342d565b9150509295509295909350565b600080604083850312156136d757600080fd5b60006136e585828601613385565b92505060206136f6858286016133ee565b9150509250929050565b6000806040838503121561371357600080fd5b600061372185828601613385565b925050602061373285828601613481565b9150509250929050565b6000806040838503121561374f57600080fd5b600083013567ffffffffffffffff81111561376957600080fd5b6137758582860161339a565b925050602083013567ffffffffffffffff81111561379257600080fd5b61379e858286016133c4565b9150509250929050565b6000602082840312156137ba57600080fd5b60006137c884828501613403565b91505092915050565b6000602082840312156137e357600080fd5b60006137f184828501613418565b91505092915050565b60006020828403121561380c57600080fd5b600082013567ffffffffffffffff81111561382657600080fd5b61383284828501613457565b91505092915050565b60006020828403121561384d57600080fd5b600061385b84828501613481565b91505092915050565b6000806040838503121561387757600080fd5b600061388585828601613481565b925050602083013567ffffffffffffffff8111156138a257600080fd5b6138ae85828601613457565b9150509250929050565b60006138c48383613e24565b60208301905092915050565b6138d9816146bf565b82525050565b6138f06138eb826146bf565b614858565b82525050565b6138ff8161451b565b6139098184614561565b9250613914826144ec565b8060005b8381101561394557815161392c87826138b8565b965061393783614547565b925050600181019050613918565b505050505050565b600061395882614526565b613962818561456c565b935061396d836144f6565b8060005b8381101561399e57815161398588826138b8565b975061399083614554565b925050600181019050613971565b5085935050505092915050565b6139b4816146d1565b82525050565b60006139c582614531565b6139cf818561457d565b93506139df81856020860161474f565b6139e881614995565b840191505092915050565b60006139fe8261453c565b613a08818561458e565b9350613a1881856020860161474f565b613a2181614995565b840191505092915050565b6000613a378261453c565b613a41818561459f565b9350613a5181856020860161474f565b80840191505092915050565b60008154613a6a81614782565b613a74818661459f565b94506001821660008114613a8f5760018114613aa057613ad3565b60ff19831686528186019350613ad3565b613aa985614506565b60005b83811015613acb57815481890152600182019150602081019050613aac565b838801955050505b50505092915050565b6000613ae960348361458e565b9150613af4826149c0565b604082019050919050565b6000613b0c60288361458e565b9150613b1782614a0f565b604082019050919050565b6000613b2f601b8361458e565b9150613b3a82614a5e565b602082019050919050565b6000613b52602b8361458e565b9150613b5d82614a87565b604082019050919050565b6000613b7560268361458e565b9150613b8082614ad6565b604082019050919050565b6000613b9860248361458e565b9150613ba382614b25565b604082019050919050565b6000613bbb60298361458e565b9150613bc682614b74565b604082019050919050565b6000613bde602d8361458e565b9150613be982614bc3565b604082019050919050565b6000613c01601d8361458e565b9150613c0c82614c12565b602082019050919050565b6000613c2460258361458e565b9150613c2f82614c3b565b604082019050919050565b6000613c4760328361458e565b9150613c5282614c8a565b604082019050919050565b6000613c6a60148361458e565b9150613c7582614cd9565b602082019050919050565b6000613c8d60238361458e565b9150613c9882614d02565b604082019050919050565b6000613cb0602a8361458e565b9150613cbb82614d51565b604082019050919050565b6000613cd360058361459f565b9150613cde82614da0565b600582019050919050565b6000613cf660208361458e565b9150613d0182614dc9565b602082019050919050565b6000613d19602f8361458e565b9150613d2482614df2565b604082019050919050565b6000613d3c60238361458e565b9150613d4782614e41565b604082019050919050565b6000613d5f601f8361458e565b9150613d6a82614e90565b602082019050919050565b6000613d82602a8361458e565b9150613d8d82614eb9565b604082019050919050565b6000613da560298361458e565b9150613db082614f08565b604082019050919050565b6000613dc860298361458e565b9150613dd382614f57565b604082019050919050565b6000613deb60288361458e565b9150613df682614fa6565b604082019050919050565b6000613e0e60218361458e565b9150613e1982614ff5565b604082019050919050565b613e2d81614729565b82525050565b613e3c81614729565b82525050565b613e53613e4e82614729565b61487c565b82525050565b6000613e658284613a5d565b915081905092915050565b6000613e7c8285613a5d565b9150613e888284613a2c565b9150613e9382613cc6565b91508190509392505050565b6000613eab8285613e42565b602082019150613ebb82846138df565b6014820191508190509392505050565b6000602082019050613ee060008301846138d0565b92915050565b600060a082019050613efb60008301886138d0565b613f0860208301876138d0565b8181036040830152613f1a818661394d565b90508181036060830152613f2e818561394d565b90508181036080830152613f4281846139ba565b90509695505050505050565b600060a082019050613f6360008301886138d0565b613f7060208301876138d0565b613f7d6040830186613e33565b613f8a6060830185613e33565b8181036080830152613f9c81846139ba565b90509695505050505050565b6000604082019050613fbd60008301856138d0565b613fca6020830184613e33565b9392505050565b600060a082019050613fe660008301846138f6565b92915050565b60006020820190508181036000830152614006818461394d565b905092915050565b60006040820190508181036000830152614028818561394d565b9050818103602083015261403c818461394d565b90509392505050565b600060208201905061405a60008301846139ab565b92915050565b6000602082019050818103600083015261407a81846139f3565b905092915050565b6000604082019050818103600083015261409c81856139f3565b905081810360208301526140b081846139f3565b90509392505050565b600060408201905081810360008301526140d381856139f3565b90506140e26020830184613e33565b9392505050565b6000602082019050818103600083015261410281613adc565b9050919050565b6000602082019050818103600083015261412281613aff565b9050919050565b6000602082019050818103600083015261414281613b22565b9050919050565b6000602082019050818103600083015261416281613b45565b9050919050565b6000602082019050818103600083015261418281613b68565b9050919050565b600060208201905081810360008301526141a281613b8b565b9050919050565b600060208201905081810360008301526141c281613bae565b9050919050565b600060208201905081810360008301526141e281613bd1565b9050919050565b6000602082019050818103600083015261420281613bf4565b9050919050565b6000602082019050818103600083015261422281613c17565b9050919050565b6000602082019050818103600083015261424281613c3a565b9050919050565b6000602082019050818103600083015261426281613c5d565b9050919050565b6000602082019050818103600083015261428281613c80565b9050919050565b600060208201905081810360008301526142a281613ca3565b9050919050565b600060208201905081810360008301526142c281613ce9565b9050919050565b600060208201905081810360008301526142e281613d0c565b9050919050565b6000602082019050818103600083015261430281613d2f565b9050919050565b6000602082019050818103600083015261432281613d52565b9050919050565b6000602082019050818103600083015261434281613d75565b9050919050565b6000602082019050818103600083015261436281613d98565b9050919050565b6000602082019050818103600083015261438281613dbb565b9050919050565b600060208201905081810360008301526143a281613dde565b9050919050565b600060208201905081810360008301526143c281613e01565b9050919050565b60006020820190506143de6000830184613e33565b92915050565b60006040820190506143f96000830185613e33565b6144066020830184613e33565b9392505050565b6000614417614428565b905061442382826147b4565b919050565b6000604051905090565b600067ffffffffffffffff82111561444d5761444c614944565b5b602082029050602081019050919050565b600067ffffffffffffffff82111561447957614478614944565b5b602082029050602081019050919050565b600067ffffffffffffffff8211156144a5576144a4614944565b5b6144ae82614995565b9050602081019050919050565b600067ffffffffffffffff8211156144d6576144d5614944565b5b6144df82614995565b9050602081019050919050565b6000819050919050565b6000819050602082019050919050565b60008190508160005260206000209050919050565b600060059050919050565b600081519050919050565b600081519050919050565b600081519050919050565b6000602082019050919050565b6000602082019050919050565b600081905092915050565b600082825260208201905092915050565b600082825260208201905092915050565b600082825260208201905092915050565b600081905092915050565b60006145b582614729565b91506145c083614729565b9250827fffffffffffffffffffffffffffffffffffffffffffffffffffffffffffffffff038211156145f5576145f46148b7565b5b828201905092915050565b600061460b82614729565b915061461683614729565b925082614626576146256148e6565b5b828204905092915050565b600061463c82614729565b915061464783614729565b9250817fffffffffffffffffffffffffffffffffffffffffffffffffffffffffffffffff04831182151516156146805761467f6148b7565b5b828202905092915050565b600061469682614729565b91506146a183614729565b9250828210156146b4576146b36148b7565b5b828203905092915050565b60006146ca82614709565b9050919050565b60008115159050919050565b60007fffffffff0000000000000000000000000000000000000000000000000000000082169050919050565b600073ffffffffffffffffffffffffffffffffffffffff82169050919050565b6000819050919050565b600060ff82169050919050565b82818337600083830152505050565b60005b8381101561476d578082015181840152602081019050614752565b8381111561477c576000848401525b50505050565b6000600282049050600182168061479a57607f821691505b602082108114156147ae576147ad614915565b5b50919050565b6147bd82614995565b810181811067ffffffffffffffff821117156147dc576147db614944565b5b80604052505050565b60006147f082614729565b91507fffffffffffffffffffffffffffffffffffffffffffffffffffffffffffffffff821415614823576148226148b7565b5b600182019050919050565b600061483982614733565b915060ff82141561484d5761484c6148b7565b5b600182019050919050565b60006148638261486a565b9050919050565b6000614875826149a6565b9050919050565b6000819050919050565b600061489182614729565b915061489c83614729565b9250826148ac576148ab6148e6565b5b828206905092915050565b7f4e487b7100000000000000000000000000000000000000000000000000000000600052601160045260246000fd5b7f4e487b7100000000000000000000000000000000000000000000000000000000600052601260045260246000fd5b7f4e487b7100000000000000000000000000000000000000000000000000000000600052602260045260246000fd5b7f4e487b7100000000000000000000000000000000000000000000000000000000600052604160045260246000fd5b600060033d11156149925760046000803e61498f6000516149b3565b90505b90565b6000601f19601f8301169050919050565b60008160601b9050919050565b60008160e01c9050919050565b7f455243313135353a207472616e7366657220746f206e6f6e204552433131353560008201527f526563656976657220696d706c656d656e746572000000000000000000000000602082015250565b7f455243313135353a204552433131353552656365697665722072656a6563746560008201527f6420746f6b656e73000000000000000000000000000000000000000000000000602082015250565b7f4e6f2072656d61696e696e6720626f6f73746572207061636b73210000000000600082015250565b7f455243313135353a2062616c616e636520717565727920666f7220746865207a60008201527f65726f2061646472657373000000000000000000000000000000000000000000602082015250565b7f4f776e61626c653a206e6577206f776e657220697320746865207a65726f206160008201527f6464726573730000000000000000000000000000000000000000000000000000602082015250565b7f455243313135353a206275726e20616d6f756e7420657863656564732062616c60008201527f616e636500000000000000000000000000000000000000000000000000000000602082015250565b7f455243313135353a2063616c6c6572206973206e6f74206f776e6572206e6f7260008201527f20617070726f7665640000000000000000000000000000000000000000000000602082015250565b7f416c6c206f662074686973206174686c657465206861766520616c726561647960008201527f206265656e206d696e7465642100000000000000000000000000000000000000602082015250565b7f5374617274696e6720696e64657820697320616c726561647920736574000000600082015250565b7f455243313135353a207472616e7366657220746f20746865207a65726f20616460008201527f6472657373000000000000000000000000000000000000000000000000000000602082015250565b7f455243313135353a207472616e736665722063616c6c6572206973206e6f742060008201527f6f776e6572206e6f7220617070726f7665640000000000000000000000000000602082015250565b7f43616e6e6f742073657420757269207477696365000000000000000000000000600082015250565b7f455243313135353a206275726e2066726f6d20746865207a65726f206164647260008201527f6573730000000000000000000000000000000000000000000000000000000000602082015250565b7f455243313135353a20696e73756666696369656e742062616c616e636520666f60008201527f72207472616e7366657200000000000000000000000000000000000000000000602082015250565b7f2e6a736f6e000000000000000000000000000000000000000000000000000000600082015250565b7f4f776e61626c653a2063616c6c6572206973206e6f7420746865206f776e6572600082015250565b7f5061636b2068617320616c7265616479206265656e206275726e6564206f722060008201527f646f6573206e6f742065786973742e0000000000000000000000000000000000602082015250565b7f416c6c207061636b73206861766520616c7265616479206265656e206d696e7460008201527f6564210000000000000000000000000000000000000000000000000000000000602082015250565b7f5061636b73206172656e277420726561647920746f206f70656e207965742100600082015250565b7f43616e206f6e6c79206d696e74206f6e652073746172746572207061636b207060008201527f6572206163636f756e7400000000000000000000000000000000000000000000602082015250565b7f455243313135353a2073657474696e6720617070726f76616c2073746174757360008201527f20666f722073656c660000000000000000000000000000000000000000000000602082015250565b7f455243313135353a206163636f756e747320616e6420696473206c656e67746860008201527f206d69736d617463680000000000000000000000000000000000000000000000602082015250565b7f455243313135353a2069647320616e6420616d6f756e7473206c656e6774682060008201527f6d69736d61746368000000000000000000000000000000000000000000000000602082015250565b7f455243313135353a206d696e7420746f20746865207a65726f2061646472657360008201527f7300000000000000000000000000000000000000000000000000000000000000602082015250565b600060443d1015615054576150d7565b61505c614428565b60043d036004823e80513d602482011167ffffffffffffffff821117156150845750506150d7565b808201805167ffffffffffffffff8111156150a257505050506150d7565b80602083010160043d0385018111156150bf5750505050506150d7565b6150ce826020018501866147b4565b82955050505050505b90565b6150e3816146bf565b81146150ee57600080fd5b50565b6150fa816146d1565b811461510557600080fd5b50565b615111816146dd565b811461511c57600080fd5b50565b61512881614729565b811461513357600080fd5b5056fea26469706673582212207d3375ecccb758f8e2e1836244e704d017098112cea78965943a6e922faa2bc664736f6c63430008020033",
  "linkReferences": {},
  "deployedLinkReferences": {}
}