{
  "_format": "hh-sol-artifact-1",
  "contractName": "GameItems",
  "sourceName": "contracts/GameItems.sol",
  "abi": [
    {
      "inputs": [
        {
          "components": [
            {
              "internalType": "uint256",
              "name": "_numAthletes",
              "type": "uint256"
            },
            {
              "internalType": "uint256",
              "name": "_nftPerAthlete",
              "type": "uint256"
            },
            {
              "internalType": "uint256",
              "name": "_starterPackSize",
              "type": "uint256"
            },
            {
              "internalType": "uint256",
              "name": "_boosterPackSize",
              "type": "uint256"
            },
            {
              "internalType": "uint256",
              "name": "_maxStarterPackBalance",
              "type": "uint256"
            },
            {
              "internalType": "uint256",
              "name": "_maxBoosterPackBalance",
              "type": "uint256"
            },
            {
              "internalType": "uint256",
              "name": "_maxPacks",
              "type": "uint256"
            },
            {
              "internalType": "uint256",
              "name": "_revealTimestamp",
              "type": "uint256"
            },
            {
              "internalType": "uint64",
              "name": "chainlinkSubId",
              "type": "uint64"
            }
          ],
          "internalType": "struct GameItems.Parameters",
          "name": "params",
          "type": "tuple"
        },
        {
          "internalType": "string",
          "name": "_athleteURI",
          "type": "string"
        },
        {
          "internalType": "string",
          "name": "_starterPackURI",
          "type": "string"
        },
        {
          "internalType": "string",
          "name": "_boosterPackURI",
          "type": "string"
        }
      ],
      "stateMutability": "nonpayable",
      "type": "constructor"
    },
    {
      "anonymous": false,
      "inputs": [
        {
          "indexed": true,
          "internalType": "address",
          "name": "account",
          "type": "address"
        },
        {
          "indexed": true,
          "internalType": "address",
          "name": "operator",
          "type": "address"
        },
        {
          "indexed": false,
          "internalType": "bool",
          "name": "approved",
          "type": "bool"
        }
      ],
      "name": "ApprovalForAll",
      "type": "event"
    },
    {
      "anonymous": false,
      "inputs": [
        {
          "indexed": true,
          "internalType": "address",
          "name": "previousOwner",
          "type": "address"
        },
        {
          "indexed": true,
          "internalType": "address",
          "name": "newOwner",
          "type": "address"
        }
      ],
      "name": "OwnershipTransferred",
      "type": "event"
    },
    {
      "anonymous": false,
      "inputs": [
        {
          "indexed": false,
          "internalType": "bool",
          "name": "success",
          "type": "bool"
        },
        {
          "indexed": false,
          "internalType": "bytes",
          "name": "data",
          "type": "bytes"
        }
      ],
      "name": "Response",
      "type": "event"
    },
    {
      "anonymous": false,
      "inputs": [
        {
          "indexed": true,
          "internalType": "address",
          "name": "operator",
          "type": "address"
        },
        {
          "indexed": true,
          "internalType": "address",
          "name": "from",
          "type": "address"
        },
        {
          "indexed": true,
          "internalType": "address",
          "name": "to",
          "type": "address"
        },
        {
          "indexed": false,
          "internalType": "uint256[]",
          "name": "ids",
          "type": "uint256[]"
        },
        {
          "indexed": false,
          "internalType": "uint256[]",
          "name": "values",
          "type": "uint256[]"
        }
      ],
      "name": "TransferBatch",
      "type": "event"
    },
    {
      "anonymous": false,
      "inputs": [
        {
          "indexed": true,
          "internalType": "address",
          "name": "operator",
          "type": "address"
        },
        {
          "indexed": true,
          "internalType": "address",
          "name": "from",
          "type": "address"
        },
        {
          "indexed": true,
          "internalType": "address",
          "name": "to",
          "type": "address"
        },
        {
          "indexed": false,
          "internalType": "uint256",
          "name": "id",
          "type": "uint256"
        },
        {
          "indexed": false,
          "internalType": "uint256",
          "name": "value",
          "type": "uint256"
        }
      ],
      "name": "TransferSingle",
      "type": "event"
    },
    {
      "anonymous": false,
      "inputs": [
        {
          "indexed": false,
          "internalType": "string",
          "name": "value",
          "type": "string"
        },
        {
          "indexed": true,
          "internalType": "uint256",
          "name": "id",
          "type": "uint256"
        }
      ],
      "name": "URI",
      "type": "event"
    },
    {
      "anonymous": false,
      "inputs": [
        {
          "indexed": false,
          "internalType": "address",
          "name": "a",
          "type": "address"
        }
      ],
      "name": "VRFConsumerCreated",
      "type": "event"
    },
    {
      "anonymous": false,
      "inputs": [
        {
          "indexed": false,
          "internalType": "address",
          "name": "user",
          "type": "address"
        },
        {
          "indexed": false,
          "internalType": "uint256",
          "name": "id",
          "type": "uint256"
        }
      ],
      "name": "packMinted",
      "type": "event"
    },
    {
      "inputs": [],
      "name": "REVEAL_TIMESTAMP",
      "outputs": [
        {
          "internalType": "uint256",
          "name": "",
          "type": "uint256"
        }
      ],
      "stateMutability": "view",
      "type": "function"
    },
    {
      "inputs": [
        {
          "internalType": "address",
          "name": "account",
          "type": "address"
        },
        {
          "internalType": "uint256",
          "name": "id",
          "type": "uint256"
        }
      ],
      "name": "balanceOf",
      "outputs": [
        {
          "internalType": "uint256",
          "name": "",
          "type": "uint256"
        }
      ],
      "stateMutability": "view",
      "type": "function"
    },
    {
      "inputs": [
        {
          "internalType": "address[]",
          "name": "accounts",
          "type": "address[]"
        },
        {
          "internalType": "uint256[]",
          "name": "ids",
          "type": "uint256[]"
        }
      ],
      "name": "balanceOfBatch",
      "outputs": [
        {
          "internalType": "uint256[]",
          "name": "",
          "type": "uint256[]"
        }
      ],
      "stateMutability": "view",
      "type": "function"
    },
    {
      "inputs": [],
      "name": "burnBoosterPack",
      "outputs": [],
      "stateMutability": "nonpayable",
      "type": "function"
    },
    {
      "inputs": [],
      "name": "burnStarterPack",
      "outputs": [],
      "stateMutability": "nonpayable",
      "type": "function"
    },
    {
      "inputs": [],
      "name": "emergencySetStartingIndexBlock",
      "outputs": [],
      "stateMutability": "nonpayable",
      "type": "function"
    },
    {
      "inputs": [],
      "name": "generateStarterPackIndices",
      "outputs": [],
      "stateMutability": "nonpayable",
      "type": "function"
    },
    {
      "inputs": [],
      "name": "getNFTPerAthlete",
      "outputs": [
        {
          "internalType": "uint256",
          "name": "",
          "type": "uint256"
        }
      ],
      "stateMutability": "view",
      "type": "function"
    },
    {
      "inputs": [],
      "name": "getRandomNum",
      "outputs": [
        {
          "internalType": "uint256",
          "name": "",
          "type": "uint256"
        }
      ],
      "stateMutability": "nonpayable",
      "type": "function"
    },
    {
      "inputs": [],
      "name": "getStarterPackIndices",
      "outputs": [
        {
          "internalType": "uint256[5]",
          "name": "",
          "type": "uint256[5]"
        }
      ],
      "stateMutability": "view",
      "type": "function"
    },
    {
      "inputs": [
        {
          "internalType": "address",
          "name": "account",
          "type": "address"
        },
        {
          "internalType": "address",
          "name": "operator",
          "type": "address"
        }
      ],
      "name": "isApprovedForAll",
      "outputs": [
        {
          "internalType": "bool",
          "name": "",
          "type": "bool"
        }
      ],
      "stateMutability": "view",
      "type": "function"
    },
    {
      "inputs": [],
      "name": "mintBoosterPack",
      "outputs": [],
      "stateMutability": "nonpayable",
      "type": "function"
    },
    {
      "inputs": [],
      "name": "mintStarterPack",
      "outputs": [],
      "stateMutability": "nonpayable",
      "type": "function"
    },
    {
      "inputs": [],
      "name": "owner",
      "outputs": [
        {
          "internalType": "address",
          "name": "",
          "type": "address"
        }
      ],
      "stateMutability": "view",
      "type": "function"
    },
    {
      "inputs": [],
      "name": "packsReadyToOpen",
      "outputs": [
        {
          "internalType": "bool",
          "name": "",
          "type": "bool"
        }
      ],
      "stateMutability": "view",
      "type": "function"
    },
    {
      "inputs": [],
      "name": "pseudoRandomNumber",
      "outputs": [
        {
          "internalType": "uint256",
          "name": "",
          "type": "uint256"
        }
      ],
      "stateMutability": "view",
      "type": "function"
    },
    {
      "inputs": [],
      "name": "renounceOwnership",
      "outputs": [],
      "stateMutability": "nonpayable",
      "type": "function"
    },
    {
      "inputs": [],
      "name": "rngGenerator",
      "outputs": [
        {
          "internalType": "contract VRFv2Consumer",
          "name": "",
          "type": "address"
        }
      ],
      "stateMutability": "view",
      "type": "function"
    },
    {
      "inputs": [
        {
          "internalType": "address",
          "name": "from",
          "type": "address"
        },
        {
          "internalType": "address",
          "name": "to",
          "type": "address"
        },
        {
          "internalType": "uint256[]",
          "name": "ids",
          "type": "uint256[]"
        },
        {
          "internalType": "uint256[]",
          "name": "amounts",
          "type": "uint256[]"
        },
        {
          "internalType": "bytes",
          "name": "data",
          "type": "bytes"
        }
      ],
      "name": "safeBatchTransferFrom",
      "outputs": [],
      "stateMutability": "nonpayable",
      "type": "function"
    },
    {
      "inputs": [
        {
          "internalType": "address",
          "name": "from",
          "type": "address"
        },
        {
          "internalType": "address",
          "name": "to",
          "type": "address"
        },
        {
          "internalType": "uint256",
          "name": "id",
          "type": "uint256"
        },
        {
          "internalType": "uint256",
          "name": "amount",
          "type": "uint256"
        },
        {
          "internalType": "bytes",
          "name": "data",
          "type": "bytes"
        }
      ],
      "name": "safeTransferFrom",
      "outputs": [],
      "stateMutability": "nonpayable",
      "type": "function"
    },
    {
      "inputs": [
        {
          "internalType": "address",
          "name": "operator",
          "type": "address"
        },
        {
          "internalType": "bool",
          "name": "approved",
          "type": "bool"
        }
      ],
      "name": "setApprovalForAll",
      "outputs": [],
      "stateMutability": "nonpayable",
      "type": "function"
    },
    {
      "inputs": [],
      "name": "setPacksReady",
      "outputs": [],
      "stateMutability": "nonpayable",
      "type": "function"
    },
    {
      "inputs": [
        {
          "internalType": "string",
          "name": "provenanceHash",
          "type": "string"
        }
      ],
      "name": "setProvenanceHash",
      "outputs": [],
      "stateMutability": "nonpayable",
      "type": "function"
    },
    {
      "inputs": [],
      "name": "setStartingIndex",
      "outputs": [],
      "stateMutability": "nonpayable",
      "type": "function"
    },
    {
      "inputs": [
        {
          "internalType": "uint256",
          "name": "tokenId",
          "type": "uint256"
        },
        {
          "internalType": "string",
          "name": "uri",
          "type": "string"
        }
      ],
      "name": "setTokenUri",
      "outputs": [],
      "stateMutability": "nonpayable",
      "type": "function"
    },
    {
      "inputs": [],
      "name": "setURIs",
      "outputs": [],
      "stateMutability": "nonpayable",
      "type": "function"
    },
    {
      "inputs": [
        {
          "internalType": "bytes4",
          "name": "interfaceId",
          "type": "bytes4"
        }
      ],
      "name": "supportsInterface",
      "outputs": [
        {
          "internalType": "bool",
          "name": "",
          "type": "bool"
        }
      ],
      "stateMutability": "view",
      "type": "function"
    },
    {
      "inputs": [
        {
          "internalType": "address",
          "name": "newOwner",
          "type": "address"
        }
      ],
      "name": "transferOwnership",
      "outputs": [],
      "stateMutability": "nonpayable",
      "type": "function"
    },
    {
      "inputs": [
        {
          "internalType": "uint256",
          "name": "tokenId",
          "type": "uint256"
        }
      ],
      "name": "uri",
      "outputs": [
        {
          "internalType": "string",
          "name": "",
          "type": "string"
        }
      ],
      "stateMutability": "view",
      "type": "function"
    }
  ],
  "bytecode": "0x6080604052612710600f556001601060086101000a81548160ff0219169083151502179055506008546011556011546012556040518060400160405280601581526020017f68747470733a2f2f697066732e696f2f697066732f0000000000000000000000815250601690805190602001906200007e92919062000448565b506040518060200160405280600081525060199080519060200190620000a692919062000448565b50348015620000b457600080fd5b5060405162006633380380620066338339818101604052810190620000da9190620006a9565b60405180602001604052806000815250620000fb816200029260201b60201c565b506200011c62000110620002ae60201b60201c565b620002b660201b60201c565b8361010001516040516200013090620004d9565b6200013c9190620007f2565b604051809103906000f08015801562000159573d6000803e3d6000fd5b50602460006101000a81548173ffffffffffffffffffffffffffffffffffffffff021916908373ffffffffffffffffffffffffffffffffffffffff160217905550620001e56040518060400160405280601281526020017f4d616b696e6720636f6e74726163742e2e2e00000000000000000000000000008152506200037c60201b62001b2e1760201c565b836000015160088190555083602001516009819055508360400151600a819055508360600151600b819055508360800151600c819055508360a00151600d819055508360c00151600e8190555082600590805190602001906200024a92919062000448565b5081600690805190602001906200026392919062000448565b5080600790805190602001906200027c92919062000448565b508360e00151600f819055505050505062000a06565b8060029080519060200190620002aa92919062000448565b5050565b600033905090565b6000600360009054906101000a900473ffffffffffffffffffffffffffffffffffffffff16905081600360006101000a81548173ffffffffffffffffffffffffffffffffffffffff021916908373ffffffffffffffffffffffffffffffffffffffff1602179055508173ffffffffffffffffffffffffffffffffffffffff168173ffffffffffffffffffffffffffffffffffffffff167f8be0079c531659141344cd1fd0a4f28419497f9722a3daafe3b4186f6b6457e060405160405180910390a35050565b6200041c81604051602401620003939190620007ce565b6040516020818303038152906040527f41304fac000000000000000000000000000000000000000000000000000000007bffffffffffffffffffffffffffffffffffffffffffffffffffffffff19166020820180517bffffffffffffffffffffffffffffffffffffffffffffffffffffffff83818316178352505050506200041f60201b60201c565b50565b60008151905060006a636f6e736f6c652e6c6f679050602083016000808483855afa5050505050565b8280546200045690620008de565b90600052602060002090601f0160209004810192826200047a5760008555620004c6565b82601f106200049557805160ff1916838001178555620004c6565b82800160010185558215620004c6579182015b82811115620004c5578251825591602001919060010190620004a8565b5b509050620004d59190620004e7565b5090565b610b2c8062005b0783390190565b5b8082111562000502576000816000905550600101620004e8565b5090565b60006200051d620005178462000838565b6200080f565b9050828152602081018484840111156200053c576200053b620009b2565b5b62000549848285620008a8565b509392505050565b600082601f830112620005695762000568620009a8565b5b81516200057b84826020860162000506565b91505092915050565b600061012082840312156200059e576200059d620009ad565b5b620005ab6101206200080f565b90506000620005bd848285016200067b565b6000830152506020620005d3848285016200067b565b6020830152506040620005e9848285016200067b565b6040830152506060620005ff848285016200067b565b606083015250608062000615848285016200067b565b60808301525060a06200062b848285016200067b565b60a08301525060c062000641848285016200067b565b60c08301525060e062000657848285016200067b565b60e0830152506101006200066e8482850162000692565b6101008301525092915050565b6000815190506200068c81620009d2565b92915050565b600081519050620006a381620009ec565b92915050565b6000806000806101808587031215620006c757620006c6620009bc565b5b6000620006d78782880162000584565b94505061012085015167ffffffffffffffff811115620006fc57620006fb620009b7565b5b6200070a8782880162000551565b93505061014085015167ffffffffffffffff8111156200072f576200072e620009b7565b5b6200073d8782880162000551565b92505061016085015167ffffffffffffffff811115620007625762000761620009b7565b5b620007708782880162000551565b91505092959194509250565b600062000789826200086e565b62000795818562000879565b9350620007a7818560208601620008a8565b620007b281620009c1565b840191505092915050565b620007c88162000894565b82525050565b60006020820190508181036000830152620007ea81846200077c565b905092915050565b6000602082019050620008096000830184620007bd565b92915050565b60006200081b6200082e565b905062000829828262000914565b919050565b6000604051905090565b600067ffffffffffffffff82111562000856576200085562000979565b5b6200086182620009c1565b9050602081019050919050565b600081519050919050565b600082825260208201905092915050565b6000819050919050565b600067ffffffffffffffff82169050919050565b60005b83811015620008c8578082015181840152602081019050620008ab565b83811115620008d8576000848401525b50505050565b60006002820490506001821680620008f757607f821691505b602082108114156200090e576200090d6200094a565b5b50919050565b6200091f82620009c1565b810181811067ffffffffffffffff8211171562000941576200094062000979565b5b80604052505050565b7f4e487b7100000000000000000000000000000000000000000000000000000000600052602260045260246000fd5b7f4e487b7100000000000000000000000000000000000000000000000000000000600052604160045260246000fd5b600080fd5b600080fd5b600080fd5b600080fd5b600080fd5b6000601f19601f8301169050919050565b620009dd816200088a565b8114620009e957600080fd5b50565b620009f78162000894565b811462000a0357600080fd5b50565b6150f18062000a166000396000f3fe608060405234801561001057600080fd5b50600436106101ce5760003560e01c80635d2db2bf11610104578063bbb13e17116100a2578063e986655011610071578063e98665501461045f578063f242432a14610469578063f2fde38b14610485578063f7b6cf75146104a1576101ce565b8063bbb13e17146103e9578063bd05a0eb146103f3578063be59ec2614610411578063e985e9c51461042f576101ce565b80637d17fcbe116100de5780637d17fcbe1461039b5780638da5cb5b146103a55780639ebf488b146103c3578063a22cb465146103cd576101ce565b80635d2db2bf1461037d578063715018a61461038757806375223f9214610391576101ce565b806319b60439116101715780633c1d4a991161014b5780633c1d4a99146103095780634e1273f4146103275780634f3551d71461035757806357f7789e14610361576101ce565b806319b60439146102c557806325b814f4146102cf5780632eb2c2d6146102ed576101ce565b806310969523116101ad578063109695231461026357806313dc2db21461027f578063143cc1441461028957806318e20a38146102a7576101ce565b8062fdd58e146101d357806301ffc9a7146102035780630e89341c14610233575b600080fd5b6101ed60048036038101906101e891906135dd565b6104bf565b6040516101fa91906142f9565b60405180910390f35b61021d60048036038101906102189190613695565b610588565b60405161022a9190613f3f565b60405180910390f35b61024d60048036038101906102489190613738565b61066a565b60405161025a9190613f90565b60405180910390f35b61027d600480360381019061027891906136ef565b61070f565b005b6102876107a5565b005b6102916108b7565b60405161029e91906142f9565b60405180910390f35b6102af61093d565b6040516102bc91906142f9565b60405180910390f35b6102cd610943565b005b6102d76109eb565b6040516102e491906142f9565b60405180910390f35b61030760048036038101906103029190613437565b610c18565b005b610311610cb9565b60405161031e9190613ecb565b60405180910390f35b610341600480360381019061033c919061361d565b610d80565b60405161034e9190613ee6565b60405180910390f35b61035f610e99565b005b61037b60048036038101906103769190613792565b610fa2565b005b6103856110ac565b005b61038f6113aa565b005b610399611432565b005b6103a36114df565b005b6103ad6115a9565b6040516103ba9190613dc5565b60405180910390f35b6103cb6115d3565b005b6103e760048036038101906103e2919061359d565b6116dc565b005b6103f16116f2565b005b6103fb6117eb565b6040516104089190613f5a565b60405180910390f35b610419611811565b6040516104269190613f3f565b60405180910390f35b610449600480360381019061044491906133f7565b611824565b6040516104569190613f3f565b60405180910390f35b6104676118b8565b005b610483600480360381019061047e9190613506565b61198f565b005b61049f600480360381019061049a91906133ca565b611a30565b005b6104a9611b28565b6040516104b691906142f9565b60405180910390f35b60008073ffffffffffffffffffffffffffffffffffffffff168373ffffffffffffffffffffffffffffffffffffffff161415610530576040517f08c379a000000000000000000000000000000000000000000000000000000000815260040161052790614079565b60405180910390fd5b60008083815260200190815260200160002060008473ffffffffffffffffffffffffffffffffffffffff1673ffffffffffffffffffffffffffffffffffffffff16815260200190815260200160002054905092915050565b60007fd9b67a26000000000000000000000000000000000000000000000000000000007bffffffffffffffffffffffffffffffffffffffffffffffffffffffff1916827bffffffffffffffffffffffffffffffffffffffffffffffffffffffff1916148061065357507f0e89341c000000000000000000000000000000000000000000000000000000007bffffffffffffffffffffffffffffffffffffffffffffffffffffffff1916827bffffffffffffffffffffffffffffffffffffffffffffffffffffffff1916145b80610663575061066282611bc7565b5b9050919050565b606060256000838152602001908152602001600020805461068a906146fa565b80601f01602080910402602001604051908101604052809291908181526020018280546106b6906146fa565b80156107035780601f106106d857610100808354040283529160200191610703565b820191906000526020600020905b8154815290600101906020018083116106e657829003601f168201915b50505050509050919050565b610717611c31565b73ffffffffffffffffffffffffffffffffffffffff166107356115a9565b73ffffffffffffffffffffffffffffffffffffffff161461078b576040517f08c379a0000000000000000000000000000000000000000000000000000000008152600401610782906141d9565b60405180910390fd5b80601990805190602001906107a192919061306b565b5050565b6107ad611c31565b73ffffffffffffffffffffffffffffffffffffffff166107cb6115a9565b73ffffffffffffffffffffffffffffffffffffffff1614610821576040517f08c379a0000000000000000000000000000000000000000000000000000000008152600401610818906141d9565b60405180910390fd5b60006040518060a00160405280600260ff168152602001600c60ff168152602001601b60ff168152602001602460ff168152602001603160ff16815250905060005b60058110156108b35781816005811061087f5761087e61488e565b5b602002015160ff16601c826005811061089b5761089a61488e565b5b018190555080806108ab9061475d565b915050610863565b5050565b60006108c1611c31565b73ffffffffffffffffffffffffffffffffffffffff166108df6115a9565b73ffffffffffffffffffffffffffffffffffffffff1614610935576040517f08c379a000000000000000000000000000000000000000000000000000000000815260040161092c906141d9565b60405180910390fd5b600954905090565b600f5481565b61094b611c31565b73ffffffffffffffffffffffffffffffffffffffff166109696115a9565b73ffffffffffffffffffffffffffffffffffffffff16146109bf576040517f08c379a00000000000000000000000000000000000000000000000000000000081526004016109b6906141d9565b60405180910390fd5b601060089054906101000a900460ff1615601060086101000a81548160ff021916908315150217905550565b60006109f5611c31565b73ffffffffffffffffffffffffffffffffffffffff16610a136115a9565b73ffffffffffffffffffffffffffffffffffffffff1614610a69576040517f08c379a0000000000000000000000000000000000000000000000000000000008152600401610a60906141d9565b60405180910390fd5b610aa76040518060400160405280601a81526020017f52657175657374696e672072616e646f6d20776f7264732e2e2e000000000000815250611b2e565b602460009054906101000a900473ffffffffffffffffffffffffffffffffffffffff1673ffffffffffffffffffffffffffffffffffffffff1663e0c862896040518163ffffffff1660e01b8152600401600060405180830381600087803b158015610b1157600080fd5b505af1158015610b25573d6000803e3d6000fd5b50505050610b676040518060400160405280601381526020017f476f742072616e646f6d20776f7264732e2e2e00000000000000000000000000815250611b2e565b602460009054906101000a900473ffffffffffffffffffffffffffffffffffffffff1673ffffffffffffffffffffffffffffffffffffffff1663f6eaffc860006040518263ffffffff1660e01b8152600401610bc39190613f75565b60206040518083038186803b158015610bdb57600080fd5b505afa158015610bef573d6000803e3d6000fd5b505050506040513d601f19601f82011682018060405250810190610c139190613765565b905090565b610c20611c31565b73ffffffffffffffffffffffffffffffffffffffff168573ffffffffffffffffffffffffffffffffffffffff161480610c665750610c6585610c60611c31565b611824565b5b610ca5576040517f08c379a0000000000000000000000000000000000000000000000000000000008152600401610c9c90614159565b60405180910390fd5b610cb28585858585611c39565b5050505050565b610cc16130f1565b610cc9611c31565b73ffffffffffffffffffffffffffffffffffffffff16610ce76115a9565b73ffffffffffffffffffffffffffffffffffffffff1614610d3d576040517f08c379a0000000000000000000000000000000000000000000000000000000008152600401610d34906141d9565b60405180910390fd5b601c600580602002604051908101604052809291908260058015610d76576020028201915b815481526020019060010190808311610d62575b5050505050905090565b60608151835114610dc6576040517f08c379a0000000000000000000000000000000000000000000000000000000008152600401610dbd90614299565b60405180910390fd5b6000835167ffffffffffffffff811115610de357610de26148bd565b5b604051908082528060200260200182016040528015610e115781602001602082028036833780820191505090505b50905060005b8451811015610e8e57610e5e858281518110610e3657610e3561488e565b5b6020026020010151858381518110610e5157610e5061488e565b5b60200260200101516104bf565b828281518110610e7157610e7061488e565b5b60200260200101818152505080610e879061475d565b9050610e17565b508091505092915050565b600e5460145410610edf576040517f08c379a0000000000000000000000000000000000000000000000000000000008152600401610ed690614219565b60405180910390fd5b6001610eed336011546104bf565b10610f2d576040517f08c379a0000000000000000000000000000000000000000000000000000000008152600401610f2490614259565b60405180910390fd5b610f4b33601254600160405180602001604052806000815250611f4d565b600160146000828254610f5e91906144da565b925050819055507f2e0f4d63dcc00e6a11c8aef9f6e15c1f9cd6e9a090b2dd99c7b797f1a28d300d33601454604051610f98929190613ea2565b60405180910390a1565b610faa611c31565b73ffffffffffffffffffffffffffffffffffffffff16610fc86115a9565b73ffffffffffffffffffffffffffffffffffffffff161461101e576040517f08c379a0000000000000000000000000000000000000000000000000000000008152600401611015906141d9565b60405180910390fd5b600060256000848152602001908152602001600020805461103e906146fa565b905014611080576040517f08c379a000000000000000000000000000000000000000000000000000000000815260040161107790614179565b60405180910390fd5b806025600084815260200190815260200160002090805190602001906110a792919061306b565b505050565b6110b4611c31565b73ffffffffffffffffffffffffffffffffffffffff166110d26115a9565b73ffffffffffffffffffffffffffffffffffffffff1614611128576040517f08c379a000000000000000000000000000000000000000000000000000000000815260040161111f906141d9565b60405180910390fd5b60005b600854811015611337576111766040518060400160405280601281526020017f5374617274696e6720696e6465782069732000000000000000000000000000008152506018546120e3565b6111b76040518060400160405280600c81526020017f6e756d206174686c6574657300000000000000000000000000000000000000008152506008546120e3565b6000600854826018546111ca91906144da565b6111d491906147d0565b90506112156040518060400160405280600b81526020017f6d696e7420696e64657820000000000000000000000000000000000000000000815250826120e3565b6112498160056112248461217f565b604051602001611235929190613d96565b604051602081830303815290604052610fa2565b6113236040518060400160405280600881526020017f4e657720555249200000000000000000000000000000000000000000000000008152506025600084815260200190815260200160002080546112a0906146fa565b80601f01602080910402602001604051908101604052809291908181526020018280546112cc906146fa565b80156113195780601f106112ee57610100808354040283529160200191611319565b820191906000526020600020905b8154815290600101906020018083116112fc57829003601f168201915b50505050506122e0565b50808061132f9061475d565b91505061112b565b50611370600160085461134a91906144da565b600660405160200161135c9190613d7f565b604051602081830303815290604052610fa2565b6113a8600260085461138291906144da565b60076040516020016113949190613d7f565b604051602081830303815290604052610fa2565b565b6113b2611c31565b73ffffffffffffffffffffffffffffffffffffffff166113d06115a9565b73ffffffffffffffffffffffffffffffffffffffff1614611426576040517f08c379a000000000000000000000000000000000000000000000000000000000815260040161141d906141d9565b60405180910390fd5b611430600061237c565b565b601060089054906101000a900460ff16611481576040517f08c379a000000000000000000000000000000000000000000000000000000000815260040161147890614239565b60405180910390fd5b600061148f336012546104bf565b116114cf576040517f08c379a00000000000000000000000000000000000000000000000000000000081526004016114c690614059565b60405180910390fd5b6114dd336012546001612442565b565b6114e7611c31565b73ffffffffffffffffffffffffffffffffffffffff166115056115a9565b73ffffffffffffffffffffffffffffffffffffffff161461155b576040517f08c379a0000000000000000000000000000000000000000000000000000000008152600401611552906141d9565b60405180910390fd5b6000601854146115a0576040517f08c379a000000000000000000000000000000000000000000000000000000000815260040161159790614119565b60405180910390fd5b43601781905550565b6000600360009054906101000a900473ffffffffffffffffffffffffffffffffffffffff16905090565b600e5460135410611619576040517f08c379a000000000000000000000000000000000000000000000000000000000815260040161161090614219565b60405180910390fd5b6001611627336011546104bf565b10611667576040517f08c379a000000000000000000000000000000000000000000000000000000000815260040161165e90614259565b60405180910390fd5b61168533601154600160405180602001604052806000815250611f4d565b60016013600082825461169891906144da565b925050819055507f2e0f4d63dcc00e6a11c8aef9f6e15c1f9cd6e9a090b2dd99c7b797f1a28d300d336013546040516116d2929190613ea2565b60405180910390a1565b6116ee6116e7611c31565b838361265f565b5050565b601060089054906101000a900460ff16611741576040517f08c379a000000000000000000000000000000000000000000000000000000000815260040161173890614239565b60405180910390fd5b600161174f336011546104bf565b1461178f576040517f08c379a0000000000000000000000000000000000000000000000000000000008152600401611786906141f9565b60405180910390fd5b6117976107a5565b60005b60058160ff1610156117da576117c7601c8260ff16600581106117c0576117bf61488e565b5b01546127cc565b80806117d2906147a6565b91505061179a565b506117e9336011546001612442565b565b602460009054906101000a900473ffffffffffffffffffffffffffffffffffffffff1681565b601060089054906101000a900460ff1681565b6000600160008473ffffffffffffffffffffffffffffffffffffffff1673ffffffffffffffffffffffffffffffffffffffff16815260200190815260200160002060008373ffffffffffffffffffffffffffffffffffffffff1673ffffffffffffffffffffffffffffffffffffffff16815260200190815260200160002060009054906101000a900460ff16905092915050565b6118c0611c31565b73ffffffffffffffffffffffffffffffffffffffff166118de6115a9565b73ffffffffffffffffffffffffffffffffffffffff1614611934576040517f08c379a000000000000000000000000000000000000000000000000000000000815260040161192b906141d9565b60405180910390fd5b6009546008546119449190614561565b60014361195191906145bb565b4060001c61195f91906147d0565b6018819055506000601854141561198d57611986600160185461294790919063ffffffff16565b6018819055505b565b611997611c31565b73ffffffffffffffffffffffffffffffffffffffff168573ffffffffffffffffffffffffffffffffffffffff1614806119dd57506119dc856119d7611c31565b611824565b5b611a1c576040517f08c379a0000000000000000000000000000000000000000000000000000000008152600401611a13906140d9565b60405180910390fd5b611a29858585858561295d565b5050505050565b611a38611c31565b73ffffffffffffffffffffffffffffffffffffffff16611a566115a9565b73ffffffffffffffffffffffffffffffffffffffff1614611aac576040517f08c379a0000000000000000000000000000000000000000000000000000000008152600401611aa3906141d9565b60405180910390fd5b600073ffffffffffffffffffffffffffffffffffffffff168173ffffffffffffffffffffffffffffffffffffffff161415611b1c576040517f08c379a0000000000000000000000000000000000000000000000000000000008152600401611b1390614099565b60405180910390fd5b611b258161237c565b50565b601b5481565b611bc481604051602401611b429190613f90565b6040516020818303038152906040527f41304fac000000000000000000000000000000000000000000000000000000007bffffffffffffffffffffffffffffffffffffffffffffffffffffffff19166020820180517bffffffffffffffffffffffffffffffffffffffffffffffffffffffff8381831617835250505050612bdf565b50565b60007f01ffc9a7000000000000000000000000000000000000000000000000000000007bffffffffffffffffffffffffffffffffffffffffffffffffffffffff1916827bffffffffffffffffffffffffffffffffffffffffffffffffffffffff1916149050919050565b600033905090565b8151835114611c7d576040517f08c379a0000000000000000000000000000000000000000000000000000000008152600401611c74906142b9565b60405180910390fd5b600073ffffffffffffffffffffffffffffffffffffffff168473ffffffffffffffffffffffffffffffffffffffff161415611ced576040517f08c379a0000000000000000000000000000000000000000000000000000000008152600401611ce490614139565b60405180910390fd5b6000611cf7611c31565b9050611d07818787878787612c08565b60005b8451811015611eb8576000858281518110611d2857611d2761488e565b5b602002602001015190506000858381518110611d4757611d4661488e565b5b60200260200101519050600080600084815260200190815260200160002060008b73ffffffffffffffffffffffffffffffffffffffff1673ffffffffffffffffffffffffffffffffffffffff16815260200190815260200160002054905081811015611de8576040517f08c379a0000000000000000000000000000000000000000000000000000000008152600401611ddf906141b9565b60405180910390fd5b81810360008085815260200190815260200160002060008c73ffffffffffffffffffffffffffffffffffffffff1673ffffffffffffffffffffffffffffffffffffffff168152602001908152602001600020819055508160008085815260200190815260200160002060008b73ffffffffffffffffffffffffffffffffffffffff1673ffffffffffffffffffffffffffffffffffffffff1681526020019081526020016000206000828254611e9d91906144da565b9250508190555050505080611eb19061475d565b9050611d0a565b508473ffffffffffffffffffffffffffffffffffffffff168673ffffffffffffffffffffffffffffffffffffffff168273ffffffffffffffffffffffffffffffffffffffff167f4a39dc06d4c0dbc64b70af90fd698a233a518aa5d07e595d983b8c0526c8f7fb8787604051611f2f929190613f08565b60405180910390a4611f45818787878787612c10565b505050505050565b600073ffffffffffffffffffffffffffffffffffffffff168473ffffffffffffffffffffffffffffffffffffffff161415611fbd576040517f08c379a0000000000000000000000000000000000000000000000000000000008152600401611fb4906142d9565b60405180910390fd5b6000611fc7611c31565b9050611fe881600087611fd988612df7565b611fe288612df7565b87612c08565b8260008086815260200190815260200160002060008773ffffffffffffffffffffffffffffffffffffffff1673ffffffffffffffffffffffffffffffffffffffff168152602001908152602001600020600082825461204791906144da565b925050819055508473ffffffffffffffffffffffffffffffffffffffff16600073ffffffffffffffffffffffffffffffffffffffff168273ffffffffffffffffffffffffffffffffffffffff167fc3d58168c5ae7397731d063d5bbf3d657854427343f4c083240f7aacaa2d0f6287876040516120c5929190614314565b60405180910390a46120dc81600087878787612e71565b5050505050565b61217b82826040516024016120f9929190613fe9565b6040516020818303038152906040527f9710a9d0000000000000000000000000000000000000000000000000000000007bffffffffffffffffffffffffffffffffffffffffffffffffffffffff19166020820180517bffffffffffffffffffffffffffffffffffffffffffffffffffffffff8381831617835250505050612bdf565b5050565b606060008214156121c7576040518060400160405280600181526020017f300000000000000000000000000000000000000000000000000000000000000081525090506122db565b600082905060005b600082146121f95780806121e29061475d565b915050600a826121f29190614530565b91506121cf565b60008167ffffffffffffffff811115612215576122146148bd565b5b6040519080825280601f01601f1916602001820160405280156122475781602001600182028036833780820191505090505b5090505b600085146122d45760018261226091906145bb565b9150600a8561226f91906147d0565b603061227b91906144da565b60f81b8183815181106122915761229061488e565b5b60200101907effffffffffffffffffffffffffffffffffffffffffffffffffffffffffffff1916908160001a905350600a856122cd9190614530565b945061224b565b8093505050505b919050565b61237882826040516024016122f6929190613fb2565b6040516020818303038152906040527f4b5c4277000000000000000000000000000000000000000000000000000000007bffffffffffffffffffffffffffffffffffffffffffffffffffffffff19166020820180517bffffffffffffffffffffffffffffffffffffffffffffffffffffffff8381831617835250505050612bdf565b5050565b6000600360009054906101000a900473ffffffffffffffffffffffffffffffffffffffff16905081600360006101000a81548173ffffffffffffffffffffffffffffffffffffffff021916908373ffffffffffffffffffffffffffffffffffffffff1602179055508173ffffffffffffffffffffffffffffffffffffffff168173ffffffffffffffffffffffffffffffffffffffff167f8be0079c531659141344cd1fd0a4f28419497f9722a3daafe3b4186f6b6457e060405160405180910390a35050565b600073ffffffffffffffffffffffffffffffffffffffff168373ffffffffffffffffffffffffffffffffffffffff1614156124b2576040517f08c379a00000000000000000000000000000000000000000000000000000000081526004016124a990614199565b60405180910390fd5b60006124bc611c31565b90506124ec818560006124ce87612df7565b6124d787612df7565b60405180602001604052806000815250612c08565b600080600085815260200190815260200160002060008673ffffffffffffffffffffffffffffffffffffffff1673ffffffffffffffffffffffffffffffffffffffff16815260200190815260200160002054905082811015612583576040517f08c379a000000000000000000000000000000000000000000000000000000000815260040161257a906140b9565b60405180910390fd5b82810360008086815260200190815260200160002060008773ffffffffffffffffffffffffffffffffffffffff1673ffffffffffffffffffffffffffffffffffffffff16815260200190815260200160002081905550600073ffffffffffffffffffffffffffffffffffffffff168573ffffffffffffffffffffffffffffffffffffffff168373ffffffffffffffffffffffffffffffffffffffff167fc3d58168c5ae7397731d063d5bbf3d657854427343f4c083240f7aacaa2d0f628787604051612650929190614314565b60405180910390a45050505050565b8173ffffffffffffffffffffffffffffffffffffffff168373ffffffffffffffffffffffffffffffffffffffff1614156126ce576040517f08c379a00000000000000000000000000000000000000000000000000000000081526004016126c590614279565b60405180910390fd5b80600160008573ffffffffffffffffffffffffffffffffffffffff1673ffffffffffffffffffffffffffffffffffffffff16815260200190815260200160002060008473ffffffffffffffffffffffffffffffffffffffff1673ffffffffffffffffffffffffffffffffffffffff16815260200190815260200160002060006101000a81548160ff0219169083151502179055508173ffffffffffffffffffffffffffffffffffffffff168373ffffffffffffffffffffffffffffffffffffffff167f17307eab39ab6107e8899845ad3d59bd9653f200f220920489ca2b5937696c31836040516127bf9190613f3f565b60405180910390a3505050565b61280d6040518060400160405280600f81526020017f5374617274696e6720696e6465782000000000000000000000000000000000008152506018546120e3565b61284c6040518060400160405280600f81526020017f4e6577206d696e7420696e646578200000000000000000000000000000000000815250826120e3565b60095460085461285c9190614561565b6015541015612944576009546026600083815260200190815260200160002054106128bc576040517f08c379a00000000000000000000000000000000000000000000000000000000081526004016128b3906140f9565b60405180910390fd5b6128fe338260016040518060400160405280600481526020017f3078303000000000000000000000000000000000000000000000000000000000815250611f4d565b600160266000838152602001908152602001600020600082825461292291906144da565b9250508190555060016015600082825461293c91906144da565b925050819055505b50565b6000818361295591906144da565b905092915050565b600073ffffffffffffffffffffffffffffffffffffffff168473ffffffffffffffffffffffffffffffffffffffff1614156129cd576040517f08c379a00000000000000000000000000000000000000000000000000000000081526004016129c490614139565b60405180910390fd5b60006129d7611c31565b90506129f78187876129e888612df7565b6129f188612df7565b87612c08565b600080600086815260200190815260200160002060008873ffffffffffffffffffffffffffffffffffffffff1673ffffffffffffffffffffffffffffffffffffffff16815260200190815260200160002054905083811015612a8e576040517f08c379a0000000000000000000000000000000000000000000000000000000008152600401612a85906141b9565b60405180910390fd5b83810360008087815260200190815260200160002060008973ffffffffffffffffffffffffffffffffffffffff1673ffffffffffffffffffffffffffffffffffffffff168152602001908152602001600020819055508360008087815260200190815260200160002060008873ffffffffffffffffffffffffffffffffffffffff1673ffffffffffffffffffffffffffffffffffffffff1681526020019081526020016000206000828254612b4391906144da565b925050819055508573ffffffffffffffffffffffffffffffffffffffff168773ffffffffffffffffffffffffffffffffffffffff168373ffffffffffffffffffffffffffffffffffffffff167fc3d58168c5ae7397731d063d5bbf3d657854427343f4c083240f7aacaa2d0f628888604051612bc0929190614314565b60405180910390a4612bd6828888888888612e71565b50505050505050565b60008151905060006a636f6e736f6c652e6c6f679050602083016000808483855afa5050505050565b505050505050565b612c2f8473ffffffffffffffffffffffffffffffffffffffff16613058565b15612def578373ffffffffffffffffffffffffffffffffffffffff1663bc197c8187878686866040518663ffffffff1660e01b8152600401612c75959493929190613de0565b602060405180830381600087803b158015612c8f57600080fd5b505af1925050508015612cc057506040513d601f19601f82011682018060405250810190612cbd91906136c2565b60015b612d6657612ccc6148ec565b806308c379a01415612d295750612ce1614fc9565b80612cec5750612d2b565b806040517f08c379a0000000000000000000000000000000000000000000000000000000008152600401612d209190613f90565b60405180910390fd5b505b6040517f08c379a0000000000000000000000000000000000000000000000000000000008152600401612d5d90614019565b60405180910390fd5b63bc197c8160e01b7bffffffffffffffffffffffffffffffffffffffffffffffffffffffff1916817bffffffffffffffffffffffffffffffffffffffffffffffffffffffff191614612ded576040517f08c379a0000000000000000000000000000000000000000000000000000000008152600401612de490614039565b60405180910390fd5b505b505050505050565b60606000600167ffffffffffffffff811115612e1657612e156148bd565b5b604051908082528060200260200182016040528015612e445781602001602082028036833780820191505090505b5090508281600081518110612e5c57612e5b61488e565b5b60200260200101818152505080915050919050565b612e908473ffffffffffffffffffffffffffffffffffffffff16613058565b15613050578373ffffffffffffffffffffffffffffffffffffffff1663f23a6e6187878686866040518663ffffffff1660e01b8152600401612ed6959493929190613e48565b602060405180830381600087803b158015612ef057600080fd5b505af1925050508015612f2157506040513d601f19601f82011682018060405250810190612f1e91906136c2565b60015b612fc757612f2d6148ec565b806308c379a01415612f8a5750612f42614fc9565b80612f4d5750612f8c565b806040517f08c379a0000000000000000000000000000000000000000000000000000000008152600401612f819190613f90565b60405180910390fd5b505b6040517f08c379a0000000000000000000000000000000000000000000000000000000008152600401612fbe90614019565b60405180910390fd5b63f23a6e6160e01b7bffffffffffffffffffffffffffffffffffffffffffffffffffffffff1916817bffffffffffffffffffffffffffffffffffffffffffffffffffffffff19161461304e576040517f08c379a000000000000000000000000000000000000000000000000000000000815260040161304590614039565b60405180910390fd5b505b505050505050565b600080823b905060008111915050919050565b828054613077906146fa565b90600052602060002090601f01602090048101928261309957600085556130e0565b82601f106130b257805160ff19168380011785556130e0565b828001600101855582156130e0579182015b828111156130df5782518255916020019190600101906130c4565b5b5090506130ed9190613113565b5090565b6040518060a00160405280600590602082028036833780820191505090505090565b5b8082111561312c576000816000905550600101613114565b5090565b600061314361313e84614362565b61433d565b9050808382526020820190508285602086028201111561316657613165614913565b5b60005b85811015613196578161317c8882613294565b845260208401935060208301925050600181019050613169565b5050509392505050565b60006131b36131ae8461438e565b61433d565b905080838252602082019050828560208602820111156131d6576131d5614913565b5b60005b8581101561320657816131ec88826133a0565b8452602084019350602083019250506001810190506131d9565b5050509392505050565b600061322361321e846143ba565b61433d565b90508281526020810184848401111561323f5761323e614918565b5b61324a8482856146b8565b509392505050565b6000613265613260846143eb565b61433d565b90508281526020810184848401111561328157613280614918565b5b61328c8482856146b8565b509392505050565b6000813590506132a38161505f565b92915050565b600082601f8301126132be576132bd61490e565b5b81356132ce848260208601613130565b91505092915050565b600082601f8301126132ec576132eb61490e565b5b81356132fc8482602086016131a0565b91505092915050565b60008135905061331481615076565b92915050565b6000813590506133298161508d565b92915050565b60008151905061333e8161508d565b92915050565b600082601f8301126133595761335861490e565b5b8135613369848260208601613210565b91505092915050565b600082601f8301126133875761338661490e565b5b8135613397848260208601613252565b91505092915050565b6000813590506133af816150a4565b92915050565b6000815190506133c4816150a4565b92915050565b6000602082840312156133e0576133df614922565b5b60006133ee84828501613294565b91505092915050565b6000806040838503121561340e5761340d614922565b5b600061341c85828601613294565b925050602061342d85828601613294565b9150509250929050565b600080600080600060a0868803121561345357613452614922565b5b600061346188828901613294565b955050602061347288828901613294565b945050604086013567ffffffffffffffff8111156134935761349261491d565b5b61349f888289016132d7565b935050606086013567ffffffffffffffff8111156134c0576134bf61491d565b5b6134cc888289016132d7565b925050608086013567ffffffffffffffff8111156134ed576134ec61491d565b5b6134f988828901613344565b9150509295509295909350565b600080600080600060a0868803121561352257613521614922565b5b600061353088828901613294565b955050602061354188828901613294565b9450506040613552888289016133a0565b9350506060613563888289016133a0565b925050608086013567ffffffffffffffff8111156135845761358361491d565b5b61359088828901613344565b9150509295509295909350565b600080604083850312156135b4576135b3614922565b5b60006135c285828601613294565b92505060206135d385828601613305565b9150509250929050565b600080604083850312156135f4576135f3614922565b5b600061360285828601613294565b9250506020613613858286016133a0565b9150509250929050565b6000806040838503121561363457613633614922565b5b600083013567ffffffffffffffff8111156136525761365161491d565b5b61365e858286016132a9565b925050602083013567ffffffffffffffff81111561367f5761367e61491d565b5b61368b858286016132d7565b9150509250929050565b6000602082840312156136ab576136aa614922565b5b60006136b98482850161331a565b91505092915050565b6000602082840312156136d8576136d7614922565b5b60006136e68482850161332f565b91505092915050565b60006020828403121561370557613704614922565b5b600082013567ffffffffffffffff8111156137235761372261491d565b5b61372f84828501613372565b91505092915050565b60006020828403121561374e5761374d614922565b5b600061375c848285016133a0565b91505092915050565b60006020828403121561377b5761377a614922565b5b6000613789848285016133b5565b91505092915050565b600080604083850312156137a9576137a8614922565b5b60006137b7858286016133a0565b925050602083013567ffffffffffffffff8111156137d8576137d761491d565b5b6137e485828601613372565b9150509250929050565b60006137fa8383613d61565b60208301905092915050565b61380f816145ef565b82525050565b61381e8161444b565b6138288184614491565b92506138338261441c565b8060005b8381101561386457815161384b87826137ee565b965061385683614477565b925050600181019050613837565b505050505050565b600061387782614456565b613881818561449c565b935061388c83614426565b8060005b838110156138bd5781516138a488826137ee565b97506138af83614484565b925050600181019050613890565b5085935050505092915050565b6138d381614601565b82525050565b60006138e482614461565b6138ee81856144ad565b93506138fe8185602086016146c7565b61390781614927565b840191505092915050565b61391b81614670565b82525050565b61392a81614682565b82525050565b600061393b8261446c565b61394581856144be565b93506139558185602086016146c7565b61395e81614927565b840191505092915050565b60006139748261446c565b61397e81856144cf565b935061398e8185602086016146c7565b80840191505092915050565b600081546139a7816146fa565b6139b181866144cf565b945060018216600081146139cc57600181146139dd57613a10565b60ff19831686528186019350613a10565b6139e685614436565b60005b83811015613a08578154818901526001820191506020810190506139e9565b838801955050505b50505092915050565b6000613a266034836144be565b9150613a3182614945565b604082019050919050565b6000613a496028836144be565b9150613a5482614994565b604082019050919050565b6000613a6c601b836144be565b9150613a77826149e3565b602082019050919050565b6000613a8f602b836144be565b9150613a9a82614a0c565b604082019050919050565b6000613ab26026836144be565b9150613abd82614a5b565b604082019050919050565b6000613ad56024836144be565b9150613ae082614aaa565b604082019050919050565b6000613af86029836144be565b9150613b0382614af9565b604082019050919050565b6000613b1b602d836144be565b9150613b2682614b48565b604082019050919050565b6000613b3e601d836144be565b9150613b4982614b97565b602082019050919050565b6000613b616025836144be565b9150613b6c82614bc0565b604082019050919050565b6000613b846032836144be565b9150613b8f82614c0f565b604082019050919050565b6000613ba76014836144be565b9150613bb282614c5e565b602082019050919050565b6000613bca6023836144be565b9150613bd582614c87565b604082019050919050565b6000613bed602a836144be565b9150613bf882614cd6565b604082019050919050565b6000613c106005836144cf565b9150613c1b82614d25565b600582019050919050565b6000613c336020836144be565b9150613c3e82614d4e565b602082019050919050565b6000613c56602f836144be565b9150613c6182614d77565b604082019050919050565b6000613c796023836144be565b9150613c8482614dc6565b604082019050919050565b6000613c9c601f836144be565b9150613ca782614e15565b602082019050919050565b6000613cbf602a836144be565b9150613cca82614e3e565b604082019050919050565b6000613ce26029836144be565b9150613ced82614e8d565b604082019050919050565b6000613d056029836144be565b9150613d1082614edc565b604082019050919050565b6000613d286028836144be565b9150613d3382614f2b565b604082019050919050565b6000613d4b6021836144be565b9150613d5682614f7a565b604082019050919050565b613d6a81614659565b82525050565b613d7981614659565b82525050565b6000613d8b828461399a565b915081905092915050565b6000613da2828561399a565b9150613dae8284613969565b9150613db982613c03565b91508190509392505050565b6000602082019050613dda6000830184613806565b92915050565b600060a082019050613df56000830188613806565b613e026020830187613806565b8181036040830152613e14818661386c565b90508181036060830152613e28818561386c565b90508181036080830152613e3c81846138d9565b90509695505050505050565b600060a082019050613e5d6000830188613806565b613e6a6020830187613806565b613e776040830186613d70565b613e846060830185613d70565b8181036080830152613e9681846138d9565b90509695505050505050565b6000604082019050613eb76000830185613806565b613ec46020830184613d70565b9392505050565b600060a082019050613ee06000830184613815565b92915050565b60006020820190508181036000830152613f00818461386c565b905092915050565b60006040820190508181036000830152613f22818561386c565b90508181036020830152613f36818461386c565b90509392505050565b6000602082019050613f5460008301846138ca565b92915050565b6000602082019050613f6f6000830184613912565b92915050565b6000602082019050613f8a6000830184613921565b92915050565b60006020820190508181036000830152613faa8184613930565b905092915050565b60006040820190508181036000830152613fcc8185613930565b90508181036020830152613fe08184613930565b90509392505050565b600060408201905081810360008301526140038185613930565b90506140126020830184613d70565b9392505050565b6000602082019050818103600083015261403281613a19565b9050919050565b6000602082019050818103600083015261405281613a3c565b9050919050565b6000602082019050818103600083015261407281613a5f565b9050919050565b6000602082019050818103600083015261409281613a82565b9050919050565b600060208201905081810360008301526140b281613aa5565b9050919050565b600060208201905081810360008301526140d281613ac8565b9050919050565b600060208201905081810360008301526140f281613aeb565b9050919050565b6000602082019050818103600083015261411281613b0e565b9050919050565b6000602082019050818103600083015261413281613b31565b9050919050565b6000602082019050818103600083015261415281613b54565b9050919050565b6000602082019050818103600083015261417281613b77565b9050919050565b6000602082019050818103600083015261419281613b9a565b9050919050565b600060208201905081810360008301526141b281613bbd565b9050919050565b600060208201905081810360008301526141d281613be0565b9050919050565b600060208201905081810360008301526141f281613c26565b9050919050565b6000602082019050818103600083015261421281613c49565b9050919050565b6000602082019050818103600083015261423281613c6c565b9050919050565b6000602082019050818103600083015261425281613c8f565b9050919050565b6000602082019050818103600083015261427281613cb2565b9050919050565b6000602082019050818103600083015261429281613cd5565b9050919050565b600060208201905081810360008301526142b281613cf8565b9050919050565b600060208201905081810360008301526142d281613d1b565b9050919050565b600060208201905081810360008301526142f281613d3e565b9050919050565b600060208201905061430e6000830184613d70565b92915050565b60006040820190506143296000830185613d70565b6143366020830184613d70565b9392505050565b6000614347614358565b9050614353828261472c565b919050565b6000604051905090565b600067ffffffffffffffff82111561437d5761437c6148bd565b5b602082029050602081019050919050565b600067ffffffffffffffff8211156143a9576143a86148bd565b5b602082029050602081019050919050565b600067ffffffffffffffff8211156143d5576143d46148bd565b5b6143de82614927565b9050602081019050919050565b600067ffffffffffffffff821115614406576144056148bd565b5b61440f82614927565b9050602081019050919050565b6000819050919050565b6000819050602082019050919050565b60008190508160005260206000209050919050565b600060059050919050565b600081519050919050565b600081519050919050565b600081519050919050565b6000602082019050919050565b6000602082019050919050565b600081905092915050565b600082825260208201905092915050565b600082825260208201905092915050565b600082825260208201905092915050565b600081905092915050565b60006144e582614659565b91506144f083614659565b9250827fffffffffffffffffffffffffffffffffffffffffffffffffffffffffffffffff0382111561452557614524614801565b5b828201905092915050565b600061453b82614659565b915061454683614659565b92508261455657614555614830565b5b828204905092915050565b600061456c82614659565b915061457783614659565b9250817fffffffffffffffffffffffffffffffffffffffffffffffffffffffffffffffff04831182151516156145b0576145af614801565b5b828202905092915050565b60006145c682614659565b91506145d183614659565b9250828210156145e4576145e3614801565b5b828203905092915050565b60006145fa82614639565b9050919050565b60008115159050919050565b60007fffffffff0000000000000000000000000000000000000000000000000000000082169050919050565b600073ffffffffffffffffffffffffffffffffffffffff82169050919050565b6000819050919050565b600060ff82169050919050565b600061467b82614694565b9050919050565b600061468d82614659565b9050919050565b600061469f826146a6565b9050919050565b60006146b182614639565b9050919050565b82818337600083830152505050565b60005b838110156146e55780820151818401526020810190506146ca565b838111156146f4576000848401525b50505050565b6000600282049050600182168061471257607f821691505b602082108114156147265761472561485f565b5b50919050565b61473582614927565b810181811067ffffffffffffffff82111715614754576147536148bd565b5b80604052505050565b600061476882614659565b91507fffffffffffffffffffffffffffffffffffffffffffffffffffffffffffffffff82141561479b5761479a614801565b5b600182019050919050565b60006147b182614663565b915060ff8214156147c5576147c4614801565b5b600182019050919050565b60006147db82614659565b91506147e683614659565b9250826147f6576147f5614830565b5b828206905092915050565b7f4e487b7100000000000000000000000000000000000000000000000000000000600052601160045260246000fd5b7f4e487b7100000000000000000000000000000000000000000000000000000000600052601260045260246000fd5b7f4e487b7100000000000000000000000000000000000000000000000000000000600052602260045260246000fd5b7f4e487b7100000000000000000000000000000000000000000000000000000000600052603260045260246000fd5b7f4e487b7100000000000000000000000000000000000000000000000000000000600052604160045260246000fd5b600060033d111561490b5760046000803e614908600051614938565b90505b90565b600080fd5b600080fd5b600080fd5b600080fd5b600080fd5b6000601f19601f8301169050919050565b60008160e01c9050919050565b7f455243313135353a207472616e7366657220746f206e6f6e204552433131353560008201527f526563656976657220696d706c656d656e746572000000000000000000000000602082015250565b7f455243313135353a204552433131353552656365697665722072656a6563746560008201527f6420746f6b656e73000000000000000000000000000000000000000000000000602082015250565b7f4e6f2072656d61696e696e6720626f6f73746572207061636b73210000000000600082015250565b7f455243313135353a2062616c616e636520717565727920666f7220746865207a60008201527f65726f2061646472657373000000000000000000000000000000000000000000602082015250565b7f4f776e61626c653a206e6577206f776e657220697320746865207a65726f206160008201527f6464726573730000000000000000000000000000000000000000000000000000602082015250565b7f455243313135353a206275726e20616d6f756e7420657863656564732062616c60008201527f616e636500000000000000000000000000000000000000000000000000000000602082015250565b7f455243313135353a2063616c6c6572206973206e6f74206f776e6572206e6f7260008201527f20617070726f7665640000000000000000000000000000000000000000000000602082015250565b7f416c6c206f662074686973206174686c657465206861766520616c726561647960008201527f206265656e206d696e7465642100000000000000000000000000000000000000602082015250565b7f5374617274696e6720696e64657820697320616c726561647920736574000000600082015250565b7f455243313135353a207472616e7366657220746f20746865207a65726f20616460008201527f6472657373000000000000000000000000000000000000000000000000000000602082015250565b7f455243313135353a207472616e736665722063616c6c6572206973206e6f742060008201527f6f776e6572206e6f7220617070726f7665640000000000000000000000000000602082015250565b7f43616e6e6f742073657420757269207477696365000000000000000000000000600082015250565b7f455243313135353a206275726e2066726f6d20746865207a65726f206164647260008201527f6573730000000000000000000000000000000000000000000000000000000000602082015250565b7f455243313135353a20696e73756666696369656e742062616c616e636520666f60008201527f72207472616e7366657200000000000000000000000000000000000000000000602082015250565b7f2e6a736f6e000000000000000000000000000000000000000000000000000000600082015250565b7f4f776e61626c653a2063616c6c6572206973206e6f7420746865206f776e6572600082015250565b7f5061636b2068617320616c7265616479206265656e206275726e6564206f722060008201527f646f6573206e6f742065786973742e0000000000000000000000000000000000602082015250565b7f416c6c207061636b73206861766520616c7265616479206265656e206d696e7460008201527f6564210000000000000000000000000000000000000000000000000000000000602082015250565b7f5061636b73206172656e277420726561647920746f206f70656e207965742100600082015250565b7f43616e206f6e6c79206d696e74206f6e652073746172746572207061636b207060008201527f6572206163636f756e7400000000000000000000000000000000000000000000602082015250565b7f455243313135353a2073657474696e6720617070726f76616c2073746174757360008201527f20666f722073656c660000000000000000000000000000000000000000000000602082015250565b7f455243313135353a206163636f756e747320616e6420696473206c656e67746860008201527f206d69736d617463680000000000000000000000000000000000000000000000602082015250565b7f455243313135353a2069647320616e6420616d6f756e7473206c656e6774682060008201527f6d69736d61746368000000000000000000000000000000000000000000000000602082015250565b7f455243313135353a206d696e7420746f20746865207a65726f2061646472657360008201527f7300000000000000000000000000000000000000000000000000000000000000602082015250565b600060443d1015614fd95761505c565b614fe1614358565b60043d036004823e80513d602482011167ffffffffffffffff8211171561500957505061505c565b808201805167ffffffffffffffff811115615027575050505061505c565b80602083010160043d03850181111561504457505050505061505c565b6150538260200185018661472c565b82955050505050505b90565b615068816145ef565b811461507357600080fd5b50565b61507f81614601565b811461508a57600080fd5b50565b6150968161460d565b81146150a157600080fd5b50565b6150ad81614659565b81146150b857600080fd5b5056fea26469706673582212206d81342209378511ba3a8599b7a14bae4b4f1d270b4d45609839900eed9804d564736f6c6343000807003360a0604052736168499c0cffcacd319c818142124b7a15e857ab600260006101000a81548173ffffffffffffffffffffffffffffffffffffffff021916908373ffffffffffffffffffffffffffffffffffffffff1602179055507301be23585060835e02b77ef475b0cc51aa1e0709600360006101000a81548173ffffffffffffffffffffffffffffffffffffffff021916908373ffffffffffffffffffffffffffffffffffffffff1602179055507fd89b2bf150e3b9e13446986e571fb9cab24b13cea0a43ea20a6049a85cc807cc60001b600455620186a0600560006101000a81548163ffffffff021916908363ffffffff1602179055506003600560046101000a81548161ffff021916908361ffff1602179055506001600560066101000a81548163ffffffff021916908363ffffffff16021790555034801561014557600080fd5b50604051610b2c380380610b2c8339818101604052810190610167919061030c565b600260009054906101000a900473ffffffffffffffffffffffffffffffffffffffff168073ffffffffffffffffffffffffffffffffffffffff1660808173ffffffffffffffffffffffffffffffffffffffff1660601b8152505050600260009054906101000a900473ffffffffffffffffffffffffffffffffffffffff166000806101000a81548173ffffffffffffffffffffffffffffffffffffffff021916908373ffffffffffffffffffffffffffffffffffffffff160217905550600360009054906101000a900473ffffffffffffffffffffffffffffffffffffffff16600160006101000a81548173ffffffffffffffffffffffffffffffffffffffff021916908373ffffffffffffffffffffffffffffffffffffffff16021790555033600860006101000a81548173ffffffffffffffffffffffffffffffffffffffff021916908373ffffffffffffffffffffffffffffffffffffffff16021790555080600160146101000a81548167ffffffffffffffff021916908367ffffffffffffffff16021790555050610369565b60008151905061030681610352565b92915050565b6000602082840312156103225761032161034d565b5b6000610330848285016102f7565b91505092915050565b600067ffffffffffffffff82169050919050565b600080fd5b61035b81610339565b811461036657600080fd5b50565b60805160601c61079f61038d6000396000818160c7015261011b015261079f6000f3fe608060405234801561001057600080fd5b506004361061004c5760003560e01c80631fe543e314610051578063e0c862891461006d578063e89e106a14610077578063f6eaffc814610095575b600080fd5b61006b600480360381019061006691906104b7565b6100c5565b005b610075610185565b005b61007f6102e6565b60405161008c91906105e9565b60405180910390f35b6100af60048036038101906100aa919061045d565b6102ec565b6040516100bc91906105e9565b60405180910390f35b7f000000000000000000000000000000000000000000000000000000000000000073ffffffffffffffffffffffffffffffffffffffff163373ffffffffffffffffffffffffffffffffffffffff161461017757337f00000000000000000000000000000000000000000000000000000000000000006040517f1cf993f400000000000000000000000000000000000000000000000000000000815260040161016e92919061056d565b60405180910390fd5b6101818282610310565b5050565b600860009054906101000a900473ffffffffffffffffffffffffffffffffffffffff1673ffffffffffffffffffffffffffffffffffffffff163373ffffffffffffffffffffffffffffffffffffffff16146101df57600080fd5b60008054906101000a900473ffffffffffffffffffffffffffffffffffffffff1673ffffffffffffffffffffffffffffffffffffffff16635d3b1d30600454600160149054906101000a900467ffffffffffffffff16600560049054906101000a900461ffff16600560009054906101000a900463ffffffff16600560069054906101000a900463ffffffff166040518663ffffffff1660e01b815260040161028c959493929190610596565b602060405180830381600087803b1580156102a657600080fd5b505af11580156102ba573d6000803e3d6000fd5b505050506040513d601f19601f820116820180604052508101906102de919061048a565b600781905550565b60075481565b600681815481106102fc57600080fd5b906000526020600020016000915090505481565b806006908051906020019061032692919061032b565b505050565b828054828255906000526020600020908101928215610367579160200282015b8281111561036657825182559160200191906001019061034b565b5b5090506103749190610378565b5090565b5b80821115610391576000816000905550600101610379565b5090565b60006103a86103a384610629565b610604565b905080838252602082019050828560208602820111156103cb576103ca610732565b5b60005b858110156103fb57816103e18882610433565b8452602084019350602083019250506001810190506103ce565b5050509392505050565b600082601f83011261041a5761041961072d565b5b813561042a848260208601610395565b91505092915050565b60008135905061044281610752565b92915050565b60008151905061045781610752565b92915050565b6000602082840312156104735761047261073c565b5b600061048184828501610433565b91505092915050565b6000602082840312156104a05761049f61073c565b5b60006104ae84828501610448565b91505092915050565b600080604083850312156104ce576104cd61073c565b5b60006104dc85828601610433565b925050602083013567ffffffffffffffff8111156104fd576104fc610737565b5b61050985828601610405565b9150509250929050565b61051c81610655565b82525050565b61052b81610667565b82525050565b61053a81610671565b82525050565b6105498161069f565b82525050565b610558816106a9565b82525050565b610567816106b9565b82525050565b60006040820190506105826000830185610513565b61058f6020830184610513565b9392505050565b600060a0820190506105ab6000830188610522565b6105b8602083018761055e565b6105c56040830186610531565b6105d2606083018561054f565b6105df608083018461054f565b9695505050505050565b60006020820190506105fe6000830184610540565b92915050565b600061060e61061f565b905061061a82826106cd565b919050565b6000604051905090565b600067ffffffffffffffff821115610644576106436106fe565b5b602082029050602081019050919050565b60006106608261067f565b9050919050565b6000819050919050565b600061ffff82169050919050565b600073ffffffffffffffffffffffffffffffffffffffff82169050919050565b6000819050919050565b600063ffffffff82169050919050565b600067ffffffffffffffff82169050919050565b6106d682610741565b810181811067ffffffffffffffff821117156106f5576106f46106fe565b5b80604052505050565b7f4e487b7100000000000000000000000000000000000000000000000000000000600052604160045260246000fd5b600080fd5b600080fd5b600080fd5b600080fd5b6000601f19601f8301169050919050565b61075b8161069f565b811461076657600080fd5b5056fea264697066735822122051452e709290d0dab227de1983e4f5e3a6e010925bea06bf55b81b5d71d03d0164736f6c63430008070033",
  "linkReferences": {},
  "deployedLinkReferences": {}
}