{
  "_format": "hh-sol-artifact-1",
  "contractName": "GameItems",
  "sourceName": "contracts/GameItems.sol",
  "abi": [
    {
      "inputs": [
        {
          "components": [
            {
              "internalType": "uint256",
              "name": "_numAthletes",
              "type": "uint256"
            },
            {
              "internalType": "uint256",
              "name": "_nftPerAthlete",
              "type": "uint256"
            },
            {
              "internalType": "uint256",
              "name": "_starterPackSize",
              "type": "uint256"
            },
            {
              "internalType": "uint256",
              "name": "_boosterPackSize",
              "type": "uint256"
            },
            {
              "internalType": "uint256",
              "name": "_maxStarterPackBalance",
              "type": "uint256"
            },
            {
              "internalType": "uint256",
              "name": "_maxBoosterPackBalance",
              "type": "uint256"
            },
            {
              "internalType": "uint256",
              "name": "_maxPacks",
              "type": "uint256"
            },
            {
              "internalType": "uint256",
              "name": "_revealTimestamp",
              "type": "uint256"
            }
          ],
          "internalType": "struct GameItems.Parameters",
          "name": "params",
          "type": "tuple"
        },
        {
          "internalType": "string",
          "name": "_athleteURI",
          "type": "string"
        },
        {
          "internalType": "string",
          "name": "_starterPackURI",
          "type": "string"
        },
        {
          "internalType": "string",
          "name": "_boosterPackURI",
          "type": "string"
        }
      ],
      "stateMutability": "nonpayable",
      "type": "constructor"
    },
    {
      "anonymous": false,
      "inputs": [
        {
          "indexed": true,
          "internalType": "address",
          "name": "account",
          "type": "address"
        },
        {
          "indexed": true,
          "internalType": "address",
          "name": "operator",
          "type": "address"
        },
        {
          "indexed": false,
          "internalType": "bool",
          "name": "approved",
          "type": "bool"
        }
      ],
      "name": "ApprovalForAll",
      "type": "event"
    },
    {
      "anonymous": false,
      "inputs": [
        {
          "indexed": true,
          "internalType": "address",
          "name": "previousOwner",
          "type": "address"
        },
        {
          "indexed": true,
          "internalType": "address",
          "name": "newOwner",
          "type": "address"
        }
      ],
      "name": "OwnershipTransferred",
      "type": "event"
    },
    {
      "anonymous": false,
      "inputs": [
        {
          "indexed": true,
          "internalType": "address",
          "name": "operator",
          "type": "address"
        },
        {
          "indexed": true,
          "internalType": "address",
          "name": "from",
          "type": "address"
        },
        {
          "indexed": true,
          "internalType": "address",
          "name": "to",
          "type": "address"
        },
        {
          "indexed": false,
          "internalType": "uint256[]",
          "name": "ids",
          "type": "uint256[]"
        },
        {
          "indexed": false,
          "internalType": "uint256[]",
          "name": "values",
          "type": "uint256[]"
        }
      ],
      "name": "TransferBatch",
      "type": "event"
    },
    {
      "anonymous": false,
      "inputs": [
        {
          "indexed": true,
          "internalType": "address",
          "name": "operator",
          "type": "address"
        },
        {
          "indexed": true,
          "internalType": "address",
          "name": "from",
          "type": "address"
        },
        {
          "indexed": true,
          "internalType": "address",
          "name": "to",
          "type": "address"
        },
        {
          "indexed": false,
          "internalType": "uint256",
          "name": "id",
          "type": "uint256"
        },
        {
          "indexed": false,
          "internalType": "uint256",
          "name": "value",
          "type": "uint256"
        }
      ],
      "name": "TransferSingle",
      "type": "event"
    },
    {
      "anonymous": false,
      "inputs": [
        {
          "indexed": false,
          "internalType": "string",
          "name": "value",
          "type": "string"
        },
        {
          "indexed": true,
          "internalType": "uint256",
          "name": "id",
          "type": "uint256"
        }
      ],
      "name": "URI",
      "type": "event"
    },
    {
      "anonymous": false,
      "inputs": [
        {
          "indexed": false,
          "internalType": "uint256[5]",
          "name": "",
          "type": "uint256[5]"
        },
        {
          "indexed": false,
          "internalType": "address",
          "name": "signer",
          "type": "address"
        }
      ],
      "name": "packBurned",
      "type": "event"
    },
    {
      "anonymous": false,
      "inputs": [
        {
          "indexed": false,
          "internalType": "address",
          "name": "signer",
          "type": "address"
        },
        {
          "indexed": false,
          "internalType": "uint256",
          "name": "id",
          "type": "uint256"
        }
      ],
      "name": "packMinted",
      "type": "event"
    },
    {
      "inputs": [],
      "name": "REVEAL_TIMESTAMP",
      "outputs": [
        {
          "internalType": "uint256",
          "name": "",
          "type": "uint256"
        }
      ],
      "stateMutability": "view",
      "type": "function"
    },
    {
      "inputs": [
        {
          "internalType": "address",
          "name": "account",
          "type": "address"
        },
        {
          "internalType": "uint256",
          "name": "id",
          "type": "uint256"
        }
      ],
      "name": "balanceOf",
      "outputs": [
        {
          "internalType": "uint256",
          "name": "",
          "type": "uint256"
        }
      ],
      "stateMutability": "view",
      "type": "function"
    },
    {
      "inputs": [
        {
          "internalType": "address[]",
          "name": "accounts",
          "type": "address[]"
        },
        {
          "internalType": "uint256[]",
          "name": "ids",
          "type": "uint256[]"
        }
      ],
      "name": "balanceOfBatch",
      "outputs": [
        {
          "internalType": "uint256[]",
          "name": "",
          "type": "uint256[]"
        }
      ],
      "stateMutability": "view",
      "type": "function"
    },
    {
      "inputs": [],
      "name": "burnBoosterPack",
      "outputs": [],
      "stateMutability": "nonpayable",
      "type": "function"
    },
    {
      "inputs": [],
      "name": "burnStarterPack",
      "outputs": [],
      "stateMutability": "nonpayable",
      "type": "function"
    },
    {
      "inputs": [],
      "name": "emergencySetStartingIndexBlock",
      "outputs": [],
      "stateMutability": "nonpayable",
      "type": "function"
    },
    {
      "inputs": [],
      "name": "generateBoosterPackIndices",
      "outputs": [
        {
          "internalType": "uint256[3]",
          "name": "",
          "type": "uint256[3]"
        }
      ],
      "stateMutability": "view",
      "type": "function"
    },
    {
      "inputs": [],
      "name": "generateStarterPackIndices",
      "outputs": [
        {
          "internalType": "uint256[5]",
          "name": "",
          "type": "uint256[5]"
        }
      ],
      "stateMutability": "view",
      "type": "function"
    },
    {
      "inputs": [],
      "name": "getNFTPerAthlete",
      "outputs": [
        {
          "internalType": "uint256",
          "name": "",
          "type": "uint256"
        }
      ],
      "stateMutability": "view",
      "type": "function"
    },
    {
      "inputs": [
        {
          "internalType": "address",
          "name": "account",
          "type": "address"
        },
        {
          "internalType": "address",
          "name": "operator",
          "type": "address"
        }
      ],
      "name": "isApprovedForAll",
      "outputs": [
        {
          "internalType": "bool",
          "name": "",
          "type": "bool"
        }
      ],
      "stateMutability": "view",
      "type": "function"
    },
    {
      "inputs": [],
      "name": "mintBoosterPack",
      "outputs": [],
      "stateMutability": "nonpayable",
      "type": "function"
    },
    {
      "inputs": [],
      "name": "mintStarterPack",
      "outputs": [],
      "stateMutability": "nonpayable",
      "type": "function"
    },
    {
      "inputs": [],
      "name": "name",
      "outputs": [
        {
          "internalType": "string",
          "name": "",
          "type": "string"
        }
      ],
      "stateMutability": "view",
      "type": "function"
    },
    {
      "inputs": [],
      "name": "owner",
      "outputs": [
        {
          "internalType": "address",
          "name": "",
          "type": "address"
        }
      ],
      "stateMutability": "view",
      "type": "function"
    },
    {
      "inputs": [],
      "name": "packsAvailable",
      "outputs": [
        {
          "internalType": "uint256",
          "name": "",
          "type": "uint256"
        }
      ],
      "stateMutability": "view",
      "type": "function"
    },
    {
      "inputs": [],
      "name": "packsReadyToOpen",
      "outputs": [
        {
          "internalType": "bool",
          "name": "",
          "type": "bool"
        }
      ],
      "stateMutability": "view",
      "type": "function"
    },
    {
      "inputs": [],
      "name": "renounceOwnership",
      "outputs": [],
      "stateMutability": "nonpayable",
      "type": "function"
    },
    {
      "inputs": [
        {
          "internalType": "address",
          "name": "from",
          "type": "address"
        },
        {
          "internalType": "address",
          "name": "to",
          "type": "address"
        },
        {
          "internalType": "uint256[]",
          "name": "ids",
          "type": "uint256[]"
        },
        {
          "internalType": "uint256[]",
          "name": "amounts",
          "type": "uint256[]"
        },
        {
          "internalType": "bytes",
          "name": "data",
          "type": "bytes"
        }
      ],
      "name": "safeBatchTransferFrom",
      "outputs": [],
      "stateMutability": "nonpayable",
      "type": "function"
    },
    {
      "inputs": [
        {
          "internalType": "address",
          "name": "from",
          "type": "address"
        },
        {
          "internalType": "address",
          "name": "to",
          "type": "address"
        },
        {
          "internalType": "uint256",
          "name": "id",
          "type": "uint256"
        },
        {
          "internalType": "uint256",
          "name": "amount",
          "type": "uint256"
        },
        {
          "internalType": "bytes",
          "name": "data",
          "type": "bytes"
        }
      ],
      "name": "safeTransferFrom",
      "outputs": [],
      "stateMutability": "nonpayable",
      "type": "function"
    },
    {
      "inputs": [
        {
          "internalType": "address",
          "name": "operator",
          "type": "address"
        },
        {
          "internalType": "bool",
          "name": "approved",
          "type": "bool"
        }
      ],
      "name": "setApprovalForAll",
      "outputs": [],
      "stateMutability": "nonpayable",
      "type": "function"
    },
    {
      "inputs": [],
      "name": "setPacksReady",
      "outputs": [],
      "stateMutability": "nonpayable",
      "type": "function"
    },
    {
      "inputs": [
        {
          "internalType": "string",
          "name": "provenanceHash",
          "type": "string"
        }
      ],
      "name": "setProvenanceHash",
      "outputs": [],
      "stateMutability": "nonpayable",
      "type": "function"
    },
    {
      "inputs": [],
      "name": "setStartingIndex",
      "outputs": [],
      "stateMutability": "nonpayable",
      "type": "function"
    },
    {
      "inputs": [
        {
          "internalType": "uint256",
          "name": "tokenId",
          "type": "uint256"
        },
        {
          "internalType": "string",
          "name": "uri",
          "type": "string"
        }
      ],
      "name": "setTokenUri",
      "outputs": [],
      "stateMutability": "nonpayable",
      "type": "function"
    },
    {
      "inputs": [],
      "name": "setURIs",
      "outputs": [],
      "stateMutability": "nonpayable",
      "type": "function"
    },
    {
      "inputs": [
        {
          "internalType": "bytes4",
          "name": "interfaceId",
          "type": "bytes4"
        }
      ],
      "name": "supportsInterface",
      "outputs": [
        {
          "internalType": "bool",
          "name": "",
          "type": "bool"
        }
      ],
      "stateMutability": "view",
      "type": "function"
    },
    {
      "inputs": [
        {
          "internalType": "address",
          "name": "newOwner",
          "type": "address"
        }
      ],
      "name": "transferOwnership",
      "outputs": [],
      "stateMutability": "nonpayable",
      "type": "function"
    },
    {
      "inputs": [
        {
          "internalType": "uint256",
          "name": "tokenId",
          "type": "uint256"
        }
      ],
      "name": "uri",
      "outputs": [
        {
          "internalType": "string",
          "name": "",
          "type": "string"
        }
      ],
      "stateMutability": "view",
      "type": "function"
    }
  ],
  "bytecode": "0x6080604052612710600f556040518060400160405280600881526020017f5465616d446966660000000000000000000000000000000000000000000000008152506010908051906020019062000057929190620003c7565b506001601160006101000a81548160ff02191690831515021790555060405180602001604052806000815250601790805190602001906200009a929190620003c7565b50348015620000a857600080fd5b5060405162005444380380620054448339818101604052810190620000ce9190620005eb565b60405180602001604052806000815250620000ef816200021160201b60201c565b5062000110620001046200022d60201b60201c565b6200023560201b60201c565b6200015b6040518060400160405280601281526020017f4d616b696e6720636f6e74726163742e2e2e0000000000000000000000000000815250620002fb60201b620017621760201c565b8360000151600c819055508360200151600d819055508360400151600781905550836060015160088190555083608001516009819055508360a00151600a819055508360c00151600b819055508260049080519060200190620001c0929190620003c7565b508160059080519060200190620001d9929190620003c7565b508060069080519060200190620001f2929190620003c7565b508360e00151600f81905550600b5460208190555050505050620008ec565b806002908051906020019062000229929190620003c7565b5050565b600033905090565b6000600360009054906101000a900473ffffffffffffffffffffffffffffffffffffffff16905081600360006101000a81548173ffffffffffffffffffffffffffffffffffffffff021916908373ffffffffffffffffffffffffffffffffffffffff1602179055508173ffffffffffffffffffffffffffffffffffffffff168173ffffffffffffffffffffffffffffffffffffffff167f8be0079c531659141344cd1fd0a4f28419497f9722a3daafe3b4186f6b6457e060405160405180910390a35050565b6200039b81604051602401620003129190620006ff565b6040516020818303038152906040527f41304fac000000000000000000000000000000000000000000000000000000007bffffffffffffffffffffffffffffffffffffffffffffffffffffffff19166020820180517bffffffffffffffffffffffffffffffffffffffffffffffffffffffff83818316178352505050506200039e60201b60201c565b50565b60008151905060006a636f6e736f6c652e6c6f679050602083016000808483855afa5050505050565b828054620003d590620007de565b90600052602060002090601f016020900481019282620003f9576000855562000445565b82601f106200041457805160ff191683800117855562000445565b8280016001018555821562000445579182015b828111156200044457825182559160200191906001019062000427565b5b50905062000454919062000458565b5090565b5b808211156200047357600081600090555060010162000459565b5090565b60006200048e62000488846200074c565b62000723565b905082815260208101848484011115620004ad57620004ac620008b2565b5b620004ba848285620007a8565b509392505050565b600082601f830112620004da57620004d9620008a8565b5b8151620004ec84826020860162000477565b91505092915050565b600061010082840312156200050f576200050e620008ad565b5b6200051c61010062000723565b905060006200052e84828501620005d4565b60008301525060206200054484828501620005d4565b60208301525060406200055a84828501620005d4565b60408301525060606200057084828501620005d4565b60608301525060806200058684828501620005d4565b60808301525060a06200059c84828501620005d4565b60a08301525060c0620005b284828501620005d4565b60c08301525060e0620005c884828501620005d4565b60e08301525092915050565b600081519050620005e581620008d2565b92915050565b6000806000806101608587031215620006095762000608620008bc565b5b60006200061987828801620004f5565b94505061010085015167ffffffffffffffff8111156200063e576200063d620008b7565b5b6200064c87828801620004c2565b93505061012085015167ffffffffffffffff811115620006715762000670620008b7565b5b6200067f87828801620004c2565b92505061014085015167ffffffffffffffff811115620006a457620006a3620008b7565b5b620006b287828801620004c2565b91505092959194509250565b6000620006cb8262000782565b620006d781856200078d565b9350620006e9818560208601620007a8565b620006f481620008c1565b840191505092915050565b600060208201905081810360008301526200071b8184620006be565b905092915050565b60006200072f62000742565b90506200073d828262000814565b919050565b6000604051905090565b600067ffffffffffffffff8211156200076a576200076962000879565b5b6200077582620008c1565b9050602081019050919050565b600081519050919050565b600082825260208201905092915050565b6000819050919050565b60005b83811015620007c8578082015181840152602081019050620007ab565b83811115620007d8576000848401525b50505050565b60006002820490506001821680620007f757607f821691505b602082108114156200080e576200080d6200084a565b5b50919050565b6200081f82620008c1565b810181811067ffffffffffffffff8211171562000841576200084062000879565b5b80604052505050565b7f4e487b7100000000000000000000000000000000000000000000000000000000600052602260045260246000fd5b7f4e487b7100000000000000000000000000000000000000000000000000000000600052604160045260246000fd5b600080fd5b600080fd5b600080fd5b600080fd5b600080fd5b6000601f19601f8301169050919050565b620008dd816200079e565b8114620008e957600080fd5b50565b614b4880620008fc6000396000f3fe608060405234801561001057600080fd5b50600436106101c35760003560e01c80635d2db2bf116100f9578063bbb13e1711610097578063e985e9c511610071578063e985e9c514610438578063e986655014610468578063f242432a14610472578063f2fde38b1461048e576101c3565b8063bbb13e17146103f2578063be59ec26146103fc578063d759000b1461041a576101c3565b80637d17fcbe116100d35780637d17fcbe146103a45780638da5cb5b146103ae5780639ebf488b146103cc578063a22cb465146103d6576101c3565b80635d2db2bf14610386578063715018a61461039057806375223f921461039a576101c3565b8063166d5d30116101665780632eb2c2d6116101405780632eb2c2d6146103145780634e1273f4146103305780634f3551d71461036057806357f7789e1461036a576101c3565b8063166d5d30146102ce57806318e20a38146102ec57806319b604391461030a576101c3565b80630e89341c116101a25780630e89341c14610246578063109695231461027657806313dc2db214610292578063143cc144146102b0576101c3565b8062fdd58e146101c857806301ffc9a7146101f857806306fdde0314610228575b600080fd5b6101e260048036038101906101dd9190613066565b6104aa565b6040516101ef9190613d7f565b60405180910390f35b610212600480360381019061020d919061311e565b610573565b60405161021f9190613a82565b60405180910390f35b610230610655565b60405161023d9190613a9d565b60405180910390f35b610260600480360381019061025b91906131c1565b6106e3565b60405161026d9190613a9d565b60405180910390f35b610290600480360381019061028b9190613178565b610788565b005b61029a61081e565b6040516102a791906139e5565b60405180910390f35b6102b8610902565b6040516102c59190613d7f565b60405180910390f35b6102d6610988565b6040516102e391906139ca565b60405180910390f35b6102f4610a9c565b6040516103019190613d7f565b60405180910390f35b610312610aa2565b005b61032e60048036038101906103299190612ec0565b610b4a565b005b61034a600480360381019061034591906130a6565b610beb565b6040516103579190613a29565b60405180910390f35b610368610d04565b005b610384600480360381019061037f91906131ee565b610e1d565b005b61038e610f27565b005b610398611046565b005b6103a26110ce565b005b6103ac6111de565b005b6103b66112a8565b6040516103c391906138c4565b60405180910390f35b6103d46112d2565b005b6103f060048036038101906103eb9190613026565b61138d565b005b6103fa6113a3565b005b610404611445565b6040516104119190613a82565b60405180910390f35b610422611458565b60405161042f9190613d7f565b60405180910390f35b610452600480360381019061044d9190612e80565b61145e565b60405161045f9190613a82565b60405180910390f35b6104706114f2565b005b61048c60048036038101906104879190612f8f565b6115c9565b005b6104a860048036038101906104a39190612e53565b61166a565b005b60008073ffffffffffffffffffffffffffffffffffffffff168373ffffffffffffffffffffffffffffffffffffffff16141561051b576040517f08c379a000000000000000000000000000000000000000000000000000000000815260040161051290613b1f565b60405180910390fd5b60008083815260200190815260200160002060008473ffffffffffffffffffffffffffffffffffffffff1673ffffffffffffffffffffffffffffffffffffffff16815260200190815260200160002054905092915050565b60007fd9b67a26000000000000000000000000000000000000000000000000000000007bffffffffffffffffffffffffffffffffffffffffffffffffffffffff1916827bffffffffffffffffffffffffffffffffffffffffffffffffffffffff1916148061063e57507f0e89341c000000000000000000000000000000000000000000000000000000007bffffffffffffffffffffffffffffffffffffffffffffffffffffffff1916827bffffffffffffffffffffffffffffffffffffffffffffffffffffffff1916145b8061064e575061064d826117fb565b5b9050919050565b6010805461066290614165565b80601f016020809104026020016040519081016040528092919081815260200182805461068e90614165565b80156106db5780601f106106b0576101008083540402835291602001916106db565b820191906000526020600020905b8154815290600101906020018083116106be57829003601f168201915b505050505081565b606060216000838152602001908152602001600020805461070390614165565b80601f016020809104026020016040519081016040528092919081815260200182805461072f90614165565b801561077c5780601f106107515761010080835404028352916020019161077c565b820191906000526020600020905b81548152906001019060200180831161075f57829003601f168201915b50505050509050919050565b610790611865565b73ffffffffffffffffffffffffffffffffffffffff166107ae6112a8565b73ffffffffffffffffffffffffffffffffffffffff1614610804576040517f08c379a00000000000000000000000000000000000000000000000000000000081526004016107fb90613c7f565b60405180910390fd5b806017908051906020019061081a929190612ae7565b5050565b610826612b6d565b61082e612b6d565b60005b60058110156108fa576000600a826108499190614014565b905060006009600a8461085c9190614014565b6108669190613f8d565b90508160018383610877919061406e565b6108819190613f8d565b4233448760125460405160200161089c959493929190613865565b6040516020818303038152906040528051906020012060001c6108bf9190614269565b6108c99190613f8d565b8484600581106108dc576108db614327565b5b602002018181525050505080806108f2906141c8565b915050610831565b508091505090565b600061090c611865565b73ffffffffffffffffffffffffffffffffffffffff1661092a6112a8565b73ffffffffffffffffffffffffffffffffffffffff1614610980576040517f08c379a000000000000000000000000000000000000000000000000000000000815260040161097790613c7f565b60405180910390fd5b600d54905090565b610990612b8f565b610998612b8f565b60006005436109a79190614269565b905060005b6003811015610a93576005826109c29190614269565b91506000600a836109d39190614014565b905060006009600a856109e69190614014565b6109f09190613f8d565b90508160018383610a01919061406e565b610a0b9190613f8d565b42334487601354604051602001610a26959493929190613865565b6040516020818303038152906040528051906020012060001c610a499190614269565b610a539190613f8d565b858460038110610a6657610a65614327565b5b602002018181525050600184610a7c9190613f8d565b935050508080610a8b906141c8565b9150506109ac565b50819250505090565b600f5481565b610aaa611865565b73ffffffffffffffffffffffffffffffffffffffff16610ac86112a8565b73ffffffffffffffffffffffffffffffffffffffff1614610b1e576040517f08c379a0000000000000000000000000000000000000000000000000000000008152600401610b1590613c7f565b60405180910390fd5b601160009054906101000a900460ff1615601160006101000a81548160ff021916908315150217905550565b610b52611865565b73ffffffffffffffffffffffffffffffffffffffff168573ffffffffffffffffffffffffffffffffffffffff161480610b985750610b9785610b92611865565b61145e565b5b610bd7576040517f08c379a0000000000000000000000000000000000000000000000000000000008152600401610bce90613bff565b60405180910390fd5b610be4858585858561186d565b5050505050565b60608151835114610c31576040517f08c379a0000000000000000000000000000000000000000000000000000000008152600401610c2890613d1f565b60405180910390fd5b6000835167ffffffffffffffff811115610c4e57610c4d614356565b5b604051908082528060200260200182016040528015610c7c5781602001602082028036833780820191505090505b50905060005b8451811015610cf957610cc9858281518110610ca157610ca0614327565b5b6020026020010151858381518110610cbc57610cbb614327565b5b60200260200101516104aa565b828281518110610cdc57610cdb614327565b5b60200260200101818152505080610cf2906141c8565b9050610c82565b508091505092915050565b60006001600c54610d159190613f8d565b9050600b5460135410610d5d576040517f08c379a0000000000000000000000000000000000000000000000000000000008152600401610d5490613c9f565b60405180910390fd5b6002610d6933836104aa565b10610da9576040517f08c379a0000000000000000000000000000000000000000000000000000000008152600401610da090613cbf565b60405180910390fd5b610dc53382600160405180602001604052806000815250611b81565b600160136000828254610dd89190613f8d565b925050819055507f2e0f4d63dcc00e6a11c8aef9f6e15c1f9cd6e9a090b2dd99c7b797f1a28d300d33601354604051610e129291906139a1565b60405180910390a150565b610e25611865565b73ffffffffffffffffffffffffffffffffffffffff16610e436112a8565b73ffffffffffffffffffffffffffffffffffffffff1614610e99576040517f08c379a0000000000000000000000000000000000000000000000000000000008152600401610e9090613c7f565b60405180910390fd5b6000602160008481526020019081526020016000208054610eb990614165565b905014610efb576040517f08c379a0000000000000000000000000000000000000000000000000000000008152600401610ef290613c1f565b60405180910390fd5b80602160008481526020019081526020016000209080519060200190610f22929190612ae7565b505050565b610f2f611865565b73ffffffffffffffffffffffffffffffffffffffff16610f4d6112a8565b73ffffffffffffffffffffffffffffffffffffffff1614610fa3576040517f08c379a0000000000000000000000000000000000000000000000000000000008152600401610f9a90613c7f565b60405180910390fd5b60005b600c54811015611017576000600c5482601654610fc39190613f8d565b610fcd9190614269565b9050611003816004610fde84611d17565b604051602001610fef929190613836565b604051602081830303815290604052610e1d565b50808061100f906141c8565b915050610fa6565b50611044600c546005604051602001611030919061381f565b604051602081830303815290604052610e1d565b565b61104e611865565b73ffffffffffffffffffffffffffffffffffffffff1661106c6112a8565b73ffffffffffffffffffffffffffffffffffffffff16146110c2576040517f08c379a00000000000000000000000000000000000000000000000000000000081526004016110b990613c7f565b60405180910390fd5b6110cc6000611e78565b565b60006001600c546110df9190613f8d565b9050601160009054906101000a900460ff16611130576040517f08c379a000000000000000000000000000000000000000000000000000000000815260040161112790613cdf565b60405180910390fd5b600061113c33836104aa565b1161117c576040517f08c379a000000000000000000000000000000000000000000000000000000000815260040161117390613aff565b60405180910390fd5b6000611186610988565b905060005b60038160ff1610156111cd576111ba828260ff16600381106111b0576111af614327565b5b6020020151611f3e565b80806111c590614211565b91505061118b565b506111da33836001612039565b5050565b6111e6611865565b73ffffffffffffffffffffffffffffffffffffffff166112046112a8565b73ffffffffffffffffffffffffffffffffffffffff161461125a576040517f08c379a000000000000000000000000000000000000000000000000000000000815260040161125190613c7f565b60405180910390fd5b60006016541461129f576040517f08c379a000000000000000000000000000000000000000000000000000000000815260040161129690613bbf565b60405180910390fd5b43601581905550565b6000600360009054906101000a900473ffffffffffffffffffffffffffffffffffffffff16905090565b6000600c54905061131b338260016040518060400160405280600481526020017f3078303000000000000000000000000000000000000000000000000000000000815250611b81565b60016012600082825461132e9190613f8d565b92505081905550600160206000828254611348919061406e565b925050819055507f2e0f4d63dcc00e6a11c8aef9f6e15c1f9cd6e9a090b2dd99c7b797f1a28d300d336012546040516113829291906139a1565b60405180910390a150565b61139f611398611865565b8383612256565b5050565b6000600c54905060006113b461081e565b905060005b60058160ff1610156113fb576113e8828260ff16600581106113de576113dd614327565b5b6020020151611f3e565b80806113f390614211565b9150506113b9565b507f15abe0b63b201b70614c230381f0fabc4a26a1957629948558095a11db1d6fb5813360405161142d929190613a00565b60405180910390a161144133836001612039565b5050565b601160009054906101000a900460ff1681565b60205481565b6000600160008473ffffffffffffffffffffffffffffffffffffffff1673ffffffffffffffffffffffffffffffffffffffff16815260200190815260200160002060008373ffffffffffffffffffffffffffffffffffffffff1673ffffffffffffffffffffffffffffffffffffffff16815260200190815260200160002060009054906101000a900460ff16905092915050565b6114fa611865565b73ffffffffffffffffffffffffffffffffffffffff166115186112a8565b73ffffffffffffffffffffffffffffffffffffffff161461156e576040517f08c379a000000000000000000000000000000000000000000000000000000000815260040161156590613c7f565b60405180910390fd5b600d54600c5461157e9190614014565b60014361158b919061406e565b4060001c6115999190614269565b601681905550600060165414156115c7576115c060016016546123c390919063ffffffff16565b6016819055505b565b6115d1611865565b73ffffffffffffffffffffffffffffffffffffffff168573ffffffffffffffffffffffffffffffffffffffff161480611617575061161685611611611865565b61145e565b5b611656576040517f08c379a000000000000000000000000000000000000000000000000000000000815260040161164d90613b7f565b60405180910390fd5b61166385858585856123d9565b5050505050565b611672611865565b73ffffffffffffffffffffffffffffffffffffffff166116906112a8565b73ffffffffffffffffffffffffffffffffffffffff16146116e6576040517f08c379a00000000000000000000000000000000000000000000000000000000081526004016116dd90613c7f565b60405180910390fd5b600073ffffffffffffffffffffffffffffffffffffffff168173ffffffffffffffffffffffffffffffffffffffff161415611756576040517f08c379a000000000000000000000000000000000000000000000000000000000815260040161174d90613b3f565b60405180910390fd5b61175f81611e78565b50565b6117f8816040516024016117769190613a9d565b6040516020818303038152906040527f41304fac000000000000000000000000000000000000000000000000000000007bffffffffffffffffffffffffffffffffffffffffffffffffffffffff19166020820180517bffffffffffffffffffffffffffffffffffffffffffffffffffffffff838183161783525050505061265b565b50565b60007f01ffc9a7000000000000000000000000000000000000000000000000000000007bffffffffffffffffffffffffffffffffffffffffffffffffffffffff1916827bffffffffffffffffffffffffffffffffffffffffffffffffffffffff1916149050919050565b600033905090565b81518351146118b1576040517f08c379a00000000000000000000000000000000000000000000000000000000081526004016118a890613d3f565b60405180910390fd5b600073ffffffffffffffffffffffffffffffffffffffff168473ffffffffffffffffffffffffffffffffffffffff161415611921576040517f08c379a000000000000000000000000000000000000000000000000000000000815260040161191890613bdf565b60405180910390fd5b600061192b611865565b905061193b818787878787612684565b60005b8451811015611aec57600085828151811061195c5761195b614327565b5b60200260200101519050600085838151811061197b5761197a614327565b5b60200260200101519050600080600084815260200190815260200160002060008b73ffffffffffffffffffffffffffffffffffffffff1673ffffffffffffffffffffffffffffffffffffffff16815260200190815260200160002054905081811015611a1c576040517f08c379a0000000000000000000000000000000000000000000000000000000008152600401611a1390613c5f565b60405180910390fd5b81810360008085815260200190815260200160002060008c73ffffffffffffffffffffffffffffffffffffffff1673ffffffffffffffffffffffffffffffffffffffff168152602001908152602001600020819055508160008085815260200190815260200160002060008b73ffffffffffffffffffffffffffffffffffffffff1673ffffffffffffffffffffffffffffffffffffffff1681526020019081526020016000206000828254611ad19190613f8d565b9250508190555050505080611ae5906141c8565b905061193e565b508473ffffffffffffffffffffffffffffffffffffffff168673ffffffffffffffffffffffffffffffffffffffff168273ffffffffffffffffffffffffffffffffffffffff167f4a39dc06d4c0dbc64b70af90fd698a233a518aa5d07e595d983b8c0526c8f7fb8787604051611b63929190613a4b565b60405180910390a4611b7981878787878761268c565b505050505050565b600073ffffffffffffffffffffffffffffffffffffffff168473ffffffffffffffffffffffffffffffffffffffff161415611bf1576040517f08c379a0000000000000000000000000000000000000000000000000000000008152600401611be890613d5f565b60405180910390fd5b6000611bfb611865565b9050611c1c81600087611c0d88612873565b611c1688612873565b87612684565b8260008086815260200190815260200160002060008773ffffffffffffffffffffffffffffffffffffffff1673ffffffffffffffffffffffffffffffffffffffff1681526020019081526020016000206000828254611c7b9190613f8d565b925050819055508473ffffffffffffffffffffffffffffffffffffffff16600073ffffffffffffffffffffffffffffffffffffffff168273ffffffffffffffffffffffffffffffffffffffff167fc3d58168c5ae7397731d063d5bbf3d657854427343f4c083240f7aacaa2d0f628787604051611cf9929190613d9a565b60405180910390a4611d10816000878787876128ed565b5050505050565b60606000821415611d5f576040518060400160405280600181526020017f30000000000000000000000000000000000000000000000000000000000000008152509050611e73565b600082905060005b60008214611d91578080611d7a906141c8565b915050600a82611d8a9190613fe3565b9150611d67565b60008167ffffffffffffffff811115611dad57611dac614356565b5b6040519080825280601f01601f191660200182016040528015611ddf5781602001600182028036833780820191505090505b5090505b60008514611e6c57600182611df8919061406e565b9150600a85611e079190614269565b6030611e139190613f8d565b60f81b818381518110611e2957611e28614327565b5b60200101907effffffffffffffffffffffffffffffffffffffffffffffffffffffffffffff1916908160001a905350600a85611e659190613fe3565b9450611de3565b8093505050505b919050565b6000600360009054906101000a900473ffffffffffffffffffffffffffffffffffffffff16905081600360006101000a81548173ffffffffffffffffffffffffffffffffffffffff021916908373ffffffffffffffffffffffffffffffffffffffff1602179055508173ffffffffffffffffffffffffffffffffffffffff168173ffffffffffffffffffffffffffffffffffffffff167f8be0079c531659141344cd1fd0a4f28419497f9722a3daafe3b4186f6b6457e060405160405180910390a35050565b600d54600c54611f4e9190614014565b601454101561203657600d54602260008381526020019081526020016000205410611fae576040517f08c379a0000000000000000000000000000000000000000000000000000000008152600401611fa590613b9f565b60405180910390fd5b611ff0338260016040518060400160405280600481526020017f3078303000000000000000000000000000000000000000000000000000000000815250611b81565b60016022600083815260200190815260200160002060008282546120149190613f8d565b9250508190555060016014600082825461202e9190613f8d565b925050819055505b50565b600073ffffffffffffffffffffffffffffffffffffffff168373ffffffffffffffffffffffffffffffffffffffff1614156120a9576040517f08c379a00000000000000000000000000000000000000000000000000000000081526004016120a090613c3f565b60405180910390fd5b60006120b3611865565b90506120e3818560006120c587612873565b6120ce87612873565b60405180602001604052806000815250612684565b600080600085815260200190815260200160002060008673ffffffffffffffffffffffffffffffffffffffff1673ffffffffffffffffffffffffffffffffffffffff1681526020019081526020016000205490508281101561217a576040517f08c379a000000000000000000000000000000000000000000000000000000000815260040161217190613b5f565b60405180910390fd5b82810360008086815260200190815260200160002060008773ffffffffffffffffffffffffffffffffffffffff1673ffffffffffffffffffffffffffffffffffffffff16815260200190815260200160002081905550600073ffffffffffffffffffffffffffffffffffffffff168573ffffffffffffffffffffffffffffffffffffffff168373ffffffffffffffffffffffffffffffffffffffff167fc3d58168c5ae7397731d063d5bbf3d657854427343f4c083240f7aacaa2d0f628787604051612247929190613d9a565b60405180910390a45050505050565b8173ffffffffffffffffffffffffffffffffffffffff168373ffffffffffffffffffffffffffffffffffffffff1614156122c5576040517f08c379a00000000000000000000000000000000000000000000000000000000081526004016122bc90613cff565b60405180910390fd5b80600160008573ffffffffffffffffffffffffffffffffffffffff1673ffffffffffffffffffffffffffffffffffffffff16815260200190815260200160002060008473ffffffffffffffffffffffffffffffffffffffff1673ffffffffffffffffffffffffffffffffffffffff16815260200190815260200160002060006101000a81548160ff0219169083151502179055508173ffffffffffffffffffffffffffffffffffffffff168373ffffffffffffffffffffffffffffffffffffffff167f17307eab39ab6107e8899845ad3d59bd9653f200f220920489ca2b5937696c31836040516123b69190613a82565b60405180910390a3505050565b600081836123d19190613f8d565b905092915050565b600073ffffffffffffffffffffffffffffffffffffffff168473ffffffffffffffffffffffffffffffffffffffff161415612449576040517f08c379a000000000000000000000000000000000000000000000000000000000815260040161244090613bdf565b60405180910390fd5b6000612453611865565b905061247381878761246488612873565b61246d88612873565b87612684565b600080600086815260200190815260200160002060008873ffffffffffffffffffffffffffffffffffffffff1673ffffffffffffffffffffffffffffffffffffffff1681526020019081526020016000205490508381101561250a576040517f08c379a000000000000000000000000000000000000000000000000000000000815260040161250190613c5f565b60405180910390fd5b83810360008087815260200190815260200160002060008973ffffffffffffffffffffffffffffffffffffffff1673ffffffffffffffffffffffffffffffffffffffff168152602001908152602001600020819055508360008087815260200190815260200160002060008873ffffffffffffffffffffffffffffffffffffffff1673ffffffffffffffffffffffffffffffffffffffff16815260200190815260200160002060008282546125bf9190613f8d565b925050819055508573ffffffffffffffffffffffffffffffffffffffff168773ffffffffffffffffffffffffffffffffffffffff168373ffffffffffffffffffffffffffffffffffffffff167fc3d58168c5ae7397731d063d5bbf3d657854427343f4c083240f7aacaa2d0f62888860405161263c929190613d9a565b60405180910390a46126528288888888886128ed565b50505050505050565b60008151905060006a636f6e736f6c652e6c6f679050602083016000808483855afa5050505050565b505050505050565b6126ab8473ffffffffffffffffffffffffffffffffffffffff16612ad4565b1561286b578373ffffffffffffffffffffffffffffffffffffffff1663bc197c8187878686866040518663ffffffff1660e01b81526004016126f19594939291906138df565b602060405180830381600087803b15801561270b57600080fd5b505af192505050801561273c57506040513d601f19601f82011682018060405250810190612739919061314b565b60015b6127e257612748614385565b806308c379a014156127a5575061275d614a20565b8061276857506127a7565b806040517f08c379a000000000000000000000000000000000000000000000000000000000815260040161279c9190613a9d565b60405180910390fd5b505b6040517f08c379a00000000000000000000000000000000000000000000000000000000081526004016127d990613abf565b60405180910390fd5b63bc197c8160e01b7bffffffffffffffffffffffffffffffffffffffffffffffffffffffff1916817bffffffffffffffffffffffffffffffffffffffffffffffffffffffff191614612869576040517f08c379a000000000000000000000000000000000000000000000000000000000815260040161286090613adf565b60405180910390fd5b505b505050505050565b60606000600167ffffffffffffffff81111561289257612891614356565b5b6040519080825280602002602001820160405280156128c05781602001602082028036833780820191505090505b50905082816000815181106128d8576128d7614327565b5b60200260200101818152505080915050919050565b61290c8473ffffffffffffffffffffffffffffffffffffffff16612ad4565b15612acc578373ffffffffffffffffffffffffffffffffffffffff1663f23a6e6187878686866040518663ffffffff1660e01b8152600401612952959493929190613947565b602060405180830381600087803b15801561296c57600080fd5b505af192505050801561299d57506040513d601f19601f8201168201806040525081019061299a919061314b565b60015b612a43576129a9614385565b806308c379a01415612a0657506129be614a20565b806129c95750612a08565b806040517f08c379a00000000000000000000000000000000000000000000000000000000081526004016129fd9190613a9d565b60405180910390fd5b505b6040517f08c379a0000000000000000000000000000000000000000000000000000000008152600401612a3a90613abf565b60405180910390fd5b63f23a6e6160e01b7bffffffffffffffffffffffffffffffffffffffffffffffffffffffff1916817bffffffffffffffffffffffffffffffffffffffffffffffffffffffff191614612aca576040517f08c379a0000000000000000000000000000000000000000000000000000000008152600401612ac190613adf565b60405180910390fd5b505b505050505050565b600080823b905060008111915050919050565b828054612af390614165565b90600052602060002090601f016020900481019282612b155760008555612b5c565b82601f10612b2e57805160ff1916838001178555612b5c565b82800160010185558215612b5c579182015b82811115612b5b578251825591602001919060010190612b40565b5b509050612b699190612bb1565b5090565b6040518060a00160405280600590602082028036833780820191505090505090565b6040518060600160405280600390602082028036833780820191505090505090565b5b80821115612bca576000816000905550600101612bb2565b5090565b6000612be1612bdc84613de8565b613dc3565b90508083825260208201905082856020860282011115612c0457612c036143ac565b5b60005b85811015612c345781612c1a8882612d32565b845260208401935060208301925050600181019050612c07565b5050509392505050565b6000612c51612c4c84613e14565b613dc3565b90508083825260208201905082856020860282011115612c7457612c736143ac565b5b60005b85811015612ca45781612c8a8882612e3e565b845260208401935060208301925050600181019050612c77565b5050509392505050565b6000612cc1612cbc84613e40565b613dc3565b905082815260208101848484011115612cdd57612cdc6143b1565b5b612ce8848285614123565b509392505050565b6000612d03612cfe84613e71565b613dc3565b905082815260208101848484011115612d1f57612d1e6143b1565b5b612d2a848285614123565b509392505050565b600081359050612d4181614ab6565b92915050565b600082601f830112612d5c57612d5b6143a7565b5b8135612d6c848260208601612bce565b91505092915050565b600082601f830112612d8a57612d896143a7565b5b8135612d9a848260208601612c3e565b91505092915050565b600081359050612db281614acd565b92915050565b600081359050612dc781614ae4565b92915050565b600081519050612ddc81614ae4565b92915050565b600082601f830112612df757612df66143a7565b5b8135612e07848260208601612cae565b91505092915050565b600082601f830112612e2557612e246143a7565b5b8135612e35848260208601612cf0565b91505092915050565b600081359050612e4d81614afb565b92915050565b600060208284031215612e6957612e686143bb565b5b6000612e7784828501612d32565b91505092915050565b60008060408385031215612e9757612e966143bb565b5b6000612ea585828601612d32565b9250506020612eb685828601612d32565b9150509250929050565b600080600080600060a08688031215612edc57612edb6143bb565b5b6000612eea88828901612d32565b9550506020612efb88828901612d32565b945050604086013567ffffffffffffffff811115612f1c57612f1b6143b6565b5b612f2888828901612d75565b935050606086013567ffffffffffffffff811115612f4957612f486143b6565b5b612f5588828901612d75565b925050608086013567ffffffffffffffff811115612f7657612f756143b6565b5b612f8288828901612de2565b9150509295509295909350565b600080600080600060a08688031215612fab57612faa6143bb565b5b6000612fb988828901612d32565b9550506020612fca88828901612d32565b9450506040612fdb88828901612e3e565b9350506060612fec88828901612e3e565b925050608086013567ffffffffffffffff81111561300d5761300c6143b6565b5b61301988828901612de2565b9150509295509295909350565b6000806040838503121561303d5761303c6143bb565b5b600061304b85828601612d32565b925050602061305c85828601612da3565b9150509250929050565b6000806040838503121561307d5761307c6143bb565b5b600061308b85828601612d32565b925050602061309c85828601612e3e565b9150509250929050565b600080604083850312156130bd576130bc6143bb565b5b600083013567ffffffffffffffff8111156130db576130da6143b6565b5b6130e785828601612d47565b925050602083013567ffffffffffffffff811115613108576131076143b6565b5b61311485828601612d75565b9150509250929050565b600060208284031215613134576131336143bb565b5b600061314284828501612db8565b91505092915050565b600060208284031215613161576131606143bb565b5b600061316f84828501612dcd565b91505092915050565b60006020828403121561318e5761318d6143bb565b5b600082013567ffffffffffffffff8111156131ac576131ab6143b6565b5b6131b884828501612e10565b91505092915050565b6000602082840312156131d7576131d66143bb565b5b60006131e584828501612e3e565b91505092915050565b60008060408385031215613205576132046143bb565b5b600061321385828601612e3e565b925050602083013567ffffffffffffffff811115613234576132336143b6565b5b61324085828601612e10565b9150509250929050565b600061325683836137ea565b60208301905092915050565b61326b816140a2565b82525050565b61328261327d826140a2565b61423b565b82525050565b61329181613edb565b61329b8184613f39565b92506132a682613ea2565b8060005b838110156132d75781516132be878261324a565b96506132c983613f12565b9250506001810190506132aa565b505050505050565b6132e881613ee6565b6132f28184613f44565b92506132fd82613eac565b8060005b8381101561332e578151613315878261324a565b965061332083613f1f565b925050600181019050613301565b505050505050565b600061334182613ef1565b61334b8185613f4f565b935061335683613eb6565b8060005b8381101561338757815161336e888261324a565b975061337983613f2c565b92505060018101905061335a565b5085935050505092915050565b61339d816140b4565b82525050565b60006133ae82613efc565b6133b88185613f60565b93506133c8818560208601614132565b6133d1816143c0565b840191505092915050565b60006133e782613f07565b6133f18185613f71565b9350613401818560208601614132565b61340a816143c0565b840191505092915050565b600061342082613f07565b61342a8185613f82565b935061343a818560208601614132565b80840191505092915050565b6000815461345381614165565b61345d8186613f82565b945060018216600081146134785760018114613489576134bc565b60ff198316865281860193506134bc565b61349285613ec6565b60005b838110156134b457815481890152600182019150602081019050613495565b838801955050505b50505092915050565b60006134d2603483613f71565b91506134dd826143eb565b604082019050919050565b60006134f5602883613f71565b91506135008261443a565b604082019050919050565b6000613518601b83613f71565b915061352382614489565b602082019050919050565b600061353b602b83613f71565b9150613546826144b2565b604082019050919050565b600061355e602683613f71565b915061356982614501565b604082019050919050565b6000613581602483613f71565b915061358c82614550565b604082019050919050565b60006135a4602983613f71565b91506135af8261459f565b604082019050919050565b60006135c7602d83613f71565b91506135d2826145ee565b604082019050919050565b60006135ea601d83613f71565b91506135f58261463d565b602082019050919050565b600061360d602583613f71565b915061361882614666565b604082019050919050565b6000613630603283613f71565b915061363b826146b5565b604082019050919050565b6000613653601483613f71565b915061365e82614704565b602082019050919050565b6000613676602383613f71565b91506136818261472d565b604082019050919050565b6000613699602a83613f71565b91506136a48261477c565b604082019050919050565b60006136bc600583613f82565b91506136c7826147cb565b600582019050919050565b60006136df602083613f71565b91506136ea826147f4565b602082019050919050565b6000613702602383613f71565b915061370d8261481d565b604082019050919050565b6000613725602b83613f71565b91506137308261486c565b604082019050919050565b6000613748601f83613f71565b9150613753826148bb565b602082019050919050565b600061376b602983613f71565b9150613776826148e4565b604082019050919050565b600061378e602983613f71565b915061379982614933565b604082019050919050565b60006137b1602883613f71565b91506137bc82614982565b604082019050919050565b60006137d4602183613f71565b91506137df826149d1565b604082019050919050565b6137f38161410c565b82525050565b6138028161410c565b82525050565b6138196138148261410c565b61425f565b82525050565b600061382b8284613446565b915081905092915050565b60006138428285613446565b915061384e8284613415565b9150613859826136af565b91508190509392505050565b60006138718288613808565b6020820191506138818287613271565b6014820191506138918286613808565b6020820191506138a18285613808565b6020820191506138b18284613808565b6020820191508190509695505050505050565b60006020820190506138d96000830184613262565b92915050565b600060a0820190506138f46000830188613262565b6139016020830187613262565b81810360408301526139138186613336565b905081810360608301526139278185613336565b9050818103608083015261393b81846133a3565b90509695505050505050565b600060a08201905061395c6000830188613262565b6139696020830187613262565b61397660408301866137f9565b61398360608301856137f9565b818103608083015261399581846133a3565b90509695505050505050565b60006040820190506139b66000830185613262565b6139c360208301846137f9565b9392505050565b60006060820190506139df6000830184613288565b92915050565b600060a0820190506139fa60008301846132df565b92915050565b600060c082019050613a1560008301856132df565b613a2260a0830184613262565b9392505050565b60006020820190508181036000830152613a438184613336565b905092915050565b60006040820190508181036000830152613a658185613336565b90508181036020830152613a798184613336565b90509392505050565b6000602082019050613a976000830184613394565b92915050565b60006020820190508181036000830152613ab781846133dc565b905092915050565b60006020820190508181036000830152613ad8816134c5565b9050919050565b60006020820190508181036000830152613af8816134e8565b9050919050565b60006020820190508181036000830152613b188161350b565b9050919050565b60006020820190508181036000830152613b388161352e565b9050919050565b60006020820190508181036000830152613b5881613551565b9050919050565b60006020820190508181036000830152613b7881613574565b9050919050565b60006020820190508181036000830152613b9881613597565b9050919050565b60006020820190508181036000830152613bb8816135ba565b9050919050565b60006020820190508181036000830152613bd8816135dd565b9050919050565b60006020820190508181036000830152613bf881613600565b9050919050565b60006020820190508181036000830152613c1881613623565b9050919050565b60006020820190508181036000830152613c3881613646565b9050919050565b60006020820190508181036000830152613c5881613669565b9050919050565b60006020820190508181036000830152613c788161368c565b9050919050565b60006020820190508181036000830152613c98816136d2565b9050919050565b60006020820190508181036000830152613cb8816136f5565b9050919050565b60006020820190508181036000830152613cd881613718565b9050919050565b60006020820190508181036000830152613cf88161373b565b9050919050565b60006020820190508181036000830152613d188161375e565b9050919050565b60006020820190508181036000830152613d3881613781565b9050919050565b60006020820190508181036000830152613d58816137a4565b9050919050565b60006020820190508181036000830152613d78816137c7565b9050919050565b6000602082019050613d9460008301846137f9565b92915050565b6000604082019050613daf60008301856137f9565b613dbc60208301846137f9565b9392505050565b6000613dcd613dde565b9050613dd98282614197565b919050565b6000604051905090565b600067ffffffffffffffff821115613e0357613e02614356565b5b602082029050602081019050919050565b600067ffffffffffffffff821115613e2f57613e2e614356565b5b602082029050602081019050919050565b600067ffffffffffffffff821115613e5b57613e5a614356565b5b613e64826143c0565b9050602081019050919050565b600067ffffffffffffffff821115613e8c57613e8b614356565b5b613e95826143c0565b9050602081019050919050565b6000819050919050565b6000819050919050565b6000819050602082019050919050565b60008190508160005260206000209050919050565b600060039050919050565b600060059050919050565b600081519050919050565b600081519050919050565b600081519050919050565b6000602082019050919050565b6000602082019050919050565b6000602082019050919050565b600081905092915050565b600081905092915050565b600082825260208201905092915050565b600082825260208201905092915050565b600082825260208201905092915050565b600081905092915050565b6000613f988261410c565b9150613fa38361410c565b9250827fffffffffffffffffffffffffffffffffffffffffffffffffffffffffffffffff03821115613fd857613fd761429a565b5b828201905092915050565b6000613fee8261410c565b9150613ff98361410c565b925082614009576140086142c9565b5b828204905092915050565b600061401f8261410c565b915061402a8361410c565b9250817fffffffffffffffffffffffffffffffffffffffffffffffffffffffffffffffff04831182151516156140635761406261429a565b5b828202905092915050565b60006140798261410c565b91506140848361410c565b9250828210156140975761409661429a565b5b828203905092915050565b60006140ad826140ec565b9050919050565b60008115159050919050565b60007fffffffff0000000000000000000000000000000000000000000000000000000082169050919050565b600073ffffffffffffffffffffffffffffffffffffffff82169050919050565b6000819050919050565b600060ff82169050919050565b82818337600083830152505050565b60005b83811015614150578082015181840152602081019050614135565b8381111561415f576000848401525b50505050565b6000600282049050600182168061417d57607f821691505b60208210811415614191576141906142f8565b5b50919050565b6141a0826143c0565b810181811067ffffffffffffffff821117156141bf576141be614356565b5b80604052505050565b60006141d38261410c565b91507fffffffffffffffffffffffffffffffffffffffffffffffffffffffffffffffff8214156142065761420561429a565b5b600182019050919050565b600061421c82614116565b915060ff8214156142305761422f61429a565b5b600182019050919050565b60006142468261424d565b9050919050565b6000614258826143d1565b9050919050565b6000819050919050565b60006142748261410c565b915061427f8361410c565b92508261428f5761428e6142c9565b5b828206905092915050565b7f4e487b7100000000000000000000000000000000000000000000000000000000600052601160045260246000fd5b7f4e487b7100000000000000000000000000000000000000000000000000000000600052601260045260246000fd5b7f4e487b7100000000000000000000000000000000000000000000000000000000600052602260045260246000fd5b7f4e487b7100000000000000000000000000000000000000000000000000000000600052603260045260246000fd5b7f4e487b7100000000000000000000000000000000000000000000000000000000600052604160045260246000fd5b600060033d11156143a45760046000803e6143a16000516143de565b90505b90565b600080fd5b600080fd5b600080fd5b600080fd5b600080fd5b6000601f19601f8301169050919050565b60008160601b9050919050565b60008160e01c9050919050565b7f455243313135353a207472616e7366657220746f206e6f6e204552433131353560008201527f526563656976657220696d706c656d656e746572000000000000000000000000602082015250565b7f455243313135353a204552433131353552656365697665722072656a6563746560008201527f6420746f6b656e73000000000000000000000000000000000000000000000000602082015250565b7f4e6f2072656d61696e696e6720626f6f73746572207061636b73210000000000600082015250565b7f455243313135353a2062616c616e636520717565727920666f7220746865207a60008201527f65726f2061646472657373000000000000000000000000000000000000000000602082015250565b7f4f776e61626c653a206e6577206f776e657220697320746865207a65726f206160008201527f6464726573730000000000000000000000000000000000000000000000000000602082015250565b7f455243313135353a206275726e20616d6f756e7420657863656564732062616c60008201527f616e636500000000000000000000000000000000000000000000000000000000602082015250565b7f455243313135353a2063616c6c6572206973206e6f74206f776e6572206e6f7260008201527f20617070726f7665640000000000000000000000000000000000000000000000602082015250565b7f416c6c206f662074686973206174686c657465206861766520616c726561647960008201527f206265656e206d696e7465642100000000000000000000000000000000000000602082015250565b7f5374617274696e6720696e64657820697320616c726561647920736574000000600082015250565b7f455243313135353a207472616e7366657220746f20746865207a65726f20616460008201527f6472657373000000000000000000000000000000000000000000000000000000602082015250565b7f455243313135353a207472616e736665722063616c6c6572206973206e6f742060008201527f6f776e6572206e6f7220617070726f7665640000000000000000000000000000602082015250565b7f43616e6e6f742073657420757269207477696365000000000000000000000000600082015250565b7f455243313135353a206275726e2066726f6d20746865207a65726f206164647260008201527f6573730000000000000000000000000000000000000000000000000000000000602082015250565b7f455243313135353a20696e73756666696369656e742062616c616e636520666f60008201527f72207472616e7366657200000000000000000000000000000000000000000000602082015250565b7f2e6a736f6e000000000000000000000000000000000000000000000000000000600082015250565b7f4f776e61626c653a2063616c6c6572206973206e6f7420746865206f776e6572600082015250565b7f416c6c207061636b73206861766520616c7265616479206265656e206d696e7460008201527f6564210000000000000000000000000000000000000000000000000000000000602082015250565b7f43616e206f6e6c79206d696e742074776f20626f6f73746572207061636b732060008201527f706572206163636f756e74000000000000000000000000000000000000000000602082015250565b7f5061636b73206172656e277420726561647920746f206f70656e207965742100600082015250565b7f455243313135353a2073657474696e6720617070726f76616c2073746174757360008201527f20666f722073656c660000000000000000000000000000000000000000000000602082015250565b7f455243313135353a206163636f756e747320616e6420696473206c656e67746860008201527f206d69736d617463680000000000000000000000000000000000000000000000602082015250565b7f455243313135353a2069647320616e6420616d6f756e7473206c656e6774682060008201527f6d69736d61746368000000000000000000000000000000000000000000000000602082015250565b7f455243313135353a206d696e7420746f20746865207a65726f2061646472657360008201527f7300000000000000000000000000000000000000000000000000000000000000602082015250565b600060443d1015614a3057614ab3565b614a38613dde565b60043d036004823e80513d602482011167ffffffffffffffff82111715614a60575050614ab3565b808201805167ffffffffffffffff811115614a7e5750505050614ab3565b80602083010160043d038501811115614a9b575050505050614ab3565b614aaa82602001850186614197565b82955050505050505b90565b614abf816140a2565b8114614aca57600080fd5b50565b614ad6816140b4565b8114614ae157600080fd5b50565b614aed816140c0565b8114614af857600080fd5b50565b614b048161410c565b8114614b0f57600080fd5b5056fea26469706673582212208a28289783ca375b31b17f660ac99abff69bdac734dec9c84975728726a4ec0164736f6c63430008070033",
  "linkReferences": {},
  "deployedLinkReferences": {}
}