{
  "_format": "hh-sol-artifact-1",
  "contractName": "GameItems",
  "sourceName": "contracts/GameItems.sol",
  "abi": [
    {
      "inputs": [
        {
          "internalType": "uint256",
          "name": "_numAthletes",
          "type": "uint256"
        },
        {
          "internalType": "uint256",
          "name": "_nftPerAthlete",
          "type": "uint256"
        },
        {
          "internalType": "uint256",
          "name": "_starterPackSize",
          "type": "uint256"
        },
        {
          "internalType": "uint256",
          "name": "_boosterPackSize",
          "type": "uint256"
        },
        {
          "internalType": "uint256",
          "name": "_maxStarterPackBalance",
          "type": "uint256"
        },
        {
          "internalType": "uint256",
          "name": "_maxBoosterPackBalance",
          "type": "uint256"
        },
        {
          "internalType": "uint256",
          "name": "_maxPacks",
          "type": "uint256"
        },
        {
          "internalType": "string",
          "name": "_athleteURI",
          "type": "string"
        },
        {
          "internalType": "string",
          "name": "_starterPackURI",
          "type": "string"
        },
        {
          "internalType": "string",
          "name": "_boosterPackURI",
          "type": "string"
        },
        {
          "internalType": "uint256",
          "name": "_revealTimestamp",
          "type": "uint256"
        }
      ],
      "stateMutability": "nonpayable",
      "type": "constructor"
    },
    {
      "anonymous": false,
      "inputs": [
        {
          "indexed": true,
          "internalType": "address",
          "name": "account",
          "type": "address"
        },
        {
          "indexed": true,
          "internalType": "address",
          "name": "operator",
          "type": "address"
        },
        {
          "indexed": false,
          "internalType": "bool",
          "name": "approved",
          "type": "bool"
        }
      ],
      "name": "ApprovalForAll",
      "type": "event"
    },
    {
      "anonymous": false,
      "inputs": [
        {
          "indexed": true,
          "internalType": "address",
          "name": "previousOwner",
          "type": "address"
        },
        {
          "indexed": true,
          "internalType": "address",
          "name": "newOwner",
          "type": "address"
        }
      ],
      "name": "OwnershipTransferred",
      "type": "event"
    },
    {
      "anonymous": false,
      "inputs": [
        {
          "indexed": false,
          "internalType": "bool",
          "name": "success",
          "type": "bool"
        },
        {
          "indexed": false,
          "internalType": "bytes",
          "name": "data",
          "type": "bytes"
        }
      ],
      "name": "Response",
      "type": "event"
    },
    {
      "anonymous": false,
      "inputs": [
        {
          "indexed": true,
          "internalType": "address",
          "name": "operator",
          "type": "address"
        },
        {
          "indexed": true,
          "internalType": "address",
          "name": "from",
          "type": "address"
        },
        {
          "indexed": true,
          "internalType": "address",
          "name": "to",
          "type": "address"
        },
        {
          "indexed": false,
          "internalType": "uint256[]",
          "name": "ids",
          "type": "uint256[]"
        },
        {
          "indexed": false,
          "internalType": "uint256[]",
          "name": "values",
          "type": "uint256[]"
        }
      ],
      "name": "TransferBatch",
      "type": "event"
    },
    {
      "anonymous": false,
      "inputs": [
        {
          "indexed": true,
          "internalType": "address",
          "name": "operator",
          "type": "address"
        },
        {
          "indexed": true,
          "internalType": "address",
          "name": "from",
          "type": "address"
        },
        {
          "indexed": true,
          "internalType": "address",
          "name": "to",
          "type": "address"
        },
        {
          "indexed": false,
          "internalType": "uint256",
          "name": "id",
          "type": "uint256"
        },
        {
          "indexed": false,
          "internalType": "uint256",
          "name": "value",
          "type": "uint256"
        }
      ],
      "name": "TransferSingle",
      "type": "event"
    },
    {
      "anonymous": false,
      "inputs": [
        {
          "indexed": false,
          "internalType": "string",
          "name": "value",
          "type": "string"
        },
        {
          "indexed": true,
          "internalType": "uint256",
          "name": "id",
          "type": "uint256"
        }
      ],
      "name": "URI",
      "type": "event"
    },
    {
      "anonymous": false,
      "inputs": [
        {
          "indexed": false,
          "internalType": "address",
          "name": "user",
          "type": "address"
        },
        {
          "indexed": false,
          "internalType": "uint256",
          "name": "id",
          "type": "uint256"
        }
      ],
      "name": "packMinted",
      "type": "event"
    },
    {
      "inputs": [],
      "name": "REVEAL_TIMESTAMP",
      "outputs": [
        {
          "internalType": "uint256",
          "name": "",
          "type": "uint256"
        }
      ],
      "stateMutability": "view",
      "type": "function"
    },
    {
      "inputs": [
        {
          "internalType": "address",
          "name": "account",
          "type": "address"
        },
        {
          "internalType": "uint256",
          "name": "id",
          "type": "uint256"
        }
      ],
      "name": "balanceOf",
      "outputs": [
        {
          "internalType": "uint256",
          "name": "",
          "type": "uint256"
        }
      ],
      "stateMutability": "view",
      "type": "function"
    },
    {
      "inputs": [
        {
          "internalType": "address[]",
          "name": "accounts",
          "type": "address[]"
        },
        {
          "internalType": "uint256[]",
          "name": "ids",
          "type": "uint256[]"
        }
      ],
      "name": "balanceOfBatch",
      "outputs": [
        {
          "internalType": "uint256[]",
          "name": "",
          "type": "uint256[]"
        }
      ],
      "stateMutability": "view",
      "type": "function"
    },
    {
      "inputs": [],
      "name": "burnBoosterPack",
      "outputs": [],
      "stateMutability": "nonpayable",
      "type": "function"
    },
    {
      "inputs": [],
      "name": "burnStarterPack",
      "outputs": [],
      "stateMutability": "nonpayable",
      "type": "function"
    },
    {
      "inputs": [],
      "name": "emergencySetStartingIndexBlock",
      "outputs": [],
      "stateMutability": "nonpayable",
      "type": "function"
    },
    {
      "inputs": [],
      "name": "generateMagicNum",
      "outputs": [
        {
          "internalType": "uint256",
          "name": "",
          "type": "uint256"
        }
      ],
      "stateMutability": "view",
      "type": "function"
    },
    {
      "inputs": [],
      "name": "generateStarterPackIndices",
      "outputs": [],
      "stateMutability": "nonpayable",
      "type": "function"
    },
    {
      "inputs": [],
      "name": "getNFTPerAthlete",
      "outputs": [
        {
          "internalType": "uint256",
          "name": "",
          "type": "uint256"
        }
      ],
      "stateMutability": "view",
      "type": "function"
    },
    {
      "inputs": [],
      "name": "getStarterPackIndices",
      "outputs": [
        {
          "internalType": "uint256[5]",
          "name": "",
          "type": "uint256[5]"
        }
      ],
      "stateMutability": "view",
      "type": "function"
    },
    {
      "inputs": [
        {
          "internalType": "address",
          "name": "_addr",
          "type": "address"
        }
      ],
      "name": "grabRandomWord",
      "outputs": [],
      "stateMutability": "nonpayable",
      "type": "function"
    },
    {
      "inputs": [
        {
          "internalType": "address",
          "name": "account",
          "type": "address"
        },
        {
          "internalType": "address",
          "name": "operator",
          "type": "address"
        }
      ],
      "name": "isApprovedForAll",
      "outputs": [
        {
          "internalType": "bool",
          "name": "",
          "type": "bool"
        }
      ],
      "stateMutability": "view",
      "type": "function"
    },
    {
      "inputs": [],
      "name": "mintBoosterPack",
      "outputs": [],
      "stateMutability": "nonpayable",
      "type": "function"
    },
    {
      "inputs": [
        {
          "internalType": "uint256",
          "name": "initialSupply",
          "type": "uint256"
        }
      ],
      "name": "mintCurrency",
      "outputs": [],
      "stateMutability": "nonpayable",
      "type": "function"
    },
    {
      "inputs": [],
      "name": "mintStarterPack",
      "outputs": [],
      "stateMutability": "nonpayable",
      "type": "function"
    },
    {
      "inputs": [],
      "name": "owner",
      "outputs": [
        {
          "internalType": "address",
          "name": "",
          "type": "address"
        }
      ],
      "stateMutability": "view",
      "type": "function"
    },
    {
      "inputs": [],
      "name": "packsReadyToOpen",
      "outputs": [
        {
          "internalType": "bool",
          "name": "",
          "type": "bool"
        }
      ],
      "stateMutability": "view",
      "type": "function"
    },
    {
      "inputs": [],
      "name": "renounceOwnership",
      "outputs": [],
      "stateMutability": "nonpayable",
      "type": "function"
    },
    {
      "inputs": [
        {
          "internalType": "address",
          "name": "from",
          "type": "address"
        },
        {
          "internalType": "address",
          "name": "to",
          "type": "address"
        },
        {
          "internalType": "uint256[]",
          "name": "ids",
          "type": "uint256[]"
        },
        {
          "internalType": "uint256[]",
          "name": "amounts",
          "type": "uint256[]"
        },
        {
          "internalType": "bytes",
          "name": "data",
          "type": "bytes"
        }
      ],
      "name": "safeBatchTransferFrom",
      "outputs": [],
      "stateMutability": "nonpayable",
      "type": "function"
    },
    {
      "inputs": [
        {
          "internalType": "address",
          "name": "from",
          "type": "address"
        },
        {
          "internalType": "address",
          "name": "to",
          "type": "address"
        },
        {
          "internalType": "uint256",
          "name": "id",
          "type": "uint256"
        },
        {
          "internalType": "uint256",
          "name": "amount",
          "type": "uint256"
        },
        {
          "internalType": "bytes",
          "name": "data",
          "type": "bytes"
        }
      ],
      "name": "safeTransferFrom",
      "outputs": [],
      "stateMutability": "nonpayable",
      "type": "function"
    },
    {
      "inputs": [
        {
          "internalType": "address",
          "name": "operator",
          "type": "address"
        },
        {
          "internalType": "bool",
          "name": "approved",
          "type": "bool"
        }
      ],
      "name": "setApprovalForAll",
      "outputs": [],
      "stateMutability": "nonpayable",
      "type": "function"
    },
    {
      "inputs": [],
      "name": "setPacksReady",
      "outputs": [],
      "stateMutability": "nonpayable",
      "type": "function"
    },
    {
      "inputs": [
        {
          "internalType": "string",
          "name": "provenanceHash",
          "type": "string"
        }
      ],
      "name": "setProvenanceHash",
      "outputs": [],
      "stateMutability": "nonpayable",
      "type": "function"
    },
    {
      "inputs": [],
      "name": "setStartingIndex",
      "outputs": [],
      "stateMutability": "nonpayable",
      "type": "function"
    },
    {
      "inputs": [
        {
          "internalType": "uint256",
          "name": "tokenId",
          "type": "uint256"
        },
        {
          "internalType": "string",
          "name": "uri",
          "type": "string"
        }
      ],
      "name": "setTokenUri",
      "outputs": [],
      "stateMutability": "nonpayable",
      "type": "function"
    },
    {
      "inputs": [],
      "name": "setURIs",
      "outputs": [],
      "stateMutability": "nonpayable",
      "type": "function"
    },
    {
      "inputs": [
        {
          "internalType": "bytes4",
          "name": "interfaceId",
          "type": "bytes4"
        }
      ],
      "name": "supportsInterface",
      "outputs": [
        {
          "internalType": "bool",
          "name": "",
          "type": "bool"
        }
      ],
      "stateMutability": "view",
      "type": "function"
    },
    {
      "inputs": [
        {
          "internalType": "address",
          "name": "from",
          "type": "address"
        },
        {
          "internalType": "address",
          "name": "to",
          "type": "address"
        },
        {
          "internalType": "uint256",
          "name": "amount",
          "type": "uint256"
        },
        {
          "internalType": "bytes",
          "name": "data",
          "type": "bytes"
        }
      ],
      "name": "transferCurrency",
      "outputs": [],
      "stateMutability": "nonpayable",
      "type": "function"
    },
    {
      "inputs": [
        {
          "internalType": "address",
          "name": "newOwner",
          "type": "address"
        }
      ],
      "name": "transferOwnership",
      "outputs": [],
      "stateMutability": "nonpayable",
      "type": "function"
    },
    {
      "inputs": [
        {
          "internalType": "uint256",
          "name": "tokenId",
          "type": "uint256"
        }
      ],
      "name": "uri",
      "outputs": [
        {
          "internalType": "string",
          "name": "",
          "type": "string"
        }
      ],
      "stateMutability": "view",
      "type": "function"
    }
  ],
  "bytecode": "0x6080604052612710600f556001601060006101000a81548160ff0219169083151502179055506005546011556011546012556040518060400160405280601581526020017f68747470733a2f2f697066732e696f2f697066732f0000000000000000000000815250601690805190602001906200007e929190620003b1565b506040518060200160405280600081525060199080519060200190620000a6929190620003b1565b50348015620000b457600080fd5b5060405162005f0938038062005f098339818101604052810190620000da9190620004ea565b60405180602001604052806000815250620000fb81620001fb60201b60201c565b506200011c620001106200021760201b60201c565b6200021f60201b60201c565b620001676040518060400160405280601281526020017f4d616b696e6720636f6e74726163742e2e2e0000000000000000000000000000815250620002e560201b62001ec01760201c565b8a6005819055508960068190555088600781905550876008819055508660098190555085600a8190555084600b8190555083600c9080519060200190620001b0929190620003b1565b5082600d9080519060200190620001c9929190620003b1565b5081600e9080519060200190620001e2929190620003b1565b5080600f81905550505050505050505050505062000851565b806002908051906020019062000213929190620003b1565b5050565b600033905090565b6000600360009054906101000a900473ffffffffffffffffffffffffffffffffffffffff16905081600360006101000a81548173ffffffffffffffffffffffffffffffffffffffff021916908373ffffffffffffffffffffffffffffffffffffffff1602179055508173ffffffffffffffffffffffffffffffffffffffff168173ffffffffffffffffffffffffffffffffffffffff167f8be0079c531659141344cd1fd0a4f28419497f9722a3daafe3b4186f6b6457e060405160405180910390a35050565b6200038581604051602401620002fc91906200067d565b6040516020818303038152906040527f41304fac000000000000000000000000000000000000000000000000000000007bffffffffffffffffffffffffffffffffffffffffffffffffffffffff19166020820180517bffffffffffffffffffffffffffffffffffffffffffffffffffffffff83818316178352505050506200038860201b60201c565b50565b60008151905060006a636f6e736f6c652e6c6f679050602083016000808483855afa5050505050565b828054620003bf906200075c565b90600052602060002090601f016020900481019282620003e357600085556200042f565b82601f10620003fe57805160ff19168380011785556200042f565b828001600101855582156200042f579182015b828111156200042e57825182559160200191906001019062000411565b5b5090506200043e919062000442565b5090565b5b808211156200045d57600081600090555060010162000443565b5090565b6000620004786200047284620006ca565b620006a1565b9050828152602081018484840111156200049157600080fd5b6200049e84828562000726565b509392505050565b600082601f830112620004b857600080fd5b8151620004ca84826020860162000461565b91505092915050565b600081519050620004e48162000837565b92915050565b60008060008060008060008060008060006101608c8e0312156200050d57600080fd5b60006200051d8e828f01620004d3565b9b50506020620005308e828f01620004d3565b9a50506040620005438e828f01620004d3565b9950506060620005568e828f01620004d3565b9850506080620005698e828f01620004d3565b97505060a06200057c8e828f01620004d3565b96505060c06200058f8e828f01620004d3565b95505060e08c015167ffffffffffffffff811115620005ad57600080fd5b620005bb8e828f01620004a6565b9450506101008c015167ffffffffffffffff811115620005da57600080fd5b620005e88e828f01620004a6565b9350506101208c015167ffffffffffffffff8111156200060757600080fd5b620006158e828f01620004a6565b925050610140620006298e828f01620004d3565b9150509295989b509295989b9093969950565b6000620006498262000700565b6200065581856200070b565b93506200066781856020860162000726565b620006728162000826565b840191505092915050565b600060208201905081810360008301526200069981846200063c565b905092915050565b6000620006ad620006c0565b9050620006bb828262000792565b919050565b6000604051905090565b600067ffffffffffffffff821115620006e857620006e7620007f7565b5b620006f38262000826565b9050602081019050919050565b600081519050919050565b600082825260208201905092915050565b6000819050919050565b60005b838110156200074657808201518184015260208101905062000729565b8381111562000756576000848401525b50505050565b600060028204905060018216806200077557607f821691505b602082108114156200078c576200078b620007c8565b5b50919050565b6200079d8262000826565b810181811067ffffffffffffffff82111715620007bf57620007be620007f7565b5b80604052505050565b7f4e487b7100000000000000000000000000000000000000000000000000000000600052602260045260246000fd5b7f4e487b7100000000000000000000000000000000000000000000000000000000600052604160045260246000fd5b6000601f19601f8301169050919050565b62000842816200071c565b81146200084e57600080fd5b50565b6156a880620008616000396000f3fe608060405234801561001057600080fd5b50600436106101d95760003560e01c80635d2db2bf11610104578063a22cb465116100a2578063e985e9c511610071578063e985e9c514610470578063e9866550146104a0578063f242432a146104aa578063f2fde38b146104c6576101d9565b8063a22cb46514610410578063bbb13e171461042c578063be59ec2614610436578063db0f53b014610454576101d9565b80637d17fcbe116100de5780637d17fcbe146103c057806382a3bf3d146103ca5780638da5cb5b146103e85780639ebf488b14610406576101d9565b80635d2db2bf146103a2578063715018a6146103ac57806375223f92146103b6576101d9565b806318e20a381161017c5780633c1d4a991161014b5780633c1d4a991461032e5780634e1273f41461034c5780634f3551d71461037c57806357f7789e14610386576101d9565b806318e20a38146102ce57806319b60439146102ec57806319bfbb9e146102f65780632eb2c2d614610312576101d9565b80631072b91f116101b85780631072b91f1461026e578063109695231461028a57806313dc2db2146102a6578063143cc144146102b0576101d9565b8062fdd58e146101de57806301ffc9a71461020e5780630e89341c1461023e575b600080fd5b6101f860048036038101906101f39190613afa565b6104e2565b60405161020591906147e1565b60405180910390f35b61022860048036038101906102239190613ba2565b6105ab565b604051610235919061442d565b60405180910390f35b61025860048036038101906102539190613c35565b61068d565b6040516102659190614478565b60405180910390f35b61028860048036038101906102839190613c35565b610732565b005b6102a4600480360381019061029f9190613bf4565b610769565b005b6102ae6107ff565b005b6102b861097e565b6040516102c591906147e1565b60405180910390f35b6102d6610a04565b6040516102e391906147e1565b60405180910390f35b6102f4610a0a565b005b610310600480360381019061030b91906139b4565b610ab2565b005b61032c600480360381019061032791906138f5565b610ac6565b005b610336610b67565b60405161034391906143b9565b60405180910390f35b61036660048036038101906103619190613b36565b610c2e565b60405161037391906143d4565b60405180910390f35b610384610ddf565b005b6103a0600480360381019061039b9190613c5e565b610ee8565b005b6103aa610ff2565b005b6103b46112f0565b005b6103be611378565b005b6103c8611425565b005b6103d26114ef565b6040516103df91906147e1565b60405180910390f35b6103f0611818565b6040516103fd91906142b3565b60405180910390f35b61040e611842565b005b61042a60048036038101906104259190613abe565b61194b565b005b610434611961565b005b61043e611a7a565b60405161044b919061442d565b60405180910390f35b61046e60048036038101906104699190613890565b611a8d565b005b61048a600480360381019061048591906138b9565b611bbc565b604051610497919061442d565b60405180910390f35b6104a8611c50565b005b6104c460048036038101906104bf9190613a2f565b611d27565b005b6104e060048036038101906104db9190613890565b611dc8565b005b60008073ffffffffffffffffffffffffffffffffffffffff168373ffffffffffffffffffffffffffffffffffffffff161415610553576040517f08c379a000000000000000000000000000000000000000000000000000000000815260040161054a90614561565b60405180910390fd5b60008083815260200190815260200160002060008473ffffffffffffffffffffffffffffffffffffffff1673ffffffffffffffffffffffffffffffffffffffff16815260200190815260200160002054905092915050565b60007fd9b67a26000000000000000000000000000000000000000000000000000000007bffffffffffffffffffffffffffffffffffffffffffffffffffffffff1916827bffffffffffffffffffffffffffffffffffffffffffffffffffffffff1916148061067657507f0e89341c000000000000000000000000000000000000000000000000000000007bffffffffffffffffffffffffffffffffffffffffffffffffffffffff1916827bffffffffffffffffffffffffffffffffffffffffffffffffffffffff1916145b80610686575061068582611f59565b5b9050919050565b60606023600083815260200190815260200160002080546106ad90614d16565b80601f01602080910402602001604051908101604052809291908181526020018280546106d990614d16565b80156107265780601f106106fb57610100808354040283529160200191610726565b820191906000526020600020905b81548152906001019060200180831161070957829003601f168201915b50505050509050919050565b600061073e6004611fc3565b905061075b33828460405180602001604052806000815250611fd1565b6107656004612167565b5050565b61077161217d565b73ffffffffffffffffffffffffffffffffffffffff1661078f611818565b73ffffffffffffffffffffffffffffffffffffffff16146107e5576040517f08c379a00000000000000000000000000000000000000000000000000000000081526004016107dc906146c1565b60405180910390fd5b80601990805190602001906107fb929190613566565b5050565b61080761217d565b73ffffffffffffffffffffffffffffffffffffffff16610825611818565b73ffffffffffffffffffffffffffffffffffffffff161461087b576040517f08c379a0000000000000000000000000000000000000000000000000000000008152600401610872906146c1565b60405180910390fd5b6000600190505b6005811161097b5760006108946114ef565b90506108f86040518060400160405280600c81526020017f4e657720696e64657820697300000000000000000000000000000000000000008152506001600a856108de9190614bc5565b6108e89190614c1f565b836108f39190614dc2565b612185565b6001600a836109079190614bc5565b6109119190614c1f565b8161091c9190614dc2565b601a60018461092b9190614c1f565b60058110610962577f4e487b7100000000000000000000000000000000000000000000000000000000600052603260045260246000fd5b018190555050808061097390614d79565b915050610882565b50565b600061098861217d565b73ffffffffffffffffffffffffffffffffffffffff166109a6611818565b73ffffffffffffffffffffffffffffffffffffffff16146109fc576040517f08c379a00000000000000000000000000000000000000000000000000000000081526004016109f3906146c1565b60405180910390fd5b600654905090565b600f5481565b610a1261217d565b73ffffffffffffffffffffffffffffffffffffffff16610a30611818565b73ffffffffffffffffffffffffffffffffffffffff1614610a86576040517f08c379a0000000000000000000000000000000000000000000000000000000008152600401610a7d906146c1565b60405180910390fd5b601060009054906101000a900460ff1615601060006101000a81548160ff021916908315150217905550565b610ac0848460008585611d27565b50505050565b610ace61217d565b73ffffffffffffffffffffffffffffffffffffffff168573ffffffffffffffffffffffffffffffffffffffff161480610b145750610b1385610b0e61217d565b611bbc565b5b610b53576040517f08c379a0000000000000000000000000000000000000000000000000000000008152600401610b4a90614641565b60405180910390fd5b610b608585858585612221565b5050505050565b610b6f6135ec565b610b7761217d565b73ffffffffffffffffffffffffffffffffffffffff16610b95611818565b73ffffffffffffffffffffffffffffffffffffffff1614610beb576040517f08c379a0000000000000000000000000000000000000000000000000000000008152600401610be2906146c1565b60405180910390fd5b601a600580602002604051908101604052809291908260058015610c24576020028201915b815481526020019060010190808311610c10575b5050505050905090565b60608151835114610c74576040517f08c379a0000000000000000000000000000000000000000000000000000000008152600401610c6b90614781565b60405180910390fd5b6000835167ffffffffffffffff811115610cb7577f4e487b7100000000000000000000000000000000000000000000000000000000600052604160045260246000fd5b604051908082528060200260200182016040528015610ce55781602001602082028036833780820191505090505b50905060005b8451811015610dd457610d7e858281518110610d30577f4e487b7100000000000000000000000000000000000000000000000000000000600052603260045260246000fd5b6020026020010151858381518110610d71577f4e487b7100000000000000000000000000000000000000000000000000000000600052603260045260246000fd5b60200260200101516104e2565b828281518110610db7577f4e487b7100000000000000000000000000000000000000000000000000000000600052603260045260246000fd5b60200260200101818152505080610dcd90614d79565b9050610ceb565b508091505092915050565b600b5460145410610e25576040517f08c379a0000000000000000000000000000000000000000000000000000000008152600401610e1c90614701565b60405180910390fd5b6001610e33336011546104e2565b10610e73576040517f08c379a0000000000000000000000000000000000000000000000000000000008152600401610e6a90614741565b60405180910390fd5b610e9133601254600160405180602001604052806000815250611fd1565b600160146000828254610ea491906149cd565b925050819055507f2e0f4d63dcc00e6a11c8aef9f6e15c1f9cd6e9a090b2dd99c7b797f1a28d300d33601454604051610ede929190614390565b60405180910390a1565b610ef061217d565b73ffffffffffffffffffffffffffffffffffffffff16610f0e611818565b73ffffffffffffffffffffffffffffffffffffffff1614610f64576040517f08c379a0000000000000000000000000000000000000000000000000000000008152600401610f5b906146c1565b60405180910390fd5b6000602360008481526020019081526020016000208054610f8490614d16565b905014610fc6576040517f08c379a0000000000000000000000000000000000000000000000000000000008152600401610fbd90614661565b60405180910390fd5b80602360008481526020019081526020016000209080519060200190610fed929190613566565b505050565b610ffa61217d565b73ffffffffffffffffffffffffffffffffffffffff16611018611818565b73ffffffffffffffffffffffffffffffffffffffff161461106e576040517f08c379a0000000000000000000000000000000000000000000000000000000008152600401611065906146c1565b60405180910390fd5b60005b60055481101561127d576110bc6040518060400160405280601281526020017f5374617274696e6720696e646578206973200000000000000000000000000000815250601854612185565b6110fd6040518060400160405280600c81526020017f6e756d206174686c657465730000000000000000000000000000000000000000815250600554612185565b60006005548260185461111091906149cd565b61111a9190614dc2565b905061115b6040518060400160405280600b81526020017f6d696e7420696e6465782000000000000000000000000000000000000000000081525082612185565b61118f81600c61116a84612581565b60405160200161117b929190614284565b604051602081830303815290604052610ee8565b6112696040518060400160405280600881526020017f4e657720555249200000000000000000000000000000000000000000000000008152506023600084815260200190815260200160002080546111e690614d16565b80601f016020809104026020016040519081016040528092919081815260200182805461121290614d16565b801561125f5780601f106112345761010080835404028352916020019161125f565b820191906000526020600020905b81548152906001019060200180831161124257829003601f168201915b505050505061272e565b50808061127590614d79565b915050611071565b506112b6600160055461129091906149cd565b600d6040516020016112a2919061426d565b604051602081830303815290604052610ee8565b6112ee60026005546112c891906149cd565b600e6040516020016112da919061426d565b604051602081830303815290604052610ee8565b565b6112f861217d565b73ffffffffffffffffffffffffffffffffffffffff16611316611818565b73ffffffffffffffffffffffffffffffffffffffff161461136c576040517f08c379a0000000000000000000000000000000000000000000000000000000008152600401611363906146c1565b60405180910390fd5b61137660006127ca565b565b601060009054906101000a900460ff166113c7576040517f08c379a00000000000000000000000000000000000000000000000000000000081526004016113be90614721565b60405180910390fd5b60006113d5336012546104e2565b11611415576040517f08c379a000000000000000000000000000000000000000000000000000000000815260040161140c90614541565b60405180910390fd5b611423336012546001612890565b565b61142d61217d565b73ffffffffffffffffffffffffffffffffffffffff1661144b611818565b73ffffffffffffffffffffffffffffffffffffffff16146114a1576040517f08c379a0000000000000000000000000000000000000000000000000000000008152600401611498906146c1565b60405180910390fd5b6000601854146114e6576040517f08c379a00000000000000000000000000000000000000000000000000000000081526004016114dd90614601565b60405180910390fd5b43601781905550565b60006114f961217d565b73ffffffffffffffffffffffffffffffffffffffff16611517611818565b73ffffffffffffffffffffffffffffffffffffffff161461156d576040517f08c379a0000000000000000000000000000000000000000000000000000000008152600401611564906146c1565b60405180910390fd5b6000601a6000600581106115aa577f4e487b7100000000000000000000000000000000000000000000000000000000600052603260045260246000fd5b01541480156115f557506000601a6001600581106115f1577f4e487b7100000000000000000000000000000000000000000000000000000000600052603260045260246000fd5b0154145b801561163d57506000601a600260058110611639577f4e487b7100000000000000000000000000000000000000000000000000000000600052603260045260246000fd5b0154145b801561168557506000601a600360058110611681577f4e487b7100000000000000000000000000000000000000000000000000000000600052603260045260246000fd5b0154145b80156116cd57506000601a6004600581106116c9577f4e487b7100000000000000000000000000000000000000000000000000000000600052603260045260246000fd5b0154145b156116dc576018549050611815565b600080600090505b600581101561180f576002601a8260058110611729577f4e487b7100000000000000000000000000000000000000000000000000000000600052603260045260246000fd5b01546117359190614aa7565b8261174091906149cd565b91506000821415611755576117536114ef565b505b600160056117639190614c1f565b811480156117ad57506000601a82600581106117a8577f4e487b7100000000000000000000000000000000000000000000000000000000600052603260045260246000fd5b015414155b156117fc57601a81600581106117ec577f4e487b7100000000000000000000000000000000000000000000000000000000600052603260045260246000fd5b0154826117f99190614a23565b91505b808061180790614d79565b9150506116e4565b50809150505b90565b6000600360009054906101000a900473ffffffffffffffffffffffffffffffffffffffff16905090565b600b5460135410611888576040517f08c379a000000000000000000000000000000000000000000000000000000000815260040161187f90614701565b60405180910390fd5b6001611896336011546104e2565b106118d6576040517f08c379a00000000000000000000000000000000000000000000000000000000081526004016118cd90614741565b60405180910390fd5b6118f433601154600160405180602001604052806000815250611fd1565b60016013600082825461190791906149cd565b925050819055507f2e0f4d63dcc00e6a11c8aef9f6e15c1f9cd6e9a090b2dd99c7b797f1a28d300d33601354604051611941929190614390565b60405180910390a1565b61195d61195661217d565b8383612aad565b5050565b601060009054906101000a900460ff166119b0576040517f08c379a00000000000000000000000000000000000000000000000000000000081526004016119a790614721565b60405180910390fd5b60016119be336011546104e2565b146119fe576040517f08c379a00000000000000000000000000000000000000000000000000000000081526004016119f5906146e1565b60405180910390fd5b611a066107ff565b60005b6005811015611a6957611a56601a8260058110611a4f577f4e487b7100000000000000000000000000000000000000000000000000000000600052603260045260246000fd5b0154612c1a565b8080611a6190614d79565b915050611a09565b50611a78336011546001612890565b565b601060009054906101000a900460ff1681565b6000808273ffffffffffffffffffffffffffffffffffffffff166040516024016040516020818303038152906040527f892e5b4e000000000000000000000000000000000000000000000000000000007bffffffffffffffffffffffffffffffffffffffffffffffffffffffff19166020820180517bffffffffffffffffffffffffffffffffffffffffffffffffffffffff8381831617835250505050604051611b379190614256565b6000604051808303816000865af19150503d8060008114611b74576040519150601f19603f3d011682016040523d82523d6000602084013e611b79565b606091505b50915091507f13848c3e38f8886f3f5d2ad9dff80d8092c2bbb8efd5b887a99c2c6cfc09ac2a8282604051611baf929190614448565b60405180910390a1505050565b6000600160008473ffffffffffffffffffffffffffffffffffffffff1673ffffffffffffffffffffffffffffffffffffffff16815260200190815260200160002060008373ffffffffffffffffffffffffffffffffffffffff1673ffffffffffffffffffffffffffffffffffffffff16815260200190815260200160002060009054906101000a900460ff16905092915050565b611c5861217d565b73ffffffffffffffffffffffffffffffffffffffff16611c76611818565b73ffffffffffffffffffffffffffffffffffffffff1614611ccc576040517f08c379a0000000000000000000000000000000000000000000000000000000008152600401611cc3906146c1565b60405180910390fd5b600654600554611cdc9190614bc5565b600143611ce99190614c1f565b4060001c611cf79190614dc2565b60188190555060006018541415611d2557611d1e6001601854612df690919063ffffffff16565b6018819055505b565b611d2f61217d565b73ffffffffffffffffffffffffffffffffffffffff168573ffffffffffffffffffffffffffffffffffffffff161480611d755750611d7485611d6f61217d565b611bbc565b5b611db4576040517f08c379a0000000000000000000000000000000000000000000000000000000008152600401611dab906145c1565b60405180910390fd5b611dc18585858585612e0c565b5050505050565b611dd061217d565b73ffffffffffffffffffffffffffffffffffffffff16611dee611818565b73ffffffffffffffffffffffffffffffffffffffff1614611e44576040517f08c379a0000000000000000000000000000000000000000000000000000000008152600401611e3b906146c1565b60405180910390fd5b600073ffffffffffffffffffffffffffffffffffffffff168173ffffffffffffffffffffffffffffffffffffffff161415611eb4576040517f08c379a0000000000000000000000000000000000000000000000000000000008152600401611eab90614581565b60405180910390fd5b611ebd816127ca565b50565b611f5681604051602401611ed49190614478565b6040516020818303038152906040527f41304fac000000000000000000000000000000000000000000000000000000007bffffffffffffffffffffffffffffffffffffffffffffffffffffffff19166020820180517bffffffffffffffffffffffffffffffffffffffffffffffffffffffff838183161783525050505061308e565b50565b60007f01ffc9a7000000000000000000000000000000000000000000000000000000007bffffffffffffffffffffffffffffffffffffffffffffffffffffffff1916827bffffffffffffffffffffffffffffffffffffffffffffffffffffffff1916149050919050565b600081600001549050919050565b600073ffffffffffffffffffffffffffffffffffffffff168473ffffffffffffffffffffffffffffffffffffffff161415612041576040517f08c379a0000000000000000000000000000000000000000000000000000000008152600401612038906147c1565b60405180910390fd5b600061204b61217d565b905061206c8160008761205d886130b7565b612066886130b7565b8761317d565b8260008086815260200190815260200160002060008773ffffffffffffffffffffffffffffffffffffffff1673ffffffffffffffffffffffffffffffffffffffff16815260200190815260200160002060008282546120cb91906149cd565b925050819055508473ffffffffffffffffffffffffffffffffffffffff16600073ffffffffffffffffffffffffffffffffffffffff168273ffffffffffffffffffffffffffffffffffffffff167fc3d58168c5ae7397731d063d5bbf3d657854427343f4c083240f7aacaa2d0f6287876040516121499291906147fc565b60405180910390a461216081600087878787613185565b5050505050565b6001816000016000828254019250508190555050565b600033905090565b61221d828260405160240161219b9291906144d1565b6040516020818303038152906040527f9710a9d0000000000000000000000000000000000000000000000000000000007bffffffffffffffffffffffffffffffffffffffffffffffffffffffff19166020820180517bffffffffffffffffffffffffffffffffffffffffffffffffffffffff838183161783525050505061308e565b5050565b8151835114612265576040517f08c379a000000000000000000000000000000000000000000000000000000000815260040161225c906147a1565b60405180910390fd5b600073ffffffffffffffffffffffffffffffffffffffff168473ffffffffffffffffffffffffffffffffffffffff1614156122d5576040517f08c379a00000000000000000000000000000000000000000000000000000000081526004016122cc90614621565b60405180910390fd5b60006122df61217d565b90506122ef81878787878761317d565b60005b84518110156124ec576000858281518110612336577f4e487b7100000000000000000000000000000000000000000000000000000000600052603260045260246000fd5b60200260200101519050600085838151811061237b577f4e487b7100000000000000000000000000000000000000000000000000000000600052603260045260246000fd5b60200260200101519050600080600084815260200190815260200160002060008b73ffffffffffffffffffffffffffffffffffffffff1673ffffffffffffffffffffffffffffffffffffffff1681526020019081526020016000205490508181101561241c576040517f08c379a0000000000000000000000000000000000000000000000000000000008152600401612413906146a1565b60405180910390fd5b81810360008085815260200190815260200160002060008c73ffffffffffffffffffffffffffffffffffffffff1673ffffffffffffffffffffffffffffffffffffffff168152602001908152602001600020819055508160008085815260200190815260200160002060008b73ffffffffffffffffffffffffffffffffffffffff1673ffffffffffffffffffffffffffffffffffffffff16815260200190815260200160002060008282546124d191906149cd565b92505081905550505050806124e590614d79565b90506122f2565b508473ffffffffffffffffffffffffffffffffffffffff168673ffffffffffffffffffffffffffffffffffffffff168273ffffffffffffffffffffffffffffffffffffffff167f4a39dc06d4c0dbc64b70af90fd698a233a518aa5d07e595d983b8c0526c8f7fb87876040516125639291906143f6565b60405180910390a461257981878787878761336c565b505050505050565b606060008214156125c9576040518060400160405280600181526020017f30000000000000000000000000000000000000000000000000000000000000008152509050612729565b600082905060005b600082146125fb5780806125e490614d79565b915050600a826125f49190614a23565b91506125d1565b60008167ffffffffffffffff81111561263d577f4e487b7100000000000000000000000000000000000000000000000000000000600052604160045260246000fd5b6040519080825280601f01601f19166020018201604052801561266f5781602001600182028036833780820191505090505b5090505b60008514612722576001826126889190614c1f565b9150600a856126979190614dc2565b60306126a391906149cd565b60f81b8183815181106126df577f4e487b7100000000000000000000000000000000000000000000000000000000600052603260045260246000fd5b60200101907effffffffffffffffffffffffffffffffffffffffffffffffffffffffffffff1916908160001a905350600a8561271b9190614a23565b9450612673565b8093505050505b919050565b6127c6828260405160240161274492919061449a565b6040516020818303038152906040527f4b5c4277000000000000000000000000000000000000000000000000000000007bffffffffffffffffffffffffffffffffffffffffffffffffffffffff19166020820180517bffffffffffffffffffffffffffffffffffffffffffffffffffffffff838183161783525050505061308e565b5050565b6000600360009054906101000a900473ffffffffffffffffffffffffffffffffffffffff16905081600360006101000a81548173ffffffffffffffffffffffffffffffffffffffff021916908373ffffffffffffffffffffffffffffffffffffffff1602179055508173ffffffffffffffffffffffffffffffffffffffff168173ffffffffffffffffffffffffffffffffffffffff167f8be0079c531659141344cd1fd0a4f28419497f9722a3daafe3b4186f6b6457e060405160405180910390a35050565b600073ffffffffffffffffffffffffffffffffffffffff168373ffffffffffffffffffffffffffffffffffffffff161415612900576040517f08c379a00000000000000000000000000000000000000000000000000000000081526004016128f790614681565b60405180910390fd5b600061290a61217d565b905061293a8185600061291c876130b7565b612925876130b7565b6040518060200160405280600081525061317d565b600080600085815260200190815260200160002060008673ffffffffffffffffffffffffffffffffffffffff1673ffffffffffffffffffffffffffffffffffffffff168152602001908152602001600020549050828110156129d1576040517f08c379a00000000000000000000000000000000000000000000000000000000081526004016129c8906145a1565b60405180910390fd5b82810360008086815260200190815260200160002060008773ffffffffffffffffffffffffffffffffffffffff1673ffffffffffffffffffffffffffffffffffffffff16815260200190815260200160002081905550600073ffffffffffffffffffffffffffffffffffffffff168573ffffffffffffffffffffffffffffffffffffffff168373ffffffffffffffffffffffffffffffffffffffff167fc3d58168c5ae7397731d063d5bbf3d657854427343f4c083240f7aacaa2d0f628787604051612a9e9291906147fc565b60405180910390a45050505050565b8173ffffffffffffffffffffffffffffffffffffffff168373ffffffffffffffffffffffffffffffffffffffff161415612b1c576040517f08c379a0000000000000000000000000000000000000000000000000000000008152600401612b1390614761565b60405180910390fd5b80600160008573ffffffffffffffffffffffffffffffffffffffff1673ffffffffffffffffffffffffffffffffffffffff16815260200190815260200160002060008473ffffffffffffffffffffffffffffffffffffffff1673ffffffffffffffffffffffffffffffffffffffff16815260200190815260200160002060006101000a81548160ff0219169083151502179055508173ffffffffffffffffffffffffffffffffffffffff168373ffffffffffffffffffffffffffffffffffffffff167f17307eab39ab6107e8899845ad3d59bd9653f200f220920489ca2b5937696c3183604051612c0d919061442d565b60405180910390a3505050565b6000600554601554601854612c2f91906149cd565b612c399190614dc2565b9050612c7c6040518060400160405280600e81526020017f5374617274696e6720696e646578000000000000000000000000000000000000815250601854612185565b612cbb6040518060400160405280600e81526020017f4f6c64206d696e7420696e64657800000000000000000000000000000000000081525082612185565b612cfa6040518060400160405280600e81526020017f4e6577206d696e7420696e64657800000000000000000000000000000000000081525083612185565b600654600554612d0a9190614bc5565b6015541015612df257600654602460008481526020019081526020016000205410612d6a576040517f08c379a0000000000000000000000000000000000000000000000000000000008152600401612d61906145e1565b60405180910390fd5b612dac338360016040518060400160405280600481526020017f3078303000000000000000000000000000000000000000000000000000000000815250611fd1565b6001602460008481526020019081526020016000206000828254612dd091906149cd565b92505081905550600160156000828254612dea91906149cd565b925050819055505b5050565b60008183612e0491906149cd565b905092915050565b600073ffffffffffffffffffffffffffffffffffffffff168473ffffffffffffffffffffffffffffffffffffffff161415612e7c576040517f08c379a0000000000000000000000000000000000000000000000000000000008152600401612e7390614621565b60405180910390fd5b6000612e8661217d565b9050612ea6818787612e97886130b7565b612ea0886130b7565b8761317d565b600080600086815260200190815260200160002060008873ffffffffffffffffffffffffffffffffffffffff1673ffffffffffffffffffffffffffffffffffffffff16815260200190815260200160002054905083811015612f3d576040517f08c379a0000000000000000000000000000000000000000000000000000000008152600401612f34906146a1565b60405180910390fd5b83810360008087815260200190815260200160002060008973ffffffffffffffffffffffffffffffffffffffff1673ffffffffffffffffffffffffffffffffffffffff168152602001908152602001600020819055508360008087815260200190815260200160002060008873ffffffffffffffffffffffffffffffffffffffff1673ffffffffffffffffffffffffffffffffffffffff1681526020019081526020016000206000828254612ff291906149cd565b925050819055508573ffffffffffffffffffffffffffffffffffffffff168773ffffffffffffffffffffffffffffffffffffffff168373ffffffffffffffffffffffffffffffffffffffff167fc3d58168c5ae7397731d063d5bbf3d657854427343f4c083240f7aacaa2d0f62888860405161306f9291906147fc565b60405180910390a4613085828888888888613185565b50505050505050565b60008151905060006a636f6e736f6c652e6c6f679050602083016000808483855afa5050505050565b60606000600167ffffffffffffffff8111156130fc577f4e487b7100000000000000000000000000000000000000000000000000000000600052604160045260246000fd5b60405190808252806020026020018201604052801561312a5781602001602082028036833780820191505090505b5090508281600081518110613168577f4e487b7100000000000000000000000000000000000000000000000000000000600052603260045260246000fd5b60200260200101818152505080915050919050565b505050505050565b6131a48473ffffffffffffffffffffffffffffffffffffffff16613553565b15613364578373ffffffffffffffffffffffffffffffffffffffff1663f23a6e6187878686866040518663ffffffff1660e01b81526004016131ea959493929190614336565b602060405180830381600087803b15801561320457600080fd5b505af192505050801561323557506040513d601f19601f820116820180604052508101906132329190613bcb565b60015b6132db57613241614eaf565b806308c379a0141561329e5750613256615580565b8061326157506132a0565b806040517f08c379a00000000000000000000000000000000000000000000000000000000081526004016132959190614478565b60405180910390fd5b505b6040517f08c379a00000000000000000000000000000000000000000000000000000000081526004016132d290614501565b60405180910390fd5b63f23a6e6160e01b7bffffffffffffffffffffffffffffffffffffffffffffffffffffffff1916817bffffffffffffffffffffffffffffffffffffffffffffffffffffffff191614613362576040517f08c379a000000000000000000000000000000000000000000000000000000000815260040161335990614521565b60405180910390fd5b505b505050505050565b61338b8473ffffffffffffffffffffffffffffffffffffffff16613553565b1561354b578373ffffffffffffffffffffffffffffffffffffffff1663bc197c8187878686866040518663ffffffff1660e01b81526004016133d19594939291906142ce565b602060405180830381600087803b1580156133eb57600080fd5b505af192505050801561341c57506040513d601f19601f820116820180604052508101906134199190613bcb565b60015b6134c257613428614eaf565b806308c379a01415613485575061343d615580565b806134485750613487565b806040517f08c379a000000000000000000000000000000000000000000000000000000000815260040161347c9190614478565b60405180910390fd5b505b6040517f08c379a00000000000000000000000000000000000000000000000000000000081526004016134b990614501565b60405180910390fd5b63bc197c8160e01b7bffffffffffffffffffffffffffffffffffffffffffffffffffffffff1916817bffffffffffffffffffffffffffffffffffffffffffffffffffffffff191614613549576040517f08c379a000000000000000000000000000000000000000000000000000000000815260040161354090614521565b60405180910390fd5b505b505050505050565b600080823b905060008111915050919050565b82805461357290614d16565b90600052602060002090601f01602090048101928261359457600085556135db565b82601f106135ad57805160ff19168380011785556135db565b828001600101855582156135db579182015b828111156135da5782518255916020019190600101906135bf565b5b5090506135e8919061360e565b5090565b6040518060a00160405280600590602082028036833780820191505090505090565b5b8082111561362757600081600090555060010161360f565b5090565b600061363e6136398461484a565b614825565b9050808382526020820190508285602086028201111561365d57600080fd5b60005b8581101561368d5781613673888261377f565b845260208401935060208301925050600181019050613660565b5050509392505050565b60006136aa6136a584614876565b614825565b905080838252602082019050828560208602820111156136c957600080fd5b60005b858110156136f957816136df888261387b565b8452602084019350602083019250506001810190506136cc565b5050509392505050565b6000613716613711846148a2565b614825565b90508281526020810184848401111561372e57600080fd5b613739848285614cd4565b509392505050565b600061375461374f846148d3565b614825565b90508281526020810184848401111561376c57600080fd5b613777848285614cd4565b509392505050565b60008135905061378e81615616565b92915050565b600082601f8301126137a557600080fd5b81356137b584826020860161362b565b91505092915050565b600082601f8301126137cf57600080fd5b81356137df848260208601613697565b91505092915050565b6000813590506137f78161562d565b92915050565b60008135905061380c81615644565b92915050565b60008151905061382181615644565b92915050565b600082601f83011261383857600080fd5b8135613848848260208601613703565b91505092915050565b600082601f83011261386257600080fd5b8135613872848260208601613741565b91505092915050565b60008135905061388a8161565b565b92915050565b6000602082840312156138a257600080fd5b60006138b08482850161377f565b91505092915050565b600080604083850312156138cc57600080fd5b60006138da8582860161377f565b92505060206138eb8582860161377f565b9150509250929050565b600080600080600060a0868803121561390d57600080fd5b600061391b8882890161377f565b955050602061392c8882890161377f565b945050604086013567ffffffffffffffff81111561394957600080fd5b613955888289016137be565b935050606086013567ffffffffffffffff81111561397257600080fd5b61397e888289016137be565b925050608086013567ffffffffffffffff81111561399b57600080fd5b6139a788828901613827565b9150509295509295909350565b600080600080608085870312156139ca57600080fd5b60006139d88782880161377f565b94505060206139e98782880161377f565b93505060406139fa8782880161387b565b925050606085013567ffffffffffffffff811115613a1757600080fd5b613a2387828801613827565b91505092959194509250565b600080600080600060a08688031215613a4757600080fd5b6000613a558882890161377f565b9550506020613a668882890161377f565b9450506040613a778882890161387b565b9350506060613a888882890161387b565b925050608086013567ffffffffffffffff811115613aa557600080fd5b613ab188828901613827565b9150509295509295909350565b60008060408385031215613ad157600080fd5b6000613adf8582860161377f565b9250506020613af0858286016137e8565b9150509250929050565b60008060408385031215613b0d57600080fd5b6000613b1b8582860161377f565b9250506020613b2c8582860161387b565b9150509250929050565b60008060408385031215613b4957600080fd5b600083013567ffffffffffffffff811115613b6357600080fd5b613b6f85828601613794565b925050602083013567ffffffffffffffff811115613b8c57600080fd5b613b98858286016137be565b9150509250929050565b600060208284031215613bb457600080fd5b6000613bc2848285016137fd565b91505092915050565b600060208284031215613bdd57600080fd5b6000613beb84828501613812565b91505092915050565b600060208284031215613c0657600080fd5b600082013567ffffffffffffffff811115613c2057600080fd5b613c2c84828501613851565b91505092915050565b600060208284031215613c4757600080fd5b6000613c558482850161387b565b91505092915050565b60008060408385031215613c7157600080fd5b6000613c7f8582860161387b565b925050602083013567ffffffffffffffff811115613c9c57600080fd5b613ca885828601613851565b9150509250929050565b6000613cbe8383614238565b60208301905092915050565b613cd381614c53565b82525050565b613ce281614933565b613cec8184614979565b9250613cf782614904565b8060005b83811015613d28578151613d0f8782613cb2565b9650613d1a8361495f565b925050600181019050613cfb565b505050505050565b6000613d3b8261493e565b613d458185614984565b9350613d508361490e565b8060005b83811015613d81578151613d688882613cb2565b9750613d738361496c565b925050600181019050613d54565b5085935050505092915050565b613d9781614c65565b82525050565b6000613da882614949565b613db28185614995565b9350613dc2818560208601614ce3565b613dcb81614ed1565b840191505092915050565b6000613de182614949565b613deb81856149a6565b9350613dfb818560208601614ce3565b80840191505092915050565b6000613e1282614954565b613e1c81856149b1565b9350613e2c818560208601614ce3565b613e3581614ed1565b840191505092915050565b6000613e4b82614954565b613e5581856149c2565b9350613e65818560208601614ce3565b80840191505092915050565b60008154613e7e81614d16565b613e8881866149c2565b94506001821660008114613ea35760018114613eb457613ee7565b60ff19831686528186019350613ee7565b613ebd8561491e565b60005b83811015613edf57815481890152600182019150602081019050613ec0565b838801955050505b50505092915050565b6000613efd6034836149b1565b9150613f0882614efc565b604082019050919050565b6000613f206028836149b1565b9150613f2b82614f4b565b604082019050919050565b6000613f43601b836149b1565b9150613f4e82614f9a565b602082019050919050565b6000613f66602b836149b1565b9150613f7182614fc3565b604082019050919050565b6000613f896026836149b1565b9150613f9482615012565b604082019050919050565b6000613fac6024836149b1565b9150613fb782615061565b604082019050919050565b6000613fcf6029836149b1565b9150613fda826150b0565b604082019050919050565b6000613ff2602d836149b1565b9150613ffd826150ff565b604082019050919050565b6000614015601d836149b1565b91506140208261514e565b602082019050919050565b60006140386025836149b1565b915061404382615177565b604082019050919050565b600061405b6032836149b1565b9150614066826151c6565b604082019050919050565b600061407e6014836149b1565b915061408982615215565b602082019050919050565b60006140a16023836149b1565b91506140ac8261523e565b604082019050919050565b60006140c4602a836149b1565b91506140cf8261528d565b604082019050919050565b60006140e76005836149c2565b91506140f2826152dc565b600582019050919050565b600061410a6020836149b1565b915061411582615305565b602082019050919050565b600061412d602f836149b1565b91506141388261532e565b604082019050919050565b60006141506023836149b1565b915061415b8261537d565b604082019050919050565b6000614173601f836149b1565b915061417e826153cc565b602082019050919050565b6000614196602a836149b1565b91506141a1826153f5565b604082019050919050565b60006141b96029836149b1565b91506141c482615444565b604082019050919050565b60006141dc6029836149b1565b91506141e782615493565b604082019050919050565b60006141ff6028836149b1565b915061420a826154e2565b604082019050919050565b60006142226021836149b1565b915061422d82615531565b604082019050919050565b61424181614cbd565b82525050565b61425081614cbd565b82525050565b60006142628284613dd6565b915081905092915050565b60006142798284613e71565b915081905092915050565b60006142908285613e71565b915061429c8284613e40565b91506142a7826140da565b91508190509392505050565b60006020820190506142c86000830184613cca565b92915050565b600060a0820190506142e36000830188613cca565b6142f06020830187613cca565b81810360408301526143028186613d30565b905081810360608301526143168185613d30565b9050818103608083015261432a8184613d9d565b90509695505050505050565b600060a08201905061434b6000830188613cca565b6143586020830187613cca565b6143656040830186614247565b6143726060830185614247565b81810360808301526143848184613d9d565b90509695505050505050565b60006040820190506143a56000830185613cca565b6143b26020830184614247565b9392505050565b600060a0820190506143ce6000830184613cd9565b92915050565b600060208201905081810360008301526143ee8184613d30565b905092915050565b600060408201905081810360008301526144108185613d30565b905081810360208301526144248184613d30565b90509392505050565b60006020820190506144426000830184613d8e565b92915050565b600060408201905061445d6000830185613d8e565b818103602083015261446f8184613d9d565b90509392505050565b600060208201905081810360008301526144928184613e07565b905092915050565b600060408201905081810360008301526144b48185613e07565b905081810360208301526144c88184613e07565b90509392505050565b600060408201905081810360008301526144eb8185613e07565b90506144fa6020830184614247565b9392505050565b6000602082019050818103600083015261451a81613ef0565b9050919050565b6000602082019050818103600083015261453a81613f13565b9050919050565b6000602082019050818103600083015261455a81613f36565b9050919050565b6000602082019050818103600083015261457a81613f59565b9050919050565b6000602082019050818103600083015261459a81613f7c565b9050919050565b600060208201905081810360008301526145ba81613f9f565b9050919050565b600060208201905081810360008301526145da81613fc2565b9050919050565b600060208201905081810360008301526145fa81613fe5565b9050919050565b6000602082019050818103600083015261461a81614008565b9050919050565b6000602082019050818103600083015261463a8161402b565b9050919050565b6000602082019050818103600083015261465a8161404e565b9050919050565b6000602082019050818103600083015261467a81614071565b9050919050565b6000602082019050818103600083015261469a81614094565b9050919050565b600060208201905081810360008301526146ba816140b7565b9050919050565b600060208201905081810360008301526146da816140fd565b9050919050565b600060208201905081810360008301526146fa81614120565b9050919050565b6000602082019050818103600083015261471a81614143565b9050919050565b6000602082019050818103600083015261473a81614166565b9050919050565b6000602082019050818103600083015261475a81614189565b9050919050565b6000602082019050818103600083015261477a816141ac565b9050919050565b6000602082019050818103600083015261479a816141cf565b9050919050565b600060208201905081810360008301526147ba816141f2565b9050919050565b600060208201905081810360008301526147da81614215565b9050919050565b60006020820190506147f66000830184614247565b92915050565b60006040820190506148116000830185614247565b61481e6020830184614247565b9392505050565b600061482f614840565b905061483b8282614d48565b919050565b6000604051905090565b600067ffffffffffffffff82111561486557614864614e80565b5b602082029050602081019050919050565b600067ffffffffffffffff82111561489157614890614e80565b5b602082029050602081019050919050565b600067ffffffffffffffff8211156148bd576148bc614e80565b5b6148c682614ed1565b9050602081019050919050565b600067ffffffffffffffff8211156148ee576148ed614e80565b5b6148f782614ed1565b9050602081019050919050565b6000819050919050565b6000819050602082019050919050565b60008190508160005260206000209050919050565b600060059050919050565b600081519050919050565b600081519050919050565b600081519050919050565b6000602082019050919050565b6000602082019050919050565b600081905092915050565b600082825260208201905092915050565b600082825260208201905092915050565b600081905092915050565b600082825260208201905092915050565b600081905092915050565b60006149d882614cbd565b91506149e383614cbd565b9250827fffffffffffffffffffffffffffffffffffffffffffffffffffffffffffffffff03821115614a1857614a17614df3565b5b828201905092915050565b6000614a2e82614cbd565b9150614a3983614cbd565b925082614a4957614a48614e22565b5b828204905092915050565b6000808291508390505b6001851115614a9e57808604811115614a7a57614a79614df3565b5b6001851615614a895780820291505b8081029050614a9785614ee2565b9450614a5e565b94509492505050565b6000614ab282614cbd565b9150614abd83614cc7565b9250614aea7fffffffffffffffffffffffffffffffffffffffffffffffffffffffffffffffff8484614af2565b905092915050565b600082614b025760019050614bbe565b81614b105760009050614bbe565b8160018114614b265760028114614b3057614b5f565b6001915050614bbe565b60ff841115614b4257614b41614df3565b5b8360020a915084821115614b5957614b58614df3565b5b50614bbe565b5060208310610133831016604e8410600b8410161715614b945782820a905083811115614b8f57614b8e614df3565b5b614bbe565b614ba18484846001614a54565b92509050818404811115614bb857614bb7614df3565b5b81810290505b9392505050565b6000614bd082614cbd565b9150614bdb83614cbd565b9250817fffffffffffffffffffffffffffffffffffffffffffffffffffffffffffffffff0483118215151615614c1457614c13614df3565b5b828202905092915050565b6000614c2a82614cbd565b9150614c3583614cbd565b925082821015614c4857614c47614df3565b5b828203905092915050565b6000614c5e82614c9d565b9050919050565b60008115159050919050565b60007fffffffff0000000000000000000000000000000000000000000000000000000082169050919050565b600073ffffffffffffffffffffffffffffffffffffffff82169050919050565b6000819050919050565b600060ff82169050919050565b82818337600083830152505050565b60005b83811015614d01578082015181840152602081019050614ce6565b83811115614d10576000848401525b50505050565b60006002820490506001821680614d2e57607f821691505b60208210811415614d4257614d41614e51565b5b50919050565b614d5182614ed1565b810181811067ffffffffffffffff82111715614d7057614d6f614e80565b5b80604052505050565b6000614d8482614cbd565b91507fffffffffffffffffffffffffffffffffffffffffffffffffffffffffffffffff821415614db757614db6614df3565b5b600182019050919050565b6000614dcd82614cbd565b9150614dd883614cbd565b925082614de857614de7614e22565b5b828206905092915050565b7f4e487b7100000000000000000000000000000000000000000000000000000000600052601160045260246000fd5b7f4e487b7100000000000000000000000000000000000000000000000000000000600052601260045260246000fd5b7f4e487b7100000000000000000000000000000000000000000000000000000000600052602260045260246000fd5b7f4e487b7100000000000000000000000000000000000000000000000000000000600052604160045260246000fd5b600060033d1115614ece5760046000803e614ecb600051614eef565b90505b90565b6000601f19601f8301169050919050565b60008160011c9050919050565b60008160e01c9050919050565b7f455243313135353a207472616e7366657220746f206e6f6e204552433131353560008201527f526563656976657220696d706c656d656e746572000000000000000000000000602082015250565b7f455243313135353a204552433131353552656365697665722072656a6563746560008201527f6420746f6b656e73000000000000000000000000000000000000000000000000602082015250565b7f4e6f2072656d61696e696e6720626f6f73746572207061636b73210000000000600082015250565b7f455243313135353a2062616c616e636520717565727920666f7220746865207a60008201527f65726f2061646472657373000000000000000000000000000000000000000000602082015250565b7f4f776e61626c653a206e6577206f776e657220697320746865207a65726f206160008201527f6464726573730000000000000000000000000000000000000000000000000000602082015250565b7f455243313135353a206275726e20616d6f756e7420657863656564732062616c60008201527f616e636500000000000000000000000000000000000000000000000000000000602082015250565b7f455243313135353a2063616c6c6572206973206e6f74206f776e6572206e6f7260008201527f20617070726f7665640000000000000000000000000000000000000000000000602082015250565b7f416c6c206f662074686973206174686c657465206861766520616c726561647960008201527f206265656e206d696e7465642100000000000000000000000000000000000000602082015250565b7f5374617274696e6720696e64657820697320616c726561647920736574000000600082015250565b7f455243313135353a207472616e7366657220746f20746865207a65726f20616460008201527f6472657373000000000000000000000000000000000000000000000000000000602082015250565b7f455243313135353a207472616e736665722063616c6c6572206973206e6f742060008201527f6f776e6572206e6f7220617070726f7665640000000000000000000000000000602082015250565b7f43616e6e6f742073657420757269207477696365000000000000000000000000600082015250565b7f455243313135353a206275726e2066726f6d20746865207a65726f206164647260008201527f6573730000000000000000000000000000000000000000000000000000000000602082015250565b7f455243313135353a20696e73756666696369656e742062616c616e636520666f60008201527f72207472616e7366657200000000000000000000000000000000000000000000602082015250565b7f2e6a736f6e000000000000000000000000000000000000000000000000000000600082015250565b7f4f776e61626c653a2063616c6c6572206973206e6f7420746865206f776e6572600082015250565b7f5061636b2068617320616c7265616479206265656e206275726e6564206f722060008201527f646f6573206e6f742065786973742e0000000000000000000000000000000000602082015250565b7f416c6c207061636b73206861766520616c7265616479206265656e206d696e7460008201527f6564210000000000000000000000000000000000000000000000000000000000602082015250565b7f5061636b73206172656e277420726561647920746f206f70656e207965742100600082015250565b7f43616e206f6e6c79206d696e74206f6e652073746172746572207061636b207060008201527f6572206163636f756e7400000000000000000000000000000000000000000000602082015250565b7f455243313135353a2073657474696e6720617070726f76616c2073746174757360008201527f20666f722073656c660000000000000000000000000000000000000000000000602082015250565b7f455243313135353a206163636f756e747320616e6420696473206c656e67746860008201527f206d69736d617463680000000000000000000000000000000000000000000000602082015250565b7f455243313135353a2069647320616e6420616d6f756e7473206c656e6774682060008201527f6d69736d61746368000000000000000000000000000000000000000000000000602082015250565b7f455243313135353a206d696e7420746f20746865207a65726f2061646472657360008201527f7300000000000000000000000000000000000000000000000000000000000000602082015250565b600060443d101561559057615613565b615598614840565b60043d036004823e80513d602482011167ffffffffffffffff821117156155c0575050615613565b808201805167ffffffffffffffff8111156155de5750505050615613565b80602083010160043d0385018111156155fb575050505050615613565b61560a82602001850186614d48565b82955050505050505b90565b61561f81614c53565b811461562a57600080fd5b50565b61563681614c65565b811461564157600080fd5b50565b61564d81614c71565b811461565857600080fd5b50565b61566481614cbd565b811461566f57600080fd5b5056fea2646970667358221220c07312c31a2e56763fb8cf10391d726eae56c98dc1dde427b624a767bc5badaf64736f6c63430008020033",
  "linkReferences": {},
  "deployedLinkReferences": {}
}