{
  "_format": "hh-sol-artifact-1",
  "contractName": "GameItems",
  "sourceName": "contracts/GameItems.sol",
  "abi": [
    {
      "inputs": [
        {
          "components": [
            {
              "internalType": "uint256",
              "name": "_numAthletes",
              "type": "uint256"
            },
            {
              "internalType": "uint256",
              "name": "_nftPerAthlete",
              "type": "uint256"
            },
            {
              "internalType": "uint256",
              "name": "_starterPackSize",
              "type": "uint256"
            },
            {
              "internalType": "uint256",
              "name": "_boosterPackSize",
              "type": "uint256"
            },
            {
              "internalType": "uint256",
              "name": "_maxStarterPackBalance",
              "type": "uint256"
            },
            {
              "internalType": "uint256",
              "name": "_maxBoosterPackBalance",
              "type": "uint256"
            },
            {
              "internalType": "uint256",
              "name": "_maxPacks",
              "type": "uint256"
            },
            {
              "internalType": "uint256",
              "name": "_revealTimestamp",
              "type": "uint256"
            }
          ],
          "internalType": "struct GameItems.Parameters",
          "name": "params",
          "type": "tuple"
        },
        {
          "internalType": "string",
          "name": "_athleteURI",
          "type": "string"
        },
        {
          "internalType": "string",
          "name": "_starterPackURI",
          "type": "string"
        },
        {
          "internalType": "string",
          "name": "_boosterPackURI",
          "type": "string"
        }
      ],
      "stateMutability": "nonpayable",
      "type": "constructor"
    },
    {
      "anonymous": false,
      "inputs": [
        {
          "indexed": true,
          "internalType": "address",
          "name": "account",
          "type": "address"
        },
        {
          "indexed": true,
          "internalType": "address",
          "name": "operator",
          "type": "address"
        },
        {
          "indexed": false,
          "internalType": "bool",
          "name": "approved",
          "type": "bool"
        }
      ],
      "name": "ApprovalForAll",
      "type": "event"
    },
    {
      "anonymous": false,
      "inputs": [
        {
          "indexed": true,
          "internalType": "address",
          "name": "previousOwner",
          "type": "address"
        },
        {
          "indexed": true,
          "internalType": "address",
          "name": "newOwner",
          "type": "address"
        }
      ],
      "name": "OwnershipTransferred",
      "type": "event"
    },
    {
      "anonymous": false,
      "inputs": [
        {
          "indexed": true,
          "internalType": "address",
          "name": "operator",
          "type": "address"
        },
        {
          "indexed": true,
          "internalType": "address",
          "name": "from",
          "type": "address"
        },
        {
          "indexed": true,
          "internalType": "address",
          "name": "to",
          "type": "address"
        },
        {
          "indexed": false,
          "internalType": "uint256[]",
          "name": "ids",
          "type": "uint256[]"
        },
        {
          "indexed": false,
          "internalType": "uint256[]",
          "name": "values",
          "type": "uint256[]"
        }
      ],
      "name": "TransferBatch",
      "type": "event"
    },
    {
      "anonymous": false,
      "inputs": [
        {
          "indexed": true,
          "internalType": "address",
          "name": "operator",
          "type": "address"
        },
        {
          "indexed": true,
          "internalType": "address",
          "name": "from",
          "type": "address"
        },
        {
          "indexed": true,
          "internalType": "address",
          "name": "to",
          "type": "address"
        },
        {
          "indexed": false,
          "internalType": "uint256",
          "name": "id",
          "type": "uint256"
        },
        {
          "indexed": false,
          "internalType": "uint256",
          "name": "value",
          "type": "uint256"
        }
      ],
      "name": "TransferSingle",
      "type": "event"
    },
    {
      "anonymous": false,
      "inputs": [
        {
          "indexed": false,
          "internalType": "string",
          "name": "value",
          "type": "string"
        },
        {
          "indexed": true,
          "internalType": "uint256",
          "name": "id",
          "type": "uint256"
        }
      ],
      "name": "URI",
      "type": "event"
    },
    {
      "anonymous": false,
      "inputs": [
        {
          "indexed": false,
          "internalType": "uint256[5]",
          "name": "",
          "type": "uint256[5]"
        },
        {
          "indexed": false,
          "internalType": "address",
          "name": "signer",
          "type": "address"
        }
      ],
      "name": "packBurned",
      "type": "event"
    },
    {
      "anonymous": false,
      "inputs": [
        {
          "indexed": false,
          "internalType": "address",
          "name": "signer",
          "type": "address"
        },
        {
          "indexed": false,
          "internalType": "uint256",
          "name": "id",
          "type": "uint256"
        }
      ],
      "name": "packMinted",
      "type": "event"
    },
    {
      "inputs": [],
      "name": "REVEAL_TIMESTAMP",
      "outputs": [
        {
          "internalType": "uint256",
          "name": "",
          "type": "uint256"
        }
      ],
      "stateMutability": "view",
      "type": "function"
    },
    {
      "inputs": [
        {
          "internalType": "address",
          "name": "account",
          "type": "address"
        },
        {
          "internalType": "uint256",
          "name": "id",
          "type": "uint256"
        }
      ],
      "name": "balanceOf",
      "outputs": [
        {
          "internalType": "uint256",
          "name": "",
          "type": "uint256"
        }
      ],
      "stateMutability": "view",
      "type": "function"
    },
    {
      "inputs": [
        {
          "internalType": "address[]",
          "name": "accounts",
          "type": "address[]"
        },
        {
          "internalType": "uint256[]",
          "name": "ids",
          "type": "uint256[]"
        }
      ],
      "name": "balanceOfBatch",
      "outputs": [
        {
          "internalType": "uint256[]",
          "name": "",
          "type": "uint256[]"
        }
      ],
      "stateMutability": "view",
      "type": "function"
    },
    {
      "inputs": [],
      "name": "burnStarterPack",
      "outputs": [],
      "stateMutability": "nonpayable",
      "type": "function"
    },
    {
      "inputs": [],
      "name": "generateStarterPackIndices",
      "outputs": [
        {
          "internalType": "uint256[5]",
          "name": "",
          "type": "uint256[5]"
        }
      ],
      "stateMutability": "view",
      "type": "function"
    },
    {
      "inputs": [],
      "name": "getNFTPerAthlete",
      "outputs": [
        {
          "internalType": "uint256",
          "name": "",
          "type": "uint256"
        }
      ],
      "stateMutability": "view",
      "type": "function"
    },
    {
      "inputs": [
        {
          "internalType": "address",
          "name": "account",
          "type": "address"
        },
        {
          "internalType": "address",
          "name": "operator",
          "type": "address"
        }
      ],
      "name": "isApprovedForAll",
      "outputs": [
        {
          "internalType": "bool",
          "name": "",
          "type": "bool"
        }
      ],
      "stateMutability": "view",
      "type": "function"
    },
    {
      "inputs": [],
      "name": "mintStarterPack",
      "outputs": [],
      "stateMutability": "nonpayable",
      "type": "function"
    },
    {
      "inputs": [],
      "name": "name",
      "outputs": [
        {
          "internalType": "string",
          "name": "",
          "type": "string"
        }
      ],
      "stateMutability": "view",
      "type": "function"
    },
    {
      "inputs": [],
      "name": "owner",
      "outputs": [
        {
          "internalType": "address",
          "name": "",
          "type": "address"
        }
      ],
      "stateMutability": "view",
      "type": "function"
    },
    {
      "inputs": [],
      "name": "packsAvailable",
      "outputs": [
        {
          "internalType": "uint256",
          "name": "",
          "type": "uint256"
        }
      ],
      "stateMutability": "view",
      "type": "function"
    },
    {
      "inputs": [],
      "name": "packsReadyToOpen",
      "outputs": [
        {
          "internalType": "bool",
          "name": "",
          "type": "bool"
        }
      ],
      "stateMutability": "view",
      "type": "function"
    },
    {
      "inputs": [],
      "name": "renounceOwnership",
      "outputs": [],
      "stateMutability": "nonpayable",
      "type": "function"
    },
    {
      "inputs": [
        {
          "internalType": "address",
          "name": "from",
          "type": "address"
        },
        {
          "internalType": "address",
          "name": "to",
          "type": "address"
        },
        {
          "internalType": "uint256[]",
          "name": "ids",
          "type": "uint256[]"
        },
        {
          "internalType": "uint256[]",
          "name": "amounts",
          "type": "uint256[]"
        },
        {
          "internalType": "bytes",
          "name": "data",
          "type": "bytes"
        }
      ],
      "name": "safeBatchTransferFrom",
      "outputs": [],
      "stateMutability": "nonpayable",
      "type": "function"
    },
    {
      "inputs": [
        {
          "internalType": "address",
          "name": "from",
          "type": "address"
        },
        {
          "internalType": "address",
          "name": "to",
          "type": "address"
        },
        {
          "internalType": "uint256",
          "name": "id",
          "type": "uint256"
        },
        {
          "internalType": "uint256",
          "name": "amount",
          "type": "uint256"
        },
        {
          "internalType": "bytes",
          "name": "data",
          "type": "bytes"
        }
      ],
      "name": "safeTransferFrom",
      "outputs": [],
      "stateMutability": "nonpayable",
      "type": "function"
    },
    {
      "inputs": [
        {
          "internalType": "address",
          "name": "operator",
          "type": "address"
        },
        {
          "internalType": "bool",
          "name": "approved",
          "type": "bool"
        }
      ],
      "name": "setApprovalForAll",
      "outputs": [],
      "stateMutability": "nonpayable",
      "type": "function"
    },
    {
      "inputs": [],
      "name": "setPacksReady",
      "outputs": [],
      "stateMutability": "nonpayable",
      "type": "function"
    },
    {
      "inputs": [],
      "name": "setStartingIndex",
      "outputs": [],
      "stateMutability": "nonpayable",
      "type": "function"
    },
    {
      "inputs": [
        {
          "internalType": "uint256",
          "name": "tokenId",
          "type": "uint256"
        },
        {
          "internalType": "string",
          "name": "uri",
          "type": "string"
        }
      ],
      "name": "setTokenUri",
      "outputs": [],
      "stateMutability": "nonpayable",
      "type": "function"
    },
    {
      "inputs": [],
      "name": "setURIs",
      "outputs": [],
      "stateMutability": "nonpayable",
      "type": "function"
    },
    {
      "inputs": [
        {
          "internalType": "bytes4",
          "name": "interfaceId",
          "type": "bytes4"
        }
      ],
      "name": "supportsInterface",
      "outputs": [
        {
          "internalType": "bool",
          "name": "",
          "type": "bool"
        }
      ],
      "stateMutability": "view",
      "type": "function"
    },
    {
      "inputs": [
        {
          "internalType": "address",
          "name": "newOwner",
          "type": "address"
        }
      ],
      "name": "transferOwnership",
      "outputs": [],
      "stateMutability": "nonpayable",
      "type": "function"
    },
    {
      "inputs": [
        {
          "internalType": "uint256",
          "name": "tokenId",
          "type": "uint256"
        }
      ],
      "name": "uri",
      "outputs": [
        {
          "internalType": "string",
          "name": "",
          "type": "string"
        }
      ],
      "stateMutability": "view",
      "type": "function"
    }
  ],
  "bytecode": "0x6080604052612710600f556040518060400160405280600881526020017f5465616d446966660000000000000000000000000000000000000000000000008152506010908051906020019062000057929190620002b0565b506001601160006101000a81548160ff02191690831515021790555060405180602001604052806000815250601790805190602001906200009a929190620002b0565b50348015620000a857600080fd5b5060405162004c5b38038062004c5b8339818101604052810190620000ce9190620004d4565b60405180602001604052806000815250620000ef81620001c660201b60201c565b506200011062000104620001e260201b60201c565b620001ea60201b60201c565b8360000151600c819055508360200151600d819055508360400151600781905550836060015160088190555083608001516009819055508360a00151600a819055508360c00151600b81905550826004908051906020019062000175929190620002b0565b5081600590805190602001906200018e929190620002b0565b508060069080519060200190620001a7929190620002b0565b508360e00151600f81905550600b546020819055505050505062000754565b8060029080519060200190620001de929190620002b0565b5050565b600033905090565b6000600360009054906101000a900473ffffffffffffffffffffffffffffffffffffffff16905081600360006101000a81548173ffffffffffffffffffffffffffffffffffffffff021916908373ffffffffffffffffffffffffffffffffffffffff1602179055508173ffffffffffffffffffffffffffffffffffffffff168173ffffffffffffffffffffffffffffffffffffffff167f8be0079c531659141344cd1fd0a4f28419497f9722a3daafe3b4186f6b6457e060405160405180910390a35050565b828054620002be9062000646565b90600052602060002090601f016020900481019282620002e257600085556200032e565b82601f10620002fd57805160ff19168380011785556200032e565b828001600101855582156200032e579182015b828111156200032d57825182559160200191906001019062000310565b5b5090506200033d919062000341565b5090565b5b808211156200035c57600081600090555060010162000342565b5090565b6000620003776200037184620005d0565b620005a7565b9050828152602081018484840111156200039657620003956200071a565b5b620003a384828562000610565b509392505050565b600082601f830112620003c357620003c262000710565b5b8151620003d584826020860162000360565b91505092915050565b60006101008284031215620003f857620003f762000715565b5b62000405610100620005a7565b905060006200041784828501620004bd565b60008301525060206200042d84828501620004bd565b60208301525060406200044384828501620004bd565b60408301525060606200045984828501620004bd565b60608301525060806200046f84828501620004bd565b60808301525060a06200048584828501620004bd565b60a08301525060c06200049b84828501620004bd565b60c08301525060e0620004b184828501620004bd565b60e08301525092915050565b600081519050620004ce816200073a565b92915050565b6000806000806101608587031215620004f257620004f162000724565b5b60006200050287828801620003de565b94505061010085015167ffffffffffffffff8111156200052757620005266200071f565b5b6200053587828801620003ab565b93505061012085015167ffffffffffffffff8111156200055a57620005596200071f565b5b6200056887828801620003ab565b92505061014085015167ffffffffffffffff8111156200058d576200058c6200071f565b5b6200059b87828801620003ab565b91505092959194509250565b6000620005b3620005c6565b9050620005c182826200067c565b919050565b6000604051905090565b600067ffffffffffffffff821115620005ee57620005ed620006e1565b5b620005f98262000729565b9050602081019050919050565b6000819050919050565b60005b838110156200063057808201518184015260208101905062000613565b8381111562000640576000848401525b50505050565b600060028204905060018216806200065f57607f821691505b60208210811415620006765762000675620006b2565b5b50919050565b620006878262000729565b810181811067ffffffffffffffff82111715620006a957620006a8620006e1565b5b80604052505050565b7f4e487b7100000000000000000000000000000000000000000000000000000000600052602260045260246000fd5b7f4e487b7100000000000000000000000000000000000000000000000000000000600052604160045260246000fd5b600080fd5b600080fd5b600080fd5b600080fd5b600080fd5b6000601f19601f8301169050919050565b620007458162000606565b81146200075157600080fd5b50565b6144f780620007646000396000f3fe608060405234801561001057600080fd5b506004361061014c5760003560e01c80635d2db2bf116100c3578063be59ec261161007c578063be59ec261461032d578063d759000b1461034b578063e985e9c514610369578063e986655014610399578063f242432a146103a3578063f2fde38b146103bf5761014c565b80635d2db2bf146102cb578063715018a6146102d55780638da5cb5b146102df5780639ebf488b146102fd578063a22cb46514610307578063bbb13e17146103235761014c565b8063143cc14411610115578063143cc1441461021d57806318e20a381461023b57806319b60439146102595780632eb2c2d6146102635780634e1273f41461027f57806357f7789e146102af5761014c565b8062fdd58e1461015157806301ffc9a71461018157806306fdde03146101b15780630e89341c146101cf57806313dc2db2146101ff575b600080fd5b61016b60048036038101906101669190612b43565b6103db565b604051610178919061375e565b60405180910390f35b61019b60048036038101906101969190612bfb565b6104a4565b6040516101a89190613481565b60405180910390f35b6101b9610586565b6040516101c6919061349c565b60405180910390f35b6101e960048036038101906101e49190612c55565b610614565b6040516101f6919061349c565b60405180910390f35b6102076106b9565b60405161021491906133e4565b60405180910390f35b61022561079d565b604051610232919061375e565b60405180910390f35b610243610823565b604051610250919061375e565b60405180910390f35b610261610829565b005b61027d6004803603810190610278919061299d565b6108d1565b005b61029960048036038101906102949190612b83565b610972565b6040516102a69190613428565b60405180910390f35b6102c960048036038101906102c49190612c82565b610a8b565b005b6102d3610b95565b005b6102dd610cb4565b005b6102e7610d3c565b6040516102f491906132de565b60405180910390f35b610305610d66565b005b610321600480360381019061031c9190612b03565b610eb3565b005b61032b610ec9565b005b610335611006565b6040516103429190613481565b60405180910390f35b610353611019565b604051610360919061375e565b60405180910390f35b610383600480360381019061037e919061295d565b61101f565b6040516103909190613481565b60405180910390f35b6103a16110b3565b005b6103bd60048036038101906103b89190612a6c565b61118a565b005b6103d960048036038101906103d49190612930565b61122b565b005b60008073ffffffffffffffffffffffffffffffffffffffff168373ffffffffffffffffffffffffffffffffffffffff16141561044c576040517f08c379a0000000000000000000000000000000000000000000000000000000008152600401610443906134fe565b60405180910390fd5b60008083815260200190815260200160002060008473ffffffffffffffffffffffffffffffffffffffff1673ffffffffffffffffffffffffffffffffffffffff16815260200190815260200160002054905092915050565b60007fd9b67a26000000000000000000000000000000000000000000000000000000007bffffffffffffffffffffffffffffffffffffffffffffffffffffffff1916827bffffffffffffffffffffffffffffffffffffffffffffffffffffffff1916148061056f57507f0e89341c000000000000000000000000000000000000000000000000000000007bffffffffffffffffffffffffffffffffffffffffffffffffffffffff1916827bffffffffffffffffffffffffffffffffffffffffffffffffffffffff1916145b8061057f575061057e82611323565b5b9050919050565b6010805461059390613b17565b80601f01602080910402602001604051908101604052809291908181526020018280546105bf90613b17565b801561060c5780601f106105e15761010080835404028352916020019161060c565b820191906000526020600020905b8154815290600101906020018083116105ef57829003601f168201915b505050505081565b606060216000838152602001908152602001600020805461063490613b17565b80601f016020809104026020016040519081016040528092919081815260200182805461066090613b17565b80156106ad5780601f10610682576101008083540402835291602001916106ad565b820191906000526020600020905b81548152906001019060200180831161069057829003601f168201915b50505050509050919050565b6106c16125e6565b6106c96125e6565b60005b6005811015610795576000600a826106e491906139c6565b905060006009600a846106f791906139c6565b610701919061393f565b905081600183836107129190613a20565b61071c919061393f565b4233448760125460405160200161073795949392919061327f565b6040516020818303038152906040528051906020012060001c61075a9190613c1b565b610764919061393f565b84846005811061077757610776613cd9565b5b6020020181815250505050808061078d90613b7a565b9150506106cc565b508091505090565b60006107a761138d565b73ffffffffffffffffffffffffffffffffffffffff166107c5610d3c565b73ffffffffffffffffffffffffffffffffffffffff161461081b576040517f08c379a00000000000000000000000000000000000000000000000000000000081526004016108129061363e565b60405180910390fd5b600d54905090565b600f5481565b61083161138d565b73ffffffffffffffffffffffffffffffffffffffff1661084f610d3c565b73ffffffffffffffffffffffffffffffffffffffff16146108a5576040517f08c379a000000000000000000000000000000000000000000000000000000000815260040161089c9061363e565b60405180910390fd5b601160009054906101000a900460ff1615601160006101000a81548160ff021916908315150217905550565b6108d961138d565b73ffffffffffffffffffffffffffffffffffffffff168573ffffffffffffffffffffffffffffffffffffffff16148061091f575061091e8561091961138d565b61101f565b5b61095e576040517f08c379a0000000000000000000000000000000000000000000000000000000008152600401610955906135be565b60405180910390fd5b61096b8585858585611395565b5050505050565b606081518351146109b8576040517f08c379a00000000000000000000000000000000000000000000000000000000081526004016109af906136fe565b60405180910390fd5b6000835167ffffffffffffffff8111156109d5576109d4613d08565b5b604051908082528060200260200182016040528015610a035781602001602082028036833780820191505090505b50905060005b8451811015610a8057610a50858281518110610a2857610a27613cd9565b5b6020026020010151858381518110610a4357610a42613cd9565b5b60200260200101516103db565b828281518110610a6357610a62613cd9565b5b60200260200101818152505080610a7990613b7a565b9050610a09565b508091505092915050565b610a9361138d565b73ffffffffffffffffffffffffffffffffffffffff16610ab1610d3c565b73ffffffffffffffffffffffffffffffffffffffff1614610b07576040517f08c379a0000000000000000000000000000000000000000000000000000000008152600401610afe9061363e565b60405180910390fd5b6000602160008481526020019081526020016000208054610b2790613b17565b905014610b69576040517f08c379a0000000000000000000000000000000000000000000000000000000008152600401610b60906135de565b60405180910390fd5b80602160008481526020019081526020016000209080519060200190610b90929190612608565b505050565b610b9d61138d565b73ffffffffffffffffffffffffffffffffffffffff16610bbb610d3c565b73ffffffffffffffffffffffffffffffffffffffff1614610c11576040517f08c379a0000000000000000000000000000000000000000000000000000000008152600401610c089061363e565b60405180910390fd5b60005b600c54811015610c85576000600c5482601654610c31919061393f565b610c3b9190613c1b565b9050610c71816004610c4c846116a9565b604051602001610c5d929190613250565b604051602081830303815290604052610a8b565b508080610c7d90613b7a565b915050610c14565b50610cb2600c546005604051602001610c9e9190613239565b604051602081830303815290604052610a8b565b565b610cbc61138d565b73ffffffffffffffffffffffffffffffffffffffff16610cda610d3c565b73ffffffffffffffffffffffffffffffffffffffff1614610d30576040517f08c379a0000000000000000000000000000000000000000000000000000000008152600401610d279061363e565b60405180910390fd5b610d3a600061180a565b565b6000600360009054906101000a900473ffffffffffffffffffffffffffffffffffffffff16905090565b6000600c549050600b5460125410610db3576040517f08c379a0000000000000000000000000000000000000000000000000000000008152600401610daa9061367e565b60405180910390fd5b6001610dbf33836103db565b10610dff576040517f08c379a0000000000000000000000000000000000000000000000000000000008152600401610df6906136be565b60405180910390fd5b610e41338260016040518060400160405280600481526020017f30783030000000000000000000000000000000000000000000000000000000008152506118d0565b600160126000828254610e54919061393f565b92505081905550600160206000828254610e6e9190613a20565b925050819055507f2e0f4d63dcc00e6a11c8aef9f6e15c1f9cd6e9a090b2dd99c7b797f1a28d300d33601254604051610ea89291906133bb565b60405180910390a150565b610ec5610ebe61138d565b8383611a66565b5050565b6000600c549050601160009054906101000a900460ff16610f1f576040517f08c379a0000000000000000000000000000000000000000000000000000000008152600401610f169061369e565b60405180910390fd5b6001610f2b33836103db565b14610f6b576040517f08c379a0000000000000000000000000000000000000000000000000000000008152600401610f629061365e565b60405180910390fd5b6000610f756106b9565b905060005b60058160ff161015610fbc57610fa9828260ff1660058110610f9f57610f9e613cd9565b5b6020020151611bd3565b8080610fb490613bc3565b915050610f7a565b50610fc933836001611cce565b7f15abe0b63b201b70614c230381f0fabc4a26a1957629948558095a11db1d6fb58133604051610ffa9291906133ff565b60405180910390a15050565b601160009054906101000a900460ff1681565b60205481565b6000600160008473ffffffffffffffffffffffffffffffffffffffff1673ffffffffffffffffffffffffffffffffffffffff16815260200190815260200160002060008373ffffffffffffffffffffffffffffffffffffffff1673ffffffffffffffffffffffffffffffffffffffff16815260200190815260200160002060009054906101000a900460ff16905092915050565b6110bb61138d565b73ffffffffffffffffffffffffffffffffffffffff166110d9610d3c565b73ffffffffffffffffffffffffffffffffffffffff161461112f576040517f08c379a00000000000000000000000000000000000000000000000000000000081526004016111269061363e565b60405180910390fd5b600d54600c5461113f91906139c6565b60014361114c9190613a20565b4060001c61115a9190613c1b565b60168190555060006016541415611188576111816001601654611eeb90919063ffffffff16565b6016819055505b565b61119261138d565b73ffffffffffffffffffffffffffffffffffffffff168573ffffffffffffffffffffffffffffffffffffffff1614806111d857506111d7856111d261138d565b61101f565b5b611217576040517f08c379a000000000000000000000000000000000000000000000000000000000815260040161120e9061355e565b60405180910390fd5b6112248585858585611f01565b5050505050565b61123361138d565b73ffffffffffffffffffffffffffffffffffffffff16611251610d3c565b73ffffffffffffffffffffffffffffffffffffffff16146112a7576040517f08c379a000000000000000000000000000000000000000000000000000000000815260040161129e9061363e565b60405180910390fd5b600073ffffffffffffffffffffffffffffffffffffffff168173ffffffffffffffffffffffffffffffffffffffff161415611317576040517f08c379a000000000000000000000000000000000000000000000000000000000815260040161130e9061351e565b60405180910390fd5b6113208161180a565b50565b60007f01ffc9a7000000000000000000000000000000000000000000000000000000007bffffffffffffffffffffffffffffffffffffffffffffffffffffffff1916827bffffffffffffffffffffffffffffffffffffffffffffffffffffffff1916149050919050565b600033905090565b81518351146113d9576040517f08c379a00000000000000000000000000000000000000000000000000000000081526004016113d09061371e565b60405180910390fd5b600073ffffffffffffffffffffffffffffffffffffffff168473ffffffffffffffffffffffffffffffffffffffff161415611449576040517f08c379a00000000000000000000000000000000000000000000000000000000081526004016114409061359e565b60405180910390fd5b600061145361138d565b9050611463818787878787612183565b60005b845181101561161457600085828151811061148457611483613cd9565b5b6020026020010151905060008583815181106114a3576114a2613cd9565b5b60200260200101519050600080600084815260200190815260200160002060008b73ffffffffffffffffffffffffffffffffffffffff1673ffffffffffffffffffffffffffffffffffffffff16815260200190815260200160002054905081811015611544576040517f08c379a000000000000000000000000000000000000000000000000000000000815260040161153b9061361e565b60405180910390fd5b81810360008085815260200190815260200160002060008c73ffffffffffffffffffffffffffffffffffffffff1673ffffffffffffffffffffffffffffffffffffffff168152602001908152602001600020819055508160008085815260200190815260200160002060008b73ffffffffffffffffffffffffffffffffffffffff1673ffffffffffffffffffffffffffffffffffffffff16815260200190815260200160002060008282546115f9919061393f565b925050819055505050508061160d90613b7a565b9050611466565b508473ffffffffffffffffffffffffffffffffffffffff168673ffffffffffffffffffffffffffffffffffffffff168273ffffffffffffffffffffffffffffffffffffffff167f4a39dc06d4c0dbc64b70af90fd698a233a518aa5d07e595d983b8c0526c8f7fb878760405161168b92919061344a565b60405180910390a46116a181878787878761218b565b505050505050565b606060008214156116f1576040518060400160405280600181526020017f30000000000000000000000000000000000000000000000000000000000000008152509050611805565b600082905060005b6000821461172357808061170c90613b7a565b915050600a8261171c9190613995565b91506116f9565b60008167ffffffffffffffff81111561173f5761173e613d08565b5b6040519080825280601f01601f1916602001820160405280156117715781602001600182028036833780820191505090505b5090505b600085146117fe5760018261178a9190613a20565b9150600a856117999190613c1b565b60306117a5919061393f565b60f81b8183815181106117bb576117ba613cd9565b5b60200101907effffffffffffffffffffffffffffffffffffffffffffffffffffffffffffff1916908160001a905350600a856117f79190613995565b9450611775565b8093505050505b919050565b6000600360009054906101000a900473ffffffffffffffffffffffffffffffffffffffff16905081600360006101000a81548173ffffffffffffffffffffffffffffffffffffffff021916908373ffffffffffffffffffffffffffffffffffffffff1602179055508173ffffffffffffffffffffffffffffffffffffffff168173ffffffffffffffffffffffffffffffffffffffff167f8be0079c531659141344cd1fd0a4f28419497f9722a3daafe3b4186f6b6457e060405160405180910390a35050565b600073ffffffffffffffffffffffffffffffffffffffff168473ffffffffffffffffffffffffffffffffffffffff161415611940576040517f08c379a00000000000000000000000000000000000000000000000000000000081526004016119379061373e565b60405180910390fd5b600061194a61138d565b905061196b8160008761195c88612372565b61196588612372565b87612183565b8260008086815260200190815260200160002060008773ffffffffffffffffffffffffffffffffffffffff1673ffffffffffffffffffffffffffffffffffffffff16815260200190815260200160002060008282546119ca919061393f565b925050819055508473ffffffffffffffffffffffffffffffffffffffff16600073ffffffffffffffffffffffffffffffffffffffff168273ffffffffffffffffffffffffffffffffffffffff167fc3d58168c5ae7397731d063d5bbf3d657854427343f4c083240f7aacaa2d0f628787604051611a48929190613779565b60405180910390a4611a5f816000878787876123ec565b5050505050565b8173ffffffffffffffffffffffffffffffffffffffff168373ffffffffffffffffffffffffffffffffffffffff161415611ad5576040517f08c379a0000000000000000000000000000000000000000000000000000000008152600401611acc906136de565b60405180910390fd5b80600160008573ffffffffffffffffffffffffffffffffffffffff1673ffffffffffffffffffffffffffffffffffffffff16815260200190815260200160002060008473ffffffffffffffffffffffffffffffffffffffff1673ffffffffffffffffffffffffffffffffffffffff16815260200190815260200160002060006101000a81548160ff0219169083151502179055508173ffffffffffffffffffffffffffffffffffffffff168373ffffffffffffffffffffffffffffffffffffffff167f17307eab39ab6107e8899845ad3d59bd9653f200f220920489ca2b5937696c3183604051611bc69190613481565b60405180910390a3505050565b600d54600c54611be391906139c6565b6014541015611ccb57600d54602260008381526020019081526020016000205410611c43576040517f08c379a0000000000000000000000000000000000000000000000000000000008152600401611c3a9061357e565b60405180910390fd5b611c85338260016040518060400160405280600481526020017f30783030000000000000000000000000000000000000000000000000000000008152506118d0565b6001602260008381526020019081526020016000206000828254611ca9919061393f565b92505081905550600160146000828254611cc3919061393f565b925050819055505b50565b600073ffffffffffffffffffffffffffffffffffffffff168373ffffffffffffffffffffffffffffffffffffffff161415611d3e576040517f08c379a0000000000000000000000000000000000000000000000000000000008152600401611d35906135fe565b60405180910390fd5b6000611d4861138d565b9050611d7881856000611d5a87612372565b611d6387612372565b60405180602001604052806000815250612183565b600080600085815260200190815260200160002060008673ffffffffffffffffffffffffffffffffffffffff1673ffffffffffffffffffffffffffffffffffffffff16815260200190815260200160002054905082811015611e0f576040517f08c379a0000000000000000000000000000000000000000000000000000000008152600401611e069061353e565b60405180910390fd5b82810360008086815260200190815260200160002060008773ffffffffffffffffffffffffffffffffffffffff1673ffffffffffffffffffffffffffffffffffffffff16815260200190815260200160002081905550600073ffffffffffffffffffffffffffffffffffffffff168573ffffffffffffffffffffffffffffffffffffffff168373ffffffffffffffffffffffffffffffffffffffff167fc3d58168c5ae7397731d063d5bbf3d657854427343f4c083240f7aacaa2d0f628787604051611edc929190613779565b60405180910390a45050505050565b60008183611ef9919061393f565b905092915050565b600073ffffffffffffffffffffffffffffffffffffffff168473ffffffffffffffffffffffffffffffffffffffff161415611f71576040517f08c379a0000000000000000000000000000000000000000000000000000000008152600401611f689061359e565b60405180910390fd5b6000611f7b61138d565b9050611f9b818787611f8c88612372565b611f9588612372565b87612183565b600080600086815260200190815260200160002060008873ffffffffffffffffffffffffffffffffffffffff1673ffffffffffffffffffffffffffffffffffffffff16815260200190815260200160002054905083811015612032576040517f08c379a00000000000000000000000000000000000000000000000000000000081526004016120299061361e565b60405180910390fd5b83810360008087815260200190815260200160002060008973ffffffffffffffffffffffffffffffffffffffff1673ffffffffffffffffffffffffffffffffffffffff168152602001908152602001600020819055508360008087815260200190815260200160002060008873ffffffffffffffffffffffffffffffffffffffff1673ffffffffffffffffffffffffffffffffffffffff16815260200190815260200160002060008282546120e7919061393f565b925050819055508573ffffffffffffffffffffffffffffffffffffffff168773ffffffffffffffffffffffffffffffffffffffff168373ffffffffffffffffffffffffffffffffffffffff167fc3d58168c5ae7397731d063d5bbf3d657854427343f4c083240f7aacaa2d0f628888604051612164929190613779565b60405180910390a461217a8288888888886123ec565b50505050505050565b505050505050565b6121aa8473ffffffffffffffffffffffffffffffffffffffff166125d3565b1561236a578373ffffffffffffffffffffffffffffffffffffffff1663bc197c8187878686866040518663ffffffff1660e01b81526004016121f09594939291906132f9565b602060405180830381600087803b15801561220a57600080fd5b505af192505050801561223b57506040513d601f19601f820116820180604052508101906122389190612c28565b60015b6122e157612247613d37565b806308c379a014156122a4575061225c6143cf565b8061226757506122a6565b806040517f08c379a000000000000000000000000000000000000000000000000000000000815260040161229b919061349c565b60405180910390fd5b505b6040517f08c379a00000000000000000000000000000000000000000000000000000000081526004016122d8906134be565b60405180910390fd5b63bc197c8160e01b7bffffffffffffffffffffffffffffffffffffffffffffffffffffffff1916817bffffffffffffffffffffffffffffffffffffffffffffffffffffffff191614612368576040517f08c379a000000000000000000000000000000000000000000000000000000000815260040161235f906134de565b60405180910390fd5b505b505050505050565b60606000600167ffffffffffffffff81111561239157612390613d08565b5b6040519080825280602002602001820160405280156123bf5781602001602082028036833780820191505090505b50905082816000815181106123d7576123d6613cd9565b5b60200260200101818152505080915050919050565b61240b8473ffffffffffffffffffffffffffffffffffffffff166125d3565b156125cb578373ffffffffffffffffffffffffffffffffffffffff1663f23a6e6187878686866040518663ffffffff1660e01b8152600401612451959493929190613361565b602060405180830381600087803b15801561246b57600080fd5b505af192505050801561249c57506040513d601f19601f820116820180604052508101906124999190612c28565b60015b612542576124a8613d37565b806308c379a0141561250557506124bd6143cf565b806124c85750612507565b806040517f08c379a00000000000000000000000000000000000000000000000000000000081526004016124fc919061349c565b60405180910390fd5b505b6040517f08c379a0000000000000000000000000000000000000000000000000000000008152600401612539906134be565b60405180910390fd5b63f23a6e6160e01b7bffffffffffffffffffffffffffffffffffffffffffffffffffffffff1916817bffffffffffffffffffffffffffffffffffffffffffffffffffffffff1916146125c9576040517f08c379a00000000000000000000000000000000000000000000000000000000081526004016125c0906134de565b60405180910390fd5b505b505050505050565b600080823b905060008111915050919050565b6040518060a00160405280600590602082028036833780820191505090505090565b82805461261490613b17565b90600052602060002090601f016020900481019282612636576000855561267d565b82601f1061264f57805160ff191683800117855561267d565b8280016001018555821561267d579182015b8281111561267c578251825591602001919060010190612661565b5b50905061268a919061268e565b5090565b5b808211156126a757600081600090555060010161268f565b5090565b60006126be6126b9846137c7565b6137a2565b905080838252602082019050828560208602820111156126e1576126e0613d5e565b5b60005b8581101561271157816126f7888261280f565b8452602084019350602083019250506001810190506126e4565b5050509392505050565b600061272e612729846137f3565b6137a2565b9050808382526020820190508285602086028201111561275157612750613d5e565b5b60005b858110156127815781612767888261291b565b845260208401935060208301925050600181019050612754565b5050509392505050565b600061279e6127998461381f565b6137a2565b9050828152602081018484840111156127ba576127b9613d63565b5b6127c5848285613ad5565b509392505050565b60006127e06127db84613850565b6137a2565b9050828152602081018484840111156127fc576127fb613d63565b5b612807848285613ad5565b509392505050565b60008135905061281e81614465565b92915050565b600082601f83011261283957612838613d59565b5b81356128498482602086016126ab565b91505092915050565b600082601f83011261286757612866613d59565b5b813561287784826020860161271b565b91505092915050565b60008135905061288f8161447c565b92915050565b6000813590506128a481614493565b92915050565b6000815190506128b981614493565b92915050565b600082601f8301126128d4576128d3613d59565b5b81356128e484826020860161278b565b91505092915050565b600082601f83011261290257612901613d59565b5b81356129128482602086016127cd565b91505092915050565b60008135905061292a816144aa565b92915050565b60006020828403121561294657612945613d6d565b5b60006129548482850161280f565b91505092915050565b6000806040838503121561297457612973613d6d565b5b60006129828582860161280f565b92505060206129938582860161280f565b9150509250929050565b600080600080600060a086880312156129b9576129b8613d6d565b5b60006129c78882890161280f565b95505060206129d88882890161280f565b945050604086013567ffffffffffffffff8111156129f9576129f8613d68565b5b612a0588828901612852565b935050606086013567ffffffffffffffff811115612a2657612a25613d68565b5b612a3288828901612852565b925050608086013567ffffffffffffffff811115612a5357612a52613d68565b5b612a5f888289016128bf565b9150509295509295909350565b600080600080600060a08688031215612a8857612a87613d6d565b5b6000612a968882890161280f565b9550506020612aa78882890161280f565b9450506040612ab88882890161291b565b9350506060612ac98882890161291b565b925050608086013567ffffffffffffffff811115612aea57612ae9613d68565b5b612af6888289016128bf565b9150509295509295909350565b60008060408385031215612b1a57612b19613d6d565b5b6000612b288582860161280f565b9250506020612b3985828601612880565b9150509250929050565b60008060408385031215612b5a57612b59613d6d565b5b6000612b688582860161280f565b9250506020612b798582860161291b565b9150509250929050565b60008060408385031215612b9a57612b99613d6d565b5b600083013567ffffffffffffffff811115612bb857612bb7613d68565b5b612bc485828601612824565b925050602083013567ffffffffffffffff811115612be557612be4613d68565b5b612bf185828601612852565b9150509250929050565b600060208284031215612c1157612c10613d6d565b5b6000612c1f84828501612895565b91505092915050565b600060208284031215612c3e57612c3d613d6d565b5b6000612c4c848285016128aa565b91505092915050565b600060208284031215612c6b57612c6a613d6d565b5b6000612c798482850161291b565b91505092915050565b60008060408385031215612c9957612c98613d6d565b5b6000612ca78582860161291b565b925050602083013567ffffffffffffffff811115612cc857612cc7613d68565b5b612cd4858286016128ed565b9150509250929050565b6000612cea8383613204565b60208301905092915050565b612cff81613a54565b82525050565b612d16612d1182613a54565b613bed565b82525050565b612d25816138b0565b612d2f81846138f6565b9250612d3a82613881565b8060005b83811015612d6b578151612d528782612cde565b9650612d5d836138dc565b925050600181019050612d3e565b505050505050565b6000612d7e826138bb565b612d888185613901565b9350612d938361388b565b8060005b83811015612dc4578151612dab8882612cde565b9750612db6836138e9565b925050600181019050612d97565b5085935050505092915050565b612dda81613a66565b82525050565b6000612deb826138c6565b612df58185613912565b9350612e05818560208601613ae4565b612e0e81613d72565b840191505092915050565b6000612e24826138d1565b612e2e8185613923565b9350612e3e818560208601613ae4565b612e4781613d72565b840191505092915050565b6000612e5d826138d1565b612e678185613934565b9350612e77818560208601613ae4565b80840191505092915050565b60008154612e9081613b17565b612e9a8186613934565b94506001821660008114612eb55760018114612ec657612ef9565b60ff19831686528186019350612ef9565b612ecf8561389b565b60005b83811015612ef157815481890152600182019150602081019050612ed2565b838801955050505b50505092915050565b6000612f0f603483613923565b9150612f1a82613d9d565b604082019050919050565b6000612f32602883613923565b9150612f3d82613dec565b604082019050919050565b6000612f55602b83613923565b9150612f6082613e3b565b604082019050919050565b6000612f78602683613923565b9150612f8382613e8a565b604082019050919050565b6000612f9b602483613923565b9150612fa682613ed9565b604082019050919050565b6000612fbe602983613923565b9150612fc982613f28565b604082019050919050565b6000612fe1602d83613923565b9150612fec82613f77565b604082019050919050565b6000613004602583613923565b915061300f82613fc6565b604082019050919050565b6000613027603283613923565b915061303282614015565b604082019050919050565b600061304a601483613923565b915061305582614064565b602082019050919050565b600061306d602383613923565b91506130788261408d565b604082019050919050565b6000613090602a83613923565b915061309b826140dc565b604082019050919050565b60006130b3600583613934565b91506130be8261412b565b600582019050919050565b60006130d6602083613923565b91506130e182614154565b602082019050919050565b60006130f9602f83613923565b91506131048261417d565b604082019050919050565b600061311c602383613923565b9150613127826141cc565b604082019050919050565b600061313f601f83613923565b915061314a8261421b565b602082019050919050565b6000613162602a83613923565b915061316d82614244565b604082019050919050565b6000613185602983613923565b915061319082614293565b604082019050919050565b60006131a8602983613923565b91506131b3826142e2565b604082019050919050565b60006131cb602883613923565b91506131d682614331565b604082019050919050565b60006131ee602183613923565b91506131f982614380565b604082019050919050565b61320d81613abe565b82525050565b61321c81613abe565b82525050565b61323361322e82613abe565b613c11565b82525050565b60006132458284612e83565b915081905092915050565b600061325c8285612e83565b91506132688284612e52565b9150613273826130a6565b91508190509392505050565b600061328b8288613222565b60208201915061329b8287612d05565b6014820191506132ab8286613222565b6020820191506132bb8285613222565b6020820191506132cb8284613222565b6020820191508190509695505050505050565b60006020820190506132f36000830184612cf6565b92915050565b600060a08201905061330e6000830188612cf6565b61331b6020830187612cf6565b818103604083015261332d8186612d73565b905081810360608301526133418185612d73565b905081810360808301526133558184612de0565b90509695505050505050565b600060a0820190506133766000830188612cf6565b6133836020830187612cf6565b6133906040830186613213565b61339d6060830185613213565b81810360808301526133af8184612de0565b90509695505050505050565b60006040820190506133d06000830185612cf6565b6133dd6020830184613213565b9392505050565b600060a0820190506133f96000830184612d1c565b92915050565b600060c0820190506134146000830185612d1c565b61342160a0830184612cf6565b9392505050565b600060208201905081810360008301526134428184612d73565b905092915050565b600060408201905081810360008301526134648185612d73565b905081810360208301526134788184612d73565b90509392505050565b60006020820190506134966000830184612dd1565b92915050565b600060208201905081810360008301526134b68184612e19565b905092915050565b600060208201905081810360008301526134d781612f02565b9050919050565b600060208201905081810360008301526134f781612f25565b9050919050565b6000602082019050818103600083015261351781612f48565b9050919050565b6000602082019050818103600083015261353781612f6b565b9050919050565b6000602082019050818103600083015261355781612f8e565b9050919050565b6000602082019050818103600083015261357781612fb1565b9050919050565b6000602082019050818103600083015261359781612fd4565b9050919050565b600060208201905081810360008301526135b781612ff7565b9050919050565b600060208201905081810360008301526135d78161301a565b9050919050565b600060208201905081810360008301526135f78161303d565b9050919050565b6000602082019050818103600083015261361781613060565b9050919050565b6000602082019050818103600083015261363781613083565b9050919050565b60006020820190508181036000830152613657816130c9565b9050919050565b60006020820190508181036000830152613677816130ec565b9050919050565b600060208201905081810360008301526136978161310f565b9050919050565b600060208201905081810360008301526136b781613132565b9050919050565b600060208201905081810360008301526136d781613155565b9050919050565b600060208201905081810360008301526136f781613178565b9050919050565b600060208201905081810360008301526137178161319b565b9050919050565b60006020820190508181036000830152613737816131be565b9050919050565b60006020820190508181036000830152613757816131e1565b9050919050565b60006020820190506137736000830184613213565b92915050565b600060408201905061378e6000830185613213565b61379b6020830184613213565b9392505050565b60006137ac6137bd565b90506137b88282613b49565b919050565b6000604051905090565b600067ffffffffffffffff8211156137e2576137e1613d08565b5b602082029050602081019050919050565b600067ffffffffffffffff82111561380e5761380d613d08565b5b602082029050602081019050919050565b600067ffffffffffffffff82111561383a57613839613d08565b5b61384382613d72565b9050602081019050919050565b600067ffffffffffffffff82111561386b5761386a613d08565b5b61387482613d72565b9050602081019050919050565b6000819050919050565b6000819050602082019050919050565b60008190508160005260206000209050919050565b600060059050919050565b600081519050919050565b600081519050919050565b600081519050919050565b6000602082019050919050565b6000602082019050919050565b600081905092915050565b600082825260208201905092915050565b600082825260208201905092915050565b600082825260208201905092915050565b600081905092915050565b600061394a82613abe565b915061395583613abe565b9250827fffffffffffffffffffffffffffffffffffffffffffffffffffffffffffffffff0382111561398a57613989613c4c565b5b828201905092915050565b60006139a082613abe565b91506139ab83613abe565b9250826139bb576139ba613c7b565b5b828204905092915050565b60006139d182613abe565b91506139dc83613abe565b9250817fffffffffffffffffffffffffffffffffffffffffffffffffffffffffffffffff0483118215151615613a1557613a14613c4c565b5b828202905092915050565b6000613a2b82613abe565b9150613a3683613abe565b925082821015613a4957613a48613c4c565b5b828203905092915050565b6000613a5f82613a9e565b9050919050565b60008115159050919050565b60007fffffffff0000000000000000000000000000000000000000000000000000000082169050919050565b600073ffffffffffffffffffffffffffffffffffffffff82169050919050565b6000819050919050565b600060ff82169050919050565b82818337600083830152505050565b60005b83811015613b02578082015181840152602081019050613ae7565b83811115613b11576000848401525b50505050565b60006002820490506001821680613b2f57607f821691505b60208210811415613b4357613b42613caa565b5b50919050565b613b5282613d72565b810181811067ffffffffffffffff82111715613b7157613b70613d08565b5b80604052505050565b6000613b8582613abe565b91507fffffffffffffffffffffffffffffffffffffffffffffffffffffffffffffffff821415613bb857613bb7613c4c565b5b600182019050919050565b6000613bce82613ac8565b915060ff821415613be257613be1613c4c565b5b600182019050919050565b6000613bf882613bff565b9050919050565b6000613c0a82613d83565b9050919050565b6000819050919050565b6000613c2682613abe565b9150613c3183613abe565b925082613c4157613c40613c7b565b5b828206905092915050565b7f4e487b7100000000000000000000000000000000000000000000000000000000600052601160045260246000fd5b7f4e487b7100000000000000000000000000000000000000000000000000000000600052601260045260246000fd5b7f4e487b7100000000000000000000000000000000000000000000000000000000600052602260045260246000fd5b7f4e487b7100000000000000000000000000000000000000000000000000000000600052603260045260246000fd5b7f4e487b7100000000000000000000000000000000000000000000000000000000600052604160045260246000fd5b600060033d1115613d565760046000803e613d53600051613d90565b90505b90565b600080fd5b600080fd5b600080fd5b600080fd5b600080fd5b6000601f19601f8301169050919050565b60008160601b9050919050565b60008160e01c9050919050565b7f455243313135353a207472616e7366657220746f206e6f6e204552433131353560008201527f526563656976657220696d706c656d656e746572000000000000000000000000602082015250565b7f455243313135353a204552433131353552656365697665722072656a6563746560008201527f6420746f6b656e73000000000000000000000000000000000000000000000000602082015250565b7f455243313135353a2062616c616e636520717565727920666f7220746865207a60008201527f65726f2061646472657373000000000000000000000000000000000000000000602082015250565b7f4f776e61626c653a206e6577206f776e657220697320746865207a65726f206160008201527f6464726573730000000000000000000000000000000000000000000000000000602082015250565b7f455243313135353a206275726e20616d6f756e7420657863656564732062616c60008201527f616e636500000000000000000000000000000000000000000000000000000000602082015250565b7f455243313135353a2063616c6c6572206973206e6f74206f776e6572206e6f7260008201527f20617070726f7665640000000000000000000000000000000000000000000000602082015250565b7f416c6c206f662074686973206174686c657465206861766520616c726561647960008201527f206265656e206d696e7465642100000000000000000000000000000000000000602082015250565b7f455243313135353a207472616e7366657220746f20746865207a65726f20616460008201527f6472657373000000000000000000000000000000000000000000000000000000602082015250565b7f455243313135353a207472616e736665722063616c6c6572206973206e6f742060008201527f6f776e6572206e6f7220617070726f7665640000000000000000000000000000602082015250565b7f43616e6e6f742073657420757269207477696365000000000000000000000000600082015250565b7f455243313135353a206275726e2066726f6d20746865207a65726f206164647260008201527f6573730000000000000000000000000000000000000000000000000000000000602082015250565b7f455243313135353a20696e73756666696369656e742062616c616e636520666f60008201527f72207472616e7366657200000000000000000000000000000000000000000000602082015250565b7f2e6a736f6e000000000000000000000000000000000000000000000000000000600082015250565b7f4f776e61626c653a2063616c6c6572206973206e6f7420746865206f776e6572600082015250565b7f5061636b2068617320616c7265616479206265656e206275726e6564206f722060008201527f646f6573206e6f742065786973742e0000000000000000000000000000000000602082015250565b7f416c6c207061636b73206861766520616c7265616479206265656e206d696e7460008201527f6564210000000000000000000000000000000000000000000000000000000000602082015250565b7f5061636b73206172656e277420726561647920746f206f70656e207965742100600082015250565b7f43616e206f6e6c79206d696e74206f6e652073746172746572207061636b207060008201527f6572206163636f756e7400000000000000000000000000000000000000000000602082015250565b7f455243313135353a2073657474696e6720617070726f76616c2073746174757360008201527f20666f722073656c660000000000000000000000000000000000000000000000602082015250565b7f455243313135353a206163636f756e747320616e6420696473206c656e67746860008201527f206d69736d617463680000000000000000000000000000000000000000000000602082015250565b7f455243313135353a2069647320616e6420616d6f756e7473206c656e6774682060008201527f6d69736d61746368000000000000000000000000000000000000000000000000602082015250565b7f455243313135353a206d696e7420746f20746865207a65726f2061646472657360008201527f7300000000000000000000000000000000000000000000000000000000000000602082015250565b600060443d10156143df57614462565b6143e76137bd565b60043d036004823e80513d602482011167ffffffffffffffff8211171561440f575050614462565b808201805167ffffffffffffffff81111561442d5750505050614462565b80602083010160043d03850181111561444a575050505050614462565b61445982602001850186613b49565b82955050505050505b90565b61446e81613a54565b811461447957600080fd5b50565b61448581613a66565b811461449057600080fd5b50565b61449c81613a72565b81146144a757600080fd5b50565b6144b381613abe565b81146144be57600080fd5b5056fea2646970667358221220fef49c177f732d2aedfb6b80aa3af7a03de8727e0777048bed5bfeee4f3f6f3664736f6c63430008070033",
  "linkReferences": {},
  "deployedLinkReferences": {}
}