{
  "_format": "hh-sol-artifact-1",
  "contractName": "GameItems",
  "sourceName": "contracts/GameItems.sol",
  "abi": [
    {
      "inputs": [
        {
          "components": [
            {
              "internalType": "uint256",
              "name": "_numAthletes",
              "type": "uint256"
            },
            {
              "internalType": "uint256",
              "name": "_nftPerAthlete",
              "type": "uint256"
            },
            {
              "internalType": "uint256",
              "name": "_starterPackSize",
              "type": "uint256"
            },
            {
              "internalType": "uint256",
              "name": "_boosterPackSize",
              "type": "uint256"
            },
            {
              "internalType": "uint256",
              "name": "_maxStarterPackBalance",
              "type": "uint256"
            },
            {
              "internalType": "uint256",
              "name": "_maxBoosterPackBalance",
              "type": "uint256"
            },
            {
              "internalType": "uint256",
              "name": "_maxPacks",
              "type": "uint256"
            },
            {
              "internalType": "uint256",
              "name": "_revealTimestamp",
              "type": "uint256"
            }
          ],
          "internalType": "struct GameItems.Parameters",
          "name": "params",
          "type": "tuple"
        },
        {
          "internalType": "string",
          "name": "_athleteURI",
          "type": "string"
        },
        {
          "internalType": "string",
          "name": "_starterPackURI",
          "type": "string"
        },
        {
          "internalType": "string",
          "name": "_boosterPackURI",
          "type": "string"
        }
      ],
      "stateMutability": "nonpayable",
      "type": "constructor"
    },
    {
      "anonymous": false,
      "inputs": [
        {
          "indexed": true,
          "internalType": "address",
          "name": "account",
          "type": "address"
        },
        {
          "indexed": true,
          "internalType": "address",
          "name": "operator",
          "type": "address"
        },
        {
          "indexed": false,
          "internalType": "bool",
          "name": "approved",
          "type": "bool"
        }
      ],
      "name": "ApprovalForAll",
      "type": "event"
    },
    {
      "anonymous": false,
      "inputs": [
        {
          "indexed": true,
          "internalType": "address",
          "name": "previousOwner",
          "type": "address"
        },
        {
          "indexed": true,
          "internalType": "address",
          "name": "newOwner",
          "type": "address"
        }
      ],
      "name": "OwnershipTransferred",
      "type": "event"
    },
    {
      "anonymous": false,
      "inputs": [
        {
          "indexed": true,
          "internalType": "address",
          "name": "operator",
          "type": "address"
        },
        {
          "indexed": true,
          "internalType": "address",
          "name": "from",
          "type": "address"
        },
        {
          "indexed": true,
          "internalType": "address",
          "name": "to",
          "type": "address"
        },
        {
          "indexed": false,
          "internalType": "uint256[]",
          "name": "ids",
          "type": "uint256[]"
        },
        {
          "indexed": false,
          "internalType": "uint256[]",
          "name": "values",
          "type": "uint256[]"
        }
      ],
      "name": "TransferBatch",
      "type": "event"
    },
    {
      "anonymous": false,
      "inputs": [
        {
          "indexed": true,
          "internalType": "address",
          "name": "operator",
          "type": "address"
        },
        {
          "indexed": true,
          "internalType": "address",
          "name": "from",
          "type": "address"
        },
        {
          "indexed": true,
          "internalType": "address",
          "name": "to",
          "type": "address"
        },
        {
          "indexed": false,
          "internalType": "uint256",
          "name": "id",
          "type": "uint256"
        },
        {
          "indexed": false,
          "internalType": "uint256",
          "name": "value",
          "type": "uint256"
        }
      ],
      "name": "TransferSingle",
      "type": "event"
    },
    {
      "anonymous": false,
      "inputs": [
        {
          "indexed": false,
          "internalType": "string",
          "name": "value",
          "type": "string"
        },
        {
          "indexed": true,
          "internalType": "uint256",
          "name": "id",
          "type": "uint256"
        }
      ],
      "name": "URI",
      "type": "event"
    },
    {
      "anonymous": false,
      "inputs": [
        {
          "indexed": false,
          "internalType": "address",
          "name": "user",
          "type": "address"
        },
        {
          "indexed": false,
          "internalType": "uint256",
          "name": "id",
          "type": "uint256"
        }
      ],
      "name": "packMinted",
      "type": "event"
    },
    {
      "inputs": [],
      "name": "REVEAL_TIMESTAMP",
      "outputs": [
        {
          "internalType": "uint256",
          "name": "",
          "type": "uint256"
        }
      ],
      "stateMutability": "view",
      "type": "function"
    },
    {
      "inputs": [
        {
          "internalType": "address",
          "name": "account",
          "type": "address"
        },
        {
          "internalType": "uint256",
          "name": "id",
          "type": "uint256"
        }
      ],
      "name": "balanceOf",
      "outputs": [
        {
          "internalType": "uint256",
          "name": "",
          "type": "uint256"
        }
      ],
      "stateMutability": "view",
      "type": "function"
    },
    {
      "inputs": [
        {
          "internalType": "address[]",
          "name": "accounts",
          "type": "address[]"
        },
        {
          "internalType": "uint256[]",
          "name": "ids",
          "type": "uint256[]"
        }
      ],
      "name": "balanceOfBatch",
      "outputs": [
        {
          "internalType": "uint256[]",
          "name": "",
          "type": "uint256[]"
        }
      ],
      "stateMutability": "view",
      "type": "function"
    },
    {
      "inputs": [],
      "name": "burnBoosterPack",
      "outputs": [],
      "stateMutability": "nonpayable",
      "type": "function"
    },
    {
      "inputs": [
        {
          "internalType": "uint256[5]",
          "name": "indices",
          "type": "uint256[5]"
        }
      ],
      "name": "burnStarterPack",
      "outputs": [],
      "stateMutability": "nonpayable",
      "type": "function"
    },
    {
      "inputs": [],
      "name": "emergencySetStartingIndexBlock",
      "outputs": [],
      "stateMutability": "nonpayable",
      "type": "function"
    },
    {
      "inputs": [],
      "name": "getNFTPerAthlete",
      "outputs": [
        {
          "internalType": "uint256",
          "name": "",
          "type": "uint256"
        }
      ],
      "stateMutability": "view",
      "type": "function"
    },
    {
      "inputs": [
        {
          "internalType": "address",
          "name": "account",
          "type": "address"
        },
        {
          "internalType": "address",
          "name": "operator",
          "type": "address"
        }
      ],
      "name": "isApprovedForAll",
      "outputs": [
        {
          "internalType": "bool",
          "name": "",
          "type": "bool"
        }
      ],
      "stateMutability": "view",
      "type": "function"
    },
    {
      "inputs": [],
      "name": "mintBoosterPack",
      "outputs": [],
      "stateMutability": "nonpayable",
      "type": "function"
    },
    {
      "inputs": [],
      "name": "mintStarterPack",
      "outputs": [],
      "stateMutability": "nonpayable",
      "type": "function"
    },
    {
      "inputs": [],
      "name": "owner",
      "outputs": [
        {
          "internalType": "address",
          "name": "",
          "type": "address"
        }
      ],
      "stateMutability": "view",
      "type": "function"
    },
    {
      "inputs": [],
      "name": "packsReadyToOpen",
      "outputs": [
        {
          "internalType": "bool",
          "name": "",
          "type": "bool"
        }
      ],
      "stateMutability": "view",
      "type": "function"
    },
    {
      "inputs": [],
      "name": "renounceOwnership",
      "outputs": [],
      "stateMutability": "nonpayable",
      "type": "function"
    },
    {
      "inputs": [
        {
          "internalType": "address",
          "name": "from",
          "type": "address"
        },
        {
          "internalType": "address",
          "name": "to",
          "type": "address"
        },
        {
          "internalType": "uint256[]",
          "name": "ids",
          "type": "uint256[]"
        },
        {
          "internalType": "uint256[]",
          "name": "amounts",
          "type": "uint256[]"
        },
        {
          "internalType": "bytes",
          "name": "data",
          "type": "bytes"
        }
      ],
      "name": "safeBatchTransferFrom",
      "outputs": [],
      "stateMutability": "nonpayable",
      "type": "function"
    },
    {
      "inputs": [
        {
          "internalType": "address",
          "name": "from",
          "type": "address"
        },
        {
          "internalType": "address",
          "name": "to",
          "type": "address"
        },
        {
          "internalType": "uint256",
          "name": "id",
          "type": "uint256"
        },
        {
          "internalType": "uint256",
          "name": "amount",
          "type": "uint256"
        },
        {
          "internalType": "bytes",
          "name": "data",
          "type": "bytes"
        }
      ],
      "name": "safeTransferFrom",
      "outputs": [],
      "stateMutability": "nonpayable",
      "type": "function"
    },
    {
      "inputs": [
        {
          "internalType": "address",
          "name": "operator",
          "type": "address"
        },
        {
          "internalType": "bool",
          "name": "approved",
          "type": "bool"
        }
      ],
      "name": "setApprovalForAll",
      "outputs": [],
      "stateMutability": "nonpayable",
      "type": "function"
    },
    {
      "inputs": [],
      "name": "setPacksReady",
      "outputs": [],
      "stateMutability": "nonpayable",
      "type": "function"
    },
    {
      "inputs": [
        {
          "internalType": "string",
          "name": "provenanceHash",
          "type": "string"
        }
      ],
      "name": "setProvenanceHash",
      "outputs": [],
      "stateMutability": "nonpayable",
      "type": "function"
    },
    {
      "inputs": [],
      "name": "setStartingIndex",
      "outputs": [],
      "stateMutability": "nonpayable",
      "type": "function"
    },
    {
      "inputs": [
        {
          "internalType": "uint256",
          "name": "tokenId",
          "type": "uint256"
        },
        {
          "internalType": "string",
          "name": "uri",
          "type": "string"
        }
      ],
      "name": "setTokenUri",
      "outputs": [],
      "stateMutability": "nonpayable",
      "type": "function"
    },
    {
      "inputs": [],
      "name": "setURIs",
      "outputs": [],
      "stateMutability": "nonpayable",
      "type": "function"
    },
    {
      "inputs": [
        {
          "internalType": "bytes4",
          "name": "interfaceId",
          "type": "bytes4"
        }
      ],
      "name": "supportsInterface",
      "outputs": [
        {
          "internalType": "bool",
          "name": "",
          "type": "bool"
        }
      ],
      "stateMutability": "view",
      "type": "function"
    },
    {
      "inputs": [
        {
          "internalType": "address",
          "name": "newOwner",
          "type": "address"
        }
      ],
      "name": "transferOwnership",
      "outputs": [],
      "stateMutability": "nonpayable",
      "type": "function"
    },
    {
      "inputs": [
        {
          "internalType": "uint256",
          "name": "tokenId",
          "type": "uint256"
        }
      ],
      "name": "uri",
      "outputs": [
        {
          "internalType": "string",
          "name": "",
          "type": "string"
        }
      ],
      "stateMutability": "view",
      "type": "function"
    }
  ],
  "bytecode": "0x6080604052612710600f556001601060086101000a81548160ff0219169083151502179055506008546011556011546012556040518060400160405280601581526020017f68747470733a2f2f697066732e696f2f697066732f0000000000000000000000815250601690805190602001906200007e929190620003ca565b506040518060200160405280600081525060199080519060200190620000a6929190620003ca565b50348015620000b457600080fd5b5060405162005169380380620051698339818101604052810190620000da9190620005ee565b60405180602001604052806000815250620000fb816200021460201b60201c565b506200011c620001106200023060201b60201c565b6200023860201b60201c565b620001676040518060400160405280601281526020017f4d616b696e6720636f6e74726163742e2e2e0000000000000000000000000000815250620002fe60201b620014751760201c565b836000015160088190555083602001516009819055508360400151600a819055508360600151600b819055508360800151600c819055508360a00151600d819055508360c00151600e819055508260059080519060200190620001cc929190620003ca565b508160069080519060200190620001e5929190620003ca565b508060079080519060200190620001fe929190620003ca565b508360e00151600f8190555050505050620008ef565b80600290805190602001906200022c929190620003ca565b5050565b600033905090565b6000600360009054906101000a900473ffffffffffffffffffffffffffffffffffffffff16905081600360006101000a81548173ffffffffffffffffffffffffffffffffffffffff021916908373ffffffffffffffffffffffffffffffffffffffff1602179055508173ffffffffffffffffffffffffffffffffffffffff168173ffffffffffffffffffffffffffffffffffffffff167f8be0079c531659141344cd1fd0a4f28419497f9722a3daafe3b4186f6b6457e060405160405180910390a35050565b6200039e8160405160240162000315919062000702565b6040516020818303038152906040527f41304fac000000000000000000000000000000000000000000000000000000007bffffffffffffffffffffffffffffffffffffffffffffffffffffffff19166020820180517bffffffffffffffffffffffffffffffffffffffffffffffffffffffff8381831617835250505050620003a160201b60201c565b50565b60008151905060006a636f6e736f6c652e6c6f679050602083016000808483855afa5050505050565b828054620003d890620007e1565b90600052602060002090601f016020900481019282620003fc576000855562000448565b82601f106200041757805160ff191683800117855562000448565b8280016001018555821562000448579182015b82811115620004475782518255916020019190600101906200042a565b5b5090506200045791906200045b565b5090565b5b80821115620004765760008160009055506001016200045c565b5090565b6000620004916200048b846200074f565b62000726565b905082815260208101848484011115620004b057620004af620008b5565b5b620004bd848285620007ab565b509392505050565b600082601f830112620004dd57620004dc620008ab565b5b8151620004ef8482602086016200047a565b91505092915050565b60006101008284031215620005125762000511620008b0565b5b6200051f61010062000726565b905060006200053184828501620005d7565b60008301525060206200054784828501620005d7565b60208301525060406200055d84828501620005d7565b60408301525060606200057384828501620005d7565b60608301525060806200058984828501620005d7565b60808301525060a06200059f84828501620005d7565b60a08301525060c0620005b584828501620005d7565b60c08301525060e0620005cb84828501620005d7565b60e08301525092915050565b600081519050620005e881620008d5565b92915050565b60008060008061016085870312156200060c576200060b620008bf565b5b60006200061c87828801620004f8565b94505061010085015167ffffffffffffffff811115620006415762000640620008ba565b5b6200064f87828801620004c5565b93505061012085015167ffffffffffffffff811115620006745762000673620008ba565b5b6200068287828801620004c5565b92505061014085015167ffffffffffffffff811115620006a757620006a6620008ba565b5b620006b587828801620004c5565b91505092959194509250565b6000620006ce8262000785565b620006da818562000790565b9350620006ec818560208601620007ab565b620006f781620008c4565b840191505092915050565b600060208201905081810360008301526200071e8184620006c1565b905092915050565b60006200073262000745565b905062000740828262000817565b919050565b6000604051905090565b600067ffffffffffffffff8211156200076d576200076c6200087c565b5b6200077882620008c4565b9050602081019050919050565b600081519050919050565b600082825260208201905092915050565b6000819050919050565b60005b83811015620007cb578082015181840152602081019050620007ae565b83811115620007db576000848401525b50505050565b60006002820490506001821680620007fa57607f821691505b602082108114156200081157620008106200084d565b5b50919050565b6200082282620008c4565b810181811067ffffffffffffffff821117156200084457620008436200087c565b5b80604052505050565b7f4e487b7100000000000000000000000000000000000000000000000000000000600052602260045260246000fd5b7f4e487b7100000000000000000000000000000000000000000000000000000000600052604160045260246000fd5b600080fd5b600080fd5b600080fd5b600080fd5b600080fd5b6000601f19601f8301169050919050565b620008e081620007a1565b8114620008ec57600080fd5b50565b61486a80620008ff6000396000f3fe608060405234801561001057600080fd5b50600436106101575760003560e01c806360722d40116100c3578063a22cb4651161007c578063a22cb4651461032c578063be59ec2614610348578063e985e9c514610366578063e986655014610396578063f242432a146103a0578063f2fde38b146103bc57610157565b806360722d40146102ca578063715018a6146102e657806375223f92146102f05780637d17fcbe146102fa5780638da5cb5b146103045780639ebf488b1461032257610157565b806319b604391161011557806319b60439146102445780632eb2c2d61461024e5780634e1273f41461026a5780634f3551d71461029a57806357f7789e146102a45780635d2db2bf146102c057610157565b8062fdd58e1461015c57806301ffc9a71461018c5780630e89341c146101bc57806310969523146101ec578063143cc1441461020857806318e20a3814610226575b600080fd5b61017660048036038101906101719190612ea2565b6103d8565b6040516101839190613ac1565b60405180910390f35b6101a660048036038101906101a19190612f87565b6104a1565b6040516101b39190613774565b60405180910390f35b6101d660048036038101906101d1919061302a565b610583565b6040516101e3919061378f565b60405180910390f35b61020660048036038101906102019190612fe1565b610628565b005b6102106106be565b60405161021d9190613ac1565b60405180910390f35b61022e610744565b60405161023b9190613ac1565b60405180910390f35b61024c61074a565b005b61026860048036038101906102639190612cfc565b6107f2565b005b610284600480360381019061027f9190612ee2565b610893565b604051610291919061371b565b60405180910390f35b6102a26109ac565b005b6102be60048036038101906102b99190613057565b610ab5565b005b6102c8610bbf565b005b6102e460048036038101906102df9190612f5a565b610d22565b005b6102ee610e16565b005b6102f8610e9e565b005b610302610f4b565b005b61030c611015565b6040516103199190613615565b60405180910390f35b61032a61103f565b005b61034660048036038101906103419190612e62565b611148565b005b61035061115e565b60405161035d9190613774565b60405180910390f35b610380600480360381019061037b9190612cbc565b611171565b60405161038d9190613774565b60405180910390f35b61039e611205565b005b6103ba60048036038101906103b59190612dcb565b6112dc565b005b6103d660048036038101906103d19190612c8f565b61137d565b005b60008073ffffffffffffffffffffffffffffffffffffffff168373ffffffffffffffffffffffffffffffffffffffff161415610449576040517f08c379a000000000000000000000000000000000000000000000000000000000815260040161044090613841565b60405180910390fd5b60008083815260200190815260200160002060008473ffffffffffffffffffffffffffffffffffffffff1673ffffffffffffffffffffffffffffffffffffffff16815260200190815260200160002054905092915050565b60007fd9b67a26000000000000000000000000000000000000000000000000000000007bffffffffffffffffffffffffffffffffffffffffffffffffffffffff1916827bffffffffffffffffffffffffffffffffffffffffffffffffffffffff1916148061056c57507f0e89341c000000000000000000000000000000000000000000000000000000007bffffffffffffffffffffffffffffffffffffffffffffffffffffffff1916827bffffffffffffffffffffffffffffffffffffffffffffffffffffffff1916145b8061057c575061057b8261150e565b5b9050919050565b6060601a600083815260200190815260200160002080546105a390613e73565b80601f01602080910402602001604051908101604052809291908181526020018280546105cf90613e73565b801561061c5780601f106105f15761010080835404028352916020019161061c565b820191906000526020600020905b8154815290600101906020018083116105ff57829003601f168201915b50505050509050919050565b610630611578565b73ffffffffffffffffffffffffffffffffffffffff1661064e611015565b73ffffffffffffffffffffffffffffffffffffffff16146106a4576040517f08c379a000000000000000000000000000000000000000000000000000000000815260040161069b906139a1565b60405180910390fd5b80601990805190602001906106ba9291906128d5565b5050565b60006106c8611578565b73ffffffffffffffffffffffffffffffffffffffff166106e6611015565b73ffffffffffffffffffffffffffffffffffffffff161461073c576040517f08c379a0000000000000000000000000000000000000000000000000000000008152600401610733906139a1565b60405180910390fd5b600954905090565b600f5481565b610752611578565b73ffffffffffffffffffffffffffffffffffffffff16610770611015565b73ffffffffffffffffffffffffffffffffffffffff16146107c6576040517f08c379a00000000000000000000000000000000000000000000000000000000081526004016107bd906139a1565b60405180910390fd5b601060089054906101000a900460ff1615601060086101000a81548160ff021916908315150217905550565b6107fa611578565b73ffffffffffffffffffffffffffffffffffffffff168573ffffffffffffffffffffffffffffffffffffffff161480610840575061083f8561083a611578565b611171565b5b61087f576040517f08c379a000000000000000000000000000000000000000000000000000000000815260040161087690613921565b60405180910390fd5b61088c8585858585611580565b5050505050565b606081518351146108d9576040517f08c379a00000000000000000000000000000000000000000000000000000000081526004016108d090613a61565b60405180910390fd5b6000835167ffffffffffffffff8111156108f6576108f5614036565b5b6040519080825280602002602001820160405280156109245781602001602082028036833780820191505090505b50905060005b84518110156109a15761097185828151811061094957610948614007565b5b602002602001015185838151811061096457610963614007565b5b60200260200101516103d8565b82828151811061098457610983614007565b5b6020026020010181815250508061099a90613ed6565b905061092a565b508091505092915050565b600e54601454106109f2576040517f08c379a00000000000000000000000000000000000000000000000000000000081526004016109e9906139e1565b60405180910390fd5b6001610a00336011546103d8565b10610a40576040517f08c379a0000000000000000000000000000000000000000000000000000000008152600401610a3790613a21565b60405180910390fd5b610a5e33601254600160405180602001604052806000815250611894565b600160146000828254610a719190613c9b565b925050819055507f2e0f4d63dcc00e6a11c8aef9f6e15c1f9cd6e9a090b2dd99c7b797f1a28d300d33601454604051610aab9291906136f2565b60405180910390a1565b610abd611578565b73ffffffffffffffffffffffffffffffffffffffff16610adb611015565b73ffffffffffffffffffffffffffffffffffffffff1614610b31576040517f08c379a0000000000000000000000000000000000000000000000000000000008152600401610b28906139a1565b60405180910390fd5b6000601a60008481526020019081526020016000208054610b5190613e73565b905014610b93576040517f08c379a0000000000000000000000000000000000000000000000000000000008152600401610b8a90613941565b60405180910390fd5b80601a60008481526020019081526020016000209080519060200190610bba9291906128d5565b505050565b610bc7611578565b73ffffffffffffffffffffffffffffffffffffffff16610be5611015565b73ffffffffffffffffffffffffffffffffffffffff1614610c3b576040517f08c379a0000000000000000000000000000000000000000000000000000000008152600401610c32906139a1565b60405180910390fd5b60005b600854811015610caf57600060085482601854610c5b9190613c9b565b610c659190613f49565b9050610c9b816005610c7684611a2a565b604051602001610c879291906135e6565b604051602081830303815290604052610ab5565b508080610ca790613ed6565b915050610c3e565b50610ce86001600854610cc29190613c9b565b6006604051602001610cd491906135cf565b604051602081830303815290604052610ab5565b610d206002600854610cfa9190613c9b565b6007604051602001610d0c91906135cf565b604051602081830303815290604052610ab5565b565b601060089054906101000a900460ff16610d71576040517f08c379a0000000000000000000000000000000000000000000000000000000008152600401610d6890613a01565b60405180910390fd5b6001610d7f336011546103d8565b14610dbf576040517f08c379a0000000000000000000000000000000000000000000000000000000008152600401610db6906139c1565b60405180910390fd5b60005b60058160ff161015610e0457610df1828260ff1660058110610de757610de6614007565b5b6020020151611b8b565b8080610dfc90613f1f565b915050610dc2565b50610e13336011546001611cc5565b50565b610e1e611578565b73ffffffffffffffffffffffffffffffffffffffff16610e3c611015565b73ffffffffffffffffffffffffffffffffffffffff1614610e92576040517f08c379a0000000000000000000000000000000000000000000000000000000008152600401610e89906139a1565b60405180910390fd5b610e9c6000611ee2565b565b601060089054906101000a900460ff16610eed576040517f08c379a0000000000000000000000000000000000000000000000000000000008152600401610ee490613a01565b60405180910390fd5b6000610efb336012546103d8565b11610f3b576040517f08c379a0000000000000000000000000000000000000000000000000000000008152600401610f3290613821565b60405180910390fd5b610f49336012546001611cc5565b565b610f53611578565b73ffffffffffffffffffffffffffffffffffffffff16610f71611015565b73ffffffffffffffffffffffffffffffffffffffff1614610fc7576040517f08c379a0000000000000000000000000000000000000000000000000000000008152600401610fbe906139a1565b60405180910390fd5b60006018541461100c576040517f08c379a0000000000000000000000000000000000000000000000000000000008152600401611003906138e1565b60405180910390fd5b43601781905550565b6000600360009054906101000a900473ffffffffffffffffffffffffffffffffffffffff16905090565b600e5460135410611085576040517f08c379a000000000000000000000000000000000000000000000000000000000815260040161107c906139e1565b60405180910390fd5b6001611093336011546103d8565b106110d3576040517f08c379a00000000000000000000000000000000000000000000000000000000081526004016110ca90613a21565b60405180910390fd5b6110f133601154600160405180602001604052806000815250611894565b6001601360008282546111049190613c9b565b925050819055507f2e0f4d63dcc00e6a11c8aef9f6e15c1f9cd6e9a090b2dd99c7b797f1a28d300d3360135460405161113e9291906136f2565b60405180910390a1565b61115a611153611578565b8383611fa8565b5050565b601060089054906101000a900460ff1681565b6000600160008473ffffffffffffffffffffffffffffffffffffffff1673ffffffffffffffffffffffffffffffffffffffff16815260200190815260200160002060008373ffffffffffffffffffffffffffffffffffffffff1673ffffffffffffffffffffffffffffffffffffffff16815260200190815260200160002060009054906101000a900460ff16905092915050565b61120d611578565b73ffffffffffffffffffffffffffffffffffffffff1661122b611015565b73ffffffffffffffffffffffffffffffffffffffff1614611281576040517f08c379a0000000000000000000000000000000000000000000000000000000008152600401611278906139a1565b60405180910390fd5b6009546008546112919190613d22565b60014361129e9190613d7c565b4060001c6112ac9190613f49565b601881905550600060185414156112da576112d3600160185461211590919063ffffffff16565b6018819055505b565b6112e4611578565b73ffffffffffffffffffffffffffffffffffffffff168573ffffffffffffffffffffffffffffffffffffffff16148061132a575061132985611324611578565b611171565b5b611369576040517f08c379a0000000000000000000000000000000000000000000000000000000008152600401611360906138a1565b60405180910390fd5b611376858585858561212b565b5050505050565b611385611578565b73ffffffffffffffffffffffffffffffffffffffff166113a3611015565b73ffffffffffffffffffffffffffffffffffffffff16146113f9576040517f08c379a00000000000000000000000000000000000000000000000000000000081526004016113f0906139a1565b60405180910390fd5b600073ffffffffffffffffffffffffffffffffffffffff168173ffffffffffffffffffffffffffffffffffffffff161415611469576040517f08c379a000000000000000000000000000000000000000000000000000000000815260040161146090613861565b60405180910390fd5b61147281611ee2565b50565b61150b81604051602401611489919061378f565b6040516020818303038152906040527f41304fac000000000000000000000000000000000000000000000000000000007bffffffffffffffffffffffffffffffffffffffffffffffffffffffff19166020820180517bffffffffffffffffffffffffffffffffffffffffffffffffffffffff83818316178352505050506123ad565b50565b60007f01ffc9a7000000000000000000000000000000000000000000000000000000007bffffffffffffffffffffffffffffffffffffffffffffffffffffffff1916827bffffffffffffffffffffffffffffffffffffffffffffffffffffffff1916149050919050565b600033905090565b81518351146115c4576040517f08c379a00000000000000000000000000000000000000000000000000000000081526004016115bb90613a81565b60405180910390fd5b600073ffffffffffffffffffffffffffffffffffffffff168473ffffffffffffffffffffffffffffffffffffffff161415611634576040517f08c379a000000000000000000000000000000000000000000000000000000000815260040161162b90613901565b60405180910390fd5b600061163e611578565b905061164e8187878787876123d6565b60005b84518110156117ff57600085828151811061166f5761166e614007565b5b60200260200101519050600085838151811061168e5761168d614007565b5b60200260200101519050600080600084815260200190815260200160002060008b73ffffffffffffffffffffffffffffffffffffffff1673ffffffffffffffffffffffffffffffffffffffff1681526020019081526020016000205490508181101561172f576040517f08c379a000000000000000000000000000000000000000000000000000000000815260040161172690613981565b60405180910390fd5b81810360008085815260200190815260200160002060008c73ffffffffffffffffffffffffffffffffffffffff1673ffffffffffffffffffffffffffffffffffffffff168152602001908152602001600020819055508160008085815260200190815260200160002060008b73ffffffffffffffffffffffffffffffffffffffff1673ffffffffffffffffffffffffffffffffffffffff16815260200190815260200160002060008282546117e49190613c9b565b92505081905550505050806117f890613ed6565b9050611651565b508473ffffffffffffffffffffffffffffffffffffffff168673ffffffffffffffffffffffffffffffffffffffff168273ffffffffffffffffffffffffffffffffffffffff167f4a39dc06d4c0dbc64b70af90fd698a233a518aa5d07e595d983b8c0526c8f7fb878760405161187692919061373d565b60405180910390a461188c8187878787876123de565b505050505050565b600073ffffffffffffffffffffffffffffffffffffffff168473ffffffffffffffffffffffffffffffffffffffff161415611904576040517f08c379a00000000000000000000000000000000000000000000000000000000081526004016118fb90613aa1565b60405180910390fd5b600061190e611578565b905061192f81600087611920886125c5565b611929886125c5565b876123d6565b8260008086815260200190815260200160002060008773ffffffffffffffffffffffffffffffffffffffff1673ffffffffffffffffffffffffffffffffffffffff168152602001908152602001600020600082825461198e9190613c9b565b925050819055508473ffffffffffffffffffffffffffffffffffffffff16600073ffffffffffffffffffffffffffffffffffffffff168273ffffffffffffffffffffffffffffffffffffffff167fc3d58168c5ae7397731d063d5bbf3d657854427343f4c083240f7aacaa2d0f628787604051611a0c929190613adc565b60405180910390a4611a238160008787878761263f565b5050505050565b60606000821415611a72576040518060400160405280600181526020017f30000000000000000000000000000000000000000000000000000000000000008152509050611b86565b600082905060005b60008214611aa4578080611a8d90613ed6565b915050600a82611a9d9190613cf1565b9150611a7a565b60008167ffffffffffffffff811115611ac057611abf614036565b5b6040519080825280601f01601f191660200182016040528015611af25781602001600182028036833780820191505090505b5090505b60008514611b7f57600182611b0b9190613d7c565b9150600a85611b1a9190613f49565b6030611b269190613c9b565b60f81b818381518110611b3c57611b3b614007565b5b60200101907effffffffffffffffffffffffffffffffffffffffffffffffffffffffffffff1916908160001a905350600a85611b789190613cf1565b9450611af6565b8093505050505b919050565b611bca6040518060400160405280600b81526020017f4d696e7420696e6465782000000000000000000000000000000000000000000081525082612826565b600954600854611bda9190613d22565b6015541015611cc257600954601b60008381526020019081526020016000205410611c3a576040517f08c379a0000000000000000000000000000000000000000000000000000000008152600401611c31906138c1565b60405180910390fd5b611c7c338260016040518060400160405280600481526020017f3078303000000000000000000000000000000000000000000000000000000000815250611894565b6001601b60008381526020019081526020016000206000828254611ca09190613c9b565b92505081905550600160156000828254611cba9190613c9b565b925050819055505b50565b600073ffffffffffffffffffffffffffffffffffffffff168373ffffffffffffffffffffffffffffffffffffffff161415611d35576040517f08c379a0000000000000000000000000000000000000000000000000000000008152600401611d2c90613961565b60405180910390fd5b6000611d3f611578565b9050611d6f81856000611d51876125c5565b611d5a876125c5565b604051806020016040528060008152506123d6565b600080600085815260200190815260200160002060008673ffffffffffffffffffffffffffffffffffffffff1673ffffffffffffffffffffffffffffffffffffffff16815260200190815260200160002054905082811015611e06576040517f08c379a0000000000000000000000000000000000000000000000000000000008152600401611dfd90613881565b60405180910390fd5b82810360008086815260200190815260200160002060008773ffffffffffffffffffffffffffffffffffffffff1673ffffffffffffffffffffffffffffffffffffffff16815260200190815260200160002081905550600073ffffffffffffffffffffffffffffffffffffffff168573ffffffffffffffffffffffffffffffffffffffff168373ffffffffffffffffffffffffffffffffffffffff167fc3d58168c5ae7397731d063d5bbf3d657854427343f4c083240f7aacaa2d0f628787604051611ed3929190613adc565b60405180910390a45050505050565b6000600360009054906101000a900473ffffffffffffffffffffffffffffffffffffffff16905081600360006101000a81548173ffffffffffffffffffffffffffffffffffffffff021916908373ffffffffffffffffffffffffffffffffffffffff1602179055508173ffffffffffffffffffffffffffffffffffffffff168173ffffffffffffffffffffffffffffffffffffffff167f8be0079c531659141344cd1fd0a4f28419497f9722a3daafe3b4186f6b6457e060405160405180910390a35050565b8173ffffffffffffffffffffffffffffffffffffffff168373ffffffffffffffffffffffffffffffffffffffff161415612017576040517f08c379a000000000000000000000000000000000000000000000000000000000815260040161200e90613a41565b60405180910390fd5b80600160008573ffffffffffffffffffffffffffffffffffffffff1673ffffffffffffffffffffffffffffffffffffffff16815260200190815260200160002060008473ffffffffffffffffffffffffffffffffffffffff1673ffffffffffffffffffffffffffffffffffffffff16815260200190815260200160002060006101000a81548160ff0219169083151502179055508173ffffffffffffffffffffffffffffffffffffffff168373ffffffffffffffffffffffffffffffffffffffff167f17307eab39ab6107e8899845ad3d59bd9653f200f220920489ca2b5937696c31836040516121089190613774565b60405180910390a3505050565b600081836121239190613c9b565b905092915050565b600073ffffffffffffffffffffffffffffffffffffffff168473ffffffffffffffffffffffffffffffffffffffff16141561219b576040517f08c379a000000000000000000000000000000000000000000000000000000000815260040161219290613901565b60405180910390fd5b60006121a5611578565b90506121c58187876121b6886125c5565b6121bf886125c5565b876123d6565b600080600086815260200190815260200160002060008873ffffffffffffffffffffffffffffffffffffffff1673ffffffffffffffffffffffffffffffffffffffff1681526020019081526020016000205490508381101561225c576040517f08c379a000000000000000000000000000000000000000000000000000000000815260040161225390613981565b60405180910390fd5b83810360008087815260200190815260200160002060008973ffffffffffffffffffffffffffffffffffffffff1673ffffffffffffffffffffffffffffffffffffffff168152602001908152602001600020819055508360008087815260200190815260200160002060008873ffffffffffffffffffffffffffffffffffffffff1673ffffffffffffffffffffffffffffffffffffffff16815260200190815260200160002060008282546123119190613c9b565b925050819055508573ffffffffffffffffffffffffffffffffffffffff168773ffffffffffffffffffffffffffffffffffffffff168373ffffffffffffffffffffffffffffffffffffffff167fc3d58168c5ae7397731d063d5bbf3d657854427343f4c083240f7aacaa2d0f62888860405161238e929190613adc565b60405180910390a46123a482888888888861263f565b50505050505050565b60008151905060006a636f6e736f6c652e6c6f679050602083016000808483855afa5050505050565b505050505050565b6123fd8473ffffffffffffffffffffffffffffffffffffffff166128c2565b156125bd578373ffffffffffffffffffffffffffffffffffffffff1663bc197c8187878686866040518663ffffffff1660e01b8152600401612443959493929190613630565b602060405180830381600087803b15801561245d57600080fd5b505af192505050801561248e57506040513d601f19601f8201168201806040525081019061248b9190612fb4565b60015b6125345761249a614065565b806308c379a014156124f757506124af614742565b806124ba57506124f9565b806040517f08c379a00000000000000000000000000000000000000000000000000000000081526004016124ee919061378f565b60405180910390fd5b505b6040517f08c379a000000000000000000000000000000000000000000000000000000000815260040161252b906137e1565b60405180910390fd5b63bc197c8160e01b7bffffffffffffffffffffffffffffffffffffffffffffffffffffffff1916817bffffffffffffffffffffffffffffffffffffffffffffffffffffffff1916146125bb576040517f08c379a00000000000000000000000000000000000000000000000000000000081526004016125b290613801565b60405180910390fd5b505b505050505050565b60606000600167ffffffffffffffff8111156125e4576125e3614036565b5b6040519080825280602002602001820160405280156126125781602001602082028036833780820191505090505b509050828160008151811061262a57612629614007565b5b60200260200101818152505080915050919050565b61265e8473ffffffffffffffffffffffffffffffffffffffff166128c2565b1561281e578373ffffffffffffffffffffffffffffffffffffffff1663f23a6e6187878686866040518663ffffffff1660e01b81526004016126a4959493929190613698565b602060405180830381600087803b1580156126be57600080fd5b505af19250505080156126ef57506040513d601f19601f820116820180604052508101906126ec9190612fb4565b60015b612795576126fb614065565b806308c379a014156127585750612710614742565b8061271b575061275a565b806040517f08c379a000000000000000000000000000000000000000000000000000000000815260040161274f919061378f565b60405180910390fd5b505b6040517f08c379a000000000000000000000000000000000000000000000000000000000815260040161278c906137e1565b60405180910390fd5b63f23a6e6160e01b7bffffffffffffffffffffffffffffffffffffffffffffffffffffffff1916817bffffffffffffffffffffffffffffffffffffffffffffffffffffffff19161461281c576040517f08c379a000000000000000000000000000000000000000000000000000000000815260040161281390613801565b60405180910390fd5b505b505050505050565b6128be828260405160240161283c9291906137b1565b6040516020818303038152906040527f9710a9d0000000000000000000000000000000000000000000000000000000007bffffffffffffffffffffffffffffffffffffffffffffffffffffffff19166020820180517bffffffffffffffffffffffffffffffffffffffffffffffffffffffff83818316178352505050506123ad565b5050565b600080823b905060008111915050919050565b8280546128e190613e73565b90600052602060002090601f016020900481019282612903576000855561294a565b82601f1061291c57805160ff191683800117855561294a565b8280016001018555821561294a579182015b8281111561294957825182559160200191906001019061292e565b5b509050612957919061295b565b5090565b5b8082111561297457600081600090555060010161295c565b5090565b600061298b61298684613b2a565b613b05565b905080838252602082019050828560208602820111156129ae576129ad61408c565b5b60005b858110156129de57816129c48882612b43565b8452602084019350602083019250506001810190506129b1565b5050509392505050565b60006129fb6129f684613b56565b613b05565b90508082856020860282011115612a1557612a1461408c565b5b60005b85811015612a455781612a2b8882612c7a565b845260208401935060208301925050600181019050612a18565b5050509392505050565b6000612a62612a5d84613b7c565b613b05565b90508083825260208201905082856020860282011115612a8557612a8461408c565b5b60005b85811015612ab55781612a9b8882612c7a565b845260208401935060208301925050600181019050612a88565b5050509392505050565b6000612ad2612acd84613ba8565b613b05565b905082815260208101848484011115612aee57612aed614091565b5b612af9848285613e31565b509392505050565b6000612b14612b0f84613bd9565b613b05565b905082815260208101848484011115612b3057612b2f614091565b5b612b3b848285613e31565b509392505050565b600081359050612b52816147d8565b92915050565b600082601f830112612b6d57612b6c614087565b5b8135612b7d848260208601612978565b91505092915050565b600082601f830112612b9b57612b9a614087565b5b6005612ba88482856129e8565b91505092915050565b600082601f830112612bc657612bc5614087565b5b8135612bd6848260208601612a4f565b91505092915050565b600081359050612bee816147ef565b92915050565b600081359050612c0381614806565b92915050565b600081519050612c1881614806565b92915050565b600082601f830112612c3357612c32614087565b5b8135612c43848260208601612abf565b91505092915050565b600082601f830112612c6157612c60614087565b5b8135612c71848260208601612b01565b91505092915050565b600081359050612c898161481d565b92915050565b600060208284031215612ca557612ca461409b565b5b6000612cb384828501612b43565b91505092915050565b60008060408385031215612cd357612cd261409b565b5b6000612ce185828601612b43565b9250506020612cf285828601612b43565b9150509250929050565b600080600080600060a08688031215612d1857612d1761409b565b5b6000612d2688828901612b43565b9550506020612d3788828901612b43565b945050604086013567ffffffffffffffff811115612d5857612d57614096565b5b612d6488828901612bb1565b935050606086013567ffffffffffffffff811115612d8557612d84614096565b5b612d9188828901612bb1565b925050608086013567ffffffffffffffff811115612db257612db1614096565b5b612dbe88828901612c1e565b9150509295509295909350565b600080600080600060a08688031215612de757612de661409b565b5b6000612df588828901612b43565b9550506020612e0688828901612b43565b9450506040612e1788828901612c7a565b9350506060612e2888828901612c7a565b925050608086013567ffffffffffffffff811115612e4957612e48614096565b5b612e5588828901612c1e565b9150509295509295909350565b60008060408385031215612e7957612e7861409b565b5b6000612e8785828601612b43565b9250506020612e9885828601612bdf565b9150509250929050565b60008060408385031215612eb957612eb861409b565b5b6000612ec785828601612b43565b9250506020612ed885828601612c7a565b9150509250929050565b60008060408385031215612ef957612ef861409b565b5b600083013567ffffffffffffffff811115612f1757612f16614096565b5b612f2385828601612b58565b925050602083013567ffffffffffffffff811115612f4457612f43614096565b5b612f5085828601612bb1565b9150509250929050565b600060a08284031215612f7057612f6f61409b565b5b6000612f7e84828501612b86565b91505092915050565b600060208284031215612f9d57612f9c61409b565b5b6000612fab84828501612bf4565b91505092915050565b600060208284031215612fca57612fc961409b565b5b6000612fd884828501612c09565b91505092915050565b600060208284031215612ff757612ff661409b565b5b600082013567ffffffffffffffff81111561301557613014614096565b5b61302184828501612c4c565b91505092915050565b6000602082840312156130405761303f61409b565b5b600061304e84828501612c7a565b91505092915050565b6000806040838503121561306e5761306d61409b565b5b600061307c85828601612c7a565b925050602083013567ffffffffffffffff81111561309d5761309c614096565b5b6130a985828601612c4c565b9150509250929050565b60006130bf83836135b1565b60208301905092915050565b6130d481613db0565b82525050565b60006130e582613c2f565b6130ef8185613c5d565b93506130fa83613c0a565b8060005b8381101561312b57815161311288826130b3565b975061311d83613c50565b9250506001810190506130fe565b5085935050505092915050565b61314181613dc2565b82525050565b600061315282613c3a565b61315c8185613c6e565b935061316c818560208601613e40565b613175816140a0565b840191505092915050565b600061318b82613c45565b6131958185613c7f565b93506131a5818560208601613e40565b6131ae816140a0565b840191505092915050565b60006131c482613c45565b6131ce8185613c90565b93506131de818560208601613e40565b80840191505092915050565b600081546131f781613e73565b6132018186613c90565b9450600182166000811461321c576001811461322d57613260565b60ff19831686528186019350613260565b61323685613c1a565b60005b8381101561325857815481890152600182019150602081019050613239565b838801955050505b50505092915050565b6000613276603483613c7f565b9150613281826140be565b604082019050919050565b6000613299602883613c7f565b91506132a48261410d565b604082019050919050565b60006132bc601b83613c7f565b91506132c78261415c565b602082019050919050565b60006132df602b83613c7f565b91506132ea82614185565b604082019050919050565b6000613302602683613c7f565b915061330d826141d4565b604082019050919050565b6000613325602483613c7f565b915061333082614223565b604082019050919050565b6000613348602983613c7f565b915061335382614272565b604082019050919050565b600061336b602d83613c7f565b9150613376826142c1565b604082019050919050565b600061338e601d83613c7f565b915061339982614310565b602082019050919050565b60006133b1602583613c7f565b91506133bc82614339565b604082019050919050565b60006133d4603283613c7f565b91506133df82614388565b604082019050919050565b60006133f7601483613c7f565b9150613402826143d7565b602082019050919050565b600061341a602383613c7f565b915061342582614400565b604082019050919050565b600061343d602a83613c7f565b91506134488261444f565b604082019050919050565b6000613460600583613c90565b915061346b8261449e565b600582019050919050565b6000613483602083613c7f565b915061348e826144c7565b602082019050919050565b60006134a6602f83613c7f565b91506134b1826144f0565b604082019050919050565b60006134c9602383613c7f565b91506134d48261453f565b604082019050919050565b60006134ec601f83613c7f565b91506134f78261458e565b602082019050919050565b600061350f602a83613c7f565b915061351a826145b7565b604082019050919050565b6000613532602983613c7f565b915061353d82614606565b604082019050919050565b6000613555602983613c7f565b915061356082614655565b604082019050919050565b6000613578602883613c7f565b9150613583826146a4565b604082019050919050565b600061359b602183613c7f565b91506135a6826146f3565b604082019050919050565b6135ba81613e1a565b82525050565b6135c981613e1a565b82525050565b60006135db82846131ea565b915081905092915050565b60006135f282856131ea565b91506135fe82846131b9565b915061360982613453565b91508190509392505050565b600060208201905061362a60008301846130cb565b92915050565b600060a08201905061364560008301886130cb565b61365260208301876130cb565b818103604083015261366481866130da565b9050818103606083015261367881856130da565b9050818103608083015261368c8184613147565b90509695505050505050565b600060a0820190506136ad60008301886130cb565b6136ba60208301876130cb565b6136c760408301866135c0565b6136d460608301856135c0565b81810360808301526136e68184613147565b90509695505050505050565b600060408201905061370760008301856130cb565b61371460208301846135c0565b9392505050565b6000602082019050818103600083015261373581846130da565b905092915050565b6000604082019050818103600083015261375781856130da565b9050818103602083015261376b81846130da565b90509392505050565b60006020820190506137896000830184613138565b92915050565b600060208201905081810360008301526137a98184613180565b905092915050565b600060408201905081810360008301526137cb8185613180565b90506137da60208301846135c0565b9392505050565b600060208201905081810360008301526137fa81613269565b9050919050565b6000602082019050818103600083015261381a8161328c565b9050919050565b6000602082019050818103600083015261383a816132af565b9050919050565b6000602082019050818103600083015261385a816132d2565b9050919050565b6000602082019050818103600083015261387a816132f5565b9050919050565b6000602082019050818103600083015261389a81613318565b9050919050565b600060208201905081810360008301526138ba8161333b565b9050919050565b600060208201905081810360008301526138da8161335e565b9050919050565b600060208201905081810360008301526138fa81613381565b9050919050565b6000602082019050818103600083015261391a816133a4565b9050919050565b6000602082019050818103600083015261393a816133c7565b9050919050565b6000602082019050818103600083015261395a816133ea565b9050919050565b6000602082019050818103600083015261397a8161340d565b9050919050565b6000602082019050818103600083015261399a81613430565b9050919050565b600060208201905081810360008301526139ba81613476565b9050919050565b600060208201905081810360008301526139da81613499565b9050919050565b600060208201905081810360008301526139fa816134bc565b9050919050565b60006020820190508181036000830152613a1a816134df565b9050919050565b60006020820190508181036000830152613a3a81613502565b9050919050565b60006020820190508181036000830152613a5a81613525565b9050919050565b60006020820190508181036000830152613a7a81613548565b9050919050565b60006020820190508181036000830152613a9a8161356b565b9050919050565b60006020820190508181036000830152613aba8161358e565b9050919050565b6000602082019050613ad660008301846135c0565b92915050565b6000604082019050613af160008301856135c0565b613afe60208301846135c0565b9392505050565b6000613b0f613b20565b9050613b1b8282613ea5565b919050565b6000604051905090565b600067ffffffffffffffff821115613b4557613b44614036565b5b602082029050602081019050919050565b600067ffffffffffffffff821115613b7157613b70614036565b5b602082029050919050565b600067ffffffffffffffff821115613b9757613b96614036565b5b602082029050602081019050919050565b600067ffffffffffffffff821115613bc357613bc2614036565b5b613bcc826140a0565b9050602081019050919050565b600067ffffffffffffffff821115613bf457613bf3614036565b5b613bfd826140a0565b9050602081019050919050565b6000819050602082019050919050565b60008190508160005260206000209050919050565b600081519050919050565b600081519050919050565b600081519050919050565b6000602082019050919050565b600082825260208201905092915050565b600082825260208201905092915050565b600082825260208201905092915050565b600081905092915050565b6000613ca682613e1a565b9150613cb183613e1a565b9250827fffffffffffffffffffffffffffffffffffffffffffffffffffffffffffffffff03821115613ce657613ce5613f7a565b5b828201905092915050565b6000613cfc82613e1a565b9150613d0783613e1a565b925082613d1757613d16613fa9565b5b828204905092915050565b6000613d2d82613e1a565b9150613d3883613e1a565b9250817fffffffffffffffffffffffffffffffffffffffffffffffffffffffffffffffff0483118215151615613d7157613d70613f7a565b5b828202905092915050565b6000613d8782613e1a565b9150613d9283613e1a565b925082821015613da557613da4613f7a565b5b828203905092915050565b6000613dbb82613dfa565b9050919050565b60008115159050919050565b60007fffffffff0000000000000000000000000000000000000000000000000000000082169050919050565b600073ffffffffffffffffffffffffffffffffffffffff82169050919050565b6000819050919050565b600060ff82169050919050565b82818337600083830152505050565b60005b83811015613e5e578082015181840152602081019050613e43565b83811115613e6d576000848401525b50505050565b60006002820490506001821680613e8b57607f821691505b60208210811415613e9f57613e9e613fd8565b5b50919050565b613eae826140a0565b810181811067ffffffffffffffff82111715613ecd57613ecc614036565b5b80604052505050565b6000613ee182613e1a565b91507fffffffffffffffffffffffffffffffffffffffffffffffffffffffffffffffff821415613f1457613f13613f7a565b5b600182019050919050565b6000613f2a82613e24565b915060ff821415613f3e57613f3d613f7a565b5b600182019050919050565b6000613f5482613e1a565b9150613f5f83613e1a565b925082613f6f57613f6e613fa9565b5b828206905092915050565b7f4e487b7100000000000000000000000000000000000000000000000000000000600052601160045260246000fd5b7f4e487b7100000000000000000000000000000000000000000000000000000000600052601260045260246000fd5b7f4e487b7100000000000000000000000000000000000000000000000000000000600052602260045260246000fd5b7f4e487b7100000000000000000000000000000000000000000000000000000000600052603260045260246000fd5b7f4e487b7100000000000000000000000000000000000000000000000000000000600052604160045260246000fd5b600060033d11156140845760046000803e6140816000516140b1565b90505b90565b600080fd5b600080fd5b600080fd5b600080fd5b600080fd5b6000601f19601f8301169050919050565b60008160e01c9050919050565b7f455243313135353a207472616e7366657220746f206e6f6e204552433131353560008201527f526563656976657220696d706c656d656e746572000000000000000000000000602082015250565b7f455243313135353a204552433131353552656365697665722072656a6563746560008201527f6420746f6b656e73000000000000000000000000000000000000000000000000602082015250565b7f4e6f2072656d61696e696e6720626f6f73746572207061636b73210000000000600082015250565b7f455243313135353a2062616c616e636520717565727920666f7220746865207a60008201527f65726f2061646472657373000000000000000000000000000000000000000000602082015250565b7f4f776e61626c653a206e6577206f776e657220697320746865207a65726f206160008201527f6464726573730000000000000000000000000000000000000000000000000000602082015250565b7f455243313135353a206275726e20616d6f756e7420657863656564732062616c60008201527f616e636500000000000000000000000000000000000000000000000000000000602082015250565b7f455243313135353a2063616c6c6572206973206e6f74206f776e6572206e6f7260008201527f20617070726f7665640000000000000000000000000000000000000000000000602082015250565b7f416c6c206f662074686973206174686c657465206861766520616c726561647960008201527f206265656e206d696e7465642100000000000000000000000000000000000000602082015250565b7f5374617274696e6720696e64657820697320616c726561647920736574000000600082015250565b7f455243313135353a207472616e7366657220746f20746865207a65726f20616460008201527f6472657373000000000000000000000000000000000000000000000000000000602082015250565b7f455243313135353a207472616e736665722063616c6c6572206973206e6f742060008201527f6f776e6572206e6f7220617070726f7665640000000000000000000000000000602082015250565b7f43616e6e6f742073657420757269207477696365000000000000000000000000600082015250565b7f455243313135353a206275726e2066726f6d20746865207a65726f206164647260008201527f6573730000000000000000000000000000000000000000000000000000000000602082015250565b7f455243313135353a20696e73756666696369656e742062616c616e636520666f60008201527f72207472616e7366657200000000000000000000000000000000000000000000602082015250565b7f2e6a736f6e000000000000000000000000000000000000000000000000000000600082015250565b7f4f776e61626c653a2063616c6c6572206973206e6f7420746865206f776e6572600082015250565b7f5061636b2068617320616c7265616479206265656e206275726e6564206f722060008201527f646f6573206e6f742065786973742e0000000000000000000000000000000000602082015250565b7f416c6c207061636b73206861766520616c7265616479206265656e206d696e7460008201527f6564210000000000000000000000000000000000000000000000000000000000602082015250565b7f5061636b73206172656e277420726561647920746f206f70656e207965742100600082015250565b7f43616e206f6e6c79206d696e74206f6e652073746172746572207061636b207060008201527f6572206163636f756e7400000000000000000000000000000000000000000000602082015250565b7f455243313135353a2073657474696e6720617070726f76616c2073746174757360008201527f20666f722073656c660000000000000000000000000000000000000000000000602082015250565b7f455243313135353a206163636f756e747320616e6420696473206c656e67746860008201527f206d69736d617463680000000000000000000000000000000000000000000000602082015250565b7f455243313135353a2069647320616e6420616d6f756e7473206c656e6774682060008201527f6d69736d61746368000000000000000000000000000000000000000000000000602082015250565b7f455243313135353a206d696e7420746f20746865207a65726f2061646472657360008201527f7300000000000000000000000000000000000000000000000000000000000000602082015250565b600060443d1015614752576147d5565b61475a613b20565b60043d036004823e80513d602482011167ffffffffffffffff821117156147825750506147d5565b808201805167ffffffffffffffff8111156147a057505050506147d5565b80602083010160043d0385018111156147bd5750505050506147d5565b6147cc82602001850186613ea5565b82955050505050505b90565b6147e181613db0565b81146147ec57600080fd5b50565b6147f881613dc2565b811461480357600080fd5b50565b61480f81613dce565b811461481a57600080fd5b50565b61482681613e1a565b811461483157600080fd5b5056fea2646970667358221220bfdafe374870741d975444969830af49da3e7d62a8f9431e46098e0e09507fb164736f6c63430008070033",
  "linkReferences": {},
  "deployedLinkReferences": {}
}