{
  "_format": "hh-sol-artifact-1",
  "contractName": "GameItems",
  "sourceName": "contracts/GameItems.sol",
  "abi": [
    {
      "inputs": [],
      "stateMutability": "nonpayable",
      "type": "constructor"
    },
    {
      "anonymous": false,
      "inputs": [
        {
          "indexed": true,
          "internalType": "address",
          "name": "account",
          "type": "address"
        },
        {
          "indexed": true,
          "internalType": "address",
          "name": "operator",
          "type": "address"
        },
        {
          "indexed": false,
          "internalType": "bool",
          "name": "approved",
          "type": "bool"
        }
      ],
      "name": "ApprovalForAll",
      "type": "event"
    },
    {
      "anonymous": false,
      "inputs": [
        {
          "indexed": true,
          "internalType": "address",
          "name": "previousOwner",
          "type": "address"
        },
        {
          "indexed": true,
          "internalType": "address",
          "name": "newOwner",
          "type": "address"
        }
      ],
      "name": "OwnershipTransferred",
      "type": "event"
    },
    {
      "anonymous": false,
      "inputs": [
        {
          "indexed": true,
          "internalType": "address",
          "name": "operator",
          "type": "address"
        },
        {
          "indexed": true,
          "internalType": "address",
          "name": "from",
          "type": "address"
        },
        {
          "indexed": true,
          "internalType": "address",
          "name": "to",
          "type": "address"
        },
        {
          "indexed": false,
          "internalType": "uint256[]",
          "name": "ids",
          "type": "uint256[]"
        },
        {
          "indexed": false,
          "internalType": "uint256[]",
          "name": "values",
          "type": "uint256[]"
        }
      ],
      "name": "TransferBatch",
      "type": "event"
    },
    {
      "anonymous": false,
      "inputs": [
        {
          "indexed": true,
          "internalType": "address",
          "name": "operator",
          "type": "address"
        },
        {
          "indexed": true,
          "internalType": "address",
          "name": "from",
          "type": "address"
        },
        {
          "indexed": true,
          "internalType": "address",
          "name": "to",
          "type": "address"
        },
        {
          "indexed": false,
          "internalType": "uint256",
          "name": "id",
          "type": "uint256"
        },
        {
          "indexed": false,
          "internalType": "uint256",
          "name": "value",
          "type": "uint256"
        }
      ],
      "name": "TransferSingle",
      "type": "event"
    },
    {
      "anonymous": false,
      "inputs": [
        {
          "indexed": false,
          "internalType": "string",
          "name": "value",
          "type": "string"
        },
        {
          "indexed": true,
          "internalType": "uint256",
          "name": "id",
          "type": "uint256"
        }
      ],
      "name": "URI",
      "type": "event"
    },
    {
      "inputs": [
        {
          "internalType": "address",
          "name": "account",
          "type": "address"
        },
        {
          "internalType": "uint256",
          "name": "id",
          "type": "uint256"
        }
      ],
      "name": "balanceOf",
      "outputs": [
        {
          "internalType": "uint256",
          "name": "",
          "type": "uint256"
        }
      ],
      "stateMutability": "view",
      "type": "function"
    },
    {
      "inputs": [
        {
          "internalType": "address[]",
          "name": "accounts",
          "type": "address[]"
        },
        {
          "internalType": "uint256[]",
          "name": "ids",
          "type": "uint256[]"
        }
      ],
      "name": "balanceOfBatch",
      "outputs": [
        {
          "internalType": "uint256[]",
          "name": "",
          "type": "uint256[]"
        }
      ],
      "stateMutability": "view",
      "type": "function"
    },
    {
      "inputs": [
        {
          "internalType": "address",
          "name": "account",
          "type": "address"
        },
        {
          "internalType": "address",
          "name": "operator",
          "type": "address"
        }
      ],
      "name": "isApprovedForAll",
      "outputs": [
        {
          "internalType": "bool",
          "name": "",
          "type": "bool"
        }
      ],
      "stateMutability": "view",
      "type": "function"
    },
    {
      "inputs": [
        {
          "internalType": "uint256",
          "name": "amount",
          "type": "uint256"
        }
      ],
      "name": "mintAthlete",
      "outputs": [],
      "stateMutability": "nonpayable",
      "type": "function"
    },
    {
      "inputs": [
        {
          "internalType": "uint256",
          "name": "initialSupply",
          "type": "uint256"
        }
      ],
      "name": "mintCurrency",
      "outputs": [],
      "stateMutability": "nonpayable",
      "type": "function"
    },
    {
      "inputs": [],
      "name": "owner",
      "outputs": [
        {
          "internalType": "address",
          "name": "",
          "type": "address"
        }
      ],
      "stateMutability": "view",
      "type": "function"
    },
    {
      "inputs": [],
      "name": "renounceOwnership",
      "outputs": [],
      "stateMutability": "nonpayable",
      "type": "function"
    },
    {
      "inputs": [
        {
          "internalType": "address",
          "name": "from",
          "type": "address"
        },
        {
          "internalType": "address",
          "name": "to",
          "type": "address"
        },
        {
          "internalType": "uint256[]",
          "name": "ids",
          "type": "uint256[]"
        },
        {
          "internalType": "uint256[]",
          "name": "amounts",
          "type": "uint256[]"
        },
        {
          "internalType": "bytes",
          "name": "data",
          "type": "bytes"
        }
      ],
      "name": "safeBatchTransferFrom",
      "outputs": [],
      "stateMutability": "nonpayable",
      "type": "function"
    },
    {
      "inputs": [
        {
          "internalType": "address",
          "name": "from",
          "type": "address"
        },
        {
          "internalType": "address",
          "name": "to",
          "type": "address"
        },
        {
          "internalType": "uint256",
          "name": "id",
          "type": "uint256"
        },
        {
          "internalType": "uint256",
          "name": "amount",
          "type": "uint256"
        },
        {
          "internalType": "bytes",
          "name": "data",
          "type": "bytes"
        }
      ],
      "name": "safeTransferFrom",
      "outputs": [],
      "stateMutability": "nonpayable",
      "type": "function"
    },
    {
      "inputs": [
        {
          "internalType": "address",
          "name": "operator",
          "type": "address"
        },
        {
          "internalType": "bool",
          "name": "approved",
          "type": "bool"
        }
      ],
      "name": "setApprovalForAll",
      "outputs": [],
      "stateMutability": "nonpayable",
      "type": "function"
    },
    {
      "inputs": [
        {
          "internalType": "uint256",
          "name": "tokenId",
          "type": "uint256"
        },
        {
          "internalType": "string",
          "name": "uri",
          "type": "string"
        }
      ],
      "name": "setTokenUri",
      "outputs": [],
      "stateMutability": "nonpayable",
      "type": "function"
    },
    {
      "inputs": [
        {
          "internalType": "bytes4",
          "name": "interfaceId",
          "type": "bytes4"
        }
      ],
      "name": "supportsInterface",
      "outputs": [
        {
          "internalType": "bool",
          "name": "",
          "type": "bool"
        }
      ],
      "stateMutability": "view",
      "type": "function"
    },
    {
      "inputs": [
        {
          "internalType": "address",
          "name": "newOwner",
          "type": "address"
        }
      ],
      "name": "transferOwnership",
      "outputs": [],
      "stateMutability": "nonpayable",
      "type": "function"
    },
    {
      "inputs": [
        {
          "internalType": "uint256",
          "name": "tokenId",
          "type": "uint256"
        }
      ],
      "name": "uri",
      "outputs": [
        {
          "internalType": "string",
          "name": "",
          "type": "string"
        }
      ],
      "stateMutability": "view",
      "type": "function"
    }
  ],
  "bytecode": "0x60806040523480156200001157600080fd5b506040518060800160405280605381526020016200348e605391396200003d81620000af60201b60201c565b506200005e62000052620000cb60201b60201c565b620000d360201b60201c565b620000a96040518060400160405280601081526020017f4d616b696e6720636f6e747261637421000000000000000000000000000000008152506200019960201b62000bf31760201c565b62000442565b8060029080519060200190620000c792919062000265565b5050565b600033905090565b6000600360009054906101000a900473ffffffffffffffffffffffffffffffffffffffff16905081600360006101000a81548173ffffffffffffffffffffffffffffffffffffffff021916908373ffffffffffffffffffffffffffffffffffffffff1602179055508173ffffffffffffffffffffffffffffffffffffffff168173ffffffffffffffffffffffffffffffffffffffff167f8be0079c531659141344cd1fd0a4f28419497f9722a3daafe3b4186f6b6457e060405160405180910390a35050565b6200023981604051602401620001b0919062000356565b6040516020818303038152906040527f41304fac000000000000000000000000000000000000000000000000000000007bffffffffffffffffffffffffffffffffffffffffffffffffffffffff19166020820180517bffffffffffffffffffffffffffffffffffffffffffffffffffffffff83818316178352505050506200023c60201b60201c565b50565b60008151905060006a636f6e736f6c652e6c6f679050602083016000808483855afa5050505050565b8280546200027390620003cc565b90600052602060002090601f016020900481019282620002975760008555620002e3565b82601f10620002b257805160ff1916838001178555620002e3565b82800160010185558215620002e3579182015b82811115620002e2578251825591602001919060010190620002c5565b5b509050620002f29190620002f6565b5090565b5b8082111562000311576000816000905550600101620002f7565b5090565b600062000322826200037a565b6200032e818562000385565b93506200034081856020860162000396565b6200034b8162000431565b840191505092915050565b6000602082019050818103600083015262000372818462000315565b905092915050565b600081519050919050565b600082825260208201905092915050565b60005b83811015620003b657808201518184015260208101905062000399565b83811115620003c6576000848401525b50505050565b60006002820490506001821680620003e557607f821691505b60208210811415620003fc57620003fb62000402565b5b50919050565b7f4e487b7100000000000000000000000000000000000000000000000000000000600052602260045260246000fd5b6000601f19601f8301169050919050565b61303c80620004526000396000f3fe608060405234801561001057600080fd5b50600436106100e95760003560e01c8063715018a61161008c578063a22cb46511610066578063a22cb46514610246578063e985e9c514610262578063f242432a14610292578063f2fde38b146102ae576100e9565b8063715018a6146102025780638da5cb5b1461020c5780639a25ab831461022a576100e9565b80631072b91f116100c85780631072b91f1461017e5780632eb2c2d61461019a5780634e1273f4146101b657806357f7789e146101e6576100e9565b8062fdd58e146100ee57806301ffc9a71461011e5780630e89341c1461014e575b600080fd5b6101086004803603810190610103919061206e565b6102ca565b6040516101159190612b24565b60405180910390f35b61013860048036038101906101339190612116565b610393565b6040516101459190612947565b60405180910390f35b61016860048036038101906101639190612168565b610475565b6040516101759190612962565b60405180910390f35b61019860048036038101906101939190612168565b61051a565b005b6101b460048036038101906101af9190611ee4565b610551565b005b6101d060048036038101906101cb91906120aa565b6105f2565b6040516101dd91906128ee565b60405180910390f35b61020060048036038101906101fb9190612191565b6107a3565b005b61020a61084b565b005b6102146108d3565b6040516102219190612811565b60405180910390f35b610244600480360381019061023f9190612168565b6108fd565b005b610260600480360381019061025b9190612032565b6109b0565b005b61027c60048036038101906102779190611ea8565b6109c6565b6040516102899190612947565b60405180910390f35b6102ac60048036038101906102a79190611fa3565b610a5a565b005b6102c860048036038101906102c39190611e7f565b610afb565b005b60008073ffffffffffffffffffffffffffffffffffffffff168373ffffffffffffffffffffffffffffffffffffffff16141561033b576040517f08c379a0000000000000000000000000000000000000000000000000000000008152600401610332906129c4565b60405180910390fd5b60008083815260200190815260200160002060008473ffffffffffffffffffffffffffffffffffffffff1673ffffffffffffffffffffffffffffffffffffffff16815260200190815260200160002054905092915050565b60007fd9b67a26000000000000000000000000000000000000000000000000000000007bffffffffffffffffffffffffffffffffffffffffffffffffffffffff1916827bffffffffffffffffffffffffffffffffffffffffffffffffffffffff1916148061045e57507f0e89341c000000000000000000000000000000000000000000000000000000007bffffffffffffffffffffffffffffffffffffffffffffffffffffffff1916827bffffffffffffffffffffffffffffffffffffffffffffffffffffffff1916145b8061046e575061046d82610c8c565b5b9050919050565b606060056000838152602001908152602001600020805461049590612dce565b80601f01602080910402602001604051908101604052809291908181526020018280546104c190612dce565b801561050e5780601f106104e35761010080835404028352916020019161050e565b820191906000526020600020905b8154815290600101906020018083116104f157829003601f168201915b50505050509050919050565b60006105266004610cf6565b905061054333828460405180602001604052806000815250610d04565b61054d6004610e9a565b5050565b610559610eb0565b73ffffffffffffffffffffffffffffffffffffffff168573ffffffffffffffffffffffffffffffffffffffff16148061059f575061059e85610599610eb0565b6109c6565b5b6105de576040517f08c379a00000000000000000000000000000000000000000000000000000000081526004016105d590612a44565b60405180910390fd5b6105eb8585858585610eb8565b5050505050565b60608151835114610638576040517f08c379a000000000000000000000000000000000000000000000000000000000815260040161062f90612ac4565b60405180910390fd5b6000835167ffffffffffffffff81111561067b577f4e487b7100000000000000000000000000000000000000000000000000000000600052604160045260246000fd5b6040519080825280602002602001820160405280156106a95781602001602082028036833780820191505090505b50905060005b8451811015610798576107428582815181106106f4577f4e487b7100000000000000000000000000000000000000000000000000000000600052603260045260246000fd5b6020026020010151858381518110610735577f4e487b7100000000000000000000000000000000000000000000000000000000600052603260045260246000fd5b60200260200101516102ca565b82828151811061077b577f4e487b7100000000000000000000000000000000000000000000000000000000600052603260045260246000fd5b6020026020010181815250508061079190612e00565b90506106af565b508091505092915050565b6107ab610eb0565b73ffffffffffffffffffffffffffffffffffffffff166107c96108d3565b73ffffffffffffffffffffffffffffffffffffffff161461081f576040517f08c379a000000000000000000000000000000000000000000000000000000000815260040161081690612a84565b60405180910390fd5b80600560008481526020019081526020016000209080519060200190610846929190611b77565b505050565b610853610eb0565b73ffffffffffffffffffffffffffffffffffffffff166108716108d3565b73ffffffffffffffffffffffffffffffffffffffff16146108c7576040517f08c379a00000000000000000000000000000000000000000000000000000000081526004016108be90612a84565b60405180910390fd5b6108d16000611218565b565b6000600360009054906101000a900473ffffffffffffffffffffffffffffffffffffffff16905090565b610905610eb0565b73ffffffffffffffffffffffffffffffffffffffff166109236108d3565b73ffffffffffffffffffffffffffffffffffffffff1614610979576040517f08c379a000000000000000000000000000000000000000000000000000000000815260040161097090612a84565b60405180910390fd5b60006109856004610cf6565b90506109a233828460405180602001604052806000815250610d04565b6109ac6004610e9a565b5050565b6109c26109bb610eb0565b83836112de565b5050565b6000600160008473ffffffffffffffffffffffffffffffffffffffff1673ffffffffffffffffffffffffffffffffffffffff16815260200190815260200160002060008373ffffffffffffffffffffffffffffffffffffffff1673ffffffffffffffffffffffffffffffffffffffff16815260200190815260200160002060009054906101000a900460ff16905092915050565b610a62610eb0565b73ffffffffffffffffffffffffffffffffffffffff168573ffffffffffffffffffffffffffffffffffffffff161480610aa85750610aa785610aa2610eb0565b6109c6565b5b610ae7576040517f08c379a0000000000000000000000000000000000000000000000000000000008152600401610ade90612a04565b60405180910390fd5b610af4858585858561144b565b5050505050565b610b03610eb0565b73ffffffffffffffffffffffffffffffffffffffff16610b216108d3565b73ffffffffffffffffffffffffffffffffffffffff1614610b77576040517f08c379a0000000000000000000000000000000000000000000000000000000008152600401610b6e90612a84565b60405180910390fd5b600073ffffffffffffffffffffffffffffffffffffffff168173ffffffffffffffffffffffffffffffffffffffff161415610be7576040517f08c379a0000000000000000000000000000000000000000000000000000000008152600401610bde906129e4565b60405180910390fd5b610bf081611218565b50565b610c8981604051602401610c079190612962565b6040516020818303038152906040527f41304fac000000000000000000000000000000000000000000000000000000007bffffffffffffffffffffffffffffffffffffffffffffffffffffffff19166020820180517bffffffffffffffffffffffffffffffffffffffffffffffffffffffff83818316178352505050506116cd565b50565b60007f01ffc9a7000000000000000000000000000000000000000000000000000000007bffffffffffffffffffffffffffffffffffffffffffffffffffffffff1916827bffffffffffffffffffffffffffffffffffffffffffffffffffffffff1916149050919050565b600081600001549050919050565b600073ffffffffffffffffffffffffffffffffffffffff168473ffffffffffffffffffffffffffffffffffffffff161415610d74576040517f08c379a0000000000000000000000000000000000000000000000000000000008152600401610d6b90612b04565b60405180910390fd5b6000610d7e610eb0565b9050610d9f81600087610d90886116f6565b610d99886116f6565b876117bc565b8260008086815260200190815260200160002060008773ffffffffffffffffffffffffffffffffffffffff1673ffffffffffffffffffffffffffffffffffffffff1681526020019081526020016000206000828254610dfe9190612cc2565b925050819055508473ffffffffffffffffffffffffffffffffffffffff16600073ffffffffffffffffffffffffffffffffffffffff168273ffffffffffffffffffffffffffffffffffffffff167fc3d58168c5ae7397731d063d5bbf3d657854427343f4c083240f7aacaa2d0f628787604051610e7c929190612b3f565b60405180910390a4610e93816000878787876117c4565b5050505050565b6001816000016000828254019250508190555050565b600033905090565b8151835114610efc576040517f08c379a0000000000000000000000000000000000000000000000000000000008152600401610ef390612ae4565b60405180910390fd5b600073ffffffffffffffffffffffffffffffffffffffff168473ffffffffffffffffffffffffffffffffffffffff161415610f6c576040517f08c379a0000000000000000000000000000000000000000000000000000000008152600401610f6390612a24565b60405180910390fd5b6000610f76610eb0565b9050610f868187878787876117bc565b60005b8451811015611183576000858281518110610fcd577f4e487b7100000000000000000000000000000000000000000000000000000000600052603260045260246000fd5b602002602001015190506000858381518110611012577f4e487b7100000000000000000000000000000000000000000000000000000000600052603260045260246000fd5b60200260200101519050600080600084815260200190815260200160002060008b73ffffffffffffffffffffffffffffffffffffffff1673ffffffffffffffffffffffffffffffffffffffff168152602001908152602001600020549050818110156110b3576040517f08c379a00000000000000000000000000000000000000000000000000000000081526004016110aa90612a64565b60405180910390fd5b81810360008085815260200190815260200160002060008c73ffffffffffffffffffffffffffffffffffffffff1673ffffffffffffffffffffffffffffffffffffffff168152602001908152602001600020819055508160008085815260200190815260200160002060008b73ffffffffffffffffffffffffffffffffffffffff1673ffffffffffffffffffffffffffffffffffffffff16815260200190815260200160002060008282546111689190612cc2565b925050819055505050508061117c90612e00565b9050610f89565b508473ffffffffffffffffffffffffffffffffffffffff168673ffffffffffffffffffffffffffffffffffffffff168273ffffffffffffffffffffffffffffffffffffffff167f4a39dc06d4c0dbc64b70af90fd698a233a518aa5d07e595d983b8c0526c8f7fb87876040516111fa929190612910565b60405180910390a4611210818787878787611994565b505050505050565b6000600360009054906101000a900473ffffffffffffffffffffffffffffffffffffffff16905081600360006101000a81548173ffffffffffffffffffffffffffffffffffffffff021916908373ffffffffffffffffffffffffffffffffffffffff1602179055508173ffffffffffffffffffffffffffffffffffffffff168173ffffffffffffffffffffffffffffffffffffffff167f8be0079c531659141344cd1fd0a4f28419497f9722a3daafe3b4186f6b6457e060405160405180910390a35050565b8173ffffffffffffffffffffffffffffffffffffffff168373ffffffffffffffffffffffffffffffffffffffff16141561134d576040517f08c379a000000000000000000000000000000000000000000000000000000000815260040161134490612aa4565b60405180910390fd5b80600160008573ffffffffffffffffffffffffffffffffffffffff1673ffffffffffffffffffffffffffffffffffffffff16815260200190815260200160002060008473ffffffffffffffffffffffffffffffffffffffff1673ffffffffffffffffffffffffffffffffffffffff16815260200190815260200160002060006101000a81548160ff0219169083151502179055508173ffffffffffffffffffffffffffffffffffffffff168373ffffffffffffffffffffffffffffffffffffffff167f17307eab39ab6107e8899845ad3d59bd9653f200f220920489ca2b5937696c318360405161143e9190612947565b60405180910390a3505050565b600073ffffffffffffffffffffffffffffffffffffffff168473ffffffffffffffffffffffffffffffffffffffff1614156114bb576040517f08c379a00000000000000000000000000000000000000000000000000000000081526004016114b290612a24565b60405180910390fd5b60006114c5610eb0565b90506114e58187876114d6886116f6565b6114df886116f6565b876117bc565b600080600086815260200190815260200160002060008873ffffffffffffffffffffffffffffffffffffffff1673ffffffffffffffffffffffffffffffffffffffff1681526020019081526020016000205490508381101561157c576040517f08c379a000000000000000000000000000000000000000000000000000000000815260040161157390612a64565b60405180910390fd5b83810360008087815260200190815260200160002060008973ffffffffffffffffffffffffffffffffffffffff1673ffffffffffffffffffffffffffffffffffffffff168152602001908152602001600020819055508360008087815260200190815260200160002060008873ffffffffffffffffffffffffffffffffffffffff1673ffffffffffffffffffffffffffffffffffffffff16815260200190815260200160002060008282546116319190612cc2565b925050819055508573ffffffffffffffffffffffffffffffffffffffff168773ffffffffffffffffffffffffffffffffffffffff168373ffffffffffffffffffffffffffffffffffffffff167fc3d58168c5ae7397731d063d5bbf3d657854427343f4c083240f7aacaa2d0f6288886040516116ae929190612b3f565b60405180910390a46116c48288888888886117c4565b50505050505050565b60008151905060006a636f6e736f6c652e6c6f679050602083016000808483855afa5050505050565b60606000600167ffffffffffffffff81111561173b577f4e487b7100000000000000000000000000000000000000000000000000000000600052604160045260246000fd5b6040519080825280602002602001820160405280156117695781602001602082028036833780820191505090505b50905082816000815181106117a7577f4e487b7100000000000000000000000000000000000000000000000000000000600052603260045260246000fd5b60200260200101818152505080915050919050565b505050505050565b6117e38473ffffffffffffffffffffffffffffffffffffffff16611b64565b1561198c578373ffffffffffffffffffffffffffffffffffffffff1663f23a6e6187878686866040518663ffffffff1660e01b8152600401611829959493929190612894565b602060405180830381600087803b15801561184357600080fd5b505af192505050801561187457506040513d601f19601f82011682018060405250810190611871919061213f565b60015b61190357611880612ef4565b8061188b57506118c8565b806040517f08c379a00000000000000000000000000000000000000000000000000000000081526004016118bf9190612962565b60405180910390fd5b6040517f08c379a00000000000000000000000000000000000000000000000000000000081526004016118fa90612984565b60405180910390fd5b63f23a6e6160e01b7bffffffffffffffffffffffffffffffffffffffffffffffffffffffff1916817bffffffffffffffffffffffffffffffffffffffffffffffffffffffff19161461198a576040517f08c379a0000000000000000000000000000000000000000000000000000000008152600401611981906129a4565b60405180910390fd5b505b505050505050565b6119b38473ffffffffffffffffffffffffffffffffffffffff16611b64565b15611b5c578373ffffffffffffffffffffffffffffffffffffffff1663bc197c8187878686866040518663ffffffff1660e01b81526004016119f995949392919061282c565b602060405180830381600087803b158015611a1357600080fd5b505af1925050508015611a4457506040513d601f19601f82011682018060405250810190611a41919061213f565b60015b611ad357611a50612ef4565b80611a5b5750611a98565b806040517f08c379a0000000000000000000000000000000000000000000000000000000008152600401611a8f9190612962565b60405180910390fd5b6040517f08c379a0000000000000000000000000000000000000000000000000000000008152600401611aca90612984565b60405180910390fd5b63bc197c8160e01b7bffffffffffffffffffffffffffffffffffffffffffffffffffffffff1916817bffffffffffffffffffffffffffffffffffffffffffffffffffffffff191614611b5a576040517f08c379a0000000000000000000000000000000000000000000000000000000008152600401611b51906129a4565b60405180910390fd5b505b505050505050565b600080823b905060008111915050919050565b828054611b8390612dce565b90600052602060002090601f016020900481019282611ba55760008555611bec565b82601f10611bbe57805160ff1916838001178555611bec565b82800160010185558215611bec579182015b82811115611beb578251825591602001919060010190611bd0565b5b509050611bf99190611bfd565b5090565b5b80821115611c16576000816000905550600101611bfe565b5090565b6000611c2d611c2884612b99565b612b68565b90508083825260208201905082856020860282011115611c4c57600080fd5b60005b85811015611c7c5781611c628882611d6e565b845260208401935060208301925050600181019050611c4f565b5050509392505050565b6000611c99611c9484612bc5565b612b68565b90508083825260208201905082856020860282011115611cb857600080fd5b60005b85811015611ce85781611cce8882611e6a565b845260208401935060208301925050600181019050611cbb565b5050509392505050565b6000611d05611d0084612bf1565b612b68565b905082815260208101848484011115611d1d57600080fd5b611d28848285612d8c565b509392505050565b6000611d43611d3e84612c21565b612b68565b905082815260208101848484011115611d5b57600080fd5b611d66848285612d8c565b509392505050565b600081359050611d7d81612faa565b92915050565b600082601f830112611d9457600080fd5b8135611da4848260208601611c1a565b91505092915050565b600082601f830112611dbe57600080fd5b8135611dce848260208601611c86565b91505092915050565b600081359050611de681612fc1565b92915050565b600081359050611dfb81612fd8565b92915050565b600081519050611e1081612fd8565b92915050565b600082601f830112611e2757600080fd5b8135611e37848260208601611cf2565b91505092915050565b600082601f830112611e5157600080fd5b8135611e61848260208601611d30565b91505092915050565b600081359050611e7981612fef565b92915050565b600060208284031215611e9157600080fd5b6000611e9f84828501611d6e565b91505092915050565b60008060408385031215611ebb57600080fd5b6000611ec985828601611d6e565b9250506020611eda85828601611d6e565b9150509250929050565b600080600080600060a08688031215611efc57600080fd5b6000611f0a88828901611d6e565b9550506020611f1b88828901611d6e565b945050604086013567ffffffffffffffff811115611f3857600080fd5b611f4488828901611dad565b935050606086013567ffffffffffffffff811115611f6157600080fd5b611f6d88828901611dad565b925050608086013567ffffffffffffffff811115611f8a57600080fd5b611f9688828901611e16565b9150509295509295909350565b600080600080600060a08688031215611fbb57600080fd5b6000611fc988828901611d6e565b9550506020611fda88828901611d6e565b9450506040611feb88828901611e6a565b9350506060611ffc88828901611e6a565b925050608086013567ffffffffffffffff81111561201957600080fd5b61202588828901611e16565b9150509295509295909350565b6000806040838503121561204557600080fd5b600061205385828601611d6e565b925050602061206485828601611dd7565b9150509250929050565b6000806040838503121561208157600080fd5b600061208f85828601611d6e565b92505060206120a085828601611e6a565b9150509250929050565b600080604083850312156120bd57600080fd5b600083013567ffffffffffffffff8111156120d757600080fd5b6120e385828601611d83565b925050602083013567ffffffffffffffff81111561210057600080fd5b61210c85828601611dad565b9150509250929050565b60006020828403121561212857600080fd5b600061213684828501611dec565b91505092915050565b60006020828403121561215157600080fd5b600061215f84828501611e01565b91505092915050565b60006020828403121561217a57600080fd5b600061218884828501611e6a565b91505092915050565b600080604083850312156121a457600080fd5b60006121b285828601611e6a565b925050602083013567ffffffffffffffff8111156121cf57600080fd5b6121db85828601611e40565b9150509250929050565b60006121f183836127f3565b60208301905092915050565b61220681612d18565b82525050565b600061221782612c61565b6122218185612c8f565b935061222c83612c51565b8060005b8381101561225d57815161224488826121e5565b975061224f83612c82565b925050600181019050612230565b5085935050505092915050565b61227381612d2a565b82525050565b600061228482612c6c565b61228e8185612ca0565b935061229e818560208601612d9b565b6122a781612ed6565b840191505092915050565b60006122bd82612c77565b6122c78185612cb1565b93506122d7818560208601612d9b565b6122e081612ed6565b840191505092915050565b60006122f8603483612cb1565b91507f455243313135353a207472616e7366657220746f206e6f6e204552433131353560008301527f526563656976657220696d706c656d656e7465720000000000000000000000006020830152604082019050919050565b600061235e602883612cb1565b91507f455243313135353a204552433131353552656365697665722072656a6563746560008301527f6420746f6b656e730000000000000000000000000000000000000000000000006020830152604082019050919050565b60006123c4602b83612cb1565b91507f455243313135353a2062616c616e636520717565727920666f7220746865207a60008301527f65726f20616464726573730000000000000000000000000000000000000000006020830152604082019050919050565b600061242a602683612cb1565b91507f4f776e61626c653a206e6577206f776e657220697320746865207a65726f206160008301527f64647265737300000000000000000000000000000000000000000000000000006020830152604082019050919050565b6000612490602983612cb1565b91507f455243313135353a2063616c6c6572206973206e6f74206f776e6572206e6f7260008301527f20617070726f76656400000000000000000000000000000000000000000000006020830152604082019050919050565b60006124f6602583612cb1565b91507f455243313135353a207472616e7366657220746f20746865207a65726f20616460008301527f64726573730000000000000000000000000000000000000000000000000000006020830152604082019050919050565b600061255c603283612cb1565b91507f455243313135353a207472616e736665722063616c6c6572206973206e6f742060008301527f6f776e6572206e6f7220617070726f76656400000000000000000000000000006020830152604082019050919050565b60006125c2602a83612cb1565b91507f455243313135353a20696e73756666696369656e742062616c616e636520666f60008301527f72207472616e73666572000000000000000000000000000000000000000000006020830152604082019050919050565b6000612628602083612cb1565b91507f4f776e61626c653a2063616c6c6572206973206e6f7420746865206f776e65726000830152602082019050919050565b6000612668602983612cb1565b91507f455243313135353a2073657474696e6720617070726f76616c2073746174757360008301527f20666f722073656c6600000000000000000000000000000000000000000000006020830152604082019050919050565b60006126ce602983612cb1565b91507f455243313135353a206163636f756e747320616e6420696473206c656e67746860008301527f206d69736d6174636800000000000000000000000000000000000000000000006020830152604082019050919050565b6000612734602883612cb1565b91507f455243313135353a2069647320616e6420616d6f756e7473206c656e6774682060008301527f6d69736d617463680000000000000000000000000000000000000000000000006020830152604082019050919050565b600061279a602183612cb1565b91507f455243313135353a206d696e7420746f20746865207a65726f2061646472657360008301527f73000000000000000000000000000000000000000000000000000000000000006020830152604082019050919050565b6127fc81612d82565b82525050565b61280b81612d82565b82525050565b600060208201905061282660008301846121fd565b92915050565b600060a08201905061284160008301886121fd565b61284e60208301876121fd565b8181036040830152612860818661220c565b90508181036060830152612874818561220c565b905081810360808301526128888184612279565b90509695505050505050565b600060a0820190506128a960008301886121fd565b6128b660208301876121fd565b6128c36040830186612802565b6128d06060830185612802565b81810360808301526128e28184612279565b90509695505050505050565b60006020820190508181036000830152612908818461220c565b905092915050565b6000604082019050818103600083015261292a818561220c565b9050818103602083015261293e818461220c565b90509392505050565b600060208201905061295c600083018461226a565b92915050565b6000602082019050818103600083015261297c81846122b2565b905092915050565b6000602082019050818103600083015261299d816122eb565b9050919050565b600060208201905081810360008301526129bd81612351565b9050919050565b600060208201905081810360008301526129dd816123b7565b9050919050565b600060208201905081810360008301526129fd8161241d565b9050919050565b60006020820190508181036000830152612a1d81612483565b9050919050565b60006020820190508181036000830152612a3d816124e9565b9050919050565b60006020820190508181036000830152612a5d8161254f565b9050919050565b60006020820190508181036000830152612a7d816125b5565b9050919050565b60006020820190508181036000830152612a9d8161261b565b9050919050565b60006020820190508181036000830152612abd8161265b565b9050919050565b60006020820190508181036000830152612add816126c1565b9050919050565b60006020820190508181036000830152612afd81612727565b9050919050565b60006020820190508181036000830152612b1d8161278d565b9050919050565b6000602082019050612b396000830184612802565b92915050565b6000604082019050612b546000830185612802565b612b616020830184612802565b9392505050565b6000604051905081810181811067ffffffffffffffff82111715612b8f57612b8e612ea7565b5b8060405250919050565b600067ffffffffffffffff821115612bb457612bb3612ea7565b5b602082029050602081019050919050565b600067ffffffffffffffff821115612be057612bdf612ea7565b5b602082029050602081019050919050565b600067ffffffffffffffff821115612c0c57612c0b612ea7565b5b601f19601f8301169050602081019050919050565b600067ffffffffffffffff821115612c3c57612c3b612ea7565b5b601f19601f8301169050602081019050919050565b6000819050602082019050919050565b600081519050919050565b600081519050919050565b600081519050919050565b6000602082019050919050565b600082825260208201905092915050565b600082825260208201905092915050565b600082825260208201905092915050565b6000612ccd82612d82565b9150612cd883612d82565b9250827fffffffffffffffffffffffffffffffffffffffffffffffffffffffffffffffff03821115612d0d57612d0c612e49565b5b828201905092915050565b6000612d2382612d62565b9050919050565b60008115159050919050565b60007fffffffff0000000000000000000000000000000000000000000000000000000082169050919050565b600073ffffffffffffffffffffffffffffffffffffffff82169050919050565b6000819050919050565b82818337600083830152505050565b60005b83811015612db9578082015181840152602081019050612d9e565b83811115612dc8576000848401525b50505050565b60006002820490506001821680612de657607f821691505b60208210811415612dfa57612df9612e78565b5b50919050565b6000612e0b82612d82565b91507fffffffffffffffffffffffffffffffffffffffffffffffffffffffffffffffff821415612e3e57612e3d612e49565b5b600182019050919050565b7f4e487b7100000000000000000000000000000000000000000000000000000000600052601160045260246000fd5b7f4e487b7100000000000000000000000000000000000000000000000000000000600052602260045260246000fd5b7f4e487b7100000000000000000000000000000000000000000000000000000000600052604160045260246000fd5b6000601f19601f8301169050919050565b60008160e01c9050919050565b600060443d1015612f0457612fa7565b60046000803e612f15600051612ee7565b6308c379a08114612f265750612fa7565b60405160043d036004823e80513d602482011167ffffffffffffffff82111715612f5257505050612fa7565b808201805167ffffffffffffffff811115612f71575050505050612fa7565b8060208301013d8501811115612f8c57505050505050612fa7565b612f9582612ed6565b60208401016040528296505050505050505b90565b612fb381612d18565b8114612fbe57600080fd5b50565b612fca81612d2a565b8114612fd557600080fd5b50565b612fe181612d36565b8114612fec57600080fd5b50565b612ff881612d82565b811461300357600080fd5b5056fea26469706673582212203a23c9fce057d7688a75f14a72446cac61c62b303d7a220e00dac0ba5801cc7964736f6c6343000800003368747470733a2f2f697066732e696f2f697066732f516d5759615465655a695a446d54376a3478724e7375514a4746456762533262706b654132754d5a506d413452772f706c617965727b69647d2e6a736f6e",
  "linkReferences": {},
  "deployedLinkReferences": {}
}