{
  "_format": "hh-sol-artifact-1",
  "contractName": "GameItems",
  "sourceName": "contracts/GameItems.sol",
  "abi": [
    {
      "inputs": [
        {
          "components": [
            {
              "internalType": "uint256",
              "name": "_numAthletes",
              "type": "uint256"
            },
            {
              "internalType": "uint256",
              "name": "_nftPerAthlete",
              "type": "uint256"
            },
            {
              "internalType": "uint256",
              "name": "_starterPackSize",
              "type": "uint256"
            },
            {
              "internalType": "uint256",
              "name": "_boosterPackSize",
              "type": "uint256"
            },
            {
              "internalType": "uint256",
              "name": "_maxStarterPackBalance",
              "type": "uint256"
            },
            {
              "internalType": "uint256",
              "name": "_maxBoosterPackBalance",
              "type": "uint256"
            },
            {
              "internalType": "uint256",
              "name": "_maxPacks",
              "type": "uint256"
            },
            {
              "internalType": "uint256",
              "name": "_revealTimestamp",
              "type": "uint256"
            }
          ],
          "internalType": "struct GameItems.Parameters",
          "name": "params",
          "type": "tuple"
        },
        {
          "internalType": "string",
          "name": "_athleteURI",
          "type": "string"
        },
        {
          "internalType": "string",
          "name": "_starterPackURI",
          "type": "string"
        },
        {
          "internalType": "string",
          "name": "_boosterPackURI",
          "type": "string"
        }
      ],
      "stateMutability": "nonpayable",
      "type": "constructor"
    },
    {
      "anonymous": false,
      "inputs": [
        {
          "indexed": true,
          "internalType": "address",
          "name": "account",
          "type": "address"
        },
        {
          "indexed": true,
          "internalType": "address",
          "name": "operator",
          "type": "address"
        },
        {
          "indexed": false,
          "internalType": "bool",
          "name": "approved",
          "type": "bool"
        }
      ],
      "name": "ApprovalForAll",
      "type": "event"
    },
    {
      "anonymous": false,
      "inputs": [
        {
          "indexed": true,
          "internalType": "address",
          "name": "previousOwner",
          "type": "address"
        },
        {
          "indexed": true,
          "internalType": "address",
          "name": "newOwner",
          "type": "address"
        }
      ],
      "name": "OwnershipTransferred",
      "type": "event"
    },
    {
      "anonymous": false,
      "inputs": [
        {
          "indexed": true,
          "internalType": "address",
          "name": "operator",
          "type": "address"
        },
        {
          "indexed": true,
          "internalType": "address",
          "name": "from",
          "type": "address"
        },
        {
          "indexed": true,
          "internalType": "address",
          "name": "to",
          "type": "address"
        },
        {
          "indexed": false,
          "internalType": "uint256[]",
          "name": "ids",
          "type": "uint256[]"
        },
        {
          "indexed": false,
          "internalType": "uint256[]",
          "name": "values",
          "type": "uint256[]"
        }
      ],
      "name": "TransferBatch",
      "type": "event"
    },
    {
      "anonymous": false,
      "inputs": [
        {
          "indexed": true,
          "internalType": "address",
          "name": "operator",
          "type": "address"
        },
        {
          "indexed": true,
          "internalType": "address",
          "name": "from",
          "type": "address"
        },
        {
          "indexed": true,
          "internalType": "address",
          "name": "to",
          "type": "address"
        },
        {
          "indexed": false,
          "internalType": "uint256",
          "name": "id",
          "type": "uint256"
        },
        {
          "indexed": false,
          "internalType": "uint256",
          "name": "value",
          "type": "uint256"
        }
      ],
      "name": "TransferSingle",
      "type": "event"
    },
    {
      "anonymous": false,
      "inputs": [
        {
          "indexed": false,
          "internalType": "string",
          "name": "value",
          "type": "string"
        },
        {
          "indexed": true,
          "internalType": "uint256",
          "name": "id",
          "type": "uint256"
        }
      ],
      "name": "URI",
      "type": "event"
    },
    {
      "anonymous": false,
      "inputs": [
        {
          "indexed": false,
          "internalType": "uint256[5]",
          "name": "",
          "type": "uint256[5]"
        },
        {
          "indexed": false,
          "internalType": "address",
          "name": "signer",
          "type": "address"
        }
      ],
      "name": "packBurned",
      "type": "event"
    },
    {
      "anonymous": false,
      "inputs": [
        {
          "indexed": false,
          "internalType": "address",
          "name": "signer",
          "type": "address"
        },
        {
          "indexed": false,
          "internalType": "uint256",
          "name": "id",
          "type": "uint256"
        }
      ],
      "name": "packMinted",
      "type": "event"
    },
    {
      "inputs": [],
      "name": "REVEAL_TIMESTAMP",
      "outputs": [
        {
          "internalType": "uint256",
          "name": "",
          "type": "uint256"
        }
      ],
      "stateMutability": "view",
      "type": "function"
    },
    {
      "inputs": [
        {
          "internalType": "address",
          "name": "_userToAdd",
          "type": "address"
        }
      ],
      "name": "addUserToWhitelist",
      "outputs": [
        {
          "internalType": "bool",
          "name": "success",
          "type": "bool"
        }
      ],
      "stateMutability": "nonpayable",
      "type": "function"
    },
    {
      "inputs": [
        {
          "internalType": "address[]",
          "name": "addrs",
          "type": "address[]"
        }
      ],
      "name": "addUsersToWhitelist",
      "outputs": [
        {
          "internalType": "bool",
          "name": "success",
          "type": "bool"
        }
      ],
      "stateMutability": "nonpayable",
      "type": "function"
    },
    {
      "inputs": [
        {
          "internalType": "address",
          "name": "account",
          "type": "address"
        },
        {
          "internalType": "uint256",
          "name": "id",
          "type": "uint256"
        }
      ],
      "name": "balanceOf",
      "outputs": [
        {
          "internalType": "uint256",
          "name": "",
          "type": "uint256"
        }
      ],
      "stateMutability": "view",
      "type": "function"
    },
    {
      "inputs": [
        {
          "internalType": "address[]",
          "name": "accounts",
          "type": "address[]"
        },
        {
          "internalType": "uint256[]",
          "name": "ids",
          "type": "uint256[]"
        }
      ],
      "name": "balanceOfBatch",
      "outputs": [
        {
          "internalType": "uint256[]",
          "name": "",
          "type": "uint256[]"
        }
      ],
      "stateMutability": "view",
      "type": "function"
    },
    {
      "inputs": [],
      "name": "burnStarterPack",
      "outputs": [],
      "stateMutability": "nonpayable",
      "type": "function"
    },
    {
      "inputs": [],
      "name": "getNFTPerAthlete",
      "outputs": [
        {
          "internalType": "uint256",
          "name": "",
          "type": "uint256"
        }
      ],
      "stateMutability": "view",
      "type": "function"
    },
    {
      "inputs": [],
      "name": "getNumWhitelisted",
      "outputs": [
        {
          "internalType": "uint256",
          "name": "",
          "type": "uint256"
        }
      ],
      "stateMutability": "view",
      "type": "function"
    },
    {
      "inputs": [
        {
          "internalType": "address",
          "name": "account",
          "type": "address"
        },
        {
          "internalType": "address",
          "name": "operator",
          "type": "address"
        }
      ],
      "name": "isApprovedForAll",
      "outputs": [
        {
          "internalType": "bool",
          "name": "",
          "type": "bool"
        }
      ],
      "stateMutability": "view",
      "type": "function"
    },
    {
      "inputs": [
        {
          "internalType": "uint256",
          "name": "index",
          "type": "uint256"
        }
      ],
      "name": "mintAthlete",
      "outputs": [],
      "stateMutability": "nonpayable",
      "type": "function"
    },
    {
      "inputs": [],
      "name": "mintStarterPack",
      "outputs": [],
      "stateMutability": "nonpayable",
      "type": "function"
    },
    {
      "inputs": [],
      "name": "name",
      "outputs": [
        {
          "internalType": "string",
          "name": "",
          "type": "string"
        }
      ],
      "stateMutability": "view",
      "type": "function"
    },
    {
      "inputs": [],
      "name": "numWhitelisted",
      "outputs": [
        {
          "internalType": "uint256",
          "name": "",
          "type": "uint256"
        }
      ],
      "stateMutability": "view",
      "type": "function"
    },
    {
      "inputs": [],
      "name": "owner",
      "outputs": [
        {
          "internalType": "address",
          "name": "",
          "type": "address"
        }
      ],
      "stateMutability": "view",
      "type": "function"
    },
    {
      "inputs": [],
      "name": "packsAvailable",
      "outputs": [
        {
          "internalType": "uint256",
          "name": "",
          "type": "uint256"
        }
      ],
      "stateMutability": "view",
      "type": "function"
    },
    {
      "inputs": [],
      "name": "packsReadyToOpen",
      "outputs": [
        {
          "internalType": "bool",
          "name": "",
          "type": "bool"
        }
      ],
      "stateMutability": "view",
      "type": "function"
    },
    {
      "inputs": [
        {
          "internalType": "address",
          "name": "_userToRemove",
          "type": "address"
        }
      ],
      "name": "removeUserFromWhitelist",
      "outputs": [
        {
          "internalType": "bool",
          "name": "success",
          "type": "bool"
        }
      ],
      "stateMutability": "nonpayable",
      "type": "function"
    },
    {
      "inputs": [
        {
          "internalType": "address[]",
          "name": "addrs",
          "type": "address[]"
        }
      ],
      "name": "removeUsersFromWhitelist",
      "outputs": [
        {
          "internalType": "bool",
          "name": "success",
          "type": "bool"
        }
      ],
      "stateMutability": "nonpayable",
      "type": "function"
    },
    {
      "inputs": [],
      "name": "renounceOwnership",
      "outputs": [],
      "stateMutability": "nonpayable",
      "type": "function"
    },
    {
      "inputs": [
        {
          "internalType": "address",
          "name": "from",
          "type": "address"
        },
        {
          "internalType": "address",
          "name": "to",
          "type": "address"
        },
        {
          "internalType": "uint256[]",
          "name": "ids",
          "type": "uint256[]"
        },
        {
          "internalType": "uint256[]",
          "name": "amounts",
          "type": "uint256[]"
        },
        {
          "internalType": "bytes",
          "name": "data",
          "type": "bytes"
        }
      ],
      "name": "safeBatchTransferFrom",
      "outputs": [],
      "stateMutability": "nonpayable",
      "type": "function"
    },
    {
      "inputs": [
        {
          "internalType": "address",
          "name": "from",
          "type": "address"
        },
        {
          "internalType": "address",
          "name": "to",
          "type": "address"
        },
        {
          "internalType": "uint256",
          "name": "id",
          "type": "uint256"
        },
        {
          "internalType": "uint256",
          "name": "amount",
          "type": "uint256"
        },
        {
          "internalType": "bytes",
          "name": "data",
          "type": "bytes"
        }
      ],
      "name": "safeTransferFrom",
      "outputs": [],
      "stateMutability": "nonpayable",
      "type": "function"
    },
    {
      "inputs": [
        {
          "internalType": "address",
          "name": "operator",
          "type": "address"
        },
        {
          "internalType": "bool",
          "name": "approved",
          "type": "bool"
        }
      ],
      "name": "setApprovalForAll",
      "outputs": [],
      "stateMutability": "nonpayable",
      "type": "function"
    },
    {
      "inputs": [],
      "name": "setPacksReady",
      "outputs": [],
      "stateMutability": "nonpayable",
      "type": "function"
    },
    {
      "inputs": [],
      "name": "setStartingIndex",
      "outputs": [],
      "stateMutability": "nonpayable",
      "type": "function"
    },
    {
      "inputs": [
        {
          "internalType": "uint256",
          "name": "tokenId",
          "type": "uint256"
        },
        {
          "internalType": "string",
          "name": "uri",
          "type": "string"
        }
      ],
      "name": "setTokenUri",
      "outputs": [],
      "stateMutability": "nonpayable",
      "type": "function"
    },
    {
      "inputs": [],
      "name": "setURIs",
      "outputs": [],
      "stateMutability": "nonpayable",
      "type": "function"
    },
    {
      "inputs": [
        {
          "internalType": "bytes4",
          "name": "interfaceId",
          "type": "bytes4"
        }
      ],
      "name": "supportsInterface",
      "outputs": [
        {
          "internalType": "bool",
          "name": "",
          "type": "bool"
        }
      ],
      "stateMutability": "view",
      "type": "function"
    },
    {
      "inputs": [
        {
          "internalType": "address",
          "name": "newOwner",
          "type": "address"
        }
      ],
      "name": "transferOwnership",
      "outputs": [],
      "stateMutability": "nonpayable",
      "type": "function"
    },
    {
      "inputs": [
        {
          "internalType": "uint256",
          "name": "tokenId",
          "type": "uint256"
        }
      ],
      "name": "uri",
      "outputs": [
        {
          "internalType": "string",
          "name": "",
          "type": "string"
        }
      ],
      "stateMutability": "view",
      "type": "function"
    },
    {
      "inputs": [
        {
          "internalType": "address",
          "name": "",
          "type": "address"
        }
      ],
      "name": "whitelist",
      "outputs": [
        {
          "internalType": "bool",
          "name": "",
          "type": "bool"
        }
      ],
      "stateMutability": "view",
      "type": "function"
    }
  ],
  "bytecode": "0x6080604052612710600f556040518060400160405280600881526020017f5465616d446966660000000000000000000000000000000000000000000000008152506010908051906020019062000057929190620002d6565b506001601160006101000a81548160ff02191690831515021790555060405180602001604052806000815250601790805190602001906200009a929190620002d6565b50348015620000a857600080fd5b5060405162005409380380620054098339818101604052810190620000ce9190620004fa565b6040518060400160405280600281526020017f54440000000000000000000000000000000000000000000000000000000000008152506200011581620001ec60201b60201c565b50620001366200012a6200020860201b60201c565b6200021060201b60201c565b8360000151600c819055508360200151600d819055508360400151600781905550836060015160088190555083608001516009819055508360a00151600a819055508360c00151600b8190555082600490805190602001906200019b929190620002d6565b508160059080519060200190620001b4929190620002d6565b508060069080519060200190620001cd929190620002d6565b508360e00151600f81905550600b54602081905550505050506200077a565b806002908051906020019062000204929190620002d6565b5050565b600033905090565b6000600360009054906101000a900473ffffffffffffffffffffffffffffffffffffffff16905081600360006101000a81548173ffffffffffffffffffffffffffffffffffffffff021916908373ffffffffffffffffffffffffffffffffffffffff1602179055508173ffffffffffffffffffffffffffffffffffffffff168173ffffffffffffffffffffffffffffffffffffffff167f8be0079c531659141344cd1fd0a4f28419497f9722a3daafe3b4186f6b6457e060405160405180910390a35050565b828054620002e4906200066c565b90600052602060002090601f01602090048101928262000308576000855562000354565b82601f106200032357805160ff191683800117855562000354565b8280016001018555821562000354579182015b828111156200035357825182559160200191906001019062000336565b5b50905062000363919062000367565b5090565b5b808211156200038257600081600090555060010162000368565b5090565b60006200039d6200039784620005f6565b620005cd565b905082815260208101848484011115620003bc57620003bb62000740565b5b620003c984828562000636565b509392505050565b600082601f830112620003e957620003e862000736565b5b8151620003fb84826020860162000386565b91505092915050565b600061010082840312156200041e576200041d6200073b565b5b6200042b610100620005cd565b905060006200043d84828501620004e3565b60008301525060206200045384828501620004e3565b60208301525060406200046984828501620004e3565b60408301525060606200047f84828501620004e3565b60608301525060806200049584828501620004e3565b60808301525060a0620004ab84828501620004e3565b60a08301525060c0620004c184828501620004e3565b60c08301525060e0620004d784828501620004e3565b60e08301525092915050565b600081519050620004f48162000760565b92915050565b60008060008061016085870312156200051857620005176200074a565b5b6000620005288782880162000404565b94505061010085015167ffffffffffffffff8111156200054d576200054c62000745565b5b6200055b87828801620003d1565b93505061012085015167ffffffffffffffff81111562000580576200057f62000745565b5b6200058e87828801620003d1565b92505061014085015167ffffffffffffffff811115620005b357620005b262000745565b5b620005c187828801620003d1565b91505092959194509250565b6000620005d9620005ec565b9050620005e78282620006a2565b919050565b6000604051905090565b600067ffffffffffffffff82111562000614576200061362000707565b5b6200061f826200074f565b9050602081019050919050565b6000819050919050565b60005b838110156200065657808201518184015260208101905062000639565b8381111562000666576000848401525b50505050565b600060028204905060018216806200068557607f821691505b602082108114156200069c576200069b620006d8565b5b50919050565b620006ad826200074f565b810181811067ffffffffffffffff82111715620006cf57620006ce62000707565b5b80604052505050565b7f4e487b7100000000000000000000000000000000000000000000000000000000600052602260045260246000fd5b7f4e487b7100000000000000000000000000000000000000000000000000000000600052604160045260246000fd5b600080fd5b600080fd5b600080fd5b600080fd5b600080fd5b6000601f19601f8301169050919050565b6200076b816200062c565b81146200077757600080fd5b50565b614c7f806200078a6000396000f3fe608060405234801561001057600080fd5b50600436106101d95760003560e01c8063747b805011610104578063bbb13e17116100a2578063e986655011610071578063e986655014610520578063f242432a1461052a578063f2fde38b14610546578063f9902bb114610562576101d9565b8063bbb13e17146104aa578063be59ec26146104b4578063d759000b146104d2578063e985e9c5146104f0576101d9565b80639a25ab83116100de5780639a25ab83146104385780639b19251a146104545780639ebf488b14610484578063a22cb4651461048e576101d9565b8063747b8050146103ba5780638d21c770146103ea5780638da5cb5b1461041a576101d9565b80632eb2c2d61161017c57806357f7789e1161014b57806357f7789e1461035a5780635ae698ff146103765780635d2db2bf146103a6578063715018a6146103b0576101d9565b80632eb2c2d6146102d257806344eaa84e146102ee5780634e1273f41461030c57806354dacb961461033c576101d9565b80630e89341c116101b85780630e89341c1461025c578063143cc1441461028c57806318e20a38146102aa57806319b60439146102c8576101d9565b8062fdd58e146101de57806301ffc9a71461020e57806306fdde031461023e575b600080fd5b6101f860048036038101906101f39190613231565b610592565b6040516102059190613ebd565b60405180910390f35b61022860048036038101906102239190613332565b61065b565b6040516102359190613bc0565b60405180910390f35b61024661073d565b6040516102539190613bdb565b60405180910390f35b6102766004803603810190610271919061338c565b6107cb565b6040516102839190613bdb565b60405180910390f35b610294610870565b6040516102a19190613ebd565b60405180910390f35b6102b261087a565b6040516102bf9190613ebd565b60405180910390f35b6102d0610880565b005b6102ec60048036038101906102e7919061308b565b610928565b005b6102f66109c9565b6040516103039190613ebd565b60405180910390f35b610326600480360381019061032191906132ba565b6109d3565b6040516103339190613b67565b60405180910390f35b610344610aec565b6040516103519190613ebd565b60405180910390f35b610374600480360381019061036f91906133b9565b610af2565b005b610390600480360381019061038b9190613271565b610bfc565b60405161039d9190613bc0565b60405180910390f35b6103ae610ce6565b005b6103b8610e05565b005b6103d460048036038101906103cf919061301e565b610e8d565b6040516103e19190613bc0565b60405180910390f35b61040460048036038101906103ff9190613271565b610fd8565b6040516104119190613bc0565b60405180910390f35b6104226110c2565b60405161042f9190613a38565b60405180910390f35b610452600480360381019061044d919061338c565b6110ec565b005b61046e6004803603810190610469919061301e565b6111e7565b60405161047b9190613bc0565b60405180910390f35b61048c611207565b005b6104a860048036038101906104a391906131f1565b6113e0565b005b6104b26113f6565b005b6104bc6115bf565b6040516104c99190613bc0565b60405180910390f35b6104da6115d2565b6040516104e79190613ebd565b60405180910390f35b61050a6004803603810190610505919061304b565b6115d8565b6040516105179190613bc0565b60405180910390f35b61052861166c565b005b610544600480360381019061053f919061315a565b611743565b005b610560600480360381019061055b919061301e565b6117e4565b005b61057c6004803603810190610577919061301e565b6118dc565b6040516105899190613bc0565b60405180910390f35b60008073ffffffffffffffffffffffffffffffffffffffff168373ffffffffffffffffffffffffffffffffffffffff161415610603576040517f08c379a00000000000000000000000000000000000000000000000000000000081526004016105fa90613c3d565b60405180910390fd5b60008083815260200190815260200160002060008473ffffffffffffffffffffffffffffffffffffffff1673ffffffffffffffffffffffffffffffffffffffff16815260200190815260200160002054905092915050565b60007fd9b67a26000000000000000000000000000000000000000000000000000000007bffffffffffffffffffffffffffffffffffffffffffffffffffffffff1916827bffffffffffffffffffffffffffffffffffffffffffffffffffffffff1916148061072657507f0e89341c000000000000000000000000000000000000000000000000000000007bffffffffffffffffffffffffffffffffffffffffffffffffffffffff1916827bffffffffffffffffffffffffffffffffffffffffffffffffffffffff1916145b80610736575061073582611a28565b5b9050919050565b6010805461074a90614276565b80601f016020809104026020016040519081016040528092919081815260200182805461077690614276565b80156107c35780601f10610798576101008083540402835291602001916107c3565b820191906000526020600020905b8154815290600101906020018083116107a657829003601f168201915b505050505081565b60606023600083815260200190815260200160002080546107eb90614276565b80601f016020809104026020016040519081016040528092919081815260200182805461081790614276565b80156108645780601f1061083957610100808354040283529160200191610864565b820191906000526020600020905b81548152906001019060200180831161084757829003601f168201915b50505050509050919050565b6000600d54905090565b600f5481565b610888611a92565b73ffffffffffffffffffffffffffffffffffffffff166108a66110c2565b73ffffffffffffffffffffffffffffffffffffffff16146108fc576040517f08c379a00000000000000000000000000000000000000000000000000000000081526004016108f390613d9d565b60405180910390fd5b601160009054906101000a900460ff1615601160006101000a81548160ff021916908315150217905550565b610930611a92565b73ffffffffffffffffffffffffffffffffffffffff168573ffffffffffffffffffffffffffffffffffffffff161480610976575061097585610970611a92565b6115d8565b5b6109b5576040517f08c379a00000000000000000000000000000000000000000000000000000000081526004016109ac90613d1d565b60405180910390fd5b6109c28585858585611a9a565b5050505050565b6000602254905090565b60608151835114610a19576040517f08c379a0000000000000000000000000000000000000000000000000000000008152600401610a1090613e5d565b60405180910390fd5b6000835167ffffffffffffffff811115610a3657610a35614467565b5b604051908082528060200260200182016040528015610a645781602001602082028036833780820191505090505b50905060005b8451811015610ae157610ab1858281518110610a8957610a88614438565b5b6020026020010151858381518110610aa457610aa3614438565b5b6020026020010151610592565b828281518110610ac457610ac3614438565b5b60200260200101818152505080610ada906142d9565b9050610a6a565b508091505092915050565b60225481565b610afa611a92565b73ffffffffffffffffffffffffffffffffffffffff16610b186110c2565b73ffffffffffffffffffffffffffffffffffffffff1614610b6e576040517f08c379a0000000000000000000000000000000000000000000000000000000008152600401610b6590613d9d565b60405180910390fd5b6000602360008481526020019081526020016000208054610b8e90614276565b905014610bd0576040517f08c379a0000000000000000000000000000000000000000000000000000000008152600401610bc790613d3d565b60405180910390fd5b80602360008481526020019081526020016000209080519060200190610bf7929190612cd4565b505050565b6000610c06611a92565b73ffffffffffffffffffffffffffffffffffffffff16610c246110c2565b73ffffffffffffffffffffffffffffffffffffffff1614610c7a576040517f08c379a0000000000000000000000000000000000000000000000000000000008152600401610c7190613d9d565b60405180910390fd5b60005b8251811015610ce057610ca9838281518110610c9c57610c9b614438565b5b6020026020010151610e8d565b15610ccd57600160226000828254610cc1919061409e565b92505081905550600191505b8080610cd8906142d9565b915050610c7d565b50919050565b610cee611a92565b73ffffffffffffffffffffffffffffffffffffffff16610d0c6110c2565b73ffffffffffffffffffffffffffffffffffffffff1614610d62576040517f08c379a0000000000000000000000000000000000000000000000000000000008152600401610d5990613d9d565b60405180910390fd5b60005b600c54811015610dd6576000600c5482601654610d82919061409e565b610d8c919061437a565b9050610dc2816004610d9d84611dae565b604051602001610dae9291906139aa565b604051602081830303815290604052610af2565b508080610dce906142d9565b915050610d65565b50610e03600c546005604051602001610def9190613993565b604051602081830303815290604052610af2565b565b610e0d611a92565b73ffffffffffffffffffffffffffffffffffffffff16610e2b6110c2565b73ffffffffffffffffffffffffffffffffffffffff1614610e81576040517f08c379a0000000000000000000000000000000000000000000000000000000008152600401610e7890613d9d565b60405180910390fd5b610e8b6000611f0f565b565b6000610e97611a92565b73ffffffffffffffffffffffffffffffffffffffff16610eb56110c2565b73ffffffffffffffffffffffffffffffffffffffff1614610f0b576040517f08c379a0000000000000000000000000000000000000000000000000000000008152600401610f0290613d9d565b60405180910390fd5b602160008373ffffffffffffffffffffffffffffffffffffffff1673ffffffffffffffffffffffffffffffffffffffff16815260200190815260200160002060009054906101000a900460ff16610fd3576001602160008473ffffffffffffffffffffffffffffffffffffffff1673ffffffffffffffffffffffffffffffffffffffff16815260200190815260200160002060006101000a81548160ff021916908315150217905550600160226000828254610fc7919061409e565b92505081905550600190505b919050565b6000610fe2611a92565b73ffffffffffffffffffffffffffffffffffffffff166110006110c2565b73ffffffffffffffffffffffffffffffffffffffff1614611056576040517f08c379a000000000000000000000000000000000000000000000000000000000815260040161104d90613d9d565b60405180910390fd5b60005b82518110156110bc5761108583828151811061107857611077614438565b5b60200260200101516118dc565b156110a95760016022600082825461109d919061417f565b92505081905550600191505b80806110b4906142d9565b915050611059565b50919050565b6000600360009054906101000a900473ffffffffffffffffffffffffffffffffffffffff16905090565b600d54600c546110fc9190614125565b60145410156111e457600d5460246000838152602001908152602001600020541061115c576040517f08c379a000000000000000000000000000000000000000000000000000000000815260040161115390613cdd565b60405180910390fd5b61119e338260016040518060400160405280600481526020017f3078303000000000000000000000000000000000000000000000000000000000815250611fd5565b60016024600083815260200190815260200160002060008282546111c2919061409e565b925050819055506001601460008282546111dc919061409e565b925050819055505b50565b60216020528060005260406000206000915054906101000a900460ff1681565b602160003373ffffffffffffffffffffffffffffffffffffffff1673ffffffffffffffffffffffffffffffffffffffff16815260200190815260200160002060009054906101000a900460ff16611293576040517f08c379a000000000000000000000000000000000000000000000000000000000815260040161128a90613cbd565b60405180910390fd5b6000600c549050600b54601254106112e0576040517f08c379a00000000000000000000000000000000000000000000000000000000081526004016112d790613ddd565b60405180910390fd5b60016112ec3383610592565b1061132c576040517f08c379a000000000000000000000000000000000000000000000000000000000815260040161132390613e1d565b60405180910390fd5b61136e338260016040518060400160405280600481526020017f3078303000000000000000000000000000000000000000000000000000000000815250611fd5565b600160126000828254611381919061409e565b9250508190555060016020600082825461139b919061417f565b925050819055507f2e0f4d63dcc00e6a11c8aef9f6e15c1f9cd6e9a090b2dd99c7b797f1a28d300d336012546040516113d5929190613b15565b60405180910390a150565b6113f26113eb611a92565b838361216b565b5050565b602160003373ffffffffffffffffffffffffffffffffffffffff1673ffffffffffffffffffffffffffffffffffffffff16815260200190815260200160002060009054906101000a900460ff16611482576040517f08c379a000000000000000000000000000000000000000000000000000000000815260040161147990613cbd565b60405180910390fd5b6000600c549050601160009054906101000a900460ff166114d8576040517f08c379a00000000000000000000000000000000000000000000000000000000081526004016114cf90613dfd565b60405180910390fd5b60016114e43383610592565b14611524576040517f08c379a000000000000000000000000000000000000000000000000000000000815260040161151b90613dbd565b60405180910390fd5b600061152e6122d8565b905060005b60058160ff16101561157557611562828260ff166005811061155857611557614438565b5b60200201516110ec565b808061156d90614322565b915050611533565b50611582338360016123bc565b7f15abe0b63b201b70614c230381f0fabc4a26a1957629948558095a11db1d6fb581336040516115b3929190613b3e565b60405180910390a15050565b601160009054906101000a900460ff1681565b60205481565b6000600160008473ffffffffffffffffffffffffffffffffffffffff1673ffffffffffffffffffffffffffffffffffffffff16815260200190815260200160002060008373ffffffffffffffffffffffffffffffffffffffff1673ffffffffffffffffffffffffffffffffffffffff16815260200190815260200160002060009054906101000a900460ff16905092915050565b611674611a92565b73ffffffffffffffffffffffffffffffffffffffff166116926110c2565b73ffffffffffffffffffffffffffffffffffffffff16146116e8576040517f08c379a00000000000000000000000000000000000000000000000000000000081526004016116df90613d9d565b60405180910390fd5b600d54600c546116f89190614125565b600143611705919061417f565b4060001c611713919061437a565b601681905550600060165414156117415761173a60016016546125d990919063ffffffff16565b6016819055505b565b61174b611a92565b73ffffffffffffffffffffffffffffffffffffffff168573ffffffffffffffffffffffffffffffffffffffff16148061179157506117908561178b611a92565b6115d8565b5b6117d0576040517f08c379a00000000000000000000000000000000000000000000000000000000081526004016117c790613c9d565b60405180910390fd5b6117dd85858585856125ef565b5050505050565b6117ec611a92565b73ffffffffffffffffffffffffffffffffffffffff1661180a6110c2565b73ffffffffffffffffffffffffffffffffffffffff1614611860576040517f08c379a000000000000000000000000000000000000000000000000000000000815260040161185790613d9d565b60405180910390fd5b600073ffffffffffffffffffffffffffffffffffffffff168173ffffffffffffffffffffffffffffffffffffffff1614156118d0576040517f08c379a00000000000000000000000000000000000000000000000000000000081526004016118c790613c5d565b60405180910390fd5b6118d981611f0f565b50565b60006118e6611a92565b73ffffffffffffffffffffffffffffffffffffffff166119046110c2565b73ffffffffffffffffffffffffffffffffffffffff161461195a576040517f08c379a000000000000000000000000000000000000000000000000000000000815260040161195190613d9d565b60405180910390fd5b602160008373ffffffffffffffffffffffffffffffffffffffff1673ffffffffffffffffffffffffffffffffffffffff16815260200190815260200160002060009054906101000a900460ff1615611a23576000602160008473ffffffffffffffffffffffffffffffffffffffff1673ffffffffffffffffffffffffffffffffffffffff16815260200190815260200160002060006101000a81548160ff021916908315150217905550600160226000828254611a17919061417f565b92505081905550600190505b919050565b60007f01ffc9a7000000000000000000000000000000000000000000000000000000007bffffffffffffffffffffffffffffffffffffffffffffffffffffffff1916827bffffffffffffffffffffffffffffffffffffffffffffffffffffffff1916149050919050565b600033905090565b8151835114611ade576040517f08c379a0000000000000000000000000000000000000000000000000000000008152600401611ad590613e7d565b60405180910390fd5b600073ffffffffffffffffffffffffffffffffffffffff168473ffffffffffffffffffffffffffffffffffffffff161415611b4e576040517f08c379a0000000000000000000000000000000000000000000000000000000008152600401611b4590613cfd565b60405180910390fd5b6000611b58611a92565b9050611b68818787878787612871565b60005b8451811015611d19576000858281518110611b8957611b88614438565b5b602002602001015190506000858381518110611ba857611ba7614438565b5b60200260200101519050600080600084815260200190815260200160002060008b73ffffffffffffffffffffffffffffffffffffffff1673ffffffffffffffffffffffffffffffffffffffff16815260200190815260200160002054905081811015611c49576040517f08c379a0000000000000000000000000000000000000000000000000000000008152600401611c4090613d7d565b60405180910390fd5b81810360008085815260200190815260200160002060008c73ffffffffffffffffffffffffffffffffffffffff1673ffffffffffffffffffffffffffffffffffffffff168152602001908152602001600020819055508160008085815260200190815260200160002060008b73ffffffffffffffffffffffffffffffffffffffff1673ffffffffffffffffffffffffffffffffffffffff1681526020019081526020016000206000828254611cfe919061409e565b9250508190555050505080611d12906142d9565b9050611b6b565b508473ffffffffffffffffffffffffffffffffffffffff168673ffffffffffffffffffffffffffffffffffffffff168273ffffffffffffffffffffffffffffffffffffffff167f4a39dc06d4c0dbc64b70af90fd698a233a518aa5d07e595d983b8c0526c8f7fb8787604051611d90929190613b89565b60405180910390a4611da6818787878787612879565b505050505050565b60606000821415611df6576040518060400160405280600181526020017f30000000000000000000000000000000000000000000000000000000000000008152509050611f0a565b600082905060005b60008214611e28578080611e11906142d9565b915050600a82611e2191906140f4565b9150611dfe565b60008167ffffffffffffffff811115611e4457611e43614467565b5b6040519080825280601f01601f191660200182016040528015611e765781602001600182028036833780820191505090505b5090505b60008514611f0357600182611e8f919061417f565b9150600a85611e9e919061437a565b6030611eaa919061409e565b60f81b818381518110611ec057611ebf614438565b5b60200101907effffffffffffffffffffffffffffffffffffffffffffffffffffffffffffff1916908160001a905350600a85611efc91906140f4565b9450611e7a565b8093505050505b919050565b6000600360009054906101000a900473ffffffffffffffffffffffffffffffffffffffff16905081600360006101000a81548173ffffffffffffffffffffffffffffffffffffffff021916908373ffffffffffffffffffffffffffffffffffffffff1602179055508173ffffffffffffffffffffffffffffffffffffffff168173ffffffffffffffffffffffffffffffffffffffff167f8be0079c531659141344cd1fd0a4f28419497f9722a3daafe3b4186f6b6457e060405160405180910390a35050565b600073ffffffffffffffffffffffffffffffffffffffff168473ffffffffffffffffffffffffffffffffffffffff161415612045576040517f08c379a000000000000000000000000000000000000000000000000000000000815260040161203c90613e9d565b60405180910390fd5b600061204f611a92565b90506120708160008761206188612a60565b61206a88612a60565b87612871565b8260008086815260200190815260200160002060008773ffffffffffffffffffffffffffffffffffffffff1673ffffffffffffffffffffffffffffffffffffffff16815260200190815260200160002060008282546120cf919061409e565b925050819055508473ffffffffffffffffffffffffffffffffffffffff16600073ffffffffffffffffffffffffffffffffffffffff168273ffffffffffffffffffffffffffffffffffffffff167fc3d58168c5ae7397731d063d5bbf3d657854427343f4c083240f7aacaa2d0f62878760405161214d929190613ed8565b60405180910390a461216481600087878787612ada565b5050505050565b8173ffffffffffffffffffffffffffffffffffffffff168373ffffffffffffffffffffffffffffffffffffffff1614156121da576040517f08c379a00000000000000000000000000000000000000000000000000000000081526004016121d190613e3d565b60405180910390fd5b80600160008573ffffffffffffffffffffffffffffffffffffffff1673ffffffffffffffffffffffffffffffffffffffff16815260200190815260200160002060008473ffffffffffffffffffffffffffffffffffffffff1673ffffffffffffffffffffffffffffffffffffffff16815260200190815260200160002060006101000a81548160ff0219169083151502179055508173ffffffffffffffffffffffffffffffffffffffff168373ffffffffffffffffffffffffffffffffffffffff167f17307eab39ab6107e8899845ad3d59bd9653f200f220920489ca2b5937696c31836040516122cb9190613bc0565b60405180910390a3505050565b6122e0612d5a565b6122e8612d5a565b60005b60058110156123b4576000600a826123039190614125565b905060006009600a846123169190614125565b612320919061409e565b90508160018383612331919061417f565b61233b919061409e565b423344876012546040516020016123569594939291906139d9565b6040516020818303038152906040528051906020012060001c612379919061437a565b612383919061409e565b84846005811061239657612395614438565b5b602002018181525050505080806123ac906142d9565b9150506122eb565b508091505090565b600073ffffffffffffffffffffffffffffffffffffffff168373ffffffffffffffffffffffffffffffffffffffff16141561242c576040517f08c379a000000000000000000000000000000000000000000000000000000000815260040161242390613d5d565b60405180910390fd5b6000612436611a92565b90506124668185600061244887612a60565b61245187612a60565b60405180602001604052806000815250612871565b600080600085815260200190815260200160002060008673ffffffffffffffffffffffffffffffffffffffff1673ffffffffffffffffffffffffffffffffffffffff168152602001908152602001600020549050828110156124fd576040517f08c379a00000000000000000000000000000000000000000000000000000000081526004016124f490613c7d565b60405180910390fd5b82810360008086815260200190815260200160002060008773ffffffffffffffffffffffffffffffffffffffff1673ffffffffffffffffffffffffffffffffffffffff16815260200190815260200160002081905550600073ffffffffffffffffffffffffffffffffffffffff168573ffffffffffffffffffffffffffffffffffffffff168373ffffffffffffffffffffffffffffffffffffffff167fc3d58168c5ae7397731d063d5bbf3d657854427343f4c083240f7aacaa2d0f6287876040516125ca929190613ed8565b60405180910390a45050505050565b600081836125e7919061409e565b905092915050565b600073ffffffffffffffffffffffffffffffffffffffff168473ffffffffffffffffffffffffffffffffffffffff16141561265f576040517f08c379a000000000000000000000000000000000000000000000000000000000815260040161265690613cfd565b60405180910390fd5b6000612669611a92565b905061268981878761267a88612a60565b61268388612a60565b87612871565b600080600086815260200190815260200160002060008873ffffffffffffffffffffffffffffffffffffffff1673ffffffffffffffffffffffffffffffffffffffff16815260200190815260200160002054905083811015612720576040517f08c379a000000000000000000000000000000000000000000000000000000000815260040161271790613d7d565b60405180910390fd5b83810360008087815260200190815260200160002060008973ffffffffffffffffffffffffffffffffffffffff1673ffffffffffffffffffffffffffffffffffffffff168152602001908152602001600020819055508360008087815260200190815260200160002060008873ffffffffffffffffffffffffffffffffffffffff1673ffffffffffffffffffffffffffffffffffffffff16815260200190815260200160002060008282546127d5919061409e565b925050819055508573ffffffffffffffffffffffffffffffffffffffff168773ffffffffffffffffffffffffffffffffffffffff168373ffffffffffffffffffffffffffffffffffffffff167fc3d58168c5ae7397731d063d5bbf3d657854427343f4c083240f7aacaa2d0f628888604051612852929190613ed8565b60405180910390a4612868828888888888612ada565b50505050505050565b505050505050565b6128988473ffffffffffffffffffffffffffffffffffffffff16612cc1565b15612a58578373ffffffffffffffffffffffffffffffffffffffff1663bc197c8187878686866040518663ffffffff1660e01b81526004016128de959493929190613a53565b602060405180830381600087803b1580156128f857600080fd5b505af192505050801561292957506040513d601f19601f82011682018060405250810190612926919061335f565b60015b6129cf57612935614496565b806308c379a01415612992575061294a614b57565b806129555750612994565b806040517f08c379a00000000000000000000000000000000000000000000000000000000081526004016129899190613bdb565b60405180910390fd5b505b6040517f08c379a00000000000000000000000000000000000000000000000000000000081526004016129c690613bfd565b60405180910390fd5b63bc197c8160e01b7bffffffffffffffffffffffffffffffffffffffffffffffffffffffff1916817bffffffffffffffffffffffffffffffffffffffffffffffffffffffff191614612a56576040517f08c379a0000000000000000000000000000000000000000000000000000000008152600401612a4d90613c1d565b60405180910390fd5b505b505050505050565b60606000600167ffffffffffffffff811115612a7f57612a7e614467565b5b604051908082528060200260200182016040528015612aad5781602001602082028036833780820191505090505b5090508281600081518110612ac557612ac4614438565b5b60200260200101818152505080915050919050565b612af98473ffffffffffffffffffffffffffffffffffffffff16612cc1565b15612cb9578373ffffffffffffffffffffffffffffffffffffffff1663f23a6e6187878686866040518663ffffffff1660e01b8152600401612b3f959493929190613abb565b602060405180830381600087803b158015612b5957600080fd5b505af1925050508015612b8a57506040513d601f19601f82011682018060405250810190612b87919061335f565b60015b612c3057612b96614496565b806308c379a01415612bf35750612bab614b57565b80612bb65750612bf5565b806040517f08c379a0000000000000000000000000000000000000000000000000000000008152600401612bea9190613bdb565b60405180910390fd5b505b6040517f08c379a0000000000000000000000000000000000000000000000000000000008152600401612c2790613bfd565b60405180910390fd5b63f23a6e6160e01b7bffffffffffffffffffffffffffffffffffffffffffffffffffffffff1916817bffffffffffffffffffffffffffffffffffffffffffffffffffffffff191614612cb7576040517f08c379a0000000000000000000000000000000000000000000000000000000008152600401612cae90613c1d565b60405180910390fd5b505b505050505050565b600080823b905060008111915050919050565b828054612ce090614276565b90600052602060002090601f016020900481019282612d025760008555612d49565b82601f10612d1b57805160ff1916838001178555612d49565b82800160010185558215612d49579182015b82811115612d48578251825591602001919060010190612d2d565b5b509050612d569190612d7c565b5090565b6040518060a00160405280600590602082028036833780820191505090505090565b5b80821115612d95576000816000905550600101612d7d565b5090565b6000612dac612da784613f26565b613f01565b90508083825260208201905082856020860282011115612dcf57612dce6144bd565b5b60005b85811015612dff5781612de58882612efd565b845260208401935060208301925050600181019050612dd2565b5050509392505050565b6000612e1c612e1784613f52565b613f01565b90508083825260208201905082856020860282011115612e3f57612e3e6144bd565b5b60005b85811015612e6f5781612e558882613009565b845260208401935060208301925050600181019050612e42565b5050509392505050565b6000612e8c612e8784613f7e565b613f01565b905082815260208101848484011115612ea857612ea76144c2565b5b612eb3848285614234565b509392505050565b6000612ece612ec984613faf565b613f01565b905082815260208101848484011115612eea57612ee96144c2565b5b612ef5848285614234565b509392505050565b600081359050612f0c81614bed565b92915050565b600082601f830112612f2757612f266144b8565b5b8135612f37848260208601612d99565b91505092915050565b600082601f830112612f5557612f546144b8565b5b8135612f65848260208601612e09565b91505092915050565b600081359050612f7d81614c04565b92915050565b600081359050612f9281614c1b565b92915050565b600081519050612fa781614c1b565b92915050565b600082601f830112612fc257612fc16144b8565b5b8135612fd2848260208601612e79565b91505092915050565b600082601f830112612ff057612fef6144b8565b5b8135613000848260208601612ebb565b91505092915050565b60008135905061301881614c32565b92915050565b600060208284031215613034576130336144cc565b5b600061304284828501612efd565b91505092915050565b60008060408385031215613062576130616144cc565b5b600061307085828601612efd565b925050602061308185828601612efd565b9150509250929050565b600080600080600060a086880312156130a7576130a66144cc565b5b60006130b588828901612efd565b95505060206130c688828901612efd565b945050604086013567ffffffffffffffff8111156130e7576130e66144c7565b5b6130f388828901612f40565b935050606086013567ffffffffffffffff811115613114576131136144c7565b5b61312088828901612f40565b925050608086013567ffffffffffffffff811115613141576131406144c7565b5b61314d88828901612fad565b9150509295509295909350565b600080600080600060a08688031215613176576131756144cc565b5b600061318488828901612efd565b955050602061319588828901612efd565b94505060406131a688828901613009565b93505060606131b788828901613009565b925050608086013567ffffffffffffffff8111156131d8576131d76144c7565b5b6131e488828901612fad565b9150509295509295909350565b60008060408385031215613208576132076144cc565b5b600061321685828601612efd565b925050602061322785828601612f6e565b9150509250929050565b60008060408385031215613248576132476144cc565b5b600061325685828601612efd565b925050602061326785828601613009565b9150509250929050565b600060208284031215613287576132866144cc565b5b600082013567ffffffffffffffff8111156132a5576132a46144c7565b5b6132b184828501612f12565b91505092915050565b600080604083850312156132d1576132d06144cc565b5b600083013567ffffffffffffffff8111156132ef576132ee6144c7565b5b6132fb85828601612f12565b925050602083013567ffffffffffffffff81111561331c5761331b6144c7565b5b61332885828601612f40565b9150509250929050565b600060208284031215613348576133476144cc565b5b600061335684828501612f83565b91505092915050565b600060208284031215613375576133746144cc565b5b600061338384828501612f98565b91505092915050565b6000602082840312156133a2576133a16144cc565b5b60006133b084828501613009565b91505092915050565b600080604083850312156133d0576133cf6144cc565b5b60006133de85828601613009565b925050602083013567ffffffffffffffff8111156133ff576133fe6144c7565b5b61340b85828601612fdb565b9150509250929050565b6000613421838361395e565b60208301905092915050565b613436816141b3565b82525050565b61344d613448826141b3565b61434c565b82525050565b61345c8161400f565b6134668184614055565b925061347182613fe0565b8060005b838110156134a25781516134898782613415565b96506134948361403b565b925050600181019050613475565b505050505050565b60006134b58261401a565b6134bf8185614060565b93506134ca83613fea565b8060005b838110156134fb5781516134e28882613415565b97506134ed83614048565b9250506001810190506134ce565b5085935050505092915050565b613511816141c5565b82525050565b600061352282614025565b61352c8185614071565b935061353c818560208601614243565b613545816144d1565b840191505092915050565b600061355b82614030565b6135658185614082565b9350613575818560208601614243565b61357e816144d1565b840191505092915050565b600061359482614030565b61359e8185614093565b93506135ae818560208601614243565b80840191505092915050565b600081546135c781614276565b6135d18186614093565b945060018216600081146135ec57600181146135fd57613630565b60ff19831686528186019350613630565b61360685613ffa565b60005b8381101561362857815481890152600182019150602081019050613609565b838801955050505b50505092915050565b6000613646603483614082565b9150613651826144fc565b604082019050919050565b6000613669602883614082565b91506136748261454b565b604082019050919050565b600061368c602b83614082565b91506136978261459a565b604082019050919050565b60006136af602683614082565b91506136ba826145e9565b604082019050919050565b60006136d2602483614082565b91506136dd82614638565b604082019050919050565b60006136f5602983614082565b915061370082614687565b604082019050919050565b6000613718601883614082565b9150613723826146d6565b602082019050919050565b600061373b602d83614082565b9150613746826146ff565b604082019050919050565b600061375e602583614082565b91506137698261474e565b604082019050919050565b6000613781603283614082565b915061378c8261479d565b604082019050919050565b60006137a4601483614082565b91506137af826147ec565b602082019050919050565b60006137c7602383614082565b91506137d282614815565b604082019050919050565b60006137ea602a83614082565b91506137f582614864565b604082019050919050565b600061380d600583614093565b9150613818826148b3565b600582019050919050565b6000613830602083614082565b915061383b826148dc565b602082019050919050565b6000613853602f83614082565b915061385e82614905565b604082019050919050565b6000613876602383614082565b915061388182614954565b604082019050919050565b6000613899601f83614082565b91506138a4826149a3565b602082019050919050565b60006138bc602a83614082565b91506138c7826149cc565b604082019050919050565b60006138df602983614082565b91506138ea82614a1b565b604082019050919050565b6000613902602983614082565b915061390d82614a6a565b604082019050919050565b6000613925602883614082565b915061393082614ab9565b604082019050919050565b6000613948602183614082565b915061395382614b08565b604082019050919050565b6139678161421d565b82525050565b6139768161421d565b82525050565b61398d6139888261421d565b614370565b82525050565b600061399f82846135ba565b915081905092915050565b60006139b682856135ba565b91506139c28284613589565b91506139cd82613800565b91508190509392505050565b60006139e5828861397c565b6020820191506139f5828761343c565b601482019150613a05828661397c565b602082019150613a15828561397c565b602082019150613a25828461397c565b6020820191508190509695505050505050565b6000602082019050613a4d600083018461342d565b92915050565b600060a082019050613a68600083018861342d565b613a75602083018761342d565b8181036040830152613a8781866134aa565b90508181036060830152613a9b81856134aa565b90508181036080830152613aaf8184613517565b90509695505050505050565b600060a082019050613ad0600083018861342d565b613add602083018761342d565b613aea604083018661396d565b613af7606083018561396d565b8181036080830152613b098184613517565b90509695505050505050565b6000604082019050613b2a600083018561342d565b613b37602083018461396d565b9392505050565b600060c082019050613b536000830185613453565b613b6060a083018461342d565b9392505050565b60006020820190508181036000830152613b8181846134aa565b905092915050565b60006040820190508181036000830152613ba381856134aa565b90508181036020830152613bb781846134aa565b90509392505050565b6000602082019050613bd56000830184613508565b92915050565b60006020820190508181036000830152613bf58184613550565b905092915050565b60006020820190508181036000830152613c1681613639565b9050919050565b60006020820190508181036000830152613c368161365c565b9050919050565b60006020820190508181036000830152613c568161367f565b9050919050565b60006020820190508181036000830152613c76816136a2565b9050919050565b60006020820190508181036000830152613c96816136c5565b9050919050565b60006020820190508181036000830152613cb6816136e8565b9050919050565b60006020820190508181036000830152613cd68161370b565b9050919050565b60006020820190508181036000830152613cf68161372e565b9050919050565b60006020820190508181036000830152613d1681613751565b9050919050565b60006020820190508181036000830152613d3681613774565b9050919050565b60006020820190508181036000830152613d5681613797565b9050919050565b60006020820190508181036000830152613d76816137ba565b9050919050565b60006020820190508181036000830152613d96816137dd565b9050919050565b60006020820190508181036000830152613db681613823565b9050919050565b60006020820190508181036000830152613dd681613846565b9050919050565b60006020820190508181036000830152613df681613869565b9050919050565b60006020820190508181036000830152613e168161388c565b9050919050565b60006020820190508181036000830152613e36816138af565b9050919050565b60006020820190508181036000830152613e56816138d2565b9050919050565b60006020820190508181036000830152613e76816138f5565b9050919050565b60006020820190508181036000830152613e9681613918565b9050919050565b60006020820190508181036000830152613eb68161393b565b9050919050565b6000602082019050613ed2600083018461396d565b92915050565b6000604082019050613eed600083018561396d565b613efa602083018461396d565b9392505050565b6000613f0b613f1c565b9050613f1782826142a8565b919050565b6000604051905090565b600067ffffffffffffffff821115613f4157613f40614467565b5b602082029050602081019050919050565b600067ffffffffffffffff821115613f6d57613f6c614467565b5b602082029050602081019050919050565b600067ffffffffffffffff821115613f9957613f98614467565b5b613fa2826144d1565b9050602081019050919050565b600067ffffffffffffffff821115613fca57613fc9614467565b5b613fd3826144d1565b9050602081019050919050565b6000819050919050565b6000819050602082019050919050565b60008190508160005260206000209050919050565b600060059050919050565b600081519050919050565b600081519050919050565b600081519050919050565b6000602082019050919050565b6000602082019050919050565b600081905092915050565b600082825260208201905092915050565b600082825260208201905092915050565b600082825260208201905092915050565b600081905092915050565b60006140a98261421d565b91506140b48361421d565b9250827fffffffffffffffffffffffffffffffffffffffffffffffffffffffffffffffff038211156140e9576140e86143ab565b5b828201905092915050565b60006140ff8261421d565b915061410a8361421d565b92508261411a576141196143da565b5b828204905092915050565b60006141308261421d565b915061413b8361421d565b9250817fffffffffffffffffffffffffffffffffffffffffffffffffffffffffffffffff0483118215151615614174576141736143ab565b5b828202905092915050565b600061418a8261421d565b91506141958361421d565b9250828210156141a8576141a76143ab565b5b828203905092915050565b60006141be826141fd565b9050919050565b60008115159050919050565b60007fffffffff0000000000000000000000000000000000000000000000000000000082169050919050565b600073ffffffffffffffffffffffffffffffffffffffff82169050919050565b6000819050919050565b600060ff82169050919050565b82818337600083830152505050565b60005b83811015614261578082015181840152602081019050614246565b83811115614270576000848401525b50505050565b6000600282049050600182168061428e57607f821691505b602082108114156142a2576142a1614409565b5b50919050565b6142b1826144d1565b810181811067ffffffffffffffff821117156142d0576142cf614467565b5b80604052505050565b60006142e48261421d565b91507fffffffffffffffffffffffffffffffffffffffffffffffffffffffffffffffff821415614317576143166143ab565b5b600182019050919050565b600061432d82614227565b915060ff821415614341576143406143ab565b5b600182019050919050565b60006143578261435e565b9050919050565b6000614369826144e2565b9050919050565b6000819050919050565b60006143858261421d565b91506143908361421d565b9250826143a05761439f6143da565b5b828206905092915050565b7f4e487b7100000000000000000000000000000000000000000000000000000000600052601160045260246000fd5b7f4e487b7100000000000000000000000000000000000000000000000000000000600052601260045260246000fd5b7f4e487b7100000000000000000000000000000000000000000000000000000000600052602260045260246000fd5b7f4e487b7100000000000000000000000000000000000000000000000000000000600052603260045260246000fd5b7f4e487b7100000000000000000000000000000000000000000000000000000000600052604160045260246000fd5b600060033d11156144b55760046000803e6144b26000516144ef565b90505b90565b600080fd5b600080fd5b600080fd5b600080fd5b600080fd5b6000601f19601f8301169050919050565b60008160601b9050919050565b60008160e01c9050919050565b7f455243313135353a207472616e7366657220746f206e6f6e204552433131353560008201527f526563656976657220696d706c656d656e746572000000000000000000000000602082015250565b7f455243313135353a204552433131353552656365697665722072656a6563746560008201527f6420746f6b656e73000000000000000000000000000000000000000000000000602082015250565b7f455243313135353a2062616c616e636520717565727920666f7220746865207a60008201527f65726f2061646472657373000000000000000000000000000000000000000000602082015250565b7f4f776e61626c653a206e6577206f776e657220697320746865207a65726f206160008201527f6464726573730000000000000000000000000000000000000000000000000000602082015250565b7f455243313135353a206275726e20616d6f756e7420657863656564732062616c60008201527f616e636500000000000000000000000000000000000000000000000000000000602082015250565b7f455243313135353a2063616c6c6572206973206e6f74206f776e6572206e6f7260008201527f20617070726f7665640000000000000000000000000000000000000000000000602082015250565b7f55736572206973206e6f742077686974656c69737465642e0000000000000000600082015250565b7f416c6c206f662074686973206174686c657465206861766520616c726561647960008201527f206265656e206d696e7465642100000000000000000000000000000000000000602082015250565b7f455243313135353a207472616e7366657220746f20746865207a65726f20616460008201527f6472657373000000000000000000000000000000000000000000000000000000602082015250565b7f455243313135353a207472616e736665722063616c6c6572206973206e6f742060008201527f6f776e6572206e6f7220617070726f7665640000000000000000000000000000602082015250565b7f43616e6e6f742073657420757269207477696365000000000000000000000000600082015250565b7f455243313135353a206275726e2066726f6d20746865207a65726f206164647260008201527f6573730000000000000000000000000000000000000000000000000000000000602082015250565b7f455243313135353a20696e73756666696369656e742062616c616e636520666f60008201527f72207472616e7366657200000000000000000000000000000000000000000000602082015250565b7f2e6a736f6e000000000000000000000000000000000000000000000000000000600082015250565b7f4f776e61626c653a2063616c6c6572206973206e6f7420746865206f776e6572600082015250565b7f5061636b2068617320616c7265616479206265656e206275726e6564206f722060008201527f646f6573206e6f742065786973742e0000000000000000000000000000000000602082015250565b7f416c6c207061636b73206861766520616c7265616479206265656e206d696e7460008201527f6564210000000000000000000000000000000000000000000000000000000000602082015250565b7f5061636b73206172656e277420726561647920746f206f70656e207965742100600082015250565b7f43616e206f6e6c79206d696e74206f6e652073746172746572207061636b207060008201527f6572206163636f756e7400000000000000000000000000000000000000000000602082015250565b7f455243313135353a2073657474696e6720617070726f76616c2073746174757360008201527f20666f722073656c660000000000000000000000000000000000000000000000602082015250565b7f455243313135353a206163636f756e747320616e6420696473206c656e67746860008201527f206d69736d617463680000000000000000000000000000000000000000000000602082015250565b7f455243313135353a2069647320616e6420616d6f756e7473206c656e6774682060008201527f6d69736d61746368000000000000000000000000000000000000000000000000602082015250565b7f455243313135353a206d696e7420746f20746865207a65726f2061646472657360008201527f7300000000000000000000000000000000000000000000000000000000000000602082015250565b600060443d1015614b6757614bea565b614b6f613f1c565b60043d036004823e80513d602482011167ffffffffffffffff82111715614b97575050614bea565b808201805167ffffffffffffffff811115614bb55750505050614bea565b80602083010160043d038501811115614bd2575050505050614bea565b614be1826020018501866142a8565b82955050505050505b90565b614bf6816141b3565b8114614c0157600080fd5b50565b614c0d816141c5565b8114614c1857600080fd5b50565b614c24816141d1565b8114614c2f57600080fd5b50565b614c3b8161421d565b8114614c4657600080fd5b5056fea264697066735822122002562d0be744ec47d3491f8a8246fc42789a534ebbe969c070ab9db73ddba7ee64736f6c63430008070033",
  "linkReferences": {},
  "deployedLinkReferences": {}
}