{
  "_format": "hh-sol-artifact-1",
  "contractName": "GameItems",
  "sourceName": "contracts/GameItems.sol",
  "abi": [
    {
      "inputs": [],
      "stateMutability": "nonpayable",
      "type": "constructor"
    },
    {
      "anonymous": false,
      "inputs": [
        {
          "indexed": true,
          "internalType": "address",
          "name": "account",
          "type": "address"
        },
        {
          "indexed": true,
          "internalType": "address",
          "name": "operator",
          "type": "address"
        },
        {
          "indexed": false,
          "internalType": "bool",
          "name": "approved",
          "type": "bool"
        }
      ],
      "name": "ApprovalForAll",
      "type": "event"
    },
    {
      "anonymous": false,
      "inputs": [
        {
          "indexed": true,
          "internalType": "address",
          "name": "previousOwner",
          "type": "address"
        },
        {
          "indexed": true,
          "internalType": "address",
          "name": "newOwner",
          "type": "address"
        }
      ],
      "name": "OwnershipTransferred",
      "type": "event"
    },
    {
      "anonymous": false,
      "inputs": [
        {
          "indexed": true,
          "internalType": "address",
          "name": "operator",
          "type": "address"
        },
        {
          "indexed": true,
          "internalType": "address",
          "name": "from",
          "type": "address"
        },
        {
          "indexed": true,
          "internalType": "address",
          "name": "to",
          "type": "address"
        },
        {
          "indexed": false,
          "internalType": "uint256[]",
          "name": "ids",
          "type": "uint256[]"
        },
        {
          "indexed": false,
          "internalType": "uint256[]",
          "name": "values",
          "type": "uint256[]"
        }
      ],
      "name": "TransferBatch",
      "type": "event"
    },
    {
      "anonymous": false,
      "inputs": [
        {
          "indexed": true,
          "internalType": "address",
          "name": "operator",
          "type": "address"
        },
        {
          "indexed": true,
          "internalType": "address",
          "name": "from",
          "type": "address"
        },
        {
          "indexed": true,
          "internalType": "address",
          "name": "to",
          "type": "address"
        },
        {
          "indexed": false,
          "internalType": "uint256",
          "name": "id",
          "type": "uint256"
        },
        {
          "indexed": false,
          "internalType": "uint256",
          "name": "value",
          "type": "uint256"
        }
      ],
      "name": "TransferSingle",
      "type": "event"
    },
    {
      "anonymous": false,
      "inputs": [
        {
          "indexed": false,
          "internalType": "string",
          "name": "value",
          "type": "string"
        },
        {
          "indexed": true,
          "internalType": "uint256",
          "name": "id",
          "type": "uint256"
        }
      ],
      "name": "URI",
      "type": "event"
    },
    {
      "anonymous": false,
      "inputs": [
        {
          "indexed": false,
          "internalType": "address",
          "name": "user",
          "type": "address"
        },
        {
          "indexed": false,
          "internalType": "uint256",
          "name": "id",
          "type": "uint256"
        }
      ],
      "name": "packMinted",
      "type": "event"
    },
    {
      "inputs": [],
      "name": "REVEAL_TIMESTAMP",
      "outputs": [
        {
          "internalType": "uint256",
          "name": "",
          "type": "uint256"
        }
      ],
      "stateMutability": "view",
      "type": "function"
    },
    {
      "inputs": [
        {
          "internalType": "address",
          "name": "account",
          "type": "address"
        },
        {
          "internalType": "uint256",
          "name": "id",
          "type": "uint256"
        }
      ],
      "name": "balanceOf",
      "outputs": [
        {
          "internalType": "uint256",
          "name": "",
          "type": "uint256"
        }
      ],
      "stateMutability": "view",
      "type": "function"
    },
    {
      "inputs": [
        {
          "internalType": "address[]",
          "name": "accounts",
          "type": "address[]"
        },
        {
          "internalType": "uint256[]",
          "name": "ids",
          "type": "uint256[]"
        }
      ],
      "name": "balanceOfBatch",
      "outputs": [
        {
          "internalType": "uint256[]",
          "name": "",
          "type": "uint256[]"
        }
      ],
      "stateMutability": "view",
      "type": "function"
    },
    {
      "inputs": [],
      "name": "burnBoosterPack",
      "outputs": [],
      "stateMutability": "nonpayable",
      "type": "function"
    },
    {
      "inputs": [],
      "name": "burnStarterPack",
      "outputs": [],
      "stateMutability": "nonpayable",
      "type": "function"
    },
    {
      "inputs": [],
      "name": "emergencySetStartingIndexBlock",
      "outputs": [],
      "stateMutability": "nonpayable",
      "type": "function"
    },
    {
      "inputs": [],
      "name": "getNFTPerAthlete",
      "outputs": [
        {
          "internalType": "uint256",
          "name": "",
          "type": "uint256"
        }
      ],
      "stateMutability": "view",
      "type": "function"
    },
    {
      "inputs": [
        {
          "internalType": "address",
          "name": "account",
          "type": "address"
        },
        {
          "internalType": "address",
          "name": "operator",
          "type": "address"
        }
      ],
      "name": "isApprovedForAll",
      "outputs": [
        {
          "internalType": "bool",
          "name": "",
          "type": "bool"
        }
      ],
      "stateMutability": "view",
      "type": "function"
    },
    {
      "inputs": [],
      "name": "mintBoosterPack",
      "outputs": [],
      "stateMutability": "nonpayable",
      "type": "function"
    },
    {
      "inputs": [
        {
          "internalType": "uint256",
          "name": "initialSupply",
          "type": "uint256"
        }
      ],
      "name": "mintCurrency",
      "outputs": [],
      "stateMutability": "nonpayable",
      "type": "function"
    },
    {
      "inputs": [],
      "name": "mintStarterPack",
      "outputs": [],
      "stateMutability": "nonpayable",
      "type": "function"
    },
    {
      "inputs": [],
      "name": "owner",
      "outputs": [
        {
          "internalType": "address",
          "name": "",
          "type": "address"
        }
      ],
      "stateMutability": "view",
      "type": "function"
    },
    {
      "inputs": [],
      "name": "packsReadyToOpen",
      "outputs": [
        {
          "internalType": "bool",
          "name": "",
          "type": "bool"
        }
      ],
      "stateMutability": "view",
      "type": "function"
    },
    {
      "inputs": [],
      "name": "renounceOwnership",
      "outputs": [],
      "stateMutability": "nonpayable",
      "type": "function"
    },
    {
      "inputs": [
        {
          "internalType": "address",
          "name": "from",
          "type": "address"
        },
        {
          "internalType": "address",
          "name": "to",
          "type": "address"
        },
        {
          "internalType": "uint256[]",
          "name": "ids",
          "type": "uint256[]"
        },
        {
          "internalType": "uint256[]",
          "name": "amounts",
          "type": "uint256[]"
        },
        {
          "internalType": "bytes",
          "name": "data",
          "type": "bytes"
        }
      ],
      "name": "safeBatchTransferFrom",
      "outputs": [],
      "stateMutability": "nonpayable",
      "type": "function"
    },
    {
      "inputs": [
        {
          "internalType": "address",
          "name": "from",
          "type": "address"
        },
        {
          "internalType": "address",
          "name": "to",
          "type": "address"
        },
        {
          "internalType": "uint256",
          "name": "id",
          "type": "uint256"
        },
        {
          "internalType": "uint256",
          "name": "amount",
          "type": "uint256"
        },
        {
          "internalType": "bytes",
          "name": "data",
          "type": "bytes"
        }
      ],
      "name": "safeTransferFrom",
      "outputs": [],
      "stateMutability": "nonpayable",
      "type": "function"
    },
    {
      "inputs": [
        {
          "internalType": "address",
          "name": "operator",
          "type": "address"
        },
        {
          "internalType": "bool",
          "name": "approved",
          "type": "bool"
        }
      ],
      "name": "setApprovalForAll",
      "outputs": [],
      "stateMutability": "nonpayable",
      "type": "function"
    },
    {
      "inputs": [],
      "name": "setPacksReady",
      "outputs": [],
      "stateMutability": "nonpayable",
      "type": "function"
    },
    {
      "inputs": [
        {
          "internalType": "string",
          "name": "provenanceHash",
          "type": "string"
        }
      ],
      "name": "setProvenanceHash",
      "outputs": [],
      "stateMutability": "nonpayable",
      "type": "function"
    },
    {
      "inputs": [],
      "name": "setStartingIndex",
      "outputs": [],
      "stateMutability": "nonpayable",
      "type": "function"
    },
    {
      "inputs": [
        {
          "internalType": "uint256",
          "name": "tokenId",
          "type": "uint256"
        },
        {
          "internalType": "string",
          "name": "uri",
          "type": "string"
        }
      ],
      "name": "setTokenUri",
      "outputs": [],
      "stateMutability": "nonpayable",
      "type": "function"
    },
    {
      "inputs": [],
      "name": "setURIs",
      "outputs": [],
      "stateMutability": "nonpayable",
      "type": "function"
    },
    {
      "inputs": [],
      "name": "startingIndex",
      "outputs": [
        {
          "internalType": "uint256",
          "name": "",
          "type": "uint256"
        }
      ],
      "stateMutability": "view",
      "type": "function"
    },
    {
      "inputs": [],
      "name": "startingIndexBlock",
      "outputs": [
        {
          "internalType": "uint256",
          "name": "",
          "type": "uint256"
        }
      ],
      "stateMutability": "view",
      "type": "function"
    },
    {
      "inputs": [
        {
          "internalType": "bytes4",
          "name": "interfaceId",
          "type": "bytes4"
        }
      ],
      "name": "supportsInterface",
      "outputs": [
        {
          "internalType": "bool",
          "name": "",
          "type": "bool"
        }
      ],
      "stateMutability": "view",
      "type": "function"
    },
    {
      "inputs": [
        {
          "internalType": "address",
          "name": "from",
          "type": "address"
        },
        {
          "internalType": "address",
          "name": "to",
          "type": "address"
        },
        {
          "internalType": "uint256",
          "name": "amount",
          "type": "uint256"
        },
        {
          "internalType": "bytes",
          "name": "data",
          "type": "bytes"
        }
      ],
      "name": "transferCurrency",
      "outputs": [],
      "stateMutability": "nonpayable",
      "type": "function"
    },
    {
      "inputs": [
        {
          "internalType": "address",
          "name": "newOwner",
          "type": "address"
        }
      ],
      "name": "transferOwnership",
      "outputs": [],
      "stateMutability": "nonpayable",
      "type": "function"
    },
    {
      "inputs": [
        {
          "internalType": "uint256",
          "name": "tokenId",
          "type": "uint256"
        }
      ],
      "name": "uri",
      "outputs": [
        {
          "internalType": "string",
          "name": "",
          "type": "string"
        }
      ],
      "stateMutability": "view",
      "type": "function"
    }
  ],
  "bytecode": "0x6080604052604051806080016040528060518152602001620052ad605191396005908051906020019062000035929190620003be565b5060405180608001604052806056815260200162005257605691396006908051906020019062000067929190620003be565b506040518060400160405280601f81526020017f496e7365727420626f6f73746572207061636b205552492068657265203a290081525060079080519060200190620000b5929190620003be565b506001600860006101000a81548160ff0219169083151502179055506127106009556004600a55600a54600b556000600c556000600d556000600e556040518060400160405280601581526020017f68747470733a2f2f697066732e696f2f697066732f0000000000000000000000815250600f90805190602001906200013e929190620003be565b50604051806020016040528060008152506012908051906020019062000166929190620003be565b503480156200017457600080fd5b506040518060200160405280600081525062000196816200020860201b60201c565b50620001b7620001ab6200022460201b60201c565b6200022c60201b60201c565b620002026040518060400160405280601281526020017f4d616b696e6720636f6e74726163742e2e2e0000000000000000000000000000815250620002f260201b620017d71760201c565b6200059b565b806002908051906020019062000220929190620003be565b5050565b600033905090565b6000600360009054906101000a900473ffffffffffffffffffffffffffffffffffffffff16905081600360006101000a81548173ffffffffffffffffffffffffffffffffffffffff021916908373ffffffffffffffffffffffffffffffffffffffff1602179055508173ffffffffffffffffffffffffffffffffffffffff168173ffffffffffffffffffffffffffffffffffffffff167f8be0079c531659141344cd1fd0a4f28419497f9722a3daafe3b4186f6b6457e060405160405180910390a35050565b6200039281604051602401620003099190620004af565b6040516020818303038152906040527f41304fac000000000000000000000000000000000000000000000000000000007bffffffffffffffffffffffffffffffffffffffffffffffffffffffff19166020820180517bffffffffffffffffffffffffffffffffffffffffffffffffffffffff83818316178352505050506200039560201b60201c565b50565b60008151905060006a636f6e736f6c652e6c6f679050602083016000808483855afa5050505050565b828054620003cc9062000525565b90600052602060002090601f016020900481019282620003f057600085556200043c565b82601f106200040b57805160ff19168380011785556200043c565b828001600101855582156200043c579182015b828111156200043b5782518255916020019190600101906200041e565b5b5090506200044b91906200044f565b5090565b5b808211156200046a57600081600090555060010162000450565b5090565b60006200047b82620004d3565b620004878185620004de565b935062000499818560208601620004ef565b620004a4816200058a565b840191505092915050565b60006020820190508181036000830152620004cb81846200046e565b905092915050565b600081519050919050565b600082825260208201905092915050565b60005b838110156200050f578082015181840152602081019050620004f2565b838111156200051f576000848401525b50505050565b600060028204905060018216806200053e57607f821691505b602082108114156200055557620005546200055b565b5b50919050565b7f4e487b7100000000000000000000000000000000000000000000000000000000600052602260045260246000fd5b6000601f19601f8301169050919050565b614cac80620005ab6000396000f3fe608060405234801561001057600080fd5b50600436106101c35760003560e01c8063715018a6116100f9578063be59ec2611610097578063e985e9c511610071578063e985e9c514610434578063e986655014610464578063f242432a1461046e578063f2fde38b1461048a576101c3565b8063be59ec26146103da578063cb774d47146103f8578063e36d649814610416576101c3565b80638da5cb5b116100d35780638da5cb5b1461038c5780639ebf488b146103aa578063a22cb465146103b4578063bbb13e17146103d0576101c3565b8063715018a61461036e57806375223f92146103785780637d17fcbe14610382576101c3565b806319b60439116101665780634e1273f4116101405780634e1273f41461030e5780634f3551d71461033e57806357f7789e146103485780635d2db2bf14610364576101c3565b806319b60439146102cc57806319bfbb9e146102d65780632eb2c2d6146102f2576101c3565b80631072b91f116101a25780631072b91f146102585780631096952314610274578063143cc1441461029057806318e20a38146102ae576101c3565b8062fdd58e146101c857806301ffc9a7146101f85780630e89341c14610228575b600080fd5b6101e260048036038101906101dd91906133ab565b6104a6565b6040516101ef9190613fa8565b60405180910390f35b610212600480360381019061020d9190613453565b61056f565b60405161021f9190613c24565b60405180910390f35b610242600480360381019061023d91906134e6565b610651565b60405161024f9190613c3f565b60405180910390f35b610272600480360381019061026d91906134e6565b6106f6565b005b61028e600480360381019061028991906134a5565b61072d565b005b6102986107c3565b6040516102a59190613fa8565b60405180910390f35b6102b6610848565b6040516102c39190613fa8565b60405180910390f35b6102d461084e565b005b6102f060048036038101906102eb9190613265565b6108f6565b005b61030c600480360381019061030791906131a6565b61090a565b005b610328600480360381019061032391906133e7565b6109ab565b6040516103359190613bcb565b60405180910390f35b610346610b5c565b005b610362600480360381019061035d919061350f565b610c90565b005b61036c610d9a565b005b610376611025565b005b6103806110ad565b005b61038a61115a565b005b610394611224565b6040516103a19190613ac5565b60405180910390f35b6103b261124e565b005b6103ce60048036038101906103c9919061336f565b611382565b005b6103d8611398565b005b6103e2611475565b6040516103ef9190613c24565b60405180910390f35b610400611488565b60405161040d9190613fa8565b60405180910390f35b61041e61148e565b60405161042b9190613fa8565b60405180910390f35b61044e6004803603810190610449919061316a565b611494565b60405161045b9190613c24565b60405180910390f35b61046c611528565b005b610488600480360381019061048391906132e0565b61163e565b005b6104a4600480360381019061049f9190613141565b6116df565b005b60008073ffffffffffffffffffffffffffffffffffffffff168373ffffffffffffffffffffffffffffffffffffffff161415610517576040517f08c379a000000000000000000000000000000000000000000000000000000000815260040161050e90613d28565b60405180910390fd5b60008083815260200190815260200160002060008473ffffffffffffffffffffffffffffffffffffffff1673ffffffffffffffffffffffffffffffffffffffff16815260200190815260200160002054905092915050565b60007fd9b67a26000000000000000000000000000000000000000000000000000000007bffffffffffffffffffffffffffffffffffffffffffffffffffffffff1916827bffffffffffffffffffffffffffffffffffffffffffffffffffffffff1916148061063a57507f0e89341c000000000000000000000000000000000000000000000000000000007bffffffffffffffffffffffffffffffffffffffffffffffffffffffff1916827bffffffffffffffffffffffffffffffffffffffffffffffffffffffff1916145b8061064a575061064982611870565b5b9050919050565b606060136000838152602001908152602001600020805461067190614327565b80601f016020809104026020016040519081016040528092919081815260200182805461069d90614327565b80156106ea5780601f106106bf576101008083540402835291602001916106ea565b820191906000526020600020905b8154815290600101906020018083116106cd57829003601f168201915b50505050509050919050565b600061070260046118da565b905061071f338284604051806020016040528060008152506118e8565b6107296004611a7e565b5050565b610735611a94565b73ffffffffffffffffffffffffffffffffffffffff16610753611224565b73ffffffffffffffffffffffffffffffffffffffff16146107a9576040517f08c379a00000000000000000000000000000000000000000000000000000000081526004016107a090613e88565b60405180910390fd5b80601290805190602001906107bf929190612e39565b5050565b60006107cd611a94565b73ffffffffffffffffffffffffffffffffffffffff166107eb611224565b73ffffffffffffffffffffffffffffffffffffffff1614610841576040517f08c379a000000000000000000000000000000000000000000000000000000000815260040161083890613e88565b60405180910390fd5b600a905090565b60095481565b610856611a94565b73ffffffffffffffffffffffffffffffffffffffff16610874611224565b73ffffffffffffffffffffffffffffffffffffffff16146108ca576040517f08c379a00000000000000000000000000000000000000000000000000000000081526004016108c190613e88565b60405180910390fd5b600860009054906101000a900460ff1615600860006101000a81548160ff021916908315150217905550565b61090484846000858561163e565b50505050565b610912611a94565b73ffffffffffffffffffffffffffffffffffffffff168573ffffffffffffffffffffffffffffffffffffffff161480610958575061095785610952611a94565b611494565b5b610997576040517f08c379a000000000000000000000000000000000000000000000000000000000815260040161098e90613e08565b60405180910390fd5b6109a48585858585611a9c565b5050505050565b606081518351146109f1576040517f08c379a00000000000000000000000000000000000000000000000000000000081526004016109e890613f48565b60405180910390fd5b6000835167ffffffffffffffff811115610a34577f4e487b7100000000000000000000000000000000000000000000000000000000600052604160045260246000fd5b604051908082528060200260200182016040528015610a625781602001602082028036833780820191505090505b50905060005b8451811015610b5157610afb858281518110610aad577f4e487b7100000000000000000000000000000000000000000000000000000000600052603260045260246000fd5b6020026020010151858381518110610aee577f4e487b7100000000000000000000000000000000000000000000000000000000600052603260045260246000fd5b60200260200101516104a6565b828281518110610b34577f4e487b7100000000000000000000000000000000000000000000000000000000600052603260045260246000fd5b60200260200101818152505080610b4a9061438a565b9050610a68565b508091505092915050565b600a600d5410610ba1576040517f08c379a0000000000000000000000000000000000000000000000000000000008152600401610b9890613ec8565b60405180910390fd5b6001610baf33600a546104a6565b10610bef576040517f08c379a0000000000000000000000000000000000000000000000000000000008152600401610be690613f08565b60405180910390fd5b610c0d33600b546001604051806020016040528060008152506118e8565b610c39600b546007604051602001610c259190613a7f565b604051602081830303815290604052610c90565b6001600d6000828254610c4c919061415c565b925050819055507f2e0f4d63dcc00e6a11c8aef9f6e15c1f9cd6e9a090b2dd99c7b797f1a28d300d33600d54604051610c86929190613ba2565b60405180910390a1565b610c98611a94565b73ffffffffffffffffffffffffffffffffffffffff16610cb6611224565b73ffffffffffffffffffffffffffffffffffffffff1614610d0c576040517f08c379a0000000000000000000000000000000000000000000000000000000008152600401610d0390613e88565b60405180910390fd5b6000601360008481526020019081526020016000208054610d2c90614327565b905014610d6e576040517f08c379a0000000000000000000000000000000000000000000000000000000008152600401610d6590613e28565b60405180910390fd5b80601360008481526020019081526020016000209080519060200190610d95929190612e39565b505050565b610da2611a94565b73ffffffffffffffffffffffffffffffffffffffff16610dc0611224565b73ffffffffffffffffffffffffffffffffffffffff1614610e16576040517f08c379a0000000000000000000000000000000000000000000000000000000008152600401610e0d90613e88565b60405180910390fd5b60005b600481101561102257610e636040518060400160405280601281526020017f5374617274696e6720696e646578206973200000000000000000000000000000815250601154611dfc565b610ea36040518060400160405280600c81526020017f6e756d206174686c6574657300000000000000000000000000000000000000008152506004611dfc565b6000600482601154610eb5919061415c565b610ebf91906143d3565b9050610f006040518060400160405280600b81526020017f6d696e7420696e6465782000000000000000000000000000000000000000000081525082611dfc565b610f34816005610f0f84611e98565b604051602001610f20929190613a96565b604051602081830303815290604052610c90565b61100e6040518060400160405280600881526020017f4e65772055524920000000000000000000000000000000000000000000000000815250601360008481526020019081526020016000208054610f8b90614327565b80601f0160208091040260200160405190810160405280929190818152602001828054610fb790614327565b80156110045780601f10610fd957610100808354040283529160200191611004565b820191906000526020600020905b815481529060010190602001808311610fe757829003601f168201915b5050505050612045565b50808061101a9061438a565b915050610e19565b50565b61102d611a94565b73ffffffffffffffffffffffffffffffffffffffff1661104b611224565b73ffffffffffffffffffffffffffffffffffffffff16146110a1576040517f08c379a000000000000000000000000000000000000000000000000000000000815260040161109890613e88565b60405180910390fd5b6110ab60006120e1565b565b600860009054906101000a900460ff166110fc576040517f08c379a00000000000000000000000000000000000000000000000000000000081526004016110f390613ee8565b60405180910390fd5b600061110a33600b546104a6565b1161114a576040517f08c379a000000000000000000000000000000000000000000000000000000000815260040161114190613d08565b60405180910390fd5b61115833600b5460016121a7565b565b611162611a94565b73ffffffffffffffffffffffffffffffffffffffff16611180611224565b73ffffffffffffffffffffffffffffffffffffffff16146111d6576040517f08c379a00000000000000000000000000000000000000000000000000000000081526004016111cd90613e88565b60405180910390fd5b60006011541461121b576040517f08c379a000000000000000000000000000000000000000000000000000000000815260040161121290613dc8565b60405180910390fd5b43601081905550565b6000600360009054906101000a900473ffffffffffffffffffffffffffffffffffffffff16905090565b600a600c5410611293576040517f08c379a000000000000000000000000000000000000000000000000000000000815260040161128a90613ec8565b60405180910390fd5b60016112a133600a546104a6565b106112e1576040517f08c379a00000000000000000000000000000000000000000000000000000000081526004016112d890613f08565b60405180910390fd5b6112ff33600a546001604051806020016040528060008152506118e8565b61132b600a5460066040516020016113179190613a7f565b604051602081830303815290604052610c90565b6001600c600082825461133e919061415c565b925050819055507f2e0f4d63dcc00e6a11c8aef9f6e15c1f9cd6e9a090b2dd99c7b797f1a28d300d33600c54604051611378929190613ba2565b60405180910390a1565b61139461138d611a94565b83836123c4565b5050565b600860009054906101000a900460ff166113e7576040517f08c379a00000000000000000000000000000000000000000000000000000000081526004016113de90613ee8565b60405180910390fd5b60016113f533600a546104a6565b14611435576040517f08c379a000000000000000000000000000000000000000000000000000000000815260040161142c90613ea8565b60405180910390fd5b61143d611528565b60005b600581101561146457611451612531565b808061145c9061438a565b915050611440565b5061147333600a5460016121a7565b565b600860009054906101000a900460ff1681565b60115481565b60105481565b6000600160008473ffffffffffffffffffffffffffffffffffffffff1673ffffffffffffffffffffffffffffffffffffffff16815260200190815260200160002060008373ffffffffffffffffffffffffffffffffffffffff1673ffffffffffffffffffffffffffffffffffffffff16815260200190815260200160002060009054906101000a900460ff16905092915050565b611530611a94565b73ffffffffffffffffffffffffffffffffffffffff1661154e611224565b73ffffffffffffffffffffffffffffffffffffffff16146115a4576040517f08c379a000000000000000000000000000000000000000000000000000000000815260040161159b90613e88565b60405180910390fd5b600a60046115b291906141e3565b6001436115bf919061423d565b4060001c6115cd91906143d3565b6011819055506116146040518060400160405280600f81526020017f5374617274696e6720696e646578200000000000000000000000000000000000815250601154611dfc565b6000601154141561163c5761163560016011546126c990919063ffffffff16565b6011819055505b565b611646611a94565b73ffffffffffffffffffffffffffffffffffffffff168573ffffffffffffffffffffffffffffffffffffffff16148061168c575061168b85611686611a94565b611494565b5b6116cb576040517f08c379a00000000000000000000000000000000000000000000000000000000081526004016116c290613d88565b60405180910390fd5b6116d885858585856126df565b5050505050565b6116e7611a94565b73ffffffffffffffffffffffffffffffffffffffff16611705611224565b73ffffffffffffffffffffffffffffffffffffffff161461175b576040517f08c379a000000000000000000000000000000000000000000000000000000000815260040161175290613e88565b60405180910390fd5b600073ffffffffffffffffffffffffffffffffffffffff168173ffffffffffffffffffffffffffffffffffffffff1614156117cb576040517f08c379a00000000000000000000000000000000000000000000000000000000081526004016117c290613d48565b60405180910390fd5b6117d4816120e1565b50565b61186d816040516024016117eb9190613c3f565b6040516020818303038152906040527f41304fac000000000000000000000000000000000000000000000000000000007bffffffffffffffffffffffffffffffffffffffffffffffffffffffff19166020820180517bffffffffffffffffffffffffffffffffffffffffffffffffffffffff8381831617835250505050612961565b50565b60007f01ffc9a7000000000000000000000000000000000000000000000000000000007bffffffffffffffffffffffffffffffffffffffffffffffffffffffff1916827bffffffffffffffffffffffffffffffffffffffffffffffffffffffff1916149050919050565b600081600001549050919050565b600073ffffffffffffffffffffffffffffffffffffffff168473ffffffffffffffffffffffffffffffffffffffff161415611958576040517f08c379a000000000000000000000000000000000000000000000000000000000815260040161194f90613f88565b60405180910390fd5b6000611962611a94565b9050611983816000876119748861298a565b61197d8861298a565b87612a50565b8260008086815260200190815260200160002060008773ffffffffffffffffffffffffffffffffffffffff1673ffffffffffffffffffffffffffffffffffffffff16815260200190815260200160002060008282546119e2919061415c565b925050819055508473ffffffffffffffffffffffffffffffffffffffff16600073ffffffffffffffffffffffffffffffffffffffff168273ffffffffffffffffffffffffffffffffffffffff167fc3d58168c5ae7397731d063d5bbf3d657854427343f4c083240f7aacaa2d0f628787604051611a60929190613fc3565b60405180910390a4611a7781600087878787612a58565b5050505050565b6001816000016000828254019250508190555050565b600033905090565b8151835114611ae0576040517f08c379a0000000000000000000000000000000000000000000000000000000008152600401611ad790613f68565b60405180910390fd5b600073ffffffffffffffffffffffffffffffffffffffff168473ffffffffffffffffffffffffffffffffffffffff161415611b50576040517f08c379a0000000000000000000000000000000000000000000000000000000008152600401611b4790613de8565b60405180910390fd5b6000611b5a611a94565b9050611b6a818787878787612a50565b60005b8451811015611d67576000858281518110611bb1577f4e487b7100000000000000000000000000000000000000000000000000000000600052603260045260246000fd5b602002602001015190506000858381518110611bf6577f4e487b7100000000000000000000000000000000000000000000000000000000600052603260045260246000fd5b60200260200101519050600080600084815260200190815260200160002060008b73ffffffffffffffffffffffffffffffffffffffff1673ffffffffffffffffffffffffffffffffffffffff16815260200190815260200160002054905081811015611c97576040517f08c379a0000000000000000000000000000000000000000000000000000000008152600401611c8e90613e68565b60405180910390fd5b81810360008085815260200190815260200160002060008c73ffffffffffffffffffffffffffffffffffffffff1673ffffffffffffffffffffffffffffffffffffffff168152602001908152602001600020819055508160008085815260200190815260200160002060008b73ffffffffffffffffffffffffffffffffffffffff1673ffffffffffffffffffffffffffffffffffffffff1681526020019081526020016000206000828254611d4c919061415c565b9250508190555050505080611d609061438a565b9050611b6d565b508473ffffffffffffffffffffffffffffffffffffffff168673ffffffffffffffffffffffffffffffffffffffff168273ffffffffffffffffffffffffffffffffffffffff167f4a39dc06d4c0dbc64b70af90fd698a233a518aa5d07e595d983b8c0526c8f7fb8787604051611dde929190613bed565b60405180910390a4611df4818787878787612c3f565b505050505050565b611e948282604051602401611e12929190613c98565b6040516020818303038152906040527f9710a9d0000000000000000000000000000000000000000000000000000000007bffffffffffffffffffffffffffffffffffffffffffffffffffffffff19166020820180517bffffffffffffffffffffffffffffffffffffffffffffffffffffffff8381831617835250505050612961565b5050565b60606000821415611ee0576040518060400160405280600181526020017f30000000000000000000000000000000000000000000000000000000000000008152509050612040565b600082905060005b60008214611f12578080611efb9061438a565b915050600a82611f0b91906141b2565b9150611ee8565b60008167ffffffffffffffff811115611f54577f4e487b7100000000000000000000000000000000000000000000000000000000600052604160045260246000fd5b6040519080825280601f01601f191660200182016040528015611f865781602001600182028036833780820191505090505b5090505b6000851461203957600182611f9f919061423d565b9150600a85611fae91906143d3565b6030611fba919061415c565b60f81b818381518110611ff6577f4e487b7100000000000000000000000000000000000000000000000000000000600052603260045260246000fd5b60200101907effffffffffffffffffffffffffffffffffffffffffffffffffffffffffffff1916908160001a905350600a8561203291906141b2565b9450611f8a565b8093505050505b919050565b6120dd828260405160240161205b929190613c61565b6040516020818303038152906040527f4b5c4277000000000000000000000000000000000000000000000000000000007bffffffffffffffffffffffffffffffffffffffffffffffffffffffff19166020820180517bffffffffffffffffffffffffffffffffffffffffffffffffffffffff8381831617835250505050612961565b5050565b6000600360009054906101000a900473ffffffffffffffffffffffffffffffffffffffff16905081600360006101000a81548173ffffffffffffffffffffffffffffffffffffffff021916908373ffffffffffffffffffffffffffffffffffffffff1602179055508173ffffffffffffffffffffffffffffffffffffffff168173ffffffffffffffffffffffffffffffffffffffff167f8be0079c531659141344cd1fd0a4f28419497f9722a3daafe3b4186f6b6457e060405160405180910390a35050565b600073ffffffffffffffffffffffffffffffffffffffff168373ffffffffffffffffffffffffffffffffffffffff161415612217576040517f08c379a000000000000000000000000000000000000000000000000000000000815260040161220e90613e48565b60405180910390fd5b6000612221611a94565b9050612251818560006122338761298a565b61223c8761298a565b60405180602001604052806000815250612a50565b600080600085815260200190815260200160002060008673ffffffffffffffffffffffffffffffffffffffff1673ffffffffffffffffffffffffffffffffffffffff168152602001908152602001600020549050828110156122e8576040517f08c379a00000000000000000000000000000000000000000000000000000000081526004016122df90613d68565b60405180910390fd5b82810360008086815260200190815260200160002060008773ffffffffffffffffffffffffffffffffffffffff1673ffffffffffffffffffffffffffffffffffffffff16815260200190815260200160002081905550600073ffffffffffffffffffffffffffffffffffffffff168573ffffffffffffffffffffffffffffffffffffffff168373ffffffffffffffffffffffffffffffffffffffff167fc3d58168c5ae7397731d063d5bbf3d657854427343f4c083240f7aacaa2d0f6287876040516123b5929190613fc3565b60405180910390a45050505050565b8173ffffffffffffffffffffffffffffffffffffffff168373ffffffffffffffffffffffffffffffffffffffff161415612433576040517f08c379a000000000000000000000000000000000000000000000000000000000815260040161242a90613f28565b60405180910390fd5b80600160008573ffffffffffffffffffffffffffffffffffffffff1673ffffffffffffffffffffffffffffffffffffffff16815260200190815260200160002060008473ffffffffffffffffffffffffffffffffffffffff1673ffffffffffffffffffffffffffffffffffffffff16815260200190815260200160002060006101000a81548160ff0219169083151502179055508173ffffffffffffffffffffffffffffffffffffffff168373ffffffffffffffffffffffffffffffffffffffff167f17307eab39ab6107e8899845ad3d59bd9653f200f220920489ca2b5937696c31836040516125249190613c24565b60405180910390a3505050565b60006004600e54601154612545919061415c565b61254f91906143d3565b90506125926040518060400160405280600e81526020017f5374617274696e6720696e646578000000000000000000000000000000000000815250601154611dfc565b6125d16040518060400160405280600a81526020017f4d696e7420696e6465780000000000000000000000000000000000000000000081525082611dfc565b600a60046125df91906141e3565b600e5410156126c657600a60146000838152602001908152602001600020541061263e576040517f08c379a000000000000000000000000000000000000000000000000000000000815260040161263590613da8565b60405180910390fd5b612680338260016040518060400160405280600481526020017f30783030000000000000000000000000000000000000000000000000000000008152506118e8565b60016014600083815260200190815260200160002060008282546126a4919061415c565b925050819055506001600e60008282546126be919061415c565b925050819055505b50565b600081836126d7919061415c565b905092915050565b600073ffffffffffffffffffffffffffffffffffffffff168473ffffffffffffffffffffffffffffffffffffffff16141561274f576040517f08c379a000000000000000000000000000000000000000000000000000000000815260040161274690613de8565b60405180910390fd5b6000612759611a94565b905061277981878761276a8861298a565b6127738861298a565b87612a50565b600080600086815260200190815260200160002060008873ffffffffffffffffffffffffffffffffffffffff1673ffffffffffffffffffffffffffffffffffffffff16815260200190815260200160002054905083811015612810576040517f08c379a000000000000000000000000000000000000000000000000000000000815260040161280790613e68565b60405180910390fd5b83810360008087815260200190815260200160002060008973ffffffffffffffffffffffffffffffffffffffff1673ffffffffffffffffffffffffffffffffffffffff168152602001908152602001600020819055508360008087815260200190815260200160002060008873ffffffffffffffffffffffffffffffffffffffff1673ffffffffffffffffffffffffffffffffffffffff16815260200190815260200160002060008282546128c5919061415c565b925050819055508573ffffffffffffffffffffffffffffffffffffffff168773ffffffffffffffffffffffffffffffffffffffff168373ffffffffffffffffffffffffffffffffffffffff167fc3d58168c5ae7397731d063d5bbf3d657854427343f4c083240f7aacaa2d0f628888604051612942929190613fc3565b60405180910390a4612958828888888888612a58565b50505050505050565b60008151905060006a636f6e736f6c652e6c6f679050602083016000808483855afa5050505050565b60606000600167ffffffffffffffff8111156129cf577f4e487b7100000000000000000000000000000000000000000000000000000000600052604160045260246000fd5b6040519080825280602002602001820160405280156129fd5781602001602082028036833780820191505090505b5090508281600081518110612a3b577f4e487b7100000000000000000000000000000000000000000000000000000000600052603260045260246000fd5b60200260200101818152505080915050919050565b505050505050565b612a778473ffffffffffffffffffffffffffffffffffffffff16612e26565b15612c37578373ffffffffffffffffffffffffffffffffffffffff1663f23a6e6187878686866040518663ffffffff1660e01b8152600401612abd959493929190613b48565b602060405180830381600087803b158015612ad757600080fd5b505af1925050508015612b0857506040513d601f19601f82011682018060405250810190612b05919061347c565b60015b612bae57612b146144c0565b806308c379a01415612b715750612b29614b84565b80612b345750612b73565b806040517f08c379a0000000000000000000000000000000000000000000000000000000008152600401612b689190613c3f565b60405180910390fd5b505b6040517f08c379a0000000000000000000000000000000000000000000000000000000008152600401612ba590613cc8565b60405180910390fd5b63f23a6e6160e01b7bffffffffffffffffffffffffffffffffffffffffffffffffffffffff1916817bffffffffffffffffffffffffffffffffffffffffffffffffffffffff191614612c35576040517f08c379a0000000000000000000000000000000000000000000000000000000008152600401612c2c90613ce8565b60405180910390fd5b505b505050505050565b612c5e8473ffffffffffffffffffffffffffffffffffffffff16612e26565b15612e1e578373ffffffffffffffffffffffffffffffffffffffff1663bc197c8187878686866040518663ffffffff1660e01b8152600401612ca4959493929190613ae0565b602060405180830381600087803b158015612cbe57600080fd5b505af1925050508015612cef57506040513d601f19601f82011682018060405250810190612cec919061347c565b60015b612d9557612cfb6144c0565b806308c379a01415612d585750612d10614b84565b80612d1b5750612d5a565b806040517f08c379a0000000000000000000000000000000000000000000000000000000008152600401612d4f9190613c3f565b60405180910390fd5b505b6040517f08c379a0000000000000000000000000000000000000000000000000000000008152600401612d8c90613cc8565b60405180910390fd5b63bc197c8160e01b7bffffffffffffffffffffffffffffffffffffffffffffffffffffffff1916817bffffffffffffffffffffffffffffffffffffffffffffffffffffffff191614612e1c576040517f08c379a0000000000000000000000000000000000000000000000000000000008152600401612e1390613ce8565b60405180910390fd5b505b505050505050565b600080823b905060008111915050919050565b828054612e4590614327565b90600052602060002090601f016020900481019282612e675760008555612eae565b82601f10612e8057805160ff1916838001178555612eae565b82800160010185558215612eae579182015b82811115612ead578251825591602001919060010190612e92565b5b509050612ebb9190612ebf565b5090565b5b80821115612ed8576000816000905550600101612ec0565b5090565b6000612eef612eea84614011565b613fec565b90508083825260208201905082856020860282011115612f0e57600080fd5b60005b85811015612f3e5781612f248882613030565b845260208401935060208301925050600181019050612f11565b5050509392505050565b6000612f5b612f568461403d565b613fec565b90508083825260208201905082856020860282011115612f7a57600080fd5b60005b85811015612faa5781612f90888261312c565b845260208401935060208301925050600181019050612f7d565b5050509392505050565b6000612fc7612fc284614069565b613fec565b905082815260208101848484011115612fdf57600080fd5b612fea8482856142e5565b509392505050565b60006130056130008461409a565b613fec565b90508281526020810184848401111561301d57600080fd5b6130288482856142e5565b509392505050565b60008135905061303f81614c1a565b92915050565b600082601f83011261305657600080fd5b8135613066848260208601612edc565b91505092915050565b600082601f83011261308057600080fd5b8135613090848260208601612f48565b91505092915050565b6000813590506130a881614c31565b92915050565b6000813590506130bd81614c48565b92915050565b6000815190506130d281614c48565b92915050565b600082601f8301126130e957600080fd5b81356130f9848260208601612fb4565b91505092915050565b600082601f83011261311357600080fd5b8135613123848260208601612ff2565b91505092915050565b60008135905061313b81614c5f565b92915050565b60006020828403121561315357600080fd5b600061316184828501613030565b91505092915050565b6000806040838503121561317d57600080fd5b600061318b85828601613030565b925050602061319c85828601613030565b9150509250929050565b600080600080600060a086880312156131be57600080fd5b60006131cc88828901613030565b95505060206131dd88828901613030565b945050604086013567ffffffffffffffff8111156131fa57600080fd5b6132068882890161306f565b935050606086013567ffffffffffffffff81111561322357600080fd5b61322f8882890161306f565b925050608086013567ffffffffffffffff81111561324c57600080fd5b613258888289016130d8565b9150509295509295909350565b6000806000806080858703121561327b57600080fd5b600061328987828801613030565b945050602061329a87828801613030565b93505060406132ab8782880161312c565b925050606085013567ffffffffffffffff8111156132c857600080fd5b6132d4878288016130d8565b91505092959194509250565b600080600080600060a086880312156132f857600080fd5b600061330688828901613030565b955050602061331788828901613030565b94505060406133288882890161312c565b93505060606133398882890161312c565b925050608086013567ffffffffffffffff81111561335657600080fd5b613362888289016130d8565b9150509295509295909350565b6000806040838503121561338257600080fd5b600061339085828601613030565b92505060206133a185828601613099565b9150509250929050565b600080604083850312156133be57600080fd5b60006133cc85828601613030565b92505060206133dd8582860161312c565b9150509250929050565b600080604083850312156133fa57600080fd5b600083013567ffffffffffffffff81111561341457600080fd5b61342085828601613045565b925050602083013567ffffffffffffffff81111561343d57600080fd5b6134498582860161306f565b9150509250929050565b60006020828403121561346557600080fd5b6000613473848285016130ae565b91505092915050565b60006020828403121561348e57600080fd5b600061349c848285016130c3565b91505092915050565b6000602082840312156134b757600080fd5b600082013567ffffffffffffffff8111156134d157600080fd5b6134dd84828501613102565b91505092915050565b6000602082840312156134f857600080fd5b60006135068482850161312c565b91505092915050565b6000806040838503121561352257600080fd5b60006135308582860161312c565b925050602083013567ffffffffffffffff81111561354d57600080fd5b61355985828601613102565b9150509250929050565b600061356f8383613a61565b60208301905092915050565b61358481614271565b82525050565b6000613595826140f0565b61359f818561411e565b93506135aa836140cb565b8060005b838110156135db5781516135c28882613563565b97506135cd83614111565b9250506001810190506135ae565b5085935050505092915050565b6135f181614283565b82525050565b6000613602826140fb565b61360c818561412f565b935061361c8185602086016142f4565b613625816144e2565b840191505092915050565b600061363b82614106565b6136458185614140565b93506136558185602086016142f4565b61365e816144e2565b840191505092915050565b600061367482614106565b61367e8185614151565b935061368e8185602086016142f4565b80840191505092915050565b600081546136a781614327565b6136b18186614151565b945060018216600081146136cc57600181146136dd57613710565b60ff19831686528186019350613710565b6136e6856140db565b60005b83811015613708578154818901526001820191506020810190506136e9565b838801955050505b50505092915050565b6000613726603483614140565b915061373182614500565b604082019050919050565b6000613749602883614140565b91506137548261454f565b604082019050919050565b600061376c601b83614140565b91506137778261459e565b602082019050919050565b600061378f602b83614140565b915061379a826145c7565b604082019050919050565b60006137b2602683614140565b91506137bd82614616565b604082019050919050565b60006137d5602483614140565b91506137e082614665565b604082019050919050565b60006137f8602983614140565b9150613803826146b4565b604082019050919050565b600061381b602d83614140565b915061382682614703565b604082019050919050565b600061383e601d83614140565b915061384982614752565b602082019050919050565b6000613861602583614140565b915061386c8261477b565b604082019050919050565b6000613884603283614140565b915061388f826147ca565b604082019050919050565b60006138a7601483614140565b91506138b282614819565b602082019050919050565b60006138ca602383614140565b91506138d582614842565b604082019050919050565b60006138ed602a83614140565b91506138f882614891565b604082019050919050565b6000613910600583614151565b915061391b826148e0565b600582019050919050565b6000613933602083614140565b915061393e82614909565b602082019050919050565b6000613956602f83614140565b915061396182614932565b604082019050919050565b6000613979602383614140565b915061398482614981565b604082019050919050565b600061399c601f83614140565b91506139a7826149d0565b602082019050919050565b60006139bf602a83614140565b91506139ca826149f9565b604082019050919050565b60006139e2602983614140565b91506139ed82614a48565b604082019050919050565b6000613a05602983614140565b9150613a1082614a97565b604082019050919050565b6000613a28602883614140565b9150613a3382614ae6565b604082019050919050565b6000613a4b602183614140565b9150613a5682614b35565b604082019050919050565b613a6a816142db565b82525050565b613a79816142db565b82525050565b6000613a8b828461369a565b915081905092915050565b6000613aa2828561369a565b9150613aae8284613669565b9150613ab982613903565b91508190509392505050565b6000602082019050613ada600083018461357b565b92915050565b600060a082019050613af5600083018861357b565b613b02602083018761357b565b8181036040830152613b14818661358a565b90508181036060830152613b28818561358a565b90508181036080830152613b3c81846135f7565b90509695505050505050565b600060a082019050613b5d600083018861357b565b613b6a602083018761357b565b613b776040830186613a70565b613b846060830185613a70565b8181036080830152613b9681846135f7565b90509695505050505050565b6000604082019050613bb7600083018561357b565b613bc46020830184613a70565b9392505050565b60006020820190508181036000830152613be5818461358a565b905092915050565b60006040820190508181036000830152613c07818561358a565b90508181036020830152613c1b818461358a565b90509392505050565b6000602082019050613c3960008301846135e8565b92915050565b60006020820190508181036000830152613c598184613630565b905092915050565b60006040820190508181036000830152613c7b8185613630565b90508181036020830152613c8f8184613630565b90509392505050565b60006040820190508181036000830152613cb28185613630565b9050613cc16020830184613a70565b9392505050565b60006020820190508181036000830152613ce181613719565b9050919050565b60006020820190508181036000830152613d018161373c565b9050919050565b60006020820190508181036000830152613d218161375f565b9050919050565b60006020820190508181036000830152613d4181613782565b9050919050565b60006020820190508181036000830152613d61816137a5565b9050919050565b60006020820190508181036000830152613d81816137c8565b9050919050565b60006020820190508181036000830152613da1816137eb565b9050919050565b60006020820190508181036000830152613dc18161380e565b9050919050565b60006020820190508181036000830152613de181613831565b9050919050565b60006020820190508181036000830152613e0181613854565b9050919050565b60006020820190508181036000830152613e2181613877565b9050919050565b60006020820190508181036000830152613e418161389a565b9050919050565b60006020820190508181036000830152613e61816138bd565b9050919050565b60006020820190508181036000830152613e81816138e0565b9050919050565b60006020820190508181036000830152613ea181613926565b9050919050565b60006020820190508181036000830152613ec181613949565b9050919050565b60006020820190508181036000830152613ee18161396c565b9050919050565b60006020820190508181036000830152613f018161398f565b9050919050565b60006020820190508181036000830152613f21816139b2565b9050919050565b60006020820190508181036000830152613f41816139d5565b9050919050565b60006020820190508181036000830152613f61816139f8565b9050919050565b60006020820190508181036000830152613f8181613a1b565b9050919050565b60006020820190508181036000830152613fa181613a3e565b9050919050565b6000602082019050613fbd6000830184613a70565b92915050565b6000604082019050613fd86000830185613a70565b613fe56020830184613a70565b9392505050565b6000613ff6614007565b90506140028282614359565b919050565b6000604051905090565b600067ffffffffffffffff82111561402c5761402b614491565b5b602082029050602081019050919050565b600067ffffffffffffffff82111561405857614057614491565b5b602082029050602081019050919050565b600067ffffffffffffffff82111561408457614083614491565b5b61408d826144e2565b9050602081019050919050565b600067ffffffffffffffff8211156140b5576140b4614491565b5b6140be826144e2565b9050602081019050919050565b6000819050602082019050919050565b60008190508160005260206000209050919050565b600081519050919050565b600081519050919050565b600081519050919050565b6000602082019050919050565b600082825260208201905092915050565b600082825260208201905092915050565b600082825260208201905092915050565b600081905092915050565b6000614167826142db565b9150614172836142db565b9250827fffffffffffffffffffffffffffffffffffffffffffffffffffffffffffffffff038211156141a7576141a6614404565b5b828201905092915050565b60006141bd826142db565b91506141c8836142db565b9250826141d8576141d7614433565b5b828204905092915050565b60006141ee826142db565b91506141f9836142db565b9250817fffffffffffffffffffffffffffffffffffffffffffffffffffffffffffffffff048311821515161561423257614231614404565b5b828202905092915050565b6000614248826142db565b9150614253836142db565b92508282101561426657614265614404565b5b828203905092915050565b600061427c826142bb565b9050919050565b60008115159050919050565b60007fffffffff0000000000000000000000000000000000000000000000000000000082169050919050565b600073ffffffffffffffffffffffffffffffffffffffff82169050919050565b6000819050919050565b82818337600083830152505050565b60005b838110156143125780820151818401526020810190506142f7565b83811115614321576000848401525b50505050565b6000600282049050600182168061433f57607f821691505b6020821081141561435357614352614462565b5b50919050565b614362826144e2565b810181811067ffffffffffffffff8211171561438157614380614491565b5b80604052505050565b6000614395826142db565b91507fffffffffffffffffffffffffffffffffffffffffffffffffffffffffffffffff8214156143c8576143c7614404565b5b600182019050919050565b60006143de826142db565b91506143e9836142db565b9250826143f9576143f8614433565b5b828206905092915050565b7f4e487b7100000000000000000000000000000000000000000000000000000000600052601160045260246000fd5b7f4e487b7100000000000000000000000000000000000000000000000000000000600052601260045260246000fd5b7f4e487b7100000000000000000000000000000000000000000000000000000000600052602260045260246000fd5b7f4e487b7100000000000000000000000000000000000000000000000000000000600052604160045260246000fd5b600060033d11156144df5760046000803e6144dc6000516144f3565b90505b90565b6000601f19601f8301169050919050565b60008160e01c9050919050565b7f455243313135353a207472616e7366657220746f206e6f6e204552433131353560008201527f526563656976657220696d706c656d656e746572000000000000000000000000602082015250565b7f455243313135353a204552433131353552656365697665722072656a6563746560008201527f6420746f6b656e73000000000000000000000000000000000000000000000000602082015250565b7f4e6f2072656d61696e696e6720626f6f73746572207061636b73210000000000600082015250565b7f455243313135353a2062616c616e636520717565727920666f7220746865207a60008201527f65726f2061646472657373000000000000000000000000000000000000000000602082015250565b7f4f776e61626c653a206e6577206f776e657220697320746865207a65726f206160008201527f6464726573730000000000000000000000000000000000000000000000000000602082015250565b7f455243313135353a206275726e20616d6f756e7420657863656564732062616c60008201527f616e636500000000000000000000000000000000000000000000000000000000602082015250565b7f455243313135353a2063616c6c6572206973206e6f74206f776e6572206e6f7260008201527f20617070726f7665640000000000000000000000000000000000000000000000602082015250565b7f416c6c206f662074686973206174686c657465206861766520616c726561647960008201527f206265656e206d696e7465642100000000000000000000000000000000000000602082015250565b7f5374617274696e6720696e64657820697320616c726561647920736574000000600082015250565b7f455243313135353a207472616e7366657220746f20746865207a65726f20616460008201527f6472657373000000000000000000000000000000000000000000000000000000602082015250565b7f455243313135353a207472616e736665722063616c6c6572206973206e6f742060008201527f6f776e6572206e6f7220617070726f7665640000000000000000000000000000602082015250565b7f43616e6e6f742073657420757269207477696365000000000000000000000000600082015250565b7f455243313135353a206275726e2066726f6d20746865207a65726f206164647260008201527f6573730000000000000000000000000000000000000000000000000000000000602082015250565b7f455243313135353a20696e73756666696369656e742062616c616e636520666f60008201527f72207472616e7366657200000000000000000000000000000000000000000000602082015250565b7f2e6a736f6e000000000000000000000000000000000000000000000000000000600082015250565b7f4f776e61626c653a2063616c6c6572206973206e6f7420746865206f776e6572600082015250565b7f5061636b2068617320616c7265616479206265656e206275726e6564206f722060008201527f646f6573206e6f742065786973742e0000000000000000000000000000000000602082015250565b7f416c6c207061636b73206861766520616c7265616479206265656e206d696e7460008201527f6564210000000000000000000000000000000000000000000000000000000000602082015250565b7f5061636b73206172656e277420726561647920746f206f70656e207965742100600082015250565b7f43616e206f6e6c79206d696e74206f6e652073746172746572207061636b207060008201527f6572206163636f756e7400000000000000000000000000000000000000000000602082015250565b7f455243313135353a2073657474696e6720617070726f76616c2073746174757360008201527f20666f722073656c660000000000000000000000000000000000000000000000602082015250565b7f455243313135353a206163636f756e747320616e6420696473206c656e67746860008201527f206d69736d617463680000000000000000000000000000000000000000000000602082015250565b7f455243313135353a2069647320616e6420616d6f756e7473206c656e6774682060008201527f6d69736d61746368000000000000000000000000000000000000000000000000602082015250565b7f455243313135353a206d696e7420746f20746865207a65726f2061646472657360008201527f7300000000000000000000000000000000000000000000000000000000000000602082015250565b600060443d1015614b9457614c17565b614b9c614007565b60043d036004823e80513d602482011167ffffffffffffffff82111715614bc4575050614c17565b808201805167ffffffffffffffff811115614be25750505050614c17565b80602083010160043d038501811115614bff575050505050614c17565b614c0e82602001850186614359565b82955050505050505b90565b614c2381614271565b8114614c2e57600080fd5b50565b614c3a81614283565b8114614c4557600080fd5b50565b614c518161428f565b8114614c5c57600080fd5b50565b614c68816142db565b8114614c7357600080fd5b5056fea2646970667358221220c7a6b8c8b7b18eb84ed3fb374b5c8e3e7e05f346781c05a93c91f0579fbeca6d64736f6c6343000802003368747470733a2f2f697066732e696f2f697066732f516d573448457a33397a647a4644696744613138537a77537a55656a4366326934644e334c6574667a61723667483f66696c656e616d653d7061636b2e6a736f6e68747470733a2f2f676174657761792e70696e6174612e636c6f75642f697066732f516d563642743778567a3436387344377067415958484a715344705075796d4d566e70623254756b35387a5856552f",
  "linkReferences": {},
  "deployedLinkReferences": {}
}