{
  "_format": "hh-sol-artifact-1",
  "contractName": "GameItems",
  "sourceName": "contracts/GameItems.sol",
  "abi": [
    {
      "inputs": [],
      "stateMutability": "nonpayable",
      "type": "constructor"
    },
    {
      "anonymous": false,
      "inputs": [
        {
          "indexed": true,
          "internalType": "address",
          "name": "account",
          "type": "address"
        },
        {
          "indexed": true,
          "internalType": "address",
          "name": "operator",
          "type": "address"
        },
        {
          "indexed": false,
          "internalType": "bool",
          "name": "approved",
          "type": "bool"
        }
      ],
      "name": "ApprovalForAll",
      "type": "event"
    },
    {
      "anonymous": false,
      "inputs": [
        {
          "indexed": true,
          "internalType": "address",
          "name": "previousOwner",
          "type": "address"
        },
        {
          "indexed": true,
          "internalType": "address",
          "name": "newOwner",
          "type": "address"
        }
      ],
      "name": "OwnershipTransferred",
      "type": "event"
    },
    {
      "anonymous": false,
      "inputs": [
        {
          "indexed": true,
          "internalType": "address",
          "name": "operator",
          "type": "address"
        },
        {
          "indexed": true,
          "internalType": "address",
          "name": "from",
          "type": "address"
        },
        {
          "indexed": true,
          "internalType": "address",
          "name": "to",
          "type": "address"
        },
        {
          "indexed": false,
          "internalType": "uint256[]",
          "name": "ids",
          "type": "uint256[]"
        },
        {
          "indexed": false,
          "internalType": "uint256[]",
          "name": "values",
          "type": "uint256[]"
        }
      ],
      "name": "TransferBatch",
      "type": "event"
    },
    {
      "anonymous": false,
      "inputs": [
        {
          "indexed": true,
          "internalType": "address",
          "name": "operator",
          "type": "address"
        },
        {
          "indexed": true,
          "internalType": "address",
          "name": "from",
          "type": "address"
        },
        {
          "indexed": true,
          "internalType": "address",
          "name": "to",
          "type": "address"
        },
        {
          "indexed": false,
          "internalType": "uint256",
          "name": "id",
          "type": "uint256"
        },
        {
          "indexed": false,
          "internalType": "uint256",
          "name": "value",
          "type": "uint256"
        }
      ],
      "name": "TransferSingle",
      "type": "event"
    },
    {
      "anonymous": false,
      "inputs": [
        {
          "indexed": false,
          "internalType": "string",
          "name": "value",
          "type": "string"
        },
        {
          "indexed": true,
          "internalType": "uint256",
          "name": "id",
          "type": "uint256"
        }
      ],
      "name": "URI",
      "type": "event"
    },
    {
      "anonymous": false,
      "inputs": [
        {
          "indexed": false,
          "internalType": "address",
          "name": "user",
          "type": "address"
        },
        {
          "indexed": false,
          "internalType": "uint256",
          "name": "id",
          "type": "uint256"
        }
      ],
      "name": "packMinted",
      "type": "event"
    },
    {
      "inputs": [],
      "name": "REVEAL_TIMESTAMP",
      "outputs": [
        {
          "internalType": "uint256",
          "name": "",
          "type": "uint256"
        }
      ],
      "stateMutability": "view",
      "type": "function"
    },
    {
      "inputs": [
        {
          "internalType": "address",
          "name": "account",
          "type": "address"
        },
        {
          "internalType": "uint256",
          "name": "id",
          "type": "uint256"
        }
      ],
      "name": "balanceOf",
      "outputs": [
        {
          "internalType": "uint256",
          "name": "",
          "type": "uint256"
        }
      ],
      "stateMutability": "view",
      "type": "function"
    },
    {
      "inputs": [
        {
          "internalType": "address[]",
          "name": "accounts",
          "type": "address[]"
        },
        {
          "internalType": "uint256[]",
          "name": "ids",
          "type": "uint256[]"
        }
      ],
      "name": "balanceOfBatch",
      "outputs": [
        {
          "internalType": "uint256[]",
          "name": "",
          "type": "uint256[]"
        }
      ],
      "stateMutability": "view",
      "type": "function"
    },
    {
      "inputs": [],
      "name": "burnBoosterPack",
      "outputs": [],
      "stateMutability": "nonpayable",
      "type": "function"
    },
    {
      "inputs": [],
      "name": "burnStarterPack",
      "outputs": [],
      "stateMutability": "nonpayable",
      "type": "function"
    },
    {
      "inputs": [],
      "name": "emergencySetStartingIndexBlock",
      "outputs": [],
      "stateMutability": "nonpayable",
      "type": "function"
    },
    {
      "inputs": [],
      "name": "getNFTPerAthlete",
      "outputs": [
        {
          "internalType": "uint256",
          "name": "",
          "type": "uint256"
        }
      ],
      "stateMutability": "view",
      "type": "function"
    },
    {
      "inputs": [
        {
          "internalType": "address",
          "name": "account",
          "type": "address"
        },
        {
          "internalType": "address",
          "name": "operator",
          "type": "address"
        }
      ],
      "name": "isApprovedForAll",
      "outputs": [
        {
          "internalType": "bool",
          "name": "",
          "type": "bool"
        }
      ],
      "stateMutability": "view",
      "type": "function"
    },
    {
      "inputs": [],
      "name": "mintBoosterPack",
      "outputs": [],
      "stateMutability": "nonpayable",
      "type": "function"
    },
    {
      "inputs": [
        {
          "internalType": "uint256",
          "name": "initialSupply",
          "type": "uint256"
        }
      ],
      "name": "mintCurrency",
      "outputs": [],
      "stateMutability": "nonpayable",
      "type": "function"
    },
    {
      "inputs": [],
      "name": "mintStarterPack",
      "outputs": [],
      "stateMutability": "nonpayable",
      "type": "function"
    },
    {
      "inputs": [],
      "name": "owner",
      "outputs": [
        {
          "internalType": "address",
          "name": "",
          "type": "address"
        }
      ],
      "stateMutability": "view",
      "type": "function"
    },
    {
      "inputs": [],
      "name": "packsReadyToOpen",
      "outputs": [
        {
          "internalType": "bool",
          "name": "",
          "type": "bool"
        }
      ],
      "stateMutability": "view",
      "type": "function"
    },
    {
      "inputs": [],
      "name": "renounceOwnership",
      "outputs": [],
      "stateMutability": "nonpayable",
      "type": "function"
    },
    {
      "inputs": [
        {
          "internalType": "address",
          "name": "from",
          "type": "address"
        },
        {
          "internalType": "address",
          "name": "to",
          "type": "address"
        },
        {
          "internalType": "uint256[]",
          "name": "ids",
          "type": "uint256[]"
        },
        {
          "internalType": "uint256[]",
          "name": "amounts",
          "type": "uint256[]"
        },
        {
          "internalType": "bytes",
          "name": "data",
          "type": "bytes"
        }
      ],
      "name": "safeBatchTransferFrom",
      "outputs": [],
      "stateMutability": "nonpayable",
      "type": "function"
    },
    {
      "inputs": [
        {
          "internalType": "address",
          "name": "from",
          "type": "address"
        },
        {
          "internalType": "address",
          "name": "to",
          "type": "address"
        },
        {
          "internalType": "uint256",
          "name": "id",
          "type": "uint256"
        },
        {
          "internalType": "uint256",
          "name": "amount",
          "type": "uint256"
        },
        {
          "internalType": "bytes",
          "name": "data",
          "type": "bytes"
        }
      ],
      "name": "safeTransferFrom",
      "outputs": [],
      "stateMutability": "nonpayable",
      "type": "function"
    },
    {
      "inputs": [
        {
          "internalType": "address",
          "name": "operator",
          "type": "address"
        },
        {
          "internalType": "bool",
          "name": "approved",
          "type": "bool"
        }
      ],
      "name": "setApprovalForAll",
      "outputs": [],
      "stateMutability": "nonpayable",
      "type": "function"
    },
    {
      "inputs": [],
      "name": "setPacksReady",
      "outputs": [],
      "stateMutability": "nonpayable",
      "type": "function"
    },
    {
      "inputs": [
        {
          "internalType": "string",
          "name": "provenanceHash",
          "type": "string"
        }
      ],
      "name": "setProvenanceHash",
      "outputs": [],
      "stateMutability": "nonpayable",
      "type": "function"
    },
    {
      "inputs": [],
      "name": "setStartingIndex",
      "outputs": [],
      "stateMutability": "nonpayable",
      "type": "function"
    },
    {
      "inputs": [
        {
          "internalType": "uint256",
          "name": "tokenId",
          "type": "uint256"
        },
        {
          "internalType": "string",
          "name": "uri",
          "type": "string"
        }
      ],
      "name": "setTokenUri",
      "outputs": [],
      "stateMutability": "nonpayable",
      "type": "function"
    },
    {
      "inputs": [],
      "name": "startingIndex",
      "outputs": [
        {
          "internalType": "uint256",
          "name": "",
          "type": "uint256"
        }
      ],
      "stateMutability": "view",
      "type": "function"
    },
    {
      "inputs": [],
      "name": "startingIndexBlock",
      "outputs": [
        {
          "internalType": "uint256",
          "name": "",
          "type": "uint256"
        }
      ],
      "stateMutability": "view",
      "type": "function"
    },
    {
      "inputs": [
        {
          "internalType": "bytes4",
          "name": "interfaceId",
          "type": "bytes4"
        }
      ],
      "name": "supportsInterface",
      "outputs": [
        {
          "internalType": "bool",
          "name": "",
          "type": "bool"
        }
      ],
      "stateMutability": "view",
      "type": "function"
    },
    {
      "inputs": [
        {
          "internalType": "address",
          "name": "from",
          "type": "address"
        },
        {
          "internalType": "address",
          "name": "to",
          "type": "address"
        },
        {
          "internalType": "uint256",
          "name": "amount",
          "type": "uint256"
        },
        {
          "internalType": "bytes",
          "name": "data",
          "type": "bytes"
        }
      ],
      "name": "transferCurrency",
      "outputs": [],
      "stateMutability": "nonpayable",
      "type": "function"
    },
    {
      "inputs": [
        {
          "internalType": "address",
          "name": "newOwner",
          "type": "address"
        }
      ],
      "name": "transferOwnership",
      "outputs": [],
      "stateMutability": "nonpayable",
      "type": "function"
    },
    {
      "inputs": [
        {
          "internalType": "uint256",
          "name": "tokenId",
          "type": "uint256"
        }
      ],
      "name": "uri",
      "outputs": [
        {
          "internalType": "string",
          "name": "",
          "type": "string"
        }
      ],
      "stateMutability": "view",
      "type": "function"
    }
  ],
  "bytecode": "0x608060405260405180608001604052806044815260200162004bf260449139600590805190602001906200003592919062000370565b5060405180608001604052806056815260200162004c3660569139600690805190602001906200006792919062000370565b506040518060400160405280601f81526020017f496e7365727420626f6f73746572207061636b205552492068657265203a290081525060079080519060200190620000b592919062000370565b506001600860006101000a81548160ff0219169083151502179055506127106009556003600a55600a54600b556000600c556000600d556000600e5560405180602001604052806000815250601190805190602001906200011892919062000370565b503480156200012657600080fd5b50604051806020016040528060008152506200014881620001ba60201b60201c565b50620001696200015d620001d660201b60201c565b620001de60201b60201c565b620001b46040518060400160405280601281526020017f4d616b696e6720636f6e74726163742e2e2e0000000000000000000000000000815250620002a460201b620014bd1760201c565b6200054d565b8060029080519060200190620001d292919062000370565b5050565b600033905090565b6000600360009054906101000a900473ffffffffffffffffffffffffffffffffffffffff16905081600360006101000a81548173ffffffffffffffffffffffffffffffffffffffff021916908373ffffffffffffffffffffffffffffffffffffffff1602179055508173ffffffffffffffffffffffffffffffffffffffff168173ffffffffffffffffffffffffffffffffffffffff167f8be0079c531659141344cd1fd0a4f28419497f9722a3daafe3b4186f6b6457e060405160405180910390a35050565b6200034481604051602401620002bb919062000461565b6040516020818303038152906040527f41304fac000000000000000000000000000000000000000000000000000000007bffffffffffffffffffffffffffffffffffffffffffffffffffffffff19166020820180517bffffffffffffffffffffffffffffffffffffffffffffffffffffffff83818316178352505050506200034760201b60201c565b50565b60008151905060006a636f6e736f6c652e6c6f679050602083016000808483855afa5050505050565b8280546200037e90620004d7565b90600052602060002090601f016020900481019282620003a25760008555620003ee565b82601f10620003bd57805160ff1916838001178555620003ee565b82800160010185558215620003ee579182015b82811115620003ed578251825591602001919060010190620003d0565b5b509050620003fd919062000401565b5090565b5b808211156200041c57600081600090555060010162000402565b5090565b60006200042d8262000485565b62000439818562000490565b93506200044b818560208601620004a1565b62000456816200053c565b840191505092915050565b600060208201905081810360008301526200047d818462000420565b905092915050565b600081519050919050565b600082825260208201905092915050565b60005b83811015620004c1578082015181840152602081019050620004a4565b83811115620004d1576000848401525b50505050565b60006002820490506001821680620004f057607f821691505b602082108114156200050757620005066200050d565b5b50919050565b7f4e487b7100000000000000000000000000000000000000000000000000000000600052602260045260246000fd5b6000601f19601f8301169050919050565b614695806200055d6000396000f3fe608060405234801561001057600080fd5b50600436106101a85760003560e01c8063715018a6116100f9578063be59ec2611610097578063e985e9c511610071578063e985e9c51461040f578063e98665501461043f578063f242432a14610449578063f2fde38b14610465576101a8565b8063be59ec26146103b5578063cb774d47146103d3578063e36d6498146103f1576101a8565b80638da5cb5b116100d35780638da5cb5b146103675780639ebf488b14610385578063a22cb4651461038f578063bbb13e17146103ab576101a8565b8063715018a61461034957806375223f92146103535780637d17fcbe1461035d576101a8565b806318e20a38116101665780632eb2c2d6116101405780632eb2c2d6146102d75780634e1273f4146102f35780634f3551d71461032357806357f7789e1461032d576101a8565b806318e20a381461029357806319b60439146102b157806319bfbb9e146102bb576101a8565b8062fdd58e146101ad57806301ffc9a7146101dd5780630e89341c1461020d5780631072b91f1461023d5780631096952314610259578063143cc14414610275575b600080fd5b6101c760048036038101906101c29190612faf565b610481565b6040516101d4919061403e565b60405180910390f35b6101f760048036038101906101f29190613057565b61054a565b6040516102049190613d31565b60405180910390f35b610227600480360381019061022291906130ea565b61062c565b6040516102349190613d4c565b60405180910390f35b610257600480360381019061025291906130ea565b6106d1565b005b610273600480360381019061026e91906130a9565b610708565b005b61027d61079e565b60405161028a919061403e565b60405180910390f35b61029b610823565b6040516102a8919061403e565b60405180910390f35b6102b9610829565b005b6102d560048036038101906102d09190612e69565b6108d1565b005b6102f160048036038101906102ec9190612daa565b6108e5565b005b61030d60048036038101906103089190612feb565b610986565b60405161031a9190613cd8565b60405180910390f35b61032b610b37565b005b61034760048036038101906103429190613113565b610c6b565b005b610351610d13565b005b61035b610d9b565b005b610365610e48565b005b61036f610f12565b60405161037c9190613bd2565b60405180910390f35b61038d610f3c565b005b6103a960048036038101906103a49190612f73565b611070565b005b6103b3611086565b005b6103bd61115b565b6040516103ca9190613d31565b60405180910390f35b6103db61116e565b6040516103e8919061403e565b60405180910390f35b6103f9611174565b604051610406919061403e565b60405180910390f35b61042960048036038101906104249190612d6e565b61117a565b6040516104369190613d31565b60405180910390f35b61044761120e565b005b610463600480360381019061045e9190612ee4565b611324565b005b61047f600480360381019061047a9190612d45565b6113c5565b005b60008073ffffffffffffffffffffffffffffffffffffffff168373ffffffffffffffffffffffffffffffffffffffff1614156104f2576040517f08c379a00000000000000000000000000000000000000000000000000000000081526004016104e990613dfe565b60405180910390fd5b60008083815260200190815260200160002060008473ffffffffffffffffffffffffffffffffffffffff1673ffffffffffffffffffffffffffffffffffffffff16815260200190815260200160002054905092915050565b60007fd9b67a26000000000000000000000000000000000000000000000000000000007bffffffffffffffffffffffffffffffffffffffffffffffffffffffff1916827bffffffffffffffffffffffffffffffffffffffffffffffffffffffff1916148061061557507f0e89341c000000000000000000000000000000000000000000000000000000007bffffffffffffffffffffffffffffffffffffffffffffffffffffffff1916827bffffffffffffffffffffffffffffffffffffffffffffffffffffffff1916145b80610625575061062482611556565b5b9050919050565b606060126000838152602001908152602001600020805461064c906143c7565b80601f0160208091040260200160405190810160405280929190818152602001828054610678906143c7565b80156106c55780601f1061069a576101008083540402835291602001916106c5565b820191906000526020600020905b8154815290600101906020018083116106a857829003601f168201915b50505050509050919050565b60006106dd60046115c0565b90506106fa338284604051806020016040528060008152506115ce565b6107046004611764565b5050565b61071061177a565b73ffffffffffffffffffffffffffffffffffffffff1661072e610f12565b73ffffffffffffffffffffffffffffffffffffffff1614610784576040517f08c379a000000000000000000000000000000000000000000000000000000000815260040161077b90613f1e565b60405180910390fd5b806011908051906020019061079a929190612a3d565b5050565b60006107a861177a565b73ffffffffffffffffffffffffffffffffffffffff166107c6610f12565b73ffffffffffffffffffffffffffffffffffffffff161461081c576040517f08c379a000000000000000000000000000000000000000000000000000000000815260040161081390613f1e565b60405180910390fd5b600a905090565b60095481565b61083161177a565b73ffffffffffffffffffffffffffffffffffffffff1661084f610f12565b73ffffffffffffffffffffffffffffffffffffffff16146108a5576040517f08c379a000000000000000000000000000000000000000000000000000000000815260040161089c90613f1e565b60405180910390fd5b600860009054906101000a900460ff1615600860006101000a81548160ff021916908315150217905550565b6108df848460008585611324565b50505050565b6108ed61177a565b73ffffffffffffffffffffffffffffffffffffffff168573ffffffffffffffffffffffffffffffffffffffff16148061093357506109328561092d61177a565b61117a565b5b610972576040517f08c379a000000000000000000000000000000000000000000000000000000000815260040161096990613ebe565b60405180910390fd5b61097f8585858585611782565b5050505050565b606081518351146109cc576040517f08c379a00000000000000000000000000000000000000000000000000000000081526004016109c390613fde565b60405180910390fd5b6000835167ffffffffffffffff811115610a0f577f4e487b7100000000000000000000000000000000000000000000000000000000600052604160045260246000fd5b604051908082528060200260200182016040528015610a3d5781602001602082028036833780820191505090505b50905060005b8451811015610b2c57610ad6858281518110610a88577f4e487b7100000000000000000000000000000000000000000000000000000000600052603260045260246000fd5b6020026020010151858381518110610ac9577f4e487b7100000000000000000000000000000000000000000000000000000000600052603260045260246000fd5b6020026020010151610481565b828281518110610b0f577f4e487b7100000000000000000000000000000000000000000000000000000000600052603260045260246000fd5b60200260200101818152505080610b25906143f9565b9050610a43565b508091505092915050565b600a600d5410610b7c576040517f08c379a0000000000000000000000000000000000000000000000000000000008152600401610b7390613f5e565b60405180910390fd5b6001610b8a33600a54610481565b10610bca576040517f08c379a0000000000000000000000000000000000000000000000000000000008152600401610bc190613f9e565b60405180910390fd5b610be833600b546001604051806020016040528060008152506115ce565b610c14600b546007604051602001610c009190613b81565b604051602081830303815290604052610c6b565b6001600d6000828254610c2791906141fc565b925050819055507f2e0f4d63dcc00e6a11c8aef9f6e15c1f9cd6e9a090b2dd99c7b797f1a28d300d33600d54604051610c61929190613caf565b60405180910390a1565b610c7361177a565b73ffffffffffffffffffffffffffffffffffffffff16610c91610f12565b73ffffffffffffffffffffffffffffffffffffffff1614610ce7576040517f08c379a0000000000000000000000000000000000000000000000000000000008152600401610cde90613f1e565b60405180910390fd5b80601260008481526020019081526020016000209080519060200190610d0e929190612a3d565b505050565b610d1b61177a565b73ffffffffffffffffffffffffffffffffffffffff16610d39610f12565b73ffffffffffffffffffffffffffffffffffffffff1614610d8f576040517f08c379a0000000000000000000000000000000000000000000000000000000008152600401610d8690613f1e565b60405180910390fd5b610d996000611ae2565b565b600860009054906101000a900460ff16610dea576040517f08c379a0000000000000000000000000000000000000000000000000000000008152600401610de190613f7e565b60405180910390fd5b6000610df833600b54610481565b11610e38576040517f08c379a0000000000000000000000000000000000000000000000000000000008152600401610e2f90613dde565b60405180910390fd5b610e4633600b546001611ba8565b565b610e5061177a565b73ffffffffffffffffffffffffffffffffffffffff16610e6e610f12565b73ffffffffffffffffffffffffffffffffffffffff1614610ec4576040517f08c379a0000000000000000000000000000000000000000000000000000000008152600401610ebb90613f1e565b60405180910390fd5b600060105414610f09576040517f08c379a0000000000000000000000000000000000000000000000000000000008152600401610f0090613e7e565b60405180910390fd5b43600f81905550565b6000600360009054906101000a900473ffffffffffffffffffffffffffffffffffffffff16905090565b600a600c5410610f81576040517f08c379a0000000000000000000000000000000000000000000000000000000008152600401610f7890613f5e565b60405180910390fd5b6001610f8f33600a54610481565b10610fcf576040517f08c379a0000000000000000000000000000000000000000000000000000000008152600401610fc690613f9e565b60405180910390fd5b610fed33600a546001604051806020016040528060008152506115ce565b611019600a5460066040516020016110059190613b81565b604051602081830303815290604052610c6b565b6001600c600082825461102c91906141fc565b925050819055507f2e0f4d63dcc00e6a11c8aef9f6e15c1f9cd6e9a090b2dd99c7b797f1a28d300d33600c54604051611066929190613caf565b60405180910390a1565b61108261107b61177a565b8383611dc5565b5050565b600860009054906101000a900460ff166110d5576040517f08c379a00000000000000000000000000000000000000000000000000000000081526004016110cc90613f7e565b60405180910390fd5b60016110e333600a54610481565b14611123576040517f08c379a000000000000000000000000000000000000000000000000000000000815260040161111a90613f3e565b60405180910390fd5b60005b600581101561114a57611137611f32565b8080611142906143f9565b915050611126565b5061115933600a546001611ba8565b565b600860009054906101000a900460ff1681565b60105481565b600f5481565b6000600160008473ffffffffffffffffffffffffffffffffffffffff1673ffffffffffffffffffffffffffffffffffffffff16815260200190815260200160002060008373ffffffffffffffffffffffffffffffffffffffff1673ffffffffffffffffffffffffffffffffffffffff16815260200190815260200160002060009054906101000a900460ff16905092915050565b61121661177a565b73ffffffffffffffffffffffffffffffffffffffff16611234610f12565b73ffffffffffffffffffffffffffffffffffffffff161461128a576040517f08c379a000000000000000000000000000000000000000000000000000000000815260040161128190613f1e565b60405180910390fd5b600a60036112989190614283565b6001436112a591906142dd565b4060001c6112b39190614442565b6010819055506112fa6040518060400160405280600f81526020017f5374617274696e6720696e6465782000000000000000000000000000000000008152506010546120b2565b600060105414156113225761131b600160105461214e90919063ffffffff16565b6010819055505b565b61132c61177a565b73ffffffffffffffffffffffffffffffffffffffff168573ffffffffffffffffffffffffffffffffffffffff16148061137257506113718561136c61177a565b61117a565b5b6113b1576040517f08c379a00000000000000000000000000000000000000000000000000000000081526004016113a890613e5e565b60405180910390fd5b6113be8585858585612164565b5050505050565b6113cd61177a565b73ffffffffffffffffffffffffffffffffffffffff166113eb610f12565b73ffffffffffffffffffffffffffffffffffffffff1614611441576040517f08c379a000000000000000000000000000000000000000000000000000000000815260040161143890613f1e565b60405180910390fd5b600073ffffffffffffffffffffffffffffffffffffffff168173ffffffffffffffffffffffffffffffffffffffff1614156114b1576040517f08c379a00000000000000000000000000000000000000000000000000000000081526004016114a890613e1e565b60405180910390fd5b6114ba81611ae2565b50565b611553816040516024016114d19190613d4c565b6040516020818303038152906040527f41304fac000000000000000000000000000000000000000000000000000000007bffffffffffffffffffffffffffffffffffffffffffffffffffffffff19166020820180517bffffffffffffffffffffffffffffffffffffffffffffffffffffffff83818316178352505050506123e6565b50565b60007f01ffc9a7000000000000000000000000000000000000000000000000000000007bffffffffffffffffffffffffffffffffffffffffffffffffffffffff1916827bffffffffffffffffffffffffffffffffffffffffffffffffffffffff1916149050919050565b600081600001549050919050565b600073ffffffffffffffffffffffffffffffffffffffff168473ffffffffffffffffffffffffffffffffffffffff16141561163e576040517f08c379a00000000000000000000000000000000000000000000000000000000081526004016116359061401e565b60405180910390fd5b600061164861177a565b90506116698160008761165a8861240f565b6116638861240f565b876124d5565b8260008086815260200190815260200160002060008773ffffffffffffffffffffffffffffffffffffffff1673ffffffffffffffffffffffffffffffffffffffff16815260200190815260200160002060008282546116c891906141fc565b925050819055508473ffffffffffffffffffffffffffffffffffffffff16600073ffffffffffffffffffffffffffffffffffffffff168273ffffffffffffffffffffffffffffffffffffffff167fc3d58168c5ae7397731d063d5bbf3d657854427343f4c083240f7aacaa2d0f628787604051611746929190614059565b60405180910390a461175d816000878787876124dd565b5050505050565b6001816000016000828254019250508190555050565b600033905090565b81518351146117c6576040517f08c379a00000000000000000000000000000000000000000000000000000000081526004016117bd90613ffe565b60405180910390fd5b600073ffffffffffffffffffffffffffffffffffffffff168473ffffffffffffffffffffffffffffffffffffffff161415611836576040517f08c379a000000000000000000000000000000000000000000000000000000000815260040161182d90613e9e565b60405180910390fd5b600061184061177a565b90506118508187878787876124d5565b60005b8451811015611a4d576000858281518110611897577f4e487b7100000000000000000000000000000000000000000000000000000000600052603260045260246000fd5b6020026020010151905060008583815181106118dc577f4e487b7100000000000000000000000000000000000000000000000000000000600052603260045260246000fd5b60200260200101519050600080600084815260200190815260200160002060008b73ffffffffffffffffffffffffffffffffffffffff1673ffffffffffffffffffffffffffffffffffffffff1681526020019081526020016000205490508181101561197d576040517f08c379a000000000000000000000000000000000000000000000000000000000815260040161197490613efe565b60405180910390fd5b81810360008085815260200190815260200160002060008c73ffffffffffffffffffffffffffffffffffffffff1673ffffffffffffffffffffffffffffffffffffffff168152602001908152602001600020819055508160008085815260200190815260200160002060008b73ffffffffffffffffffffffffffffffffffffffff1673ffffffffffffffffffffffffffffffffffffffff1681526020019081526020016000206000828254611a3291906141fc565b9250508190555050505080611a46906143f9565b9050611853565b508473ffffffffffffffffffffffffffffffffffffffff168673ffffffffffffffffffffffffffffffffffffffff168273ffffffffffffffffffffffffffffffffffffffff167f4a39dc06d4c0dbc64b70af90fd698a233a518aa5d07e595d983b8c0526c8f7fb8787604051611ac4929190613cfa565b60405180910390a4611ada8187878787876126ad565b505050505050565b6000600360009054906101000a900473ffffffffffffffffffffffffffffffffffffffff16905081600360006101000a81548173ffffffffffffffffffffffffffffffffffffffff021916908373ffffffffffffffffffffffffffffffffffffffff1602179055508173ffffffffffffffffffffffffffffffffffffffff168173ffffffffffffffffffffffffffffffffffffffff167f8be0079c531659141344cd1fd0a4f28419497f9722a3daafe3b4186f6b6457e060405160405180910390a35050565b600073ffffffffffffffffffffffffffffffffffffffff168373ffffffffffffffffffffffffffffffffffffffff161415611c18576040517f08c379a0000000000000000000000000000000000000000000000000000000008152600401611c0f90613ede565b60405180910390fd5b6000611c2261177a565b9050611c5281856000611c348761240f565b611c3d8761240f565b604051806020016040528060008152506124d5565b600080600085815260200190815260200160002060008673ffffffffffffffffffffffffffffffffffffffff1673ffffffffffffffffffffffffffffffffffffffff16815260200190815260200160002054905082811015611ce9576040517f08c379a0000000000000000000000000000000000000000000000000000000008152600401611ce090613e3e565b60405180910390fd5b82810360008086815260200190815260200160002060008773ffffffffffffffffffffffffffffffffffffffff1673ffffffffffffffffffffffffffffffffffffffff16815260200190815260200160002081905550600073ffffffffffffffffffffffffffffffffffffffff168573ffffffffffffffffffffffffffffffffffffffff168373ffffffffffffffffffffffffffffffffffffffff167fc3d58168c5ae7397731d063d5bbf3d657854427343f4c083240f7aacaa2d0f628787604051611db6929190614059565b60405180910390a45050505050565b8173ffffffffffffffffffffffffffffffffffffffff168373ffffffffffffffffffffffffffffffffffffffff161415611e34576040517f08c379a0000000000000000000000000000000000000000000000000000000008152600401611e2b90613fbe565b60405180910390fd5b80600160008573ffffffffffffffffffffffffffffffffffffffff1673ffffffffffffffffffffffffffffffffffffffff16815260200190815260200160002060008473ffffffffffffffffffffffffffffffffffffffff1673ffffffffffffffffffffffffffffffffffffffff16815260200190815260200160002060006101000a81548160ff0219169083151502179055508173ffffffffffffffffffffffffffffffffffffffff168373ffffffffffffffffffffffffffffffffffffffff167f17307eab39ab6107e8899845ad3d59bd9653f200f220920489ca2b5937696c3183604051611f259190613d31565b60405180910390a3505050565b60006003600e54601054611f4691906141fc565b611f509190614442565b9050611f936040518060400160405280600e81526020017f5374617274696e6720696e6465780000000000000000000000000000000000008152506010546120b2565b611fd26040518060400160405280600a81526020017f4d696e7420696e64657800000000000000000000000000000000000000000000815250826120b2565b600a6003611fe09190614283565b600e5410156120af5761202b338260016040518060400160405280600481526020017f30783030000000000000000000000000000000000000000000000000000000008152506115ce565b600060126000838152602001908152602001600020805461204b906143c7565b905014156120945761209381600561206e60018561206991906141fc565b61287d565b60405160200161207f929190613b98565b604051602081830303815290604052610c6b565b5b6001600e60008282546120a791906141fc565b925050819055505b50565b61214a82826040516024016120c8929190613d6e565b6040516020818303038152906040527f9710a9d0000000000000000000000000000000000000000000000000000000007bffffffffffffffffffffffffffffffffffffffffffffffffffffffff19166020820180517bffffffffffffffffffffffffffffffffffffffffffffffffffffffff83818316178352505050506123e6565b5050565b6000818361215c91906141fc565b905092915050565b600073ffffffffffffffffffffffffffffffffffffffff168473ffffffffffffffffffffffffffffffffffffffff1614156121d4576040517f08c379a00000000000000000000000000000000000000000000000000000000081526004016121cb90613e9e565b60405180910390fd5b60006121de61177a565b90506121fe8187876121ef8861240f565b6121f88861240f565b876124d5565b600080600086815260200190815260200160002060008873ffffffffffffffffffffffffffffffffffffffff1673ffffffffffffffffffffffffffffffffffffffff16815260200190815260200160002054905083811015612295576040517f08c379a000000000000000000000000000000000000000000000000000000000815260040161228c90613efe565b60405180910390fd5b83810360008087815260200190815260200160002060008973ffffffffffffffffffffffffffffffffffffffff1673ffffffffffffffffffffffffffffffffffffffff168152602001908152602001600020819055508360008087815260200190815260200160002060008873ffffffffffffffffffffffffffffffffffffffff1673ffffffffffffffffffffffffffffffffffffffff168152602001908152602001600020600082825461234a91906141fc565b925050819055508573ffffffffffffffffffffffffffffffffffffffff168773ffffffffffffffffffffffffffffffffffffffff168373ffffffffffffffffffffffffffffffffffffffff167fc3d58168c5ae7397731d063d5bbf3d657854427343f4c083240f7aacaa2d0f6288886040516123c7929190614059565b60405180910390a46123dd8288888888886124dd565b50505050505050565b60008151905060006a636f6e736f6c652e6c6f679050602083016000808483855afa5050505050565b60606000600167ffffffffffffffff811115612454577f4e487b7100000000000000000000000000000000000000000000000000000000600052604160045260246000fd5b6040519080825280602002602001820160405280156124825781602001602082028036833780820191505090505b50905082816000815181106124c0577f4e487b7100000000000000000000000000000000000000000000000000000000600052603260045260246000fd5b60200260200101818152505080915050919050565b505050505050565b6124fc8473ffffffffffffffffffffffffffffffffffffffff16612a2a565b156126a5578373ffffffffffffffffffffffffffffffffffffffff1663f23a6e6187878686866040518663ffffffff1660e01b8152600401612542959493929190613c55565b602060405180830381600087803b15801561255c57600080fd5b505af192505050801561258d57506040513d601f19601f8201168201806040525081019061258a9190613080565b60015b61261c5761259961454d565b806125a457506125e1565b806040517f08c379a00000000000000000000000000000000000000000000000000000000081526004016125d89190613d4c565b60405180910390fd5b6040517f08c379a000000000000000000000000000000000000000000000000000000000815260040161261390613d9e565b60405180910390fd5b63f23a6e6160e01b7bffffffffffffffffffffffffffffffffffffffffffffffffffffffff1916817bffffffffffffffffffffffffffffffffffffffffffffffffffffffff1916146126a3576040517f08c379a000000000000000000000000000000000000000000000000000000000815260040161269a90613dbe565b60405180910390fd5b505b505050505050565b6126cc8473ffffffffffffffffffffffffffffffffffffffff16612a2a565b15612875578373ffffffffffffffffffffffffffffffffffffffff1663bc197c8187878686866040518663ffffffff1660e01b8152600401612712959493929190613bed565b602060405180830381600087803b15801561272c57600080fd5b505af192505050801561275d57506040513d601f19601f8201168201806040525081019061275a9190613080565b60015b6127ec5761276961454d565b8061277457506127b1565b806040517f08c379a00000000000000000000000000000000000000000000000000000000081526004016127a89190613d4c565b60405180910390fd5b6040517f08c379a00000000000000000000000000000000000000000000000000000000081526004016127e390613d9e565b60405180910390fd5b63bc197c8160e01b7bffffffffffffffffffffffffffffffffffffffffffffffffffffffff1916817bffffffffffffffffffffffffffffffffffffffffffffffffffffffff191614612873576040517f08c379a000000000000000000000000000000000000000000000000000000000815260040161286a90613dbe565b60405180910390fd5b505b505050505050565b606060008214156128c5576040518060400160405280600181526020017f30000000000000000000000000000000000000000000000000000000000000008152509050612a25565b600082905060005b600082146128f75780806128e0906143f9565b915050600a826128f09190614252565b91506128cd565b60008167ffffffffffffffff811115612939577f4e487b7100000000000000000000000000000000000000000000000000000000600052604160045260246000fd5b6040519080825280601f01601f19166020018201604052801561296b5781602001600182028036833780820191505090505b5090505b60008514612a1e5760018261298491906142dd565b9150600a856129939190614442565b603061299f91906141fc565b60f81b8183815181106129db577f4e487b7100000000000000000000000000000000000000000000000000000000600052603260045260246000fd5b60200101907effffffffffffffffffffffffffffffffffffffffffffffffffffffffffffff1916908160001a905350600a85612a179190614252565b945061296f565b8093505050505b919050565b600080823b905060008111915050919050565b828054612a49906143c7565b90600052602060002090601f016020900481019282612a6b5760008555612ab2565b82601f10612a8457805160ff1916838001178555612ab2565b82800160010185558215612ab2579182015b82811115612ab1578251825591602001919060010190612a96565b5b509050612abf9190612ac3565b5090565b5b80821115612adc576000816000905550600101612ac4565b5090565b6000612af3612aee846140b3565b614082565b90508083825260208201905082856020860282011115612b1257600080fd5b60005b85811015612b425781612b288882612c34565b845260208401935060208301925050600181019050612b15565b5050509392505050565b6000612b5f612b5a846140df565b614082565b90508083825260208201905082856020860282011115612b7e57600080fd5b60005b85811015612bae5781612b948882612d30565b845260208401935060208301925050600181019050612b81565b5050509392505050565b6000612bcb612bc68461410b565b614082565b905082815260208101848484011115612be357600080fd5b612bee848285614385565b509392505050565b6000612c09612c048461413b565b614082565b905082815260208101848484011115612c2157600080fd5b612c2c848285614385565b509392505050565b600081359050612c4381614603565b92915050565b600082601f830112612c5a57600080fd5b8135612c6a848260208601612ae0565b91505092915050565b600082601f830112612c8457600080fd5b8135612c94848260208601612b4c565b91505092915050565b600081359050612cac8161461a565b92915050565b600081359050612cc181614631565b92915050565b600081519050612cd681614631565b92915050565b600082601f830112612ced57600080fd5b8135612cfd848260208601612bb8565b91505092915050565b600082601f830112612d1757600080fd5b8135612d27848260208601612bf6565b91505092915050565b600081359050612d3f81614648565b92915050565b600060208284031215612d5757600080fd5b6000612d6584828501612c34565b91505092915050565b60008060408385031215612d8157600080fd5b6000612d8f85828601612c34565b9250506020612da085828601612c34565b9150509250929050565b600080600080600060a08688031215612dc257600080fd5b6000612dd088828901612c34565b9550506020612de188828901612c34565b945050604086013567ffffffffffffffff811115612dfe57600080fd5b612e0a88828901612c73565b935050606086013567ffffffffffffffff811115612e2757600080fd5b612e3388828901612c73565b925050608086013567ffffffffffffffff811115612e5057600080fd5b612e5c88828901612cdc565b9150509295509295909350565b60008060008060808587031215612e7f57600080fd5b6000612e8d87828801612c34565b9450506020612e9e87828801612c34565b9350506040612eaf87828801612d30565b925050606085013567ffffffffffffffff811115612ecc57600080fd5b612ed887828801612cdc565b91505092959194509250565b600080600080600060a08688031215612efc57600080fd5b6000612f0a88828901612c34565b9550506020612f1b88828901612c34565b9450506040612f2c88828901612d30565b9350506060612f3d88828901612d30565b925050608086013567ffffffffffffffff811115612f5a57600080fd5b612f6688828901612cdc565b9150509295509295909350565b60008060408385031215612f8657600080fd5b6000612f9485828601612c34565b9250506020612fa585828601612c9d565b9150509250929050565b60008060408385031215612fc257600080fd5b6000612fd085828601612c34565b9250506020612fe185828601612d30565b9150509250929050565b60008060408385031215612ffe57600080fd5b600083013567ffffffffffffffff81111561301857600080fd5b61302485828601612c49565b925050602083013567ffffffffffffffff81111561304157600080fd5b61304d85828601612c73565b9150509250929050565b60006020828403121561306957600080fd5b600061307784828501612cb2565b91505092915050565b60006020828403121561309257600080fd5b60006130a084828501612cc7565b91505092915050565b6000602082840312156130bb57600080fd5b600082013567ffffffffffffffff8111156130d557600080fd5b6130e184828501612d06565b91505092915050565b6000602082840312156130fc57600080fd5b600061310a84828501612d30565b91505092915050565b6000806040838503121561312657600080fd5b600061313485828601612d30565b925050602083013567ffffffffffffffff81111561315157600080fd5b61315d85828601612d06565b9150509250929050565b60006131738383613b63565b60208301905092915050565b61318881614311565b82525050565b600061319982614190565b6131a381856141be565b93506131ae8361416b565b8060005b838110156131df5781516131c68882613167565b97506131d1836141b1565b9250506001810190506131b2565b5085935050505092915050565b6131f581614323565b82525050565b60006132068261419b565b61321081856141cf565b9350613220818560208601614394565b6132298161452f565b840191505092915050565b600061323f826141a6565b61324981856141e0565b9350613259818560208601614394565b6132628161452f565b840191505092915050565b6000613278826141a6565b61328281856141f1565b9350613292818560208601614394565b80840191505092915050565b600081546132ab816143c7565b6132b581866141f1565b945060018216600081146132d057600181146132e157613314565b60ff19831686528186019350613314565b6132ea8561417b565b60005b8381101561330c578154818901526001820191506020810190506132ed565b838801955050505b50505092915050565b600061332a6034836141e0565b91507f455243313135353a207472616e7366657220746f206e6f6e204552433131353560008301527f526563656976657220696d706c656d656e7465720000000000000000000000006020830152604082019050919050565b60006133906028836141e0565b91507f455243313135353a204552433131353552656365697665722072656a6563746560008301527f6420746f6b656e730000000000000000000000000000000000000000000000006020830152604082019050919050565b60006133f6601b836141e0565b91507f4e6f2072656d61696e696e6720626f6f73746572207061636b732100000000006000830152602082019050919050565b6000613436602b836141e0565b91507f455243313135353a2062616c616e636520717565727920666f7220746865207a60008301527f65726f20616464726573730000000000000000000000000000000000000000006020830152604082019050919050565b600061349c6026836141e0565b91507f4f776e61626c653a206e6577206f776e657220697320746865207a65726f206160008301527f64647265737300000000000000000000000000000000000000000000000000006020830152604082019050919050565b60006135026024836141e0565b91507f455243313135353a206275726e20616d6f756e7420657863656564732062616c60008301527f616e6365000000000000000000000000000000000000000000000000000000006020830152604082019050919050565b60006135686029836141e0565b91507f455243313135353a2063616c6c6572206973206e6f74206f776e6572206e6f7260008301527f20617070726f76656400000000000000000000000000000000000000000000006020830152604082019050919050565b60006135ce601d836141e0565b91507f5374617274696e6720696e64657820697320616c7265616479207365740000006000830152602082019050919050565b600061360e6025836141e0565b91507f455243313135353a207472616e7366657220746f20746865207a65726f20616460008301527f64726573730000000000000000000000000000000000000000000000000000006020830152604082019050919050565b60006136746032836141e0565b91507f455243313135353a207472616e736665722063616c6c6572206973206e6f742060008301527f6f776e6572206e6f7220617070726f76656400000000000000000000000000006020830152604082019050919050565b60006136da6023836141e0565b91507f455243313135353a206275726e2066726f6d20746865207a65726f206164647260008301527f65737300000000000000000000000000000000000000000000000000000000006020830152604082019050919050565b6000613740602a836141e0565b91507f455243313135353a20696e73756666696369656e742062616c616e636520666f60008301527f72207472616e73666572000000000000000000000000000000000000000000006020830152604082019050919050565b60006137a66005836141f1565b91507f2e6a736f6e0000000000000000000000000000000000000000000000000000006000830152600582019050919050565b60006137e66007836141f1565b91507f6174686c657465000000000000000000000000000000000000000000000000006000830152600782019050919050565b60006138266020836141e0565b91507f4f776e61626c653a2063616c6c6572206973206e6f7420746865206f776e65726000830152602082019050919050565b6000613866602f836141e0565b91507f5061636b2068617320616c7265616479206265656e206275726e6564206f722060008301527f646f6573206e6f742065786973742e00000000000000000000000000000000006020830152604082019050919050565b60006138cc6023836141e0565b91507f416c6c207061636b73206861766520616c7265616479206265656e206d696e7460008301527f65642100000000000000000000000000000000000000000000000000000000006020830152604082019050919050565b6000613932601f836141e0565b91507f5061636b73206172656e277420726561647920746f206f70656e2079657421006000830152602082019050919050565b6000613972602a836141e0565b91507f43616e206f6e6c79206d696e74206f6e652073746172746572207061636b207060008301527f6572206163636f756e74000000000000000000000000000000000000000000006020830152604082019050919050565b60006139d86029836141e0565b91507f455243313135353a2073657474696e6720617070726f76616c2073746174757360008301527f20666f722073656c6600000000000000000000000000000000000000000000006020830152604082019050919050565b6000613a3e6029836141e0565b91507f455243313135353a206163636f756e747320616e6420696473206c656e67746860008301527f206d69736d6174636800000000000000000000000000000000000000000000006020830152604082019050919050565b6000613aa46028836141e0565b91507f455243313135353a2069647320616e6420616d6f756e7473206c656e6774682060008301527f6d69736d617463680000000000000000000000000000000000000000000000006020830152604082019050919050565b6000613b0a6021836141e0565b91507f455243313135353a206d696e7420746f20746865207a65726f2061646472657360008301527f73000000000000000000000000000000000000000000000000000000000000006020830152604082019050919050565b613b6c8161437b565b82525050565b613b7b8161437b565b82525050565b6000613b8d828461329e565b915081905092915050565b6000613ba4828561329e565b9150613baf826137d9565b9150613bbb828461326d565b9150613bc682613799565b91508190509392505050565b6000602082019050613be7600083018461317f565b92915050565b600060a082019050613c02600083018861317f565b613c0f602083018761317f565b8181036040830152613c21818661318e565b90508181036060830152613c35818561318e565b90508181036080830152613c4981846131fb565b90509695505050505050565b600060a082019050613c6a600083018861317f565b613c77602083018761317f565b613c846040830186613b72565b613c916060830185613b72565b8181036080830152613ca381846131fb565b90509695505050505050565b6000604082019050613cc4600083018561317f565b613cd16020830184613b72565b9392505050565b60006020820190508181036000830152613cf2818461318e565b905092915050565b60006040820190508181036000830152613d14818561318e565b90508181036020830152613d28818461318e565b90509392505050565b6000602082019050613d4660008301846131ec565b92915050565b60006020820190508181036000830152613d668184613234565b905092915050565b60006040820190508181036000830152613d888185613234565b9050613d976020830184613b72565b9392505050565b60006020820190508181036000830152613db78161331d565b9050919050565b60006020820190508181036000830152613dd781613383565b9050919050565b60006020820190508181036000830152613df7816133e9565b9050919050565b60006020820190508181036000830152613e1781613429565b9050919050565b60006020820190508181036000830152613e378161348f565b9050919050565b60006020820190508181036000830152613e57816134f5565b9050919050565b60006020820190508181036000830152613e778161355b565b9050919050565b60006020820190508181036000830152613e97816135c1565b9050919050565b60006020820190508181036000830152613eb781613601565b9050919050565b60006020820190508181036000830152613ed781613667565b9050919050565b60006020820190508181036000830152613ef7816136cd565b9050919050565b60006020820190508181036000830152613f1781613733565b9050919050565b60006020820190508181036000830152613f3781613819565b9050919050565b60006020820190508181036000830152613f5781613859565b9050919050565b60006020820190508181036000830152613f77816138bf565b9050919050565b60006020820190508181036000830152613f9781613925565b9050919050565b60006020820190508181036000830152613fb781613965565b9050919050565b60006020820190508181036000830152613fd7816139cb565b9050919050565b60006020820190508181036000830152613ff781613a31565b9050919050565b6000602082019050818103600083015261401781613a97565b9050919050565b6000602082019050818103600083015261403781613afd565b9050919050565b60006020820190506140536000830184613b72565b92915050565b600060408201905061406e6000830185613b72565b61407b6020830184613b72565b9392505050565b6000604051905081810181811067ffffffffffffffff821117156140a9576140a8614500565b5b8060405250919050565b600067ffffffffffffffff8211156140ce576140cd614500565b5b602082029050602081019050919050565b600067ffffffffffffffff8211156140fa576140f9614500565b5b602082029050602081019050919050565b600067ffffffffffffffff82111561412657614125614500565b5b601f19601f8301169050602081019050919050565b600067ffffffffffffffff82111561415657614155614500565b5b601f19601f8301169050602081019050919050565b6000819050602082019050919050565b60008190508160005260206000209050919050565b600081519050919050565b600081519050919050565b600081519050919050565b6000602082019050919050565b600082825260208201905092915050565b600082825260208201905092915050565b600082825260208201905092915050565b600081905092915050565b60006142078261437b565b91506142128361437b565b9250827fffffffffffffffffffffffffffffffffffffffffffffffffffffffffffffffff0382111561424757614246614473565b5b828201905092915050565b600061425d8261437b565b91506142688361437b565b925082614278576142776144a2565b5b828204905092915050565b600061428e8261437b565b91506142998361437b565b9250817fffffffffffffffffffffffffffffffffffffffffffffffffffffffffffffffff04831182151516156142d2576142d1614473565b5b828202905092915050565b60006142e88261437b565b91506142f38361437b565b92508282101561430657614305614473565b5b828203905092915050565b600061431c8261435b565b9050919050565b60008115159050919050565b60007fffffffff0000000000000000000000000000000000000000000000000000000082169050919050565b600073ffffffffffffffffffffffffffffffffffffffff82169050919050565b6000819050919050565b82818337600083830152505050565b60005b838110156143b2578082015181840152602081019050614397565b838111156143c1576000848401525b50505050565b600060028204905060018216806143df57607f821691505b602082108114156143f3576143f26144d1565b5b50919050565b60006144048261437b565b91507fffffffffffffffffffffffffffffffffffffffffffffffffffffffffffffffff82141561443757614436614473565b5b600182019050919050565b600061444d8261437b565b91506144588361437b565b925082614468576144676144a2565b5b828206905092915050565b7f4e487b7100000000000000000000000000000000000000000000000000000000600052601160045260246000fd5b7f4e487b7100000000000000000000000000000000000000000000000000000000600052601260045260246000fd5b7f4e487b7100000000000000000000000000000000000000000000000000000000600052602260045260246000fd5b7f4e487b7100000000000000000000000000000000000000000000000000000000600052604160045260246000fd5b6000601f19601f8301169050919050565b60008160e01c9050919050565b600060443d101561455d57614600565b60046000803e61456e600051614540565b6308c379a0811461457f5750614600565b60405160043d036004823e80513d602482011167ffffffffffffffff821117156145ab57505050614600565b808201805167ffffffffffffffff8111156145ca575050505050614600565b8060208301013d85018111156145e557505050505050614600565b6145ee8261452f565b60208401016040528296505050505050505b90565b61460c81614311565b811461461757600080fd5b50565b61462381614323565b811461462e57600080fd5b50565b61463a8161432f565b811461464557600080fd5b50565b6146518161437b565b811461465c57600080fd5b5056fea2646970667358221220b97ddd619d353f4716a369d7d16a74bac0bc7281e804b73d413d710c7992347064736f6c6343000800003368747470733a2f2f697066732e696f2f697066732f516d5a545339746b6b75654c76524b647465527a58594872683834594142325446433341705153447447793150422f68747470733a2f2f697066732e696f2f697066732f516d573448457a33397a647a4644696744613138537a77537a55656a4366326934644e334c6574667a61723667483f66696c656e616d653d7061636b2e6a736f6e",
  "linkReferences": {},
  "deployedLinkReferences": {}
}