{
  "_format": "hh-sol-artifact-1",
  "contractName": "GameItems",
  "sourceName": "contracts/GameItems.sol",
  "abi": [
    {
      "inputs": [
        {
          "components": [
            {
              "internalType": "uint256",
              "name": "_numAthletes",
              "type": "uint256"
            },
            {
              "internalType": "uint256",
              "name": "_nftPerAthlete",
              "type": "uint256"
            },
            {
              "internalType": "uint256",
              "name": "_starterPackSize",
              "type": "uint256"
            },
            {
              "internalType": "uint256",
              "name": "_boosterPackSize",
              "type": "uint256"
            },
            {
              "internalType": "uint256",
              "name": "_maxStarterPackBalance",
              "type": "uint256"
            },
            {
              "internalType": "uint256",
              "name": "_maxBoosterPackBalance",
              "type": "uint256"
            },
            {
              "internalType": "uint256",
              "name": "_maxPacks",
              "type": "uint256"
            },
            {
              "internalType": "uint256",
              "name": "_revealTimestamp",
              "type": "uint256"
            }
          ],
          "internalType": "struct GameItems.Parameters",
          "name": "params",
          "type": "tuple"
        },
        {
          "internalType": "string",
          "name": "_athleteURI",
          "type": "string"
        },
        {
          "internalType": "string",
          "name": "_starterPackURI",
          "type": "string"
        },
        {
          "internalType": "string",
          "name": "_boosterPackURI",
          "type": "string"
        }
      ],
      "stateMutability": "nonpayable",
      "type": "constructor"
    },
    {
      "anonymous": false,
      "inputs": [
        {
          "indexed": true,
          "internalType": "address",
          "name": "account",
          "type": "address"
        },
        {
          "indexed": true,
          "internalType": "address",
          "name": "operator",
          "type": "address"
        },
        {
          "indexed": false,
          "internalType": "bool",
          "name": "approved",
          "type": "bool"
        }
      ],
      "name": "ApprovalForAll",
      "type": "event"
    },
    {
      "anonymous": false,
      "inputs": [
        {
          "indexed": true,
          "internalType": "address",
          "name": "previousOwner",
          "type": "address"
        },
        {
          "indexed": true,
          "internalType": "address",
          "name": "newOwner",
          "type": "address"
        }
      ],
      "name": "OwnershipTransferred",
      "type": "event"
    },
    {
      "anonymous": false,
      "inputs": [
        {
          "indexed": true,
          "internalType": "address",
          "name": "operator",
          "type": "address"
        },
        {
          "indexed": true,
          "internalType": "address",
          "name": "from",
          "type": "address"
        },
        {
          "indexed": true,
          "internalType": "address",
          "name": "to",
          "type": "address"
        },
        {
          "indexed": false,
          "internalType": "uint256[]",
          "name": "ids",
          "type": "uint256[]"
        },
        {
          "indexed": false,
          "internalType": "uint256[]",
          "name": "values",
          "type": "uint256[]"
        }
      ],
      "name": "TransferBatch",
      "type": "event"
    },
    {
      "anonymous": false,
      "inputs": [
        {
          "indexed": true,
          "internalType": "address",
          "name": "operator",
          "type": "address"
        },
        {
          "indexed": true,
          "internalType": "address",
          "name": "from",
          "type": "address"
        },
        {
          "indexed": true,
          "internalType": "address",
          "name": "to",
          "type": "address"
        },
        {
          "indexed": false,
          "internalType": "uint256",
          "name": "id",
          "type": "uint256"
        },
        {
          "indexed": false,
          "internalType": "uint256",
          "name": "value",
          "type": "uint256"
        }
      ],
      "name": "TransferSingle",
      "type": "event"
    },
    {
      "anonymous": false,
      "inputs": [
        {
          "indexed": false,
          "internalType": "string",
          "name": "value",
          "type": "string"
        },
        {
          "indexed": true,
          "internalType": "uint256",
          "name": "id",
          "type": "uint256"
        }
      ],
      "name": "URI",
      "type": "event"
    },
    {
      "anonymous": false,
      "inputs": [
        {
          "indexed": false,
          "internalType": "uint256[5]",
          "name": "",
          "type": "uint256[5]"
        },
        {
          "indexed": false,
          "internalType": "address",
          "name": "signer",
          "type": "address"
        }
      ],
      "name": "packBurned",
      "type": "event"
    },
    {
      "anonymous": false,
      "inputs": [
        {
          "indexed": false,
          "internalType": "address",
          "name": "signer",
          "type": "address"
        },
        {
          "indexed": false,
          "internalType": "uint256",
          "name": "id",
          "type": "uint256"
        }
      ],
      "name": "packMinted",
      "type": "event"
    },
    {
      "inputs": [],
      "name": "REVEAL_TIMESTAMP",
      "outputs": [
        {
          "internalType": "uint256",
          "name": "",
          "type": "uint256"
        }
      ],
      "stateMutability": "view",
      "type": "function"
    },
    {
      "inputs": [
        {
          "internalType": "address",
          "name": "_userToAdd",
          "type": "address"
        }
      ],
      "name": "addUserToWhitelist",
      "outputs": [
        {
          "internalType": "bool",
          "name": "success",
          "type": "bool"
        }
      ],
      "stateMutability": "nonpayable",
      "type": "function"
    },
    {
      "inputs": [
        {
          "internalType": "address",
          "name": "account",
          "type": "address"
        },
        {
          "internalType": "uint256",
          "name": "id",
          "type": "uint256"
        }
      ],
      "name": "balanceOf",
      "outputs": [
        {
          "internalType": "uint256",
          "name": "",
          "type": "uint256"
        }
      ],
      "stateMutability": "view",
      "type": "function"
    },
    {
      "inputs": [
        {
          "internalType": "address[]",
          "name": "accounts",
          "type": "address[]"
        },
        {
          "internalType": "uint256[]",
          "name": "ids",
          "type": "uint256[]"
        }
      ],
      "name": "balanceOfBatch",
      "outputs": [
        {
          "internalType": "uint256[]",
          "name": "",
          "type": "uint256[]"
        }
      ],
      "stateMutability": "view",
      "type": "function"
    },
    {
      "inputs": [],
      "name": "burnStarterPack",
      "outputs": [],
      "stateMutability": "nonpayable",
      "type": "function"
    },
    {
      "inputs": [],
      "name": "getNFTPerAthlete",
      "outputs": [
        {
          "internalType": "uint256",
          "name": "",
          "type": "uint256"
        }
      ],
      "stateMutability": "view",
      "type": "function"
    },
    {
      "inputs": [],
      "name": "getNumWhitelisted",
      "outputs": [
        {
          "internalType": "uint256",
          "name": "",
          "type": "uint256"
        }
      ],
      "stateMutability": "view",
      "type": "function"
    },
    {
      "inputs": [
        {
          "internalType": "address",
          "name": "account",
          "type": "address"
        },
        {
          "internalType": "address",
          "name": "operator",
          "type": "address"
        }
      ],
      "name": "isApprovedForAll",
      "outputs": [
        {
          "internalType": "bool",
          "name": "",
          "type": "bool"
        }
      ],
      "stateMutability": "view",
      "type": "function"
    },
    {
      "inputs": [
        {
          "internalType": "uint256",
          "name": "index",
          "type": "uint256"
        }
      ],
      "name": "mintAthlete",
      "outputs": [],
      "stateMutability": "nonpayable",
      "type": "function"
    },
    {
      "inputs": [],
      "name": "mintStarterPack",
      "outputs": [],
      "stateMutability": "nonpayable",
      "type": "function"
    },
    {
      "inputs": [],
      "name": "name",
      "outputs": [
        {
          "internalType": "string",
          "name": "",
          "type": "string"
        }
      ],
      "stateMutability": "view",
      "type": "function"
    },
    {
      "inputs": [],
      "name": "numWhitelisted",
      "outputs": [
        {
          "internalType": "uint256",
          "name": "",
          "type": "uint256"
        }
      ],
      "stateMutability": "view",
      "type": "function"
    },
    {
      "inputs": [],
      "name": "owner",
      "outputs": [
        {
          "internalType": "address",
          "name": "",
          "type": "address"
        }
      ],
      "stateMutability": "view",
      "type": "function"
    },
    {
      "inputs": [],
      "name": "packsAvailable",
      "outputs": [
        {
          "internalType": "uint256",
          "name": "",
          "type": "uint256"
        }
      ],
      "stateMutability": "view",
      "type": "function"
    },
    {
      "inputs": [],
      "name": "packsReadyToOpen",
      "outputs": [
        {
          "internalType": "bool",
          "name": "",
          "type": "bool"
        }
      ],
      "stateMutability": "view",
      "type": "function"
    },
    {
      "inputs": [
        {
          "internalType": "address",
          "name": "_userToRemove",
          "type": "address"
        }
      ],
      "name": "removeAddressFromWhitelist",
      "outputs": [
        {
          "internalType": "bool",
          "name": "success",
          "type": "bool"
        }
      ],
      "stateMutability": "nonpayable",
      "type": "function"
    },
    {
      "inputs": [],
      "name": "renounceOwnership",
      "outputs": [],
      "stateMutability": "nonpayable",
      "type": "function"
    },
    {
      "inputs": [
        {
          "internalType": "address",
          "name": "from",
          "type": "address"
        },
        {
          "internalType": "address",
          "name": "to",
          "type": "address"
        },
        {
          "internalType": "uint256[]",
          "name": "ids",
          "type": "uint256[]"
        },
        {
          "internalType": "uint256[]",
          "name": "amounts",
          "type": "uint256[]"
        },
        {
          "internalType": "bytes",
          "name": "data",
          "type": "bytes"
        }
      ],
      "name": "safeBatchTransferFrom",
      "outputs": [],
      "stateMutability": "nonpayable",
      "type": "function"
    },
    {
      "inputs": [
        {
          "internalType": "address",
          "name": "from",
          "type": "address"
        },
        {
          "internalType": "address",
          "name": "to",
          "type": "address"
        },
        {
          "internalType": "uint256",
          "name": "id",
          "type": "uint256"
        },
        {
          "internalType": "uint256",
          "name": "amount",
          "type": "uint256"
        },
        {
          "internalType": "bytes",
          "name": "data",
          "type": "bytes"
        }
      ],
      "name": "safeTransferFrom",
      "outputs": [],
      "stateMutability": "nonpayable",
      "type": "function"
    },
    {
      "inputs": [
        {
          "internalType": "address",
          "name": "operator",
          "type": "address"
        },
        {
          "internalType": "bool",
          "name": "approved",
          "type": "bool"
        }
      ],
      "name": "setApprovalForAll",
      "outputs": [],
      "stateMutability": "nonpayable",
      "type": "function"
    },
    {
      "inputs": [],
      "name": "setPacksReady",
      "outputs": [],
      "stateMutability": "nonpayable",
      "type": "function"
    },
    {
      "inputs": [],
      "name": "setStartingIndex",
      "outputs": [],
      "stateMutability": "nonpayable",
      "type": "function"
    },
    {
      "inputs": [
        {
          "internalType": "uint256",
          "name": "tokenId",
          "type": "uint256"
        },
        {
          "internalType": "string",
          "name": "uri",
          "type": "string"
        }
      ],
      "name": "setTokenUri",
      "outputs": [],
      "stateMutability": "nonpayable",
      "type": "function"
    },
    {
      "inputs": [],
      "name": "setURIs",
      "outputs": [],
      "stateMutability": "nonpayable",
      "type": "function"
    },
    {
      "inputs": [
        {
          "internalType": "bytes4",
          "name": "interfaceId",
          "type": "bytes4"
        }
      ],
      "name": "supportsInterface",
      "outputs": [
        {
          "internalType": "bool",
          "name": "",
          "type": "bool"
        }
      ],
      "stateMutability": "view",
      "type": "function"
    },
    {
      "inputs": [
        {
          "internalType": "address",
          "name": "newOwner",
          "type": "address"
        }
      ],
      "name": "transferOwnership",
      "outputs": [],
      "stateMutability": "nonpayable",
      "type": "function"
    },
    {
      "inputs": [
        {
          "internalType": "uint256",
          "name": "tokenId",
          "type": "uint256"
        }
      ],
      "name": "uri",
      "outputs": [
        {
          "internalType": "string",
          "name": "",
          "type": "string"
        }
      ],
      "stateMutability": "view",
      "type": "function"
    },
    {
      "inputs": [
        {
          "internalType": "address",
          "name": "",
          "type": "address"
        }
      ],
      "name": "whitelist",
      "outputs": [
        {
          "internalType": "bool",
          "name": "",
          "type": "bool"
        }
      ],
      "stateMutability": "view",
      "type": "function"
    }
  ],
  "bytecode": "0x6080604052612710600f556040518060400160405280600881526020017f5465616d446966660000000000000000000000000000000000000000000000008152506010908051906020019062000057929190620002d6565b506001601160006101000a81548160ff02191690831515021790555060405180602001604052806000815250601790805190602001906200009a929190620002d6565b50348015620000a857600080fd5b50604051620051f2380380620051f28339818101604052810190620000ce9190620004fa565b6040518060400160405280600281526020017f54440000000000000000000000000000000000000000000000000000000000008152506200011581620001ec60201b60201c565b50620001366200012a6200020860201b60201c565b6200021060201b60201c565b8360000151600c819055508360200151600d819055508360400151600781905550836060015160088190555083608001516009819055508360a00151600a819055508360c00151600b8190555082600490805190602001906200019b929190620002d6565b508160059080519060200190620001b4929190620002d6565b508060069080519060200190620001cd929190620002d6565b508360e00151600f81905550600b54602081905550505050506200077a565b806002908051906020019062000204929190620002d6565b5050565b600033905090565b6000600360009054906101000a900473ffffffffffffffffffffffffffffffffffffffff16905081600360006101000a81548173ffffffffffffffffffffffffffffffffffffffff021916908373ffffffffffffffffffffffffffffffffffffffff1602179055508173ffffffffffffffffffffffffffffffffffffffff168173ffffffffffffffffffffffffffffffffffffffff167f8be0079c531659141344cd1fd0a4f28419497f9722a3daafe3b4186f6b6457e060405160405180910390a35050565b828054620002e4906200066c565b90600052602060002090601f01602090048101928262000308576000855562000354565b82601f106200032357805160ff191683800117855562000354565b8280016001018555821562000354579182015b828111156200035357825182559160200191906001019062000336565b5b50905062000363919062000367565b5090565b5b808211156200038257600081600090555060010162000368565b5090565b60006200039d6200039784620005f6565b620005cd565b905082815260208101848484011115620003bc57620003bb62000740565b5b620003c984828562000636565b509392505050565b600082601f830112620003e957620003e862000736565b5b8151620003fb84826020860162000386565b91505092915050565b600061010082840312156200041e576200041d6200073b565b5b6200042b610100620005cd565b905060006200043d84828501620004e3565b60008301525060206200045384828501620004e3565b60208301525060406200046984828501620004e3565b60408301525060606200047f84828501620004e3565b60608301525060806200049584828501620004e3565b60808301525060a0620004ab84828501620004e3565b60a08301525060c0620004c184828501620004e3565b60c08301525060e0620004d784828501620004e3565b60e08301525092915050565b600081519050620004f48162000760565b92915050565b60008060008061016085870312156200051857620005176200074a565b5b6000620005288782880162000404565b94505061010085015167ffffffffffffffff8111156200054d576200054c62000745565b5b6200055b87828801620003d1565b93505061012085015167ffffffffffffffff81111562000580576200057f62000745565b5b6200058e87828801620003d1565b92505061014085015167ffffffffffffffff811115620005b357620005b262000745565b5b620005c187828801620003d1565b91505092959194509250565b6000620005d9620005ec565b9050620005e78282620006a2565b919050565b6000604051905090565b600067ffffffffffffffff82111562000614576200061362000707565b5b6200061f826200074f565b9050602081019050919050565b6000819050919050565b60005b838110156200065657808201518184015260208101905062000639565b8381111562000666576000848401525b50505050565b600060028204905060018216806200068557607f821691505b602082108114156200069c576200069b620006d8565b5b50919050565b620006ad826200074f565b810181811067ffffffffffffffff82111715620006cf57620006ce62000707565b5b80604052505050565b7f4e487b7100000000000000000000000000000000000000000000000000000000600052602260045260246000fd5b7f4e487b7100000000000000000000000000000000000000000000000000000000600052604160045260246000fd5b600080fd5b600080fd5b600080fd5b600080fd5b600080fd5b6000601f19601f8301169050919050565b6200076b816200062c565b81146200077757600080fd5b50565b614a68806200078a6000396000f3fe608060405234801561001057600080fd5b50600436106101c35760003560e01c8063715018a6116100f9578063bbb13e1711610097578063e985e9c511610071578063e985e9c5146104aa578063e9866550146104da578063f242432a146104e4578063f2fde38b14610500576101c3565b8063bbb13e1714610464578063be59ec261461046e578063d759000b1461048c576101c3565b80639a25ab83116100d35780639a25ab83146103f25780639b19251a1461040e5780639ebf488b1461043e578063a22cb46514610448576101c3565b8063715018a61461039a578063747b8050146103a45780638da5cb5b146103d4576101c3565b8063286dd3f5116101665780634e1273f4116101405780634e1273f41461032657806354dacb961461035657806357f7789e146103745780635d2db2bf14610390576101c3565b8063286dd3f5146102bc5780632eb2c2d6146102ec57806344eaa84e14610308576101c3565b80630e89341c116101a25780630e89341c14610246578063143cc1441461027657806318e20a381461029457806319b60439146102b2576101c3565b8062fdd58e146101c857806301ffc9a7146101f857806306fdde0314610228575b600080fd5b6101e260048036038101906101dd9190613063565b61051c565b6040516101ef9190613ca6565b60405180910390f35b610212600480360381019061020d919061311b565b6105e5565b60405161021f91906139a9565b60405180910390f35b6102306106c7565b60405161023d91906139c4565b60405180910390f35b610260600480360381019061025b9190613175565b610755565b60405161026d91906139c4565b60405180910390f35b61027e6107fa565b60405161028b9190613ca6565b60405180910390f35b61029c610880565b6040516102a99190613ca6565b60405180910390f35b6102ba610886565b005b6102d660048036038101906102d19190612e50565b61092e565b6040516102e391906139a9565b60405180910390f35b61030660048036038101906103019190612ebd565b610a7a565b005b610310610b1b565b60405161031d9190613ca6565b60405180910390f35b610340600480360381019061033b91906130a3565b610b25565b60405161034d9190613950565b60405180910390f35b61035e610c3e565b60405161036b9190613ca6565b60405180910390f35b61038e600480360381019061038991906131a2565b610c44565b005b610398610d4e565b005b6103a2610e6d565b005b6103be60048036038101906103b99190612e50565b610ef5565b6040516103cb91906139a9565b60405180910390f35b6103dc611040565b6040516103e99190613821565b60405180910390f35b61040c60048036038101906104079190613175565b61106a565b005b61042860048036038101906104239190612e50565b611165565b60405161043591906139a9565b60405180910390f35b610446611185565b005b610462600480360381019061045d9190613023565b61135e565b005b61046c611374565b005b61047661153d565b60405161048391906139a9565b60405180910390f35b610494611550565b6040516104a19190613ca6565b60405180910390f35b6104c460048036038101906104bf9190612e7d565b611556565b6040516104d191906139a9565b60405180910390f35b6104e26115ea565b005b6104fe60048036038101906104f99190612f8c565b6116c1565b005b61051a60048036038101906105159190612e50565b611762565b005b60008073ffffffffffffffffffffffffffffffffffffffff168373ffffffffffffffffffffffffffffffffffffffff16141561058d576040517f08c379a000000000000000000000000000000000000000000000000000000000815260040161058490613a26565b60405180910390fd5b60008083815260200190815260200160002060008473ffffffffffffffffffffffffffffffffffffffff1673ffffffffffffffffffffffffffffffffffffffff16815260200190815260200160002054905092915050565b60007fd9b67a26000000000000000000000000000000000000000000000000000000007bffffffffffffffffffffffffffffffffffffffffffffffffffffffff1916827bffffffffffffffffffffffffffffffffffffffffffffffffffffffff191614806106b057507f0e89341c000000000000000000000000000000000000000000000000000000007bffffffffffffffffffffffffffffffffffffffffffffffffffffffff1916827bffffffffffffffffffffffffffffffffffffffffffffffffffffffff1916145b806106c057506106bf8261185a565b5b9050919050565b601080546106d49061405f565b80601f01602080910402602001604051908101604052809291908181526020018280546107009061405f565b801561074d5780601f106107225761010080835404028352916020019161074d565b820191906000526020600020905b81548152906001019060200180831161073057829003601f168201915b505050505081565b60606023600083815260200190815260200160002080546107759061405f565b80601f01602080910402602001604051908101604052809291908181526020018280546107a19061405f565b80156107ee5780601f106107c3576101008083540402835291602001916107ee565b820191906000526020600020905b8154815290600101906020018083116107d157829003601f168201915b50505050509050919050565b60006108046118c4565b73ffffffffffffffffffffffffffffffffffffffff16610822611040565b73ffffffffffffffffffffffffffffffffffffffff1614610878576040517f08c379a000000000000000000000000000000000000000000000000000000000815260040161086f90613b86565b60405180910390fd5b600d54905090565b600f5481565b61088e6118c4565b73ffffffffffffffffffffffffffffffffffffffff166108ac611040565b73ffffffffffffffffffffffffffffffffffffffff1614610902576040517f08c379a00000000000000000000000000000000000000000000000000000000081526004016108f990613b86565b60405180910390fd5b601160009054906101000a900460ff1615601160006101000a81548160ff021916908315150217905550565b60006109386118c4565b73ffffffffffffffffffffffffffffffffffffffff16610956611040565b73ffffffffffffffffffffffffffffffffffffffff16146109ac576040517f08c379a00000000000000000000000000000000000000000000000000000000081526004016109a390613b86565b60405180910390fd5b602160008373ffffffffffffffffffffffffffffffffffffffff1673ffffffffffffffffffffffffffffffffffffffff16815260200190815260200160002060009054906101000a900460ff1615610a75576000602160008473ffffffffffffffffffffffffffffffffffffffff1673ffffffffffffffffffffffffffffffffffffffff16815260200190815260200160002060006101000a81548160ff021916908315150217905550600160226000828254610a699190613f68565b92505081905550600190505b919050565b610a826118c4565b73ffffffffffffffffffffffffffffffffffffffff168573ffffffffffffffffffffffffffffffffffffffff161480610ac85750610ac785610ac26118c4565b611556565b5b610b07576040517f08c379a0000000000000000000000000000000000000000000000000000000008152600401610afe90613b06565b60405180910390fd5b610b1485858585856118cc565b5050505050565b6000602254905090565b60608151835114610b6b576040517f08c379a0000000000000000000000000000000000000000000000000000000008152600401610b6290613c46565b60405180910390fd5b6000835167ffffffffffffffff811115610b8857610b87614250565b5b604051908082528060200260200182016040528015610bb65781602001602082028036833780820191505090505b50905060005b8451811015610c3357610c03858281518110610bdb57610bda614221565b5b6020026020010151858381518110610bf657610bf5614221565b5b602002602001015161051c565b828281518110610c1657610c15614221565b5b60200260200101818152505080610c2c906140c2565b9050610bbc565b508091505092915050565b60225481565b610c4c6118c4565b73ffffffffffffffffffffffffffffffffffffffff16610c6a611040565b73ffffffffffffffffffffffffffffffffffffffff1614610cc0576040517f08c379a0000000000000000000000000000000000000000000000000000000008152600401610cb790613b86565b60405180910390fd5b6000602360008481526020019081526020016000208054610ce09061405f565b905014610d22576040517f08c379a0000000000000000000000000000000000000000000000000000000008152600401610d1990613b26565b60405180910390fd5b80602360008481526020019081526020016000209080519060200190610d49929190612b06565b505050565b610d566118c4565b73ffffffffffffffffffffffffffffffffffffffff16610d74611040565b73ffffffffffffffffffffffffffffffffffffffff1614610dca576040517f08c379a0000000000000000000000000000000000000000000000000000000008152600401610dc190613b86565b60405180910390fd5b60005b600c54811015610e3e576000600c5482601654610dea9190613e87565b610df49190614163565b9050610e2a816004610e0584611be0565b604051602001610e16929190613793565b604051602081830303815290604052610c44565b508080610e36906140c2565b915050610dcd565b50610e6b600c546005604051602001610e57919061377c565b604051602081830303815290604052610c44565b565b610e756118c4565b73ffffffffffffffffffffffffffffffffffffffff16610e93611040565b73ffffffffffffffffffffffffffffffffffffffff1614610ee9576040517f08c379a0000000000000000000000000000000000000000000000000000000008152600401610ee090613b86565b60405180910390fd5b610ef36000611d41565b565b6000610eff6118c4565b73ffffffffffffffffffffffffffffffffffffffff16610f1d611040565b73ffffffffffffffffffffffffffffffffffffffff1614610f73576040517f08c379a0000000000000000000000000000000000000000000000000000000008152600401610f6a90613b86565b60405180910390fd5b602160008373ffffffffffffffffffffffffffffffffffffffff1673ffffffffffffffffffffffffffffffffffffffff16815260200190815260200160002060009054906101000a900460ff1661103b576001602160008473ffffffffffffffffffffffffffffffffffffffff1673ffffffffffffffffffffffffffffffffffffffff16815260200190815260200160002060006101000a81548160ff02191690831515021790555060016022600082825461102f9190613e87565b92505081905550600190505b919050565b6000600360009054906101000a900473ffffffffffffffffffffffffffffffffffffffff16905090565b600d54600c5461107a9190613f0e565b601454101561116257600d546024600083815260200190815260200160002054106110da576040517f08c379a00000000000000000000000000000000000000000000000000000000081526004016110d190613ac6565b60405180910390fd5b61111c338260016040518060400160405280600481526020017f3078303000000000000000000000000000000000000000000000000000000000815250611e07565b60016024600083815260200190815260200160002060008282546111409190613e87565b9250508190555060016014600082825461115a9190613e87565b925050819055505b50565b60216020528060005260406000206000915054906101000a900460ff1681565b602160003373ffffffffffffffffffffffffffffffffffffffff1673ffffffffffffffffffffffffffffffffffffffff16815260200190815260200160002060009054906101000a900460ff16611211576040517f08c379a000000000000000000000000000000000000000000000000000000000815260040161120890613aa6565b60405180910390fd5b6000600c549050600b546012541061125e576040517f08c379a000000000000000000000000000000000000000000000000000000000815260040161125590613bc6565b60405180910390fd5b600161126a338361051c565b106112aa576040517f08c379a00000000000000000000000000000000000000000000000000000000081526004016112a190613c06565b60405180910390fd5b6112ec338260016040518060400160405280600481526020017f3078303000000000000000000000000000000000000000000000000000000000815250611e07565b6001601260008282546112ff9190613e87565b925050819055506001602060008282546113199190613f68565b925050819055507f2e0f4d63dcc00e6a11c8aef9f6e15c1f9cd6e9a090b2dd99c7b797f1a28d300d336012546040516113539291906138fe565b60405180910390a150565b6113706113696118c4565b8383611f9d565b5050565b602160003373ffffffffffffffffffffffffffffffffffffffff1673ffffffffffffffffffffffffffffffffffffffff16815260200190815260200160002060009054906101000a900460ff16611400576040517f08c379a00000000000000000000000000000000000000000000000000000000081526004016113f790613aa6565b60405180910390fd5b6000600c549050601160009054906101000a900460ff16611456576040517f08c379a000000000000000000000000000000000000000000000000000000000815260040161144d90613be6565b60405180910390fd5b6001611462338361051c565b146114a2576040517f08c379a000000000000000000000000000000000000000000000000000000000815260040161149990613ba6565b60405180910390fd5b60006114ac61210a565b905060005b60058160ff1610156114f3576114e0828260ff16600581106114d6576114d5614221565b5b602002015161106a565b80806114eb9061410b565b9150506114b1565b50611500338360016121ee565b7f15abe0b63b201b70614c230381f0fabc4a26a1957629948558095a11db1d6fb58133604051611531929190613927565b60405180910390a15050565b601160009054906101000a900460ff1681565b60205481565b6000600160008473ffffffffffffffffffffffffffffffffffffffff1673ffffffffffffffffffffffffffffffffffffffff16815260200190815260200160002060008373ffffffffffffffffffffffffffffffffffffffff1673ffffffffffffffffffffffffffffffffffffffff16815260200190815260200160002060009054906101000a900460ff16905092915050565b6115f26118c4565b73ffffffffffffffffffffffffffffffffffffffff16611610611040565b73ffffffffffffffffffffffffffffffffffffffff1614611666576040517f08c379a000000000000000000000000000000000000000000000000000000000815260040161165d90613b86565b60405180910390fd5b600d54600c546116769190613f0e565b6001436116839190613f68565b4060001c6116919190614163565b601681905550600060165414156116bf576116b8600160165461240b90919063ffffffff16565b6016819055505b565b6116c96118c4565b73ffffffffffffffffffffffffffffffffffffffff168573ffffffffffffffffffffffffffffffffffffffff16148061170f575061170e856117096118c4565b611556565b5b61174e576040517f08c379a000000000000000000000000000000000000000000000000000000000815260040161174590613a86565b60405180910390fd5b61175b8585858585612421565b5050505050565b61176a6118c4565b73ffffffffffffffffffffffffffffffffffffffff16611788611040565b73ffffffffffffffffffffffffffffffffffffffff16146117de576040517f08c379a00000000000000000000000000000000000000000000000000000000081526004016117d590613b86565b60405180910390fd5b600073ffffffffffffffffffffffffffffffffffffffff168173ffffffffffffffffffffffffffffffffffffffff16141561184e576040517f08c379a000000000000000000000000000000000000000000000000000000000815260040161184590613a46565b60405180910390fd5b61185781611d41565b50565b60007f01ffc9a7000000000000000000000000000000000000000000000000000000007bffffffffffffffffffffffffffffffffffffffffffffffffffffffff1916827bffffffffffffffffffffffffffffffffffffffffffffffffffffffff1916149050919050565b600033905090565b8151835114611910576040517f08c379a000000000000000000000000000000000000000000000000000000000815260040161190790613c66565b60405180910390fd5b600073ffffffffffffffffffffffffffffffffffffffff168473ffffffffffffffffffffffffffffffffffffffff161415611980576040517f08c379a000000000000000000000000000000000000000000000000000000000815260040161197790613ae6565b60405180910390fd5b600061198a6118c4565b905061199a8187878787876126a3565b60005b8451811015611b4b5760008582815181106119bb576119ba614221565b5b6020026020010151905060008583815181106119da576119d9614221565b5b60200260200101519050600080600084815260200190815260200160002060008b73ffffffffffffffffffffffffffffffffffffffff1673ffffffffffffffffffffffffffffffffffffffff16815260200190815260200160002054905081811015611a7b576040517f08c379a0000000000000000000000000000000000000000000000000000000008152600401611a7290613b66565b60405180910390fd5b81810360008085815260200190815260200160002060008c73ffffffffffffffffffffffffffffffffffffffff1673ffffffffffffffffffffffffffffffffffffffff168152602001908152602001600020819055508160008085815260200190815260200160002060008b73ffffffffffffffffffffffffffffffffffffffff1673ffffffffffffffffffffffffffffffffffffffff1681526020019081526020016000206000828254611b309190613e87565b9250508190555050505080611b44906140c2565b905061199d565b508473ffffffffffffffffffffffffffffffffffffffff168673ffffffffffffffffffffffffffffffffffffffff168273ffffffffffffffffffffffffffffffffffffffff167f4a39dc06d4c0dbc64b70af90fd698a233a518aa5d07e595d983b8c0526c8f7fb8787604051611bc2929190613972565b60405180910390a4611bd88187878787876126ab565b505050505050565b60606000821415611c28576040518060400160405280600181526020017f30000000000000000000000000000000000000000000000000000000000000008152509050611d3c565b600082905060005b60008214611c5a578080611c43906140c2565b915050600a82611c539190613edd565b9150611c30565b60008167ffffffffffffffff811115611c7657611c75614250565b5b6040519080825280601f01601f191660200182016040528015611ca85781602001600182028036833780820191505090505b5090505b60008514611d3557600182611cc19190613f68565b9150600a85611cd09190614163565b6030611cdc9190613e87565b60f81b818381518110611cf257611cf1614221565b5b60200101907effffffffffffffffffffffffffffffffffffffffffffffffffffffffffffff1916908160001a905350600a85611d2e9190613edd565b9450611cac565b8093505050505b919050565b6000600360009054906101000a900473ffffffffffffffffffffffffffffffffffffffff16905081600360006101000a81548173ffffffffffffffffffffffffffffffffffffffff021916908373ffffffffffffffffffffffffffffffffffffffff1602179055508173ffffffffffffffffffffffffffffffffffffffff168173ffffffffffffffffffffffffffffffffffffffff167f8be0079c531659141344cd1fd0a4f28419497f9722a3daafe3b4186f6b6457e060405160405180910390a35050565b600073ffffffffffffffffffffffffffffffffffffffff168473ffffffffffffffffffffffffffffffffffffffff161415611e77576040517f08c379a0000000000000000000000000000000000000000000000000000000008152600401611e6e90613c86565b60405180910390fd5b6000611e816118c4565b9050611ea281600087611e9388612892565b611e9c88612892565b876126a3565b8260008086815260200190815260200160002060008773ffffffffffffffffffffffffffffffffffffffff1673ffffffffffffffffffffffffffffffffffffffff1681526020019081526020016000206000828254611f019190613e87565b925050819055508473ffffffffffffffffffffffffffffffffffffffff16600073ffffffffffffffffffffffffffffffffffffffff168273ffffffffffffffffffffffffffffffffffffffff167fc3d58168c5ae7397731d063d5bbf3d657854427343f4c083240f7aacaa2d0f628787604051611f7f929190613cc1565b60405180910390a4611f968160008787878761290c565b5050505050565b8173ffffffffffffffffffffffffffffffffffffffff168373ffffffffffffffffffffffffffffffffffffffff16141561200c576040517f08c379a000000000000000000000000000000000000000000000000000000000815260040161200390613c26565b60405180910390fd5b80600160008573ffffffffffffffffffffffffffffffffffffffff1673ffffffffffffffffffffffffffffffffffffffff16815260200190815260200160002060008473ffffffffffffffffffffffffffffffffffffffff1673ffffffffffffffffffffffffffffffffffffffff16815260200190815260200160002060006101000a81548160ff0219169083151502179055508173ffffffffffffffffffffffffffffffffffffffff168373ffffffffffffffffffffffffffffffffffffffff167f17307eab39ab6107e8899845ad3d59bd9653f200f220920489ca2b5937696c31836040516120fd91906139a9565b60405180910390a3505050565b612112612b8c565b61211a612b8c565b60005b60058110156121e6576000600a826121359190613f0e565b905060006009600a846121489190613f0e565b6121529190613e87565b905081600183836121639190613f68565b61216d9190613e87565b423344876012546040516020016121889594939291906137c2565b6040516020818303038152906040528051906020012060001c6121ab9190614163565b6121b59190613e87565b8484600581106121c8576121c7614221565b5b602002018181525050505080806121de906140c2565b91505061211d565b508091505090565b600073ffffffffffffffffffffffffffffffffffffffff168373ffffffffffffffffffffffffffffffffffffffff16141561225e576040517f08c379a000000000000000000000000000000000000000000000000000000000815260040161225590613b46565b60405180910390fd5b60006122686118c4565b90506122988185600061227a87612892565b61228387612892565b604051806020016040528060008152506126a3565b600080600085815260200190815260200160002060008673ffffffffffffffffffffffffffffffffffffffff1673ffffffffffffffffffffffffffffffffffffffff1681526020019081526020016000205490508281101561232f576040517f08c379a000000000000000000000000000000000000000000000000000000000815260040161232690613a66565b60405180910390fd5b82810360008086815260200190815260200160002060008773ffffffffffffffffffffffffffffffffffffffff1673ffffffffffffffffffffffffffffffffffffffff16815260200190815260200160002081905550600073ffffffffffffffffffffffffffffffffffffffff168573ffffffffffffffffffffffffffffffffffffffff168373ffffffffffffffffffffffffffffffffffffffff167fc3d58168c5ae7397731d063d5bbf3d657854427343f4c083240f7aacaa2d0f6287876040516123fc929190613cc1565b60405180910390a45050505050565b600081836124199190613e87565b905092915050565b600073ffffffffffffffffffffffffffffffffffffffff168473ffffffffffffffffffffffffffffffffffffffff161415612491576040517f08c379a000000000000000000000000000000000000000000000000000000000815260040161248890613ae6565b60405180910390fd5b600061249b6118c4565b90506124bb8187876124ac88612892565b6124b588612892565b876126a3565b600080600086815260200190815260200160002060008873ffffffffffffffffffffffffffffffffffffffff1673ffffffffffffffffffffffffffffffffffffffff16815260200190815260200160002054905083811015612552576040517f08c379a000000000000000000000000000000000000000000000000000000000815260040161254990613b66565b60405180910390fd5b83810360008087815260200190815260200160002060008973ffffffffffffffffffffffffffffffffffffffff1673ffffffffffffffffffffffffffffffffffffffff168152602001908152602001600020819055508360008087815260200190815260200160002060008873ffffffffffffffffffffffffffffffffffffffff1673ffffffffffffffffffffffffffffffffffffffff16815260200190815260200160002060008282546126079190613e87565b925050819055508573ffffffffffffffffffffffffffffffffffffffff168773ffffffffffffffffffffffffffffffffffffffff168373ffffffffffffffffffffffffffffffffffffffff167fc3d58168c5ae7397731d063d5bbf3d657854427343f4c083240f7aacaa2d0f628888604051612684929190613cc1565b60405180910390a461269a82888888888861290c565b50505050505050565b505050505050565b6126ca8473ffffffffffffffffffffffffffffffffffffffff16612af3565b1561288a578373ffffffffffffffffffffffffffffffffffffffff1663bc197c8187878686866040518663ffffffff1660e01b815260040161271095949392919061383c565b602060405180830381600087803b15801561272a57600080fd5b505af192505050801561275b57506040513d601f19601f820116820180604052508101906127589190613148565b60015b6128015761276761427f565b806308c379a014156127c4575061277c614940565b8061278757506127c6565b806040517f08c379a00000000000000000000000000000000000000000000000000000000081526004016127bb91906139c4565b60405180910390fd5b505b6040517f08c379a00000000000000000000000000000000000000000000000000000000081526004016127f8906139e6565b60405180910390fd5b63bc197c8160e01b7bffffffffffffffffffffffffffffffffffffffffffffffffffffffff1916817bffffffffffffffffffffffffffffffffffffffffffffffffffffffff191614612888576040517f08c379a000000000000000000000000000000000000000000000000000000000815260040161287f90613a06565b60405180910390fd5b505b505050505050565b60606000600167ffffffffffffffff8111156128b1576128b0614250565b5b6040519080825280602002602001820160405280156128df5781602001602082028036833780820191505090505b50905082816000815181106128f7576128f6614221565b5b60200260200101818152505080915050919050565b61292b8473ffffffffffffffffffffffffffffffffffffffff16612af3565b15612aeb578373ffffffffffffffffffffffffffffffffffffffff1663f23a6e6187878686866040518663ffffffff1660e01b81526004016129719594939291906138a4565b602060405180830381600087803b15801561298b57600080fd5b505af19250505080156129bc57506040513d601f19601f820116820180604052508101906129b99190613148565b60015b612a62576129c861427f565b806308c379a01415612a2557506129dd614940565b806129e85750612a27565b806040517f08c379a0000000000000000000000000000000000000000000000000000000008152600401612a1c91906139c4565b60405180910390fd5b505b6040517f08c379a0000000000000000000000000000000000000000000000000000000008152600401612a59906139e6565b60405180910390fd5b63f23a6e6160e01b7bffffffffffffffffffffffffffffffffffffffffffffffffffffffff1916817bffffffffffffffffffffffffffffffffffffffffffffffffffffffff191614612ae9576040517f08c379a0000000000000000000000000000000000000000000000000000000008152600401612ae090613a06565b60405180910390fd5b505b505050505050565b600080823b905060008111915050919050565b828054612b129061405f565b90600052602060002090601f016020900481019282612b345760008555612b7b565b82601f10612b4d57805160ff1916838001178555612b7b565b82800160010185558215612b7b579182015b82811115612b7a578251825591602001919060010190612b5f565b5b509050612b889190612bae565b5090565b6040518060a00160405280600590602082028036833780820191505090505090565b5b80821115612bc7576000816000905550600101612baf565b5090565b6000612bde612bd984613d0f565b613cea565b90508083825260208201905082856020860282011115612c0157612c006142a6565b5b60005b85811015612c315781612c178882612d2f565b845260208401935060208301925050600181019050612c04565b5050509392505050565b6000612c4e612c4984613d3b565b613cea565b90508083825260208201905082856020860282011115612c7157612c706142a6565b5b60005b85811015612ca15781612c878882612e3b565b845260208401935060208301925050600181019050612c74565b5050509392505050565b6000612cbe612cb984613d67565b613cea565b905082815260208101848484011115612cda57612cd96142ab565b5b612ce584828561401d565b509392505050565b6000612d00612cfb84613d98565b613cea565b905082815260208101848484011115612d1c57612d1b6142ab565b5b612d2784828561401d565b509392505050565b600081359050612d3e816149d6565b92915050565b600082601f830112612d5957612d586142a1565b5b8135612d69848260208601612bcb565b91505092915050565b600082601f830112612d8757612d866142a1565b5b8135612d97848260208601612c3b565b91505092915050565b600081359050612daf816149ed565b92915050565b600081359050612dc481614a04565b92915050565b600081519050612dd981614a04565b92915050565b600082601f830112612df457612df36142a1565b5b8135612e04848260208601612cab565b91505092915050565b600082601f830112612e2257612e216142a1565b5b8135612e32848260208601612ced565b91505092915050565b600081359050612e4a81614a1b565b92915050565b600060208284031215612e6657612e656142b5565b5b6000612e7484828501612d2f565b91505092915050565b60008060408385031215612e9457612e936142b5565b5b6000612ea285828601612d2f565b9250506020612eb385828601612d2f565b9150509250929050565b600080600080600060a08688031215612ed957612ed86142b5565b5b6000612ee788828901612d2f565b9550506020612ef888828901612d2f565b945050604086013567ffffffffffffffff811115612f1957612f186142b0565b5b612f2588828901612d72565b935050606086013567ffffffffffffffff811115612f4657612f456142b0565b5b612f5288828901612d72565b925050608086013567ffffffffffffffff811115612f7357612f726142b0565b5b612f7f88828901612ddf565b9150509295509295909350565b600080600080600060a08688031215612fa857612fa76142b5565b5b6000612fb688828901612d2f565b9550506020612fc788828901612d2f565b9450506040612fd888828901612e3b565b9350506060612fe988828901612e3b565b925050608086013567ffffffffffffffff81111561300a576130096142b0565b5b61301688828901612ddf565b9150509295509295909350565b6000806040838503121561303a576130396142b5565b5b600061304885828601612d2f565b925050602061305985828601612da0565b9150509250929050565b6000806040838503121561307a576130796142b5565b5b600061308885828601612d2f565b925050602061309985828601612e3b565b9150509250929050565b600080604083850312156130ba576130b96142b5565b5b600083013567ffffffffffffffff8111156130d8576130d76142b0565b5b6130e485828601612d44565b925050602083013567ffffffffffffffff811115613105576131046142b0565b5b61311185828601612d72565b9150509250929050565b600060208284031215613131576131306142b5565b5b600061313f84828501612db5565b91505092915050565b60006020828403121561315e5761315d6142b5565b5b600061316c84828501612dca565b91505092915050565b60006020828403121561318b5761318a6142b5565b5b600061319984828501612e3b565b91505092915050565b600080604083850312156131b9576131b86142b5565b5b60006131c785828601612e3b565b925050602083013567ffffffffffffffff8111156131e8576131e76142b0565b5b6131f485828601612e0d565b9150509250929050565b600061320a8383613747565b60208301905092915050565b61321f81613f9c565b82525050565b61323661323182613f9c565b614135565b82525050565b61324581613df8565b61324f8184613e3e565b925061325a82613dc9565b8060005b8381101561328b57815161327287826131fe565b965061327d83613e24565b92505060018101905061325e565b505050505050565b600061329e82613e03565b6132a88185613e49565b93506132b383613dd3565b8060005b838110156132e45781516132cb88826131fe565b97506132d683613e31565b9250506001810190506132b7565b5085935050505092915050565b6132fa81613fae565b82525050565b600061330b82613e0e565b6133158185613e5a565b935061332581856020860161402c565b61332e816142ba565b840191505092915050565b600061334482613e19565b61334e8185613e6b565b935061335e81856020860161402c565b613367816142ba565b840191505092915050565b600061337d82613e19565b6133878185613e7c565b935061339781856020860161402c565b80840191505092915050565b600081546133b08161405f565b6133ba8186613e7c565b945060018216600081146133d557600181146133e657613419565b60ff19831686528186019350613419565b6133ef85613de3565b60005b83811015613411578154818901526001820191506020810190506133f2565b838801955050505b50505092915050565b600061342f603483613e6b565b915061343a826142e5565b604082019050919050565b6000613452602883613e6b565b915061345d82614334565b604082019050919050565b6000613475602b83613e6b565b915061348082614383565b604082019050919050565b6000613498602683613e6b565b91506134a3826143d2565b604082019050919050565b60006134bb602483613e6b565b91506134c682614421565b604082019050919050565b60006134de602983613e6b565b91506134e982614470565b604082019050919050565b6000613501601883613e6b565b915061350c826144bf565b602082019050919050565b6000613524602d83613e6b565b915061352f826144e8565b604082019050919050565b6000613547602583613e6b565b915061355282614537565b604082019050919050565b600061356a603283613e6b565b915061357582614586565b604082019050919050565b600061358d601483613e6b565b9150613598826145d5565b602082019050919050565b60006135b0602383613e6b565b91506135bb826145fe565b604082019050919050565b60006135d3602a83613e6b565b91506135de8261464d565b604082019050919050565b60006135f6600583613e7c565b91506136018261469c565b600582019050919050565b6000613619602083613e6b565b9150613624826146c5565b602082019050919050565b600061363c602f83613e6b565b9150613647826146ee565b604082019050919050565b600061365f602383613e6b565b915061366a8261473d565b604082019050919050565b6000613682601f83613e6b565b915061368d8261478c565b602082019050919050565b60006136a5602a83613e6b565b91506136b0826147b5565b604082019050919050565b60006136c8602983613e6b565b91506136d382614804565b604082019050919050565b60006136eb602983613e6b565b91506136f682614853565b604082019050919050565b600061370e602883613e6b565b9150613719826148a2565b604082019050919050565b6000613731602183613e6b565b915061373c826148f1565b604082019050919050565b61375081614006565b82525050565b61375f81614006565b82525050565b61377661377182614006565b614159565b82525050565b600061378882846133a3565b915081905092915050565b600061379f82856133a3565b91506137ab8284613372565b91506137b6826135e9565b91508190509392505050565b60006137ce8288613765565b6020820191506137de8287613225565b6014820191506137ee8286613765565b6020820191506137fe8285613765565b60208201915061380e8284613765565b6020820191508190509695505050505050565b60006020820190506138366000830184613216565b92915050565b600060a0820190506138516000830188613216565b61385e6020830187613216565b81810360408301526138708186613293565b905081810360608301526138848185613293565b905081810360808301526138988184613300565b90509695505050505050565b600060a0820190506138b96000830188613216565b6138c66020830187613216565b6138d36040830186613756565b6138e06060830185613756565b81810360808301526138f28184613300565b90509695505050505050565b60006040820190506139136000830185613216565b6139206020830184613756565b9392505050565b600060c08201905061393c600083018561323c565b61394960a0830184613216565b9392505050565b6000602082019050818103600083015261396a8184613293565b905092915050565b6000604082019050818103600083015261398c8185613293565b905081810360208301526139a08184613293565b90509392505050565b60006020820190506139be60008301846132f1565b92915050565b600060208201905081810360008301526139de8184613339565b905092915050565b600060208201905081810360008301526139ff81613422565b9050919050565b60006020820190508181036000830152613a1f81613445565b9050919050565b60006020820190508181036000830152613a3f81613468565b9050919050565b60006020820190508181036000830152613a5f8161348b565b9050919050565b60006020820190508181036000830152613a7f816134ae565b9050919050565b60006020820190508181036000830152613a9f816134d1565b9050919050565b60006020820190508181036000830152613abf816134f4565b9050919050565b60006020820190508181036000830152613adf81613517565b9050919050565b60006020820190508181036000830152613aff8161353a565b9050919050565b60006020820190508181036000830152613b1f8161355d565b9050919050565b60006020820190508181036000830152613b3f81613580565b9050919050565b60006020820190508181036000830152613b5f816135a3565b9050919050565b60006020820190508181036000830152613b7f816135c6565b9050919050565b60006020820190508181036000830152613b9f8161360c565b9050919050565b60006020820190508181036000830152613bbf8161362f565b9050919050565b60006020820190508181036000830152613bdf81613652565b9050919050565b60006020820190508181036000830152613bff81613675565b9050919050565b60006020820190508181036000830152613c1f81613698565b9050919050565b60006020820190508181036000830152613c3f816136bb565b9050919050565b60006020820190508181036000830152613c5f816136de565b9050919050565b60006020820190508181036000830152613c7f81613701565b9050919050565b60006020820190508181036000830152613c9f81613724565b9050919050565b6000602082019050613cbb6000830184613756565b92915050565b6000604082019050613cd66000830185613756565b613ce36020830184613756565b9392505050565b6000613cf4613d05565b9050613d008282614091565b919050565b6000604051905090565b600067ffffffffffffffff821115613d2a57613d29614250565b5b602082029050602081019050919050565b600067ffffffffffffffff821115613d5657613d55614250565b5b602082029050602081019050919050565b600067ffffffffffffffff821115613d8257613d81614250565b5b613d8b826142ba565b9050602081019050919050565b600067ffffffffffffffff821115613db357613db2614250565b5b613dbc826142ba565b9050602081019050919050565b6000819050919050565b6000819050602082019050919050565b60008190508160005260206000209050919050565b600060059050919050565b600081519050919050565b600081519050919050565b600081519050919050565b6000602082019050919050565b6000602082019050919050565b600081905092915050565b600082825260208201905092915050565b600082825260208201905092915050565b600082825260208201905092915050565b600081905092915050565b6000613e9282614006565b9150613e9d83614006565b9250827fffffffffffffffffffffffffffffffffffffffffffffffffffffffffffffffff03821115613ed257613ed1614194565b5b828201905092915050565b6000613ee882614006565b9150613ef383614006565b925082613f0357613f026141c3565b5b828204905092915050565b6000613f1982614006565b9150613f2483614006565b9250817fffffffffffffffffffffffffffffffffffffffffffffffffffffffffffffffff0483118215151615613f5d57613f5c614194565b5b828202905092915050565b6000613f7382614006565b9150613f7e83614006565b925082821015613f9157613f90614194565b5b828203905092915050565b6000613fa782613fe6565b9050919050565b60008115159050919050565b60007fffffffff0000000000000000000000000000000000000000000000000000000082169050919050565b600073ffffffffffffffffffffffffffffffffffffffff82169050919050565b6000819050919050565b600060ff82169050919050565b82818337600083830152505050565b60005b8381101561404a57808201518184015260208101905061402f565b83811115614059576000848401525b50505050565b6000600282049050600182168061407757607f821691505b6020821081141561408b5761408a6141f2565b5b50919050565b61409a826142ba565b810181811067ffffffffffffffff821117156140b9576140b8614250565b5b80604052505050565b60006140cd82614006565b91507fffffffffffffffffffffffffffffffffffffffffffffffffffffffffffffffff821415614100576140ff614194565b5b600182019050919050565b600061411682614010565b915060ff82141561412a57614129614194565b5b600182019050919050565b600061414082614147565b9050919050565b6000614152826142cb565b9050919050565b6000819050919050565b600061416e82614006565b915061417983614006565b925082614189576141886141c3565b5b828206905092915050565b7f4e487b7100000000000000000000000000000000000000000000000000000000600052601160045260246000fd5b7f4e487b7100000000000000000000000000000000000000000000000000000000600052601260045260246000fd5b7f4e487b7100000000000000000000000000000000000000000000000000000000600052602260045260246000fd5b7f4e487b7100000000000000000000000000000000000000000000000000000000600052603260045260246000fd5b7f4e487b7100000000000000000000000000000000000000000000000000000000600052604160045260246000fd5b600060033d111561429e5760046000803e61429b6000516142d8565b90505b90565b600080fd5b600080fd5b600080fd5b600080fd5b600080fd5b6000601f19601f8301169050919050565b60008160601b9050919050565b60008160e01c9050919050565b7f455243313135353a207472616e7366657220746f206e6f6e204552433131353560008201527f526563656976657220696d706c656d656e746572000000000000000000000000602082015250565b7f455243313135353a204552433131353552656365697665722072656a6563746560008201527f6420746f6b656e73000000000000000000000000000000000000000000000000602082015250565b7f455243313135353a2062616c616e636520717565727920666f7220746865207a60008201527f65726f2061646472657373000000000000000000000000000000000000000000602082015250565b7f4f776e61626c653a206e6577206f776e657220697320746865207a65726f206160008201527f6464726573730000000000000000000000000000000000000000000000000000602082015250565b7f455243313135353a206275726e20616d6f756e7420657863656564732062616c60008201527f616e636500000000000000000000000000000000000000000000000000000000602082015250565b7f455243313135353a2063616c6c6572206973206e6f74206f776e6572206e6f7260008201527f20617070726f7665640000000000000000000000000000000000000000000000602082015250565b7f55736572206973206e6f742077686974656c69737465642e0000000000000000600082015250565b7f416c6c206f662074686973206174686c657465206861766520616c726561647960008201527f206265656e206d696e7465642100000000000000000000000000000000000000602082015250565b7f455243313135353a207472616e7366657220746f20746865207a65726f20616460008201527f6472657373000000000000000000000000000000000000000000000000000000602082015250565b7f455243313135353a207472616e736665722063616c6c6572206973206e6f742060008201527f6f776e6572206e6f7220617070726f7665640000000000000000000000000000602082015250565b7f43616e6e6f742073657420757269207477696365000000000000000000000000600082015250565b7f455243313135353a206275726e2066726f6d20746865207a65726f206164647260008201527f6573730000000000000000000000000000000000000000000000000000000000602082015250565b7f455243313135353a20696e73756666696369656e742062616c616e636520666f60008201527f72207472616e7366657200000000000000000000000000000000000000000000602082015250565b7f2e6a736f6e000000000000000000000000000000000000000000000000000000600082015250565b7f4f776e61626c653a2063616c6c6572206973206e6f7420746865206f776e6572600082015250565b7f5061636b2068617320616c7265616479206265656e206275726e6564206f722060008201527f646f6573206e6f742065786973742e0000000000000000000000000000000000602082015250565b7f416c6c207061636b73206861766520616c7265616479206265656e206d696e7460008201527f6564210000000000000000000000000000000000000000000000000000000000602082015250565b7f5061636b73206172656e277420726561647920746f206f70656e207965742100600082015250565b7f43616e206f6e6c79206d696e74206f6e652073746172746572207061636b207060008201527f6572206163636f756e7400000000000000000000000000000000000000000000602082015250565b7f455243313135353a2073657474696e6720617070726f76616c2073746174757360008201527f20666f722073656c660000000000000000000000000000000000000000000000602082015250565b7f455243313135353a206163636f756e747320616e6420696473206c656e67746860008201527f206d69736d617463680000000000000000000000000000000000000000000000602082015250565b7f455243313135353a2069647320616e6420616d6f756e7473206c656e6774682060008201527f6d69736d61746368000000000000000000000000000000000000000000000000602082015250565b7f455243313135353a206d696e7420746f20746865207a65726f2061646472657360008201527f7300000000000000000000000000000000000000000000000000000000000000602082015250565b600060443d1015614950576149d3565b614958613d05565b60043d036004823e80513d602482011167ffffffffffffffff821117156149805750506149d3565b808201805167ffffffffffffffff81111561499e57505050506149d3565b80602083010160043d0385018111156149bb5750505050506149d3565b6149ca82602001850186614091565b82955050505050505b90565b6149df81613f9c565b81146149ea57600080fd5b50565b6149f681613fae565b8114614a0157600080fd5b50565b614a0d81613fba565b8114614a1857600080fd5b50565b614a2481614006565b8114614a2f57600080fd5b5056fea264697066735822122059147c7ccdab4bf7327f5e5715c022d147714602186e45d85c008d9a506a1bde64736f6c63430008070033",
  "linkReferences": {},
  "deployedLinkReferences": {}
}