{
  "_format": "hh-sol-artifact-1",
  "contractName": "GameItems",
  "sourceName": "contracts/GameItems.sol",
  "abi": [
    {
      "inputs": [],
      "stateMutability": "nonpayable",
      "type": "constructor"
    },
    {
      "anonymous": false,
      "inputs": [
        {
          "indexed": true,
          "internalType": "address",
          "name": "account",
          "type": "address"
        },
        {
          "indexed": true,
          "internalType": "address",
          "name": "operator",
          "type": "address"
        },
        {
          "indexed": false,
          "internalType": "bool",
          "name": "approved",
          "type": "bool"
        }
      ],
      "name": "ApprovalForAll",
      "type": "event"
    },
    {
      "anonymous": false,
      "inputs": [
        {
          "indexed": true,
          "internalType": "address",
          "name": "previousOwner",
          "type": "address"
        },
        {
          "indexed": true,
          "internalType": "address",
          "name": "newOwner",
          "type": "address"
        }
      ],
      "name": "OwnershipTransferred",
      "type": "event"
    },
    {
      "anonymous": false,
      "inputs": [
        {
          "indexed": true,
          "internalType": "address",
          "name": "operator",
          "type": "address"
        },
        {
          "indexed": true,
          "internalType": "address",
          "name": "from",
          "type": "address"
        },
        {
          "indexed": true,
          "internalType": "address",
          "name": "to",
          "type": "address"
        },
        {
          "indexed": false,
          "internalType": "uint256[]",
          "name": "ids",
          "type": "uint256[]"
        },
        {
          "indexed": false,
          "internalType": "uint256[]",
          "name": "values",
          "type": "uint256[]"
        }
      ],
      "name": "TransferBatch",
      "type": "event"
    },
    {
      "anonymous": false,
      "inputs": [
        {
          "indexed": true,
          "internalType": "address",
          "name": "operator",
          "type": "address"
        },
        {
          "indexed": true,
          "internalType": "address",
          "name": "from",
          "type": "address"
        },
        {
          "indexed": true,
          "internalType": "address",
          "name": "to",
          "type": "address"
        },
        {
          "indexed": false,
          "internalType": "uint256",
          "name": "id",
          "type": "uint256"
        },
        {
          "indexed": false,
          "internalType": "uint256",
          "name": "value",
          "type": "uint256"
        }
      ],
      "name": "TransferSingle",
      "type": "event"
    },
    {
      "anonymous": false,
      "inputs": [
        {
          "indexed": false,
          "internalType": "string",
          "name": "value",
          "type": "string"
        },
        {
          "indexed": true,
          "internalType": "uint256",
          "name": "id",
          "type": "uint256"
        }
      ],
      "name": "URI",
      "type": "event"
    },
    {
      "anonymous": false,
      "inputs": [
        {
          "indexed": false,
          "internalType": "address",
          "name": "user",
          "type": "address"
        },
        {
          "indexed": false,
          "internalType": "uint256",
          "name": "id",
          "type": "uint256"
        }
      ],
      "name": "packMinted",
      "type": "event"
    },
    {
      "inputs": [],
      "name": "REVEAL_TIMESTAMP",
      "outputs": [
        {
          "internalType": "uint256",
          "name": "",
          "type": "uint256"
        }
      ],
      "stateMutability": "view",
      "type": "function"
    },
    {
      "inputs": [
        {
          "internalType": "address",
          "name": "account",
          "type": "address"
        },
        {
          "internalType": "uint256",
          "name": "id",
          "type": "uint256"
        }
      ],
      "name": "balanceOf",
      "outputs": [
        {
          "internalType": "uint256",
          "name": "",
          "type": "uint256"
        }
      ],
      "stateMutability": "view",
      "type": "function"
    },
    {
      "inputs": [
        {
          "internalType": "address[]",
          "name": "accounts",
          "type": "address[]"
        },
        {
          "internalType": "uint256[]",
          "name": "ids",
          "type": "uint256[]"
        }
      ],
      "name": "balanceOfBatch",
      "outputs": [
        {
          "internalType": "uint256[]",
          "name": "",
          "type": "uint256[]"
        }
      ],
      "stateMutability": "view",
      "type": "function"
    },
    {
      "inputs": [
        {
          "internalType": "uint256",
          "name": "packId",
          "type": "uint256"
        }
      ],
      "name": "burnPack",
      "outputs": [],
      "stateMutability": "nonpayable",
      "type": "function"
    },
    {
      "inputs": [],
      "name": "emergencySetStartingIndexBlock",
      "outputs": [],
      "stateMutability": "nonpayable",
      "type": "function"
    },
    {
      "inputs": [],
      "name": "getNFTPerAthlete",
      "outputs": [
        {
          "internalType": "uint256",
          "name": "",
          "type": "uint256"
        }
      ],
      "stateMutability": "view",
      "type": "function"
    },
    {
      "inputs": [
        {
          "internalType": "address",
          "name": "account",
          "type": "address"
        },
        {
          "internalType": "address",
          "name": "operator",
          "type": "address"
        }
      ],
      "name": "isApprovedForAll",
      "outputs": [
        {
          "internalType": "bool",
          "name": "",
          "type": "bool"
        }
      ],
      "stateMutability": "view",
      "type": "function"
    },
    {
      "inputs": [],
      "name": "mintAthlete",
      "outputs": [],
      "stateMutability": "payable",
      "type": "function"
    },
    {
      "inputs": [
        {
          "internalType": "uint256",
          "name": "initialSupply",
          "type": "uint256"
        }
      ],
      "name": "mintCurrency",
      "outputs": [],
      "stateMutability": "nonpayable",
      "type": "function"
    },
    {
      "inputs": [],
      "name": "mintPack",
      "outputs": [],
      "stateMutability": "nonpayable",
      "type": "function"
    },
    {
      "inputs": [],
      "name": "owner",
      "outputs": [
        {
          "internalType": "address",
          "name": "",
          "type": "address"
        }
      ],
      "stateMutability": "view",
      "type": "function"
    },
    {
      "inputs": [],
      "name": "packsReadyToOpen",
      "outputs": [
        {
          "internalType": "bool",
          "name": "",
          "type": "bool"
        }
      ],
      "stateMutability": "view",
      "type": "function"
    },
    {
      "inputs": [],
      "name": "renounceOwnership",
      "outputs": [],
      "stateMutability": "nonpayable",
      "type": "function"
    },
    {
      "inputs": [
        {
          "internalType": "address",
          "name": "from",
          "type": "address"
        },
        {
          "internalType": "address",
          "name": "to",
          "type": "address"
        },
        {
          "internalType": "uint256[]",
          "name": "ids",
          "type": "uint256[]"
        },
        {
          "internalType": "uint256[]",
          "name": "amounts",
          "type": "uint256[]"
        },
        {
          "internalType": "bytes",
          "name": "data",
          "type": "bytes"
        }
      ],
      "name": "safeBatchTransferFrom",
      "outputs": [],
      "stateMutability": "nonpayable",
      "type": "function"
    },
    {
      "inputs": [
        {
          "internalType": "address",
          "name": "from",
          "type": "address"
        },
        {
          "internalType": "address",
          "name": "to",
          "type": "address"
        },
        {
          "internalType": "uint256",
          "name": "id",
          "type": "uint256"
        },
        {
          "internalType": "uint256",
          "name": "amount",
          "type": "uint256"
        },
        {
          "internalType": "bytes",
          "name": "data",
          "type": "bytes"
        }
      ],
      "name": "safeTransferFrom",
      "outputs": [],
      "stateMutability": "nonpayable",
      "type": "function"
    },
    {
      "inputs": [
        {
          "internalType": "address",
          "name": "operator",
          "type": "address"
        },
        {
          "internalType": "bool",
          "name": "approved",
          "type": "bool"
        }
      ],
      "name": "setApprovalForAll",
      "outputs": [],
      "stateMutability": "nonpayable",
      "type": "function"
    },
    {
      "inputs": [],
      "name": "setPacksReady",
      "outputs": [],
      "stateMutability": "nonpayable",
      "type": "function"
    },
    {
      "inputs": [
        {
          "internalType": "string",
          "name": "provenanceHash",
          "type": "string"
        }
      ],
      "name": "setProvenanceHash",
      "outputs": [],
      "stateMutability": "nonpayable",
      "type": "function"
    },
    {
      "inputs": [],
      "name": "setStartingIndex",
      "outputs": [],
      "stateMutability": "nonpayable",
      "type": "function"
    },
    {
      "inputs": [
        {
          "internalType": "uint256",
          "name": "tokenId",
          "type": "uint256"
        },
        {
          "internalType": "string",
          "name": "uri",
          "type": "string"
        }
      ],
      "name": "setTokenUri",
      "outputs": [],
      "stateMutability": "nonpayable",
      "type": "function"
    },
    {
      "inputs": [],
      "name": "startingIndex",
      "outputs": [
        {
          "internalType": "uint256",
          "name": "",
          "type": "uint256"
        }
      ],
      "stateMutability": "view",
      "type": "function"
    },
    {
      "inputs": [],
      "name": "startingIndexBlock",
      "outputs": [
        {
          "internalType": "uint256",
          "name": "",
          "type": "uint256"
        }
      ],
      "stateMutability": "view",
      "type": "function"
    },
    {
      "inputs": [
        {
          "internalType": "bytes4",
          "name": "interfaceId",
          "type": "bytes4"
        }
      ],
      "name": "supportsInterface",
      "outputs": [
        {
          "internalType": "bool",
          "name": "",
          "type": "bool"
        }
      ],
      "stateMutability": "view",
      "type": "function"
    },
    {
      "inputs": [
        {
          "internalType": "address",
          "name": "from",
          "type": "address"
        },
        {
          "internalType": "address",
          "name": "to",
          "type": "address"
        },
        {
          "internalType": "uint256",
          "name": "amount",
          "type": "uint256"
        },
        {
          "internalType": "bytes",
          "name": "data",
          "type": "bytes"
        }
      ],
      "name": "transferCurrency",
      "outputs": [],
      "stateMutability": "nonpayable",
      "type": "function"
    },
    {
      "inputs": [
        {
          "internalType": "address",
          "name": "newOwner",
          "type": "address"
        }
      ],
      "name": "transferOwnership",
      "outputs": [],
      "stateMutability": "nonpayable",
      "type": "function"
    },
    {
      "inputs": [
        {
          "internalType": "uint256",
          "name": "tokenId",
          "type": "uint256"
        }
      ],
      "name": "uri",
      "outputs": [
        {
          "internalType": "string",
          "name": "",
          "type": "string"
        }
      ],
      "stateMutability": "view",
      "type": "function"
    }
  ],
  "bytecode": "0x608060405260405180608001604052806044815260200162004ab160449139600590805190602001906200003592919062000324565b506003600655600a60075560405180608001604052806056815260200162004a5b60569139600890805190602001906200007192919062000324565b5060006009556000600a60006101000a81548160ff021916908315150217905550612710600b556000600c5560405180602001604052806000815250600f9080519060200190620000c492919062000324565b50348015620000d257600080fd5b5060405180602001604052806000815250620000f4816200016e60201b60201c565b5062000115620001096200018a60201b60201c565b6200019260201b60201c565b620001606040518060400160405280601281526020017f4d616b696e6720636f6e74726163742e2e2e00000000000000000000000000008152506200025860201b6200153b1760201c565b6000600b8190555062000501565b80600290805190602001906200018692919062000324565b5050565b600033905090565b6000600360009054906101000a900473ffffffffffffffffffffffffffffffffffffffff16905081600360006101000a81548173ffffffffffffffffffffffffffffffffffffffff021916908373ffffffffffffffffffffffffffffffffffffffff1602179055508173ffffffffffffffffffffffffffffffffffffffff168173ffffffffffffffffffffffffffffffffffffffff167f8be0079c531659141344cd1fd0a4f28419497f9722a3daafe3b4186f6b6457e060405160405180910390a35050565b620002f8816040516024016200026f919062000415565b6040516020818303038152906040527f41304fac000000000000000000000000000000000000000000000000000000007bffffffffffffffffffffffffffffffffffffffffffffffffffffffff19166020820180517bffffffffffffffffffffffffffffffffffffffffffffffffffffffff8381831617835250505050620002fb60201b60201c565b50565b60008151905060006a636f6e736f6c652e6c6f679050602083016000808483855afa5050505050565b82805462000332906200048b565b90600052602060002090601f016020900481019282620003565760008555620003a2565b82601f106200037157805160ff1916838001178555620003a2565b82800160010185558215620003a2579182015b82811115620003a157825182559160200191906001019062000384565b5b509050620003b19190620003b5565b5090565b5b80821115620003d0576000816000905550600101620003b6565b5090565b6000620003e18262000439565b620003ed818562000444565b9350620003ff81856020860162000455565b6200040a81620004f0565b840191505092915050565b60006020820190508181036000830152620004318184620003d4565b905092915050565b600081519050919050565b600082825260208201905092915050565b60005b838110156200047557808201518184015260208101905062000458565b8381111562000485576000848401525b50505050565b60006002820490506001821680620004a457607f821691505b60208210811415620004bb57620004ba620004c1565b5b50919050565b7f4e487b7100000000000000000000000000000000000000000000000000000000600052602260045260246000fd5b6000601f19601f8301169050919050565b61454a80620005116000396000f3fe6080604052600436106101805760003560e01c8063715018a6116100d1578063cb774d471161008a578063e986655011610064578063e986655014610514578063f242432a1461052b578063f2fde38b14610554578063faa8d4381461057d57610180565b8063cb774d4714610481578063e36d6498146104ac578063e985e9c5146104d757610180565b8063715018a6146103bd578063722676e2146103d45780637d17fcbe146103eb5780638da5cb5b14610402578063a22cb4651461042d578063be59ec261461045657610180565b806318e20a381161013e5780631c0d84fc116101185780631c0d84fc146103245780632eb2c2d61461032e5780634e1273f41461035757806357f7789e1461039457610180565b806318e20a38146102b957806319b60439146102e457806319bfbb9e146102fb57610180565b8062fdd58e1461018557806301ffc9a7146101c25780630e89341c146101ff5780631072b91f1461023c5780631096952314610265578063143cc1441461028e575b600080fd5b34801561019157600080fd5b506101ac60048036038101906101a79190612e55565b6105a6565b6040516101b9919061390d565b60405180910390f35b3480156101ce57600080fd5b506101e960048036038101906101e49190612efd565b61066f565b6040516101f69190613670565b60405180910390f35b34801561020b57600080fd5b5061022660048036038101906102219190612f90565b610751565b604051610233919061368b565b60405180910390f35b34801561024857600080fd5b50610263600480360381019061025e9190612f90565b6107f6565b005b34801561027157600080fd5b5061028c60048036038101906102879190612f4f565b61082d565b005b34801561029a57600080fd5b506102a36108c3565b6040516102b0919061390d565b60405180910390f35b3480156102c557600080fd5b506102ce610949565b6040516102db919061390d565b60405180910390f35b3480156102f057600080fd5b506102f961094f565b005b34801561030757600080fd5b50610322600480360381019061031d9190612d0f565b6109f7565b005b61032c610a0b565b005b34801561033a57600080fd5b5061035560048036038101906103509190612c50565b610b1f565b005b34801561036357600080fd5b5061037e60048036038101906103799190612e91565b610bc0565b60405161038b9190613617565b60405180910390f35b3480156103a057600080fd5b506103bb60048036038101906103b69190612fb9565b610d71565b005b3480156103c957600080fd5b506103d2610e19565b005b3480156103e057600080fd5b506103e9610ea1565b005b3480156103f757600080fd5b5061040061101f565b005b34801561040e57600080fd5b506104176110e9565b6040516104249190613511565b60405180910390f35b34801561043957600080fd5b50610454600480360381019061044f9190612e19565b611113565b005b34801561046257600080fd5b5061046b611129565b6040516104789190613670565b60405180910390f35b34801561048d57600080fd5b5061049661113c565b6040516104a3919061390d565b60405180910390f35b3480156104b857600080fd5b506104c1611142565b6040516104ce919061390d565b60405180910390f35b3480156104e357600080fd5b506104fe60048036038101906104f99190612c14565b611148565b60405161050b9190613670565b60405180910390f35b34801561052057600080fd5b506105296111dc565b005b34801561053757600080fd5b50610552600480360381019061054d9190612d8a565b61131f565b005b34801561056057600080fd5b5061057b60048036038101906105769190612beb565b6113c0565b005b34801561058957600080fd5b506105a4600480360381019061059f9190612f90565b6114b8565b005b60008073ffffffffffffffffffffffffffffffffffffffff168373ffffffffffffffffffffffffffffffffffffffff161415610617576040517f08c379a000000000000000000000000000000000000000000000000000000000815260040161060e906136ed565b60405180910390fd5b60008083815260200190815260200160002060008473ffffffffffffffffffffffffffffffffffffffff1673ffffffffffffffffffffffffffffffffffffffff16815260200190815260200160002054905092915050565b60007fd9b67a26000000000000000000000000000000000000000000000000000000007bffffffffffffffffffffffffffffffffffffffffffffffffffffffff1916827bffffffffffffffffffffffffffffffffffffffffffffffffffffffff1916148061073a57507f0e89341c000000000000000000000000000000000000000000000000000000007bffffffffffffffffffffffffffffffffffffffffffffffffffffffff1916827bffffffffffffffffffffffffffffffffffffffffffffffffffffffff1916145b8061074a5750610749826115d4565b5b9050919050565b606060106000838152602001908152602001600020805461077190613c8c565b80601f016020809104026020016040519081016040528092919081815260200182805461079d90613c8c565b80156107ea5780601f106107bf576101008083540402835291602001916107ea565b820191906000526020600020905b8154815290600101906020018083116107cd57829003601f168201915b50505050509050919050565b6000610802600461163e565b905061081f3382846040518060200160405280600081525061164c565b61082960046117e2565b5050565b6108356117f8565b73ffffffffffffffffffffffffffffffffffffffff166108536110e9565b73ffffffffffffffffffffffffffffffffffffffff16146108a9576040517f08c379a00000000000000000000000000000000000000000000000000000000081526004016108a09061380d565b60405180910390fd5b80600f90805190602001906108bf9291906128e3565b5050565b60006108cd6117f8565b73ffffffffffffffffffffffffffffffffffffffff166108eb6110e9565b73ffffffffffffffffffffffffffffffffffffffff1614610941576040517f08c379a00000000000000000000000000000000000000000000000000000000081526004016109389061380d565b60405180910390fd5b600754905090565b600b5481565b6109576117f8565b73ffffffffffffffffffffffffffffffffffffffff166109756110e9565b73ffffffffffffffffffffffffffffffffffffffff16146109cb576040517f08c379a00000000000000000000000000000000000000000000000000000000081526004016109c29061380d565b60405180910390fd5b600a60009054906101000a900460ff1615600a60006101000a81548160ff021916908315150217905550565b610a0584846000858561131f565b50505050565b6000600654600c54610a1d9190613d38565b9050600754600654610a2f9190613b48565b600c541015610ae057610a7a338260016040518060400160405280600481526020017f307830300000000000000000000000000000000000000000000000000000000081525061164c565b610ac5600c546005610aa06001610a91600461163e565b610a9b9190613ac1565b611800565b604051602001610ab19291906134d7565b604051602081830303815290604052610d71565b6001600c6000828254610ad89190613ac1565b925050819055505b6000600d54148015610b0f5750600754600654610afd9190613b48565b600c541480610b0e5750600b544210155b5b15610b1c5743600d819055505b50565b610b276117f8565b73ffffffffffffffffffffffffffffffffffffffff168573ffffffffffffffffffffffffffffffffffffffff161480610b6d5750610b6c85610b676117f8565b611148565b5b610bac576040517f08c379a0000000000000000000000000000000000000000000000000000000008152600401610ba3906137ad565b60405180910390fd5b610bb985858585856119ad565b5050505050565b60608151835114610c06576040517f08c379a0000000000000000000000000000000000000000000000000000000008152600401610bfd906138ad565b60405180910390fd5b6000835167ffffffffffffffff811115610c49577f4e487b7100000000000000000000000000000000000000000000000000000000600052604160045260246000fd5b604051908082528060200260200182016040528015610c775781602001602082028036833780820191505090505b50905060005b8451811015610d6657610d10858281518110610cc2577f4e487b7100000000000000000000000000000000000000000000000000000000600052603260045260246000fd5b6020026020010151858381518110610d03577f4e487b7100000000000000000000000000000000000000000000000000000000600052603260045260246000fd5b60200260200101516105a6565b828281518110610d49577f4e487b7100000000000000000000000000000000000000000000000000000000600052603260045260246000fd5b60200260200101818152505080610d5f90613cef565b9050610c7d565b508091505092915050565b610d796117f8565b73ffffffffffffffffffffffffffffffffffffffff16610d976110e9565b73ffffffffffffffffffffffffffffffffffffffff1614610ded576040517f08c379a0000000000000000000000000000000000000000000000000000000008152600401610de49061380d565b60405180910390fd5b80601060008481526020019081526020016000209080519060200190610e149291906128e3565b505050565b610e216117f8565b73ffffffffffffffffffffffffffffffffffffffff16610e3f6110e9565b73ffffffffffffffffffffffffffffffffffffffff1614610e95576040517f08c379a0000000000000000000000000000000000000000000000000000000008152600401610e8c9061380d565b60405180910390fd5b610e9f6000611d0d565b565b610ea96117f8565b73ffffffffffffffffffffffffffffffffffffffff16610ec76110e9565b73ffffffffffffffffffffffffffffffffffffffff1614610f1d576040517f08c379a0000000000000000000000000000000000000000000000000000000008152600401610f149061380d565b60405180910390fd5b600a60095410610f62576040517f08c379a0000000000000000000000000000000000000000000000000000000008152600401610f599061384d565b60405180910390fd5b6000610f6e600461163e565b9050610f8c338260016040518060200160405280600081525061164c565b610fb6816008604051602001610fa291906134c0565b604051602081830303815290604052610d71565b600160096000828254610fc99190613ac1565b925050819055507f2e0f4d63dcc00e6a11c8aef9f6e15c1f9cd6e9a090b2dd99c7b797f1a28d300d33610ffc600461163e565b60405161100a9291906135ee565b60405180910390a161101c60046117e2565b50565b6110276117f8565b73ffffffffffffffffffffffffffffffffffffffff166110456110e9565b73ffffffffffffffffffffffffffffffffffffffff161461109b576040517f08c379a00000000000000000000000000000000000000000000000000000000081526004016110929061380d565b60405180910390fd5b6000600e54146110e0576040517f08c379a00000000000000000000000000000000000000000000000000000000081526004016110d79061376d565b60405180910390fd5b43600d81905550565b6000600360009054906101000a900473ffffffffffffffffffffffffffffffffffffffff16905090565b61112561111e6117f8565b8383611dd3565b5050565b600a60009054906101000a900460ff1681565b600e5481565b600d5481565b6000600160008473ffffffffffffffffffffffffffffffffffffffff1673ffffffffffffffffffffffffffffffffffffffff16815260200190815260200160002060008373ffffffffffffffffffffffffffffffffffffffff1673ffffffffffffffffffffffffffffffffffffffff16815260200190815260200160002060009054906101000a900460ff16905092915050565b6000600e5414611221576040517f08c379a00000000000000000000000000000000000000000000000000000000081526004016112189061376d565b60405180910390fd5b6000600d541415611267576040517f08c379a000000000000000000000000000000000000000000000000000000000815260040161125e9061386d565b60405180910390fd5b60036007546006546112799190613b48565b6112839190613b48565b600d544060001c6112949190613d38565b600e8190555060ff6112b1600d5443611f4090919063ffffffff16565b11156112f55760036007546006546112c99190613b48565b6112d39190613b48565b6001436112e09190613ba2565b4060001c6112ee9190613d38565b600e819055505b6000600e54141561131d576113166001600e54611f5690919063ffffffff16565b600e819055505b565b6113276117f8565b73ffffffffffffffffffffffffffffffffffffffff168573ffffffffffffffffffffffffffffffffffffffff16148061136d575061136c856113676117f8565b611148565b5b6113ac576040517f08c379a00000000000000000000000000000000000000000000000000000000081526004016113a39061374d565b60405180910390fd5b6113b98585858585611f6c565b5050505050565b6113c86117f8565b73ffffffffffffffffffffffffffffffffffffffff166113e66110e9565b73ffffffffffffffffffffffffffffffffffffffff161461143c576040517f08c379a00000000000000000000000000000000000000000000000000000000081526004016114339061380d565b60405180910390fd5b600073ffffffffffffffffffffffffffffffffffffffff168173ffffffffffffffffffffffffffffffffffffffff1614156114ac576040517f08c379a00000000000000000000000000000000000000000000000000000000081526004016114a39061370d565b60405180910390fd5b6114b581611d0d565b50565b60006114c433836105a6565b11611504576040517f08c379a00000000000000000000000000000000000000000000000000000000081526004016114fb9061382d565b60405180910390fd5b611510338260016121ee565b60005b600381101561153757611524610a0b565b808061152f90613cef565b915050611513565b5050565b6115d18160405160240161154f919061368b565b6040516020818303038152906040527f41304fac000000000000000000000000000000000000000000000000000000007bffffffffffffffffffffffffffffffffffffffffffffffffffffffff19166020820180517bffffffffffffffffffffffffffffffffffffffffffffffffffffffff838183161783525050505061240b565b50565b60007f01ffc9a7000000000000000000000000000000000000000000000000000000007bffffffffffffffffffffffffffffffffffffffffffffffffffffffff1916827bffffffffffffffffffffffffffffffffffffffffffffffffffffffff1916149050919050565b600081600001549050919050565b600073ffffffffffffffffffffffffffffffffffffffff168473ffffffffffffffffffffffffffffffffffffffff1614156116bc576040517f08c379a00000000000000000000000000000000000000000000000000000000081526004016116b3906138ed565b60405180910390fd5b60006116c66117f8565b90506116e7816000876116d888612434565b6116e188612434565b876124fa565b8260008086815260200190815260200160002060008773ffffffffffffffffffffffffffffffffffffffff1673ffffffffffffffffffffffffffffffffffffffff16815260200190815260200160002060008282546117469190613ac1565b925050819055508473ffffffffffffffffffffffffffffffffffffffff16600073ffffffffffffffffffffffffffffffffffffffff168273ffffffffffffffffffffffffffffffffffffffff167fc3d58168c5ae7397731d063d5bbf3d657854427343f4c083240f7aacaa2d0f6287876040516117c4929190613928565b60405180910390a46117db81600087878787612502565b5050505050565b6001816000016000828254019250508190555050565b600033905090565b60606000821415611848576040518060400160405280600181526020017f300000000000000000000000000000000000000000000000000000000000000081525090506119a8565b600082905060005b6000821461187a57808061186390613cef565b915050600a826118739190613b17565b9150611850565b60008167ffffffffffffffff8111156118bc577f4e487b7100000000000000000000000000000000000000000000000000000000600052604160045260246000fd5b6040519080825280601f01601f1916602001820160405280156118ee5781602001600182028036833780820191505090505b5090505b600085146119a1576001826119079190613ba2565b9150600a856119169190613d38565b60306119229190613ac1565b60f81b81838151811061195e577f4e487b7100000000000000000000000000000000000000000000000000000000600052603260045260246000fd5b60200101907effffffffffffffffffffffffffffffffffffffffffffffffffffffffffffff1916908160001a905350600a8561199a9190613b17565b94506118f2565b8093505050505b919050565b81518351146119f1576040517f08c379a00000000000000000000000000000000000000000000000000000000081526004016119e8906138cd565b60405180910390fd5b600073ffffffffffffffffffffffffffffffffffffffff168473ffffffffffffffffffffffffffffffffffffffff161415611a61576040517f08c379a0000000000000000000000000000000000000000000000000000000008152600401611a589061378d565b60405180910390fd5b6000611a6b6117f8565b9050611a7b8187878787876124fa565b60005b8451811015611c78576000858281518110611ac2577f4e487b7100000000000000000000000000000000000000000000000000000000600052603260045260246000fd5b602002602001015190506000858381518110611b07577f4e487b7100000000000000000000000000000000000000000000000000000000600052603260045260246000fd5b60200260200101519050600080600084815260200190815260200160002060008b73ffffffffffffffffffffffffffffffffffffffff1673ffffffffffffffffffffffffffffffffffffffff16815260200190815260200160002054905081811015611ba8576040517f08c379a0000000000000000000000000000000000000000000000000000000008152600401611b9f906137ed565b60405180910390fd5b81810360008085815260200190815260200160002060008c73ffffffffffffffffffffffffffffffffffffffff1673ffffffffffffffffffffffffffffffffffffffff168152602001908152602001600020819055508160008085815260200190815260200160002060008b73ffffffffffffffffffffffffffffffffffffffff1673ffffffffffffffffffffffffffffffffffffffff1681526020019081526020016000206000828254611c5d9190613ac1565b9250508190555050505080611c7190613cef565b9050611a7e565b508473ffffffffffffffffffffffffffffffffffffffff168673ffffffffffffffffffffffffffffffffffffffff168273ffffffffffffffffffffffffffffffffffffffff167f4a39dc06d4c0dbc64b70af90fd698a233a518aa5d07e595d983b8c0526c8f7fb8787604051611cef929190613639565b60405180910390a4611d058187878787876126e9565b505050505050565b6000600360009054906101000a900473ffffffffffffffffffffffffffffffffffffffff16905081600360006101000a81548173ffffffffffffffffffffffffffffffffffffffff021916908373ffffffffffffffffffffffffffffffffffffffff1602179055508173ffffffffffffffffffffffffffffffffffffffff168173ffffffffffffffffffffffffffffffffffffffff167f8be0079c531659141344cd1fd0a4f28419497f9722a3daafe3b4186f6b6457e060405160405180910390a35050565b8173ffffffffffffffffffffffffffffffffffffffff168373ffffffffffffffffffffffffffffffffffffffff161415611e42576040517f08c379a0000000000000000000000000000000000000000000000000000000008152600401611e399061388d565b60405180910390fd5b80600160008573ffffffffffffffffffffffffffffffffffffffff1673ffffffffffffffffffffffffffffffffffffffff16815260200190815260200160002060008473ffffffffffffffffffffffffffffffffffffffff1673ffffffffffffffffffffffffffffffffffffffff16815260200190815260200160002060006101000a81548160ff0219169083151502179055508173ffffffffffffffffffffffffffffffffffffffff168373ffffffffffffffffffffffffffffffffffffffff167f17307eab39ab6107e8899845ad3d59bd9653f200f220920489ca2b5937696c3183604051611f339190613670565b60405180910390a3505050565b60008183611f4e9190613ba2565b905092915050565b60008183611f649190613ac1565b905092915050565b600073ffffffffffffffffffffffffffffffffffffffff168473ffffffffffffffffffffffffffffffffffffffff161415611fdc576040517f08c379a0000000000000000000000000000000000000000000000000000000008152600401611fd39061378d565b60405180910390fd5b6000611fe66117f8565b9050612006818787611ff788612434565b61200088612434565b876124fa565b600080600086815260200190815260200160002060008873ffffffffffffffffffffffffffffffffffffffff1673ffffffffffffffffffffffffffffffffffffffff1681526020019081526020016000205490508381101561209d576040517f08c379a0000000000000000000000000000000000000000000000000000000008152600401612094906137ed565b60405180910390fd5b83810360008087815260200190815260200160002060008973ffffffffffffffffffffffffffffffffffffffff1673ffffffffffffffffffffffffffffffffffffffff168152602001908152602001600020819055508360008087815260200190815260200160002060008873ffffffffffffffffffffffffffffffffffffffff1673ffffffffffffffffffffffffffffffffffffffff16815260200190815260200160002060008282546121529190613ac1565b925050819055508573ffffffffffffffffffffffffffffffffffffffff168773ffffffffffffffffffffffffffffffffffffffff168373ffffffffffffffffffffffffffffffffffffffff167fc3d58168c5ae7397731d063d5bbf3d657854427343f4c083240f7aacaa2d0f6288886040516121cf929190613928565b60405180910390a46121e5828888888888612502565b50505050505050565b600073ffffffffffffffffffffffffffffffffffffffff168373ffffffffffffffffffffffffffffffffffffffff16141561225e576040517f08c379a0000000000000000000000000000000000000000000000000000000008152600401612255906137cd565b60405180910390fd5b60006122686117f8565b90506122988185600061227a87612434565b61228387612434565b604051806020016040528060008152506124fa565b600080600085815260200190815260200160002060008673ffffffffffffffffffffffffffffffffffffffff1673ffffffffffffffffffffffffffffffffffffffff1681526020019081526020016000205490508281101561232f576040517f08c379a00000000000000000000000000000000000000000000000000000000081526004016123269061372d565b60405180910390fd5b82810360008086815260200190815260200160002060008773ffffffffffffffffffffffffffffffffffffffff1673ffffffffffffffffffffffffffffffffffffffff16815260200190815260200160002081905550600073ffffffffffffffffffffffffffffffffffffffff168573ffffffffffffffffffffffffffffffffffffffff168373ffffffffffffffffffffffffffffffffffffffff167fc3d58168c5ae7397731d063d5bbf3d657854427343f4c083240f7aacaa2d0f6287876040516123fc929190613928565b60405180910390a45050505050565b60008151905060006a636f6e736f6c652e6c6f679050602083016000808483855afa5050505050565b60606000600167ffffffffffffffff811115612479577f4e487b7100000000000000000000000000000000000000000000000000000000600052604160045260246000fd5b6040519080825280602002602001820160405280156124a75781602001602082028036833780820191505090505b50905082816000815181106124e5577f4e487b7100000000000000000000000000000000000000000000000000000000600052603260045260246000fd5b60200260200101818152505080915050919050565b505050505050565b6125218473ffffffffffffffffffffffffffffffffffffffff166128d0565b156126e1578373ffffffffffffffffffffffffffffffffffffffff1663f23a6e6187878686866040518663ffffffff1660e01b8152600401612567959493929190613594565b602060405180830381600087803b15801561258157600080fd5b505af19250505080156125b257506040513d601f19601f820116820180604052508101906125af9190612f26565b60015b612658576125be613e25565b806308c379a0141561261b57506125d3614422565b806125de575061261d565b806040517f08c379a0000000000000000000000000000000000000000000000000000000008152600401612612919061368b565b60405180910390fd5b505b6040517f08c379a000000000000000000000000000000000000000000000000000000000815260040161264f906136ad565b60405180910390fd5b63f23a6e6160e01b7bffffffffffffffffffffffffffffffffffffffffffffffffffffffff1916817bffffffffffffffffffffffffffffffffffffffffffffffffffffffff1916146126df576040517f08c379a00000000000000000000000000000000000000000000000000000000081526004016126d6906136cd565b60405180910390fd5b505b505050505050565b6127088473ffffffffffffffffffffffffffffffffffffffff166128d0565b156128c8578373ffffffffffffffffffffffffffffffffffffffff1663bc197c8187878686866040518663ffffffff1660e01b815260040161274e95949392919061352c565b602060405180830381600087803b15801561276857600080fd5b505af192505050801561279957506040513d601f19601f820116820180604052508101906127969190612f26565b60015b61283f576127a5613e25565b806308c379a0141561280257506127ba614422565b806127c55750612804565b806040517f08c379a00000000000000000000000000000000000000000000000000000000081526004016127f9919061368b565b60405180910390fd5b505b6040517f08c379a0000000000000000000000000000000000000000000000000000000008152600401612836906136ad565b60405180910390fd5b63bc197c8160e01b7bffffffffffffffffffffffffffffffffffffffffffffffffffffffff1916817bffffffffffffffffffffffffffffffffffffffffffffffffffffffff1916146128c6576040517f08c379a00000000000000000000000000000000000000000000000000000000081526004016128bd906136cd565b60405180910390fd5b505b505050505050565b600080823b905060008111915050919050565b8280546128ef90613c8c565b90600052602060002090601f0160209004810192826129115760008555612958565b82601f1061292a57805160ff1916838001178555612958565b82800160010185558215612958579182015b8281111561295757825182559160200191906001019061293c565b5b5090506129659190612969565b5090565b5b8082111561298257600081600090555060010161296a565b5090565b600061299961299484613976565b613951565b905080838252602082019050828560208602820111156129b857600080fd5b60005b858110156129e857816129ce8882612ada565b8452602084019350602083019250506001810190506129bb565b5050509392505050565b6000612a05612a00846139a2565b613951565b90508083825260208201905082856020860282011115612a2457600080fd5b60005b85811015612a545781612a3a8882612bd6565b845260208401935060208301925050600181019050612a27565b5050509392505050565b6000612a71612a6c846139ce565b613951565b905082815260208101848484011115612a8957600080fd5b612a94848285613c4a565b509392505050565b6000612aaf612aaa846139ff565b613951565b905082815260208101848484011115612ac757600080fd5b612ad2848285613c4a565b509392505050565b600081359050612ae9816144b8565b92915050565b600082601f830112612b0057600080fd5b8135612b10848260208601612986565b91505092915050565b600082601f830112612b2a57600080fd5b8135612b3a8482602086016129f2565b91505092915050565b600081359050612b52816144cf565b92915050565b600081359050612b67816144e6565b92915050565b600081519050612b7c816144e6565b92915050565b600082601f830112612b9357600080fd5b8135612ba3848260208601612a5e565b91505092915050565b600082601f830112612bbd57600080fd5b8135612bcd848260208601612a9c565b91505092915050565b600081359050612be5816144fd565b92915050565b600060208284031215612bfd57600080fd5b6000612c0b84828501612ada565b91505092915050565b60008060408385031215612c2757600080fd5b6000612c3585828601612ada565b9250506020612c4685828601612ada565b9150509250929050565b600080600080600060a08688031215612c6857600080fd5b6000612c7688828901612ada565b9550506020612c8788828901612ada565b945050604086013567ffffffffffffffff811115612ca457600080fd5b612cb088828901612b19565b935050606086013567ffffffffffffffff811115612ccd57600080fd5b612cd988828901612b19565b925050608086013567ffffffffffffffff811115612cf657600080fd5b612d0288828901612b82565b9150509295509295909350565b60008060008060808587031215612d2557600080fd5b6000612d3387828801612ada565b9450506020612d4487828801612ada565b9350506040612d5587828801612bd6565b925050606085013567ffffffffffffffff811115612d7257600080fd5b612d7e87828801612b82565b91505092959194509250565b600080600080600060a08688031215612da257600080fd5b6000612db088828901612ada565b9550506020612dc188828901612ada565b9450506040612dd288828901612bd6565b9350506060612de388828901612bd6565b925050608086013567ffffffffffffffff811115612e0057600080fd5b612e0c88828901612b82565b9150509295509295909350565b60008060408385031215612e2c57600080fd5b6000612e3a85828601612ada565b9250506020612e4b85828601612b43565b9150509250929050565b60008060408385031215612e6857600080fd5b6000612e7685828601612ada565b9250506020612e8785828601612bd6565b9150509250929050565b60008060408385031215612ea457600080fd5b600083013567ffffffffffffffff811115612ebe57600080fd5b612eca85828601612aef565b925050602083013567ffffffffffffffff811115612ee757600080fd5b612ef385828601612b19565b9150509250929050565b600060208284031215612f0f57600080fd5b6000612f1d84828501612b58565b91505092915050565b600060208284031215612f3857600080fd5b6000612f4684828501612b6d565b91505092915050565b600060208284031215612f6157600080fd5b600082013567ffffffffffffffff811115612f7b57600080fd5b612f8784828501612bac565b91505092915050565b600060208284031215612fa257600080fd5b6000612fb084828501612bd6565b91505092915050565b60008060408385031215612fcc57600080fd5b6000612fda85828601612bd6565b925050602083013567ffffffffffffffff811115612ff757600080fd5b61300385828601612bac565b9150509250929050565b600061301983836134a2565b60208301905092915050565b61302e81613bd6565b82525050565b600061303f82613a55565b6130498185613a83565b935061305483613a30565b8060005b8381101561308557815161306c888261300d565b975061307783613a76565b925050600181019050613058565b5085935050505092915050565b61309b81613be8565b82525050565b60006130ac82613a60565b6130b68185613a94565b93506130c6818560208601613c59565b6130cf81613e47565b840191505092915050565b60006130e582613a6b565b6130ef8185613aa5565b93506130ff818560208601613c59565b61310881613e47565b840191505092915050565b600061311e82613a6b565b6131288185613ab6565b9350613138818560208601613c59565b80840191505092915050565b6000815461315181613c8c565b61315b8186613ab6565b945060018216600081146131765760018114613187576131ba565b60ff198316865281860193506131ba565b61319085613a40565b60005b838110156131b257815481890152600182019150602081019050613193565b838801955050505b50505092915050565b60006131d0603483613aa5565b91506131db82613e65565b604082019050919050565b60006131f3602883613aa5565b91506131fe82613eb4565b604082019050919050565b6000613216602b83613aa5565b915061322182613f03565b604082019050919050565b6000613239602683613aa5565b915061324482613f52565b604082019050919050565b600061325c602483613aa5565b915061326782613fa1565b604082019050919050565b600061327f602983613aa5565b915061328a82613ff0565b604082019050919050565b60006132a2601d83613aa5565b91506132ad8261403f565b602082019050919050565b60006132c5602583613aa5565b91506132d082614068565b604082019050919050565b60006132e8603283613aa5565b91506132f3826140b7565b604082019050919050565b600061330b602383613aa5565b915061331682614106565b604082019050919050565b600061332e602a83613aa5565b915061333982614155565b604082019050919050565b6000613351600583613ab6565b915061335c826141a4565b600582019050919050565b6000613374600783613ab6565b915061337f826141cd565b600782019050919050565b6000613397602083613aa5565b91506133a2826141f6565b602082019050919050565b60006133ba602f83613aa5565b91506133c58261421f565b604082019050919050565b60006133dd602383613aa5565b91506133e88261426e565b604082019050919050565b6000613400602083613aa5565b915061340b826142bd565b602082019050919050565b6000613423602983613aa5565b915061342e826142e6565b604082019050919050565b6000613446602983613aa5565b915061345182614335565b604082019050919050565b6000613469602883613aa5565b915061347482614384565b604082019050919050565b600061348c602183613aa5565b9150613497826143d3565b604082019050919050565b6134ab81613c40565b82525050565b6134ba81613c40565b82525050565b60006134cc8284613144565b915081905092915050565b60006134e38285613144565b91506134ee82613367565b91506134fa8284613113565b915061350582613344565b91508190509392505050565b60006020820190506135266000830184613025565b92915050565b600060a0820190506135416000830188613025565b61354e6020830187613025565b81810360408301526135608186613034565b905081810360608301526135748185613034565b9050818103608083015261358881846130a1565b90509695505050505050565b600060a0820190506135a96000830188613025565b6135b66020830187613025565b6135c360408301866134b1565b6135d060608301856134b1565b81810360808301526135e281846130a1565b90509695505050505050565b60006040820190506136036000830185613025565b61361060208301846134b1565b9392505050565b600060208201905081810360008301526136318184613034565b905092915050565b600060408201905081810360008301526136538185613034565b905081810360208301526136678184613034565b90509392505050565b60006020820190506136856000830184613092565b92915050565b600060208201905081810360008301526136a581846130da565b905092915050565b600060208201905081810360008301526136c6816131c3565b9050919050565b600060208201905081810360008301526136e6816131e6565b9050919050565b6000602082019050818103600083015261370681613209565b9050919050565b600060208201905081810360008301526137268161322c565b9050919050565b600060208201905081810360008301526137468161324f565b9050919050565b6000602082019050818103600083015261376681613272565b9050919050565b6000602082019050818103600083015261378681613295565b9050919050565b600060208201905081810360008301526137a6816132b8565b9050919050565b600060208201905081810360008301526137c6816132db565b9050919050565b600060208201905081810360008301526137e6816132fe565b9050919050565b6000602082019050818103600083015261380681613321565b9050919050565b600060208201905081810360008301526138268161338a565b9050919050565b60006020820190508181036000830152613846816133ad565b9050919050565b60006020820190508181036000830152613866816133d0565b9050919050565b60006020820190508181036000830152613886816133f3565b9050919050565b600060208201905081810360008301526138a681613416565b9050919050565b600060208201905081810360008301526138c681613439565b9050919050565b600060208201905081810360008301526138e68161345c565b9050919050565b600060208201905081810360008301526139068161347f565b9050919050565b600060208201905061392260008301846134b1565b92915050565b600060408201905061393d60008301856134b1565b61394a60208301846134b1565b9392505050565b600061395b61396c565b90506139678282613cbe565b919050565b6000604051905090565b600067ffffffffffffffff82111561399157613990613df6565b5b602082029050602081019050919050565b600067ffffffffffffffff8211156139bd576139bc613df6565b5b602082029050602081019050919050565b600067ffffffffffffffff8211156139e9576139e8613df6565b5b6139f282613e47565b9050602081019050919050565b600067ffffffffffffffff821115613a1a57613a19613df6565b5b613a2382613e47565b9050602081019050919050565b6000819050602082019050919050565b60008190508160005260206000209050919050565b600081519050919050565b600081519050919050565b600081519050919050565b6000602082019050919050565b600082825260208201905092915050565b600082825260208201905092915050565b600082825260208201905092915050565b600081905092915050565b6000613acc82613c40565b9150613ad783613c40565b9250827fffffffffffffffffffffffffffffffffffffffffffffffffffffffffffffffff03821115613b0c57613b0b613d69565b5b828201905092915050565b6000613b2282613c40565b9150613b2d83613c40565b925082613b3d57613b3c613d98565b5b828204905092915050565b6000613b5382613c40565b9150613b5e83613c40565b9250817fffffffffffffffffffffffffffffffffffffffffffffffffffffffffffffffff0483118215151615613b9757613b96613d69565b5b828202905092915050565b6000613bad82613c40565b9150613bb883613c40565b925082821015613bcb57613bca613d69565b5b828203905092915050565b6000613be182613c20565b9050919050565b60008115159050919050565b60007fffffffff0000000000000000000000000000000000000000000000000000000082169050919050565b600073ffffffffffffffffffffffffffffffffffffffff82169050919050565b6000819050919050565b82818337600083830152505050565b60005b83811015613c77578082015181840152602081019050613c5c565b83811115613c86576000848401525b50505050565b60006002820490506001821680613ca457607f821691505b60208210811415613cb857613cb7613dc7565b5b50919050565b613cc782613e47565b810181811067ffffffffffffffff82111715613ce657613ce5613df6565b5b80604052505050565b6000613cfa82613c40565b91507fffffffffffffffffffffffffffffffffffffffffffffffffffffffffffffffff821415613d2d57613d2c613d69565b5b600182019050919050565b6000613d4382613c40565b9150613d4e83613c40565b925082613d5e57613d5d613d98565b5b828206905092915050565b7f4e487b7100000000000000000000000000000000000000000000000000000000600052601160045260246000fd5b7f4e487b7100000000000000000000000000000000000000000000000000000000600052601260045260246000fd5b7f4e487b7100000000000000000000000000000000000000000000000000000000600052602260045260246000fd5b7f4e487b7100000000000000000000000000000000000000000000000000000000600052604160045260246000fd5b600060033d1115613e445760046000803e613e41600051613e58565b90505b90565b6000601f19601f8301169050919050565b60008160e01c9050919050565b7f455243313135353a207472616e7366657220746f206e6f6e204552433131353560008201527f526563656976657220696d706c656d656e746572000000000000000000000000602082015250565b7f455243313135353a204552433131353552656365697665722072656a6563746560008201527f6420746f6b656e73000000000000000000000000000000000000000000000000602082015250565b7f455243313135353a2062616c616e636520717565727920666f7220746865207a60008201527f65726f2061646472657373000000000000000000000000000000000000000000602082015250565b7f4f776e61626c653a206e6577206f776e657220697320746865207a65726f206160008201527f6464726573730000000000000000000000000000000000000000000000000000602082015250565b7f455243313135353a206275726e20616d6f756e7420657863656564732062616c60008201527f616e636500000000000000000000000000000000000000000000000000000000602082015250565b7f455243313135353a2063616c6c6572206973206e6f74206f776e6572206e6f7260008201527f20617070726f7665640000000000000000000000000000000000000000000000602082015250565b7f5374617274696e6720696e64657820697320616c726561647920736574000000600082015250565b7f455243313135353a207472616e7366657220746f20746865207a65726f20616460008201527f6472657373000000000000000000000000000000000000000000000000000000602082015250565b7f455243313135353a207472616e736665722063616c6c6572206973206e6f742060008201527f6f776e6572206e6f7220617070726f7665640000000000000000000000000000602082015250565b7f455243313135353a206275726e2066726f6d20746865207a65726f206164647260008201527f6573730000000000000000000000000000000000000000000000000000000000602082015250565b7f455243313135353a20696e73756666696369656e742062616c616e636520666f60008201527f72207472616e7366657200000000000000000000000000000000000000000000602082015250565b7f2e6a736f6e000000000000000000000000000000000000000000000000000000600082015250565b7f6174686c65746500000000000000000000000000000000000000000000000000600082015250565b7f4f776e61626c653a2063616c6c6572206973206e6f7420746865206f776e6572600082015250565b7f5061636b2068617320616c7265616479206265656e206275726e6564206f722060008201527f646f6573206e6f742065786973742e0000000000000000000000000000000000602082015250565b7f416c6c207061636b73206861766520616c7265616479206265656e206d696e7460008201527f6564210000000000000000000000000000000000000000000000000000000000602082015250565b7f5374617274696e6720696e64657820626c6f636b206d75737420626520736574600082015250565b7f455243313135353a2073657474696e6720617070726f76616c2073746174757360008201527f20666f722073656c660000000000000000000000000000000000000000000000602082015250565b7f455243313135353a206163636f756e747320616e6420696473206c656e67746860008201527f206d69736d617463680000000000000000000000000000000000000000000000602082015250565b7f455243313135353a2069647320616e6420616d6f756e7473206c656e6774682060008201527f6d69736d61746368000000000000000000000000000000000000000000000000602082015250565b7f455243313135353a206d696e7420746f20746865207a65726f2061646472657360008201527f7300000000000000000000000000000000000000000000000000000000000000602082015250565b600060443d1015614432576144b5565b61443a61396c565b60043d036004823e80513d602482011167ffffffffffffffff821117156144625750506144b5565b808201805167ffffffffffffffff81111561448057505050506144b5565b80602083010160043d03850181111561449d5750505050506144b5565b6144ac82602001850186613cbe565b82955050505050505b90565b6144c181613bd6565b81146144cc57600080fd5b50565b6144d881613be8565b81146144e357600080fd5b50565b6144ef81613bf4565b81146144fa57600080fd5b50565b61450681613c40565b811461451157600080fd5b5056fea26469706673582212203f974d5e3a8d35a00c9f74bfea03b73d1d4e45640902c53ddac9020713c7748a64736f6c6343000802003368747470733a2f2f697066732e696f2f697066732f516d573448457a33397a647a4644696744613138537a77537a55656a4366326934644e334c6574667a61723667483f66696c656e616d653d7061636b2e6a736f6e68747470733a2f2f697066732e696f2f697066732f516d56774e654d615538416442374533554b774b4439465970584434764c696d76326b51316646424d4b44464e742f",
  "linkReferences": {},
  "deployedLinkReferences": {}
}