{
  "_format": "hh-sol-artifact-1",
  "contractName": "GameItems",
  "sourceName": "contracts/GameItems.sol",
  "abi": [
    {
      "inputs": [
        {
          "internalType": "uint256",
          "name": "_numAthletes",
          "type": "uint256"
        },
        {
          "internalType": "uint256",
          "name": "_nftPerAthlete",
          "type": "uint256"
        },
        {
          "internalType": "uint256",
          "name": "_starterPackSize",
          "type": "uint256"
        },
        {
          "internalType": "uint256",
          "name": "_boosterPackSize",
          "type": "uint256"
        },
        {
          "internalType": "uint256",
          "name": "_maxStarterPackBalance",
          "type": "uint256"
        },
        {
          "internalType": "uint256",
          "name": "_maxBoosterPackBalance",
          "type": "uint256"
        },
        {
          "internalType": "uint256",
          "name": "_maxPacks",
          "type": "uint256"
        },
        {
          "internalType": "string",
          "name": "_athleteURI",
          "type": "string"
        },
        {
          "internalType": "string",
          "name": "_starterPackURI",
          "type": "string"
        },
        {
          "internalType": "string",
          "name": "_boosterPackURI",
          "type": "string"
        },
        {
          "internalType": "uint256",
          "name": "_revealTimestamp",
          "type": "uint256"
        }
      ],
      "stateMutability": "nonpayable",
      "type": "constructor"
    },
    {
      "anonymous": false,
      "inputs": [
        {
          "indexed": true,
          "internalType": "address",
          "name": "account",
          "type": "address"
        },
        {
          "indexed": true,
          "internalType": "address",
          "name": "operator",
          "type": "address"
        },
        {
          "indexed": false,
          "internalType": "bool",
          "name": "approved",
          "type": "bool"
        }
      ],
      "name": "ApprovalForAll",
      "type": "event"
    },
    {
      "anonymous": false,
      "inputs": [
        {
          "indexed": true,
          "internalType": "address",
          "name": "previousOwner",
          "type": "address"
        },
        {
          "indexed": true,
          "internalType": "address",
          "name": "newOwner",
          "type": "address"
        }
      ],
      "name": "OwnershipTransferred",
      "type": "event"
    },
    {
      "anonymous": false,
      "inputs": [
        {
          "indexed": true,
          "internalType": "address",
          "name": "operator",
          "type": "address"
        },
        {
          "indexed": true,
          "internalType": "address",
          "name": "from",
          "type": "address"
        },
        {
          "indexed": true,
          "internalType": "address",
          "name": "to",
          "type": "address"
        },
        {
          "indexed": false,
          "internalType": "uint256[]",
          "name": "ids",
          "type": "uint256[]"
        },
        {
          "indexed": false,
          "internalType": "uint256[]",
          "name": "values",
          "type": "uint256[]"
        }
      ],
      "name": "TransferBatch",
      "type": "event"
    },
    {
      "anonymous": false,
      "inputs": [
        {
          "indexed": true,
          "internalType": "address",
          "name": "operator",
          "type": "address"
        },
        {
          "indexed": true,
          "internalType": "address",
          "name": "from",
          "type": "address"
        },
        {
          "indexed": true,
          "internalType": "address",
          "name": "to",
          "type": "address"
        },
        {
          "indexed": false,
          "internalType": "uint256",
          "name": "id",
          "type": "uint256"
        },
        {
          "indexed": false,
          "internalType": "uint256",
          "name": "value",
          "type": "uint256"
        }
      ],
      "name": "TransferSingle",
      "type": "event"
    },
    {
      "anonymous": false,
      "inputs": [
        {
          "indexed": false,
          "internalType": "string",
          "name": "value",
          "type": "string"
        },
        {
          "indexed": true,
          "internalType": "uint256",
          "name": "id",
          "type": "uint256"
        }
      ],
      "name": "URI",
      "type": "event"
    },
    {
      "anonymous": false,
      "inputs": [
        {
          "indexed": false,
          "internalType": "address",
          "name": "user",
          "type": "address"
        },
        {
          "indexed": false,
          "internalType": "uint256",
          "name": "id",
          "type": "uint256"
        }
      ],
      "name": "packMinted",
      "type": "event"
    },
    {
      "inputs": [],
      "name": "REVEAL_TIMESTAMP",
      "outputs": [
        {
          "internalType": "uint256",
          "name": "",
          "type": "uint256"
        }
      ],
      "stateMutability": "view",
      "type": "function"
    },
    {
      "inputs": [
        {
          "internalType": "address",
          "name": "account",
          "type": "address"
        },
        {
          "internalType": "uint256",
          "name": "id",
          "type": "uint256"
        }
      ],
      "name": "balanceOf",
      "outputs": [
        {
          "internalType": "uint256",
          "name": "",
          "type": "uint256"
        }
      ],
      "stateMutability": "view",
      "type": "function"
    },
    {
      "inputs": [
        {
          "internalType": "address[]",
          "name": "accounts",
          "type": "address[]"
        },
        {
          "internalType": "uint256[]",
          "name": "ids",
          "type": "uint256[]"
        }
      ],
      "name": "balanceOfBatch",
      "outputs": [
        {
          "internalType": "uint256[]",
          "name": "",
          "type": "uint256[]"
        }
      ],
      "stateMutability": "view",
      "type": "function"
    },
    {
      "inputs": [],
      "name": "burnBoosterPack",
      "outputs": [],
      "stateMutability": "nonpayable",
      "type": "function"
    },
    {
      "inputs": [],
      "name": "burnStarterPack",
      "outputs": [],
      "stateMutability": "nonpayable",
      "type": "function"
    },
    {
      "inputs": [],
      "name": "emergencySetStartingIndexBlock",
      "outputs": [],
      "stateMutability": "nonpayable",
      "type": "function"
    },
    {
      "inputs": [],
      "name": "getNFTPerAthlete",
      "outputs": [
        {
          "internalType": "uint256",
          "name": "",
          "type": "uint256"
        }
      ],
      "stateMutability": "view",
      "type": "function"
    },
    {
      "inputs": [
        {
          "internalType": "address",
          "name": "account",
          "type": "address"
        },
        {
          "internalType": "address",
          "name": "operator",
          "type": "address"
        }
      ],
      "name": "isApprovedForAll",
      "outputs": [
        {
          "internalType": "bool",
          "name": "",
          "type": "bool"
        }
      ],
      "stateMutability": "view",
      "type": "function"
    },
    {
      "inputs": [],
      "name": "mintBoosterPack",
      "outputs": [],
      "stateMutability": "nonpayable",
      "type": "function"
    },
    {
      "inputs": [
        {
          "internalType": "uint256",
          "name": "initialSupply",
          "type": "uint256"
        }
      ],
      "name": "mintCurrency",
      "outputs": [],
      "stateMutability": "nonpayable",
      "type": "function"
    },
    {
      "inputs": [],
      "name": "mintStarterPack",
      "outputs": [],
      "stateMutability": "nonpayable",
      "type": "function"
    },
    {
      "inputs": [],
      "name": "owner",
      "outputs": [
        {
          "internalType": "address",
          "name": "",
          "type": "address"
        }
      ],
      "stateMutability": "view",
      "type": "function"
    },
    {
      "inputs": [],
      "name": "packsReadyToOpen",
      "outputs": [
        {
          "internalType": "bool",
          "name": "",
          "type": "bool"
        }
      ],
      "stateMutability": "view",
      "type": "function"
    },
    {
      "inputs": [],
      "name": "renounceOwnership",
      "outputs": [],
      "stateMutability": "nonpayable",
      "type": "function"
    },
    {
      "inputs": [
        {
          "internalType": "address",
          "name": "from",
          "type": "address"
        },
        {
          "internalType": "address",
          "name": "to",
          "type": "address"
        },
        {
          "internalType": "uint256[]",
          "name": "ids",
          "type": "uint256[]"
        },
        {
          "internalType": "uint256[]",
          "name": "amounts",
          "type": "uint256[]"
        },
        {
          "internalType": "bytes",
          "name": "data",
          "type": "bytes"
        }
      ],
      "name": "safeBatchTransferFrom",
      "outputs": [],
      "stateMutability": "nonpayable",
      "type": "function"
    },
    {
      "inputs": [
        {
          "internalType": "address",
          "name": "from",
          "type": "address"
        },
        {
          "internalType": "address",
          "name": "to",
          "type": "address"
        },
        {
          "internalType": "uint256",
          "name": "id",
          "type": "uint256"
        },
        {
          "internalType": "uint256",
          "name": "amount",
          "type": "uint256"
        },
        {
          "internalType": "bytes",
          "name": "data",
          "type": "bytes"
        }
      ],
      "name": "safeTransferFrom",
      "outputs": [],
      "stateMutability": "nonpayable",
      "type": "function"
    },
    {
      "inputs": [
        {
          "internalType": "address",
          "name": "operator",
          "type": "address"
        },
        {
          "internalType": "bool",
          "name": "approved",
          "type": "bool"
        }
      ],
      "name": "setApprovalForAll",
      "outputs": [],
      "stateMutability": "nonpayable",
      "type": "function"
    },
    {
      "inputs": [],
      "name": "setPacksReady",
      "outputs": [],
      "stateMutability": "nonpayable",
      "type": "function"
    },
    {
      "inputs": [
        {
          "internalType": "string",
          "name": "provenanceHash",
          "type": "string"
        }
      ],
      "name": "setProvenanceHash",
      "outputs": [],
      "stateMutability": "nonpayable",
      "type": "function"
    },
    {
      "inputs": [],
      "name": "setStartingIndex",
      "outputs": [],
      "stateMutability": "nonpayable",
      "type": "function"
    },
    {
      "inputs": [
        {
          "internalType": "uint256",
          "name": "tokenId",
          "type": "uint256"
        },
        {
          "internalType": "string",
          "name": "uri",
          "type": "string"
        }
      ],
      "name": "setTokenUri",
      "outputs": [],
      "stateMutability": "nonpayable",
      "type": "function"
    },
    {
      "inputs": [],
      "name": "setURIs",
      "outputs": [],
      "stateMutability": "nonpayable",
      "type": "function"
    },
    {
      "inputs": [],
      "name": "startingIndex",
      "outputs": [
        {
          "internalType": "uint256",
          "name": "",
          "type": "uint256"
        }
      ],
      "stateMutability": "view",
      "type": "function"
    },
    {
      "inputs": [],
      "name": "startingIndexBlock",
      "outputs": [
        {
          "internalType": "uint256",
          "name": "",
          "type": "uint256"
        }
      ],
      "stateMutability": "view",
      "type": "function"
    },
    {
      "inputs": [
        {
          "internalType": "bytes4",
          "name": "interfaceId",
          "type": "bytes4"
        }
      ],
      "name": "supportsInterface",
      "outputs": [
        {
          "internalType": "bool",
          "name": "",
          "type": "bool"
        }
      ],
      "stateMutability": "view",
      "type": "function"
    },
    {
      "inputs": [
        {
          "internalType": "address",
          "name": "from",
          "type": "address"
        },
        {
          "internalType": "address",
          "name": "to",
          "type": "address"
        },
        {
          "internalType": "uint256",
          "name": "amount",
          "type": "uint256"
        },
        {
          "internalType": "bytes",
          "name": "data",
          "type": "bytes"
        }
      ],
      "name": "transferCurrency",
      "outputs": [],
      "stateMutability": "nonpayable",
      "type": "function"
    },
    {
      "inputs": [
        {
          "internalType": "address",
          "name": "newOwner",
          "type": "address"
        }
      ],
      "name": "transferOwnership",
      "outputs": [],
      "stateMutability": "nonpayable",
      "type": "function"
    },
    {
      "inputs": [
        {
          "internalType": "uint256",
          "name": "tokenId",
          "type": "uint256"
        }
      ],
      "name": "uri",
      "outputs": [
        {
          "internalType": "string",
          "name": "",
          "type": "string"
        }
      ],
      "stateMutability": "view",
      "type": "function"
    }
  ],
  "bytecode": "0x6080604052612710600f556001601060006101000a81548160ff0219169083151502179055506005546011556011546012556040518060400160405280601581526020017f68747470733a2f2f697066732e696f2f697066732f0000000000000000000000815250601690805190602001906200007e929190620003b1565b506040518060200160405280600081525060199080519060200190620000a6929190620003b1565b50348015620000b457600080fd5b50604051620055a7380380620055a78339818101604052810190620000da9190620004ea565b60405180602001604052806000815250620000fb81620001fb60201b60201c565b506200011c620001106200021760201b60201c565b6200021f60201b60201c565b620001676040518060400160405280601281526020017f4d616b696e6720636f6e74726163742e2e2e0000000000000000000000000000815250620002e560201b6200186d1760201c565b8a6005819055508960068190555088600781905550876008819055508660098190555085600a8190555084600b8190555083600c9080519060200190620001b0929190620003b1565b5082600d9080519060200190620001c9929190620003b1565b5081600e9080519060200190620001e2929190620003b1565b5080600f81905550505050505050505050505062000851565b806002908051906020019062000213929190620003b1565b5050565b600033905090565b6000600360009054906101000a900473ffffffffffffffffffffffffffffffffffffffff16905081600360006101000a81548173ffffffffffffffffffffffffffffffffffffffff021916908373ffffffffffffffffffffffffffffffffffffffff1602179055508173ffffffffffffffffffffffffffffffffffffffff168173ffffffffffffffffffffffffffffffffffffffff167f8be0079c531659141344cd1fd0a4f28419497f9722a3daafe3b4186f6b6457e060405160405180910390a35050565b6200038581604051602401620002fc91906200067d565b6040516020818303038152906040527f41304fac000000000000000000000000000000000000000000000000000000007bffffffffffffffffffffffffffffffffffffffffffffffffffffffff19166020820180517bffffffffffffffffffffffffffffffffffffffffffffffffffffffff83818316178352505050506200038860201b60201c565b50565b60008151905060006a636f6e736f6c652e6c6f679050602083016000808483855afa5050505050565b828054620003bf906200075c565b90600052602060002090601f016020900481019282620003e357600085556200042f565b82601f10620003fe57805160ff19168380011785556200042f565b828001600101855582156200042f579182015b828111156200042e57825182559160200191906001019062000411565b5b5090506200043e919062000442565b5090565b5b808211156200045d57600081600090555060010162000443565b5090565b6000620004786200047284620006ca565b620006a1565b9050828152602081018484840111156200049157600080fd5b6200049e84828562000726565b509392505050565b600082601f830112620004b857600080fd5b8151620004ca84826020860162000461565b91505092915050565b600081519050620004e48162000837565b92915050565b60008060008060008060008060008060006101608c8e0312156200050d57600080fd5b60006200051d8e828f01620004d3565b9b50506020620005308e828f01620004d3565b9a50506040620005438e828f01620004d3565b9950506060620005568e828f01620004d3565b9850506080620005698e828f01620004d3565b97505060a06200057c8e828f01620004d3565b96505060c06200058f8e828f01620004d3565b95505060e08c015167ffffffffffffffff811115620005ad57600080fd5b620005bb8e828f01620004a6565b9450506101008c015167ffffffffffffffff811115620005da57600080fd5b620005e88e828f01620004a6565b9350506101208c015167ffffffffffffffff8111156200060757600080fd5b620006158e828f01620004a6565b925050610140620006298e828f01620004d3565b9150509295989b509295989b9093969950565b6000620006498262000700565b6200065581856200070b565b93506200066781856020860162000726565b620006728162000826565b840191505092915050565b600060208201905081810360008301526200069981846200063c565b905092915050565b6000620006ad620006c0565b9050620006bb828262000792565b919050565b6000604051905090565b600067ffffffffffffffff821115620006e857620006e7620007f7565b5b620006f38262000826565b9050602081019050919050565b600081519050919050565b600082825260208201905092915050565b6000819050919050565b60005b838110156200074657808201518184015260208101905062000729565b8381111562000756576000848401525b50505050565b600060028204905060018216806200077557607f821691505b602082108114156200078c576200078b620007c8565b5b50919050565b6200079d8262000826565b810181811067ffffffffffffffff82111715620007bf57620007be620007f7565b5b80604052505050565b7f4e487b7100000000000000000000000000000000000000000000000000000000600052602260045260246000fd5b7f4e487b7100000000000000000000000000000000000000000000000000000000600052604160045260246000fd5b6000601f19601f8301169050919050565b62000842816200071c565b81146200084e57600080fd5b50565b614d4680620008616000396000f3fe608060405234801561001057600080fd5b50600436106101c35760003560e01c8063715018a6116100f9578063be59ec2611610097578063e985e9c511610071578063e985e9c514610434578063e986655014610464578063f242432a1461046e578063f2fde38b1461048a576101c3565b8063be59ec26146103da578063cb774d47146103f8578063e36d649814610416576101c3565b80638da5cb5b116100d35780638da5cb5b1461038c5780639ebf488b146103aa578063a22cb465146103b4578063bbb13e17146103d0576101c3565b8063715018a61461036e57806375223f92146103785780637d17fcbe14610382576101c3565b806319b60439116101665780634e1273f4116101405780634e1273f41461030e5780634f3551d71461033e57806357f7789e146103485780635d2db2bf14610364576101c3565b806319b60439146102cc57806319bfbb9e146102d65780632eb2c2d6146102f2576101c3565b80631072b91f116101a25780631072b91f146102585780631096952314610274578063143cc1441461029057806318e20a38146102ae576101c3565b8062fdd58e146101c857806301ffc9a7146101f85780630e89341c14610228575b600080fd5b6101e260048036038101906101dd9190613445565b6104a6565b6040516101ef9190614042565b60405180910390f35b610212600480360381019061020d91906134ed565b61056f565b60405161021f9190613cbe565b60405180910390f35b610242600480360381019061023d9190613580565b610651565b60405161024f9190613cd9565b60405180910390f35b610272600480360381019061026d9190613580565b6106f6565b005b61028e6004803603810190610289919061353f565b61072d565b005b6102986107c3565b6040516102a59190614042565b60405180910390f35b6102b6610849565b6040516102c39190614042565b60405180910390f35b6102d461084f565b005b6102f060048036038101906102eb91906132ff565b6108f7565b005b61030c60048036038101906103079190613240565b61090b565b005b61032860048036038101906103239190613481565b6109ac565b6040516103359190613c65565b60405180910390f35b610346610b5d565b005b610362600480360381019061035d91906135a9565b610c80565b005b61036c610d8a565b005b6103766110c9565b005b610380611151565b005b61038a6111fe565b005b6103946112c8565b6040516103a19190613b5f565b60405180910390f35b6103b26112f2565b005b6103ce60048036038101906103c99190613409565b611415565b005b6103d861142b565b005b6103e2611509565b6040516103ef9190613cbe565b60405180910390f35b61040061151c565b60405161040d9190614042565b60405180910390f35b61041e611522565b60405161042b9190614042565b60405180910390f35b61044e60048036038101906104499190613204565b611528565b60405161045b9190613cbe565b60405180910390f35b61046c6115bc565b005b6104886004803603810190610483919061337a565b6116d4565b005b6104a4600480360381019061049f91906131db565b611775565b005b60008073ffffffffffffffffffffffffffffffffffffffff168373ffffffffffffffffffffffffffffffffffffffff161415610517576040517f08c379a000000000000000000000000000000000000000000000000000000000815260040161050e90613dc2565b60405180910390fd5b60008083815260200190815260200160002060008473ffffffffffffffffffffffffffffffffffffffff1673ffffffffffffffffffffffffffffffffffffffff16815260200190815260200160002054905092915050565b60007fd9b67a26000000000000000000000000000000000000000000000000000000007bffffffffffffffffffffffffffffffffffffffffffffffffffffffff1916827bffffffffffffffffffffffffffffffffffffffffffffffffffffffff1916148061063a57507f0e89341c000000000000000000000000000000000000000000000000000000007bffffffffffffffffffffffffffffffffffffffffffffffffffffffff1916827bffffffffffffffffffffffffffffffffffffffffffffffffffffffff1916145b8061064a575061064982611906565b5b9050919050565b6060601a60008381526020019081526020016000208054610671906143c1565b80601f016020809104026020016040519081016040528092919081815260200182805461069d906143c1565b80156106ea5780601f106106bf576101008083540402835291602001916106ea565b820191906000526020600020905b8154815290600101906020018083116106cd57829003601f168201915b50505050509050919050565b60006107026004611970565b905061071f3382846040518060200160405280600081525061197e565b6107296004611b14565b5050565b610735611b2a565b73ffffffffffffffffffffffffffffffffffffffff166107536112c8565b73ffffffffffffffffffffffffffffffffffffffff16146107a9576040517f08c379a00000000000000000000000000000000000000000000000000000000081526004016107a090613f22565b60405180910390fd5b80601990805190602001906107bf929190612ed3565b5050565b60006107cd611b2a565b73ffffffffffffffffffffffffffffffffffffffff166107eb6112c8565b73ffffffffffffffffffffffffffffffffffffffff1614610841576040517f08c379a000000000000000000000000000000000000000000000000000000000815260040161083890613f22565b60405180910390fd5b600654905090565b600f5481565b610857611b2a565b73ffffffffffffffffffffffffffffffffffffffff166108756112c8565b73ffffffffffffffffffffffffffffffffffffffff16146108cb576040517f08c379a00000000000000000000000000000000000000000000000000000000081526004016108c290613f22565b60405180910390fd5b601060009054906101000a900460ff1615601060006101000a81548160ff021916908315150217905550565b6109058484600085856116d4565b50505050565b610913611b2a565b73ffffffffffffffffffffffffffffffffffffffff168573ffffffffffffffffffffffffffffffffffffffff161480610959575061095885610953611b2a565b611528565b5b610998576040517f08c379a000000000000000000000000000000000000000000000000000000000815260040161098f90613ea2565b60405180910390fd5b6109a58585858585611b32565b5050505050565b606081518351146109f2576040517f08c379a00000000000000000000000000000000000000000000000000000000081526004016109e990613fe2565b60405180910390fd5b6000835167ffffffffffffffff811115610a35577f4e487b7100000000000000000000000000000000000000000000000000000000600052604160045260246000fd5b604051908082528060200260200182016040528015610a635781602001602082028036833780820191505090505b50905060005b8451811015610b5257610afc858281518110610aae577f4e487b7100000000000000000000000000000000000000000000000000000000600052603260045260246000fd5b6020026020010151858381518110610aef577f4e487b7100000000000000000000000000000000000000000000000000000000600052603260045260246000fd5b60200260200101516104a6565b828281518110610b35577f4e487b7100000000000000000000000000000000000000000000000000000000600052603260045260246000fd5b60200260200101818152505080610b4b90614424565b9050610a69565b508091505092915050565b600b5460145410610ba3576040517f08c379a0000000000000000000000000000000000000000000000000000000008152600401610b9a90613f62565b60405180910390fd5b6001610bb1336011546104a6565b10610bf1576040517f08c379a0000000000000000000000000000000000000000000000000000000008152600401610be890613fa2565b60405180910390fd5b610c0f3360125460016040518060200160405280600081525061197e565b600160146000828254610c2291906141f6565b92505081905550600160126000828254610c3c91906141f6565b925050819055507f2e0f4d63dcc00e6a11c8aef9f6e15c1f9cd6e9a090b2dd99c7b797f1a28d300d33601454604051610c76929190613c3c565b60405180910390a1565b610c88611b2a565b73ffffffffffffffffffffffffffffffffffffffff16610ca66112c8565b73ffffffffffffffffffffffffffffffffffffffff1614610cfc576040517f08c379a0000000000000000000000000000000000000000000000000000000008152600401610cf390613f22565b60405180910390fd5b6000601a60008481526020019081526020016000208054610d1c906143c1565b905014610d5e576040517f08c379a0000000000000000000000000000000000000000000000000000000008152600401610d5590613ec2565b60405180910390fd5b80601a60008481526020019081526020016000209080519060200190610d85929190612ed3565b505050565b610d92611b2a565b73ffffffffffffffffffffffffffffffffffffffff16610db06112c8565b73ffffffffffffffffffffffffffffffffffffffff1614610e06576040517f08c379a0000000000000000000000000000000000000000000000000000000008152600401610dfd90613f22565b60405180910390fd5b60005b60055481101561101557610e546040518060400160405280601281526020017f5374617274696e6720696e646578206973200000000000000000000000000000815250601854611e92565b610e956040518060400160405280600c81526020017f6e756d206174686c657465730000000000000000000000000000000000000000815250600554611e92565b600060055482601854610ea891906141f6565b610eb2919061446d565b9050610ef36040518060400160405280600b81526020017f6d696e7420696e6465782000000000000000000000000000000000000000000081525082611e92565b610f2781600c610f0284611f2e565b604051602001610f13929190613b30565b604051602081830303815290604052610c80565b6110016040518060400160405280600881526020017f4e65772055524920000000000000000000000000000000000000000000000000815250601a60008481526020019081526020016000208054610f7e906143c1565b80601f0160208091040260200160405190810160405280929190818152602001828054610faa906143c1565b8015610ff75780601f10610fcc57610100808354040283529160200191610ff7565b820191906000526020600020905b815481529060010190602001808311610fda57829003601f168201915b50505050506120db565b50808061100d90614424565b915050610e09565b506110576040518060400160405280601081526020017f6e756d206174686c657465732069732000000000000000000000000000000000815250600554611e92565b61108f600160055461106991906141f6565b600d60405160200161107b9190613b19565b604051602081830303815290604052610c80565b6110c760026005546110a191906141f6565b600e6040516020016110b39190613b19565b604051602081830303815290604052610c80565b565b6110d1611b2a565b73ffffffffffffffffffffffffffffffffffffffff166110ef6112c8565b73ffffffffffffffffffffffffffffffffffffffff1614611145576040517f08c379a000000000000000000000000000000000000000000000000000000000815260040161113c90613f22565b60405180910390fd5b61114f6000612177565b565b601060009054906101000a900460ff166111a0576040517f08c379a000000000000000000000000000000000000000000000000000000000815260040161119790613f82565b60405180910390fd5b60006111ae336012546104a6565b116111ee576040517f08c379a00000000000000000000000000000000000000000000000000000000081526004016111e590613da2565b60405180910390fd5b6111fc33601254600161223d565b565b611206611b2a565b73ffffffffffffffffffffffffffffffffffffffff166112246112c8565b73ffffffffffffffffffffffffffffffffffffffff161461127a576040517f08c379a000000000000000000000000000000000000000000000000000000000815260040161127190613f22565b60405180910390fd5b6000601854146112bf576040517f08c379a00000000000000000000000000000000000000000000000000000000081526004016112b690613e62565b60405180910390fd5b43601781905550565b6000600360009054906101000a900473ffffffffffffffffffffffffffffffffffffffff16905090565b600b5460135410611338576040517f08c379a000000000000000000000000000000000000000000000000000000000815260040161132f90613f62565b60405180910390fd5b6001611346336011546104a6565b10611386576040517f08c379a000000000000000000000000000000000000000000000000000000000815260040161137d90613fa2565b60405180910390fd5b6113a43360115460016040518060200160405280600081525061197e565b6001601360008282546113b791906141f6565b925050819055506001601160008282546113d191906141f6565b925050819055507f2e0f4d63dcc00e6a11c8aef9f6e15c1f9cd6e9a090b2dd99c7b797f1a28d300d3360135460405161140b929190613c3c565b60405180910390a1565b611427611420611b2a565b838361245a565b5050565b601060009054906101000a900460ff1661147a576040517f08c379a000000000000000000000000000000000000000000000000000000000815260040161147190613f82565b60405180910390fd5b6001611488336011546104a6565b146114c8576040517f08c379a00000000000000000000000000000000000000000000000000000000081526004016114bf90613f42565b60405180910390fd5b6114d06115bc565b60005b6007548110156114f8576114e56125c7565b80806114f090614424565b9150506114d3565b5061150733601154600161223d565b565b601060009054906101000a900460ff1681565b60185481565b60175481565b6000600160008473ffffffffffffffffffffffffffffffffffffffff1673ffffffffffffffffffffffffffffffffffffffff16815260200190815260200160002060008373ffffffffffffffffffffffffffffffffffffffff1673ffffffffffffffffffffffffffffffffffffffff16815260200190815260200160002060009054906101000a900460ff16905092915050565b6115c4611b2a565b73ffffffffffffffffffffffffffffffffffffffff166115e26112c8565b73ffffffffffffffffffffffffffffffffffffffff1614611638576040517f08c379a000000000000000000000000000000000000000000000000000000000815260040161162f90613f22565b60405180910390fd5b600654600554611648919061427d565b60014361165591906142d7565b4060001c611663919061446d565b6018819055506116aa6040518060400160405280600f81526020017f5374617274696e6720696e646578200000000000000000000000000000000000815250601854611e92565b600060185414156116d2576116cb600160185461276390919063ffffffff16565b6018819055505b565b6116dc611b2a565b73ffffffffffffffffffffffffffffffffffffffff168573ffffffffffffffffffffffffffffffffffffffff16148061172257506117218561171c611b2a565b611528565b5b611761576040517f08c379a000000000000000000000000000000000000000000000000000000000815260040161175890613e22565b60405180910390fd5b61176e8585858585612779565b5050505050565b61177d611b2a565b73ffffffffffffffffffffffffffffffffffffffff1661179b6112c8565b73ffffffffffffffffffffffffffffffffffffffff16146117f1576040517f08c379a00000000000000000000000000000000000000000000000000000000081526004016117e890613f22565b60405180910390fd5b600073ffffffffffffffffffffffffffffffffffffffff168173ffffffffffffffffffffffffffffffffffffffff161415611861576040517f08c379a000000000000000000000000000000000000000000000000000000000815260040161185890613de2565b60405180910390fd5b61186a81612177565b50565b611903816040516024016118819190613cd9565b6040516020818303038152906040527f41304fac000000000000000000000000000000000000000000000000000000007bffffffffffffffffffffffffffffffffffffffffffffffffffffffff19166020820180517bffffffffffffffffffffffffffffffffffffffffffffffffffffffff83818316178352505050506129fb565b50565b60007f01ffc9a7000000000000000000000000000000000000000000000000000000007bffffffffffffffffffffffffffffffffffffffffffffffffffffffff1916827bffffffffffffffffffffffffffffffffffffffffffffffffffffffff1916149050919050565b600081600001549050919050565b600073ffffffffffffffffffffffffffffffffffffffff168473ffffffffffffffffffffffffffffffffffffffff1614156119ee576040517f08c379a00000000000000000000000000000000000000000000000000000000081526004016119e590614022565b60405180910390fd5b60006119f8611b2a565b9050611a1981600087611a0a88612a24565b611a1388612a24565b87612aea565b8260008086815260200190815260200160002060008773ffffffffffffffffffffffffffffffffffffffff1673ffffffffffffffffffffffffffffffffffffffff1681526020019081526020016000206000828254611a7891906141f6565b925050819055508473ffffffffffffffffffffffffffffffffffffffff16600073ffffffffffffffffffffffffffffffffffffffff168273ffffffffffffffffffffffffffffffffffffffff167fc3d58168c5ae7397731d063d5bbf3d657854427343f4c083240f7aacaa2d0f628787604051611af692919061405d565b60405180910390a4611b0d81600087878787612af2565b5050505050565b6001816000016000828254019250508190555050565b600033905090565b8151835114611b76576040517f08c379a0000000000000000000000000000000000000000000000000000000008152600401611b6d90614002565b60405180910390fd5b600073ffffffffffffffffffffffffffffffffffffffff168473ffffffffffffffffffffffffffffffffffffffff161415611be6576040517f08c379a0000000000000000000000000000000000000000000000000000000008152600401611bdd90613e82565b60405180910390fd5b6000611bf0611b2a565b9050611c00818787878787612aea565b60005b8451811015611dfd576000858281518110611c47577f4e487b7100000000000000000000000000000000000000000000000000000000600052603260045260246000fd5b602002602001015190506000858381518110611c8c577f4e487b7100000000000000000000000000000000000000000000000000000000600052603260045260246000fd5b60200260200101519050600080600084815260200190815260200160002060008b73ffffffffffffffffffffffffffffffffffffffff1673ffffffffffffffffffffffffffffffffffffffff16815260200190815260200160002054905081811015611d2d576040517f08c379a0000000000000000000000000000000000000000000000000000000008152600401611d2490613f02565b60405180910390fd5b81810360008085815260200190815260200160002060008c73ffffffffffffffffffffffffffffffffffffffff1673ffffffffffffffffffffffffffffffffffffffff168152602001908152602001600020819055508160008085815260200190815260200160002060008b73ffffffffffffffffffffffffffffffffffffffff1673ffffffffffffffffffffffffffffffffffffffff1681526020019081526020016000206000828254611de291906141f6565b9250508190555050505080611df690614424565b9050611c03565b508473ffffffffffffffffffffffffffffffffffffffff168673ffffffffffffffffffffffffffffffffffffffff168273ffffffffffffffffffffffffffffffffffffffff167f4a39dc06d4c0dbc64b70af90fd698a233a518aa5d07e595d983b8c0526c8f7fb8787604051611e74929190613c87565b60405180910390a4611e8a818787878787612cd9565b505050505050565b611f2a8282604051602401611ea8929190613d32565b6040516020818303038152906040527f9710a9d0000000000000000000000000000000000000000000000000000000007bffffffffffffffffffffffffffffffffffffffffffffffffffffffff19166020820180517bffffffffffffffffffffffffffffffffffffffffffffffffffffffff83818316178352505050506129fb565b5050565b60606000821415611f76576040518060400160405280600181526020017f300000000000000000000000000000000000000000000000000000000000000081525090506120d6565b600082905060005b60008214611fa8578080611f9190614424565b915050600a82611fa1919061424c565b9150611f7e565b60008167ffffffffffffffff811115611fea577f4e487b7100000000000000000000000000000000000000000000000000000000600052604160045260246000fd5b6040519080825280601f01601f19166020018201604052801561201c5781602001600182028036833780820191505090505b5090505b600085146120cf5760018261203591906142d7565b9150600a85612044919061446d565b603061205091906141f6565b60f81b81838151811061208c577f4e487b7100000000000000000000000000000000000000000000000000000000600052603260045260246000fd5b60200101907effffffffffffffffffffffffffffffffffffffffffffffffffffffffffffff1916908160001a905350600a856120c8919061424c565b9450612020565b8093505050505b919050565b61217382826040516024016120f1929190613cfb565b6040516020818303038152906040527f4b5c4277000000000000000000000000000000000000000000000000000000007bffffffffffffffffffffffffffffffffffffffffffffffffffffffff19166020820180517bffffffffffffffffffffffffffffffffffffffffffffffffffffffff83818316178352505050506129fb565b5050565b6000600360009054906101000a900473ffffffffffffffffffffffffffffffffffffffff16905081600360006101000a81548173ffffffffffffffffffffffffffffffffffffffff021916908373ffffffffffffffffffffffffffffffffffffffff1602179055508173ffffffffffffffffffffffffffffffffffffffff168173ffffffffffffffffffffffffffffffffffffffff167f8be0079c531659141344cd1fd0a4f28419497f9722a3daafe3b4186f6b6457e060405160405180910390a35050565b600073ffffffffffffffffffffffffffffffffffffffff168373ffffffffffffffffffffffffffffffffffffffff1614156122ad576040517f08c379a00000000000000000000000000000000000000000000000000000000081526004016122a490613ee2565b60405180910390fd5b60006122b7611b2a565b90506122e7818560006122c987612a24565b6122d287612a24565b60405180602001604052806000815250612aea565b600080600085815260200190815260200160002060008673ffffffffffffffffffffffffffffffffffffffff1673ffffffffffffffffffffffffffffffffffffffff1681526020019081526020016000205490508281101561237e576040517f08c379a000000000000000000000000000000000000000000000000000000000815260040161237590613e02565b60405180910390fd5b82810360008086815260200190815260200160002060008773ffffffffffffffffffffffffffffffffffffffff1673ffffffffffffffffffffffffffffffffffffffff16815260200190815260200160002081905550600073ffffffffffffffffffffffffffffffffffffffff168573ffffffffffffffffffffffffffffffffffffffff168373ffffffffffffffffffffffffffffffffffffffff167fc3d58168c5ae7397731d063d5bbf3d657854427343f4c083240f7aacaa2d0f62878760405161244b92919061405d565b60405180910390a45050505050565b8173ffffffffffffffffffffffffffffffffffffffff168373ffffffffffffffffffffffffffffffffffffffff1614156124c9576040517f08c379a00000000000000000000000000000000000000000000000000000000081526004016124c090613fc2565b60405180910390fd5b80600160008573ffffffffffffffffffffffffffffffffffffffff1673ffffffffffffffffffffffffffffffffffffffff16815260200190815260200160002060008473ffffffffffffffffffffffffffffffffffffffff1673ffffffffffffffffffffffffffffffffffffffff16815260200190815260200160002060006101000a81548160ff0219169083151502179055508173ffffffffffffffffffffffffffffffffffffffff168373ffffffffffffffffffffffffffffffffffffffff167f17307eab39ab6107e8899845ad3d59bd9653f200f220920489ca2b5937696c31836040516125ba9190613cbe565b60405180910390a3505050565b60006005546015546018546125dc91906141f6565b6125e6919061446d565b90506126296040518060400160405280600e81526020017f5374617274696e6720696e646578000000000000000000000000000000000000815250601854611e92565b6126686040518060400160405280600a81526020017f4d696e7420696e6465780000000000000000000000000000000000000000000081525082611e92565b600654600554612678919061427d565b601554101561276057600654601b600083815260200190815260200160002054106126d8576040517f08c379a00000000000000000000000000000000000000000000000000000000081526004016126cf90613e42565b60405180910390fd5b61271a338260016040518060400160405280600481526020017f307830300000000000000000000000000000000000000000000000000000000081525061197e565b6001601b6000838152602001908152602001600020600082825461273e91906141f6565b9250508190555060016015600082825461275891906141f6565b925050819055505b50565b6000818361277191906141f6565b905092915050565b600073ffffffffffffffffffffffffffffffffffffffff168473ffffffffffffffffffffffffffffffffffffffff1614156127e9576040517f08c379a00000000000000000000000000000000000000000000000000000000081526004016127e090613e82565b60405180910390fd5b60006127f3611b2a565b905061281381878761280488612a24565b61280d88612a24565b87612aea565b600080600086815260200190815260200160002060008873ffffffffffffffffffffffffffffffffffffffff1673ffffffffffffffffffffffffffffffffffffffff168152602001908152602001600020549050838110156128aa576040517f08c379a00000000000000000000000000000000000000000000000000000000081526004016128a190613f02565b60405180910390fd5b83810360008087815260200190815260200160002060008973ffffffffffffffffffffffffffffffffffffffff1673ffffffffffffffffffffffffffffffffffffffff168152602001908152602001600020819055508360008087815260200190815260200160002060008873ffffffffffffffffffffffffffffffffffffffff1673ffffffffffffffffffffffffffffffffffffffff168152602001908152602001600020600082825461295f91906141f6565b925050819055508573ffffffffffffffffffffffffffffffffffffffff168773ffffffffffffffffffffffffffffffffffffffff168373ffffffffffffffffffffffffffffffffffffffff167fc3d58168c5ae7397731d063d5bbf3d657854427343f4c083240f7aacaa2d0f6288886040516129dc92919061405d565b60405180910390a46129f2828888888888612af2565b50505050505050565b60008151905060006a636f6e736f6c652e6c6f679050602083016000808483855afa5050505050565b60606000600167ffffffffffffffff811115612a69577f4e487b7100000000000000000000000000000000000000000000000000000000600052604160045260246000fd5b604051908082528060200260200182016040528015612a975781602001602082028036833780820191505090505b5090508281600081518110612ad5577f4e487b7100000000000000000000000000000000000000000000000000000000600052603260045260246000fd5b60200260200101818152505080915050919050565b505050505050565b612b118473ffffffffffffffffffffffffffffffffffffffff16612ec0565b15612cd1578373ffffffffffffffffffffffffffffffffffffffff1663f23a6e6187878686866040518663ffffffff1660e01b8152600401612b57959493929190613be2565b602060405180830381600087803b158015612b7157600080fd5b505af1925050508015612ba257506040513d601f19601f82011682018060405250810190612b9f9190613516565b60015b612c4857612bae61455a565b806308c379a01415612c0b5750612bc3614c1e565b80612bce5750612c0d565b806040517f08c379a0000000000000000000000000000000000000000000000000000000008152600401612c029190613cd9565b60405180910390fd5b505b6040517f08c379a0000000000000000000000000000000000000000000000000000000008152600401612c3f90613d62565b60405180910390fd5b63f23a6e6160e01b7bffffffffffffffffffffffffffffffffffffffffffffffffffffffff1916817bffffffffffffffffffffffffffffffffffffffffffffffffffffffff191614612ccf576040517f08c379a0000000000000000000000000000000000000000000000000000000008152600401612cc690613d82565b60405180910390fd5b505b505050505050565b612cf88473ffffffffffffffffffffffffffffffffffffffff16612ec0565b15612eb8578373ffffffffffffffffffffffffffffffffffffffff1663bc197c8187878686866040518663ffffffff1660e01b8152600401612d3e959493929190613b7a565b602060405180830381600087803b158015612d5857600080fd5b505af1925050508015612d8957506040513d601f19601f82011682018060405250810190612d869190613516565b60015b612e2f57612d9561455a565b806308c379a01415612df25750612daa614c1e565b80612db55750612df4565b806040517f08c379a0000000000000000000000000000000000000000000000000000000008152600401612de99190613cd9565b60405180910390fd5b505b6040517f08c379a0000000000000000000000000000000000000000000000000000000008152600401612e2690613d62565b60405180910390fd5b63bc197c8160e01b7bffffffffffffffffffffffffffffffffffffffffffffffffffffffff1916817bffffffffffffffffffffffffffffffffffffffffffffffffffffffff191614612eb6576040517f08c379a0000000000000000000000000000000000000000000000000000000008152600401612ead90613d82565b60405180910390fd5b505b505050505050565b600080823b905060008111915050919050565b828054612edf906143c1565b90600052602060002090601f016020900481019282612f015760008555612f48565b82601f10612f1a57805160ff1916838001178555612f48565b82800160010185558215612f48579182015b82811115612f47578251825591602001919060010190612f2c565b5b509050612f559190612f59565b5090565b5b80821115612f72576000816000905550600101612f5a565b5090565b6000612f89612f84846140ab565b614086565b90508083825260208201905082856020860282011115612fa857600080fd5b60005b85811015612fd85781612fbe88826130ca565b845260208401935060208301925050600181019050612fab565b5050509392505050565b6000612ff5612ff0846140d7565b614086565b9050808382526020820190508285602086028201111561301457600080fd5b60005b85811015613044578161302a88826131c6565b845260208401935060208301925050600181019050613017565b5050509392505050565b600061306161305c84614103565b614086565b90508281526020810184848401111561307957600080fd5b61308484828561437f565b509392505050565b600061309f61309a84614134565b614086565b9050828152602081018484840111156130b757600080fd5b6130c284828561437f565b509392505050565b6000813590506130d981614cb4565b92915050565b600082601f8301126130f057600080fd5b8135613100848260208601612f76565b91505092915050565b600082601f83011261311a57600080fd5b813561312a848260208601612fe2565b91505092915050565b60008135905061314281614ccb565b92915050565b60008135905061315781614ce2565b92915050565b60008151905061316c81614ce2565b92915050565b600082601f83011261318357600080fd5b813561319384826020860161304e565b91505092915050565b600082601f8301126131ad57600080fd5b81356131bd84826020860161308c565b91505092915050565b6000813590506131d581614cf9565b92915050565b6000602082840312156131ed57600080fd5b60006131fb848285016130ca565b91505092915050565b6000806040838503121561321757600080fd5b6000613225858286016130ca565b9250506020613236858286016130ca565b9150509250929050565b600080600080600060a0868803121561325857600080fd5b6000613266888289016130ca565b9550506020613277888289016130ca565b945050604086013567ffffffffffffffff81111561329457600080fd5b6132a088828901613109565b935050606086013567ffffffffffffffff8111156132bd57600080fd5b6132c988828901613109565b925050608086013567ffffffffffffffff8111156132e657600080fd5b6132f288828901613172565b9150509295509295909350565b6000806000806080858703121561331557600080fd5b6000613323878288016130ca565b9450506020613334878288016130ca565b9350506040613345878288016131c6565b925050606085013567ffffffffffffffff81111561336257600080fd5b61336e87828801613172565b91505092959194509250565b600080600080600060a0868803121561339257600080fd5b60006133a0888289016130ca565b95505060206133b1888289016130ca565b94505060406133c2888289016131c6565b93505060606133d3888289016131c6565b925050608086013567ffffffffffffffff8111156133f057600080fd5b6133fc88828901613172565b9150509295509295909350565b6000806040838503121561341c57600080fd5b600061342a858286016130ca565b925050602061343b85828601613133565b9150509250929050565b6000806040838503121561345857600080fd5b6000613466858286016130ca565b9250506020613477858286016131c6565b9150509250929050565b6000806040838503121561349457600080fd5b600083013567ffffffffffffffff8111156134ae57600080fd5b6134ba858286016130df565b925050602083013567ffffffffffffffff8111156134d757600080fd5b6134e385828601613109565b9150509250929050565b6000602082840312156134ff57600080fd5b600061350d84828501613148565b91505092915050565b60006020828403121561352857600080fd5b60006135368482850161315d565b91505092915050565b60006020828403121561355157600080fd5b600082013567ffffffffffffffff81111561356b57600080fd5b6135778482850161319c565b91505092915050565b60006020828403121561359257600080fd5b60006135a0848285016131c6565b91505092915050565b600080604083850312156135bc57600080fd5b60006135ca858286016131c6565b925050602083013567ffffffffffffffff8111156135e757600080fd5b6135f38582860161319c565b9150509250929050565b60006136098383613afb565b60208301905092915050565b61361e8161430b565b82525050565b600061362f8261418a565b61363981856141b8565b935061364483614165565b8060005b8381101561367557815161365c88826135fd565b9750613667836141ab565b925050600181019050613648565b5085935050505092915050565b61368b8161431d565b82525050565b600061369c82614195565b6136a681856141c9565b93506136b681856020860161438e565b6136bf8161457c565b840191505092915050565b60006136d5826141a0565b6136df81856141da565b93506136ef81856020860161438e565b6136f88161457c565b840191505092915050565b600061370e826141a0565b61371881856141eb565b935061372881856020860161438e565b80840191505092915050565b60008154613741816143c1565b61374b81866141eb565b945060018216600081146137665760018114613777576137aa565b60ff198316865281860193506137aa565b61378085614175565b60005b838110156137a257815481890152600182019150602081019050613783565b838801955050505b50505092915050565b60006137c06034836141da565b91506137cb8261459a565b604082019050919050565b60006137e36028836141da565b91506137ee826145e9565b604082019050919050565b6000613806601b836141da565b915061381182614638565b602082019050919050565b6000613829602b836141da565b915061383482614661565b604082019050919050565b600061384c6026836141da565b9150613857826146b0565b604082019050919050565b600061386f6024836141da565b915061387a826146ff565b604082019050919050565b60006138926029836141da565b915061389d8261474e565b604082019050919050565b60006138b5602d836141da565b91506138c08261479d565b604082019050919050565b60006138d8601d836141da565b91506138e3826147ec565b602082019050919050565b60006138fb6025836141da565b915061390682614815565b604082019050919050565b600061391e6032836141da565b915061392982614864565b604082019050919050565b60006139416014836141da565b915061394c826148b3565b602082019050919050565b60006139646023836141da565b915061396f826148dc565b604082019050919050565b6000613987602a836141da565b91506139928261492b565b604082019050919050565b60006139aa6005836141eb565b91506139b58261497a565b600582019050919050565b60006139cd6020836141da565b91506139d8826149a3565b602082019050919050565b60006139f0602f836141da565b91506139fb826149cc565b604082019050919050565b6000613a136023836141da565b9150613a1e82614a1b565b604082019050919050565b6000613a36601f836141da565b9150613a4182614a6a565b602082019050919050565b6000613a59602a836141da565b9150613a6482614a93565b604082019050919050565b6000613a7c6029836141da565b9150613a8782614ae2565b604082019050919050565b6000613a9f6029836141da565b9150613aaa82614b31565b604082019050919050565b6000613ac26028836141da565b9150613acd82614b80565b604082019050919050565b6000613ae56021836141da565b9150613af082614bcf565b604082019050919050565b613b0481614375565b82525050565b613b1381614375565b82525050565b6000613b258284613734565b915081905092915050565b6000613b3c8285613734565b9150613b488284613703565b9150613b538261399d565b91508190509392505050565b6000602082019050613b746000830184613615565b92915050565b600060a082019050613b8f6000830188613615565b613b9c6020830187613615565b8181036040830152613bae8186613624565b90508181036060830152613bc28185613624565b90508181036080830152613bd68184613691565b90509695505050505050565b600060a082019050613bf76000830188613615565b613c046020830187613615565b613c116040830186613b0a565b613c1e6060830185613b0a565b8181036080830152613c308184613691565b90509695505050505050565b6000604082019050613c516000830185613615565b613c5e6020830184613b0a565b9392505050565b60006020820190508181036000830152613c7f8184613624565b905092915050565b60006040820190508181036000830152613ca18185613624565b90508181036020830152613cb58184613624565b90509392505050565b6000602082019050613cd36000830184613682565b92915050565b60006020820190508181036000830152613cf381846136ca565b905092915050565b60006040820190508181036000830152613d1581856136ca565b90508181036020830152613d2981846136ca565b90509392505050565b60006040820190508181036000830152613d4c81856136ca565b9050613d5b6020830184613b0a565b9392505050565b60006020820190508181036000830152613d7b816137b3565b9050919050565b60006020820190508181036000830152613d9b816137d6565b9050919050565b60006020820190508181036000830152613dbb816137f9565b9050919050565b60006020820190508181036000830152613ddb8161381c565b9050919050565b60006020820190508181036000830152613dfb8161383f565b9050919050565b60006020820190508181036000830152613e1b81613862565b9050919050565b60006020820190508181036000830152613e3b81613885565b9050919050565b60006020820190508181036000830152613e5b816138a8565b9050919050565b60006020820190508181036000830152613e7b816138cb565b9050919050565b60006020820190508181036000830152613e9b816138ee565b9050919050565b60006020820190508181036000830152613ebb81613911565b9050919050565b60006020820190508181036000830152613edb81613934565b9050919050565b60006020820190508181036000830152613efb81613957565b9050919050565b60006020820190508181036000830152613f1b8161397a565b9050919050565b60006020820190508181036000830152613f3b816139c0565b9050919050565b60006020820190508181036000830152613f5b816139e3565b9050919050565b60006020820190508181036000830152613f7b81613a06565b9050919050565b60006020820190508181036000830152613f9b81613a29565b9050919050565b60006020820190508181036000830152613fbb81613a4c565b9050919050565b60006020820190508181036000830152613fdb81613a6f565b9050919050565b60006020820190508181036000830152613ffb81613a92565b9050919050565b6000602082019050818103600083015261401b81613ab5565b9050919050565b6000602082019050818103600083015261403b81613ad8565b9050919050565b60006020820190506140576000830184613b0a565b92915050565b60006040820190506140726000830185613b0a565b61407f6020830184613b0a565b9392505050565b60006140906140a1565b905061409c82826143f3565b919050565b6000604051905090565b600067ffffffffffffffff8211156140c6576140c561452b565b5b602082029050602081019050919050565b600067ffffffffffffffff8211156140f2576140f161452b565b5b602082029050602081019050919050565b600067ffffffffffffffff82111561411e5761411d61452b565b5b6141278261457c565b9050602081019050919050565b600067ffffffffffffffff82111561414f5761414e61452b565b5b6141588261457c565b9050602081019050919050565b6000819050602082019050919050565b60008190508160005260206000209050919050565b600081519050919050565b600081519050919050565b600081519050919050565b6000602082019050919050565b600082825260208201905092915050565b600082825260208201905092915050565b600082825260208201905092915050565b600081905092915050565b600061420182614375565b915061420c83614375565b9250827fffffffffffffffffffffffffffffffffffffffffffffffffffffffffffffffff038211156142415761424061449e565b5b828201905092915050565b600061425782614375565b915061426283614375565b925082614272576142716144cd565b5b828204905092915050565b600061428882614375565b915061429383614375565b9250817fffffffffffffffffffffffffffffffffffffffffffffffffffffffffffffffff04831182151516156142cc576142cb61449e565b5b828202905092915050565b60006142e282614375565b91506142ed83614375565b925082821015614300576142ff61449e565b5b828203905092915050565b600061431682614355565b9050919050565b60008115159050919050565b60007fffffffff0000000000000000000000000000000000000000000000000000000082169050919050565b600073ffffffffffffffffffffffffffffffffffffffff82169050919050565b6000819050919050565b82818337600083830152505050565b60005b838110156143ac578082015181840152602081019050614391565b838111156143bb576000848401525b50505050565b600060028204905060018216806143d957607f821691505b602082108114156143ed576143ec6144fc565b5b50919050565b6143fc8261457c565b810181811067ffffffffffffffff8211171561441b5761441a61452b565b5b80604052505050565b600061442f82614375565b91507fffffffffffffffffffffffffffffffffffffffffffffffffffffffffffffffff8214156144625761446161449e565b5b600182019050919050565b600061447882614375565b915061448383614375565b925082614493576144926144cd565b5b828206905092915050565b7f4e487b7100000000000000000000000000000000000000000000000000000000600052601160045260246000fd5b7f4e487b7100000000000000000000000000000000000000000000000000000000600052601260045260246000fd5b7f4e487b7100000000000000000000000000000000000000000000000000000000600052602260045260246000fd5b7f4e487b7100000000000000000000000000000000000000000000000000000000600052604160045260246000fd5b600060033d11156145795760046000803e61457660005161458d565b90505b90565b6000601f19601f8301169050919050565b60008160e01c9050919050565b7f455243313135353a207472616e7366657220746f206e6f6e204552433131353560008201527f526563656976657220696d706c656d656e746572000000000000000000000000602082015250565b7f455243313135353a204552433131353552656365697665722072656a6563746560008201527f6420746f6b656e73000000000000000000000000000000000000000000000000602082015250565b7f4e6f2072656d61696e696e6720626f6f73746572207061636b73210000000000600082015250565b7f455243313135353a2062616c616e636520717565727920666f7220746865207a60008201527f65726f2061646472657373000000000000000000000000000000000000000000602082015250565b7f4f776e61626c653a206e6577206f776e657220697320746865207a65726f206160008201527f6464726573730000000000000000000000000000000000000000000000000000602082015250565b7f455243313135353a206275726e20616d6f756e7420657863656564732062616c60008201527f616e636500000000000000000000000000000000000000000000000000000000602082015250565b7f455243313135353a2063616c6c6572206973206e6f74206f776e6572206e6f7260008201527f20617070726f7665640000000000000000000000000000000000000000000000602082015250565b7f416c6c206f662074686973206174686c657465206861766520616c726561647960008201527f206265656e206d696e7465642100000000000000000000000000000000000000602082015250565b7f5374617274696e6720696e64657820697320616c726561647920736574000000600082015250565b7f455243313135353a207472616e7366657220746f20746865207a65726f20616460008201527f6472657373000000000000000000000000000000000000000000000000000000602082015250565b7f455243313135353a207472616e736665722063616c6c6572206973206e6f742060008201527f6f776e6572206e6f7220617070726f7665640000000000000000000000000000602082015250565b7f43616e6e6f742073657420757269207477696365000000000000000000000000600082015250565b7f455243313135353a206275726e2066726f6d20746865207a65726f206164647260008201527f6573730000000000000000000000000000000000000000000000000000000000602082015250565b7f455243313135353a20696e73756666696369656e742062616c616e636520666f60008201527f72207472616e7366657200000000000000000000000000000000000000000000602082015250565b7f2e6a736f6e000000000000000000000000000000000000000000000000000000600082015250565b7f4f776e61626c653a2063616c6c6572206973206e6f7420746865206f776e6572600082015250565b7f5061636b2068617320616c7265616479206265656e206275726e6564206f722060008201527f646f6573206e6f742065786973742e0000000000000000000000000000000000602082015250565b7f416c6c207061636b73206861766520616c7265616479206265656e206d696e7460008201527f6564210000000000000000000000000000000000000000000000000000000000602082015250565b7f5061636b73206172656e277420726561647920746f206f70656e207965742100600082015250565b7f43616e206f6e6c79206d696e74206f6e652073746172746572207061636b207060008201527f6572206163636f756e7400000000000000000000000000000000000000000000602082015250565b7f455243313135353a2073657474696e6720617070726f76616c2073746174757360008201527f20666f722073656c660000000000000000000000000000000000000000000000602082015250565b7f455243313135353a206163636f756e747320616e6420696473206c656e67746860008201527f206d69736d617463680000000000000000000000000000000000000000000000602082015250565b7f455243313135353a2069647320616e6420616d6f756e7473206c656e6774682060008201527f6d69736d61746368000000000000000000000000000000000000000000000000602082015250565b7f455243313135353a206d696e7420746f20746865207a65726f2061646472657360008201527f7300000000000000000000000000000000000000000000000000000000000000602082015250565b600060443d1015614c2e57614cb1565b614c366140a1565b60043d036004823e80513d602482011167ffffffffffffffff82111715614c5e575050614cb1565b808201805167ffffffffffffffff811115614c7c5750505050614cb1565b80602083010160043d038501811115614c99575050505050614cb1565b614ca8826020018501866143f3565b82955050505050505b90565b614cbd8161430b565b8114614cc857600080fd5b50565b614cd48161431d565b8114614cdf57600080fd5b50565b614ceb81614329565b8114614cf657600080fd5b50565b614d0281614375565b8114614d0d57600080fd5b5056fea2646970667358221220f8e1c85c7b9cebcf2991945c500ea7104ad2955346a7f6b007d80471acda3dff64736f6c63430008020033",
  "linkReferences": {},
  "deployedLinkReferences": {}
}