{
  "_format": "hh-sol-artifact-1",
  "contractName": "GameItems",
  "sourceName": "contracts/GameItems.sol",
  "abi": [
    {
      "inputs": [
        {
          "components": [
            {
              "internalType": "uint256",
              "name": "_numAthletes",
              "type": "uint256"
            },
            {
              "internalType": "uint256",
              "name": "_nftPerAthlete",
              "type": "uint256"
            },
            {
              "internalType": "uint256",
              "name": "_starterPackSize",
              "type": "uint256"
            },
            {
              "internalType": "uint256",
              "name": "_boosterPackSize",
              "type": "uint256"
            },
            {
              "internalType": "uint256",
              "name": "_maxStarterPackBalance",
              "type": "uint256"
            },
            {
              "internalType": "uint256",
              "name": "_maxBoosterPackBalance",
              "type": "uint256"
            },
            {
              "internalType": "uint256",
              "name": "_maxPacks",
              "type": "uint256"
            },
            {
              "internalType": "uint256",
              "name": "_revealTimestamp",
              "type": "uint256"
            }
          ],
          "internalType": "struct GameItems.Parameters",
          "name": "params",
          "type": "tuple"
        },
        {
          "internalType": "string",
          "name": "_athleteURI",
          "type": "string"
        },
        {
          "internalType": "string",
          "name": "_starterPackURI",
          "type": "string"
        },
        {
          "internalType": "string",
          "name": "_boosterPackURI",
          "type": "string"
        }
      ],
      "stateMutability": "nonpayable",
      "type": "constructor"
    },
    {
      "anonymous": false,
      "inputs": [
        {
          "indexed": true,
          "internalType": "address",
          "name": "account",
          "type": "address"
        },
        {
          "indexed": true,
          "internalType": "address",
          "name": "operator",
          "type": "address"
        },
        {
          "indexed": false,
          "internalType": "bool",
          "name": "approved",
          "type": "bool"
        }
      ],
      "name": "ApprovalForAll",
      "type": "event"
    },
    {
      "anonymous": false,
      "inputs": [
        {
          "indexed": true,
          "internalType": "address",
          "name": "previousOwner",
          "type": "address"
        },
        {
          "indexed": true,
          "internalType": "address",
          "name": "newOwner",
          "type": "address"
        }
      ],
      "name": "OwnershipTransferred",
      "type": "event"
    },
    {
      "anonymous": false,
      "inputs": [
        {
          "indexed": true,
          "internalType": "address",
          "name": "operator",
          "type": "address"
        },
        {
          "indexed": true,
          "internalType": "address",
          "name": "from",
          "type": "address"
        },
        {
          "indexed": true,
          "internalType": "address",
          "name": "to",
          "type": "address"
        },
        {
          "indexed": false,
          "internalType": "uint256[]",
          "name": "ids",
          "type": "uint256[]"
        },
        {
          "indexed": false,
          "internalType": "uint256[]",
          "name": "values",
          "type": "uint256[]"
        }
      ],
      "name": "TransferBatch",
      "type": "event"
    },
    {
      "anonymous": false,
      "inputs": [
        {
          "indexed": true,
          "internalType": "address",
          "name": "operator",
          "type": "address"
        },
        {
          "indexed": true,
          "internalType": "address",
          "name": "from",
          "type": "address"
        },
        {
          "indexed": true,
          "internalType": "address",
          "name": "to",
          "type": "address"
        },
        {
          "indexed": false,
          "internalType": "uint256",
          "name": "id",
          "type": "uint256"
        },
        {
          "indexed": false,
          "internalType": "uint256",
          "name": "value",
          "type": "uint256"
        }
      ],
      "name": "TransferSingle",
      "type": "event"
    },
    {
      "anonymous": false,
      "inputs": [
        {
          "indexed": false,
          "internalType": "string",
          "name": "value",
          "type": "string"
        },
        {
          "indexed": true,
          "internalType": "uint256",
          "name": "id",
          "type": "uint256"
        }
      ],
      "name": "URI",
      "type": "event"
    },
    {
      "anonymous": false,
      "inputs": [
        {
          "indexed": false,
          "internalType": "address",
          "name": "user",
          "type": "address"
        },
        {
          "indexed": false,
          "internalType": "uint256",
          "name": "id",
          "type": "uint256"
        }
      ],
      "name": "packMinted",
      "type": "event"
    },
    {
      "inputs": [],
      "name": "REVEAL_TIMESTAMP",
      "outputs": [
        {
          "internalType": "uint256",
          "name": "",
          "type": "uint256"
        }
      ],
      "stateMutability": "view",
      "type": "function"
    },
    {
      "inputs": [
        {
          "internalType": "address",
          "name": "account",
          "type": "address"
        },
        {
          "internalType": "uint256",
          "name": "id",
          "type": "uint256"
        }
      ],
      "name": "balanceOf",
      "outputs": [
        {
          "internalType": "uint256",
          "name": "",
          "type": "uint256"
        }
      ],
      "stateMutability": "view",
      "type": "function"
    },
    {
      "inputs": [
        {
          "internalType": "address[]",
          "name": "accounts",
          "type": "address[]"
        },
        {
          "internalType": "uint256[]",
          "name": "ids",
          "type": "uint256[]"
        }
      ],
      "name": "balanceOfBatch",
      "outputs": [
        {
          "internalType": "uint256[]",
          "name": "",
          "type": "uint256[]"
        }
      ],
      "stateMutability": "view",
      "type": "function"
    },
    {
      "inputs": [],
      "name": "burnBoosterPack",
      "outputs": [],
      "stateMutability": "nonpayable",
      "type": "function"
    },
    {
      "inputs": [],
      "name": "burnStarterPack",
      "outputs": [],
      "stateMutability": "nonpayable",
      "type": "function"
    },
    {
      "inputs": [],
      "name": "emergencySetStartingIndexBlock",
      "outputs": [],
      "stateMutability": "nonpayable",
      "type": "function"
    },
    {
      "inputs": [],
      "name": "generateStarterPackIndices",
      "outputs": [
        {
          "internalType": "uint256[5]",
          "name": "",
          "type": "uint256[5]"
        }
      ],
      "stateMutability": "view",
      "type": "function"
    },
    {
      "inputs": [],
      "name": "getNFTPerAthlete",
      "outputs": [
        {
          "internalType": "uint256",
          "name": "",
          "type": "uint256"
        }
      ],
      "stateMutability": "view",
      "type": "function"
    },
    {
      "inputs": [],
      "name": "getStarterPackIndices",
      "outputs": [
        {
          "internalType": "uint256[5]",
          "name": "",
          "type": "uint256[5]"
        }
      ],
      "stateMutability": "view",
      "type": "function"
    },
    {
      "inputs": [
        {
          "internalType": "address",
          "name": "account",
          "type": "address"
        },
        {
          "internalType": "address",
          "name": "operator",
          "type": "address"
        }
      ],
      "name": "isApprovedForAll",
      "outputs": [
        {
          "internalType": "bool",
          "name": "",
          "type": "bool"
        }
      ],
      "stateMutability": "view",
      "type": "function"
    },
    {
      "inputs": [],
      "name": "mintBoosterPack",
      "outputs": [],
      "stateMutability": "nonpayable",
      "type": "function"
    },
    {
      "inputs": [],
      "name": "mintStarterPack",
      "outputs": [],
      "stateMutability": "nonpayable",
      "type": "function"
    },
    {
      "inputs": [],
      "name": "owner",
      "outputs": [
        {
          "internalType": "address",
          "name": "",
          "type": "address"
        }
      ],
      "stateMutability": "view",
      "type": "function"
    },
    {
      "inputs": [],
      "name": "packsReadyToOpen",
      "outputs": [
        {
          "internalType": "bool",
          "name": "",
          "type": "bool"
        }
      ],
      "stateMutability": "view",
      "type": "function"
    },
    {
      "inputs": [],
      "name": "renounceOwnership",
      "outputs": [],
      "stateMutability": "nonpayable",
      "type": "function"
    },
    {
      "inputs": [
        {
          "internalType": "address",
          "name": "from",
          "type": "address"
        },
        {
          "internalType": "address",
          "name": "to",
          "type": "address"
        },
        {
          "internalType": "uint256[]",
          "name": "ids",
          "type": "uint256[]"
        },
        {
          "internalType": "uint256[]",
          "name": "amounts",
          "type": "uint256[]"
        },
        {
          "internalType": "bytes",
          "name": "data",
          "type": "bytes"
        }
      ],
      "name": "safeBatchTransferFrom",
      "outputs": [],
      "stateMutability": "nonpayable",
      "type": "function"
    },
    {
      "inputs": [
        {
          "internalType": "address",
          "name": "from",
          "type": "address"
        },
        {
          "internalType": "address",
          "name": "to",
          "type": "address"
        },
        {
          "internalType": "uint256",
          "name": "id",
          "type": "uint256"
        },
        {
          "internalType": "uint256",
          "name": "amount",
          "type": "uint256"
        },
        {
          "internalType": "bytes",
          "name": "data",
          "type": "bytes"
        }
      ],
      "name": "safeTransferFrom",
      "outputs": [],
      "stateMutability": "nonpayable",
      "type": "function"
    },
    {
      "inputs": [
        {
          "internalType": "address",
          "name": "operator",
          "type": "address"
        },
        {
          "internalType": "bool",
          "name": "approved",
          "type": "bool"
        }
      ],
      "name": "setApprovalForAll",
      "outputs": [],
      "stateMutability": "nonpayable",
      "type": "function"
    },
    {
      "inputs": [],
      "name": "setPacksReady",
      "outputs": [],
      "stateMutability": "nonpayable",
      "type": "function"
    },
    {
      "inputs": [
        {
          "internalType": "string",
          "name": "provenanceHash",
          "type": "string"
        }
      ],
      "name": "setProvenanceHash",
      "outputs": [],
      "stateMutability": "nonpayable",
      "type": "function"
    },
    {
      "inputs": [],
      "name": "setStartingIndex",
      "outputs": [],
      "stateMutability": "nonpayable",
      "type": "function"
    },
    {
      "inputs": [
        {
          "internalType": "uint256",
          "name": "tokenId",
          "type": "uint256"
        },
        {
          "internalType": "string",
          "name": "uri",
          "type": "string"
        }
      ],
      "name": "setTokenUri",
      "outputs": [],
      "stateMutability": "nonpayable",
      "type": "function"
    },
    {
      "inputs": [],
      "name": "setURIs",
      "outputs": [],
      "stateMutability": "nonpayable",
      "type": "function"
    },
    {
      "inputs": [
        {
          "internalType": "bytes4",
          "name": "interfaceId",
          "type": "bytes4"
        }
      ],
      "name": "supportsInterface",
      "outputs": [
        {
          "internalType": "bool",
          "name": "",
          "type": "bool"
        }
      ],
      "stateMutability": "view",
      "type": "function"
    },
    {
      "inputs": [
        {
          "internalType": "address",
          "name": "newOwner",
          "type": "address"
        }
      ],
      "name": "transferOwnership",
      "outputs": [],
      "stateMutability": "nonpayable",
      "type": "function"
    },
    {
      "inputs": [
        {
          "internalType": "uint256",
          "name": "tokenId",
          "type": "uint256"
        }
      ],
      "name": "uri",
      "outputs": [
        {
          "internalType": "string",
          "name": "",
          "type": "string"
        }
      ],
      "stateMutability": "view",
      "type": "function"
    }
  ],
  "bytecode": "0x6080604052612710600f556001601060086101000a81548160ff0219169083151502179055506008546011556011546012556040518060200160405280600081525060189080519060200190620000589291906200037c565b503480156200006657600080fd5b50604051620053d8380380620053d883398181016040528101906200008c9190620005a0565b60405180602001604052806000815250620000ad81620001c660201b60201c565b50620000ce620000c2620001e260201b60201c565b620001ea60201b60201c565b620001196040518060400160405280601281526020017f4d616b696e6720636f6e74726163742e2e2e0000000000000000000000000000815250620002b060201b620016de1760201c565b836000015160088190555083602001516009819055508360400151600a819055508360600151600b819055508360800151600c819055508360a00151600d819055508360c00151600e8190555082600590805190602001906200017e9291906200037c565b508160069080519060200190620001979291906200037c565b508060079080519060200190620001b09291906200037c565b508360e00151600f8190555050505050620008a1565b8060029080519060200190620001de9291906200037c565b5050565b600033905090565b6000600360009054906101000a900473ffffffffffffffffffffffffffffffffffffffff16905081600360006101000a81548173ffffffffffffffffffffffffffffffffffffffff021916908373ffffffffffffffffffffffffffffffffffffffff1602179055508173ffffffffffffffffffffffffffffffffffffffff168173ffffffffffffffffffffffffffffffffffffffff167f8be0079c531659141344cd1fd0a4f28419497f9722a3daafe3b4186f6b6457e060405160405180910390a35050565b6200035081604051602401620002c79190620006b4565b6040516020818303038152906040527f41304fac000000000000000000000000000000000000000000000000000000007bffffffffffffffffffffffffffffffffffffffffffffffffffffffff19166020820180517bffffffffffffffffffffffffffffffffffffffffffffffffffffffff83818316178352505050506200035360201b60201c565b50565b60008151905060006a636f6e736f6c652e6c6f679050602083016000808483855afa5050505050565b8280546200038a9062000793565b90600052602060002090601f016020900481019282620003ae5760008555620003fa565b82601f10620003c957805160ff1916838001178555620003fa565b82800160010185558215620003fa579182015b82811115620003f9578251825591602001919060010190620003dc565b5b5090506200040991906200040d565b5090565b5b80821115620004285760008160009055506001016200040e565b5090565b6000620004436200043d8462000701565b620006d8565b90508281526020810184848401111562000462576200046162000867565b5b6200046f8482856200075d565b509392505050565b600082601f8301126200048f576200048e6200085d565b5b8151620004a18482602086016200042c565b91505092915050565b60006101008284031215620004c457620004c362000862565b5b620004d1610100620006d8565b90506000620004e38482850162000589565b6000830152506020620004f98482850162000589565b60208301525060406200050f8482850162000589565b6040830152506060620005258482850162000589565b60608301525060806200053b8482850162000589565b60808301525060a0620005518482850162000589565b60a08301525060c0620005678482850162000589565b60c08301525060e06200057d8482850162000589565b60e08301525092915050565b6000815190506200059a8162000887565b92915050565b6000806000806101608587031215620005be57620005bd62000871565b5b6000620005ce87828801620004aa565b94505061010085015167ffffffffffffffff811115620005f357620005f26200086c565b5b620006018782880162000477565b93505061012085015167ffffffffffffffff8111156200062657620006256200086c565b5b620006348782880162000477565b92505061014085015167ffffffffffffffff8111156200065957620006586200086c565b5b620006678782880162000477565b91505092959194509250565b6000620006808262000737565b6200068c818562000742565b93506200069e8185602086016200075d565b620006a98162000876565b840191505092915050565b60006020820190508181036000830152620006d0818462000673565b905092915050565b6000620006e4620006f7565b9050620006f28282620007c9565b919050565b6000604051905090565b600067ffffffffffffffff8211156200071f576200071e6200082e565b5b6200072a8262000876565b9050602081019050919050565b600081519050919050565b600082825260208201905092915050565b6000819050919050565b60005b838110156200077d57808201518184015260208101905062000760565b838111156200078d576000848401525b50505050565b60006002820490506001821680620007ac57607f821691505b60208210811415620007c357620007c2620007ff565b5b50919050565b620007d48262000876565b810181811067ffffffffffffffff82111715620007f657620007f56200082e565b5b80604052505050565b7f4e487b7100000000000000000000000000000000000000000000000000000000600052602260045260246000fd5b7f4e487b7100000000000000000000000000000000000000000000000000000000600052604160045260246000fd5b600080fd5b600080fd5b600080fd5b600080fd5b600080fd5b6000601f19601f8301169050919050565b620008928162000753565b81146200089e57600080fd5b50565b614b2780620008b16000396000f3fe608060405234801561001057600080fd5b506004361061018d5760003560e01c80635d2db2bf116100de578063a22cb46511610097578063e985e9c511610071578063e985e9c5146103c6578063e9866550146103f6578063f242432a14610400578063f2fde38b1461041c5761018d565b8063a22cb46514610382578063bbb13e171461039e578063be59ec26146103a85761018d565b80635d2db2bf14610332578063715018a61461033c57806375223f92146103465780637d17fcbe146103505780638da5cb5b1461035a5780639ebf488b146103785761018d565b806318e20a381161014b5780633c1d4a99116101255780633c1d4a99146102be5780634e1273f4146102dc5780634f3551d71461030c57806357f7789e146103165761018d565b806318e20a381461027a57806319b60439146102985780632eb2c2d6146102a25761018d565b8062fdd58e1461019257806301ffc9a7146101c25780630e89341c146101f2578063109695231461022257806313dc2db21461023e578063143cc1441461025c575b600080fd5b6101ac60048036038101906101a7919061305c565b610438565b6040516101b99190613d3c565b60405180910390f35b6101dc60048036038101906101d79190613114565b610501565b6040516101e991906139ef565b60405180910390f35b61020c600480360381019061020791906131b7565b6105e3565b6040516102199190613a0a565b60405180910390f35b61023c6004803603810190610237919061316e565b610688565b005b61024661071e565b604051610253919061397b565b60405180910390f35b610264610854565b6040516102719190613d3c565b60405180910390f35b6102826108da565b60405161028f9190613d3c565b60405180910390f35b6102a06108e0565b005b6102bc60048036038101906102b79190612eb6565b610988565b005b6102c6610a29565b6040516102d3919061397b565b60405180910390f35b6102f660048036038101906102f1919061309c565b610af0565b6040516103039190613996565b60405180910390f35b610314610c09565b005b610330600480360381019061032b91906131e4565b610d12565b005b61033a610e1c565b005b610344610f7f565b005b61034e611007565b005b6103586110b4565b005b61036261117e565b60405161036f9190613875565b60405180910390f35b6103806111a8565b005b61039c6004803603810190610397919061301c565b6112b1565b005b6103a66112c7565b005b6103b06113c7565b6040516103bd91906139ef565b60405180910390f35b6103e060048036038101906103db9190612e76565b6113da565b6040516103ed91906139ef565b60405180910390f35b6103fe61146e565b005b61041a60048036038101906104159190612f85565b611545565b005b61043660048036038101906104319190612e49565b6115e6565b005b60008073ffffffffffffffffffffffffffffffffffffffff168373ffffffffffffffffffffffffffffffffffffffff1614156104a9576040517f08c379a00000000000000000000000000000000000000000000000000000000081526004016104a090613abc565b60405180910390fd5b60008083815260200190815260200160002060008473ffffffffffffffffffffffffffffffffffffffff1673ffffffffffffffffffffffffffffffffffffffff16815260200190815260200160002054905092915050565b60007fd9b67a26000000000000000000000000000000000000000000000000000000007bffffffffffffffffffffffffffffffffffffffffffffffffffffffff1916827bffffffffffffffffffffffffffffffffffffffffffffffffffffffff191614806105cc57507f0e89341c000000000000000000000000000000000000000000000000000000007bffffffffffffffffffffffffffffffffffffffffffffffffffffffff1916827bffffffffffffffffffffffffffffffffffffffffffffffffffffffff1916145b806105dc57506105db82611777565b5b9050919050565b6060602160008381526020019081526020016000208054610603906140f5565b80601f016020809104026020016040519081016040528092919081815260200182805461062f906140f5565b801561067c5780601f106106515761010080835404028352916020019161067c565b820191906000526020600020905b81548152906001019060200180831161065f57829003601f168201915b50505050509050919050565b6106906117e1565b73ffffffffffffffffffffffffffffffffffffffff166106ae61117e565b73ffffffffffffffffffffffffffffffffffffffff1614610704576040517f08c379a00000000000000000000000000000000000000000000000000000000081526004016106fb90613c1c565b60405180910390fd5b806018908051906020019061071a929190612aff565b5050565b610726612b85565b61072e612b85565b60005b600581101561084c576000600a826107499190613fa4565b905060006009600a8461075c9190613fa4565b6107669190613f1d565b905081600183836107779190613ffe565b6107819190613f1d565b423344876040516020016107989493929190613827565b6040516020818303038152906040528051906020012060001c6107bb91906141f9565b6107c59190613f1d565b8484600581106107d8576107d76142b7565b5b6020020181815250506108376040518060400160405280600981526020017f696e64657820697320000000000000000000000000000000000000000000000081525085856005811061082d5761082c6142b7565b5b60200201516117e9565b5050808061084490614158565b915050610731565b508091505090565b600061085e6117e1565b73ffffffffffffffffffffffffffffffffffffffff1661087c61117e565b73ffffffffffffffffffffffffffffffffffffffff16146108d2576040517f08c379a00000000000000000000000000000000000000000000000000000000081526004016108c990613c1c565b60405180910390fd5b600954905090565b600f5481565b6108e86117e1565b73ffffffffffffffffffffffffffffffffffffffff1661090661117e565b73ffffffffffffffffffffffffffffffffffffffff161461095c576040517f08c379a000000000000000000000000000000000000000000000000000000000815260040161095390613c1c565b60405180910390fd5b601060089054906101000a900460ff1615601060086101000a81548160ff021916908315150217905550565b6109906117e1565b73ffffffffffffffffffffffffffffffffffffffff168573ffffffffffffffffffffffffffffffffffffffff1614806109d657506109d5856109d06117e1565b6113da565b5b610a15576040517f08c379a0000000000000000000000000000000000000000000000000000000008152600401610a0c90613b9c565b60405180910390fd5b610a228585858585611885565b5050505050565b610a31612b85565b610a396117e1565b73ffffffffffffffffffffffffffffffffffffffff16610a5761117e565b73ffffffffffffffffffffffffffffffffffffffff1614610aad576040517f08c379a0000000000000000000000000000000000000000000000000000000008152600401610aa490613c1c565b60405180910390fd5b6019600580602002604051908101604052809291908260058015610ae6576020028201915b815481526020019060010190808311610ad2575b5050505050905090565b60608151835114610b36576040517f08c379a0000000000000000000000000000000000000000000000000000000008152600401610b2d90613cdc565b60405180910390fd5b6000835167ffffffffffffffff811115610b5357610b526142e6565b5b604051908082528060200260200182016040528015610b815781602001602082028036833780820191505090505b50905060005b8451811015610bfe57610bce858281518110610ba657610ba56142b7565b5b6020026020010151858381518110610bc157610bc06142b7565b5b6020026020010151610438565b828281518110610be157610be06142b7565b5b60200260200101818152505080610bf790614158565b9050610b87565b508091505092915050565b600e5460145410610c4f576040517f08c379a0000000000000000000000000000000000000000000000000000000008152600401610c4690613c5c565b60405180910390fd5b6001610c5d33601154610438565b10610c9d576040517f08c379a0000000000000000000000000000000000000000000000000000000008152600401610c9490613c9c565b60405180910390fd5b610cbb33601254600160405180602001604052806000815250611b99565b600160146000828254610cce9190613f1d565b925050819055507f2e0f4d63dcc00e6a11c8aef9f6e15c1f9cd6e9a090b2dd99c7b797f1a28d300d33601454604051610d08929190613952565b60405180910390a1565b610d1a6117e1565b73ffffffffffffffffffffffffffffffffffffffff16610d3861117e565b73ffffffffffffffffffffffffffffffffffffffff1614610d8e576040517f08c379a0000000000000000000000000000000000000000000000000000000008152600401610d8590613c1c565b60405180910390fd5b6000602160008481526020019081526020016000208054610dae906140f5565b905014610df0576040517f08c379a0000000000000000000000000000000000000000000000000000000008152600401610de790613bbc565b60405180910390fd5b80602160008481526020019081526020016000209080519060200190610e17929190612aff565b505050565b610e246117e1565b73ffffffffffffffffffffffffffffffffffffffff16610e4261117e565b73ffffffffffffffffffffffffffffffffffffffff1614610e98576040517f08c379a0000000000000000000000000000000000000000000000000000000008152600401610e8f90613c1c565b60405180910390fd5b60005b600854811015610f0c57600060085482601754610eb89190613f1d565b610ec291906141f9565b9050610ef8816005610ed384611d2f565b604051602001610ee49291906137f8565b604051602081830303815290604052610d12565b508080610f0490614158565b915050610e9b565b50610f456001600854610f1f9190613f1d565b6006604051602001610f3191906137e1565b604051602081830303815290604052610d12565b610f7d6002600854610f579190613f1d565b6007604051602001610f6991906137e1565b604051602081830303815290604052610d12565b565b610f876117e1565b73ffffffffffffffffffffffffffffffffffffffff16610fa561117e565b73ffffffffffffffffffffffffffffffffffffffff1614610ffb576040517f08c379a0000000000000000000000000000000000000000000000000000000008152600401610ff290613c1c565b60405180910390fd5b6110056000611e90565b565b601060089054906101000a900460ff16611056576040517f08c379a000000000000000000000000000000000000000000000000000000000815260040161104d90613c7c565b60405180910390fd5b600061106433601254610438565b116110a4576040517f08c379a000000000000000000000000000000000000000000000000000000000815260040161109b90613a9c565b60405180910390fd5b6110b2336012546001611f56565b565b6110bc6117e1565b73ffffffffffffffffffffffffffffffffffffffff166110da61117e565b73ffffffffffffffffffffffffffffffffffffffff1614611130576040517f08c379a000000000000000000000000000000000000000000000000000000000815260040161112790613c1c565b60405180910390fd5b600060175414611175576040517f08c379a000000000000000000000000000000000000000000000000000000000815260040161116c90613b5c565b60405180910390fd5b43601681905550565b6000600360009054906101000a900473ffffffffffffffffffffffffffffffffffffffff16905090565b600e54601354106111ee576040517f08c379a00000000000000000000000000000000000000000000000000000000081526004016111e590613c5c565b60405180910390fd5b60016111fc33601154610438565b1061123c576040517f08c379a000000000000000000000000000000000000000000000000000000000815260040161123390613c9c565b60405180910390fd5b61125a33601154600160405180602001604052806000815250611b99565b60016013600082825461126d9190613f1d565b925050819055507f2e0f4d63dcc00e6a11c8aef9f6e15c1f9cd6e9a090b2dd99c7b797f1a28d300d336013546040516112a7929190613952565b60405180910390a1565b6112c36112bc6117e1565b8383612173565b5050565b601060089054906101000a900460ff16611316576040517f08c379a000000000000000000000000000000000000000000000000000000000815260040161130d90613c7c565b60405180910390fd5b600161132433601154610438565b14611364576040517f08c379a000000000000000000000000000000000000000000000000000000000815260040161135b90613c3c565b60405180910390fd5b600061136e61071e565b905060005b60058160ff1610156113b5576113a2828260ff1660058110611398576113976142b7565b5b60200201516122e0565b80806113ad906141a1565b915050611373565b506113c4336011546001611f56565b50565b601060089054906101000a900460ff1681565b6000600160008473ffffffffffffffffffffffffffffffffffffffff1673ffffffffffffffffffffffffffffffffffffffff16815260200190815260200160002060008373ffffffffffffffffffffffffffffffffffffffff1673ffffffffffffffffffffffffffffffffffffffff16815260200190815260200160002060009054906101000a900460ff16905092915050565b6114766117e1565b73ffffffffffffffffffffffffffffffffffffffff1661149461117e565b73ffffffffffffffffffffffffffffffffffffffff16146114ea576040517f08c379a00000000000000000000000000000000000000000000000000000000081526004016114e190613c1c565b60405180910390fd5b6009546008546114fa9190613fa4565b6001436115079190613ffe565b4060001c61151591906141f9565b601781905550600060175414156115435761153c60016017546123db90919063ffffffff16565b6017819055505b565b61154d6117e1565b73ffffffffffffffffffffffffffffffffffffffff168573ffffffffffffffffffffffffffffffffffffffff16148061159357506115928561158d6117e1565b6113da565b5b6115d2576040517f08c379a00000000000000000000000000000000000000000000000000000000081526004016115c990613b1c565b60405180910390fd5b6115df85858585856123f1565b5050505050565b6115ee6117e1565b73ffffffffffffffffffffffffffffffffffffffff1661160c61117e565b73ffffffffffffffffffffffffffffffffffffffff1614611662576040517f08c379a000000000000000000000000000000000000000000000000000000000815260040161165990613c1c565b60405180910390fd5b600073ffffffffffffffffffffffffffffffffffffffff168173ffffffffffffffffffffffffffffffffffffffff1614156116d2576040517f08c379a00000000000000000000000000000000000000000000000000000000081526004016116c990613adc565b60405180910390fd5b6116db81611e90565b50565b611774816040516024016116f29190613a0a565b6040516020818303038152906040527f41304fac000000000000000000000000000000000000000000000000000000007bffffffffffffffffffffffffffffffffffffffffffffffffffffffff19166020820180517bffffffffffffffffffffffffffffffffffffffffffffffffffffffff8381831617835250505050612673565b50565b60007f01ffc9a7000000000000000000000000000000000000000000000000000000007bffffffffffffffffffffffffffffffffffffffffffffffffffffffff1916827bffffffffffffffffffffffffffffffffffffffffffffffffffffffff1916149050919050565b600033905090565b61188182826040516024016117ff929190613a2c565b6040516020818303038152906040527f9710a9d0000000000000000000000000000000000000000000000000000000007bffffffffffffffffffffffffffffffffffffffffffffffffffffffff19166020820180517bffffffffffffffffffffffffffffffffffffffffffffffffffffffff8381831617835250505050612673565b5050565b81518351146118c9576040517f08c379a00000000000000000000000000000000000000000000000000000000081526004016118c090613cfc565b60405180910390fd5b600073ffffffffffffffffffffffffffffffffffffffff168473ffffffffffffffffffffffffffffffffffffffff161415611939576040517f08c379a000000000000000000000000000000000000000000000000000000000815260040161193090613b7c565b60405180910390fd5b60006119436117e1565b905061195381878787878761269c565b60005b8451811015611b04576000858281518110611974576119736142b7565b5b602002602001015190506000858381518110611993576119926142b7565b5b60200260200101519050600080600084815260200190815260200160002060008b73ffffffffffffffffffffffffffffffffffffffff1673ffffffffffffffffffffffffffffffffffffffff16815260200190815260200160002054905081811015611a34576040517f08c379a0000000000000000000000000000000000000000000000000000000008152600401611a2b90613bfc565b60405180910390fd5b81810360008085815260200190815260200160002060008c73ffffffffffffffffffffffffffffffffffffffff1673ffffffffffffffffffffffffffffffffffffffff168152602001908152602001600020819055508160008085815260200190815260200160002060008b73ffffffffffffffffffffffffffffffffffffffff1673ffffffffffffffffffffffffffffffffffffffff1681526020019081526020016000206000828254611ae99190613f1d565b9250508190555050505080611afd90614158565b9050611956565b508473ffffffffffffffffffffffffffffffffffffffff168673ffffffffffffffffffffffffffffffffffffffff168273ffffffffffffffffffffffffffffffffffffffff167f4a39dc06d4c0dbc64b70af90fd698a233a518aa5d07e595d983b8c0526c8f7fb8787604051611b7b9291906139b8565b60405180910390a4611b918187878787876126a4565b505050505050565b600073ffffffffffffffffffffffffffffffffffffffff168473ffffffffffffffffffffffffffffffffffffffff161415611c09576040517f08c379a0000000000000000000000000000000000000000000000000000000008152600401611c0090613d1c565b60405180910390fd5b6000611c136117e1565b9050611c3481600087611c258861288b565b611c2e8861288b565b8761269c565b8260008086815260200190815260200160002060008773ffffffffffffffffffffffffffffffffffffffff1673ffffffffffffffffffffffffffffffffffffffff1681526020019081526020016000206000828254611c939190613f1d565b925050819055508473ffffffffffffffffffffffffffffffffffffffff16600073ffffffffffffffffffffffffffffffffffffffff168273ffffffffffffffffffffffffffffffffffffffff167fc3d58168c5ae7397731d063d5bbf3d657854427343f4c083240f7aacaa2d0f628787604051611d11929190613d57565b60405180910390a4611d2881600087878787612905565b5050505050565b60606000821415611d77576040518060400160405280600181526020017f30000000000000000000000000000000000000000000000000000000000000008152509050611e8b565b600082905060005b60008214611da9578080611d9290614158565b915050600a82611da29190613f73565b9150611d7f565b60008167ffffffffffffffff811115611dc557611dc46142e6565b5b6040519080825280601f01601f191660200182016040528015611df75781602001600182028036833780820191505090505b5090505b60008514611e8457600182611e109190613ffe565b9150600a85611e1f91906141f9565b6030611e2b9190613f1d565b60f81b818381518110611e4157611e406142b7565b5b60200101907effffffffffffffffffffffffffffffffffffffffffffffffffffffffffffff1916908160001a905350600a85611e7d9190613f73565b9450611dfb565b8093505050505b919050565b6000600360009054906101000a900473ffffffffffffffffffffffffffffffffffffffff16905081600360006101000a81548173ffffffffffffffffffffffffffffffffffffffff021916908373ffffffffffffffffffffffffffffffffffffffff1602179055508173ffffffffffffffffffffffffffffffffffffffff168173ffffffffffffffffffffffffffffffffffffffff167f8be0079c531659141344cd1fd0a4f28419497f9722a3daafe3b4186f6b6457e060405160405180910390a35050565b600073ffffffffffffffffffffffffffffffffffffffff168373ffffffffffffffffffffffffffffffffffffffff161415611fc6576040517f08c379a0000000000000000000000000000000000000000000000000000000008152600401611fbd90613bdc565b60405180910390fd5b6000611fd06117e1565b905061200081856000611fe28761288b565b611feb8761288b565b6040518060200160405280600081525061269c565b600080600085815260200190815260200160002060008673ffffffffffffffffffffffffffffffffffffffff1673ffffffffffffffffffffffffffffffffffffffff16815260200190815260200160002054905082811015612097576040517f08c379a000000000000000000000000000000000000000000000000000000000815260040161208e90613afc565b60405180910390fd5b82810360008086815260200190815260200160002060008773ffffffffffffffffffffffffffffffffffffffff1673ffffffffffffffffffffffffffffffffffffffff16815260200190815260200160002081905550600073ffffffffffffffffffffffffffffffffffffffff168573ffffffffffffffffffffffffffffffffffffffff168373ffffffffffffffffffffffffffffffffffffffff167fc3d58168c5ae7397731d063d5bbf3d657854427343f4c083240f7aacaa2d0f628787604051612164929190613d57565b60405180910390a45050505050565b8173ffffffffffffffffffffffffffffffffffffffff168373ffffffffffffffffffffffffffffffffffffffff1614156121e2576040517f08c379a00000000000000000000000000000000000000000000000000000000081526004016121d990613cbc565b60405180910390fd5b80600160008573ffffffffffffffffffffffffffffffffffffffff1673ffffffffffffffffffffffffffffffffffffffff16815260200190815260200160002060008473ffffffffffffffffffffffffffffffffffffffff1673ffffffffffffffffffffffffffffffffffffffff16815260200190815260200160002060006101000a81548160ff0219169083151502179055508173ffffffffffffffffffffffffffffffffffffffff168373ffffffffffffffffffffffffffffffffffffffff167f17307eab39ab6107e8899845ad3d59bd9653f200f220920489ca2b5937696c31836040516122d391906139ef565b60405180910390a3505050565b6009546008546122f09190613fa4565b60155410156123d857600954602260008381526020019081526020016000205410612350576040517f08c379a000000000000000000000000000000000000000000000000000000000815260040161234790613b3c565b60405180910390fd5b612392338260016040518060400160405280600481526020017f3078303000000000000000000000000000000000000000000000000000000000815250611b99565b60016022600083815260200190815260200160002060008282546123b69190613f1d565b925050819055506001601560008282546123d09190613f1d565b925050819055505b50565b600081836123e99190613f1d565b905092915050565b600073ffffffffffffffffffffffffffffffffffffffff168473ffffffffffffffffffffffffffffffffffffffff161415612461576040517f08c379a000000000000000000000000000000000000000000000000000000000815260040161245890613b7c565b60405180910390fd5b600061246b6117e1565b905061248b81878761247c8861288b565b6124858861288b565b8761269c565b600080600086815260200190815260200160002060008873ffffffffffffffffffffffffffffffffffffffff1673ffffffffffffffffffffffffffffffffffffffff16815260200190815260200160002054905083811015612522576040517f08c379a000000000000000000000000000000000000000000000000000000000815260040161251990613bfc565b60405180910390fd5b83810360008087815260200190815260200160002060008973ffffffffffffffffffffffffffffffffffffffff1673ffffffffffffffffffffffffffffffffffffffff168152602001908152602001600020819055508360008087815260200190815260200160002060008873ffffffffffffffffffffffffffffffffffffffff1673ffffffffffffffffffffffffffffffffffffffff16815260200190815260200160002060008282546125d79190613f1d565b925050819055508573ffffffffffffffffffffffffffffffffffffffff168773ffffffffffffffffffffffffffffffffffffffff168373ffffffffffffffffffffffffffffffffffffffff167fc3d58168c5ae7397731d063d5bbf3d657854427343f4c083240f7aacaa2d0f628888604051612654929190613d57565b60405180910390a461266a828888888888612905565b50505050505050565b60008151905060006a636f6e736f6c652e6c6f679050602083016000808483855afa5050505050565b505050505050565b6126c38473ffffffffffffffffffffffffffffffffffffffff16612aec565b15612883578373ffffffffffffffffffffffffffffffffffffffff1663bc197c8187878686866040518663ffffffff1660e01b8152600401612709959493929190613890565b602060405180830381600087803b15801561272357600080fd5b505af192505050801561275457506040513d601f19601f820116820180604052508101906127519190613141565b60015b6127fa57612760614315565b806308c379a014156127bd57506127756149ff565b8061278057506127bf565b806040517f08c379a00000000000000000000000000000000000000000000000000000000081526004016127b49190613a0a565b60405180910390fd5b505b6040517f08c379a00000000000000000000000000000000000000000000000000000000081526004016127f190613a5c565b60405180910390fd5b63bc197c8160e01b7bffffffffffffffffffffffffffffffffffffffffffffffffffffffff1916817bffffffffffffffffffffffffffffffffffffffffffffffffffffffff191614612881576040517f08c379a000000000000000000000000000000000000000000000000000000000815260040161287890613a7c565b60405180910390fd5b505b505050505050565b60606000600167ffffffffffffffff8111156128aa576128a96142e6565b5b6040519080825280602002602001820160405280156128d85781602001602082028036833780820191505090505b50905082816000815181106128f0576128ef6142b7565b5b60200260200101818152505080915050919050565b6129248473ffffffffffffffffffffffffffffffffffffffff16612aec565b15612ae4578373ffffffffffffffffffffffffffffffffffffffff1663f23a6e6187878686866040518663ffffffff1660e01b815260040161296a9594939291906138f8565b602060405180830381600087803b15801561298457600080fd5b505af19250505080156129b557506040513d601f19601f820116820180604052508101906129b29190613141565b60015b612a5b576129c1614315565b806308c379a01415612a1e57506129d66149ff565b806129e15750612a20565b806040517f08c379a0000000000000000000000000000000000000000000000000000000008152600401612a159190613a0a565b60405180910390fd5b505b6040517f08c379a0000000000000000000000000000000000000000000000000000000008152600401612a5290613a5c565b60405180910390fd5b63f23a6e6160e01b7bffffffffffffffffffffffffffffffffffffffffffffffffffffffff1916817bffffffffffffffffffffffffffffffffffffffffffffffffffffffff191614612ae2576040517f08c379a0000000000000000000000000000000000000000000000000000000008152600401612ad990613a7c565b60405180910390fd5b505b505050505050565b600080823b905060008111915050919050565b828054612b0b906140f5565b90600052602060002090601f016020900481019282612b2d5760008555612b74565b82601f10612b4657805160ff1916838001178555612b74565b82800160010185558215612b74579182015b82811115612b73578251825591602001919060010190612b58565b5b509050612b819190612ba7565b5090565b6040518060a00160405280600590602082028036833780820191505090505090565b5b80821115612bc0576000816000905550600101612ba8565b5090565b6000612bd7612bd284613da5565b613d80565b90508083825260208201905082856020860282011115612bfa57612bf961433c565b5b60005b85811015612c2a5781612c108882612d28565b845260208401935060208301925050600181019050612bfd565b5050509392505050565b6000612c47612c4284613dd1565b613d80565b90508083825260208201905082856020860282011115612c6a57612c6961433c565b5b60005b85811015612c9a5781612c808882612e34565b845260208401935060208301925050600181019050612c6d565b5050509392505050565b6000612cb7612cb284613dfd565b613d80565b905082815260208101848484011115612cd357612cd2614341565b5b612cde8482856140b3565b509392505050565b6000612cf9612cf484613e2e565b613d80565b905082815260208101848484011115612d1557612d14614341565b5b612d208482856140b3565b509392505050565b600081359050612d3781614a95565b92915050565b600082601f830112612d5257612d51614337565b5b8135612d62848260208601612bc4565b91505092915050565b600082601f830112612d8057612d7f614337565b5b8135612d90848260208601612c34565b91505092915050565b600081359050612da881614aac565b92915050565b600081359050612dbd81614ac3565b92915050565b600081519050612dd281614ac3565b92915050565b600082601f830112612ded57612dec614337565b5b8135612dfd848260208601612ca4565b91505092915050565b600082601f830112612e1b57612e1a614337565b5b8135612e2b848260208601612ce6565b91505092915050565b600081359050612e4381614ada565b92915050565b600060208284031215612e5f57612e5e61434b565b5b6000612e6d84828501612d28565b91505092915050565b60008060408385031215612e8d57612e8c61434b565b5b6000612e9b85828601612d28565b9250506020612eac85828601612d28565b9150509250929050565b600080600080600060a08688031215612ed257612ed161434b565b5b6000612ee088828901612d28565b9550506020612ef188828901612d28565b945050604086013567ffffffffffffffff811115612f1257612f11614346565b5b612f1e88828901612d6b565b935050606086013567ffffffffffffffff811115612f3f57612f3e614346565b5b612f4b88828901612d6b565b925050608086013567ffffffffffffffff811115612f6c57612f6b614346565b5b612f7888828901612dd8565b9150509295509295909350565b600080600080600060a08688031215612fa157612fa061434b565b5b6000612faf88828901612d28565b9550506020612fc088828901612d28565b9450506040612fd188828901612e34565b9350506060612fe288828901612e34565b925050608086013567ffffffffffffffff81111561300357613002614346565b5b61300f88828901612dd8565b9150509295509295909350565b600080604083850312156130335761303261434b565b5b600061304185828601612d28565b925050602061305285828601612d99565b9150509250929050565b600080604083850312156130735761307261434b565b5b600061308185828601612d28565b925050602061309285828601612e34565b9150509250929050565b600080604083850312156130b3576130b261434b565b5b600083013567ffffffffffffffff8111156130d1576130d0614346565b5b6130dd85828601612d3d565b925050602083013567ffffffffffffffff8111156130fe576130fd614346565b5b61310a85828601612d6b565b9150509250929050565b60006020828403121561312a5761312961434b565b5b600061313884828501612dae565b91505092915050565b6000602082840312156131575761315661434b565b5b600061316584828501612dc3565b91505092915050565b6000602082840312156131845761318361434b565b5b600082013567ffffffffffffffff8111156131a2576131a1614346565b5b6131ae84828501612e06565b91505092915050565b6000602082840312156131cd576131cc61434b565b5b60006131db84828501612e34565b91505092915050565b600080604083850312156131fb576131fa61434b565b5b600061320985828601612e34565b925050602083013567ffffffffffffffff81111561322a57613229614346565b5b61323685828601612e06565b9150509250929050565b600061324c83836137ac565b60208301905092915050565b61326181614032565b82525050565b61327861327382614032565b6141cb565b82525050565b61328781613e8e565b6132918184613ed4565b925061329c82613e5f565b8060005b838110156132cd5781516132b48782613240565b96506132bf83613eba565b9250506001810190506132a0565b505050505050565b60006132e082613e99565b6132ea8185613edf565b93506132f583613e69565b8060005b8381101561332657815161330d8882613240565b975061331883613ec7565b9250506001810190506132f9565b5085935050505092915050565b61333c81614044565b82525050565b600061334d82613ea4565b6133578185613ef0565b93506133678185602086016140c2565b61337081614350565b840191505092915050565b600061338682613eaf565b6133908185613f01565b93506133a08185602086016140c2565b6133a981614350565b840191505092915050565b60006133bf82613eaf565b6133c98185613f12565b93506133d98185602086016140c2565b80840191505092915050565b600081546133f2816140f5565b6133fc8186613f12565b9450600182166000811461341757600181146134285761345b565b60ff1983168652818601935061345b565b61343185613e79565b60005b8381101561345357815481890152600182019150602081019050613434565b838801955050505b50505092915050565b6000613471603483613f01565b915061347c8261437b565b604082019050919050565b6000613494602883613f01565b915061349f826143ca565b604082019050919050565b60006134b7601b83613f01565b91506134c282614419565b602082019050919050565b60006134da602b83613f01565b91506134e582614442565b604082019050919050565b60006134fd602683613f01565b915061350882614491565b604082019050919050565b6000613520602483613f01565b915061352b826144e0565b604082019050919050565b6000613543602983613f01565b915061354e8261452f565b604082019050919050565b6000613566602d83613f01565b91506135718261457e565b604082019050919050565b6000613589601d83613f01565b9150613594826145cd565b602082019050919050565b60006135ac602583613f01565b91506135b7826145f6565b604082019050919050565b60006135cf603283613f01565b91506135da82614645565b604082019050919050565b60006135f2601483613f01565b91506135fd82614694565b602082019050919050565b6000613615602383613f01565b9150613620826146bd565b604082019050919050565b6000613638602a83613f01565b91506136438261470c565b604082019050919050565b600061365b600583613f12565b91506136668261475b565b600582019050919050565b600061367e602083613f01565b915061368982614784565b602082019050919050565b60006136a1602f83613f01565b91506136ac826147ad565b604082019050919050565b60006136c4602383613f01565b91506136cf826147fc565b604082019050919050565b60006136e7601f83613f01565b91506136f28261484b565b602082019050919050565b600061370a602a83613f01565b915061371582614874565b604082019050919050565b600061372d602983613f01565b9150613738826148c3565b604082019050919050565b6000613750602983613f01565b915061375b82614912565b604082019050919050565b6000613773602883613f01565b915061377e82614961565b604082019050919050565b6000613796602183613f01565b91506137a1826149b0565b604082019050919050565b6137b58161409c565b82525050565b6137c48161409c565b82525050565b6137db6137d68261409c565b6141ef565b82525050565b60006137ed82846133e5565b915081905092915050565b600061380482856133e5565b915061381082846133b4565b915061381b8261364e565b91508190509392505050565b600061383382876137ca565b6020820191506138438286613267565b60148201915061385382856137ca565b60208201915061386382846137ca565b60208201915081905095945050505050565b600060208201905061388a6000830184613258565b92915050565b600060a0820190506138a56000830188613258565b6138b26020830187613258565b81810360408301526138c481866132d5565b905081810360608301526138d881856132d5565b905081810360808301526138ec8184613342565b90509695505050505050565b600060a08201905061390d6000830188613258565b61391a6020830187613258565b61392760408301866137bb565b61393460608301856137bb565b81810360808301526139468184613342565b90509695505050505050565b60006040820190506139676000830185613258565b61397460208301846137bb565b9392505050565b600060a082019050613990600083018461327e565b92915050565b600060208201905081810360008301526139b081846132d5565b905092915050565b600060408201905081810360008301526139d281856132d5565b905081810360208301526139e681846132d5565b90509392505050565b6000602082019050613a046000830184613333565b92915050565b60006020820190508181036000830152613a24818461337b565b905092915050565b60006040820190508181036000830152613a46818561337b565b9050613a5560208301846137bb565b9392505050565b60006020820190508181036000830152613a7581613464565b9050919050565b60006020820190508181036000830152613a9581613487565b9050919050565b60006020820190508181036000830152613ab5816134aa565b9050919050565b60006020820190508181036000830152613ad5816134cd565b9050919050565b60006020820190508181036000830152613af5816134f0565b9050919050565b60006020820190508181036000830152613b1581613513565b9050919050565b60006020820190508181036000830152613b3581613536565b9050919050565b60006020820190508181036000830152613b5581613559565b9050919050565b60006020820190508181036000830152613b758161357c565b9050919050565b60006020820190508181036000830152613b958161359f565b9050919050565b60006020820190508181036000830152613bb5816135c2565b9050919050565b60006020820190508181036000830152613bd5816135e5565b9050919050565b60006020820190508181036000830152613bf581613608565b9050919050565b60006020820190508181036000830152613c158161362b565b9050919050565b60006020820190508181036000830152613c3581613671565b9050919050565b60006020820190508181036000830152613c5581613694565b9050919050565b60006020820190508181036000830152613c75816136b7565b9050919050565b60006020820190508181036000830152613c95816136da565b9050919050565b60006020820190508181036000830152613cb5816136fd565b9050919050565b60006020820190508181036000830152613cd581613720565b9050919050565b60006020820190508181036000830152613cf581613743565b9050919050565b60006020820190508181036000830152613d1581613766565b9050919050565b60006020820190508181036000830152613d3581613789565b9050919050565b6000602082019050613d5160008301846137bb565b92915050565b6000604082019050613d6c60008301856137bb565b613d7960208301846137bb565b9392505050565b6000613d8a613d9b565b9050613d968282614127565b919050565b6000604051905090565b600067ffffffffffffffff821115613dc057613dbf6142e6565b5b602082029050602081019050919050565b600067ffffffffffffffff821115613dec57613deb6142e6565b5b602082029050602081019050919050565b600067ffffffffffffffff821115613e1857613e176142e6565b5b613e2182614350565b9050602081019050919050565b600067ffffffffffffffff821115613e4957613e486142e6565b5b613e5282614350565b9050602081019050919050565b6000819050919050565b6000819050602082019050919050565b60008190508160005260206000209050919050565b600060059050919050565b600081519050919050565b600081519050919050565b600081519050919050565b6000602082019050919050565b6000602082019050919050565b600081905092915050565b600082825260208201905092915050565b600082825260208201905092915050565b600082825260208201905092915050565b600081905092915050565b6000613f288261409c565b9150613f338361409c565b9250827fffffffffffffffffffffffffffffffffffffffffffffffffffffffffffffffff03821115613f6857613f6761422a565b5b828201905092915050565b6000613f7e8261409c565b9150613f898361409c565b925082613f9957613f98614259565b5b828204905092915050565b6000613faf8261409c565b9150613fba8361409c565b9250817fffffffffffffffffffffffffffffffffffffffffffffffffffffffffffffffff0483118215151615613ff357613ff261422a565b5b828202905092915050565b60006140098261409c565b91506140148361409c565b9250828210156140275761402661422a565b5b828203905092915050565b600061403d8261407c565b9050919050565b60008115159050919050565b60007fffffffff0000000000000000000000000000000000000000000000000000000082169050919050565b600073ffffffffffffffffffffffffffffffffffffffff82169050919050565b6000819050919050565b600060ff82169050919050565b82818337600083830152505050565b60005b838110156140e05780820151818401526020810190506140c5565b838111156140ef576000848401525b50505050565b6000600282049050600182168061410d57607f821691505b6020821081141561412157614120614288565b5b50919050565b61413082614350565b810181811067ffffffffffffffff8211171561414f5761414e6142e6565b5b80604052505050565b60006141638261409c565b91507fffffffffffffffffffffffffffffffffffffffffffffffffffffffffffffffff8214156141965761419561422a565b5b600182019050919050565b60006141ac826140a6565b915060ff8214156141c0576141bf61422a565b5b600182019050919050565b60006141d6826141dd565b9050919050565b60006141e882614361565b9050919050565b6000819050919050565b60006142048261409c565b915061420f8361409c565b92508261421f5761421e614259565b5b828206905092915050565b7f4e487b7100000000000000000000000000000000000000000000000000000000600052601160045260246000fd5b7f4e487b7100000000000000000000000000000000000000000000000000000000600052601260045260246000fd5b7f4e487b7100000000000000000000000000000000000000000000000000000000600052602260045260246000fd5b7f4e487b7100000000000000000000000000000000000000000000000000000000600052603260045260246000fd5b7f4e487b7100000000000000000000000000000000000000000000000000000000600052604160045260246000fd5b600060033d11156143345760046000803e61433160005161436e565b90505b90565b600080fd5b600080fd5b600080fd5b600080fd5b600080fd5b6000601f19601f8301169050919050565b60008160601b9050919050565b60008160e01c9050919050565b7f455243313135353a207472616e7366657220746f206e6f6e204552433131353560008201527f526563656976657220696d706c656d656e746572000000000000000000000000602082015250565b7f455243313135353a204552433131353552656365697665722072656a6563746560008201527f6420746f6b656e73000000000000000000000000000000000000000000000000602082015250565b7f4e6f2072656d61696e696e6720626f6f73746572207061636b73210000000000600082015250565b7f455243313135353a2062616c616e636520717565727920666f7220746865207a60008201527f65726f2061646472657373000000000000000000000000000000000000000000602082015250565b7f4f776e61626c653a206e6577206f776e657220697320746865207a65726f206160008201527f6464726573730000000000000000000000000000000000000000000000000000602082015250565b7f455243313135353a206275726e20616d6f756e7420657863656564732062616c60008201527f616e636500000000000000000000000000000000000000000000000000000000602082015250565b7f455243313135353a2063616c6c6572206973206e6f74206f776e6572206e6f7260008201527f20617070726f7665640000000000000000000000000000000000000000000000602082015250565b7f416c6c206f662074686973206174686c657465206861766520616c726561647960008201527f206265656e206d696e7465642100000000000000000000000000000000000000602082015250565b7f5374617274696e6720696e64657820697320616c726561647920736574000000600082015250565b7f455243313135353a207472616e7366657220746f20746865207a65726f20616460008201527f6472657373000000000000000000000000000000000000000000000000000000602082015250565b7f455243313135353a207472616e736665722063616c6c6572206973206e6f742060008201527f6f776e6572206e6f7220617070726f7665640000000000000000000000000000602082015250565b7f43616e6e6f742073657420757269207477696365000000000000000000000000600082015250565b7f455243313135353a206275726e2066726f6d20746865207a65726f206164647260008201527f6573730000000000000000000000000000000000000000000000000000000000602082015250565b7f455243313135353a20696e73756666696369656e742062616c616e636520666f60008201527f72207472616e7366657200000000000000000000000000000000000000000000602082015250565b7f2e6a736f6e000000000000000000000000000000000000000000000000000000600082015250565b7f4f776e61626c653a2063616c6c6572206973206e6f7420746865206f776e6572600082015250565b7f5061636b2068617320616c7265616479206265656e206275726e6564206f722060008201527f646f6573206e6f742065786973742e0000000000000000000000000000000000602082015250565b7f416c6c207061636b73206861766520616c7265616479206265656e206d696e7460008201527f6564210000000000000000000000000000000000000000000000000000000000602082015250565b7f5061636b73206172656e277420726561647920746f206f70656e207965742100600082015250565b7f43616e206f6e6c79206d696e74206f6e652073746172746572207061636b207060008201527f6572206163636f756e7400000000000000000000000000000000000000000000602082015250565b7f455243313135353a2073657474696e6720617070726f76616c2073746174757360008201527f20666f722073656c660000000000000000000000000000000000000000000000602082015250565b7f455243313135353a206163636f756e747320616e6420696473206c656e67746860008201527f206d69736d617463680000000000000000000000000000000000000000000000602082015250565b7f455243313135353a2069647320616e6420616d6f756e7473206c656e6774682060008201527f6d69736d61746368000000000000000000000000000000000000000000000000602082015250565b7f455243313135353a206d696e7420746f20746865207a65726f2061646472657360008201527f7300000000000000000000000000000000000000000000000000000000000000602082015250565b600060443d1015614a0f57614a92565b614a17613d9b565b60043d036004823e80513d602482011167ffffffffffffffff82111715614a3f575050614a92565b808201805167ffffffffffffffff811115614a5d5750505050614a92565b80602083010160043d038501811115614a7a575050505050614a92565b614a8982602001850186614127565b82955050505050505b90565b614a9e81614032565b8114614aa957600080fd5b50565b614ab581614044565b8114614ac057600080fd5b50565b614acc81614050565b8114614ad757600080fd5b50565b614ae38161409c565b8114614aee57600080fd5b5056fea2646970667358221220bcdc319588fef1fd0d6b7ebd142270c51450ac08f29da254fbc428f9564d873764736f6c63430008070033",
  "linkReferences": {},
  "deployedLinkReferences": {}
}