{
  "_format": "hh-sol-artifact-1",
  "contractName": "GameItems",
  "sourceName": "contracts/GameItems.sol",
  "abi": [
    {
      "inputs": [
        {
          "components": [
            {
              "internalType": "uint256",
              "name": "_numAthletes",
              "type": "uint256"
            },
            {
              "internalType": "uint256",
              "name": "_nftPerAthlete",
              "type": "uint256"
            },
            {
              "internalType": "uint256",
              "name": "_starterPackSize",
              "type": "uint256"
            },
            {
              "internalType": "uint256",
              "name": "_boosterPackSize",
              "type": "uint256"
            },
            {
              "internalType": "uint256",
              "name": "_maxStarterPackBalance",
              "type": "uint256"
            },
            {
              "internalType": "uint256",
              "name": "_maxBoosterPackBalance",
              "type": "uint256"
            },
            {
              "internalType": "uint256",
              "name": "_maxPacks",
              "type": "uint256"
            },
            {
              "internalType": "uint256",
              "name": "_revealTimestamp",
              "type": "uint256"
            }
          ],
          "internalType": "struct GameItems.Parameters",
          "name": "params",
          "type": "tuple"
        },
        {
          "internalType": "string",
          "name": "_athleteURI",
          "type": "string"
        },
        {
          "internalType": "string",
          "name": "_starterPackURI",
          "type": "string"
        },
        {
          "internalType": "string",
          "name": "_boosterPackURI",
          "type": "string"
        }
      ],
      "stateMutability": "nonpayable",
      "type": "constructor"
    },
    {
      "anonymous": false,
      "inputs": [
        {
          "indexed": true,
          "internalType": "address",
          "name": "account",
          "type": "address"
        },
        {
          "indexed": true,
          "internalType": "address",
          "name": "operator",
          "type": "address"
        },
        {
          "indexed": false,
          "internalType": "bool",
          "name": "approved",
          "type": "bool"
        }
      ],
      "name": "ApprovalForAll",
      "type": "event"
    },
    {
      "anonymous": false,
      "inputs": [
        {
          "indexed": true,
          "internalType": "address",
          "name": "previousOwner",
          "type": "address"
        },
        {
          "indexed": true,
          "internalType": "address",
          "name": "newOwner",
          "type": "address"
        }
      ],
      "name": "OwnershipTransferred",
      "type": "event"
    },
    {
      "anonymous": false,
      "inputs": [
        {
          "indexed": true,
          "internalType": "address",
          "name": "operator",
          "type": "address"
        },
        {
          "indexed": true,
          "internalType": "address",
          "name": "from",
          "type": "address"
        },
        {
          "indexed": true,
          "internalType": "address",
          "name": "to",
          "type": "address"
        },
        {
          "indexed": false,
          "internalType": "uint256[]",
          "name": "ids",
          "type": "uint256[]"
        },
        {
          "indexed": false,
          "internalType": "uint256[]",
          "name": "values",
          "type": "uint256[]"
        }
      ],
      "name": "TransferBatch",
      "type": "event"
    },
    {
      "anonymous": false,
      "inputs": [
        {
          "indexed": true,
          "internalType": "address",
          "name": "operator",
          "type": "address"
        },
        {
          "indexed": true,
          "internalType": "address",
          "name": "from",
          "type": "address"
        },
        {
          "indexed": true,
          "internalType": "address",
          "name": "to",
          "type": "address"
        },
        {
          "indexed": false,
          "internalType": "uint256",
          "name": "id",
          "type": "uint256"
        },
        {
          "indexed": false,
          "internalType": "uint256",
          "name": "value",
          "type": "uint256"
        }
      ],
      "name": "TransferSingle",
      "type": "event"
    },
    {
      "anonymous": false,
      "inputs": [
        {
          "indexed": false,
          "internalType": "string",
          "name": "value",
          "type": "string"
        },
        {
          "indexed": true,
          "internalType": "uint256",
          "name": "id",
          "type": "uint256"
        }
      ],
      "name": "URI",
      "type": "event"
    },
    {
      "anonymous": false,
      "inputs": [
        {
          "indexed": false,
          "internalType": "uint256[5]",
          "name": "",
          "type": "uint256[5]"
        },
        {
          "indexed": false,
          "internalType": "address",
          "name": "signer",
          "type": "address"
        }
      ],
      "name": "packBurned",
      "type": "event"
    },
    {
      "anonymous": false,
      "inputs": [
        {
          "indexed": false,
          "internalType": "address",
          "name": "signer",
          "type": "address"
        },
        {
          "indexed": false,
          "internalType": "uint256",
          "name": "id",
          "type": "uint256"
        }
      ],
      "name": "packMinted",
      "type": "event"
    },
    {
      "inputs": [],
      "name": "REVEAL_TIMESTAMP",
      "outputs": [
        {
          "internalType": "uint256",
          "name": "",
          "type": "uint256"
        }
      ],
      "stateMutability": "view",
      "type": "function"
    },
    {
      "inputs": [
        {
          "internalType": "address",
          "name": "_userToAdd",
          "type": "address"
        }
      ],
      "name": "addUserToWhitelist",
      "outputs": [
        {
          "internalType": "bool",
          "name": "success",
          "type": "bool"
        }
      ],
      "stateMutability": "nonpayable",
      "type": "function"
    },
    {
      "inputs": [
        {
          "internalType": "address[]",
          "name": "addrs",
          "type": "address[]"
        }
      ],
      "name": "addUsersToWhitelist",
      "outputs": [
        {
          "internalType": "bool",
          "name": "success",
          "type": "bool"
        }
      ],
      "stateMutability": "nonpayable",
      "type": "function"
    },
    {
      "inputs": [],
      "name": "allowBoosterPacks",
      "outputs": [],
      "stateMutability": "nonpayable",
      "type": "function"
    },
    {
      "inputs": [
        {
          "internalType": "address",
          "name": "account",
          "type": "address"
        },
        {
          "internalType": "uint256",
          "name": "id",
          "type": "uint256"
        }
      ],
      "name": "balanceOf",
      "outputs": [
        {
          "internalType": "uint256",
          "name": "",
          "type": "uint256"
        }
      ],
      "stateMutability": "view",
      "type": "function"
    },
    {
      "inputs": [
        {
          "internalType": "address[]",
          "name": "accounts",
          "type": "address[]"
        },
        {
          "internalType": "uint256[]",
          "name": "ids",
          "type": "uint256[]"
        }
      ],
      "name": "balanceOfBatch",
      "outputs": [
        {
          "internalType": "uint256[]",
          "name": "",
          "type": "uint256[]"
        }
      ],
      "stateMutability": "view",
      "type": "function"
    },
    {
      "inputs": [],
      "name": "boosterPacksReadyToOpen",
      "outputs": [
        {
          "internalType": "bool",
          "name": "",
          "type": "bool"
        }
      ],
      "stateMutability": "view",
      "type": "function"
    },
    {
      "inputs": [],
      "name": "burnBoosterPack",
      "outputs": [],
      "stateMutability": "nonpayable",
      "type": "function"
    },
    {
      "inputs": [],
      "name": "burnStarterPack",
      "outputs": [],
      "stateMutability": "nonpayable",
      "type": "function"
    },
    {
      "inputs": [],
      "name": "getNFTPerAthlete",
      "outputs": [
        {
          "internalType": "uint256",
          "name": "",
          "type": "uint256"
        }
      ],
      "stateMutability": "view",
      "type": "function"
    },
    {
      "inputs": [],
      "name": "getNumWhitelisted",
      "outputs": [
        {
          "internalType": "uint256",
          "name": "",
          "type": "uint256"
        }
      ],
      "stateMutability": "view",
      "type": "function"
    },
    {
      "inputs": [
        {
          "internalType": "address",
          "name": "account",
          "type": "address"
        },
        {
          "internalType": "address",
          "name": "operator",
          "type": "address"
        }
      ],
      "name": "isApprovedForAll",
      "outputs": [
        {
          "internalType": "bool",
          "name": "",
          "type": "bool"
        }
      ],
      "stateMutability": "view",
      "type": "function"
    },
    {
      "inputs": [],
      "name": "mintBoosterPack",
      "outputs": [],
      "stateMutability": "nonpayable",
      "type": "function"
    },
    {
      "inputs": [],
      "name": "mintStarterPack",
      "outputs": [],
      "stateMutability": "nonpayable",
      "type": "function"
    },
    {
      "inputs": [],
      "name": "name",
      "outputs": [
        {
          "internalType": "string",
          "name": "",
          "type": "string"
        }
      ],
      "stateMutability": "view",
      "type": "function"
    },
    {
      "inputs": [],
      "name": "numWhitelisted",
      "outputs": [
        {
          "internalType": "uint256",
          "name": "",
          "type": "uint256"
        }
      ],
      "stateMutability": "view",
      "type": "function"
    },
    {
      "inputs": [],
      "name": "openPrivateSale",
      "outputs": [],
      "stateMutability": "nonpayable",
      "type": "function"
    },
    {
      "inputs": [],
      "name": "openPublicSale",
      "outputs": [],
      "stateMutability": "nonpayable",
      "type": "function"
    },
    {
      "inputs": [],
      "name": "owner",
      "outputs": [
        {
          "internalType": "address",
          "name": "",
          "type": "address"
        }
      ],
      "stateMutability": "view",
      "type": "function"
    },
    {
      "inputs": [],
      "name": "packsAvailable",
      "outputs": [
        {
          "internalType": "uint256",
          "name": "",
          "type": "uint256"
        }
      ],
      "stateMutability": "view",
      "type": "function"
    },
    {
      "inputs": [],
      "name": "packsReadyToOpen",
      "outputs": [
        {
          "internalType": "bool",
          "name": "",
          "type": "bool"
        }
      ],
      "stateMutability": "view",
      "type": "function"
    },
    {
      "inputs": [
        {
          "internalType": "address",
          "name": "_userToRemove",
          "type": "address"
        }
      ],
      "name": "removeUserFromWhitelist",
      "outputs": [
        {
          "internalType": "bool",
          "name": "success",
          "type": "bool"
        }
      ],
      "stateMutability": "nonpayable",
      "type": "function"
    },
    {
      "inputs": [
        {
          "internalType": "address[]",
          "name": "addrs",
          "type": "address[]"
        }
      ],
      "name": "removeUsersFromWhitelist",
      "outputs": [
        {
          "internalType": "bool",
          "name": "success",
          "type": "bool"
        }
      ],
      "stateMutability": "nonpayable",
      "type": "function"
    },
    {
      "inputs": [],
      "name": "renounceOwnership",
      "outputs": [],
      "stateMutability": "nonpayable",
      "type": "function"
    },
    {
      "inputs": [
        {
          "internalType": "address",
          "name": "from",
          "type": "address"
        },
        {
          "internalType": "address",
          "name": "to",
          "type": "address"
        },
        {
          "internalType": "uint256[]",
          "name": "ids",
          "type": "uint256[]"
        },
        {
          "internalType": "uint256[]",
          "name": "amounts",
          "type": "uint256[]"
        },
        {
          "internalType": "bytes",
          "name": "data",
          "type": "bytes"
        }
      ],
      "name": "safeBatchTransferFrom",
      "outputs": [],
      "stateMutability": "nonpayable",
      "type": "function"
    },
    {
      "inputs": [
        {
          "internalType": "address",
          "name": "from",
          "type": "address"
        },
        {
          "internalType": "address",
          "name": "to",
          "type": "address"
        },
        {
          "internalType": "uint256",
          "name": "id",
          "type": "uint256"
        },
        {
          "internalType": "uint256",
          "name": "amount",
          "type": "uint256"
        },
        {
          "internalType": "bytes",
          "name": "data",
          "type": "bytes"
        }
      ],
      "name": "safeTransferFrom",
      "outputs": [],
      "stateMutability": "nonpayable",
      "type": "function"
    },
    {
      "inputs": [
        {
          "internalType": "address",
          "name": "operator",
          "type": "address"
        },
        {
          "internalType": "bool",
          "name": "approved",
          "type": "bool"
        }
      ],
      "name": "setApprovalForAll",
      "outputs": [],
      "stateMutability": "nonpayable",
      "type": "function"
    },
    {
      "inputs": [],
      "name": "setPacksReady",
      "outputs": [],
      "stateMutability": "nonpayable",
      "type": "function"
    },
    {
      "inputs": [],
      "name": "setStartingIndex",
      "outputs": [],
      "stateMutability": "nonpayable",
      "type": "function"
    },
    {
      "inputs": [
        {
          "internalType": "uint256",
          "name": "tokenId",
          "type": "uint256"
        },
        {
          "internalType": "string",
          "name": "uri",
          "type": "string"
        }
      ],
      "name": "setTokenUri",
      "outputs": [],
      "stateMutability": "nonpayable",
      "type": "function"
    },
    {
      "inputs": [],
      "name": "setURIs",
      "outputs": [],
      "stateMutability": "nonpayable",
      "type": "function"
    },
    {
      "inputs": [
        {
          "internalType": "bytes4",
          "name": "interfaceId",
          "type": "bytes4"
        }
      ],
      "name": "supportsInterface",
      "outputs": [
        {
          "internalType": "bool",
          "name": "",
          "type": "bool"
        }
      ],
      "stateMutability": "view",
      "type": "function"
    },
    {
      "inputs": [
        {
          "internalType": "address",
          "name": "newOwner",
          "type": "address"
        }
      ],
      "name": "transferOwnership",
      "outputs": [],
      "stateMutability": "nonpayable",
      "type": "function"
    },
    {
      "inputs": [
        {
          "internalType": "uint256",
          "name": "tokenId",
          "type": "uint256"
        }
      ],
      "name": "uri",
      "outputs": [
        {
          "internalType": "string",
          "name": "",
          "type": "string"
        }
      ],
      "stateMutability": "view",
      "type": "function"
    },
    {
      "inputs": [
        {
          "internalType": "address",
          "name": "",
          "type": "address"
        }
      ],
      "name": "userToHasBurnedStarterPack",
      "outputs": [
        {
          "internalType": "bool",
          "name": "",
          "type": "bool"
        }
      ],
      "stateMutability": "view",
      "type": "function"
    },
    {
      "inputs": [
        {
          "internalType": "address",
          "name": "",
          "type": "address"
        }
      ],
      "name": "userToHasMintedStarterPack",
      "outputs": [
        {
          "internalType": "bool",
          "name": "",
          "type": "bool"
        }
      ],
      "stateMutability": "view",
      "type": "function"
    },
    {
      "inputs": [
        {
          "internalType": "address",
          "name": "",
          "type": "address"
        }
      ],
      "name": "usersBoosterPacksMinted",
      "outputs": [
        {
          "internalType": "uint256",
          "name": "",
          "type": "uint256"
        }
      ],
      "stateMutability": "view",
      "type": "function"
    },
    {
      "inputs": [
        {
          "internalType": "address",
          "name": "",
          "type": "address"
        }
      ],
      "name": "whitelist",
      "outputs": [
        {
          "internalType": "bool",
          "name": "",
          "type": "bool"
        }
      ],
      "stateMutability": "view",
      "type": "function"
    }
  ],
  "bytecode": "0x60806040526127106010556040518060400160405280600881526020017f5465616d446966660000000000000000000000000000000000000000000000008152506011908051906020019062000057929190620002c4565b5060405180602001604052806000815250601890805190602001906200007f929190620002c4565b503480156200008d57600080fd5b5060405162006126380380620061268339818101604052810190620000b39190620004e8565b6040518060400160405280600281526020017f5444000000000000000000000000000000000000000000000000000000000000815250620000fa81620001da60201b60201c565b506200011b6200010f620001f660201b60201c565b620001fe60201b60201c565b8360000151600d819055508360200151600e819055508360400151600781905550836060015160088190555083608001516009819055508360a00151600a819055508360c00151600b819055506101f4600c81905550826004908051906020019062000189929190620002c4565b508160059080519060200190620001a2929190620002c4565b508060069080519060200190620001bb929190620002c4565b508360e00151601081905550600b546021819055505050505062000768565b8060029080519060200190620001f2929190620002c4565b5050565b600033905090565b6000600360009054906101000a900473ffffffffffffffffffffffffffffffffffffffff16905081600360006101000a81548173ffffffffffffffffffffffffffffffffffffffff021916908373ffffffffffffffffffffffffffffffffffffffff1602179055508173ffffffffffffffffffffffffffffffffffffffff168173ffffffffffffffffffffffffffffffffffffffff167f8be0079c531659141344cd1fd0a4f28419497f9722a3daafe3b4186f6b6457e060405160405180910390a35050565b828054620002d2906200065a565b90600052602060002090601f016020900481019282620002f6576000855562000342565b82601f106200031157805160ff191683800117855562000342565b8280016001018555821562000342579182015b828111156200034157825182559160200191906001019062000324565b5b50905062000351919062000355565b5090565b5b808211156200037057600081600090555060010162000356565b5090565b60006200038b6200038584620005e4565b620005bb565b905082815260208101848484011115620003aa57620003a96200072e565b5b620003b784828562000624565b509392505050565b600082601f830112620003d757620003d662000724565b5b8151620003e984826020860162000374565b91505092915050565b600061010082840312156200040c576200040b62000729565b5b62000419610100620005bb565b905060006200042b84828501620004d1565b60008301525060206200044184828501620004d1565b60208301525060406200045784828501620004d1565b60408301525060606200046d84828501620004d1565b60608301525060806200048384828501620004d1565b60808301525060a06200049984828501620004d1565b60a08301525060c0620004af84828501620004d1565b60c08301525060e0620004c584828501620004d1565b60e08301525092915050565b600081519050620004e2816200074e565b92915050565b600080600080610160858703121562000506576200050562000738565b5b60006200051687828801620003f2565b94505061010085015167ffffffffffffffff8111156200053b576200053a62000733565b5b6200054987828801620003bf565b93505061012085015167ffffffffffffffff8111156200056e576200056d62000733565b5b6200057c87828801620003bf565b92505061014085015167ffffffffffffffff811115620005a157620005a062000733565b5b620005af87828801620003bf565b91505092959194509250565b6000620005c7620005da565b9050620005d5828262000690565b919050565b6000604051905090565b600067ffffffffffffffff821115620006025762000601620006f5565b5b6200060d826200073d565b9050602081019050919050565b6000819050919050565b60005b838110156200064457808201518184015260208101905062000627565b8381111562000654576000848401525b50505050565b600060028204905060018216806200067357607f821691505b602082108114156200068a5762000689620006c6565b5b50919050565b6200069b826200073d565b810181811067ffffffffffffffff82111715620006bd57620006bc620006f5565b5b80604052505050565b7f4e487b7100000000000000000000000000000000000000000000000000000000600052602260045260246000fd5b7f4e487b7100000000000000000000000000000000000000000000000000000000600052604160045260246000fd5b600080fd5b600080fd5b600080fd5b600080fd5b600080fd5b6000601f19601f8301169050919050565b62000759816200061a565b81146200076557600080fd5b50565b6159ae80620007786000396000f3fe608060405234801561001057600080fd5b50600436106102315760003560e01c80638d21c77011610130578063bbb13e17116100b8578063e985e9c51161007c578063e985e9c51461060c578063e98665501461063c578063f242432a14610646578063f2fde38b14610662578063f9902bb11461067e57610231565b8063bbb13e1714610566578063be59ec2614610570578063cb6bfdb91461058e578063d759000b146105be578063e2bd21bc146105dc57610231565b8063a22cb465116100ff578063a22cb465146104e8578063a6ad4c0114610504578063a788f4f41461050e578063ac4c07d41461052c578063b585209b1461055c57610231565b80638d21c770146104605780638da5cb5b146104905780639b19251a146104ae5780639ebf488b146104de57610231565b806344eaa84e116101be5780635ae698ff116101825780635ae698ff146103e25780635d2db2bf14610412578063715018a61461041c578063747b80501461042657806375223f921461045657610231565b806344eaa84e146103505780634e1273f41461036e5780634f3551d71461039e57806354dacb96146103a857806357f7789e146103c657610231565b8063143cc14411610205578063143cc144146102e457806318e20a381461030257806319b60439146103205780632eb2c2d61461032a5780634190a9221461034657610231565b8062fdd58e1461023657806301ffc9a71461026657806306fdde03146102965780630e89341c146102b4575b600080fd5b610250600480360381019061024b9190613bd4565b6106ae565b60405161025d9190614a35565b60405180910390f35b610280600480360381019061027b9190613cd5565b610777565b60405161028d9190614658565b60405180910390f35b61029e610859565b6040516102ab9190614673565b60405180910390f35b6102ce60048036038101906102c99190613d2f565b6108e7565b6040516102db9190614673565b60405180910390f35b6102ec61098c565b6040516102f99190614a35565b60405180910390f35b61030a610996565b6040516103179190614a35565b60405180910390f35b61032861099c565b005b610344600480360381019061033f9190613a2e565b610a44565b005b61034e610ae5565b005b610358610b7e565b6040516103659190614a35565b60405180910390f35b61038860048036038101906103839190613c5d565b610b88565b60405161039591906145ff565b60405180910390f35b6103a6610ca1565b005b6103b0610f21565b6040516103bd9190614a35565b60405180910390f35b6103e060048036038101906103db9190613d5c565b610f27565b005b6103fc60048036038101906103f79190613c14565b611031565b6040516104099190614658565b60405180910390f35b61041a611101565b005b610424611258565b005b610440600480360381019061043b91906139c1565b6112e0565b60405161044d9190614658565b60405180910390f35b61045e61142b565b005b61047a60048036038101906104759190613c14565b61153b565b6040516104879190614658565b60405180910390f35b61049861160b565b6040516104a591906144d0565b60405180910390f35b6104c860048036038101906104c391906139c1565b611635565b6040516104d59190614658565b60405180910390f35b6104e6611655565b005b61050260048036038101906104fd9190613b94565b61195c565b005b61050c611972565b005b610516611a0b565b6040516105239190614658565b60405180910390f35b610546600480360381019061054191906139c1565b611a1e565b6040516105539190614a35565b60405180910390f35b610564611a36565b005b61056e611acf565b005b610578611cf1565b6040516105859190614658565b60405180910390f35b6105a860048036038101906105a391906139c1565b611d04565b6040516105b59190614658565b60405180910390f35b6105c6611d24565b6040516105d39190614a35565b60405180910390f35b6105f660048036038101906105f191906139c1565b611d2a565b6040516106039190614658565b60405180910390f35b610626600480360381019061062191906139ee565b611d4a565b6040516106339190614658565b60405180910390f35b610644611dde565b005b610660600480360381019061065b9190613afd565b611eb5565b005b61067c600480360381019061067791906139c1565b611f56565b005b610698600480360381019061069391906139c1565b61204e565b6040516106a59190614658565b60405180910390f35b60008073ffffffffffffffffffffffffffffffffffffffff168373ffffffffffffffffffffffffffffffffffffffff16141561071f576040517f08c379a000000000000000000000000000000000000000000000000000000000815260040161071690614715565b60405180910390fd5b60008083815260200190815260200160002060008473ffffffffffffffffffffffffffffffffffffffff1673ffffffffffffffffffffffffffffffffffffffff16815260200190815260200160002054905092915050565b60007fd9b67a26000000000000000000000000000000000000000000000000000000007bffffffffffffffffffffffffffffffffffffffffffffffffffffffff1916827bffffffffffffffffffffffffffffffffffffffffffffffffffffffff1916148061084257507f0e89341c000000000000000000000000000000000000000000000000000000007bffffffffffffffffffffffffffffffffffffffffffffffffffffffff1916827bffffffffffffffffffffffffffffffffffffffffffffffffffffffff1916145b8061085257506108518261219a565b5b9050919050565b6011805461086690614dee565b80601f016020809104026020016040519081016040528092919081815260200182805461089290614dee565b80156108df5780601f106108b4576101008083540402835291602001916108df565b820191906000526020600020905b8154815290600101906020018083116108c257829003601f168201915b505050505081565b606060256000838152602001908152602001600020805461090790614dee565b80601f016020809104026020016040519081016040528092919081815260200182805461093390614dee565b80156109805780601f1061095557610100808354040283529160200191610980565b820191906000526020600020905b81548152906001019060200180831161096357829003601f168201915b50505050509050919050565b6000600e54905090565b60105481565b6109a4612204565b73ffffffffffffffffffffffffffffffffffffffff166109c261160b565b73ffffffffffffffffffffffffffffffffffffffff1614610a18576040517f08c379a0000000000000000000000000000000000000000000000000000000008152600401610a0f906148d5565b60405180910390fd5b601260009054906101000a900460ff1615601260006101000a81548160ff021916908315150217905550565b610a4c612204565b73ffffffffffffffffffffffffffffffffffffffff168573ffffffffffffffffffffffffffffffffffffffff161480610a925750610a9185610a8c612204565b611d4a565b5b610ad1576040517f08c379a0000000000000000000000000000000000000000000000000000000008152600401610ac890614815565b60405180910390fd5b610ade858585858561220c565b5050505050565b610aed612204565b73ffffffffffffffffffffffffffffffffffffffff16610b0b61160b565b73ffffffffffffffffffffffffffffffffffffffff1614610b61576040517f08c379a0000000000000000000000000000000000000000000000000000000008152600401610b58906148d5565b60405180910390fd5b6001601260016101000a81548160ff021916908315150217905550565b6000602354905090565b60608151835114610bce576040517f08c379a0000000000000000000000000000000000000000000000000000000008152600401610bc5906149b5565b60405180910390fd5b6000835167ffffffffffffffff811115610beb57610bea614fdf565b5b604051908082528060200260200182016040528015610c195781602001602082028036833780820191505090505b50905060005b8451811015610c9657610c66858281518110610c3e57610c3d614fb0565b5b6020026020010151858381518110610c5957610c58614fb0565b5b60200260200101516106ae565b828281518110610c7957610c78614fb0565b5b60200260200101818152505080610c8f90614e51565b9050610c1f565b508091505092915050565b601260019054906101000a900460ff16610cf0576040517f08c379a0000000000000000000000000000000000000000000000000000000008152600401610ce790614875565b60405180910390fd5b600c5460145410610d36576040517f08c379a0000000000000000000000000000000000000000000000000000000008152600401610d2d906147d5565b60405180910390fd5b602860003373ffffffffffffffffffffffffffffffffffffffff1673ffffffffffffffffffffffffffffffffffffffff16815260200190815260200160002060009054906101000a900460ff16610dc2576040517f08c379a0000000000000000000000000000000000000000000000000000000008152600401610db9906146f5565b60405180910390fd5b6002602960003373ffffffffffffffffffffffffffffffffffffffff1673ffffffffffffffffffffffffffffffffffffffff168152602001908152602001600020541115610e45576040517f08c379a0000000000000000000000000000000000000000000000000000000008152600401610e3c90614935565b60405180910390fd5b602960003373ffffffffffffffffffffffffffffffffffffffff1673ffffffffffffffffffffffffffffffffffffffff1681526020019081526020016000206000815480929190610e9590614e51565b919050555060006001600d54610eab9190614c16565b9050610ec93382600160405180602001604052806000815250612520565b600160146000828254610edc9190614c16565b925050819055507f2e0f4d63dcc00e6a11c8aef9f6e15c1f9cd6e9a090b2dd99c7b797f1a28d300d33601454604051610f169291906145ad565b60405180910390a150565b60235481565b610f2f612204565b73ffffffffffffffffffffffffffffffffffffffff16610f4d61160b565b73ffffffffffffffffffffffffffffffffffffffff1614610fa3576040517f08c379a0000000000000000000000000000000000000000000000000000000008152600401610f9a906148d5565b60405180910390fd5b6000602560008481526020019081526020016000208054610fc390614dee565b905014611005576040517f08c379a0000000000000000000000000000000000000000000000000000000008152600401610ffc90614835565b60405180910390fd5b8060256000848152602001908152602001600020908051906020019061102c929190613655565b505050565b600061103b612204565b73ffffffffffffffffffffffffffffffffffffffff1661105961160b565b73ffffffffffffffffffffffffffffffffffffffff16146110af576040517f08c379a00000000000000000000000000000000000000000000000000000000081526004016110a6906148d5565b60405180910390fd5b60005b82518110156110fb576110de8382815181106110d1576110d0614fb0565b5b60200260200101516112e0565b156110e857600191505b80806110f390614e51565b9150506110b2565b50919050565b611109612204565b73ffffffffffffffffffffffffffffffffffffffff1661112761160b565b73ffffffffffffffffffffffffffffffffffffffff161461117d576040517f08c379a0000000000000000000000000000000000000000000000000000000008152600401611174906148d5565b60405180910390fd5b60005b600d548110156111f1576000600d548260175461119d9190614c16565b6111a79190614ef2565b90506111dd8160046111b8846126b6565b6040516020016111c9929190614442565b604051602081830303815290604052610f27565b5080806111e990614e51565b915050611180565b5061121e600d54600560405160200161120a919061442b565b604051602081830303815290604052610f27565b6112566001600d546112309190614c16565b6006604051602001611242919061442b565b604051602081830303815290604052610f27565b565b611260612204565b73ffffffffffffffffffffffffffffffffffffffff1661127e61160b565b73ffffffffffffffffffffffffffffffffffffffff16146112d4576040517f08c379a00000000000000000000000000000000000000000000000000000000081526004016112cb906148d5565b60405180910390fd5b6112de6000612817565b565b60006112ea612204565b73ffffffffffffffffffffffffffffffffffffffff1661130861160b565b73ffffffffffffffffffffffffffffffffffffffff161461135e576040517f08c379a0000000000000000000000000000000000000000000000000000000008152600401611355906148d5565b60405180910390fd5b602260008373ffffffffffffffffffffffffffffffffffffffff1673ffffffffffffffffffffffffffffffffffffffff16815260200190815260200160002060009054906101000a900460ff16611426576001602260008473ffffffffffffffffffffffffffffffffffffffff1673ffffffffffffffffffffffffffffffffffffffff16815260200190815260200160002060006101000a81548160ff02191690831515021790555060016023600082825461141a9190614c16565b92505081905550600190505b919050565b60006001600d5461143c9190614c16565b9050601260019054906101000a900460ff1661148d576040517f08c379a000000000000000000000000000000000000000000000000000000000815260040161148490614955565b60405180910390fd5b600061149933836106ae565b116114d9576040517f08c379a00000000000000000000000000000000000000000000000000000000081526004016114d0906146d5565b60405180910390fd5b60006114e36128dd565b905060005b60038160ff16101561152a57611517828260ff166003811061150d5761150c614fb0565b5b60200201516129f1565b808061152290614e9a565b9150506114e8565b5061153733836001612aec565b5050565b6000611545612204565b73ffffffffffffffffffffffffffffffffffffffff1661156361160b565b73ffffffffffffffffffffffffffffffffffffffff16146115b9576040517f08c379a00000000000000000000000000000000000000000000000000000000081526004016115b0906148d5565b60405180910390fd5b60005b8251811015611605576115e88382815181106115db576115da614fb0565b5b602002602001015161204e565b156115f257600191505b80806115fd90614e51565b9150506115bc565b50919050565b6000600360009054906101000a900473ffffffffffffffffffffffffffffffffffffffff16905090565b60226020528060005260406000206000915054906101000a900460ff1681565b602460009054906101000a900460ff168061167c5750602460019054906101000a900460ff165b6116bb576040517f08c379a00000000000000000000000000000000000000000000000000000000081526004016116b2906149f5565b60405180910390fd5b602460009054906101000a900460ff1680156116e45750602460019054906101000a900460ff16155b1561177657602260003373ffffffffffffffffffffffffffffffffffffffff1673ffffffffffffffffffffffffffffffffffffffff16815260200190815260200160002060009054906101000a900460ff16611775576040517f08c379a000000000000000000000000000000000000000000000000000000000815260040161176c90614795565b60405180910390fd5b5b600b54601354106117bc576040517f08c379a00000000000000000000000000000000000000000000000000000000081526004016117b390614915565b60405180910390fd5b602860003373ffffffffffffffffffffffffffffffffffffffff1673ffffffffffffffffffffffffffffffffffffffff16815260200190815260200160002060009054906101000a900460ff1615611849576040517f08c379a000000000000000000000000000000000000000000000000000000000815260040161184090614975565b60405180910390fd5b6001602860003373ffffffffffffffffffffffffffffffffffffffff1673ffffffffffffffffffffffffffffffffffffffff16815260200190815260200160002060006101000a81548160ff0219169083151502179055506000600d5490506118ea338260016040518060400160405280600481526020017f3078303000000000000000000000000000000000000000000000000000000000815250612520565b6001601360008282546118fd9190614c16565b925050819055506001602160008282546119179190614cf7565b925050819055507f2e0f4d63dcc00e6a11c8aef9f6e15c1f9cd6e9a090b2dd99c7b797f1a28d300d336013546040516119519291906145ad565b60405180910390a150565b61196e611967612204565b8383612d09565b5050565b61197a612204565b73ffffffffffffffffffffffffffffffffffffffff1661199861160b565b73ffffffffffffffffffffffffffffffffffffffff16146119ee576040517f08c379a00000000000000000000000000000000000000000000000000000000081526004016119e5906148d5565b60405180910390fd5b6001602460006101000a81548160ff021916908315150217905550565b601260019054906101000a900460ff1681565b60296020528060005260406000206000915090505481565b611a3e612204565b73ffffffffffffffffffffffffffffffffffffffff16611a5c61160b565b73ffffffffffffffffffffffffffffffffffffffff1614611ab2576040517f08c379a0000000000000000000000000000000000000000000000000000000008152600401611aa9906148d5565b60405180910390fd5b6001602460016101000a81548160ff021916908315150217905550565b6000600d549050602760003373ffffffffffffffffffffffffffffffffffffffff1673ffffffffffffffffffffffffffffffffffffffff16815260200190815260200160002060009054906101000a900460ff1615611b63576040517f08c379a0000000000000000000000000000000000000000000000000000000008152600401611b5a906148b5565b60405180910390fd5b601260009054906101000a900460ff16611bb2576040517f08c379a0000000000000000000000000000000000000000000000000000000008152600401611ba990614955565b60405180910390fd5b6000611bbe33836106ae565b11611bfe576040517f08c379a0000000000000000000000000000000000000000000000000000000008152600401611bf5906148f5565b60405180910390fd5b6001602760003373ffffffffffffffffffffffffffffffffffffffff1673ffffffffffffffffffffffffffffffffffffffff16815260200190815260200160002060006101000a81548160ff0219169083151502179055506000611c60612e76565b905060005b60058160ff161015611ca757611c94828260ff1660058110611c8a57611c89614fb0565b5b60200201516129f1565b8080611c9f90614e9a565b915050611c65565b50611cb433836001612aec565b7f15abe0b63b201b70614c230381f0fabc4a26a1957629948558095a11db1d6fb58133604051611ce59291906145d6565b60405180910390a15050565b601260009054906101000a900460ff1681565b60286020528060005260406000206000915054906101000a900460ff1681565b60215481565b60276020528060005260406000206000915054906101000a900460ff1681565b6000600160008473ffffffffffffffffffffffffffffffffffffffff1673ffffffffffffffffffffffffffffffffffffffff16815260200190815260200160002060008373ffffffffffffffffffffffffffffffffffffffff1673ffffffffffffffffffffffffffffffffffffffff16815260200190815260200160002060009054906101000a900460ff16905092915050565b611de6612204565b73ffffffffffffffffffffffffffffffffffffffff16611e0461160b565b73ffffffffffffffffffffffffffffffffffffffff1614611e5a576040517f08c379a0000000000000000000000000000000000000000000000000000000008152600401611e51906148d5565b60405180910390fd5b600e54600d54611e6a9190614c9d565b600143611e779190614cf7565b4060001c611e859190614ef2565b60178190555060006017541415611eb357611eac6001601754612f5a90919063ffffffff16565b6017819055505b565b611ebd612204565b73ffffffffffffffffffffffffffffffffffffffff168573ffffffffffffffffffffffffffffffffffffffff161480611f035750611f0285611efd612204565b611d4a565b5b611f42576040517f08c379a0000000000000000000000000000000000000000000000000000000008152600401611f3990614775565b60405180910390fd5b611f4f8585858585612f70565b5050505050565b611f5e612204565b73ffffffffffffffffffffffffffffffffffffffff16611f7c61160b565b73ffffffffffffffffffffffffffffffffffffffff1614611fd2576040517f08c379a0000000000000000000000000000000000000000000000000000000008152600401611fc9906148d5565b60405180910390fd5b600073ffffffffffffffffffffffffffffffffffffffff168173ffffffffffffffffffffffffffffffffffffffff161415612042576040517f08c379a000000000000000000000000000000000000000000000000000000000815260040161203990614735565b60405180910390fd5b61204b81612817565b50565b6000612058612204565b73ffffffffffffffffffffffffffffffffffffffff1661207661160b565b73ffffffffffffffffffffffffffffffffffffffff16146120cc576040517f08c379a00000000000000000000000000000000000000000000000000000000081526004016120c3906148d5565b60405180910390fd5b602260008373ffffffffffffffffffffffffffffffffffffffff1673ffffffffffffffffffffffffffffffffffffffff16815260200190815260200160002060009054906101000a900460ff1615612195576000602260008473ffffffffffffffffffffffffffffffffffffffff1673ffffffffffffffffffffffffffffffffffffffff16815260200190815260200160002060006101000a81548160ff0219169083151502179055506001602360008282546121899190614cf7565b92505081905550600190505b919050565b60007f01ffc9a7000000000000000000000000000000000000000000000000000000007bffffffffffffffffffffffffffffffffffffffffffffffffffffffff1916827bffffffffffffffffffffffffffffffffffffffffffffffffffffffff1916149050919050565b600033905090565b8151835114612250576040517f08c379a0000000000000000000000000000000000000000000000000000000008152600401612247906149d5565b60405180910390fd5b600073ffffffffffffffffffffffffffffffffffffffff168473ffffffffffffffffffffffffffffffffffffffff1614156122c0576040517f08c379a00000000000000000000000000000000000000000000000000000000081526004016122b7906147f5565b60405180910390fd5b60006122ca612204565b90506122da8187878787876131f2565b60005b845181101561248b5760008582815181106122fb576122fa614fb0565b5b60200260200101519050600085838151811061231a57612319614fb0565b5b60200260200101519050600080600084815260200190815260200160002060008b73ffffffffffffffffffffffffffffffffffffffff1673ffffffffffffffffffffffffffffffffffffffff168152602001908152602001600020549050818110156123bb576040517f08c379a00000000000000000000000000000000000000000000000000000000081526004016123b290614895565b60405180910390fd5b81810360008085815260200190815260200160002060008c73ffffffffffffffffffffffffffffffffffffffff1673ffffffffffffffffffffffffffffffffffffffff168152602001908152602001600020819055508160008085815260200190815260200160002060008b73ffffffffffffffffffffffffffffffffffffffff1673ffffffffffffffffffffffffffffffffffffffff16815260200190815260200160002060008282546124709190614c16565b925050819055505050508061248490614e51565b90506122dd565b508473ffffffffffffffffffffffffffffffffffffffff168673ffffffffffffffffffffffffffffffffffffffff168273ffffffffffffffffffffffffffffffffffffffff167f4a39dc06d4c0dbc64b70af90fd698a233a518aa5d07e595d983b8c0526c8f7fb8787604051612502929190614621565b60405180910390a46125188187878787876131fa565b505050505050565b600073ffffffffffffffffffffffffffffffffffffffff168473ffffffffffffffffffffffffffffffffffffffff161415612590576040517f08c379a000000000000000000000000000000000000000000000000000000000815260040161258790614a15565b60405180910390fd5b600061259a612204565b90506125bb816000876125ac886133e1565b6125b5886133e1565b876131f2565b8260008086815260200190815260200160002060008773ffffffffffffffffffffffffffffffffffffffff1673ffffffffffffffffffffffffffffffffffffffff168152602001908152602001600020600082825461261a9190614c16565b925050819055508473ffffffffffffffffffffffffffffffffffffffff16600073ffffffffffffffffffffffffffffffffffffffff168273ffffffffffffffffffffffffffffffffffffffff167fc3d58168c5ae7397731d063d5bbf3d657854427343f4c083240f7aacaa2d0f628787604051612698929190614a50565b60405180910390a46126af8160008787878761345b565b5050505050565b606060008214156126fe576040518060400160405280600181526020017f30000000000000000000000000000000000000000000000000000000000000008152509050612812565b600082905060005b6000821461273057808061271990614e51565b915050600a826127299190614c6c565b9150612706565b60008167ffffffffffffffff81111561274c5761274b614fdf565b5b6040519080825280601f01601f19166020018201604052801561277e5781602001600182028036833780820191505090505b5090505b6000851461280b576001826127979190614cf7565b9150600a856127a69190614ef2565b60306127b29190614c16565b60f81b8183815181106127c8576127c7614fb0565b5b60200101907effffffffffffffffffffffffffffffffffffffffffffffffffffffffffffff1916908160001a905350600a856128049190614c6c565b9450612782565b8093505050505b919050565b6000600360009054906101000a900473ffffffffffffffffffffffffffffffffffffffff16905081600360006101000a81548173ffffffffffffffffffffffffffffffffffffffff021916908373ffffffffffffffffffffffffffffffffffffffff1602179055508173ffffffffffffffffffffffffffffffffffffffff168173ffffffffffffffffffffffffffffffffffffffff167f8be0079c531659141344cd1fd0a4f28419497f9722a3daafe3b4186f6b6457e060405160405180910390a35050565b6128e56136db565b6128ed6136db565b60006005436128fc9190614ef2565b905060005b60038110156129e8576005826129179190614ef2565b91506000600a836129289190614c9d565b905060006009600a8561293b9190614c9d565b6129459190614c16565b905081600183836129569190614cf7565b6129609190614c16565b4233448760145460405160200161297b959493929190614471565b6040516020818303038152906040528051906020012060001c61299e9190614ef2565b6129a89190614c16565b8584600381106129bb576129ba614fb0565b5b6020020181815250506001846129d19190614c16565b9350505080806129e090614e51565b915050612901565b50819250505090565b600e54600d54612a019190614c9d565b6015541015612ae957600e54602660008381526020019081526020016000205410612a61576040517f08c379a0000000000000000000000000000000000000000000000000000000008152600401612a58906147b5565b60405180910390fd5b612aa3338260016040518060400160405280600481526020017f3078303000000000000000000000000000000000000000000000000000000000815250612520565b6001602660008381526020019081526020016000206000828254612ac79190614c16565b92505081905550600160156000828254612ae19190614c16565b925050819055505b50565b600073ffffffffffffffffffffffffffffffffffffffff168373ffffffffffffffffffffffffffffffffffffffff161415612b5c576040517f08c379a0000000000000000000000000000000000000000000000000000000008152600401612b5390614855565b60405180910390fd5b6000612b66612204565b9050612b9681856000612b78876133e1565b612b81876133e1565b604051806020016040528060008152506131f2565b600080600085815260200190815260200160002060008673ffffffffffffffffffffffffffffffffffffffff1673ffffffffffffffffffffffffffffffffffffffff16815260200190815260200160002054905082811015612c2d576040517f08c379a0000000000000000000000000000000000000000000000000000000008152600401612c2490614755565b60405180910390fd5b82810360008086815260200190815260200160002060008773ffffffffffffffffffffffffffffffffffffffff1673ffffffffffffffffffffffffffffffffffffffff16815260200190815260200160002081905550600073ffffffffffffffffffffffffffffffffffffffff168573ffffffffffffffffffffffffffffffffffffffff168373ffffffffffffffffffffffffffffffffffffffff167fc3d58168c5ae7397731d063d5bbf3d657854427343f4c083240f7aacaa2d0f628787604051612cfa929190614a50565b60405180910390a45050505050565b8173ffffffffffffffffffffffffffffffffffffffff168373ffffffffffffffffffffffffffffffffffffffff161415612d78576040517f08c379a0000000000000000000000000000000000000000000000000000000008152600401612d6f90614995565b60405180910390fd5b80600160008573ffffffffffffffffffffffffffffffffffffffff1673ffffffffffffffffffffffffffffffffffffffff16815260200190815260200160002060008473ffffffffffffffffffffffffffffffffffffffff1673ffffffffffffffffffffffffffffffffffffffff16815260200190815260200160002060006101000a81548160ff0219169083151502179055508173ffffffffffffffffffffffffffffffffffffffff168373ffffffffffffffffffffffffffffffffffffffff167f17307eab39ab6107e8899845ad3d59bd9653f200f220920489ca2b5937696c3183604051612e699190614658565b60405180910390a3505050565b612e7e6136fd565b612e866136fd565b60005b6005811015612f52576000600a82612ea19190614c9d565b905060006009600a84612eb49190614c9d565b612ebe9190614c16565b90508160018383612ecf9190614cf7565b612ed99190614c16565b42334487601354604051602001612ef4959493929190614471565b6040516020818303038152906040528051906020012060001c612f179190614ef2565b612f219190614c16565b848460058110612f3457612f33614fb0565b5b60200201818152505050508080612f4a90614e51565b915050612e89565b508091505090565b60008183612f689190614c16565b905092915050565b600073ffffffffffffffffffffffffffffffffffffffff168473ffffffffffffffffffffffffffffffffffffffff161415612fe0576040517f08c379a0000000000000000000000000000000000000000000000000000000008152600401612fd7906147f5565b60405180910390fd5b6000612fea612204565b905061300a818787612ffb886133e1565b613004886133e1565b876131f2565b600080600086815260200190815260200160002060008873ffffffffffffffffffffffffffffffffffffffff1673ffffffffffffffffffffffffffffffffffffffff168152602001908152602001600020549050838110156130a1576040517f08c379a000000000000000000000000000000000000000000000000000000000815260040161309890614895565b60405180910390fd5b83810360008087815260200190815260200160002060008973ffffffffffffffffffffffffffffffffffffffff1673ffffffffffffffffffffffffffffffffffffffff168152602001908152602001600020819055508360008087815260200190815260200160002060008873ffffffffffffffffffffffffffffffffffffffff1673ffffffffffffffffffffffffffffffffffffffff16815260200190815260200160002060008282546131569190614c16565b925050819055508573ffffffffffffffffffffffffffffffffffffffff168773ffffffffffffffffffffffffffffffffffffffff168373ffffffffffffffffffffffffffffffffffffffff167fc3d58168c5ae7397731d063d5bbf3d657854427343f4c083240f7aacaa2d0f6288886040516131d3929190614a50565b60405180910390a46131e982888888888861345b565b50505050505050565b505050505050565b6132198473ffffffffffffffffffffffffffffffffffffffff16613642565b156133d9578373ffffffffffffffffffffffffffffffffffffffff1663bc197c8187878686866040518663ffffffff1660e01b815260040161325f9594939291906144eb565b602060405180830381600087803b15801561327957600080fd5b505af19250505080156132aa57506040513d601f19601f820116820180604052508101906132a79190613d02565b60015b613350576132b661500e565b806308c379a0141561331357506132cb615886565b806132d65750613315565b806040517f08c379a000000000000000000000000000000000000000000000000000000000815260040161330a9190614673565b60405180910390fd5b505b6040517f08c379a000000000000000000000000000000000000000000000000000000000815260040161334790614695565b60405180910390fd5b63bc197c8160e01b7bffffffffffffffffffffffffffffffffffffffffffffffffffffffff1916817bffffffffffffffffffffffffffffffffffffffffffffffffffffffff1916146133d7576040517f08c379a00000000000000000000000000000000000000000000000000000000081526004016133ce906146b5565b60405180910390fd5b505b505050505050565b60606000600167ffffffffffffffff811115613400576133ff614fdf565b5b60405190808252806020026020018201604052801561342e5781602001602082028036833780820191505090505b509050828160008151811061344657613445614fb0565b5b60200260200101818152505080915050919050565b61347a8473ffffffffffffffffffffffffffffffffffffffff16613642565b1561363a578373ffffffffffffffffffffffffffffffffffffffff1663f23a6e6187878686866040518663ffffffff1660e01b81526004016134c0959493929190614553565b602060405180830381600087803b1580156134da57600080fd5b505af192505050801561350b57506040513d601f19601f820116820180604052508101906135089190613d02565b60015b6135b15761351761500e565b806308c379a01415613574575061352c615886565b806135375750613576565b806040517f08c379a000000000000000000000000000000000000000000000000000000000815260040161356b9190614673565b60405180910390fd5b505b6040517f08c379a00000000000000000000000000000000000000000000000000000000081526004016135a890614695565b60405180910390fd5b63f23a6e6160e01b7bffffffffffffffffffffffffffffffffffffffffffffffffffffffff1916817bffffffffffffffffffffffffffffffffffffffffffffffffffffffff191614613638576040517f08c379a000000000000000000000000000000000000000000000000000000000815260040161362f906146b5565b60405180910390fd5b505b505050505050565b600080823b905060008111915050919050565b82805461366190614dee565b90600052602060002090601f01602090048101928261368357600085556136ca565b82601f1061369c57805160ff19168380011785556136ca565b828001600101855582156136ca579182015b828111156136c95782518255916020019190600101906136ae565b5b5090506136d7919061371f565b5090565b6040518060600160405280600390602082028036833780820191505090505090565b6040518060a00160405280600590602082028036833780820191505090505090565b5b80821115613738576000816000905550600101613720565b5090565b600061374f61374a84614a9e565b614a79565b9050808382526020820190508285602086028201111561377257613771615035565b5b60005b858110156137a2578161378888826138a0565b845260208401935060208301925050600181019050613775565b5050509392505050565b60006137bf6137ba84614aca565b614a79565b905080838252602082019050828560208602820111156137e2576137e1615035565b5b60005b8581101561381257816137f888826139ac565b8452602084019350602083019250506001810190506137e5565b5050509392505050565b600061382f61382a84614af6565b614a79565b90508281526020810184848401111561384b5761384a61503a565b5b613856848285614dac565b509392505050565b600061387161386c84614b27565b614a79565b90508281526020810184848401111561388d5761388c61503a565b5b613898848285614dac565b509392505050565b6000813590506138af8161591c565b92915050565b600082601f8301126138ca576138c9615030565b5b81356138da84826020860161373c565b91505092915050565b600082601f8301126138f8576138f7615030565b5b81356139088482602086016137ac565b91505092915050565b60008135905061392081615933565b92915050565b6000813590506139358161594a565b92915050565b60008151905061394a8161594a565b92915050565b600082601f83011261396557613964615030565b5b813561397584826020860161381c565b91505092915050565b600082601f83011261399357613992615030565b5b81356139a384826020860161385e565b91505092915050565b6000813590506139bb81615961565b92915050565b6000602082840312156139d7576139d6615044565b5b60006139e5848285016138a0565b91505092915050565b60008060408385031215613a0557613a04615044565b5b6000613a13858286016138a0565b9250506020613a24858286016138a0565b9150509250929050565b600080600080600060a08688031215613a4a57613a49615044565b5b6000613a58888289016138a0565b9550506020613a69888289016138a0565b945050604086013567ffffffffffffffff811115613a8a57613a8961503f565b5b613a96888289016138e3565b935050606086013567ffffffffffffffff811115613ab757613ab661503f565b5b613ac3888289016138e3565b925050608086013567ffffffffffffffff811115613ae457613ae361503f565b5b613af088828901613950565b9150509295509295909350565b600080600080600060a08688031215613b1957613b18615044565b5b6000613b27888289016138a0565b9550506020613b38888289016138a0565b9450506040613b49888289016139ac565b9350506060613b5a888289016139ac565b925050608086013567ffffffffffffffff811115613b7b57613b7a61503f565b5b613b8788828901613950565b9150509295509295909350565b60008060408385031215613bab57613baa615044565b5b6000613bb9858286016138a0565b9250506020613bca85828601613911565b9150509250929050565b60008060408385031215613beb57613bea615044565b5b6000613bf9858286016138a0565b9250506020613c0a858286016139ac565b9150509250929050565b600060208284031215613c2a57613c29615044565b5b600082013567ffffffffffffffff811115613c4857613c4761503f565b5b613c54848285016138b5565b91505092915050565b60008060408385031215613c7457613c73615044565b5b600083013567ffffffffffffffff811115613c9257613c9161503f565b5b613c9e858286016138b5565b925050602083013567ffffffffffffffff811115613cbf57613cbe61503f565b5b613ccb858286016138e3565b9150509250929050565b600060208284031215613ceb57613cea615044565b5b6000613cf984828501613926565b91505092915050565b600060208284031215613d1857613d17615044565b5b6000613d268482850161393b565b91505092915050565b600060208284031215613d4557613d44615044565b5b6000613d53848285016139ac565b91505092915050565b60008060408385031215613d7357613d72615044565b5b6000613d81858286016139ac565b925050602083013567ffffffffffffffff811115613da257613da161503f565b5b613dae8582860161397e565b9150509250929050565b6000613dc483836143f6565b60208301905092915050565b613dd981614d2b565b82525050565b613df0613deb82614d2b565b614ec4565b82525050565b613dff81614b87565b613e098184614bcd565b9250613e1482614b58565b8060005b83811015613e45578151613e2c8782613db8565b9650613e3783614bb3565b925050600181019050613e18565b505050505050565b6000613e5882614b92565b613e628185614bd8565b9350613e6d83614b62565b8060005b83811015613e9e578151613e858882613db8565b9750613e9083614bc0565b925050600181019050613e71565b5085935050505092915050565b613eb481614d3d565b82525050565b6000613ec582614b9d565b613ecf8185614be9565b9350613edf818560208601614dbb565b613ee881615049565b840191505092915050565b6000613efe82614ba8565b613f088185614bfa565b9350613f18818560208601614dbb565b613f2181615049565b840191505092915050565b6000613f3782614ba8565b613f418185614c0b565b9350613f51818560208601614dbb565b80840191505092915050565b60008154613f6a81614dee565b613f748186614c0b565b94506001821660008114613f8f5760018114613fa057613fd3565b60ff19831686528186019350613fd3565b613fa985614b72565b60005b83811015613fcb57815481890152600182019150602081019050613fac565b838801955050505b50505092915050565b6000613fe9603483614bfa565b9150613ff482615074565b604082019050919050565b600061400c602883614bfa565b9150614017826150c3565b604082019050919050565b600061402f601b83614bfa565b915061403a82615112565b602082019050919050565b6000614052603b83614bfa565b915061405d8261513b565b604082019050919050565b6000614075602b83614bfa565b91506140808261518a565b604082019050919050565b6000614098602683614bfa565b91506140a3826151d9565b604082019050919050565b60006140bb602483614bfa565b91506140c682615228565b604082019050919050565b60006140de602983614bfa565b91506140e982615277565b604082019050919050565b6000614101601883614bfa565b915061410c826152c6565b602082019050919050565b6000614124602d83614bfa565b915061412f826152ef565b604082019050919050565b6000614147602b83614bfa565b91506141528261533e565b604082019050919050565b600061416a602583614bfa565b91506141758261538d565b604082019050919050565b600061418d603283614bfa565b9150614198826153dc565b604082019050919050565b60006141b0601483614bfa565b91506141bb8261542b565b602082019050919050565b60006141d3602383614bfa565b91506141de82615454565b604082019050919050565b60006141f6602383614bfa565b9150614201826154a3565b604082019050919050565b6000614219602a83614bfa565b9150614224826154f2565b604082019050919050565b600061423c602083614bfa565b915061424782615541565b602082019050919050565b600061425f600583614c0b565b915061426a8261556a565b600582019050919050565b6000614282602083614bfa565b915061428d82615593565b602082019050919050565b60006142a5602b83614bfa565b91506142b0826155bc565b604082019050919050565b60006142c8602383614bfa565b91506142d38261560b565b604082019050919050565b60006142eb602b83614bfa565b91506142f68261565a565b604082019050919050565b600061430e601f83614bfa565b9150614319826156a9565b602082019050919050565b6000614331602a83614bfa565b915061433c826156d2565b604082019050919050565b6000614354602983614bfa565b915061435f82615721565b604082019050919050565b6000614377602983614bfa565b915061438282615770565b604082019050919050565b600061439a602883614bfa565b91506143a5826157bf565b604082019050919050565b60006143bd601f83614bfa565b91506143c88261580e565b602082019050919050565b60006143e0602183614bfa565b91506143eb82615837565b604082019050919050565b6143ff81614d95565b82525050565b61440e81614d95565b82525050565b61442561442082614d95565b614ee8565b82525050565b60006144378284613f5d565b915081905092915050565b600061444e8285613f5d565b915061445a8284613f2c565b915061446582614252565b91508190509392505050565b600061447d8288614414565b60208201915061448d8287613ddf565b60148201915061449d8286614414565b6020820191506144ad8285614414565b6020820191506144bd8284614414565b6020820191508190509695505050505050565b60006020820190506144e56000830184613dd0565b92915050565b600060a0820190506145006000830188613dd0565b61450d6020830187613dd0565b818103604083015261451f8186613e4d565b905081810360608301526145338185613e4d565b905081810360808301526145478184613eba565b90509695505050505050565b600060a0820190506145686000830188613dd0565b6145756020830187613dd0565b6145826040830186614405565b61458f6060830185614405565b81810360808301526145a18184613eba565b90509695505050505050565b60006040820190506145c26000830185613dd0565b6145cf6020830184614405565b9392505050565b600060c0820190506145eb6000830185613df6565b6145f860a0830184613dd0565b9392505050565b600060208201905081810360008301526146198184613e4d565b905092915050565b6000604082019050818103600083015261463b8185613e4d565b9050818103602083015261464f8184613e4d565b90509392505050565b600060208201905061466d6000830184613eab565b92915050565b6000602082019050818103600083015261468d8184613ef3565b905092915050565b600060208201905081810360008301526146ae81613fdc565b9050919050565b600060208201905081810360008301526146ce81613fff565b9050919050565b600060208201905081810360008301526146ee81614022565b9050919050565b6000602082019050818103600083015261470e81614045565b9050919050565b6000602082019050818103600083015261472e81614068565b9050919050565b6000602082019050818103600083015261474e8161408b565b9050919050565b6000602082019050818103600083015261476e816140ae565b9050919050565b6000602082019050818103600083015261478e816140d1565b9050919050565b600060208201905081810360008301526147ae816140f4565b9050919050565b600060208201905081810360008301526147ce81614117565b9050919050565b600060208201905081810360008301526147ee8161413a565b9050919050565b6000602082019050818103600083015261480e8161415d565b9050919050565b6000602082019050818103600083015261482e81614180565b9050919050565b6000602082019050818103600083015261484e816141a3565b9050919050565b6000602082019050818103600083015261486e816141c6565b9050919050565b6000602082019050818103600083015261488e816141e9565b9050919050565b600060208201905081810360008301526148ae8161420c565b9050919050565b600060208201905081810360008301526148ce8161422f565b9050919050565b600060208201905081810360008301526148ee81614275565b9050919050565b6000602082019050818103600083015261490e81614298565b9050919050565b6000602082019050818103600083015261492e816142bb565b9050919050565b6000602082019050818103600083015261494e816142de565b9050919050565b6000602082019050818103600083015261496e81614301565b9050919050565b6000602082019050818103600083015261498e81614324565b9050919050565b600060208201905081810360008301526149ae81614347565b9050919050565b600060208201905081810360008301526149ce8161436a565b9050919050565b600060208201905081810360008301526149ee8161438d565b9050919050565b60006020820190508181036000830152614a0e816143b0565b9050919050565b60006020820190508181036000830152614a2e816143d3565b9050919050565b6000602082019050614a4a6000830184614405565b92915050565b6000604082019050614a656000830185614405565b614a726020830184614405565b9392505050565b6000614a83614a94565b9050614a8f8282614e20565b919050565b6000604051905090565b600067ffffffffffffffff821115614ab957614ab8614fdf565b5b602082029050602081019050919050565b600067ffffffffffffffff821115614ae557614ae4614fdf565b5b602082029050602081019050919050565b600067ffffffffffffffff821115614b1157614b10614fdf565b5b614b1a82615049565b9050602081019050919050565b600067ffffffffffffffff821115614b4257614b41614fdf565b5b614b4b82615049565b9050602081019050919050565b6000819050919050565b6000819050602082019050919050565b60008190508160005260206000209050919050565b600060059050919050565b600081519050919050565b600081519050919050565b600081519050919050565b6000602082019050919050565b6000602082019050919050565b600081905092915050565b600082825260208201905092915050565b600082825260208201905092915050565b600082825260208201905092915050565b600081905092915050565b6000614c2182614d95565b9150614c2c83614d95565b9250827fffffffffffffffffffffffffffffffffffffffffffffffffffffffffffffffff03821115614c6157614c60614f23565b5b828201905092915050565b6000614c7782614d95565b9150614c8283614d95565b925082614c9257614c91614f52565b5b828204905092915050565b6000614ca882614d95565b9150614cb383614d95565b9250817fffffffffffffffffffffffffffffffffffffffffffffffffffffffffffffffff0483118215151615614cec57614ceb614f23565b5b828202905092915050565b6000614d0282614d95565b9150614d0d83614d95565b925082821015614d2057614d1f614f23565b5b828203905092915050565b6000614d3682614d75565b9050919050565b60008115159050919050565b60007fffffffff0000000000000000000000000000000000000000000000000000000082169050919050565b600073ffffffffffffffffffffffffffffffffffffffff82169050919050565b6000819050919050565b600060ff82169050919050565b82818337600083830152505050565b60005b83811015614dd9578082015181840152602081019050614dbe565b83811115614de8576000848401525b50505050565b60006002820490506001821680614e0657607f821691505b60208210811415614e1a57614e19614f81565b5b50919050565b614e2982615049565b810181811067ffffffffffffffff82111715614e4857614e47614fdf565b5b80604052505050565b6000614e5c82614d95565b91507fffffffffffffffffffffffffffffffffffffffffffffffffffffffffffffffff821415614e8f57614e8e614f23565b5b600182019050919050565b6000614ea582614d9f565b915060ff821415614eb957614eb8614f23565b5b600182019050919050565b6000614ecf82614ed6565b9050919050565b6000614ee18261505a565b9050919050565b6000819050919050565b6000614efd82614d95565b9150614f0883614d95565b925082614f1857614f17614f52565b5b828206905092915050565b7f4e487b7100000000000000000000000000000000000000000000000000000000600052601160045260246000fd5b7f4e487b7100000000000000000000000000000000000000000000000000000000600052601260045260246000fd5b7f4e487b7100000000000000000000000000000000000000000000000000000000600052602260045260246000fd5b7f4e487b7100000000000000000000000000000000000000000000000000000000600052603260045260246000fd5b7f4e487b7100000000000000000000000000000000000000000000000000000000600052604160045260246000fd5b600060033d111561502d5760046000803e61502a600051615067565b90505b90565b600080fd5b600080fd5b600080fd5b600080fd5b600080fd5b6000601f19601f8301169050919050565b60008160601b9050919050565b60008160e01c9050919050565b7f455243313135353a207472616e7366657220746f206e6f6e204552433131353560008201527f526563656976657220696d706c656d656e746572000000000000000000000000602082015250565b7f455243313135353a204552433131353552656365697665722072656a6563746560008201527f6420746f6b656e73000000000000000000000000000000000000000000000000602082015250565b7f4e6f2072656d61696e696e6720626f6f73746572207061636b73210000000000600082015250565b7f596f75206d7573742068617665206d696e74656420612073746172746572207060008201527f61636b20746f206d696e74206120626f6f73746572207061636b2e0000000000602082015250565b7f455243313135353a2062616c616e636520717565727920666f7220746865207a60008201527f65726f2061646472657373000000000000000000000000000000000000000000602082015250565b7f4f776e61626c653a206e6577206f776e657220697320746865207a65726f206160008201527f6464726573730000000000000000000000000000000000000000000000000000602082015250565b7f455243313135353a206275726e20616d6f756e7420657863656564732062616c60008201527f616e636500000000000000000000000000000000000000000000000000000000602082015250565b7f455243313135353a2063616c6c6572206973206e6f74206f776e6572206e6f7260008201527f20617070726f7665640000000000000000000000000000000000000000000000602082015250565b7f55736572206973206e6f742077686974656c69737465642e0000000000000000600082015250565b7f416c6c206f662074686973206174686c657465206861766520616c726561647960008201527f206265656e206d696e7465642100000000000000000000000000000000000000602082015250565b7f416c6c20626f6f73746572207061636b73206861766520616c7265616479206260008201527f65656e206d696e74656421000000000000000000000000000000000000000000602082015250565b7f455243313135353a207472616e7366657220746f20746865207a65726f20616460008201527f6472657373000000000000000000000000000000000000000000000000000000602082015250565b7f455243313135353a207472616e736665722063616c6c6572206973206e6f742060008201527f6f776e6572206e6f7220617070726f7665640000000000000000000000000000602082015250565b7f43616e6e6f742073657420757269207477696365000000000000000000000000600082015250565b7f455243313135353a206275726e2066726f6d20746865207a65726f206164647260008201527f6573730000000000000000000000000000000000000000000000000000000000602082015250565b7f426f6f73746572207061636b732063616e6e6f74206265206f70656e6564207960008201527f6574210000000000000000000000000000000000000000000000000000000000602082015250565b7f455243313135353a20696e73756666696369656e742062616c616e636520666f60008201527f72207472616e7366657200000000000000000000000000000000000000000000602082015250565b7f596f752063616e6e6f74206275726e206d6f7265207468616e2031207061636b600082015250565b7f2e6a736f6e000000000000000000000000000000000000000000000000000000600082015250565b7f4f776e61626c653a2063616c6c6572206973206e6f7420746865206f776e6572600082015250565b7f53746172746572207061636b20646f6573206e6f7420657869737420696e207560008201527f736572732077616c6c6574000000000000000000000000000000000000000000602082015250565b7f416c6c207061636b73206861766520616c7265616479206265656e206d696e7460008201527f6564210000000000000000000000000000000000000000000000000000000000602082015250565b7f43616e206f6e6c79206d696e742074776f20626f6f73746572207061636b732060008201527f706572206163636f756e74000000000000000000000000000000000000000000602082015250565b7f5061636b73206172656e277420726561647920746f206f70656e207965742100600082015250565b7f43616e206f6e6c79206d696e74206f6e652073746172746572207061636b207060008201527f6572206163636f756e7400000000000000000000000000000000000000000000602082015250565b7f455243313135353a2073657474696e6720617070726f76616c2073746174757360008201527f20666f722073656c660000000000000000000000000000000000000000000000602082015250565b7f455243313135353a206163636f756e747320616e6420696473206c656e67746860008201527f206d69736d617463680000000000000000000000000000000000000000000000602082015250565b7f455243313135353a2069647320616e6420616d6f756e7473206c656e6774682060008201527f6d69736d61746368000000000000000000000000000000000000000000000000602082015250565b7f507269766174652073616c65206861736e2774206f70656e6564207965742e00600082015250565b7f455243313135353a206d696e7420746f20746865207a65726f2061646472657360008201527f7300000000000000000000000000000000000000000000000000000000000000602082015250565b600060443d101561589657615919565b61589e614a94565b60043d036004823e80513d602482011167ffffffffffffffff821117156158c6575050615919565b808201805167ffffffffffffffff8111156158e45750505050615919565b80602083010160043d038501811115615901575050505050615919565b61591082602001850186614e20565b82955050505050505b90565b61592581614d2b565b811461593057600080fd5b50565b61593c81614d3d565b811461594757600080fd5b50565b61595381614d49565b811461595e57600080fd5b50565b61596a81614d95565b811461597557600080fd5b5056fea2646970667358221220e2f45aabd1af7f3b00d7ccb57e61c21495c198303c75c280c8e80dd0e4451ddd64736f6c63430008070033",
  "linkReferences": {},
  "deployedLinkReferences": {}
}