{
  "_format": "hh-sol-artifact-1",
  "contractName": "GameItems",
  "sourceName": "contracts/GameItems.sol",
  "abi": [
    {
      "inputs": [
        {
          "components": [
            {
              "internalType": "uint256",
              "name": "_numAthletes",
              "type": "uint256"
            },
            {
              "internalType": "uint256",
              "name": "_nftPerAthlete",
              "type": "uint256"
            },
            {
              "internalType": "uint256",
              "name": "_starterPackSize",
              "type": "uint256"
            },
            {
              "internalType": "uint256",
              "name": "_boosterPackSize",
              "type": "uint256"
            },
            {
              "internalType": "uint256",
              "name": "_maxStarterPackBalance",
              "type": "uint256"
            },
            {
              "internalType": "uint256",
              "name": "_maxBoosterPackBalance",
              "type": "uint256"
            },
            {
              "internalType": "uint256",
              "name": "_maxPacks",
              "type": "uint256"
            },
            {
              "internalType": "uint256",
              "name": "_revealTimestamp",
              "type": "uint256"
            }
          ],
          "internalType": "struct GameItems.Parameters",
          "name": "params",
          "type": "tuple"
        },
        {
          "internalType": "string",
          "name": "_athleteURI",
          "type": "string"
        },
        {
          "internalType": "string",
          "name": "_starterPackURI",
          "type": "string"
        },
        {
          "internalType": "string",
          "name": "_boosterPackURI",
          "type": "string"
        }
      ],
      "stateMutability": "nonpayable",
      "type": "constructor"
    },
    {
      "anonymous": false,
      "inputs": [
        {
          "indexed": true,
          "internalType": "address",
          "name": "account",
          "type": "address"
        },
        {
          "indexed": true,
          "internalType": "address",
          "name": "operator",
          "type": "address"
        },
        {
          "indexed": false,
          "internalType": "bool",
          "name": "approved",
          "type": "bool"
        }
      ],
      "name": "ApprovalForAll",
      "type": "event"
    },
    {
      "anonymous": false,
      "inputs": [
        {
          "indexed": true,
          "internalType": "address",
          "name": "previousOwner",
          "type": "address"
        },
        {
          "indexed": true,
          "internalType": "address",
          "name": "newOwner",
          "type": "address"
        }
      ],
      "name": "OwnershipTransferred",
      "type": "event"
    },
    {
      "anonymous": false,
      "inputs": [
        {
          "indexed": true,
          "internalType": "address",
          "name": "operator",
          "type": "address"
        },
        {
          "indexed": true,
          "internalType": "address",
          "name": "from",
          "type": "address"
        },
        {
          "indexed": true,
          "internalType": "address",
          "name": "to",
          "type": "address"
        },
        {
          "indexed": false,
          "internalType": "uint256[]",
          "name": "ids",
          "type": "uint256[]"
        },
        {
          "indexed": false,
          "internalType": "uint256[]",
          "name": "values",
          "type": "uint256[]"
        }
      ],
      "name": "TransferBatch",
      "type": "event"
    },
    {
      "anonymous": false,
      "inputs": [
        {
          "indexed": true,
          "internalType": "address",
          "name": "operator",
          "type": "address"
        },
        {
          "indexed": true,
          "internalType": "address",
          "name": "from",
          "type": "address"
        },
        {
          "indexed": true,
          "internalType": "address",
          "name": "to",
          "type": "address"
        },
        {
          "indexed": false,
          "internalType": "uint256",
          "name": "id",
          "type": "uint256"
        },
        {
          "indexed": false,
          "internalType": "uint256",
          "name": "value",
          "type": "uint256"
        }
      ],
      "name": "TransferSingle",
      "type": "event"
    },
    {
      "anonymous": false,
      "inputs": [
        {
          "indexed": false,
          "internalType": "string",
          "name": "value",
          "type": "string"
        },
        {
          "indexed": true,
          "internalType": "uint256",
          "name": "id",
          "type": "uint256"
        }
      ],
      "name": "URI",
      "type": "event"
    },
    {
      "anonymous": false,
      "inputs": [
        {
          "indexed": false,
          "internalType": "address",
          "name": "addr",
          "type": "address"
        }
      ],
      "name": "WhitelistedAddressAdded",
      "type": "event"
    },
    {
      "anonymous": false,
      "inputs": [
        {
          "indexed": false,
          "internalType": "address",
          "name": "addr",
          "type": "address"
        }
      ],
      "name": "WhitelistedAddressRemoved",
      "type": "event"
    },
    {
      "anonymous": false,
      "inputs": [
        {
          "indexed": false,
          "internalType": "uint256[5]",
          "name": "",
          "type": "uint256[5]"
        },
        {
          "indexed": false,
          "internalType": "address",
          "name": "signer",
          "type": "address"
        }
      ],
      "name": "packBurned",
      "type": "event"
    },
    {
      "anonymous": false,
      "inputs": [
        {
          "indexed": false,
          "internalType": "address",
          "name": "signer",
          "type": "address"
        },
        {
          "indexed": false,
          "internalType": "uint256",
          "name": "id",
          "type": "uint256"
        }
      ],
      "name": "packMinted",
      "type": "event"
    },
    {
      "inputs": [],
      "name": "REVEAL_TIMESTAMP",
      "outputs": [
        {
          "internalType": "uint256",
          "name": "",
          "type": "uint256"
        }
      ],
      "stateMutability": "view",
      "type": "function"
    },
    {
      "inputs": [
        {
          "internalType": "address",
          "name": "addr",
          "type": "address"
        }
      ],
      "name": "addAddressToWhitelist",
      "outputs": [
        {
          "internalType": "bool",
          "name": "success",
          "type": "bool"
        }
      ],
      "stateMutability": "nonpayable",
      "type": "function"
    },
    {
      "inputs": [
        {
          "internalType": "address[]",
          "name": "addrs",
          "type": "address[]"
        }
      ],
      "name": "addAddressesToWhitelist",
      "outputs": [
        {
          "internalType": "bool",
          "name": "success",
          "type": "bool"
        }
      ],
      "stateMutability": "nonpayable",
      "type": "function"
    },
    {
      "inputs": [
        {
          "internalType": "address",
          "name": "_user",
          "type": "address"
        }
      ],
      "name": "addUserToWhitelist",
      "outputs": [],
      "stateMutability": "nonpayable",
      "type": "function"
    },
    {
      "inputs": [
        {
          "internalType": "address",
          "name": "account",
          "type": "address"
        },
        {
          "internalType": "uint256",
          "name": "id",
          "type": "uint256"
        }
      ],
      "name": "balanceOf",
      "outputs": [
        {
          "internalType": "uint256",
          "name": "",
          "type": "uint256"
        }
      ],
      "stateMutability": "view",
      "type": "function"
    },
    {
      "inputs": [
        {
          "internalType": "address[]",
          "name": "accounts",
          "type": "address[]"
        },
        {
          "internalType": "uint256[]",
          "name": "ids",
          "type": "uint256[]"
        }
      ],
      "name": "balanceOfBatch",
      "outputs": [
        {
          "internalType": "uint256[]",
          "name": "",
          "type": "uint256[]"
        }
      ],
      "stateMutability": "view",
      "type": "function"
    },
    {
      "inputs": [],
      "name": "burnStarterPack",
      "outputs": [],
      "stateMutability": "nonpayable",
      "type": "function"
    },
    {
      "inputs": [],
      "name": "getNFTPerAthlete",
      "outputs": [
        {
          "internalType": "uint256",
          "name": "",
          "type": "uint256"
        }
      ],
      "stateMutability": "view",
      "type": "function"
    },
    {
      "inputs": [],
      "name": "getNumWhitelisted",
      "outputs": [
        {
          "internalType": "uint256",
          "name": "",
          "type": "uint256"
        }
      ],
      "stateMutability": "view",
      "type": "function"
    },
    {
      "inputs": [],
      "name": "getWhitelistedUsers",
      "outputs": [
        {
          "internalType": "uint256",
          "name": "",
          "type": "uint256"
        }
      ],
      "stateMutability": "view",
      "type": "function"
    },
    {
      "inputs": [
        {
          "internalType": "address",
          "name": "account",
          "type": "address"
        },
        {
          "internalType": "address",
          "name": "operator",
          "type": "address"
        }
      ],
      "name": "isApprovedForAll",
      "outputs": [
        {
          "internalType": "bool",
          "name": "",
          "type": "bool"
        }
      ],
      "stateMutability": "view",
      "type": "function"
    },
    {
      "inputs": [],
      "name": "isPublic",
      "outputs": [
        {
          "internalType": "bool",
          "name": "",
          "type": "bool"
        }
      ],
      "stateMutability": "view",
      "type": "function"
    },
    {
      "inputs": [],
      "name": "mintStarterPack",
      "outputs": [],
      "stateMutability": "nonpayable",
      "type": "function"
    },
    {
      "inputs": [],
      "name": "name",
      "outputs": [
        {
          "internalType": "string",
          "name": "",
          "type": "string"
        }
      ],
      "stateMutability": "view",
      "type": "function"
    },
    {
      "inputs": [],
      "name": "owner",
      "outputs": [
        {
          "internalType": "address",
          "name": "",
          "type": "address"
        }
      ],
      "stateMutability": "view",
      "type": "function"
    },
    {
      "inputs": [],
      "name": "packsAvailable",
      "outputs": [
        {
          "internalType": "uint256",
          "name": "",
          "type": "uint256"
        }
      ],
      "stateMutability": "view",
      "type": "function"
    },
    {
      "inputs": [],
      "name": "packsReadyToOpen",
      "outputs": [
        {
          "internalType": "bool",
          "name": "",
          "type": "bool"
        }
      ],
      "stateMutability": "view",
      "type": "function"
    },
    {
      "inputs": [
        {
          "internalType": "address",
          "name": "addr",
          "type": "address"
        }
      ],
      "name": "removeAddressFromWhitelist",
      "outputs": [
        {
          "internalType": "bool",
          "name": "success",
          "type": "bool"
        }
      ],
      "stateMutability": "nonpayable",
      "type": "function"
    },
    {
      "inputs": [
        {
          "internalType": "address[]",
          "name": "addrs",
          "type": "address[]"
        }
      ],
      "name": "removeAddressesFromWhitelist",
      "outputs": [
        {
          "internalType": "bool",
          "name": "success",
          "type": "bool"
        }
      ],
      "stateMutability": "nonpayable",
      "type": "function"
    },
    {
      "inputs": [
        {
          "internalType": "address",
          "name": "_user",
          "type": "address"
        }
      ],
      "name": "removeUserFromWhitelist",
      "outputs": [],
      "stateMutability": "nonpayable",
      "type": "function"
    },
    {
      "inputs": [],
      "name": "renounceOwnership",
      "outputs": [],
      "stateMutability": "nonpayable",
      "type": "function"
    },
    {
      "inputs": [
        {
          "internalType": "address",
          "name": "from",
          "type": "address"
        },
        {
          "internalType": "address",
          "name": "to",
          "type": "address"
        },
        {
          "internalType": "uint256[]",
          "name": "ids",
          "type": "uint256[]"
        },
        {
          "internalType": "uint256[]",
          "name": "amounts",
          "type": "uint256[]"
        },
        {
          "internalType": "bytes",
          "name": "data",
          "type": "bytes"
        }
      ],
      "name": "safeBatchTransferFrom",
      "outputs": [],
      "stateMutability": "nonpayable",
      "type": "function"
    },
    {
      "inputs": [
        {
          "internalType": "address",
          "name": "from",
          "type": "address"
        },
        {
          "internalType": "address",
          "name": "to",
          "type": "address"
        },
        {
          "internalType": "uint256",
          "name": "id",
          "type": "uint256"
        },
        {
          "internalType": "uint256",
          "name": "amount",
          "type": "uint256"
        },
        {
          "internalType": "bytes",
          "name": "data",
          "type": "bytes"
        }
      ],
      "name": "safeTransferFrom",
      "outputs": [],
      "stateMutability": "nonpayable",
      "type": "function"
    },
    {
      "inputs": [
        {
          "internalType": "address",
          "name": "operator",
          "type": "address"
        },
        {
          "internalType": "bool",
          "name": "approved",
          "type": "bool"
        }
      ],
      "name": "setApprovalForAll",
      "outputs": [],
      "stateMutability": "nonpayable",
      "type": "function"
    },
    {
      "inputs": [],
      "name": "setPacksReady",
      "outputs": [],
      "stateMutability": "nonpayable",
      "type": "function"
    },
    {
      "inputs": [],
      "name": "setStartingIndex",
      "outputs": [],
      "stateMutability": "nonpayable",
      "type": "function"
    },
    {
      "inputs": [
        {
          "internalType": "uint256",
          "name": "tokenId",
          "type": "uint256"
        },
        {
          "internalType": "string",
          "name": "uri",
          "type": "string"
        }
      ],
      "name": "setTokenUri",
      "outputs": [],
      "stateMutability": "nonpayable",
      "type": "function"
    },
    {
      "inputs": [],
      "name": "setURIs",
      "outputs": [],
      "stateMutability": "nonpayable",
      "type": "function"
    },
    {
      "inputs": [
        {
          "internalType": "bytes4",
          "name": "interfaceId",
          "type": "bytes4"
        }
      ],
      "name": "supportsInterface",
      "outputs": [
        {
          "internalType": "bool",
          "name": "",
          "type": "bool"
        }
      ],
      "stateMutability": "view",
      "type": "function"
    },
    {
      "inputs": [
        {
          "internalType": "address",
          "name": "newOwner",
          "type": "address"
        }
      ],
      "name": "transferOwnership",
      "outputs": [],
      "stateMutability": "nonpayable",
      "type": "function"
    },
    {
      "inputs": [
        {
          "internalType": "uint256",
          "name": "tokenId",
          "type": "uint256"
        }
      ],
      "name": "uri",
      "outputs": [
        {
          "internalType": "string",
          "name": "",
          "type": "string"
        }
      ],
      "stateMutability": "view",
      "type": "function"
    },
    {
      "inputs": [
        {
          "internalType": "address",
          "name": "",
          "type": "address"
        }
      ],
      "name": "whitelist",
      "outputs": [
        {
          "internalType": "bool",
          "name": "",
          "type": "bool"
        }
      ],
      "stateMutability": "view",
      "type": "function"
    }
  ],
  "bytecode": "0x60806040526127106012556040518060400160405280600881526020017f5465616d44696666000000000000000000000000000000000000000000000000815250601390805190602001906200005792919062000342565b506001601460006101000a81548160ff02191690831515021790555060405180602001604052806000815250601a90805190602001906200009a92919062000342565b50348015620000a857600080fd5b5060405162006a1c38038062006a1c8339818101604052810190620000ce919062000574565b6040518060400160405280600281526020017f544400000000000000000000000000000000000000000000000000000000000081525062000115816200025860201b60201c565b50620001366200012a6200027460201b60201c565b6200027c60201b60201c565b8360000151600f8190555083602001516010819055508360400151600a819055508360600151600b819055508360800151600c819055508360a00151600d819055508360c00151600e8190555082600790805190602001906200019b92919062000342565b508160089080519060200190620001b492919062000342565b508060099080519060200190620001cd92919062000342565b508360e00151601281905550600e54602381905550604051620001f090620003d3565b604051809103906000f0801580156200020d573d6000803e3d6000fd5b50602460006101000a81548173ffffffffffffffffffffffffffffffffffffffff021916908373ffffffffffffffffffffffffffffffffffffffff16021790555050505050620007f4565b80600290805190602001906200027092919062000342565b5050565b600033905090565b6000600360009054906101000a900473ffffffffffffffffffffffffffffffffffffffff16905081600360006101000a81548173ffffffffffffffffffffffffffffffffffffffff021916908373ffffffffffffffffffffffffffffffffffffffff1602179055508173ffffffffffffffffffffffffffffffffffffffff168173ffffffffffffffffffffffffffffffffffffffff167f8be0079c531659141344cd1fd0a4f28419497f9722a3daafe3b4186f6b6457e060405160405180910390a35050565b8280546200035090620006e6565b90600052602060002090601f016020900481019282620003745760008555620003c0565b82601f106200038f57805160ff1916838001178555620003c0565b82800160010185558215620003c0579182015b82811115620003bf578251825591602001919060010190620003a2565b5b509050620003cf9190620003e1565b5090565b610ffc8062005a2083390190565b5b80821115620003fc576000816000905550600101620003e2565b5090565b600062000417620004118462000670565b62000647565b905082815260208101848484011115620004365762000435620007ba565b5b62000443848285620006b0565b509392505050565b600082601f830112620004635762000462620007b0565b5b81516200047584826020860162000400565b91505092915050565b60006101008284031215620004985762000497620007b5565b5b620004a561010062000647565b90506000620004b7848285016200055d565b6000830152506020620004cd848285016200055d565b6020830152506040620004e3848285016200055d565b6040830152506060620004f9848285016200055d565b60608301525060806200050f848285016200055d565b60808301525060a062000525848285016200055d565b60a08301525060c06200053b848285016200055d565b60c08301525060e062000551848285016200055d565b60e08301525092915050565b6000815190506200056e81620007da565b92915050565b6000806000806101608587031215620005925762000591620007c4565b5b6000620005a2878288016200047e565b94505061010085015167ffffffffffffffff811115620005c757620005c6620007bf565b5b620005d5878288016200044b565b93505061012085015167ffffffffffffffff811115620005fa57620005f9620007bf565b5b62000608878288016200044b565b92505061014085015167ffffffffffffffff8111156200062d576200062c620007bf565b5b6200063b878288016200044b565b91505092959194509250565b60006200065362000666565b90506200066182826200071c565b919050565b6000604051905090565b600067ffffffffffffffff8211156200068e576200068d62000781565b5b6200069982620007c9565b9050602081019050919050565b6000819050919050565b60005b83811015620006d0578082015181840152602081019050620006b3565b83811115620006e0576000848401525b50505050565b60006002820490506001821680620006ff57607f821691505b6020821081141562000716576200071562000752565b5b50919050565b6200072782620007c9565b810181811067ffffffffffffffff8211171562000749576200074862000781565b5b80604052505050565b7f4e487b7100000000000000000000000000000000000000000000000000000000600052602260045260246000fd5b7f4e487b7100000000000000000000000000000000000000000000000000000000600052604160045260246000fd5b600080fd5b600080fd5b600080fd5b600080fd5b600080fd5b6000601f19601f8301169050919050565b620007e581620006a6565b8114620007f157600080fd5b50565b61521c80620008046000396000f3fe608060405234801561001057600080fd5b50600436106101ef5760003560e01c8063747b80501161010f578063d759000b116100a2578063e986655011610071578063e986655014610584578063f242432a1461058e578063f2fde38b146105aa578063f9902bb1146105c6576101ef565b8063d759000b146104e8578063dc9a153514610506578063e2ec6ec314610524578063e985e9c514610554576101ef565b80639ebf488b116100de5780639ebf488b1461049a578063a22cb465146104a4578063bbb13e17146104c0578063be59ec26146104ca576101ef565b8063747b8050146104005780637b9417c81461041c5780638da5cb5b1461044c5780639b19251a1461046a576101ef565b8063286dd3f51161018757806350bfc4491161015657806350bfc449146103b257806357f7789e146103d05780635d2db2bf146103ec578063715018a6146103f6576101ef565b8063286dd3f5146103185780632eb2c2d61461034857806344eaa84e146103645780634e1273f414610382576101ef565b8063143cc144116101c3578063143cc144146102a257806318e20a38146102c057806319b60439146102de57806324953eaa146102e8576101ef565b8062fdd58e146101f457806301ffc9a71461022457806306fdde03146102545780630e89341c14610272575b600080fd5b61020e60048036038101906102099190613774565b6105e2565b60405161021b919061445a565b60405180910390f35b61023e600480360381019061023991906138a2565b6106ab565b60405161024b919061415d565b60405180910390f35b61025c61078d565b6040516102699190614178565b60405180910390f35b61028c600480360381019061028791906138fc565b61081b565b6040516102999190614178565b60405180910390f35b6102aa6108c0565b6040516102b7919061445a565b60405180910390f35b6102c8610946565b6040516102d5919061445a565b60405180910390f35b6102e661094c565b005b61030260048036038101906102fd91906137b4565b6109f4565b60405161030f919061415d565b60405180910390f35b610332600480360381019061032d9190613561565b610ade565b60405161033f919061415d565b60405180910390f35b610362600480360381019061035d91906135ce565b610c61565b005b61036c610d02565b604051610379919061445a565b60405180910390f35b61039c600480360381019061039791906137fd565b610d0c565b6040516103a99190614104565b60405180910390f35b6103ba610e25565b6040516103c7919061445a565b60405180910390f35b6103ea60048036038101906103e59190613956565b610f6f565b005b6103f4611079565b005b6103fe611198565b005b61041a60048036038101906104159190613561565b611220565b005b61043660048036038101906104319190613561565b61134d565b604051610443919061415d565b60405180910390f35b6104546114cf565b6040516104619190613fd5565b60405180910390f35b610484600480360381019061047f9190613561565b6114f9565b604051610491919061415d565b60405180910390f35b6104a2611519565b005b6104be60048036038101906104b99190613734565b611709565b005b6104c861171f565b005b6104d26118ff565b6040516104df919061415d565b60405180910390f35b6104f0611912565b6040516104fd919061445a565b60405180910390f35b61050e611918565b60405161051b919061415d565b60405180910390f35b61053e600480360381019061053991906137b4565b61192b565b60405161054b919061415d565b60405180910390f35b61056e6004803603810190610569919061358e565b611a15565b60405161057b919061415d565b60405180910390f35b61058c611aa9565b005b6105a860048036038101906105a3919061369d565b611b80565b005b6105c460048036038101906105bf9190613561565b611c21565b005b6105e060048036038101906105db9190613561565b611d19565b005b60008073ffffffffffffffffffffffffffffffffffffffff168373ffffffffffffffffffffffffffffffffffffffff161415610653576040517f08c379a000000000000000000000000000000000000000000000000000000000815260040161064a906141da565b60405180910390fd5b60008083815260200190815260200160002060008473ffffffffffffffffffffffffffffffffffffffff1673ffffffffffffffffffffffffffffffffffffffff16815260200190815260200160002054905092915050565b60007fd9b67a26000000000000000000000000000000000000000000000000000000007bffffffffffffffffffffffffffffffffffffffffffffffffffffffff1916827bffffffffffffffffffffffffffffffffffffffffffffffffffffffff1916148061077657507f0e89341c000000000000000000000000000000000000000000000000000000007bffffffffffffffffffffffffffffffffffffffffffffffffffffffff1916827bffffffffffffffffffffffffffffffffffffffffffffffffffffffff1916145b80610786575061078582611e46565b5b9050919050565b6013805461079a90614813565b80601f01602080910402602001604051908101604052809291908181526020018280546107c690614813565b80156108135780601f106107e857610100808354040283529160200191610813565b820191906000526020600020905b8154815290600101906020018083116107f657829003601f168201915b505050505081565b606060256000838152602001908152602001600020805461083b90614813565b80601f016020809104026020016040519081016040528092919081815260200182805461086790614813565b80156108b45780601f10610889576101008083540402835291602001916108b4565b820191906000526020600020905b81548152906001019060200180831161089757829003601f168201915b50505050509050919050565b60006108ca611eb0565b73ffffffffffffffffffffffffffffffffffffffff166108e86114cf565b73ffffffffffffffffffffffffffffffffffffffff161461093e576040517f08c379a00000000000000000000000000000000000000000000000000000000081526004016109359061433a565b60405180910390fd5b601054905090565b60125481565b610954611eb0565b73ffffffffffffffffffffffffffffffffffffffff166109726114cf565b73ffffffffffffffffffffffffffffffffffffffff16146109c8576040517f08c379a00000000000000000000000000000000000000000000000000000000081526004016109bf9061433a565b60405180910390fd5b601460009054906101000a900460ff1615601460006101000a81548160ff021916908315150217905550565b60006109fe611eb0565b73ffffffffffffffffffffffffffffffffffffffff16610a1c6114cf565b73ffffffffffffffffffffffffffffffffffffffff1614610a72576040517f08c379a0000000000000000000000000000000000000000000000000000000008152600401610a699061433a565b60405180910390fd5b60005b8251811015610ad857610aa1838281518110610a9457610a936149d5565b5b6020026020010151610ade565b15610ac557600160056000828254610ab9919061471c565b92505081905550600191505b8080610ad090614876565b915050610a75565b50919050565b6000610ae8611eb0565b73ffffffffffffffffffffffffffffffffffffffff16610b066114cf565b73ffffffffffffffffffffffffffffffffffffffff1614610b5c576040517f08c379a0000000000000000000000000000000000000000000000000000000008152600401610b539061433a565b60405180910390fd5b600460008373ffffffffffffffffffffffffffffffffffffffff1673ffffffffffffffffffffffffffffffffffffffff16815260200190815260200160002060009054906101000a900460ff1615610c5c576000600460008473ffffffffffffffffffffffffffffffffffffffff1673ffffffffffffffffffffffffffffffffffffffff16815260200190815260200160002060006101000a81548160ff0219169083151502179055507ff1abf01a1043b7c244d128e8595cf0c1d10743b022b03a02dffd8ca3bf729f5a82604051610c359190613fd5565b60405180910390a1600160056000828254610c50919061471c565b92505081905550600190505b919050565b610c69611eb0565b73ffffffffffffffffffffffffffffffffffffffff168573ffffffffffffffffffffffffffffffffffffffff161480610caf5750610cae85610ca9611eb0565b611a15565b5b610cee576040517f08c379a0000000000000000000000000000000000000000000000000000000008152600401610ce5906142ba565b60405180910390fd5b610cfb8585858585611eb8565b5050505050565b6000600554905090565b60608151835114610d52576040517f08c379a0000000000000000000000000000000000000000000000000000000008152600401610d49906143fa565b60405180910390fd5b6000835167ffffffffffffffff811115610d6f57610d6e614a04565b5b604051908082528060200260200182016040528015610d9d5781602001602082028036833780820191505090505b50905060005b8451811015610e1a57610dea858281518110610dc257610dc16149d5565b5b6020026020010151858381518110610ddd57610ddc6149d5565b5b60200260200101516105e2565b828281518110610dfd57610dfc6149d5565b5b60200260200101818152505080610e1390614876565b9050610da3565b508091505092915050565b6000600460003373ffffffffffffffffffffffffffffffffffffffff1673ffffffffffffffffffffffffffffffffffffffff16815260200190815260200160002060009054906101000a900460ff1680610e8b5750600660009054906101000a900460ff165b610eca576040517f08c379a0000000000000000000000000000000000000000000000000000000008152600401610ec19061425a565b60405180910390fd5b602460009054906101000a900473ffffffffffffffffffffffffffffffffffffffff1673ffffffffffffffffffffffffffffffffffffffff166344eaa84e6040518163ffffffff1660e01b815260040160206040518083038186803b158015610f3257600080fd5b505afa158015610f46573d6000803e3d6000fd5b505050506040513d601f19601f82011682018060405250810190610f6a9190613929565b905090565b610f77611eb0565b73ffffffffffffffffffffffffffffffffffffffff16610f956114cf565b73ffffffffffffffffffffffffffffffffffffffff1614610feb576040517f08c379a0000000000000000000000000000000000000000000000000000000008152600401610fe29061433a565b60405180910390fd5b600060256000848152602001908152602001600020805461100b90614813565b90501461104d576040517f08c379a0000000000000000000000000000000000000000000000000000000008152600401611044906142da565b60405180910390fd5b806025600084815260200190815260200160002090805190602001906110749291906131ed565b505050565b611081611eb0565b73ffffffffffffffffffffffffffffffffffffffff1661109f6114cf565b73ffffffffffffffffffffffffffffffffffffffff16146110f5576040517f08c379a00000000000000000000000000000000000000000000000000000000081526004016110ec9061433a565b60405180910390fd5b60005b600f54811015611169576000600f5482601954611115919061463b565b61111f9190614917565b9050611155816007611130846121cc565b604051602001611141929190613f47565b604051602081830303815290604052610f6f565b50808061116190614876565b9150506110f8565b50611196600f5460086040516020016111829190613f30565b604051602081830303815290604052610f6f565b565b6111a0611eb0565b73ffffffffffffffffffffffffffffffffffffffff166111be6114cf565b73ffffffffffffffffffffffffffffffffffffffff1614611214576040517f08c379a000000000000000000000000000000000000000000000000000000000815260040161120b9061433a565b60405180910390fd5b61121e600061232d565b565b611228611eb0565b73ffffffffffffffffffffffffffffffffffffffff166112466114cf565b73ffffffffffffffffffffffffffffffffffffffff161461129c576040517f08c379a00000000000000000000000000000000000000000000000000000000081526004016112939061433a565b60405180910390fd5b602460009054906101000a900473ffffffffffffffffffffffffffffffffffffffff1673ffffffffffffffffffffffffffffffffffffffff16637b9417c8826040518263ffffffff1660e01b81526004016112f79190613fd5565b602060405180830381600087803b15801561131157600080fd5b505af1158015611325573d6000803e3d6000fd5b505050506040513d601f19601f820116820180604052508101906113499190613875565b5050565b6000611357611eb0565b73ffffffffffffffffffffffffffffffffffffffff166113756114cf565b73ffffffffffffffffffffffffffffffffffffffff16146113cb576040517f08c379a00000000000000000000000000000000000000000000000000000000081526004016113c29061433a565b60405180910390fd5b600460008373ffffffffffffffffffffffffffffffffffffffff1673ffffffffffffffffffffffffffffffffffffffff16815260200190815260200160002060009054906101000a900460ff166114ca576001600460008473ffffffffffffffffffffffffffffffffffffffff1673ffffffffffffffffffffffffffffffffffffffff16815260200190815260200160002060006101000a81548160ff0219169083151502179055507fd1bba68c128cc3f427e5831b3c6f99f480b6efa6b9e80c757768f6124158cc3f826040516114a39190613fd5565b60405180910390a16001600560008282546114be919061463b565b92505081905550600190505b919050565b6000600360009054906101000a900473ffffffffffffffffffffffffffffffffffffffff16905090565b60046020528060005260406000206000915054906101000a900460ff1681565b600460003373ffffffffffffffffffffffffffffffffffffffff1673ffffffffffffffffffffffffffffffffffffffff16815260200190815260200160002060009054906101000a900460ff168061157d5750600660009054906101000a900460ff165b6115bc576040517f08c379a00000000000000000000000000000000000000000000000000000000081526004016115b39061425a565b60405180910390fd5b6000600f549050600e5460155410611609576040517f08c379a00000000000000000000000000000000000000000000000000000000081526004016116009061437a565b60405180910390fd5b600161161533836105e2565b10611655576040517f08c379a000000000000000000000000000000000000000000000000000000000815260040161164c906143ba565b60405180910390fd5b611697338260016040518060400160405280600481526020017f30783030000000000000000000000000000000000000000000000000000000008152506123f3565b6001601560008282546116aa919061463b565b925050819055506001602360008282546116c4919061471c565b925050819055507f2e0f4d63dcc00e6a11c8aef9f6e15c1f9cd6e9a090b2dd99c7b797f1a28d300d336015546040516116fe9291906140b2565b60405180910390a150565b61171b611714611eb0565b8383612589565b5050565b600460003373ffffffffffffffffffffffffffffffffffffffff1673ffffffffffffffffffffffffffffffffffffffff16815260200190815260200160002060009054906101000a900460ff16806117835750600660009054906101000a900460ff165b6117c2576040517f08c379a00000000000000000000000000000000000000000000000000000000081526004016117b99061425a565b60405180910390fd5b6000600f549050601460009054906101000a900460ff16611818576040517f08c379a000000000000000000000000000000000000000000000000000000000815260040161180f9061439a565b60405180910390fd5b600161182433836105e2565b14611864576040517f08c379a000000000000000000000000000000000000000000000000000000000815260040161185b9061435a565b60405180910390fd5b600061186e6126f6565b905060005b60058160ff1610156118b5576118a2828260ff1660058110611898576118976149d5565b5b60200201516127da565b80806118ad906148bf565b915050611873565b506118c2338360016128d5565b7f15abe0b63b201b70614c230381f0fabc4a26a1957629948558095a11db1d6fb581336040516118f39291906140db565b60405180910390a15050565b601460009054906101000a900460ff1681565b60235481565b600660009054906101000a900460ff1681565b6000611935611eb0565b73ffffffffffffffffffffffffffffffffffffffff166119536114cf565b73ffffffffffffffffffffffffffffffffffffffff16146119a9576040517f08c379a00000000000000000000000000000000000000000000000000000000081526004016119a09061433a565b60405180910390fd5b60005b8251811015611a0f576119d88382815181106119cb576119ca6149d5565b5b602002602001015161134d565b156119fc576001600560008282546119f0919061463b565b92505081905550600191505b8080611a0790614876565b9150506119ac565b50919050565b6000600160008473ffffffffffffffffffffffffffffffffffffffff1673ffffffffffffffffffffffffffffffffffffffff16815260200190815260200160002060008373ffffffffffffffffffffffffffffffffffffffff1673ffffffffffffffffffffffffffffffffffffffff16815260200190815260200160002060009054906101000a900460ff16905092915050565b611ab1611eb0565b73ffffffffffffffffffffffffffffffffffffffff16611acf6114cf565b73ffffffffffffffffffffffffffffffffffffffff1614611b25576040517f08c379a0000000000000000000000000000000000000000000000000000000008152600401611b1c9061433a565b60405180910390fd5b601054600f54611b3591906146c2565b600143611b42919061471c565b4060001c611b509190614917565b60198190555060006019541415611b7e57611b776001601954612af290919063ffffffff16565b6019819055505b565b611b88611eb0565b73ffffffffffffffffffffffffffffffffffffffff168573ffffffffffffffffffffffffffffffffffffffff161480611bce5750611bcd85611bc8611eb0565b611a15565b5b611c0d576040517f08c379a0000000000000000000000000000000000000000000000000000000008152600401611c049061423a565b60405180910390fd5b611c1a8585858585612b08565b5050505050565b611c29611eb0565b73ffffffffffffffffffffffffffffffffffffffff16611c476114cf565b73ffffffffffffffffffffffffffffffffffffffff1614611c9d576040517f08c379a0000000000000000000000000000000000000000000000000000000008152600401611c949061433a565b60405180910390fd5b600073ffffffffffffffffffffffffffffffffffffffff168173ffffffffffffffffffffffffffffffffffffffff161415611d0d576040517f08c379a0000000000000000000000000000000000000000000000000000000008152600401611d04906141fa565b60405180910390fd5b611d168161232d565b50565b611d21611eb0565b73ffffffffffffffffffffffffffffffffffffffff16611d3f6114cf565b73ffffffffffffffffffffffffffffffffffffffff1614611d95576040517f08c379a0000000000000000000000000000000000000000000000000000000008152600401611d8c9061433a565b60405180910390fd5b602460009054906101000a900473ffffffffffffffffffffffffffffffffffffffff1673ffffffffffffffffffffffffffffffffffffffff1663286dd3f5826040518263ffffffff1660e01b8152600401611df09190613fd5565b602060405180830381600087803b158015611e0a57600080fd5b505af1158015611e1e573d6000803e3d6000fd5b505050506040513d601f19601f82011682018060405250810190611e429190613875565b5050565b60007f01ffc9a7000000000000000000000000000000000000000000000000000000007bffffffffffffffffffffffffffffffffffffffffffffffffffffffff1916827bffffffffffffffffffffffffffffffffffffffffffffffffffffffff1916149050919050565b600033905090565b8151835114611efc576040517f08c379a0000000000000000000000000000000000000000000000000000000008152600401611ef39061441a565b60405180910390fd5b600073ffffffffffffffffffffffffffffffffffffffff168473ffffffffffffffffffffffffffffffffffffffff161415611f6c576040517f08c379a0000000000000000000000000000000000000000000000000000000008152600401611f639061429a565b60405180910390fd5b6000611f76611eb0565b9050611f86818787878787612d8a565b60005b8451811015612137576000858281518110611fa757611fa66149d5565b5b602002602001015190506000858381518110611fc657611fc56149d5565b5b60200260200101519050600080600084815260200190815260200160002060008b73ffffffffffffffffffffffffffffffffffffffff1673ffffffffffffffffffffffffffffffffffffffff16815260200190815260200160002054905081811015612067576040517f08c379a000000000000000000000000000000000000000000000000000000000815260040161205e9061431a565b60405180910390fd5b81810360008085815260200190815260200160002060008c73ffffffffffffffffffffffffffffffffffffffff1673ffffffffffffffffffffffffffffffffffffffff168152602001908152602001600020819055508160008085815260200190815260200160002060008b73ffffffffffffffffffffffffffffffffffffffff1673ffffffffffffffffffffffffffffffffffffffff168152602001908152602001600020600082825461211c919061463b565b925050819055505050508061213090614876565b9050611f89565b508473ffffffffffffffffffffffffffffffffffffffff168673ffffffffffffffffffffffffffffffffffffffff168273ffffffffffffffffffffffffffffffffffffffff167f4a39dc06d4c0dbc64b70af90fd698a233a518aa5d07e595d983b8c0526c8f7fb87876040516121ae929190614126565b60405180910390a46121c4818787878787612d92565b505050505050565b60606000821415612214576040518060400160405280600181526020017f30000000000000000000000000000000000000000000000000000000000000008152509050612328565b600082905060005b6000821461224657808061222f90614876565b915050600a8261223f9190614691565b915061221c565b60008167ffffffffffffffff81111561226257612261614a04565b5b6040519080825280601f01601f1916602001820160405280156122945781602001600182028036833780820191505090505b5090505b60008514612321576001826122ad919061471c565b9150600a856122bc9190614917565b60306122c8919061463b565b60f81b8183815181106122de576122dd6149d5565b5b60200101907effffffffffffffffffffffffffffffffffffffffffffffffffffffffffffff1916908160001a905350600a8561231a9190614691565b9450612298565b8093505050505b919050565b6000600360009054906101000a900473ffffffffffffffffffffffffffffffffffffffff16905081600360006101000a81548173ffffffffffffffffffffffffffffffffffffffff021916908373ffffffffffffffffffffffffffffffffffffffff1602179055508173ffffffffffffffffffffffffffffffffffffffff168173ffffffffffffffffffffffffffffffffffffffff167f8be0079c531659141344cd1fd0a4f28419497f9722a3daafe3b4186f6b6457e060405160405180910390a35050565b600073ffffffffffffffffffffffffffffffffffffffff168473ffffffffffffffffffffffffffffffffffffffff161415612463576040517f08c379a000000000000000000000000000000000000000000000000000000000815260040161245a9061443a565b60405180910390fd5b600061246d611eb0565b905061248e8160008761247f88612f79565b61248888612f79565b87612d8a565b8260008086815260200190815260200160002060008773ffffffffffffffffffffffffffffffffffffffff1673ffffffffffffffffffffffffffffffffffffffff16815260200190815260200160002060008282546124ed919061463b565b925050819055508473ffffffffffffffffffffffffffffffffffffffff16600073ffffffffffffffffffffffffffffffffffffffff168273ffffffffffffffffffffffffffffffffffffffff167fc3d58168c5ae7397731d063d5bbf3d657854427343f4c083240f7aacaa2d0f62878760405161256b929190614475565b60405180910390a461258281600087878787612ff3565b5050505050565b8173ffffffffffffffffffffffffffffffffffffffff168373ffffffffffffffffffffffffffffffffffffffff1614156125f8576040517f08c379a00000000000000000000000000000000000000000000000000000000081526004016125ef906143da565b60405180910390fd5b80600160008573ffffffffffffffffffffffffffffffffffffffff1673ffffffffffffffffffffffffffffffffffffffff16815260200190815260200160002060008473ffffffffffffffffffffffffffffffffffffffff1673ffffffffffffffffffffffffffffffffffffffff16815260200190815260200160002060006101000a81548160ff0219169083151502179055508173ffffffffffffffffffffffffffffffffffffffff168373ffffffffffffffffffffffffffffffffffffffff167f17307eab39ab6107e8899845ad3d59bd9653f200f220920489ca2b5937696c31836040516126e9919061415d565b60405180910390a3505050565b6126fe613273565b612706613273565b60005b60058110156127d2576000600a8261272191906146c2565b905060006009600a8461273491906146c2565b61273e919061463b565b9050816001838361274f919061471c565b612759919061463b565b42334487601554604051602001612774959493929190613f76565b6040516020818303038152906040528051906020012060001c6127979190614917565b6127a1919061463b565b8484600581106127b4576127b36149d5565b5b602002018181525050505080806127ca90614876565b915050612709565b508091505090565b601054600f546127ea91906146c2565b60175410156128d25760105460266000838152602001908152602001600020541061284a576040517f08c379a00000000000000000000000000000000000000000000000000000000081526004016128419061427a565b60405180910390fd5b61288c338260016040518060400160405280600481526020017f30783030000000000000000000000000000000000000000000000000000000008152506123f3565b60016026600083815260200190815260200160002060008282546128b0919061463b565b925050819055506001601760008282546128ca919061463b565b925050819055505b50565b600073ffffffffffffffffffffffffffffffffffffffff168373ffffffffffffffffffffffffffffffffffffffff161415612945576040517f08c379a000000000000000000000000000000000000000000000000000000000815260040161293c906142fa565b60405180910390fd5b600061294f611eb0565b905061297f8185600061296187612f79565b61296a87612f79565b60405180602001604052806000815250612d8a565b600080600085815260200190815260200160002060008673ffffffffffffffffffffffffffffffffffffffff1673ffffffffffffffffffffffffffffffffffffffff16815260200190815260200160002054905082811015612a16576040517f08c379a0000000000000000000000000000000000000000000000000000000008152600401612a0d9061421a565b60405180910390fd5b82810360008086815260200190815260200160002060008773ffffffffffffffffffffffffffffffffffffffff1673ffffffffffffffffffffffffffffffffffffffff16815260200190815260200160002081905550600073ffffffffffffffffffffffffffffffffffffffff168573ffffffffffffffffffffffffffffffffffffffff168373ffffffffffffffffffffffffffffffffffffffff167fc3d58168c5ae7397731d063d5bbf3d657854427343f4c083240f7aacaa2d0f628787604051612ae3929190614475565b60405180910390a45050505050565b60008183612b00919061463b565b905092915050565b600073ffffffffffffffffffffffffffffffffffffffff168473ffffffffffffffffffffffffffffffffffffffff161415612b78576040517f08c379a0000000000000000000000000000000000000000000000000000000008152600401612b6f9061429a565b60405180910390fd5b6000612b82611eb0565b9050612ba2818787612b9388612f79565b612b9c88612f79565b87612d8a565b600080600086815260200190815260200160002060008873ffffffffffffffffffffffffffffffffffffffff1673ffffffffffffffffffffffffffffffffffffffff16815260200190815260200160002054905083811015612c39576040517f08c379a0000000000000000000000000000000000000000000000000000000008152600401612c309061431a565b60405180910390fd5b83810360008087815260200190815260200160002060008973ffffffffffffffffffffffffffffffffffffffff1673ffffffffffffffffffffffffffffffffffffffff168152602001908152602001600020819055508360008087815260200190815260200160002060008873ffffffffffffffffffffffffffffffffffffffff1673ffffffffffffffffffffffffffffffffffffffff1681526020019081526020016000206000828254612cee919061463b565b925050819055508573ffffffffffffffffffffffffffffffffffffffff168773ffffffffffffffffffffffffffffffffffffffff168373ffffffffffffffffffffffffffffffffffffffff167fc3d58168c5ae7397731d063d5bbf3d657854427343f4c083240f7aacaa2d0f628888604051612d6b929190614475565b60405180910390a4612d81828888888888612ff3565b50505050505050565b505050505050565b612db18473ffffffffffffffffffffffffffffffffffffffff166131da565b15612f71578373ffffffffffffffffffffffffffffffffffffffff1663bc197c8187878686866040518663ffffffff1660e01b8152600401612df7959493929190613ff0565b602060405180830381600087803b158015612e1157600080fd5b505af1925050508015612e4257506040513d601f19601f82011682018060405250810190612e3f91906138cf565b60015b612ee857612e4e614a33565b806308c379a01415612eab5750612e636150f4565b80612e6e5750612ead565b806040517f08c379a0000000000000000000000000000000000000000000000000000000008152600401612ea29190614178565b60405180910390fd5b505b6040517f08c379a0000000000000000000000000000000000000000000000000000000008152600401612edf9061419a565b60405180910390fd5b63bc197c8160e01b7bffffffffffffffffffffffffffffffffffffffffffffffffffffffff1916817bffffffffffffffffffffffffffffffffffffffffffffffffffffffff191614612f6f576040517f08c379a0000000000000000000000000000000000000000000000000000000008152600401612f66906141ba565b60405180910390fd5b505b505050505050565b60606000600167ffffffffffffffff811115612f9857612f97614a04565b5b604051908082528060200260200182016040528015612fc65781602001602082028036833780820191505090505b5090508281600081518110612fde57612fdd6149d5565b5b60200260200101818152505080915050919050565b6130128473ffffffffffffffffffffffffffffffffffffffff166131da565b156131d2578373ffffffffffffffffffffffffffffffffffffffff1663f23a6e6187878686866040518663ffffffff1660e01b8152600401613058959493929190614058565b602060405180830381600087803b15801561307257600080fd5b505af19250505080156130a357506040513d601f19601f820116820180604052508101906130a091906138cf565b60015b613149576130af614a33565b806308c379a0141561310c57506130c46150f4565b806130cf575061310e565b806040517f08c379a00000000000000000000000000000000000000000000000000000000081526004016131039190614178565b60405180910390fd5b505b6040517f08c379a00000000000000000000000000000000000000000000000000000000081526004016131409061419a565b60405180910390fd5b63f23a6e6160e01b7bffffffffffffffffffffffffffffffffffffffffffffffffffffffff1916817bffffffffffffffffffffffffffffffffffffffffffffffffffffffff1916146131d0576040517f08c379a00000000000000000000000000000000000000000000000000000000081526004016131c7906141ba565b60405180910390fd5b505b505050505050565b600080823b905060008111915050919050565b8280546131f990614813565b90600052602060002090601f01602090048101928261321b5760008555613262565b82601f1061323457805160ff1916838001178555613262565b82800160010185558215613262579182015b82811115613261578251825591602001919060010190613246565b5b50905061326f9190613295565b5090565b6040518060a00160405280600590602082028036833780820191505090505090565b5b808211156132ae576000816000905550600101613296565b5090565b60006132c56132c0846144c3565b61449e565b905080838252602082019050828560208602820111156132e8576132e7614a5a565b5b60005b8581101561331857816132fe8882613416565b8452602084019350602083019250506001810190506132eb565b5050509392505050565b6000613335613330846144ef565b61449e565b9050808382526020820190508285602086028201111561335857613357614a5a565b5b60005b85811015613388578161336e8882613537565b84526020840193506020830192505060018101905061335b565b5050509392505050565b60006133a56133a08461451b565b61449e565b9050828152602081018484840111156133c1576133c0614a5f565b5b6133cc8482856147d1565b509392505050565b60006133e76133e28461454c565b61449e565b90508281526020810184848401111561340357613402614a5f565b5b61340e8482856147d1565b509392505050565b6000813590506134258161518a565b92915050565b600082601f8301126134405761343f614a55565b5b81356134508482602086016132b2565b91505092915050565b600082601f83011261346e5761346d614a55565b5b813561347e848260208601613322565b91505092915050565b600081359050613496816151a1565b92915050565b6000815190506134ab816151a1565b92915050565b6000813590506134c0816151b8565b92915050565b6000815190506134d5816151b8565b92915050565b600082601f8301126134f0576134ef614a55565b5b8135613500848260208601613392565b91505092915050565b600082601f83011261351e5761351d614a55565b5b813561352e8482602086016133d4565b91505092915050565b600081359050613546816151cf565b92915050565b60008151905061355b816151cf565b92915050565b60006020828403121561357757613576614a69565b5b600061358584828501613416565b91505092915050565b600080604083850312156135a5576135a4614a69565b5b60006135b385828601613416565b92505060206135c485828601613416565b9150509250929050565b600080600080600060a086880312156135ea576135e9614a69565b5b60006135f888828901613416565b955050602061360988828901613416565b945050604086013567ffffffffffffffff81111561362a57613629614a64565b5b61363688828901613459565b935050606086013567ffffffffffffffff81111561365757613656614a64565b5b61366388828901613459565b925050608086013567ffffffffffffffff81111561368457613683614a64565b5b613690888289016134db565b9150509295509295909350565b600080600080600060a086880312156136b9576136b8614a69565b5b60006136c788828901613416565b95505060206136d888828901613416565b94505060406136e988828901613537565b93505060606136fa88828901613537565b925050608086013567ffffffffffffffff81111561371b5761371a614a64565b5b613727888289016134db565b9150509295509295909350565b6000806040838503121561374b5761374a614a69565b5b600061375985828601613416565b925050602061376a85828601613487565b9150509250929050565b6000806040838503121561378b5761378a614a69565b5b600061379985828601613416565b92505060206137aa85828601613537565b9150509250929050565b6000602082840312156137ca576137c9614a69565b5b600082013567ffffffffffffffff8111156137e8576137e7614a64565b5b6137f48482850161342b565b91505092915050565b6000806040838503121561381457613813614a69565b5b600083013567ffffffffffffffff81111561383257613831614a64565b5b61383e8582860161342b565b925050602083013567ffffffffffffffff81111561385f5761385e614a64565b5b61386b85828601613459565b9150509250929050565b60006020828403121561388b5761388a614a69565b5b60006138998482850161349c565b91505092915050565b6000602082840312156138b8576138b7614a69565b5b60006138c6848285016134b1565b91505092915050565b6000602082840312156138e5576138e4614a69565b5b60006138f3848285016134c6565b91505092915050565b60006020828403121561391257613911614a69565b5b600061392084828501613537565b91505092915050565b60006020828403121561393f5761393e614a69565b5b600061394d8482850161354c565b91505092915050565b6000806040838503121561396d5761396c614a69565b5b600061397b85828601613537565b925050602083013567ffffffffffffffff81111561399c5761399b614a64565b5b6139a885828601613509565b9150509250929050565b60006139be8383613efb565b60208301905092915050565b6139d381614750565b82525050565b6139ea6139e582614750565b6148e9565b82525050565b6139f9816145ac565b613a0381846145f2565b9250613a0e8261457d565b8060005b83811015613a3f578151613a2687826139b2565b9650613a31836145d8565b925050600181019050613a12565b505050505050565b6000613a52826145b7565b613a5c81856145fd565b9350613a6783614587565b8060005b83811015613a98578151613a7f88826139b2565b9750613a8a836145e5565b925050600181019050613a6b565b5085935050505092915050565b613aae81614762565b82525050565b6000613abf826145c2565b613ac9818561460e565b9350613ad98185602086016147e0565b613ae281614a6e565b840191505092915050565b6000613af8826145cd565b613b02818561461f565b9350613b128185602086016147e0565b613b1b81614a6e565b840191505092915050565b6000613b31826145cd565b613b3b8185614630565b9350613b4b8185602086016147e0565b80840191505092915050565b60008154613b6481614813565b613b6e8186614630565b94506001821660008114613b895760018114613b9a57613bcd565b60ff19831686528186019350613bcd565b613ba385614597565b60005b83811015613bc557815481890152600182019150602081019050613ba6565b838801955050505b50505092915050565b6000613be360348361461f565b9150613bee82614a99565b604082019050919050565b6000613c0660288361461f565b9150613c1182614ae8565b604082019050919050565b6000613c29602b8361461f565b9150613c3482614b37565b604082019050919050565b6000613c4c60268361461f565b9150613c5782614b86565b604082019050919050565b6000613c6f60248361461f565b9150613c7a82614bd5565b604082019050919050565b6000613c9260298361461f565b9150613c9d82614c24565b604082019050919050565b6000613cb5601a8361461f565b9150613cc082614c73565b602082019050919050565b6000613cd8602d8361461f565b9150613ce382614c9c565b604082019050919050565b6000613cfb60258361461f565b9150613d0682614ceb565b604082019050919050565b6000613d1e60328361461f565b9150613d2982614d3a565b604082019050919050565b6000613d4160148361461f565b9150613d4c82614d89565b602082019050919050565b6000613d6460238361461f565b9150613d6f82614db2565b604082019050919050565b6000613d87602a8361461f565b9150613d9282614e01565b604082019050919050565b6000613daa600583614630565b9150613db582614e50565b600582019050919050565b6000613dcd60208361461f565b9150613dd882614e79565b602082019050919050565b6000613df0602f8361461f565b9150613dfb82614ea2565b604082019050919050565b6000613e1360238361461f565b9150613e1e82614ef1565b604082019050919050565b6000613e36601f8361461f565b9150613e4182614f40565b602082019050919050565b6000613e59602a8361461f565b9150613e6482614f69565b604082019050919050565b6000613e7c60298361461f565b9150613e8782614fb8565b604082019050919050565b6000613e9f60298361461f565b9150613eaa82615007565b604082019050919050565b6000613ec260288361461f565b9150613ecd82615056565b604082019050919050565b6000613ee560218361461f565b9150613ef0826150a5565b604082019050919050565b613f04816147ba565b82525050565b613f13816147ba565b82525050565b613f2a613f25826147ba565b61490d565b82525050565b6000613f3c8284613b57565b915081905092915050565b6000613f538285613b57565b9150613f5f8284613b26565b9150613f6a82613d9d565b91508190509392505050565b6000613f828288613f19565b602082019150613f9282876139d9565b601482019150613fa28286613f19565b602082019150613fb28285613f19565b602082019150613fc28284613f19565b6020820191508190509695505050505050565b6000602082019050613fea60008301846139ca565b92915050565b600060a08201905061400560008301886139ca565b61401260208301876139ca565b81810360408301526140248186613a47565b905081810360608301526140388185613a47565b9050818103608083015261404c8184613ab4565b90509695505050505050565b600060a08201905061406d60008301886139ca565b61407a60208301876139ca565b6140876040830186613f0a565b6140946060830185613f0a565b81810360808301526140a68184613ab4565b90509695505050505050565b60006040820190506140c760008301856139ca565b6140d46020830184613f0a565b9392505050565b600060c0820190506140f060008301856139f0565b6140fd60a08301846139ca565b9392505050565b6000602082019050818103600083015261411e8184613a47565b905092915050565b600060408201905081810360008301526141408185613a47565b905081810360208301526141548184613a47565b90509392505050565b60006020820190506141726000830184613aa5565b92915050565b600060208201905081810360008301526141928184613aed565b905092915050565b600060208201905081810360008301526141b381613bd6565b9050919050565b600060208201905081810360008301526141d381613bf9565b9050919050565b600060208201905081810360008301526141f381613c1c565b9050919050565b6000602082019050818103600083015261421381613c3f565b9050919050565b6000602082019050818103600083015261423381613c62565b9050919050565b6000602082019050818103600083015261425381613c85565b9050919050565b6000602082019050818103600083015261427381613ca8565b9050919050565b6000602082019050818103600083015261429381613ccb565b9050919050565b600060208201905081810360008301526142b381613cee565b9050919050565b600060208201905081810360008301526142d381613d11565b9050919050565b600060208201905081810360008301526142f381613d34565b9050919050565b6000602082019050818103600083015261431381613d57565b9050919050565b6000602082019050818103600083015261433381613d7a565b9050919050565b6000602082019050818103600083015261435381613dc0565b9050919050565b6000602082019050818103600083015261437381613de3565b9050919050565b6000602082019050818103600083015261439381613e06565b9050919050565b600060208201905081810360008301526143b381613e29565b9050919050565b600060208201905081810360008301526143d381613e4c565b9050919050565b600060208201905081810360008301526143f381613e6f565b9050919050565b6000602082019050818103600083015261441381613e92565b9050919050565b6000602082019050818103600083015261443381613eb5565b9050919050565b6000602082019050818103600083015261445381613ed8565b9050919050565b600060208201905061446f6000830184613f0a565b92915050565b600060408201905061448a6000830185613f0a565b6144976020830184613f0a565b9392505050565b60006144a86144b9565b90506144b48282614845565b919050565b6000604051905090565b600067ffffffffffffffff8211156144de576144dd614a04565b5b602082029050602081019050919050565b600067ffffffffffffffff82111561450a57614509614a04565b5b602082029050602081019050919050565b600067ffffffffffffffff82111561453657614535614a04565b5b61453f82614a6e565b9050602081019050919050565b600067ffffffffffffffff82111561456757614566614a04565b5b61457082614a6e565b9050602081019050919050565b6000819050919050565b6000819050602082019050919050565b60008190508160005260206000209050919050565b600060059050919050565b600081519050919050565b600081519050919050565b600081519050919050565b6000602082019050919050565b6000602082019050919050565b600081905092915050565b600082825260208201905092915050565b600082825260208201905092915050565b600082825260208201905092915050565b600081905092915050565b6000614646826147ba565b9150614651836147ba565b9250827fffffffffffffffffffffffffffffffffffffffffffffffffffffffffffffffff0382111561468657614685614948565b5b828201905092915050565b600061469c826147ba565b91506146a7836147ba565b9250826146b7576146b6614977565b5b828204905092915050565b60006146cd826147ba565b91506146d8836147ba565b9250817fffffffffffffffffffffffffffffffffffffffffffffffffffffffffffffffff048311821515161561471157614710614948565b5b828202905092915050565b6000614727826147ba565b9150614732836147ba565b92508282101561474557614744614948565b5b828203905092915050565b600061475b8261479a565b9050919050565b60008115159050919050565b60007fffffffff0000000000000000000000000000000000000000000000000000000082169050919050565b600073ffffffffffffffffffffffffffffffffffffffff82169050919050565b6000819050919050565b600060ff82169050919050565b82818337600083830152505050565b60005b838110156147fe5780820151818401526020810190506147e3565b8381111561480d576000848401525b50505050565b6000600282049050600182168061482b57607f821691505b6020821081141561483f5761483e6149a6565b5b50919050565b61484e82614a6e565b810181811067ffffffffffffffff8211171561486d5761486c614a04565b5b80604052505050565b6000614881826147ba565b91507fffffffffffffffffffffffffffffffffffffffffffffffffffffffffffffffff8214156148b4576148b3614948565b5b600182019050919050565b60006148ca826147c4565b915060ff8214156148de576148dd614948565b5b600182019050919050565b60006148f4826148fb565b9050919050565b600061490682614a7f565b9050919050565b6000819050919050565b6000614922826147ba565b915061492d836147ba565b92508261493d5761493c614977565b5b828206905092915050565b7f4e487b7100000000000000000000000000000000000000000000000000000000600052601160045260246000fd5b7f4e487b7100000000000000000000000000000000000000000000000000000000600052601260045260246000fd5b7f4e487b7100000000000000000000000000000000000000000000000000000000600052602260045260246000fd5b7f4e487b7100000000000000000000000000000000000000000000000000000000600052603260045260246000fd5b7f4e487b7100000000000000000000000000000000000000000000000000000000600052604160045260246000fd5b600060033d1115614a525760046000803e614a4f600051614a8c565b90505b90565b600080fd5b600080fd5b600080fd5b600080fd5b600080fd5b6000601f19601f8301169050919050565b60008160601b9050919050565b60008160e01c9050919050565b7f455243313135353a207472616e7366657220746f206e6f6e204552433131353560008201527f526563656976657220696d706c656d656e746572000000000000000000000000602082015250565b7f455243313135353a204552433131353552656365697665722072656a6563746560008201527f6420746f6b656e73000000000000000000000000000000000000000000000000602082015250565b7f455243313135353a2062616c616e636520717565727920666f7220746865207a60008201527f65726f2061646472657373000000000000000000000000000000000000000000602082015250565b7f4f776e61626c653a206e6577206f776e657220697320746865207a65726f206160008201527f6464726573730000000000000000000000000000000000000000000000000000602082015250565b7f455243313135353a206275726e20616d6f756e7420657863656564732062616c60008201527f616e636500000000000000000000000000000000000000000000000000000000602082015250565b7f455243313135353a2063616c6c6572206973206e6f74206f776e6572206e6f7260008201527f20617070726f7665640000000000000000000000000000000000000000000000602082015250565b7f55736572206973206e6f742077686974656c6973746564203a28000000000000600082015250565b7f416c6c206f662074686973206174686c657465206861766520616c726561647960008201527f206265656e206d696e7465642100000000000000000000000000000000000000602082015250565b7f455243313135353a207472616e7366657220746f20746865207a65726f20616460008201527f6472657373000000000000000000000000000000000000000000000000000000602082015250565b7f455243313135353a207472616e736665722063616c6c6572206973206e6f742060008201527f6f776e6572206e6f7220617070726f7665640000000000000000000000000000602082015250565b7f43616e6e6f742073657420757269207477696365000000000000000000000000600082015250565b7f455243313135353a206275726e2066726f6d20746865207a65726f206164647260008201527f6573730000000000000000000000000000000000000000000000000000000000602082015250565b7f455243313135353a20696e73756666696369656e742062616c616e636520666f60008201527f72207472616e7366657200000000000000000000000000000000000000000000602082015250565b7f2e6a736f6e000000000000000000000000000000000000000000000000000000600082015250565b7f4f776e61626c653a2063616c6c6572206973206e6f7420746865206f776e6572600082015250565b7f5061636b2068617320616c7265616479206265656e206275726e6564206f722060008201527f646f6573206e6f742065786973742e0000000000000000000000000000000000602082015250565b7f416c6c207061636b73206861766520616c7265616479206265656e206d696e7460008201527f6564210000000000000000000000000000000000000000000000000000000000602082015250565b7f5061636b73206172656e277420726561647920746f206f70656e207965742100600082015250565b7f43616e206f6e6c79206d696e74206f6e652073746172746572207061636b207060008201527f6572206163636f756e7400000000000000000000000000000000000000000000602082015250565b7f455243313135353a2073657474696e6720617070726f76616c2073746174757360008201527f20666f722073656c660000000000000000000000000000000000000000000000602082015250565b7f455243313135353a206163636f756e747320616e6420696473206c656e67746860008201527f206d69736d617463680000000000000000000000000000000000000000000000602082015250565b7f455243313135353a2069647320616e6420616d6f756e7473206c656e6774682060008201527f6d69736d61746368000000000000000000000000000000000000000000000000602082015250565b7f455243313135353a206d696e7420746f20746865207a65726f2061646472657360008201527f7300000000000000000000000000000000000000000000000000000000000000602082015250565b600060443d101561510457615187565b61510c6144b9565b60043d036004823e80513d602482011167ffffffffffffffff82111715615134575050615187565b808201805167ffffffffffffffff8111156151525750505050615187565b80602083010160043d03850181111561516f575050505050615187565b61517e82602001850186614845565b82955050505050505b90565b61519381614750565b811461519e57600080fd5b50565b6151aa81614762565b81146151b557600080fd5b50565b6151c18161476e565b81146151cc57600080fd5b50565b6151d8816147ba565b81146151e357600080fd5b5056fea26469706673582212204d89bb02efdb86932f283ddca3f56a5ed71d29c70d49d76603eab22a8cd3ea7c64736f6c63430008070033608060405234801561001057600080fd5b5061002d61002261003260201b60201c565b61003a60201b60201c565b6100fe565b600033905090565b60008060009054906101000a900473ffffffffffffffffffffffffffffffffffffffff169050816000806101000a81548173ffffffffffffffffffffffffffffffffffffffff021916908373ffffffffffffffffffffffffffffffffffffffff1602179055508173ffffffffffffffffffffffffffffffffffffffff168173ffffffffffffffffffffffffffffffffffffffff167f8be0079c531659141344cd1fd0a4f28419497f9722a3daafe3b4186f6b6457e060405160405180910390a35050565b610eef8061010d6000396000f3fe608060405234801561001057600080fd5b506004361061009e5760003560e01c80638da5cb5b116100665780638da5cb5b1461015b5780639b19251a14610179578063dc9a1535146101a9578063e2ec6ec3146101c7578063f2fde38b146101f75761009e565b806324953eaa146100a3578063286dd3f5146100d357806344eaa84e14610103578063715018a6146101215780637b9417c81461012b575b600080fd5b6100bd60048036038101906100b89190610a7d565b610213565b6040516100ca9190610b54565b60405180910390f35b6100ed60048036038101906100e89190610a50565b6102fd565b6040516100fa9190610b54565b60405180910390f35b61010b610480565b6040516101189190610baf565b60405180910390f35b61012961048a565b005b61014560048036038101906101409190610a50565b610512565b6040516101529190610b54565b60405180910390f35b610163610693565b6040516101709190610b39565b60405180910390f35b610193600480360381019061018e9190610a50565b6106bc565b6040516101a09190610b54565b60405180910390f35b6101b16106dc565b6040516101be9190610b54565b60405180910390f35b6101e160048036038101906101dc9190610a7d565b6106ef565b6040516101ee9190610b54565b60405180910390f35b610211600480360381019061020c9190610a50565b6107d9565b005b600061021d6108d1565b73ffffffffffffffffffffffffffffffffffffffff1661023b610693565b73ffffffffffffffffffffffffffffffffffffffff1614610291576040517f08c379a000000000000000000000000000000000000000000000000000000000815260040161028890610b8f565b60405180910390fd5b60005b82518110156102f7576102c08382815181106102b3576102b2610da7565b5b60200260200101516102fd565b156102e4576001600260008282546102d89190610c82565b92505081905550600191505b80806102ef90610d2f565b915050610294565b50919050565b60006103076108d1565b73ffffffffffffffffffffffffffffffffffffffff16610325610693565b73ffffffffffffffffffffffffffffffffffffffff161461037b576040517f08c379a000000000000000000000000000000000000000000000000000000000815260040161037290610b8f565b60405180910390fd5b600160008373ffffffffffffffffffffffffffffffffffffffff1673ffffffffffffffffffffffffffffffffffffffff16815260200190815260200160002060009054906101000a900460ff161561047b576000600160008473ffffffffffffffffffffffffffffffffffffffff1673ffffffffffffffffffffffffffffffffffffffff16815260200190815260200160002060006101000a81548160ff0219169083151502179055507ff1abf01a1043b7c244d128e8595cf0c1d10743b022b03a02dffd8ca3bf729f5a826040516104549190610b39565b60405180910390a160016002600082825461046f9190610c82565b92505081905550600190505b919050565b6000600254905090565b6104926108d1565b73ffffffffffffffffffffffffffffffffffffffff166104b0610693565b73ffffffffffffffffffffffffffffffffffffffff1614610506576040517f08c379a00000000000000000000000000000000000000000000000000000000081526004016104fd90610b8f565b60405180910390fd5b61051060006108d9565b565b600061051c6108d1565b73ffffffffffffffffffffffffffffffffffffffff1661053a610693565b73ffffffffffffffffffffffffffffffffffffffff1614610590576040517f08c379a000000000000000000000000000000000000000000000000000000000815260040161058790610b8f565b60405180910390fd5b600160008373ffffffffffffffffffffffffffffffffffffffff1673ffffffffffffffffffffffffffffffffffffffff16815260200190815260200160002060009054906101000a900460ff1661068e5760018060008473ffffffffffffffffffffffffffffffffffffffff1673ffffffffffffffffffffffffffffffffffffffff16815260200190815260200160002060006101000a81548160ff0219169083151502179055507fd1bba68c128cc3f427e5831b3c6f99f480b6efa6b9e80c757768f6124158cc3f826040516106679190610b39565b60405180910390a16001600260008282546106829190610c2c565b92505081905550600190505b919050565b60008060009054906101000a900473ffffffffffffffffffffffffffffffffffffffff16905090565b60016020528060005260406000206000915054906101000a900460ff1681565b600360009054906101000a900460ff1681565b60006106f96108d1565b73ffffffffffffffffffffffffffffffffffffffff16610717610693565b73ffffffffffffffffffffffffffffffffffffffff161461076d576040517f08c379a000000000000000000000000000000000000000000000000000000000815260040161076490610b8f565b60405180910390fd5b60005b82518110156107d35761079c83828151811061078f5761078e610da7565b5b6020026020010151610512565b156107c0576001600260008282546107b49190610c2c565b92505081905550600191505b80806107cb90610d2f565b915050610770565b50919050565b6107e16108d1565b73ffffffffffffffffffffffffffffffffffffffff166107ff610693565b73ffffffffffffffffffffffffffffffffffffffff1614610855576040517f08c379a000000000000000000000000000000000000000000000000000000000815260040161084c90610b8f565b60405180910390fd5b600073ffffffffffffffffffffffffffffffffffffffff168173ffffffffffffffffffffffffffffffffffffffff1614156108c5576040517f08c379a00000000000000000000000000000000000000000000000000000000081526004016108bc90610b6f565b60405180910390fd5b6108ce816108d9565b50565b600033905090565b60008060009054906101000a900473ffffffffffffffffffffffffffffffffffffffff169050816000806101000a81548173ffffffffffffffffffffffffffffffffffffffff021916908373ffffffffffffffffffffffffffffffffffffffff1602179055508173ffffffffffffffffffffffffffffffffffffffff168173ffffffffffffffffffffffffffffffffffffffff167f8be0079c531659141344cd1fd0a4f28419497f9722a3daafe3b4186f6b6457e060405160405180910390a35050565b60006109b06109ab84610bef565b610bca565b905080838252602082019050828560208602820111156109d3576109d2610e0a565b5b60005b85811015610a0357816109e98882610a0d565b8452602084019350602083019250506001810190506109d6565b5050509392505050565b600081359050610a1c81610ea2565b92915050565b600082601f830112610a3757610a36610e05565b5b8135610a4784826020860161099d565b91505092915050565b600060208284031215610a6657610a65610e14565b5b6000610a7484828501610a0d565b91505092915050565b600060208284031215610a9357610a92610e14565b5b600082013567ffffffffffffffff811115610ab157610ab0610e0f565b5b610abd84828501610a22565b91505092915050565b610acf81610cb6565b82525050565b610ade81610cc8565b82525050565b6000610af1602683610c1b565b9150610afc82610e2a565b604082019050919050565b6000610b14602083610c1b565b9150610b1f82610e79565b602082019050919050565b610b3381610cf4565b82525050565b6000602082019050610b4e6000830184610ac6565b92915050565b6000602082019050610b696000830184610ad5565b92915050565b60006020820190508181036000830152610b8881610ae4565b9050919050565b60006020820190508181036000830152610ba881610b07565b9050919050565b6000602082019050610bc46000830184610b2a565b92915050565b6000610bd4610be5565b9050610be08282610cfe565b919050565b6000604051905090565b600067ffffffffffffffff821115610c0a57610c09610dd6565b5b602082029050602081019050919050565b600082825260208201905092915050565b6000610c3782610cf4565b9150610c4283610cf4565b9250827fffffffffffffffffffffffffffffffffffffffffffffffffffffffffffffffff03821115610c7757610c76610d78565b5b828201905092915050565b6000610c8d82610cf4565b9150610c9883610cf4565b925082821015610cab57610caa610d78565b5b828203905092915050565b6000610cc182610cd4565b9050919050565b60008115159050919050565b600073ffffffffffffffffffffffffffffffffffffffff82169050919050565b6000819050919050565b610d0782610e19565b810181811067ffffffffffffffff82111715610d2657610d25610dd6565b5b80604052505050565b6000610d3a82610cf4565b91507fffffffffffffffffffffffffffffffffffffffffffffffffffffffffffffffff821415610d6d57610d6c610d78565b5b600182019050919050565b7f4e487b7100000000000000000000000000000000000000000000000000000000600052601160045260246000fd5b7f4e487b7100000000000000000000000000000000000000000000000000000000600052603260045260246000fd5b7f4e487b7100000000000000000000000000000000000000000000000000000000600052604160045260246000fd5b600080fd5b600080fd5b600080fd5b600080fd5b6000601f19601f8301169050919050565b7f4f776e61626c653a206e6577206f776e657220697320746865207a65726f206160008201527f6464726573730000000000000000000000000000000000000000000000000000602082015250565b7f4f776e61626c653a2063616c6c6572206973206e6f7420746865206f776e6572600082015250565b610eab81610cb6565b8114610eb657600080fd5b5056fea2646970667358221220ce5a8c1ac30aa67d0790f09c9f63c08184d23037427080e7e9705621c914926764736f6c63430008070033",
  "linkReferences": {},
  "deployedLinkReferences": {}
}