{
  "_format": "hh-sol-artifact-1",
  "contractName": "GameItems",
  "sourceName": "contracts/GameItems.sol",
  "abi": [
    {
      "inputs": [
        {
          "components": [
            {
              "internalType": "uint256",
              "name": "_numAthletes",
              "type": "uint256"
            },
            {
              "internalType": "uint256",
              "name": "_nftPerAthlete",
              "type": "uint256"
            },
            {
              "internalType": "uint256",
              "name": "_starterPackSize",
              "type": "uint256"
            },
            {
              "internalType": "uint256",
              "name": "_boosterPackSize",
              "type": "uint256"
            },
            {
              "internalType": "uint256",
              "name": "_maxStarterPackBalance",
              "type": "uint256"
            },
            {
              "internalType": "uint256",
              "name": "_maxBoosterPackBalance",
              "type": "uint256"
            },
            {
              "internalType": "uint256",
              "name": "_maxPacks",
              "type": "uint256"
            },
            {
              "internalType": "uint256",
              "name": "_revealTimestamp",
              "type": "uint256"
            }
          ],
          "internalType": "struct GameItems.Parameters",
          "name": "params",
          "type": "tuple"
        },
        {
          "internalType": "string",
          "name": "_athleteURI",
          "type": "string"
        },
        {
          "internalType": "string",
          "name": "_starterPackURI",
          "type": "string"
        },
        {
          "internalType": "string",
          "name": "_boosterPackURI",
          "type": "string"
        }
      ],
      "stateMutability": "nonpayable",
      "type": "constructor"
    },
    {
      "anonymous": false,
      "inputs": [
        {
          "indexed": true,
          "internalType": "address",
          "name": "account",
          "type": "address"
        },
        {
          "indexed": true,
          "internalType": "address",
          "name": "operator",
          "type": "address"
        },
        {
          "indexed": false,
          "internalType": "bool",
          "name": "approved",
          "type": "bool"
        }
      ],
      "name": "ApprovalForAll",
      "type": "event"
    },
    {
      "anonymous": false,
      "inputs": [
        {
          "indexed": true,
          "internalType": "address",
          "name": "previousOwner",
          "type": "address"
        },
        {
          "indexed": true,
          "internalType": "address",
          "name": "newOwner",
          "type": "address"
        }
      ],
      "name": "OwnershipTransferred",
      "type": "event"
    },
    {
      "anonymous": false,
      "inputs": [
        {
          "indexed": true,
          "internalType": "address",
          "name": "operator",
          "type": "address"
        },
        {
          "indexed": true,
          "internalType": "address",
          "name": "from",
          "type": "address"
        },
        {
          "indexed": true,
          "internalType": "address",
          "name": "to",
          "type": "address"
        },
        {
          "indexed": false,
          "internalType": "uint256[]",
          "name": "ids",
          "type": "uint256[]"
        },
        {
          "indexed": false,
          "internalType": "uint256[]",
          "name": "values",
          "type": "uint256[]"
        }
      ],
      "name": "TransferBatch",
      "type": "event"
    },
    {
      "anonymous": false,
      "inputs": [
        {
          "indexed": true,
          "internalType": "address",
          "name": "operator",
          "type": "address"
        },
        {
          "indexed": true,
          "internalType": "address",
          "name": "from",
          "type": "address"
        },
        {
          "indexed": true,
          "internalType": "address",
          "name": "to",
          "type": "address"
        },
        {
          "indexed": false,
          "internalType": "uint256",
          "name": "id",
          "type": "uint256"
        },
        {
          "indexed": false,
          "internalType": "uint256",
          "name": "value",
          "type": "uint256"
        }
      ],
      "name": "TransferSingle",
      "type": "event"
    },
    {
      "anonymous": false,
      "inputs": [
        {
          "indexed": false,
          "internalType": "string",
          "name": "value",
          "type": "string"
        },
        {
          "indexed": true,
          "internalType": "uint256",
          "name": "id",
          "type": "uint256"
        }
      ],
      "name": "URI",
      "type": "event"
    },
    {
      "anonymous": false,
      "inputs": [
        {
          "indexed": false,
          "internalType": "uint256[5]",
          "name": "",
          "type": "uint256[5]"
        },
        {
          "indexed": false,
          "internalType": "address",
          "name": "signer",
          "type": "address"
        }
      ],
      "name": "packBurned",
      "type": "event"
    },
    {
      "anonymous": false,
      "inputs": [
        {
          "indexed": false,
          "internalType": "address",
          "name": "signer",
          "type": "address"
        },
        {
          "indexed": false,
          "internalType": "uint256",
          "name": "id",
          "type": "uint256"
        }
      ],
      "name": "packMinted",
      "type": "event"
    },
    {
      "inputs": [],
      "name": "REVEAL_TIMESTAMP",
      "outputs": [
        {
          "internalType": "uint256",
          "name": "",
          "type": "uint256"
        }
      ],
      "stateMutability": "view",
      "type": "function"
    },
    {
      "inputs": [
        {
          "internalType": "address",
          "name": "_userToAdd",
          "type": "address"
        }
      ],
      "name": "addUserToWhitelist",
      "outputs": [
        {
          "internalType": "bool",
          "name": "success",
          "type": "bool"
        }
      ],
      "stateMutability": "nonpayable",
      "type": "function"
    },
    {
      "inputs": [
        {
          "internalType": "address[]",
          "name": "addrs",
          "type": "address[]"
        }
      ],
      "name": "addUsersToWhitelist",
      "outputs": [
        {
          "internalType": "bool",
          "name": "success",
          "type": "bool"
        }
      ],
      "stateMutability": "nonpayable",
      "type": "function"
    },
    {
      "inputs": [
        {
          "internalType": "address",
          "name": "account",
          "type": "address"
        },
        {
          "internalType": "uint256",
          "name": "id",
          "type": "uint256"
        }
      ],
      "name": "balanceOf",
      "outputs": [
        {
          "internalType": "uint256",
          "name": "",
          "type": "uint256"
        }
      ],
      "stateMutability": "view",
      "type": "function"
    },
    {
      "inputs": [
        {
          "internalType": "address[]",
          "name": "accounts",
          "type": "address[]"
        },
        {
          "internalType": "uint256[]",
          "name": "ids",
          "type": "uint256[]"
        }
      ],
      "name": "balanceOfBatch",
      "outputs": [
        {
          "internalType": "uint256[]",
          "name": "",
          "type": "uint256[]"
        }
      ],
      "stateMutability": "view",
      "type": "function"
    },
    {
      "inputs": [],
      "name": "burnStarterPack",
      "outputs": [],
      "stateMutability": "nonpayable",
      "type": "function"
    },
    {
      "inputs": [],
      "name": "getNFTPerAthlete",
      "outputs": [
        {
          "internalType": "uint256",
          "name": "",
          "type": "uint256"
        }
      ],
      "stateMutability": "view",
      "type": "function"
    },
    {
      "inputs": [],
      "name": "getNumWhitelisted",
      "outputs": [
        {
          "internalType": "uint256",
          "name": "",
          "type": "uint256"
        }
      ],
      "stateMutability": "view",
      "type": "function"
    },
    {
      "inputs": [
        {
          "internalType": "address",
          "name": "account",
          "type": "address"
        },
        {
          "internalType": "address",
          "name": "operator",
          "type": "address"
        }
      ],
      "name": "isApprovedForAll",
      "outputs": [
        {
          "internalType": "bool",
          "name": "",
          "type": "bool"
        }
      ],
      "stateMutability": "view",
      "type": "function"
    },
    {
      "inputs": [
        {
          "internalType": "uint256",
          "name": "index",
          "type": "uint256"
        }
      ],
      "name": "mintAthlete",
      "outputs": [],
      "stateMutability": "nonpayable",
      "type": "function"
    },
    {
      "inputs": [],
      "name": "mintStarterPack",
      "outputs": [],
      "stateMutability": "nonpayable",
      "type": "function"
    },
    {
      "inputs": [],
      "name": "name",
      "outputs": [
        {
          "internalType": "string",
          "name": "",
          "type": "string"
        }
      ],
      "stateMutability": "view",
      "type": "function"
    },
    {
      "inputs": [],
      "name": "numWhitelisted",
      "outputs": [
        {
          "internalType": "uint256",
          "name": "",
          "type": "uint256"
        }
      ],
      "stateMutability": "view",
      "type": "function"
    },
    {
      "inputs": [],
      "name": "owner",
      "outputs": [
        {
          "internalType": "address",
          "name": "",
          "type": "address"
        }
      ],
      "stateMutability": "view",
      "type": "function"
    },
    {
      "inputs": [],
      "name": "packsAvailable",
      "outputs": [
        {
          "internalType": "uint256",
          "name": "",
          "type": "uint256"
        }
      ],
      "stateMutability": "view",
      "type": "function"
    },
    {
      "inputs": [],
      "name": "packsReadyToOpen",
      "outputs": [
        {
          "internalType": "bool",
          "name": "",
          "type": "bool"
        }
      ],
      "stateMutability": "view",
      "type": "function"
    },
    {
      "inputs": [
        {
          "internalType": "address",
          "name": "_userToRemove",
          "type": "address"
        }
      ],
      "name": "removeUserFromWhitelist",
      "outputs": [
        {
          "internalType": "bool",
          "name": "success",
          "type": "bool"
        }
      ],
      "stateMutability": "nonpayable",
      "type": "function"
    },
    {
      "inputs": [
        {
          "internalType": "address[]",
          "name": "addrs",
          "type": "address[]"
        }
      ],
      "name": "removeUsersFromWhitelist",
      "outputs": [
        {
          "internalType": "bool",
          "name": "success",
          "type": "bool"
        }
      ],
      "stateMutability": "nonpayable",
      "type": "function"
    },
    {
      "inputs": [],
      "name": "renounceOwnership",
      "outputs": [],
      "stateMutability": "nonpayable",
      "type": "function"
    },
    {
      "inputs": [
        {
          "internalType": "address",
          "name": "from",
          "type": "address"
        },
        {
          "internalType": "address",
          "name": "to",
          "type": "address"
        },
        {
          "internalType": "uint256[]",
          "name": "ids",
          "type": "uint256[]"
        },
        {
          "internalType": "uint256[]",
          "name": "amounts",
          "type": "uint256[]"
        },
        {
          "internalType": "bytes",
          "name": "data",
          "type": "bytes"
        }
      ],
      "name": "safeBatchTransferFrom",
      "outputs": [],
      "stateMutability": "nonpayable",
      "type": "function"
    },
    {
      "inputs": [
        {
          "internalType": "address",
          "name": "from",
          "type": "address"
        },
        {
          "internalType": "address",
          "name": "to",
          "type": "address"
        },
        {
          "internalType": "uint256",
          "name": "id",
          "type": "uint256"
        },
        {
          "internalType": "uint256",
          "name": "amount",
          "type": "uint256"
        },
        {
          "internalType": "bytes",
          "name": "data",
          "type": "bytes"
        }
      ],
      "name": "safeTransferFrom",
      "outputs": [],
      "stateMutability": "nonpayable",
      "type": "function"
    },
    {
      "inputs": [
        {
          "internalType": "address",
          "name": "operator",
          "type": "address"
        },
        {
          "internalType": "bool",
          "name": "approved",
          "type": "bool"
        }
      ],
      "name": "setApprovalForAll",
      "outputs": [],
      "stateMutability": "nonpayable",
      "type": "function"
    },
    {
      "inputs": [],
      "name": "setPacksReady",
      "outputs": [],
      "stateMutability": "nonpayable",
      "type": "function"
    },
    {
      "inputs": [],
      "name": "setStartingIndex",
      "outputs": [],
      "stateMutability": "nonpayable",
      "type": "function"
    },
    {
      "inputs": [
        {
          "internalType": "uint256",
          "name": "tokenId",
          "type": "uint256"
        },
        {
          "internalType": "string",
          "name": "uri",
          "type": "string"
        }
      ],
      "name": "setTokenUri",
      "outputs": [],
      "stateMutability": "nonpayable",
      "type": "function"
    },
    {
      "inputs": [],
      "name": "setURIs",
      "outputs": [],
      "stateMutability": "nonpayable",
      "type": "function"
    },
    {
      "inputs": [
        {
          "internalType": "bytes4",
          "name": "interfaceId",
          "type": "bytes4"
        }
      ],
      "name": "supportsInterface",
      "outputs": [
        {
          "internalType": "bool",
          "name": "",
          "type": "bool"
        }
      ],
      "stateMutability": "view",
      "type": "function"
    },
    {
      "inputs": [
        {
          "internalType": "address",
          "name": "newOwner",
          "type": "address"
        }
      ],
      "name": "transferOwnership",
      "outputs": [],
      "stateMutability": "nonpayable",
      "type": "function"
    },
    {
      "inputs": [
        {
          "internalType": "uint256",
          "name": "tokenId",
          "type": "uint256"
        }
      ],
      "name": "uri",
      "outputs": [
        {
          "internalType": "string",
          "name": "",
          "type": "string"
        }
      ],
      "stateMutability": "view",
      "type": "function"
    },
    {
      "inputs": [
        {
          "internalType": "address",
          "name": "",
          "type": "address"
        }
      ],
      "name": "userToHasBurnedPack",
      "outputs": [
        {
          "internalType": "bool",
          "name": "",
          "type": "bool"
        }
      ],
      "stateMutability": "view",
      "type": "function"
    },
    {
      "inputs": [
        {
          "internalType": "address",
          "name": "",
          "type": "address"
        }
      ],
      "name": "userToHasMintedPack",
      "outputs": [
        {
          "internalType": "bool",
          "name": "",
          "type": "bool"
        }
      ],
      "stateMutability": "view",
      "type": "function"
    },
    {
      "inputs": [
        {
          "internalType": "address",
          "name": "",
          "type": "address"
        }
      ],
      "name": "whitelist",
      "outputs": [
        {
          "internalType": "bool",
          "name": "",
          "type": "bool"
        }
      ],
      "stateMutability": "view",
      "type": "function"
    }
  ],
  "bytecode": "0x6080604052612710600f556040518060400160405280600881526020017f5465616d446966660000000000000000000000000000000000000000000000008152506010908051906020019062000057929190620002f1565b506000601160006101000a81548160ff02191690831515021790555060405180602001604052806000815250601790805190602001906200009a929190620002f1565b506000602360006101000a81548160ff021916908315150217905550348015620000c357600080fd5b506040516200561a3803806200561a8339818101604052810190620000e9919062000515565b6040518060400160405280600281526020017f544400000000000000000000000000000000000000000000000000000000000081525062000130816200020760201b60201c565b5062000151620001456200022360201b60201c565b6200022b60201b60201c565b8360000151600c819055508360200151600d819055508360400151600781905550836060015160088190555083608001516009819055508360a00151600a819055508360c00151600b819055508260049080519060200190620001b6929190620002f1565b508160059080519060200190620001cf929190620002f1565b508060069080519060200190620001e8929190620002f1565b508360e00151600f81905550600b546020819055505050505062000795565b80600290805190602001906200021f929190620002f1565b5050565b600033905090565b6000600360009054906101000a900473ffffffffffffffffffffffffffffffffffffffff16905081600360006101000a81548173ffffffffffffffffffffffffffffffffffffffff021916908373ffffffffffffffffffffffffffffffffffffffff1602179055508173ffffffffffffffffffffffffffffffffffffffff168173ffffffffffffffffffffffffffffffffffffffff167f8be0079c531659141344cd1fd0a4f28419497f9722a3daafe3b4186f6b6457e060405160405180910390a35050565b828054620002ff9062000687565b90600052602060002090601f0160209004810192826200032357600085556200036f565b82601f106200033e57805160ff19168380011785556200036f565b828001600101855582156200036f579182015b828111156200036e57825182559160200191906001019062000351565b5b5090506200037e919062000382565b5090565b5b808211156200039d57600081600090555060010162000383565b5090565b6000620003b8620003b28462000611565b620005e8565b905082815260208101848484011115620003d757620003d66200075b565b5b620003e484828562000651565b509392505050565b600082601f83011262000404576200040362000751565b5b815162000416848260208601620003a1565b91505092915050565b6000610100828403121562000439576200043862000756565b5b62000446610100620005e8565b905060006200045884828501620004fe565b60008301525060206200046e84828501620004fe565b60208301525060406200048484828501620004fe565b60408301525060606200049a84828501620004fe565b6060830152506080620004b084828501620004fe565b60808301525060a0620004c684828501620004fe565b60a08301525060c0620004dc84828501620004fe565b60c08301525060e0620004f284828501620004fe565b60e08301525092915050565b6000815190506200050f816200077b565b92915050565b600080600080610160858703121562000533576200053262000765565b5b600062000543878288016200041f565b94505061010085015167ffffffffffffffff81111562000568576200056762000760565b5b6200057687828801620003ec565b93505061012085015167ffffffffffffffff8111156200059b576200059a62000760565b5b620005a987828801620003ec565b92505061014085015167ffffffffffffffff811115620005ce57620005cd62000760565b5b620005dc87828801620003ec565b91505092959194509250565b6000620005f462000607565b9050620006028282620006bd565b919050565b6000604051905090565b600067ffffffffffffffff8211156200062f576200062e62000722565b5b6200063a826200076a565b9050602081019050919050565b6000819050919050565b60005b838110156200067157808201518184015260208101905062000654565b8381111562000681576000848401525b50505050565b60006002820490506001821680620006a057607f821691505b60208210811415620006b757620006b6620006f3565b5b50919050565b620006c8826200076a565b810181811067ffffffffffffffff82111715620006ea57620006e962000722565b5b80604052505050565b7f4e487b7100000000000000000000000000000000000000000000000000000000600052602260045260246000fd5b7f4e487b7100000000000000000000000000000000000000000000000000000000600052604160045260246000fd5b600080fd5b600080fd5b600080fd5b600080fd5b600080fd5b6000601f19601f8301169050919050565b620007868162000647565b81146200079257600080fd5b50565b614e7580620007a56000396000f3fe608060405234801561001057600080fd5b50600436106101ef5760003560e01c8063747b80501161010f578063be59ec26116100a2578063f242432a11610071578063f242432a14610570578063f2fde38b1461058c578063f4b0b166146105a8578063f9902bb1146105d8576101ef565b8063be59ec26146104fa578063d759000b14610518578063e985e9c514610536578063e986655014610566576101ef565b80639b19251a116100de5780639b19251a1461049a5780639ebf488b146104ca578063a22cb465146104d4578063bbb13e17146104f0576101ef565b8063747b8050146104005780638d21c770146104305780638da5cb5b146104605780639a25ab831461047e576101ef565b80632eb2c2d61161018757806357f7789e1161015657806357f7789e146103a05780635ae698ff146103bc5780635d2db2bf146103ec578063715018a6146103f6576101ef565b80632eb2c2d61461031857806344eaa84e146103345780634e1273f41461035257806354dacb9614610382576101ef565b8063143cc144116101c3578063143cc144146102a257806318e20a38146102c057806319b60439146102de5780631d170162146102e8576101ef565b8062fdd58e146101f457806301ffc9a71461022457806306fdde03146102545780630e89341c14610272575b600080fd5b61020e600480360381019061020991906133bb565b610608565b60405161021b919061408a565b60405180910390f35b61023e600480360381019061023991906134bc565b6106d1565b60405161024b9190613d6d565b60405180910390f35b61025c6107b3565b6040516102699190613d88565b60405180910390f35b61028c60048036038101906102879190613516565b610841565b6040516102999190613d88565b60405180910390f35b6102aa6108e6565b6040516102b7919061408a565b60405180910390f35b6102c86108f0565b6040516102d5919061408a565b60405180910390f35b6102e66108f6565b005b61030260048036038101906102fd91906131a8565b61099e565b60405161030f9190613d6d565b60405180910390f35b610332600480360381019061032d9190613215565b6109be565b005b61033c610a5f565b604051610349919061408a565b60405180910390f35b61036c60048036038101906103679190613444565b610a69565b6040516103799190613d14565b60405180910390f35b61038a610b82565b604051610397919061408a565b60405180910390f35b6103ba60048036038101906103b59190613543565b610b88565b005b6103d660048036038101906103d191906133fb565b610c92565b6040516103e39190613d6d565b60405180910390f35b6103f4610d62565b005b6103fe610e81565b005b61041a600480360381019061041591906131a8565b610f09565b6040516104279190613d6d565b60405180910390f35b61044a600480360381019061044591906133fb565b611054565b6040516104579190613d6d565b60405180910390f35b610468611124565b6040516104759190613be5565b60405180910390f35b61049860048036038101906104939190613516565b61114e565b005b6104b460048036038101906104af91906131a8565b611249565b6040516104c19190613d6d565b60405180910390f35b6104d2611269565b005b6104ee60048036038101906104e9919061337b565b6114f1565b005b6104f8611507565b005b610502611729565b60405161050f9190613d6d565b60405180910390f35b61052061173c565b60405161052d919061408a565b60405180910390f35b610550600480360381019061054b91906131d5565b611742565b60405161055d9190613d6d565b60405180910390f35b61056e6117d6565b005b61058a600480360381019061058591906132e4565b6118ad565b005b6105a660048036038101906105a191906131a8565b61194e565b005b6105c260048036038101906105bd91906131a8565b611a46565b6040516105cf9190613d6d565b60405180910390f35b6105f260048036038101906105ed91906131a8565b611a66565b6040516105ff9190613d6d565b60405180910390f35b60008073ffffffffffffffffffffffffffffffffffffffff168373ffffffffffffffffffffffffffffffffffffffff161415610679576040517f08c379a000000000000000000000000000000000000000000000000000000000815260040161067090613dea565b60405180910390fd5b60008083815260200190815260200160002060008473ffffffffffffffffffffffffffffffffffffffff1673ffffffffffffffffffffffffffffffffffffffff16815260200190815260200160002054905092915050565b60007fd9b67a26000000000000000000000000000000000000000000000000000000007bffffffffffffffffffffffffffffffffffffffffffffffffffffffff1916827bffffffffffffffffffffffffffffffffffffffffffffffffffffffff1916148061079c57507f0e89341c000000000000000000000000000000000000000000000000000000007bffffffffffffffffffffffffffffffffffffffffffffffffffffffff1916827bffffffffffffffffffffffffffffffffffffffffffffffffffffffff1916145b806107ac57506107ab82611bb2565b5b9050919050565b601080546107c090614443565b80601f01602080910402602001604051908101604052809291908181526020018280546107ec90614443565b80156108395780601f1061080e57610100808354040283529160200191610839565b820191906000526020600020905b81548152906001019060200180831161081c57829003601f168201915b505050505081565b606060246000838152602001908152602001600020805461086190614443565b80601f016020809104026020016040519081016040528092919081815260200182805461088d90614443565b80156108da5780601f106108af576101008083540402835291602001916108da565b820191906000526020600020905b8154815290600101906020018083116108bd57829003601f168201915b50505050509050919050565b6000600d54905090565b600f5481565b6108fe611c1c565b73ffffffffffffffffffffffffffffffffffffffff1661091c611124565b73ffffffffffffffffffffffffffffffffffffffff1614610972576040517f08c379a000000000000000000000000000000000000000000000000000000000815260040161096990613f6a565b60405180910390fd5b601160009054906101000a900460ff1615601160006101000a81548160ff021916908315150217905550565b60266020528060005260406000206000915054906101000a900460ff1681565b6109c6611c1c565b73ffffffffffffffffffffffffffffffffffffffff168573ffffffffffffffffffffffffffffffffffffffff161480610a0c5750610a0b85610a06611c1c565b611742565b5b610a4b576040517f08c379a0000000000000000000000000000000000000000000000000000000008152600401610a4290613eca565b60405180910390fd5b610a588585858585611c24565b5050505050565b6000602254905090565b60608151835114610aaf576040517f08c379a0000000000000000000000000000000000000000000000000000000008152600401610aa69061402a565b60405180910390fd5b6000835167ffffffffffffffff811115610acc57610acb614634565b5b604051908082528060200260200182016040528015610afa5781602001602082028036833780820191505090505b50905060005b8451811015610b7757610b47858281518110610b1f57610b1e614605565b5b6020026020010151858381518110610b3a57610b39614605565b5b6020026020010151610608565b828281518110610b5a57610b59614605565b5b60200260200101818152505080610b70906144a6565b9050610b00565b508091505092915050565b60225481565b610b90611c1c565b73ffffffffffffffffffffffffffffffffffffffff16610bae611124565b73ffffffffffffffffffffffffffffffffffffffff1614610c04576040517f08c379a0000000000000000000000000000000000000000000000000000000008152600401610bfb90613f6a565b60405180910390fd5b6000602460008481526020019081526020016000208054610c2490614443565b905014610c66576040517f08c379a0000000000000000000000000000000000000000000000000000000008152600401610c5d90613eea565b60405180910390fd5b80602460008481526020019081526020016000209080519060200190610c8d929190612e5e565b505050565b6000610c9c611c1c565b73ffffffffffffffffffffffffffffffffffffffff16610cba611124565b73ffffffffffffffffffffffffffffffffffffffff1614610d10576040517f08c379a0000000000000000000000000000000000000000000000000000000008152600401610d0790613f6a565b60405180910390fd5b60005b8251811015610d5c57610d3f838281518110610d3257610d31614605565b5b6020026020010151610f09565b15610d4957600191505b8080610d54906144a6565b915050610d13565b50919050565b610d6a611c1c565b73ffffffffffffffffffffffffffffffffffffffff16610d88611124565b73ffffffffffffffffffffffffffffffffffffffff1614610dde576040517f08c379a0000000000000000000000000000000000000000000000000000000008152600401610dd590613f6a565b60405180910390fd5b60005b600c54811015610e52576000600c5482601654610dfe919061426b565b610e089190614547565b9050610e3e816004610e1984611f38565b604051602001610e2a929190613b57565b604051602081830303815290604052610b88565b508080610e4a906144a6565b915050610de1565b50610e7f600c546005604051602001610e6b9190613b40565b604051602081830303815290604052610b88565b565b610e89611c1c565b73ffffffffffffffffffffffffffffffffffffffff16610ea7611124565b73ffffffffffffffffffffffffffffffffffffffff1614610efd576040517f08c379a0000000000000000000000000000000000000000000000000000000008152600401610ef490613f6a565b60405180910390fd5b610f076000612099565b565b6000610f13611c1c565b73ffffffffffffffffffffffffffffffffffffffff16610f31611124565b73ffffffffffffffffffffffffffffffffffffffff1614610f87576040517f08c379a0000000000000000000000000000000000000000000000000000000008152600401610f7e90613f6a565b60405180910390fd5b602160008373ffffffffffffffffffffffffffffffffffffffff1673ffffffffffffffffffffffffffffffffffffffff16815260200190815260200160002060009054906101000a900460ff1661104f576001602160008473ffffffffffffffffffffffffffffffffffffffff1673ffffffffffffffffffffffffffffffffffffffff16815260200190815260200160002060006101000a81548160ff021916908315150217905550600160226000828254611043919061426b565b92505081905550600190505b919050565b600061105e611c1c565b73ffffffffffffffffffffffffffffffffffffffff1661107c611124565b73ffffffffffffffffffffffffffffffffffffffff16146110d2576040517f08c379a00000000000000000000000000000000000000000000000000000000081526004016110c990613f6a565b60405180910390fd5b60005b825181101561111e576111018382815181106110f4576110f3614605565b5b6020026020010151611a66565b1561110b57600191505b8080611116906144a6565b9150506110d5565b50919050565b6000600360009054906101000a900473ffffffffffffffffffffffffffffffffffffffff16905090565b600d54600c5461115e91906142f2565b601454101561124657600d546025600083815260200190815260200160002054106111be576040517f08c379a00000000000000000000000000000000000000000000000000000000081526004016111b590613e8a565b60405180910390fd5b611200338260016040518060400160405280600481526020017f307830300000000000000000000000000000000000000000000000000000000081525061215f565b6001602560008381526020019081526020016000206000828254611224919061426b565b9250508190555060016014600082825461123e919061426b565b925050819055505b50565b60216020528060005260406000206000915054906101000a900460ff1681565b602360009054906101000a900460ff161561130b57602160003373ffffffffffffffffffffffffffffffffffffffff1673ffffffffffffffffffffffffffffffffffffffff16815260200190815260200160002060009054906101000a900460ff1661130a576040517f08c379a000000000000000000000000000000000000000000000000000000000815260040161130190613e6a565b60405180910390fd5b5b600b5460125410611351576040517f08c379a000000000000000000000000000000000000000000000000000000000815260040161134890613faa565b60405180910390fd5b602760003373ffffffffffffffffffffffffffffffffffffffff1673ffffffffffffffffffffffffffffffffffffffff16815260200190815260200160002060009054906101000a900460ff16156113de576040517f08c379a00000000000000000000000000000000000000000000000000000000081526004016113d590613fea565b60405180910390fd5b6001602760003373ffffffffffffffffffffffffffffffffffffffff1673ffffffffffffffffffffffffffffffffffffffff16815260200190815260200160002060006101000a81548160ff0219169083151502179055506000600c54905061147f338260016040518060400160405280600481526020017f307830300000000000000000000000000000000000000000000000000000000081525061215f565b600160126000828254611492919061426b565b925050819055506001602060008282546114ac919061434c565b925050819055507f2e0f4d63dcc00e6a11c8aef9f6e15c1f9cd6e9a090b2dd99c7b797f1a28d300d336012546040516114e6929190613cc2565b60405180910390a150565b6115036114fc611c1c565b83836122f5565b5050565b6000600c549050602660003373ffffffffffffffffffffffffffffffffffffffff1673ffffffffffffffffffffffffffffffffffffffff16815260200190815260200160002060009054906101000a900460ff161561159b576040517f08c379a000000000000000000000000000000000000000000000000000000000815260040161159290613f4a565b60405180910390fd5b601160009054906101000a900460ff166115ea576040517f08c379a00000000000000000000000000000000000000000000000000000000081526004016115e190613fca565b60405180910390fd5b60006115f63383610608565b11611636576040517f08c379a000000000000000000000000000000000000000000000000000000000815260040161162d90613f8a565b60405180910390fd5b6001602660003373ffffffffffffffffffffffffffffffffffffffff1673ffffffffffffffffffffffffffffffffffffffff16815260200190815260200160002060006101000a81548160ff0219169083151502179055506000611698612462565b905060005b60058160ff1610156116df576116cc828260ff16600581106116c2576116c1614605565b5b602002015161114e565b80806116d7906144ef565b91505061169d565b506116ec33836001612546565b7f15abe0b63b201b70614c230381f0fabc4a26a1957629948558095a11db1d6fb5813360405161171d929190613ceb565b60405180910390a15050565b601160009054906101000a900460ff1681565b60205481565b6000600160008473ffffffffffffffffffffffffffffffffffffffff1673ffffffffffffffffffffffffffffffffffffffff16815260200190815260200160002060008373ffffffffffffffffffffffffffffffffffffffff1673ffffffffffffffffffffffffffffffffffffffff16815260200190815260200160002060009054906101000a900460ff16905092915050565b6117de611c1c565b73ffffffffffffffffffffffffffffffffffffffff166117fc611124565b73ffffffffffffffffffffffffffffffffffffffff1614611852576040517f08c379a000000000000000000000000000000000000000000000000000000000815260040161184990613f6a565b60405180910390fd5b600d54600c5461186291906142f2565b60014361186f919061434c565b4060001c61187d9190614547565b601681905550600060165414156118ab576118a4600160165461276390919063ffffffff16565b6016819055505b565b6118b5611c1c565b73ffffffffffffffffffffffffffffffffffffffff168573ffffffffffffffffffffffffffffffffffffffff1614806118fb57506118fa856118f5611c1c565b611742565b5b61193a576040517f08c379a000000000000000000000000000000000000000000000000000000000815260040161193190613e4a565b60405180910390fd5b6119478585858585612779565b5050505050565b611956611c1c565b73ffffffffffffffffffffffffffffffffffffffff16611974611124565b73ffffffffffffffffffffffffffffffffffffffff16146119ca576040517f08c379a00000000000000000000000000000000000000000000000000000000081526004016119c190613f6a565b60405180910390fd5b600073ffffffffffffffffffffffffffffffffffffffff168173ffffffffffffffffffffffffffffffffffffffff161415611a3a576040517f08c379a0000000000000000000000000000000000000000000000000000000008152600401611a3190613e0a565b60405180910390fd5b611a4381612099565b50565b60276020528060005260406000206000915054906101000a900460ff1681565b6000611a70611c1c565b73ffffffffffffffffffffffffffffffffffffffff16611a8e611124565b73ffffffffffffffffffffffffffffffffffffffff1614611ae4576040517f08c379a0000000000000000000000000000000000000000000000000000000008152600401611adb90613f6a565b60405180910390fd5b602160008373ffffffffffffffffffffffffffffffffffffffff1673ffffffffffffffffffffffffffffffffffffffff16815260200190815260200160002060009054906101000a900460ff1615611bad576000602160008473ffffffffffffffffffffffffffffffffffffffff1673ffffffffffffffffffffffffffffffffffffffff16815260200190815260200160002060006101000a81548160ff021916908315150217905550600160226000828254611ba1919061434c565b92505081905550600190505b919050565b60007f01ffc9a7000000000000000000000000000000000000000000000000000000007bffffffffffffffffffffffffffffffffffffffffffffffffffffffff1916827bffffffffffffffffffffffffffffffffffffffffffffffffffffffff1916149050919050565b600033905090565b8151835114611c68576040517f08c379a0000000000000000000000000000000000000000000000000000000008152600401611c5f9061404a565b60405180910390fd5b600073ffffffffffffffffffffffffffffffffffffffff168473ffffffffffffffffffffffffffffffffffffffff161415611cd8576040517f08c379a0000000000000000000000000000000000000000000000000000000008152600401611ccf90613eaa565b60405180910390fd5b6000611ce2611c1c565b9050611cf28187878787876129fb565b60005b8451811015611ea3576000858281518110611d1357611d12614605565b5b602002602001015190506000858381518110611d3257611d31614605565b5b60200260200101519050600080600084815260200190815260200160002060008b73ffffffffffffffffffffffffffffffffffffffff1673ffffffffffffffffffffffffffffffffffffffff16815260200190815260200160002054905081811015611dd3576040517f08c379a0000000000000000000000000000000000000000000000000000000008152600401611dca90613f2a565b60405180910390fd5b81810360008085815260200190815260200160002060008c73ffffffffffffffffffffffffffffffffffffffff1673ffffffffffffffffffffffffffffffffffffffff168152602001908152602001600020819055508160008085815260200190815260200160002060008b73ffffffffffffffffffffffffffffffffffffffff1673ffffffffffffffffffffffffffffffffffffffff1681526020019081526020016000206000828254611e88919061426b565b9250508190555050505080611e9c906144a6565b9050611cf5565b508473ffffffffffffffffffffffffffffffffffffffff168673ffffffffffffffffffffffffffffffffffffffff168273ffffffffffffffffffffffffffffffffffffffff167f4a39dc06d4c0dbc64b70af90fd698a233a518aa5d07e595d983b8c0526c8f7fb8787604051611f1a929190613d36565b60405180910390a4611f30818787878787612a03565b505050505050565b60606000821415611f80576040518060400160405280600181526020017f30000000000000000000000000000000000000000000000000000000000000008152509050612094565b600082905060005b60008214611fb2578080611f9b906144a6565b915050600a82611fab91906142c1565b9150611f88565b60008167ffffffffffffffff811115611fce57611fcd614634565b5b6040519080825280601f01601f1916602001820160405280156120005781602001600182028036833780820191505090505b5090505b6000851461208d57600182612019919061434c565b9150600a856120289190614547565b6030612034919061426b565b60f81b81838151811061204a57612049614605565b5b60200101907effffffffffffffffffffffffffffffffffffffffffffffffffffffffffffff1916908160001a905350600a8561208691906142c1565b9450612004565b8093505050505b919050565b6000600360009054906101000a900473ffffffffffffffffffffffffffffffffffffffff16905081600360006101000a81548173ffffffffffffffffffffffffffffffffffffffff021916908373ffffffffffffffffffffffffffffffffffffffff1602179055508173ffffffffffffffffffffffffffffffffffffffff168173ffffffffffffffffffffffffffffffffffffffff167f8be0079c531659141344cd1fd0a4f28419497f9722a3daafe3b4186f6b6457e060405160405180910390a35050565b600073ffffffffffffffffffffffffffffffffffffffff168473ffffffffffffffffffffffffffffffffffffffff1614156121cf576040517f08c379a00000000000000000000000000000000000000000000000000000000081526004016121c69061406a565b60405180910390fd5b60006121d9611c1c565b90506121fa816000876121eb88612bea565b6121f488612bea565b876129fb565b8260008086815260200190815260200160002060008773ffffffffffffffffffffffffffffffffffffffff1673ffffffffffffffffffffffffffffffffffffffff1681526020019081526020016000206000828254612259919061426b565b925050819055508473ffffffffffffffffffffffffffffffffffffffff16600073ffffffffffffffffffffffffffffffffffffffff168273ffffffffffffffffffffffffffffffffffffffff167fc3d58168c5ae7397731d063d5bbf3d657854427343f4c083240f7aacaa2d0f6287876040516122d79291906140a5565b60405180910390a46122ee81600087878787612c64565b5050505050565b8173ffffffffffffffffffffffffffffffffffffffff168373ffffffffffffffffffffffffffffffffffffffff161415612364576040517f08c379a000000000000000000000000000000000000000000000000000000000815260040161235b9061400a565b60405180910390fd5b80600160008573ffffffffffffffffffffffffffffffffffffffff1673ffffffffffffffffffffffffffffffffffffffff16815260200190815260200160002060008473ffffffffffffffffffffffffffffffffffffffff1673ffffffffffffffffffffffffffffffffffffffff16815260200190815260200160002060006101000a81548160ff0219169083151502179055508173ffffffffffffffffffffffffffffffffffffffff168373ffffffffffffffffffffffffffffffffffffffff167f17307eab39ab6107e8899845ad3d59bd9653f200f220920489ca2b5937696c31836040516124559190613d6d565b60405180910390a3505050565b61246a612ee4565b612472612ee4565b60005b600581101561253e576000600a8261248d91906142f2565b905060006009600a846124a091906142f2565b6124aa919061426b565b905081600183836124bb919061434c565b6124c5919061426b565b423344876012546040516020016124e0959493929190613b86565b6040516020818303038152906040528051906020012060001c6125039190614547565b61250d919061426b565b8484600581106125205761251f614605565b5b60200201818152505050508080612536906144a6565b915050612475565b508091505090565b600073ffffffffffffffffffffffffffffffffffffffff168373ffffffffffffffffffffffffffffffffffffffff1614156125b6576040517f08c379a00000000000000000000000000000000000000000000000000000000081526004016125ad90613f0a565b60405180910390fd5b60006125c0611c1c565b90506125f0818560006125d287612bea565b6125db87612bea565b604051806020016040528060008152506129fb565b600080600085815260200190815260200160002060008673ffffffffffffffffffffffffffffffffffffffff1673ffffffffffffffffffffffffffffffffffffffff16815260200190815260200160002054905082811015612687576040517f08c379a000000000000000000000000000000000000000000000000000000000815260040161267e90613e2a565b60405180910390fd5b82810360008086815260200190815260200160002060008773ffffffffffffffffffffffffffffffffffffffff1673ffffffffffffffffffffffffffffffffffffffff16815260200190815260200160002081905550600073ffffffffffffffffffffffffffffffffffffffff168573ffffffffffffffffffffffffffffffffffffffff168373ffffffffffffffffffffffffffffffffffffffff167fc3d58168c5ae7397731d063d5bbf3d657854427343f4c083240f7aacaa2d0f6287876040516127549291906140a5565b60405180910390a45050505050565b60008183612771919061426b565b905092915050565b600073ffffffffffffffffffffffffffffffffffffffff168473ffffffffffffffffffffffffffffffffffffffff1614156127e9576040517f08c379a00000000000000000000000000000000000000000000000000000000081526004016127e090613eaa565b60405180910390fd5b60006127f3611c1c565b905061281381878761280488612bea565b61280d88612bea565b876129fb565b600080600086815260200190815260200160002060008873ffffffffffffffffffffffffffffffffffffffff1673ffffffffffffffffffffffffffffffffffffffff168152602001908152602001600020549050838110156128aa576040517f08c379a00000000000000000000000000000000000000000000000000000000081526004016128a190613f2a565b60405180910390fd5b83810360008087815260200190815260200160002060008973ffffffffffffffffffffffffffffffffffffffff1673ffffffffffffffffffffffffffffffffffffffff168152602001908152602001600020819055508360008087815260200190815260200160002060008873ffffffffffffffffffffffffffffffffffffffff1673ffffffffffffffffffffffffffffffffffffffff168152602001908152602001600020600082825461295f919061426b565b925050819055508573ffffffffffffffffffffffffffffffffffffffff168773ffffffffffffffffffffffffffffffffffffffff168373ffffffffffffffffffffffffffffffffffffffff167fc3d58168c5ae7397731d063d5bbf3d657854427343f4c083240f7aacaa2d0f6288886040516129dc9291906140a5565b60405180910390a46129f2828888888888612c64565b50505050505050565b505050505050565b612a228473ffffffffffffffffffffffffffffffffffffffff16612e4b565b15612be2578373ffffffffffffffffffffffffffffffffffffffff1663bc197c8187878686866040518663ffffffff1660e01b8152600401612a68959493929190613c00565b602060405180830381600087803b158015612a8257600080fd5b505af1925050508015612ab357506040513d601f19601f82011682018060405250810190612ab091906134e9565b60015b612b5957612abf614663565b806308c379a01415612b1c5750612ad4614d4d565b80612adf5750612b1e565b806040517f08c379a0000000000000000000000000000000000000000000000000000000008152600401612b139190613d88565b60405180910390fd5b505b6040517f08c379a0000000000000000000000000000000000000000000000000000000008152600401612b5090613daa565b60405180910390fd5b63bc197c8160e01b7bffffffffffffffffffffffffffffffffffffffffffffffffffffffff1916817bffffffffffffffffffffffffffffffffffffffffffffffffffffffff191614612be0576040517f08c379a0000000000000000000000000000000000000000000000000000000008152600401612bd790613dca565b60405180910390fd5b505b505050505050565b60606000600167ffffffffffffffff811115612c0957612c08614634565b5b604051908082528060200260200182016040528015612c375781602001602082028036833780820191505090505b5090508281600081518110612c4f57612c4e614605565b5b60200260200101818152505080915050919050565b612c838473ffffffffffffffffffffffffffffffffffffffff16612e4b565b15612e43578373ffffffffffffffffffffffffffffffffffffffff1663f23a6e6187878686866040518663ffffffff1660e01b8152600401612cc9959493929190613c68565b602060405180830381600087803b158015612ce357600080fd5b505af1925050508015612d1457506040513d601f19601f82011682018060405250810190612d1191906134e9565b60015b612dba57612d20614663565b806308c379a01415612d7d5750612d35614d4d565b80612d405750612d7f565b806040517f08c379a0000000000000000000000000000000000000000000000000000000008152600401612d749190613d88565b60405180910390fd5b505b6040517f08c379a0000000000000000000000000000000000000000000000000000000008152600401612db190613daa565b60405180910390fd5b63f23a6e6160e01b7bffffffffffffffffffffffffffffffffffffffffffffffffffffffff1916817bffffffffffffffffffffffffffffffffffffffffffffffffffffffff191614612e41576040517f08c379a0000000000000000000000000000000000000000000000000000000008152600401612e3890613dca565b60405180910390fd5b505b505050505050565b600080823b905060008111915050919050565b828054612e6a90614443565b90600052602060002090601f016020900481019282612e8c5760008555612ed3565b82601f10612ea557805160ff1916838001178555612ed3565b82800160010185558215612ed3579182015b82811115612ed2578251825591602001919060010190612eb7565b5b509050612ee09190612f06565b5090565b6040518060a00160405280600590602082028036833780820191505090505090565b5b80821115612f1f576000816000905550600101612f07565b5090565b6000612f36612f31846140f3565b6140ce565b90508083825260208201905082856020860282011115612f5957612f5861468a565b5b60005b85811015612f895781612f6f8882613087565b845260208401935060208301925050600181019050612f5c565b5050509392505050565b6000612fa6612fa18461411f565b6140ce565b90508083825260208201905082856020860282011115612fc957612fc861468a565b5b60005b85811015612ff95781612fdf8882613193565b845260208401935060208301925050600181019050612fcc565b5050509392505050565b60006130166130118461414b565b6140ce565b9050828152602081018484840111156130325761303161468f565b5b61303d848285614401565b509392505050565b60006130586130538461417c565b6140ce565b9050828152602081018484840111156130745761307361468f565b5b61307f848285614401565b509392505050565b60008135905061309681614de3565b92915050565b600082601f8301126130b1576130b0614685565b5b81356130c1848260208601612f23565b91505092915050565b600082601f8301126130df576130de614685565b5b81356130ef848260208601612f93565b91505092915050565b60008135905061310781614dfa565b92915050565b60008135905061311c81614e11565b92915050565b60008151905061313181614e11565b92915050565b600082601f83011261314c5761314b614685565b5b813561315c848260208601613003565b91505092915050565b600082601f83011261317a57613179614685565b5b813561318a848260208601613045565b91505092915050565b6000813590506131a281614e28565b92915050565b6000602082840312156131be576131bd614699565b5b60006131cc84828501613087565b91505092915050565b600080604083850312156131ec576131eb614699565b5b60006131fa85828601613087565b925050602061320b85828601613087565b9150509250929050565b600080600080600060a0868803121561323157613230614699565b5b600061323f88828901613087565b955050602061325088828901613087565b945050604086013567ffffffffffffffff81111561327157613270614694565b5b61327d888289016130ca565b935050606086013567ffffffffffffffff81111561329e5761329d614694565b5b6132aa888289016130ca565b925050608086013567ffffffffffffffff8111156132cb576132ca614694565b5b6132d788828901613137565b9150509295509295909350565b600080600080600060a08688031215613300576132ff614699565b5b600061330e88828901613087565b955050602061331f88828901613087565b945050604061333088828901613193565b935050606061334188828901613193565b925050608086013567ffffffffffffffff81111561336257613361614694565b5b61336e88828901613137565b9150509295509295909350565b6000806040838503121561339257613391614699565b5b60006133a085828601613087565b92505060206133b1858286016130f8565b9150509250929050565b600080604083850312156133d2576133d1614699565b5b60006133e085828601613087565b92505060206133f185828601613193565b9150509250929050565b60006020828403121561341157613410614699565b5b600082013567ffffffffffffffff81111561342f5761342e614694565b5b61343b8482850161309c565b91505092915050565b6000806040838503121561345b5761345a614699565b5b600083013567ffffffffffffffff81111561347957613478614694565b5b6134858582860161309c565b925050602083013567ffffffffffffffff8111156134a6576134a5614694565b5b6134b2858286016130ca565b9150509250929050565b6000602082840312156134d2576134d1614699565b5b60006134e08482850161310d565b91505092915050565b6000602082840312156134ff576134fe614699565b5b600061350d84828501613122565b91505092915050565b60006020828403121561352c5761352b614699565b5b600061353a84828501613193565b91505092915050565b6000806040838503121561355a57613559614699565b5b600061356885828601613193565b925050602083013567ffffffffffffffff81111561358957613588614694565b5b61359585828601613165565b9150509250929050565b60006135ab8383613b0b565b60208301905092915050565b6135c081614380565b82525050565b6135d76135d282614380565b614519565b82525050565b6135e6816141dc565b6135f08184614222565b92506135fb826141ad565b8060005b8381101561362c578151613613878261359f565b965061361e83614208565b9250506001810190506135ff565b505050505050565b600061363f826141e7565b613649818561422d565b9350613654836141b7565b8060005b8381101561368557815161366c888261359f565b975061367783614215565b925050600181019050613658565b5085935050505092915050565b61369b81614392565b82525050565b60006136ac826141f2565b6136b6818561423e565b93506136c6818560208601614410565b6136cf8161469e565b840191505092915050565b60006136e5826141fd565b6136ef818561424f565b93506136ff818560208601614410565b6137088161469e565b840191505092915050565b600061371e826141fd565b6137288185614260565b9350613738818560208601614410565b80840191505092915050565b6000815461375181614443565b61375b8186614260565b945060018216600081146137765760018114613787576137ba565b60ff198316865281860193506137ba565b613790856141c7565b60005b838110156137b257815481890152600182019150602081019050613793565b838801955050505b50505092915050565b60006137d060348361424f565b91506137db826146c9565b604082019050919050565b60006137f360288361424f565b91506137fe82614718565b604082019050919050565b6000613816602b8361424f565b915061382182614767565b604082019050919050565b600061383960268361424f565b9150613844826147b6565b604082019050919050565b600061385c60248361424f565b915061386782614805565b604082019050919050565b600061387f60298361424f565b915061388a82614854565b604082019050919050565b60006138a260188361424f565b91506138ad826148a3565b602082019050919050565b60006138c5602d8361424f565b91506138d0826148cc565b604082019050919050565b60006138e860258361424f565b91506138f38261491b565b604082019050919050565b600061390b60328361424f565b91506139168261496a565b604082019050919050565b600061392e60148361424f565b9150613939826149b9565b602082019050919050565b600061395160238361424f565b915061395c826149e2565b604082019050919050565b6000613974602a8361424f565b915061397f82614a31565b604082019050919050565b600061399760208361424f565b91506139a282614a80565b602082019050919050565b60006139ba600583614260565b91506139c582614aa9565b600582019050919050565b60006139dd60208361424f565b91506139e882614ad2565b602082019050919050565b6000613a00602b8361424f565b9150613a0b82614afb565b604082019050919050565b6000613a2360238361424f565b9150613a2e82614b4a565b604082019050919050565b6000613a46601f8361424f565b9150613a5182614b99565b602082019050919050565b6000613a69602a8361424f565b9150613a7482614bc2565b604082019050919050565b6000613a8c60298361424f565b9150613a9782614c11565b604082019050919050565b6000613aaf60298361424f565b9150613aba82614c60565b604082019050919050565b6000613ad260288361424f565b9150613add82614caf565b604082019050919050565b6000613af560218361424f565b9150613b0082614cfe565b604082019050919050565b613b14816143ea565b82525050565b613b23816143ea565b82525050565b613b3a613b35826143ea565b61453d565b82525050565b6000613b4c8284613744565b915081905092915050565b6000613b638285613744565b9150613b6f8284613713565b9150613b7a826139ad565b91508190509392505050565b6000613b928288613b29565b602082019150613ba282876135c6565b601482019150613bb28286613b29565b602082019150613bc28285613b29565b602082019150613bd28284613b29565b6020820191508190509695505050505050565b6000602082019050613bfa60008301846135b7565b92915050565b600060a082019050613c1560008301886135b7565b613c2260208301876135b7565b8181036040830152613c348186613634565b90508181036060830152613c488185613634565b90508181036080830152613c5c81846136a1565b90509695505050505050565b600060a082019050613c7d60008301886135b7565b613c8a60208301876135b7565b613c976040830186613b1a565b613ca46060830185613b1a565b8181036080830152613cb681846136a1565b90509695505050505050565b6000604082019050613cd760008301856135b7565b613ce46020830184613b1a565b9392505050565b600060c082019050613d0060008301856135dd565b613d0d60a08301846135b7565b9392505050565b60006020820190508181036000830152613d2e8184613634565b905092915050565b60006040820190508181036000830152613d508185613634565b90508181036020830152613d648184613634565b90509392505050565b6000602082019050613d826000830184613692565b92915050565b60006020820190508181036000830152613da281846136da565b905092915050565b60006020820190508181036000830152613dc3816137c3565b9050919050565b60006020820190508181036000830152613de3816137e6565b9050919050565b60006020820190508181036000830152613e0381613809565b9050919050565b60006020820190508181036000830152613e238161382c565b9050919050565b60006020820190508181036000830152613e438161384f565b9050919050565b60006020820190508181036000830152613e6381613872565b9050919050565b60006020820190508181036000830152613e8381613895565b9050919050565b60006020820190508181036000830152613ea3816138b8565b9050919050565b60006020820190508181036000830152613ec3816138db565b9050919050565b60006020820190508181036000830152613ee3816138fe565b9050919050565b60006020820190508181036000830152613f0381613921565b9050919050565b60006020820190508181036000830152613f2381613944565b9050919050565b60006020820190508181036000830152613f4381613967565b9050919050565b60006020820190508181036000830152613f638161398a565b9050919050565b60006020820190508181036000830152613f83816139d0565b9050919050565b60006020820190508181036000830152613fa3816139f3565b9050919050565b60006020820190508181036000830152613fc381613a16565b9050919050565b60006020820190508181036000830152613fe381613a39565b9050919050565b6000602082019050818103600083015261400381613a5c565b9050919050565b6000602082019050818103600083015261402381613a7f565b9050919050565b6000602082019050818103600083015261404381613aa2565b9050919050565b6000602082019050818103600083015261406381613ac5565b9050919050565b6000602082019050818103600083015261408381613ae8565b9050919050565b600060208201905061409f6000830184613b1a565b92915050565b60006040820190506140ba6000830185613b1a565b6140c76020830184613b1a565b9392505050565b60006140d86140e9565b90506140e48282614475565b919050565b6000604051905090565b600067ffffffffffffffff82111561410e5761410d614634565b5b602082029050602081019050919050565b600067ffffffffffffffff82111561413a57614139614634565b5b602082029050602081019050919050565b600067ffffffffffffffff82111561416657614165614634565b5b61416f8261469e565b9050602081019050919050565b600067ffffffffffffffff82111561419757614196614634565b5b6141a08261469e565b9050602081019050919050565b6000819050919050565b6000819050602082019050919050565b60008190508160005260206000209050919050565b600060059050919050565b600081519050919050565b600081519050919050565b600081519050919050565b6000602082019050919050565b6000602082019050919050565b600081905092915050565b600082825260208201905092915050565b600082825260208201905092915050565b600082825260208201905092915050565b600081905092915050565b6000614276826143ea565b9150614281836143ea565b9250827fffffffffffffffffffffffffffffffffffffffffffffffffffffffffffffffff038211156142b6576142b5614578565b5b828201905092915050565b60006142cc826143ea565b91506142d7836143ea565b9250826142e7576142e66145a7565b5b828204905092915050565b60006142fd826143ea565b9150614308836143ea565b9250817fffffffffffffffffffffffffffffffffffffffffffffffffffffffffffffffff048311821515161561434157614340614578565b5b828202905092915050565b6000614357826143ea565b9150614362836143ea565b92508282101561437557614374614578565b5b828203905092915050565b600061438b826143ca565b9050919050565b60008115159050919050565b60007fffffffff0000000000000000000000000000000000000000000000000000000082169050919050565b600073ffffffffffffffffffffffffffffffffffffffff82169050919050565b6000819050919050565b600060ff82169050919050565b82818337600083830152505050565b60005b8381101561442e578082015181840152602081019050614413565b8381111561443d576000848401525b50505050565b6000600282049050600182168061445b57607f821691505b6020821081141561446f5761446e6145d6565b5b50919050565b61447e8261469e565b810181811067ffffffffffffffff8211171561449d5761449c614634565b5b80604052505050565b60006144b1826143ea565b91507fffffffffffffffffffffffffffffffffffffffffffffffffffffffffffffffff8214156144e4576144e3614578565b5b600182019050919050565b60006144fa826143f4565b915060ff82141561450e5761450d614578565b5b600182019050919050565b60006145248261452b565b9050919050565b6000614536826146af565b9050919050565b6000819050919050565b6000614552826143ea565b915061455d836143ea565b92508261456d5761456c6145a7565b5b828206905092915050565b7f4e487b7100000000000000000000000000000000000000000000000000000000600052601160045260246000fd5b7f4e487b7100000000000000000000000000000000000000000000000000000000600052601260045260246000fd5b7f4e487b7100000000000000000000000000000000000000000000000000000000600052602260045260246000fd5b7f4e487b7100000000000000000000000000000000000000000000000000000000600052603260045260246000fd5b7f4e487b7100000000000000000000000000000000000000000000000000000000600052604160045260246000fd5b600060033d11156146825760046000803e61467f6000516146bc565b90505b90565b600080fd5b600080fd5b600080fd5b600080fd5b600080fd5b6000601f19601f8301169050919050565b60008160601b9050919050565b60008160e01c9050919050565b7f455243313135353a207472616e7366657220746f206e6f6e204552433131353560008201527f526563656976657220696d706c656d656e746572000000000000000000000000602082015250565b7f455243313135353a204552433131353552656365697665722072656a6563746560008201527f6420746f6b656e73000000000000000000000000000000000000000000000000602082015250565b7f455243313135353a2062616c616e636520717565727920666f7220746865207a60008201527f65726f2061646472657373000000000000000000000000000000000000000000602082015250565b7f4f776e61626c653a206e6577206f776e657220697320746865207a65726f206160008201527f6464726573730000000000000000000000000000000000000000000000000000602082015250565b7f455243313135353a206275726e20616d6f756e7420657863656564732062616c60008201527f616e636500000000000000000000000000000000000000000000000000000000602082015250565b7f455243313135353a2063616c6c6572206973206e6f74206f776e6572206e6f7260008201527f20617070726f7665640000000000000000000000000000000000000000000000602082015250565b7f55736572206973206e6f742077686974656c69737465642e0000000000000000600082015250565b7f416c6c206f662074686973206174686c657465206861766520616c726561647960008201527f206265656e206d696e7465642100000000000000000000000000000000000000602082015250565b7f455243313135353a207472616e7366657220746f20746865207a65726f20616460008201527f6472657373000000000000000000000000000000000000000000000000000000602082015250565b7f455243313135353a207472616e736665722063616c6c6572206973206e6f742060008201527f6f776e6572206e6f7220617070726f7665640000000000000000000000000000602082015250565b7f43616e6e6f742073657420757269207477696365000000000000000000000000600082015250565b7f455243313135353a206275726e2066726f6d20746865207a65726f206164647260008201527f6573730000000000000000000000000000000000000000000000000000000000602082015250565b7f455243313135353a20696e73756666696369656e742062616c616e636520666f60008201527f72207472616e7366657200000000000000000000000000000000000000000000602082015250565b7f596f752063616e6e6f74206275726e206d6f7265207468616e2031207061636b600082015250565b7f2e6a736f6e000000000000000000000000000000000000000000000000000000600082015250565b7f4f776e61626c653a2063616c6c6572206973206e6f7420746865206f776e6572600082015250565b7f53746172746572207061636b20646f6573206e6f7420657869737420696e207560008201527f736572732077616c6c6574000000000000000000000000000000000000000000602082015250565b7f416c6c207061636b73206861766520616c7265616479206265656e206d696e7460008201527f6564210000000000000000000000000000000000000000000000000000000000602082015250565b7f5061636b73206172656e277420726561647920746f206f70656e207965742100600082015250565b7f43616e206f6e6c79206d696e74206f6e652073746172746572207061636b207060008201527f6572206163636f756e7400000000000000000000000000000000000000000000602082015250565b7f455243313135353a2073657474696e6720617070726f76616c2073746174757360008201527f20666f722073656c660000000000000000000000000000000000000000000000602082015250565b7f455243313135353a206163636f756e747320616e6420696473206c656e67746860008201527f206d69736d617463680000000000000000000000000000000000000000000000602082015250565b7f455243313135353a2069647320616e6420616d6f756e7473206c656e6774682060008201527f6d69736d61746368000000000000000000000000000000000000000000000000602082015250565b7f455243313135353a206d696e7420746f20746865207a65726f2061646472657360008201527f7300000000000000000000000000000000000000000000000000000000000000602082015250565b600060443d1015614d5d57614de0565b614d656140e9565b60043d036004823e80513d602482011167ffffffffffffffff82111715614d8d575050614de0565b808201805167ffffffffffffffff811115614dab5750505050614de0565b80602083010160043d038501811115614dc8575050505050614de0565b614dd782602001850186614475565b82955050505050505b90565b614dec81614380565b8114614df757600080fd5b50565b614e0381614392565b8114614e0e57600080fd5b50565b614e1a8161439e565b8114614e2557600080fd5b50565b614e31816143ea565b8114614e3c57600080fd5b5056fea2646970667358221220a3e709a231ceb07bb65a14707896e46d5961471cd83e6c3f7a3f9802f97f7e7b64736f6c63430008070033",
  "linkReferences": {},
  "deployedLinkReferences": {}
}