{
  "_format": "hh-sol-artifact-1",
  "contractName": "GameItems",
  "sourceName": "contracts/GameItems.sol",
  "abi": [
    {
      "inputs": [],
      "stateMutability": "nonpayable",
      "type": "constructor"
    },
    {
      "anonymous": false,
      "inputs": [
        {
          "indexed": true,
          "internalType": "address",
          "name": "account",
          "type": "address"
        },
        {
          "indexed": true,
          "internalType": "address",
          "name": "operator",
          "type": "address"
        },
        {
          "indexed": false,
          "internalType": "bool",
          "name": "approved",
          "type": "bool"
        }
      ],
      "name": "ApprovalForAll",
      "type": "event"
    },
    {
      "anonymous": false,
      "inputs": [
        {
          "indexed": true,
          "internalType": "address",
          "name": "previousOwner",
          "type": "address"
        },
        {
          "indexed": true,
          "internalType": "address",
          "name": "newOwner",
          "type": "address"
        }
      ],
      "name": "OwnershipTransferred",
      "type": "event"
    },
    {
      "anonymous": false,
      "inputs": [
        {
          "indexed": true,
          "internalType": "address",
          "name": "operator",
          "type": "address"
        },
        {
          "indexed": true,
          "internalType": "address",
          "name": "from",
          "type": "address"
        },
        {
          "indexed": true,
          "internalType": "address",
          "name": "to",
          "type": "address"
        },
        {
          "indexed": false,
          "internalType": "uint256[]",
          "name": "ids",
          "type": "uint256[]"
        },
        {
          "indexed": false,
          "internalType": "uint256[]",
          "name": "values",
          "type": "uint256[]"
        }
      ],
      "name": "TransferBatch",
      "type": "event"
    },
    {
      "anonymous": false,
      "inputs": [
        {
          "indexed": true,
          "internalType": "address",
          "name": "operator",
          "type": "address"
        },
        {
          "indexed": true,
          "internalType": "address",
          "name": "from",
          "type": "address"
        },
        {
          "indexed": true,
          "internalType": "address",
          "name": "to",
          "type": "address"
        },
        {
          "indexed": false,
          "internalType": "uint256",
          "name": "id",
          "type": "uint256"
        },
        {
          "indexed": false,
          "internalType": "uint256",
          "name": "value",
          "type": "uint256"
        }
      ],
      "name": "TransferSingle",
      "type": "event"
    },
    {
      "anonymous": false,
      "inputs": [
        {
          "indexed": false,
          "internalType": "string",
          "name": "value",
          "type": "string"
        },
        {
          "indexed": true,
          "internalType": "uint256",
          "name": "id",
          "type": "uint256"
        }
      ],
      "name": "URI",
      "type": "event"
    },
    {
      "anonymous": false,
      "inputs": [
        {
          "indexed": false,
          "internalType": "address",
          "name": "user",
          "type": "address"
        },
        {
          "indexed": false,
          "internalType": "uint256",
          "name": "id",
          "type": "uint256"
        }
      ],
      "name": "packMinted",
      "type": "event"
    },
    {
      "inputs": [],
      "name": "REVEAL_TIMESTAMP",
      "outputs": [
        {
          "internalType": "uint256",
          "name": "",
          "type": "uint256"
        }
      ],
      "stateMutability": "view",
      "type": "function"
    },
    {
      "inputs": [
        {
          "internalType": "address",
          "name": "account",
          "type": "address"
        },
        {
          "internalType": "uint256",
          "name": "id",
          "type": "uint256"
        }
      ],
      "name": "balanceOf",
      "outputs": [
        {
          "internalType": "uint256",
          "name": "",
          "type": "uint256"
        }
      ],
      "stateMutability": "view",
      "type": "function"
    },
    {
      "inputs": [
        {
          "internalType": "address[]",
          "name": "accounts",
          "type": "address[]"
        },
        {
          "internalType": "uint256[]",
          "name": "ids",
          "type": "uint256[]"
        }
      ],
      "name": "balanceOfBatch",
      "outputs": [
        {
          "internalType": "uint256[]",
          "name": "",
          "type": "uint256[]"
        }
      ],
      "stateMutability": "view",
      "type": "function"
    },
    {
      "inputs": [
        {
          "internalType": "uint256",
          "name": "packId",
          "type": "uint256"
        }
      ],
      "name": "burnPack",
      "outputs": [],
      "stateMutability": "nonpayable",
      "type": "function"
    },
    {
      "inputs": [],
      "name": "emergencySetStartingIndexBlock",
      "outputs": [],
      "stateMutability": "nonpayable",
      "type": "function"
    },
    {
      "inputs": [],
      "name": "getNFTPerAthlete",
      "outputs": [
        {
          "internalType": "uint256",
          "name": "",
          "type": "uint256"
        }
      ],
      "stateMutability": "view",
      "type": "function"
    },
    {
      "inputs": [
        {
          "internalType": "address",
          "name": "account",
          "type": "address"
        },
        {
          "internalType": "address",
          "name": "operator",
          "type": "address"
        }
      ],
      "name": "isApprovedForAll",
      "outputs": [
        {
          "internalType": "bool",
          "name": "",
          "type": "bool"
        }
      ],
      "stateMutability": "view",
      "type": "function"
    },
    {
      "inputs": [],
      "name": "mintAthlete",
      "outputs": [],
      "stateMutability": "payable",
      "type": "function"
    },
    {
      "inputs": [
        {
          "internalType": "uint256",
          "name": "initialSupply",
          "type": "uint256"
        }
      ],
      "name": "mintCurrency",
      "outputs": [],
      "stateMutability": "nonpayable",
      "type": "function"
    },
    {
      "inputs": [],
      "name": "mintPack",
      "outputs": [],
      "stateMutability": "nonpayable",
      "type": "function"
    },
    {
      "inputs": [],
      "name": "owner",
      "outputs": [
        {
          "internalType": "address",
          "name": "",
          "type": "address"
        }
      ],
      "stateMutability": "view",
      "type": "function"
    },
    {
      "inputs": [],
      "name": "packsReadyToOpen",
      "outputs": [
        {
          "internalType": "bool",
          "name": "",
          "type": "bool"
        }
      ],
      "stateMutability": "view",
      "type": "function"
    },
    {
      "inputs": [],
      "name": "renounceOwnership",
      "outputs": [],
      "stateMutability": "nonpayable",
      "type": "function"
    },
    {
      "inputs": [
        {
          "internalType": "address",
          "name": "from",
          "type": "address"
        },
        {
          "internalType": "address",
          "name": "to",
          "type": "address"
        },
        {
          "internalType": "uint256[]",
          "name": "ids",
          "type": "uint256[]"
        },
        {
          "internalType": "uint256[]",
          "name": "amounts",
          "type": "uint256[]"
        },
        {
          "internalType": "bytes",
          "name": "data",
          "type": "bytes"
        }
      ],
      "name": "safeBatchTransferFrom",
      "outputs": [],
      "stateMutability": "nonpayable",
      "type": "function"
    },
    {
      "inputs": [
        {
          "internalType": "address",
          "name": "from",
          "type": "address"
        },
        {
          "internalType": "address",
          "name": "to",
          "type": "address"
        },
        {
          "internalType": "uint256",
          "name": "id",
          "type": "uint256"
        },
        {
          "internalType": "uint256",
          "name": "amount",
          "type": "uint256"
        },
        {
          "internalType": "bytes",
          "name": "data",
          "type": "bytes"
        }
      ],
      "name": "safeTransferFrom",
      "outputs": [],
      "stateMutability": "nonpayable",
      "type": "function"
    },
    {
      "inputs": [
        {
          "internalType": "address",
          "name": "operator",
          "type": "address"
        },
        {
          "internalType": "bool",
          "name": "approved",
          "type": "bool"
        }
      ],
      "name": "setApprovalForAll",
      "outputs": [],
      "stateMutability": "nonpayable",
      "type": "function"
    },
    {
      "inputs": [],
      "name": "setPacksReady",
      "outputs": [],
      "stateMutability": "nonpayable",
      "type": "function"
    },
    {
      "inputs": [
        {
          "internalType": "string",
          "name": "provenanceHash",
          "type": "string"
        }
      ],
      "name": "setProvenanceHash",
      "outputs": [],
      "stateMutability": "nonpayable",
      "type": "function"
    },
    {
      "inputs": [],
      "name": "setStartingIndex",
      "outputs": [],
      "stateMutability": "nonpayable",
      "type": "function"
    },
    {
      "inputs": [
        {
          "internalType": "uint256",
          "name": "tokenId",
          "type": "uint256"
        },
        {
          "internalType": "string",
          "name": "uri",
          "type": "string"
        }
      ],
      "name": "setTokenUri",
      "outputs": [],
      "stateMutability": "nonpayable",
      "type": "function"
    },
    {
      "inputs": [],
      "name": "startingIndex",
      "outputs": [
        {
          "internalType": "uint256",
          "name": "",
          "type": "uint256"
        }
      ],
      "stateMutability": "view",
      "type": "function"
    },
    {
      "inputs": [],
      "name": "startingIndexBlock",
      "outputs": [
        {
          "internalType": "uint256",
          "name": "",
          "type": "uint256"
        }
      ],
      "stateMutability": "view",
      "type": "function"
    },
    {
      "inputs": [
        {
          "internalType": "bytes4",
          "name": "interfaceId",
          "type": "bytes4"
        }
      ],
      "name": "supportsInterface",
      "outputs": [
        {
          "internalType": "bool",
          "name": "",
          "type": "bool"
        }
      ],
      "stateMutability": "view",
      "type": "function"
    },
    {
      "inputs": [
        {
          "internalType": "address",
          "name": "from",
          "type": "address"
        },
        {
          "internalType": "address",
          "name": "to",
          "type": "address"
        },
        {
          "internalType": "uint256",
          "name": "amount",
          "type": "uint256"
        },
        {
          "internalType": "bytes",
          "name": "data",
          "type": "bytes"
        }
      ],
      "name": "transferCurrency",
      "outputs": [],
      "stateMutability": "nonpayable",
      "type": "function"
    },
    {
      "inputs": [
        {
          "internalType": "address",
          "name": "newOwner",
          "type": "address"
        }
      ],
      "name": "transferOwnership",
      "outputs": [],
      "stateMutability": "nonpayable",
      "type": "function"
    },
    {
      "inputs": [
        {
          "internalType": "uint256",
          "name": "tokenId",
          "type": "uint256"
        }
      ],
      "name": "uri",
      "outputs": [
        {
          "internalType": "string",
          "name": "",
          "type": "string"
        }
      ],
      "stateMutability": "view",
      "type": "function"
    }
  ],
  "bytecode": "0x60806040526040518060800160405280604481526020016200495e60449139600590805190602001906200003592919062000324565b506003600655600a6007556040518060800160405280605681526020016200490860569139600890805190602001906200007192919062000324565b5060006009556000600a60006101000a81548160ff021916908315150217905550612710600b556000600c5560405180602001604052806000815250600f9080519060200190620000c492919062000324565b50348015620000d257600080fd5b5060405180602001604052806000815250620000f4816200016e60201b60201c565b5062000115620001096200018a60201b60201c565b6200019260201b60201c565b620001606040518060400160405280601281526020017f4d616b696e6720636f6e74726163742e2e2e00000000000000000000000000008152506200025860201b6200153b1760201c565b6000600b8190555062000501565b80600290805190602001906200018692919062000324565b5050565b600033905090565b6000600360009054906101000a900473ffffffffffffffffffffffffffffffffffffffff16905081600360006101000a81548173ffffffffffffffffffffffffffffffffffffffff021916908373ffffffffffffffffffffffffffffffffffffffff1602179055508173ffffffffffffffffffffffffffffffffffffffff168173ffffffffffffffffffffffffffffffffffffffff167f8be0079c531659141344cd1fd0a4f28419497f9722a3daafe3b4186f6b6457e060405160405180910390a35050565b620002f8816040516024016200026f919062000415565b6040516020818303038152906040527f41304fac000000000000000000000000000000000000000000000000000000007bffffffffffffffffffffffffffffffffffffffffffffffffffffffff19166020820180517bffffffffffffffffffffffffffffffffffffffffffffffffffffffff8381831617835250505050620002fb60201b60201c565b50565b60008151905060006a636f6e736f6c652e6c6f679050602083016000808483855afa5050505050565b82805462000332906200048b565b90600052602060002090601f016020900481019282620003565760008555620003a2565b82601f106200037157805160ff1916838001178555620003a2565b82800160010185558215620003a2579182015b82811115620003a157825182559160200191906001019062000384565b5b509050620003b19190620003b5565b5090565b5b80821115620003d0576000816000905550600101620003b6565b5090565b6000620003e18262000439565b620003ed818562000444565b9350620003ff81856020860162000455565b6200040a81620004f0565b840191505092915050565b60006020820190508181036000830152620004318184620003d4565b905092915050565b600081519050919050565b600082825260208201905092915050565b60005b838110156200047557808201518184015260208101905062000458565b8381111562000485576000848401525b50505050565b60006002820490506001821680620004a457607f821691505b60208210811415620004bb57620004ba620004c1565b5b50919050565b7f4e487b7100000000000000000000000000000000000000000000000000000000600052602260045260246000fd5b6000601f19601f8301169050919050565b6143f780620005116000396000f3fe6080604052600436106101805760003560e01c8063715018a6116100d1578063cb774d471161008a578063e986655011610064578063e986655014610514578063f242432a1461052b578063f2fde38b14610554578063faa8d4381461057d57610180565b8063cb774d4714610481578063e36d6498146104ac578063e985e9c5146104d757610180565b8063715018a6146103bd578063722676e2146103d45780637d17fcbe146103eb5780638da5cb5b14610402578063a22cb4651461042d578063be59ec261461045657610180565b806318e20a381161013e5780631c0d84fc116101185780631c0d84fc146103245780632eb2c2d61461032e5780634e1273f41461035757806357f7789e1461039457610180565b806318e20a38146102b957806319b60439146102e457806319bfbb9e146102fb57610180565b8062fdd58e1461018557806301ffc9a7146101c25780630e89341c146101ff5780631072b91f1461023c5780631096952314610265578063143cc1441461028e575b600080fd5b34801561019157600080fd5b506101ac60048036038101906101a79190612e27565b6105a6565b6040516101b99190613da0565b60405180910390f35b3480156101ce57600080fd5b506101e960048036038101906101e49190612ecf565b61066f565b6040516101f69190613b03565b60405180910390f35b34801561020b57600080fd5b5061022660048036038101906102219190612f62565b610751565b6040516102339190613b1e565b60405180910390f35b34801561024857600080fd5b50610263600480360381019061025e9190612f62565b6107f6565b005b34801561027157600080fd5b5061028c60048036038101906102879190612f21565b61082d565b005b34801561029a57600080fd5b506102a36108c3565b6040516102b09190613da0565b60405180910390f35b3480156102c557600080fd5b506102ce610949565b6040516102db9190613da0565b60405180910390f35b3480156102f057600080fd5b506102f961094f565b005b34801561030757600080fd5b50610322600480360381019061031d9190612ce1565b6109f7565b005b61032c610a0b565b005b34801561033a57600080fd5b5061035560048036038101906103509190612c22565b610b1f565b005b34801561036357600080fd5b5061037e60048036038101906103799190612e63565b610bc0565b60405161038b9190613aaa565b60405180910390f35b3480156103a057600080fd5b506103bb60048036038101906103b69190612f8b565b610d71565b005b3480156103c957600080fd5b506103d2610e19565b005b3480156103e057600080fd5b506103e9610ea1565b005b3480156103f757600080fd5b5061040061101f565b005b34801561040e57600080fd5b506104176110e9565b60405161042491906139a4565b60405180910390f35b34801561043957600080fd5b50610454600480360381019061044f9190612deb565b611113565b005b34801561046257600080fd5b5061046b611129565b6040516104789190613b03565b60405180910390f35b34801561048d57600080fd5b5061049661113c565b6040516104a39190613da0565b60405180910390f35b3480156104b857600080fd5b506104c1611142565b6040516104ce9190613da0565b60405180910390f35b3480156104e357600080fd5b506104fe60048036038101906104f99190612be6565b611148565b60405161050b9190613b03565b60405180910390f35b34801561052057600080fd5b506105296111dc565b005b34801561053757600080fd5b50610552600480360381019061054d9190612d5c565b61131f565b005b34801561056057600080fd5b5061057b60048036038101906105769190612bbd565b6113c0565b005b34801561058957600080fd5b506105a4600480360381019061059f9190612f62565b6114b8565b005b60008073ffffffffffffffffffffffffffffffffffffffff168373ffffffffffffffffffffffffffffffffffffffff161415610617576040517f08c379a000000000000000000000000000000000000000000000000000000000815260040161060e90613b80565b60405180910390fd5b60008083815260200190815260200160002060008473ffffffffffffffffffffffffffffffffffffffff1673ffffffffffffffffffffffffffffffffffffffff16815260200190815260200160002054905092915050565b60007fd9b67a26000000000000000000000000000000000000000000000000000000007bffffffffffffffffffffffffffffffffffffffffffffffffffffffff1916827bffffffffffffffffffffffffffffffffffffffffffffffffffffffff1916148061073a57507f0e89341c000000000000000000000000000000000000000000000000000000007bffffffffffffffffffffffffffffffffffffffffffffffffffffffff1916827bffffffffffffffffffffffffffffffffffffffffffffffffffffffff1916145b8061074a5750610749826115d4565b5b9050919050565b606060106000838152602001908152602001600020805461077190614129565b80601f016020809104026020016040519081016040528092919081815260200182805461079d90614129565b80156107ea5780601f106107bf576101008083540402835291602001916107ea565b820191906000526020600020905b8154815290600101906020018083116107cd57829003601f168201915b50505050509050919050565b6000610802600461163e565b905061081f3382846040518060200160405280600081525061164c565b61082960046117e2565b5050565b6108356117f8565b73ffffffffffffffffffffffffffffffffffffffff166108536110e9565b73ffffffffffffffffffffffffffffffffffffffff16146108a9576040517f08c379a00000000000000000000000000000000000000000000000000000000081526004016108a090613ca0565b60405180910390fd5b80600f90805190602001906108bf9291906128b5565b5050565b60006108cd6117f8565b73ffffffffffffffffffffffffffffffffffffffff166108eb6110e9565b73ffffffffffffffffffffffffffffffffffffffff1614610941576040517f08c379a000000000000000000000000000000000000000000000000000000000815260040161093890613ca0565b60405180910390fd5b600754905090565b600b5481565b6109576117f8565b73ffffffffffffffffffffffffffffffffffffffff166109756110e9565b73ffffffffffffffffffffffffffffffffffffffff16146109cb576040517f08c379a00000000000000000000000000000000000000000000000000000000081526004016109c290613ca0565b60405180910390fd5b600a60009054906101000a900460ff1615600a60006101000a81548160ff021916908315150217905550565b610a0584846000858561131f565b50505050565b6000600654600c54610a1d91906141a4565b9050600754600654610a2f9190613fe5565b600c541015610ae057610a7a338260016040518060400160405280600481526020017f307830300000000000000000000000000000000000000000000000000000000081525061164c565b610ac5600c546005610aa06001610a91600461163e565b610a9b9190613f5e565b611800565b604051602001610ab192919061396a565b604051602081830303815290604052610d71565b6001600c6000828254610ad89190613f5e565b925050819055505b6000600d54148015610b0f5750600754600654610afd9190613fe5565b600c541480610b0e5750600b544210155b5b15610b1c5743600d819055505b50565b610b276117f8565b73ffffffffffffffffffffffffffffffffffffffff168573ffffffffffffffffffffffffffffffffffffffff161480610b6d5750610b6c85610b676117f8565b611148565b5b610bac576040517f08c379a0000000000000000000000000000000000000000000000000000000008152600401610ba390613c40565b60405180910390fd5b610bb985858585856119ad565b5050505050565b60608151835114610c06576040517f08c379a0000000000000000000000000000000000000000000000000000000008152600401610bfd90613d40565b60405180910390fd5b6000835167ffffffffffffffff811115610c49577f4e487b7100000000000000000000000000000000000000000000000000000000600052604160045260246000fd5b604051908082528060200260200182016040528015610c775781602001602082028036833780820191505090505b50905060005b8451811015610d6657610d10858281518110610cc2577f4e487b7100000000000000000000000000000000000000000000000000000000600052603260045260246000fd5b6020026020010151858381518110610d03577f4e487b7100000000000000000000000000000000000000000000000000000000600052603260045260246000fd5b60200260200101516105a6565b828281518110610d49577f4e487b7100000000000000000000000000000000000000000000000000000000600052603260045260246000fd5b60200260200101818152505080610d5f9061415b565b9050610c7d565b508091505092915050565b610d796117f8565b73ffffffffffffffffffffffffffffffffffffffff16610d976110e9565b73ffffffffffffffffffffffffffffffffffffffff1614610ded576040517f08c379a0000000000000000000000000000000000000000000000000000000008152600401610de490613ca0565b60405180910390fd5b80601060008481526020019081526020016000209080519060200190610e149291906128b5565b505050565b610e216117f8565b73ffffffffffffffffffffffffffffffffffffffff16610e3f6110e9565b73ffffffffffffffffffffffffffffffffffffffff1614610e95576040517f08c379a0000000000000000000000000000000000000000000000000000000008152600401610e8c90613ca0565b60405180910390fd5b610e9f6000611d0d565b565b610ea96117f8565b73ffffffffffffffffffffffffffffffffffffffff16610ec76110e9565b73ffffffffffffffffffffffffffffffffffffffff1614610f1d576040517f08c379a0000000000000000000000000000000000000000000000000000000008152600401610f1490613ca0565b60405180910390fd5b600a60095410610f62576040517f08c379a0000000000000000000000000000000000000000000000000000000008152600401610f5990613ce0565b60405180910390fd5b6000610f6e600461163e565b9050610f8c338260016040518060200160405280600081525061164c565b610fb6816008604051602001610fa29190613953565b604051602081830303815290604052610d71565b600160096000828254610fc99190613f5e565b925050819055507f2e0f4d63dcc00e6a11c8aef9f6e15c1f9cd6e9a090b2dd99c7b797f1a28d300d33610ffc600461163e565b60405161100a929190613a81565b60405180910390a161101c60046117e2565b50565b6110276117f8565b73ffffffffffffffffffffffffffffffffffffffff166110456110e9565b73ffffffffffffffffffffffffffffffffffffffff161461109b576040517f08c379a000000000000000000000000000000000000000000000000000000000815260040161109290613ca0565b60405180910390fd5b6000600e54146110e0576040517f08c379a00000000000000000000000000000000000000000000000000000000081526004016110d790613c00565b60405180910390fd5b43600d81905550565b6000600360009054906101000a900473ffffffffffffffffffffffffffffffffffffffff16905090565b61112561111e6117f8565b8383611dd3565b5050565b600a60009054906101000a900460ff1681565b600e5481565b600d5481565b6000600160008473ffffffffffffffffffffffffffffffffffffffff1673ffffffffffffffffffffffffffffffffffffffff16815260200190815260200160002060008373ffffffffffffffffffffffffffffffffffffffff1673ffffffffffffffffffffffffffffffffffffffff16815260200190815260200160002060009054906101000a900460ff16905092915050565b6000600e5414611221576040517f08c379a000000000000000000000000000000000000000000000000000000000815260040161121890613c00565b60405180910390fd5b6000600d541415611267576040517f08c379a000000000000000000000000000000000000000000000000000000000815260040161125e90613d00565b60405180910390fd5b60036007546006546112799190613fe5565b6112839190613fe5565b600d544060001c61129491906141a4565b600e8190555060ff6112b1600d5443611f4090919063ffffffff16565b11156112f55760036007546006546112c99190613fe5565b6112d39190613fe5565b6001436112e0919061403f565b4060001c6112ee91906141a4565b600e819055505b6000600e54141561131d576113166001600e54611f5690919063ffffffff16565b600e819055505b565b6113276117f8565b73ffffffffffffffffffffffffffffffffffffffff168573ffffffffffffffffffffffffffffffffffffffff16148061136d575061136c856113676117f8565b611148565b5b6113ac576040517f08c379a00000000000000000000000000000000000000000000000000000000081526004016113a390613be0565b60405180910390fd5b6113b98585858585611f6c565b5050505050565b6113c86117f8565b73ffffffffffffffffffffffffffffffffffffffff166113e66110e9565b73ffffffffffffffffffffffffffffffffffffffff161461143c576040517f08c379a000000000000000000000000000000000000000000000000000000000815260040161143390613ca0565b60405180910390fd5b600073ffffffffffffffffffffffffffffffffffffffff168173ffffffffffffffffffffffffffffffffffffffff1614156114ac576040517f08c379a00000000000000000000000000000000000000000000000000000000081526004016114a390613ba0565b60405180910390fd5b6114b581611d0d565b50565b60006114c433836105a6565b11611504576040517f08c379a00000000000000000000000000000000000000000000000000000000081526004016114fb90613cc0565b60405180910390fd5b611510338260016121ee565b60005b600381101561153757611524610a0b565b808061152f9061415b565b915050611513565b5050565b6115d18160405160240161154f9190613b1e565b6040516020818303038152906040527f41304fac000000000000000000000000000000000000000000000000000000007bffffffffffffffffffffffffffffffffffffffffffffffffffffffff19166020820180517bffffffffffffffffffffffffffffffffffffffffffffffffffffffff838183161783525050505061240b565b50565b60007f01ffc9a7000000000000000000000000000000000000000000000000000000007bffffffffffffffffffffffffffffffffffffffffffffffffffffffff1916827bffffffffffffffffffffffffffffffffffffffffffffffffffffffff1916149050919050565b600081600001549050919050565b600073ffffffffffffffffffffffffffffffffffffffff168473ffffffffffffffffffffffffffffffffffffffff1614156116bc576040517f08c379a00000000000000000000000000000000000000000000000000000000081526004016116b390613d80565b60405180910390fd5b60006116c66117f8565b90506116e7816000876116d888612434565b6116e188612434565b876124fa565b8260008086815260200190815260200160002060008773ffffffffffffffffffffffffffffffffffffffff1673ffffffffffffffffffffffffffffffffffffffff16815260200190815260200160002060008282546117469190613f5e565b925050819055508473ffffffffffffffffffffffffffffffffffffffff16600073ffffffffffffffffffffffffffffffffffffffff168273ffffffffffffffffffffffffffffffffffffffff167fc3d58168c5ae7397731d063d5bbf3d657854427343f4c083240f7aacaa2d0f6287876040516117c4929190613dbb565b60405180910390a46117db81600087878787612502565b5050505050565b6001816000016000828254019250508190555050565b600033905090565b60606000821415611848576040518060400160405280600181526020017f300000000000000000000000000000000000000000000000000000000000000081525090506119a8565b600082905060005b6000821461187a5780806118639061415b565b915050600a826118739190613fb4565b9150611850565b60008167ffffffffffffffff8111156118bc577f4e487b7100000000000000000000000000000000000000000000000000000000600052604160045260246000fd5b6040519080825280601f01601f1916602001820160405280156118ee5781602001600182028036833780820191505090505b5090505b600085146119a157600182611907919061403f565b9150600a8561191691906141a4565b60306119229190613f5e565b60f81b81838151811061195e577f4e487b7100000000000000000000000000000000000000000000000000000000600052603260045260246000fd5b60200101907effffffffffffffffffffffffffffffffffffffffffffffffffffffffffffff1916908160001a905350600a8561199a9190613fb4565b94506118f2565b8093505050505b919050565b81518351146119f1576040517f08c379a00000000000000000000000000000000000000000000000000000000081526004016119e890613d60565b60405180910390fd5b600073ffffffffffffffffffffffffffffffffffffffff168473ffffffffffffffffffffffffffffffffffffffff161415611a61576040517f08c379a0000000000000000000000000000000000000000000000000000000008152600401611a5890613c20565b60405180910390fd5b6000611a6b6117f8565b9050611a7b8187878787876124fa565b60005b8451811015611c78576000858281518110611ac2577f4e487b7100000000000000000000000000000000000000000000000000000000600052603260045260246000fd5b602002602001015190506000858381518110611b07577f4e487b7100000000000000000000000000000000000000000000000000000000600052603260045260246000fd5b60200260200101519050600080600084815260200190815260200160002060008b73ffffffffffffffffffffffffffffffffffffffff1673ffffffffffffffffffffffffffffffffffffffff16815260200190815260200160002054905081811015611ba8576040517f08c379a0000000000000000000000000000000000000000000000000000000008152600401611b9f90613c80565b60405180910390fd5b81810360008085815260200190815260200160002060008c73ffffffffffffffffffffffffffffffffffffffff1673ffffffffffffffffffffffffffffffffffffffff168152602001908152602001600020819055508160008085815260200190815260200160002060008b73ffffffffffffffffffffffffffffffffffffffff1673ffffffffffffffffffffffffffffffffffffffff1681526020019081526020016000206000828254611c5d9190613f5e565b9250508190555050505080611c719061415b565b9050611a7e565b508473ffffffffffffffffffffffffffffffffffffffff168673ffffffffffffffffffffffffffffffffffffffff168273ffffffffffffffffffffffffffffffffffffffff167f4a39dc06d4c0dbc64b70af90fd698a233a518aa5d07e595d983b8c0526c8f7fb8787604051611cef929190613acc565b60405180910390a4611d058187878787876126d2565b505050505050565b6000600360009054906101000a900473ffffffffffffffffffffffffffffffffffffffff16905081600360006101000a81548173ffffffffffffffffffffffffffffffffffffffff021916908373ffffffffffffffffffffffffffffffffffffffff1602179055508173ffffffffffffffffffffffffffffffffffffffff168173ffffffffffffffffffffffffffffffffffffffff167f8be0079c531659141344cd1fd0a4f28419497f9722a3daafe3b4186f6b6457e060405160405180910390a35050565b8173ffffffffffffffffffffffffffffffffffffffff168373ffffffffffffffffffffffffffffffffffffffff161415611e42576040517f08c379a0000000000000000000000000000000000000000000000000000000008152600401611e3990613d20565b60405180910390fd5b80600160008573ffffffffffffffffffffffffffffffffffffffff1673ffffffffffffffffffffffffffffffffffffffff16815260200190815260200160002060008473ffffffffffffffffffffffffffffffffffffffff1673ffffffffffffffffffffffffffffffffffffffff16815260200190815260200160002060006101000a81548160ff0219169083151502179055508173ffffffffffffffffffffffffffffffffffffffff168373ffffffffffffffffffffffffffffffffffffffff167f17307eab39ab6107e8899845ad3d59bd9653f200f220920489ca2b5937696c3183604051611f339190613b03565b60405180910390a3505050565b60008183611f4e919061403f565b905092915050565b60008183611f649190613f5e565b905092915050565b600073ffffffffffffffffffffffffffffffffffffffff168473ffffffffffffffffffffffffffffffffffffffff161415611fdc576040517f08c379a0000000000000000000000000000000000000000000000000000000008152600401611fd390613c20565b60405180910390fd5b6000611fe66117f8565b9050612006818787611ff788612434565b61200088612434565b876124fa565b600080600086815260200190815260200160002060008873ffffffffffffffffffffffffffffffffffffffff1673ffffffffffffffffffffffffffffffffffffffff1681526020019081526020016000205490508381101561209d576040517f08c379a000000000000000000000000000000000000000000000000000000000815260040161209490613c80565b60405180910390fd5b83810360008087815260200190815260200160002060008973ffffffffffffffffffffffffffffffffffffffff1673ffffffffffffffffffffffffffffffffffffffff168152602001908152602001600020819055508360008087815260200190815260200160002060008873ffffffffffffffffffffffffffffffffffffffff1673ffffffffffffffffffffffffffffffffffffffff16815260200190815260200160002060008282546121529190613f5e565b925050819055508573ffffffffffffffffffffffffffffffffffffffff168773ffffffffffffffffffffffffffffffffffffffff168373ffffffffffffffffffffffffffffffffffffffff167fc3d58168c5ae7397731d063d5bbf3d657854427343f4c083240f7aacaa2d0f6288886040516121cf929190613dbb565b60405180910390a46121e5828888888888612502565b50505050505050565b600073ffffffffffffffffffffffffffffffffffffffff168373ffffffffffffffffffffffffffffffffffffffff16141561225e576040517f08c379a000000000000000000000000000000000000000000000000000000000815260040161225590613c60565b60405180910390fd5b60006122686117f8565b90506122988185600061227a87612434565b61228387612434565b604051806020016040528060008152506124fa565b600080600085815260200190815260200160002060008673ffffffffffffffffffffffffffffffffffffffff1673ffffffffffffffffffffffffffffffffffffffff1681526020019081526020016000205490508281101561232f576040517f08c379a000000000000000000000000000000000000000000000000000000000815260040161232690613bc0565b60405180910390fd5b82810360008086815260200190815260200160002060008773ffffffffffffffffffffffffffffffffffffffff1673ffffffffffffffffffffffffffffffffffffffff16815260200190815260200160002081905550600073ffffffffffffffffffffffffffffffffffffffff168573ffffffffffffffffffffffffffffffffffffffff168373ffffffffffffffffffffffffffffffffffffffff167fc3d58168c5ae7397731d063d5bbf3d657854427343f4c083240f7aacaa2d0f6287876040516123fc929190613dbb565b60405180910390a45050505050565b60008151905060006a636f6e736f6c652e6c6f679050602083016000808483855afa5050505050565b60606000600167ffffffffffffffff811115612479577f4e487b7100000000000000000000000000000000000000000000000000000000600052604160045260246000fd5b6040519080825280602002602001820160405280156124a75781602001602082028036833780820191505090505b50905082816000815181106124e5577f4e487b7100000000000000000000000000000000000000000000000000000000600052603260045260246000fd5b60200260200101818152505080915050919050565b505050505050565b6125218473ffffffffffffffffffffffffffffffffffffffff166128a2565b156126ca578373ffffffffffffffffffffffffffffffffffffffff1663f23a6e6187878686866040518663ffffffff1660e01b8152600401612567959493929190613a27565b602060405180830381600087803b15801561258157600080fd5b505af19250505080156125b257506040513d601f19601f820116820180604052508101906125af9190612ef8565b60015b612641576125be6142af565b806125c95750612606565b806040517f08c379a00000000000000000000000000000000000000000000000000000000081526004016125fd9190613b1e565b60405180910390fd5b6040517f08c379a000000000000000000000000000000000000000000000000000000000815260040161263890613b40565b60405180910390fd5b63f23a6e6160e01b7bffffffffffffffffffffffffffffffffffffffffffffffffffffffff1916817bffffffffffffffffffffffffffffffffffffffffffffffffffffffff1916146126c8576040517f08c379a00000000000000000000000000000000000000000000000000000000081526004016126bf90613b60565b60405180910390fd5b505b505050505050565b6126f18473ffffffffffffffffffffffffffffffffffffffff166128a2565b1561289a578373ffffffffffffffffffffffffffffffffffffffff1663bc197c8187878686866040518663ffffffff1660e01b81526004016127379594939291906139bf565b602060405180830381600087803b15801561275157600080fd5b505af192505050801561278257506040513d601f19601f8201168201806040525081019061277f9190612ef8565b60015b6128115761278e6142af565b8061279957506127d6565b806040517f08c379a00000000000000000000000000000000000000000000000000000000081526004016127cd9190613b1e565b60405180910390fd5b6040517f08c379a000000000000000000000000000000000000000000000000000000000815260040161280890613b40565b60405180910390fd5b63bc197c8160e01b7bffffffffffffffffffffffffffffffffffffffffffffffffffffffff1916817bffffffffffffffffffffffffffffffffffffffffffffffffffffffff191614612898576040517f08c379a000000000000000000000000000000000000000000000000000000000815260040161288f90613b60565b60405180910390fd5b505b505050505050565b600080823b905060008111915050919050565b8280546128c190614129565b90600052602060002090601f0160209004810192826128e3576000855561292a565b82601f106128fc57805160ff191683800117855561292a565b8280016001018555821561292a579182015b8281111561292957825182559160200191906001019061290e565b5b509050612937919061293b565b5090565b5b8082111561295457600081600090555060010161293c565b5090565b600061296b61296684613e15565b613de4565b9050808382526020820190508285602086028201111561298a57600080fd5b60005b858110156129ba57816129a08882612aac565b84526020840193506020830192505060018101905061298d565b5050509392505050565b60006129d76129d284613e41565b613de4565b905080838252602082019050828560208602820111156129f657600080fd5b60005b85811015612a265781612a0c8882612ba8565b8452602084019350602083019250506001810190506129f9565b5050509392505050565b6000612a43612a3e84613e6d565b613de4565b905082815260208101848484011115612a5b57600080fd5b612a668482856140e7565b509392505050565b6000612a81612a7c84613e9d565b613de4565b905082815260208101848484011115612a9957600080fd5b612aa48482856140e7565b509392505050565b600081359050612abb81614365565b92915050565b600082601f830112612ad257600080fd5b8135612ae2848260208601612958565b91505092915050565b600082601f830112612afc57600080fd5b8135612b0c8482602086016129c4565b91505092915050565b600081359050612b248161437c565b92915050565b600081359050612b3981614393565b92915050565b600081519050612b4e81614393565b92915050565b600082601f830112612b6557600080fd5b8135612b75848260208601612a30565b91505092915050565b600082601f830112612b8f57600080fd5b8135612b9f848260208601612a6e565b91505092915050565b600081359050612bb7816143aa565b92915050565b600060208284031215612bcf57600080fd5b6000612bdd84828501612aac565b91505092915050565b60008060408385031215612bf957600080fd5b6000612c0785828601612aac565b9250506020612c1885828601612aac565b9150509250929050565b600080600080600060a08688031215612c3a57600080fd5b6000612c4888828901612aac565b9550506020612c5988828901612aac565b945050604086013567ffffffffffffffff811115612c7657600080fd5b612c8288828901612aeb565b935050606086013567ffffffffffffffff811115612c9f57600080fd5b612cab88828901612aeb565b925050608086013567ffffffffffffffff811115612cc857600080fd5b612cd488828901612b54565b9150509295509295909350565b60008060008060808587031215612cf757600080fd5b6000612d0587828801612aac565b9450506020612d1687828801612aac565b9350506040612d2787828801612ba8565b925050606085013567ffffffffffffffff811115612d4457600080fd5b612d5087828801612b54565b91505092959194509250565b600080600080600060a08688031215612d7457600080fd5b6000612d8288828901612aac565b9550506020612d9388828901612aac565b9450506040612da488828901612ba8565b9350506060612db588828901612ba8565b925050608086013567ffffffffffffffff811115612dd257600080fd5b612dde88828901612b54565b9150509295509295909350565b60008060408385031215612dfe57600080fd5b6000612e0c85828601612aac565b9250506020612e1d85828601612b15565b9150509250929050565b60008060408385031215612e3a57600080fd5b6000612e4885828601612aac565b9250506020612e5985828601612ba8565b9150509250929050565b60008060408385031215612e7657600080fd5b600083013567ffffffffffffffff811115612e9057600080fd5b612e9c85828601612ac1565b925050602083013567ffffffffffffffff811115612eb957600080fd5b612ec585828601612aeb565b9150509250929050565b600060208284031215612ee157600080fd5b6000612eef84828501612b2a565b91505092915050565b600060208284031215612f0a57600080fd5b6000612f1884828501612b3f565b91505092915050565b600060208284031215612f3357600080fd5b600082013567ffffffffffffffff811115612f4d57600080fd5b612f5984828501612b7e565b91505092915050565b600060208284031215612f7457600080fd5b6000612f8284828501612ba8565b91505092915050565b60008060408385031215612f9e57600080fd5b6000612fac85828601612ba8565b925050602083013567ffffffffffffffff811115612fc957600080fd5b612fd585828601612b7e565b9150509250929050565b6000612feb8383613935565b60208301905092915050565b61300081614073565b82525050565b600061301182613ef2565b61301b8185613f20565b935061302683613ecd565b8060005b8381101561305757815161303e8882612fdf565b975061304983613f13565b92505060018101905061302a565b5085935050505092915050565b61306d81614085565b82525050565b600061307e82613efd565b6130888185613f31565b93506130988185602086016140f6565b6130a181614291565b840191505092915050565b60006130b782613f08565b6130c18185613f42565b93506130d18185602086016140f6565b6130da81614291565b840191505092915050565b60006130f082613f08565b6130fa8185613f53565b935061310a8185602086016140f6565b80840191505092915050565b6000815461312381614129565b61312d8186613f53565b9450600182166000811461314857600181146131595761318c565b60ff1983168652818601935061318c565b61316285613edd565b60005b8381101561318457815481890152600182019150602081019050613165565b838801955050505b50505092915050565b60006131a2603483613f42565b91507f455243313135353a207472616e7366657220746f206e6f6e204552433131353560008301527f526563656976657220696d706c656d656e7465720000000000000000000000006020830152604082019050919050565b6000613208602883613f42565b91507f455243313135353a204552433131353552656365697665722072656a6563746560008301527f6420746f6b656e730000000000000000000000000000000000000000000000006020830152604082019050919050565b600061326e602b83613f42565b91507f455243313135353a2062616c616e636520717565727920666f7220746865207a60008301527f65726f20616464726573730000000000000000000000000000000000000000006020830152604082019050919050565b60006132d4602683613f42565b91507f4f776e61626c653a206e6577206f776e657220697320746865207a65726f206160008301527f64647265737300000000000000000000000000000000000000000000000000006020830152604082019050919050565b600061333a602483613f42565b91507f455243313135353a206275726e20616d6f756e7420657863656564732062616c60008301527f616e6365000000000000000000000000000000000000000000000000000000006020830152604082019050919050565b60006133a0602983613f42565b91507f455243313135353a2063616c6c6572206973206e6f74206f776e6572206e6f7260008301527f20617070726f76656400000000000000000000000000000000000000000000006020830152604082019050919050565b6000613406601d83613f42565b91507f5374617274696e6720696e64657820697320616c7265616479207365740000006000830152602082019050919050565b6000613446602583613f42565b91507f455243313135353a207472616e7366657220746f20746865207a65726f20616460008301527f64726573730000000000000000000000000000000000000000000000000000006020830152604082019050919050565b60006134ac603283613f42565b91507f455243313135353a207472616e736665722063616c6c6572206973206e6f742060008301527f6f776e6572206e6f7220617070726f76656400000000000000000000000000006020830152604082019050919050565b6000613512602383613f42565b91507f455243313135353a206275726e2066726f6d20746865207a65726f206164647260008301527f65737300000000000000000000000000000000000000000000000000000000006020830152604082019050919050565b6000613578602a83613f42565b91507f455243313135353a20696e73756666696369656e742062616c616e636520666f60008301527f72207472616e73666572000000000000000000000000000000000000000000006020830152604082019050919050565b60006135de600583613f53565b91507f2e6a736f6e0000000000000000000000000000000000000000000000000000006000830152600582019050919050565b600061361e600783613f53565b91507f6174686c657465000000000000000000000000000000000000000000000000006000830152600782019050919050565b600061365e602083613f42565b91507f4f776e61626c653a2063616c6c6572206973206e6f7420746865206f776e65726000830152602082019050919050565b600061369e602f83613f42565b91507f5061636b2068617320616c7265616479206265656e206275726e6564206f722060008301527f646f6573206e6f742065786973742e00000000000000000000000000000000006020830152604082019050919050565b6000613704602383613f42565b91507f416c6c207061636b73206861766520616c7265616479206265656e206d696e7460008301527f65642100000000000000000000000000000000000000000000000000000000006020830152604082019050919050565b600061376a602083613f42565b91507f5374617274696e6720696e64657820626c6f636b206d757374206265207365746000830152602082019050919050565b60006137aa602983613f42565b91507f455243313135353a2073657474696e6720617070726f76616c2073746174757360008301527f20666f722073656c6600000000000000000000000000000000000000000000006020830152604082019050919050565b6000613810602983613f42565b91507f455243313135353a206163636f756e747320616e6420696473206c656e67746860008301527f206d69736d6174636800000000000000000000000000000000000000000000006020830152604082019050919050565b6000613876602883613f42565b91507f455243313135353a2069647320616e6420616d6f756e7473206c656e6774682060008301527f6d69736d617463680000000000000000000000000000000000000000000000006020830152604082019050919050565b60006138dc602183613f42565b91507f455243313135353a206d696e7420746f20746865207a65726f2061646472657360008301527f73000000000000000000000000000000000000000000000000000000000000006020830152604082019050919050565b61393e816140dd565b82525050565b61394d816140dd565b82525050565b600061395f8284613116565b915081905092915050565b60006139768285613116565b915061398182613611565b915061398d82846130e5565b9150613998826135d1565b91508190509392505050565b60006020820190506139b96000830184612ff7565b92915050565b600060a0820190506139d46000830188612ff7565b6139e16020830187612ff7565b81810360408301526139f38186613006565b90508181036060830152613a078185613006565b90508181036080830152613a1b8184613073565b90509695505050505050565b600060a082019050613a3c6000830188612ff7565b613a496020830187612ff7565b613a566040830186613944565b613a636060830185613944565b8181036080830152613a758184613073565b90509695505050505050565b6000604082019050613a966000830185612ff7565b613aa36020830184613944565b9392505050565b60006020820190508181036000830152613ac48184613006565b905092915050565b60006040820190508181036000830152613ae68185613006565b90508181036020830152613afa8184613006565b90509392505050565b6000602082019050613b186000830184613064565b92915050565b60006020820190508181036000830152613b3881846130ac565b905092915050565b60006020820190508181036000830152613b5981613195565b9050919050565b60006020820190508181036000830152613b79816131fb565b9050919050565b60006020820190508181036000830152613b9981613261565b9050919050565b60006020820190508181036000830152613bb9816132c7565b9050919050565b60006020820190508181036000830152613bd98161332d565b9050919050565b60006020820190508181036000830152613bf981613393565b9050919050565b60006020820190508181036000830152613c19816133f9565b9050919050565b60006020820190508181036000830152613c3981613439565b9050919050565b60006020820190508181036000830152613c598161349f565b9050919050565b60006020820190508181036000830152613c7981613505565b9050919050565b60006020820190508181036000830152613c998161356b565b9050919050565b60006020820190508181036000830152613cb981613651565b9050919050565b60006020820190508181036000830152613cd981613691565b9050919050565b60006020820190508181036000830152613cf9816136f7565b9050919050565b60006020820190508181036000830152613d198161375d565b9050919050565b60006020820190508181036000830152613d398161379d565b9050919050565b60006020820190508181036000830152613d5981613803565b9050919050565b60006020820190508181036000830152613d7981613869565b9050919050565b60006020820190508181036000830152613d99816138cf565b9050919050565b6000602082019050613db56000830184613944565b92915050565b6000604082019050613dd06000830185613944565b613ddd6020830184613944565b9392505050565b6000604051905081810181811067ffffffffffffffff82111715613e0b57613e0a614262565b5b8060405250919050565b600067ffffffffffffffff821115613e3057613e2f614262565b5b602082029050602081019050919050565b600067ffffffffffffffff821115613e5c57613e5b614262565b5b602082029050602081019050919050565b600067ffffffffffffffff821115613e8857613e87614262565b5b601f19601f8301169050602081019050919050565b600067ffffffffffffffff821115613eb857613eb7614262565b5b601f19601f8301169050602081019050919050565b6000819050602082019050919050565b60008190508160005260206000209050919050565b600081519050919050565b600081519050919050565b600081519050919050565b6000602082019050919050565b600082825260208201905092915050565b600082825260208201905092915050565b600082825260208201905092915050565b600081905092915050565b6000613f69826140dd565b9150613f74836140dd565b9250827fffffffffffffffffffffffffffffffffffffffffffffffffffffffffffffffff03821115613fa957613fa86141d5565b5b828201905092915050565b6000613fbf826140dd565b9150613fca836140dd565b925082613fda57613fd9614204565b5b828204905092915050565b6000613ff0826140dd565b9150613ffb836140dd565b9250817fffffffffffffffffffffffffffffffffffffffffffffffffffffffffffffffff0483118215151615614034576140336141d5565b5b828202905092915050565b600061404a826140dd565b9150614055836140dd565b925082821015614068576140676141d5565b5b828203905092915050565b600061407e826140bd565b9050919050565b60008115159050919050565b60007fffffffff0000000000000000000000000000000000000000000000000000000082169050919050565b600073ffffffffffffffffffffffffffffffffffffffff82169050919050565b6000819050919050565b82818337600083830152505050565b60005b838110156141145780820151818401526020810190506140f9565b83811115614123576000848401525b50505050565b6000600282049050600182168061414157607f821691505b6020821081141561415557614154614233565b5b50919050565b6000614166826140dd565b91507fffffffffffffffffffffffffffffffffffffffffffffffffffffffffffffffff821415614199576141986141d5565b5b600182019050919050565b60006141af826140dd565b91506141ba836140dd565b9250826141ca576141c9614204565b5b828206905092915050565b7f4e487b7100000000000000000000000000000000000000000000000000000000600052601160045260246000fd5b7f4e487b7100000000000000000000000000000000000000000000000000000000600052601260045260246000fd5b7f4e487b7100000000000000000000000000000000000000000000000000000000600052602260045260246000fd5b7f4e487b7100000000000000000000000000000000000000000000000000000000600052604160045260246000fd5b6000601f19601f8301169050919050565b60008160e01c9050919050565b600060443d10156142bf57614362565b60046000803e6142d06000516142a2565b6308c379a081146142e15750614362565b60405160043d036004823e80513d602482011167ffffffffffffffff8211171561430d57505050614362565b808201805167ffffffffffffffff81111561432c575050505050614362565b8060208301013d850181111561434757505050505050614362565b61435082614291565b60208401016040528296505050505050505b90565b61436e81614073565b811461437957600080fd5b50565b61438581614085565b811461439057600080fd5b50565b61439c81614091565b81146143a757600080fd5b50565b6143b3816140dd565b81146143be57600080fd5b5056fea2646970667358221220c78590c91376e5d9a6f84ea56669b2e37a1d08d6318524cf5295783af31bbfce64736f6c6343000800003368747470733a2f2f697066732e696f2f697066732f516d573448457a33397a647a4644696744613138537a77537a55656a4366326934644e334c6574667a61723667483f66696c656e616d653d7061636b2e6a736f6e68747470733a2f2f697066732e696f2f697066732f516d56774e654d615538416442374533554b774b4439465970584434764c696d76326b51316646424d4b44464e742f",
  "linkReferences": {},
  "deployedLinkReferences": {}
}