{
  "_format": "hh-sol-artifact-1",
  "contractName": "GameItems",
  "sourceName": "contracts/GameItems.sol",
  "abi": [
    {
      "inputs": [],
      "stateMutability": "nonpayable",
      "type": "constructor"
    },
    {
      "anonymous": false,
      "inputs": [
        {
          "indexed": true,
          "internalType": "address",
          "name": "account",
          "type": "address"
        },
        {
          "indexed": true,
          "internalType": "address",
          "name": "operator",
          "type": "address"
        },
        {
          "indexed": false,
          "internalType": "bool",
          "name": "approved",
          "type": "bool"
        }
      ],
      "name": "ApprovalForAll",
      "type": "event"
    },
    {
      "anonymous": false,
      "inputs": [
        {
          "indexed": true,
          "internalType": "address",
          "name": "previousOwner",
          "type": "address"
        },
        {
          "indexed": true,
          "internalType": "address",
          "name": "newOwner",
          "type": "address"
        }
      ],
      "name": "OwnershipTransferred",
      "type": "event"
    },
    {
      "anonymous": false,
      "inputs": [
        {
          "indexed": true,
          "internalType": "address",
          "name": "operator",
          "type": "address"
        },
        {
          "indexed": true,
          "internalType": "address",
          "name": "from",
          "type": "address"
        },
        {
          "indexed": true,
          "internalType": "address",
          "name": "to",
          "type": "address"
        },
        {
          "indexed": false,
          "internalType": "uint256[]",
          "name": "ids",
          "type": "uint256[]"
        },
        {
          "indexed": false,
          "internalType": "uint256[]",
          "name": "values",
          "type": "uint256[]"
        }
      ],
      "name": "TransferBatch",
      "type": "event"
    },
    {
      "anonymous": false,
      "inputs": [
        {
          "indexed": true,
          "internalType": "address",
          "name": "operator",
          "type": "address"
        },
        {
          "indexed": true,
          "internalType": "address",
          "name": "from",
          "type": "address"
        },
        {
          "indexed": true,
          "internalType": "address",
          "name": "to",
          "type": "address"
        },
        {
          "indexed": false,
          "internalType": "uint256",
          "name": "id",
          "type": "uint256"
        },
        {
          "indexed": false,
          "internalType": "uint256",
          "name": "value",
          "type": "uint256"
        }
      ],
      "name": "TransferSingle",
      "type": "event"
    },
    {
      "anonymous": false,
      "inputs": [
        {
          "indexed": false,
          "internalType": "string",
          "name": "value",
          "type": "string"
        },
        {
          "indexed": true,
          "internalType": "uint256",
          "name": "id",
          "type": "uint256"
        }
      ],
      "name": "URI",
      "type": "event"
    },
    {
      "inputs": [
        {
          "internalType": "address",
          "name": "account",
          "type": "address"
        },
        {
          "internalType": "uint256",
          "name": "id",
          "type": "uint256"
        }
      ],
      "name": "balanceOf",
      "outputs": [
        {
          "internalType": "uint256",
          "name": "",
          "type": "uint256"
        }
      ],
      "stateMutability": "view",
      "type": "function"
    },
    {
      "inputs": [
        {
          "internalType": "address[]",
          "name": "accounts",
          "type": "address[]"
        },
        {
          "internalType": "uint256[]",
          "name": "ids",
          "type": "uint256[]"
        }
      ],
      "name": "balanceOfBatch",
      "outputs": [
        {
          "internalType": "uint256[]",
          "name": "",
          "type": "uint256[]"
        }
      ],
      "stateMutability": "view",
      "type": "function"
    },
    {
      "inputs": [
        {
          "internalType": "address",
          "name": "account",
          "type": "address"
        },
        {
          "internalType": "address",
          "name": "operator",
          "type": "address"
        }
      ],
      "name": "isApprovedForAll",
      "outputs": [
        {
          "internalType": "bool",
          "name": "",
          "type": "bool"
        }
      ],
      "stateMutability": "view",
      "type": "function"
    },
    {
      "inputs": [],
      "name": "mintAthletes",
      "outputs": [],
      "stateMutability": "nonpayable",
      "type": "function"
    },
    {
      "inputs": [
        {
          "internalType": "uint256",
          "name": "initialSupply",
          "type": "uint256"
        }
      ],
      "name": "mintCurrency",
      "outputs": [],
      "stateMutability": "nonpayable",
      "type": "function"
    },
    {
      "inputs": [],
      "name": "mintPack",
      "outputs": [],
      "stateMutability": "nonpayable",
      "type": "function"
    },
    {
      "inputs": [],
      "name": "owner",
      "outputs": [
        {
          "internalType": "address",
          "name": "",
          "type": "address"
        }
      ],
      "stateMutability": "view",
      "type": "function"
    },
    {
      "inputs": [],
      "name": "renounceOwnership",
      "outputs": [],
      "stateMutability": "nonpayable",
      "type": "function"
    },
    {
      "inputs": [
        {
          "internalType": "address",
          "name": "from",
          "type": "address"
        },
        {
          "internalType": "address",
          "name": "to",
          "type": "address"
        },
        {
          "internalType": "uint256[]",
          "name": "ids",
          "type": "uint256[]"
        },
        {
          "internalType": "uint256[]",
          "name": "amounts",
          "type": "uint256[]"
        },
        {
          "internalType": "bytes",
          "name": "data",
          "type": "bytes"
        }
      ],
      "name": "safeBatchTransferFrom",
      "outputs": [],
      "stateMutability": "nonpayable",
      "type": "function"
    },
    {
      "inputs": [
        {
          "internalType": "address",
          "name": "from",
          "type": "address"
        },
        {
          "internalType": "address",
          "name": "to",
          "type": "address"
        },
        {
          "internalType": "uint256",
          "name": "id",
          "type": "uint256"
        },
        {
          "internalType": "uint256",
          "name": "amount",
          "type": "uint256"
        },
        {
          "internalType": "bytes",
          "name": "data",
          "type": "bytes"
        }
      ],
      "name": "safeTransferFrom",
      "outputs": [],
      "stateMutability": "nonpayable",
      "type": "function"
    },
    {
      "inputs": [
        {
          "internalType": "address",
          "name": "operator",
          "type": "address"
        },
        {
          "internalType": "bool",
          "name": "approved",
          "type": "bool"
        }
      ],
      "name": "setApprovalForAll",
      "outputs": [],
      "stateMutability": "nonpayable",
      "type": "function"
    },
    {
      "inputs": [
        {
          "internalType": "uint256",
          "name": "tokenId",
          "type": "uint256"
        },
        {
          "internalType": "string",
          "name": "uri",
          "type": "string"
        }
      ],
      "name": "setTokenUri",
      "outputs": [],
      "stateMutability": "nonpayable",
      "type": "function"
    },
    {
      "inputs": [
        {
          "internalType": "bytes4",
          "name": "interfaceId",
          "type": "bytes4"
        }
      ],
      "name": "supportsInterface",
      "outputs": [
        {
          "internalType": "bool",
          "name": "",
          "type": "bool"
        }
      ],
      "stateMutability": "view",
      "type": "function"
    },
    {
      "inputs": [
        {
          "internalType": "address",
          "name": "from",
          "type": "address"
        },
        {
          "internalType": "address",
          "name": "to",
          "type": "address"
        },
        {
          "internalType": "uint256",
          "name": "amount",
          "type": "uint256"
        },
        {
          "internalType": "bytes",
          "name": "data",
          "type": "bytes"
        }
      ],
      "name": "transferCurrency",
      "outputs": [],
      "stateMutability": "nonpayable",
      "type": "function"
    },
    {
      "inputs": [
        {
          "internalType": "address",
          "name": "newOwner",
          "type": "address"
        }
      ],
      "name": "transferOwnership",
      "outputs": [],
      "stateMutability": "nonpayable",
      "type": "function"
    },
    {
      "inputs": [
        {
          "internalType": "uint256",
          "name": "tokenId",
          "type": "uint256"
        }
      ],
      "name": "uri",
      "outputs": [
        {
          "internalType": "string",
          "name": "",
          "type": "string"
        }
      ],
      "stateMutability": "view",
      "type": "function"
    }
  ],
  "bytecode": "0x608060405260405180608001604052806044815260200162004ae160449139600690805190602001906200003592919062000b80565b506003600755600a6008553480156200004d57600080fd5b50604051806020016040528060008152506200006f81620000d560201b60201c565b506200009062000084620000f160201b60201c565b620000f960201b60201c565b620000bf60405180606001604052806033815260200162004b2560339139620001bf60201b62000cae1760201c565b620000cf6200026260201b60201c565b62001563565b8060029080519060200190620000ed92919062000b80565b5050565b600033905090565b6000600360009054906101000a900473ffffffffffffffffffffffffffffffffffffffff16905081600360006101000a81548173ffffffffffffffffffffffffffffffffffffffff021916908373ffffffffffffffffffffffffffffffffffffffff1602179055508173ffffffffffffffffffffffffffffffffffffffff168173ffffffffffffffffffffffffffffffffffffffff167f8be0079c531659141344cd1fd0a4f28419497f9722a3daafe3b4186f6b6457e060405160405180910390a35050565b6200025f81604051602401620001d691906200107d565b6040516020818303038152906040527f41304fac000000000000000000000000000000000000000000000000000000007bffffffffffffffffffffffffffffffffffffffffffffffffffffffff19166020820180517bffffffffffffffffffffffffffffffffffffffffffffffffffffffff8381831617835250505050620003f160201b60201c565b50565b62000272620000f160201b60201c565b73ffffffffffffffffffffffffffffffffffffffff16620002986200041a60201b60201c565b73ffffffffffffffffffffffffffffffffffffffff1614620002f1576040517f08c379a0000000000000000000000000000000000000000000000000000000008152600401620002e890620010e5565b60405180910390fd5b6000600190505b6001600754620003099190620011ae565b811015620003ee5760006200032a60046200044460201b62000d471760201c565b9050620003513082600854604051806020016040528060008152506200045260201b60201c565b620003c08160066200039260016200037560046200044460201b62000d471760201c565b620003819190620011ae565b6200061760201b62000d551760201c565b604051602001620003a592919062000fd7565b604051602081830303815290604052620007d960201b60201c565b620003d760046200089660201b62000f021760201c565b508080620003e59062001354565b915050620002f8565b50565b60008151905060006a636f6e736f6c652e6c6f679050602083016000808483855afa5050505050565b6000600360009054906101000a900473ffffffffffffffffffffffffffffffffffffffff16905090565b600081600001549050919050565b600073ffffffffffffffffffffffffffffffffffffffff168473ffffffffffffffffffffffffffffffffffffffff161415620004c5576040517f08c379a0000000000000000000000000000000000000000000000000000000008152600401620004bc9062001107565b60405180910390fd5b6000620004d7620000f160201b60201c565b90506200051081600087620004f288620008ac60201b60201c565b6200050388620008ac60201b60201c565b876200097560201b60201c565b8260008086815260200190815260200160002060008773ffffffffffffffffffffffffffffffffffffffff1673ffffffffffffffffffffffffffffffffffffffff1681526020019081526020016000206000828254620005719190620011ae565b925050819055508473ffffffffffffffffffffffffffffffffffffffff16600073ffffffffffffffffffffffffffffffffffffffff168273ffffffffffffffffffffffffffffffffffffffff167fc3d58168c5ae7397731d063d5bbf3d657854427343f4c083240f7aacaa2d0f628787604051620005f192919062001129565b60405180910390a462000610816000878787876200097d60201b60201c565b5050505050565b6060600082141562000661576040518060400160405280600181526020017f30000000000000000000000000000000000000000000000000000000000000008152509050620007d4565b600082905060005b60008214620006995780806200067f9062001354565b915050600a826200069191906200120b565b915062000669565b60008167ffffffffffffffff811115620006dc577f4e487b7100000000000000000000000000000000000000000000000000000000600052604160045260246000fd5b6040519080825280601f01601f1916602001820160405280156200070f5781602001600182028036833780820191505090505b5090505b60008514620007cd576001826200072b919062001243565b9150600a856200073c9190620013a2565b60306200074a9190620011ae565b60f81b81838151811062000787577f4e487b7100000000000000000000000000000000000000000000000000000000600052603260045260246000fd5b60200101907effffffffffffffffffffffffffffffffffffffffffffffffffffffffffffff1916908160001a905350600a85620007c591906200120b565b945062000713565b8093505050505b919050565b620007e9620000f160201b60201c565b73ffffffffffffffffffffffffffffffffffffffff166200080f6200041a60201b60201c565b73ffffffffffffffffffffffffffffffffffffffff161462000868576040517f08c379a00000000000000000000000000000000000000000000000000000000081526004016200085f90620010e5565b60405180910390fd5b806005600084815260200190815260200160002090805190602001906200089192919062000b80565b505050565b6001816000016000828254019250508190555050565b60606000600167ffffffffffffffff811115620008f2577f4e487b7100000000000000000000000000000000000000000000000000000000600052604160045260246000fd5b604051908082528060200260200182016040528015620009215781602001602082028036833780820191505090505b509050828160008151811062000960577f4e487b7100000000000000000000000000000000000000000000000000000000600052603260045260246000fd5b60200260200101818152505080915050919050565b505050505050565b620009a98473ffffffffffffffffffffffffffffffffffffffff1662000b6d60201b62000f181760201c565b1562000b65578373ffffffffffffffffffffffffffffffffffffffff1663f23a6e6187878686866040518663ffffffff1660e01b8152600401620009f295949392919062001019565b602060405180830381600087803b15801562000a0d57600080fd5b505af192505050801562000a4157506040513d601f19601f8201168201806040525081019062000a3e919062000c47565b60015b62000ad95762000a5062001485565b8062000a5d575062000a9c565b806040517f08c379a000000000000000000000000000000000000000000000000000000000815260040162000a9391906200107d565b60405180910390fd5b6040517f08c379a000000000000000000000000000000000000000000000000000000000815260040162000ad090620010a1565b60405180910390fd5b63f23a6e6160e01b7bffffffffffffffffffffffffffffffffffffffffffffffffffffffff1916817bffffffffffffffffffffffffffffffffffffffffffffffffffffffff19161462000b63576040517f08c379a000000000000000000000000000000000000000000000000000000000815260040162000b5a90620010c3565b60405180910390fd5b505b505050505050565b600080823b905060008111915050919050565b82805462000b8e906200131e565b90600052602060002090601f01602090048101928262000bb2576000855562000bfe565b82601f1062000bcd57805160ff191683800117855562000bfe565b8280016001018555821562000bfe579182015b8281111562000bfd57825182559160200191906001019062000be0565b5b50905062000c0d919062000c11565b5090565b5b8082111562000c2c57600081600090555060010162000c12565b5090565b60008151905062000c418162001549565b92915050565b60006020828403121562000c5a57600080fd5b600062000c6a8482850162000c30565b91505092915050565b62000c7e816200127e565b82525050565b600062000c91826200116b565b62000c9d818562001181565b935062000caf818560208601620012e8565b62000cba8162001467565b840191505092915050565b600062000cd28262001176565b62000cde818562001192565b935062000cf0818560208601620012e8565b62000cfb8162001467565b840191505092915050565b600062000d138262001176565b62000d1f8185620011a3565b935062000d31818560208601620012e8565b80840191505092915050565b6000815462000d4c816200131e565b62000d588186620011a3565b9450600182166000811462000d76576001811462000d885762000dbf565b60ff1983168652818601935062000dbf565b62000d938562001156565b60005b8381101562000db75781548189015260018201915060208101905062000d96565b838801955050505b50505092915050565b600062000dd760348362001192565b91507f455243313135353a207472616e7366657220746f206e6f6e204552433131353560008301527f526563656976657220696d706c656d656e7465720000000000000000000000006020830152604082019050919050565b600062000e3f60288362001192565b91507f455243313135353a204552433131353552656365697665722072656a6563746560008301527f6420746f6b656e730000000000000000000000000000000000000000000000006020830152604082019050919050565b600062000ea7600583620011a3565b91507f2e6a736f6e0000000000000000000000000000000000000000000000000000006000830152600582019050919050565b600062000ee9600783620011a3565b91507f6174686c657465000000000000000000000000000000000000000000000000006000830152600782019050919050565b600062000f2b60208362001192565b91507f4f776e61626c653a2063616c6c6572206973206e6f7420746865206f776e65726000830152602082019050919050565b600062000f6d60218362001192565b91507f455243313135353a206d696e7420746f20746865207a65726f2061646472657360008301527f73000000000000000000000000000000000000000000000000000000000000006020830152604082019050919050565b62000fd181620012de565b82525050565b600062000fe5828562000d3d565b915062000ff28262000eda565b915062001000828462000d06565b91506200100d8262000e98565b91508190509392505050565b600060a08201905062001030600083018862000c73565b6200103f602083018762000c73565b6200104e604083018662000fc6565b6200105d606083018562000fc6565b818103608083015262001071818462000c84565b90509695505050505050565b6000602082019050818103600083015262001099818462000cc5565b905092915050565b60006020820190508181036000830152620010bc8162000dc8565b9050919050565b60006020820190508181036000830152620010de8162000e30565b9050919050565b60006020820190508181036000830152620011008162000f1c565b9050919050565b60006020820190508181036000830152620011228162000f5e565b9050919050565b600060408201905062001140600083018562000fc6565b6200114f602083018462000fc6565b9392505050565b60008190508160005260206000209050919050565b600081519050919050565b600081519050919050565b600082825260208201905092915050565b600082825260208201905092915050565b600081905092915050565b6000620011bb82620012de565b9150620011c883620012de565b9250827fffffffffffffffffffffffffffffffffffffffffffffffffffffffffffffffff038211156200120057620011ff620013da565b5b828201905092915050565b60006200121882620012de565b91506200122583620012de565b92508262001238576200123762001409565b5b828204905092915050565b60006200125082620012de565b91506200125d83620012de565b925082821015620012735762001272620013da565b5b828203905092915050565b60006200128b82620012be565b9050919050565b60007fffffffff0000000000000000000000000000000000000000000000000000000082169050919050565b600073ffffffffffffffffffffffffffffffffffffffff82169050919050565b6000819050919050565b60005b8381101562001308578082015181840152602081019050620012eb565b8381111562001318576000848401525b50505050565b600060028204905060018216806200133757607f821691505b602082108114156200134e576200134d62001438565b5b50919050565b60006200136182620012de565b91507fffffffffffffffffffffffffffffffffffffffffffffffffffffffffffffffff821415620013975762001396620013da565b5b600182019050919050565b6000620013af82620012de565b9150620013bc83620012de565b925082620013cf57620013ce62001409565b5b828206905092915050565b7f4e487b7100000000000000000000000000000000000000000000000000000000600052601160045260246000fd5b7f4e487b7100000000000000000000000000000000000000000000000000000000600052601260045260246000fd5b7f4e487b7100000000000000000000000000000000000000000000000000000000600052602260045260246000fd5b6000601f19601f8301169050919050565b60008160e01c9050919050565b600060443d1015620014975762001546565b60046000803e620014aa60005162001478565b6308c379a08114620014bd575062001546565b60405160043d036004823e80513d602482011167ffffffffffffffff82111715620014eb5750505062001546565b808201805167ffffffffffffffff8111156200150c57505050505062001546565b8060208301013d8501811115620015295750505050505062001546565b620015348262001467565b60208401016040528296505050505050505b90565b620015548162001292565b81146200156057600080fd5b50565b61356e80620015736000396000f3fe608060405234801561001057600080fd5b50600436106100ff5760003560e01c8063715018a611610097578063c324581b11610066578063c324581b14610282578063e985e9c51461028c578063f242432a146102bc578063f2fde38b146102d8576100ff565b8063715018a614610234578063722676e21461023e5780638da5cb5b14610248578063a22cb46514610266576100ff565b806319bfbb9e116100d357806319bfbb9e146101b05780632eb2c2d6146101cc5780634e1273f4146101e857806357f7789e14610218576100ff565b8062fdd58e1461010457806301ffc9a7146101345780630e89341c146101645780631072b91f14610194575b600080fd5b61011e60048036038101906101199190612351565b6102f4565b60405161012b9190612f71565b60405180910390f35b61014e600480360381019061014991906123f9565b6103bd565b60405161015b9190612d94565b60405180910390f35b61017e6004803603810190610179919061244b565b61049f565b60405161018b9190612daf565b60405180910390f35b6101ae60048036038101906101a9919061244b565b610544565b005b6101ca60048036038101906101c5919061220b565b61057b565b005b6101e660048036038101906101e1919061214c565b61058f565b005b61020260048036038101906101fd919061238d565b610630565b60405161020f9190612d3b565b60405180910390f35b610232600480360381019061022d9190612474565b6107e1565b005b61023c610889565b005b610246610911565b005b610250610913565b60405161025d9190612c5e565b60405180910390f35b610280600480360381019061027b9190612315565b61093d565b005b61028a610953565b005b6102a660048036038101906102a19190612110565b610a81565b6040516102b39190612d94565b60405180910390f35b6102d660048036038101906102d19190612286565b610b15565b005b6102f260048036038101906102ed91906120e7565b610bb6565b005b60008073ffffffffffffffffffffffffffffffffffffffff168373ffffffffffffffffffffffffffffffffffffffff161415610365576040517f08c379a000000000000000000000000000000000000000000000000000000000815260040161035c90612e11565b60405180910390fd5b60008083815260200190815260200160002060008473ffffffffffffffffffffffffffffffffffffffff1673ffffffffffffffffffffffffffffffffffffffff16815260200190815260200160002054905092915050565b60007fd9b67a26000000000000000000000000000000000000000000000000000000007bffffffffffffffffffffffffffffffffffffffffffffffffffffffff1916827bffffffffffffffffffffffffffffffffffffffffffffffffffffffff1916148061048857507f0e89341c000000000000000000000000000000000000000000000000000000007bffffffffffffffffffffffffffffffffffffffffffffffffffffffff1916827bffffffffffffffffffffffffffffffffffffffffffffffffffffffff1916145b80610498575061049782610f2b565b5b9050919050565b60606005600083815260200190815260200160002080546104bf906132a0565b80601f01602080910402602001604051908101604052809291908181526020018280546104eb906132a0565b80156105385780601f1061050d57610100808354040283529160200191610538565b820191906000526020600020905b81548152906001019060200180831161051b57829003601f168201915b50505050509050919050565b60006105506004610d47565b905061056d33828460405180602001604052806000815250610f95565b6105776004610f02565b5050565b610589848460008585610b15565b50505050565b61059761112b565b73ffffffffffffffffffffffffffffffffffffffff168573ffffffffffffffffffffffffffffffffffffffff1614806105dd57506105dc856105d761112b565b610a81565b5b61061c576040517f08c379a000000000000000000000000000000000000000000000000000000000815260040161061390612e91565b60405180910390fd5b6106298585858585611133565b5050505050565b60608151835114610676576040517f08c379a000000000000000000000000000000000000000000000000000000000815260040161066d90612f11565b60405180910390fd5b6000835167ffffffffffffffff8111156106b9577f4e487b7100000000000000000000000000000000000000000000000000000000600052604160045260246000fd5b6040519080825280602002602001820160405280156106e75781602001602082028036833780820191505090505b50905060005b84518110156107d657610780858281518110610732577f4e487b7100000000000000000000000000000000000000000000000000000000600052603260045260246000fd5b6020026020010151858381518110610773577f4e487b7100000000000000000000000000000000000000000000000000000000600052603260045260246000fd5b60200260200101516102f4565b8282815181106107b9577f4e487b7100000000000000000000000000000000000000000000000000000000600052603260045260246000fd5b602002602001018181525050806107cf906132d2565b90506106ed565b508091505092915050565b6107e961112b565b73ffffffffffffffffffffffffffffffffffffffff16610807610913565b73ffffffffffffffffffffffffffffffffffffffff161461085d576040517f08c379a000000000000000000000000000000000000000000000000000000000815260040161085490612ed1565b60405180910390fd5b80600560008481526020019081526020016000209080519060200190610884929190611ddf565b505050565b61089161112b565b73ffffffffffffffffffffffffffffffffffffffff166108af610913565b73ffffffffffffffffffffffffffffffffffffffff1614610905576040517f08c379a00000000000000000000000000000000000000000000000000000000081526004016108fc90612ed1565b60405180910390fd5b61090f6000611493565b565b565b6000600360009054906101000a900473ffffffffffffffffffffffffffffffffffffffff16905090565b61094f61094861112b565b8383611559565b5050565b61095b61112b565b73ffffffffffffffffffffffffffffffffffffffff16610979610913565b73ffffffffffffffffffffffffffffffffffffffff16146109cf576040517f08c379a00000000000000000000000000000000000000000000000000000000081526004016109c690612ed1565b60405180910390fd5b6000600190505b60016007546109e5919061312f565b811015610a7e5760006109f86004610d47565b9050610a17308260085460405180602001604052806000815250610f95565b610a60816006610a3b6001610a2c6004610d47565b610a36919061312f565b610d55565b604051602001610a4c929190612c24565b6040516020818303038152906040526107e1565b610a6a6004610f02565b508080610a76906132d2565b9150506109d6565b50565b6000600160008473ffffffffffffffffffffffffffffffffffffffff1673ffffffffffffffffffffffffffffffffffffffff16815260200190815260200160002060008373ffffffffffffffffffffffffffffffffffffffff1673ffffffffffffffffffffffffffffffffffffffff16815260200190815260200160002060009054906101000a900460ff16905092915050565b610b1d61112b565b73ffffffffffffffffffffffffffffffffffffffff168573ffffffffffffffffffffffffffffffffffffffff161480610b635750610b6285610b5d61112b565b610a81565b5b610ba2576040517f08c379a0000000000000000000000000000000000000000000000000000000008152600401610b9990612e51565b60405180910390fd5b610baf85858585856116c6565b5050505050565b610bbe61112b565b73ffffffffffffffffffffffffffffffffffffffff16610bdc610913565b73ffffffffffffffffffffffffffffffffffffffff1614610c32576040517f08c379a0000000000000000000000000000000000000000000000000000000008152600401610c2990612ed1565b60405180910390fd5b600073ffffffffffffffffffffffffffffffffffffffff168173ffffffffffffffffffffffffffffffffffffffff161415610ca2576040517f08c379a0000000000000000000000000000000000000000000000000000000008152600401610c9990612e31565b60405180910390fd5b610cab81611493565b50565b610d4481604051602401610cc29190612daf565b6040516020818303038152906040527f41304fac000000000000000000000000000000000000000000000000000000007bffffffffffffffffffffffffffffffffffffffffffffffffffffffff19166020820180517bffffffffffffffffffffffffffffffffffffffffffffffffffffffff8381831617835250505050611948565b50565b600081600001549050919050565b60606000821415610d9d576040518060400160405280600181526020017f30000000000000000000000000000000000000000000000000000000000000008152509050610efd565b600082905060005b60008214610dcf578080610db8906132d2565b915050600a82610dc89190613185565b9150610da5565b60008167ffffffffffffffff811115610e11577f4e487b7100000000000000000000000000000000000000000000000000000000600052604160045260246000fd5b6040519080825280601f01601f191660200182016040528015610e435781602001600182028036833780820191505090505b5090505b60008514610ef657600182610e5c91906131b6565b9150600a85610e6b919061331b565b6030610e77919061312f565b60f81b818381518110610eb3577f4e487b7100000000000000000000000000000000000000000000000000000000600052603260045260246000fd5b60200101907effffffffffffffffffffffffffffffffffffffffffffffffffffffffffffff1916908160001a905350600a85610eef9190613185565b9450610e47565b8093505050505b919050565b6001816000016000828254019250508190555050565b600080823b905060008111915050919050565b60007f01ffc9a7000000000000000000000000000000000000000000000000000000007bffffffffffffffffffffffffffffffffffffffffffffffffffffffff1916827bffffffffffffffffffffffffffffffffffffffffffffffffffffffff1916149050919050565b600073ffffffffffffffffffffffffffffffffffffffff168473ffffffffffffffffffffffffffffffffffffffff161415611005576040517f08c379a0000000000000000000000000000000000000000000000000000000008152600401610ffc90612f51565b60405180910390fd5b600061100f61112b565b90506110308160008761102188611971565b61102a88611971565b87611a37565b8260008086815260200190815260200160002060008773ffffffffffffffffffffffffffffffffffffffff1673ffffffffffffffffffffffffffffffffffffffff168152602001908152602001600020600082825461108f919061312f565b925050819055508473ffffffffffffffffffffffffffffffffffffffff16600073ffffffffffffffffffffffffffffffffffffffff168273ffffffffffffffffffffffffffffffffffffffff167fc3d58168c5ae7397731d063d5bbf3d657854427343f4c083240f7aacaa2d0f62878760405161110d929190612f8c565b60405180910390a461112481600087878787611a3f565b5050505050565b600033905090565b8151835114611177576040517f08c379a000000000000000000000000000000000000000000000000000000000815260040161116e90612f31565b60405180910390fd5b600073ffffffffffffffffffffffffffffffffffffffff168473ffffffffffffffffffffffffffffffffffffffff1614156111e7576040517f08c379a00000000000000000000000000000000000000000000000000000000081526004016111de90612e71565b60405180910390fd5b60006111f161112b565b9050611201818787878787611a37565b60005b84518110156113fe576000858281518110611248577f4e487b7100000000000000000000000000000000000000000000000000000000600052603260045260246000fd5b60200260200101519050600085838151811061128d577f4e487b7100000000000000000000000000000000000000000000000000000000600052603260045260246000fd5b60200260200101519050600080600084815260200190815260200160002060008b73ffffffffffffffffffffffffffffffffffffffff1673ffffffffffffffffffffffffffffffffffffffff1681526020019081526020016000205490508181101561132e576040517f08c379a000000000000000000000000000000000000000000000000000000000815260040161132590612eb1565b60405180910390fd5b81810360008085815260200190815260200160002060008c73ffffffffffffffffffffffffffffffffffffffff1673ffffffffffffffffffffffffffffffffffffffff168152602001908152602001600020819055508160008085815260200190815260200160002060008b73ffffffffffffffffffffffffffffffffffffffff1673ffffffffffffffffffffffffffffffffffffffff16815260200190815260200160002060008282546113e3919061312f565b92505081905550505050806113f7906132d2565b9050611204565b508473ffffffffffffffffffffffffffffffffffffffff168673ffffffffffffffffffffffffffffffffffffffff168273ffffffffffffffffffffffffffffffffffffffff167f4a39dc06d4c0dbc64b70af90fd698a233a518aa5d07e595d983b8c0526c8f7fb8787604051611475929190612d5d565b60405180910390a461148b818787878787611c0f565b505050505050565b6000600360009054906101000a900473ffffffffffffffffffffffffffffffffffffffff16905081600360006101000a81548173ffffffffffffffffffffffffffffffffffffffff021916908373ffffffffffffffffffffffffffffffffffffffff1602179055508173ffffffffffffffffffffffffffffffffffffffff168173ffffffffffffffffffffffffffffffffffffffff167f8be0079c531659141344cd1fd0a4f28419497f9722a3daafe3b4186f6b6457e060405160405180910390a35050565b8173ffffffffffffffffffffffffffffffffffffffff168373ffffffffffffffffffffffffffffffffffffffff1614156115c8576040517f08c379a00000000000000000000000000000000000000000000000000000000081526004016115bf90612ef1565b60405180910390fd5b80600160008573ffffffffffffffffffffffffffffffffffffffff1673ffffffffffffffffffffffffffffffffffffffff16815260200190815260200160002060008473ffffffffffffffffffffffffffffffffffffffff1673ffffffffffffffffffffffffffffffffffffffff16815260200190815260200160002060006101000a81548160ff0219169083151502179055508173ffffffffffffffffffffffffffffffffffffffff168373ffffffffffffffffffffffffffffffffffffffff167f17307eab39ab6107e8899845ad3d59bd9653f200f220920489ca2b5937696c31836040516116b99190612d94565b60405180910390a3505050565b600073ffffffffffffffffffffffffffffffffffffffff168473ffffffffffffffffffffffffffffffffffffffff161415611736576040517f08c379a000000000000000000000000000000000000000000000000000000000815260040161172d90612e71565b60405180910390fd5b600061174061112b565b905061176081878761175188611971565b61175a88611971565b87611a37565b600080600086815260200190815260200160002060008873ffffffffffffffffffffffffffffffffffffffff1673ffffffffffffffffffffffffffffffffffffffff168152602001908152602001600020549050838110156117f7576040517f08c379a00000000000000000000000000000000000000000000000000000000081526004016117ee90612eb1565b60405180910390fd5b83810360008087815260200190815260200160002060008973ffffffffffffffffffffffffffffffffffffffff1673ffffffffffffffffffffffffffffffffffffffff168152602001908152602001600020819055508360008087815260200190815260200160002060008873ffffffffffffffffffffffffffffffffffffffff1673ffffffffffffffffffffffffffffffffffffffff16815260200190815260200160002060008282546118ac919061312f565b925050819055508573ffffffffffffffffffffffffffffffffffffffff168773ffffffffffffffffffffffffffffffffffffffff168373ffffffffffffffffffffffffffffffffffffffff167fc3d58168c5ae7397731d063d5bbf3d657854427343f4c083240f7aacaa2d0f628888604051611929929190612f8c565b60405180910390a461193f828888888888611a3f565b50505050505050565b60008151905060006a636f6e736f6c652e6c6f679050602083016000808483855afa5050505050565b60606000600167ffffffffffffffff8111156119b6577f4e487b7100000000000000000000000000000000000000000000000000000000600052604160045260246000fd5b6040519080825280602002602001820160405280156119e45781602001602082028036833780820191505090505b5090508281600081518110611a22577f4e487b7100000000000000000000000000000000000000000000000000000000600052603260045260246000fd5b60200260200101818152505080915050919050565b505050505050565b611a5e8473ffffffffffffffffffffffffffffffffffffffff16610f18565b15611c07578373ffffffffffffffffffffffffffffffffffffffff1663f23a6e6187878686866040518663ffffffff1660e01b8152600401611aa4959493929190612ce1565b602060405180830381600087803b158015611abe57600080fd5b505af1925050508015611aef57506040513d601f19601f82011682018060405250810190611aec9190612422565b60015b611b7e57611afb613426565b80611b065750611b43565b806040517f08c379a0000000000000000000000000000000000000000000000000000000008152600401611b3a9190612daf565b60405180910390fd5b6040517f08c379a0000000000000000000000000000000000000000000000000000000008152600401611b7590612dd1565b60405180910390fd5b63f23a6e6160e01b7bffffffffffffffffffffffffffffffffffffffffffffffffffffffff1916817bffffffffffffffffffffffffffffffffffffffffffffffffffffffff191614611c05576040517f08c379a0000000000000000000000000000000000000000000000000000000008152600401611bfc90612df1565b60405180910390fd5b505b505050505050565b611c2e8473ffffffffffffffffffffffffffffffffffffffff16610f18565b15611dd7578373ffffffffffffffffffffffffffffffffffffffff1663bc197c8187878686866040518663ffffffff1660e01b8152600401611c74959493929190612c79565b602060405180830381600087803b158015611c8e57600080fd5b505af1925050508015611cbf57506040513d601f19601f82011682018060405250810190611cbc9190612422565b60015b611d4e57611ccb613426565b80611cd65750611d13565b806040517f08c379a0000000000000000000000000000000000000000000000000000000008152600401611d0a9190612daf565b60405180910390fd5b6040517f08c379a0000000000000000000000000000000000000000000000000000000008152600401611d4590612dd1565b60405180910390fd5b63bc197c8160e01b7bffffffffffffffffffffffffffffffffffffffffffffffffffffffff1916817bffffffffffffffffffffffffffffffffffffffffffffffffffffffff191614611dd5576040517f08c379a0000000000000000000000000000000000000000000000000000000008152600401611dcc90612df1565b60405180910390fd5b505b505050505050565b828054611deb906132a0565b90600052602060002090601f016020900481019282611e0d5760008555611e54565b82601f10611e2657805160ff1916838001178555611e54565b82800160010185558215611e54579182015b82811115611e53578251825591602001919060010190611e38565b5b509050611e619190611e65565b5090565b5b80821115611e7e576000816000905550600101611e66565b5090565b6000611e95611e9084612fe6565b612fb5565b90508083825260208201905082856020860282011115611eb457600080fd5b60005b85811015611ee45781611eca8882611fd6565b845260208401935060208301925050600181019050611eb7565b5050509392505050565b6000611f01611efc84613012565b612fb5565b90508083825260208201905082856020860282011115611f2057600080fd5b60005b85811015611f505781611f3688826120d2565b845260208401935060208301925050600181019050611f23565b5050509392505050565b6000611f6d611f688461303e565b612fb5565b905082815260208101848484011115611f8557600080fd5b611f9084828561325e565b509392505050565b6000611fab611fa68461306e565b612fb5565b905082815260208101848484011115611fc357600080fd5b611fce84828561325e565b509392505050565b600081359050611fe5816134dc565b92915050565b600082601f830112611ffc57600080fd5b813561200c848260208601611e82565b91505092915050565b600082601f83011261202657600080fd5b8135612036848260208601611eee565b91505092915050565b60008135905061204e816134f3565b92915050565b6000813590506120638161350a565b92915050565b6000815190506120788161350a565b92915050565b600082601f83011261208f57600080fd5b813561209f848260208601611f5a565b91505092915050565b600082601f8301126120b957600080fd5b81356120c9848260208601611f98565b91505092915050565b6000813590506120e181613521565b92915050565b6000602082840312156120f957600080fd5b600061210784828501611fd6565b91505092915050565b6000806040838503121561212357600080fd5b600061213185828601611fd6565b925050602061214285828601611fd6565b9150509250929050565b600080600080600060a0868803121561216457600080fd5b600061217288828901611fd6565b955050602061218388828901611fd6565b945050604086013567ffffffffffffffff8111156121a057600080fd5b6121ac88828901612015565b935050606086013567ffffffffffffffff8111156121c957600080fd5b6121d588828901612015565b925050608086013567ffffffffffffffff8111156121f257600080fd5b6121fe8882890161207e565b9150509295509295909350565b6000806000806080858703121561222157600080fd5b600061222f87828801611fd6565b945050602061224087828801611fd6565b9350506040612251878288016120d2565b925050606085013567ffffffffffffffff81111561226e57600080fd5b61227a8782880161207e565b91505092959194509250565b600080600080600060a0868803121561229e57600080fd5b60006122ac88828901611fd6565b95505060206122bd88828901611fd6565b94505060406122ce888289016120d2565b93505060606122df888289016120d2565b925050608086013567ffffffffffffffff8111156122fc57600080fd5b6123088882890161207e565b9150509295509295909350565b6000806040838503121561232857600080fd5b600061233685828601611fd6565b92505060206123478582860161203f565b9150509250929050565b6000806040838503121561236457600080fd5b600061237285828601611fd6565b9250506020612383858286016120d2565b9150509250929050565b600080604083850312156123a057600080fd5b600083013567ffffffffffffffff8111156123ba57600080fd5b6123c685828601611feb565b925050602083013567ffffffffffffffff8111156123e357600080fd5b6123ef85828601612015565b9150509250929050565b60006020828403121561240b57600080fd5b600061241984828501612054565b91505092915050565b60006020828403121561243457600080fd5b600061244284828501612069565b91505092915050565b60006020828403121561245d57600080fd5b600061246b848285016120d2565b91505092915050565b6000806040838503121561248757600080fd5b6000612495858286016120d2565b925050602083013567ffffffffffffffff8111156124b257600080fd5b6124be858286016120a8565b9150509250929050565b60006124d48383612c06565b60208301905092915050565b6124e9816131ea565b82525050565b60006124fa826130c3565b61250481856130f1565b935061250f8361309e565b8060005b8381101561254057815161252788826124c8565b9750612532836130e4565b925050600181019050612513565b5085935050505092915050565b612556816131fc565b82525050565b6000612567826130ce565b6125718185613102565b935061258181856020860161326d565b61258a81613408565b840191505092915050565b60006125a0826130d9565b6125aa8185613113565b93506125ba81856020860161326d565b6125c381613408565b840191505092915050565b60006125d9826130d9565b6125e38185613124565b93506125f381856020860161326d565b80840191505092915050565b6000815461260c816132a0565b6126168186613124565b94506001821660008114612631576001811461264257612675565b60ff19831686528186019350612675565b61264b856130ae565b60005b8381101561266d5781548189015260018201915060208101905061264e565b838801955050505b50505092915050565b600061268b603483613113565b91507f455243313135353a207472616e7366657220746f206e6f6e204552433131353560008301527f526563656976657220696d706c656d656e7465720000000000000000000000006020830152604082019050919050565b60006126f1602883613113565b91507f455243313135353a204552433131353552656365697665722072656a6563746560008301527f6420746f6b656e730000000000000000000000000000000000000000000000006020830152604082019050919050565b6000612757602b83613113565b91507f455243313135353a2062616c616e636520717565727920666f7220746865207a60008301527f65726f20616464726573730000000000000000000000000000000000000000006020830152604082019050919050565b60006127bd602683613113565b91507f4f776e61626c653a206e6577206f776e657220697320746865207a65726f206160008301527f64647265737300000000000000000000000000000000000000000000000000006020830152604082019050919050565b6000612823602983613113565b91507f455243313135353a2063616c6c6572206973206e6f74206f776e6572206e6f7260008301527f20617070726f76656400000000000000000000000000000000000000000000006020830152604082019050919050565b6000612889602583613113565b91507f455243313135353a207472616e7366657220746f20746865207a65726f20616460008301527f64726573730000000000000000000000000000000000000000000000000000006020830152604082019050919050565b60006128ef603283613113565b91507f455243313135353a207472616e736665722063616c6c6572206973206e6f742060008301527f6f776e6572206e6f7220617070726f76656400000000000000000000000000006020830152604082019050919050565b6000612955602a83613113565b91507f455243313135353a20696e73756666696369656e742062616c616e636520666f60008301527f72207472616e73666572000000000000000000000000000000000000000000006020830152604082019050919050565b60006129bb600583613124565b91507f2e6a736f6e0000000000000000000000000000000000000000000000000000006000830152600582019050919050565b60006129fb600783613124565b91507f6174686c657465000000000000000000000000000000000000000000000000006000830152600782019050919050565b6000612a3b602083613113565b91507f4f776e61626c653a2063616c6c6572206973206e6f7420746865206f776e65726000830152602082019050919050565b6000612a7b602983613113565b91507f455243313135353a2073657474696e6720617070726f76616c2073746174757360008301527f20666f722073656c6600000000000000000000000000000000000000000000006020830152604082019050919050565b6000612ae1602983613113565b91507f455243313135353a206163636f756e747320616e6420696473206c656e67746860008301527f206d69736d6174636800000000000000000000000000000000000000000000006020830152604082019050919050565b6000612b47602883613113565b91507f455243313135353a2069647320616e6420616d6f756e7473206c656e6774682060008301527f6d69736d617463680000000000000000000000000000000000000000000000006020830152604082019050919050565b6000612bad602183613113565b91507f455243313135353a206d696e7420746f20746865207a65726f2061646472657360008301527f73000000000000000000000000000000000000000000000000000000000000006020830152604082019050919050565b612c0f81613254565b82525050565b612c1e81613254565b82525050565b6000612c3082856125ff565b9150612c3b826129ee565b9150612c4782846125ce565b9150612c52826129ae565b91508190509392505050565b6000602082019050612c7360008301846124e0565b92915050565b600060a082019050612c8e60008301886124e0565b612c9b60208301876124e0565b8181036040830152612cad81866124ef565b90508181036060830152612cc181856124ef565b90508181036080830152612cd5818461255c565b90509695505050505050565b600060a082019050612cf660008301886124e0565b612d0360208301876124e0565b612d106040830186612c15565b612d1d6060830185612c15565b8181036080830152612d2f818461255c565b90509695505050505050565b60006020820190508181036000830152612d5581846124ef565b905092915050565b60006040820190508181036000830152612d7781856124ef565b90508181036020830152612d8b81846124ef565b90509392505050565b6000602082019050612da9600083018461254d565b92915050565b60006020820190508181036000830152612dc98184612595565b905092915050565b60006020820190508181036000830152612dea8161267e565b9050919050565b60006020820190508181036000830152612e0a816126e4565b9050919050565b60006020820190508181036000830152612e2a8161274a565b9050919050565b60006020820190508181036000830152612e4a816127b0565b9050919050565b60006020820190508181036000830152612e6a81612816565b9050919050565b60006020820190508181036000830152612e8a8161287c565b9050919050565b60006020820190508181036000830152612eaa816128e2565b9050919050565b60006020820190508181036000830152612eca81612948565b9050919050565b60006020820190508181036000830152612eea81612a2e565b9050919050565b60006020820190508181036000830152612f0a81612a6e565b9050919050565b60006020820190508181036000830152612f2a81612ad4565b9050919050565b60006020820190508181036000830152612f4a81612b3a565b9050919050565b60006020820190508181036000830152612f6a81612ba0565b9050919050565b6000602082019050612f866000830184612c15565b92915050565b6000604082019050612fa16000830185612c15565b612fae6020830184612c15565b9392505050565b6000604051905081810181811067ffffffffffffffff82111715612fdc57612fdb6133d9565b5b8060405250919050565b600067ffffffffffffffff821115613001576130006133d9565b5b602082029050602081019050919050565b600067ffffffffffffffff82111561302d5761302c6133d9565b5b602082029050602081019050919050565b600067ffffffffffffffff821115613059576130586133d9565b5b601f19601f8301169050602081019050919050565b600067ffffffffffffffff821115613089576130886133d9565b5b601f19601f8301169050602081019050919050565b6000819050602082019050919050565b60008190508160005260206000209050919050565b600081519050919050565b600081519050919050565b600081519050919050565b6000602082019050919050565b600082825260208201905092915050565b600082825260208201905092915050565b600082825260208201905092915050565b600081905092915050565b600061313a82613254565b915061314583613254565b9250827fffffffffffffffffffffffffffffffffffffffffffffffffffffffffffffffff0382111561317a5761317961334c565b5b828201905092915050565b600061319082613254565b915061319b83613254565b9250826131ab576131aa61337b565b5b828204905092915050565b60006131c182613254565b91506131cc83613254565b9250828210156131df576131de61334c565b5b828203905092915050565b60006131f582613234565b9050919050565b60008115159050919050565b60007fffffffff0000000000000000000000000000000000000000000000000000000082169050919050565b600073ffffffffffffffffffffffffffffffffffffffff82169050919050565b6000819050919050565b82818337600083830152505050565b60005b8381101561328b578082015181840152602081019050613270565b8381111561329a576000848401525b50505050565b600060028204905060018216806132b857607f821691505b602082108114156132cc576132cb6133aa565b5b50919050565b60006132dd82613254565b91507fffffffffffffffffffffffffffffffffffffffffffffffffffffffffffffffff8214156133105761330f61334c565b5b600182019050919050565b600061332682613254565b915061333183613254565b9250826133415761334061337b565b5b828206905092915050565b7f4e487b7100000000000000000000000000000000000000000000000000000000600052601160045260246000fd5b7f4e487b7100000000000000000000000000000000000000000000000000000000600052601260045260246000fd5b7f4e487b7100000000000000000000000000000000000000000000000000000000600052602260045260246000fd5b7f4e487b7100000000000000000000000000000000000000000000000000000000600052604160045260246000fd5b6000601f19601f8301169050919050565b60008160e01c9050919050565b600060443d1015613436576134d9565b60046000803e613447600051613419565b6308c379a0811461345857506134d9565b60405160043d036004823e80513d602482011167ffffffffffffffff82111715613484575050506134d9565b808201805167ffffffffffffffff8111156134a35750505050506134d9565b8060208301013d85018111156134be575050505050506134d9565b6134c782613408565b60208401016040528296505050505050505b90565b6134e5816131ea565b81146134f057600080fd5b50565b6134fc816131fc565b811461350757600080fd5b50565b61351381613208565b811461351e57600080fd5b50565b61352a81613254565b811461353557600080fd5b5056fea26469706673582212209693a0dcc11bcc6b6565dc9b41e5d02692e6aa056bb2649ae6621bafdefdb62d64736f6c6343000800003368747470733a2f2f697066732e696f2f697066732f516d56774e654d615538416442374533554b774b4439465970584434764c696d76326b51316646424d4b44464e742f4d616b696e6720636f6e74726163742c206d696e74696e6720696e697469616c2063757272656e637920737570706c792e2e2e",
  "linkReferences": {},
  "deployedLinkReferences": {}
}