{
  "_format": "hh-sol-artifact-1",
  "contractName": "GameItems",
  "sourceName": "contracts/GameItems.sol",
  "abi": [
    {
      "inputs": [
        {
          "components": [
            {
              "internalType": "uint256",
              "name": "_numAthletes",
              "type": "uint256"
            },
            {
              "internalType": "uint256",
              "name": "_nftPerAthlete",
              "type": "uint256"
            },
            {
              "internalType": "uint256",
              "name": "_starterPackSize",
              "type": "uint256"
            },
            {
              "internalType": "uint256",
              "name": "_boosterPackSize",
              "type": "uint256"
            },
            {
              "internalType": "uint256",
              "name": "_maxStarterPackBalance",
              "type": "uint256"
            },
            {
              "internalType": "uint256",
              "name": "_maxBoosterPackBalance",
              "type": "uint256"
            },
            {
              "internalType": "uint256",
              "name": "_maxPacks",
              "type": "uint256"
            },
            {
              "internalType": "uint256",
              "name": "_revealTimestamp",
              "type": "uint256"
            }
          ],
          "internalType": "struct GameItems.Parameters",
          "name": "params",
          "type": "tuple"
        },
        {
          "internalType": "string",
          "name": "_athleteURI",
          "type": "string"
        },
        {
          "internalType": "string",
          "name": "_starterPackURI",
          "type": "string"
        },
        {
          "internalType": "string",
          "name": "_boosterPackURI",
          "type": "string"
        }
      ],
      "stateMutability": "nonpayable",
      "type": "constructor"
    },
    {
      "anonymous": false,
      "inputs": [
        {
          "indexed": true,
          "internalType": "address",
          "name": "account",
          "type": "address"
        },
        {
          "indexed": true,
          "internalType": "address",
          "name": "operator",
          "type": "address"
        },
        {
          "indexed": false,
          "internalType": "bool",
          "name": "approved",
          "type": "bool"
        }
      ],
      "name": "ApprovalForAll",
      "type": "event"
    },
    {
      "anonymous": false,
      "inputs": [
        {
          "indexed": true,
          "internalType": "address",
          "name": "previousOwner",
          "type": "address"
        },
        {
          "indexed": true,
          "internalType": "address",
          "name": "newOwner",
          "type": "address"
        }
      ],
      "name": "OwnershipTransferred",
      "type": "event"
    },
    {
      "anonymous": false,
      "inputs": [
        {
          "indexed": true,
          "internalType": "address",
          "name": "operator",
          "type": "address"
        },
        {
          "indexed": true,
          "internalType": "address",
          "name": "from",
          "type": "address"
        },
        {
          "indexed": true,
          "internalType": "address",
          "name": "to",
          "type": "address"
        },
        {
          "indexed": false,
          "internalType": "uint256[]",
          "name": "ids",
          "type": "uint256[]"
        },
        {
          "indexed": false,
          "internalType": "uint256[]",
          "name": "values",
          "type": "uint256[]"
        }
      ],
      "name": "TransferBatch",
      "type": "event"
    },
    {
      "anonymous": false,
      "inputs": [
        {
          "indexed": true,
          "internalType": "address",
          "name": "operator",
          "type": "address"
        },
        {
          "indexed": true,
          "internalType": "address",
          "name": "from",
          "type": "address"
        },
        {
          "indexed": true,
          "internalType": "address",
          "name": "to",
          "type": "address"
        },
        {
          "indexed": false,
          "internalType": "uint256",
          "name": "id",
          "type": "uint256"
        },
        {
          "indexed": false,
          "internalType": "uint256",
          "name": "value",
          "type": "uint256"
        }
      ],
      "name": "TransferSingle",
      "type": "event"
    },
    {
      "anonymous": false,
      "inputs": [
        {
          "indexed": false,
          "internalType": "string",
          "name": "value",
          "type": "string"
        },
        {
          "indexed": true,
          "internalType": "uint256",
          "name": "id",
          "type": "uint256"
        }
      ],
      "name": "URI",
      "type": "event"
    },
    {
      "anonymous": false,
      "inputs": [
        {
          "indexed": false,
          "internalType": "address",
          "name": "user",
          "type": "address"
        },
        {
          "indexed": false,
          "internalType": "uint256",
          "name": "id",
          "type": "uint256"
        }
      ],
      "name": "packMinted",
      "type": "event"
    },
    {
      "inputs": [],
      "name": "REVEAL_TIMESTAMP",
      "outputs": [
        {
          "internalType": "uint256",
          "name": "",
          "type": "uint256"
        }
      ],
      "stateMutability": "view",
      "type": "function"
    },
    {
      "inputs": [
        {
          "internalType": "address",
          "name": "account",
          "type": "address"
        },
        {
          "internalType": "uint256",
          "name": "id",
          "type": "uint256"
        }
      ],
      "name": "balanceOf",
      "outputs": [
        {
          "internalType": "uint256",
          "name": "",
          "type": "uint256"
        }
      ],
      "stateMutability": "view",
      "type": "function"
    },
    {
      "inputs": [
        {
          "internalType": "address[]",
          "name": "accounts",
          "type": "address[]"
        },
        {
          "internalType": "uint256[]",
          "name": "ids",
          "type": "uint256[]"
        }
      ],
      "name": "balanceOfBatch",
      "outputs": [
        {
          "internalType": "uint256[]",
          "name": "",
          "type": "uint256[]"
        }
      ],
      "stateMutability": "view",
      "type": "function"
    },
    {
      "inputs": [],
      "name": "burnBoosterPack",
      "outputs": [],
      "stateMutability": "nonpayable",
      "type": "function"
    },
    {
      "inputs": [],
      "name": "burnStarterPack",
      "outputs": [],
      "stateMutability": "nonpayable",
      "type": "function"
    },
    {
      "inputs": [],
      "name": "emergencySetStartingIndexBlock",
      "outputs": [],
      "stateMutability": "nonpayable",
      "type": "function"
    },
    {
      "inputs": [],
      "name": "generateBoosterPackIndices",
      "outputs": [
        {
          "internalType": "uint256[3]",
          "name": "",
          "type": "uint256[3]"
        }
      ],
      "stateMutability": "view",
      "type": "function"
    },
    {
      "inputs": [],
      "name": "generateStarterPackIndices",
      "outputs": [
        {
          "internalType": "uint256[5]",
          "name": "",
          "type": "uint256[5]"
        }
      ],
      "stateMutability": "view",
      "type": "function"
    },
    {
      "inputs": [],
      "name": "getNFTPerAthlete",
      "outputs": [
        {
          "internalType": "uint256",
          "name": "",
          "type": "uint256"
        }
      ],
      "stateMutability": "view",
      "type": "function"
    },
    {
      "inputs": [
        {
          "internalType": "address",
          "name": "account",
          "type": "address"
        },
        {
          "internalType": "address",
          "name": "operator",
          "type": "address"
        }
      ],
      "name": "isApprovedForAll",
      "outputs": [
        {
          "internalType": "bool",
          "name": "",
          "type": "bool"
        }
      ],
      "stateMutability": "view",
      "type": "function"
    },
    {
      "inputs": [],
      "name": "mintBoosterPack",
      "outputs": [],
      "stateMutability": "nonpayable",
      "type": "function"
    },
    {
      "inputs": [],
      "name": "mintStarterPack",
      "outputs": [],
      "stateMutability": "nonpayable",
      "type": "function"
    },
    {
      "inputs": [],
      "name": "owner",
      "outputs": [
        {
          "internalType": "address",
          "name": "",
          "type": "address"
        }
      ],
      "stateMutability": "view",
      "type": "function"
    },
    {
      "inputs": [],
      "name": "packsReadyToOpen",
      "outputs": [
        {
          "internalType": "bool",
          "name": "",
          "type": "bool"
        }
      ],
      "stateMutability": "view",
      "type": "function"
    },
    {
      "inputs": [],
      "name": "renounceOwnership",
      "outputs": [],
      "stateMutability": "nonpayable",
      "type": "function"
    },
    {
      "inputs": [
        {
          "internalType": "address",
          "name": "from",
          "type": "address"
        },
        {
          "internalType": "address",
          "name": "to",
          "type": "address"
        },
        {
          "internalType": "uint256[]",
          "name": "ids",
          "type": "uint256[]"
        },
        {
          "internalType": "uint256[]",
          "name": "amounts",
          "type": "uint256[]"
        },
        {
          "internalType": "bytes",
          "name": "data",
          "type": "bytes"
        }
      ],
      "name": "safeBatchTransferFrom",
      "outputs": [],
      "stateMutability": "nonpayable",
      "type": "function"
    },
    {
      "inputs": [
        {
          "internalType": "address",
          "name": "from",
          "type": "address"
        },
        {
          "internalType": "address",
          "name": "to",
          "type": "address"
        },
        {
          "internalType": "uint256",
          "name": "id",
          "type": "uint256"
        },
        {
          "internalType": "uint256",
          "name": "amount",
          "type": "uint256"
        },
        {
          "internalType": "bytes",
          "name": "data",
          "type": "bytes"
        }
      ],
      "name": "safeTransferFrom",
      "outputs": [],
      "stateMutability": "nonpayable",
      "type": "function"
    },
    {
      "inputs": [
        {
          "internalType": "address",
          "name": "operator",
          "type": "address"
        },
        {
          "internalType": "bool",
          "name": "approved",
          "type": "bool"
        }
      ],
      "name": "setApprovalForAll",
      "outputs": [],
      "stateMutability": "nonpayable",
      "type": "function"
    },
    {
      "inputs": [],
      "name": "setPacksReady",
      "outputs": [],
      "stateMutability": "nonpayable",
      "type": "function"
    },
    {
      "inputs": [
        {
          "internalType": "string",
          "name": "provenanceHash",
          "type": "string"
        }
      ],
      "name": "setProvenanceHash",
      "outputs": [],
      "stateMutability": "nonpayable",
      "type": "function"
    },
    {
      "inputs": [],
      "name": "setStartingIndex",
      "outputs": [],
      "stateMutability": "nonpayable",
      "type": "function"
    },
    {
      "inputs": [
        {
          "internalType": "uint256",
          "name": "tokenId",
          "type": "uint256"
        },
        {
          "internalType": "string",
          "name": "uri",
          "type": "string"
        }
      ],
      "name": "setTokenUri",
      "outputs": [],
      "stateMutability": "nonpayable",
      "type": "function"
    },
    {
      "inputs": [],
      "name": "setURIs",
      "outputs": [],
      "stateMutability": "nonpayable",
      "type": "function"
    },
    {
      "inputs": [
        {
          "internalType": "bytes4",
          "name": "interfaceId",
          "type": "bytes4"
        }
      ],
      "name": "supportsInterface",
      "outputs": [
        {
          "internalType": "bool",
          "name": "",
          "type": "bool"
        }
      ],
      "stateMutability": "view",
      "type": "function"
    },
    {
      "inputs": [
        {
          "internalType": "address",
          "name": "newOwner",
          "type": "address"
        }
      ],
      "name": "transferOwnership",
      "outputs": [],
      "stateMutability": "nonpayable",
      "type": "function"
    },
    {
      "inputs": [
        {
          "internalType": "uint256",
          "name": "tokenId",
          "type": "uint256"
        }
      ],
      "name": "uri",
      "outputs": [
        {
          "internalType": "string",
          "name": "",
          "type": "string"
        }
      ],
      "stateMutability": "view",
      "type": "function"
    }
  ],
  "bytecode": "0x6080604052612710600f556001601060086101000a81548160ff0219169083151502179055506008546011556011546012556040518060200160405280600081525060189080519060200190620000589291906200037c565b503480156200006657600080fd5b50604051620055353803806200553583398181016040528101906200008c9190620005a0565b60405180602001604052806000815250620000ad81620001c660201b60201c565b50620000ce620000c2620001e260201b60201c565b620001ea60201b60201c565b620001196040518060400160405280601281526020017f4d616b696e6720636f6e74726163742e2e2e0000000000000000000000000000815250620002b060201b6200177a1760201c565b836000015160088190555083602001516009819055508360400151600a819055508360600151600b819055508360800151600c819055508360a00151600d819055508360c00151600e8190555082600590805190602001906200017e9291906200037c565b508160069080519060200190620001979291906200037c565b508060079080519060200190620001b09291906200037c565b508360e00151600f8190555050505050620008a1565b8060029080519060200190620001de9291906200037c565b5050565b600033905090565b6000600360009054906101000a900473ffffffffffffffffffffffffffffffffffffffff16905081600360006101000a81548173ffffffffffffffffffffffffffffffffffffffff021916908373ffffffffffffffffffffffffffffffffffffffff1602179055508173ffffffffffffffffffffffffffffffffffffffff168173ffffffffffffffffffffffffffffffffffffffff167f8be0079c531659141344cd1fd0a4f28419497f9722a3daafe3b4186f6b6457e060405160405180910390a35050565b6200035081604051602401620002c79190620006b4565b6040516020818303038152906040527f41304fac000000000000000000000000000000000000000000000000000000007bffffffffffffffffffffffffffffffffffffffffffffffffffffffff19166020820180517bffffffffffffffffffffffffffffffffffffffffffffffffffffffff83818316178352505050506200035360201b60201c565b50565b60008151905060006a636f6e736f6c652e6c6f679050602083016000808483855afa5050505050565b8280546200038a9062000793565b90600052602060002090601f016020900481019282620003ae5760008555620003fa565b82601f10620003c957805160ff1916838001178555620003fa565b82800160010185558215620003fa579182015b82811115620003f9578251825591602001919060010190620003dc565b5b5090506200040991906200040d565b5090565b5b80821115620004285760008160009055506001016200040e565b5090565b6000620004436200043d8462000701565b620006d8565b90508281526020810184848401111562000462576200046162000867565b5b6200046f8482856200075d565b509392505050565b600082601f8301126200048f576200048e6200085d565b5b8151620004a18482602086016200042c565b91505092915050565b60006101008284031215620004c457620004c362000862565b5b620004d1610100620006d8565b90506000620004e38482850162000589565b6000830152506020620004f98482850162000589565b60208301525060406200050f8482850162000589565b6040830152506060620005258482850162000589565b60608301525060806200053b8482850162000589565b60808301525060a0620005518482850162000589565b60a08301525060c0620005678482850162000589565b60c08301525060e06200057d8482850162000589565b60e08301525092915050565b6000815190506200059a8162000887565b92915050565b6000806000806101608587031215620005be57620005bd62000871565b5b6000620005ce87828801620004aa565b94505061010085015167ffffffffffffffff811115620005f357620005f26200086c565b5b620006018782880162000477565b93505061012085015167ffffffffffffffff8111156200062657620006256200086c565b5b620006348782880162000477565b92505061014085015167ffffffffffffffff8111156200065957620006586200086c565b5b620006678782880162000477565b91505092959194509250565b6000620006808262000737565b6200068c818562000742565b93506200069e8185602086016200075d565b620006a98162000876565b840191505092915050565b60006020820190508181036000830152620006d0818462000673565b905092915050565b6000620006e4620006f7565b9050620006f28282620007c9565b919050565b6000604051905090565b600067ffffffffffffffff8211156200071f576200071e6200082e565b5b6200072a8262000876565b9050602081019050919050565b600081519050919050565b600082825260208201905092915050565b6000819050919050565b60005b838110156200077d57808201518184015260208101905062000760565b838111156200078d576000848401525b50505050565b60006002820490506001821680620007ac57607f821691505b60208210811415620007c357620007c2620007ff565b5b50919050565b620007d48262000876565b810181811067ffffffffffffffff82111715620007f657620007f56200082e565b5b80604052505050565b7f4e487b7100000000000000000000000000000000000000000000000000000000600052602260045260246000fd5b7f4e487b7100000000000000000000000000000000000000000000000000000000600052604160045260246000fd5b600080fd5b600080fd5b600080fd5b600080fd5b600080fd5b6000601f19601f8301169050919050565b620008928162000753565b81146200089e57600080fd5b50565b614c8480620008b16000396000f3fe608060405234801561001057600080fd5b506004361061018d5760003560e01c80635d2db2bf116100de578063a22cb46511610097578063e985e9c511610071578063e985e9c5146103c6578063e9866550146103f6578063f242432a14610400578063f2fde38b1461041c5761018d565b8063a22cb46514610382578063bbb13e171461039e578063be59ec26146103a85761018d565b80635d2db2bf14610332578063715018a61461033c57806375223f92146103465780637d17fcbe146103505780638da5cb5b1461035a5780639ebf488b146103785761018d565b8063166d5d301161014b5780632eb2c2d6116101255780632eb2c2d6146102c05780634e1273f4146102dc5780634f3551d71461030c57806357f7789e146103165761018d565b8063166d5d301461027a57806318e20a381461029857806319b60439146102b65761018d565b8062fdd58e1461019257806301ffc9a7146101c25780630e89341c146101f2578063109695231461022257806313dc2db21461023e578063143cc1441461025c575b600080fd5b6101ac60048036038101906101a7919061311a565b610438565b6040516101b99190613e6c565b60405180910390f35b6101dc60048036038101906101d791906131d2565b610501565b6040516101e99190613b1f565b60405180910390f35b61020c60048036038101906102079190613275565b6105e3565b6040516102199190613b3a565b60405180910390f35b61023c6004803603810190610237919061322c565b610688565b005b61024661071e565b6040516102539190613aab565b60405180910390f35b6102646107fe565b6040516102719190613e6c565b60405180910390f35b610282610884565b60405161028f9190613a90565b60405180910390f35b6102a06109ea565b6040516102ad9190613e6c565b60405180910390f35b6102be6109f0565b005b6102da60048036038101906102d59190612f74565b610a98565b005b6102f660048036038101906102f1919061315a565b610b39565b6040516103039190613ac6565b60405180910390f35b610314610c52565b005b610330600480360381019061032b91906132a2565b610d5b565b005b61033a610e65565b005b610344610fc8565b005b61034e611050565b005b610358611150565b005b61036261121a565b60405161036f919061398a565b60405180910390f35b610380611244565b005b61039c600480360381019061039791906130da565b61134d565b005b6103a6611363565b005b6103b0611463565b6040516103bd9190613b1f565b60405180910390f35b6103e060048036038101906103db9190612f34565b611476565b6040516103ed9190613b1f565b60405180910390f35b6103fe61150a565b005b61041a60048036038101906104159190613043565b6115e1565b005b61043660048036038101906104319190612f07565b611682565b005b60008073ffffffffffffffffffffffffffffffffffffffff168373ffffffffffffffffffffffffffffffffffffffff1614156104a9576040517f08c379a00000000000000000000000000000000000000000000000000000000081526004016104a090613bec565b60405180910390fd5b60008083815260200190815260200160002060008473ffffffffffffffffffffffffffffffffffffffff1673ffffffffffffffffffffffffffffffffffffffff16815260200190815260200160002054905092915050565b60007fd9b67a26000000000000000000000000000000000000000000000000000000007bffffffffffffffffffffffffffffffffffffffffffffffffffffffff1916827bffffffffffffffffffffffffffffffffffffffffffffffffffffffff191614806105cc57507f0e89341c000000000000000000000000000000000000000000000000000000007bffffffffffffffffffffffffffffffffffffffffffffffffffffffff1916827bffffffffffffffffffffffffffffffffffffffffffffffffffffffff1916145b806105dc57506105db82611813565b5b9050919050565b606060216000838152602001908152602001600020805461060390614252565b80601f016020809104026020016040519081016040528092919081815260200182805461062f90614252565b801561067c5780601f106106515761010080835404028352916020019161067c565b820191906000526020600020905b81548152906001019060200180831161065f57829003601f168201915b50505050509050919050565b61069061187d565b73ffffffffffffffffffffffffffffffffffffffff166106ae61121a565b73ffffffffffffffffffffffffffffffffffffffff1614610704576040517f08c379a00000000000000000000000000000000000000000000000000000000081526004016106fb90613d4c565b60405180910390fd5b806018908051906020019061071a929190612b9b565b5050565b610726612c21565b61072e612c21565b60005b60058110156107f6576000600a826107499190614101565b905060006009600a8461075c9190614101565b610766919061407a565b90508160018383610777919061415b565b610781919061407a565b42334487604051602001610798949392919061393c565b6040516020818303038152906040528051906020012060001c6107bb9190614356565b6107c5919061407a565b8484600581106107d8576107d7614414565b5b602002018181525050505080806107ee906142b5565b915050610731565b508091505090565b600061080861187d565b73ffffffffffffffffffffffffffffffffffffffff1661082661121a565b73ffffffffffffffffffffffffffffffffffffffff161461087c576040517f08c379a000000000000000000000000000000000000000000000000000000000815260040161087390613d4c565b60405180910390fd5b600954905090565b61088c612c43565b610894612c43565b60006005436108a39190614356565b905060005b60038110156109e1576005826108be9190614356565b91506000600a836108cf9190614101565b905060006009600a856108e29190614101565b6108ec919061407a565b905081600183836108fd919061415b565b610907919061407a565b4233448760405160200161091e949392919061393c565b6040516020818303038152906040528051906020012060001c6109419190614356565b61094b919061407a565b85846003811061095e5761095d614414565b5b602002018181525050600184610974919061407a565b93506109cc6040518060400160405280601181526020017f426f6f7374657220696e646578206973200000000000000000000000000000008152508685600381106109c2576109c1614414565b5b6020020151611885565b505080806109d9906142b5565b9150506108a8565b50819250505090565b600f5481565b6109f861187d565b73ffffffffffffffffffffffffffffffffffffffff16610a1661121a565b73ffffffffffffffffffffffffffffffffffffffff1614610a6c576040517f08c379a0000000000000000000000000000000000000000000000000000000008152600401610a6390613d4c565b60405180910390fd5b601060089054906101000a900460ff1615601060086101000a81548160ff021916908315150217905550565b610aa061187d565b73ffffffffffffffffffffffffffffffffffffffff168573ffffffffffffffffffffffffffffffffffffffff161480610ae65750610ae585610ae061187d565b611476565b5b610b25576040517f08c379a0000000000000000000000000000000000000000000000000000000008152600401610b1c90613ccc565b60405180910390fd5b610b328585858585611921565b5050505050565b60608151835114610b7f576040517f08c379a0000000000000000000000000000000000000000000000000000000008152600401610b7690613e0c565b60405180910390fd5b6000835167ffffffffffffffff811115610b9c57610b9b614443565b5b604051908082528060200260200182016040528015610bca5781602001602082028036833780820191505090505b50905060005b8451811015610c4757610c17858281518110610bef57610bee614414565b5b6020026020010151858381518110610c0a57610c09614414565b5b6020026020010151610438565b828281518110610c2a57610c29614414565b5b60200260200101818152505080610c40906142b5565b9050610bd0565b508091505092915050565b600e5460145410610c98576040517f08c379a0000000000000000000000000000000000000000000000000000000008152600401610c8f90613d8c565b60405180910390fd5b6001610ca633601154610438565b10610ce6576040517f08c379a0000000000000000000000000000000000000000000000000000000008152600401610cdd90613dcc565b60405180910390fd5b610d0433601254600160405180602001604052806000815250611c35565b600160146000828254610d17919061407a565b925050819055507f2e0f4d63dcc00e6a11c8aef9f6e15c1f9cd6e9a090b2dd99c7b797f1a28d300d33601454604051610d51929190613a67565b60405180910390a1565b610d6361187d565b73ffffffffffffffffffffffffffffffffffffffff16610d8161121a565b73ffffffffffffffffffffffffffffffffffffffff1614610dd7576040517f08c379a0000000000000000000000000000000000000000000000000000000008152600401610dce90613d4c565b60405180910390fd5b6000602160008481526020019081526020016000208054610df790614252565b905014610e39576040517f08c379a0000000000000000000000000000000000000000000000000000000008152600401610e3090613cec565b60405180910390fd5b80602160008481526020019081526020016000209080519060200190610e60929190612b9b565b505050565b610e6d61187d565b73ffffffffffffffffffffffffffffffffffffffff16610e8b61121a565b73ffffffffffffffffffffffffffffffffffffffff1614610ee1576040517f08c379a0000000000000000000000000000000000000000000000000000000008152600401610ed890613d4c565b60405180910390fd5b60005b600854811015610f5557600060085482601754610f01919061407a565b610f0b9190614356565b9050610f41816005610f1c84611dcb565b604051602001610f2d92919061390d565b604051602081830303815290604052610d5b565b508080610f4d906142b5565b915050610ee4565b50610f8e6001600854610f68919061407a565b6006604051602001610f7a91906138f6565b604051602081830303815290604052610d5b565b610fc66002600854610fa0919061407a565b6007604051602001610fb291906138f6565b604051602081830303815290604052610d5b565b565b610fd061187d565b73ffffffffffffffffffffffffffffffffffffffff16610fee61121a565b73ffffffffffffffffffffffffffffffffffffffff1614611044576040517f08c379a000000000000000000000000000000000000000000000000000000000815260040161103b90613d4c565b60405180910390fd5b61104e6000611f2c565b565b601060089054906101000a900460ff1661109f576040517f08c379a000000000000000000000000000000000000000000000000000000000815260040161109690613dac565b60405180910390fd5b60006110ad33601254610438565b116110ed576040517f08c379a00000000000000000000000000000000000000000000000000000000081526004016110e490613bcc565b60405180910390fd5b60006110f7610884565b905060005b60038160ff16101561113e5761112b828260ff166003811061112157611120614414565b5b6020020151611ff2565b8080611136906142fe565b9150506110fc565b5061114d3360125460016120ed565b50565b61115861187d565b73ffffffffffffffffffffffffffffffffffffffff1661117661121a565b73ffffffffffffffffffffffffffffffffffffffff16146111cc576040517f08c379a00000000000000000000000000000000000000000000000000000000081526004016111c390613d4c565b60405180910390fd5b600060175414611211576040517f08c379a000000000000000000000000000000000000000000000000000000000815260040161120890613c8c565b60405180910390fd5b43601681905550565b6000600360009054906101000a900473ffffffffffffffffffffffffffffffffffffffff16905090565b600e546013541061128a576040517f08c379a000000000000000000000000000000000000000000000000000000000815260040161128190613d8c565b60405180910390fd5b600161129833601154610438565b106112d8576040517f08c379a00000000000000000000000000000000000000000000000000000000081526004016112cf90613dcc565b60405180910390fd5b6112f633601154600160405180602001604052806000815250611c35565b600160136000828254611309919061407a565b925050819055507f2e0f4d63dcc00e6a11c8aef9f6e15c1f9cd6e9a090b2dd99c7b797f1a28d300d33601354604051611343929190613a67565b60405180910390a1565b61135f61135861187d565b838361230a565b5050565b601060089054906101000a900460ff166113b2576040517f08c379a00000000000000000000000000000000000000000000000000000000081526004016113a990613dac565b60405180910390fd5b60016113c033601154610438565b14611400576040517f08c379a00000000000000000000000000000000000000000000000000000000081526004016113f790613d6c565b60405180910390fd5b600061140a61071e565b905060005b60058160ff1610156114515761143e828260ff166005811061143457611433614414565b5b6020020151611ff2565b8080611449906142fe565b91505061140f565b506114603360115460016120ed565b50565b601060089054906101000a900460ff1681565b6000600160008473ffffffffffffffffffffffffffffffffffffffff1673ffffffffffffffffffffffffffffffffffffffff16815260200190815260200160002060008373ffffffffffffffffffffffffffffffffffffffff1673ffffffffffffffffffffffffffffffffffffffff16815260200190815260200160002060009054906101000a900460ff16905092915050565b61151261187d565b73ffffffffffffffffffffffffffffffffffffffff1661153061121a565b73ffffffffffffffffffffffffffffffffffffffff1614611586576040517f08c379a000000000000000000000000000000000000000000000000000000000815260040161157d90613d4c565b60405180910390fd5b6009546008546115969190614101565b6001436115a3919061415b565b4060001c6115b19190614356565b601781905550600060175414156115df576115d8600160175461247790919063ffffffff16565b6017819055505b565b6115e961187d565b73ffffffffffffffffffffffffffffffffffffffff168573ffffffffffffffffffffffffffffffffffffffff16148061162f575061162e8561162961187d565b611476565b5b61166e576040517f08c379a000000000000000000000000000000000000000000000000000000000815260040161166590613c4c565b60405180910390fd5b61167b858585858561248d565b5050505050565b61168a61187d565b73ffffffffffffffffffffffffffffffffffffffff166116a861121a565b73ffffffffffffffffffffffffffffffffffffffff16146116fe576040517f08c379a00000000000000000000000000000000000000000000000000000000081526004016116f590613d4c565b60405180910390fd5b600073ffffffffffffffffffffffffffffffffffffffff168173ffffffffffffffffffffffffffffffffffffffff16141561176e576040517f08c379a000000000000000000000000000000000000000000000000000000000815260040161176590613c0c565b60405180910390fd5b61177781611f2c565b50565b6118108160405160240161178e9190613b3a565b6040516020818303038152906040527f41304fac000000000000000000000000000000000000000000000000000000007bffffffffffffffffffffffffffffffffffffffffffffffffffffffff19166020820180517bffffffffffffffffffffffffffffffffffffffffffffffffffffffff838183161783525050505061270f565b50565b60007f01ffc9a7000000000000000000000000000000000000000000000000000000007bffffffffffffffffffffffffffffffffffffffffffffffffffffffff1916827bffffffffffffffffffffffffffffffffffffffffffffffffffffffff1916149050919050565b600033905090565b61191d828260405160240161189b929190613b5c565b6040516020818303038152906040527f9710a9d0000000000000000000000000000000000000000000000000000000007bffffffffffffffffffffffffffffffffffffffffffffffffffffffff19166020820180517bffffffffffffffffffffffffffffffffffffffffffffffffffffffff838183161783525050505061270f565b5050565b8151835114611965576040517f08c379a000000000000000000000000000000000000000000000000000000000815260040161195c90613e2c565b60405180910390fd5b600073ffffffffffffffffffffffffffffffffffffffff168473ffffffffffffffffffffffffffffffffffffffff1614156119d5576040517f08c379a00000000000000000000000000000000000000000000000000000000081526004016119cc90613cac565b60405180910390fd5b60006119df61187d565b90506119ef818787878787612738565b60005b8451811015611ba0576000858281518110611a1057611a0f614414565b5b602002602001015190506000858381518110611a2f57611a2e614414565b5b60200260200101519050600080600084815260200190815260200160002060008b73ffffffffffffffffffffffffffffffffffffffff1673ffffffffffffffffffffffffffffffffffffffff16815260200190815260200160002054905081811015611ad0576040517f08c379a0000000000000000000000000000000000000000000000000000000008152600401611ac790613d2c565b60405180910390fd5b81810360008085815260200190815260200160002060008c73ffffffffffffffffffffffffffffffffffffffff1673ffffffffffffffffffffffffffffffffffffffff168152602001908152602001600020819055508160008085815260200190815260200160002060008b73ffffffffffffffffffffffffffffffffffffffff1673ffffffffffffffffffffffffffffffffffffffff1681526020019081526020016000206000828254611b85919061407a565b9250508190555050505080611b99906142b5565b90506119f2565b508473ffffffffffffffffffffffffffffffffffffffff168673ffffffffffffffffffffffffffffffffffffffff168273ffffffffffffffffffffffffffffffffffffffff167f4a39dc06d4c0dbc64b70af90fd698a233a518aa5d07e595d983b8c0526c8f7fb8787604051611c17929190613ae8565b60405180910390a4611c2d818787878787612740565b505050505050565b600073ffffffffffffffffffffffffffffffffffffffff168473ffffffffffffffffffffffffffffffffffffffff161415611ca5576040517f08c379a0000000000000000000000000000000000000000000000000000000008152600401611c9c90613e4c565b60405180910390fd5b6000611caf61187d565b9050611cd081600087611cc188612927565b611cca88612927565b87612738565b8260008086815260200190815260200160002060008773ffffffffffffffffffffffffffffffffffffffff1673ffffffffffffffffffffffffffffffffffffffff1681526020019081526020016000206000828254611d2f919061407a565b925050819055508473ffffffffffffffffffffffffffffffffffffffff16600073ffffffffffffffffffffffffffffffffffffffff168273ffffffffffffffffffffffffffffffffffffffff167fc3d58168c5ae7397731d063d5bbf3d657854427343f4c083240f7aacaa2d0f628787604051611dad929190613e87565b60405180910390a4611dc4816000878787876129a1565b5050505050565b60606000821415611e13576040518060400160405280600181526020017f30000000000000000000000000000000000000000000000000000000000000008152509050611f27565b600082905060005b60008214611e45578080611e2e906142b5565b915050600a82611e3e91906140d0565b9150611e1b565b60008167ffffffffffffffff811115611e6157611e60614443565b5b6040519080825280601f01601f191660200182016040528015611e935781602001600182028036833780820191505090505b5090505b60008514611f2057600182611eac919061415b565b9150600a85611ebb9190614356565b6030611ec7919061407a565b60f81b818381518110611edd57611edc614414565b5b60200101907effffffffffffffffffffffffffffffffffffffffffffffffffffffffffffff1916908160001a905350600a85611f1991906140d0565b9450611e97565b8093505050505b919050565b6000600360009054906101000a900473ffffffffffffffffffffffffffffffffffffffff16905081600360006101000a81548173ffffffffffffffffffffffffffffffffffffffff021916908373ffffffffffffffffffffffffffffffffffffffff1602179055508173ffffffffffffffffffffffffffffffffffffffff168173ffffffffffffffffffffffffffffffffffffffff167f8be0079c531659141344cd1fd0a4f28419497f9722a3daafe3b4186f6b6457e060405160405180910390a35050565b6009546008546120029190614101565b60155410156120ea57600954602260008381526020019081526020016000205410612062576040517f08c379a000000000000000000000000000000000000000000000000000000000815260040161205990613c6c565b60405180910390fd5b6120a4338260016040518060400160405280600481526020017f3078303000000000000000000000000000000000000000000000000000000000815250611c35565b60016022600083815260200190815260200160002060008282546120c8919061407a565b925050819055506001601560008282546120e2919061407a565b925050819055505b50565b600073ffffffffffffffffffffffffffffffffffffffff168373ffffffffffffffffffffffffffffffffffffffff16141561215d576040517f08c379a000000000000000000000000000000000000000000000000000000000815260040161215490613d0c565b60405180910390fd5b600061216761187d565b90506121978185600061217987612927565b61218287612927565b60405180602001604052806000815250612738565b600080600085815260200190815260200160002060008673ffffffffffffffffffffffffffffffffffffffff1673ffffffffffffffffffffffffffffffffffffffff1681526020019081526020016000205490508281101561222e576040517f08c379a000000000000000000000000000000000000000000000000000000000815260040161222590613c2c565b60405180910390fd5b82810360008086815260200190815260200160002060008773ffffffffffffffffffffffffffffffffffffffff1673ffffffffffffffffffffffffffffffffffffffff16815260200190815260200160002081905550600073ffffffffffffffffffffffffffffffffffffffff168573ffffffffffffffffffffffffffffffffffffffff168373ffffffffffffffffffffffffffffffffffffffff167fc3d58168c5ae7397731d063d5bbf3d657854427343f4c083240f7aacaa2d0f6287876040516122fb929190613e87565b60405180910390a45050505050565b8173ffffffffffffffffffffffffffffffffffffffff168373ffffffffffffffffffffffffffffffffffffffff161415612379576040517f08c379a000000000000000000000000000000000000000000000000000000000815260040161237090613dec565b60405180910390fd5b80600160008573ffffffffffffffffffffffffffffffffffffffff1673ffffffffffffffffffffffffffffffffffffffff16815260200190815260200160002060008473ffffffffffffffffffffffffffffffffffffffff1673ffffffffffffffffffffffffffffffffffffffff16815260200190815260200160002060006101000a81548160ff0219169083151502179055508173ffffffffffffffffffffffffffffffffffffffff168373ffffffffffffffffffffffffffffffffffffffff167f17307eab39ab6107e8899845ad3d59bd9653f200f220920489ca2b5937696c318360405161246a9190613b1f565b60405180910390a3505050565b60008183612485919061407a565b905092915050565b600073ffffffffffffffffffffffffffffffffffffffff168473ffffffffffffffffffffffffffffffffffffffff1614156124fd576040517f08c379a00000000000000000000000000000000000000000000000000000000081526004016124f490613cac565b60405180910390fd5b600061250761187d565b905061252781878761251888612927565b61252188612927565b87612738565b600080600086815260200190815260200160002060008873ffffffffffffffffffffffffffffffffffffffff1673ffffffffffffffffffffffffffffffffffffffff168152602001908152602001600020549050838110156125be576040517f08c379a00000000000000000000000000000000000000000000000000000000081526004016125b590613d2c565b60405180910390fd5b83810360008087815260200190815260200160002060008973ffffffffffffffffffffffffffffffffffffffff1673ffffffffffffffffffffffffffffffffffffffff168152602001908152602001600020819055508360008087815260200190815260200160002060008873ffffffffffffffffffffffffffffffffffffffff1673ffffffffffffffffffffffffffffffffffffffff1681526020019081526020016000206000828254612673919061407a565b925050819055508573ffffffffffffffffffffffffffffffffffffffff168773ffffffffffffffffffffffffffffffffffffffff168373ffffffffffffffffffffffffffffffffffffffff167fc3d58168c5ae7397731d063d5bbf3d657854427343f4c083240f7aacaa2d0f6288886040516126f0929190613e87565b60405180910390a46127068288888888886129a1565b50505050505050565b60008151905060006a636f6e736f6c652e6c6f679050602083016000808483855afa5050505050565b505050505050565b61275f8473ffffffffffffffffffffffffffffffffffffffff16612b88565b1561291f578373ffffffffffffffffffffffffffffffffffffffff1663bc197c8187878686866040518663ffffffff1660e01b81526004016127a59594939291906139a5565b602060405180830381600087803b1580156127bf57600080fd5b505af19250505080156127f057506040513d601f19601f820116820180604052508101906127ed91906131ff565b60015b612896576127fc614472565b806308c379a014156128595750612811614b5c565b8061281c575061285b565b806040517f08c379a00000000000000000000000000000000000000000000000000000000081526004016128509190613b3a565b60405180910390fd5b505b6040517f08c379a000000000000000000000000000000000000000000000000000000000815260040161288d90613b8c565b60405180910390fd5b63bc197c8160e01b7bffffffffffffffffffffffffffffffffffffffffffffffffffffffff1916817bffffffffffffffffffffffffffffffffffffffffffffffffffffffff19161461291d576040517f08c379a000000000000000000000000000000000000000000000000000000000815260040161291490613bac565b60405180910390fd5b505b505050505050565b60606000600167ffffffffffffffff81111561294657612945614443565b5b6040519080825280602002602001820160405280156129745781602001602082028036833780820191505090505b509050828160008151811061298c5761298b614414565b5b60200260200101818152505080915050919050565b6129c08473ffffffffffffffffffffffffffffffffffffffff16612b88565b15612b80578373ffffffffffffffffffffffffffffffffffffffff1663f23a6e6187878686866040518663ffffffff1660e01b8152600401612a06959493929190613a0d565b602060405180830381600087803b158015612a2057600080fd5b505af1925050508015612a5157506040513d601f19601f82011682018060405250810190612a4e91906131ff565b60015b612af757612a5d614472565b806308c379a01415612aba5750612a72614b5c565b80612a7d5750612abc565b806040517f08c379a0000000000000000000000000000000000000000000000000000000008152600401612ab19190613b3a565b60405180910390fd5b505b6040517f08c379a0000000000000000000000000000000000000000000000000000000008152600401612aee90613b8c565b60405180910390fd5b63f23a6e6160e01b7bffffffffffffffffffffffffffffffffffffffffffffffffffffffff1916817bffffffffffffffffffffffffffffffffffffffffffffffffffffffff191614612b7e576040517f08c379a0000000000000000000000000000000000000000000000000000000008152600401612b7590613bac565b60405180910390fd5b505b505050505050565b600080823b905060008111915050919050565b828054612ba790614252565b90600052602060002090601f016020900481019282612bc95760008555612c10565b82601f10612be257805160ff1916838001178555612c10565b82800160010185558215612c10579182015b82811115612c0f578251825591602001919060010190612bf4565b5b509050612c1d9190612c65565b5090565b6040518060a00160405280600590602082028036833780820191505090505090565b6040518060600160405280600390602082028036833780820191505090505090565b5b80821115612c7e576000816000905550600101612c66565b5090565b6000612c95612c9084613ed5565b613eb0565b90508083825260208201905082856020860282011115612cb857612cb7614499565b5b60005b85811015612ce85781612cce8882612de6565b845260208401935060208301925050600181019050612cbb565b5050509392505050565b6000612d05612d0084613f01565b613eb0565b90508083825260208201905082856020860282011115612d2857612d27614499565b5b60005b85811015612d585781612d3e8882612ef2565b845260208401935060208301925050600181019050612d2b565b5050509392505050565b6000612d75612d7084613f2d565b613eb0565b905082815260208101848484011115612d9157612d9061449e565b5b612d9c848285614210565b509392505050565b6000612db7612db284613f5e565b613eb0565b905082815260208101848484011115612dd357612dd261449e565b5b612dde848285614210565b509392505050565b600081359050612df581614bf2565b92915050565b600082601f830112612e1057612e0f614494565b5b8135612e20848260208601612c82565b91505092915050565b600082601f830112612e3e57612e3d614494565b5b8135612e4e848260208601612cf2565b91505092915050565b600081359050612e6681614c09565b92915050565b600081359050612e7b81614c20565b92915050565b600081519050612e9081614c20565b92915050565b600082601f830112612eab57612eaa614494565b5b8135612ebb848260208601612d62565b91505092915050565b600082601f830112612ed957612ed8614494565b5b8135612ee9848260208601612da4565b91505092915050565b600081359050612f0181614c37565b92915050565b600060208284031215612f1d57612f1c6144a8565b5b6000612f2b84828501612de6565b91505092915050565b60008060408385031215612f4b57612f4a6144a8565b5b6000612f5985828601612de6565b9250506020612f6a85828601612de6565b9150509250929050565b600080600080600060a08688031215612f9057612f8f6144a8565b5b6000612f9e88828901612de6565b9550506020612faf88828901612de6565b945050604086013567ffffffffffffffff811115612fd057612fcf6144a3565b5b612fdc88828901612e29565b935050606086013567ffffffffffffffff811115612ffd57612ffc6144a3565b5b61300988828901612e29565b925050608086013567ffffffffffffffff81111561302a576130296144a3565b5b61303688828901612e96565b9150509295509295909350565b600080600080600060a0868803121561305f5761305e6144a8565b5b600061306d88828901612de6565b955050602061307e88828901612de6565b945050604061308f88828901612ef2565b93505060606130a088828901612ef2565b925050608086013567ffffffffffffffff8111156130c1576130c06144a3565b5b6130cd88828901612e96565b9150509295509295909350565b600080604083850312156130f1576130f06144a8565b5b60006130ff85828601612de6565b925050602061311085828601612e57565b9150509250929050565b60008060408385031215613131576131306144a8565b5b600061313f85828601612de6565b925050602061315085828601612ef2565b9150509250929050565b60008060408385031215613171576131706144a8565b5b600083013567ffffffffffffffff81111561318f5761318e6144a3565b5b61319b85828601612dfb565b925050602083013567ffffffffffffffff8111156131bc576131bb6144a3565b5b6131c885828601612e29565b9150509250929050565b6000602082840312156131e8576131e76144a8565b5b60006131f684828501612e6c565b91505092915050565b600060208284031215613215576132146144a8565b5b600061322384828501612e81565b91505092915050565b600060208284031215613242576132416144a8565b5b600082013567ffffffffffffffff8111156132605761325f6144a3565b5b61326c84828501612ec4565b91505092915050565b60006020828403121561328b5761328a6144a8565b5b600061329984828501612ef2565b91505092915050565b600080604083850312156132b9576132b86144a8565b5b60006132c785828601612ef2565b925050602083013567ffffffffffffffff8111156132e8576132e76144a3565b5b6132f485828601612ec4565b9150509250929050565b600061330a83836138c1565b60208301905092915050565b61331f8161418f565b82525050565b6133366133318261418f565b614328565b82525050565b61334581613fc8565b61334f8184614026565b925061335a82613f8f565b8060005b8381101561338b57815161337287826132fe565b965061337d83613fff565b92505060018101905061335e565b505050505050565b61339c81613fd3565b6133a68184614031565b92506133b182613f99565b8060005b838110156133e25781516133c987826132fe565b96506133d48361400c565b9250506001810190506133b5565b505050505050565b60006133f582613fde565b6133ff818561403c565b935061340a83613fa3565b8060005b8381101561343b57815161342288826132fe565b975061342d83614019565b92505060018101905061340e565b5085935050505092915050565b613451816141a1565b82525050565b600061346282613fe9565b61346c818561404d565b935061347c81856020860161421f565b613485816144ad565b840191505092915050565b600061349b82613ff4565b6134a5818561405e565b93506134b581856020860161421f565b6134be816144ad565b840191505092915050565b60006134d482613ff4565b6134de818561406f565b93506134ee81856020860161421f565b80840191505092915050565b6000815461350781614252565b613511818661406f565b9450600182166000811461352c576001811461353d57613570565b60ff19831686528186019350613570565b61354685613fb3565b60005b8381101561356857815481890152600182019150602081019050613549565b838801955050505b50505092915050565b600061358660348361405e565b9150613591826144d8565b604082019050919050565b60006135a960288361405e565b91506135b482614527565b604082019050919050565b60006135cc601b8361405e565b91506135d782614576565b602082019050919050565b60006135ef602b8361405e565b91506135fa8261459f565b604082019050919050565b600061361260268361405e565b915061361d826145ee565b604082019050919050565b600061363560248361405e565b91506136408261463d565b604082019050919050565b600061365860298361405e565b91506136638261468c565b604082019050919050565b600061367b602d8361405e565b9150613686826146db565b604082019050919050565b600061369e601d8361405e565b91506136a98261472a565b602082019050919050565b60006136c160258361405e565b91506136cc82614753565b604082019050919050565b60006136e460328361405e565b91506136ef826147a2565b604082019050919050565b600061370760148361405e565b9150613712826147f1565b602082019050919050565b600061372a60238361405e565b91506137358261481a565b604082019050919050565b600061374d602a8361405e565b915061375882614869565b604082019050919050565b600061377060058361406f565b915061377b826148b8565b600582019050919050565b600061379360208361405e565b915061379e826148e1565b602082019050919050565b60006137b6602f8361405e565b91506137c18261490a565b604082019050919050565b60006137d960238361405e565b91506137e482614959565b604082019050919050565b60006137fc601f8361405e565b9150613807826149a8565b602082019050919050565b600061381f602a8361405e565b915061382a826149d1565b604082019050919050565b600061384260298361405e565b915061384d82614a20565b604082019050919050565b600061386560298361405e565b915061387082614a6f565b604082019050919050565b600061388860288361405e565b915061389382614abe565b604082019050919050565b60006138ab60218361405e565b91506138b682614b0d565b604082019050919050565b6138ca816141f9565b82525050565b6138d9816141f9565b82525050565b6138f06138eb826141f9565b61434c565b82525050565b600061390282846134fa565b915081905092915050565b600061391982856134fa565b915061392582846134c9565b915061393082613763565b91508190509392505050565b600061394882876138df565b6020820191506139588286613325565b60148201915061396882856138df565b60208201915061397882846138df565b60208201915081905095945050505050565b600060208201905061399f6000830184613316565b92915050565b600060a0820190506139ba6000830188613316565b6139c76020830187613316565b81810360408301526139d981866133ea565b905081810360608301526139ed81856133ea565b90508181036080830152613a018184613457565b90509695505050505050565b600060a082019050613a226000830188613316565b613a2f6020830187613316565b613a3c60408301866138d0565b613a4960608301856138d0565b8181036080830152613a5b8184613457565b90509695505050505050565b6000604082019050613a7c6000830185613316565b613a8960208301846138d0565b9392505050565b6000606082019050613aa5600083018461333c565b92915050565b600060a082019050613ac06000830184613393565b92915050565b60006020820190508181036000830152613ae081846133ea565b905092915050565b60006040820190508181036000830152613b0281856133ea565b90508181036020830152613b1681846133ea565b90509392505050565b6000602082019050613b346000830184613448565b92915050565b60006020820190508181036000830152613b548184613490565b905092915050565b60006040820190508181036000830152613b768185613490565b9050613b8560208301846138d0565b9392505050565b60006020820190508181036000830152613ba581613579565b9050919050565b60006020820190508181036000830152613bc58161359c565b9050919050565b60006020820190508181036000830152613be5816135bf565b9050919050565b60006020820190508181036000830152613c05816135e2565b9050919050565b60006020820190508181036000830152613c2581613605565b9050919050565b60006020820190508181036000830152613c4581613628565b9050919050565b60006020820190508181036000830152613c658161364b565b9050919050565b60006020820190508181036000830152613c858161366e565b9050919050565b60006020820190508181036000830152613ca581613691565b9050919050565b60006020820190508181036000830152613cc5816136b4565b9050919050565b60006020820190508181036000830152613ce5816136d7565b9050919050565b60006020820190508181036000830152613d05816136fa565b9050919050565b60006020820190508181036000830152613d258161371d565b9050919050565b60006020820190508181036000830152613d4581613740565b9050919050565b60006020820190508181036000830152613d6581613786565b9050919050565b60006020820190508181036000830152613d85816137a9565b9050919050565b60006020820190508181036000830152613da5816137cc565b9050919050565b60006020820190508181036000830152613dc5816137ef565b9050919050565b60006020820190508181036000830152613de581613812565b9050919050565b60006020820190508181036000830152613e0581613835565b9050919050565b60006020820190508181036000830152613e2581613858565b9050919050565b60006020820190508181036000830152613e458161387b565b9050919050565b60006020820190508181036000830152613e658161389e565b9050919050565b6000602082019050613e8160008301846138d0565b92915050565b6000604082019050613e9c60008301856138d0565b613ea960208301846138d0565b9392505050565b6000613eba613ecb565b9050613ec68282614284565b919050565b6000604051905090565b600067ffffffffffffffff821115613ef057613eef614443565b5b602082029050602081019050919050565b600067ffffffffffffffff821115613f1c57613f1b614443565b5b602082029050602081019050919050565b600067ffffffffffffffff821115613f4857613f47614443565b5b613f51826144ad565b9050602081019050919050565b600067ffffffffffffffff821115613f7957613f78614443565b5b613f82826144ad565b9050602081019050919050565b6000819050919050565b6000819050919050565b6000819050602082019050919050565b60008190508160005260206000209050919050565b600060039050919050565b600060059050919050565b600081519050919050565b600081519050919050565b600081519050919050565b6000602082019050919050565b6000602082019050919050565b6000602082019050919050565b600081905092915050565b600081905092915050565b600082825260208201905092915050565b600082825260208201905092915050565b600082825260208201905092915050565b600081905092915050565b6000614085826141f9565b9150614090836141f9565b9250827fffffffffffffffffffffffffffffffffffffffffffffffffffffffffffffffff038211156140c5576140c4614387565b5b828201905092915050565b60006140db826141f9565b91506140e6836141f9565b9250826140f6576140f56143b6565b5b828204905092915050565b600061410c826141f9565b9150614117836141f9565b9250817fffffffffffffffffffffffffffffffffffffffffffffffffffffffffffffffff04831182151516156141505761414f614387565b5b828202905092915050565b6000614166826141f9565b9150614171836141f9565b92508282101561418457614183614387565b5b828203905092915050565b600061419a826141d9565b9050919050565b60008115159050919050565b60007fffffffff0000000000000000000000000000000000000000000000000000000082169050919050565b600073ffffffffffffffffffffffffffffffffffffffff82169050919050565b6000819050919050565b600060ff82169050919050565b82818337600083830152505050565b60005b8381101561423d578082015181840152602081019050614222565b8381111561424c576000848401525b50505050565b6000600282049050600182168061426a57607f821691505b6020821081141561427e5761427d6143e5565b5b50919050565b61428d826144ad565b810181811067ffffffffffffffff821117156142ac576142ab614443565b5b80604052505050565b60006142c0826141f9565b91507fffffffffffffffffffffffffffffffffffffffffffffffffffffffffffffffff8214156142f3576142f2614387565b5b600182019050919050565b600061430982614203565b915060ff82141561431d5761431c614387565b5b600182019050919050565b60006143338261433a565b9050919050565b6000614345826144be565b9050919050565b6000819050919050565b6000614361826141f9565b915061436c836141f9565b92508261437c5761437b6143b6565b5b828206905092915050565b7f4e487b7100000000000000000000000000000000000000000000000000000000600052601160045260246000fd5b7f4e487b7100000000000000000000000000000000000000000000000000000000600052601260045260246000fd5b7f4e487b7100000000000000000000000000000000000000000000000000000000600052602260045260246000fd5b7f4e487b7100000000000000000000000000000000000000000000000000000000600052603260045260246000fd5b7f4e487b7100000000000000000000000000000000000000000000000000000000600052604160045260246000fd5b600060033d11156144915760046000803e61448e6000516144cb565b90505b90565b600080fd5b600080fd5b600080fd5b600080fd5b600080fd5b6000601f19601f8301169050919050565b60008160601b9050919050565b60008160e01c9050919050565b7f455243313135353a207472616e7366657220746f206e6f6e204552433131353560008201527f526563656976657220696d706c656d656e746572000000000000000000000000602082015250565b7f455243313135353a204552433131353552656365697665722072656a6563746560008201527f6420746f6b656e73000000000000000000000000000000000000000000000000602082015250565b7f4e6f2072656d61696e696e6720626f6f73746572207061636b73210000000000600082015250565b7f455243313135353a2062616c616e636520717565727920666f7220746865207a60008201527f65726f2061646472657373000000000000000000000000000000000000000000602082015250565b7f4f776e61626c653a206e6577206f776e657220697320746865207a65726f206160008201527f6464726573730000000000000000000000000000000000000000000000000000602082015250565b7f455243313135353a206275726e20616d6f756e7420657863656564732062616c60008201527f616e636500000000000000000000000000000000000000000000000000000000602082015250565b7f455243313135353a2063616c6c6572206973206e6f74206f776e6572206e6f7260008201527f20617070726f7665640000000000000000000000000000000000000000000000602082015250565b7f416c6c206f662074686973206174686c657465206861766520616c726561647960008201527f206265656e206d696e7465642100000000000000000000000000000000000000602082015250565b7f5374617274696e6720696e64657820697320616c726561647920736574000000600082015250565b7f455243313135353a207472616e7366657220746f20746865207a65726f20616460008201527f6472657373000000000000000000000000000000000000000000000000000000602082015250565b7f455243313135353a207472616e736665722063616c6c6572206973206e6f742060008201527f6f776e6572206e6f7220617070726f7665640000000000000000000000000000602082015250565b7f43616e6e6f742073657420757269207477696365000000000000000000000000600082015250565b7f455243313135353a206275726e2066726f6d20746865207a65726f206164647260008201527f6573730000000000000000000000000000000000000000000000000000000000602082015250565b7f455243313135353a20696e73756666696369656e742062616c616e636520666f60008201527f72207472616e7366657200000000000000000000000000000000000000000000602082015250565b7f2e6a736f6e000000000000000000000000000000000000000000000000000000600082015250565b7f4f776e61626c653a2063616c6c6572206973206e6f7420746865206f776e6572600082015250565b7f5061636b2068617320616c7265616479206265656e206275726e6564206f722060008201527f646f6573206e6f742065786973742e0000000000000000000000000000000000602082015250565b7f416c6c207061636b73206861766520616c7265616479206265656e206d696e7460008201527f6564210000000000000000000000000000000000000000000000000000000000602082015250565b7f5061636b73206172656e277420726561647920746f206f70656e207965742100600082015250565b7f43616e206f6e6c79206d696e74206f6e652073746172746572207061636b207060008201527f6572206163636f756e7400000000000000000000000000000000000000000000602082015250565b7f455243313135353a2073657474696e6720617070726f76616c2073746174757360008201527f20666f722073656c660000000000000000000000000000000000000000000000602082015250565b7f455243313135353a206163636f756e747320616e6420696473206c656e67746860008201527f206d69736d617463680000000000000000000000000000000000000000000000602082015250565b7f455243313135353a2069647320616e6420616d6f756e7473206c656e6774682060008201527f6d69736d61746368000000000000000000000000000000000000000000000000602082015250565b7f455243313135353a206d696e7420746f20746865207a65726f2061646472657360008201527f7300000000000000000000000000000000000000000000000000000000000000602082015250565b600060443d1015614b6c57614bef565b614b74613ecb565b60043d036004823e80513d602482011167ffffffffffffffff82111715614b9c575050614bef565b808201805167ffffffffffffffff811115614bba5750505050614bef565b80602083010160043d038501811115614bd7575050505050614bef565b614be682602001850186614284565b82955050505050505b90565b614bfb8161418f565b8114614c0657600080fd5b50565b614c12816141a1565b8114614c1d57600080fd5b50565b614c29816141ad565b8114614c3457600080fd5b50565b614c40816141f9565b8114614c4b57600080fd5b5056fea2646970667358221220275279ecbe16486bfe90c071ab0f7c73992e7ec1a701953fb7a3e7d367491f6a64736f6c63430008070033",
  "linkReferences": {},
  "deployedLinkReferences": {}
}