{
  "_format": "hh-sol-artifact-1",
  "contractName": "GameItems",
  "sourceName": "contracts/GameItems.sol",
  "abi": [
    {
      "inputs": [
        {
          "components": [
            {
              "internalType": "uint256",
              "name": "_numAthletes",
              "type": "uint256"
            },
            {
              "internalType": "uint256",
              "name": "_nftPerAthlete",
              "type": "uint256"
            },
            {
              "internalType": "uint256",
              "name": "_starterPackSize",
              "type": "uint256"
            },
            {
              "internalType": "uint256",
              "name": "_boosterPackSize",
              "type": "uint256"
            },
            {
              "internalType": "uint256",
              "name": "_maxStarterPackBalance",
              "type": "uint256"
            },
            {
              "internalType": "uint256",
              "name": "_maxBoosterPackBalance",
              "type": "uint256"
            },
            {
              "internalType": "uint256",
              "name": "_maxPacks",
              "type": "uint256"
            },
            {
              "internalType": "uint256",
              "name": "_revealTimestamp",
              "type": "uint256"
            }
          ],
          "internalType": "struct GameItems.Parameters",
          "name": "params",
          "type": "tuple"
        },
        {
          "internalType": "string",
          "name": "_athleteURI",
          "type": "string"
        },
        {
          "internalType": "string",
          "name": "_starterPackURI",
          "type": "string"
        },
        {
          "internalType": "string",
          "name": "_boosterPackURI",
          "type": "string"
        }
      ],
      "stateMutability": "nonpayable",
      "type": "constructor"
    },
    {
      "anonymous": false,
      "inputs": [
        {
          "indexed": true,
          "internalType": "address",
          "name": "account",
          "type": "address"
        },
        {
          "indexed": true,
          "internalType": "address",
          "name": "operator",
          "type": "address"
        },
        {
          "indexed": false,
          "internalType": "bool",
          "name": "approved",
          "type": "bool"
        }
      ],
      "name": "ApprovalForAll",
      "type": "event"
    },
    {
      "anonymous": false,
      "inputs": [
        {
          "indexed": true,
          "internalType": "address",
          "name": "previousOwner",
          "type": "address"
        },
        {
          "indexed": true,
          "internalType": "address",
          "name": "newOwner",
          "type": "address"
        }
      ],
      "name": "OwnershipTransferred",
      "type": "event"
    },
    {
      "anonymous": false,
      "inputs": [
        {
          "indexed": true,
          "internalType": "address",
          "name": "operator",
          "type": "address"
        },
        {
          "indexed": true,
          "internalType": "address",
          "name": "from",
          "type": "address"
        },
        {
          "indexed": true,
          "internalType": "address",
          "name": "to",
          "type": "address"
        },
        {
          "indexed": false,
          "internalType": "uint256[]",
          "name": "ids",
          "type": "uint256[]"
        },
        {
          "indexed": false,
          "internalType": "uint256[]",
          "name": "values",
          "type": "uint256[]"
        }
      ],
      "name": "TransferBatch",
      "type": "event"
    },
    {
      "anonymous": false,
      "inputs": [
        {
          "indexed": true,
          "internalType": "address",
          "name": "operator",
          "type": "address"
        },
        {
          "indexed": true,
          "internalType": "address",
          "name": "from",
          "type": "address"
        },
        {
          "indexed": true,
          "internalType": "address",
          "name": "to",
          "type": "address"
        },
        {
          "indexed": false,
          "internalType": "uint256",
          "name": "id",
          "type": "uint256"
        },
        {
          "indexed": false,
          "internalType": "uint256",
          "name": "value",
          "type": "uint256"
        }
      ],
      "name": "TransferSingle",
      "type": "event"
    },
    {
      "anonymous": false,
      "inputs": [
        {
          "indexed": false,
          "internalType": "string",
          "name": "value",
          "type": "string"
        },
        {
          "indexed": true,
          "internalType": "uint256",
          "name": "id",
          "type": "uint256"
        }
      ],
      "name": "URI",
      "type": "event"
    },
    {
      "anonymous": false,
      "inputs": [
        {
          "indexed": false,
          "internalType": "uint256[5]",
          "name": "",
          "type": "uint256[5]"
        },
        {
          "indexed": false,
          "internalType": "address",
          "name": "signer",
          "type": "address"
        }
      ],
      "name": "packBurned",
      "type": "event"
    },
    {
      "anonymous": false,
      "inputs": [
        {
          "indexed": false,
          "internalType": "address",
          "name": "signer",
          "type": "address"
        },
        {
          "indexed": false,
          "internalType": "uint256",
          "name": "id",
          "type": "uint256"
        }
      ],
      "name": "packMinted",
      "type": "event"
    },
    {
      "inputs": [],
      "name": "REVEAL_TIMESTAMP",
      "outputs": [
        {
          "internalType": "uint256",
          "name": "",
          "type": "uint256"
        }
      ],
      "stateMutability": "view",
      "type": "function"
    },
    {
      "inputs": [
        {
          "internalType": "address",
          "name": "account",
          "type": "address"
        },
        {
          "internalType": "uint256",
          "name": "id",
          "type": "uint256"
        }
      ],
      "name": "balanceOf",
      "outputs": [
        {
          "internalType": "uint256",
          "name": "",
          "type": "uint256"
        }
      ],
      "stateMutability": "view",
      "type": "function"
    },
    {
      "inputs": [
        {
          "internalType": "address[]",
          "name": "accounts",
          "type": "address[]"
        },
        {
          "internalType": "uint256[]",
          "name": "ids",
          "type": "uint256[]"
        }
      ],
      "name": "balanceOfBatch",
      "outputs": [
        {
          "internalType": "uint256[]",
          "name": "",
          "type": "uint256[]"
        }
      ],
      "stateMutability": "view",
      "type": "function"
    },
    {
      "inputs": [],
      "name": "burnBoosterPack",
      "outputs": [],
      "stateMutability": "nonpayable",
      "type": "function"
    },
    {
      "inputs": [],
      "name": "burnStarterPack",
      "outputs": [],
      "stateMutability": "nonpayable",
      "type": "function"
    },
    {
      "inputs": [],
      "name": "emergencySetStartingIndexBlock",
      "outputs": [],
      "stateMutability": "nonpayable",
      "type": "function"
    },
    {
      "inputs": [],
      "name": "generateBoosterPackIndices",
      "outputs": [
        {
          "internalType": "uint256[3]",
          "name": "",
          "type": "uint256[3]"
        }
      ],
      "stateMutability": "view",
      "type": "function"
    },
    {
      "inputs": [],
      "name": "generateStarterPackIndices",
      "outputs": [
        {
          "internalType": "uint256[5]",
          "name": "",
          "type": "uint256[5]"
        }
      ],
      "stateMutability": "view",
      "type": "function"
    },
    {
      "inputs": [],
      "name": "getNFTPerAthlete",
      "outputs": [
        {
          "internalType": "uint256",
          "name": "",
          "type": "uint256"
        }
      ],
      "stateMutability": "view",
      "type": "function"
    },
    {
      "inputs": [
        {
          "internalType": "address",
          "name": "account",
          "type": "address"
        },
        {
          "internalType": "address",
          "name": "operator",
          "type": "address"
        }
      ],
      "name": "isApprovedForAll",
      "outputs": [
        {
          "internalType": "bool",
          "name": "",
          "type": "bool"
        }
      ],
      "stateMutability": "view",
      "type": "function"
    },
    {
      "inputs": [],
      "name": "mintBoosterPack",
      "outputs": [],
      "stateMutability": "nonpayable",
      "type": "function"
    },
    {
      "inputs": [],
      "name": "mintStarterPack",
      "outputs": [],
      "stateMutability": "nonpayable",
      "type": "function"
    },
    {
      "inputs": [],
      "name": "name",
      "outputs": [
        {
          "internalType": "string",
          "name": "",
          "type": "string"
        }
      ],
      "stateMutability": "view",
      "type": "function"
    },
    {
      "inputs": [],
      "name": "owner",
      "outputs": [
        {
          "internalType": "address",
          "name": "",
          "type": "address"
        }
      ],
      "stateMutability": "view",
      "type": "function"
    },
    {
      "inputs": [],
      "name": "packsAvailable",
      "outputs": [
        {
          "internalType": "uint256",
          "name": "",
          "type": "uint256"
        }
      ],
      "stateMutability": "view",
      "type": "function"
    },
    {
      "inputs": [],
      "name": "packsReadyToOpen",
      "outputs": [
        {
          "internalType": "bool",
          "name": "",
          "type": "bool"
        }
      ],
      "stateMutability": "view",
      "type": "function"
    },
    {
      "inputs": [],
      "name": "renounceOwnership",
      "outputs": [],
      "stateMutability": "nonpayable",
      "type": "function"
    },
    {
      "inputs": [
        {
          "internalType": "address",
          "name": "from",
          "type": "address"
        },
        {
          "internalType": "address",
          "name": "to",
          "type": "address"
        },
        {
          "internalType": "uint256[]",
          "name": "ids",
          "type": "uint256[]"
        },
        {
          "internalType": "uint256[]",
          "name": "amounts",
          "type": "uint256[]"
        },
        {
          "internalType": "bytes",
          "name": "data",
          "type": "bytes"
        }
      ],
      "name": "safeBatchTransferFrom",
      "outputs": [],
      "stateMutability": "nonpayable",
      "type": "function"
    },
    {
      "inputs": [
        {
          "internalType": "address",
          "name": "from",
          "type": "address"
        },
        {
          "internalType": "address",
          "name": "to",
          "type": "address"
        },
        {
          "internalType": "uint256",
          "name": "id",
          "type": "uint256"
        },
        {
          "internalType": "uint256",
          "name": "amount",
          "type": "uint256"
        },
        {
          "internalType": "bytes",
          "name": "data",
          "type": "bytes"
        }
      ],
      "name": "safeTransferFrom",
      "outputs": [],
      "stateMutability": "nonpayable",
      "type": "function"
    },
    {
      "inputs": [
        {
          "internalType": "address",
          "name": "operator",
          "type": "address"
        },
        {
          "internalType": "bool",
          "name": "approved",
          "type": "bool"
        }
      ],
      "name": "setApprovalForAll",
      "outputs": [],
      "stateMutability": "nonpayable",
      "type": "function"
    },
    {
      "inputs": [],
      "name": "setPacksReady",
      "outputs": [],
      "stateMutability": "nonpayable",
      "type": "function"
    },
    {
      "inputs": [
        {
          "internalType": "string",
          "name": "provenanceHash",
          "type": "string"
        }
      ],
      "name": "setProvenanceHash",
      "outputs": [],
      "stateMutability": "nonpayable",
      "type": "function"
    },
    {
      "inputs": [],
      "name": "setStartingIndex",
      "outputs": [],
      "stateMutability": "nonpayable",
      "type": "function"
    },
    {
      "inputs": [
        {
          "internalType": "uint256",
          "name": "tokenId",
          "type": "uint256"
        },
        {
          "internalType": "string",
          "name": "uri",
          "type": "string"
        }
      ],
      "name": "setTokenUri",
      "outputs": [],
      "stateMutability": "nonpayable",
      "type": "function"
    },
    {
      "inputs": [],
      "name": "setURIs",
      "outputs": [],
      "stateMutability": "nonpayable",
      "type": "function"
    },
    {
      "inputs": [
        {
          "internalType": "bytes4",
          "name": "interfaceId",
          "type": "bytes4"
        }
      ],
      "name": "supportsInterface",
      "outputs": [
        {
          "internalType": "bool",
          "name": "",
          "type": "bool"
        }
      ],
      "stateMutability": "view",
      "type": "function"
    },
    {
      "inputs": [
        {
          "internalType": "address",
          "name": "newOwner",
          "type": "address"
        }
      ],
      "name": "transferOwnership",
      "outputs": [],
      "stateMutability": "nonpayable",
      "type": "function"
    },
    {
      "inputs": [
        {
          "internalType": "uint256",
          "name": "tokenId",
          "type": "uint256"
        }
      ],
      "name": "uri",
      "outputs": [
        {
          "internalType": "string",
          "name": "",
          "type": "string"
        }
      ],
      "stateMutability": "view",
      "type": "function"
    }
  ],
  "bytecode": "0x6080604052612710600f556040518060400160405280600881526020017f5465616d446966660000000000000000000000000000000000000000000000008152506010908051906020019062000057929190620003ef565b506001601160006101000a81548160ff0219169083151502179055506001600c54620000849190620007c6565b6012556002600c54620000989190620007c6565b6013556040518060200160405280600081525060199080519060200190620000c2929190620003ef565b50348015620000d057600080fd5b50604051620054ea380380620054ea8339818101604052810190620000f6919062000613565b6040518060200160405280600081525062000117816200023960201b60201c565b50620001386200012c6200025560201b60201c565b6200025d60201b60201c565b620001836040518060400160405280601281526020017f4d616b696e6720636f6e74726163742e2e2e00000000000000000000000000008152506200032360201b620017541760201c565b8360000151600c819055508360200151600d819055508360400151600781905550836060015160088190555083608001516009819055508360a00151600a819055508360c00151600b819055508260049080519060200190620001e8929190620003ef565b50816005908051906020019062000201929190620003ef565b5080600690805190602001906200021a929190620003ef565b508360e00151600f81905550600b5460228190555050505050620009a0565b806002908051906020019062000251929190620003ef565b5050565b600033905090565b6000600360009054906101000a900473ffffffffffffffffffffffffffffffffffffffff16905081600360006101000a81548173ffffffffffffffffffffffffffffffffffffffff021916908373ffffffffffffffffffffffffffffffffffffffff1602179055508173ffffffffffffffffffffffffffffffffffffffff168173ffffffffffffffffffffffffffffffffffffffff167f8be0079c531659141344cd1fd0a4f28419497f9722a3daafe3b4186f6b6457e060405160405180910390a35050565b620003c3816040516024016200033a919062000727565b6040516020818303038152906040527f41304fac000000000000000000000000000000000000000000000000000000007bffffffffffffffffffffffffffffffffffffffffffffffffffffffff19166020820180517bffffffffffffffffffffffffffffffffffffffffffffffffffffffff8381831617835250505050620003c660201b60201c565b50565b60008151905060006a636f6e736f6c652e6c6f679050602083016000808483855afa5050505050565b828054620003fd9062000863565b90600052602060002090601f0160209004810192826200042157600085556200046d565b82601f106200043c57805160ff19168380011785556200046d565b828001600101855582156200046d579182015b828111156200046c5782518255916020019190600101906200044f565b5b5090506200047c919062000480565b5090565b5b808211156200049b57600081600090555060010162000481565b5090565b6000620004b6620004b08462000774565b6200074b565b905082815260208101848484011115620004d557620004d462000966565b5b620004e28482856200082d565b509392505050565b600082601f8301126200050257620005016200095c565b5b8151620005148482602086016200049f565b91505092915050565b6000610100828403121562000537576200053662000961565b5b620005446101006200074b565b905060006200055684828501620005fc565b60008301525060206200056c84828501620005fc565b60208301525060406200058284828501620005fc565b60408301525060606200059884828501620005fc565b6060830152506080620005ae84828501620005fc565b60808301525060a0620005c484828501620005fc565b60a08301525060c0620005da84828501620005fc565b60c08301525060e0620005f084828501620005fc565b60e08301525092915050565b6000815190506200060d8162000986565b92915050565b600080600080610160858703121562000631576200063062000970565b5b600062000641878288016200051d565b94505061010085015167ffffffffffffffff8111156200066657620006656200096b565b5b6200067487828801620004ea565b93505061012085015167ffffffffffffffff8111156200069957620006986200096b565b5b620006a787828801620004ea565b92505061014085015167ffffffffffffffff811115620006cc57620006cb6200096b565b5b620006da87828801620004ea565b91505092959194509250565b6000620006f382620007aa565b620006ff8185620007b5565b9350620007118185602086016200082d565b6200071c8162000975565b840191505092915050565b60006020820190508181036000830152620007438184620006e6565b905092915050565b6000620007576200076a565b905062000765828262000899565b919050565b6000604051905090565b600067ffffffffffffffff8211156200079257620007916200092d565b5b6200079d8262000975565b9050602081019050919050565b600081519050919050565b600082825260208201905092915050565b6000620007d38262000823565b9150620007e08362000823565b9250827fffffffffffffffffffffffffffffffffffffffffffffffffffffffffffffffff03821115620008185762000817620008cf565b5b828201905092915050565b6000819050919050565b60005b838110156200084d57808201518184015260208101905062000830565b838111156200085d576000848401525b50505050565b600060028204905060018216806200087c57607f821691505b60208210811415620008935762000892620008fe565b5b50919050565b620008a48262000975565b810181811067ffffffffffffffff82111715620008c657620008c56200092d565b5b80604052505050565b7f4e487b7100000000000000000000000000000000000000000000000000000000600052601160045260246000fd5b7f4e487b7100000000000000000000000000000000000000000000000000000000600052602260045260246000fd5b7f4e487b7100000000000000000000000000000000000000000000000000000000600052604160045260246000fd5b600080fd5b600080fd5b600080fd5b600080fd5b600080fd5b6000601f19601f8301169050919050565b620009918162000823565b81146200099d57600080fd5b50565b614b3a80620009b06000396000f3fe608060405234801561001057600080fd5b50600436106101c35760003560e01c80635d2db2bf116100f9578063bbb13e1711610097578063e985e9c511610071578063e985e9c514610438578063e986655014610468578063f242432a14610472578063f2fde38b1461048e576101c3565b8063bbb13e17146103f2578063be59ec26146103fc578063d759000b1461041a576101c3565b80637d17fcbe116100d35780637d17fcbe146103a45780638da5cb5b146103ae5780639ebf488b146103cc578063a22cb465146103d6576101c3565b80635d2db2bf14610386578063715018a61461039057806375223f921461039a576101c3565b8063166d5d30116101665780632eb2c2d6116101405780632eb2c2d6146103145780634e1273f4146103305780634f3551d71461036057806357f7789e1461036a576101c3565b8063166d5d30146102ce57806318e20a38146102ec57806319b604391461030a576101c3565b80630e89341c116101a25780630e89341c14610246578063109695231461027657806313dc2db214610292578063143cc144146102b0576101c3565b8062fdd58e146101c857806301ffc9a7146101f857806306fdde0314610228575b600080fd5b6101e260048036038101906101dd9190613058565b6104aa565b6040516101ef9190613d71565b60405180910390f35b610212600480360381019061020d9190613110565b610573565b60405161021f9190613a74565b60405180910390f35b610230610655565b60405161023d9190613a8f565b60405180910390f35b610260600480360381019061025b91906131b3565b6106e3565b60405161026d9190613a8f565b60405180910390f35b610290600480360381019061028b919061316a565b610788565b005b61029a61081e565b6040516102a791906139d7565b60405180910390f35b6102b8610902565b6040516102c59190613d71565b60405180910390f35b6102d6610988565b6040516102e391906139bc565b60405180910390f35b6102f4610a9c565b6040516103019190613d71565b60405180910390f35b610312610aa2565b005b61032e60048036038101906103299190612eb2565b610b4a565b005b61034a60048036038101906103459190613098565b610beb565b6040516103579190613a1b565b60405180910390f35b610368610d04565b005b610384600480360381019061037f91906131e0565b610e0d565b005b61038e610f17565b005b61039861107a565b005b6103a2611102565b005b6103ac611202565b005b6103b66112cc565b6040516103c391906138b6565b60405180910390f35b6103d46112f6565b005b6103f060048036038101906103eb9190613018565b611385565b005b6103fa61139b565b005b610404611437565b6040516104119190613a74565b60405180910390f35b61042261144a565b60405161042f9190613d71565b60405180910390f35b610452600480360381019061044d9190612e72565b611450565b60405161045f9190613a74565b60405180910390f35b6104706114e4565b005b61048c60048036038101906104879190612f81565b6115bb565b005b6104a860048036038101906104a39190612e45565b61165c565b005b60008073ffffffffffffffffffffffffffffffffffffffff168373ffffffffffffffffffffffffffffffffffffffff16141561051b576040517f08c379a000000000000000000000000000000000000000000000000000000000815260040161051290613b11565b60405180910390fd5b60008083815260200190815260200160002060008473ffffffffffffffffffffffffffffffffffffffff1673ffffffffffffffffffffffffffffffffffffffff16815260200190815260200160002054905092915050565b60007fd9b67a26000000000000000000000000000000000000000000000000000000007bffffffffffffffffffffffffffffffffffffffffffffffffffffffff1916827bffffffffffffffffffffffffffffffffffffffffffffffffffffffff1916148061063e57507f0e89341c000000000000000000000000000000000000000000000000000000007bffffffffffffffffffffffffffffffffffffffffffffffffffffffff1916827bffffffffffffffffffffffffffffffffffffffffffffffffffffffff1916145b8061064e575061064d826117ed565b5b9050919050565b6010805461066290614157565b80601f016020809104026020016040519081016040528092919081815260200182805461068e90614157565b80156106db5780601f106106b0576101008083540402835291602001916106db565b820191906000526020600020905b8154815290600101906020018083116106be57829003601f168201915b505050505081565b606060236000838152602001908152602001600020805461070390614157565b80601f016020809104026020016040519081016040528092919081815260200182805461072f90614157565b801561077c5780601f106107515761010080835404028352916020019161077c565b820191906000526020600020905b81548152906001019060200180831161075f57829003601f168201915b50505050509050919050565b610790611857565b73ffffffffffffffffffffffffffffffffffffffff166107ae6112cc565b73ffffffffffffffffffffffffffffffffffffffff1614610804576040517f08c379a00000000000000000000000000000000000000000000000000000000081526004016107fb90613c71565b60405180910390fd5b806019908051906020019061081a929190612ad9565b5050565b610826612b5f565b61082e612b5f565b60005b60058110156108fa576000600a826108499190614006565b905060006009600a8461085c9190614006565b6108669190613f7f565b905081600183836108779190614060565b6108819190613f7f565b4233448760145460405160200161089c959493929190613857565b6040516020818303038152906040528051906020012060001c6108bf919061425b565b6108c99190613f7f565b8484600581106108dc576108db614319565b5b602002018181525050505080806108f2906141ba565b915050610831565b508091505090565b600061090c611857565b73ffffffffffffffffffffffffffffffffffffffff1661092a6112cc565b73ffffffffffffffffffffffffffffffffffffffff1614610980576040517f08c379a000000000000000000000000000000000000000000000000000000000815260040161097790613c71565b60405180910390fd5b600d54905090565b610990612b81565b610998612b81565b60006005436109a7919061425b565b905060005b6003811015610a93576005826109c2919061425b565b91506000600a836109d39190614006565b905060006009600a856109e69190614006565b6109f09190613f7f565b90508160018383610a019190614060565b610a0b9190613f7f565b42334487601554604051602001610a26959493929190613857565b6040516020818303038152906040528051906020012060001c610a49919061425b565b610a539190613f7f565b858460038110610a6657610a65614319565b5b602002018181525050600184610a7c9190613f7f565b935050508080610a8b906141ba565b9150506109ac565b50819250505090565b600f5481565b610aaa611857565b73ffffffffffffffffffffffffffffffffffffffff16610ac86112cc565b73ffffffffffffffffffffffffffffffffffffffff1614610b1e576040517f08c379a0000000000000000000000000000000000000000000000000000000008152600401610b1590613c71565b60405180910390fd5b601160009054906101000a900460ff1615601160006101000a81548160ff021916908315150217905550565b610b52611857565b73ffffffffffffffffffffffffffffffffffffffff168573ffffffffffffffffffffffffffffffffffffffff161480610b985750610b9785610b92611857565b611450565b5b610bd7576040517f08c379a0000000000000000000000000000000000000000000000000000000008152600401610bce90613bf1565b60405180910390fd5b610be4858585858561185f565b5050505050565b60608151835114610c31576040517f08c379a0000000000000000000000000000000000000000000000000000000008152600401610c2890613d11565b60405180910390fd5b6000835167ffffffffffffffff811115610c4e57610c4d614348565b5b604051908082528060200260200182016040528015610c7c5781602001602082028036833780820191505090505b50905060005b8451811015610cf957610cc9858281518110610ca157610ca0614319565b5b6020026020010151858381518110610cbc57610cbb614319565b5b60200260200101516104aa565b828281518110610cdc57610cdb614319565b5b60200260200101818152505080610cf2906141ba565b9050610c82565b508091505092915050565b600b5460155410610d4a576040517f08c379a0000000000000000000000000000000000000000000000000000000008152600401610d4190613c91565b60405180910390fd5b6002610d58336013546104aa565b10610d98576040517f08c379a0000000000000000000000000000000000000000000000000000000008152600401610d8f90613cb1565b60405180910390fd5b610db633601354600160405180602001604052806000815250611b73565b600160156000828254610dc99190613f7f565b925050819055507f2e0f4d63dcc00e6a11c8aef9f6e15c1f9cd6e9a090b2dd99c7b797f1a28d300d33601554604051610e03929190613993565b60405180910390a1565b610e15611857565b73ffffffffffffffffffffffffffffffffffffffff16610e336112cc565b73ffffffffffffffffffffffffffffffffffffffff1614610e89576040517f08c379a0000000000000000000000000000000000000000000000000000000008152600401610e8090613c71565b60405180910390fd5b6000602360008481526020019081526020016000208054610ea990614157565b905014610eeb576040517f08c379a0000000000000000000000000000000000000000000000000000000008152600401610ee290613c11565b60405180910390fd5b80602360008481526020019081526020016000209080519060200190610f12929190612ad9565b505050565b610f1f611857565b73ffffffffffffffffffffffffffffffffffffffff16610f3d6112cc565b73ffffffffffffffffffffffffffffffffffffffff1614610f93576040517f08c379a0000000000000000000000000000000000000000000000000000000008152600401610f8a90613c71565b60405180910390fd5b60005b600c54811015611007576000600c5482601854610fb39190613f7f565b610fbd919061425b565b9050610ff3816004610fce84611d09565b604051602001610fdf929190613828565b604051602081830303815290604052610e0d565b508080610fff906141ba565b915050610f96565b506110406001600c5461101a9190613f7f565b600560405160200161102c9190613811565b604051602081830303815290604052610e0d565b6110786002600c546110529190613f7f565b60066040516020016110649190613811565b604051602081830303815290604052610e0d565b565b611082611857565b73ffffffffffffffffffffffffffffffffffffffff166110a06112cc565b73ffffffffffffffffffffffffffffffffffffffff16146110f6576040517f08c379a00000000000000000000000000000000000000000000000000000000081526004016110ed90613c71565b60405180910390fd5b6111006000611e6a565b565b601160009054906101000a900460ff16611151576040517f08c379a000000000000000000000000000000000000000000000000000000000815260040161114890613cd1565b60405180910390fd5b600061115f336013546104aa565b1161119f576040517f08c379a000000000000000000000000000000000000000000000000000000000815260040161119690613af1565b60405180910390fd5b60006111a9610988565b905060005b60038160ff1610156111f0576111dd828260ff16600381106111d3576111d2614319565b5b6020020151611f30565b80806111e890614203565b9150506111ae565b506111ff33601354600161202b565b50565b61120a611857565b73ffffffffffffffffffffffffffffffffffffffff166112286112cc565b73ffffffffffffffffffffffffffffffffffffffff161461127e576040517f08c379a000000000000000000000000000000000000000000000000000000000815260040161127590613c71565b60405180910390fd5b6000601854146112c3576040517f08c379a00000000000000000000000000000000000000000000000000000000081526004016112ba90613bb1565b60405180910390fd5b43601781905550565b6000600360009054906101000a900473ffffffffffffffffffffffffffffffffffffffff16905090565b61131433601254600160405180602001604052806000815250611b73565b6001601460008282546113279190613f7f565b925050819055506001602260008282546113419190614060565b925050819055507f2e0f4d63dcc00e6a11c8aef9f6e15c1f9cd6e9a090b2dd99c7b797f1a28d300d3360145460405161137b929190613993565b60405180910390a1565b611397611390611857565b8383612248565b5050565b60006113a561081e565b905060005b60058160ff1610156113ec576113d9828260ff16600581106113cf576113ce614319565b5b6020020151611f30565b80806113e490614203565b9150506113aa565b507f15abe0b63b201b70614c230381f0fabc4a26a1957629948558095a11db1d6fb5813360405161141e9291906139f2565b60405180910390a161143433601254600161202b565b50565b601160009054906101000a900460ff1681565b60225481565b6000600160008473ffffffffffffffffffffffffffffffffffffffff1673ffffffffffffffffffffffffffffffffffffffff16815260200190815260200160002060008373ffffffffffffffffffffffffffffffffffffffff1673ffffffffffffffffffffffffffffffffffffffff16815260200190815260200160002060009054906101000a900460ff16905092915050565b6114ec611857565b73ffffffffffffffffffffffffffffffffffffffff1661150a6112cc565b73ffffffffffffffffffffffffffffffffffffffff1614611560576040517f08c379a000000000000000000000000000000000000000000000000000000000815260040161155790613c71565b60405180910390fd5b600d54600c546115709190614006565b60014361157d9190614060565b4060001c61158b919061425b565b601881905550600060185414156115b9576115b260016018546123b590919063ffffffff16565b6018819055505b565b6115c3611857565b73ffffffffffffffffffffffffffffffffffffffff168573ffffffffffffffffffffffffffffffffffffffff161480611609575061160885611603611857565b611450565b5b611648576040517f08c379a000000000000000000000000000000000000000000000000000000000815260040161163f90613b71565b60405180910390fd5b61165585858585856123cb565b5050505050565b611664611857565b73ffffffffffffffffffffffffffffffffffffffff166116826112cc565b73ffffffffffffffffffffffffffffffffffffffff16146116d8576040517f08c379a00000000000000000000000000000000000000000000000000000000081526004016116cf90613c71565b60405180910390fd5b600073ffffffffffffffffffffffffffffffffffffffff168173ffffffffffffffffffffffffffffffffffffffff161415611748576040517f08c379a000000000000000000000000000000000000000000000000000000000815260040161173f90613b31565b60405180910390fd5b61175181611e6a565b50565b6117ea816040516024016117689190613a8f565b6040516020818303038152906040527f41304fac000000000000000000000000000000000000000000000000000000007bffffffffffffffffffffffffffffffffffffffffffffffffffffffff19166020820180517bffffffffffffffffffffffffffffffffffffffffffffffffffffffff838183161783525050505061264d565b50565b60007f01ffc9a7000000000000000000000000000000000000000000000000000000007bffffffffffffffffffffffffffffffffffffffffffffffffffffffff1916827bffffffffffffffffffffffffffffffffffffffffffffffffffffffff1916149050919050565b600033905090565b81518351146118a3576040517f08c379a000000000000000000000000000000000000000000000000000000000815260040161189a90613d31565b60405180910390fd5b600073ffffffffffffffffffffffffffffffffffffffff168473ffffffffffffffffffffffffffffffffffffffff161415611913576040517f08c379a000000000000000000000000000000000000000000000000000000000815260040161190a90613bd1565b60405180910390fd5b600061191d611857565b905061192d818787878787612676565b60005b8451811015611ade57600085828151811061194e5761194d614319565b5b60200260200101519050600085838151811061196d5761196c614319565b5b60200260200101519050600080600084815260200190815260200160002060008b73ffffffffffffffffffffffffffffffffffffffff1673ffffffffffffffffffffffffffffffffffffffff16815260200190815260200160002054905081811015611a0e576040517f08c379a0000000000000000000000000000000000000000000000000000000008152600401611a0590613c51565b60405180910390fd5b81810360008085815260200190815260200160002060008c73ffffffffffffffffffffffffffffffffffffffff1673ffffffffffffffffffffffffffffffffffffffff168152602001908152602001600020819055508160008085815260200190815260200160002060008b73ffffffffffffffffffffffffffffffffffffffff1673ffffffffffffffffffffffffffffffffffffffff1681526020019081526020016000206000828254611ac39190613f7f565b9250508190555050505080611ad7906141ba565b9050611930565b508473ffffffffffffffffffffffffffffffffffffffff168673ffffffffffffffffffffffffffffffffffffffff168273ffffffffffffffffffffffffffffffffffffffff167f4a39dc06d4c0dbc64b70af90fd698a233a518aa5d07e595d983b8c0526c8f7fb8787604051611b55929190613a3d565b60405180910390a4611b6b81878787878761267e565b505050505050565b600073ffffffffffffffffffffffffffffffffffffffff168473ffffffffffffffffffffffffffffffffffffffff161415611be3576040517f08c379a0000000000000000000000000000000000000000000000000000000008152600401611bda90613d51565b60405180910390fd5b6000611bed611857565b9050611c0e81600087611bff88612865565b611c0888612865565b87612676565b8260008086815260200190815260200160002060008773ffffffffffffffffffffffffffffffffffffffff1673ffffffffffffffffffffffffffffffffffffffff1681526020019081526020016000206000828254611c6d9190613f7f565b925050819055508473ffffffffffffffffffffffffffffffffffffffff16600073ffffffffffffffffffffffffffffffffffffffff168273ffffffffffffffffffffffffffffffffffffffff167fc3d58168c5ae7397731d063d5bbf3d657854427343f4c083240f7aacaa2d0f628787604051611ceb929190613d8c565b60405180910390a4611d02816000878787876128df565b5050505050565b60606000821415611d51576040518060400160405280600181526020017f30000000000000000000000000000000000000000000000000000000000000008152509050611e65565b600082905060005b60008214611d83578080611d6c906141ba565b915050600a82611d7c9190613fd5565b9150611d59565b60008167ffffffffffffffff811115611d9f57611d9e614348565b5b6040519080825280601f01601f191660200182016040528015611dd15781602001600182028036833780820191505090505b5090505b60008514611e5e57600182611dea9190614060565b9150600a85611df9919061425b565b6030611e059190613f7f565b60f81b818381518110611e1b57611e1a614319565b5b60200101907effffffffffffffffffffffffffffffffffffffffffffffffffffffffffffff1916908160001a905350600a85611e579190613fd5565b9450611dd5565b8093505050505b919050565b6000600360009054906101000a900473ffffffffffffffffffffffffffffffffffffffff16905081600360006101000a81548173ffffffffffffffffffffffffffffffffffffffff021916908373ffffffffffffffffffffffffffffffffffffffff1602179055508173ffffffffffffffffffffffffffffffffffffffff168173ffffffffffffffffffffffffffffffffffffffff167f8be0079c531659141344cd1fd0a4f28419497f9722a3daafe3b4186f6b6457e060405160405180910390a35050565b600d54600c54611f409190614006565b601654101561202857600d54602460008381526020019081526020016000205410611fa0576040517f08c379a0000000000000000000000000000000000000000000000000000000008152600401611f9790613b91565b60405180910390fd5b611fe2338260016040518060400160405280600481526020017f3078303000000000000000000000000000000000000000000000000000000000815250611b73565b60016024600083815260200190815260200160002060008282546120069190613f7f565b925050819055506001601660008282546120209190613f7f565b925050819055505b50565b600073ffffffffffffffffffffffffffffffffffffffff168373ffffffffffffffffffffffffffffffffffffffff16141561209b576040517f08c379a000000000000000000000000000000000000000000000000000000000815260040161209290613c31565b60405180910390fd5b60006120a5611857565b90506120d5818560006120b787612865565b6120c087612865565b60405180602001604052806000815250612676565b600080600085815260200190815260200160002060008673ffffffffffffffffffffffffffffffffffffffff1673ffffffffffffffffffffffffffffffffffffffff1681526020019081526020016000205490508281101561216c576040517f08c379a000000000000000000000000000000000000000000000000000000000815260040161216390613b51565b60405180910390fd5b82810360008086815260200190815260200160002060008773ffffffffffffffffffffffffffffffffffffffff1673ffffffffffffffffffffffffffffffffffffffff16815260200190815260200160002081905550600073ffffffffffffffffffffffffffffffffffffffff168573ffffffffffffffffffffffffffffffffffffffff168373ffffffffffffffffffffffffffffffffffffffff167fc3d58168c5ae7397731d063d5bbf3d657854427343f4c083240f7aacaa2d0f628787604051612239929190613d8c565b60405180910390a45050505050565b8173ffffffffffffffffffffffffffffffffffffffff168373ffffffffffffffffffffffffffffffffffffffff1614156122b7576040517f08c379a00000000000000000000000000000000000000000000000000000000081526004016122ae90613cf1565b60405180910390fd5b80600160008573ffffffffffffffffffffffffffffffffffffffff1673ffffffffffffffffffffffffffffffffffffffff16815260200190815260200160002060008473ffffffffffffffffffffffffffffffffffffffff1673ffffffffffffffffffffffffffffffffffffffff16815260200190815260200160002060006101000a81548160ff0219169083151502179055508173ffffffffffffffffffffffffffffffffffffffff168373ffffffffffffffffffffffffffffffffffffffff167f17307eab39ab6107e8899845ad3d59bd9653f200f220920489ca2b5937696c31836040516123a89190613a74565b60405180910390a3505050565b600081836123c39190613f7f565b905092915050565b600073ffffffffffffffffffffffffffffffffffffffff168473ffffffffffffffffffffffffffffffffffffffff16141561243b576040517f08c379a000000000000000000000000000000000000000000000000000000000815260040161243290613bd1565b60405180910390fd5b6000612445611857565b905061246581878761245688612865565b61245f88612865565b87612676565b600080600086815260200190815260200160002060008873ffffffffffffffffffffffffffffffffffffffff1673ffffffffffffffffffffffffffffffffffffffff168152602001908152602001600020549050838110156124fc576040517f08c379a00000000000000000000000000000000000000000000000000000000081526004016124f390613c51565b60405180910390fd5b83810360008087815260200190815260200160002060008973ffffffffffffffffffffffffffffffffffffffff1673ffffffffffffffffffffffffffffffffffffffff168152602001908152602001600020819055508360008087815260200190815260200160002060008873ffffffffffffffffffffffffffffffffffffffff1673ffffffffffffffffffffffffffffffffffffffff16815260200190815260200160002060008282546125b19190613f7f565b925050819055508573ffffffffffffffffffffffffffffffffffffffff168773ffffffffffffffffffffffffffffffffffffffff168373ffffffffffffffffffffffffffffffffffffffff167fc3d58168c5ae7397731d063d5bbf3d657854427343f4c083240f7aacaa2d0f62888860405161262e929190613d8c565b60405180910390a46126448288888888886128df565b50505050505050565b60008151905060006a636f6e736f6c652e6c6f679050602083016000808483855afa5050505050565b505050505050565b61269d8473ffffffffffffffffffffffffffffffffffffffff16612ac6565b1561285d578373ffffffffffffffffffffffffffffffffffffffff1663bc197c8187878686866040518663ffffffff1660e01b81526004016126e39594939291906138d1565b602060405180830381600087803b1580156126fd57600080fd5b505af192505050801561272e57506040513d601f19601f8201168201806040525081019061272b919061313d565b60015b6127d45761273a614377565b806308c379a01415612797575061274f614a12565b8061275a5750612799565b806040517f08c379a000000000000000000000000000000000000000000000000000000000815260040161278e9190613a8f565b60405180910390fd5b505b6040517f08c379a00000000000000000000000000000000000000000000000000000000081526004016127cb90613ab1565b60405180910390fd5b63bc197c8160e01b7bffffffffffffffffffffffffffffffffffffffffffffffffffffffff1916817bffffffffffffffffffffffffffffffffffffffffffffffffffffffff19161461285b576040517f08c379a000000000000000000000000000000000000000000000000000000000815260040161285290613ad1565b60405180910390fd5b505b505050505050565b60606000600167ffffffffffffffff81111561288457612883614348565b5b6040519080825280602002602001820160405280156128b25781602001602082028036833780820191505090505b50905082816000815181106128ca576128c9614319565b5b60200260200101818152505080915050919050565b6128fe8473ffffffffffffffffffffffffffffffffffffffff16612ac6565b15612abe578373ffffffffffffffffffffffffffffffffffffffff1663f23a6e6187878686866040518663ffffffff1660e01b8152600401612944959493929190613939565b602060405180830381600087803b15801561295e57600080fd5b505af192505050801561298f57506040513d601f19601f8201168201806040525081019061298c919061313d565b60015b612a355761299b614377565b806308c379a014156129f857506129b0614a12565b806129bb57506129fa565b806040517f08c379a00000000000000000000000000000000000000000000000000000000081526004016129ef9190613a8f565b60405180910390fd5b505b6040517f08c379a0000000000000000000000000000000000000000000000000000000008152600401612a2c90613ab1565b60405180910390fd5b63f23a6e6160e01b7bffffffffffffffffffffffffffffffffffffffffffffffffffffffff1916817bffffffffffffffffffffffffffffffffffffffffffffffffffffffff191614612abc576040517f08c379a0000000000000000000000000000000000000000000000000000000008152600401612ab390613ad1565b60405180910390fd5b505b505050505050565b600080823b905060008111915050919050565b828054612ae590614157565b90600052602060002090601f016020900481019282612b075760008555612b4e565b82601f10612b2057805160ff1916838001178555612b4e565b82800160010185558215612b4e579182015b82811115612b4d578251825591602001919060010190612b32565b5b509050612b5b9190612ba3565b5090565b6040518060a00160405280600590602082028036833780820191505090505090565b6040518060600160405280600390602082028036833780820191505090505090565b5b80821115612bbc576000816000905550600101612ba4565b5090565b6000612bd3612bce84613dda565b613db5565b90508083825260208201905082856020860282011115612bf657612bf561439e565b5b60005b85811015612c265781612c0c8882612d24565b845260208401935060208301925050600181019050612bf9565b5050509392505050565b6000612c43612c3e84613e06565b613db5565b90508083825260208201905082856020860282011115612c6657612c6561439e565b5b60005b85811015612c965781612c7c8882612e30565b845260208401935060208301925050600181019050612c69565b5050509392505050565b6000612cb3612cae84613e32565b613db5565b905082815260208101848484011115612ccf57612cce6143a3565b5b612cda848285614115565b509392505050565b6000612cf5612cf084613e63565b613db5565b905082815260208101848484011115612d1157612d106143a3565b5b612d1c848285614115565b509392505050565b600081359050612d3381614aa8565b92915050565b600082601f830112612d4e57612d4d614399565b5b8135612d5e848260208601612bc0565b91505092915050565b600082601f830112612d7c57612d7b614399565b5b8135612d8c848260208601612c30565b91505092915050565b600081359050612da481614abf565b92915050565b600081359050612db981614ad6565b92915050565b600081519050612dce81614ad6565b92915050565b600082601f830112612de957612de8614399565b5b8135612df9848260208601612ca0565b91505092915050565b600082601f830112612e1757612e16614399565b5b8135612e27848260208601612ce2565b91505092915050565b600081359050612e3f81614aed565b92915050565b600060208284031215612e5b57612e5a6143ad565b5b6000612e6984828501612d24565b91505092915050565b60008060408385031215612e8957612e886143ad565b5b6000612e9785828601612d24565b9250506020612ea885828601612d24565b9150509250929050565b600080600080600060a08688031215612ece57612ecd6143ad565b5b6000612edc88828901612d24565b9550506020612eed88828901612d24565b945050604086013567ffffffffffffffff811115612f0e57612f0d6143a8565b5b612f1a88828901612d67565b935050606086013567ffffffffffffffff811115612f3b57612f3a6143a8565b5b612f4788828901612d67565b925050608086013567ffffffffffffffff811115612f6857612f676143a8565b5b612f7488828901612dd4565b9150509295509295909350565b600080600080600060a08688031215612f9d57612f9c6143ad565b5b6000612fab88828901612d24565b9550506020612fbc88828901612d24565b9450506040612fcd88828901612e30565b9350506060612fde88828901612e30565b925050608086013567ffffffffffffffff811115612fff57612ffe6143a8565b5b61300b88828901612dd4565b9150509295509295909350565b6000806040838503121561302f5761302e6143ad565b5b600061303d85828601612d24565b925050602061304e85828601612d95565b9150509250929050565b6000806040838503121561306f5761306e6143ad565b5b600061307d85828601612d24565b925050602061308e85828601612e30565b9150509250929050565b600080604083850312156130af576130ae6143ad565b5b600083013567ffffffffffffffff8111156130cd576130cc6143a8565b5b6130d985828601612d39565b925050602083013567ffffffffffffffff8111156130fa576130f96143a8565b5b61310685828601612d67565b9150509250929050565b600060208284031215613126576131256143ad565b5b600061313484828501612daa565b91505092915050565b600060208284031215613153576131526143ad565b5b600061316184828501612dbf565b91505092915050565b6000602082840312156131805761317f6143ad565b5b600082013567ffffffffffffffff81111561319e5761319d6143a8565b5b6131aa84828501612e02565b91505092915050565b6000602082840312156131c9576131c86143ad565b5b60006131d784828501612e30565b91505092915050565b600080604083850312156131f7576131f66143ad565b5b600061320585828601612e30565b925050602083013567ffffffffffffffff811115613226576132256143a8565b5b61323285828601612e02565b9150509250929050565b600061324883836137dc565b60208301905092915050565b61325d81614094565b82525050565b61327461326f82614094565b61422d565b82525050565b61328381613ecd565b61328d8184613f2b565b925061329882613e94565b8060005b838110156132c95781516132b0878261323c565b96506132bb83613f04565b92505060018101905061329c565b505050505050565b6132da81613ed8565b6132e48184613f36565b92506132ef82613e9e565b8060005b83811015613320578151613307878261323c565b965061331283613f11565b9250506001810190506132f3565b505050505050565b600061333382613ee3565b61333d8185613f41565b935061334883613ea8565b8060005b83811015613379578151613360888261323c565b975061336b83613f1e565b92505060018101905061334c565b5085935050505092915050565b61338f816140a6565b82525050565b60006133a082613eee565b6133aa8185613f52565b93506133ba818560208601614124565b6133c3816143b2565b840191505092915050565b60006133d982613ef9565b6133e38185613f63565b93506133f3818560208601614124565b6133fc816143b2565b840191505092915050565b600061341282613ef9565b61341c8185613f74565b935061342c818560208601614124565b80840191505092915050565b6000815461344581614157565b61344f8186613f74565b9450600182166000811461346a576001811461347b576134ae565b60ff198316865281860193506134ae565b61348485613eb8565b60005b838110156134a657815481890152600182019150602081019050613487565b838801955050505b50505092915050565b60006134c4603483613f63565b91506134cf826143dd565b604082019050919050565b60006134e7602883613f63565b91506134f28261442c565b604082019050919050565b600061350a601b83613f63565b91506135158261447b565b602082019050919050565b600061352d602b83613f63565b9150613538826144a4565b604082019050919050565b6000613550602683613f63565b915061355b826144f3565b604082019050919050565b6000613573602483613f63565b915061357e82614542565b604082019050919050565b6000613596602983613f63565b91506135a182614591565b604082019050919050565b60006135b9602d83613f63565b91506135c4826145e0565b604082019050919050565b60006135dc601d83613f63565b91506135e78261462f565b602082019050919050565b60006135ff602583613f63565b915061360a82614658565b604082019050919050565b6000613622603283613f63565b915061362d826146a7565b604082019050919050565b6000613645601483613f63565b9150613650826146f6565b602082019050919050565b6000613668602383613f63565b91506136738261471f565b604082019050919050565b600061368b602a83613f63565b91506136968261476e565b604082019050919050565b60006136ae600583613f74565b91506136b9826147bd565b600582019050919050565b60006136d1602083613f63565b91506136dc826147e6565b602082019050919050565b60006136f4602383613f63565b91506136ff8261480f565b604082019050919050565b6000613717602b83613f63565b91506137228261485e565b604082019050919050565b600061373a601f83613f63565b9150613745826148ad565b602082019050919050565b600061375d602983613f63565b9150613768826148d6565b604082019050919050565b6000613780602983613f63565b915061378b82614925565b604082019050919050565b60006137a3602883613f63565b91506137ae82614974565b604082019050919050565b60006137c6602183613f63565b91506137d1826149c3565b604082019050919050565b6137e5816140fe565b82525050565b6137f4816140fe565b82525050565b61380b613806826140fe565b614251565b82525050565b600061381d8284613438565b915081905092915050565b60006138348285613438565b91506138408284613407565b915061384b826136a1565b91508190509392505050565b600061386382886137fa565b6020820191506138738287613263565b60148201915061388382866137fa565b60208201915061389382856137fa565b6020820191506138a382846137fa565b6020820191508190509695505050505050565b60006020820190506138cb6000830184613254565b92915050565b600060a0820190506138e66000830188613254565b6138f36020830187613254565b81810360408301526139058186613328565b905081810360608301526139198185613328565b9050818103608083015261392d8184613395565b90509695505050505050565b600060a08201905061394e6000830188613254565b61395b6020830187613254565b61396860408301866137eb565b61397560608301856137eb565b81810360808301526139878184613395565b90509695505050505050565b60006040820190506139a86000830185613254565b6139b560208301846137eb565b9392505050565b60006060820190506139d1600083018461327a565b92915050565b600060a0820190506139ec60008301846132d1565b92915050565b600060c082019050613a0760008301856132d1565b613a1460a0830184613254565b9392505050565b60006020820190508181036000830152613a358184613328565b905092915050565b60006040820190508181036000830152613a578185613328565b90508181036020830152613a6b8184613328565b90509392505050565b6000602082019050613a896000830184613386565b92915050565b60006020820190508181036000830152613aa981846133ce565b905092915050565b60006020820190508181036000830152613aca816134b7565b9050919050565b60006020820190508181036000830152613aea816134da565b9050919050565b60006020820190508181036000830152613b0a816134fd565b9050919050565b60006020820190508181036000830152613b2a81613520565b9050919050565b60006020820190508181036000830152613b4a81613543565b9050919050565b60006020820190508181036000830152613b6a81613566565b9050919050565b60006020820190508181036000830152613b8a81613589565b9050919050565b60006020820190508181036000830152613baa816135ac565b9050919050565b60006020820190508181036000830152613bca816135cf565b9050919050565b60006020820190508181036000830152613bea816135f2565b9050919050565b60006020820190508181036000830152613c0a81613615565b9050919050565b60006020820190508181036000830152613c2a81613638565b9050919050565b60006020820190508181036000830152613c4a8161365b565b9050919050565b60006020820190508181036000830152613c6a8161367e565b9050919050565b60006020820190508181036000830152613c8a816136c4565b9050919050565b60006020820190508181036000830152613caa816136e7565b9050919050565b60006020820190508181036000830152613cca8161370a565b9050919050565b60006020820190508181036000830152613cea8161372d565b9050919050565b60006020820190508181036000830152613d0a81613750565b9050919050565b60006020820190508181036000830152613d2a81613773565b9050919050565b60006020820190508181036000830152613d4a81613796565b9050919050565b60006020820190508181036000830152613d6a816137b9565b9050919050565b6000602082019050613d8660008301846137eb565b92915050565b6000604082019050613da160008301856137eb565b613dae60208301846137eb565b9392505050565b6000613dbf613dd0565b9050613dcb8282614189565b919050565b6000604051905090565b600067ffffffffffffffff821115613df557613df4614348565b5b602082029050602081019050919050565b600067ffffffffffffffff821115613e2157613e20614348565b5b602082029050602081019050919050565b600067ffffffffffffffff821115613e4d57613e4c614348565b5b613e56826143b2565b9050602081019050919050565b600067ffffffffffffffff821115613e7e57613e7d614348565b5b613e87826143b2565b9050602081019050919050565b6000819050919050565b6000819050919050565b6000819050602082019050919050565b60008190508160005260206000209050919050565b600060039050919050565b600060059050919050565b600081519050919050565b600081519050919050565b600081519050919050565b6000602082019050919050565b6000602082019050919050565b6000602082019050919050565b600081905092915050565b600081905092915050565b600082825260208201905092915050565b600082825260208201905092915050565b600082825260208201905092915050565b600081905092915050565b6000613f8a826140fe565b9150613f95836140fe565b9250827fffffffffffffffffffffffffffffffffffffffffffffffffffffffffffffffff03821115613fca57613fc961428c565b5b828201905092915050565b6000613fe0826140fe565b9150613feb836140fe565b925082613ffb57613ffa6142bb565b5b828204905092915050565b6000614011826140fe565b915061401c836140fe565b9250817fffffffffffffffffffffffffffffffffffffffffffffffffffffffffffffffff04831182151516156140555761405461428c565b5b828202905092915050565b600061406b826140fe565b9150614076836140fe565b9250828210156140895761408861428c565b5b828203905092915050565b600061409f826140de565b9050919050565b60008115159050919050565b60007fffffffff0000000000000000000000000000000000000000000000000000000082169050919050565b600073ffffffffffffffffffffffffffffffffffffffff82169050919050565b6000819050919050565b600060ff82169050919050565b82818337600083830152505050565b60005b83811015614142578082015181840152602081019050614127565b83811115614151576000848401525b50505050565b6000600282049050600182168061416f57607f821691505b60208210811415614183576141826142ea565b5b50919050565b614192826143b2565b810181811067ffffffffffffffff821117156141b1576141b0614348565b5b80604052505050565b60006141c5826140fe565b91507fffffffffffffffffffffffffffffffffffffffffffffffffffffffffffffffff8214156141f8576141f761428c565b5b600182019050919050565b600061420e82614108565b915060ff8214156142225761422161428c565b5b600182019050919050565b60006142388261423f565b9050919050565b600061424a826143c3565b9050919050565b6000819050919050565b6000614266826140fe565b9150614271836140fe565b925082614281576142806142bb565b5b828206905092915050565b7f4e487b7100000000000000000000000000000000000000000000000000000000600052601160045260246000fd5b7f4e487b7100000000000000000000000000000000000000000000000000000000600052601260045260246000fd5b7f4e487b7100000000000000000000000000000000000000000000000000000000600052602260045260246000fd5b7f4e487b7100000000000000000000000000000000000000000000000000000000600052603260045260246000fd5b7f4e487b7100000000000000000000000000000000000000000000000000000000600052604160045260246000fd5b600060033d11156143965760046000803e6143936000516143d0565b90505b90565b600080fd5b600080fd5b600080fd5b600080fd5b600080fd5b6000601f19601f8301169050919050565b60008160601b9050919050565b60008160e01c9050919050565b7f455243313135353a207472616e7366657220746f206e6f6e204552433131353560008201527f526563656976657220696d706c656d656e746572000000000000000000000000602082015250565b7f455243313135353a204552433131353552656365697665722072656a6563746560008201527f6420746f6b656e73000000000000000000000000000000000000000000000000602082015250565b7f4e6f2072656d61696e696e6720626f6f73746572207061636b73210000000000600082015250565b7f455243313135353a2062616c616e636520717565727920666f7220746865207a60008201527f65726f2061646472657373000000000000000000000000000000000000000000602082015250565b7f4f776e61626c653a206e6577206f776e657220697320746865207a65726f206160008201527f6464726573730000000000000000000000000000000000000000000000000000602082015250565b7f455243313135353a206275726e20616d6f756e7420657863656564732062616c60008201527f616e636500000000000000000000000000000000000000000000000000000000602082015250565b7f455243313135353a2063616c6c6572206973206e6f74206f776e6572206e6f7260008201527f20617070726f7665640000000000000000000000000000000000000000000000602082015250565b7f416c6c206f662074686973206174686c657465206861766520616c726561647960008201527f206265656e206d696e7465642100000000000000000000000000000000000000602082015250565b7f5374617274696e6720696e64657820697320616c726561647920736574000000600082015250565b7f455243313135353a207472616e7366657220746f20746865207a65726f20616460008201527f6472657373000000000000000000000000000000000000000000000000000000602082015250565b7f455243313135353a207472616e736665722063616c6c6572206973206e6f742060008201527f6f776e6572206e6f7220617070726f7665640000000000000000000000000000602082015250565b7f43616e6e6f742073657420757269207477696365000000000000000000000000600082015250565b7f455243313135353a206275726e2066726f6d20746865207a65726f206164647260008201527f6573730000000000000000000000000000000000000000000000000000000000602082015250565b7f455243313135353a20696e73756666696369656e742062616c616e636520666f60008201527f72207472616e7366657200000000000000000000000000000000000000000000602082015250565b7f2e6a736f6e000000000000000000000000000000000000000000000000000000600082015250565b7f4f776e61626c653a2063616c6c6572206973206e6f7420746865206f776e6572600082015250565b7f416c6c207061636b73206861766520616c7265616479206265656e206d696e7460008201527f6564210000000000000000000000000000000000000000000000000000000000602082015250565b7f43616e206f6e6c79206d696e742074776f20626f6f73746572207061636b732060008201527f706572206163636f756e74000000000000000000000000000000000000000000602082015250565b7f5061636b73206172656e277420726561647920746f206f70656e207965742100600082015250565b7f455243313135353a2073657474696e6720617070726f76616c2073746174757360008201527f20666f722073656c660000000000000000000000000000000000000000000000602082015250565b7f455243313135353a206163636f756e747320616e6420696473206c656e67746860008201527f206d69736d617463680000000000000000000000000000000000000000000000602082015250565b7f455243313135353a2069647320616e6420616d6f756e7473206c656e6774682060008201527f6d69736d61746368000000000000000000000000000000000000000000000000602082015250565b7f455243313135353a206d696e7420746f20746865207a65726f2061646472657360008201527f7300000000000000000000000000000000000000000000000000000000000000602082015250565b600060443d1015614a2257614aa5565b614a2a613dd0565b60043d036004823e80513d602482011167ffffffffffffffff82111715614a52575050614aa5565b808201805167ffffffffffffffff811115614a705750505050614aa5565b80602083010160043d038501811115614a8d575050505050614aa5565b614a9c82602001850186614189565b82955050505050505b90565b614ab181614094565b8114614abc57600080fd5b50565b614ac8816140a6565b8114614ad357600080fd5b50565b614adf816140b2565b8114614aea57600080fd5b50565b614af6816140fe565b8114614b0157600080fd5b5056fea2646970667358221220a1ce123ccc8696a1bfcce84e4dc685cdbcdbc766f8c93004b1b50eacb9d7100f64736f6c63430008070033",
  "linkReferences": {},
  "deployedLinkReferences": {}
}