{
  "_format": "hh-sol-artifact-1",
  "contractName": "GameItems",
  "sourceName": "contracts/GameItems.sol",
  "abi": [
    {
      "inputs": [
        {
          "components": [
            {
              "internalType": "uint256",
              "name": "_numAthletes",
              "type": "uint256"
            },
            {
              "internalType": "uint256",
              "name": "_nftPerAthlete",
              "type": "uint256"
            },
            {
              "internalType": "uint256",
              "name": "_starterPackSize",
              "type": "uint256"
            },
            {
              "internalType": "uint256",
              "name": "_boosterPackSize",
              "type": "uint256"
            },
            {
              "internalType": "uint256",
              "name": "_maxStarterPackBalance",
              "type": "uint256"
            },
            {
              "internalType": "uint256",
              "name": "_maxBoosterPackBalance",
              "type": "uint256"
            },
            {
              "internalType": "uint256",
              "name": "_maxPacks",
              "type": "uint256"
            },
            {
              "internalType": "uint256",
              "name": "_maxBoosterPacks",
              "type": "uint256"
            },
            {
              "internalType": "uint256",
              "name": "_revealTimestamp",
              "type": "uint256"
            }
          ],
          "internalType": "struct GameItems.Parameters",
          "name": "params",
          "type": "tuple"
        },
        {
          "internalType": "string",
          "name": "_athleteURI",
          "type": "string"
        },
        {
          "internalType": "string",
          "name": "_starterPackURI",
          "type": "string"
        },
        {
          "internalType": "string",
          "name": "_boosterPackURI",
          "type": "string"
        }
      ],
      "stateMutability": "nonpayable",
      "type": "constructor"
    },
    {
      "anonymous": false,
      "inputs": [
        {
          "indexed": true,
          "internalType": "address",
          "name": "account",
          "type": "address"
        },
        {
          "indexed": true,
          "internalType": "address",
          "name": "operator",
          "type": "address"
        },
        {
          "indexed": false,
          "internalType": "bool",
          "name": "approved",
          "type": "bool"
        }
      ],
      "name": "ApprovalForAll",
      "type": "event"
    },
    {
      "anonymous": false,
      "inputs": [
        {
          "indexed": true,
          "internalType": "address",
          "name": "previousOwner",
          "type": "address"
        },
        {
          "indexed": true,
          "internalType": "address",
          "name": "newOwner",
          "type": "address"
        }
      ],
      "name": "OwnershipTransferred",
      "type": "event"
    },
    {
      "anonymous": false,
      "inputs": [
        {
          "indexed": true,
          "internalType": "address",
          "name": "operator",
          "type": "address"
        },
        {
          "indexed": true,
          "internalType": "address",
          "name": "from",
          "type": "address"
        },
        {
          "indexed": true,
          "internalType": "address",
          "name": "to",
          "type": "address"
        },
        {
          "indexed": false,
          "internalType": "uint256[]",
          "name": "ids",
          "type": "uint256[]"
        },
        {
          "indexed": false,
          "internalType": "uint256[]",
          "name": "values",
          "type": "uint256[]"
        }
      ],
      "name": "TransferBatch",
      "type": "event"
    },
    {
      "anonymous": false,
      "inputs": [
        {
          "indexed": true,
          "internalType": "address",
          "name": "operator",
          "type": "address"
        },
        {
          "indexed": true,
          "internalType": "address",
          "name": "from",
          "type": "address"
        },
        {
          "indexed": true,
          "internalType": "address",
          "name": "to",
          "type": "address"
        },
        {
          "indexed": false,
          "internalType": "uint256",
          "name": "id",
          "type": "uint256"
        },
        {
          "indexed": false,
          "internalType": "uint256",
          "name": "value",
          "type": "uint256"
        }
      ],
      "name": "TransferSingle",
      "type": "event"
    },
    {
      "anonymous": false,
      "inputs": [
        {
          "indexed": false,
          "internalType": "string",
          "name": "value",
          "type": "string"
        },
        {
          "indexed": true,
          "internalType": "uint256",
          "name": "id",
          "type": "uint256"
        }
      ],
      "name": "URI",
      "type": "event"
    },
    {
      "anonymous": false,
      "inputs": [
        {
          "indexed": false,
          "internalType": "uint256[5]",
          "name": "",
          "type": "uint256[5]"
        },
        {
          "indexed": false,
          "internalType": "address",
          "name": "signer",
          "type": "address"
        }
      ],
      "name": "packBurned",
      "type": "event"
    },
    {
      "anonymous": false,
      "inputs": [
        {
          "indexed": false,
          "internalType": "address",
          "name": "signer",
          "type": "address"
        },
        {
          "indexed": false,
          "internalType": "uint256",
          "name": "id",
          "type": "uint256"
        }
      ],
      "name": "packMinted",
      "type": "event"
    },
    {
      "inputs": [],
      "name": "REVEAL_TIMESTAMP",
      "outputs": [
        {
          "internalType": "uint256",
          "name": "",
          "type": "uint256"
        }
      ],
      "stateMutability": "view",
      "type": "function"
    },
    {
      "inputs": [
        {
          "internalType": "address",
          "name": "_userToAdd",
          "type": "address"
        }
      ],
      "name": "addUserToWhitelist",
      "outputs": [
        {
          "internalType": "bool",
          "name": "success",
          "type": "bool"
        }
      ],
      "stateMutability": "nonpayable",
      "type": "function"
    },
    {
      "inputs": [
        {
          "internalType": "address[]",
          "name": "addrs",
          "type": "address[]"
        }
      ],
      "name": "addUsersToWhitelist",
      "outputs": [
        {
          "internalType": "bool",
          "name": "success",
          "type": "bool"
        }
      ],
      "stateMutability": "nonpayable",
      "type": "function"
    },
    {
      "inputs": [],
      "name": "allowBoosterPacks",
      "outputs": [],
      "stateMutability": "nonpayable",
      "type": "function"
    },
    {
      "inputs": [],
      "name": "allowStarterPacks",
      "outputs": [],
      "stateMutability": "nonpayable",
      "type": "function"
    },
    {
      "inputs": [
        {
          "internalType": "address",
          "name": "account",
          "type": "address"
        },
        {
          "internalType": "uint256",
          "name": "id",
          "type": "uint256"
        }
      ],
      "name": "balanceOf",
      "outputs": [
        {
          "internalType": "uint256",
          "name": "",
          "type": "uint256"
        }
      ],
      "stateMutability": "view",
      "type": "function"
    },
    {
      "inputs": [
        {
          "internalType": "address[]",
          "name": "accounts",
          "type": "address[]"
        },
        {
          "internalType": "uint256[]",
          "name": "ids",
          "type": "uint256[]"
        }
      ],
      "name": "balanceOfBatch",
      "outputs": [
        {
          "internalType": "uint256[]",
          "name": "",
          "type": "uint256[]"
        }
      ],
      "stateMutability": "view",
      "type": "function"
    },
    {
      "inputs": [],
      "name": "boosterPacksReadyToOpen",
      "outputs": [
        {
          "internalType": "bool",
          "name": "",
          "type": "bool"
        }
      ],
      "stateMutability": "view",
      "type": "function"
    },
    {
      "inputs": [],
      "name": "burnBoosterPack",
      "outputs": [],
      "stateMutability": "nonpayable",
      "type": "function"
    },
    {
      "inputs": [],
      "name": "burnStarterPack",
      "outputs": [],
      "stateMutability": "nonpayable",
      "type": "function"
    },
    {
      "inputs": [],
      "name": "getNumWhitelisted",
      "outputs": [
        {
          "internalType": "uint256",
          "name": "",
          "type": "uint256"
        }
      ],
      "stateMutability": "view",
      "type": "function"
    },
    {
      "inputs": [
        {
          "internalType": "address",
          "name": "account",
          "type": "address"
        },
        {
          "internalType": "address",
          "name": "operator",
          "type": "address"
        }
      ],
      "name": "isApprovedForAll",
      "outputs": [
        {
          "internalType": "bool",
          "name": "",
          "type": "bool"
        }
      ],
      "stateMutability": "view",
      "type": "function"
    },
    {
      "inputs": [],
      "name": "mintBoosterPack",
      "outputs": [],
      "stateMutability": "nonpayable",
      "type": "function"
    },
    {
      "inputs": [],
      "name": "mintStarterPack",
      "outputs": [],
      "stateMutability": "nonpayable",
      "type": "function"
    },
    {
      "inputs": [],
      "name": "name",
      "outputs": [
        {
          "internalType": "string",
          "name": "",
          "type": "string"
        }
      ],
      "stateMutability": "view",
      "type": "function"
    },
    {
      "inputs": [],
      "name": "numWhitelisted",
      "outputs": [
        {
          "internalType": "uint256",
          "name": "",
          "type": "uint256"
        }
      ],
      "stateMutability": "view",
      "type": "function"
    },
    {
      "inputs": [],
      "name": "openBoosterPackSale",
      "outputs": [],
      "stateMutability": "nonpayable",
      "type": "function"
    },
    {
      "inputs": [],
      "name": "openPrivateSale",
      "outputs": [],
      "stateMutability": "nonpayable",
      "type": "function"
    },
    {
      "inputs": [],
      "name": "openPublicSale",
      "outputs": [],
      "stateMutability": "nonpayable",
      "type": "function"
    },
    {
      "inputs": [],
      "name": "owner",
      "outputs": [
        {
          "internalType": "address",
          "name": "",
          "type": "address"
        }
      ],
      "stateMutability": "view",
      "type": "function"
    },
    {
      "inputs": [],
      "name": "packsAvailable",
      "outputs": [
        {
          "internalType": "uint256",
          "name": "",
          "type": "uint256"
        }
      ],
      "stateMutability": "view",
      "type": "function"
    },
    {
      "inputs": [],
      "name": "packsReadyToOpen",
      "outputs": [
        {
          "internalType": "bool",
          "name": "",
          "type": "bool"
        }
      ],
      "stateMutability": "view",
      "type": "function"
    },
    {
      "inputs": [
        {
          "internalType": "address",
          "name": "_userToRemove",
          "type": "address"
        }
      ],
      "name": "removeUserFromWhitelist",
      "outputs": [
        {
          "internalType": "bool",
          "name": "success",
          "type": "bool"
        }
      ],
      "stateMutability": "nonpayable",
      "type": "function"
    },
    {
      "inputs": [
        {
          "internalType": "address[]",
          "name": "addrs",
          "type": "address[]"
        }
      ],
      "name": "removeUsersFromWhitelist",
      "outputs": [
        {
          "internalType": "bool",
          "name": "success",
          "type": "bool"
        }
      ],
      "stateMutability": "nonpayable",
      "type": "function"
    },
    {
      "inputs": [],
      "name": "renounceOwnership",
      "outputs": [],
      "stateMutability": "nonpayable",
      "type": "function"
    },
    {
      "inputs": [
        {
          "internalType": "address",
          "name": "from",
          "type": "address"
        },
        {
          "internalType": "address",
          "name": "to",
          "type": "address"
        },
        {
          "internalType": "uint256[]",
          "name": "ids",
          "type": "uint256[]"
        },
        {
          "internalType": "uint256[]",
          "name": "amounts",
          "type": "uint256[]"
        },
        {
          "internalType": "bytes",
          "name": "data",
          "type": "bytes"
        }
      ],
      "name": "safeBatchTransferFrom",
      "outputs": [],
      "stateMutability": "nonpayable",
      "type": "function"
    },
    {
      "inputs": [
        {
          "internalType": "address",
          "name": "from",
          "type": "address"
        },
        {
          "internalType": "address",
          "name": "to",
          "type": "address"
        },
        {
          "internalType": "uint256",
          "name": "id",
          "type": "uint256"
        },
        {
          "internalType": "uint256",
          "name": "amount",
          "type": "uint256"
        },
        {
          "internalType": "bytes",
          "name": "data",
          "type": "bytes"
        }
      ],
      "name": "safeTransferFrom",
      "outputs": [],
      "stateMutability": "nonpayable",
      "type": "function"
    },
    {
      "inputs": [
        {
          "internalType": "address",
          "name": "operator",
          "type": "address"
        },
        {
          "internalType": "bool",
          "name": "approved",
          "type": "bool"
        }
      ],
      "name": "setApprovalForAll",
      "outputs": [],
      "stateMutability": "nonpayable",
      "type": "function"
    },
    {
      "inputs": [],
      "name": "setStartingIndex",
      "outputs": [],
      "stateMutability": "nonpayable",
      "type": "function"
    },
    {
      "inputs": [
        {
          "internalType": "uint256",
          "name": "tokenId",
          "type": "uint256"
        },
        {
          "internalType": "string",
          "name": "uri",
          "type": "string"
        }
      ],
      "name": "setTokenUri",
      "outputs": [],
      "stateMutability": "nonpayable",
      "type": "function"
    },
    {
      "inputs": [],
      "name": "setURIs",
      "outputs": [],
      "stateMutability": "nonpayable",
      "type": "function"
    },
    {
      "inputs": [
        {
          "internalType": "bytes4",
          "name": "interfaceId",
          "type": "bytes4"
        }
      ],
      "name": "supportsInterface",
      "outputs": [
        {
          "internalType": "bool",
          "name": "",
          "type": "bool"
        }
      ],
      "stateMutability": "view",
      "type": "function"
    },
    {
      "inputs": [
        {
          "internalType": "address",
          "name": "newOwner",
          "type": "address"
        }
      ],
      "name": "transferOwnership",
      "outputs": [],
      "stateMutability": "nonpayable",
      "type": "function"
    },
    {
      "inputs": [
        {
          "internalType": "uint256",
          "name": "tokenId",
          "type": "uint256"
        }
      ],
      "name": "uri",
      "outputs": [
        {
          "internalType": "string",
          "name": "",
          "type": "string"
        }
      ],
      "stateMutability": "view",
      "type": "function"
    },
    {
      "inputs": [
        {
          "internalType": "address",
          "name": "",
          "type": "address"
        }
      ],
      "name": "userToHasBurnedStarterPack",
      "outputs": [
        {
          "internalType": "bool",
          "name": "",
          "type": "bool"
        }
      ],
      "stateMutability": "view",
      "type": "function"
    },
    {
      "inputs": [
        {
          "internalType": "address",
          "name": "",
          "type": "address"
        }
      ],
      "name": "userToHasMintedStarterPack",
      "outputs": [
        {
          "internalType": "bool",
          "name": "",
          "type": "bool"
        }
      ],
      "stateMutability": "view",
      "type": "function"
    },
    {
      "inputs": [
        {
          "internalType": "address",
          "name": "",
          "type": "address"
        }
      ],
      "name": "usersBoosterPacksMinted",
      "outputs": [
        {
          "internalType": "uint256",
          "name": "",
          "type": "uint256"
        }
      ],
      "stateMutability": "view",
      "type": "function"
    },
    {
      "inputs": [
        {
          "internalType": "address",
          "name": "",
          "type": "address"
        }
      ],
      "name": "whitelist",
      "outputs": [
        {
          "internalType": "bool",
          "name": "",
          "type": "bool"
        }
      ],
      "stateMutability": "view",
      "type": "function"
    }
  ],
  "bytecode": "0x6080604052612710600f556040518060400160405280600881526020017f5465616d446966660000000000000000000000000000000000000000000000008152506010908051906020019062000057929190620002c7565b5060405180602001604052806000815250601790805190602001906200007f929190620002c7565b503480156200008d57600080fd5b5060405162006120380380620061208339818101604052810190620000b3919062000503565b6040518060400160405280600281526020017f5444000000000000000000000000000000000000000000000000000000000000815250620000fa81620001dd60201b60201c565b506200011b6200010f620001f960201b60201c565b6200020160201b60201c565b8360000151600d819055508360200151600e819055508360400151600781905550836060015160088190555083608001516009819055508360a00151600a819055508360c00151600b819055508360e00151600c8190555082600490805190602001906200018b929190620002c7565b508160059080519060200190620001a4929190620002c7565b508060069080519060200190620001bd929190620002c7565b50836101000151600f81905550600b546020819055505050505062000783565b8060029080519060200190620001f5929190620002c7565b5050565b600033905090565b6000600360009054906101000a900473ffffffffffffffffffffffffffffffffffffffff16905081600360006101000a81548173ffffffffffffffffffffffffffffffffffffffff021916908373ffffffffffffffffffffffffffffffffffffffff1602179055508173ffffffffffffffffffffffffffffffffffffffff168173ffffffffffffffffffffffffffffffffffffffff167f8be0079c531659141344cd1fd0a4f28419497f9722a3daafe3b4186f6b6457e060405160405180910390a35050565b828054620002d59062000675565b90600052602060002090601f016020900481019282620002f9576000855562000345565b82601f106200031457805160ff191683800117855562000345565b8280016001018555821562000345579182015b828111156200034457825182559160200191906001019062000327565b5b50905062000354919062000358565b5090565b5b808211156200037357600081600090555060010162000359565b5090565b60006200038e6200038884620005ff565b620005d6565b905082815260208101848484011115620003ad57620003ac62000749565b5b620003ba8482856200063f565b509392505050565b600082601f830112620003da57620003d96200073f565b5b8151620003ec84826020860162000377565b91505092915050565b600061012082840312156200040f576200040e62000744565b5b6200041c610120620005d6565b905060006200042e84828501620004ec565b60008301525060206200044484828501620004ec565b60208301525060406200045a84828501620004ec565b60408301525060606200047084828501620004ec565b60608301525060806200048684828501620004ec565b60808301525060a06200049c84828501620004ec565b60a08301525060c0620004b284828501620004ec565b60c08301525060e0620004c884828501620004ec565b60e083015250610100620004df84828501620004ec565b6101008301525092915050565b600081519050620004fd8162000769565b92915050565b600080600080610180858703121562000521576200052062000753565b5b60006200053187828801620003f5565b94505061012085015167ffffffffffffffff8111156200055657620005556200074e565b5b6200056487828801620003c2565b93505061014085015167ffffffffffffffff8111156200058957620005886200074e565b5b6200059787828801620003c2565b92505061016085015167ffffffffffffffff811115620005bc57620005bb6200074e565b5b620005ca87828801620003c2565b91505092959194509250565b6000620005e2620005f5565b9050620005f08282620006ab565b919050565b6000604051905090565b600067ffffffffffffffff8211156200061d576200061c62000710565b5b620006288262000758565b9050602081019050919050565b6000819050919050565b60005b838110156200065f57808201518184015260208101905062000642565b838111156200066f576000848401525b50505050565b600060028204905060018216806200068e57607f821691505b60208210811415620006a557620006a4620006e1565b5b50919050565b620006b68262000758565b810181811067ffffffffffffffff82111715620006d857620006d762000710565b5b80604052505050565b7f4e487b7100000000000000000000000000000000000000000000000000000000600052602260045260246000fd5b7f4e487b7100000000000000000000000000000000000000000000000000000000600052604160045260246000fd5b600080fd5b600080fd5b600080fd5b600080fd5b600080fd5b6000601f19601f8301169050919050565b620007748162000635565b81146200078057600080fd5b50565b61598d80620007936000396000f3fe608060405234801561001057600080fd5b50600436106102315760003560e01c80639b19251a11610130578063be59ec26116100b8578063e985e9c51161007c578063e985e9c5146105f8578063e986655014610628578063f242432a14610632578063f2fde38b1461064e578063f9902bb11461066a57610231565b8063be59ec2614610552578063c54ec09614610570578063cb6bfdb91461057a578063d759000b146105aa578063e2bd21bc146105c857610231565b8063a788f4f4116100ff578063a788f4f4146104e6578063ac4c07d414610504578063afb8fd2d14610534578063b585209b1461053e578063bbb13e171461054857610231565b80639b19251a146104865780639ebf488b146104b6578063a22cb465146104c0578063a6ad4c01146104dc57610231565b80634f3551d7116101be578063715018a611610182578063715018a6146103f4578063747b8050146103fe57806375223f921461042e5780638d21c770146104385780638da5cb5b1461046857610231565b80634f3551d71461037657806354dacb961461038057806357f7789e1461039e5780635ae698ff146103ba5780635d2db2bf146103ea57610231565b806318e20a381161020557806318e20a38146102e45780632eb2c2d6146103025780634190a9221461031e57806344eaa84e146103285780634e1273f41461034657610231565b8062fdd58e1461023657806301ffc9a71461026657806306fdde03146102965780630e89341c146102b4575b600080fd5b610250600480360381019061024b9190613bb3565b61069a565b60405161025d9190614a14565b60405180910390f35b610280600480360381019061027b9190613cb4565b610763565b60405161028d9190614637565b60405180910390f35b61029e610845565b6040516102ab9190614652565b60405180910390f35b6102ce60048036038101906102c99190613d0e565b6108d3565b6040516102db9190614652565b60405180910390f35b6102ec610978565b6040516102f99190614a14565b60405180910390f35b61031c60048036038101906103179190613a0d565b61097e565b005b610326610a1f565b005b610330610ab8565b60405161033d9190614a14565b60405180910390f35b610360600480360381019061035b9190613c3c565b610ac2565b60405161036d91906145de565b60405180910390f35b61037e610bdb565b005b610388610dce565b6040516103959190614a14565b60405180910390f35b6103b860048036038101906103b39190613d3b565b610dd4565b005b6103d460048036038101906103cf9190613bf3565b610ede565b6040516103e19190614637565b60405180910390f35b6103f2610fae565b005b6103fc611105565b005b610418600480360381019061041391906139a0565b61118d565b6040516104259190614637565b60405180910390f35b6104366112d8565b005b610452600480360381019061044d9190613bf3565b6113e8565b60405161045f9190614637565b60405180910390f35b6104706114b8565b60405161047d91906144af565b60405180910390f35b6104a0600480360381019061049b91906139a0565b6114e2565b6040516104ad9190614637565b60405180910390f35b6104be611502565b005b6104da60048036038101906104d59190613b73565b611809565b005b6104e461181f565b005b6104ee6118b8565b6040516104fb9190614637565b60405180910390f35b61051e600480360381019061051991906139a0565b6118cb565b60405161052b9190614a14565b60405180910390f35b61053c6118e3565b005b61054661197c565b005b610550611a15565b005b61055a611c37565b6040516105679190614637565b60405180910390f35b610578611c4a565b005b610594600480360381019061058f91906139a0565b611ce3565b6040516105a19190614637565b60405180910390f35b6105b2611d03565b6040516105bf9190614a14565b60405180910390f35b6105e260048036038101906105dd91906139a0565b611d09565b6040516105ef9190614637565b60405180910390f35b610612600480360381019061060d91906139cd565b611d29565b60405161061f9190614637565b60405180910390f35b610630611dbd565b005b61064c60048036038101906106479190613adc565b611e94565b005b610668600480360381019061066391906139a0565b611f35565b005b610684600480360381019061067f91906139a0565b61202d565b6040516106919190614637565b60405180910390f35b60008073ffffffffffffffffffffffffffffffffffffffff168373ffffffffffffffffffffffffffffffffffffffff16141561070b576040517f08c379a0000000000000000000000000000000000000000000000000000000008152600401610702906146d4565b60405180910390fd5b60008083815260200190815260200160002060008473ffffffffffffffffffffffffffffffffffffffff1673ffffffffffffffffffffffffffffffffffffffff16815260200190815260200160002054905092915050565b60007fd9b67a26000000000000000000000000000000000000000000000000000000007bffffffffffffffffffffffffffffffffffffffffffffffffffffffff1916827bffffffffffffffffffffffffffffffffffffffffffffffffffffffff1916148061082e57507f0e89341c000000000000000000000000000000000000000000000000000000007bffffffffffffffffffffffffffffffffffffffffffffffffffffffff1916827bffffffffffffffffffffffffffffffffffffffffffffffffffffffff1916145b8061083e575061083d82612179565b5b9050919050565b6010805461085290614dcd565b80601f016020809104026020016040519081016040528092919081815260200182805461087e90614dcd565b80156108cb5780601f106108a0576101008083540402835291602001916108cb565b820191906000526020600020905b8154815290600101906020018083116108ae57829003601f168201915b505050505081565b60606024600083815260200190815260200160002080546108f390614dcd565b80601f016020809104026020016040519081016040528092919081815260200182805461091f90614dcd565b801561096c5780601f106109415761010080835404028352916020019161096c565b820191906000526020600020905b81548152906001019060200180831161094f57829003601f168201915b50505050509050919050565b600f5481565b6109866121e3565b73ffffffffffffffffffffffffffffffffffffffff168573ffffffffffffffffffffffffffffffffffffffff1614806109cc57506109cb856109c66121e3565b611d29565b5b610a0b576040517f08c379a0000000000000000000000000000000000000000000000000000000008152600401610a02906147f4565b60405180910390fd5b610a1885858585856121eb565b5050505050565b610a276121e3565b73ffffffffffffffffffffffffffffffffffffffff16610a456114b8565b73ffffffffffffffffffffffffffffffffffffffff1614610a9b576040517f08c379a0000000000000000000000000000000000000000000000000000000008152600401610a92906148b4565b60405180910390fd5b6001601160016101000a81548160ff021916908315150217905550565b6000602254905090565b60608151835114610b08576040517f08c379a0000000000000000000000000000000000000000000000000000000008152600401610aff90614994565b60405180910390fd5b6000835167ffffffffffffffff811115610b2557610b24614fbe565b5b604051908082528060200260200182016040528015610b535781602001602082028036833780820191505090505b50905060005b8451811015610bd057610ba0858281518110610b7857610b77614f8f565b5b6020026020010151858381518110610b9357610b92614f8f565b5b602002602001015161069a565b828281518110610bb357610bb2614f8f565b5b60200260200101818152505080610bc990614e30565b9050610b59565b508091505092915050565b602360029054906101000a900460ff16610c2a576040517f08c379a0000000000000000000000000000000000000000000000000000000008152600401610c2190614834565b60405180910390fd5b600c5460135410610c70576040517f08c379a0000000000000000000000000000000000000000000000000000000008152600401610c6790614794565b60405180910390fd5b6002602860003373ffffffffffffffffffffffffffffffffffffffff1673ffffffffffffffffffffffffffffffffffffffff1681526020019081526020016000205410610cf2576040517f08c379a0000000000000000000000000000000000000000000000000000000008152600401610ce990614914565b60405180910390fd5b602860003373ffffffffffffffffffffffffffffffffffffffff1673ffffffffffffffffffffffffffffffffffffffff1681526020019081526020016000206000815480929190610d4290614e30565b919050555060006001600d54610d589190614bf5565b9050610d7633826001604051806020016040528060008152506124ff565b600160136000828254610d899190614bf5565b925050819055507f2e0f4d63dcc00e6a11c8aef9f6e15c1f9cd6e9a090b2dd99c7b797f1a28d300d33601354604051610dc392919061458c565b60405180910390a150565b60225481565b610ddc6121e3565b73ffffffffffffffffffffffffffffffffffffffff16610dfa6114b8565b73ffffffffffffffffffffffffffffffffffffffff1614610e50576040517f08c379a0000000000000000000000000000000000000000000000000000000008152600401610e47906148b4565b60405180910390fd5b6000602460008481526020019081526020016000208054610e7090614dcd565b905014610eb2576040517f08c379a0000000000000000000000000000000000000000000000000000000008152600401610ea990614814565b60405180910390fd5b80602460008481526020019081526020016000209080519060200190610ed9929190613634565b505050565b6000610ee86121e3565b73ffffffffffffffffffffffffffffffffffffffff16610f066114b8565b73ffffffffffffffffffffffffffffffffffffffff1614610f5c576040517f08c379a0000000000000000000000000000000000000000000000000000000008152600401610f53906148b4565b60405180910390fd5b60005b8251811015610fa857610f8b838281518110610f7e57610f7d614f8f565b5b602002602001015161118d565b15610f9557600191505b8080610fa090614e30565b915050610f5f565b50919050565b610fb66121e3565b73ffffffffffffffffffffffffffffffffffffffff16610fd46114b8565b73ffffffffffffffffffffffffffffffffffffffff161461102a576040517f08c379a0000000000000000000000000000000000000000000000000000000008152600401611021906148b4565b60405180910390fd5b60005b600d5481101561109e576000600d548260165461104a9190614bf5565b6110549190614ed1565b905061108a81600461106584612695565b604051602001611076929190614421565b604051602081830303815290604052610dd4565b50808061109690614e30565b91505061102d565b506110cb600d5460056040516020016110b7919061440a565b604051602081830303815290604052610dd4565b6111036001600d546110dd9190614bf5565b60066040516020016110ef919061440a565b604051602081830303815290604052610dd4565b565b61110d6121e3565b73ffffffffffffffffffffffffffffffffffffffff1661112b6114b8565b73ffffffffffffffffffffffffffffffffffffffff1614611181576040517f08c379a0000000000000000000000000000000000000000000000000000000008152600401611178906148b4565b60405180910390fd5b61118b60006127f6565b565b60006111976121e3565b73ffffffffffffffffffffffffffffffffffffffff166111b56114b8565b73ffffffffffffffffffffffffffffffffffffffff161461120b576040517f08c379a0000000000000000000000000000000000000000000000000000000008152600401611202906148b4565b60405180910390fd5b602160008373ffffffffffffffffffffffffffffffffffffffff1673ffffffffffffffffffffffffffffffffffffffff16815260200190815260200160002060009054906101000a900460ff166112d3576001602160008473ffffffffffffffffffffffffffffffffffffffff1673ffffffffffffffffffffffffffffffffffffffff16815260200190815260200160002060006101000a81548160ff0219169083151502179055506001602260008282546112c79190614bf5565b92505081905550600190505b919050565b60006001600d546112e99190614bf5565b9050601160019054906101000a900460ff1661133a576040517f08c379a0000000000000000000000000000000000000000000000000000000008152600401611331906147b4565b60405180910390fd5b6000611346338361069a565b11611386576040517f08c379a000000000000000000000000000000000000000000000000000000000815260040161137d906146b4565b60405180910390fd5b60006113906128bc565b905060005b60038160ff1610156113d7576113c4828260ff16600381106113ba576113b9614f8f565b5b60200201516129d0565b80806113cf90614e79565b915050611395565b506113e433836001612acb565b5050565b60006113f26121e3565b73ffffffffffffffffffffffffffffffffffffffff166114106114b8565b73ffffffffffffffffffffffffffffffffffffffff1614611466576040517f08c379a000000000000000000000000000000000000000000000000000000000815260040161145d906148b4565b60405180910390fd5b60005b82518110156114b25761149583828151811061148857611487614f8f565b5b602002602001015161202d565b1561149f57600191505b80806114aa90614e30565b915050611469565b50919050565b6000600360009054906101000a900473ffffffffffffffffffffffffffffffffffffffff16905090565b60216020528060005260406000206000915054906101000a900460ff1681565b602360009054906101000a900460ff16806115295750602360019054906101000a900460ff165b611568576040517f08c379a000000000000000000000000000000000000000000000000000000000815260040161155f906149d4565b60405180910390fd5b602360009054906101000a900460ff1680156115915750602360019054906101000a900460ff16155b1561162357602160003373ffffffffffffffffffffffffffffffffffffffff1673ffffffffffffffffffffffffffffffffffffffff16815260200190815260200160002060009054906101000a900460ff16611622576040517f08c379a000000000000000000000000000000000000000000000000000000000815260040161161990614754565b60405180910390fd5b5b600b5460125410611669576040517f08c379a0000000000000000000000000000000000000000000000000000000008152600401611660906148f4565b60405180910390fd5b602760003373ffffffffffffffffffffffffffffffffffffffff1673ffffffffffffffffffffffffffffffffffffffff16815260200190815260200160002060009054906101000a900460ff16156116f6576040517f08c379a00000000000000000000000000000000000000000000000000000000081526004016116ed90614954565b60405180910390fd5b6001602760003373ffffffffffffffffffffffffffffffffffffffff1673ffffffffffffffffffffffffffffffffffffffff16815260200190815260200160002060006101000a81548160ff0219169083151502179055506000600d549050611797338260016040518060400160405280600481526020017f30783030000000000000000000000000000000000000000000000000000000008152506124ff565b6001601260008282546117aa9190614bf5565b925050819055506001602060008282546117c49190614cd6565b925050819055507f2e0f4d63dcc00e6a11c8aef9f6e15c1f9cd6e9a090b2dd99c7b797f1a28d300d336012546040516117fe92919061458c565b60405180910390a150565b61181b6118146121e3565b8383612ce8565b5050565b6118276121e3565b73ffffffffffffffffffffffffffffffffffffffff166118456114b8565b73ffffffffffffffffffffffffffffffffffffffff161461189b576040517f08c379a0000000000000000000000000000000000000000000000000000000008152600401611892906148b4565b60405180910390fd5b6001602360006101000a81548160ff021916908315150217905550565b601160019054906101000a900460ff1681565b60286020528060005260406000206000915090505481565b6118eb6121e3565b73ffffffffffffffffffffffffffffffffffffffff166119096114b8565b73ffffffffffffffffffffffffffffffffffffffff161461195f576040517f08c379a0000000000000000000000000000000000000000000000000000000008152600401611956906148b4565b60405180910390fd5b6001602360026101000a81548160ff021916908315150217905550565b6119846121e3565b73ffffffffffffffffffffffffffffffffffffffff166119a26114b8565b73ffffffffffffffffffffffffffffffffffffffff16146119f8576040517f08c379a00000000000000000000000000000000000000000000000000000000081526004016119ef906148b4565b60405180910390fd5b6001602360016101000a81548160ff021916908315150217905550565b6000600d549050602660003373ffffffffffffffffffffffffffffffffffffffff1673ffffffffffffffffffffffffffffffffffffffff16815260200190815260200160002060009054906101000a900460ff1615611aa9576040517f08c379a0000000000000000000000000000000000000000000000000000000008152600401611aa090614894565b60405180910390fd5b601160009054906101000a900460ff16611af8576040517f08c379a0000000000000000000000000000000000000000000000000000000008152600401611aef90614934565b60405180910390fd5b6000611b04338361069a565b11611b44576040517f08c379a0000000000000000000000000000000000000000000000000000000008152600401611b3b906148d4565b60405180910390fd5b6001602660003373ffffffffffffffffffffffffffffffffffffffff1673ffffffffffffffffffffffffffffffffffffffff16815260200190815260200160002060006101000a81548160ff0219169083151502179055506000611ba6612e55565b905060005b60058160ff161015611bed57611bda828260ff1660058110611bd057611bcf614f8f565b5b60200201516129d0565b8080611be590614e79565b915050611bab565b50611bfa33836001612acb565b7f15abe0b63b201b70614c230381f0fabc4a26a1957629948558095a11db1d6fb58133604051611c2b9291906145b5565b60405180910390a15050565b601160009054906101000a900460ff1681565b611c526121e3565b73ffffffffffffffffffffffffffffffffffffffff16611c706114b8565b73ffffffffffffffffffffffffffffffffffffffff1614611cc6576040517f08c379a0000000000000000000000000000000000000000000000000000000008152600401611cbd906148b4565b60405180910390fd5b6001601160006101000a81548160ff021916908315150217905550565b60276020528060005260406000206000915054906101000a900460ff1681565b60205481565b60266020528060005260406000206000915054906101000a900460ff1681565b6000600160008473ffffffffffffffffffffffffffffffffffffffff1673ffffffffffffffffffffffffffffffffffffffff16815260200190815260200160002060008373ffffffffffffffffffffffffffffffffffffffff1673ffffffffffffffffffffffffffffffffffffffff16815260200190815260200160002060009054906101000a900460ff16905092915050565b611dc56121e3565b73ffffffffffffffffffffffffffffffffffffffff16611de36114b8565b73ffffffffffffffffffffffffffffffffffffffff1614611e39576040517f08c379a0000000000000000000000000000000000000000000000000000000008152600401611e30906148b4565b60405180910390fd5b600e54600d54611e499190614c7c565b600143611e569190614cd6565b4060001c611e649190614ed1565b60168190555060006016541415611e9257611e8b6001601654612f3990919063ffffffff16565b6016819055505b565b611e9c6121e3565b73ffffffffffffffffffffffffffffffffffffffff168573ffffffffffffffffffffffffffffffffffffffff161480611ee25750611ee185611edc6121e3565b611d29565b5b611f21576040517f08c379a0000000000000000000000000000000000000000000000000000000008152600401611f1890614734565b60405180910390fd5b611f2e8585858585612f4f565b5050505050565b611f3d6121e3565b73ffffffffffffffffffffffffffffffffffffffff16611f5b6114b8565b73ffffffffffffffffffffffffffffffffffffffff1614611fb1576040517f08c379a0000000000000000000000000000000000000000000000000000000008152600401611fa8906148b4565b60405180910390fd5b600073ffffffffffffffffffffffffffffffffffffffff168173ffffffffffffffffffffffffffffffffffffffff161415612021576040517f08c379a0000000000000000000000000000000000000000000000000000000008152600401612018906146f4565b60405180910390fd5b61202a816127f6565b50565b60006120376121e3565b73ffffffffffffffffffffffffffffffffffffffff166120556114b8565b73ffffffffffffffffffffffffffffffffffffffff16146120ab576040517f08c379a00000000000000000000000000000000000000000000000000000000081526004016120a2906148b4565b60405180910390fd5b602160008373ffffffffffffffffffffffffffffffffffffffff1673ffffffffffffffffffffffffffffffffffffffff16815260200190815260200160002060009054906101000a900460ff1615612174576000602160008473ffffffffffffffffffffffffffffffffffffffff1673ffffffffffffffffffffffffffffffffffffffff16815260200190815260200160002060006101000a81548160ff0219169083151502179055506001602260008282546121689190614cd6565b92505081905550600190505b919050565b60007f01ffc9a7000000000000000000000000000000000000000000000000000000007bffffffffffffffffffffffffffffffffffffffffffffffffffffffff1916827bffffffffffffffffffffffffffffffffffffffffffffffffffffffff1916149050919050565b600033905090565b815183511461222f576040517f08c379a0000000000000000000000000000000000000000000000000000000008152600401612226906149b4565b60405180910390fd5b600073ffffffffffffffffffffffffffffffffffffffff168473ffffffffffffffffffffffffffffffffffffffff16141561229f576040517f08c379a0000000000000000000000000000000000000000000000000000000008152600401612296906147d4565b60405180910390fd5b60006122a96121e3565b90506122b98187878787876131d1565b60005b845181101561246a5760008582815181106122da576122d9614f8f565b5b6020026020010151905060008583815181106122f9576122f8614f8f565b5b60200260200101519050600080600084815260200190815260200160002060008b73ffffffffffffffffffffffffffffffffffffffff1673ffffffffffffffffffffffffffffffffffffffff1681526020019081526020016000205490508181101561239a576040517f08c379a000000000000000000000000000000000000000000000000000000000815260040161239190614874565b60405180910390fd5b81810360008085815260200190815260200160002060008c73ffffffffffffffffffffffffffffffffffffffff1673ffffffffffffffffffffffffffffffffffffffff168152602001908152602001600020819055508160008085815260200190815260200160002060008b73ffffffffffffffffffffffffffffffffffffffff1673ffffffffffffffffffffffffffffffffffffffff168152602001908152602001600020600082825461244f9190614bf5565b925050819055505050508061246390614e30565b90506122bc565b508473ffffffffffffffffffffffffffffffffffffffff168673ffffffffffffffffffffffffffffffffffffffff168273ffffffffffffffffffffffffffffffffffffffff167f4a39dc06d4c0dbc64b70af90fd698a233a518aa5d07e595d983b8c0526c8f7fb87876040516124e1929190614600565b60405180910390a46124f78187878787876131d9565b505050505050565b600073ffffffffffffffffffffffffffffffffffffffff168473ffffffffffffffffffffffffffffffffffffffff16141561256f576040517f08c379a0000000000000000000000000000000000000000000000000000000008152600401612566906149f4565b60405180910390fd5b60006125796121e3565b905061259a8160008761258b886133c0565b612594886133c0565b876131d1565b8260008086815260200190815260200160002060008773ffffffffffffffffffffffffffffffffffffffff1673ffffffffffffffffffffffffffffffffffffffff16815260200190815260200160002060008282546125f99190614bf5565b925050819055508473ffffffffffffffffffffffffffffffffffffffff16600073ffffffffffffffffffffffffffffffffffffffff168273ffffffffffffffffffffffffffffffffffffffff167fc3d58168c5ae7397731d063d5bbf3d657854427343f4c083240f7aacaa2d0f628787604051612677929190614a2f565b60405180910390a461268e8160008787878761343a565b5050505050565b606060008214156126dd576040518060400160405280600181526020017f300000000000000000000000000000000000000000000000000000000000000081525090506127f1565b600082905060005b6000821461270f5780806126f890614e30565b915050600a826127089190614c4b565b91506126e5565b60008167ffffffffffffffff81111561272b5761272a614fbe565b5b6040519080825280601f01601f19166020018201604052801561275d5781602001600182028036833780820191505090505b5090505b600085146127ea576001826127769190614cd6565b9150600a856127859190614ed1565b60306127919190614bf5565b60f81b8183815181106127a7576127a6614f8f565b5b60200101907effffffffffffffffffffffffffffffffffffffffffffffffffffffffffffff1916908160001a905350600a856127e39190614c4b565b9450612761565b8093505050505b919050565b6000600360009054906101000a900473ffffffffffffffffffffffffffffffffffffffff16905081600360006101000a81548173ffffffffffffffffffffffffffffffffffffffff021916908373ffffffffffffffffffffffffffffffffffffffff1602179055508173ffffffffffffffffffffffffffffffffffffffff168173ffffffffffffffffffffffffffffffffffffffff167f8be0079c531659141344cd1fd0a4f28419497f9722a3daafe3b4186f6b6457e060405160405180910390a35050565b6128c46136ba565b6128cc6136ba565b60006005436128db9190614ed1565b905060005b60038110156129c7576005826128f69190614ed1565b91506000600a836129079190614c7c565b905060006009600a8561291a9190614c7c565b6129249190614bf5565b905081600183836129359190614cd6565b61293f9190614bf5565b4233448760135460405160200161295a959493929190614450565b6040516020818303038152906040528051906020012060001c61297d9190614ed1565b6129879190614bf5565b85846003811061299a57612999614f8f565b5b6020020181815250506001846129b09190614bf5565b9350505080806129bf90614e30565b9150506128e0565b50819250505090565b600e54600d546129e09190614c7c565b6014541015612ac857600e54602560008381526020019081526020016000205410612a40576040517f08c379a0000000000000000000000000000000000000000000000000000000008152600401612a3790614774565b60405180910390fd5b612a82338260016040518060400160405280600481526020017f30783030000000000000000000000000000000000000000000000000000000008152506124ff565b6001602560008381526020019081526020016000206000828254612aa69190614bf5565b92505081905550600160146000828254612ac09190614bf5565b925050819055505b50565b600073ffffffffffffffffffffffffffffffffffffffff168373ffffffffffffffffffffffffffffffffffffffff161415612b3b576040517f08c379a0000000000000000000000000000000000000000000000000000000008152600401612b3290614854565b60405180910390fd5b6000612b456121e3565b9050612b7581856000612b57876133c0565b612b60876133c0565b604051806020016040528060008152506131d1565b600080600085815260200190815260200160002060008673ffffffffffffffffffffffffffffffffffffffff1673ffffffffffffffffffffffffffffffffffffffff16815260200190815260200160002054905082811015612c0c576040517f08c379a0000000000000000000000000000000000000000000000000000000008152600401612c0390614714565b60405180910390fd5b82810360008086815260200190815260200160002060008773ffffffffffffffffffffffffffffffffffffffff1673ffffffffffffffffffffffffffffffffffffffff16815260200190815260200160002081905550600073ffffffffffffffffffffffffffffffffffffffff168573ffffffffffffffffffffffffffffffffffffffff168373ffffffffffffffffffffffffffffffffffffffff167fc3d58168c5ae7397731d063d5bbf3d657854427343f4c083240f7aacaa2d0f628787604051612cd9929190614a2f565b60405180910390a45050505050565b8173ffffffffffffffffffffffffffffffffffffffff168373ffffffffffffffffffffffffffffffffffffffff161415612d57576040517f08c379a0000000000000000000000000000000000000000000000000000000008152600401612d4e90614974565b60405180910390fd5b80600160008573ffffffffffffffffffffffffffffffffffffffff1673ffffffffffffffffffffffffffffffffffffffff16815260200190815260200160002060008473ffffffffffffffffffffffffffffffffffffffff1673ffffffffffffffffffffffffffffffffffffffff16815260200190815260200160002060006101000a81548160ff0219169083151502179055508173ffffffffffffffffffffffffffffffffffffffff168373ffffffffffffffffffffffffffffffffffffffff167f17307eab39ab6107e8899845ad3d59bd9653f200f220920489ca2b5937696c3183604051612e489190614637565b60405180910390a3505050565b612e5d6136dc565b612e656136dc565b60005b6005811015612f31576000600a82612e809190614c7c565b905060006009600a84612e939190614c7c565b612e9d9190614bf5565b90508160018383612eae9190614cd6565b612eb89190614bf5565b42334487601254604051602001612ed3959493929190614450565b6040516020818303038152906040528051906020012060001c612ef69190614ed1565b612f009190614bf5565b848460058110612f1357612f12614f8f565b5b60200201818152505050508080612f2990614e30565b915050612e68565b508091505090565b60008183612f479190614bf5565b905092915050565b600073ffffffffffffffffffffffffffffffffffffffff168473ffffffffffffffffffffffffffffffffffffffff161415612fbf576040517f08c379a0000000000000000000000000000000000000000000000000000000008152600401612fb6906147d4565b60405180910390fd5b6000612fc96121e3565b9050612fe9818787612fda886133c0565b612fe3886133c0565b876131d1565b600080600086815260200190815260200160002060008873ffffffffffffffffffffffffffffffffffffffff1673ffffffffffffffffffffffffffffffffffffffff16815260200190815260200160002054905083811015613080576040517f08c379a000000000000000000000000000000000000000000000000000000000815260040161307790614874565b60405180910390fd5b83810360008087815260200190815260200160002060008973ffffffffffffffffffffffffffffffffffffffff1673ffffffffffffffffffffffffffffffffffffffff168152602001908152602001600020819055508360008087815260200190815260200160002060008873ffffffffffffffffffffffffffffffffffffffff1673ffffffffffffffffffffffffffffffffffffffff16815260200190815260200160002060008282546131359190614bf5565b925050819055508573ffffffffffffffffffffffffffffffffffffffff168773ffffffffffffffffffffffffffffffffffffffff168373ffffffffffffffffffffffffffffffffffffffff167fc3d58168c5ae7397731d063d5bbf3d657854427343f4c083240f7aacaa2d0f6288886040516131b2929190614a2f565b60405180910390a46131c882888888888861343a565b50505050505050565b505050505050565b6131f88473ffffffffffffffffffffffffffffffffffffffff16613621565b156133b8578373ffffffffffffffffffffffffffffffffffffffff1663bc197c8187878686866040518663ffffffff1660e01b815260040161323e9594939291906144ca565b602060405180830381600087803b15801561325857600080fd5b505af192505050801561328957506040513d601f19601f820116820180604052508101906132869190613ce1565b60015b61332f57613295614fed565b806308c379a014156132f257506132aa615865565b806132b557506132f4565b806040517f08c379a00000000000000000000000000000000000000000000000000000000081526004016132e99190614652565b60405180910390fd5b505b6040517f08c379a000000000000000000000000000000000000000000000000000000000815260040161332690614674565b60405180910390fd5b63bc197c8160e01b7bffffffffffffffffffffffffffffffffffffffffffffffffffffffff1916817bffffffffffffffffffffffffffffffffffffffffffffffffffffffff1916146133b6576040517f08c379a00000000000000000000000000000000000000000000000000000000081526004016133ad90614694565b60405180910390fd5b505b505050505050565b60606000600167ffffffffffffffff8111156133df576133de614fbe565b5b60405190808252806020026020018201604052801561340d5781602001602082028036833780820191505090505b509050828160008151811061342557613424614f8f565b5b60200260200101818152505080915050919050565b6134598473ffffffffffffffffffffffffffffffffffffffff16613621565b15613619578373ffffffffffffffffffffffffffffffffffffffff1663f23a6e6187878686866040518663ffffffff1660e01b815260040161349f959493929190614532565b602060405180830381600087803b1580156134b957600080fd5b505af19250505080156134ea57506040513d601f19601f820116820180604052508101906134e79190613ce1565b60015b613590576134f6614fed565b806308c379a01415613553575061350b615865565b806135165750613555565b806040517f08c379a000000000000000000000000000000000000000000000000000000000815260040161354a9190614652565b60405180910390fd5b505b6040517f08c379a000000000000000000000000000000000000000000000000000000000815260040161358790614674565b60405180910390fd5b63f23a6e6160e01b7bffffffffffffffffffffffffffffffffffffffffffffffffffffffff1916817bffffffffffffffffffffffffffffffffffffffffffffffffffffffff191614613617576040517f08c379a000000000000000000000000000000000000000000000000000000000815260040161360e90614694565b60405180910390fd5b505b505050505050565b600080823b905060008111915050919050565b82805461364090614dcd565b90600052602060002090601f01602090048101928261366257600085556136a9565b82601f1061367b57805160ff19168380011785556136a9565b828001600101855582156136a9579182015b828111156136a857825182559160200191906001019061368d565b5b5090506136b691906136fe565b5090565b6040518060600160405280600390602082028036833780820191505090505090565b6040518060a00160405280600590602082028036833780820191505090505090565b5b808211156137175760008160009055506001016136ff565b5090565b600061372e61372984614a7d565b614a58565b9050808382526020820190508285602086028201111561375157613750615014565b5b60005b858110156137815781613767888261387f565b845260208401935060208301925050600181019050613754565b5050509392505050565b600061379e61379984614aa9565b614a58565b905080838252602082019050828560208602820111156137c1576137c0615014565b5b60005b858110156137f157816137d7888261398b565b8452602084019350602083019250506001810190506137c4565b5050509392505050565b600061380e61380984614ad5565b614a58565b90508281526020810184848401111561382a57613829615019565b5b613835848285614d8b565b509392505050565b600061385061384b84614b06565b614a58565b90508281526020810184848401111561386c5761386b615019565b5b613877848285614d8b565b509392505050565b60008135905061388e816158fb565b92915050565b600082601f8301126138a9576138a861500f565b5b81356138b984826020860161371b565b91505092915050565b600082601f8301126138d7576138d661500f565b5b81356138e784826020860161378b565b91505092915050565b6000813590506138ff81615912565b92915050565b60008135905061391481615929565b92915050565b60008151905061392981615929565b92915050565b600082601f8301126139445761394361500f565b5b81356139548482602086016137fb565b91505092915050565b600082601f8301126139725761397161500f565b5b813561398284826020860161383d565b91505092915050565b60008135905061399a81615940565b92915050565b6000602082840312156139b6576139b5615023565b5b60006139c48482850161387f565b91505092915050565b600080604083850312156139e4576139e3615023565b5b60006139f28582860161387f565b9250506020613a038582860161387f565b9150509250929050565b600080600080600060a08688031215613a2957613a28615023565b5b6000613a378882890161387f565b9550506020613a488882890161387f565b945050604086013567ffffffffffffffff811115613a6957613a6861501e565b5b613a75888289016138c2565b935050606086013567ffffffffffffffff811115613a9657613a9561501e565b5b613aa2888289016138c2565b925050608086013567ffffffffffffffff811115613ac357613ac261501e565b5b613acf8882890161392f565b9150509295509295909350565b600080600080600060a08688031215613af857613af7615023565b5b6000613b068882890161387f565b9550506020613b178882890161387f565b9450506040613b288882890161398b565b9350506060613b398882890161398b565b925050608086013567ffffffffffffffff811115613b5a57613b5961501e565b5b613b668882890161392f565b9150509295509295909350565b60008060408385031215613b8a57613b89615023565b5b6000613b988582860161387f565b9250506020613ba9858286016138f0565b9150509250929050565b60008060408385031215613bca57613bc9615023565b5b6000613bd88582860161387f565b9250506020613be98582860161398b565b9150509250929050565b600060208284031215613c0957613c08615023565b5b600082013567ffffffffffffffff811115613c2757613c2661501e565b5b613c3384828501613894565b91505092915050565b60008060408385031215613c5357613c52615023565b5b600083013567ffffffffffffffff811115613c7157613c7061501e565b5b613c7d85828601613894565b925050602083013567ffffffffffffffff811115613c9e57613c9d61501e565b5b613caa858286016138c2565b9150509250929050565b600060208284031215613cca57613cc9615023565b5b6000613cd884828501613905565b91505092915050565b600060208284031215613cf757613cf6615023565b5b6000613d058482850161391a565b91505092915050565b600060208284031215613d2457613d23615023565b5b6000613d328482850161398b565b91505092915050565b60008060408385031215613d5257613d51615023565b5b6000613d608582860161398b565b925050602083013567ffffffffffffffff811115613d8157613d8061501e565b5b613d8d8582860161395d565b9150509250929050565b6000613da383836143d5565b60208301905092915050565b613db881614d0a565b82525050565b613dcf613dca82614d0a565b614ea3565b82525050565b613dde81614b66565b613de88184614bac565b9250613df382614b37565b8060005b83811015613e24578151613e0b8782613d97565b9650613e1683614b92565b925050600181019050613df7565b505050505050565b6000613e3782614b71565b613e418185614bb7565b9350613e4c83614b41565b8060005b83811015613e7d578151613e648882613d97565b9750613e6f83614b9f565b925050600181019050613e50565b5085935050505092915050565b613e9381614d1c565b82525050565b6000613ea482614b7c565b613eae8185614bc8565b9350613ebe818560208601614d9a565b613ec781615028565b840191505092915050565b6000613edd82614b87565b613ee78185614bd9565b9350613ef7818560208601614d9a565b613f0081615028565b840191505092915050565b6000613f1682614b87565b613f208185614bea565b9350613f30818560208601614d9a565b80840191505092915050565b60008154613f4981614dcd565b613f538186614bea565b94506001821660008114613f6e5760018114613f7f57613fb2565b60ff19831686528186019350613fb2565b613f8885614b51565b60005b83811015613faa57815481890152600182019150602081019050613f8b565b838801955050505b50505092915050565b6000613fc8603483614bd9565b9150613fd382615053565b604082019050919050565b6000613feb602883614bd9565b9150613ff6826150a2565b604082019050919050565b600061400e601b83614bd9565b9150614019826150f1565b602082019050919050565b6000614031602b83614bd9565b915061403c8261511a565b604082019050919050565b6000614054602683614bd9565b915061405f82615169565b604082019050919050565b6000614077602483614bd9565b9150614082826151b8565b604082019050919050565b600061409a602983614bd9565b91506140a582615207565b604082019050919050565b60006140bd601883614bd9565b91506140c882615256565b602082019050919050565b60006140e0602d83614bd9565b91506140eb8261527f565b604082019050919050565b6000614103602b83614bd9565b915061410e826152ce565b604082019050919050565b6000614126602783614bd9565b91506141318261531d565b604082019050919050565b6000614149602583614bd9565b91506141548261536c565b604082019050919050565b600061416c603283614bd9565b9150614177826153bb565b604082019050919050565b600061418f601483614bd9565b915061419a8261540a565b602082019050919050565b60006141b2602483614bd9565b91506141bd82615433565b604082019050919050565b60006141d5602383614bd9565b91506141e082615482565b604082019050919050565b60006141f8602a83614bd9565b9150614203826154d1565b604082019050919050565b600061421b602083614bd9565b915061422682615520565b602082019050919050565b600061423e600583614bea565b915061424982615549565b600582019050919050565b6000614261602083614bd9565b915061426c82615572565b602082019050919050565b6000614284602b83614bd9565b915061428f8261559b565b604082019050919050565b60006142a7602383614bd9565b91506142b2826155ea565b604082019050919050565b60006142ca602b83614bd9565b91506142d582615639565b604082019050919050565b60006142ed601f83614bd9565b91506142f882615688565b602082019050919050565b6000614310602a83614bd9565b915061431b826156b1565b604082019050919050565b6000614333602983614bd9565b915061433e82615700565b604082019050919050565b6000614356602983614bd9565b91506143618261574f565b604082019050919050565b6000614379602883614bd9565b91506143848261579e565b604082019050919050565b600061439c601f83614bd9565b91506143a7826157ed565b602082019050919050565b60006143bf602183614bd9565b91506143ca82615816565b604082019050919050565b6143de81614d74565b82525050565b6143ed81614d74565b82525050565b6144046143ff82614d74565b614ec7565b82525050565b60006144168284613f3c565b915081905092915050565b600061442d8285613f3c565b91506144398284613f0b565b915061444482614231565b91508190509392505050565b600061445c82886143f3565b60208201915061446c8287613dbe565b60148201915061447c82866143f3565b60208201915061448c82856143f3565b60208201915061449c82846143f3565b6020820191508190509695505050505050565b60006020820190506144c46000830184613daf565b92915050565b600060a0820190506144df6000830188613daf565b6144ec6020830187613daf565b81810360408301526144fe8186613e2c565b905081810360608301526145128185613e2c565b905081810360808301526145268184613e99565b90509695505050505050565b600060a0820190506145476000830188613daf565b6145546020830187613daf565b61456160408301866143e4565b61456e60608301856143e4565b81810360808301526145808184613e99565b90509695505050505050565b60006040820190506145a16000830185613daf565b6145ae60208301846143e4565b9392505050565b600060c0820190506145ca6000830185613dd5565b6145d760a0830184613daf565b9392505050565b600060208201905081810360008301526145f88184613e2c565b905092915050565b6000604082019050818103600083015261461a8185613e2c565b9050818103602083015261462e8184613e2c565b90509392505050565b600060208201905061464c6000830184613e8a565b92915050565b6000602082019050818103600083015261466c8184613ed2565b905092915050565b6000602082019050818103600083015261468d81613fbb565b9050919050565b600060208201905081810360008301526146ad81613fde565b9050919050565b600060208201905081810360008301526146cd81614001565b9050919050565b600060208201905081810360008301526146ed81614024565b9050919050565b6000602082019050818103600083015261470d81614047565b9050919050565b6000602082019050818103600083015261472d8161406a565b9050919050565b6000602082019050818103600083015261474d8161408d565b9050919050565b6000602082019050818103600083015261476d816140b0565b9050919050565b6000602082019050818103600083015261478d816140d3565b9050919050565b600060208201905081810360008301526147ad816140f6565b9050919050565b600060208201905081810360008301526147cd81614119565b9050919050565b600060208201905081810360008301526147ed8161413c565b9050919050565b6000602082019050818103600083015261480d8161415f565b9050919050565b6000602082019050818103600083015261482d81614182565b9050919050565b6000602082019050818103600083015261484d816141a5565b9050919050565b6000602082019050818103600083015261486d816141c8565b9050919050565b6000602082019050818103600083015261488d816141eb565b9050919050565b600060208201905081810360008301526148ad8161420e565b9050919050565b600060208201905081810360008301526148cd81614254565b9050919050565b600060208201905081810360008301526148ed81614277565b9050919050565b6000602082019050818103600083015261490d8161429a565b9050919050565b6000602082019050818103600083015261492d816142bd565b9050919050565b6000602082019050818103600083015261494d816142e0565b9050919050565b6000602082019050818103600083015261496d81614303565b9050919050565b6000602082019050818103600083015261498d81614326565b9050919050565b600060208201905081810360008301526149ad81614349565b9050919050565b600060208201905081810360008301526149cd8161436c565b9050919050565b600060208201905081810360008301526149ed8161438f565b9050919050565b60006020820190508181036000830152614a0d816143b2565b9050919050565b6000602082019050614a2960008301846143e4565b92915050565b6000604082019050614a4460008301856143e4565b614a5160208301846143e4565b9392505050565b6000614a62614a73565b9050614a6e8282614dff565b919050565b6000604051905090565b600067ffffffffffffffff821115614a9857614a97614fbe565b5b602082029050602081019050919050565b600067ffffffffffffffff821115614ac457614ac3614fbe565b5b602082029050602081019050919050565b600067ffffffffffffffff821115614af057614aef614fbe565b5b614af982615028565b9050602081019050919050565b600067ffffffffffffffff821115614b2157614b20614fbe565b5b614b2a82615028565b9050602081019050919050565b6000819050919050565b6000819050602082019050919050565b60008190508160005260206000209050919050565b600060059050919050565b600081519050919050565b600081519050919050565b600081519050919050565b6000602082019050919050565b6000602082019050919050565b600081905092915050565b600082825260208201905092915050565b600082825260208201905092915050565b600082825260208201905092915050565b600081905092915050565b6000614c0082614d74565b9150614c0b83614d74565b9250827fffffffffffffffffffffffffffffffffffffffffffffffffffffffffffffffff03821115614c4057614c3f614f02565b5b828201905092915050565b6000614c5682614d74565b9150614c6183614d74565b925082614c7157614c70614f31565b5b828204905092915050565b6000614c8782614d74565b9150614c9283614d74565b9250817fffffffffffffffffffffffffffffffffffffffffffffffffffffffffffffffff0483118215151615614ccb57614cca614f02565b5b828202905092915050565b6000614ce182614d74565b9150614cec83614d74565b925082821015614cff57614cfe614f02565b5b828203905092915050565b6000614d1582614d54565b9050919050565b60008115159050919050565b60007fffffffff0000000000000000000000000000000000000000000000000000000082169050919050565b600073ffffffffffffffffffffffffffffffffffffffff82169050919050565b6000819050919050565b600060ff82169050919050565b82818337600083830152505050565b60005b83811015614db8578082015181840152602081019050614d9d565b83811115614dc7576000848401525b50505050565b60006002820490506001821680614de557607f821691505b60208210811415614df957614df8614f60565b5b50919050565b614e0882615028565b810181811067ffffffffffffffff82111715614e2757614e26614fbe565b5b80604052505050565b6000614e3b82614d74565b91507fffffffffffffffffffffffffffffffffffffffffffffffffffffffffffffffff821415614e6e57614e6d614f02565b5b600182019050919050565b6000614e8482614d7e565b915060ff821415614e9857614e97614f02565b5b600182019050919050565b6000614eae82614eb5565b9050919050565b6000614ec082615039565b9050919050565b6000819050919050565b6000614edc82614d74565b9150614ee783614d74565b925082614ef757614ef6614f31565b5b828206905092915050565b7f4e487b7100000000000000000000000000000000000000000000000000000000600052601160045260246000fd5b7f4e487b7100000000000000000000000000000000000000000000000000000000600052601260045260246000fd5b7f4e487b7100000000000000000000000000000000000000000000000000000000600052602260045260246000fd5b7f4e487b7100000000000000000000000000000000000000000000000000000000600052603260045260246000fd5b7f4e487b7100000000000000000000000000000000000000000000000000000000600052604160045260246000fd5b600060033d111561500c5760046000803e615009600051615046565b90505b90565b600080fd5b600080fd5b600080fd5b600080fd5b600080fd5b6000601f19601f8301169050919050565b60008160601b9050919050565b60008160e01c9050919050565b7f455243313135353a207472616e7366657220746f206e6f6e204552433131353560008201527f526563656976657220696d706c656d656e746572000000000000000000000000602082015250565b7f455243313135353a204552433131353552656365697665722072656a6563746560008201527f6420746f6b656e73000000000000000000000000000000000000000000000000602082015250565b7f4e6f2072656d61696e696e6720626f6f73746572207061636b73210000000000600082015250565b7f455243313135353a2062616c616e636520717565727920666f7220746865207a60008201527f65726f2061646472657373000000000000000000000000000000000000000000602082015250565b7f4f776e61626c653a206e6577206f776e657220697320746865207a65726f206160008201527f6464726573730000000000000000000000000000000000000000000000000000602082015250565b7f455243313135353a206275726e20616d6f756e7420657863656564732062616c60008201527f616e636500000000000000000000000000000000000000000000000000000000602082015250565b7f455243313135353a2063616c6c6572206973206e6f74206f776e6572206e6f7260008201527f20617070726f7665640000000000000000000000000000000000000000000000602082015250565b7f55736572206973206e6f742077686974656c69737465642e0000000000000000600082015250565b7f416c6c206f662074686973206174686c657465206861766520616c726561647960008201527f206265656e206d696e7465642100000000000000000000000000000000000000602082015250565b7f416c6c20626f6f73746572207061636b73206861766520616c7265616479206260008201527f65656e206d696e74656421000000000000000000000000000000000000000000602082015250565b7f426f6f73746572207061636b73206172656e277420726561647920746f206f7060008201527f656e207965742100000000000000000000000000000000000000000000000000602082015250565b7f455243313135353a207472616e7366657220746f20746865207a65726f20616460008201527f6472657373000000000000000000000000000000000000000000000000000000602082015250565b7f455243313135353a207472616e736665722063616c6c6572206973206e6f742060008201527f6f776e6572206e6f7220617070726f7665640000000000000000000000000000602082015250565b7f43616e6e6f742073657420757269207477696365000000000000000000000000600082015250565b7f426f6f73746572207061636b2073616c65206861736e2774206f70656e65642060008201527f7965742e00000000000000000000000000000000000000000000000000000000602082015250565b7f455243313135353a206275726e2066726f6d20746865207a65726f206164647260008201527f6573730000000000000000000000000000000000000000000000000000000000602082015250565b7f455243313135353a20696e73756666696369656e742062616c616e636520666f60008201527f72207472616e7366657200000000000000000000000000000000000000000000602082015250565b7f596f752063616e6e6f74206275726e206d6f7265207468616e2031207061636b600082015250565b7f2e6a736f6e000000000000000000000000000000000000000000000000000000600082015250565b7f4f776e61626c653a2063616c6c6572206973206e6f7420746865206f776e6572600082015250565b7f53746172746572207061636b20646f6573206e6f7420657869737420696e207560008201527f736572732077616c6c6574000000000000000000000000000000000000000000602082015250565b7f416c6c207061636b73206861766520616c7265616479206265656e206d696e7460008201527f6564210000000000000000000000000000000000000000000000000000000000602082015250565b7f43616e206f6e6c79206d696e742074776f20626f6f73746572207061636b732060008201527f706572206163636f756e74000000000000000000000000000000000000000000602082015250565b7f5061636b73206172656e277420726561647920746f206f70656e207965742100600082015250565b7f43616e206f6e6c79206d696e74206f6e652073746172746572207061636b207060008201527f6572206163636f756e7400000000000000000000000000000000000000000000602082015250565b7f455243313135353a2073657474696e6720617070726f76616c2073746174757360008201527f20666f722073656c660000000000000000000000000000000000000000000000602082015250565b7f455243313135353a206163636f756e747320616e6420696473206c656e67746860008201527f206d69736d617463680000000000000000000000000000000000000000000000602082015250565b7f455243313135353a2069647320616e6420616d6f756e7473206c656e6774682060008201527f6d69736d61746368000000000000000000000000000000000000000000000000602082015250565b7f507269766174652073616c65206861736e2774206f70656e6564207965742e00600082015250565b7f455243313135353a206d696e7420746f20746865207a65726f2061646472657360008201527f7300000000000000000000000000000000000000000000000000000000000000602082015250565b600060443d1015615875576158f8565b61587d614a73565b60043d036004823e80513d602482011167ffffffffffffffff821117156158a55750506158f8565b808201805167ffffffffffffffff8111156158c357505050506158f8565b80602083010160043d0385018111156158e05750505050506158f8565b6158ef82602001850186614dff565b82955050505050505b90565b61590481614d0a565b811461590f57600080fd5b50565b61591b81614d1c565b811461592657600080fd5b50565b61593281614d28565b811461593d57600080fd5b50565b61594981614d74565b811461595457600080fd5b5056fea2646970667358221220f94f13c3ff2c6ca462179a16ea4a5268468fd2d64d4df4a0668af6a28950580364736f6c63430008070033",
  "linkReferences": {},
  "deployedLinkReferences": {}
}