{
  "_format": "hh-sol-artifact-1",
  "contractName": "GameItems",
  "sourceName": "contracts/GameItems.sol",
  "abi": [
    {
      "inputs": [
        {
          "components": [
            {
              "internalType": "uint256",
              "name": "_numAthletes",
              "type": "uint256"
            },
            {
              "internalType": "uint256",
              "name": "_nftPerAthlete",
              "type": "uint256"
            },
            {
              "internalType": "uint256",
              "name": "_starterPackSize",
              "type": "uint256"
            },
            {
              "internalType": "uint256",
              "name": "_boosterPackSize",
              "type": "uint256"
            },
            {
              "internalType": "uint256",
              "name": "_maxStarterPackBalance",
              "type": "uint256"
            },
            {
              "internalType": "uint256",
              "name": "_maxBoosterPackBalance",
              "type": "uint256"
            },
            {
              "internalType": "uint256",
              "name": "_maxPacks",
              "type": "uint256"
            },
            {
              "internalType": "uint256",
              "name": "_revealTimestamp",
              "type": "uint256"
            }
          ],
          "internalType": "struct GameItems.Parameters",
          "name": "params",
          "type": "tuple"
        },
        {
          "internalType": "string",
          "name": "_athleteURI",
          "type": "string"
        },
        {
          "internalType": "string",
          "name": "_starterPackURI",
          "type": "string"
        },
        {
          "internalType": "string",
          "name": "_boosterPackURI",
          "type": "string"
        }
      ],
      "stateMutability": "nonpayable",
      "type": "constructor"
    },
    {
      "anonymous": false,
      "inputs": [
        {
          "indexed": true,
          "internalType": "address",
          "name": "account",
          "type": "address"
        },
        {
          "indexed": true,
          "internalType": "address",
          "name": "operator",
          "type": "address"
        },
        {
          "indexed": false,
          "internalType": "bool",
          "name": "approved",
          "type": "bool"
        }
      ],
      "name": "ApprovalForAll",
      "type": "event"
    },
    {
      "anonymous": false,
      "inputs": [
        {
          "indexed": true,
          "internalType": "address",
          "name": "previousOwner",
          "type": "address"
        },
        {
          "indexed": true,
          "internalType": "address",
          "name": "newOwner",
          "type": "address"
        }
      ],
      "name": "OwnershipTransferred",
      "type": "event"
    },
    {
      "anonymous": false,
      "inputs": [
        {
          "indexed": true,
          "internalType": "address",
          "name": "operator",
          "type": "address"
        },
        {
          "indexed": true,
          "internalType": "address",
          "name": "from",
          "type": "address"
        },
        {
          "indexed": true,
          "internalType": "address",
          "name": "to",
          "type": "address"
        },
        {
          "indexed": false,
          "internalType": "uint256[]",
          "name": "ids",
          "type": "uint256[]"
        },
        {
          "indexed": false,
          "internalType": "uint256[]",
          "name": "values",
          "type": "uint256[]"
        }
      ],
      "name": "TransferBatch",
      "type": "event"
    },
    {
      "anonymous": false,
      "inputs": [
        {
          "indexed": true,
          "internalType": "address",
          "name": "operator",
          "type": "address"
        },
        {
          "indexed": true,
          "internalType": "address",
          "name": "from",
          "type": "address"
        },
        {
          "indexed": true,
          "internalType": "address",
          "name": "to",
          "type": "address"
        },
        {
          "indexed": false,
          "internalType": "uint256",
          "name": "id",
          "type": "uint256"
        },
        {
          "indexed": false,
          "internalType": "uint256",
          "name": "value",
          "type": "uint256"
        }
      ],
      "name": "TransferSingle",
      "type": "event"
    },
    {
      "anonymous": false,
      "inputs": [
        {
          "indexed": false,
          "internalType": "string",
          "name": "value",
          "type": "string"
        },
        {
          "indexed": true,
          "internalType": "uint256",
          "name": "id",
          "type": "uint256"
        }
      ],
      "name": "URI",
      "type": "event"
    },
    {
      "anonymous": false,
      "inputs": [
        {
          "indexed": false,
          "internalType": "address",
          "name": "user",
          "type": "address"
        },
        {
          "indexed": false,
          "internalType": "uint256",
          "name": "id",
          "type": "uint256"
        }
      ],
      "name": "packMinted",
      "type": "event"
    },
    {
      "inputs": [],
      "name": "REVEAL_TIMESTAMP",
      "outputs": [
        {
          "internalType": "uint256",
          "name": "",
          "type": "uint256"
        }
      ],
      "stateMutability": "view",
      "type": "function"
    },
    {
      "inputs": [
        {
          "internalType": "address",
          "name": "account",
          "type": "address"
        },
        {
          "internalType": "uint256",
          "name": "id",
          "type": "uint256"
        }
      ],
      "name": "balanceOf",
      "outputs": [
        {
          "internalType": "uint256",
          "name": "",
          "type": "uint256"
        }
      ],
      "stateMutability": "view",
      "type": "function"
    },
    {
      "inputs": [
        {
          "internalType": "address[]",
          "name": "accounts",
          "type": "address[]"
        },
        {
          "internalType": "uint256[]",
          "name": "ids",
          "type": "uint256[]"
        }
      ],
      "name": "balanceOfBatch",
      "outputs": [
        {
          "internalType": "uint256[]",
          "name": "",
          "type": "uint256[]"
        }
      ],
      "stateMutability": "view",
      "type": "function"
    },
    {
      "inputs": [],
      "name": "burnBoosterPack",
      "outputs": [],
      "stateMutability": "nonpayable",
      "type": "function"
    },
    {
      "inputs": [],
      "name": "burnStarterPack",
      "outputs": [],
      "stateMutability": "nonpayable",
      "type": "function"
    },
    {
      "inputs": [],
      "name": "emergencySetStartingIndexBlock",
      "outputs": [],
      "stateMutability": "nonpayable",
      "type": "function"
    },
    {
      "inputs": [],
      "name": "generateBoosterPackIndices",
      "outputs": [
        {
          "internalType": "uint256[3]",
          "name": "",
          "type": "uint256[3]"
        }
      ],
      "stateMutability": "view",
      "type": "function"
    },
    {
      "inputs": [],
      "name": "generateStarterPackIndices",
      "outputs": [
        {
          "internalType": "uint256[5]",
          "name": "",
          "type": "uint256[5]"
        }
      ],
      "stateMutability": "view",
      "type": "function"
    },
    {
      "inputs": [],
      "name": "getNFTPerAthlete",
      "outputs": [
        {
          "internalType": "uint256",
          "name": "",
          "type": "uint256"
        }
      ],
      "stateMutability": "view",
      "type": "function"
    },
    {
      "inputs": [
        {
          "internalType": "address",
          "name": "account",
          "type": "address"
        },
        {
          "internalType": "address",
          "name": "operator",
          "type": "address"
        }
      ],
      "name": "isApprovedForAll",
      "outputs": [
        {
          "internalType": "bool",
          "name": "",
          "type": "bool"
        }
      ],
      "stateMutability": "view",
      "type": "function"
    },
    {
      "inputs": [],
      "name": "mintBoosterPack",
      "outputs": [],
      "stateMutability": "nonpayable",
      "type": "function"
    },
    {
      "inputs": [],
      "name": "mintStarterPack",
      "outputs": [],
      "stateMutability": "nonpayable",
      "type": "function"
    },
    {
      "inputs": [],
      "name": "owner",
      "outputs": [
        {
          "internalType": "address",
          "name": "",
          "type": "address"
        }
      ],
      "stateMutability": "view",
      "type": "function"
    },
    {
      "inputs": [],
      "name": "packsAvailable",
      "outputs": [
        {
          "internalType": "uint256",
          "name": "",
          "type": "uint256"
        }
      ],
      "stateMutability": "view",
      "type": "function"
    },
    {
      "inputs": [],
      "name": "packsReadyToOpen",
      "outputs": [
        {
          "internalType": "bool",
          "name": "",
          "type": "bool"
        }
      ],
      "stateMutability": "view",
      "type": "function"
    },
    {
      "inputs": [],
      "name": "renounceOwnership",
      "outputs": [],
      "stateMutability": "nonpayable",
      "type": "function"
    },
    {
      "inputs": [
        {
          "internalType": "address",
          "name": "from",
          "type": "address"
        },
        {
          "internalType": "address",
          "name": "to",
          "type": "address"
        },
        {
          "internalType": "uint256[]",
          "name": "ids",
          "type": "uint256[]"
        },
        {
          "internalType": "uint256[]",
          "name": "amounts",
          "type": "uint256[]"
        },
        {
          "internalType": "bytes",
          "name": "data",
          "type": "bytes"
        }
      ],
      "name": "safeBatchTransferFrom",
      "outputs": [],
      "stateMutability": "nonpayable",
      "type": "function"
    },
    {
      "inputs": [
        {
          "internalType": "address",
          "name": "from",
          "type": "address"
        },
        {
          "internalType": "address",
          "name": "to",
          "type": "address"
        },
        {
          "internalType": "uint256",
          "name": "id",
          "type": "uint256"
        },
        {
          "internalType": "uint256",
          "name": "amount",
          "type": "uint256"
        },
        {
          "internalType": "bytes",
          "name": "data",
          "type": "bytes"
        }
      ],
      "name": "safeTransferFrom",
      "outputs": [],
      "stateMutability": "nonpayable",
      "type": "function"
    },
    {
      "inputs": [
        {
          "internalType": "address",
          "name": "operator",
          "type": "address"
        },
        {
          "internalType": "bool",
          "name": "approved",
          "type": "bool"
        }
      ],
      "name": "setApprovalForAll",
      "outputs": [],
      "stateMutability": "nonpayable",
      "type": "function"
    },
    {
      "inputs": [],
      "name": "setPacksReady",
      "outputs": [],
      "stateMutability": "nonpayable",
      "type": "function"
    },
    {
      "inputs": [
        {
          "internalType": "string",
          "name": "provenanceHash",
          "type": "string"
        }
      ],
      "name": "setProvenanceHash",
      "outputs": [],
      "stateMutability": "nonpayable",
      "type": "function"
    },
    {
      "inputs": [],
      "name": "setStartingIndex",
      "outputs": [],
      "stateMutability": "nonpayable",
      "type": "function"
    },
    {
      "inputs": [
        {
          "internalType": "uint256",
          "name": "tokenId",
          "type": "uint256"
        },
        {
          "internalType": "string",
          "name": "uri",
          "type": "string"
        }
      ],
      "name": "setTokenUri",
      "outputs": [],
      "stateMutability": "nonpayable",
      "type": "function"
    },
    {
      "inputs": [],
      "name": "setURIs",
      "outputs": [],
      "stateMutability": "nonpayable",
      "type": "function"
    },
    {
      "inputs": [
        {
          "internalType": "bytes4",
          "name": "interfaceId",
          "type": "bytes4"
        }
      ],
      "name": "supportsInterface",
      "outputs": [
        {
          "internalType": "bool",
          "name": "",
          "type": "bool"
        }
      ],
      "stateMutability": "view",
      "type": "function"
    },
    {
      "inputs": [
        {
          "internalType": "address",
          "name": "newOwner",
          "type": "address"
        }
      ],
      "name": "transferOwnership",
      "outputs": [],
      "stateMutability": "nonpayable",
      "type": "function"
    },
    {
      "inputs": [
        {
          "internalType": "uint256",
          "name": "tokenId",
          "type": "uint256"
        }
      ],
      "name": "uri",
      "outputs": [
        {
          "internalType": "string",
          "name": "",
          "type": "string"
        }
      ],
      "stateMutability": "view",
      "type": "function"
    }
  ],
  "bytecode": "0x6080604052612710600f556001601060086101000a81548160ff02191690831515021790555060085460115560115460125560405180602001604052806000815250601890805190602001906200005892919062000385565b503480156200006657600080fd5b50604051620053d4380380620053d483398181016040528101906200008c9190620005a9565b60405180602001604052806000815250620000ad81620001cf60201b60201c565b50620000ce620000c2620001eb60201b60201c565b620001f360201b60201c565b620001196040518060400160405280601281526020017f4d616b696e6720636f6e74726163742e2e2e0000000000000000000000000000815250620002b960201b620016a21760201c565b836000015160088190555083602001516009819055508360400151600a819055508360600151600b819055508360800151600c819055508360a00151600d819055508360c00151600e8190555082600590805190602001906200017e92919062000385565b5081600690805190602001906200019792919062000385565b508060079080519060200190620001b092919062000385565b508360e00151600f81905550600e5460218190555050505050620008aa565b8060029080519060200190620001e792919062000385565b5050565b600033905090565b6000600360009054906101000a900473ffffffffffffffffffffffffffffffffffffffff16905081600360006101000a81548173ffffffffffffffffffffffffffffffffffffffff021916908373ffffffffffffffffffffffffffffffffffffffff1602179055508173ffffffffffffffffffffffffffffffffffffffff168173ffffffffffffffffffffffffffffffffffffffff167f8be0079c531659141344cd1fd0a4f28419497f9722a3daafe3b4186f6b6457e060405160405180910390a35050565b6200035981604051602401620002d09190620006bd565b6040516020818303038152906040527f41304fac000000000000000000000000000000000000000000000000000000007bffffffffffffffffffffffffffffffffffffffffffffffffffffffff19166020820180517bffffffffffffffffffffffffffffffffffffffffffffffffffffffff83818316178352505050506200035c60201b60201c565b50565b60008151905060006a636f6e736f6c652e6c6f679050602083016000808483855afa5050505050565b82805462000393906200079c565b90600052602060002090601f016020900481019282620003b7576000855562000403565b82601f10620003d257805160ff191683800117855562000403565b8280016001018555821562000403579182015b8281111562000402578251825591602001919060010190620003e5565b5b50905062000412919062000416565b5090565b5b808211156200043157600081600090555060010162000417565b5090565b60006200044c62000446846200070a565b620006e1565b9050828152602081018484840111156200046b576200046a62000870565b5b6200047884828562000766565b509392505050565b600082601f83011262000498576200049762000866565b5b8151620004aa84826020860162000435565b91505092915050565b60006101008284031215620004cd57620004cc6200086b565b5b620004da610100620006e1565b90506000620004ec8482850162000592565b6000830152506020620005028482850162000592565b6020830152506040620005188482850162000592565b60408301525060606200052e8482850162000592565b6060830152506080620005448482850162000592565b60808301525060a06200055a8482850162000592565b60a08301525060c0620005708482850162000592565b60c08301525060e0620005868482850162000592565b60e08301525092915050565b600081519050620005a38162000890565b92915050565b6000806000806101608587031215620005c757620005c66200087a565b5b6000620005d787828801620004b3565b94505061010085015167ffffffffffffffff811115620005fc57620005fb62000875565b5b6200060a8782880162000480565b93505061012085015167ffffffffffffffff8111156200062f576200062e62000875565b5b6200063d8782880162000480565b92505061014085015167ffffffffffffffff81111562000662576200066162000875565b5b620006708782880162000480565b91505092959194509250565b6000620006898262000740565b6200069581856200074b565b9350620006a781856020860162000766565b620006b2816200087f565b840191505092915050565b60006020820190508181036000830152620006d981846200067c565b905092915050565b6000620006ed62000700565b9050620006fb8282620007d2565b919050565b6000604051905090565b600067ffffffffffffffff82111562000728576200072762000837565b5b62000733826200087f565b9050602081019050919050565b600081519050919050565b600082825260208201905092915050565b6000819050919050565b60005b838110156200078657808201518184015260208101905062000769565b8381111562000796576000848401525b50505050565b60006002820490506001821680620007b557607f821691505b60208210811415620007cc57620007cb62000808565b5b50919050565b620007dd826200087f565b810181811067ffffffffffffffff82111715620007ff57620007fe62000837565b5b80604052505050565b7f4e487b7100000000000000000000000000000000000000000000000000000000600052602260045260246000fd5b7f4e487b7100000000000000000000000000000000000000000000000000000000600052604160045260246000fd5b600080fd5b600080fd5b600080fd5b600080fd5b600080fd5b6000601f19601f8301169050919050565b6200089b816200075c565b8114620008a757600080fd5b50565b614b1a80620008ba6000396000f3fe608060405234801561001057600080fd5b50600436106101a85760003560e01c80635d2db2bf116100f9578063bbb13e1711610097578063e985e9c511610071578063e985e9c5146103ff578063e98665501461042f578063f242432a14610439578063f2fde38b14610455576101a8565b8063bbb13e17146103b9578063be59ec26146103c3578063d759000b146103e1576101a8565b80637d17fcbe116100d35780637d17fcbe1461036b5780638da5cb5b146103755780639ebf488b14610393578063a22cb4651461039d576101a8565b80635d2db2bf1461034d578063715018a61461035757806375223f9214610361576101a8565b8063166d5d30116101665780632eb2c2d6116101405780632eb2c2d6146102db5780634e1273f4146102f75780634f3551d71461032757806357f7789e14610331576101a8565b8063166d5d301461029557806318e20a38146102b357806319b60439146102d1576101a8565b8062fdd58e146101ad57806301ffc9a7146101dd5780630e89341c1461020d578063109695231461023d57806313dc2db214610259578063143cc14414610277575b600080fd5b6101c760048036038101906101c29190613042565b610471565b6040516101d49190613d51565b60405180910390f35b6101f760048036038101906101f291906130fa565b61053a565b6040516102049190613a24565b60405180910390f35b6102276004803603810190610222919061319d565b61061c565b6040516102349190613a3f565b60405180910390f35b61025760048036038101906102529190613154565b6106c1565b005b610261610757565b60405161026e91906139b0565b60405180910390f35b61027f610837565b60405161028c9190613d51565b60405180910390f35b61029d6108bd565b6040516102aa9190613995565b60405180910390f35b6102bb610a23565b6040516102c89190613d51565b60405180910390f35b6102d9610a29565b005b6102f560048036038101906102f09190612e9c565b610ad1565b005b610311600480360381019061030c9190613082565b610b72565b60405161031e91906139cb565b60405180910390f35b61032f610c8b565b005b61034b600480360381019061034691906131ca565b610d94565b005b610355610e9e565b005b61035f611001565b005b610369611089565b005b610373611189565b005b61037d611253565b60405161038a919061388f565b60405180910390f35b61039b61127d565b005b6103b760048036038101906103b29190613002565b61130c565b005b6103c1611322565b005b6103cb611385565b6040516103d89190613a24565b60405180910390f35b6103e9611398565b6040516103f69190613d51565b60405180910390f35b61041960048036038101906104149190612e5c565b61139e565b6040516104269190613a24565b60405180910390f35b610437611432565b005b610453600480360381019061044e9190612f6b565b611509565b005b61046f600480360381019061046a9190612e2f565b6115aa565b005b60008073ffffffffffffffffffffffffffffffffffffffff168373ffffffffffffffffffffffffffffffffffffffff1614156104e2576040517f08c379a00000000000000000000000000000000000000000000000000000000081526004016104d990613af1565b60405180910390fd5b60008083815260200190815260200160002060008473ffffffffffffffffffffffffffffffffffffffff1673ffffffffffffffffffffffffffffffffffffffff16815260200190815260200160002054905092915050565b60007fd9b67a26000000000000000000000000000000000000000000000000000000007bffffffffffffffffffffffffffffffffffffffffffffffffffffffff1916827bffffffffffffffffffffffffffffffffffffffffffffffffffffffff1916148061060557507f0e89341c000000000000000000000000000000000000000000000000000000007bffffffffffffffffffffffffffffffffffffffffffffffffffffffff1916827bffffffffffffffffffffffffffffffffffffffffffffffffffffffff1916145b8061061557506106148261173b565b5b9050919050565b606060226000838152602001908152602001600020805461063c90614137565b80601f016020809104026020016040519081016040528092919081815260200182805461066890614137565b80156106b55780601f1061068a576101008083540402835291602001916106b5565b820191906000526020600020905b81548152906001019060200180831161069857829003601f168201915b50505050509050919050565b6106c96117a5565b73ffffffffffffffffffffffffffffffffffffffff166106e7611253565b73ffffffffffffffffffffffffffffffffffffffff161461073d576040517f08c379a000000000000000000000000000000000000000000000000000000000815260040161073490613c51565b60405180910390fd5b8060189080519060200190610753929190612ac3565b5050565b61075f612b49565b610767612b49565b60005b600581101561082f576000600a826107829190613fe6565b905060006009600a846107959190613fe6565b61079f9190613f5f565b905081600183836107b09190614040565b6107ba9190613f5f565b423344876040516020016107d19493929190613841565b6040516020818303038152906040528051906020012060001c6107f4919061423b565b6107fe9190613f5f565b848460058110610811576108106142f9565b5b602002018181525050505080806108279061419a565b91505061076a565b508091505090565b60006108416117a5565b73ffffffffffffffffffffffffffffffffffffffff1661085f611253565b73ffffffffffffffffffffffffffffffffffffffff16146108b5576040517f08c379a00000000000000000000000000000000000000000000000000000000081526004016108ac90613c51565b60405180910390fd5b600954905090565b6108c5612b6b565b6108cd612b6b565b60006005436108dc919061423b565b905060005b6003811015610a1a576005826108f7919061423b565b91506000600a836109089190613fe6565b905060006009600a8561091b9190613fe6565b6109259190613f5f565b905081600183836109369190614040565b6109409190613f5f565b423344876040516020016109579493929190613841565b6040516020818303038152906040528051906020012060001c61097a919061423b565b6109849190613f5f565b858460038110610997576109966142f9565b5b6020020181815250506001846109ad9190613f5f565b9350610a056040518060400160405280601181526020017f426f6f7374657220696e646578206973200000000000000000000000000000008152508685600381106109fb576109fa6142f9565b5b60200201516117ad565b50508080610a129061419a565b9150506108e1565b50819250505090565b600f5481565b610a316117a5565b73ffffffffffffffffffffffffffffffffffffffff16610a4f611253565b73ffffffffffffffffffffffffffffffffffffffff1614610aa5576040517f08c379a0000000000000000000000000000000000000000000000000000000008152600401610a9c90613c51565b60405180910390fd5b601060089054906101000a900460ff1615601060086101000a81548160ff021916908315150217905550565b610ad96117a5565b73ffffffffffffffffffffffffffffffffffffffff168573ffffffffffffffffffffffffffffffffffffffff161480610b1f5750610b1e85610b196117a5565b61139e565b5b610b5e576040517f08c379a0000000000000000000000000000000000000000000000000000000008152600401610b5590613bd1565b60405180910390fd5b610b6b8585858585611849565b5050505050565b60608151835114610bb8576040517f08c379a0000000000000000000000000000000000000000000000000000000008152600401610baf90613cf1565b60405180910390fd5b6000835167ffffffffffffffff811115610bd557610bd4614328565b5b604051908082528060200260200182016040528015610c035781602001602082028036833780820191505090505b50905060005b8451811015610c8057610c50858281518110610c2857610c276142f9565b5b6020026020010151858381518110610c4357610c426142f9565b5b6020026020010151610471565b828281518110610c6357610c626142f9565b5b60200260200101818152505080610c799061419a565b9050610c09565b508091505092915050565b600e5460145410610cd1576040517f08c379a0000000000000000000000000000000000000000000000000000000008152600401610cc890613c71565b60405180910390fd5b6001610cdf33601154610471565b10610d1f576040517f08c379a0000000000000000000000000000000000000000000000000000000008152600401610d1690613cb1565b60405180910390fd5b610d3d33601254600160405180602001604052806000815250611b5d565b600160146000828254610d509190613f5f565b925050819055507f2e0f4d63dcc00e6a11c8aef9f6e15c1f9cd6e9a090b2dd99c7b797f1a28d300d33601454604051610d8a92919061396c565b60405180910390a1565b610d9c6117a5565b73ffffffffffffffffffffffffffffffffffffffff16610dba611253565b73ffffffffffffffffffffffffffffffffffffffff1614610e10576040517f08c379a0000000000000000000000000000000000000000000000000000000008152600401610e0790613c51565b60405180910390fd5b6000602260008481526020019081526020016000208054610e3090614137565b905014610e72576040517f08c379a0000000000000000000000000000000000000000000000000000000008152600401610e6990613bf1565b60405180910390fd5b80602260008481526020019081526020016000209080519060200190610e99929190612ac3565b505050565b610ea66117a5565b73ffffffffffffffffffffffffffffffffffffffff16610ec4611253565b73ffffffffffffffffffffffffffffffffffffffff1614610f1a576040517f08c379a0000000000000000000000000000000000000000000000000000000008152600401610f1190613c51565b60405180910390fd5b60005b600854811015610f8e57600060085482601754610f3a9190613f5f565b610f44919061423b565b9050610f7a816005610f5584611cf3565b604051602001610f66929190613812565b604051602081830303815290604052610d94565b508080610f869061419a565b915050610f1d565b50610fc76001600854610fa19190613f5f565b6006604051602001610fb391906137fb565b604051602081830303815290604052610d94565b610fff6002600854610fd99190613f5f565b6007604051602001610feb91906137fb565b604051602081830303815290604052610d94565b565b6110096117a5565b73ffffffffffffffffffffffffffffffffffffffff16611027611253565b73ffffffffffffffffffffffffffffffffffffffff161461107d576040517f08c379a000000000000000000000000000000000000000000000000000000000815260040161107490613c51565b60405180910390fd5b6110876000611e54565b565b601060089054906101000a900460ff166110d8576040517f08c379a00000000000000000000000000000000000000000000000000000000081526004016110cf90613c91565b60405180910390fd5b60006110e633601254610471565b11611126576040517f08c379a000000000000000000000000000000000000000000000000000000000815260040161111d90613ad1565b60405180910390fd5b60006111306108bd565b905060005b60038160ff16101561117757611164828260ff166003811061115a576111596142f9565b5b6020020151611f1a565b808061116f906141e3565b915050611135565b50611186336012546001612015565b50565b6111916117a5565b73ffffffffffffffffffffffffffffffffffffffff166111af611253565b73ffffffffffffffffffffffffffffffffffffffff1614611205576040517f08c379a00000000000000000000000000000000000000000000000000000000081526004016111fc90613c51565b60405180910390fd5b60006017541461124a576040517f08c379a000000000000000000000000000000000000000000000000000000000815260040161124190613b91565b60405180910390fd5b43601681905550565b6000600360009054906101000a900473ffffffffffffffffffffffffffffffffffffffff16905090565b61129b33601154600160405180602001604052806000815250611b5d565b6001601360008282546112ae9190613f5f565b925050819055506001602160008282546112c89190614040565b925050819055507f2e0f4d63dcc00e6a11c8aef9f6e15c1f9cd6e9a090b2dd99c7b797f1a28d300d3360135460405161130292919061396c565b60405180910390a1565b61131e6113176117a5565b8383612232565b5050565b600061132c610757565b905060005b60058160ff16101561137357611360828260ff1660058110611356576113556142f9565b5b6020020151611f1a565b808061136b906141e3565b915050611331565b50611382336011546001612015565b50565b601060089054906101000a900460ff1681565b60215481565b6000600160008473ffffffffffffffffffffffffffffffffffffffff1673ffffffffffffffffffffffffffffffffffffffff16815260200190815260200160002060008373ffffffffffffffffffffffffffffffffffffffff1673ffffffffffffffffffffffffffffffffffffffff16815260200190815260200160002060009054906101000a900460ff16905092915050565b61143a6117a5565b73ffffffffffffffffffffffffffffffffffffffff16611458611253565b73ffffffffffffffffffffffffffffffffffffffff16146114ae576040517f08c379a00000000000000000000000000000000000000000000000000000000081526004016114a590613c51565b60405180910390fd5b6009546008546114be9190613fe6565b6001436114cb9190614040565b4060001c6114d9919061423b565b6017819055506000601754141561150757611500600160175461239f90919063ffffffff16565b6017819055505b565b6115116117a5565b73ffffffffffffffffffffffffffffffffffffffff168573ffffffffffffffffffffffffffffffffffffffff1614806115575750611556856115516117a5565b61139e565b5b611596576040517f08c379a000000000000000000000000000000000000000000000000000000000815260040161158d90613b51565b60405180910390fd5b6115a385858585856123b5565b5050505050565b6115b26117a5565b73ffffffffffffffffffffffffffffffffffffffff166115d0611253565b73ffffffffffffffffffffffffffffffffffffffff1614611626576040517f08c379a000000000000000000000000000000000000000000000000000000000815260040161161d90613c51565b60405180910390fd5b600073ffffffffffffffffffffffffffffffffffffffff168173ffffffffffffffffffffffffffffffffffffffff161415611696576040517f08c379a000000000000000000000000000000000000000000000000000000000815260040161168d90613b11565b60405180910390fd5b61169f81611e54565b50565b611738816040516024016116b69190613a3f565b6040516020818303038152906040527f41304fac000000000000000000000000000000000000000000000000000000007bffffffffffffffffffffffffffffffffffffffffffffffffffffffff19166020820180517bffffffffffffffffffffffffffffffffffffffffffffffffffffffff8381831617835250505050612637565b50565b60007f01ffc9a7000000000000000000000000000000000000000000000000000000007bffffffffffffffffffffffffffffffffffffffffffffffffffffffff1916827bffffffffffffffffffffffffffffffffffffffffffffffffffffffff1916149050919050565b600033905090565b61184582826040516024016117c3929190613a61565b6040516020818303038152906040527f9710a9d0000000000000000000000000000000000000000000000000000000007bffffffffffffffffffffffffffffffffffffffffffffffffffffffff19166020820180517bffffffffffffffffffffffffffffffffffffffffffffffffffffffff8381831617835250505050612637565b5050565b815183511461188d576040517f08c379a000000000000000000000000000000000000000000000000000000000815260040161188490613d11565b60405180910390fd5b600073ffffffffffffffffffffffffffffffffffffffff168473ffffffffffffffffffffffffffffffffffffffff1614156118fd576040517f08c379a00000000000000000000000000000000000000000000000000000000081526004016118f490613bb1565b60405180910390fd5b60006119076117a5565b9050611917818787878787612660565b60005b8451811015611ac8576000858281518110611938576119376142f9565b5b602002602001015190506000858381518110611957576119566142f9565b5b60200260200101519050600080600084815260200190815260200160002060008b73ffffffffffffffffffffffffffffffffffffffff1673ffffffffffffffffffffffffffffffffffffffff168152602001908152602001600020549050818110156119f8576040517f08c379a00000000000000000000000000000000000000000000000000000000081526004016119ef90613c31565b60405180910390fd5b81810360008085815260200190815260200160002060008c73ffffffffffffffffffffffffffffffffffffffff1673ffffffffffffffffffffffffffffffffffffffff168152602001908152602001600020819055508160008085815260200190815260200160002060008b73ffffffffffffffffffffffffffffffffffffffff1673ffffffffffffffffffffffffffffffffffffffff1681526020019081526020016000206000828254611aad9190613f5f565b9250508190555050505080611ac19061419a565b905061191a565b508473ffffffffffffffffffffffffffffffffffffffff168673ffffffffffffffffffffffffffffffffffffffff168273ffffffffffffffffffffffffffffffffffffffff167f4a39dc06d4c0dbc64b70af90fd698a233a518aa5d07e595d983b8c0526c8f7fb8787604051611b3f9291906139ed565b60405180910390a4611b55818787878787612668565b505050505050565b600073ffffffffffffffffffffffffffffffffffffffff168473ffffffffffffffffffffffffffffffffffffffff161415611bcd576040517f08c379a0000000000000000000000000000000000000000000000000000000008152600401611bc490613d31565b60405180910390fd5b6000611bd76117a5565b9050611bf881600087611be98861284f565b611bf28861284f565b87612660565b8260008086815260200190815260200160002060008773ffffffffffffffffffffffffffffffffffffffff1673ffffffffffffffffffffffffffffffffffffffff1681526020019081526020016000206000828254611c579190613f5f565b925050819055508473ffffffffffffffffffffffffffffffffffffffff16600073ffffffffffffffffffffffffffffffffffffffff168273ffffffffffffffffffffffffffffffffffffffff167fc3d58168c5ae7397731d063d5bbf3d657854427343f4c083240f7aacaa2d0f628787604051611cd5929190613d6c565b60405180910390a4611cec816000878787876128c9565b5050505050565b60606000821415611d3b576040518060400160405280600181526020017f30000000000000000000000000000000000000000000000000000000000000008152509050611e4f565b600082905060005b60008214611d6d578080611d569061419a565b915050600a82611d669190613fb5565b9150611d43565b60008167ffffffffffffffff811115611d8957611d88614328565b5b6040519080825280601f01601f191660200182016040528015611dbb5781602001600182028036833780820191505090505b5090505b60008514611e4857600182611dd49190614040565b9150600a85611de3919061423b565b6030611def9190613f5f565b60f81b818381518110611e0557611e046142f9565b5b60200101907effffffffffffffffffffffffffffffffffffffffffffffffffffffffffffff1916908160001a905350600a85611e419190613fb5565b9450611dbf565b8093505050505b919050565b6000600360009054906101000a900473ffffffffffffffffffffffffffffffffffffffff16905081600360006101000a81548173ffffffffffffffffffffffffffffffffffffffff021916908373ffffffffffffffffffffffffffffffffffffffff1602179055508173ffffffffffffffffffffffffffffffffffffffff168173ffffffffffffffffffffffffffffffffffffffff167f8be0079c531659141344cd1fd0a4f28419497f9722a3daafe3b4186f6b6457e060405160405180910390a35050565b600954600854611f2a9190613fe6565b601554101561201257600954602360008381526020019081526020016000205410611f8a576040517f08c379a0000000000000000000000000000000000000000000000000000000008152600401611f8190613b71565b60405180910390fd5b611fcc338260016040518060400160405280600481526020017f3078303000000000000000000000000000000000000000000000000000000000815250611b5d565b6001602360008381526020019081526020016000206000828254611ff09190613f5f565b9250508190555060016015600082825461200a9190613f5f565b925050819055505b50565b600073ffffffffffffffffffffffffffffffffffffffff168373ffffffffffffffffffffffffffffffffffffffff161415612085576040517f08c379a000000000000000000000000000000000000000000000000000000000815260040161207c90613c11565b60405180910390fd5b600061208f6117a5565b90506120bf818560006120a18761284f565b6120aa8761284f565b60405180602001604052806000815250612660565b600080600085815260200190815260200160002060008673ffffffffffffffffffffffffffffffffffffffff1673ffffffffffffffffffffffffffffffffffffffff16815260200190815260200160002054905082811015612156576040517f08c379a000000000000000000000000000000000000000000000000000000000815260040161214d90613b31565b60405180910390fd5b82810360008086815260200190815260200160002060008773ffffffffffffffffffffffffffffffffffffffff1673ffffffffffffffffffffffffffffffffffffffff16815260200190815260200160002081905550600073ffffffffffffffffffffffffffffffffffffffff168573ffffffffffffffffffffffffffffffffffffffff168373ffffffffffffffffffffffffffffffffffffffff167fc3d58168c5ae7397731d063d5bbf3d657854427343f4c083240f7aacaa2d0f628787604051612223929190613d6c565b60405180910390a45050505050565b8173ffffffffffffffffffffffffffffffffffffffff168373ffffffffffffffffffffffffffffffffffffffff1614156122a1576040517f08c379a000000000000000000000000000000000000000000000000000000000815260040161229890613cd1565b60405180910390fd5b80600160008573ffffffffffffffffffffffffffffffffffffffff1673ffffffffffffffffffffffffffffffffffffffff16815260200190815260200160002060008473ffffffffffffffffffffffffffffffffffffffff1673ffffffffffffffffffffffffffffffffffffffff16815260200190815260200160002060006101000a81548160ff0219169083151502179055508173ffffffffffffffffffffffffffffffffffffffff168373ffffffffffffffffffffffffffffffffffffffff167f17307eab39ab6107e8899845ad3d59bd9653f200f220920489ca2b5937696c31836040516123929190613a24565b60405180910390a3505050565b600081836123ad9190613f5f565b905092915050565b600073ffffffffffffffffffffffffffffffffffffffff168473ffffffffffffffffffffffffffffffffffffffff161415612425576040517f08c379a000000000000000000000000000000000000000000000000000000000815260040161241c90613bb1565b60405180910390fd5b600061242f6117a5565b905061244f8187876124408861284f565b6124498861284f565b87612660565b600080600086815260200190815260200160002060008873ffffffffffffffffffffffffffffffffffffffff1673ffffffffffffffffffffffffffffffffffffffff168152602001908152602001600020549050838110156124e6576040517f08c379a00000000000000000000000000000000000000000000000000000000081526004016124dd90613c31565b60405180910390fd5b83810360008087815260200190815260200160002060008973ffffffffffffffffffffffffffffffffffffffff1673ffffffffffffffffffffffffffffffffffffffff168152602001908152602001600020819055508360008087815260200190815260200160002060008873ffffffffffffffffffffffffffffffffffffffff1673ffffffffffffffffffffffffffffffffffffffff168152602001908152602001600020600082825461259b9190613f5f565b925050819055508573ffffffffffffffffffffffffffffffffffffffff168773ffffffffffffffffffffffffffffffffffffffff168373ffffffffffffffffffffffffffffffffffffffff167fc3d58168c5ae7397731d063d5bbf3d657854427343f4c083240f7aacaa2d0f628888604051612618929190613d6c565b60405180910390a461262e8288888888886128c9565b50505050505050565b60008151905060006a636f6e736f6c652e6c6f679050602083016000808483855afa5050505050565b505050505050565b6126878473ffffffffffffffffffffffffffffffffffffffff16612ab0565b15612847578373ffffffffffffffffffffffffffffffffffffffff1663bc197c8187878686866040518663ffffffff1660e01b81526004016126cd9594939291906138aa565b602060405180830381600087803b1580156126e757600080fd5b505af192505050801561271857506040513d601f19601f820116820180604052508101906127159190613127565b60015b6127be57612724614357565b806308c379a0141561278157506127396149f2565b806127445750612783565b806040517f08c379a00000000000000000000000000000000000000000000000000000000081526004016127789190613a3f565b60405180910390fd5b505b6040517f08c379a00000000000000000000000000000000000000000000000000000000081526004016127b590613a91565b60405180910390fd5b63bc197c8160e01b7bffffffffffffffffffffffffffffffffffffffffffffffffffffffff1916817bffffffffffffffffffffffffffffffffffffffffffffffffffffffff191614612845576040517f08c379a000000000000000000000000000000000000000000000000000000000815260040161283c90613ab1565b60405180910390fd5b505b505050505050565b60606000600167ffffffffffffffff81111561286e5761286d614328565b5b60405190808252806020026020018201604052801561289c5781602001602082028036833780820191505090505b50905082816000815181106128b4576128b36142f9565b5b60200260200101818152505080915050919050565b6128e88473ffffffffffffffffffffffffffffffffffffffff16612ab0565b15612aa8578373ffffffffffffffffffffffffffffffffffffffff1663f23a6e6187878686866040518663ffffffff1660e01b815260040161292e959493929190613912565b602060405180830381600087803b15801561294857600080fd5b505af192505050801561297957506040513d601f19601f820116820180604052508101906129769190613127565b60015b612a1f57612985614357565b806308c379a014156129e2575061299a6149f2565b806129a557506129e4565b806040517f08c379a00000000000000000000000000000000000000000000000000000000081526004016129d99190613a3f565b60405180910390fd5b505b6040517f08c379a0000000000000000000000000000000000000000000000000000000008152600401612a1690613a91565b60405180910390fd5b63f23a6e6160e01b7bffffffffffffffffffffffffffffffffffffffffffffffffffffffff1916817bffffffffffffffffffffffffffffffffffffffffffffffffffffffff191614612aa6576040517f08c379a0000000000000000000000000000000000000000000000000000000008152600401612a9d90613ab1565b60405180910390fd5b505b505050505050565b600080823b905060008111915050919050565b828054612acf90614137565b90600052602060002090601f016020900481019282612af15760008555612b38565b82601f10612b0a57805160ff1916838001178555612b38565b82800160010185558215612b38579182015b82811115612b37578251825591602001919060010190612b1c565b5b509050612b459190612b8d565b5090565b6040518060a00160405280600590602082028036833780820191505090505090565b6040518060600160405280600390602082028036833780820191505090505090565b5b80821115612ba6576000816000905550600101612b8e565b5090565b6000612bbd612bb884613dba565b613d95565b90508083825260208201905082856020860282011115612be057612bdf61437e565b5b60005b85811015612c105781612bf68882612d0e565b845260208401935060208301925050600181019050612be3565b5050509392505050565b6000612c2d612c2884613de6565b613d95565b90508083825260208201905082856020860282011115612c5057612c4f61437e565b5b60005b85811015612c805781612c668882612e1a565b845260208401935060208301925050600181019050612c53565b5050509392505050565b6000612c9d612c9884613e12565b613d95565b905082815260208101848484011115612cb957612cb8614383565b5b612cc48482856140f5565b509392505050565b6000612cdf612cda84613e43565b613d95565b905082815260208101848484011115612cfb57612cfa614383565b5b612d068482856140f5565b509392505050565b600081359050612d1d81614a88565b92915050565b600082601f830112612d3857612d37614379565b5b8135612d48848260208601612baa565b91505092915050565b600082601f830112612d6657612d65614379565b5b8135612d76848260208601612c1a565b91505092915050565b600081359050612d8e81614a9f565b92915050565b600081359050612da381614ab6565b92915050565b600081519050612db881614ab6565b92915050565b600082601f830112612dd357612dd2614379565b5b8135612de3848260208601612c8a565b91505092915050565b600082601f830112612e0157612e00614379565b5b8135612e11848260208601612ccc565b91505092915050565b600081359050612e2981614acd565b92915050565b600060208284031215612e4557612e4461438d565b5b6000612e5384828501612d0e565b91505092915050565b60008060408385031215612e7357612e7261438d565b5b6000612e8185828601612d0e565b9250506020612e9285828601612d0e565b9150509250929050565b600080600080600060a08688031215612eb857612eb761438d565b5b6000612ec688828901612d0e565b9550506020612ed788828901612d0e565b945050604086013567ffffffffffffffff811115612ef857612ef7614388565b5b612f0488828901612d51565b935050606086013567ffffffffffffffff811115612f2557612f24614388565b5b612f3188828901612d51565b925050608086013567ffffffffffffffff811115612f5257612f51614388565b5b612f5e88828901612dbe565b9150509295509295909350565b600080600080600060a08688031215612f8757612f8661438d565b5b6000612f9588828901612d0e565b9550506020612fa688828901612d0e565b9450506040612fb788828901612e1a565b9350506060612fc888828901612e1a565b925050608086013567ffffffffffffffff811115612fe957612fe8614388565b5b612ff588828901612dbe565b9150509295509295909350565b600080604083850312156130195761301861438d565b5b600061302785828601612d0e565b925050602061303885828601612d7f565b9150509250929050565b600080604083850312156130595761305861438d565b5b600061306785828601612d0e565b925050602061307885828601612e1a565b9150509250929050565b600080604083850312156130995761309861438d565b5b600083013567ffffffffffffffff8111156130b7576130b6614388565b5b6130c385828601612d23565b925050602083013567ffffffffffffffff8111156130e4576130e3614388565b5b6130f085828601612d51565b9150509250929050565b6000602082840312156131105761310f61438d565b5b600061311e84828501612d94565b91505092915050565b60006020828403121561313d5761313c61438d565b5b600061314b84828501612da9565b91505092915050565b60006020828403121561316a5761316961438d565b5b600082013567ffffffffffffffff81111561318857613187614388565b5b61319484828501612dec565b91505092915050565b6000602082840312156131b3576131b261438d565b5b60006131c184828501612e1a565b91505092915050565b600080604083850312156131e1576131e061438d565b5b60006131ef85828601612e1a565b925050602083013567ffffffffffffffff8111156132105761320f614388565b5b61321c85828601612dec565b9150509250929050565b600061323283836137c6565b60208301905092915050565b61324781614074565b82525050565b61325e61325982614074565b61420d565b82525050565b61326d81613ead565b6132778184613f0b565b925061328282613e74565b8060005b838110156132b357815161329a8782613226565b96506132a583613ee4565b925050600181019050613286565b505050505050565b6132c481613eb8565b6132ce8184613f16565b92506132d982613e7e565b8060005b8381101561330a5781516132f18782613226565b96506132fc83613ef1565b9250506001810190506132dd565b505050505050565b600061331d82613ec3565b6133278185613f21565b935061333283613e88565b8060005b8381101561336357815161334a8882613226565b975061335583613efe565b925050600181019050613336565b5085935050505092915050565b61337981614086565b82525050565b600061338a82613ece565b6133948185613f32565b93506133a4818560208601614104565b6133ad81614392565b840191505092915050565b60006133c382613ed9565b6133cd8185613f43565b93506133dd818560208601614104565b6133e681614392565b840191505092915050565b60006133fc82613ed9565b6134068185613f54565b9350613416818560208601614104565b80840191505092915050565b6000815461342f81614137565b6134398186613f54565b94506001821660008114613454576001811461346557613498565b60ff19831686528186019350613498565b61346e85613e98565b60005b8381101561349057815481890152600182019150602081019050613471565b838801955050505b50505092915050565b60006134ae603483613f43565b91506134b9826143bd565b604082019050919050565b60006134d1602883613f43565b91506134dc8261440c565b604082019050919050565b60006134f4601b83613f43565b91506134ff8261445b565b602082019050919050565b6000613517602b83613f43565b915061352282614484565b604082019050919050565b600061353a602683613f43565b9150613545826144d3565b604082019050919050565b600061355d602483613f43565b915061356882614522565b604082019050919050565b6000613580602983613f43565b915061358b82614571565b604082019050919050565b60006135a3602d83613f43565b91506135ae826145c0565b604082019050919050565b60006135c6601d83613f43565b91506135d18261460f565b602082019050919050565b60006135e9602583613f43565b91506135f482614638565b604082019050919050565b600061360c603283613f43565b915061361782614687565b604082019050919050565b600061362f601483613f43565b915061363a826146d6565b602082019050919050565b6000613652602383613f43565b915061365d826146ff565b604082019050919050565b6000613675602a83613f43565b91506136808261474e565b604082019050919050565b6000613698600583613f54565b91506136a38261479d565b600582019050919050565b60006136bb602083613f43565b91506136c6826147c6565b602082019050919050565b60006136de602383613f43565b91506136e9826147ef565b604082019050919050565b6000613701601f83613f43565b915061370c8261483e565b602082019050919050565b6000613724602a83613f43565b915061372f82614867565b604082019050919050565b6000613747602983613f43565b9150613752826148b6565b604082019050919050565b600061376a602983613f43565b915061377582614905565b604082019050919050565b600061378d602883613f43565b915061379882614954565b604082019050919050565b60006137b0602183613f43565b91506137bb826149a3565b604082019050919050565b6137cf816140de565b82525050565b6137de816140de565b82525050565b6137f56137f0826140de565b614231565b82525050565b60006138078284613422565b915081905092915050565b600061381e8285613422565b915061382a82846133f1565b91506138358261368b565b91508190509392505050565b600061384d82876137e4565b60208201915061385d828661324d565b60148201915061386d82856137e4565b60208201915061387d82846137e4565b60208201915081905095945050505050565b60006020820190506138a4600083018461323e565b92915050565b600060a0820190506138bf600083018861323e565b6138cc602083018761323e565b81810360408301526138de8186613312565b905081810360608301526138f28185613312565b90508181036080830152613906818461337f565b90509695505050505050565b600060a082019050613927600083018861323e565b613934602083018761323e565b61394160408301866137d5565b61394e60608301856137d5565b8181036080830152613960818461337f565b90509695505050505050565b6000604082019050613981600083018561323e565b61398e60208301846137d5565b9392505050565b60006060820190506139aa6000830184613264565b92915050565b600060a0820190506139c560008301846132bb565b92915050565b600060208201905081810360008301526139e58184613312565b905092915050565b60006040820190508181036000830152613a078185613312565b90508181036020830152613a1b8184613312565b90509392505050565b6000602082019050613a396000830184613370565b92915050565b60006020820190508181036000830152613a5981846133b8565b905092915050565b60006040820190508181036000830152613a7b81856133b8565b9050613a8a60208301846137d5565b9392505050565b60006020820190508181036000830152613aaa816134a1565b9050919050565b60006020820190508181036000830152613aca816134c4565b9050919050565b60006020820190508181036000830152613aea816134e7565b9050919050565b60006020820190508181036000830152613b0a8161350a565b9050919050565b60006020820190508181036000830152613b2a8161352d565b9050919050565b60006020820190508181036000830152613b4a81613550565b9050919050565b60006020820190508181036000830152613b6a81613573565b9050919050565b60006020820190508181036000830152613b8a81613596565b9050919050565b60006020820190508181036000830152613baa816135b9565b9050919050565b60006020820190508181036000830152613bca816135dc565b9050919050565b60006020820190508181036000830152613bea816135ff565b9050919050565b60006020820190508181036000830152613c0a81613622565b9050919050565b60006020820190508181036000830152613c2a81613645565b9050919050565b60006020820190508181036000830152613c4a81613668565b9050919050565b60006020820190508181036000830152613c6a816136ae565b9050919050565b60006020820190508181036000830152613c8a816136d1565b9050919050565b60006020820190508181036000830152613caa816136f4565b9050919050565b60006020820190508181036000830152613cca81613717565b9050919050565b60006020820190508181036000830152613cea8161373a565b9050919050565b60006020820190508181036000830152613d0a8161375d565b9050919050565b60006020820190508181036000830152613d2a81613780565b9050919050565b60006020820190508181036000830152613d4a816137a3565b9050919050565b6000602082019050613d6660008301846137d5565b92915050565b6000604082019050613d8160008301856137d5565b613d8e60208301846137d5565b9392505050565b6000613d9f613db0565b9050613dab8282614169565b919050565b6000604051905090565b600067ffffffffffffffff821115613dd557613dd4614328565b5b602082029050602081019050919050565b600067ffffffffffffffff821115613e0157613e00614328565b5b602082029050602081019050919050565b600067ffffffffffffffff821115613e2d57613e2c614328565b5b613e3682614392565b9050602081019050919050565b600067ffffffffffffffff821115613e5e57613e5d614328565b5b613e6782614392565b9050602081019050919050565b6000819050919050565b6000819050919050565b6000819050602082019050919050565b60008190508160005260206000209050919050565b600060039050919050565b600060059050919050565b600081519050919050565b600081519050919050565b600081519050919050565b6000602082019050919050565b6000602082019050919050565b6000602082019050919050565b600081905092915050565b600081905092915050565b600082825260208201905092915050565b600082825260208201905092915050565b600082825260208201905092915050565b600081905092915050565b6000613f6a826140de565b9150613f75836140de565b9250827fffffffffffffffffffffffffffffffffffffffffffffffffffffffffffffffff03821115613faa57613fa961426c565b5b828201905092915050565b6000613fc0826140de565b9150613fcb836140de565b925082613fdb57613fda61429b565b5b828204905092915050565b6000613ff1826140de565b9150613ffc836140de565b9250817fffffffffffffffffffffffffffffffffffffffffffffffffffffffffffffffff04831182151516156140355761403461426c565b5b828202905092915050565b600061404b826140de565b9150614056836140de565b9250828210156140695761406861426c565b5b828203905092915050565b600061407f826140be565b9050919050565b60008115159050919050565b60007fffffffff0000000000000000000000000000000000000000000000000000000082169050919050565b600073ffffffffffffffffffffffffffffffffffffffff82169050919050565b6000819050919050565b600060ff82169050919050565b82818337600083830152505050565b60005b83811015614122578082015181840152602081019050614107565b83811115614131576000848401525b50505050565b6000600282049050600182168061414f57607f821691505b60208210811415614163576141626142ca565b5b50919050565b61417282614392565b810181811067ffffffffffffffff8211171561419157614190614328565b5b80604052505050565b60006141a5826140de565b91507fffffffffffffffffffffffffffffffffffffffffffffffffffffffffffffffff8214156141d8576141d761426c565b5b600182019050919050565b60006141ee826140e8565b915060ff8214156142025761420161426c565b5b600182019050919050565b60006142188261421f565b9050919050565b600061422a826143a3565b9050919050565b6000819050919050565b6000614246826140de565b9150614251836140de565b9250826142615761426061429b565b5b828206905092915050565b7f4e487b7100000000000000000000000000000000000000000000000000000000600052601160045260246000fd5b7f4e487b7100000000000000000000000000000000000000000000000000000000600052601260045260246000fd5b7f4e487b7100000000000000000000000000000000000000000000000000000000600052602260045260246000fd5b7f4e487b7100000000000000000000000000000000000000000000000000000000600052603260045260246000fd5b7f4e487b7100000000000000000000000000000000000000000000000000000000600052604160045260246000fd5b600060033d11156143765760046000803e6143736000516143b0565b90505b90565b600080fd5b600080fd5b600080fd5b600080fd5b600080fd5b6000601f19601f8301169050919050565b60008160601b9050919050565b60008160e01c9050919050565b7f455243313135353a207472616e7366657220746f206e6f6e204552433131353560008201527f526563656976657220696d706c656d656e746572000000000000000000000000602082015250565b7f455243313135353a204552433131353552656365697665722072656a6563746560008201527f6420746f6b656e73000000000000000000000000000000000000000000000000602082015250565b7f4e6f2072656d61696e696e6720626f6f73746572207061636b73210000000000600082015250565b7f455243313135353a2062616c616e636520717565727920666f7220746865207a60008201527f65726f2061646472657373000000000000000000000000000000000000000000602082015250565b7f4f776e61626c653a206e6577206f776e657220697320746865207a65726f206160008201527f6464726573730000000000000000000000000000000000000000000000000000602082015250565b7f455243313135353a206275726e20616d6f756e7420657863656564732062616c60008201527f616e636500000000000000000000000000000000000000000000000000000000602082015250565b7f455243313135353a2063616c6c6572206973206e6f74206f776e6572206e6f7260008201527f20617070726f7665640000000000000000000000000000000000000000000000602082015250565b7f416c6c206f662074686973206174686c657465206861766520616c726561647960008201527f206265656e206d696e7465642100000000000000000000000000000000000000602082015250565b7f5374617274696e6720696e64657820697320616c726561647920736574000000600082015250565b7f455243313135353a207472616e7366657220746f20746865207a65726f20616460008201527f6472657373000000000000000000000000000000000000000000000000000000602082015250565b7f455243313135353a207472616e736665722063616c6c6572206973206e6f742060008201527f6f776e6572206e6f7220617070726f7665640000000000000000000000000000602082015250565b7f43616e6e6f742073657420757269207477696365000000000000000000000000600082015250565b7f455243313135353a206275726e2066726f6d20746865207a65726f206164647260008201527f6573730000000000000000000000000000000000000000000000000000000000602082015250565b7f455243313135353a20696e73756666696369656e742062616c616e636520666f60008201527f72207472616e7366657200000000000000000000000000000000000000000000602082015250565b7f2e6a736f6e000000000000000000000000000000000000000000000000000000600082015250565b7f4f776e61626c653a2063616c6c6572206973206e6f7420746865206f776e6572600082015250565b7f416c6c207061636b73206861766520616c7265616479206265656e206d696e7460008201527f6564210000000000000000000000000000000000000000000000000000000000602082015250565b7f5061636b73206172656e277420726561647920746f206f70656e207965742100600082015250565b7f43616e206f6e6c79206d696e74206f6e652073746172746572207061636b207060008201527f6572206163636f756e7400000000000000000000000000000000000000000000602082015250565b7f455243313135353a2073657474696e6720617070726f76616c2073746174757360008201527f20666f722073656c660000000000000000000000000000000000000000000000602082015250565b7f455243313135353a206163636f756e747320616e6420696473206c656e67746860008201527f206d69736d617463680000000000000000000000000000000000000000000000602082015250565b7f455243313135353a2069647320616e6420616d6f756e7473206c656e6774682060008201527f6d69736d61746368000000000000000000000000000000000000000000000000602082015250565b7f455243313135353a206d696e7420746f20746865207a65726f2061646472657360008201527f7300000000000000000000000000000000000000000000000000000000000000602082015250565b600060443d1015614a0257614a85565b614a0a613db0565b60043d036004823e80513d602482011167ffffffffffffffff82111715614a32575050614a85565b808201805167ffffffffffffffff811115614a505750505050614a85565b80602083010160043d038501811115614a6d575050505050614a85565b614a7c82602001850186614169565b82955050505050505b90565b614a9181614074565b8114614a9c57600080fd5b50565b614aa881614086565b8114614ab357600080fd5b50565b614abf81614092565b8114614aca57600080fd5b50565b614ad6816140de565b8114614ae157600080fd5b5056fea26469706673582212202446dafe450e61d83b64d0fb5d2a69124b85db0f1909a29e44e8cecc651abbda64736f6c63430008070033",
  "linkReferences": {},
  "deployedLinkReferences": {}
}