{
  "_format": "hh-sol-artifact-1",
  "contractName": "GameItems",
  "sourceName": "contracts/GameItems.sol",
  "abi": [
    {
      "inputs": [
        {
          "components": [
            {
              "internalType": "uint256",
              "name": "_numAthletes",
              "type": "uint256"
            },
            {
              "internalType": "uint256",
              "name": "_nftPerAthlete",
              "type": "uint256"
            },
            {
              "internalType": "uint256",
              "name": "_starterPackSize",
              "type": "uint256"
            },
            {
              "internalType": "uint256",
              "name": "_boosterPackSize",
              "type": "uint256"
            },
            {
              "internalType": "uint256",
              "name": "_maxStarterPackBalance",
              "type": "uint256"
            },
            {
              "internalType": "uint256",
              "name": "_maxBoosterPackBalance",
              "type": "uint256"
            },
            {
              "internalType": "uint256",
              "name": "_maxPacks",
              "type": "uint256"
            },
            {
              "internalType": "uint256",
              "name": "_maxBoosterPacks",
              "type": "uint256"
            },
            {
              "internalType": "uint256",
              "name": "_revealTimestamp",
              "type": "uint256"
            }
          ],
          "internalType": "struct GameItems.Parameters",
          "name": "params",
          "type": "tuple"
        },
        {
          "internalType": "string",
          "name": "_athleteURI",
          "type": "string"
        },
        {
          "internalType": "string",
          "name": "_starterPackURI",
          "type": "string"
        },
        {
          "internalType": "string",
          "name": "_boosterPackURI",
          "type": "string"
        }
      ],
      "stateMutability": "nonpayable",
      "type": "constructor"
    },
    {
      "anonymous": false,
      "inputs": [
        {
          "indexed": true,
          "internalType": "address",
          "name": "account",
          "type": "address"
        },
        {
          "indexed": true,
          "internalType": "address",
          "name": "operator",
          "type": "address"
        },
        {
          "indexed": false,
          "internalType": "bool",
          "name": "approved",
          "type": "bool"
        }
      ],
      "name": "ApprovalForAll",
      "type": "event"
    },
    {
      "anonymous": false,
      "inputs": [
        {
          "indexed": true,
          "internalType": "address",
          "name": "previousOwner",
          "type": "address"
        },
        {
          "indexed": true,
          "internalType": "address",
          "name": "newOwner",
          "type": "address"
        }
      ],
      "name": "OwnershipTransferred",
      "type": "event"
    },
    {
      "anonymous": false,
      "inputs": [
        {
          "indexed": true,
          "internalType": "address",
          "name": "operator",
          "type": "address"
        },
        {
          "indexed": true,
          "internalType": "address",
          "name": "from",
          "type": "address"
        },
        {
          "indexed": true,
          "internalType": "address",
          "name": "to",
          "type": "address"
        },
        {
          "indexed": false,
          "internalType": "uint256[]",
          "name": "ids",
          "type": "uint256[]"
        },
        {
          "indexed": false,
          "internalType": "uint256[]",
          "name": "values",
          "type": "uint256[]"
        }
      ],
      "name": "TransferBatch",
      "type": "event"
    },
    {
      "anonymous": false,
      "inputs": [
        {
          "indexed": true,
          "internalType": "address",
          "name": "operator",
          "type": "address"
        },
        {
          "indexed": true,
          "internalType": "address",
          "name": "from",
          "type": "address"
        },
        {
          "indexed": true,
          "internalType": "address",
          "name": "to",
          "type": "address"
        },
        {
          "indexed": false,
          "internalType": "uint256",
          "name": "id",
          "type": "uint256"
        },
        {
          "indexed": false,
          "internalType": "uint256",
          "name": "value",
          "type": "uint256"
        }
      ],
      "name": "TransferSingle",
      "type": "event"
    },
    {
      "anonymous": false,
      "inputs": [
        {
          "indexed": false,
          "internalType": "string",
          "name": "value",
          "type": "string"
        },
        {
          "indexed": true,
          "internalType": "uint256",
          "name": "id",
          "type": "uint256"
        }
      ],
      "name": "URI",
      "type": "event"
    },
    {
      "anonymous": false,
      "inputs": [
        {
          "indexed": false,
          "internalType": "uint256[5]",
          "name": "",
          "type": "uint256[5]"
        },
        {
          "indexed": false,
          "internalType": "address",
          "name": "signer",
          "type": "address"
        }
      ],
      "name": "packBurned",
      "type": "event"
    },
    {
      "anonymous": false,
      "inputs": [
        {
          "indexed": false,
          "internalType": "address",
          "name": "signer",
          "type": "address"
        },
        {
          "indexed": false,
          "internalType": "uint256",
          "name": "id",
          "type": "uint256"
        }
      ],
      "name": "packMinted",
      "type": "event"
    },
    {
      "inputs": [],
      "name": "REVEAL_TIMESTAMP",
      "outputs": [
        {
          "internalType": "uint256",
          "name": "",
          "type": "uint256"
        }
      ],
      "stateMutability": "view",
      "type": "function"
    },
    {
      "inputs": [
        {
          "internalType": "address",
          "name": "_userToAdd",
          "type": "address"
        }
      ],
      "name": "addUserToWhitelist",
      "outputs": [
        {
          "internalType": "bool",
          "name": "success",
          "type": "bool"
        }
      ],
      "stateMutability": "nonpayable",
      "type": "function"
    },
    {
      "inputs": [
        {
          "internalType": "address[]",
          "name": "addrs",
          "type": "address[]"
        }
      ],
      "name": "addUsersToWhitelist",
      "outputs": [
        {
          "internalType": "bool",
          "name": "success",
          "type": "bool"
        }
      ],
      "stateMutability": "nonpayable",
      "type": "function"
    },
    {
      "inputs": [],
      "name": "allowBoosterPacks",
      "outputs": [],
      "stateMutability": "nonpayable",
      "type": "function"
    },
    {
      "inputs": [],
      "name": "allowStarterPacks",
      "outputs": [],
      "stateMutability": "nonpayable",
      "type": "function"
    },
    {
      "inputs": [
        {
          "internalType": "address",
          "name": "account",
          "type": "address"
        },
        {
          "internalType": "uint256",
          "name": "id",
          "type": "uint256"
        }
      ],
      "name": "balanceOf",
      "outputs": [
        {
          "internalType": "uint256",
          "name": "",
          "type": "uint256"
        }
      ],
      "stateMutability": "view",
      "type": "function"
    },
    {
      "inputs": [
        {
          "internalType": "address[]",
          "name": "accounts",
          "type": "address[]"
        },
        {
          "internalType": "uint256[]",
          "name": "ids",
          "type": "uint256[]"
        }
      ],
      "name": "balanceOfBatch",
      "outputs": [
        {
          "internalType": "uint256[]",
          "name": "",
          "type": "uint256[]"
        }
      ],
      "stateMutability": "view",
      "type": "function"
    },
    {
      "inputs": [],
      "name": "boosterPacksReadyToOpen",
      "outputs": [
        {
          "internalType": "bool",
          "name": "",
          "type": "bool"
        }
      ],
      "stateMutability": "view",
      "type": "function"
    },
    {
      "inputs": [],
      "name": "burnBoosterPack",
      "outputs": [],
      "stateMutability": "nonpayable",
      "type": "function"
    },
    {
      "inputs": [],
      "name": "burnStarterPack",
      "outputs": [],
      "stateMutability": "nonpayable",
      "type": "function"
    },
    {
      "inputs": [],
      "name": "getNFTPerAthlete",
      "outputs": [
        {
          "internalType": "uint256",
          "name": "",
          "type": "uint256"
        }
      ],
      "stateMutability": "view",
      "type": "function"
    },
    {
      "inputs": [],
      "name": "getNumWhitelisted",
      "outputs": [
        {
          "internalType": "uint256",
          "name": "",
          "type": "uint256"
        }
      ],
      "stateMutability": "view",
      "type": "function"
    },
    {
      "inputs": [
        {
          "internalType": "address",
          "name": "account",
          "type": "address"
        },
        {
          "internalType": "address",
          "name": "operator",
          "type": "address"
        }
      ],
      "name": "isApprovedForAll",
      "outputs": [
        {
          "internalType": "bool",
          "name": "",
          "type": "bool"
        }
      ],
      "stateMutability": "view",
      "type": "function"
    },
    {
      "inputs": [],
      "name": "mintBoosterPack",
      "outputs": [],
      "stateMutability": "nonpayable",
      "type": "function"
    },
    {
      "inputs": [],
      "name": "mintStarterPack",
      "outputs": [],
      "stateMutability": "nonpayable",
      "type": "function"
    },
    {
      "inputs": [],
      "name": "name",
      "outputs": [
        {
          "internalType": "string",
          "name": "",
          "type": "string"
        }
      ],
      "stateMutability": "view",
      "type": "function"
    },
    {
      "inputs": [],
      "name": "numWhitelisted",
      "outputs": [
        {
          "internalType": "uint256",
          "name": "",
          "type": "uint256"
        }
      ],
      "stateMutability": "view",
      "type": "function"
    },
    {
      "inputs": [],
      "name": "openPrivateSale",
      "outputs": [],
      "stateMutability": "nonpayable",
      "type": "function"
    },
    {
      "inputs": [],
      "name": "openPublicSale",
      "outputs": [],
      "stateMutability": "nonpayable",
      "type": "function"
    },
    {
      "inputs": [],
      "name": "owner",
      "outputs": [
        {
          "internalType": "address",
          "name": "",
          "type": "address"
        }
      ],
      "stateMutability": "view",
      "type": "function"
    },
    {
      "inputs": [],
      "name": "packsAvailable",
      "outputs": [
        {
          "internalType": "uint256",
          "name": "",
          "type": "uint256"
        }
      ],
      "stateMutability": "view",
      "type": "function"
    },
    {
      "inputs": [],
      "name": "packsReadyToOpen",
      "outputs": [
        {
          "internalType": "bool",
          "name": "",
          "type": "bool"
        }
      ],
      "stateMutability": "view",
      "type": "function"
    },
    {
      "inputs": [
        {
          "internalType": "address",
          "name": "_userToRemove",
          "type": "address"
        }
      ],
      "name": "removeUserFromWhitelist",
      "outputs": [
        {
          "internalType": "bool",
          "name": "success",
          "type": "bool"
        }
      ],
      "stateMutability": "nonpayable",
      "type": "function"
    },
    {
      "inputs": [
        {
          "internalType": "address[]",
          "name": "addrs",
          "type": "address[]"
        }
      ],
      "name": "removeUsersFromWhitelist",
      "outputs": [
        {
          "internalType": "bool",
          "name": "success",
          "type": "bool"
        }
      ],
      "stateMutability": "nonpayable",
      "type": "function"
    },
    {
      "inputs": [],
      "name": "renounceOwnership",
      "outputs": [],
      "stateMutability": "nonpayable",
      "type": "function"
    },
    {
      "inputs": [
        {
          "internalType": "address",
          "name": "from",
          "type": "address"
        },
        {
          "internalType": "address",
          "name": "to",
          "type": "address"
        },
        {
          "internalType": "uint256[]",
          "name": "ids",
          "type": "uint256[]"
        },
        {
          "internalType": "uint256[]",
          "name": "amounts",
          "type": "uint256[]"
        },
        {
          "internalType": "bytes",
          "name": "data",
          "type": "bytes"
        }
      ],
      "name": "safeBatchTransferFrom",
      "outputs": [],
      "stateMutability": "nonpayable",
      "type": "function"
    },
    {
      "inputs": [
        {
          "internalType": "address",
          "name": "from",
          "type": "address"
        },
        {
          "internalType": "address",
          "name": "to",
          "type": "address"
        },
        {
          "internalType": "uint256",
          "name": "id",
          "type": "uint256"
        },
        {
          "internalType": "uint256",
          "name": "amount",
          "type": "uint256"
        },
        {
          "internalType": "bytes",
          "name": "data",
          "type": "bytes"
        }
      ],
      "name": "safeTransferFrom",
      "outputs": [],
      "stateMutability": "nonpayable",
      "type": "function"
    },
    {
      "inputs": [
        {
          "internalType": "address",
          "name": "operator",
          "type": "address"
        },
        {
          "internalType": "bool",
          "name": "approved",
          "type": "bool"
        }
      ],
      "name": "setApprovalForAll",
      "outputs": [],
      "stateMutability": "nonpayable",
      "type": "function"
    },
    {
      "inputs": [],
      "name": "setStartingIndex",
      "outputs": [],
      "stateMutability": "nonpayable",
      "type": "function"
    },
    {
      "inputs": [
        {
          "internalType": "uint256",
          "name": "tokenId",
          "type": "uint256"
        },
        {
          "internalType": "string",
          "name": "uri",
          "type": "string"
        }
      ],
      "name": "setTokenUri",
      "outputs": [],
      "stateMutability": "nonpayable",
      "type": "function"
    },
    {
      "inputs": [],
      "name": "setURIs",
      "outputs": [],
      "stateMutability": "nonpayable",
      "type": "function"
    },
    {
      "inputs": [
        {
          "internalType": "bytes4",
          "name": "interfaceId",
          "type": "bytes4"
        }
      ],
      "name": "supportsInterface",
      "outputs": [
        {
          "internalType": "bool",
          "name": "",
          "type": "bool"
        }
      ],
      "stateMutability": "view",
      "type": "function"
    },
    {
      "inputs": [
        {
          "internalType": "address",
          "name": "newOwner",
          "type": "address"
        }
      ],
      "name": "transferOwnership",
      "outputs": [],
      "stateMutability": "nonpayable",
      "type": "function"
    },
    {
      "inputs": [
        {
          "internalType": "uint256",
          "name": "tokenId",
          "type": "uint256"
        }
      ],
      "name": "uri",
      "outputs": [
        {
          "internalType": "string",
          "name": "",
          "type": "string"
        }
      ],
      "stateMutability": "view",
      "type": "function"
    },
    {
      "inputs": [
        {
          "internalType": "address",
          "name": "",
          "type": "address"
        }
      ],
      "name": "userToHasBurnedStarterPack",
      "outputs": [
        {
          "internalType": "bool",
          "name": "",
          "type": "bool"
        }
      ],
      "stateMutability": "view",
      "type": "function"
    },
    {
      "inputs": [
        {
          "internalType": "address",
          "name": "",
          "type": "address"
        }
      ],
      "name": "userToHasMintedStarterPack",
      "outputs": [
        {
          "internalType": "bool",
          "name": "",
          "type": "bool"
        }
      ],
      "stateMutability": "view",
      "type": "function"
    },
    {
      "inputs": [
        {
          "internalType": "address",
          "name": "",
          "type": "address"
        }
      ],
      "name": "usersBoosterPacksMinted",
      "outputs": [
        {
          "internalType": "uint256",
          "name": "",
          "type": "uint256"
        }
      ],
      "stateMutability": "view",
      "type": "function"
    },
    {
      "inputs": [
        {
          "internalType": "address",
          "name": "",
          "type": "address"
        }
      ],
      "name": "whitelist",
      "outputs": [
        {
          "internalType": "bool",
          "name": "",
          "type": "bool"
        }
      ],
      "stateMutability": "view",
      "type": "function"
    }
  ],
  "bytecode": "0x60806040526127106010556040518060400160405280600881526020017f5465616d446966660000000000000000000000000000000000000000000000008152506011908051906020019062000057929190620002c7565b5060405180602001604052806000815250601890805190602001906200007f929190620002c7565b503480156200008d57600080fd5b5060405162006013380380620060138339818101604052810190620000b3919062000503565b6040518060400160405280600281526020017f5444000000000000000000000000000000000000000000000000000000000000815250620000fa81620001dd60201b60201c565b506200011b6200010f620001f960201b60201c565b6200020160201b60201c565b8360000151600d819055508360200151600e819055508360400151600781905550836060015160088190555083608001516009819055508360a00151600a819055508360c00151600b819055508360e00151600c8190555082600490805190602001906200018b929190620002c7565b508160059080519060200190620001a4929190620002c7565b508060069080519060200190620001bd929190620002c7565b50836101000151601081905550600b546021819055505050505062000783565b8060029080519060200190620001f5929190620002c7565b5050565b600033905090565b6000600360009054906101000a900473ffffffffffffffffffffffffffffffffffffffff16905081600360006101000a81548173ffffffffffffffffffffffffffffffffffffffff021916908373ffffffffffffffffffffffffffffffffffffffff1602179055508173ffffffffffffffffffffffffffffffffffffffff168173ffffffffffffffffffffffffffffffffffffffff167f8be0079c531659141344cd1fd0a4f28419497f9722a3daafe3b4186f6b6457e060405160405180910390a35050565b828054620002d59062000675565b90600052602060002090601f016020900481019282620002f9576000855562000345565b82601f106200031457805160ff191683800117855562000345565b8280016001018555821562000345579182015b828111156200034457825182559160200191906001019062000327565b5b50905062000354919062000358565b5090565b5b808211156200037357600081600090555060010162000359565b5090565b60006200038e6200038884620005ff565b620005d6565b905082815260208101848484011115620003ad57620003ac62000749565b5b620003ba8482856200063f565b509392505050565b600082601f830112620003da57620003d96200073f565b5b8151620003ec84826020860162000377565b91505092915050565b600061012082840312156200040f576200040e62000744565b5b6200041c610120620005d6565b905060006200042e84828501620004ec565b60008301525060206200044484828501620004ec565b60208301525060406200045a84828501620004ec565b60408301525060606200047084828501620004ec565b60608301525060806200048684828501620004ec565b60808301525060a06200049c84828501620004ec565b60a08301525060c0620004b284828501620004ec565b60c08301525060e0620004c884828501620004ec565b60e083015250610100620004df84828501620004ec565b6101008301525092915050565b600081519050620004fd8162000769565b92915050565b600080600080610180858703121562000521576200052062000753565b5b60006200053187828801620003f5565b94505061012085015167ffffffffffffffff8111156200055657620005556200074e565b5b6200056487828801620003c2565b93505061014085015167ffffffffffffffff8111156200058957620005886200074e565b5b6200059787828801620003c2565b92505061016085015167ffffffffffffffff811115620005bc57620005bb6200074e565b5b620005ca87828801620003c2565b91505092959194509250565b6000620005e2620005f5565b9050620005f08282620006ab565b919050565b6000604051905090565b600067ffffffffffffffff8211156200061d576200061c62000710565b5b620006288262000758565b9050602081019050919050565b6000819050919050565b60005b838110156200065f57808201518184015260208101905062000642565b838111156200066f576000848401525b50505050565b600060028204905060018216806200068e57607f821691505b60208210811415620006a557620006a4620006e1565b5b50919050565b620006b68262000758565b810181811067ffffffffffffffff82111715620006d857620006d762000710565b5b80604052505050565b7f4e487b7100000000000000000000000000000000000000000000000000000000600052602260045260246000fd5b7f4e487b7100000000000000000000000000000000000000000000000000000000600052604160045260246000fd5b600080fd5b600080fd5b600080fd5b600080fd5b600080fd5b6000601f19601f8301169050919050565b620007748162000635565b81146200078057600080fd5b50565b61588080620007936000396000f3fe608060405234801561001057600080fd5b50600436106102315760003560e01c80638da5cb5b11610130578063be59ec26116100b8578063e985e9c51161007c578063e985e9c51461060c578063e98665501461063c578063f242432a14610646578063f2fde38b14610662578063f9902bb11461067e57610231565b8063be59ec2614610566578063c54ec09614610584578063cb6bfdb91461058e578063d759000b146105be578063e2bd21bc146105dc57610231565b8063a6ad4c01116100ff578063a6ad4c01146104fa578063a788f4f414610504578063ac4c07d414610522578063b585209b14610552578063bbb13e171461055c57610231565b80638da5cb5b146104865780639b19251a146104a45780639ebf488b146104d4578063a22cb465146104de57610231565b80634e1273f4116101be5780635d2db2bf116101825780635d2db2bf14610408578063715018a614610412578063747b80501461041c57806375223f921461044c5780638d21c7701461045657610231565b80634e1273f4146103645780634f3551d71461039457806354dacb961461039e57806357f7789e146103bc5780635ae698ff146103d857610231565b8063143cc14411610205578063143cc144146102e457806318e20a38146103025780632eb2c2d6146103205780634190a9221461033c57806344eaa84e1461034657610231565b8062fdd58e1461023657806301ffc9a71461026657806306fdde03146102965780630e89341c146102b4575b600080fd5b610250600480360381019061024b9190613b38565b6106ae565b60405161025d9190614956565b60405180910390f35b610280600480360381019061027b9190613c39565b610777565b60405161028d9190614599565b60405180910390f35b61029e610859565b6040516102ab91906145b4565b60405180910390f35b6102ce60048036038101906102c99190613c93565b6108e7565b6040516102db91906145b4565b60405180910390f35b6102ec61098c565b6040516102f99190614956565b60405180910390f35b61030a610996565b6040516103179190614956565b60405180910390f35b61033a60048036038101906103359190613992565b61099c565b005b610344610a3d565b005b61034e610ad6565b60405161035b9190614956565b60405180910390f35b61037e60048036038101906103799190613bc1565b610ae0565b60405161038b9190614540565b60405180910390f35b61039c610bf9565b005b6103a6610dec565b6040516103b39190614956565b60405180910390f35b6103d660048036038101906103d19190613cc0565b610df2565b005b6103f260048036038101906103ed9190613b78565b610efc565b6040516103ff9190614599565b60405180910390f35b610410610fcc565b005b61041a611123565b005b61043660048036038101906104319190613925565b6111ab565b6040516104439190614599565b60405180910390f35b6104546112f6565b005b610470600480360381019061046b9190613b78565b611406565b60405161047d9190614599565b60405180910390f35b61048e6114d6565b60405161049b9190614411565b60405180910390f35b6104be60048036038101906104b99190613925565b611500565b6040516104cb9190614599565b60405180910390f35b6104dc611520565b005b6104f860048036038101906104f39190613af8565b611827565b005b61050261183d565b005b61050c6118d6565b6040516105199190614599565b60405180910390f35b61053c60048036038101906105379190613925565b6118e9565b6040516105499190614956565b60405180910390f35b61055a611901565b005b61056461199a565b005b61056e611bbc565b60405161057b9190614599565b60405180910390f35b61058c611bcf565b005b6105a860048036038101906105a39190613925565b611c68565b6040516105b59190614599565b60405180910390f35b6105c6611c88565b6040516105d39190614956565b60405180910390f35b6105f660048036038101906105f19190613925565b611c8e565b6040516106039190614599565b60405180910390f35b61062660048036038101906106219190613952565b611cae565b6040516106339190614599565b60405180910390f35b610644611d42565b005b610660600480360381019061065b9190613a61565b611e19565b005b61067c60048036038101906106779190613925565b611eba565b005b61069860048036038101906106939190613925565b611fb2565b6040516106a59190614599565b60405180910390f35b60008073ffffffffffffffffffffffffffffffffffffffff168373ffffffffffffffffffffffffffffffffffffffff16141561071f576040517f08c379a000000000000000000000000000000000000000000000000000000000815260040161071690614636565b60405180910390fd5b60008083815260200190815260200160002060008473ffffffffffffffffffffffffffffffffffffffff1673ffffffffffffffffffffffffffffffffffffffff16815260200190815260200160002054905092915050565b60007fd9b67a26000000000000000000000000000000000000000000000000000000007bffffffffffffffffffffffffffffffffffffffffffffffffffffffff1916827bffffffffffffffffffffffffffffffffffffffffffffffffffffffff1916148061084257507f0e89341c000000000000000000000000000000000000000000000000000000007bffffffffffffffffffffffffffffffffffffffffffffffffffffffff1916827bffffffffffffffffffffffffffffffffffffffffffffffffffffffff1916145b806108525750610851826120fe565b5b9050919050565b6011805461086690614d0f565b80601f016020809104026020016040519081016040528092919081815260200182805461089290614d0f565b80156108df5780601f106108b4576101008083540402835291602001916108df565b820191906000526020600020905b8154815290600101906020018083116108c257829003601f168201915b505050505081565b606060256000838152602001908152602001600020805461090790614d0f565b80601f016020809104026020016040519081016040528092919081815260200182805461093390614d0f565b80156109805780601f1061095557610100808354040283529160200191610980565b820191906000526020600020905b81548152906001019060200180831161096357829003601f168201915b50505050509050919050565b6000600e54905090565b60105481565b6109a4612168565b73ffffffffffffffffffffffffffffffffffffffff168573ffffffffffffffffffffffffffffffffffffffff1614806109ea57506109e9856109e4612168565b611cae565b5b610a29576040517f08c379a0000000000000000000000000000000000000000000000000000000008152600401610a2090614736565b60405180910390fd5b610a368585858585612170565b5050505050565b610a45612168565b73ffffffffffffffffffffffffffffffffffffffff16610a636114d6565b73ffffffffffffffffffffffffffffffffffffffff1614610ab9576040517f08c379a0000000000000000000000000000000000000000000000000000000008152600401610ab0906147f6565b60405180910390fd5b6001601260016101000a81548160ff021916908315150217905550565b6000602354905090565b60608151835114610b26576040517f08c379a0000000000000000000000000000000000000000000000000000000008152600401610b1d906148d6565b60405180910390fd5b6000835167ffffffffffffffff811115610b4357610b42614f00565b5b604051908082528060200260200182016040528015610b715781602001602082028036833780820191505090505b50905060005b8451811015610bee57610bbe858281518110610b9657610b95614ed1565b5b6020026020010151858381518110610bb157610bb0614ed1565b5b60200260200101516106ae565b828281518110610bd157610bd0614ed1565b5b60200260200101818152505080610be790614d72565b9050610b77565b508091505092915050565b601260019054906101000a900460ff16610c48576040517f08c379a0000000000000000000000000000000000000000000000000000000008152600401610c3f90614796565b60405180910390fd5b600c5460145410610c8e576040517f08c379a0000000000000000000000000000000000000000000000000000000008152600401610c85906146f6565b60405180910390fd5b6002602960003373ffffffffffffffffffffffffffffffffffffffff1673ffffffffffffffffffffffffffffffffffffffff1681526020019081526020016000205410610d10576040517f08c379a0000000000000000000000000000000000000000000000000000000008152600401610d0790614856565b60405180910390fd5b602960003373ffffffffffffffffffffffffffffffffffffffff1673ffffffffffffffffffffffffffffffffffffffff1681526020019081526020016000206000815480929190610d6090614d72565b919050555060006001600d54610d769190614b37565b9050610d943382600160405180602001604052806000815250612484565b600160146000828254610da79190614b37565b925050819055507f2e0f4d63dcc00e6a11c8aef9f6e15c1f9cd6e9a090b2dd99c7b797f1a28d300d33601454604051610de19291906144ee565b60405180910390a150565b60235481565b610dfa612168565b73ffffffffffffffffffffffffffffffffffffffff16610e186114d6565b73ffffffffffffffffffffffffffffffffffffffff1614610e6e576040517f08c379a0000000000000000000000000000000000000000000000000000000008152600401610e65906147f6565b60405180910390fd5b6000602560008481526020019081526020016000208054610e8e90614d0f565b905014610ed0576040517f08c379a0000000000000000000000000000000000000000000000000000000008152600401610ec790614756565b60405180910390fd5b80602560008481526020019081526020016000209080519060200190610ef79291906135b9565b505050565b6000610f06612168565b73ffffffffffffffffffffffffffffffffffffffff16610f246114d6565b73ffffffffffffffffffffffffffffffffffffffff1614610f7a576040517f08c379a0000000000000000000000000000000000000000000000000000000008152600401610f71906147f6565b60405180910390fd5b60005b8251811015610fc657610fa9838281518110610f9c57610f9b614ed1565b5b60200260200101516111ab565b15610fb357600191505b8080610fbe90614d72565b915050610f7d565b50919050565b610fd4612168565b73ffffffffffffffffffffffffffffffffffffffff16610ff26114d6565b73ffffffffffffffffffffffffffffffffffffffff1614611048576040517f08c379a000000000000000000000000000000000000000000000000000000000815260040161103f906147f6565b60405180910390fd5b60005b600d548110156110bc576000600d54826017546110689190614b37565b6110729190614e13565b90506110a88160046110838461261a565b604051602001611094929190614383565b604051602081830303815290604052610df2565b5080806110b490614d72565b91505061104b565b506110e9600d5460056040516020016110d5919061436c565b604051602081830303815290604052610df2565b6111216001600d546110fb9190614b37565b600660405160200161110d919061436c565b604051602081830303815290604052610df2565b565b61112b612168565b73ffffffffffffffffffffffffffffffffffffffff166111496114d6565b73ffffffffffffffffffffffffffffffffffffffff161461119f576040517f08c379a0000000000000000000000000000000000000000000000000000000008152600401611196906147f6565b60405180910390fd5b6111a9600061277b565b565b60006111b5612168565b73ffffffffffffffffffffffffffffffffffffffff166111d36114d6565b73ffffffffffffffffffffffffffffffffffffffff1614611229576040517f08c379a0000000000000000000000000000000000000000000000000000000008152600401611220906147f6565b60405180910390fd5b602260008373ffffffffffffffffffffffffffffffffffffffff1673ffffffffffffffffffffffffffffffffffffffff16815260200190815260200160002060009054906101000a900460ff166112f1576001602260008473ffffffffffffffffffffffffffffffffffffffff1673ffffffffffffffffffffffffffffffffffffffff16815260200190815260200160002060006101000a81548160ff0219169083151502179055506001602360008282546112e59190614b37565b92505081905550600190505b919050565b60006001600d546113079190614b37565b9050601260019054906101000a900460ff16611358576040517f08c379a000000000000000000000000000000000000000000000000000000000815260040161134f90614876565b60405180910390fd5b600061136433836106ae565b116113a4576040517f08c379a000000000000000000000000000000000000000000000000000000000815260040161139b90614616565b60405180910390fd5b60006113ae612841565b905060005b60038160ff1610156113f5576113e2828260ff16600381106113d8576113d7614ed1565b5b6020020151612955565b80806113ed90614dbb565b9150506113b3565b5061140233836001612a50565b5050565b6000611410612168565b73ffffffffffffffffffffffffffffffffffffffff1661142e6114d6565b73ffffffffffffffffffffffffffffffffffffffff1614611484576040517f08c379a000000000000000000000000000000000000000000000000000000000815260040161147b906147f6565b60405180910390fd5b60005b82518110156114d0576114b38382815181106114a6576114a5614ed1565b5b6020026020010151611fb2565b156114bd57600191505b80806114c890614d72565b915050611487565b50919050565b6000600360009054906101000a900473ffffffffffffffffffffffffffffffffffffffff16905090565b60226020528060005260406000206000915054906101000a900460ff1681565b602460009054906101000a900460ff16806115475750602460019054906101000a900460ff165b611586576040517f08c379a000000000000000000000000000000000000000000000000000000000815260040161157d90614916565b60405180910390fd5b602460009054906101000a900460ff1680156115af5750602460019054906101000a900460ff16155b1561164157602260003373ffffffffffffffffffffffffffffffffffffffff1673ffffffffffffffffffffffffffffffffffffffff16815260200190815260200160002060009054906101000a900460ff16611640576040517f08c379a0000000000000000000000000000000000000000000000000000000008152600401611637906146b6565b60405180910390fd5b5b600b5460135410611687576040517f08c379a000000000000000000000000000000000000000000000000000000000815260040161167e90614836565b60405180910390fd5b602860003373ffffffffffffffffffffffffffffffffffffffff1673ffffffffffffffffffffffffffffffffffffffff16815260200190815260200160002060009054906101000a900460ff1615611714576040517f08c379a000000000000000000000000000000000000000000000000000000000815260040161170b90614896565b60405180910390fd5b6001602860003373ffffffffffffffffffffffffffffffffffffffff1673ffffffffffffffffffffffffffffffffffffffff16815260200190815260200160002060006101000a81548160ff0219169083151502179055506000600d5490506117b5338260016040518060400160405280600481526020017f3078303000000000000000000000000000000000000000000000000000000000815250612484565b6001601360008282546117c89190614b37565b925050819055506001602160008282546117e29190614c18565b925050819055507f2e0f4d63dcc00e6a11c8aef9f6e15c1f9cd6e9a090b2dd99c7b797f1a28d300d3360135460405161181c9291906144ee565b60405180910390a150565b611839611832612168565b8383612c6d565b5050565b611845612168565b73ffffffffffffffffffffffffffffffffffffffff166118636114d6565b73ffffffffffffffffffffffffffffffffffffffff16146118b9576040517f08c379a00000000000000000000000000000000000000000000000000000000081526004016118b0906147f6565b60405180910390fd5b6001602460006101000a81548160ff021916908315150217905550565b601260019054906101000a900460ff1681565b60296020528060005260406000206000915090505481565b611909612168565b73ffffffffffffffffffffffffffffffffffffffff166119276114d6565b73ffffffffffffffffffffffffffffffffffffffff161461197d576040517f08c379a0000000000000000000000000000000000000000000000000000000008152600401611974906147f6565b60405180910390fd5b6001602460016101000a81548160ff021916908315150217905550565b6000600d549050602760003373ffffffffffffffffffffffffffffffffffffffff1673ffffffffffffffffffffffffffffffffffffffff16815260200190815260200160002060009054906101000a900460ff1615611a2e576040517f08c379a0000000000000000000000000000000000000000000000000000000008152600401611a25906147d6565b60405180910390fd5b601260009054906101000a900460ff16611a7d576040517f08c379a0000000000000000000000000000000000000000000000000000000008152600401611a7490614876565b60405180910390fd5b6000611a8933836106ae565b11611ac9576040517f08c379a0000000000000000000000000000000000000000000000000000000008152600401611ac090614816565b60405180910390fd5b6001602760003373ffffffffffffffffffffffffffffffffffffffff1673ffffffffffffffffffffffffffffffffffffffff16815260200190815260200160002060006101000a81548160ff0219169083151502179055506000611b2b612dda565b905060005b60058160ff161015611b7257611b5f828260ff1660058110611b5557611b54614ed1565b5b6020020151612955565b8080611b6a90614dbb565b915050611b30565b50611b7f33836001612a50565b7f15abe0b63b201b70614c230381f0fabc4a26a1957629948558095a11db1d6fb58133604051611bb0929190614517565b60405180910390a15050565b601260009054906101000a900460ff1681565b611bd7612168565b73ffffffffffffffffffffffffffffffffffffffff16611bf56114d6565b73ffffffffffffffffffffffffffffffffffffffff1614611c4b576040517f08c379a0000000000000000000000000000000000000000000000000000000008152600401611c42906147f6565b60405180910390fd5b6001601260006101000a81548160ff021916908315150217905550565b60286020528060005260406000206000915054906101000a900460ff1681565b60215481565b60276020528060005260406000206000915054906101000a900460ff1681565b6000600160008473ffffffffffffffffffffffffffffffffffffffff1673ffffffffffffffffffffffffffffffffffffffff16815260200190815260200160002060008373ffffffffffffffffffffffffffffffffffffffff1673ffffffffffffffffffffffffffffffffffffffff16815260200190815260200160002060009054906101000a900460ff16905092915050565b611d4a612168565b73ffffffffffffffffffffffffffffffffffffffff16611d686114d6565b73ffffffffffffffffffffffffffffffffffffffff1614611dbe576040517f08c379a0000000000000000000000000000000000000000000000000000000008152600401611db5906147f6565b60405180910390fd5b600e54600d54611dce9190614bbe565b600143611ddb9190614c18565b4060001c611de99190614e13565b60178190555060006017541415611e1757611e106001601754612ebe90919063ffffffff16565b6017819055505b565b611e21612168565b73ffffffffffffffffffffffffffffffffffffffff168573ffffffffffffffffffffffffffffffffffffffff161480611e675750611e6685611e61612168565b611cae565b5b611ea6576040517f08c379a0000000000000000000000000000000000000000000000000000000008152600401611e9d90614696565b60405180910390fd5b611eb38585858585612ed4565b5050505050565b611ec2612168565b73ffffffffffffffffffffffffffffffffffffffff16611ee06114d6565b73ffffffffffffffffffffffffffffffffffffffff1614611f36576040517f08c379a0000000000000000000000000000000000000000000000000000000008152600401611f2d906147f6565b60405180910390fd5b600073ffffffffffffffffffffffffffffffffffffffff168173ffffffffffffffffffffffffffffffffffffffff161415611fa6576040517f08c379a0000000000000000000000000000000000000000000000000000000008152600401611f9d90614656565b60405180910390fd5b611faf8161277b565b50565b6000611fbc612168565b73ffffffffffffffffffffffffffffffffffffffff16611fda6114d6565b73ffffffffffffffffffffffffffffffffffffffff1614612030576040517f08c379a0000000000000000000000000000000000000000000000000000000008152600401612027906147f6565b60405180910390fd5b602260008373ffffffffffffffffffffffffffffffffffffffff1673ffffffffffffffffffffffffffffffffffffffff16815260200190815260200160002060009054906101000a900460ff16156120f9576000602260008473ffffffffffffffffffffffffffffffffffffffff1673ffffffffffffffffffffffffffffffffffffffff16815260200190815260200160002060006101000a81548160ff0219169083151502179055506001602360008282546120ed9190614c18565b92505081905550600190505b919050565b60007f01ffc9a7000000000000000000000000000000000000000000000000000000007bffffffffffffffffffffffffffffffffffffffffffffffffffffffff1916827bffffffffffffffffffffffffffffffffffffffffffffffffffffffff1916149050919050565b600033905090565b81518351146121b4576040517f08c379a00000000000000000000000000000000000000000000000000000000081526004016121ab906148f6565b60405180910390fd5b600073ffffffffffffffffffffffffffffffffffffffff168473ffffffffffffffffffffffffffffffffffffffff161415612224576040517f08c379a000000000000000000000000000000000000000000000000000000000815260040161221b90614716565b60405180910390fd5b600061222e612168565b905061223e818787878787613156565b60005b84518110156123ef57600085828151811061225f5761225e614ed1565b5b60200260200101519050600085838151811061227e5761227d614ed1565b5b60200260200101519050600080600084815260200190815260200160002060008b73ffffffffffffffffffffffffffffffffffffffff1673ffffffffffffffffffffffffffffffffffffffff1681526020019081526020016000205490508181101561231f576040517f08c379a0000000000000000000000000000000000000000000000000000000008152600401612316906147b6565b60405180910390fd5b81810360008085815260200190815260200160002060008c73ffffffffffffffffffffffffffffffffffffffff1673ffffffffffffffffffffffffffffffffffffffff168152602001908152602001600020819055508160008085815260200190815260200160002060008b73ffffffffffffffffffffffffffffffffffffffff1673ffffffffffffffffffffffffffffffffffffffff16815260200190815260200160002060008282546123d49190614b37565b92505081905550505050806123e890614d72565b9050612241565b508473ffffffffffffffffffffffffffffffffffffffff168673ffffffffffffffffffffffffffffffffffffffff168273ffffffffffffffffffffffffffffffffffffffff167f4a39dc06d4c0dbc64b70af90fd698a233a518aa5d07e595d983b8c0526c8f7fb8787604051612466929190614562565b60405180910390a461247c81878787878761315e565b505050505050565b600073ffffffffffffffffffffffffffffffffffffffff168473ffffffffffffffffffffffffffffffffffffffff1614156124f4576040517f08c379a00000000000000000000000000000000000000000000000000000000081526004016124eb90614936565b60405180910390fd5b60006124fe612168565b905061251f8160008761251088613345565b61251988613345565b87613156565b8260008086815260200190815260200160002060008773ffffffffffffffffffffffffffffffffffffffff1673ffffffffffffffffffffffffffffffffffffffff168152602001908152602001600020600082825461257e9190614b37565b925050819055508473ffffffffffffffffffffffffffffffffffffffff16600073ffffffffffffffffffffffffffffffffffffffff168273ffffffffffffffffffffffffffffffffffffffff167fc3d58168c5ae7397731d063d5bbf3d657854427343f4c083240f7aacaa2d0f6287876040516125fc929190614971565b60405180910390a4612613816000878787876133bf565b5050505050565b60606000821415612662576040518060400160405280600181526020017f30000000000000000000000000000000000000000000000000000000000000008152509050612776565b600082905060005b6000821461269457808061267d90614d72565b915050600a8261268d9190614b8d565b915061266a565b60008167ffffffffffffffff8111156126b0576126af614f00565b5b6040519080825280601f01601f1916602001820160405280156126e25781602001600182028036833780820191505090505b5090505b6000851461276f576001826126fb9190614c18565b9150600a8561270a9190614e13565b60306127169190614b37565b60f81b81838151811061272c5761272b614ed1565b5b60200101907effffffffffffffffffffffffffffffffffffffffffffffffffffffffffffff1916908160001a905350600a856127689190614b8d565b94506126e6565b8093505050505b919050565b6000600360009054906101000a900473ffffffffffffffffffffffffffffffffffffffff16905081600360006101000a81548173ffffffffffffffffffffffffffffffffffffffff021916908373ffffffffffffffffffffffffffffffffffffffff1602179055508173ffffffffffffffffffffffffffffffffffffffff168173ffffffffffffffffffffffffffffffffffffffff167f8be0079c531659141344cd1fd0a4f28419497f9722a3daafe3b4186f6b6457e060405160405180910390a35050565b61284961363f565b61285161363f565b60006005436128609190614e13565b905060005b600381101561294c5760058261287b9190614e13565b91506000600a8361288c9190614bbe565b905060006009600a8561289f9190614bbe565b6128a99190614b37565b905081600183836128ba9190614c18565b6128c49190614b37565b423344876014546040516020016128df9594939291906143b2565b6040516020818303038152906040528051906020012060001c6129029190614e13565b61290c9190614b37565b85846003811061291f5761291e614ed1565b5b6020020181815250506001846129359190614b37565b93505050808061294490614d72565b915050612865565b50819250505090565b600e54600d546129659190614bbe565b6015541015612a4d57600e546026600083815260200190815260200160002054106129c5576040517f08c379a00000000000000000000000000000000000000000000000000000000081526004016129bc906146d6565b60405180910390fd5b612a07338260016040518060400160405280600481526020017f3078303000000000000000000000000000000000000000000000000000000000815250612484565b6001602660008381526020019081526020016000206000828254612a2b9190614b37565b92505081905550600160156000828254612a459190614b37565b925050819055505b50565b600073ffffffffffffffffffffffffffffffffffffffff168373ffffffffffffffffffffffffffffffffffffffff161415612ac0576040517f08c379a0000000000000000000000000000000000000000000000000000000008152600401612ab790614776565b60405180910390fd5b6000612aca612168565b9050612afa81856000612adc87613345565b612ae587613345565b60405180602001604052806000815250613156565b600080600085815260200190815260200160002060008673ffffffffffffffffffffffffffffffffffffffff1673ffffffffffffffffffffffffffffffffffffffff16815260200190815260200160002054905082811015612b91576040517f08c379a0000000000000000000000000000000000000000000000000000000008152600401612b8890614676565b60405180910390fd5b82810360008086815260200190815260200160002060008773ffffffffffffffffffffffffffffffffffffffff1673ffffffffffffffffffffffffffffffffffffffff16815260200190815260200160002081905550600073ffffffffffffffffffffffffffffffffffffffff168573ffffffffffffffffffffffffffffffffffffffff168373ffffffffffffffffffffffffffffffffffffffff167fc3d58168c5ae7397731d063d5bbf3d657854427343f4c083240f7aacaa2d0f628787604051612c5e929190614971565b60405180910390a45050505050565b8173ffffffffffffffffffffffffffffffffffffffff168373ffffffffffffffffffffffffffffffffffffffff161415612cdc576040517f08c379a0000000000000000000000000000000000000000000000000000000008152600401612cd3906148b6565b60405180910390fd5b80600160008573ffffffffffffffffffffffffffffffffffffffff1673ffffffffffffffffffffffffffffffffffffffff16815260200190815260200160002060008473ffffffffffffffffffffffffffffffffffffffff1673ffffffffffffffffffffffffffffffffffffffff16815260200190815260200160002060006101000a81548160ff0219169083151502179055508173ffffffffffffffffffffffffffffffffffffffff168373ffffffffffffffffffffffffffffffffffffffff167f17307eab39ab6107e8899845ad3d59bd9653f200f220920489ca2b5937696c3183604051612dcd9190614599565b60405180910390a3505050565b612de2613661565b612dea613661565b60005b6005811015612eb6576000600a82612e059190614bbe565b905060006009600a84612e189190614bbe565b612e229190614b37565b90508160018383612e339190614c18565b612e3d9190614b37565b42334487601354604051602001612e589594939291906143b2565b6040516020818303038152906040528051906020012060001c612e7b9190614e13565b612e859190614b37565b848460058110612e9857612e97614ed1565b5b60200201818152505050508080612eae90614d72565b915050612ded565b508091505090565b60008183612ecc9190614b37565b905092915050565b600073ffffffffffffffffffffffffffffffffffffffff168473ffffffffffffffffffffffffffffffffffffffff161415612f44576040517f08c379a0000000000000000000000000000000000000000000000000000000008152600401612f3b90614716565b60405180910390fd5b6000612f4e612168565b9050612f6e818787612f5f88613345565b612f6888613345565b87613156565b600080600086815260200190815260200160002060008873ffffffffffffffffffffffffffffffffffffffff1673ffffffffffffffffffffffffffffffffffffffff16815260200190815260200160002054905083811015613005576040517f08c379a0000000000000000000000000000000000000000000000000000000008152600401612ffc906147b6565b60405180910390fd5b83810360008087815260200190815260200160002060008973ffffffffffffffffffffffffffffffffffffffff1673ffffffffffffffffffffffffffffffffffffffff168152602001908152602001600020819055508360008087815260200190815260200160002060008873ffffffffffffffffffffffffffffffffffffffff1673ffffffffffffffffffffffffffffffffffffffff16815260200190815260200160002060008282546130ba9190614b37565b925050819055508573ffffffffffffffffffffffffffffffffffffffff168773ffffffffffffffffffffffffffffffffffffffff168373ffffffffffffffffffffffffffffffffffffffff167fc3d58168c5ae7397731d063d5bbf3d657854427343f4c083240f7aacaa2d0f628888604051613137929190614971565b60405180910390a461314d8288888888886133bf565b50505050505050565b505050505050565b61317d8473ffffffffffffffffffffffffffffffffffffffff166135a6565b1561333d578373ffffffffffffffffffffffffffffffffffffffff1663bc197c8187878686866040518663ffffffff1660e01b81526004016131c395949392919061442c565b602060405180830381600087803b1580156131dd57600080fd5b505af192505050801561320e57506040513d601f19601f8201168201806040525081019061320b9190613c66565b60015b6132b45761321a614f2f565b806308c379a01415613277575061322f615758565b8061323a5750613279565b806040517f08c379a000000000000000000000000000000000000000000000000000000000815260040161326e91906145b4565b60405180910390fd5b505b6040517f08c379a00000000000000000000000000000000000000000000000000000000081526004016132ab906145d6565b60405180910390fd5b63bc197c8160e01b7bffffffffffffffffffffffffffffffffffffffffffffffffffffffff1916817bffffffffffffffffffffffffffffffffffffffffffffffffffffffff19161461333b576040517f08c379a0000000000000000000000000000000000000000000000000000000008152600401613332906145f6565b60405180910390fd5b505b505050505050565b60606000600167ffffffffffffffff81111561336457613363614f00565b5b6040519080825280602002602001820160405280156133925781602001602082028036833780820191505090505b50905082816000815181106133aa576133a9614ed1565b5b60200260200101818152505080915050919050565b6133de8473ffffffffffffffffffffffffffffffffffffffff166135a6565b1561359e578373ffffffffffffffffffffffffffffffffffffffff1663f23a6e6187878686866040518663ffffffff1660e01b8152600401613424959493929190614494565b602060405180830381600087803b15801561343e57600080fd5b505af192505050801561346f57506040513d601f19601f8201168201806040525081019061346c9190613c66565b60015b6135155761347b614f2f565b806308c379a014156134d85750613490615758565b8061349b57506134da565b806040517f08c379a00000000000000000000000000000000000000000000000000000000081526004016134cf91906145b4565b60405180910390fd5b505b6040517f08c379a000000000000000000000000000000000000000000000000000000000815260040161350c906145d6565b60405180910390fd5b63f23a6e6160e01b7bffffffffffffffffffffffffffffffffffffffffffffffffffffffff1916817bffffffffffffffffffffffffffffffffffffffffffffffffffffffff19161461359c576040517f08c379a0000000000000000000000000000000000000000000000000000000008152600401613593906145f6565b60405180910390fd5b505b505050505050565b600080823b905060008111915050919050565b8280546135c590614d0f565b90600052602060002090601f0160209004810192826135e7576000855561362e565b82601f1061360057805160ff191683800117855561362e565b8280016001018555821561362e579182015b8281111561362d578251825591602001919060010190613612565b5b50905061363b9190613683565b5090565b6040518060600160405280600390602082028036833780820191505090505090565b6040518060a00160405280600590602082028036833780820191505090505090565b5b8082111561369c576000816000905550600101613684565b5090565b60006136b36136ae846149bf565b61499a565b905080838252602082019050828560208602820111156136d6576136d5614f56565b5b60005b8581101561370657816136ec8882613804565b8452602084019350602083019250506001810190506136d9565b5050509392505050565b600061372361371e846149eb565b61499a565b9050808382526020820190508285602086028201111561374657613745614f56565b5b60005b85811015613776578161375c8882613910565b845260208401935060208301925050600181019050613749565b5050509392505050565b600061379361378e84614a17565b61499a565b9050828152602081018484840111156137af576137ae614f5b565b5b6137ba848285614ccd565b509392505050565b60006137d56137d084614a48565b61499a565b9050828152602081018484840111156137f1576137f0614f5b565b5b6137fc848285614ccd565b509392505050565b600081359050613813816157ee565b92915050565b600082601f83011261382e5761382d614f51565b5b813561383e8482602086016136a0565b91505092915050565b600082601f83011261385c5761385b614f51565b5b813561386c848260208601613710565b91505092915050565b60008135905061388481615805565b92915050565b6000813590506138998161581c565b92915050565b6000815190506138ae8161581c565b92915050565b600082601f8301126138c9576138c8614f51565b5b81356138d9848260208601613780565b91505092915050565b600082601f8301126138f7576138f6614f51565b5b81356139078482602086016137c2565b91505092915050565b60008135905061391f81615833565b92915050565b60006020828403121561393b5761393a614f65565b5b600061394984828501613804565b91505092915050565b6000806040838503121561396957613968614f65565b5b600061397785828601613804565b925050602061398885828601613804565b9150509250929050565b600080600080600060a086880312156139ae576139ad614f65565b5b60006139bc88828901613804565b95505060206139cd88828901613804565b945050604086013567ffffffffffffffff8111156139ee576139ed614f60565b5b6139fa88828901613847565b935050606086013567ffffffffffffffff811115613a1b57613a1a614f60565b5b613a2788828901613847565b925050608086013567ffffffffffffffff811115613a4857613a47614f60565b5b613a54888289016138b4565b9150509295509295909350565b600080600080600060a08688031215613a7d57613a7c614f65565b5b6000613a8b88828901613804565b9550506020613a9c88828901613804565b9450506040613aad88828901613910565b9350506060613abe88828901613910565b925050608086013567ffffffffffffffff811115613adf57613ade614f60565b5b613aeb888289016138b4565b9150509295509295909350565b60008060408385031215613b0f57613b0e614f65565b5b6000613b1d85828601613804565b9250506020613b2e85828601613875565b9150509250929050565b60008060408385031215613b4f57613b4e614f65565b5b6000613b5d85828601613804565b9250506020613b6e85828601613910565b9150509250929050565b600060208284031215613b8e57613b8d614f65565b5b600082013567ffffffffffffffff811115613bac57613bab614f60565b5b613bb884828501613819565b91505092915050565b60008060408385031215613bd857613bd7614f65565b5b600083013567ffffffffffffffff811115613bf657613bf5614f60565b5b613c0285828601613819565b925050602083013567ffffffffffffffff811115613c2357613c22614f60565b5b613c2f85828601613847565b9150509250929050565b600060208284031215613c4f57613c4e614f65565b5b6000613c5d8482850161388a565b91505092915050565b600060208284031215613c7c57613c7b614f65565b5b6000613c8a8482850161389f565b91505092915050565b600060208284031215613ca957613ca8614f65565b5b6000613cb784828501613910565b91505092915050565b60008060408385031215613cd757613cd6614f65565b5b6000613ce585828601613910565b925050602083013567ffffffffffffffff811115613d0657613d05614f60565b5b613d12858286016138e2565b9150509250929050565b6000613d288383614337565b60208301905092915050565b613d3d81614c4c565b82525050565b613d54613d4f82614c4c565b614de5565b82525050565b613d6381614aa8565b613d6d8184614aee565b9250613d7882614a79565b8060005b83811015613da9578151613d908782613d1c565b9650613d9b83614ad4565b925050600181019050613d7c565b505050505050565b6000613dbc82614ab3565b613dc68185614af9565b9350613dd183614a83565b8060005b83811015613e02578151613de98882613d1c565b9750613df483614ae1565b925050600181019050613dd5565b5085935050505092915050565b613e1881614c5e565b82525050565b6000613e2982614abe565b613e338185614b0a565b9350613e43818560208601614cdc565b613e4c81614f6a565b840191505092915050565b6000613e6282614ac9565b613e6c8185614b1b565b9350613e7c818560208601614cdc565b613e8581614f6a565b840191505092915050565b6000613e9b82614ac9565b613ea58185614b2c565b9350613eb5818560208601614cdc565b80840191505092915050565b60008154613ece81614d0f565b613ed88186614b2c565b94506001821660008114613ef35760018114613f0457613f37565b60ff19831686528186019350613f37565b613f0d85614a93565b60005b83811015613f2f57815481890152600182019150602081019050613f10565b838801955050505b50505092915050565b6000613f4d603483614b1b565b9150613f5882614f95565b604082019050919050565b6000613f70602883614b1b565b9150613f7b82614fe4565b604082019050919050565b6000613f93601b83614b1b565b9150613f9e82615033565b602082019050919050565b6000613fb6602b83614b1b565b9150613fc18261505c565b604082019050919050565b6000613fd9602683614b1b565b9150613fe4826150ab565b604082019050919050565b6000613ffc602483614b1b565b9150614007826150fa565b604082019050919050565b600061401f602983614b1b565b915061402a82615149565b604082019050919050565b6000614042601883614b1b565b915061404d82615198565b602082019050919050565b6000614065602d83614b1b565b9150614070826151c1565b604082019050919050565b6000614088602b83614b1b565b915061409382615210565b604082019050919050565b60006140ab602583614b1b565b91506140b68261525f565b604082019050919050565b60006140ce603283614b1b565b91506140d9826152ae565b604082019050919050565b60006140f1601483614b1b565b91506140fc826152fd565b602082019050919050565b6000614114602383614b1b565b915061411f82615326565b604082019050919050565b6000614137602383614b1b565b915061414282615375565b604082019050919050565b600061415a602a83614b1b565b9150614165826153c4565b604082019050919050565b600061417d602083614b1b565b915061418882615413565b602082019050919050565b60006141a0600583614b2c565b91506141ab8261543c565b600582019050919050565b60006141c3602083614b1b565b91506141ce82615465565b602082019050919050565b60006141e6602b83614b1b565b91506141f18261548e565b604082019050919050565b6000614209602383614b1b565b9150614214826154dd565b604082019050919050565b600061422c602b83614b1b565b91506142378261552c565b604082019050919050565b600061424f601f83614b1b565b915061425a8261557b565b602082019050919050565b6000614272602a83614b1b565b915061427d826155a4565b604082019050919050565b6000614295602983614b1b565b91506142a0826155f3565b604082019050919050565b60006142b8602983614b1b565b91506142c382615642565b604082019050919050565b60006142db602883614b1b565b91506142e682615691565b604082019050919050565b60006142fe601f83614b1b565b9150614309826156e0565b602082019050919050565b6000614321602183614b1b565b915061432c82615709565b604082019050919050565b61434081614cb6565b82525050565b61434f81614cb6565b82525050565b61436661436182614cb6565b614e09565b82525050565b60006143788284613ec1565b915081905092915050565b600061438f8285613ec1565b915061439b8284613e90565b91506143a682614193565b91508190509392505050565b60006143be8288614355565b6020820191506143ce8287613d43565b6014820191506143de8286614355565b6020820191506143ee8285614355565b6020820191506143fe8284614355565b6020820191508190509695505050505050565b60006020820190506144266000830184613d34565b92915050565b600060a0820190506144416000830188613d34565b61444e6020830187613d34565b81810360408301526144608186613db1565b905081810360608301526144748185613db1565b905081810360808301526144888184613e1e565b90509695505050505050565b600060a0820190506144a96000830188613d34565b6144b66020830187613d34565b6144c36040830186614346565b6144d06060830185614346565b81810360808301526144e28184613e1e565b90509695505050505050565b60006040820190506145036000830185613d34565b6145106020830184614346565b9392505050565b600060c08201905061452c6000830185613d5a565b61453960a0830184613d34565b9392505050565b6000602082019050818103600083015261455a8184613db1565b905092915050565b6000604082019050818103600083015261457c8185613db1565b905081810360208301526145908184613db1565b90509392505050565b60006020820190506145ae6000830184613e0f565b92915050565b600060208201905081810360008301526145ce8184613e57565b905092915050565b600060208201905081810360008301526145ef81613f40565b9050919050565b6000602082019050818103600083015261460f81613f63565b9050919050565b6000602082019050818103600083015261462f81613f86565b9050919050565b6000602082019050818103600083015261464f81613fa9565b9050919050565b6000602082019050818103600083015261466f81613fcc565b9050919050565b6000602082019050818103600083015261468f81613fef565b9050919050565b600060208201905081810360008301526146af81614012565b9050919050565b600060208201905081810360008301526146cf81614035565b9050919050565b600060208201905081810360008301526146ef81614058565b9050919050565b6000602082019050818103600083015261470f8161407b565b9050919050565b6000602082019050818103600083015261472f8161409e565b9050919050565b6000602082019050818103600083015261474f816140c1565b9050919050565b6000602082019050818103600083015261476f816140e4565b9050919050565b6000602082019050818103600083015261478f81614107565b9050919050565b600060208201905081810360008301526147af8161412a565b9050919050565b600060208201905081810360008301526147cf8161414d565b9050919050565b600060208201905081810360008301526147ef81614170565b9050919050565b6000602082019050818103600083015261480f816141b6565b9050919050565b6000602082019050818103600083015261482f816141d9565b9050919050565b6000602082019050818103600083015261484f816141fc565b9050919050565b6000602082019050818103600083015261486f8161421f565b9050919050565b6000602082019050818103600083015261488f81614242565b9050919050565b600060208201905081810360008301526148af81614265565b9050919050565b600060208201905081810360008301526148cf81614288565b9050919050565b600060208201905081810360008301526148ef816142ab565b9050919050565b6000602082019050818103600083015261490f816142ce565b9050919050565b6000602082019050818103600083015261492f816142f1565b9050919050565b6000602082019050818103600083015261494f81614314565b9050919050565b600060208201905061496b6000830184614346565b92915050565b60006040820190506149866000830185614346565b6149936020830184614346565b9392505050565b60006149a46149b5565b90506149b08282614d41565b919050565b6000604051905090565b600067ffffffffffffffff8211156149da576149d9614f00565b5b602082029050602081019050919050565b600067ffffffffffffffff821115614a0657614a05614f00565b5b602082029050602081019050919050565b600067ffffffffffffffff821115614a3257614a31614f00565b5b614a3b82614f6a565b9050602081019050919050565b600067ffffffffffffffff821115614a6357614a62614f00565b5b614a6c82614f6a565b9050602081019050919050565b6000819050919050565b6000819050602082019050919050565b60008190508160005260206000209050919050565b600060059050919050565b600081519050919050565b600081519050919050565b600081519050919050565b6000602082019050919050565b6000602082019050919050565b600081905092915050565b600082825260208201905092915050565b600082825260208201905092915050565b600082825260208201905092915050565b600081905092915050565b6000614b4282614cb6565b9150614b4d83614cb6565b9250827fffffffffffffffffffffffffffffffffffffffffffffffffffffffffffffffff03821115614b8257614b81614e44565b5b828201905092915050565b6000614b9882614cb6565b9150614ba383614cb6565b925082614bb357614bb2614e73565b5b828204905092915050565b6000614bc982614cb6565b9150614bd483614cb6565b9250817fffffffffffffffffffffffffffffffffffffffffffffffffffffffffffffffff0483118215151615614c0d57614c0c614e44565b5b828202905092915050565b6000614c2382614cb6565b9150614c2e83614cb6565b925082821015614c4157614c40614e44565b5b828203905092915050565b6000614c5782614c96565b9050919050565b60008115159050919050565b60007fffffffff0000000000000000000000000000000000000000000000000000000082169050919050565b600073ffffffffffffffffffffffffffffffffffffffff82169050919050565b6000819050919050565b600060ff82169050919050565b82818337600083830152505050565b60005b83811015614cfa578082015181840152602081019050614cdf565b83811115614d09576000848401525b50505050565b60006002820490506001821680614d2757607f821691505b60208210811415614d3b57614d3a614ea2565b5b50919050565b614d4a82614f6a565b810181811067ffffffffffffffff82111715614d6957614d68614f00565b5b80604052505050565b6000614d7d82614cb6565b91507fffffffffffffffffffffffffffffffffffffffffffffffffffffffffffffffff821415614db057614daf614e44565b5b600182019050919050565b6000614dc682614cc0565b915060ff821415614dda57614dd9614e44565b5b600182019050919050565b6000614df082614df7565b9050919050565b6000614e0282614f7b565b9050919050565b6000819050919050565b6000614e1e82614cb6565b9150614e2983614cb6565b925082614e3957614e38614e73565b5b828206905092915050565b7f4e487b7100000000000000000000000000000000000000000000000000000000600052601160045260246000fd5b7f4e487b7100000000000000000000000000000000000000000000000000000000600052601260045260246000fd5b7f4e487b7100000000000000000000000000000000000000000000000000000000600052602260045260246000fd5b7f4e487b7100000000000000000000000000000000000000000000000000000000600052603260045260246000fd5b7f4e487b7100000000000000000000000000000000000000000000000000000000600052604160045260246000fd5b600060033d1115614f4e5760046000803e614f4b600051614f88565b90505b90565b600080fd5b600080fd5b600080fd5b600080fd5b600080fd5b6000601f19601f8301169050919050565b60008160601b9050919050565b60008160e01c9050919050565b7f455243313135353a207472616e7366657220746f206e6f6e204552433131353560008201527f526563656976657220696d706c656d656e746572000000000000000000000000602082015250565b7f455243313135353a204552433131353552656365697665722072656a6563746560008201527f6420746f6b656e73000000000000000000000000000000000000000000000000602082015250565b7f4e6f2072656d61696e696e6720626f6f73746572207061636b73210000000000600082015250565b7f455243313135353a2062616c616e636520717565727920666f7220746865207a60008201527f65726f2061646472657373000000000000000000000000000000000000000000602082015250565b7f4f776e61626c653a206e6577206f776e657220697320746865207a65726f206160008201527f6464726573730000000000000000000000000000000000000000000000000000602082015250565b7f455243313135353a206275726e20616d6f756e7420657863656564732062616c60008201527f616e636500000000000000000000000000000000000000000000000000000000602082015250565b7f455243313135353a2063616c6c6572206973206e6f74206f776e6572206e6f7260008201527f20617070726f7665640000000000000000000000000000000000000000000000602082015250565b7f55736572206973206e6f742077686974656c69737465642e0000000000000000600082015250565b7f416c6c206f662074686973206174686c657465206861766520616c726561647960008201527f206265656e206d696e7465642100000000000000000000000000000000000000602082015250565b7f416c6c20626f6f73746572207061636b73206861766520616c7265616479206260008201527f65656e206d696e74656421000000000000000000000000000000000000000000602082015250565b7f455243313135353a207472616e7366657220746f20746865207a65726f20616460008201527f6472657373000000000000000000000000000000000000000000000000000000602082015250565b7f455243313135353a207472616e736665722063616c6c6572206973206e6f742060008201527f6f776e6572206e6f7220617070726f7665640000000000000000000000000000602082015250565b7f43616e6e6f742073657420757269207477696365000000000000000000000000600082015250565b7f455243313135353a206275726e2066726f6d20746865207a65726f206164647260008201527f6573730000000000000000000000000000000000000000000000000000000000602082015250565b7f426f6f73746572207061636b732063616e6e6f74206265206f70656e6564207960008201527f6574210000000000000000000000000000000000000000000000000000000000602082015250565b7f455243313135353a20696e73756666696369656e742062616c616e636520666f60008201527f72207472616e7366657200000000000000000000000000000000000000000000602082015250565b7f596f752063616e6e6f74206275726e206d6f7265207468616e2031207061636b600082015250565b7f2e6a736f6e000000000000000000000000000000000000000000000000000000600082015250565b7f4f776e61626c653a2063616c6c6572206973206e6f7420746865206f776e6572600082015250565b7f53746172746572207061636b20646f6573206e6f7420657869737420696e207560008201527f736572732077616c6c6574000000000000000000000000000000000000000000602082015250565b7f416c6c207061636b73206861766520616c7265616479206265656e206d696e7460008201527f6564210000000000000000000000000000000000000000000000000000000000602082015250565b7f43616e206f6e6c79206d696e742074776f20626f6f73746572207061636b732060008201527f706572206163636f756e74000000000000000000000000000000000000000000602082015250565b7f5061636b73206172656e277420726561647920746f206f70656e207965742100600082015250565b7f43616e206f6e6c79206d696e74206f6e652073746172746572207061636b207060008201527f6572206163636f756e7400000000000000000000000000000000000000000000602082015250565b7f455243313135353a2073657474696e6720617070726f76616c2073746174757360008201527f20666f722073656c660000000000000000000000000000000000000000000000602082015250565b7f455243313135353a206163636f756e747320616e6420696473206c656e67746860008201527f206d69736d617463680000000000000000000000000000000000000000000000602082015250565b7f455243313135353a2069647320616e6420616d6f756e7473206c656e6774682060008201527f6d69736d61746368000000000000000000000000000000000000000000000000602082015250565b7f507269766174652073616c65206861736e2774206f70656e6564207965742e00600082015250565b7f455243313135353a206d696e7420746f20746865207a65726f2061646472657360008201527f7300000000000000000000000000000000000000000000000000000000000000602082015250565b600060443d1015615768576157eb565b6157706149b5565b60043d036004823e80513d602482011167ffffffffffffffff821117156157985750506157eb565b808201805167ffffffffffffffff8111156157b657505050506157eb565b80602083010160043d0385018111156157d35750505050506157eb565b6157e282602001850186614d41565b82955050505050505b90565b6157f781614c4c565b811461580257600080fd5b50565b61580e81614c5e565b811461581957600080fd5b50565b61582581614c6a565b811461583057600080fd5b50565b61583c81614cb6565b811461584757600080fd5b5056fea26469706673582212200aa643a86525739b21c6aa537521bc1811045943dd306110a644440810bb9c1d64736f6c63430008070033",
  "linkReferences": {},
  "deployedLinkReferences": {}
}