{
  "_format": "hh-sol-artifact-1",
  "contractName": "GameItems",
  "sourceName": "contracts/GameItems.sol",
  "abi": [
    {
      "inputs": [
        {
          "components": [
            {
              "internalType": "uint256",
              "name": "_numAthletes",
              "type": "uint256"
            },
            {
              "internalType": "uint256",
              "name": "_nftPerAthlete",
              "type": "uint256"
            },
            {
              "internalType": "uint256",
              "name": "_starterPackSize",
              "type": "uint256"
            },
            {
              "internalType": "uint256",
              "name": "_boosterPackSize",
              "type": "uint256"
            },
            {
              "internalType": "uint256",
              "name": "_maxStarterPackBalance",
              "type": "uint256"
            },
            {
              "internalType": "uint256",
              "name": "_maxBoosterPackBalance",
              "type": "uint256"
            },
            {
              "internalType": "uint256",
              "name": "_maxPacks",
              "type": "uint256"
            },
            {
              "internalType": "uint256",
              "name": "_revealTimestamp",
              "type": "uint256"
            }
          ],
          "internalType": "struct GameItems.Parameters",
          "name": "params",
          "type": "tuple"
        },
        {
          "internalType": "string",
          "name": "_athleteURI",
          "type": "string"
        },
        {
          "internalType": "string",
          "name": "_starterPackURI",
          "type": "string"
        },
        {
          "internalType": "string",
          "name": "_boosterPackURI",
          "type": "string"
        }
      ],
      "stateMutability": "nonpayable",
      "type": "constructor"
    },
    {
      "anonymous": false,
      "inputs": [
        {
          "indexed": true,
          "internalType": "address",
          "name": "account",
          "type": "address"
        },
        {
          "indexed": true,
          "internalType": "address",
          "name": "operator",
          "type": "address"
        },
        {
          "indexed": false,
          "internalType": "bool",
          "name": "approved",
          "type": "bool"
        }
      ],
      "name": "ApprovalForAll",
      "type": "event"
    },
    {
      "anonymous": false,
      "inputs": [
        {
          "indexed": true,
          "internalType": "address",
          "name": "previousOwner",
          "type": "address"
        },
        {
          "indexed": true,
          "internalType": "address",
          "name": "newOwner",
          "type": "address"
        }
      ],
      "name": "OwnershipTransferred",
      "type": "event"
    },
    {
      "anonymous": false,
      "inputs": [
        {
          "indexed": true,
          "internalType": "address",
          "name": "operator",
          "type": "address"
        },
        {
          "indexed": true,
          "internalType": "address",
          "name": "from",
          "type": "address"
        },
        {
          "indexed": true,
          "internalType": "address",
          "name": "to",
          "type": "address"
        },
        {
          "indexed": false,
          "internalType": "uint256[]",
          "name": "ids",
          "type": "uint256[]"
        },
        {
          "indexed": false,
          "internalType": "uint256[]",
          "name": "values",
          "type": "uint256[]"
        }
      ],
      "name": "TransferBatch",
      "type": "event"
    },
    {
      "anonymous": false,
      "inputs": [
        {
          "indexed": true,
          "internalType": "address",
          "name": "operator",
          "type": "address"
        },
        {
          "indexed": true,
          "internalType": "address",
          "name": "from",
          "type": "address"
        },
        {
          "indexed": true,
          "internalType": "address",
          "name": "to",
          "type": "address"
        },
        {
          "indexed": false,
          "internalType": "uint256",
          "name": "id",
          "type": "uint256"
        },
        {
          "indexed": false,
          "internalType": "uint256",
          "name": "value",
          "type": "uint256"
        }
      ],
      "name": "TransferSingle",
      "type": "event"
    },
    {
      "anonymous": false,
      "inputs": [
        {
          "indexed": false,
          "internalType": "string",
          "name": "value",
          "type": "string"
        },
        {
          "indexed": true,
          "internalType": "uint256",
          "name": "id",
          "type": "uint256"
        }
      ],
      "name": "URI",
      "type": "event"
    },
    {
      "anonymous": false,
      "inputs": [
        {
          "indexed": false,
          "internalType": "address",
          "name": "user",
          "type": "address"
        },
        {
          "indexed": false,
          "internalType": "uint256",
          "name": "id",
          "type": "uint256"
        }
      ],
      "name": "packMinted",
      "type": "event"
    },
    {
      "inputs": [],
      "name": "REVEAL_TIMESTAMP",
      "outputs": [
        {
          "internalType": "uint256",
          "name": "",
          "type": "uint256"
        }
      ],
      "stateMutability": "view",
      "type": "function"
    },
    {
      "inputs": [
        {
          "internalType": "address",
          "name": "account",
          "type": "address"
        },
        {
          "internalType": "uint256",
          "name": "id",
          "type": "uint256"
        }
      ],
      "name": "balanceOf",
      "outputs": [
        {
          "internalType": "uint256",
          "name": "",
          "type": "uint256"
        }
      ],
      "stateMutability": "view",
      "type": "function"
    },
    {
      "inputs": [
        {
          "internalType": "address[]",
          "name": "accounts",
          "type": "address[]"
        },
        {
          "internalType": "uint256[]",
          "name": "ids",
          "type": "uint256[]"
        }
      ],
      "name": "balanceOfBatch",
      "outputs": [
        {
          "internalType": "uint256[]",
          "name": "",
          "type": "uint256[]"
        }
      ],
      "stateMutability": "view",
      "type": "function"
    },
    {
      "inputs": [],
      "name": "burnBoosterPack",
      "outputs": [],
      "stateMutability": "nonpayable",
      "type": "function"
    },
    {
      "inputs": [],
      "name": "burnStarterPack",
      "outputs": [],
      "stateMutability": "nonpayable",
      "type": "function"
    },
    {
      "inputs": [],
      "name": "emergencySetStartingIndexBlock",
      "outputs": [],
      "stateMutability": "nonpayable",
      "type": "function"
    },
    {
      "inputs": [],
      "name": "generateBoosterPackIndices",
      "outputs": [
        {
          "internalType": "uint256[3]",
          "name": "",
          "type": "uint256[3]"
        }
      ],
      "stateMutability": "view",
      "type": "function"
    },
    {
      "inputs": [],
      "name": "generateStarterPackIndices",
      "outputs": [
        {
          "internalType": "uint256[5]",
          "name": "",
          "type": "uint256[5]"
        }
      ],
      "stateMutability": "view",
      "type": "function"
    },
    {
      "inputs": [],
      "name": "getNFTPerAthlete",
      "outputs": [
        {
          "internalType": "uint256",
          "name": "",
          "type": "uint256"
        }
      ],
      "stateMutability": "view",
      "type": "function"
    },
    {
      "inputs": [
        {
          "internalType": "address",
          "name": "account",
          "type": "address"
        },
        {
          "internalType": "address",
          "name": "operator",
          "type": "address"
        }
      ],
      "name": "isApprovedForAll",
      "outputs": [
        {
          "internalType": "bool",
          "name": "",
          "type": "bool"
        }
      ],
      "stateMutability": "view",
      "type": "function"
    },
    {
      "inputs": [],
      "name": "mintBoosterPack",
      "outputs": [],
      "stateMutability": "nonpayable",
      "type": "function"
    },
    {
      "inputs": [],
      "name": "mintStarterPack",
      "outputs": [],
      "stateMutability": "nonpayable",
      "type": "function"
    },
    {
      "inputs": [],
      "name": "owner",
      "outputs": [
        {
          "internalType": "address",
          "name": "",
          "type": "address"
        }
      ],
      "stateMutability": "view",
      "type": "function"
    },
    {
      "inputs": [],
      "name": "packsReadyToOpen",
      "outputs": [
        {
          "internalType": "bool",
          "name": "",
          "type": "bool"
        }
      ],
      "stateMutability": "view",
      "type": "function"
    },
    {
      "inputs": [],
      "name": "renounceOwnership",
      "outputs": [],
      "stateMutability": "nonpayable",
      "type": "function"
    },
    {
      "inputs": [
        {
          "internalType": "address",
          "name": "from",
          "type": "address"
        },
        {
          "internalType": "address",
          "name": "to",
          "type": "address"
        },
        {
          "internalType": "uint256[]",
          "name": "ids",
          "type": "uint256[]"
        },
        {
          "internalType": "uint256[]",
          "name": "amounts",
          "type": "uint256[]"
        },
        {
          "internalType": "bytes",
          "name": "data",
          "type": "bytes"
        }
      ],
      "name": "safeBatchTransferFrom",
      "outputs": [],
      "stateMutability": "nonpayable",
      "type": "function"
    },
    {
      "inputs": [
        {
          "internalType": "address",
          "name": "from",
          "type": "address"
        },
        {
          "internalType": "address",
          "name": "to",
          "type": "address"
        },
        {
          "internalType": "uint256",
          "name": "id",
          "type": "uint256"
        },
        {
          "internalType": "uint256",
          "name": "amount",
          "type": "uint256"
        },
        {
          "internalType": "bytes",
          "name": "data",
          "type": "bytes"
        }
      ],
      "name": "safeTransferFrom",
      "outputs": [],
      "stateMutability": "nonpayable",
      "type": "function"
    },
    {
      "inputs": [
        {
          "internalType": "address",
          "name": "operator",
          "type": "address"
        },
        {
          "internalType": "bool",
          "name": "approved",
          "type": "bool"
        }
      ],
      "name": "setApprovalForAll",
      "outputs": [],
      "stateMutability": "nonpayable",
      "type": "function"
    },
    {
      "inputs": [],
      "name": "setPacksReady",
      "outputs": [],
      "stateMutability": "nonpayable",
      "type": "function"
    },
    {
      "inputs": [
        {
          "internalType": "string",
          "name": "provenanceHash",
          "type": "string"
        }
      ],
      "name": "setProvenanceHash",
      "outputs": [],
      "stateMutability": "nonpayable",
      "type": "function"
    },
    {
      "inputs": [],
      "name": "setStartingIndex",
      "outputs": [],
      "stateMutability": "nonpayable",
      "type": "function"
    },
    {
      "inputs": [
        {
          "internalType": "uint256",
          "name": "tokenId",
          "type": "uint256"
        },
        {
          "internalType": "string",
          "name": "uri",
          "type": "string"
        }
      ],
      "name": "setTokenUri",
      "outputs": [],
      "stateMutability": "nonpayable",
      "type": "function"
    },
    {
      "inputs": [],
      "name": "setURIs",
      "outputs": [],
      "stateMutability": "nonpayable",
      "type": "function"
    },
    {
      "inputs": [
        {
          "internalType": "bytes4",
          "name": "interfaceId",
          "type": "bytes4"
        }
      ],
      "name": "supportsInterface",
      "outputs": [
        {
          "internalType": "bool",
          "name": "",
          "type": "bool"
        }
      ],
      "stateMutability": "view",
      "type": "function"
    },
    {
      "inputs": [
        {
          "internalType": "address",
          "name": "newOwner",
          "type": "address"
        }
      ],
      "name": "transferOwnership",
      "outputs": [],
      "stateMutability": "nonpayable",
      "type": "function"
    },
    {
      "inputs": [
        {
          "internalType": "uint256",
          "name": "tokenId",
          "type": "uint256"
        }
      ],
      "name": "uri",
      "outputs": [
        {
          "internalType": "string",
          "name": "",
          "type": "string"
        }
      ],
      "stateMutability": "view",
      "type": "function"
    }
  ],
  "bytecode": "0x6080604052612710600f556001601060086101000a81548160ff0219169083151502179055506008546011556011546012556040518060200160405280600081525060189080519060200190620000589291906200037c565b503480156200006657600080fd5b50604051620054e7380380620054e783398181016040528101906200008c9190620005a0565b60405180602001604052806000815250620000ad81620001c660201b60201c565b50620000ce620000c2620001e260201b60201c565b620001ea60201b60201c565b620001196040518060400160405280601281526020017f4d616b696e6720636f6e74726163742e2e2e0000000000000000000000000000815250620002b060201b6200172c1760201c565b836000015160088190555083602001516009819055508360400151600a819055508360600151600b819055508360800151600c819055508360a00151600d819055508360c00151600e8190555082600590805190602001906200017e9291906200037c565b508160069080519060200190620001979291906200037c565b508060079080519060200190620001b09291906200037c565b508360e00151600f8190555050505050620008a1565b8060029080519060200190620001de9291906200037c565b5050565b600033905090565b6000600360009054906101000a900473ffffffffffffffffffffffffffffffffffffffff16905081600360006101000a81548173ffffffffffffffffffffffffffffffffffffffff021916908373ffffffffffffffffffffffffffffffffffffffff1602179055508173ffffffffffffffffffffffffffffffffffffffff168173ffffffffffffffffffffffffffffffffffffffff167f8be0079c531659141344cd1fd0a4f28419497f9722a3daafe3b4186f6b6457e060405160405180910390a35050565b6200035081604051602401620002c79190620006b4565b6040516020818303038152906040527f41304fac000000000000000000000000000000000000000000000000000000007bffffffffffffffffffffffffffffffffffffffffffffffffffffffff19166020820180517bffffffffffffffffffffffffffffffffffffffffffffffffffffffff83818316178352505050506200035360201b60201c565b50565b60008151905060006a636f6e736f6c652e6c6f679050602083016000808483855afa5050505050565b8280546200038a9062000793565b90600052602060002090601f016020900481019282620003ae5760008555620003fa565b82601f10620003c957805160ff1916838001178555620003fa565b82800160010185558215620003fa579182015b82811115620003f9578251825591602001919060010190620003dc565b5b5090506200040991906200040d565b5090565b5b80821115620004285760008160009055506001016200040e565b5090565b6000620004436200043d8462000701565b620006d8565b90508281526020810184848401111562000462576200046162000867565b5b6200046f8482856200075d565b509392505050565b600082601f8301126200048f576200048e6200085d565b5b8151620004a18482602086016200042c565b91505092915050565b60006101008284031215620004c457620004c362000862565b5b620004d1610100620006d8565b90506000620004e38482850162000589565b6000830152506020620004f98482850162000589565b60208301525060406200050f8482850162000589565b6040830152506060620005258482850162000589565b60608301525060806200053b8482850162000589565b60808301525060a0620005518482850162000589565b60a08301525060c0620005678482850162000589565b60c08301525060e06200057d8482850162000589565b60e08301525092915050565b6000815190506200059a8162000887565b92915050565b6000806000806101608587031215620005be57620005bd62000871565b5b6000620005ce87828801620004aa565b94505061010085015167ffffffffffffffff811115620005f357620005f26200086c565b5b620006018782880162000477565b93505061012085015167ffffffffffffffff8111156200062657620006256200086c565b5b620006348782880162000477565b92505061014085015167ffffffffffffffff8111156200065957620006586200086c565b5b620006678782880162000477565b91505092959194509250565b6000620006808262000737565b6200068c818562000742565b93506200069e8185602086016200075d565b620006a98162000876565b840191505092915050565b60006020820190508181036000830152620006d0818462000673565b905092915050565b6000620006e4620006f7565b9050620006f28282620007c9565b919050565b6000604051905090565b600067ffffffffffffffff8211156200071f576200071e6200082e565b5b6200072a8262000876565b9050602081019050919050565b600081519050919050565b600082825260208201905092915050565b6000819050919050565b60005b838110156200077d57808201518184015260208101905062000760565b838111156200078d576000848401525b50505050565b60006002820490506001821680620007ac57607f821691505b60208210811415620007c357620007c2620007ff565b5b50919050565b620007d48262000876565b810181811067ffffffffffffffff82111715620007f657620007f56200082e565b5b80604052505050565b7f4e487b7100000000000000000000000000000000000000000000000000000000600052602260045260246000fd5b7f4e487b7100000000000000000000000000000000000000000000000000000000600052604160045260246000fd5b600080fd5b600080fd5b600080fd5b600080fd5b600080fd5b6000601f19601f8301169050919050565b620008928162000753565b81146200089e57600080fd5b50565b614c3680620008b16000396000f3fe608060405234801561001057600080fd5b506004361061018d5760003560e01c80635d2db2bf116100de578063a22cb46511610097578063e985e9c511610071578063e985e9c5146103c6578063e9866550146103f6578063f242432a14610400578063f2fde38b1461041c5761018d565b8063a22cb46514610382578063bbb13e171461039e578063be59ec26146103a85761018d565b80635d2db2bf14610332578063715018a61461033c57806375223f92146103465780637d17fcbe146103505780638da5cb5b1461035a5780639ebf488b146103785761018d565b8063166d5d301161014b5780632eb2c2d6116101255780632eb2c2d6146102c05780634e1273f4146102dc5780634f3551d71461030c57806357f7789e146103165761018d565b8063166d5d301461027a57806318e20a381461029857806319b60439146102b65761018d565b8062fdd58e1461019257806301ffc9a7146101c25780630e89341c146101f2578063109695231461022257806313dc2db21461023e578063143cc1441461025c575b600080fd5b6101ac60048036038101906101a791906130cc565b610438565b6040516101b99190613e1e565b60405180910390f35b6101dc60048036038101906101d79190613184565b610501565b6040516101e99190613ad1565b60405180910390f35b61020c60048036038101906102079190613227565b6105e3565b6040516102199190613aec565b60405180910390f35b61023c600480360381019061023791906131de565b610688565b005b61024661071e565b6040516102539190613a5d565b60405180910390f35b6102646107fe565b6040516102719190613e1e565b60405180910390f35b610282610884565b60405161028f9190613a42565b60405180910390f35b6102a06109ea565b6040516102ad9190613e1e565b60405180910390f35b6102be6109f0565b005b6102da60048036038101906102d59190612f26565b610a98565b005b6102f660048036038101906102f1919061310c565b610b39565b6040516103039190613a78565b60405180910390f35b610314610c52565b005b610330600480360381019061032b9190613254565b610d5b565b005b61033a610e65565b005b610344610fc8565b005b61034e611050565b005b610358611150565b005b61036261121a565b60405161036f919061393c565b60405180910390f35b610380611244565b005b61039c6004803603810190610397919061308c565b6112ff565b005b6103a6611315565b005b6103b0611415565b6040516103bd9190613ad1565b60405180910390f35b6103e060048036038101906103db9190612ee6565b611428565b6040516103ed9190613ad1565b60405180910390f35b6103fe6114bc565b005b61041a60048036038101906104159190612ff5565b611593565b005b61043660048036038101906104319190612eb9565b611634565b005b60008073ffffffffffffffffffffffffffffffffffffffff168373ffffffffffffffffffffffffffffffffffffffff1614156104a9576040517f08c379a00000000000000000000000000000000000000000000000000000000081526004016104a090613b9e565b60405180910390fd5b60008083815260200190815260200160002060008473ffffffffffffffffffffffffffffffffffffffff1673ffffffffffffffffffffffffffffffffffffffff16815260200190815260200160002054905092915050565b60007fd9b67a26000000000000000000000000000000000000000000000000000000007bffffffffffffffffffffffffffffffffffffffffffffffffffffffff1916827bffffffffffffffffffffffffffffffffffffffffffffffffffffffff191614806105cc57507f0e89341c000000000000000000000000000000000000000000000000000000007bffffffffffffffffffffffffffffffffffffffffffffffffffffffff1916827bffffffffffffffffffffffffffffffffffffffffffffffffffffffff1916145b806105dc57506105db826117c5565b5b9050919050565b606060216000838152602001908152602001600020805461060390614204565b80601f016020809104026020016040519081016040528092919081815260200182805461062f90614204565b801561067c5780601f106106515761010080835404028352916020019161067c565b820191906000526020600020905b81548152906001019060200180831161065f57829003601f168201915b50505050509050919050565b61069061182f565b73ffffffffffffffffffffffffffffffffffffffff166106ae61121a565b73ffffffffffffffffffffffffffffffffffffffff1614610704576040517f08c379a00000000000000000000000000000000000000000000000000000000081526004016106fb90613cfe565b60405180910390fd5b806018908051906020019061071a929190612b4d565b5050565b610726612bd3565b61072e612bd3565b60005b60058110156107f6576000600a8261074991906140b3565b905060006009600a8461075c91906140b3565b610766919061402c565b90508160018383610777919061410d565b610781919061402c565b4233448760405160200161079894939291906138ee565b6040516020818303038152906040528051906020012060001c6107bb9190614308565b6107c5919061402c565b8484600581106107d8576107d76143c6565b5b602002018181525050505080806107ee90614267565b915050610731565b508091505090565b600061080861182f565b73ffffffffffffffffffffffffffffffffffffffff1661082661121a565b73ffffffffffffffffffffffffffffffffffffffff161461087c576040517f08c379a000000000000000000000000000000000000000000000000000000000815260040161087390613cfe565b60405180910390fd5b600954905090565b61088c612bf5565b610894612bf5565b60006005436108a39190614308565b905060005b60038110156109e1576005826108be9190614308565b91506000600a836108cf91906140b3565b905060006009600a856108e291906140b3565b6108ec919061402c565b905081600183836108fd919061410d565b610907919061402c565b4233448760405160200161091e94939291906138ee565b6040516020818303038152906040528051906020012060001c6109419190614308565b61094b919061402c565b85846003811061095e5761095d6143c6565b5b602002018181525050600184610974919061402c565b93506109cc6040518060400160405280601181526020017f426f6f7374657220696e646578206973200000000000000000000000000000008152508685600381106109c2576109c16143c6565b5b6020020151611837565b505080806109d990614267565b9150506108a8565b50819250505090565b600f5481565b6109f861182f565b73ffffffffffffffffffffffffffffffffffffffff16610a1661121a565b73ffffffffffffffffffffffffffffffffffffffff1614610a6c576040517f08c379a0000000000000000000000000000000000000000000000000000000008152600401610a6390613cfe565b60405180910390fd5b601060089054906101000a900460ff1615601060086101000a81548160ff021916908315150217905550565b610aa061182f565b73ffffffffffffffffffffffffffffffffffffffff168573ffffffffffffffffffffffffffffffffffffffff161480610ae65750610ae585610ae061182f565b611428565b5b610b25576040517f08c379a0000000000000000000000000000000000000000000000000000000008152600401610b1c90613c7e565b60405180910390fd5b610b3285858585856118d3565b5050505050565b60608151835114610b7f576040517f08c379a0000000000000000000000000000000000000000000000000000000008152600401610b7690613dbe565b60405180910390fd5b6000835167ffffffffffffffff811115610b9c57610b9b6143f5565b5b604051908082528060200260200182016040528015610bca5781602001602082028036833780820191505090505b50905060005b8451811015610c4757610c17858281518110610bef57610bee6143c6565b5b6020026020010151858381518110610c0a57610c096143c6565b5b6020026020010151610438565b828281518110610c2a57610c296143c6565b5b60200260200101818152505080610c4090614267565b9050610bd0565b508091505092915050565b600e5460145410610c98576040517f08c379a0000000000000000000000000000000000000000000000000000000008152600401610c8f90613d3e565b60405180910390fd5b6001610ca633601154610438565b10610ce6576040517f08c379a0000000000000000000000000000000000000000000000000000000008152600401610cdd90613d7e565b60405180910390fd5b610d0433601254600160405180602001604052806000815250611be7565b600160146000828254610d17919061402c565b925050819055507f2e0f4d63dcc00e6a11c8aef9f6e15c1f9cd6e9a090b2dd99c7b797f1a28d300d33601454604051610d51929190613a19565b60405180910390a1565b610d6361182f565b73ffffffffffffffffffffffffffffffffffffffff16610d8161121a565b73ffffffffffffffffffffffffffffffffffffffff1614610dd7576040517f08c379a0000000000000000000000000000000000000000000000000000000008152600401610dce90613cfe565b60405180910390fd5b6000602160008481526020019081526020016000208054610df790614204565b905014610e39576040517f08c379a0000000000000000000000000000000000000000000000000000000008152600401610e3090613c9e565b60405180910390fd5b80602160008481526020019081526020016000209080519060200190610e60929190612b4d565b505050565b610e6d61182f565b73ffffffffffffffffffffffffffffffffffffffff16610e8b61121a565b73ffffffffffffffffffffffffffffffffffffffff1614610ee1576040517f08c379a0000000000000000000000000000000000000000000000000000000008152600401610ed890613cfe565b60405180910390fd5b60005b600854811015610f5557600060085482601754610f01919061402c565b610f0b9190614308565b9050610f41816005610f1c84611d7d565b604051602001610f2d9291906138bf565b604051602081830303815290604052610d5b565b508080610f4d90614267565b915050610ee4565b50610f8e6001600854610f68919061402c565b6006604051602001610f7a91906138a8565b604051602081830303815290604052610d5b565b610fc66002600854610fa0919061402c565b6007604051602001610fb291906138a8565b604051602081830303815290604052610d5b565b565b610fd061182f565b73ffffffffffffffffffffffffffffffffffffffff16610fee61121a565b73ffffffffffffffffffffffffffffffffffffffff1614611044576040517f08c379a000000000000000000000000000000000000000000000000000000000815260040161103b90613cfe565b60405180910390fd5b61104e6000611ede565b565b601060089054906101000a900460ff1661109f576040517f08c379a000000000000000000000000000000000000000000000000000000000815260040161109690613d5e565b60405180910390fd5b60006110ad33601254610438565b116110ed576040517f08c379a00000000000000000000000000000000000000000000000000000000081526004016110e490613b7e565b60405180910390fd5b60006110f7610884565b905060005b60038160ff16101561113e5761112b828260ff1660038110611121576111206143c6565b5b6020020151611fa4565b8080611136906142b0565b9150506110fc565b5061114d33601254600161209f565b50565b61115861182f565b73ffffffffffffffffffffffffffffffffffffffff1661117661121a565b73ffffffffffffffffffffffffffffffffffffffff16146111cc576040517f08c379a00000000000000000000000000000000000000000000000000000000081526004016111c390613cfe565b60405180910390fd5b600060175414611211576040517f08c379a000000000000000000000000000000000000000000000000000000000815260040161120890613c3e565b60405180910390fd5b43601681905550565b6000600360009054906101000a900473ffffffffffffffffffffffffffffffffffffffff16905090565b600e546013541061128a576040517f08c379a000000000000000000000000000000000000000000000000000000000815260040161128190613d3e565b60405180910390fd5b6112a833601154600160405180602001604052806000815250611be7565b6001601360008282546112bb919061402c565b925050819055507f2e0f4d63dcc00e6a11c8aef9f6e15c1f9cd6e9a090b2dd99c7b797f1a28d300d336013546040516112f5929190613a19565b60405180910390a1565b61131161130a61182f565b83836122bc565b5050565b601060089054906101000a900460ff16611364576040517f08c379a000000000000000000000000000000000000000000000000000000000815260040161135b90613d5e565b60405180910390fd5b600161137233601154610438565b146113b2576040517f08c379a00000000000000000000000000000000000000000000000000000000081526004016113a990613d1e565b60405180910390fd5b60006113bc61071e565b905060005b60058160ff161015611403576113f0828260ff16600581106113e6576113e56143c6565b5b6020020151611fa4565b80806113fb906142b0565b9150506113c1565b5061141233601154600161209f565b50565b601060089054906101000a900460ff1681565b6000600160008473ffffffffffffffffffffffffffffffffffffffff1673ffffffffffffffffffffffffffffffffffffffff16815260200190815260200160002060008373ffffffffffffffffffffffffffffffffffffffff1673ffffffffffffffffffffffffffffffffffffffff16815260200190815260200160002060009054906101000a900460ff16905092915050565b6114c461182f565b73ffffffffffffffffffffffffffffffffffffffff166114e261121a565b73ffffffffffffffffffffffffffffffffffffffff1614611538576040517f08c379a000000000000000000000000000000000000000000000000000000000815260040161152f90613cfe565b60405180910390fd5b60095460085461154891906140b3565b600143611555919061410d565b4060001c6115639190614308565b601781905550600060175414156115915761158a600160175461242990919063ffffffff16565b6017819055505b565b61159b61182f565b73ffffffffffffffffffffffffffffffffffffffff168573ffffffffffffffffffffffffffffffffffffffff1614806115e157506115e0856115db61182f565b611428565b5b611620576040517f08c379a000000000000000000000000000000000000000000000000000000000815260040161161790613bfe565b60405180910390fd5b61162d858585858561243f565b5050505050565b61163c61182f565b73ffffffffffffffffffffffffffffffffffffffff1661165a61121a565b73ffffffffffffffffffffffffffffffffffffffff16146116b0576040517f08c379a00000000000000000000000000000000000000000000000000000000081526004016116a790613cfe565b60405180910390fd5b600073ffffffffffffffffffffffffffffffffffffffff168173ffffffffffffffffffffffffffffffffffffffff161415611720576040517f08c379a000000000000000000000000000000000000000000000000000000000815260040161171790613bbe565b60405180910390fd5b61172981611ede565b50565b6117c2816040516024016117409190613aec565b6040516020818303038152906040527f41304fac000000000000000000000000000000000000000000000000000000007bffffffffffffffffffffffffffffffffffffffffffffffffffffffff19166020820180517bffffffffffffffffffffffffffffffffffffffffffffffffffffffff83818316178352505050506126c1565b50565b60007f01ffc9a7000000000000000000000000000000000000000000000000000000007bffffffffffffffffffffffffffffffffffffffffffffffffffffffff1916827bffffffffffffffffffffffffffffffffffffffffffffffffffffffff1916149050919050565b600033905090565b6118cf828260405160240161184d929190613b0e565b6040516020818303038152906040527f9710a9d0000000000000000000000000000000000000000000000000000000007bffffffffffffffffffffffffffffffffffffffffffffffffffffffff19166020820180517bffffffffffffffffffffffffffffffffffffffffffffffffffffffff83818316178352505050506126c1565b5050565b8151835114611917576040517f08c379a000000000000000000000000000000000000000000000000000000000815260040161190e90613dde565b60405180910390fd5b600073ffffffffffffffffffffffffffffffffffffffff168473ffffffffffffffffffffffffffffffffffffffff161415611987576040517f08c379a000000000000000000000000000000000000000000000000000000000815260040161197e90613c5e565b60405180910390fd5b600061199161182f565b90506119a18187878787876126ea565b60005b8451811015611b525760008582815181106119c2576119c16143c6565b5b6020026020010151905060008583815181106119e1576119e06143c6565b5b60200260200101519050600080600084815260200190815260200160002060008b73ffffffffffffffffffffffffffffffffffffffff1673ffffffffffffffffffffffffffffffffffffffff16815260200190815260200160002054905081811015611a82576040517f08c379a0000000000000000000000000000000000000000000000000000000008152600401611a7990613cde565b60405180910390fd5b81810360008085815260200190815260200160002060008c73ffffffffffffffffffffffffffffffffffffffff1673ffffffffffffffffffffffffffffffffffffffff168152602001908152602001600020819055508160008085815260200190815260200160002060008b73ffffffffffffffffffffffffffffffffffffffff1673ffffffffffffffffffffffffffffffffffffffff1681526020019081526020016000206000828254611b37919061402c565b9250508190555050505080611b4b90614267565b90506119a4565b508473ffffffffffffffffffffffffffffffffffffffff168673ffffffffffffffffffffffffffffffffffffffff168273ffffffffffffffffffffffffffffffffffffffff167f4a39dc06d4c0dbc64b70af90fd698a233a518aa5d07e595d983b8c0526c8f7fb8787604051611bc9929190613a9a565b60405180910390a4611bdf8187878787876126f2565b505050505050565b600073ffffffffffffffffffffffffffffffffffffffff168473ffffffffffffffffffffffffffffffffffffffff161415611c57576040517f08c379a0000000000000000000000000000000000000000000000000000000008152600401611c4e90613dfe565b60405180910390fd5b6000611c6161182f565b9050611c8281600087611c73886128d9565b611c7c886128d9565b876126ea565b8260008086815260200190815260200160002060008773ffffffffffffffffffffffffffffffffffffffff1673ffffffffffffffffffffffffffffffffffffffff1681526020019081526020016000206000828254611ce1919061402c565b925050819055508473ffffffffffffffffffffffffffffffffffffffff16600073ffffffffffffffffffffffffffffffffffffffff168273ffffffffffffffffffffffffffffffffffffffff167fc3d58168c5ae7397731d063d5bbf3d657854427343f4c083240f7aacaa2d0f628787604051611d5f929190613e39565b60405180910390a4611d7681600087878787612953565b5050505050565b60606000821415611dc5576040518060400160405280600181526020017f30000000000000000000000000000000000000000000000000000000000000008152509050611ed9565b600082905060005b60008214611df7578080611de090614267565b915050600a82611df09190614082565b9150611dcd565b60008167ffffffffffffffff811115611e1357611e126143f5565b5b6040519080825280601f01601f191660200182016040528015611e455781602001600182028036833780820191505090505b5090505b60008514611ed257600182611e5e919061410d565b9150600a85611e6d9190614308565b6030611e79919061402c565b60f81b818381518110611e8f57611e8e6143c6565b5b60200101907effffffffffffffffffffffffffffffffffffffffffffffffffffffffffffff1916908160001a905350600a85611ecb9190614082565b9450611e49565b8093505050505b919050565b6000600360009054906101000a900473ffffffffffffffffffffffffffffffffffffffff16905081600360006101000a81548173ffffffffffffffffffffffffffffffffffffffff021916908373ffffffffffffffffffffffffffffffffffffffff1602179055508173ffffffffffffffffffffffffffffffffffffffff168173ffffffffffffffffffffffffffffffffffffffff167f8be0079c531659141344cd1fd0a4f28419497f9722a3daafe3b4186f6b6457e060405160405180910390a35050565b600954600854611fb491906140b3565b601554101561209c57600954602260008381526020019081526020016000205410612014576040517f08c379a000000000000000000000000000000000000000000000000000000000815260040161200b90613c1e565b60405180910390fd5b612056338260016040518060400160405280600481526020017f3078303000000000000000000000000000000000000000000000000000000000815250611be7565b600160226000838152602001908152602001600020600082825461207a919061402c565b92505081905550600160156000828254612094919061402c565b925050819055505b50565b600073ffffffffffffffffffffffffffffffffffffffff168373ffffffffffffffffffffffffffffffffffffffff16141561210f576040517f08c379a000000000000000000000000000000000000000000000000000000000815260040161210690613cbe565b60405180910390fd5b600061211961182f565b90506121498185600061212b876128d9565b612134876128d9565b604051806020016040528060008152506126ea565b600080600085815260200190815260200160002060008673ffffffffffffffffffffffffffffffffffffffff1673ffffffffffffffffffffffffffffffffffffffff168152602001908152602001600020549050828110156121e0576040517f08c379a00000000000000000000000000000000000000000000000000000000081526004016121d790613bde565b60405180910390fd5b82810360008086815260200190815260200160002060008773ffffffffffffffffffffffffffffffffffffffff1673ffffffffffffffffffffffffffffffffffffffff16815260200190815260200160002081905550600073ffffffffffffffffffffffffffffffffffffffff168573ffffffffffffffffffffffffffffffffffffffff168373ffffffffffffffffffffffffffffffffffffffff167fc3d58168c5ae7397731d063d5bbf3d657854427343f4c083240f7aacaa2d0f6287876040516122ad929190613e39565b60405180910390a45050505050565b8173ffffffffffffffffffffffffffffffffffffffff168373ffffffffffffffffffffffffffffffffffffffff16141561232b576040517f08c379a000000000000000000000000000000000000000000000000000000000815260040161232290613d9e565b60405180910390fd5b80600160008573ffffffffffffffffffffffffffffffffffffffff1673ffffffffffffffffffffffffffffffffffffffff16815260200190815260200160002060008473ffffffffffffffffffffffffffffffffffffffff1673ffffffffffffffffffffffffffffffffffffffff16815260200190815260200160002060006101000a81548160ff0219169083151502179055508173ffffffffffffffffffffffffffffffffffffffff168373ffffffffffffffffffffffffffffffffffffffff167f17307eab39ab6107e8899845ad3d59bd9653f200f220920489ca2b5937696c318360405161241c9190613ad1565b60405180910390a3505050565b60008183612437919061402c565b905092915050565b600073ffffffffffffffffffffffffffffffffffffffff168473ffffffffffffffffffffffffffffffffffffffff1614156124af576040517f08c379a00000000000000000000000000000000000000000000000000000000081526004016124a690613c5e565b60405180910390fd5b60006124b961182f565b90506124d98187876124ca886128d9565b6124d3886128d9565b876126ea565b600080600086815260200190815260200160002060008873ffffffffffffffffffffffffffffffffffffffff1673ffffffffffffffffffffffffffffffffffffffff16815260200190815260200160002054905083811015612570576040517f08c379a000000000000000000000000000000000000000000000000000000000815260040161256790613cde565b60405180910390fd5b83810360008087815260200190815260200160002060008973ffffffffffffffffffffffffffffffffffffffff1673ffffffffffffffffffffffffffffffffffffffff168152602001908152602001600020819055508360008087815260200190815260200160002060008873ffffffffffffffffffffffffffffffffffffffff1673ffffffffffffffffffffffffffffffffffffffff1681526020019081526020016000206000828254612625919061402c565b925050819055508573ffffffffffffffffffffffffffffffffffffffff168773ffffffffffffffffffffffffffffffffffffffff168373ffffffffffffffffffffffffffffffffffffffff167fc3d58168c5ae7397731d063d5bbf3d657854427343f4c083240f7aacaa2d0f6288886040516126a2929190613e39565b60405180910390a46126b8828888888888612953565b50505050505050565b60008151905060006a636f6e736f6c652e6c6f679050602083016000808483855afa5050505050565b505050505050565b6127118473ffffffffffffffffffffffffffffffffffffffff16612b3a565b156128d1578373ffffffffffffffffffffffffffffffffffffffff1663bc197c8187878686866040518663ffffffff1660e01b8152600401612757959493929190613957565b602060405180830381600087803b15801561277157600080fd5b505af19250505080156127a257506040513d601f19601f8201168201806040525081019061279f91906131b1565b60015b612848576127ae614424565b806308c379a0141561280b57506127c3614b0e565b806127ce575061280d565b806040517f08c379a00000000000000000000000000000000000000000000000000000000081526004016128029190613aec565b60405180910390fd5b505b6040517f08c379a000000000000000000000000000000000000000000000000000000000815260040161283f90613b3e565b60405180910390fd5b63bc197c8160e01b7bffffffffffffffffffffffffffffffffffffffffffffffffffffffff1916817bffffffffffffffffffffffffffffffffffffffffffffffffffffffff1916146128cf576040517f08c379a00000000000000000000000000000000000000000000000000000000081526004016128c690613b5e565b60405180910390fd5b505b505050505050565b60606000600167ffffffffffffffff8111156128f8576128f76143f5565b5b6040519080825280602002602001820160405280156129265781602001602082028036833780820191505090505b509050828160008151811061293e5761293d6143c6565b5b60200260200101818152505080915050919050565b6129728473ffffffffffffffffffffffffffffffffffffffff16612b3a565b15612b32578373ffffffffffffffffffffffffffffffffffffffff1663f23a6e6187878686866040518663ffffffff1660e01b81526004016129b89594939291906139bf565b602060405180830381600087803b1580156129d257600080fd5b505af1925050508015612a0357506040513d601f19601f82011682018060405250810190612a0091906131b1565b60015b612aa957612a0f614424565b806308c379a01415612a6c5750612a24614b0e565b80612a2f5750612a6e565b806040517f08c379a0000000000000000000000000000000000000000000000000000000008152600401612a639190613aec565b60405180910390fd5b505b6040517f08c379a0000000000000000000000000000000000000000000000000000000008152600401612aa090613b3e565b60405180910390fd5b63f23a6e6160e01b7bffffffffffffffffffffffffffffffffffffffffffffffffffffffff1916817bffffffffffffffffffffffffffffffffffffffffffffffffffffffff191614612b30576040517f08c379a0000000000000000000000000000000000000000000000000000000008152600401612b2790613b5e565b60405180910390fd5b505b505050505050565b600080823b905060008111915050919050565b828054612b5990614204565b90600052602060002090601f016020900481019282612b7b5760008555612bc2565b82601f10612b9457805160ff1916838001178555612bc2565b82800160010185558215612bc2579182015b82811115612bc1578251825591602001919060010190612ba6565b5b509050612bcf9190612c17565b5090565b6040518060a00160405280600590602082028036833780820191505090505090565b6040518060600160405280600390602082028036833780820191505090505090565b5b80821115612c30576000816000905550600101612c18565b5090565b6000612c47612c4284613e87565b613e62565b90508083825260208201905082856020860282011115612c6a57612c6961444b565b5b60005b85811015612c9a5781612c808882612d98565b845260208401935060208301925050600181019050612c6d565b5050509392505050565b6000612cb7612cb284613eb3565b613e62565b90508083825260208201905082856020860282011115612cda57612cd961444b565b5b60005b85811015612d0a5781612cf08882612ea4565b845260208401935060208301925050600181019050612cdd565b5050509392505050565b6000612d27612d2284613edf565b613e62565b905082815260208101848484011115612d4357612d42614450565b5b612d4e8482856141c2565b509392505050565b6000612d69612d6484613f10565b613e62565b905082815260208101848484011115612d8557612d84614450565b5b612d908482856141c2565b509392505050565b600081359050612da781614ba4565b92915050565b600082601f830112612dc257612dc1614446565b5b8135612dd2848260208601612c34565b91505092915050565b600082601f830112612df057612def614446565b5b8135612e00848260208601612ca4565b91505092915050565b600081359050612e1881614bbb565b92915050565b600081359050612e2d81614bd2565b92915050565b600081519050612e4281614bd2565b92915050565b600082601f830112612e5d57612e5c614446565b5b8135612e6d848260208601612d14565b91505092915050565b600082601f830112612e8b57612e8a614446565b5b8135612e9b848260208601612d56565b91505092915050565b600081359050612eb381614be9565b92915050565b600060208284031215612ecf57612ece61445a565b5b6000612edd84828501612d98565b91505092915050565b60008060408385031215612efd57612efc61445a565b5b6000612f0b85828601612d98565b9250506020612f1c85828601612d98565b9150509250929050565b600080600080600060a08688031215612f4257612f4161445a565b5b6000612f5088828901612d98565b9550506020612f6188828901612d98565b945050604086013567ffffffffffffffff811115612f8257612f81614455565b5b612f8e88828901612ddb565b935050606086013567ffffffffffffffff811115612faf57612fae614455565b5b612fbb88828901612ddb565b925050608086013567ffffffffffffffff811115612fdc57612fdb614455565b5b612fe888828901612e48565b9150509295509295909350565b600080600080600060a086880312156130115761301061445a565b5b600061301f88828901612d98565b955050602061303088828901612d98565b945050604061304188828901612ea4565b935050606061305288828901612ea4565b925050608086013567ffffffffffffffff81111561307357613072614455565b5b61307f88828901612e48565b9150509295509295909350565b600080604083850312156130a3576130a261445a565b5b60006130b185828601612d98565b92505060206130c285828601612e09565b9150509250929050565b600080604083850312156130e3576130e261445a565b5b60006130f185828601612d98565b925050602061310285828601612ea4565b9150509250929050565b600080604083850312156131235761312261445a565b5b600083013567ffffffffffffffff81111561314157613140614455565b5b61314d85828601612dad565b925050602083013567ffffffffffffffff81111561316e5761316d614455565b5b61317a85828601612ddb565b9150509250929050565b60006020828403121561319a5761319961445a565b5b60006131a884828501612e1e565b91505092915050565b6000602082840312156131c7576131c661445a565b5b60006131d584828501612e33565b91505092915050565b6000602082840312156131f4576131f361445a565b5b600082013567ffffffffffffffff81111561321257613211614455565b5b61321e84828501612e76565b91505092915050565b60006020828403121561323d5761323c61445a565b5b600061324b84828501612ea4565b91505092915050565b6000806040838503121561326b5761326a61445a565b5b600061327985828601612ea4565b925050602083013567ffffffffffffffff81111561329a57613299614455565b5b6132a685828601612e76565b9150509250929050565b60006132bc8383613873565b60208301905092915050565b6132d181614141565b82525050565b6132e86132e382614141565b6142da565b82525050565b6132f781613f7a565b6133018184613fd8565b925061330c82613f41565b8060005b8381101561333d57815161332487826132b0565b965061332f83613fb1565b925050600181019050613310565b505050505050565b61334e81613f85565b6133588184613fe3565b925061336382613f4b565b8060005b8381101561339457815161337b87826132b0565b965061338683613fbe565b925050600181019050613367565b505050505050565b60006133a782613f90565b6133b18185613fee565b93506133bc83613f55565b8060005b838110156133ed5781516133d488826132b0565b97506133df83613fcb565b9250506001810190506133c0565b5085935050505092915050565b61340381614153565b82525050565b600061341482613f9b565b61341e8185613fff565b935061342e8185602086016141d1565b6134378161445f565b840191505092915050565b600061344d82613fa6565b6134578185614010565b93506134678185602086016141d1565b6134708161445f565b840191505092915050565b600061348682613fa6565b6134908185614021565b93506134a08185602086016141d1565b80840191505092915050565b600081546134b981614204565b6134c38186614021565b945060018216600081146134de57600181146134ef57613522565b60ff19831686528186019350613522565b6134f885613f65565b60005b8381101561351a578154818901526001820191506020810190506134fb565b838801955050505b50505092915050565b6000613538603483614010565b91506135438261448a565b604082019050919050565b600061355b602883614010565b9150613566826144d9565b604082019050919050565b600061357e601b83614010565b915061358982614528565b602082019050919050565b60006135a1602b83614010565b91506135ac82614551565b604082019050919050565b60006135c4602683614010565b91506135cf826145a0565b604082019050919050565b60006135e7602483614010565b91506135f2826145ef565b604082019050919050565b600061360a602983614010565b91506136158261463e565b604082019050919050565b600061362d602d83614010565b91506136388261468d565b604082019050919050565b6000613650601d83614010565b915061365b826146dc565b602082019050919050565b6000613673602583614010565b915061367e82614705565b604082019050919050565b6000613696603283614010565b91506136a182614754565b604082019050919050565b60006136b9601483614010565b91506136c4826147a3565b602082019050919050565b60006136dc602383614010565b91506136e7826147cc565b604082019050919050565b60006136ff602a83614010565b915061370a8261481b565b604082019050919050565b6000613722600583614021565b915061372d8261486a565b600582019050919050565b6000613745602083614010565b915061375082614893565b602082019050919050565b6000613768602f83614010565b9150613773826148bc565b604082019050919050565b600061378b602383614010565b91506137968261490b565b604082019050919050565b60006137ae601f83614010565b91506137b98261495a565b602082019050919050565b60006137d1602a83614010565b91506137dc82614983565b604082019050919050565b60006137f4602983614010565b91506137ff826149d2565b604082019050919050565b6000613817602983614010565b915061382282614a21565b604082019050919050565b600061383a602883614010565b915061384582614a70565b604082019050919050565b600061385d602183614010565b915061386882614abf565b604082019050919050565b61387c816141ab565b82525050565b61388b816141ab565b82525050565b6138a261389d826141ab565b6142fe565b82525050565b60006138b482846134ac565b915081905092915050565b60006138cb82856134ac565b91506138d7828461347b565b91506138e282613715565b91508190509392505050565b60006138fa8287613891565b60208201915061390a82866132d7565b60148201915061391a8285613891565b60208201915061392a8284613891565b60208201915081905095945050505050565b600060208201905061395160008301846132c8565b92915050565b600060a08201905061396c60008301886132c8565b61397960208301876132c8565b818103604083015261398b818661339c565b9050818103606083015261399f818561339c565b905081810360808301526139b38184613409565b90509695505050505050565b600060a0820190506139d460008301886132c8565b6139e160208301876132c8565b6139ee6040830186613882565b6139fb6060830185613882565b8181036080830152613a0d8184613409565b90509695505050505050565b6000604082019050613a2e60008301856132c8565b613a3b6020830184613882565b9392505050565b6000606082019050613a5760008301846132ee565b92915050565b600060a082019050613a726000830184613345565b92915050565b60006020820190508181036000830152613a92818461339c565b905092915050565b60006040820190508181036000830152613ab4818561339c565b90508181036020830152613ac8818461339c565b90509392505050565b6000602082019050613ae660008301846133fa565b92915050565b60006020820190508181036000830152613b068184613442565b905092915050565b60006040820190508181036000830152613b288185613442565b9050613b376020830184613882565b9392505050565b60006020820190508181036000830152613b578161352b565b9050919050565b60006020820190508181036000830152613b778161354e565b9050919050565b60006020820190508181036000830152613b9781613571565b9050919050565b60006020820190508181036000830152613bb781613594565b9050919050565b60006020820190508181036000830152613bd7816135b7565b9050919050565b60006020820190508181036000830152613bf7816135da565b9050919050565b60006020820190508181036000830152613c17816135fd565b9050919050565b60006020820190508181036000830152613c3781613620565b9050919050565b60006020820190508181036000830152613c5781613643565b9050919050565b60006020820190508181036000830152613c7781613666565b9050919050565b60006020820190508181036000830152613c9781613689565b9050919050565b60006020820190508181036000830152613cb7816136ac565b9050919050565b60006020820190508181036000830152613cd7816136cf565b9050919050565b60006020820190508181036000830152613cf7816136f2565b9050919050565b60006020820190508181036000830152613d1781613738565b9050919050565b60006020820190508181036000830152613d378161375b565b9050919050565b60006020820190508181036000830152613d578161377e565b9050919050565b60006020820190508181036000830152613d77816137a1565b9050919050565b60006020820190508181036000830152613d97816137c4565b9050919050565b60006020820190508181036000830152613db7816137e7565b9050919050565b60006020820190508181036000830152613dd78161380a565b9050919050565b60006020820190508181036000830152613df78161382d565b9050919050565b60006020820190508181036000830152613e1781613850565b9050919050565b6000602082019050613e336000830184613882565b92915050565b6000604082019050613e4e6000830185613882565b613e5b6020830184613882565b9392505050565b6000613e6c613e7d565b9050613e788282614236565b919050565b6000604051905090565b600067ffffffffffffffff821115613ea257613ea16143f5565b5b602082029050602081019050919050565b600067ffffffffffffffff821115613ece57613ecd6143f5565b5b602082029050602081019050919050565b600067ffffffffffffffff821115613efa57613ef96143f5565b5b613f038261445f565b9050602081019050919050565b600067ffffffffffffffff821115613f2b57613f2a6143f5565b5b613f348261445f565b9050602081019050919050565b6000819050919050565b6000819050919050565b6000819050602082019050919050565b60008190508160005260206000209050919050565b600060039050919050565b600060059050919050565b600081519050919050565b600081519050919050565b600081519050919050565b6000602082019050919050565b6000602082019050919050565b6000602082019050919050565b600081905092915050565b600081905092915050565b600082825260208201905092915050565b600082825260208201905092915050565b600082825260208201905092915050565b600081905092915050565b6000614037826141ab565b9150614042836141ab565b9250827fffffffffffffffffffffffffffffffffffffffffffffffffffffffffffffffff0382111561407757614076614339565b5b828201905092915050565b600061408d826141ab565b9150614098836141ab565b9250826140a8576140a7614368565b5b828204905092915050565b60006140be826141ab565b91506140c9836141ab565b9250817fffffffffffffffffffffffffffffffffffffffffffffffffffffffffffffffff048311821515161561410257614101614339565b5b828202905092915050565b6000614118826141ab565b9150614123836141ab565b92508282101561413657614135614339565b5b828203905092915050565b600061414c8261418b565b9050919050565b60008115159050919050565b60007fffffffff0000000000000000000000000000000000000000000000000000000082169050919050565b600073ffffffffffffffffffffffffffffffffffffffff82169050919050565b6000819050919050565b600060ff82169050919050565b82818337600083830152505050565b60005b838110156141ef5780820151818401526020810190506141d4565b838111156141fe576000848401525b50505050565b6000600282049050600182168061421c57607f821691505b602082108114156142305761422f614397565b5b50919050565b61423f8261445f565b810181811067ffffffffffffffff8211171561425e5761425d6143f5565b5b80604052505050565b6000614272826141ab565b91507fffffffffffffffffffffffffffffffffffffffffffffffffffffffffffffffff8214156142a5576142a4614339565b5b600182019050919050565b60006142bb826141b5565b915060ff8214156142cf576142ce614339565b5b600182019050919050565b60006142e5826142ec565b9050919050565b60006142f782614470565b9050919050565b6000819050919050565b6000614313826141ab565b915061431e836141ab565b92508261432e5761432d614368565b5b828206905092915050565b7f4e487b7100000000000000000000000000000000000000000000000000000000600052601160045260246000fd5b7f4e487b7100000000000000000000000000000000000000000000000000000000600052601260045260246000fd5b7f4e487b7100000000000000000000000000000000000000000000000000000000600052602260045260246000fd5b7f4e487b7100000000000000000000000000000000000000000000000000000000600052603260045260246000fd5b7f4e487b7100000000000000000000000000000000000000000000000000000000600052604160045260246000fd5b600060033d11156144435760046000803e61444060005161447d565b90505b90565b600080fd5b600080fd5b600080fd5b600080fd5b600080fd5b6000601f19601f8301169050919050565b60008160601b9050919050565b60008160e01c9050919050565b7f455243313135353a207472616e7366657220746f206e6f6e204552433131353560008201527f526563656976657220696d706c656d656e746572000000000000000000000000602082015250565b7f455243313135353a204552433131353552656365697665722072656a6563746560008201527f6420746f6b656e73000000000000000000000000000000000000000000000000602082015250565b7f4e6f2072656d61696e696e6720626f6f73746572207061636b73210000000000600082015250565b7f455243313135353a2062616c616e636520717565727920666f7220746865207a60008201527f65726f2061646472657373000000000000000000000000000000000000000000602082015250565b7f4f776e61626c653a206e6577206f776e657220697320746865207a65726f206160008201527f6464726573730000000000000000000000000000000000000000000000000000602082015250565b7f455243313135353a206275726e20616d6f756e7420657863656564732062616c60008201527f616e636500000000000000000000000000000000000000000000000000000000602082015250565b7f455243313135353a2063616c6c6572206973206e6f74206f776e6572206e6f7260008201527f20617070726f7665640000000000000000000000000000000000000000000000602082015250565b7f416c6c206f662074686973206174686c657465206861766520616c726561647960008201527f206265656e206d696e7465642100000000000000000000000000000000000000602082015250565b7f5374617274696e6720696e64657820697320616c726561647920736574000000600082015250565b7f455243313135353a207472616e7366657220746f20746865207a65726f20616460008201527f6472657373000000000000000000000000000000000000000000000000000000602082015250565b7f455243313135353a207472616e736665722063616c6c6572206973206e6f742060008201527f6f776e6572206e6f7220617070726f7665640000000000000000000000000000602082015250565b7f43616e6e6f742073657420757269207477696365000000000000000000000000600082015250565b7f455243313135353a206275726e2066726f6d20746865207a65726f206164647260008201527f6573730000000000000000000000000000000000000000000000000000000000602082015250565b7f455243313135353a20696e73756666696369656e742062616c616e636520666f60008201527f72207472616e7366657200000000000000000000000000000000000000000000602082015250565b7f2e6a736f6e000000000000000000000000000000000000000000000000000000600082015250565b7f4f776e61626c653a2063616c6c6572206973206e6f7420746865206f776e6572600082015250565b7f5061636b2068617320616c7265616479206265656e206275726e6564206f722060008201527f646f6573206e6f742065786973742e0000000000000000000000000000000000602082015250565b7f416c6c207061636b73206861766520616c7265616479206265656e206d696e7460008201527f6564210000000000000000000000000000000000000000000000000000000000602082015250565b7f5061636b73206172656e277420726561647920746f206f70656e207965742100600082015250565b7f43616e206f6e6c79206d696e74206f6e652073746172746572207061636b207060008201527f6572206163636f756e7400000000000000000000000000000000000000000000602082015250565b7f455243313135353a2073657474696e6720617070726f76616c2073746174757360008201527f20666f722073656c660000000000000000000000000000000000000000000000602082015250565b7f455243313135353a206163636f756e747320616e6420696473206c656e67746860008201527f206d69736d617463680000000000000000000000000000000000000000000000602082015250565b7f455243313135353a2069647320616e6420616d6f756e7473206c656e6774682060008201527f6d69736d61746368000000000000000000000000000000000000000000000000602082015250565b7f455243313135353a206d696e7420746f20746865207a65726f2061646472657360008201527f7300000000000000000000000000000000000000000000000000000000000000602082015250565b600060443d1015614b1e57614ba1565b614b26613e7d565b60043d036004823e80513d602482011167ffffffffffffffff82111715614b4e575050614ba1565b808201805167ffffffffffffffff811115614b6c5750505050614ba1565b80602083010160043d038501811115614b89575050505050614ba1565b614b9882602001850186614236565b82955050505050505b90565b614bad81614141565b8114614bb857600080fd5b50565b614bc481614153565b8114614bcf57600080fd5b50565b614bdb8161415f565b8114614be657600080fd5b50565b614bf2816141ab565b8114614bfd57600080fd5b5056fea26469706673582212208933bc44cd6bd0f6723c88800c54eecf136097c6384d05b2955b694f436f388c64736f6c63430008070033",
  "linkReferences": {},
  "deployedLinkReferences": {}
}