{
  "_format": "hh-sol-artifact-1",
  "contractName": "GameItems",
  "sourceName": "contracts/GameItems.sol",
  "abi": [
    {
      "inputs": [
        {
          "components": [
            {
              "internalType": "uint256",
              "name": "_numAthletes",
              "type": "uint256"
            },
            {
              "internalType": "uint256",
              "name": "_nftPerAthlete",
              "type": "uint256"
            },
            {
              "internalType": "uint256",
              "name": "_starterPackSize",
              "type": "uint256"
            },
            {
              "internalType": "uint256",
              "name": "_boosterPackSize",
              "type": "uint256"
            },
            {
              "internalType": "uint256",
              "name": "_maxStarterPackBalance",
              "type": "uint256"
            },
            {
              "internalType": "uint256",
              "name": "_maxBoosterPackBalance",
              "type": "uint256"
            },
            {
              "internalType": "uint256",
              "name": "_maxPacks",
              "type": "uint256"
            },
            {
              "internalType": "uint256",
              "name": "_revealTimestamp",
              "type": "uint256"
            }
          ],
          "internalType": "struct GameItems.Parameters",
          "name": "params",
          "type": "tuple"
        },
        {
          "internalType": "string",
          "name": "_athleteURI",
          "type": "string"
        },
        {
          "internalType": "string",
          "name": "_starterPackURI",
          "type": "string"
        },
        {
          "internalType": "string",
          "name": "_boosterPackURI",
          "type": "string"
        }
      ],
      "stateMutability": "nonpayable",
      "type": "constructor"
    },
    {
      "anonymous": false,
      "inputs": [
        {
          "indexed": true,
          "internalType": "address",
          "name": "account",
          "type": "address"
        },
        {
          "indexed": true,
          "internalType": "address",
          "name": "operator",
          "type": "address"
        },
        {
          "indexed": false,
          "internalType": "bool",
          "name": "approved",
          "type": "bool"
        }
      ],
      "name": "ApprovalForAll",
      "type": "event"
    },
    {
      "anonymous": false,
      "inputs": [
        {
          "indexed": true,
          "internalType": "address",
          "name": "previousOwner",
          "type": "address"
        },
        {
          "indexed": true,
          "internalType": "address",
          "name": "newOwner",
          "type": "address"
        }
      ],
      "name": "OwnershipTransferred",
      "type": "event"
    },
    {
      "anonymous": false,
      "inputs": [
        {
          "indexed": true,
          "internalType": "address",
          "name": "operator",
          "type": "address"
        },
        {
          "indexed": true,
          "internalType": "address",
          "name": "from",
          "type": "address"
        },
        {
          "indexed": true,
          "internalType": "address",
          "name": "to",
          "type": "address"
        },
        {
          "indexed": false,
          "internalType": "uint256[]",
          "name": "ids",
          "type": "uint256[]"
        },
        {
          "indexed": false,
          "internalType": "uint256[]",
          "name": "values",
          "type": "uint256[]"
        }
      ],
      "name": "TransferBatch",
      "type": "event"
    },
    {
      "anonymous": false,
      "inputs": [
        {
          "indexed": true,
          "internalType": "address",
          "name": "operator",
          "type": "address"
        },
        {
          "indexed": true,
          "internalType": "address",
          "name": "from",
          "type": "address"
        },
        {
          "indexed": true,
          "internalType": "address",
          "name": "to",
          "type": "address"
        },
        {
          "indexed": false,
          "internalType": "uint256",
          "name": "id",
          "type": "uint256"
        },
        {
          "indexed": false,
          "internalType": "uint256",
          "name": "value",
          "type": "uint256"
        }
      ],
      "name": "TransferSingle",
      "type": "event"
    },
    {
      "anonymous": false,
      "inputs": [
        {
          "indexed": false,
          "internalType": "string",
          "name": "value",
          "type": "string"
        },
        {
          "indexed": true,
          "internalType": "uint256",
          "name": "id",
          "type": "uint256"
        }
      ],
      "name": "URI",
      "type": "event"
    },
    {
      "anonymous": false,
      "inputs": [
        {
          "indexed": false,
          "internalType": "uint256[5]",
          "name": "",
          "type": "uint256[5]"
        },
        {
          "indexed": false,
          "internalType": "address",
          "name": "signer",
          "type": "address"
        }
      ],
      "name": "packBurned",
      "type": "event"
    },
    {
      "anonymous": false,
      "inputs": [
        {
          "indexed": false,
          "internalType": "address",
          "name": "signer",
          "type": "address"
        },
        {
          "indexed": false,
          "internalType": "uint256",
          "name": "id",
          "type": "uint256"
        }
      ],
      "name": "packMinted",
      "type": "event"
    },
    {
      "inputs": [],
      "name": "REVEAL_TIMESTAMP",
      "outputs": [
        {
          "internalType": "uint256",
          "name": "",
          "type": "uint256"
        }
      ],
      "stateMutability": "view",
      "type": "function"
    },
    {
      "inputs": [
        {
          "internalType": "address",
          "name": "account",
          "type": "address"
        },
        {
          "internalType": "uint256",
          "name": "id",
          "type": "uint256"
        }
      ],
      "name": "balanceOf",
      "outputs": [
        {
          "internalType": "uint256",
          "name": "",
          "type": "uint256"
        }
      ],
      "stateMutability": "view",
      "type": "function"
    },
    {
      "inputs": [
        {
          "internalType": "address[]",
          "name": "accounts",
          "type": "address[]"
        },
        {
          "internalType": "uint256[]",
          "name": "ids",
          "type": "uint256[]"
        }
      ],
      "name": "balanceOfBatch",
      "outputs": [
        {
          "internalType": "uint256[]",
          "name": "",
          "type": "uint256[]"
        }
      ],
      "stateMutability": "view",
      "type": "function"
    },
    {
      "inputs": [],
      "name": "burnBoosterPack",
      "outputs": [],
      "stateMutability": "nonpayable",
      "type": "function"
    },
    {
      "inputs": [],
      "name": "burnStarterPack",
      "outputs": [],
      "stateMutability": "nonpayable",
      "type": "function"
    },
    {
      "inputs": [],
      "name": "emergencySetStartingIndexBlock",
      "outputs": [],
      "stateMutability": "nonpayable",
      "type": "function"
    },
    {
      "inputs": [],
      "name": "generateBoosterPackIndices",
      "outputs": [
        {
          "internalType": "uint256[3]",
          "name": "",
          "type": "uint256[3]"
        }
      ],
      "stateMutability": "view",
      "type": "function"
    },
    {
      "inputs": [],
      "name": "generateStarterPackIndices",
      "outputs": [
        {
          "internalType": "uint256[5]",
          "name": "",
          "type": "uint256[5]"
        }
      ],
      "stateMutability": "view",
      "type": "function"
    },
    {
      "inputs": [],
      "name": "getNFTPerAthlete",
      "outputs": [
        {
          "internalType": "uint256",
          "name": "",
          "type": "uint256"
        }
      ],
      "stateMutability": "view",
      "type": "function"
    },
    {
      "inputs": [
        {
          "internalType": "address",
          "name": "account",
          "type": "address"
        },
        {
          "internalType": "address",
          "name": "operator",
          "type": "address"
        }
      ],
      "name": "isApprovedForAll",
      "outputs": [
        {
          "internalType": "bool",
          "name": "",
          "type": "bool"
        }
      ],
      "stateMutability": "view",
      "type": "function"
    },
    {
      "inputs": [],
      "name": "mintBoosterPack",
      "outputs": [],
      "stateMutability": "nonpayable",
      "type": "function"
    },
    {
      "inputs": [],
      "name": "mintStarterPack",
      "outputs": [],
      "stateMutability": "nonpayable",
      "type": "function"
    },
    {
      "inputs": [],
      "name": "owner",
      "outputs": [
        {
          "internalType": "address",
          "name": "",
          "type": "address"
        }
      ],
      "stateMutability": "view",
      "type": "function"
    },
    {
      "inputs": [],
      "name": "packsAvailable",
      "outputs": [
        {
          "internalType": "uint256",
          "name": "",
          "type": "uint256"
        }
      ],
      "stateMutability": "view",
      "type": "function"
    },
    {
      "inputs": [],
      "name": "packsReadyToOpen",
      "outputs": [
        {
          "internalType": "bool",
          "name": "",
          "type": "bool"
        }
      ],
      "stateMutability": "view",
      "type": "function"
    },
    {
      "inputs": [],
      "name": "renounceOwnership",
      "outputs": [],
      "stateMutability": "nonpayable",
      "type": "function"
    },
    {
      "inputs": [
        {
          "internalType": "address",
          "name": "from",
          "type": "address"
        },
        {
          "internalType": "address",
          "name": "to",
          "type": "address"
        },
        {
          "internalType": "uint256[]",
          "name": "ids",
          "type": "uint256[]"
        },
        {
          "internalType": "uint256[]",
          "name": "amounts",
          "type": "uint256[]"
        },
        {
          "internalType": "bytes",
          "name": "data",
          "type": "bytes"
        }
      ],
      "name": "safeBatchTransferFrom",
      "outputs": [],
      "stateMutability": "nonpayable",
      "type": "function"
    },
    {
      "inputs": [
        {
          "internalType": "address",
          "name": "from",
          "type": "address"
        },
        {
          "internalType": "address",
          "name": "to",
          "type": "address"
        },
        {
          "internalType": "uint256",
          "name": "id",
          "type": "uint256"
        },
        {
          "internalType": "uint256",
          "name": "amount",
          "type": "uint256"
        },
        {
          "internalType": "bytes",
          "name": "data",
          "type": "bytes"
        }
      ],
      "name": "safeTransferFrom",
      "outputs": [],
      "stateMutability": "nonpayable",
      "type": "function"
    },
    {
      "inputs": [
        {
          "internalType": "address",
          "name": "operator",
          "type": "address"
        },
        {
          "internalType": "bool",
          "name": "approved",
          "type": "bool"
        }
      ],
      "name": "setApprovalForAll",
      "outputs": [],
      "stateMutability": "nonpayable",
      "type": "function"
    },
    {
      "inputs": [],
      "name": "setPacksReady",
      "outputs": [],
      "stateMutability": "nonpayable",
      "type": "function"
    },
    {
      "inputs": [
        {
          "internalType": "string",
          "name": "provenanceHash",
          "type": "string"
        }
      ],
      "name": "setProvenanceHash",
      "outputs": [],
      "stateMutability": "nonpayable",
      "type": "function"
    },
    {
      "inputs": [],
      "name": "setStartingIndex",
      "outputs": [],
      "stateMutability": "nonpayable",
      "type": "function"
    },
    {
      "inputs": [
        {
          "internalType": "uint256",
          "name": "tokenId",
          "type": "uint256"
        },
        {
          "internalType": "string",
          "name": "uri",
          "type": "string"
        }
      ],
      "name": "setTokenUri",
      "outputs": [],
      "stateMutability": "nonpayable",
      "type": "function"
    },
    {
      "inputs": [],
      "name": "setURIs",
      "outputs": [],
      "stateMutability": "nonpayable",
      "type": "function"
    },
    {
      "inputs": [
        {
          "internalType": "bytes4",
          "name": "interfaceId",
          "type": "bytes4"
        }
      ],
      "name": "supportsInterface",
      "outputs": [
        {
          "internalType": "bool",
          "name": "",
          "type": "bool"
        }
      ],
      "stateMutability": "view",
      "type": "function"
    },
    {
      "inputs": [
        {
          "internalType": "address",
          "name": "newOwner",
          "type": "address"
        }
      ],
      "name": "transferOwnership",
      "outputs": [],
      "stateMutability": "nonpayable",
      "type": "function"
    },
    {
      "inputs": [
        {
          "internalType": "uint256",
          "name": "tokenId",
          "type": "uint256"
        }
      ],
      "name": "uri",
      "outputs": [
        {
          "internalType": "string",
          "name": "",
          "type": "string"
        }
      ],
      "stateMutability": "view",
      "type": "function"
    }
  ],
  "bytecode": "0x6080604052612710600f556001601060006101000a81548160ff021916908315150217905550600c5460115560115460125560405180602001604052806000815250601890805190602001906200005892919062000385565b503480156200006657600080fd5b506040516200532d3803806200532d83398181016040528101906200008c9190620005a9565b60405180602001604052806000815250620000ad81620001cf60201b60201c565b50620000ce620000c2620001eb60201b60201c565b620001f360201b60201c565b620001196040518060400160405280601281526020017f4d616b696e6720636f6e74726163742e2e2e0000000000000000000000000000815250620002b960201b6200168d1760201c565b8360000151600c819055508360200151600d819055508360400151600781905550836060015160088190555083608001516009819055508360a00151600a819055508360c00151600b8190555082600490805190602001906200017e92919062000385565b5081600590805190602001906200019792919062000385565b508060069080519060200190620001b092919062000385565b508360e00151600f81905550600b5460218190555050505050620008aa565b8060029080519060200190620001e792919062000385565b5050565b600033905090565b6000600360009054906101000a900473ffffffffffffffffffffffffffffffffffffffff16905081600360006101000a81548173ffffffffffffffffffffffffffffffffffffffff021916908373ffffffffffffffffffffffffffffffffffffffff1602179055508173ffffffffffffffffffffffffffffffffffffffff168173ffffffffffffffffffffffffffffffffffffffff167f8be0079c531659141344cd1fd0a4f28419497f9722a3daafe3b4186f6b6457e060405160405180910390a35050565b6200035981604051602401620002d09190620006bd565b6040516020818303038152906040527f41304fac000000000000000000000000000000000000000000000000000000007bffffffffffffffffffffffffffffffffffffffffffffffffffffffff19166020820180517bffffffffffffffffffffffffffffffffffffffffffffffffffffffff83818316178352505050506200035c60201b60201c565b50565b60008151905060006a636f6e736f6c652e6c6f679050602083016000808483855afa5050505050565b82805462000393906200079c565b90600052602060002090601f016020900481019282620003b7576000855562000403565b82601f10620003d257805160ff191683800117855562000403565b8280016001018555821562000403579182015b8281111562000402578251825591602001919060010190620003e5565b5b50905062000412919062000416565b5090565b5b808211156200043157600081600090555060010162000417565b5090565b60006200044c62000446846200070a565b620006e1565b9050828152602081018484840111156200046b576200046a62000870565b5b6200047884828562000766565b509392505050565b600082601f83011262000498576200049762000866565b5b8151620004aa84826020860162000435565b91505092915050565b60006101008284031215620004cd57620004cc6200086b565b5b620004da610100620006e1565b90506000620004ec8482850162000592565b6000830152506020620005028482850162000592565b6020830152506040620005188482850162000592565b60408301525060606200052e8482850162000592565b6060830152506080620005448482850162000592565b60808301525060a06200055a8482850162000592565b60a08301525060c0620005708482850162000592565b60c08301525060e0620005868482850162000592565b60e08301525092915050565b600081519050620005a38162000890565b92915050565b6000806000806101608587031215620005c757620005c66200087a565b5b6000620005d787828801620004b3565b94505061010085015167ffffffffffffffff811115620005fc57620005fb62000875565b5b6200060a8782880162000480565b93505061012085015167ffffffffffffffff8111156200062f576200062e62000875565b5b6200063d8782880162000480565b92505061014085015167ffffffffffffffff81111562000662576200066162000875565b5b620006708782880162000480565b91505092959194509250565b6000620006898262000740565b6200069581856200074b565b9350620006a781856020860162000766565b620006b2816200087f565b840191505092915050565b60006020820190508181036000830152620006d981846200067c565b905092915050565b6000620006ed62000700565b9050620006fb8282620007d2565b919050565b6000604051905090565b600067ffffffffffffffff82111562000728576200072762000837565b5b62000733826200087f565b9050602081019050919050565b600081519050919050565b600082825260208201905092915050565b6000819050919050565b60005b838110156200078657808201518184015260208101905062000769565b8381111562000796576000848401525b50505050565b60006002820490506001821680620007b557607f821691505b60208210811415620007cc57620007cb62000808565b5b50919050565b620007dd826200087f565b810181811067ffffffffffffffff82111715620007ff57620007fe62000837565b5b80604052505050565b7f4e487b7100000000000000000000000000000000000000000000000000000000600052602260045260246000fd5b7f4e487b7100000000000000000000000000000000000000000000000000000000600052604160045260246000fd5b600080fd5b600080fd5b600080fd5b600080fd5b600080fd5b6000601f19601f8301169050919050565b6200089b816200075c565b8114620008a757600080fd5b50565b614a7380620008ba6000396000f3fe608060405234801561001057600080fd5b50600436106101a85760003560e01c80635d2db2bf116100f9578063bbb13e1711610097578063e985e9c511610071578063e985e9c5146103ff578063e98665501461042f578063f242432a14610439578063f2fde38b14610455576101a8565b8063bbb13e17146103b9578063be59ec26146103c3578063d759000b146103e1576101a8565b80637d17fcbe116100d35780637d17fcbe1461036b5780638da5cb5b146103755780639ebf488b14610393578063a22cb4651461039d576101a8565b80635d2db2bf1461034d578063715018a61461035757806375223f9214610361576101a8565b8063166d5d30116101665780632eb2c2d6116101405780632eb2c2d6146102db5780634e1273f4146102f75780634f3551d71461032757806357f7789e14610331576101a8565b8063166d5d301461029557806318e20a38146102b357806319b60439146102d1576101a8565b8062fdd58e146101ad57806301ffc9a7146101dd5780630e89341c1461020d578063109695231461023d57806313dc2db214610259578063143cc14414610277575b600080fd5b6101c760048036038101906101c29190612f91565b610471565b6040516101d49190613caa565b60405180910390f35b6101f760048036038101906101f29190613049565b61053a565b60405161020491906139ad565b60405180910390f35b610227600480360381019061022291906130ec565b61061c565b60405161023491906139c8565b60405180910390f35b610257600480360381019061025291906130a3565b6106c1565b005b610261610757565b60405161026e9190613910565b60405180910390f35b61027f61083b565b60405161028c9190613caa565b60405180910390f35b61029d6108c1565b6040516102aa91906138f5565b60405180910390f35b6102bb6109d5565b6040516102c89190613caa565b60405180910390f35b6102d96109db565b005b6102f560048036038101906102f09190612deb565b610a83565b005b610311600480360381019061030c9190612fd1565b610b24565b60405161031e9190613954565b60405180910390f35b61032f610c3d565b005b61034b60048036038101906103469190613119565b610d46565b005b610355610e50565b005b61035f610fb3565b005b61036961103b565b005b61037361113b565b005b61037d611205565b60405161038a91906137ef565b60405180910390f35b61039b61122f565b005b6103b760048036038101906103b29190612f51565b6112be565b005b6103c16112d4565b005b6103cb611370565b6040516103d891906139ad565b60405180910390f35b6103e9611383565b6040516103f69190613caa565b60405180910390f35b61041960048036038101906104149190612dab565b611389565b60405161042691906139ad565b60405180910390f35b61043761141d565b005b610453600480360381019061044e9190612eba565b6114f4565b005b61046f600480360381019061046a9190612d7e565b611595565b005b60008073ffffffffffffffffffffffffffffffffffffffff168373ffffffffffffffffffffffffffffffffffffffff1614156104e2576040517f08c379a00000000000000000000000000000000000000000000000000000000081526004016104d990613a4a565b60405180910390fd5b60008083815260200190815260200160002060008473ffffffffffffffffffffffffffffffffffffffff1673ffffffffffffffffffffffffffffffffffffffff16815260200190815260200160002054905092915050565b60007fd9b67a26000000000000000000000000000000000000000000000000000000007bffffffffffffffffffffffffffffffffffffffffffffffffffffffff1916827bffffffffffffffffffffffffffffffffffffffffffffffffffffffff1916148061060557507f0e89341c000000000000000000000000000000000000000000000000000000007bffffffffffffffffffffffffffffffffffffffffffffffffffffffff1916827bffffffffffffffffffffffffffffffffffffffffffffffffffffffff1916145b80610615575061061482611726565b5b9050919050565b606060226000838152602001908152602001600020805461063c90614090565b80601f016020809104026020016040519081016040528092919081815260200182805461066890614090565b80156106b55780601f1061068a576101008083540402835291602001916106b5565b820191906000526020600020905b81548152906001019060200180831161069857829003601f168201915b50505050509050919050565b6106c9611790565b73ffffffffffffffffffffffffffffffffffffffff166106e7611205565b73ffffffffffffffffffffffffffffffffffffffff161461073d576040517f08c379a000000000000000000000000000000000000000000000000000000000815260040161073490613baa565b60405180910390fd5b8060189080519060200190610753929190612a12565b5050565b61075f612a98565b610767612a98565b60005b6005811015610833576000600a826107829190613f3f565b905060006009600a846107959190613f3f565b61079f9190613eb8565b905081600183836107b09190613f99565b6107ba9190613eb8565b423344876013546040516020016107d5959493929190613790565b6040516020818303038152906040528051906020012060001c6107f89190614194565b6108029190613eb8565b84846005811061081557610814614252565b5b6020020181815250505050808061082b906140f3565b91505061076a565b508091505090565b6000610845611790565b73ffffffffffffffffffffffffffffffffffffffff16610863611205565b73ffffffffffffffffffffffffffffffffffffffff16146108b9576040517f08c379a00000000000000000000000000000000000000000000000000000000081526004016108b090613baa565b60405180910390fd5b600d54905090565b6108c9612aba565b6108d1612aba565b60006005436108e09190614194565b905060005b60038110156109cc576005826108fb9190614194565b91506000600a8361090c9190613f3f565b905060006009600a8561091f9190613f3f565b6109299190613eb8565b9050816001838361093a9190613f99565b6109449190613eb8565b4233448760145460405160200161095f959493929190613790565b6040516020818303038152906040528051906020012060001c6109829190614194565b61098c9190613eb8565b85846003811061099f5761099e614252565b5b6020020181815250506001846109b59190613eb8565b9350505080806109c4906140f3565b9150506108e5565b50819250505090565b600f5481565b6109e3611790565b73ffffffffffffffffffffffffffffffffffffffff16610a01611205565b73ffffffffffffffffffffffffffffffffffffffff1614610a57576040517f08c379a0000000000000000000000000000000000000000000000000000000008152600401610a4e90613baa565b60405180910390fd5b601060009054906101000a900460ff1615601060006101000a81548160ff021916908315150217905550565b610a8b611790565b73ffffffffffffffffffffffffffffffffffffffff168573ffffffffffffffffffffffffffffffffffffffff161480610ad15750610ad085610acb611790565b611389565b5b610b10576040517f08c379a0000000000000000000000000000000000000000000000000000000008152600401610b0790613b2a565b60405180910390fd5b610b1d8585858585611798565b5050505050565b60608151835114610b6a576040517f08c379a0000000000000000000000000000000000000000000000000000000008152600401610b6190613c4a565b60405180910390fd5b6000835167ffffffffffffffff811115610b8757610b86614281565b5b604051908082528060200260200182016040528015610bb55781602001602082028036833780820191505090505b50905060005b8451811015610c3257610c02858281518110610bda57610bd9614252565b5b6020026020010151858381518110610bf557610bf4614252565b5b6020026020010151610471565b828281518110610c1557610c14614252565b5b60200260200101818152505080610c2b906140f3565b9050610bbb565b508091505092915050565b600b5460145410610c83576040517f08c379a0000000000000000000000000000000000000000000000000000000008152600401610c7a90613bca565b60405180910390fd5b6002610c9133601254610471565b10610cd1576040517f08c379a0000000000000000000000000000000000000000000000000000000008152600401610cc890613bea565b60405180910390fd5b610cef33601254600160405180602001604052806000815250611aac565b600160146000828254610d029190613eb8565b925050819055507f2e0f4d63dcc00e6a11c8aef9f6e15c1f9cd6e9a090b2dd99c7b797f1a28d300d33601454604051610d3c9291906138cc565b60405180910390a1565b610d4e611790565b73ffffffffffffffffffffffffffffffffffffffff16610d6c611205565b73ffffffffffffffffffffffffffffffffffffffff1614610dc2576040517f08c379a0000000000000000000000000000000000000000000000000000000008152600401610db990613baa565b60405180910390fd5b6000602260008481526020019081526020016000208054610de290614090565b905014610e24576040517f08c379a0000000000000000000000000000000000000000000000000000000008152600401610e1b90613b4a565b60405180910390fd5b80602260008481526020019081526020016000209080519060200190610e4b929190612a12565b505050565b610e58611790565b73ffffffffffffffffffffffffffffffffffffffff16610e76611205565b73ffffffffffffffffffffffffffffffffffffffff1614610ecc576040517f08c379a0000000000000000000000000000000000000000000000000000000008152600401610ec390613baa565b60405180910390fd5b60005b600c54811015610f40576000600c5482601754610eec9190613eb8565b610ef69190614194565b9050610f2c816004610f0784611c42565b604051602001610f18929190613761565b604051602081830303815290604052610d46565b508080610f38906140f3565b915050610ecf565b50610f796001600c54610f539190613eb8565b6005604051602001610f65919061374a565b604051602081830303815290604052610d46565b610fb16002600c54610f8b9190613eb8565b6006604051602001610f9d919061374a565b604051602081830303815290604052610d46565b565b610fbb611790565b73ffffffffffffffffffffffffffffffffffffffff16610fd9611205565b73ffffffffffffffffffffffffffffffffffffffff161461102f576040517f08c379a000000000000000000000000000000000000000000000000000000000815260040161102690613baa565b60405180910390fd5b6110396000611da3565b565b601060009054906101000a900460ff1661108a576040517f08c379a000000000000000000000000000000000000000000000000000000000815260040161108190613c0a565b60405180910390fd5b600061109833601254610471565b116110d8576040517f08c379a00000000000000000000000000000000000000000000000000000000081526004016110cf90613a2a565b60405180910390fd5b60006110e26108c1565b905060005b60038160ff16101561112957611116828260ff166003811061110c5761110b614252565b5b6020020151611e69565b80806111219061413c565b9150506110e7565b50611138336012546001611f64565b50565b611143611790565b73ffffffffffffffffffffffffffffffffffffffff16611161611205565b73ffffffffffffffffffffffffffffffffffffffff16146111b7576040517f08c379a00000000000000000000000000000000000000000000000000000000081526004016111ae90613baa565b60405180910390fd5b6000601754146111fc576040517f08c379a00000000000000000000000000000000000000000000000000000000081526004016111f390613aea565b60405180910390fd5b43601681905550565b6000600360009054906101000a900473ffffffffffffffffffffffffffffffffffffffff16905090565b61124d33601154600160405180602001604052806000815250611aac565b6001601360008282546112609190613eb8565b9250508190555060016021600082825461127a9190613f99565b925050819055507f2e0f4d63dcc00e6a11c8aef9f6e15c1f9cd6e9a090b2dd99c7b797f1a28d300d336013546040516112b49291906138cc565b60405180910390a1565b6112d06112c9611790565b8383612181565b5050565b60006112de610757565b905060005b60058160ff16101561132557611312828260ff166005811061130857611307614252565b5b6020020151611e69565b808061131d9061413c565b9150506112e3565b507f15abe0b63b201b70614c230381f0fabc4a26a1957629948558095a11db1d6fb5813360405161135792919061392b565b60405180910390a161136d336011546001611f64565b50565b601060009054906101000a900460ff1681565b60215481565b6000600160008473ffffffffffffffffffffffffffffffffffffffff1673ffffffffffffffffffffffffffffffffffffffff16815260200190815260200160002060008373ffffffffffffffffffffffffffffffffffffffff1673ffffffffffffffffffffffffffffffffffffffff16815260200190815260200160002060009054906101000a900460ff16905092915050565b611425611790565b73ffffffffffffffffffffffffffffffffffffffff16611443611205565b73ffffffffffffffffffffffffffffffffffffffff1614611499576040517f08c379a000000000000000000000000000000000000000000000000000000000815260040161149090613baa565b60405180910390fd5b600d54600c546114a99190613f3f565b6001436114b69190613f99565b4060001c6114c49190614194565b601781905550600060175414156114f2576114eb60016017546122ee90919063ffffffff16565b6017819055505b565b6114fc611790565b73ffffffffffffffffffffffffffffffffffffffff168573ffffffffffffffffffffffffffffffffffffffff16148061154257506115418561153c611790565b611389565b5b611581576040517f08c379a000000000000000000000000000000000000000000000000000000000815260040161157890613aaa565b60405180910390fd5b61158e8585858585612304565b5050505050565b61159d611790565b73ffffffffffffffffffffffffffffffffffffffff166115bb611205565b73ffffffffffffffffffffffffffffffffffffffff1614611611576040517f08c379a000000000000000000000000000000000000000000000000000000000815260040161160890613baa565b60405180910390fd5b600073ffffffffffffffffffffffffffffffffffffffff168173ffffffffffffffffffffffffffffffffffffffff161415611681576040517f08c379a000000000000000000000000000000000000000000000000000000000815260040161167890613a6a565b60405180910390fd5b61168a81611da3565b50565b611723816040516024016116a191906139c8565b6040516020818303038152906040527f41304fac000000000000000000000000000000000000000000000000000000007bffffffffffffffffffffffffffffffffffffffffffffffffffffffff19166020820180517bffffffffffffffffffffffffffffffffffffffffffffffffffffffff8381831617835250505050612586565b50565b60007f01ffc9a7000000000000000000000000000000000000000000000000000000007bffffffffffffffffffffffffffffffffffffffffffffffffffffffff1916827bffffffffffffffffffffffffffffffffffffffffffffffffffffffff1916149050919050565b600033905090565b81518351146117dc576040517f08c379a00000000000000000000000000000000000000000000000000000000081526004016117d390613c6a565b60405180910390fd5b600073ffffffffffffffffffffffffffffffffffffffff168473ffffffffffffffffffffffffffffffffffffffff16141561184c576040517f08c379a000000000000000000000000000000000000000000000000000000000815260040161184390613b0a565b60405180910390fd5b6000611856611790565b90506118668187878787876125af565b60005b8451811015611a1757600085828151811061188757611886614252565b5b6020026020010151905060008583815181106118a6576118a5614252565b5b60200260200101519050600080600084815260200190815260200160002060008b73ffffffffffffffffffffffffffffffffffffffff1673ffffffffffffffffffffffffffffffffffffffff16815260200190815260200160002054905081811015611947576040517f08c379a000000000000000000000000000000000000000000000000000000000815260040161193e90613b8a565b60405180910390fd5b81810360008085815260200190815260200160002060008c73ffffffffffffffffffffffffffffffffffffffff1673ffffffffffffffffffffffffffffffffffffffff168152602001908152602001600020819055508160008085815260200190815260200160002060008b73ffffffffffffffffffffffffffffffffffffffff1673ffffffffffffffffffffffffffffffffffffffff16815260200190815260200160002060008282546119fc9190613eb8565b9250508190555050505080611a10906140f3565b9050611869565b508473ffffffffffffffffffffffffffffffffffffffff168673ffffffffffffffffffffffffffffffffffffffff168273ffffffffffffffffffffffffffffffffffffffff167f4a39dc06d4c0dbc64b70af90fd698a233a518aa5d07e595d983b8c0526c8f7fb8787604051611a8e929190613976565b60405180910390a4611aa48187878787876125b7565b505050505050565b600073ffffffffffffffffffffffffffffffffffffffff168473ffffffffffffffffffffffffffffffffffffffff161415611b1c576040517f08c379a0000000000000000000000000000000000000000000000000000000008152600401611b1390613c8a565b60405180910390fd5b6000611b26611790565b9050611b4781600087611b388861279e565b611b418861279e565b876125af565b8260008086815260200190815260200160002060008773ffffffffffffffffffffffffffffffffffffffff1673ffffffffffffffffffffffffffffffffffffffff1681526020019081526020016000206000828254611ba69190613eb8565b925050819055508473ffffffffffffffffffffffffffffffffffffffff16600073ffffffffffffffffffffffffffffffffffffffff168273ffffffffffffffffffffffffffffffffffffffff167fc3d58168c5ae7397731d063d5bbf3d657854427343f4c083240f7aacaa2d0f628787604051611c24929190613cc5565b60405180910390a4611c3b81600087878787612818565b5050505050565b60606000821415611c8a576040518060400160405280600181526020017f30000000000000000000000000000000000000000000000000000000000000008152509050611d9e565b600082905060005b60008214611cbc578080611ca5906140f3565b915050600a82611cb59190613f0e565b9150611c92565b60008167ffffffffffffffff811115611cd857611cd7614281565b5b6040519080825280601f01601f191660200182016040528015611d0a5781602001600182028036833780820191505090505b5090505b60008514611d9757600182611d239190613f99565b9150600a85611d329190614194565b6030611d3e9190613eb8565b60f81b818381518110611d5457611d53614252565b5b60200101907effffffffffffffffffffffffffffffffffffffffffffffffffffffffffffff1916908160001a905350600a85611d909190613f0e565b9450611d0e565b8093505050505b919050565b6000600360009054906101000a900473ffffffffffffffffffffffffffffffffffffffff16905081600360006101000a81548173ffffffffffffffffffffffffffffffffffffffff021916908373ffffffffffffffffffffffffffffffffffffffff1602179055508173ffffffffffffffffffffffffffffffffffffffff168173ffffffffffffffffffffffffffffffffffffffff167f8be0079c531659141344cd1fd0a4f28419497f9722a3daafe3b4186f6b6457e060405160405180910390a35050565b600d54600c54611e799190613f3f565b6015541015611f6157600d54602360008381526020019081526020016000205410611ed9576040517f08c379a0000000000000000000000000000000000000000000000000000000008152600401611ed090613aca565b60405180910390fd5b611f1b338260016040518060400160405280600481526020017f3078303000000000000000000000000000000000000000000000000000000000815250611aac565b6001602360008381526020019081526020016000206000828254611f3f9190613eb8565b92505081905550600160156000828254611f599190613eb8565b925050819055505b50565b600073ffffffffffffffffffffffffffffffffffffffff168373ffffffffffffffffffffffffffffffffffffffff161415611fd4576040517f08c379a0000000000000000000000000000000000000000000000000000000008152600401611fcb90613b6a565b60405180910390fd5b6000611fde611790565b905061200e81856000611ff08761279e565b611ff98761279e565b604051806020016040528060008152506125af565b600080600085815260200190815260200160002060008673ffffffffffffffffffffffffffffffffffffffff1673ffffffffffffffffffffffffffffffffffffffff168152602001908152602001600020549050828110156120a5576040517f08c379a000000000000000000000000000000000000000000000000000000000815260040161209c90613a8a565b60405180910390fd5b82810360008086815260200190815260200160002060008773ffffffffffffffffffffffffffffffffffffffff1673ffffffffffffffffffffffffffffffffffffffff16815260200190815260200160002081905550600073ffffffffffffffffffffffffffffffffffffffff168573ffffffffffffffffffffffffffffffffffffffff168373ffffffffffffffffffffffffffffffffffffffff167fc3d58168c5ae7397731d063d5bbf3d657854427343f4c083240f7aacaa2d0f628787604051612172929190613cc5565b60405180910390a45050505050565b8173ffffffffffffffffffffffffffffffffffffffff168373ffffffffffffffffffffffffffffffffffffffff1614156121f0576040517f08c379a00000000000000000000000000000000000000000000000000000000081526004016121e790613c2a565b60405180910390fd5b80600160008573ffffffffffffffffffffffffffffffffffffffff1673ffffffffffffffffffffffffffffffffffffffff16815260200190815260200160002060008473ffffffffffffffffffffffffffffffffffffffff1673ffffffffffffffffffffffffffffffffffffffff16815260200190815260200160002060006101000a81548160ff0219169083151502179055508173ffffffffffffffffffffffffffffffffffffffff168373ffffffffffffffffffffffffffffffffffffffff167f17307eab39ab6107e8899845ad3d59bd9653f200f220920489ca2b5937696c31836040516122e191906139ad565b60405180910390a3505050565b600081836122fc9190613eb8565b905092915050565b600073ffffffffffffffffffffffffffffffffffffffff168473ffffffffffffffffffffffffffffffffffffffff161415612374576040517f08c379a000000000000000000000000000000000000000000000000000000000815260040161236b90613b0a565b60405180910390fd5b600061237e611790565b905061239e81878761238f8861279e565b6123988861279e565b876125af565b600080600086815260200190815260200160002060008873ffffffffffffffffffffffffffffffffffffffff1673ffffffffffffffffffffffffffffffffffffffff16815260200190815260200160002054905083811015612435576040517f08c379a000000000000000000000000000000000000000000000000000000000815260040161242c90613b8a565b60405180910390fd5b83810360008087815260200190815260200160002060008973ffffffffffffffffffffffffffffffffffffffff1673ffffffffffffffffffffffffffffffffffffffff168152602001908152602001600020819055508360008087815260200190815260200160002060008873ffffffffffffffffffffffffffffffffffffffff1673ffffffffffffffffffffffffffffffffffffffff16815260200190815260200160002060008282546124ea9190613eb8565b925050819055508573ffffffffffffffffffffffffffffffffffffffff168773ffffffffffffffffffffffffffffffffffffffff168373ffffffffffffffffffffffffffffffffffffffff167fc3d58168c5ae7397731d063d5bbf3d657854427343f4c083240f7aacaa2d0f628888604051612567929190613cc5565b60405180910390a461257d828888888888612818565b50505050505050565b60008151905060006a636f6e736f6c652e6c6f679050602083016000808483855afa5050505050565b505050505050565b6125d68473ffffffffffffffffffffffffffffffffffffffff166129ff565b15612796578373ffffffffffffffffffffffffffffffffffffffff1663bc197c8187878686866040518663ffffffff1660e01b815260040161261c95949392919061380a565b602060405180830381600087803b15801561263657600080fd5b505af192505050801561266757506040513d601f19601f820116820180604052508101906126649190613076565b60015b61270d576126736142b0565b806308c379a014156126d0575061268861494b565b8061269357506126d2565b806040517f08c379a00000000000000000000000000000000000000000000000000000000081526004016126c791906139c8565b60405180910390fd5b505b6040517f08c379a0000000000000000000000000000000000000000000000000000000008152600401612704906139ea565b60405180910390fd5b63bc197c8160e01b7bffffffffffffffffffffffffffffffffffffffffffffffffffffffff1916817bffffffffffffffffffffffffffffffffffffffffffffffffffffffff191614612794576040517f08c379a000000000000000000000000000000000000000000000000000000000815260040161278b90613a0a565b60405180910390fd5b505b505050505050565b60606000600167ffffffffffffffff8111156127bd576127bc614281565b5b6040519080825280602002602001820160405280156127eb5781602001602082028036833780820191505090505b509050828160008151811061280357612802614252565b5b60200260200101818152505080915050919050565b6128378473ffffffffffffffffffffffffffffffffffffffff166129ff565b156129f7578373ffffffffffffffffffffffffffffffffffffffff1663f23a6e6187878686866040518663ffffffff1660e01b815260040161287d959493929190613872565b602060405180830381600087803b15801561289757600080fd5b505af19250505080156128c857506040513d601f19601f820116820180604052508101906128c59190613076565b60015b61296e576128d46142b0565b806308c379a0141561293157506128e961494b565b806128f45750612933565b806040517f08c379a000000000000000000000000000000000000000000000000000000000815260040161292891906139c8565b60405180910390fd5b505b6040517f08c379a0000000000000000000000000000000000000000000000000000000008152600401612965906139ea565b60405180910390fd5b63f23a6e6160e01b7bffffffffffffffffffffffffffffffffffffffffffffffffffffffff1916817bffffffffffffffffffffffffffffffffffffffffffffffffffffffff1916146129f5576040517f08c379a00000000000000000000000000000000000000000000000000000000081526004016129ec90613a0a565b60405180910390fd5b505b505050505050565b600080823b905060008111915050919050565b828054612a1e90614090565b90600052602060002090601f016020900481019282612a405760008555612a87565b82601f10612a5957805160ff1916838001178555612a87565b82800160010185558215612a87579182015b82811115612a86578251825591602001919060010190612a6b565b5b509050612a949190612adc565b5090565b6040518060a00160405280600590602082028036833780820191505090505090565b6040518060600160405280600390602082028036833780820191505090505090565b5b80821115612af5576000816000905550600101612add565b5090565b6000612b0c612b0784613d13565b613cee565b90508083825260208201905082856020860282011115612b2f57612b2e6142d7565b5b60005b85811015612b5f5781612b458882612c5d565b845260208401935060208301925050600181019050612b32565b5050509392505050565b6000612b7c612b7784613d3f565b613cee565b90508083825260208201905082856020860282011115612b9f57612b9e6142d7565b5b60005b85811015612bcf5781612bb58882612d69565b845260208401935060208301925050600181019050612ba2565b5050509392505050565b6000612bec612be784613d6b565b613cee565b905082815260208101848484011115612c0857612c076142dc565b5b612c1384828561404e565b509392505050565b6000612c2e612c2984613d9c565b613cee565b905082815260208101848484011115612c4a57612c496142dc565b5b612c5584828561404e565b509392505050565b600081359050612c6c816149e1565b92915050565b600082601f830112612c8757612c866142d2565b5b8135612c97848260208601612af9565b91505092915050565b600082601f830112612cb557612cb46142d2565b5b8135612cc5848260208601612b69565b91505092915050565b600081359050612cdd816149f8565b92915050565b600081359050612cf281614a0f565b92915050565b600081519050612d0781614a0f565b92915050565b600082601f830112612d2257612d216142d2565b5b8135612d32848260208601612bd9565b91505092915050565b600082601f830112612d5057612d4f6142d2565b5b8135612d60848260208601612c1b565b91505092915050565b600081359050612d7881614a26565b92915050565b600060208284031215612d9457612d936142e6565b5b6000612da284828501612c5d565b91505092915050565b60008060408385031215612dc257612dc16142e6565b5b6000612dd085828601612c5d565b9250506020612de185828601612c5d565b9150509250929050565b600080600080600060a08688031215612e0757612e066142e6565b5b6000612e1588828901612c5d565b9550506020612e2688828901612c5d565b945050604086013567ffffffffffffffff811115612e4757612e466142e1565b5b612e5388828901612ca0565b935050606086013567ffffffffffffffff811115612e7457612e736142e1565b5b612e8088828901612ca0565b925050608086013567ffffffffffffffff811115612ea157612ea06142e1565b5b612ead88828901612d0d565b9150509295509295909350565b600080600080600060a08688031215612ed657612ed56142e6565b5b6000612ee488828901612c5d565b9550506020612ef588828901612c5d565b9450506040612f0688828901612d69565b9350506060612f1788828901612d69565b925050608086013567ffffffffffffffff811115612f3857612f376142e1565b5b612f4488828901612d0d565b9150509295509295909350565b60008060408385031215612f6857612f676142e6565b5b6000612f7685828601612c5d565b9250506020612f8785828601612cce565b9150509250929050565b60008060408385031215612fa857612fa76142e6565b5b6000612fb685828601612c5d565b9250506020612fc785828601612d69565b9150509250929050565b60008060408385031215612fe857612fe76142e6565b5b600083013567ffffffffffffffff811115613006576130056142e1565b5b61301285828601612c72565b925050602083013567ffffffffffffffff811115613033576130326142e1565b5b61303f85828601612ca0565b9150509250929050565b60006020828403121561305f5761305e6142e6565b5b600061306d84828501612ce3565b91505092915050565b60006020828403121561308c5761308b6142e6565b5b600061309a84828501612cf8565b91505092915050565b6000602082840312156130b9576130b86142e6565b5b600082013567ffffffffffffffff8111156130d7576130d66142e1565b5b6130e384828501612d3b565b91505092915050565b600060208284031215613102576131016142e6565b5b600061311084828501612d69565b91505092915050565b600080604083850312156131305761312f6142e6565b5b600061313e85828601612d69565b925050602083013567ffffffffffffffff81111561315f5761315e6142e1565b5b61316b85828601612d3b565b9150509250929050565b60006131818383613715565b60208301905092915050565b61319681613fcd565b82525050565b6131ad6131a882613fcd565b614166565b82525050565b6131bc81613e06565b6131c68184613e64565b92506131d182613dcd565b8060005b838110156132025781516131e98782613175565b96506131f483613e3d565b9250506001810190506131d5565b505050505050565b61321381613e11565b61321d8184613e6f565b925061322882613dd7565b8060005b838110156132595781516132408782613175565b965061324b83613e4a565b92505060018101905061322c565b505050505050565b600061326c82613e1c565b6132768185613e7a565b935061328183613de1565b8060005b838110156132b25781516132998882613175565b97506132a483613e57565b925050600181019050613285565b5085935050505092915050565b6132c881613fdf565b82525050565b60006132d982613e27565b6132e38185613e8b565b93506132f381856020860161405d565b6132fc816142eb565b840191505092915050565b600061331282613e32565b61331c8185613e9c565b935061332c81856020860161405d565b613335816142eb565b840191505092915050565b600061334b82613e32565b6133558185613ead565b935061336581856020860161405d565b80840191505092915050565b6000815461337e81614090565b6133888186613ead565b945060018216600081146133a357600181146133b4576133e7565b60ff198316865281860193506133e7565b6133bd85613df1565b60005b838110156133df578154818901526001820191506020810190506133c0565b838801955050505b50505092915050565b60006133fd603483613e9c565b915061340882614316565b604082019050919050565b6000613420602883613e9c565b915061342b82614365565b604082019050919050565b6000613443601b83613e9c565b915061344e826143b4565b602082019050919050565b6000613466602b83613e9c565b9150613471826143dd565b604082019050919050565b6000613489602683613e9c565b91506134948261442c565b604082019050919050565b60006134ac602483613e9c565b91506134b78261447b565b604082019050919050565b60006134cf602983613e9c565b91506134da826144ca565b604082019050919050565b60006134f2602d83613e9c565b91506134fd82614519565b604082019050919050565b6000613515601d83613e9c565b915061352082614568565b602082019050919050565b6000613538602583613e9c565b915061354382614591565b604082019050919050565b600061355b603283613e9c565b9150613566826145e0565b604082019050919050565b600061357e601483613e9c565b91506135898261462f565b602082019050919050565b60006135a1602383613e9c565b91506135ac82614658565b604082019050919050565b60006135c4602a83613e9c565b91506135cf826146a7565b604082019050919050565b60006135e7600583613ead565b91506135f2826146f6565b600582019050919050565b600061360a602083613e9c565b91506136158261471f565b602082019050919050565b600061362d602383613e9c565b915061363882614748565b604082019050919050565b6000613650602b83613e9c565b915061365b82614797565b604082019050919050565b6000613673601f83613e9c565b915061367e826147e6565b602082019050919050565b6000613696602983613e9c565b91506136a18261480f565b604082019050919050565b60006136b9602983613e9c565b91506136c48261485e565b604082019050919050565b60006136dc602883613e9c565b91506136e7826148ad565b604082019050919050565b60006136ff602183613e9c565b915061370a826148fc565b604082019050919050565b61371e81614037565b82525050565b61372d81614037565b82525050565b61374461373f82614037565b61418a565b82525050565b60006137568284613371565b915081905092915050565b600061376d8285613371565b91506137798284613340565b9150613784826135da565b91508190509392505050565b600061379c8288613733565b6020820191506137ac828761319c565b6014820191506137bc8286613733565b6020820191506137cc8285613733565b6020820191506137dc8284613733565b6020820191508190509695505050505050565b6000602082019050613804600083018461318d565b92915050565b600060a08201905061381f600083018861318d565b61382c602083018761318d565b818103604083015261383e8186613261565b905081810360608301526138528185613261565b9050818103608083015261386681846132ce565b90509695505050505050565b600060a082019050613887600083018861318d565b613894602083018761318d565b6138a16040830186613724565b6138ae6060830185613724565b81810360808301526138c081846132ce565b90509695505050505050565b60006040820190506138e1600083018561318d565b6138ee6020830184613724565b9392505050565b600060608201905061390a60008301846131b3565b92915050565b600060a082019050613925600083018461320a565b92915050565b600060c082019050613940600083018561320a565b61394d60a083018461318d565b9392505050565b6000602082019050818103600083015261396e8184613261565b905092915050565b600060408201905081810360008301526139908185613261565b905081810360208301526139a48184613261565b90509392505050565b60006020820190506139c260008301846132bf565b92915050565b600060208201905081810360008301526139e28184613307565b905092915050565b60006020820190508181036000830152613a03816133f0565b9050919050565b60006020820190508181036000830152613a2381613413565b9050919050565b60006020820190508181036000830152613a4381613436565b9050919050565b60006020820190508181036000830152613a6381613459565b9050919050565b60006020820190508181036000830152613a838161347c565b9050919050565b60006020820190508181036000830152613aa38161349f565b9050919050565b60006020820190508181036000830152613ac3816134c2565b9050919050565b60006020820190508181036000830152613ae3816134e5565b9050919050565b60006020820190508181036000830152613b0381613508565b9050919050565b60006020820190508181036000830152613b238161352b565b9050919050565b60006020820190508181036000830152613b438161354e565b9050919050565b60006020820190508181036000830152613b6381613571565b9050919050565b60006020820190508181036000830152613b8381613594565b9050919050565b60006020820190508181036000830152613ba3816135b7565b9050919050565b60006020820190508181036000830152613bc3816135fd565b9050919050565b60006020820190508181036000830152613be381613620565b9050919050565b60006020820190508181036000830152613c0381613643565b9050919050565b60006020820190508181036000830152613c2381613666565b9050919050565b60006020820190508181036000830152613c4381613689565b9050919050565b60006020820190508181036000830152613c63816136ac565b9050919050565b60006020820190508181036000830152613c83816136cf565b9050919050565b60006020820190508181036000830152613ca3816136f2565b9050919050565b6000602082019050613cbf6000830184613724565b92915050565b6000604082019050613cda6000830185613724565b613ce76020830184613724565b9392505050565b6000613cf8613d09565b9050613d0482826140c2565b919050565b6000604051905090565b600067ffffffffffffffff821115613d2e57613d2d614281565b5b602082029050602081019050919050565b600067ffffffffffffffff821115613d5a57613d59614281565b5b602082029050602081019050919050565b600067ffffffffffffffff821115613d8657613d85614281565b5b613d8f826142eb565b9050602081019050919050565b600067ffffffffffffffff821115613db757613db6614281565b5b613dc0826142eb565b9050602081019050919050565b6000819050919050565b6000819050919050565b6000819050602082019050919050565b60008190508160005260206000209050919050565b600060039050919050565b600060059050919050565b600081519050919050565b600081519050919050565b600081519050919050565b6000602082019050919050565b6000602082019050919050565b6000602082019050919050565b600081905092915050565b600081905092915050565b600082825260208201905092915050565b600082825260208201905092915050565b600082825260208201905092915050565b600081905092915050565b6000613ec382614037565b9150613ece83614037565b9250827fffffffffffffffffffffffffffffffffffffffffffffffffffffffffffffffff03821115613f0357613f026141c5565b5b828201905092915050565b6000613f1982614037565b9150613f2483614037565b925082613f3457613f336141f4565b5b828204905092915050565b6000613f4a82614037565b9150613f5583614037565b9250817fffffffffffffffffffffffffffffffffffffffffffffffffffffffffffffffff0483118215151615613f8e57613f8d6141c5565b5b828202905092915050565b6000613fa482614037565b9150613faf83614037565b925082821015613fc257613fc16141c5565b5b828203905092915050565b6000613fd882614017565b9050919050565b60008115159050919050565b60007fffffffff0000000000000000000000000000000000000000000000000000000082169050919050565b600073ffffffffffffffffffffffffffffffffffffffff82169050919050565b6000819050919050565b600060ff82169050919050565b82818337600083830152505050565b60005b8381101561407b578082015181840152602081019050614060565b8381111561408a576000848401525b50505050565b600060028204905060018216806140a857607f821691505b602082108114156140bc576140bb614223565b5b50919050565b6140cb826142eb565b810181811067ffffffffffffffff821117156140ea576140e9614281565b5b80604052505050565b60006140fe82614037565b91507fffffffffffffffffffffffffffffffffffffffffffffffffffffffffffffffff821415614131576141306141c5565b5b600182019050919050565b600061414782614041565b915060ff82141561415b5761415a6141c5565b5b600182019050919050565b600061417182614178565b9050919050565b6000614183826142fc565b9050919050565b6000819050919050565b600061419f82614037565b91506141aa83614037565b9250826141ba576141b96141f4565b5b828206905092915050565b7f4e487b7100000000000000000000000000000000000000000000000000000000600052601160045260246000fd5b7f4e487b7100000000000000000000000000000000000000000000000000000000600052601260045260246000fd5b7f4e487b7100000000000000000000000000000000000000000000000000000000600052602260045260246000fd5b7f4e487b7100000000000000000000000000000000000000000000000000000000600052603260045260246000fd5b7f4e487b7100000000000000000000000000000000000000000000000000000000600052604160045260246000fd5b600060033d11156142cf5760046000803e6142cc600051614309565b90505b90565b600080fd5b600080fd5b600080fd5b600080fd5b600080fd5b6000601f19601f8301169050919050565b60008160601b9050919050565b60008160e01c9050919050565b7f455243313135353a207472616e7366657220746f206e6f6e204552433131353560008201527f526563656976657220696d706c656d656e746572000000000000000000000000602082015250565b7f455243313135353a204552433131353552656365697665722072656a6563746560008201527f6420746f6b656e73000000000000000000000000000000000000000000000000602082015250565b7f4e6f2072656d61696e696e6720626f6f73746572207061636b73210000000000600082015250565b7f455243313135353a2062616c616e636520717565727920666f7220746865207a60008201527f65726f2061646472657373000000000000000000000000000000000000000000602082015250565b7f4f776e61626c653a206e6577206f776e657220697320746865207a65726f206160008201527f6464726573730000000000000000000000000000000000000000000000000000602082015250565b7f455243313135353a206275726e20616d6f756e7420657863656564732062616c60008201527f616e636500000000000000000000000000000000000000000000000000000000602082015250565b7f455243313135353a2063616c6c6572206973206e6f74206f776e6572206e6f7260008201527f20617070726f7665640000000000000000000000000000000000000000000000602082015250565b7f416c6c206f662074686973206174686c657465206861766520616c726561647960008201527f206265656e206d696e7465642100000000000000000000000000000000000000602082015250565b7f5374617274696e6720696e64657820697320616c726561647920736574000000600082015250565b7f455243313135353a207472616e7366657220746f20746865207a65726f20616460008201527f6472657373000000000000000000000000000000000000000000000000000000602082015250565b7f455243313135353a207472616e736665722063616c6c6572206973206e6f742060008201527f6f776e6572206e6f7220617070726f7665640000000000000000000000000000602082015250565b7f43616e6e6f742073657420757269207477696365000000000000000000000000600082015250565b7f455243313135353a206275726e2066726f6d20746865207a65726f206164647260008201527f6573730000000000000000000000000000000000000000000000000000000000602082015250565b7f455243313135353a20696e73756666696369656e742062616c616e636520666f60008201527f72207472616e7366657200000000000000000000000000000000000000000000602082015250565b7f2e6a736f6e000000000000000000000000000000000000000000000000000000600082015250565b7f4f776e61626c653a2063616c6c6572206973206e6f7420746865206f776e6572600082015250565b7f416c6c207061636b73206861766520616c7265616479206265656e206d696e7460008201527f6564210000000000000000000000000000000000000000000000000000000000602082015250565b7f43616e206f6e6c79206d696e742074776f20626f6f73746572207061636b732060008201527f706572206163636f756e74000000000000000000000000000000000000000000602082015250565b7f5061636b73206172656e277420726561647920746f206f70656e207965742100600082015250565b7f455243313135353a2073657474696e6720617070726f76616c2073746174757360008201527f20666f722073656c660000000000000000000000000000000000000000000000602082015250565b7f455243313135353a206163636f756e747320616e6420696473206c656e67746860008201527f206d69736d617463680000000000000000000000000000000000000000000000602082015250565b7f455243313135353a2069647320616e6420616d6f756e7473206c656e6774682060008201527f6d69736d61746368000000000000000000000000000000000000000000000000602082015250565b7f455243313135353a206d696e7420746f20746865207a65726f2061646472657360008201527f7300000000000000000000000000000000000000000000000000000000000000602082015250565b600060443d101561495b576149de565b614963613d09565b60043d036004823e80513d602482011167ffffffffffffffff8211171561498b5750506149de565b808201805167ffffffffffffffff8111156149a957505050506149de565b80602083010160043d0385018111156149c65750505050506149de565b6149d5826020018501866140c2565b82955050505050505b90565b6149ea81613fcd565b81146149f557600080fd5b50565b614a0181613fdf565b8114614a0c57600080fd5b50565b614a1881613feb565b8114614a2357600080fd5b50565b614a2f81614037565b8114614a3a57600080fd5b5056fea2646970667358221220fc32b876cd77413b45a46d6d5a176fe7c89225ed595c0e2a43cad08645bc187564736f6c63430008070033",
  "linkReferences": {},
  "deployedLinkReferences": {}
}