{
    "_format": "hh-sol-artifact-1",
    "contractName": "GameItems",
    "sourceName": "contracts/GameItems.sol",
    "abi": [
        {
            "inputs": [
                {
                    "components": [
                        {
                            "internalType": "uint256",
                            "name": "_numAthletes",
                            "type": "uint256"
                        },
                        {
                            "internalType": "uint256",
                            "name": "_nftPerAthlete",
                            "type": "uint256"
                        },
                        {
                            "internalType": "uint256",
                            "name": "_starterPackSize",
                            "type": "uint256"
                        },
                        {
                            "internalType": "uint256",
                            "name": "_boosterPackSize",
                            "type": "uint256"
                        },
                        {
                            "internalType": "uint256",
                            "name": "_maxStarterPackBalance",
                            "type": "uint256"
                        },
                        {
                            "internalType": "uint256",
                            "name": "_maxBoosterPackBalance",
                            "type": "uint256"
                        },
                        {
                            "internalType": "uint256",
                            "name": "_maxPacks",
                            "type": "uint256"
                        },
                        {
                            "internalType": "uint256",
                            "name": "_maxBoosterPacks",
                            "type": "uint256"
                        }
                    ],
                    "internalType": "struct GameItems.Parameters",
                    "name": "params",
                    "type": "tuple"
                },
                {
                    "internalType": "string",
                    "name": "_athleteURI",
                    "type": "string"
                },
                {
                    "internalType": "string",
                    "name": "_starterPackURI",
                    "type": "string"
                },
                {
                    "internalType": "string",
                    "name": "_boosterPackURI",
                    "type": "string"
                }
            ],
            "stateMutability": "nonpayable",
            "type": "constructor"
        },
        {
            "anonymous": false,
            "inputs": [
                {
                    "indexed": true,
                    "internalType": "address",
                    "name": "account",
                    "type": "address"
                },
                {
                    "indexed": true,
                    "internalType": "address",
                    "name": "operator",
                    "type": "address"
                },
                {
                    "indexed": false,
                    "internalType": "bool",
                    "name": "approved",
                    "type": "bool"
                }
            ],
            "name": "ApprovalForAll",
            "type": "event"
        },
        {
            "anonymous": false,
            "inputs": [
                {
                    "indexed": true,
                    "internalType": "address",
                    "name": "previousOwner",
                    "type": "address"
                },
                {
                    "indexed": true,
                    "internalType": "address",
                    "name": "newOwner",
                    "type": "address"
                }
            ],
            "name": "OwnershipTransferred",
            "type": "event"
        },
        {
            "anonymous": false,
            "inputs": [
                {
                    "indexed": true,
                    "internalType": "address",
                    "name": "operator",
                    "type": "address"
                },
                {
                    "indexed": true,
                    "internalType": "address",
                    "name": "from",
                    "type": "address"
                },
                {
                    "indexed": true,
                    "internalType": "address",
                    "name": "to",
                    "type": "address"
                },
                {
                    "indexed": false,
                    "internalType": "uint256[]",
                    "name": "ids",
                    "type": "uint256[]"
                },
                {
                    "indexed": false,
                    "internalType": "uint256[]",
                    "name": "values",
                    "type": "uint256[]"
                }
            ],
            "name": "TransferBatch",
            "type": "event"
        },
        {
            "anonymous": false,
            "inputs": [
                {
                    "indexed": true,
                    "internalType": "address",
                    "name": "operator",
                    "type": "address"
                },
                {
                    "indexed": true,
                    "internalType": "address",
                    "name": "from",
                    "type": "address"
                },
                {
                    "indexed": true,
                    "internalType": "address",
                    "name": "to",
                    "type": "address"
                },
                {
                    "indexed": false,
                    "internalType": "uint256",
                    "name": "id",
                    "type": "uint256"
                },
                {
                    "indexed": false,
                    "internalType": "uint256",
                    "name": "value",
                    "type": "uint256"
                }
            ],
            "name": "TransferSingle",
            "type": "event"
        },
        {
            "anonymous": false,
            "inputs": [
                {
                    "indexed": false,
                    "internalType": "string",
                    "name": "value",
                    "type": "string"
                },
                {
                    "indexed": true,
                    "internalType": "uint256",
                    "name": "id",
                    "type": "uint256"
                }
            ],
            "name": "URI",
            "type": "event"
        },
        {
            "anonymous": false,
            "inputs": [
                {
                    "indexed": false,
                    "internalType": "uint256[3]",
                    "name": "",
                    "type": "uint256[3]"
                },
                {
                    "indexed": false,
                    "internalType": "address",
                    "name": "signer",
                    "type": "address"
                }
            ],
            "name": "boosterPackBurned",
            "type": "event"
        },
        {
            "anonymous": false,
            "inputs": [
                {
                    "indexed": false,
                    "internalType": "address",
                    "name": "signer",
                    "type": "address"
                },
                {
                    "indexed": false,
                    "internalType": "uint256",
                    "name": "id",
                    "type": "uint256"
                }
            ],
            "name": "boosterPackMinted",
            "type": "event"
        },
        {
            "anonymous": false,
            "inputs": [
                {
                    "indexed": false,
                    "internalType": "uint256[5]",
                    "name": "",
                    "type": "uint256[5]"
                },
                {
                    "indexed": false,
                    "internalType": "address",
                    "name": "signer",
                    "type": "address"
                }
            ],
            "name": "starterPackBurned",
            "type": "event"
        },
        {
            "anonymous": false,
            "inputs": [
                {
                    "indexed": false,
                    "internalType": "address",
                    "name": "signer",
                    "type": "address"
                },
                {
                    "indexed": false,
                    "internalType": "uint256",
                    "name": "id",
                    "type": "uint256"
                }
            ],
            "name": "starterPackMinted",
            "type": "event"
        },
        {
            "inputs": [
                {
                    "internalType": "address",
                    "name": "_userToAdd",
                    "type": "address"
                }
            ],
            "name": "addUserToWhitelist",
            "outputs": [
                {
                    "internalType": "bool",
                    "name": "success",
                    "type": "bool"
                }
            ],
            "stateMutability": "nonpayable",
            "type": "function"
        },
        {
            "inputs": [
                {
                    "internalType": "address[]",
                    "name": "addrs",
                    "type": "address[]"
                }
            ],
            "name": "addUsersToWhitelist",
            "outputs": [
                {
                    "internalType": "bool",
                    "name": "success",
                    "type": "bool"
                }
            ],
            "stateMutability": "nonpayable",
            "type": "function"
        },
        {
            "inputs": [],
            "name": "allowBoosterPacks",
            "outputs": [],
            "stateMutability": "nonpayable",
            "type": "function"
        },
        {
            "inputs": [],
            "name": "allowStarterPacks",
            "outputs": [],
            "stateMutability": "nonpayable",
            "type": "function"
        },
        {
            "inputs": [
                {
                    "internalType": "address",
                    "name": "account",
                    "type": "address"
                },
                {
                    "internalType": "uint256",
                    "name": "id",
                    "type": "uint256"
                }
            ],
            "name": "balanceOf",
            "outputs": [
                {
                    "internalType": "uint256",
                    "name": "",
                    "type": "uint256"
                }
            ],
            "stateMutability": "view",
            "type": "function"
        },
        {
            "inputs": [
                {
                    "internalType": "address[]",
                    "name": "accounts",
                    "type": "address[]"
                },
                {
                    "internalType": "uint256[]",
                    "name": "ids",
                    "type": "uint256[]"
                }
            ],
            "name": "balanceOfBatch",
            "outputs": [
                {
                    "internalType": "uint256[]",
                    "name": "",
                    "type": "uint256[]"
                }
            ],
            "stateMutability": "view",
            "type": "function"
        },
        {
            "inputs": [],
            "name": "boosterPacksMinted",
            "outputs": [
                {
                    "internalType": "uint256",
                    "name": "",
                    "type": "uint256"
                }
            ],
            "stateMutability": "view",
            "type": "function"
        },
        {
            "inputs": [],
            "name": "boosterPacksReadyToOpen",
            "outputs": [
                {
                    "internalType": "bool",
                    "name": "",
                    "type": "bool"
                }
            ],
            "stateMutability": "view",
            "type": "function"
        },
        {
            "inputs": [],
            "name": "burnBoosterPack",
            "outputs": [],
            "stateMutability": "nonpayable",
            "type": "function"
        },
        {
            "inputs": [],
            "name": "burnStarterPack",
            "outputs": [],
            "stateMutability": "nonpayable",
            "type": "function"
        },
        {
            "inputs": [],
            "name": "getNumWhitelisted",
            "outputs": [
                {
                    "internalType": "uint256",
                    "name": "",
                    "type": "uint256"
                }
            ],
            "stateMutability": "view",
            "type": "function"
        },
        {
            "inputs": [
                {
                    "internalType": "address",
                    "name": "account",
                    "type": "address"
                },
                {
                    "internalType": "address",
                    "name": "operator",
                    "type": "address"
                }
            ],
            "name": "isApprovedForAll",
            "outputs": [
                {
                    "internalType": "bool",
                    "name": "",
                    "type": "bool"
                }
            ],
            "stateMutability": "view",
            "type": "function"
        },
        {
            "inputs": [],
            "name": "isBoosterPackSalePhase",
            "outputs": [
                {
                    "internalType": "bool",
                    "name": "",
                    "type": "bool"
                }
            ],
            "stateMutability": "view",
            "type": "function"
        },
        {
            "inputs": [],
            "name": "isPresalePhase",
            "outputs": [
                {
                    "internalType": "bool",
                    "name": "",
                    "type": "bool"
                }
            ],
            "stateMutability": "view",
            "type": "function"
        },
        {
            "inputs": [],
            "name": "isPublicSalePhase",
            "outputs": [
                {
                    "internalType": "bool",
                    "name": "",
                    "type": "bool"
                }
            ],
            "stateMutability": "view",
            "type": "function"
        },
        {
            "inputs": [],
            "name": "mintBoosterPack",
            "outputs": [],
            "stateMutability": "nonpayable",
            "type": "function"
        },
        {
            "inputs": [],
            "name": "mintStarterPack",
            "outputs": [],
            "stateMutability": "nonpayable",
            "type": "function"
        },
        {
            "inputs": [],
            "name": "name",
            "outputs": [
                {
                    "internalType": "string",
                    "name": "",
                    "type": "string"
                }
            ],
            "stateMutability": "view",
            "type": "function"
        },
        {
            "inputs": [],
            "name": "numWhitelisted",
            "outputs": [
                {
                    "internalType": "uint256",
                    "name": "",
                    "type": "uint256"
                }
            ],
            "stateMutability": "view",
            "type": "function"
        },
        {
            "inputs": [],
            "name": "openBoosterPackSale",
            "outputs": [],
            "stateMutability": "nonpayable",
            "type": "function"
        },
        {
            "inputs": [],
            "name": "openPrivateSale",
            "outputs": [],
            "stateMutability": "nonpayable",
            "type": "function"
        },
        {
            "inputs": [],
            "name": "openPublicSale",
            "outputs": [],
            "stateMutability": "nonpayable",
            "type": "function"
        },
        {
            "inputs": [],
            "name": "owner",
            "outputs": [
                {
                    "internalType": "address",
                    "name": "",
                    "type": "address"
                }
            ],
            "stateMutability": "view",
            "type": "function"
        },
        {
            "inputs": [],
            "name": "packsAvailable",
            "outputs": [
                {
                    "internalType": "uint256",
                    "name": "",
                    "type": "uint256"
                }
            ],
            "stateMutability": "view",
            "type": "function"
        },
        {
            "inputs": [],
            "name": "packsReadyToOpen",
            "outputs": [
                {
                    "internalType": "bool",
                    "name": "",
                    "type": "bool"
                }
            ],
            "stateMutability": "view",
            "type": "function"
        },
        {
            "inputs": [],
            "name": "renounceOwnership",
            "outputs": [],
            "stateMutability": "nonpayable",
            "type": "function"
        },
        {
            "inputs": [
                {
                    "internalType": "address",
                    "name": "from",
                    "type": "address"
                },
                {
                    "internalType": "address",
                    "name": "to",
                    "type": "address"
                },
                {
                    "internalType": "uint256[]",
                    "name": "ids",
                    "type": "uint256[]"
                },
                {
                    "internalType": "uint256[]",
                    "name": "amounts",
                    "type": "uint256[]"
                },
                {
                    "internalType": "bytes",
                    "name": "data",
                    "type": "bytes"
                }
            ],
            "name": "safeBatchTransferFrom",
            "outputs": [],
            "stateMutability": "nonpayable",
            "type": "function"
        },
        {
            "inputs": [
                {
                    "internalType": "address",
                    "name": "from",
                    "type": "address"
                },
                {
                    "internalType": "address",
                    "name": "to",
                    "type": "address"
                },
                {
                    "internalType": "uint256",
                    "name": "id",
                    "type": "uint256"
                },
                {
                    "internalType": "uint256",
                    "name": "amount",
                    "type": "uint256"
                },
                {
                    "internalType": "bytes",
                    "name": "data",
                    "type": "bytes"
                }
            ],
            "name": "safeTransferFrom",
            "outputs": [],
            "stateMutability": "nonpayable",
            "type": "function"
        },
        {
            "inputs": [
                {
                    "internalType": "address",
                    "name": "operator",
                    "type": "address"
                },
                {
                    "internalType": "bool",
                    "name": "approved",
                    "type": "bool"
                }
            ],
            "name": "setApprovalForAll",
            "outputs": [],
            "stateMutability": "nonpayable",
            "type": "function"
        },
        {
            "inputs": [],
            "name": "setStartingIndex",
            "outputs": [],
            "stateMutability": "nonpayable",
            "type": "function"
        },
        {
            "inputs": [
                {
                    "internalType": "uint256",
                    "name": "tokenId",
                    "type": "uint256"
                },
                {
                    "internalType": "string",
                    "name": "uri",
                    "type": "string"
                }
            ],
            "name": "setTokenUri",
            "outputs": [],
            "stateMutability": "nonpayable",
            "type": "function"
        },
        {
            "inputs": [],
            "name": "setURIs",
            "outputs": [],
            "stateMutability": "nonpayable",
            "type": "function"
        },
        {
            "inputs": [],
            "name": "starterPacksMinted",
            "outputs": [
                {
                    "internalType": "uint256",
                    "name": "",
                    "type": "uint256"
                }
            ],
            "stateMutability": "view",
            "type": "function"
        },
        {
            "inputs": [
                {
                    "internalType": "bytes4",
                    "name": "interfaceId",
                    "type": "bytes4"
                }
            ],
            "name": "supportsInterface",
            "outputs": [
                {
                    "internalType": "bool",
                    "name": "",
                    "type": "bool"
                }
            ],
            "stateMutability": "view",
            "type": "function"
        },
        {
            "inputs": [
                {
                    "internalType": "address",
                    "name": "newOwner",
                    "type": "address"
                }
            ],
            "name": "transferOwnership",
            "outputs": [],
            "stateMutability": "nonpayable",
            "type": "function"
        },
        {
            "inputs": [
                {
                    "internalType": "uint256",
                    "name": "tokenId",
                    "type": "uint256"
                }
            ],
            "name": "uri",
            "outputs": [
                {
                    "internalType": "string",
                    "name": "",
                    "type": "string"
                }
            ],
            "stateMutability": "view",
            "type": "function"
        },
        {
            "inputs": [
                {
                    "internalType": "address",
                    "name": "",
                    "type": "address"
                }
            ],
            "name": "userToHasBurnedStarterPack",
            "outputs": [
                {
                    "internalType": "bool",
                    "name": "",
                    "type": "bool"
                }
            ],
            "stateMutability": "view",
            "type": "function"
        },
        {
            "inputs": [
                {
                    "internalType": "address",
                    "name": "",
                    "type": "address"
                }
            ],
            "name": "userToHasMintedStarterPack",
            "outputs": [
                {
                    "internalType": "bool",
                    "name": "",
                    "type": "bool"
                }
            ],
            "stateMutability": "view",
            "type": "function"
        },
        {
            "inputs": [
                {
                    "internalType": "address",
                    "name": "",
                    "type": "address"
                }
            ],
            "name": "usersBoosterPacksMinted",
            "outputs": [
                {
                    "internalType": "uint256",
                    "name": "",
                    "type": "uint256"
                }
            ],
            "stateMutability": "view",
            "type": "function"
        },
        {
            "inputs": [
                {
                    "internalType": "address",
                    "name": "",
                    "type": "address"
                }
            ],
            "name": "whitelist",
            "outputs": [
                {
                    "internalType": "bool",
                    "name": "",
                    "type": "bool"
                }
            ],
            "stateMutability": "view",
            "type": "function"
        }
    ],
    "bytecode": "0x60806040526040518060400160405280600881526020017f5465616d44696666000000000000000000000000000000000000000000000000815250600f908051906020019062000051929190620002b5565b50604051806020016040528060008152506016908051906020019062000079929190620002b5565b503480156200008757600080fd5b506040516200602c3803806200602c8339818101604052810190620000ad9190620004d9565b6040518060400160405280600281526020017f5444000000000000000000000000000000000000000000000000000000000000815250620000f481620001cb60201b60201c565b506200011562000109620001e760201b60201c565b620001ef60201b60201c565b8360000151600d819055508360200151600e819055508360400151600781905550836060015160088190555083608001516009819055508360a00151600a819055508360c00151600b819055508360e00151600c81905550826004908051906020019062000185929190620002b5565b5081600590805190602001906200019e929190620002b5565b508060069080519060200190620001b7929190620002b5565b50600b54601f819055505050505062000759565b8060029080519060200190620001e3929190620002b5565b5050565b600033905090565b6000600360009054906101000a900473ffffffffffffffffffffffffffffffffffffffff16905081600360006101000a81548173ffffffffffffffffffffffffffffffffffffffff021916908373ffffffffffffffffffffffffffffffffffffffff1602179055508173ffffffffffffffffffffffffffffffffffffffff168173ffffffffffffffffffffffffffffffffffffffff167f8be0079c531659141344cd1fd0a4f28419497f9722a3daafe3b4186f6b6457e060405160405180910390a35050565b828054620002c3906200064b565b90600052602060002090601f016020900481019282620002e7576000855562000333565b82601f106200030257805160ff191683800117855562000333565b8280016001018555821562000333579182015b828111156200033257825182559160200191906001019062000315565b5b50905062000342919062000346565b5090565b5b808211156200036157600081600090555060010162000347565b5090565b60006200037c6200037684620005d5565b620005ac565b9050828152602081018484840111156200039b576200039a6200071f565b5b620003a884828562000615565b509392505050565b600082601f830112620003c857620003c762000715565b5b8151620003da84826020860162000365565b91505092915050565b60006101008284031215620003fd57620003fc6200071a565b5b6200040a610100620005ac565b905060006200041c84828501620004c2565b60008301525060206200043284828501620004c2565b60208301525060406200044884828501620004c2565b60408301525060606200045e84828501620004c2565b60608301525060806200047484828501620004c2565b60808301525060a06200048a84828501620004c2565b60a08301525060c0620004a084828501620004c2565b60c08301525060e0620004b684828501620004c2565b60e08301525092915050565b600081519050620004d3816200073f565b92915050565b6000806000806101608587031215620004f757620004f662000729565b5b60006200050787828801620003e3565b94505061010085015167ffffffffffffffff8111156200052c576200052b62000724565b5b6200053a87828801620003b0565b93505061012085015167ffffffffffffffff8111156200055f576200055e62000724565b5b6200056d87828801620003b0565b92505061014085015167ffffffffffffffff81111562000592576200059162000724565b5b620005a087828801620003b0565b91505092959194509250565b6000620005b8620005cb565b9050620005c6828262000681565b919050565b6000604051905090565b600067ffffffffffffffff821115620005f357620005f2620006e6565b5b620005fe826200072e565b9050602081019050919050565b6000819050919050565b60005b838110156200063557808201518184015260208101905062000618565b8381111562000645576000848401525b50505050565b600060028204905060018216806200066457607f821691505b602082108114156200067b576200067a620006b7565b5b50919050565b6200068c826200072e565b810181811067ffffffffffffffff82111715620006ae57620006ad620006e6565b5b80604052505050565b7f4e487b7100000000000000000000000000000000000000000000000000000000600052602260045260246000fd5b7f4e487b7100000000000000000000000000000000000000000000000000000000600052604160045260246000fd5b600080fd5b600080fd5b600080fd5b600080fd5b600080fd5b6000601f19601f8301169050919050565b6200074a816200060b565b81146200075657600080fd5b50565b6158c380620007696000396000f3fe608060405234801561001057600080fd5b50600436106102475760003560e01c80638da5cb5b1161013b578063bbb13e17116100b8578063e2bd21bc1161007c578063e2bd21bc14610626578063e985e9c514610656578063e986655014610686578063f242432a14610690578063f2fde38b146106ac57610247565b8063bbb13e17146105a6578063be59ec26146105b0578063c54ec096146105ce578063cb6bfdb9146105d8578063d759000b1461060857610247565b8063a788f4f4116100ff578063a788f4f414610526578063ac4c07d414610544578063afb8fd2d14610574578063b1d8bb9c1461057e578063b585209b1461059c57610247565b80638da5cb5b146104a85780639b19251a146104c65780639ebf488b146104f6578063a22cb46514610500578063a6ad4c011461051c57610247565b80634e1273f4116101c95780635d2db2bf1161018d5780635d2db2bf1461043c57806367b2092e14610446578063715018a614610464578063747b80501461046e57806375223f921461049e57610247565b80634e1273f4146103985780634f3551d7146103c857806354dacb96146103d257806357f7789e146103f05780635ae698ff1461040c57610247565b80633526715d116102105780633526715d14610316578063379713aa146103345780633d118abf146103525780634190a9221461037057806344eaa84e1461037a57610247565b8062fdd58e1461024c57806301ffc9a71461027c57806306fdde03146102ac5780630e89341c146102ca5780632eb2c2d6146102fa575b600080fd5b61026660048036038101906102619190613a3c565b6106c8565b604051610273919061491d565b60405180910390f35b61029660048036038101906102919190613b3d565b610791565b6040516102a39190614540565b60405180910390f35b6102b4610873565b6040516102c1919061455b565b60405180910390f35b6102e460048036038101906102df9190613b97565b610901565b6040516102f1919061455b565b60405180910390f35b610314600480360381019061030f9190613896565b6109a6565b005b61031e610a47565b60405161032b919061491d565b60405180910390f35b61033c610a4d565b6040516103499190614540565b60405180910390f35b61035a610a60565b6040516103679190614540565b60405180910390f35b610378610a73565b005b610382610b0c565b60405161038f919061491d565b60405180910390f35b6103b260048036038101906103ad9190613ac5565b610b16565b6040516103bf91906144e7565b60405180910390f35b6103d0610c2f565b005b6103da610e22565b6040516103e7919061491d565b60405180910390f35b61040a60048036038101906104059190613bc4565b610e28565b005b61042660048036038101906104219190613a7c565b610f32565b6040516104339190614540565b60405180910390f35b610444611002565b005b61044e611159565b60405161045b9190614540565b60405180910390f35b61046c61116c565b005b61048860048036038101906104839190613829565b6111f4565b6040516104959190614540565b60405180910390f35b6104a661133f565b005b6104b0611488565b6040516104bd919061438f565b60405180910390f35b6104e060048036038101906104db9190613829565b6114b2565b6040516104ed9190614540565b60405180910390f35b6104fe6114d1565b005b61051a600480360381019061051591906139fc565b6117d8565b005b6105246117ee565b005b61052e611887565b60405161053b9190614540565b60405180910390f35b61055e60048036038101906105599190613829565b61189a565b60405161056b919061491d565b60405180910390f35b61057c6118b2565b005b61058661194b565b604051610593919061491d565b60405180910390f35b6105a4611951565b005b6105ae6119ea565b005b6105b8611c0c565b6040516105c59190614540565b60405180910390f35b6105d6611c1f565b005b6105f260048036038101906105ed9190613829565b611cb8565b6040516105ff9190614540565b60405180910390f35b610610611cd8565b60405161061d919061491d565b60405180910390f35b610640600480360381019061063b9190613829565b611cde565b60405161064d9190614540565b60405180910390f35b610670600480360381019061066b9190613856565b611cfe565b60405161067d9190614540565b60405180910390f35b61068e611d92565b005b6106aa60048036038101906106a59190613965565b611e69565b005b6106c660048036038101906106c19190613829565b611f0a565b005b60008073ffffffffffffffffffffffffffffffffffffffff168373ffffffffffffffffffffffffffffffffffffffff161415610739576040517f08c379a0000000000000000000000000000000000000000000000000000000008152600401610730906145dd565b60405180910390fd5b60008083815260200190815260200160002060008473ffffffffffffffffffffffffffffffffffffffff1673ffffffffffffffffffffffffffffffffffffffff16815260200190815260200160002054905092915050565b60007fd9b67a26000000000000000000000000000000000000000000000000000000007bffffffffffffffffffffffffffffffffffffffffffffffffffffffff1916827bffffffffffffffffffffffffffffffffffffffffffffffffffffffff1916148061085c57507f0e89341c000000000000000000000000000000000000000000000000000000007bffffffffffffffffffffffffffffffffffffffffffffffffffffffff1916827bffffffffffffffffffffffffffffffffffffffffffffffffffffffff1916145b8061086c575061086b82612002565b5b9050919050565b600f805461088090614d03565b80601f01602080910402602001604051908101604052809291908181526020018280546108ac90614d03565b80156108f95780601f106108ce576101008083540402835291602001916108f9565b820191906000526020600020905b8154815290600101906020018083116108dc57829003601f168201915b505050505081565b606060236000838152602001908152602001600020805461092190614d03565b80601f016020809104026020016040519081016040528092919081815260200182805461094d90614d03565b801561099a5780601f1061096f5761010080835404028352916020019161099a565b820191906000526020600020905b81548152906001019060200180831161097d57829003601f168201915b50505050509050919050565b6109ae61206c565b73ffffffffffffffffffffffffffffffffffffffff168573ffffffffffffffffffffffffffffffffffffffff1614806109f457506109f3856109ee61206c565b611cfe565b5b610a33576040517f08c379a0000000000000000000000000000000000000000000000000000000008152600401610a2a906146fd565b60405180910390fd5b610a408585858585612074565b5050505050565b60115481565b602260019054906101000a900460ff1681565b602260009054906101000a900460ff1681565b610a7b61206c565b73ffffffffffffffffffffffffffffffffffffffff16610a99611488565b73ffffffffffffffffffffffffffffffffffffffff1614610aef576040517f08c379a0000000000000000000000000000000000000000000000000000000008152600401610ae6906147bd565b60405180910390fd5b6001601060016101000a81548160ff021916908315150217905550565b6000602154905090565b60608151835114610b5c576040517f08c379a0000000000000000000000000000000000000000000000000000000008152600401610b539061489d565b60405180910390fd5b6000835167ffffffffffffffff811115610b7957610b78614ef4565b5b604051908082528060200260200182016040528015610ba75781602001602082028036833780820191505090505b50905060005b8451811015610c2457610bf4858281518110610bcc57610bcb614ec5565b5b6020026020010151858381518110610be757610be6614ec5565b5b60200260200101516106c8565b828281518110610c0757610c06614ec5565b5b60200260200101818152505080610c1d90614d66565b9050610bad565b508091505092915050565b602260029054906101000a900460ff16610c7e576040517f08c379a0000000000000000000000000000000000000000000000000000000008152600401610c759061473d565b60405180910390fd5b600c5460125410610cc4576040517f08c379a0000000000000000000000000000000000000000000000000000000008152600401610cbb9061469d565b60405180910390fd5b6002602760003373ffffffffffffffffffffffffffffffffffffffff1673ffffffffffffffffffffffffffffffffffffffff1681526020019081526020016000205410610d46576040517f08c379a0000000000000000000000000000000000000000000000000000000008152600401610d3d9061481d565b60405180910390fd5b602760003373ffffffffffffffffffffffffffffffffffffffff1673ffffffffffffffffffffffffffffffffffffffff1681526020019081526020016000206000815480929190610d9690614d66565b919050555060006001600d54610dac9190614b2b565b9050610dca3382600160405180602001604052806000815250612388565b600160126000828254610ddd9190614b2b565b925050819055507f291f5163bddacea6a9c07f03b441256f0b5584e25fb060dbc4350552d4e9b52433601254604051610e1792919061446c565b60405180910390a150565b60215481565b610e3061206c565b73ffffffffffffffffffffffffffffffffffffffff16610e4e611488565b73ffffffffffffffffffffffffffffffffffffffff1614610ea4576040517f08c379a0000000000000000000000000000000000000000000000000000000008152600401610e9b906147bd565b60405180910390fd5b6000602360008481526020019081526020016000208054610ec490614d03565b905014610f06576040517f08c379a0000000000000000000000000000000000000000000000000000000008152600401610efd9061471d565b60405180910390fd5b80602360008481526020019081526020016000209080519060200190610f2d9291906134bd565b505050565b6000610f3c61206c565b73ffffffffffffffffffffffffffffffffffffffff16610f5a611488565b73ffffffffffffffffffffffffffffffffffffffff1614610fb0576040517f08c379a0000000000000000000000000000000000000000000000000000000008152600401610fa7906147bd565b60405180910390fd5b60005b8251811015610ffc57610fdf838281518110610fd257610fd1614ec5565b5b60200260200101516111f4565b15610fe957600191505b8080610ff490614d66565b915050610fb3565b50919050565b61100a61206c565b73ffffffffffffffffffffffffffffffffffffffff16611028611488565b73ffffffffffffffffffffffffffffffffffffffff161461107e576040517f08c379a0000000000000000000000000000000000000000000000000000000008152600401611075906147bd565b60405180910390fd5b60005b600d548110156110f2576000600d548260155461109e9190614b2b565b6110a89190614e07565b90506110de8160046110b98461251e565b6040516020016110ca929190614301565b604051602081830303815290604052610e28565b5080806110ea90614d66565b915050611081565b5061111f600d54600560405160200161110b91906142ea565b604051602081830303815290604052610e28565b6111576001600d546111319190614b2b565b600660405160200161114391906142ea565b604051602081830303815290604052610e28565b565b602260029054906101000a900460ff1681565b61117461206c565b73ffffffffffffffffffffffffffffffffffffffff16611192611488565b73ffffffffffffffffffffffffffffffffffffffff16146111e8576040517f08c379a00000000000000000000000000000000000000000000000000000000081526004016111df906147bd565b60405180910390fd5b6111f2600061267f565b565b60006111fe61206c565b73ffffffffffffffffffffffffffffffffffffffff1661121c611488565b73ffffffffffffffffffffffffffffffffffffffff1614611272576040517f08c379a0000000000000000000000000000000000000000000000000000000008152600401611269906147bd565b60405180910390fd5b602060008373ffffffffffffffffffffffffffffffffffffffff1673ffffffffffffffffffffffffffffffffffffffff16815260200190815260200160002060009054906101000a900460ff1661133a576001602060008473ffffffffffffffffffffffffffffffffffffffff1673ffffffffffffffffffffffffffffffffffffffff16815260200190815260200160002060006101000a81548160ff02191690831515021790555060016021600082825461132e9190614b2b565b92505081905550600190505b919050565b60006001600d546113509190614b2b565b9050601060019054906101000a900460ff166113a1576040517f08c379a0000000000000000000000000000000000000000000000000000000008152600401611398906146bd565b60405180910390fd5b60006113ad33836106c8565b116113ed576040517f08c379a00000000000000000000000000000000000000000000000000000000081526004016113e4906145bd565b60405180910390fd5b60006113f7612745565b905060005b60038160ff16101561143e5761142b828260ff166003811061142157611420614ec5565b5b6020020151612859565b808061143690614daf565b9150506113fc565b5061144b33836001612954565b7fbcb32b44239ac671808c82d921ce5fe68940a520f60a18bba7a850aa2df5e0f5813360405161147c929190614495565b60405180910390a15050565b6000600360009054906101000a900473ffffffffffffffffffffffffffffffffffffffff16905090565b602080528060005260406000206000915054906101000a900460ff1681565b602260009054906101000a900460ff16806114f85750602260019054906101000a900460ff165b611537576040517f08c379a000000000000000000000000000000000000000000000000000000000815260040161152e906148dd565b60405180910390fd5b602260009054906101000a900460ff1680156115605750602260019054906101000a900460ff16155b156115f257602060003373ffffffffffffffffffffffffffffffffffffffff1673ffffffffffffffffffffffffffffffffffffffff16815260200190815260200160002060009054906101000a900460ff166115f1576040517f08c379a00000000000000000000000000000000000000000000000000000000081526004016115e89061465d565b60405180910390fd5b5b600b5460115410611638576040517f08c379a000000000000000000000000000000000000000000000000000000000815260040161162f906147fd565b60405180910390fd5b602660003373ffffffffffffffffffffffffffffffffffffffff1673ffffffffffffffffffffffffffffffffffffffff16815260200190815260200160002060009054906101000a900460ff16156116c5576040517f08c379a00000000000000000000000000000000000000000000000000000000081526004016116bc9061485d565b60405180910390fd5b6001602660003373ffffffffffffffffffffffffffffffffffffffff1673ffffffffffffffffffffffffffffffffffffffff16815260200190815260200160002060006101000a81548160ff0219169083151502179055506000600d549050611766338260016040518060400160405280600481526020017f3078303000000000000000000000000000000000000000000000000000000000815250612388565b6001601160008282546117799190614b2b565b925050819055506001601f60008282546117939190614c0c565b925050819055507f860d172ac100c8812174aed296380fd0f991c9eb7e662a43998a370526fd9bfe336011546040516117cd92919061446c565b60405180910390a150565b6117ea6117e361206c565b8383612b71565b5050565b6117f661206c565b73ffffffffffffffffffffffffffffffffffffffff16611814611488565b73ffffffffffffffffffffffffffffffffffffffff161461186a576040517f08c379a0000000000000000000000000000000000000000000000000000000008152600401611861906147bd565b60405180910390fd5b6001602260006101000a81548160ff021916908315150217905550565b601060019054906101000a900460ff1681565b60276020528060005260406000206000915090505481565b6118ba61206c565b73ffffffffffffffffffffffffffffffffffffffff166118d8611488565b73ffffffffffffffffffffffffffffffffffffffff161461192e576040517f08c379a0000000000000000000000000000000000000000000000000000000008152600401611925906147bd565b60405180910390fd5b6001602260026101000a81548160ff021916908315150217905550565b60125481565b61195961206c565b73ffffffffffffffffffffffffffffffffffffffff16611977611488565b73ffffffffffffffffffffffffffffffffffffffff16146119cd576040517f08c379a00000000000000000000000000000000000000000000000000000000081526004016119c4906147bd565b60405180910390fd5b6001602260016101000a81548160ff021916908315150217905550565b6000600d549050602560003373ffffffffffffffffffffffffffffffffffffffff1673ffffffffffffffffffffffffffffffffffffffff16815260200190815260200160002060009054906101000a900460ff1615611a7e576040517f08c379a0000000000000000000000000000000000000000000000000000000008152600401611a759061479d565b60405180910390fd5b601060009054906101000a900460ff16611acd576040517f08c379a0000000000000000000000000000000000000000000000000000000008152600401611ac49061483d565b60405180910390fd5b6000611ad933836106c8565b11611b19576040517f08c379a0000000000000000000000000000000000000000000000000000000008152600401611b10906147dd565b60405180910390fd5b6001602560003373ffffffffffffffffffffffffffffffffffffffff1673ffffffffffffffffffffffffffffffffffffffff16815260200190815260200160002060006101000a81548160ff0219169083151502179055506000611b7b612cde565b905060005b60058160ff161015611bc257611baf828260ff1660058110611ba557611ba4614ec5565b5b6020020151612859565b8080611bba90614daf565b915050611b80565b50611bcf33836001612954565b7ff701dcbe064b8772e0f5c01bc8f97456e13e83bd1dcfefd7ee6bddfc366b6caa8133604051611c009291906144be565b60405180910390a15050565b601060009054906101000a900460ff1681565b611c2761206c565b73ffffffffffffffffffffffffffffffffffffffff16611c45611488565b73ffffffffffffffffffffffffffffffffffffffff1614611c9b576040517f08c379a0000000000000000000000000000000000000000000000000000000008152600401611c92906147bd565b60405180910390fd5b6001601060006101000a81548160ff021916908315150217905550565b60266020528060005260406000206000915054906101000a900460ff1681565b601f5481565b60256020528060005260406000206000915054906101000a900460ff1681565b6000600160008473ffffffffffffffffffffffffffffffffffffffff1673ffffffffffffffffffffffffffffffffffffffff16815260200190815260200160002060008373ffffffffffffffffffffffffffffffffffffffff1673ffffffffffffffffffffffffffffffffffffffff16815260200190815260200160002060009054906101000a900460ff16905092915050565b611d9a61206c565b73ffffffffffffffffffffffffffffffffffffffff16611db8611488565b73ffffffffffffffffffffffffffffffffffffffff1614611e0e576040517f08c379a0000000000000000000000000000000000000000000000000000000008152600401611e05906147bd565b60405180910390fd5b600e54600d54611e1e9190614bb2565b600143611e2b9190614c0c565b4060001c611e399190614e07565b60158190555060006015541415611e6757611e606001601554612dc290919063ffffffff16565b6015819055505b565b611e7161206c565b73ffffffffffffffffffffffffffffffffffffffff168573ffffffffffffffffffffffffffffffffffffffff161480611eb75750611eb685611eb161206c565b611cfe565b5b611ef6576040517f08c379a0000000000000000000000000000000000000000000000000000000008152600401611eed9061463d565b60405180910390fd5b611f038585858585612dd8565b5050505050565b611f1261206c565b73ffffffffffffffffffffffffffffffffffffffff16611f30611488565b73ffffffffffffffffffffffffffffffffffffffff1614611f86576040517f08c379a0000000000000000000000000000000000000000000000000000000008152600401611f7d906147bd565b60405180910390fd5b600073ffffffffffffffffffffffffffffffffffffffff168173ffffffffffffffffffffffffffffffffffffffff161415611ff6576040517f08c379a0000000000000000000000000000000000000000000000000000000008152600401611fed906145fd565b60405180910390fd5b611fff8161267f565b50565b60007f01ffc9a7000000000000000000000000000000000000000000000000000000007bffffffffffffffffffffffffffffffffffffffffffffffffffffffff1916827bffffffffffffffffffffffffffffffffffffffffffffffffffffffff1916149050919050565b600033905090565b81518351146120b8576040517f08c379a00000000000000000000000000000000000000000000000000000000081526004016120af906148bd565b60405180910390fd5b600073ffffffffffffffffffffffffffffffffffffffff168473ffffffffffffffffffffffffffffffffffffffff161415612128576040517f08c379a000000000000000000000000000000000000000000000000000000000815260040161211f906146dd565b60405180910390fd5b600061213261206c565b905061214281878787878761305a565b60005b84518110156122f357600085828151811061216357612162614ec5565b5b60200260200101519050600085838151811061218257612181614ec5565b5b60200260200101519050600080600084815260200190815260200160002060008b73ffffffffffffffffffffffffffffffffffffffff1673ffffffffffffffffffffffffffffffffffffffff16815260200190815260200160002054905081811015612223576040517f08c379a000000000000000000000000000000000000000000000000000000000815260040161221a9061477d565b60405180910390fd5b81810360008085815260200190815260200160002060008c73ffffffffffffffffffffffffffffffffffffffff1673ffffffffffffffffffffffffffffffffffffffff168152602001908152602001600020819055508160008085815260200190815260200160002060008b73ffffffffffffffffffffffffffffffffffffffff1673ffffffffffffffffffffffffffffffffffffffff16815260200190815260200160002060008282546122d89190614b2b565b92505081905550505050806122ec90614d66565b9050612145565b508473ffffffffffffffffffffffffffffffffffffffff168673ffffffffffffffffffffffffffffffffffffffff168273ffffffffffffffffffffffffffffffffffffffff167f4a39dc06d4c0dbc64b70af90fd698a233a518aa5d07e595d983b8c0526c8f7fb878760405161236a929190614509565b60405180910390a4612380818787878787613062565b505050505050565b600073ffffffffffffffffffffffffffffffffffffffff168473ffffffffffffffffffffffffffffffffffffffff1614156123f8576040517f08c379a00000000000000000000000000000000000000000000000000000000081526004016123ef906148fd565b60405180910390fd5b600061240261206c565b90506124238160008761241488613249565b61241d88613249565b8761305a565b8260008086815260200190815260200160002060008773ffffffffffffffffffffffffffffffffffffffff1673ffffffffffffffffffffffffffffffffffffffff16815260200190815260200160002060008282546124829190614b2b565b925050819055508473ffffffffffffffffffffffffffffffffffffffff16600073ffffffffffffffffffffffffffffffffffffffff168273ffffffffffffffffffffffffffffffffffffffff167fc3d58168c5ae7397731d063d5bbf3d657854427343f4c083240f7aacaa2d0f628787604051612500929190614938565b60405180910390a4612517816000878787876132c3565b5050505050565b60606000821415612566576040518060400160405280600181526020017f3000000000000000000000000000000000000000000000000000000000000000815250905061267a565b600082905060005b6000821461259857808061258190614d66565b915050600a826125919190614b81565b915061256e565b60008167ffffffffffffffff8111156125b4576125b3614ef4565b5b6040519080825280601f01601f1916602001820160405280156125e65781602001600182028036833780820191505090505b5090505b60008514612673576001826125ff9190614c0c565b9150600a8561260e9190614e07565b603061261a9190614b2b565b60f81b8183815181106126305761262f614ec5565b5b60200101907effffffffffffffffffffffffffffffffffffffffffffffffffffffffffffff1916908160001a905350600a8561266c9190614b81565b94506125ea565b8093505050505b919050565b6000600360009054906101000a900473ffffffffffffffffffffffffffffffffffffffff16905081600360006101000a81548173ffffffffffffffffffffffffffffffffffffffff021916908373ffffffffffffffffffffffffffffffffffffffff1602179055508173ffffffffffffffffffffffffffffffffffffffff168173ffffffffffffffffffffffffffffffffffffffff167f8be0079c531659141344cd1fd0a4f28419497f9722a3daafe3b4186f6b6457e060405160405180910390a35050565b61274d613543565b612755613543565b60006005436127649190614e07565b905060005b60038110156128505760058261277f9190614e07565b91506000600a836127909190614bb2565b905060006009600a856127a39190614bb2565b6127ad9190614b2b565b905081600183836127be9190614c0c565b6127c89190614b2b565b423344876012546040516020016127e3959493929190614330565b6040516020818303038152906040528051906020012060001c6128069190614e07565b6128109190614b2b565b85846003811061282357612822614ec5565b5b6020020181815250506001846128399190614b2b565b93505050808061284890614d66565b915050612769565b50819250505090565b600e54600d546128699190614bb2565b601354101561295157600e546024600083815260200190815260200160002054106128c9576040517f08c379a00000000000000000000000000000000000000000000000000000000081526004016128c09061467d565b60405180910390fd5b61290b338260016040518060400160405280600481526020017f3078303000000000000000000000000000000000000000000000000000000000815250612388565b600160246000838152602001908152602001600020600082825461292f9190614b2b565b925050819055506001601360008282546129499190614b2b565b925050819055505b50565b600073ffffffffffffffffffffffffffffffffffffffff168373ffffffffffffffffffffffffffffffffffffffff1614156129c4576040517f08c379a00000000000000000000000000000000000000000000000000000000081526004016129bb9061475d565b60405180910390fd5b60006129ce61206c565b90506129fe818560006129e087613249565b6129e987613249565b6040518060200160405280600081525061305a565b600080600085815260200190815260200160002060008673ffffffffffffffffffffffffffffffffffffffff1673ffffffffffffffffffffffffffffffffffffffff16815260200190815260200160002054905082811015612a95576040517f08c379a0000000000000000000000000000000000000000000000000000000008152600401612a8c9061461d565b60405180910390fd5b82810360008086815260200190815260200160002060008773ffffffffffffffffffffffffffffffffffffffff1673ffffffffffffffffffffffffffffffffffffffff16815260200190815260200160002081905550600073ffffffffffffffffffffffffffffffffffffffff168573ffffffffffffffffffffffffffffffffffffffff168373ffffffffffffffffffffffffffffffffffffffff167fc3d58168c5ae7397731d063d5bbf3d657854427343f4c083240f7aacaa2d0f628787604051612b62929190614938565b60405180910390a45050505050565b8173ffffffffffffffffffffffffffffffffffffffff168373ffffffffffffffffffffffffffffffffffffffff161415612be0576040517f08c379a0000000000000000000000000000000000000000000000000000000008152600401612bd79061487d565b60405180910390fd5b80600160008573ffffffffffffffffffffffffffffffffffffffff1673ffffffffffffffffffffffffffffffffffffffff16815260200190815260200160002060008473ffffffffffffffffffffffffffffffffffffffff1673ffffffffffffffffffffffffffffffffffffffff16815260200190815260200160002060006101000a81548160ff0219169083151502179055508173ffffffffffffffffffffffffffffffffffffffff168373ffffffffffffffffffffffffffffffffffffffff167f17307eab39ab6107e8899845ad3d59bd9653f200f220920489ca2b5937696c3183604051612cd19190614540565b60405180910390a3505050565b612ce6613565565b612cee613565565b60005b6005811015612dba576000600a82612d099190614bb2565b905060006009600a84612d1c9190614bb2565b612d269190614b2b565b90508160018383612d379190614c0c565b612d419190614b2b565b42334487601154604051602001612d5c959493929190614330565b6040516020818303038152906040528051906020012060001c612d7f9190614e07565b612d899190614b2b565b848460058110612d9c57612d9b614ec5565b5b60200201818152505050508080612db290614d66565b915050612cf1565b508091505090565b60008183612dd09190614b2b565b905092915050565b600073ffffffffffffffffffffffffffffffffffffffff168473ffffffffffffffffffffffffffffffffffffffff161415612e48576040517f08c379a0000000000000000000000000000000000000000000000000000000008152600401612e3f906146dd565b60405180910390fd5b6000612e5261206c565b9050612e72818787612e6388613249565b612e6c88613249565b8761305a565b600080600086815260200190815260200160002060008873ffffffffffffffffffffffffffffffffffffffff1673ffffffffffffffffffffffffffffffffffffffff16815260200190815260200160002054905083811015612f09576040517f08c379a0000000000000000000000000000000000000000000000000000000008152600401612f009061477d565b60405180910390fd5b83810360008087815260200190815260200160002060008973ffffffffffffffffffffffffffffffffffffffff1673ffffffffffffffffffffffffffffffffffffffff168152602001908152602001600020819055508360008087815260200190815260200160002060008873ffffffffffffffffffffffffffffffffffffffff1673ffffffffffffffffffffffffffffffffffffffff1681526020019081526020016000206000828254612fbe9190614b2b565b925050819055508573ffffffffffffffffffffffffffffffffffffffff168773ffffffffffffffffffffffffffffffffffffffff168373ffffffffffffffffffffffffffffffffffffffff167fc3d58168c5ae7397731d063d5bbf3d657854427343f4c083240f7aacaa2d0f62888860405161303b929190614938565b60405180910390a46130518288888888886132c3565b50505050505050565b505050505050565b6130818473ffffffffffffffffffffffffffffffffffffffff166134aa565b15613241578373ffffffffffffffffffffffffffffffffffffffff1663bc197c8187878686866040518663ffffffff1660e01b81526004016130c79594939291906143aa565b602060405180830381600087803b1580156130e157600080fd5b505af192505050801561311257506040513d601f19601f8201168201806040525081019061310f9190613b6a565b60015b6131b85761311e614f23565b806308c379a0141561317b575061313361579b565b8061313e575061317d565b806040517f08c379a0000000000000000000000000000000000000000000000000000000008152600401613172919061455b565b60405180910390fd5b505b6040517f08c379a00000000000000000000000000000000000000000000000000000000081526004016131af9061457d565b60405180910390fd5b63bc197c8160e01b7bffffffffffffffffffffffffffffffffffffffffffffffffffffffff1916817bffffffffffffffffffffffffffffffffffffffffffffffffffffffff19161461323f576040517f08c379a00000000000000000000000000000000000000000000000000000000081526004016132369061459d565b60405180910390fd5b505b505050505050565b60606000600167ffffffffffffffff81111561326857613267614ef4565b5b6040519080825280602002602001820160405280156132965781602001602082028036833780820191505090505b50905082816000815181106132ae576132ad614ec5565b5b60200260200101818152505080915050919050565b6132e28473ffffffffffffffffffffffffffffffffffffffff166134aa565b156134a2578373ffffffffffffffffffffffffffffffffffffffff1663f23a6e6187878686866040518663ffffffff1660e01b8152600401613328959493929190614412565b602060405180830381600087803b15801561334257600080fd5b505af192505050801561337357506040513d601f19601f820116820180604052508101906133709190613b6a565b60015b6134195761337f614f23565b806308c379a014156133dc575061339461579b565b8061339f57506133de565b806040517f08c379a00000000000000000000000000000000000000000000000000000000081526004016133d3919061455b565b60405180910390fd5b505b6040517f08c379a00000000000000000000000000000000000000000000000000000000081526004016134109061457d565b60405180910390fd5b63f23a6e6160e01b7bffffffffffffffffffffffffffffffffffffffffffffffffffffffff1916817bffffffffffffffffffffffffffffffffffffffffffffffffffffffff1916146134a0576040517f08c379a00000000000000000000000000000000000000000000000000000000081526004016134979061459d565b60405180910390fd5b505b505050505050565b600080823b905060008111915050919050565b8280546134c990614d03565b90600052602060002090601f0160209004810192826134eb5760008555613532565b82601f1061350457805160ff1916838001178555613532565b82800160010185558215613532579182015b82811115613531578251825591602001919060010190613516565b5b50905061353f9190613587565b5090565b6040518060600160405280600390602082028036833780820191505090505090565b6040518060a00160405280600590602082028036833780820191505090505090565b5b808211156135a0576000816000905550600101613588565b5090565b60006135b76135b284614986565b614961565b905080838252602082019050828560208602820111156135da576135d9614f4a565b5b60005b8581101561360a57816135f08882613708565b8452602084019350602083019250506001810190506135dd565b5050509392505050565b6000613627613622846149b2565b614961565b9050808382526020820190508285602086028201111561364a57613649614f4a565b5b60005b8581101561367a57816136608882613814565b84526020840193506020830192505060018101905061364d565b5050509392505050565b6000613697613692846149de565b614961565b9050828152602081018484840111156136b3576136b2614f4f565b5b6136be848285614cc1565b509392505050565b60006136d96136d484614a0f565b614961565b9050828152602081018484840111156136f5576136f4614f4f565b5b613700848285614cc1565b509392505050565b60008135905061371781615831565b92915050565b600082601f83011261373257613731614f45565b5b81356137428482602086016135a4565b91505092915050565b600082601f8301126137605761375f614f45565b5b8135613770848260208601613614565b91505092915050565b60008135905061378881615848565b92915050565b60008135905061379d8161585f565b92915050565b6000815190506137b28161585f565b92915050565b600082601f8301126137cd576137cc614f45565b5b81356137dd848260208601613684565b91505092915050565b600082601f8301126137fb576137fa614f45565b5b813561380b8482602086016136c6565b91505092915050565b60008135905061382381615876565b92915050565b60006020828403121561383f5761383e614f59565b5b600061384d84828501613708565b91505092915050565b6000806040838503121561386d5761386c614f59565b5b600061387b85828601613708565b925050602061388c85828601613708565b9150509250929050565b600080600080600060a086880312156138b2576138b1614f59565b5b60006138c088828901613708565b95505060206138d188828901613708565b945050604086013567ffffffffffffffff8111156138f2576138f1614f54565b5b6138fe8882890161374b565b935050606086013567ffffffffffffffff81111561391f5761391e614f54565b5b61392b8882890161374b565b925050608086013567ffffffffffffffff81111561394c5761394b614f54565b5b613958888289016137b8565b9150509295509295909350565b600080600080600060a0868803121561398157613980614f59565b5b600061398f88828901613708565b95505060206139a088828901613708565b94505060406139b188828901613814565b93505060606139c288828901613814565b925050608086013567ffffffffffffffff8111156139e3576139e2614f54565b5b6139ef888289016137b8565b9150509295509295909350565b60008060408385031215613a1357613a12614f59565b5b6000613a2185828601613708565b9250506020613a3285828601613779565b9150509250929050565b60008060408385031215613a5357613a52614f59565b5b6000613a6185828601613708565b9250506020613a7285828601613814565b9150509250929050565b600060208284031215613a9257613a91614f59565b5b600082013567ffffffffffffffff811115613ab057613aaf614f54565b5b613abc8482850161371d565b91505092915050565b60008060408385031215613adc57613adb614f59565b5b600083013567ffffffffffffffff811115613afa57613af9614f54565b5b613b068582860161371d565b925050602083013567ffffffffffffffff811115613b2757613b26614f54565b5b613b338582860161374b565b9150509250929050565b600060208284031215613b5357613b52614f59565b5b6000613b618482850161378e565b91505092915050565b600060208284031215613b8057613b7f614f59565b5b6000613b8e848285016137a3565b91505092915050565b600060208284031215613bad57613bac614f59565b5b6000613bbb84828501613814565b91505092915050565b60008060408385031215613bdb57613bda614f59565b5b6000613be985828601613814565b925050602083013567ffffffffffffffff811115613c0a57613c09614f54565b5b613c16858286016137e6565b9150509250929050565b6000613c2c83836142b5565b60208301905092915050565b613c4181614c40565b82525050565b613c58613c5382614c40565b614dd9565b82525050565b613c6781614a79565b613c718184614ad7565b9250613c7c82614a40565b8060005b83811015613cad578151613c948782613c20565b9650613c9f83614ab0565b925050600181019050613c80565b505050505050565b613cbe81614a84565b613cc88184614ae2565b9250613cd382614a4a565b8060005b83811015613d04578151613ceb8782613c20565b9650613cf683614abd565b925050600181019050613cd7565b505050505050565b6000613d1782614a8f565b613d218185614aed565b9350613d2c83614a54565b8060005b83811015613d5d578151613d448882613c20565b9750613d4f83614aca565b925050600181019050613d30565b5085935050505092915050565b613d7381614c52565b82525050565b6000613d8482614a9a565b613d8e8185614afe565b9350613d9e818560208601614cd0565b613da781614f5e565b840191505092915050565b6000613dbd82614aa5565b613dc78185614b0f565b9350613dd7818560208601614cd0565b613de081614f5e565b840191505092915050565b6000613df682614aa5565b613e008185614b20565b9350613e10818560208601614cd0565b80840191505092915050565b60008154613e2981614d03565b613e338186614b20565b94506001821660008114613e4e5760018114613e5f57613e92565b60ff19831686528186019350613e92565b613e6885614a64565b60005b83811015613e8a57815481890152600182019150602081019050613e6b565b838801955050505b50505092915050565b6000613ea8603483614b0f565b9150613eb382614f89565b604082019050919050565b6000613ecb602883614b0f565b9150613ed682614fd8565b604082019050919050565b6000613eee601b83614b0f565b9150613ef982615027565b602082019050919050565b6000613f11602b83614b0f565b9150613f1c82615050565b604082019050919050565b6000613f34602683614b0f565b9150613f3f8261509f565b604082019050919050565b6000613f57602483614b0f565b9150613f62826150ee565b604082019050919050565b6000613f7a602983614b0f565b9150613f858261513d565b604082019050919050565b6000613f9d601883614b0f565b9150613fa88261518c565b602082019050919050565b6000613fc0602d83614b0f565b9150613fcb826151b5565b604082019050919050565b6000613fe3602b83614b0f565b9150613fee82615204565b604082019050919050565b6000614006602783614b0f565b915061401182615253565b604082019050919050565b6000614029602583614b0f565b9150614034826152a2565b604082019050919050565b600061404c603283614b0f565b9150614057826152f1565b604082019050919050565b600061406f601483614b0f565b915061407a82615340565b602082019050919050565b6000614092602483614b0f565b915061409d82615369565b604082019050919050565b60006140b5602383614b0f565b91506140c0826153b8565b604082019050919050565b60006140d8602a83614b0f565b91506140e382615407565b604082019050919050565b60006140fb602083614b0f565b915061410682615456565b602082019050919050565b600061411e600583614b20565b91506141298261547f565b600582019050919050565b6000614141602083614b0f565b915061414c826154a8565b602082019050919050565b6000614164602b83614b0f565b915061416f826154d1565b604082019050919050565b6000614187602383614b0f565b915061419282615520565b604082019050919050565b60006141aa602b83614b0f565b91506141b58261556f565b604082019050919050565b60006141cd601f83614b0f565b91506141d8826155be565b602082019050919050565b60006141f0602a83614b0f565b91506141fb826155e7565b604082019050919050565b6000614213602983614b0f565b915061421e82615636565b604082019050919050565b6000614236602983614b0f565b915061424182615685565b604082019050919050565b6000614259602883614b0f565b9150614264826156d4565b604082019050919050565b600061427c601f83614b0f565b915061428782615723565b602082019050919050565b600061429f602183614b0f565b91506142aa8261574c565b604082019050919050565b6142be81614caa565b82525050565b6142cd81614caa565b82525050565b6142e46142df82614caa565b614dfd565b82525050565b60006142f68284613e1c565b915081905092915050565b600061430d8285613e1c565b91506143198284613deb565b915061432482614111565b91508190509392505050565b600061433c82886142d3565b60208201915061434c8287613c47565b60148201915061435c82866142d3565b60208201915061436c82856142d3565b60208201915061437c82846142d3565b6020820191508190509695505050505050565b60006020820190506143a46000830184613c38565b92915050565b600060a0820190506143bf6000830188613c38565b6143cc6020830187613c38565b81810360408301526143de8186613d0c565b905081810360608301526143f28185613d0c565b905081810360808301526144068184613d79565b90509695505050505050565b600060a0820190506144276000830188613c38565b6144346020830187613c38565b61444160408301866142c4565b61444e60608301856142c4565b81810360808301526144608184613d79565b90509695505050505050565b60006040820190506144816000830185613c38565b61448e60208301846142c4565b9392505050565b60006080820190506144aa6000830185613c5e565b6144b76060830184613c38565b9392505050565b600060c0820190506144d36000830185613cb5565b6144e060a0830184613c38565b9392505050565b600060208201905081810360008301526145018184613d0c565b905092915050565b600060408201905081810360008301526145238185613d0c565b905081810360208301526145378184613d0c565b90509392505050565b60006020820190506145556000830184613d6a565b92915050565b600060208201905081810360008301526145758184613db2565b905092915050565b6000602082019050818103600083015261459681613e9b565b9050919050565b600060208201905081810360008301526145b681613ebe565b9050919050565b600060208201905081810360008301526145d681613ee1565b9050919050565b600060208201905081810360008301526145f681613f04565b9050919050565b6000602082019050818103600083015261461681613f27565b9050919050565b6000602082019050818103600083015261463681613f4a565b9050919050565b6000602082019050818103600083015261465681613f6d565b9050919050565b6000602082019050818103600083015261467681613f90565b9050919050565b6000602082019050818103600083015261469681613fb3565b9050919050565b600060208201905081810360008301526146b681613fd6565b9050919050565b600060208201905081810360008301526146d681613ff9565b9050919050565b600060208201905081810360008301526146f68161401c565b9050919050565b600060208201905081810360008301526147168161403f565b9050919050565b6000602082019050818103600083015261473681614062565b9050919050565b6000602082019050818103600083015261475681614085565b9050919050565b60006020820190508181036000830152614776816140a8565b9050919050565b60006020820190508181036000830152614796816140cb565b9050919050565b600060208201905081810360008301526147b6816140ee565b9050919050565b600060208201905081810360008301526147d681614134565b9050919050565b600060208201905081810360008301526147f681614157565b9050919050565b600060208201905081810360008301526148168161417a565b9050919050565b600060208201905081810360008301526148368161419d565b9050919050565b60006020820190508181036000830152614856816141c0565b9050919050565b60006020820190508181036000830152614876816141e3565b9050919050565b6000602082019050818103600083015261489681614206565b9050919050565b600060208201905081810360008301526148b681614229565b9050919050565b600060208201905081810360008301526148d68161424c565b9050919050565b600060208201905081810360008301526148f68161426f565b9050919050565b6000602082019050818103600083015261491681614292565b9050919050565b600060208201905061493260008301846142c4565b92915050565b600060408201905061494d60008301856142c4565b61495a60208301846142c4565b9392505050565b600061496b61497c565b90506149778282614d35565b919050565b6000604051905090565b600067ffffffffffffffff8211156149a1576149a0614ef4565b5b602082029050602081019050919050565b600067ffffffffffffffff8211156149cd576149cc614ef4565b5b602082029050602081019050919050565b600067ffffffffffffffff8211156149f9576149f8614ef4565b5b614a0282614f5e565b9050602081019050919050565b600067ffffffffffffffff821115614a2a57614a29614ef4565b5b614a3382614f5e565b9050602081019050919050565b6000819050919050565b6000819050919050565b6000819050602082019050919050565b60008190508160005260206000209050919050565b600060039050919050565b600060059050919050565b600081519050919050565b600081519050919050565b600081519050919050565b6000602082019050919050565b6000602082019050919050565b6000602082019050919050565b600081905092915050565b600081905092915050565b600082825260208201905092915050565b600082825260208201905092915050565b600082825260208201905092915050565b600081905092915050565b6000614b3682614caa565b9150614b4183614caa565b9250827fffffffffffffffffffffffffffffffffffffffffffffffffffffffffffffffff03821115614b7657614b75614e38565b5b828201905092915050565b6000614b8c82614caa565b9150614b9783614caa565b925082614ba757614ba6614e67565b5b828204905092915050565b6000614bbd82614caa565b9150614bc883614caa565b9250817fffffffffffffffffffffffffffffffffffffffffffffffffffffffffffffffff0483118215151615614c0157614c00614e38565b5b828202905092915050565b6000614c1782614caa565b9150614c2283614caa565b925082821015614c3557614c34614e38565b5b828203905092915050565b6000614c4b82614c8a565b9050919050565b60008115159050919050565b60007fffffffff0000000000000000000000000000000000000000000000000000000082169050919050565b600073ffffffffffffffffffffffffffffffffffffffff82169050919050565b6000819050919050565b600060ff82169050919050565b82818337600083830152505050565b60005b83811015614cee578082015181840152602081019050614cd3565b83811115614cfd576000848401525b50505050565b60006002820490506001821680614d1b57607f821691505b60208210811415614d2f57614d2e614e96565b5b50919050565b614d3e82614f5e565b810181811067ffffffffffffffff82111715614d5d57614d5c614ef4565b5b80604052505050565b6000614d7182614caa565b91507fffffffffffffffffffffffffffffffffffffffffffffffffffffffffffffffff821415614da457614da3614e38565b5b600182019050919050565b6000614dba82614cb4565b915060ff821415614dce57614dcd614e38565b5b600182019050919050565b6000614de482614deb565b9050919050565b6000614df682614f6f565b9050919050565b6000819050919050565b6000614e1282614caa565b9150614e1d83614caa565b925082614e2d57614e2c614e67565b5b828206905092915050565b7f4e487b7100000000000000000000000000000000000000000000000000000000600052601160045260246000fd5b7f4e487b7100000000000000000000000000000000000000000000000000000000600052601260045260246000fd5b7f4e487b7100000000000000000000000000000000000000000000000000000000600052602260045260246000fd5b7f4e487b7100000000000000000000000000000000000000000000000000000000600052603260045260246000fd5b7f4e487b7100000000000000000000000000000000000000000000000000000000600052604160045260246000fd5b600060033d1115614f425760046000803e614f3f600051614f7c565b90505b90565b600080fd5b600080fd5b600080fd5b600080fd5b600080fd5b6000601f19601f8301169050919050565b60008160601b9050919050565b60008160e01c9050919050565b7f455243313135353a207472616e7366657220746f206e6f6e204552433131353560008201527f526563656976657220696d706c656d656e746572000000000000000000000000602082015250565b7f455243313135353a204552433131353552656365697665722072656a6563746560008201527f6420746f6b656e73000000000000000000000000000000000000000000000000602082015250565b7f4e6f2072656d61696e696e6720626f6f73746572207061636b73210000000000600082015250565b7f455243313135353a2062616c616e636520717565727920666f7220746865207a60008201527f65726f2061646472657373000000000000000000000000000000000000000000602082015250565b7f4f776e61626c653a206e6577206f776e657220697320746865207a65726f206160008201527f6464726573730000000000000000000000000000000000000000000000000000602082015250565b7f455243313135353a206275726e20616d6f756e7420657863656564732062616c60008201527f616e636500000000000000000000000000000000000000000000000000000000602082015250565b7f455243313135353a2063616c6c6572206973206e6f74206f776e6572206e6f7260008201527f20617070726f7665640000000000000000000000000000000000000000000000602082015250565b7f55736572206973206e6f742077686974656c69737465642e0000000000000000600082015250565b7f416c6c206f662074686973206174686c657465206861766520616c726561647960008201527f206265656e206d696e7465642100000000000000000000000000000000000000602082015250565b7f416c6c20626f6f73746572207061636b73206861766520616c7265616479206260008201527f65656e206d696e74656421000000000000000000000000000000000000000000602082015250565b7f426f6f73746572207061636b73206172656e277420726561647920746f206f7060008201527f656e207965742100000000000000000000000000000000000000000000000000602082015250565b7f455243313135353a207472616e7366657220746f20746865207a65726f20616460008201527f6472657373000000000000000000000000000000000000000000000000000000602082015250565b7f455243313135353a207472616e736665722063616c6c6572206973206e6f742060008201527f6f776e6572206e6f7220617070726f7665640000000000000000000000000000602082015250565b7f43616e6e6f742073657420757269207477696365000000000000000000000000600082015250565b7f426f6f73746572207061636b2073616c65206861736e2774206f70656e65642060008201527f7965742e00000000000000000000000000000000000000000000000000000000602082015250565b7f455243313135353a206275726e2066726f6d20746865207a65726f206164647260008201527f6573730000000000000000000000000000000000000000000000000000000000602082015250565b7f455243313135353a20696e73756666696369656e742062616c616e636520666f60008201527f72207472616e7366657200000000000000000000000000000000000000000000602082015250565b7f596f752063616e6e6f74206275726e206d6f7265207468616e2031207061636b600082015250565b7f2e6a736f6e000000000000000000000000000000000000000000000000000000600082015250565b7f4f776e61626c653a2063616c6c6572206973206e6f7420746865206f776e6572600082015250565b7f53746172746572207061636b20646f6573206e6f7420657869737420696e207560008201527f736572732077616c6c6574000000000000000000000000000000000000000000602082015250565b7f416c6c207061636b73206861766520616c7265616479206265656e206d696e7460008201527f6564210000000000000000000000000000000000000000000000000000000000602082015250565b7f43616e206f6e6c79206d696e742074776f20626f6f73746572207061636b732060008201527f706572206163636f756e74000000000000000000000000000000000000000000602082015250565b7f5061636b73206172656e277420726561647920746f206f70656e207965742100600082015250565b7f43616e206f6e6c79206d696e74206f6e652073746172746572207061636b207060008201527f6572206163636f756e7400000000000000000000000000000000000000000000602082015250565b7f455243313135353a2073657474696e6720617070726f76616c2073746174757360008201527f20666f722073656c660000000000000000000000000000000000000000000000602082015250565b7f455243313135353a206163636f756e747320616e6420696473206c656e67746860008201527f206d69736d617463680000000000000000000000000000000000000000000000602082015250565b7f455243313135353a2069647320616e6420616d6f756e7473206c656e6774682060008201527f6d69736d61746368000000000000000000000000000000000000000000000000602082015250565b7f507269766174652073616c65206861736e2774206f70656e6564207965742e00600082015250565b7f455243313135353a206d696e7420746f20746865207a65726f2061646472657360008201527f7300000000000000000000000000000000000000000000000000000000000000602082015250565b600060443d10156157ab5761582e565b6157b361497c565b60043d036004823e80513d602482011167ffffffffffffffff821117156157db57505061582e565b808201805167ffffffffffffffff8111156157f9575050505061582e565b80602083010160043d03850181111561581657505050505061582e565b61582582602001850186614d35565b82955050505050505b90565b61583a81614c40565b811461584557600080fd5b50565b61585181614c52565b811461585c57600080fd5b50565b61586881614c5e565b811461587357600080fd5b50565b61587f81614caa565b811461588a57600080fd5b5056fea264697066735822122077a5c7fac158a79e52d330082446c9531234e25ad0e6dbb19de9be453c11636364736f6c63430008070033",
    "linkReferences": {},
    "deployedLinkReferences": {}
}