{
  "_format": "hh-sol-artifact-1",
  "contractName": "LeagueMaker",
  "sourceName": "contracts/LeagueMaker.sol",
  "abi": [
    {
      "inputs": [
        {
          "internalType": "address",
          "name": "_logic",
          "type": "address"
        }
      ],
      "stateMutability": "nonpayable",
      "type": "constructor"
    },
    {
      "anonymous": false,
      "inputs": [
        {
          "indexed": false,
          "internalType": "string",
          "name": "name",
          "type": "string"
        },
        {
          "indexed": false,
          "internalType": "address",
          "name": "a",
          "type": "address"
        }
      ],
      "name": "LeagueCreated",
      "type": "event"
    },
    {
      "anonymous": false,
      "inputs": [
        {
          "indexed": true,
          "internalType": "address",
          "name": "previousOwner",
          "type": "address"
        },
        {
          "indexed": true,
          "internalType": "address",
          "name": "newOwner",
          "type": "address"
        }
      ],
      "name": "OwnershipTransferred",
      "type": "event"
    },
    {
      "anonymous": false,
      "inputs": [
        {
          "indexed": false,
          "internalType": "bool",
          "name": "success",
          "type": "bool"
        },
        {
          "indexed": false,
          "internalType": "bytes",
          "name": "data",
          "type": "bytes"
        }
      ],
      "name": "Response",
      "type": "event"
    },
    {
      "inputs": [
        {
          "internalType": "string",
          "name": "_name",
          "type": "string"
        },
        {
          "internalType": "uint256",
          "name": "_stakeAmount",
          "type": "uint256"
        },
        {
          "internalType": "bool",
          "name": "_isPublic",
          "type": "bool"
        },
        {
          "internalType": "address",
          "name": "_adminAddress",
          "type": "address"
        },
        {
          "internalType": "address",
          "name": "_testUSDCAddress",
          "type": "address"
        }
      ],
      "name": "createLeague",
      "outputs": [
        {
          "internalType": "address",
          "name": "",
          "type": "address"
        }
      ],
      "stateMutability": "nonpayable",
      "type": "function"
    },
    {
      "inputs": [],
      "name": "currentWeek",
      "outputs": [
        {
          "internalType": "uint256",
          "name": "",
          "type": "uint256"
        }
      ],
      "stateMutability": "view",
      "type": "function"
    },
    {
      "inputs": [],
      "name": "incrementCurrentWeek",
      "outputs": [],
      "stateMutability": "nonpayable",
      "type": "function"
    },
    {
      "inputs": [
        {
          "internalType": "uint256",
          "name": "",
          "type": "uint256"
        }
      ],
      "name": "leagueAddresses",
      "outputs": [
        {
          "internalType": "address",
          "name": "",
          "type": "address"
        }
      ],
      "stateMutability": "view",
      "type": "function"
    },
    {
      "inputs": [],
      "name": "lockLeagueLineups",
      "outputs": [],
      "stateMutability": "nonpayable",
      "type": "function"
    },
    {
      "inputs": [],
      "name": "lockLeagueMembership",
      "outputs": [],
      "stateMutability": "nonpayable",
      "type": "function"
    },
    {
      "inputs": [],
      "name": "owner",
      "outputs": [
        {
          "internalType": "address",
          "name": "",
          "type": "address"
        }
      ],
      "stateMutability": "view",
      "type": "function"
    },
    {
      "inputs": [],
      "name": "parameters",
      "outputs": [
        {
          "internalType": "string",
          "name": "name",
          "type": "string"
        },
        {
          "internalType": "uint256",
          "name": "version",
          "type": "uint256"
        },
        {
          "internalType": "uint256",
          "name": "numWeeks",
          "type": "uint256"
        },
        {
          "internalType": "uint256",
          "name": "stakeAmount",
          "type": "uint256"
        },
        {
          "internalType": "bool",
          "name": "isPublic",
          "type": "bool"
        },
        {
          "internalType": "address",
          "name": "athletesDataStorageAddress",
          "type": "address"
        },
        {
          "internalType": "address",
          "name": "owner",
          "type": "address"
        },
        {
          "internalType": "address",
          "name": "admin",
          "type": "address"
        },
        {
          "internalType": "address",
          "name": "polygonUSDCAddress",
          "type": "address"
        },
        {
          "internalType": "address",
          "name": "rinkebyUSDCAddress",
          "type": "address"
        },
        {
          "internalType": "address",
          "name": "testUSDCAddress",
          "type": "address"
        }
      ],
      "stateMutability": "view",
      "type": "function"
    },
    {
      "inputs": [],
      "name": "renounceOwnership",
      "outputs": [],
      "stateMutability": "nonpayable",
      "type": "function"
    },
    {
      "inputs": [
        {
          "internalType": "address",
          "name": "logic",
          "type": "address"
        }
      ],
      "name": "setBeacon",
      "outputs": [
        {
          "internalType": "address",
          "name": "",
          "type": "address"
        }
      ],
      "stateMutability": "nonpayable",
      "type": "function"
    },
    {
      "inputs": [],
      "name": "setLeagueSchedules",
      "outputs": [],
      "stateMutability": "nonpayable",
      "type": "function"
    },
    {
      "inputs": [
        {
          "internalType": "address",
          "name": "newOwner",
          "type": "address"
        }
      ],
      "name": "transferOwnership",
      "outputs": [],
      "stateMutability": "nonpayable",
      "type": "function"
    },
    {
      "inputs": [],
      "name": "unlockLeagueLineups",
      "outputs": [],
      "stateMutability": "nonpayable",
      "type": "function"
    },
    {
      "inputs": [
        {
          "internalType": "address",
          "name": "user",
          "type": "address"
        }
      ],
      "name": "updateUserToLeagueMapping",
      "outputs": [],
      "stateMutability": "nonpayable",
      "type": "function"
    },
    {
      "inputs": [
        {
          "internalType": "address",
          "name": "",
          "type": "address"
        },
        {
          "internalType": "uint256",
          "name": "",
          "type": "uint256"
        }
      ],
      "name": "userToLeagueMap",
      "outputs": [
        {
          "internalType": "address",
          "name": "",
          "type": "address"
        }
      ],
      "stateMutability": "view",
      "type": "function"
    }
  ],
  "bytecode": "0x60c06040526000600f5560006010556008601155732791bca1f2de4661ed88a30c99a7a9449aa84174601260006101000a81548173ffffffffffffffffffffffffffffffffffffffff021916908373ffffffffffffffffffffffffffffffffffffffff16021790555073eb8f08a975ab53e34d8a0330e0d34de942c95926601360006101000a81548173ffffffffffffffffffffffffffffffffffffffff021916908373ffffffffffffffffffffffffffffffffffffffff160217905550348015620000ca57600080fd5b5060405162009801380380620098018339818101604052810190620000f0919062000361565b62000110620001046200025460201b60201c565b6200025c60201b60201c565b806040516200011f9062000320565b6200012b9190620003a4565b604051809103906000f08015801562000148573d6000803e3d6000fd5b5073ffffffffffffffffffffffffffffffffffffffff1660808173ffffffffffffffffffffffffffffffffffffffff1660601b815250506040516200018d906200032e565b604051809103906000f080158015620001aa573d6000803e3d6000fd5b5073ffffffffffffffffffffffffffffffffffffffff1660a08173ffffffffffffffffffffffffffffffffffffffff1660601b81525050604051620001ef906200033c565b604051809103906000f0801580156200020c573d6000803e3d6000fd5b50600160006101000a81548173ffffffffffffffffffffffffffffffffffffffff021916908373ffffffffffffffffffffffffffffffffffffffff1602179055505062000414565b600033905090565b60008060009054906101000a900473ffffffffffffffffffffffffffffffffffffffff169050816000806101000a81548173ffffffffffffffffffffffffffffffffffffffff021916908373ffffffffffffffffffffffffffffffffffffffff1602179055508173ffffffffffffffffffffffffffffffffffffffff168173ffffffffffffffffffffffffffffffffffffffff167f8be0079c531659141344cd1fd0a4f28419497f9722a3daafe3b4186f6b6457e060405160405180910390a35050565b610a9180620063f783390190565b6111158062006e8883390190565b6118648062007f9d83390190565b6000815190506200035b81620003fa565b92915050565b6000602082840312156200037a5762000379620003f5565b5b60006200038a848285016200034a565b91505092915050565b6200039e81620003c1565b82525050565b6000602082019050620003bb600083018462000393565b92915050565b6000620003ce82620003d5565b9050919050565b600073ffffffffffffffffffffffffffffffffffffffff82169050919050565b600080fd5b6200040581620003c1565b81146200041157600080fd5b50565b60805160601c60a05160601c615fb76200044060003960006106f801526000610b920152615fb76000f3fe60806040523480156200001157600080fd5b50600436106200010c5760003560e01c80638da5cb5b11620000a5578063c49986a5116200006f578063c49986a51462000273578063d42afb56146200027f578063d54c9d1614620002b5578063f2fde38b14620002c1576200010c565b80638da5cb5b1462000203578063a69b33181462000225578063a945320f1462000231578063c3530ff4146200023d576200010c565b8063715018a611620000e7578063715018a61462000175578063771bd4ce14620001815780637f9d378014620001a15780638903573014620001d7576200010c565b806306575c891462000111578063270cb3eb146200013357806329ffe5e9146200013f575b600080fd5b6200011b620002e1565b6040516200012a9190620020b6565b60405180910390f35b6200013d620002e7565b005b6200015d600480360381019062000157919062001c29565b6200050c565b6040516200016c919062001e3a565b60405180910390f35b6200017f6200054c565b005b6200019f600480360381019062000199919062001b06565b620005dd565b005b620001bf6004803603810190620001b9919062001b7f565b62000680565b604051620001ce919062001e3a565b60405180910390f35b620001e162000dcb565b604051620001fa9b9a9998979695949392919062001ebf565b60405180910390f35b6200020d62000f70565b6040516200021c919062001e3a565b60405180910390f35b6200022f62000f99565b005b6200023b6200103a565b005b6200025b600480360381019062000255919062001b38565b6200125f565b6040516200026a919062001e3a565b60405180910390f35b6200027d620012ae565b005b6200029d600480360381019062000297919062001b06565b620014d3565b604051620002ac919062001e3a565b60405180910390f35b620002bf6200155b565b005b620002df6004803603810190620002d9919062001b06565b62001780565b005b600f5481565b620002f162001884565b73ffffffffffffffffffffffffffffffffffffffff166200031162000f70565b73ffffffffffffffffffffffffffffffffffffffff16146200036a576040517f08c379a0000000000000000000000000000000000000000000000000000000008152600401620003619062002094565b60405180910390fd5b6000606060005b600380549050811015620005075760038181548110620003965762000395620022ea565b5b9060005260206000200160009054906101000a900473ffffffffffffffffffffffffffffffffffffffff1673ffffffffffffffffffffffffffffffffffffffff166040516024016040516020818303038152906040527fe4c9066b000000000000000000000000000000000000000000000000000000007bffffffffffffffffffffffffffffffffffffffffffffffffffffffff19166020820180517bffffffffffffffffffffffffffffffffffffffffffffffffffffffff838183161783525050505060405162000469919062001e21565b6000604051808303816000865af19150503d8060008114620004a8576040519150601f19603f3d011682016040523d82523d6000602084013e620004ad565b606091505b5080935081945050507f13848c3e38f8886f3f5d2ad9dff80d8092c2bbb8efd5b887a99c2c6cfc09ac2a8383604051620004e992919062001e8b565b60405180910390a18080620004fe906200223e565b91505062000371565b505050565b600381815481106200051d57600080fd5b906000526020600020016000915054906101000a900473ffffffffffffffffffffffffffffffffffffffff1681565b6200055662001884565b73ffffffffffffffffffffffffffffffffffffffff166200057662000f70565b73ffffffffffffffffffffffffffffffffffffffff1614620005cf576040517f08c379a0000000000000000000000000000000000000000000000000000000008152600401620005c69062002094565b60405180910390fd5b620005db60006200188c565b565b600460008273ffffffffffffffffffffffffffffffffffffffff1673ffffffffffffffffffffffffffffffffffffffff168152602001908152602001600020339080600181540180825580915050600190039060005260206000200160009091909190916101000a81548173ffffffffffffffffffffffffffffffffffffffff021916908373ffffffffffffffffffffffffffffffffffffffff16021790555050565b600060405180610160016040528088888080601f016020809104026020016040519081016040528093929190818152602001838380828437600081840152601f19601f8201169050808301925050505050505081526020016010548152602001601154815260200186815260200185151581526020017f000000000000000000000000000000000000000000000000000000000000000073ffffffffffffffffffffffffffffffffffffffff1681526020013073ffffffffffffffffffffffffffffffffffffffff1681526020018473ffffffffffffffffffffffffffffffffffffffff168152602001601260009054906101000a900473ffffffffffffffffffffffffffffffffffffffff1673ffffffffffffffffffffffffffffffffffffffff168152602001601360009054906101000a900473ffffffffffffffffffffffffffffffffffffffff1673ffffffffffffffffffffffffffffffffffffffff1681526020018373ffffffffffffffffffffffffffffffffffffffff16815250600560008201518160000190805190602001906200082092919062001950565b5060208201518160010155604082015181600201556060820151816003015560808201518160040160006101000a81548160ff02191690831515021790555060a08201518160040160016101000a81548173ffffffffffffffffffffffffffffffffffffffff021916908373ffffffffffffffffffffffffffffffffffffffff16021790555060c08201518160050160006101000a81548173ffffffffffffffffffffffffffffffffffffffff021916908373ffffffffffffffffffffffffffffffffffffffff16021790555060e08201518160060160006101000a81548173ffffffffffffffffffffffffffffffffffffffff021916908373ffffffffffffffffffffffffffffffffffffffff1602179055506101008201518160070160006101000a81548173ffffffffffffffffffffffffffffffffffffffff021916908373ffffffffffffffffffffffffffffffffffffffff1602179055506101208201518160080160006101000a81548173ffffffffffffffffffffffffffffffffffffffff021916908373ffffffffffffffffffffffffffffffffffffffff1602179055506101408201518160090160006101000a81548173ffffffffffffffffffffffffffffffffffffffff021916908373ffffffffffffffffffffffffffffffffffffffff16021790555090505060006005600001600560010154600560030154600560040160009054906101000a900460ff16600560040160019054906101000a900473ffffffffffffffffffffffffffffffffffffffff16600560060160009054906101000a900473ffffffffffffffffffffffffffffffffffffffff16600560070160009054906101000a900473ffffffffffffffffffffffffffffffffffffffff16600560080160009054906101000a900473ffffffffffffffffffffffffffffffffffffffff16600560090160009054906101000a900473ffffffffffffffffffffffffffffffffffffffff163060405160240162000b0f9a9998979695949392919062001fbb565b6040516020818303038152906040527f5d514d69000000000000000000000000000000000000000000000000000000007bffffffffffffffffffffffffffffffffffffffffffffffffffffffff19166020820180517bffffffffffffffffffffffffffffffffffffffffffffffffffffffff8381831617835250505050905060007f00000000000000000000000000000000000000000000000000000000000000008260405162000bc090620019e1565b62000bcd92919062001e57565b604051809103906000f08015801562000bea573d6000803e3d6000fd5b5090506003819080600181540180825580915050600190039060005260206000200160009091909190916101000a81548173ffffffffffffffffffffffffffffffffffffffff021916908373ffffffffffffffffffffffffffffffffffffffff1602179055507f6f41e080f0ba3b200797d7e512fbca5fa5d4b72f7d8fb62d6fb40997ea96798060056000018260405162000c8792919062001f87565b60405180910390a160056000808201600062000ca49190620019ef565b6001820160009055600282016000905560038201600090556004820160006101000a81549060ff02191690556004820160016101000a81549073ffffffffffffffffffffffffffffffffffffffff02191690556005820160006101000a81549073ffffffffffffffffffffffffffffffffffffffff02191690556006820160006101000a81549073ffffffffffffffffffffffffffffffffffffffff02191690556007820160006101000a81549073ffffffffffffffffffffffffffffffffffffffff02191690556008820160006101000a81549073ffffffffffffffffffffffffffffffffffffffff02191690556009820160006101000a81549073ffffffffffffffffffffffffffffffffffffffff0219169055505080925050509695505050505050565b600580600001805462000dde9062002208565b80601f016020809104026020016040519081016040528092919081815260200182805462000e0c9062002208565b801562000e5d5780601f1062000e315761010080835404028352916020019162000e5d565b820191906000526020600020905b81548152906001019060200180831162000e3f57829003601f168201915b5050505050908060010154908060020154908060030154908060040160009054906101000a900460ff16908060040160019054906101000a900473ffffffffffffffffffffffffffffffffffffffff16908060050160009054906101000a900473ffffffffffffffffffffffffffffffffffffffff16908060060160009054906101000a900473ffffffffffffffffffffffffffffffffffffffff16908060070160009054906101000a900473ffffffffffffffffffffffffffffffffffffffff16908060080160009054906101000a900473ffffffffffffffffffffffffffffffffffffffff16908060090160009054906101000a900473ffffffffffffffffffffffffffffffffffffffff1690508b565b60008060009054906101000a900473ffffffffffffffffffffffffffffffffffffffff16905090565b62000fa362001884565b73ffffffffffffffffffffffffffffffffffffffff1662000fc362000f70565b73ffffffffffffffffffffffffffffffffffffffff16146200101c576040517f08c379a0000000000000000000000000000000000000000000000000000000008152600401620010139062002094565b60405180910390fd5b6001600f60008282546200103191906200212b565b92505081905550565b6200104462001884565b73ffffffffffffffffffffffffffffffffffffffff166200106462000f70565b73ffffffffffffffffffffffffffffffffffffffff1614620010bd576040517f08c379a0000000000000000000000000000000000000000000000000000000008152600401620010b49062002094565b60405180910390fd5b6000606060005b6003805490508110156200125a5760038181548110620010e957620010e8620022ea565b5b9060005260206000200160009054906101000a900473ffffffffffffffffffffffffffffffffffffffff1673ffffffffffffffffffffffffffffffffffffffff166040516024016040516020818303038152906040527f0655465a000000000000000000000000000000000000000000000000000000007bffffffffffffffffffffffffffffffffffffffffffffffffffffffff19166020820180517bffffffffffffffffffffffffffffffffffffffffffffffffffffffff8381831617835250505050604051620011bc919062001e21565b6000604051808303816000865af19150503d8060008114620011fb576040519150601f19603f3d011682016040523d82523d6000602084013e62001200565b606091505b5080935081945050507f13848c3e38f8886f3f5d2ad9dff80d8092c2bbb8efd5b887a99c2c6cfc09ac2a83836040516200123c92919062001e8b565b60405180910390a1808062001251906200223e565b915050620010c4565b505050565b600460205281600052604060002081815481106200127c57600080fd5b906000526020600020016000915091509054906101000a900473ffffffffffffffffffffffffffffffffffffffff1681565b620012b862001884565b73ffffffffffffffffffffffffffffffffffffffff16620012d862000f70565b73ffffffffffffffffffffffffffffffffffffffff161462001331576040517f08c379a0000000000000000000000000000000000000000000000000000000008152600401620013289062002094565b60405180910390fd5b6000606060005b600380549050811015620014ce57600381815481106200135d576200135c620022ea565b5b9060005260206000200160009054906101000a900473ffffffffffffffffffffffffffffffffffffffff1673ffffffffffffffffffffffffffffffffffffffff166040516024016040516020818303038152906040527fa2bc091a000000000000000000000000000000000000000000000000000000007bffffffffffffffffffffffffffffffffffffffffffffffffffffffff19166020820180517bffffffffffffffffffffffffffffffffffffffffffffffffffffffff838183161783525050505060405162001430919062001e21565b6000604051808303816000865af19150503d80600081146200146f576040519150601f19603f3d011682016040523d82523d6000602084013e62001474565b606091505b5080935081945050507f13848c3e38f8886f3f5d2ad9dff80d8092c2bbb8efd5b887a99c2c6cfc09ac2a8383604051620014b092919062001e8b565b60405180910390a18080620014c5906200223e565b91505062001338565b505050565b60008082604051620014e59062001a35565b620014f1919062001e3a565b604051809103906000f0801580156200150e573d6000803e3d6000fd5b50905080600260006101000a81548173ffffffffffffffffffffffffffffffffffffffff021916908373ffffffffffffffffffffffffffffffffffffffff16021790555080915050919050565b6200156562001884565b73ffffffffffffffffffffffffffffffffffffffff166200158562000f70565b73ffffffffffffffffffffffffffffffffffffffff1614620015de576040517f08c379a0000000000000000000000000000000000000000000000000000000008152600401620015d59062002094565b60405180910390fd5b6000606060005b6003805490508110156200177b57600381815481106200160a5762001609620022ea565b5b9060005260206000200160009054906101000a900473ffffffffffffffffffffffffffffffffffffffff1673ffffffffffffffffffffffffffffffffffffffff166040516024016040516020818303038152906040527fc8be3b5b000000000000000000000000000000000000000000000000000000007bffffffffffffffffffffffffffffffffffffffffffffffffffffffff19166020820180517bffffffffffffffffffffffffffffffffffffffffffffffffffffffff8381831617835250505050604051620016dd919062001e21565b6000604051808303816000865af19150503d80600081146200171c576040519150601f19603f3d011682016040523d82523d6000602084013e62001721565b606091505b5080935081945050507f13848c3e38f8886f3f5d2ad9dff80d8092c2bbb8efd5b887a99c2c6cfc09ac2a83836040516200175d92919062001e8b565b60405180910390a1808062001772906200223e565b915050620015e5565b505050565b6200178a62001884565b73ffffffffffffffffffffffffffffffffffffffff16620017aa62000f70565b73ffffffffffffffffffffffffffffffffffffffff161462001803576040517f08c379a0000000000000000000000000000000000000000000000000000000008152600401620017fa9062002094565b60405180910390fd5b600073ffffffffffffffffffffffffffffffffffffffff168173ffffffffffffffffffffffffffffffffffffffff16141562001876576040517f08c379a00000000000000000000000000000000000000000000000000000000081526004016200186d9062002072565b60405180910390fd5b62001881816200188c565b50565b600033905090565b60008060009054906101000a900473ffffffffffffffffffffffffffffffffffffffff169050816000806101000a81548173ffffffffffffffffffffffffffffffffffffffff021916908373ffffffffffffffffffffffffffffffffffffffff1602179055508173ffffffffffffffffffffffffffffffffffffffff168173ffffffffffffffffffffffffffffffffffffffff167f8be0079c531659141344cd1fd0a4f28419497f9722a3daafe3b4186f6b6457e060405160405180910390a35050565b8280546200195e9062002208565b90600052602060002090601f016020900481019282620019825760008555620019ce565b82601f106200199d57805160ff1916838001178555620019ce565b82800160010185558215620019ce579182015b82811115620019cd578251825591602001919060010190620019b0565b5b509050620019dd919062001a43565b5090565b6130e7806200240a83390190565b508054620019fd9062002208565b6000825580601f1062001a11575062001a32565b601f01602090049060005260206000209081019062001a31919062001a43565b5b50565b610a9180620054f183390190565b5b8082111562001a5e57600081600090555060010162001a44565b5090565b60008135905062001a7381620023bb565b92915050565b60008135905062001a8a81620023d5565b92915050565b60008083601f84011262001aa95762001aa86200231e565b5b8235905067ffffffffffffffff81111562001ac95762001ac862002319565b5b60208301915083600182028301111562001ae85762001ae762002323565b5b9250929050565b60008135905062001b0081620023ef565b92915050565b60006020828403121562001b1f5762001b1e6200232d565b5b600062001b2f8482850162001a62565b91505092915050565b6000806040838503121562001b525762001b516200232d565b5b600062001b628582860162001a62565b925050602062001b758582860162001aef565b9150509250929050565b60008060008060008060a0878903121562001b9f5762001b9e6200232d565b5b600087013567ffffffffffffffff81111562001bc05762001bbf62002328565b5b62001bce89828a0162001a90565b9650965050602062001be389828a0162001aef565b945050604062001bf689828a0162001a79565b935050606062001c0989828a0162001a62565b925050608062001c1c89828a0162001a62565b9150509295509295509295565b60006020828403121562001c425762001c416200232d565b5b600062001c528482850162001aef565b91505092915050565b62001c668162002188565b82525050565b62001c77816200219c565b82525050565b600062001c8a82620020e8565b62001c968185620020fe565b935062001ca8818560208601620021d2565b62001cb38162002332565b840191505092915050565b600062001ccb82620020e8565b62001cd781856200210f565b935062001ce9818560208601620021d2565b80840191505092915050565b600062001d0282620020f3565b62001d0e81856200211a565b935062001d20818560208601620021d2565b62001d2b8162002332565b840191505092915050565b6000815462001d458162002208565b62001d5181866200211a565b9450600182166000811462001d6f576001811462001d825762001db9565b60ff198316865260208601935062001db9565b62001d8d85620020d3565b60005b8381101562001db15781548189015260018201915060208101905062001d90565b808801955050505b50505092915050565b600062001dd16026836200211a565b915062001dde8262002343565b604082019050919050565b600062001df86020836200211a565b915062001e058262002392565b602082019050919050565b62001e1b81620021c8565b82525050565b600062001e2f828462001cbe565b915081905092915050565b600060208201905062001e51600083018462001c5b565b92915050565b600060408201905062001e6e600083018562001c5b565b818103602083015262001e82818462001c7d565b90509392505050565b600060408201905062001ea2600083018562001c6c565b818103602083015262001eb6818462001c7d565b90509392505050565b600061016082019050818103600083015262001edc818e62001cf5565b905062001eed602083018d62001e10565b62001efc604083018c62001e10565b62001f0b606083018b62001e10565b62001f1a608083018a62001c6c565b62001f2960a083018962001c5b565b62001f3860c083018862001c5b565b62001f4760e083018762001c5b565b62001f5761010083018662001c5b565b62001f6761012083018562001c5b565b62001f7761014083018462001c5b565b9c9b505050505050505050505050565b6000604082019050818103600083015262001fa3818562001d36565b905062001fb4602083018462001c5b565b9392505050565b600061014082019050818103600083015262001fd8818d62001d36565b905062001fe9602083018c62001e10565b62001ff8604083018b62001e10565b62002007606083018a62001c6c565b62002016608083018962001c5b565b6200202560a083018862001c5b565b6200203460c083018762001c5b565b6200204360e083018662001c5b565b6200205361010083018562001c5b565b6200206361012083018462001c5b565b9b9a5050505050505050505050565b600060208201905081810360008301526200208d8162001dc2565b9050919050565b60006020820190508181036000830152620020af8162001de9565b9050919050565b6000602082019050620020cd600083018462001e10565b92915050565b60008190508160005260206000209050919050565b600081519050919050565b600081519050919050565b600082825260208201905092915050565b600081905092915050565b600082825260208201905092915050565b60006200213882620021c8565b91506200214583620021c8565b9250827fffffffffffffffffffffffffffffffffffffffffffffffffffffffffffffffff038211156200217d576200217c6200228c565b5b828201905092915050565b60006200219582620021a8565b9050919050565b60008115159050919050565b600073ffffffffffffffffffffffffffffffffffffffff82169050919050565b6000819050919050565b60005b83811015620021f2578082015181840152602081019050620021d5565b8381111562002202576000848401525b50505050565b600060028204905060018216806200222157607f821691505b60208210811415620022385762002237620022bb565b5b50919050565b60006200224b82620021c8565b91507fffffffffffffffffffffffffffffffffffffffffffffffffffffffffffffffff8214156200228157620022806200228c565b5b600182019050919050565b7f4e487b7100000000000000000000000000000000000000000000000000000000600052601160045260246000fd5b7f4e487b7100000000000000000000000000000000000000000000000000000000600052602260045260246000fd5b7f4e487b7100000000000000000000000000000000000000000000000000000000600052603260045260246000fd5b600080fd5b600080fd5b600080fd5b600080fd5b600080fd5b6000601f19601f8301169050919050565b7f4f776e61626c653a206e6577206f776e657220697320746865207a65726f206160008201527f6464726573730000000000000000000000000000000000000000000000000000602082015250565b7f4f776e61626c653a2063616c6c6572206973206e6f7420746865206f776e6572600082015250565b620023c68162002188565b8114620023d257600080fd5b50565b620023e0816200219c565b8114620023ec57600080fd5b50565b620023fa81620021c8565b81146200240657600080fd5b5056fe6080604052604051620030e7380380620030e78339818101604052810190620000299190620006bb565b620000496200003d620000cf60201b60201c565b620000d760201b60201c565b60017fa3f0ad74e5423aebfd80d3ef4346578335a9a72aeaee59ff6cb3582b35133d5160001c6200007b919062000942565b60001b7fa3f0ad74e5423aebfd80d3ef4346578335a9a72aeaee59ff6cb3582b35133d5060001b14620000b357620000b262000a27565b5b620000c7828260006200019b60201b60201c565b505062000be0565b600033905090565b60008060009054906101000a900473ffffffffffffffffffffffffffffffffffffffff169050816000806101000a81548173ffffffffffffffffffffffffffffffffffffffff021916908373ffffffffffffffffffffffffffffffffffffffff1602179055508173ffffffffffffffffffffffffffffffffffffffff168173ffffffffffffffffffffffffffffffffffffffff167f8be0079c531659141344cd1fd0a4f28419497f9722a3daafe3b4186f6b6457e060405160405180910390a35050565b620001ac83620002a260201b60201c565b8273ffffffffffffffffffffffffffffffffffffffff167f1cf3b03a6cf19fa2baba4df148e9dcabedea7f8a5c07840e207e5c089be95d3e60405160405180910390a2600082511180620001fd5750805b156200029d576200029b8373ffffffffffffffffffffffffffffffffffffffff16635c60da1b6040518163ffffffff1660e01b815260040160206040518083038186803b1580156200024e57600080fd5b505afa15801562000263573d6000803e3d6000fd5b505050506040513d601f19601f8201168201806040525081019062000289919062000689565b836200045160201b620010561760201c565b505b505050565b620002b8816200048760201b620010831760201c565b620002fa576040517f08c379a0000000000000000000000000000000000000000000000000000000008152600401620002f1906200084b565b60405180910390fd5b620003918173ffffffffffffffffffffffffffffffffffffffff16635c60da1b6040518163ffffffff1660e01b815260040160206040518083038186803b1580156200034557600080fd5b505afa1580156200035a573d6000803e3d6000fd5b505050506040513d601f19601f8201168201806040525081019062000380919062000689565b6200048760201b620010831760201c565b620003d3576040517f08c379a0000000000000000000000000000000000000000000000000000000008152600401620003ca906200088f565b60405180910390fd5b806200040d7fa3f0ad74e5423aebfd80d3ef4346578335a9a72aeaee59ff6cb3582b35133d5060001b6200049a60201b620010961760201c565b60000160006101000a81548173ffffffffffffffffffffffffffffffffffffffff021916908373ffffffffffffffffffffffffffffffffffffffff16021790555050565b60606200047f8383604051806060016040528060278152602001620030c060279139620004a460201b60201c565b905092915050565b600080823b905060008111915050919050565b6000819050919050565b6060620004b7846200048760201b60201c565b620004f9576040517f08c379a0000000000000000000000000000000000000000000000000000000008152600401620004f0906200086d565b60405180910390fd5b6000808573ffffffffffffffffffffffffffffffffffffffff16856040516200052391906200080e565b600060405180830381855af49150503d806000811462000560576040519150601f19603f3d011682016040523d82523d6000602084013e62000565565b606091505b50915091506200057d8282866200058860201b60201c565b925050509392505050565b606083156200059a57829050620005ed565b600083511115620005ae5782518084602001fd5b816040517f08c379a0000000000000000000000000000000000000000000000000000000008152600401620005e4919062000827565b60405180910390fd5b9392505050565b60006200060b6200060584620008da565b620008b1565b9050828152602081018484840111156200062a576200062962000ab9565b5b62000637848285620009bb565b509392505050565b600081519050620006508162000bc6565b92915050565b600082601f8301126200066e576200066d62000ab4565b5b815162000680848260208601620005f4565b91505092915050565b600060208284031215620006a257620006a162000ac3565b5b6000620006b2848285016200063f565b91505092915050565b60008060408385031215620006d557620006d462000ac3565b5b6000620006e5858286016200063f565b925050602083015167ffffffffffffffff81111562000709576200070862000abe565b5b620007178582860162000656565b9150509250929050565b60006200072e8262000910565b6200073a818562000926565b93506200074c818560208601620009bb565b80840191505092915050565b600062000765826200091b565b62000771818562000931565b935062000783818560208601620009bb565b6200078e8162000ac8565b840191505092915050565b6000620007a860258362000931565b9150620007b58262000ad9565b604082019050919050565b6000620007cf60268362000931565b9150620007dc8262000b28565b604082019050919050565b6000620007f660308362000931565b9150620008038262000b77565b604082019050919050565b60006200081c828462000721565b915081905092915050565b6000602082019050818103600083015262000843818462000758565b905092915050565b60006020820190508181036000830152620008668162000799565b9050919050565b600060208201905081810360008301526200088881620007c0565b9050919050565b60006020820190508181036000830152620008aa81620007e7565b9050919050565b6000620008bd620008d0565b9050620008cb8282620009f1565b919050565b6000604051905090565b600067ffffffffffffffff821115620008f857620008f762000a85565b5b620009038262000ac8565b9050602081019050919050565b600081519050919050565b600081519050919050565b600081905092915050565b600082825260208201905092915050565b60006200094f82620009b1565b91506200095c83620009b1565b92508282101562000972576200097162000a56565b5b828203905092915050565b60006200098a8262000991565b9050919050565b600073ffffffffffffffffffffffffffffffffffffffff82169050919050565b6000819050919050565b60005b83811015620009db578082015181840152602081019050620009be565b83811115620009eb576000848401525b50505050565b620009fc8262000ac8565b810181811067ffffffffffffffff8211171562000a1e5762000a1d62000a85565b5b80604052505050565b7f4e487b7100000000000000000000000000000000000000000000000000000000600052600160045260246000fd5b7f4e487b7100000000000000000000000000000000000000000000000000000000600052601160045260246000fd5b7f4e487b7100000000000000000000000000000000000000000000000000000000600052604160045260246000fd5b600080fd5b600080fd5b600080fd5b600080fd5b6000601f19601f8301169050919050565b7f455243313936373a206e657720626561636f6e206973206e6f74206120636f6e60008201527f7472616374000000000000000000000000000000000000000000000000000000602082015250565b7f416464726573733a2064656c65676174652063616c6c20746f206e6f6e2d636f60008201527f6e74726163740000000000000000000000000000000000000000000000000000602082015250565b7f455243313936373a20626561636f6e20696d706c656d656e746174696f6e206960008201527f73206e6f74206120636f6e747261637400000000000000000000000000000000602082015250565b62000bd1816200097d565b811462000bdd57600080fd5b50565b6124d08062000bf06000396000f3fe6080604052600436106101695760003560e01c8063715018a6116100d157806393f3706c1161008a578063d547741f11610064578063d547741f14610593578063dc9a1535146105bc578063e2ec6ec3146105e7578063f2fde38b1461062457610178565b806393f3706c146105005780639b19251a1461052b578063a217fddf1461056857610178565b8063715018a6146103ee5780637b9417c8146104055780637eed33f114610442578063841abf6e1461046d5780638da5cb5b1461049857806391d14854146104c357610178565b8063286dd3f511610123578063286dd3f5146102de5780632f2ff15d1461031b57806336568abe1461034457806352e6e5f31461036d57806354fd4d501461039857806360c7dc47146103c357610178565b8062b2476f1461018257806301ffc9a7146101ad5780630c6f7959146101ea578063248a9ca31461022757806324953eaa14610264578063267175db146102a157610178565b366101785761017661064d565b005b61018061064d565b005b34801561018e57600080fd5b50610197610667565b6040516101a49190611d7e565b60405180910390f35b3480156101b957600080fd5b506101d460048036038101906101cf9190611b07565b61068d565b6040516101e19190611d99565b60405180910390f35b3480156101f657600080fd5b50610211600480360381019061020c9190611a11565b610707565b60405161021e9190611e91565b60405180910390f35b34801561023357600080fd5b5061024e60048036038101906102499190611a9a565b61072f565b60405161025b9190611db4565b60405180910390f35b34801561027057600080fd5b5061028b60048036038101906102869190611a51565b61074f565b6040516102989190611d99565b60405180910390f35b3480156102ad57600080fd5b506102c860048036038101906102c39190611b34565b610839565b6040516102d59190611d7e565b60405180910390f35b3480156102ea57600080fd5b50610305600480360381019061030091906119b7565b610878565b6040516103129190611d99565b60405180910390f35b34801561032757600080fd5b50610342600480360381019061033d9190611ac7565b6109fb565b005b34801561035057600080fd5b5061036b60048036038101906103669190611ac7565b610a24565b005b34801561037957600080fd5b50610382610aa7565b60405161038f9190611e91565b60405180910390f35b3480156103a457600080fd5b506103ad610aad565b6040516103ba9190611e91565b60405180910390f35b3480156103cf57600080fd5b506103d8610ab3565b6040516103e59190611e91565b60405180910390f35b3480156103fa57600080fd5b50610403610ab9565b005b34801561041157600080fd5b5061042c600480360381019061042791906119b7565b610b41565b6040516104399190611d99565b60405180910390f35b34801561044e57600080fd5b50610457610cc3565b6040516104649190611e91565b60405180910390f35b34801561047957600080fd5b50610482610cc9565b60405161048f9190611dcf565b60405180910390f35b3480156104a457600080fd5b506104ad610d57565b6040516104ba9190611d7e565b60405180910390f35b3480156104cf57600080fd5b506104ea60048036038101906104e59190611ac7565b610d80565b6040516104f79190611d99565b60405180910390f35b34801561050c57600080fd5b50610515610deb565b6040516105229190611d7e565b60405180910390f35b34801561053757600080fd5b50610552600480360381019061054d91906119b7565b610e11565b60405161055f9190611d99565b60405180910390f35b34801561057457600080fd5b5061057d610e31565b60405161058a9190611db4565b60405180910390f35b34801561059f57600080fd5b506105ba60048036038101906105b59190611ac7565b610e38565b005b3480156105c857600080fd5b506105d1610e61565b6040516105de9190611d99565b60405180910390f35b3480156105f357600080fd5b5061060e60048036038101906106099190611a51565b610e74565b60405161061b9190611d99565b60405180910390f35b34801561063057600080fd5b5061064b600480360381019061064691906119b7565b610f5e565b005b6106556110a0565b6106656106606110a2565b61112e565b565b601260009054906101000a900473ffffffffffffffffffffffffffffffffffffffff1681565b60007f7965db0b000000000000000000000000000000000000000000000000000000007bffffffffffffffffffffffffffffffffffffffffffffffffffffffff1916827bffffffffffffffffffffffffffffffffffffffffffffffffffffffff1916148061070057506106ff82611154565b5b9050919050565b600c602052816000526040600020816008811061072357600080fd5b01600091509150505481565b600060016000838152602001908152602001600020600101549050919050565b60006107596111be565b73ffffffffffffffffffffffffffffffffffffffff16610777610d57565b73ffffffffffffffffffffffffffffffffffffffff16146107cd576040517f08c379a00000000000000000000000000000000000000000000000000000000081526004016107c490611e31565b60405180910390fd5b60005b8251811015610833576107fc8382815181106107ef576107ee612203565b5b6020026020010151610878565b15610820576001600360008282546108149190611fea565b92505081905550600191505b808061082b9061215c565b9150506107d0565b50919050565b6009818154811061084957600080fd5b906000526020600020016000915054906101000a900473ffffffffffffffffffffffffffffffffffffffff1681565b60006108826111be565b73ffffffffffffffffffffffffffffffffffffffff166108a0610d57565b73ffffffffffffffffffffffffffffffffffffffff16146108f6576040517f08c379a00000000000000000000000000000000000000000000000000000000081526004016108ed90611e31565b60405180910390fd5b600260008373ffffffffffffffffffffffffffffffffffffffff1673ffffffffffffffffffffffffffffffffffffffff16815260200190815260200160002060009054906101000a900460ff16156109f6576000600260008473ffffffffffffffffffffffffffffffffffffffff1673ffffffffffffffffffffffffffffffffffffffff16815260200190815260200160002060006101000a81548160ff0219169083151502179055507ff1abf01a1043b7c244d128e8595cf0c1d10743b022b03a02dffd8ca3bf729f5a826040516109cf9190611d7e565b60405180910390a16001600360008282546109ea9190611fea565b92505081905550600190505b919050565b610a048261072f565b610a1581610a106111be565b6111c6565b610a1f8383611263565b505050565b610a2c6111be565b73ffffffffffffffffffffffffffffffffffffffff168173ffffffffffffffffffffffffffffffffffffffff1614610a99576040517f08c379a0000000000000000000000000000000000000000000000000000000008152600401610a9090611e71565b60405180910390fd5b610aa38282611343565b5050565b60085481565b60055481565b600f5481565b610ac16111be565b73ffffffffffffffffffffffffffffffffffffffff16610adf610d57565b73ffffffffffffffffffffffffffffffffffffffff1614610b35576040517f08c379a0000000000000000000000000000000000000000000000000000000008152600401610b2c90611e31565b60405180910390fd5b610b3f6000611425565b565b6000610b4b6111be565b73ffffffffffffffffffffffffffffffffffffffff16610b69610d57565b73ffffffffffffffffffffffffffffffffffffffff1614610bbf576040517f08c379a0000000000000000000000000000000000000000000000000000000008152600401610bb690611e31565b60405180910390fd5b600260008373ffffffffffffffffffffffffffffffffffffffff1673ffffffffffffffffffffffffffffffffffffffff16815260200190815260200160002060009054906101000a900460ff16610cbe576001600260008473ffffffffffffffffffffffffffffffffffffffff1673ffffffffffffffffffffffffffffffffffffffff16815260200190815260200160002060006101000a81548160ff0219169083151502179055507fd1bba68c128cc3f427e5831b3c6f99f480b6efa6b9e80c757768f6124158cc3f82604051610c979190611d7e565b60405180910390a1600160036000828254610cb29190611f3a565b92505081905550600190505b919050565b60075481565b60068054610cd6906120f9565b80601f0160208091040260200160405190810160405280929190818152602001828054610d02906120f9565b8015610d4f5780601f10610d2457610100808354040283529160200191610d4f565b820191906000526020600020905b815481529060010190602001808311610d3257829003601f168201915b505050505081565b60008060009054906101000a900473ffffffffffffffffffffffffffffffffffffffff16905090565b60006001600084815260200190815260200160002060000160008373ffffffffffffffffffffffffffffffffffffffff1673ffffffffffffffffffffffffffffffffffffffff16815260200190815260200160002060009054906101000a900460ff16905092915050565b601160009054906101000a900473ffffffffffffffffffffffffffffffffffffffff1681565b60026020528060005260406000206000915054906101000a900460ff1681565b6000801b81565b610e418261072f565b610e5281610e4d6111be565b6111c6565b610e5c8383611343565b505050565b600460009054906101000a900460ff1681565b6000610e7e6111be565b73ffffffffffffffffffffffffffffffffffffffff16610e9c610d57565b73ffffffffffffffffffffffffffffffffffffffff1614610ef2576040517f08c379a0000000000000000000000000000000000000000000000000000000008152600401610ee990611e31565b60405180910390fd5b60005b8251811015610f5857610f21838281518110610f1457610f13612203565b5b6020026020010151610b41565b15610f4557600160036000828254610f399190611f3a565b92505081905550600191505b8080610f509061215c565b915050610ef5565b50919050565b610f666111be565b73ffffffffffffffffffffffffffffffffffffffff16610f84610d57565b73ffffffffffffffffffffffffffffffffffffffff1614610fda576040517f08c379a0000000000000000000000000000000000000000000000000000000008152600401610fd190611e31565b60405180910390fd5b600073ffffffffffffffffffffffffffffffffffffffff168173ffffffffffffffffffffffffffffffffffffffff16141561104a576040517f08c379a000000000000000000000000000000000000000000000000000000000815260040161104190611e11565b60405180910390fd5b61105381611425565b50565b606061107b8383604051806060016040528060278152602001612474602791396114e9565b905092915050565b600080823b905060008111915050919050565b6000819050919050565b565b60006110ac6115b6565b73ffffffffffffffffffffffffffffffffffffffff16635c60da1b6040518163ffffffff1660e01b815260040160206040518083038186803b1580156110f157600080fd5b505afa158015611105573d6000803e3d6000fd5b505050506040513d601f19601f8201168201806040525081019061112991906119e4565b905090565b3660008037600080366000845af43d6000803e806000811461114f573d6000f35b3d6000fd5b60007f01ffc9a7000000000000000000000000000000000000000000000000000000007bffffffffffffffffffffffffffffffffffffffffffffffffffffffff1916827bffffffffffffffffffffffffffffffffffffffffffffffffffffffff1916149050919050565b600033905090565b6111d08282610d80565b61125f576111f58173ffffffffffffffffffffffffffffffffffffffff16601461160d565b6112038360001c602061160d565b604051602001611214929190611d44565b6040516020818303038152906040526040517f08c379a00000000000000000000000000000000000000000000000000000000081526004016112569190611dcf565b60405180910390fd5b5050565b61126d8282610d80565b61133f57600180600084815260200190815260200160002060000160008373ffffffffffffffffffffffffffffffffffffffff1673ffffffffffffffffffffffffffffffffffffffff16815260200190815260200160002060006101000a81548160ff0219169083151502179055506112e46111be565b73ffffffffffffffffffffffffffffffffffffffff168173ffffffffffffffffffffffffffffffffffffffff16837f2f8788117e7eff1d82e926ec794901d17c78024a50270940304540a733656f0d60405160405180910390a45b5050565b61134d8282610d80565b156114215760006001600084815260200190815260200160002060000160008373ffffffffffffffffffffffffffffffffffffffff1673ffffffffffffffffffffffffffffffffffffffff16815260200190815260200160002060006101000a81548160ff0219169083151502179055506113c66111be565b73ffffffffffffffffffffffffffffffffffffffff168173ffffffffffffffffffffffffffffffffffffffff16837ff6391f5c32d9c69d2a47ea670b442974b53935d1edc7fd64eb21e047a839171b60405160405180910390a45b5050565b60008060009054906101000a900473ffffffffffffffffffffffffffffffffffffffff169050816000806101000a81548173ffffffffffffffffffffffffffffffffffffffff021916908373ffffffffffffffffffffffffffffffffffffffff1602179055508173ffffffffffffffffffffffffffffffffffffffff168173ffffffffffffffffffffffffffffffffffffffff167f8be0079c531659141344cd1fd0a4f28419497f9722a3daafe3b4186f6b6457e060405160405180910390a35050565b60606114f484611083565b611533576040517f08c379a000000000000000000000000000000000000000000000000000000000815260040161152a90611e51565b60405180910390fd5b6000808573ffffffffffffffffffffffffffffffffffffffff168560405161155b9190611d2d565b600060405180830381855af49150503d8060008114611596576040519150601f19603f3d011682016040523d82523d6000602084013e61159b565b606091505b50915091506115ab828286611849565b925050509392505050565b60006115e47fa3f0ad74e5423aebfd80d3ef4346578335a9a72aeaee59ff6cb3582b35133d5060001b611096565b60000160009054906101000a900473ffffffffffffffffffffffffffffffffffffffff16905090565b6060600060028360026116209190611f90565b61162a9190611f3a565b67ffffffffffffffff81111561164357611642612232565b5b6040519080825280601f01601f1916602001820160405280156116755781602001600182028036833780820191505090505b5090507f3000000000000000000000000000000000000000000000000000000000000000816000815181106116ad576116ac612203565b5b60200101907effffffffffffffffffffffffffffffffffffffffffffffffffffffffffffff1916908160001a9053507f78000000000000000000000000000000000000000000000000000000000000008160018151811061171157611710612203565b5b60200101907effffffffffffffffffffffffffffffffffffffffffffffffffffffffffffff1916908160001a905350600060018460026117519190611f90565b61175b9190611f3a565b90505b60018111156117fb577f3031323334353637383961626364656600000000000000000000000000000000600f86166010811061179d5761179c612203565b5b1a60f81b8282815181106117b4576117b3612203565b5b60200101907effffffffffffffffffffffffffffffffffffffffffffffffffffffffffffff1916908160001a905350600485901c9450806117f4906120cf565b905061175e565b506000841461183f576040517f08c379a000000000000000000000000000000000000000000000000000000000815260040161183690611df1565b60405180910390fd5b8091505092915050565b60608315611859578290506118a9565b60008351111561186c5782518084602001fd5b816040517f08c379a00000000000000000000000000000000000000000000000000000000081526004016118a09190611dcf565b60405180910390fd5b9392505050565b60006118c36118be84611ed1565b611eac565b905080838252602082019050828560208602820111156118e6576118e5612266565b5b60005b8581101561191657816118fc8882611920565b8452602084019350602083019250506001810190506118e9565b5050509392505050565b60008135905061192f81612417565b92915050565b60008151905061194481612417565b92915050565b600082601f83011261195f5761195e612261565b5b813561196f8482602086016118b0565b91505092915050565b6000813590506119878161242e565b92915050565b60008135905061199c81612445565b92915050565b6000813590506119b18161245c565b92915050565b6000602082840312156119cd576119cc612270565b5b60006119db84828501611920565b91505092915050565b6000602082840312156119fa576119f9612270565b5b6000611a0884828501611935565b91505092915050565b60008060408385031215611a2857611a27612270565b5b6000611a3685828601611920565b9250506020611a47858286016119a2565b9150509250929050565b600060208284031215611a6757611a66612270565b5b600082013567ffffffffffffffff811115611a8557611a8461226b565b5b611a918482850161194a565b91505092915050565b600060208284031215611ab057611aaf612270565b5b6000611abe84828501611978565b91505092915050565b60008060408385031215611ade57611add612270565b5b6000611aec85828601611978565b9250506020611afd85828601611920565b9150509250929050565b600060208284031215611b1d57611b1c612270565b5b6000611b2b8482850161198d565b91505092915050565b600060208284031215611b4a57611b49612270565b5b6000611b58848285016119a2565b91505092915050565b611b6a8161201e565b82525050565b611b7981612030565b82525050565b611b888161203c565b82525050565b6000611b9982611efd565b611ba38185611f13565b9350611bb381856020860161209c565b80840191505092915050565b6000611bca82611f08565b611bd48185611f1e565b9350611be481856020860161209c565b611bed81612275565b840191505092915050565b6000611c0382611f08565b611c0d8185611f2f565b9350611c1d81856020860161209c565b80840191505092915050565b6000611c36602083611f1e565b9150611c4182612286565b602082019050919050565b6000611c59602683611f1e565b9150611c64826122af565b604082019050919050565b6000611c7c602083611f1e565b9150611c87826122fe565b602082019050919050565b6000611c9f602683611f1e565b9150611caa82612327565b604082019050919050565b6000611cc2601783611f2f565b9150611ccd82612376565b601782019050919050565b6000611ce5601183611f2f565b9150611cf08261239f565b601182019050919050565b6000611d08602f83611f1e565b9150611d13826123c8565b604082019050919050565b611d2781612092565b82525050565b6000611d398284611b8e565b915081905092915050565b6000611d4f82611cb5565b9150611d5b8285611bf8565b9150611d6682611cd8565b9150611d728284611bf8565b91508190509392505050565b6000602082019050611d936000830184611b61565b92915050565b6000602082019050611dae6000830184611b70565b92915050565b6000602082019050611dc96000830184611b7f565b92915050565b60006020820190508181036000830152611de98184611bbf565b905092915050565b60006020820190508181036000830152611e0a81611c29565b9050919050565b60006020820190508181036000830152611e2a81611c4c565b9050919050565b60006020820190508181036000830152611e4a81611c6f565b9050919050565b60006020820190508181036000830152611e6a81611c92565b9050919050565b60006020820190508181036000830152611e8a81611cfb565b9050919050565b6000602082019050611ea66000830184611d1e565b92915050565b6000611eb6611ec7565b9050611ec2828261212b565b919050565b6000604051905090565b600067ffffffffffffffff821115611eec57611eeb612232565b5b602082029050602081019050919050565b600081519050919050565b600081519050919050565b600081905092915050565b600082825260208201905092915050565b600081905092915050565b6000611f4582612092565b9150611f5083612092565b9250827fffffffffffffffffffffffffffffffffffffffffffffffffffffffffffffffff03821115611f8557611f846121a5565b5b828201905092915050565b6000611f9b82612092565b9150611fa683612092565b9250817fffffffffffffffffffffffffffffffffffffffffffffffffffffffffffffffff0483118215151615611fdf57611fde6121a5565b5b828202905092915050565b6000611ff582612092565b915061200083612092565b925082821015612013576120126121a5565b5b828203905092915050565b600061202982612072565b9050919050565b60008115159050919050565b6000819050919050565b60007fffffffff0000000000000000000000000000000000000000000000000000000082169050919050565b600073ffffffffffffffffffffffffffffffffffffffff82169050919050565b6000819050919050565b60005b838110156120ba57808201518184015260208101905061209f565b838111156120c9576000848401525b50505050565b60006120da82612092565b915060008214156120ee576120ed6121a5565b5b600182039050919050565b6000600282049050600182168061211157607f821691505b60208210811415612125576121246121d4565b5b50919050565b61213482612275565b810181811067ffffffffffffffff8211171561215357612152612232565b5b80604052505050565b600061216782612092565b91507fffffffffffffffffffffffffffffffffffffffffffffffffffffffffffffffff82141561219a576121996121a5565b5b600182019050919050565b7f4e487b7100000000000000000000000000000000000000000000000000000000600052601160045260246000fd5b7f4e487b7100000000000000000000000000000000000000000000000000000000600052602260045260246000fd5b7f4e487b7100000000000000000000000000000000000000000000000000000000600052603260045260246000fd5b7f4e487b7100000000000000000000000000000000000000000000000000000000600052604160045260246000fd5b600080fd5b600080fd5b600080fd5b600080fd5b6000601f19601f8301169050919050565b7f537472696e67733a20686578206c656e67746820696e73756666696369656e74600082015250565b7f4f776e61626c653a206e6577206f776e657220697320746865207a65726f206160008201527f6464726573730000000000000000000000000000000000000000000000000000602082015250565b7f4f776e61626c653a2063616c6c6572206973206e6f7420746865206f776e6572600082015250565b7f416464726573733a2064656c65676174652063616c6c20746f206e6f6e2d636f60008201527f6e74726163740000000000000000000000000000000000000000000000000000602082015250565b7f416363657373436f6e74726f6c3a206163636f756e7420000000000000000000600082015250565b7f206973206d697373696e6720726f6c6520000000000000000000000000000000600082015250565b7f416363657373436f6e74726f6c3a2063616e206f6e6c792072656e6f756e636560008201527f20726f6c657320666f722073656c660000000000000000000000000000000000602082015250565b6124208161201e565b811461242b57600080fd5b50565b6124378161203c565b811461244257600080fd5b50565b61244e81612046565b811461245957600080fd5b50565b61246581612092565b811461247057600080fd5b5056fe416464726573733a206c6f772d6c6576656c2064656c65676174652063616c6c206661696c6564a2646970667358221220672ec759b47c400731f72f6ea5c10d985352b45c5b60416616a02ff71e212bc764736f6c63430008070033416464726573733a206c6f772d6c6576656c2064656c65676174652063616c6c206661696c6564608060405234801561001057600080fd5b5060405162000a9138038062000a91833981810160405281019061003491906101ef565b61005061004561006560201b60201c565b61006d60201b60201c565b61005f8161013160201b60201c565b5061030d565b600033905090565b60008060009054906101000a900473ffffffffffffffffffffffffffffffffffffffff169050816000806101000a81548173ffffffffffffffffffffffffffffffffffffffff021916908373ffffffffffffffffffffffffffffffffffffffff1602179055508173ffffffffffffffffffffffffffffffffffffffff168173ffffffffffffffffffffffffffffffffffffffff167f8be0079c531659141344cd1fd0a4f28419497f9722a3daafe3b4186f6b6457e060405160405180910390a35050565b610144816101c760201b6103781760201c565b610183576040517f08c379a000000000000000000000000000000000000000000000000000000000815260040161017a9061023f565b60405180910390fd5b80600160006101000a81548173ffffffffffffffffffffffffffffffffffffffff021916908373ffffffffffffffffffffffffffffffffffffffff16021790555050565b600080823b905060008111915050919050565b6000815190506101e9816102f6565b92915050565b600060208284031215610205576102046102a2565b5b6000610213848285016101da565b91505092915050565b600061022960338361025f565b9150610234826102a7565b604082019050919050565b600060208201905081810360008301526102588161021c565b9050919050565b600082825260208201905092915050565b600061027b82610282565b9050919050565b600073ffffffffffffffffffffffffffffffffffffffff82169050919050565b600080fd5b7f5570677261646561626c65426561636f6e3a20696d706c656d656e746174696f60008201527f6e206973206e6f74206120636f6e747261637400000000000000000000000000602082015250565b6102ff81610270565b811461030a57600080fd5b50565b610774806200031d6000396000f3fe608060405234801561001057600080fd5b50600436106100575760003560e01c80633659cfe61461005c5780635c60da1b14610078578063715018a6146100965780638da5cb5b146100a0578063f2fde38b146100be575b600080fd5b610076600480360381019061007191906104f8565b6100da565b005b6100806101a5565b60405161008d919061059d565b60405180910390f35b61009e6101cf565b005b6100a8610257565b6040516100b5919061059d565b60405180910390f35b6100d860048036038101906100d391906104f8565b610280565b005b6100e261038b565b73ffffffffffffffffffffffffffffffffffffffff16610100610257565b73ffffffffffffffffffffffffffffffffffffffff1614610156576040517f08c379a000000000000000000000000000000000000000000000000000000000815260040161014d906105f8565b60405180910390fd5b61015f81610393565b8073ffffffffffffffffffffffffffffffffffffffff167fbc7cd75a20ee27fd9adebab32041f755214dbc6bffa90cc0225b39da2e5c2d3b60405160405180910390a250565b6000600160009054906101000a900473ffffffffffffffffffffffffffffffffffffffff16905090565b6101d761038b565b73ffffffffffffffffffffffffffffffffffffffff166101f5610257565b73ffffffffffffffffffffffffffffffffffffffff161461024b576040517f08c379a0000000000000000000000000000000000000000000000000000000008152600401610242906105f8565b60405180910390fd5b610255600061041f565b565b60008060009054906101000a900473ffffffffffffffffffffffffffffffffffffffff16905090565b61028861038b565b73ffffffffffffffffffffffffffffffffffffffff166102a6610257565b73ffffffffffffffffffffffffffffffffffffffff16146102fc576040517f08c379a00000000000000000000000000000000000000000000000000000000081526004016102f3906105f8565b60405180910390fd5b600073ffffffffffffffffffffffffffffffffffffffff168173ffffffffffffffffffffffffffffffffffffffff16141561036c576040517f08c379a0000000000000000000000000000000000000000000000000000000008152600401610363906105b8565b60405180910390fd5b6103758161041f565b50565b600080823b905060008111915050919050565b600033905090565b61039c81610378565b6103db576040517f08c379a00000000000000000000000000000000000000000000000000000000081526004016103d2906105d8565b60405180910390fd5b80600160006101000a81548173ffffffffffffffffffffffffffffffffffffffff021916908373ffffffffffffffffffffffffffffffffffffffff16021790555050565b60008060009054906101000a900473ffffffffffffffffffffffffffffffffffffffff169050816000806101000a81548173ffffffffffffffffffffffffffffffffffffffff021916908373ffffffffffffffffffffffffffffffffffffffff1602179055508173ffffffffffffffffffffffffffffffffffffffff168173ffffffffffffffffffffffffffffffffffffffff167f8be0079c531659141344cd1fd0a4f28419497f9722a3daafe3b4186f6b6457e060405160405180910390a35050565b6000813590506104f281610727565b92915050565b60006020828403121561050e5761050d61065b565b5b600061051c848285016104e3565b91505092915050565b61052e81610629565b82525050565b6000610541602683610618565b915061054c82610660565b604082019050919050565b6000610564603383610618565b915061056f826106af565b604082019050919050565b6000610587602083610618565b9150610592826106fe565b602082019050919050565b60006020820190506105b26000830184610525565b92915050565b600060208201905081810360008301526105d181610534565b9050919050565b600060208201905081810360008301526105f181610557565b9050919050565b600060208201905081810360008301526106118161057a565b9050919050565b600082825260208201905092915050565b60006106348261063b565b9050919050565b600073ffffffffffffffffffffffffffffffffffffffff82169050919050565b600080fd5b7f4f776e61626c653a206e6577206f776e657220697320746865207a65726f206160008201527f6464726573730000000000000000000000000000000000000000000000000000602082015250565b7f5570677261646561626c65426561636f6e3a20696d706c656d656e746174696f60008201527f6e206973206e6f74206120636f6e747261637400000000000000000000000000602082015250565b7f4f776e61626c653a2063616c6c6572206973206e6f7420746865206f776e6572600082015250565b61073081610629565b811461073b57600080fd5b5056fea2646970667358221220f14c1e123fc6650c2510ce92a5938ce8dbd619e20ec5ceb7ad4526f9ccdb6aca64736f6c63430008070033a26469706673582212207bc9615a9bc044c0f370a69494aad4ad1cfcfd1f3b90d4abb94a1f6923ac26aa64736f6c63430008070033608060405234801561001057600080fd5b5060405162000a9138038062000a91833981810160405281019061003491906101ef565b61005061004561006560201b60201c565b61006d60201b60201c565b61005f8161013160201b60201c565b5061030d565b600033905090565b60008060009054906101000a900473ffffffffffffffffffffffffffffffffffffffff169050816000806101000a81548173ffffffffffffffffffffffffffffffffffffffff021916908373ffffffffffffffffffffffffffffffffffffffff1602179055508173ffffffffffffffffffffffffffffffffffffffff168173ffffffffffffffffffffffffffffffffffffffff167f8be0079c531659141344cd1fd0a4f28419497f9722a3daafe3b4186f6b6457e060405160405180910390a35050565b610144816101c760201b6103781760201c565b610183576040517f08c379a000000000000000000000000000000000000000000000000000000000815260040161017a9061023f565b60405180910390fd5b80600160006101000a81548173ffffffffffffffffffffffffffffffffffffffff021916908373ffffffffffffffffffffffffffffffffffffffff16021790555050565b600080823b905060008111915050919050565b6000815190506101e9816102f6565b92915050565b600060208284031215610205576102046102a2565b5b6000610213848285016101da565b91505092915050565b600061022960338361025f565b9150610234826102a7565b604082019050919050565b600060208201905081810360008301526102588161021c565b9050919050565b600082825260208201905092915050565b600061027b82610282565b9050919050565b600073ffffffffffffffffffffffffffffffffffffffff82169050919050565b600080fd5b7f5570677261646561626c65426561636f6e3a20696d706c656d656e746174696f60008201527f6e206973206e6f74206120636f6e747261637400000000000000000000000000602082015250565b6102ff81610270565b811461030a57600080fd5b50565b610774806200031d6000396000f3fe608060405234801561001057600080fd5b50600436106100575760003560e01c80633659cfe61461005c5780635c60da1b14610078578063715018a6146100965780638da5cb5b146100a0578063f2fde38b146100be575b600080fd5b610076600480360381019061007191906104f8565b6100da565b005b6100806101a5565b60405161008d919061059d565b60405180910390f35b61009e6101cf565b005b6100a8610257565b6040516100b5919061059d565b60405180910390f35b6100d860048036038101906100d391906104f8565b610280565b005b6100e261038b565b73ffffffffffffffffffffffffffffffffffffffff16610100610257565b73ffffffffffffffffffffffffffffffffffffffff1614610156576040517f08c379a000000000000000000000000000000000000000000000000000000000815260040161014d906105f8565b60405180910390fd5b61015f81610393565b8073ffffffffffffffffffffffffffffffffffffffff167fbc7cd75a20ee27fd9adebab32041f755214dbc6bffa90cc0225b39da2e5c2d3b60405160405180910390a250565b6000600160009054906101000a900473ffffffffffffffffffffffffffffffffffffffff16905090565b6101d761038b565b73ffffffffffffffffffffffffffffffffffffffff166101f5610257565b73ffffffffffffffffffffffffffffffffffffffff161461024b576040517f08c379a0000000000000000000000000000000000000000000000000000000008152600401610242906105f8565b60405180910390fd5b610255600061041f565b565b60008060009054906101000a900473ffffffffffffffffffffffffffffffffffffffff16905090565b61028861038b565b73ffffffffffffffffffffffffffffffffffffffff166102a6610257565b73ffffffffffffffffffffffffffffffffffffffff16146102fc576040517f08c379a00000000000000000000000000000000000000000000000000000000081526004016102f3906105f8565b60405180910390fd5b600073ffffffffffffffffffffffffffffffffffffffff168173ffffffffffffffffffffffffffffffffffffffff16141561036c576040517f08c379a0000000000000000000000000000000000000000000000000000000008152600401610363906105b8565b60405180910390fd5b6103758161041f565b50565b600080823b905060008111915050919050565b600033905090565b61039c81610378565b6103db576040517f08c379a00000000000000000000000000000000000000000000000000000000081526004016103d2906105d8565b60405180910390fd5b80600160006101000a81548173ffffffffffffffffffffffffffffffffffffffff021916908373ffffffffffffffffffffffffffffffffffffffff16021790555050565b60008060009054906101000a900473ffffffffffffffffffffffffffffffffffffffff169050816000806101000a81548173ffffffffffffffffffffffffffffffffffffffff021916908373ffffffffffffffffffffffffffffffffffffffff1602179055508173ffffffffffffffffffffffffffffffffffffffff168173ffffffffffffffffffffffffffffffffffffffff167f8be0079c531659141344cd1fd0a4f28419497f9722a3daafe3b4186f6b6457e060405160405180910390a35050565b6000813590506104f281610727565b92915050565b60006020828403121561050e5761050d61065b565b5b600061051c848285016104e3565b91505092915050565b61052e81610629565b82525050565b6000610541602683610618565b915061054c82610660565b604082019050919050565b6000610564603383610618565b915061056f826106af565b604082019050919050565b6000610587602083610618565b9150610592826106fe565b602082019050919050565b60006020820190506105b26000830184610525565b92915050565b600060208201905081810360008301526105d181610534565b9050919050565b600060208201905081810360008301526105f181610557565b9050919050565b600060208201905081810360008301526106118161057a565b9050919050565b600082825260208201905092915050565b60006106348261063b565b9050919050565b600073ffffffffffffffffffffffffffffffffffffffff82169050919050565b600080fd5b7f4f776e61626c653a206e6577206f776e657220697320746865207a65726f206160008201527f6464726573730000000000000000000000000000000000000000000000000000602082015250565b7f5570677261646561626c65426561636f6e3a20696d706c656d656e746174696f60008201527f6e206973206e6f74206120636f6e747261637400000000000000000000000000602082015250565b7f4f776e61626c653a2063616c6c6572206973206e6f7420746865206f776e6572600082015250565b61073081610629565b811461073b57600080fd5b5056fea2646970667358221220f14c1e123fc6650c2510ce92a5938ce8dbd619e20ec5ceb7ad4526f9ccdb6aca64736f6c63430008070033608060405234801561001057600080fd5b5061002d61002261003260201b60201c565b61003a60201b60201c565b6100fe565b600033905090565b60008060009054906101000a900473ffffffffffffffffffffffffffffffffffffffff169050816000806101000a81548173ffffffffffffffffffffffffffffffffffffffff021916908373ffffffffffffffffffffffffffffffffffffffff1602179055508173ffffffffffffffffffffffffffffffffffffffff168173ffffffffffffffffffffffffffffffffffffffff167f8be0079c531659141344cd1fd0a4f28419497f9722a3daafe3b4186f6b6457e060405160405180910390a35050565b6110088061010d6000396000f3fe608060405234801561001057600080fd5b506004361061009e5760003560e01c8063c59d484711610066578063c59d484714610147578063d4313da814610165578063edef8b8314610195578063ef5c1020146101c5578063f2fde38b146101e35761009e565b80632186e726146100a357806356185d74146100d3578063715018a6146101035780638da5cb5b1461010d5780639e9d70661461012b575b600080fd5b6100bd60048036038101906100b89190610a79565b6101ff565b6040516100ca9190610d65565b60405180910390f35b6100ed60048036038101906100e89190610a1f565b610230565b6040516100fa9190610d65565b60405180910390f35b61010b61024a565b005b6101156102d2565b6040516101229190610cc6565b60405180910390f35b61014560048036038101906101409190610a79565b6102fb565b005b61014f6103ed565b60405161015c9190610ce1565b60405180910390f35b61017f600480360381019061017a9190610a4c565b6105ad565b60405161018c9190610d03565b60405180910390f35b6101af60048036038101906101aa9190610a4c565b610618565b6040516101bc9190610d65565b60405180910390f35b6101cd610646565b6040516101da9190610ce1565b60405180910390f35b6101fd60048036038101906101f891906109f2565b610707565b005b6001602052816000526040600020818154811061021b57600080fd5b90600052602060002001600091509150505481565b6000600282600001356102439190610e14565b9050919050565b6102526107ff565b73ffffffffffffffffffffffffffffffffffffffff166102706102d2565b73ffffffffffffffffffffffffffffffffffffffff16146102c6576040517f08c379a00000000000000000000000000000000000000000000000000000000081526004016102bd90610d45565b60405180910390fd5b6102d06000610807565b565b60008060009054906101000a900473ffffffffffffffffffffffffffffffffffffffff16905090565b6103036107ff565b73ffffffffffffffffffffffffffffffffffffffff166103216102d2565b73ffffffffffffffffffffffffffffffffffffffff1614610377576040517f08c379a000000000000000000000000000000000000000000000000000000000815260040161036e90610d45565b60405180910390fd5b6000600160008481526020019081526020016000208054905014156103af57600360008154809291906103a990610eaa565b91905055505b600160008381526020019081526020016000208190806001815401808255809150506001900390600052602060002001600090919091909150555050565b6060600260006103fd91906108cb565b60005b6003548110156104ed57600060405180604001604052808381526020016001600085815260200190815260200160002080548060200260200160405190810160405280929190818152602001828054801561047a57602002820191906000526020600020905b815481526020019060010190808311610466575b5050505050815250905060028190806001815401808255809150506001900390600052602060002090600202016000909190919091506000820151816000015560208201518160010190805190602001906104d69291906108ef565b5050505080806104e590610eaa565b915050610400565b506002805480602002602001604051908101604052809291908181526020016000905b828210156105a45783829060005260206000209060020201604051806040016040529081600082015481526020016001820180548060200260200160405190810160405280929190818152602001828054801561058c57602002820191906000526020600020905b815481526020019060010190808311610578575b50505050508152505081526020019060010190610510565b50505050905090565b60606001600083815260200190815260200160002080548060200260200160405190810160405280929190818152602001828054801561060c57602002820191906000526020600020905b8154815260200190600101908083116105f8575b50505050509050919050565b6002818154811061062857600080fd5b90600052602060002090600202016000915090508060000154905081565b60606002805480602002602001604051908101604052809291908181526020016000905b828210156106fe578382906000526020600020906002020160405180604001604052908160008201548152602001600182018054806020026020016040519081016040528092919081815260200182805480156106e657602002820191906000526020600020905b8154815260200190600101908083116106d2575b5050505050815250508152602001906001019061066a565b50505050905090565b61070f6107ff565b73ffffffffffffffffffffffffffffffffffffffff1661072d6102d2565b73ffffffffffffffffffffffffffffffffffffffff1614610783576040517f08c379a000000000000000000000000000000000000000000000000000000000815260040161077a90610d45565b60405180910390fd5b600073ffffffffffffffffffffffffffffffffffffffff168173ffffffffffffffffffffffffffffffffffffffff1614156107f3576040517f08c379a00000000000000000000000000000000000000000000000000000000081526004016107ea90610d25565b60405180910390fd5b6107fc81610807565b50565b600033905090565b60008060009054906101000a900473ffffffffffffffffffffffffffffffffffffffff169050816000806101000a81548173ffffffffffffffffffffffffffffffffffffffff021916908373ffffffffffffffffffffffffffffffffffffffff1602179055508173ffffffffffffffffffffffffffffffffffffffff168173ffffffffffffffffffffffffffffffffffffffff167f8be0079c531659141344cd1fd0a4f28419497f9722a3daafe3b4186f6b6457e060405160405180910390a35050565b50805460008255600202906000526020600020908101906108ec919061093c565b50565b82805482825590600052602060002090810192821561092b579160200282015b8281111561092a57825182559160200191906001019061090f565b5b509050610938919061096b565b5090565b5b808211156109675760008082016000905560018201600061095e9190610988565b5060020161093d565b5090565b5b8082111561098457600081600090555060010161096c565b5090565b50805460008255906000526020600020908101906109a6919061096b565b50565b6000813590506109b881610fa4565b92915050565b6000602082840312156109d4576109d3610f22565b5b81905092915050565b6000813590506109ec81610fbb565b92915050565b600060208284031215610a0857610a07610f27565b5b6000610a16848285016109a9565b91505092915050565b600060208284031215610a3557610a34610f27565b5b6000610a43848285016109be565b91505092915050565b600060208284031215610a6257610a61610f27565b5b6000610a70848285016109dd565b91505092915050565b60008060408385031215610a9057610a8f610f27565b5b6000610a9e858286016109dd565b9250506020610aaf858286016109dd565b9150509250929050565b6000610ac58383610c6b565b905092915050565b6000610ad98383610ca8565b60208301905092915050565b610aee81610e6e565b82525050565b6000610aff82610da0565b610b098185610dd0565b935083602082028501610b1b85610d80565b8060005b85811015610b575784840389528151610b388582610ab9565b9450610b4383610db6565b925060208a01995050600181019050610b1f565b50829750879550505050505092915050565b6000610b7482610dab565b610b7e8185610de1565b9350610b8983610d90565b8060005b83811015610bba578151610ba18882610acd565b9750610bac83610dc3565b925050600181019050610b8d565b5085935050505092915050565b6000610bd282610dab565b610bdc8185610df2565b9350610be783610d90565b8060005b83811015610c18578151610bff8882610acd565b9750610c0a83610dc3565b925050600181019050610beb565b5085935050505092915050565b6000610c32602683610e03565b9150610c3d82610f2c565b604082019050919050565b6000610c55602083610e03565b9150610c6082610f7b565b602082019050919050565b6000604083016000830151610c836000860182610ca8565b5060208301518482036020860152610c9b8282610b69565b9150508091505092915050565b610cb181610ea0565b82525050565b610cc081610ea0565b82525050565b6000602082019050610cdb6000830184610ae5565b92915050565b60006020820190508181036000830152610cfb8184610af4565b905092915050565b60006020820190508181036000830152610d1d8184610bc7565b905092915050565b60006020820190508181036000830152610d3e81610c25565b9050919050565b60006020820190508181036000830152610d5e81610c48565b9050919050565b6000602082019050610d7a6000830184610cb7565b92915050565b6000819050602082019050919050565b6000819050602082019050919050565b600081519050919050565b600081519050919050565b6000602082019050919050565b6000602082019050919050565b600082825260208201905092915050565b600082825260208201905092915050565b600082825260208201905092915050565b600082825260208201905092915050565b6000610e1f82610ea0565b9150610e2a83610ea0565b9250817fffffffffffffffffffffffffffffffffffffffffffffffffffffffffffffffff0483118215151615610e6357610e62610ef3565b5b828202905092915050565b6000610e7982610e80565b9050919050565b600073ffffffffffffffffffffffffffffffffffffffff82169050919050565b6000819050919050565b6000610eb582610ea0565b91507fffffffffffffffffffffffffffffffffffffffffffffffffffffffffffffffff821415610ee857610ee7610ef3565b5b600182019050919050565b7f4e487b7100000000000000000000000000000000000000000000000000000000600052601160045260246000fd5b600080fd5b600080fd5b7f4f776e61626c653a206e6577206f776e657220697320746865207a65726f206160008201527f6464726573730000000000000000000000000000000000000000000000000000602082015250565b7f4f776e61626c653a2063616c6c6572206973206e6f7420746865206f776e6572600082015250565b610fad81610e6e565b8114610fb857600080fd5b50565b610fc481610ea0565b8114610fcf57600080fd5b5056fea2646970667358221220b8bac24aaea983a9425cb6da63c6052fb19e1b698e84492575ba1211d3d7c57064736f6c6343000807003360806040523480156200001157600080fd5b506040518060400160405280601081526020017f546573742052696e6b65792055534443000000000000000000000000000000008152506040518060400160405280600581526020017f54555344430000000000000000000000000000000000000000000000000000008152508160039080519060200190620000969291906200024e565b508060049080519060200190620000af9291906200024e565b505050620000c5336064620000cb60201b60201c565b620004aa565b600073ffffffffffffffffffffffffffffffffffffffff168273ffffffffffffffffffffffffffffffffffffffff1614156200013e576040517f08c379a0000000000000000000000000000000000000000000000000000000008152600401620001359062000336565b60405180910390fd5b62000152600083836200024460201b60201c565b806002600082825462000166919062000386565b92505081905550806000808473ffffffffffffffffffffffffffffffffffffffff1673ffffffffffffffffffffffffffffffffffffffff1681526020019081526020016000206000828254620001bd919062000386565b925050819055508173ffffffffffffffffffffffffffffffffffffffff16600073ffffffffffffffffffffffffffffffffffffffff167fddf252ad1be2c89b69c2b068fc378daa952ba7f163c4a11628f55a4df523b3ef8360405162000224919062000358565b60405180910390a362000240600083836200024960201b60201c565b5050565b505050565b505050565b8280546200025c90620003ed565b90600052602060002090601f016020900481019282620002805760008555620002cc565b82601f106200029b57805160ff1916838001178555620002cc565b82800160010185558215620002cc579182015b82811115620002cb578251825591602001919060010190620002ae565b5b509050620002db9190620002df565b5090565b5b80821115620002fa576000816000905550600101620002e0565b5090565b60006200030d601f8362000375565b91506200031a8262000481565b602082019050919050565b6200033081620003e3565b82525050565b600060208201905081810360008301526200035181620002fe565b9050919050565b60006020820190506200036f600083018462000325565b92915050565b600082825260208201905092915050565b60006200039382620003e3565b9150620003a083620003e3565b9250827fffffffffffffffffffffffffffffffffffffffffffffffffffffffffffffffff03821115620003d857620003d762000423565b5b828201905092915050565b6000819050919050565b600060028204905060018216806200040657607f821691505b602082108114156200041d576200041c62000452565b5b50919050565b7f4e487b7100000000000000000000000000000000000000000000000000000000600052601160045260246000fd5b7f4e487b7100000000000000000000000000000000000000000000000000000000600052602260045260246000fd5b7f45524332303a206d696e7420746f20746865207a65726f206164647265737300600082015250565b6113aa80620004ba6000396000f3fe608060405234801561001057600080fd5b50600436106100a95760003560e01c80633950935111610071578063395093511461016857806370a082311461019857806395d89b41146101c8578063a457c2d7146101e6578063a9059cbb14610216578063dd62ed3e14610246576100a9565b806306fdde03146100ae578063095ea7b3146100cc57806318160ddd146100fc57806323b872dd1461011a578063313ce5671461014a575b600080fd5b6100b6610276565b6040516100c39190610e45565b60405180910390f35b6100e660048036038101906100e19190610c8f565b610308565b6040516100f39190610e2a565b60405180910390f35b610104610326565b6040516101119190610f47565b60405180910390f35b610134600480360381019061012f9190610c3c565b610330565b6040516101419190610e2a565b60405180910390f35b610152610428565b60405161015f9190610f62565b60405180910390f35b610182600480360381019061017d9190610c8f565b610431565b60405161018f9190610e2a565b60405180910390f35b6101b260048036038101906101ad9190610bcf565b6104dd565b6040516101bf9190610f47565b60405180910390f35b6101d0610525565b6040516101dd9190610e45565b60405180910390f35b61020060048036038101906101fb9190610c8f565b6105b7565b60405161020d9190610e2a565b60405180910390f35b610230600480360381019061022b9190610c8f565b6106a2565b60405161023d9190610e2a565b60405180910390f35b610260600480360381019061025b9190610bfc565b6106c0565b60405161026d9190610f47565b60405180910390f35b60606003805461028590611077565b80601f01602080910402602001604051908101604052809291908181526020018280546102b190611077565b80156102fe5780601f106102d3576101008083540402835291602001916102fe565b820191906000526020600020905b8154815290600101906020018083116102e157829003601f168201915b5050505050905090565b600061031c610315610747565b848461074f565b6001905092915050565b6000600254905090565b600061033d84848461091a565b6000600160008673ffffffffffffffffffffffffffffffffffffffff1673ffffffffffffffffffffffffffffffffffffffff1681526020019081526020016000206000610388610747565b73ffffffffffffffffffffffffffffffffffffffff1673ffffffffffffffffffffffffffffffffffffffff16815260200190815260200160002054905082811015610408576040517f08c379a00000000000000000000000000000000000000000000000000000000081526004016103ff90610ec7565b60405180910390fd5b61041c85610414610747565b85840361074f565b60019150509392505050565b60006012905090565b60006104d361043e610747565b84846001600061044c610747565b73ffffffffffffffffffffffffffffffffffffffff1673ffffffffffffffffffffffffffffffffffffffff16815260200190815260200160002060008873ffffffffffffffffffffffffffffffffffffffff1673ffffffffffffffffffffffffffffffffffffffff168152602001908152602001600020546104ce9190610f99565b61074f565b6001905092915050565b60008060008373ffffffffffffffffffffffffffffffffffffffff1673ffffffffffffffffffffffffffffffffffffffff168152602001908152602001600020549050919050565b60606004805461053490611077565b80601f016020809104026020016040519081016040528092919081815260200182805461056090611077565b80156105ad5780601f10610582576101008083540402835291602001916105ad565b820191906000526020600020905b81548152906001019060200180831161059057829003601f168201915b5050505050905090565b600080600160006105c6610747565b73ffffffffffffffffffffffffffffffffffffffff1673ffffffffffffffffffffffffffffffffffffffff16815260200190815260200160002060008573ffffffffffffffffffffffffffffffffffffffff1673ffffffffffffffffffffffffffffffffffffffff16815260200190815260200160002054905082811015610683576040517f08c379a000000000000000000000000000000000000000000000000000000000815260040161067a90610f27565b60405180910390fd5b61069761068e610747565b8585840361074f565b600191505092915050565b60006106b66106af610747565b848461091a565b6001905092915050565b6000600160008473ffffffffffffffffffffffffffffffffffffffff1673ffffffffffffffffffffffffffffffffffffffff16815260200190815260200160002060008373ffffffffffffffffffffffffffffffffffffffff1673ffffffffffffffffffffffffffffffffffffffff16815260200190815260200160002054905092915050565b600033905090565b600073ffffffffffffffffffffffffffffffffffffffff168373ffffffffffffffffffffffffffffffffffffffff1614156107bf576040517f08c379a00000000000000000000000000000000000000000000000000000000081526004016107b690610f07565b60405180910390fd5b600073ffffffffffffffffffffffffffffffffffffffff168273ffffffffffffffffffffffffffffffffffffffff16141561082f576040517f08c379a000000000000000000000000000000000000000000000000000000000815260040161082690610e87565b60405180910390fd5b80600160008573ffffffffffffffffffffffffffffffffffffffff1673ffffffffffffffffffffffffffffffffffffffff16815260200190815260200160002060008473ffffffffffffffffffffffffffffffffffffffff1673ffffffffffffffffffffffffffffffffffffffff168152602001908152602001600020819055508173ffffffffffffffffffffffffffffffffffffffff168373ffffffffffffffffffffffffffffffffffffffff167f8c5be1e5ebec7d5bd14f71427d1e84f3dd0314c0f7b2291e5b200ac8c7c3b9258360405161090d9190610f47565b60405180910390a3505050565b600073ffffffffffffffffffffffffffffffffffffffff168373ffffffffffffffffffffffffffffffffffffffff16141561098a576040517f08c379a000000000000000000000000000000000000000000000000000000000815260040161098190610ee7565b60405180910390fd5b600073ffffffffffffffffffffffffffffffffffffffff168273ffffffffffffffffffffffffffffffffffffffff1614156109fa576040517f08c379a00000000000000000000000000000000000000000000000000000000081526004016109f190610e67565b60405180910390fd5b610a05838383610b9b565b60008060008573ffffffffffffffffffffffffffffffffffffffff1673ffffffffffffffffffffffffffffffffffffffff16815260200190815260200160002054905081811015610a8b576040517f08c379a0000000000000000000000000000000000000000000000000000000008152600401610a8290610ea7565b60405180910390fd5b8181036000808673ffffffffffffffffffffffffffffffffffffffff1673ffffffffffffffffffffffffffffffffffffffff16815260200190815260200160002081905550816000808573ffffffffffffffffffffffffffffffffffffffff1673ffffffffffffffffffffffffffffffffffffffff1681526020019081526020016000206000828254610b1e9190610f99565b925050819055508273ffffffffffffffffffffffffffffffffffffffff168473ffffffffffffffffffffffffffffffffffffffff167fddf252ad1be2c89b69c2b068fc378daa952ba7f163c4a11628f55a4df523b3ef84604051610b829190610f47565b60405180910390a3610b95848484610ba0565b50505050565b505050565b505050565b600081359050610bb481611346565b92915050565b600081359050610bc98161135d565b92915050565b600060208284031215610be557610be4611107565b5b6000610bf384828501610ba5565b91505092915050565b60008060408385031215610c1357610c12611107565b5b6000610c2185828601610ba5565b9250506020610c3285828601610ba5565b9150509250929050565b600080600060608486031215610c5557610c54611107565b5b6000610c6386828701610ba5565b9350506020610c7486828701610ba5565b9250506040610c8586828701610bba565b9150509250925092565b60008060408385031215610ca657610ca5611107565b5b6000610cb485828601610ba5565b9250506020610cc585828601610bba565b9150509250929050565b610cd881611001565b82525050565b6000610ce982610f7d565b610cf38185610f88565b9350610d03818560208601611044565b610d0c8161110c565b840191505092915050565b6000610d24602383610f88565b9150610d2f8261111d565b604082019050919050565b6000610d47602283610f88565b9150610d528261116c565b604082019050919050565b6000610d6a602683610f88565b9150610d75826111bb565b604082019050919050565b6000610d8d602883610f88565b9150610d988261120a565b604082019050919050565b6000610db0602583610f88565b9150610dbb82611259565b604082019050919050565b6000610dd3602483610f88565b9150610dde826112a8565b604082019050919050565b6000610df6602583610f88565b9150610e01826112f7565b604082019050919050565b610e158161102d565b82525050565b610e2481611037565b82525050565b6000602082019050610e3f6000830184610ccf565b92915050565b60006020820190508181036000830152610e5f8184610cde565b905092915050565b60006020820190508181036000830152610e8081610d17565b9050919050565b60006020820190508181036000830152610ea081610d3a565b9050919050565b60006020820190508181036000830152610ec081610d5d565b9050919050565b60006020820190508181036000830152610ee081610d80565b9050919050565b60006020820190508181036000830152610f0081610da3565b9050919050565b60006020820190508181036000830152610f2081610dc6565b9050919050565b60006020820190508181036000830152610f4081610de9565b9050919050565b6000602082019050610f5c6000830184610e0c565b92915050565b6000602082019050610f776000830184610e1b565b92915050565b600081519050919050565b600082825260208201905092915050565b6000610fa48261102d565b9150610faf8361102d565b9250827fffffffffffffffffffffffffffffffffffffffffffffffffffffffffffffffff03821115610fe457610fe36110a9565b5b828201905092915050565b6000610ffa8261100d565b9050919050565b60008115159050919050565b600073ffffffffffffffffffffffffffffffffffffffff82169050919050565b6000819050919050565b600060ff82169050919050565b60005b83811015611062578082015181840152602081019050611047565b83811115611071576000848401525b50505050565b6000600282049050600182168061108f57607f821691505b602082108114156110a3576110a26110d8565b5b50919050565b7f4e487b7100000000000000000000000000000000000000000000000000000000600052601160045260246000fd5b7f4e487b7100000000000000000000000000000000000000000000000000000000600052602260045260246000fd5b600080fd5b6000601f19601f8301169050919050565b7f45524332303a207472616e7366657220746f20746865207a65726f206164647260008201527f6573730000000000000000000000000000000000000000000000000000000000602082015250565b7f45524332303a20617070726f766520746f20746865207a65726f20616464726560008201527f7373000000000000000000000000000000000000000000000000000000000000602082015250565b7f45524332303a207472616e7366657220616d6f756e742065786365656473206260008201527f616c616e63650000000000000000000000000000000000000000000000000000602082015250565b7f45524332303a207472616e7366657220616d6f756e742065786365656473206160008201527f6c6c6f77616e6365000000000000000000000000000000000000000000000000602082015250565b7f45524332303a207472616e736665722066726f6d20746865207a65726f20616460008201527f6472657373000000000000000000000000000000000000000000000000000000602082015250565b7f45524332303a20617070726f76652066726f6d20746865207a65726f2061646460008201527f7265737300000000000000000000000000000000000000000000000000000000602082015250565b7f45524332303a2064656372656173656420616c6c6f77616e63652062656c6f7760008201527f207a65726f000000000000000000000000000000000000000000000000000000602082015250565b61134f81610fef565b811461135a57600080fd5b50565b6113668161102d565b811461137157600080fd5b5056fea26469706673582212202280ba2450c79b7db6563fc5b50a43ed239390fb6a0057ccb48b81e03eb6aa1964736f6c63430008070033",
  "linkReferences": {},
  "deployedLinkReferences": {}
}