{
  "_format": "hh-sol-artifact-1",
  "contractName": "LeagueMaker",
  "sourceName": "contracts/LeagueMaker.sol",
  "abi": [
    {
      "inputs": [
        {
          "internalType": "address",
          "name": "_logic",
          "type": "address"
        }
      ],
      "stateMutability": "nonpayable",
      "type": "constructor"
    },
    {
      "anonymous": false,
      "inputs": [
        {
          "indexed": false,
          "internalType": "string",
          "name": "name",
          "type": "string"
        },
        {
          "indexed": false,
          "internalType": "address",
          "name": "a",
          "type": "address"
        }
      ],
      "name": "LeagueCreated",
      "type": "event"
    },
    {
      "anonymous": false,
      "inputs": [
        {
          "indexed": false,
          "internalType": "bool",
          "name": "success",
          "type": "bool"
        },
        {
          "indexed": false,
          "internalType": "bytes",
          "name": "data",
          "type": "bytes"
        }
      ],
      "name": "Response",
      "type": "event"
    },
    {
      "anonymous": false,
      "inputs": [
        {
          "indexed": false,
          "internalType": "address",
          "name": "clone",
          "type": "address"
        }
      ],
      "name": "cloneCreated",
      "type": "event"
    },
    {
      "inputs": [
        {
          "internalType": "address[]",
          "name": "addresses",
          "type": "address[]"
        },
        {
          "internalType": "address",
          "name": "_addr",
          "type": "address"
        }
      ],
      "name": "addUsersToLeagueHelper",
      "outputs": [],
      "stateMutability": "nonpayable",
      "type": "function"
    },
    {
      "inputs": [
        {
          "internalType": "string",
          "name": "_name",
          "type": "string"
        },
        {
          "internalType": "uint256",
          "name": "_stakeAmount",
          "type": "uint256"
        }
      ],
      "name": "createLeague",
      "outputs": [
        {
          "internalType": "address",
          "name": "",
          "type": "address"
        }
      ],
      "stateMutability": "nonpayable",
      "type": "function"
    },
    {
      "inputs": [],
      "name": "getBeacon",
      "outputs": [
        {
          "internalType": "address",
          "name": "",
          "type": "address"
        }
      ],
      "stateMutability": "view",
      "type": "function"
    },
    {
      "inputs": [],
      "name": "parameters",
      "outputs": [
        {
          "internalType": "string",
          "name": "name",
          "type": "string"
        },
        {
          "internalType": "uint256",
          "name": "version",
          "type": "uint256"
        },
        {
          "internalType": "uint256",
          "name": "numWeeks",
          "type": "uint256"
        },
        {
          "internalType": "uint256",
          "name": "stakeAmount",
          "type": "uint256"
        },
        {
          "internalType": "address",
          "name": "athletesDataStorageAddress",
          "type": "address"
        },
        {
          "internalType": "address",
          "name": "owner",
          "type": "address"
        },
        {
          "internalType": "address",
          "name": "admin",
          "type": "address"
        },
        {
          "internalType": "address",
          "name": "polygonUSDCAddress",
          "type": "address"
        },
        {
          "internalType": "address",
          "name": "rinkebyUSDCAddress",
          "type": "address"
        }
      ],
      "stateMutability": "view",
      "type": "function"
    },
    {
      "inputs": [
        {
          "internalType": "address",
          "name": "logic",
          "type": "address"
        }
      ],
      "name": "setBeacon",
      "outputs": [
        {
          "internalType": "address",
          "name": "",
          "type": "address"
        }
      ],
      "stateMutability": "nonpayable",
      "type": "function"
    },
    {
      "inputs": [
        {
          "internalType": "address",
          "name": "_addr",
          "type": "address"
        }
      ],
      "name": "testCallDoesNotExist",
      "outputs": [],
      "stateMutability": "nonpayable",
      "type": "function"
    }
  ],
  "bytecode": "0x60c06040526002600c556008600d55732791bca1f2de4661ed88a30c99a7a9449aa84174600e60006101000a81548173ffffffffffffffffffffffffffffffffffffffff021916908373ffffffffffffffffffffffffffffffffffffffff16021790555073eb8f08a975ab53e34d8a0330e0d34de942c95926600f60006101000a81548173ffffffffffffffffffffffffffffffffffffffff021916908373ffffffffffffffffffffffffffffffffffffffff160217905550348015620000c557600080fd5b506040516200644b3803806200644b8339818101604052810190620000eb9190620001f6565b80604051620000fa90620001c3565b62000106919062000239565b604051809103906000f08015801562000123573d6000803e3d6000fd5b5073ffffffffffffffffffffffffffffffffffffffff1660808173ffffffffffffffffffffffffffffffffffffffff1660601b815250506040516200016890620001d1565b604051809103906000f08015801562000185573d6000803e3d6000fd5b5073ffffffffffffffffffffffffffffffffffffffff1660a08173ffffffffffffffffffffffffffffffffffffffff1660601b8152505050620002a9565b610a9180620049a583390190565b611015806200543683390190565b600081519050620001f0816200028f565b92915050565b6000602082840312156200020f576200020e6200028a565b5b60006200021f84828501620001df565b91505092915050565b620002338162000256565b82525050565b600060208201905062000250600083018462000228565b92915050565b600062000263826200026a565b9050919050565b600073ffffffffffffffffffffffffffffffffffffffff82169050919050565b600080fd5b6200029a8162000256565b8114620002a657600080fd5b50565b60805160601c60a05160601c6146c9620002dc60003960006104f401526000818161016b01526108f901526146c96000f3fe60806040523480156200001157600080fd5b50600436106200006a5760003560e01c80632d6b3a6b146200006f57806374663deb14620000915780638903573014620000b1578063c1d5746d14620000db578063d42afb561462000111578063ff00726c1462000147575b600080fd5b6200007962000167565b60405162000088919062001190565b60405180910390f35b620000af6004803603810190620000a9919062000f2f565b6200018f565b005b620000bb62000318565b604051620000d29998979695949392919062001215565b60405180910390f35b620000f96004803603810190620000f3919062000f95565b62000484565b60405162000108919062001190565b60405180910390f35b6200012f600480360381019062000129919062000efd565b62000af4565b6040516200013e919062001190565b60405180910390f35b6200016560048036038101906200015f919062000efd565b62000b7b565b005b60007f0000000000000000000000000000000000000000000000000000000000000000905090565b6000606060005b8451811015620002d6578373ffffffffffffffffffffffffffffffffffffffff16858281518110620001cd57620001cc620015dd565b5b6020026020010151604051602401620001e7919062001190565b6040516020818303038152906040527f087e18a7000000000000000000000000000000000000000000000000000000007bffffffffffffffffffffffffffffffffffffffffffffffffffffffff19166020820180517bffffffffffffffffffffffffffffffffffffffffffffffffffffffff838183161783525050505060405162000273919062001177565b6000604051808303816000865af19150503d8060008114620002b2576040519150601f19603f3d011682016040523d82523d6000602084013e620002b7565b606091505b5080935081945050508080620002cd9062001531565b91505062000196565b507f13848c3e38f8886f3f5d2ad9dff80d8092c2bbb8efd5b887a99c2c6cfc09ac2a82826040516200030a929190620011e1565b60405180910390a150505050565b60038060000180546200032b90620014c5565b80601f01602080910402602001604051908101604052809291908181526020018280546200035990620014c5565b8015620003aa5780601f106200037e57610100808354040283529160200191620003aa565b820191906000526020600020905b8154815290600101906020018083116200038c57829003601f168201915b5050505050908060010154908060020154908060030154908060040160009054906101000a900473ffffffffffffffffffffffffffffffffffffffff16908060050160009054906101000a900473ffffffffffffffffffffffffffffffffffffffff16908060060160009054906101000a900473ffffffffffffffffffffffffffffffffffffffff16908060070160009054906101000a900473ffffffffffffffffffffffffffffffffffffffff16908060080160009054906101000a900473ffffffffffffffffffffffffffffffffffffffff16905089565b600060405180610120016040528085858080601f016020809104026020016040519081016040528093929190818152602001838380828437600081840152601f19601f820116905080830192505050505050508152602001600c548152602001600d5481526020018381526020017f000000000000000000000000000000000000000000000000000000000000000073ffffffffffffffffffffffffffffffffffffffff1681526020013073ffffffffffffffffffffffffffffffffffffffff1681526020013373ffffffffffffffffffffffffffffffffffffffff168152602001600e60009054906101000a900473ffffffffffffffffffffffffffffffffffffffff1673ffffffffffffffffffffffffffffffffffffffff168152602001600f60009054906101000a900473ffffffffffffffffffffffffffffffffffffffff1673ffffffffffffffffffffffffffffffffffffffff16815250600360008201518160000190805190602001906200060092919062000cb0565b5060208201518160010155604082015181600201556060820151816003015560808201518160040160006101000a81548173ffffffffffffffffffffffffffffffffffffffff021916908373ffffffffffffffffffffffffffffffffffffffff16021790555060a08201518160050160006101000a81548173ffffffffffffffffffffffffffffffffffffffff021916908373ffffffffffffffffffffffffffffffffffffffff16021790555060c08201518160060160006101000a81548173ffffffffffffffffffffffffffffffffffffffff021916908373ffffffffffffffffffffffffffffffffffffffff16021790555060e08201518160070160006101000a81548173ffffffffffffffffffffffffffffffffffffffff021916908373ffffffffffffffffffffffffffffffffffffffff1602179055506101008201518160080160006101000a81548173ffffffffffffffffffffffffffffffffffffffff021916908373ffffffffffffffffffffffffffffffffffffffff160217905550905050600060036000016003600101546003600201546003800154600360040160009054906101000a900473ffffffffffffffffffffffffffffffffffffffff16600360050160009054906101000a900473ffffffffffffffffffffffffffffffffffffffff16600360060160009054906101000a900473ffffffffffffffffffffffffffffffffffffffff16600360070160009054906101000a900473ffffffffffffffffffffffffffffffffffffffff16600360080160009054906101000a900473ffffffffffffffffffffffffffffffffffffffff166040516024016200087699989796959493929190620012ef565b6040516020818303038152906040527f832ca716000000000000000000000000000000000000000000000000000000007bffffffffffffffffffffffffffffffffffffffffffffffffffffffff19166020820180517bffffffffffffffffffffffffffffffffffffffffffffffffffffffff8381831617835250505050905060007f000000000000000000000000000000000000000000000000000000000000000082604051620009279062000d41565b62000934929190620011ad565b604051809103906000f08015801562000951573d6000803e3d6000fd5b5090506001819080600181540180825580915050600190039060005260206000200160009091909190916101000a81548173ffffffffffffffffffffffffffffffffffffffff021916908373ffffffffffffffffffffffffffffffffffffffff1602179055507f6f41e080f0ba3b200797d7e512fbca5fa5d4b72f7d8fb62d6fb40997ea967980600360000182604051620009ee929190620012bb565b60405180910390a160036000808201600062000a0b919062000d4f565b6001820160009055600282016000905560038201600090556004820160006101000a81549073ffffffffffffffffffffffffffffffffffffffff02191690556005820160006101000a81549073ffffffffffffffffffffffffffffffffffffffff02191690556006820160006101000a81549073ffffffffffffffffffffffffffffffffffffffff02191690556007820160006101000a81549073ffffffffffffffffffffffffffffffffffffffff02191690556008820160006101000a81549073ffffffffffffffffffffffffffffffffffffffff0219169055505080925050509392505050565b6000808260405162000b069062000d95565b62000b12919062001190565b604051809103906000f08015801562000b2f573d6000803e3d6000fd5b509050806000806101000a81548173ffffffffffffffffffffffffffffffffffffffff021916908373ffffffffffffffffffffffffffffffffffffffff16021790555080915050919050565b6000808273ffffffffffffffffffffffffffffffffffffffff166040516024016040516020818303038152906040527f2cf0a1fc000000000000000000000000000000000000000000000000000000007bffffffffffffffffffffffffffffffffffffffffffffffffffffffff19166020820180517bffffffffffffffffffffffffffffffffffffffffffffffffffffffff838183161783525050505060405162000c27919062001177565b6000604051808303816000865af19150503d806000811462000c66576040519150601f19603f3d011682016040523d82523d6000602084013e62000c6b565b606091505b50915091507f13848c3e38f8886f3f5d2ad9dff80d8092c2bbb8efd5b887a99c2c6cfc09ac2a828260405162000ca3929190620011e1565b60405180910390a1505050565b82805462000cbe90620014c5565b90600052602060002090601f01602090048101928262000ce2576000855562000d2e565b82601f1062000cfd57805160ff191683800117855562000d2e565b8280016001018555821562000d2e579182015b8281111562000d2d57825182559160200191906001019062000d10565b5b50905062000d3d919062000da3565b5090565b612569806200169a83390190565b50805462000d5d90620014c5565b6000825580601f1062000d71575062000d92565b601f01602090049060005260206000209081019062000d91919062000da3565b5b50565b610a918062003c0383390190565b5b8082111562000dbe57600081600090555060010162000da4565b5090565b600062000dd962000dd384620013be565b62001395565b9050808382526020820190508285602086028201111562000dff5762000dfe62001645565b5b60005b8581101562000e33578162000e18888262000e3d565b84526020840193506020830192505060018101905062000e02565b5050509392505050565b60008135905062000e4e8162001665565b92915050565b600082601f83011262000e6c5762000e6b62001640565b5b813562000e7e84826020860162000dc2565b91505092915050565b60008083601f84011262000ea05762000e9f62001640565b5b8235905067ffffffffffffffff81111562000ec05762000ebf6200163b565b5b60208301915083600182028301111562000edf5762000ede62001645565b5b9250929050565b60008135905062000ef7816200167f565b92915050565b60006020828403121562000f165762000f156200164f565b5b600062000f268482850162000e3d565b91505092915050565b6000806040838503121562000f495762000f486200164f565b5b600083013567ffffffffffffffff81111562000f6a5762000f696200164a565b5b62000f788582860162000e54565b925050602062000f8b8582860162000e3d565b9150509250929050565b60008060006040848603121562000fb15762000fb06200164f565b5b600084013567ffffffffffffffff81111562000fd25762000fd16200164a565b5b62000fe08682870162000e87565b9350935050602062000ff58682870162000ee6565b9150509250925092565b6200100a8162001445565b82525050565b6200101b8162001459565b82525050565b60006200102e8262001402565b6200103a818562001418565b93506200104c8185602086016200148f565b620010578162001654565b840191505092915050565b60006200106f8262001402565b6200107b818562001429565b93506200108d8185602086016200148f565b80840191505092915050565b6000620010a6826200140d565b620010b2818562001434565b9350620010c48185602086016200148f565b620010cf8162001654565b840191505092915050565b60008154620010e981620014c5565b620010f5818662001434565b9450600182166000811462001113576001811462001126576200115d565b60ff19831686526020860193506200115d565b6200113185620013ed565b60005b83811015620011555781548189015260018201915060208101905062001134565b808801955050505b50505092915050565b620011718162001485565b82525050565b600062001185828462001062565b915081905092915050565b6000602082019050620011a7600083018462000fff565b92915050565b6000604082019050620011c4600083018562000fff565b8181036020830152620011d8818462001021565b90509392505050565b6000604082019050620011f8600083018562001010565b81810360208301526200120c818462001021565b90509392505050565b600061012082019050818103600083015262001232818c62001099565b905062001243602083018b62001166565b62001252604083018a62001166565b62001261606083018962001166565b62001270608083018862000fff565b6200127f60a083018762000fff565b6200128e60c083018662000fff565b6200129d60e083018562000fff565b620012ad61010083018462000fff565b9a9950505050505050505050565b60006040820190508181036000830152620012d78185620010da565b9050620012e8602083018462000fff565b9392505050565b60006101208201905081810360008301526200130c818c620010da565b90506200131d602083018b62001166565b6200132c604083018a62001166565b6200133b606083018962001166565b6200134a608083018862000fff565b6200135960a083018762000fff565b6200136860c083018662000fff565b6200137760e083018562000fff565b6200138761010083018462000fff565b9a9950505050505050505050565b6000620013a1620013b4565b9050620013af8282620014fb565b919050565b6000604051905090565b600067ffffffffffffffff821115620013dc57620013db6200160c565b5b602082029050602081019050919050565b60008190508160005260206000209050919050565b600081519050919050565b600081519050919050565b600082825260208201905092915050565b600081905092915050565b600082825260208201905092915050565b6000620014528262001465565b9050919050565b60008115159050919050565b600073ffffffffffffffffffffffffffffffffffffffff82169050919050565b6000819050919050565b60005b83811015620014af57808201518184015260208101905062001492565b83811115620014bf576000848401525b50505050565b60006002820490506001821680620014de57607f821691505b60208210811415620014f557620014f4620015ae565b5b50919050565b620015068262001654565b810181811067ffffffffffffffff821117156200152857620015276200160c565b5b80604052505050565b60006200153e8262001485565b91507fffffffffffffffffffffffffffffffffffffffffffffffffffffffffffffffff8214156200157457620015736200157f565b5b600182019050919050565b7f4e487b7100000000000000000000000000000000000000000000000000000000600052601160045260246000fd5b7f4e487b7100000000000000000000000000000000000000000000000000000000600052602260045260246000fd5b7f4e487b7100000000000000000000000000000000000000000000000000000000600052603260045260246000fd5b7f4e487b7100000000000000000000000000000000000000000000000000000000600052604160045260246000fd5b600080fd5b600080fd5b600080fd5b600080fd5b600080fd5b6000601f19601f8301169050919050565b620016708162001445565b81146200167c57600080fd5b50565b6200168a8162001485565b81146200169657600080fd5b5056fe608060405260405162002569380380620025698339818101604052810190620000299190620006bb565b620000496200003d620000cf60201b60201c565b620000d760201b60201c565b60017fa3f0ad74e5423aebfd80d3ef4346578335a9a72aeaee59ff6cb3582b35133d5160001c6200007b919062000942565b60001b7fa3f0ad74e5423aebfd80d3ef4346578335a9a72aeaee59ff6cb3582b35133d5060001b14620000b357620000b262000a27565b5b620000c7828260006200019b60201b60201c565b505062000be0565b600033905090565b60008060009054906101000a900473ffffffffffffffffffffffffffffffffffffffff169050816000806101000a81548173ffffffffffffffffffffffffffffffffffffffff021916908373ffffffffffffffffffffffffffffffffffffffff1602179055508173ffffffffffffffffffffffffffffffffffffffff168173ffffffffffffffffffffffffffffffffffffffff167f8be0079c531659141344cd1fd0a4f28419497f9722a3daafe3b4186f6b6457e060405160405180910390a35050565b620001ac83620002a260201b60201c565b8273ffffffffffffffffffffffffffffffffffffffff167f1cf3b03a6cf19fa2baba4df148e9dcabedea7f8a5c07840e207e5c089be95d3e60405160405180910390a2600082511180620001fd5750805b156200029d576200029b8373ffffffffffffffffffffffffffffffffffffffff16635c60da1b6040518163ffffffff1660e01b815260040160206040518083038186803b1580156200024e57600080fd5b505afa15801562000263573d6000803e3d6000fd5b505050506040513d601f19601f8201168201806040525081019062000289919062000689565b836200045160201b620007661760201c565b505b505050565b620002b8816200048760201b620007931760201c565b620002fa576040517f08c379a0000000000000000000000000000000000000000000000000000000008152600401620002f1906200084b565b60405180910390fd5b620003918173ffffffffffffffffffffffffffffffffffffffff16635c60da1b6040518163ffffffff1660e01b815260040160206040518083038186803b1580156200034557600080fd5b505afa1580156200035a573d6000803e3d6000fd5b505050506040513d601f19601f8201168201806040525081019062000380919062000689565b6200048760201b620007931760201c565b620003d3576040517f08c379a0000000000000000000000000000000000000000000000000000000008152600401620003ca906200088f565b60405180910390fd5b806200040d7fa3f0ad74e5423aebfd80d3ef4346578335a9a72aeaee59ff6cb3582b35133d5060001b6200049a60201b620007a61760201c565b60000160006101000a81548173ffffffffffffffffffffffffffffffffffffffff021916908373ffffffffffffffffffffffffffffffffffffffff16021790555050565b60606200047f83836040518060600160405280602781526020016200254260279139620004a460201b60201c565b905092915050565b600080823b905060008111915050919050565b6000819050919050565b6060620004b7846200048760201b60201c565b620004f9576040517f08c379a0000000000000000000000000000000000000000000000000000000008152600401620004f0906200086d565b60405180910390fd5b6000808573ffffffffffffffffffffffffffffffffffffffff16856040516200052391906200080e565b600060405180830381855af49150503d806000811462000560576040519150601f19603f3d011682016040523d82523d6000602084013e62000565565b606091505b50915091506200057d8282866200058860201b60201c565b925050509392505050565b606083156200059a57829050620005ed565b600083511115620005ae5782518084602001fd5b816040517f08c379a0000000000000000000000000000000000000000000000000000000008152600401620005e4919062000827565b60405180910390fd5b9392505050565b60006200060b6200060584620008da565b620008b1565b9050828152602081018484840111156200062a576200062962000ab9565b5b62000637848285620009bb565b509392505050565b600081519050620006508162000bc6565b92915050565b600082601f8301126200066e576200066d62000ab4565b5b815162000680848260208601620005f4565b91505092915050565b600060208284031215620006a257620006a162000ac3565b5b6000620006b2848285016200063f565b91505092915050565b60008060408385031215620006d557620006d462000ac3565b5b6000620006e5858286016200063f565b925050602083015167ffffffffffffffff81111562000709576200070862000abe565b5b620007178582860162000656565b9150509250929050565b60006200072e8262000910565b6200073a818562000926565b93506200074c818560208601620009bb565b80840191505092915050565b600062000765826200091b565b62000771818562000931565b935062000783818560208601620009bb565b6200078e8162000ac8565b840191505092915050565b6000620007a860258362000931565b9150620007b58262000ad9565b604082019050919050565b6000620007cf60268362000931565b9150620007dc8262000b28565b604082019050919050565b6000620007f660308362000931565b9150620008038262000b77565b604082019050919050565b60006200081c828462000721565b915081905092915050565b6000602082019050818103600083015262000843818462000758565b905092915050565b60006020820190508181036000830152620008668162000799565b9050919050565b600060208201905081810360008301526200088881620007c0565b9050919050565b60006020820190508181036000830152620008aa81620007e7565b9050919050565b6000620008bd620008d0565b9050620008cb8282620009f1565b919050565b6000604051905090565b600067ffffffffffffffff821115620008f857620008f762000a85565b5b620009038262000ac8565b9050602081019050919050565b600081519050919050565b600081519050919050565b600081905092915050565b600082825260208201905092915050565b60006200094f82620009b1565b91506200095c83620009b1565b92508282101562000972576200097162000a56565b5b828203905092915050565b60006200098a8262000991565b9050919050565b600073ffffffffffffffffffffffffffffffffffffffff82169050919050565b6000819050919050565b60005b83811015620009db578082015181840152602081019050620009be565b83811115620009eb576000848401525b50505050565b620009fc8262000ac8565b810181811067ffffffffffffffff8211171562000a1e5762000a1d62000a85565b5b80604052505050565b7f4e487b7100000000000000000000000000000000000000000000000000000000600052600160045260246000fd5b7f4e487b7100000000000000000000000000000000000000000000000000000000600052601160045260246000fd5b7f4e487b7100000000000000000000000000000000000000000000000000000000600052604160045260246000fd5b600080fd5b600080fd5b600080fd5b600080fd5b6000601f19601f8301169050919050565b7f455243313936373a206e657720626561636f6e206973206e6f74206120636f6e60008201527f7472616374000000000000000000000000000000000000000000000000000000602082015250565b7f416464726573733a2064656c65676174652063616c6c20746f206e6f6e2d636f60008201527f6e74726163740000000000000000000000000000000000000000000000000000602082015250565b7f455243313936373a20626561636f6e20696d706c656d656e746174696f6e206960008201527f73206e6f74206120636f6e747261637400000000000000000000000000000000602082015250565b62000bd1816200097d565b811462000bdd57600080fd5b50565b6119528062000bf06000396000f3fe6080604052600436106100c65760003560e01c80637eed33f11161007f57806391d148541161005957806391d148541461026e578063a217fddf146102ab578063d547741f146102d6578063f2fde38b146102ff576100d5565b80637eed33f1146101ed578063841abf6e146102185780638da5cb5b14610243576100d5565b806301ffc9a7146100df578063248a9ca31461011c5780632f2ff15d1461015957806336568abe1461018257806354fd4d50146101ab578063715018a6146101d6576100d5565b366100d5576100d3610328565b005b6100dd610328565b005b3480156100eb57600080fd5b50610106600480360381019061010191906110db565b610342565b6040516101139190611340565b60405180910390f35b34801561012857600080fd5b50610143600480360381019061013e919061106e565b6103bc565b604051610150919061135b565b60405180910390f35b34801561016557600080fd5b50610180600480360381019061017b919061109b565b6103dc565b005b34801561018e57600080fd5b506101a960048036038101906101a4919061109b565b610405565b005b3480156101b757600080fd5b506101c0610488565b6040516101cd9190611438565b60405180910390f35b3480156101e257600080fd5b506101eb61048e565b005b3480156101f957600080fd5b50610202610516565b60405161020f9190611438565b60405180910390f35b34801561022457600080fd5b5061022d61051c565b60405161023a9190611376565b60405180910390f35b34801561024f57600080fd5b506102586105aa565b6040516102659190611325565b60405180910390f35b34801561027a57600080fd5b506102956004803603810190610290919061109b565b6105d3565b6040516102a29190611340565b60405180910390f35b3480156102b757600080fd5b506102c061063e565b6040516102cd919061135b565b60405180910390f35b3480156102e257600080fd5b506102fd60048036038101906102f8919061109b565b610645565b005b34801561030b57600080fd5b5061032660048036038101906103219190611014565b61066e565b005b6103306107b0565b61034061033b6107b2565b61083e565b565b60007f7965db0b000000000000000000000000000000000000000000000000000000007bffffffffffffffffffffffffffffffffffffffffffffffffffffffff1916827bffffffffffffffffffffffffffffffffffffffffffffffffffffffff191614806103b557506103b482610864565b5b9050919050565b600060016000838152602001908152602001600020600101549050919050565b6103e5826103bc565b6103f6816103f16108ce565b6108d6565b6104008383610973565b505050565b61040d6108ce565b73ffffffffffffffffffffffffffffffffffffffff168173ffffffffffffffffffffffffffffffffffffffff161461047a576040517f08c379a000000000000000000000000000000000000000000000000000000000815260040161047190611418565b60405180910390fd5b6104848282610a53565b5050565b60025481565b6104966108ce565b73ffffffffffffffffffffffffffffffffffffffff166104b46105aa565b73ffffffffffffffffffffffffffffffffffffffff161461050a576040517f08c379a0000000000000000000000000000000000000000000000000000000008152600401610501906113d8565b60405180910390fd5b6105146000610b35565b565b60045481565b600380546105299061161b565b80601f01602080910402602001604051908101604052809291908181526020018280546105559061161b565b80156105a25780601f10610577576101008083540402835291602001916105a2565b820191906000526020600020905b81548152906001019060200180831161058557829003601f168201915b505050505081565b60008060009054906101000a900473ffffffffffffffffffffffffffffffffffffffff16905090565b60006001600084815260200190815260200160002060000160008373ffffffffffffffffffffffffffffffffffffffff1673ffffffffffffffffffffffffffffffffffffffff16815260200190815260200160002060009054906101000a900460ff16905092915050565b6000801b81565b61064e826103bc565b61065f8161065a6108ce565b6108d6565b6106698383610a53565b505050565b6106766108ce565b73ffffffffffffffffffffffffffffffffffffffff166106946105aa565b73ffffffffffffffffffffffffffffffffffffffff16146106ea576040517f08c379a00000000000000000000000000000000000000000000000000000000081526004016106e1906113d8565b60405180910390fd5b600073ffffffffffffffffffffffffffffffffffffffff168173ffffffffffffffffffffffffffffffffffffffff16141561075a576040517f08c379a0000000000000000000000000000000000000000000000000000000008152600401610751906113b8565b60405180910390fd5b61076381610b35565b50565b606061078b83836040518060600160405280602781526020016118f660279139610bf9565b905092915050565b600080823b905060008111915050919050565b6000819050919050565b565b60006107bc610cc6565b73ffffffffffffffffffffffffffffffffffffffff16635c60da1b6040518163ffffffff1660e01b815260040160206040518083038186803b15801561080157600080fd5b505afa158015610815573d6000803e3d6000fd5b505050506040513d601f19601f820116820180604052508101906108399190611041565b905090565b3660008037600080366000845af43d6000803e806000811461085f573d6000f35b3d6000fd5b60007f01ffc9a7000000000000000000000000000000000000000000000000000000007bffffffffffffffffffffffffffffffffffffffffffffffffffffffff1916827bffffffffffffffffffffffffffffffffffffffffffffffffffffffff1916149050919050565b600033905090565b6108e082826105d3565b61096f576109058173ffffffffffffffffffffffffffffffffffffffff166014610d1d565b6109138360001c6020610d1d565b6040516020016109249291906112eb565b6040516020818303038152906040526040517f08c379a00000000000000000000000000000000000000000000000000000000081526004016109669190611376565b60405180910390fd5b5050565b61097d82826105d3565b610a4f57600180600084815260200190815260200160002060000160008373ffffffffffffffffffffffffffffffffffffffff1673ffffffffffffffffffffffffffffffffffffffff16815260200190815260200160002060006101000a81548160ff0219169083151502179055506109f46108ce565b73ffffffffffffffffffffffffffffffffffffffff168173ffffffffffffffffffffffffffffffffffffffff16837f2f8788117e7eff1d82e926ec794901d17c78024a50270940304540a733656f0d60405160405180910390a45b5050565b610a5d82826105d3565b15610b315760006001600084815260200190815260200160002060000160008373ffffffffffffffffffffffffffffffffffffffff1673ffffffffffffffffffffffffffffffffffffffff16815260200190815260200160002060006101000a81548160ff021916908315150217905550610ad66108ce565b73ffffffffffffffffffffffffffffffffffffffff168173ffffffffffffffffffffffffffffffffffffffff16837ff6391f5c32d9c69d2a47ea670b442974b53935d1edc7fd64eb21e047a839171b60405160405180910390a45b5050565b60008060009054906101000a900473ffffffffffffffffffffffffffffffffffffffff169050816000806101000a81548173ffffffffffffffffffffffffffffffffffffffff021916908373ffffffffffffffffffffffffffffffffffffffff1602179055508173ffffffffffffffffffffffffffffffffffffffff168173ffffffffffffffffffffffffffffffffffffffff167f8be0079c531659141344cd1fd0a4f28419497f9722a3daafe3b4186f6b6457e060405160405180910390a35050565b6060610c0484610793565b610c43576040517f08c379a0000000000000000000000000000000000000000000000000000000008152600401610c3a906113f8565b60405180910390fd5b6000808573ffffffffffffffffffffffffffffffffffffffff1685604051610c6b91906112d4565b600060405180830381855af49150503d8060008114610ca6576040519150601f19603f3d011682016040523d82523d6000602084013e610cab565b606091505b5091509150610cbb828286610f59565b925050509392505050565b6000610cf47fa3f0ad74e5423aebfd80d3ef4346578335a9a72aeaee59ff6cb3582b35133d5060001b6107a6565b60000160009054906101000a900473ffffffffffffffffffffffffffffffffffffffff16905090565b606060006002836002610d3091906114e6565b610d3a9190611490565b67ffffffffffffffff811115610d5357610d526116da565b5b6040519080825280601f01601f191660200182016040528015610d855781602001600182028036833780820191505090505b5090507f300000000000000000000000000000000000000000000000000000000000000081600081518110610dbd57610dbc6116ab565b5b60200101907effffffffffffffffffffffffffffffffffffffffffffffffffffffffffffff1916908160001a9053507f780000000000000000000000000000000000000000000000000000000000000081600181518110610e2157610e206116ab565b5b60200101907effffffffffffffffffffffffffffffffffffffffffffffffffffffffffffff1916908160001a90535060006001846002610e6191906114e6565b610e6b9190611490565b90505b6001811115610f0b577f3031323334353637383961626364656600000000000000000000000000000000600f861660108110610ead57610eac6116ab565b5b1a60f81b828281518110610ec457610ec36116ab565b5b60200101907effffffffffffffffffffffffffffffffffffffffffffffffffffffffffffff1916908160001a905350600485901c945080610f04906115f1565b9050610e6e565b5060008414610f4f576040517f08c379a0000000000000000000000000000000000000000000000000000000008152600401610f4690611398565b60405180910390fd5b8091505092915050565b60608315610f6957829050610fb9565b600083511115610f7c5782518084602001fd5b816040517f08c379a0000000000000000000000000000000000000000000000000000000008152600401610fb09190611376565b60405180910390fd5b9392505050565b600081359050610fcf816118b0565b92915050565b600081519050610fe4816118b0565b92915050565b600081359050610ff9816118c7565b92915050565b60008135905061100e816118de565b92915050565b60006020828403121561102a57611029611709565b5b600061103884828501610fc0565b91505092915050565b60006020828403121561105757611056611709565b5b600061106584828501610fd5565b91505092915050565b60006020828403121561108457611083611709565b5b600061109284828501610fea565b91505092915050565b600080604083850312156110b2576110b1611709565b5b60006110c085828601610fea565b92505060206110d185828601610fc0565b9150509250929050565b6000602082840312156110f1576110f0611709565b5b60006110ff84828501610fff565b91505092915050565b61111181611540565b82525050565b61112081611552565b82525050565b61112f8161155e565b82525050565b600061114082611453565b61114a8185611469565b935061115a8185602086016115be565b80840191505092915050565b60006111718261145e565b61117b8185611474565b935061118b8185602086016115be565b6111948161170e565b840191505092915050565b60006111aa8261145e565b6111b48185611485565b93506111c48185602086016115be565b80840191505092915050565b60006111dd602083611474565b91506111e88261171f565b602082019050919050565b6000611200602683611474565b915061120b82611748565b604082019050919050565b6000611223602083611474565b915061122e82611797565b602082019050919050565b6000611246602683611474565b9150611251826117c0565b604082019050919050565b6000611269601783611485565b91506112748261180f565b601782019050919050565b600061128c601183611485565b915061129782611838565b601182019050919050565b60006112af602f83611474565b91506112ba82611861565b604082019050919050565b6112ce816115b4565b82525050565b60006112e08284611135565b915081905092915050565b60006112f68261125c565b9150611302828561119f565b915061130d8261127f565b9150611319828461119f565b91508190509392505050565b600060208201905061133a6000830184611108565b92915050565b60006020820190506113556000830184611117565b92915050565b60006020820190506113706000830184611126565b92915050565b600060208201905081810360008301526113908184611166565b905092915050565b600060208201905081810360008301526113b1816111d0565b9050919050565b600060208201905081810360008301526113d1816111f3565b9050919050565b600060208201905081810360008301526113f181611216565b9050919050565b6000602082019050818103600083015261141181611239565b9050919050565b60006020820190508181036000830152611431816112a2565b9050919050565b600060208201905061144d60008301846112c5565b92915050565b600081519050919050565b600081519050919050565b600081905092915050565b600082825260208201905092915050565b600081905092915050565b600061149b826115b4565b91506114a6836115b4565b9250827fffffffffffffffffffffffffffffffffffffffffffffffffffffffffffffffff038211156114db576114da61164d565b5b828201905092915050565b60006114f1826115b4565b91506114fc836115b4565b9250817fffffffffffffffffffffffffffffffffffffffffffffffffffffffffffffffff04831182151516156115355761153461164d565b5b828202905092915050565b600061154b82611594565b9050919050565b60008115159050919050565b6000819050919050565b60007fffffffff0000000000000000000000000000000000000000000000000000000082169050919050565b600073ffffffffffffffffffffffffffffffffffffffff82169050919050565b6000819050919050565b60005b838110156115dc5780820151818401526020810190506115c1565b838111156115eb576000848401525b50505050565b60006115fc826115b4565b915060008214156116105761160f61164d565b5b600182039050919050565b6000600282049050600182168061163357607f821691505b602082108114156116475761164661167c565b5b50919050565b7f4e487b7100000000000000000000000000000000000000000000000000000000600052601160045260246000fd5b7f4e487b7100000000000000000000000000000000000000000000000000000000600052602260045260246000fd5b7f4e487b7100000000000000000000000000000000000000000000000000000000600052603260045260246000fd5b7f4e487b7100000000000000000000000000000000000000000000000000000000600052604160045260246000fd5b600080fd5b6000601f19601f8301169050919050565b7f537472696e67733a20686578206c656e67746820696e73756666696369656e74600082015250565b7f4f776e61626c653a206e6577206f776e657220697320746865207a65726f206160008201527f6464726573730000000000000000000000000000000000000000000000000000602082015250565b7f4f776e61626c653a2063616c6c6572206973206e6f7420746865206f776e6572600082015250565b7f416464726573733a2064656c65676174652063616c6c20746f206e6f6e2d636f60008201527f6e74726163740000000000000000000000000000000000000000000000000000602082015250565b7f416363657373436f6e74726f6c3a206163636f756e7420000000000000000000600082015250565b7f206973206d697373696e6720726f6c6520000000000000000000000000000000600082015250565b7f416363657373436f6e74726f6c3a2063616e206f6e6c792072656e6f756e636560008201527f20726f6c657320666f722073656c660000000000000000000000000000000000602082015250565b6118b981611540565b81146118c457600080fd5b50565b6118d08161155e565b81146118db57600080fd5b50565b6118e781611568565b81146118f257600080fd5b5056fe416464726573733a206c6f772d6c6576656c2064656c65676174652063616c6c206661696c6564a2646970667358221220d1f3e94ab3577e8d8318896f1a3ee9766cda116a18baa6dee2390c1b51697c6964736f6c63430008070033416464726573733a206c6f772d6c6576656c2064656c65676174652063616c6c206661696c6564608060405234801561001057600080fd5b5060405162000a9138038062000a91833981810160405281019061003491906101ef565b61005061004561006560201b60201c565b61006d60201b60201c565b61005f8161013160201b60201c565b5061030d565b600033905090565b60008060009054906101000a900473ffffffffffffffffffffffffffffffffffffffff169050816000806101000a81548173ffffffffffffffffffffffffffffffffffffffff021916908373ffffffffffffffffffffffffffffffffffffffff1602179055508173ffffffffffffffffffffffffffffffffffffffff168173ffffffffffffffffffffffffffffffffffffffff167f8be0079c531659141344cd1fd0a4f28419497f9722a3daafe3b4186f6b6457e060405160405180910390a35050565b610144816101c760201b6103781760201c565b610183576040517f08c379a000000000000000000000000000000000000000000000000000000000815260040161017a9061023f565b60405180910390fd5b80600160006101000a81548173ffffffffffffffffffffffffffffffffffffffff021916908373ffffffffffffffffffffffffffffffffffffffff16021790555050565b600080823b905060008111915050919050565b6000815190506101e9816102f6565b92915050565b600060208284031215610205576102046102a2565b5b6000610213848285016101da565b91505092915050565b600061022960338361025f565b9150610234826102a7565b604082019050919050565b600060208201905081810360008301526102588161021c565b9050919050565b600082825260208201905092915050565b600061027b82610282565b9050919050565b600073ffffffffffffffffffffffffffffffffffffffff82169050919050565b600080fd5b7f5570677261646561626c65426561636f6e3a20696d706c656d656e746174696f60008201527f6e206973206e6f74206120636f6e747261637400000000000000000000000000602082015250565b6102ff81610270565b811461030a57600080fd5b50565b610774806200031d6000396000f3fe608060405234801561001057600080fd5b50600436106100575760003560e01c80633659cfe61461005c5780635c60da1b14610078578063715018a6146100965780638da5cb5b146100a0578063f2fde38b146100be575b600080fd5b610076600480360381019061007191906104f8565b6100da565b005b6100806101a5565b60405161008d919061059d565b60405180910390f35b61009e6101cf565b005b6100a8610257565b6040516100b5919061059d565b60405180910390f35b6100d860048036038101906100d391906104f8565b610280565b005b6100e261038b565b73ffffffffffffffffffffffffffffffffffffffff16610100610257565b73ffffffffffffffffffffffffffffffffffffffff1614610156576040517f08c379a000000000000000000000000000000000000000000000000000000000815260040161014d906105f8565b60405180910390fd5b61015f81610393565b8073ffffffffffffffffffffffffffffffffffffffff167fbc7cd75a20ee27fd9adebab32041f755214dbc6bffa90cc0225b39da2e5c2d3b60405160405180910390a250565b6000600160009054906101000a900473ffffffffffffffffffffffffffffffffffffffff16905090565b6101d761038b565b73ffffffffffffffffffffffffffffffffffffffff166101f5610257565b73ffffffffffffffffffffffffffffffffffffffff161461024b576040517f08c379a0000000000000000000000000000000000000000000000000000000008152600401610242906105f8565b60405180910390fd5b610255600061041f565b565b60008060009054906101000a900473ffffffffffffffffffffffffffffffffffffffff16905090565b61028861038b565b73ffffffffffffffffffffffffffffffffffffffff166102a6610257565b73ffffffffffffffffffffffffffffffffffffffff16146102fc576040517f08c379a00000000000000000000000000000000000000000000000000000000081526004016102f3906105f8565b60405180910390fd5b600073ffffffffffffffffffffffffffffffffffffffff168173ffffffffffffffffffffffffffffffffffffffff16141561036c576040517f08c379a0000000000000000000000000000000000000000000000000000000008152600401610363906105b8565b60405180910390fd5b6103758161041f565b50565b600080823b905060008111915050919050565b600033905090565b61039c81610378565b6103db576040517f08c379a00000000000000000000000000000000000000000000000000000000081526004016103d2906105d8565b60405180910390fd5b80600160006101000a81548173ffffffffffffffffffffffffffffffffffffffff021916908373ffffffffffffffffffffffffffffffffffffffff16021790555050565b60008060009054906101000a900473ffffffffffffffffffffffffffffffffffffffff169050816000806101000a81548173ffffffffffffffffffffffffffffffffffffffff021916908373ffffffffffffffffffffffffffffffffffffffff1602179055508173ffffffffffffffffffffffffffffffffffffffff168173ffffffffffffffffffffffffffffffffffffffff167f8be0079c531659141344cd1fd0a4f28419497f9722a3daafe3b4186f6b6457e060405160405180910390a35050565b6000813590506104f281610727565b92915050565b60006020828403121561050e5761050d61065b565b5b600061051c848285016104e3565b91505092915050565b61052e81610629565b82525050565b6000610541602683610618565b915061054c82610660565b604082019050919050565b6000610564603383610618565b915061056f826106af565b604082019050919050565b6000610587602083610618565b9150610592826106fe565b602082019050919050565b60006020820190506105b26000830184610525565b92915050565b600060208201905081810360008301526105d181610534565b9050919050565b600060208201905081810360008301526105f181610557565b9050919050565b600060208201905081810360008301526106118161057a565b9050919050565b600082825260208201905092915050565b60006106348261063b565b9050919050565b600073ffffffffffffffffffffffffffffffffffffffff82169050919050565b600080fd5b7f4f776e61626c653a206e6577206f776e657220697320746865207a65726f206160008201527f6464726573730000000000000000000000000000000000000000000000000000602082015250565b7f5570677261646561626c65426561636f6e3a20696d706c656d656e746174696f60008201527f6e206973206e6f74206120636f6e747261637400000000000000000000000000602082015250565b7f4f776e61626c653a2063616c6c6572206973206e6f7420746865206f776e6572600082015250565b61073081610629565b811461073b57600080fd5b5056fea2646970667358221220f14c1e123fc6650c2510ce92a5938ce8dbd619e20ec5ceb7ad4526f9ccdb6aca64736f6c63430008070033a26469706673582212209ea5d93809b801e5037dc698a212f87b3692f4a33a71ab745b32f88ffa33b64864736f6c63430008070033608060405234801561001057600080fd5b5060405162000a9138038062000a91833981810160405281019061003491906101ef565b61005061004561006560201b60201c565b61006d60201b60201c565b61005f8161013160201b60201c565b5061030d565b600033905090565b60008060009054906101000a900473ffffffffffffffffffffffffffffffffffffffff169050816000806101000a81548173ffffffffffffffffffffffffffffffffffffffff021916908373ffffffffffffffffffffffffffffffffffffffff1602179055508173ffffffffffffffffffffffffffffffffffffffff168173ffffffffffffffffffffffffffffffffffffffff167f8be0079c531659141344cd1fd0a4f28419497f9722a3daafe3b4186f6b6457e060405160405180910390a35050565b610144816101c760201b6103781760201c565b610183576040517f08c379a000000000000000000000000000000000000000000000000000000000815260040161017a9061023f565b60405180910390fd5b80600160006101000a81548173ffffffffffffffffffffffffffffffffffffffff021916908373ffffffffffffffffffffffffffffffffffffffff16021790555050565b600080823b905060008111915050919050565b6000815190506101e9816102f6565b92915050565b600060208284031215610205576102046102a2565b5b6000610213848285016101da565b91505092915050565b600061022960338361025f565b9150610234826102a7565b604082019050919050565b600060208201905081810360008301526102588161021c565b9050919050565b600082825260208201905092915050565b600061027b82610282565b9050919050565b600073ffffffffffffffffffffffffffffffffffffffff82169050919050565b600080fd5b7f5570677261646561626c65426561636f6e3a20696d706c656d656e746174696f60008201527f6e206973206e6f74206120636f6e747261637400000000000000000000000000602082015250565b6102ff81610270565b811461030a57600080fd5b50565b610774806200031d6000396000f3fe608060405234801561001057600080fd5b50600436106100575760003560e01c80633659cfe61461005c5780635c60da1b14610078578063715018a6146100965780638da5cb5b146100a0578063f2fde38b146100be575b600080fd5b610076600480360381019061007191906104f8565b6100da565b005b6100806101a5565b60405161008d919061059d565b60405180910390f35b61009e6101cf565b005b6100a8610257565b6040516100b5919061059d565b60405180910390f35b6100d860048036038101906100d391906104f8565b610280565b005b6100e261038b565b73ffffffffffffffffffffffffffffffffffffffff16610100610257565b73ffffffffffffffffffffffffffffffffffffffff1614610156576040517f08c379a000000000000000000000000000000000000000000000000000000000815260040161014d906105f8565b60405180910390fd5b61015f81610393565b8073ffffffffffffffffffffffffffffffffffffffff167fbc7cd75a20ee27fd9adebab32041f755214dbc6bffa90cc0225b39da2e5c2d3b60405160405180910390a250565b6000600160009054906101000a900473ffffffffffffffffffffffffffffffffffffffff16905090565b6101d761038b565b73ffffffffffffffffffffffffffffffffffffffff166101f5610257565b73ffffffffffffffffffffffffffffffffffffffff161461024b576040517f08c379a0000000000000000000000000000000000000000000000000000000008152600401610242906105f8565b60405180910390fd5b610255600061041f565b565b60008060009054906101000a900473ffffffffffffffffffffffffffffffffffffffff16905090565b61028861038b565b73ffffffffffffffffffffffffffffffffffffffff166102a6610257565b73ffffffffffffffffffffffffffffffffffffffff16146102fc576040517f08c379a00000000000000000000000000000000000000000000000000000000081526004016102f3906105f8565b60405180910390fd5b600073ffffffffffffffffffffffffffffffffffffffff168173ffffffffffffffffffffffffffffffffffffffff16141561036c576040517f08c379a0000000000000000000000000000000000000000000000000000000008152600401610363906105b8565b60405180910390fd5b6103758161041f565b50565b600080823b905060008111915050919050565b600033905090565b61039c81610378565b6103db576040517f08c379a00000000000000000000000000000000000000000000000000000000081526004016103d2906105d8565b60405180910390fd5b80600160006101000a81548173ffffffffffffffffffffffffffffffffffffffff021916908373ffffffffffffffffffffffffffffffffffffffff16021790555050565b60008060009054906101000a900473ffffffffffffffffffffffffffffffffffffffff169050816000806101000a81548173ffffffffffffffffffffffffffffffffffffffff021916908373ffffffffffffffffffffffffffffffffffffffff1602179055508173ffffffffffffffffffffffffffffffffffffffff168173ffffffffffffffffffffffffffffffffffffffff167f8be0079c531659141344cd1fd0a4f28419497f9722a3daafe3b4186f6b6457e060405160405180910390a35050565b6000813590506104f281610727565b92915050565b60006020828403121561050e5761050d61065b565b5b600061051c848285016104e3565b91505092915050565b61052e81610629565b82525050565b6000610541602683610618565b915061054c82610660565b604082019050919050565b6000610564603383610618565b915061056f826106af565b604082019050919050565b6000610587602083610618565b9150610592826106fe565b602082019050919050565b60006020820190506105b26000830184610525565b92915050565b600060208201905081810360008301526105d181610534565b9050919050565b600060208201905081810360008301526105f181610557565b9050919050565b600060208201905081810360008301526106118161057a565b9050919050565b600082825260208201905092915050565b60006106348261063b565b9050919050565b600073ffffffffffffffffffffffffffffffffffffffff82169050919050565b600080fd5b7f4f776e61626c653a206e6577206f776e657220697320746865207a65726f206160008201527f6464726573730000000000000000000000000000000000000000000000000000602082015250565b7f5570677261646561626c65426561636f6e3a20696d706c656d656e746174696f60008201527f6e206973206e6f74206120636f6e747261637400000000000000000000000000602082015250565b7f4f776e61626c653a2063616c6c6572206973206e6f7420746865206f776e6572600082015250565b61073081610629565b811461073b57600080fd5b5056fea2646970667358221220f14c1e123fc6650c2510ce92a5938ce8dbd619e20ec5ceb7ad4526f9ccdb6aca64736f6c63430008070033608060405234801561001057600080fd5b5061002d61002261003260201b60201c565b61003a60201b60201c565b6100fe565b600033905090565b60008060009054906101000a900473ffffffffffffffffffffffffffffffffffffffff169050816000806101000a81548173ffffffffffffffffffffffffffffffffffffffff021916908373ffffffffffffffffffffffffffffffffffffffff1602179055508173ffffffffffffffffffffffffffffffffffffffff168173ffffffffffffffffffffffffffffffffffffffff167f8be0079c531659141344cd1fd0a4f28419497f9722a3daafe3b4186f6b6457e060405160405180910390a35050565b610f088061010d6000396000f3fe608060405234801561001057600080fd5b50600436106100935760003560e01c8063c59d484711610066578063c59d48471461010c578063d4313da81461012a578063edef8b831461015a578063ef5c10201461018a578063f2fde38b146101a857610093565b80632186e72614610098578063715018a6146100c85780638da5cb5b146100d25780639e9d7066146100f0575b600080fd5b6100b260048036038101906100ad91906109d8565b6101c4565b6040516100bf9190610cc4565b60405180910390f35b6100d06101f5565b005b6100da61027d565b6040516100e79190610c25565b60405180910390f35b61010a600480360381019061010591906109d8565b6102a6565b005b610114610398565b6040516101219190610c40565b60405180910390f35b610144600480360381019061013f91906109ab565b610558565b6040516101519190610c62565b60405180910390f35b610174600480360381019061016f91906109ab565b6105c3565b6040516101819190610cc4565b60405180910390f35b6101926105f1565b60405161019f9190610c40565b60405180910390f35b6101c260048036038101906101bd919061097e565b6106b2565b005b600160205281600052604060002081815481106101e057600080fd5b90600052602060002001600091509150505481565b6101fd6107aa565b73ffffffffffffffffffffffffffffffffffffffff1661021b61027d565b73ffffffffffffffffffffffffffffffffffffffff1614610271576040517f08c379a000000000000000000000000000000000000000000000000000000000815260040161026890610ca4565b60405180910390fd5b61027b60006107b2565b565b60008060009054906101000a900473ffffffffffffffffffffffffffffffffffffffff16905090565b6102ae6107aa565b73ffffffffffffffffffffffffffffffffffffffff166102cc61027d565b73ffffffffffffffffffffffffffffffffffffffff1614610322576040517f08c379a000000000000000000000000000000000000000000000000000000000815260040161031990610ca4565b60405180910390fd5b60006001600084815260200190815260200160002080549050141561035a576003600081548092919061035490610daf565b91905055505b600160008381526020019081526020016000208190806001815401808255809150506001900390600052602060002001600090919091909150555050565b6060600260006103a89190610876565b60005b60035481101561049857600060405180604001604052808381526020016001600085815260200190815260200160002080548060200260200160405190810160405280929190818152602001828054801561042557602002820191906000526020600020905b815481526020019060010190808311610411575b50505050508152509050600281908060018154018082558091505060019003906000526020600020906002020160009091909190915060008201518160000155602082015181600101908051906020019061048192919061089a565b50505050808061049090610daf565b9150506103ab565b506002805480602002602001604051908101604052809291908181526020016000905b8282101561054f5783829060005260206000209060020201604051806040016040529081600082015481526020016001820180548060200260200160405190810160405280929190818152602001828054801561053757602002820191906000526020600020905b815481526020019060010190808311610523575b505050505081525050815260200190600101906104bb565b50505050905090565b6060600160008381526020019081526020016000208054806020026020016040519081016040528092919081815260200182805480156105b757602002820191906000526020600020905b8154815260200190600101908083116105a3575b50505050509050919050565b600281815481106105d357600080fd5b90600052602060002090600202016000915090508060000154905081565b60606002805480602002602001604051908101604052809291908181526020016000905b828210156106a95783829060005260206000209060020201604051806040016040529081600082015481526020016001820180548060200260200160405190810160405280929190818152602001828054801561069157602002820191906000526020600020905b81548152602001906001019080831161067d575b50505050508152505081526020019060010190610615565b50505050905090565b6106ba6107aa565b73ffffffffffffffffffffffffffffffffffffffff166106d861027d565b73ffffffffffffffffffffffffffffffffffffffff161461072e576040517f08c379a000000000000000000000000000000000000000000000000000000000815260040161072590610ca4565b60405180910390fd5b600073ffffffffffffffffffffffffffffffffffffffff168173ffffffffffffffffffffffffffffffffffffffff16141561079e576040517f08c379a000000000000000000000000000000000000000000000000000000000815260040161079590610c84565b60405180910390fd5b6107a7816107b2565b50565b600033905090565b60008060009054906101000a900473ffffffffffffffffffffffffffffffffffffffff169050816000806101000a81548173ffffffffffffffffffffffffffffffffffffffff021916908373ffffffffffffffffffffffffffffffffffffffff1602179055508173ffffffffffffffffffffffffffffffffffffffff168173ffffffffffffffffffffffffffffffffffffffff167f8be0079c531659141344cd1fd0a4f28419497f9722a3daafe3b4186f6b6457e060405160405180910390a35050565b508054600082556002029060005260206000209081019061089791906108e7565b50565b8280548282559060005260206000209081019282156108d6579160200282015b828111156108d55782518255916020019190600101906108ba565b5b5090506108e39190610916565b5090565b5b80821115610912576000808201600090556001820160006109099190610933565b506002016108e8565b5090565b5b8082111561092f576000816000905550600101610917565b5090565b50805460008255906000526020600020908101906109519190610916565b50565b60008135905061096381610ea4565b92915050565b60008135905061097881610ebb565b92915050565b60006020828403121561099457610993610e27565b5b60006109a284828501610954565b91505092915050565b6000602082840312156109c1576109c0610e27565b5b60006109cf84828501610969565b91505092915050565b600080604083850312156109ef576109ee610e27565b5b60006109fd85828601610969565b9250506020610a0e85828601610969565b9150509250929050565b6000610a248383610bca565b905092915050565b6000610a388383610c07565b60208301905092915050565b610a4d81610d73565b82525050565b6000610a5e82610cff565b610a688185610d2f565b935083602082028501610a7a85610cdf565b8060005b85811015610ab65784840389528151610a978582610a18565b9450610aa283610d15565b925060208a01995050600181019050610a7e565b50829750879550505050505092915050565b6000610ad382610d0a565b610add8185610d40565b9350610ae883610cef565b8060005b83811015610b19578151610b008882610a2c565b9750610b0b83610d22565b925050600181019050610aec565b5085935050505092915050565b6000610b3182610d0a565b610b3b8185610d51565b9350610b4683610cef565b8060005b83811015610b77578151610b5e8882610a2c565b9750610b6983610d22565b925050600181019050610b4a565b5085935050505092915050565b6000610b91602683610d62565b9150610b9c82610e2c565b604082019050919050565b6000610bb4602083610d62565b9150610bbf82610e7b565b602082019050919050565b6000604083016000830151610be26000860182610c07565b5060208301518482036020860152610bfa8282610ac8565b9150508091505092915050565b610c1081610da5565b82525050565b610c1f81610da5565b82525050565b6000602082019050610c3a6000830184610a44565b92915050565b60006020820190508181036000830152610c5a8184610a53565b905092915050565b60006020820190508181036000830152610c7c8184610b26565b905092915050565b60006020820190508181036000830152610c9d81610b84565b9050919050565b60006020820190508181036000830152610cbd81610ba7565b9050919050565b6000602082019050610cd96000830184610c16565b92915050565b6000819050602082019050919050565b6000819050602082019050919050565b600081519050919050565b600081519050919050565b6000602082019050919050565b6000602082019050919050565b600082825260208201905092915050565b600082825260208201905092915050565b600082825260208201905092915050565b600082825260208201905092915050565b6000610d7e82610d85565b9050919050565b600073ffffffffffffffffffffffffffffffffffffffff82169050919050565b6000819050919050565b6000610dba82610da5565b91507fffffffffffffffffffffffffffffffffffffffffffffffffffffffffffffffff821415610ded57610dec610df8565b5b600182019050919050565b7f4e487b7100000000000000000000000000000000000000000000000000000000600052601160045260246000fd5b600080fd5b7f4f776e61626c653a206e6577206f776e657220697320746865207a65726f206160008201527f6464726573730000000000000000000000000000000000000000000000000000602082015250565b7f4f776e61626c653a2063616c6c6572206973206e6f7420746865206f776e6572600082015250565b610ead81610d73565b8114610eb857600080fd5b50565b610ec481610da5565b8114610ecf57600080fd5b5056fea26469706673582212205febb2acc6a1c31881a6c28f0c91531b29b97cc9f0e7d72059281fac1629c91364736f6c63430008070033",
  "linkReferences": {},
  "deployedLinkReferences": {}
}