{
  "_format": "hh-sol-artifact-1",
  "contractName": "LeagueMaker",
  "sourceName": "contracts/LeagueMaker.sol",
  "abi": [
    {
      "inputs": [
        {
          "internalType": "address",
          "name": "_logic",
          "type": "address"
        }
      ],
      "stateMutability": "nonpayable",
      "type": "constructor"
    },
    {
      "anonymous": false,
      "inputs": [
        {
          "indexed": false,
          "internalType": "string",
          "name": "name",
          "type": "string"
        },
        {
          "indexed": false,
          "internalType": "address",
          "name": "proxyAddress",
          "type": "address"
        },
        {
          "indexed": false,
          "internalType": "address",
          "name": "proxyAdminAddress",
          "type": "address"
        }
      ],
      "name": "LeagueCreated",
      "type": "event"
    },
    {
      "anonymous": false,
      "inputs": [
        {
          "indexed": true,
          "internalType": "address",
          "name": "previousOwner",
          "type": "address"
        },
        {
          "indexed": true,
          "internalType": "address",
          "name": "newOwner",
          "type": "address"
        }
      ],
      "name": "OwnershipTransferred",
      "type": "event"
    },
    {
      "anonymous": false,
      "inputs": [
        {
          "indexed": false,
          "internalType": "bool",
          "name": "success",
          "type": "bool"
        },
        {
          "indexed": false,
          "internalType": "bytes",
          "name": "data",
          "type": "bytes"
        }
      ],
      "name": "Response",
      "type": "event"
    },
    {
      "inputs": [
        {
          "internalType": "string",
          "name": "_name",
          "type": "string"
        },
        {
          "internalType": "uint256",
          "name": "_stakeAmount",
          "type": "uint256"
        },
        {
          "internalType": "bool",
          "name": "_isPublic",
          "type": "bool"
        },
        {
          "internalType": "address",
          "name": "_adminAddress",
          "type": "address"
        },
        {
          "internalType": "address",
          "name": "_testUSDCAddress",
          "type": "address"
        },
        {
          "internalType": "address",
          "name": "_athletesContractAddress",
          "type": "address"
        },
        {
          "internalType": "address[]",
          "name": "_whitelistUsers",
          "type": "address[]"
        }
      ],
      "name": "createLeague",
      "outputs": [
        {
          "internalType": "address",
          "name": "",
          "type": "address"
        }
      ],
      "stateMutability": "nonpayable",
      "type": "function"
    },
    {
      "inputs": [],
      "name": "currentWeek",
      "outputs": [
        {
          "internalType": "uint256",
          "name": "",
          "type": "uint256"
        }
      ],
      "stateMutability": "view",
      "type": "function"
    },
    {
      "inputs": [],
      "name": "evaluateWeekForAllLeagues",
      "outputs": [],
      "stateMutability": "nonpayable",
      "type": "function"
    },
    {
      "inputs": [
        {
          "internalType": "address",
          "name": "",
          "type": "address"
        }
      ],
      "name": "isProxyMap",
      "outputs": [
        {
          "internalType": "bool",
          "name": "",
          "type": "bool"
        }
      ],
      "stateMutability": "view",
      "type": "function"
    },
    {
      "inputs": [
        {
          "internalType": "uint256",
          "name": "",
          "type": "uint256"
        }
      ],
      "name": "leagueAddresses",
      "outputs": [
        {
          "internalType": "address",
          "name": "",
          "type": "address"
        }
      ],
      "stateMutability": "view",
      "type": "function"
    },
    {
      "inputs": [],
      "name": "lockLeagueLineups",
      "outputs": [],
      "stateMutability": "nonpayable",
      "type": "function"
    },
    {
      "inputs": [],
      "name": "lockLeagueMembership",
      "outputs": [],
      "stateMutability": "nonpayable",
      "type": "function"
    },
    {
      "inputs": [],
      "name": "owner",
      "outputs": [
        {
          "internalType": "address",
          "name": "",
          "type": "address"
        }
      ],
      "stateMutability": "view",
      "type": "function"
    },
    {
      "inputs": [],
      "name": "renounceOwnership",
      "outputs": [],
      "stateMutability": "nonpayable",
      "type": "function"
    },
    {
      "inputs": [
        {
          "internalType": "address",
          "name": "logic",
          "type": "address"
        }
      ],
      "name": "setBeacon",
      "outputs": [
        {
          "internalType": "address",
          "name": "",
          "type": "address"
        }
      ],
      "stateMutability": "nonpayable",
      "type": "function"
    },
    {
      "inputs": [],
      "name": "setLeagueSchedules",
      "outputs": [],
      "stateMutability": "nonpayable",
      "type": "function"
    },
    {
      "inputs": [
        {
          "internalType": "address",
          "name": "newOwner",
          "type": "address"
        }
      ],
      "name": "transferOwnership",
      "outputs": [],
      "stateMutability": "nonpayable",
      "type": "function"
    },
    {
      "inputs": [],
      "name": "unlockLeagueLineups",
      "outputs": [],
      "stateMutability": "nonpayable",
      "type": "function"
    },
    {
      "inputs": [
        {
          "internalType": "address",
          "name": "user",
          "type": "address"
        }
      ],
      "name": "updateUserToLeagueMapping",
      "outputs": [],
      "stateMutability": "nonpayable",
      "type": "function"
    },
    {
      "inputs": [
        {
          "internalType": "address",
          "name": "",
          "type": "address"
        },
        {
          "internalType": "uint256",
          "name": "",
          "type": "uint256"
        }
      ],
      "name": "userToLeagueMap",
      "outputs": [
        {
          "internalType": "address",
          "name": "",
          "type": "address"
        }
      ],
      "stateMutability": "view",
      "type": "function"
    }
  ],
  "bytecode": "0x60a060405260086007556000600855732791bca1f2de4661ed88a30c99a7a9449aa84174600960006101000a81548173ffffffffffffffffffffffffffffffffffffffff021916908373ffffffffffffffffffffffffffffffffffffffff16021790555073eb8f08a975ab53e34d8a0330e0d34de942c95926600a60006101000a81548173ffffffffffffffffffffffffffffffffffffffff021916908373ffffffffffffffffffffffffffffffffffffffff1602179055506040518060a00160405280600960009054906101000a900473ffffffffffffffffffffffffffffffffffffffff1673ffffffffffffffffffffffffffffffffffffffff1673ffffffffffffffffffffffffffffffffffffffff168152602001600a60009054906101000a900473ffffffffffffffffffffffffffffffffffffffff1673ffffffffffffffffffffffffffffffffffffffff1673ffffffffffffffffffffffffffffffffffffffff168152602001600073ffffffffffffffffffffffffffffffffffffffff1673ffffffffffffffffffffffffffffffffffffffff168152602001600073ffffffffffffffffffffffffffffffffffffffff1673ffffffffffffffffffffffffffffffffffffffff1681526020013073ffffffffffffffffffffffffffffffffffffffff1673ffffffffffffffffffffffffffffffffffffffff16815250600b90600562000213929190620003a9565b503480156200022157600080fd5b5060405162006d8738038062006d8783398181016040528101906200024791906200046f565b620002676200025b620002dd60201b60201c565b620002e560201b60201c565b8060405162000276906200042b565b620002829190620004b2565b604051809103906000f0801580156200029f573d6000803e3d6000fd5b5073ffffffffffffffffffffffffffffffffffffffff1660808173ffffffffffffffffffffffffffffffffffffffff1660601b815250505062000522565b600033905090565b60008060009054906101000a900473ffffffffffffffffffffffffffffffffffffffff169050816000806101000a81548173ffffffffffffffffffffffffffffffffffffffff021916908373ffffffffffffffffffffffffffffffffffffffff1602179055508173ffffffffffffffffffffffffffffffffffffffff168173ffffffffffffffffffffffffffffffffffffffff167f8be0079c531659141344cd1fd0a4f28419497f9722a3daafe3b4186f6b6457e060405160405180910390a35050565b826005810192821562000418579160200282015b82811115620004175782518260006101000a81548173ffffffffffffffffffffffffffffffffffffffff021916908373ffffffffffffffffffffffffffffffffffffffff16021790555091602001919060010190620003bd565b5b50905062000427919062000439565b5090565b610a9180620062f683390190565b5b80821115620004545760008160009055506001016200043a565b5090565b600081519050620004698162000508565b92915050565b60006020828403121562000488576200048762000503565b5b6000620004988482850162000458565b91505092915050565b620004ac81620004cf565b82525050565b6000602082019050620004c96000830184620004a1565b92915050565b6000620004dc82620004e3565b9050919050565b600073ffffffffffffffffffffffffffffffffffffffff82169050919050565b600080fd5b6200051381620004cf565b81146200051f57600080fd5b50565b60805160601c615db56200054160003960006110a80152615db56000f3fe60806040523480156200001157600080fd5b50600436106200010c5760003560e01c8063a945320f11620000a5578063d42afb56116200006f578063d42afb561462000253578063d54c9d161462000289578063f2fde38b1462000295578063f6acfc0514620002b5576200010c565b8063a945320f14620001cf578063b37cc9f114620001db578063c3530ff41462000211578063c49986a51462000247576200010c565b8063449f77fb11620000e7578063449f77fb1462000175578063715018a61462000181578063771bd4ce146200018d5780638da5cb5b14620001ad576200010c565b806306575c891462000111578063270cb3eb146200013357806329ffe5e9146200013f575b600080fd5b6200011b620002eb565b6040516200012a919062001c06565b60405180910390f35b6200013d620002f1565b005b6200015d6004803603810190620001579190620016d2565b62000582565b6040516200016c9190620019c9565b60405180910390f35b6200017f620005c2565b005b6200018b620006d1565b005b620001ab6004803603810190620001a5919062001560565b62000762565b005b620001b762000894565b604051620001c69190620019c9565b60405180910390f35b620001d9620008bd565b005b620001f96004803603810190620001f3919062001560565b62000b72565b60405162000208919062001a64565b60405180910390f35b6200022f600480360381019062000229919062001592565b62000b92565b6040516200023e9190620019c9565b60405180910390f35b6200025162000be1565b005b6200027160048036038101906200026b919062001560565b62000cd2565b604051620002809190620019c9565b60405180910390f35b6200029362000d5a565b005b620002b36004803603810190620002ad919062001560565b62000e4b565b005b620002d36004803603810190620002cd9190620015d9565b62000f4f565b604051620002e29190620019c9565b60405180910390f35b60085481565b620002fb620012af565b73ffffffffffffffffffffffffffffffffffffffff166200031b62000894565b73ffffffffffffffffffffffffffffffffffffffff161462000374576040517f08c379a00000000000000000000000000000000000000000000000000000000081526004016200036b9062001be4565b60405180910390fd5b73__$12cdf1fac25abe52b1eb298b32a4f32efb$__6388fa0a1f60036040518263ffffffff1660e01b8152600401620003ae919062001a1a565b60006040518083038186803b158015620003c757600080fd5b505af4158015620003dc573d6000803e3d6000fd5b505050506000606060005b6003805490508110156200057d57600381815481106200040c576200040b62001e1e565b5b9060005260206000200160009054906101000a900473ffffffffffffffffffffffffffffffffffffffff1673ffffffffffffffffffffffffffffffffffffffff166040516024016040516020818303038152906040527fe4c9066b000000000000000000000000000000000000000000000000000000007bffffffffffffffffffffffffffffffffffffffffffffffffffffffff19166020820180517bffffffffffffffffffffffffffffffffffffffffffffffffffffffff8381831617835250505050604051620004df9190620019b0565b6000604051808303816000865af19150503d80600081146200051e576040519150601f19603f3d011682016040523d82523d6000602084013e62000523565b606091505b5080935081945050507f13848c3e38f8886f3f5d2ad9dff80d8092c2bbb8efd5b887a99c2c6cfc09ac2a83836040516200055f92919062001a81565b60405180910390a18080620005749062001da1565b915050620003e7565b505050565b600381815481106200059357600080fd5b906000526020600020016000915054906101000a900473ffffffffffffffffffffffffffffffffffffffff1681565b620005cc620012af565b73ffffffffffffffffffffffffffffffffffffffff16620005ec62000894565b73ffffffffffffffffffffffffffffffffffffffff161462000645576040517f08c379a00000000000000000000000000000000000000000000000000000000081526004016200063c9062001be4565b60405180910390fd5b73__$12cdf1fac25abe52b1eb298b32a4f32efb$__6335c83fd360036008546040518363ffffffff1660e01b81526004016200068392919062001a37565b60006040518083038186803b1580156200069c57600080fd5b505af4158015620006b1573d6000803e3d6000fd5b5050505060086000815480929190620006ca9062001da1565b9190505550565b620006db620012af565b73ffffffffffffffffffffffffffffffffffffffff16620006fb62000894565b73ffffffffffffffffffffffffffffffffffffffff161462000754576040517f08c379a00000000000000000000000000000000000000000000000000000000081526004016200074b9062001be4565b60405180910390fd5b620007606000620012b7565b565b600560003373ffffffffffffffffffffffffffffffffffffffff1673ffffffffffffffffffffffffffffffffffffffff16815260200190815260200160002060009054906101000a900460ff16620007f1576040517f08c379a0000000000000000000000000000000000000000000000000000000008152600401620007e89062001bc2565b60405180910390fd5b600460008273ffffffffffffffffffffffffffffffffffffffff1673ffffffffffffffffffffffffffffffffffffffff168152602001908152602001600020339080600181540180825580915050600190039060005260206000200160009091909190916101000a81548173ffffffffffffffffffffffffffffffffffffffff021916908373ffffffffffffffffffffffffffffffffffffffff16021790555050565b60008060009054906101000a900473ffffffffffffffffffffffffffffffffffffffff16905090565b620008c7620012af565b73ffffffffffffffffffffffffffffffffffffffff16620008e762000894565b73ffffffffffffffffffffffffffffffffffffffff161462000940576040517f08c379a0000000000000000000000000000000000000000000000000000000008152600401620009379062001be4565b60405180910390fd5b6200096460405180606001604052806026815260200162005d5a602691396200137b565b73__$12cdf1fac25abe52b1eb298b32a4f32efb$__630e2a112660036040518263ffffffff1660e01b81526004016200099e919062001a1a565b60006040518083038186803b158015620009b757600080fd5b505af4158015620009cc573d6000803e3d6000fd5b505050506000606060005b60038054905081101562000b6d5760038181548110620009fc57620009fb62001e1e565b5b9060005260206000200160009054906101000a900473ffffffffffffffffffffffffffffffffffffffff1673ffffffffffffffffffffffffffffffffffffffff166040516024016040516020818303038152906040527f0655465a000000000000000000000000000000000000000000000000000000007bffffffffffffffffffffffffffffffffffffffffffffffffffffffff19166020820180517bffffffffffffffffffffffffffffffffffffffffffffffffffffffff838183161783525050505060405162000acf9190620019b0565b6000604051808303816000865af19150503d806000811462000b0e576040519150601f19603f3d011682016040523d82523d6000602084013e62000b13565b606091505b5080935081945050507f13848c3e38f8886f3f5d2ad9dff80d8092c2bbb8efd5b887a99c2c6cfc09ac2a838360405162000b4f92919062001a81565b60405180910390a1808062000b649062001da1565b915050620009d7565b505050565b60056020528060005260406000206000915054906101000a900460ff1681565b6004602052816000526040600020818154811062000baf57600080fd5b906000526020600020016000915091509054906101000a900473ffffffffffffffffffffffffffffffffffffffff1681565b62000beb620012af565b73ffffffffffffffffffffffffffffffffffffffff1662000c0b62000894565b73ffffffffffffffffffffffffffffffffffffffff161462000c64576040517f08c379a000000000000000000000000000000000000000000000000000000000815260040162000c5b9062001be4565b60405180910390fd5b73__$12cdf1fac25abe52b1eb298b32a4f32efb$__63c311d4f660036040518263ffffffff1660e01b815260040162000c9e919062001a1a565b60006040518083038186803b15801562000cb757600080fd5b505af415801562000ccc573d6000803e3d6000fd5b50505050565b6000808260405162000ce49062001441565b62000cf09190620019c9565b604051809103906000f08015801562000d0d573d6000803e3d6000fd5b50905080600260006101000a81548173ffffffffffffffffffffffffffffffffffffffff021916908373ffffffffffffffffffffffffffffffffffffffff16021790555080915050919050565b62000d64620012af565b73ffffffffffffffffffffffffffffffffffffffff1662000d8462000894565b73ffffffffffffffffffffffffffffffffffffffff161462000ddd576040517f08c379a000000000000000000000000000000000000000000000000000000000815260040162000dd49062001be4565b60405180910390fd5b73__$12cdf1fac25abe52b1eb298b32a4f32efb$__63a71e139860036040518263ffffffff1660e01b815260040162000e17919062001a1a565b60006040518083038186803b15801562000e3057600080fd5b505af415801562000e45573d6000803e3d6000fd5b50505050565b62000e55620012af565b73ffffffffffffffffffffffffffffffffffffffff1662000e7562000894565b73ffffffffffffffffffffffffffffffffffffffff161462000ece576040517f08c379a000000000000000000000000000000000000000000000000000000000815260040162000ec59062001be4565b60405180910390fd5b600073ffffffffffffffffffffffffffffffffffffffff168173ffffffffffffffffffffffffffffffffffffffff16141562000f41576040517f08c379a000000000000000000000000000000000000000000000000000000000815260040162000f389062001ba0565b60405180910390fd5b62000f4c81620012b7565b50565b600084600b60026005811062000f6a5762000f6962001e1e565b5b0160006101000a81548173ffffffffffffffffffffffffffffffffffffffff021916908373ffffffffffffffffffffffffffffffffffffffff16021790555083600b60036005811062000fc25762000fc162001e1e565b5b0160006101000a81548173ffffffffffffffffffffffffffffffffffffffff021916908373ffffffffffffffffffffffffffffffffffffffff16021790555060008a8a8a8a8a600b89896040516024016200102598979695949392919062001afb565b6040516020818303038152906040527f26f07a25000000000000000000000000000000000000000000000000000000007bffffffffffffffffffffffffffffffffffffffffffffffffffffffff19166020820180517bffffffffffffffffffffffffffffffffffffffffffffffffffffffff8381831617835250505050905060007f000000000000000000000000000000000000000000000000000000000000000082604051620010d6906200144f565b620010e3929190620019e6565b604051809103906000f08015801562001100573d6000803e3d6000fd5b5090506003819080600181540180825580915050600190039060005260206000200160009091909190916101000a81548173ffffffffffffffffffffffffffffffffffffffff021916908373ffffffffffffffffffffffffffffffffffffffff160217905550600460008973ffffffffffffffffffffffffffffffffffffffff1673ffffffffffffffffffffffffffffffffffffffff168152602001908152602001600020819080600181540180825580915050600190039060005260206000200160009091909190916101000a81548173ffffffffffffffffffffffffffffffffffffffff021916908373ffffffffffffffffffffffffffffffffffffffff1602179055506001600560008373ffffffffffffffffffffffffffffffffffffffff1673ffffffffffffffffffffffffffffffffffffffff16815260200190815260200160002060006101000a81548160ff0219169083151502179055507fc47056fccf84218e4e94c23620f6dff0eca24341da09715bdf519222f79d83c38c8c838b60405162001295949392919062001ab5565b60405180910390a180925050509998505050505050505050565b600033905090565b60008060009054906101000a900473ffffffffffffffffffffffffffffffffffffffff169050816000806101000a81548173ffffffffffffffffffffffffffffffffffffffff021916908373ffffffffffffffffffffffffffffffffffffffff1602179055508173ffffffffffffffffffffffffffffffffffffffff168173ffffffffffffffffffffffffffffffffffffffff167f8be0079c531659141344cd1fd0a4f28419497f9722a3daafe3b4186f6b6457e060405160405180910390a35050565b620014158160405160240162001392919062001b7c565b6040516020818303038152906040527f41304fac000000000000000000000000000000000000000000000000000000007bffffffffffffffffffffffffffffffffffffffffffffffffffffffff19166020820180517bffffffffffffffffffffffffffffffffffffffffffffffffffffffff838183161783525050505062001418565b50565b60008151905060006a636f6e736f6c652e6c6f679050602083016000808483855afa5050505050565b610a918062001faf83390190565b61331a8062002a4083390190565b6000813590506200146e8162001f60565b92915050565b60008083601f8401126200148d576200148c62001e67565b5b8235905067ffffffffffffffff811115620014ad57620014ac62001e62565b5b602083019150836020820283011115620014cc57620014cb62001e6c565b5b9250929050565b600081359050620014e48162001f7a565b92915050565b60008083601f84011262001503576200150262001e67565b5b8235905067ffffffffffffffff81111562001523576200152262001e62565b5b60208301915083600182028301111562001542576200154162001e6c565b5b9250929050565b6000813590506200155a8162001f94565b92915050565b60006020828403121562001579576200157862001e76565b5b600062001589848285016200145d565b91505092915050565b60008060408385031215620015ac57620015ab62001e76565b5b6000620015bc858286016200145d565b9250506020620015cf8582860162001549565b9150509250929050565b600080600080600080600080600060e08a8c031215620015fe57620015fd62001e76565b5b60008a013567ffffffffffffffff8111156200161f576200161e62001e71565b5b6200162d8c828d01620014ea565b99509950506020620016428c828d0162001549565b9750506040620016558c828d01620014d3565b9650506060620016688c828d016200145d565b95505060806200167b8c828d016200145d565b94505060a06200168e8c828d016200145d565b93505060c08a013567ffffffffffffffff811115620016b257620016b162001e71565b5b620016c08c828d0162001474565b92509250509295985092959850929598565b600060208284031215620016eb57620016ea62001e76565b5b6000620016fb8482850162001549565b91505092915050565b60006200171283836200171e565b60208301905092915050565b620017298162001cf4565b82525050565b6200173a8162001cf4565b82525050565b6200174b8162001c37565b62001757818462001c72565b9250620017648262001c23565b8060005b83811015620017a4576200177c8262001e4d565b62001788878262001704565b9650620017958362001c58565b92505060018101905062001768565b505050505050565b6000620017ba838562001c7d565b9350620017c78262001c2d565b8060005b858110156200180857620017e0828462001cbb565b620017ec888262001704565b9750620017f98362001c65565b925050600181019050620017cb565b5085925050509392505050565b8082525050565b620018278162001d08565b82525050565b60006200183a8262001c42565b62001846818562001c8e565b93506200185881856020860162001d4d565b620018638162001e7b565b840191505092915050565b60006200187b8262001c42565b62001887818562001c9f565b93506200189981856020860162001d4d565b80840191505092915050565b6000620018b3838562001caa565b9350620018c283858462001d3e565b620018cd8362001e7b565b840190509392505050565b6000620018e58262001c4d565b620018f1818562001caa565b93506200190381856020860162001d4d565b6200190e8162001e7b565b840191505092915050565b60006200192860268362001caa565b9150620019358262001e99565b604082019050919050565b60006200194f60248362001caa565b91506200195c8262001ee8565b604082019050919050565b60006200197660208362001caa565b9150620019838262001f37565b602082019050919050565b620019998162001d34565b82525050565b620019aa8162001d34565b82525050565b6000620019be82846200186e565b915081905092915050565b6000602082019050620019e060008301846200172f565b92915050565b6000604082019050620019fd60008301856200172f565b818103602083015262001a1181846200182d565b90509392505050565b600060208201905062001a31600083018462001815565b92915050565b600060408201905062001a4e600083018562001815565b62001a5d60208301846200199f565b9392505050565b600060208201905062001a7b60008301846200181c565b92915050565b600060408201905062001a9860008301856200181c565b818103602083015262001aac81846200182d565b90509392505050565b6000606082019050818103600083015262001ad2818688620018a5565b905062001ae360208301856200172f565b62001af260408301846200172f565b95945050505050565b600061014082019050818103600083015262001b19818a8c620018a5565b905062001b2a60208301896200198e565b62001b3960408301886200181c565b62001b4860608301876200172f565b62001b57608083018662001740565b81810361012083015262001b6d818486620017ac565b90509998505050505050505050565b6000602082019050818103600083015262001b988184620018d8565b905092915050565b6000602082019050818103600083015262001bbb8162001919565b9050919050565b6000602082019050818103600083015262001bdd8162001940565b9050919050565b6000602082019050818103600083015262001bff8162001967565b9050919050565b600060208201905062001c1d60008301846200198e565b92915050565b6000819050919050565b6000819050919050565b600060059050919050565b600081519050919050565b600081519050919050565b6000600182019050919050565b6000602082019050919050565b600081905092915050565b600082825260208201905092915050565b600082825260208201905092915050565b600081905092915050565b600082825260208201905092915050565b600062001ccc60208401846200145d565b905092915050565b600073ffffffffffffffffffffffffffffffffffffffff82169050919050565b600062001d018262001d14565b9050919050565b60008115159050919050565b600073ffffffffffffffffffffffffffffffffffffffff82169050919050565b6000819050919050565b82818337600083830152505050565b60005b8381101562001d6d57808201518184015260208101905062001d50565b8381111562001d7d576000848401525b50505050565b600062001d9a62001d948362001e8c565b62001cd4565b9050919050565b600062001dae8262001d34565b91507fffffffffffffffffffffffffffffffffffffffffffffffffffffffffffffffff82141562001de45762001de362001def565b5b600182019050919050565b7f4e487b7100000000000000000000000000000000000000000000000000000000600052601160045260246000fd5b7f4e487b7100000000000000000000000000000000000000000000000000000000600052603260045260246000fd5b600062001e5b825462001d83565b9050919050565b600080fd5b600080fd5b600080fd5b600080fd5b600080fd5b6000601f19601f8301169050919050565b60008160001c9050919050565b7f4f776e61626c653a206e6577206f776e657220697320746865207a65726f206160008201527f6464726573730000000000000000000000000000000000000000000000000000602082015250565b7f43616c6c6572206973206e6f7420612076616c69642070726f7879206164647260008201527f6573732e00000000000000000000000000000000000000000000000000000000602082015250565b7f4f776e61626c653a2063616c6c6572206973206e6f7420746865206f776e6572600082015250565b62001f6b8162001cf4565b811462001f7757600080fd5b50565b62001f858162001d08565b811462001f9157600080fd5b50565b62001f9f8162001d34565b811462001fab57600080fd5b5056fe608060405234801561001057600080fd5b5060405162000a9138038062000a91833981810160405281019061003491906101ef565b61005061004561006560201b60201c565b61006d60201b60201c565b61005f8161013160201b60201c565b5061030d565b600033905090565b60008060009054906101000a900473ffffffffffffffffffffffffffffffffffffffff169050816000806101000a81548173ffffffffffffffffffffffffffffffffffffffff021916908373ffffffffffffffffffffffffffffffffffffffff1602179055508173ffffffffffffffffffffffffffffffffffffffff168173ffffffffffffffffffffffffffffffffffffffff167f8be0079c531659141344cd1fd0a4f28419497f9722a3daafe3b4186f6b6457e060405160405180910390a35050565b610144816101c760201b6103781760201c565b610183576040517f08c379a000000000000000000000000000000000000000000000000000000000815260040161017a9061023f565b60405180910390fd5b80600160006101000a81548173ffffffffffffffffffffffffffffffffffffffff021916908373ffffffffffffffffffffffffffffffffffffffff16021790555050565b600080823b905060008111915050919050565b6000815190506101e9816102f6565b92915050565b600060208284031215610205576102046102a2565b5b6000610213848285016101da565b91505092915050565b600061022960338361025f565b9150610234826102a7565b604082019050919050565b600060208201905081810360008301526102588161021c565b9050919050565b600082825260208201905092915050565b600061027b82610282565b9050919050565b600073ffffffffffffffffffffffffffffffffffffffff82169050919050565b600080fd5b7f5570677261646561626c65426561636f6e3a20696d706c656d656e746174696f60008201527f6e206973206e6f74206120636f6e747261637400000000000000000000000000602082015250565b6102ff81610270565b811461030a57600080fd5b50565b610774806200031d6000396000f3fe608060405234801561001057600080fd5b50600436106100575760003560e01c80633659cfe61461005c5780635c60da1b14610078578063715018a6146100965780638da5cb5b146100a0578063f2fde38b146100be575b600080fd5b610076600480360381019061007191906104f8565b6100da565b005b6100806101a5565b60405161008d919061059d565b60405180910390f35b61009e6101cf565b005b6100a8610257565b6040516100b5919061059d565b60405180910390f35b6100d860048036038101906100d391906104f8565b610280565b005b6100e261038b565b73ffffffffffffffffffffffffffffffffffffffff16610100610257565b73ffffffffffffffffffffffffffffffffffffffff1614610156576040517f08c379a000000000000000000000000000000000000000000000000000000000815260040161014d906105f8565b60405180910390fd5b61015f81610393565b8073ffffffffffffffffffffffffffffffffffffffff167fbc7cd75a20ee27fd9adebab32041f755214dbc6bffa90cc0225b39da2e5c2d3b60405160405180910390a250565b6000600160009054906101000a900473ffffffffffffffffffffffffffffffffffffffff16905090565b6101d761038b565b73ffffffffffffffffffffffffffffffffffffffff166101f5610257565b73ffffffffffffffffffffffffffffffffffffffff161461024b576040517f08c379a0000000000000000000000000000000000000000000000000000000008152600401610242906105f8565b60405180910390fd5b610255600061041f565b565b60008060009054906101000a900473ffffffffffffffffffffffffffffffffffffffff16905090565b61028861038b565b73ffffffffffffffffffffffffffffffffffffffff166102a6610257565b73ffffffffffffffffffffffffffffffffffffffff16146102fc576040517f08c379a00000000000000000000000000000000000000000000000000000000081526004016102f3906105f8565b60405180910390fd5b600073ffffffffffffffffffffffffffffffffffffffff168173ffffffffffffffffffffffffffffffffffffffff16141561036c576040517f08c379a0000000000000000000000000000000000000000000000000000000008152600401610363906105b8565b60405180910390fd5b6103758161041f565b50565b600080823b905060008111915050919050565b600033905090565b61039c81610378565b6103db576040517f08c379a00000000000000000000000000000000000000000000000000000000081526004016103d2906105d8565b60405180910390fd5b80600160006101000a81548173ffffffffffffffffffffffffffffffffffffffff021916908373ffffffffffffffffffffffffffffffffffffffff16021790555050565b60008060009054906101000a900473ffffffffffffffffffffffffffffffffffffffff169050816000806101000a81548173ffffffffffffffffffffffffffffffffffffffff021916908373ffffffffffffffffffffffffffffffffffffffff1602179055508173ffffffffffffffffffffffffffffffffffffffff168173ffffffffffffffffffffffffffffffffffffffff167f8be0079c531659141344cd1fd0a4f28419497f9722a3daafe3b4186f6b6457e060405160405180910390a35050565b6000813590506104f281610727565b92915050565b60006020828403121561050e5761050d61065b565b5b600061051c848285016104e3565b91505092915050565b61052e81610629565b82525050565b6000610541602683610618565b915061054c82610660565b604082019050919050565b6000610564603383610618565b915061056f826106af565b604082019050919050565b6000610587602083610618565b9150610592826106fe565b602082019050919050565b60006020820190506105b26000830184610525565b92915050565b600060208201905081810360008301526105d181610534565b9050919050565b600060208201905081810360008301526105f181610557565b9050919050565b600060208201905081810360008301526106118161057a565b9050919050565b600082825260208201905092915050565b60006106348261063b565b9050919050565b600073ffffffffffffffffffffffffffffffffffffffff82169050919050565b600080fd5b7f4f776e61626c653a206e6577206f776e657220697320746865207a65726f206160008201527f6464726573730000000000000000000000000000000000000000000000000000602082015250565b7f5570677261646561626c65426561636f6e3a20696d706c656d656e746174696f60008201527f6e206973206e6f74206120636f6e747261637400000000000000000000000000602082015250565b7f4f776e61626c653a2063616c6c6572206973206e6f7420746865206f776e6572600082015250565b61073081610629565b811461073b57600080fd5b5056fea2646970667358221220f14c1e123fc6650c2510ce92a5938ce8dbd619e20ec5ceb7ad4526f9ccdb6aca64736f6c6343000807003360806040526040516200331a3803806200331a8339818101604052810190620000299190620006bb565b620000496200003d620000cf60201b60201c565b620000d760201b60201c565b60017fa3f0ad74e5423aebfd80d3ef4346578335a9a72aeaee59ff6cb3582b35133d5160001c6200007b919062000942565b60001b7fa3f0ad74e5423aebfd80d3ef4346578335a9a72aeaee59ff6cb3582b35133d5060001b14620000b357620000b262000a27565b5b620000c7828260006200019b60201b60201c565b505062000be0565b600033905090565b60008060009054906101000a900473ffffffffffffffffffffffffffffffffffffffff169050816000806101000a81548173ffffffffffffffffffffffffffffffffffffffff021916908373ffffffffffffffffffffffffffffffffffffffff1602179055508173ffffffffffffffffffffffffffffffffffffffff168173ffffffffffffffffffffffffffffffffffffffff167f8be0079c531659141344cd1fd0a4f28419497f9722a3daafe3b4186f6b6457e060405160405180910390a35050565b620001ac83620002a260201b60201c565b8273ffffffffffffffffffffffffffffffffffffffff167f1cf3b03a6cf19fa2baba4df148e9dcabedea7f8a5c07840e207e5c089be95d3e60405160405180910390a2600082511180620001fd5750805b156200029d576200029b8373ffffffffffffffffffffffffffffffffffffffff16635c60da1b6040518163ffffffff1660e01b815260040160206040518083038186803b1580156200024e57600080fd5b505afa15801562000263573d6000803e3d6000fd5b505050506040513d601f19601f8201168201806040525081019062000289919062000689565b836200045160201b620012891760201c565b505b505050565b620002b8816200048760201b620012b61760201c565b620002fa576040517f08c379a0000000000000000000000000000000000000000000000000000000008152600401620002f1906200084b565b60405180910390fd5b620003918173ffffffffffffffffffffffffffffffffffffffff16635c60da1b6040518163ffffffff1660e01b815260040160206040518083038186803b1580156200034557600080fd5b505afa1580156200035a573d6000803e3d6000fd5b505050506040513d601f19601f8201168201806040525081019062000380919062000689565b6200048760201b620012b61760201c565b620003d3576040517f08c379a0000000000000000000000000000000000000000000000000000000008152600401620003ca906200088f565b60405180910390fd5b806200040d7fa3f0ad74e5423aebfd80d3ef4346578335a9a72aeaee59ff6cb3582b35133d5060001b6200049a60201b620012c91760201c565b60000160006101000a81548173ffffffffffffffffffffffffffffffffffffffff021916908373ffffffffffffffffffffffffffffffffffffffff16021790555050565b60606200047f8383604051806060016040528060278152602001620032f360279139620004a460201b60201c565b905092915050565b600080823b905060008111915050919050565b6000819050919050565b6060620004b7846200048760201b60201c565b620004f9576040517f08c379a0000000000000000000000000000000000000000000000000000000008152600401620004f0906200086d565b60405180910390fd5b6000808573ffffffffffffffffffffffffffffffffffffffff16856040516200052391906200080e565b600060405180830381855af49150503d806000811462000560576040519150601f19603f3d011682016040523d82523d6000602084013e62000565565b606091505b50915091506200057d8282866200058860201b60201c565b925050509392505050565b606083156200059a57829050620005ed565b600083511115620005ae5782518084602001fd5b816040517f08c379a0000000000000000000000000000000000000000000000000000000008152600401620005e4919062000827565b60405180910390fd5b9392505050565b60006200060b6200060584620008da565b620008b1565b9050828152602081018484840111156200062a576200062962000ab9565b5b62000637848285620009bb565b509392505050565b600081519050620006508162000bc6565b92915050565b600082601f8301126200066e576200066d62000ab4565b5b815162000680848260208601620005f4565b91505092915050565b600060208284031215620006a257620006a162000ac3565b5b6000620006b2848285016200063f565b91505092915050565b60008060408385031215620006d557620006d462000ac3565b5b6000620006e5858286016200063f565b925050602083015167ffffffffffffffff81111562000709576200070862000abe565b5b620007178582860162000656565b9150509250929050565b60006200072e8262000910565b6200073a818562000926565b93506200074c818560208601620009bb565b80840191505092915050565b600062000765826200091b565b62000771818562000931565b935062000783818560208601620009bb565b6200078e8162000ac8565b840191505092915050565b6000620007a860258362000931565b9150620007b58262000ad9565b604082019050919050565b6000620007cf60268362000931565b9150620007dc8262000b28565b604082019050919050565b6000620007f660308362000931565b9150620008038262000b77565b604082019050919050565b60006200081c828462000721565b915081905092915050565b6000602082019050818103600083015262000843818462000758565b905092915050565b60006020820190508181036000830152620008668162000799565b9050919050565b600060208201905081810360008301526200088881620007c0565b9050919050565b60006020820190508181036000830152620008aa81620007e7565b9050919050565b6000620008bd620008d0565b9050620008cb8282620009f1565b919050565b6000604051905090565b600067ffffffffffffffff821115620008f857620008f762000a85565b5b620009038262000ac8565b9050602081019050919050565b600081519050919050565b600081519050919050565b600081905092915050565b600082825260208201905092915050565b60006200094f82620009b1565b91506200095c83620009b1565b92508282101562000972576200097162000a56565b5b828203905092915050565b60006200098a8262000991565b9050919050565b600073ffffffffffffffffffffffffffffffffffffffff82169050919050565b6000819050919050565b60005b83811015620009db578082015181840152602081019050620009be565b83811115620009eb576000848401525b50505050565b620009fc8262000ac8565b810181811067ffffffffffffffff8211171562000a1e5762000a1d62000a85565b5b80604052505050565b7f4e487b7100000000000000000000000000000000000000000000000000000000600052600160045260246000fd5b7f4e487b7100000000000000000000000000000000000000000000000000000000600052601160045260246000fd5b7f4e487b7100000000000000000000000000000000000000000000000000000000600052604160045260246000fd5b600080fd5b600080fd5b600080fd5b600080fd5b6000601f19601f8301169050919050565b7f455243313936373a206e657720626561636f6e206973206e6f74206120636f6e60008201527f7472616374000000000000000000000000000000000000000000000000000000602082015250565b7f416464726573733a2064656c65676174652063616c6c20746f206e6f6e2d636f60008201527f6e74726163740000000000000000000000000000000000000000000000000000602082015250565b7f455243313936373a20626561636f6e20696d706c656d656e746174696f6e206960008201527f73206e6f74206120636f6e747261637400000000000000000000000000000000602082015250565b62000bd1816200097d565b811462000bdd57600080fd5b50565b6127038062000bf06000396000f3fe6080604052600436106101c55760003560e01c8063841abf6e116100f7578063cff5600311610095578063e35a899911610064578063e35a8999146106cf578063edcbe96c1461070c578063f2fde38b14610749578063f851a44014610772576101d4565b8063cff5600314610601578063d547741f1461063e578063dc9a153514610667578063e2ec6ec314610692576101d4565b806391d14854116100d157806391d148541461053157806393f3706c1461056e5780639b19251a14610599578063a217fddf146105d6576101d4565b8063841abf6e1461049e5780638da5cb5b146104c95780639122ce6d146104f4576101d4565b80632f2ff15d1161016457806360c7dc471161013e57806360c7dc47146103f4578063715018a61461041f5780637b9417c8146104365780637eed33f114610473576101d4565b80632f2ff15d1461037757806336568abe146103a057806344eaa84e146103c9576101d4565b8063248a9ca3116101a0578063248a9ca31461028357806324953eaa146102c0578063267175db146102fd578063286dd3f51461033a576101d4565b8062b2476f146101de57806301ffc9a7146102095780630c6f795914610246576101d4565b366101d4576101d261079d565b005b6101dc61079d565b005b3480156101ea57600080fd5b506101f36107b7565b6040516102009190611fb1565b60405180910390f35b34801561021557600080fd5b50610230600480360381019061022b9190611d3a565b6107dd565b60405161023d9190611fcc565b60405180910390f35b34801561025257600080fd5b5061026d60048036038101906102689190611c44565b610857565b60405161027a91906120c4565b60405180910390f35b34801561028f57600080fd5b506102aa60048036038101906102a59190611ccd565b61087f565b6040516102b79190611fe7565b60405180910390f35b3480156102cc57600080fd5b506102e760048036038101906102e29190611c84565b61089f565b6040516102f49190611fcc565b60405180910390f35b34801561030957600080fd5b50610324600480360381019061031f9190611d67565b610989565b6040516103319190611fb1565b60405180910390f35b34801561034657600080fd5b50610361600480360381019061035c9190611bea565b6109c8565b60405161036e9190611fcc565b60405180910390f35b34801561038357600080fd5b5061039e60048036038101906103999190611cfa565b610b4b565b005b3480156103ac57600080fd5b506103c760048036038101906103c29190611cfa565b610b74565b005b3480156103d557600080fd5b506103de610bf7565b6040516103eb91906120c4565b60405180910390f35b34801561040057600080fd5b50610409610c01565b60405161041691906120c4565b60405180910390f35b34801561042b57600080fd5b50610434610c07565b005b34801561044257600080fd5b5061045d60048036038101906104589190611bea565b610c8f565b60405161046a9190611fcc565b60405180910390f35b34801561047f57600080fd5b50610488610e11565b60405161049591906120c4565b60405180910390f35b3480156104aa57600080fd5b506104b3610e17565b6040516104c09190612002565b60405180910390f35b3480156104d557600080fd5b506104de610ea5565b6040516104eb9190611fb1565b60405180910390f35b34801561050057600080fd5b5061051b60048036038101906105169190611bea565b610ece565b6040516105289190611fcc565b60405180910390f35b34801561053d57600080fd5b5061055860048036038101906105539190611cfa565b610eee565b6040516105659190611fcc565b60405180910390f35b34801561057a57600080fd5b50610583610f59565b6040516105909190611fb1565b60405180910390f35b3480156105a557600080fd5b506105c060048036038101906105bb9190611bea565b610f7f565b6040516105cd9190611fcc565b60405180910390f35b3480156105e257600080fd5b506105eb610f9f565b6040516105f89190611fe7565b60405180910390f35b34801561060d57600080fd5b5061062860048036038101906106239190611c44565b610fa6565b60405161063591906120c4565b60405180910390f35b34801561064a57600080fd5b5061066560048036038101906106609190611cfa565b610fd7565b005b34801561067357600080fd5b5061067c611000565b6040516106899190611fcc565b60405180910390f35b34801561069e57600080fd5b506106b960048036038101906106b49190611c84565b611013565b6040516106c69190611fcc565b60405180910390f35b3480156106db57600080fd5b506106f660048036038101906106f19190611bea565b6110fd565b6040516107039190611fcc565b60405180910390f35b34801561071857600080fd5b50610733600480360381019061072e9190611bea565b611153565b60405161074091906120c4565b60405180910390f35b34801561075557600080fd5b50610770600480360381019061076b9190611bea565b61116b565b005b34801561077e57600080fd5b50610787611263565b6040516107949190611fb1565b60405180910390f35b6107a56112d3565b6107b56107b06112d5565b611361565b565b601260009054906101000a900473ffffffffffffffffffffffffffffffffffffffff1681565b60007f7965db0b000000000000000000000000000000000000000000000000000000007bffffffffffffffffffffffffffffffffffffffffffffffffffffffff1916827bffffffffffffffffffffffffffffffffffffffffffffffffffffffff19161480610850575061084f82611387565b5b9050919050565b600b602052816000526040600020816008811061087357600080fd5b01600091509150505481565b600060016000838152602001908152602001600020600101549050919050565b60006108a96113f1565b73ffffffffffffffffffffffffffffffffffffffff166108c7610ea5565b73ffffffffffffffffffffffffffffffffffffffff161461091d576040517f08c379a000000000000000000000000000000000000000000000000000000000815260040161091490612064565b60405180910390fd5b60005b82518110156109835761094c83828151811061093f5761093e612436565b5b60200260200101516109c8565b1561097057600160036000828254610964919061221d565b92505081905550600191505b808061097b9061238f565b915050610920565b50919050565b600f818154811061099957600080fd5b906000526020600020016000915054906101000a900473ffffffffffffffffffffffffffffffffffffffff1681565b60006109d26113f1565b73ffffffffffffffffffffffffffffffffffffffff166109f0610ea5565b73ffffffffffffffffffffffffffffffffffffffff1614610a46576040517f08c379a0000000000000000000000000000000000000000000000000000000008152600401610a3d90612064565b60405180910390fd5b600260008373ffffffffffffffffffffffffffffffffffffffff1673ffffffffffffffffffffffffffffffffffffffff16815260200190815260200160002060009054906101000a900460ff1615610b46576000600260008473ffffffffffffffffffffffffffffffffffffffff1673ffffffffffffffffffffffffffffffffffffffff16815260200190815260200160002060006101000a81548160ff0219169083151502179055507ff1abf01a1043b7c244d128e8595cf0c1d10743b022b03a02dffd8ca3bf729f5a82604051610b1f9190611fb1565b60405180910390a1600160036000828254610b3a919061221d565b92505081905550600190505b919050565b610b548261087f565b610b6581610b606113f1565b6113f9565b610b6f8383611496565b505050565b610b7c6113f1565b73ffffffffffffffffffffffffffffffffffffffff168173ffffffffffffffffffffffffffffffffffffffff1614610be9576040517f08c379a0000000000000000000000000000000000000000000000000000000008152600401610be0906120a4565b60405180910390fd5b610bf38282611576565b5050565b6000600354905090565b60075481565b610c0f6113f1565b73ffffffffffffffffffffffffffffffffffffffff16610c2d610ea5565b73ffffffffffffffffffffffffffffffffffffffff1614610c83576040517f08c379a0000000000000000000000000000000000000000000000000000000008152600401610c7a90612064565b60405180910390fd5b610c8d6000611658565b565b6000610c996113f1565b73ffffffffffffffffffffffffffffffffffffffff16610cb7610ea5565b73ffffffffffffffffffffffffffffffffffffffff1614610d0d576040517f08c379a0000000000000000000000000000000000000000000000000000000008152600401610d0490612064565b60405180910390fd5b600260008373ffffffffffffffffffffffffffffffffffffffff1673ffffffffffffffffffffffffffffffffffffffff16815260200190815260200160002060009054906101000a900460ff16610e0c576001600260008473ffffffffffffffffffffffffffffffffffffffff1673ffffffffffffffffffffffffffffffffffffffff16815260200190815260200160002060006101000a81548160ff0219169083151502179055507fd1bba68c128cc3f427e5831b3c6f99f480b6efa6b9e80c757768f6124158cc3f82604051610de59190611fb1565b60405180910390a1600160036000828254610e00919061216d565b92505081905550600190505b919050565b60065481565b60058054610e249061232c565b80601f0160208091040260200160405190810160405280929190818152602001828054610e509061232c565b8015610e9d5780601f10610e7257610100808354040283529160200191610e9d565b820191906000526020600020905b815481529060010190602001808311610e8057829003601f168201915b505050505081565b60008060009054906101000a900473ffffffffffffffffffffffffffffffffffffffff16905090565b600e6020528060005260406000206000915054906101000a900460ff1681565b60006001600084815260200190815260200160002060000160008373ffffffffffffffffffffffffffffffffffffffff1673ffffffffffffffffffffffffffffffffffffffff16815260200190815260200160002060009054906101000a900460ff16905092915050565b601160009054906101000a900473ffffffffffffffffffffffffffffffffffffffff1681565b60026020528060005260406000206000915054906101000a900460ff1681565b6000801b81565b600d6020528160005260406000208181548110610fc257600080fd5b90600052602060002001600091509150505481565b610fe08261087f565b610ff181610fec6113f1565b6113f9565b610ffb8383611576565b505050565b600460009054906101000a900460ff1681565b600061101d6113f1565b73ffffffffffffffffffffffffffffffffffffffff1661103b610ea5565b73ffffffffffffffffffffffffffffffffffffffff1614611091576040517f08c379a000000000000000000000000000000000000000000000000000000000815260040161108890612064565b60405180910390fd5b60005b82518110156110f7576110c08382815181106110b3576110b2612436565b5b6020026020010151610c8f565b156110e4576001600360008282546110d8919061216d565b92505081905550600191505b80806110ef9061238f565b915050611094565b50919050565b6000600260008373ffffffffffffffffffffffffffffffffffffffff1673ffffffffffffffffffffffffffffffffffffffff16815260200190815260200160002060009054906101000a900460ff169050919050565b600a6020528060005260406000206000915090505481565b6111736113f1565b73ffffffffffffffffffffffffffffffffffffffff16611191610ea5565b73ffffffffffffffffffffffffffffffffffffffff16146111e7576040517f08c379a00000000000000000000000000000000000000000000000000000000081526004016111de90612064565b60405180910390fd5b600073ffffffffffffffffffffffffffffffffffffffff168173ffffffffffffffffffffffffffffffffffffffff161415611257576040517f08c379a000000000000000000000000000000000000000000000000000000000815260040161124e90612044565b60405180910390fd5b61126081611658565b50565b600860009054906101000a900473ffffffffffffffffffffffffffffffffffffffff1681565b60606112ae83836040518060600160405280602781526020016126a76027913961171c565b905092915050565b600080823b905060008111915050919050565b6000819050919050565b565b60006112df6117e9565b73ffffffffffffffffffffffffffffffffffffffff16635c60da1b6040518163ffffffff1660e01b815260040160206040518083038186803b15801561132457600080fd5b505afa158015611338573d6000803e3d6000fd5b505050506040513d601f19601f8201168201806040525081019061135c9190611c17565b905090565b3660008037600080366000845af43d6000803e8060008114611382573d6000f35b3d6000fd5b60007f01ffc9a7000000000000000000000000000000000000000000000000000000007bffffffffffffffffffffffffffffffffffffffffffffffffffffffff1916827bffffffffffffffffffffffffffffffffffffffffffffffffffffffff1916149050919050565b600033905090565b6114038282610eee565b611492576114288173ffffffffffffffffffffffffffffffffffffffff166014611840565b6114368360001c6020611840565b604051602001611447929190611f77565b6040516020818303038152906040526040517f08c379a00000000000000000000000000000000000000000000000000000000081526004016114899190612002565b60405180910390fd5b5050565b6114a08282610eee565b61157257600180600084815260200190815260200160002060000160008373ffffffffffffffffffffffffffffffffffffffff1673ffffffffffffffffffffffffffffffffffffffff16815260200190815260200160002060006101000a81548160ff0219169083151502179055506115176113f1565b73ffffffffffffffffffffffffffffffffffffffff168173ffffffffffffffffffffffffffffffffffffffff16837f2f8788117e7eff1d82e926ec794901d17c78024a50270940304540a733656f0d60405160405180910390a45b5050565b6115808282610eee565b156116545760006001600084815260200190815260200160002060000160008373ffffffffffffffffffffffffffffffffffffffff1673ffffffffffffffffffffffffffffffffffffffff16815260200190815260200160002060006101000a81548160ff0219169083151502179055506115f96113f1565b73ffffffffffffffffffffffffffffffffffffffff168173ffffffffffffffffffffffffffffffffffffffff16837ff6391f5c32d9c69d2a47ea670b442974b53935d1edc7fd64eb21e047a839171b60405160405180910390a45b5050565b60008060009054906101000a900473ffffffffffffffffffffffffffffffffffffffff169050816000806101000a81548173ffffffffffffffffffffffffffffffffffffffff021916908373ffffffffffffffffffffffffffffffffffffffff1602179055508173ffffffffffffffffffffffffffffffffffffffff168173ffffffffffffffffffffffffffffffffffffffff167f8be0079c531659141344cd1fd0a4f28419497f9722a3daafe3b4186f6b6457e060405160405180910390a35050565b6060611727846112b6565b611766576040517f08c379a000000000000000000000000000000000000000000000000000000000815260040161175d90612084565b60405180910390fd5b6000808573ffffffffffffffffffffffffffffffffffffffff168560405161178e9190611f60565b600060405180830381855af49150503d80600081146117c9576040519150601f19603f3d011682016040523d82523d6000602084013e6117ce565b606091505b50915091506117de828286611a7c565b925050509392505050565b60006118177fa3f0ad74e5423aebfd80d3ef4346578335a9a72aeaee59ff6cb3582b35133d5060001b6112c9565b60000160009054906101000a900473ffffffffffffffffffffffffffffffffffffffff16905090565b60606000600283600261185391906121c3565b61185d919061216d565b67ffffffffffffffff81111561187657611875612465565b5b6040519080825280601f01601f1916602001820160405280156118a85781602001600182028036833780820191505090505b5090507f3000000000000000000000000000000000000000000000000000000000000000816000815181106118e0576118df612436565b5b60200101907effffffffffffffffffffffffffffffffffffffffffffffffffffffffffffff1916908160001a9053507f78000000000000000000000000000000000000000000000000000000000000008160018151811061194457611943612436565b5b60200101907effffffffffffffffffffffffffffffffffffffffffffffffffffffffffffff1916908160001a9053506000600184600261198491906121c3565b61198e919061216d565b90505b6001811115611a2e577f3031323334353637383961626364656600000000000000000000000000000000600f8616601081106119d0576119cf612436565b5b1a60f81b8282815181106119e7576119e6612436565b5b60200101907effffffffffffffffffffffffffffffffffffffffffffffffffffffffffffff1916908160001a905350600485901c945080611a2790612302565b9050611991565b5060008414611a72576040517f08c379a0000000000000000000000000000000000000000000000000000000008152600401611a6990612024565b60405180910390fd5b8091505092915050565b60608315611a8c57829050611adc565b600083511115611a9f5782518084602001fd5b816040517f08c379a0000000000000000000000000000000000000000000000000000000008152600401611ad39190612002565b60405180910390fd5b9392505050565b6000611af6611af184612104565b6120df565b90508083825260208201905082856020860282011115611b1957611b18612499565b5b60005b85811015611b495781611b2f8882611b53565b845260208401935060208301925050600181019050611b1c565b5050509392505050565b600081359050611b628161264a565b92915050565b600081519050611b778161264a565b92915050565b600082601f830112611b9257611b91612494565b5b8135611ba2848260208601611ae3565b91505092915050565b600081359050611bba81612661565b92915050565b600081359050611bcf81612678565b92915050565b600081359050611be48161268f565b92915050565b600060208284031215611c0057611bff6124a3565b5b6000611c0e84828501611b53565b91505092915050565b600060208284031215611c2d57611c2c6124a3565b5b6000611c3b84828501611b68565b91505092915050565b60008060408385031215611c5b57611c5a6124a3565b5b6000611c6985828601611b53565b9250506020611c7a85828601611bd5565b9150509250929050565b600060208284031215611c9a57611c996124a3565b5b600082013567ffffffffffffffff811115611cb857611cb761249e565b5b611cc484828501611b7d565b91505092915050565b600060208284031215611ce357611ce26124a3565b5b6000611cf184828501611bab565b91505092915050565b60008060408385031215611d1157611d106124a3565b5b6000611d1f85828601611bab565b9250506020611d3085828601611b53565b9150509250929050565b600060208284031215611d5057611d4f6124a3565b5b6000611d5e84828501611bc0565b91505092915050565b600060208284031215611d7d57611d7c6124a3565b5b6000611d8b84828501611bd5565b91505092915050565b611d9d81612251565b82525050565b611dac81612263565b82525050565b611dbb8161226f565b82525050565b6000611dcc82612130565b611dd68185612146565b9350611de68185602086016122cf565b80840191505092915050565b6000611dfd8261213b565b611e078185612151565b9350611e178185602086016122cf565b611e20816124a8565b840191505092915050565b6000611e368261213b565b611e408185612162565b9350611e508185602086016122cf565b80840191505092915050565b6000611e69602083612151565b9150611e74826124b9565b602082019050919050565b6000611e8c602683612151565b9150611e97826124e2565b604082019050919050565b6000611eaf602083612151565b9150611eba82612531565b602082019050919050565b6000611ed2602683612151565b9150611edd8261255a565b604082019050919050565b6000611ef5601783612162565b9150611f00826125a9565b601782019050919050565b6000611f18601183612162565b9150611f23826125d2565b601182019050919050565b6000611f3b602f83612151565b9150611f46826125fb565b604082019050919050565b611f5a816122c5565b82525050565b6000611f6c8284611dc1565b915081905092915050565b6000611f8282611ee8565b9150611f8e8285611e2b565b9150611f9982611f0b565b9150611fa58284611e2b565b91508190509392505050565b6000602082019050611fc66000830184611d94565b92915050565b6000602082019050611fe16000830184611da3565b92915050565b6000602082019050611ffc6000830184611db2565b92915050565b6000602082019050818103600083015261201c8184611df2565b905092915050565b6000602082019050818103600083015261203d81611e5c565b9050919050565b6000602082019050818103600083015261205d81611e7f565b9050919050565b6000602082019050818103600083015261207d81611ea2565b9050919050565b6000602082019050818103600083015261209d81611ec5565b9050919050565b600060208201905081810360008301526120bd81611f2e565b9050919050565b60006020820190506120d96000830184611f51565b92915050565b60006120e96120fa565b90506120f5828261235e565b919050565b6000604051905090565b600067ffffffffffffffff82111561211f5761211e612465565b5b602082029050602081019050919050565b600081519050919050565b600081519050919050565b600081905092915050565b600082825260208201905092915050565b600081905092915050565b6000612178826122c5565b9150612183836122c5565b9250827fffffffffffffffffffffffffffffffffffffffffffffffffffffffffffffffff038211156121b8576121b76123d8565b5b828201905092915050565b60006121ce826122c5565b91506121d9836122c5565b9250817fffffffffffffffffffffffffffffffffffffffffffffffffffffffffffffffff0483118215151615612212576122116123d8565b5b828202905092915050565b6000612228826122c5565b9150612233836122c5565b925082821015612246576122456123d8565b5b828203905092915050565b600061225c826122a5565b9050919050565b60008115159050919050565b6000819050919050565b60007fffffffff0000000000000000000000000000000000000000000000000000000082169050919050565b600073ffffffffffffffffffffffffffffffffffffffff82169050919050565b6000819050919050565b60005b838110156122ed5780820151818401526020810190506122d2565b838111156122fc576000848401525b50505050565b600061230d826122c5565b91506000821415612321576123206123d8565b5b600182039050919050565b6000600282049050600182168061234457607f821691505b6020821081141561235857612357612407565b5b50919050565b612367826124a8565b810181811067ffffffffffffffff8211171561238657612385612465565b5b80604052505050565b600061239a826122c5565b91507fffffffffffffffffffffffffffffffffffffffffffffffffffffffffffffffff8214156123cd576123cc6123d8565b5b600182019050919050565b7f4e487b7100000000000000000000000000000000000000000000000000000000600052601160045260246000fd5b7f4e487b7100000000000000000000000000000000000000000000000000000000600052602260045260246000fd5b7f4e487b7100000000000000000000000000000000000000000000000000000000600052603260045260246000fd5b7f4e487b7100000000000000000000000000000000000000000000000000000000600052604160045260246000fd5b600080fd5b600080fd5b600080fd5b600080fd5b6000601f19601f8301169050919050565b7f537472696e67733a20686578206c656e67746820696e73756666696369656e74600082015250565b7f4f776e61626c653a206e6577206f776e657220697320746865207a65726f206160008201527f6464726573730000000000000000000000000000000000000000000000000000602082015250565b7f4f776e61626c653a2063616c6c6572206973206e6f7420746865206f776e6572600082015250565b7f416464726573733a2064656c65676174652063616c6c20746f206e6f6e2d636f60008201527f6e74726163740000000000000000000000000000000000000000000000000000602082015250565b7f416363657373436f6e74726f6c3a206163636f756e7420000000000000000000600082015250565b7f206973206d697373696e6720726f6c6520000000000000000000000000000000600082015250565b7f416363657373436f6e74726f6c3a2063616e206f6e6c792072656e6f756e636560008201527f20726f6c657320666f722073656c660000000000000000000000000000000000602082015250565b61265381612251565b811461265e57600080fd5b50565b61266a8161226f565b811461267557600080fd5b50565b61268181612279565b811461268c57600080fd5b50565b612698816122c5565b81146126a357600080fd5b5056fe416464726573733a206c6f772d6c6576656c2064656c65676174652063616c6c206661696c6564a2646970667358221220a03aae2584623b70d25fb2f4004cd7f72c9dc90d2e6c51983cd9cbca3501274e64736f6c63430008070033416464726573733a206c6f772d6c6576656c2064656c65676174652063616c6c206661696c656473657474696e67206c6561677565207363686564756c6520696e206c65616775656d616b6572a2646970667358221220f9ab5952942bea48a0beaf485186b5286d53ef21851615e81414fc2c8fc317de64736f6c63430008070033608060405234801561001057600080fd5b5060405162000a9138038062000a91833981810160405281019061003491906101ef565b61005061004561006560201b60201c565b61006d60201b60201c565b61005f8161013160201b60201c565b5061030d565b600033905090565b60008060009054906101000a900473ffffffffffffffffffffffffffffffffffffffff169050816000806101000a81548173ffffffffffffffffffffffffffffffffffffffff021916908373ffffffffffffffffffffffffffffffffffffffff1602179055508173ffffffffffffffffffffffffffffffffffffffff168173ffffffffffffffffffffffffffffffffffffffff167f8be0079c531659141344cd1fd0a4f28419497f9722a3daafe3b4186f6b6457e060405160405180910390a35050565b610144816101c760201b6103781760201c565b610183576040517f08c379a000000000000000000000000000000000000000000000000000000000815260040161017a9061023f565b60405180910390fd5b80600160006101000a81548173ffffffffffffffffffffffffffffffffffffffff021916908373ffffffffffffffffffffffffffffffffffffffff16021790555050565b600080823b905060008111915050919050565b6000815190506101e9816102f6565b92915050565b600060208284031215610205576102046102a2565b5b6000610213848285016101da565b91505092915050565b600061022960338361025f565b9150610234826102a7565b604082019050919050565b600060208201905081810360008301526102588161021c565b9050919050565b600082825260208201905092915050565b600061027b82610282565b9050919050565b600073ffffffffffffffffffffffffffffffffffffffff82169050919050565b600080fd5b7f5570677261646561626c65426561636f6e3a20696d706c656d656e746174696f60008201527f6e206973206e6f74206120636f6e747261637400000000000000000000000000602082015250565b6102ff81610270565b811461030a57600080fd5b50565b610774806200031d6000396000f3fe608060405234801561001057600080fd5b50600436106100575760003560e01c80633659cfe61461005c5780635c60da1b14610078578063715018a6146100965780638da5cb5b146100a0578063f2fde38b146100be575b600080fd5b610076600480360381019061007191906104f8565b6100da565b005b6100806101a5565b60405161008d919061059d565b60405180910390f35b61009e6101cf565b005b6100a8610257565b6040516100b5919061059d565b60405180910390f35b6100d860048036038101906100d391906104f8565b610280565b005b6100e261038b565b73ffffffffffffffffffffffffffffffffffffffff16610100610257565b73ffffffffffffffffffffffffffffffffffffffff1614610156576040517f08c379a000000000000000000000000000000000000000000000000000000000815260040161014d906105f8565b60405180910390fd5b61015f81610393565b8073ffffffffffffffffffffffffffffffffffffffff167fbc7cd75a20ee27fd9adebab32041f755214dbc6bffa90cc0225b39da2e5c2d3b60405160405180910390a250565b6000600160009054906101000a900473ffffffffffffffffffffffffffffffffffffffff16905090565b6101d761038b565b73ffffffffffffffffffffffffffffffffffffffff166101f5610257565b73ffffffffffffffffffffffffffffffffffffffff161461024b576040517f08c379a0000000000000000000000000000000000000000000000000000000008152600401610242906105f8565b60405180910390fd5b610255600061041f565b565b60008060009054906101000a900473ffffffffffffffffffffffffffffffffffffffff16905090565b61028861038b565b73ffffffffffffffffffffffffffffffffffffffff166102a6610257565b73ffffffffffffffffffffffffffffffffffffffff16146102fc576040517f08c379a00000000000000000000000000000000000000000000000000000000081526004016102f3906105f8565b60405180910390fd5b600073ffffffffffffffffffffffffffffffffffffffff168173ffffffffffffffffffffffffffffffffffffffff16141561036c576040517f08c379a0000000000000000000000000000000000000000000000000000000008152600401610363906105b8565b60405180910390fd5b6103758161041f565b50565b600080823b905060008111915050919050565b600033905090565b61039c81610378565b6103db576040517f08c379a00000000000000000000000000000000000000000000000000000000081526004016103d2906105d8565b60405180910390fd5b80600160006101000a81548173ffffffffffffffffffffffffffffffffffffffff021916908373ffffffffffffffffffffffffffffffffffffffff16021790555050565b60008060009054906101000a900473ffffffffffffffffffffffffffffffffffffffff169050816000806101000a81548173ffffffffffffffffffffffffffffffffffffffff021916908373ffffffffffffffffffffffffffffffffffffffff1602179055508173ffffffffffffffffffffffffffffffffffffffff168173ffffffffffffffffffffffffffffffffffffffff167f8be0079c531659141344cd1fd0a4f28419497f9722a3daafe3b4186f6b6457e060405160405180910390a35050565b6000813590506104f281610727565b92915050565b60006020828403121561050e5761050d61065b565b5b600061051c848285016104e3565b91505092915050565b61052e81610629565b82525050565b6000610541602683610618565b915061054c82610660565b604082019050919050565b6000610564603383610618565b915061056f826106af565b604082019050919050565b6000610587602083610618565b9150610592826106fe565b602082019050919050565b60006020820190506105b26000830184610525565b92915050565b600060208201905081810360008301526105d181610534565b9050919050565b600060208201905081810360008301526105f181610557565b9050919050565b600060208201905081810360008301526106118161057a565b9050919050565b600082825260208201905092915050565b60006106348261063b565b9050919050565b600073ffffffffffffffffffffffffffffffffffffffff82169050919050565b600080fd5b7f4f776e61626c653a206e6577206f776e657220697320746865207a65726f206160008201527f6464726573730000000000000000000000000000000000000000000000000000602082015250565b7f5570677261646561626c65426561636f6e3a20696d706c656d656e746174696f60008201527f6e206973206e6f74206120636f6e747261637400000000000000000000000000602082015250565b7f4f776e61626c653a2063616c6c6572206973206e6f7420746865206f776e6572600082015250565b61073081610629565b811461073b57600080fd5b5056fea2646970667358221220f14c1e123fc6650c2510ce92a5938ce8dbd619e20ec5ceb7ad4526f9ccdb6aca64736f6c63430008070033",
  "linkReferences": {
    "contracts/LeagueMakerLibrary.sol": {
      "LeagueMakerLibrary": [
        {
          "length": 20,
          "start": 2231
        },
        {
          "length": 20,
          "start": 2952
        },
        {
          "length": 20,
          "start": 3751
        },
        {
          "length": 20,
          "start": 4519
        },
        {
          "length": 20,
          "start": 4896
        }
      ]
    }
  },
  "deployedLinkReferences": {
    "contracts/LeagueMakerLibrary.sol": {
      "LeagueMakerLibrary": [
        {
          "length": 20,
          "start": 886
        },
        {
          "length": 20,
          "start": 1607
        },
        {
          "length": 20,
          "start": 2406
        },
        {
          "length": 20,
          "start": 3174
        },
        {
          "length": 20,
          "start": 3551
        }
      ]
    }
  }
}