{
  "_format": "hh-sol-artifact-1",
  "contractName": "LeagueMaker",
  "sourceName": "contracts/LeagueMaker.sol",
  "abi": [
    {
      "inputs": [
        {
          "internalType": "address",
          "name": "_logic",
          "type": "address"
        }
      ],
      "stateMutability": "nonpayable",
      "type": "constructor"
    },
    {
      "anonymous": false,
      "inputs": [
        {
          "indexed": false,
          "internalType": "string",
          "name": "name",
          "type": "string"
        },
        {
          "indexed": false,
          "internalType": "address",
          "name": "a",
          "type": "address"
        }
      ],
      "name": "LeagueCreated",
      "type": "event"
    },
    {
      "anonymous": false,
      "inputs": [
        {
          "indexed": true,
          "internalType": "address",
          "name": "previousOwner",
          "type": "address"
        },
        {
          "indexed": true,
          "internalType": "address",
          "name": "newOwner",
          "type": "address"
        }
      ],
      "name": "OwnershipTransferred",
      "type": "event"
    },
    {
      "anonymous": false,
      "inputs": [
        {
          "indexed": false,
          "internalType": "bool",
          "name": "success",
          "type": "bool"
        },
        {
          "indexed": false,
          "internalType": "bytes",
          "name": "data",
          "type": "bytes"
        }
      ],
      "name": "Response",
      "type": "event"
    },
    {
      "inputs": [
        {
          "internalType": "string",
          "name": "_name",
          "type": "string"
        },
        {
          "internalType": "uint256",
          "name": "_stakeAmount",
          "type": "uint256"
        },
        {
          "internalType": "bool",
          "name": "_isPublic",
          "type": "bool"
        },
        {
          "internalType": "address",
          "name": "_adminAddress",
          "type": "address"
        },
        {
          "internalType": "address",
          "name": "_testUSDCAddress",
          "type": "address"
        },
        {
          "internalType": "address",
          "name": "_athletesContractAddress",
          "type": "address"
        }
      ],
      "name": "createLeague",
      "outputs": [
        {
          "internalType": "address",
          "name": "",
          "type": "address"
        }
      ],
      "stateMutability": "nonpayable",
      "type": "function"
    },
    {
      "inputs": [],
      "name": "currentWeek",
      "outputs": [
        {
          "internalType": "uint256",
          "name": "",
          "type": "uint256"
        }
      ],
      "stateMutability": "view",
      "type": "function"
    },
    {
      "inputs": [],
      "name": "evaluateWeekForAllLeagues",
      "outputs": [],
      "stateMutability": "nonpayable",
      "type": "function"
    },
    {
      "inputs": [],
      "name": "incrementCurrentWeek",
      "outputs": [],
      "stateMutability": "nonpayable",
      "type": "function"
    },
    {
      "inputs": [
        {
          "internalType": "uint256",
          "name": "",
          "type": "uint256"
        }
      ],
      "name": "leagueAddresses",
      "outputs": [
        {
          "internalType": "address",
          "name": "",
          "type": "address"
        }
      ],
      "stateMutability": "view",
      "type": "function"
    },
    {
      "inputs": [],
      "name": "lockLeagueLineups",
      "outputs": [],
      "stateMutability": "nonpayable",
      "type": "function"
    },
    {
      "inputs": [],
      "name": "lockLeagueMembership",
      "outputs": [],
      "stateMutability": "nonpayable",
      "type": "function"
    },
    {
      "inputs": [],
      "name": "owner",
      "outputs": [
        {
          "internalType": "address",
          "name": "",
          "type": "address"
        }
      ],
      "stateMutability": "view",
      "type": "function"
    },
    {
      "inputs": [],
      "name": "renounceOwnership",
      "outputs": [],
      "stateMutability": "nonpayable",
      "type": "function"
    },
    {
      "inputs": [
        {
          "internalType": "address",
          "name": "logic",
          "type": "address"
        }
      ],
      "name": "setBeacon",
      "outputs": [
        {
          "internalType": "address",
          "name": "",
          "type": "address"
        }
      ],
      "stateMutability": "nonpayable",
      "type": "function"
    },
    {
      "inputs": [],
      "name": "setLeagueSchedules",
      "outputs": [],
      "stateMutability": "nonpayable",
      "type": "function"
    },
    {
      "inputs": [
        {
          "internalType": "address",
          "name": "newOwner",
          "type": "address"
        }
      ],
      "name": "transferOwnership",
      "outputs": [],
      "stateMutability": "nonpayable",
      "type": "function"
    },
    {
      "inputs": [],
      "name": "unlockLeagueLineups",
      "outputs": [],
      "stateMutability": "nonpayable",
      "type": "function"
    },
    {
      "inputs": [
        {
          "internalType": "address",
          "name": "user",
          "type": "address"
        }
      ],
      "name": "updateUserToLeagueMapping",
      "outputs": [],
      "stateMutability": "nonpayable",
      "type": "function"
    },
    {
      "inputs": [
        {
          "internalType": "address",
          "name": "",
          "type": "address"
        },
        {
          "internalType": "uint256",
          "name": "",
          "type": "uint256"
        }
      ],
      "name": "userToLeagueMap",
      "outputs": [
        {
          "internalType": "address",
          "name": "",
          "type": "address"
        }
      ],
      "stateMutability": "view",
      "type": "function"
    }
  ],
  "bytecode": "0x60a060405260086007556000600855732791bca1f2de4661ed88a30c99a7a9449aa84174600960006101000a81548173ffffffffffffffffffffffffffffffffffffffff021916908373ffffffffffffffffffffffffffffffffffffffff16021790555073eb8f08a975ab53e34d8a0330e0d34de942c95926600a60006101000a81548173ffffffffffffffffffffffffffffffffffffffff021916908373ffffffffffffffffffffffffffffffffffffffff160217905550348015620000c557600080fd5b5060405162006528380380620065288339818101604052810190620000eb919062000272565b6200010b620000ff6200018160201b60201c565b6200018960201b60201c565b806040516200011a906200024d565b620001269190620002b5565b604051809103906000f08015801562000143573d6000803e3d6000fd5b5073ffffffffffffffffffffffffffffffffffffffff1660808173ffffffffffffffffffffffffffffffffffffffff1660601b815250505062000325565b600033905090565b60008060009054906101000a900473ffffffffffffffffffffffffffffffffffffffff169050816000806101000a81548173ffffffffffffffffffffffffffffffffffffffff021916908373ffffffffffffffffffffffffffffffffffffffff1602179055508173ffffffffffffffffffffffffffffffffffffffff168173ffffffffffffffffffffffffffffffffffffffff167f8be0079c531659141344cd1fd0a4f28419497f9722a3daafe3b4186f6b6457e060405160405180910390a35050565b610a918062005a9783390190565b6000815190506200026c816200030b565b92915050565b6000602082840312156200028b576200028a62000306565b5b60006200029b848285016200025b565b91505092915050565b620002af81620002d2565b82525050565b6000602082019050620002cc6000830184620002a4565b92915050565b6000620002df82620002e6565b9050919050565b600073ffffffffffffffffffffffffffffffffffffffff82169050919050565b600080fd5b6200031681620002d2565b81146200032257600080fd5b50565b60805160601c615753620003446000396000610e1501526157536000f3fe60806040523480156200001157600080fd5b50600436106200010c5760003560e01c8063a69b331811620000a5578063d42afb56116200006f578063d42afb561462000229578063d46dc6c4146200025f578063d54c9d161462000295578063f2fde38b14620002a1576200010c565b8063a69b331814620001cf578063a945320f14620001db578063c3530ff414620001e7578063c49986a5146200021d576200010c565b8063449f77fb11620000e7578063449f77fb1462000175578063715018a61462000181578063771bd4ce146200018d5780638da5cb5b14620001ad576200010c565b806306575c891462000111578063270cb3eb146200013357806329ffe5e9146200013f575b600080fd5b6200011b620002c1565b6040516200012a919062001897565b60405180910390f35b6200013d620002c7565b005b6200015d6004803603810190620001579190620014a1565b62000558565b6040516200016c919062001671565b60405180910390f35b6200017f62000598565b005b6200018b620006a7565b005b620001ab6004803603810190620001a5919062001367565b62000738565b005b620001b7620007db565b604051620001c6919062001671565b60405180910390f35b620001d962000804565b005b620001e5620008a5565b005b620002056004803603810190620001ff919062001399565b62000b5a565b60405162000214919062001671565b60405180910390f35b6200022762000ba9565b005b62000247600480360381019062000241919062001367565b62000c9a565b60405162000256919062001671565b60405180910390f35b6200027d6004803603810190620002779190620013e0565b62000d22565b6040516200028c919062001671565b60405180910390f35b6200029f62000f20565b005b620002bf6004803603810190620002b9919062001367565b62001011565b005b60085481565b620002d162001115565b73ffffffffffffffffffffffffffffffffffffffff16620002f1620007db565b73ffffffffffffffffffffffffffffffffffffffff16146200034a576040517f08c379a0000000000000000000000000000000000000000000000000000000008152600401620003419062001875565b60405180910390fd5b73__$12cdf1fac25abe52b1eb298b32a4f32efb$__6388fa0a1f60036040518263ffffffff1660e01b8152600401620003849190620016c2565b60006040518083038186803b1580156200039d57600080fd5b505af4158015620003b2573d6000803e3d6000fd5b505050506000606060005b600380549050811015620005535760038181548110620003e257620003e162001a60565b5b9060005260206000200160009054906101000a900473ffffffffffffffffffffffffffffffffffffffff1673ffffffffffffffffffffffffffffffffffffffff166040516024016040516020818303038152906040527fe4c9066b000000000000000000000000000000000000000000000000000000007bffffffffffffffffffffffffffffffffffffffffffffffffffffffff19166020820180517bffffffffffffffffffffffffffffffffffffffffffffffffffffffff8381831617835250505050604051620004b5919062001658565b6000604051808303816000865af19150503d8060008114620004f4576040519150601f19603f3d011682016040523d82523d6000602084013e620004f9565b606091505b5080935081945050507f13848c3e38f8886f3f5d2ad9dff80d8092c2bbb8efd5b887a99c2c6cfc09ac2a8383604051620005359291906200170c565b60405180910390a180806200054a90620019e3565b915050620003bd565b505050565b600381815481106200056957600080fd5b906000526020600020016000915054906101000a900473ffffffffffffffffffffffffffffffffffffffff1681565b620005a262001115565b73ffffffffffffffffffffffffffffffffffffffff16620005c2620007db565b73ffffffffffffffffffffffffffffffffffffffff16146200061b576040517f08c379a0000000000000000000000000000000000000000000000000000000008152600401620006129062001875565b60405180910390fd5b73__$12cdf1fac25abe52b1eb298b32a4f32efb$__6335c83fd360036008546040518363ffffffff1660e01b815260040162000659929190620016df565b60006040518083038186803b1580156200067257600080fd5b505af415801562000687573d6000803e3d6000fd5b5050505060086000815480929190620006a090620019e3565b9190505550565b620006b162001115565b73ffffffffffffffffffffffffffffffffffffffff16620006d1620007db565b73ffffffffffffffffffffffffffffffffffffffff16146200072a576040517f08c379a0000000000000000000000000000000000000000000000000000000008152600401620007219062001875565b60405180910390fd5b6200073660006200111d565b565b600460008273ffffffffffffffffffffffffffffffffffffffff1673ffffffffffffffffffffffffffffffffffffffff168152602001908152602001600020339080600181540180825580915050600190039060005260206000200160009091909190916101000a81548173ffffffffffffffffffffffffffffffffffffffff021916908373ffffffffffffffffffffffffffffffffffffffff16021790555050565b60008060009054906101000a900473ffffffffffffffffffffffffffffffffffffffff16905090565b6200080e62001115565b73ffffffffffffffffffffffffffffffffffffffff166200082e620007db565b73ffffffffffffffffffffffffffffffffffffffff161462000887576040517f08c379a00000000000000000000000000000000000000000000000000000000081526004016200087e9062001875565b60405180910390fd5b6001600860008282546200089c9190620018f7565b92505081905550565b620008af62001115565b73ffffffffffffffffffffffffffffffffffffffff16620008cf620007db565b73ffffffffffffffffffffffffffffffffffffffff161462000928576040517f08c379a00000000000000000000000000000000000000000000000000000000081526004016200091f9062001875565b60405180910390fd5b6200094c604051806060016040528060268152602001620056f860269139620011e1565b73__$12cdf1fac25abe52b1eb298b32a4f32efb$__630e2a112660036040518263ffffffff1660e01b8152600401620009869190620016c2565b60006040518083038186803b1580156200099f57600080fd5b505af4158015620009b4573d6000803e3d6000fd5b505050506000606060005b60038054905081101562000b555760038181548110620009e457620009e362001a60565b5b9060005260206000200160009054906101000a900473ffffffffffffffffffffffffffffffffffffffff1673ffffffffffffffffffffffffffffffffffffffff166040516024016040516020818303038152906040527f0655465a000000000000000000000000000000000000000000000000000000007bffffffffffffffffffffffffffffffffffffffffffffffffffffffff19166020820180517bffffffffffffffffffffffffffffffffffffffffffffffffffffffff838183161783525050505060405162000ab7919062001658565b6000604051808303816000865af19150503d806000811462000af6576040519150601f19603f3d011682016040523d82523d6000602084013e62000afb565b606091505b5080935081945050507f13848c3e38f8886f3f5d2ad9dff80d8092c2bbb8efd5b887a99c2c6cfc09ac2a838360405162000b379291906200170c565b60405180910390a1808062000b4c90620019e3565b915050620009bf565b505050565b6004602052816000526040600020818154811062000b7757600080fd5b906000526020600020016000915091509054906101000a900473ffffffffffffffffffffffffffffffffffffffff1681565b62000bb362001115565b73ffffffffffffffffffffffffffffffffffffffff1662000bd3620007db565b73ffffffffffffffffffffffffffffffffffffffff161462000c2c576040517f08c379a000000000000000000000000000000000000000000000000000000000815260040162000c239062001875565b60405180910390fd5b73__$12cdf1fac25abe52b1eb298b32a4f32efb$__63c311d4f660036040518263ffffffff1660e01b815260040162000c669190620016c2565b60006040518083038186803b15801562000c7f57600080fd5b505af415801562000c94573d6000803e3d6000fd5b50505050565b6000808260405162000cac90620012a7565b62000cb8919062001671565b604051809103906000f08015801562000cd5573d6000803e3d6000fd5b50905080600260006101000a81548173ffffffffffffffffffffffffffffffffffffffff021916908373ffffffffffffffffffffffffffffffffffffffff16021790555080915050919050565b60008088886007548989878a600960009054906101000a900473ffffffffffffffffffffffffffffffffffffffff16600a60009054906101000a900473ffffffffffffffffffffffffffffffffffffffff168c3060405160240162000d929b9a9998979695949392919062001776565b6040516020818303038152906040527f5d514d69000000000000000000000000000000000000000000000000000000007bffffffffffffffffffffffffffffffffffffffffffffffffffffffff19166020820180517bffffffffffffffffffffffffffffffffffffffffffffffffffffffff8381831617835250505050905060007f00000000000000000000000000000000000000000000000000000000000000008260405162000e4390620012b5565b62000e509291906200168e565b604051809103906000f08015801562000e6d573d6000803e3d6000fd5b5090506003819080600181540180825580915050600190039060005260206000200160009091909190916101000a81548173ffffffffffffffffffffffffffffffffffffffff021916908373ffffffffffffffffffffffffffffffffffffffff1602179055507f6f41e080f0ba3b200797d7e512fbca5fa5d4b72f7d8fb62d6fb40997ea9679808a8a8360405162000f089392919062001740565b60405180910390a18092505050979650505050505050565b62000f2a62001115565b73ffffffffffffffffffffffffffffffffffffffff1662000f4a620007db565b73ffffffffffffffffffffffffffffffffffffffff161462000fa3576040517f08c379a000000000000000000000000000000000000000000000000000000000815260040162000f9a9062001875565b60405180910390fd5b73__$12cdf1fac25abe52b1eb298b32a4f32efb$__63a71e139860036040518263ffffffff1660e01b815260040162000fdd9190620016c2565b60006040518083038186803b15801562000ff657600080fd5b505af41580156200100b573d6000803e3d6000fd5b50505050565b6200101b62001115565b73ffffffffffffffffffffffffffffffffffffffff166200103b620007db565b73ffffffffffffffffffffffffffffffffffffffff161462001094576040517f08c379a00000000000000000000000000000000000000000000000000000000081526004016200108b9062001875565b60405180910390fd5b600073ffffffffffffffffffffffffffffffffffffffff168173ffffffffffffffffffffffffffffffffffffffff16141562001107576040517f08c379a0000000000000000000000000000000000000000000000000000000008152600401620010fe9062001853565b60405180910390fd5b62001112816200111d565b50565b600033905090565b60008060009054906101000a900473ffffffffffffffffffffffffffffffffffffffff169050816000806101000a81548173ffffffffffffffffffffffffffffffffffffffff021916908373ffffffffffffffffffffffffffffffffffffffff1602179055508173ffffffffffffffffffffffffffffffffffffffff168173ffffffffffffffffffffffffffffffffffffffff167f8be0079c531659141344cd1fd0a4f28419497f9722a3daafe3b4186f6b6457e060405160405180910390a35050565b6200127b81604051602401620011f891906200182f565b6040516020818303038152906040527f41304fac000000000000000000000000000000000000000000000000000000007bffffffffffffffffffffffffffffffffffffffffffffffffffffffff19166020820180517bffffffffffffffffffffffffffffffffffffffffffffffffffffffff83818316178352505050506200127e565b50565b60008151905060006a636f6e736f6c652e6c6f679050602083016000808483855afa5050505050565b610a918062001b8083390190565b6130e7806200261183390190565b600081359050620012d48162001b31565b92915050565b600081359050620012eb8162001b4b565b92915050565b60008083601f8401126200130a576200130962001a94565b5b8235905067ffffffffffffffff8111156200132a576200132962001a8f565b5b60208301915083600182028301111562001349576200134862001a99565b5b9250929050565b600081359050620013618162001b65565b92915050565b60006020828403121562001380576200137f62001aa3565b5b60006200139084828501620012c3565b91505092915050565b60008060408385031215620013b357620013b262001aa3565b5b6000620013c385828601620012c3565b9250506020620013d68582860162001350565b9150509250929050565b600080600080600080600060c0888a03121562001402576200140162001aa3565b5b600088013567ffffffffffffffff81111562001423576200142262001a9e565b5b620014318a828b01620012f1565b97509750506020620014468a828b0162001350565b9550506040620014598a828b01620012da565b94505060606200146c8a828b01620012c3565b93505060806200147f8a828b01620012c3565b92505060a0620014928a828b01620012c3565b91505092959891949750929550565b600060208284031215620014ba57620014b962001aa3565b5b6000620014ca8482850162001350565b91505092915050565b620014de8162001954565b82525050565b8082525050565b620014f68162001968565b82525050565b60006200150982620018b4565b620015158185620018ca565b935062001527818560208601620019ad565b620015328162001aa8565b840191505092915050565b60006200154a82620018b4565b620015568185620018db565b935062001568818560208601620019ad565b80840191505092915050565b6000620015828385620018e6565b9350620015918385846200199e565b6200159c8362001aa8565b840190509392505050565b6000620015b482620018bf565b620015c08185620018e6565b9350620015d2818560208601620019ad565b620015dd8162001aa8565b840191505092915050565b6000620015f7602683620018e6565b9150620016048262001ab9565b604082019050919050565b60006200161e602083620018e6565b91506200162b8262001b08565b602082019050919050565b620016418162001994565b82525050565b620016528162001994565b82525050565b60006200166682846200153d565b915081905092915050565b6000602082019050620016886000830184620014d3565b92915050565b6000604082019050620016a56000830185620014d3565b8181036020830152620016b98184620014fc565b90509392505050565b6000602082019050620016d96000830184620014e4565b92915050565b6000604082019050620016f66000830185620014e4565b62001705602083018462001647565b9392505050565b6000604082019050620017236000830185620014eb565b8181036020830152620017378184620014fc565b90509392505050565b600060408201905081810360008301526200175d81858762001574565b90506200176e6020830184620014d3565b949350505050565b600061014082019050818103600083015262001794818d8f62001574565b9050620017a5602083018c62001636565b620017b4604083018b62001636565b620017c3606083018a620014eb565b620017d26080830189620014d3565b620017e160a0830188620014d3565b620017f060c0830187620014d3565b620017ff60e0830186620014d3565b6200180f610100830185620014d3565b6200181f610120830184620014d3565b9c9b505050505050505050505050565b600060208201905081810360008301526200184b8184620015a7565b905092915050565b600060208201905081810360008301526200186e81620015e8565b9050919050565b6000602082019050818103600083015262001890816200160f565b9050919050565b6000602082019050620018ae600083018462001636565b92915050565b600081519050919050565b600081519050919050565b600082825260208201905092915050565b600081905092915050565b600082825260208201905092915050565b6000620019048262001994565b9150620019118362001994565b9250827fffffffffffffffffffffffffffffffffffffffffffffffffffffffffffffffff0382111562001949576200194862001a31565b5b828201905092915050565b6000620019618262001974565b9050919050565b60008115159050919050565b600073ffffffffffffffffffffffffffffffffffffffff82169050919050565b6000819050919050565b82818337600083830152505050565b60005b83811015620019cd578082015181840152602081019050620019b0565b83811115620019dd576000848401525b50505050565b6000620019f08262001994565b91507fffffffffffffffffffffffffffffffffffffffffffffffffffffffffffffffff82141562001a265762001a2562001a31565b5b600182019050919050565b7f4e487b7100000000000000000000000000000000000000000000000000000000600052601160045260246000fd5b7f4e487b7100000000000000000000000000000000000000000000000000000000600052603260045260246000fd5b600080fd5b600080fd5b600080fd5b600080fd5b600080fd5b6000601f19601f8301169050919050565b7f4f776e61626c653a206e6577206f776e657220697320746865207a65726f206160008201527f6464726573730000000000000000000000000000000000000000000000000000602082015250565b7f4f776e61626c653a2063616c6c6572206973206e6f7420746865206f776e6572600082015250565b62001b3c8162001954565b811462001b4857600080fd5b50565b62001b568162001968565b811462001b6257600080fd5b50565b62001b708162001994565b811462001b7c57600080fd5b5056fe608060405234801561001057600080fd5b5060405162000a9138038062000a91833981810160405281019061003491906101ef565b61005061004561006560201b60201c565b61006d60201b60201c565b61005f8161013160201b60201c565b5061030d565b600033905090565b60008060009054906101000a900473ffffffffffffffffffffffffffffffffffffffff169050816000806101000a81548173ffffffffffffffffffffffffffffffffffffffff021916908373ffffffffffffffffffffffffffffffffffffffff1602179055508173ffffffffffffffffffffffffffffffffffffffff168173ffffffffffffffffffffffffffffffffffffffff167f8be0079c531659141344cd1fd0a4f28419497f9722a3daafe3b4186f6b6457e060405160405180910390a35050565b610144816101c760201b6103781760201c565b610183576040517f08c379a000000000000000000000000000000000000000000000000000000000815260040161017a9061023f565b60405180910390fd5b80600160006101000a81548173ffffffffffffffffffffffffffffffffffffffff021916908373ffffffffffffffffffffffffffffffffffffffff16021790555050565b600080823b905060008111915050919050565b6000815190506101e9816102f6565b92915050565b600060208284031215610205576102046102a2565b5b6000610213848285016101da565b91505092915050565b600061022960338361025f565b9150610234826102a7565b604082019050919050565b600060208201905081810360008301526102588161021c565b9050919050565b600082825260208201905092915050565b600061027b82610282565b9050919050565b600073ffffffffffffffffffffffffffffffffffffffff82169050919050565b600080fd5b7f5570677261646561626c65426561636f6e3a20696d706c656d656e746174696f60008201527f6e206973206e6f74206120636f6e747261637400000000000000000000000000602082015250565b6102ff81610270565b811461030a57600080fd5b50565b610774806200031d6000396000f3fe608060405234801561001057600080fd5b50600436106100575760003560e01c80633659cfe61461005c5780635c60da1b14610078578063715018a6146100965780638da5cb5b146100a0578063f2fde38b146100be575b600080fd5b610076600480360381019061007191906104f8565b6100da565b005b6100806101a5565b60405161008d919061059d565b60405180910390f35b61009e6101cf565b005b6100a8610257565b6040516100b5919061059d565b60405180910390f35b6100d860048036038101906100d391906104f8565b610280565b005b6100e261038b565b73ffffffffffffffffffffffffffffffffffffffff16610100610257565b73ffffffffffffffffffffffffffffffffffffffff1614610156576040517f08c379a000000000000000000000000000000000000000000000000000000000815260040161014d906105f8565b60405180910390fd5b61015f81610393565b8073ffffffffffffffffffffffffffffffffffffffff167fbc7cd75a20ee27fd9adebab32041f755214dbc6bffa90cc0225b39da2e5c2d3b60405160405180910390a250565b6000600160009054906101000a900473ffffffffffffffffffffffffffffffffffffffff16905090565b6101d761038b565b73ffffffffffffffffffffffffffffffffffffffff166101f5610257565b73ffffffffffffffffffffffffffffffffffffffff161461024b576040517f08c379a0000000000000000000000000000000000000000000000000000000008152600401610242906105f8565b60405180910390fd5b610255600061041f565b565b60008060009054906101000a900473ffffffffffffffffffffffffffffffffffffffff16905090565b61028861038b565b73ffffffffffffffffffffffffffffffffffffffff166102a6610257565b73ffffffffffffffffffffffffffffffffffffffff16146102fc576040517f08c379a00000000000000000000000000000000000000000000000000000000081526004016102f3906105f8565b60405180910390fd5b600073ffffffffffffffffffffffffffffffffffffffff168173ffffffffffffffffffffffffffffffffffffffff16141561036c576040517f08c379a0000000000000000000000000000000000000000000000000000000008152600401610363906105b8565b60405180910390fd5b6103758161041f565b50565b600080823b905060008111915050919050565b600033905090565b61039c81610378565b6103db576040517f08c379a00000000000000000000000000000000000000000000000000000000081526004016103d2906105d8565b60405180910390fd5b80600160006101000a81548173ffffffffffffffffffffffffffffffffffffffff021916908373ffffffffffffffffffffffffffffffffffffffff16021790555050565b60008060009054906101000a900473ffffffffffffffffffffffffffffffffffffffff169050816000806101000a81548173ffffffffffffffffffffffffffffffffffffffff021916908373ffffffffffffffffffffffffffffffffffffffff1602179055508173ffffffffffffffffffffffffffffffffffffffff168173ffffffffffffffffffffffffffffffffffffffff167f8be0079c531659141344cd1fd0a4f28419497f9722a3daafe3b4186f6b6457e060405160405180910390a35050565b6000813590506104f281610727565b92915050565b60006020828403121561050e5761050d61065b565b5b600061051c848285016104e3565b91505092915050565b61052e81610629565b82525050565b6000610541602683610618565b915061054c82610660565b604082019050919050565b6000610564603383610618565b915061056f826106af565b604082019050919050565b6000610587602083610618565b9150610592826106fe565b602082019050919050565b60006020820190506105b26000830184610525565b92915050565b600060208201905081810360008301526105d181610534565b9050919050565b600060208201905081810360008301526105f181610557565b9050919050565b600060208201905081810360008301526106118161057a565b9050919050565b600082825260208201905092915050565b60006106348261063b565b9050919050565b600073ffffffffffffffffffffffffffffffffffffffff82169050919050565b600080fd5b7f4f776e61626c653a206e6577206f776e657220697320746865207a65726f206160008201527f6464726573730000000000000000000000000000000000000000000000000000602082015250565b7f5570677261646561626c65426561636f6e3a20696d706c656d656e746174696f60008201527f6e206973206e6f74206120636f6e747261637400000000000000000000000000602082015250565b7f4f776e61626c653a2063616c6c6572206973206e6f7420746865206f776e6572600082015250565b61073081610629565b811461073b57600080fd5b5056fea2646970667358221220f14c1e123fc6650c2510ce92a5938ce8dbd619e20ec5ceb7ad4526f9ccdb6aca64736f6c634300080700336080604052604051620030e7380380620030e78339818101604052810190620000299190620006bb565b620000496200003d620000cf60201b60201c565b620000d760201b60201c565b60017fa3f0ad74e5423aebfd80d3ef4346578335a9a72aeaee59ff6cb3582b35133d5160001c6200007b919062000942565b60001b7fa3f0ad74e5423aebfd80d3ef4346578335a9a72aeaee59ff6cb3582b35133d5060001b14620000b357620000b262000a27565b5b620000c7828260006200019b60201b60201c565b505062000be0565b600033905090565b60008060009054906101000a900473ffffffffffffffffffffffffffffffffffffffff169050816000806101000a81548173ffffffffffffffffffffffffffffffffffffffff021916908373ffffffffffffffffffffffffffffffffffffffff1602179055508173ffffffffffffffffffffffffffffffffffffffff168173ffffffffffffffffffffffffffffffffffffffff167f8be0079c531659141344cd1fd0a4f28419497f9722a3daafe3b4186f6b6457e060405160405180910390a35050565b620001ac83620002a260201b60201c565b8273ffffffffffffffffffffffffffffffffffffffff167f1cf3b03a6cf19fa2baba4df148e9dcabedea7f8a5c07840e207e5c089be95d3e60405160405180910390a2600082511180620001fd5750805b156200029d576200029b8373ffffffffffffffffffffffffffffffffffffffff16635c60da1b6040518163ffffffff1660e01b815260040160206040518083038186803b1580156200024e57600080fd5b505afa15801562000263573d6000803e3d6000fd5b505050506040513d601f19601f8201168201806040525081019062000289919062000689565b836200045160201b620010561760201c565b505b505050565b620002b8816200048760201b620010831760201c565b620002fa576040517f08c379a0000000000000000000000000000000000000000000000000000000008152600401620002f1906200084b565b60405180910390fd5b620003918173ffffffffffffffffffffffffffffffffffffffff16635c60da1b6040518163ffffffff1660e01b815260040160206040518083038186803b1580156200034557600080fd5b505afa1580156200035a573d6000803e3d6000fd5b505050506040513d601f19601f8201168201806040525081019062000380919062000689565b6200048760201b620010831760201c565b620003d3576040517f08c379a0000000000000000000000000000000000000000000000000000000008152600401620003ca906200088f565b60405180910390fd5b806200040d7fa3f0ad74e5423aebfd80d3ef4346578335a9a72aeaee59ff6cb3582b35133d5060001b6200049a60201b620010961760201c565b60000160006101000a81548173ffffffffffffffffffffffffffffffffffffffff021916908373ffffffffffffffffffffffffffffffffffffffff16021790555050565b60606200047f8383604051806060016040528060278152602001620030c060279139620004a460201b60201c565b905092915050565b600080823b905060008111915050919050565b6000819050919050565b6060620004b7846200048760201b60201c565b620004f9576040517f08c379a0000000000000000000000000000000000000000000000000000000008152600401620004f0906200086d565b60405180910390fd5b6000808573ffffffffffffffffffffffffffffffffffffffff16856040516200052391906200080e565b600060405180830381855af49150503d806000811462000560576040519150601f19603f3d011682016040523d82523d6000602084013e62000565565b606091505b50915091506200057d8282866200058860201b60201c565b925050509392505050565b606083156200059a57829050620005ed565b600083511115620005ae5782518084602001fd5b816040517f08c379a0000000000000000000000000000000000000000000000000000000008152600401620005e4919062000827565b60405180910390fd5b9392505050565b60006200060b6200060584620008da565b620008b1565b9050828152602081018484840111156200062a576200062962000ab9565b5b62000637848285620009bb565b509392505050565b600081519050620006508162000bc6565b92915050565b600082601f8301126200066e576200066d62000ab4565b5b815162000680848260208601620005f4565b91505092915050565b600060208284031215620006a257620006a162000ac3565b5b6000620006b2848285016200063f565b91505092915050565b60008060408385031215620006d557620006d462000ac3565b5b6000620006e5858286016200063f565b925050602083015167ffffffffffffffff81111562000709576200070862000abe565b5b620007178582860162000656565b9150509250929050565b60006200072e8262000910565b6200073a818562000926565b93506200074c818560208601620009bb565b80840191505092915050565b600062000765826200091b565b62000771818562000931565b935062000783818560208601620009bb565b6200078e8162000ac8565b840191505092915050565b6000620007a860258362000931565b9150620007b58262000ad9565b604082019050919050565b6000620007cf60268362000931565b9150620007dc8262000b28565b604082019050919050565b6000620007f660308362000931565b9150620008038262000b77565b604082019050919050565b60006200081c828462000721565b915081905092915050565b6000602082019050818103600083015262000843818462000758565b905092915050565b60006020820190508181036000830152620008668162000799565b9050919050565b600060208201905081810360008301526200088881620007c0565b9050919050565b60006020820190508181036000830152620008aa81620007e7565b9050919050565b6000620008bd620008d0565b9050620008cb8282620009f1565b919050565b6000604051905090565b600067ffffffffffffffff821115620008f857620008f762000a85565b5b620009038262000ac8565b9050602081019050919050565b600081519050919050565b600081519050919050565b600081905092915050565b600082825260208201905092915050565b60006200094f82620009b1565b91506200095c83620009b1565b92508282101562000972576200097162000a56565b5b828203905092915050565b60006200098a8262000991565b9050919050565b600073ffffffffffffffffffffffffffffffffffffffff82169050919050565b6000819050919050565b60005b83811015620009db578082015181840152602081019050620009be565b83811115620009eb576000848401525b50505050565b620009fc8262000ac8565b810181811067ffffffffffffffff8211171562000a1e5762000a1d62000a85565b5b80604052505050565b7f4e487b7100000000000000000000000000000000000000000000000000000000600052600160045260246000fd5b7f4e487b7100000000000000000000000000000000000000000000000000000000600052601160045260246000fd5b7f4e487b7100000000000000000000000000000000000000000000000000000000600052604160045260246000fd5b600080fd5b600080fd5b600080fd5b600080fd5b6000601f19601f8301169050919050565b7f455243313936373a206e657720626561636f6e206973206e6f74206120636f6e60008201527f7472616374000000000000000000000000000000000000000000000000000000602082015250565b7f416464726573733a2064656c65676174652063616c6c20746f206e6f6e2d636f60008201527f6e74726163740000000000000000000000000000000000000000000000000000602082015250565b7f455243313936373a20626561636f6e20696d706c656d656e746174696f6e206960008201527f73206e6f74206120636f6e747261637400000000000000000000000000000000602082015250565b62000bd1816200097d565b811462000bdd57600080fd5b50565b6124d08062000bf06000396000f3fe6080604052600436106101695760003560e01c8063715018a6116100d157806393f3706c1161008a578063d547741f11610064578063d547741f14610593578063dc9a1535146105bc578063e2ec6ec3146105e7578063f2fde38b1461062457610178565b806393f3706c146105005780639b19251a1461052b578063a217fddf1461056857610178565b8063715018a6146103ee5780637b9417c8146104055780637eed33f114610442578063841abf6e1461046d5780638da5cb5b1461049857806391d14854146104c357610178565b8063286dd3f511610123578063286dd3f5146102de5780632f2ff15d1461031b57806336568abe1461034457806352e6e5f31461036d57806354fd4d501461039857806360c7dc47146103c357610178565b8062b2476f1461018257806301ffc9a7146101ad5780630c6f7959146101ea578063248a9ca31461022757806324953eaa14610264578063267175db146102a157610178565b366101785761017661064d565b005b61018061064d565b005b34801561018e57600080fd5b50610197610667565b6040516101a49190611d7e565b60405180910390f35b3480156101b957600080fd5b506101d460048036038101906101cf9190611b07565b61068d565b6040516101e19190611d99565b60405180910390f35b3480156101f657600080fd5b50610211600480360381019061020c9190611a11565b610707565b60405161021e9190611e91565b60405180910390f35b34801561023357600080fd5b5061024e60048036038101906102499190611a9a565b61072f565b60405161025b9190611db4565b60405180910390f35b34801561027057600080fd5b5061028b60048036038101906102869190611a51565b61074f565b6040516102989190611d99565b60405180910390f35b3480156102ad57600080fd5b506102c860048036038101906102c39190611b34565b610839565b6040516102d59190611d7e565b60405180910390f35b3480156102ea57600080fd5b50610305600480360381019061030091906119b7565b610878565b6040516103129190611d99565b60405180910390f35b34801561032757600080fd5b50610342600480360381019061033d9190611ac7565b6109fb565b005b34801561035057600080fd5b5061036b60048036038101906103669190611ac7565b610a24565b005b34801561037957600080fd5b50610382610aa7565b60405161038f9190611e91565b60405180910390f35b3480156103a457600080fd5b506103ad610aad565b6040516103ba9190611e91565b60405180910390f35b3480156103cf57600080fd5b506103d8610ab3565b6040516103e59190611e91565b60405180910390f35b3480156103fa57600080fd5b50610403610ab9565b005b34801561041157600080fd5b5061042c600480360381019061042791906119b7565b610b41565b6040516104399190611d99565b60405180910390f35b34801561044e57600080fd5b50610457610cc3565b6040516104649190611e91565b60405180910390f35b34801561047957600080fd5b50610482610cc9565b60405161048f9190611dcf565b60405180910390f35b3480156104a457600080fd5b506104ad610d57565b6040516104ba9190611d7e565b60405180910390f35b3480156104cf57600080fd5b506104ea60048036038101906104e59190611ac7565b610d80565b6040516104f79190611d99565b60405180910390f35b34801561050c57600080fd5b50610515610deb565b6040516105229190611d7e565b60405180910390f35b34801561053757600080fd5b50610552600480360381019061054d91906119b7565b610e11565b60405161055f9190611d99565b60405180910390f35b34801561057457600080fd5b5061057d610e31565b60405161058a9190611db4565b60405180910390f35b34801561059f57600080fd5b506105ba60048036038101906105b59190611ac7565b610e38565b005b3480156105c857600080fd5b506105d1610e61565b6040516105de9190611d99565b60405180910390f35b3480156105f357600080fd5b5061060e60048036038101906106099190611a51565b610e74565b60405161061b9190611d99565b60405180910390f35b34801561063057600080fd5b5061064b600480360381019061064691906119b7565b610f5e565b005b6106556110a0565b6106656106606110a2565b61112e565b565b601260009054906101000a900473ffffffffffffffffffffffffffffffffffffffff1681565b60007f7965db0b000000000000000000000000000000000000000000000000000000007bffffffffffffffffffffffffffffffffffffffffffffffffffffffff1916827bffffffffffffffffffffffffffffffffffffffffffffffffffffffff1916148061070057506106ff82611154565b5b9050919050565b600c602052816000526040600020816008811061072357600080fd5b01600091509150505481565b600060016000838152602001908152602001600020600101549050919050565b60006107596111be565b73ffffffffffffffffffffffffffffffffffffffff16610777610d57565b73ffffffffffffffffffffffffffffffffffffffff16146107cd576040517f08c379a00000000000000000000000000000000000000000000000000000000081526004016107c490611e31565b60405180910390fd5b60005b8251811015610833576107fc8382815181106107ef576107ee612203565b5b6020026020010151610878565b15610820576001600360008282546108149190611fea565b92505081905550600191505b808061082b9061215c565b9150506107d0565b50919050565b6009818154811061084957600080fd5b906000526020600020016000915054906101000a900473ffffffffffffffffffffffffffffffffffffffff1681565b60006108826111be565b73ffffffffffffffffffffffffffffffffffffffff166108a0610d57565b73ffffffffffffffffffffffffffffffffffffffff16146108f6576040517f08c379a00000000000000000000000000000000000000000000000000000000081526004016108ed90611e31565b60405180910390fd5b600260008373ffffffffffffffffffffffffffffffffffffffff1673ffffffffffffffffffffffffffffffffffffffff16815260200190815260200160002060009054906101000a900460ff16156109f6576000600260008473ffffffffffffffffffffffffffffffffffffffff1673ffffffffffffffffffffffffffffffffffffffff16815260200190815260200160002060006101000a81548160ff0219169083151502179055507ff1abf01a1043b7c244d128e8595cf0c1d10743b022b03a02dffd8ca3bf729f5a826040516109cf9190611d7e565b60405180910390a16001600360008282546109ea9190611fea565b92505081905550600190505b919050565b610a048261072f565b610a1581610a106111be565b6111c6565b610a1f8383611263565b505050565b610a2c6111be565b73ffffffffffffffffffffffffffffffffffffffff168173ffffffffffffffffffffffffffffffffffffffff1614610a99576040517f08c379a0000000000000000000000000000000000000000000000000000000008152600401610a9090611e71565b60405180910390fd5b610aa38282611343565b5050565b60085481565b60055481565b600f5481565b610ac16111be565b73ffffffffffffffffffffffffffffffffffffffff16610adf610d57565b73ffffffffffffffffffffffffffffffffffffffff1614610b35576040517f08c379a0000000000000000000000000000000000000000000000000000000008152600401610b2c90611e31565b60405180910390fd5b610b3f6000611425565b565b6000610b4b6111be565b73ffffffffffffffffffffffffffffffffffffffff16610b69610d57565b73ffffffffffffffffffffffffffffffffffffffff1614610bbf576040517f08c379a0000000000000000000000000000000000000000000000000000000008152600401610bb690611e31565b60405180910390fd5b600260008373ffffffffffffffffffffffffffffffffffffffff1673ffffffffffffffffffffffffffffffffffffffff16815260200190815260200160002060009054906101000a900460ff16610cbe576001600260008473ffffffffffffffffffffffffffffffffffffffff1673ffffffffffffffffffffffffffffffffffffffff16815260200190815260200160002060006101000a81548160ff0219169083151502179055507fd1bba68c128cc3f427e5831b3c6f99f480b6efa6b9e80c757768f6124158cc3f82604051610c979190611d7e565b60405180910390a1600160036000828254610cb29190611f3a565b92505081905550600190505b919050565b60075481565b60068054610cd6906120f9565b80601f0160208091040260200160405190810160405280929190818152602001828054610d02906120f9565b8015610d4f5780601f10610d2457610100808354040283529160200191610d4f565b820191906000526020600020905b815481529060010190602001808311610d3257829003601f168201915b505050505081565b60008060009054906101000a900473ffffffffffffffffffffffffffffffffffffffff16905090565b60006001600084815260200190815260200160002060000160008373ffffffffffffffffffffffffffffffffffffffff1673ffffffffffffffffffffffffffffffffffffffff16815260200190815260200160002060009054906101000a900460ff16905092915050565b601160009054906101000a900473ffffffffffffffffffffffffffffffffffffffff1681565b60026020528060005260406000206000915054906101000a900460ff1681565b6000801b81565b610e418261072f565b610e5281610e4d6111be565b6111c6565b610e5c8383611343565b505050565b600460009054906101000a900460ff1681565b6000610e7e6111be565b73ffffffffffffffffffffffffffffffffffffffff16610e9c610d57565b73ffffffffffffffffffffffffffffffffffffffff1614610ef2576040517f08c379a0000000000000000000000000000000000000000000000000000000008152600401610ee990611e31565b60405180910390fd5b60005b8251811015610f5857610f21838281518110610f1457610f13612203565b5b6020026020010151610b41565b15610f4557600160036000828254610f399190611f3a565b92505081905550600191505b8080610f509061215c565b915050610ef5565b50919050565b610f666111be565b73ffffffffffffffffffffffffffffffffffffffff16610f84610d57565b73ffffffffffffffffffffffffffffffffffffffff1614610fda576040517f08c379a0000000000000000000000000000000000000000000000000000000008152600401610fd190611e31565b60405180910390fd5b600073ffffffffffffffffffffffffffffffffffffffff168173ffffffffffffffffffffffffffffffffffffffff16141561104a576040517f08c379a000000000000000000000000000000000000000000000000000000000815260040161104190611e11565b60405180910390fd5b61105381611425565b50565b606061107b8383604051806060016040528060278152602001612474602791396114e9565b905092915050565b600080823b905060008111915050919050565b6000819050919050565b565b60006110ac6115b6565b73ffffffffffffffffffffffffffffffffffffffff16635c60da1b6040518163ffffffff1660e01b815260040160206040518083038186803b1580156110f157600080fd5b505afa158015611105573d6000803e3d6000fd5b505050506040513d601f19601f8201168201806040525081019061112991906119e4565b905090565b3660008037600080366000845af43d6000803e806000811461114f573d6000f35b3d6000fd5b60007f01ffc9a7000000000000000000000000000000000000000000000000000000007bffffffffffffffffffffffffffffffffffffffffffffffffffffffff1916827bffffffffffffffffffffffffffffffffffffffffffffffffffffffff1916149050919050565b600033905090565b6111d08282610d80565b61125f576111f58173ffffffffffffffffffffffffffffffffffffffff16601461160d565b6112038360001c602061160d565b604051602001611214929190611d44565b6040516020818303038152906040526040517f08c379a00000000000000000000000000000000000000000000000000000000081526004016112569190611dcf565b60405180910390fd5b5050565b61126d8282610d80565b61133f57600180600084815260200190815260200160002060000160008373ffffffffffffffffffffffffffffffffffffffff1673ffffffffffffffffffffffffffffffffffffffff16815260200190815260200160002060006101000a81548160ff0219169083151502179055506112e46111be565b73ffffffffffffffffffffffffffffffffffffffff168173ffffffffffffffffffffffffffffffffffffffff16837f2f8788117e7eff1d82e926ec794901d17c78024a50270940304540a733656f0d60405160405180910390a45b5050565b61134d8282610d80565b156114215760006001600084815260200190815260200160002060000160008373ffffffffffffffffffffffffffffffffffffffff1673ffffffffffffffffffffffffffffffffffffffff16815260200190815260200160002060006101000a81548160ff0219169083151502179055506113c66111be565b73ffffffffffffffffffffffffffffffffffffffff168173ffffffffffffffffffffffffffffffffffffffff16837ff6391f5c32d9c69d2a47ea670b442974b53935d1edc7fd64eb21e047a839171b60405160405180910390a45b5050565b60008060009054906101000a900473ffffffffffffffffffffffffffffffffffffffff169050816000806101000a81548173ffffffffffffffffffffffffffffffffffffffff021916908373ffffffffffffffffffffffffffffffffffffffff1602179055508173ffffffffffffffffffffffffffffffffffffffff168173ffffffffffffffffffffffffffffffffffffffff167f8be0079c531659141344cd1fd0a4f28419497f9722a3daafe3b4186f6b6457e060405160405180910390a35050565b60606114f484611083565b611533576040517f08c379a000000000000000000000000000000000000000000000000000000000815260040161152a90611e51565b60405180910390fd5b6000808573ffffffffffffffffffffffffffffffffffffffff168560405161155b9190611d2d565b600060405180830381855af49150503d8060008114611596576040519150601f19603f3d011682016040523d82523d6000602084013e61159b565b606091505b50915091506115ab828286611849565b925050509392505050565b60006115e47fa3f0ad74e5423aebfd80d3ef4346578335a9a72aeaee59ff6cb3582b35133d5060001b611096565b60000160009054906101000a900473ffffffffffffffffffffffffffffffffffffffff16905090565b6060600060028360026116209190611f90565b61162a9190611f3a565b67ffffffffffffffff81111561164357611642612232565b5b6040519080825280601f01601f1916602001820160405280156116755781602001600182028036833780820191505090505b5090507f3000000000000000000000000000000000000000000000000000000000000000816000815181106116ad576116ac612203565b5b60200101907effffffffffffffffffffffffffffffffffffffffffffffffffffffffffffff1916908160001a9053507f78000000000000000000000000000000000000000000000000000000000000008160018151811061171157611710612203565b5b60200101907effffffffffffffffffffffffffffffffffffffffffffffffffffffffffffff1916908160001a905350600060018460026117519190611f90565b61175b9190611f3a565b90505b60018111156117fb577f3031323334353637383961626364656600000000000000000000000000000000600f86166010811061179d5761179c612203565b5b1a60f81b8282815181106117b4576117b3612203565b5b60200101907effffffffffffffffffffffffffffffffffffffffffffffffffffffffffffff1916908160001a905350600485901c9450806117f4906120cf565b905061175e565b506000841461183f576040517f08c379a000000000000000000000000000000000000000000000000000000000815260040161183690611df1565b60405180910390fd5b8091505092915050565b60608315611859578290506118a9565b60008351111561186c5782518084602001fd5b816040517f08c379a00000000000000000000000000000000000000000000000000000000081526004016118a09190611dcf565b60405180910390fd5b9392505050565b60006118c36118be84611ed1565b611eac565b905080838252602082019050828560208602820111156118e6576118e5612266565b5b60005b8581101561191657816118fc8882611920565b8452602084019350602083019250506001810190506118e9565b5050509392505050565b60008135905061192f81612417565b92915050565b60008151905061194481612417565b92915050565b600082601f83011261195f5761195e612261565b5b813561196f8482602086016118b0565b91505092915050565b6000813590506119878161242e565b92915050565b60008135905061199c81612445565b92915050565b6000813590506119b18161245c565b92915050565b6000602082840312156119cd576119cc612270565b5b60006119db84828501611920565b91505092915050565b6000602082840312156119fa576119f9612270565b5b6000611a0884828501611935565b91505092915050565b60008060408385031215611a2857611a27612270565b5b6000611a3685828601611920565b9250506020611a47858286016119a2565b9150509250929050565b600060208284031215611a6757611a66612270565b5b600082013567ffffffffffffffff811115611a8557611a8461226b565b5b611a918482850161194a565b91505092915050565b600060208284031215611ab057611aaf612270565b5b6000611abe84828501611978565b91505092915050565b60008060408385031215611ade57611add612270565b5b6000611aec85828601611978565b9250506020611afd85828601611920565b9150509250929050565b600060208284031215611b1d57611b1c612270565b5b6000611b2b8482850161198d565b91505092915050565b600060208284031215611b4a57611b49612270565b5b6000611b58848285016119a2565b91505092915050565b611b6a8161201e565b82525050565b611b7981612030565b82525050565b611b888161203c565b82525050565b6000611b9982611efd565b611ba38185611f13565b9350611bb381856020860161209c565b80840191505092915050565b6000611bca82611f08565b611bd48185611f1e565b9350611be481856020860161209c565b611bed81612275565b840191505092915050565b6000611c0382611f08565b611c0d8185611f2f565b9350611c1d81856020860161209c565b80840191505092915050565b6000611c36602083611f1e565b9150611c4182612286565b602082019050919050565b6000611c59602683611f1e565b9150611c64826122af565b604082019050919050565b6000611c7c602083611f1e565b9150611c87826122fe565b602082019050919050565b6000611c9f602683611f1e565b9150611caa82612327565b604082019050919050565b6000611cc2601783611f2f565b9150611ccd82612376565b601782019050919050565b6000611ce5601183611f2f565b9150611cf08261239f565b601182019050919050565b6000611d08602f83611f1e565b9150611d13826123c8565b604082019050919050565b611d2781612092565b82525050565b6000611d398284611b8e565b915081905092915050565b6000611d4f82611cb5565b9150611d5b8285611bf8565b9150611d6682611cd8565b9150611d728284611bf8565b91508190509392505050565b6000602082019050611d936000830184611b61565b92915050565b6000602082019050611dae6000830184611b70565b92915050565b6000602082019050611dc96000830184611b7f565b92915050565b60006020820190508181036000830152611de98184611bbf565b905092915050565b60006020820190508181036000830152611e0a81611c29565b9050919050565b60006020820190508181036000830152611e2a81611c4c565b9050919050565b60006020820190508181036000830152611e4a81611c6f565b9050919050565b60006020820190508181036000830152611e6a81611c92565b9050919050565b60006020820190508181036000830152611e8a81611cfb565b9050919050565b6000602082019050611ea66000830184611d1e565b92915050565b6000611eb6611ec7565b9050611ec2828261212b565b919050565b6000604051905090565b600067ffffffffffffffff821115611eec57611eeb612232565b5b602082029050602081019050919050565b600081519050919050565b600081519050919050565b600081905092915050565b600082825260208201905092915050565b600081905092915050565b6000611f4582612092565b9150611f5083612092565b9250827fffffffffffffffffffffffffffffffffffffffffffffffffffffffffffffffff03821115611f8557611f846121a5565b5b828201905092915050565b6000611f9b82612092565b9150611fa683612092565b9250817fffffffffffffffffffffffffffffffffffffffffffffffffffffffffffffffff0483118215151615611fdf57611fde6121a5565b5b828202905092915050565b6000611ff582612092565b915061200083612092565b925082821015612013576120126121a5565b5b828203905092915050565b600061202982612072565b9050919050565b60008115159050919050565b6000819050919050565b60007fffffffff0000000000000000000000000000000000000000000000000000000082169050919050565b600073ffffffffffffffffffffffffffffffffffffffff82169050919050565b6000819050919050565b60005b838110156120ba57808201518184015260208101905061209f565b838111156120c9576000848401525b50505050565b60006120da82612092565b915060008214156120ee576120ed6121a5565b5b600182039050919050565b6000600282049050600182168061211157607f821691505b60208210811415612125576121246121d4565b5b50919050565b61213482612275565b810181811067ffffffffffffffff8211171561215357612152612232565b5b80604052505050565b600061216782612092565b91507fffffffffffffffffffffffffffffffffffffffffffffffffffffffffffffffff82141561219a576121996121a5565b5b600182019050919050565b7f4e487b7100000000000000000000000000000000000000000000000000000000600052601160045260246000fd5b7f4e487b7100000000000000000000000000000000000000000000000000000000600052602260045260246000fd5b7f4e487b7100000000000000000000000000000000000000000000000000000000600052603260045260246000fd5b7f4e487b7100000000000000000000000000000000000000000000000000000000600052604160045260246000fd5b600080fd5b600080fd5b600080fd5b600080fd5b6000601f19601f8301169050919050565b7f537472696e67733a20686578206c656e67746820696e73756666696369656e74600082015250565b7f4f776e61626c653a206e6577206f776e657220697320746865207a65726f206160008201527f6464726573730000000000000000000000000000000000000000000000000000602082015250565b7f4f776e61626c653a2063616c6c6572206973206e6f7420746865206f776e6572600082015250565b7f416464726573733a2064656c65676174652063616c6c20746f206e6f6e2d636f60008201527f6e74726163740000000000000000000000000000000000000000000000000000602082015250565b7f416363657373436f6e74726f6c3a206163636f756e7420000000000000000000600082015250565b7f206973206d697373696e6720726f6c6520000000000000000000000000000000600082015250565b7f416363657373436f6e74726f6c3a2063616e206f6e6c792072656e6f756e636560008201527f20726f6c657320666f722073656c660000000000000000000000000000000000602082015250565b6124208161201e565b811461242b57600080fd5b50565b6124378161203c565b811461244257600080fd5b50565b61244e81612046565b811461245957600080fd5b50565b61246581612092565b811461247057600080fd5b5056fe416464726573733a206c6f772d6c6576656c2064656c65676174652063616c6c206661696c6564a2646970667358221220c31e550a572ed3ad2ee4555a4d5049e1303e8bbe4613b851c7c61e5373659fad64736f6c63430008070033416464726573733a206c6f772d6c6576656c2064656c65676174652063616c6c206661696c656473657474696e67206c6561677565207363686564756c6520696e206c65616775656d616b6572a2646970667358221220ef787e14e45d7cd2db8c189373155dcc7ae6da767e3970f280404278b2dc027064736f6c63430008070033608060405234801561001057600080fd5b5060405162000a9138038062000a91833981810160405281019061003491906101ef565b61005061004561006560201b60201c565b61006d60201b60201c565b61005f8161013160201b60201c565b5061030d565b600033905090565b60008060009054906101000a900473ffffffffffffffffffffffffffffffffffffffff169050816000806101000a81548173ffffffffffffffffffffffffffffffffffffffff021916908373ffffffffffffffffffffffffffffffffffffffff1602179055508173ffffffffffffffffffffffffffffffffffffffff168173ffffffffffffffffffffffffffffffffffffffff167f8be0079c531659141344cd1fd0a4f28419497f9722a3daafe3b4186f6b6457e060405160405180910390a35050565b610144816101c760201b6103781760201c565b610183576040517f08c379a000000000000000000000000000000000000000000000000000000000815260040161017a9061023f565b60405180910390fd5b80600160006101000a81548173ffffffffffffffffffffffffffffffffffffffff021916908373ffffffffffffffffffffffffffffffffffffffff16021790555050565b600080823b905060008111915050919050565b6000815190506101e9816102f6565b92915050565b600060208284031215610205576102046102a2565b5b6000610213848285016101da565b91505092915050565b600061022960338361025f565b9150610234826102a7565b604082019050919050565b600060208201905081810360008301526102588161021c565b9050919050565b600082825260208201905092915050565b600061027b82610282565b9050919050565b600073ffffffffffffffffffffffffffffffffffffffff82169050919050565b600080fd5b7f5570677261646561626c65426561636f6e3a20696d706c656d656e746174696f60008201527f6e206973206e6f74206120636f6e747261637400000000000000000000000000602082015250565b6102ff81610270565b811461030a57600080fd5b50565b610774806200031d6000396000f3fe608060405234801561001057600080fd5b50600436106100575760003560e01c80633659cfe61461005c5780635c60da1b14610078578063715018a6146100965780638da5cb5b146100a0578063f2fde38b146100be575b600080fd5b610076600480360381019061007191906104f8565b6100da565b005b6100806101a5565b60405161008d919061059d565b60405180910390f35b61009e6101cf565b005b6100a8610257565b6040516100b5919061059d565b60405180910390f35b6100d860048036038101906100d391906104f8565b610280565b005b6100e261038b565b73ffffffffffffffffffffffffffffffffffffffff16610100610257565b73ffffffffffffffffffffffffffffffffffffffff1614610156576040517f08c379a000000000000000000000000000000000000000000000000000000000815260040161014d906105f8565b60405180910390fd5b61015f81610393565b8073ffffffffffffffffffffffffffffffffffffffff167fbc7cd75a20ee27fd9adebab32041f755214dbc6bffa90cc0225b39da2e5c2d3b60405160405180910390a250565b6000600160009054906101000a900473ffffffffffffffffffffffffffffffffffffffff16905090565b6101d761038b565b73ffffffffffffffffffffffffffffffffffffffff166101f5610257565b73ffffffffffffffffffffffffffffffffffffffff161461024b576040517f08c379a0000000000000000000000000000000000000000000000000000000008152600401610242906105f8565b60405180910390fd5b610255600061041f565b565b60008060009054906101000a900473ffffffffffffffffffffffffffffffffffffffff16905090565b61028861038b565b73ffffffffffffffffffffffffffffffffffffffff166102a6610257565b73ffffffffffffffffffffffffffffffffffffffff16146102fc576040517f08c379a00000000000000000000000000000000000000000000000000000000081526004016102f3906105f8565b60405180910390fd5b600073ffffffffffffffffffffffffffffffffffffffff168173ffffffffffffffffffffffffffffffffffffffff16141561036c576040517f08c379a0000000000000000000000000000000000000000000000000000000008152600401610363906105b8565b60405180910390fd5b6103758161041f565b50565b600080823b905060008111915050919050565b600033905090565b61039c81610378565b6103db576040517f08c379a00000000000000000000000000000000000000000000000000000000081526004016103d2906105d8565b60405180910390fd5b80600160006101000a81548173ffffffffffffffffffffffffffffffffffffffff021916908373ffffffffffffffffffffffffffffffffffffffff16021790555050565b60008060009054906101000a900473ffffffffffffffffffffffffffffffffffffffff169050816000806101000a81548173ffffffffffffffffffffffffffffffffffffffff021916908373ffffffffffffffffffffffffffffffffffffffff1602179055508173ffffffffffffffffffffffffffffffffffffffff168173ffffffffffffffffffffffffffffffffffffffff167f8be0079c531659141344cd1fd0a4f28419497f9722a3daafe3b4186f6b6457e060405160405180910390a35050565b6000813590506104f281610727565b92915050565b60006020828403121561050e5761050d61065b565b5b600061051c848285016104e3565b91505092915050565b61052e81610629565b82525050565b6000610541602683610618565b915061054c82610660565b604082019050919050565b6000610564603383610618565b915061056f826106af565b604082019050919050565b6000610587602083610618565b9150610592826106fe565b602082019050919050565b60006020820190506105b26000830184610525565b92915050565b600060208201905081810360008301526105d181610534565b9050919050565b600060208201905081810360008301526105f181610557565b9050919050565b600060208201905081810360008301526106118161057a565b9050919050565b600082825260208201905092915050565b60006106348261063b565b9050919050565b600073ffffffffffffffffffffffffffffffffffffffff82169050919050565b600080fd5b7f4f776e61626c653a206e6577206f776e657220697320746865207a65726f206160008201527f6464726573730000000000000000000000000000000000000000000000000000602082015250565b7f5570677261646561626c65426561636f6e3a20696d706c656d656e746174696f60008201527f6e206973206e6f74206120636f6e747261637400000000000000000000000000602082015250565b7f4f776e61626c653a2063616c6c6572206973206e6f7420746865206f776e6572600082015250565b61073081610629565b811461073b57600080fd5b5056fea2646970667358221220f14c1e123fc6650c2510ce92a5938ce8dbd619e20ec5ceb7ad4526f9ccdb6aca64736f6c63430008070033",
  "linkReferences": {
    "contracts/LeagueMakerLibrary.sol": {
      "LeagueMakerLibrary": [
        {
          "length": 20,
          "start": 1680
        },
        {
          "length": 20,
          "start": 2401
        },
        {
          "length": 20,
          "start": 3218
        },
        {
          "length": 20,
          "start": 3954
        },
        {
          "length": 20,
          "start": 4841
        }
      ]
    }
  },
  "deployedLinkReferences": {
    "contracts/LeagueMakerLibrary.sol": {
      "LeagueMakerLibrary": [
        {
          "length": 20,
          "start": 844
        },
        {
          "length": 20,
          "start": 1565
        },
        {
          "length": 20,
          "start": 2382
        },
        {
          "length": 20,
          "start": 3118
        },
        {
          "length": 20,
          "start": 4005
        }
      ]
    }
  }
}