{
  "_format": "hh-sol-artifact-1",
  "contractName": "LeagueMaker",
  "sourceName": "contracts/LeagueMaker.sol",
  "abi": [
    {
      "inputs": [
        {
          "internalType": "address",
          "name": "_logic",
          "type": "address"
        }
      ],
      "stateMutability": "nonpayable",
      "type": "constructor"
    },
    {
      "anonymous": false,
      "inputs": [
        {
          "indexed": false,
          "internalType": "string",
          "name": "name",
          "type": "string"
        },
        {
          "indexed": false,
          "internalType": "address",
          "name": "a",
          "type": "address"
        }
      ],
      "name": "LeagueCreated",
      "type": "event"
    },
    {
      "anonymous": false,
      "inputs": [
        {
          "indexed": true,
          "internalType": "address",
          "name": "previousOwner",
          "type": "address"
        },
        {
          "indexed": true,
          "internalType": "address",
          "name": "newOwner",
          "type": "address"
        }
      ],
      "name": "OwnershipTransferred",
      "type": "event"
    },
    {
      "anonymous": false,
      "inputs": [
        {
          "indexed": false,
          "internalType": "bool",
          "name": "success",
          "type": "bool"
        },
        {
          "indexed": false,
          "internalType": "bytes",
          "name": "data",
          "type": "bytes"
        }
      ],
      "name": "Response",
      "type": "event"
    },
    {
      "inputs": [
        {
          "internalType": "string",
          "name": "_name",
          "type": "string"
        },
        {
          "internalType": "uint256",
          "name": "_stakeAmount",
          "type": "uint256"
        },
        {
          "internalType": "bool",
          "name": "_isPublic",
          "type": "bool"
        },
        {
          "internalType": "address",
          "name": "_adminAddress",
          "type": "address"
        },
        {
          "internalType": "address",
          "name": "_testUSDCAddress",
          "type": "address"
        },
        {
          "internalType": "address",
          "name": "_athletesContractAddress",
          "type": "address"
        },
        {
          "internalType": "address",
          "name": "_gameItemsAddress",
          "type": "address"
        }
      ],
      "name": "createLeague",
      "outputs": [
        {
          "internalType": "address",
          "name": "",
          "type": "address"
        }
      ],
      "stateMutability": "nonpayable",
      "type": "function"
    },
    {
      "inputs": [],
      "name": "currentWeek",
      "outputs": [
        {
          "internalType": "uint256",
          "name": "",
          "type": "uint256"
        }
      ],
      "stateMutability": "view",
      "type": "function"
    },
    {
      "inputs": [],
      "name": "evaluateWeekForAllLeagues",
      "outputs": [],
      "stateMutability": "nonpayable",
      "type": "function"
    },
    {
      "inputs": [
        {
          "internalType": "address",
          "name": "",
          "type": "address"
        }
      ],
      "name": "isProxyMap",
      "outputs": [
        {
          "internalType": "bool",
          "name": "",
          "type": "bool"
        }
      ],
      "stateMutability": "view",
      "type": "function"
    },
    {
      "inputs": [
        {
          "internalType": "uint256",
          "name": "",
          "type": "uint256"
        }
      ],
      "name": "leagueAddresses",
      "outputs": [
        {
          "internalType": "address",
          "name": "",
          "type": "address"
        }
      ],
      "stateMutability": "view",
      "type": "function"
    },
    {
      "inputs": [],
      "name": "lockLeagueLineups",
      "outputs": [],
      "stateMutability": "nonpayable",
      "type": "function"
    },
    {
      "inputs": [],
      "name": "lockLeagueMembership",
      "outputs": [],
      "stateMutability": "nonpayable",
      "type": "function"
    },
    {
      "inputs": [],
      "name": "owner",
      "outputs": [
        {
          "internalType": "address",
          "name": "",
          "type": "address"
        }
      ],
      "stateMutability": "view",
      "type": "function"
    },
    {
      "inputs": [],
      "name": "renounceOwnership",
      "outputs": [],
      "stateMutability": "nonpayable",
      "type": "function"
    },
    {
      "inputs": [
        {
          "internalType": "address",
          "name": "logic",
          "type": "address"
        }
      ],
      "name": "setBeacon",
      "outputs": [
        {
          "internalType": "address",
          "name": "",
          "type": "address"
        }
      ],
      "stateMutability": "nonpayable",
      "type": "function"
    },
    {
      "inputs": [],
      "name": "setLeagueSchedules",
      "outputs": [],
      "stateMutability": "nonpayable",
      "type": "function"
    },
    {
      "inputs": [
        {
          "internalType": "address",
          "name": "newOwner",
          "type": "address"
        }
      ],
      "name": "transferOwnership",
      "outputs": [],
      "stateMutability": "nonpayable",
      "type": "function"
    },
    {
      "inputs": [],
      "name": "unlockLeagueLineups",
      "outputs": [],
      "stateMutability": "nonpayable",
      "type": "function"
    },
    {
      "inputs": [
        {
          "internalType": "address",
          "name": "user",
          "type": "address"
        }
      ],
      "name": "updateUserToLeagueMapping",
      "outputs": [],
      "stateMutability": "nonpayable",
      "type": "function"
    },
    {
      "inputs": [
        {
          "internalType": "address",
          "name": "",
          "type": "address"
        },
        {
          "internalType": "uint256",
          "name": "",
          "type": "uint256"
        }
      ],
      "name": "userToLeagueMap",
      "outputs": [
        {
          "internalType": "address",
          "name": "",
          "type": "address"
        }
      ],
      "stateMutability": "view",
      "type": "function"
    }
  ],
  "bytecode": "0x60a060405260086007556000600855732791bca1f2de4661ed88a30c99a7a9449aa84174600960006101000a81548173ffffffffffffffffffffffffffffffffffffffff021916908373ffffffffffffffffffffffffffffffffffffffff16021790555073eb8f08a975ab53e34d8a0330e0d34de942c95926600a60006101000a81548173ffffffffffffffffffffffffffffffffffffffff021916908373ffffffffffffffffffffffffffffffffffffffff160217905550348015620000c557600080fd5b5060405162006674380380620066748339818101604052810190620000eb919062000272565b6200010b620000ff6200018160201b60201c565b6200018960201b60201c565b806040516200011a906200024d565b620001269190620002b5565b604051809103906000f08015801562000143573d6000803e3d6000fd5b5073ffffffffffffffffffffffffffffffffffffffff1660808173ffffffffffffffffffffffffffffffffffffffff1660601b815250505062000325565b600033905090565b60008060009054906101000a900473ffffffffffffffffffffffffffffffffffffffff169050816000806101000a81548173ffffffffffffffffffffffffffffffffffffffff021916908373ffffffffffffffffffffffffffffffffffffffff1602179055508173ffffffffffffffffffffffffffffffffffffffff168173ffffffffffffffffffffffffffffffffffffffff167f8be0079c531659141344cd1fd0a4f28419497f9722a3daafe3b4186f6b6457e060405160405180910390a35050565b610a918062005be383390190565b6000815190506200026c816200030b565b92915050565b6000602082840312156200028b576200028a62000306565b5b60006200029b848285016200025b565b91505092915050565b620002af81620002d2565b82525050565b6000602082019050620002cc6000830184620002a4565b92915050565b6000620002df82620002e6565b9050919050565b600073ffffffffffffffffffffffffffffffffffffffff82169050919050565b600080fd5b6200031681620002d2565b81146200032257600080fd5b50565b60805160601c61589f620003446000396000610dc3015261589f6000f3fe60806040523480156200001157600080fd5b50600436106200010c5760003560e01c8063a945320f11620000a5578063d3c6ec13116200006f578063d3c6ec131462000253578063d42afb561462000289578063d54c9d1614620002bf578063f2fde38b14620002cb576200010c565b8063a945320f14620001cf578063b37cc9f114620001db578063c3530ff41462000211578063c49986a51462000247576200010c565b8063449f77fb11620000e7578063449f77fb1462000175578063715018a61462000181578063771bd4ce146200018d5780638da5cb5b14620001ad576200010c565b806306575c891462000111578063270cb3eb146200013357806329ffe5e9146200013f575b600080fd5b6200011b620002eb565b6040516200012a9190620019a1565b60405180910390f35b6200013d620002f1565b005b6200015d600480360381019062000157919062001545565b62000582565b6040516200016c91906200173c565b60405180910390f35b6200017f620005c2565b005b6200018b620006d1565b005b620001ab6004803603810190620001a59190620013f6565b62000762565b005b620001b762000894565b604051620001c691906200173c565b60405180910390f35b620001d9620008bd565b005b620001f96004803603810190620001f39190620013f6565b62000b72565b604051620002089190620017d7565b60405180910390f35b6200022f600480360381019062000229919062001428565b62000b92565b6040516200023e91906200173c565b60405180910390f35b6200025162000be1565b005b6200027160048036038101906200026b91906200146f565b62000cd2565b6040516200028091906200173c565b60405180910390f35b620002a76004803603810190620002a19190620013f6565b62000f27565b604051620002b691906200173c565b60405180910390f35b620002c962000faf565b005b620002e96004803603810190620002e39190620013f6565b620010a0565b005b60085481565b620002fb620011a4565b73ffffffffffffffffffffffffffffffffffffffff166200031b62000894565b73ffffffffffffffffffffffffffffffffffffffff161462000374576040517f08c379a00000000000000000000000000000000000000000000000000000000081526004016200036b906200197f565b60405180910390fd5b73__$12cdf1fac25abe52b1eb298b32a4f32efb$__6388fa0a1f60036040518263ffffffff1660e01b8152600401620003ae91906200178d565b60006040518083038186803b158015620003c757600080fd5b505af4158015620003dc573d6000803e3d6000fd5b505050506000606060005b6003805490508110156200057d57600381815481106200040c576200040b62001b0d565b5b9060005260206000200160009054906101000a900473ffffffffffffffffffffffffffffffffffffffff1673ffffffffffffffffffffffffffffffffffffffff166040516024016040516020818303038152906040527fe4c9066b000000000000000000000000000000000000000000000000000000007bffffffffffffffffffffffffffffffffffffffffffffffffffffffff19166020820180517bffffffffffffffffffffffffffffffffffffffffffffffffffffffff8381831617835250505050604051620004df919062001723565b6000604051808303816000865af19150503d80600081146200051e576040519150601f19603f3d011682016040523d82523d6000602084013e62000523565b606091505b5080935081945050507f13848c3e38f8886f3f5d2ad9dff80d8092c2bbb8efd5b887a99c2c6cfc09ac2a83836040516200055f929190620017f4565b60405180910390a18080620005749062001a90565b915050620003e7565b505050565b600381815481106200059357600080fd5b906000526020600020016000915054906101000a900473ffffffffffffffffffffffffffffffffffffffff1681565b620005cc620011a4565b73ffffffffffffffffffffffffffffffffffffffff16620005ec62000894565b73ffffffffffffffffffffffffffffffffffffffff161462000645576040517f08c379a00000000000000000000000000000000000000000000000000000000081526004016200063c906200197f565b60405180910390fd5b73__$12cdf1fac25abe52b1eb298b32a4f32efb$__6335c83fd360036008546040518363ffffffff1660e01b815260040162000683929190620017aa565b60006040518083038186803b1580156200069c57600080fd5b505af4158015620006b1573d6000803e3d6000fd5b5050505060086000815480929190620006ca9062001a90565b9190505550565b620006db620011a4565b73ffffffffffffffffffffffffffffffffffffffff16620006fb62000894565b73ffffffffffffffffffffffffffffffffffffffff161462000754576040517f08c379a00000000000000000000000000000000000000000000000000000000081526004016200074b906200197f565b60405180910390fd5b620007606000620011ac565b565b600560003373ffffffffffffffffffffffffffffffffffffffff1673ffffffffffffffffffffffffffffffffffffffff16815260200190815260200160002060009054906101000a900460ff16620007f1576040517f08c379a0000000000000000000000000000000000000000000000000000000008152600401620007e8906200195d565b60405180910390fd5b600460008273ffffffffffffffffffffffffffffffffffffffff1673ffffffffffffffffffffffffffffffffffffffff168152602001908152602001600020339080600181540180825580915050600190039060005260206000200160009091909190916101000a81548173ffffffffffffffffffffffffffffffffffffffff021916908373ffffffffffffffffffffffffffffffffffffffff16021790555050565b60008060009054906101000a900473ffffffffffffffffffffffffffffffffffffffff16905090565b620008c7620011a4565b73ffffffffffffffffffffffffffffffffffffffff16620008e762000894565b73ffffffffffffffffffffffffffffffffffffffff161462000940576040517f08c379a000000000000000000000000000000000000000000000000000000000815260040162000937906200197f565b60405180910390fd5b62000964604051806060016040528060268152602001620058446026913962001270565b73__$12cdf1fac25abe52b1eb298b32a4f32efb$__630e2a112660036040518263ffffffff1660e01b81526004016200099e91906200178d565b60006040518083038186803b158015620009b757600080fd5b505af4158015620009cc573d6000803e3d6000fd5b505050506000606060005b60038054905081101562000b6d5760038181548110620009fc57620009fb62001b0d565b5b9060005260206000200160009054906101000a900473ffffffffffffffffffffffffffffffffffffffff1673ffffffffffffffffffffffffffffffffffffffff166040516024016040516020818303038152906040527f0655465a000000000000000000000000000000000000000000000000000000007bffffffffffffffffffffffffffffffffffffffffffffffffffffffff19166020820180517bffffffffffffffffffffffffffffffffffffffffffffffffffffffff838183161783525050505060405162000acf919062001723565b6000604051808303816000865af19150503d806000811462000b0e576040519150601f19603f3d011682016040523d82523d6000602084013e62000b13565b606091505b5080935081945050507f13848c3e38f8886f3f5d2ad9dff80d8092c2bbb8efd5b887a99c2c6cfc09ac2a838360405162000b4f929190620017f4565b60405180910390a1808062000b649062001a90565b915050620009d7565b505050565b60056020528060005260406000206000915054906101000a900460ff1681565b6004602052816000526040600020818154811062000baf57600080fd5b906000526020600020016000915091509054906101000a900473ffffffffffffffffffffffffffffffffffffffff1681565b62000beb620011a4565b73ffffffffffffffffffffffffffffffffffffffff1662000c0b62000894565b73ffffffffffffffffffffffffffffffffffffffff161462000c64576040517f08c379a000000000000000000000000000000000000000000000000000000000815260040162000c5b906200197f565b60405180910390fd5b73__$12cdf1fac25abe52b1eb298b32a4f32efb$__63c311d4f660036040518263ffffffff1660e01b815260040162000c9e91906200178d565b60006040518083038186803b15801562000cb757600080fd5b505af415801562000ccc573d6000803e3d6000fd5b50505050565b60008089898989878a600960009054906101000a900473ffffffffffffffffffffffffffffffffffffffff16600a60009054906101000a900473ffffffffffffffffffffffffffffffffffffffff168c308c60405160240162000d409b9a999897969594939291906200185e565b6040516020818303038152906040527f3c3ae13f000000000000000000000000000000000000000000000000000000007bffffffffffffffffffffffffffffffffffffffffffffffffffffffff19166020820180517bffffffffffffffffffffffffffffffffffffffffffffffffffffffff8381831617835250505050905060007f00000000000000000000000000000000000000000000000000000000000000008260405162000df19062001336565b62000dfe92919062001759565b604051809103906000f08015801562000e1b573d6000803e3d6000fd5b5090506003819080600181540180825580915050600190039060005260206000200160009091909190916101000a81548173ffffffffffffffffffffffffffffffffffffffff021916908373ffffffffffffffffffffffffffffffffffffffff1602179055506001600560008373ffffffffffffffffffffffffffffffffffffffff1673ffffffffffffffffffffffffffffffffffffffff16815260200190815260200160002060006101000a81548160ff0219169083151502179055507f6f41e080f0ba3b200797d7e512fbca5fa5d4b72f7d8fb62d6fb40997ea9679808b8b8360405162000f0e9392919062001828565b60405180910390a1809250505098975050505050505050565b6000808260405162000f399062001344565b62000f4591906200173c565b604051809103906000f08015801562000f62573d6000803e3d6000fd5b50905080600260006101000a81548173ffffffffffffffffffffffffffffffffffffffff021916908373ffffffffffffffffffffffffffffffffffffffff16021790555080915050919050565b62000fb9620011a4565b73ffffffffffffffffffffffffffffffffffffffff1662000fd962000894565b73ffffffffffffffffffffffffffffffffffffffff161462001032576040517f08c379a000000000000000000000000000000000000000000000000000000000815260040162001029906200197f565b60405180910390fd5b73__$12cdf1fac25abe52b1eb298b32a4f32efb$__63a71e139860036040518263ffffffff1660e01b81526004016200106c91906200178d565b60006040518083038186803b1580156200108557600080fd5b505af41580156200109a573d6000803e3d6000fd5b50505050565b620010aa620011a4565b73ffffffffffffffffffffffffffffffffffffffff16620010ca62000894565b73ffffffffffffffffffffffffffffffffffffffff161462001123576040517f08c379a00000000000000000000000000000000000000000000000000000000081526004016200111a906200197f565b60405180910390fd5b600073ffffffffffffffffffffffffffffffffffffffff168173ffffffffffffffffffffffffffffffffffffffff16141562001196576040517f08c379a00000000000000000000000000000000000000000000000000000000081526004016200118d906200193b565b60405180910390fd5b620011a181620011ac565b50565b600033905090565b60008060009054906101000a900473ffffffffffffffffffffffffffffffffffffffff169050816000806101000a81548173ffffffffffffffffffffffffffffffffffffffff021916908373ffffffffffffffffffffffffffffffffffffffff1602179055508173ffffffffffffffffffffffffffffffffffffffff168173ffffffffffffffffffffffffffffffffffffffff167f8be0079c531659141344cd1fd0a4f28419497f9722a3daafe3b4186f6b6457e060405160405180910390a35050565b6200130a8160405160240162001287919062001917565b6040516020818303038152906040527f41304fac000000000000000000000000000000000000000000000000000000007bffffffffffffffffffffffffffffffffffffffffffffffffffffffff19166020820180517bffffffffffffffffffffffffffffffffffffffffffffffffffffffff83818316178352505050506200130d565b50565b60008151905060006a636f6e736f6c652e6c6f679050602083016000808483855afa5050505050565b6131378062001c7c83390190565b610a918062004db383390190565b600081359050620013638162001c2d565b92915050565b6000813590506200137a8162001c47565b92915050565b60008083601f84011262001399576200139862001b41565b5b8235905067ffffffffffffffff811115620013b957620013b862001b3c565b5b602083019150836001820283011115620013d857620013d762001b46565b5b9250929050565b600081359050620013f08162001c61565b92915050565b6000602082840312156200140f576200140e62001b50565b5b60006200141f8482850162001352565b91505092915050565b6000806040838503121562001442576200144162001b50565b5b6000620014528582860162001352565b92505060206200146585828601620013df565b9150509250929050565b60008060008060008060008060e0898b03121562001492576200149162001b50565b5b600089013567ffffffffffffffff811115620014b357620014b262001b4b565b5b620014c18b828c0162001380565b98509850506020620014d68b828c01620013df565b9650506040620014e98b828c0162001369565b9550506060620014fc8b828c0162001352565b94505060806200150f8b828c0162001352565b93505060a0620015228b828c0162001352565b92505060c0620015358b828c0162001352565b9150509295985092959890939650565b6000602082840312156200155e576200155d62001b50565b5b60006200156e84828501620013df565b91505092915050565b620015828162001a01565b82525050565b8082525050565b6200159a8162001a15565b82525050565b6000620015ad82620019be565b620015b98185620019d4565b9350620015cb81856020860162001a5a565b620015d68162001b55565b840191505092915050565b6000620015ee82620019be565b620015fa8185620019e5565b93506200160c81856020860162001a5a565b80840191505092915050565b6000620016268385620019f0565b93506200163583858462001a4b565b620016408362001b55565b840190509392505050565b60006200165882620019c9565b620016648185620019f0565b93506200167681856020860162001a5a565b620016818162001b55565b840191505092915050565b60006200169b602683620019f0565b9150620016a88262001b66565b604082019050919050565b6000620016c2602483620019f0565b9150620016cf8262001bb5565b604082019050919050565b6000620016e9602083620019f0565b9150620016f68262001c04565b602082019050919050565b6200170c8162001a41565b82525050565b6200171d8162001a41565b82525050565b6000620017318284620015e1565b915081905092915050565b600060208201905062001753600083018462001577565b92915050565b600060408201905062001770600083018562001577565b8181036020830152620017848184620015a0565b90509392505050565b6000602082019050620017a4600083018462001588565b92915050565b6000604082019050620017c1600083018562001588565b620017d0602083018462001712565b9392505050565b6000602082019050620017ee60008301846200158f565b92915050565b60006040820190506200180b60008301856200158f565b81810360208301526200181f8184620015a0565b90509392505050565b600060408201905081810360008301526200184581858762001618565b905062001856602083018462001577565b949350505050565b60006101408201905081810360008301526200187c818d8f62001618565b90506200188d602083018c62001701565b6200189c604083018b6200158f565b620018ab606083018a62001577565b620018ba608083018962001577565b620018c960a083018862001577565b620018d860c083018762001577565b620018e760e083018662001577565b620018f761010083018562001577565b6200190761012083018462001577565b9c9b505050505050505050505050565b600060208201905081810360008301526200193381846200164b565b905092915050565b6000602082019050818103600083015262001956816200168c565b9050919050565b600060208201905081810360008301526200197881620016b3565b9050919050565b600060208201905081810360008301526200199a81620016da565b9050919050565b6000602082019050620019b8600083018462001701565b92915050565b600081519050919050565b600081519050919050565b600082825260208201905092915050565b600081905092915050565b600082825260208201905092915050565b600062001a0e8262001a21565b9050919050565b60008115159050919050565b600073ffffffffffffffffffffffffffffffffffffffff82169050919050565b6000819050919050565b82818337600083830152505050565b60005b8381101562001a7a57808201518184015260208101905062001a5d565b8381111562001a8a576000848401525b50505050565b600062001a9d8262001a41565b91507fffffffffffffffffffffffffffffffffffffffffffffffffffffffffffffffff82141562001ad35762001ad262001ade565b5b600182019050919050565b7f4e487b7100000000000000000000000000000000000000000000000000000000600052601160045260246000fd5b7f4e487b7100000000000000000000000000000000000000000000000000000000600052603260045260246000fd5b600080fd5b600080fd5b600080fd5b600080fd5b600080fd5b6000601f19601f8301169050919050565b7f4f776e61626c653a206e6577206f776e657220697320746865207a65726f206160008201527f6464726573730000000000000000000000000000000000000000000000000000602082015250565b7f43616c6c6572206973206e6f7420612076616c69642070726f7879206164647260008201527f6573732e00000000000000000000000000000000000000000000000000000000602082015250565b7f4f776e61626c653a2063616c6c6572206973206e6f7420746865206f776e6572600082015250565b62001c388162001a01565b811462001c4457600080fd5b50565b62001c528162001a15565b811462001c5e57600080fd5b50565b62001c6c8162001a41565b811462001c7857600080fd5b5056fe608060405260405162003137380380620031378339818101604052810190620000299190620006bb565b620000496200003d620000cf60201b60201c565b620000d760201b60201c565b60017fa3f0ad74e5423aebfd80d3ef4346578335a9a72aeaee59ff6cb3582b35133d5160001c6200007b919062000942565b60001b7fa3f0ad74e5423aebfd80d3ef4346578335a9a72aeaee59ff6cb3582b35133d5060001b14620000b357620000b262000a27565b5b620000c7828260006200019b60201b60201c565b505062000be0565b600033905090565b60008060009054906101000a900473ffffffffffffffffffffffffffffffffffffffff169050816000806101000a81548173ffffffffffffffffffffffffffffffffffffffff021916908373ffffffffffffffffffffffffffffffffffffffff1602179055508173ffffffffffffffffffffffffffffffffffffffff168173ffffffffffffffffffffffffffffffffffffffff167f8be0079c531659141344cd1fd0a4f28419497f9722a3daafe3b4186f6b6457e060405160405180910390a35050565b620001ac83620002a260201b60201c565b8273ffffffffffffffffffffffffffffffffffffffff167f1cf3b03a6cf19fa2baba4df148e9dcabedea7f8a5c07840e207e5c089be95d3e60405160405180910390a2600082511180620001fd5750805b156200029d576200029b8373ffffffffffffffffffffffffffffffffffffffff16635c60da1b6040518163ffffffff1660e01b815260040160206040518083038186803b1580156200024e57600080fd5b505afa15801562000263573d6000803e3d6000fd5b505050506040513d601f19601f8201168201806040525081019062000289919062000689565b836200045160201b620010a61760201c565b505b505050565b620002b8816200048760201b620010d31760201c565b620002fa576040517f08c379a0000000000000000000000000000000000000000000000000000000008152600401620002f1906200084b565b60405180910390fd5b620003918173ffffffffffffffffffffffffffffffffffffffff16635c60da1b6040518163ffffffff1660e01b815260040160206040518083038186803b1580156200034557600080fd5b505afa1580156200035a573d6000803e3d6000fd5b505050506040513d601f19601f8201168201806040525081019062000380919062000689565b6200048760201b620010d31760201c565b620003d3576040517f08c379a0000000000000000000000000000000000000000000000000000000008152600401620003ca906200088f565b60405180910390fd5b806200040d7fa3f0ad74e5423aebfd80d3ef4346578335a9a72aeaee59ff6cb3582b35133d5060001b6200049a60201b620010e61760201c565b60000160006101000a81548173ffffffffffffffffffffffffffffffffffffffff021916908373ffffffffffffffffffffffffffffffffffffffff16021790555050565b60606200047f83836040518060600160405280602781526020016200311060279139620004a460201b60201c565b905092915050565b600080823b905060008111915050919050565b6000819050919050565b6060620004b7846200048760201b60201c565b620004f9576040517f08c379a0000000000000000000000000000000000000000000000000000000008152600401620004f0906200086d565b60405180910390fd5b6000808573ffffffffffffffffffffffffffffffffffffffff16856040516200052391906200080e565b600060405180830381855af49150503d806000811462000560576040519150601f19603f3d011682016040523d82523d6000602084013e62000565565b606091505b50915091506200057d8282866200058860201b60201c565b925050509392505050565b606083156200059a57829050620005ed565b600083511115620005ae5782518084602001fd5b816040517f08c379a0000000000000000000000000000000000000000000000000000000008152600401620005e4919062000827565b60405180910390fd5b9392505050565b60006200060b6200060584620008da565b620008b1565b9050828152602081018484840111156200062a576200062962000ab9565b5b62000637848285620009bb565b509392505050565b600081519050620006508162000bc6565b92915050565b600082601f8301126200066e576200066d62000ab4565b5b815162000680848260208601620005f4565b91505092915050565b600060208284031215620006a257620006a162000ac3565b5b6000620006b2848285016200063f565b91505092915050565b60008060408385031215620006d557620006d462000ac3565b5b6000620006e5858286016200063f565b925050602083015167ffffffffffffffff81111562000709576200070862000abe565b5b620007178582860162000656565b9150509250929050565b60006200072e8262000910565b6200073a818562000926565b93506200074c818560208601620009bb565b80840191505092915050565b600062000765826200091b565b62000771818562000931565b935062000783818560208601620009bb565b6200078e8162000ac8565b840191505092915050565b6000620007a860258362000931565b9150620007b58262000ad9565b604082019050919050565b6000620007cf60268362000931565b9150620007dc8262000b28565b604082019050919050565b6000620007f660308362000931565b9150620008038262000b77565b604082019050919050565b60006200081c828462000721565b915081905092915050565b6000602082019050818103600083015262000843818462000758565b905092915050565b60006020820190508181036000830152620008668162000799565b9050919050565b600060208201905081810360008301526200088881620007c0565b9050919050565b60006020820190508181036000830152620008aa81620007e7565b9050919050565b6000620008bd620008d0565b9050620008cb8282620009f1565b919050565b6000604051905090565b600067ffffffffffffffff821115620008f857620008f762000a85565b5b620009038262000ac8565b9050602081019050919050565b600081519050919050565b600081519050919050565b600081905092915050565b600082825260208201905092915050565b60006200094f82620009b1565b91506200095c83620009b1565b92508282101562000972576200097162000a56565b5b828203905092915050565b60006200098a8262000991565b9050919050565b600073ffffffffffffffffffffffffffffffffffffffff82169050919050565b6000819050919050565b60005b83811015620009db578082015181840152602081019050620009be565b83811115620009eb576000848401525b50505050565b620009fc8262000ac8565b810181811067ffffffffffffffff8211171562000a1e5762000a1d62000a85565b5b80604052505050565b7f4e487b7100000000000000000000000000000000000000000000000000000000600052600160045260246000fd5b7f4e487b7100000000000000000000000000000000000000000000000000000000600052601160045260246000fd5b7f4e487b7100000000000000000000000000000000000000000000000000000000600052604160045260246000fd5b600080fd5b600080fd5b600080fd5b600080fd5b6000601f19601f8301169050919050565b7f455243313936373a206e657720626561636f6e206973206e6f74206120636f6e60008201527f7472616374000000000000000000000000000000000000000000000000000000602082015250565b7f416464726573733a2064656c65676174652063616c6c20746f206e6f6e2d636f60008201527f6e74726163740000000000000000000000000000000000000000000000000000602082015250565b7f455243313936373a20626561636f6e20696d706c656d656e746174696f6e206960008201527f73206e6f74206120636f6e747261637400000000000000000000000000000000602082015250565b62000bd1816200097d565b811462000bdd57600080fd5b50565b6125208062000bf06000396000f3fe6080604052600436106101845760003560e01c8063715018a6116100d157806393f3706c1161008a578063d547741f11610064578063d547741f146105d9578063dc9a153514610602578063e2ec6ec31461062d578063f2fde38b1461066a57610193565b806393f3706c146105465780639b19251a14610571578063a217fddf146105ae57610193565b8063715018a6146104345780637b9417c81461044b5780637eed33f114610488578063841abf6e146104b35780638da5cb5b146104de57806391d148541461050957610193565b8063286dd3f51161013e57806344eaa84e1161011857806344eaa84e1461038857806352e6e5f3146103b357806354fd4d50146103de57806360c7dc471461040957610193565b8063286dd3f5146102f95780632f2ff15d1461033657806336568abe1461035f57610193565b8062b2476f1461019d57806301ffc9a7146101c85780630c6f795914610205578063248a9ca31461024257806324953eaa1461027f578063267175db146102bc57610193565b3661019357610191610693565b005b61019b610693565b005b3480156101a957600080fd5b506101b26106ad565b6040516101bf9190611dce565b60405180910390f35b3480156101d457600080fd5b506101ef60048036038101906101ea9190611b57565b6106d3565b6040516101fc9190611de9565b60405180910390f35b34801561021157600080fd5b5061022c60048036038101906102279190611a61565b61074d565b6040516102399190611ee1565b60405180910390f35b34801561024e57600080fd5b5061026960048036038101906102649190611aea565b610775565b6040516102769190611e04565b60405180910390f35b34801561028b57600080fd5b506102a660048036038101906102a19190611aa1565b610795565b6040516102b39190611de9565b60405180910390f35b3480156102c857600080fd5b506102e360048036038101906102de9190611b84565b61087f565b6040516102f09190611dce565b60405180910390f35b34801561030557600080fd5b50610320600480360381019061031b9190611a07565b6108be565b60405161032d9190611de9565b60405180910390f35b34801561034257600080fd5b5061035d60048036038101906103589190611b17565b610a41565b005b34801561036b57600080fd5b5061038660048036038101906103819190611b17565b610a6a565b005b34801561039457600080fd5b5061039d610aed565b6040516103aa9190611ee1565b60405180910390f35b3480156103bf57600080fd5b506103c8610af7565b6040516103d59190611ee1565b60405180910390f35b3480156103ea57600080fd5b506103f3610afd565b6040516104009190611ee1565b60405180910390f35b34801561041557600080fd5b5061041e610b03565b60405161042b9190611ee1565b60405180910390f35b34801561044057600080fd5b50610449610b09565b005b34801561045757600080fd5b50610472600480360381019061046d9190611a07565b610b91565b60405161047f9190611de9565b60405180910390f35b34801561049457600080fd5b5061049d610d13565b6040516104aa9190611ee1565b60405180910390f35b3480156104bf57600080fd5b506104c8610d19565b6040516104d59190611e1f565b60405180910390f35b3480156104ea57600080fd5b506104f3610da7565b6040516105009190611dce565b60405180910390f35b34801561051557600080fd5b50610530600480360381019061052b9190611b17565b610dd0565b60405161053d9190611de9565b60405180910390f35b34801561055257600080fd5b5061055b610e3b565b6040516105689190611dce565b60405180910390f35b34801561057d57600080fd5b5061059860048036038101906105939190611a07565b610e61565b6040516105a59190611de9565b60405180910390f35b3480156105ba57600080fd5b506105c3610e81565b6040516105d09190611e04565b60405180910390f35b3480156105e557600080fd5b5061060060048036038101906105fb9190611b17565b610e88565b005b34801561060e57600080fd5b50610617610eb1565b6040516106249190611de9565b60405180910390f35b34801561063957600080fd5b50610654600480360381019061064f9190611aa1565b610ec4565b6040516106619190611de9565b60405180910390f35b34801561067657600080fd5b50610691600480360381019061068c9190611a07565b610fae565b005b61069b6110f0565b6106ab6106a66110f2565b61117e565b565b601260009054906101000a900473ffffffffffffffffffffffffffffffffffffffff1681565b60007f7965db0b000000000000000000000000000000000000000000000000000000007bffffffffffffffffffffffffffffffffffffffffffffffffffffffff1916827bffffffffffffffffffffffffffffffffffffffffffffffffffffffff191614806107465750610745826111a4565b5b9050919050565b600c602052816000526040600020816008811061076957600080fd5b01600091509150505481565b600060016000838152602001908152602001600020600101549050919050565b600061079f61120e565b73ffffffffffffffffffffffffffffffffffffffff166107bd610da7565b73ffffffffffffffffffffffffffffffffffffffff1614610813576040517f08c379a000000000000000000000000000000000000000000000000000000000815260040161080a90611e81565b60405180910390fd5b60005b82518110156108795761084283828151811061083557610834612253565b5b60200260200101516108be565b156108665760016003600082825461085a919061203a565b92505081905550600191505b8080610871906121ac565b915050610816565b50919050565b6009818154811061088f57600080fd5b906000526020600020016000915054906101000a900473ffffffffffffffffffffffffffffffffffffffff1681565b60006108c861120e565b73ffffffffffffffffffffffffffffffffffffffff166108e6610da7565b73ffffffffffffffffffffffffffffffffffffffff161461093c576040517f08c379a000000000000000000000000000000000000000000000000000000000815260040161093390611e81565b60405180910390fd5b600260008373ffffffffffffffffffffffffffffffffffffffff1673ffffffffffffffffffffffffffffffffffffffff16815260200190815260200160002060009054906101000a900460ff1615610a3c576000600260008473ffffffffffffffffffffffffffffffffffffffff1673ffffffffffffffffffffffffffffffffffffffff16815260200190815260200160002060006101000a81548160ff0219169083151502179055507ff1abf01a1043b7c244d128e8595cf0c1d10743b022b03a02dffd8ca3bf729f5a82604051610a159190611dce565b60405180910390a1600160036000828254610a30919061203a565b92505081905550600190505b919050565b610a4a82610775565b610a5b81610a5661120e565b611216565b610a6583836112b3565b505050565b610a7261120e565b73ffffffffffffffffffffffffffffffffffffffff168173ffffffffffffffffffffffffffffffffffffffff1614610adf576040517f08c379a0000000000000000000000000000000000000000000000000000000008152600401610ad690611ec1565b60405180910390fd5b610ae98282611393565b5050565b6000600354905090565b60085481565b60055481565b600f5481565b610b1161120e565b73ffffffffffffffffffffffffffffffffffffffff16610b2f610da7565b73ffffffffffffffffffffffffffffffffffffffff1614610b85576040517f08c379a0000000000000000000000000000000000000000000000000000000008152600401610b7c90611e81565b60405180910390fd5b610b8f6000611475565b565b6000610b9b61120e565b73ffffffffffffffffffffffffffffffffffffffff16610bb9610da7565b73ffffffffffffffffffffffffffffffffffffffff1614610c0f576040517f08c379a0000000000000000000000000000000000000000000000000000000008152600401610c0690611e81565b60405180910390fd5b600260008373ffffffffffffffffffffffffffffffffffffffff1673ffffffffffffffffffffffffffffffffffffffff16815260200190815260200160002060009054906101000a900460ff16610d0e576001600260008473ffffffffffffffffffffffffffffffffffffffff1673ffffffffffffffffffffffffffffffffffffffff16815260200190815260200160002060006101000a81548160ff0219169083151502179055507fd1bba68c128cc3f427e5831b3c6f99f480b6efa6b9e80c757768f6124158cc3f82604051610ce79190611dce565b60405180910390a1600160036000828254610d029190611f8a565b92505081905550600190505b919050565b60075481565b60068054610d2690612149565b80601f0160208091040260200160405190810160405280929190818152602001828054610d5290612149565b8015610d9f5780601f10610d7457610100808354040283529160200191610d9f565b820191906000526020600020905b815481529060010190602001808311610d8257829003601f168201915b505050505081565b60008060009054906101000a900473ffffffffffffffffffffffffffffffffffffffff16905090565b60006001600084815260200190815260200160002060000160008373ffffffffffffffffffffffffffffffffffffffff1673ffffffffffffffffffffffffffffffffffffffff16815260200190815260200160002060009054906101000a900460ff16905092915050565b601160009054906101000a900473ffffffffffffffffffffffffffffffffffffffff1681565b60026020528060005260406000206000915054906101000a900460ff1681565b6000801b81565b610e9182610775565b610ea281610e9d61120e565b611216565b610eac8383611393565b505050565b600460009054906101000a900460ff1681565b6000610ece61120e565b73ffffffffffffffffffffffffffffffffffffffff16610eec610da7565b73ffffffffffffffffffffffffffffffffffffffff1614610f42576040517f08c379a0000000000000000000000000000000000000000000000000000000008152600401610f3990611e81565b60405180910390fd5b60005b8251811015610fa857610f71838281518110610f6457610f63612253565b5b6020026020010151610b91565b15610f9557600160036000828254610f899190611f8a565b92505081905550600191505b8080610fa0906121ac565b915050610f45565b50919050565b610fb661120e565b73ffffffffffffffffffffffffffffffffffffffff16610fd4610da7565b73ffffffffffffffffffffffffffffffffffffffff161461102a576040517f08c379a000000000000000000000000000000000000000000000000000000000815260040161102190611e81565b60405180910390fd5b600073ffffffffffffffffffffffffffffffffffffffff168173ffffffffffffffffffffffffffffffffffffffff16141561109a576040517f08c379a000000000000000000000000000000000000000000000000000000000815260040161109190611e61565b60405180910390fd5b6110a381611475565b50565b60606110cb83836040518060600160405280602781526020016124c460279139611539565b905092915050565b600080823b905060008111915050919050565b6000819050919050565b565b60006110fc611606565b73ffffffffffffffffffffffffffffffffffffffff16635c60da1b6040518163ffffffff1660e01b815260040160206040518083038186803b15801561114157600080fd5b505afa158015611155573d6000803e3d6000fd5b505050506040513d601f19601f820116820180604052508101906111799190611a34565b905090565b3660008037600080366000845af43d6000803e806000811461119f573d6000f35b3d6000fd5b60007f01ffc9a7000000000000000000000000000000000000000000000000000000007bffffffffffffffffffffffffffffffffffffffffffffffffffffffff1916827bffffffffffffffffffffffffffffffffffffffffffffffffffffffff1916149050919050565b600033905090565b6112208282610dd0565b6112af576112458173ffffffffffffffffffffffffffffffffffffffff16601461165d565b6112538360001c602061165d565b604051602001611264929190611d94565b6040516020818303038152906040526040517f08c379a00000000000000000000000000000000000000000000000000000000081526004016112a69190611e1f565b60405180910390fd5b5050565b6112bd8282610dd0565b61138f57600180600084815260200190815260200160002060000160008373ffffffffffffffffffffffffffffffffffffffff1673ffffffffffffffffffffffffffffffffffffffff16815260200190815260200160002060006101000a81548160ff02191690831515021790555061133461120e565b73ffffffffffffffffffffffffffffffffffffffff168173ffffffffffffffffffffffffffffffffffffffff16837f2f8788117e7eff1d82e926ec794901d17c78024a50270940304540a733656f0d60405160405180910390a45b5050565b61139d8282610dd0565b156114715760006001600084815260200190815260200160002060000160008373ffffffffffffffffffffffffffffffffffffffff1673ffffffffffffffffffffffffffffffffffffffff16815260200190815260200160002060006101000a81548160ff02191690831515021790555061141661120e565b73ffffffffffffffffffffffffffffffffffffffff168173ffffffffffffffffffffffffffffffffffffffff16837ff6391f5c32d9c69d2a47ea670b442974b53935d1edc7fd64eb21e047a839171b60405160405180910390a45b5050565b60008060009054906101000a900473ffffffffffffffffffffffffffffffffffffffff169050816000806101000a81548173ffffffffffffffffffffffffffffffffffffffff021916908373ffffffffffffffffffffffffffffffffffffffff1602179055508173ffffffffffffffffffffffffffffffffffffffff168173ffffffffffffffffffffffffffffffffffffffff167f8be0079c531659141344cd1fd0a4f28419497f9722a3daafe3b4186f6b6457e060405160405180910390a35050565b6060611544846110d3565b611583576040517f08c379a000000000000000000000000000000000000000000000000000000000815260040161157a90611ea1565b60405180910390fd5b6000808573ffffffffffffffffffffffffffffffffffffffff16856040516115ab9190611d7d565b600060405180830381855af49150503d80600081146115e6576040519150601f19603f3d011682016040523d82523d6000602084013e6115eb565b606091505b50915091506115fb828286611899565b925050509392505050565b60006116347fa3f0ad74e5423aebfd80d3ef4346578335a9a72aeaee59ff6cb3582b35133d5060001b6110e6565b60000160009054906101000a900473ffffffffffffffffffffffffffffffffffffffff16905090565b6060600060028360026116709190611fe0565b61167a9190611f8a565b67ffffffffffffffff81111561169357611692612282565b5b6040519080825280601f01601f1916602001820160405280156116c55781602001600182028036833780820191505090505b5090507f3000000000000000000000000000000000000000000000000000000000000000816000815181106116fd576116fc612253565b5b60200101907effffffffffffffffffffffffffffffffffffffffffffffffffffffffffffff1916908160001a9053507f78000000000000000000000000000000000000000000000000000000000000008160018151811061176157611760612253565b5b60200101907effffffffffffffffffffffffffffffffffffffffffffffffffffffffffffff1916908160001a905350600060018460026117a19190611fe0565b6117ab9190611f8a565b90505b600181111561184b577f3031323334353637383961626364656600000000000000000000000000000000600f8616601081106117ed576117ec612253565b5b1a60f81b82828151811061180457611803612253565b5b60200101907effffffffffffffffffffffffffffffffffffffffffffffffffffffffffffff1916908160001a905350600485901c9450806118449061211f565b90506117ae565b506000841461188f576040517f08c379a000000000000000000000000000000000000000000000000000000000815260040161188690611e41565b60405180910390fd5b8091505092915050565b606083156118a9578290506118f9565b6000835111156118bc5782518084602001fd5b816040517f08c379a00000000000000000000000000000000000000000000000000000000081526004016118f09190611e1f565b60405180910390fd5b9392505050565b600061191361190e84611f21565b611efc565b90508083825260208201905082856020860282011115611936576119356122b6565b5b60005b85811015611966578161194c8882611970565b845260208401935060208301925050600181019050611939565b5050509392505050565b60008135905061197f81612467565b92915050565b60008151905061199481612467565b92915050565b600082601f8301126119af576119ae6122b1565b5b81356119bf848260208601611900565b91505092915050565b6000813590506119d78161247e565b92915050565b6000813590506119ec81612495565b92915050565b600081359050611a01816124ac565b92915050565b600060208284031215611a1d57611a1c6122c0565b5b6000611a2b84828501611970565b91505092915050565b600060208284031215611a4a57611a496122c0565b5b6000611a5884828501611985565b91505092915050565b60008060408385031215611a7857611a776122c0565b5b6000611a8685828601611970565b9250506020611a97858286016119f2565b9150509250929050565b600060208284031215611ab757611ab66122c0565b5b600082013567ffffffffffffffff811115611ad557611ad46122bb565b5b611ae18482850161199a565b91505092915050565b600060208284031215611b0057611aff6122c0565b5b6000611b0e848285016119c8565b91505092915050565b60008060408385031215611b2e57611b2d6122c0565b5b6000611b3c858286016119c8565b9250506020611b4d85828601611970565b9150509250929050565b600060208284031215611b6d57611b6c6122c0565b5b6000611b7b848285016119dd565b91505092915050565b600060208284031215611b9a57611b996122c0565b5b6000611ba8848285016119f2565b91505092915050565b611bba8161206e565b82525050565b611bc981612080565b82525050565b611bd88161208c565b82525050565b6000611be982611f4d565b611bf38185611f63565b9350611c038185602086016120ec565b80840191505092915050565b6000611c1a82611f58565b611c248185611f6e565b9350611c348185602086016120ec565b611c3d816122c5565b840191505092915050565b6000611c5382611f58565b611c5d8185611f7f565b9350611c6d8185602086016120ec565b80840191505092915050565b6000611c86602083611f6e565b9150611c91826122d6565b602082019050919050565b6000611ca9602683611f6e565b9150611cb4826122ff565b604082019050919050565b6000611ccc602083611f6e565b9150611cd78261234e565b602082019050919050565b6000611cef602683611f6e565b9150611cfa82612377565b604082019050919050565b6000611d12601783611f7f565b9150611d1d826123c6565b601782019050919050565b6000611d35601183611f7f565b9150611d40826123ef565b601182019050919050565b6000611d58602f83611f6e565b9150611d6382612418565b604082019050919050565b611d77816120e2565b82525050565b6000611d898284611bde565b915081905092915050565b6000611d9f82611d05565b9150611dab8285611c48565b9150611db682611d28565b9150611dc28284611c48565b91508190509392505050565b6000602082019050611de36000830184611bb1565b92915050565b6000602082019050611dfe6000830184611bc0565b92915050565b6000602082019050611e196000830184611bcf565b92915050565b60006020820190508181036000830152611e398184611c0f565b905092915050565b60006020820190508181036000830152611e5a81611c79565b9050919050565b60006020820190508181036000830152611e7a81611c9c565b9050919050565b60006020820190508181036000830152611e9a81611cbf565b9050919050565b60006020820190508181036000830152611eba81611ce2565b9050919050565b60006020820190508181036000830152611eda81611d4b565b9050919050565b6000602082019050611ef66000830184611d6e565b92915050565b6000611f06611f17565b9050611f12828261217b565b919050565b6000604051905090565b600067ffffffffffffffff821115611f3c57611f3b612282565b5b602082029050602081019050919050565b600081519050919050565b600081519050919050565b600081905092915050565b600082825260208201905092915050565b600081905092915050565b6000611f95826120e2565b9150611fa0836120e2565b9250827fffffffffffffffffffffffffffffffffffffffffffffffffffffffffffffffff03821115611fd557611fd46121f5565b5b828201905092915050565b6000611feb826120e2565b9150611ff6836120e2565b9250817fffffffffffffffffffffffffffffffffffffffffffffffffffffffffffffffff048311821515161561202f5761202e6121f5565b5b828202905092915050565b6000612045826120e2565b9150612050836120e2565b925082821015612063576120626121f5565b5b828203905092915050565b6000612079826120c2565b9050919050565b60008115159050919050565b6000819050919050565b60007fffffffff0000000000000000000000000000000000000000000000000000000082169050919050565b600073ffffffffffffffffffffffffffffffffffffffff82169050919050565b6000819050919050565b60005b8381101561210a5780820151818401526020810190506120ef565b83811115612119576000848401525b50505050565b600061212a826120e2565b9150600082141561213e5761213d6121f5565b5b600182039050919050565b6000600282049050600182168061216157607f821691505b6020821081141561217557612174612224565b5b50919050565b612184826122c5565b810181811067ffffffffffffffff821117156121a3576121a2612282565b5b80604052505050565b60006121b7826120e2565b91507fffffffffffffffffffffffffffffffffffffffffffffffffffffffffffffffff8214156121ea576121e96121f5565b5b600182019050919050565b7f4e487b7100000000000000000000000000000000000000000000000000000000600052601160045260246000fd5b7f4e487b7100000000000000000000000000000000000000000000000000000000600052602260045260246000fd5b7f4e487b7100000000000000000000000000000000000000000000000000000000600052603260045260246000fd5b7f4e487b7100000000000000000000000000000000000000000000000000000000600052604160045260246000fd5b600080fd5b600080fd5b600080fd5b600080fd5b6000601f19601f8301169050919050565b7f537472696e67733a20686578206c656e67746820696e73756666696369656e74600082015250565b7f4f776e61626c653a206e6577206f776e657220697320746865207a65726f206160008201527f6464726573730000000000000000000000000000000000000000000000000000602082015250565b7f4f776e61626c653a2063616c6c6572206973206e6f7420746865206f776e6572600082015250565b7f416464726573733a2064656c65676174652063616c6c20746f206e6f6e2d636f60008201527f6e74726163740000000000000000000000000000000000000000000000000000602082015250565b7f416363657373436f6e74726f6c3a206163636f756e7420000000000000000000600082015250565b7f206973206d697373696e6720726f6c6520000000000000000000000000000000600082015250565b7f416363657373436f6e74726f6c3a2063616e206f6e6c792072656e6f756e636560008201527f20726f6c657320666f722073656c660000000000000000000000000000000000602082015250565b6124708161206e565b811461247b57600080fd5b50565b6124878161208c565b811461249257600080fd5b50565b61249e81612096565b81146124a957600080fd5b50565b6124b5816120e2565b81146124c057600080fd5b5056fe416464726573733a206c6f772d6c6576656c2064656c65676174652063616c6c206661696c6564a2646970667358221220b7a3a51c63bfe143133462860b9f17304c597e63ad9a1096e879f6a91b7737ae64736f6c63430008070033416464726573733a206c6f772d6c6576656c2064656c65676174652063616c6c206661696c6564608060405234801561001057600080fd5b5060405162000a9138038062000a91833981810160405281019061003491906101ef565b61005061004561006560201b60201c565b61006d60201b60201c565b61005f8161013160201b60201c565b5061030d565b600033905090565b60008060009054906101000a900473ffffffffffffffffffffffffffffffffffffffff169050816000806101000a81548173ffffffffffffffffffffffffffffffffffffffff021916908373ffffffffffffffffffffffffffffffffffffffff1602179055508173ffffffffffffffffffffffffffffffffffffffff168173ffffffffffffffffffffffffffffffffffffffff167f8be0079c531659141344cd1fd0a4f28419497f9722a3daafe3b4186f6b6457e060405160405180910390a35050565b610144816101c760201b6103781760201c565b610183576040517f08c379a000000000000000000000000000000000000000000000000000000000815260040161017a9061023f565b60405180910390fd5b80600160006101000a81548173ffffffffffffffffffffffffffffffffffffffff021916908373ffffffffffffffffffffffffffffffffffffffff16021790555050565b600080823b905060008111915050919050565b6000815190506101e9816102f6565b92915050565b600060208284031215610205576102046102a2565b5b6000610213848285016101da565b91505092915050565b600061022960338361025f565b9150610234826102a7565b604082019050919050565b600060208201905081810360008301526102588161021c565b9050919050565b600082825260208201905092915050565b600061027b82610282565b9050919050565b600073ffffffffffffffffffffffffffffffffffffffff82169050919050565b600080fd5b7f5570677261646561626c65426561636f6e3a20696d706c656d656e746174696f60008201527f6e206973206e6f74206120636f6e747261637400000000000000000000000000602082015250565b6102ff81610270565b811461030a57600080fd5b50565b610774806200031d6000396000f3fe608060405234801561001057600080fd5b50600436106100575760003560e01c80633659cfe61461005c5780635c60da1b14610078578063715018a6146100965780638da5cb5b146100a0578063f2fde38b146100be575b600080fd5b610076600480360381019061007191906104f8565b6100da565b005b6100806101a5565b60405161008d919061059d565b60405180910390f35b61009e6101cf565b005b6100a8610257565b6040516100b5919061059d565b60405180910390f35b6100d860048036038101906100d391906104f8565b610280565b005b6100e261038b565b73ffffffffffffffffffffffffffffffffffffffff16610100610257565b73ffffffffffffffffffffffffffffffffffffffff1614610156576040517f08c379a000000000000000000000000000000000000000000000000000000000815260040161014d906105f8565b60405180910390fd5b61015f81610393565b8073ffffffffffffffffffffffffffffffffffffffff167fbc7cd75a20ee27fd9adebab32041f755214dbc6bffa90cc0225b39da2e5c2d3b60405160405180910390a250565b6000600160009054906101000a900473ffffffffffffffffffffffffffffffffffffffff16905090565b6101d761038b565b73ffffffffffffffffffffffffffffffffffffffff166101f5610257565b73ffffffffffffffffffffffffffffffffffffffff161461024b576040517f08c379a0000000000000000000000000000000000000000000000000000000008152600401610242906105f8565b60405180910390fd5b610255600061041f565b565b60008060009054906101000a900473ffffffffffffffffffffffffffffffffffffffff16905090565b61028861038b565b73ffffffffffffffffffffffffffffffffffffffff166102a6610257565b73ffffffffffffffffffffffffffffffffffffffff16146102fc576040517f08c379a00000000000000000000000000000000000000000000000000000000081526004016102f3906105f8565b60405180910390fd5b600073ffffffffffffffffffffffffffffffffffffffff168173ffffffffffffffffffffffffffffffffffffffff16141561036c576040517f08c379a0000000000000000000000000000000000000000000000000000000008152600401610363906105b8565b60405180910390fd5b6103758161041f565b50565b600080823b905060008111915050919050565b600033905090565b61039c81610378565b6103db576040517f08c379a00000000000000000000000000000000000000000000000000000000081526004016103d2906105d8565b60405180910390fd5b80600160006101000a81548173ffffffffffffffffffffffffffffffffffffffff021916908373ffffffffffffffffffffffffffffffffffffffff16021790555050565b60008060009054906101000a900473ffffffffffffffffffffffffffffffffffffffff169050816000806101000a81548173ffffffffffffffffffffffffffffffffffffffff021916908373ffffffffffffffffffffffffffffffffffffffff1602179055508173ffffffffffffffffffffffffffffffffffffffff168173ffffffffffffffffffffffffffffffffffffffff167f8be0079c531659141344cd1fd0a4f28419497f9722a3daafe3b4186f6b6457e060405160405180910390a35050565b6000813590506104f281610727565b92915050565b60006020828403121561050e5761050d61065b565b5b600061051c848285016104e3565b91505092915050565b61052e81610629565b82525050565b6000610541602683610618565b915061054c82610660565b604082019050919050565b6000610564603383610618565b915061056f826106af565b604082019050919050565b6000610587602083610618565b9150610592826106fe565b602082019050919050565b60006020820190506105b26000830184610525565b92915050565b600060208201905081810360008301526105d181610534565b9050919050565b600060208201905081810360008301526105f181610557565b9050919050565b600060208201905081810360008301526106118161057a565b9050919050565b600082825260208201905092915050565b60006106348261063b565b9050919050565b600073ffffffffffffffffffffffffffffffffffffffff82169050919050565b600080fd5b7f4f776e61626c653a206e6577206f776e657220697320746865207a65726f206160008201527f6464726573730000000000000000000000000000000000000000000000000000602082015250565b7f5570677261646561626c65426561636f6e3a20696d706c656d656e746174696f60008201527f6e206973206e6f74206120636f6e747261637400000000000000000000000000602082015250565b7f4f776e61626c653a2063616c6c6572206973206e6f7420746865206f776e6572600082015250565b61073081610629565b811461073b57600080fd5b5056fea2646970667358221220f14c1e123fc6650c2510ce92a5938ce8dbd619e20ec5ceb7ad4526f9ccdb6aca64736f6c6343000807003373657474696e67206c6561677565207363686564756c6520696e206c65616775656d616b6572a264697066735822122041ece80bc94245593c0f4b030471d463f15d38ad01df872e73e92142baa4275964736f6c63430008070033608060405234801561001057600080fd5b5060405162000a9138038062000a91833981810160405281019061003491906101ef565b61005061004561006560201b60201c565b61006d60201b60201c565b61005f8161013160201b60201c565b5061030d565b600033905090565b60008060009054906101000a900473ffffffffffffffffffffffffffffffffffffffff169050816000806101000a81548173ffffffffffffffffffffffffffffffffffffffff021916908373ffffffffffffffffffffffffffffffffffffffff1602179055508173ffffffffffffffffffffffffffffffffffffffff168173ffffffffffffffffffffffffffffffffffffffff167f8be0079c531659141344cd1fd0a4f28419497f9722a3daafe3b4186f6b6457e060405160405180910390a35050565b610144816101c760201b6103781760201c565b610183576040517f08c379a000000000000000000000000000000000000000000000000000000000815260040161017a9061023f565b60405180910390fd5b80600160006101000a81548173ffffffffffffffffffffffffffffffffffffffff021916908373ffffffffffffffffffffffffffffffffffffffff16021790555050565b600080823b905060008111915050919050565b6000815190506101e9816102f6565b92915050565b600060208284031215610205576102046102a2565b5b6000610213848285016101da565b91505092915050565b600061022960338361025f565b9150610234826102a7565b604082019050919050565b600060208201905081810360008301526102588161021c565b9050919050565b600082825260208201905092915050565b600061027b82610282565b9050919050565b600073ffffffffffffffffffffffffffffffffffffffff82169050919050565b600080fd5b7f5570677261646561626c65426561636f6e3a20696d706c656d656e746174696f60008201527f6e206973206e6f74206120636f6e747261637400000000000000000000000000602082015250565b6102ff81610270565b811461030a57600080fd5b50565b610774806200031d6000396000f3fe608060405234801561001057600080fd5b50600436106100575760003560e01c80633659cfe61461005c5780635c60da1b14610078578063715018a6146100965780638da5cb5b146100a0578063f2fde38b146100be575b600080fd5b610076600480360381019061007191906104f8565b6100da565b005b6100806101a5565b60405161008d919061059d565b60405180910390f35b61009e6101cf565b005b6100a8610257565b6040516100b5919061059d565b60405180910390f35b6100d860048036038101906100d391906104f8565b610280565b005b6100e261038b565b73ffffffffffffffffffffffffffffffffffffffff16610100610257565b73ffffffffffffffffffffffffffffffffffffffff1614610156576040517f08c379a000000000000000000000000000000000000000000000000000000000815260040161014d906105f8565b60405180910390fd5b61015f81610393565b8073ffffffffffffffffffffffffffffffffffffffff167fbc7cd75a20ee27fd9adebab32041f755214dbc6bffa90cc0225b39da2e5c2d3b60405160405180910390a250565b6000600160009054906101000a900473ffffffffffffffffffffffffffffffffffffffff16905090565b6101d761038b565b73ffffffffffffffffffffffffffffffffffffffff166101f5610257565b73ffffffffffffffffffffffffffffffffffffffff161461024b576040517f08c379a0000000000000000000000000000000000000000000000000000000008152600401610242906105f8565b60405180910390fd5b610255600061041f565b565b60008060009054906101000a900473ffffffffffffffffffffffffffffffffffffffff16905090565b61028861038b565b73ffffffffffffffffffffffffffffffffffffffff166102a6610257565b73ffffffffffffffffffffffffffffffffffffffff16146102fc576040517f08c379a00000000000000000000000000000000000000000000000000000000081526004016102f3906105f8565b60405180910390fd5b600073ffffffffffffffffffffffffffffffffffffffff168173ffffffffffffffffffffffffffffffffffffffff16141561036c576040517f08c379a0000000000000000000000000000000000000000000000000000000008152600401610363906105b8565b60405180910390fd5b6103758161041f565b50565b600080823b905060008111915050919050565b600033905090565b61039c81610378565b6103db576040517f08c379a00000000000000000000000000000000000000000000000000000000081526004016103d2906105d8565b60405180910390fd5b80600160006101000a81548173ffffffffffffffffffffffffffffffffffffffff021916908373ffffffffffffffffffffffffffffffffffffffff16021790555050565b60008060009054906101000a900473ffffffffffffffffffffffffffffffffffffffff169050816000806101000a81548173ffffffffffffffffffffffffffffffffffffffff021916908373ffffffffffffffffffffffffffffffffffffffff1602179055508173ffffffffffffffffffffffffffffffffffffffff168173ffffffffffffffffffffffffffffffffffffffff167f8be0079c531659141344cd1fd0a4f28419497f9722a3daafe3b4186f6b6457e060405160405180910390a35050565b6000813590506104f281610727565b92915050565b60006020828403121561050e5761050d61065b565b5b600061051c848285016104e3565b91505092915050565b61052e81610629565b82525050565b6000610541602683610618565b915061054c82610660565b604082019050919050565b6000610564603383610618565b915061056f826106af565b604082019050919050565b6000610587602083610618565b9150610592826106fe565b602082019050919050565b60006020820190506105b26000830184610525565b92915050565b600060208201905081810360008301526105d181610534565b9050919050565b600060208201905081810360008301526105f181610557565b9050919050565b600060208201905081810360008301526106118161057a565b9050919050565b600082825260208201905092915050565b60006106348261063b565b9050919050565b600073ffffffffffffffffffffffffffffffffffffffff82169050919050565b600080fd5b7f4f776e61626c653a206e6577206f776e657220697320746865207a65726f206160008201527f6464726573730000000000000000000000000000000000000000000000000000602082015250565b7f5570677261646561626c65426561636f6e3a20696d706c656d656e746174696f60008201527f6e206973206e6f74206120636f6e747261637400000000000000000000000000602082015250565b7f4f776e61626c653a2063616c6c6572206973206e6f7420746865206f776e6572600082015250565b61073081610629565b811461073b57600080fd5b5056fea2646970667358221220f14c1e123fc6650c2510ce92a5938ce8dbd619e20ec5ceb7ad4526f9ccdb6aca64736f6c63430008070033",
  "linkReferences": {
    "contracts/LeagueMakerLibrary.sol": {
      "LeagueMakerLibrary": [
        {
          "length": 20,
          "start": 1722
        },
        {
          "length": 20,
          "start": 2443
        },
        {
          "length": 20,
          "start": 3242
        },
        {
          "length": 20,
          "start": 4010
        },
        {
          "length": 20,
          "start": 4984
        }
      ]
    }
  },
  "deployedLinkReferences": {
    "contracts/LeagueMakerLibrary.sol": {
      "LeagueMakerLibrary": [
        {
          "length": 20,
          "start": 886
        },
        {
          "length": 20,
          "start": 1607
        },
        {
          "length": 20,
          "start": 2406
        },
        {
          "length": 20,
          "start": 3174
        },
        {
          "length": 20,
          "start": 4148
        }
      ]
    }
  }
}