{
  "_format": "hh-sol-artifact-1",
  "contractName": "LeagueMaker",
  "sourceName": "contracts/LeagueMaker.sol",
  "abi": [
    {
      "inputs": [
        {
          "internalType": "address",
          "name": "_logic",
          "type": "address"
        }
      ],
      "stateMutability": "nonpayable",
      "type": "constructor"
    },
    {
      "anonymous": false,
      "inputs": [
        {
          "indexed": false,
          "internalType": "string",
          "name": "name",
          "type": "string"
        },
        {
          "indexed": false,
          "internalType": "address",
          "name": "proxyAddress",
          "type": "address"
        },
        {
          "indexed": false,
          "internalType": "address",
          "name": "proxyAdminAddress",
          "type": "address"
        },
        {
          "indexed": false,
          "internalType": "address[]",
          "name": "initialWhitelistAddresses",
          "type": "address[]"
        }
      ],
      "name": "LeagueCreated",
      "type": "event"
    },
    {
      "anonymous": false,
      "inputs": [
        {
          "indexed": true,
          "internalType": "address",
          "name": "previousOwner",
          "type": "address"
        },
        {
          "indexed": true,
          "internalType": "address",
          "name": "newOwner",
          "type": "address"
        }
      ],
      "name": "OwnershipTransferred",
      "type": "event"
    },
    {
      "anonymous": false,
      "inputs": [
        {
          "indexed": false,
          "internalType": "bool",
          "name": "success",
          "type": "bool"
        },
        {
          "indexed": false,
          "internalType": "bytes",
          "name": "data",
          "type": "bytes"
        }
      ],
      "name": "Response",
      "type": "event"
    },
    {
      "inputs": [
        {
          "internalType": "string",
          "name": "_name",
          "type": "string"
        },
        {
          "internalType": "uint256",
          "name": "_stakeAmount",
          "type": "uint256"
        },
        {
          "internalType": "bool",
          "name": "_isPublic",
          "type": "bool"
        },
        {
          "internalType": "address",
          "name": "_admin",
          "type": "address"
        },
        {
          "internalType": "address",
          "name": "_erc20Address",
          "type": "address"
        },
        {
          "internalType": "address",
          "name": "_athletesContractAddress",
          "type": "address"
        },
        {
          "internalType": "address",
          "name": "_gameItemsContractAddress",
          "type": "address"
        },
        {
          "internalType": "address[]",
          "name": "_whitelistUsers",
          "type": "address[]"
        }
      ],
      "name": "createLeague",
      "outputs": [
        {
          "internalType": "address",
          "name": "",
          "type": "address"
        }
      ],
      "stateMutability": "nonpayable",
      "type": "function"
    },
    {
      "inputs": [],
      "name": "currentWeek",
      "outputs": [
        {
          "internalType": "uint256",
          "name": "",
          "type": "uint256"
        }
      ],
      "stateMutability": "view",
      "type": "function"
    },
    {
      "inputs": [],
      "name": "getLeagueAddresses",
      "outputs": [
        {
          "internalType": "address[]",
          "name": "",
          "type": "address[]"
        }
      ],
      "stateMutability": "view",
      "type": "function"
    },
    {
      "inputs": [],
      "name": "incrementCurrentWeek",
      "outputs": [],
      "stateMutability": "nonpayable",
      "type": "function"
    },
    {
      "inputs": [
        {
          "internalType": "address",
          "name": "",
          "type": "address"
        }
      ],
      "name": "isProxyMap",
      "outputs": [
        {
          "internalType": "bool",
          "name": "",
          "type": "bool"
        }
      ],
      "stateMutability": "view",
      "type": "function"
    },
    {
      "inputs": [
        {
          "internalType": "uint256",
          "name": "",
          "type": "uint256"
        }
      ],
      "name": "leagueAddresses",
      "outputs": [
        {
          "internalType": "address",
          "name": "",
          "type": "address"
        }
      ],
      "stateMutability": "view",
      "type": "function"
    },
    {
      "inputs": [],
      "name": "owner",
      "outputs": [
        {
          "internalType": "address",
          "name": "",
          "type": "address"
        }
      ],
      "stateMutability": "view",
      "type": "function"
    },
    {
      "inputs": [],
      "name": "renounceOwnership",
      "outputs": [],
      "stateMutability": "nonpayable",
      "type": "function"
    },
    {
      "inputs": [
        {
          "internalType": "address",
          "name": "logic",
          "type": "address"
        }
      ],
      "name": "setBeacon",
      "outputs": [
        {
          "internalType": "address",
          "name": "",
          "type": "address"
        }
      ],
      "stateMutability": "nonpayable",
      "type": "function"
    },
    {
      "inputs": [
        {
          "internalType": "address",
          "name": "newOwner",
          "type": "address"
        }
      ],
      "name": "transferOwnership",
      "outputs": [],
      "stateMutability": "nonpayable",
      "type": "function"
    },
    {
      "inputs": [
        {
          "internalType": "address",
          "name": "user",
          "type": "address"
        }
      ],
      "name": "updateUserToLeagueMapping",
      "outputs": [],
      "stateMutability": "nonpayable",
      "type": "function"
    },
    {
      "inputs": [
        {
          "internalType": "address",
          "name": "",
          "type": "address"
        },
        {
          "internalType": "uint256",
          "name": "",
          "type": "uint256"
        }
      ],
      "name": "userToLeagueMap",
      "outputs": [
        {
          "internalType": "address",
          "name": "",
          "type": "address"
        }
      ],
      "stateMutability": "view",
      "type": "function"
    }
  ],
  "bytecode": "0x60c060405260086007556000600855732791bca1f2de4661ed88a30c99a7a9449aa84174600960006101000a81548173ffffffffffffffffffffffffffffffffffffffff021916908373ffffffffffffffffffffffffffffffffffffffff16021790555073eb8f08a975ab53e34d8a0330e0d34de942c95926600a60006101000a81548173ffffffffffffffffffffffffffffffffffffffff021916908373ffffffffffffffffffffffffffffffffffffffff160217905550348015620000c557600080fd5b5060405162005da038038062005da08339818101604052810190620000eb9190620002a9565b6200010b620000ff620001b860201b60201c565b620001c060201b60201c565b806040516200011a9062000284565b620001269190620002ec565b604051809103906000f08015801562000143573d6000803e3d6000fd5b5073ffffffffffffffffffffffffffffffffffffffff1660808173ffffffffffffffffffffffffffffffffffffffff1660601b815250503373ffffffffffffffffffffffffffffffffffffffff1660a08173ffffffffffffffffffffffffffffffffffffffff1660601b81525050506200035c565b600033905090565b60008060009054906101000a900473ffffffffffffffffffffffffffffffffffffffff169050816000806101000a81548173ffffffffffffffffffffffffffffffffffffffff021916908373ffffffffffffffffffffffffffffffffffffffff1602179055508173ffffffffffffffffffffffffffffffffffffffff168173ffffffffffffffffffffffffffffffffffffffff167f8be0079c531659141344cd1fd0a4f28419497f9722a3daafe3b4186f6b6457e060405160405180910390a35050565b610a91806200530f83390190565b600081519050620002a38162000342565b92915050565b600060208284031215620002c257620002c16200033d565b5b6000620002d28482850162000292565b91505092915050565b620002e68162000309565b82525050565b6000602082019050620003036000830184620002db565b92915050565b600062000316826200031d565b9050919050565b600073ffffffffffffffffffffffffffffffffffffffff82169050919050565b600080fd5b6200034d8162000309565b81146200035957600080fd5b50565b60805160601c60a05160601c614f806200038f6000396000818161042701526109af015260006104e50152614f806000f3fe60806040523480156200001157600080fd5b5060043610620000c45760003560e01c80639c77955b116200007b5780639c77955b14620001a5578063a69b331814620001c7578063b37cc9f114620001d3578063c3530ff41462000209578063d42afb56146200023f578063f2fde38b146200027557620000c4565b806306575c8914620000c95780630b792e4814620000eb57806329ffe5e91462000121578063715018a61462000157578063771bd4ce14620001635780638da5cb5b1462000183575b600080fd5b620000d362000295565b604051620000e2919062001538565b60405180910390f35b62000109600480360381019062000103919062000ed0565b6200029b565b604051620001189190620012d3565b60405180910390f35b6200013f600480360381019062000139919062000fe0565b620006f1565b6040516200014e9190620012d3565b60405180910390f35b6200016162000731565b005b6200018160048036038101906200017b919062000e57565b620007c2565b005b6200018d620008f4565b6040516200019c9190620012d3565b60405180910390f35b620001af6200091d565b604051620001be919062001324565b60405180910390f35b620001d1620009ad565b005b620001f16004803603810190620001eb919062000e57565b62000a5a565b60405162000200919062001348565b60405180910390f35b62000227600480360381019062000221919062000e89565b62000a7a565b604051620002369190620012d3565b60405180910390f35b6200025d600480360381019062000257919062000e57565b62000ac9565b6040516200026c9190620012d3565b60405180910390f35b6200029360048036038101906200028d919062000e57565b62000b51565b005b60085481565b60006064891115620002e4576040517f08c379a0000000000000000000000000000000000000000000000000000000008152600401620002db9062001516565b60405180910390fd5b85600160006101000a81548173ffffffffffffffffffffffffffffffffffffffff021916908373ffffffffffffffffffffffffffffffffffffffff16021790555088600160009054906101000a900473ffffffffffffffffffffffffffffffffffffffff1673ffffffffffffffffffffffffffffffffffffffff166370a08231336040518263ffffffff1660e01b8152600401620003839190620012d3565b60206040518083038186803b1580156200039c57600080fd5b505afa158015620003b1573d6000803e3d6000fd5b505050506040513d601f19601f82011682018060405250810190620003d7919062001012565b10156200041b576040517f08c379a000000000000000000000000000000000000000000000000000000000815260040162000412906200148e565b60405180910390fd5b60008b8b8b8b898c8c8b7f000000000000000000000000000000000000000000000000000000000000000030604051602401620004629a99989796959493929190620013c4565b6040516020818303038152906040527f989db659000000000000000000000000000000000000000000000000000000007bffffffffffffffffffffffffffffffffffffffffffffffffffffffff19166020820180517bffffffffffffffffffffffffffffffffffffffffffffffffffffffff8381831617835250505050905060007f000000000000000000000000000000000000000000000000000000000000000082604051620005139062000d21565b62000520929190620012f0565b604051809103906000f0801580156200053d573d6000803e3d6000fd5b5090506003819080600181540180825580915050600190039060005260206000200160009091909190916101000a81548173ffffffffffffffffffffffffffffffffffffffff021916908373ffffffffffffffffffffffffffffffffffffffff160217905550600460003373ffffffffffffffffffffffffffffffffffffffff1673ffffffffffffffffffffffffffffffffffffffff168152602001908152602001600020819080600181540180825580915050600190039060005260206000200160009091909190916101000a81548173ffffffffffffffffffffffffffffffffffffffff021916908373ffffffffffffffffffffffffffffffffffffffff1602179055506001600560008373ffffffffffffffffffffffffffffffffffffffff1673ffffffffffffffffffffffffffffffffffffffff16815260200190815260200160002060006101000a81548160ff0219169083151502179055507f55f20cc44cd266564ce419a146a1cafd9b19bb2e68a296cb675fa17bed72724c8d8d838c8989604051620006d69695949392919062001365565b60405180910390a180925050509a9950505050505050505050565b600381815481106200070257600080fd5b906000526020600020016000915054906101000a900473ffffffffffffffffffffffffffffffffffffffff1681565b6200073b62000c55565b73ffffffffffffffffffffffffffffffffffffffff166200075b620008f4565b73ffffffffffffffffffffffffffffffffffffffff1614620007b4576040517f08c379a0000000000000000000000000000000000000000000000000000000008152600401620007ab90620014d2565b60405180910390fd5b620007c0600062000c5d565b565b600560003373ffffffffffffffffffffffffffffffffffffffff1673ffffffffffffffffffffffffffffffffffffffff16815260200190815260200160002060009054906101000a900460ff1662000851576040517f08c379a00000000000000000000000000000000000000000000000000000000081526004016200084890620014b0565b60405180910390fd5b600460008273ffffffffffffffffffffffffffffffffffffffff1673ffffffffffffffffffffffffffffffffffffffff168152602001908152602001600020339080600181540180825580915050600190039060005260206000200160009091909190916101000a81548173ffffffffffffffffffffffffffffffffffffffff021916908373ffffffffffffffffffffffffffffffffffffffff16021790555050565b60008060009054906101000a900473ffffffffffffffffffffffffffffffffffffffff16905090565b60606003805480602002602001604051908101604052809291908181526020018280548015620009a357602002820191906000526020600020905b8160009054906101000a900473ffffffffffffffffffffffffffffffffffffffff1673ffffffffffffffffffffffffffffffffffffffff168152602001906001019080831162000958575b5050505050905090565b7f000000000000000000000000000000000000000000000000000000000000000073ffffffffffffffffffffffffffffffffffffffff163373ffffffffffffffffffffffffffffffffffffffff161462000a3e576040517f08c379a000000000000000000000000000000000000000000000000000000000815260040162000a3590620014f4565b60405180910390fd5b6008600081548092919062000a53906200167a565b9190505550565b60056020528060005260406000206000915054906101000a900460ff1681565b6004602052816000526040600020818154811062000a9757600080fd5b906000526020600020016000915091509054906101000a900473ffffffffffffffffffffffffffffffffffffffff1681565b6000808260405162000adb9062000d2f565b62000ae79190620012d3565b604051809103906000f08015801562000b04573d6000803e3d6000fd5b50905080600260006101000a81548173ffffffffffffffffffffffffffffffffffffffff021916908373ffffffffffffffffffffffffffffffffffffffff16021790555080915050919050565b62000b5b62000c55565b73ffffffffffffffffffffffffffffffffffffffff1662000b7b620008f4565b73ffffffffffffffffffffffffffffffffffffffff161462000bd4576040517f08c379a000000000000000000000000000000000000000000000000000000000815260040162000bcb90620014d2565b60405180910390fd5b600073ffffffffffffffffffffffffffffffffffffffff168173ffffffffffffffffffffffffffffffffffffffff16141562000c47576040517f08c379a000000000000000000000000000000000000000000000000000000000815260040162000c3e906200146c565b60405180910390fd5b62000c528162000c5d565b50565b600033905090565b60008060009054906101000a900473ffffffffffffffffffffffffffffffffffffffff169050816000806101000a81548173ffffffffffffffffffffffffffffffffffffffff021916908373ffffffffffffffffffffffffffffffffffffffff1602179055508173ffffffffffffffffffffffffffffffffffffffff168173ffffffffffffffffffffffffffffffffffffffff167f8be0079c531659141344cd1fd0a4f28419497f9722a3daafe3b4186f6b6457e060405160405180910390a35050565b612b96806200192483390190565b610a9180620044ba83390190565b60008135905062000d4e81620018d5565b92915050565b60008083601f84011262000d6d5762000d6c620016fc565b5b8235905067ffffffffffffffff81111562000d8d5762000d8c620016f7565b5b60208301915083602082028301111562000dac5762000dab62001701565b5b9250929050565b60008135905062000dc481620018ef565b92915050565b60008083601f84011262000de35762000de2620016fc565b5b8235905067ffffffffffffffff81111562000e035762000e02620016f7565b5b60208301915083600182028301111562000e225762000e2162001701565b5b9250929050565b60008135905062000e3a8162001909565b92915050565b60008151905062000e518162001909565b92915050565b60006020828403121562000e705762000e6f6200170b565b5b600062000e808482850162000d3d565b91505092915050565b6000806040838503121562000ea35762000ea26200170b565b5b600062000eb38582860162000d3d565b925050602062000ec68582860162000e29565b9150509250929050565b6000806000806000806000806000806101008b8d03121562000ef75762000ef66200170b565b5b60008b013567ffffffffffffffff81111562000f185762000f1762001706565b5b62000f268d828e0162000dca565b9a509a5050602062000f3b8d828e0162000e29565b985050604062000f4e8d828e0162000db3565b975050606062000f618d828e0162000d3d565b965050608062000f748d828e0162000d3d565b95505060a062000f878d828e0162000d3d565b94505060c062000f9a8d828e0162000d3d565b93505060e08b013567ffffffffffffffff81111562000fbe5762000fbd62001706565b5b62000fcc8d828e0162000d54565b92509250509295989b9194979a5092959850565b60006020828403121562000ff95762000ff86200170b565b5b6000620010098482850162000e29565b91505092915050565b6000602082840312156200102b576200102a6200170b565b5b60006200103b8482850162000e40565b91505092915050565b60006200105283836200105e565b60208301905092915050565b6200106981620015eb565b82525050565b6200107a81620015eb565b82525050565b60006200108e83856200159f565b93506200109b8262001555565b8060005b85811015620010dc57620010b48284620015d2565b620010c0888262001044565b9750620010cd8362001585565b9250506001810190506200109f565b5085925050509392505050565b6000620010f6826200156f565b6200110281856200159f565b93506200110f836200155f565b8060005b83811015620011465781516200112a888262001044565b9750620011378362001592565b92505060018101905062001113565b5085935050505092915050565b6200115e81620015ff565b82525050565b600062001171826200157a565b6200117d8185620015b0565b93506200118f81856020860162001644565b6200119a8162001710565b840191505092915050565b6000620011b38385620015c1565b9350620011c283858462001635565b620011cd8362001710565b840190509392505050565b6000620011e7602683620015c1565b9150620011f48262001721565b604082019050919050565b60006200120e604683620015c1565b91506200121b8262001770565b606082019050919050565b600062001235602483620015c1565b91506200124282620017e5565b604082019050919050565b60006200125c602083620015c1565b9150620012698262001834565b602082019050919050565b600062001283601683620015c1565b915062001290826200185d565b602082019050919050565b6000620012aa602583620015c1565b9150620012b78262001886565b604082019050919050565b620012cd816200162b565b82525050565b6000602082019050620012ea60008301846200106f565b92915050565b60006040820190506200130760008301856200106f565b81810360208301526200131b818462001164565b90509392505050565b60006020820190508181036000830152620013408184620010e9565b905092915050565b60006020820190506200135f600083018462001153565b92915050565b600060808201905081810360008301526200138281888a620011a5565b90506200139360208301876200106f565b620013a260408301866200106f565b8181036060830152620013b781848662001080565b9050979650505050505050565b6000610120820190508181036000830152620013e2818c8e620011a5565b9050620013f3602083018b620012c2565b62001402604083018a62001153565b6200141160608301896200106f565b6200142060808301886200106f565b6200142f60a08301876200106f565b6200143e60c08301866200106f565b6200144d60e08301856200106f565b6200145d6101008301846200106f565b9b9a5050505050505050505050565b600060208201905081810360008301526200148781620011d8565b9050919050565b60006020820190508181036000830152620014a981620011ff565b9050919050565b60006020820190508181036000830152620014cb8162001226565b9050919050565b60006020820190508181036000830152620014ed816200124d565b9050919050565b600060208201905081810360008301526200150f8162001274565b9050919050565b6000602082019050818103600083015262001531816200129b565b9050919050565b60006020820190506200154f6000830184620012c2565b92915050565b6000819050919050565b6000819050602082019050919050565b600081519050919050565b600081519050919050565b6000602082019050919050565b6000602082019050919050565b600082825260208201905092915050565b600082825260208201905092915050565b600082825260208201905092915050565b6000620015e3602084018462000d3d565b905092915050565b6000620015f8826200160b565b9050919050565b60008115159050919050565b600073ffffffffffffffffffffffffffffffffffffffff82169050919050565b6000819050919050565b82818337600083830152505050565b60005b838110156200166457808201518184015260208101905062001647565b8381111562001674576000848401525b50505050565b600062001687826200162b565b91507fffffffffffffffffffffffffffffffffffffffffffffffffffffffffffffffff821415620016bd57620016bc620016c8565b5b600182019050919050565b7f4e487b7100000000000000000000000000000000000000000000000000000000600052601160045260246000fd5b600080fd5b600080fd5b600080fd5b600080fd5b600080fd5b6000601f19601f8301169050919050565b7f4f776e61626c653a206e6577206f776e657220697320746865207a65726f206160008201527f6464726573730000000000000000000000000000000000000000000000000000602082015250565b7f43726561746f72206f66206c6561677565206e6565647320656e6f756768205560008201527f5344432028657175616c20746f20737065636966696564207374616b6520616d60208201527f6f756e74292e0000000000000000000000000000000000000000000000000000604082015250565b7f43616c6c6572206973206e6f7420612076616c69642070726f7879206164647260008201527f6573732e00000000000000000000000000000000000000000000000000000000602082015250565b7f4f776e61626c653a2063616c6c6572206973206e6f7420746865206f776e6572600082015250565b7f43616c6c6572206973206e6f74205465616d4469666600000000000000000000600082015250565b7f4c6561677565207374616b6520616d6f756e74206d7573742062652062656c6f60008201527f7720313030000000000000000000000000000000000000000000000000000000602082015250565b620018e081620015eb565b8114620018ec57600080fd5b50565b620018fa81620015ff565b81146200190657600080fd5b50565b62001914816200162b565b81146200192057600080fd5b5056fe608060405260405162002b9638038062002b968339818101604052810190620000299190620006bb565b620000496200003d620000cf60201b60201c565b620000d760201b60201c565b60017fa3f0ad74e5423aebfd80d3ef4346578335a9a72aeaee59ff6cb3582b35133d5160001c6200007b919062000942565b60001b7fa3f0ad74e5423aebfd80d3ef4346578335a9a72aeaee59ff6cb3582b35133d5060001b14620000b357620000b262000a27565b5b620000c7828260006200019b60201b60201c565b505062000be0565b600033905090565b60008060009054906101000a900473ffffffffffffffffffffffffffffffffffffffff169050816000806101000a81548173ffffffffffffffffffffffffffffffffffffffff021916908373ffffffffffffffffffffffffffffffffffffffff1602179055508173ffffffffffffffffffffffffffffffffffffffff168173ffffffffffffffffffffffffffffffffffffffff167f8be0079c531659141344cd1fd0a4f28419497f9722a3daafe3b4186f6b6457e060405160405180910390a35050565b620001ac83620002a260201b60201c565b8273ffffffffffffffffffffffffffffffffffffffff167f1cf3b03a6cf19fa2baba4df148e9dcabedea7f8a5c07840e207e5c089be95d3e60405160405180910390a2600082511180620001fd5750805b156200029d576200029b8373ffffffffffffffffffffffffffffffffffffffff16635c60da1b6040518163ffffffff1660e01b815260040160206040518083038186803b1580156200024e57600080fd5b505afa15801562000263573d6000803e3d6000fd5b505050506040513d601f19601f8201168201806040525081019062000289919062000689565b836200045160201b62000c5e1760201c565b505b505050565b620002b8816200048760201b62000c8b1760201c565b620002fa576040517f08c379a0000000000000000000000000000000000000000000000000000000008152600401620002f1906200084b565b60405180910390fd5b620003918173ffffffffffffffffffffffffffffffffffffffff16635c60da1b6040518163ffffffff1660e01b815260040160206040518083038186803b1580156200034557600080fd5b505afa1580156200035a573d6000803e3d6000fd5b505050506040513d601f19601f8201168201806040525081019062000380919062000689565b6200048760201b62000c8b1760201c565b620003d3576040517f08c379a0000000000000000000000000000000000000000000000000000000008152600401620003ca906200088f565b60405180910390fd5b806200040d7fa3f0ad74e5423aebfd80d3ef4346578335a9a72aeaee59ff6cb3582b35133d5060001b6200049a60201b62000c9e1760201c565b60000160006101000a81548173ffffffffffffffffffffffffffffffffffffffff021916908373ffffffffffffffffffffffffffffffffffffffff16021790555050565b60606200047f838360405180606001604052806027815260200162002b6f60279139620004a460201b60201c565b905092915050565b600080823b905060008111915050919050565b6000819050919050565b6060620004b7846200048760201b60201c565b620004f9576040517f08c379a0000000000000000000000000000000000000000000000000000000008152600401620004f0906200086d565b60405180910390fd5b6000808573ffffffffffffffffffffffffffffffffffffffff16856040516200052391906200080e565b600060405180830381855af49150503d806000811462000560576040519150601f19603f3d011682016040523d82523d6000602084013e62000565565b606091505b50915091506200057d8282866200058860201b60201c565b925050509392505050565b606083156200059a57829050620005ed565b600083511115620005ae5782518084602001fd5b816040517f08c379a0000000000000000000000000000000000000000000000000000000008152600401620005e4919062000827565b60405180910390fd5b9392505050565b60006200060b6200060584620008da565b620008b1565b9050828152602081018484840111156200062a576200062962000ab9565b5b62000637848285620009bb565b509392505050565b600081519050620006508162000bc6565b92915050565b600082601f8301126200066e576200066d62000ab4565b5b815162000680848260208601620005f4565b91505092915050565b600060208284031215620006a257620006a162000ac3565b5b6000620006b2848285016200063f565b91505092915050565b60008060408385031215620006d557620006d462000ac3565b5b6000620006e5858286016200063f565b925050602083015167ffffffffffffffff81111562000709576200070862000abe565b5b620007178582860162000656565b9150509250929050565b60006200072e8262000910565b6200073a818562000926565b93506200074c818560208601620009bb565b80840191505092915050565b600062000765826200091b565b62000771818562000931565b935062000783818560208601620009bb565b6200078e8162000ac8565b840191505092915050565b6000620007a860258362000931565b9150620007b58262000ad9565b604082019050919050565b6000620007cf60268362000931565b9150620007dc8262000b28565b604082019050919050565b6000620007f660308362000931565b9150620008038262000b77565b604082019050919050565b60006200081c828462000721565b915081905092915050565b6000602082019050818103600083015262000843818462000758565b905092915050565b60006020820190508181036000830152620008668162000799565b9050919050565b600060208201905081810360008301526200088881620007c0565b9050919050565b60006020820190508181036000830152620008aa81620007e7565b9050919050565b6000620008bd620008d0565b9050620008cb8282620009f1565b919050565b6000604051905090565b600067ffffffffffffffff821115620008f857620008f762000a85565b5b620009038262000ac8565b9050602081019050919050565b600081519050919050565b600081519050919050565b600081905092915050565b600082825260208201905092915050565b60006200094f82620009b1565b91506200095c83620009b1565b92508282101562000972576200097162000a56565b5b828203905092915050565b60006200098a8262000991565b9050919050565b600073ffffffffffffffffffffffffffffffffffffffff82169050919050565b6000819050919050565b60005b83811015620009db578082015181840152602081019050620009be565b83811115620009eb576000848401525b50505050565b620009fc8262000ac8565b810181811067ffffffffffffffff8211171562000a1e5762000a1d62000a85565b5b80604052505050565b7f4e487b7100000000000000000000000000000000000000000000000000000000600052600160045260246000fd5b7f4e487b7100000000000000000000000000000000000000000000000000000000600052601160045260246000fd5b7f4e487b7100000000000000000000000000000000000000000000000000000000600052604160045260246000fd5b600080fd5b600080fd5b600080fd5b600080fd5b6000601f19601f8301169050919050565b7f455243313936373a206e657720626561636f6e206973206e6f74206120636f6e60008201527f7472616374000000000000000000000000000000000000000000000000000000602082015250565b7f416464726573733a2064656c65676174652063616c6c20746f206e6f6e2d636f60008201527f6e74726163740000000000000000000000000000000000000000000000000000602082015250565b7f455243313936373a20626561636f6e20696d706c656d656e746174696f6e206960008201527f73206e6f74206120636f6e747261637400000000000000000000000000000000602082015250565b62000bd1816200097d565b811462000bdd57600080fd5b50565b611f7f8062000bf06000396000f3fe6080604052600436106101845760003560e01c8063715018a6116100d157806391d148541161008a578063cff5600311610064578063cff56003146105b5578063d547741f146105f2578063f2fde38b1461061b578063f851a4401461064457610193565b806391d1485414610522578063a217fddf1461055f578063a949a9d71461058a57610193565b8063715018a6146104225780637eed33f114610439578063841abf6e1461046457806384900b041461048f5780638da5cb5b146104ba5780639122ce6d146104e557610193565b8063267175db1161013e57806336568abe1161011857806336568abe1461037857806352e6e5f3146103a157806360c7dc47146103cc5780636cc15ad5146103f757610193565b8063267175db146102d55780632ae6b135146103125780632f2ff15d1461034f57610193565b8062b2476f1461019d57806301ffc9a7146101c85780630635dbcb146102055780630c6f7959146102305780631dd7f8ca1461026d578063248a9ca31461029857610193565b366101935761019161066f565b005b61019b61066f565b005b3480156101a957600080fd5b506101b2610689565b6040516101bf91906118bd565b60405180910390f35b3480156101d457600080fd5b506101ef60048036038101906101ea9190611628565b6106af565b6040516101fc91906118d8565b60405180910390f35b34801561021157600080fd5b5061021a610729565b60405161022791906118d8565b60405180910390f35b34801561023c57600080fd5b506102576004803603810190610252919061157b565b61073c565b6040516102649190611a06565b60405180910390f35b34801561027957600080fd5b50610282610764565b60405161028f91906118bd565b60405180910390f35b3480156102a457600080fd5b506102bf60048036038101906102ba91906115bb565b61078a565b6040516102cc91906118f3565b60405180910390f35b3480156102e157600080fd5b506102fc60048036038101906102f79190611655565b6107aa565b60405161030991906118bd565b60405180910390f35b34801561031e57600080fd5b5061033960048036038101906103349190611521565b6107e9565b6040516103469190611a06565b60405180910390f35b34801561035b57600080fd5b50610376600480360381019061037191906115e8565b610801565b005b34801561038457600080fd5b5061039f600480360381019061039a91906115e8565b61082a565b005b3480156103ad57600080fd5b506103b66108ad565b6040516103c39190611a06565b60405180910390f35b3480156103d857600080fd5b506103e16108b3565b6040516103ee9190611a06565b60405180910390f35b34801561040357600080fd5b5061040c6108b9565b60405161041991906118d8565b60405180910390f35b34801561042e57600080fd5b506104376108cc565b005b34801561044557600080fd5b5061044e610954565b60405161045b9190611a06565b60405180910390f35b34801561047057600080fd5b5061047961095a565b6040516104869190611944565b60405180910390f35b34801561049b57600080fd5b506104a46109e8565b6040516104b19190611929565b60405180910390f35b3480156104c657600080fd5b506104cf610a0e565b6040516104dc91906118bd565b60405180910390f35b3480156104f157600080fd5b5061050c60048036038101906105079190611521565b610a37565b60405161051991906118d8565b60405180910390f35b34801561052e57600080fd5b50610549600480360381019061054491906115e8565b610a57565b60405161055691906118d8565b60405180910390f35b34801561056b57600080fd5b50610574610ac2565b60405161058191906118f3565b60405180910390f35b34801561059657600080fd5b5061059f610ac9565b6040516105ac919061190e565b60405180910390f35b3480156105c157600080fd5b506105dc60048036038101906105d7919061157b565b610aef565b6040516105e99190611a06565b60405180910390f35b3480156105fe57600080fd5b50610619600480360381019061061491906115e8565b610b17565b005b34801561062757600080fd5b50610642600480360381019061063d9190611521565b610b40565b005b34801561065057600080fd5b50610659610c38565b60405161066691906118bd565b60405180910390f35b610677610ca8565b610687610682610caa565b610d36565b565b601060009054906101000a900473ffffffffffffffffffffffffffffffffffffffff1681565b60007f7965db0b000000000000000000000000000000000000000000000000000000007bffffffffffffffffffffffffffffffffffffffffffffffffffffffff1916827bffffffffffffffffffffffffffffffffffffffffffffffffffffffff19161480610722575061072182610d5c565b5b9050919050565b600760159054906101000a900460ff1681565b6009602052816000526040600020816008811061075857600080fd5b01600091509150505481565b600760009054906101000a900473ffffffffffffffffffffffffffffffffffffffff1681565b600060016000838152602001908152602001600020600101549050919050565b600d81815481106107ba57600080fd5b906000526020600020016000915054906101000a900473ffffffffffffffffffffffffffffffffffffffff1681565b600b6020528060005260406000206000915090505481565b61080a8261078a565b61081b81610816610dc6565b610dce565b6108258383610e6b565b505050565b610832610dc6565b73ffffffffffffffffffffffffffffffffffffffff168173ffffffffffffffffffffffffffffffffffffffff161461089f576040517f08c379a0000000000000000000000000000000000000000000000000000000008152600401610896906119e6565b60405180910390fd5b6108a98282610f4b565b5050565b60055481565b60045481565b600760149054906101000a900460ff1681565b6108d4610dc6565b73ffffffffffffffffffffffffffffffffffffffff166108f2610a0e565b73ffffffffffffffffffffffffffffffffffffffff1614610948576040517f08c379a000000000000000000000000000000000000000000000000000000000815260040161093f906119a6565b60405180910390fd5b610952600061102d565b565b60035481565b6002805461096790611c31565b80601f016020809104026020016040519081016040528092919081815260200182805461099390611c31565b80156109e05780601f106109b5576101008083540402835291602001916109e0565b820191906000526020600020905b8154815290600101906020018083116109c357829003601f168201915b505050505081565b601260009054906101000a900473ffffffffffffffffffffffffffffffffffffffff1681565b60008060009054906101000a900473ffffffffffffffffffffffffffffffffffffffff16905090565b600c6020528060005260406000206000915054906101000a900460ff1681565b60006001600084815260200190815260200160002060000160008373ffffffffffffffffffffffffffffffffffffffff1673ffffffffffffffffffffffffffffffffffffffff16815260200190815260200160002060009054906101000a900460ff16905092915050565b6000801b81565b601460009054906101000a900473ffffffffffffffffffffffffffffffffffffffff1681565b600a6020528160005260406000208160058110610b0b57600080fd5b01600091509150505481565b610b208261078a565b610b3181610b2c610dc6565b610dce565b610b3b8383610f4b565b505050565b610b48610dc6565b73ffffffffffffffffffffffffffffffffffffffff16610b66610a0e565b73ffffffffffffffffffffffffffffffffffffffff1614610bbc576040517f08c379a0000000000000000000000000000000000000000000000000000000008152600401610bb3906119a6565b60405180910390fd5b600073ffffffffffffffffffffffffffffffffffffffff168173ffffffffffffffffffffffffffffffffffffffff161415610c2c576040517f08c379a0000000000000000000000000000000000000000000000000000000008152600401610c2390611986565b60405180910390fd5b610c358161102d565b50565b600660009054906101000a900473ffffffffffffffffffffffffffffffffffffffff1681565b6060610c838383604051806060016040528060278152602001611f23602791396110f1565b905092915050565b600080823b905060008111915050919050565b6000819050919050565b565b6000610cb46111be565b73ffffffffffffffffffffffffffffffffffffffff16635c60da1b6040518163ffffffff1660e01b815260040160206040518083038186803b158015610cf957600080fd5b505afa158015610d0d573d6000803e3d6000fd5b505050506040513d601f19601f82011682018060405250810190610d31919061154e565b905090565b3660008037600080366000845af43d6000803e8060008114610d57573d6000f35b3d6000fd5b60007f01ffc9a7000000000000000000000000000000000000000000000000000000007bffffffffffffffffffffffffffffffffffffffffffffffffffffffff1916827bffffffffffffffffffffffffffffffffffffffffffffffffffffffff1916149050919050565b600033905090565b610dd88282610a57565b610e6757610dfd8173ffffffffffffffffffffffffffffffffffffffff166014611215565b610e0b8360001c6020611215565b604051602001610e1c929190611883565b6040516020818303038152906040526040517f08c379a0000000000000000000000000000000000000000000000000000000008152600401610e5e9190611944565b60405180910390fd5b5050565b610e758282610a57565b610f4757600180600084815260200190815260200160002060000160008373ffffffffffffffffffffffffffffffffffffffff1673ffffffffffffffffffffffffffffffffffffffff16815260200190815260200160002060006101000a81548160ff021916908315150217905550610eec610dc6565b73ffffffffffffffffffffffffffffffffffffffff168173ffffffffffffffffffffffffffffffffffffffff16837f2f8788117e7eff1d82e926ec794901d17c78024a50270940304540a733656f0d60405160405180910390a45b5050565b610f558282610a57565b156110295760006001600084815260200190815260200160002060000160008373ffffffffffffffffffffffffffffffffffffffff1673ffffffffffffffffffffffffffffffffffffffff16815260200190815260200160002060006101000a81548160ff021916908315150217905550610fce610dc6565b73ffffffffffffffffffffffffffffffffffffffff168173ffffffffffffffffffffffffffffffffffffffff16837ff6391f5c32d9c69d2a47ea670b442974b53935d1edc7fd64eb21e047a839171b60405160405180910390a45b5050565b60008060009054906101000a900473ffffffffffffffffffffffffffffffffffffffff169050816000806101000a81548173ffffffffffffffffffffffffffffffffffffffff021916908373ffffffffffffffffffffffffffffffffffffffff1602179055508173ffffffffffffffffffffffffffffffffffffffff168173ffffffffffffffffffffffffffffffffffffffff167f8be0079c531659141344cd1fd0a4f28419497f9722a3daafe3b4186f6b6457e060405160405180910390a35050565b60606110fc84610c8b565b61113b576040517f08c379a0000000000000000000000000000000000000000000000000000000008152600401611132906119c6565b60405180910390fd5b6000808573ffffffffffffffffffffffffffffffffffffffff1685604051611163919061186c565b600060405180830381855af49150503d806000811461119e576040519150601f19603f3d011682016040523d82523d6000602084013e6111a3565b606091505b50915091506111b3828286611451565b925050509392505050565b60006111ec7fa3f0ad74e5423aebfd80d3ef4346578335a9a72aeaee59ff6cb3582b35133d5060001b610c9e565b60000160009054906101000a900473ffffffffffffffffffffffffffffffffffffffff16905090565b6060600060028360026112289190611ab4565b6112329190611a5e565b67ffffffffffffffff81111561124b5761124a611cf0565b5b6040519080825280601f01601f19166020018201604052801561127d5781602001600182028036833780820191505090505b5090507f3000000000000000000000000000000000000000000000000000000000000000816000815181106112b5576112b4611cc1565b5b60200101907effffffffffffffffffffffffffffffffffffffffffffffffffffffffffffff1916908160001a9053507f78000000000000000000000000000000000000000000000000000000000000008160018151811061131957611318611cc1565b5b60200101907effffffffffffffffffffffffffffffffffffffffffffffffffffffffffffff1916908160001a905350600060018460026113599190611ab4565b6113639190611a5e565b90505b6001811115611403577f3031323334353637383961626364656600000000000000000000000000000000600f8616601081106113a5576113a4611cc1565b5b1a60f81b8282815181106113bc576113bb611cc1565b5b60200101907effffffffffffffffffffffffffffffffffffffffffffffffffffffffffffff1916908160001a905350600485901c9450806113fc90611c07565b9050611366565b5060008414611447576040517f08c379a000000000000000000000000000000000000000000000000000000000815260040161143e90611966565b60405180910390fd5b8091505092915050565b60608315611461578290506114b1565b6000835111156114745782518084602001fd5b816040517f08c379a00000000000000000000000000000000000000000000000000000000081526004016114a89190611944565b60405180910390fd5b9392505050565b6000813590506114c781611ec6565b92915050565b6000815190506114dc81611ec6565b92915050565b6000813590506114f181611edd565b92915050565b60008135905061150681611ef4565b92915050565b60008135905061151b81611f0b565b92915050565b60006020828403121561153757611536611d1f565b5b6000611545848285016114b8565b91505092915050565b60006020828403121561156457611563611d1f565b5b6000611572848285016114cd565b91505092915050565b6000806040838503121561159257611591611d1f565b5b60006115a0858286016114b8565b92505060206115b18582860161150c565b9150509250929050565b6000602082840312156115d1576115d0611d1f565b5b60006115df848285016114e2565b91505092915050565b600080604083850312156115ff576115fe611d1f565b5b600061160d858286016114e2565b925050602061161e858286016114b8565b9150509250929050565b60006020828403121561163e5761163d611d1f565b5b600061164c848285016114f7565b91505092915050565b60006020828403121561166b5761166a611d1f565b5b60006116798482850161150c565b91505092915050565b61168b81611b0e565b82525050565b61169a81611b20565b82525050565b6116a981611b2c565b82525050565b60006116ba82611a21565b6116c48185611a37565b93506116d4818560208601611bd4565b80840191505092915050565b6116e981611b8c565b82525050565b6116f881611b9e565b82525050565b600061170982611a2c565b6117138185611a42565b9350611723818560208601611bd4565b61172c81611d24565b840191505092915050565b600061174282611a2c565b61174c8185611a53565b935061175c818560208601611bd4565b80840191505092915050565b6000611775602083611a42565b915061178082611d35565b602082019050919050565b6000611798602683611a42565b91506117a382611d5e565b604082019050919050565b60006117bb602083611a42565b91506117c682611dad565b602082019050919050565b60006117de602683611a42565b91506117e982611dd6565b604082019050919050565b6000611801601783611a53565b915061180c82611e25565b601782019050919050565b6000611824601183611a53565b915061182f82611e4e565b601182019050919050565b6000611847602f83611a42565b915061185282611e77565b604082019050919050565b61186681611b82565b82525050565b600061187882846116af565b915081905092915050565b600061188e826117f4565b915061189a8285611737565b91506118a582611817565b91506118b18284611737565b91508190509392505050565b60006020820190506118d26000830184611682565b92915050565b60006020820190506118ed6000830184611691565b92915050565b600060208201905061190860008301846116a0565b92915050565b600060208201905061192360008301846116e0565b92915050565b600060208201905061193e60008301846116ef565b92915050565b6000602082019050818103600083015261195e81846116fe565b905092915050565b6000602082019050818103600083015261197f81611768565b9050919050565b6000602082019050818103600083015261199f8161178b565b9050919050565b600060208201905081810360008301526119bf816117ae565b9050919050565b600060208201905081810360008301526119df816117d1565b9050919050565b600060208201905081810360008301526119ff8161183a565b9050919050565b6000602082019050611a1b600083018461185d565b92915050565b600081519050919050565b600081519050919050565b600081905092915050565b600082825260208201905092915050565b600081905092915050565b6000611a6982611b82565b9150611a7483611b82565b9250827fffffffffffffffffffffffffffffffffffffffffffffffffffffffffffffffff03821115611aa957611aa8611c63565b5b828201905092915050565b6000611abf82611b82565b9150611aca83611b82565b9250817fffffffffffffffffffffffffffffffffffffffffffffffffffffffffffffffff0483118215151615611b0357611b02611c63565b5b828202905092915050565b6000611b1982611b62565b9050919050565b60008115159050919050565b6000819050919050565b60007fffffffff0000000000000000000000000000000000000000000000000000000082169050919050565b600073ffffffffffffffffffffffffffffffffffffffff82169050919050565b6000819050919050565b6000611b9782611bb0565b9050919050565b6000611ba982611bb0565b9050919050565b6000611bbb82611bc2565b9050919050565b6000611bcd82611b62565b9050919050565b60005b83811015611bf2578082015181840152602081019050611bd7565b83811115611c01576000848401525b50505050565b6000611c1282611b82565b91506000821415611c2657611c25611c63565b5b600182039050919050565b60006002820490506001821680611c4957607f821691505b60208210811415611c5d57611c5c611c92565b5b50919050565b7f4e487b7100000000000000000000000000000000000000000000000000000000600052601160045260246000fd5b7f4e487b7100000000000000000000000000000000000000000000000000000000600052602260045260246000fd5b7f4e487b7100000000000000000000000000000000000000000000000000000000600052603260045260246000fd5b7f4e487b7100000000000000000000000000000000000000000000000000000000600052604160045260246000fd5b600080fd5b6000601f19601f8301169050919050565b7f537472696e67733a20686578206c656e67746820696e73756666696369656e74600082015250565b7f4f776e61626c653a206e6577206f776e657220697320746865207a65726f206160008201527f6464726573730000000000000000000000000000000000000000000000000000602082015250565b7f4f776e61626c653a2063616c6c6572206973206e6f7420746865206f776e6572600082015250565b7f416464726573733a2064656c65676174652063616c6c20746f206e6f6e2d636f60008201527f6e74726163740000000000000000000000000000000000000000000000000000602082015250565b7f416363657373436f6e74726f6c3a206163636f756e7420000000000000000000600082015250565b7f206973206d697373696e6720726f6c6520000000000000000000000000000000600082015250565b7f416363657373436f6e74726f6c3a2063616e206f6e6c792072656e6f756e636560008201527f20726f6c657320666f722073656c660000000000000000000000000000000000602082015250565b611ecf81611b0e565b8114611eda57600080fd5b50565b611ee681611b2c565b8114611ef157600080fd5b50565b611efd81611b36565b8114611f0857600080fd5b50565b611f1481611b82565b8114611f1f57600080fd5b5056fe416464726573733a206c6f772d6c6576656c2064656c65676174652063616c6c206661696c6564a264697066735822122012095c095a53e160f50da894c066ffc88d9efea6f03efad17fc58f525850968364736f6c63430008070033416464726573733a206c6f772d6c6576656c2064656c65676174652063616c6c206661696c6564608060405234801561001057600080fd5b5060405162000a9138038062000a91833981810160405281019061003491906101ef565b61005061004561006560201b60201c565b61006d60201b60201c565b61005f8161013160201b60201c565b5061030d565b600033905090565b60008060009054906101000a900473ffffffffffffffffffffffffffffffffffffffff169050816000806101000a81548173ffffffffffffffffffffffffffffffffffffffff021916908373ffffffffffffffffffffffffffffffffffffffff1602179055508173ffffffffffffffffffffffffffffffffffffffff168173ffffffffffffffffffffffffffffffffffffffff167f8be0079c531659141344cd1fd0a4f28419497f9722a3daafe3b4186f6b6457e060405160405180910390a35050565b610144816101c760201b6103781760201c565b610183576040517f08c379a000000000000000000000000000000000000000000000000000000000815260040161017a9061023f565b60405180910390fd5b80600160006101000a81548173ffffffffffffffffffffffffffffffffffffffff021916908373ffffffffffffffffffffffffffffffffffffffff16021790555050565b600080823b905060008111915050919050565b6000815190506101e9816102f6565b92915050565b600060208284031215610205576102046102a2565b5b6000610213848285016101da565b91505092915050565b600061022960338361025f565b9150610234826102a7565b604082019050919050565b600060208201905081810360008301526102588161021c565b9050919050565b600082825260208201905092915050565b600061027b82610282565b9050919050565b600073ffffffffffffffffffffffffffffffffffffffff82169050919050565b600080fd5b7f5570677261646561626c65426561636f6e3a20696d706c656d656e746174696f60008201527f6e206973206e6f74206120636f6e747261637400000000000000000000000000602082015250565b6102ff81610270565b811461030a57600080fd5b50565b610774806200031d6000396000f3fe608060405234801561001057600080fd5b50600436106100575760003560e01c80633659cfe61461005c5780635c60da1b14610078578063715018a6146100965780638da5cb5b146100a0578063f2fde38b146100be575b600080fd5b610076600480360381019061007191906104f8565b6100da565b005b6100806101a5565b60405161008d919061059d565b60405180910390f35b61009e6101cf565b005b6100a8610257565b6040516100b5919061059d565b60405180910390f35b6100d860048036038101906100d391906104f8565b610280565b005b6100e261038b565b73ffffffffffffffffffffffffffffffffffffffff16610100610257565b73ffffffffffffffffffffffffffffffffffffffff1614610156576040517f08c379a000000000000000000000000000000000000000000000000000000000815260040161014d906105f8565b60405180910390fd5b61015f81610393565b8073ffffffffffffffffffffffffffffffffffffffff167fbc7cd75a20ee27fd9adebab32041f755214dbc6bffa90cc0225b39da2e5c2d3b60405160405180910390a250565b6000600160009054906101000a900473ffffffffffffffffffffffffffffffffffffffff16905090565b6101d761038b565b73ffffffffffffffffffffffffffffffffffffffff166101f5610257565b73ffffffffffffffffffffffffffffffffffffffff161461024b576040517f08c379a0000000000000000000000000000000000000000000000000000000008152600401610242906105f8565b60405180910390fd5b610255600061041f565b565b60008060009054906101000a900473ffffffffffffffffffffffffffffffffffffffff16905090565b61028861038b565b73ffffffffffffffffffffffffffffffffffffffff166102a6610257565b73ffffffffffffffffffffffffffffffffffffffff16146102fc576040517f08c379a00000000000000000000000000000000000000000000000000000000081526004016102f3906105f8565b60405180910390fd5b600073ffffffffffffffffffffffffffffffffffffffff168173ffffffffffffffffffffffffffffffffffffffff16141561036c576040517f08c379a0000000000000000000000000000000000000000000000000000000008152600401610363906105b8565b60405180910390fd5b6103758161041f565b50565b600080823b905060008111915050919050565b600033905090565b61039c81610378565b6103db576040517f08c379a00000000000000000000000000000000000000000000000000000000081526004016103d2906105d8565b60405180910390fd5b80600160006101000a81548173ffffffffffffffffffffffffffffffffffffffff021916908373ffffffffffffffffffffffffffffffffffffffff16021790555050565b60008060009054906101000a900473ffffffffffffffffffffffffffffffffffffffff169050816000806101000a81548173ffffffffffffffffffffffffffffffffffffffff021916908373ffffffffffffffffffffffffffffffffffffffff1602179055508173ffffffffffffffffffffffffffffffffffffffff168173ffffffffffffffffffffffffffffffffffffffff167f8be0079c531659141344cd1fd0a4f28419497f9722a3daafe3b4186f6b6457e060405160405180910390a35050565b6000813590506104f281610727565b92915050565b60006020828403121561050e5761050d61065b565b5b600061051c848285016104e3565b91505092915050565b61052e81610629565b82525050565b6000610541602683610618565b915061054c82610660565b604082019050919050565b6000610564603383610618565b915061056f826106af565b604082019050919050565b6000610587602083610618565b9150610592826106fe565b602082019050919050565b60006020820190506105b26000830184610525565b92915050565b600060208201905081810360008301526105d181610534565b9050919050565b600060208201905081810360008301526105f181610557565b9050919050565b600060208201905081810360008301526106118161057a565b9050919050565b600082825260208201905092915050565b60006106348261063b565b9050919050565b600073ffffffffffffffffffffffffffffffffffffffff82169050919050565b600080fd5b7f4f776e61626c653a206e6577206f776e657220697320746865207a65726f206160008201527f6464726573730000000000000000000000000000000000000000000000000000602082015250565b7f5570677261646561626c65426561636f6e3a20696d706c656d656e746174696f60008201527f6e206973206e6f74206120636f6e747261637400000000000000000000000000602082015250565b7f4f776e61626c653a2063616c6c6572206973206e6f7420746865206f776e6572600082015250565b61073081610629565b811461073b57600080fd5b5056fea2646970667358221220f14c1e123fc6650c2510ce92a5938ce8dbd619e20ec5ceb7ad4526f9ccdb6aca64736f6c63430008070033a26469706673582212202cc77177910caa605606a2845f56fb7a7277c701b17636755a9bb0bf9906acfb64736f6c63430008070033608060405234801561001057600080fd5b5060405162000a9138038062000a91833981810160405281019061003491906101ef565b61005061004561006560201b60201c565b61006d60201b60201c565b61005f8161013160201b60201c565b5061030d565b600033905090565b60008060009054906101000a900473ffffffffffffffffffffffffffffffffffffffff169050816000806101000a81548173ffffffffffffffffffffffffffffffffffffffff021916908373ffffffffffffffffffffffffffffffffffffffff1602179055508173ffffffffffffffffffffffffffffffffffffffff168173ffffffffffffffffffffffffffffffffffffffff167f8be0079c531659141344cd1fd0a4f28419497f9722a3daafe3b4186f6b6457e060405160405180910390a35050565b610144816101c760201b6103781760201c565b610183576040517f08c379a000000000000000000000000000000000000000000000000000000000815260040161017a9061023f565b60405180910390fd5b80600160006101000a81548173ffffffffffffffffffffffffffffffffffffffff021916908373ffffffffffffffffffffffffffffffffffffffff16021790555050565b600080823b905060008111915050919050565b6000815190506101e9816102f6565b92915050565b600060208284031215610205576102046102a2565b5b6000610213848285016101da565b91505092915050565b600061022960338361025f565b9150610234826102a7565b604082019050919050565b600060208201905081810360008301526102588161021c565b9050919050565b600082825260208201905092915050565b600061027b82610282565b9050919050565b600073ffffffffffffffffffffffffffffffffffffffff82169050919050565b600080fd5b7f5570677261646561626c65426561636f6e3a20696d706c656d656e746174696f60008201527f6e206973206e6f74206120636f6e747261637400000000000000000000000000602082015250565b6102ff81610270565b811461030a57600080fd5b50565b610774806200031d6000396000f3fe608060405234801561001057600080fd5b50600436106100575760003560e01c80633659cfe61461005c5780635c60da1b14610078578063715018a6146100965780638da5cb5b146100a0578063f2fde38b146100be575b600080fd5b610076600480360381019061007191906104f8565b6100da565b005b6100806101a5565b60405161008d919061059d565b60405180910390f35b61009e6101cf565b005b6100a8610257565b6040516100b5919061059d565b60405180910390f35b6100d860048036038101906100d391906104f8565b610280565b005b6100e261038b565b73ffffffffffffffffffffffffffffffffffffffff16610100610257565b73ffffffffffffffffffffffffffffffffffffffff1614610156576040517f08c379a000000000000000000000000000000000000000000000000000000000815260040161014d906105f8565b60405180910390fd5b61015f81610393565b8073ffffffffffffffffffffffffffffffffffffffff167fbc7cd75a20ee27fd9adebab32041f755214dbc6bffa90cc0225b39da2e5c2d3b60405160405180910390a250565b6000600160009054906101000a900473ffffffffffffffffffffffffffffffffffffffff16905090565b6101d761038b565b73ffffffffffffffffffffffffffffffffffffffff166101f5610257565b73ffffffffffffffffffffffffffffffffffffffff161461024b576040517f08c379a0000000000000000000000000000000000000000000000000000000008152600401610242906105f8565b60405180910390fd5b610255600061041f565b565b60008060009054906101000a900473ffffffffffffffffffffffffffffffffffffffff16905090565b61028861038b565b73ffffffffffffffffffffffffffffffffffffffff166102a6610257565b73ffffffffffffffffffffffffffffffffffffffff16146102fc576040517f08c379a00000000000000000000000000000000000000000000000000000000081526004016102f3906105f8565b60405180910390fd5b600073ffffffffffffffffffffffffffffffffffffffff168173ffffffffffffffffffffffffffffffffffffffff16141561036c576040517f08c379a0000000000000000000000000000000000000000000000000000000008152600401610363906105b8565b60405180910390fd5b6103758161041f565b50565b600080823b905060008111915050919050565b600033905090565b61039c81610378565b6103db576040517f08c379a00000000000000000000000000000000000000000000000000000000081526004016103d2906105d8565b60405180910390fd5b80600160006101000a81548173ffffffffffffffffffffffffffffffffffffffff021916908373ffffffffffffffffffffffffffffffffffffffff16021790555050565b60008060009054906101000a900473ffffffffffffffffffffffffffffffffffffffff169050816000806101000a81548173ffffffffffffffffffffffffffffffffffffffff021916908373ffffffffffffffffffffffffffffffffffffffff1602179055508173ffffffffffffffffffffffffffffffffffffffff168173ffffffffffffffffffffffffffffffffffffffff167f8be0079c531659141344cd1fd0a4f28419497f9722a3daafe3b4186f6b6457e060405160405180910390a35050565b6000813590506104f281610727565b92915050565b60006020828403121561050e5761050d61065b565b5b600061051c848285016104e3565b91505092915050565b61052e81610629565b82525050565b6000610541602683610618565b915061054c82610660565b604082019050919050565b6000610564603383610618565b915061056f826106af565b604082019050919050565b6000610587602083610618565b9150610592826106fe565b602082019050919050565b60006020820190506105b26000830184610525565b92915050565b600060208201905081810360008301526105d181610534565b9050919050565b600060208201905081810360008301526105f181610557565b9050919050565b600060208201905081810360008301526106118161057a565b9050919050565b600082825260208201905092915050565b60006106348261063b565b9050919050565b600073ffffffffffffffffffffffffffffffffffffffff82169050919050565b600080fd5b7f4f776e61626c653a206e6577206f776e657220697320746865207a65726f206160008201527f6464726573730000000000000000000000000000000000000000000000000000602082015250565b7f5570677261646561626c65426561636f6e3a20696d706c656d656e746174696f60008201527f6e206973206e6f74206120636f6e747261637400000000000000000000000000602082015250565b7f4f776e61626c653a2063616c6c6572206973206e6f7420746865206f776e6572600082015250565b61073081610629565b811461073b57600080fd5b5056fea2646970667358221220f14c1e123fc6650c2510ce92a5938ce8dbd619e20ec5ceb7ad4526f9ccdb6aca64736f6c63430008070033",
  "linkReferences": {},
  "deployedLinkReferences": {}
}