{
  "_format": "hh-sol-artifact-1",
  "contractName": "LeagueMaker",
  "sourceName": "contracts/LeagueMaker.sol",
  "abi": [
    {
      "inputs": [
        {
          "internalType": "address",
          "name": "_logic",
          "type": "address"
        },
        {
          "internalType": "address",
          "name": "_leagueMakerLibrary",
          "type": "address"
        }
      ],
      "stateMutability": "nonpayable",
      "type": "constructor"
    },
    {
      "anonymous": false,
      "inputs": [
        {
          "indexed": false,
          "internalType": "string",
          "name": "name",
          "type": "string"
        },
        {
          "indexed": false,
          "internalType": "address",
          "name": "proxyAddress",
          "type": "address"
        },
        {
          "indexed": false,
          "internalType": "address",
          "name": "proxyAdminAddress",
          "type": "address"
        }
      ],
      "name": "LeagueCreated",
      "type": "event"
    },
    {
      "anonymous": false,
      "inputs": [
        {
          "indexed": true,
          "internalType": "address",
          "name": "previousOwner",
          "type": "address"
        },
        {
          "indexed": true,
          "internalType": "address",
          "name": "newOwner",
          "type": "address"
        }
      ],
      "name": "OwnershipTransferred",
      "type": "event"
    },
    {
      "anonymous": false,
      "inputs": [
        {
          "indexed": false,
          "internalType": "bool",
          "name": "success",
          "type": "bool"
        },
        {
          "indexed": false,
          "internalType": "bytes",
          "name": "data",
          "type": "bytes"
        }
      ],
      "name": "Response",
      "type": "event"
    },
    {
      "inputs": [
        {
          "internalType": "string",
          "name": "_name",
          "type": "string"
        },
        {
          "internalType": "uint256",
          "name": "_stakeAmount",
          "type": "uint256"
        },
        {
          "internalType": "bool",
          "name": "_isPublic",
          "type": "bool"
        },
        {
          "internalType": "address",
          "name": "_adminAddress",
          "type": "address"
        },
        {
          "internalType": "address",
          "name": "_testUSDCAddress",
          "type": "address"
        },
        {
          "internalType": "address",
          "name": "_athletesContractAddress",
          "type": "address"
        }
      ],
      "name": "createLeague",
      "outputs": [
        {
          "internalType": "address",
          "name": "",
          "type": "address"
        }
      ],
      "stateMutability": "nonpayable",
      "type": "function"
    },
    {
      "inputs": [],
      "name": "currentWeek",
      "outputs": [
        {
          "internalType": "uint256",
          "name": "",
          "type": "uint256"
        }
      ],
      "stateMutability": "view",
      "type": "function"
    },
    {
      "inputs": [
        {
          "internalType": "address",
          "name": "",
          "type": "address"
        }
      ],
      "name": "isProxyMap",
      "outputs": [
        {
          "internalType": "bool",
          "name": "",
          "type": "bool"
        }
      ],
      "stateMutability": "view",
      "type": "function"
    },
    {
      "inputs": [
        {
          "internalType": "uint256",
          "name": "",
          "type": "uint256"
        }
      ],
      "name": "leagueAddresses",
      "outputs": [
        {
          "internalType": "address",
          "name": "",
          "type": "address"
        }
      ],
      "stateMutability": "view",
      "type": "function"
    },
    {
      "inputs": [],
      "name": "lockLeagueLineups",
      "outputs": [],
      "stateMutability": "nonpayable",
      "type": "function"
    },
    {
      "inputs": [],
      "name": "lockLeagueMembership",
      "outputs": [],
      "stateMutability": "nonpayable",
      "type": "function"
    },
    {
      "inputs": [],
      "name": "owner",
      "outputs": [
        {
          "internalType": "address",
          "name": "",
          "type": "address"
        }
      ],
      "stateMutability": "view",
      "type": "function"
    },
    {
      "inputs": [],
      "name": "renounceOwnership",
      "outputs": [],
      "stateMutability": "nonpayable",
      "type": "function"
    },
    {
      "inputs": [
        {
          "internalType": "address",
          "name": "logic",
          "type": "address"
        }
      ],
      "name": "setBeacon",
      "outputs": [
        {
          "internalType": "address",
          "name": "",
          "type": "address"
        }
      ],
      "stateMutability": "nonpayable",
      "type": "function"
    },
    {
      "inputs": [],
      "name": "setLeagueSchedules",
      "outputs": [],
      "stateMutability": "nonpayable",
      "type": "function"
    },
    {
      "inputs": [
        {
          "internalType": "address",
          "name": "newOwner",
          "type": "address"
        }
      ],
      "name": "transferOwnership",
      "outputs": [],
      "stateMutability": "nonpayable",
      "type": "function"
    },
    {
      "inputs": [],
      "name": "unlockLeagueLineups",
      "outputs": [],
      "stateMutability": "nonpayable",
      "type": "function"
    },
    {
      "inputs": [
        {
          "internalType": "address",
          "name": "user",
          "type": "address"
        }
      ],
      "name": "updateUserToLeagueMapping",
      "outputs": [],
      "stateMutability": "nonpayable",
      "type": "function"
    },
    {
      "inputs": [
        {
          "internalType": "address",
          "name": "",
          "type": "address"
        },
        {
          "internalType": "uint256",
          "name": "",
          "type": "uint256"
        }
      ],
      "name": "userToLeagueMap",
      "outputs": [
        {
          "internalType": "address",
          "name": "",
          "type": "address"
        }
      ],
      "stateMutability": "view",
      "type": "function"
    }
  ],
  "bytecode": "0x60a060405260086007556000600855732791bca1f2de4661ed88a30c99a7a9449aa84174600960006101000a81548173ffffffffffffffffffffffffffffffffffffffff021916908373ffffffffffffffffffffffffffffffffffffffff16021790555073eb8f08a975ab53e34d8a0330e0d34de942c95926600a60006101000a81548173ffffffffffffffffffffffffffffffffffffffff021916908373ffffffffffffffffffffffffffffffffffffffff160217905550348015620000c557600080fd5b50604051620067e9380380620067e98339818101604052810190620000eb9190620002b4565b6200010b620000ff620001c360201b60201c565b620001cb60201b60201c565b816040516200011a906200028f565b6200012691906200030c565b604051809103906000f08015801562000143573d6000803e3d6000fd5b5073ffffffffffffffffffffffffffffffffffffffff1660808173ffffffffffffffffffffffffffffffffffffffff1660601b8152505080600b60006101000a81548173ffffffffffffffffffffffffffffffffffffffff021916908373ffffffffffffffffffffffffffffffffffffffff16021790555050506200037c565b600033905090565b60008060009054906101000a900473ffffffffffffffffffffffffffffffffffffffff169050816000806101000a81548173ffffffffffffffffffffffffffffffffffffffff021916908373ffffffffffffffffffffffffffffffffffffffff1602179055508173ffffffffffffffffffffffffffffffffffffffff168173ffffffffffffffffffffffffffffffffffffffff167f8be0079c531659141344cd1fd0a4f28419497f9722a3daafe3b4186f6b6457e060405160405180910390a35050565b610a918062005d5883390190565b600081519050620002ae8162000362565b92915050565b60008060408385031215620002ce57620002cd6200035d565b5b6000620002de858286016200029d565b9250506020620002f1858286016200029d565b9150509250929050565b620003068162000329565b82525050565b6000602082019050620003236000830184620002fb565b92915050565b600062000336826200033d565b9050919050565b600073ffffffffffffffffffffffffffffffffffffffff82169050919050565b600080fd5b6200036d8162000329565b81146200037957600080fd5b50565b60805160601c6159bd6200039b6000396000610bad01526159bd6000f3fe60806040523480156200001157600080fd5b5060043610620001005760003560e01c8063b37cc9f11162000099578063d42afb56116200006f578063d42afb56146200023b578063d46dc6c41462000271578063d54c9d1614620002a7578063f2fde38b14620002b35762000100565b8063b37cc9f114620001c3578063c3530ff414620001f9578063c49986a5146200022f5762000100565b8063715018a611620000db578063715018a61462000169578063771bd4ce14620001755780638da5cb5b1462000195578063a945320f14620001b75762000100565b806306575c891462000105578063270cb3eb146200012757806329ffe5e91462000133575b600080fd5b6200010f620002d3565b6040516200011e919062001820565b60405180910390f35b62000131620002d9565b005b6200015160048036038101906200014b919062001370565b620004fe565b604051620001609190620015d3565b60405180910390f35b620001736200053e565b005b6200019360048036038101906200018d919062001236565b620005cf565b005b6200019f62000701565b604051620001ae9190620015d3565b60405180910390f35b620001c16200072a565b005b620001e16004803603810190620001db919062001236565b6200091e565b604051620001f0919062001648565b60405180910390f35b62000217600480360381019062000211919062001268565b6200093e565b604051620002269190620015d3565b60405180910390f35b620002396200098d565b005b62000259600480360381019062000253919062001236565b62000a12565b604051620002689190620015d3565b60405180910390f35b6200028f6004803603810190620002899190620012af565b62000a9a565b6040516200029e9190620015d3565b60405180910390f35b620002b162000db2565b005b620002d16004803603810190620002cb919062001236565b62000fa6565b005b60085481565b620002e3620010aa565b73ffffffffffffffffffffffffffffffffffffffff166200030362000701565b73ffffffffffffffffffffffffffffffffffffffff16146200035c576040517f08c379a00000000000000000000000000000000000000000000000000000000081526004016200035390620017fe565b60405180910390fd5b6000606060005b600380549050811015620004f95760038181548110620003885762000387620019fd565b5b9060005260206000200160009054906101000a900473ffffffffffffffffffffffffffffffffffffffff1673ffffffffffffffffffffffffffffffffffffffff166040516024016040516020818303038152906040527fe4c9066b000000000000000000000000000000000000000000000000000000007bffffffffffffffffffffffffffffffffffffffffffffffffffffffff19166020820180517bffffffffffffffffffffffffffffffffffffffffffffffffffffffff83818316178352505050506040516200045b9190620015ba565b6000604051808303816000865af19150503d80600081146200049a576040519150601f19603f3d011682016040523d82523d6000602084013e6200049f565b606091505b5080935081945050507f13848c3e38f8886f3f5d2ad9dff80d8092c2bbb8efd5b887a99c2c6cfc09ac2a8383604051620004db92919062001665565b60405180910390a18080620004f09062001980565b91505062000363565b505050565b600381815481106200050f57600080fd5b906000526020600020016000915054906101000a900473ffffffffffffffffffffffffffffffffffffffff1681565b62000548620010aa565b73ffffffffffffffffffffffffffffffffffffffff166200056862000701565b73ffffffffffffffffffffffffffffffffffffffff1614620005c1576040517f08c379a0000000000000000000000000000000000000000000000000000000008152600401620005b890620017fe565b60405180910390fd5b620005cd6000620010b2565b565b600560003373ffffffffffffffffffffffffffffffffffffffff1673ffffffffffffffffffffffffffffffffffffffff16815260200190815260200160002060009054906101000a900460ff166200065e576040517f08c379a00000000000000000000000000000000000000000000000000000000081526004016200065590620017ba565b60405180910390fd5b600460008273ffffffffffffffffffffffffffffffffffffffff1673ffffffffffffffffffffffffffffffffffffffff168152602001908152602001600020339080600181540180825580915050600190039060005260206000200160009091909190916101000a81548173ffffffffffffffffffffffffffffffffffffffff021916908373ffffffffffffffffffffffffffffffffffffffff16021790555050565b60008060009054906101000a900473ffffffffffffffffffffffffffffffffffffffff16905090565b62000734620010aa565b73ffffffffffffffffffffffffffffffffffffffff166200075462000701565b73ffffffffffffffffffffffffffffffffffffffff1614620007ad576040517f08c379a0000000000000000000000000000000000000000000000000000000008152600401620007a490620017fe565b60405180910390fd5b60006060600b60009054906101000a900473ffffffffffffffffffffffffffffffffffffffff1673ffffffffffffffffffffffffffffffffffffffff166003604051602401620007fe919062001624565b6040516020818303038152906040527f09cc1ab1000000000000000000000000000000000000000000000000000000007bffffffffffffffffffffffffffffffffffffffffffffffffffffffff19166020820180517bffffffffffffffffffffffffffffffffffffffffffffffffffffffff83818316178352505050506040516200088a9190620015ba565b6000604051808303816000865af19150503d8060008114620008c9576040519150601f19603f3d011682016040523d82523d6000602084013e620008ce565b606091505b508092508193505050816200091a576040517f08c379a00000000000000000000000000000000000000000000000000000000081526004016200091190620017dc565b60405180910390fd5b5050565b60056020528060005260406000206000915054906101000a900460ff1681565b600460205281600052604060002081815481106200095b57600080fd5b906000526020600020016000915091509054906101000a900473ffffffffffffffffffffffffffffffffffffffff1681565b62000997620010aa565b73ffffffffffffffffffffffffffffffffffffffff16620009b762000701565b73ffffffffffffffffffffffffffffffffffffffff161462000a10576040517f08c379a000000000000000000000000000000000000000000000000000000000815260040162000a0790620017fe565b60405180910390fd5b565b6000808260405162000a249062001176565b62000a309190620015d3565b604051809103906000f08015801562000a4d573d6000803e3d6000fd5b50905080600260006101000a81548173ffffffffffffffffffffffffffffffffffffffff021916908373ffffffffffffffffffffffffffffffffffffffff16021790555080915050919050565b600080888888888689600960009054906101000a900473ffffffffffffffffffffffffffffffffffffffff16600a60009054906101000a900473ffffffffffffffffffffffffffffffffffffffff168b600b60009054906101000a900473ffffffffffffffffffffffffffffffffffffffff163060405160240162000b2a9b9a99989796959493929190620016df565b6040516020818303038152906040527f3c3ae13f000000000000000000000000000000000000000000000000000000007bffffffffffffffffffffffffffffffffffffffffffffffffffffffff19166020820180517bffffffffffffffffffffffffffffffffffffffffffffffffffffffff8381831617835250505050905060007f00000000000000000000000000000000000000000000000000000000000000008260405162000bdb9062001184565b62000be8929190620015f0565b604051809103906000f08015801562000c05573d6000803e3d6000fd5b5090506003819080600181540180825580915050600190039060005260206000200160009091909190916101000a81548173ffffffffffffffffffffffffffffffffffffffff021916908373ffffffffffffffffffffffffffffffffffffffff160217905550600460008773ffffffffffffffffffffffffffffffffffffffff1673ffffffffffffffffffffffffffffffffffffffff168152602001908152602001600020819080600181540180825580915050600190039060005260206000200160009091909190916101000a81548173ffffffffffffffffffffffffffffffffffffffff021916908373ffffffffffffffffffffffffffffffffffffffff1602179055506001600560008373ffffffffffffffffffffffffffffffffffffffff1673ffffffffffffffffffffffffffffffffffffffff16815260200190815260200160002060006101000a81548160ff0219169083151502179055507fc47056fccf84218e4e94c23620f6dff0eca24341da09715bdf519222f79d83c38a8a838960405162000d9a949392919062001699565b60405180910390a18092505050979650505050505050565b62000dbc620010aa565b73ffffffffffffffffffffffffffffffffffffffff1662000ddc62000701565b73ffffffffffffffffffffffffffffffffffffffff161462000e35576040517f08c379a000000000000000000000000000000000000000000000000000000000815260040162000e2c90620017fe565b60405180910390fd5b60006060600b60009054906101000a900473ffffffffffffffffffffffffffffffffffffffff1673ffffffffffffffffffffffffffffffffffffffff16600360405160240162000e86919062001624565b6040516020818303038152906040527fb7599aac000000000000000000000000000000000000000000000000000000007bffffffffffffffffffffffffffffffffffffffffffffffffffffffff19166020820180517bffffffffffffffffffffffffffffffffffffffffffffffffffffffff838183161783525050505060405162000f129190620015ba565b6000604051808303816000865af19150503d806000811462000f51576040519150601f19603f3d011682016040523d82523d6000602084013e62000f56565b606091505b5080925081935050508162000fa2576040517f08c379a000000000000000000000000000000000000000000000000000000000815260040162000f9990620017dc565b60405180910390fd5b5050565b62000fb0620010aa565b73ffffffffffffffffffffffffffffffffffffffff1662000fd062000701565b73ffffffffffffffffffffffffffffffffffffffff161462001029576040517f08c379a00000000000000000000000000000000000000000000000000000000081526004016200102090620017fe565b60405180910390fd5b600073ffffffffffffffffffffffffffffffffffffffff168173ffffffffffffffffffffffffffffffffffffffff1614156200109c576040517f08c379a0000000000000000000000000000000000000000000000000000000008152600401620010939062001798565b60405180910390fd5b620010a781620010b2565b50565b600033905090565b60008060009054906101000a900473ffffffffffffffffffffffffffffffffffffffff169050816000806101000a81548173ffffffffffffffffffffffffffffffffffffffff021916908373ffffffffffffffffffffffffffffffffffffffff1602179055508173ffffffffffffffffffffffffffffffffffffffff168173ffffffffffffffffffffffffffffffffffffffff167f8be0079c531659141344cd1fd0a4f28419497f9722a3daafe3b4186f6b6457e060405160405180910390a35050565b610a918062001bdd83390190565b61331a806200266e83390190565b600081359050620011a38162001b8e565b92915050565b600081359050620011ba8162001ba8565b92915050565b60008083601f840112620011d957620011d862001a46565b5b8235905067ffffffffffffffff811115620011f957620011f862001a41565b5b60208301915083600182028301111562001218576200121762001a4b565b5b9250929050565b600081359050620012308162001bc2565b92915050565b6000602082840312156200124f576200124e62001a55565b5b60006200125f8482850162001192565b91505092915050565b6000806040838503121562001282576200128162001a55565b5b6000620012928582860162001192565b9250506020620012a5858286016200121f565b9150509250929050565b600080600080600080600060c0888a031215620012d157620012d062001a55565b5b600088013567ffffffffffffffff811115620012f257620012f162001a50565b5b620013008a828b01620011c0565b97509750506020620013158a828b016200121f565b9550506040620013288a828b01620011a9565b94505060606200133b8a828b0162001192565b93505060806200134e8a828b0162001192565b92505060a0620013618a828b0162001192565b91505092959891949750929550565b60006020828403121562001389576200138862001a55565b5b600062001399848285016200121f565b91505092915050565b6000620013b08383620013bc565b60208301905092915050565b620013c781620018d3565b82525050565b620013d881620018d3565b82525050565b6000620013eb8262001852565b620013f7818562001875565b935062001404836200183d565b8060005b8381101562001444576200141c8262001a2c565b620014288882620013a2565b9750620014358362001868565b92505060018101905062001408565b5085935050505092915050565b6200145c81620018e7565b82525050565b60006200146f826200185d565b6200147b818562001886565b93506200148d8185602086016200192c565b620014988162001a5a565b840191505092915050565b6000620014b0826200185d565b620014bc818562001897565b9350620014ce8185602086016200192c565b80840191505092915050565b6000620014e88385620018a2565b9350620014f78385846200191d565b620015028362001a5a565b840190509392505050565b60006200151c602683620018a2565b9150620015298262001a78565b604082019050919050565b600062001543602483620018a2565b9150620015508262001ac7565b604082019050919050565b60006200156a602f83620018a2565b9150620015778262001b16565b604082019050919050565b600062001591602083620018a2565b91506200159e8262001b65565b602082019050919050565b620015b48162001913565b82525050565b6000620015c88284620014a3565b915081905092915050565b6000602082019050620015ea6000830184620013cd565b92915050565b6000604082019050620016076000830185620013cd565b81810360208301526200161b818462001462565b90509392505050565b60006020820190508181036000830152620016408184620013de565b905092915050565b60006020820190506200165f600083018462001451565b92915050565b60006040820190506200167c600083018562001451565b818103602083015262001690818462001462565b90509392505050565b60006060820190508181036000830152620016b6818688620014da565b9050620016c76020830185620013cd565b620016d66040830184620013cd565b95945050505050565b6000610140820190508181036000830152620016fd818d8f620014da565b90506200170e602083018c620015a9565b6200171d604083018b62001451565b6200172c606083018a620013cd565b6200173b6080830189620013cd565b6200174a60a0830188620013cd565b6200175960c0830187620013cd565b6200176860e0830186620013cd565b62001778610100830185620013cd565b62001788610120830184620013cd565b9c9b505050505050505050505050565b60006020820190508181036000830152620017b3816200150d565b9050919050565b60006020820190508181036000830152620017d58162001534565b9050919050565b60006020820190508181036000830152620017f7816200155b565b9050919050565b60006020820190508181036000830152620018198162001582565b9050919050565b6000602082019050620018376000830184620015a9565b92915050565b60008190508160005260206000209050919050565b600081549050919050565b600081519050919050565b6000600182019050919050565b600082825260208201905092915050565b600082825260208201905092915050565b600081905092915050565b600082825260208201905092915050565b600073ffffffffffffffffffffffffffffffffffffffff82169050919050565b6000620018e082620018f3565b9050919050565b60008115159050919050565b600073ffffffffffffffffffffffffffffffffffffffff82169050919050565b6000819050919050565b82818337600083830152505050565b60005b838110156200194c5780820151818401526020810190506200192f565b838111156200195c576000848401525b50505050565b600062001979620019738362001a6b565b620018b3565b9050919050565b60006200198d8262001913565b91507fffffffffffffffffffffffffffffffffffffffffffffffffffffffffffffffff821415620019c357620019c2620019ce565b5b600182019050919050565b7f4e487b7100000000000000000000000000000000000000000000000000000000600052601160045260246000fd5b7f4e487b7100000000000000000000000000000000000000000000000000000000600052603260045260246000fd5b600062001a3a825462001962565b9050919050565b600080fd5b600080fd5b600080fd5b600080fd5b600080fd5b6000601f19601f8301169050919050565b60008160001c9050919050565b7f4f776e61626c653a206e6577206f776e657220697320746865207a65726f206160008201527f6464726573730000000000000000000000000000000000000000000000000000602082015250565b7f43616c6c6572206973206e6f7420612076616c69642070726f7879206164647260008201527f6573732e00000000000000000000000000000000000000000000000000000000602082015250565b7f4661696c656420746f2063616c6c206c6f636b4c65616775654c696e6575707360008201527f28292066726f6d206c6962726172790000000000000000000000000000000000602082015250565b7f4f776e61626c653a2063616c6c6572206973206e6f7420746865206f776e6572600082015250565b62001b9981620018d3565b811462001ba557600080fd5b50565b62001bb381620018e7565b811462001bbf57600080fd5b50565b62001bcd8162001913565b811462001bd957600080fd5b5056fe608060405234801561001057600080fd5b5060405162000a9138038062000a91833981810160405281019061003491906101ef565b61005061004561006560201b60201c565b61006d60201b60201c565b61005f8161013160201b60201c565b5061030d565b600033905090565b60008060009054906101000a900473ffffffffffffffffffffffffffffffffffffffff169050816000806101000a81548173ffffffffffffffffffffffffffffffffffffffff021916908373ffffffffffffffffffffffffffffffffffffffff1602179055508173ffffffffffffffffffffffffffffffffffffffff168173ffffffffffffffffffffffffffffffffffffffff167f8be0079c531659141344cd1fd0a4f28419497f9722a3daafe3b4186f6b6457e060405160405180910390a35050565b610144816101c760201b6103781760201c565b610183576040517f08c379a000000000000000000000000000000000000000000000000000000000815260040161017a9061023f565b60405180910390fd5b80600160006101000a81548173ffffffffffffffffffffffffffffffffffffffff021916908373ffffffffffffffffffffffffffffffffffffffff16021790555050565b600080823b905060008111915050919050565b6000815190506101e9816102f6565b92915050565b600060208284031215610205576102046102a2565b5b6000610213848285016101da565b91505092915050565b600061022960338361025f565b9150610234826102a7565b604082019050919050565b600060208201905081810360008301526102588161021c565b9050919050565b600082825260208201905092915050565b600061027b82610282565b9050919050565b600073ffffffffffffffffffffffffffffffffffffffff82169050919050565b600080fd5b7f5570677261646561626c65426561636f6e3a20696d706c656d656e746174696f60008201527f6e206973206e6f74206120636f6e747261637400000000000000000000000000602082015250565b6102ff81610270565b811461030a57600080fd5b50565b610774806200031d6000396000f3fe608060405234801561001057600080fd5b50600436106100575760003560e01c80633659cfe61461005c5780635c60da1b14610078578063715018a6146100965780638da5cb5b146100a0578063f2fde38b146100be575b600080fd5b610076600480360381019061007191906104f8565b6100da565b005b6100806101a5565b60405161008d919061059d565b60405180910390f35b61009e6101cf565b005b6100a8610257565b6040516100b5919061059d565b60405180910390f35b6100d860048036038101906100d391906104f8565b610280565b005b6100e261038b565b73ffffffffffffffffffffffffffffffffffffffff16610100610257565b73ffffffffffffffffffffffffffffffffffffffff1614610156576040517f08c379a000000000000000000000000000000000000000000000000000000000815260040161014d906105f8565b60405180910390fd5b61015f81610393565b8073ffffffffffffffffffffffffffffffffffffffff167fbc7cd75a20ee27fd9adebab32041f755214dbc6bffa90cc0225b39da2e5c2d3b60405160405180910390a250565b6000600160009054906101000a900473ffffffffffffffffffffffffffffffffffffffff16905090565b6101d761038b565b73ffffffffffffffffffffffffffffffffffffffff166101f5610257565b73ffffffffffffffffffffffffffffffffffffffff161461024b576040517f08c379a0000000000000000000000000000000000000000000000000000000008152600401610242906105f8565b60405180910390fd5b610255600061041f565b565b60008060009054906101000a900473ffffffffffffffffffffffffffffffffffffffff16905090565b61028861038b565b73ffffffffffffffffffffffffffffffffffffffff166102a6610257565b73ffffffffffffffffffffffffffffffffffffffff16146102fc576040517f08c379a00000000000000000000000000000000000000000000000000000000081526004016102f3906105f8565b60405180910390fd5b600073ffffffffffffffffffffffffffffffffffffffff168173ffffffffffffffffffffffffffffffffffffffff16141561036c576040517f08c379a0000000000000000000000000000000000000000000000000000000008152600401610363906105b8565b60405180910390fd5b6103758161041f565b50565b600080823b905060008111915050919050565b600033905090565b61039c81610378565b6103db576040517f08c379a00000000000000000000000000000000000000000000000000000000081526004016103d2906105d8565b60405180910390fd5b80600160006101000a81548173ffffffffffffffffffffffffffffffffffffffff021916908373ffffffffffffffffffffffffffffffffffffffff16021790555050565b60008060009054906101000a900473ffffffffffffffffffffffffffffffffffffffff169050816000806101000a81548173ffffffffffffffffffffffffffffffffffffffff021916908373ffffffffffffffffffffffffffffffffffffffff1602179055508173ffffffffffffffffffffffffffffffffffffffff168173ffffffffffffffffffffffffffffffffffffffff167f8be0079c531659141344cd1fd0a4f28419497f9722a3daafe3b4186f6b6457e060405160405180910390a35050565b6000813590506104f281610727565b92915050565b60006020828403121561050e5761050d61065b565b5b600061051c848285016104e3565b91505092915050565b61052e81610629565b82525050565b6000610541602683610618565b915061054c82610660565b604082019050919050565b6000610564603383610618565b915061056f826106af565b604082019050919050565b6000610587602083610618565b9150610592826106fe565b602082019050919050565b60006020820190506105b26000830184610525565b92915050565b600060208201905081810360008301526105d181610534565b9050919050565b600060208201905081810360008301526105f181610557565b9050919050565b600060208201905081810360008301526106118161057a565b9050919050565b600082825260208201905092915050565b60006106348261063b565b9050919050565b600073ffffffffffffffffffffffffffffffffffffffff82169050919050565b600080fd5b7f4f776e61626c653a206e6577206f776e657220697320746865207a65726f206160008201527f6464726573730000000000000000000000000000000000000000000000000000602082015250565b7f5570677261646561626c65426561636f6e3a20696d706c656d656e746174696f60008201527f6e206973206e6f74206120636f6e747261637400000000000000000000000000602082015250565b7f4f776e61626c653a2063616c6c6572206973206e6f7420746865206f776e6572600082015250565b61073081610629565b811461073b57600080fd5b5056fea2646970667358221220f14c1e123fc6650c2510ce92a5938ce8dbd619e20ec5ceb7ad4526f9ccdb6aca64736f6c6343000807003360806040526040516200331a3803806200331a8339818101604052810190620000299190620006bb565b620000496200003d620000cf60201b60201c565b620000d760201b60201c565b60017fa3f0ad74e5423aebfd80d3ef4346578335a9a72aeaee59ff6cb3582b35133d5160001c6200007b919062000942565b60001b7fa3f0ad74e5423aebfd80d3ef4346578335a9a72aeaee59ff6cb3582b35133d5060001b14620000b357620000b262000a27565b5b620000c7828260006200019b60201b60201c565b505062000be0565b600033905090565b60008060009054906101000a900473ffffffffffffffffffffffffffffffffffffffff169050816000806101000a81548173ffffffffffffffffffffffffffffffffffffffff021916908373ffffffffffffffffffffffffffffffffffffffff1602179055508173ffffffffffffffffffffffffffffffffffffffff168173ffffffffffffffffffffffffffffffffffffffff167f8be0079c531659141344cd1fd0a4f28419497f9722a3daafe3b4186f6b6457e060405160405180910390a35050565b620001ac83620002a260201b60201c565b8273ffffffffffffffffffffffffffffffffffffffff167f1cf3b03a6cf19fa2baba4df148e9dcabedea7f8a5c07840e207e5c089be95d3e60405160405180910390a2600082511180620001fd5750805b156200029d576200029b8373ffffffffffffffffffffffffffffffffffffffff16635c60da1b6040518163ffffffff1660e01b815260040160206040518083038186803b1580156200024e57600080fd5b505afa15801562000263573d6000803e3d6000fd5b505050506040513d601f19601f8201168201806040525081019062000289919062000689565b836200045160201b620012891760201c565b505b505050565b620002b8816200048760201b620012b61760201c565b620002fa576040517f08c379a0000000000000000000000000000000000000000000000000000000008152600401620002f1906200084b565b60405180910390fd5b620003918173ffffffffffffffffffffffffffffffffffffffff16635c60da1b6040518163ffffffff1660e01b815260040160206040518083038186803b1580156200034557600080fd5b505afa1580156200035a573d6000803e3d6000fd5b505050506040513d601f19601f8201168201806040525081019062000380919062000689565b6200048760201b620012b61760201c565b620003d3576040517f08c379a0000000000000000000000000000000000000000000000000000000008152600401620003ca906200088f565b60405180910390fd5b806200040d7fa3f0ad74e5423aebfd80d3ef4346578335a9a72aeaee59ff6cb3582b35133d5060001b6200049a60201b620012c91760201c565b60000160006101000a81548173ffffffffffffffffffffffffffffffffffffffff021916908373ffffffffffffffffffffffffffffffffffffffff16021790555050565b60606200047f8383604051806060016040528060278152602001620032f360279139620004a460201b60201c565b905092915050565b600080823b905060008111915050919050565b6000819050919050565b6060620004b7846200048760201b60201c565b620004f9576040517f08c379a0000000000000000000000000000000000000000000000000000000008152600401620004f0906200086d565b60405180910390fd5b6000808573ffffffffffffffffffffffffffffffffffffffff16856040516200052391906200080e565b600060405180830381855af49150503d806000811462000560576040519150601f19603f3d011682016040523d82523d6000602084013e62000565565b606091505b50915091506200057d8282866200058860201b60201c565b925050509392505050565b606083156200059a57829050620005ed565b600083511115620005ae5782518084602001fd5b816040517f08c379a0000000000000000000000000000000000000000000000000000000008152600401620005e4919062000827565b60405180910390fd5b9392505050565b60006200060b6200060584620008da565b620008b1565b9050828152602081018484840111156200062a576200062962000ab9565b5b62000637848285620009bb565b509392505050565b600081519050620006508162000bc6565b92915050565b600082601f8301126200066e576200066d62000ab4565b5b815162000680848260208601620005f4565b91505092915050565b600060208284031215620006a257620006a162000ac3565b5b6000620006b2848285016200063f565b91505092915050565b60008060408385031215620006d557620006d462000ac3565b5b6000620006e5858286016200063f565b925050602083015167ffffffffffffffff81111562000709576200070862000abe565b5b620007178582860162000656565b9150509250929050565b60006200072e8262000910565b6200073a818562000926565b93506200074c818560208601620009bb565b80840191505092915050565b600062000765826200091b565b62000771818562000931565b935062000783818560208601620009bb565b6200078e8162000ac8565b840191505092915050565b6000620007a860258362000931565b9150620007b58262000ad9565b604082019050919050565b6000620007cf60268362000931565b9150620007dc8262000b28565b604082019050919050565b6000620007f660308362000931565b9150620008038262000b77565b604082019050919050565b60006200081c828462000721565b915081905092915050565b6000602082019050818103600083015262000843818462000758565b905092915050565b60006020820190508181036000830152620008668162000799565b9050919050565b600060208201905081810360008301526200088881620007c0565b9050919050565b60006020820190508181036000830152620008aa81620007e7565b9050919050565b6000620008bd620008d0565b9050620008cb8282620009f1565b919050565b6000604051905090565b600067ffffffffffffffff821115620008f857620008f762000a85565b5b620009038262000ac8565b9050602081019050919050565b600081519050919050565b600081519050919050565b600081905092915050565b600082825260208201905092915050565b60006200094f82620009b1565b91506200095c83620009b1565b92508282101562000972576200097162000a56565b5b828203905092915050565b60006200098a8262000991565b9050919050565b600073ffffffffffffffffffffffffffffffffffffffff82169050919050565b6000819050919050565b60005b83811015620009db578082015181840152602081019050620009be565b83811115620009eb576000848401525b50505050565b620009fc8262000ac8565b810181811067ffffffffffffffff8211171562000a1e5762000a1d62000a85565b5b80604052505050565b7f4e487b7100000000000000000000000000000000000000000000000000000000600052600160045260246000fd5b7f4e487b7100000000000000000000000000000000000000000000000000000000600052601160045260246000fd5b7f4e487b7100000000000000000000000000000000000000000000000000000000600052604160045260246000fd5b600080fd5b600080fd5b600080fd5b600080fd5b6000601f19601f8301169050919050565b7f455243313936373a206e657720626561636f6e206973206e6f74206120636f6e60008201527f7472616374000000000000000000000000000000000000000000000000000000602082015250565b7f416464726573733a2064656c65676174652063616c6c20746f206e6f6e2d636f60008201527f6e74726163740000000000000000000000000000000000000000000000000000602082015250565b7f455243313936373a20626561636f6e20696d706c656d656e746174696f6e206960008201527f73206e6f74206120636f6e747261637400000000000000000000000000000000602082015250565b62000bd1816200097d565b811462000bdd57600080fd5b50565b6127038062000bf06000396000f3fe6080604052600436106101c55760003560e01c8063841abf6e116100f7578063cff5600311610095578063e35a899911610064578063e35a8999146106cf578063edcbe96c1461070c578063f2fde38b14610749578063f851a44014610772576101d4565b8063cff5600314610601578063d547741f1461063e578063dc9a153514610667578063e2ec6ec314610692576101d4565b806391d14854116100d157806391d148541461053157806393f3706c1461056e5780639b19251a14610599578063a217fddf146105d6576101d4565b8063841abf6e1461049e5780638da5cb5b146104c95780639122ce6d146104f4576101d4565b80632f2ff15d1161016457806360c7dc471161013e57806360c7dc47146103f4578063715018a61461041f5780637b9417c8146104365780637eed33f114610473576101d4565b80632f2ff15d1461037757806336568abe146103a057806344eaa84e146103c9576101d4565b8063248a9ca3116101a0578063248a9ca31461028357806324953eaa146102c0578063267175db146102fd578063286dd3f51461033a576101d4565b8062b2476f146101de57806301ffc9a7146102095780630c6f795914610246576101d4565b366101d4576101d261079d565b005b6101dc61079d565b005b3480156101ea57600080fd5b506101f36107b7565b6040516102009190611fb1565b60405180910390f35b34801561021557600080fd5b50610230600480360381019061022b9190611d3a565b6107dd565b60405161023d9190611fcc565b60405180910390f35b34801561025257600080fd5b5061026d60048036038101906102689190611c44565b610857565b60405161027a91906120c4565b60405180910390f35b34801561028f57600080fd5b506102aa60048036038101906102a59190611ccd565b61087f565b6040516102b79190611fe7565b60405180910390f35b3480156102cc57600080fd5b506102e760048036038101906102e29190611c84565b61089f565b6040516102f49190611fcc565b60405180910390f35b34801561030957600080fd5b50610324600480360381019061031f9190611d67565b610989565b6040516103319190611fb1565b60405180910390f35b34801561034657600080fd5b50610361600480360381019061035c9190611bea565b6109c8565b60405161036e9190611fcc565b60405180910390f35b34801561038357600080fd5b5061039e60048036038101906103999190611cfa565b610b4b565b005b3480156103ac57600080fd5b506103c760048036038101906103c29190611cfa565b610b74565b005b3480156103d557600080fd5b506103de610bf7565b6040516103eb91906120c4565b60405180910390f35b34801561040057600080fd5b50610409610c01565b60405161041691906120c4565b60405180910390f35b34801561042b57600080fd5b50610434610c07565b005b34801561044257600080fd5b5061045d60048036038101906104589190611bea565b610c8f565b60405161046a9190611fcc565b60405180910390f35b34801561047f57600080fd5b50610488610e11565b60405161049591906120c4565b60405180910390f35b3480156104aa57600080fd5b506104b3610e17565b6040516104c09190612002565b60405180910390f35b3480156104d557600080fd5b506104de610ea5565b6040516104eb9190611fb1565b60405180910390f35b34801561050057600080fd5b5061051b60048036038101906105169190611bea565b610ece565b6040516105289190611fcc565b60405180910390f35b34801561053d57600080fd5b5061055860048036038101906105539190611cfa565b610eee565b6040516105659190611fcc565b60405180910390f35b34801561057a57600080fd5b50610583610f59565b6040516105909190611fb1565b60405180910390f35b3480156105a557600080fd5b506105c060048036038101906105bb9190611bea565b610f7f565b6040516105cd9190611fcc565b60405180910390f35b3480156105e257600080fd5b506105eb610f9f565b6040516105f89190611fe7565b60405180910390f35b34801561060d57600080fd5b5061062860048036038101906106239190611c44565b610fa6565b60405161063591906120c4565b60405180910390f35b34801561064a57600080fd5b5061066560048036038101906106609190611cfa565b610fd7565b005b34801561067357600080fd5b5061067c611000565b6040516106899190611fcc565b60405180910390f35b34801561069e57600080fd5b506106b960048036038101906106b49190611c84565b611013565b6040516106c69190611fcc565b60405180910390f35b3480156106db57600080fd5b506106f660048036038101906106f19190611bea565b6110fd565b6040516107039190611fcc565b60405180910390f35b34801561071857600080fd5b50610733600480360381019061072e9190611bea565b611153565b60405161074091906120c4565b60405180910390f35b34801561075557600080fd5b50610770600480360381019061076b9190611bea565b61116b565b005b34801561077e57600080fd5b50610787611263565b6040516107949190611fb1565b60405180910390f35b6107a56112d3565b6107b56107b06112d5565b611361565b565b601260009054906101000a900473ffffffffffffffffffffffffffffffffffffffff1681565b60007f7965db0b000000000000000000000000000000000000000000000000000000007bffffffffffffffffffffffffffffffffffffffffffffffffffffffff1916827bffffffffffffffffffffffffffffffffffffffffffffffffffffffff19161480610850575061084f82611387565b5b9050919050565b600b602052816000526040600020816008811061087357600080fd5b01600091509150505481565b600060016000838152602001908152602001600020600101549050919050565b60006108a96113f1565b73ffffffffffffffffffffffffffffffffffffffff166108c7610ea5565b73ffffffffffffffffffffffffffffffffffffffff161461091d576040517f08c379a000000000000000000000000000000000000000000000000000000000815260040161091490612064565b60405180910390fd5b60005b82518110156109835761094c83828151811061093f5761093e612436565b5b60200260200101516109c8565b1561097057600160036000828254610964919061221d565b92505081905550600191505b808061097b9061238f565b915050610920565b50919050565b600f818154811061099957600080fd5b906000526020600020016000915054906101000a900473ffffffffffffffffffffffffffffffffffffffff1681565b60006109d26113f1565b73ffffffffffffffffffffffffffffffffffffffff166109f0610ea5565b73ffffffffffffffffffffffffffffffffffffffff1614610a46576040517f08c379a0000000000000000000000000000000000000000000000000000000008152600401610a3d90612064565b60405180910390fd5b600260008373ffffffffffffffffffffffffffffffffffffffff1673ffffffffffffffffffffffffffffffffffffffff16815260200190815260200160002060009054906101000a900460ff1615610b46576000600260008473ffffffffffffffffffffffffffffffffffffffff1673ffffffffffffffffffffffffffffffffffffffff16815260200190815260200160002060006101000a81548160ff0219169083151502179055507ff1abf01a1043b7c244d128e8595cf0c1d10743b022b03a02dffd8ca3bf729f5a82604051610b1f9190611fb1565b60405180910390a1600160036000828254610b3a919061221d565b92505081905550600190505b919050565b610b548261087f565b610b6581610b606113f1565b6113f9565b610b6f8383611496565b505050565b610b7c6113f1565b73ffffffffffffffffffffffffffffffffffffffff168173ffffffffffffffffffffffffffffffffffffffff1614610be9576040517f08c379a0000000000000000000000000000000000000000000000000000000008152600401610be0906120a4565b60405180910390fd5b610bf38282611576565b5050565b6000600354905090565b60075481565b610c0f6113f1565b73ffffffffffffffffffffffffffffffffffffffff16610c2d610ea5565b73ffffffffffffffffffffffffffffffffffffffff1614610c83576040517f08c379a0000000000000000000000000000000000000000000000000000000008152600401610c7a90612064565b60405180910390fd5b610c8d6000611658565b565b6000610c996113f1565b73ffffffffffffffffffffffffffffffffffffffff16610cb7610ea5565b73ffffffffffffffffffffffffffffffffffffffff1614610d0d576040517f08c379a0000000000000000000000000000000000000000000000000000000008152600401610d0490612064565b60405180910390fd5b600260008373ffffffffffffffffffffffffffffffffffffffff1673ffffffffffffffffffffffffffffffffffffffff16815260200190815260200160002060009054906101000a900460ff16610e0c576001600260008473ffffffffffffffffffffffffffffffffffffffff1673ffffffffffffffffffffffffffffffffffffffff16815260200190815260200160002060006101000a81548160ff0219169083151502179055507fd1bba68c128cc3f427e5831b3c6f99f480b6efa6b9e80c757768f6124158cc3f82604051610de59190611fb1565b60405180910390a1600160036000828254610e00919061216d565b92505081905550600190505b919050565b60065481565b60058054610e249061232c565b80601f0160208091040260200160405190810160405280929190818152602001828054610e509061232c565b8015610e9d5780601f10610e7257610100808354040283529160200191610e9d565b820191906000526020600020905b815481529060010190602001808311610e8057829003601f168201915b505050505081565b60008060009054906101000a900473ffffffffffffffffffffffffffffffffffffffff16905090565b600e6020528060005260406000206000915054906101000a900460ff1681565b60006001600084815260200190815260200160002060000160008373ffffffffffffffffffffffffffffffffffffffff1673ffffffffffffffffffffffffffffffffffffffff16815260200190815260200160002060009054906101000a900460ff16905092915050565b601160009054906101000a900473ffffffffffffffffffffffffffffffffffffffff1681565b60026020528060005260406000206000915054906101000a900460ff1681565b6000801b81565b600d6020528160005260406000208181548110610fc257600080fd5b90600052602060002001600091509150505481565b610fe08261087f565b610ff181610fec6113f1565b6113f9565b610ffb8383611576565b505050565b600460009054906101000a900460ff1681565b600061101d6113f1565b73ffffffffffffffffffffffffffffffffffffffff1661103b610ea5565b73ffffffffffffffffffffffffffffffffffffffff1614611091576040517f08c379a000000000000000000000000000000000000000000000000000000000815260040161108890612064565b60405180910390fd5b60005b82518110156110f7576110c08382815181106110b3576110b2612436565b5b6020026020010151610c8f565b156110e4576001600360008282546110d8919061216d565b92505081905550600191505b80806110ef9061238f565b915050611094565b50919050565b6000600260008373ffffffffffffffffffffffffffffffffffffffff1673ffffffffffffffffffffffffffffffffffffffff16815260200190815260200160002060009054906101000a900460ff169050919050565b600a6020528060005260406000206000915090505481565b6111736113f1565b73ffffffffffffffffffffffffffffffffffffffff16611191610ea5565b73ffffffffffffffffffffffffffffffffffffffff16146111e7576040517f08c379a00000000000000000000000000000000000000000000000000000000081526004016111de90612064565b60405180910390fd5b600073ffffffffffffffffffffffffffffffffffffffff168173ffffffffffffffffffffffffffffffffffffffff161415611257576040517f08c379a000000000000000000000000000000000000000000000000000000000815260040161124e90612044565b60405180910390fd5b61126081611658565b50565b600860009054906101000a900473ffffffffffffffffffffffffffffffffffffffff1681565b60606112ae83836040518060600160405280602781526020016126a76027913961171c565b905092915050565b600080823b905060008111915050919050565b6000819050919050565b565b60006112df6117e9565b73ffffffffffffffffffffffffffffffffffffffff16635c60da1b6040518163ffffffff1660e01b815260040160206040518083038186803b15801561132457600080fd5b505afa158015611338573d6000803e3d6000fd5b505050506040513d601f19601f8201168201806040525081019061135c9190611c17565b905090565b3660008037600080366000845af43d6000803e8060008114611382573d6000f35b3d6000fd5b60007f01ffc9a7000000000000000000000000000000000000000000000000000000007bffffffffffffffffffffffffffffffffffffffffffffffffffffffff1916827bffffffffffffffffffffffffffffffffffffffffffffffffffffffff1916149050919050565b600033905090565b6114038282610eee565b611492576114288173ffffffffffffffffffffffffffffffffffffffff166014611840565b6114368360001c6020611840565b604051602001611447929190611f77565b6040516020818303038152906040526040517f08c379a00000000000000000000000000000000000000000000000000000000081526004016114899190612002565b60405180910390fd5b5050565b6114a08282610eee565b61157257600180600084815260200190815260200160002060000160008373ffffffffffffffffffffffffffffffffffffffff1673ffffffffffffffffffffffffffffffffffffffff16815260200190815260200160002060006101000a81548160ff0219169083151502179055506115176113f1565b73ffffffffffffffffffffffffffffffffffffffff168173ffffffffffffffffffffffffffffffffffffffff16837f2f8788117e7eff1d82e926ec794901d17c78024a50270940304540a733656f0d60405160405180910390a45b5050565b6115808282610eee565b156116545760006001600084815260200190815260200160002060000160008373ffffffffffffffffffffffffffffffffffffffff1673ffffffffffffffffffffffffffffffffffffffff16815260200190815260200160002060006101000a81548160ff0219169083151502179055506115f96113f1565b73ffffffffffffffffffffffffffffffffffffffff168173ffffffffffffffffffffffffffffffffffffffff16837ff6391f5c32d9c69d2a47ea670b442974b53935d1edc7fd64eb21e047a839171b60405160405180910390a45b5050565b60008060009054906101000a900473ffffffffffffffffffffffffffffffffffffffff169050816000806101000a81548173ffffffffffffffffffffffffffffffffffffffff021916908373ffffffffffffffffffffffffffffffffffffffff1602179055508173ffffffffffffffffffffffffffffffffffffffff168173ffffffffffffffffffffffffffffffffffffffff167f8be0079c531659141344cd1fd0a4f28419497f9722a3daafe3b4186f6b6457e060405160405180910390a35050565b6060611727846112b6565b611766576040517f08c379a000000000000000000000000000000000000000000000000000000000815260040161175d90612084565b60405180910390fd5b6000808573ffffffffffffffffffffffffffffffffffffffff168560405161178e9190611f60565b600060405180830381855af49150503d80600081146117c9576040519150601f19603f3d011682016040523d82523d6000602084013e6117ce565b606091505b50915091506117de828286611a7c565b925050509392505050565b60006118177fa3f0ad74e5423aebfd80d3ef4346578335a9a72aeaee59ff6cb3582b35133d5060001b6112c9565b60000160009054906101000a900473ffffffffffffffffffffffffffffffffffffffff16905090565b60606000600283600261185391906121c3565b61185d919061216d565b67ffffffffffffffff81111561187657611875612465565b5b6040519080825280601f01601f1916602001820160405280156118a85781602001600182028036833780820191505090505b5090507f3000000000000000000000000000000000000000000000000000000000000000816000815181106118e0576118df612436565b5b60200101907effffffffffffffffffffffffffffffffffffffffffffffffffffffffffffff1916908160001a9053507f78000000000000000000000000000000000000000000000000000000000000008160018151811061194457611943612436565b5b60200101907effffffffffffffffffffffffffffffffffffffffffffffffffffffffffffff1916908160001a9053506000600184600261198491906121c3565b61198e919061216d565b90505b6001811115611a2e577f3031323334353637383961626364656600000000000000000000000000000000600f8616601081106119d0576119cf612436565b5b1a60f81b8282815181106119e7576119e6612436565b5b60200101907effffffffffffffffffffffffffffffffffffffffffffffffffffffffffffff1916908160001a905350600485901c945080611a2790612302565b9050611991565b5060008414611a72576040517f08c379a0000000000000000000000000000000000000000000000000000000008152600401611a6990612024565b60405180910390fd5b8091505092915050565b60608315611a8c57829050611adc565b600083511115611a9f5782518084602001fd5b816040517f08c379a0000000000000000000000000000000000000000000000000000000008152600401611ad39190612002565b60405180910390fd5b9392505050565b6000611af6611af184612104565b6120df565b90508083825260208201905082856020860282011115611b1957611b18612499565b5b60005b85811015611b495781611b2f8882611b53565b845260208401935060208301925050600181019050611b1c565b5050509392505050565b600081359050611b628161264a565b92915050565b600081519050611b778161264a565b92915050565b600082601f830112611b9257611b91612494565b5b8135611ba2848260208601611ae3565b91505092915050565b600081359050611bba81612661565b92915050565b600081359050611bcf81612678565b92915050565b600081359050611be48161268f565b92915050565b600060208284031215611c0057611bff6124a3565b5b6000611c0e84828501611b53565b91505092915050565b600060208284031215611c2d57611c2c6124a3565b5b6000611c3b84828501611b68565b91505092915050565b60008060408385031215611c5b57611c5a6124a3565b5b6000611c6985828601611b53565b9250506020611c7a85828601611bd5565b9150509250929050565b600060208284031215611c9a57611c996124a3565b5b600082013567ffffffffffffffff811115611cb857611cb761249e565b5b611cc484828501611b7d565b91505092915050565b600060208284031215611ce357611ce26124a3565b5b6000611cf184828501611bab565b91505092915050565b60008060408385031215611d1157611d106124a3565b5b6000611d1f85828601611bab565b9250506020611d3085828601611b53565b9150509250929050565b600060208284031215611d5057611d4f6124a3565b5b6000611d5e84828501611bc0565b91505092915050565b600060208284031215611d7d57611d7c6124a3565b5b6000611d8b84828501611bd5565b91505092915050565b611d9d81612251565b82525050565b611dac81612263565b82525050565b611dbb8161226f565b82525050565b6000611dcc82612130565b611dd68185612146565b9350611de68185602086016122cf565b80840191505092915050565b6000611dfd8261213b565b611e078185612151565b9350611e178185602086016122cf565b611e20816124a8565b840191505092915050565b6000611e368261213b565b611e408185612162565b9350611e508185602086016122cf565b80840191505092915050565b6000611e69602083612151565b9150611e74826124b9565b602082019050919050565b6000611e8c602683612151565b9150611e97826124e2565b604082019050919050565b6000611eaf602083612151565b9150611eba82612531565b602082019050919050565b6000611ed2602683612151565b9150611edd8261255a565b604082019050919050565b6000611ef5601783612162565b9150611f00826125a9565b601782019050919050565b6000611f18601183612162565b9150611f23826125d2565b601182019050919050565b6000611f3b602f83612151565b9150611f46826125fb565b604082019050919050565b611f5a816122c5565b82525050565b6000611f6c8284611dc1565b915081905092915050565b6000611f8282611ee8565b9150611f8e8285611e2b565b9150611f9982611f0b565b9150611fa58284611e2b565b91508190509392505050565b6000602082019050611fc66000830184611d94565b92915050565b6000602082019050611fe16000830184611da3565b92915050565b6000602082019050611ffc6000830184611db2565b92915050565b6000602082019050818103600083015261201c8184611df2565b905092915050565b6000602082019050818103600083015261203d81611e5c565b9050919050565b6000602082019050818103600083015261205d81611e7f565b9050919050565b6000602082019050818103600083015261207d81611ea2565b9050919050565b6000602082019050818103600083015261209d81611ec5565b9050919050565b600060208201905081810360008301526120bd81611f2e565b9050919050565b60006020820190506120d96000830184611f51565b92915050565b60006120e96120fa565b90506120f5828261235e565b919050565b6000604051905090565b600067ffffffffffffffff82111561211f5761211e612465565b5b602082029050602081019050919050565b600081519050919050565b600081519050919050565b600081905092915050565b600082825260208201905092915050565b600081905092915050565b6000612178826122c5565b9150612183836122c5565b9250827fffffffffffffffffffffffffffffffffffffffffffffffffffffffffffffffff038211156121b8576121b76123d8565b5b828201905092915050565b60006121ce826122c5565b91506121d9836122c5565b9250817fffffffffffffffffffffffffffffffffffffffffffffffffffffffffffffffff0483118215151615612212576122116123d8565b5b828202905092915050565b6000612228826122c5565b9150612233836122c5565b925082821015612246576122456123d8565b5b828203905092915050565b600061225c826122a5565b9050919050565b60008115159050919050565b6000819050919050565b60007fffffffff0000000000000000000000000000000000000000000000000000000082169050919050565b600073ffffffffffffffffffffffffffffffffffffffff82169050919050565b6000819050919050565b60005b838110156122ed5780820151818401526020810190506122d2565b838111156122fc576000848401525b50505050565b600061230d826122c5565b91506000821415612321576123206123d8565b5b600182039050919050565b6000600282049050600182168061234457607f821691505b6020821081141561235857612357612407565b5b50919050565b612367826124a8565b810181811067ffffffffffffffff8211171561238657612385612465565b5b80604052505050565b600061239a826122c5565b91507fffffffffffffffffffffffffffffffffffffffffffffffffffffffffffffffff8214156123cd576123cc6123d8565b5b600182019050919050565b7f4e487b7100000000000000000000000000000000000000000000000000000000600052601160045260246000fd5b7f4e487b7100000000000000000000000000000000000000000000000000000000600052602260045260246000fd5b7f4e487b7100000000000000000000000000000000000000000000000000000000600052603260045260246000fd5b7f4e487b7100000000000000000000000000000000000000000000000000000000600052604160045260246000fd5b600080fd5b600080fd5b600080fd5b600080fd5b6000601f19601f8301169050919050565b7f537472696e67733a20686578206c656e67746820696e73756666696369656e74600082015250565b7f4f776e61626c653a206e6577206f776e657220697320746865207a65726f206160008201527f6464726573730000000000000000000000000000000000000000000000000000602082015250565b7f4f776e61626c653a2063616c6c6572206973206e6f7420746865206f776e6572600082015250565b7f416464726573733a2064656c65676174652063616c6c20746f206e6f6e2d636f60008201527f6e74726163740000000000000000000000000000000000000000000000000000602082015250565b7f416363657373436f6e74726f6c3a206163636f756e7420000000000000000000600082015250565b7f206973206d697373696e6720726f6c6520000000000000000000000000000000600082015250565b7f416363657373436f6e74726f6c3a2063616e206f6e6c792072656e6f756e636560008201527f20726f6c657320666f722073656c660000000000000000000000000000000000602082015250565b61265381612251565b811461265e57600080fd5b50565b61266a8161226f565b811461267557600080fd5b50565b61268181612279565b811461268c57600080fd5b50565b612698816122c5565b81146126a357600080fd5b5056fe416464726573733a206c6f772d6c6576656c2064656c65676174652063616c6c206661696c6564a26469706673582212206776dd7b847daefc4cf00ff337a356570b2c97bd2a41131cfc1f0098bfbe909e64736f6c63430008070033416464726573733a206c6f772d6c6576656c2064656c65676174652063616c6c206661696c6564a26469706673582212202463fd385a19dc2c94e3a0fa6f2cad50f97c182701bbdcc380646b5e6e55e0d364736f6c63430008070033608060405234801561001057600080fd5b5060405162000a9138038062000a91833981810160405281019061003491906101ef565b61005061004561006560201b60201c565b61006d60201b60201c565b61005f8161013160201b60201c565b5061030d565b600033905090565b60008060009054906101000a900473ffffffffffffffffffffffffffffffffffffffff169050816000806101000a81548173ffffffffffffffffffffffffffffffffffffffff021916908373ffffffffffffffffffffffffffffffffffffffff1602179055508173ffffffffffffffffffffffffffffffffffffffff168173ffffffffffffffffffffffffffffffffffffffff167f8be0079c531659141344cd1fd0a4f28419497f9722a3daafe3b4186f6b6457e060405160405180910390a35050565b610144816101c760201b6103781760201c565b610183576040517f08c379a000000000000000000000000000000000000000000000000000000000815260040161017a9061023f565b60405180910390fd5b80600160006101000a81548173ffffffffffffffffffffffffffffffffffffffff021916908373ffffffffffffffffffffffffffffffffffffffff16021790555050565b600080823b905060008111915050919050565b6000815190506101e9816102f6565b92915050565b600060208284031215610205576102046102a2565b5b6000610213848285016101da565b91505092915050565b600061022960338361025f565b9150610234826102a7565b604082019050919050565b600060208201905081810360008301526102588161021c565b9050919050565b600082825260208201905092915050565b600061027b82610282565b9050919050565b600073ffffffffffffffffffffffffffffffffffffffff82169050919050565b600080fd5b7f5570677261646561626c65426561636f6e3a20696d706c656d656e746174696f60008201527f6e206973206e6f74206120636f6e747261637400000000000000000000000000602082015250565b6102ff81610270565b811461030a57600080fd5b50565b610774806200031d6000396000f3fe608060405234801561001057600080fd5b50600436106100575760003560e01c80633659cfe61461005c5780635c60da1b14610078578063715018a6146100965780638da5cb5b146100a0578063f2fde38b146100be575b600080fd5b610076600480360381019061007191906104f8565b6100da565b005b6100806101a5565b60405161008d919061059d565b60405180910390f35b61009e6101cf565b005b6100a8610257565b6040516100b5919061059d565b60405180910390f35b6100d860048036038101906100d391906104f8565b610280565b005b6100e261038b565b73ffffffffffffffffffffffffffffffffffffffff16610100610257565b73ffffffffffffffffffffffffffffffffffffffff1614610156576040517f08c379a000000000000000000000000000000000000000000000000000000000815260040161014d906105f8565b60405180910390fd5b61015f81610393565b8073ffffffffffffffffffffffffffffffffffffffff167fbc7cd75a20ee27fd9adebab32041f755214dbc6bffa90cc0225b39da2e5c2d3b60405160405180910390a250565b6000600160009054906101000a900473ffffffffffffffffffffffffffffffffffffffff16905090565b6101d761038b565b73ffffffffffffffffffffffffffffffffffffffff166101f5610257565b73ffffffffffffffffffffffffffffffffffffffff161461024b576040517f08c379a0000000000000000000000000000000000000000000000000000000008152600401610242906105f8565b60405180910390fd5b610255600061041f565b565b60008060009054906101000a900473ffffffffffffffffffffffffffffffffffffffff16905090565b61028861038b565b73ffffffffffffffffffffffffffffffffffffffff166102a6610257565b73ffffffffffffffffffffffffffffffffffffffff16146102fc576040517f08c379a00000000000000000000000000000000000000000000000000000000081526004016102f3906105f8565b60405180910390fd5b600073ffffffffffffffffffffffffffffffffffffffff168173ffffffffffffffffffffffffffffffffffffffff16141561036c576040517f08c379a0000000000000000000000000000000000000000000000000000000008152600401610363906105b8565b60405180910390fd5b6103758161041f565b50565b600080823b905060008111915050919050565b600033905090565b61039c81610378565b6103db576040517f08c379a00000000000000000000000000000000000000000000000000000000081526004016103d2906105d8565b60405180910390fd5b80600160006101000a81548173ffffffffffffffffffffffffffffffffffffffff021916908373ffffffffffffffffffffffffffffffffffffffff16021790555050565b60008060009054906101000a900473ffffffffffffffffffffffffffffffffffffffff169050816000806101000a81548173ffffffffffffffffffffffffffffffffffffffff021916908373ffffffffffffffffffffffffffffffffffffffff1602179055508173ffffffffffffffffffffffffffffffffffffffff168173ffffffffffffffffffffffffffffffffffffffff167f8be0079c531659141344cd1fd0a4f28419497f9722a3daafe3b4186f6b6457e060405160405180910390a35050565b6000813590506104f281610727565b92915050565b60006020828403121561050e5761050d61065b565b5b600061051c848285016104e3565b91505092915050565b61052e81610629565b82525050565b6000610541602683610618565b915061054c82610660565b604082019050919050565b6000610564603383610618565b915061056f826106af565b604082019050919050565b6000610587602083610618565b9150610592826106fe565b602082019050919050565b60006020820190506105b26000830184610525565b92915050565b600060208201905081810360008301526105d181610534565b9050919050565b600060208201905081810360008301526105f181610557565b9050919050565b600060208201905081810360008301526106118161057a565b9050919050565b600082825260208201905092915050565b60006106348261063b565b9050919050565b600073ffffffffffffffffffffffffffffffffffffffff82169050919050565b600080fd5b7f4f776e61626c653a206e6577206f776e657220697320746865207a65726f206160008201527f6464726573730000000000000000000000000000000000000000000000000000602082015250565b7f5570677261646561626c65426561636f6e3a20696d706c656d656e746174696f60008201527f6e206973206e6f74206120636f6e747261637400000000000000000000000000602082015250565b7f4f776e61626c653a2063616c6c6572206973206e6f7420746865206f776e6572600082015250565b61073081610629565b811461073b57600080fd5b5056fea2646970667358221220f14c1e123fc6650c2510ce92a5938ce8dbd619e20ec5ceb7ad4526f9ccdb6aca64736f6c63430008070033",
  "linkReferences": {},
  "deployedLinkReferences": {}
}