{
  "_format": "hh-sol-artifact-1",
  "contractName": "LeagueMaker",
  "sourceName": "contracts/LeagueMaker.sol",
  "abi": [
    {
      "inputs": [
        {
          "internalType": "address",
          "name": "_logic",
          "type": "address"
        }
      ],
      "stateMutability": "nonpayable",
      "type": "constructor"
    },
    {
      "anonymous": false,
      "inputs": [
        {
          "indexed": false,
          "internalType": "string",
          "name": "name",
          "type": "string"
        },
        {
          "indexed": false,
          "internalType": "address",
          "name": "a",
          "type": "address"
        }
      ],
      "name": "LeagueCreated",
      "type": "event"
    },
    {
      "anonymous": false,
      "inputs": [
        {
          "indexed": false,
          "internalType": "bool",
          "name": "success",
          "type": "bool"
        },
        {
          "indexed": false,
          "internalType": "bytes",
          "name": "data",
          "type": "bytes"
        }
      ],
      "name": "Response",
      "type": "event"
    },
    {
      "anonymous": false,
      "inputs": [
        {
          "indexed": false,
          "internalType": "address",
          "name": "clone",
          "type": "address"
        }
      ],
      "name": "cloneCreated",
      "type": "event"
    },
    {
      "inputs": [
        {
          "internalType": "address[]",
          "name": "addresses",
          "type": "address[]"
        },
        {
          "internalType": "address",
          "name": "_addr",
          "type": "address"
        }
      ],
      "name": "addUsersToLeagueHelper",
      "outputs": [],
      "stateMutability": "nonpayable",
      "type": "function"
    },
    {
      "inputs": [
        {
          "internalType": "string",
          "name": "_name",
          "type": "string"
        },
        {
          "internalType": "uint256",
          "name": "_stakeAmount",
          "type": "uint256"
        },
        {
          "internalType": "bool",
          "name": "_isPublic",
          "type": "bool"
        }
      ],
      "name": "createLeague",
      "outputs": [
        {
          "internalType": "address",
          "name": "",
          "type": "address"
        }
      ],
      "stateMutability": "nonpayable",
      "type": "function"
    },
    {
      "inputs": [],
      "name": "currentWeek",
      "outputs": [
        {
          "internalType": "uint256",
          "name": "",
          "type": "uint256"
        }
      ],
      "stateMutability": "view",
      "type": "function"
    },
    {
      "inputs": [],
      "name": "evaluateWeekForAllLeagues",
      "outputs": [],
      "stateMutability": "nonpayable",
      "type": "function"
    },
    {
      "inputs": [],
      "name": "getBeacon",
      "outputs": [
        {
          "internalType": "address",
          "name": "",
          "type": "address"
        }
      ],
      "stateMutability": "view",
      "type": "function"
    },
    {
      "inputs": [
        {
          "internalType": "uint256",
          "name": "",
          "type": "uint256"
        }
      ],
      "name": "leagueAddresses",
      "outputs": [
        {
          "internalType": "address",
          "name": "",
          "type": "address"
        }
      ],
      "stateMutability": "view",
      "type": "function"
    },
    {
      "inputs": [],
      "name": "lockLeagueLineups",
      "outputs": [],
      "stateMutability": "nonpayable",
      "type": "function"
    },
    {
      "inputs": [],
      "name": "parameters",
      "outputs": [
        {
          "internalType": "string",
          "name": "name",
          "type": "string"
        },
        {
          "internalType": "uint256",
          "name": "version",
          "type": "uint256"
        },
        {
          "internalType": "uint256",
          "name": "numWeeks",
          "type": "uint256"
        },
        {
          "internalType": "uint256",
          "name": "stakeAmount",
          "type": "uint256"
        },
        {
          "internalType": "bool",
          "name": "isPublic",
          "type": "bool"
        },
        {
          "internalType": "address",
          "name": "athletesDataStorageAddress",
          "type": "address"
        },
        {
          "internalType": "address",
          "name": "owner",
          "type": "address"
        },
        {
          "internalType": "address",
          "name": "admin",
          "type": "address"
        },
        {
          "internalType": "address",
          "name": "polygonUSDCAddress",
          "type": "address"
        },
        {
          "internalType": "address",
          "name": "rinkebyUSDCAddress",
          "type": "address"
        }
      ],
      "stateMutability": "view",
      "type": "function"
    },
    {
      "inputs": [
        {
          "internalType": "address",
          "name": "logic",
          "type": "address"
        }
      ],
      "name": "setBeacon",
      "outputs": [
        {
          "internalType": "address",
          "name": "",
          "type": "address"
        }
      ],
      "stateMutability": "nonpayable",
      "type": "function"
    },
    {
      "inputs": [],
      "name": "setLeagueSchedules",
      "outputs": [],
      "stateMutability": "nonpayable",
      "type": "function"
    },
    {
      "inputs": [
        {
          "internalType": "address",
          "name": "_addr",
          "type": "address"
        }
      ],
      "name": "testCallDoesNotExist",
      "outputs": [],
      "stateMutability": "nonpayable",
      "type": "function"
    },
    {
      "inputs": [],
      "name": "unlockLeagueLineups",
      "outputs": [],
      "stateMutability": "nonpayable",
      "type": "function"
    },
    {
      "inputs": [
        {
          "internalType": "address",
          "name": "user",
          "type": "address"
        }
      ],
      "name": "updateUserToLeagueMapping",
      "outputs": [],
      "stateMutability": "nonpayable",
      "type": "function"
    },
    {
      "inputs": [
        {
          "internalType": "address",
          "name": "",
          "type": "address"
        },
        {
          "internalType": "uint256",
          "name": "",
          "type": "uint256"
        }
      ],
      "name": "userToLeagueMap",
      "outputs": [
        {
          "internalType": "address",
          "name": "",
          "type": "address"
        }
      ],
      "stateMutability": "view",
      "type": "function"
    }
  ],
  "bytecode": "0x60c06040526000600c556000600d556008600e55732791bca1f2de4661ed88a30c99a7a9449aa84174600f60006101000a81548173ffffffffffffffffffffffffffffffffffffffff021916908373ffffffffffffffffffffffffffffffffffffffff16021790555073eb8f08a975ab53e34d8a0330e0d34de942c95926601060006101000a81548173ffffffffffffffffffffffffffffffffffffffff021916908373ffffffffffffffffffffffffffffffffffffffff160217905550348015620000ca57600080fd5b506040516200788c3803806200788c8339818101604052810190620000f09190620001fb565b80604051620000ff90620001c8565b6200010b91906200023e565b604051809103906000f08015801562000128573d6000803e3d6000fd5b5073ffffffffffffffffffffffffffffffffffffffff1660808173ffffffffffffffffffffffffffffffffffffffff1660601b815250506040516200016d90620001d6565b604051809103906000f0801580156200018a573d6000803e3d6000fd5b5073ffffffffffffffffffffffffffffffffffffffff1660a08173ffffffffffffffffffffffffffffffffffffffff1660601b8152505050620002ae565b610a918062005da483390190565b611057806200683583390190565b600081519050620001f58162000294565b92915050565b6000602082840312156200021457620002136200028f565b5b60006200022484828501620001e4565b91505092915050565b62000238816200025b565b82525050565b60006020820190506200025560008301846200022d565b92915050565b600062000268826200026f565b9050919050565b600073ffffffffffffffffffffffffffffffffffffffff82169050919050565b600080fd5b6200029f816200025b565b8114620002ab57600080fd5b50565b60805160601c60a05160601c615ac3620002e1600039600061079f0152600081816103260152610bad0152615ac36000f3fe60806040523480156200001157600080fd5b5060043610620001005760003560e01c8063890357301162000099578063c49986a5116200006f578063c49986a5146200026e578063d42afb56146200027a578063d54c9d1614620002b0578063ff00726c14620002bc5762000100565b8063890357301462000201578063a945320f146200022c578063c3530ff414620002385762000100565b8063449f77fb11620000db578063449f77fb146200017f57806374663deb146200018b578063771bd4ce14620001ab578063804a54ad14620001cb5762000100565b806306575c89146200010557806329ffe5e914620001275780632d6b3a6b146200015d575b600080fd5b6200010f620002dc565b6040516200011e919062001dc9565b60405180910390f35b6200014560048036038101906200013f9190620019f0565b620002e2565b60405162000154919062001bb3565b60405180910390f35b6200016762000322565b60405162000176919062001bb3565b60405180910390f35b620001896200034a565b005b620001a96004803603810190620001a391906200190a565b620004fb565b005b620001c96004803603810190620001c3919062001891565b62000684565b005b620001e96004803603810190620001e3919062001970565b62000727565b604051620001f8919062001bb3565b60405180910390f35b6200020b62000dbd565b604051620002239a9998979695949392919062001c38565b60405180910390f35b6200023662000f3c565b005b620002566004803603810190620002509190620018c3565b620010de565b60405162000265919062001bb3565b60405180910390f35b620002786200112d565b005b62000298600480360381019062000292919062001891565b620012cf565b604051620002a7919062001bb3565b60405180910390f35b620002ba62001356565b005b620002da6004803603810190620002d4919062001891565b620014f8565b005b600c5481565b60018181548110620002f357600080fd5b906000526020600020016000915054906101000a900473ffffffffffffffffffffffffffffffffffffffff1681565b60007f0000000000000000000000000000000000000000000000000000000000000000905090565b6000606060005b600180549050811015620004f657600181815481106200037657620003756200202e565b5b9060005260206000200160009054906101000a900473ffffffffffffffffffffffffffffffffffffffff1673ffffffffffffffffffffffffffffffffffffffff16600c54604051602401620003cc919062001dc9565b6040516020818303038152906040527fa3e52e0e000000000000000000000000000000000000000000000000000000007bffffffffffffffffffffffffffffffffffffffffffffffffffffffff19166020820180517bffffffffffffffffffffffffffffffffffffffffffffffffffffffff838183161783525050505060405162000458919062001b9a565b6000604051808303816000865af19150503d806000811462000497576040519150601f19603f3d011682016040523d82523d6000602084013e6200049c565b606091505b5080935081945050507f13848c3e38f8886f3f5d2ad9dff80d8092c2bbb8efd5b887a99c2c6cfc09ac2a8383604051620004d892919062001c04565b60405180910390a18080620004ed9062001f82565b91505062000351565b505050565b6000606060005b845181101562000642578373ffffffffffffffffffffffffffffffffffffffff168582815181106200053957620005386200202e565b5b602002602001015160405160240162000553919062001bb3565b6040516020818303038152906040527f087e18a7000000000000000000000000000000000000000000000000000000007bffffffffffffffffffffffffffffffffffffffffffffffffffffffff19166020820180517bffffffffffffffffffffffffffffffffffffffffffffffffffffffff8381831617835250505050604051620005df919062001b9a565b6000604051808303816000865af19150503d80600081146200061e576040519150601f19603f3d011682016040523d82523d6000602084013e62000623565b606091505b5080935081945050508080620006399062001f82565b91505062000502565b507f13848c3e38f8886f3f5d2ad9dff80d8092c2bbb8efd5b887a99c2c6cfc09ac2a82826040516200067692919062001c04565b60405180910390a150505050565b600260008273ffffffffffffffffffffffffffffffffffffffff1673ffffffffffffffffffffffffffffffffffffffff168152602001908152602001600020339080600181540180825580915050600190039060005260206000200160009091909190916101000a81548173ffffffffffffffffffffffffffffffffffffffff021916908373ffffffffffffffffffffffffffffffffffffffff16021790555050565b600060405180610140016040528086868080601f016020809104026020016040519081016040528093929190818152602001838380828437600081840152601f19601f820116905080830192505050505050508152602001600d548152602001600e54815260200184815260200183151581526020017f000000000000000000000000000000000000000000000000000000000000000073ffffffffffffffffffffffffffffffffffffffff1681526020013073ffffffffffffffffffffffffffffffffffffffff1681526020013373ffffffffffffffffffffffffffffffffffffffff168152602001600f60009054906101000a900473ffffffffffffffffffffffffffffffffffffffff1673ffffffffffffffffffffffffffffffffffffffff168152602001601060009054906101000a900473ffffffffffffffffffffffffffffffffffffffff1673ffffffffffffffffffffffffffffffffffffffff1681525060036000820151816000019080519060200190620008ab9291906200162d565b5060208201518160010155604082015181600201556060820151816003015560808201518160040160006101000a81548160ff02191690831515021790555060a08201518160040160016101000a81548173ffffffffffffffffffffffffffffffffffffffff021916908373ffffffffffffffffffffffffffffffffffffffff16021790555060c08201518160050160006101000a81548173ffffffffffffffffffffffffffffffffffffffff021916908373ffffffffffffffffffffffffffffffffffffffff16021790555060e08201518160060160006101000a81548173ffffffffffffffffffffffffffffffffffffffff021916908373ffffffffffffffffffffffffffffffffffffffff1602179055506101008201518160070160006101000a81548173ffffffffffffffffffffffffffffffffffffffff021916908373ffffffffffffffffffffffffffffffffffffffff1602179055506101208201518160080160006101000a81548173ffffffffffffffffffffffffffffffffffffffff021916908373ffffffffffffffffffffffffffffffffffffffff160217905550905050600060036000016003600101546003800154600360040160009054906101000a900460ff16600360040160019054906101000a900473ffffffffffffffffffffffffffffffffffffffff16600360060160009054906101000a900473ffffffffffffffffffffffffffffffffffffffff16600360070160009054906101000a900473ffffffffffffffffffffffffffffffffffffffff16600360080160009054906101000a900473ffffffffffffffffffffffffffffffffffffffff163060405160240162000b2a9998979695949392919062001d23565b6040516020818303038152906040527f0bdcd5f0000000000000000000000000000000000000000000000000000000007bffffffffffffffffffffffffffffffffffffffffffffffffffffffff19166020820180517bffffffffffffffffffffffffffffffffffffffffffffffffffffffff8381831617835250505050905060007f00000000000000000000000000000000000000000000000000000000000000008260405162000bdb90620016be565b62000be892919062001bd0565b604051809103906000f08015801562000c05573d6000803e3d6000fd5b5090506001819080600181540180825580915050600190039060005260206000200160009091909190916101000a81548173ffffffffffffffffffffffffffffffffffffffff021916908373ffffffffffffffffffffffffffffffffffffffff1602179055507f6f41e080f0ba3b200797d7e512fbca5fa5d4b72f7d8fb62d6fb40997ea96798060036000018260405162000ca292919062001cef565b60405180910390a160036000808201600062000cbf9190620016cc565b6001820160009055600282016000905560038201600090556004820160006101000a81549060ff02191690556004820160016101000a81549073ffffffffffffffffffffffffffffffffffffffff02191690556005820160006101000a81549073ffffffffffffffffffffffffffffffffffffffff02191690556006820160006101000a81549073ffffffffffffffffffffffffffffffffffffffff02191690556007820160006101000a81549073ffffffffffffffffffffffffffffffffffffffff02191690556008820160006101000a81549073ffffffffffffffffffffffffffffffffffffffff021916905550508092505050949350505050565b600380600001805462000dd09062001f16565b80601f016020809104026020016040519081016040528092919081815260200182805462000dfe9062001f16565b801562000e4f5780601f1062000e235761010080835404028352916020019162000e4f565b820191906000526020600020905b81548152906001019060200180831162000e3157829003601f168201915b5050505050908060010154908060020154908060030154908060040160009054906101000a900460ff16908060040160019054906101000a900473ffffffffffffffffffffffffffffffffffffffff16908060050160009054906101000a900473ffffffffffffffffffffffffffffffffffffffff16908060060160009054906101000a900473ffffffffffffffffffffffffffffffffffffffff16908060070160009054906101000a900473ffffffffffffffffffffffffffffffffffffffff16908060080160009054906101000a900473ffffffffffffffffffffffffffffffffffffffff1690508a565b6000606060005b600180549050811015620010d9576001818154811062000f685762000f676200202e565b5b9060005260206000200160009054906101000a900473ffffffffffffffffffffffffffffffffffffffff1673ffffffffffffffffffffffffffffffffffffffff166040516024016040516020818303038152906040527f0655465a000000000000000000000000000000000000000000000000000000007bffffffffffffffffffffffffffffffffffffffffffffffffffffffff19166020820180517bffffffffffffffffffffffffffffffffffffffffffffffffffffffff83818316178352505050506040516200103b919062001b9a565b6000604051808303816000865af19150503d80600081146200107a576040519150601f19603f3d011682016040523d82523d6000602084013e6200107f565b606091505b5080935081945050507f13848c3e38f8886f3f5d2ad9dff80d8092c2bbb8efd5b887a99c2c6cfc09ac2a8383604051620010bb92919062001c04565b60405180910390a18080620010d09062001f82565b91505062000f43565b505050565b60026020528160005260406000208181548110620010fb57600080fd5b906000526020600020016000915091509054906101000a900473ffffffffffffffffffffffffffffffffffffffff1681565b6000606060005b600180549050811015620012ca57600181815481106200115957620011586200202e565b5b9060005260206000200160009054906101000a900473ffffffffffffffffffffffffffffffffffffffff1673ffffffffffffffffffffffffffffffffffffffff166040516024016040516020818303038152906040527fa2bc091a000000000000000000000000000000000000000000000000000000007bffffffffffffffffffffffffffffffffffffffffffffffffffffffff19166020820180517bffffffffffffffffffffffffffffffffffffffffffffffffffffffff83818316178352505050506040516200122c919062001b9a565b6000604051808303816000865af19150503d80600081146200126b576040519150601f19603f3d011682016040523d82523d6000602084013e62001270565b606091505b5080935081945050507f13848c3e38f8886f3f5d2ad9dff80d8092c2bbb8efd5b887a99c2c6cfc09ac2a8383604051620012ac92919062001c04565b60405180910390a18080620012c19062001f82565b91505062001134565b505050565b60008082604051620012e19062001712565b620012ed919062001bb3565b604051809103906000f0801580156200130a573d6000803e3d6000fd5b509050806000806101000a81548173ffffffffffffffffffffffffffffffffffffffff021916908373ffffffffffffffffffffffffffffffffffffffff16021790555080915050919050565b6000606060005b600180549050811015620014f357600181815481106200138257620013816200202e565b5b9060005260206000200160009054906101000a900473ffffffffffffffffffffffffffffffffffffffff1673ffffffffffffffffffffffffffffffffffffffff166040516024016040516020818303038152906040527fc8be3b5b000000000000000000000000000000000000000000000000000000007bffffffffffffffffffffffffffffffffffffffffffffffffffffffff19166020820180517bffffffffffffffffffffffffffffffffffffffffffffffffffffffff838183161783525050505060405162001455919062001b9a565b6000604051808303816000865af19150503d806000811462001494576040519150601f19603f3d011682016040523d82523d6000602084013e62001499565b606091505b5080935081945050507f13848c3e38f8886f3f5d2ad9dff80d8092c2bbb8efd5b887a99c2c6cfc09ac2a8383604051620014d592919062001c04565b60405180910390a18080620014ea9062001f82565b9150506200135d565b505050565b6000808273ffffffffffffffffffffffffffffffffffffffff166040516024016040516020818303038152906040527f2cf0a1fc000000000000000000000000000000000000000000000000000000007bffffffffffffffffffffffffffffffffffffffffffffffffffffffff19166020820180517bffffffffffffffffffffffffffffffffffffffffffffffffffffffff8381831617835250505050604051620015a4919062001b9a565b6000604051808303816000865af19150503d8060008114620015e3576040519150601f19603f3d011682016040523d82523d6000602084013e620015e8565b606091505b50915091507f13848c3e38f8886f3f5d2ad9dff80d8092c2bbb8efd5b887a99c2c6cfc09ac2a82826040516200162092919062001c04565b60405180910390a1505050565b8280546200163b9062001f16565b90600052602060002090601f0160209004810192826200165f5760008555620016ab565b82601f106200167a57805160ff1916838001178555620016ab565b82800160010185558215620016ab579182015b82811115620016aa5782518255916020019190600101906200168d565b5b509050620016ba919062001720565b5090565b612ef8806200210583390190565b508054620016da9062001f16565b6000825580601f10620016ee57506200170f565b601f0160209004906000526020600020908101906200170e919062001720565b5b50565b610a918062004ffd83390190565b5b808211156200173b57600081600090555060010162001721565b5090565b600062001756620017508462001e0f565b62001de6565b905080838252602082019050828560208602820111156200177c576200177b62002096565b5b60005b85811015620017b05781620017958882620017ba565b8452602084019350602083019250506001810190506200177f565b5050509392505050565b600081359050620017cb81620020b6565b92915050565b600082601f830112620017e957620017e862002091565b5b8135620017fb8482602086016200173f565b91505092915050565b6000813590506200181581620020d0565b92915050565b60008083601f84011262001834576200183362002091565b5b8235905067ffffffffffffffff8111156200185457620018536200208c565b5b60208301915083600182028301111562001873576200187262002096565b5b9250929050565b6000813590506200188b81620020ea565b92915050565b600060208284031215620018aa57620018a9620020a0565b5b6000620018ba84828501620017ba565b91505092915050565b60008060408385031215620018dd57620018dc620020a0565b5b6000620018ed85828601620017ba565b925050602062001900858286016200187a565b9150509250929050565b60008060408385031215620019245762001923620020a0565b5b600083013567ffffffffffffffff8111156200194557620019446200209b565b5b6200195385828601620017d1565b92505060206200196685828601620017ba565b9150509250929050565b600080600080606085870312156200198d576200198c620020a0565b5b600085013567ffffffffffffffff811115620019ae57620019ad6200209b565b5b620019bc878288016200181b565b94509450506020620019d1878288016200187a565b9250506040620019e48782880162001804565b91505092959194509250565b60006020828403121562001a095762001a08620020a0565b5b600062001a19848285016200187a565b91505092915050565b62001a2d8162001e96565b82525050565b62001a3e8162001eaa565b82525050565b600062001a518262001e53565b62001a5d818562001e69565b935062001a6f81856020860162001ee0565b62001a7a81620020a5565b840191505092915050565b600062001a928262001e53565b62001a9e818562001e7a565b935062001ab081856020860162001ee0565b80840191505092915050565b600062001ac98262001e5e565b62001ad5818562001e85565b935062001ae781856020860162001ee0565b62001af281620020a5565b840191505092915050565b6000815462001b0c8162001f16565b62001b18818662001e85565b9450600182166000811462001b36576001811462001b495762001b80565b60ff198316865260208601935062001b80565b62001b548562001e3e565b60005b8381101562001b785781548189015260018201915060208101905062001b57565b808801955050505b50505092915050565b62001b948162001ed6565b82525050565b600062001ba8828462001a85565b915081905092915050565b600060208201905062001bca600083018462001a22565b92915050565b600060408201905062001be7600083018562001a22565b818103602083015262001bfb818462001a44565b90509392505050565b600060408201905062001c1b600083018562001a33565b818103602083015262001c2f818462001a44565b90509392505050565b600061014082019050818103600083015262001c55818d62001abc565b905062001c66602083018c62001b89565b62001c75604083018b62001b89565b62001c84606083018a62001b89565b62001c93608083018962001a33565b62001ca260a083018862001a22565b62001cb160c083018762001a22565b62001cc060e083018662001a22565b62001cd061010083018562001a22565b62001ce061012083018462001a22565b9b9a5050505050505050505050565b6000604082019050818103600083015262001d0b818562001afd565b905062001d1c602083018462001a22565b9392505050565b600061012082019050818103600083015262001d40818c62001afd565b905062001d51602083018b62001b89565b62001d60604083018a62001b89565b62001d6f606083018962001a33565b62001d7e608083018862001a22565b62001d8d60a083018762001a22565b62001d9c60c083018662001a22565b62001dab60e083018562001a22565b62001dbb61010083018462001a22565b9a9950505050505050505050565b600060208201905062001de0600083018462001b89565b92915050565b600062001df262001e05565b905062001e00828262001f4c565b919050565b6000604051905090565b600067ffffffffffffffff82111562001e2d5762001e2c6200205d565b5b602082029050602081019050919050565b60008190508160005260206000209050919050565b600081519050919050565b600081519050919050565b600082825260208201905092915050565b600081905092915050565b600082825260208201905092915050565b600062001ea38262001eb6565b9050919050565b60008115159050919050565b600073ffffffffffffffffffffffffffffffffffffffff82169050919050565b6000819050919050565b60005b8381101562001f0057808201518184015260208101905062001ee3565b8381111562001f10576000848401525b50505050565b6000600282049050600182168062001f2f57607f821691505b6020821081141562001f465762001f4562001fff565b5b50919050565b62001f5782620020a5565b810181811067ffffffffffffffff8211171562001f795762001f786200205d565b5b80604052505050565b600062001f8f8262001ed6565b91507fffffffffffffffffffffffffffffffffffffffffffffffffffffffffffffffff82141562001fc55762001fc462001fd0565b5b600182019050919050565b7f4e487b7100000000000000000000000000000000000000000000000000000000600052601160045260246000fd5b7f4e487b7100000000000000000000000000000000000000000000000000000000600052602260045260246000fd5b7f4e487b7100000000000000000000000000000000000000000000000000000000600052603260045260246000fd5b7f4e487b7100000000000000000000000000000000000000000000000000000000600052604160045260246000fd5b600080fd5b600080fd5b600080fd5b600080fd5b600080fd5b6000601f19601f8301169050919050565b620020c18162001e96565b8114620020cd57600080fd5b50565b620020db8162001eaa565b8114620020e757600080fd5b50565b620020f58162001ed6565b81146200210157600080fd5b5056fe608060405260405162002ef838038062002ef88339818101604052810190620000299190620006bb565b620000496200003d620000cf60201b60201c565b620000d760201b60201c565b60017fa3f0ad74e5423aebfd80d3ef4346578335a9a72aeaee59ff6cb3582b35133d5160001c6200007b919062000942565b60001b7fa3f0ad74e5423aebfd80d3ef4346578335a9a72aeaee59ff6cb3582b35133d5060001b14620000b357620000b262000a27565b5b620000c7828260006200019b60201b60201c565b505062000be0565b600033905090565b60008060009054906101000a900473ffffffffffffffffffffffffffffffffffffffff169050816000806101000a81548173ffffffffffffffffffffffffffffffffffffffff021916908373ffffffffffffffffffffffffffffffffffffffff1602179055508173ffffffffffffffffffffffffffffffffffffffff168173ffffffffffffffffffffffffffffffffffffffff167f8be0079c531659141344cd1fd0a4f28419497f9722a3daafe3b4186f6b6457e060405160405180910390a35050565b620001ac83620002a260201b60201c565b8273ffffffffffffffffffffffffffffffffffffffff167f1cf3b03a6cf19fa2baba4df148e9dcabedea7f8a5c07840e207e5c089be95d3e60405160405180910390a2600082511180620001fd5750805b156200029d576200029b8373ffffffffffffffffffffffffffffffffffffffff16635c60da1b6040518163ffffffff1660e01b815260040160206040518083038186803b1580156200024e57600080fd5b505afa15801562000263573d6000803e3d6000fd5b505050506040513d601f19601f8201168201806040525081019062000289919062000689565b836200045160201b62000ea71760201c565b505b505050565b620002b8816200048760201b62000ed41760201c565b620002fa576040517f08c379a0000000000000000000000000000000000000000000000000000000008152600401620002f1906200084b565b60405180910390fd5b620003918173ffffffffffffffffffffffffffffffffffffffff16635c60da1b6040518163ffffffff1660e01b815260040160206040518083038186803b1580156200034557600080fd5b505afa1580156200035a573d6000803e3d6000fd5b505050506040513d601f19601f8201168201806040525081019062000380919062000689565b6200048760201b62000ed41760201c565b620003d3576040517f08c379a0000000000000000000000000000000000000000000000000000000008152600401620003ca906200088f565b60405180910390fd5b806200040d7fa3f0ad74e5423aebfd80d3ef4346578335a9a72aeaee59ff6cb3582b35133d5060001b6200049a60201b62000ee71760201c565b60000160006101000a81548173ffffffffffffffffffffffffffffffffffffffff021916908373ffffffffffffffffffffffffffffffffffffffff16021790555050565b60606200047f838360405180606001604052806027815260200162002ed160279139620004a460201b60201c565b905092915050565b600080823b905060008111915050919050565b6000819050919050565b6060620004b7846200048760201b60201c565b620004f9576040517f08c379a0000000000000000000000000000000000000000000000000000000008152600401620004f0906200086d565b60405180910390fd5b6000808573ffffffffffffffffffffffffffffffffffffffff16856040516200052391906200080e565b600060405180830381855af49150503d806000811462000560576040519150601f19603f3d011682016040523d82523d6000602084013e62000565565b606091505b50915091506200057d8282866200058860201b60201c565b925050509392505050565b606083156200059a57829050620005ed565b600083511115620005ae5782518084602001fd5b816040517f08c379a0000000000000000000000000000000000000000000000000000000008152600401620005e4919062000827565b60405180910390fd5b9392505050565b60006200060b6200060584620008da565b620008b1565b9050828152602081018484840111156200062a576200062962000ab9565b5b62000637848285620009bb565b509392505050565b600081519050620006508162000bc6565b92915050565b600082601f8301126200066e576200066d62000ab4565b5b815162000680848260208601620005f4565b91505092915050565b600060208284031215620006a257620006a162000ac3565b5b6000620006b2848285016200063f565b91505092915050565b60008060408385031215620006d557620006d462000ac3565b5b6000620006e5858286016200063f565b925050602083015167ffffffffffffffff81111562000709576200070862000abe565b5b620007178582860162000656565b9150509250929050565b60006200072e8262000910565b6200073a818562000926565b93506200074c818560208601620009bb565b80840191505092915050565b600062000765826200091b565b62000771818562000931565b935062000783818560208601620009bb565b6200078e8162000ac8565b840191505092915050565b6000620007a860258362000931565b9150620007b58262000ad9565b604082019050919050565b6000620007cf60268362000931565b9150620007dc8262000b28565b604082019050919050565b6000620007f660308362000931565b9150620008038262000b77565b604082019050919050565b60006200081c828462000721565b915081905092915050565b6000602082019050818103600083015262000843818462000758565b905092915050565b60006020820190508181036000830152620008668162000799565b9050919050565b600060208201905081810360008301526200088881620007c0565b9050919050565b60006020820190508181036000830152620008aa81620007e7565b9050919050565b6000620008bd620008d0565b9050620008cb8282620009f1565b919050565b6000604051905090565b600067ffffffffffffffff821115620008f857620008f762000a85565b5b620009038262000ac8565b9050602081019050919050565b600081519050919050565b600081519050919050565b600081905092915050565b600082825260208201905092915050565b60006200094f82620009b1565b91506200095c83620009b1565b92508282101562000972576200097162000a56565b5b828203905092915050565b60006200098a8262000991565b9050919050565b600073ffffffffffffffffffffffffffffffffffffffff82169050919050565b6000819050919050565b60005b83811015620009db578082015181840152602081019050620009be565b83811115620009eb576000848401525b50505050565b620009fc8262000ac8565b810181811067ffffffffffffffff8211171562000a1e5762000a1d62000a85565b5b80604052505050565b7f4e487b7100000000000000000000000000000000000000000000000000000000600052600160045260246000fd5b7f4e487b7100000000000000000000000000000000000000000000000000000000600052601160045260246000fd5b7f4e487b7100000000000000000000000000000000000000000000000000000000600052604160045260246000fd5b600080fd5b600080fd5b600080fd5b600080fd5b6000601f19601f8301169050919050565b7f455243313936373a206e657720626561636f6e206973206e6f74206120636f6e60008201527f7472616374000000000000000000000000000000000000000000000000000000602082015250565b7f416464726573733a2064656c65676174652063616c6c20746f206e6f6e2d636f60008201527f6e74726163740000000000000000000000000000000000000000000000000000602082015250565b7f455243313936373a20626561636f6e20696d706c656d656e746174696f6e206960008201527f73206e6f74206120636f6e747261637400000000000000000000000000000000602082015250565b62000bd1816200097d565b811462000bdd57600080fd5b50565b6122e18062000bf06000396000f3fe6080604052600436106101235760003560e01c80637b9417c8116100a0578063a217fddf11610064578063a217fddf14610439578063d547741f14610464578063dc9a15351461048d578063e2ec6ec3146104b8578063f2fde38b146104f557610132565b80637b9417c81461032c578063841abf6e146103695780638da5cb5b1461039457806391d14854146103bf5780639b19251a146103fc57610132565b80632f2ff15d116100e75780632f2ff15d1461026d57806336568abe1461029657806354fd4d50146102bf57806360c7dc47146102ea578063715018a61461031557610132565b806301ffc9a71461013c578063248a9ca31461017957806324953eaa146101b6578063267175db146101f3578063286dd3f51461023057610132565b366101325761013061051e565b005b61013a61051e565b005b34801561014857600080fd5b50610163600480360381019061015e9190611918565b610538565b6040516101709190611baa565b60405180910390f35b34801561018557600080fd5b506101a0600480360381019061019b91906118ab565b6105b2565b6040516101ad9190611bc5565b60405180910390f35b3480156101c257600080fd5b506101dd60048036038101906101d89190611862565b6105d2565b6040516101ea9190611baa565b60405180910390f35b3480156101ff57600080fd5b5061021a60048036038101906102159190611945565b6106bc565b6040516102279190611b8f565b60405180910390f35b34801561023c57600080fd5b5061025760048036038101906102529190611808565b6106fb565b6040516102649190611baa565b60405180910390f35b34801561027957600080fd5b50610294600480360381019061028f91906118d8565b61087e565b005b3480156102a257600080fd5b506102bd60048036038101906102b891906118d8565b6108a7565b005b3480156102cb57600080fd5b506102d461092a565b6040516102e19190611ca2565b60405180910390f35b3480156102f657600080fd5b506102ff610930565b60405161030c9190611ca2565b60405180910390f35b34801561032157600080fd5b5061032a610936565b005b34801561033857600080fd5b50610353600480360381019061034e9190611808565b6109be565b6040516103609190611baa565b60405180910390f35b34801561037557600080fd5b5061037e610b40565b60405161038b9190611be0565b60405180910390f35b3480156103a057600080fd5b506103a9610bce565b6040516103b69190611b8f565b60405180910390f35b3480156103cb57600080fd5b506103e660048036038101906103e191906118d8565b610bf7565b6040516103f39190611baa565b60405180910390f35b34801561040857600080fd5b50610423600480360381019061041e9190611808565b610c62565b6040516104309190611baa565b60405180910390f35b34801561044557600080fd5b5061044e610c82565b60405161045b9190611bc5565b60405180910390f35b34801561047057600080fd5b5061048b600480360381019061048691906118d8565b610c89565b005b34801561049957600080fd5b506104a2610cb2565b6040516104af9190611baa565b60405180910390f35b3480156104c457600080fd5b506104df60048036038101906104da9190611862565b610cc5565b6040516104ec9190611baa565b60405180910390f35b34801561050157600080fd5b5061051c60048036038101906105179190611808565b610daf565b005b610526610ef1565b610536610531610ef3565b610f7f565b565b60007f7965db0b000000000000000000000000000000000000000000000000000000007bffffffffffffffffffffffffffffffffffffffffffffffffffffffff1916827bffffffffffffffffffffffffffffffffffffffffffffffffffffffff191614806105ab57506105aa82610fa5565b5b9050919050565b600060016000838152602001908152602001600020600101549050919050565b60006105dc61100f565b73ffffffffffffffffffffffffffffffffffffffff166105fa610bce565b73ffffffffffffffffffffffffffffffffffffffff1614610650576040517f08c379a000000000000000000000000000000000000000000000000000000000815260040161064790611c42565b60405180910390fd5b60005b82518110156106b65761067f83828151811061067257610671612014565b5b60200260200101516106fb565b156106a3576001600360008282546106979190611dfb565b92505081905550600191505b80806106ae90611f6d565b915050610653565b50919050565b600781815481106106cc57600080fd5b906000526020600020016000915054906101000a900473ffffffffffffffffffffffffffffffffffffffff1681565b600061070561100f565b73ffffffffffffffffffffffffffffffffffffffff16610723610bce565b73ffffffffffffffffffffffffffffffffffffffff1614610779576040517f08c379a000000000000000000000000000000000000000000000000000000000815260040161077090611c42565b60405180910390fd5b600260008373ffffffffffffffffffffffffffffffffffffffff1673ffffffffffffffffffffffffffffffffffffffff16815260200190815260200160002060009054906101000a900460ff1615610879576000600260008473ffffffffffffffffffffffffffffffffffffffff1673ffffffffffffffffffffffffffffffffffffffff16815260200190815260200160002060006101000a81548160ff0219169083151502179055507ff1abf01a1043b7c244d128e8595cf0c1d10743b022b03a02dffd8ca3bf729f5a826040516108529190611b8f565b60405180910390a160016003600082825461086d9190611dfb565b92505081905550600190505b919050565b610887826105b2565b6108988161089361100f565b611017565b6108a283836110b4565b505050565b6108af61100f565b73ffffffffffffffffffffffffffffffffffffffff168173ffffffffffffffffffffffffffffffffffffffff161461091c576040517f08c379a000000000000000000000000000000000000000000000000000000000815260040161091390611c82565b60405180910390fd5b6109268282611194565b5050565b60055481565b600b5481565b61093e61100f565b73ffffffffffffffffffffffffffffffffffffffff1661095c610bce565b73ffffffffffffffffffffffffffffffffffffffff16146109b2576040517f08c379a00000000000000000000000000000000000000000000000000000000081526004016109a990611c42565b60405180910390fd5b6109bc6000611276565b565b60006109c861100f565b73ffffffffffffffffffffffffffffffffffffffff166109e6610bce565b73ffffffffffffffffffffffffffffffffffffffff1614610a3c576040517f08c379a0000000000000000000000000000000000000000000000000000000008152600401610a3390611c42565b60405180910390fd5b600260008373ffffffffffffffffffffffffffffffffffffffff1673ffffffffffffffffffffffffffffffffffffffff16815260200190815260200160002060009054906101000a900460ff16610b3b576001600260008473ffffffffffffffffffffffffffffffffffffffff1673ffffffffffffffffffffffffffffffffffffffff16815260200190815260200160002060006101000a81548160ff0219169083151502179055507fd1bba68c128cc3f427e5831b3c6f99f480b6efa6b9e80c757768f6124158cc3f82604051610b149190611b8f565b60405180910390a1600160036000828254610b2f9190611d4b565b92505081905550600190505b919050565b60068054610b4d90611f0a565b80601f0160208091040260200160405190810160405280929190818152602001828054610b7990611f0a565b8015610bc65780601f10610b9b57610100808354040283529160200191610bc6565b820191906000526020600020905b815481529060010190602001808311610ba957829003601f168201915b505050505081565b60008060009054906101000a900473ffffffffffffffffffffffffffffffffffffffff16905090565b60006001600084815260200190815260200160002060000160008373ffffffffffffffffffffffffffffffffffffffff1673ffffffffffffffffffffffffffffffffffffffff16815260200190815260200160002060009054906101000a900460ff16905092915050565b60026020528060005260406000206000915054906101000a900460ff1681565b6000801b81565b610c92826105b2565b610ca381610c9e61100f565b611017565b610cad8383611194565b505050565b600460009054906101000a900460ff1681565b6000610ccf61100f565b73ffffffffffffffffffffffffffffffffffffffff16610ced610bce565b73ffffffffffffffffffffffffffffffffffffffff1614610d43576040517f08c379a0000000000000000000000000000000000000000000000000000000008152600401610d3a90611c42565b60405180910390fd5b60005b8251811015610da957610d72838281518110610d6557610d64612014565b5b60200260200101516109be565b15610d9657600160036000828254610d8a9190611d4b565b92505081905550600191505b8080610da190611f6d565b915050610d46565b50919050565b610db761100f565b73ffffffffffffffffffffffffffffffffffffffff16610dd5610bce565b73ffffffffffffffffffffffffffffffffffffffff1614610e2b576040517f08c379a0000000000000000000000000000000000000000000000000000000008152600401610e2290611c42565b60405180910390fd5b600073ffffffffffffffffffffffffffffffffffffffff168173ffffffffffffffffffffffffffffffffffffffff161415610e9b576040517f08c379a0000000000000000000000000000000000000000000000000000000008152600401610e9290611c22565b60405180910390fd5b610ea481611276565b50565b6060610ecc83836040518060600160405280602781526020016122856027913961133a565b905092915050565b600080823b905060008111915050919050565b6000819050919050565b565b6000610efd611407565b73ffffffffffffffffffffffffffffffffffffffff16635c60da1b6040518163ffffffff1660e01b815260040160206040518083038186803b158015610f4257600080fd5b505afa158015610f56573d6000803e3d6000fd5b505050506040513d601f19601f82011682018060405250810190610f7a9190611835565b905090565b3660008037600080366000845af43d6000803e8060008114610fa0573d6000f35b3d6000fd5b60007f01ffc9a7000000000000000000000000000000000000000000000000000000007bffffffffffffffffffffffffffffffffffffffffffffffffffffffff1916827bffffffffffffffffffffffffffffffffffffffffffffffffffffffff1916149050919050565b600033905090565b6110218282610bf7565b6110b0576110468173ffffffffffffffffffffffffffffffffffffffff16601461145e565b6110548360001c602061145e565b604051602001611065929190611b55565b6040516020818303038152906040526040517f08c379a00000000000000000000000000000000000000000000000000000000081526004016110a79190611be0565b60405180910390fd5b5050565b6110be8282610bf7565b61119057600180600084815260200190815260200160002060000160008373ffffffffffffffffffffffffffffffffffffffff1673ffffffffffffffffffffffffffffffffffffffff16815260200190815260200160002060006101000a81548160ff02191690831515021790555061113561100f565b73ffffffffffffffffffffffffffffffffffffffff168173ffffffffffffffffffffffffffffffffffffffff16837f2f8788117e7eff1d82e926ec794901d17c78024a50270940304540a733656f0d60405160405180910390a45b5050565b61119e8282610bf7565b156112725760006001600084815260200190815260200160002060000160008373ffffffffffffffffffffffffffffffffffffffff1673ffffffffffffffffffffffffffffffffffffffff16815260200190815260200160002060006101000a81548160ff02191690831515021790555061121761100f565b73ffffffffffffffffffffffffffffffffffffffff168173ffffffffffffffffffffffffffffffffffffffff16837ff6391f5c32d9c69d2a47ea670b442974b53935d1edc7fd64eb21e047a839171b60405160405180910390a45b5050565b60008060009054906101000a900473ffffffffffffffffffffffffffffffffffffffff169050816000806101000a81548173ffffffffffffffffffffffffffffffffffffffff021916908373ffffffffffffffffffffffffffffffffffffffff1602179055508173ffffffffffffffffffffffffffffffffffffffff168173ffffffffffffffffffffffffffffffffffffffff167f8be0079c531659141344cd1fd0a4f28419497f9722a3daafe3b4186f6b6457e060405160405180910390a35050565b606061134584610ed4565b611384576040517f08c379a000000000000000000000000000000000000000000000000000000000815260040161137b90611c62565b60405180910390fd5b6000808573ffffffffffffffffffffffffffffffffffffffff16856040516113ac9190611b3e565b600060405180830381855af49150503d80600081146113e7576040519150601f19603f3d011682016040523d82523d6000602084013e6113ec565b606091505b50915091506113fc82828661169a565b925050509392505050565b60006114357fa3f0ad74e5423aebfd80d3ef4346578335a9a72aeaee59ff6cb3582b35133d5060001b610ee7565b60000160009054906101000a900473ffffffffffffffffffffffffffffffffffffffff16905090565b6060600060028360026114719190611da1565b61147b9190611d4b565b67ffffffffffffffff81111561149457611493612043565b5b6040519080825280601f01601f1916602001820160405280156114c65781602001600182028036833780820191505090505b5090507f3000000000000000000000000000000000000000000000000000000000000000816000815181106114fe576114fd612014565b5b60200101907effffffffffffffffffffffffffffffffffffffffffffffffffffffffffffff1916908160001a9053507f78000000000000000000000000000000000000000000000000000000000000008160018151811061156257611561612014565b5b60200101907effffffffffffffffffffffffffffffffffffffffffffffffffffffffffffff1916908160001a905350600060018460026115a29190611da1565b6115ac9190611d4b565b90505b600181111561164c577f3031323334353637383961626364656600000000000000000000000000000000600f8616601081106115ee576115ed612014565b5b1a60f81b82828151811061160557611604612014565b5b60200101907effffffffffffffffffffffffffffffffffffffffffffffffffffffffffffff1916908160001a905350600485901c94508061164590611ee0565b90506115af565b5060008414611690576040517f08c379a000000000000000000000000000000000000000000000000000000000815260040161168790611c02565b60405180910390fd5b8091505092915050565b606083156116aa578290506116fa565b6000835111156116bd5782518084602001fd5b816040517f08c379a00000000000000000000000000000000000000000000000000000000081526004016116f19190611be0565b60405180910390fd5b9392505050565b600061171461170f84611ce2565b611cbd565b9050808382526020820190508285602086028201111561173757611736612077565b5b60005b85811015611767578161174d8882611771565b84526020840193506020830192505060018101905061173a565b5050509392505050565b60008135905061178081612228565b92915050565b60008151905061179581612228565b92915050565b600082601f8301126117b0576117af612072565b5b81356117c0848260208601611701565b91505092915050565b6000813590506117d88161223f565b92915050565b6000813590506117ed81612256565b92915050565b6000813590506118028161226d565b92915050565b60006020828403121561181e5761181d612081565b5b600061182c84828501611771565b91505092915050565b60006020828403121561184b5761184a612081565b5b600061185984828501611786565b91505092915050565b60006020828403121561187857611877612081565b5b600082013567ffffffffffffffff8111156118965761189561207c565b5b6118a28482850161179b565b91505092915050565b6000602082840312156118c1576118c0612081565b5b60006118cf848285016117c9565b91505092915050565b600080604083850312156118ef576118ee612081565b5b60006118fd858286016117c9565b925050602061190e85828601611771565b9150509250929050565b60006020828403121561192e5761192d612081565b5b600061193c848285016117de565b91505092915050565b60006020828403121561195b5761195a612081565b5b6000611969848285016117f3565b91505092915050565b61197b81611e2f565b82525050565b61198a81611e41565b82525050565b61199981611e4d565b82525050565b60006119aa82611d0e565b6119b48185611d24565b93506119c4818560208601611ead565b80840191505092915050565b60006119db82611d19565b6119e58185611d2f565b93506119f5818560208601611ead565b6119fe81612086565b840191505092915050565b6000611a1482611d19565b611a1e8185611d40565b9350611a2e818560208601611ead565b80840191505092915050565b6000611a47602083611d2f565b9150611a5282612097565b602082019050919050565b6000611a6a602683611d2f565b9150611a75826120c0565b604082019050919050565b6000611a8d602083611d2f565b9150611a988261210f565b602082019050919050565b6000611ab0602683611d2f565b9150611abb82612138565b604082019050919050565b6000611ad3601783611d40565b9150611ade82612187565b601782019050919050565b6000611af6601183611d40565b9150611b01826121b0565b601182019050919050565b6000611b19602f83611d2f565b9150611b24826121d9565b604082019050919050565b611b3881611ea3565b82525050565b6000611b4a828461199f565b915081905092915050565b6000611b6082611ac6565b9150611b6c8285611a09565b9150611b7782611ae9565b9150611b838284611a09565b91508190509392505050565b6000602082019050611ba46000830184611972565b92915050565b6000602082019050611bbf6000830184611981565b92915050565b6000602082019050611bda6000830184611990565b92915050565b60006020820190508181036000830152611bfa81846119d0565b905092915050565b60006020820190508181036000830152611c1b81611a3a565b9050919050565b60006020820190508181036000830152611c3b81611a5d565b9050919050565b60006020820190508181036000830152611c5b81611a80565b9050919050565b60006020820190508181036000830152611c7b81611aa3565b9050919050565b60006020820190508181036000830152611c9b81611b0c565b9050919050565b6000602082019050611cb76000830184611b2f565b92915050565b6000611cc7611cd8565b9050611cd38282611f3c565b919050565b6000604051905090565b600067ffffffffffffffff821115611cfd57611cfc612043565b5b602082029050602081019050919050565b600081519050919050565b600081519050919050565b600081905092915050565b600082825260208201905092915050565b600081905092915050565b6000611d5682611ea3565b9150611d6183611ea3565b9250827fffffffffffffffffffffffffffffffffffffffffffffffffffffffffffffffff03821115611d9657611d95611fb6565b5b828201905092915050565b6000611dac82611ea3565b9150611db783611ea3565b9250817fffffffffffffffffffffffffffffffffffffffffffffffffffffffffffffffff0483118215151615611df057611def611fb6565b5b828202905092915050565b6000611e0682611ea3565b9150611e1183611ea3565b925082821015611e2457611e23611fb6565b5b828203905092915050565b6000611e3a82611e83565b9050919050565b60008115159050919050565b6000819050919050565b60007fffffffff0000000000000000000000000000000000000000000000000000000082169050919050565b600073ffffffffffffffffffffffffffffffffffffffff82169050919050565b6000819050919050565b60005b83811015611ecb578082015181840152602081019050611eb0565b83811115611eda576000848401525b50505050565b6000611eeb82611ea3565b91506000821415611eff57611efe611fb6565b5b600182039050919050565b60006002820490506001821680611f2257607f821691505b60208210811415611f3657611f35611fe5565b5b50919050565b611f4582612086565b810181811067ffffffffffffffff82111715611f6457611f63612043565b5b80604052505050565b6000611f7882611ea3565b91507fffffffffffffffffffffffffffffffffffffffffffffffffffffffffffffffff821415611fab57611faa611fb6565b5b600182019050919050565b7f4e487b7100000000000000000000000000000000000000000000000000000000600052601160045260246000fd5b7f4e487b7100000000000000000000000000000000000000000000000000000000600052602260045260246000fd5b7f4e487b7100000000000000000000000000000000000000000000000000000000600052603260045260246000fd5b7f4e487b7100000000000000000000000000000000000000000000000000000000600052604160045260246000fd5b600080fd5b600080fd5b600080fd5b600080fd5b6000601f19601f8301169050919050565b7f537472696e67733a20686578206c656e67746820696e73756666696369656e74600082015250565b7f4f776e61626c653a206e6577206f776e657220697320746865207a65726f206160008201527f6464726573730000000000000000000000000000000000000000000000000000602082015250565b7f4f776e61626c653a2063616c6c6572206973206e6f7420746865206f776e6572600082015250565b7f416464726573733a2064656c65676174652063616c6c20746f206e6f6e2d636f60008201527f6e74726163740000000000000000000000000000000000000000000000000000602082015250565b7f416363657373436f6e74726f6c3a206163636f756e7420000000000000000000600082015250565b7f206973206d697373696e6720726f6c6520000000000000000000000000000000600082015250565b7f416363657373436f6e74726f6c3a2063616e206f6e6c792072656e6f756e636560008201527f20726f6c657320666f722073656c660000000000000000000000000000000000602082015250565b61223181611e2f565b811461223c57600080fd5b50565b61224881611e4d565b811461225357600080fd5b50565b61225f81611e57565b811461226a57600080fd5b50565b61227681611ea3565b811461228157600080fd5b5056fe416464726573733a206c6f772d6c6576656c2064656c65676174652063616c6c206661696c6564a26469706673582212204414c91ad9377bf1fbe5dacc6d650a8d6fa9a8be01de56bd5e0ee8c45d8410da64736f6c63430008070033416464726573733a206c6f772d6c6576656c2064656c65676174652063616c6c206661696c6564608060405234801561001057600080fd5b5060405162000a9138038062000a91833981810160405281019061003491906101ef565b61005061004561006560201b60201c565b61006d60201b60201c565b61005f8161013160201b60201c565b5061030d565b600033905090565b60008060009054906101000a900473ffffffffffffffffffffffffffffffffffffffff169050816000806101000a81548173ffffffffffffffffffffffffffffffffffffffff021916908373ffffffffffffffffffffffffffffffffffffffff1602179055508173ffffffffffffffffffffffffffffffffffffffff168173ffffffffffffffffffffffffffffffffffffffff167f8be0079c531659141344cd1fd0a4f28419497f9722a3daafe3b4186f6b6457e060405160405180910390a35050565b610144816101c760201b6103781760201c565b610183576040517f08c379a000000000000000000000000000000000000000000000000000000000815260040161017a9061023f565b60405180910390fd5b80600160006101000a81548173ffffffffffffffffffffffffffffffffffffffff021916908373ffffffffffffffffffffffffffffffffffffffff16021790555050565b600080823b905060008111915050919050565b6000815190506101e9816102f6565b92915050565b600060208284031215610205576102046102a2565b5b6000610213848285016101da565b91505092915050565b600061022960338361025f565b9150610234826102a7565b604082019050919050565b600060208201905081810360008301526102588161021c565b9050919050565b600082825260208201905092915050565b600061027b82610282565b9050919050565b600073ffffffffffffffffffffffffffffffffffffffff82169050919050565b600080fd5b7f5570677261646561626c65426561636f6e3a20696d706c656d656e746174696f60008201527f6e206973206e6f74206120636f6e747261637400000000000000000000000000602082015250565b6102ff81610270565b811461030a57600080fd5b50565b610774806200031d6000396000f3fe608060405234801561001057600080fd5b50600436106100575760003560e01c80633659cfe61461005c5780635c60da1b14610078578063715018a6146100965780638da5cb5b146100a0578063f2fde38b146100be575b600080fd5b610076600480360381019061007191906104f8565b6100da565b005b6100806101a5565b60405161008d919061059d565b60405180910390f35b61009e6101cf565b005b6100a8610257565b6040516100b5919061059d565b60405180910390f35b6100d860048036038101906100d391906104f8565b610280565b005b6100e261038b565b73ffffffffffffffffffffffffffffffffffffffff16610100610257565b73ffffffffffffffffffffffffffffffffffffffff1614610156576040517f08c379a000000000000000000000000000000000000000000000000000000000815260040161014d906105f8565b60405180910390fd5b61015f81610393565b8073ffffffffffffffffffffffffffffffffffffffff167fbc7cd75a20ee27fd9adebab32041f755214dbc6bffa90cc0225b39da2e5c2d3b60405160405180910390a250565b6000600160009054906101000a900473ffffffffffffffffffffffffffffffffffffffff16905090565b6101d761038b565b73ffffffffffffffffffffffffffffffffffffffff166101f5610257565b73ffffffffffffffffffffffffffffffffffffffff161461024b576040517f08c379a0000000000000000000000000000000000000000000000000000000008152600401610242906105f8565b60405180910390fd5b610255600061041f565b565b60008060009054906101000a900473ffffffffffffffffffffffffffffffffffffffff16905090565b61028861038b565b73ffffffffffffffffffffffffffffffffffffffff166102a6610257565b73ffffffffffffffffffffffffffffffffffffffff16146102fc576040517f08c379a00000000000000000000000000000000000000000000000000000000081526004016102f3906105f8565b60405180910390fd5b600073ffffffffffffffffffffffffffffffffffffffff168173ffffffffffffffffffffffffffffffffffffffff16141561036c576040517f08c379a0000000000000000000000000000000000000000000000000000000008152600401610363906105b8565b60405180910390fd5b6103758161041f565b50565b600080823b905060008111915050919050565b600033905090565b61039c81610378565b6103db576040517f08c379a00000000000000000000000000000000000000000000000000000000081526004016103d2906105d8565b60405180910390fd5b80600160006101000a81548173ffffffffffffffffffffffffffffffffffffffff021916908373ffffffffffffffffffffffffffffffffffffffff16021790555050565b60008060009054906101000a900473ffffffffffffffffffffffffffffffffffffffff169050816000806101000a81548173ffffffffffffffffffffffffffffffffffffffff021916908373ffffffffffffffffffffffffffffffffffffffff1602179055508173ffffffffffffffffffffffffffffffffffffffff168173ffffffffffffffffffffffffffffffffffffffff167f8be0079c531659141344cd1fd0a4f28419497f9722a3daafe3b4186f6b6457e060405160405180910390a35050565b6000813590506104f281610727565b92915050565b60006020828403121561050e5761050d61065b565b5b600061051c848285016104e3565b91505092915050565b61052e81610629565b82525050565b6000610541602683610618565b915061054c82610660565b604082019050919050565b6000610564603383610618565b915061056f826106af565b604082019050919050565b6000610587602083610618565b9150610592826106fe565b602082019050919050565b60006020820190506105b26000830184610525565b92915050565b600060208201905081810360008301526105d181610534565b9050919050565b600060208201905081810360008301526105f181610557565b9050919050565b600060208201905081810360008301526106118161057a565b9050919050565b600082825260208201905092915050565b60006106348261063b565b9050919050565b600073ffffffffffffffffffffffffffffffffffffffff82169050919050565b600080fd5b7f4f776e61626c653a206e6577206f776e657220697320746865207a65726f206160008201527f6464726573730000000000000000000000000000000000000000000000000000602082015250565b7f5570677261646561626c65426561636f6e3a20696d706c656d656e746174696f60008201527f6e206973206e6f74206120636f6e747261637400000000000000000000000000602082015250565b7f4f776e61626c653a2063616c6c6572206973206e6f7420746865206f776e6572600082015250565b61073081610629565b811461073b57600080fd5b5056fea2646970667358221220f14c1e123fc6650c2510ce92a5938ce8dbd619e20ec5ceb7ad4526f9ccdb6aca64736f6c63430008070033a2646970667358221220d022c46f9689e8983f89707a8fa5f33d174fc1987a68039d82987f648eda0fc564736f6c63430008070033608060405234801561001057600080fd5b5060405162000a9138038062000a91833981810160405281019061003491906101ef565b61005061004561006560201b60201c565b61006d60201b60201c565b61005f8161013160201b60201c565b5061030d565b600033905090565b60008060009054906101000a900473ffffffffffffffffffffffffffffffffffffffff169050816000806101000a81548173ffffffffffffffffffffffffffffffffffffffff021916908373ffffffffffffffffffffffffffffffffffffffff1602179055508173ffffffffffffffffffffffffffffffffffffffff168173ffffffffffffffffffffffffffffffffffffffff167f8be0079c531659141344cd1fd0a4f28419497f9722a3daafe3b4186f6b6457e060405160405180910390a35050565b610144816101c760201b6103781760201c565b610183576040517f08c379a000000000000000000000000000000000000000000000000000000000815260040161017a9061023f565b60405180910390fd5b80600160006101000a81548173ffffffffffffffffffffffffffffffffffffffff021916908373ffffffffffffffffffffffffffffffffffffffff16021790555050565b600080823b905060008111915050919050565b6000815190506101e9816102f6565b92915050565b600060208284031215610205576102046102a2565b5b6000610213848285016101da565b91505092915050565b600061022960338361025f565b9150610234826102a7565b604082019050919050565b600060208201905081810360008301526102588161021c565b9050919050565b600082825260208201905092915050565b600061027b82610282565b9050919050565b600073ffffffffffffffffffffffffffffffffffffffff82169050919050565b600080fd5b7f5570677261646561626c65426561636f6e3a20696d706c656d656e746174696f60008201527f6e206973206e6f74206120636f6e747261637400000000000000000000000000602082015250565b6102ff81610270565b811461030a57600080fd5b50565b610774806200031d6000396000f3fe608060405234801561001057600080fd5b50600436106100575760003560e01c80633659cfe61461005c5780635c60da1b14610078578063715018a6146100965780638da5cb5b146100a0578063f2fde38b146100be575b600080fd5b610076600480360381019061007191906104f8565b6100da565b005b6100806101a5565b60405161008d919061059d565b60405180910390f35b61009e6101cf565b005b6100a8610257565b6040516100b5919061059d565b60405180910390f35b6100d860048036038101906100d391906104f8565b610280565b005b6100e261038b565b73ffffffffffffffffffffffffffffffffffffffff16610100610257565b73ffffffffffffffffffffffffffffffffffffffff1614610156576040517f08c379a000000000000000000000000000000000000000000000000000000000815260040161014d906105f8565b60405180910390fd5b61015f81610393565b8073ffffffffffffffffffffffffffffffffffffffff167fbc7cd75a20ee27fd9adebab32041f755214dbc6bffa90cc0225b39da2e5c2d3b60405160405180910390a250565b6000600160009054906101000a900473ffffffffffffffffffffffffffffffffffffffff16905090565b6101d761038b565b73ffffffffffffffffffffffffffffffffffffffff166101f5610257565b73ffffffffffffffffffffffffffffffffffffffff161461024b576040517f08c379a0000000000000000000000000000000000000000000000000000000008152600401610242906105f8565b60405180910390fd5b610255600061041f565b565b60008060009054906101000a900473ffffffffffffffffffffffffffffffffffffffff16905090565b61028861038b565b73ffffffffffffffffffffffffffffffffffffffff166102a6610257565b73ffffffffffffffffffffffffffffffffffffffff16146102fc576040517f08c379a00000000000000000000000000000000000000000000000000000000081526004016102f3906105f8565b60405180910390fd5b600073ffffffffffffffffffffffffffffffffffffffff168173ffffffffffffffffffffffffffffffffffffffff16141561036c576040517f08c379a0000000000000000000000000000000000000000000000000000000008152600401610363906105b8565b60405180910390fd5b6103758161041f565b50565b600080823b905060008111915050919050565b600033905090565b61039c81610378565b6103db576040517f08c379a00000000000000000000000000000000000000000000000000000000081526004016103d2906105d8565b60405180910390fd5b80600160006101000a81548173ffffffffffffffffffffffffffffffffffffffff021916908373ffffffffffffffffffffffffffffffffffffffff16021790555050565b60008060009054906101000a900473ffffffffffffffffffffffffffffffffffffffff169050816000806101000a81548173ffffffffffffffffffffffffffffffffffffffff021916908373ffffffffffffffffffffffffffffffffffffffff1602179055508173ffffffffffffffffffffffffffffffffffffffff168173ffffffffffffffffffffffffffffffffffffffff167f8be0079c531659141344cd1fd0a4f28419497f9722a3daafe3b4186f6b6457e060405160405180910390a35050565b6000813590506104f281610727565b92915050565b60006020828403121561050e5761050d61065b565b5b600061051c848285016104e3565b91505092915050565b61052e81610629565b82525050565b6000610541602683610618565b915061054c82610660565b604082019050919050565b6000610564603383610618565b915061056f826106af565b604082019050919050565b6000610587602083610618565b9150610592826106fe565b602082019050919050565b60006020820190506105b26000830184610525565b92915050565b600060208201905081810360008301526105d181610534565b9050919050565b600060208201905081810360008301526105f181610557565b9050919050565b600060208201905081810360008301526106118161057a565b9050919050565b600082825260208201905092915050565b60006106348261063b565b9050919050565b600073ffffffffffffffffffffffffffffffffffffffff82169050919050565b600080fd5b7f4f776e61626c653a206e6577206f776e657220697320746865207a65726f206160008201527f6464726573730000000000000000000000000000000000000000000000000000602082015250565b7f5570677261646561626c65426561636f6e3a20696d706c656d656e746174696f60008201527f6e206973206e6f74206120636f6e747261637400000000000000000000000000602082015250565b7f4f776e61626c653a2063616c6c6572206973206e6f7420746865206f776e6572600082015250565b61073081610629565b811461073b57600080fd5b5056fea2646970667358221220f14c1e123fc6650c2510ce92a5938ce8dbd619e20ec5ceb7ad4526f9ccdb6aca64736f6c63430008070033608060405234801561001057600080fd5b5061002d61002261003260201b60201c565b61003a60201b60201c565b6100fe565b600033905090565b60008060009054906101000a900473ffffffffffffffffffffffffffffffffffffffff169050816000806101000a81548173ffffffffffffffffffffffffffffffffffffffff021916908373ffffffffffffffffffffffffffffffffffffffff1602179055508173ffffffffffffffffffffffffffffffffffffffff168173ffffffffffffffffffffffffffffffffffffffff167f8be0079c531659141344cd1fd0a4f28419497f9722a3daafe3b4186f6b6457e060405160405180910390a35050565b610f4a8061010d6000396000f3fe608060405234801561001057600080fd5b506004361061009e5760003560e01c8063c59d484711610066578063c59d484714610147578063d4313da814610165578063edef8b8314610195578063ef5c1020146101c5578063f2fde38b146101e35761009e565b80632186e726146100a3578063715018a6146100d357806389b5056b146100dd5780638da5cb5b1461010d5780639e9d70661461012b575b600080fd5b6100bd60048036038101906100b89190610a1a565b6101ff565b6040516100ca9190610d06565b60405180910390f35b6100db610230565b005b6100f760048036038101906100f291906109ed565b6102b8565b6040516101049190610d06565b60405180910390f35b6101156102bf565b6040516101229190610c67565b60405180910390f35b61014560048036038101906101409190610a1a565b6102e8565b005b61014f6103da565b60405161015c9190610c82565b60405180910390f35b61017f600480360381019061017a91906109ed565b61059a565b60405161018c9190610ca4565b60405180910390f35b6101af60048036038101906101aa91906109ed565b610605565b6040516101bc9190610d06565b60405180910390f35b6101cd610633565b6040516101da9190610c82565b60405180910390f35b6101fd60048036038101906101f891906109c0565b6106f4565b005b6001602052816000526040600020818154811061021b57600080fd5b90600052602060002001600091509150505481565b6102386107ec565b73ffffffffffffffffffffffffffffffffffffffff166102566102bf565b73ffffffffffffffffffffffffffffffffffffffff16146102ac576040517f08c379a00000000000000000000000000000000000000000000000000000000081526004016102a390610ce6565b60405180910390fd5b6102b660006107f4565b565b6000919050565b60008060009054906101000a900473ffffffffffffffffffffffffffffffffffffffff16905090565b6102f06107ec565b73ffffffffffffffffffffffffffffffffffffffff1661030e6102bf565b73ffffffffffffffffffffffffffffffffffffffff1614610364576040517f08c379a000000000000000000000000000000000000000000000000000000000815260040161035b90610ce6565b60405180910390fd5b60006001600084815260200190815260200160002080549050141561039c576003600081548092919061039690610df1565b91905055505b600160008381526020019081526020016000208190806001815401808255809150506001900390600052602060002001600090919091909150555050565b6060600260006103ea91906108b8565b60005b6003548110156104da57600060405180604001604052808381526020016001600085815260200190815260200160002080548060200260200160405190810160405280929190818152602001828054801561046757602002820191906000526020600020905b815481526020019060010190808311610453575b5050505050815250905060028190806001815401808255809150506001900390600052602060002090600202016000909190919091506000820151816000015560208201518160010190805190602001906104c39291906108dc565b5050505080806104d290610df1565b9150506103ed565b506002805480602002602001604051908101604052809291908181526020016000905b828210156105915783829060005260206000209060020201604051806040016040529081600082015481526020016001820180548060200260200160405190810160405280929190818152602001828054801561057957602002820191906000526020600020905b815481526020019060010190808311610565575b505050505081525050815260200190600101906104fd565b50505050905090565b6060600160008381526020019081526020016000208054806020026020016040519081016040528092919081815260200182805480156105f957602002820191906000526020600020905b8154815260200190600101908083116105e5575b50505050509050919050565b6002818154811061061557600080fd5b90600052602060002090600202016000915090508060000154905081565b60606002805480602002602001604051908101604052809291908181526020016000905b828210156106eb578382906000526020600020906002020160405180604001604052908160008201548152602001600182018054806020026020016040519081016040528092919081815260200182805480156106d357602002820191906000526020600020905b8154815260200190600101908083116106bf575b50505050508152505081526020019060010190610657565b50505050905090565b6106fc6107ec565b73ffffffffffffffffffffffffffffffffffffffff1661071a6102bf565b73ffffffffffffffffffffffffffffffffffffffff1614610770576040517f08c379a000000000000000000000000000000000000000000000000000000000815260040161076790610ce6565b60405180910390fd5b600073ffffffffffffffffffffffffffffffffffffffff168173ffffffffffffffffffffffffffffffffffffffff1614156107e0576040517f08c379a00000000000000000000000000000000000000000000000000000000081526004016107d790610cc6565b60405180910390fd5b6107e9816107f4565b50565b600033905090565b60008060009054906101000a900473ffffffffffffffffffffffffffffffffffffffff169050816000806101000a81548173ffffffffffffffffffffffffffffffffffffffff021916908373ffffffffffffffffffffffffffffffffffffffff1602179055508173ffffffffffffffffffffffffffffffffffffffff168173ffffffffffffffffffffffffffffffffffffffff167f8be0079c531659141344cd1fd0a4f28419497f9722a3daafe3b4186f6b6457e060405160405180910390a35050565b50805460008255600202906000526020600020908101906108d99190610929565b50565b828054828255906000526020600020908101928215610918579160200282015b828111156109175782518255916020019190600101906108fc565b5b5090506109259190610958565b5090565b5b808211156109545760008082016000905560018201600061094b9190610975565b5060020161092a565b5090565b5b80821115610971576000816000905550600101610959565b5090565b50805460008255906000526020600020908101906109939190610958565b50565b6000813590506109a581610ee6565b92915050565b6000813590506109ba81610efd565b92915050565b6000602082840312156109d6576109d5610e69565b5b60006109e484828501610996565b91505092915050565b600060208284031215610a0357610a02610e69565b5b6000610a11848285016109ab565b91505092915050565b60008060408385031215610a3157610a30610e69565b5b6000610a3f858286016109ab565b9250506020610a50858286016109ab565b9150509250929050565b6000610a668383610c0c565b905092915050565b6000610a7a8383610c49565b60208301905092915050565b610a8f81610db5565b82525050565b6000610aa082610d41565b610aaa8185610d71565b935083602082028501610abc85610d21565b8060005b85811015610af85784840389528151610ad98582610a5a565b9450610ae483610d57565b925060208a01995050600181019050610ac0565b50829750879550505050505092915050565b6000610b1582610d4c565b610b1f8185610d82565b9350610b2a83610d31565b8060005b83811015610b5b578151610b428882610a6e565b9750610b4d83610d64565b925050600181019050610b2e565b5085935050505092915050565b6000610b7382610d4c565b610b7d8185610d93565b9350610b8883610d31565b8060005b83811015610bb9578151610ba08882610a6e565b9750610bab83610d64565b925050600181019050610b8c565b5085935050505092915050565b6000610bd3602683610da4565b9150610bde82610e6e565b604082019050919050565b6000610bf6602083610da4565b9150610c0182610ebd565b602082019050919050565b6000604083016000830151610c246000860182610c49565b5060208301518482036020860152610c3c8282610b0a565b9150508091505092915050565b610c5281610de7565b82525050565b610c6181610de7565b82525050565b6000602082019050610c7c6000830184610a86565b92915050565b60006020820190508181036000830152610c9c8184610a95565b905092915050565b60006020820190508181036000830152610cbe8184610b68565b905092915050565b60006020820190508181036000830152610cdf81610bc6565b9050919050565b60006020820190508181036000830152610cff81610be9565b9050919050565b6000602082019050610d1b6000830184610c58565b92915050565b6000819050602082019050919050565b6000819050602082019050919050565b600081519050919050565b600081519050919050565b6000602082019050919050565b6000602082019050919050565b600082825260208201905092915050565b600082825260208201905092915050565b600082825260208201905092915050565b600082825260208201905092915050565b6000610dc082610dc7565b9050919050565b600073ffffffffffffffffffffffffffffffffffffffff82169050919050565b6000819050919050565b6000610dfc82610de7565b91507fffffffffffffffffffffffffffffffffffffffffffffffffffffffffffffffff821415610e2f57610e2e610e3a565b5b600182019050919050565b7f4e487b7100000000000000000000000000000000000000000000000000000000600052601160045260246000fd5b600080fd5b7f4f776e61626c653a206e6577206f776e657220697320746865207a65726f206160008201527f6464726573730000000000000000000000000000000000000000000000000000602082015250565b7f4f776e61626c653a2063616c6c6572206973206e6f7420746865206f776e6572600082015250565b610eef81610db5565b8114610efa57600080fd5b50565b610f0681610de7565b8114610f1157600080fd5b5056fea2646970667358221220c915f1c186156c83a7da31c1dc3b75d8bfc4bed04242c2fa3d2d026de0c2181464736f6c63430008070033",
  "linkReferences": {},
  "deployedLinkReferences": {}
}