{
  "_format": "hh-sol-artifact-1",
  "contractName": "LeagueMaker",
  "sourceName": "contracts/LeagueMaker.sol",
  "abi": [
    {
      "inputs": [
        {
          "internalType": "address",
          "name": "_logic",
          "type": "address"
        }
      ],
      "stateMutability": "nonpayable",
      "type": "constructor"
    },
    {
      "anonymous": false,
      "inputs": [
        {
          "indexed": false,
          "internalType": "string",
          "name": "name",
          "type": "string"
        },
        {
          "indexed": false,
          "internalType": "address",
          "name": "proxyAddress",
          "type": "address"
        },
        {
          "indexed": false,
          "internalType": "address",
          "name": "proxyAdminAddress",
          "type": "address"
        },
        {
          "indexed": false,
          "internalType": "address[]",
          "name": "initialWhitelistAddresses",
          "type": "address[]"
        },
        {
          "indexed": false,
          "internalType": "address",
          "name": "stakeTokenAddress",
          "type": "address"
        }
      ],
      "name": "LeagueCreated",
      "type": "event"
    },
    {
      "anonymous": false,
      "inputs": [
        {
          "indexed": true,
          "internalType": "address",
          "name": "previousOwner",
          "type": "address"
        },
        {
          "indexed": true,
          "internalType": "address",
          "name": "newOwner",
          "type": "address"
        }
      ],
      "name": "OwnershipTransferred",
      "type": "event"
    },
    {
      "anonymous": false,
      "inputs": [
        {
          "indexed": false,
          "internalType": "bool",
          "name": "success",
          "type": "bool"
        },
        {
          "indexed": false,
          "internalType": "bytes",
          "name": "data",
          "type": "bytes"
        }
      ],
      "name": "Response",
      "type": "event"
    },
    {
      "inputs": [
        {
          "internalType": "string",
          "name": "_name",
          "type": "string"
        },
        {
          "internalType": "uint256",
          "name": "_stakeAmount",
          "type": "uint256"
        },
        {
          "internalType": "bool",
          "name": "_isPublic",
          "type": "bool"
        },
        {
          "internalType": "address",
          "name": "_admin",
          "type": "address"
        },
        {
          "internalType": "address",
          "name": "_erc20Address",
          "type": "address"
        },
        {
          "internalType": "address",
          "name": "_athletesContractAddress",
          "type": "address"
        },
        {
          "internalType": "address",
          "name": "_gameItemsContractAddress",
          "type": "address"
        },
        {
          "internalType": "address[]",
          "name": "_whitelistUsers",
          "type": "address[]"
        }
      ],
      "name": "createLeague",
      "outputs": [
        {
          "internalType": "address",
          "name": "",
          "type": "address"
        }
      ],
      "stateMutability": "nonpayable",
      "type": "function"
    },
    {
      "inputs": [],
      "name": "currentWeek",
      "outputs": [
        {
          "internalType": "uint256",
          "name": "",
          "type": "uint256"
        }
      ],
      "stateMutability": "view",
      "type": "function"
    },
    {
      "inputs": [],
      "name": "getLeagueAddresses",
      "outputs": [
        {
          "internalType": "address[]",
          "name": "",
          "type": "address[]"
        }
      ],
      "stateMutability": "view",
      "type": "function"
    },
    {
      "inputs": [],
      "name": "incrementCurrentWeek",
      "outputs": [],
      "stateMutability": "nonpayable",
      "type": "function"
    },
    {
      "inputs": [
        {
          "internalType": "address",
          "name": "",
          "type": "address"
        }
      ],
      "name": "isProxyMap",
      "outputs": [
        {
          "internalType": "bool",
          "name": "",
          "type": "bool"
        }
      ],
      "stateMutability": "view",
      "type": "function"
    },
    {
      "inputs": [
        {
          "internalType": "uint256",
          "name": "",
          "type": "uint256"
        }
      ],
      "name": "leagueAddresses",
      "outputs": [
        {
          "internalType": "address",
          "name": "",
          "type": "address"
        }
      ],
      "stateMutability": "view",
      "type": "function"
    },
    {
      "inputs": [],
      "name": "owner",
      "outputs": [
        {
          "internalType": "address",
          "name": "",
          "type": "address"
        }
      ],
      "stateMutability": "view",
      "type": "function"
    },
    {
      "inputs": [],
      "name": "renounceOwnership",
      "outputs": [],
      "stateMutability": "nonpayable",
      "type": "function"
    },
    {
      "inputs": [
        {
          "internalType": "address",
          "name": "logic",
          "type": "address"
        }
      ],
      "name": "setBeacon",
      "outputs": [
        {
          "internalType": "address",
          "name": "",
          "type": "address"
        }
      ],
      "stateMutability": "nonpayable",
      "type": "function"
    },
    {
      "inputs": [
        {
          "internalType": "address",
          "name": "newOwner",
          "type": "address"
        }
      ],
      "name": "transferOwnership",
      "outputs": [],
      "stateMutability": "nonpayable",
      "type": "function"
    },
    {
      "inputs": [
        {
          "internalType": "address",
          "name": "user",
          "type": "address"
        }
      ],
      "name": "updateUserToLeagueMapping",
      "outputs": [],
      "stateMutability": "nonpayable",
      "type": "function"
    },
    {
      "inputs": [
        {
          "internalType": "address",
          "name": "",
          "type": "address"
        },
        {
          "internalType": "uint256",
          "name": "",
          "type": "uint256"
        }
      ],
      "name": "userToLeagueMap",
      "outputs": [
        {
          "internalType": "address",
          "name": "",
          "type": "address"
        }
      ],
      "stateMutability": "view",
      "type": "function"
    }
  ],
  "bytecode": "0x60c060405260086007556003600855732791bca1f2de4661ed88a30c99a7a9449aa84174600960006101000a81548173ffffffffffffffffffffffffffffffffffffffff021916908373ffffffffffffffffffffffffffffffffffffffff16021790555073eb8f08a975ab53e34d8a0330e0d34de942c95926600a60006101000a81548173ffffffffffffffffffffffffffffffffffffffff021916908373ffffffffffffffffffffffffffffffffffffffff160217905550348015620000c557600080fd5b5060405162005dd438038062005dd48339818101604052810190620000eb9190620002a9565b6200010b620000ff620001b860201b60201c565b620001c060201b60201c565b806040516200011a9062000284565b620001269190620002ec565b604051809103906000f08015801562000143573d6000803e3d6000fd5b5073ffffffffffffffffffffffffffffffffffffffff1660808173ffffffffffffffffffffffffffffffffffffffff1660601b815250503373ffffffffffffffffffffffffffffffffffffffff1660a08173ffffffffffffffffffffffffffffffffffffffff1660601b81525050506200035c565b600033905090565b60008060009054906101000a900473ffffffffffffffffffffffffffffffffffffffff169050816000806101000a81548173ffffffffffffffffffffffffffffffffffffffff021916908373ffffffffffffffffffffffffffffffffffffffff1602179055508173ffffffffffffffffffffffffffffffffffffffff168173ffffffffffffffffffffffffffffffffffffffff167f8be0079c531659141344cd1fd0a4f28419497f9722a3daafe3b4186f6b6457e060405160405180910390a35050565b610a91806200534383390190565b600081519050620002a38162000342565b92915050565b600060208284031215620002c257620002c16200033d565b5b6000620002d28482850162000292565b91505092915050565b620002e68162000309565b82525050565b6000602082019050620003036000830184620002db565b92915050565b600062000316826200031d565b9050919050565b600073ffffffffffffffffffffffffffffffffffffffff82169050919050565b600080fd5b6200034d8162000309565b81146200035957600080fd5b50565b60805160601c60a05160601c614fb46200038f6000396000818161042701526109b1015260006104e50152614fb46000f3fe60806040523480156200001157600080fd5b5060043610620000c45760003560e01c80639c77955b116200007b5780639c77955b14620001a5578063a69b331814620001c7578063b37cc9f114620001d3578063c3530ff41462000209578063d42afb56146200023f578063f2fde38b146200027557620000c4565b806306575c8914620000c95780630b792e4814620000eb57806329ffe5e91462000121578063715018a61462000157578063771bd4ce14620001635780638da5cb5b1462000183575b600080fd5b620000d362000295565b604051620000e291906200154a565b60405180910390f35b62000109600480360381019062000103919062000ed2565b6200029b565b604051620001189190620012d5565b60405180910390f35b6200013f600480360381019062000139919062000fe2565b620006f3565b6040516200014e9190620012d5565b60405180910390f35b6200016162000733565b005b6200018160048036038101906200017b919062000e59565b620007c4565b005b6200018d620008f6565b6040516200019c9190620012d5565b60405180910390f35b620001af6200091f565b604051620001be919062001326565b60405180910390f35b620001d1620009af565b005b620001f16004803603810190620001eb919062000e59565b62000a5c565b6040516200020091906200134a565b60405180910390f35b62000227600480360381019062000221919062000e8b565b62000a7c565b604051620002369190620012d5565b60405180910390f35b6200025d600480360381019062000257919062000e59565b62000acb565b6040516200026c9190620012d5565b60405180910390f35b6200029360048036038101906200028d919062000e59565b62000b53565b005b60085481565b60006064891115620002e4576040517f08c379a0000000000000000000000000000000000000000000000000000000008152600401620002db9062001528565b60405180910390fd5b85600160006101000a81548173ffffffffffffffffffffffffffffffffffffffff021916908373ffffffffffffffffffffffffffffffffffffffff16021790555088600160009054906101000a900473ffffffffffffffffffffffffffffffffffffffff1673ffffffffffffffffffffffffffffffffffffffff166370a08231336040518263ffffffff1660e01b8152600401620003839190620012d5565b60206040518083038186803b1580156200039c57600080fd5b505afa158015620003b1573d6000803e3d6000fd5b505050506040513d601f19601f82011682018060405250810190620003d7919062001014565b10156200041b576040517f08c379a00000000000000000000000000000000000000000000000000000000081526004016200041290620014a0565b60405180910390fd5b60008b8b8b8b898c8c8b7f000000000000000000000000000000000000000000000000000000000000000030604051602401620004629a99989796959493929190620013d6565b6040516020818303038152906040527f989db659000000000000000000000000000000000000000000000000000000007bffffffffffffffffffffffffffffffffffffffffffffffffffffffff19166020820180517bffffffffffffffffffffffffffffffffffffffffffffffffffffffff8381831617835250505050905060007f000000000000000000000000000000000000000000000000000000000000000082604051620005139062000d23565b62000520929190620012f2565b604051809103906000f0801580156200053d573d6000803e3d6000fd5b5090506003819080600181540180825580915050600190039060005260206000200160009091909190916101000a81548173ffffffffffffffffffffffffffffffffffffffff021916908373ffffffffffffffffffffffffffffffffffffffff160217905550600460003373ffffffffffffffffffffffffffffffffffffffff1673ffffffffffffffffffffffffffffffffffffffff168152602001908152602001600020819080600181540180825580915050600190039060005260206000200160009091909190916101000a81548173ffffffffffffffffffffffffffffffffffffffff021916908373ffffffffffffffffffffffffffffffffffffffff1602179055506001600560008373ffffffffffffffffffffffffffffffffffffffff1673ffffffffffffffffffffffffffffffffffffffff16815260200190815260200160002060006101000a81548160ff0219169083151502179055507f1fa4ca3020eda7ecb7ed6beada715cf9c5cd185953b96ceca4ad5b1405e2b0378d8d838c89898e604051620006d8979695949392919062001367565b60405180910390a180925050509a9950505050505050505050565b600381815481106200070457600080fd5b906000526020600020016000915054906101000a900473ffffffffffffffffffffffffffffffffffffffff1681565b6200073d62000c57565b73ffffffffffffffffffffffffffffffffffffffff166200075d620008f6565b73ffffffffffffffffffffffffffffffffffffffff1614620007b6576040517f08c379a0000000000000000000000000000000000000000000000000000000008152600401620007ad90620014e4565b60405180910390fd5b620007c2600062000c5f565b565b600560003373ffffffffffffffffffffffffffffffffffffffff1673ffffffffffffffffffffffffffffffffffffffff16815260200190815260200160002060009054906101000a900460ff1662000853576040517f08c379a00000000000000000000000000000000000000000000000000000000081526004016200084a90620014c2565b60405180910390fd5b600460008273ffffffffffffffffffffffffffffffffffffffff1673ffffffffffffffffffffffffffffffffffffffff168152602001908152602001600020339080600181540180825580915050600190039060005260206000200160009091909190916101000a81548173ffffffffffffffffffffffffffffffffffffffff021916908373ffffffffffffffffffffffffffffffffffffffff16021790555050565b60008060009054906101000a900473ffffffffffffffffffffffffffffffffffffffff16905090565b60606003805480602002602001604051908101604052809291908181526020018280548015620009a557602002820191906000526020600020905b8160009054906101000a900473ffffffffffffffffffffffffffffffffffffffff1673ffffffffffffffffffffffffffffffffffffffff16815260200190600101908083116200095a575b5050505050905090565b7f000000000000000000000000000000000000000000000000000000000000000073ffffffffffffffffffffffffffffffffffffffff163373ffffffffffffffffffffffffffffffffffffffff161462000a40576040517f08c379a000000000000000000000000000000000000000000000000000000000815260040162000a379062001506565b60405180910390fd5b6008600081548092919062000a55906200168c565b9190505550565b60056020528060005260406000206000915054906101000a900460ff1681565b6004602052816000526040600020818154811062000a9957600080fd5b906000526020600020016000915091509054906101000a900473ffffffffffffffffffffffffffffffffffffffff1681565b6000808260405162000add9062000d31565b62000ae99190620012d5565b604051809103906000f08015801562000b06573d6000803e3d6000fd5b50905080600260006101000a81548173ffffffffffffffffffffffffffffffffffffffff021916908373ffffffffffffffffffffffffffffffffffffffff16021790555080915050919050565b62000b5d62000c57565b73ffffffffffffffffffffffffffffffffffffffff1662000b7d620008f6565b73ffffffffffffffffffffffffffffffffffffffff161462000bd6576040517f08c379a000000000000000000000000000000000000000000000000000000000815260040162000bcd90620014e4565b60405180910390fd5b600073ffffffffffffffffffffffffffffffffffffffff168173ffffffffffffffffffffffffffffffffffffffff16141562000c49576040517f08c379a000000000000000000000000000000000000000000000000000000000815260040162000c40906200147e565b60405180910390fd5b62000c548162000c5f565b50565b600033905090565b60008060009054906101000a900473ffffffffffffffffffffffffffffffffffffffff169050816000806101000a81548173ffffffffffffffffffffffffffffffffffffffff021916908373ffffffffffffffffffffffffffffffffffffffff1602179055508173ffffffffffffffffffffffffffffffffffffffff168173ffffffffffffffffffffffffffffffffffffffff167f8be0079c531659141344cd1fd0a4f28419497f9722a3daafe3b4186f6b6457e060405160405180910390a35050565b612bb8806200193683390190565b610a9180620044ee83390190565b60008135905062000d5081620018e7565b92915050565b60008083601f84011262000d6f5762000d6e6200170e565b5b8235905067ffffffffffffffff81111562000d8f5762000d8e62001709565b5b60208301915083602082028301111562000dae5762000dad62001713565b5b9250929050565b60008135905062000dc68162001901565b92915050565b60008083601f84011262000de55762000de46200170e565b5b8235905067ffffffffffffffff81111562000e055762000e0462001709565b5b60208301915083600182028301111562000e245762000e2362001713565b5b9250929050565b60008135905062000e3c816200191b565b92915050565b60008151905062000e53816200191b565b92915050565b60006020828403121562000e725762000e716200171d565b5b600062000e828482850162000d3f565b91505092915050565b6000806040838503121562000ea55762000ea46200171d565b5b600062000eb58582860162000d3f565b925050602062000ec88582860162000e2b565b9150509250929050565b6000806000806000806000806000806101008b8d03121562000ef95762000ef86200171d565b5b60008b013567ffffffffffffffff81111562000f1a5762000f1962001718565b5b62000f288d828e0162000dcc565b9a509a5050602062000f3d8d828e0162000e2b565b985050604062000f508d828e0162000db5565b975050606062000f638d828e0162000d3f565b965050608062000f768d828e0162000d3f565b95505060a062000f898d828e0162000d3f565b94505060c062000f9c8d828e0162000d3f565b93505060e08b013567ffffffffffffffff81111562000fc05762000fbf62001718565b5b62000fce8d828e0162000d56565b92509250509295989b9194979a5092959850565b60006020828403121562000ffb5762000ffa6200171d565b5b60006200100b8482850162000e2b565b91505092915050565b6000602082840312156200102d576200102c6200171d565b5b60006200103d8482850162000e42565b91505092915050565b600062001054838362001060565b60208301905092915050565b6200106b81620015fd565b82525050565b6200107c81620015fd565b82525050565b6000620010908385620015b1565b93506200109d8262001567565b8060005b85811015620010de57620010b68284620015e4565b620010c2888262001046565b9750620010cf8362001597565b925050600181019050620010a1565b5085925050509392505050565b6000620010f88262001581565b620011048185620015b1565b9350620011118362001571565b8060005b83811015620011485781516200112c888262001046565b97506200113983620015a4565b92505060018101905062001115565b5085935050505092915050565b620011608162001611565b82525050565b600062001173826200158c565b6200117f8185620015c2565b93506200119181856020860162001656565b6200119c8162001722565b840191505092915050565b6000620011b58385620015d3565b9350620011c483858462001647565b620011cf8362001722565b840190509392505050565b6000620011e9602683620015d3565b9150620011f68262001733565b604082019050919050565b600062001210604683620015d3565b91506200121d8262001782565b606082019050919050565b600062001237602483620015d3565b91506200124482620017f7565b604082019050919050565b60006200125e602083620015d3565b91506200126b8262001846565b602082019050919050565b600062001285601683620015d3565b915062001292826200186f565b602082019050919050565b6000620012ac602583620015d3565b9150620012b98262001898565b604082019050919050565b620012cf816200163d565b82525050565b6000602082019050620012ec600083018462001071565b92915050565b600060408201905062001309600083018562001071565b81810360208301526200131d818462001166565b90509392505050565b60006020820190508181036000830152620013428184620010eb565b905092915050565b600060208201905062001361600083018462001155565b92915050565b600060a08201905081810360008301526200138481898b620011a7565b905062001395602083018862001071565b620013a4604083018762001071565b8181036060830152620013b981858762001082565b9050620013ca608083018462001071565b98975050505050505050565b6000610120820190508181036000830152620013f4818c8e620011a7565b905062001405602083018b620012c4565b62001414604083018a62001155565b62001423606083018962001071565b62001432608083018862001071565b6200144160a083018762001071565b6200145060c083018662001071565b6200145f60e083018562001071565b6200146f61010083018462001071565b9b9a5050505050505050505050565b600060208201905081810360008301526200149981620011da565b9050919050565b60006020820190508181036000830152620014bb8162001201565b9050919050565b60006020820190508181036000830152620014dd8162001228565b9050919050565b60006020820190508181036000830152620014ff816200124f565b9050919050565b60006020820190508181036000830152620015218162001276565b9050919050565b6000602082019050818103600083015262001543816200129d565b9050919050565b6000602082019050620015616000830184620012c4565b92915050565b6000819050919050565b6000819050602082019050919050565b600081519050919050565b600081519050919050565b6000602082019050919050565b6000602082019050919050565b600082825260208201905092915050565b600082825260208201905092915050565b600082825260208201905092915050565b6000620015f5602084018462000d3f565b905092915050565b60006200160a826200161d565b9050919050565b60008115159050919050565b600073ffffffffffffffffffffffffffffffffffffffff82169050919050565b6000819050919050565b82818337600083830152505050565b60005b838110156200167657808201518184015260208101905062001659565b8381111562001686576000848401525b50505050565b600062001699826200163d565b91507fffffffffffffffffffffffffffffffffffffffffffffffffffffffffffffffff821415620016cf57620016ce620016da565b5b600182019050919050565b7f4e487b7100000000000000000000000000000000000000000000000000000000600052601160045260246000fd5b600080fd5b600080fd5b600080fd5b600080fd5b600080fd5b6000601f19601f8301169050919050565b7f4f776e61626c653a206e6577206f776e657220697320746865207a65726f206160008201527f6464726573730000000000000000000000000000000000000000000000000000602082015250565b7f43726561746f72206f66206c6561677565206e6565647320656e6f756768205560008201527f5344432028657175616c20746f20737065636966696564207374616b6520616d60208201527f6f756e74292e0000000000000000000000000000000000000000000000000000604082015250565b7f43616c6c6572206973206e6f7420612076616c69642070726f7879206164647260008201527f6573732e00000000000000000000000000000000000000000000000000000000602082015250565b7f4f776e61626c653a2063616c6c6572206973206e6f7420746865206f776e6572600082015250565b7f43616c6c6572206973206e6f74205465616d4469666600000000000000000000600082015250565b7f4c6561677565207374616b6520616d6f756e74206d7573742062652062656c6f60008201527f7720313030000000000000000000000000000000000000000000000000000000602082015250565b620018f281620015fd565b8114620018fe57600080fd5b50565b6200190c8162001611565b81146200191857600080fd5b50565b62001926816200163d565b81146200193257600080fd5b5056fe608060405260405162002bb838038062002bb88339818101604052810190620000299190620006bb565b620000496200003d620000cf60201b60201c565b620000d760201b60201c565b60017fa3f0ad74e5423aebfd80d3ef4346578335a9a72aeaee59ff6cb3582b35133d5160001c6200007b919062000942565b60001b7fa3f0ad74e5423aebfd80d3ef4346578335a9a72aeaee59ff6cb3582b35133d5060001b14620000b357620000b262000a27565b5b620000c7828260006200019b60201b60201c565b505062000be0565b600033905090565b60008060009054906101000a900473ffffffffffffffffffffffffffffffffffffffff169050816000806101000a81548173ffffffffffffffffffffffffffffffffffffffff021916908373ffffffffffffffffffffffffffffffffffffffff1602179055508173ffffffffffffffffffffffffffffffffffffffff168173ffffffffffffffffffffffffffffffffffffffff167f8be0079c531659141344cd1fd0a4f28419497f9722a3daafe3b4186f6b6457e060405160405180910390a35050565b620001ac83620002a260201b60201c565b8273ffffffffffffffffffffffffffffffffffffffff167f1cf3b03a6cf19fa2baba4df148e9dcabedea7f8a5c07840e207e5c089be95d3e60405160405180910390a2600082511180620001fd5750805b156200029d576200029b8373ffffffffffffffffffffffffffffffffffffffff16635c60da1b6040518163ffffffff1660e01b815260040160206040518083038186803b1580156200024e57600080fd5b505afa15801562000263573d6000803e3d6000fd5b505050506040513d601f19601f8201168201806040525081019062000289919062000689565b836200045160201b62000c801760201c565b505b505050565b620002b8816200048760201b62000cad1760201c565b620002fa576040517f08c379a0000000000000000000000000000000000000000000000000000000008152600401620002f1906200084b565b60405180910390fd5b620003918173ffffffffffffffffffffffffffffffffffffffff16635c60da1b6040518163ffffffff1660e01b815260040160206040518083038186803b1580156200034557600080fd5b505afa1580156200035a573d6000803e3d6000fd5b505050506040513d601f19601f8201168201806040525081019062000380919062000689565b6200048760201b62000cad1760201c565b620003d3576040517f08c379a0000000000000000000000000000000000000000000000000000000008152600401620003ca906200088f565b60405180910390fd5b806200040d7fa3f0ad74e5423aebfd80d3ef4346578335a9a72aeaee59ff6cb3582b35133d5060001b6200049a60201b62000cc01760201c565b60000160006101000a81548173ffffffffffffffffffffffffffffffffffffffff021916908373ffffffffffffffffffffffffffffffffffffffff16021790555050565b60606200047f838360405180606001604052806027815260200162002b9160279139620004a460201b60201c565b905092915050565b600080823b905060008111915050919050565b6000819050919050565b6060620004b7846200048760201b60201c565b620004f9576040517f08c379a0000000000000000000000000000000000000000000000000000000008152600401620004f0906200086d565b60405180910390fd5b6000808573ffffffffffffffffffffffffffffffffffffffff16856040516200052391906200080e565b600060405180830381855af49150503d806000811462000560576040519150601f19603f3d011682016040523d82523d6000602084013e62000565565b606091505b50915091506200057d8282866200058860201b60201c565b925050509392505050565b606083156200059a57829050620005ed565b600083511115620005ae5782518084602001fd5b816040517f08c379a0000000000000000000000000000000000000000000000000000000008152600401620005e4919062000827565b60405180910390fd5b9392505050565b60006200060b6200060584620008da565b620008b1565b9050828152602081018484840111156200062a576200062962000ab9565b5b62000637848285620009bb565b509392505050565b600081519050620006508162000bc6565b92915050565b600082601f8301126200066e576200066d62000ab4565b5b815162000680848260208601620005f4565b91505092915050565b600060208284031215620006a257620006a162000ac3565b5b6000620006b2848285016200063f565b91505092915050565b60008060408385031215620006d557620006d462000ac3565b5b6000620006e5858286016200063f565b925050602083015167ffffffffffffffff81111562000709576200070862000abe565b5b620007178582860162000656565b9150509250929050565b60006200072e8262000910565b6200073a818562000926565b93506200074c818560208601620009bb565b80840191505092915050565b600062000765826200091b565b62000771818562000931565b935062000783818560208601620009bb565b6200078e8162000ac8565b840191505092915050565b6000620007a860258362000931565b9150620007b58262000ad9565b604082019050919050565b6000620007cf60268362000931565b9150620007dc8262000b28565b604082019050919050565b6000620007f660308362000931565b9150620008038262000b77565b604082019050919050565b60006200081c828462000721565b915081905092915050565b6000602082019050818103600083015262000843818462000758565b905092915050565b60006020820190508181036000830152620008668162000799565b9050919050565b600060208201905081810360008301526200088881620007c0565b9050919050565b60006020820190508181036000830152620008aa81620007e7565b9050919050565b6000620008bd620008d0565b9050620008cb8282620009f1565b919050565b6000604051905090565b600067ffffffffffffffff821115620008f857620008f762000a85565b5b620009038262000ac8565b9050602081019050919050565b600081519050919050565b600081519050919050565b600081905092915050565b600082825260208201905092915050565b60006200094f82620009b1565b91506200095c83620009b1565b92508282101562000972576200097162000a56565b5b828203905092915050565b60006200098a8262000991565b9050919050565b600073ffffffffffffffffffffffffffffffffffffffff82169050919050565b6000819050919050565b60005b83811015620009db578082015181840152602081019050620009be565b83811115620009eb576000848401525b50505050565b620009fc8262000ac8565b810181811067ffffffffffffffff8211171562000a1e5762000a1d62000a85565b5b80604052505050565b7f4e487b7100000000000000000000000000000000000000000000000000000000600052600160045260246000fd5b7f4e487b7100000000000000000000000000000000000000000000000000000000600052601160045260246000fd5b7f4e487b7100000000000000000000000000000000000000000000000000000000600052604160045260246000fd5b600080fd5b600080fd5b600080fd5b600080fd5b6000601f19601f8301169050919050565b7f455243313936373a206e657720626561636f6e206973206e6f74206120636f6e60008201527f7472616374000000000000000000000000000000000000000000000000000000602082015250565b7f416464726573733a2064656c65676174652063616c6c20746f206e6f6e2d636f60008201527f6e74726163740000000000000000000000000000000000000000000000000000602082015250565b7f455243313936373a20626561636f6e20696d706c656d656e746174696f6e206960008201527f73206e6f74206120636f6e747261637400000000000000000000000000000000602082015250565b62000bd1816200097d565b811462000bdd57600080fd5b50565b611fa18062000bf06000396000f3fe6080604052600436106101855760003560e01c80637eed33f1116100d1578063a217fddf1161008a578063db2a672411610064578063db2a6724146105c6578063dc9a153514610603578063f2fde38b1461062e578063f851a4401461065757610194565b8063a217fddf14610535578063cff5600314610560578063d547741f1461059d57610194565b80637eed33f11461040f578063841abf6e1461043a57806384900b04146104655780638da5cb5b146104905780639122ce6d146104bb57806391d14854146104f857610194565b80632ae6b1351161013e57806360c7dc471161011857806360c7dc47146103775780636cc15ad5146103a2578063715018a6146103cd578063785e9e86146103e457610194565b80632ae6b135146102e85780632f2ff15d1461032557806336568abe1461034e57610194565b806301ffc9a71461019e5780630635dbcb146101db5780630c6f7959146102065780631dd7f8ca14610243578063248a9ca31461026e578063267175db146102ab57610194565b3661019457610192610682565b005b61019c610682565b005b3480156101aa57600080fd5b506101c560048036038101906101c0919061164a565b61069c565b6040516101d291906118fa565b60405180910390f35b3480156101e757600080fd5b506101f0610716565b6040516101fd91906118fa565b60405180910390f35b34801561021257600080fd5b5061022d6004803603810190610228919061159d565b610729565b60405161023a9190611a28565b60405180910390f35b34801561024f57600080fd5b50610258610751565b60405161026591906118df565b60405180910390f35b34801561027a57600080fd5b50610295600480360381019061029091906115dd565b610777565b6040516102a29190611915565b60405180910390f35b3480156102b757600080fd5b506102d260048036038101906102cd9190611677565b610797565b6040516102df91906118df565b60405180910390f35b3480156102f457600080fd5b5061030f600480360381019061030a9190611543565b6107d6565b60405161031c9190611a28565b60405180910390f35b34801561033157600080fd5b5061034c6004803603810190610347919061160a565b6107ee565b005b34801561035a57600080fd5b506103756004803603810190610370919061160a565b610817565b005b34801561038357600080fd5b5061038c61089a565b6040516103999190611a28565b60405180910390f35b3480156103ae57600080fd5b506103b76108a0565b6040516103c491906118fa565b60405180910390f35b3480156103d957600080fd5b506103e26108b3565b005b3480156103f057600080fd5b506103f961093b565b6040516104069190611930565b60405180910390f35b34801561041b57600080fd5b50610424610961565b6040516104319190611a28565b60405180910390f35b34801561044657600080fd5b5061044f610967565b60405161045c9190611966565b60405180910390f35b34801561047157600080fd5b5061047a6109f5565b604051610487919061194b565b60405180910390f35b34801561049c57600080fd5b506104a5610a1b565b6040516104b291906118df565b60405180910390f35b3480156104c757600080fd5b506104e260048036038101906104dd9190611543565b610a44565b6040516104ef91906118fa565b60405180910390f35b34801561050457600080fd5b5061051f600480360381019061051a919061160a565b610a64565b60405161052c91906118fa565b60405180910390f35b34801561054157600080fd5b5061054a610acf565b6040516105579190611915565b60405180910390f35b34801561056c57600080fd5b506105876004803603810190610582919061159d565b610ad6565b6040516105949190611a28565b60405180910390f35b3480156105a957600080fd5b506105c460048036038101906105bf919061160a565b610afe565b005b3480156105d257600080fd5b506105ed60048036038101906105e8919061159d565b610b27565b6040516105fa9190611a28565b60405180910390f35b34801561060f57600080fd5b50610618610b4f565b60405161062591906118fa565b60405180910390f35b34801561063a57600080fd5b5061065560048036038101906106509190611543565b610b62565b005b34801561066357600080fd5b5061066c610c5a565b60405161067991906118df565b60405180910390f35b61068a610cca565b61069a610695610ccc565b610d58565b565b60007f7965db0b000000000000000000000000000000000000000000000000000000007bffffffffffffffffffffffffffffffffffffffffffffffffffffffff1916827bffffffffffffffffffffffffffffffffffffffffffffffffffffffff1916148061070f575061070e82610d7e565b5b9050919050565b600660159054906101000a900460ff1681565b6007602052816000526040600020816008811061074557600080fd5b01600091509150505481565b600660009054906101000a900473ffffffffffffffffffffffffffffffffffffffff1681565b600060016000838152602001908152602001600020600101549050919050565b600c81815481106107a757600080fd5b906000526020600020016000915054906101000a900473ffffffffffffffffffffffffffffffffffffffff1681565b600a6020528060005260406000206000915090505481565b6107f782610777565b61080881610803610de8565b610df0565b6108128383610e8d565b505050565b61081f610de8565b73ffffffffffffffffffffffffffffffffffffffff168173ffffffffffffffffffffffffffffffffffffffff161461088c576040517f08c379a000000000000000000000000000000000000000000000000000000000815260040161088390611a08565b60405180910390fd5b6108968282610f6d565b5050565b60045481565b600660149054906101000a900460ff1681565b6108bb610de8565b73ffffffffffffffffffffffffffffffffffffffff166108d9610a1b565b73ffffffffffffffffffffffffffffffffffffffff161461092f576040517f08c379a0000000000000000000000000000000000000000000000000000000008152600401610926906119c8565b60405180910390fd5b610939600061104f565b565b601260009054906101000a900473ffffffffffffffffffffffffffffffffffffffff1681565b60035481565b6002805461097490611c53565b80601f01602080910402602001604051908101604052809291908181526020018280546109a090611c53565b80156109ed5780601f106109c2576101008083540402835291602001916109ed565b820191906000526020600020905b8154815290600101906020018083116109d057829003601f168201915b505050505081565b601060009054906101000a900473ffffffffffffffffffffffffffffffffffffffff1681565b60008060009054906101000a900473ffffffffffffffffffffffffffffffffffffffff16905090565b600b6020528060005260406000206000915054906101000a900460ff1681565b60006001600084815260200190815260200160002060000160008373ffffffffffffffffffffffffffffffffffffffff1673ffffffffffffffffffffffffffffffffffffffff16815260200190815260200160002060009054906101000a900460ff16905092915050565b6000801b81565b60086020528160005260406000208160058110610af257600080fd5b01600091509150505481565b610b0782610777565b610b1881610b13610de8565b610df0565b610b228383610f6d565b505050565b60096020528160005260406000208160088110610b4357600080fd5b01600091509150505481565b600660169054906101000a900460ff1681565b610b6a610de8565b73ffffffffffffffffffffffffffffffffffffffff16610b88610a1b565b73ffffffffffffffffffffffffffffffffffffffff1614610bde576040517f08c379a0000000000000000000000000000000000000000000000000000000008152600401610bd5906119c8565b60405180910390fd5b600073ffffffffffffffffffffffffffffffffffffffff168173ffffffffffffffffffffffffffffffffffffffff161415610c4e576040517f08c379a0000000000000000000000000000000000000000000000000000000008152600401610c45906119a8565b60405180910390fd5b610c578161104f565b50565b600560009054906101000a900473ffffffffffffffffffffffffffffffffffffffff1681565b6060610ca58383604051806060016040528060278152602001611f4560279139611113565b905092915050565b600080823b905060008111915050919050565b6000819050919050565b565b6000610cd66111e0565b73ffffffffffffffffffffffffffffffffffffffff16635c60da1b6040518163ffffffff1660e01b815260040160206040518083038186803b158015610d1b57600080fd5b505afa158015610d2f573d6000803e3d6000fd5b505050506040513d601f19601f82011682018060405250810190610d539190611570565b905090565b3660008037600080366000845af43d6000803e8060008114610d79573d6000f35b3d6000fd5b60007f01ffc9a7000000000000000000000000000000000000000000000000000000007bffffffffffffffffffffffffffffffffffffffffffffffffffffffff1916827bffffffffffffffffffffffffffffffffffffffffffffffffffffffff1916149050919050565b600033905090565b610dfa8282610a64565b610e8957610e1f8173ffffffffffffffffffffffffffffffffffffffff166014611237565b610e2d8360001c6020611237565b604051602001610e3e9291906118a5565b6040516020818303038152906040526040517f08c379a0000000000000000000000000000000000000000000000000000000008152600401610e809190611966565b60405180910390fd5b5050565b610e978282610a64565b610f6957600180600084815260200190815260200160002060000160008373ffffffffffffffffffffffffffffffffffffffff1673ffffffffffffffffffffffffffffffffffffffff16815260200190815260200160002060006101000a81548160ff021916908315150217905550610f0e610de8565b73ffffffffffffffffffffffffffffffffffffffff168173ffffffffffffffffffffffffffffffffffffffff16837f2f8788117e7eff1d82e926ec794901d17c78024a50270940304540a733656f0d60405160405180910390a45b5050565b610f778282610a64565b1561104b5760006001600084815260200190815260200160002060000160008373ffffffffffffffffffffffffffffffffffffffff1673ffffffffffffffffffffffffffffffffffffffff16815260200190815260200160002060006101000a81548160ff021916908315150217905550610ff0610de8565b73ffffffffffffffffffffffffffffffffffffffff168173ffffffffffffffffffffffffffffffffffffffff16837ff6391f5c32d9c69d2a47ea670b442974b53935d1edc7fd64eb21e047a839171b60405160405180910390a45b5050565b60008060009054906101000a900473ffffffffffffffffffffffffffffffffffffffff169050816000806101000a81548173ffffffffffffffffffffffffffffffffffffffff021916908373ffffffffffffffffffffffffffffffffffffffff1602179055508173ffffffffffffffffffffffffffffffffffffffff168173ffffffffffffffffffffffffffffffffffffffff167f8be0079c531659141344cd1fd0a4f28419497f9722a3daafe3b4186f6b6457e060405160405180910390a35050565b606061111e84610cad565b61115d576040517f08c379a0000000000000000000000000000000000000000000000000000000008152600401611154906119e8565b60405180910390fd5b6000808573ffffffffffffffffffffffffffffffffffffffff1685604051611185919061188e565b600060405180830381855af49150503d80600081146111c0576040519150601f19603f3d011682016040523d82523d6000602084013e6111c5565b606091505b50915091506111d5828286611473565b925050509392505050565b600061120e7fa3f0ad74e5423aebfd80d3ef4346578335a9a72aeaee59ff6cb3582b35133d5060001b610cc0565b60000160009054906101000a900473ffffffffffffffffffffffffffffffffffffffff16905090565b60606000600283600261124a9190611ad6565b6112549190611a80565b67ffffffffffffffff81111561126d5761126c611d12565b5b6040519080825280601f01601f19166020018201604052801561129f5781602001600182028036833780820191505090505b5090507f3000000000000000000000000000000000000000000000000000000000000000816000815181106112d7576112d6611ce3565b5b60200101907effffffffffffffffffffffffffffffffffffffffffffffffffffffffffffff1916908160001a9053507f78000000000000000000000000000000000000000000000000000000000000008160018151811061133b5761133a611ce3565b5b60200101907effffffffffffffffffffffffffffffffffffffffffffffffffffffffffffff1916908160001a9053506000600184600261137b9190611ad6565b6113859190611a80565b90505b6001811115611425577f3031323334353637383961626364656600000000000000000000000000000000600f8616601081106113c7576113c6611ce3565b5b1a60f81b8282815181106113de576113dd611ce3565b5b60200101907effffffffffffffffffffffffffffffffffffffffffffffffffffffffffffff1916908160001a905350600485901c94508061141e90611c29565b9050611388565b5060008414611469576040517f08c379a000000000000000000000000000000000000000000000000000000000815260040161146090611988565b60405180910390fd5b8091505092915050565b60608315611483578290506114d3565b6000835111156114965782518084602001fd5b816040517f08c379a00000000000000000000000000000000000000000000000000000000081526004016114ca9190611966565b60405180910390fd5b9392505050565b6000813590506114e981611ee8565b92915050565b6000815190506114fe81611ee8565b92915050565b60008135905061151381611eff565b92915050565b60008135905061152881611f16565b92915050565b60008135905061153d81611f2d565b92915050565b60006020828403121561155957611558611d41565b5b6000611567848285016114da565b91505092915050565b60006020828403121561158657611585611d41565b5b6000611594848285016114ef565b91505092915050565b600080604083850312156115b4576115b3611d41565b5b60006115c2858286016114da565b92505060206115d38582860161152e565b9150509250929050565b6000602082840312156115f3576115f2611d41565b5b600061160184828501611504565b91505092915050565b6000806040838503121561162157611620611d41565b5b600061162f85828601611504565b9250506020611640858286016114da565b9150509250929050565b6000602082840312156116605761165f611d41565b5b600061166e84828501611519565b91505092915050565b60006020828403121561168d5761168c611d41565b5b600061169b8482850161152e565b91505092915050565b6116ad81611b30565b82525050565b6116bc81611b42565b82525050565b6116cb81611b4e565b82525050565b60006116dc82611a43565b6116e68185611a59565b93506116f6818560208601611bf6565b80840191505092915050565b61170b81611bae565b82525050565b61171a81611bc0565b82525050565b600061172b82611a4e565b6117358185611a64565b9350611745818560208601611bf6565b61174e81611d46565b840191505092915050565b600061176482611a4e565b61176e8185611a75565b935061177e818560208601611bf6565b80840191505092915050565b6000611797602083611a64565b91506117a282611d57565b602082019050919050565b60006117ba602683611a64565b91506117c582611d80565b604082019050919050565b60006117dd602083611a64565b91506117e882611dcf565b602082019050919050565b6000611800602683611a64565b915061180b82611df8565b604082019050919050565b6000611823601783611a75565b915061182e82611e47565b601782019050919050565b6000611846601183611a75565b915061185182611e70565b601182019050919050565b6000611869602f83611a64565b915061187482611e99565b604082019050919050565b61188881611ba4565b82525050565b600061189a82846116d1565b915081905092915050565b60006118b082611816565b91506118bc8285611759565b91506118c782611839565b91506118d38284611759565b91508190509392505050565b60006020820190506118f460008301846116a4565b92915050565b600060208201905061190f60008301846116b3565b92915050565b600060208201905061192a60008301846116c2565b92915050565b60006020820190506119456000830184611702565b92915050565b60006020820190506119606000830184611711565b92915050565b600060208201905081810360008301526119808184611720565b905092915050565b600060208201905081810360008301526119a18161178a565b9050919050565b600060208201905081810360008301526119c1816117ad565b9050919050565b600060208201905081810360008301526119e1816117d0565b9050919050565b60006020820190508181036000830152611a01816117f3565b9050919050565b60006020820190508181036000830152611a218161185c565b9050919050565b6000602082019050611a3d600083018461187f565b92915050565b600081519050919050565b600081519050919050565b600081905092915050565b600082825260208201905092915050565b600081905092915050565b6000611a8b82611ba4565b9150611a9683611ba4565b9250827fffffffffffffffffffffffffffffffffffffffffffffffffffffffffffffffff03821115611acb57611aca611c85565b5b828201905092915050565b6000611ae182611ba4565b9150611aec83611ba4565b9250817fffffffffffffffffffffffffffffffffffffffffffffffffffffffffffffffff0483118215151615611b2557611b24611c85565b5b828202905092915050565b6000611b3b82611b84565b9050919050565b60008115159050919050565b6000819050919050565b60007fffffffff0000000000000000000000000000000000000000000000000000000082169050919050565b600073ffffffffffffffffffffffffffffffffffffffff82169050919050565b6000819050919050565b6000611bb982611bd2565b9050919050565b6000611bcb82611bd2565b9050919050565b6000611bdd82611be4565b9050919050565b6000611bef82611b84565b9050919050565b60005b83811015611c14578082015181840152602081019050611bf9565b83811115611c23576000848401525b50505050565b6000611c3482611ba4565b91506000821415611c4857611c47611c85565b5b600182039050919050565b60006002820490506001821680611c6b57607f821691505b60208210811415611c7f57611c7e611cb4565b5b50919050565b7f4e487b7100000000000000000000000000000000000000000000000000000000600052601160045260246000fd5b7f4e487b7100000000000000000000000000000000000000000000000000000000600052602260045260246000fd5b7f4e487b7100000000000000000000000000000000000000000000000000000000600052603260045260246000fd5b7f4e487b7100000000000000000000000000000000000000000000000000000000600052604160045260246000fd5b600080fd5b6000601f19601f8301169050919050565b7f537472696e67733a20686578206c656e67746820696e73756666696369656e74600082015250565b7f4f776e61626c653a206e6577206f776e657220697320746865207a65726f206160008201527f6464726573730000000000000000000000000000000000000000000000000000602082015250565b7f4f776e61626c653a2063616c6c6572206973206e6f7420746865206f776e6572600082015250565b7f416464726573733a2064656c65676174652063616c6c20746f206e6f6e2d636f60008201527f6e74726163740000000000000000000000000000000000000000000000000000602082015250565b7f416363657373436f6e74726f6c3a206163636f756e7420000000000000000000600082015250565b7f206973206d697373696e6720726f6c6520000000000000000000000000000000600082015250565b7f416363657373436f6e74726f6c3a2063616e206f6e6c792072656e6f756e636560008201527f20726f6c657320666f722073656c660000000000000000000000000000000000602082015250565b611ef181611b30565b8114611efc57600080fd5b50565b611f0881611b4e565b8114611f1357600080fd5b50565b611f1f81611b58565b8114611f2a57600080fd5b50565b611f3681611ba4565b8114611f4157600080fd5b5056fe416464726573733a206c6f772d6c6576656c2064656c65676174652063616c6c206661696c6564a264697066735822122004cefe2bfa5da098d02777caf87be871bdde7aa65a27e61bd2b1e8c73bc4323464736f6c63430008070033416464726573733a206c6f772d6c6576656c2064656c65676174652063616c6c206661696c6564608060405234801561001057600080fd5b5060405162000a9138038062000a91833981810160405281019061003491906101ef565b61005061004561006560201b60201c565b61006d60201b60201c565b61005f8161013160201b60201c565b5061030d565b600033905090565b60008060009054906101000a900473ffffffffffffffffffffffffffffffffffffffff169050816000806101000a81548173ffffffffffffffffffffffffffffffffffffffff021916908373ffffffffffffffffffffffffffffffffffffffff1602179055508173ffffffffffffffffffffffffffffffffffffffff168173ffffffffffffffffffffffffffffffffffffffff167f8be0079c531659141344cd1fd0a4f28419497f9722a3daafe3b4186f6b6457e060405160405180910390a35050565b610144816101c760201b6103781760201c565b610183576040517f08c379a000000000000000000000000000000000000000000000000000000000815260040161017a9061023f565b60405180910390fd5b80600160006101000a81548173ffffffffffffffffffffffffffffffffffffffff021916908373ffffffffffffffffffffffffffffffffffffffff16021790555050565b600080823b905060008111915050919050565b6000815190506101e9816102f6565b92915050565b600060208284031215610205576102046102a2565b5b6000610213848285016101da565b91505092915050565b600061022960338361025f565b9150610234826102a7565b604082019050919050565b600060208201905081810360008301526102588161021c565b9050919050565b600082825260208201905092915050565b600061027b82610282565b9050919050565b600073ffffffffffffffffffffffffffffffffffffffff82169050919050565b600080fd5b7f5570677261646561626c65426561636f6e3a20696d706c656d656e746174696f60008201527f6e206973206e6f74206120636f6e747261637400000000000000000000000000602082015250565b6102ff81610270565b811461030a57600080fd5b50565b610774806200031d6000396000f3fe608060405234801561001057600080fd5b50600436106100575760003560e01c80633659cfe61461005c5780635c60da1b14610078578063715018a6146100965780638da5cb5b146100a0578063f2fde38b146100be575b600080fd5b610076600480360381019061007191906104f8565b6100da565b005b6100806101a5565b60405161008d919061059d565b60405180910390f35b61009e6101cf565b005b6100a8610257565b6040516100b5919061059d565b60405180910390f35b6100d860048036038101906100d391906104f8565b610280565b005b6100e261038b565b73ffffffffffffffffffffffffffffffffffffffff16610100610257565b73ffffffffffffffffffffffffffffffffffffffff1614610156576040517f08c379a000000000000000000000000000000000000000000000000000000000815260040161014d906105f8565b60405180910390fd5b61015f81610393565b8073ffffffffffffffffffffffffffffffffffffffff167fbc7cd75a20ee27fd9adebab32041f755214dbc6bffa90cc0225b39da2e5c2d3b60405160405180910390a250565b6000600160009054906101000a900473ffffffffffffffffffffffffffffffffffffffff16905090565b6101d761038b565b73ffffffffffffffffffffffffffffffffffffffff166101f5610257565b73ffffffffffffffffffffffffffffffffffffffff161461024b576040517f08c379a0000000000000000000000000000000000000000000000000000000008152600401610242906105f8565b60405180910390fd5b610255600061041f565b565b60008060009054906101000a900473ffffffffffffffffffffffffffffffffffffffff16905090565b61028861038b565b73ffffffffffffffffffffffffffffffffffffffff166102a6610257565b73ffffffffffffffffffffffffffffffffffffffff16146102fc576040517f08c379a00000000000000000000000000000000000000000000000000000000081526004016102f3906105f8565b60405180910390fd5b600073ffffffffffffffffffffffffffffffffffffffff168173ffffffffffffffffffffffffffffffffffffffff16141561036c576040517f08c379a0000000000000000000000000000000000000000000000000000000008152600401610363906105b8565b60405180910390fd5b6103758161041f565b50565b600080823b905060008111915050919050565b600033905090565b61039c81610378565b6103db576040517f08c379a00000000000000000000000000000000000000000000000000000000081526004016103d2906105d8565b60405180910390fd5b80600160006101000a81548173ffffffffffffffffffffffffffffffffffffffff021916908373ffffffffffffffffffffffffffffffffffffffff16021790555050565b60008060009054906101000a900473ffffffffffffffffffffffffffffffffffffffff169050816000806101000a81548173ffffffffffffffffffffffffffffffffffffffff021916908373ffffffffffffffffffffffffffffffffffffffff1602179055508173ffffffffffffffffffffffffffffffffffffffff168173ffffffffffffffffffffffffffffffffffffffff167f8be0079c531659141344cd1fd0a4f28419497f9722a3daafe3b4186f6b6457e060405160405180910390a35050565b6000813590506104f281610727565b92915050565b60006020828403121561050e5761050d61065b565b5b600061051c848285016104e3565b91505092915050565b61052e81610629565b82525050565b6000610541602683610618565b915061054c82610660565b604082019050919050565b6000610564603383610618565b915061056f826106af565b604082019050919050565b6000610587602083610618565b9150610592826106fe565b602082019050919050565b60006020820190506105b26000830184610525565b92915050565b600060208201905081810360008301526105d181610534565b9050919050565b600060208201905081810360008301526105f181610557565b9050919050565b600060208201905081810360008301526106118161057a565b9050919050565b600082825260208201905092915050565b60006106348261063b565b9050919050565b600073ffffffffffffffffffffffffffffffffffffffff82169050919050565b600080fd5b7f4f776e61626c653a206e6577206f776e657220697320746865207a65726f206160008201527f6464726573730000000000000000000000000000000000000000000000000000602082015250565b7f5570677261646561626c65426561636f6e3a20696d706c656d656e746174696f60008201527f6e206973206e6f74206120636f6e747261637400000000000000000000000000602082015250565b7f4f776e61626c653a2063616c6c6572206973206e6f7420746865206f776e6572600082015250565b61073081610629565b811461073b57600080fd5b5056fea2646970667358221220f14c1e123fc6650c2510ce92a5938ce8dbd619e20ec5ceb7ad4526f9ccdb6aca64736f6c63430008070033a264697066735822122079248701f2083431d9bd777abefc859ca954029b619da6c39a46b38050b0fed864736f6c63430008070033608060405234801561001057600080fd5b5060405162000a9138038062000a91833981810160405281019061003491906101ef565b61005061004561006560201b60201c565b61006d60201b60201c565b61005f8161013160201b60201c565b5061030d565b600033905090565b60008060009054906101000a900473ffffffffffffffffffffffffffffffffffffffff169050816000806101000a81548173ffffffffffffffffffffffffffffffffffffffff021916908373ffffffffffffffffffffffffffffffffffffffff1602179055508173ffffffffffffffffffffffffffffffffffffffff168173ffffffffffffffffffffffffffffffffffffffff167f8be0079c531659141344cd1fd0a4f28419497f9722a3daafe3b4186f6b6457e060405160405180910390a35050565b610144816101c760201b6103781760201c565b610183576040517f08c379a000000000000000000000000000000000000000000000000000000000815260040161017a9061023f565b60405180910390fd5b80600160006101000a81548173ffffffffffffffffffffffffffffffffffffffff021916908373ffffffffffffffffffffffffffffffffffffffff16021790555050565b600080823b905060008111915050919050565b6000815190506101e9816102f6565b92915050565b600060208284031215610205576102046102a2565b5b6000610213848285016101da565b91505092915050565b600061022960338361025f565b9150610234826102a7565b604082019050919050565b600060208201905081810360008301526102588161021c565b9050919050565b600082825260208201905092915050565b600061027b82610282565b9050919050565b600073ffffffffffffffffffffffffffffffffffffffff82169050919050565b600080fd5b7f5570677261646561626c65426561636f6e3a20696d706c656d656e746174696f60008201527f6e206973206e6f74206120636f6e747261637400000000000000000000000000602082015250565b6102ff81610270565b811461030a57600080fd5b50565b610774806200031d6000396000f3fe608060405234801561001057600080fd5b50600436106100575760003560e01c80633659cfe61461005c5780635c60da1b14610078578063715018a6146100965780638da5cb5b146100a0578063f2fde38b146100be575b600080fd5b610076600480360381019061007191906104f8565b6100da565b005b6100806101a5565b60405161008d919061059d565b60405180910390f35b61009e6101cf565b005b6100a8610257565b6040516100b5919061059d565b60405180910390f35b6100d860048036038101906100d391906104f8565b610280565b005b6100e261038b565b73ffffffffffffffffffffffffffffffffffffffff16610100610257565b73ffffffffffffffffffffffffffffffffffffffff1614610156576040517f08c379a000000000000000000000000000000000000000000000000000000000815260040161014d906105f8565b60405180910390fd5b61015f81610393565b8073ffffffffffffffffffffffffffffffffffffffff167fbc7cd75a20ee27fd9adebab32041f755214dbc6bffa90cc0225b39da2e5c2d3b60405160405180910390a250565b6000600160009054906101000a900473ffffffffffffffffffffffffffffffffffffffff16905090565b6101d761038b565b73ffffffffffffffffffffffffffffffffffffffff166101f5610257565b73ffffffffffffffffffffffffffffffffffffffff161461024b576040517f08c379a0000000000000000000000000000000000000000000000000000000008152600401610242906105f8565b60405180910390fd5b610255600061041f565b565b60008060009054906101000a900473ffffffffffffffffffffffffffffffffffffffff16905090565b61028861038b565b73ffffffffffffffffffffffffffffffffffffffff166102a6610257565b73ffffffffffffffffffffffffffffffffffffffff16146102fc576040517f08c379a00000000000000000000000000000000000000000000000000000000081526004016102f3906105f8565b60405180910390fd5b600073ffffffffffffffffffffffffffffffffffffffff168173ffffffffffffffffffffffffffffffffffffffff16141561036c576040517f08c379a0000000000000000000000000000000000000000000000000000000008152600401610363906105b8565b60405180910390fd5b6103758161041f565b50565b600080823b905060008111915050919050565b600033905090565b61039c81610378565b6103db576040517f08c379a00000000000000000000000000000000000000000000000000000000081526004016103d2906105d8565b60405180910390fd5b80600160006101000a81548173ffffffffffffffffffffffffffffffffffffffff021916908373ffffffffffffffffffffffffffffffffffffffff16021790555050565b60008060009054906101000a900473ffffffffffffffffffffffffffffffffffffffff169050816000806101000a81548173ffffffffffffffffffffffffffffffffffffffff021916908373ffffffffffffffffffffffffffffffffffffffff1602179055508173ffffffffffffffffffffffffffffffffffffffff168173ffffffffffffffffffffffffffffffffffffffff167f8be0079c531659141344cd1fd0a4f28419497f9722a3daafe3b4186f6b6457e060405160405180910390a35050565b6000813590506104f281610727565b92915050565b60006020828403121561050e5761050d61065b565b5b600061051c848285016104e3565b91505092915050565b61052e81610629565b82525050565b6000610541602683610618565b915061054c82610660565b604082019050919050565b6000610564603383610618565b915061056f826106af565b604082019050919050565b6000610587602083610618565b9150610592826106fe565b602082019050919050565b60006020820190506105b26000830184610525565b92915050565b600060208201905081810360008301526105d181610534565b9050919050565b600060208201905081810360008301526105f181610557565b9050919050565b600060208201905081810360008301526106118161057a565b9050919050565b600082825260208201905092915050565b60006106348261063b565b9050919050565b600073ffffffffffffffffffffffffffffffffffffffff82169050919050565b600080fd5b7f4f776e61626c653a206e6577206f776e657220697320746865207a65726f206160008201527f6464726573730000000000000000000000000000000000000000000000000000602082015250565b7f5570677261646561626c65426561636f6e3a20696d706c656d656e746174696f60008201527f6e206973206e6f74206120636f6e747261637400000000000000000000000000602082015250565b7f4f776e61626c653a2063616c6c6572206973206e6f7420746865206f776e6572600082015250565b61073081610629565b811461073b57600080fd5b5056fea2646970667358221220f14c1e123fc6650c2510ce92a5938ce8dbd619e20ec5ceb7ad4526f9ccdb6aca64736f6c63430008070033",
  "linkReferences": {},
  "deployedLinkReferences": {}
}