{
  "_format": "hh-sol-artifact-1",
  "contractName": "LeagueMaker",
  "sourceName": "contracts/LeagueMaker.sol",
  "abi": [
    {
      "inputs": [
        {
          "internalType": "address",
          "name": "_logic",
          "type": "address"
        }
      ],
      "stateMutability": "nonpayable",
      "type": "constructor"
    },
    {
      "anonymous": false,
      "inputs": [
        {
          "indexed": false,
          "internalType": "string",
          "name": "name",
          "type": "string"
        },
        {
          "indexed": false,
          "internalType": "address",
          "name": "a",
          "type": "address"
        }
      ],
      "name": "LeagueCreated",
      "type": "event"
    },
    {
      "anonymous": false,
      "inputs": [
        {
          "indexed": true,
          "internalType": "address",
          "name": "previousOwner",
          "type": "address"
        },
        {
          "indexed": true,
          "internalType": "address",
          "name": "newOwner",
          "type": "address"
        }
      ],
      "name": "OwnershipTransferred",
      "type": "event"
    },
    {
      "anonymous": false,
      "inputs": [
        {
          "indexed": false,
          "internalType": "bool",
          "name": "success",
          "type": "bool"
        },
        {
          "indexed": false,
          "internalType": "bytes",
          "name": "data",
          "type": "bytes"
        }
      ],
      "name": "Response",
      "type": "event"
    },
    {
      "inputs": [
        {
          "internalType": "string",
          "name": "_name",
          "type": "string"
        },
        {
          "internalType": "uint256",
          "name": "_stakeAmount",
          "type": "uint256"
        },
        {
          "internalType": "bool",
          "name": "_isPublic",
          "type": "bool"
        },
        {
          "internalType": "address",
          "name": "_adminAddress",
          "type": "address"
        },
        {
          "internalType": "address",
          "name": "_testUSDCAddress",
          "type": "address"
        },
        {
          "internalType": "address",
          "name": "_athletesContractAddress",
          "type": "address"
        }
      ],
      "name": "createLeague",
      "outputs": [
        {
          "internalType": "address",
          "name": "",
          "type": "address"
        }
      ],
      "stateMutability": "nonpayable",
      "type": "function"
    },
    {
      "inputs": [],
      "name": "currentWeek",
      "outputs": [
        {
          "internalType": "uint256",
          "name": "",
          "type": "uint256"
        }
      ],
      "stateMutability": "view",
      "type": "function"
    },
    {
      "inputs": [],
      "name": "evaluateWeekForAllLeagues",
      "outputs": [],
      "stateMutability": "nonpayable",
      "type": "function"
    },
    {
      "inputs": [],
      "name": "incrementCurrentWeek",
      "outputs": [],
      "stateMutability": "nonpayable",
      "type": "function"
    },
    {
      "inputs": [
        {
          "internalType": "address",
          "name": "",
          "type": "address"
        }
      ],
      "name": "isProxyMap",
      "outputs": [
        {
          "internalType": "bool",
          "name": "",
          "type": "bool"
        }
      ],
      "stateMutability": "view",
      "type": "function"
    },
    {
      "inputs": [
        {
          "internalType": "uint256",
          "name": "",
          "type": "uint256"
        }
      ],
      "name": "leagueAddresses",
      "outputs": [
        {
          "internalType": "address",
          "name": "",
          "type": "address"
        }
      ],
      "stateMutability": "view",
      "type": "function"
    },
    {
      "inputs": [],
      "name": "lockLeagueLineups",
      "outputs": [],
      "stateMutability": "nonpayable",
      "type": "function"
    },
    {
      "inputs": [],
      "name": "lockLeagueMembership",
      "outputs": [],
      "stateMutability": "nonpayable",
      "type": "function"
    },
    {
      "inputs": [],
      "name": "owner",
      "outputs": [
        {
          "internalType": "address",
          "name": "",
          "type": "address"
        }
      ],
      "stateMutability": "view",
      "type": "function"
    },
    {
      "inputs": [],
      "name": "renounceOwnership",
      "outputs": [],
      "stateMutability": "nonpayable",
      "type": "function"
    },
    {
      "inputs": [
        {
          "internalType": "address",
          "name": "logic",
          "type": "address"
        }
      ],
      "name": "setBeacon",
      "outputs": [
        {
          "internalType": "address",
          "name": "",
          "type": "address"
        }
      ],
      "stateMutability": "nonpayable",
      "type": "function"
    },
    {
      "inputs": [],
      "name": "setLeagueSchedules",
      "outputs": [],
      "stateMutability": "nonpayable",
      "type": "function"
    },
    {
      "inputs": [
        {
          "internalType": "address",
          "name": "newOwner",
          "type": "address"
        }
      ],
      "name": "transferOwnership",
      "outputs": [],
      "stateMutability": "nonpayable",
      "type": "function"
    },
    {
      "inputs": [],
      "name": "unlockLeagueLineups",
      "outputs": [],
      "stateMutability": "nonpayable",
      "type": "function"
    },
    {
      "inputs": [
        {
          "internalType": "address",
          "name": "user",
          "type": "address"
        }
      ],
      "name": "updateUserToLeagueMapping",
      "outputs": [],
      "stateMutability": "nonpayable",
      "type": "function"
    },
    {
      "inputs": [
        {
          "internalType": "address",
          "name": "",
          "type": "address"
        },
        {
          "internalType": "uint256",
          "name": "",
          "type": "uint256"
        }
      ],
      "name": "userToLeagueMap",
      "outputs": [
        {
          "internalType": "address",
          "name": "",
          "type": "address"
        }
      ],
      "stateMutability": "view",
      "type": "function"
    }
  ],
  "bytecode": "0x60a0604052600880556000600955732791bca1f2de4661ed88a30c99a7a9449aa84174600a60006101000a81548173ffffffffffffffffffffffffffffffffffffffff021916908373ffffffffffffffffffffffffffffffffffffffff16021790555073eb8f08a975ab53e34d8a0330e0d34de942c95926600b60006101000a81548173ffffffffffffffffffffffffffffffffffffffff021916908373ffffffffffffffffffffffffffffffffffffffff160217905550348015620000c457600080fd5b5060405162006725380380620067258339818101604052810190620000ea919062000271565b6200010a620000fe6200018060201b60201c565b6200018860201b60201c565b8060405162000119906200024c565b620001259190620002b4565b604051809103906000f08015801562000142573d6000803e3d6000fd5b5073ffffffffffffffffffffffffffffffffffffffff1660808173ffffffffffffffffffffffffffffffffffffffff1660601b815250505062000324565b600033905090565b60008060009054906101000a900473ffffffffffffffffffffffffffffffffffffffff169050816000806101000a81548173ffffffffffffffffffffffffffffffffffffffff021916908373ffffffffffffffffffffffffffffffffffffffff1602179055508173ffffffffffffffffffffffffffffffffffffffff168173ffffffffffffffffffffffffffffffffffffffff167f8be0079c531659141344cd1fd0a4f28419497f9722a3daafe3b4186f6b6457e060405160405180910390a35050565b610a918062005c9483390190565b6000815190506200026b816200030a565b92915050565b6000602082840312156200028a576200028962000305565b5b60006200029a848285016200025a565b91505092915050565b620002ae81620002d1565b82525050565b6000602082019050620002cb6000830184620002a3565b92915050565b6000620002de82620002e5565b9050919050565b600073ffffffffffffffffffffffffffffffffffffffff82169050919050565b600080fd5b6200031581620002d1565b81146200032157600080fd5b50565b60805160601c615951620003436000396000610f0601526159516000f3fe60806040523480156200001157600080fd5b5060043610620001185760003560e01c8063a945320f11620000a5578063d42afb56116200006f578063d42afb56146200026b578063d46dc6c414620002a1578063d54c9d1614620002d7578063f2fde38b14620002e35762000118565b8063a945320f14620001e7578063b37cc9f114620001f3578063c3530ff41462000229578063c49986a5146200025f5762000118565b8063715018a611620000e7578063715018a6146200018d578063771bd4ce14620001995780638da5cb5b14620001b9578063a69b331814620001db5762000118565b806306575c89146200011d578063270cb3eb146200013f57806329ffe5e9146200014b578063449f77fb1462000181575b600080fd5b6200012762000303565b60405162000136919062001a46565b60405180910390f35b6200014962000309565b005b620001696004803603810190620001639190620015ea565b6200059a565b604051620001789190620017e1565b60405180910390f35b6200018b620005da565b005b62000197620006e9565b005b620001b76004803603810190620001b19190620014b0565b6200077a565b005b620001c3620008ac565b604051620001d29190620017e1565b60405180910390f35b620001e5620008d5565b005b620001f162000976565b005b6200021160048036038101906200020b9190620014b0565b62000c2b565b6040516200022091906200187c565b60405180910390f35b620002476004803603810190620002419190620014e2565b62000c4b565b604051620002569190620017e1565b60405180910390f35b6200026962000c9a565b005b620002896004803603810190620002839190620014b0565b62000d8b565b604051620002989190620017e1565b60405180910390f35b620002bf6004803603810190620002b9919062001529565b62000e13565b604051620002ce9190620017e1565b60405180910390f35b620002e162001069565b005b620003016004803603810190620002fb9190620014b0565b6200115a565b005b60095481565b620003136200125e565b73ffffffffffffffffffffffffffffffffffffffff1662000333620008ac565b73ffffffffffffffffffffffffffffffffffffffff16146200038c576040517f08c379a0000000000000000000000000000000000000000000000000000000008152600401620003839062001a24565b60405180910390fd5b73__$12cdf1fac25abe52b1eb298b32a4f32efb$__6388fa0a1f60036040518263ffffffff1660e01b8152600401620003c6919062001832565b60006040518083038186803b158015620003df57600080fd5b505af4158015620003f4573d6000803e3d6000fd5b505050506000606060005b60038054905081101562000595576003818154811062000424576200042362001c0f565b5b9060005260206000200160009054906101000a900473ffffffffffffffffffffffffffffffffffffffff1673ffffffffffffffffffffffffffffffffffffffff166040516024016040516020818303038152906040527fe4c9066b000000000000000000000000000000000000000000000000000000007bffffffffffffffffffffffffffffffffffffffffffffffffffffffff19166020820180517bffffffffffffffffffffffffffffffffffffffffffffffffffffffff8381831617835250505050604051620004f79190620017c8565b6000604051808303816000865af19150503d806000811462000536576040519150601f19603f3d011682016040523d82523d6000602084013e6200053b565b606091505b5080935081945050507f13848c3e38f8886f3f5d2ad9dff80d8092c2bbb8efd5b887a99c2c6cfc09ac2a83836040516200057792919062001899565b60405180910390a180806200058c9062001b92565b915050620003ff565b505050565b60038181548110620005ab57600080fd5b906000526020600020016000915054906101000a900473ffffffffffffffffffffffffffffffffffffffff1681565b620005e46200125e565b73ffffffffffffffffffffffffffffffffffffffff1662000604620008ac565b73ffffffffffffffffffffffffffffffffffffffff16146200065d576040517f08c379a0000000000000000000000000000000000000000000000000000000008152600401620006549062001a24565b60405180910390fd5b73__$12cdf1fac25abe52b1eb298b32a4f32efb$__6335c83fd360036009546040518363ffffffff1660e01b81526004016200069b9291906200184f565b60006040518083038186803b158015620006b457600080fd5b505af4158015620006c9573d6000803e3d6000fd5b5050505060096000815480929190620006e29062001b92565b9190505550565b620006f36200125e565b73ffffffffffffffffffffffffffffffffffffffff1662000713620008ac565b73ffffffffffffffffffffffffffffffffffffffff16146200076c576040517f08c379a0000000000000000000000000000000000000000000000000000000008152600401620007639062001a24565b60405180910390fd5b62000778600062001266565b565b600560003373ffffffffffffffffffffffffffffffffffffffff1673ffffffffffffffffffffffffffffffffffffffff16815260200190815260200160002060009054906101000a900460ff1662000809576040517f08c379a0000000000000000000000000000000000000000000000000000000008152600401620008009062001a02565b60405180910390fd5b600460008273ffffffffffffffffffffffffffffffffffffffff1673ffffffffffffffffffffffffffffffffffffffff168152602001908152602001600020339080600181540180825580915050600190039060005260206000200160009091909190916101000a81548173ffffffffffffffffffffffffffffffffffffffff021916908373ffffffffffffffffffffffffffffffffffffffff16021790555050565b60008060009054906101000a900473ffffffffffffffffffffffffffffffffffffffff16905090565b620008df6200125e565b73ffffffffffffffffffffffffffffffffffffffff16620008ff620008ac565b73ffffffffffffffffffffffffffffffffffffffff161462000958576040517f08c379a00000000000000000000000000000000000000000000000000000000081526004016200094f9062001a24565b60405180910390fd5b6001600960008282546200096d919062001aa6565b92505081905550565b620009806200125e565b73ffffffffffffffffffffffffffffffffffffffff16620009a0620008ac565b73ffffffffffffffffffffffffffffffffffffffff1614620009f9576040517f08c379a0000000000000000000000000000000000000000000000000000000008152600401620009f09062001a24565b60405180910390fd5b62000a1d604051806060016040528060268152602001620058f6602691396200132a565b73__$12cdf1fac25abe52b1eb298b32a4f32efb$__630e2a112660036040518263ffffffff1660e01b815260040162000a57919062001832565b60006040518083038186803b15801562000a7057600080fd5b505af415801562000a85573d6000803e3d6000fd5b505050506000606060005b60038054905081101562000c26576003818154811062000ab55762000ab462001c0f565b5b9060005260206000200160009054906101000a900473ffffffffffffffffffffffffffffffffffffffff1673ffffffffffffffffffffffffffffffffffffffff166040516024016040516020818303038152906040527f0655465a000000000000000000000000000000000000000000000000000000007bffffffffffffffffffffffffffffffffffffffffffffffffffffffff19166020820180517bffffffffffffffffffffffffffffffffffffffffffffffffffffffff838183161783525050505060405162000b889190620017c8565b6000604051808303816000865af19150503d806000811462000bc7576040519150601f19603f3d011682016040523d82523d6000602084013e62000bcc565b606091505b5080935081945050507f13848c3e38f8886f3f5d2ad9dff80d8092c2bbb8efd5b887a99c2c6cfc09ac2a838360405162000c0892919062001899565b60405180910390a1808062000c1d9062001b92565b91505062000a90565b505050565b60056020528060005260406000206000915054906101000a900460ff1681565b6004602052816000526040600020818154811062000c6857600080fd5b906000526020600020016000915091509054906101000a900473ffffffffffffffffffffffffffffffffffffffff1681565b62000ca46200125e565b73ffffffffffffffffffffffffffffffffffffffff1662000cc4620008ac565b73ffffffffffffffffffffffffffffffffffffffff161462000d1d576040517f08c379a000000000000000000000000000000000000000000000000000000000815260040162000d149062001a24565b60405180910390fd5b73__$12cdf1fac25abe52b1eb298b32a4f32efb$__63c311d4f660036040518263ffffffff1660e01b815260040162000d57919062001832565b60006040518083038186803b15801562000d7057600080fd5b505af415801562000d85573d6000803e3d6000fd5b50505050565b6000808260405162000d9d90620013f0565b62000da99190620017e1565b604051809103906000f08015801562000dc6573d6000803e3d6000fd5b50905080600260006101000a81548173ffffffffffffffffffffffffffffffffffffffff021916908373ffffffffffffffffffffffffffffffffffffffff16021790555080915050919050565b60008088886008548989878a600a60009054906101000a900473ffffffffffffffffffffffffffffffffffffffff16600b60009054906101000a900473ffffffffffffffffffffffffffffffffffffffff168c3060405160240162000e839b9a9998979695949392919062001903565b6040516020818303038152906040527f5d514d69000000000000000000000000000000000000000000000000000000007bffffffffffffffffffffffffffffffffffffffffffffffffffffffff19166020820180517bffffffffffffffffffffffffffffffffffffffffffffffffffffffff8381831617835250505050905060007f00000000000000000000000000000000000000000000000000000000000000008260405162000f3490620013fe565b62000f41929190620017fe565b604051809103906000f08015801562000f5e573d6000803e3d6000fd5b5090506003819080600181540180825580915050600190039060005260206000200160009091909190916101000a81548173ffffffffffffffffffffffffffffffffffffffff021916908373ffffffffffffffffffffffffffffffffffffffff1602179055506001600560008373ffffffffffffffffffffffffffffffffffffffff1673ffffffffffffffffffffffffffffffffffffffff16815260200190815260200160002060006101000a81548160ff0219169083151502179055507f6f41e080f0ba3b200797d7e512fbca5fa5d4b72f7d8fb62d6fb40997ea9679808a8a836040516200105193929190620018cd565b60405180910390a18092505050979650505050505050565b620010736200125e565b73ffffffffffffffffffffffffffffffffffffffff1662001093620008ac565b73ffffffffffffffffffffffffffffffffffffffff1614620010ec576040517f08c379a0000000000000000000000000000000000000000000000000000000008152600401620010e39062001a24565b60405180910390fd5b73__$12cdf1fac25abe52b1eb298b32a4f32efb$__63a71e139860036040518263ffffffff1660e01b815260040162001126919062001832565b60006040518083038186803b1580156200113f57600080fd5b505af415801562001154573d6000803e3d6000fd5b50505050565b620011646200125e565b73ffffffffffffffffffffffffffffffffffffffff1662001184620008ac565b73ffffffffffffffffffffffffffffffffffffffff1614620011dd576040517f08c379a0000000000000000000000000000000000000000000000000000000008152600401620011d49062001a24565b60405180910390fd5b600073ffffffffffffffffffffffffffffffffffffffff168173ffffffffffffffffffffffffffffffffffffffff16141562001250576040517f08c379a00000000000000000000000000000000000000000000000000000000081526004016200124790620019e0565b60405180910390fd5b6200125b8162001266565b50565b600033905090565b60008060009054906101000a900473ffffffffffffffffffffffffffffffffffffffff169050816000806101000a81548173ffffffffffffffffffffffffffffffffffffffff021916908373ffffffffffffffffffffffffffffffffffffffff1602179055508173ffffffffffffffffffffffffffffffffffffffff168173ffffffffffffffffffffffffffffffffffffffff167f8be0079c531659141344cd1fd0a4f28419497f9722a3daafe3b4186f6b6457e060405160405180910390a35050565b620013c481604051602401620013419190620019bc565b6040516020818303038152906040527f41304fac000000000000000000000000000000000000000000000000000000007bffffffffffffffffffffffffffffffffffffffffffffffffffffffff19166020820180517bffffffffffffffffffffffffffffffffffffffffffffffffffffffff8381831617835250505050620013c7565b50565b60008151905060006a636f6e736f6c652e6c6f679050602083016000808483855afa5050505050565b610a918062001d7e83390190565b6130e7806200280f83390190565b6000813590506200141d8162001d2f565b92915050565b600081359050620014348162001d49565b92915050565b60008083601f84011262001453576200145262001c43565b5b8235905067ffffffffffffffff81111562001473576200147262001c3e565b5b60208301915083600182028301111562001492576200149162001c48565b5b9250929050565b600081359050620014aa8162001d63565b92915050565b600060208284031215620014c957620014c862001c52565b5b6000620014d9848285016200140c565b91505092915050565b60008060408385031215620014fc57620014fb62001c52565b5b60006200150c858286016200140c565b92505060206200151f8582860162001499565b9150509250929050565b600080600080600080600060c0888a0312156200154b576200154a62001c52565b5b600088013567ffffffffffffffff8111156200156c576200156b62001c4d565b5b6200157a8a828b016200143a565b975097505060206200158f8a828b0162001499565b9550506040620015a28a828b0162001423565b9450506060620015b58a828b016200140c565b9350506080620015c88a828b016200140c565b92505060a0620015db8a828b016200140c565b91505092959891949750929550565b60006020828403121562001603576200160262001c52565b5b6000620016138482850162001499565b91505092915050565b620016278162001b03565b82525050565b8082525050565b6200163f8162001b17565b82525050565b6000620016528262001a63565b6200165e818562001a79565b93506200167081856020860162001b5c565b6200167b8162001c57565b840191505092915050565b6000620016938262001a63565b6200169f818562001a8a565b9350620016b181856020860162001b5c565b80840191505092915050565b6000620016cb838562001a95565b9350620016da83858462001b4d565b620016e58362001c57565b840190509392505050565b6000620016fd8262001a6e565b62001709818562001a95565b93506200171b81856020860162001b5c565b620017268162001c57565b840191505092915050565b60006200174060268362001a95565b91506200174d8262001c68565b604082019050919050565b60006200176760248362001a95565b9150620017748262001cb7565b604082019050919050565b60006200178e60208362001a95565b91506200179b8262001d06565b602082019050919050565b620017b18162001b43565b82525050565b620017c28162001b43565b82525050565b6000620017d6828462001686565b915081905092915050565b6000602082019050620017f860008301846200161c565b92915050565b60006040820190506200181560008301856200161c565b818103602083015262001829818462001645565b90509392505050565b60006020820190506200184960008301846200162d565b92915050565b60006040820190506200186660008301856200162d565b620018756020830184620017b7565b9392505050565b600060208201905062001893600083018462001634565b92915050565b6000604082019050620018b0600083018562001634565b8181036020830152620018c4818462001645565b90509392505050565b60006040820190508181036000830152620018ea818587620016bd565b9050620018fb60208301846200161c565b949350505050565b600061014082019050818103600083015262001921818d8f620016bd565b905062001932602083018c620017a6565b62001941604083018b620017a6565b62001950606083018a62001634565b6200195f60808301896200161c565b6200196e60a08301886200161c565b6200197d60c08301876200161c565b6200198c60e08301866200161c565b6200199c6101008301856200161c565b620019ac6101208301846200161c565b9c9b505050505050505050505050565b60006020820190508181036000830152620019d88184620016f0565b905092915050565b60006020820190508181036000830152620019fb8162001731565b9050919050565b6000602082019050818103600083015262001a1d8162001758565b9050919050565b6000602082019050818103600083015262001a3f816200177f565b9050919050565b600060208201905062001a5d6000830184620017a6565b92915050565b600081519050919050565b600081519050919050565b600082825260208201905092915050565b600081905092915050565b600082825260208201905092915050565b600062001ab38262001b43565b915062001ac08362001b43565b9250827fffffffffffffffffffffffffffffffffffffffffffffffffffffffffffffffff0382111562001af85762001af762001be0565b5b828201905092915050565b600062001b108262001b23565b9050919050565b60008115159050919050565b600073ffffffffffffffffffffffffffffffffffffffff82169050919050565b6000819050919050565b82818337600083830152505050565b60005b8381101562001b7c57808201518184015260208101905062001b5f565b8381111562001b8c576000848401525b50505050565b600062001b9f8262001b43565b91507fffffffffffffffffffffffffffffffffffffffffffffffffffffffffffffffff82141562001bd55762001bd462001be0565b5b600182019050919050565b7f4e487b7100000000000000000000000000000000000000000000000000000000600052601160045260246000fd5b7f4e487b7100000000000000000000000000000000000000000000000000000000600052603260045260246000fd5b600080fd5b600080fd5b600080fd5b600080fd5b600080fd5b6000601f19601f8301169050919050565b7f4f776e61626c653a206e6577206f776e657220697320746865207a65726f206160008201527f6464726573730000000000000000000000000000000000000000000000000000602082015250565b7f43616c6c6572206973206e6f7420612076616c69642070726f7879206164647260008201527f6573732e00000000000000000000000000000000000000000000000000000000602082015250565b7f4f776e61626c653a2063616c6c6572206973206e6f7420746865206f776e6572600082015250565b62001d3a8162001b03565b811462001d4657600080fd5b50565b62001d548162001b17565b811462001d6057600080fd5b50565b62001d6e8162001b43565b811462001d7a57600080fd5b5056fe608060405234801561001057600080fd5b5060405162000a9138038062000a91833981810160405281019061003491906101ef565b61005061004561006560201b60201c565b61006d60201b60201c565b61005f8161013160201b60201c565b5061030d565b600033905090565b60008060009054906101000a900473ffffffffffffffffffffffffffffffffffffffff169050816000806101000a81548173ffffffffffffffffffffffffffffffffffffffff021916908373ffffffffffffffffffffffffffffffffffffffff1602179055508173ffffffffffffffffffffffffffffffffffffffff168173ffffffffffffffffffffffffffffffffffffffff167f8be0079c531659141344cd1fd0a4f28419497f9722a3daafe3b4186f6b6457e060405160405180910390a35050565b610144816101c760201b6103781760201c565b610183576040517f08c379a000000000000000000000000000000000000000000000000000000000815260040161017a9061023f565b60405180910390fd5b80600160006101000a81548173ffffffffffffffffffffffffffffffffffffffff021916908373ffffffffffffffffffffffffffffffffffffffff16021790555050565b600080823b905060008111915050919050565b6000815190506101e9816102f6565b92915050565b600060208284031215610205576102046102a2565b5b6000610213848285016101da565b91505092915050565b600061022960338361025f565b9150610234826102a7565b604082019050919050565b600060208201905081810360008301526102588161021c565b9050919050565b600082825260208201905092915050565b600061027b82610282565b9050919050565b600073ffffffffffffffffffffffffffffffffffffffff82169050919050565b600080fd5b7f5570677261646561626c65426561636f6e3a20696d706c656d656e746174696f60008201527f6e206973206e6f74206120636f6e747261637400000000000000000000000000602082015250565b6102ff81610270565b811461030a57600080fd5b50565b610774806200031d6000396000f3fe608060405234801561001057600080fd5b50600436106100575760003560e01c80633659cfe61461005c5780635c60da1b14610078578063715018a6146100965780638da5cb5b146100a0578063f2fde38b146100be575b600080fd5b610076600480360381019061007191906104f8565b6100da565b005b6100806101a5565b60405161008d919061059d565b60405180910390f35b61009e6101cf565b005b6100a8610257565b6040516100b5919061059d565b60405180910390f35b6100d860048036038101906100d391906104f8565b610280565b005b6100e261038b565b73ffffffffffffffffffffffffffffffffffffffff16610100610257565b73ffffffffffffffffffffffffffffffffffffffff1614610156576040517f08c379a000000000000000000000000000000000000000000000000000000000815260040161014d906105f8565b60405180910390fd5b61015f81610393565b8073ffffffffffffffffffffffffffffffffffffffff167fbc7cd75a20ee27fd9adebab32041f755214dbc6bffa90cc0225b39da2e5c2d3b60405160405180910390a250565b6000600160009054906101000a900473ffffffffffffffffffffffffffffffffffffffff16905090565b6101d761038b565b73ffffffffffffffffffffffffffffffffffffffff166101f5610257565b73ffffffffffffffffffffffffffffffffffffffff161461024b576040517f08c379a0000000000000000000000000000000000000000000000000000000008152600401610242906105f8565b60405180910390fd5b610255600061041f565b565b60008060009054906101000a900473ffffffffffffffffffffffffffffffffffffffff16905090565b61028861038b565b73ffffffffffffffffffffffffffffffffffffffff166102a6610257565b73ffffffffffffffffffffffffffffffffffffffff16146102fc576040517f08c379a00000000000000000000000000000000000000000000000000000000081526004016102f3906105f8565b60405180910390fd5b600073ffffffffffffffffffffffffffffffffffffffff168173ffffffffffffffffffffffffffffffffffffffff16141561036c576040517f08c379a0000000000000000000000000000000000000000000000000000000008152600401610363906105b8565b60405180910390fd5b6103758161041f565b50565b600080823b905060008111915050919050565b600033905090565b61039c81610378565b6103db576040517f08c379a00000000000000000000000000000000000000000000000000000000081526004016103d2906105d8565b60405180910390fd5b80600160006101000a81548173ffffffffffffffffffffffffffffffffffffffff021916908373ffffffffffffffffffffffffffffffffffffffff16021790555050565b60008060009054906101000a900473ffffffffffffffffffffffffffffffffffffffff169050816000806101000a81548173ffffffffffffffffffffffffffffffffffffffff021916908373ffffffffffffffffffffffffffffffffffffffff1602179055508173ffffffffffffffffffffffffffffffffffffffff168173ffffffffffffffffffffffffffffffffffffffff167f8be0079c531659141344cd1fd0a4f28419497f9722a3daafe3b4186f6b6457e060405160405180910390a35050565b6000813590506104f281610727565b92915050565b60006020828403121561050e5761050d61065b565b5b600061051c848285016104e3565b91505092915050565b61052e81610629565b82525050565b6000610541602683610618565b915061054c82610660565b604082019050919050565b6000610564603383610618565b915061056f826106af565b604082019050919050565b6000610587602083610618565b9150610592826106fe565b602082019050919050565b60006020820190506105b26000830184610525565b92915050565b600060208201905081810360008301526105d181610534565b9050919050565b600060208201905081810360008301526105f181610557565b9050919050565b600060208201905081810360008301526106118161057a565b9050919050565b600082825260208201905092915050565b60006106348261063b565b9050919050565b600073ffffffffffffffffffffffffffffffffffffffff82169050919050565b600080fd5b7f4f776e61626c653a206e6577206f776e657220697320746865207a65726f206160008201527f6464726573730000000000000000000000000000000000000000000000000000602082015250565b7f5570677261646561626c65426561636f6e3a20696d706c656d656e746174696f60008201527f6e206973206e6f74206120636f6e747261637400000000000000000000000000602082015250565b7f4f776e61626c653a2063616c6c6572206973206e6f7420746865206f776e6572600082015250565b61073081610629565b811461073b57600080fd5b5056fea2646970667358221220f14c1e123fc6650c2510ce92a5938ce8dbd619e20ec5ceb7ad4526f9ccdb6aca64736f6c634300080700336080604052604051620030e7380380620030e78339818101604052810190620000299190620006bb565b620000496200003d620000cf60201b60201c565b620000d760201b60201c565b60017fa3f0ad74e5423aebfd80d3ef4346578335a9a72aeaee59ff6cb3582b35133d5160001c6200007b919062000942565b60001b7fa3f0ad74e5423aebfd80d3ef4346578335a9a72aeaee59ff6cb3582b35133d5060001b14620000b357620000b262000a27565b5b620000c7828260006200019b60201b60201c565b505062000be0565b600033905090565b60008060009054906101000a900473ffffffffffffffffffffffffffffffffffffffff169050816000806101000a81548173ffffffffffffffffffffffffffffffffffffffff021916908373ffffffffffffffffffffffffffffffffffffffff1602179055508173ffffffffffffffffffffffffffffffffffffffff168173ffffffffffffffffffffffffffffffffffffffff167f8be0079c531659141344cd1fd0a4f28419497f9722a3daafe3b4186f6b6457e060405160405180910390a35050565b620001ac83620002a260201b60201c565b8273ffffffffffffffffffffffffffffffffffffffff167f1cf3b03a6cf19fa2baba4df148e9dcabedea7f8a5c07840e207e5c089be95d3e60405160405180910390a2600082511180620001fd5750805b156200029d576200029b8373ffffffffffffffffffffffffffffffffffffffff16635c60da1b6040518163ffffffff1660e01b815260040160206040518083038186803b1580156200024e57600080fd5b505afa15801562000263573d6000803e3d6000fd5b505050506040513d601f19601f8201168201806040525081019062000289919062000689565b836200045160201b620010561760201c565b505b505050565b620002b8816200048760201b620010831760201c565b620002fa576040517f08c379a0000000000000000000000000000000000000000000000000000000008152600401620002f1906200084b565b60405180910390fd5b620003918173ffffffffffffffffffffffffffffffffffffffff16635c60da1b6040518163ffffffff1660e01b815260040160206040518083038186803b1580156200034557600080fd5b505afa1580156200035a573d6000803e3d6000fd5b505050506040513d601f19601f8201168201806040525081019062000380919062000689565b6200048760201b620010831760201c565b620003d3576040517f08c379a0000000000000000000000000000000000000000000000000000000008152600401620003ca906200088f565b60405180910390fd5b806200040d7fa3f0ad74e5423aebfd80d3ef4346578335a9a72aeaee59ff6cb3582b35133d5060001b6200049a60201b620010961760201c565b60000160006101000a81548173ffffffffffffffffffffffffffffffffffffffff021916908373ffffffffffffffffffffffffffffffffffffffff16021790555050565b60606200047f8383604051806060016040528060278152602001620030c060279139620004a460201b60201c565b905092915050565b600080823b905060008111915050919050565b6000819050919050565b6060620004b7846200048760201b60201c565b620004f9576040517f08c379a0000000000000000000000000000000000000000000000000000000008152600401620004f0906200086d565b60405180910390fd5b6000808573ffffffffffffffffffffffffffffffffffffffff16856040516200052391906200080e565b600060405180830381855af49150503d806000811462000560576040519150601f19603f3d011682016040523d82523d6000602084013e62000565565b606091505b50915091506200057d8282866200058860201b60201c565b925050509392505050565b606083156200059a57829050620005ed565b600083511115620005ae5782518084602001fd5b816040517f08c379a0000000000000000000000000000000000000000000000000000000008152600401620005e4919062000827565b60405180910390fd5b9392505050565b60006200060b6200060584620008da565b620008b1565b9050828152602081018484840111156200062a576200062962000ab9565b5b62000637848285620009bb565b509392505050565b600081519050620006508162000bc6565b92915050565b600082601f8301126200066e576200066d62000ab4565b5b815162000680848260208601620005f4565b91505092915050565b600060208284031215620006a257620006a162000ac3565b5b6000620006b2848285016200063f565b91505092915050565b60008060408385031215620006d557620006d462000ac3565b5b6000620006e5858286016200063f565b925050602083015167ffffffffffffffff81111562000709576200070862000abe565b5b620007178582860162000656565b9150509250929050565b60006200072e8262000910565b6200073a818562000926565b93506200074c818560208601620009bb565b80840191505092915050565b600062000765826200091b565b62000771818562000931565b935062000783818560208601620009bb565b6200078e8162000ac8565b840191505092915050565b6000620007a860258362000931565b9150620007b58262000ad9565b604082019050919050565b6000620007cf60268362000931565b9150620007dc8262000b28565b604082019050919050565b6000620007f660308362000931565b9150620008038262000b77565b604082019050919050565b60006200081c828462000721565b915081905092915050565b6000602082019050818103600083015262000843818462000758565b905092915050565b60006020820190508181036000830152620008668162000799565b9050919050565b600060208201905081810360008301526200088881620007c0565b9050919050565b60006020820190508181036000830152620008aa81620007e7565b9050919050565b6000620008bd620008d0565b9050620008cb8282620009f1565b919050565b6000604051905090565b600067ffffffffffffffff821115620008f857620008f762000a85565b5b620009038262000ac8565b9050602081019050919050565b600081519050919050565b600081519050919050565b600081905092915050565b600082825260208201905092915050565b60006200094f82620009b1565b91506200095c83620009b1565b92508282101562000972576200097162000a56565b5b828203905092915050565b60006200098a8262000991565b9050919050565b600073ffffffffffffffffffffffffffffffffffffffff82169050919050565b6000819050919050565b60005b83811015620009db578082015181840152602081019050620009be565b83811115620009eb576000848401525b50505050565b620009fc8262000ac8565b810181811067ffffffffffffffff8211171562000a1e5762000a1d62000a85565b5b80604052505050565b7f4e487b7100000000000000000000000000000000000000000000000000000000600052600160045260246000fd5b7f4e487b7100000000000000000000000000000000000000000000000000000000600052601160045260246000fd5b7f4e487b7100000000000000000000000000000000000000000000000000000000600052604160045260246000fd5b600080fd5b600080fd5b600080fd5b600080fd5b6000601f19601f8301169050919050565b7f455243313936373a206e657720626561636f6e206973206e6f74206120636f6e60008201527f7472616374000000000000000000000000000000000000000000000000000000602082015250565b7f416464726573733a2064656c65676174652063616c6c20746f206e6f6e2d636f60008201527f6e74726163740000000000000000000000000000000000000000000000000000602082015250565b7f455243313936373a20626561636f6e20696d706c656d656e746174696f6e206960008201527f73206e6f74206120636f6e747261637400000000000000000000000000000000602082015250565b62000bd1816200097d565b811462000bdd57600080fd5b50565b6124d08062000bf06000396000f3fe6080604052600436106101695760003560e01c8063715018a6116100d157806393f3706c1161008a578063d547741f11610064578063d547741f14610593578063dc9a1535146105bc578063e2ec6ec3146105e7578063f2fde38b1461062457610178565b806393f3706c146105005780639b19251a1461052b578063a217fddf1461056857610178565b8063715018a6146103ee5780637b9417c8146104055780637eed33f114610442578063841abf6e1461046d5780638da5cb5b1461049857806391d14854146104c357610178565b8063286dd3f511610123578063286dd3f5146102de5780632f2ff15d1461031b57806336568abe1461034457806352e6e5f31461036d57806354fd4d501461039857806360c7dc47146103c357610178565b8062b2476f1461018257806301ffc9a7146101ad5780630c6f7959146101ea578063248a9ca31461022757806324953eaa14610264578063267175db146102a157610178565b366101785761017661064d565b005b61018061064d565b005b34801561018e57600080fd5b50610197610667565b6040516101a49190611d7e565b60405180910390f35b3480156101b957600080fd5b506101d460048036038101906101cf9190611b07565b61068d565b6040516101e19190611d99565b60405180910390f35b3480156101f657600080fd5b50610211600480360381019061020c9190611a11565b610707565b60405161021e9190611e91565b60405180910390f35b34801561023357600080fd5b5061024e60048036038101906102499190611a9a565b61072f565b60405161025b9190611db4565b60405180910390f35b34801561027057600080fd5b5061028b60048036038101906102869190611a51565b61074f565b6040516102989190611d99565b60405180910390f35b3480156102ad57600080fd5b506102c860048036038101906102c39190611b34565b610839565b6040516102d59190611d7e565b60405180910390f35b3480156102ea57600080fd5b50610305600480360381019061030091906119b7565b610878565b6040516103129190611d99565b60405180910390f35b34801561032757600080fd5b50610342600480360381019061033d9190611ac7565b6109fb565b005b34801561035057600080fd5b5061036b60048036038101906103669190611ac7565b610a24565b005b34801561037957600080fd5b50610382610aa7565b60405161038f9190611e91565b60405180910390f35b3480156103a457600080fd5b506103ad610aad565b6040516103ba9190611e91565b60405180910390f35b3480156103cf57600080fd5b506103d8610ab3565b6040516103e59190611e91565b60405180910390f35b3480156103fa57600080fd5b50610403610ab9565b005b34801561041157600080fd5b5061042c600480360381019061042791906119b7565b610b41565b6040516104399190611d99565b60405180910390f35b34801561044e57600080fd5b50610457610cc3565b6040516104649190611e91565b60405180910390f35b34801561047957600080fd5b50610482610cc9565b60405161048f9190611dcf565b60405180910390f35b3480156104a457600080fd5b506104ad610d57565b6040516104ba9190611d7e565b60405180910390f35b3480156104cf57600080fd5b506104ea60048036038101906104e59190611ac7565b610d80565b6040516104f79190611d99565b60405180910390f35b34801561050c57600080fd5b50610515610deb565b6040516105229190611d7e565b60405180910390f35b34801561053757600080fd5b50610552600480360381019061054d91906119b7565b610e11565b60405161055f9190611d99565b60405180910390f35b34801561057457600080fd5b5061057d610e31565b60405161058a9190611db4565b60405180910390f35b34801561059f57600080fd5b506105ba60048036038101906105b59190611ac7565b610e38565b005b3480156105c857600080fd5b506105d1610e61565b6040516105de9190611d99565b60405180910390f35b3480156105f357600080fd5b5061060e60048036038101906106099190611a51565b610e74565b60405161061b9190611d99565b60405180910390f35b34801561063057600080fd5b5061064b600480360381019061064691906119b7565b610f5e565b005b6106556110a0565b6106656106606110a2565b61112e565b565b601260009054906101000a900473ffffffffffffffffffffffffffffffffffffffff1681565b60007f7965db0b000000000000000000000000000000000000000000000000000000007bffffffffffffffffffffffffffffffffffffffffffffffffffffffff1916827bffffffffffffffffffffffffffffffffffffffffffffffffffffffff1916148061070057506106ff82611154565b5b9050919050565b600c602052816000526040600020816008811061072357600080fd5b01600091509150505481565b600060016000838152602001908152602001600020600101549050919050565b60006107596111be565b73ffffffffffffffffffffffffffffffffffffffff16610777610d57565b73ffffffffffffffffffffffffffffffffffffffff16146107cd576040517f08c379a00000000000000000000000000000000000000000000000000000000081526004016107c490611e31565b60405180910390fd5b60005b8251811015610833576107fc8382815181106107ef576107ee612203565b5b6020026020010151610878565b15610820576001600360008282546108149190611fea565b92505081905550600191505b808061082b9061215c565b9150506107d0565b50919050565b6009818154811061084957600080fd5b906000526020600020016000915054906101000a900473ffffffffffffffffffffffffffffffffffffffff1681565b60006108826111be565b73ffffffffffffffffffffffffffffffffffffffff166108a0610d57565b73ffffffffffffffffffffffffffffffffffffffff16146108f6576040517f08c379a00000000000000000000000000000000000000000000000000000000081526004016108ed90611e31565b60405180910390fd5b600260008373ffffffffffffffffffffffffffffffffffffffff1673ffffffffffffffffffffffffffffffffffffffff16815260200190815260200160002060009054906101000a900460ff16156109f6576000600260008473ffffffffffffffffffffffffffffffffffffffff1673ffffffffffffffffffffffffffffffffffffffff16815260200190815260200160002060006101000a81548160ff0219169083151502179055507ff1abf01a1043b7c244d128e8595cf0c1d10743b022b03a02dffd8ca3bf729f5a826040516109cf9190611d7e565b60405180910390a16001600360008282546109ea9190611fea565b92505081905550600190505b919050565b610a048261072f565b610a1581610a106111be565b6111c6565b610a1f8383611263565b505050565b610a2c6111be565b73ffffffffffffffffffffffffffffffffffffffff168173ffffffffffffffffffffffffffffffffffffffff1614610a99576040517f08c379a0000000000000000000000000000000000000000000000000000000008152600401610a9090611e71565b60405180910390fd5b610aa38282611343565b5050565b60085481565b60055481565b600f5481565b610ac16111be565b73ffffffffffffffffffffffffffffffffffffffff16610adf610d57565b73ffffffffffffffffffffffffffffffffffffffff1614610b35576040517f08c379a0000000000000000000000000000000000000000000000000000000008152600401610b2c90611e31565b60405180910390fd5b610b3f6000611425565b565b6000610b4b6111be565b73ffffffffffffffffffffffffffffffffffffffff16610b69610d57565b73ffffffffffffffffffffffffffffffffffffffff1614610bbf576040517f08c379a0000000000000000000000000000000000000000000000000000000008152600401610bb690611e31565b60405180910390fd5b600260008373ffffffffffffffffffffffffffffffffffffffff1673ffffffffffffffffffffffffffffffffffffffff16815260200190815260200160002060009054906101000a900460ff16610cbe576001600260008473ffffffffffffffffffffffffffffffffffffffff1673ffffffffffffffffffffffffffffffffffffffff16815260200190815260200160002060006101000a81548160ff0219169083151502179055507fd1bba68c128cc3f427e5831b3c6f99f480b6efa6b9e80c757768f6124158cc3f82604051610c979190611d7e565b60405180910390a1600160036000828254610cb29190611f3a565b92505081905550600190505b919050565b60075481565b60068054610cd6906120f9565b80601f0160208091040260200160405190810160405280929190818152602001828054610d02906120f9565b8015610d4f5780601f10610d2457610100808354040283529160200191610d4f565b820191906000526020600020905b815481529060010190602001808311610d3257829003601f168201915b505050505081565b60008060009054906101000a900473ffffffffffffffffffffffffffffffffffffffff16905090565b60006001600084815260200190815260200160002060000160008373ffffffffffffffffffffffffffffffffffffffff1673ffffffffffffffffffffffffffffffffffffffff16815260200190815260200160002060009054906101000a900460ff16905092915050565b601160009054906101000a900473ffffffffffffffffffffffffffffffffffffffff1681565b60026020528060005260406000206000915054906101000a900460ff1681565b6000801b81565b610e418261072f565b610e5281610e4d6111be565b6111c6565b610e5c8383611343565b505050565b600460009054906101000a900460ff1681565b6000610e7e6111be565b73ffffffffffffffffffffffffffffffffffffffff16610e9c610d57565b73ffffffffffffffffffffffffffffffffffffffff1614610ef2576040517f08c379a0000000000000000000000000000000000000000000000000000000008152600401610ee990611e31565b60405180910390fd5b60005b8251811015610f5857610f21838281518110610f1457610f13612203565b5b6020026020010151610b41565b15610f4557600160036000828254610f399190611f3a565b92505081905550600191505b8080610f509061215c565b915050610ef5565b50919050565b610f666111be565b73ffffffffffffffffffffffffffffffffffffffff16610f84610d57565b73ffffffffffffffffffffffffffffffffffffffff1614610fda576040517f08c379a0000000000000000000000000000000000000000000000000000000008152600401610fd190611e31565b60405180910390fd5b600073ffffffffffffffffffffffffffffffffffffffff168173ffffffffffffffffffffffffffffffffffffffff16141561104a576040517f08c379a000000000000000000000000000000000000000000000000000000000815260040161104190611e11565b60405180910390fd5b61105381611425565b50565b606061107b8383604051806060016040528060278152602001612474602791396114e9565b905092915050565b600080823b905060008111915050919050565b6000819050919050565b565b60006110ac6115b6565b73ffffffffffffffffffffffffffffffffffffffff16635c60da1b6040518163ffffffff1660e01b815260040160206040518083038186803b1580156110f157600080fd5b505afa158015611105573d6000803e3d6000fd5b505050506040513d601f19601f8201168201806040525081019061112991906119e4565b905090565b3660008037600080366000845af43d6000803e806000811461114f573d6000f35b3d6000fd5b60007f01ffc9a7000000000000000000000000000000000000000000000000000000007bffffffffffffffffffffffffffffffffffffffffffffffffffffffff1916827bffffffffffffffffffffffffffffffffffffffffffffffffffffffff1916149050919050565b600033905090565b6111d08282610d80565b61125f576111f58173ffffffffffffffffffffffffffffffffffffffff16601461160d565b6112038360001c602061160d565b604051602001611214929190611d44565b6040516020818303038152906040526040517f08c379a00000000000000000000000000000000000000000000000000000000081526004016112569190611dcf565b60405180910390fd5b5050565b61126d8282610d80565b61133f57600180600084815260200190815260200160002060000160008373ffffffffffffffffffffffffffffffffffffffff1673ffffffffffffffffffffffffffffffffffffffff16815260200190815260200160002060006101000a81548160ff0219169083151502179055506112e46111be565b73ffffffffffffffffffffffffffffffffffffffff168173ffffffffffffffffffffffffffffffffffffffff16837f2f8788117e7eff1d82e926ec794901d17c78024a50270940304540a733656f0d60405160405180910390a45b5050565b61134d8282610d80565b156114215760006001600084815260200190815260200160002060000160008373ffffffffffffffffffffffffffffffffffffffff1673ffffffffffffffffffffffffffffffffffffffff16815260200190815260200160002060006101000a81548160ff0219169083151502179055506113c66111be565b73ffffffffffffffffffffffffffffffffffffffff168173ffffffffffffffffffffffffffffffffffffffff16837ff6391f5c32d9c69d2a47ea670b442974b53935d1edc7fd64eb21e047a839171b60405160405180910390a45b5050565b60008060009054906101000a900473ffffffffffffffffffffffffffffffffffffffff169050816000806101000a81548173ffffffffffffffffffffffffffffffffffffffff021916908373ffffffffffffffffffffffffffffffffffffffff1602179055508173ffffffffffffffffffffffffffffffffffffffff168173ffffffffffffffffffffffffffffffffffffffff167f8be0079c531659141344cd1fd0a4f28419497f9722a3daafe3b4186f6b6457e060405160405180910390a35050565b60606114f484611083565b611533576040517f08c379a000000000000000000000000000000000000000000000000000000000815260040161152a90611e51565b60405180910390fd5b6000808573ffffffffffffffffffffffffffffffffffffffff168560405161155b9190611d2d565b600060405180830381855af49150503d8060008114611596576040519150601f19603f3d011682016040523d82523d6000602084013e61159b565b606091505b50915091506115ab828286611849565b925050509392505050565b60006115e47fa3f0ad74e5423aebfd80d3ef4346578335a9a72aeaee59ff6cb3582b35133d5060001b611096565b60000160009054906101000a900473ffffffffffffffffffffffffffffffffffffffff16905090565b6060600060028360026116209190611f90565b61162a9190611f3a565b67ffffffffffffffff81111561164357611642612232565b5b6040519080825280601f01601f1916602001820160405280156116755781602001600182028036833780820191505090505b5090507f3000000000000000000000000000000000000000000000000000000000000000816000815181106116ad576116ac612203565b5b60200101907effffffffffffffffffffffffffffffffffffffffffffffffffffffffffffff1916908160001a9053507f78000000000000000000000000000000000000000000000000000000000000008160018151811061171157611710612203565b5b60200101907effffffffffffffffffffffffffffffffffffffffffffffffffffffffffffff1916908160001a905350600060018460026117519190611f90565b61175b9190611f3a565b90505b60018111156117fb577f3031323334353637383961626364656600000000000000000000000000000000600f86166010811061179d5761179c612203565b5b1a60f81b8282815181106117b4576117b3612203565b5b60200101907effffffffffffffffffffffffffffffffffffffffffffffffffffffffffffff1916908160001a905350600485901c9450806117f4906120cf565b905061175e565b506000841461183f576040517f08c379a000000000000000000000000000000000000000000000000000000000815260040161183690611df1565b60405180910390fd5b8091505092915050565b60608315611859578290506118a9565b60008351111561186c5782518084602001fd5b816040517f08c379a00000000000000000000000000000000000000000000000000000000081526004016118a09190611dcf565b60405180910390fd5b9392505050565b60006118c36118be84611ed1565b611eac565b905080838252602082019050828560208602820111156118e6576118e5612266565b5b60005b8581101561191657816118fc8882611920565b8452602084019350602083019250506001810190506118e9565b5050509392505050565b60008135905061192f81612417565b92915050565b60008151905061194481612417565b92915050565b600082601f83011261195f5761195e612261565b5b813561196f8482602086016118b0565b91505092915050565b6000813590506119878161242e565b92915050565b60008135905061199c81612445565b92915050565b6000813590506119b18161245c565b92915050565b6000602082840312156119cd576119cc612270565b5b60006119db84828501611920565b91505092915050565b6000602082840312156119fa576119f9612270565b5b6000611a0884828501611935565b91505092915050565b60008060408385031215611a2857611a27612270565b5b6000611a3685828601611920565b9250506020611a47858286016119a2565b9150509250929050565b600060208284031215611a6757611a66612270565b5b600082013567ffffffffffffffff811115611a8557611a8461226b565b5b611a918482850161194a565b91505092915050565b600060208284031215611ab057611aaf612270565b5b6000611abe84828501611978565b91505092915050565b60008060408385031215611ade57611add612270565b5b6000611aec85828601611978565b9250506020611afd85828601611920565b9150509250929050565b600060208284031215611b1d57611b1c612270565b5b6000611b2b8482850161198d565b91505092915050565b600060208284031215611b4a57611b49612270565b5b6000611b58848285016119a2565b91505092915050565b611b6a8161201e565b82525050565b611b7981612030565b82525050565b611b888161203c565b82525050565b6000611b9982611efd565b611ba38185611f13565b9350611bb381856020860161209c565b80840191505092915050565b6000611bca82611f08565b611bd48185611f1e565b9350611be481856020860161209c565b611bed81612275565b840191505092915050565b6000611c0382611f08565b611c0d8185611f2f565b9350611c1d81856020860161209c565b80840191505092915050565b6000611c36602083611f1e565b9150611c4182612286565b602082019050919050565b6000611c59602683611f1e565b9150611c64826122af565b604082019050919050565b6000611c7c602083611f1e565b9150611c87826122fe565b602082019050919050565b6000611c9f602683611f1e565b9150611caa82612327565b604082019050919050565b6000611cc2601783611f2f565b9150611ccd82612376565b601782019050919050565b6000611ce5601183611f2f565b9150611cf08261239f565b601182019050919050565b6000611d08602f83611f1e565b9150611d13826123c8565b604082019050919050565b611d2781612092565b82525050565b6000611d398284611b8e565b915081905092915050565b6000611d4f82611cb5565b9150611d5b8285611bf8565b9150611d6682611cd8565b9150611d728284611bf8565b91508190509392505050565b6000602082019050611d936000830184611b61565b92915050565b6000602082019050611dae6000830184611b70565b92915050565b6000602082019050611dc96000830184611b7f565b92915050565b60006020820190508181036000830152611de98184611bbf565b905092915050565b60006020820190508181036000830152611e0a81611c29565b9050919050565b60006020820190508181036000830152611e2a81611c4c565b9050919050565b60006020820190508181036000830152611e4a81611c6f565b9050919050565b60006020820190508181036000830152611e6a81611c92565b9050919050565b60006020820190508181036000830152611e8a81611cfb565b9050919050565b6000602082019050611ea66000830184611d1e565b92915050565b6000611eb6611ec7565b9050611ec2828261212b565b919050565b6000604051905090565b600067ffffffffffffffff821115611eec57611eeb612232565b5b602082029050602081019050919050565b600081519050919050565b600081519050919050565b600081905092915050565b600082825260208201905092915050565b600081905092915050565b6000611f4582612092565b9150611f5083612092565b9250827fffffffffffffffffffffffffffffffffffffffffffffffffffffffffffffffff03821115611f8557611f846121a5565b5b828201905092915050565b6000611f9b82612092565b9150611fa683612092565b9250817fffffffffffffffffffffffffffffffffffffffffffffffffffffffffffffffff0483118215151615611fdf57611fde6121a5565b5b828202905092915050565b6000611ff582612092565b915061200083612092565b925082821015612013576120126121a5565b5b828203905092915050565b600061202982612072565b9050919050565b60008115159050919050565b6000819050919050565b60007fffffffff0000000000000000000000000000000000000000000000000000000082169050919050565b600073ffffffffffffffffffffffffffffffffffffffff82169050919050565b6000819050919050565b60005b838110156120ba57808201518184015260208101905061209f565b838111156120c9576000848401525b50505050565b60006120da82612092565b915060008214156120ee576120ed6121a5565b5b600182039050919050565b6000600282049050600182168061211157607f821691505b60208210811415612125576121246121d4565b5b50919050565b61213482612275565b810181811067ffffffffffffffff8211171561215357612152612232565b5b80604052505050565b600061216782612092565b91507fffffffffffffffffffffffffffffffffffffffffffffffffffffffffffffffff82141561219a576121996121a5565b5b600182019050919050565b7f4e487b7100000000000000000000000000000000000000000000000000000000600052601160045260246000fd5b7f4e487b7100000000000000000000000000000000000000000000000000000000600052602260045260246000fd5b7f4e487b7100000000000000000000000000000000000000000000000000000000600052603260045260246000fd5b7f4e487b7100000000000000000000000000000000000000000000000000000000600052604160045260246000fd5b600080fd5b600080fd5b600080fd5b600080fd5b6000601f19601f8301169050919050565b7f537472696e67733a20686578206c656e67746820696e73756666696369656e74600082015250565b7f4f776e61626c653a206e6577206f776e657220697320746865207a65726f206160008201527f6464726573730000000000000000000000000000000000000000000000000000602082015250565b7f4f776e61626c653a2063616c6c6572206973206e6f7420746865206f776e6572600082015250565b7f416464726573733a2064656c65676174652063616c6c20746f206e6f6e2d636f60008201527f6e74726163740000000000000000000000000000000000000000000000000000602082015250565b7f416363657373436f6e74726f6c3a206163636f756e7420000000000000000000600082015250565b7f206973206d697373696e6720726f6c6520000000000000000000000000000000600082015250565b7f416363657373436f6e74726f6c3a2063616e206f6e6c792072656e6f756e636560008201527f20726f6c657320666f722073656c660000000000000000000000000000000000602082015250565b6124208161201e565b811461242b57600080fd5b50565b6124378161203c565b811461244257600080fd5b50565b61244e81612046565b811461245957600080fd5b50565b61246581612092565b811461247057600080fd5b5056fe416464726573733a206c6f772d6c6576656c2064656c65676174652063616c6c206661696c6564a2646970667358221220ac80b511e82cb6882450c27875cda0d8ffdb269531175e906018f7a9ca59b12264736f6c63430008070033416464726573733a206c6f772d6c6576656c2064656c65676174652063616c6c206661696c656473657474696e67206c6561677565207363686564756c6520696e206c65616775656d616b6572a2646970667358221220fb5f3178bd9876bad7271f8f14bac1eb7d6d38f2adb1b6650836193a6596434064736f6c63430008070033608060405234801561001057600080fd5b5060405162000a9138038062000a91833981810160405281019061003491906101ef565b61005061004561006560201b60201c565b61006d60201b60201c565b61005f8161013160201b60201c565b5061030d565b600033905090565b60008060009054906101000a900473ffffffffffffffffffffffffffffffffffffffff169050816000806101000a81548173ffffffffffffffffffffffffffffffffffffffff021916908373ffffffffffffffffffffffffffffffffffffffff1602179055508173ffffffffffffffffffffffffffffffffffffffff168173ffffffffffffffffffffffffffffffffffffffff167f8be0079c531659141344cd1fd0a4f28419497f9722a3daafe3b4186f6b6457e060405160405180910390a35050565b610144816101c760201b6103781760201c565b610183576040517f08c379a000000000000000000000000000000000000000000000000000000000815260040161017a9061023f565b60405180910390fd5b80600160006101000a81548173ffffffffffffffffffffffffffffffffffffffff021916908373ffffffffffffffffffffffffffffffffffffffff16021790555050565b600080823b905060008111915050919050565b6000815190506101e9816102f6565b92915050565b600060208284031215610205576102046102a2565b5b6000610213848285016101da565b91505092915050565b600061022960338361025f565b9150610234826102a7565b604082019050919050565b600060208201905081810360008301526102588161021c565b9050919050565b600082825260208201905092915050565b600061027b82610282565b9050919050565b600073ffffffffffffffffffffffffffffffffffffffff82169050919050565b600080fd5b7f5570677261646561626c65426561636f6e3a20696d706c656d656e746174696f60008201527f6e206973206e6f74206120636f6e747261637400000000000000000000000000602082015250565b6102ff81610270565b811461030a57600080fd5b50565b610774806200031d6000396000f3fe608060405234801561001057600080fd5b50600436106100575760003560e01c80633659cfe61461005c5780635c60da1b14610078578063715018a6146100965780638da5cb5b146100a0578063f2fde38b146100be575b600080fd5b610076600480360381019061007191906104f8565b6100da565b005b6100806101a5565b60405161008d919061059d565b60405180910390f35b61009e6101cf565b005b6100a8610257565b6040516100b5919061059d565b60405180910390f35b6100d860048036038101906100d391906104f8565b610280565b005b6100e261038b565b73ffffffffffffffffffffffffffffffffffffffff16610100610257565b73ffffffffffffffffffffffffffffffffffffffff1614610156576040517f08c379a000000000000000000000000000000000000000000000000000000000815260040161014d906105f8565b60405180910390fd5b61015f81610393565b8073ffffffffffffffffffffffffffffffffffffffff167fbc7cd75a20ee27fd9adebab32041f755214dbc6bffa90cc0225b39da2e5c2d3b60405160405180910390a250565b6000600160009054906101000a900473ffffffffffffffffffffffffffffffffffffffff16905090565b6101d761038b565b73ffffffffffffffffffffffffffffffffffffffff166101f5610257565b73ffffffffffffffffffffffffffffffffffffffff161461024b576040517f08c379a0000000000000000000000000000000000000000000000000000000008152600401610242906105f8565b60405180910390fd5b610255600061041f565b565b60008060009054906101000a900473ffffffffffffffffffffffffffffffffffffffff16905090565b61028861038b565b73ffffffffffffffffffffffffffffffffffffffff166102a6610257565b73ffffffffffffffffffffffffffffffffffffffff16146102fc576040517f08c379a00000000000000000000000000000000000000000000000000000000081526004016102f3906105f8565b60405180910390fd5b600073ffffffffffffffffffffffffffffffffffffffff168173ffffffffffffffffffffffffffffffffffffffff16141561036c576040517f08c379a0000000000000000000000000000000000000000000000000000000008152600401610363906105b8565b60405180910390fd5b6103758161041f565b50565b600080823b905060008111915050919050565b600033905090565b61039c81610378565b6103db576040517f08c379a00000000000000000000000000000000000000000000000000000000081526004016103d2906105d8565b60405180910390fd5b80600160006101000a81548173ffffffffffffffffffffffffffffffffffffffff021916908373ffffffffffffffffffffffffffffffffffffffff16021790555050565b60008060009054906101000a900473ffffffffffffffffffffffffffffffffffffffff169050816000806101000a81548173ffffffffffffffffffffffffffffffffffffffff021916908373ffffffffffffffffffffffffffffffffffffffff1602179055508173ffffffffffffffffffffffffffffffffffffffff168173ffffffffffffffffffffffffffffffffffffffff167f8be0079c531659141344cd1fd0a4f28419497f9722a3daafe3b4186f6b6457e060405160405180910390a35050565b6000813590506104f281610727565b92915050565b60006020828403121561050e5761050d61065b565b5b600061051c848285016104e3565b91505092915050565b61052e81610629565b82525050565b6000610541602683610618565b915061054c82610660565b604082019050919050565b6000610564603383610618565b915061056f826106af565b604082019050919050565b6000610587602083610618565b9150610592826106fe565b602082019050919050565b60006020820190506105b26000830184610525565b92915050565b600060208201905081810360008301526105d181610534565b9050919050565b600060208201905081810360008301526105f181610557565b9050919050565b600060208201905081810360008301526106118161057a565b9050919050565b600082825260208201905092915050565b60006106348261063b565b9050919050565b600073ffffffffffffffffffffffffffffffffffffffff82169050919050565b600080fd5b7f4f776e61626c653a206e6577206f776e657220697320746865207a65726f206160008201527f6464726573730000000000000000000000000000000000000000000000000000602082015250565b7f5570677261646561626c65426561636f6e3a20696d706c656d656e746174696f60008201527f6e206973206e6f74206120636f6e747261637400000000000000000000000000602082015250565b7f4f776e61626c653a2063616c6c6572206973206e6f7420746865206f776e6572600082015250565b61073081610629565b811461073b57600080fd5b5056fea2646970667358221220f14c1e123fc6650c2510ce92a5938ce8dbd619e20ec5ceb7ad4526f9ccdb6aca64736f6c63430008070033",
  "linkReferences": {
    "contracts/LeagueMakerLibrary.sol": {
      "LeagueMakerLibrary": [
        {
          "length": 20,
          "start": 1745
        },
        {
          "length": 20,
          "start": 2466
        },
        {
          "length": 20,
          "start": 3426
        },
        {
          "length": 20,
          "start": 4194
        },
        {
          "length": 20,
          "start": 5169
        }
      ]
    }
  },
  "deployedLinkReferences": {
    "contracts/LeagueMakerLibrary.sol": {
      "LeagueMakerLibrary": [
        {
          "length": 20,
          "start": 910
        },
        {
          "length": 20,
          "start": 1631
        },
        {
          "length": 20,
          "start": 2591
        },
        {
          "length": 20,
          "start": 3359
        },
        {
          "length": 20,
          "start": 4334
        }
      ]
    }
  }
}