{
  "_format": "hh-sol-artifact-1",
  "contractName": "LeagueMaker",
  "sourceName": "contracts/LeagueMaker.sol",
  "abi": [
    {
      "inputs": [
        {
          "internalType": "address",
          "name": "_logic",
          "type": "address"
        }
      ],
      "stateMutability": "nonpayable",
      "type": "constructor"
    },
    {
      "anonymous": false,
      "inputs": [
        {
          "indexed": false,
          "internalType": "string",
          "name": "name",
          "type": "string"
        },
        {
          "indexed": false,
          "internalType": "address",
          "name": "proxyAddress",
          "type": "address"
        },
        {
          "indexed": false,
          "internalType": "address",
          "name": "proxyAdminAddress",
          "type": "address"
        }
      ],
      "name": "LeagueCreated",
      "type": "event"
    },
    {
      "anonymous": false,
      "inputs": [
        {
          "indexed": true,
          "internalType": "address",
          "name": "previousOwner",
          "type": "address"
        },
        {
          "indexed": true,
          "internalType": "address",
          "name": "newOwner",
          "type": "address"
        }
      ],
      "name": "OwnershipTransferred",
      "type": "event"
    },
    {
      "anonymous": false,
      "inputs": [
        {
          "indexed": false,
          "internalType": "bool",
          "name": "success",
          "type": "bool"
        },
        {
          "indexed": false,
          "internalType": "bytes",
          "name": "data",
          "type": "bytes"
        }
      ],
      "name": "Response",
      "type": "event"
    },
    {
      "inputs": [
        {
          "internalType": "string",
          "name": "_name",
          "type": "string"
        },
        {
          "internalType": "uint256",
          "name": "_stakeAmount",
          "type": "uint256"
        },
        {
          "internalType": "bool",
          "name": "_isPublic",
          "type": "bool"
        },
        {
          "internalType": "address",
          "name": "_adminAddress",
          "type": "address"
        },
        {
          "internalType": "address",
          "name": "_testUSDCAddress",
          "type": "address"
        },
        {
          "internalType": "address",
          "name": "_athletesContractAddress",
          "type": "address"
        }
      ],
      "name": "createLeague",
      "outputs": [
        {
          "internalType": "address",
          "name": "",
          "type": "address"
        }
      ],
      "stateMutability": "nonpayable",
      "type": "function"
    },
    {
      "inputs": [],
      "name": "currentWeek",
      "outputs": [
        {
          "internalType": "uint256",
          "name": "",
          "type": "uint256"
        }
      ],
      "stateMutability": "view",
      "type": "function"
    },
    {
      "inputs": [],
      "name": "evaluateWeekForAllLeagues",
      "outputs": [],
      "stateMutability": "nonpayable",
      "type": "function"
    },
    {
      "inputs": [
        {
          "internalType": "address",
          "name": "",
          "type": "address"
        }
      ],
      "name": "isProxyMap",
      "outputs": [
        {
          "internalType": "bool",
          "name": "",
          "type": "bool"
        }
      ],
      "stateMutability": "view",
      "type": "function"
    },
    {
      "inputs": [
        {
          "internalType": "uint256",
          "name": "",
          "type": "uint256"
        }
      ],
      "name": "leagueAddresses",
      "outputs": [
        {
          "internalType": "address",
          "name": "",
          "type": "address"
        }
      ],
      "stateMutability": "view",
      "type": "function"
    },
    {
      "inputs": [],
      "name": "lockLeagueLineups",
      "outputs": [],
      "stateMutability": "nonpayable",
      "type": "function"
    },
    {
      "inputs": [],
      "name": "lockLeagueMembership",
      "outputs": [],
      "stateMutability": "nonpayable",
      "type": "function"
    },
    {
      "inputs": [],
      "name": "owner",
      "outputs": [
        {
          "internalType": "address",
          "name": "",
          "type": "address"
        }
      ],
      "stateMutability": "view",
      "type": "function"
    },
    {
      "inputs": [],
      "name": "renounceOwnership",
      "outputs": [],
      "stateMutability": "nonpayable",
      "type": "function"
    },
    {
      "inputs": [
        {
          "internalType": "address",
          "name": "logic",
          "type": "address"
        }
      ],
      "name": "setBeacon",
      "outputs": [
        {
          "internalType": "address",
          "name": "",
          "type": "address"
        }
      ],
      "stateMutability": "nonpayable",
      "type": "function"
    },
    {
      "inputs": [],
      "name": "setLeagueSchedules",
      "outputs": [],
      "stateMutability": "nonpayable",
      "type": "function"
    },
    {
      "inputs": [
        {
          "internalType": "address",
          "name": "newOwner",
          "type": "address"
        }
      ],
      "name": "transferOwnership",
      "outputs": [],
      "stateMutability": "nonpayable",
      "type": "function"
    },
    {
      "inputs": [],
      "name": "unlockLeagueLineups",
      "outputs": [],
      "stateMutability": "nonpayable",
      "type": "function"
    },
    {
      "inputs": [
        {
          "internalType": "address",
          "name": "user",
          "type": "address"
        }
      ],
      "name": "updateUserToLeagueMapping",
      "outputs": [],
      "stateMutability": "nonpayable",
      "type": "function"
    },
    {
      "inputs": [
        {
          "internalType": "address",
          "name": "newLogicAddress",
          "type": "address"
        }
      ],
      "name": "upgradeBeacon",
      "outputs": [],
      "stateMutability": "nonpayable",
      "type": "function"
    },
    {
      "inputs": [
        {
          "internalType": "address",
          "name": "",
          "type": "address"
        },
        {
          "internalType": "uint256",
          "name": "",
          "type": "uint256"
        }
      ],
      "name": "userToLeagueMap",
      "outputs": [
        {
          "internalType": "address",
          "name": "",
          "type": "address"
        }
      ],
      "stateMutability": "view",
      "type": "function"
    }
  ],
  "bytecode": "0x60a060405260086007556000600855732791bca1f2de4661ed88a30c99a7a9449aa84174600960006101000a81548173ffffffffffffffffffffffffffffffffffffffff021916908373ffffffffffffffffffffffffffffffffffffffff16021790555073eb8f08a975ab53e34d8a0330e0d34de942c95926600a60006101000a81548173ffffffffffffffffffffffffffffffffffffffff021916908373ffffffffffffffffffffffffffffffffffffffff160217905550348015620000c557600080fd5b5060405162006a6138038062006a618339818101604052810190620000eb919062000272565b6200010b620000ff6200018160201b60201c565b6200018960201b60201c565b806040516200011a906200024d565b620001269190620002b5565b604051809103906000f08015801562000143573d6000803e3d6000fd5b5073ffffffffffffffffffffffffffffffffffffffff1660808173ffffffffffffffffffffffffffffffffffffffff1660601b815250505062000325565b600033905090565b60008060009054906101000a900473ffffffffffffffffffffffffffffffffffffffff169050816000806101000a81548173ffffffffffffffffffffffffffffffffffffffff021916908373ffffffffffffffffffffffffffffffffffffffff1602179055508173ffffffffffffffffffffffffffffffffffffffff168173ffffffffffffffffffffffffffffffffffffffff167f8be0079c531659141344cd1fd0a4f28419497f9722a3daafe3b4186f6b6457e060405160405180910390a35050565b610a918062005fd083390190565b6000815190506200026c816200030b565b92915050565b6000602082840312156200028b576200028a62000306565b5b60006200029b848285016200025b565b91505092915050565b620002af81620002d2565b82525050565b6000602082019050620002cc6000830184620002a4565b92915050565b6000620002df82620002e6565b9050919050565b600073ffffffffffffffffffffffffffffffffffffffff82169050919050565b600080fd5b6200031681620002d2565b81146200032257600080fd5b50565b60805160601c615c856200034b6000396000818161031f0152610f070152615c856000f3fe60806040523480156200001157600080fd5b5060043610620001185760003560e01c8063a945320f11620000a5578063d42afb56116200006f578063d42afb56146200027f578063d46dc6c414620002b5578063d54c9d1614620002eb578063f2fde38b14620002f75762000118565b8063a945320f14620001fb578063b37cc9f11462000207578063c3530ff4146200023d578063c49986a514620002735762000118565b8063449f77fb11620000e7578063449f77fb14620001a1578063715018a614620001ad578063771bd4ce14620001b95780638da5cb5b14620001d95762000118565b806306575c89146200011d5780631bce4583146200013f578063270cb3eb146200015f57806329ffe5e9146200016b575b600080fd5b6200012762000317565b60405162000136919062001ae8565b60405180910390f35b6200015d600480360381019062000157919062001553565b6200031d565b005b62000169620003af565b005b6200018960048036038101906200018391906200168d565b62000640565b60405162000198919062001884565b60405180910390f35b620001ab62000680565b005b620001b76200078f565b005b620001d76004803603810190620001d1919062001553565b62000820565b005b620001e362000952565b604051620001f2919062001884565b60405180910390f35b620002056200097b565b005b6200022560048036038101906200021f919062001553565b62000c30565b6040516200023491906200191f565b60405180910390f35b6200025b600480360381019062000255919062001585565b62000c50565b6040516200026a919062001884565b60405180910390f35b6200027d62000c9f565b005b6200029d600480360381019062000297919062001553565b62000d90565b604051620002ac919062001884565b60405180910390f35b620002d36004803603810190620002cd9190620015cc565b62000e18565b604051620002e2919062001884565b60405180910390f35b620002f56200110c565b005b6200031560048036038101906200030f919062001553565b620011fd565b005b60085481565b7f000000000000000000000000000000000000000000000000000000000000000073ffffffffffffffffffffffffffffffffffffffff16633659cfe6826040518263ffffffff1660e01b815260040162000378919062001884565b600060405180830381600087803b1580156200039357600080fd5b505af1158015620003a8573d6000803e3d6000fd5b5050505050565b620003b962001301565b73ffffffffffffffffffffffffffffffffffffffff16620003d962000952565b73ffffffffffffffffffffffffffffffffffffffff161462000432576040517f08c379a0000000000000000000000000000000000000000000000000000000008152600401620004299062001ac6565b60405180910390fd5b73__$12cdf1fac25abe52b1eb298b32a4f32efb$__6388fa0a1f60036040518263ffffffff1660e01b81526004016200046c9190620018d5565b60006040518083038186803b1580156200048557600080fd5b505af41580156200049a573d6000803e3d6000fd5b505050506000606060005b6003805490508110156200063b5760038181548110620004ca57620004c962001c54565b5b9060005260206000200160009054906101000a900473ffffffffffffffffffffffffffffffffffffffff1673ffffffffffffffffffffffffffffffffffffffff166040516024016040516020818303038152906040527fe4c9066b000000000000000000000000000000000000000000000000000000007bffffffffffffffffffffffffffffffffffffffffffffffffffffffff19166020820180517bffffffffffffffffffffffffffffffffffffffffffffffffffffffff83818316178352505050506040516200059d91906200186b565b6000604051808303816000865af19150503d8060008114620005dc576040519150601f19603f3d011682016040523d82523d6000602084013e620005e1565b606091505b5080935081945050507f13848c3e38f8886f3f5d2ad9dff80d8092c2bbb8efd5b887a99c2c6cfc09ac2a83836040516200061d9291906200193c565b60405180910390a18080620006329062001bd7565b915050620004a5565b505050565b600381815481106200065157600080fd5b906000526020600020016000915054906101000a900473ffffffffffffffffffffffffffffffffffffffff1681565b6200068a62001301565b73ffffffffffffffffffffffffffffffffffffffff16620006aa62000952565b73ffffffffffffffffffffffffffffffffffffffff161462000703576040517f08c379a0000000000000000000000000000000000000000000000000000000008152600401620006fa9062001ac6565b60405180910390fd5b73__$12cdf1fac25abe52b1eb298b32a4f32efb$__6335c83fd360036008546040518363ffffffff1660e01b815260040162000741929190620018f2565b60006040518083038186803b1580156200075a57600080fd5b505af41580156200076f573d6000803e3d6000fd5b5050505060086000815480929190620007889062001bd7565b9190505550565b6200079962001301565b73ffffffffffffffffffffffffffffffffffffffff16620007b962000952565b73ffffffffffffffffffffffffffffffffffffffff161462000812576040517f08c379a0000000000000000000000000000000000000000000000000000000008152600401620008099062001ac6565b60405180910390fd5b6200081e600062001309565b565b600560003373ffffffffffffffffffffffffffffffffffffffff1673ffffffffffffffffffffffffffffffffffffffff16815260200190815260200160002060009054906101000a900460ff16620008af576040517f08c379a0000000000000000000000000000000000000000000000000000000008152600401620008a69062001aa4565b60405180910390fd5b600460008273ffffffffffffffffffffffffffffffffffffffff1673ffffffffffffffffffffffffffffffffffffffff168152602001908152602001600020339080600181540180825580915050600190039060005260206000200160009091909190916101000a81548173ffffffffffffffffffffffffffffffffffffffff021916908373ffffffffffffffffffffffffffffffffffffffff16021790555050565b60008060009054906101000a900473ffffffffffffffffffffffffffffffffffffffff16905090565b6200098562001301565b73ffffffffffffffffffffffffffffffffffffffff16620009a562000952565b73ffffffffffffffffffffffffffffffffffffffff1614620009fe576040517f08c379a0000000000000000000000000000000000000000000000000000000008152600401620009f59062001ac6565b60405180910390fd5b62000a2260405180606001604052806026815260200162005c2a60269139620013cd565b73__$12cdf1fac25abe52b1eb298b32a4f32efb$__630e2a112660036040518263ffffffff1660e01b815260040162000a5c9190620018d5565b60006040518083038186803b15801562000a7557600080fd5b505af415801562000a8a573d6000803e3d6000fd5b505050506000606060005b60038054905081101562000c2b576003818154811062000aba5762000ab962001c54565b5b9060005260206000200160009054906101000a900473ffffffffffffffffffffffffffffffffffffffff1673ffffffffffffffffffffffffffffffffffffffff166040516024016040516020818303038152906040527f0655465a000000000000000000000000000000000000000000000000000000007bffffffffffffffffffffffffffffffffffffffffffffffffffffffff19166020820180517bffffffffffffffffffffffffffffffffffffffffffffffffffffffff838183161783525050505060405162000b8d91906200186b565b6000604051808303816000865af19150503d806000811462000bcc576040519150601f19603f3d011682016040523d82523d6000602084013e62000bd1565b606091505b5080935081945050507f13848c3e38f8886f3f5d2ad9dff80d8092c2bbb8efd5b887a99c2c6cfc09ac2a838360405162000c0d9291906200193c565b60405180910390a1808062000c229062001bd7565b91505062000a95565b505050565b60056020528060005260406000206000915054906101000a900460ff1681565b6004602052816000526040600020818154811062000c6d57600080fd5b906000526020600020016000915091509054906101000a900473ffffffffffffffffffffffffffffffffffffffff1681565b62000ca962001301565b73ffffffffffffffffffffffffffffffffffffffff1662000cc962000952565b73ffffffffffffffffffffffffffffffffffffffff161462000d22576040517f08c379a000000000000000000000000000000000000000000000000000000000815260040162000d199062001ac6565b60405180910390fd5b73__$12cdf1fac25abe52b1eb298b32a4f32efb$__63c311d4f660036040518263ffffffff1660e01b815260040162000d5c9190620018d5565b60006040518083038186803b15801562000d7557600080fd5b505af415801562000d8a573d6000803e3d6000fd5b50505050565b6000808260405162000da29062001493565b62000dae919062001884565b604051809103906000f08015801562000dcb573d6000803e3d6000fd5b50905080600260006101000a81548173ffffffffffffffffffffffffffffffffffffffff021916908373ffffffffffffffffffffffffffffffffffffffff16021790555080915050919050565b600080888888888689600960009054906101000a900473ffffffffffffffffffffffffffffffffffffffff16600a60009054906101000a900473ffffffffffffffffffffffffffffffffffffffff168b3060405160240162000e849a99989796959493929190620019b6565b6040516020818303038152906040527f989db659000000000000000000000000000000000000000000000000000000007bffffffffffffffffffffffffffffffffffffffffffffffffffffffff19166020820180517bffffffffffffffffffffffffffffffffffffffffffffffffffffffff8381831617835250505050905060007f00000000000000000000000000000000000000000000000000000000000000008260405162000f3590620014a1565b62000f42929190620018a1565b604051809103906000f08015801562000f5f573d6000803e3d6000fd5b5090506003819080600181540180825580915050600190039060005260206000200160009091909190916101000a81548173ffffffffffffffffffffffffffffffffffffffff021916908373ffffffffffffffffffffffffffffffffffffffff160217905550600460008773ffffffffffffffffffffffffffffffffffffffff1673ffffffffffffffffffffffffffffffffffffffff168152602001908152602001600020819080600181540180825580915050600190039060005260206000200160009091909190916101000a81548173ffffffffffffffffffffffffffffffffffffffff021916908373ffffffffffffffffffffffffffffffffffffffff1602179055506001600560008373ffffffffffffffffffffffffffffffffffffffff1673ffffffffffffffffffffffffffffffffffffffff16815260200190815260200160002060006101000a81548160ff0219169083151502179055507fc47056fccf84218e4e94c23620f6dff0eca24341da09715bdf519222f79d83c38a8a8389604051620010f4949392919062001970565b60405180910390a18092505050979650505050505050565b6200111662001301565b73ffffffffffffffffffffffffffffffffffffffff166200113662000952565b73ffffffffffffffffffffffffffffffffffffffff16146200118f576040517f08c379a0000000000000000000000000000000000000000000000000000000008152600401620011869062001ac6565b60405180910390fd5b73__$12cdf1fac25abe52b1eb298b32a4f32efb$__63a71e139860036040518263ffffffff1660e01b8152600401620011c99190620018d5565b60006040518083038186803b158015620011e257600080fd5b505af4158015620011f7573d6000803e3d6000fd5b50505050565b6200120762001301565b73ffffffffffffffffffffffffffffffffffffffff166200122762000952565b73ffffffffffffffffffffffffffffffffffffffff161462001280576040517f08c379a0000000000000000000000000000000000000000000000000000000008152600401620012779062001ac6565b60405180910390fd5b600073ffffffffffffffffffffffffffffffffffffffff168173ffffffffffffffffffffffffffffffffffffffff161415620012f3576040517f08c379a0000000000000000000000000000000000000000000000000000000008152600401620012ea9062001a82565b60405180910390fd5b620012fe8162001309565b50565b600033905090565b60008060009054906101000a900473ffffffffffffffffffffffffffffffffffffffff169050816000806101000a81548173ffffffffffffffffffffffffffffffffffffffff021916908373ffffffffffffffffffffffffffffffffffffffff1602179055508173ffffffffffffffffffffffffffffffffffffffff168173ffffffffffffffffffffffffffffffffffffffff167f8be0079c531659141344cd1fd0a4f28419497f9722a3daafe3b4186f6b6457e060405160405180910390a35050565b6200146781604051602401620013e4919062001a5e565b6040516020818303038152906040527f41304fac000000000000000000000000000000000000000000000000000000007bffffffffffffffffffffffffffffffffffffffffffffffffffffffff19166020820180517bffffffffffffffffffffffffffffffffffffffffffffffffffffffff83818316178352505050506200146a565b50565b60008151905060006a636f6e736f6c652e6c6f679050602083016000808483855afa5050505050565b610a918062001dc383390190565b6133d6806200285483390190565b600081359050620014c08162001d74565b92915050565b600081359050620014d78162001d8e565b92915050565b60008083601f840112620014f657620014f562001c88565b5b8235905067ffffffffffffffff81111562001516576200151562001c83565b5b60208301915083600182028301111562001535576200153462001c8d565b5b9250929050565b6000813590506200154d8162001da8565b92915050565b6000602082840312156200156c576200156b62001c97565b5b60006200157c84828501620014af565b91505092915050565b600080604083850312156200159f576200159e62001c97565b5b6000620015af85828601620014af565b9250506020620015c2858286016200153c565b9150509250929050565b600080600080600080600060c0888a031215620015ee57620015ed62001c97565b5b600088013567ffffffffffffffff8111156200160f576200160e62001c92565b5b6200161d8a828b01620014dd565b97509750506020620016328a828b016200153c565b9550506040620016458a828b01620014c6565b9450506060620016588a828b01620014af565b93505060806200166b8a828b01620014af565b92505060a06200167e8a828b01620014af565b91505092959891949750929550565b600060208284031215620016a657620016a562001c97565b5b6000620016b6848285016200153c565b91505092915050565b620016ca8162001b48565b82525050565b8082525050565b620016e28162001b5c565b82525050565b6000620016f58262001b05565b62001701818562001b1b565b93506200171381856020860162001ba1565b6200171e8162001c9c565b840191505092915050565b6000620017368262001b05565b62001742818562001b2c565b93506200175481856020860162001ba1565b80840191505092915050565b60006200176e838562001b37565b93506200177d83858462001b92565b620017888362001c9c565b840190509392505050565b6000620017a08262001b10565b620017ac818562001b37565b9350620017be81856020860162001ba1565b620017c98162001c9c565b840191505092915050565b6000620017e360268362001b37565b9150620017f08262001cad565b604082019050919050565b60006200180a60248362001b37565b9150620018178262001cfc565b604082019050919050565b60006200183160208362001b37565b91506200183e8262001d4b565b602082019050919050565b620018548162001b88565b82525050565b620018658162001b88565b82525050565b600062001879828462001729565b915081905092915050565b60006020820190506200189b6000830184620016bf565b92915050565b6000604082019050620018b86000830185620016bf565b8181036020830152620018cc8184620016e8565b90509392505050565b6000602082019050620018ec6000830184620016d0565b92915050565b6000604082019050620019096000830185620016d0565b6200191860208301846200185a565b9392505050565b6000602082019050620019366000830184620016d7565b92915050565b6000604082019050620019536000830185620016d7565b8181036020830152620019678184620016e8565b90509392505050565b600060608201905081810360008301526200198d81868862001760565b90506200199e6020830185620016bf565b620019ad6040830184620016bf565b95945050505050565b6000610120820190508181036000830152620019d4818c8e62001760565b9050620019e5602083018b62001849565b620019f4604083018a620016d7565b62001a036060830189620016bf565b62001a126080830188620016bf565b62001a2160a0830187620016bf565b62001a3060c0830186620016bf565b62001a3f60e0830185620016bf565b62001a4f610100830184620016bf565b9b9a5050505050505050505050565b6000602082019050818103600083015262001a7a818462001793565b905092915050565b6000602082019050818103600083015262001a9d81620017d4565b9050919050565b6000602082019050818103600083015262001abf81620017fb565b9050919050565b6000602082019050818103600083015262001ae18162001822565b9050919050565b600060208201905062001aff600083018462001849565b92915050565b600081519050919050565b600081519050919050565b600082825260208201905092915050565b600081905092915050565b600082825260208201905092915050565b600062001b558262001b68565b9050919050565b60008115159050919050565b600073ffffffffffffffffffffffffffffffffffffffff82169050919050565b6000819050919050565b82818337600083830152505050565b60005b8381101562001bc157808201518184015260208101905062001ba4565b8381111562001bd1576000848401525b50505050565b600062001be48262001b88565b91507fffffffffffffffffffffffffffffffffffffffffffffffffffffffffffffffff82141562001c1a5762001c1962001c25565b5b600182019050919050565b7f4e487b7100000000000000000000000000000000000000000000000000000000600052601160045260246000fd5b7f4e487b7100000000000000000000000000000000000000000000000000000000600052603260045260246000fd5b600080fd5b600080fd5b600080fd5b600080fd5b600080fd5b6000601f19601f8301169050919050565b7f4f776e61626c653a206e6577206f776e657220697320746865207a65726f206160008201527f6464726573730000000000000000000000000000000000000000000000000000602082015250565b7f43616c6c6572206973206e6f7420612076616c69642070726f7879206164647260008201527f6573732e00000000000000000000000000000000000000000000000000000000602082015250565b7f4f776e61626c653a2063616c6c6572206973206e6f7420746865206f776e6572600082015250565b62001d7f8162001b48565b811462001d8b57600080fd5b50565b62001d998162001b5c565b811462001da557600080fd5b50565b62001db38162001b88565b811462001dbf57600080fd5b5056fe608060405234801561001057600080fd5b5060405162000a9138038062000a91833981810160405281019061003491906101ef565b61005061004561006560201b60201c565b61006d60201b60201c565b61005f8161013160201b60201c565b5061030d565b600033905090565b60008060009054906101000a900473ffffffffffffffffffffffffffffffffffffffff169050816000806101000a81548173ffffffffffffffffffffffffffffffffffffffff021916908373ffffffffffffffffffffffffffffffffffffffff1602179055508173ffffffffffffffffffffffffffffffffffffffff168173ffffffffffffffffffffffffffffffffffffffff167f8be0079c531659141344cd1fd0a4f28419497f9722a3daafe3b4186f6b6457e060405160405180910390a35050565b610144816101c760201b6103781760201c565b610183576040517f08c379a000000000000000000000000000000000000000000000000000000000815260040161017a9061023f565b60405180910390fd5b80600160006101000a81548173ffffffffffffffffffffffffffffffffffffffff021916908373ffffffffffffffffffffffffffffffffffffffff16021790555050565b600080823b905060008111915050919050565b6000815190506101e9816102f6565b92915050565b600060208284031215610205576102046102a2565b5b6000610213848285016101da565b91505092915050565b600061022960338361025f565b9150610234826102a7565b604082019050919050565b600060208201905081810360008301526102588161021c565b9050919050565b600082825260208201905092915050565b600061027b82610282565b9050919050565b600073ffffffffffffffffffffffffffffffffffffffff82169050919050565b600080fd5b7f5570677261646561626c65426561636f6e3a20696d706c656d656e746174696f60008201527f6e206973206e6f74206120636f6e747261637400000000000000000000000000602082015250565b6102ff81610270565b811461030a57600080fd5b50565b610774806200031d6000396000f3fe608060405234801561001057600080fd5b50600436106100575760003560e01c80633659cfe61461005c5780635c60da1b14610078578063715018a6146100965780638da5cb5b146100a0578063f2fde38b146100be575b600080fd5b610076600480360381019061007191906104f8565b6100da565b005b6100806101a5565b60405161008d919061059d565b60405180910390f35b61009e6101cf565b005b6100a8610257565b6040516100b5919061059d565b60405180910390f35b6100d860048036038101906100d391906104f8565b610280565b005b6100e261038b565b73ffffffffffffffffffffffffffffffffffffffff16610100610257565b73ffffffffffffffffffffffffffffffffffffffff1614610156576040517f08c379a000000000000000000000000000000000000000000000000000000000815260040161014d906105f8565b60405180910390fd5b61015f81610393565b8073ffffffffffffffffffffffffffffffffffffffff167fbc7cd75a20ee27fd9adebab32041f755214dbc6bffa90cc0225b39da2e5c2d3b60405160405180910390a250565b6000600160009054906101000a900473ffffffffffffffffffffffffffffffffffffffff16905090565b6101d761038b565b73ffffffffffffffffffffffffffffffffffffffff166101f5610257565b73ffffffffffffffffffffffffffffffffffffffff161461024b576040517f08c379a0000000000000000000000000000000000000000000000000000000008152600401610242906105f8565b60405180910390fd5b610255600061041f565b565b60008060009054906101000a900473ffffffffffffffffffffffffffffffffffffffff16905090565b61028861038b565b73ffffffffffffffffffffffffffffffffffffffff166102a6610257565b73ffffffffffffffffffffffffffffffffffffffff16146102fc576040517f08c379a00000000000000000000000000000000000000000000000000000000081526004016102f3906105f8565b60405180910390fd5b600073ffffffffffffffffffffffffffffffffffffffff168173ffffffffffffffffffffffffffffffffffffffff16141561036c576040517f08c379a0000000000000000000000000000000000000000000000000000000008152600401610363906105b8565b60405180910390fd5b6103758161041f565b50565b600080823b905060008111915050919050565b600033905090565b61039c81610378565b6103db576040517f08c379a00000000000000000000000000000000000000000000000000000000081526004016103d2906105d8565b60405180910390fd5b80600160006101000a81548173ffffffffffffffffffffffffffffffffffffffff021916908373ffffffffffffffffffffffffffffffffffffffff16021790555050565b60008060009054906101000a900473ffffffffffffffffffffffffffffffffffffffff169050816000806101000a81548173ffffffffffffffffffffffffffffffffffffffff021916908373ffffffffffffffffffffffffffffffffffffffff1602179055508173ffffffffffffffffffffffffffffffffffffffff168173ffffffffffffffffffffffffffffffffffffffff167f8be0079c531659141344cd1fd0a4f28419497f9722a3daafe3b4186f6b6457e060405160405180910390a35050565b6000813590506104f281610727565b92915050565b60006020828403121561050e5761050d61065b565b5b600061051c848285016104e3565b91505092915050565b61052e81610629565b82525050565b6000610541602683610618565b915061054c82610660565b604082019050919050565b6000610564603383610618565b915061056f826106af565b604082019050919050565b6000610587602083610618565b9150610592826106fe565b602082019050919050565b60006020820190506105b26000830184610525565b92915050565b600060208201905081810360008301526105d181610534565b9050919050565b600060208201905081810360008301526105f181610557565b9050919050565b600060208201905081810360008301526106118161057a565b9050919050565b600082825260208201905092915050565b60006106348261063b565b9050919050565b600073ffffffffffffffffffffffffffffffffffffffff82169050919050565b600080fd5b7f4f776e61626c653a206e6577206f776e657220697320746865207a65726f206160008201527f6464726573730000000000000000000000000000000000000000000000000000602082015250565b7f5570677261646561626c65426561636f6e3a20696d706c656d656e746174696f60008201527f6e206973206e6f74206120636f6e747261637400000000000000000000000000602082015250565b7f4f776e61626c653a2063616c6c6572206973206e6f7420746865206f776e6572600082015250565b61073081610629565b811461073b57600080fd5b5056fea2646970667358221220f14c1e123fc6650c2510ce92a5938ce8dbd619e20ec5ceb7ad4526f9ccdb6aca64736f6c634300080700336080604052604051620033d6380380620033d68339818101604052810190620000299190620006bb565b620000496200003d620000cf60201b60201c565b620000d760201b60201c565b60017fa3f0ad74e5423aebfd80d3ef4346578335a9a72aeaee59ff6cb3582b35133d5160001c6200007b919062000942565b60001b7fa3f0ad74e5423aebfd80d3ef4346578335a9a72aeaee59ff6cb3582b35133d5060001b14620000b357620000b262000a27565b5b620000c7828260006200019b60201b60201c565b505062000be0565b600033905090565b60008060009054906101000a900473ffffffffffffffffffffffffffffffffffffffff169050816000806101000a81548173ffffffffffffffffffffffffffffffffffffffff021916908373ffffffffffffffffffffffffffffffffffffffff1602179055508173ffffffffffffffffffffffffffffffffffffffff168173ffffffffffffffffffffffffffffffffffffffff167f8be0079c531659141344cd1fd0a4f28419497f9722a3daafe3b4186f6b6457e060405160405180910390a35050565b620001ac83620002a260201b60201c565b8273ffffffffffffffffffffffffffffffffffffffff167f1cf3b03a6cf19fa2baba4df148e9dcabedea7f8a5c07840e207e5c089be95d3e60405160405180910390a2600082511180620001fd5750805b156200029d576200029b8373ffffffffffffffffffffffffffffffffffffffff16635c60da1b6040518163ffffffff1660e01b815260040160206040518083038186803b1580156200024e57600080fd5b505afa15801562000263573d6000803e3d6000fd5b505050506040513d601f19601f8201168201806040525081019062000289919062000689565b836200045160201b620012e51760201c565b505b505050565b620002b8816200048760201b620013121760201c565b620002fa576040517f08c379a0000000000000000000000000000000000000000000000000000000008152600401620002f1906200084b565b60405180910390fd5b620003918173ffffffffffffffffffffffffffffffffffffffff16635c60da1b6040518163ffffffff1660e01b815260040160206040518083038186803b1580156200034557600080fd5b505afa1580156200035a573d6000803e3d6000fd5b505050506040513d601f19601f8201168201806040525081019062000380919062000689565b6200048760201b620013121760201c565b620003d3576040517f08c379a0000000000000000000000000000000000000000000000000000000008152600401620003ca906200088f565b60405180910390fd5b806200040d7fa3f0ad74e5423aebfd80d3ef4346578335a9a72aeaee59ff6cb3582b35133d5060001b6200049a60201b620013251760201c565b60000160006101000a81548173ffffffffffffffffffffffffffffffffffffffff021916908373ffffffffffffffffffffffffffffffffffffffff16021790555050565b60606200047f8383604051806060016040528060278152602001620033af60279139620004a460201b60201c565b905092915050565b600080823b905060008111915050919050565b6000819050919050565b6060620004b7846200048760201b60201c565b620004f9576040517f08c379a0000000000000000000000000000000000000000000000000000000008152600401620004f0906200086d565b60405180910390fd5b6000808573ffffffffffffffffffffffffffffffffffffffff16856040516200052391906200080e565b600060405180830381855af49150503d806000811462000560576040519150601f19603f3d011682016040523d82523d6000602084013e62000565565b606091505b50915091506200057d8282866200058860201b60201c565b925050509392505050565b606083156200059a57829050620005ed565b600083511115620005ae5782518084602001fd5b816040517f08c379a0000000000000000000000000000000000000000000000000000000008152600401620005e4919062000827565b60405180910390fd5b9392505050565b60006200060b6200060584620008da565b620008b1565b9050828152602081018484840111156200062a576200062962000ab9565b5b62000637848285620009bb565b509392505050565b600081519050620006508162000bc6565b92915050565b600082601f8301126200066e576200066d62000ab4565b5b815162000680848260208601620005f4565b91505092915050565b600060208284031215620006a257620006a162000ac3565b5b6000620006b2848285016200063f565b91505092915050565b60008060408385031215620006d557620006d462000ac3565b5b6000620006e5858286016200063f565b925050602083015167ffffffffffffffff81111562000709576200070862000abe565b5b620007178582860162000656565b9150509250929050565b60006200072e8262000910565b6200073a818562000926565b93506200074c818560208601620009bb565b80840191505092915050565b600062000765826200091b565b62000771818562000931565b935062000783818560208601620009bb565b6200078e8162000ac8565b840191505092915050565b6000620007a860258362000931565b9150620007b58262000ad9565b604082019050919050565b6000620007cf60268362000931565b9150620007dc8262000b28565b604082019050919050565b6000620007f660308362000931565b9150620008038262000b77565b604082019050919050565b60006200081c828462000721565b915081905092915050565b6000602082019050818103600083015262000843818462000758565b905092915050565b60006020820190508181036000830152620008668162000799565b9050919050565b600060208201905081810360008301526200088881620007c0565b9050919050565b60006020820190508181036000830152620008aa81620007e7565b9050919050565b6000620008bd620008d0565b9050620008cb8282620009f1565b919050565b6000604051905090565b600067ffffffffffffffff821115620008f857620008f762000a85565b5b620009038262000ac8565b9050602081019050919050565b600081519050919050565b600081519050919050565b600081905092915050565b600082825260208201905092915050565b60006200094f82620009b1565b91506200095c83620009b1565b92508282101562000972576200097162000a56565b5b828203905092915050565b60006200098a8262000991565b9050919050565b600073ffffffffffffffffffffffffffffffffffffffff82169050919050565b6000819050919050565b60005b83811015620009db578082015181840152602081019050620009be565b83811115620009eb576000848401525b50505050565b620009fc8262000ac8565b810181811067ffffffffffffffff8211171562000a1e5762000a1d62000a85565b5b80604052505050565b7f4e487b7100000000000000000000000000000000000000000000000000000000600052600160045260246000fd5b7f4e487b7100000000000000000000000000000000000000000000000000000000600052601160045260246000fd5b7f4e487b7100000000000000000000000000000000000000000000000000000000600052604160045260246000fd5b600080fd5b600080fd5b600080fd5b600080fd5b6000601f19601f8301169050919050565b7f455243313936373a206e657720626561636f6e206973206e6f74206120636f6e60008201527f7472616374000000000000000000000000000000000000000000000000000000602082015250565b7f416464726573733a2064656c65676174652063616c6c20746f206e6f6e2d636f60008201527f6e74726163740000000000000000000000000000000000000000000000000000602082015250565b7f455243313936373a20626561636f6e20696d706c656d656e746174696f6e206960008201527f73206e6f74206120636f6e747261637400000000000000000000000000000000602082015250565b62000bd1816200097d565b811462000bdd57600080fd5b50565b6127bf8062000bf06000396000f3fe6080604052600436106101d05760003560e01c806384900b04116100f7578063cff5600311610095578063e35a899911610064578063e35a899914610705578063edcbe96c14610742578063f2fde38b1461077f578063f851a440146107a8576101df565b8063cff5600314610637578063d547741f14610674578063dc9a15351461069d578063e2ec6ec3146106c8576101df565b806391d14854116100d157806391d148541461056757806393f3706c146105a45780639b19251a146105cf578063a217fddf1461060c576101df565b806384900b04146104d45780638da5cb5b146104ff5780639122ce6d1461052a576101df565b80632f2ff15d1161016f578063715018a61161013e578063715018a61461042a5780637b9417c8146104415780637eed33f11461047e578063841abf6e146104a9576101df565b80632f2ff15d1461038257806336568abe146103ab57806344eaa84e146103d457806360c7dc47146103ff576101df565b8063248a9ca3116101ab578063248a9ca31461028e57806324953eaa146102cb578063267175db14610308578063286dd3f514610345576101df565b8062b2476f146101e957806301ffc9a7146102145780630c6f795914610251576101df565b366101df576101dd6107d3565b005b6101e76107d3565b005b3480156101f557600080fd5b506101fe6107ed565b60405161020b919061201c565b60405180910390f35b34801561022057600080fd5b5061023b60048036038101906102369190611d96565b610813565b6040516102489190612037565b60405180910390f35b34801561025d57600080fd5b5061027860048036038101906102739190611ca0565b61088d565b604051610285919061214a565b60405180910390f35b34801561029a57600080fd5b506102b560048036038101906102b09190611d29565b6108b5565b6040516102c29190612052565b60405180910390f35b3480156102d757600080fd5b506102f260048036038101906102ed9190611ce0565b6108d5565b6040516102ff9190612037565b60405180910390f35b34801561031457600080fd5b5061032f600480360381019061032a9190611dc3565b6109bf565b60405161033c919061201c565b60405180910390f35b34801561035157600080fd5b5061036c60048036038101906103679190611c46565b6109fe565b6040516103799190612037565b60405180910390f35b34801561038e57600080fd5b506103a960048036038101906103a49190611d56565b610b81565b005b3480156103b757600080fd5b506103d260048036038101906103cd9190611d56565b610baa565b005b3480156103e057600080fd5b506103e9610c2d565b6040516103f6919061214a565b60405180910390f35b34801561040b57600080fd5b50610414610c37565b604051610421919061214a565b60405180910390f35b34801561043657600080fd5b5061043f610c3d565b005b34801561044d57600080fd5b5061046860048036038101906104639190611c46565b610cc5565b6040516104759190612037565b60405180910390f35b34801561048a57600080fd5b50610493610e47565b6040516104a0919061214a565b60405180910390f35b3480156104b557600080fd5b506104be610e4d565b6040516104cb9190612088565b60405180910390f35b3480156104e057600080fd5b506104e9610edb565b6040516104f6919061206d565b60405180910390f35b34801561050b57600080fd5b50610514610f01565b604051610521919061201c565b60405180910390f35b34801561053657600080fd5b50610551600480360381019061054c9190611c46565b610f2a565b60405161055e9190612037565b60405180910390f35b34801561057357600080fd5b5061058e60048036038101906105899190611d56565b610f4a565b60405161059b9190612037565b60405180910390f35b3480156105b057600080fd5b506105b9610fb5565b6040516105c6919061201c565b60405180910390f35b3480156105db57600080fd5b506105f660048036038101906105f19190611c46565b610fdb565b6040516106039190612037565b60405180910390f35b34801561061857600080fd5b50610621610ffb565b60405161062e9190612052565b60405180910390f35b34801561064357600080fd5b5061065e60048036038101906106599190611ca0565b611002565b60405161066b919061214a565b60405180910390f35b34801561068057600080fd5b5061069b60048036038101906106969190611d56565b611033565b005b3480156106a957600080fd5b506106b261105c565b6040516106bf9190612037565b60405180910390f35b3480156106d457600080fd5b506106ef60048036038101906106ea9190611ce0565b61106f565b6040516106fc9190612037565b60405180910390f35b34801561071157600080fd5b5061072c60048036038101906107279190611c46565b611159565b6040516107399190612037565b60405180910390f35b34801561074e57600080fd5b5061076960048036038101906107649190611c46565b6111af565b604051610776919061214a565b60405180910390f35b34801561078b57600080fd5b506107a660048036038101906107a19190611c46565b6111c7565b005b3480156107b457600080fd5b506107bd6112bf565b6040516107ca919061201c565b60405180910390f35b6107db61132f565b6107eb6107e6611331565b6113bd565b565b601260009054906101000a900473ffffffffffffffffffffffffffffffffffffffff1681565b60007f7965db0b000000000000000000000000000000000000000000000000000000007bffffffffffffffffffffffffffffffffffffffffffffffffffffffff1916827bffffffffffffffffffffffffffffffffffffffffffffffffffffffff191614806108865750610885826113e3565b5b9050919050565b600b60205281600052604060002081600881106108a957600080fd5b01600091509150505481565b600060016000838152602001908152602001600020600101549050919050565b60006108df61144d565b73ffffffffffffffffffffffffffffffffffffffff166108fd610f01565b73ffffffffffffffffffffffffffffffffffffffff1614610953576040517f08c379a000000000000000000000000000000000000000000000000000000000815260040161094a906120ea565b60405180910390fd5b60005b82518110156109b957610982838281518110610975576109746124f2565b5b60200260200101516109fe565b156109a65760016003600082825461099a91906122a3565b92505081905550600191505b80806109b19061244b565b915050610956565b50919050565b600f81815481106109cf57600080fd5b906000526020600020016000915054906101000a900473ffffffffffffffffffffffffffffffffffffffff1681565b6000610a0861144d565b73ffffffffffffffffffffffffffffffffffffffff16610a26610f01565b73ffffffffffffffffffffffffffffffffffffffff1614610a7c576040517f08c379a0000000000000000000000000000000000000000000000000000000008152600401610a73906120ea565b60405180910390fd5b600260008373ffffffffffffffffffffffffffffffffffffffff1673ffffffffffffffffffffffffffffffffffffffff16815260200190815260200160002060009054906101000a900460ff1615610b7c576000600260008473ffffffffffffffffffffffffffffffffffffffff1673ffffffffffffffffffffffffffffffffffffffff16815260200190815260200160002060006101000a81548160ff0219169083151502179055507ff1abf01a1043b7c244d128e8595cf0c1d10743b022b03a02dffd8ca3bf729f5a82604051610b55919061201c565b60405180910390a1600160036000828254610b7091906122a3565b92505081905550600190505b919050565b610b8a826108b5565b610b9b81610b9661144d565b611455565b610ba583836114f2565b505050565b610bb261144d565b73ffffffffffffffffffffffffffffffffffffffff168173ffffffffffffffffffffffffffffffffffffffff1614610c1f576040517f08c379a0000000000000000000000000000000000000000000000000000000008152600401610c169061212a565b60405180910390fd5b610c2982826115d2565b5050565b6000600354905090565b60075481565b610c4561144d565b73ffffffffffffffffffffffffffffffffffffffff16610c63610f01565b73ffffffffffffffffffffffffffffffffffffffff1614610cb9576040517f08c379a0000000000000000000000000000000000000000000000000000000008152600401610cb0906120ea565b60405180910390fd5b610cc360006116b4565b565b6000610ccf61144d565b73ffffffffffffffffffffffffffffffffffffffff16610ced610f01565b73ffffffffffffffffffffffffffffffffffffffff1614610d43576040517f08c379a0000000000000000000000000000000000000000000000000000000008152600401610d3a906120ea565b60405180910390fd5b600260008373ffffffffffffffffffffffffffffffffffffffff1673ffffffffffffffffffffffffffffffffffffffff16815260200190815260200160002060009054906101000a900460ff16610e42576001600260008473ffffffffffffffffffffffffffffffffffffffff1673ffffffffffffffffffffffffffffffffffffffff16815260200190815260200160002060006101000a81548160ff0219169083151502179055507fd1bba68c128cc3f427e5831b3c6f99f480b6efa6b9e80c757768f6124158cc3f82604051610e1b919061201c565b60405180910390a1600160036000828254610e3691906121f3565b92505081905550600190505b919050565b60065481565b60058054610e5a906123e8565b80601f0160208091040260200160405190810160405280929190818152602001828054610e86906123e8565b8015610ed35780601f10610ea857610100808354040283529160200191610ed3565b820191906000526020600020905b815481529060010190602001808311610eb657829003601f168201915b505050505081565b601460009054906101000a900473ffffffffffffffffffffffffffffffffffffffff1681565b60008060009054906101000a900473ffffffffffffffffffffffffffffffffffffffff16905090565b600e6020528060005260406000206000915054906101000a900460ff1681565b60006001600084815260200190815260200160002060000160008373ffffffffffffffffffffffffffffffffffffffff1673ffffffffffffffffffffffffffffffffffffffff16815260200190815260200160002060009054906101000a900460ff16905092915050565b601160009054906101000a900473ffffffffffffffffffffffffffffffffffffffff1681565b60026020528060005260406000206000915054906101000a900460ff1681565b6000801b81565b600d602052816000526040600020818154811061101e57600080fd5b90600052602060002001600091509150505481565b61103c826108b5565b61104d8161104861144d565b611455565b61105783836115d2565b505050565b600460009054906101000a900460ff1681565b600061107961144d565b73ffffffffffffffffffffffffffffffffffffffff16611097610f01565b73ffffffffffffffffffffffffffffffffffffffff16146110ed576040517f08c379a00000000000000000000000000000000000000000000000000000000081526004016110e4906120ea565b60405180910390fd5b60005b82518110156111535761111c83828151811061110f5761110e6124f2565b5b6020026020010151610cc5565b156111405760016003600082825461113491906121f3565b92505081905550600191505b808061114b9061244b565b9150506110f0565b50919050565b6000600260008373ffffffffffffffffffffffffffffffffffffffff1673ffffffffffffffffffffffffffffffffffffffff16815260200190815260200160002060009054906101000a900460ff169050919050565b600a6020528060005260406000206000915090505481565b6111cf61144d565b73ffffffffffffffffffffffffffffffffffffffff166111ed610f01565b73ffffffffffffffffffffffffffffffffffffffff1614611243576040517f08c379a000000000000000000000000000000000000000000000000000000000815260040161123a906120ea565b60405180910390fd5b600073ffffffffffffffffffffffffffffffffffffffff168173ffffffffffffffffffffffffffffffffffffffff1614156112b3576040517f08c379a00000000000000000000000000000000000000000000000000000000081526004016112aa906120ca565b60405180910390fd5b6112bc816116b4565b50565b600860009054906101000a900473ffffffffffffffffffffffffffffffffffffffff1681565b606061130a838360405180606001604052806027815260200161276360279139611778565b905092915050565b600080823b905060008111915050919050565b6000819050919050565b565b600061133b611845565b73ffffffffffffffffffffffffffffffffffffffff16635c60da1b6040518163ffffffff1660e01b815260040160206040518083038186803b15801561138057600080fd5b505afa158015611394573d6000803e3d6000fd5b505050506040513d601f19601f820116820180604052508101906113b89190611c73565b905090565b3660008037600080366000845af43d6000803e80600081146113de573d6000f35b3d6000fd5b60007f01ffc9a7000000000000000000000000000000000000000000000000000000007bffffffffffffffffffffffffffffffffffffffffffffffffffffffff1916827bffffffffffffffffffffffffffffffffffffffffffffffffffffffff1916149050919050565b600033905090565b61145f8282610f4a565b6114ee576114848173ffffffffffffffffffffffffffffffffffffffff16601461189c565b6114928360001c602061189c565b6040516020016114a3929190611fe2565b6040516020818303038152906040526040517f08c379a00000000000000000000000000000000000000000000000000000000081526004016114e59190612088565b60405180910390fd5b5050565b6114fc8282610f4a565b6115ce57600180600084815260200190815260200160002060000160008373ffffffffffffffffffffffffffffffffffffffff1673ffffffffffffffffffffffffffffffffffffffff16815260200190815260200160002060006101000a81548160ff02191690831515021790555061157361144d565b73ffffffffffffffffffffffffffffffffffffffff168173ffffffffffffffffffffffffffffffffffffffff16837f2f8788117e7eff1d82e926ec794901d17c78024a50270940304540a733656f0d60405160405180910390a45b5050565b6115dc8282610f4a565b156116b05760006001600084815260200190815260200160002060000160008373ffffffffffffffffffffffffffffffffffffffff1673ffffffffffffffffffffffffffffffffffffffff16815260200190815260200160002060006101000a81548160ff02191690831515021790555061165561144d565b73ffffffffffffffffffffffffffffffffffffffff168173ffffffffffffffffffffffffffffffffffffffff16837ff6391f5c32d9c69d2a47ea670b442974b53935d1edc7fd64eb21e047a839171b60405160405180910390a45b5050565b60008060009054906101000a900473ffffffffffffffffffffffffffffffffffffffff169050816000806101000a81548173ffffffffffffffffffffffffffffffffffffffff021916908373ffffffffffffffffffffffffffffffffffffffff1602179055508173ffffffffffffffffffffffffffffffffffffffff168173ffffffffffffffffffffffffffffffffffffffff167f8be0079c531659141344cd1fd0a4f28419497f9722a3daafe3b4186f6b6457e060405160405180910390a35050565b606061178384611312565b6117c2576040517f08c379a00000000000000000000000000000000000000000000000000000000081526004016117b99061210a565b60405180910390fd5b6000808573ffffffffffffffffffffffffffffffffffffffff16856040516117ea9190611fcb565b600060405180830381855af49150503d8060008114611825576040519150601f19603f3d011682016040523d82523d6000602084013e61182a565b606091505b509150915061183a828286611ad8565b925050509392505050565b60006118737fa3f0ad74e5423aebfd80d3ef4346578335a9a72aeaee59ff6cb3582b35133d5060001b611325565b60000160009054906101000a900473ffffffffffffffffffffffffffffffffffffffff16905090565b6060600060028360026118af9190612249565b6118b991906121f3565b67ffffffffffffffff8111156118d2576118d1612521565b5b6040519080825280601f01601f1916602001820160405280156119045781602001600182028036833780820191505090505b5090507f30000000000000000000000000000000000000000000000000000000000000008160008151811061193c5761193b6124f2565b5b60200101907effffffffffffffffffffffffffffffffffffffffffffffffffffffffffffff1916908160001a9053507f7800000000000000000000000000000000000000000000000000000000000000816001815181106119a05761199f6124f2565b5b60200101907effffffffffffffffffffffffffffffffffffffffffffffffffffffffffffff1916908160001a905350600060018460026119e09190612249565b6119ea91906121f3565b90505b6001811115611a8a577f3031323334353637383961626364656600000000000000000000000000000000600f861660108110611a2c57611a2b6124f2565b5b1a60f81b828281518110611a4357611a426124f2565b5b60200101907effffffffffffffffffffffffffffffffffffffffffffffffffffffffffffff1916908160001a905350600485901c945080611a83906123be565b90506119ed565b5060008414611ace576040517f08c379a0000000000000000000000000000000000000000000000000000000008152600401611ac5906120aa565b60405180910390fd5b8091505092915050565b60608315611ae857829050611b38565b600083511115611afb5782518084602001fd5b816040517f08c379a0000000000000000000000000000000000000000000000000000000008152600401611b2f9190612088565b60405180910390fd5b9392505050565b6000611b52611b4d8461218a565b612165565b90508083825260208201905082856020860282011115611b7557611b74612555565b5b60005b85811015611ba55781611b8b8882611baf565b845260208401935060208301925050600181019050611b78565b5050509392505050565b600081359050611bbe81612706565b92915050565b600081519050611bd381612706565b92915050565b600082601f830112611bee57611bed612550565b5b8135611bfe848260208601611b3f565b91505092915050565b600081359050611c168161271d565b92915050565b600081359050611c2b81612734565b92915050565b600081359050611c408161274b565b92915050565b600060208284031215611c5c57611c5b61255f565b5b6000611c6a84828501611baf565b91505092915050565b600060208284031215611c8957611c8861255f565b5b6000611c9784828501611bc4565b91505092915050565b60008060408385031215611cb757611cb661255f565b5b6000611cc585828601611baf565b9250506020611cd685828601611c31565b9150509250929050565b600060208284031215611cf657611cf561255f565b5b600082013567ffffffffffffffff811115611d1457611d1361255a565b5b611d2084828501611bd9565b91505092915050565b600060208284031215611d3f57611d3e61255f565b5b6000611d4d84828501611c07565b91505092915050565b60008060408385031215611d6d57611d6c61255f565b5b6000611d7b85828601611c07565b9250506020611d8c85828601611baf565b9150509250929050565b600060208284031215611dac57611dab61255f565b5b6000611dba84828501611c1c565b91505092915050565b600060208284031215611dd957611dd861255f565b5b6000611de784828501611c31565b91505092915050565b611df9816122d7565b82525050565b611e08816122e9565b82525050565b611e17816122f5565b82525050565b6000611e28826121b6565b611e3281856121cc565b9350611e4281856020860161238b565b80840191505092915050565b611e5781612355565b82525050565b6000611e68826121c1565b611e7281856121d7565b9350611e8281856020860161238b565b611e8b81612564565b840191505092915050565b6000611ea1826121c1565b611eab81856121e8565b9350611ebb81856020860161238b565b80840191505092915050565b6000611ed46020836121d7565b9150611edf82612575565b602082019050919050565b6000611ef76026836121d7565b9150611f028261259e565b604082019050919050565b6000611f1a6020836121d7565b9150611f25826125ed565b602082019050919050565b6000611f3d6026836121d7565b9150611f4882612616565b604082019050919050565b6000611f606017836121e8565b9150611f6b82612665565b601782019050919050565b6000611f836011836121e8565b9150611f8e8261268e565b601182019050919050565b6000611fa6602f836121d7565b9150611fb1826126b7565b604082019050919050565b611fc58161234b565b82525050565b6000611fd78284611e1d565b915081905092915050565b6000611fed82611f53565b9150611ff98285611e96565b915061200482611f76565b91506120108284611e96565b91508190509392505050565b60006020820190506120316000830184611df0565b92915050565b600060208201905061204c6000830184611dff565b92915050565b60006020820190506120676000830184611e0e565b92915050565b60006020820190506120826000830184611e4e565b92915050565b600060208201905081810360008301526120a28184611e5d565b905092915050565b600060208201905081810360008301526120c381611ec7565b9050919050565b600060208201905081810360008301526120e381611eea565b9050919050565b6000602082019050818103600083015261210381611f0d565b9050919050565b6000602082019050818103600083015261212381611f30565b9050919050565b6000602082019050818103600083015261214381611f99565b9050919050565b600060208201905061215f6000830184611fbc565b92915050565b600061216f612180565b905061217b828261241a565b919050565b6000604051905090565b600067ffffffffffffffff8211156121a5576121a4612521565b5b602082029050602081019050919050565b600081519050919050565b600081519050919050565b600081905092915050565b600082825260208201905092915050565b600081905092915050565b60006121fe8261234b565b91506122098361234b565b9250827fffffffffffffffffffffffffffffffffffffffffffffffffffffffffffffffff0382111561223e5761223d612494565b5b828201905092915050565b60006122548261234b565b915061225f8361234b565b9250817fffffffffffffffffffffffffffffffffffffffffffffffffffffffffffffffff048311821515161561229857612297612494565b5b828202905092915050565b60006122ae8261234b565b91506122b98361234b565b9250828210156122cc576122cb612494565b5b828203905092915050565b60006122e28261232b565b9050919050565b60008115159050919050565b6000819050919050565b60007fffffffff0000000000000000000000000000000000000000000000000000000082169050919050565b600073ffffffffffffffffffffffffffffffffffffffff82169050919050565b6000819050919050565b600061236082612367565b9050919050565b600061237282612379565b9050919050565b60006123848261232b565b9050919050565b60005b838110156123a957808201518184015260208101905061238e565b838111156123b8576000848401525b50505050565b60006123c98261234b565b915060008214156123dd576123dc612494565b5b600182039050919050565b6000600282049050600182168061240057607f821691505b60208210811415612414576124136124c3565b5b50919050565b61242382612564565b810181811067ffffffffffffffff8211171561244257612441612521565b5b80604052505050565b60006124568261234b565b91507fffffffffffffffffffffffffffffffffffffffffffffffffffffffffffffffff82141561248957612488612494565b5b600182019050919050565b7f4e487b7100000000000000000000000000000000000000000000000000000000600052601160045260246000fd5b7f4e487b7100000000000000000000000000000000000000000000000000000000600052602260045260246000fd5b7f4e487b7100000000000000000000000000000000000000000000000000000000600052603260045260246000fd5b7f4e487b7100000000000000000000000000000000000000000000000000000000600052604160045260246000fd5b600080fd5b600080fd5b600080fd5b600080fd5b6000601f19601f8301169050919050565b7f537472696e67733a20686578206c656e67746820696e73756666696369656e74600082015250565b7f4f776e61626c653a206e6577206f776e657220697320746865207a65726f206160008201527f6464726573730000000000000000000000000000000000000000000000000000602082015250565b7f4f776e61626c653a2063616c6c6572206973206e6f7420746865206f776e6572600082015250565b7f416464726573733a2064656c65676174652063616c6c20746f206e6f6e2d636f60008201527f6e74726163740000000000000000000000000000000000000000000000000000602082015250565b7f416363657373436f6e74726f6c3a206163636f756e7420000000000000000000600082015250565b7f206973206d697373696e6720726f6c6520000000000000000000000000000000600082015250565b7f416363657373436f6e74726f6c3a2063616e206f6e6c792072656e6f756e636560008201527f20726f6c657320666f722073656c660000000000000000000000000000000000602082015250565b61270f816122d7565b811461271a57600080fd5b50565b612726816122f5565b811461273157600080fd5b50565b61273d816122ff565b811461274857600080fd5b50565b6127548161234b565b811461275f57600080fd5b5056fe416464726573733a206c6f772d6c6576656c2064656c65676174652063616c6c206661696c6564a26469706673582212200e5628849141d0ebbb629f6c28ea515b703c0636e4640d4b490bfa303d883b6e64736f6c63430008070033416464726573733a206c6f772d6c6576656c2064656c65676174652063616c6c206661696c656473657474696e67206c6561677565207363686564756c6520696e206c65616775656d616b6572a26469706673582212206373579d444f0a8e6e3c8a7036c7f2860bf7376e42ab2a423ee97d6da6f1c6c764736f6c63430008070033608060405234801561001057600080fd5b5060405162000a9138038062000a91833981810160405281019061003491906101ef565b61005061004561006560201b60201c565b61006d60201b60201c565b61005f8161013160201b60201c565b5061030d565b600033905090565b60008060009054906101000a900473ffffffffffffffffffffffffffffffffffffffff169050816000806101000a81548173ffffffffffffffffffffffffffffffffffffffff021916908373ffffffffffffffffffffffffffffffffffffffff1602179055508173ffffffffffffffffffffffffffffffffffffffff168173ffffffffffffffffffffffffffffffffffffffff167f8be0079c531659141344cd1fd0a4f28419497f9722a3daafe3b4186f6b6457e060405160405180910390a35050565b610144816101c760201b6103781760201c565b610183576040517f08c379a000000000000000000000000000000000000000000000000000000000815260040161017a9061023f565b60405180910390fd5b80600160006101000a81548173ffffffffffffffffffffffffffffffffffffffff021916908373ffffffffffffffffffffffffffffffffffffffff16021790555050565b600080823b905060008111915050919050565b6000815190506101e9816102f6565b92915050565b600060208284031215610205576102046102a2565b5b6000610213848285016101da565b91505092915050565b600061022960338361025f565b9150610234826102a7565b604082019050919050565b600060208201905081810360008301526102588161021c565b9050919050565b600082825260208201905092915050565b600061027b82610282565b9050919050565b600073ffffffffffffffffffffffffffffffffffffffff82169050919050565b600080fd5b7f5570677261646561626c65426561636f6e3a20696d706c656d656e746174696f60008201527f6e206973206e6f74206120636f6e747261637400000000000000000000000000602082015250565b6102ff81610270565b811461030a57600080fd5b50565b610774806200031d6000396000f3fe608060405234801561001057600080fd5b50600436106100575760003560e01c80633659cfe61461005c5780635c60da1b14610078578063715018a6146100965780638da5cb5b146100a0578063f2fde38b146100be575b600080fd5b610076600480360381019061007191906104f8565b6100da565b005b6100806101a5565b60405161008d919061059d565b60405180910390f35b61009e6101cf565b005b6100a8610257565b6040516100b5919061059d565b60405180910390f35b6100d860048036038101906100d391906104f8565b610280565b005b6100e261038b565b73ffffffffffffffffffffffffffffffffffffffff16610100610257565b73ffffffffffffffffffffffffffffffffffffffff1614610156576040517f08c379a000000000000000000000000000000000000000000000000000000000815260040161014d906105f8565b60405180910390fd5b61015f81610393565b8073ffffffffffffffffffffffffffffffffffffffff167fbc7cd75a20ee27fd9adebab32041f755214dbc6bffa90cc0225b39da2e5c2d3b60405160405180910390a250565b6000600160009054906101000a900473ffffffffffffffffffffffffffffffffffffffff16905090565b6101d761038b565b73ffffffffffffffffffffffffffffffffffffffff166101f5610257565b73ffffffffffffffffffffffffffffffffffffffff161461024b576040517f08c379a0000000000000000000000000000000000000000000000000000000008152600401610242906105f8565b60405180910390fd5b610255600061041f565b565b60008060009054906101000a900473ffffffffffffffffffffffffffffffffffffffff16905090565b61028861038b565b73ffffffffffffffffffffffffffffffffffffffff166102a6610257565b73ffffffffffffffffffffffffffffffffffffffff16146102fc576040517f08c379a00000000000000000000000000000000000000000000000000000000081526004016102f3906105f8565b60405180910390fd5b600073ffffffffffffffffffffffffffffffffffffffff168173ffffffffffffffffffffffffffffffffffffffff16141561036c576040517f08c379a0000000000000000000000000000000000000000000000000000000008152600401610363906105b8565b60405180910390fd5b6103758161041f565b50565b600080823b905060008111915050919050565b600033905090565b61039c81610378565b6103db576040517f08c379a00000000000000000000000000000000000000000000000000000000081526004016103d2906105d8565b60405180910390fd5b80600160006101000a81548173ffffffffffffffffffffffffffffffffffffffff021916908373ffffffffffffffffffffffffffffffffffffffff16021790555050565b60008060009054906101000a900473ffffffffffffffffffffffffffffffffffffffff169050816000806101000a81548173ffffffffffffffffffffffffffffffffffffffff021916908373ffffffffffffffffffffffffffffffffffffffff1602179055508173ffffffffffffffffffffffffffffffffffffffff168173ffffffffffffffffffffffffffffffffffffffff167f8be0079c531659141344cd1fd0a4f28419497f9722a3daafe3b4186f6b6457e060405160405180910390a35050565b6000813590506104f281610727565b92915050565b60006020828403121561050e5761050d61065b565b5b600061051c848285016104e3565b91505092915050565b61052e81610629565b82525050565b6000610541602683610618565b915061054c82610660565b604082019050919050565b6000610564603383610618565b915061056f826106af565b604082019050919050565b6000610587602083610618565b9150610592826106fe565b602082019050919050565b60006020820190506105b26000830184610525565b92915050565b600060208201905081810360008301526105d181610534565b9050919050565b600060208201905081810360008301526105f181610557565b9050919050565b600060208201905081810360008301526106118161057a565b9050919050565b600082825260208201905092915050565b60006106348261063b565b9050919050565b600073ffffffffffffffffffffffffffffffffffffffff82169050919050565b600080fd5b7f4f776e61626c653a206e6577206f776e657220697320746865207a65726f206160008201527f6464726573730000000000000000000000000000000000000000000000000000602082015250565b7f5570677261646561626c65426561636f6e3a20696d706c656d656e746174696f60008201527f6e206973206e6f74206120636f6e747261637400000000000000000000000000602082015250565b7f4f776e61626c653a2063616c6c6572206973206e6f7420746865206f776e6572600082015250565b61073081610629565b811461073b57600080fd5b5056fea2646970667358221220f14c1e123fc6650c2510ce92a5938ce8dbd619e20ec5ceb7ad4526f9ccdb6aca64736f6c63430008070033",
  "linkReferences": {
    "contracts/LeagueMakerLibrary.sol": {
      "LeagueMakerLibrary": [
        {
          "length": 20,
          "start": 1919
        },
        {
          "length": 20,
          "start": 2640
        },
        {
          "length": 20,
          "start": 3439
        },
        {
          "length": 20,
          "start": 4207
        },
        {
          "length": 20,
          "start": 5340
        }
      ]
    }
  },
  "deployedLinkReferences": {
    "contracts/LeagueMakerLibrary.sol": {
      "LeagueMakerLibrary": [
        {
          "length": 20,
          "start": 1076
        },
        {
          "length": 20,
          "start": 1797
        },
        {
          "length": 20,
          "start": 2596
        },
        {
          "length": 20,
          "start": 3364
        },
        {
          "length": 20,
          "start": 4497
        }
      ]
    }
  }
}