{
  "_format": "hh-sol-artifact-1",
  "contractName": "LeagueMaker",
  "sourceName": "contracts/LeagueMaker.sol",
  "abi": [
    {
      "inputs": [
        {
          "internalType": "address",
          "name": "_logic",
          "type": "address"
        }
      ],
      "stateMutability": "nonpayable",
      "type": "constructor"
    },
    {
      "anonymous": false,
      "inputs": [
        {
          "indexed": false,
          "internalType": "string",
          "name": "name",
          "type": "string"
        },
        {
          "indexed": false,
          "internalType": "address",
          "name": "a",
          "type": "address"
        }
      ],
      "name": "LeagueCreated",
      "type": "event"
    },
    {
      "anonymous": false,
      "inputs": [
        {
          "indexed": false,
          "internalType": "bool",
          "name": "success",
          "type": "bool"
        },
        {
          "indexed": false,
          "internalType": "bytes",
          "name": "data",
          "type": "bytes"
        }
      ],
      "name": "Response",
      "type": "event"
    },
    {
      "anonymous": false,
      "inputs": [
        {
          "indexed": false,
          "internalType": "address",
          "name": "clone",
          "type": "address"
        }
      ],
      "name": "cloneCreated",
      "type": "event"
    },
    {
      "inputs": [
        {
          "internalType": "address[]",
          "name": "addresses",
          "type": "address[]"
        },
        {
          "internalType": "address",
          "name": "_addr",
          "type": "address"
        }
      ],
      "name": "addUsersToLeagueHelper",
      "outputs": [],
      "stateMutability": "nonpayable",
      "type": "function"
    },
    {
      "inputs": [
        {
          "internalType": "string",
          "name": "_name",
          "type": "string"
        },
        {
          "internalType": "uint256",
          "name": "_stakeAmount",
          "type": "uint256"
        }
      ],
      "name": "createLeague",
      "outputs": [
        {
          "internalType": "address",
          "name": "",
          "type": "address"
        }
      ],
      "stateMutability": "nonpayable",
      "type": "function"
    },
    {
      "inputs": [],
      "name": "getBeacon",
      "outputs": [
        {
          "internalType": "address",
          "name": "",
          "type": "address"
        }
      ],
      "stateMutability": "view",
      "type": "function"
    },
    {
      "inputs": [
        {
          "internalType": "uint256",
          "name": "",
          "type": "uint256"
        }
      ],
      "name": "leagueAddresses",
      "outputs": [
        {
          "internalType": "address",
          "name": "",
          "type": "address"
        }
      ],
      "stateMutability": "view",
      "type": "function"
    },
    {
      "inputs": [],
      "name": "parameters",
      "outputs": [
        {
          "internalType": "string",
          "name": "name",
          "type": "string"
        },
        {
          "internalType": "uint256",
          "name": "version",
          "type": "uint256"
        },
        {
          "internalType": "uint256",
          "name": "numWeeks",
          "type": "uint256"
        },
        {
          "internalType": "uint256",
          "name": "stakeAmount",
          "type": "uint256"
        },
        {
          "internalType": "address",
          "name": "athletesDataStorageAddress",
          "type": "address"
        },
        {
          "internalType": "address",
          "name": "owner",
          "type": "address"
        },
        {
          "internalType": "address",
          "name": "admin",
          "type": "address"
        },
        {
          "internalType": "address",
          "name": "polygonUSDCAddress",
          "type": "address"
        },
        {
          "internalType": "address",
          "name": "rinkebyUSDCAddress",
          "type": "address"
        }
      ],
      "stateMutability": "view",
      "type": "function"
    },
    {
      "inputs": [
        {
          "internalType": "address",
          "name": "logic",
          "type": "address"
        }
      ],
      "name": "setBeacon",
      "outputs": [
        {
          "internalType": "address",
          "name": "",
          "type": "address"
        }
      ],
      "stateMutability": "nonpayable",
      "type": "function"
    },
    {
      "inputs": [],
      "name": "setLeagueSchedules",
      "outputs": [],
      "stateMutability": "nonpayable",
      "type": "function"
    },
    {
      "inputs": [
        {
          "internalType": "address",
          "name": "_addr",
          "type": "address"
        }
      ],
      "name": "testCallDoesNotExist",
      "outputs": [],
      "stateMutability": "nonpayable",
      "type": "function"
    },
    {
      "inputs": [
        {
          "internalType": "address",
          "name": "user",
          "type": "address"
        }
      ],
      "name": "updateUserToLeagueMapping",
      "outputs": [],
      "stateMutability": "nonpayable",
      "type": "function"
    },
    {
      "inputs": [
        {
          "internalType": "address",
          "name": "",
          "type": "address"
        },
        {
          "internalType": "uint256",
          "name": "",
          "type": "uint256"
        }
      ],
      "name": "userToLeagueMap",
      "outputs": [
        {
          "internalType": "address",
          "name": "",
          "type": "address"
        }
      ],
      "stateMutability": "view",
      "type": "function"
    }
  ],
  "bytecode": "0x60c06040526001600c556008600d55732791bca1f2de4661ed88a30c99a7a9449aa84174600e60006101000a81548173ffffffffffffffffffffffffffffffffffffffff021916908373ffffffffffffffffffffffffffffffffffffffff16021790555073eb8f08a975ab53e34d8a0330e0d34de942c95926600f60006101000a81548173ffffffffffffffffffffffffffffffffffffffff021916908373ffffffffffffffffffffffffffffffffffffffff160217905550348015620000c557600080fd5b5060405162006885380380620068858339818101604052810190620000eb9190620001f6565b80604051620000fa90620001c3565b62000106919062000239565b604051809103906000f08015801562000123573d6000803e3d6000fd5b5073ffffffffffffffffffffffffffffffffffffffff1660808173ffffffffffffffffffffffffffffffffffffffff1660601b815250506040516200016890620001d1565b604051809103906000f08015801562000185573d6000803e3d6000fd5b5073ffffffffffffffffffffffffffffffffffffffff1660a08173ffffffffffffffffffffffffffffffffffffffff1660601b8152505050620002a9565b610a918062004ddf83390190565b611015806200587083390190565b600081519050620001f0816200028f565b92915050565b6000602082840312156200020f576200020e6200028a565b5b60006200021f84828501620001df565b91505092915050565b620002338162000256565b82525050565b600060208201905062000250600083018462000228565b92915050565b600062000263826200026a565b9050919050565b600073ffffffffffffffffffffffffffffffffffffffff82169050919050565b600080fd5b6200029a8162000256565b8114620002a657600080fd5b50565b60805160601c60a05160601c614b03620002dc60003960006108530152600081816102850152610c5a0152614b036000f3fe60806040523480156200001157600080fd5b5060043610620000ac5760003560e01c8063a945320f116200006f578063a945320f1462000173578063c1d5746d146200017f578063c3530ff414620001b5578063d42afb5614620001eb578063ff00726c146200022157620000ac565b806329ffe5e914620000b15780632d6b3a6b14620000e757806374663deb1462000109578063771bd4ce1462000129578063890357301462000149575b600080fd5b620000cf6004803603810190620000c99190620013f6565b62000241565b604051620000de9190620015b9565b60405180910390f35b620000f162000281565b604051620001009190620015b9565b60405180910390f35b62000127600480360381019062000121919062001326565b620002a9565b005b620001476004803603810190620001419190620012ad565b62000432565b005b62000153620004d5565b6040516200016a999897969594939291906200163e565b60405180910390f35b6200017d62000641565b005b6200019d60048036038101906200019791906200138c565b620007e3565b604051620001ac9190620015b9565b60405180910390f35b620001d36004803603810190620001cd9190620012df565b62000e55565b604051620001e29190620015b9565b60405180910390f35b620002096004803603810190620002039190620012ad565b62000ea4565b604051620002189190620015b9565b60405180910390f35b6200023f6004803603810190620002399190620012ad565b62000f2b565b005b600181815481106200025257600080fd5b906000526020600020016000915054906101000a900473ffffffffffffffffffffffffffffffffffffffff1681565b60007f0000000000000000000000000000000000000000000000000000000000000000905090565b6000606060005b8451811015620003f0578373ffffffffffffffffffffffffffffffffffffffff16858281518110620002e757620002e662001a17565b5b6020026020010151604051602401620003019190620015b9565b6040516020818303038152906040527f087e18a7000000000000000000000000000000000000000000000000000000007bffffffffffffffffffffffffffffffffffffffffffffffffffffffff19166020820180517bffffffffffffffffffffffffffffffffffffffffffffffffffffffff83818316178352505050506040516200038d9190620015a0565b6000604051808303816000865af19150503d8060008114620003cc576040519150601f19603f3d011682016040523d82523d6000602084013e620003d1565b606091505b5080935081945050508080620003e7906200196b565b915050620002b0565b507f13848c3e38f8886f3f5d2ad9dff80d8092c2bbb8efd5b887a99c2c6cfc09ac2a8282604051620004249291906200160a565b60405180910390a150505050565b600260008273ffffffffffffffffffffffffffffffffffffffff1673ffffffffffffffffffffffffffffffffffffffff168152602001908152602001600020339080600181540180825580915050600190039060005260206000200160009091909190916101000a81548173ffffffffffffffffffffffffffffffffffffffff021916908373ffffffffffffffffffffffffffffffffffffffff16021790555050565b6003806000018054620004e890620018ff565b80601f01602080910402602001604051908101604052809291908181526020018280546200051690620018ff565b8015620005675780601f106200053b5761010080835404028352916020019162000567565b820191906000526020600020905b8154815290600101906020018083116200054957829003601f168201915b5050505050908060010154908060020154908060030154908060040160009054906101000a900473ffffffffffffffffffffffffffffffffffffffff16908060050160009054906101000a900473ffffffffffffffffffffffffffffffffffffffff16908060060160009054906101000a900473ffffffffffffffffffffffffffffffffffffffff16908060070160009054906101000a900473ffffffffffffffffffffffffffffffffffffffff16908060080160009054906101000a900473ffffffffffffffffffffffffffffffffffffffff16905089565b6000606060005b600180549050811015620007a357600181815481106200066d576200066c62001a17565b5b9060005260206000200160009054906101000a900473ffffffffffffffffffffffffffffffffffffffff1673ffffffffffffffffffffffffffffffffffffffff166040516024016040516020818303038152906040527f0655465a000000000000000000000000000000000000000000000000000000007bffffffffffffffffffffffffffffffffffffffffffffffffffffffff19166020820180517bffffffffffffffffffffffffffffffffffffffffffffffffffffffff8381831617835250505050604051620007409190620015a0565b6000604051808303816000865af19150503d80600081146200077f576040519150601f19603f3d011682016040523d82523d6000602084013e62000784565b606091505b50809350819450505080806200079a906200196b565b91505062000648565b507f13848c3e38f8886f3f5d2ad9dff80d8092c2bbb8efd5b887a99c2c6cfc09ac2a8282604051620007d79291906200160a565b60405180910390a15050565b600060405180610120016040528085858080601f016020809104026020016040519081016040528093929190818152602001838380828437600081840152601f19601f820116905080830192505050505050508152602001600c548152602001600d5481526020018381526020017f000000000000000000000000000000000000000000000000000000000000000073ffffffffffffffffffffffffffffffffffffffff1681526020013073ffffffffffffffffffffffffffffffffffffffff1681526020013373ffffffffffffffffffffffffffffffffffffffff168152602001600e60009054906101000a900473ffffffffffffffffffffffffffffffffffffffff1673ffffffffffffffffffffffffffffffffffffffff168152602001600f60009054906101000a900473ffffffffffffffffffffffffffffffffffffffff1673ffffffffffffffffffffffffffffffffffffffff16815250600360008201518160000190805190602001906200095f92919062001060565b5060208201518160010155604082015181600201556060820151816003015560808201518160040160006101000a81548173ffffffffffffffffffffffffffffffffffffffff021916908373ffffffffffffffffffffffffffffffffffffffff16021790555060a08201518160050160006101000a81548173ffffffffffffffffffffffffffffffffffffffff021916908373ffffffffffffffffffffffffffffffffffffffff16021790555060c08201518160060160006101000a81548173ffffffffffffffffffffffffffffffffffffffff021916908373ffffffffffffffffffffffffffffffffffffffff16021790555060e08201518160070160006101000a81548173ffffffffffffffffffffffffffffffffffffffff021916908373ffffffffffffffffffffffffffffffffffffffff1602179055506101008201518160080160006101000a81548173ffffffffffffffffffffffffffffffffffffffff021916908373ffffffffffffffffffffffffffffffffffffffff160217905550905050600060036000016003600101546003600201546003800154600360040160009054906101000a900473ffffffffffffffffffffffffffffffffffffffff16600360050160009054906101000a900473ffffffffffffffffffffffffffffffffffffffff16600360060160009054906101000a900473ffffffffffffffffffffffffffffffffffffffff16600360070160009054906101000a900473ffffffffffffffffffffffffffffffffffffffff16600360080160009054906101000a900473ffffffffffffffffffffffffffffffffffffffff163060405160240162000bd79a9998979695949392919062001718565b6040516020818303038152906040527fbb1a0461000000000000000000000000000000000000000000000000000000007bffffffffffffffffffffffffffffffffffffffffffffffffffffffff19166020820180517bffffffffffffffffffffffffffffffffffffffffffffffffffffffff8381831617835250505050905060007f00000000000000000000000000000000000000000000000000000000000000008260405162000c8890620010f1565b62000c95929190620015d6565b604051809103906000f08015801562000cb2573d6000803e3d6000fd5b5090506001819080600181540180825580915050600190039060005260206000200160009091909190916101000a81548173ffffffffffffffffffffffffffffffffffffffff021916908373ffffffffffffffffffffffffffffffffffffffff1602179055507f6f41e080f0ba3b200797d7e512fbca5fa5d4b72f7d8fb62d6fb40997ea96798060036000018260405162000d4f929190620016e4565b60405180910390a160036000808201600062000d6c9190620010ff565b6001820160009055600282016000905560038201600090556004820160006101000a81549073ffffffffffffffffffffffffffffffffffffffff02191690556005820160006101000a81549073ffffffffffffffffffffffffffffffffffffffff02191690556006820160006101000a81549073ffffffffffffffffffffffffffffffffffffffff02191690556007820160006101000a81549073ffffffffffffffffffffffffffffffffffffffff02191690556008820160006101000a81549073ffffffffffffffffffffffffffffffffffffffff0219169055505080925050509392505050565b6002602052816000526040600020818154811062000e7257600080fd5b906000526020600020016000915091509054906101000a900473ffffffffffffffffffffffffffffffffffffffff1681565b6000808260405162000eb69062001145565b62000ec29190620015b9565b604051809103906000f08015801562000edf573d6000803e3d6000fd5b509050806000806101000a81548173ffffffffffffffffffffffffffffffffffffffff021916908373ffffffffffffffffffffffffffffffffffffffff16021790555080915050919050565b6000808273ffffffffffffffffffffffffffffffffffffffff166040516024016040516020818303038152906040527f2cf0a1fc000000000000000000000000000000000000000000000000000000007bffffffffffffffffffffffffffffffffffffffffffffffffffffffff19166020820180517bffffffffffffffffffffffffffffffffffffffffffffffffffffffff838183161783525050505060405162000fd79190620015a0565b6000604051808303816000865af19150503d806000811462001016576040519150601f19603f3d011682016040523d82523d6000602084013e6200101b565b606091505b50915091507f13848c3e38f8886f3f5d2ad9dff80d8092c2bbb8efd5b887a99c2c6cfc09ac2a8282604051620010539291906200160a565b60405180910390a1505050565b8280546200106e90620018ff565b90600052602060002090601f016020900481019282620010925760008555620010de565b82601f10620010ad57805160ff1916838001178555620010de565b82800160010185558215620010de579182015b82811115620010dd578251825591602001919060010190620010c0565b5b509050620010ed919062001153565b5090565b6125698062001ad483390190565b5080546200110d90620018ff565b6000825580601f1062001121575062001142565b601f01602090049060005260206000209081019062001141919062001153565b5b50565b610a91806200403d83390190565b5b808211156200116e57600081600090555060010162001154565b5090565b6000620011896200118384620017f8565b620017cf565b90508083825260208201905082856020860282011115620011af57620011ae62001a7f565b5b60005b85811015620011e35781620011c88882620011ed565b845260208401935060208301925050600181019050620011b2565b5050509392505050565b600081359050620011fe8162001a9f565b92915050565b600082601f8301126200121c576200121b62001a7a565b5b81356200122e84826020860162001172565b91505092915050565b60008083601f84011262001250576200124f62001a7a565b5b8235905067ffffffffffffffff81111562001270576200126f62001a75565b5b6020830191508360018202830111156200128f576200128e62001a7f565b5b9250929050565b600081359050620012a78162001ab9565b92915050565b600060208284031215620012c657620012c562001a89565b5b6000620012d684828501620011ed565b91505092915050565b60008060408385031215620012f957620012f862001a89565b5b60006200130985828601620011ed565b92505060206200131c8582860162001296565b9150509250929050565b6000806040838503121562001340576200133f62001a89565b5b600083013567ffffffffffffffff81111562001361576200136062001a84565b5b6200136f8582860162001204565b92505060206200138285828601620011ed565b9150509250929050565b600080600060408486031215620013a857620013a762001a89565b5b600084013567ffffffffffffffff811115620013c957620013c862001a84565b5b620013d78682870162001237565b93509350506020620013ec8682870162001296565b9150509250925092565b6000602082840312156200140f576200140e62001a89565b5b60006200141f8482850162001296565b91505092915050565b62001433816200187f565b82525050565b620014448162001893565b82525050565b600062001457826200183c565b62001463818562001852565b935062001475818560208601620018c9565b620014808162001a8e565b840191505092915050565b600062001498826200183c565b620014a4818562001863565b9350620014b6818560208601620018c9565b80840191505092915050565b6000620014cf8262001847565b620014db81856200186e565b9350620014ed818560208601620018c9565b620014f88162001a8e565b840191505092915050565b600081546200151281620018ff565b6200151e81866200186e565b945060018216600081146200153c57600181146200154f5762001586565b60ff198316865260208601935062001586565b6200155a8562001827565b60005b838110156200157e578154818901526001820191506020810190506200155d565b808801955050505b50505092915050565b6200159a81620018bf565b82525050565b6000620015ae82846200148b565b915081905092915050565b6000602082019050620015d0600083018462001428565b92915050565b6000604082019050620015ed600083018562001428565b81810360208301526200160181846200144a565b90509392505050565b600060408201905062001621600083018562001439565b81810360208301526200163581846200144a565b90509392505050565b60006101208201905081810360008301526200165b818c620014c2565b90506200166c602083018b6200158f565b6200167b604083018a6200158f565b6200168a60608301896200158f565b62001699608083018862001428565b620016a860a083018762001428565b620016b760c083018662001428565b620016c660e083018562001428565b620016d661010083018462001428565b9a9950505050505050505050565b6000604082019050818103600083015262001700818562001503565b905062001711602083018462001428565b9392505050565b600061014082019050818103600083015262001735818d62001503565b905062001746602083018c6200158f565b62001755604083018b6200158f565b62001764606083018a6200158f565b62001773608083018962001428565b6200178260a083018862001428565b6200179160c083018762001428565b620017a060e083018662001428565b620017b061010083018562001428565b620017c061012083018462001428565b9b9a5050505050505050505050565b6000620017db620017ee565b9050620017e9828262001935565b919050565b6000604051905090565b600067ffffffffffffffff82111562001816576200181562001a46565b5b602082029050602081019050919050565b60008190508160005260206000209050919050565b600081519050919050565b600081519050919050565b600082825260208201905092915050565b600081905092915050565b600082825260208201905092915050565b60006200188c826200189f565b9050919050565b60008115159050919050565b600073ffffffffffffffffffffffffffffffffffffffff82169050919050565b6000819050919050565b60005b83811015620018e9578082015181840152602081019050620018cc565b83811115620018f9576000848401525b50505050565b600060028204905060018216806200191857607f821691505b602082108114156200192f576200192e620019e8565b5b50919050565b620019408262001a8e565b810181811067ffffffffffffffff8211171562001962576200196162001a46565b5b80604052505050565b60006200197882620018bf565b91507fffffffffffffffffffffffffffffffffffffffffffffffffffffffffffffffff821415620019ae57620019ad620019b9565b5b600182019050919050565b7f4e487b7100000000000000000000000000000000000000000000000000000000600052601160045260246000fd5b7f4e487b7100000000000000000000000000000000000000000000000000000000600052602260045260246000fd5b7f4e487b7100000000000000000000000000000000000000000000000000000000600052603260045260246000fd5b7f4e487b7100000000000000000000000000000000000000000000000000000000600052604160045260246000fd5b600080fd5b600080fd5b600080fd5b600080fd5b600080fd5b6000601f19601f8301169050919050565b62001aaa816200187f565b811462001ab657600080fd5b50565b62001ac481620018bf565b811462001ad057600080fd5b5056fe608060405260405162002569380380620025698339818101604052810190620000299190620006bb565b620000496200003d620000cf60201b60201c565b620000d760201b60201c565b60017fa3f0ad74e5423aebfd80d3ef4346578335a9a72aeaee59ff6cb3582b35133d5160001c6200007b919062000942565b60001b7fa3f0ad74e5423aebfd80d3ef4346578335a9a72aeaee59ff6cb3582b35133d5060001b14620000b357620000b262000a27565b5b620000c7828260006200019b60201b60201c565b505062000be0565b600033905090565b60008060009054906101000a900473ffffffffffffffffffffffffffffffffffffffff169050816000806101000a81548173ffffffffffffffffffffffffffffffffffffffff021916908373ffffffffffffffffffffffffffffffffffffffff1602179055508173ffffffffffffffffffffffffffffffffffffffff168173ffffffffffffffffffffffffffffffffffffffff167f8be0079c531659141344cd1fd0a4f28419497f9722a3daafe3b4186f6b6457e060405160405180910390a35050565b620001ac83620002a260201b60201c565b8273ffffffffffffffffffffffffffffffffffffffff167f1cf3b03a6cf19fa2baba4df148e9dcabedea7f8a5c07840e207e5c089be95d3e60405160405180910390a2600082511180620001fd5750805b156200029d576200029b8373ffffffffffffffffffffffffffffffffffffffff16635c60da1b6040518163ffffffff1660e01b815260040160206040518083038186803b1580156200024e57600080fd5b505afa15801562000263573d6000803e3d6000fd5b505050506040513d601f19601f8201168201806040525081019062000289919062000689565b836200045160201b620007661760201c565b505b505050565b620002b8816200048760201b620007931760201c565b620002fa576040517f08c379a0000000000000000000000000000000000000000000000000000000008152600401620002f1906200084b565b60405180910390fd5b620003918173ffffffffffffffffffffffffffffffffffffffff16635c60da1b6040518163ffffffff1660e01b815260040160206040518083038186803b1580156200034557600080fd5b505afa1580156200035a573d6000803e3d6000fd5b505050506040513d601f19601f8201168201806040525081019062000380919062000689565b6200048760201b620007931760201c565b620003d3576040517f08c379a0000000000000000000000000000000000000000000000000000000008152600401620003ca906200088f565b60405180910390fd5b806200040d7fa3f0ad74e5423aebfd80d3ef4346578335a9a72aeaee59ff6cb3582b35133d5060001b6200049a60201b620007a61760201c565b60000160006101000a81548173ffffffffffffffffffffffffffffffffffffffff021916908373ffffffffffffffffffffffffffffffffffffffff16021790555050565b60606200047f83836040518060600160405280602781526020016200254260279139620004a460201b60201c565b905092915050565b600080823b905060008111915050919050565b6000819050919050565b6060620004b7846200048760201b60201c565b620004f9576040517f08c379a0000000000000000000000000000000000000000000000000000000008152600401620004f0906200086d565b60405180910390fd5b6000808573ffffffffffffffffffffffffffffffffffffffff16856040516200052391906200080e565b600060405180830381855af49150503d806000811462000560576040519150601f19603f3d011682016040523d82523d6000602084013e62000565565b606091505b50915091506200057d8282866200058860201b60201c565b925050509392505050565b606083156200059a57829050620005ed565b600083511115620005ae5782518084602001fd5b816040517f08c379a0000000000000000000000000000000000000000000000000000000008152600401620005e4919062000827565b60405180910390fd5b9392505050565b60006200060b6200060584620008da565b620008b1565b9050828152602081018484840111156200062a576200062962000ab9565b5b62000637848285620009bb565b509392505050565b600081519050620006508162000bc6565b92915050565b600082601f8301126200066e576200066d62000ab4565b5b815162000680848260208601620005f4565b91505092915050565b600060208284031215620006a257620006a162000ac3565b5b6000620006b2848285016200063f565b91505092915050565b60008060408385031215620006d557620006d462000ac3565b5b6000620006e5858286016200063f565b925050602083015167ffffffffffffffff81111562000709576200070862000abe565b5b620007178582860162000656565b9150509250929050565b60006200072e8262000910565b6200073a818562000926565b93506200074c818560208601620009bb565b80840191505092915050565b600062000765826200091b565b62000771818562000931565b935062000783818560208601620009bb565b6200078e8162000ac8565b840191505092915050565b6000620007a860258362000931565b9150620007b58262000ad9565b604082019050919050565b6000620007cf60268362000931565b9150620007dc8262000b28565b604082019050919050565b6000620007f660308362000931565b9150620008038262000b77565b604082019050919050565b60006200081c828462000721565b915081905092915050565b6000602082019050818103600083015262000843818462000758565b905092915050565b60006020820190508181036000830152620008668162000799565b9050919050565b600060208201905081810360008301526200088881620007c0565b9050919050565b60006020820190508181036000830152620008aa81620007e7565b9050919050565b6000620008bd620008d0565b9050620008cb8282620009f1565b919050565b6000604051905090565b600067ffffffffffffffff821115620008f857620008f762000a85565b5b620009038262000ac8565b9050602081019050919050565b600081519050919050565b600081519050919050565b600081905092915050565b600082825260208201905092915050565b60006200094f82620009b1565b91506200095c83620009b1565b92508282101562000972576200097162000a56565b5b828203905092915050565b60006200098a8262000991565b9050919050565b600073ffffffffffffffffffffffffffffffffffffffff82169050919050565b6000819050919050565b60005b83811015620009db578082015181840152602081019050620009be565b83811115620009eb576000848401525b50505050565b620009fc8262000ac8565b810181811067ffffffffffffffff8211171562000a1e5762000a1d62000a85565b5b80604052505050565b7f4e487b7100000000000000000000000000000000000000000000000000000000600052600160045260246000fd5b7f4e487b7100000000000000000000000000000000000000000000000000000000600052601160045260246000fd5b7f4e487b7100000000000000000000000000000000000000000000000000000000600052604160045260246000fd5b600080fd5b600080fd5b600080fd5b600080fd5b6000601f19601f8301169050919050565b7f455243313936373a206e657720626561636f6e206973206e6f74206120636f6e60008201527f7472616374000000000000000000000000000000000000000000000000000000602082015250565b7f416464726573733a2064656c65676174652063616c6c20746f206e6f6e2d636f60008201527f6e74726163740000000000000000000000000000000000000000000000000000602082015250565b7f455243313936373a20626561636f6e20696d706c656d656e746174696f6e206960008201527f73206e6f74206120636f6e747261637400000000000000000000000000000000602082015250565b62000bd1816200097d565b811462000bdd57600080fd5b50565b6119528062000bf06000396000f3fe6080604052600436106100c65760003560e01c80637eed33f11161007f57806391d148541161005957806391d148541461026e578063a217fddf146102ab578063d547741f146102d6578063f2fde38b146102ff576100d5565b80637eed33f1146101ed578063841abf6e146102185780638da5cb5b14610243576100d5565b806301ffc9a7146100df578063248a9ca31461011c5780632f2ff15d1461015957806336568abe1461018257806354fd4d50146101ab578063715018a6146101d6576100d5565b366100d5576100d3610328565b005b6100dd610328565b005b3480156100eb57600080fd5b50610106600480360381019061010191906110db565b610342565b6040516101139190611340565b60405180910390f35b34801561012857600080fd5b50610143600480360381019061013e919061106e565b6103bc565b604051610150919061135b565b60405180910390f35b34801561016557600080fd5b50610180600480360381019061017b919061109b565b6103dc565b005b34801561018e57600080fd5b506101a960048036038101906101a4919061109b565b610405565b005b3480156101b757600080fd5b506101c0610488565b6040516101cd9190611438565b60405180910390f35b3480156101e257600080fd5b506101eb61048e565b005b3480156101f957600080fd5b50610202610516565b60405161020f9190611438565b60405180910390f35b34801561022457600080fd5b5061022d61051c565b60405161023a9190611376565b60405180910390f35b34801561024f57600080fd5b506102586105aa565b6040516102659190611325565b60405180910390f35b34801561027a57600080fd5b506102956004803603810190610290919061109b565b6105d3565b6040516102a29190611340565b60405180910390f35b3480156102b757600080fd5b506102c061063e565b6040516102cd919061135b565b60405180910390f35b3480156102e257600080fd5b506102fd60048036038101906102f8919061109b565b610645565b005b34801561030b57600080fd5b5061032660048036038101906103219190611014565b61066e565b005b6103306107b0565b61034061033b6107b2565b61083e565b565b60007f7965db0b000000000000000000000000000000000000000000000000000000007bffffffffffffffffffffffffffffffffffffffffffffffffffffffff1916827bffffffffffffffffffffffffffffffffffffffffffffffffffffffff191614806103b557506103b482610864565b5b9050919050565b600060016000838152602001908152602001600020600101549050919050565b6103e5826103bc565b6103f6816103f16108ce565b6108d6565b6104008383610973565b505050565b61040d6108ce565b73ffffffffffffffffffffffffffffffffffffffff168173ffffffffffffffffffffffffffffffffffffffff161461047a576040517f08c379a000000000000000000000000000000000000000000000000000000000815260040161047190611418565b60405180910390fd5b6104848282610a53565b5050565b60025481565b6104966108ce565b73ffffffffffffffffffffffffffffffffffffffff166104b46105aa565b73ffffffffffffffffffffffffffffffffffffffff161461050a576040517f08c379a0000000000000000000000000000000000000000000000000000000008152600401610501906113d8565b60405180910390fd5b6105146000610b35565b565b60045481565b600380546105299061161b565b80601f01602080910402602001604051908101604052809291908181526020018280546105559061161b565b80156105a25780601f10610577576101008083540402835291602001916105a2565b820191906000526020600020905b81548152906001019060200180831161058557829003601f168201915b505050505081565b60008060009054906101000a900473ffffffffffffffffffffffffffffffffffffffff16905090565b60006001600084815260200190815260200160002060000160008373ffffffffffffffffffffffffffffffffffffffff1673ffffffffffffffffffffffffffffffffffffffff16815260200190815260200160002060009054906101000a900460ff16905092915050565b6000801b81565b61064e826103bc565b61065f8161065a6108ce565b6108d6565b6106698383610a53565b505050565b6106766108ce565b73ffffffffffffffffffffffffffffffffffffffff166106946105aa565b73ffffffffffffffffffffffffffffffffffffffff16146106ea576040517f08c379a00000000000000000000000000000000000000000000000000000000081526004016106e1906113d8565b60405180910390fd5b600073ffffffffffffffffffffffffffffffffffffffff168173ffffffffffffffffffffffffffffffffffffffff16141561075a576040517f08c379a0000000000000000000000000000000000000000000000000000000008152600401610751906113b8565b60405180910390fd5b61076381610b35565b50565b606061078b83836040518060600160405280602781526020016118f660279139610bf9565b905092915050565b600080823b905060008111915050919050565b6000819050919050565b565b60006107bc610cc6565b73ffffffffffffffffffffffffffffffffffffffff16635c60da1b6040518163ffffffff1660e01b815260040160206040518083038186803b15801561080157600080fd5b505afa158015610815573d6000803e3d6000fd5b505050506040513d601f19601f820116820180604052508101906108399190611041565b905090565b3660008037600080366000845af43d6000803e806000811461085f573d6000f35b3d6000fd5b60007f01ffc9a7000000000000000000000000000000000000000000000000000000007bffffffffffffffffffffffffffffffffffffffffffffffffffffffff1916827bffffffffffffffffffffffffffffffffffffffffffffffffffffffff1916149050919050565b600033905090565b6108e082826105d3565b61096f576109058173ffffffffffffffffffffffffffffffffffffffff166014610d1d565b6109138360001c6020610d1d565b6040516020016109249291906112eb565b6040516020818303038152906040526040517f08c379a00000000000000000000000000000000000000000000000000000000081526004016109669190611376565b60405180910390fd5b5050565b61097d82826105d3565b610a4f57600180600084815260200190815260200160002060000160008373ffffffffffffffffffffffffffffffffffffffff1673ffffffffffffffffffffffffffffffffffffffff16815260200190815260200160002060006101000a81548160ff0219169083151502179055506109f46108ce565b73ffffffffffffffffffffffffffffffffffffffff168173ffffffffffffffffffffffffffffffffffffffff16837f2f8788117e7eff1d82e926ec794901d17c78024a50270940304540a733656f0d60405160405180910390a45b5050565b610a5d82826105d3565b15610b315760006001600084815260200190815260200160002060000160008373ffffffffffffffffffffffffffffffffffffffff1673ffffffffffffffffffffffffffffffffffffffff16815260200190815260200160002060006101000a81548160ff021916908315150217905550610ad66108ce565b73ffffffffffffffffffffffffffffffffffffffff168173ffffffffffffffffffffffffffffffffffffffff16837ff6391f5c32d9c69d2a47ea670b442974b53935d1edc7fd64eb21e047a839171b60405160405180910390a45b5050565b60008060009054906101000a900473ffffffffffffffffffffffffffffffffffffffff169050816000806101000a81548173ffffffffffffffffffffffffffffffffffffffff021916908373ffffffffffffffffffffffffffffffffffffffff1602179055508173ffffffffffffffffffffffffffffffffffffffff168173ffffffffffffffffffffffffffffffffffffffff167f8be0079c531659141344cd1fd0a4f28419497f9722a3daafe3b4186f6b6457e060405160405180910390a35050565b6060610c0484610793565b610c43576040517f08c379a0000000000000000000000000000000000000000000000000000000008152600401610c3a906113f8565b60405180910390fd5b6000808573ffffffffffffffffffffffffffffffffffffffff1685604051610c6b91906112d4565b600060405180830381855af49150503d8060008114610ca6576040519150601f19603f3d011682016040523d82523d6000602084013e610cab565b606091505b5091509150610cbb828286610f59565b925050509392505050565b6000610cf47fa3f0ad74e5423aebfd80d3ef4346578335a9a72aeaee59ff6cb3582b35133d5060001b6107a6565b60000160009054906101000a900473ffffffffffffffffffffffffffffffffffffffff16905090565b606060006002836002610d3091906114e6565b610d3a9190611490565b67ffffffffffffffff811115610d5357610d526116da565b5b6040519080825280601f01601f191660200182016040528015610d855781602001600182028036833780820191505090505b5090507f300000000000000000000000000000000000000000000000000000000000000081600081518110610dbd57610dbc6116ab565b5b60200101907effffffffffffffffffffffffffffffffffffffffffffffffffffffffffffff1916908160001a9053507f780000000000000000000000000000000000000000000000000000000000000081600181518110610e2157610e206116ab565b5b60200101907effffffffffffffffffffffffffffffffffffffffffffffffffffffffffffff1916908160001a90535060006001846002610e6191906114e6565b610e6b9190611490565b90505b6001811115610f0b577f3031323334353637383961626364656600000000000000000000000000000000600f861660108110610ead57610eac6116ab565b5b1a60f81b828281518110610ec457610ec36116ab565b5b60200101907effffffffffffffffffffffffffffffffffffffffffffffffffffffffffffff1916908160001a905350600485901c945080610f04906115f1565b9050610e6e565b5060008414610f4f576040517f08c379a0000000000000000000000000000000000000000000000000000000008152600401610f4690611398565b60405180910390fd5b8091505092915050565b60608315610f6957829050610fb9565b600083511115610f7c5782518084602001fd5b816040517f08c379a0000000000000000000000000000000000000000000000000000000008152600401610fb09190611376565b60405180910390fd5b9392505050565b600081359050610fcf816118b0565b92915050565b600081519050610fe4816118b0565b92915050565b600081359050610ff9816118c7565b92915050565b60008135905061100e816118de565b92915050565b60006020828403121561102a57611029611709565b5b600061103884828501610fc0565b91505092915050565b60006020828403121561105757611056611709565b5b600061106584828501610fd5565b91505092915050565b60006020828403121561108457611083611709565b5b600061109284828501610fea565b91505092915050565b600080604083850312156110b2576110b1611709565b5b60006110c085828601610fea565b92505060206110d185828601610fc0565b9150509250929050565b6000602082840312156110f1576110f0611709565b5b60006110ff84828501610fff565b91505092915050565b61111181611540565b82525050565b61112081611552565b82525050565b61112f8161155e565b82525050565b600061114082611453565b61114a8185611469565b935061115a8185602086016115be565b80840191505092915050565b60006111718261145e565b61117b8185611474565b935061118b8185602086016115be565b6111948161170e565b840191505092915050565b60006111aa8261145e565b6111b48185611485565b93506111c48185602086016115be565b80840191505092915050565b60006111dd602083611474565b91506111e88261171f565b602082019050919050565b6000611200602683611474565b915061120b82611748565b604082019050919050565b6000611223602083611474565b915061122e82611797565b602082019050919050565b6000611246602683611474565b9150611251826117c0565b604082019050919050565b6000611269601783611485565b91506112748261180f565b601782019050919050565b600061128c601183611485565b915061129782611838565b601182019050919050565b60006112af602f83611474565b91506112ba82611861565b604082019050919050565b6112ce816115b4565b82525050565b60006112e08284611135565b915081905092915050565b60006112f68261125c565b9150611302828561119f565b915061130d8261127f565b9150611319828461119f565b91508190509392505050565b600060208201905061133a6000830184611108565b92915050565b60006020820190506113556000830184611117565b92915050565b60006020820190506113706000830184611126565b92915050565b600060208201905081810360008301526113908184611166565b905092915050565b600060208201905081810360008301526113b1816111d0565b9050919050565b600060208201905081810360008301526113d1816111f3565b9050919050565b600060208201905081810360008301526113f181611216565b9050919050565b6000602082019050818103600083015261141181611239565b9050919050565b60006020820190508181036000830152611431816112a2565b9050919050565b600060208201905061144d60008301846112c5565b92915050565b600081519050919050565b600081519050919050565b600081905092915050565b600082825260208201905092915050565b600081905092915050565b600061149b826115b4565b91506114a6836115b4565b9250827fffffffffffffffffffffffffffffffffffffffffffffffffffffffffffffffff038211156114db576114da61164d565b5b828201905092915050565b60006114f1826115b4565b91506114fc836115b4565b9250817fffffffffffffffffffffffffffffffffffffffffffffffffffffffffffffffff04831182151516156115355761153461164d565b5b828202905092915050565b600061154b82611594565b9050919050565b60008115159050919050565b6000819050919050565b60007fffffffff0000000000000000000000000000000000000000000000000000000082169050919050565b600073ffffffffffffffffffffffffffffffffffffffff82169050919050565b6000819050919050565b60005b838110156115dc5780820151818401526020810190506115c1565b838111156115eb576000848401525b50505050565b60006115fc826115b4565b915060008214156116105761160f61164d565b5b600182039050919050565b6000600282049050600182168061163357607f821691505b602082108114156116475761164661167c565b5b50919050565b7f4e487b7100000000000000000000000000000000000000000000000000000000600052601160045260246000fd5b7f4e487b7100000000000000000000000000000000000000000000000000000000600052602260045260246000fd5b7f4e487b7100000000000000000000000000000000000000000000000000000000600052603260045260246000fd5b7f4e487b7100000000000000000000000000000000000000000000000000000000600052604160045260246000fd5b600080fd5b6000601f19601f8301169050919050565b7f537472696e67733a20686578206c656e67746820696e73756666696369656e74600082015250565b7f4f776e61626c653a206e6577206f776e657220697320746865207a65726f206160008201527f6464726573730000000000000000000000000000000000000000000000000000602082015250565b7f4f776e61626c653a2063616c6c6572206973206e6f7420746865206f776e6572600082015250565b7f416464726573733a2064656c65676174652063616c6c20746f206e6f6e2d636f60008201527f6e74726163740000000000000000000000000000000000000000000000000000602082015250565b7f416363657373436f6e74726f6c3a206163636f756e7420000000000000000000600082015250565b7f206973206d697373696e6720726f6c6520000000000000000000000000000000600082015250565b7f416363657373436f6e74726f6c3a2063616e206f6e6c792072656e6f756e636560008201527f20726f6c657320666f722073656c660000000000000000000000000000000000602082015250565b6118b981611540565b81146118c457600080fd5b50565b6118d08161155e565b81146118db57600080fd5b50565b6118e781611568565b81146118f257600080fd5b5056fe416464726573733a206c6f772d6c6576656c2064656c65676174652063616c6c206661696c6564a2646970667358221220be8aba011e3b320cd6d8080a9ff5b953456cd6a10a31821ad2e0c23dd4a0f86c64736f6c63430008070033416464726573733a206c6f772d6c6576656c2064656c65676174652063616c6c206661696c6564608060405234801561001057600080fd5b5060405162000a9138038062000a91833981810160405281019061003491906101ef565b61005061004561006560201b60201c565b61006d60201b60201c565b61005f8161013160201b60201c565b5061030d565b600033905090565b60008060009054906101000a900473ffffffffffffffffffffffffffffffffffffffff169050816000806101000a81548173ffffffffffffffffffffffffffffffffffffffff021916908373ffffffffffffffffffffffffffffffffffffffff1602179055508173ffffffffffffffffffffffffffffffffffffffff168173ffffffffffffffffffffffffffffffffffffffff167f8be0079c531659141344cd1fd0a4f28419497f9722a3daafe3b4186f6b6457e060405160405180910390a35050565b610144816101c760201b6103781760201c565b610183576040517f08c379a000000000000000000000000000000000000000000000000000000000815260040161017a9061023f565b60405180910390fd5b80600160006101000a81548173ffffffffffffffffffffffffffffffffffffffff021916908373ffffffffffffffffffffffffffffffffffffffff16021790555050565b600080823b905060008111915050919050565b6000815190506101e9816102f6565b92915050565b600060208284031215610205576102046102a2565b5b6000610213848285016101da565b91505092915050565b600061022960338361025f565b9150610234826102a7565b604082019050919050565b600060208201905081810360008301526102588161021c565b9050919050565b600082825260208201905092915050565b600061027b82610282565b9050919050565b600073ffffffffffffffffffffffffffffffffffffffff82169050919050565b600080fd5b7f5570677261646561626c65426561636f6e3a20696d706c656d656e746174696f60008201527f6e206973206e6f74206120636f6e747261637400000000000000000000000000602082015250565b6102ff81610270565b811461030a57600080fd5b50565b610774806200031d6000396000f3fe608060405234801561001057600080fd5b50600436106100575760003560e01c80633659cfe61461005c5780635c60da1b14610078578063715018a6146100965780638da5cb5b146100a0578063f2fde38b146100be575b600080fd5b610076600480360381019061007191906104f8565b6100da565b005b6100806101a5565b60405161008d919061059d565b60405180910390f35b61009e6101cf565b005b6100a8610257565b6040516100b5919061059d565b60405180910390f35b6100d860048036038101906100d391906104f8565b610280565b005b6100e261038b565b73ffffffffffffffffffffffffffffffffffffffff16610100610257565b73ffffffffffffffffffffffffffffffffffffffff1614610156576040517f08c379a000000000000000000000000000000000000000000000000000000000815260040161014d906105f8565b60405180910390fd5b61015f81610393565b8073ffffffffffffffffffffffffffffffffffffffff167fbc7cd75a20ee27fd9adebab32041f755214dbc6bffa90cc0225b39da2e5c2d3b60405160405180910390a250565b6000600160009054906101000a900473ffffffffffffffffffffffffffffffffffffffff16905090565b6101d761038b565b73ffffffffffffffffffffffffffffffffffffffff166101f5610257565b73ffffffffffffffffffffffffffffffffffffffff161461024b576040517f08c379a0000000000000000000000000000000000000000000000000000000008152600401610242906105f8565b60405180910390fd5b610255600061041f565b565b60008060009054906101000a900473ffffffffffffffffffffffffffffffffffffffff16905090565b61028861038b565b73ffffffffffffffffffffffffffffffffffffffff166102a6610257565b73ffffffffffffffffffffffffffffffffffffffff16146102fc576040517f08c379a00000000000000000000000000000000000000000000000000000000081526004016102f3906105f8565b60405180910390fd5b600073ffffffffffffffffffffffffffffffffffffffff168173ffffffffffffffffffffffffffffffffffffffff16141561036c576040517f08c379a0000000000000000000000000000000000000000000000000000000008152600401610363906105b8565b60405180910390fd5b6103758161041f565b50565b600080823b905060008111915050919050565b600033905090565b61039c81610378565b6103db576040517f08c379a00000000000000000000000000000000000000000000000000000000081526004016103d2906105d8565b60405180910390fd5b80600160006101000a81548173ffffffffffffffffffffffffffffffffffffffff021916908373ffffffffffffffffffffffffffffffffffffffff16021790555050565b60008060009054906101000a900473ffffffffffffffffffffffffffffffffffffffff169050816000806101000a81548173ffffffffffffffffffffffffffffffffffffffff021916908373ffffffffffffffffffffffffffffffffffffffff1602179055508173ffffffffffffffffffffffffffffffffffffffff168173ffffffffffffffffffffffffffffffffffffffff167f8be0079c531659141344cd1fd0a4f28419497f9722a3daafe3b4186f6b6457e060405160405180910390a35050565b6000813590506104f281610727565b92915050565b60006020828403121561050e5761050d61065b565b5b600061051c848285016104e3565b91505092915050565b61052e81610629565b82525050565b6000610541602683610618565b915061054c82610660565b604082019050919050565b6000610564603383610618565b915061056f826106af565b604082019050919050565b6000610587602083610618565b9150610592826106fe565b602082019050919050565b60006020820190506105b26000830184610525565b92915050565b600060208201905081810360008301526105d181610534565b9050919050565b600060208201905081810360008301526105f181610557565b9050919050565b600060208201905081810360008301526106118161057a565b9050919050565b600082825260208201905092915050565b60006106348261063b565b9050919050565b600073ffffffffffffffffffffffffffffffffffffffff82169050919050565b600080fd5b7f4f776e61626c653a206e6577206f776e657220697320746865207a65726f206160008201527f6464726573730000000000000000000000000000000000000000000000000000602082015250565b7f5570677261646561626c65426561636f6e3a20696d706c656d656e746174696f60008201527f6e206973206e6f74206120636f6e747261637400000000000000000000000000602082015250565b7f4f776e61626c653a2063616c6c6572206973206e6f7420746865206f776e6572600082015250565b61073081610629565b811461073b57600080fd5b5056fea2646970667358221220f14c1e123fc6650c2510ce92a5938ce8dbd619e20ec5ceb7ad4526f9ccdb6aca64736f6c63430008070033a264697066735822122027e04ddaeab2949f73a42418503a17e036847864139c5dbdf910f4737128592464736f6c63430008070033608060405234801561001057600080fd5b5060405162000a9138038062000a91833981810160405281019061003491906101ef565b61005061004561006560201b60201c565b61006d60201b60201c565b61005f8161013160201b60201c565b5061030d565b600033905090565b60008060009054906101000a900473ffffffffffffffffffffffffffffffffffffffff169050816000806101000a81548173ffffffffffffffffffffffffffffffffffffffff021916908373ffffffffffffffffffffffffffffffffffffffff1602179055508173ffffffffffffffffffffffffffffffffffffffff168173ffffffffffffffffffffffffffffffffffffffff167f8be0079c531659141344cd1fd0a4f28419497f9722a3daafe3b4186f6b6457e060405160405180910390a35050565b610144816101c760201b6103781760201c565b610183576040517f08c379a000000000000000000000000000000000000000000000000000000000815260040161017a9061023f565b60405180910390fd5b80600160006101000a81548173ffffffffffffffffffffffffffffffffffffffff021916908373ffffffffffffffffffffffffffffffffffffffff16021790555050565b600080823b905060008111915050919050565b6000815190506101e9816102f6565b92915050565b600060208284031215610205576102046102a2565b5b6000610213848285016101da565b91505092915050565b600061022960338361025f565b9150610234826102a7565b604082019050919050565b600060208201905081810360008301526102588161021c565b9050919050565b600082825260208201905092915050565b600061027b82610282565b9050919050565b600073ffffffffffffffffffffffffffffffffffffffff82169050919050565b600080fd5b7f5570677261646561626c65426561636f6e3a20696d706c656d656e746174696f60008201527f6e206973206e6f74206120636f6e747261637400000000000000000000000000602082015250565b6102ff81610270565b811461030a57600080fd5b50565b610774806200031d6000396000f3fe608060405234801561001057600080fd5b50600436106100575760003560e01c80633659cfe61461005c5780635c60da1b14610078578063715018a6146100965780638da5cb5b146100a0578063f2fde38b146100be575b600080fd5b610076600480360381019061007191906104f8565b6100da565b005b6100806101a5565b60405161008d919061059d565b60405180910390f35b61009e6101cf565b005b6100a8610257565b6040516100b5919061059d565b60405180910390f35b6100d860048036038101906100d391906104f8565b610280565b005b6100e261038b565b73ffffffffffffffffffffffffffffffffffffffff16610100610257565b73ffffffffffffffffffffffffffffffffffffffff1614610156576040517f08c379a000000000000000000000000000000000000000000000000000000000815260040161014d906105f8565b60405180910390fd5b61015f81610393565b8073ffffffffffffffffffffffffffffffffffffffff167fbc7cd75a20ee27fd9adebab32041f755214dbc6bffa90cc0225b39da2e5c2d3b60405160405180910390a250565b6000600160009054906101000a900473ffffffffffffffffffffffffffffffffffffffff16905090565b6101d761038b565b73ffffffffffffffffffffffffffffffffffffffff166101f5610257565b73ffffffffffffffffffffffffffffffffffffffff161461024b576040517f08c379a0000000000000000000000000000000000000000000000000000000008152600401610242906105f8565b60405180910390fd5b610255600061041f565b565b60008060009054906101000a900473ffffffffffffffffffffffffffffffffffffffff16905090565b61028861038b565b73ffffffffffffffffffffffffffffffffffffffff166102a6610257565b73ffffffffffffffffffffffffffffffffffffffff16146102fc576040517f08c379a00000000000000000000000000000000000000000000000000000000081526004016102f3906105f8565b60405180910390fd5b600073ffffffffffffffffffffffffffffffffffffffff168173ffffffffffffffffffffffffffffffffffffffff16141561036c576040517f08c379a0000000000000000000000000000000000000000000000000000000008152600401610363906105b8565b60405180910390fd5b6103758161041f565b50565b600080823b905060008111915050919050565b600033905090565b61039c81610378565b6103db576040517f08c379a00000000000000000000000000000000000000000000000000000000081526004016103d2906105d8565b60405180910390fd5b80600160006101000a81548173ffffffffffffffffffffffffffffffffffffffff021916908373ffffffffffffffffffffffffffffffffffffffff16021790555050565b60008060009054906101000a900473ffffffffffffffffffffffffffffffffffffffff169050816000806101000a81548173ffffffffffffffffffffffffffffffffffffffff021916908373ffffffffffffffffffffffffffffffffffffffff1602179055508173ffffffffffffffffffffffffffffffffffffffff168173ffffffffffffffffffffffffffffffffffffffff167f8be0079c531659141344cd1fd0a4f28419497f9722a3daafe3b4186f6b6457e060405160405180910390a35050565b6000813590506104f281610727565b92915050565b60006020828403121561050e5761050d61065b565b5b600061051c848285016104e3565b91505092915050565b61052e81610629565b82525050565b6000610541602683610618565b915061054c82610660565b604082019050919050565b6000610564603383610618565b915061056f826106af565b604082019050919050565b6000610587602083610618565b9150610592826106fe565b602082019050919050565b60006020820190506105b26000830184610525565b92915050565b600060208201905081810360008301526105d181610534565b9050919050565b600060208201905081810360008301526105f181610557565b9050919050565b600060208201905081810360008301526106118161057a565b9050919050565b600082825260208201905092915050565b60006106348261063b565b9050919050565b600073ffffffffffffffffffffffffffffffffffffffff82169050919050565b600080fd5b7f4f776e61626c653a206e6577206f776e657220697320746865207a65726f206160008201527f6464726573730000000000000000000000000000000000000000000000000000602082015250565b7f5570677261646561626c65426561636f6e3a20696d706c656d656e746174696f60008201527f6e206973206e6f74206120636f6e747261637400000000000000000000000000602082015250565b7f4f776e61626c653a2063616c6c6572206973206e6f7420746865206f776e6572600082015250565b61073081610629565b811461073b57600080fd5b5056fea2646970667358221220f14c1e123fc6650c2510ce92a5938ce8dbd619e20ec5ceb7ad4526f9ccdb6aca64736f6c63430008070033608060405234801561001057600080fd5b5061002d61002261003260201b60201c565b61003a60201b60201c565b6100fe565b600033905090565b60008060009054906101000a900473ffffffffffffffffffffffffffffffffffffffff169050816000806101000a81548173ffffffffffffffffffffffffffffffffffffffff021916908373ffffffffffffffffffffffffffffffffffffffff1602179055508173ffffffffffffffffffffffffffffffffffffffff168173ffffffffffffffffffffffffffffffffffffffff167f8be0079c531659141344cd1fd0a4f28419497f9722a3daafe3b4186f6b6457e060405160405180910390a35050565b610f088061010d6000396000f3fe608060405234801561001057600080fd5b50600436106100935760003560e01c8063c59d484711610066578063c59d48471461010c578063d4313da81461012a578063edef8b831461015a578063ef5c10201461018a578063f2fde38b146101a857610093565b80632186e72614610098578063715018a6146100c85780638da5cb5b146100d25780639e9d7066146100f0575b600080fd5b6100b260048036038101906100ad91906109d8565b6101c4565b6040516100bf9190610cc4565b60405180910390f35b6100d06101f5565b005b6100da61027d565b6040516100e79190610c25565b60405180910390f35b61010a600480360381019061010591906109d8565b6102a6565b005b610114610398565b6040516101219190610c40565b60405180910390f35b610144600480360381019061013f91906109ab565b610558565b6040516101519190610c62565b60405180910390f35b610174600480360381019061016f91906109ab565b6105c3565b6040516101819190610cc4565b60405180910390f35b6101926105f1565b60405161019f9190610c40565b60405180910390f35b6101c260048036038101906101bd919061097e565b6106b2565b005b600160205281600052604060002081815481106101e057600080fd5b90600052602060002001600091509150505481565b6101fd6107aa565b73ffffffffffffffffffffffffffffffffffffffff1661021b61027d565b73ffffffffffffffffffffffffffffffffffffffff1614610271576040517f08c379a000000000000000000000000000000000000000000000000000000000815260040161026890610ca4565b60405180910390fd5b61027b60006107b2565b565b60008060009054906101000a900473ffffffffffffffffffffffffffffffffffffffff16905090565b6102ae6107aa565b73ffffffffffffffffffffffffffffffffffffffff166102cc61027d565b73ffffffffffffffffffffffffffffffffffffffff1614610322576040517f08c379a000000000000000000000000000000000000000000000000000000000815260040161031990610ca4565b60405180910390fd5b60006001600084815260200190815260200160002080549050141561035a576003600081548092919061035490610daf565b91905055505b600160008381526020019081526020016000208190806001815401808255809150506001900390600052602060002001600090919091909150555050565b6060600260006103a89190610876565b60005b60035481101561049857600060405180604001604052808381526020016001600085815260200190815260200160002080548060200260200160405190810160405280929190818152602001828054801561042557602002820191906000526020600020905b815481526020019060010190808311610411575b50505050508152509050600281908060018154018082558091505060019003906000526020600020906002020160009091909190915060008201518160000155602082015181600101908051906020019061048192919061089a565b50505050808061049090610daf565b9150506103ab565b506002805480602002602001604051908101604052809291908181526020016000905b8282101561054f5783829060005260206000209060020201604051806040016040529081600082015481526020016001820180548060200260200160405190810160405280929190818152602001828054801561053757602002820191906000526020600020905b815481526020019060010190808311610523575b505050505081525050815260200190600101906104bb565b50505050905090565b6060600160008381526020019081526020016000208054806020026020016040519081016040528092919081815260200182805480156105b757602002820191906000526020600020905b8154815260200190600101908083116105a3575b50505050509050919050565b600281815481106105d357600080fd5b90600052602060002090600202016000915090508060000154905081565b60606002805480602002602001604051908101604052809291908181526020016000905b828210156106a95783829060005260206000209060020201604051806040016040529081600082015481526020016001820180548060200260200160405190810160405280929190818152602001828054801561069157602002820191906000526020600020905b81548152602001906001019080831161067d575b50505050508152505081526020019060010190610615565b50505050905090565b6106ba6107aa565b73ffffffffffffffffffffffffffffffffffffffff166106d861027d565b73ffffffffffffffffffffffffffffffffffffffff161461072e576040517f08c379a000000000000000000000000000000000000000000000000000000000815260040161072590610ca4565b60405180910390fd5b600073ffffffffffffffffffffffffffffffffffffffff168173ffffffffffffffffffffffffffffffffffffffff16141561079e576040517f08c379a000000000000000000000000000000000000000000000000000000000815260040161079590610c84565b60405180910390fd5b6107a7816107b2565b50565b600033905090565b60008060009054906101000a900473ffffffffffffffffffffffffffffffffffffffff169050816000806101000a81548173ffffffffffffffffffffffffffffffffffffffff021916908373ffffffffffffffffffffffffffffffffffffffff1602179055508173ffffffffffffffffffffffffffffffffffffffff168173ffffffffffffffffffffffffffffffffffffffff167f8be0079c531659141344cd1fd0a4f28419497f9722a3daafe3b4186f6b6457e060405160405180910390a35050565b508054600082556002029060005260206000209081019061089791906108e7565b50565b8280548282559060005260206000209081019282156108d6579160200282015b828111156108d55782518255916020019190600101906108ba565b5b5090506108e39190610916565b5090565b5b80821115610912576000808201600090556001820160006109099190610933565b506002016108e8565b5090565b5b8082111561092f576000816000905550600101610917565b5090565b50805460008255906000526020600020908101906109519190610916565b50565b60008135905061096381610ea4565b92915050565b60008135905061097881610ebb565b92915050565b60006020828403121561099457610993610e27565b5b60006109a284828501610954565b91505092915050565b6000602082840312156109c1576109c0610e27565b5b60006109cf84828501610969565b91505092915050565b600080604083850312156109ef576109ee610e27565b5b60006109fd85828601610969565b9250506020610a0e85828601610969565b9150509250929050565b6000610a248383610bca565b905092915050565b6000610a388383610c07565b60208301905092915050565b610a4d81610d73565b82525050565b6000610a5e82610cff565b610a688185610d2f565b935083602082028501610a7a85610cdf565b8060005b85811015610ab65784840389528151610a978582610a18565b9450610aa283610d15565b925060208a01995050600181019050610a7e565b50829750879550505050505092915050565b6000610ad382610d0a565b610add8185610d40565b9350610ae883610cef565b8060005b83811015610b19578151610b008882610a2c565b9750610b0b83610d22565b925050600181019050610aec565b5085935050505092915050565b6000610b3182610d0a565b610b3b8185610d51565b9350610b4683610cef565b8060005b83811015610b77578151610b5e8882610a2c565b9750610b6983610d22565b925050600181019050610b4a565b5085935050505092915050565b6000610b91602683610d62565b9150610b9c82610e2c565b604082019050919050565b6000610bb4602083610d62565b9150610bbf82610e7b565b602082019050919050565b6000604083016000830151610be26000860182610c07565b5060208301518482036020860152610bfa8282610ac8565b9150508091505092915050565b610c1081610da5565b82525050565b610c1f81610da5565b82525050565b6000602082019050610c3a6000830184610a44565b92915050565b60006020820190508181036000830152610c5a8184610a53565b905092915050565b60006020820190508181036000830152610c7c8184610b26565b905092915050565b60006020820190508181036000830152610c9d81610b84565b9050919050565b60006020820190508181036000830152610cbd81610ba7565b9050919050565b6000602082019050610cd96000830184610c16565b92915050565b6000819050602082019050919050565b6000819050602082019050919050565b600081519050919050565b600081519050919050565b6000602082019050919050565b6000602082019050919050565b600082825260208201905092915050565b600082825260208201905092915050565b600082825260208201905092915050565b600082825260208201905092915050565b6000610d7e82610d85565b9050919050565b600073ffffffffffffffffffffffffffffffffffffffff82169050919050565b6000819050919050565b6000610dba82610da5565b91507fffffffffffffffffffffffffffffffffffffffffffffffffffffffffffffffff821415610ded57610dec610df8565b5b600182019050919050565b7f4e487b7100000000000000000000000000000000000000000000000000000000600052601160045260246000fd5b600080fd5b7f4f776e61626c653a206e6577206f776e657220697320746865207a65726f206160008201527f6464726573730000000000000000000000000000000000000000000000000000602082015250565b7f4f776e61626c653a2063616c6c6572206973206e6f7420746865206f776e6572600082015250565b610ead81610d73565b8114610eb857600080fd5b50565b610ec481610da5565b8114610ecf57600080fd5b5056fea2646970667358221220319843d2f1e8ee46ec3cc09f2e0cdbf940da44ab787c9f48a48dc37fe591a9a064736f6c63430008070033",
  "linkReferences": {},
  "deployedLinkReferences": {}
}