{
  "_format": "hh-sol-artifact-1",
  "contractName": "LeagueMaker",
  "sourceName": "contracts/LeagueMaker.sol",
  "abi": [
    {
      "inputs": [
        {
          "internalType": "address",
          "name": "_logic",
          "type": "address"
        }
      ],
      "stateMutability": "nonpayable",
      "type": "constructor"
    },
    {
      "anonymous": false,
      "inputs": [
        {
          "indexed": false,
          "internalType": "string",
          "name": "name",
          "type": "string"
        },
        {
          "indexed": false,
          "internalType": "address",
          "name": "a",
          "type": "address"
        }
      ],
      "name": "LeagueCreated",
      "type": "event"
    },
    {
      "anonymous": false,
      "inputs": [
        {
          "indexed": true,
          "internalType": "address",
          "name": "previousOwner",
          "type": "address"
        },
        {
          "indexed": true,
          "internalType": "address",
          "name": "newOwner",
          "type": "address"
        }
      ],
      "name": "OwnershipTransferred",
      "type": "event"
    },
    {
      "anonymous": false,
      "inputs": [
        {
          "indexed": false,
          "internalType": "bool",
          "name": "success",
          "type": "bool"
        },
        {
          "indexed": false,
          "internalType": "bytes",
          "name": "data",
          "type": "bytes"
        }
      ],
      "name": "Response",
      "type": "event"
    },
    {
      "inputs": [
        {
          "internalType": "string",
          "name": "_name",
          "type": "string"
        },
        {
          "internalType": "uint256",
          "name": "_stakeAmount",
          "type": "uint256"
        },
        {
          "internalType": "bool",
          "name": "_isPublic",
          "type": "bool"
        },
        {
          "internalType": "address",
          "name": "_adminAddress",
          "type": "address"
        },
        {
          "internalType": "address",
          "name": "_testUSDCAddress",
          "type": "address"
        },
        {
          "internalType": "address",
          "name": "_athletesContractAddress",
          "type": "address"
        }
      ],
      "name": "createLeague",
      "outputs": [
        {
          "internalType": "address",
          "name": "",
          "type": "address"
        }
      ],
      "stateMutability": "nonpayable",
      "type": "function"
    },
    {
      "inputs": [],
      "name": "currentWeek",
      "outputs": [
        {
          "internalType": "uint256",
          "name": "",
          "type": "uint256"
        }
      ],
      "stateMutability": "view",
      "type": "function"
    },
    {
      "inputs": [],
      "name": "evaluateWeekForAllLeagues",
      "outputs": [],
      "stateMutability": "nonpayable",
      "type": "function"
    },
    {
      "inputs": [],
      "name": "incrementCurrentWeek",
      "outputs": [],
      "stateMutability": "nonpayable",
      "type": "function"
    },
    {
      "inputs": [
        {
          "internalType": "uint256",
          "name": "",
          "type": "uint256"
        }
      ],
      "name": "leagueAddresses",
      "outputs": [
        {
          "internalType": "address",
          "name": "",
          "type": "address"
        }
      ],
      "stateMutability": "view",
      "type": "function"
    },
    {
      "inputs": [],
      "name": "lockLeagueLineups",
      "outputs": [],
      "stateMutability": "nonpayable",
      "type": "function"
    },
    {
      "inputs": [],
      "name": "lockLeagueMembership",
      "outputs": [],
      "stateMutability": "nonpayable",
      "type": "function"
    },
    {
      "inputs": [],
      "name": "owner",
      "outputs": [
        {
          "internalType": "address",
          "name": "",
          "type": "address"
        }
      ],
      "stateMutability": "view",
      "type": "function"
    },
    {
      "inputs": [],
      "name": "renounceOwnership",
      "outputs": [],
      "stateMutability": "nonpayable",
      "type": "function"
    },
    {
      "inputs": [],
      "name": "setLeagueSchedules",
      "outputs": [],
      "stateMutability": "nonpayable",
      "type": "function"
    },
    {
      "inputs": [
        {
          "internalType": "address",
          "name": "newOwner",
          "type": "address"
        }
      ],
      "name": "transferOwnership",
      "outputs": [],
      "stateMutability": "nonpayable",
      "type": "function"
    },
    {
      "inputs": [],
      "name": "unlockLeagueLineups",
      "outputs": [],
      "stateMutability": "nonpayable",
      "type": "function"
    },
    {
      "inputs": [
        {
          "internalType": "address",
          "name": "user",
          "type": "address"
        }
      ],
      "name": "updateUserToLeagueMapping",
      "outputs": [],
      "stateMutability": "nonpayable",
      "type": "function"
    },
    {
      "inputs": [
        {
          "internalType": "address",
          "name": "",
          "type": "address"
        },
        {
          "internalType": "uint256",
          "name": "",
          "type": "uint256"
        }
      ],
      "name": "userToLeagueMap",
      "outputs": [
        {
          "internalType": "address",
          "name": "",
          "type": "address"
        }
      ],
      "stateMutability": "view",
      "type": "function"
    }
  ],
  "bytecode": "0x60a060405260086007556000600855732791bca1f2de4661ed88a30c99a7a9449aa84174600960006101000a81548173ffffffffffffffffffffffffffffffffffffffff021916908373ffffffffffffffffffffffffffffffffffffffff16021790555073eb8f08a975ab53e34d8a0330e0d34de942c95926600a60006101000a81548173ffffffffffffffffffffffffffffffffffffffff021916908373ffffffffffffffffffffffffffffffffffffffff160217905550348015620000c557600080fd5b5060405162007283380380620072838339818101604052810190620000eb9190620002ec565b6200010b620000ff620001ed60201b60201c565b620001f560201b60201c565b806040516200011a90620002b9565b6200012691906200032f565b604051809103906000f08015801562000143573d6000803e3d6000fd5b5073ffffffffffffffffffffffffffffffffffffffff1660808173ffffffffffffffffffffffffffffffffffffffff1660601b815250506040516200018890620002c7565b604051809103906000f080158015620001a5573d6000803e3d6000fd5b50600160006101000a81548173ffffffffffffffffffffffffffffffffffffffff021916908373ffffffffffffffffffffffffffffffffffffffff160217905550506200039f565b600033905090565b60008060009054906101000a900473ffffffffffffffffffffffffffffffffffffffff169050816000806101000a81548173ffffffffffffffffffffffffffffffffffffffff021916908373ffffffffffffffffffffffffffffffffffffffff1602179055508173ffffffffffffffffffffffffffffffffffffffff168173ffffffffffffffffffffffffffffffffffffffff167f8be0079c531659141344cd1fd0a4f28419497f9722a3daafe3b4186f6b6457e060405160405180910390a35050565b610a918062004f8e83390190565b6118648062005a1f83390190565b600081519050620002e68162000385565b92915050565b60006020828403121562000305576200030462000380565b5b60006200031584828501620002d5565b91505092915050565b62000329816200034c565b82525050565b60006020820190506200034660008301846200031e565b92915050565b6000620003598262000360565b9050919050565b600073ffffffffffffffffffffffffffffffffffffffff82169050919050565b600080fd5b62000390816200034c565b81146200039c57600080fd5b50565b60805160601c614bd0620003be6000396000610d310152614bd06000f3fe60806040523480156200001157600080fd5b5060043610620001005760003560e01c8063a69b33181162000099578063c49986a5116200006f578063c49986a51462000211578063d46dc6c4146200021d578063d54c9d161462000253578063f2fde38b146200025f5762000100565b8063a69b331814620001c3578063a945320f14620001cf578063c3530ff414620001db5762000100565b8063449f77fb11620000db578063449f77fb1462000169578063715018a61462000175578063771bd4ce14620001815780638da5cb5b14620001a15762000100565b806306575c891462000105578063270cb3eb146200012757806329ffe5e91462000133575b600080fd5b6200010f6200027f565b6040516200011e9190620017a5565b60405180910390f35b6200013162000285565b005b6200015160048036038101906200014b9190620013af565b62000516565b6040516200016091906200157f565b60405180910390f35b6200017362000556565b005b6200017f6200064b565b005b6200019f600480360381019062000199919062001275565b620006dc565b005b620001ab6200077f565b604051620001ba91906200157f565b60405180910390f35b620001cd620007a8565b005b620001d962000849565b005b620001f96004803603810190620001f39190620012a7565b62000afe565b6040516200020891906200157f565b60405180910390f35b6200021b62000b4d565b005b6200023b6004803603810190620002359190620012ee565b62000c3e565b6040516200024a91906200157f565b60405180910390f35b6200025d62000e3c565b005b6200027d600480360381019062000277919062001275565b62000f2d565b005b60085481565b6200028f62001031565b73ffffffffffffffffffffffffffffffffffffffff16620002af6200077f565b73ffffffffffffffffffffffffffffffffffffffff161462000308576040517f08c379a0000000000000000000000000000000000000000000000000000000008152600401620002ff9062001783565b60405180910390fd5b73__$12cdf1fac25abe52b1eb298b32a4f32efb$__6388fa0a1f60036040518263ffffffff1660e01b8152600401620003429190620015d0565b60006040518083038186803b1580156200035b57600080fd5b505af415801562000370573d6000803e3d6000fd5b505050506000606060005b600380549050811015620005115760038181548110620003a0576200039f6200196e565b5b9060005260206000200160009054906101000a900473ffffffffffffffffffffffffffffffffffffffff1673ffffffffffffffffffffffffffffffffffffffff166040516024016040516020818303038152906040527fe4c9066b000000000000000000000000000000000000000000000000000000007bffffffffffffffffffffffffffffffffffffffffffffffffffffffff19166020820180517bffffffffffffffffffffffffffffffffffffffffffffffffffffffff838183161783525050505060405162000473919062001566565b6000604051808303816000865af19150503d8060008114620004b2576040519150601f19603f3d011682016040523d82523d6000602084013e620004b7565b606091505b5080935081945050507f13848c3e38f8886f3f5d2ad9dff80d8092c2bbb8efd5b887a99c2c6cfc09ac2a8383604051620004f39291906200161a565b60405180910390a180806200050890620018f1565b9150506200037b565b505050565b600381815481106200052757600080fd5b906000526020600020016000915054906101000a900473ffffffffffffffffffffffffffffffffffffffff1681565b6200056062001031565b73ffffffffffffffffffffffffffffffffffffffff16620005806200077f565b73ffffffffffffffffffffffffffffffffffffffff1614620005d9576040517f08c379a0000000000000000000000000000000000000000000000000000000008152600401620005d09062001783565b60405180910390fd5b73__$12cdf1fac25abe52b1eb298b32a4f32efb$__6335c83fd360036008546040518363ffffffff1660e01b815260040162000617929190620015ed565b60006040518083038186803b1580156200063057600080fd5b505af415801562000645573d6000803e3d6000fd5b50505050565b6200065562001031565b73ffffffffffffffffffffffffffffffffffffffff16620006756200077f565b73ffffffffffffffffffffffffffffffffffffffff1614620006ce576040517f08c379a0000000000000000000000000000000000000000000000000000000008152600401620006c59062001783565b60405180910390fd5b620006da600062001039565b565b600460008273ffffffffffffffffffffffffffffffffffffffff1673ffffffffffffffffffffffffffffffffffffffff168152602001908152602001600020339080600181540180825580915050600190039060005260206000200160009091909190916101000a81548173ffffffffffffffffffffffffffffffffffffffff021916908373ffffffffffffffffffffffffffffffffffffffff16021790555050565b60008060009054906101000a900473ffffffffffffffffffffffffffffffffffffffff16905090565b620007b262001031565b73ffffffffffffffffffffffffffffffffffffffff16620007d26200077f565b73ffffffffffffffffffffffffffffffffffffffff16146200082b576040517f08c379a0000000000000000000000000000000000000000000000000000000008152600401620008229062001783565b60405180910390fd5b60016008600082825462000840919062001805565b92505081905550565b6200085362001031565b73ffffffffffffffffffffffffffffffffffffffff16620008736200077f565b73ffffffffffffffffffffffffffffffffffffffff1614620008cc576040517f08c379a0000000000000000000000000000000000000000000000000000000008152600401620008c39062001783565b60405180910390fd5b620008f060405180606001604052806026815260200162004b7560269139620010fd565b73__$12cdf1fac25abe52b1eb298b32a4f32efb$__630e2a112660036040518263ffffffff1660e01b81526004016200092a9190620015d0565b60006040518083038186803b1580156200094357600080fd5b505af415801562000958573d6000803e3d6000fd5b505050506000606060005b60038054905081101562000af957600381815481106200098857620009876200196e565b5b9060005260206000200160009054906101000a900473ffffffffffffffffffffffffffffffffffffffff1673ffffffffffffffffffffffffffffffffffffffff166040516024016040516020818303038152906040527f0655465a000000000000000000000000000000000000000000000000000000007bffffffffffffffffffffffffffffffffffffffffffffffffffffffff19166020820180517bffffffffffffffffffffffffffffffffffffffffffffffffffffffff838183161783525050505060405162000a5b919062001566565b6000604051808303816000865af19150503d806000811462000a9a576040519150601f19603f3d011682016040523d82523d6000602084013e62000a9f565b606091505b5080935081945050507f13848c3e38f8886f3f5d2ad9dff80d8092c2bbb8efd5b887a99c2c6cfc09ac2a838360405162000adb9291906200161a565b60405180910390a1808062000af090620018f1565b91505062000963565b505050565b6004602052816000526040600020818154811062000b1b57600080fd5b906000526020600020016000915091509054906101000a900473ffffffffffffffffffffffffffffffffffffffff1681565b62000b5762001031565b73ffffffffffffffffffffffffffffffffffffffff1662000b776200077f565b73ffffffffffffffffffffffffffffffffffffffff161462000bd0576040517f08c379a000000000000000000000000000000000000000000000000000000000815260040162000bc79062001783565b60405180910390fd5b73__$12cdf1fac25abe52b1eb298b32a4f32efb$__63c311d4f660036040518263ffffffff1660e01b815260040162000c0a9190620015d0565b60006040518083038186803b15801562000c2357600080fd5b505af415801562000c38573d6000803e3d6000fd5b50505050565b60008088886007548989878a600960009054906101000a900473ffffffffffffffffffffffffffffffffffffffff16600a60009054906101000a900473ffffffffffffffffffffffffffffffffffffffff168c3060405160240162000cae9b9a9998979695949392919062001684565b6040516020818303038152906040527f5d514d69000000000000000000000000000000000000000000000000000000007bffffffffffffffffffffffffffffffffffffffffffffffffffffffff19166020820180517bffffffffffffffffffffffffffffffffffffffffffffffffffffffff8381831617835250505050905060007f00000000000000000000000000000000000000000000000000000000000000008260405162000d5f90620011c3565b62000d6c9291906200159c565b604051809103906000f08015801562000d89573d6000803e3d6000fd5b5090506003819080600181540180825580915050600190039060005260206000200160009091909190916101000a81548173ffffffffffffffffffffffffffffffffffffffff021916908373ffffffffffffffffffffffffffffffffffffffff1602179055507f6f41e080f0ba3b200797d7e512fbca5fa5d4b72f7d8fb62d6fb40997ea9679808a8a8360405162000e24939291906200164e565b60405180910390a18092505050979650505050505050565b62000e4662001031565b73ffffffffffffffffffffffffffffffffffffffff1662000e666200077f565b73ffffffffffffffffffffffffffffffffffffffff161462000ebf576040517f08c379a000000000000000000000000000000000000000000000000000000000815260040162000eb69062001783565b60405180910390fd5b73__$12cdf1fac25abe52b1eb298b32a4f32efb$__63a71e139860036040518263ffffffff1660e01b815260040162000ef99190620015d0565b60006040518083038186803b15801562000f1257600080fd5b505af415801562000f27573d6000803e3d6000fd5b50505050565b62000f3762001031565b73ffffffffffffffffffffffffffffffffffffffff1662000f576200077f565b73ffffffffffffffffffffffffffffffffffffffff161462000fb0576040517f08c379a000000000000000000000000000000000000000000000000000000000815260040162000fa79062001783565b60405180910390fd5b600073ffffffffffffffffffffffffffffffffffffffff168173ffffffffffffffffffffffffffffffffffffffff16141562001023576040517f08c379a00000000000000000000000000000000000000000000000000000000081526004016200101a9062001761565b60405180910390fd5b6200102e8162001039565b50565b600033905090565b60008060009054906101000a900473ffffffffffffffffffffffffffffffffffffffff169050816000806101000a81548173ffffffffffffffffffffffffffffffffffffffff021916908373ffffffffffffffffffffffffffffffffffffffff1602179055508173ffffffffffffffffffffffffffffffffffffffff168173ffffffffffffffffffffffffffffffffffffffff167f8be0079c531659141344cd1fd0a4f28419497f9722a3daafe3b4186f6b6457e060405160405180910390a35050565b62001197816040516024016200111491906200173d565b6040516020818303038152906040527f41304fac000000000000000000000000000000000000000000000000000000007bffffffffffffffffffffffffffffffffffffffffffffffffffffffff19166020820180517bffffffffffffffffffffffffffffffffffffffffffffffffffffffff83818316178352505050506200119a565b50565b60008151905060006a636f6e736f6c652e6c6f679050602083016000808483855afa5050505050565b6130e78062001a8e83390190565b600081359050620011e28162001a3f565b92915050565b600081359050620011f98162001a59565b92915050565b60008083601f840112620012185762001217620019a2565b5b8235905067ffffffffffffffff8111156200123857620012376200199d565b5b602083019150836001820283011115620012575762001256620019a7565b5b9250929050565b6000813590506200126f8162001a73565b92915050565b6000602082840312156200128e576200128d620019b1565b5b60006200129e84828501620011d1565b91505092915050565b60008060408385031215620012c157620012c0620019b1565b5b6000620012d185828601620011d1565b9250506020620012e4858286016200125e565b9150509250929050565b600080600080600080600060c0888a03121562001310576200130f620019b1565b5b600088013567ffffffffffffffff811115620013315762001330620019ac565b5b6200133f8a828b01620011ff565b97509750506020620013548a828b016200125e565b9550506040620013678a828b01620011e8565b94505060606200137a8a828b01620011d1565b93505060806200138d8a828b01620011d1565b92505060a0620013a08a828b01620011d1565b91505092959891949750929550565b600060208284031215620013c857620013c7620019b1565b5b6000620013d8848285016200125e565b91505092915050565b620013ec8162001862565b82525050565b8082525050565b620014048162001876565b82525050565b60006200141782620017c2565b620014238185620017d8565b935062001435818560208601620018bb565b6200144081620019b6565b840191505092915050565b60006200145882620017c2565b620014648185620017e9565b935062001476818560208601620018bb565b80840191505092915050565b6000620014908385620017f4565b93506200149f838584620018ac565b620014aa83620019b6565b840190509392505050565b6000620014c282620017cd565b620014ce8185620017f4565b9350620014e0818560208601620018bb565b620014eb81620019b6565b840191505092915050565b600062001505602683620017f4565b91506200151282620019c7565b604082019050919050565b60006200152c602083620017f4565b9150620015398262001a16565b602082019050919050565b6200154f81620018a2565b82525050565b6200156081620018a2565b82525050565b60006200157482846200144b565b915081905092915050565b6000602082019050620015966000830184620013e1565b92915050565b6000604082019050620015b36000830185620013e1565b8181036020830152620015c781846200140a565b90509392505050565b6000602082019050620015e76000830184620013f2565b92915050565b6000604082019050620016046000830185620013f2565b62001613602083018462001555565b9392505050565b6000604082019050620016316000830185620013f9565b81810360208301526200164581846200140a565b90509392505050565b600060408201905081810360008301526200166b81858762001482565b90506200167c6020830184620013e1565b949350505050565b6000610140820190508181036000830152620016a2818d8f62001482565b9050620016b3602083018c62001544565b620016c2604083018b62001544565b620016d1606083018a620013f9565b620016e06080830189620013e1565b620016ef60a0830188620013e1565b620016fe60c0830187620013e1565b6200170d60e0830186620013e1565b6200171d610100830185620013e1565b6200172d610120830184620013e1565b9c9b505050505050505050505050565b60006020820190508181036000830152620017598184620014b5565b905092915050565b600060208201905081810360008301526200177c81620014f6565b9050919050565b600060208201905081810360008301526200179e816200151d565b9050919050565b6000602082019050620017bc600083018462001544565b92915050565b600081519050919050565b600081519050919050565b600082825260208201905092915050565b600081905092915050565b600082825260208201905092915050565b60006200181282620018a2565b91506200181f83620018a2565b9250827fffffffffffffffffffffffffffffffffffffffffffffffffffffffffffffffff038211156200185757620018566200193f565b5b828201905092915050565b60006200186f8262001882565b9050919050565b60008115159050919050565b600073ffffffffffffffffffffffffffffffffffffffff82169050919050565b6000819050919050565b82818337600083830152505050565b60005b83811015620018db578082015181840152602081019050620018be565b83811115620018eb576000848401525b50505050565b6000620018fe82620018a2565b91507fffffffffffffffffffffffffffffffffffffffffffffffffffffffffffffffff8214156200193457620019336200193f565b5b600182019050919050565b7f4e487b7100000000000000000000000000000000000000000000000000000000600052601160045260246000fd5b7f4e487b7100000000000000000000000000000000000000000000000000000000600052603260045260246000fd5b600080fd5b600080fd5b600080fd5b600080fd5b600080fd5b6000601f19601f8301169050919050565b7f4f776e61626c653a206e6577206f776e657220697320746865207a65726f206160008201527f6464726573730000000000000000000000000000000000000000000000000000602082015250565b7f4f776e61626c653a2063616c6c6572206973206e6f7420746865206f776e6572600082015250565b62001a4a8162001862565b811462001a5657600080fd5b50565b62001a648162001876565b811462001a7057600080fd5b50565b62001a7e81620018a2565b811462001a8a57600080fd5b5056fe6080604052604051620030e7380380620030e78339818101604052810190620000299190620006bb565b620000496200003d620000cf60201b60201c565b620000d760201b60201c565b60017fa3f0ad74e5423aebfd80d3ef4346578335a9a72aeaee59ff6cb3582b35133d5160001c6200007b919062000942565b60001b7fa3f0ad74e5423aebfd80d3ef4346578335a9a72aeaee59ff6cb3582b35133d5060001b14620000b357620000b262000a27565b5b620000c7828260006200019b60201b60201c565b505062000be0565b600033905090565b60008060009054906101000a900473ffffffffffffffffffffffffffffffffffffffff169050816000806101000a81548173ffffffffffffffffffffffffffffffffffffffff021916908373ffffffffffffffffffffffffffffffffffffffff1602179055508173ffffffffffffffffffffffffffffffffffffffff168173ffffffffffffffffffffffffffffffffffffffff167f8be0079c531659141344cd1fd0a4f28419497f9722a3daafe3b4186f6b6457e060405160405180910390a35050565b620001ac83620002a260201b60201c565b8273ffffffffffffffffffffffffffffffffffffffff167f1cf3b03a6cf19fa2baba4df148e9dcabedea7f8a5c07840e207e5c089be95d3e60405160405180910390a2600082511180620001fd5750805b156200029d576200029b8373ffffffffffffffffffffffffffffffffffffffff16635c60da1b6040518163ffffffff1660e01b815260040160206040518083038186803b1580156200024e57600080fd5b505afa15801562000263573d6000803e3d6000fd5b505050506040513d601f19601f8201168201806040525081019062000289919062000689565b836200045160201b620010561760201c565b505b505050565b620002b8816200048760201b620010831760201c565b620002fa576040517f08c379a0000000000000000000000000000000000000000000000000000000008152600401620002f1906200084b565b60405180910390fd5b620003918173ffffffffffffffffffffffffffffffffffffffff16635c60da1b6040518163ffffffff1660e01b815260040160206040518083038186803b1580156200034557600080fd5b505afa1580156200035a573d6000803e3d6000fd5b505050506040513d601f19601f8201168201806040525081019062000380919062000689565b6200048760201b620010831760201c565b620003d3576040517f08c379a0000000000000000000000000000000000000000000000000000000008152600401620003ca906200088f565b60405180910390fd5b806200040d7fa3f0ad74e5423aebfd80d3ef4346578335a9a72aeaee59ff6cb3582b35133d5060001b6200049a60201b620010961760201c565b60000160006101000a81548173ffffffffffffffffffffffffffffffffffffffff021916908373ffffffffffffffffffffffffffffffffffffffff16021790555050565b60606200047f8383604051806060016040528060278152602001620030c060279139620004a460201b60201c565b905092915050565b600080823b905060008111915050919050565b6000819050919050565b6060620004b7846200048760201b60201c565b620004f9576040517f08c379a0000000000000000000000000000000000000000000000000000000008152600401620004f0906200086d565b60405180910390fd5b6000808573ffffffffffffffffffffffffffffffffffffffff16856040516200052391906200080e565b600060405180830381855af49150503d806000811462000560576040519150601f19603f3d011682016040523d82523d6000602084013e62000565565b606091505b50915091506200057d8282866200058860201b60201c565b925050509392505050565b606083156200059a57829050620005ed565b600083511115620005ae5782518084602001fd5b816040517f08c379a0000000000000000000000000000000000000000000000000000000008152600401620005e4919062000827565b60405180910390fd5b9392505050565b60006200060b6200060584620008da565b620008b1565b9050828152602081018484840111156200062a576200062962000ab9565b5b62000637848285620009bb565b509392505050565b600081519050620006508162000bc6565b92915050565b600082601f8301126200066e576200066d62000ab4565b5b815162000680848260208601620005f4565b91505092915050565b600060208284031215620006a257620006a162000ac3565b5b6000620006b2848285016200063f565b91505092915050565b60008060408385031215620006d557620006d462000ac3565b5b6000620006e5858286016200063f565b925050602083015167ffffffffffffffff81111562000709576200070862000abe565b5b620007178582860162000656565b9150509250929050565b60006200072e8262000910565b6200073a818562000926565b93506200074c818560208601620009bb565b80840191505092915050565b600062000765826200091b565b62000771818562000931565b935062000783818560208601620009bb565b6200078e8162000ac8565b840191505092915050565b6000620007a860258362000931565b9150620007b58262000ad9565b604082019050919050565b6000620007cf60268362000931565b9150620007dc8262000b28565b604082019050919050565b6000620007f660308362000931565b9150620008038262000b77565b604082019050919050565b60006200081c828462000721565b915081905092915050565b6000602082019050818103600083015262000843818462000758565b905092915050565b60006020820190508181036000830152620008668162000799565b9050919050565b600060208201905081810360008301526200088881620007c0565b9050919050565b60006020820190508181036000830152620008aa81620007e7565b9050919050565b6000620008bd620008d0565b9050620008cb8282620009f1565b919050565b6000604051905090565b600067ffffffffffffffff821115620008f857620008f762000a85565b5b620009038262000ac8565b9050602081019050919050565b600081519050919050565b600081519050919050565b600081905092915050565b600082825260208201905092915050565b60006200094f82620009b1565b91506200095c83620009b1565b92508282101562000972576200097162000a56565b5b828203905092915050565b60006200098a8262000991565b9050919050565b600073ffffffffffffffffffffffffffffffffffffffff82169050919050565b6000819050919050565b60005b83811015620009db578082015181840152602081019050620009be565b83811115620009eb576000848401525b50505050565b620009fc8262000ac8565b810181811067ffffffffffffffff8211171562000a1e5762000a1d62000a85565b5b80604052505050565b7f4e487b7100000000000000000000000000000000000000000000000000000000600052600160045260246000fd5b7f4e487b7100000000000000000000000000000000000000000000000000000000600052601160045260246000fd5b7f4e487b7100000000000000000000000000000000000000000000000000000000600052604160045260246000fd5b600080fd5b600080fd5b600080fd5b600080fd5b6000601f19601f8301169050919050565b7f455243313936373a206e657720626561636f6e206973206e6f74206120636f6e60008201527f7472616374000000000000000000000000000000000000000000000000000000602082015250565b7f416464726573733a2064656c65676174652063616c6c20746f206e6f6e2d636f60008201527f6e74726163740000000000000000000000000000000000000000000000000000602082015250565b7f455243313936373a20626561636f6e20696d706c656d656e746174696f6e206960008201527f73206e6f74206120636f6e747261637400000000000000000000000000000000602082015250565b62000bd1816200097d565b811462000bdd57600080fd5b50565b6124d08062000bf06000396000f3fe6080604052600436106101695760003560e01c8063715018a6116100d157806393f3706c1161008a578063d547741f11610064578063d547741f14610593578063dc9a1535146105bc578063e2ec6ec3146105e7578063f2fde38b1461062457610178565b806393f3706c146105005780639b19251a1461052b578063a217fddf1461056857610178565b8063715018a6146103ee5780637b9417c8146104055780637eed33f114610442578063841abf6e1461046d5780638da5cb5b1461049857806391d14854146104c357610178565b8063286dd3f511610123578063286dd3f5146102de5780632f2ff15d1461031b57806336568abe1461034457806352e6e5f31461036d57806354fd4d501461039857806360c7dc47146103c357610178565b8062b2476f1461018257806301ffc9a7146101ad5780630c6f7959146101ea578063248a9ca31461022757806324953eaa14610264578063267175db146102a157610178565b366101785761017661064d565b005b61018061064d565b005b34801561018e57600080fd5b50610197610667565b6040516101a49190611d7e565b60405180910390f35b3480156101b957600080fd5b506101d460048036038101906101cf9190611b07565b61068d565b6040516101e19190611d99565b60405180910390f35b3480156101f657600080fd5b50610211600480360381019061020c9190611a11565b610707565b60405161021e9190611e91565b60405180910390f35b34801561023357600080fd5b5061024e60048036038101906102499190611a9a565b61072f565b60405161025b9190611db4565b60405180910390f35b34801561027057600080fd5b5061028b60048036038101906102869190611a51565b61074f565b6040516102989190611d99565b60405180910390f35b3480156102ad57600080fd5b506102c860048036038101906102c39190611b34565b610839565b6040516102d59190611d7e565b60405180910390f35b3480156102ea57600080fd5b50610305600480360381019061030091906119b7565b610878565b6040516103129190611d99565b60405180910390f35b34801561032757600080fd5b50610342600480360381019061033d9190611ac7565b6109fb565b005b34801561035057600080fd5b5061036b60048036038101906103669190611ac7565b610a24565b005b34801561037957600080fd5b50610382610aa7565b60405161038f9190611e91565b60405180910390f35b3480156103a457600080fd5b506103ad610aad565b6040516103ba9190611e91565b60405180910390f35b3480156103cf57600080fd5b506103d8610ab3565b6040516103e59190611e91565b60405180910390f35b3480156103fa57600080fd5b50610403610ab9565b005b34801561041157600080fd5b5061042c600480360381019061042791906119b7565b610b41565b6040516104399190611d99565b60405180910390f35b34801561044e57600080fd5b50610457610cc3565b6040516104649190611e91565b60405180910390f35b34801561047957600080fd5b50610482610cc9565b60405161048f9190611dcf565b60405180910390f35b3480156104a457600080fd5b506104ad610d57565b6040516104ba9190611d7e565b60405180910390f35b3480156104cf57600080fd5b506104ea60048036038101906104e59190611ac7565b610d80565b6040516104f79190611d99565b60405180910390f35b34801561050c57600080fd5b50610515610deb565b6040516105229190611d7e565b60405180910390f35b34801561053757600080fd5b50610552600480360381019061054d91906119b7565b610e11565b60405161055f9190611d99565b60405180910390f35b34801561057457600080fd5b5061057d610e31565b60405161058a9190611db4565b60405180910390f35b34801561059f57600080fd5b506105ba60048036038101906105b59190611ac7565b610e38565b005b3480156105c857600080fd5b506105d1610e61565b6040516105de9190611d99565b60405180910390f35b3480156105f357600080fd5b5061060e60048036038101906106099190611a51565b610e74565b60405161061b9190611d99565b60405180910390f35b34801561063057600080fd5b5061064b600480360381019061064691906119b7565b610f5e565b005b6106556110a0565b6106656106606110a2565b61112e565b565b601260009054906101000a900473ffffffffffffffffffffffffffffffffffffffff1681565b60007f7965db0b000000000000000000000000000000000000000000000000000000007bffffffffffffffffffffffffffffffffffffffffffffffffffffffff1916827bffffffffffffffffffffffffffffffffffffffffffffffffffffffff1916148061070057506106ff82611154565b5b9050919050565b600c602052816000526040600020816008811061072357600080fd5b01600091509150505481565b600060016000838152602001908152602001600020600101549050919050565b60006107596111be565b73ffffffffffffffffffffffffffffffffffffffff16610777610d57565b73ffffffffffffffffffffffffffffffffffffffff16146107cd576040517f08c379a00000000000000000000000000000000000000000000000000000000081526004016107c490611e31565b60405180910390fd5b60005b8251811015610833576107fc8382815181106107ef576107ee612203565b5b6020026020010151610878565b15610820576001600360008282546108149190611fea565b92505081905550600191505b808061082b9061215c565b9150506107d0565b50919050565b6009818154811061084957600080fd5b906000526020600020016000915054906101000a900473ffffffffffffffffffffffffffffffffffffffff1681565b60006108826111be565b73ffffffffffffffffffffffffffffffffffffffff166108a0610d57565b73ffffffffffffffffffffffffffffffffffffffff16146108f6576040517f08c379a00000000000000000000000000000000000000000000000000000000081526004016108ed90611e31565b60405180910390fd5b600260008373ffffffffffffffffffffffffffffffffffffffff1673ffffffffffffffffffffffffffffffffffffffff16815260200190815260200160002060009054906101000a900460ff16156109f6576000600260008473ffffffffffffffffffffffffffffffffffffffff1673ffffffffffffffffffffffffffffffffffffffff16815260200190815260200160002060006101000a81548160ff0219169083151502179055507ff1abf01a1043b7c244d128e8595cf0c1d10743b022b03a02dffd8ca3bf729f5a826040516109cf9190611d7e565b60405180910390a16001600360008282546109ea9190611fea565b92505081905550600190505b919050565b610a048261072f565b610a1581610a106111be565b6111c6565b610a1f8383611263565b505050565b610a2c6111be565b73ffffffffffffffffffffffffffffffffffffffff168173ffffffffffffffffffffffffffffffffffffffff1614610a99576040517f08c379a0000000000000000000000000000000000000000000000000000000008152600401610a9090611e71565b60405180910390fd5b610aa38282611343565b5050565b60085481565b60055481565b600f5481565b610ac16111be565b73ffffffffffffffffffffffffffffffffffffffff16610adf610d57565b73ffffffffffffffffffffffffffffffffffffffff1614610b35576040517f08c379a0000000000000000000000000000000000000000000000000000000008152600401610b2c90611e31565b60405180910390fd5b610b3f6000611425565b565b6000610b4b6111be565b73ffffffffffffffffffffffffffffffffffffffff16610b69610d57565b73ffffffffffffffffffffffffffffffffffffffff1614610bbf576040517f08c379a0000000000000000000000000000000000000000000000000000000008152600401610bb690611e31565b60405180910390fd5b600260008373ffffffffffffffffffffffffffffffffffffffff1673ffffffffffffffffffffffffffffffffffffffff16815260200190815260200160002060009054906101000a900460ff16610cbe576001600260008473ffffffffffffffffffffffffffffffffffffffff1673ffffffffffffffffffffffffffffffffffffffff16815260200190815260200160002060006101000a81548160ff0219169083151502179055507fd1bba68c128cc3f427e5831b3c6f99f480b6efa6b9e80c757768f6124158cc3f82604051610c979190611d7e565b60405180910390a1600160036000828254610cb29190611f3a565b92505081905550600190505b919050565b60075481565b60068054610cd6906120f9565b80601f0160208091040260200160405190810160405280929190818152602001828054610d02906120f9565b8015610d4f5780601f10610d2457610100808354040283529160200191610d4f565b820191906000526020600020905b815481529060010190602001808311610d3257829003601f168201915b505050505081565b60008060009054906101000a900473ffffffffffffffffffffffffffffffffffffffff16905090565b60006001600084815260200190815260200160002060000160008373ffffffffffffffffffffffffffffffffffffffff1673ffffffffffffffffffffffffffffffffffffffff16815260200190815260200160002060009054906101000a900460ff16905092915050565b601160009054906101000a900473ffffffffffffffffffffffffffffffffffffffff1681565b60026020528060005260406000206000915054906101000a900460ff1681565b6000801b81565b610e418261072f565b610e5281610e4d6111be565b6111c6565b610e5c8383611343565b505050565b600460009054906101000a900460ff1681565b6000610e7e6111be565b73ffffffffffffffffffffffffffffffffffffffff16610e9c610d57565b73ffffffffffffffffffffffffffffffffffffffff1614610ef2576040517f08c379a0000000000000000000000000000000000000000000000000000000008152600401610ee990611e31565b60405180910390fd5b60005b8251811015610f5857610f21838281518110610f1457610f13612203565b5b6020026020010151610b41565b15610f4557600160036000828254610f399190611f3a565b92505081905550600191505b8080610f509061215c565b915050610ef5565b50919050565b610f666111be565b73ffffffffffffffffffffffffffffffffffffffff16610f84610d57565b73ffffffffffffffffffffffffffffffffffffffff1614610fda576040517f08c379a0000000000000000000000000000000000000000000000000000000008152600401610fd190611e31565b60405180910390fd5b600073ffffffffffffffffffffffffffffffffffffffff168173ffffffffffffffffffffffffffffffffffffffff16141561104a576040517f08c379a000000000000000000000000000000000000000000000000000000000815260040161104190611e11565b60405180910390fd5b61105381611425565b50565b606061107b8383604051806060016040528060278152602001612474602791396114e9565b905092915050565b600080823b905060008111915050919050565b6000819050919050565b565b60006110ac6115b6565b73ffffffffffffffffffffffffffffffffffffffff16635c60da1b6040518163ffffffff1660e01b815260040160206040518083038186803b1580156110f157600080fd5b505afa158015611105573d6000803e3d6000fd5b505050506040513d601f19601f8201168201806040525081019061112991906119e4565b905090565b3660008037600080366000845af43d6000803e806000811461114f573d6000f35b3d6000fd5b60007f01ffc9a7000000000000000000000000000000000000000000000000000000007bffffffffffffffffffffffffffffffffffffffffffffffffffffffff1916827bffffffffffffffffffffffffffffffffffffffffffffffffffffffff1916149050919050565b600033905090565b6111d08282610d80565b61125f576111f58173ffffffffffffffffffffffffffffffffffffffff16601461160d565b6112038360001c602061160d565b604051602001611214929190611d44565b6040516020818303038152906040526040517f08c379a00000000000000000000000000000000000000000000000000000000081526004016112569190611dcf565b60405180910390fd5b5050565b61126d8282610d80565b61133f57600180600084815260200190815260200160002060000160008373ffffffffffffffffffffffffffffffffffffffff1673ffffffffffffffffffffffffffffffffffffffff16815260200190815260200160002060006101000a81548160ff0219169083151502179055506112e46111be565b73ffffffffffffffffffffffffffffffffffffffff168173ffffffffffffffffffffffffffffffffffffffff16837f2f8788117e7eff1d82e926ec794901d17c78024a50270940304540a733656f0d60405160405180910390a45b5050565b61134d8282610d80565b156114215760006001600084815260200190815260200160002060000160008373ffffffffffffffffffffffffffffffffffffffff1673ffffffffffffffffffffffffffffffffffffffff16815260200190815260200160002060006101000a81548160ff0219169083151502179055506113c66111be565b73ffffffffffffffffffffffffffffffffffffffff168173ffffffffffffffffffffffffffffffffffffffff16837ff6391f5c32d9c69d2a47ea670b442974b53935d1edc7fd64eb21e047a839171b60405160405180910390a45b5050565b60008060009054906101000a900473ffffffffffffffffffffffffffffffffffffffff169050816000806101000a81548173ffffffffffffffffffffffffffffffffffffffff021916908373ffffffffffffffffffffffffffffffffffffffff1602179055508173ffffffffffffffffffffffffffffffffffffffff168173ffffffffffffffffffffffffffffffffffffffff167f8be0079c531659141344cd1fd0a4f28419497f9722a3daafe3b4186f6b6457e060405160405180910390a35050565b60606114f484611083565b611533576040517f08c379a000000000000000000000000000000000000000000000000000000000815260040161152a90611e51565b60405180910390fd5b6000808573ffffffffffffffffffffffffffffffffffffffff168560405161155b9190611d2d565b600060405180830381855af49150503d8060008114611596576040519150601f19603f3d011682016040523d82523d6000602084013e61159b565b606091505b50915091506115ab828286611849565b925050509392505050565b60006115e47fa3f0ad74e5423aebfd80d3ef4346578335a9a72aeaee59ff6cb3582b35133d5060001b611096565b60000160009054906101000a900473ffffffffffffffffffffffffffffffffffffffff16905090565b6060600060028360026116209190611f90565b61162a9190611f3a565b67ffffffffffffffff81111561164357611642612232565b5b6040519080825280601f01601f1916602001820160405280156116755781602001600182028036833780820191505090505b5090507f3000000000000000000000000000000000000000000000000000000000000000816000815181106116ad576116ac612203565b5b60200101907effffffffffffffffffffffffffffffffffffffffffffffffffffffffffffff1916908160001a9053507f78000000000000000000000000000000000000000000000000000000000000008160018151811061171157611710612203565b5b60200101907effffffffffffffffffffffffffffffffffffffffffffffffffffffffffffff1916908160001a905350600060018460026117519190611f90565b61175b9190611f3a565b90505b60018111156117fb577f3031323334353637383961626364656600000000000000000000000000000000600f86166010811061179d5761179c612203565b5b1a60f81b8282815181106117b4576117b3612203565b5b60200101907effffffffffffffffffffffffffffffffffffffffffffffffffffffffffffff1916908160001a905350600485901c9450806117f4906120cf565b905061175e565b506000841461183f576040517f08c379a000000000000000000000000000000000000000000000000000000000815260040161183690611df1565b60405180910390fd5b8091505092915050565b60608315611859578290506118a9565b60008351111561186c5782518084602001fd5b816040517f08c379a00000000000000000000000000000000000000000000000000000000081526004016118a09190611dcf565b60405180910390fd5b9392505050565b60006118c36118be84611ed1565b611eac565b905080838252602082019050828560208602820111156118e6576118e5612266565b5b60005b8581101561191657816118fc8882611920565b8452602084019350602083019250506001810190506118e9565b5050509392505050565b60008135905061192f81612417565b92915050565b60008151905061194481612417565b92915050565b600082601f83011261195f5761195e612261565b5b813561196f8482602086016118b0565b91505092915050565b6000813590506119878161242e565b92915050565b60008135905061199c81612445565b92915050565b6000813590506119b18161245c565b92915050565b6000602082840312156119cd576119cc612270565b5b60006119db84828501611920565b91505092915050565b6000602082840312156119fa576119f9612270565b5b6000611a0884828501611935565b91505092915050565b60008060408385031215611a2857611a27612270565b5b6000611a3685828601611920565b9250506020611a47858286016119a2565b9150509250929050565b600060208284031215611a6757611a66612270565b5b600082013567ffffffffffffffff811115611a8557611a8461226b565b5b611a918482850161194a565b91505092915050565b600060208284031215611ab057611aaf612270565b5b6000611abe84828501611978565b91505092915050565b60008060408385031215611ade57611add612270565b5b6000611aec85828601611978565b9250506020611afd85828601611920565b9150509250929050565b600060208284031215611b1d57611b1c612270565b5b6000611b2b8482850161198d565b91505092915050565b600060208284031215611b4a57611b49612270565b5b6000611b58848285016119a2565b91505092915050565b611b6a8161201e565b82525050565b611b7981612030565b82525050565b611b888161203c565b82525050565b6000611b9982611efd565b611ba38185611f13565b9350611bb381856020860161209c565b80840191505092915050565b6000611bca82611f08565b611bd48185611f1e565b9350611be481856020860161209c565b611bed81612275565b840191505092915050565b6000611c0382611f08565b611c0d8185611f2f565b9350611c1d81856020860161209c565b80840191505092915050565b6000611c36602083611f1e565b9150611c4182612286565b602082019050919050565b6000611c59602683611f1e565b9150611c64826122af565b604082019050919050565b6000611c7c602083611f1e565b9150611c87826122fe565b602082019050919050565b6000611c9f602683611f1e565b9150611caa82612327565b604082019050919050565b6000611cc2601783611f2f565b9150611ccd82612376565b601782019050919050565b6000611ce5601183611f2f565b9150611cf08261239f565b601182019050919050565b6000611d08602f83611f1e565b9150611d13826123c8565b604082019050919050565b611d2781612092565b82525050565b6000611d398284611b8e565b915081905092915050565b6000611d4f82611cb5565b9150611d5b8285611bf8565b9150611d6682611cd8565b9150611d728284611bf8565b91508190509392505050565b6000602082019050611d936000830184611b61565b92915050565b6000602082019050611dae6000830184611b70565b92915050565b6000602082019050611dc96000830184611b7f565b92915050565b60006020820190508181036000830152611de98184611bbf565b905092915050565b60006020820190508181036000830152611e0a81611c29565b9050919050565b60006020820190508181036000830152611e2a81611c4c565b9050919050565b60006020820190508181036000830152611e4a81611c6f565b9050919050565b60006020820190508181036000830152611e6a81611c92565b9050919050565b60006020820190508181036000830152611e8a81611cfb565b9050919050565b6000602082019050611ea66000830184611d1e565b92915050565b6000611eb6611ec7565b9050611ec2828261212b565b919050565b6000604051905090565b600067ffffffffffffffff821115611eec57611eeb612232565b5b602082029050602081019050919050565b600081519050919050565b600081519050919050565b600081905092915050565b600082825260208201905092915050565b600081905092915050565b6000611f4582612092565b9150611f5083612092565b9250827fffffffffffffffffffffffffffffffffffffffffffffffffffffffffffffffff03821115611f8557611f846121a5565b5b828201905092915050565b6000611f9b82612092565b9150611fa683612092565b9250817fffffffffffffffffffffffffffffffffffffffffffffffffffffffffffffffff0483118215151615611fdf57611fde6121a5565b5b828202905092915050565b6000611ff582612092565b915061200083612092565b925082821015612013576120126121a5565b5b828203905092915050565b600061202982612072565b9050919050565b60008115159050919050565b6000819050919050565b60007fffffffff0000000000000000000000000000000000000000000000000000000082169050919050565b600073ffffffffffffffffffffffffffffffffffffffff82169050919050565b6000819050919050565b60005b838110156120ba57808201518184015260208101905061209f565b838111156120c9576000848401525b50505050565b60006120da82612092565b915060008214156120ee576120ed6121a5565b5b600182039050919050565b6000600282049050600182168061211157607f821691505b60208210811415612125576121246121d4565b5b50919050565b61213482612275565b810181811067ffffffffffffffff8211171561215357612152612232565b5b80604052505050565b600061216782612092565b91507fffffffffffffffffffffffffffffffffffffffffffffffffffffffffffffffff82141561219a576121996121a5565b5b600182019050919050565b7f4e487b7100000000000000000000000000000000000000000000000000000000600052601160045260246000fd5b7f4e487b7100000000000000000000000000000000000000000000000000000000600052602260045260246000fd5b7f4e487b7100000000000000000000000000000000000000000000000000000000600052603260045260246000fd5b7f4e487b7100000000000000000000000000000000000000000000000000000000600052604160045260246000fd5b600080fd5b600080fd5b600080fd5b600080fd5b6000601f19601f8301169050919050565b7f537472696e67733a20686578206c656e67746820696e73756666696369656e74600082015250565b7f4f776e61626c653a206e6577206f776e657220697320746865207a65726f206160008201527f6464726573730000000000000000000000000000000000000000000000000000602082015250565b7f4f776e61626c653a2063616c6c6572206973206e6f7420746865206f776e6572600082015250565b7f416464726573733a2064656c65676174652063616c6c20746f206e6f6e2d636f60008201527f6e74726163740000000000000000000000000000000000000000000000000000602082015250565b7f416363657373436f6e74726f6c3a206163636f756e7420000000000000000000600082015250565b7f206973206d697373696e6720726f6c6520000000000000000000000000000000600082015250565b7f416363657373436f6e74726f6c3a2063616e206f6e6c792072656e6f756e636560008201527f20726f6c657320666f722073656c660000000000000000000000000000000000602082015250565b6124208161201e565b811461242b57600080fd5b50565b6124378161203c565b811461244257600080fd5b50565b61244e81612046565b811461245957600080fd5b50565b61246581612092565b811461247057600080fd5b5056fe416464726573733a206c6f772d6c6576656c2064656c65676174652063616c6c206661696c6564a26469706673582212200fad1575107ba47cb56e5a1988a13fe5583f0424f88039a3ec33e44b253147be64736f6c63430008070033416464726573733a206c6f772d6c6576656c2064656c65676174652063616c6c206661696c656473657474696e67206c6561677565207363686564756c6520696e206c65616775656d616b6572a26469706673582212206f481652e545f1c17d8febc14b7aacf04637728436fd373424959e79398ca1d564736f6c63430008070033608060405234801561001057600080fd5b5060405162000a9138038062000a91833981810160405281019061003491906101ef565b61005061004561006560201b60201c565b61006d60201b60201c565b61005f8161013160201b60201c565b5061030d565b600033905090565b60008060009054906101000a900473ffffffffffffffffffffffffffffffffffffffff169050816000806101000a81548173ffffffffffffffffffffffffffffffffffffffff021916908373ffffffffffffffffffffffffffffffffffffffff1602179055508173ffffffffffffffffffffffffffffffffffffffff168173ffffffffffffffffffffffffffffffffffffffff167f8be0079c531659141344cd1fd0a4f28419497f9722a3daafe3b4186f6b6457e060405160405180910390a35050565b610144816101c760201b6103781760201c565b610183576040517f08c379a000000000000000000000000000000000000000000000000000000000815260040161017a9061023f565b60405180910390fd5b80600160006101000a81548173ffffffffffffffffffffffffffffffffffffffff021916908373ffffffffffffffffffffffffffffffffffffffff16021790555050565b600080823b905060008111915050919050565b6000815190506101e9816102f6565b92915050565b600060208284031215610205576102046102a2565b5b6000610213848285016101da565b91505092915050565b600061022960338361025f565b9150610234826102a7565b604082019050919050565b600060208201905081810360008301526102588161021c565b9050919050565b600082825260208201905092915050565b600061027b82610282565b9050919050565b600073ffffffffffffffffffffffffffffffffffffffff82169050919050565b600080fd5b7f5570677261646561626c65426561636f6e3a20696d706c656d656e746174696f60008201527f6e206973206e6f74206120636f6e747261637400000000000000000000000000602082015250565b6102ff81610270565b811461030a57600080fd5b50565b610774806200031d6000396000f3fe608060405234801561001057600080fd5b50600436106100575760003560e01c80633659cfe61461005c5780635c60da1b14610078578063715018a6146100965780638da5cb5b146100a0578063f2fde38b146100be575b600080fd5b610076600480360381019061007191906104f8565b6100da565b005b6100806101a5565b60405161008d919061059d565b60405180910390f35b61009e6101cf565b005b6100a8610257565b6040516100b5919061059d565b60405180910390f35b6100d860048036038101906100d391906104f8565b610280565b005b6100e261038b565b73ffffffffffffffffffffffffffffffffffffffff16610100610257565b73ffffffffffffffffffffffffffffffffffffffff1614610156576040517f08c379a000000000000000000000000000000000000000000000000000000000815260040161014d906105f8565b60405180910390fd5b61015f81610393565b8073ffffffffffffffffffffffffffffffffffffffff167fbc7cd75a20ee27fd9adebab32041f755214dbc6bffa90cc0225b39da2e5c2d3b60405160405180910390a250565b6000600160009054906101000a900473ffffffffffffffffffffffffffffffffffffffff16905090565b6101d761038b565b73ffffffffffffffffffffffffffffffffffffffff166101f5610257565b73ffffffffffffffffffffffffffffffffffffffff161461024b576040517f08c379a0000000000000000000000000000000000000000000000000000000008152600401610242906105f8565b60405180910390fd5b610255600061041f565b565b60008060009054906101000a900473ffffffffffffffffffffffffffffffffffffffff16905090565b61028861038b565b73ffffffffffffffffffffffffffffffffffffffff166102a6610257565b73ffffffffffffffffffffffffffffffffffffffff16146102fc576040517f08c379a00000000000000000000000000000000000000000000000000000000081526004016102f3906105f8565b60405180910390fd5b600073ffffffffffffffffffffffffffffffffffffffff168173ffffffffffffffffffffffffffffffffffffffff16141561036c576040517f08c379a0000000000000000000000000000000000000000000000000000000008152600401610363906105b8565b60405180910390fd5b6103758161041f565b50565b600080823b905060008111915050919050565b600033905090565b61039c81610378565b6103db576040517f08c379a00000000000000000000000000000000000000000000000000000000081526004016103d2906105d8565b60405180910390fd5b80600160006101000a81548173ffffffffffffffffffffffffffffffffffffffff021916908373ffffffffffffffffffffffffffffffffffffffff16021790555050565b60008060009054906101000a900473ffffffffffffffffffffffffffffffffffffffff169050816000806101000a81548173ffffffffffffffffffffffffffffffffffffffff021916908373ffffffffffffffffffffffffffffffffffffffff1602179055508173ffffffffffffffffffffffffffffffffffffffff168173ffffffffffffffffffffffffffffffffffffffff167f8be0079c531659141344cd1fd0a4f28419497f9722a3daafe3b4186f6b6457e060405160405180910390a35050565b6000813590506104f281610727565b92915050565b60006020828403121561050e5761050d61065b565b5b600061051c848285016104e3565b91505092915050565b61052e81610629565b82525050565b6000610541602683610618565b915061054c82610660565b604082019050919050565b6000610564603383610618565b915061056f826106af565b604082019050919050565b6000610587602083610618565b9150610592826106fe565b602082019050919050565b60006020820190506105b26000830184610525565b92915050565b600060208201905081810360008301526105d181610534565b9050919050565b600060208201905081810360008301526105f181610557565b9050919050565b600060208201905081810360008301526106118161057a565b9050919050565b600082825260208201905092915050565b60006106348261063b565b9050919050565b600073ffffffffffffffffffffffffffffffffffffffff82169050919050565b600080fd5b7f4f776e61626c653a206e6577206f776e657220697320746865207a65726f206160008201527f6464726573730000000000000000000000000000000000000000000000000000602082015250565b7f5570677261646561626c65426561636f6e3a20696d706c656d656e746174696f60008201527f6e206973206e6f74206120636f6e747261637400000000000000000000000000602082015250565b7f4f776e61626c653a2063616c6c6572206973206e6f7420746865206f776e6572600082015250565b61073081610629565b811461073b57600080fd5b5056fea2646970667358221220f14c1e123fc6650c2510ce92a5938ce8dbd619e20ec5ceb7ad4526f9ccdb6aca64736f6c6343000807003360806040523480156200001157600080fd5b506040518060400160405280601081526020017f546573742052696e6b65792055534443000000000000000000000000000000008152506040518060400160405280600581526020017f54555344430000000000000000000000000000000000000000000000000000008152508160039080519060200190620000969291906200024e565b508060049080519060200190620000af9291906200024e565b505050620000c5336064620000cb60201b60201c565b620004aa565b600073ffffffffffffffffffffffffffffffffffffffff168273ffffffffffffffffffffffffffffffffffffffff1614156200013e576040517f08c379a0000000000000000000000000000000000000000000000000000000008152600401620001359062000336565b60405180910390fd5b62000152600083836200024460201b60201c565b806002600082825462000166919062000386565b92505081905550806000808473ffffffffffffffffffffffffffffffffffffffff1673ffffffffffffffffffffffffffffffffffffffff1681526020019081526020016000206000828254620001bd919062000386565b925050819055508173ffffffffffffffffffffffffffffffffffffffff16600073ffffffffffffffffffffffffffffffffffffffff167fddf252ad1be2c89b69c2b068fc378daa952ba7f163c4a11628f55a4df523b3ef8360405162000224919062000358565b60405180910390a362000240600083836200024960201b60201c565b5050565b505050565b505050565b8280546200025c90620003ed565b90600052602060002090601f016020900481019282620002805760008555620002cc565b82601f106200029b57805160ff1916838001178555620002cc565b82800160010185558215620002cc579182015b82811115620002cb578251825591602001919060010190620002ae565b5b509050620002db9190620002df565b5090565b5b80821115620002fa576000816000905550600101620002e0565b5090565b60006200030d601f8362000375565b91506200031a8262000481565b602082019050919050565b6200033081620003e3565b82525050565b600060208201905081810360008301526200035181620002fe565b9050919050565b60006020820190506200036f600083018462000325565b92915050565b600082825260208201905092915050565b60006200039382620003e3565b9150620003a083620003e3565b9250827fffffffffffffffffffffffffffffffffffffffffffffffffffffffffffffffff03821115620003d857620003d762000423565b5b828201905092915050565b6000819050919050565b600060028204905060018216806200040657607f821691505b602082108114156200041d576200041c62000452565b5b50919050565b7f4e487b7100000000000000000000000000000000000000000000000000000000600052601160045260246000fd5b7f4e487b7100000000000000000000000000000000000000000000000000000000600052602260045260246000fd5b7f45524332303a206d696e7420746f20746865207a65726f206164647265737300600082015250565b6113aa80620004ba6000396000f3fe608060405234801561001057600080fd5b50600436106100a95760003560e01c80633950935111610071578063395093511461016857806370a082311461019857806395d89b41146101c8578063a457c2d7146101e6578063a9059cbb14610216578063dd62ed3e14610246576100a9565b806306fdde03146100ae578063095ea7b3146100cc57806318160ddd146100fc57806323b872dd1461011a578063313ce5671461014a575b600080fd5b6100b6610276565b6040516100c39190610e45565b60405180910390f35b6100e660048036038101906100e19190610c8f565b610308565b6040516100f39190610e2a565b60405180910390f35b610104610326565b6040516101119190610f47565b60405180910390f35b610134600480360381019061012f9190610c3c565b610330565b6040516101419190610e2a565b60405180910390f35b610152610428565b60405161015f9190610f62565b60405180910390f35b610182600480360381019061017d9190610c8f565b610431565b60405161018f9190610e2a565b60405180910390f35b6101b260048036038101906101ad9190610bcf565b6104dd565b6040516101bf9190610f47565b60405180910390f35b6101d0610525565b6040516101dd9190610e45565b60405180910390f35b61020060048036038101906101fb9190610c8f565b6105b7565b60405161020d9190610e2a565b60405180910390f35b610230600480360381019061022b9190610c8f565b6106a2565b60405161023d9190610e2a565b60405180910390f35b610260600480360381019061025b9190610bfc565b6106c0565b60405161026d9190610f47565b60405180910390f35b60606003805461028590611077565b80601f01602080910402602001604051908101604052809291908181526020018280546102b190611077565b80156102fe5780601f106102d3576101008083540402835291602001916102fe565b820191906000526020600020905b8154815290600101906020018083116102e157829003601f168201915b5050505050905090565b600061031c610315610747565b848461074f565b6001905092915050565b6000600254905090565b600061033d84848461091a565b6000600160008673ffffffffffffffffffffffffffffffffffffffff1673ffffffffffffffffffffffffffffffffffffffff1681526020019081526020016000206000610388610747565b73ffffffffffffffffffffffffffffffffffffffff1673ffffffffffffffffffffffffffffffffffffffff16815260200190815260200160002054905082811015610408576040517f08c379a00000000000000000000000000000000000000000000000000000000081526004016103ff90610ec7565b60405180910390fd5b61041c85610414610747565b85840361074f565b60019150509392505050565b60006012905090565b60006104d361043e610747565b84846001600061044c610747565b73ffffffffffffffffffffffffffffffffffffffff1673ffffffffffffffffffffffffffffffffffffffff16815260200190815260200160002060008873ffffffffffffffffffffffffffffffffffffffff1673ffffffffffffffffffffffffffffffffffffffff168152602001908152602001600020546104ce9190610f99565b61074f565b6001905092915050565b60008060008373ffffffffffffffffffffffffffffffffffffffff1673ffffffffffffffffffffffffffffffffffffffff168152602001908152602001600020549050919050565b60606004805461053490611077565b80601f016020809104026020016040519081016040528092919081815260200182805461056090611077565b80156105ad5780601f10610582576101008083540402835291602001916105ad565b820191906000526020600020905b81548152906001019060200180831161059057829003601f168201915b5050505050905090565b600080600160006105c6610747565b73ffffffffffffffffffffffffffffffffffffffff1673ffffffffffffffffffffffffffffffffffffffff16815260200190815260200160002060008573ffffffffffffffffffffffffffffffffffffffff1673ffffffffffffffffffffffffffffffffffffffff16815260200190815260200160002054905082811015610683576040517f08c379a000000000000000000000000000000000000000000000000000000000815260040161067a90610f27565b60405180910390fd5b61069761068e610747565b8585840361074f565b600191505092915050565b60006106b66106af610747565b848461091a565b6001905092915050565b6000600160008473ffffffffffffffffffffffffffffffffffffffff1673ffffffffffffffffffffffffffffffffffffffff16815260200190815260200160002060008373ffffffffffffffffffffffffffffffffffffffff1673ffffffffffffffffffffffffffffffffffffffff16815260200190815260200160002054905092915050565b600033905090565b600073ffffffffffffffffffffffffffffffffffffffff168373ffffffffffffffffffffffffffffffffffffffff1614156107bf576040517f08c379a00000000000000000000000000000000000000000000000000000000081526004016107b690610f07565b60405180910390fd5b600073ffffffffffffffffffffffffffffffffffffffff168273ffffffffffffffffffffffffffffffffffffffff16141561082f576040517f08c379a000000000000000000000000000000000000000000000000000000000815260040161082690610e87565b60405180910390fd5b80600160008573ffffffffffffffffffffffffffffffffffffffff1673ffffffffffffffffffffffffffffffffffffffff16815260200190815260200160002060008473ffffffffffffffffffffffffffffffffffffffff1673ffffffffffffffffffffffffffffffffffffffff168152602001908152602001600020819055508173ffffffffffffffffffffffffffffffffffffffff168373ffffffffffffffffffffffffffffffffffffffff167f8c5be1e5ebec7d5bd14f71427d1e84f3dd0314c0f7b2291e5b200ac8c7c3b9258360405161090d9190610f47565b60405180910390a3505050565b600073ffffffffffffffffffffffffffffffffffffffff168373ffffffffffffffffffffffffffffffffffffffff16141561098a576040517f08c379a000000000000000000000000000000000000000000000000000000000815260040161098190610ee7565b60405180910390fd5b600073ffffffffffffffffffffffffffffffffffffffff168273ffffffffffffffffffffffffffffffffffffffff1614156109fa576040517f08c379a00000000000000000000000000000000000000000000000000000000081526004016109f190610e67565b60405180910390fd5b610a05838383610b9b565b60008060008573ffffffffffffffffffffffffffffffffffffffff1673ffffffffffffffffffffffffffffffffffffffff16815260200190815260200160002054905081811015610a8b576040517f08c379a0000000000000000000000000000000000000000000000000000000008152600401610a8290610ea7565b60405180910390fd5b8181036000808673ffffffffffffffffffffffffffffffffffffffff1673ffffffffffffffffffffffffffffffffffffffff16815260200190815260200160002081905550816000808573ffffffffffffffffffffffffffffffffffffffff1673ffffffffffffffffffffffffffffffffffffffff1681526020019081526020016000206000828254610b1e9190610f99565b925050819055508273ffffffffffffffffffffffffffffffffffffffff168473ffffffffffffffffffffffffffffffffffffffff167fddf252ad1be2c89b69c2b068fc378daa952ba7f163c4a11628f55a4df523b3ef84604051610b829190610f47565b60405180910390a3610b95848484610ba0565b50505050565b505050565b505050565b600081359050610bb481611346565b92915050565b600081359050610bc98161135d565b92915050565b600060208284031215610be557610be4611107565b5b6000610bf384828501610ba5565b91505092915050565b60008060408385031215610c1357610c12611107565b5b6000610c2185828601610ba5565b9250506020610c3285828601610ba5565b9150509250929050565b600080600060608486031215610c5557610c54611107565b5b6000610c6386828701610ba5565b9350506020610c7486828701610ba5565b9250506040610c8586828701610bba565b9150509250925092565b60008060408385031215610ca657610ca5611107565b5b6000610cb485828601610ba5565b9250506020610cc585828601610bba565b9150509250929050565b610cd881611001565b82525050565b6000610ce982610f7d565b610cf38185610f88565b9350610d03818560208601611044565b610d0c8161110c565b840191505092915050565b6000610d24602383610f88565b9150610d2f8261111d565b604082019050919050565b6000610d47602283610f88565b9150610d528261116c565b604082019050919050565b6000610d6a602683610f88565b9150610d75826111bb565b604082019050919050565b6000610d8d602883610f88565b9150610d988261120a565b604082019050919050565b6000610db0602583610f88565b9150610dbb82611259565b604082019050919050565b6000610dd3602483610f88565b9150610dde826112a8565b604082019050919050565b6000610df6602583610f88565b9150610e01826112f7565b604082019050919050565b610e158161102d565b82525050565b610e2481611037565b82525050565b6000602082019050610e3f6000830184610ccf565b92915050565b60006020820190508181036000830152610e5f8184610cde565b905092915050565b60006020820190508181036000830152610e8081610d17565b9050919050565b60006020820190508181036000830152610ea081610d3a565b9050919050565b60006020820190508181036000830152610ec081610d5d565b9050919050565b60006020820190508181036000830152610ee081610d80565b9050919050565b60006020820190508181036000830152610f0081610da3565b9050919050565b60006020820190508181036000830152610f2081610dc6565b9050919050565b60006020820190508181036000830152610f4081610de9565b9050919050565b6000602082019050610f5c6000830184610e0c565b92915050565b6000602082019050610f776000830184610e1b565b92915050565b600081519050919050565b600082825260208201905092915050565b6000610fa48261102d565b9150610faf8361102d565b9250827fffffffffffffffffffffffffffffffffffffffffffffffffffffffffffffffff03821115610fe457610fe36110a9565b5b828201905092915050565b6000610ffa8261100d565b9050919050565b60008115159050919050565b600073ffffffffffffffffffffffffffffffffffffffff82169050919050565b6000819050919050565b600060ff82169050919050565b60005b83811015611062578082015181840152602081019050611047565b83811115611071576000848401525b50505050565b6000600282049050600182168061108f57607f821691505b602082108114156110a3576110a26110d8565b5b50919050565b7f4e487b7100000000000000000000000000000000000000000000000000000000600052601160045260246000fd5b7f4e487b7100000000000000000000000000000000000000000000000000000000600052602260045260246000fd5b600080fd5b6000601f19601f8301169050919050565b7f45524332303a207472616e7366657220746f20746865207a65726f206164647260008201527f6573730000000000000000000000000000000000000000000000000000000000602082015250565b7f45524332303a20617070726f766520746f20746865207a65726f20616464726560008201527f7373000000000000000000000000000000000000000000000000000000000000602082015250565b7f45524332303a207472616e7366657220616d6f756e742065786365656473206260008201527f616c616e63650000000000000000000000000000000000000000000000000000602082015250565b7f45524332303a207472616e7366657220616d6f756e742065786365656473206160008201527f6c6c6f77616e6365000000000000000000000000000000000000000000000000602082015250565b7f45524332303a207472616e736665722066726f6d20746865207a65726f20616460008201527f6472657373000000000000000000000000000000000000000000000000000000602082015250565b7f45524332303a20617070726f76652066726f6d20746865207a65726f2061646460008201527f7265737300000000000000000000000000000000000000000000000000000000602082015250565b7f45524332303a2064656372656173656420616c6c6f77616e63652062656c6f7760008201527f207a65726f000000000000000000000000000000000000000000000000000000602082015250565b61134f81610fef565b811461135a57600080fd5b50565b6113668161102d565b811461137157600080fd5b5056fea2646970667358221220ff48027de6df42d9723cac713d602f0f08852bd39a7de16aa3318f77aa8c7c4164736f6c63430008070033",
  "linkReferences": {
    "contracts/LeagueMakerLibrary.sol": {
      "LeagueMakerLibrary": [
        {
          "length": 20,
          "start": 1736
        },
        {
          "length": 20,
          "start": 2457
        },
        {
          "length": 20,
          "start": 3248
        },
        {
          "length": 20,
          "start": 3984
        },
        {
          "length": 20,
          "start": 4735
        }
      ]
    }
  },
  "deployedLinkReferences": {
    "contracts/LeagueMakerLibrary.sol": {
      "LeagueMakerLibrary": [
        {
          "length": 20,
          "start": 778
        },
        {
          "length": 20,
          "start": 1499
        },
        {
          "length": 20,
          "start": 2290
        },
        {
          "length": 20,
          "start": 3026
        },
        {
          "length": 20,
          "start": 3777
        }
      ]
    }
  }
}