{
  "_format": "hh-sol-artifact-1",
  "contractName": "LeagueMaker",
  "sourceName": "contracts/LeagueMaker.sol",
  "abi": [
    {
      "inputs": [
        {
          "internalType": "address",
          "name": "_logic",
          "type": "address"
        }
      ],
      "stateMutability": "nonpayable",
      "type": "constructor"
    },
    {
      "anonymous": false,
      "inputs": [
        {
          "indexed": false,
          "internalType": "string",
          "name": "name",
          "type": "string"
        },
        {
          "indexed": false,
          "internalType": "address",
          "name": "proxyAddress",
          "type": "address"
        },
        {
          "indexed": false,
          "internalType": "address",
          "name": "proxyAdminAddress",
          "type": "address"
        },
        {
          "indexed": false,
          "internalType": "address[]",
          "name": "initialWhitelistAddresses",
          "type": "address[]"
        }
      ],
      "name": "LeagueCreated",
      "type": "event"
    },
    {
      "anonymous": false,
      "inputs": [
        {
          "indexed": true,
          "internalType": "address",
          "name": "previousOwner",
          "type": "address"
        },
        {
          "indexed": true,
          "internalType": "address",
          "name": "newOwner",
          "type": "address"
        }
      ],
      "name": "OwnershipTransferred",
      "type": "event"
    },
    {
      "anonymous": false,
      "inputs": [
        {
          "indexed": false,
          "internalType": "bool",
          "name": "success",
          "type": "bool"
        },
        {
          "indexed": false,
          "internalType": "bytes",
          "name": "data",
          "type": "bytes"
        }
      ],
      "name": "Response",
      "type": "event"
    },
    {
      "inputs": [
        {
          "internalType": "string",
          "name": "_name",
          "type": "string"
        },
        {
          "internalType": "uint256",
          "name": "_stakeAmount",
          "type": "uint256"
        },
        {
          "internalType": "bool",
          "name": "_isPublic",
          "type": "bool"
        },
        {
          "internalType": "address",
          "name": "_testUSDCAddress",
          "type": "address"
        },
        {
          "internalType": "address",
          "name": "_athletesContractAddress",
          "type": "address"
        },
        {
          "internalType": "address",
          "name": "_gameItemsContractAddress",
          "type": "address"
        },
        {
          "internalType": "address[]",
          "name": "_whitelistUsers",
          "type": "address[]"
        }
      ],
      "name": "createLeague",
      "outputs": [
        {
          "internalType": "address",
          "name": "",
          "type": "address"
        }
      ],
      "stateMutability": "nonpayable",
      "type": "function"
    },
    {
      "inputs": [],
      "name": "currentWeek",
      "outputs": [
        {
          "internalType": "uint256",
          "name": "",
          "type": "uint256"
        }
      ],
      "stateMutability": "view",
      "type": "function"
    },
    {
      "inputs": [],
      "name": "getLeagueAddresses",
      "outputs": [
        {
          "internalType": "address[]",
          "name": "",
          "type": "address[]"
        }
      ],
      "stateMutability": "view",
      "type": "function"
    },
    {
      "inputs": [
        {
          "internalType": "address",
          "name": "",
          "type": "address"
        }
      ],
      "name": "isProxyMap",
      "outputs": [
        {
          "internalType": "bool",
          "name": "",
          "type": "bool"
        }
      ],
      "stateMutability": "view",
      "type": "function"
    },
    {
      "inputs": [
        {
          "internalType": "uint256",
          "name": "",
          "type": "uint256"
        }
      ],
      "name": "leagueAddresses",
      "outputs": [
        {
          "internalType": "address",
          "name": "",
          "type": "address"
        }
      ],
      "stateMutability": "view",
      "type": "function"
    },
    {
      "inputs": [],
      "name": "owner",
      "outputs": [
        {
          "internalType": "address",
          "name": "",
          "type": "address"
        }
      ],
      "stateMutability": "view",
      "type": "function"
    },
    {
      "inputs": [],
      "name": "renounceOwnership",
      "outputs": [],
      "stateMutability": "nonpayable",
      "type": "function"
    },
    {
      "inputs": [
        {
          "internalType": "address",
          "name": "logic",
          "type": "address"
        }
      ],
      "name": "setBeacon",
      "outputs": [
        {
          "internalType": "address",
          "name": "",
          "type": "address"
        }
      ],
      "stateMutability": "nonpayable",
      "type": "function"
    },
    {
      "inputs": [
        {
          "internalType": "address",
          "name": "newOwner",
          "type": "address"
        }
      ],
      "name": "transferOwnership",
      "outputs": [],
      "stateMutability": "nonpayable",
      "type": "function"
    },
    {
      "inputs": [
        {
          "internalType": "address",
          "name": "user",
          "type": "address"
        }
      ],
      "name": "updateUserToLeagueMapping",
      "outputs": [],
      "stateMutability": "nonpayable",
      "type": "function"
    },
    {
      "inputs": [
        {
          "internalType": "address",
          "name": "",
          "type": "address"
        },
        {
          "internalType": "uint256",
          "name": "",
          "type": "uint256"
        }
      ],
      "name": "userToLeagueMap",
      "outputs": [
        {
          "internalType": "address",
          "name": "",
          "type": "address"
        }
      ],
      "stateMutability": "view",
      "type": "function"
    }
  ],
  "bytecode": "0x60c060405260086007556000600855732791bca1f2de4661ed88a30c99a7a9449aa84174600960006101000a81548173ffffffffffffffffffffffffffffffffffffffff021916908373ffffffffffffffffffffffffffffffffffffffff16021790555073eb8f08a975ab53e34d8a0330e0d34de942c95926600a60006101000a81548173ffffffffffffffffffffffffffffffffffffffff021916908373ffffffffffffffffffffffffffffffffffffffff160217905550348015620000c557600080fd5b506040516200646c3803806200646c8339818101604052810190620000eb9190620002a9565b6200010b620000ff620001b860201b60201c565b620001c060201b60201c565b806040516200011a9062000284565b620001269190620002ec565b604051809103906000f08015801562000143573d6000803e3d6000fd5b5073ffffffffffffffffffffffffffffffffffffffff1660808173ffffffffffffffffffffffffffffffffffffffff1660601b815250503373ffffffffffffffffffffffffffffffffffffffff1660a08173ffffffffffffffffffffffffffffffffffffffff1660601b81525050506200035c565b600033905090565b60008060009054906101000a900473ffffffffffffffffffffffffffffffffffffffff169050816000806101000a81548173ffffffffffffffffffffffffffffffffffffffff021916908373ffffffffffffffffffffffffffffffffffffffff1602179055508173ffffffffffffffffffffffffffffffffffffffff168173ffffffffffffffffffffffffffffffffffffffff167f8be0079c531659141344cd1fd0a4f28419497f9722a3daafe3b4186f6b6457e060405160405180910390a35050565b610a9180620059db83390190565b600081519050620002a38162000342565b92915050565b600060208284031215620002c257620002c16200033d565b5b6000620002d28482850162000292565b91505092915050565b620002e68162000309565b82525050565b6000602082019050620003036000830184620002db565b92915050565b600062000316826200031d565b9050919050565b600073ffffffffffffffffffffffffffffffffffffffff82169050919050565b600080fd5b6200034d8162000309565b81146200035957600080fd5b50565b60805160601c60a05160601c61565362000388600039600061076a0152600061096001526156536000f3fe60806040523480156200001157600080fd5b5060043610620000b85760003560e01c80639c77955b116200007b5780639c77955b1462000163578063b37cc9f11462000185578063c3530ff414620001bb578063d42afb5614620001f1578063f2fde38b1462000227578063f6acfc05146200024757620000b8565b806306575c8914620000bd57806329ffe5e914620000df578063715018a61462000115578063771bd4ce14620001215780638da5cb5b1462000141575b600080fd5b620000c76200027d565b604051620000d69190620014f4565b60405180910390f35b620000fd6004803603810190620000f7919062000fe0565b62000283565b6040516200010c919062001285565b60405180910390f35b6200011f620002c3565b005b6200013f600480360381019062000139919062000e3c565b62000354565b005b6200014b62000486565b6040516200015a919062001285565b60405180910390f35b6200016d620004af565b6040516200017c919062001313565b60405180910390f35b620001a360048036038101906200019d919062000e3c565b6200053f565b604051620001b2919062001337565b60405180910390f35b620001d96004803603810190620001d3919062000e6e565b6200055f565b604051620001e8919062001285565b60405180910390f35b6200020f600480360381019062000209919062000e3c565b620005ae565b6040516200021e919062001285565b60405180910390f35b6200024560048036038101906200023f919062000e3c565b62000636565b005b6200026560048036038101906200025f919062000ee7565b6200073a565b60405162000274919062001285565b60405180910390f35b60085481565b600381815481106200029457600080fd5b906000526020600020016000915054906101000a900473ffffffffffffffffffffffffffffffffffffffff1681565b620002cd62000c23565b73ffffffffffffffffffffffffffffffffffffffff16620002ed62000486565b73ffffffffffffffffffffffffffffffffffffffff161462000346576040517f08c379a00000000000000000000000000000000000000000000000000000000081526004016200033d90620014d2565b60405180910390fd5b62000352600062000c2b565b565b600560003373ffffffffffffffffffffffffffffffffffffffff1673ffffffffffffffffffffffffffffffffffffffff16815260200190815260200160002060009054906101000a900460ff16620003e3576040517f08c379a0000000000000000000000000000000000000000000000000000000008152600401620003da90620014b0565b60405180910390fd5b600460008273ffffffffffffffffffffffffffffffffffffffff1673ffffffffffffffffffffffffffffffffffffffff168152602001908152602001600020339080600181540180825580915050600190039060005260206000200160009091909190916101000a81548173ffffffffffffffffffffffffffffffffffffffff021916908373ffffffffffffffffffffffffffffffffffffffff16021790555050565b60008060009054906101000a900473ffffffffffffffffffffffffffffffffffffffff16905090565b606060038054806020026020016040519081016040528092919081815260200182805480156200053557602002820191906000526020600020905b8160009054906101000a900473ffffffffffffffffffffffffffffffffffffffff1673ffffffffffffffffffffffffffffffffffffffff1681526020019060010190808311620004ea575b5050505050905090565b60056020528060005260406000206000915054906101000a900460ff1681565b600460205281600052604060002081815481106200057c57600080fd5b906000526020600020016000915091509054906101000a900473ffffffffffffffffffffffffffffffffffffffff1681565b60008082604051620005c09062000cef565b620005cc919062001285565b604051809103906000f080158015620005e9573d6000803e3d6000fd5b50905080600260006101000a81548173ffffffffffffffffffffffffffffffffffffffff021916908373ffffffffffffffffffffffffffffffffffffffff16021790555080915050919050565b6200064062000c23565b73ffffffffffffffffffffffffffffffffffffffff166200066062000486565b73ffffffffffffffffffffffffffffffffffffffff1614620006b9576040517f08c379a0000000000000000000000000000000000000000000000000000000008152600401620006b090620014d2565b60405180910390fd5b600073ffffffffffffffffffffffffffffffffffffffff168173ffffffffffffffffffffffffffffffffffffffff1614156200072c576040517f08c379a000000000000000000000000000000000000000000000000000000000815260040162000723906200146c565b60405180910390fd5b620007378162000c2b565b50565b6000808a8a8a8a8933600a60009054906101000a900473ffffffffffffffffffffffffffffffffffffffff168d8c7f000000000000000000000000000000000000000000000000000000000000000030604051602401620007a69b9a99989796959493929190620013b3565b6040516020818303038152906040527f3c3ae13f000000000000000000000000000000000000000000000000000000007bffffffffffffffffffffffffffffffffffffffffffffffffffffffff19166020820180517bffffffffffffffffffffffffffffffffffffffffffffffffffffffff8381831617835250505050905086600160006101000a81548173ffffffffffffffffffffffffffffffffffffffff021916908373ffffffffffffffffffffffffffffffffffffffff16021790555088600160009054906101000a900473ffffffffffffffffffffffffffffffffffffffff1673ffffffffffffffffffffffffffffffffffffffff166370a08231336040518263ffffffff1660e01b8152600401620008c4919062001285565b60206040518083038186803b158015620008dd57600080fd5b505afa158015620008f2573d6000803e3d6000fd5b505050506040513d601f19601f8201168201806040525081019062000918919062001012565b10156200095c576040517f08c379a000000000000000000000000000000000000000000000000000000000815260040162000953906200148e565b60405180910390fd5b60007f0000000000000000000000000000000000000000000000000000000000000000826040516200098e9062000cfd565b6200099b929190620012df565b604051809103906000f080158015620009b8573d6000803e3d6000fd5b509050600160009054906101000a900473ffffffffffffffffffffffffffffffffffffffff1673ffffffffffffffffffffffffffffffffffffffff166323b872dd33838d6040518463ffffffff1660e01b815260040162000a1c93929190620012a2565b602060405180830381600087803b15801562000a3757600080fd5b505af115801562000a4c573d6000803e3d6000fd5b505050506040513d601f19601f8201168201806040525081019062000a72919062000eb5565b506003819080600181540180825580915050600190039060005260206000200160009091909190916101000a81548173ffffffffffffffffffffffffffffffffffffffff021916908373ffffffffffffffffffffffffffffffffffffffff160217905550600460003373ffffffffffffffffffffffffffffffffffffffff1673ffffffffffffffffffffffffffffffffffffffff168152602001908152602001600020819080600181540180825580915050600190039060005260206000200160009091909190916101000a81548173ffffffffffffffffffffffffffffffffffffffff021916908373ffffffffffffffffffffffffffffffffffffffff1602179055506001600560008373ffffffffffffffffffffffffffffffffffffffff1673ffffffffffffffffffffffffffffffffffffffff16815260200190815260200160002060006101000a81548160ff0219169083151502179055507f55f20cc44cd266564ce419a146a1cafd9b19bb2e68a296cb675fa17bed72724c8c8c8333898960405162000c099695949392919062001354565b60405180910390a180925050509998505050505050505050565b600033905090565b60008060009054906101000a900473ffffffffffffffffffffffffffffffffffffffff169050816000806101000a81548173ffffffffffffffffffffffffffffffffffffffff021916908373ffffffffffffffffffffffffffffffffffffffff1602179055508173ffffffffffffffffffffffffffffffffffffffff168173ffffffffffffffffffffffffffffffffffffffff167f8be0079c531659141344cd1fd0a4f28419497f9722a3daafe3b4186f6b6457e060405160405180910390a35050565b610a9180620017eb83390190565b6133a2806200227c83390190565b60008135905062000d1c816200179c565b92915050565b60008083601f84011262000d3b5762000d3a6200163b565b5b8235905067ffffffffffffffff81111562000d5b5762000d5a62001636565b5b60208301915083602082028301111562000d7a5762000d7962001640565b5b9250929050565b60008135905062000d9281620017b6565b92915050565b60008151905062000da981620017b6565b92915050565b60008083601f84011262000dc85762000dc76200163b565b5b8235905067ffffffffffffffff81111562000de85762000de762001636565b5b60208301915083600182028301111562000e075762000e0662001640565b5b9250929050565b60008135905062000e1f81620017d0565b92915050565b60008151905062000e3681620017d0565b92915050565b60006020828403121562000e555762000e546200164a565b5b600062000e658482850162000d0b565b91505092915050565b6000806040838503121562000e885762000e876200164a565b5b600062000e988582860162000d0b565b925050602062000eab8582860162000e0e565b9150509250929050565b60006020828403121562000ece5762000ecd6200164a565b5b600062000ede8482850162000d98565b91505092915050565b600080600080600080600080600060e08a8c03121562000f0c5762000f0b6200164a565b5b60008a013567ffffffffffffffff81111562000f2d5762000f2c62001645565b5b62000f3b8c828d0162000daf565b9950995050602062000f508c828d0162000e0e565b975050604062000f638c828d0162000d81565b965050606062000f768c828d0162000d0b565b955050608062000f898c828d0162000d0b565b94505060a062000f9c8c828d0162000d0b565b93505060c08a013567ffffffffffffffff81111562000fc05762000fbf62001645565b5b62000fce8c828d0162000d22565b92509250509295985092959850929598565b60006020828403121562000ff95762000ff86200164a565b5b6000620010098482850162000e0e565b91505092915050565b6000602082840312156200102b576200102a6200164a565b5b60006200103b8482850162000e25565b91505092915050565b60006200105283836200105e565b60208301905092915050565b6200106981620015a7565b82525050565b6200107a81620015a7565b82525050565b60006200108e83856200155b565b93506200109b8262001511565b8060005b85811015620010dc57620010b482846200158e565b620010c0888262001044565b9750620010cd8362001541565b9250506001810190506200109f565b5085925050509392505050565b6000620010f6826200152b565b6200110281856200155b565b93506200110f836200151b565b8060005b83811015620011465781516200112a888262001044565b975062001137836200154e565b92505060018101905062001113565b5085935050505092915050565b6200115e81620015bb565b82525050565b6000620011718262001536565b6200117d81856200156c565b93506200118f81856020860162001600565b6200119a816200164f565b840191505092915050565b6000620011b383856200157d565b9350620011c2838584620015f1565b620011cd836200164f565b840190509392505050565b6000620011e76026836200157d565b9150620011f48262001660565b604082019050919050565b60006200120e6046836200157d565b91506200121b82620016af565b606082019050919050565b6000620012356024836200157d565b9150620012428262001724565b604082019050919050565b60006200125c6020836200157d565b9150620012698262001773565b602082019050919050565b6200127f81620015e7565b82525050565b60006020820190506200129c60008301846200106f565b92915050565b6000606082019050620012b960008301866200106f565b620012c860208301856200106f565b620012d7604083018462001274565b949350505050565b6000604082019050620012f660008301856200106f565b81810360208301526200130a818462001164565b90509392505050565b600060208201905081810360008301526200132f8184620010e9565b905092915050565b60006020820190506200134e600083018462001153565b92915050565b600060808201905081810360008301526200137181888a620011a5565b90506200138260208301876200106f565b6200139160408301866200106f565b8181036060830152620013a681848662001080565b9050979650505050505050565b6000610140820190508181036000830152620013d1818d8f620011a5565b9050620013e2602083018c62001274565b620013f1604083018b62001153565b62001400606083018a6200106f565b6200140f60808301896200106f565b6200141e60a08301886200106f565b6200142d60c08301876200106f565b6200143c60e08301866200106f565b6200144c6101008301856200106f565b6200145c6101208301846200106f565b9c9b505050505050505050505050565b600060208201905081810360008301526200148781620011d8565b9050919050565b60006020820190508181036000830152620014a981620011ff565b9050919050565b60006020820190508181036000830152620014cb8162001226565b9050919050565b60006020820190508181036000830152620014ed816200124d565b9050919050565b60006020820190506200150b600083018462001274565b92915050565b6000819050919050565b6000819050602082019050919050565b600081519050919050565b600081519050919050565b6000602082019050919050565b6000602082019050919050565b600082825260208201905092915050565b600082825260208201905092915050565b600082825260208201905092915050565b60006200159f602084018462000d0b565b905092915050565b6000620015b482620015c7565b9050919050565b60008115159050919050565b600073ffffffffffffffffffffffffffffffffffffffff82169050919050565b6000819050919050565b82818337600083830152505050565b60005b838110156200162057808201518184015260208101905062001603565b8381111562001630576000848401525b50505050565b600080fd5b600080fd5b600080fd5b600080fd5b600080fd5b6000601f19601f8301169050919050565b7f4f776e61626c653a206e6577206f776e657220697320746865207a65726f206160008201527f6464726573730000000000000000000000000000000000000000000000000000602082015250565b7f43726561746f72206f66206c6561677565206e6565647320656e6f756768205560008201527f5344432028657175616c20746f20737065636966696564207374616b6520616d60208201527f6f756e74292e0000000000000000000000000000000000000000000000000000604082015250565b7f43616c6c6572206973206e6f7420612076616c69642070726f7879206164647260008201527f6573732e00000000000000000000000000000000000000000000000000000000602082015250565b7f4f776e61626c653a2063616c6c6572206973206e6f7420746865206f776e6572600082015250565b620017a781620015a7565b8114620017b357600080fd5b50565b620017c181620015bb565b8114620017cd57600080fd5b50565b620017db81620015e7565b8114620017e757600080fd5b5056fe608060405234801561001057600080fd5b5060405162000a9138038062000a91833981810160405281019061003491906101ef565b61005061004561006560201b60201c565b61006d60201b60201c565b61005f8161013160201b60201c565b5061030d565b600033905090565b60008060009054906101000a900473ffffffffffffffffffffffffffffffffffffffff169050816000806101000a81548173ffffffffffffffffffffffffffffffffffffffff021916908373ffffffffffffffffffffffffffffffffffffffff1602179055508173ffffffffffffffffffffffffffffffffffffffff168173ffffffffffffffffffffffffffffffffffffffff167f8be0079c531659141344cd1fd0a4f28419497f9722a3daafe3b4186f6b6457e060405160405180910390a35050565b610144816101c760201b6103781760201c565b610183576040517f08c379a000000000000000000000000000000000000000000000000000000000815260040161017a9061023f565b60405180910390fd5b80600160006101000a81548173ffffffffffffffffffffffffffffffffffffffff021916908373ffffffffffffffffffffffffffffffffffffffff16021790555050565b600080823b905060008111915050919050565b6000815190506101e9816102f6565b92915050565b600060208284031215610205576102046102a2565b5b6000610213848285016101da565b91505092915050565b600061022960338361025f565b9150610234826102a7565b604082019050919050565b600060208201905081810360008301526102588161021c565b9050919050565b600082825260208201905092915050565b600061027b82610282565b9050919050565b600073ffffffffffffffffffffffffffffffffffffffff82169050919050565b600080fd5b7f5570677261646561626c65426561636f6e3a20696d706c656d656e746174696f60008201527f6e206973206e6f74206120636f6e747261637400000000000000000000000000602082015250565b6102ff81610270565b811461030a57600080fd5b50565b610774806200031d6000396000f3fe608060405234801561001057600080fd5b50600436106100575760003560e01c80633659cfe61461005c5780635c60da1b14610078578063715018a6146100965780638da5cb5b146100a0578063f2fde38b146100be575b600080fd5b610076600480360381019061007191906104f8565b6100da565b005b6100806101a5565b60405161008d919061059d565b60405180910390f35b61009e6101cf565b005b6100a8610257565b6040516100b5919061059d565b60405180910390f35b6100d860048036038101906100d391906104f8565b610280565b005b6100e261038b565b73ffffffffffffffffffffffffffffffffffffffff16610100610257565b73ffffffffffffffffffffffffffffffffffffffff1614610156576040517f08c379a000000000000000000000000000000000000000000000000000000000815260040161014d906105f8565b60405180910390fd5b61015f81610393565b8073ffffffffffffffffffffffffffffffffffffffff167fbc7cd75a20ee27fd9adebab32041f755214dbc6bffa90cc0225b39da2e5c2d3b60405160405180910390a250565b6000600160009054906101000a900473ffffffffffffffffffffffffffffffffffffffff16905090565b6101d761038b565b73ffffffffffffffffffffffffffffffffffffffff166101f5610257565b73ffffffffffffffffffffffffffffffffffffffff161461024b576040517f08c379a0000000000000000000000000000000000000000000000000000000008152600401610242906105f8565b60405180910390fd5b610255600061041f565b565b60008060009054906101000a900473ffffffffffffffffffffffffffffffffffffffff16905090565b61028861038b565b73ffffffffffffffffffffffffffffffffffffffff166102a6610257565b73ffffffffffffffffffffffffffffffffffffffff16146102fc576040517f08c379a00000000000000000000000000000000000000000000000000000000081526004016102f3906105f8565b60405180910390fd5b600073ffffffffffffffffffffffffffffffffffffffff168173ffffffffffffffffffffffffffffffffffffffff16141561036c576040517f08c379a0000000000000000000000000000000000000000000000000000000008152600401610363906105b8565b60405180910390fd5b6103758161041f565b50565b600080823b905060008111915050919050565b600033905090565b61039c81610378565b6103db576040517f08c379a00000000000000000000000000000000000000000000000000000000081526004016103d2906105d8565b60405180910390fd5b80600160006101000a81548173ffffffffffffffffffffffffffffffffffffffff021916908373ffffffffffffffffffffffffffffffffffffffff16021790555050565b60008060009054906101000a900473ffffffffffffffffffffffffffffffffffffffff169050816000806101000a81548173ffffffffffffffffffffffffffffffffffffffff021916908373ffffffffffffffffffffffffffffffffffffffff1602179055508173ffffffffffffffffffffffffffffffffffffffff168173ffffffffffffffffffffffffffffffffffffffff167f8be0079c531659141344cd1fd0a4f28419497f9722a3daafe3b4186f6b6457e060405160405180910390a35050565b6000813590506104f281610727565b92915050565b60006020828403121561050e5761050d61065b565b5b600061051c848285016104e3565b91505092915050565b61052e81610629565b82525050565b6000610541602683610618565b915061054c82610660565b604082019050919050565b6000610564603383610618565b915061056f826106af565b604082019050919050565b6000610587602083610618565b9150610592826106fe565b602082019050919050565b60006020820190506105b26000830184610525565b92915050565b600060208201905081810360008301526105d181610534565b9050919050565b600060208201905081810360008301526105f181610557565b9050919050565b600060208201905081810360008301526106118161057a565b9050919050565b600082825260208201905092915050565b60006106348261063b565b9050919050565b600073ffffffffffffffffffffffffffffffffffffffff82169050919050565b600080fd5b7f4f776e61626c653a206e6577206f776e657220697320746865207a65726f206160008201527f6464726573730000000000000000000000000000000000000000000000000000602082015250565b7f5570677261646561626c65426561636f6e3a20696d706c656d656e746174696f60008201527f6e206973206e6f74206120636f6e747261637400000000000000000000000000602082015250565b7f4f776e61626c653a2063616c6c6572206973206e6f7420746865206f776e6572600082015250565b61073081610629565b811461073b57600080fd5b5056fea2646970667358221220f14c1e123fc6650c2510ce92a5938ce8dbd619e20ec5ceb7ad4526f9ccdb6aca64736f6c634300080700336080604052604051620033a2380380620033a28339818101604052810190620000299190620006bb565b620000496200003d620000cf60201b60201c565b620000d760201b60201c565b60017fa3f0ad74e5423aebfd80d3ef4346578335a9a72aeaee59ff6cb3582b35133d5160001c6200007b919062000942565b60001b7fa3f0ad74e5423aebfd80d3ef4346578335a9a72aeaee59ff6cb3582b35133d5060001b14620000b357620000b262000a27565b5b620000c7828260006200019b60201b60201c565b505062000be0565b600033905090565b60008060009054906101000a900473ffffffffffffffffffffffffffffffffffffffff169050816000806101000a81548173ffffffffffffffffffffffffffffffffffffffff021916908373ffffffffffffffffffffffffffffffffffffffff1602179055508173ffffffffffffffffffffffffffffffffffffffff168173ffffffffffffffffffffffffffffffffffffffff167f8be0079c531659141344cd1fd0a4f28419497f9722a3daafe3b4186f6b6457e060405160405180910390a35050565b620001ac83620002a260201b60201c565b8273ffffffffffffffffffffffffffffffffffffffff167f1cf3b03a6cf19fa2baba4df148e9dcabedea7f8a5c07840e207e5c089be95d3e60405160405180910390a2600082511180620001fd5750805b156200029d576200029b8373ffffffffffffffffffffffffffffffffffffffff16635c60da1b6040518163ffffffff1660e01b815260040160206040518083038186803b1580156200024e57600080fd5b505afa15801562000263573d6000803e3d6000fd5b505050506040513d601f19601f8201168201806040525081019062000289919062000689565b836200045160201b620012b11760201c565b505b505050565b620002b8816200048760201b620012de1760201c565b620002fa576040517f08c379a0000000000000000000000000000000000000000000000000000000008152600401620002f1906200084b565b60405180910390fd5b620003918173ffffffffffffffffffffffffffffffffffffffff16635c60da1b6040518163ffffffff1660e01b815260040160206040518083038186803b1580156200034557600080fd5b505afa1580156200035a573d6000803e3d6000fd5b505050506040513d601f19601f8201168201806040525081019062000380919062000689565b6200048760201b620012de1760201c565b620003d3576040517f08c379a0000000000000000000000000000000000000000000000000000000008152600401620003ca906200088f565b60405180910390fd5b806200040d7fa3f0ad74e5423aebfd80d3ef4346578335a9a72aeaee59ff6cb3582b35133d5060001b6200049a60201b620012f11760201c565b60000160006101000a81548173ffffffffffffffffffffffffffffffffffffffff021916908373ffffffffffffffffffffffffffffffffffffffff16021790555050565b60606200047f83836040518060600160405280602781526020016200337b60279139620004a460201b60201c565b905092915050565b600080823b905060008111915050919050565b6000819050919050565b6060620004b7846200048760201b60201c565b620004f9576040517f08c379a0000000000000000000000000000000000000000000000000000000008152600401620004f0906200086d565b60405180910390fd5b6000808573ffffffffffffffffffffffffffffffffffffffff16856040516200052391906200080e565b600060405180830381855af49150503d806000811462000560576040519150601f19603f3d011682016040523d82523d6000602084013e62000565565b606091505b50915091506200057d8282866200058860201b60201c565b925050509392505050565b606083156200059a57829050620005ed565b600083511115620005ae5782518084602001fd5b816040517f08c379a0000000000000000000000000000000000000000000000000000000008152600401620005e4919062000827565b60405180910390fd5b9392505050565b60006200060b6200060584620008da565b620008b1565b9050828152602081018484840111156200062a576200062962000ab9565b5b62000637848285620009bb565b509392505050565b600081519050620006508162000bc6565b92915050565b600082601f8301126200066e576200066d62000ab4565b5b815162000680848260208601620005f4565b91505092915050565b600060208284031215620006a257620006a162000ac3565b5b6000620006b2848285016200063f565b91505092915050565b60008060408385031215620006d557620006d462000ac3565b5b6000620006e5858286016200063f565b925050602083015167ffffffffffffffff81111562000709576200070862000abe565b5b620007178582860162000656565b9150509250929050565b60006200072e8262000910565b6200073a818562000926565b93506200074c818560208601620009bb565b80840191505092915050565b600062000765826200091b565b62000771818562000931565b935062000783818560208601620009bb565b6200078e8162000ac8565b840191505092915050565b6000620007a860258362000931565b9150620007b58262000ad9565b604082019050919050565b6000620007cf60268362000931565b9150620007dc8262000b28565b604082019050919050565b6000620007f660308362000931565b9150620008038262000b77565b604082019050919050565b60006200081c828462000721565b915081905092915050565b6000602082019050818103600083015262000843818462000758565b905092915050565b60006020820190508181036000830152620008668162000799565b9050919050565b600060208201905081810360008301526200088881620007c0565b9050919050565b60006020820190508181036000830152620008aa81620007e7565b9050919050565b6000620008bd620008d0565b9050620008cb8282620009f1565b919050565b6000604051905090565b600067ffffffffffffffff821115620008f857620008f762000a85565b5b620009038262000ac8565b9050602081019050919050565b600081519050919050565b600081519050919050565b600081905092915050565b600082825260208201905092915050565b60006200094f82620009b1565b91506200095c83620009b1565b92508282101562000972576200097162000a56565b5b828203905092915050565b60006200098a8262000991565b9050919050565b600073ffffffffffffffffffffffffffffffffffffffff82169050919050565b6000819050919050565b60005b83811015620009db578082015181840152602081019050620009be565b83811115620009eb576000848401525b50505050565b620009fc8262000ac8565b810181811067ffffffffffffffff8211171562000a1e5762000a1d62000a85565b5b80604052505050565b7f4e487b7100000000000000000000000000000000000000000000000000000000600052600160045260246000fd5b7f4e487b7100000000000000000000000000000000000000000000000000000000600052601160045260246000fd5b7f4e487b7100000000000000000000000000000000000000000000000000000000600052604160045260246000fd5b600080fd5b600080fd5b600080fd5b600080fd5b6000601f19601f8301169050919050565b7f455243313936373a206e657720626561636f6e206973206e6f74206120636f6e60008201527f7472616374000000000000000000000000000000000000000000000000000000602082015250565b7f416464726573733a2064656c65676174652063616c6c20746f206e6f6e2d636f60008201527f6e74726163740000000000000000000000000000000000000000000000000000602082015250565b7f455243313936373a20626561636f6e20696d706c656d656e746174696f6e206960008201527f73206e6f74206120636f6e747261637400000000000000000000000000000000602082015250565b62000bd1816200097d565b811462000bdd57600080fd5b50565b61278b8062000bf06000396000f3fe6080604052600436106101d05760003560e01c806384900b04116100f7578063cff5600311610095578063e35a899911610064578063e35a899914610705578063edcbe96c14610742578063f2fde38b1461077f578063f851a440146107a8576101df565b8063cff5600314610637578063d547741f14610674578063dc9a15351461069d578063e2ec6ec3146106c8576101df565b806391d14854116100d157806391d148541461056757806393f3706c146105a45780639b19251a146105cf578063a217fddf1461060c576101df565b806384900b04146104d45780638da5cb5b146104ff5780639122ce6d1461052a576101df565b80632f2ff15d1161016f578063715018a61161013e578063715018a61461042a5780637b9417c8146104415780637eed33f11461047e578063841abf6e146104a9576101df565b80632f2ff15d1461038257806336568abe146103ab57806344eaa84e146103d457806360c7dc47146103ff576101df565b8063248a9ca3116101ab578063248a9ca31461028e57806324953eaa146102cb578063267175db14610308578063286dd3f514610345576101df565b8062b2476f146101e957806301ffc9a7146102145780630c6f795914610251576101df565b366101df576101dd6107d3565b005b6101e76107d3565b005b3480156101f557600080fd5b506101fe6107ed565b60405161020b9190611fe8565b60405180910390f35b34801561022057600080fd5b5061023b60048036038101906102369190611d62565b610813565b6040516102489190612003565b60405180910390f35b34801561025d57600080fd5b5061027860048036038101906102739190611c6c565b61088d565b6040516102859190612116565b60405180910390f35b34801561029a57600080fd5b506102b560048036038101906102b09190611cf5565b6108b5565b6040516102c2919061201e565b60405180910390f35b3480156102d757600080fd5b506102f260048036038101906102ed9190611cac565b6108d5565b6040516102ff9190612003565b60405180910390f35b34801561031457600080fd5b5061032f600480360381019061032a9190611d8f565b6109a5565b60405161033c9190611fe8565b60405180910390f35b34801561035157600080fd5b5061036c60048036038101906103679190611c12565b6109e4565b6040516103799190612003565b60405180910390f35b34801561038e57600080fd5b506103a960048036038101906103a49190611d22565b610b67565b005b3480156103b757600080fd5b506103d260048036038101906103cd9190611d22565b610b90565b005b3480156103e057600080fd5b506103e9610c13565b6040516103f69190612116565b60405180910390f35b34801561040b57600080fd5b50610414610c1d565b6040516104219190612116565b60405180910390f35b34801561043657600080fd5b5061043f610c23565b005b34801561044d57600080fd5b5061046860048036038101906104639190611c12565b610cab565b6040516104759190612003565b60405180910390f35b34801561048a57600080fd5b50610493610e2d565b6040516104a09190612116565b60405180910390f35b3480156104b557600080fd5b506104be610e33565b6040516104cb9190612054565b60405180910390f35b3480156104e057600080fd5b506104e9610ec1565b6040516104f69190612039565b60405180910390f35b34801561050b57600080fd5b50610514610ee7565b6040516105219190611fe8565b60405180910390f35b34801561053657600080fd5b50610551600480360381019061054c9190611c12565b610f10565b60405161055e9190612003565b60405180910390f35b34801561057357600080fd5b5061058e60048036038101906105899190611d22565b610f30565b60405161059b9190612003565b60405180910390f35b3480156105b057600080fd5b506105b9610f9b565b6040516105c69190611fe8565b60405180910390f35b3480156105db57600080fd5b506105f660048036038101906105f19190611c12565b610fc1565b6040516106039190612003565b60405180910390f35b34801561061857600080fd5b50610621610fe1565b60405161062e919061201e565b60405180910390f35b34801561064357600080fd5b5061065e60048036038101906106599190611c6c565b610fe8565b60405161066b9190612116565b60405180910390f35b34801561068057600080fd5b5061069b60048036038101906106969190611d22565b611019565b005b3480156106a957600080fd5b506106b2611042565b6040516106bf9190612003565b60405180910390f35b3480156106d457600080fd5b506106ef60048036038101906106ea9190611cac565b611055565b6040516106fc9190612003565b60405180910390f35b34801561071157600080fd5b5061072c60048036038101906107279190611c12565b611125565b6040516107399190612003565b60405180910390f35b34801561074e57600080fd5b5061076960048036038101906107649190611c12565b61117b565b6040516107769190612116565b60405180910390f35b34801561078b57600080fd5b506107a660048036038101906107a19190611c12565b611193565b005b3480156107b457600080fd5b506107bd61128b565b6040516107ca9190611fe8565b60405180910390f35b6107db6112fb565b6107eb6107e66112fd565b611389565b565b601260009054906101000a900473ffffffffffffffffffffffffffffffffffffffff1681565b60007f7965db0b000000000000000000000000000000000000000000000000000000007bffffffffffffffffffffffffffffffffffffffffffffffffffffffff1916827bffffffffffffffffffffffffffffffffffffffffffffffffffffffff191614806108865750610885826113af565b5b9050919050565b600b60205281600052604060002081600881106108a957600080fd5b01600091509150505481565b600060016000838152602001908152602001600020600101549050919050565b60006108df611419565b73ffffffffffffffffffffffffffffffffffffffff166108fd610ee7565b73ffffffffffffffffffffffffffffffffffffffff1614610953576040517f08c379a000000000000000000000000000000000000000000000000000000000815260040161094a906120b6565b60405180910390fd5b60005b825181101561099f57610982838281518110610975576109746124be565b5b60200260200101516109e4565b1561098c57600191505b808061099790612417565b915050610956565b50919050565b600f81815481106109b557600080fd5b906000526020600020016000915054906101000a900473ffffffffffffffffffffffffffffffffffffffff1681565b60006109ee611419565b73ffffffffffffffffffffffffffffffffffffffff16610a0c610ee7565b73ffffffffffffffffffffffffffffffffffffffff1614610a62576040517f08c379a0000000000000000000000000000000000000000000000000000000008152600401610a59906120b6565b60405180910390fd5b600260008373ffffffffffffffffffffffffffffffffffffffff1673ffffffffffffffffffffffffffffffffffffffff16815260200190815260200160002060009054906101000a900460ff1615610b62576000600260008473ffffffffffffffffffffffffffffffffffffffff1673ffffffffffffffffffffffffffffffffffffffff16815260200190815260200160002060006101000a81548160ff0219169083151502179055507ff1abf01a1043b7c244d128e8595cf0c1d10743b022b03a02dffd8ca3bf729f5a82604051610b3b9190611fe8565b60405180910390a1600160036000828254610b56919061226f565b92505081905550600190505b919050565b610b70826108b5565b610b8181610b7c611419565b611421565b610b8b83836114be565b505050565b610b98611419565b73ffffffffffffffffffffffffffffffffffffffff168173ffffffffffffffffffffffffffffffffffffffff1614610c05576040517f08c379a0000000000000000000000000000000000000000000000000000000008152600401610bfc906120f6565b60405180910390fd5b610c0f828261159e565b5050565b6000600354905090565b60075481565b610c2b611419565b73ffffffffffffffffffffffffffffffffffffffff16610c49610ee7565b73ffffffffffffffffffffffffffffffffffffffff1614610c9f576040517f08c379a0000000000000000000000000000000000000000000000000000000008152600401610c96906120b6565b60405180910390fd5b610ca96000611680565b565b6000610cb5611419565b73ffffffffffffffffffffffffffffffffffffffff16610cd3610ee7565b73ffffffffffffffffffffffffffffffffffffffff1614610d29576040517f08c379a0000000000000000000000000000000000000000000000000000000008152600401610d20906120b6565b60405180910390fd5b600260008373ffffffffffffffffffffffffffffffffffffffff1673ffffffffffffffffffffffffffffffffffffffff16815260200190815260200160002060009054906101000a900460ff16610e28576001600260008473ffffffffffffffffffffffffffffffffffffffff1673ffffffffffffffffffffffffffffffffffffffff16815260200190815260200160002060006101000a81548160ff0219169083151502179055507fd1bba68c128cc3f427e5831b3c6f99f480b6efa6b9e80c757768f6124158cc3f82604051610e019190611fe8565b60405180910390a1600160036000828254610e1c91906121bf565b92505081905550600190505b919050565b60065481565b60058054610e40906123b4565b80601f0160208091040260200160405190810160405280929190818152602001828054610e6c906123b4565b8015610eb95780601f10610e8e57610100808354040283529160200191610eb9565b820191906000526020600020905b815481529060010190602001808311610e9c57829003601f168201915b505050505081565b601460009054906101000a900473ffffffffffffffffffffffffffffffffffffffff1681565b60008060009054906101000a900473ffffffffffffffffffffffffffffffffffffffff16905090565b600e6020528060005260406000206000915054906101000a900460ff1681565b60006001600084815260200190815260200160002060000160008373ffffffffffffffffffffffffffffffffffffffff1673ffffffffffffffffffffffffffffffffffffffff16815260200190815260200160002060009054906101000a900460ff16905092915050565b601160009054906101000a900473ffffffffffffffffffffffffffffffffffffffff1681565b60026020528060005260406000206000915054906101000a900460ff1681565b6000801b81565b600d602052816000526040600020818154811061100457600080fd5b90600052602060002001600091509150505481565b611022826108b5565b6110338161102e611419565b611421565b61103d838361159e565b505050565b600460009054906101000a900460ff1681565b600061105f611419565b73ffffffffffffffffffffffffffffffffffffffff1661107d610ee7565b73ffffffffffffffffffffffffffffffffffffffff16146110d3576040517f08c379a00000000000000000000000000000000000000000000000000000000081526004016110ca906120b6565b60405180910390fd5b60005b825181101561111f576111028382815181106110f5576110f46124be565b5b6020026020010151610cab565b1561110c57600191505b808061111790612417565b9150506110d6565b50919050565b6000600260008373ffffffffffffffffffffffffffffffffffffffff1673ffffffffffffffffffffffffffffffffffffffff16815260200190815260200160002060009054906101000a900460ff169050919050565b600a6020528060005260406000206000915090505481565b61119b611419565b73ffffffffffffffffffffffffffffffffffffffff166111b9610ee7565b73ffffffffffffffffffffffffffffffffffffffff161461120f576040517f08c379a0000000000000000000000000000000000000000000000000000000008152600401611206906120b6565b60405180910390fd5b600073ffffffffffffffffffffffffffffffffffffffff168173ffffffffffffffffffffffffffffffffffffffff16141561127f576040517f08c379a000000000000000000000000000000000000000000000000000000000815260040161127690612096565b60405180910390fd5b61128881611680565b50565b600860009054906101000a900473ffffffffffffffffffffffffffffffffffffffff1681565b60606112d6838360405180606001604052806027815260200161272f60279139611744565b905092915050565b600080823b905060008111915050919050565b6000819050919050565b565b6000611307611811565b73ffffffffffffffffffffffffffffffffffffffff16635c60da1b6040518163ffffffff1660e01b815260040160206040518083038186803b15801561134c57600080fd5b505afa158015611360573d6000803e3d6000fd5b505050506040513d601f19601f820116820180604052508101906113849190611c3f565b905090565b3660008037600080366000845af43d6000803e80600081146113aa573d6000f35b3d6000fd5b60007f01ffc9a7000000000000000000000000000000000000000000000000000000007bffffffffffffffffffffffffffffffffffffffffffffffffffffffff1916827bffffffffffffffffffffffffffffffffffffffffffffffffffffffff1916149050919050565b600033905090565b61142b8282610f30565b6114ba576114508173ffffffffffffffffffffffffffffffffffffffff166014611868565b61145e8360001c6020611868565b60405160200161146f929190611fae565b6040516020818303038152906040526040517f08c379a00000000000000000000000000000000000000000000000000000000081526004016114b19190612054565b60405180910390fd5b5050565b6114c88282610f30565b61159a57600180600084815260200190815260200160002060000160008373ffffffffffffffffffffffffffffffffffffffff1673ffffffffffffffffffffffffffffffffffffffff16815260200190815260200160002060006101000a81548160ff02191690831515021790555061153f611419565b73ffffffffffffffffffffffffffffffffffffffff168173ffffffffffffffffffffffffffffffffffffffff16837f2f8788117e7eff1d82e926ec794901d17c78024a50270940304540a733656f0d60405160405180910390a45b5050565b6115a88282610f30565b1561167c5760006001600084815260200190815260200160002060000160008373ffffffffffffffffffffffffffffffffffffffff1673ffffffffffffffffffffffffffffffffffffffff16815260200190815260200160002060006101000a81548160ff021916908315150217905550611621611419565b73ffffffffffffffffffffffffffffffffffffffff168173ffffffffffffffffffffffffffffffffffffffff16837ff6391f5c32d9c69d2a47ea670b442974b53935d1edc7fd64eb21e047a839171b60405160405180910390a45b5050565b60008060009054906101000a900473ffffffffffffffffffffffffffffffffffffffff169050816000806101000a81548173ffffffffffffffffffffffffffffffffffffffff021916908373ffffffffffffffffffffffffffffffffffffffff1602179055508173ffffffffffffffffffffffffffffffffffffffff168173ffffffffffffffffffffffffffffffffffffffff167f8be0079c531659141344cd1fd0a4f28419497f9722a3daafe3b4186f6b6457e060405160405180910390a35050565b606061174f846112de565b61178e576040517f08c379a0000000000000000000000000000000000000000000000000000000008152600401611785906120d6565b60405180910390fd5b6000808573ffffffffffffffffffffffffffffffffffffffff16856040516117b69190611f97565b600060405180830381855af49150503d80600081146117f1576040519150601f19603f3d011682016040523d82523d6000602084013e6117f6565b606091505b5091509150611806828286611aa4565b925050509392505050565b600061183f7fa3f0ad74e5423aebfd80d3ef4346578335a9a72aeaee59ff6cb3582b35133d5060001b6112f1565b60000160009054906101000a900473ffffffffffffffffffffffffffffffffffffffff16905090565b60606000600283600261187b9190612215565b61188591906121bf565b67ffffffffffffffff81111561189e5761189d6124ed565b5b6040519080825280601f01601f1916602001820160405280156118d05781602001600182028036833780820191505090505b5090507f300000000000000000000000000000000000000000000000000000000000000081600081518110611908576119076124be565b5b60200101907effffffffffffffffffffffffffffffffffffffffffffffffffffffffffffff1916908160001a9053507f78000000000000000000000000000000000000000000000000000000000000008160018151811061196c5761196b6124be565b5b60200101907effffffffffffffffffffffffffffffffffffffffffffffffffffffffffffff1916908160001a905350600060018460026119ac9190612215565b6119b691906121bf565b90505b6001811115611a56577f3031323334353637383961626364656600000000000000000000000000000000600f8616601081106119f8576119f76124be565b5b1a60f81b828281518110611a0f57611a0e6124be565b5b60200101907effffffffffffffffffffffffffffffffffffffffffffffffffffffffffffff1916908160001a905350600485901c945080611a4f9061238a565b90506119b9565b5060008414611a9a576040517f08c379a0000000000000000000000000000000000000000000000000000000008152600401611a9190612076565b60405180910390fd5b8091505092915050565b60608315611ab457829050611b04565b600083511115611ac75782518084602001fd5b816040517f08c379a0000000000000000000000000000000000000000000000000000000008152600401611afb9190612054565b60405180910390fd5b9392505050565b6000611b1e611b1984612156565b612131565b90508083825260208201905082856020860282011115611b4157611b40612521565b5b60005b85811015611b715781611b578882611b7b565b845260208401935060208301925050600181019050611b44565b5050509392505050565b600081359050611b8a816126d2565b92915050565b600081519050611b9f816126d2565b92915050565b600082601f830112611bba57611bb961251c565b5b8135611bca848260208601611b0b565b91505092915050565b600081359050611be2816126e9565b92915050565b600081359050611bf781612700565b92915050565b600081359050611c0c81612717565b92915050565b600060208284031215611c2857611c2761252b565b5b6000611c3684828501611b7b565b91505092915050565b600060208284031215611c5557611c5461252b565b5b6000611c6384828501611b90565b91505092915050565b60008060408385031215611c8357611c8261252b565b5b6000611c9185828601611b7b565b9250506020611ca285828601611bfd565b9150509250929050565b600060208284031215611cc257611cc161252b565b5b600082013567ffffffffffffffff811115611ce057611cdf612526565b5b611cec84828501611ba5565b91505092915050565b600060208284031215611d0b57611d0a61252b565b5b6000611d1984828501611bd3565b91505092915050565b60008060408385031215611d3957611d3861252b565b5b6000611d4785828601611bd3565b9250506020611d5885828601611b7b565b9150509250929050565b600060208284031215611d7857611d7761252b565b5b6000611d8684828501611be8565b91505092915050565b600060208284031215611da557611da461252b565b5b6000611db384828501611bfd565b91505092915050565b611dc5816122a3565b82525050565b611dd4816122b5565b82525050565b611de3816122c1565b82525050565b6000611df482612182565b611dfe8185612198565b9350611e0e818560208601612357565b80840191505092915050565b611e2381612321565b82525050565b6000611e348261218d565b611e3e81856121a3565b9350611e4e818560208601612357565b611e5781612530565b840191505092915050565b6000611e6d8261218d565b611e7781856121b4565b9350611e87818560208601612357565b80840191505092915050565b6000611ea06020836121a3565b9150611eab82612541565b602082019050919050565b6000611ec36026836121a3565b9150611ece8261256a565b604082019050919050565b6000611ee66020836121a3565b9150611ef1826125b9565b602082019050919050565b6000611f096026836121a3565b9150611f14826125e2565b604082019050919050565b6000611f2c6017836121b4565b9150611f3782612631565b601782019050919050565b6000611f4f6011836121b4565b9150611f5a8261265a565b601182019050919050565b6000611f72602f836121a3565b9150611f7d82612683565b604082019050919050565b611f9181612317565b82525050565b6000611fa38284611de9565b915081905092915050565b6000611fb982611f1f565b9150611fc58285611e62565b9150611fd082611f42565b9150611fdc8284611e62565b91508190509392505050565b6000602082019050611ffd6000830184611dbc565b92915050565b60006020820190506120186000830184611dcb565b92915050565b60006020820190506120336000830184611dda565b92915050565b600060208201905061204e6000830184611e1a565b92915050565b6000602082019050818103600083015261206e8184611e29565b905092915050565b6000602082019050818103600083015261208f81611e93565b9050919050565b600060208201905081810360008301526120af81611eb6565b9050919050565b600060208201905081810360008301526120cf81611ed9565b9050919050565b600060208201905081810360008301526120ef81611efc565b9050919050565b6000602082019050818103600083015261210f81611f65565b9050919050565b600060208201905061212b6000830184611f88565b92915050565b600061213b61214c565b905061214782826123e6565b919050565b6000604051905090565b600067ffffffffffffffff821115612171576121706124ed565b5b602082029050602081019050919050565b600081519050919050565b600081519050919050565b600081905092915050565b600082825260208201905092915050565b600081905092915050565b60006121ca82612317565b91506121d583612317565b9250827fffffffffffffffffffffffffffffffffffffffffffffffffffffffffffffffff0382111561220a57612209612460565b5b828201905092915050565b600061222082612317565b915061222b83612317565b9250817fffffffffffffffffffffffffffffffffffffffffffffffffffffffffffffffff048311821515161561226457612263612460565b5b828202905092915050565b600061227a82612317565b915061228583612317565b92508282101561229857612297612460565b5b828203905092915050565b60006122ae826122f7565b9050919050565b60008115159050919050565b6000819050919050565b60007fffffffff0000000000000000000000000000000000000000000000000000000082169050919050565b600073ffffffffffffffffffffffffffffffffffffffff82169050919050565b6000819050919050565b600061232c82612333565b9050919050565b600061233e82612345565b9050919050565b6000612350826122f7565b9050919050565b60005b8381101561237557808201518184015260208101905061235a565b83811115612384576000848401525b50505050565b600061239582612317565b915060008214156123a9576123a8612460565b5b600182039050919050565b600060028204905060018216806123cc57607f821691505b602082108114156123e0576123df61248f565b5b50919050565b6123ef82612530565b810181811067ffffffffffffffff8211171561240e5761240d6124ed565b5b80604052505050565b600061242282612317565b91507fffffffffffffffffffffffffffffffffffffffffffffffffffffffffffffffff82141561245557612454612460565b5b600182019050919050565b7f4e487b7100000000000000000000000000000000000000000000000000000000600052601160045260246000fd5b7f4e487b7100000000000000000000000000000000000000000000000000000000600052602260045260246000fd5b7f4e487b7100000000000000000000000000000000000000000000000000000000600052603260045260246000fd5b7f4e487b7100000000000000000000000000000000000000000000000000000000600052604160045260246000fd5b600080fd5b600080fd5b600080fd5b600080fd5b6000601f19601f8301169050919050565b7f537472696e67733a20686578206c656e67746820696e73756666696369656e74600082015250565b7f4f776e61626c653a206e6577206f776e657220697320746865207a65726f206160008201527f6464726573730000000000000000000000000000000000000000000000000000602082015250565b7f4f776e61626c653a2063616c6c6572206973206e6f7420746865206f776e6572600082015250565b7f416464726573733a2064656c65676174652063616c6c20746f206e6f6e2d636f60008201527f6e74726163740000000000000000000000000000000000000000000000000000602082015250565b7f416363657373436f6e74726f6c3a206163636f756e7420000000000000000000600082015250565b7f206973206d697373696e6720726f6c6520000000000000000000000000000000600082015250565b7f416363657373436f6e74726f6c3a2063616e206f6e6c792072656e6f756e636560008201527f20726f6c657320666f722073656c660000000000000000000000000000000000602082015250565b6126db816122a3565b81146126e657600080fd5b50565b6126f2816122c1565b81146126fd57600080fd5b50565b612709816122cb565b811461271457600080fd5b50565b61272081612317565b811461272b57600080fd5b5056fe416464726573733a206c6f772d6c6576656c2064656c65676174652063616c6c206661696c6564a264697066735822122085bc276e424804da4bc9ab1946a96f9a1b29c37e1ef9fd843cf8b7b7402ed4f164736f6c63430008070033416464726573733a206c6f772d6c6576656c2064656c65676174652063616c6c206661696c6564a2646970667358221220f5a189562dd9877bc57e9073484d67a81452a9d8df6c0eacee32115bda9b66d464736f6c63430008070033608060405234801561001057600080fd5b5060405162000a9138038062000a91833981810160405281019061003491906101ef565b61005061004561006560201b60201c565b61006d60201b60201c565b61005f8161013160201b60201c565b5061030d565b600033905090565b60008060009054906101000a900473ffffffffffffffffffffffffffffffffffffffff169050816000806101000a81548173ffffffffffffffffffffffffffffffffffffffff021916908373ffffffffffffffffffffffffffffffffffffffff1602179055508173ffffffffffffffffffffffffffffffffffffffff168173ffffffffffffffffffffffffffffffffffffffff167f8be0079c531659141344cd1fd0a4f28419497f9722a3daafe3b4186f6b6457e060405160405180910390a35050565b610144816101c760201b6103781760201c565b610183576040517f08c379a000000000000000000000000000000000000000000000000000000000815260040161017a9061023f565b60405180910390fd5b80600160006101000a81548173ffffffffffffffffffffffffffffffffffffffff021916908373ffffffffffffffffffffffffffffffffffffffff16021790555050565b600080823b905060008111915050919050565b6000815190506101e9816102f6565b92915050565b600060208284031215610205576102046102a2565b5b6000610213848285016101da565b91505092915050565b600061022960338361025f565b9150610234826102a7565b604082019050919050565b600060208201905081810360008301526102588161021c565b9050919050565b600082825260208201905092915050565b600061027b82610282565b9050919050565b600073ffffffffffffffffffffffffffffffffffffffff82169050919050565b600080fd5b7f5570677261646561626c65426561636f6e3a20696d706c656d656e746174696f60008201527f6e206973206e6f74206120636f6e747261637400000000000000000000000000602082015250565b6102ff81610270565b811461030a57600080fd5b50565b610774806200031d6000396000f3fe608060405234801561001057600080fd5b50600436106100575760003560e01c80633659cfe61461005c5780635c60da1b14610078578063715018a6146100965780638da5cb5b146100a0578063f2fde38b146100be575b600080fd5b610076600480360381019061007191906104f8565b6100da565b005b6100806101a5565b60405161008d919061059d565b60405180910390f35b61009e6101cf565b005b6100a8610257565b6040516100b5919061059d565b60405180910390f35b6100d860048036038101906100d391906104f8565b610280565b005b6100e261038b565b73ffffffffffffffffffffffffffffffffffffffff16610100610257565b73ffffffffffffffffffffffffffffffffffffffff1614610156576040517f08c379a000000000000000000000000000000000000000000000000000000000815260040161014d906105f8565b60405180910390fd5b61015f81610393565b8073ffffffffffffffffffffffffffffffffffffffff167fbc7cd75a20ee27fd9adebab32041f755214dbc6bffa90cc0225b39da2e5c2d3b60405160405180910390a250565b6000600160009054906101000a900473ffffffffffffffffffffffffffffffffffffffff16905090565b6101d761038b565b73ffffffffffffffffffffffffffffffffffffffff166101f5610257565b73ffffffffffffffffffffffffffffffffffffffff161461024b576040517f08c379a0000000000000000000000000000000000000000000000000000000008152600401610242906105f8565b60405180910390fd5b610255600061041f565b565b60008060009054906101000a900473ffffffffffffffffffffffffffffffffffffffff16905090565b61028861038b565b73ffffffffffffffffffffffffffffffffffffffff166102a6610257565b73ffffffffffffffffffffffffffffffffffffffff16146102fc576040517f08c379a00000000000000000000000000000000000000000000000000000000081526004016102f3906105f8565b60405180910390fd5b600073ffffffffffffffffffffffffffffffffffffffff168173ffffffffffffffffffffffffffffffffffffffff16141561036c576040517f08c379a0000000000000000000000000000000000000000000000000000000008152600401610363906105b8565b60405180910390fd5b6103758161041f565b50565b600080823b905060008111915050919050565b600033905090565b61039c81610378565b6103db576040517f08c379a00000000000000000000000000000000000000000000000000000000081526004016103d2906105d8565b60405180910390fd5b80600160006101000a81548173ffffffffffffffffffffffffffffffffffffffff021916908373ffffffffffffffffffffffffffffffffffffffff16021790555050565b60008060009054906101000a900473ffffffffffffffffffffffffffffffffffffffff169050816000806101000a81548173ffffffffffffffffffffffffffffffffffffffff021916908373ffffffffffffffffffffffffffffffffffffffff1602179055508173ffffffffffffffffffffffffffffffffffffffff168173ffffffffffffffffffffffffffffffffffffffff167f8be0079c531659141344cd1fd0a4f28419497f9722a3daafe3b4186f6b6457e060405160405180910390a35050565b6000813590506104f281610727565b92915050565b60006020828403121561050e5761050d61065b565b5b600061051c848285016104e3565b91505092915050565b61052e81610629565b82525050565b6000610541602683610618565b915061054c82610660565b604082019050919050565b6000610564603383610618565b915061056f826106af565b604082019050919050565b6000610587602083610618565b9150610592826106fe565b602082019050919050565b60006020820190506105b26000830184610525565b92915050565b600060208201905081810360008301526105d181610534565b9050919050565b600060208201905081810360008301526105f181610557565b9050919050565b600060208201905081810360008301526106118161057a565b9050919050565b600082825260208201905092915050565b60006106348261063b565b9050919050565b600073ffffffffffffffffffffffffffffffffffffffff82169050919050565b600080fd5b7f4f776e61626c653a206e6577206f776e657220697320746865207a65726f206160008201527f6464726573730000000000000000000000000000000000000000000000000000602082015250565b7f5570677261646561626c65426561636f6e3a20696d706c656d656e746174696f60008201527f6e206973206e6f74206120636f6e747261637400000000000000000000000000602082015250565b7f4f776e61626c653a2063616c6c6572206973206e6f7420746865206f776e6572600082015250565b61073081610629565b811461073b57600080fd5b5056fea2646970667358221220f14c1e123fc6650c2510ce92a5938ce8dbd619e20ec5ceb7ad4526f9ccdb6aca64736f6c63430008070033",
  "linkReferences": {},
  "deployedLinkReferences": {}
}