{
  "_format": "hh-sol-artifact-1",
  "contractName": "LeagueMaker",
  "sourceName": "contracts/LeagueMaker.sol",
  "abi": [
    {
      "inputs": [
        {
          "internalType": "address",
          "name": "_logic",
          "type": "address"
        }
      ],
      "stateMutability": "nonpayable",
      "type": "constructor"
    },
    {
      "anonymous": false,
      "inputs": [
        {
          "indexed": false,
          "internalType": "string",
          "name": "name",
          "type": "string"
        },
        {
          "indexed": false,
          "internalType": "address",
          "name": "a",
          "type": "address"
        }
      ],
      "name": "LeagueCreated",
      "type": "event"
    },
    {
      "anonymous": false,
      "inputs": [
        {
          "indexed": false,
          "internalType": "bool",
          "name": "success",
          "type": "bool"
        },
        {
          "indexed": false,
          "internalType": "bytes",
          "name": "data",
          "type": "bytes"
        }
      ],
      "name": "Response",
      "type": "event"
    },
    {
      "inputs": [],
      "name": "beaconAddress",
      "outputs": [
        {
          "internalType": "address",
          "name": "",
          "type": "address"
        }
      ],
      "stateMutability": "view",
      "type": "function"
    },
    {
      "inputs": [
        {
          "internalType": "string",
          "name": "_name",
          "type": "string"
        },
        {
          "internalType": "uint256",
          "name": "_version",
          "type": "uint256"
        }
      ],
      "name": "createLeague",
      "outputs": [
        {
          "internalType": "address",
          "name": "",
          "type": "address"
        }
      ],
      "stateMutability": "nonpayable",
      "type": "function"
    },
    {
      "inputs": [],
      "name": "getBeacon",
      "outputs": [
        {
          "internalType": "address",
          "name": "",
          "type": "address"
        }
      ],
      "stateMutability": "view",
      "type": "function"
    },
    {
      "inputs": [],
      "name": "parameters",
      "outputs": [
        {
          "internalType": "string",
          "name": "name",
          "type": "string"
        },
        {
          "internalType": "uint256",
          "name": "version",
          "type": "uint256"
        }
      ],
      "stateMutability": "view",
      "type": "function"
    },
    {
      "inputs": [],
      "name": "secretNumber",
      "outputs": [
        {
          "internalType": "uint256",
          "name": "",
          "type": "uint256"
        }
      ],
      "stateMutability": "view",
      "type": "function"
    },
    {
      "inputs": [
        {
          "internalType": "address",
          "name": "_addr",
          "type": "address"
        }
      ],
      "name": "testCallDoesNotExist",
      "outputs": [],
      "stateMutability": "nonpayable",
      "type": "function"
    },
    {
      "inputs": [
        {
          "internalType": "address",
          "name": "newLogicImpl",
          "type": "address"
        }
      ],
      "name": "upgrade",
      "outputs": [],
      "stateMutability": "nonpayable",
      "type": "function"
    },
    {
      "inputs": [],
      "name": "version",
      "outputs": [
        {
          "internalType": "uint256",
          "name": "",
          "type": "uint256"
        }
      ],
      "stateMutability": "view",
      "type": "function"
    }
  ],
  "bytecode": "0x60a06040526001600355602a6004553480156200001b57600080fd5b5060405162002ad338038062002ad38339818101604052810190620000419190620000dc565b806040516200005090620000b7565b6200005c919062000119565b604051809103906000f08015801562000079573d6000803e3d6000fd5b5073ffffffffffffffffffffffffffffffffffffffff1660808173ffffffffffffffffffffffffffffffffffffffff1660601b815250505062000184565b610a7c806200205783390190565b600081519050620000d6816200016a565b92915050565b600060208284031215620000ef57600080fd5b6000620000ff84828501620000c5565b91505092915050565b620001138162000136565b82525050565b600060208201905062000130600083018462000108565b92915050565b600062000143826200014a565b9050919050565b600073ffffffffffffffffffffffffffffffffffffffff82169050919050565b620001758162000136565b81146200018157600080fd5b50565b60805160601c611ea6620001b1600039600081816101bc0152818161025001526104660152611ea66000f3fe60806040523480156200001157600080fd5b5060043610620000945760003560e01c806389035730116200006357806389035730146200011f578063c1d5746d1462000142578063c36604ed1462000178578063ff00726c146200019a5762000094565b80630900f01014620000995780632d6b3a6b14620000b957806354fd4d5014620000db5780637e2ec6d014620000fd575b600080fd5b620000b76004803603810190620000b19190620007e4565b620001ba565b005b620000c36200024c565b604051620000d29190620009ff565b60405180910390f35b620000e562000274565b604051620000f4919062000aec565b60405180910390f35b620001076200027a565b604051620001169190620009ff565b60405180910390f35b62000129620002a0565b6040516200013992919062000a84565b60405180910390f35b6200016060048036038101906200015a919062000810565b62000342565b6040516200016f9190620009ff565b60405180910390f35b620001826200052a565b60405162000191919062000aec565b60405180910390f35b620001b86004803603810190620001b29190620007e4565b62000530565b005b7f000000000000000000000000000000000000000000000000000000000000000073ffffffffffffffffffffffffffffffffffffffff16633659cfe6826040518263ffffffff1660e01b8152600401620002159190620009ff565b600060405180830381600087803b1580156200023057600080fd5b505af115801562000245573d6000803e3d6000fd5b5050505050565b60007f0000000000000000000000000000000000000000000000000000000000000000905090565b60035481565b600260009054906101000a900473ffffffffffffffffffffffffffffffffffffffff1681565b6000806000018054620002b39062000be1565b80601f0160208091040260200160405190810160405280929190818152602001828054620002e19062000be1565b8015620003325780601f10620003065761010080835404028352916020019162000332565b820191906000526020600020905b8154815290600101906020018083116200031457829003601f168201915b5050505050908060010154905082565b6000604051806040016040528085858080601f016020809104026020016040519081016040528093929190818152602001838380828437600081840152601f19601f82011690508083019250505050505050815260200183815250600080820151816000019080519060200190620003bc92919062000665565b506020820151816001015590505060008060010154604051602401620003e3919062000aec565b6040516020818303038152906040527ffe4b84df000000000000000000000000000000000000000000000000000000007bffffffffffffffffffffffffffffffffffffffffffffffffffffffff19166020820180517bffffffffffffffffffffffffffffffffffffffffffffffffffffffff8381831617835250505050905060007f0000000000000000000000000000000000000000000000000000000000000000826040516200049490620006f6565b620004a192919062000a1c565b604051809103906000f080158015620004be573d6000803e3d6000fd5b5090507f6f41e080f0ba3b200797d7e512fbca5fa5d4b72f7d8fb62d6fb40997ea9679806000800182604051620004f792919062000ab8565b60405180910390a160008060008201600062000514919062000704565b6001820160009055505080925050509392505050565b60045481565b6000808273ffffffffffffffffffffffffffffffffffffffff166040516024016040516020818303038152906040527f2cf0a1fc000000000000000000000000000000000000000000000000000000007bffffffffffffffffffffffffffffffffffffffffffffffffffffffff19166020820180517bffffffffffffffffffffffffffffffffffffffffffffffffffffffff8381831617835250505050604051620005dc9190620009e6565b6000604051808303816000865af19150503d80600081146200061b576040519150601f19603f3d011682016040523d82523d6000602084013e62000620565b606091505b50915091507f13848c3e38f8886f3f5d2ad9dff80d8092c2bbb8efd5b887a99c2c6cfc09ac2a82826040516200065892919062000a50565b60405180910390a1505050565b828054620006739062000be1565b90600052602060002090601f016020900481019282620006975760008555620006e3565b82601f10620006b257805160ff1916838001178555620006e3565b82800160010185558215620006e3579182015b82811115620006e2578251825591602001919060010190620006c5565b5b509050620006f291906200074a565b5090565b6111e58062000c8c83390190565b508054620007129062000be1565b6000825580601f1062000726575062000747565b601f0160209004906000526020600020908101906200074691906200074a565b5b50565b5b80821115620007655760008160009055506001016200074b565b5090565b6000813590506200077a8162000c57565b92915050565b60008083601f8401126200079357600080fd5b8235905067ffffffffffffffff811115620007ad57600080fd5b602083019150836001820283011115620007c657600080fd5b9250929050565b600081359050620007de8162000c71565b92915050565b600060208284031215620007f757600080fd5b6000620008078482850162000769565b91505092915050565b6000806000604084860312156200082657600080fd5b600084013567ffffffffffffffff8111156200084157600080fd5b6200084f8682870162000780565b935093505060206200086486828701620007cd565b9150509250925092565b620008798162000b61565b82525050565b6200088a8162000b75565b82525050565b60006200089d8262000b1e565b620008a9818562000b34565b9350620008bb81856020860162000bab565b620008c68162000c46565b840191505092915050565b6000620008de8262000b1e565b620008ea818562000b45565b9350620008fc81856020860162000bab565b80840191505092915050565b6000620009158262000b29565b62000921818562000b50565b93506200093381856020860162000bab565b6200093e8162000c46565b840191505092915050565b60008154620009588162000be1565b62000964818662000b50565b945060018216600081146200098257600181146200099557620009cc565b60ff1983168652602086019350620009cc565b620009a08562000b09565b60005b83811015620009c457815481890152600182019150602081019050620009a3565b808801955050505b50505092915050565b620009e08162000ba1565b82525050565b6000620009f48284620008d1565b915081905092915050565b600060208201905062000a1660008301846200086e565b92915050565b600060408201905062000a3360008301856200086e565b818103602083015262000a47818462000890565b90509392505050565b600060408201905062000a6760008301856200087f565b818103602083015262000a7b818462000890565b90509392505050565b6000604082019050818103600083015262000aa0818562000908565b905062000ab16020830184620009d5565b9392505050565b6000604082019050818103600083015262000ad4818562000949565b905062000ae560208301846200086e565b9392505050565b600060208201905062000b036000830184620009d5565b92915050565b60008190508160005260206000209050919050565b600081519050919050565b600081519050919050565b600082825260208201905092915050565b600081905092915050565b600082825260208201905092915050565b600062000b6e8262000b81565b9050919050565b60008115159050919050565b600073ffffffffffffffffffffffffffffffffffffffff82169050919050565b6000819050919050565b60005b8381101562000bcb57808201518184015260208101905062000bae565b8381111562000bdb576000848401525b50505050565b6000600282049050600182168062000bfa57607f821691505b6020821081141562000c115762000c1062000c17565b5b50919050565b7f4e487b7100000000000000000000000000000000000000000000000000000000600052602260045260246000fd5b6000601f19601f8301169050919050565b62000c628162000b61565b811462000c6e57600080fd5b50565b62000c7c8162000ba1565b811462000c8857600080fd5b5056fe6080604052604051620011e5380380620011e58339818101604052810190620000299190620005e1565b60017fa3f0ad74e5423aebfd80d3ef4346578335a9a72aeaee59ff6cb3582b35133d5160001c6200005b91906200085c565b60001b7fa3f0ad74e5423aebfd80d3ef4346578335a9a72aeaee59ff6cb3582b35133d5060001b14620000b7577f4e487b7100000000000000000000000000000000000000000000000000000000600052600160045260246000fd5b620000cb82826000620000d360201b60201c565b505062000ab7565b620000e483620001da60201b60201c565b8273ffffffffffffffffffffffffffffffffffffffff167f1cf3b03a6cf19fa2baba4df148e9dcabedea7f8a5c07840e207e5c089be95d3e60405160405180910390a2600082511180620001355750805b15620001d557620001d38373ffffffffffffffffffffffffffffffffffffffff16635c60da1b6040518163ffffffff1660e01b815260040160206040518083038186803b1580156200018657600080fd5b505afa1580156200019b573d6000803e3d6000fd5b505050506040513d601f19601f82011682018060405250810190620001c19190620005b5565b836200038960201b6200014a1760201c565b505b505050565b620001f081620003bf60201b620001771760201c565b62000232576040517f08c379a0000000000000000000000000000000000000000000000000000000008152600401620002299062000765565b60405180910390fd5b620002c98173ffffffffffffffffffffffffffffffffffffffff16635c60da1b6040518163ffffffff1660e01b815260040160206040518083038186803b1580156200027d57600080fd5b505afa15801562000292573d6000803e3d6000fd5b505050506040513d601f19601f82011682018060405250810190620002b89190620005b5565b620003bf60201b620001771760201c565b6200030b576040517f08c379a00000000000000000000000000000000000000000000000000000000081526004016200030290620007a9565b60405180910390fd5b80620003457fa3f0ad74e5423aebfd80d3ef4346578335a9a72aeaee59ff6cb3582b35133d5060001b620003d260201b6200018a1760201c565b60000160006101000a81548173ffffffffffffffffffffffffffffffffffffffff021916908373ffffffffffffffffffffffffffffffffffffffff16021790555050565b6060620003b78383604051806060016040528060278152602001620011be60279139620003dc60201b60201c565b905092915050565b600080823b905060008111915050919050565b6000819050919050565b6060620003ef84620003bf60201b60201c565b62000431576040517f08c379a0000000000000000000000000000000000000000000000000000000008152600401620004289062000787565b60405180910390fd5b6000808573ffffffffffffffffffffffffffffffffffffffff16856040516200045b919062000728565b600060405180830381855af49150503d806000811462000498576040519150601f19603f3d011682016040523d82523d6000602084013e6200049d565b606091505b5091509150620004b5828286620004c060201b60201c565b925050509392505050565b60608315620004d25782905062000525565b600083511115620004e65782518084602001fd5b816040517f08c379a00000000000000000000000000000000000000000000000000000000081526004016200051c919062000741565b60405180910390fd5b9392505050565b6000620005436200053d84620007f4565b620007cb565b9050828152602081018484840111156200055c57600080fd5b62000569848285620008d5565b509392505050565b600081519050620005828162000a9d565b92915050565b600082601f8301126200059a57600080fd5b8151620005ac8482602086016200052c565b91505092915050565b600060208284031215620005c857600080fd5b6000620005d88482850162000571565b91505092915050565b60008060408385031215620005f557600080fd5b6000620006058582860162000571565b925050602083015167ffffffffffffffff8111156200062357600080fd5b620006318582860162000588565b9150509250929050565b600062000648826200082a565b62000654818562000840565b935062000666818560208601620008d5565b80840191505092915050565b60006200067f8262000835565b6200068b81856200084b565b93506200069d818560208601620008d5565b620006a8816200099f565b840191505092915050565b6000620006c26025836200084b565b9150620006cf82620009b0565b604082019050919050565b6000620006e96026836200084b565b9150620006f682620009ff565b604082019050919050565b6000620007106030836200084b565b91506200071d8262000a4e565b604082019050919050565b60006200073682846200063b565b915081905092915050565b600060208201905081810360008301526200075d818462000672565b905092915050565b600060208201905081810360008301526200078081620006b3565b9050919050565b60006020820190508181036000830152620007a281620006da565b9050919050565b60006020820190508181036000830152620007c48162000701565b9050919050565b6000620007d7620007ea565b9050620007e582826200090b565b919050565b6000604051905090565b600067ffffffffffffffff82111562000812576200081162000970565b5b6200081d826200099f565b9050602081019050919050565b600081519050919050565b600081519050919050565b600081905092915050565b600082825260208201905092915050565b60006200086982620008cb565b91506200087683620008cb565b9250828210156200088c576200088b62000941565b5b828203905092915050565b6000620008a482620008ab565b9050919050565b600073ffffffffffffffffffffffffffffffffffffffff82169050919050565b6000819050919050565b60005b83811015620008f5578082015181840152602081019050620008d8565b8381111562000905576000848401525b50505050565b62000916826200099f565b810181811067ffffffffffffffff8211171562000938576200093762000970565b5b80604052505050565b7f4e487b7100000000000000000000000000000000000000000000000000000000600052601160045260246000fd5b7f4e487b7100000000000000000000000000000000000000000000000000000000600052604160045260246000fd5b6000601f19601f8301169050919050565b7f455243313936373a206e657720626561636f6e206973206e6f74206120636f6e60008201527f7472616374000000000000000000000000000000000000000000000000000000602082015250565b7f416464726573733a2064656c65676174652063616c6c20746f206e6f6e2d636f60008201527f6e74726163740000000000000000000000000000000000000000000000000000602082015250565b7f455243313936373a20626561636f6e20696d706c656d656e746174696f6e206960008201527f73206e6f74206120636f6e747261637400000000000000000000000000000000602082015250565b62000aa88162000897565b811462000ab457600080fd5b50565b6106f78062000ac76000396000f3fe60806040526004361061002d5760003560e01c806306fdde031461004657806354fd4d50146100715761003c565b3661003c5761003a61009c565b005b61004461009c565b005b34801561005257600080fd5b5061005b6100b6565b60405161006891906104c4565b60405180910390f35b34801561007d57600080fd5b50610086610144565b6040516100939190610506565b60405180910390f35b6100a4610194565b6100b46100af610196565b610222565b565b600180546100c3906105c2565b80601f01602080910402602001604051908101604052809291908181526020018280546100ef906105c2565b801561013c5780601f106101115761010080835404028352916020019161013c565b820191906000526020600020905b81548152906001019060200180831161011f57829003601f168201915b505050505081565b60005481565b606061016f838360405180606001604052806027815260200161069b60279139610248565b905092915050565b600080823b905060008111915050919050565b6000819050919050565b565b60006101a0610315565b73ffffffffffffffffffffffffffffffffffffffff16635c60da1b6040518163ffffffff1660e01b815260040160206040518083038186803b1580156101e557600080fd5b505afa1580156101f9573d6000803e3d6000fd5b505050506040513d601f19601f8201168201806040525081019061021d91906103e8565b905090565b3660008037600080366000845af43d6000803e8060008114610243573d6000f35b3d6000fd5b606061025384610177565b610292576040517f08c379a0000000000000000000000000000000000000000000000000000000008152600401610289906104e6565b60405180910390fd5b6000808573ffffffffffffffffffffffffffffffffffffffff16856040516102ba91906104ad565b600060405180830381855af49150503d80600081146102f5576040519150601f19603f3d011682016040523d82523d6000602084013e6102fa565b606091505b509150915061030a82828661036c565b925050509392505050565b60006103437fa3f0ad74e5423aebfd80d3ef4346578335a9a72aeaee59ff6cb3582b35133d5060001b61018a565b60000160009054906101000a900473ffffffffffffffffffffffffffffffffffffffff16905090565b6060831561037c578290506103cc565b60008351111561038f5782518084602001fd5b816040517f08c379a00000000000000000000000000000000000000000000000000000000081526004016103c391906104c4565b60405180910390fd5b9392505050565b6000815190506103e281610683565b92915050565b6000602082840312156103fa57600080fd5b6000610408848285016103d3565b91505092915050565b600061041c82610521565b6104268185610537565b935061043681856020860161058f565b80840191505092915050565b600061044d8261052c565b6104578185610542565b935061046781856020860161058f565b61047081610623565b840191505092915050565b6000610488602683610542565b915061049382610634565b604082019050919050565b6104a781610585565b82525050565b60006104b98284610411565b915081905092915050565b600060208201905081810360008301526104de8184610442565b905092915050565b600060208201905081810360008301526104ff8161047b565b9050919050565b600060208201905061051b600083018461049e565b92915050565b600081519050919050565b600081519050919050565b600081905092915050565b600082825260208201905092915050565b600061055e82610565565b9050919050565b600073ffffffffffffffffffffffffffffffffffffffff82169050919050565b6000819050919050565b60005b838110156105ad578082015181840152602081019050610592565b838111156105bc576000848401525b50505050565b600060028204905060018216806105da57607f821691505b602082108114156105ee576105ed6105f4565b5b50919050565b7f4e487b7100000000000000000000000000000000000000000000000000000000600052602260045260246000fd5b6000601f19601f8301169050919050565b7f416464726573733a2064656c65676174652063616c6c20746f206e6f6e2d636f60008201527f6e74726163740000000000000000000000000000000000000000000000000000602082015250565b61068c81610553565b811461069757600080fd5b5056fe416464726573733a206c6f772d6c6576656c2064656c65676174652063616c6c206661696c6564a2646970667358221220246ab715a99c4629e90c4768a3ca1aa277127189c27c952b9db25a2f4536fb5b64736f6c63430008020033416464726573733a206c6f772d6c6576656c2064656c65676174652063616c6c206661696c6564a264697066735822122085565eeb422e8c352000f3203d749db622967a1e7146e17fc2bf74a95cc690c364736f6c63430008020033608060405234801561001057600080fd5b50604051610a7c380380610a7c833981810160405281019061003291906101ed565b61004e61004361006360201b60201c565b61006b60201b60201c565b61005d8161012f60201b60201c565b50610302565b600033905090565b60008060009054906101000a900473ffffffffffffffffffffffffffffffffffffffff169050816000806101000a81548173ffffffffffffffffffffffffffffffffffffffff021916908373ffffffffffffffffffffffffffffffffffffffff1602179055508173ffffffffffffffffffffffffffffffffffffffff168173ffffffffffffffffffffffffffffffffffffffff167f8be0079c531659141344cd1fd0a4f28419497f9722a3daafe3b4186f6b6457e060405160405180910390a35050565b610142816101c560201b6103781760201c565b610181576040517f08c379a000000000000000000000000000000000000000000000000000000000815260040161017890610239565b60405180910390fd5b80600160006101000a81548173ffffffffffffffffffffffffffffffffffffffff021916908373ffffffffffffffffffffffffffffffffffffffff16021790555050565b600080823b905060008111915050919050565b6000815190506101e7816102eb565b92915050565b6000602082840312156101ff57600080fd5b600061020d848285016101d8565b91505092915050565b6000610223603383610259565b915061022e8261029c565b604082019050919050565b6000602082019050818103600083015261025281610216565b9050919050565b600082825260208201905092915050565b60006102758261027c565b9050919050565b600073ffffffffffffffffffffffffffffffffffffffff82169050919050565b7f5570677261646561626c65426561636f6e3a20696d706c656d656e746174696f60008201527f6e206973206e6f74206120636f6e747261637400000000000000000000000000602082015250565b6102f48161026a565b81146102ff57600080fd5b50565b61076b806103116000396000f3fe608060405234801561001057600080fd5b50600436106100575760003560e01c80633659cfe61461005c5780635c60da1b14610078578063715018a6146100965780638da5cb5b146100a0578063f2fde38b146100be575b600080fd5b610076600480360381019061007191906104f8565b6100da565b005b6100806101a5565b60405161008d9190610599565b60405180910390f35b61009e6101cf565b005b6100a8610257565b6040516100b59190610599565b60405180910390f35b6100d860048036038101906100d391906104f8565b610280565b005b6100e261038b565b73ffffffffffffffffffffffffffffffffffffffff16610100610257565b73ffffffffffffffffffffffffffffffffffffffff1614610156576040517f08c379a000000000000000000000000000000000000000000000000000000000815260040161014d906105f4565b60405180910390fd5b61015f81610393565b8073ffffffffffffffffffffffffffffffffffffffff167fbc7cd75a20ee27fd9adebab32041f755214dbc6bffa90cc0225b39da2e5c2d3b60405160405180910390a250565b6000600160009054906101000a900473ffffffffffffffffffffffffffffffffffffffff16905090565b6101d761038b565b73ffffffffffffffffffffffffffffffffffffffff166101f5610257565b73ffffffffffffffffffffffffffffffffffffffff161461024b576040517f08c379a0000000000000000000000000000000000000000000000000000000008152600401610242906105f4565b60405180910390fd5b610255600061041f565b565b60008060009054906101000a900473ffffffffffffffffffffffffffffffffffffffff16905090565b61028861038b565b73ffffffffffffffffffffffffffffffffffffffff166102a6610257565b73ffffffffffffffffffffffffffffffffffffffff16146102fc576040517f08c379a00000000000000000000000000000000000000000000000000000000081526004016102f3906105f4565b60405180910390fd5b600073ffffffffffffffffffffffffffffffffffffffff168173ffffffffffffffffffffffffffffffffffffffff16141561036c576040517f08c379a0000000000000000000000000000000000000000000000000000000008152600401610363906105b4565b60405180910390fd5b6103758161041f565b50565b600080823b905060008111915050919050565b600033905090565b61039c81610378565b6103db576040517f08c379a00000000000000000000000000000000000000000000000000000000081526004016103d2906105d4565b60405180910390fd5b80600160006101000a81548173ffffffffffffffffffffffffffffffffffffffff021916908373ffffffffffffffffffffffffffffffffffffffff16021790555050565b60008060009054906101000a900473ffffffffffffffffffffffffffffffffffffffff169050816000806101000a81548173ffffffffffffffffffffffffffffffffffffffff021916908373ffffffffffffffffffffffffffffffffffffffff1602179055508173ffffffffffffffffffffffffffffffffffffffff168173ffffffffffffffffffffffffffffffffffffffff167f8be0079c531659141344cd1fd0a4f28419497f9722a3daafe3b4186f6b6457e060405160405180910390a35050565b6000813590506104f28161071e565b92915050565b60006020828403121561050a57600080fd5b6000610518848285016104e3565b91505092915050565b61052a81610625565b82525050565b600061053d602683610614565b915061054882610657565b604082019050919050565b6000610560603383610614565b915061056b826106a6565b604082019050919050565b6000610583602083610614565b915061058e826106f5565b602082019050919050565b60006020820190506105ae6000830184610521565b92915050565b600060208201905081810360008301526105cd81610530565b9050919050565b600060208201905081810360008301526105ed81610553565b9050919050565b6000602082019050818103600083015261060d81610576565b9050919050565b600082825260208201905092915050565b600061063082610637565b9050919050565b600073ffffffffffffffffffffffffffffffffffffffff82169050919050565b7f4f776e61626c653a206e6577206f776e657220697320746865207a65726f206160008201527f6464726573730000000000000000000000000000000000000000000000000000602082015250565b7f5570677261646561626c65426561636f6e3a20696d706c656d656e746174696f60008201527f6e206973206e6f74206120636f6e747261637400000000000000000000000000602082015250565b7f4f776e61626c653a2063616c6c6572206973206e6f7420746865206f776e6572600082015250565b61072781610625565b811461073257600080fd5b5056fea2646970667358221220b22676b6956cc415854dd9c20418434ea899381314ed544c5da298bdbcfaa50264736f6c63430008020033",
  "linkReferences": {},
  "deployedLinkReferences": {}
}