{
  "_format": "hh-sol-artifact-1",
  "contractName": "LeagueMaker",
  "sourceName": "contracts/LeagueMaker.sol",
  "abi": [
    {
      "inputs": [
        {
          "internalType": "address",
          "name": "_logic",
          "type": "address"
        }
      ],
      "stateMutability": "nonpayable",
      "type": "constructor"
    },
    {
      "anonymous": false,
      "inputs": [
        {
          "indexed": false,
          "internalType": "string",
          "name": "name",
          "type": "string"
        },
        {
          "indexed": false,
          "internalType": "address",
          "name": "a",
          "type": "address"
        }
      ],
      "name": "LeagueCreated",
      "type": "event"
    },
    {
      "anonymous": false,
      "inputs": [
        {
          "indexed": false,
          "internalType": "bool",
          "name": "success",
          "type": "bool"
        },
        {
          "indexed": false,
          "internalType": "bytes",
          "name": "data",
          "type": "bytes"
        }
      ],
      "name": "Response",
      "type": "event"
    },
    {
      "anonymous": false,
      "inputs": [
        {
          "indexed": false,
          "internalType": "address",
          "name": "clone",
          "type": "address"
        }
      ],
      "name": "cloneCreated",
      "type": "event"
    },
    {
      "inputs": [],
      "name": "beaconAddress",
      "outputs": [
        {
          "internalType": "address",
          "name": "",
          "type": "address"
        }
      ],
      "stateMutability": "view",
      "type": "function"
    },
    {
      "inputs": [
        {
          "internalType": "string",
          "name": "_name",
          "type": "string"
        },
        {
          "internalType": "uint256",
          "name": "_version",
          "type": "uint256"
        }
      ],
      "name": "createLeague",
      "outputs": [
        {
          "internalType": "address",
          "name": "",
          "type": "address"
        }
      ],
      "stateMutability": "nonpayable",
      "type": "function"
    },
    {
      "inputs": [
        {
          "internalType": "address",
          "name": "implementation",
          "type": "address"
        }
      ],
      "name": "createLeagueClone",
      "outputs": [],
      "stateMutability": "nonpayable",
      "type": "function"
    },
    {
      "inputs": [],
      "name": "getBeacon",
      "outputs": [
        {
          "internalType": "address",
          "name": "",
          "type": "address"
        }
      ],
      "stateMutability": "view",
      "type": "function"
    },
    {
      "inputs": [],
      "name": "parameters",
      "outputs": [
        {
          "internalType": "string",
          "name": "name",
          "type": "string"
        },
        {
          "internalType": "uint256",
          "name": "version",
          "type": "uint256"
        }
      ],
      "stateMutability": "view",
      "type": "function"
    },
    {
      "inputs": [],
      "name": "secretNumber",
      "outputs": [
        {
          "internalType": "uint256",
          "name": "",
          "type": "uint256"
        }
      ],
      "stateMutability": "view",
      "type": "function"
    },
    {
      "inputs": [
        {
          "internalType": "address",
          "name": "logic",
          "type": "address"
        }
      ],
      "name": "setBeacon",
      "outputs": [
        {
          "internalType": "address",
          "name": "",
          "type": "address"
        }
      ],
      "stateMutability": "nonpayable",
      "type": "function"
    },
    {
      "inputs": [
        {
          "internalType": "address",
          "name": "_addr",
          "type": "address"
        }
      ],
      "name": "testCallDoesNotExist",
      "outputs": [],
      "stateMutability": "nonpayable",
      "type": "function"
    },
    {
      "inputs": [
        {
          "internalType": "address",
          "name": "newLogicImpl",
          "type": "address"
        }
      ],
      "name": "upgrade",
      "outputs": [],
      "stateMutability": "nonpayable",
      "type": "function"
    },
    {
      "inputs": [],
      "name": "version",
      "outputs": [
        {
          "internalType": "uint256",
          "name": "",
          "type": "uint256"
        }
      ],
      "stateMutability": "view",
      "type": "function"
    }
  ],
  "bytecode": "0x60a06040526001600355602a6004553480156200001b57600080fd5b5060405162003a4438038062003a448339818101604052810190620000419190620000dc565b806040516200005090620000b7565b6200005c91906200011f565b604051809103906000f08015801562000079573d6000803e3d6000fd5b5073ffffffffffffffffffffffffffffffffffffffff1660808173ffffffffffffffffffffffffffffffffffffffff1660601b81525050506200018f565b610a918062002fb383390190565b600081519050620000d68162000175565b92915050565b600060208284031215620000f557620000f462000170565b5b60006200010584828501620000c5565b91505092915050565b62000119816200013c565b82525050565b60006020820190506200013660008301846200010e565b92915050565b6000620001498262000150565b9050919050565b600073ffffffffffffffffffffffffffffffffffffffff82169050919050565b600080fd5b62000180816200013c565b81146200018c57600080fd5b50565b60805160601c612df7620001bc6000396000818161022a015281816102be01526105410152612df76000f3fe60806040523480156200001157600080fd5b5060043610620000ac5760003560e01c806393d1bc01116200006f57806393d1bc01146200015a578063c1d5746d146200017a578063c36604ed14620001b0578063d42afb5614620001d2578063ff00726c146200020857620000ac565b80630900f01014620000b15780632d6b3a6b14620000d157806354fd4d5014620000f35780637e2ec6d01462000115578063890357301462000137575b600080fd5b620000cf6004803603810190620000c9919062000b05565b62000228565b005b620000db620002ba565b604051620000ea919062000d59565b60405180910390f35b620000fd620002e2565b6040516200010c919062000e68565b60405180910390f35b6200011f620002e8565b6040516200012e919062000d59565b60405180910390f35b620001416200030e565b6040516200015192919062000dde565b60405180910390f35b62000178600480360381019062000172919062000b05565b620003b0565b005b62000198600480360381019062000192919062000b37565b6200041d565b604051620001a7919062000d59565b60405180910390f35b620001ba62000605565b604051620001c9919062000e68565b60405180910390f35b620001f06004803603810190620001ea919062000b05565b6200060b565b604051620001ff919062000d59565b60405180910390f35b62000226600480360381019062000220919062000b05565b62000693565b005b7f000000000000000000000000000000000000000000000000000000000000000073ffffffffffffffffffffffffffffffffffffffff16633659cfe6826040518263ffffffff1660e01b815260040162000283919062000d59565b600060405180830381600087803b1580156200029e57600080fd5b505af1158015620002b3573d6000803e3d6000fd5b5050505050565b60007f0000000000000000000000000000000000000000000000000000000000000000905090565b60035481565b600260009054906101000a900473ffffffffffffffffffffffffffffffffffffffff1681565b6000806000018054620003219062000f5d565b80601f01602080910402602001604051908101604052809291908181526020018280546200034f9062000f5d565b8015620003a05780601f106200037457610100808354040283529160200191620003a0565b820191906000526020600020905b8154815290600101906020018083116200038257829003601f168201915b5050505050908060010154905082565b6000620003d38273ffffffffffffffffffffffffffffffffffffffff16620007c8565b9050620003e081620008a0565b7f2aaf288a102ed6f660f6e1baa490b372acc85212a9bc14ef72ad283bb6a3d1198160405162000411919062000d59565b60405180910390a15050565b6000604051806040016040528085858080601f016020809104026020016040519081016040528093929190818152602001838380828437600081840152601f19601f820116905080830192505050505050508152602001838152506000808201518160000190805190602001906200049792919062000966565b506020820151816001015590505060008060010154604051602401620004be919062000e68565b6040516020818303038152906040527ffe4b84df000000000000000000000000000000000000000000000000000000007bffffffffffffffffffffffffffffffffffffffffffffffffffffffff19166020820180517bffffffffffffffffffffffffffffffffffffffffffffffffffffffff8381831617835250505050905060007f0000000000000000000000000000000000000000000000000000000000000000826040516200056f90620009f7565b6200057c92919062000d76565b604051809103906000f08015801562000599573d6000803e3d6000fd5b5090507f6f41e080f0ba3b200797d7e512fbca5fa5d4b72f7d8fb62d6fb40997ea9679806000800182604051620005d292919062000e12565b60405180910390a1600080600082016000620005ef919062000a05565b6001820160009055505080925050509392505050565b60045481565b600080826040516200061d9062000a4b565b62000629919062000d59565b604051809103906000f08015801562000646573d6000803e3d6000fd5b50905080600260006101000a81548173ffffffffffffffffffffffffffffffffffffffff021916908373ffffffffffffffffffffffffffffffffffffffff16021790555080915050919050565b6000808273ffffffffffffffffffffffffffffffffffffffff166040516024016040516020818303038152906040527f2cf0a1fc000000000000000000000000000000000000000000000000000000007bffffffffffffffffffffffffffffffffffffffffffffffffffffffff19166020820180517bffffffffffffffffffffffffffffffffffffffffffffffffffffffff83818316178352505050506040516200073f919062000d40565b6000604051808303816000865af19150503d80600081146200077e576040519150601f19603f3d011682016040523d82523d6000602084013e62000783565b606091505b50915091507f13848c3e38f8886f3f5d2ad9dff80d8092c2bbb8efd5b887a99c2c6cfc09ac2a8282604051620007bb92919062000daa565b60405180910390a1505050565b60006040517f3d602d80600a3d3981f3363d3d373d3d3d363d7300000000000000000000000081528260601b60148201527f5af43d82803e903d91602b57fd5bf3000000000000000000000000000000000060288201526037816000f0915050600073ffffffffffffffffffffffffffffffffffffffff168173ffffffffffffffffffffffffffffffffffffffff1614156200089b576040517f08c379a0000000000000000000000000000000000000000000000000000000008152600401620008929062000e46565b60405180910390fd5b919050565b6200093a81604051602401620008b7919062000d59565b6040516020818303038152906040527f2c2ecbc2000000000000000000000000000000000000000000000000000000007bffffffffffffffffffffffffffffffffffffffffffffffffffffffff19166020820180517bffffffffffffffffffffffffffffffffffffffffffffffffffffffff83818316178352505050506200093d565b50565b60008151905060006a636f6e736f6c652e6c6f679050602083016000808483855afa5050505050565b828054620009749062000f5d565b90600052602060002090601f016020900481019282620009985760008555620009e4565b82601f10620009b357805160ff1916838001178555620009e4565b82800160010185558215620009e4579182015b82811115620009e3578251825591602001919060010190620009c6565b5b509050620009f3919062000a59565b5090565b6112e7806200104a83390190565b50805462000a139062000f5d565b6000825580601f1062000a27575062000a48565b601f01602090049060005260206000209081019062000a47919062000a59565b5b50565b610a91806200233183390190565b5b8082111562000a7457600081600090555060010162000a5a565b5090565b60008135905062000a898162001015565b92915050565b60008083601f84011262000aa85762000aa762000fc7565b5b8235905067ffffffffffffffff81111562000ac85762000ac762000fc2565b5b60208301915083600182028301111562000ae75762000ae662000fcc565b5b9250929050565b60008135905062000aff816200102f565b92915050565b60006020828403121562000b1e5762000b1d62000fd6565b5b600062000b2e8482850162000a78565b91505092915050565b60008060006040848603121562000b535762000b5262000fd6565b5b600084013567ffffffffffffffff81111562000b745762000b7362000fd1565b5b62000b828682870162000a8f565b9350935050602062000b978682870162000aee565b9150509250925092565b62000bac8162000edd565b82525050565b62000bbd8162000ef1565b82525050565b600062000bd08262000e9a565b62000bdc818562000eb0565b935062000bee81856020860162000f27565b62000bf98162000fdb565b840191505092915050565b600062000c118262000e9a565b62000c1d818562000ec1565b935062000c2f81856020860162000f27565b80840191505092915050565b600062000c488262000ea5565b62000c54818562000ecc565b935062000c6681856020860162000f27565b62000c718162000fdb565b840191505092915050565b6000815462000c8b8162000f5d565b62000c97818662000ecc565b9450600182166000811462000cb5576001811462000cc85762000cff565b60ff198316865260208601935062000cff565b62000cd38562000e85565b60005b8381101562000cf75781548189015260018201915060208101905062000cd6565b808801955050505b50505092915050565b600062000d1760168362000ecc565b915062000d248262000fec565b602082019050919050565b62000d3a8162000f1d565b82525050565b600062000d4e828462000c04565b915081905092915050565b600060208201905062000d70600083018462000ba1565b92915050565b600060408201905062000d8d600083018562000ba1565b818103602083015262000da1818462000bc3565b90509392505050565b600060408201905062000dc1600083018562000bb2565b818103602083015262000dd5818462000bc3565b90509392505050565b6000604082019050818103600083015262000dfa818562000c3b565b905062000e0b602083018462000d2f565b9392505050565b6000604082019050818103600083015262000e2e818562000c7c565b905062000e3f602083018462000ba1565b9392505050565b6000602082019050818103600083015262000e618162000d08565b9050919050565b600060208201905062000e7f600083018462000d2f565b92915050565b60008190508160005260206000209050919050565b600081519050919050565b600081519050919050565b600082825260208201905092915050565b600081905092915050565b600082825260208201905092915050565b600062000eea8262000efd565b9050919050565b60008115159050919050565b600073ffffffffffffffffffffffffffffffffffffffff82169050919050565b6000819050919050565b60005b8381101562000f4757808201518184015260208101905062000f2a565b8381111562000f57576000848401525b50505050565b6000600282049050600182168062000f7657607f821691505b6020821081141562000f8d5762000f8c62000f93565b5b50919050565b7f4e487b7100000000000000000000000000000000000000000000000000000000600052602260045260246000fd5b600080fd5b600080fd5b600080fd5b600080fd5b600080fd5b6000601f19601f8301169050919050565b7f455243313136373a20637265617465206661696c656400000000000000000000600082015250565b620010208162000edd565b81146200102c57600080fd5b50565b6200103a8162000f1d565b81146200104657600080fd5b5056fe6080604052604051620012e7380380620012e78339818101604052810190620000299190620005cf565b60017fa3f0ad74e5423aebfd80d3ef4346578335a9a72aeaee59ff6cb3582b35133d5160001c6200005b919062000856565b60001b7fa3f0ad74e5423aebfd80d3ef4346578335a9a72aeaee59ff6cb3582b35133d5060001b146200009357620000926200093b565b5b620000a782826000620000af60201b60201c565b505062000af4565b620000c083620001b660201b60201c565b8273ffffffffffffffffffffffffffffffffffffffff167f1cf3b03a6cf19fa2baba4df148e9dcabedea7f8a5c07840e207e5c089be95d3e60405160405180910390a2600082511180620001115750805b15620001b157620001af8373ffffffffffffffffffffffffffffffffffffffff16635c60da1b6040518163ffffffff1660e01b815260040160206040518083038186803b1580156200016257600080fd5b505afa15801562000177573d6000803e3d6000fd5b505050506040513d601f19601f820116820180604052508101906200019d91906200059d565b836200036560201b620001ad1760201c565b505b505050565b620001cc816200039b60201b620001da1760201c565b6200020e576040517f08c379a000000000000000000000000000000000000000000000000000000000815260040162000205906200075f565b60405180910390fd5b620002a58173ffffffffffffffffffffffffffffffffffffffff16635c60da1b6040518163ffffffff1660e01b815260040160206040518083038186803b1580156200025957600080fd5b505afa1580156200026e573d6000803e3d6000fd5b505050506040513d601f19601f820116820180604052508101906200029491906200059d565b6200039b60201b620001da1760201c565b620002e7576040517f08c379a0000000000000000000000000000000000000000000000000000000008152600401620002de90620007a3565b60405180910390fd5b80620003217fa3f0ad74e5423aebfd80d3ef4346578335a9a72aeaee59ff6cb3582b35133d5060001b620003ae60201b620001ed1760201c565b60000160006101000a81548173ffffffffffffffffffffffffffffffffffffffff021916908373ffffffffffffffffffffffffffffffffffffffff16021790555050565b6060620003938383604051806060016040528060278152602001620012c060279139620003b860201b60201c565b905092915050565b600080823b905060008111915050919050565b6000819050919050565b6060620003cb846200039b60201b60201c565b6200040d576040517f08c379a0000000000000000000000000000000000000000000000000000000008152600401620004049062000781565b60405180910390fd5b6000808573ffffffffffffffffffffffffffffffffffffffff168560405162000437919062000722565b600060405180830381855af49150503d806000811462000474576040519150601f19603f3d011682016040523d82523d6000602084013e62000479565b606091505b5091509150620004918282866200049c60201b60201c565b925050509392505050565b60608315620004ae5782905062000501565b600083511115620004c25782518084602001fd5b816040517f08c379a0000000000000000000000000000000000000000000000000000000008152600401620004f891906200073b565b60405180910390fd5b9392505050565b60006200051f6200051984620007ee565b620007c5565b9050828152602081018484840111156200053e576200053d620009cd565b5b6200054b848285620008cf565b509392505050565b600081519050620005648162000ada565b92915050565b600082601f830112620005825762000581620009c8565b5b81516200059484826020860162000508565b91505092915050565b600060208284031215620005b657620005b5620009d7565b5b6000620005c68482850162000553565b91505092915050565b60008060408385031215620005e957620005e8620009d7565b5b6000620005f98582860162000553565b925050602083015167ffffffffffffffff8111156200061d576200061c620009d2565b5b6200062b858286016200056a565b9150509250929050565b6000620006428262000824565b6200064e81856200083a565b935062000660818560208601620008cf565b80840191505092915050565b600062000679826200082f565b62000685818562000845565b935062000697818560208601620008cf565b620006a281620009dc565b840191505092915050565b6000620006bc60258362000845565b9150620006c982620009ed565b604082019050919050565b6000620006e360268362000845565b9150620006f08262000a3c565b604082019050919050565b60006200070a60308362000845565b9150620007178262000a8b565b604082019050919050565b600062000730828462000635565b915081905092915050565b600060208201905081810360008301526200075781846200066c565b905092915050565b600060208201905081810360008301526200077a81620006ad565b9050919050565b600060208201905081810360008301526200079c81620006d4565b9050919050565b60006020820190508181036000830152620007be81620006fb565b9050919050565b6000620007d1620007e4565b9050620007df828262000905565b919050565b6000604051905090565b600067ffffffffffffffff8211156200080c576200080b62000999565b5b6200081782620009dc565b9050602081019050919050565b600081519050919050565b600081519050919050565b600081905092915050565b600082825260208201905092915050565b60006200086382620008c5565b91506200087083620008c5565b9250828210156200088657620008856200096a565b5b828203905092915050565b60006200089e82620008a5565b9050919050565b600073ffffffffffffffffffffffffffffffffffffffff82169050919050565b6000819050919050565b60005b83811015620008ef578082015181840152602081019050620008d2565b83811115620008ff576000848401525b50505050565b6200091082620009dc565b810181811067ffffffffffffffff8211171562000932576200093162000999565b5b80604052505050565b7f4e487b7100000000000000000000000000000000000000000000000000000000600052600160045260246000fd5b7f4e487b7100000000000000000000000000000000000000000000000000000000600052601160045260246000fd5b7f4e487b7100000000000000000000000000000000000000000000000000000000600052604160045260246000fd5b600080fd5b600080fd5b600080fd5b600080fd5b6000601f19601f8301169050919050565b7f455243313936373a206e657720626561636f6e206973206e6f74206120636f6e60008201527f7472616374000000000000000000000000000000000000000000000000000000602082015250565b7f416464726573733a2064656c65676174652063616c6c20746f206e6f6e2d636f60008201527f6e74726163740000000000000000000000000000000000000000000000000000602082015250565b7f455243313936373a20626561636f6e20696d706c656d656e746174696f6e206960008201527f73206e6f74206120636f6e747261637400000000000000000000000000000000602082015250565b62000ae58162000891565b811462000af157600080fd5b50565b6107bc8062000b046000396000f3fe6080604052600436106100385760003560e01c806306fdde0314610051578063267175db1461007c57806354fd4d50146100b957610047565b36610047576100456100e4565b005b61004f6100e4565b005b34801561005d57600080fd5b506100666100fe565b604051610073919061056d565b60405180910390f35b34801561008857600080fd5b506100a3600480360381019061009e919061048d565b61018c565b6040516100b091906105af565b60405180910390f35b3480156100c557600080fd5b506100ce6101a7565b6040516100db91906105af565b60405180910390f35b6100ec6101f7565b6100fc6100f76101f9565b610285565b565b6001805461010b9061066b565b80601f01602080910402602001604051908101604052809291908181526020018280546101379061066b565b80156101845780601f1061015957610100808354040283529160200191610184565b820191906000526020600020905b81548152906001019060200180831161016757829003601f168201915b505050505081565b6002816005811061019c57600080fd5b016000915090505481565b60005481565b60606101d28383604051806060016040528060278152602001610760602791396102ab565b905092915050565b600080823b905060008111915050919050565b6000819050919050565b565b6000610203610378565b73ffffffffffffffffffffffffffffffffffffffff16635c60da1b6040518163ffffffff1660e01b815260040160206040518083038186803b15801561024857600080fd5b505afa15801561025c573d6000803e3d6000fd5b505050506040513d601f19601f820116820180604052508101906102809190610460565b905090565b3660008037600080366000845af43d6000803e80600081146102a6573d6000f35b3d6000fd5b60606102b6846101da565b6102f5576040517f08c379a00000000000000000000000000000000000000000000000000000000081526004016102ec9061058f565b60405180910390fd5b6000808573ffffffffffffffffffffffffffffffffffffffff168560405161031d9190610556565b600060405180830381855af49150503d8060008114610358576040519150601f19603f3d011682016040523d82523d6000602084013e61035d565b606091505b509150915061036d8282866103cf565b925050509392505050565b60006103a67fa3f0ad74e5423aebfd80d3ef4346578335a9a72aeaee59ff6cb3582b35133d5060001b6101ed565b60000160009054906101000a900473ffffffffffffffffffffffffffffffffffffffff16905090565b606083156103df5782905061042f565b6000835111156103f25782518084602001fd5b816040517f08c379a0000000000000000000000000000000000000000000000000000000008152600401610426919061056d565b60405180910390fd5b9392505050565b60008151905061044581610731565b92915050565b60008135905061045a81610748565b92915050565b600060208284031215610476576104756106cc565b5b600061048484828501610436565b91505092915050565b6000602082840312156104a3576104a26106cc565b5b60006104b18482850161044b565b91505092915050565b60006104c5826105ca565b6104cf81856105e0565b93506104df818560208601610638565b80840191505092915050565b60006104f6826105d5565b61050081856105eb565b9350610510818560208601610638565b610519816106d1565b840191505092915050565b60006105316026836105eb565b915061053c826106e2565b604082019050919050565b6105508161062e565b82525050565b600061056282846104ba565b915081905092915050565b6000602082019050818103600083015261058781846104eb565b905092915050565b600060208201905081810360008301526105a881610524565b9050919050565b60006020820190506105c46000830184610547565b92915050565b600081519050919050565b600081519050919050565b600081905092915050565b600082825260208201905092915050565b60006106078261060e565b9050919050565b600073ffffffffffffffffffffffffffffffffffffffff82169050919050565b6000819050919050565b60005b8381101561065657808201518184015260208101905061063b565b83811115610665576000848401525b50505050565b6000600282049050600182168061068357607f821691505b602082108114156106975761069661069d565b5b50919050565b7f4e487b7100000000000000000000000000000000000000000000000000000000600052602260045260246000fd5b600080fd5b6000601f19601f8301169050919050565b7f416464726573733a2064656c65676174652063616c6c20746f206e6f6e2d636f60008201527f6e74726163740000000000000000000000000000000000000000000000000000602082015250565b61073a816105fc565b811461074557600080fd5b50565b6107518161062e565b811461075c57600080fd5b5056fe416464726573733a206c6f772d6c6576656c2064656c65676174652063616c6c206661696c6564a2646970667358221220190250881fa8caf41dede24557bdd3a76b953acd0f514a48a4afbf37cbb8bb9a64736f6c63430008070033416464726573733a206c6f772d6c6576656c2064656c65676174652063616c6c206661696c6564608060405234801561001057600080fd5b5060405162000a9138038062000a91833981810160405281019061003491906101ef565b61005061004561006560201b60201c565b61006d60201b60201c565b61005f8161013160201b60201c565b5061030d565b600033905090565b60008060009054906101000a900473ffffffffffffffffffffffffffffffffffffffff169050816000806101000a81548173ffffffffffffffffffffffffffffffffffffffff021916908373ffffffffffffffffffffffffffffffffffffffff1602179055508173ffffffffffffffffffffffffffffffffffffffff168173ffffffffffffffffffffffffffffffffffffffff167f8be0079c531659141344cd1fd0a4f28419497f9722a3daafe3b4186f6b6457e060405160405180910390a35050565b610144816101c760201b6103781760201c565b610183576040517f08c379a000000000000000000000000000000000000000000000000000000000815260040161017a9061023f565b60405180910390fd5b80600160006101000a81548173ffffffffffffffffffffffffffffffffffffffff021916908373ffffffffffffffffffffffffffffffffffffffff16021790555050565b600080823b905060008111915050919050565b6000815190506101e9816102f6565b92915050565b600060208284031215610205576102046102a2565b5b6000610213848285016101da565b91505092915050565b600061022960338361025f565b9150610234826102a7565b604082019050919050565b600060208201905081810360008301526102588161021c565b9050919050565b600082825260208201905092915050565b600061027b82610282565b9050919050565b600073ffffffffffffffffffffffffffffffffffffffff82169050919050565b600080fd5b7f5570677261646561626c65426561636f6e3a20696d706c656d656e746174696f60008201527f6e206973206e6f74206120636f6e747261637400000000000000000000000000602082015250565b6102ff81610270565b811461030a57600080fd5b50565b610774806200031d6000396000f3fe608060405234801561001057600080fd5b50600436106100575760003560e01c80633659cfe61461005c5780635c60da1b14610078578063715018a6146100965780638da5cb5b146100a0578063f2fde38b146100be575b600080fd5b610076600480360381019061007191906104f8565b6100da565b005b6100806101a5565b60405161008d919061059d565b60405180910390f35b61009e6101cf565b005b6100a8610257565b6040516100b5919061059d565b60405180910390f35b6100d860048036038101906100d391906104f8565b610280565b005b6100e261038b565b73ffffffffffffffffffffffffffffffffffffffff16610100610257565b73ffffffffffffffffffffffffffffffffffffffff1614610156576040517f08c379a000000000000000000000000000000000000000000000000000000000815260040161014d906105f8565b60405180910390fd5b61015f81610393565b8073ffffffffffffffffffffffffffffffffffffffff167fbc7cd75a20ee27fd9adebab32041f755214dbc6bffa90cc0225b39da2e5c2d3b60405160405180910390a250565b6000600160009054906101000a900473ffffffffffffffffffffffffffffffffffffffff16905090565b6101d761038b565b73ffffffffffffffffffffffffffffffffffffffff166101f5610257565b73ffffffffffffffffffffffffffffffffffffffff161461024b576040517f08c379a0000000000000000000000000000000000000000000000000000000008152600401610242906105f8565b60405180910390fd5b610255600061041f565b565b60008060009054906101000a900473ffffffffffffffffffffffffffffffffffffffff16905090565b61028861038b565b73ffffffffffffffffffffffffffffffffffffffff166102a6610257565b73ffffffffffffffffffffffffffffffffffffffff16146102fc576040517f08c379a00000000000000000000000000000000000000000000000000000000081526004016102f3906105f8565b60405180910390fd5b600073ffffffffffffffffffffffffffffffffffffffff168173ffffffffffffffffffffffffffffffffffffffff16141561036c576040517f08c379a0000000000000000000000000000000000000000000000000000000008152600401610363906105b8565b60405180910390fd5b6103758161041f565b50565b600080823b905060008111915050919050565b600033905090565b61039c81610378565b6103db576040517f08c379a00000000000000000000000000000000000000000000000000000000081526004016103d2906105d8565b60405180910390fd5b80600160006101000a81548173ffffffffffffffffffffffffffffffffffffffff021916908373ffffffffffffffffffffffffffffffffffffffff16021790555050565b60008060009054906101000a900473ffffffffffffffffffffffffffffffffffffffff169050816000806101000a81548173ffffffffffffffffffffffffffffffffffffffff021916908373ffffffffffffffffffffffffffffffffffffffff1602179055508173ffffffffffffffffffffffffffffffffffffffff168173ffffffffffffffffffffffffffffffffffffffff167f8be0079c531659141344cd1fd0a4f28419497f9722a3daafe3b4186f6b6457e060405160405180910390a35050565b6000813590506104f281610727565b92915050565b60006020828403121561050e5761050d61065b565b5b600061051c848285016104e3565b91505092915050565b61052e81610629565b82525050565b6000610541602683610618565b915061054c82610660565b604082019050919050565b6000610564603383610618565b915061056f826106af565b604082019050919050565b6000610587602083610618565b9150610592826106fe565b602082019050919050565b60006020820190506105b26000830184610525565b92915050565b600060208201905081810360008301526105d181610534565b9050919050565b600060208201905081810360008301526105f181610557565b9050919050565b600060208201905081810360008301526106118161057a565b9050919050565b600082825260208201905092915050565b60006106348261063b565b9050919050565b600073ffffffffffffffffffffffffffffffffffffffff82169050919050565b600080fd5b7f4f776e61626c653a206e6577206f776e657220697320746865207a65726f206160008201527f6464726573730000000000000000000000000000000000000000000000000000602082015250565b7f5570677261646561626c65426561636f6e3a20696d706c656d656e746174696f60008201527f6e206973206e6f74206120636f6e747261637400000000000000000000000000602082015250565b7f4f776e61626c653a2063616c6c6572206973206e6f7420746865206f776e6572600082015250565b61073081610629565b811461073b57600080fd5b5056fea2646970667358221220f14c1e123fc6650c2510ce92a5938ce8dbd619e20ec5ceb7ad4526f9ccdb6aca64736f6c63430008070033a26469706673582212205f1f23bcf59c024084dfb573d1e25e7f2d23834c1a0d61f2f3f662832d6beb2364736f6c63430008070033608060405234801561001057600080fd5b5060405162000a9138038062000a91833981810160405281019061003491906101ef565b61005061004561006560201b60201c565b61006d60201b60201c565b61005f8161013160201b60201c565b5061030d565b600033905090565b60008060009054906101000a900473ffffffffffffffffffffffffffffffffffffffff169050816000806101000a81548173ffffffffffffffffffffffffffffffffffffffff021916908373ffffffffffffffffffffffffffffffffffffffff1602179055508173ffffffffffffffffffffffffffffffffffffffff168173ffffffffffffffffffffffffffffffffffffffff167f8be0079c531659141344cd1fd0a4f28419497f9722a3daafe3b4186f6b6457e060405160405180910390a35050565b610144816101c760201b6103781760201c565b610183576040517f08c379a000000000000000000000000000000000000000000000000000000000815260040161017a9061023f565b60405180910390fd5b80600160006101000a81548173ffffffffffffffffffffffffffffffffffffffff021916908373ffffffffffffffffffffffffffffffffffffffff16021790555050565b600080823b905060008111915050919050565b6000815190506101e9816102f6565b92915050565b600060208284031215610205576102046102a2565b5b6000610213848285016101da565b91505092915050565b600061022960338361025f565b9150610234826102a7565b604082019050919050565b600060208201905081810360008301526102588161021c565b9050919050565b600082825260208201905092915050565b600061027b82610282565b9050919050565b600073ffffffffffffffffffffffffffffffffffffffff82169050919050565b600080fd5b7f5570677261646561626c65426561636f6e3a20696d706c656d656e746174696f60008201527f6e206973206e6f74206120636f6e747261637400000000000000000000000000602082015250565b6102ff81610270565b811461030a57600080fd5b50565b610774806200031d6000396000f3fe608060405234801561001057600080fd5b50600436106100575760003560e01c80633659cfe61461005c5780635c60da1b14610078578063715018a6146100965780638da5cb5b146100a0578063f2fde38b146100be575b600080fd5b610076600480360381019061007191906104f8565b6100da565b005b6100806101a5565b60405161008d919061059d565b60405180910390f35b61009e6101cf565b005b6100a8610257565b6040516100b5919061059d565b60405180910390f35b6100d860048036038101906100d391906104f8565b610280565b005b6100e261038b565b73ffffffffffffffffffffffffffffffffffffffff16610100610257565b73ffffffffffffffffffffffffffffffffffffffff1614610156576040517f08c379a000000000000000000000000000000000000000000000000000000000815260040161014d906105f8565b60405180910390fd5b61015f81610393565b8073ffffffffffffffffffffffffffffffffffffffff167fbc7cd75a20ee27fd9adebab32041f755214dbc6bffa90cc0225b39da2e5c2d3b60405160405180910390a250565b6000600160009054906101000a900473ffffffffffffffffffffffffffffffffffffffff16905090565b6101d761038b565b73ffffffffffffffffffffffffffffffffffffffff166101f5610257565b73ffffffffffffffffffffffffffffffffffffffff161461024b576040517f08c379a0000000000000000000000000000000000000000000000000000000008152600401610242906105f8565b60405180910390fd5b610255600061041f565b565b60008060009054906101000a900473ffffffffffffffffffffffffffffffffffffffff16905090565b61028861038b565b73ffffffffffffffffffffffffffffffffffffffff166102a6610257565b73ffffffffffffffffffffffffffffffffffffffff16146102fc576040517f08c379a00000000000000000000000000000000000000000000000000000000081526004016102f3906105f8565b60405180910390fd5b600073ffffffffffffffffffffffffffffffffffffffff168173ffffffffffffffffffffffffffffffffffffffff16141561036c576040517f08c379a0000000000000000000000000000000000000000000000000000000008152600401610363906105b8565b60405180910390fd5b6103758161041f565b50565b600080823b905060008111915050919050565b600033905090565b61039c81610378565b6103db576040517f08c379a00000000000000000000000000000000000000000000000000000000081526004016103d2906105d8565b60405180910390fd5b80600160006101000a81548173ffffffffffffffffffffffffffffffffffffffff021916908373ffffffffffffffffffffffffffffffffffffffff16021790555050565b60008060009054906101000a900473ffffffffffffffffffffffffffffffffffffffff169050816000806101000a81548173ffffffffffffffffffffffffffffffffffffffff021916908373ffffffffffffffffffffffffffffffffffffffff1602179055508173ffffffffffffffffffffffffffffffffffffffff168173ffffffffffffffffffffffffffffffffffffffff167f8be0079c531659141344cd1fd0a4f28419497f9722a3daafe3b4186f6b6457e060405160405180910390a35050565b6000813590506104f281610727565b92915050565b60006020828403121561050e5761050d61065b565b5b600061051c848285016104e3565b91505092915050565b61052e81610629565b82525050565b6000610541602683610618565b915061054c82610660565b604082019050919050565b6000610564603383610618565b915061056f826106af565b604082019050919050565b6000610587602083610618565b9150610592826106fe565b602082019050919050565b60006020820190506105b26000830184610525565b92915050565b600060208201905081810360008301526105d181610534565b9050919050565b600060208201905081810360008301526105f181610557565b9050919050565b600060208201905081810360008301526106118161057a565b9050919050565b600082825260208201905092915050565b60006106348261063b565b9050919050565b600073ffffffffffffffffffffffffffffffffffffffff82169050919050565b600080fd5b7f4f776e61626c653a206e6577206f776e657220697320746865207a65726f206160008201527f6464726573730000000000000000000000000000000000000000000000000000602082015250565b7f5570677261646561626c65426561636f6e3a20696d706c656d656e746174696f60008201527f6e206973206e6f74206120636f6e747261637400000000000000000000000000602082015250565b7f4f776e61626c653a2063616c6c6572206973206e6f7420746865206f776e6572600082015250565b61073081610629565b811461073b57600080fd5b5056fea2646970667358221220f14c1e123fc6650c2510ce92a5938ce8dbd619e20ec5ceb7ad4526f9ccdb6aca64736f6c63430008070033",
  "linkReferences": {},
  "deployedLinkReferences": {}
}