{
  "_format": "hh-sol-artifact-1",
  "contractName": "LeagueMaker",
  "sourceName": "contracts/LeagueMaker.sol",
  "abi": [
    {
      "inputs": [
        {
          "internalType": "address",
          "name": "_logic",
          "type": "address"
        }
      ],
      "stateMutability": "nonpayable",
      "type": "constructor"
    },
    {
      "anonymous": false,
      "inputs": [
        {
          "indexed": false,
          "internalType": "string",
          "name": "name",
          "type": "string"
        },
        {
          "indexed": false,
          "internalType": "address",
          "name": "proxyAddress",
          "type": "address"
        },
        {
          "indexed": false,
          "internalType": "address",
          "name": "proxyAdminAddress",
          "type": "address"
        }
      ],
      "name": "LeagueCreated",
      "type": "event"
    },
    {
      "anonymous": false,
      "inputs": [
        {
          "indexed": true,
          "internalType": "address",
          "name": "previousOwner",
          "type": "address"
        },
        {
          "indexed": true,
          "internalType": "address",
          "name": "newOwner",
          "type": "address"
        }
      ],
      "name": "OwnershipTransferred",
      "type": "event"
    },
    {
      "anonymous": false,
      "inputs": [
        {
          "indexed": false,
          "internalType": "bool",
          "name": "success",
          "type": "bool"
        },
        {
          "indexed": false,
          "internalType": "bytes",
          "name": "data",
          "type": "bytes"
        }
      ],
      "name": "Response",
      "type": "event"
    },
    {
      "inputs": [
        {
          "internalType": "string",
          "name": "_name",
          "type": "string"
        },
        {
          "internalType": "uint256",
          "name": "_stakeAmount",
          "type": "uint256"
        },
        {
          "internalType": "bool",
          "name": "_isPublic",
          "type": "bool"
        },
        {
          "internalType": "address",
          "name": "_testUSDCAddress",
          "type": "address"
        },
        {
          "internalType": "address",
          "name": "_athletesContractAddress",
          "type": "address"
        },
        {
          "internalType": "address",
          "name": "_gameItemsContractAddress",
          "type": "address"
        }
      ],
      "name": "createLeague",
      "outputs": [
        {
          "internalType": "address",
          "name": "",
          "type": "address"
        }
      ],
      "stateMutability": "nonpayable",
      "type": "function"
    },
    {
      "inputs": [],
      "name": "currentWeek",
      "outputs": [
        {
          "internalType": "uint256",
          "name": "",
          "type": "uint256"
        }
      ],
      "stateMutability": "view",
      "type": "function"
    },
    {
      "inputs": [],
      "name": "getLeagueAddresses",
      "outputs": [
        {
          "internalType": "address[]",
          "name": "",
          "type": "address[]"
        }
      ],
      "stateMutability": "view",
      "type": "function"
    },
    {
      "inputs": [
        {
          "internalType": "address",
          "name": "",
          "type": "address"
        }
      ],
      "name": "isProxyMap",
      "outputs": [
        {
          "internalType": "bool",
          "name": "",
          "type": "bool"
        }
      ],
      "stateMutability": "view",
      "type": "function"
    },
    {
      "inputs": [
        {
          "internalType": "uint256",
          "name": "",
          "type": "uint256"
        }
      ],
      "name": "leagueAddresses",
      "outputs": [
        {
          "internalType": "address",
          "name": "",
          "type": "address"
        }
      ],
      "stateMutability": "view",
      "type": "function"
    },
    {
      "inputs": [],
      "name": "owner",
      "outputs": [
        {
          "internalType": "address",
          "name": "",
          "type": "address"
        }
      ],
      "stateMutability": "view",
      "type": "function"
    },
    {
      "inputs": [],
      "name": "renounceOwnership",
      "outputs": [],
      "stateMutability": "nonpayable",
      "type": "function"
    },
    {
      "inputs": [
        {
          "internalType": "address",
          "name": "logic",
          "type": "address"
        }
      ],
      "name": "setBeacon",
      "outputs": [
        {
          "internalType": "address",
          "name": "",
          "type": "address"
        }
      ],
      "stateMutability": "nonpayable",
      "type": "function"
    },
    {
      "inputs": [
        {
          "internalType": "address",
          "name": "newOwner",
          "type": "address"
        }
      ],
      "name": "transferOwnership",
      "outputs": [],
      "stateMutability": "nonpayable",
      "type": "function"
    },
    {
      "inputs": [
        {
          "internalType": "address",
          "name": "user",
          "type": "address"
        }
      ],
      "name": "updateUserToLeagueMapping",
      "outputs": [],
      "stateMutability": "nonpayable",
      "type": "function"
    },
    {
      "inputs": [
        {
          "internalType": "address",
          "name": "",
          "type": "address"
        },
        {
          "internalType": "uint256",
          "name": "",
          "type": "uint256"
        }
      ],
      "name": "userToLeagueMap",
      "outputs": [
        {
          "internalType": "address",
          "name": "",
          "type": "address"
        }
      ],
      "stateMutability": "view",
      "type": "function"
    }
  ],
  "bytecode": "0x60c060405260086007556000600855732791bca1f2de4661ed88a30c99a7a9449aa84174600960006101000a81548173ffffffffffffffffffffffffffffffffffffffff021916908373ffffffffffffffffffffffffffffffffffffffff16021790555073eb8f08a975ab53e34d8a0330e0d34de942c95926600a60006101000a81548173ffffffffffffffffffffffffffffffffffffffff021916908373ffffffffffffffffffffffffffffffffffffffff160217905550348015620000c557600080fd5b5060405162006366380380620063668339818101604052810190620000eb9190620002a9565b6200010b620000ff620001b860201b60201c565b620001c060201b60201c565b806040516200011a9062000284565b620001269190620002ec565b604051809103906000f08015801562000143573d6000803e3d6000fd5b5073ffffffffffffffffffffffffffffffffffffffff1660808173ffffffffffffffffffffffffffffffffffffffff1660601b815250503373ffffffffffffffffffffffffffffffffffffffff1660a08173ffffffffffffffffffffffffffffffffffffffff1660601b81525050506200035c565b600033905090565b60008060009054906101000a900473ffffffffffffffffffffffffffffffffffffffff169050816000806101000a81548173ffffffffffffffffffffffffffffffffffffffff021916908373ffffffffffffffffffffffffffffffffffffffff1602179055508173ffffffffffffffffffffffffffffffffffffffff168173ffffffffffffffffffffffffffffffffffffffff167f8be0079c531659141344cd1fd0a4f28419497f9722a3daafe3b4186f6b6457e060405160405180910390a35050565b610a9180620058d583390190565b600081519050620002a38162000342565b92915050565b600060208284031215620002c257620002c16200033d565b5b6000620002d28482850162000292565b91505092915050565b620002e68162000309565b82525050565b6000602082019050620003036000830184620002db565b92915050565b600062000316826200031d565b9050919050565b600073ffffffffffffffffffffffffffffffffffffffff82169050919050565b600080fd5b6200034d8162000309565b81146200035957600080fd5b50565b60805160601c60a05160601c61554d620003886000396000610666015260006107f9015261554d6000f3fe60806040523480156200001157600080fd5b5060043610620000b85760003560e01c80639c77955b116200007b5780639c77955b1462000163578063b37cc9f11462000185578063c3530ff414620001bb578063d42afb5614620001f1578063d46dc6c41462000227578063f2fde38b146200025d57620000b8565b806306575c8914620000bd57806329ffe5e914620000df578063715018a61462000115578063771bd4ce14620001215780638da5cb5b1462000141575b600080fd5b620000c76200027d565b604051620000d69190620014cf565b60405180910390f35b620000fd6004803603810190620000f7919062000fc8565b62000283565b6040516200010c919062001245565b60405180910390f35b6200011f620002c3565b005b6200013f600480360381019062000139919062000e5c565b62000354565b005b6200014b62000486565b6040516200015a919062001245565b60405180910390f35b6200016d620004af565b6040516200017c9190620012d3565b60405180910390f35b620001a360048036038101906200019d919062000e5c565b6200053f565b604051620001b29190620012f7565b60405180910390f35b620001d96004803603810190620001d3919062000e8e565b6200055f565b604051620001e8919062001245565b60405180910390f35b6200020f600480360381019062000209919062000e5c565b620005ae565b6040516200021e919062001245565b60405180910390f35b6200024560048036038101906200023f919062000f07565b62000636565b60405162000254919062001245565b60405180910390f35b6200027b600480360381019062000275919062000e5c565b62000ad5565b005b60085481565b600381815481106200029457600080fd5b906000526020600020016000915054906101000a900473ffffffffffffffffffffffffffffffffffffffff1681565b620002cd62000bd9565b73ffffffffffffffffffffffffffffffffffffffff16620002ed62000486565b73ffffffffffffffffffffffffffffffffffffffff161462000346576040517f08c379a00000000000000000000000000000000000000000000000000000000081526004016200033d90620014ad565b60405180910390fd5b62000352600062000be1565b565b600560003373ffffffffffffffffffffffffffffffffffffffff1673ffffffffffffffffffffffffffffffffffffffff16815260200190815260200160002060009054906101000a900460ff16620003e3576040517f08c379a0000000000000000000000000000000000000000000000000000000008152600401620003da906200148b565b60405180910390fd5b600460008273ffffffffffffffffffffffffffffffffffffffff1673ffffffffffffffffffffffffffffffffffffffff168152602001908152602001600020339080600181540180825580915050600190039060005260206000200160009091909190916101000a81548173ffffffffffffffffffffffffffffffffffffffff021916908373ffffffffffffffffffffffffffffffffffffffff16021790555050565b60008060009054906101000a900473ffffffffffffffffffffffffffffffffffffffff16905090565b606060038054806020026020016040519081016040528092919081815260200182805480156200053557602002820191906000526020600020905b8160009054906101000a900473ffffffffffffffffffffffffffffffffffffffff1673ffffffffffffffffffffffffffffffffffffffff1681526020019060010190808311620004ea575b5050505050905090565b60056020528060005260406000206000915054906101000a900460ff1681565b600460205281600052604060002081815481106200057c57600080fd5b906000526020600020016000915091509054906101000a900473ffffffffffffffffffffffffffffffffffffffff1681565b60008082604051620005c09062000d6e565b620005cc919062001245565b604051809103906000f080158015620005e9573d6000803e3d6000fd5b50905080600260006101000a81548173ffffffffffffffffffffffffffffffffffffffff021916908373ffffffffffffffffffffffffffffffffffffffff16021790555080915050919050565b600080888888888733600a60009054906101000a900473ffffffffffffffffffffffffffffffffffffffff168b8a7f000000000000000000000000000000000000000000000000000000000000000030604051602401620006a29b9a999897969594939291906200135a565b6040516020818303038152906040527f3c3ae13f000000000000000000000000000000000000000000000000000000007bffffffffffffffffffffffffffffffffffffffffffffffffffffffff19166020820180517bffffffffffffffffffffffffffffffffffffffffffffffffffffffff83818316178352505050509050868573ffffffffffffffffffffffffffffffffffffffff166370a08231336040518263ffffffff1660e01b81526004016200075d919062001245565b60206040518083038186803b1580156200077657600080fd5b505afa1580156200078b573d6000803e3d6000fd5b505050506040513d601f19601f82011682018060405250810190620007b1919062000ffa565b1015620007f5576040517f08c379a0000000000000000000000000000000000000000000000000000000008152600401620007ec9062001469565b60405180910390fd5b60007f000000000000000000000000000000000000000000000000000000000000000082604051620008279062000d7c565b620008349291906200129f565b604051809103906000f08015801562000851573d6000803e3d6000fd5b509050620008956040518060400160405280602081526020017f4d73672e73656e64657220696e206372656174654c65616775652829206973208152503362000ca5565b8573ffffffffffffffffffffffffffffffffffffffff166323b872dd33838b6040518463ffffffff1660e01b8152600401620008d49392919062001262565b602060405180830381600087803b158015620008ef57600080fd5b505af115801562000904573d6000803e3d6000fd5b505050506040513d601f19601f820116820180604052508101906200092a919062000ed5565b506003819080600181540180825580915050600190039060005260206000200160009091909190916101000a81548173ffffffffffffffffffffffffffffffffffffffff021916908373ffffffffffffffffffffffffffffffffffffffff160217905550600460003373ffffffffffffffffffffffffffffffffffffffff1673ffffffffffffffffffffffffffffffffffffffff168152602001908152602001600020819080600181540180825580915050600190039060005260206000200160009091909190916101000a81548173ffffffffffffffffffffffffffffffffffffffff021916908373ffffffffffffffffffffffffffffffffffffffff1602179055506001600560008373ffffffffffffffffffffffffffffffffffffffff1673ffffffffffffffffffffffffffffffffffffffff16815260200190815260200160002060006101000a81548160ff0219169083151502179055507fc47056fccf84218e4e94c23620f6dff0eca24341da09715bdf519222f79d83c38a8a833360405162000abd949392919062001314565b60405180910390a18092505050979650505050505050565b62000adf62000bd9565b73ffffffffffffffffffffffffffffffffffffffff1662000aff62000486565b73ffffffffffffffffffffffffffffffffffffffff161462000b58576040517f08c379a000000000000000000000000000000000000000000000000000000000815260040162000b4f90620014ad565b60405180910390fd5b600073ffffffffffffffffffffffffffffffffffffffff168173ffffffffffffffffffffffffffffffffffffffff16141562000bcb576040517f08c379a000000000000000000000000000000000000000000000000000000000815260040162000bc29062001447565b60405180910390fd5b62000bd68162000be1565b50565b600033905090565b60008060009054906101000a900473ffffffffffffffffffffffffffffffffffffffff169050816000806101000a81548173ffffffffffffffffffffffffffffffffffffffff021916908373ffffffffffffffffffffffffffffffffffffffff1602179055508173ffffffffffffffffffffffffffffffffffffffff168173ffffffffffffffffffffffffffffffffffffffff167f8be0079c531659141344cd1fd0a4f28419497f9722a3daafe3b4186f6b6457e060405160405180910390a35050565b62000d41828260405160240162000cbe92919062001413565b6040516020818303038152906040527f319af333000000000000000000000000000000000000000000000000000000007bffffffffffffffffffffffffffffffffffffffffffffffffffffffff19166020820180517bffffffffffffffffffffffffffffffffffffffffffffffffffffffff838183161783525050505062000d45565b5050565b60008151905060006a636f6e736f6c652e6c6f679050602083016000808483855afa5050505050565b610a9180620017a183390190565b6132e6806200223283390190565b60008135905062000d9b8162001752565b92915050565b60008135905062000db2816200176c565b92915050565b60008151905062000dc9816200176c565b92915050565b60008083601f84011262000de85762000de7620015f1565b5b8235905067ffffffffffffffff81111562000e085762000e07620015ec565b5b60208301915083600182028301111562000e275762000e26620015f6565b5b9250929050565b60008135905062000e3f8162001786565b92915050565b60008151905062000e568162001786565b92915050565b60006020828403121562000e755762000e7462001600565b5b600062000e858482850162000d8a565b91505092915050565b6000806040838503121562000ea85762000ea762001600565b5b600062000eb88582860162000d8a565b925050602062000ecb8582860162000e2e565b9150509250929050565b60006020828403121562000eee5762000eed62001600565b5b600062000efe8482850162000db8565b91505092915050565b600080600080600080600060c0888a03121562000f295762000f2862001600565b5b600088013567ffffffffffffffff81111562000f4a5762000f49620015fb565b5b62000f588a828b0162000dcf565b9750975050602062000f6d8a828b0162000e2e565b955050604062000f808a828b0162000da1565b945050606062000f938a828b0162000d8a565b935050608062000fa68a828b0162000d8a565b92505060a062000fb98a828b0162000d8a565b91505092959891949750929550565b60006020828403121562000fe15762000fe062001600565b5b600062000ff18482850162000e2e565b91505092915050565b60006020828403121562001013576200101262001600565b5b6000620010238482850162000e45565b91505092915050565b60006200103a838362001046565b60208301905092915050565b62001051816200155d565b82525050565b62001062816200155d565b82525050565b60006200107582620014fc565b6200108181856200152a565b93506200108e83620014ec565b8060005b83811015620010c5578151620010a988826200102c565b9750620010b6836200151d565b92505060018101905062001092565b5085935050505092915050565b620010dd8162001571565b82525050565b6000620010f08262001507565b620010fc81856200153b565b93506200110e818560208601620015b6565b620011198162001605565b840191505092915050565b60006200113283856200154c565b935062001141838584620015a7565b6200114c8362001605565b840190509392505050565b6000620011648262001512565b6200117081856200154c565b935062001182818560208601620015b6565b6200118d8162001605565b840191505092915050565b6000620011a76026836200154c565b9150620011b48262001616565b604082019050919050565b6000620011ce6046836200154c565b9150620011db8262001665565b606082019050919050565b6000620011f56024836200154c565b91506200120282620016da565b604082019050919050565b60006200121c6020836200154c565b9150620012298262001729565b602082019050919050565b6200123f816200159d565b82525050565b60006020820190506200125c600083018462001057565b92915050565b600060608201905062001279600083018662001057565b62001288602083018562001057565b62001297604083018462001234565b949350505050565b6000604082019050620012b6600083018562001057565b8181036020830152620012ca8184620010e3565b90509392505050565b60006020820190508181036000830152620012ef818462001068565b905092915050565b60006020820190506200130e6000830184620010d2565b92915050565b600060608201905081810360008301526200133181868862001124565b905062001342602083018562001057565b62001351604083018462001057565b95945050505050565b600061014082019050818103600083015262001378818d8f62001124565b905062001389602083018c62001234565b62001398604083018b620010d2565b620013a7606083018a62001057565b620013b6608083018962001057565b620013c560a083018862001057565b620013d460c083018762001057565b620013e360e083018662001057565b620013f361010083018562001057565b6200140361012083018462001057565b9c9b505050505050505050505050565b600060408201905081810360008301526200142f818562001157565b905062001440602083018462001057565b9392505050565b60006020820190508181036000830152620014628162001198565b9050919050565b600060208201905081810360008301526200148481620011bf565b9050919050565b60006020820190508181036000830152620014a681620011e6565b9050919050565b60006020820190508181036000830152620014c8816200120d565b9050919050565b6000602082019050620014e6600083018462001234565b92915050565b6000819050602082019050919050565b600081519050919050565b600081519050919050565b600081519050919050565b6000602082019050919050565b600082825260208201905092915050565b600082825260208201905092915050565b600082825260208201905092915050565b60006200156a826200157d565b9050919050565b60008115159050919050565b600073ffffffffffffffffffffffffffffffffffffffff82169050919050565b6000819050919050565b82818337600083830152505050565b60005b83811015620015d6578082015181840152602081019050620015b9565b83811115620015e6576000848401525b50505050565b600080fd5b600080fd5b600080fd5b600080fd5b600080fd5b6000601f19601f8301169050919050565b7f4f776e61626c653a206e6577206f776e657220697320746865207a65726f206160008201527f6464726573730000000000000000000000000000000000000000000000000000602082015250565b7f43726561746f72206f66206c6561677565206e6565647320656e6f756768205560008201527f5344432028657175616c20746f20737065636966696564207374616b6520616d60208201527f6f756e74292e0000000000000000000000000000000000000000000000000000604082015250565b7f43616c6c6572206973206e6f7420612076616c69642070726f7879206164647260008201527f6573732e00000000000000000000000000000000000000000000000000000000602082015250565b7f4f776e61626c653a2063616c6c6572206973206e6f7420746865206f776e6572600082015250565b6200175d816200155d565b81146200176957600080fd5b50565b620017778162001571565b81146200178357600080fd5b50565b62001791816200159d565b81146200179d57600080fd5b5056fe608060405234801561001057600080fd5b5060405162000a9138038062000a91833981810160405281019061003491906101ef565b61005061004561006560201b60201c565b61006d60201b60201c565b61005f8161013160201b60201c565b5061030d565b600033905090565b60008060009054906101000a900473ffffffffffffffffffffffffffffffffffffffff169050816000806101000a81548173ffffffffffffffffffffffffffffffffffffffff021916908373ffffffffffffffffffffffffffffffffffffffff1602179055508173ffffffffffffffffffffffffffffffffffffffff168173ffffffffffffffffffffffffffffffffffffffff167f8be0079c531659141344cd1fd0a4f28419497f9722a3daafe3b4186f6b6457e060405160405180910390a35050565b610144816101c760201b6103781760201c565b610183576040517f08c379a000000000000000000000000000000000000000000000000000000000815260040161017a9061023f565b60405180910390fd5b80600160006101000a81548173ffffffffffffffffffffffffffffffffffffffff021916908373ffffffffffffffffffffffffffffffffffffffff16021790555050565b600080823b905060008111915050919050565b6000815190506101e9816102f6565b92915050565b600060208284031215610205576102046102a2565b5b6000610213848285016101da565b91505092915050565b600061022960338361025f565b9150610234826102a7565b604082019050919050565b600060208201905081810360008301526102588161021c565b9050919050565b600082825260208201905092915050565b600061027b82610282565b9050919050565b600073ffffffffffffffffffffffffffffffffffffffff82169050919050565b600080fd5b7f5570677261646561626c65426561636f6e3a20696d706c656d656e746174696f60008201527f6e206973206e6f74206120636f6e747261637400000000000000000000000000602082015250565b6102ff81610270565b811461030a57600080fd5b50565b610774806200031d6000396000f3fe608060405234801561001057600080fd5b50600436106100575760003560e01c80633659cfe61461005c5780635c60da1b14610078578063715018a6146100965780638da5cb5b146100a0578063f2fde38b146100be575b600080fd5b610076600480360381019061007191906104f8565b6100da565b005b6100806101a5565b60405161008d919061059d565b60405180910390f35b61009e6101cf565b005b6100a8610257565b6040516100b5919061059d565b60405180910390f35b6100d860048036038101906100d391906104f8565b610280565b005b6100e261038b565b73ffffffffffffffffffffffffffffffffffffffff16610100610257565b73ffffffffffffffffffffffffffffffffffffffff1614610156576040517f08c379a000000000000000000000000000000000000000000000000000000000815260040161014d906105f8565b60405180910390fd5b61015f81610393565b8073ffffffffffffffffffffffffffffffffffffffff167fbc7cd75a20ee27fd9adebab32041f755214dbc6bffa90cc0225b39da2e5c2d3b60405160405180910390a250565b6000600160009054906101000a900473ffffffffffffffffffffffffffffffffffffffff16905090565b6101d761038b565b73ffffffffffffffffffffffffffffffffffffffff166101f5610257565b73ffffffffffffffffffffffffffffffffffffffff161461024b576040517f08c379a0000000000000000000000000000000000000000000000000000000008152600401610242906105f8565b60405180910390fd5b610255600061041f565b565b60008060009054906101000a900473ffffffffffffffffffffffffffffffffffffffff16905090565b61028861038b565b73ffffffffffffffffffffffffffffffffffffffff166102a6610257565b73ffffffffffffffffffffffffffffffffffffffff16146102fc576040517f08c379a00000000000000000000000000000000000000000000000000000000081526004016102f3906105f8565b60405180910390fd5b600073ffffffffffffffffffffffffffffffffffffffff168173ffffffffffffffffffffffffffffffffffffffff16141561036c576040517f08c379a0000000000000000000000000000000000000000000000000000000008152600401610363906105b8565b60405180910390fd5b6103758161041f565b50565b600080823b905060008111915050919050565b600033905090565b61039c81610378565b6103db576040517f08c379a00000000000000000000000000000000000000000000000000000000081526004016103d2906105d8565b60405180910390fd5b80600160006101000a81548173ffffffffffffffffffffffffffffffffffffffff021916908373ffffffffffffffffffffffffffffffffffffffff16021790555050565b60008060009054906101000a900473ffffffffffffffffffffffffffffffffffffffff169050816000806101000a81548173ffffffffffffffffffffffffffffffffffffffff021916908373ffffffffffffffffffffffffffffffffffffffff1602179055508173ffffffffffffffffffffffffffffffffffffffff168173ffffffffffffffffffffffffffffffffffffffff167f8be0079c531659141344cd1fd0a4f28419497f9722a3daafe3b4186f6b6457e060405160405180910390a35050565b6000813590506104f281610727565b92915050565b60006020828403121561050e5761050d61065b565b5b600061051c848285016104e3565b91505092915050565b61052e81610629565b82525050565b6000610541602683610618565b915061054c82610660565b604082019050919050565b6000610564603383610618565b915061056f826106af565b604082019050919050565b6000610587602083610618565b9150610592826106fe565b602082019050919050565b60006020820190506105b26000830184610525565b92915050565b600060208201905081810360008301526105d181610534565b9050919050565b600060208201905081810360008301526105f181610557565b9050919050565b600060208201905081810360008301526106118161057a565b9050919050565b600082825260208201905092915050565b60006106348261063b565b9050919050565b600073ffffffffffffffffffffffffffffffffffffffff82169050919050565b600080fd5b7f4f776e61626c653a206e6577206f776e657220697320746865207a65726f206160008201527f6464726573730000000000000000000000000000000000000000000000000000602082015250565b7f5570677261646561626c65426561636f6e3a20696d706c656d656e746174696f60008201527f6e206973206e6f74206120636f6e747261637400000000000000000000000000602082015250565b7f4f776e61626c653a2063616c6c6572206973206e6f7420746865206f776e6572600082015250565b61073081610629565b811461073b57600080fd5b5056fea2646970667358221220f14c1e123fc6650c2510ce92a5938ce8dbd619e20ec5ceb7ad4526f9ccdb6aca64736f6c634300080700336080604052604051620032e6380380620032e68339818101604052810190620000299190620006bb565b620000496200003d620000cf60201b60201c565b620000d760201b60201c565b60017fa3f0ad74e5423aebfd80d3ef4346578335a9a72aeaee59ff6cb3582b35133d5160001c6200007b919062000942565b60001b7fa3f0ad74e5423aebfd80d3ef4346578335a9a72aeaee59ff6cb3582b35133d5060001b14620000b357620000b262000a27565b5b620000c7828260006200019b60201b60201c565b505062000be0565b600033905090565b60008060009054906101000a900473ffffffffffffffffffffffffffffffffffffffff169050816000806101000a81548173ffffffffffffffffffffffffffffffffffffffff021916908373ffffffffffffffffffffffffffffffffffffffff1602179055508173ffffffffffffffffffffffffffffffffffffffff168173ffffffffffffffffffffffffffffffffffffffff167f8be0079c531659141344cd1fd0a4f28419497f9722a3daafe3b4186f6b6457e060405160405180910390a35050565b620001ac83620002a260201b60201c565b8273ffffffffffffffffffffffffffffffffffffffff167f1cf3b03a6cf19fa2baba4df148e9dcabedea7f8a5c07840e207e5c089be95d3e60405160405180910390a2600082511180620001fd5750805b156200029d576200029b8373ffffffffffffffffffffffffffffffffffffffff16635c60da1b6040518163ffffffff1660e01b815260040160206040518083038186803b1580156200024e57600080fd5b505afa15801562000263573d6000803e3d6000fd5b505050506040513d601f19601f8201168201806040525081019062000289919062000689565b836200045160201b620012551760201c565b505b505050565b620002b8816200048760201b620012821760201c565b620002fa576040517f08c379a0000000000000000000000000000000000000000000000000000000008152600401620002f1906200084b565b60405180910390fd5b620003918173ffffffffffffffffffffffffffffffffffffffff16635c60da1b6040518163ffffffff1660e01b815260040160206040518083038186803b1580156200034557600080fd5b505afa1580156200035a573d6000803e3d6000fd5b505050506040513d601f19601f8201168201806040525081019062000380919062000689565b6200048760201b620012821760201c565b620003d3576040517f08c379a0000000000000000000000000000000000000000000000000000000008152600401620003ca906200088f565b60405180910390fd5b806200040d7fa3f0ad74e5423aebfd80d3ef4346578335a9a72aeaee59ff6cb3582b35133d5060001b6200049a60201b620012951760201c565b60000160006101000a81548173ffffffffffffffffffffffffffffffffffffffff021916908373ffffffffffffffffffffffffffffffffffffffff16021790555050565b60606200047f8383604051806060016040528060278152602001620032bf60279139620004a460201b60201c565b905092915050565b600080823b905060008111915050919050565b6000819050919050565b6060620004b7846200048760201b60201c565b620004f9576040517f08c379a0000000000000000000000000000000000000000000000000000000008152600401620004f0906200086d565b60405180910390fd5b6000808573ffffffffffffffffffffffffffffffffffffffff16856040516200052391906200080e565b600060405180830381855af49150503d806000811462000560576040519150601f19603f3d011682016040523d82523d6000602084013e62000565565b606091505b50915091506200057d8282866200058860201b60201c565b925050509392505050565b606083156200059a57829050620005ed565b600083511115620005ae5782518084602001fd5b816040517f08c379a0000000000000000000000000000000000000000000000000000000008152600401620005e4919062000827565b60405180910390fd5b9392505050565b60006200060b6200060584620008da565b620008b1565b9050828152602081018484840111156200062a576200062962000ab9565b5b62000637848285620009bb565b509392505050565b600081519050620006508162000bc6565b92915050565b600082601f8301126200066e576200066d62000ab4565b5b815162000680848260208601620005f4565b91505092915050565b600060208284031215620006a257620006a162000ac3565b5b6000620006b2848285016200063f565b91505092915050565b60008060408385031215620006d557620006d462000ac3565b5b6000620006e5858286016200063f565b925050602083015167ffffffffffffffff81111562000709576200070862000abe565b5b620007178582860162000656565b9150509250929050565b60006200072e8262000910565b6200073a818562000926565b93506200074c818560208601620009bb565b80840191505092915050565b600062000765826200091b565b62000771818562000931565b935062000783818560208601620009bb565b6200078e8162000ac8565b840191505092915050565b6000620007a860258362000931565b9150620007b58262000ad9565b604082019050919050565b6000620007cf60268362000931565b9150620007dc8262000b28565b604082019050919050565b6000620007f660308362000931565b9150620008038262000b77565b604082019050919050565b60006200081c828462000721565b915081905092915050565b6000602082019050818103600083015262000843818462000758565b905092915050565b60006020820190508181036000830152620008668162000799565b9050919050565b600060208201905081810360008301526200088881620007c0565b9050919050565b60006020820190508181036000830152620008aa81620007e7565b9050919050565b6000620008bd620008d0565b9050620008cb8282620009f1565b919050565b6000604051905090565b600067ffffffffffffffff821115620008f857620008f762000a85565b5b620009038262000ac8565b9050602081019050919050565b600081519050919050565b600081519050919050565b600081905092915050565b600082825260208201905092915050565b60006200094f82620009b1565b91506200095c83620009b1565b92508282101562000972576200097162000a56565b5b828203905092915050565b60006200098a8262000991565b9050919050565b600073ffffffffffffffffffffffffffffffffffffffff82169050919050565b6000819050919050565b60005b83811015620009db578082015181840152602081019050620009be565b83811115620009eb576000848401525b50505050565b620009fc8262000ac8565b810181811067ffffffffffffffff8211171562000a1e5762000a1d62000a85565b5b80604052505050565b7f4e487b7100000000000000000000000000000000000000000000000000000000600052600160045260246000fd5b7f4e487b7100000000000000000000000000000000000000000000000000000000600052601160045260246000fd5b7f4e487b7100000000000000000000000000000000000000000000000000000000600052604160045260246000fd5b600080fd5b600080fd5b600080fd5b600080fd5b6000601f19601f8301169050919050565b7f455243313936373a206e657720626561636f6e206973206e6f74206120636f6e60008201527f7472616374000000000000000000000000000000000000000000000000000000602082015250565b7f416464726573733a2064656c65676174652063616c6c20746f206e6f6e2d636f60008201527f6e74726163740000000000000000000000000000000000000000000000000000602082015250565b7f455243313936373a20626561636f6e20696d706c656d656e746174696f6e206960008201527f73206e6f74206120636f6e747261637400000000000000000000000000000000602082015250565b62000bd1816200097d565b811462000bdd57600080fd5b50565b6126cf8062000bf06000396000f3fe6080604052600436106101c55760003560e01c8063841abf6e116100f7578063cff5600311610095578063e35a899911610064578063e35a8999146106cf578063edcbe96c1461070c578063f2fde38b14610749578063f851a44014610772576101d4565b8063cff5600314610601578063d547741f1461063e578063dc9a153514610667578063e2ec6ec314610692576101d4565b806391d14854116100d157806391d148541461053157806393f3706c1461056e5780639b19251a14610599578063a217fddf146105d6576101d4565b8063841abf6e1461049e5780638da5cb5b146104c95780639122ce6d146104f4576101d4565b80632f2ff15d1161016457806360c7dc471161013e57806360c7dc47146103f4578063715018a61461041f5780637b9417c8146104365780637eed33f114610473576101d4565b80632f2ff15d1461037757806336568abe146103a057806344eaa84e146103c9576101d4565b8063248a9ca3116101a0578063248a9ca31461028357806324953eaa146102c0578063267175db146102fd578063286dd3f51461033a576101d4565b8062b2476f146101de57806301ffc9a7146102095780630c6f795914610246576101d4565b366101d4576101d261079d565b005b6101dc61079d565b005b3480156101ea57600080fd5b506101f36107b7565b6040516102009190611f7d565b60405180910390f35b34801561021557600080fd5b50610230600480360381019061022b9190611d06565b6107dd565b60405161023d9190611f98565b60405180910390f35b34801561025257600080fd5b5061026d60048036038101906102689190611c10565b610857565b60405161027a9190612090565b60405180910390f35b34801561028f57600080fd5b506102aa60048036038101906102a59190611c99565b61087f565b6040516102b79190611fb3565b60405180910390f35b3480156102cc57600080fd5b506102e760048036038101906102e29190611c50565b61089f565b6040516102f49190611f98565b60405180910390f35b34801561030957600080fd5b50610324600480360381019061031f9190611d33565b61096f565b6040516103319190611f7d565b60405180910390f35b34801561034657600080fd5b50610361600480360381019061035c9190611bb6565b6109ae565b60405161036e9190611f98565b60405180910390f35b34801561038357600080fd5b5061039e60048036038101906103999190611cc6565b610b31565b005b3480156103ac57600080fd5b506103c760048036038101906103c29190611cc6565b610b5a565b005b3480156103d557600080fd5b506103de610bdd565b6040516103eb9190612090565b60405180910390f35b34801561040057600080fd5b50610409610be7565b6040516104169190612090565b60405180910390f35b34801561042b57600080fd5b50610434610bed565b005b34801561044257600080fd5b5061045d60048036038101906104589190611bb6565b610c75565b60405161046a9190611f98565b60405180910390f35b34801561047f57600080fd5b50610488610df7565b6040516104959190612090565b60405180910390f35b3480156104aa57600080fd5b506104b3610dfd565b6040516104c09190611fce565b60405180910390f35b3480156104d557600080fd5b506104de610e8b565b6040516104eb9190611f7d565b60405180910390f35b34801561050057600080fd5b5061051b60048036038101906105169190611bb6565b610eb4565b6040516105289190611f98565b60405180910390f35b34801561053d57600080fd5b5061055860048036038101906105539190611cc6565b610ed4565b6040516105659190611f98565b60405180910390f35b34801561057a57600080fd5b50610583610f3f565b6040516105909190611f7d565b60405180910390f35b3480156105a557600080fd5b506105c060048036038101906105bb9190611bb6565b610f65565b6040516105cd9190611f98565b60405180910390f35b3480156105e257600080fd5b506105eb610f85565b6040516105f89190611fb3565b60405180910390f35b34801561060d57600080fd5b5061062860048036038101906106239190611c10565b610f8c565b6040516106359190612090565b60405180910390f35b34801561064a57600080fd5b5061066560048036038101906106609190611cc6565b610fbd565b005b34801561067357600080fd5b5061067c610fe6565b6040516106899190611f98565b60405180910390f35b34801561069e57600080fd5b506106b960048036038101906106b49190611c50565b610ff9565b6040516106c69190611f98565b60405180910390f35b3480156106db57600080fd5b506106f660048036038101906106f19190611bb6565b6110c9565b6040516107039190611f98565b60405180910390f35b34801561071857600080fd5b50610733600480360381019061072e9190611bb6565b61111f565b6040516107409190612090565b60405180910390f35b34801561075557600080fd5b50610770600480360381019061076b9190611bb6565b611137565b005b34801561077e57600080fd5b5061078761122f565b6040516107949190611f7d565b60405180910390f35b6107a561129f565b6107b56107b06112a1565b61132d565b565b601260009054906101000a900473ffffffffffffffffffffffffffffffffffffffff1681565b60007f7965db0b000000000000000000000000000000000000000000000000000000007bffffffffffffffffffffffffffffffffffffffffffffffffffffffff1916827bffffffffffffffffffffffffffffffffffffffffffffffffffffffff19161480610850575061084f82611353565b5b9050919050565b600b602052816000526040600020816008811061087357600080fd5b01600091509150505481565b600060016000838152602001908152602001600020600101549050919050565b60006108a96113bd565b73ffffffffffffffffffffffffffffffffffffffff166108c7610e8b565b73ffffffffffffffffffffffffffffffffffffffff161461091d576040517f08c379a000000000000000000000000000000000000000000000000000000000815260040161091490612030565b60405180910390fd5b60005b82518110156109695761094c83828151811061093f5761093e612402565b5b60200260200101516109ae565b1561095657600191505b80806109619061235b565b915050610920565b50919050565b600f818154811061097f57600080fd5b906000526020600020016000915054906101000a900473ffffffffffffffffffffffffffffffffffffffff1681565b60006109b86113bd565b73ffffffffffffffffffffffffffffffffffffffff166109d6610e8b565b73ffffffffffffffffffffffffffffffffffffffff1614610a2c576040517f08c379a0000000000000000000000000000000000000000000000000000000008152600401610a2390612030565b60405180910390fd5b600260008373ffffffffffffffffffffffffffffffffffffffff1673ffffffffffffffffffffffffffffffffffffffff16815260200190815260200160002060009054906101000a900460ff1615610b2c576000600260008473ffffffffffffffffffffffffffffffffffffffff1673ffffffffffffffffffffffffffffffffffffffff16815260200190815260200160002060006101000a81548160ff0219169083151502179055507ff1abf01a1043b7c244d128e8595cf0c1d10743b022b03a02dffd8ca3bf729f5a82604051610b059190611f7d565b60405180910390a1600160036000828254610b2091906121e9565b92505081905550600190505b919050565b610b3a8261087f565b610b4b81610b466113bd565b6113c5565b610b558383611462565b505050565b610b626113bd565b73ffffffffffffffffffffffffffffffffffffffff168173ffffffffffffffffffffffffffffffffffffffff1614610bcf576040517f08c379a0000000000000000000000000000000000000000000000000000000008152600401610bc690612070565b60405180910390fd5b610bd98282611542565b5050565b6000600354905090565b60075481565b610bf56113bd565b73ffffffffffffffffffffffffffffffffffffffff16610c13610e8b565b73ffffffffffffffffffffffffffffffffffffffff1614610c69576040517f08c379a0000000000000000000000000000000000000000000000000000000008152600401610c6090612030565b60405180910390fd5b610c736000611624565b565b6000610c7f6113bd565b73ffffffffffffffffffffffffffffffffffffffff16610c9d610e8b565b73ffffffffffffffffffffffffffffffffffffffff1614610cf3576040517f08c379a0000000000000000000000000000000000000000000000000000000008152600401610cea90612030565b60405180910390fd5b600260008373ffffffffffffffffffffffffffffffffffffffff1673ffffffffffffffffffffffffffffffffffffffff16815260200190815260200160002060009054906101000a900460ff16610df2576001600260008473ffffffffffffffffffffffffffffffffffffffff1673ffffffffffffffffffffffffffffffffffffffff16815260200190815260200160002060006101000a81548160ff0219169083151502179055507fd1bba68c128cc3f427e5831b3c6f99f480b6efa6b9e80c757768f6124158cc3f82604051610dcb9190611f7d565b60405180910390a1600160036000828254610de69190612139565b92505081905550600190505b919050565b60065481565b60058054610e0a906122f8565b80601f0160208091040260200160405190810160405280929190818152602001828054610e36906122f8565b8015610e835780601f10610e5857610100808354040283529160200191610e83565b820191906000526020600020905b815481529060010190602001808311610e6657829003601f168201915b505050505081565b60008060009054906101000a900473ffffffffffffffffffffffffffffffffffffffff16905090565b600e6020528060005260406000206000915054906101000a900460ff1681565b60006001600084815260200190815260200160002060000160008373ffffffffffffffffffffffffffffffffffffffff1673ffffffffffffffffffffffffffffffffffffffff16815260200190815260200160002060009054906101000a900460ff16905092915050565b601160009054906101000a900473ffffffffffffffffffffffffffffffffffffffff1681565b60026020528060005260406000206000915054906101000a900460ff1681565b6000801b81565b600d6020528160005260406000208181548110610fa857600080fd5b90600052602060002001600091509150505481565b610fc68261087f565b610fd781610fd26113bd565b6113c5565b610fe18383611542565b505050565b600460009054906101000a900460ff1681565b60006110036113bd565b73ffffffffffffffffffffffffffffffffffffffff16611021610e8b565b73ffffffffffffffffffffffffffffffffffffffff1614611077576040517f08c379a000000000000000000000000000000000000000000000000000000000815260040161106e90612030565b60405180910390fd5b60005b82518110156110c3576110a683828151811061109957611098612402565b5b6020026020010151610c75565b156110b057600191505b80806110bb9061235b565b91505061107a565b50919050565b6000600260008373ffffffffffffffffffffffffffffffffffffffff1673ffffffffffffffffffffffffffffffffffffffff16815260200190815260200160002060009054906101000a900460ff169050919050565b600a6020528060005260406000206000915090505481565b61113f6113bd565b73ffffffffffffffffffffffffffffffffffffffff1661115d610e8b565b73ffffffffffffffffffffffffffffffffffffffff16146111b3576040517f08c379a00000000000000000000000000000000000000000000000000000000081526004016111aa90612030565b60405180910390fd5b600073ffffffffffffffffffffffffffffffffffffffff168173ffffffffffffffffffffffffffffffffffffffff161415611223576040517f08c379a000000000000000000000000000000000000000000000000000000000815260040161121a90612010565b60405180910390fd5b61122c81611624565b50565b600860009054906101000a900473ffffffffffffffffffffffffffffffffffffffff1681565b606061127a8383604051806060016040528060278152602001612673602791396116e8565b905092915050565b600080823b905060008111915050919050565b6000819050919050565b565b60006112ab6117b5565b73ffffffffffffffffffffffffffffffffffffffff16635c60da1b6040518163ffffffff1660e01b815260040160206040518083038186803b1580156112f057600080fd5b505afa158015611304573d6000803e3d6000fd5b505050506040513d601f19601f820116820180604052508101906113289190611be3565b905090565b3660008037600080366000845af43d6000803e806000811461134e573d6000f35b3d6000fd5b60007f01ffc9a7000000000000000000000000000000000000000000000000000000007bffffffffffffffffffffffffffffffffffffffffffffffffffffffff1916827bffffffffffffffffffffffffffffffffffffffffffffffffffffffff1916149050919050565b600033905090565b6113cf8282610ed4565b61145e576113f48173ffffffffffffffffffffffffffffffffffffffff16601461180c565b6114028360001c602061180c565b604051602001611413929190611f43565b6040516020818303038152906040526040517f08c379a00000000000000000000000000000000000000000000000000000000081526004016114559190611fce565b60405180910390fd5b5050565b61146c8282610ed4565b61153e57600180600084815260200190815260200160002060000160008373ffffffffffffffffffffffffffffffffffffffff1673ffffffffffffffffffffffffffffffffffffffff16815260200190815260200160002060006101000a81548160ff0219169083151502179055506114e36113bd565b73ffffffffffffffffffffffffffffffffffffffff168173ffffffffffffffffffffffffffffffffffffffff16837f2f8788117e7eff1d82e926ec794901d17c78024a50270940304540a733656f0d60405160405180910390a45b5050565b61154c8282610ed4565b156116205760006001600084815260200190815260200160002060000160008373ffffffffffffffffffffffffffffffffffffffff1673ffffffffffffffffffffffffffffffffffffffff16815260200190815260200160002060006101000a81548160ff0219169083151502179055506115c56113bd565b73ffffffffffffffffffffffffffffffffffffffff168173ffffffffffffffffffffffffffffffffffffffff16837ff6391f5c32d9c69d2a47ea670b442974b53935d1edc7fd64eb21e047a839171b60405160405180910390a45b5050565b60008060009054906101000a900473ffffffffffffffffffffffffffffffffffffffff169050816000806101000a81548173ffffffffffffffffffffffffffffffffffffffff021916908373ffffffffffffffffffffffffffffffffffffffff1602179055508173ffffffffffffffffffffffffffffffffffffffff168173ffffffffffffffffffffffffffffffffffffffff167f8be0079c531659141344cd1fd0a4f28419497f9722a3daafe3b4186f6b6457e060405160405180910390a35050565b60606116f384611282565b611732576040517f08c379a000000000000000000000000000000000000000000000000000000000815260040161172990612050565b60405180910390fd5b6000808573ffffffffffffffffffffffffffffffffffffffff168560405161175a9190611f2c565b600060405180830381855af49150503d8060008114611795576040519150601f19603f3d011682016040523d82523d6000602084013e61179a565b606091505b50915091506117aa828286611a48565b925050509392505050565b60006117e37fa3f0ad74e5423aebfd80d3ef4346578335a9a72aeaee59ff6cb3582b35133d5060001b611295565b60000160009054906101000a900473ffffffffffffffffffffffffffffffffffffffff16905090565b60606000600283600261181f919061218f565b6118299190612139565b67ffffffffffffffff81111561184257611841612431565b5b6040519080825280601f01601f1916602001820160405280156118745781602001600182028036833780820191505090505b5090507f3000000000000000000000000000000000000000000000000000000000000000816000815181106118ac576118ab612402565b5b60200101907effffffffffffffffffffffffffffffffffffffffffffffffffffffffffffff1916908160001a9053507f7800000000000000000000000000000000000000000000000000000000000000816001815181106119105761190f612402565b5b60200101907effffffffffffffffffffffffffffffffffffffffffffffffffffffffffffff1916908160001a90535060006001846002611950919061218f565b61195a9190612139565b90505b60018111156119fa577f3031323334353637383961626364656600000000000000000000000000000000600f86166010811061199c5761199b612402565b5b1a60f81b8282815181106119b3576119b2612402565b5b60200101907effffffffffffffffffffffffffffffffffffffffffffffffffffffffffffff1916908160001a905350600485901c9450806119f3906122ce565b905061195d565b5060008414611a3e576040517f08c379a0000000000000000000000000000000000000000000000000000000008152600401611a3590611ff0565b60405180910390fd5b8091505092915050565b60608315611a5857829050611aa8565b600083511115611a6b5782518084602001fd5b816040517f08c379a0000000000000000000000000000000000000000000000000000000008152600401611a9f9190611fce565b60405180910390fd5b9392505050565b6000611ac2611abd846120d0565b6120ab565b90508083825260208201905082856020860282011115611ae557611ae4612465565b5b60005b85811015611b155781611afb8882611b1f565b845260208401935060208301925050600181019050611ae8565b5050509392505050565b600081359050611b2e81612616565b92915050565b600081519050611b4381612616565b92915050565b600082601f830112611b5e57611b5d612460565b5b8135611b6e848260208601611aaf565b91505092915050565b600081359050611b868161262d565b92915050565b600081359050611b9b81612644565b92915050565b600081359050611bb08161265b565b92915050565b600060208284031215611bcc57611bcb61246f565b5b6000611bda84828501611b1f565b91505092915050565b600060208284031215611bf957611bf861246f565b5b6000611c0784828501611b34565b91505092915050565b60008060408385031215611c2757611c2661246f565b5b6000611c3585828601611b1f565b9250506020611c4685828601611ba1565b9150509250929050565b600060208284031215611c6657611c6561246f565b5b600082013567ffffffffffffffff811115611c8457611c8361246a565b5b611c9084828501611b49565b91505092915050565b600060208284031215611caf57611cae61246f565b5b6000611cbd84828501611b77565b91505092915050565b60008060408385031215611cdd57611cdc61246f565b5b6000611ceb85828601611b77565b9250506020611cfc85828601611b1f565b9150509250929050565b600060208284031215611d1c57611d1b61246f565b5b6000611d2a84828501611b8c565b91505092915050565b600060208284031215611d4957611d4861246f565b5b6000611d5784828501611ba1565b91505092915050565b611d698161221d565b82525050565b611d788161222f565b82525050565b611d878161223b565b82525050565b6000611d98826120fc565b611da28185612112565b9350611db281856020860161229b565b80840191505092915050565b6000611dc982612107565b611dd3818561211d565b9350611de381856020860161229b565b611dec81612474565b840191505092915050565b6000611e0282612107565b611e0c818561212e565b9350611e1c81856020860161229b565b80840191505092915050565b6000611e3560208361211d565b9150611e4082612485565b602082019050919050565b6000611e5860268361211d565b9150611e63826124ae565b604082019050919050565b6000611e7b60208361211d565b9150611e86826124fd565b602082019050919050565b6000611e9e60268361211d565b9150611ea982612526565b604082019050919050565b6000611ec160178361212e565b9150611ecc82612575565b601782019050919050565b6000611ee460118361212e565b9150611eef8261259e565b601182019050919050565b6000611f07602f8361211d565b9150611f12826125c7565b604082019050919050565b611f2681612291565b82525050565b6000611f388284611d8d565b915081905092915050565b6000611f4e82611eb4565b9150611f5a8285611df7565b9150611f6582611ed7565b9150611f718284611df7565b91508190509392505050565b6000602082019050611f926000830184611d60565b92915050565b6000602082019050611fad6000830184611d6f565b92915050565b6000602082019050611fc86000830184611d7e565b92915050565b60006020820190508181036000830152611fe88184611dbe565b905092915050565b6000602082019050818103600083015261200981611e28565b9050919050565b6000602082019050818103600083015261202981611e4b565b9050919050565b6000602082019050818103600083015261204981611e6e565b9050919050565b6000602082019050818103600083015261206981611e91565b9050919050565b6000602082019050818103600083015261208981611efa565b9050919050565b60006020820190506120a56000830184611f1d565b92915050565b60006120b56120c6565b90506120c1828261232a565b919050565b6000604051905090565b600067ffffffffffffffff8211156120eb576120ea612431565b5b602082029050602081019050919050565b600081519050919050565b600081519050919050565b600081905092915050565b600082825260208201905092915050565b600081905092915050565b600061214482612291565b915061214f83612291565b9250827fffffffffffffffffffffffffffffffffffffffffffffffffffffffffffffffff03821115612184576121836123a4565b5b828201905092915050565b600061219a82612291565b91506121a583612291565b9250817fffffffffffffffffffffffffffffffffffffffffffffffffffffffffffffffff04831182151516156121de576121dd6123a4565b5b828202905092915050565b60006121f482612291565b91506121ff83612291565b925082821015612212576122116123a4565b5b828203905092915050565b600061222882612271565b9050919050565b60008115159050919050565b6000819050919050565b60007fffffffff0000000000000000000000000000000000000000000000000000000082169050919050565b600073ffffffffffffffffffffffffffffffffffffffff82169050919050565b6000819050919050565b60005b838110156122b957808201518184015260208101905061229e565b838111156122c8576000848401525b50505050565b60006122d982612291565b915060008214156122ed576122ec6123a4565b5b600182039050919050565b6000600282049050600182168061231057607f821691505b60208210811415612324576123236123d3565b5b50919050565b61233382612474565b810181811067ffffffffffffffff8211171561235257612351612431565b5b80604052505050565b600061236682612291565b91507fffffffffffffffffffffffffffffffffffffffffffffffffffffffffffffffff821415612399576123986123a4565b5b600182019050919050565b7f4e487b7100000000000000000000000000000000000000000000000000000000600052601160045260246000fd5b7f4e487b7100000000000000000000000000000000000000000000000000000000600052602260045260246000fd5b7f4e487b7100000000000000000000000000000000000000000000000000000000600052603260045260246000fd5b7f4e487b7100000000000000000000000000000000000000000000000000000000600052604160045260246000fd5b600080fd5b600080fd5b600080fd5b600080fd5b6000601f19601f8301169050919050565b7f537472696e67733a20686578206c656e67746820696e73756666696369656e74600082015250565b7f4f776e61626c653a206e6577206f776e657220697320746865207a65726f206160008201527f6464726573730000000000000000000000000000000000000000000000000000602082015250565b7f4f776e61626c653a2063616c6c6572206973206e6f7420746865206f776e6572600082015250565b7f416464726573733a2064656c65676174652063616c6c20746f206e6f6e2d636f60008201527f6e74726163740000000000000000000000000000000000000000000000000000602082015250565b7f416363657373436f6e74726f6c3a206163636f756e7420000000000000000000600082015250565b7f206973206d697373696e6720726f6c6520000000000000000000000000000000600082015250565b7f416363657373436f6e74726f6c3a2063616e206f6e6c792072656e6f756e636560008201527f20726f6c657320666f722073656c660000000000000000000000000000000000602082015250565b61261f8161221d565b811461262a57600080fd5b50565b6126368161223b565b811461264157600080fd5b50565b61264d81612245565b811461265857600080fd5b50565b61266481612291565b811461266f57600080fd5b5056fe416464726573733a206c6f772d6c6576656c2064656c65676174652063616c6c206661696c6564a264697066735822122006a1c88b3233fa0f669205832c5fdb6da4d8dac97c7afbc169e26b6ab814bebc64736f6c63430008070033416464726573733a206c6f772d6c6576656c2064656c65676174652063616c6c206661696c6564a264697066735822122004dd6912f0c506717db0845060c5a4d681e0de2bcc34dc11ae47041edd44fe6c64736f6c63430008070033608060405234801561001057600080fd5b5060405162000a9138038062000a91833981810160405281019061003491906101ef565b61005061004561006560201b60201c565b61006d60201b60201c565b61005f8161013160201b60201c565b5061030d565b600033905090565b60008060009054906101000a900473ffffffffffffffffffffffffffffffffffffffff169050816000806101000a81548173ffffffffffffffffffffffffffffffffffffffff021916908373ffffffffffffffffffffffffffffffffffffffff1602179055508173ffffffffffffffffffffffffffffffffffffffff168173ffffffffffffffffffffffffffffffffffffffff167f8be0079c531659141344cd1fd0a4f28419497f9722a3daafe3b4186f6b6457e060405160405180910390a35050565b610144816101c760201b6103781760201c565b610183576040517f08c379a000000000000000000000000000000000000000000000000000000000815260040161017a9061023f565b60405180910390fd5b80600160006101000a81548173ffffffffffffffffffffffffffffffffffffffff021916908373ffffffffffffffffffffffffffffffffffffffff16021790555050565b600080823b905060008111915050919050565b6000815190506101e9816102f6565b92915050565b600060208284031215610205576102046102a2565b5b6000610213848285016101da565b91505092915050565b600061022960338361025f565b9150610234826102a7565b604082019050919050565b600060208201905081810360008301526102588161021c565b9050919050565b600082825260208201905092915050565b600061027b82610282565b9050919050565b600073ffffffffffffffffffffffffffffffffffffffff82169050919050565b600080fd5b7f5570677261646561626c65426561636f6e3a20696d706c656d656e746174696f60008201527f6e206973206e6f74206120636f6e747261637400000000000000000000000000602082015250565b6102ff81610270565b811461030a57600080fd5b50565b610774806200031d6000396000f3fe608060405234801561001057600080fd5b50600436106100575760003560e01c80633659cfe61461005c5780635c60da1b14610078578063715018a6146100965780638da5cb5b146100a0578063f2fde38b146100be575b600080fd5b610076600480360381019061007191906104f8565b6100da565b005b6100806101a5565b60405161008d919061059d565b60405180910390f35b61009e6101cf565b005b6100a8610257565b6040516100b5919061059d565b60405180910390f35b6100d860048036038101906100d391906104f8565b610280565b005b6100e261038b565b73ffffffffffffffffffffffffffffffffffffffff16610100610257565b73ffffffffffffffffffffffffffffffffffffffff1614610156576040517f08c379a000000000000000000000000000000000000000000000000000000000815260040161014d906105f8565b60405180910390fd5b61015f81610393565b8073ffffffffffffffffffffffffffffffffffffffff167fbc7cd75a20ee27fd9adebab32041f755214dbc6bffa90cc0225b39da2e5c2d3b60405160405180910390a250565b6000600160009054906101000a900473ffffffffffffffffffffffffffffffffffffffff16905090565b6101d761038b565b73ffffffffffffffffffffffffffffffffffffffff166101f5610257565b73ffffffffffffffffffffffffffffffffffffffff161461024b576040517f08c379a0000000000000000000000000000000000000000000000000000000008152600401610242906105f8565b60405180910390fd5b610255600061041f565b565b60008060009054906101000a900473ffffffffffffffffffffffffffffffffffffffff16905090565b61028861038b565b73ffffffffffffffffffffffffffffffffffffffff166102a6610257565b73ffffffffffffffffffffffffffffffffffffffff16146102fc576040517f08c379a00000000000000000000000000000000000000000000000000000000081526004016102f3906105f8565b60405180910390fd5b600073ffffffffffffffffffffffffffffffffffffffff168173ffffffffffffffffffffffffffffffffffffffff16141561036c576040517f08c379a0000000000000000000000000000000000000000000000000000000008152600401610363906105b8565b60405180910390fd5b6103758161041f565b50565b600080823b905060008111915050919050565b600033905090565b61039c81610378565b6103db576040517f08c379a00000000000000000000000000000000000000000000000000000000081526004016103d2906105d8565b60405180910390fd5b80600160006101000a81548173ffffffffffffffffffffffffffffffffffffffff021916908373ffffffffffffffffffffffffffffffffffffffff16021790555050565b60008060009054906101000a900473ffffffffffffffffffffffffffffffffffffffff169050816000806101000a81548173ffffffffffffffffffffffffffffffffffffffff021916908373ffffffffffffffffffffffffffffffffffffffff1602179055508173ffffffffffffffffffffffffffffffffffffffff168173ffffffffffffffffffffffffffffffffffffffff167f8be0079c531659141344cd1fd0a4f28419497f9722a3daafe3b4186f6b6457e060405160405180910390a35050565b6000813590506104f281610727565b92915050565b60006020828403121561050e5761050d61065b565b5b600061051c848285016104e3565b91505092915050565b61052e81610629565b82525050565b6000610541602683610618565b915061054c82610660565b604082019050919050565b6000610564603383610618565b915061056f826106af565b604082019050919050565b6000610587602083610618565b9150610592826106fe565b602082019050919050565b60006020820190506105b26000830184610525565b92915050565b600060208201905081810360008301526105d181610534565b9050919050565b600060208201905081810360008301526105f181610557565b9050919050565b600060208201905081810360008301526106118161057a565b9050919050565b600082825260208201905092915050565b60006106348261063b565b9050919050565b600073ffffffffffffffffffffffffffffffffffffffff82169050919050565b600080fd5b7f4f776e61626c653a206e6577206f776e657220697320746865207a65726f206160008201527f6464726573730000000000000000000000000000000000000000000000000000602082015250565b7f5570677261646561626c65426561636f6e3a20696d706c656d656e746174696f60008201527f6e206973206e6f74206120636f6e747261637400000000000000000000000000602082015250565b7f4f776e61626c653a2063616c6c6572206973206e6f7420746865206f776e6572600082015250565b61073081610629565b811461073b57600080fd5b5056fea2646970667358221220f14c1e123fc6650c2510ce92a5938ce8dbd619e20ec5ceb7ad4526f9ccdb6aca64736f6c63430008070033",
  "linkReferences": {},
  "deployedLinkReferences": {}
}