{
  "_format": "hh-sol-artifact-1",
  "contractName": "LeagueMaker",
  "sourceName": "contracts/LeagueMaker.sol",
  "abi": [
    {
      "inputs": [
        {
          "internalType": "address",
          "name": "_logic",
          "type": "address"
        }
      ],
      "stateMutability": "nonpayable",
      "type": "constructor"
    },
    {
      "anonymous": false,
      "inputs": [
        {
          "indexed": false,
          "internalType": "string",
          "name": "name",
          "type": "string"
        },
        {
          "indexed": false,
          "internalType": "address",
          "name": "a",
          "type": "address"
        }
      ],
      "name": "LeagueCreated",
      "type": "event"
    },
    {
      "anonymous": false,
      "inputs": [
        {
          "indexed": false,
          "internalType": "bool",
          "name": "success",
          "type": "bool"
        },
        {
          "indexed": false,
          "internalType": "bytes",
          "name": "data",
          "type": "bytes"
        }
      ],
      "name": "Response",
      "type": "event"
    },
    {
      "anonymous": false,
      "inputs": [
        {
          "indexed": false,
          "internalType": "address",
          "name": "clone",
          "type": "address"
        }
      ],
      "name": "cloneCreated",
      "type": "event"
    },
    {
      "inputs": [
        {
          "internalType": "address[]",
          "name": "addresses",
          "type": "address[]"
        },
        {
          "internalType": "address",
          "name": "_addr",
          "type": "address"
        }
      ],
      "name": "addUsersToLeagueHelper",
      "outputs": [],
      "stateMutability": "nonpayable",
      "type": "function"
    },
    {
      "inputs": [
        {
          "internalType": "string",
          "name": "_name",
          "type": "string"
        },
        {
          "internalType": "uint256",
          "name": "_stakeAmount",
          "type": "uint256"
        }
      ],
      "name": "createLeague",
      "outputs": [
        {
          "internalType": "address",
          "name": "",
          "type": "address"
        }
      ],
      "stateMutability": "nonpayable",
      "type": "function"
    },
    {
      "inputs": [],
      "name": "getBeacon",
      "outputs": [
        {
          "internalType": "address",
          "name": "",
          "type": "address"
        }
      ],
      "stateMutability": "view",
      "type": "function"
    },
    {
      "inputs": [
        {
          "internalType": "uint256",
          "name": "",
          "type": "uint256"
        }
      ],
      "name": "leagueAddresses",
      "outputs": [
        {
          "internalType": "address",
          "name": "",
          "type": "address"
        }
      ],
      "stateMutability": "view",
      "type": "function"
    },
    {
      "inputs": [],
      "name": "parameters",
      "outputs": [
        {
          "internalType": "string",
          "name": "name",
          "type": "string"
        },
        {
          "internalType": "uint256",
          "name": "version",
          "type": "uint256"
        },
        {
          "internalType": "uint256",
          "name": "numWeeks",
          "type": "uint256"
        },
        {
          "internalType": "uint256",
          "name": "stakeAmount",
          "type": "uint256"
        },
        {
          "internalType": "address",
          "name": "athletesDataStorageAddress",
          "type": "address"
        },
        {
          "internalType": "address",
          "name": "owner",
          "type": "address"
        },
        {
          "internalType": "address",
          "name": "admin",
          "type": "address"
        },
        {
          "internalType": "address",
          "name": "polygonUSDCAddress",
          "type": "address"
        },
        {
          "internalType": "address",
          "name": "rinkebyUSDCAddress",
          "type": "address"
        }
      ],
      "stateMutability": "view",
      "type": "function"
    },
    {
      "inputs": [
        {
          "internalType": "address",
          "name": "logic",
          "type": "address"
        }
      ],
      "name": "setBeacon",
      "outputs": [
        {
          "internalType": "address",
          "name": "",
          "type": "address"
        }
      ],
      "stateMutability": "nonpayable",
      "type": "function"
    },
    {
      "inputs": [],
      "name": "setLeagueSchedules",
      "outputs": [],
      "stateMutability": "nonpayable",
      "type": "function"
    },
    {
      "inputs": [
        {
          "internalType": "address",
          "name": "_addr",
          "type": "address"
        }
      ],
      "name": "testCallDoesNotExist",
      "outputs": [],
      "stateMutability": "nonpayable",
      "type": "function"
    },
    {
      "inputs": [
        {
          "internalType": "address",
          "name": "user",
          "type": "address"
        }
      ],
      "name": "updateUserToLeagueMapping",
      "outputs": [],
      "stateMutability": "nonpayable",
      "type": "function"
    },
    {
      "inputs": [
        {
          "internalType": "address",
          "name": "",
          "type": "address"
        },
        {
          "internalType": "uint256",
          "name": "",
          "type": "uint256"
        }
      ],
      "name": "userToLeagueMap",
      "outputs": [
        {
          "internalType": "address",
          "name": "",
          "type": "address"
        }
      ],
      "stateMutability": "view",
      "type": "function"
    }
  ],
  "bytecode": "0x60c06040526000600c556008600d55732791bca1f2de4661ed88a30c99a7a9449aa84174600e60006101000a81548173ffffffffffffffffffffffffffffffffffffffff021916908373ffffffffffffffffffffffffffffffffffffffff16021790555073eb8f08a975ab53e34d8a0330e0d34de942c95926600f60006101000a81548173ffffffffffffffffffffffffffffffffffffffff021916908373ffffffffffffffffffffffffffffffffffffffff160217905550348015620000c557600080fd5b5060405162006aa438038062006aa48339818101604052810190620000eb9190620001f6565b80604051620000fa90620001c3565b62000106919062000239565b604051809103906000f08015801562000123573d6000803e3d6000fd5b5073ffffffffffffffffffffffffffffffffffffffff1660808173ffffffffffffffffffffffffffffffffffffffff1660601b815250506040516200016890620001d1565b604051809103906000f08015801562000185573d6000803e3d6000fd5b5073ffffffffffffffffffffffffffffffffffffffff1660a08173ffffffffffffffffffffffffffffffffffffffff1660601b8152505050620002a9565b610a918062004ffe83390190565b6110158062005a8f83390190565b600081519050620001f0816200028f565b92915050565b6000602082840312156200020f576200020e6200028a565b5b60006200021f84828501620001df565b91505092915050565b620002338162000256565b82525050565b600060208201905062000250600083018462000228565b92915050565b600062000263826200026a565b9050919050565b600073ffffffffffffffffffffffffffffffffffffffff82169050919050565b600080fd5b6200029a8162000256565b8114620002a657600080fd5b50565b60805160601c60a05160601c614d22620002dc60003960006108530152600081816102850152610c5a0152614d226000f3fe60806040523480156200001157600080fd5b5060043610620000ac5760003560e01c8063a945320f116200006f578063a945320f1462000173578063c1d5746d146200017f578063c3530ff414620001b5578063d42afb5614620001eb578063ff00726c146200022157620000ac565b806329ffe5e914620000b15780632d6b3a6b14620000e757806374663deb1462000109578063771bd4ce1462000129578063890357301462000149575b600080fd5b620000cf6004803603810190620000c99190620013f6565b62000241565b604051620000de9190620015b9565b60405180910390f35b620000f162000281565b604051620001009190620015b9565b60405180910390f35b62000127600480360381019062000121919062001326565b620002a9565b005b620001476004803603810190620001419190620012ad565b62000432565b005b62000153620004d5565b6040516200016a999897969594939291906200163e565b60405180910390f35b6200017d62000641565b005b6200019d60048036038101906200019791906200138c565b620007e3565b604051620001ac9190620015b9565b60405180910390f35b620001d36004803603810190620001cd9190620012df565b62000e55565b604051620001e29190620015b9565b60405180910390f35b620002096004803603810190620002039190620012ad565b62000ea4565b604051620002189190620015b9565b60405180910390f35b6200023f6004803603810190620002399190620012ad565b62000f2b565b005b600181815481106200025257600080fd5b906000526020600020016000915054906101000a900473ffffffffffffffffffffffffffffffffffffffff1681565b60007f0000000000000000000000000000000000000000000000000000000000000000905090565b6000606060005b8451811015620003f0578373ffffffffffffffffffffffffffffffffffffffff16858281518110620002e757620002e662001a17565b5b6020026020010151604051602401620003019190620015b9565b6040516020818303038152906040527f087e18a7000000000000000000000000000000000000000000000000000000007bffffffffffffffffffffffffffffffffffffffffffffffffffffffff19166020820180517bffffffffffffffffffffffffffffffffffffffffffffffffffffffff83818316178352505050506040516200038d9190620015a0565b6000604051808303816000865af19150503d8060008114620003cc576040519150601f19603f3d011682016040523d82523d6000602084013e620003d1565b606091505b5080935081945050508080620003e7906200196b565b915050620002b0565b507f13848c3e38f8886f3f5d2ad9dff80d8092c2bbb8efd5b887a99c2c6cfc09ac2a8282604051620004249291906200160a565b60405180910390a150505050565b600260008273ffffffffffffffffffffffffffffffffffffffff1673ffffffffffffffffffffffffffffffffffffffff168152602001908152602001600020339080600181540180825580915050600190039060005260206000200160009091909190916101000a81548173ffffffffffffffffffffffffffffffffffffffff021916908373ffffffffffffffffffffffffffffffffffffffff16021790555050565b6003806000018054620004e890620018ff565b80601f01602080910402602001604051908101604052809291908181526020018280546200051690620018ff565b8015620005675780601f106200053b5761010080835404028352916020019162000567565b820191906000526020600020905b8154815290600101906020018083116200054957829003601f168201915b5050505050908060010154908060020154908060030154908060040160009054906101000a900473ffffffffffffffffffffffffffffffffffffffff16908060050160009054906101000a900473ffffffffffffffffffffffffffffffffffffffff16908060060160009054906101000a900473ffffffffffffffffffffffffffffffffffffffff16908060070160009054906101000a900473ffffffffffffffffffffffffffffffffffffffff16908060080160009054906101000a900473ffffffffffffffffffffffffffffffffffffffff16905089565b6000606060005b600180549050811015620007a357600181815481106200066d576200066c62001a17565b5b9060005260206000200160009054906101000a900473ffffffffffffffffffffffffffffffffffffffff1673ffffffffffffffffffffffffffffffffffffffff166040516024016040516020818303038152906040527f0655465a000000000000000000000000000000000000000000000000000000007bffffffffffffffffffffffffffffffffffffffffffffffffffffffff19166020820180517bffffffffffffffffffffffffffffffffffffffffffffffffffffffff8381831617835250505050604051620007409190620015a0565b6000604051808303816000865af19150503d80600081146200077f576040519150601f19603f3d011682016040523d82523d6000602084013e62000784565b606091505b50809350819450505080806200079a906200196b565b91505062000648565b507f13848c3e38f8886f3f5d2ad9dff80d8092c2bbb8efd5b887a99c2c6cfc09ac2a8282604051620007d79291906200160a565b60405180910390a15050565b600060405180610120016040528085858080601f016020809104026020016040519081016040528093929190818152602001838380828437600081840152601f19601f820116905080830192505050505050508152602001600c548152602001600d5481526020018381526020017f000000000000000000000000000000000000000000000000000000000000000073ffffffffffffffffffffffffffffffffffffffff1681526020013073ffffffffffffffffffffffffffffffffffffffff1681526020013373ffffffffffffffffffffffffffffffffffffffff168152602001600e60009054906101000a900473ffffffffffffffffffffffffffffffffffffffff1673ffffffffffffffffffffffffffffffffffffffff168152602001600f60009054906101000a900473ffffffffffffffffffffffffffffffffffffffff1673ffffffffffffffffffffffffffffffffffffffff16815250600360008201518160000190805190602001906200095f92919062001060565b5060208201518160010155604082015181600201556060820151816003015560808201518160040160006101000a81548173ffffffffffffffffffffffffffffffffffffffff021916908373ffffffffffffffffffffffffffffffffffffffff16021790555060a08201518160050160006101000a81548173ffffffffffffffffffffffffffffffffffffffff021916908373ffffffffffffffffffffffffffffffffffffffff16021790555060c08201518160060160006101000a81548173ffffffffffffffffffffffffffffffffffffffff021916908373ffffffffffffffffffffffffffffffffffffffff16021790555060e08201518160070160006101000a81548173ffffffffffffffffffffffffffffffffffffffff021916908373ffffffffffffffffffffffffffffffffffffffff1602179055506101008201518160080160006101000a81548173ffffffffffffffffffffffffffffffffffffffff021916908373ffffffffffffffffffffffffffffffffffffffff160217905550905050600060036000016003600101546003600201546003800154600360040160009054906101000a900473ffffffffffffffffffffffffffffffffffffffff16600360050160009054906101000a900473ffffffffffffffffffffffffffffffffffffffff16600360060160009054906101000a900473ffffffffffffffffffffffffffffffffffffffff16600360070160009054906101000a900473ffffffffffffffffffffffffffffffffffffffff16600360080160009054906101000a900473ffffffffffffffffffffffffffffffffffffffff163060405160240162000bd79a9998979695949392919062001718565b6040516020818303038152906040527fbb1a0461000000000000000000000000000000000000000000000000000000007bffffffffffffffffffffffffffffffffffffffffffffffffffffffff19166020820180517bffffffffffffffffffffffffffffffffffffffffffffffffffffffff8381831617835250505050905060007f00000000000000000000000000000000000000000000000000000000000000008260405162000c8890620010f1565b62000c95929190620015d6565b604051809103906000f08015801562000cb2573d6000803e3d6000fd5b5090506001819080600181540180825580915050600190039060005260206000200160009091909190916101000a81548173ffffffffffffffffffffffffffffffffffffffff021916908373ffffffffffffffffffffffffffffffffffffffff1602179055507f6f41e080f0ba3b200797d7e512fbca5fa5d4b72f7d8fb62d6fb40997ea96798060036000018260405162000d4f929190620016e4565b60405180910390a160036000808201600062000d6c9190620010ff565b6001820160009055600282016000905560038201600090556004820160006101000a81549073ffffffffffffffffffffffffffffffffffffffff02191690556005820160006101000a81549073ffffffffffffffffffffffffffffffffffffffff02191690556006820160006101000a81549073ffffffffffffffffffffffffffffffffffffffff02191690556007820160006101000a81549073ffffffffffffffffffffffffffffffffffffffff02191690556008820160006101000a81549073ffffffffffffffffffffffffffffffffffffffff0219169055505080925050509392505050565b6002602052816000526040600020818154811062000e7257600080fd5b906000526020600020016000915091509054906101000a900473ffffffffffffffffffffffffffffffffffffffff1681565b6000808260405162000eb69062001145565b62000ec29190620015b9565b604051809103906000f08015801562000edf573d6000803e3d6000fd5b509050806000806101000a81548173ffffffffffffffffffffffffffffffffffffffff021916908373ffffffffffffffffffffffffffffffffffffffff16021790555080915050919050565b6000808273ffffffffffffffffffffffffffffffffffffffff166040516024016040516020818303038152906040527f2cf0a1fc000000000000000000000000000000000000000000000000000000007bffffffffffffffffffffffffffffffffffffffffffffffffffffffff19166020820180517bffffffffffffffffffffffffffffffffffffffffffffffffffffffff838183161783525050505060405162000fd79190620015a0565b6000604051808303816000865af19150503d806000811462001016576040519150601f19603f3d011682016040523d82523d6000602084013e6200101b565b606091505b50915091507f13848c3e38f8886f3f5d2ad9dff80d8092c2bbb8efd5b887a99c2c6cfc09ac2a8282604051620010539291906200160a565b60405180910390a1505050565b8280546200106e90620018ff565b90600052602060002090601f016020900481019282620010925760008555620010de565b82601f10620010ad57805160ff1916838001178555620010de565b82800160010185558215620010de579182015b82811115620010dd578251825591602001919060010190620010c0565b5b509050620010ed919062001153565b5090565b6127888062001ad483390190565b5080546200110d90620018ff565b6000825580601f1062001121575062001142565b601f01602090049060005260206000209081019062001141919062001153565b5b50565b610a91806200425c83390190565b5b808211156200116e57600081600090555060010162001154565b5090565b6000620011896200118384620017f8565b620017cf565b90508083825260208201905082856020860282011115620011af57620011ae62001a7f565b5b60005b85811015620011e35781620011c88882620011ed565b845260208401935060208301925050600181019050620011b2565b5050509392505050565b600081359050620011fe8162001a9f565b92915050565b600082601f8301126200121c576200121b62001a7a565b5b81356200122e84826020860162001172565b91505092915050565b60008083601f84011262001250576200124f62001a7a565b5b8235905067ffffffffffffffff81111562001270576200126f62001a75565b5b6020830191508360018202830111156200128f576200128e62001a7f565b5b9250929050565b600081359050620012a78162001ab9565b92915050565b600060208284031215620012c657620012c562001a89565b5b6000620012d684828501620011ed565b91505092915050565b60008060408385031215620012f957620012f862001a89565b5b60006200130985828601620011ed565b92505060206200131c8582860162001296565b9150509250929050565b6000806040838503121562001340576200133f62001a89565b5b600083013567ffffffffffffffff81111562001361576200136062001a84565b5b6200136f8582860162001204565b92505060206200138285828601620011ed565b9150509250929050565b600080600060408486031215620013a857620013a762001a89565b5b600084013567ffffffffffffffff811115620013c957620013c862001a84565b5b620013d78682870162001237565b93509350506020620013ec8682870162001296565b9150509250925092565b6000602082840312156200140f576200140e62001a89565b5b60006200141f8482850162001296565b91505092915050565b62001433816200187f565b82525050565b620014448162001893565b82525050565b600062001457826200183c565b62001463818562001852565b935062001475818560208601620018c9565b620014808162001a8e565b840191505092915050565b600062001498826200183c565b620014a4818562001863565b9350620014b6818560208601620018c9565b80840191505092915050565b6000620014cf8262001847565b620014db81856200186e565b9350620014ed818560208601620018c9565b620014f88162001a8e565b840191505092915050565b600081546200151281620018ff565b6200151e81866200186e565b945060018216600081146200153c57600181146200154f5762001586565b60ff198316865260208601935062001586565b6200155a8562001827565b60005b838110156200157e578154818901526001820191506020810190506200155d565b808801955050505b50505092915050565b6200159a81620018bf565b82525050565b6000620015ae82846200148b565b915081905092915050565b6000602082019050620015d0600083018462001428565b92915050565b6000604082019050620015ed600083018562001428565b81810360208301526200160181846200144a565b90509392505050565b600060408201905062001621600083018562001439565b81810360208301526200163581846200144a565b90509392505050565b60006101208201905081810360008301526200165b818c620014c2565b90506200166c602083018b6200158f565b6200167b604083018a6200158f565b6200168a60608301896200158f565b62001699608083018862001428565b620016a860a083018762001428565b620016b760c083018662001428565b620016c660e083018562001428565b620016d661010083018462001428565b9a9950505050505050505050565b6000604082019050818103600083015262001700818562001503565b905062001711602083018462001428565b9392505050565b600061014082019050818103600083015262001735818d62001503565b905062001746602083018c6200158f565b62001755604083018b6200158f565b62001764606083018a6200158f565b62001773608083018962001428565b6200178260a083018862001428565b6200179160c083018762001428565b620017a060e083018662001428565b620017b061010083018562001428565b620017c061012083018462001428565b9b9a5050505050505050505050565b6000620017db620017ee565b9050620017e9828262001935565b919050565b6000604051905090565b600067ffffffffffffffff82111562001816576200181562001a46565b5b602082029050602081019050919050565b60008190508160005260206000209050919050565b600081519050919050565b600081519050919050565b600082825260208201905092915050565b600081905092915050565b600082825260208201905092915050565b60006200188c826200189f565b9050919050565b60008115159050919050565b600073ffffffffffffffffffffffffffffffffffffffff82169050919050565b6000819050919050565b60005b83811015620018e9578082015181840152602081019050620018cc565b83811115620018f9576000848401525b50505050565b600060028204905060018216806200191857607f821691505b602082108114156200192f576200192e620019e8565b5b50919050565b620019408262001a8e565b810181811067ffffffffffffffff8211171562001962576200196162001a46565b5b80604052505050565b60006200197882620018bf565b91507fffffffffffffffffffffffffffffffffffffffffffffffffffffffffffffffff821415620019ae57620019ad620019b9565b5b600182019050919050565b7f4e487b7100000000000000000000000000000000000000000000000000000000600052601160045260246000fd5b7f4e487b7100000000000000000000000000000000000000000000000000000000600052602260045260246000fd5b7f4e487b7100000000000000000000000000000000000000000000000000000000600052603260045260246000fd5b7f4e487b7100000000000000000000000000000000000000000000000000000000600052604160045260246000fd5b600080fd5b600080fd5b600080fd5b600080fd5b600080fd5b6000601f19601f8301169050919050565b62001aaa816200187f565b811462001ab657600080fd5b50565b62001ac481620018bf565b811462001ad057600080fd5b5056fe608060405260405162002788380380620027888339818101604052810190620000299190620006bb565b620000496200003d620000cf60201b60201c565b620000d760201b60201c565b60017fa3f0ad74e5423aebfd80d3ef4346578335a9a72aeaee59ff6cb3582b35133d5160001c6200007b919062000942565b60001b7fa3f0ad74e5423aebfd80d3ef4346578335a9a72aeaee59ff6cb3582b35133d5060001b14620000b357620000b262000a27565b5b620000c7828260006200019b60201b60201c565b505062000be0565b600033905090565b60008060009054906101000a900473ffffffffffffffffffffffffffffffffffffffff169050816000806101000a81548173ffffffffffffffffffffffffffffffffffffffff021916908373ffffffffffffffffffffffffffffffffffffffff1602179055508173ffffffffffffffffffffffffffffffffffffffff168173ffffffffffffffffffffffffffffffffffffffff167f8be0079c531659141344cd1fd0a4f28419497f9722a3daafe3b4186f6b6457e060405160405180910390a35050565b620001ac83620002a260201b60201c565b8273ffffffffffffffffffffffffffffffffffffffff167f1cf3b03a6cf19fa2baba4df148e9dcabedea7f8a5c07840e207e5c089be95d3e60405160405180910390a2600082511180620001fd5750805b156200029d576200029b8373ffffffffffffffffffffffffffffffffffffffff16635c60da1b6040518163ffffffff1660e01b815260040160206040518083038186803b1580156200024e57600080fd5b505afa15801562000263573d6000803e3d6000fd5b505050506040513d601f19601f8201168201806040525081019062000289919062000689565b836200045160201b6200092c1760201c565b505b505050565b620002b8816200048760201b620009591760201c565b620002fa576040517f08c379a0000000000000000000000000000000000000000000000000000000008152600401620002f1906200084b565b60405180910390fd5b620003918173ffffffffffffffffffffffffffffffffffffffff16635c60da1b6040518163ffffffff1660e01b815260040160206040518083038186803b1580156200034557600080fd5b505afa1580156200035a573d6000803e3d6000fd5b505050506040513d601f19601f8201168201806040525081019062000380919062000689565b6200048760201b620009591760201c565b620003d3576040517f08c379a0000000000000000000000000000000000000000000000000000000008152600401620003ca906200088f565b60405180910390fd5b806200040d7fa3f0ad74e5423aebfd80d3ef4346578335a9a72aeaee59ff6cb3582b35133d5060001b6200049a60201b6200096c1760201c565b60000160006101000a81548173ffffffffffffffffffffffffffffffffffffffff021916908373ffffffffffffffffffffffffffffffffffffffff16021790555050565b60606200047f83836040518060600160405280602781526020016200276160279139620004a460201b60201c565b905092915050565b600080823b905060008111915050919050565b6000819050919050565b6060620004b7846200048760201b60201c565b620004f9576040517f08c379a0000000000000000000000000000000000000000000000000000000008152600401620004f0906200086d565b60405180910390fd5b6000808573ffffffffffffffffffffffffffffffffffffffff16856040516200052391906200080e565b600060405180830381855af49150503d806000811462000560576040519150601f19603f3d011682016040523d82523d6000602084013e62000565565b606091505b50915091506200057d8282866200058860201b60201c565b925050509392505050565b606083156200059a57829050620005ed565b600083511115620005ae5782518084602001fd5b816040517f08c379a0000000000000000000000000000000000000000000000000000000008152600401620005e4919062000827565b60405180910390fd5b9392505050565b60006200060b6200060584620008da565b620008b1565b9050828152602081018484840111156200062a576200062962000ab9565b5b62000637848285620009bb565b509392505050565b600081519050620006508162000bc6565b92915050565b600082601f8301126200066e576200066d62000ab4565b5b815162000680848260208601620005f4565b91505092915050565b600060208284031215620006a257620006a162000ac3565b5b6000620006b2848285016200063f565b91505092915050565b60008060408385031215620006d557620006d462000ac3565b5b6000620006e5858286016200063f565b925050602083015167ffffffffffffffff81111562000709576200070862000abe565b5b620007178582860162000656565b9150509250929050565b60006200072e8262000910565b6200073a818562000926565b93506200074c818560208601620009bb565b80840191505092915050565b600062000765826200091b565b62000771818562000931565b935062000783818560208601620009bb565b6200078e8162000ac8565b840191505092915050565b6000620007a860258362000931565b9150620007b58262000ad9565b604082019050919050565b6000620007cf60268362000931565b9150620007dc8262000b28565b604082019050919050565b6000620007f660308362000931565b9150620008038262000b77565b604082019050919050565b60006200081c828462000721565b915081905092915050565b6000602082019050818103600083015262000843818462000758565b905092915050565b60006020820190508181036000830152620008668162000799565b9050919050565b600060208201905081810360008301526200088881620007c0565b9050919050565b60006020820190508181036000830152620008aa81620007e7565b9050919050565b6000620008bd620008d0565b9050620008cb8282620009f1565b919050565b6000604051905090565b600067ffffffffffffffff821115620008f857620008f762000a85565b5b620009038262000ac8565b9050602081019050919050565b600081519050919050565b600081519050919050565b600081905092915050565b600082825260208201905092915050565b60006200094f82620009b1565b91506200095c83620009b1565b92508282101562000972576200097162000a56565b5b828203905092915050565b60006200098a8262000991565b9050919050565b600073ffffffffffffffffffffffffffffffffffffffff82169050919050565b6000819050919050565b60005b83811015620009db578082015181840152602081019050620009be565b83811115620009eb576000848401525b50505050565b620009fc8262000ac8565b810181811067ffffffffffffffff8211171562000a1e5762000a1d62000a85565b5b80604052505050565b7f4e487b7100000000000000000000000000000000000000000000000000000000600052600160045260246000fd5b7f4e487b7100000000000000000000000000000000000000000000000000000000600052601160045260246000fd5b7f4e487b7100000000000000000000000000000000000000000000000000000000600052604160045260246000fd5b600080fd5b600080fd5b600080fd5b600080fd5b6000601f19601f8301169050919050565b7f455243313936373a206e657720626561636f6e206973206e6f74206120636f6e60008201527f7472616374000000000000000000000000000000000000000000000000000000602082015250565b7f416464726573733a2064656c65676174652063616c6c20746f206e6f6e2d636f60008201527f6e74726163740000000000000000000000000000000000000000000000000000602082015250565b7f455243313936373a20626561636f6e20696d706c656d656e746174696f6e206960008201527f73206e6f74206120636f6e747261637400000000000000000000000000000000602082015250565b62000bd1816200097d565b811462000bdd57600080fd5b50565b611b718062000bf06000396000f3fe60806040526004361061010c5760003560e01c8063715018a61161009557806391d148541161006457806391d148541461037257806393f3706c146103af578063a217fddf146103da578063d547741f14610405578063f2fde38b1461042e5761011b565b8063715018a6146102da5780637eed33f1146102f1578063841abf6e1461031c5780638da5cb5b146103475761011b565b80632f2ff15d116100dc5780632f2ff15d1461020757806336568abe1461023057806352e6e5f31461025957806354fd4d501461028457806360c7dc47146102af5761011b565b8062b2476f1461012557806301ffc9a714610150578063248a9ca31461018d578063267175db146101ca5761011b565b3661011b57610119610457565b005b610123610457565b005b34801561013157600080fd5b5061013a610471565b604051610147919061152d565b60405180910390f35b34801561015c57600080fd5b50610177600480360381019061017291906112b6565b610497565b6040516101849190611548565b60405180910390f35b34801561019957600080fd5b506101b460048036038101906101af9190611249565b610511565b6040516101c19190611563565b60405180910390f35b3480156101d657600080fd5b506101f160048036038101906101ec91906112e3565b610531565b6040516101fe919061152d565b60405180910390f35b34801561021357600080fd5b5061022e60048036038101906102299190611276565b610570565b005b34801561023c57600080fd5b5061025760048036038101906102529190611276565b610599565b005b34801561026557600080fd5b5061026e61061c565b60405161027b9190611640565b60405180910390f35b34801561029057600080fd5b50610299610622565b6040516102a69190611640565b60405180910390f35b3480156102bb57600080fd5b506102c4610628565b6040516102d19190611640565b60405180910390f35b3480156102e657600080fd5b506102ef61062e565b005b3480156102fd57600080fd5b506103066106b6565b6040516103139190611640565b60405180910390f35b34801561032857600080fd5b506103316106bc565b60405161033e919061157e565b60405180910390f35b34801561035357600080fd5b5061035c61074a565b604051610369919061152d565b60405180910390f35b34801561037e57600080fd5b5061039960048036038101906103949190611276565b610773565b6040516103a69190611548565b60405180910390f35b3480156103bb57600080fd5b506103c46107de565b6040516103d1919061152d565b60405180910390f35b3480156103e657600080fd5b506103ef610804565b6040516103fc9190611563565b60405180910390f35b34801561041157600080fd5b5061042c60048036038101906104279190611276565b61080b565b005b34801561043a57600080fd5b50610455600480360381019061045091906111ef565b610834565b005b61045f610976565b61046f61046a610978565b610a04565b565b600d60009054906101000a900473ffffffffffffffffffffffffffffffffffffffff1681565b60007f7965db0b000000000000000000000000000000000000000000000000000000007bffffffffffffffffffffffffffffffffffffffffffffffffffffffff1916827bffffffffffffffffffffffffffffffffffffffffffffffffffffffff1916148061050a575061050982610a2a565b5b9050919050565b600060016000838152602001908152602001600020600101549050919050565b6006818154811061054157600080fd5b906000526020600020016000915054906101000a900473ffffffffffffffffffffffffffffffffffffffff1681565b61057982610511565b61058a81610585610a94565b610a9c565b6105948383610b39565b505050565b6105a1610a94565b73ffffffffffffffffffffffffffffffffffffffff168173ffffffffffffffffffffffffffffffffffffffff161461060e576040517f08c379a000000000000000000000000000000000000000000000000000000000815260040161060590611620565b60405180910390fd5b6106188282610c19565b5050565b60055481565b60025481565b600b5481565b610636610a94565b73ffffffffffffffffffffffffffffffffffffffff1661065461074a565b73ffffffffffffffffffffffffffffffffffffffff16146106aa576040517f08c379a00000000000000000000000000000000000000000000000000000000081526004016106a1906115e0565b60405180910390fd5b6106b46000610cfb565b565b60045481565b600380546106c990611823565b80601f01602080910402602001604051908101604052809291908181526020018280546106f590611823565b80156107425780601f1061071757610100808354040283529160200191610742565b820191906000526020600020905b81548152906001019060200180831161072557829003601f168201915b505050505081565b60008060009054906101000a900473ffffffffffffffffffffffffffffffffffffffff16905090565b60006001600084815260200190815260200160002060000160008373ffffffffffffffffffffffffffffffffffffffff1673ffffffffffffffffffffffffffffffffffffffff16815260200190815260200160002060009054906101000a900460ff16905092915050565b600c60009054906101000a900473ffffffffffffffffffffffffffffffffffffffff1681565b6000801b81565b61081482610511565b61082581610820610a94565b610a9c565b61082f8383610c19565b505050565b61083c610a94565b73ffffffffffffffffffffffffffffffffffffffff1661085a61074a565b73ffffffffffffffffffffffffffffffffffffffff16146108b0576040517f08c379a00000000000000000000000000000000000000000000000000000000081526004016108a7906115e0565b60405180910390fd5b600073ffffffffffffffffffffffffffffffffffffffff168173ffffffffffffffffffffffffffffffffffffffff161415610920576040517f08c379a0000000000000000000000000000000000000000000000000000000008152600401610917906115c0565b60405180910390fd5b61092981610cfb565b50565b60606109518383604051806060016040528060278152602001611b1560279139610dbf565b905092915050565b600080823b905060008111915050919050565b6000819050919050565b565b6000610982610e8c565b73ffffffffffffffffffffffffffffffffffffffff16635c60da1b6040518163ffffffff1660e01b815260040160206040518083038186803b1580156109c757600080fd5b505afa1580156109db573d6000803e3d6000fd5b505050506040513d601f19601f820116820180604052508101906109ff919061121c565b905090565b3660008037600080366000845af43d6000803e8060008114610a25573d6000f35b3d6000fd5b60007f01ffc9a7000000000000000000000000000000000000000000000000000000007bffffffffffffffffffffffffffffffffffffffffffffffffffffffff1916827bffffffffffffffffffffffffffffffffffffffffffffffffffffffff1916149050919050565b600033905090565b610aa68282610773565b610b3557610acb8173ffffffffffffffffffffffffffffffffffffffff166014610ee3565b610ad98360001c6020610ee3565b604051602001610aea9291906114f3565b6040516020818303038152906040526040517f08c379a0000000000000000000000000000000000000000000000000000000008152600401610b2c919061157e565b60405180910390fd5b5050565b610b438282610773565b610c1557600180600084815260200190815260200160002060000160008373ffffffffffffffffffffffffffffffffffffffff1673ffffffffffffffffffffffffffffffffffffffff16815260200190815260200160002060006101000a81548160ff021916908315150217905550610bba610a94565b73ffffffffffffffffffffffffffffffffffffffff168173ffffffffffffffffffffffffffffffffffffffff16837f2f8788117e7eff1d82e926ec794901d17c78024a50270940304540a733656f0d60405160405180910390a45b5050565b610c238282610773565b15610cf75760006001600084815260200190815260200160002060000160008373ffffffffffffffffffffffffffffffffffffffff1673ffffffffffffffffffffffffffffffffffffffff16815260200190815260200160002060006101000a81548160ff021916908315150217905550610c9c610a94565b73ffffffffffffffffffffffffffffffffffffffff168173ffffffffffffffffffffffffffffffffffffffff16837ff6391f5c32d9c69d2a47ea670b442974b53935d1edc7fd64eb21e047a839171b60405160405180910390a45b5050565b60008060009054906101000a900473ffffffffffffffffffffffffffffffffffffffff169050816000806101000a81548173ffffffffffffffffffffffffffffffffffffffff021916908373ffffffffffffffffffffffffffffffffffffffff1602179055508173ffffffffffffffffffffffffffffffffffffffff168173ffffffffffffffffffffffffffffffffffffffff167f8be0079c531659141344cd1fd0a4f28419497f9722a3daafe3b4186f6b6457e060405160405180910390a35050565b6060610dca84610959565b610e09576040517f08c379a0000000000000000000000000000000000000000000000000000000008152600401610e0090611600565b60405180910390fd5b6000808573ffffffffffffffffffffffffffffffffffffffff1685604051610e3191906114dc565b600060405180830381855af49150503d8060008114610e6c576040519150601f19603f3d011682016040523d82523d6000602084013e610e71565b606091505b5091509150610e8182828661111f565b925050509392505050565b6000610eba7fa3f0ad74e5423aebfd80d3ef4346578335a9a72aeaee59ff6cb3582b35133d5060001b61096c565b60000160009054906101000a900473ffffffffffffffffffffffffffffffffffffffff16905090565b606060006002836002610ef691906116ee565b610f009190611698565b67ffffffffffffffff811115610f1957610f186118e2565b5b6040519080825280601f01601f191660200182016040528015610f4b5781602001600182028036833780820191505090505b5090507f300000000000000000000000000000000000000000000000000000000000000081600081518110610f8357610f826118b3565b5b60200101907effffffffffffffffffffffffffffffffffffffffffffffffffffffffffffff1916908160001a9053507f780000000000000000000000000000000000000000000000000000000000000081600181518110610fe757610fe66118b3565b5b60200101907effffffffffffffffffffffffffffffffffffffffffffffffffffffffffffff1916908160001a9053506000600184600261102791906116ee565b6110319190611698565b90505b60018111156110d1577f3031323334353637383961626364656600000000000000000000000000000000600f861660108110611073576110726118b3565b5b1a60f81b82828151811061108a576110896118b3565b5b60200101907effffffffffffffffffffffffffffffffffffffffffffffffffffffffffffff1916908160001a905350600485901c9450806110ca906117f9565b9050611034565b5060008414611115576040517f08c379a000000000000000000000000000000000000000000000000000000000815260040161110c906115a0565b60405180910390fd5b8091505092915050565b6060831561112f5782905061117f565b6000835111156111425782518084602001fd5b816040517f08c379a0000000000000000000000000000000000000000000000000000000008152600401611176919061157e565b60405180910390fd5b9392505050565b60008135905061119581611ab8565b92915050565b6000815190506111aa81611ab8565b92915050565b6000813590506111bf81611acf565b92915050565b6000813590506111d481611ae6565b92915050565b6000813590506111e981611afd565b92915050565b60006020828403121561120557611204611911565b5b600061121384828501611186565b91505092915050565b60006020828403121561123257611231611911565b5b60006112408482850161119b565b91505092915050565b60006020828403121561125f5761125e611911565b5b600061126d848285016111b0565b91505092915050565b6000806040838503121561128d5761128c611911565b5b600061129b858286016111b0565b92505060206112ac85828601611186565b9150509250929050565b6000602082840312156112cc576112cb611911565b5b60006112da848285016111c5565b91505092915050565b6000602082840312156112f9576112f8611911565b5b6000611307848285016111da565b91505092915050565b61131981611748565b82525050565b6113288161175a565b82525050565b61133781611766565b82525050565b60006113488261165b565b6113528185611671565b93506113628185602086016117c6565b80840191505092915050565b600061137982611666565b611383818561167c565b93506113938185602086016117c6565b61139c81611916565b840191505092915050565b60006113b282611666565b6113bc818561168d565b93506113cc8185602086016117c6565b80840191505092915050565b60006113e560208361167c565b91506113f082611927565b602082019050919050565b600061140860268361167c565b915061141382611950565b604082019050919050565b600061142b60208361167c565b91506114368261199f565b602082019050919050565b600061144e60268361167c565b9150611459826119c8565b604082019050919050565b600061147160178361168d565b915061147c82611a17565b601782019050919050565b600061149460118361168d565b915061149f82611a40565b601182019050919050565b60006114b7602f8361167c565b91506114c282611a69565b604082019050919050565b6114d6816117bc565b82525050565b60006114e8828461133d565b915081905092915050565b60006114fe82611464565b915061150a82856113a7565b915061151582611487565b915061152182846113a7565b91508190509392505050565b60006020820190506115426000830184611310565b92915050565b600060208201905061155d600083018461131f565b92915050565b6000602082019050611578600083018461132e565b92915050565b60006020820190508181036000830152611598818461136e565b905092915050565b600060208201905081810360008301526115b9816113d8565b9050919050565b600060208201905081810360008301526115d9816113fb565b9050919050565b600060208201905081810360008301526115f98161141e565b9050919050565b6000602082019050818103600083015261161981611441565b9050919050565b60006020820190508181036000830152611639816114aa565b9050919050565b600060208201905061165560008301846114cd565b92915050565b600081519050919050565b600081519050919050565b600081905092915050565b600082825260208201905092915050565b600081905092915050565b60006116a3826117bc565b91506116ae836117bc565b9250827fffffffffffffffffffffffffffffffffffffffffffffffffffffffffffffffff038211156116e3576116e2611855565b5b828201905092915050565b60006116f9826117bc565b9150611704836117bc565b9250817fffffffffffffffffffffffffffffffffffffffffffffffffffffffffffffffff048311821515161561173d5761173c611855565b5b828202905092915050565b60006117538261179c565b9050919050565b60008115159050919050565b6000819050919050565b60007fffffffff0000000000000000000000000000000000000000000000000000000082169050919050565b600073ffffffffffffffffffffffffffffffffffffffff82169050919050565b6000819050919050565b60005b838110156117e45780820151818401526020810190506117c9565b838111156117f3576000848401525b50505050565b6000611804826117bc565b9150600082141561181857611817611855565b5b600182039050919050565b6000600282049050600182168061183b57607f821691505b6020821081141561184f5761184e611884565b5b50919050565b7f4e487b7100000000000000000000000000000000000000000000000000000000600052601160045260246000fd5b7f4e487b7100000000000000000000000000000000000000000000000000000000600052602260045260246000fd5b7f4e487b7100000000000000000000000000000000000000000000000000000000600052603260045260246000fd5b7f4e487b7100000000000000000000000000000000000000000000000000000000600052604160045260246000fd5b600080fd5b6000601f19601f8301169050919050565b7f537472696e67733a20686578206c656e67746820696e73756666696369656e74600082015250565b7f4f776e61626c653a206e6577206f776e657220697320746865207a65726f206160008201527f6464726573730000000000000000000000000000000000000000000000000000602082015250565b7f4f776e61626c653a2063616c6c6572206973206e6f7420746865206f776e6572600082015250565b7f416464726573733a2064656c65676174652063616c6c20746f206e6f6e2d636f60008201527f6e74726163740000000000000000000000000000000000000000000000000000602082015250565b7f416363657373436f6e74726f6c3a206163636f756e7420000000000000000000600082015250565b7f206973206d697373696e6720726f6c6520000000000000000000000000000000600082015250565b7f416363657373436f6e74726f6c3a2063616e206f6e6c792072656e6f756e636560008201527f20726f6c657320666f722073656c660000000000000000000000000000000000602082015250565b611ac181611748565b8114611acc57600080fd5b50565b611ad881611766565b8114611ae357600080fd5b50565b611aef81611770565b8114611afa57600080fd5b50565b611b06816117bc565b8114611b1157600080fd5b5056fe416464726573733a206c6f772d6c6576656c2064656c65676174652063616c6c206661696c6564a26469706673582212200234bea4927276d0e07463d43313811dcf199fea26e89467de79eaebdeb0f38064736f6c63430008070033416464726573733a206c6f772d6c6576656c2064656c65676174652063616c6c206661696c6564608060405234801561001057600080fd5b5060405162000a9138038062000a91833981810160405281019061003491906101ef565b61005061004561006560201b60201c565b61006d60201b60201c565b61005f8161013160201b60201c565b5061030d565b600033905090565b60008060009054906101000a900473ffffffffffffffffffffffffffffffffffffffff169050816000806101000a81548173ffffffffffffffffffffffffffffffffffffffff021916908373ffffffffffffffffffffffffffffffffffffffff1602179055508173ffffffffffffffffffffffffffffffffffffffff168173ffffffffffffffffffffffffffffffffffffffff167f8be0079c531659141344cd1fd0a4f28419497f9722a3daafe3b4186f6b6457e060405160405180910390a35050565b610144816101c760201b6103781760201c565b610183576040517f08c379a000000000000000000000000000000000000000000000000000000000815260040161017a9061023f565b60405180910390fd5b80600160006101000a81548173ffffffffffffffffffffffffffffffffffffffff021916908373ffffffffffffffffffffffffffffffffffffffff16021790555050565b600080823b905060008111915050919050565b6000815190506101e9816102f6565b92915050565b600060208284031215610205576102046102a2565b5b6000610213848285016101da565b91505092915050565b600061022960338361025f565b9150610234826102a7565b604082019050919050565b600060208201905081810360008301526102588161021c565b9050919050565b600082825260208201905092915050565b600061027b82610282565b9050919050565b600073ffffffffffffffffffffffffffffffffffffffff82169050919050565b600080fd5b7f5570677261646561626c65426561636f6e3a20696d706c656d656e746174696f60008201527f6e206973206e6f74206120636f6e747261637400000000000000000000000000602082015250565b6102ff81610270565b811461030a57600080fd5b50565b610774806200031d6000396000f3fe608060405234801561001057600080fd5b50600436106100575760003560e01c80633659cfe61461005c5780635c60da1b14610078578063715018a6146100965780638da5cb5b146100a0578063f2fde38b146100be575b600080fd5b610076600480360381019061007191906104f8565b6100da565b005b6100806101a5565b60405161008d919061059d565b60405180910390f35b61009e6101cf565b005b6100a8610257565b6040516100b5919061059d565b60405180910390f35b6100d860048036038101906100d391906104f8565b610280565b005b6100e261038b565b73ffffffffffffffffffffffffffffffffffffffff16610100610257565b73ffffffffffffffffffffffffffffffffffffffff1614610156576040517f08c379a000000000000000000000000000000000000000000000000000000000815260040161014d906105f8565b60405180910390fd5b61015f81610393565b8073ffffffffffffffffffffffffffffffffffffffff167fbc7cd75a20ee27fd9adebab32041f755214dbc6bffa90cc0225b39da2e5c2d3b60405160405180910390a250565b6000600160009054906101000a900473ffffffffffffffffffffffffffffffffffffffff16905090565b6101d761038b565b73ffffffffffffffffffffffffffffffffffffffff166101f5610257565b73ffffffffffffffffffffffffffffffffffffffff161461024b576040517f08c379a0000000000000000000000000000000000000000000000000000000008152600401610242906105f8565b60405180910390fd5b610255600061041f565b565b60008060009054906101000a900473ffffffffffffffffffffffffffffffffffffffff16905090565b61028861038b565b73ffffffffffffffffffffffffffffffffffffffff166102a6610257565b73ffffffffffffffffffffffffffffffffffffffff16146102fc576040517f08c379a00000000000000000000000000000000000000000000000000000000081526004016102f3906105f8565b60405180910390fd5b600073ffffffffffffffffffffffffffffffffffffffff168173ffffffffffffffffffffffffffffffffffffffff16141561036c576040517f08c379a0000000000000000000000000000000000000000000000000000000008152600401610363906105b8565b60405180910390fd5b6103758161041f565b50565b600080823b905060008111915050919050565b600033905090565b61039c81610378565b6103db576040517f08c379a00000000000000000000000000000000000000000000000000000000081526004016103d2906105d8565b60405180910390fd5b80600160006101000a81548173ffffffffffffffffffffffffffffffffffffffff021916908373ffffffffffffffffffffffffffffffffffffffff16021790555050565b60008060009054906101000a900473ffffffffffffffffffffffffffffffffffffffff169050816000806101000a81548173ffffffffffffffffffffffffffffffffffffffff021916908373ffffffffffffffffffffffffffffffffffffffff1602179055508173ffffffffffffffffffffffffffffffffffffffff168173ffffffffffffffffffffffffffffffffffffffff167f8be0079c531659141344cd1fd0a4f28419497f9722a3daafe3b4186f6b6457e060405160405180910390a35050565b6000813590506104f281610727565b92915050565b60006020828403121561050e5761050d61065b565b5b600061051c848285016104e3565b91505092915050565b61052e81610629565b82525050565b6000610541602683610618565b915061054c82610660565b604082019050919050565b6000610564603383610618565b915061056f826106af565b604082019050919050565b6000610587602083610618565b9150610592826106fe565b602082019050919050565b60006020820190506105b26000830184610525565b92915050565b600060208201905081810360008301526105d181610534565b9050919050565b600060208201905081810360008301526105f181610557565b9050919050565b600060208201905081810360008301526106118161057a565b9050919050565b600082825260208201905092915050565b60006106348261063b565b9050919050565b600073ffffffffffffffffffffffffffffffffffffffff82169050919050565b600080fd5b7f4f776e61626c653a206e6577206f776e657220697320746865207a65726f206160008201527f6464726573730000000000000000000000000000000000000000000000000000602082015250565b7f5570677261646561626c65426561636f6e3a20696d706c656d656e746174696f60008201527f6e206973206e6f74206120636f6e747261637400000000000000000000000000602082015250565b7f4f776e61626c653a2063616c6c6572206973206e6f7420746865206f776e6572600082015250565b61073081610629565b811461073b57600080fd5b5056fea2646970667358221220f14c1e123fc6650c2510ce92a5938ce8dbd619e20ec5ceb7ad4526f9ccdb6aca64736f6c63430008070033a26469706673582212209698a1d48508748e80798db511a96dd51467cdc7d517779c3ea25cab420c219664736f6c63430008070033608060405234801561001057600080fd5b5060405162000a9138038062000a91833981810160405281019061003491906101ef565b61005061004561006560201b60201c565b61006d60201b60201c565b61005f8161013160201b60201c565b5061030d565b600033905090565b60008060009054906101000a900473ffffffffffffffffffffffffffffffffffffffff169050816000806101000a81548173ffffffffffffffffffffffffffffffffffffffff021916908373ffffffffffffffffffffffffffffffffffffffff1602179055508173ffffffffffffffffffffffffffffffffffffffff168173ffffffffffffffffffffffffffffffffffffffff167f8be0079c531659141344cd1fd0a4f28419497f9722a3daafe3b4186f6b6457e060405160405180910390a35050565b610144816101c760201b6103781760201c565b610183576040517f08c379a000000000000000000000000000000000000000000000000000000000815260040161017a9061023f565b60405180910390fd5b80600160006101000a81548173ffffffffffffffffffffffffffffffffffffffff021916908373ffffffffffffffffffffffffffffffffffffffff16021790555050565b600080823b905060008111915050919050565b6000815190506101e9816102f6565b92915050565b600060208284031215610205576102046102a2565b5b6000610213848285016101da565b91505092915050565b600061022960338361025f565b9150610234826102a7565b604082019050919050565b600060208201905081810360008301526102588161021c565b9050919050565b600082825260208201905092915050565b600061027b82610282565b9050919050565b600073ffffffffffffffffffffffffffffffffffffffff82169050919050565b600080fd5b7f5570677261646561626c65426561636f6e3a20696d706c656d656e746174696f60008201527f6e206973206e6f74206120636f6e747261637400000000000000000000000000602082015250565b6102ff81610270565b811461030a57600080fd5b50565b610774806200031d6000396000f3fe608060405234801561001057600080fd5b50600436106100575760003560e01c80633659cfe61461005c5780635c60da1b14610078578063715018a6146100965780638da5cb5b146100a0578063f2fde38b146100be575b600080fd5b610076600480360381019061007191906104f8565b6100da565b005b6100806101a5565b60405161008d919061059d565b60405180910390f35b61009e6101cf565b005b6100a8610257565b6040516100b5919061059d565b60405180910390f35b6100d860048036038101906100d391906104f8565b610280565b005b6100e261038b565b73ffffffffffffffffffffffffffffffffffffffff16610100610257565b73ffffffffffffffffffffffffffffffffffffffff1614610156576040517f08c379a000000000000000000000000000000000000000000000000000000000815260040161014d906105f8565b60405180910390fd5b61015f81610393565b8073ffffffffffffffffffffffffffffffffffffffff167fbc7cd75a20ee27fd9adebab32041f755214dbc6bffa90cc0225b39da2e5c2d3b60405160405180910390a250565b6000600160009054906101000a900473ffffffffffffffffffffffffffffffffffffffff16905090565b6101d761038b565b73ffffffffffffffffffffffffffffffffffffffff166101f5610257565b73ffffffffffffffffffffffffffffffffffffffff161461024b576040517f08c379a0000000000000000000000000000000000000000000000000000000008152600401610242906105f8565b60405180910390fd5b610255600061041f565b565b60008060009054906101000a900473ffffffffffffffffffffffffffffffffffffffff16905090565b61028861038b565b73ffffffffffffffffffffffffffffffffffffffff166102a6610257565b73ffffffffffffffffffffffffffffffffffffffff16146102fc576040517f08c379a00000000000000000000000000000000000000000000000000000000081526004016102f3906105f8565b60405180910390fd5b600073ffffffffffffffffffffffffffffffffffffffff168173ffffffffffffffffffffffffffffffffffffffff16141561036c576040517f08c379a0000000000000000000000000000000000000000000000000000000008152600401610363906105b8565b60405180910390fd5b6103758161041f565b50565b600080823b905060008111915050919050565b600033905090565b61039c81610378565b6103db576040517f08c379a00000000000000000000000000000000000000000000000000000000081526004016103d2906105d8565b60405180910390fd5b80600160006101000a81548173ffffffffffffffffffffffffffffffffffffffff021916908373ffffffffffffffffffffffffffffffffffffffff16021790555050565b60008060009054906101000a900473ffffffffffffffffffffffffffffffffffffffff169050816000806101000a81548173ffffffffffffffffffffffffffffffffffffffff021916908373ffffffffffffffffffffffffffffffffffffffff1602179055508173ffffffffffffffffffffffffffffffffffffffff168173ffffffffffffffffffffffffffffffffffffffff167f8be0079c531659141344cd1fd0a4f28419497f9722a3daafe3b4186f6b6457e060405160405180910390a35050565b6000813590506104f281610727565b92915050565b60006020828403121561050e5761050d61065b565b5b600061051c848285016104e3565b91505092915050565b61052e81610629565b82525050565b6000610541602683610618565b915061054c82610660565b604082019050919050565b6000610564603383610618565b915061056f826106af565b604082019050919050565b6000610587602083610618565b9150610592826106fe565b602082019050919050565b60006020820190506105b26000830184610525565b92915050565b600060208201905081810360008301526105d181610534565b9050919050565b600060208201905081810360008301526105f181610557565b9050919050565b600060208201905081810360008301526106118161057a565b9050919050565b600082825260208201905092915050565b60006106348261063b565b9050919050565b600073ffffffffffffffffffffffffffffffffffffffff82169050919050565b600080fd5b7f4f776e61626c653a206e6577206f776e657220697320746865207a65726f206160008201527f6464726573730000000000000000000000000000000000000000000000000000602082015250565b7f5570677261646561626c65426561636f6e3a20696d706c656d656e746174696f60008201527f6e206973206e6f74206120636f6e747261637400000000000000000000000000602082015250565b7f4f776e61626c653a2063616c6c6572206973206e6f7420746865206f776e6572600082015250565b61073081610629565b811461073b57600080fd5b5056fea2646970667358221220f14c1e123fc6650c2510ce92a5938ce8dbd619e20ec5ceb7ad4526f9ccdb6aca64736f6c63430008070033608060405234801561001057600080fd5b5061002d61002261003260201b60201c565b61003a60201b60201c565b6100fe565b600033905090565b60008060009054906101000a900473ffffffffffffffffffffffffffffffffffffffff169050816000806101000a81548173ffffffffffffffffffffffffffffffffffffffff021916908373ffffffffffffffffffffffffffffffffffffffff1602179055508173ffffffffffffffffffffffffffffffffffffffff168173ffffffffffffffffffffffffffffffffffffffff167f8be0079c531659141344cd1fd0a4f28419497f9722a3daafe3b4186f6b6457e060405160405180910390a35050565b610f088061010d6000396000f3fe608060405234801561001057600080fd5b50600436106100935760003560e01c8063c59d484711610066578063c59d48471461010c578063d4313da81461012a578063edef8b831461015a578063ef5c10201461018a578063f2fde38b146101a857610093565b80632186e72614610098578063715018a6146100c85780638da5cb5b146100d25780639e9d7066146100f0575b600080fd5b6100b260048036038101906100ad91906109d8565b6101c4565b6040516100bf9190610cc4565b60405180910390f35b6100d06101f5565b005b6100da61027d565b6040516100e79190610c25565b60405180910390f35b61010a600480360381019061010591906109d8565b6102a6565b005b610114610398565b6040516101219190610c40565b60405180910390f35b610144600480360381019061013f91906109ab565b610558565b6040516101519190610c62565b60405180910390f35b610174600480360381019061016f91906109ab565b6105c3565b6040516101819190610cc4565b60405180910390f35b6101926105f1565b60405161019f9190610c40565b60405180910390f35b6101c260048036038101906101bd919061097e565b6106b2565b005b600160205281600052604060002081815481106101e057600080fd5b90600052602060002001600091509150505481565b6101fd6107aa565b73ffffffffffffffffffffffffffffffffffffffff1661021b61027d565b73ffffffffffffffffffffffffffffffffffffffff1614610271576040517f08c379a000000000000000000000000000000000000000000000000000000000815260040161026890610ca4565b60405180910390fd5b61027b60006107b2565b565b60008060009054906101000a900473ffffffffffffffffffffffffffffffffffffffff16905090565b6102ae6107aa565b73ffffffffffffffffffffffffffffffffffffffff166102cc61027d565b73ffffffffffffffffffffffffffffffffffffffff1614610322576040517f08c379a000000000000000000000000000000000000000000000000000000000815260040161031990610ca4565b60405180910390fd5b60006001600084815260200190815260200160002080549050141561035a576003600081548092919061035490610daf565b91905055505b600160008381526020019081526020016000208190806001815401808255809150506001900390600052602060002001600090919091909150555050565b6060600260006103a89190610876565b60005b60035481101561049857600060405180604001604052808381526020016001600085815260200190815260200160002080548060200260200160405190810160405280929190818152602001828054801561042557602002820191906000526020600020905b815481526020019060010190808311610411575b50505050508152509050600281908060018154018082558091505060019003906000526020600020906002020160009091909190915060008201518160000155602082015181600101908051906020019061048192919061089a565b50505050808061049090610daf565b9150506103ab565b506002805480602002602001604051908101604052809291908181526020016000905b8282101561054f5783829060005260206000209060020201604051806040016040529081600082015481526020016001820180548060200260200160405190810160405280929190818152602001828054801561053757602002820191906000526020600020905b815481526020019060010190808311610523575b505050505081525050815260200190600101906104bb565b50505050905090565b6060600160008381526020019081526020016000208054806020026020016040519081016040528092919081815260200182805480156105b757602002820191906000526020600020905b8154815260200190600101908083116105a3575b50505050509050919050565b600281815481106105d357600080fd5b90600052602060002090600202016000915090508060000154905081565b60606002805480602002602001604051908101604052809291908181526020016000905b828210156106a95783829060005260206000209060020201604051806040016040529081600082015481526020016001820180548060200260200160405190810160405280929190818152602001828054801561069157602002820191906000526020600020905b81548152602001906001019080831161067d575b50505050508152505081526020019060010190610615565b50505050905090565b6106ba6107aa565b73ffffffffffffffffffffffffffffffffffffffff166106d861027d565b73ffffffffffffffffffffffffffffffffffffffff161461072e576040517f08c379a000000000000000000000000000000000000000000000000000000000815260040161072590610ca4565b60405180910390fd5b600073ffffffffffffffffffffffffffffffffffffffff168173ffffffffffffffffffffffffffffffffffffffff16141561079e576040517f08c379a000000000000000000000000000000000000000000000000000000000815260040161079590610c84565b60405180910390fd5b6107a7816107b2565b50565b600033905090565b60008060009054906101000a900473ffffffffffffffffffffffffffffffffffffffff169050816000806101000a81548173ffffffffffffffffffffffffffffffffffffffff021916908373ffffffffffffffffffffffffffffffffffffffff1602179055508173ffffffffffffffffffffffffffffffffffffffff168173ffffffffffffffffffffffffffffffffffffffff167f8be0079c531659141344cd1fd0a4f28419497f9722a3daafe3b4186f6b6457e060405160405180910390a35050565b508054600082556002029060005260206000209081019061089791906108e7565b50565b8280548282559060005260206000209081019282156108d6579160200282015b828111156108d55782518255916020019190600101906108ba565b5b5090506108e39190610916565b5090565b5b80821115610912576000808201600090556001820160006109099190610933565b506002016108e8565b5090565b5b8082111561092f576000816000905550600101610917565b5090565b50805460008255906000526020600020908101906109519190610916565b50565b60008135905061096381610ea4565b92915050565b60008135905061097881610ebb565b92915050565b60006020828403121561099457610993610e27565b5b60006109a284828501610954565b91505092915050565b6000602082840312156109c1576109c0610e27565b5b60006109cf84828501610969565b91505092915050565b600080604083850312156109ef576109ee610e27565b5b60006109fd85828601610969565b9250506020610a0e85828601610969565b9150509250929050565b6000610a248383610bca565b905092915050565b6000610a388383610c07565b60208301905092915050565b610a4d81610d73565b82525050565b6000610a5e82610cff565b610a688185610d2f565b935083602082028501610a7a85610cdf565b8060005b85811015610ab65784840389528151610a978582610a18565b9450610aa283610d15565b925060208a01995050600181019050610a7e565b50829750879550505050505092915050565b6000610ad382610d0a565b610add8185610d40565b9350610ae883610cef565b8060005b83811015610b19578151610b008882610a2c565b9750610b0b83610d22565b925050600181019050610aec565b5085935050505092915050565b6000610b3182610d0a565b610b3b8185610d51565b9350610b4683610cef565b8060005b83811015610b77578151610b5e8882610a2c565b9750610b6983610d22565b925050600181019050610b4a565b5085935050505092915050565b6000610b91602683610d62565b9150610b9c82610e2c565b604082019050919050565b6000610bb4602083610d62565b9150610bbf82610e7b565b602082019050919050565b6000604083016000830151610be26000860182610c07565b5060208301518482036020860152610bfa8282610ac8565b9150508091505092915050565b610c1081610da5565b82525050565b610c1f81610da5565b82525050565b6000602082019050610c3a6000830184610a44565b92915050565b60006020820190508181036000830152610c5a8184610a53565b905092915050565b60006020820190508181036000830152610c7c8184610b26565b905092915050565b60006020820190508181036000830152610c9d81610b84565b9050919050565b60006020820190508181036000830152610cbd81610ba7565b9050919050565b6000602082019050610cd96000830184610c16565b92915050565b6000819050602082019050919050565b6000819050602082019050919050565b600081519050919050565b600081519050919050565b6000602082019050919050565b6000602082019050919050565b600082825260208201905092915050565b600082825260208201905092915050565b600082825260208201905092915050565b600082825260208201905092915050565b6000610d7e82610d85565b9050919050565b600073ffffffffffffffffffffffffffffffffffffffff82169050919050565b6000819050919050565b6000610dba82610da5565b91507fffffffffffffffffffffffffffffffffffffffffffffffffffffffffffffffff821415610ded57610dec610df8565b5b600182019050919050565b7f4e487b7100000000000000000000000000000000000000000000000000000000600052601160045260246000fd5b600080fd5b7f4f776e61626c653a206e6577206f776e657220697320746865207a65726f206160008201527f6464726573730000000000000000000000000000000000000000000000000000602082015250565b7f4f776e61626c653a2063616c6c6572206973206e6f7420746865206f776e6572600082015250565b610ead81610d73565b8114610eb857600080fd5b50565b610ec481610da5565b8114610ecf57600080fd5b5056fea26469706673582212205febb2acc6a1c31881a6c28f0c91531b29b97cc9f0e7d72059281fac1629c91364736f6c63430008070033",
  "linkReferences": {},
  "deployedLinkReferences": {}
}