{
  "_format": "hh-sol-artifact-1",
  "contractName": "AthleteMetadata",
  "sourceName": "contracts/OldContracts/AthleteMetadata.sol",
  "abi": [
    {
      "anonymous": false,
      "inputs": [
        {
          "indexed": true,
          "internalType": "bytes32",
          "name": "id",
          "type": "bytes32"
        }
      ],
      "name": "ChainlinkCancelled",
      "type": "event"
    },
    {
      "anonymous": false,
      "inputs": [
        {
          "indexed": true,
          "internalType": "bytes32",
          "name": "id",
          "type": "bytes32"
        }
      ],
      "name": "ChainlinkFulfilled",
      "type": "event"
    },
    {
      "anonymous": false,
      "inputs": [
        {
          "indexed": true,
          "internalType": "bytes32",
          "name": "id",
          "type": "bytes32"
        }
      ],
      "name": "ChainlinkRequested",
      "type": "event"
    },
    {
      "anonymous": false,
      "inputs": [
        {
          "indexed": true,
          "internalType": "address",
          "name": "previousOwner",
          "type": "address"
        },
        {
          "indexed": true,
          "internalType": "address",
          "name": "newOwner",
          "type": "address"
        }
      ],
      "name": "OwnershipTransferred",
      "type": "event"
    },
    {
      "inputs": [
        {
          "internalType": "uint256",
          "name": "",
          "type": "uint256"
        }
      ],
      "name": "AthleteList",
      "outputs": [
        {
          "internalType": "string",
          "name": "name",
          "type": "string"
        },
        {
          "internalType": "string",
          "name": "team",
          "type": "string"
        },
        {
          "internalType": "string",
          "name": "position",
          "type": "string"
        }
      ],
      "stateMutability": "view",
      "type": "function"
    },
    {
      "inputs": [
        {
          "internalType": "bytes32",
          "name": "_requestId",
          "type": "bytes32"
        },
        {
          "components": [
            {
              "internalType": "string",
              "name": "name",
              "type": "string"
            },
            {
              "internalType": "string",
              "name": "team",
              "type": "string"
            },
            {
              "internalType": "string",
              "name": "position",
              "type": "string"
            }
          ],
          "internalType": "struct AthleteMetadata.Athlete[]",
          "name": "res",
          "type": "tuple[]"
        }
      ],
      "name": "fulfill",
      "outputs": [],
      "stateMutability": "nonpayable",
      "type": "function"
    },
    {
      "inputs": [],
      "name": "getAllAthletes",
      "outputs": [],
      "stateMutability": "nonpayable",
      "type": "function"
    },
    {
      "inputs": [],
      "name": "owner",
      "outputs": [
        {
          "internalType": "address",
          "name": "",
          "type": "address"
        }
      ],
      "stateMutability": "view",
      "type": "function"
    },
    {
      "inputs": [],
      "name": "renounceOwnership",
      "outputs": [],
      "stateMutability": "nonpayable",
      "type": "function"
    },
    {
      "inputs": [
        {
          "internalType": "address",
          "name": "newOwner",
          "type": "address"
        }
      ],
      "name": "transferOwnership",
      "outputs": [],
      "stateMutability": "nonpayable",
      "type": "function"
    }
  ],
  "bytecode": "0x608060405260016004557f3633613936323763623566383438323138646364373936623435346130303332600755739257e0700b0ecbc83ff8c465d8e000ff88c0fec7600860006101000a81548173ffffffffffffffffffffffffffffffffffffffff021916908373ffffffffffffffffffffffffffffffffffffffff1602179055506040518060800160405280605d815260200162002050605d9139600a9080519060200190620000b3929190620001b6565b50348015620000c157600080fd5b50620000e2620000d6620000e860201b60201c565b620000f060201b60201c565b620002cb565b600033905090565b6000600660009054906101000a900473ffffffffffffffffffffffffffffffffffffffff16905081600660006101000a81548173ffffffffffffffffffffffffffffffffffffffff021916908373ffffffffffffffffffffffffffffffffffffffff1602179055508173ffffffffffffffffffffffffffffffffffffffff168173ffffffffffffffffffffffffffffffffffffffff167f8be0079c531659141344cd1fd0a4f28419497f9722a3daafe3b4186f6b6457e060405160405180910390a35050565b828054620001c49062000266565b90600052602060002090601f016020900481019282620001e8576000855562000234565b82601f106200020357805160ff191683800117855562000234565b8280016001018555821562000234579182015b828111156200023357825182559160200191906001019062000216565b5b50905062000243919062000247565b5090565b5b808211156200026257600081600090555060010162000248565b5090565b600060028204905060018216806200027f57607f821691505b602082108114156200029657620002956200029c565b5b50919050565b7f4e487b7100000000000000000000000000000000000000000000000000000000600052602260045260246000fd5b611d7580620002db6000396000f3fe608060405234801561001057600080fd5b50600436106100625760003560e01c806315bac31714610067578063715018a6146100835780638b2b39fc1461008d5780638da5cb5b14610097578063b05c16fd146100b5578063f2fde38b146100e7575b600080fd5b610081600480360381019061007c91906112cc565b610103565b005b61008b61020d565b005b610095610295565b005b61009f610436565b6040516100ac91906115c3565b60405180910390f35b6100cf60048036038101906100ca9190611320565b610460565b6040516100de939291906116a1565b60405180910390f35b61010160048036038101906100fc919061127a565b610632565b005b816005600082815260200190815260200160002060009054906101000a900473ffffffffffffffffffffffffffffffffffffffff1673ffffffffffffffffffffffffffffffffffffffff163373ffffffffffffffffffffffffffffffffffffffff16146101a5576040517f08c379a000000000000000000000000000000000000000000000000000000000815260040161019c9061174d565b60405180910390fd5b6005600082815260200190815260200160002060006101000a81549073ffffffffffffffffffffffffffffffffffffffff0219169055807f7cc135e0cebb02c3480ae5d74d377283180a2601f8f644edf7987b009316c63a60405160405180910390a2505050565b61021561072a565b73ffffffffffffffffffffffffffffffffffffffff16610233610436565b73ffffffffffffffffffffffffffffffffffffffff1614610289576040517f08c379a00000000000000000000000000000000000000000000000000000000081526004016102809061172d565b60405180910390fd5b6102936000610732565b565b61029d61072a565b73ffffffffffffffffffffffffffffffffffffffff166102bb610436565b73ffffffffffffffffffffffffffffffffffffffff1614610311576040517f08c379a00000000000000000000000000000000000000000000000000000000081526004016103089061172d565b60405180910390fd5b6000610327600754306315bac31760e01b6107f8565b90506103fd6040518060400160405280600381526020017f6765740000000000000000000000000000000000000000000000000000000000815250600a805461036f90611b6b565b80601f016020809104026020016040519081016040528092919081815260200182805461039b90611b6b565b80156103e85780601f106103bd576101008083540402835291602001916103e8565b820191906000526020600020905b8154815290600101906020018083116103cb57829003601f168201915b5050505050836108299092919063ffffffff16565b610432600860009054906101000a900473ffffffffffffffffffffffffffffffffffffffff168267016345785d8a000061085c565b5050565b6000600660009054906101000a900473ffffffffffffffffffffffffffffffffffffffff16905090565b6009818154811061047057600080fd5b906000526020600020906003020160009150905080600001805461049390611b6b565b80601f01602080910402602001604051908101604052809291908181526020018280546104bf90611b6b565b801561050c5780601f106104e15761010080835404028352916020019161050c565b820191906000526020600020905b8154815290600101906020018083116104ef57829003601f168201915b50505050509080600101805461052190611b6b565b80601f016020809104026020016040519081016040528092919081815260200182805461054d90611b6b565b801561059a5780601f1061056f5761010080835404028352916020019161059a565b820191906000526020600020905b81548152906001019060200180831161057d57829003601f168201915b5050505050908060020180546105af90611b6b565b80601f01602080910402602001604051908101604052809291908181526020018280546105db90611b6b565b80156106285780601f106105fd57610100808354040283529160200191610628565b820191906000526020600020905b81548152906001019060200180831161060b57829003601f168201915b5050505050905083565b61063a61072a565b73ffffffffffffffffffffffffffffffffffffffff16610658610436565b73ffffffffffffffffffffffffffffffffffffffff16146106ae576040517f08c379a00000000000000000000000000000000000000000000000000000000081526004016106a59061172d565b60405180910390fd5b600073ffffffffffffffffffffffffffffffffffffffff168173ffffffffffffffffffffffffffffffffffffffff16141561071e576040517f08c379a0000000000000000000000000000000000000000000000000000000008152600401610715906116ed565b60405180910390fd5b61072781610732565b50565b600033905090565b6000600660009054906101000a900473ffffffffffffffffffffffffffffffffffffffff16905081600660006101000a81548173ffffffffffffffffffffffffffffffffffffffff021916908373ffffffffffffffffffffffffffffffffffffffff1602179055508173ffffffffffffffffffffffffffffffffffffffff168173ffffffffffffffffffffffffffffffffffffffff167f8be0079c531659141344cd1fd0a4f28419497f9722a3daafe3b4186f6b6457e060405160405180910390a35050565b610800611008565b610808611008565b61081f85858584610928909392919063ffffffff16565b9150509392505050565b6108408284608001516109d890919063ffffffff16565b6108578184608001516109d890919063ffffffff16565b505050565b60008060045490506001816108719190611832565b6004819055506000634042994660e01b60008087600001513089604001518760018c60800151600001516040516024016108b29897969594939291906115de565b604051602081830303815290604052907bffffffffffffffffffffffffffffffffffffffffffffffffffffffff19166020820180517bffffffffffffffffffffffffffffffffffffffffffffffffffffffff8381831617835250505050905061091d868386846109fd565b925050509392505050565b610930611008565b6109408560800151610100610ba1565b508385600001818152505082856020019073ffffffffffffffffffffffffffffffffffffffff16908173ffffffffffffffffffffffffffffffffffffffff16815250508185604001907bffffffffffffffffffffffffffffffffffffffffffffffffffffffff191690817bffffffffffffffffffffffffffffffffffffffffffffffffffffffff191681525050849050949350505050565b6109e58260038351610c0b565b6109f88183610d9090919063ffffffff16565b505050565b60003084604051602001610a12929190611597565b604051602081830303815290604052805190602001209050846005600083815260200190815260200160002060006101000a81548173ffffffffffffffffffffffffffffffffffffffff021916908373ffffffffffffffffffffffffffffffffffffffff160217905550807fb5e6e01e79f91267dc17b4e6314d5d4d03593d2ceee0fbb452b750bd70ea5af960405160405180910390a2600260009054906101000a900473ffffffffffffffffffffffffffffffffffffffff1673ffffffffffffffffffffffffffffffffffffffff16634000aea08685856040518463ffffffff1660e01b8152600401610b0893929190611663565b602060405180830381600087803b158015610b2257600080fd5b505af1158015610b36573d6000803e3d6000fd5b505050506040513d601f19601f82011682018060405250810190610b5a91906112a3565b610b99576040517f08c379a0000000000000000000000000000000000000000000000000000000008152600401610b909061170d565b60405180910390fd5b949350505050565b610ba9611075565b6000602083610bb89190611bcb565b14610be457602082610bca9190611bcb565b6020610bd69190611a53565b82610be19190611832565b91505b81836020018181525050604051808452600081528281016020016040525082905092915050565b60178167ffffffffffffffff1611610c4257610c3c8160058460ff16901b60ff161784610db290919063ffffffff16565b50610d8b565b60ff8167ffffffffffffffff1611610c9857610c71601860058460ff16901b1784610db290919063ffffffff16565b50610c928167ffffffffffffffff16600185610dd29092919063ffffffff16565b50610d8a565b61ffff8167ffffffffffffffff1611610cef57610cc8601960058460ff16901b1784610db290919063ffffffff16565b50610ce98167ffffffffffffffff16600285610dd29092919063ffffffff16565b50610d89565b63ffffffff8167ffffffffffffffff1611610d4857610d21601a60058460ff16901b1784610db290919063ffffffff16565b50610d428167ffffffffffffffff16600485610dd29092919063ffffffff16565b50610d88565b610d65601b60058460ff16901b1784610db290919063ffffffff16565b50610d868167ffffffffffffffff16600885610dd29092919063ffffffff16565b505b5b5b5b505050565b610d98611075565b610daa83846000015151848551610df4565b905092915050565b610dba611075565b610dca8384600001515184610ee3565b905092915050565b610dda611075565b610deb848560000151518585610f3a565b90509392505050565b610dfc611075565b8251821115610e0a57600080fd5b84602001518285610e1b9190611832565b1115610e5057610e4f856002610e4088602001518887610e3b9190611832565b610fc8565b610e4a91906119f9565b610fe4565b5b600080865180518760208301019350808887011115610e6f5787860182525b60208701925050505b60208410610eb65780518252602082610e919190611832565b9150602081610ea09190611832565b9050602084610eaf9190611a53565b9350610e78565b60006001856020036101000a03905080198251168184511681811785525050508692505050949350505050565b610eeb611075565b83602001518310610f1157610f108460028660200151610f0b91906119f9565b610fe4565b5b8351805160208583010184815381861415610f2d576001820183525b5050508390509392505050565b610f42611075565b84602001518483610f539190611832565b1115610f7b57610f7a8560028685610f6b9190611832565b610f7591906119f9565b610fe4565b5b6000600183610100610f8d91906118db565b610f979190611a53565b90508551838682010185831982511617815281518588011115610fba5784870182525b505085915050949350505050565b600081831115610fda57829050610fde565b8190505b92915050565b600082600001519050610ff78383610ba1565b506110028382610d90565b50505050565b6040518060a0016040528060008019168152602001600073ffffffffffffffffffffffffffffffffffffffff16815260200160007bffffffffffffffffffffffffffffffffffffffffffffffffffffffff191681526020016000815260200161106f611075565b81525090565b604051806040016040528060608152602001600081525090565b60006110a261109d8461179e565b61176d565b9050808382526020820190508260005b858110156110e257813585016110c888826111bd565b8452602084019350602083019250506001810190506110b2565b5050509392505050565b60006110ff6110fa846117ca565b61176d565b90508281526020810184848401111561111757600080fd5b611122848285611b29565b509392505050565b60008135905061113981611ce3565b92915050565b600082601f83011261115057600080fd5b813561116084826020860161108f565b91505092915050565b60008151905061117881611cfa565b92915050565b60008135905061118d81611d11565b92915050565b600082601f8301126111a457600080fd5b81356111b48482602086016110ec565b91505092915050565b6000606082840312156111cf57600080fd5b6111d9606061176d565b9050600082013567ffffffffffffffff8111156111f557600080fd5b61120184828501611193565b600083015250602082013567ffffffffffffffff81111561122157600080fd5b61122d84828501611193565b602083015250604082013567ffffffffffffffff81111561124d57600080fd5b61125984828501611193565b60408301525092915050565b60008135905061127481611d28565b92915050565b60006020828403121561128c57600080fd5b600061129a8482850161112a565b91505092915050565b6000602082840312156112b557600080fd5b60006112c384828501611169565b91505092915050565b600080604083850312156112df57600080fd5b60006112ed8582860161117e565b925050602083013567ffffffffffffffff81111561130a57600080fd5b6113168582860161113f565b9150509250929050565b60006020828403121561133257600080fd5b600061134084828501611265565b91505092915050565b61135281611a87565b82525050565b61136181611aa5565b82525050565b61137081611aaf565b82525050565b6000611381826117fa565b61138b8185611810565b935061139b818560208601611b38565b6113a481611cb8565b840191505092915050565b6113c06113bb82611b05565b611b9d565b82525050565b60006113d182611805565b6113db8185611821565b93506113eb818560208601611b38565b6113f481611cb8565b840191505092915050565b600061140c602683611821565b91507f4f776e61626c653a206e6577206f776e657220697320746865207a65726f206160008301527f64647265737300000000000000000000000000000000000000000000000000006020830152604082019050919050565b6000611472602383611821565b91507f756e61626c6520746f207472616e73666572416e6443616c6c20746f206f726160008301527f636c6500000000000000000000000000000000000000000000000000000000006020830152604082019050919050565b60006114d8602083611821565b91507f4f776e61626c653a2063616c6c6572206973206e6f7420746865206f776e65726000830152602082019050919050565b6000611518602883611821565b91507f536f75726365206d75737420626520746865206f7261636c65206f662074686560008301527f20726571756573740000000000000000000000000000000000000000000000006020830152604082019050919050565b61157a81611afb565b82525050565b61159161158c82611afb565b611bc1565b82525050565b60006115a382856113af565b6014820191506115b38284611580565b6020820191508190509392505050565b60006020820190506115d86000830184611349565b92915050565b6000610100820190506115f4600083018b611349565b611601602083018a611571565b61160e6040830189611358565b61161b6060830188611349565b6116286080830187611367565b61163560a0830186611571565b61164260c0830185611571565b81810360e08301526116548184611376565b90509998505050505050505050565b60006060820190506116786000830186611349565b6116856020830185611571565b81810360408301526116978184611376565b9050949350505050565b600060608201905081810360008301526116bb81866113c6565b905081810360208301526116cf81856113c6565b905081810360408301526116e381846113c6565b9050949350505050565b60006020820190508181036000830152611706816113ff565b9050919050565b6000602082019050818103600083015261172681611465565b9050919050565b60006020820190508181036000830152611746816114cb565b9050919050565b600060208201905081810360008301526117668161150b565b9050919050565b6000604051905081810181811067ffffffffffffffff8211171561179457611793611c89565b5b8060405250919050565b600067ffffffffffffffff8211156117b9576117b8611c89565b5b602082029050602081019050919050565b600067ffffffffffffffff8211156117e5576117e4611c89565b5b601f19601f8301169050602081019050919050565b600081519050919050565b600081519050919050565b600082825260208201905092915050565b600082825260208201905092915050565b600061183d82611afb565b915061184883611afb565b9250827fffffffffffffffffffffffffffffffffffffffffffffffffffffffffffffffff0382111561187d5761187c611bfc565b5b828201905092915050565b6000808291508390505b60018511156118d2578086048111156118ae576118ad611bfc565b5b60018516156118bd5780820291505b80810290506118cb85611cd6565b9450611892565b94509492505050565b60006118e682611afb565b91506118f183611afb565b925061191e7fffffffffffffffffffffffffffffffffffffffffffffffffffffffffffffffff8484611926565b905092915050565b60008261193657600190506119f2565b8161194457600090506119f2565b816001811461195a576002811461196457611993565b60019150506119f2565b60ff84111561197657611975611bfc565b5b8360020a91508482111561198d5761198c611bfc565b5b506119f2565b5060208310610133831016604e8410600b84101617156119c85782820a9050838111156119c3576119c2611bfc565b5b6119f2565b6119d58484846001611888565b925090508184048111156119ec576119eb611bfc565b5b81810290505b9392505050565b6000611a0482611afb565b9150611a0f83611afb565b9250817fffffffffffffffffffffffffffffffffffffffffffffffffffffffffffffffff0483118215151615611a4857611a47611bfc565b5b828202905092915050565b6000611a5e82611afb565b9150611a6983611afb565b925082821015611a7c57611a7b611bfc565b5b828203905092915050565b6000611a9282611adb565b9050919050565b60008115159050919050565b6000819050919050565b60007fffffffff0000000000000000000000000000000000000000000000000000000082169050919050565b600073ffffffffffffffffffffffffffffffffffffffff82169050919050565b6000819050919050565b6000611b1082611b17565b9050919050565b6000611b2282611adb565b9050919050565b82818337600083830152505050565b60005b83811015611b56578082015181840152602081019050611b3b565b83811115611b65576000848401525b50505050565b60006002820490506001821680611b8357607f821691505b60208210811415611b9757611b96611c5a565b5b50919050565b6000611ba882611baf565b9050919050565b6000611bba82611cc9565b9050919050565b6000819050919050565b6000611bd682611afb565b9150611be183611afb565b925082611bf157611bf0611c2b565b5b828206905092915050565b7f4e487b7100000000000000000000000000000000000000000000000000000000600052601160045260246000fd5b7f4e487b7100000000000000000000000000000000000000000000000000000000600052601260045260246000fd5b7f4e487b7100000000000000000000000000000000000000000000000000000000600052602260045260246000fd5b7f4e487b7100000000000000000000000000000000000000000000000000000000600052604160045260246000fd5b6000601f19601f8301169050919050565b60008160601b9050919050565b60008160011c9050919050565b611cec81611a87565b8114611cf757600080fd5b50565b611d0381611a99565b8114611d0e57600080fd5b50565b611d1a81611aa5565b8114611d2557600080fd5b50565b611d3181611afb565b8114611d3c57600080fd5b5056fea26469706673582212200340a242a90701c3a3ea2283921c86ea49f8e55c8ae6b2f3a88eed5eefad1bfb64736f6c6343000800003368747470733a2f2f697066732e696f2f697066732f516d526d385637354434484654424e74537a6a614734326e426e795a79724d456a34356b4a5a33786e4d68396e573f66696c656e616d653d616c6c4174686c657465732e6a736f6e",
  "linkReferences": {},
  "deployedLinkReferences": {}
}