{
  "_format": "hh-sol-artifact-1",
  "contractName": "RandomNumberConsumer",
  "sourceName": "contracts/RandomNumber.sol",
  "abi": [
    {
      "inputs": [],
      "stateMutability": "nonpayable",
      "type": "constructor"
    },
    {
      "inputs": [],
      "name": "getRandomNumber",
      "outputs": [
        {
          "internalType": "bytes32",
          "name": "requestId",
          "type": "bytes32"
        }
      ],
      "stateMutability": "nonpayable",
      "type": "function"
    },
    {
      "inputs": [],
      "name": "randomResult",
      "outputs": [
        {
          "internalType": "uint256",
          "name": "",
          "type": "uint256"
        }
      ],
      "stateMutability": "view",
      "type": "function"
    },
    {
      "inputs": [
        {
          "internalType": "bytes32",
          "name": "requestId",
          "type": "bytes32"
        },
        {
          "internalType": "uint256",
          "name": "randomness",
          "type": "uint256"
        }
      ],
      "name": "rawFulfillRandomness",
      "outputs": [],
      "stateMutability": "nonpayable",
      "type": "function"
    }
  ],
  "bytecode": "0x60c060405234801561001057600080fd5b5073b3dccb4cf7a26f6cf6b120cf5a73875b7bbc655b7301be23585060835e02b77ef475b0cc51aa1e07098173ffffffffffffffffffffffffffffffffffffffff1660a08173ffffffffffffffffffffffffffffffffffffffff1660601b815250508073ffffffffffffffffffffffffffffffffffffffff1660808173ffffffffffffffffffffffffffffffffffffffff1660601b8152505050507f2ed0feb3e7fd2022120aa84fab1945545a9f2ffc9076fd6156fa96eaff4c131160001b60018190555067016345785d8a000060028190555060805160601c60a05160601c61097761011c6000396000818160a6015261028d015260008181610147015261025101526109776000f3fe608060405234801561001057600080fd5b50600436106100415760003560e01c806342619f661461004657806394985ddd14610064578063dbdff2c114610080575b600080fd5b61004e61009e565b60405161005b9190610785565b60405180910390f35b61007e60048036038101906100799190610498565b6100a4565b005b610088610140565b60405161009591906106bc565b60405180910390f35b60035481565b7f000000000000000000000000000000000000000000000000000000000000000073ffffffffffffffffffffffffffffffffffffffff163373ffffffffffffffffffffffffffffffffffffffff1614610132576040517f08c379a000000000000000000000000000000000000000000000000000000000815260040161012990610765565b60405180910390fd5b61013c8282610242565b5050565b60006002547f000000000000000000000000000000000000000000000000000000000000000073ffffffffffffffffffffffffffffffffffffffff166370a08231306040518263ffffffff1660e01b815260040161019e9190610663565b60206040518083038186803b1580156101b657600080fd5b505afa1580156101ca573d6000803e3d6000fd5b505050506040513d601f19601f820116820180604052508101906101ee91906104d4565b101561022f576040517f08c379a000000000000000000000000000000000000000000000000000000000815260040161022690610745565b60405180910390fd5b61023d60015460025461024d565b905090565b806003819055505050565b60007f000000000000000000000000000000000000000000000000000000000000000073ffffffffffffffffffffffffffffffffffffffff16634000aea07f0000000000000000000000000000000000000000000000000000000000000000848660006040516020016102c19291906106d7565b6040516020818303038152906040526040518463ffffffff1660e01b81526004016102ee9392919061067e565b602060405180830381600087803b15801561030857600080fd5b505af115801561031c573d6000803e3d6000fd5b505050506040513d601f19601f82011682018060405250810190610340919061046f565b50600061036284600030600080898152602001908152602001600020546103ac565b905060016000808681526020019081526020016000205461038391906107cd565b600080868152602001908152602001600020819055506103a384826103e8565b91505092915050565b6000848484846040516020016103c59493929190610700565b6040516020818303038152906040528051906020012060001c9050949350505050565b600082826040516020016103fd929190610637565b60405160208183030381529060405280519060200120905092915050565b60008151905061042a816108fc565b92915050565b60008135905061043f81610913565b92915050565b6000813590506104548161092a565b92915050565b6000815190506104698161092a565b92915050565b60006020828403121561048157600080fd5b600061048f8482850161041b565b91505092915050565b600080604083850312156104ab57600080fd5b60006104b985828601610430565b92505060206104ca85828601610445565b9150509250929050565b6000602082840312156104e657600080fd5b60006104f48482850161045a565b91505092915050565b61050681610823565b82525050565b61051581610841565b82525050565b61052c61052782610841565b6108a8565b82525050565b600061053d826107a0565b61054781856107ab565b9350610557818560208601610875565b610560816108eb565b840191505092915050565b6000610578602b836107bc565b91507f4e6f7420656e6f756768204c494e4b202d2066696c6c20636f6e74726163742060008301527f77697468206661756365740000000000000000000000000000000000000000006020830152604082019050919050565b60006105de601f836107bc565b91507f4f6e6c7920565246436f6f7264696e61746f722063616e2066756c66696c6c006000830152602082019050919050565b61061a8161086b565b82525050565b61063161062c8261086b565b6108b2565b82525050565b6000610643828561051b565b6020820191506106538284610620565b6020820191508190509392505050565b600060208201905061067860008301846104fd565b92915050565b600060608201905061069360008301866104fd565b6106a06020830185610611565b81810360408301526106b28184610532565b9050949350505050565b60006020820190506106d1600083018461050c565b92915050565b60006040820190506106ec600083018561050c565b6106f96020830184610611565b9392505050565b6000608082019050610715600083018761050c565b6107226020830186610611565b61072f60408301856104fd565b61073c6060830184610611565b95945050505050565b6000602082019050818103600083015261075e8161056b565b9050919050565b6000602082019050818103600083015261077e816105d1565b9050919050565b600060208201905061079a6000830184610611565b92915050565b600081519050919050565b600082825260208201905092915050565b600082825260208201905092915050565b60006107d88261086b565b91506107e38361086b565b9250827fffffffffffffffffffffffffffffffffffffffffffffffffffffffffffffffff03821115610818576108176108bc565b5b828201905092915050565b600061082e8261084b565b9050919050565b60008115159050919050565b6000819050919050565b600073ffffffffffffffffffffffffffffffffffffffff82169050919050565b6000819050919050565b60005b83811015610893578082015181840152602081019050610878565b838111156108a2576000848401525b50505050565b6000819050919050565b6000819050919050565b7f4e487b7100000000000000000000000000000000000000000000000000000000600052601160045260246000fd5b6000601f19601f8301169050919050565b61090581610835565b811461091057600080fd5b50565b61091c81610841565b811461092757600080fd5b50565b6109338161086b565b811461093e57600080fd5b5056fea2646970667358221220a38f843623bc423ad200b04561faf99f3eb81a7844928522c1e7802fc40fb91a64736f6c63430008000033",
  "linkReferences": {},
  "deployedLinkReferences": {}
}