{
  "_format": "hh-sol-artifact-1",
  "contractName": "LeagueMaker",
  "sourceName": "contracts/LeagueMaker.sol",
  "abi": [
    {
      "inputs": [
        {
          "internalType": "address",
          "name": "_logic",
          "type": "address"
        }
      ],
      "stateMutability": "nonpayable",
      "type": "constructor"
    },
    {
      "anonymous": false,
      "inputs": [
        {
          "indexed": false,
          "internalType": "string",
          "name": "name",
          "type": "string"
        },
        {
          "indexed": false,
          "internalType": "address",
          "name": "proxyAddress",
          "type": "address"
        },
        {
          "indexed": false,
          "internalType": "address",
          "name": "proxyAdminAddress",
          "type": "address"
        },
        {
          "indexed": false,
          "internalType": "address[]",
          "name": "initialWhitelistAddresses",
          "type": "address[]"
        }
      ],
      "name": "LeagueCreated",
      "type": "event"
    },
    {
      "anonymous": false,
      "inputs": [
        {
          "indexed": true,
          "internalType": "address",
          "name": "previousOwner",
          "type": "address"
        },
        {
          "indexed": true,
          "internalType": "address",
          "name": "newOwner",
          "type": "address"
        }
      ],
      "name": "OwnershipTransferred",
      "type": "event"
    },
    {
      "anonymous": false,
      "inputs": [
        {
          "indexed": false,
          "internalType": "bool",
          "name": "success",
          "type": "bool"
        },
        {
          "indexed": false,
          "internalType": "bytes",
          "name": "data",
          "type": "bytes"
        }
      ],
      "name": "Response",
      "type": "event"
    },
    {
      "inputs": [
        {
          "internalType": "string",
          "name": "_name",
          "type": "string"
        },
        {
          "internalType": "uint256",
          "name": "_stakeAmount",
          "type": "uint256"
        },
        {
          "internalType": "bool",
          "name": "_isPublic",
          "type": "bool"
        },
        {
          "internalType": "address",
          "name": "_admin",
          "type": "address"
        },
        {
          "internalType": "address",
          "name": "_testUSDCAddress",
          "type": "address"
        },
        {
          "internalType": "address",
          "name": "_athletesContractAddress",
          "type": "address"
        },
        {
          "internalType": "address",
          "name": "_gameItemsContractAddress",
          "type": "address"
        },
        {
          "internalType": "address[]",
          "name": "_whitelistUsers",
          "type": "address[]"
        }
      ],
      "name": "createLeague",
      "outputs": [
        {
          "internalType": "address",
          "name": "",
          "type": "address"
        }
      ],
      "stateMutability": "nonpayable",
      "type": "function"
    },
    {
      "inputs": [],
      "name": "currentWeek",
      "outputs": [
        {
          "internalType": "uint256",
          "name": "",
          "type": "uint256"
        }
      ],
      "stateMutability": "view",
      "type": "function"
    },
    {
      "inputs": [],
      "name": "getLeagueAddresses",
      "outputs": [
        {
          "internalType": "address[]",
          "name": "",
          "type": "address[]"
        }
      ],
      "stateMutability": "view",
      "type": "function"
    },
    {
      "inputs": [
        {
          "internalType": "address",
          "name": "",
          "type": "address"
        }
      ],
      "name": "isProxyMap",
      "outputs": [
        {
          "internalType": "bool",
          "name": "",
          "type": "bool"
        }
      ],
      "stateMutability": "view",
      "type": "function"
    },
    {
      "inputs": [
        {
          "internalType": "uint256",
          "name": "",
          "type": "uint256"
        }
      ],
      "name": "leagueAddresses",
      "outputs": [
        {
          "internalType": "address",
          "name": "",
          "type": "address"
        }
      ],
      "stateMutability": "view",
      "type": "function"
    },
    {
      "inputs": [],
      "name": "owner",
      "outputs": [
        {
          "internalType": "address",
          "name": "",
          "type": "address"
        }
      ],
      "stateMutability": "view",
      "type": "function"
    },
    {
      "inputs": [],
      "name": "renounceOwnership",
      "outputs": [],
      "stateMutability": "nonpayable",
      "type": "function"
    },
    {
      "inputs": [
        {
          "internalType": "address",
          "name": "logic",
          "type": "address"
        }
      ],
      "name": "setBeacon",
      "outputs": [
        {
          "internalType": "address",
          "name": "",
          "type": "address"
        }
      ],
      "stateMutability": "nonpayable",
      "type": "function"
    },
    {
      "inputs": [
        {
          "internalType": "address",
          "name": "newOwner",
          "type": "address"
        }
      ],
      "name": "transferOwnership",
      "outputs": [],
      "stateMutability": "nonpayable",
      "type": "function"
    },
    {
      "inputs": [
        {
          "internalType": "address",
          "name": "user",
          "type": "address"
        }
      ],
      "name": "updateUserToLeagueMapping",
      "outputs": [],
      "stateMutability": "nonpayable",
      "type": "function"
    },
    {
      "inputs": [
        {
          "internalType": "address",
          "name": "",
          "type": "address"
        },
        {
          "internalType": "uint256",
          "name": "",
          "type": "uint256"
        }
      ],
      "name": "userToLeagueMap",
      "outputs": [
        {
          "internalType": "address",
          "name": "",
          "type": "address"
        }
      ],
      "stateMutability": "view",
      "type": "function"
    }
  ],
  "bytecode": "0x60c0604052600880556000600955732791bca1f2de4661ed88a30c99a7a9449aa84174600a60006101000a81548173ffffffffffffffffffffffffffffffffffffffff021916908373ffffffffffffffffffffffffffffffffffffffff16021790555073eb8f08a975ab53e34d8a0330e0d34de942c95926600b60006101000a81548173ffffffffffffffffffffffffffffffffffffffff021916908373ffffffffffffffffffffffffffffffffffffffff160217905550348015620000c457600080fd5b5060405162005a9d38038062005a9d8339818101604052810190620000ea9190620002a8565b6200010a620000fe620001b760201b60201c565b620001bf60201b60201c565b80604051620001199062000283565b620001259190620002eb565b604051809103906000f08015801562000142573d6000803e3d6000fd5b5073ffffffffffffffffffffffffffffffffffffffff1660808173ffffffffffffffffffffffffffffffffffffffff1660601b815250503373ffffffffffffffffffffffffffffffffffffffff1660a08173ffffffffffffffffffffffffffffffffffffffff1660601b81525050506200035b565b600033905090565b60008060009054906101000a900473ffffffffffffffffffffffffffffffffffffffff169050816000806101000a81548173ffffffffffffffffffffffffffffffffffffffff021916908373ffffffffffffffffffffffffffffffffffffffff1602179055508173ffffffffffffffffffffffffffffffffffffffff168173ffffffffffffffffffffffffffffffffffffffff167f8be0079c531659141344cd1fd0a4f28419497f9722a3daafe3b4186f6b6457e060405160405180910390a35050565b610a91806200500c83390190565b600081519050620002a28162000341565b92915050565b600060208284031215620002c157620002c06200033c565b5b6000620002d18482850162000291565b91505092915050565b620002e58162000308565b82525050565b6000602082019050620003026000830184620002da565b92915050565b600062000315826200031c565b9050919050565b600073ffffffffffffffffffffffffffffffffffffffff82169050919050565b600080fd5b6200034c8162000308565b81146200035857600080fd5b50565b60805160601c60a05160601c614c856200038760003960006102fb015260006103fb0152614c856000f3fe60806040523480156200001157600080fd5b5060043610620000b85760003560e01c80638da5cb5b116200007b5780638da5cb5b14620001775780639c77955b1462000199578063b37cc9f114620001bb578063c3530ff414620001f1578063d42afb561462000227578063f2fde38b146200025d57620000b8565b806306575c8914620000bd5780630b792e4814620000df57806329ffe5e91462000115578063715018a6146200014b578063771bd4ce1462000157575b600080fd5b620000c76200027d565b604051620000d69190620012d7565b60405180910390f35b620000fd6004803603810190620000f7919062000d22565b62000283565b6040516200010c9190620010a5565b60405180910390f35b6200013360048036038101906200012d919062000e32565b62000607565b604051620001429190620010a5565b60405180910390f35b6200015562000647565b005b6200017560048036038101906200016f919062000ca9565b620006d8565b005b620001816200080a565b604051620001909190620010a5565b60405180910390f35b620001a362000833565b604051620001b29190620010f6565b60405180910390f35b620001d96004803603810190620001d3919062000ca9565b620008c3565b604051620001e891906200111a565b60405180910390f35b6200020f600480360381019062000209919062000cdb565b620008e3565b6040516200021e9190620010a5565b60405180910390f35b6200024560048036038101906200023f919062000ca9565b62000932565b604051620002549190620010a5565b60405180910390f35b6200027b600480360381019062000275919062000ca9565b620009ba565b005b60095481565b60006064891115620002cc576040517f08c379a0000000000000000000000000000000000000000000000000000000008152600401620002c390620012b5565b60405180910390fd5b60008b8b8b8b898c600b60009054906101000a900473ffffffffffffffffffffffffffffffffffffffff168d8c7f000000000000000000000000000000000000000000000000000000000000000030604051602401620003379b9a9998979695949392919062001196565b6040516020818303038152906040527f3c3ae13f000000000000000000000000000000000000000000000000000000007bffffffffffffffffffffffffffffffffffffffffffffffffffffffff19166020820180517bffffffffffffffffffffffffffffffffffffffffffffffffffffffff8381831617835250505050905086600160006101000a81548173ffffffffffffffffffffffffffffffffffffffff021916908373ffffffffffffffffffffffffffffffffffffffff16021790555060007f000000000000000000000000000000000000000000000000000000000000000082604051620004299062000b8a565b62000436929190620010c2565b604051809103906000f08015801562000453573d6000803e3d6000fd5b5090506004819080600181540180825580915050600190039060005260206000200160009091909190916101000a81548173ffffffffffffffffffffffffffffffffffffffff021916908373ffffffffffffffffffffffffffffffffffffffff160217905550600560003373ffffffffffffffffffffffffffffffffffffffff1673ffffffffffffffffffffffffffffffffffffffff168152602001908152602001600020819080600181540180825580915050600190039060005260206000200160009091909190916101000a81548173ffffffffffffffffffffffffffffffffffffffff021916908373ffffffffffffffffffffffffffffffffffffffff1602179055506001600660008373ffffffffffffffffffffffffffffffffffffffff1673ffffffffffffffffffffffffffffffffffffffff16815260200190815260200160002060006101000a81548160ff0219169083151502179055507f55f20cc44cd266564ce419a146a1cafd9b19bb2e68a296cb675fa17bed72724c8d8d838c8989604051620005ec9695949392919062001137565b60405180910390a180925050509a9950505050505050505050565b600481815481106200061857600080fd5b906000526020600020016000915054906101000a900473ffffffffffffffffffffffffffffffffffffffff1681565b6200065162000abe565b73ffffffffffffffffffffffffffffffffffffffff16620006716200080a565b73ffffffffffffffffffffffffffffffffffffffff1614620006ca576040517f08c379a0000000000000000000000000000000000000000000000000000000008152600401620006c19062001293565b60405180910390fd5b620006d6600062000ac6565b565b600660003373ffffffffffffffffffffffffffffffffffffffff1673ffffffffffffffffffffffffffffffffffffffff16815260200190815260200160002060009054906101000a900460ff1662000767576040517f08c379a00000000000000000000000000000000000000000000000000000000081526004016200075e9062001271565b60405180910390fd5b600560008273ffffffffffffffffffffffffffffffffffffffff1673ffffffffffffffffffffffffffffffffffffffff168152602001908152602001600020339080600181540180825580915050600190039060005260206000200160009091909190916101000a81548173ffffffffffffffffffffffffffffffffffffffff021916908373ffffffffffffffffffffffffffffffffffffffff16021790555050565b60008060009054906101000a900473ffffffffffffffffffffffffffffffffffffffff16905090565b60606004805480602002602001604051908101604052809291908181526020018280548015620008b957602002820191906000526020600020905b8160009054906101000a900473ffffffffffffffffffffffffffffffffffffffff1673ffffffffffffffffffffffffffffffffffffffff16815260200190600101908083116200086e575b5050505050905090565b60066020528060005260406000206000915054906101000a900460ff1681565b600560205281600052604060002081815481106200090057600080fd5b906000526020600020016000915091509054906101000a900473ffffffffffffffffffffffffffffffffffffffff1681565b60008082604051620009449062000b98565b620009509190620010a5565b604051809103906000f0801580156200096d573d6000803e3d6000fd5b50905080600360006101000a81548173ffffffffffffffffffffffffffffffffffffffff021916908373ffffffffffffffffffffffffffffffffffffffff16021790555080915050919050565b620009c462000abe565b73ffffffffffffffffffffffffffffffffffffffff16620009e46200080a565b73ffffffffffffffffffffffffffffffffffffffff161462000a3d576040517f08c379a000000000000000000000000000000000000000000000000000000000815260040162000a349062001293565b60405180910390fd5b600073ffffffffffffffffffffffffffffffffffffffff168173ffffffffffffffffffffffffffffffffffffffff16141562000ab0576040517f08c379a000000000000000000000000000000000000000000000000000000000815260040162000aa7906200124f565b60405180910390fd5b62000abb8162000ac6565b50565b600033905090565b60008060009054906101000a900473ffffffffffffffffffffffffffffffffffffffff169050816000806101000a81548173ffffffffffffffffffffffffffffffffffffffff021916908373ffffffffffffffffffffffffffffffffffffffff1602179055508173ffffffffffffffffffffffffffffffffffffffff168173ffffffffffffffffffffffffffffffffffffffff167f8be0079c531659141344cd1fd0a4f28419497f9722a3daafe3b4186f6b6457e060405160405180910390a35050565b612c1780620015a883390190565b610a9180620041bf83390190565b60008135905062000bb78162001559565b92915050565b60008083601f84011262000bd65762000bd56200141e565b5b8235905067ffffffffffffffff81111562000bf65762000bf562001419565b5b60208301915083602082028301111562000c155762000c1462001423565b5b9250929050565b60008135905062000c2d8162001573565b92915050565b60008083601f84011262000c4c5762000c4b6200141e565b5b8235905067ffffffffffffffff81111562000c6c5762000c6b62001419565b5b60208301915083600182028301111562000c8b5762000c8a62001423565b5b9250929050565b60008135905062000ca3816200158d565b92915050565b60006020828403121562000cc25762000cc16200142d565b5b600062000cd28482850162000ba6565b91505092915050565b6000806040838503121562000cf55762000cf46200142d565b5b600062000d058582860162000ba6565b925050602062000d188582860162000c92565b9150509250929050565b6000806000806000806000806000806101008b8d03121562000d495762000d486200142d565b5b60008b013567ffffffffffffffff81111562000d6a5762000d6962001428565b5b62000d788d828e0162000c33565b9a509a5050602062000d8d8d828e0162000c92565b985050604062000da08d828e0162000c1c565b975050606062000db38d828e0162000ba6565b965050608062000dc68d828e0162000ba6565b95505060a062000dd98d828e0162000ba6565b94505060c062000dec8d828e0162000ba6565b93505060e08b013567ffffffffffffffff81111562000e105762000e0f62001428565b5b62000e1e8d828e0162000bbd565b92509250509295989b9194979a5092959850565b60006020828403121562000e4b5762000e4a6200142d565b5b600062000e5b8482850162000c92565b91505092915050565b600062000e72838362000e7e565b60208301905092915050565b62000e89816200138a565b82525050565b62000e9a816200138a565b82525050565b600062000eae83856200133e565b935062000ebb82620012f4565b8060005b8581101562000efc5762000ed4828462001371565b62000ee0888262000e64565b975062000eed8362001324565b92505060018101905062000ebf565b5085925050509392505050565b600062000f16826200130e565b62000f2281856200133e565b935062000f2f83620012fe565b8060005b8381101562000f6657815162000f4a888262000e64565b975062000f578362001331565b92505060018101905062000f33565b5085935050505092915050565b62000f7e816200139e565b82525050565b600062000f918262001319565b62000f9d81856200134f565b935062000faf818560208601620013e3565b62000fba8162001432565b840191505092915050565b600062000fd3838562001360565b935062000fe2838584620013d4565b62000fed8362001432565b840190509392505050565b60006200100760268362001360565b9150620010148262001443565b604082019050919050565b60006200102e60248362001360565b91506200103b8262001492565b604082019050919050565b60006200105560208362001360565b91506200106282620014e1565b602082019050919050565b60006200107c60258362001360565b915062001089826200150a565b604082019050919050565b6200109f81620013ca565b82525050565b6000602082019050620010bc600083018462000e8f565b92915050565b6000604082019050620010d9600083018562000e8f565b8181036020830152620010ed818462000f84565b90509392505050565b6000602082019050818103600083015262001112818462000f09565b905092915050565b600060208201905062001131600083018462000f73565b92915050565b600060808201905081810360008301526200115481888a62000fc5565b905062001165602083018762000e8f565b62001174604083018662000e8f565b81810360608301526200118981848662000ea0565b9050979650505050505050565b6000610140820190508181036000830152620011b4818d8f62000fc5565b9050620011c5602083018c62001094565b620011d4604083018b62000f73565b620011e3606083018a62000e8f565b620011f2608083018962000e8f565b6200120160a083018862000e8f565b6200121060c083018762000e8f565b6200121f60e083018662000e8f565b6200122f61010083018562000e8f565b6200123f61012083018462000e8f565b9c9b505050505050505050505050565b600060208201905081810360008301526200126a8162000ff8565b9050919050565b600060208201905081810360008301526200128c816200101f565b9050919050565b60006020820190508181036000830152620012ae8162001046565b9050919050565b60006020820190508181036000830152620012d0816200106d565b9050919050565b6000602082019050620012ee600083018462001094565b92915050565b6000819050919050565b6000819050602082019050919050565b600081519050919050565b600081519050919050565b6000602082019050919050565b6000602082019050919050565b600082825260208201905092915050565b600082825260208201905092915050565b600082825260208201905092915050565b600062001382602084018462000ba6565b905092915050565b60006200139782620013aa565b9050919050565b60008115159050919050565b600073ffffffffffffffffffffffffffffffffffffffff82169050919050565b6000819050919050565b82818337600083830152505050565b60005b8381101562001403578082015181840152602081019050620013e6565b8381111562001413576000848401525b50505050565b600080fd5b600080fd5b600080fd5b600080fd5b600080fd5b6000601f19601f8301169050919050565b7f4f776e61626c653a206e6577206f776e657220697320746865207a65726f206160008201527f6464726573730000000000000000000000000000000000000000000000000000602082015250565b7f43616c6c6572206973206e6f7420612076616c69642070726f7879206164647260008201527f6573732e00000000000000000000000000000000000000000000000000000000602082015250565b7f4f776e61626c653a2063616c6c6572206973206e6f7420746865206f776e6572600082015250565b7f4c6561677565207374616b6520616d6f756e74206d7573742062652062656c6f60008201527f7720313030000000000000000000000000000000000000000000000000000000602082015250565b62001564816200138a565b81146200157057600080fd5b50565b6200157e816200139e565b81146200158a57600080fd5b50565b6200159881620013ca565b8114620015a457600080fd5b5056fe608060405260405162002c1738038062002c178339818101604052810190620000299190620006bb565b620000496200003d620000cf60201b60201c565b620000d760201b60201c565b60017fa3f0ad74e5423aebfd80d3ef4346578335a9a72aeaee59ff6cb3582b35133d5160001c6200007b919062000942565b60001b7fa3f0ad74e5423aebfd80d3ef4346578335a9a72aeaee59ff6cb3582b35133d5060001b14620000b357620000b262000a27565b5b620000c7828260006200019b60201b60201c565b505062000be0565b600033905090565b60008060009054906101000a900473ffffffffffffffffffffffffffffffffffffffff169050816000806101000a81548173ffffffffffffffffffffffffffffffffffffffff021916908373ffffffffffffffffffffffffffffffffffffffff1602179055508173ffffffffffffffffffffffffffffffffffffffff168173ffffffffffffffffffffffffffffffffffffffff167f8be0079c531659141344cd1fd0a4f28419497f9722a3daafe3b4186f6b6457e060405160405180910390a35050565b620001ac83620002a260201b60201c565b8273ffffffffffffffffffffffffffffffffffffffff167f1cf3b03a6cf19fa2baba4df148e9dcabedea7f8a5c07840e207e5c089be95d3e60405160405180910390a2600082511180620001fd5750805b156200029d576200029b8373ffffffffffffffffffffffffffffffffffffffff16635c60da1b6040518163ffffffff1660e01b815260040160206040518083038186803b1580156200024e57600080fd5b505afa15801562000263573d6000803e3d6000fd5b505050506040513d601f19601f8201168201806040525081019062000289919062000689565b836200045160201b62000cdf1760201c565b505b505050565b620002b8816200048760201b62000d0c1760201c565b620002fa576040517f08c379a0000000000000000000000000000000000000000000000000000000008152600401620002f1906200084b565b60405180910390fd5b620003918173ffffffffffffffffffffffffffffffffffffffff16635c60da1b6040518163ffffffff1660e01b815260040160206040518083038186803b1580156200034557600080fd5b505afa1580156200035a573d6000803e3d6000fd5b505050506040513d601f19601f8201168201806040525081019062000380919062000689565b6200048760201b62000d0c1760201c565b620003d3576040517f08c379a0000000000000000000000000000000000000000000000000000000008152600401620003ca906200088f565b60405180910390fd5b806200040d7fa3f0ad74e5423aebfd80d3ef4346578335a9a72aeaee59ff6cb3582b35133d5060001b6200049a60201b62000d1f1760201c565b60000160006101000a81548173ffffffffffffffffffffffffffffffffffffffff021916908373ffffffffffffffffffffffffffffffffffffffff16021790555050565b60606200047f838360405180606001604052806027815260200162002bf060279139620004a460201b60201c565b905092915050565b600080823b905060008111915050919050565b6000819050919050565b6060620004b7846200048760201b60201c565b620004f9576040517f08c379a0000000000000000000000000000000000000000000000000000000008152600401620004f0906200086d565b60405180910390fd5b6000808573ffffffffffffffffffffffffffffffffffffffff16856040516200052391906200080e565b600060405180830381855af49150503d806000811462000560576040519150601f19603f3d011682016040523d82523d6000602084013e62000565565b606091505b50915091506200057d8282866200058860201b60201c565b925050509392505050565b606083156200059a57829050620005ed565b600083511115620005ae5782518084602001fd5b816040517f08c379a0000000000000000000000000000000000000000000000000000000008152600401620005e4919062000827565b60405180910390fd5b9392505050565b60006200060b6200060584620008da565b620008b1565b9050828152602081018484840111156200062a576200062962000ab9565b5b62000637848285620009bb565b509392505050565b600081519050620006508162000bc6565b92915050565b600082601f8301126200066e576200066d62000ab4565b5b815162000680848260208601620005f4565b91505092915050565b600060208284031215620006a257620006a162000ac3565b5b6000620006b2848285016200063f565b91505092915050565b60008060408385031215620006d557620006d462000ac3565b5b6000620006e5858286016200063f565b925050602083015167ffffffffffffffff81111562000709576200070862000abe565b5b620007178582860162000656565b9150509250929050565b60006200072e8262000910565b6200073a818562000926565b93506200074c818560208601620009bb565b80840191505092915050565b600062000765826200091b565b62000771818562000931565b935062000783818560208601620009bb565b6200078e8162000ac8565b840191505092915050565b6000620007a860258362000931565b9150620007b58262000ad9565b604082019050919050565b6000620007cf60268362000931565b9150620007dc8262000b28565b604082019050919050565b6000620007f660308362000931565b9150620008038262000b77565b604082019050919050565b60006200081c828462000721565b915081905092915050565b6000602082019050818103600083015262000843818462000758565b905092915050565b60006020820190508181036000830152620008668162000799565b9050919050565b600060208201905081810360008301526200088881620007c0565b9050919050565b60006020820190508181036000830152620008aa81620007e7565b9050919050565b6000620008bd620008d0565b9050620008cb8282620009f1565b919050565b6000604051905090565b600067ffffffffffffffff821115620008f857620008f762000a85565b5b620009038262000ac8565b9050602081019050919050565b600081519050919050565b600081519050919050565b600081905092915050565b600082825260208201905092915050565b60006200094f82620009b1565b91506200095c83620009b1565b92508282101562000972576200097162000a56565b5b828203905092915050565b60006200098a8262000991565b9050919050565b600073ffffffffffffffffffffffffffffffffffffffff82169050919050565b6000819050919050565b60005b83811015620009db578082015181840152602081019050620009be565b83811115620009eb576000848401525b50505050565b620009fc8262000ac8565b810181811067ffffffffffffffff8211171562000a1e5762000a1d62000a85565b5b80604052505050565b7f4e487b7100000000000000000000000000000000000000000000000000000000600052600160045260246000fd5b7f4e487b7100000000000000000000000000000000000000000000000000000000600052601160045260246000fd5b7f4e487b7100000000000000000000000000000000000000000000000000000000600052604160045260246000fd5b600080fd5b600080fd5b600080fd5b600080fd5b6000601f19601f8301169050919050565b7f455243313936373a206e657720626561636f6e206973206e6f74206120636f6e60008201527f7472616374000000000000000000000000000000000000000000000000000000602082015250565b7f416464726573733a2064656c65676174652063616c6c20746f206e6f6e2d636f60008201527f6e74726163740000000000000000000000000000000000000000000000000000602082015250565b7f455243313936373a20626561636f6e20696d706c656d656e746174696f6e206960008201527f73206e6f74206120636f6e747261637400000000000000000000000000000000602082015250565b62000bd1816200097d565b811462000bdd57600080fd5b50565b6120008062000bf06000396000f3fe6080604052600436106101a05760003560e01c8063715018a6116100ec578063a217fddf1161008a578063d547741f11610064578063d547741f1461060e578063db2a672414610637578063f2fde38b14610674578063f851a4401461069d576101af565b8063a217fddf1461057b578063a949a9d7146105a6578063cff56003146105d1576101af565b806384900b04116100c657806384900b04146104ab5780638da5cb5b146104d65780639122ce6d1461050157806391d148541461053e576101af565b8063715018a61461043e5780637eed33f114610455578063841abf6e14610480576101af565b8063267175db1161015957806336568abe1161013357806336568abe1461039457806352e6e5f3146103bd57806360c7dc47146103e85780636cc15ad514610413576101af565b8063267175db146102f15780632ae6b1351461032e5780632f2ff15d1461036b576101af565b806301ffc9a7146101b9578063022e35e6146101f65780630635dbcb146102215780630c6f79591461024c5780631dd7f8ca14610289578063248a9ca3146102b4576101af565b366101af576101ad6106c8565b005b6101b76106c8565b005b3480156101c557600080fd5b506101e060048036038101906101db91906116a9565b6106e2565b6040516101ed9190611959565b60405180910390f35b34801561020257600080fd5b5061020b61075c565b604051610218919061198f565b60405180910390f35b34801561022d57600080fd5b50610236610782565b6040516102439190611959565b60405180910390f35b34801561025857600080fd5b50610273600480360381019061026e91906115fc565b610795565b6040516102809190611a87565b60405180910390f35b34801561029557600080fd5b5061029e6107bd565b6040516102ab919061193e565b60405180910390f35b3480156102c057600080fd5b506102db60048036038101906102d6919061163c565b6107e3565b6040516102e89190611974565b60405180910390f35b3480156102fd57600080fd5b50610318600480360381019061031391906116d6565b610803565b604051610325919061193e565b60405180910390f35b34801561033a57600080fd5b50610355600480360381019061035091906115a2565b610842565b6040516103629190611a87565b60405180910390f35b34801561037757600080fd5b50610392600480360381019061038d9190611669565b61085a565b005b3480156103a057600080fd5b506103bb60048036038101906103b69190611669565b610883565b005b3480156103c957600080fd5b506103d2610906565b6040516103df9190611a87565b60405180910390f35b3480156103f457600080fd5b506103fd61090c565b60405161040a9190611a87565b60405180910390f35b34801561041f57600080fd5b50610428610912565b6040516104359190611959565b60405180910390f35b34801561044a57600080fd5b50610453610925565b005b34801561046157600080fd5b5061046a6109ad565b6040516104779190611a87565b60405180910390f35b34801561048c57600080fd5b506104956109b3565b6040516104a291906119c5565b60405180910390f35b3480156104b757600080fd5b506104c0610a41565b6040516104cd91906119aa565b60405180910390f35b3480156104e257600080fd5b506104eb610a67565b6040516104f8919061193e565b60405180910390f35b34801561050d57600080fd5b50610528600480360381019061052391906115a2565b610a90565b6040516105359190611959565b60405180910390f35b34801561054a57600080fd5b5061056560048036038101906105609190611669565b610ab0565b6040516105729190611959565b60405180910390f35b34801561058757600080fd5b50610590610b1b565b60405161059d9190611974565b60405180910390f35b3480156105b257600080fd5b506105bb610b22565b6040516105c8919061198f565b60405180910390f35b3480156105dd57600080fd5b506105f860048036038101906105f391906115fc565b610b48565b6040516106059190611a87565b60405180910390f35b34801561061a57600080fd5b5061063560048036038101906106309190611669565b610b70565b005b34801561064357600080fd5b5061065e600480360381019061065991906115fc565b610b99565b60405161066b9190611a87565b60405180910390f35b34801561068057600080fd5b5061069b600480360381019061069691906115a2565b610bc1565b005b3480156106a957600080fd5b506106b2610cb9565b6040516106bf919061193e565b60405180910390f35b6106d0610d29565b6106e06106db610d2b565b610db7565b565b60007f7965db0b000000000000000000000000000000000000000000000000000000007bffffffffffffffffffffffffffffffffffffffffffffffffffffffff1916827bffffffffffffffffffffffffffffffffffffffffffffffffffffffff19161480610755575061075482610ddd565b5b9050919050565b601460009054906101000a900473ffffffffffffffffffffffffffffffffffffffff1681565b600760159054906101000a900460ff1681565b600960205281600052604060002081600881106107b157600080fd5b01600091509150505481565b600760009054906101000a900473ffffffffffffffffffffffffffffffffffffffff1681565b600060016000838152602001908152602001600020600101549050919050565b600e818154811061081357600080fd5b906000526020600020016000915054906101000a900473ffffffffffffffffffffffffffffffffffffffff1681565b600c6020528060005260406000206000915090505481565b610863826107e3565b6108748161086f610e47565b610e4f565b61087e8383610eec565b505050565b61088b610e47565b73ffffffffffffffffffffffffffffffffffffffff168173ffffffffffffffffffffffffffffffffffffffff16146108f8576040517f08c379a00000000000000000000000000000000000000000000000000000000081526004016108ef90611a67565b60405180910390fd5b6109028282610fcc565b5050565b60055481565b60045481565b600760149054906101000a900460ff1681565b61092d610e47565b73ffffffffffffffffffffffffffffffffffffffff1661094b610a67565b73ffffffffffffffffffffffffffffffffffffffff16146109a1576040517f08c379a000000000000000000000000000000000000000000000000000000000815260040161099890611a27565b60405180910390fd5b6109ab60006110ae565b565b60035481565b600280546109c090611cb2565b80601f01602080910402602001604051908101604052809291908181526020018280546109ec90611cb2565b8015610a395780601f10610a0e57610100808354040283529160200191610a39565b820191906000526020600020905b815481529060010190602001808311610a1c57829003601f168201915b505050505081565b601260009054906101000a900473ffffffffffffffffffffffffffffffffffffffff1681565b60008060009054906101000a900473ffffffffffffffffffffffffffffffffffffffff16905090565b600d6020528060005260406000206000915054906101000a900460ff1681565b60006001600084815260200190815260200160002060000160008373ffffffffffffffffffffffffffffffffffffffff1673ffffffffffffffffffffffffffffffffffffffff16815260200190815260200160002060009054906101000a900460ff16905092915050565b6000801b81565b601560009054906101000a900473ffffffffffffffffffffffffffffffffffffffff1681565b600a6020528160005260406000208160058110610b6457600080fd5b01600091509150505481565b610b79826107e3565b610b8a81610b85610e47565b610e4f565b610b948383610fcc565b505050565b600b6020528160005260406000208160088110610bb557600080fd5b01600091509150505481565b610bc9610e47565b73ffffffffffffffffffffffffffffffffffffffff16610be7610a67565b73ffffffffffffffffffffffffffffffffffffffff1614610c3d576040517f08c379a0000000000000000000000000000000000000000000000000000000008152600401610c3490611a27565b60405180910390fd5b600073ffffffffffffffffffffffffffffffffffffffff168173ffffffffffffffffffffffffffffffffffffffff161415610cad576040517f08c379a0000000000000000000000000000000000000000000000000000000008152600401610ca490611a07565b60405180910390fd5b610cb6816110ae565b50565b600660009054906101000a900473ffffffffffffffffffffffffffffffffffffffff1681565b6060610d048383604051806060016040528060278152602001611fa460279139611172565b905092915050565b600080823b905060008111915050919050565b6000819050919050565b565b6000610d3561123f565b73ffffffffffffffffffffffffffffffffffffffff16635c60da1b6040518163ffffffff1660e01b815260040160206040518083038186803b158015610d7a57600080fd5b505afa158015610d8e573d6000803e3d6000fd5b505050506040513d601f19601f82011682018060405250810190610db291906115cf565b905090565b3660008037600080366000845af43d6000803e8060008114610dd8573d6000f35b3d6000fd5b60007f01ffc9a7000000000000000000000000000000000000000000000000000000007bffffffffffffffffffffffffffffffffffffffffffffffffffffffff1916827bffffffffffffffffffffffffffffffffffffffffffffffffffffffff1916149050919050565b600033905090565b610e598282610ab0565b610ee857610e7e8173ffffffffffffffffffffffffffffffffffffffff166014611296565b610e8c8360001c6020611296565b604051602001610e9d929190611904565b6040516020818303038152906040526040517f08c379a0000000000000000000000000000000000000000000000000000000008152600401610edf91906119c5565b60405180910390fd5b5050565b610ef68282610ab0565b610fc857600180600084815260200190815260200160002060000160008373ffffffffffffffffffffffffffffffffffffffff1673ffffffffffffffffffffffffffffffffffffffff16815260200190815260200160002060006101000a81548160ff021916908315150217905550610f6d610e47565b73ffffffffffffffffffffffffffffffffffffffff168173ffffffffffffffffffffffffffffffffffffffff16837f2f8788117e7eff1d82e926ec794901d17c78024a50270940304540a733656f0d60405160405180910390a45b5050565b610fd68282610ab0565b156110aa5760006001600084815260200190815260200160002060000160008373ffffffffffffffffffffffffffffffffffffffff1673ffffffffffffffffffffffffffffffffffffffff16815260200190815260200160002060006101000a81548160ff02191690831515021790555061104f610e47565b73ffffffffffffffffffffffffffffffffffffffff168173ffffffffffffffffffffffffffffffffffffffff16837ff6391f5c32d9c69d2a47ea670b442974b53935d1edc7fd64eb21e047a839171b60405160405180910390a45b5050565b60008060009054906101000a900473ffffffffffffffffffffffffffffffffffffffff169050816000806101000a81548173ffffffffffffffffffffffffffffffffffffffff021916908373ffffffffffffffffffffffffffffffffffffffff1602179055508173ffffffffffffffffffffffffffffffffffffffff168173ffffffffffffffffffffffffffffffffffffffff167f8be0079c531659141344cd1fd0a4f28419497f9722a3daafe3b4186f6b6457e060405160405180910390a35050565b606061117d84610d0c565b6111bc576040517f08c379a00000000000000000000000000000000000000000000000000000000081526004016111b390611a47565b60405180910390fd5b6000808573ffffffffffffffffffffffffffffffffffffffff16856040516111e491906118ed565b600060405180830381855af49150503d806000811461121f576040519150601f19603f3d011682016040523d82523d6000602084013e611224565b606091505b50915091506112348282866114d2565b925050509392505050565b600061126d7fa3f0ad74e5423aebfd80d3ef4346578335a9a72aeaee59ff6cb3582b35133d5060001b610d1f565b60000160009054906101000a900473ffffffffffffffffffffffffffffffffffffffff16905090565b6060600060028360026112a99190611b35565b6112b39190611adf565b67ffffffffffffffff8111156112cc576112cb611d71565b5b6040519080825280601f01601f1916602001820160405280156112fe5781602001600182028036833780820191505090505b5090507f30000000000000000000000000000000000000000000000000000000000000008160008151811061133657611335611d42565b5b60200101907effffffffffffffffffffffffffffffffffffffffffffffffffffffffffffff1916908160001a9053507f78000000000000000000000000000000000000000000000000000000000000008160018151811061139a57611399611d42565b5b60200101907effffffffffffffffffffffffffffffffffffffffffffffffffffffffffffff1916908160001a905350600060018460026113da9190611b35565b6113e49190611adf565b90505b6001811115611484577f3031323334353637383961626364656600000000000000000000000000000000600f86166010811061142657611425611d42565b5b1a60f81b82828151811061143d5761143c611d42565b5b60200101907effffffffffffffffffffffffffffffffffffffffffffffffffffffffffffff1916908160001a905350600485901c94508061147d90611c88565b90506113e7565b50600084146114c8576040517f08c379a00000000000000000000000000000000000000000000000000000000081526004016114bf906119e7565b60405180910390fd5b8091505092915050565b606083156114e257829050611532565b6000835111156114f55782518084602001fd5b816040517f08c379a000000000000000000000000000000000000000000000000000000000815260040161152991906119c5565b60405180910390fd5b9392505050565b60008135905061154881611f47565b92915050565b60008151905061155d81611f47565b92915050565b60008135905061157281611f5e565b92915050565b60008135905061158781611f75565b92915050565b60008135905061159c81611f8c565b92915050565b6000602082840312156115b8576115b7611da0565b5b60006115c684828501611539565b91505092915050565b6000602082840312156115e5576115e4611da0565b5b60006115f38482850161154e565b91505092915050565b6000806040838503121561161357611612611da0565b5b600061162185828601611539565b92505060206116328582860161158d565b9150509250929050565b60006020828403121561165257611651611da0565b5b600061166084828501611563565b91505092915050565b600080604083850312156116805761167f611da0565b5b600061168e85828601611563565b925050602061169f85828601611539565b9150509250929050565b6000602082840312156116bf576116be611da0565b5b60006116cd84828501611578565b91505092915050565b6000602082840312156116ec576116eb611da0565b5b60006116fa8482850161158d565b91505092915050565b61170c81611b8f565b82525050565b61171b81611ba1565b82525050565b61172a81611bad565b82525050565b600061173b82611aa2565b6117458185611ab8565b9350611755818560208601611c55565b80840191505092915050565b61176a81611c0d565b82525050565b61177981611c1f565b82525050565b600061178a82611aad565b6117948185611ac3565b93506117a4818560208601611c55565b6117ad81611da5565b840191505092915050565b60006117c382611aad565b6117cd8185611ad4565b93506117dd818560208601611c55565b80840191505092915050565b60006117f6602083611ac3565b915061180182611db6565b602082019050919050565b6000611819602683611ac3565b915061182482611ddf565b604082019050919050565b600061183c602083611ac3565b915061184782611e2e565b602082019050919050565b600061185f602683611ac3565b915061186a82611e57565b604082019050919050565b6000611882601783611ad4565b915061188d82611ea6565b601782019050919050565b60006118a5601183611ad4565b91506118b082611ecf565b601182019050919050565b60006118c8602f83611ac3565b91506118d382611ef8565b604082019050919050565b6118e781611c03565b82525050565b60006118f98284611730565b915081905092915050565b600061190f82611875565b915061191b82856117b8565b915061192682611898565b915061193282846117b8565b91508190509392505050565b60006020820190506119536000830184611703565b92915050565b600060208201905061196e6000830184611712565b92915050565b60006020820190506119896000830184611721565b92915050565b60006020820190506119a46000830184611761565b92915050565b60006020820190506119bf6000830184611770565b92915050565b600060208201905081810360008301526119df818461177f565b905092915050565b60006020820190508181036000830152611a00816117e9565b9050919050565b60006020820190508181036000830152611a208161180c565b9050919050565b60006020820190508181036000830152611a408161182f565b9050919050565b60006020820190508181036000830152611a6081611852565b9050919050565b60006020820190508181036000830152611a80816118bb565b9050919050565b6000602082019050611a9c60008301846118de565b92915050565b600081519050919050565b600081519050919050565b600081905092915050565b600082825260208201905092915050565b600081905092915050565b6000611aea82611c03565b9150611af583611c03565b9250827fffffffffffffffffffffffffffffffffffffffffffffffffffffffffffffffff03821115611b2a57611b29611ce4565b5b828201905092915050565b6000611b4082611c03565b9150611b4b83611c03565b9250817fffffffffffffffffffffffffffffffffffffffffffffffffffffffffffffffff0483118215151615611b8457611b83611ce4565b5b828202905092915050565b6000611b9a82611be3565b9050919050565b60008115159050919050565b6000819050919050565b60007fffffffff0000000000000000000000000000000000000000000000000000000082169050919050565b600073ffffffffffffffffffffffffffffffffffffffff82169050919050565b6000819050919050565b6000611c1882611c31565b9050919050565b6000611c2a82611c31565b9050919050565b6000611c3c82611c43565b9050919050565b6000611c4e82611be3565b9050919050565b60005b83811015611c73578082015181840152602081019050611c58565b83811115611c82576000848401525b50505050565b6000611c9382611c03565b91506000821415611ca757611ca6611ce4565b5b600182039050919050565b60006002820490506001821680611cca57607f821691505b60208210811415611cde57611cdd611d13565b5b50919050565b7f4e487b7100000000000000000000000000000000000000000000000000000000600052601160045260246000fd5b7f4e487b7100000000000000000000000000000000000000000000000000000000600052602260045260246000fd5b7f4e487b7100000000000000000000000000000000000000000000000000000000600052603260045260246000fd5b7f4e487b7100000000000000000000000000000000000000000000000000000000600052604160045260246000fd5b600080fd5b6000601f19601f8301169050919050565b7f537472696e67733a20686578206c656e67746820696e73756666696369656e74600082015250565b7f4f776e61626c653a206e6577206f776e657220697320746865207a65726f206160008201527f6464726573730000000000000000000000000000000000000000000000000000602082015250565b7f4f776e61626c653a2063616c6c6572206973206e6f7420746865206f776e6572600082015250565b7f416464726573733a2064656c65676174652063616c6c20746f206e6f6e2d636f60008201527f6e74726163740000000000000000000000000000000000000000000000000000602082015250565b7f416363657373436f6e74726f6c3a206163636f756e7420000000000000000000600082015250565b7f206973206d697373696e6720726f6c6520000000000000000000000000000000600082015250565b7f416363657373436f6e74726f6c3a2063616e206f6e6c792072656e6f756e636560008201527f20726f6c657320666f722073656c660000000000000000000000000000000000602082015250565b611f5081611b8f565b8114611f5b57600080fd5b50565b611f6781611bad565b8114611f7257600080fd5b50565b611f7e81611bb7565b8114611f8957600080fd5b50565b611f9581611c03565b8114611fa057600080fd5b5056fe416464726573733a206c6f772d6c6576656c2064656c65676174652063616c6c206661696c6564a264697066735822122049b0b1c715baffd484ff3501448e18a38024c97b3492c83b631b85d6dfdac83a64736f6c63430008070033416464726573733a206c6f772d6c6576656c2064656c65676174652063616c6c206661696c6564608060405234801561001057600080fd5b5060405162000a9138038062000a91833981810160405281019061003491906101ef565b61005061004561006560201b60201c565b61006d60201b60201c565b61005f8161013160201b60201c565b5061030d565b600033905090565b60008060009054906101000a900473ffffffffffffffffffffffffffffffffffffffff169050816000806101000a81548173ffffffffffffffffffffffffffffffffffffffff021916908373ffffffffffffffffffffffffffffffffffffffff1602179055508173ffffffffffffffffffffffffffffffffffffffff168173ffffffffffffffffffffffffffffffffffffffff167f8be0079c531659141344cd1fd0a4f28419497f9722a3daafe3b4186f6b6457e060405160405180910390a35050565b610144816101c760201b6103781760201c565b610183576040517f08c379a000000000000000000000000000000000000000000000000000000000815260040161017a9061023f565b60405180910390fd5b80600160006101000a81548173ffffffffffffffffffffffffffffffffffffffff021916908373ffffffffffffffffffffffffffffffffffffffff16021790555050565b600080823b905060008111915050919050565b6000815190506101e9816102f6565b92915050565b600060208284031215610205576102046102a2565b5b6000610213848285016101da565b91505092915050565b600061022960338361025f565b9150610234826102a7565b604082019050919050565b600060208201905081810360008301526102588161021c565b9050919050565b600082825260208201905092915050565b600061027b82610282565b9050919050565b600073ffffffffffffffffffffffffffffffffffffffff82169050919050565b600080fd5b7f5570677261646561626c65426561636f6e3a20696d706c656d656e746174696f60008201527f6e206973206e6f74206120636f6e747261637400000000000000000000000000602082015250565b6102ff81610270565b811461030a57600080fd5b50565b610774806200031d6000396000f3fe608060405234801561001057600080fd5b50600436106100575760003560e01c80633659cfe61461005c5780635c60da1b14610078578063715018a6146100965780638da5cb5b146100a0578063f2fde38b146100be575b600080fd5b610076600480360381019061007191906104f8565b6100da565b005b6100806101a5565b60405161008d919061059d565b60405180910390f35b61009e6101cf565b005b6100a8610257565b6040516100b5919061059d565b60405180910390f35b6100d860048036038101906100d391906104f8565b610280565b005b6100e261038b565b73ffffffffffffffffffffffffffffffffffffffff16610100610257565b73ffffffffffffffffffffffffffffffffffffffff1614610156576040517f08c379a000000000000000000000000000000000000000000000000000000000815260040161014d906105f8565b60405180910390fd5b61015f81610393565b8073ffffffffffffffffffffffffffffffffffffffff167fbc7cd75a20ee27fd9adebab32041f755214dbc6bffa90cc0225b39da2e5c2d3b60405160405180910390a250565b6000600160009054906101000a900473ffffffffffffffffffffffffffffffffffffffff16905090565b6101d761038b565b73ffffffffffffffffffffffffffffffffffffffff166101f5610257565b73ffffffffffffffffffffffffffffffffffffffff161461024b576040517f08c379a0000000000000000000000000000000000000000000000000000000008152600401610242906105f8565b60405180910390fd5b610255600061041f565b565b60008060009054906101000a900473ffffffffffffffffffffffffffffffffffffffff16905090565b61028861038b565b73ffffffffffffffffffffffffffffffffffffffff166102a6610257565b73ffffffffffffffffffffffffffffffffffffffff16146102fc576040517f08c379a00000000000000000000000000000000000000000000000000000000081526004016102f3906105f8565b60405180910390fd5b600073ffffffffffffffffffffffffffffffffffffffff168173ffffffffffffffffffffffffffffffffffffffff16141561036c576040517f08c379a0000000000000000000000000000000000000000000000000000000008152600401610363906105b8565b60405180910390fd5b6103758161041f565b50565b600080823b905060008111915050919050565b600033905090565b61039c81610378565b6103db576040517f08c379a00000000000000000000000000000000000000000000000000000000081526004016103d2906105d8565b60405180910390fd5b80600160006101000a81548173ffffffffffffffffffffffffffffffffffffffff021916908373ffffffffffffffffffffffffffffffffffffffff16021790555050565b60008060009054906101000a900473ffffffffffffffffffffffffffffffffffffffff169050816000806101000a81548173ffffffffffffffffffffffffffffffffffffffff021916908373ffffffffffffffffffffffffffffffffffffffff1602179055508173ffffffffffffffffffffffffffffffffffffffff168173ffffffffffffffffffffffffffffffffffffffff167f8be0079c531659141344cd1fd0a4f28419497f9722a3daafe3b4186f6b6457e060405160405180910390a35050565b6000813590506104f281610727565b92915050565b60006020828403121561050e5761050d61065b565b5b600061051c848285016104e3565b91505092915050565b61052e81610629565b82525050565b6000610541602683610618565b915061054c82610660565b604082019050919050565b6000610564603383610618565b915061056f826106af565b604082019050919050565b6000610587602083610618565b9150610592826106fe565b602082019050919050565b60006020820190506105b26000830184610525565b92915050565b600060208201905081810360008301526105d181610534565b9050919050565b600060208201905081810360008301526105f181610557565b9050919050565b600060208201905081810360008301526106118161057a565b9050919050565b600082825260208201905092915050565b60006106348261063b565b9050919050565b600073ffffffffffffffffffffffffffffffffffffffff82169050919050565b600080fd5b7f4f776e61626c653a206e6577206f776e657220697320746865207a65726f206160008201527f6464726573730000000000000000000000000000000000000000000000000000602082015250565b7f5570677261646561626c65426561636f6e3a20696d706c656d656e746174696f60008201527f6e206973206e6f74206120636f6e747261637400000000000000000000000000602082015250565b7f4f776e61626c653a2063616c6c6572206973206e6f7420746865206f776e6572600082015250565b61073081610629565b811461073b57600080fd5b5056fea2646970667358221220f14c1e123fc6650c2510ce92a5938ce8dbd619e20ec5ceb7ad4526f9ccdb6aca64736f6c63430008070033a264697066735822122005144175dc990a3145b98cc3be18a248fb0ea73ab9a9f161f7b18ef21347a72164736f6c63430008070033608060405234801561001057600080fd5b5060405162000a9138038062000a91833981810160405281019061003491906101ef565b61005061004561006560201b60201c565b61006d60201b60201c565b61005f8161013160201b60201c565b5061030d565b600033905090565b60008060009054906101000a900473ffffffffffffffffffffffffffffffffffffffff169050816000806101000a81548173ffffffffffffffffffffffffffffffffffffffff021916908373ffffffffffffffffffffffffffffffffffffffff1602179055508173ffffffffffffffffffffffffffffffffffffffff168173ffffffffffffffffffffffffffffffffffffffff167f8be0079c531659141344cd1fd0a4f28419497f9722a3daafe3b4186f6b6457e060405160405180910390a35050565b610144816101c760201b6103781760201c565b610183576040517f08c379a000000000000000000000000000000000000000000000000000000000815260040161017a9061023f565b60405180910390fd5b80600160006101000a81548173ffffffffffffffffffffffffffffffffffffffff021916908373ffffffffffffffffffffffffffffffffffffffff16021790555050565b600080823b905060008111915050919050565b6000815190506101e9816102f6565b92915050565b600060208284031215610205576102046102a2565b5b6000610213848285016101da565b91505092915050565b600061022960338361025f565b9150610234826102a7565b604082019050919050565b600060208201905081810360008301526102588161021c565b9050919050565b600082825260208201905092915050565b600061027b82610282565b9050919050565b600073ffffffffffffffffffffffffffffffffffffffff82169050919050565b600080fd5b7f5570677261646561626c65426561636f6e3a20696d706c656d656e746174696f60008201527f6e206973206e6f74206120636f6e747261637400000000000000000000000000602082015250565b6102ff81610270565b811461030a57600080fd5b50565b610774806200031d6000396000f3fe608060405234801561001057600080fd5b50600436106100575760003560e01c80633659cfe61461005c5780635c60da1b14610078578063715018a6146100965780638da5cb5b146100a0578063f2fde38b146100be575b600080fd5b610076600480360381019061007191906104f8565b6100da565b005b6100806101a5565b60405161008d919061059d565b60405180910390f35b61009e6101cf565b005b6100a8610257565b6040516100b5919061059d565b60405180910390f35b6100d860048036038101906100d391906104f8565b610280565b005b6100e261038b565b73ffffffffffffffffffffffffffffffffffffffff16610100610257565b73ffffffffffffffffffffffffffffffffffffffff1614610156576040517f08c379a000000000000000000000000000000000000000000000000000000000815260040161014d906105f8565b60405180910390fd5b61015f81610393565b8073ffffffffffffffffffffffffffffffffffffffff167fbc7cd75a20ee27fd9adebab32041f755214dbc6bffa90cc0225b39da2e5c2d3b60405160405180910390a250565b6000600160009054906101000a900473ffffffffffffffffffffffffffffffffffffffff16905090565b6101d761038b565b73ffffffffffffffffffffffffffffffffffffffff166101f5610257565b73ffffffffffffffffffffffffffffffffffffffff161461024b576040517f08c379a0000000000000000000000000000000000000000000000000000000008152600401610242906105f8565b60405180910390fd5b610255600061041f565b565b60008060009054906101000a900473ffffffffffffffffffffffffffffffffffffffff16905090565b61028861038b565b73ffffffffffffffffffffffffffffffffffffffff166102a6610257565b73ffffffffffffffffffffffffffffffffffffffff16146102fc576040517f08c379a00000000000000000000000000000000000000000000000000000000081526004016102f3906105f8565b60405180910390fd5b600073ffffffffffffffffffffffffffffffffffffffff168173ffffffffffffffffffffffffffffffffffffffff16141561036c576040517f08c379a0000000000000000000000000000000000000000000000000000000008152600401610363906105b8565b60405180910390fd5b6103758161041f565b50565b600080823b905060008111915050919050565b600033905090565b61039c81610378565b6103db576040517f08c379a00000000000000000000000000000000000000000000000000000000081526004016103d2906105d8565b60405180910390fd5b80600160006101000a81548173ffffffffffffffffffffffffffffffffffffffff021916908373ffffffffffffffffffffffffffffffffffffffff16021790555050565b60008060009054906101000a900473ffffffffffffffffffffffffffffffffffffffff169050816000806101000a81548173ffffffffffffffffffffffffffffffffffffffff021916908373ffffffffffffffffffffffffffffffffffffffff1602179055508173ffffffffffffffffffffffffffffffffffffffff168173ffffffffffffffffffffffffffffffffffffffff167f8be0079c531659141344cd1fd0a4f28419497f9722a3daafe3b4186f6b6457e060405160405180910390a35050565b6000813590506104f281610727565b92915050565b60006020828403121561050e5761050d61065b565b5b600061051c848285016104e3565b91505092915050565b61052e81610629565b82525050565b6000610541602683610618565b915061054c82610660565b604082019050919050565b6000610564603383610618565b915061056f826106af565b604082019050919050565b6000610587602083610618565b9150610592826106fe565b602082019050919050565b60006020820190506105b26000830184610525565b92915050565b600060208201905081810360008301526105d181610534565b9050919050565b600060208201905081810360008301526105f181610557565b9050919050565b600060208201905081810360008301526106118161057a565b9050919050565b600082825260208201905092915050565b60006106348261063b565b9050919050565b600073ffffffffffffffffffffffffffffffffffffffff82169050919050565b600080fd5b7f4f776e61626c653a206e6577206f776e657220697320746865207a65726f206160008201527f6464726573730000000000000000000000000000000000000000000000000000602082015250565b7f5570677261646561626c65426561636f6e3a20696d706c656d656e746174696f60008201527f6e206973206e6f74206120636f6e747261637400000000000000000000000000602082015250565b7f4f776e61626c653a2063616c6c6572206973206e6f7420746865206f776e6572600082015250565b61073081610629565b811461073b57600080fd5b5056fea2646970667358221220f14c1e123fc6650c2510ce92a5938ce8dbd619e20ec5ceb7ad4526f9ccdb6aca64736f6c63430008070033",
  "linkReferences": {},
  "deployedLinkReferences": {}
}