{
  "_format": "hh-sol-artifact-1",
  "contractName": "LeagueOfLegendsLogic",
  "sourceName": "contracts/LeagueOfLegendsLogic.sol",
  "abi": [
    {
      "anonymous": false,
      "inputs": [
        {
          "indexed": true,
          "internalType": "address",
          "name": "previousOwner",
          "type": "address"
        },
        {
          "indexed": true,
          "internalType": "address",
          "name": "newOwner",
          "type": "address"
        }
      ],
      "name": "OwnershipTransferred",
      "type": "event"
    },
    {
      "anonymous": false,
      "inputs": [
        {
          "indexed": false,
          "internalType": "address",
          "name": "sender",
          "type": "address"
        },
        {
          "indexed": false,
          "internalType": "uint256",
          "name": "amount",
          "type": "uint256"
        }
      ],
      "name": "Staked",
      "type": "event"
    },
    {
      "anonymous": false,
      "inputs": [
        {
          "indexed": false,
          "internalType": "address",
          "name": "addr",
          "type": "address"
        }
      ],
      "name": "WhitelistedAddressAdded",
      "type": "event"
    },
    {
      "anonymous": false,
      "inputs": [
        {
          "indexed": false,
          "internalType": "address",
          "name": "addr",
          "type": "address"
        }
      ],
      "name": "WhitelistedAddressRemoved",
      "type": "event"
    },
    {
      "anonymous": false,
      "inputs": [
        {
          "indexed": false,
          "internalType": "address[]",
          "name": "winner",
          "type": "address[]"
        },
        {
          "indexed": false,
          "internalType": "uint256",
          "name": "prizePotPerWinner",
          "type": "uint256"
        }
      ],
      "name": "leagueEnded",
      "type": "event"
    },
    {
      "anonymous": false,
      "inputs": [
        {
          "indexed": false,
          "internalType": "address",
          "name": "sender",
          "type": "address"
        },
        {
          "indexed": false,
          "internalType": "address",
          "name": "contractAddress",
          "type": "address"
        }
      ],
      "name": "testUSDCDeployed",
      "type": "event"
    },
    {
      "inputs": [
        {
          "internalType": "address",
          "name": "addr",
          "type": "address"
        }
      ],
      "name": "addAddressToWhitelist",
      "outputs": [
        {
          "internalType": "bool",
          "name": "success",
          "type": "bool"
        }
      ],
      "stateMutability": "nonpayable",
      "type": "function"
    },
    {
      "inputs": [
        {
          "internalType": "address[]",
          "name": "addrs",
          "type": "address[]"
        }
      ],
      "name": "addAddressesToWhitelist",
      "outputs": [
        {
          "internalType": "bool",
          "name": "success",
          "type": "bool"
        }
      ],
      "stateMutability": "nonpayable",
      "type": "function"
    },
    {
      "inputs": [
        {
          "internalType": "address",
          "name": "_userToAdd",
          "type": "address"
        }
      ],
      "name": "addUserToWhitelist",
      "outputs": [],
      "stateMutability": "nonpayable",
      "type": "function"
    },
    {
      "inputs": [],
      "name": "admin",
      "outputs": [
        {
          "internalType": "address",
          "name": "",
          "type": "address"
        }
      ],
      "stateMutability": "view",
      "type": "function"
    },
    {
      "inputs": [],
      "name": "currentWeekNum",
      "outputs": [
        {
          "internalType": "uint256",
          "name": "",
          "type": "uint256"
        }
      ],
      "stateMutability": "view",
      "type": "function"
    },
    {
      "inputs": [],
      "name": "evaluateMatches",
      "outputs": [],
      "stateMutability": "nonpayable",
      "type": "function"
    },
    {
      "inputs": [],
      "name": "getAdmin",
      "outputs": [
        {
          "internalType": "address",
          "name": "",
          "type": "address"
        }
      ],
      "stateMutability": "view",
      "type": "function"
    },
    {
      "inputs": [],
      "name": "getContractUSDCBalance",
      "outputs": [
        {
          "internalType": "uint256",
          "name": "",
          "type": "uint256"
        }
      ],
      "stateMutability": "view",
      "type": "function"
    },
    {
      "inputs": [
        {
          "internalType": "uint256",
          "name": "index",
          "type": "uint256"
        }
      ],
      "name": "getLeagueMember",
      "outputs": [
        {
          "internalType": "address",
          "name": "",
          "type": "address"
        }
      ],
      "stateMutability": "view",
      "type": "function"
    },
    {
      "inputs": [
        {
          "internalType": "address",
          "name": "_user",
          "type": "address"
        }
      ],
      "name": "getLineup",
      "outputs": [
        {
          "internalType": "uint256[]",
          "name": "",
          "type": "uint256[]"
        }
      ],
      "stateMutability": "view",
      "type": "function"
    },
    {
      "inputs": [],
      "name": "getLineupIsLocked",
      "outputs": [
        {
          "internalType": "bool",
          "name": "",
          "type": "bool"
        }
      ],
      "stateMutability": "view",
      "type": "function"
    },
    {
      "inputs": [],
      "name": "getNumWhitelisted",
      "outputs": [
        {
          "internalType": "uint256",
          "name": "",
          "type": "uint256"
        }
      ],
      "stateMutability": "view",
      "type": "function"
    },
    {
      "inputs": [
        {
          "internalType": "uint256",
          "name": "_week",
          "type": "uint256"
        }
      ],
      "name": "getScheduleForWeek",
      "outputs": [
        {
          "components": [
            {
              "internalType": "address[2]",
              "name": "players",
              "type": "address[2]"
            }
          ],
          "internalType": "struct LeagueOfLegendsLogic.Matchup[]",
          "name": "",
          "type": "tuple[]"
        }
      ],
      "stateMutability": "view",
      "type": "function"
    },
    {
      "inputs": [
        {
          "internalType": "address",
          "name": "_user",
          "type": "address"
        }
      ],
      "name": "getUserIsWhitelisted",
      "outputs": [
        {
          "internalType": "bool",
          "name": "",
          "type": "bool"
        }
      ],
      "stateMutability": "view",
      "type": "function"
    },
    {
      "inputs": [],
      "name": "getUserRecord",
      "outputs": [
        {
          "internalType": "uint256[]",
          "name": "",
          "type": "uint256[]"
        }
      ],
      "stateMutability": "view",
      "type": "function"
    },
    {
      "inputs": [
        {
          "internalType": "address",
          "name": "",
          "type": "address"
        }
      ],
      "name": "inLeague",
      "outputs": [
        {
          "internalType": "bool",
          "name": "",
          "type": "bool"
        }
      ],
      "stateMutability": "view",
      "type": "function"
    },
    {
      "inputs": [
        {
          "internalType": "string",
          "name": "_name",
          "type": "string"
        },
        {
          "internalType": "uint256",
          "name": "_stakeAmount",
          "type": "uint256"
        },
        {
          "internalType": "bool",
          "name": "_isPublic",
          "type": "bool"
        },
        {
          "internalType": "address",
          "name": "athletesDataStorageAddress",
          "type": "address"
        },
        {
          "internalType": "address",
          "name": "_admin",
          "type": "address"
        },
        {
          "internalType": "address",
          "name": "_rinkebyUSDCAddress",
          "type": "address"
        },
        {
          "internalType": "address",
          "name": "_testUSDCAddress",
          "type": "address"
        },
        {
          "internalType": "address",
          "name": "_gameItemsContractAddress",
          "type": "address"
        },
        {
          "internalType": "address",
          "name": "_teamDiffAddress",
          "type": "address"
        },
        {
          "internalType": "address",
          "name": "_leagueMakerContractAddress",
          "type": "address"
        }
      ],
      "name": "initialize",
      "outputs": [],
      "stateMutability": "nonpayable",
      "type": "function"
    },
    {
      "inputs": [],
      "name": "isPublic",
      "outputs": [
        {
          "internalType": "bool",
          "name": "",
          "type": "bool"
        }
      ],
      "stateMutability": "view",
      "type": "function"
    },
    {
      "inputs": [],
      "name": "joinLeague",
      "outputs": [],
      "stateMutability": "nonpayable",
      "type": "function"
    },
    {
      "inputs": [],
      "name": "leagueEntryIsClosed",
      "outputs": [
        {
          "internalType": "bool",
          "name": "",
          "type": "bool"
        }
      ],
      "stateMutability": "view",
      "type": "function"
    },
    {
      "inputs": [
        {
          "internalType": "uint256",
          "name": "",
          "type": "uint256"
        }
      ],
      "name": "leagueMembers",
      "outputs": [
        {
          "internalType": "address",
          "name": "",
          "type": "address"
        }
      ],
      "stateMutability": "view",
      "type": "function"
    },
    {
      "inputs": [],
      "name": "leagueName",
      "outputs": [
        {
          "internalType": "string",
          "name": "",
          "type": "string"
        }
      ],
      "stateMutability": "view",
      "type": "function"
    },
    {
      "inputs": [],
      "name": "lineupIsLocked",
      "outputs": [
        {
          "internalType": "bool",
          "name": "",
          "type": "bool"
        }
      ],
      "stateMutability": "view",
      "type": "function"
    },
    {
      "inputs": [],
      "name": "lockLineup",
      "outputs": [],
      "stateMutability": "nonpayable",
      "type": "function"
    },
    {
      "inputs": [],
      "name": "numWeeks",
      "outputs": [
        {
          "internalType": "uint256",
          "name": "",
          "type": "uint256"
        }
      ],
      "stateMutability": "view",
      "type": "function"
    },
    {
      "inputs": [],
      "name": "onLeagueEnd",
      "outputs": [],
      "stateMutability": "nonpayable",
      "type": "function"
    },
    {
      "inputs": [],
      "name": "owner",
      "outputs": [
        {
          "internalType": "address",
          "name": "",
          "type": "address"
        }
      ],
      "stateMutability": "view",
      "type": "function"
    },
    {
      "inputs": [
        {
          "internalType": "address",
          "name": "addr",
          "type": "address"
        }
      ],
      "name": "removeAddressFromWhitelist",
      "outputs": [
        {
          "internalType": "bool",
          "name": "success",
          "type": "bool"
        }
      ],
      "stateMutability": "nonpayable",
      "type": "function"
    },
    {
      "inputs": [
        {
          "internalType": "address[]",
          "name": "addrs",
          "type": "address[]"
        }
      ],
      "name": "removeAddressesFromWhitelist",
      "outputs": [
        {
          "internalType": "bool",
          "name": "success",
          "type": "bool"
        }
      ],
      "stateMutability": "nonpayable",
      "type": "function"
    },
    {
      "inputs": [
        {
          "internalType": "address",
          "name": "_userToRemove",
          "type": "address"
        }
      ],
      "name": "removeFromWhitelist",
      "outputs": [],
      "stateMutability": "nonpayable",
      "type": "function"
    },
    {
      "inputs": [],
      "name": "renounceOwnership",
      "outputs": [],
      "stateMutability": "nonpayable",
      "type": "function"
    },
    {
      "inputs": [],
      "name": "rinkebyUSDCAddress",
      "outputs": [
        {
          "internalType": "address",
          "name": "",
          "type": "address"
        }
      ],
      "stateMutability": "view",
      "type": "function"
    },
    {
      "inputs": [],
      "name": "setLeagueEntryIsClosed",
      "outputs": [],
      "stateMutability": "nonpayable",
      "type": "function"
    },
    {
      "inputs": [],
      "name": "setLeagueSchedule",
      "outputs": [],
      "stateMutability": "nonpayable",
      "type": "function"
    },
    {
      "inputs": [
        {
          "internalType": "uint256[]",
          "name": "athleteIds",
          "type": "uint256[]"
        }
      ],
      "name": "setLineup",
      "outputs": [],
      "stateMutability": "nonpayable",
      "type": "function"
    },
    {
      "inputs": [],
      "name": "stakeAmount",
      "outputs": [
        {
          "internalType": "uint256",
          "name": "",
          "type": "uint256"
        }
      ],
      "stateMutability": "view",
      "type": "function"
    },
    {
      "inputs": [],
      "name": "teamDiffAddress",
      "outputs": [
        {
          "internalType": "address",
          "name": "",
          "type": "address"
        }
      ],
      "stateMutability": "view",
      "type": "function"
    },
    {
      "inputs": [],
      "name": "testUSDC",
      "outputs": [
        {
          "internalType": "contract IERC20",
          "name": "",
          "type": "address"
        }
      ],
      "stateMutability": "view",
      "type": "function"
    },
    {
      "inputs": [
        {
          "internalType": "address",
          "name": "newOwner",
          "type": "address"
        }
      ],
      "name": "transferOwnership",
      "outputs": [],
      "stateMutability": "nonpayable",
      "type": "function"
    },
    {
      "inputs": [],
      "name": "unlockLineup",
      "outputs": [],
      "stateMutability": "nonpayable",
      "type": "function"
    },
    {
      "inputs": [
        {
          "internalType": "address",
          "name": "",
          "type": "address"
        },
        {
          "internalType": "uint256",
          "name": "",
          "type": "uint256"
        }
      ],
      "name": "userToLineup",
      "outputs": [
        {
          "internalType": "uint256",
          "name": "",
          "type": "uint256"
        }
      ],
      "stateMutability": "view",
      "type": "function"
    },
    {
      "inputs": [
        {
          "internalType": "address",
          "name": "",
          "type": "address"
        }
      ],
      "name": "userToPoints",
      "outputs": [
        {
          "internalType": "uint256",
          "name": "",
          "type": "uint256"
        }
      ],
      "stateMutability": "view",
      "type": "function"
    },
    {
      "inputs": [
        {
          "internalType": "address",
          "name": "",
          "type": "address"
        },
        {
          "internalType": "uint256",
          "name": "",
          "type": "uint256"
        }
      ],
      "name": "userToRecord",
      "outputs": [
        {
          "internalType": "uint256",
          "name": "",
          "type": "uint256"
        }
      ],
      "stateMutability": "view",
      "type": "function"
    },
    {
      "inputs": [
        {
          "internalType": "address",
          "name": "",
          "type": "address"
        }
      ],
      "name": "whitelist",
      "outputs": [
        {
          "internalType": "bool",
          "name": "",
          "type": "bool"
        }
      ],
      "stateMutability": "view",
      "type": "function"
    },
    {
      "inputs": [],
      "name": "whitelistContract",
      "outputs": [
        {
          "internalType": "contract Whitelist",
          "name": "",
          "type": "address"
        }
      ],
      "stateMutability": "view",
      "type": "function"
    }
  ],
  "bytecode": "0x60806040523480156200001157600080fd5b5062000032620000266200004060201b60201c565b6200004860201b60201c565b60016004819055506200010d565b600033905090565b60008060029054906101000a900473ffffffffffffffffffffffffffffffffffffffff16905081600060026101000a81548173ffffffffffffffffffffffffffffffffffffffff021916908373ffffffffffffffffffffffffffffffffffffffff1602179055508173ffffffffffffffffffffffffffffffffffffffff168173ffffffffffffffffffffffffffffffffffffffff167f8be0079c531659141344cd1fd0a4f28419497f9722a3daafe3b4186f6b6457e060405160405180910390a35050565b615ecb806200011d6000396000f3fe60806040523480156200001157600080fd5b5060043610620002ba5760003560e01c8063747b8050116200017d578063c99fea9411620000e1578063e5f7322f1162000093578063e5f7322f1462000827578063ee90080f146200085d578063f2fde38b1462000893578063f612121a14620008b3578063f851a44014620008d3578063f881604514620008f557620002ba565b8063c99fea94146200074b578063cff560031462000757578063dc9a1535146200078d578063e2ec6ec314620007af578063e35a899914620007e5578063e4c9066b146200081b57620002ba565b80638ab1d681116200013b5780638ab1d68114620006855780638da5cb5b14620006a55780639122ce6d14620006c75780639b19251a14620006fd578063a2bc091a1462000733578063c8be3b5b146200073f57620002ba565b8063747b805014620005c95780637b9417c814620005e95780637eed33f1146200061f578063841abf6e146200064157806384900b04146200066357620002ba565b8063286dd3f5116200022557806344eaa84e11620001e357806344eaa84e146200051357806352e6e5f3146200053557806360c7dc4714620005575780636cc15ad514620005795780636e9960c3146200059b578063715018a614620005bd57620002ba565b8063286dd3f514620004455780632ae6b135146200047b5780632d382ee014620004b1578063305a578214620004e75780633c3ae13f14620004f357620002ba565b80630c6f7959116200027f5780630c6f795914620003535780631d803e0014620003895780631dd7f8ca146200039557806324953eaa14620003b7578063267175db14620003ed57806327311b32146200042357620002ba565b80622772c214620002bf578062b2476f14620002e1578063022e35e614620003035780630635dbcb14620003255780630655465a1462000347575b600080fd5b620002c962000917565b604051620002d89190620043c9565b60405180910390f35b620002eb620009cf565b604051620002fa919062003f81565b60405180910390f35b6200030d620009f5565b6040516200031c9190620040e5565b60405180910390f35b6200032f62000a1b565b6040516200033e9190620040c8565b60405180910390f35b6200035162000a2e565b005b6200037160048036038101906200036b919062003669565b62000b39565b604051620003809190620043c9565b60405180910390f35b6200039362000b6b565b005b6200039f62000fb2565b604051620003ae919062003f81565b60405180910390f35b620003d56004803603810190620003cf9190620036b0565b62000fd8565b604051620003e49190620040c8565b60405180910390f35b6200040b60048036038101906200040591906200389e565b620010b9565b6040516200041a919062003f81565b60405180910390f35b6200042d620010f9565b6040516200043c9190620040c8565b60405180910390f35b6200046360048036038101906200045d919062003637565b62001110565b604051620004729190620040c8565b60405180910390f35b62000499600480360381019062000493919062003637565b6200129f565b604051620004a89190620043c9565b60405180910390f35b620004cf6004803603810190620004c991906200389e565b620012b7565b604051620004de919062004080565b60405180910390f35b620004f1620013a8565b005b6200051160048036038101906200050b919062003784565b62001520565b005b6200051d62001978565b6040516200052c9190620043c9565b60405180910390f35b6200053f62001982565b6040516200054e9190620043c9565b60405180910390f35b6200056162001988565b604051620005709190620043c9565b60405180910390f35b620005836200198e565b604051620005929190620040c8565b60405180910390f35b620005a5620019a1565b604051620005b4919062003f81565b60405180910390f35b620005c7620019cb565b005b620005e76004803603810190620005e1919062003637565b62001a5c565b005b62000607600480360381019062000601919062003637565b62001bf9565b604051620006169190620040c8565b60405180910390f35b6200062962001d86565b604051620006389190620043c9565b60405180910390f35b6200064b62001d8c565b6040516200065a919062004173565b60405180910390f35b6200066d62001e22565b6040516200067c919062004102565b60405180910390f35b620006a360048036038101906200069d919062003637565b62001e48565b005b620006af62001fe5565b604051620006be919062003f81565b60405180910390f35b620006e56004803603810190620006df919062003637565b6200200e565b604051620006f49190620040c8565b60405180910390f35b6200071b600480360381019062000715919062003637565b6200202e565b6040516200072a9190620040c8565b60405180910390f35b6200073d6200204e565b005b62000749620020fe565b005b62000755620021ae565b005b6200077560048036038101906200076f919062003669565b6200263c565b604051620007849190620043c9565b60405180910390f35b620007976200266e565b604051620007a69190620040c8565b60405180910390f35b620007cd6004803603810190620007c79190620036b0565b62002681565b604051620007dc9190620040c8565b60405180910390f35b620008036004803603810190620007fd919062003637565b62002762565b604051620008129190620040c8565b60405180910390f35b62000825620027b8565b005b6200084560048036038101906200083f919062003637565b62002868565b604051620008549190620040a4565b60405180910390f35b6200087b60048036038101906200087591906200389e565b62002901565b6040516200088a919062003f81565b60405180910390f35b620008b16004803603810190620008ab919062003637565b6200294c565b005b620008d16004803603810190620008cb919062003701565b62002a50565b005b620008dd62002f36565b604051620008ec919062003f81565b60405180910390f35b620008ff62002f5c565b6040516200090e9190620040a4565b60405180910390f35b6000601760009054906101000a900473ffffffffffffffffffffffffffffffffffffffff1673ffffffffffffffffffffffffffffffffffffffff166370a08231306040518263ffffffff1660e01b815260040162000976919062003f81565b60206040518083038186803b1580156200098f57600080fd5b505afa158015620009a4573d6000803e3d6000fd5b505050506040513d601f19601f82011682018060405250810190620009ca9190620038d0565b905090565b601360009054906101000a900473ffffffffffffffffffffffffffffffffffffffff1681565b601760009054906101000a900473ffffffffffffffffffffffffffffffffffffffff1681565b600a60159054906101000a900460ff1681565b600a60009054906101000a900473ffffffffffffffffffffffffffffffffffffffff1673ffffffffffffffffffffffffffffffffffffffff163373ffffffffffffffffffffffffffffffffffffffff161462000ac1576040517f08c379a000000000000000000000000000000000000000000000000000000000815260040162000ab890620042fd565b60405180910390fd5b73__$36fdb4e0c2cb91f3ceca5ea81b025328f3$__63d2c232b56012601060065460056040518563ffffffff1660e01b815260040162000b0594939291906200411f565b60006040518083038186803b15801562000b1e57600080fd5b505af415801562000b33573d6000803e3d6000fd5b50505050565b600c602052816000526040600020818154811062000b5657600080fd5b90600052602060002001600091509150505481565b600a60009054906101000a900473ffffffffffffffffffffffffffffffffffffffff1673ffffffffffffffffffffffffffffffffffffffff163373ffffffffffffffffffffffffffffffffffffffff161462000bfe576040517f08c379a000000000000000000000000000000000000000000000000000000000815260040162000bf590620042fd565b60405180910390fd5b600060075460108054905062000c1591906200469f565b905073__$36fdb4e0c2cb91f3ceca5ea81b025328f3$__63cc9b40cc6010600e60116040518463ffffffff1660e01b815260040162000c579392919062004008565b60006040518083038186803b15801562000c7057600080fd5b505af415801562000c85573d6000803e3d6000fd5b5050505060005b60118054905081101562000cfc5762000ce66011828154811062000cb55762000cb4620049d3565b5b9060005260206000200160009054906101000a900473ffffffffffffffffffffffffffffffffffffffff1662002ff3565b808062000cf390620048f8565b91505062000c8c565b5060006011805490508262000d12919062004667565b905062000d5a6040518060400160405280601681526020017f4c65616775652077696e6e657273206c656e206973200000000000000000000081525060118054905062003090565b62000d9b6040518060400160405280601681526020017f5072697a65207065722077696e6e6572206973203a20000000000000000000008152508262003090565b7f648f2405ea194f3e49fe1655279883b3474e63909ab7e4a579b051d548ad838960118260405162000dcf9291906200404c565b60405180910390a160005b60118054905081101562000fad57601760009054906101000a900473ffffffffffffffffffffffffffffffffffffffff1673ffffffffffffffffffffffffffffffffffffffff1663095ea7b330846040518363ffffffff1660e01b815260040162000e4792919062003fdb565b602060405180830381600087803b15801562000e6257600080fd5b505af115801562000e77573d6000803e3d6000fd5b505050506040513d601f19601f8201168201806040525081019062000e9d919062003752565b50601760009054906101000a900473ffffffffffffffffffffffffffffffffffffffff1673ffffffffffffffffffffffffffffffffffffffff166323b872dd306011848154811062000ef45762000ef3620049d3565b5b9060005260206000200160009054906101000a900473ffffffffffffffffffffffffffffffffffffffff16856040518463ffffffff1660e01b815260040162000f409392919062003f9e565b602060405180830381600087803b15801562000f5b57600080fd5b505af115801562000f70573d6000803e3d6000fd5b505050506040513d601f19601f8201168201806040525081019062000f96919062003752565b50808062000fa490620048f8565b91505062000dda565b505050565b600a60009054906101000a900473ffffffffffffffffffffffffffffffffffffffff1681565b600062000fe462003130565b73ffffffffffffffffffffffffffffffffffffffff166200100462001fe5565b73ffffffffffffffffffffffffffffffffffffffff16146200105d576040517f08c379a00000000000000000000000000000000000000000000000000000000081526004016200105490620042b9565b60405180910390fd5b60005b8251811015620010b35762001092838281518110620010845762001083620049d3565b5b602002602001015162001110565b156200109d57600191505b8080620010aa90620048f8565b91505062001060565b50919050565b60108181548110620010ca57600080fd5b906000526020600020016000915054906101000a900473ffffffffffffffffffffffffffffffffffffffff1681565b6000600a60159054906101000a900460ff16905090565b60006200111c62003130565b73ffffffffffffffffffffffffffffffffffffffff166200113c62001fe5565b73ffffffffffffffffffffffffffffffffffffffff161462001195576040517f08c379a00000000000000000000000000000000000000000000000000000000081526004016200118c90620042b9565b60405180910390fd5b600160008373ffffffffffffffffffffffffffffffffffffffff1673ffffffffffffffffffffffffffffffffffffffff16815260200190815260200160002060009054906101000a900460ff16156200129a576000600160008473ffffffffffffffffffffffffffffffffffffffff1673ffffffffffffffffffffffffffffffffffffffff16815260200190815260200160002060006101000a81548160ff0219169083151502179055507ff1abf01a1043b7c244d128e8595cf0c1d10743b022b03a02dffd8ca3bf729f5a8260405162001271919062003f81565b60405180910390a16001600260008282546200128e919062004700565b92505081905550600190505b919050565b600e6020528060005260406000206000915090505481565b606060126000838152602001908152602001600020805480602002602001604051908101604052809291908181526020016000905b828210156200139d57838290600052602060002090600202016040518060200160405290816000820160028060200260405190810160405280929190826002801562001384576020028201915b8160009054906101000a900473ffffffffffffffffffffffffffffffffffffffff1673ffffffffffffffffffffffffffffffffffffffff168152602001906001019080831162001339575b50505050508152505081526020019060010190620012ec565b505050509050919050565b600a60009054906101000a900473ffffffffffffffffffffffffffffffffffffffff1673ffffffffffffffffffffffffffffffffffffffff163373ffffffffffffffffffffffffffffffffffffffff16146200143b576040517f08c379a00000000000000000000000000000000000000000000000000000000081526004016200143290620042fd565b60405180910390fd5b73__$36fdb4e0c2cb91f3ceca5ea81b025328f3$__63c930f4bc600854601460009054906101000a900473ffffffffffffffffffffffffffffffffffffffff16600c600d600e60126040518763ffffffff1660e01b8152600401620014a696959493929190620043e6565b60006040518083038186803b158015620014bf57600080fd5b505af4158015620014d4573d6000803e3d6000fd5b505050506001600654620014e9919062004700565b60085414156200150357620014fd62000b6b565b6200151e565b600860008154809291906200151890620048f8565b91905055505b565b600060019054906101000a900460ff166200154a5760008054906101000a900460ff161562001555565b6200155462003138565b5b62001597576040517f08c379a00000000000000000000000000000000000000000000000000000000081526004016200158e9062004297565b60405180910390fd5b60008060019054906101000a900460ff161590508015620015e8576001600060016101000a81548160ff02191690831515021790555060016000806101000a81548160ff0219169083151502179055505b8b8b60059190620015fb929190620032f9565b5060086006819055506001600f60008973ffffffffffffffffffffffffffffffffffffffff1673ffffffffffffffffffffffffffffffffffffffff16815260200190815260200160002060006101000a81548160ff0219169083151502179055506010879080600181540180825580915050600190039060005260206000200160009091909190916101000a81548173ffffffffffffffffffffffffffffffffffffffff021916908373ffffffffffffffffffffffffffffffffffffffff16021790555086600960006101000a81548173ffffffffffffffffffffffffffffffffffffffff021916908373ffffffffffffffffffffffffffffffffffffffff1602179055508960078190555088600360006101000a81548160ff0219169083151502179055506000600a60146101000a81548160ff0219169083151502179055506000600a60156101000a81548160ff02191690831515021790555087601460006101000a81548173ffffffffffffffffffffffffffffffffffffffff021916908373ffffffffffffffffffffffffffffffffffffffff160217905550604051620017a6906200338a565b604051809103906000f080158015620017c3573d6000803e3d6000fd5b50601560006101000a81548173ffffffffffffffffffffffffffffffffffffffff021916908373ffffffffffffffffffffffffffffffffffffffff16021790555085601360006101000a81548173ffffffffffffffffffffffffffffffffffffffff021916908373ffffffffffffffffffffffffffffffffffffffff16021790555084601760006101000a81548173ffffffffffffffffffffffffffffffffffffffff021916908373ffffffffffffffffffffffffffffffffffffffff16021790555082600a60006101000a81548173ffffffffffffffffffffffffffffffffffffffff021916908373ffffffffffffffffffffffffffffffffffffffff16021790555083601860006101000a81548173ffffffffffffffffffffffffffffffffffffffff021916908373ffffffffffffffffffffffffffffffffffffffff160217905550620019486040518060400160405280601281526020017f50726f787920696e697469616c697a65642100000000000000000000000000008152506200314b565b80156200196a5760008060016101000a81548160ff0219169083151502179055505b505050505050505050505050565b6000600254905090565b60085481565b60075481565b600a60149054906101000a900460ff1681565b6000600960009054906101000a900473ffffffffffffffffffffffffffffffffffffffff16905090565b620019d562003130565b73ffffffffffffffffffffffffffffffffffffffff16620019f562001fe5565b73ffffffffffffffffffffffffffffffffffffffff161462001a4e576040517f08c379a000000000000000000000000000000000000000000000000000000000815260040162001a4590620042b9565b60405180910390fd5b62001a5a6000620031e8565b565b600960009054906101000a900473ffffffffffffffffffffffffffffffffffffffff1673ffffffffffffffffffffffffffffffffffffffff163373ffffffffffffffffffffffffffffffffffffffff161462001aef576040517f08c379a000000000000000000000000000000000000000000000000000000000815260040162001ae690620042db565b60405180910390fd5b600a60149054906101000a900460ff161562001b42576040517f08c379a000000000000000000000000000000000000000000000000000000000815260040162001b399062004341565b60405180910390fd5b601560009054906101000a900473ffffffffffffffffffffffffffffffffffffffff1673ffffffffffffffffffffffffffffffffffffffff16637b9417c8826040518263ffffffff1660e01b815260040162001b9f919062003f81565b602060405180830381600087803b15801562001bba57600080fd5b505af115801562001bcf573d6000803e3d6000fd5b505050506040513d601f19601f8201168201806040525081019062001bf5919062003752565b5050565b600062001c0562003130565b73ffffffffffffffffffffffffffffffffffffffff1662001c2562001fe5565b73ffffffffffffffffffffffffffffffffffffffff161462001c7e576040517f08c379a000000000000000000000000000000000000000000000000000000000815260040162001c7590620042b9565b60405180910390fd5b600160008373ffffffffffffffffffffffffffffffffffffffff1673ffffffffffffffffffffffffffffffffffffffff16815260200190815260200160002060009054906101000a900460ff1662001d815760018060008473ffffffffffffffffffffffffffffffffffffffff1673ffffffffffffffffffffffffffffffffffffffff16815260200190815260200160002060006101000a81548160ff0219169083151502179055507fd1bba68c128cc3f427e5831b3c6f99f480b6efa6b9e80c757768f6124158cc3f8260405162001d58919062003f81565b60405180910390a160016002600082825462001d7591906200460a565b92505081905550600190505b919050565b60065481565b6005805462001d9b906200486e565b80601f016020809104026020016040519081016040528092919081815260200182805462001dc9906200486e565b801562001e1a5780601f1062001dee5761010080835404028352916020019162001e1a565b820191906000526020600020905b81548152906001019060200180831162001dfc57829003601f168201915b505050505081565b601560009054906101000a900473ffffffffffffffffffffffffffffffffffffffff1681565b600960009054906101000a900473ffffffffffffffffffffffffffffffffffffffff1673ffffffffffffffffffffffffffffffffffffffff163373ffffffffffffffffffffffffffffffffffffffff161462001edb576040517f08c379a000000000000000000000000000000000000000000000000000000000815260040162001ed290620042db565b60405180910390fd5b600a60149054906101000a900460ff161562001f2e576040517f08c379a000000000000000000000000000000000000000000000000000000000815260040162001f259062004341565b60405180910390fd5b601560009054906101000a900473ffffffffffffffffffffffffffffffffffffffff1673ffffffffffffffffffffffffffffffffffffffff1663286dd3f5826040518263ffffffff1660e01b815260040162001f8b919062003f81565b602060405180830381600087803b15801562001fa657600080fd5b505af115801562001fbb573d6000803e3d6000fd5b505050506040513d601f19601f8201168201806040525081019062001fe1919062003752565b5050565b60008060029054906101000a900473ffffffffffffffffffffffffffffffffffffffff16905090565b600f6020528060005260406000206000915054906101000a900460ff1681565b60016020528060005260406000206000915054906101000a900460ff1681565b600a60009054906101000a900473ffffffffffffffffffffffffffffffffffffffff1673ffffffffffffffffffffffffffffffffffffffff163373ffffffffffffffffffffffffffffffffffffffff1614620020e1576040517f08c379a0000000000000000000000000000000000000000000000000000000008152600401620020d890620042fd565b60405180910390fd5b6000600a60156101000a81548160ff021916908315150217905550565b600a60009054906101000a900473ffffffffffffffffffffffffffffffffffffffff1673ffffffffffffffffffffffffffffffffffffffff163373ffffffffffffffffffffffffffffffffffffffff161462002191576040517f08c379a00000000000000000000000000000000000000000000000000000000081526004016200218890620042fd565b60405180910390fd5b6001600a60156101000a81548160ff021916908315150217905550565b600160003373ffffffffffffffffffffffffffffffffffffffff1673ffffffffffffffffffffffffffffffffffffffff16815260200190815260200160002060009054906101000a900460ff1680620022135750600360009054906101000a900460ff165b62002255576040517f08c379a00000000000000000000000000000000000000000000000000000000081526004016200224c9062004231565b60405180910390fd5b600260045414156200229e576040517f08c379a0000000000000000000000000000000000000000000000000000000008152600401620022959062004385565b60405180910390fd5b6002600481905550600a60149054906101000a900460ff1615620022f9576040517f08c379a0000000000000000000000000000000000000000000000000000000008152600401620022f090620043a7565b60405180910390fd5b600f60003373ffffffffffffffffffffffffffffffffffffffff1673ffffffffffffffffffffffffffffffffffffffff16815260200190815260200160002060009054906101000a900460ff161562002389576040517f08c379a000000000000000000000000000000000000000000000000000000000815260040162002380906200420f565b60405180910390fd5b600754601760009054906101000a900473ffffffffffffffffffffffffffffffffffffffff1673ffffffffffffffffffffffffffffffffffffffff166370a08231336040518263ffffffff1660e01b8152600401620023e9919062003f81565b60206040518083038186803b1580156200240257600080fd5b505afa15801562002417573d6000803e3d6000fd5b505050506040513d601f19601f820116820180604052508101906200243d9190620038d0565b1162002480576040517f08c379a00000000000000000000000000000000000000000000000000000000081526004016200247790620041ed565b60405180910390fd5b6001600f60003373ffffffffffffffffffffffffffffffffffffffff1673ffffffffffffffffffffffffffffffffffffffff16815260200190815260200160002060006101000a81548160ff0219169083151502179055506010339080600181540180825580915050600190039060005260206000200160009091909190916101000a81548173ffffffffffffffffffffffffffffffffffffffff021916908373ffffffffffffffffffffffffffffffffffffffff160217905550601760009054906101000a900473ffffffffffffffffffffffffffffffffffffffff1673ffffffffffffffffffffffffffffffffffffffff166323b872dd33306007546040518463ffffffff1660e01b81526004016200259e9392919062003f9e565b602060405180830381600087803b158015620025b957600080fd5b505af1158015620025ce573d6000803e3d6000fd5b505050506040513d601f19601f82011682018060405250810190620025f4919062003752565b507f9e71bc8eea02a63969f509818f2dafb9254532904319f9dbda79b67bd34a5f3d336007546040516200262a92919062003fdb565b60405180910390a16001600481905550565b600d60205281600052604060002081815481106200265957600080fd5b90600052602060002001600091509150505481565b600360009054906101000a900460ff1681565b60006200268d62003130565b73ffffffffffffffffffffffffffffffffffffffff16620026ad62001fe5565b73ffffffffffffffffffffffffffffffffffffffff161462002706576040517f08c379a0000000000000000000000000000000000000000000000000000000008152600401620026fd90620042b9565b60405180910390fd5b60005b82518110156200275c576200273b8382815181106200272d576200272c620049d3565b5b602002602001015162001bf9565b156200274657600191505b80806200275390620048f8565b91505062002709565b50919050565b6000600160008373ffffffffffffffffffffffffffffffffffffffff1673ffffffffffffffffffffffffffffffffffffffff16815260200190815260200160002060009054906101000a900460ff169050919050565b600a60009054906101000a900473ffffffffffffffffffffffffffffffffffffffff1673ffffffffffffffffffffffffffffffffffffffff163373ffffffffffffffffffffffffffffffffffffffff16146200284b576040517f08c379a00000000000000000000000000000000000000000000000000000000081526004016200284290620042fd565b60405180910390fd5b6001600a60146101000a81548160ff021916908315150217905550565b6060600d60008373ffffffffffffffffffffffffffffffffffffffff1673ffffffffffffffffffffffffffffffffffffffff168152602001908152602001600020805480602002602001604051908101604052809291908181526020018280548015620028f557602002820191906000526020600020905b815481526020019060010190808311620028e0575b50505050509050919050565b6000601082815481106200291a5762002919620049d3565b5b9060005260206000200160009054906101000a900473ffffffffffffffffffffffffffffffffffffffff169050919050565b6200295662003130565b73ffffffffffffffffffffffffffffffffffffffff166200297662001fe5565b73ffffffffffffffffffffffffffffffffffffffff1614620029cf576040517f08c379a0000000000000000000000000000000000000000000000000000000008152600401620029c690620042b9565b60405180910390fd5b600073ffffffffffffffffffffffffffffffffffffffff168173ffffffffffffffffffffffffffffffffffffffff16141562002a42576040517f08c379a000000000000000000000000000000000000000000000000000000000815260040162002a3990620041cb565b60405180910390fd5b62002a4d81620031e8565b50565b600a60159054906101000a900460ff161562002aa3576040517f08c379a000000000000000000000000000000000000000000000000000000000815260040162002a9a9062004275565b60405180910390fd5b600f60003373ffffffffffffffffffffffffffffffffffffffff1673ffffffffffffffffffffffffffffffffffffffff16815260200190815260200160002060009054906101000a900460ff1662002b32576040517f08c379a000000000000000000000000000000000000000000000000000000000815260040162002b29906200431f565b60405180910390fd5b60005b600d60003373ffffffffffffffffffffffffffffffffffffffff1673ffffffffffffffffffffffffffffffffffffffff1681526020019081526020016000208054905081101562002c3757600b6000600d60003373ffffffffffffffffffffffffffffffffffffffff1673ffffffffffffffffffffffffffffffffffffffff168152602001908152602001600020838154811062002bd85762002bd7620049d3565b5b906000526020600020015481526020019081526020016000206008546008811062002c085762002c07620049d3565b5b01600081548092919062002c1c906200483f565b9190505550808062002c2e90620048f8565b91505062002b35565b5060005b815181101562002cbb57600b600083838151811062002c5f5762002c5e620049d3565b5b602002602001015181526020019081526020016000206008546008811062002c8c5762002c8b620049d3565b5b01600081548092919062002ca090620048f8565b9190505550808062002cb290620048f8565b91505062002c3b565b5060005b815181101562002df3576000601860009054906101000a900473ffffffffffffffffffffffffffffffffffffffff1673ffffffffffffffffffffffffffffffffffffffff1662fdd58e3385858151811062002d1f5762002d1e620049d3565b5b60200260200101516040518363ffffffff1660e01b815260040162002d4692919062003fdb565b60206040518083038186803b15801562002d5f57600080fd5b505afa15801562002d74573d6000803e3d6000fd5b505050506040513d601f19601f8201168201806040525081019062002d9a9190620038d0565b1162002ddd576040517f08c379a000000000000000000000000000000000000000000000000000000000815260040162002dd49062004363565b60405180910390fd5b808062002dea90620048f8565b91505062002cbf565b5060005b815181101562002edc57600a8162002e1091906200469f565b82828151811062002e265762002e25620049d3565b5b60200260200101511015801562002e8457506001600a60018362002e4b91906200460a565b62002e5791906200469f565b62002e63919062004700565b82828151811062002e795762002e78620049d3565b5b602002602001015111155b62002ec6576040517f08c379a000000000000000000000000000000000000000000000000000000000815260040162002ebd9062004253565b60405180910390fd5b808062002ed390620048f8565b91505062002df7565b5080600d60003373ffffffffffffffffffffffffffffffffffffffff1673ffffffffffffffffffffffffffffffffffffffff168152602001908152602001600020908051906020019062002f3292919062003398565b5050565b600960009054906101000a900473ffffffffffffffffffffffffffffffffffffffff1681565b6060600c60003373ffffffffffffffffffffffffffffffffffffffff1673ffffffffffffffffffffffffffffffffffffffff16815260200190815260200160002080548060200260200160405190810160405280929190818152602001828054801562002fe957602002820191906000526020600020905b81548152602001906001019080831162002fd4575b5050505050905090565b6200308d816040516024016200300a919062003f81565b6040516020818303038152906040527f2c2ecbc2000000000000000000000000000000000000000000000000000000007bffffffffffffffffffffffffffffffffffffffffffffffffffffffff19166020820180517bffffffffffffffffffffffffffffffffffffffffffffffffffffffff8381831617835250505050620032ad565b50565b6200312c8282604051602401620030a992919062004197565b6040516020818303038152906040527f9710a9d0000000000000000000000000000000000000000000000000000000007bffffffffffffffffffffffffffffffffffffffffffffffffffffffff19166020820180517bffffffffffffffffffffffffffffffffffffffffffffffffffffffff8381831617835250505050620032ad565b5050565b600033905090565b60006200314530620032d6565b15905090565b620031e58160405160240162003162919062004173565b6040516020818303038152906040527f41304fac000000000000000000000000000000000000000000000000000000007bffffffffffffffffffffffffffffffffffffffffffffffffffffffff19166020820180517bffffffffffffffffffffffffffffffffffffffffffffffffffffffff8381831617835250505050620032ad565b50565b60008060029054906101000a900473ffffffffffffffffffffffffffffffffffffffff16905081600060026101000a81548173ffffffffffffffffffffffffffffffffffffffff021916908373ffffffffffffffffffffffffffffffffffffffff1602179055508173ffffffffffffffffffffffffffffffffffffffff168173ffffffffffffffffffffffffffffffffffffffff167f8be0079c531659141344cd1fd0a4f28419497f9722a3daafe3b4186f6b6457e060405160405180910390a35050565b60008151905060006a636f6e736f6c652e6c6f679050602083016000808483855afa5050505050565b6000808273ffffffffffffffffffffffffffffffffffffffff163b119050919050565b82805462003307906200486e565b90600052602060002090601f0160209004810192826200332b576000855562003377565b82601f106200334657803560ff191683800117855562003377565b8280016001018555821562003377579182015b828111156200337657823582559160200191906001019062003359565b5b509050620033869190620033ea565b5090565b6110598062004e3d83390190565b828054828255906000526020600020908101928215620033d7579160200282015b82811115620033d6578251825591602001919060010190620033b9565b5b509050620033e69190620033ea565b5090565b5b8082111562003405576000816000905550600101620033eb565b5090565b6000620034206200341a846200447c565b62004453565b9050808382526020820190508285602086028201111562003446576200344562004a50565b5b60005b858110156200347a57816200345f8882620034ff565b84526020840193506020830192505060018101905062003449565b5050509392505050565b60006200349b6200349584620044ab565b62004453565b90508083825260208201905082856020860282011115620034c157620034c062004a50565b5b60005b85811015620034f55781620034da888262003609565b845260208401935060208301925050600181019050620034c4565b5050509392505050565b600081359050620035108162004dee565b92915050565b600082601f8301126200352e576200352d62004a4b565b5b81356200354084826020860162003409565b91505092915050565b600082601f83011262003561576200356062004a4b565b5b81356200357384826020860162003484565b91505092915050565b6000813590506200358d8162004e08565b92915050565b600081519050620035a48162004e08565b92915050565b60008083601f840112620035c357620035c262004a4b565b5b8235905067ffffffffffffffff811115620035e357620035e262004a46565b5b60208301915083600182028301111562003602576200360162004a50565b5b9250929050565b6000813590506200361a8162004e22565b92915050565b600081519050620036318162004e22565b92915050565b60006020828403121562003650576200364f62004a5a565b5b60006200366084828501620034ff565b91505092915050565b6000806040838503121562003683576200368262004a5a565b5b60006200369385828601620034ff565b9250506020620036a68582860162003609565b9150509250929050565b600060208284031215620036c957620036c862004a5a565b5b600082013567ffffffffffffffff811115620036ea57620036e962004a55565b5b620036f88482850162003516565b91505092915050565b6000602082840312156200371a576200371962004a5a565b5b600082013567ffffffffffffffff8111156200373b576200373a62004a55565b5b620037498482850162003549565b91505092915050565b6000602082840312156200376b576200376a62004a5a565b5b60006200377b8482850162003593565b91505092915050565b60008060008060008060008060008060006101408c8e031215620037ad57620037ac62004a5a565b5b60008c013567ffffffffffffffff811115620037ce57620037cd62004a55565b5b620037dc8e828f01620035aa565b9b509b50506020620037f18e828f0162003609565b9950506040620038048e828f016200357c565b9850506060620038178e828f01620034ff565b97505060806200382a8e828f01620034ff565b96505060a06200383d8e828f01620034ff565b95505060c0620038508e828f01620034ff565b94505060e0620038638e828f01620034ff565b935050610100620038778e828f01620034ff565b9250506101206200388b8e828f01620034ff565b9150509295989b509295989b9093969950565b600060208284031215620038b757620038b662004a5a565b5b6000620038c78482850162003609565b91505092915050565b600060208284031215620038e957620038e862004a5a565b5b6000620038f98482850162003620565b91505092915050565b60006200391083836200396a565b60208301905092915050565b60006200392a83836200398c565b60208301905092915050565b600062003944838362003f30565b60408301905092915050565b60006200395e838362003f4e565b60208301905092915050565b62003975816200475b565b82525050565b62003986816200475b565b82525050565b62003997816200475b565b82525050565b620039a8816200452e565b620039b4818462004599565b9250620039c182620044da565b8060005b83811015620039f8578151620039dc878262003902565b9650620039e98362004565565b925050600181019050620039c5565b505050505050565b600062003a0d8262004539565b62003a198185620045a4565b935062003a2683620044e4565b8060005b8381101562003a665762003a3e8262004a31565b62003a4a888262003902565b975062003a578362004572565b92505060018101905062003a2a565b5085935050505092915050565b600062003a808262004539565b62003a8c8185620045b5565b935062003a9983620044e4565b8060005b8381101562003ad95762003ab18262004a31565b62003abd88826200391c565b975062003aca8362004572565b92505060018101905062003a9d565b5085935050505092915050565b8082525050565b600062003afa8262004544565b62003b068185620045c6565b935062003b1383620044f9565b8060005b8381101562003b4a57815162003b2e888262003936565b975062003b3b836200457f565b92505060018101905062003b17565b5085935050505092915050565b600062003b64826200454f565b62003b708185620045d7565b935062003b7d8362004509565b8060005b8381101562003bb457815162003b98888262003950565b975062003ba5836200458c565b92505060018101905062003b81565b5085935050505092915050565b62003bcc816200476f565b82525050565b62003bdd81620047a5565b82525050565b62003bee81620047b9565b82525050565b62003bff81620047cd565b82525050565b8082525050565b8082525050565b8082525050565b600062003c27826200455a565b62003c338185620045e8565b935062003c4581856020860162004809565b62003c508162004a5f565b840191505092915050565b6000815462003c6a816200486e565b62003c768186620045f9565b9450600182166000811462003c94576001811462003ca75762003cde565b60ff198316865260208601935062003cde565b62003cb28562004519565b60005b8381101562003cd65781548189015260018201915060208101905062003cb5565b808801955050505b50505092915050565b600062003cf6602683620045e8565b915062003d038262004a7d565b604082019050919050565b600062003d1d601d83620045e8565b915062003d2a8262004acc565b602082019050919050565b600062003d44602383620045e8565b915062003d518262004af5565b604082019050919050565b600062003d6b601a83620045e8565b915062003d788262004b44565b602082019050919050565b600062003d92603183620045e8565b915062003d9f8262004b6d565b604082019050919050565b600062003db9601e83620045e8565b915062003dc68262004bbc565b602082019050919050565b600062003de0602e83620045e8565b915062003ded8262004be5565b604082019050919050565b600062003e07602083620045e8565b915062003e148262004c34565b602082019050919050565b600062003e2e601783620045e8565b915062003e3b8262004c5d565b602082019050919050565b600062003e55601683620045e8565b915062003e628262004c86565b602082019050919050565b600062003e7c601683620045e8565b915062003e898262004caf565b602082019050919050565b600062003ea3604183620045e8565b915062003eb08262004cd8565b606082019050919050565b600062003eca602483620045e8565b915062003ed78262004d4d565b604082019050919050565b600062003ef1601f83620045e8565b915062003efe8262004d9c565b602082019050919050565b600062003f18601783620045e8565b915062003f258262004dc5565b602082019050919050565b60408201600082015162003f4860008501826200399d565b50505050565b62003f59816200479b565b82525050565b62003f6a816200479b565b82525050565b62003f7b816200479b565b82525050565b600060208201905062003f9860008301846200397b565b92915050565b600060608201905062003fb560008301866200397b565b62003fc460208301856200397b565b62003fd3604083018462003f5f565b949350505050565b600060408201905062003ff260008301856200397b565b62004001602083018462003f5f565b9392505050565b6000606082019050818103600083015262004024818662003a73565b905062004035602083018562003c0c565b62004044604083018462003ae6565b949350505050565b6000604082019050818103600083015262004068818562003a00565b905062004079602083018462003f5f565b9392505050565b600060208201905081810360008301526200409c818462003aed565b905092915050565b60006020820190508181036000830152620040c0818462003b57565b905092915050565b6000602082019050620040df600083018462003bc1565b92915050565b6000602082019050620040fc600083018462003be3565b92915050565b600060208201905062004119600083018462003bf4565b92915050565b600060808201905062004136600083018762003c13565b62004145602083018662003ae6565b62004154604083018562003f70565b818103606083015262004168818462003c5b565b905095945050505050565b600060208201905081810360008301526200418f818462003c1a565b905092915050565b60006040820190508181036000830152620041b3818562003c1a565b9050620041c4602083018462003f5f565b9392505050565b60006020820190508181036000830152620041e68162003ce7565b9050919050565b60006020820190508181036000830152620042088162003d0e565b9050919050565b600060208201905081810360008301526200422a8162003d35565b9050919050565b600060208201905081810360008301526200424c8162003d5c565b9050919050565b600060208201905081810360008301526200426e8162003d83565b9050919050565b60006020820190508181036000830152620042908162003daa565b9050919050565b60006020820190508181036000830152620042b28162003dd1565b9050919050565b60006020820190508181036000830152620042d48162003df8565b9050919050565b60006020820190508181036000830152620042f68162003e1f565b9050919050565b60006020820190508181036000830152620043188162003e46565b9050919050565b600060208201905081810360008301526200433a8162003e6d565b9050919050565b600060208201905081810360008301526200435c8162003e94565b9050919050565b600060208201905081810360008301526200437e8162003ebb565b9050919050565b60006020820190508181036000830152620043a08162003ee2565b9050919050565b60006020820190508181036000830152620043c28162003f09565b9050919050565b6000602082019050620043e0600083018462003f5f565b92915050565b600060c082019050620043fd600083018962003f70565b6200440c602083018862003bd2565b6200441b604083018762003c05565b6200442a606083018662003c05565b62004439608083018562003c0c565b6200444860a083018462003c13565b979650505050505050565b60006200445f62004472565b90506200446d8282620048c2565b919050565b6000604051905090565b600067ffffffffffffffff8211156200449a576200449962004a02565b5b602082029050602081019050919050565b600067ffffffffffffffff821115620044c957620044c862004a02565b5b602082029050602081019050919050565b6000819050919050565b60008190508160005260206000209050919050565b6000819050602082019050919050565b6000819050602082019050919050565b60008190508160005260206000209050919050565b600060029050919050565b600081549050919050565b600081519050919050565b600081519050919050565b600081519050919050565b6000602082019050919050565b6000600182019050919050565b6000602082019050919050565b6000602082019050919050565b600081905092915050565b600082825260208201905092915050565b600082825260208201905092915050565b600082825260208201905092915050565b600082825260208201905092915050565b600082825260208201905092915050565b600082825260208201905092915050565b600062004617826200479b565b915062004624836200479b565b9250827fffffffffffffffffffffffffffffffffffffffffffffffffffffffffffffffff038211156200465c576200465b62004946565b5b828201905092915050565b600062004674826200479b565b915062004681836200479b565b92508262004694576200469362004975565b5b828204905092915050565b6000620046ac826200479b565b9150620046b9836200479b565b9250817fffffffffffffffffffffffffffffffffffffffffffffffffffffffffffffffff0483118215151615620046f557620046f462004946565b5b828202905092915050565b60006200470d826200479b565b91506200471a836200479b565b92508282101562004730576200472f62004946565b5b828203905092915050565b600073ffffffffffffffffffffffffffffffffffffffff82169050919050565b600062004768826200477b565b9050919050565b60008115159050919050565b600073ffffffffffffffffffffffffffffffffffffffff82169050919050565b6000819050919050565b6000620047b282620047e1565b9050919050565b6000620047c682620047e1565b9050919050565b6000620047da82620047e1565b9050919050565b6000620047ee82620047f5565b9050919050565b600062004802826200477b565b9050919050565b60005b83811015620048295780820151818401526020810190506200480c565b8381111562004839576000848401525b50505050565b60006200484c826200479b565b9150600082141562004863576200486262004946565b5b600182039050919050565b600060028204905060018216806200488757607f821691505b602082108114156200489e576200489d620049a4565b5b50919050565b6000620048bb620048b58362004a70565b6200473b565b9050919050565b620048cd8262004a5f565b810181811067ffffffffffffffff82111715620048ef57620048ee62004a02565b5b80604052505050565b600062004905826200479b565b91507fffffffffffffffffffffffffffffffffffffffffffffffffffffffffffffffff8214156200493b576200493a62004946565b5b600182019050919050565b7f4e487b7100000000000000000000000000000000000000000000000000000000600052601160045260246000fd5b7f4e487b7100000000000000000000000000000000000000000000000000000000600052601260045260246000fd5b7f4e487b7100000000000000000000000000000000000000000000000000000000600052602260045260246000fd5b7f4e487b7100000000000000000000000000000000000000000000000000000000600052603260045260246000fd5b7f4e487b7100000000000000000000000000000000000000000000000000000000600052604160045260246000fd5b600062004a3f8254620048a4565b9050919050565b600080fd5b600080fd5b600080fd5b600080fd5b600080fd5b6000601f19601f8301169050919050565b60008160001c9050919050565b7f4f776e61626c653a206e6577206f776e657220697320746865207a65726f206160008201527f6464726573730000000000000000000000000000000000000000000000000000602082015250565b7f496e737566666963656e742066756e647320666f72207374616b696e67000000600082015250565b7f596f75206861766520616c7265616479206a6f696e65642074686973206c656160008201527f6775650000000000000000000000000000000000000000000000000000000000602082015250565b7f55736572206973206e6f742077686974656c6973746564203a28000000000000600082015250565b7f596f75206172652073657474696e6720616e206174686c65746520696e20746860008201527f652077726f6e6720706f736974696f6e21000000000000000000000000000000602082015250565b7f6c696e657570206973206c6f636b656420666f7220746865207765656b210000600082015250565b7f496e697469616c697a61626c653a20636f6e747261637420697320616c72656160008201527f647920696e697469616c697a6564000000000000000000000000000000000000602082015250565b7f4f776e61626c653a2063616c6c6572206973206e6f7420746865206f776e6572600082015250565b7f43616c6c6572206973206e6f74207468652061646d696e000000000000000000600082015250565b7f43616c6c6572206973206e6f74205465616d4469666600000000000000000000600082015250565b7f55736572206973206e6f7420696e204c65616775652e00000000000000000000600082015250565b7f4e6f626f64792063616e20656e7465722f6578697420746865206c656167756560008201527f20616e796d6f72652e2054686520736561736f6e20686173207374617274656460208201527f2100000000000000000000000000000000000000000000000000000000000000604082015250565b7f43616c6c657220646f6573206e6f74206f776e20676976656e206174686c657460008201527f6549647300000000000000000000000000000000000000000000000000000000602082015250565b7f5265656e7472616e637947756172643a207265656e7472616e742063616c6c00600082015250565b7f4c656167756520456e74727920697320436c6f73656421000000000000000000600082015250565b62004df9816200475b565b811462004e0557600080fd5b50565b62004e13816200476f565b811462004e1f57600080fd5b50565b62004e2d816200479b565b811462004e3957600080fd5b5056fe608060405234801561001057600080fd5b5061002d61002261003260201b60201c565b61003a60201b60201c565b6100fe565b600033905090565b60008060009054906101000a900473ffffffffffffffffffffffffffffffffffffffff169050816000806101000a81548173ffffffffffffffffffffffffffffffffffffffff021916908373ffffffffffffffffffffffffffffffffffffffff1602179055508173ffffffffffffffffffffffffffffffffffffffff168173ffffffffffffffffffffffffffffffffffffffff167f8be0079c531659141344cd1fd0a4f28419497f9722a3daafe3b4186f6b6457e060405160405180910390a35050565b610f4c8061010d6000396000f3fe608060405234801561001057600080fd5b50600436106100a95760003560e01c80638da5cb5b116100715780638da5cb5b146101665780639b19251a14610184578063dc9a1535146101b4578063e2ec6ec3146101d2578063e35a899914610202578063f2fde38b14610232576100a9565b806324953eaa146100ae578063286dd3f5146100de57806344eaa84e1461010e578063715018a61461012c5780637b9417c814610136575b600080fd5b6100c860048036038101906100c39190610ada565b61024e565b6040516100d59190610bb1565b60405180910390f35b6100f860048036038101906100f39190610aad565b61031e565b6040516101059190610bb1565b60405180910390f35b6101166104a1565b6040516101239190610c0c565b60405180910390f35b6101346104ab565b005b610150600480360381019061014b9190610aad565b610533565b60405161015d9190610bb1565b60405180910390f35b61016e6106b4565b60405161017b9190610b96565b60405180910390f35b61019e60048036038101906101999190610aad565b6106dd565b6040516101ab9190610bb1565b60405180910390f35b6101bc6106fd565b6040516101c99190610bb1565b60405180910390f35b6101ec60048036038101906101e79190610ada565b610710565b6040516101f99190610bb1565b60405180910390f35b61021c60048036038101906102179190610aad565b6107e0565b6040516102299190610bb1565b60405180910390f35b61024c60048036038101906102479190610aad565b610836565b005b600061025861092e565b73ffffffffffffffffffffffffffffffffffffffff166102766106b4565b73ffffffffffffffffffffffffffffffffffffffff16146102cc576040517f08c379a00000000000000000000000000000000000000000000000000000000081526004016102c390610bec565b60405180910390fd5b60005b8251811015610318576102fb8382815181106102ee576102ed610e04565b5b602002602001015161031e565b1561030557600191505b808061031090610d8c565b9150506102cf565b50919050565b600061032861092e565b73ffffffffffffffffffffffffffffffffffffffff166103466106b4565b73ffffffffffffffffffffffffffffffffffffffff161461039c576040517f08c379a000000000000000000000000000000000000000000000000000000000815260040161039390610bec565b60405180910390fd5b600160008373ffffffffffffffffffffffffffffffffffffffff1673ffffffffffffffffffffffffffffffffffffffff16815260200190815260200160002060009054906101000a900460ff161561049c576000600160008473ffffffffffffffffffffffffffffffffffffffff1673ffffffffffffffffffffffffffffffffffffffff16815260200190815260200160002060006101000a81548160ff0219169083151502179055507ff1abf01a1043b7c244d128e8595cf0c1d10743b022b03a02dffd8ca3bf729f5a826040516104759190610b96565b60405180910390a16001600260008282546104909190610cdf565b92505081905550600190505b919050565b6000600254905090565b6104b361092e565b73ffffffffffffffffffffffffffffffffffffffff166104d16106b4565b73ffffffffffffffffffffffffffffffffffffffff1614610527576040517f08c379a000000000000000000000000000000000000000000000000000000000815260040161051e90610bec565b60405180910390fd5b6105316000610936565b565b600061053d61092e565b73ffffffffffffffffffffffffffffffffffffffff1661055b6106b4565b73ffffffffffffffffffffffffffffffffffffffff16146105b1576040517f08c379a00000000000000000000000000000000000000000000000000000000081526004016105a890610bec565b60405180910390fd5b600160008373ffffffffffffffffffffffffffffffffffffffff1673ffffffffffffffffffffffffffffffffffffffff16815260200190815260200160002060009054906101000a900460ff166106af5760018060008473ffffffffffffffffffffffffffffffffffffffff1673ffffffffffffffffffffffffffffffffffffffff16815260200190815260200160002060006101000a81548160ff0219169083151502179055507fd1bba68c128cc3f427e5831b3c6f99f480b6efa6b9e80c757768f6124158cc3f826040516106889190610b96565b60405180910390a16001600260008282546106a39190610c89565b92505081905550600190505b919050565b60008060009054906101000a900473ffffffffffffffffffffffffffffffffffffffff16905090565b60016020528060005260406000206000915054906101000a900460ff1681565b600360009054906101000a900460ff1681565b600061071a61092e565b73ffffffffffffffffffffffffffffffffffffffff166107386106b4565b73ffffffffffffffffffffffffffffffffffffffff161461078e576040517f08c379a000000000000000000000000000000000000000000000000000000000815260040161078590610bec565b60405180910390fd5b60005b82518110156107da576107bd8382815181106107b0576107af610e04565b5b6020026020010151610533565b156107c757600191505b80806107d290610d8c565b915050610791565b50919050565b6000600160008373ffffffffffffffffffffffffffffffffffffffff1673ffffffffffffffffffffffffffffffffffffffff16815260200190815260200160002060009054906101000a900460ff169050919050565b61083e61092e565b73ffffffffffffffffffffffffffffffffffffffff1661085c6106b4565b73ffffffffffffffffffffffffffffffffffffffff16146108b2576040517f08c379a00000000000000000000000000000000000000000000000000000000081526004016108a990610bec565b60405180910390fd5b600073ffffffffffffffffffffffffffffffffffffffff168173ffffffffffffffffffffffffffffffffffffffff161415610922576040517f08c379a000000000000000000000000000000000000000000000000000000000815260040161091990610bcc565b60405180910390fd5b61092b81610936565b50565b600033905090565b60008060009054906101000a900473ffffffffffffffffffffffffffffffffffffffff169050816000806101000a81548173ffffffffffffffffffffffffffffffffffffffff021916908373ffffffffffffffffffffffffffffffffffffffff1602179055508173ffffffffffffffffffffffffffffffffffffffff168173ffffffffffffffffffffffffffffffffffffffff167f8be0079c531659141344cd1fd0a4f28419497f9722a3daafe3b4186f6b6457e060405160405180910390a35050565b6000610a0d610a0884610c4c565b610c27565b90508083825260208201905082856020860282011115610a3057610a2f610e67565b5b60005b85811015610a605781610a468882610a6a565b845260208401935060208301925050600181019050610a33565b5050509392505050565b600081359050610a7981610eff565b92915050565b600082601f830112610a9457610a93610e62565b5b8135610aa48482602086016109fa565b91505092915050565b600060208284031215610ac357610ac2610e71565b5b6000610ad184828501610a6a565b91505092915050565b600060208284031215610af057610aef610e71565b5b600082013567ffffffffffffffff811115610b0e57610b0d610e6c565b5b610b1a84828501610a7f565b91505092915050565b610b2c81610d13565b82525050565b610b3b81610d25565b82525050565b6000610b4e602683610c78565b9150610b5982610e87565b604082019050919050565b6000610b71602083610c78565b9150610b7c82610ed6565b602082019050919050565b610b9081610d51565b82525050565b6000602082019050610bab6000830184610b23565b92915050565b6000602082019050610bc66000830184610b32565b92915050565b60006020820190508181036000830152610be581610b41565b9050919050565b60006020820190508181036000830152610c0581610b64565b9050919050565b6000602082019050610c216000830184610b87565b92915050565b6000610c31610c42565b9050610c3d8282610d5b565b919050565b6000604051905090565b600067ffffffffffffffff821115610c6757610c66610e33565b5b602082029050602081019050919050565b600082825260208201905092915050565b6000610c9482610d51565b9150610c9f83610d51565b9250827fffffffffffffffffffffffffffffffffffffffffffffffffffffffffffffffff03821115610cd457610cd3610dd5565b5b828201905092915050565b6000610cea82610d51565b9150610cf583610d51565b925082821015610d0857610d07610dd5565b5b828203905092915050565b6000610d1e82610d31565b9050919050565b60008115159050919050565b600073ffffffffffffffffffffffffffffffffffffffff82169050919050565b6000819050919050565b610d6482610e76565b810181811067ffffffffffffffff82111715610d8357610d82610e33565b5b80604052505050565b6000610d9782610d51565b91507fffffffffffffffffffffffffffffffffffffffffffffffffffffffffffffffff821415610dca57610dc9610dd5565b5b600182019050919050565b7f4e487b7100000000000000000000000000000000000000000000000000000000600052601160045260246000fd5b7f4e487b7100000000000000000000000000000000000000000000000000000000600052603260045260246000fd5b7f4e487b7100000000000000000000000000000000000000000000000000000000600052604160045260246000fd5b600080fd5b600080fd5b600080fd5b600080fd5b6000601f19601f8301169050919050565b7f4f776e61626c653a206e6577206f776e657220697320746865207a65726f206160008201527f6464726573730000000000000000000000000000000000000000000000000000602082015250565b7f4f776e61626c653a2063616c6c6572206973206e6f7420746865206f776e6572600082015250565b610f0881610d13565b8114610f1357600080fd5b5056fea264697066735822122013c44309da17edb16daca538fef0ec10185f0de3a32833486ee12942c2821a9b64736f6c63430008070033a2646970667358221220185d32895fd68000389b890fc8ed595420b0b8c949419365c19d554bdda9169264736f6c63430008070033",
  "linkReferences": {
    "contracts/MOBALogicLibrary.sol": {
      "MOBALogicLibrary": [
        {
          "length": 20,
          "start": 3040
        },
        {
          "length": 20,
          "start": 3382
        },
        {
          "length": 20,
          "start": 5466
        }
      ]
    }
  },
  "deployedLinkReferences": {
    "contracts/MOBALogicLibrary.sol": {
      "MOBALogicLibrary": [
        {
          "length": 20,
          "start": 2755
        },
        {
          "length": 20,
          "start": 3097
        },
        {
          "length": 20,
          "start": 5181
        }
      ]
    }
  }
}