{
  "_format": "hh-sol-artifact-1",
  "contractName": "LeagueOfLegendsLogic",
  "sourceName": "contracts/LeagueOfLegendsLogic.sol",
  "abi": [
    {
      "anonymous": false,
      "inputs": [
        {
          "indexed": true,
          "internalType": "address",
          "name": "previousOwner",
          "type": "address"
        },
        {
          "indexed": true,
          "internalType": "address",
          "name": "newOwner",
          "type": "address"
        }
      ],
      "name": "OwnershipTransferred",
      "type": "event"
    },
    {
      "anonymous": false,
      "inputs": [
        {
          "indexed": false,
          "internalType": "address",
          "name": "sender",
          "type": "address"
        },
        {
          "indexed": false,
          "internalType": "uint256",
          "name": "amount",
          "type": "uint256"
        }
      ],
      "name": "Staked",
      "type": "event"
    },
    {
      "anonymous": false,
      "inputs": [
        {
          "indexed": false,
          "internalType": "address",
          "name": "addr",
          "type": "address"
        }
      ],
      "name": "WhitelistedAddressAdded",
      "type": "event"
    },
    {
      "anonymous": false,
      "inputs": [
        {
          "indexed": false,
          "internalType": "address",
          "name": "addr",
          "type": "address"
        }
      ],
      "name": "WhitelistedAddressRemoved",
      "type": "event"
    },
    {
      "anonymous": false,
      "inputs": [
        {
          "indexed": false,
          "internalType": "address",
          "name": "sender",
          "type": "address"
        },
        {
          "indexed": false,
          "internalType": "address",
          "name": "contractAddress",
          "type": "address"
        }
      ],
      "name": "testUSDCDeployed",
      "type": "event"
    },
    {
      "inputs": [
        {
          "internalType": "address",
          "name": "addr",
          "type": "address"
        }
      ],
      "name": "addAddressToWhitelist",
      "outputs": [
        {
          "internalType": "bool",
          "name": "success",
          "type": "bool"
        }
      ],
      "stateMutability": "nonpayable",
      "type": "function"
    },
    {
      "inputs": [
        {
          "internalType": "address[]",
          "name": "addrs",
          "type": "address[]"
        }
      ],
      "name": "addAddressesToWhitelist",
      "outputs": [
        {
          "internalType": "bool",
          "name": "success",
          "type": "bool"
        }
      ],
      "stateMutability": "nonpayable",
      "type": "function"
    },
    {
      "inputs": [
        {
          "internalType": "address",
          "name": "_userToAdd",
          "type": "address"
        }
      ],
      "name": "addUserToWhitelist",
      "outputs": [],
      "stateMutability": "nonpayable",
      "type": "function"
    },
    {
      "inputs": [
        {
          "internalType": "uint256",
          "name": "currentWeekNum",
          "type": "uint256"
        }
      ],
      "name": "evaluateWeek",
      "outputs": [],
      "stateMutability": "nonpayable",
      "type": "function"
    },
    {
      "inputs": [],
      "name": "getAdmin",
      "outputs": [
        {
          "internalType": "address",
          "name": "",
          "type": "address"
        }
      ],
      "stateMutability": "view",
      "type": "function"
    },
    {
      "inputs": [],
      "name": "getAthleteContractAddress",
      "outputs": [
        {
          "internalType": "address",
          "name": "",
          "type": "address"
        }
      ],
      "stateMutability": "view",
      "type": "function"
    },
    {
      "inputs": [],
      "name": "getLeagueName",
      "outputs": [
        {
          "internalType": "string",
          "name": "",
          "type": "string"
        }
      ],
      "stateMutability": "view",
      "type": "function"
    },
    {
      "inputs": [],
      "name": "getLineup",
      "outputs": [
        {
          "internalType": "uint256[]",
          "name": "",
          "type": "uint256[]"
        }
      ],
      "stateMutability": "view",
      "type": "function"
    },
    {
      "inputs": [],
      "name": "getNumWhitelisted",
      "outputs": [
        {
          "internalType": "uint256",
          "name": "",
          "type": "uint256"
        }
      ],
      "stateMutability": "view",
      "type": "function"
    },
    {
      "inputs": [],
      "name": "getStakeAmount",
      "outputs": [
        {
          "internalType": "uint256",
          "name": "",
          "type": "uint256"
        }
      ],
      "stateMutability": "view",
      "type": "function"
    },
    {
      "inputs": [],
      "name": "getTestUSDCAddress",
      "outputs": [
        {
          "internalType": "address",
          "name": "",
          "type": "address"
        }
      ],
      "stateMutability": "view",
      "type": "function"
    },
    {
      "inputs": [],
      "name": "getUSDCBalance",
      "outputs": [
        {
          "internalType": "uint256",
          "name": "",
          "type": "uint256"
        }
      ],
      "stateMutability": "view",
      "type": "function"
    },
    {
      "inputs": [],
      "name": "getUserRecord",
      "outputs": [
        {
          "internalType": "uint256[8]",
          "name": "",
          "type": "uint256[8]"
        }
      ],
      "stateMutability": "view",
      "type": "function"
    },
    {
      "inputs": [],
      "name": "getUserTotalPts",
      "outputs": [
        {
          "internalType": "uint256",
          "name": "",
          "type": "uint256"
        }
      ],
      "stateMutability": "view",
      "type": "function"
    },
    {
      "inputs": [],
      "name": "getUserUSDCBalance",
      "outputs": [
        {
          "internalType": "uint256",
          "name": "",
          "type": "uint256"
        }
      ],
      "stateMutability": "view",
      "type": "function"
    },
    {
      "inputs": [],
      "name": "getUsersLength",
      "outputs": [
        {
          "internalType": "uint256",
          "name": "",
          "type": "uint256"
        }
      ],
      "stateMutability": "view",
      "type": "function"
    },
    {
      "inputs": [
        {
          "internalType": "string",
          "name": "_name",
          "type": "string"
        },
        {
          "internalType": "uint256",
          "name": "_stakeAmount",
          "type": "uint256"
        },
        {
          "internalType": "bool",
          "name": "_isPublic",
          "type": "bool"
        },
        {
          "internalType": "address",
          "name": "athletesDataStorageAddress",
          "type": "address"
        },
        {
          "internalType": "address",
          "name": "_admin",
          "type": "address"
        },
        {
          "internalType": "address",
          "name": "_polygonUSDCAddress",
          "type": "address"
        },
        {
          "internalType": "address",
          "name": "_rinkebyUSDCAddress",
          "type": "address"
        },
        {
          "internalType": "address",
          "name": "_testUSDCAddress",
          "type": "address"
        },
        {
          "internalType": "address",
          "name": "leagueMakerContractAddress",
          "type": "address"
        },
        {
          "internalType": "address",
          "name": "gameItemsContractAddress",
          "type": "address"
        }
      ],
      "name": "initialize",
      "outputs": [],
      "stateMutability": "nonpayable",
      "type": "function"
    },
    {
      "inputs": [],
      "name": "isPublic",
      "outputs": [
        {
          "internalType": "bool",
          "name": "",
          "type": "bool"
        }
      ],
      "stateMutability": "view",
      "type": "function"
    },
    {
      "inputs": [],
      "name": "joinLeague",
      "outputs": [],
      "stateMutability": "nonpayable",
      "type": "function"
    },
    {
      "inputs": [
        {
          "internalType": "uint256",
          "name": "",
          "type": "uint256"
        }
      ],
      "name": "leagueMembers",
      "outputs": [
        {
          "internalType": "address",
          "name": "",
          "type": "address"
        }
      ],
      "stateMutability": "view",
      "type": "function"
    },
    {
      "inputs": [],
      "name": "leagueName",
      "outputs": [
        {
          "internalType": "string",
          "name": "",
          "type": "string"
        }
      ],
      "stateMutability": "view",
      "type": "function"
    },
    {
      "inputs": [],
      "name": "lockLineup",
      "outputs": [],
      "stateMutability": "nonpayable",
      "type": "function"
    },
    {
      "inputs": [],
      "name": "numWeeks",
      "outputs": [
        {
          "internalType": "uint256",
          "name": "",
          "type": "uint256"
        }
      ],
      "stateMutability": "view",
      "type": "function"
    },
    {
      "inputs": [],
      "name": "onLeagueEnd",
      "outputs": [],
      "stateMutability": "nonpayable",
      "type": "function"
    },
    {
      "inputs": [],
      "name": "owner",
      "outputs": [
        {
          "internalType": "address",
          "name": "",
          "type": "address"
        }
      ],
      "stateMutability": "view",
      "type": "function"
    },
    {
      "inputs": [],
      "name": "polygonUSDCAddress",
      "outputs": [
        {
          "internalType": "address",
          "name": "",
          "type": "address"
        }
      ],
      "stateMutability": "view",
      "type": "function"
    },
    {
      "inputs": [
        {
          "internalType": "address",
          "name": "addr",
          "type": "address"
        }
      ],
      "name": "removeAddressFromWhitelist",
      "outputs": [
        {
          "internalType": "bool",
          "name": "success",
          "type": "bool"
        }
      ],
      "stateMutability": "nonpayable",
      "type": "function"
    },
    {
      "inputs": [
        {
          "internalType": "address[]",
          "name": "addrs",
          "type": "address[]"
        }
      ],
      "name": "removeAddressesFromWhitelist",
      "outputs": [
        {
          "internalType": "bool",
          "name": "success",
          "type": "bool"
        }
      ],
      "stateMutability": "nonpayable",
      "type": "function"
    },
    {
      "inputs": [
        {
          "internalType": "address",
          "name": "_userToRemove",
          "type": "address"
        }
      ],
      "name": "removeFromWhitelist",
      "outputs": [],
      "stateMutability": "nonpayable",
      "type": "function"
    },
    {
      "inputs": [],
      "name": "renounceOwnership",
      "outputs": [],
      "stateMutability": "nonpayable",
      "type": "function"
    },
    {
      "inputs": [],
      "name": "rinkebyUSDCAddress",
      "outputs": [
        {
          "internalType": "address",
          "name": "",
          "type": "address"
        }
      ],
      "stateMutability": "view",
      "type": "function"
    },
    {
      "inputs": [],
      "name": "setLeagueEntryIsClosed",
      "outputs": [],
      "stateMutability": "nonpayable",
      "type": "function"
    },
    {
      "inputs": [],
      "name": "setLeagueSchedule",
      "outputs": [],
      "stateMutability": "nonpayable",
      "type": "function"
    },
    {
      "inputs": [
        {
          "internalType": "uint256[]",
          "name": "athleteIds",
          "type": "uint256[]"
        }
      ],
      "name": "setLineup",
      "outputs": [],
      "stateMutability": "nonpayable",
      "type": "function"
    },
    {
      "inputs": [],
      "name": "stakeAmount",
      "outputs": [
        {
          "internalType": "uint256",
          "name": "",
          "type": "uint256"
        }
      ],
      "stateMutability": "view",
      "type": "function"
    },
    {
      "inputs": [
        {
          "internalType": "address",
          "name": "newOwner",
          "type": "address"
        }
      ],
      "name": "transferOwnership",
      "outputs": [],
      "stateMutability": "nonpayable",
      "type": "function"
    },
    {
      "inputs": [],
      "name": "unlockLineup",
      "outputs": [],
      "stateMutability": "nonpayable",
      "type": "function"
    },
    {
      "inputs": [
        {
          "internalType": "address",
          "name": "",
          "type": "address"
        },
        {
          "internalType": "uint256",
          "name": "",
          "type": "uint256"
        }
      ],
      "name": "userToRecord",
      "outputs": [
        {
          "internalType": "uint256",
          "name": "",
          "type": "uint256"
        }
      ],
      "stateMutability": "view",
      "type": "function"
    },
    {
      "inputs": [
        {
          "internalType": "address",
          "name": "",
          "type": "address"
        }
      ],
      "name": "whitelist",
      "outputs": [
        {
          "internalType": "bool",
          "name": "",
          "type": "bool"
        }
      ],
      "stateMutability": "view",
      "type": "function"
    }
  ],
  "bytecode": "0x60806040523480156200001157600080fd5b5062000032620000266200004060201b60201c565b6200004860201b60201c565b60016004819055506200010d565b600033905090565b60008060029054906101000a900473ffffffffffffffffffffffffffffffffffffffff16905081600060026101000a81548173ffffffffffffffffffffffffffffffffffffffff021916908373ffffffffffffffffffffffffffffffffffffffff1602179055508173ffffffffffffffffffffffffffffffffffffffff168173ffffffffffffffffffffffffffffffffffffffff167f8be0079c531659141344cd1fd0a4f28419497f9722a3daafe3b4186f6b6457e060405160405180910390a35050565b615503806200011d6000396000f3fe60806040523480156200001157600080fd5b5060043610620002735760003560e01c80637b9417c81162000159578063ada3a28d11620000c9578063e2ec6ec31162000087578063e2ec6ec314620006e8578063e4c9066b146200071e578063f2fde38b146200072a578063f612121a146200074a578063f8816045146200076a5762000273565b8063ada3a28d146200066a578063c8be3b5b146200068c578063c99fea941462000698578063cdbba4c614620006a4578063dc9a153514620006c65762000273565b80638da5cb5b11620001175780638da5cb5b14620005c457806393f3706c14620005e65780639b19251a14620006085780639f2d5481146200063e578063a2bc091a146200065e5762000273565b80637b9417c814620005085780637eed33f1146200053e578063841abf6e14620005605780638ab1d68114620005825780638caec7a814620005a25762000273565b8063403570c511620001f55780636bdc44df11620001b35780636bdc44df14620004765780636e9960c31462000498578063715018a614620004ba578063722580b614620004c6578063747b805014620004e85762000273565b8063403570c514620003cc57806344eaa84e14620003ee578063595b1a3e14620004105780635fcc6987146200043257806360c7dc4714620004545762000273565b806324953eaa116200024357806324953eaa14620002e8578063267175db146200031e578063286dd3f514620003545780633c3ae13f146200038a5780633cfd1ccc14620003aa5762000273565b8062b2476f14620002785780630655465a146200029a5780630c6f795914620002a65780631d803e0014620002dc575b600080fd5b620002826200078c565b6040516200029191906200390f565b60405180910390f35b620002a4620007b2565b005b620002c46004803603810190620002be91906200323e565b620008ed565b604051620002d3919062003c94565b60405180910390f35b620002e662000916565b005b62000306600480360381019062000300919062003285565b62000c47565b604051620003159190620039d8565b60405180910390f35b6200033c600480360381019062000336919062003473565b62000d44565b6040516200034b91906200390f565b60405180910390f35b6200037260048036038101906200036c91906200320c565b62000d84565b604051620003819190620039d8565b60405180910390f35b620003a86004803603810190620003a2919062003359565b62000f13565b005b620003b4620013ac565b604051620003c3919062003c94565b60405180910390f35b620003d6620014bb565b604051620003e5919062003ab6565b60405180910390f35b620003f862001555565b60405162000407919062003c94565b60405180910390f35b6200041a6200155f565b60405162000429919062003c94565b60405180910390f35b6200043c6200156c565b6040516200044b919062003c94565b60405180910390f35b6200045e6200167b565b6040516200046d919062003c94565b60405180910390f35b6200048062001681565b6040516200048f919062003c94565b60405180910390f35b620004a2620016c8565b604051620004b191906200390f565b60405180910390f35b620004c4620016f2565b005b620004d062001783565b604051620004df919062003c94565b60405180910390f35b6200050660048036038101906200050091906200320c565b6200178d565b005b6200052660048036038101906200052091906200320c565b620018d7565b604051620005359190620039d8565b60405180910390f35b6200054862001a64565b60405162000557919062003c94565b60405180910390f35b6200056a62001a6a565b60405162000579919062003ab6565b60405180910390f35b620005a060048036038101906200059a91906200320c565b62001b00565b005b620005ac62001c9d565b604051620005bb91906200390f565b60405180910390f35b620005ce62001cc7565b604051620005dd91906200390f565b60405180910390f35b620005f062001cf0565b604051620005ff91906200390f565b60405180910390f35b6200062660048036038101906200062091906200320c565b62001d16565b604051620006359190620039d8565b60405180910390f35b6200065c600480360381019062000656919062003473565b62001d36565b005b6200066862001e57565b005b6200067462001ef7565b604051620006839190620039b4565b60405180910390f35b6200069662001f8e565b005b620006a26200202e565b005b620006ae620024bc565b604051620006bd91906200390f565b60405180910390f35b620006d0620024e6565b604051620006df9190620039d8565b60405180910390f35b62000706600480360381019062000700919062003285565b620024f9565b604051620007159190620039d8565b60405180910390f35b62000728620025f6565b005b6200074860048036038101906200074291906200320c565b62002696565b005b620007686004803603810190620007629190620032d6565b6200279a565b005b6200077462002c56565b60405162000783919062003996565b60405180910390f35b601260009054906101000a900473ffffffffffffffffffffffffffffffffffffffff1681565b620007bc62002ce2565b73ffffffffffffffffffffffffffffffffffffffff16620007dc62001cc7565b73ffffffffffffffffffffffffffffffffffffffff161462000835576040517f08c379a00000000000000000000000000000000000000000000000000000000081526004016200082c9062003bc8565b60405180910390fd5b620008756040518060400160405280601081526020017f73657474696e67207363686564756c650000000000000000000000000000000081525062002cea565b73__$36fdb4e0c2cb91f3ceca5ea81b025328f3$__63d2c232b56010600f60065460056040518563ffffffff1660e01b8152600401620008b99493929190620039f5565b60006040518083038186803b158015620008d257600080fd5b505af4158015620008e7573d6000803e3d6000fd5b50505050565b600b60205281600052604060002081600881106200090a57600080fd5b01600091509150505481565b6200092062002ce2565b73ffffffffffffffffffffffffffffffffffffffff166200094062001cc7565b73ffffffffffffffffffffffffffffffffffffffff161462000999576040517f08c379a0000000000000000000000000000000000000000000000000000000008152600401620009909062003bc8565b60405180910390fd5b60026004541415620009e2576040517f08c379a0000000000000000000000000000000000000000000000000000000008152600401620009d99062003c50565b60405180910390fd5b60026004819055506000600f8054905060075462000a01919062003e3d565b90506000600f60008154811062000a1d5762000a1c620040dc565b5b9060005260206000200160009054906101000a900473ffffffffffffffffffffffffffffffffffffffff1690506000600190505b600f8054905081101562000b8257600a60008373ffffffffffffffffffffffffffffffffffffffff1673ffffffffffffffffffffffffffffffffffffffff16815260200190815260200160002054600a6000600f848154811062000aba5762000ab9620040dc565b5b9060005260206000200160009054906101000a900473ffffffffffffffffffffffffffffffffffffffff1673ffffffffffffffffffffffffffffffffffffffff1673ffffffffffffffffffffffffffffffffffffffff16815260200190815260200160002054111562000b6c57600f818154811062000b3e5762000b3d620040dc565b5b9060005260206000200160009054906101000a900473ffffffffffffffffffffffffffffffffffffffff1691505b808062000b799062004030565b91505062000a51565b50601660009054906101000a900473ffffffffffffffffffffffffffffffffffffffff1673ffffffffffffffffffffffffffffffffffffffff166323b872dd3083856040518463ffffffff1660e01b815260040162000be4939291906200392c565b602060405180830381600087803b15801562000bff57600080fd5b505af115801562000c14573d6000803e3d6000fd5b505050506040513d601f19601f8201168201806040525081019062000c3a919062003327565b5050506001600481905550565b600062000c5362002ce2565b73ffffffffffffffffffffffffffffffffffffffff1662000c7362001cc7565b73ffffffffffffffffffffffffffffffffffffffff161462000ccc576040517f08c379a000000000000000000000000000000000000000000000000000000000815260040162000cc39062003bc8565b60405180910390fd5b60005b825181101562000d3e5762000d0183828151811062000cf35762000cf2620040dc565b5b602002602001015162000d84565b1562000d285760016002600082825462000d1c919062003e9e565b92505081905550600191505b808062000d359062004030565b91505062000ccf565b50919050565b600f818154811062000d5557600080fd5b906000526020600020016000915054906101000a900473ffffffffffffffffffffffffffffffffffffffff1681565b600062000d9062002ce2565b73ffffffffffffffffffffffffffffffffffffffff1662000db062001cc7565b73ffffffffffffffffffffffffffffffffffffffff161462000e09576040517f08c379a000000000000000000000000000000000000000000000000000000000815260040162000e009062003bc8565b60405180910390fd5b600160008373ffffffffffffffffffffffffffffffffffffffff1673ffffffffffffffffffffffffffffffffffffffff16815260200190815260200160002060009054906101000a900460ff161562000f0e576000600160008473ffffffffffffffffffffffffffffffffffffffff1673ffffffffffffffffffffffffffffffffffffffff16815260200190815260200160002060006101000a81548160ff0219169083151502179055507ff1abf01a1043b7c244d128e8595cf0c1d10743b022b03a02dffd8ca3bf729f5a8260405162000ee591906200390f565b60405180910390a160016002600082825462000f02919062003e9e565b92505081905550600190505b919050565b600060019054906101000a900460ff1662000f3d5760008054906101000a900460ff161562000f48565b62000f4762002d87565b5b62000f8a576040517f08c379a000000000000000000000000000000000000000000000000000000000815260040162000f819062003ba6565b60405180910390fd5b60008060019054906101000a900460ff16159050801562000fdb576001600060016101000a81548160ff02191690831515021790555060016000806101000a81548160ff0219169083151502179055505b8b8b6005919062000fee92919062002eab565b5060086006819055506001600d60008973ffffffffffffffffffffffffffffffffffffffff1673ffffffffffffffffffffffffffffffffffffffff16815260200190815260200160002060006101000a81548160ff021916908315150217905550600f879080600181540180825580915050600190039060005260206000200160009091909190916101000a81548173ffffffffffffffffffffffffffffffffffffffff021916908373ffffffffffffffffffffffffffffffffffffffff16021790555086600860006101000a81548173ffffffffffffffffffffffffffffffffffffffff021916908373ffffffffffffffffffffffffffffffffffffffff1602179055508960078190555088600360006101000a81548160ff0219169083151502179055506000600960156101000a81548160ff0219169083151502179055506000600960146101000a81548160ff02191690831515021790555087601360006101000a81548173ffffffffffffffffffffffffffffffffffffffff021916908373ffffffffffffffffffffffffffffffffffffffff16021790555082601560006101000a81548173ffffffffffffffffffffffffffffffffffffffff021916908373ffffffffffffffffffffffffffffffffffffffff160217905550604051620011da9062002f3c565b604051809103906000f080158015620011f7573d6000803e3d6000fd5b50601460006101000a81548173ffffffffffffffffffffffffffffffffffffffff021916908373ffffffffffffffffffffffffffffffffffffffff16021790555085601160006101000a81548173ffffffffffffffffffffffffffffffffffffffff021916908373ffffffffffffffffffffffffffffffffffffffff16021790555084601260006101000a81548173ffffffffffffffffffffffffffffffffffffffff021916908373ffffffffffffffffffffffffffffffffffffffff16021790555083601660006101000a81548173ffffffffffffffffffffffffffffffffffffffff021916908373ffffffffffffffffffffffffffffffffffffffff16021790555081601760006101000a81548173ffffffffffffffffffffffffffffffffffffffff021916908373ffffffffffffffffffffffffffffffffffffffff1602179055506200137c6040518060400160405280601281526020017f50726f787920696e697469616c697a656421000000000000000000000000000081525062002cea565b80156200139e5760008060016101000a81548160ff0219169083151502179055505b505050505050505050505050565b6000600d60003373ffffffffffffffffffffffffffffffffffffffff1673ffffffffffffffffffffffffffffffffffffffff16815260200190815260200160002060009054906101000a900460ff166200140557600080fd5b601660009054906101000a900473ffffffffffffffffffffffffffffffffffffffff1673ffffffffffffffffffffffffffffffffffffffff166370a08231306040518263ffffffff1660e01b81526004016200146291906200390f565b60206040518083038186803b1580156200147b57600080fd5b505afa15801562001490573d6000803e3d6000fd5b505050506040513d601f19601f82011682018060405250810190620014b69190620034a5565b905090565b606060058054620014cc9062003fc4565b80601f0160208091040260200160405190810160405280929190818152602001828054620014fa9062003fc4565b80156200154b5780601f106200151f576101008083540402835291602001916200154b565b820191906000526020600020905b8154815290600101906020018083116200152d57829003601f168201915b5050505050905090565b6000600254905090565b6000600f80549050905090565b6000600d60003373ffffffffffffffffffffffffffffffffffffffff1673ffffffffffffffffffffffffffffffffffffffff16815260200190815260200160002060009054906101000a900460ff16620015c557600080fd5b601660009054906101000a900473ffffffffffffffffffffffffffffffffffffffff1673ffffffffffffffffffffffffffffffffffffffff166370a08231336040518263ffffffff1660e01b81526004016200162291906200390f565b60206040518083038186803b1580156200163b57600080fd5b505afa15801562001650573d6000803e3d6000fd5b505050506040513d601f19601f82011682018060405250810190620016769190620034a5565b905090565b60075481565b6000600a60003373ffffffffffffffffffffffffffffffffffffffff1673ffffffffffffffffffffffffffffffffffffffff16815260200190815260200160002054905090565b6000600860009054906101000a900473ffffffffffffffffffffffffffffffffffffffff16905090565b620016fc62002ce2565b73ffffffffffffffffffffffffffffffffffffffff166200171c62001cc7565b73ffffffffffffffffffffffffffffffffffffffff161462001775576040517f08c379a00000000000000000000000000000000000000000000000000000000081526004016200176c9062003bc8565b60405180910390fd5b62001781600062002d9a565b565b6000600754905090565b600860009054906101000a900473ffffffffffffffffffffffffffffffffffffffff1673ffffffffffffffffffffffffffffffffffffffff163373ffffffffffffffffffffffffffffffffffffffff161462001820576040517f08c379a0000000000000000000000000000000000000000000000000000000008152600401620018179062003bea565b60405180910390fd5b601460009054906101000a900473ffffffffffffffffffffffffffffffffffffffff1673ffffffffffffffffffffffffffffffffffffffff16637b9417c8826040518263ffffffff1660e01b81526004016200187d91906200390f565b602060405180830381600087803b1580156200189857600080fd5b505af1158015620018ad573d6000803e3d6000fd5b505050506040513d601f19601f82011682018060405250810190620018d3919062003327565b5050565b6000620018e362002ce2565b73ffffffffffffffffffffffffffffffffffffffff166200190362001cc7565b73ffffffffffffffffffffffffffffffffffffffff16146200195c576040517f08c379a0000000000000000000000000000000000000000000000000000000008152600401620019539062003bc8565b60405180910390fd5b600160008373ffffffffffffffffffffffffffffffffffffffff1673ffffffffffffffffffffffffffffffffffffffff16815260200190815260200160002060009054906101000a900460ff1662001a5f5760018060008473ffffffffffffffffffffffffffffffffffffffff1673ffffffffffffffffffffffffffffffffffffffff16815260200190815260200160002060006101000a81548160ff0219169083151502179055507fd1bba68c128cc3f427e5831b3c6f99f480b6efa6b9e80c757768f6124158cc3f8260405162001a3691906200390f565b60405180910390a160016002600082825462001a53919062003de0565b92505081905550600190505b919050565b60065481565b6005805462001a799062003fc4565b80601f016020809104026020016040519081016040528092919081815260200182805462001aa79062003fc4565b801562001af85780601f1062001acc5761010080835404028352916020019162001af8565b820191906000526020600020905b81548152906001019060200180831162001ada57829003601f168201915b505050505081565b600860009054906101000a900473ffffffffffffffffffffffffffffffffffffffff1673ffffffffffffffffffffffffffffffffffffffff163373ffffffffffffffffffffffffffffffffffffffff161462001b93576040517f08c379a000000000000000000000000000000000000000000000000000000000815260040162001b8a9062003bea565b60405180910390fd5b600960149054906101000a900460ff161562001be6576040517f08c379a000000000000000000000000000000000000000000000000000000000815260040162001bdd9062003c0c565b60405180910390fd5b601460009054906101000a900473ffffffffffffffffffffffffffffffffffffffff1673ffffffffffffffffffffffffffffffffffffffff1663286dd3f5826040518263ffffffff1660e01b815260040162001c4391906200390f565b602060405180830381600087803b15801562001c5e57600080fd5b505af115801562001c73573d6000803e3d6000fd5b505050506040513d601f19601f8201168201806040525081019062001c99919062003327565b5050565b6000601360009054906101000a900473ffffffffffffffffffffffffffffffffffffffff16905090565b60008060029054906101000a900473ffffffffffffffffffffffffffffffffffffffff16905090565b601160009054906101000a900473ffffffffffffffffffffffffffffffffffffffff1681565b60016020528060005260406000206000915054906101000a900460ff1681565b62001d4062002ce2565b73ffffffffffffffffffffffffffffffffffffffff1662001d6062001cc7565b73ffffffffffffffffffffffffffffffffffffffff161462001db9576040517f08c379a000000000000000000000000000000000000000000000000000000000815260040162001db09062003bc8565b60405180910390fd5b73__$36fdb4e0c2cb91f3ceca5ea81b025328f3$__63c406e268601083601360009054906101000a900473ffffffffffffffffffffffffffffffffffffffff16600b600a600c6040518763ffffffff1660e01b815260040162001e229695949392919062003a49565b60006040518083038186803b15801562001e3b57600080fd5b505af415801562001e50573d6000803e3d6000fd5b5050505050565b62001e6162002ce2565b73ffffffffffffffffffffffffffffffffffffffff1662001e8162001cc7565b73ffffffffffffffffffffffffffffffffffffffff161462001eda576040517f08c379a000000000000000000000000000000000000000000000000000000000815260040162001ed19062003bc8565b60405180910390fd5b6000600960156101000a81548160ff021916908315150217905550565b6060600c60003373ffffffffffffffffffffffffffffffffffffffff1673ffffffffffffffffffffffffffffffffffffffff16815260200190815260200160002080548060200260200160405190810160405280929190818152602001828054801562001f8457602002820191906000526020600020905b81548152602001906001019080831162001f6f575b5050505050905090565b62001f9862002ce2565b73ffffffffffffffffffffffffffffffffffffffff1662001fb862001cc7565b73ffffffffffffffffffffffffffffffffffffffff161462002011576040517f08c379a0000000000000000000000000000000000000000000000000000000008152600401620020089062003bc8565b60405180910390fd5b6001600960156101000a81548160ff021916908315150217905550565b600160003373ffffffffffffffffffffffffffffffffffffffff1673ffffffffffffffffffffffffffffffffffffffff16815260200190815260200160002060009054906101000a900460ff1680620020935750600360009054906101000a900460ff165b620020d5576040517f08c379a0000000000000000000000000000000000000000000000000000000008152600401620020cc9062003b40565b60405180910390fd5b600260045414156200211e576040517f08c379a0000000000000000000000000000000000000000000000000000000008152600401620021159062003c50565b60405180910390fd5b6002600481905550600960149054906101000a900460ff161562002179576040517f08c379a0000000000000000000000000000000000000000000000000000000008152600401620021709062003c72565b60405180910390fd5b600d60003373ffffffffffffffffffffffffffffffffffffffff1673ffffffffffffffffffffffffffffffffffffffff16815260200190815260200160002060009054906101000a900460ff161562002209576040517f08c379a0000000000000000000000000000000000000000000000000000000008152600401620022009062003b1e565b60405180910390fd5b600754601660009054906101000a900473ffffffffffffffffffffffffffffffffffffffff1673ffffffffffffffffffffffffffffffffffffffff166370a08231336040518263ffffffff1660e01b81526004016200226991906200390f565b60206040518083038186803b1580156200228257600080fd5b505afa15801562002297573d6000803e3d6000fd5b505050506040513d601f19601f82011682018060405250810190620022bd9190620034a5565b1162002300576040517f08c379a0000000000000000000000000000000000000000000000000000000008152600401620022f79062003afc565b60405180910390fd5b6001600d60003373ffffffffffffffffffffffffffffffffffffffff1673ffffffffffffffffffffffffffffffffffffffff16815260200190815260200160002060006101000a81548160ff021916908315150217905550600f339080600181540180825580915050600190039060005260206000200160009091909190916101000a81548173ffffffffffffffffffffffffffffffffffffffff021916908373ffffffffffffffffffffffffffffffffffffffff160217905550601660009054906101000a900473ffffffffffffffffffffffffffffffffffffffff1673ffffffffffffffffffffffffffffffffffffffff166323b872dd33306007546040518463ffffffff1660e01b81526004016200241e939291906200392c565b602060405180830381600087803b1580156200243957600080fd5b505af11580156200244e573d6000803e3d6000fd5b505050506040513d601f19601f8201168201806040525081019062002474919062003327565b507f9e71bc8eea02a63969f509818f2dafb9254532904319f9dbda79b67bd34a5f3d33600754604051620024aa92919062003969565b60405180910390a16001600481905550565b6000601660009054906101000a900473ffffffffffffffffffffffffffffffffffffffff16905090565b600360009054906101000a900460ff1681565b60006200250562002ce2565b73ffffffffffffffffffffffffffffffffffffffff166200252562001cc7565b73ffffffffffffffffffffffffffffffffffffffff16146200257e576040517f08c379a0000000000000000000000000000000000000000000000000000000008152600401620025759062003bc8565b60405180910390fd5b60005b8251811015620025f057620025b3838281518110620025a557620025a4620040dc565b5b6020026020010151620018d7565b15620025da57600160026000828254620025ce919062003de0565b92505081905550600191505b8080620025e79062004030565b91505062002581565b50919050565b6200260062002ce2565b73ffffffffffffffffffffffffffffffffffffffff166200262062001cc7565b73ffffffffffffffffffffffffffffffffffffffff161462002679576040517f08c379a0000000000000000000000000000000000000000000000000000000008152600401620026709062003bc8565b60405180910390fd5b6001600960146101000a81548160ff021916908315150217905550565b620026a062002ce2565b73ffffffffffffffffffffffffffffffffffffffff16620026c062001cc7565b73ffffffffffffffffffffffffffffffffffffffff161462002719576040517f08c379a0000000000000000000000000000000000000000000000000000000008152600401620027109062003bc8565b60405180910390fd5b600073ffffffffffffffffffffffffffffffffffffffff168173ffffffffffffffffffffffffffffffffffffffff1614156200278c576040517f08c379a0000000000000000000000000000000000000000000000000000000008152600401620027839062003ada565b60405180910390fd5b620027978162002d9a565b50565b600960159054906101000a900460ff1615620027ed576040517f08c379a0000000000000000000000000000000000000000000000000000000008152600401620027e49062003b84565b60405180910390fd5b600d60003373ffffffffffffffffffffffffffffffffffffffff1673ffffffffffffffffffffffffffffffffffffffff16815260200190815260200160002060009054906101000a900460ff166200284457600080fd5b6000601560009054906101000a900473ffffffffffffffffffffffffffffffffffffffff1673ffffffffffffffffffffffffffffffffffffffff166306575c896040518163ffffffff1660e01b815260040160206040518083038186803b158015620028af57600080fd5b505afa158015620028c4573d6000803e3d6000fd5b505050506040513d601f19601f82011682018060405250810190620028ea9190620034a5565b905060005b600c60003373ffffffffffffffffffffffffffffffffffffffff1673ffffffffffffffffffffffffffffffffffffffff16815260200190815260200160002080549050811015620029ef57600e6000600c60003373ffffffffffffffffffffffffffffffffffffffff1673ffffffffffffffffffffffffffffffffffffffff1681526020019081526020016000208381548110620029925762002991620040dc565b5b906000526020600020015481526020019081526020016000208260088110620029c057620029bf620040dc565b5b016000815480929190620029d49062003f95565b91905055508080620029e69062004030565b915050620028ef565b5060005b825181101562002b6857600e6000828152602001908152602001600020826008811062002a255762002a24620040dc565b5b01600081548092919062002a399062004030565b91905055506000601760009054906101000a900473ffffffffffffffffffffffffffffffffffffffff1673ffffffffffffffffffffffffffffffffffffffff1662fdd58e3386858151811062002a945762002a93620040dc565b5b60200260200101516040518363ffffffff1660e01b815260040162002abb92919062003969565b60206040518083038186803b15801562002ad457600080fd5b505afa15801562002ae9573d6000803e3d6000fd5b505050506040513d601f19601f8201168201806040525081019062002b0f9190620034a5565b1162002b52576040517f08c379a000000000000000000000000000000000000000000000000000000000815260040162002b499062003c2e565b60405180910390fd5b808062002b5f9062004030565b915050620029f3565b5060005b825181101562002bfb576001600e6000838152602001908152602001600020836008811062002ba05762002b9f620040dc565b5b01541462002be5576040517f08c379a000000000000000000000000000000000000000000000000000000000815260040162002bdc9062003b62565b60405180910390fd5b808062002bf29062004030565b91505062002b6c565b5081600c60003373ffffffffffffffffffffffffffffffffffffffff1673ffffffffffffffffffffffffffffffffffffffff168152602001908152602001600020908051906020019062002c5192919062002f4a565b505050565b62002c6062002f9c565b600b60003373ffffffffffffffffffffffffffffffffffffffff1673ffffffffffffffffffffffffffffffffffffffff16815260200190815260200160002060088060200260405190810160405280929190826008801562002cd8576020028201915b81548152602001906001019080831162002cc3575b5050505050905090565b600033905090565b62002d848160405160240162002d01919062003ab6565b6040516020818303038152906040527f41304fac000000000000000000000000000000000000000000000000000000007bffffffffffffffffffffffffffffffffffffffffffffffffffffffff19166020820180517bffffffffffffffffffffffffffffffffffffffffffffffffffffffff838183161783525050505062002e5f565b50565b600062002d943062002e88565b15905090565b60008060029054906101000a900473ffffffffffffffffffffffffffffffffffffffff16905081600060026101000a81548173ffffffffffffffffffffffffffffffffffffffff021916908373ffffffffffffffffffffffffffffffffffffffff1602179055508173ffffffffffffffffffffffffffffffffffffffff168173ffffffffffffffffffffffffffffffffffffffff167f8be0079c531659141344cd1fd0a4f28419497f9722a3daafe3b4186f6b6457e060405160405180910390a35050565b60008151905060006a636f6e736f6c652e6c6f679050602083016000808483855afa5050505050565b6000808273ffffffffffffffffffffffffffffffffffffffff163b119050919050565b82805462002eb99062003fc4565b90600052602060002090601f01602090048101928262002edd576000855562002f29565b82601f1062002ef857803560ff191683800117855562002f29565b8280016001018555821562002f29579182015b8281111562002f2857823582559160200191906001019062002f0b565b5b50905062002f38919062002fbf565b5090565b610ffc80620044d283390190565b82805482825590600052602060002090810192821562002f89579160200282015b8281111562002f8857825182559160200191906001019062002f6b565b5b50905062002f98919062002fbf565b5090565b604051806101000160405280600890602082028036833780820191505090505090565b5b8082111562002fda57600081600090555060010162002fc0565b5090565b600062002ff562002fef8462003cda565b62003cb1565b905080838252602082019050828560208602820111156200301b576200301a62004144565b5b60005b858110156200304f5781620030348882620030d4565b8452602084019350602083019250506001810190506200301e565b5050509392505050565b6000620030706200306a8462003d09565b62003cb1565b9050808382526020820190508285602086028201111562003096576200309562004144565b5b60005b85811015620030ca5781620030af8882620031de565b84526020840193506020830192505060018101905062003099565b5050509392505050565b600081359050620030e58162004483565b92915050565b600082601f8301126200310357620031026200413f565b5b81356200311584826020860162002fde565b91505092915050565b600082601f8301126200313657620031356200413f565b5b81356200314884826020860162003059565b91505092915050565b60008135905062003162816200449d565b92915050565b60008151905062003179816200449d565b92915050565b60008083601f8401126200319857620031976200413f565b5b8235905067ffffffffffffffff811115620031b857620031b76200413a565b5b602083019150836001820283011115620031d757620031d662004144565b5b9250929050565b600081359050620031ef81620044b7565b92915050565b6000815190506200320681620044b7565b92915050565b6000602082840312156200322557620032246200414e565b5b60006200323584828501620030d4565b91505092915050565b600080604083850312156200325857620032576200414e565b5b60006200326885828601620030d4565b92505060206200327b85828601620031de565b9150509250929050565b6000602082840312156200329e576200329d6200414e565b5b600082013567ffffffffffffffff811115620032bf57620032be62004149565b5b620032cd84828501620030eb565b91505092915050565b600060208284031215620032ef57620032ee6200414e565b5b600082013567ffffffffffffffff81111562003310576200330f62004149565b5b6200331e848285016200311e565b91505092915050565b60006020828403121562003340576200333f6200414e565b5b6000620033508482850162003168565b91505092915050565b60008060008060008060008060008060006101408c8e0312156200338257620033816200414e565b5b60008c013567ffffffffffffffff811115620033a357620033a262004149565b5b620033b18e828f016200317f565b9b509b50506020620033c68e828f01620031de565b9950506040620033d98e828f0162003151565b9850506060620033ec8e828f01620030d4565b9750506080620033ff8e828f01620030d4565b96505060a0620034128e828f01620030d4565b95505060c0620034258e828f01620030d4565b94505060e0620034388e828f01620030d4565b9350506101006200344c8e828f01620030d4565b925050610120620034608e828f01620030d4565b9150509295989b509295989b9093969950565b6000602082840312156200348c576200348b6200414e565b5b60006200349c84828501620031de565b91505092915050565b600060208284031215620034be57620034bd6200414e565b5b6000620034ce84828501620031f5565b91505092915050565b6000620034e58383620038dc565b60208301905092915050565b620034fc8162003ed9565b82525050565b8082525050565b620035148162003d67565b62003520818462003da2565b92506200352d8262003d38565b8060005b8381101562003564578151620035488782620034d7565b9650620035558362003d88565b92505060018101905062003531565b505050505050565b6000620035798262003d72565b62003585818562003dad565b9350620035928362003d42565b8060005b83811015620035c9578151620035ad8882620034d7565b9750620035ba8362003d95565b92505060018101905062003596565b5085935050505092915050565b620035e18162003eed565b82525050565b620035f28162003f23565b82525050565b8082525050565b8082525050565b8082525050565b8082525050565b6000620036218262003d7d565b6200362d818562003dbe565b93506200363f81856020860162003f5f565b6200364a8162004153565b840191505092915050565b60008154620036648162003fc4565b62003670818662003dcf565b945060018216600081146200368e5760018114620036a157620036d8565b60ff1983168652602086019350620036d8565b620036ac8562003d52565b60005b83811015620036d057815481890152600182019150602081019050620036af565b808801955050505b50505092915050565b6000620036f060268362003dbe565b9150620036fd8262004164565b604082019050919050565b600062003717601d8362003dbe565b91506200372482620041b3565b602082019050919050565b60006200373e60238362003dbe565b91506200374b82620041dc565b604082019050919050565b600062003765601a8362003dbe565b915062003772826200422b565b602082019050919050565b60006200378c60258362003dbe565b9150620037998262004254565b604082019050919050565b6000620037b3601e8362003dbe565b9150620037c082620042a3565b602082019050919050565b6000620037da602e8362003dbe565b9150620037e782620042cc565b604082019050919050565b60006200380160208362003dbe565b91506200380e826200431b565b602082019050919050565b60006200382860178362003dbe565b9150620038358262004344565b602082019050919050565b60006200384f60418362003dbe565b91506200385c826200436d565b606082019050919050565b60006200387660248362003dbe565b91506200388382620043e2565b604082019050919050565b60006200389d601f8362003dbe565b9150620038aa8262004431565b602082019050919050565b6000620038c460178362003dbe565b9150620038d1826200445a565b602082019050919050565b620038e78162003f19565b82525050565b620038f88162003f19565b82525050565b620039098162003f19565b82525050565b6000602082019050620039266000830184620034f1565b92915050565b6000606082019050620039436000830186620034f1565b620039526020830185620034f1565b620039616040830184620038ed565b949350505050565b6000604082019050620039806000830185620034f1565b6200398f6020830184620038ed565b9392505050565b600061010082019050620039ae600083018462003509565b92915050565b60006020820190508181036000830152620039d081846200356c565b905092915050565b6000602082019050620039ef6000830184620035d6565b92915050565b600060808201905062003a0c60008301876200360d565b62003a1b602083018662003502565b62003a2a6040830185620038fe565b818103606083015262003a3e818462003655565b905095945050505050565b600060c08201905062003a6060008301896200360d565b62003a6f6020830188620038fe565b62003a7e6040830187620035e7565b62003a8d6060830186620035f8565b62003a9c608083018562003606565b62003aab60a0830184620035ff565b979650505050505050565b6000602082019050818103600083015262003ad2818462003614565b905092915050565b6000602082019050818103600083015262003af581620036e1565b9050919050565b6000602082019050818103600083015262003b178162003708565b9050919050565b6000602082019050818103600083015262003b39816200372f565b9050919050565b6000602082019050818103600083015262003b5b8162003756565b9050919050565b6000602082019050818103600083015262003b7d816200377d565b9050919050565b6000602082019050818103600083015262003b9f81620037a4565b9050919050565b6000602082019050818103600083015262003bc181620037cb565b9050919050565b6000602082019050818103600083015262003be381620037f2565b9050919050565b6000602082019050818103600083015262003c058162003819565b9050919050565b6000602082019050818103600083015262003c278162003840565b9050919050565b6000602082019050818103600083015262003c498162003867565b9050919050565b6000602082019050818103600083015262003c6b816200388e565b9050919050565b6000602082019050818103600083015262003c8d81620038b5565b9050919050565b600060208201905062003cab6000830184620038ed565b92915050565b600062003cbd62003cd0565b905062003ccb828262003ffa565b919050565b6000604051905090565b600067ffffffffffffffff82111562003cf85762003cf76200410b565b5b602082029050602081019050919050565b600067ffffffffffffffff82111562003d275762003d266200410b565b5b602082029050602081019050919050565b6000819050919050565b6000819050602082019050919050565b60008190508160005260206000209050919050565b600060089050919050565b600081519050919050565b600081519050919050565b6000602082019050919050565b6000602082019050919050565b600081905092915050565b600082825260208201905092915050565b600082825260208201905092915050565b600082825260208201905092915050565b600062003ded8262003f19565b915062003dfa8362003f19565b9250827fffffffffffffffffffffffffffffffffffffffffffffffffffffffffffffffff0382111562003e325762003e316200407e565b5b828201905092915050565b600062003e4a8262003f19565b915062003e578362003f19565b9250817fffffffffffffffffffffffffffffffffffffffffffffffffffffffffffffffff048311821515161562003e935762003e926200407e565b5b828202905092915050565b600062003eab8262003f19565b915062003eb88362003f19565b92508282101562003ece5762003ecd6200407e565b5b828203905092915050565b600062003ee68262003ef9565b9050919050565b60008115159050919050565b600073ffffffffffffffffffffffffffffffffffffffff82169050919050565b6000819050919050565b600062003f308262003f37565b9050919050565b600062003f448262003f4b565b9050919050565b600062003f588262003ef9565b9050919050565b60005b8381101562003f7f57808201518184015260208101905062003f62565b8381111562003f8f576000848401525b50505050565b600062003fa28262003f19565b9150600082141562003fb95762003fb86200407e565b5b600182039050919050565b6000600282049050600182168062003fdd57607f821691505b6020821081141562003ff45762003ff3620040ad565b5b50919050565b620040058262004153565b810181811067ffffffffffffffff821117156200402757620040266200410b565b5b80604052505050565b60006200403d8262003f19565b91507fffffffffffffffffffffffffffffffffffffffffffffffffffffffffffffffff8214156200407357620040726200407e565b5b600182019050919050565b7f4e487b7100000000000000000000000000000000000000000000000000000000600052601160045260246000fd5b7f4e487b7100000000000000000000000000000000000000000000000000000000600052602260045260246000fd5b7f4e487b7100000000000000000000000000000000000000000000000000000000600052603260045260246000fd5b7f4e487b7100000000000000000000000000000000000000000000000000000000600052604160045260246000fd5b600080fd5b600080fd5b600080fd5b600080fd5b600080fd5b6000601f19601f8301169050919050565b7f4f776e61626c653a206e6577206f776e657220697320746865207a65726f206160008201527f6464726573730000000000000000000000000000000000000000000000000000602082015250565b7f496e737566666963656e742066756e647320666f72207374616b696e67000000600082015250565b7f596f75206861766520616c7265616479206a6f696e65642074686973206c656160008201527f6775650000000000000000000000000000000000000000000000000000000000602082015250565b7f55736572206973206e6f742077686974656c6973746564203a28000000000000600082015250565b7f4475706c6963617465206174686c65746549447320617265206e6f7420616c6c60008201527f6f7765642e000000000000000000000000000000000000000000000000000000602082015250565b7f6c696e657570206973206c6f636b656420666f7220746865207765656b210000600082015250565b7f496e697469616c697a61626c653a20636f6e747261637420697320616c72656160008201527f647920696e697469616c697a6564000000000000000000000000000000000000602082015250565b7f4f776e61626c653a2063616c6c6572206973206e6f7420746865206f776e6572600082015250565b7f43616c6c6572206973206e6f74207468652061646d696e000000000000000000600082015250565b7f4e6f626f64792063616e20656e7465722f6578697420746865206c656167756560008201527f20616e796d6f72652e2054686520736561736f6e20686173207374617274656460208201527f2100000000000000000000000000000000000000000000000000000000000000604082015250565b7f43616c6c657220646f6573206e6f74206f776e20676976656e206174686c657460008201527f6549647300000000000000000000000000000000000000000000000000000000602082015250565b7f5265656e7472616e637947756172643a207265656e7472616e742063616c6c00600082015250565b7f4c656167756520456e74727920697320436c6f73656421000000000000000000600082015250565b6200448e8162003ed9565b81146200449a57600080fd5b50565b620044a88162003eed565b8114620044b457600080fd5b50565b620044c28162003f19565b8114620044ce57600080fd5b5056fe608060405234801561001057600080fd5b5061002d61002261003260201b60201c565b61003a60201b60201c565b6100fe565b600033905090565b60008060009054906101000a900473ffffffffffffffffffffffffffffffffffffffff169050816000806101000a81548173ffffffffffffffffffffffffffffffffffffffff021916908373ffffffffffffffffffffffffffffffffffffffff1602179055508173ffffffffffffffffffffffffffffffffffffffff168173ffffffffffffffffffffffffffffffffffffffff167f8be0079c531659141344cd1fd0a4f28419497f9722a3daafe3b4186f6b6457e060405160405180910390a35050565b610eef8061010d6000396000f3fe608060405234801561001057600080fd5b506004361061009e5760003560e01c80638da5cb5b116100665780638da5cb5b1461015b5780639b19251a14610179578063dc9a1535146101a9578063e2ec6ec3146101c7578063f2fde38b146101f75761009e565b806324953eaa146100a3578063286dd3f5146100d357806344eaa84e14610103578063715018a6146101215780637b9417c81461012b575b600080fd5b6100bd60048036038101906100b89190610a7d565b610213565b6040516100ca9190610b54565b60405180910390f35b6100ed60048036038101906100e89190610a50565b6102fd565b6040516100fa9190610b54565b60405180910390f35b61010b610480565b6040516101189190610baf565b60405180910390f35b61012961048a565b005b61014560048036038101906101409190610a50565b610512565b6040516101529190610b54565b60405180910390f35b610163610693565b6040516101709190610b39565b60405180910390f35b610193600480360381019061018e9190610a50565b6106bc565b6040516101a09190610b54565b60405180910390f35b6101b16106dc565b6040516101be9190610b54565b60405180910390f35b6101e160048036038101906101dc9190610a7d565b6106ef565b6040516101ee9190610b54565b60405180910390f35b610211600480360381019061020c9190610a50565b6107d9565b005b600061021d6108d1565b73ffffffffffffffffffffffffffffffffffffffff1661023b610693565b73ffffffffffffffffffffffffffffffffffffffff1614610291576040517f08c379a000000000000000000000000000000000000000000000000000000000815260040161028890610b8f565b60405180910390fd5b60005b82518110156102f7576102c08382815181106102b3576102b2610da7565b5b60200260200101516102fd565b156102e4576001600260008282546102d89190610c82565b92505081905550600191505b80806102ef90610d2f565b915050610294565b50919050565b60006103076108d1565b73ffffffffffffffffffffffffffffffffffffffff16610325610693565b73ffffffffffffffffffffffffffffffffffffffff161461037b576040517f08c379a000000000000000000000000000000000000000000000000000000000815260040161037290610b8f565b60405180910390fd5b600160008373ffffffffffffffffffffffffffffffffffffffff1673ffffffffffffffffffffffffffffffffffffffff16815260200190815260200160002060009054906101000a900460ff161561047b576000600160008473ffffffffffffffffffffffffffffffffffffffff1673ffffffffffffffffffffffffffffffffffffffff16815260200190815260200160002060006101000a81548160ff0219169083151502179055507ff1abf01a1043b7c244d128e8595cf0c1d10743b022b03a02dffd8ca3bf729f5a826040516104549190610b39565b60405180910390a160016002600082825461046f9190610c82565b92505081905550600190505b919050565b6000600254905090565b6104926108d1565b73ffffffffffffffffffffffffffffffffffffffff166104b0610693565b73ffffffffffffffffffffffffffffffffffffffff1614610506576040517f08c379a00000000000000000000000000000000000000000000000000000000081526004016104fd90610b8f565b60405180910390fd5b61051060006108d9565b565b600061051c6108d1565b73ffffffffffffffffffffffffffffffffffffffff1661053a610693565b73ffffffffffffffffffffffffffffffffffffffff1614610590576040517f08c379a000000000000000000000000000000000000000000000000000000000815260040161058790610b8f565b60405180910390fd5b600160008373ffffffffffffffffffffffffffffffffffffffff1673ffffffffffffffffffffffffffffffffffffffff16815260200190815260200160002060009054906101000a900460ff1661068e5760018060008473ffffffffffffffffffffffffffffffffffffffff1673ffffffffffffffffffffffffffffffffffffffff16815260200190815260200160002060006101000a81548160ff0219169083151502179055507fd1bba68c128cc3f427e5831b3c6f99f480b6efa6b9e80c757768f6124158cc3f826040516106679190610b39565b60405180910390a16001600260008282546106829190610c2c565b92505081905550600190505b919050565b60008060009054906101000a900473ffffffffffffffffffffffffffffffffffffffff16905090565b60016020528060005260406000206000915054906101000a900460ff1681565b600360009054906101000a900460ff1681565b60006106f96108d1565b73ffffffffffffffffffffffffffffffffffffffff16610717610693565b73ffffffffffffffffffffffffffffffffffffffff161461076d576040517f08c379a000000000000000000000000000000000000000000000000000000000815260040161076490610b8f565b60405180910390fd5b60005b82518110156107d35761079c83828151811061078f5761078e610da7565b5b6020026020010151610512565b156107c0576001600260008282546107b49190610c2c565b92505081905550600191505b80806107cb90610d2f565b915050610770565b50919050565b6107e16108d1565b73ffffffffffffffffffffffffffffffffffffffff166107ff610693565b73ffffffffffffffffffffffffffffffffffffffff1614610855576040517f08c379a000000000000000000000000000000000000000000000000000000000815260040161084c90610b8f565b60405180910390fd5b600073ffffffffffffffffffffffffffffffffffffffff168173ffffffffffffffffffffffffffffffffffffffff1614156108c5576040517f08c379a00000000000000000000000000000000000000000000000000000000081526004016108bc90610b6f565b60405180910390fd5b6108ce816108d9565b50565b600033905090565b60008060009054906101000a900473ffffffffffffffffffffffffffffffffffffffff169050816000806101000a81548173ffffffffffffffffffffffffffffffffffffffff021916908373ffffffffffffffffffffffffffffffffffffffff1602179055508173ffffffffffffffffffffffffffffffffffffffff168173ffffffffffffffffffffffffffffffffffffffff167f8be0079c531659141344cd1fd0a4f28419497f9722a3daafe3b4186f6b6457e060405160405180910390a35050565b60006109b06109ab84610bef565b610bca565b905080838252602082019050828560208602820111156109d3576109d2610e0a565b5b60005b85811015610a0357816109e98882610a0d565b8452602084019350602083019250506001810190506109d6565b5050509392505050565b600081359050610a1c81610ea2565b92915050565b600082601f830112610a3757610a36610e05565b5b8135610a4784826020860161099d565b91505092915050565b600060208284031215610a6657610a65610e14565b5b6000610a7484828501610a0d565b91505092915050565b600060208284031215610a9357610a92610e14565b5b600082013567ffffffffffffffff811115610ab157610ab0610e0f565b5b610abd84828501610a22565b91505092915050565b610acf81610cb6565b82525050565b610ade81610cc8565b82525050565b6000610af1602683610c1b565b9150610afc82610e2a565b604082019050919050565b6000610b14602083610c1b565b9150610b1f82610e79565b602082019050919050565b610b3381610cf4565b82525050565b6000602082019050610b4e6000830184610ac6565b92915050565b6000602082019050610b696000830184610ad5565b92915050565b60006020820190508181036000830152610b8881610ae4565b9050919050565b60006020820190508181036000830152610ba881610b07565b9050919050565b6000602082019050610bc46000830184610b2a565b92915050565b6000610bd4610be5565b9050610be08282610cfe565b919050565b6000604051905090565b600067ffffffffffffffff821115610c0a57610c09610dd6565b5b602082029050602081019050919050565b600082825260208201905092915050565b6000610c3782610cf4565b9150610c4283610cf4565b9250827fffffffffffffffffffffffffffffffffffffffffffffffffffffffffffffffff03821115610c7757610c76610d78565b5b828201905092915050565b6000610c8d82610cf4565b9150610c9883610cf4565b925082821015610cab57610caa610d78565b5b828203905092915050565b6000610cc182610cd4565b9050919050565b60008115159050919050565b600073ffffffffffffffffffffffffffffffffffffffff82169050919050565b6000819050919050565b610d0782610e19565b810181811067ffffffffffffffff82111715610d2657610d25610dd6565b5b80604052505050565b6000610d3a82610cf4565b91507fffffffffffffffffffffffffffffffffffffffffffffffffffffffffffffffff821415610d6d57610d6c610d78565b5b600182019050919050565b7f4e487b7100000000000000000000000000000000000000000000000000000000600052601160045260246000fd5b7f4e487b7100000000000000000000000000000000000000000000000000000000600052603260045260246000fd5b7f4e487b7100000000000000000000000000000000000000000000000000000000600052604160045260246000fd5b600080fd5b600080fd5b600080fd5b600080fd5b6000601f19601f8301169050919050565b7f4f776e61626c653a206e6577206f776e657220697320746865207a65726f206160008201527f6464726573730000000000000000000000000000000000000000000000000000602082015250565b7f4f776e61626c653a2063616c6c6572206973206e6f7420746865206f776e6572600082015250565b610eab81610cb6565b8114610eb657600080fd5b5056fea2646970667358221220ce5a8c1ac30aa67d0790f09c9f63c08184d23037427080e7e9705621c914926764736f6c63430008070033a264697066735822122013bf7abe218548124fbe743692372ef77b11eb3721aa47a8198cd81e11556e0564736f6c63430008070033",
  "linkReferences": {
    "contracts/MOBALogicLibrary.sol": {
      "MOBALogicLibrary": [
        {
          "length": 20,
          "start": 2452
        },
        {
          "length": 20,
          "start": 7896
        }
      ]
    }
  },
  "deployedLinkReferences": {
    "contracts/MOBALogicLibrary.sol": {
      "MOBALogicLibrary": [
        {
          "length": 20,
          "start": 2167
        },
        {
          "length": 20,
          "start": 7611
        }
      ]
    }
  }
}