{
  "_format": "hh-sol-artifact-1",
  "contractName": "LeagueOfLegendsLogic",
  "sourceName": "contracts/LeagueOfLegendsLogic.sol",
  "abi": [
    {
      "anonymous": false,
      "inputs": [
        {
          "indexed": false,
          "internalType": "address",
          "name": "sender",
          "type": "address"
        },
        {
          "indexed": false,
          "internalType": "uint256",
          "name": "amount",
          "type": "uint256"
        },
        {
          "indexed": false,
          "internalType": "address",
          "name": "leagueAddress",
          "type": "address"
        }
      ],
      "name": "Staked",
      "type": "event"
    },
    {
      "anonymous": false,
      "inputs": [
        {
          "indexed": false,
          "internalType": "address[]",
          "name": "winner",
          "type": "address[]"
        },
        {
          "indexed": false,
          "internalType": "uint256",
          "name": "prizePotPerWinner",
          "type": "uint256"
        }
      ],
      "name": "leagueEnded",
      "type": "event"
    },
    {
      "anonymous": false,
      "inputs": [
        {
          "indexed": false,
          "internalType": "address",
          "name": "sender",
          "type": "address"
        },
        {
          "indexed": false,
          "internalType": "address",
          "name": "contractAddress",
          "type": "address"
        }
      ],
      "name": "testUSDCDeployed",
      "type": "event"
    },
    {
      "inputs": [
        {
          "internalType": "address",
          "name": "_userToAdd",
          "type": "address"
        }
      ],
      "name": "addUserToWhitelist",
      "outputs": [],
      "stateMutability": "nonpayable",
      "type": "function"
    },
    {
      "inputs": [],
      "name": "admin",
      "outputs": [
        {
          "internalType": "address",
          "name": "",
          "type": "address"
        }
      ],
      "stateMutability": "view",
      "type": "function"
    },
    {
      "inputs": [],
      "name": "currentWeekNum",
      "outputs": [
        {
          "internalType": "uint256",
          "name": "",
          "type": "uint256"
        }
      ],
      "stateMutability": "view",
      "type": "function"
    },
    {
      "inputs": [],
      "name": "evaluateMatches",
      "outputs": [],
      "stateMutability": "nonpayable",
      "type": "function"
    },
    {
      "inputs": [],
      "name": "getAdmin",
      "outputs": [
        {
          "internalType": "address",
          "name": "",
          "type": "address"
        }
      ],
      "stateMutability": "view",
      "type": "function"
    },
    {
      "inputs": [],
      "name": "getContractUSDCBalance",
      "outputs": [
        {
          "internalType": "uint256",
          "name": "",
          "type": "uint256"
        }
      ],
      "stateMutability": "view",
      "type": "function"
    },
    {
      "inputs": [
        {
          "internalType": "uint256",
          "name": "index",
          "type": "uint256"
        }
      ],
      "name": "getLeagueMember",
      "outputs": [
        {
          "internalType": "address",
          "name": "",
          "type": "address"
        }
      ],
      "stateMutability": "view",
      "type": "function"
    },
    {
      "inputs": [],
      "name": "getLeagueMembersLength",
      "outputs": [
        {
          "internalType": "uint256",
          "name": "",
          "type": "uint256"
        }
      ],
      "stateMutability": "view",
      "type": "function"
    },
    {
      "inputs": [
        {
          "internalType": "address",
          "name": "_user",
          "type": "address"
        }
      ],
      "name": "getLineup",
      "outputs": [
        {
          "internalType": "uint256[5]",
          "name": "",
          "type": "uint256[5]"
        }
      ],
      "stateMutability": "view",
      "type": "function"
    },
    {
      "inputs": [],
      "name": "getLineupIsLocked",
      "outputs": [
        {
          "internalType": "bool",
          "name": "",
          "type": "bool"
        }
      ],
      "stateMutability": "view",
      "type": "function"
    },
    {
      "inputs": [
        {
          "internalType": "uint256",
          "name": "_week",
          "type": "uint256"
        }
      ],
      "name": "getScheduleForWeek",
      "outputs": [
        {
          "components": [
            {
              "internalType": "address[2]",
              "name": "players",
              "type": "address[2]"
            }
          ],
          "internalType": "struct LeagueOfLegendsLogic.Matchup[]",
          "name": "",
          "type": "tuple[]"
        }
      ],
      "stateMutability": "view",
      "type": "function"
    },
    {
      "inputs": [],
      "name": "getUserRecord",
      "outputs": [
        {
          "internalType": "uint256[8]",
          "name": "",
          "type": "uint256[8]"
        }
      ],
      "stateMutability": "view",
      "type": "function"
    },
    {
      "inputs": [
        {
          "internalType": "address",
          "name": "",
          "type": "address"
        }
      ],
      "name": "inLeague",
      "outputs": [
        {
          "internalType": "bool",
          "name": "",
          "type": "bool"
        }
      ],
      "stateMutability": "view",
      "type": "function"
    },
    {
      "inputs": [
        {
          "internalType": "string",
          "name": "_name",
          "type": "string"
        },
        {
          "internalType": "uint256",
          "name": "_stakeAmount",
          "type": "uint256"
        },
        {
          "internalType": "bool",
          "name": "_isPublic",
          "type": "bool"
        },
        {
          "internalType": "address",
          "name": "athletesDataStorageAddress",
          "type": "address"
        },
        {
          "internalType": "address",
          "name": "_admin",
          "type": "address"
        },
        {
          "internalType": "address",
          "name": "_rinkebyUSDCAddress",
          "type": "address"
        },
        {
          "internalType": "address",
          "name": "_testUSDCAddress",
          "type": "address"
        },
        {
          "internalType": "address",
          "name": "_gameItemsContractAddress",
          "type": "address"
        },
        {
          "internalType": "address",
          "name": "_teamDiffAddress",
          "type": "address"
        },
        {
          "internalType": "address",
          "name": "_leagueMakerContractAddress",
          "type": "address"
        }
      ],
      "name": "initialize",
      "outputs": [],
      "stateMutability": "nonpayable",
      "type": "function"
    },
    {
      "inputs": [],
      "name": "joinLeague",
      "outputs": [],
      "stateMutability": "nonpayable",
      "type": "function"
    },
    {
      "inputs": [],
      "name": "leagueEntryIsClosed",
      "outputs": [
        {
          "internalType": "bool",
          "name": "",
          "type": "bool"
        }
      ],
      "stateMutability": "view",
      "type": "function"
    },
    {
      "inputs": [
        {
          "internalType": "uint256",
          "name": "",
          "type": "uint256"
        }
      ],
      "name": "leagueMembers",
      "outputs": [
        {
          "internalType": "address",
          "name": "",
          "type": "address"
        }
      ],
      "stateMutability": "view",
      "type": "function"
    },
    {
      "inputs": [],
      "name": "leagueName",
      "outputs": [
        {
          "internalType": "string",
          "name": "",
          "type": "string"
        }
      ],
      "stateMutability": "view",
      "type": "function"
    },
    {
      "inputs": [],
      "name": "lineupIsLocked",
      "outputs": [
        {
          "internalType": "bool",
          "name": "",
          "type": "bool"
        }
      ],
      "stateMutability": "view",
      "type": "function"
    },
    {
      "inputs": [],
      "name": "lockLineup",
      "outputs": [],
      "stateMutability": "nonpayable",
      "type": "function"
    },
    {
      "inputs": [],
      "name": "numWeeks",
      "outputs": [
        {
          "internalType": "uint256",
          "name": "",
          "type": "uint256"
        }
      ],
      "stateMutability": "view",
      "type": "function"
    },
    {
      "inputs": [],
      "name": "onLeagueEnd",
      "outputs": [],
      "stateMutability": "nonpayable",
      "type": "function"
    },
    {
      "inputs": [
        {
          "internalType": "address",
          "name": "_userToRemove",
          "type": "address"
        }
      ],
      "name": "removeFromWhitelist",
      "outputs": [],
      "stateMutability": "nonpayable",
      "type": "function"
    },
    {
      "inputs": [],
      "name": "rinkebyUSDC",
      "outputs": [
        {
          "internalType": "contract IERC20",
          "name": "",
          "type": "address"
        }
      ],
      "stateMutability": "view",
      "type": "function"
    },
    {
      "inputs": [
        {
          "internalType": "uint256",
          "name": "athleteId",
          "type": "uint256"
        },
        {
          "internalType": "uint256",
          "name": "position",
          "type": "uint256"
        }
      ],
      "name": "setAthleteInLineup",
      "outputs": [],
      "stateMutability": "nonpayable",
      "type": "function"
    },
    {
      "inputs": [],
      "name": "setLeagueEntryIsClosed",
      "outputs": [],
      "stateMutability": "nonpayable",
      "type": "function"
    },
    {
      "inputs": [],
      "name": "setLeagueSchedule",
      "outputs": [],
      "stateMutability": "nonpayable",
      "type": "function"
    },
    {
      "inputs": [
        {
          "internalType": "uint256[5]",
          "name": "athleteIds",
          "type": "uint256[5]"
        }
      ],
      "name": "setLineup",
      "outputs": [],
      "stateMutability": "nonpayable",
      "type": "function"
    },
    {
      "inputs": [],
      "name": "stakeAmount",
      "outputs": [
        {
          "internalType": "uint256",
          "name": "",
          "type": "uint256"
        }
      ],
      "stateMutability": "view",
      "type": "function"
    },
    {
      "inputs": [],
      "name": "teamDiffAddress",
      "outputs": [
        {
          "internalType": "address",
          "name": "",
          "type": "address"
        }
      ],
      "stateMutability": "view",
      "type": "function"
    },
    {
      "inputs": [],
      "name": "testUSDC",
      "outputs": [
        {
          "internalType": "contract IERC20",
          "name": "",
          "type": "address"
        }
      ],
      "stateMutability": "view",
      "type": "function"
    },
    {
      "inputs": [],
      "name": "unlockLineup",
      "outputs": [],
      "stateMutability": "nonpayable",
      "type": "function"
    },
    {
      "inputs": [
        {
          "internalType": "address",
          "name": "",
          "type": "address"
        },
        {
          "internalType": "uint256",
          "name": "",
          "type": "uint256"
        }
      ],
      "name": "userToLineup",
      "outputs": [
        {
          "internalType": "uint256",
          "name": "",
          "type": "uint256"
        }
      ],
      "stateMutability": "view",
      "type": "function"
    },
    {
      "inputs": [
        {
          "internalType": "address",
          "name": "",
          "type": "address"
        }
      ],
      "name": "userToPoints",
      "outputs": [
        {
          "internalType": "uint256",
          "name": "",
          "type": "uint256"
        }
      ],
      "stateMutability": "view",
      "type": "function"
    },
    {
      "inputs": [
        {
          "internalType": "address",
          "name": "",
          "type": "address"
        },
        {
          "internalType": "uint256",
          "name": "",
          "type": "uint256"
        }
      ],
      "name": "userToRecord",
      "outputs": [
        {
          "internalType": "uint256",
          "name": "",
          "type": "uint256"
        }
      ],
      "stateMutability": "view",
      "type": "function"
    },
    {
      "inputs": [],
      "name": "whitelistContract",
      "outputs": [
        {
          "internalType": "contract Whitelist",
          "name": "",
          "type": "address"
        }
      ],
      "stateMutability": "view",
      "type": "function"
    }
  ],
  "bytecode": "0x608060405234801561001057600080fd5b506001808190555061573a806100276000396000f3fe60806040523480156200001157600080fd5b50600436106200024f5760003560e01c80636e9960c31162000141578063b47f862811620000bd578063e4c9066b1162000087578063e4c9066b146200065c578063e5f7322f1462000668578063ee90080f146200069e578063f851a44014620006d4578063f881604514620006f6576200024f565b8063b47f862814620005ee578063c8be3b5b146200060e578063c99fea94146200061a578063cff560031462000626576200024f565b806384900b04116200010b57806384900b0414620005485780638ab1d681146200056a5780639122ce6d146200058a578063a2bc091a14620005c0578063a949a9d714620005cc576200024f565b80636e9960c314620004c2578063747b805014620004e45780637eed33f11462000504578063841abf6e1462000526576200024f565b80632ae6b13511620001d157806352e6e5f3116200019b57806352e6e5f3146200041a57806360c7dc47146200043c57806363c665f7146200045e57806366aab25614620004805780636cc15ad514620004a0576200024f565b80632ae6b13514620003825780632d382ee014620003b8578063305a578214620003ee5780633c3ae13f14620003fa576200024f565b80630c6f7959116200021f5780630c6f795914620002c65780631d803e0014620002fc5780631dd7f8ca1462000308578063267175db146200032a57806327311b321462000360576200024f565b80622772c21462000254578063022e35e614620002765780630635dbcb14620002985780630655465a14620002ba575b600080fd5b6200025e62000718565b6040516200026d919062003c09565b60405180910390f35b62000280620007d0565b6040516200028f91906200399d565b60405180910390f35b620002a2620007f6565b604051620002b1919062003980565b60405180910390f35b620002c462000809565b005b620002e46004803603810190620002de919062002ee1565b62000914565b604051620002f3919062003c09565b60405180910390f35b620003066200093d565b005b6200031262000cfd565b604051620003219190620037e5565b60405180910390f35b620003486004803603810190620003429190620030a6565b62000d23565b604051620003579190620037e5565b60405180910390f35b6200036a62000d63565b60405162000379919062003980565b60405180910390f35b620003a060048036038101906200039a919062002eaf565b62000d7a565b604051620003af919062003c09565b60405180910390f35b620003d66004803603810190620003d09190620030a6565b62000d92565b604051620003e5919062003921565b60405180910390f35b620003f862000e83565b005b62000418600480360381019062000412919062002f8c565b62000ffb565b005b62000424620013cc565b60405162000433919062003c09565b60405180910390f35b62000446620013d2565b60405162000455919062003c09565b60405180910390f35b62000468620013d8565b60405162000477919062003c09565b60405180910390f35b6200049e600480360381019062000498919062002f28565b620013e5565b005b620004aa6200188c565b604051620004b9919062003980565b60405180910390f35b620004cc6200189f565b604051620004db9190620037e5565b60405180910390f35b620005026004803603810190620004fc919062002eaf565b620018c9565b005b6200050e62001a13565b6040516200051d919062003c09565b60405180910390f35b6200053062001a19565b6040516200053f919062003a2b565b60405180910390f35b6200055262001aaf565b604051620005619190620039ba565b60405180910390f35b62000588600480360381019062000582919062002eaf565b62001ad5565b005b620005a86004803603810190620005a2919062002eaf565b62001c72565b604051620005b7919062003980565b60405180910390f35b620005ca62001c92565b005b620005d662001d42565b604051620005e591906200399d565b60405180910390f35b6200060c60048036038101906200060691906200310a565b62001d68565b005b620006186200202a565b005b62000624620020da565b005b6200064460048036038101906200063e919062002ee1565b620027f6565b60405162000653919062003c09565b60405180910390f35b620006666200281f565b005b62000686600480360381019062000680919062002eaf565b620028cf565b60405162000695919062003945565b60405180910390f35b620006bc6004803603810190620006b69190620030a6565b6200295d565b604051620006cb9190620037e5565b60405180910390f35b620006de620029a8565b604051620006ed9190620037e5565b60405180910390f35b62000700620029ce565b6040516200070f919062003962565b60405180910390f35b6000601460009054906101000a900473ffffffffffffffffffffffffffffffffffffffff1673ffffffffffffffffffffffffffffffffffffffff166370a08231306040518263ffffffff1660e01b8152600401620007779190620037e5565b60206040518083038186803b1580156200079057600080fd5b505afa158015620007a5573d6000803e3d6000fd5b505050506040513d601f19601f82011682018060405250810190620007cb9190620030d8565b905090565b601360009054906101000a900473ffffffffffffffffffffffffffffffffffffffff1681565b600760159054906101000a900460ff1681565b600760009054906101000a900473ffffffffffffffffffffffffffffffffffffffff1673ffffffffffffffffffffffffffffffffffffffff163373ffffffffffffffffffffffffffffffffffffffff16146200089c576040517f08c379a0000000000000000000000000000000000000000000000000000000008152600401620008939062003b3d565b60405180910390fd5b73__$36fdb4e0c2cb91f3ceca5ea81b025328f3$__63d2c232b5600f600d60035460026040518563ffffffff1660e01b8152600401620008e09493929190620039d7565b60006040518083038186803b158015620008f957600080fd5b505af41580156200090e573d6000803e3d6000fd5b50505050565b600960205281600052604060002081600881106200093157600080fd5b01600091509150505481565b600760009054906101000a900473ffffffffffffffffffffffffffffffffffffffff1673ffffffffffffffffffffffffffffffffffffffff163373ffffffffffffffffffffffffffffffffffffffff1614620009d0576040517f08c379a0000000000000000000000000000000000000000000000000000000008152600401620009c79062003b3d565b60405180910390fd5b6000600454600d80549050620009e7919062003ecb565b905073__$36fdb4e0c2cb91f3ceca5ea81b025328f3$__63cc9b40cc600d600b600e6040518463ffffffff1660e01b815260040162000a2993929190620038a9565b60006040518083038186803b15801562000a4257600080fd5b505af415801562000a57573d6000803e3d6000fd5b5050505060005b600e8054905081101562000ace5762000ab8600e828154811062000a875762000a86620041ff565b5b9060005260206000200160009054906101000a900473ffffffffffffffffffffffffffffffffffffffff1662002a5a565b808062000ac59062004124565b91505062000a5e565b506000600e805490508262000ae4919062003e93565b90507f648f2405ea194f3e49fe1655279883b3474e63909ab7e4a579b051d548ad8389600e8260405162000b1a929190620038ed565b60405180910390a160005b600e8054905081101562000cf857601360009054906101000a900473ffffffffffffffffffffffffffffffffffffffff1673ffffffffffffffffffffffffffffffffffffffff1663095ea7b330846040518363ffffffff1660e01b815260040162000b929291906200383f565b602060405180830381600087803b15801562000bad57600080fd5b505af115801562000bc2573d6000803e3d6000fd5b505050506040513d601f19601f8201168201806040525081019062000be8919062002f5a565b50601360009054906101000a900473ffffffffffffffffffffffffffffffffffffffff1673ffffffffffffffffffffffffffffffffffffffff166323b872dd30600e848154811062000c3f5762000c3e620041ff565b5b9060005260206000200160009054906101000a900473ffffffffffffffffffffffffffffffffffffffff16856040518463ffffffff1660e01b815260040162000c8b9392919062003802565b602060405180830381600087803b15801562000ca657600080fd5b505af115801562000cbb573d6000803e3d6000fd5b505050506040513d601f19601f8201168201806040525081019062000ce1919062002f5a565b50808062000cef9062004124565b91505062000b25565b505050565b600760009054906101000a900473ffffffffffffffffffffffffffffffffffffffff1681565b600d818154811062000d3457600080fd5b906000526020600020016000915054906101000a900473ffffffffffffffffffffffffffffffffffffffff1681565b6000600760159054906101000a900460ff16905090565b600b6020528060005260406000206000915090505481565b6060600f6000838152602001908152602001600020805480602002602001604051908101604052809291908181526020016000905b8282101562000e7857838290600052602060002090600202016040518060200160405290816000820160028060200260405190810160405280929190826002801562000e5f576020028201915b8160009054906101000a900473ffffffffffffffffffffffffffffffffffffffff1673ffffffffffffffffffffffffffffffffffffffff168152602001906001019080831162000e14575b5050505050815250508152602001906001019062000dc7565b505050509050919050565b600760009054906101000a900473ffffffffffffffffffffffffffffffffffffffff1673ffffffffffffffffffffffffffffffffffffffff163373ffffffffffffffffffffffffffffffffffffffff161462000f16576040517f08c379a000000000000000000000000000000000000000000000000000000000815260040162000f0d9062003b3d565b60405180910390fd5b73__$36fdb4e0c2cb91f3ceca5ea81b025328f3$__6361cc9f39600554601060009054906101000a900473ffffffffffffffffffffffffffffffffffffffff166009600a600b600f6040518763ffffffff1660e01b815260040162000f819695949392919062003c26565b60006040518083038186803b15801562000f9a57600080fd5b505af415801562000faf573d6000803e3d6000fd5b50505050600160035462000fc4919062003f2c565b600554141562000fde5762000fd86200093d565b62000ff9565b6005600081548092919062000ff39062004124565b91905055505b565b600060019054906101000a900460ff16620010255760008054906101000a900460ff161562001030565b6200102f62002af7565b5b62001072576040517f08c379a0000000000000000000000000000000000000000000000000000000008152600401620010699062003af9565b60405180910390fd5b60008060019054906101000a900460ff161590508015620010c3576001600060016101000a81548160ff02191690831515021790555060016000806101000a81548160ff0219169083151502179055505b8b8b60029190620010d692919062002bf3565b50600860038190555086600660006101000a81548173ffffffffffffffffffffffffffffffffffffffff021916908373ffffffffffffffffffffffffffffffffffffffff160217905550896004819055506000600760146101000a81548160ff0219169083151502179055506000600760156101000a81548160ff02191690831515021790555087601060006101000a81548173ffffffffffffffffffffffffffffffffffffffff021916908373ffffffffffffffffffffffffffffffffffffffff16021790555081601260006101000a81548173ffffffffffffffffffffffffffffffffffffffff021916908373ffffffffffffffffffffffffffffffffffffffff16021790555088604051620011ee9062002c84565b620011fa919062003980565b604051809103906000f08015801562001217573d6000803e3d6000fd5b50601160006101000a81548173ffffffffffffffffffffffffffffffffffffffff021916908373ffffffffffffffffffffffffffffffffffffffff16021790555085601460006101000a81548173ffffffffffffffffffffffffffffffffffffffff021916908373ffffffffffffffffffffffffffffffffffffffff16021790555084601360006101000a81548173ffffffffffffffffffffffffffffffffffffffff021916908373ffffffffffffffffffffffffffffffffffffffff16021790555082600760006101000a81548173ffffffffffffffffffffffffffffffffffffffff021916908373ffffffffffffffffffffffffffffffffffffffff16021790555083601560006101000a81548173ffffffffffffffffffffffffffffffffffffffff021916908373ffffffffffffffffffffffffffffffffffffffff1602179055506200139c6040518060400160405280601281526020017f50726f787920696e697469616c697a656421000000000000000000000000000081525062002b0a565b8015620013be5760008060016101000a81548160ff0219169083151502179055505b505050505050505050505050565b60055481565b60045481565b6000600d80549050905090565b600760159054906101000a900460ff161562001438576040517f08c379a00000000000000000000000000000000000000000000000000000000081526004016200142f9062003ad7565b60405180910390fd5b600c60003373ffffffffffffffffffffffffffffffffffffffff1673ffffffffffffffffffffffffffffffffffffffff16815260200190815260200160002060009054906101000a900460ff16620014c7576040517f08c379a0000000000000000000000000000000000000000000000000000000008152600401620014be9062003b5f565b60405180910390fd5b60005b600a60003373ffffffffffffffffffffffffffffffffffffffff1673ffffffffffffffffffffffffffffffffffffffff168152602001908152602001600020506005811015620015c25760086000600a60003373ffffffffffffffffffffffffffffffffffffffff1673ffffffffffffffffffffffffffffffffffffffff16815260200190815260200160002083600581106200156c576200156b620041ff565b5b0154815260200190815260200160002060055460088110620015935762001592620041ff565b5b016000815480929190620015a7906200406b565b91905055508080620015b99062004124565b915050620014ca565b5060005b6005811015620017545760086000838360058110620015ea57620015e9620041ff565b5b6020020151815260200190815260200160002060055460088110620016145762001613620041ff565b5b016000815480929190620016289062004124565b91905055506000601560009054906101000a900473ffffffffffffffffffffffffffffffffffffffff1673ffffffffffffffffffffffffffffffffffffffff1662fdd58e33858560058110620016835762001682620041ff565b5b60200201516040518363ffffffff1660e01b8152600401620016a79291906200383f565b60206040518083038186803b158015620016c057600080fd5b505afa158015620016d5573d6000803e3d6000fd5b505050506040513d601f19601f82011682018060405250810190620016fb9190620030d8565b116200173e576040517f08c379a0000000000000000000000000000000000000000000000000000000008152600401620017359062003ba3565b60405180910390fd5b80806200174b9062004124565b915050620015c6565b5060005b60058110156200183757600a8162001771919062003ecb565b828260058110620017875762001786620041ff565b5b602002015110158015620017df57506001600a600183620017a9919062003e36565b620017b5919062003ecb565b620017c1919062003f2c565b828260058110620017d757620017d6620041ff565b5b602002015111155b62001821576040517f08c379a0000000000000000000000000000000000000000000000000000000008152600401620018189062003a93565b60405180910390fd5b80806200182e9062004124565b91505062001758565b5080600a60003373ffffffffffffffffffffffffffffffffffffffff1673ffffffffffffffffffffffffffffffffffffffff1681526020019081526020016000209060056200188892919062002c92565b5050565b600760149054906101000a900460ff1681565b6000600660009054906101000a900473ffffffffffffffffffffffffffffffffffffffff16905090565b600660009054906101000a900473ffffffffffffffffffffffffffffffffffffffff1673ffffffffffffffffffffffffffffffffffffffff163373ffffffffffffffffffffffffffffffffffffffff16146200195c576040517f08c379a0000000000000000000000000000000000000000000000000000000008152600401620019539062003b1b565b60405180910390fd5b601160009054906101000a900473ffffffffffffffffffffffffffffffffffffffff1673ffffffffffffffffffffffffffffffffffffffff16637b9417c8826040518263ffffffff1660e01b8152600401620019b99190620037e5565b602060405180830381600087803b158015620019d457600080fd5b505af1158015620019e9573d6000803e3d6000fd5b505050506040513d601f19601f8201168201806040525081019062001a0f919062002f5a565b5050565b60035481565b6002805462001a28906200409a565b80601f016020809104026020016040519081016040528092919081815260200182805462001a56906200409a565b801562001aa75780601f1062001a7b5761010080835404028352916020019162001aa7565b820191906000526020600020905b81548152906001019060200180831162001a8957829003601f168201915b505050505081565b601160009054906101000a900473ffffffffffffffffffffffffffffffffffffffff1681565b600660009054906101000a900473ffffffffffffffffffffffffffffffffffffffff1673ffffffffffffffffffffffffffffffffffffffff163373ffffffffffffffffffffffffffffffffffffffff161462001b68576040517f08c379a000000000000000000000000000000000000000000000000000000000815260040162001b5f9062003b1b565b60405180910390fd5b600760149054906101000a900460ff161562001bbb576040517f08c379a000000000000000000000000000000000000000000000000000000000815260040162001bb29062003b81565b60405180910390fd5b601160009054906101000a900473ffffffffffffffffffffffffffffffffffffffff1673ffffffffffffffffffffffffffffffffffffffff1663286dd3f5826040518263ffffffff1660e01b815260040162001c189190620037e5565b602060405180830381600087803b15801562001c3357600080fd5b505af115801562001c48573d6000803e3d6000fd5b505050506040513d601f19601f8201168201806040525081019062001c6e919062002f5a565b5050565b600c6020528060005260406000206000915054906101000a900460ff1681565b600760009054906101000a900473ffffffffffffffffffffffffffffffffffffffff1673ffffffffffffffffffffffffffffffffffffffff163373ffffffffffffffffffffffffffffffffffffffff161462001d25576040517f08c379a000000000000000000000000000000000000000000000000000000000815260040162001d1c9062003b3d565b60405180910390fd5b6000600760156101000a81548160ff021916908315150217905550565b601460009054906101000a900473ffffffffffffffffffffffffffffffffffffffff1681565b600760159054906101000a900460ff161562001dbb576040517f08c379a000000000000000000000000000000000000000000000000000000000815260040162001db29062003ad7565b60405180910390fd5b600c60003373ffffffffffffffffffffffffffffffffffffffff1673ffffffffffffffffffffffffffffffffffffffff16815260200190815260200160002060009054906101000a900460ff1662001e4a576040517f08c379a000000000000000000000000000000000000000000000000000000000815260040162001e419062003b5f565b60405180910390fd5b6000601560009054906101000a900473ffffffffffffffffffffffffffffffffffffffff1673ffffffffffffffffffffffffffffffffffffffff1662fdd58e33856040518363ffffffff1660e01b815260040162001eaa9291906200383f565b60206040518083038186803b15801562001ec357600080fd5b505afa15801562001ed8573d6000803e3d6000fd5b505050506040513d601f19601f8201168201806040525081019062001efe9190620030d8565b1162001f41576040517f08c379a000000000000000000000000000000000000000000000000000000000815260040162001f389062003ba3565b60405180910390fd5b600a8162001f50919062003ecb565b821015801562001f8a57506001600a60018362001f6e919062003e36565b62001f7a919062003ecb565b62001f86919062003f2c565b8211155b62001fcc576040517f08c379a000000000000000000000000000000000000000000000000000000000815260040162001fc39062003a93565b60405180910390fd5b81600a60003373ffffffffffffffffffffffffffffffffffffffff1673ffffffffffffffffffffffffffffffffffffffff1681526020019081526020016000208260058110620020215762002020620041ff565b5b01819055505050565b600760009054906101000a900473ffffffffffffffffffffffffffffffffffffffff1673ffffffffffffffffffffffffffffffffffffffff163373ffffffffffffffffffffffffffffffffffffffff1614620020bd576040517f08c379a0000000000000000000000000000000000000000000000000000000008152600401620020b49062003b3d565b60405180910390fd5b6001600760156101000a81548160ff021916908315150217905550565b6002600154141562002123576040517f08c379a00000000000000000000000000000000000000000000000000000000081526004016200211a9062003bc5565b60405180910390fd5b6002600181905550601160009054906101000a900473ffffffffffffffffffffffffffffffffffffffff1673ffffffffffffffffffffffffffffffffffffffff16639b19251a336040518263ffffffff1660e01b8152600401620021889190620037e5565b60206040518083038186803b158015620021a157600080fd5b505afa158015620021b6573d6000803e3d6000fd5b505050506040513d601f19601f82011682018060405250810190620021dc919062002f5a565b80620022885750601160009054906101000a900473ffffffffffffffffffffffffffffffffffffffff1673ffffffffffffffffffffffffffffffffffffffff1663dc9a15356040518163ffffffff1660e01b815260040160206040518083038186803b1580156200224c57600080fd5b505afa15801562002261573d6000803e3d6000fd5b505050506040513d601f19601f8201168201806040525081019062002287919062002f5a565b5b80620022e15750600660009054906101000a900473ffffffffffffffffffffffffffffffffffffffff1673ffffffffffffffffffffffffffffffffffffffff163373ffffffffffffffffffffffffffffffffffffffff16145b62002323576040517f08c379a00000000000000000000000000000000000000000000000000000000081526004016200231a9062003ab5565b60405180910390fd5b600760149054906101000a900460ff161562002376576040517f08c379a00000000000000000000000000000000000000000000000000000000081526004016200236d9062003be7565b60405180910390fd5b600c60003373ffffffffffffffffffffffffffffffffffffffff1673ffffffffffffffffffffffffffffffffffffffff16815260200190815260200160002060009054906101000a900460ff161562002406576040517f08c379a0000000000000000000000000000000000000000000000000000000008152600401620023fd9062003a71565b60405180910390fd5b600454601360009054906101000a900473ffffffffffffffffffffffffffffffffffffffff1673ffffffffffffffffffffffffffffffffffffffff166370a08231336040518263ffffffff1660e01b8152600401620024669190620037e5565b60206040518083038186803b1580156200247f57600080fd5b505afa15801562002494573d6000803e3d6000fd5b505050506040513d601f19601f82011682018060405250810190620024ba9190620030d8565b11620024fd576040517f08c379a0000000000000000000000000000000000000000000000000000000008152600401620024f49062003a4f565b60405180910390fd5b601160009054906101000a900473ffffffffffffffffffffffffffffffffffffffff1673ffffffffffffffffffffffffffffffffffffffff1663dc9a15356040518163ffffffff1660e01b815260040160206040518083038186803b1580156200256657600080fd5b505afa1580156200257b573d6000803e3d6000fd5b505050506040513d601f19601f82011682018060405250810190620025a1919062002f5a565b156200263957601260009054906101000a900473ffffffffffffffffffffffffffffffffffffffff1673ffffffffffffffffffffffffffffffffffffffff1663771bd4ce336040518263ffffffff1660e01b8152600401620026049190620037e5565b600060405180830381600087803b1580156200261f57600080fd5b505af115801562002634573d6000803e3d6000fd5b505050505b6001600c60003373ffffffffffffffffffffffffffffffffffffffff1673ffffffffffffffffffffffffffffffffffffffff16815260200190815260200160002060006101000a81548160ff021916908315150217905550600d339080600181540180825580915050600190039060005260206000200160009091909190916101000a81548173ffffffffffffffffffffffffffffffffffffffff021916908373ffffffffffffffffffffffffffffffffffffffff160217905550601360009054906101000a900473ffffffffffffffffffffffffffffffffffffffff1673ffffffffffffffffffffffffffffffffffffffff166323b872dd33306004546040518463ffffffff1660e01b8152600401620027579392919062003802565b602060405180830381600087803b1580156200277257600080fd5b505af115801562002787573d6000803e3d6000fd5b505050506040513d601f19601f82011682018060405250810190620027ad919062002f5a565b507f9f9e4044c5742cca66ca090b21552bac14645e68bad7a92364a9d9ff18111a1c3360045430604051620027e5939291906200386c565b60405180910390a160018081905550565b600a60205281600052604060002081600581106200281357600080fd5b01600091509150505481565b600760009054906101000a900473ffffffffffffffffffffffffffffffffffffffff1673ffffffffffffffffffffffffffffffffffffffff163373ffffffffffffffffffffffffffffffffffffffff1614620028b2576040517f08c379a0000000000000000000000000000000000000000000000000000000008152600401620028a99062003b3d565b60405180910390fd5b6001600760146101000a81548160ff021916908315150217905550565b620028d962002cd7565b600a60008373ffffffffffffffffffffffffffffffffffffffff1673ffffffffffffffffffffffffffffffffffffffff16815260200190815260200160002060058060200260405190810160405280929190826005801562002951576020028201915b8154815260200190600101908083116200293c575b50505050509050919050565b6000600d8281548110620029765762002975620041ff565b5b9060005260206000200160009054906101000a900473ffffffffffffffffffffffffffffffffffffffff169050919050565b600660009054906101000a900473ffffffffffffffffffffffffffffffffffffffff1681565b620029d862002cf9565b600960003373ffffffffffffffffffffffffffffffffffffffff1673ffffffffffffffffffffffffffffffffffffffff16815260200190815260200160002060088060200260405190810160405280929190826008801562002a50576020028201915b81548152602001906001019080831162002a3b575b5050505050905090565b62002af48160405160240162002a719190620037e5565b6040516020818303038152906040527f2c2ecbc2000000000000000000000000000000000000000000000000000000007bffffffffffffffffffffffffffffffffffffffffffffffffffffffff19166020820180517bffffffffffffffffffffffffffffffffffffffffffffffffffffffff838183161783525050505062002ba7565b50565b600062002b043062002bd0565b15905090565b62002ba48160405160240162002b21919062003a2b565b6040516020818303038152906040527f41304fac000000000000000000000000000000000000000000000000000000007bffffffffffffffffffffffffffffffffffffffffffffffffffffffff19166020820180517bffffffffffffffffffffffffffffffffffffffffffffffffffffffff838183161783525050505062002ba7565b50565b60008151905060006a636f6e736f6c652e6c6f679050602083016000808483855afa5050505050565b6000808273ffffffffffffffffffffffffffffffffffffffff163b119050919050565b82805462002c01906200409a565b90600052602060002090601f01602090048101928262002c25576000855562002c71565b82601f1062002c4057803560ff191683800117855562002c71565b8280016001018555821562002c71579182015b8281111562002c7057823582559160200191906001019062002c53565b5b50905062002c80919062002d1c565b5090565b61111480620045f183390190565b826005810192821562002cc4579160200282015b8281111562002cc357825182559160200191906001019062002ca6565b5b50905062002cd3919062002d1c565b5090565b6040518060a00160405280600590602082028036833780820191505090505090565b604051806101000160405280600890602082028036833780820191505090505090565b5b8082111562002d3757600081600090555060010162002d1d565b5090565b600062002d5262002d4c8462003cbc565b62003c93565b9050808285602086028201111562002d6f5762002d6e6200427c565b5b60005b8581101562002da3578162002d88888262002e81565b84526020840193506020830192505060018101905062002d72565b5050509392505050565b60008135905062002dbe81620045a2565b92915050565b600082601f83011262002ddc5762002ddb62004277565b5b600562002deb84828562002d3b565b91505092915050565b60008135905062002e0581620045bc565b92915050565b60008151905062002e1c81620045bc565b92915050565b60008083601f84011262002e3b5762002e3a62004277565b5b8235905067ffffffffffffffff81111562002e5b5762002e5a62004272565b5b60208301915083600182028301111562002e7a5762002e796200427c565b5b9250929050565b60008135905062002e9281620045d6565b92915050565b60008151905062002ea981620045d6565b92915050565b60006020828403121562002ec85762002ec762004286565b5b600062002ed88482850162002dad565b91505092915050565b6000806040838503121562002efb5762002efa62004286565b5b600062002f0b8582860162002dad565b925050602062002f1e8582860162002e81565b9150509250929050565b600060a0828403121562002f415762002f4062004286565b5b600062002f518482850162002dc4565b91505092915050565b60006020828403121562002f735762002f7262004286565b5b600062002f838482850162002e0b565b91505092915050565b60008060008060008060008060008060006101408c8e03121562002fb55762002fb462004286565b5b60008c013567ffffffffffffffff81111562002fd65762002fd562004281565b5b62002fe48e828f0162002e22565b9b509b5050602062002ff98e828f0162002e81565b99505060406200300c8e828f0162002df4565b98505060606200301f8e828f0162002dad565b9750506080620030328e828f0162002dad565b96505060a0620030458e828f0162002dad565b95505060c0620030588e828f0162002dad565b94505060e06200306b8e828f0162002dad565b9350506101006200307f8e828f0162002dad565b925050610120620030938e828f0162002dad565b9150509295989b509295989b9093969950565b600060208284031215620030bf57620030be62004286565b5b6000620030cf8482850162002e81565b91505092915050565b600060208284031215620030f157620030f062004286565b5b6000620031018482850162002e98565b91505092915050565b6000806040838503121562003124576200312362004286565b5b6000620031348582860162002e81565b9250506020620031478582860162002e81565b9150509250929050565b60006200315f8383620031b9565b60208301905092915050565b6000620031798383620031db565b60208301905092915050565b600062003193838362003794565b60408301905092915050565b6000620031ad8383620037b2565b60208301905092915050565b620031c48162003f87565b82525050565b620031d58162003f87565b82525050565b620031e68162003f87565b82525050565b620031f78162003d3d565b62003203818462003dc0565b9250620032108262003ce5565b8060005b83811015620032475781516200322b878262003151565b9650620032388362003d7f565b92505060018101905062003214565b505050505050565b60006200325c8262003d48565b62003268818562003dcb565b9350620032758362003cef565b8060005b83811015620032b5576200328d826200425d565b62003299888262003151565b9750620032a68362003d8c565b92505060018101905062003279565b5085935050505092915050565b6000620032cf8262003d48565b620032db818562003ddc565b9350620032e88362003cef565b8060005b83811015620033285762003300826200425d565b6200330c88826200316b565b9750620033198362003d8c565b925050600181019050620032ec565b5085935050505092915050565b8082525050565b6000620033498262003d53565b62003355818562003ded565b9350620033628362003d04565b8060005b83811015620033995781516200337d888262003185565b97506200338a8362003d99565b92505060018101905062003366565b5085935050505092915050565b620033b18162003d5e565b620033bd818462003dfe565b9250620033ca8262003d14565b8060005b8381101562003401578151620033e587826200319f565b9650620033f28362003da6565b925050600181019050620033ce565b505050505050565b620034148162003d69565b62003420818462003e09565b92506200342d8262003d1e565b8060005b83811015620034645781516200344887826200319f565b9650620034558362003db3565b92505060018101905062003431565b505050505050565b620034778162003f9b565b82525050565b620034888162003fd1565b82525050565b620034998162003fe5565b82525050565b620034aa8162003ff9565b82525050565b8082525050565b8082525050565b8082525050565b8082525050565b6000620034d98262003d74565b620034e5818562003e14565b9350620034f781856020860162004035565b62003502816200428b565b840191505092915050565b600081546200351c816200409a565b62003528818662003e25565b94506001821660008114620035465760018114620035595762003590565b60ff198316865260208601935062003590565b620035648562003d28565b60005b83811015620035885781548189015260018201915060208101905062003567565b808801955050505b50505092915050565b6000620035a8601d8362003e14565b9150620035b582620042a9565b602082019050919050565b6000620035cf60238362003e14565b9150620035dc82620042d2565b604082019050919050565b6000620035f660318362003e14565b9150620036038262004321565b604082019050919050565b60006200361d601d8362003e14565b91506200362a8262004370565b602082019050919050565b600062003644601e8362003e14565b9150620036518262004399565b602082019050919050565b60006200366b602e8362003e14565b91506200367882620043c2565b604082019050919050565b60006200369260178362003e14565b91506200369f8262004411565b602082019050919050565b6000620036b960168362003e14565b9150620036c6826200443a565b602082019050919050565b6000620036e060168362003e14565b9150620036ed8262004463565b602082019050919050565b60006200370760418362003e14565b915062003714826200448c565b606082019050919050565b60006200372e60248362003e14565b91506200373b8262004501565b604082019050919050565b600062003755601f8362003e14565b9150620037628262004550565b602082019050919050565b60006200377c60178362003e14565b9150620037898262004579565b602082019050919050565b604082016000820151620037ac6000850182620031ec565b50505050565b620037bd8162003fc7565b82525050565b620037ce8162003fc7565b82525050565b620037df8162003fc7565b82525050565b6000602082019050620037fc6000830184620031ca565b92915050565b6000606082019050620038196000830186620031ca565b620038286020830185620031ca565b620038376040830184620037c3565b949350505050565b6000604082019050620038566000830185620031ca565b620038656020830184620037c3565b9392505050565b6000606082019050620038836000830186620031ca565b620038926020830185620037c3565b620038a16040830184620031ca565b949350505050565b60006060820190508181036000830152620038c58186620032c2565b9050620038d66020830185620034be565b620038e5604083018462003335565b949350505050565b600060408201905081810360008301526200390981856200324f565b90506200391a6020830184620037c3565b9392505050565b600060208201905081810360008301526200393d81846200333c565b905092915050565b600060a0820190506200395c6000830184620033a6565b92915050565b6000610100820190506200397a600083018462003409565b92915050565b60006020820190506200399760008301846200346c565b92915050565b6000602082019050620039b460008301846200348e565b92915050565b6000602082019050620039d160008301846200349f565b92915050565b6000608082019050620039ee6000830187620034c5565b620039fd602083018662003335565b62003a0c6040830185620037d4565b818103606083015262003a2081846200350d565b905095945050505050565b6000602082019050818103600083015262003a478184620034cc565b905092915050565b6000602082019050818103600083015262003a6a8162003599565b9050919050565b6000602082019050818103600083015262003a8c81620035c0565b9050919050565b6000602082019050818103600083015262003aae81620035e7565b9050919050565b6000602082019050818103600083015262003ad0816200360e565b9050919050565b6000602082019050818103600083015262003af28162003635565b9050919050565b6000602082019050818103600083015262003b14816200365c565b9050919050565b6000602082019050818103600083015262003b368162003683565b9050919050565b6000602082019050818103600083015262003b5881620036aa565b9050919050565b6000602082019050818103600083015262003b7a81620036d1565b9050919050565b6000602082019050818103600083015262003b9c81620036f8565b9050919050565b6000602082019050818103600083015262003bbe816200371f565b9050919050565b6000602082019050818103600083015262003be08162003746565b9050919050565b6000602082019050818103600083015262003c02816200376d565b9050919050565b600060208201905062003c206000830184620037c3565b92915050565b600060c08201905062003c3d6000830189620037d4565b62003c4c60208301886200347d565b62003c5b6040830187620034b7565b62003c6a6060830186620034b0565b62003c796080830185620034be565b62003c8860a0830184620034c5565b979650505050505050565b600062003c9f62003cb2565b905062003cad8282620040ee565b919050565b6000604051905090565b600067ffffffffffffffff82111562003cda5762003cd96200422e565b5b602082029050919050565b6000819050919050565b60008190508160005260206000209050919050565b6000819050602082019050919050565b6000819050919050565b6000819050919050565b60008190508160005260206000209050919050565b600060029050919050565b600081549050919050565b600081519050919050565b600060059050919050565b600060089050919050565b600081519050919050565b6000602082019050919050565b6000600182019050919050565b6000602082019050919050565b6000602082019050919050565b6000602082019050919050565b600081905092915050565b600082825260208201905092915050565b600082825260208201905092915050565b600082825260208201905092915050565b600081905092915050565b600081905092915050565b600082825260208201905092915050565b600082825260208201905092915050565b600062003e438262003fc7565b915062003e508362003fc7565b9250827fffffffffffffffffffffffffffffffffffffffffffffffffffffffffffffffff0382111562003e885762003e8762004172565b5b828201905092915050565b600062003ea08262003fc7565b915062003ead8362003fc7565b92508262003ec05762003ebf620041a1565b5b828204905092915050565b600062003ed88262003fc7565b915062003ee58362003fc7565b9250817fffffffffffffffffffffffffffffffffffffffffffffffffffffffffffffffff048311821515161562003f215762003f2062004172565b5b828202905092915050565b600062003f398262003fc7565b915062003f468362003fc7565b92508282101562003f5c5762003f5b62004172565b5b828203905092915050565b600073ffffffffffffffffffffffffffffffffffffffff82169050919050565b600062003f948262003fa7565b9050919050565b60008115159050919050565b600073ffffffffffffffffffffffffffffffffffffffff82169050919050565b6000819050919050565b600062003fde826200400d565b9050919050565b600062003ff2826200400d565b9050919050565b600062004006826200400d565b9050919050565b60006200401a8262004021565b9050919050565b60006200402e8262003fa7565b9050919050565b60005b838110156200405557808201518184015260208101905062004038565b8381111562004065576000848401525b50505050565b6000620040788262003fc7565b915060008214156200408f576200408e62004172565b5b600182039050919050565b60006002820490506001821680620040b357607f821691505b60208210811415620040ca57620040c9620041d0565b5b50919050565b6000620040e7620040e1836200429c565b62003f67565b9050919050565b620040f9826200428b565b810181811067ffffffffffffffff821117156200411b576200411a6200422e565b5b80604052505050565b6000620041318262003fc7565b91507fffffffffffffffffffffffffffffffffffffffffffffffffffffffffffffffff82141562004167576200416662004172565b5b600182019050919050565b7f4e487b7100000000000000000000000000000000000000000000000000000000600052601160045260246000fd5b7f4e487b7100000000000000000000000000000000000000000000000000000000600052601260045260246000fd5b7f4e487b7100000000000000000000000000000000000000000000000000000000600052602260045260246000fd5b7f4e487b7100000000000000000000000000000000000000000000000000000000600052603260045260246000fd5b7f4e487b7100000000000000000000000000000000000000000000000000000000600052604160045260246000fd5b60006200426b8254620040d0565b9050919050565b600080fd5b600080fd5b600080fd5b600080fd5b600080fd5b6000601f19601f8301169050919050565b60008160001c9050919050565b7f496e737566666963656e742066756e647320666f72207374616b696e67000000600082015250565b7f596f75206861766520616c7265616479206a6f696e65642074686973206c656160008201527f6775650000000000000000000000000000000000000000000000000000000000602082015250565b7f596f75206172652073657474696e6720616e206174686c65746520696e20746860008201527f652077726f6e6720706f736974696f6e21000000000000000000000000000000602082015250565b7f55736572206973206e6f74206f6e2077686974656c6973742062726f2e000000600082015250565b7f6c696e657570206973206c6f636b656420666f7220746865207765656b210000600082015250565b7f496e697469616c697a61626c653a20636f6e747261637420697320616c72656160008201527f647920696e697469616c697a6564000000000000000000000000000000000000602082015250565b7f43616c6c6572206973206e6f74207468652061646d696e000000000000000000600082015250565b7f43616c6c6572206973206e6f74205465616d4469666600000000000000000000600082015250565b7f55736572206973206e6f7420696e204c65616775652e00000000000000000000600082015250565b7f4e6f626f64792063616e20656e7465722f6578697420746865206c656167756560008201527f20616e796d6f72652e2054686520736561736f6e20686173207374617274656460208201527f2100000000000000000000000000000000000000000000000000000000000000604082015250565b7f43616c6c657220646f6573206e6f74206f776e20676976656e206174686c657460008201527f6549647300000000000000000000000000000000000000000000000000000000602082015250565b7f5265656e7472616e637947756172643a207265656e7472616e742063616c6c00600082015250565b7f4c656167756520456e74727920697320436c6f73656421000000000000000000600082015250565b620045ad8162003f87565b8114620045b957600080fd5b50565b620045c78162003f9b565b8114620045d357600080fd5b50565b620045e18162003fc7565b8114620045ed57600080fd5b5056fe60806040523480156200001157600080fd5b50604051620011143803806200111483398181016040528101906200003791906200015b565b620000576200004b6200007860201b60201c565b6200008060201b60201c565b80600360006101000a81548160ff02191690831515021790555050620001b8565b600033905090565b60008060009054906101000a900473ffffffffffffffffffffffffffffffffffffffff169050816000806101000a81548173ffffffffffffffffffffffffffffffffffffffff021916908373ffffffffffffffffffffffffffffffffffffffff1602179055508173ffffffffffffffffffffffffffffffffffffffff168173ffffffffffffffffffffffffffffffffffffffff167f8be0079c531659141344cd1fd0a4f28419497f9722a3daafe3b4186f6b6457e060405160405180910390a35050565b60008151905062000155816200019e565b92915050565b60006020828403121562000174576200017362000199565b5b6000620001848482850162000144565b91505092915050565b60008115159050919050565b600080fd5b620001a9816200018d565b8114620001b557600080fd5b50565b610f4c80620001c86000396000f3fe608060405234801561001057600080fd5b50600436106100a95760003560e01c80638da5cb5b116100715780638da5cb5b146101665780639b19251a14610184578063dc9a1535146101b4578063e2ec6ec3146101d2578063e35a899914610202578063f2fde38b14610232576100a9565b806324953eaa146100ae578063286dd3f5146100de57806344eaa84e1461010e578063715018a61461012c5780637b9417c814610136575b600080fd5b6100c860048036038101906100c39190610ada565b61024e565b6040516100d59190610bb1565b60405180910390f35b6100f860048036038101906100f39190610aad565b61031e565b6040516101059190610bb1565b60405180910390f35b6101166104a1565b6040516101239190610c0c565b60405180910390f35b6101346104ab565b005b610150600480360381019061014b9190610aad565b610533565b60405161015d9190610bb1565b60405180910390f35b61016e6106b4565b60405161017b9190610b96565b60405180910390f35b61019e60048036038101906101999190610aad565b6106dd565b6040516101ab9190610bb1565b60405180910390f35b6101bc6106fd565b6040516101c99190610bb1565b60405180910390f35b6101ec60048036038101906101e79190610ada565b610710565b6040516101f99190610bb1565b60405180910390f35b61021c60048036038101906102179190610aad565b6107e0565b6040516102299190610bb1565b60405180910390f35b61024c60048036038101906102479190610aad565b610836565b005b600061025861092e565b73ffffffffffffffffffffffffffffffffffffffff166102766106b4565b73ffffffffffffffffffffffffffffffffffffffff16146102cc576040517f08c379a00000000000000000000000000000000000000000000000000000000081526004016102c390610bec565b60405180910390fd5b60005b8251811015610318576102fb8382815181106102ee576102ed610e04565b5b602002602001015161031e565b1561030557600191505b808061031090610d8c565b9150506102cf565b50919050565b600061032861092e565b73ffffffffffffffffffffffffffffffffffffffff166103466106b4565b73ffffffffffffffffffffffffffffffffffffffff161461039c576040517f08c379a000000000000000000000000000000000000000000000000000000000815260040161039390610bec565b60405180910390fd5b600160008373ffffffffffffffffffffffffffffffffffffffff1673ffffffffffffffffffffffffffffffffffffffff16815260200190815260200160002060009054906101000a900460ff161561049c576000600160008473ffffffffffffffffffffffffffffffffffffffff1673ffffffffffffffffffffffffffffffffffffffff16815260200190815260200160002060006101000a81548160ff0219169083151502179055507ff1abf01a1043b7c244d128e8595cf0c1d10743b022b03a02dffd8ca3bf729f5a826040516104759190610b96565b60405180910390a16001600260008282546104909190610cdf565b92505081905550600190505b919050565b6000600254905090565b6104b361092e565b73ffffffffffffffffffffffffffffffffffffffff166104d16106b4565b73ffffffffffffffffffffffffffffffffffffffff1614610527576040517f08c379a000000000000000000000000000000000000000000000000000000000815260040161051e90610bec565b60405180910390fd5b6105316000610936565b565b600061053d61092e565b73ffffffffffffffffffffffffffffffffffffffff1661055b6106b4565b73ffffffffffffffffffffffffffffffffffffffff16146105b1576040517f08c379a00000000000000000000000000000000000000000000000000000000081526004016105a890610bec565b60405180910390fd5b600160008373ffffffffffffffffffffffffffffffffffffffff1673ffffffffffffffffffffffffffffffffffffffff16815260200190815260200160002060009054906101000a900460ff166106af5760018060008473ffffffffffffffffffffffffffffffffffffffff1673ffffffffffffffffffffffffffffffffffffffff16815260200190815260200160002060006101000a81548160ff0219169083151502179055507fd1bba68c128cc3f427e5831b3c6f99f480b6efa6b9e80c757768f6124158cc3f826040516106889190610b96565b60405180910390a16001600260008282546106a39190610c89565b92505081905550600190505b919050565b60008060009054906101000a900473ffffffffffffffffffffffffffffffffffffffff16905090565b60016020528060005260406000206000915054906101000a900460ff1681565b600360009054906101000a900460ff1681565b600061071a61092e565b73ffffffffffffffffffffffffffffffffffffffff166107386106b4565b73ffffffffffffffffffffffffffffffffffffffff161461078e576040517f08c379a000000000000000000000000000000000000000000000000000000000815260040161078590610bec565b60405180910390fd5b60005b82518110156107da576107bd8382815181106107b0576107af610e04565b5b6020026020010151610533565b156107c757600191505b80806107d290610d8c565b915050610791565b50919050565b6000600160008373ffffffffffffffffffffffffffffffffffffffff1673ffffffffffffffffffffffffffffffffffffffff16815260200190815260200160002060009054906101000a900460ff169050919050565b61083e61092e565b73ffffffffffffffffffffffffffffffffffffffff1661085c6106b4565b73ffffffffffffffffffffffffffffffffffffffff16146108b2576040517f08c379a00000000000000000000000000000000000000000000000000000000081526004016108a990610bec565b60405180910390fd5b600073ffffffffffffffffffffffffffffffffffffffff168173ffffffffffffffffffffffffffffffffffffffff161415610922576040517f08c379a000000000000000000000000000000000000000000000000000000000815260040161091990610bcc565b60405180910390fd5b61092b81610936565b50565b600033905090565b60008060009054906101000a900473ffffffffffffffffffffffffffffffffffffffff169050816000806101000a81548173ffffffffffffffffffffffffffffffffffffffff021916908373ffffffffffffffffffffffffffffffffffffffff1602179055508173ffffffffffffffffffffffffffffffffffffffff168173ffffffffffffffffffffffffffffffffffffffff167f8be0079c531659141344cd1fd0a4f28419497f9722a3daafe3b4186f6b6457e060405160405180910390a35050565b6000610a0d610a0884610c4c565b610c27565b90508083825260208201905082856020860282011115610a3057610a2f610e67565b5b60005b85811015610a605781610a468882610a6a565b845260208401935060208301925050600181019050610a33565b5050509392505050565b600081359050610a7981610eff565b92915050565b600082601f830112610a9457610a93610e62565b5b8135610aa48482602086016109fa565b91505092915050565b600060208284031215610ac357610ac2610e71565b5b6000610ad184828501610a6a565b91505092915050565b600060208284031215610af057610aef610e71565b5b600082013567ffffffffffffffff811115610b0e57610b0d610e6c565b5b610b1a84828501610a7f565b91505092915050565b610b2c81610d13565b82525050565b610b3b81610d25565b82525050565b6000610b4e602683610c78565b9150610b5982610e87565b604082019050919050565b6000610b71602083610c78565b9150610b7c82610ed6565b602082019050919050565b610b9081610d51565b82525050565b6000602082019050610bab6000830184610b23565b92915050565b6000602082019050610bc66000830184610b32565b92915050565b60006020820190508181036000830152610be581610b41565b9050919050565b60006020820190508181036000830152610c0581610b64565b9050919050565b6000602082019050610c216000830184610b87565b92915050565b6000610c31610c42565b9050610c3d8282610d5b565b919050565b6000604051905090565b600067ffffffffffffffff821115610c6757610c66610e33565b5b602082029050602081019050919050565b600082825260208201905092915050565b6000610c9482610d51565b9150610c9f83610d51565b9250827fffffffffffffffffffffffffffffffffffffffffffffffffffffffffffffffff03821115610cd457610cd3610dd5565b5b828201905092915050565b6000610cea82610d51565b9150610cf583610d51565b925082821015610d0857610d07610dd5565b5b828203905092915050565b6000610d1e82610d31565b9050919050565b60008115159050919050565b600073ffffffffffffffffffffffffffffffffffffffff82169050919050565b6000819050919050565b610d6482610e76565b810181811067ffffffffffffffff82111715610d8357610d82610e33565b5b80604052505050565b6000610d9782610d51565b91507fffffffffffffffffffffffffffffffffffffffffffffffffffffffffffffffff821415610dca57610dc9610dd5565b5b600182019050919050565b7f4e487b7100000000000000000000000000000000000000000000000000000000600052601160045260246000fd5b7f4e487b7100000000000000000000000000000000000000000000000000000000600052603260045260246000fd5b7f4e487b7100000000000000000000000000000000000000000000000000000000600052604160045260246000fd5b600080fd5b600080fd5b600080fd5b600080fd5b6000601f19601f8301169050919050565b7f4f776e61626c653a206e6577206f776e657220697320746865207a65726f206160008201527f6464726573730000000000000000000000000000000000000000000000000000602082015250565b7f4f776e61626c653a2063616c6c6572206973206e6f7420746865206f776e6572600082015250565b610f0881610d13565b8114610f1357600080fd5b5056fea2646970667358221220feccf7967160b27bc4e7387864d237b4000f88abed00a8f38cd892f59bf1675364736f6c63430008070033a26469706673582212205df605366a61a8753f551207a4ba0f242cff6d8a438347e544cdba55c8b6dd7a64736f6c63430008070033",
  "linkReferences": {
    "contracts/MOBALogicLibrary.sol": {
      "MOBALogicLibrary": [
        {
          "length": 20,
          "start": 2245
        },
        {
          "length": 20,
          "start": 2578
        },
        {
          "length": 20,
          "start": 3903
        }
      ]
    }
  },
  "deployedLinkReferences": {
    "contracts/MOBALogicLibrary.sol": {
      "MOBALogicLibrary": [
        {
          "length": 20,
          "start": 2206
        },
        {
          "length": 20,
          "start": 2539
        },
        {
          "length": 20,
          "start": 3864
        }
      ]
    }
  }
}