{
  "_format": "hh-sol-artifact-1",
  "contractName": "LeagueOfLegendsLogic",
  "sourceName": "contracts/LeagueOfLegendsLogic.sol",
  "abi": [
    {
      "anonymous": false,
      "inputs": [
        {
          "indexed": true,
          "internalType": "address",
          "name": "previousOwner",
          "type": "address"
        },
        {
          "indexed": true,
          "internalType": "address",
          "name": "newOwner",
          "type": "address"
        }
      ],
      "name": "OwnershipTransferred",
      "type": "event"
    },
    {
      "anonymous": false,
      "inputs": [
        {
          "indexed": true,
          "internalType": "bytes32",
          "name": "role",
          "type": "bytes32"
        },
        {
          "indexed": true,
          "internalType": "bytes32",
          "name": "previousAdminRole",
          "type": "bytes32"
        },
        {
          "indexed": true,
          "internalType": "bytes32",
          "name": "newAdminRole",
          "type": "bytes32"
        }
      ],
      "name": "RoleAdminChanged",
      "type": "event"
    },
    {
      "anonymous": false,
      "inputs": [
        {
          "indexed": true,
          "internalType": "bytes32",
          "name": "role",
          "type": "bytes32"
        },
        {
          "indexed": true,
          "internalType": "address",
          "name": "account",
          "type": "address"
        },
        {
          "indexed": true,
          "internalType": "address",
          "name": "sender",
          "type": "address"
        }
      ],
      "name": "RoleGranted",
      "type": "event"
    },
    {
      "anonymous": false,
      "inputs": [
        {
          "indexed": true,
          "internalType": "bytes32",
          "name": "role",
          "type": "bytes32"
        },
        {
          "indexed": true,
          "internalType": "address",
          "name": "account",
          "type": "address"
        },
        {
          "indexed": true,
          "internalType": "address",
          "name": "sender",
          "type": "address"
        }
      ],
      "name": "RoleRevoked",
      "type": "event"
    },
    {
      "anonymous": false,
      "inputs": [
        {
          "indexed": false,
          "internalType": "address",
          "name": "sender",
          "type": "address"
        },
        {
          "indexed": false,
          "internalType": "uint256",
          "name": "amount",
          "type": "uint256"
        }
      ],
      "name": "Staked",
      "type": "event"
    },
    {
      "anonymous": false,
      "inputs": [
        {
          "indexed": false,
          "internalType": "address",
          "name": "addr",
          "type": "address"
        }
      ],
      "name": "WhitelistedAddressAdded",
      "type": "event"
    },
    {
      "anonymous": false,
      "inputs": [
        {
          "indexed": false,
          "internalType": "address",
          "name": "addr",
          "type": "address"
        }
      ],
      "name": "WhitelistedAddressRemoved",
      "type": "event"
    },
    {
      "anonymous": false,
      "inputs": [
        {
          "indexed": false,
          "internalType": "address",
          "name": "sender",
          "type": "address"
        },
        {
          "indexed": false,
          "internalType": "address",
          "name": "contractAddress",
          "type": "address"
        }
      ],
      "name": "testUSDCDeployed",
      "type": "event"
    },
    {
      "inputs": [],
      "name": "DEFAULT_ADMIN_ROLE",
      "outputs": [
        {
          "internalType": "bytes32",
          "name": "",
          "type": "bytes32"
        }
      ],
      "stateMutability": "view",
      "type": "function"
    },
    {
      "inputs": [
        {
          "internalType": "address",
          "name": "addr",
          "type": "address"
        }
      ],
      "name": "addAddressToWhitelist",
      "outputs": [
        {
          "internalType": "bool",
          "name": "success",
          "type": "bool"
        }
      ],
      "stateMutability": "nonpayable",
      "type": "function"
    },
    {
      "inputs": [
        {
          "internalType": "address[]",
          "name": "addrs",
          "type": "address[]"
        }
      ],
      "name": "addAddressesToWhitelist",
      "outputs": [
        {
          "internalType": "bool",
          "name": "success",
          "type": "bool"
        }
      ],
      "stateMutability": "nonpayable",
      "type": "function"
    },
    {
      "inputs": [
        {
          "internalType": "address",
          "name": "user",
          "type": "address"
        }
      ],
      "name": "addUserToLeague",
      "outputs": [],
      "stateMutability": "nonpayable",
      "type": "function"
    },
    {
      "inputs": [
        {
          "internalType": "address",
          "name": "_userToAdd",
          "type": "address"
        }
      ],
      "name": "addUserToWhitelist",
      "outputs": [],
      "stateMutability": "nonpayable",
      "type": "function"
    },
    {
      "inputs": [],
      "name": "currentWeekNum",
      "outputs": [
        {
          "internalType": "uint256",
          "name": "",
          "type": "uint256"
        }
      ],
      "stateMutability": "view",
      "type": "function"
    },
    {
      "inputs": [
        {
          "internalType": "address",
          "name": "addr1",
          "type": "address"
        },
        {
          "internalType": "address",
          "name": "addr2",
          "type": "address"
        }
      ],
      "name": "evaluateMatch",
      "outputs": [
        {
          "internalType": "address",
          "name": "",
          "type": "address"
        }
      ],
      "stateMutability": "nonpayable",
      "type": "function"
    },
    {
      "inputs": [],
      "name": "evaluateWeek",
      "outputs": [],
      "stateMutability": "nonpayable",
      "type": "function"
    },
    {
      "inputs": [],
      "name": "getAdmin",
      "outputs": [
        {
          "internalType": "address",
          "name": "",
          "type": "address"
        }
      ],
      "stateMutability": "view",
      "type": "function"
    },
    {
      "inputs": [],
      "name": "getAthleteContractAddress",
      "outputs": [
        {
          "internalType": "address",
          "name": "",
          "type": "address"
        }
      ],
      "stateMutability": "view",
      "type": "function"
    },
    {
      "inputs": [],
      "name": "getCurrentWeekNum",
      "outputs": [
        {
          "internalType": "uint256",
          "name": "",
          "type": "uint256"
        }
      ],
      "stateMutability": "view",
      "type": "function"
    },
    {
      "inputs": [],
      "name": "getLeagueName",
      "outputs": [
        {
          "internalType": "string",
          "name": "",
          "type": "string"
        }
      ],
      "stateMutability": "view",
      "type": "function"
    },
    {
      "inputs": [],
      "name": "getLineup",
      "outputs": [
        {
          "internalType": "uint256[]",
          "name": "",
          "type": "uint256[]"
        }
      ],
      "stateMutability": "view",
      "type": "function"
    },
    {
      "inputs": [
        {
          "internalType": "bytes32",
          "name": "role",
          "type": "bytes32"
        }
      ],
      "name": "getRoleAdmin",
      "outputs": [
        {
          "internalType": "bytes32",
          "name": "",
          "type": "bytes32"
        }
      ],
      "stateMutability": "view",
      "type": "function"
    },
    {
      "inputs": [],
      "name": "getStakeAmount",
      "outputs": [
        {
          "internalType": "uint256",
          "name": "",
          "type": "uint256"
        }
      ],
      "stateMutability": "view",
      "type": "function"
    },
    {
      "inputs": [],
      "name": "getTestUSDCAddress",
      "outputs": [
        {
          "internalType": "address",
          "name": "",
          "type": "address"
        }
      ],
      "stateMutability": "view",
      "type": "function"
    },
    {
      "inputs": [],
      "name": "getTotalPrizePot",
      "outputs": [
        {
          "internalType": "uint256",
          "name": "",
          "type": "uint256"
        }
      ],
      "stateMutability": "view",
      "type": "function"
    },
    {
      "inputs": [],
      "name": "getUSDCBalance",
      "outputs": [
        {
          "internalType": "uint256",
          "name": "",
          "type": "uint256"
        }
      ],
      "stateMutability": "view",
      "type": "function"
    },
    {
      "inputs": [],
      "name": "getUserRecord",
      "outputs": [
        {
          "internalType": "uint256[8]",
          "name": "",
          "type": "uint256[8]"
        }
      ],
      "stateMutability": "view",
      "type": "function"
    },
    {
      "inputs": [],
      "name": "getUserTotalPts",
      "outputs": [
        {
          "internalType": "uint256",
          "name": "",
          "type": "uint256"
        }
      ],
      "stateMutability": "view",
      "type": "function"
    },
    {
      "inputs": [],
      "name": "getUserUSDCBalance",
      "outputs": [
        {
          "internalType": "uint256",
          "name": "",
          "type": "uint256"
        }
      ],
      "stateMutability": "view",
      "type": "function"
    },
    {
      "inputs": [],
      "name": "getUsersLength",
      "outputs": [
        {
          "internalType": "uint256",
          "name": "",
          "type": "uint256"
        }
      ],
      "stateMutability": "view",
      "type": "function"
    },
    {
      "inputs": [],
      "name": "getVersion",
      "outputs": [
        {
          "internalType": "uint256",
          "name": "version",
          "type": "uint256"
        }
      ],
      "stateMutability": "view",
      "type": "function"
    },
    {
      "inputs": [
        {
          "internalType": "bytes32",
          "name": "role",
          "type": "bytes32"
        },
        {
          "internalType": "address",
          "name": "account",
          "type": "address"
        }
      ],
      "name": "grantRole",
      "outputs": [],
      "stateMutability": "nonpayable",
      "type": "function"
    },
    {
      "inputs": [
        {
          "internalType": "bytes32",
          "name": "role",
          "type": "bytes32"
        },
        {
          "internalType": "address",
          "name": "account",
          "type": "address"
        }
      ],
      "name": "hasRole",
      "outputs": [
        {
          "internalType": "bool",
          "name": "",
          "type": "bool"
        }
      ],
      "stateMutability": "view",
      "type": "function"
    },
    {
      "inputs": [
        {
          "internalType": "string",
          "name": "_name",
          "type": "string"
        },
        {
          "internalType": "uint256",
          "name": "_numWeeks",
          "type": "uint256"
        },
        {
          "internalType": "uint256",
          "name": "_stakeAmount",
          "type": "uint256"
        },
        {
          "internalType": "bool",
          "name": "_isPublic",
          "type": "bool"
        },
        {
          "internalType": "address",
          "name": "athletesDataStorageAddress",
          "type": "address"
        },
        {
          "internalType": "address",
          "name": "_admin",
          "type": "address"
        },
        {
          "internalType": "address",
          "name": "_polygonUSDCAddress",
          "type": "address"
        },
        {
          "internalType": "address",
          "name": "_rinkebyUSDCAddress",
          "type": "address"
        },
        {
          "internalType": "address",
          "name": "_testUSDCAddress",
          "type": "address"
        },
        {
          "internalType": "address",
          "name": "leagueMakerContractAddress",
          "type": "address"
        }
      ],
      "name": "initialize",
      "outputs": [],
      "stateMutability": "nonpayable",
      "type": "function"
    },
    {
      "inputs": [],
      "name": "isPublic",
      "outputs": [
        {
          "internalType": "bool",
          "name": "",
          "type": "bool"
        }
      ],
      "stateMutability": "view",
      "type": "function"
    },
    {
      "inputs": [],
      "name": "joinLeague",
      "outputs": [],
      "stateMutability": "nonpayable",
      "type": "function"
    },
    {
      "inputs": [
        {
          "internalType": "uint256",
          "name": "",
          "type": "uint256"
        }
      ],
      "name": "leagueMembers",
      "outputs": [
        {
          "internalType": "address",
          "name": "",
          "type": "address"
        }
      ],
      "stateMutability": "view",
      "type": "function"
    },
    {
      "inputs": [],
      "name": "leagueName",
      "outputs": [
        {
          "internalType": "string",
          "name": "",
          "type": "string"
        }
      ],
      "stateMutability": "view",
      "type": "function"
    },
    {
      "inputs": [],
      "name": "lockLineup",
      "outputs": [],
      "stateMutability": "nonpayable",
      "type": "function"
    },
    {
      "inputs": [],
      "name": "numWeeks",
      "outputs": [
        {
          "internalType": "uint256",
          "name": "",
          "type": "uint256"
        }
      ],
      "stateMutability": "view",
      "type": "function"
    },
    {
      "inputs": [],
      "name": "onLeagueEnd",
      "outputs": [],
      "stateMutability": "nonpayable",
      "type": "function"
    },
    {
      "inputs": [],
      "name": "owner",
      "outputs": [
        {
          "internalType": "address",
          "name": "",
          "type": "address"
        }
      ],
      "stateMutability": "view",
      "type": "function"
    },
    {
      "inputs": [],
      "name": "polygonUSDCAddress",
      "outputs": [
        {
          "internalType": "address",
          "name": "",
          "type": "address"
        }
      ],
      "stateMutability": "view",
      "type": "function"
    },
    {
      "inputs": [
        {
          "internalType": "address",
          "name": "addr",
          "type": "address"
        }
      ],
      "name": "removeAddressFromWhitelist",
      "outputs": [
        {
          "internalType": "bool",
          "name": "success",
          "type": "bool"
        }
      ],
      "stateMutability": "nonpayable",
      "type": "function"
    },
    {
      "inputs": [
        {
          "internalType": "address[]",
          "name": "addrs",
          "type": "address[]"
        }
      ],
      "name": "removeAddressesFromWhitelist",
      "outputs": [
        {
          "internalType": "bool",
          "name": "success",
          "type": "bool"
        }
      ],
      "stateMutability": "nonpayable",
      "type": "function"
    },
    {
      "inputs": [],
      "name": "renounceOwnership",
      "outputs": [],
      "stateMutability": "nonpayable",
      "type": "function"
    },
    {
      "inputs": [
        {
          "internalType": "bytes32",
          "name": "role",
          "type": "bytes32"
        },
        {
          "internalType": "address",
          "name": "account",
          "type": "address"
        }
      ],
      "name": "renounceRole",
      "outputs": [],
      "stateMutability": "nonpayable",
      "type": "function"
    },
    {
      "inputs": [
        {
          "internalType": "bytes32",
          "name": "role",
          "type": "bytes32"
        },
        {
          "internalType": "address",
          "name": "account",
          "type": "address"
        }
      ],
      "name": "revokeRole",
      "outputs": [],
      "stateMutability": "nonpayable",
      "type": "function"
    },
    {
      "inputs": [],
      "name": "rinkebyUSDCAddress",
      "outputs": [
        {
          "internalType": "address",
          "name": "",
          "type": "address"
        }
      ],
      "stateMutability": "view",
      "type": "function"
    },
    {
      "inputs": [],
      "name": "setLeagueEntryIsClosed",
      "outputs": [],
      "stateMutability": "nonpayable",
      "type": "function"
    },
    {
      "inputs": [],
      "name": "setLeagueSchedule",
      "outputs": [],
      "stateMutability": "nonpayable",
      "type": "function"
    },
    {
      "inputs": [
        {
          "internalType": "uint256[]",
          "name": "athleteIds",
          "type": "uint256[]"
        }
      ],
      "name": "setLineup",
      "outputs": [],
      "stateMutability": "nonpayable",
      "type": "function"
    },
    {
      "inputs": [],
      "name": "stakeAmount",
      "outputs": [
        {
          "internalType": "uint256",
          "name": "",
          "type": "uint256"
        }
      ],
      "stateMutability": "view",
      "type": "function"
    },
    {
      "inputs": [
        {
          "internalType": "bytes4",
          "name": "interfaceId",
          "type": "bytes4"
        }
      ],
      "name": "supportsInterface",
      "outputs": [
        {
          "internalType": "bool",
          "name": "",
          "type": "bool"
        }
      ],
      "stateMutability": "view",
      "type": "function"
    },
    {
      "inputs": [
        {
          "internalType": "address",
          "name": "newOwner",
          "type": "address"
        }
      ],
      "name": "transferOwnership",
      "outputs": [],
      "stateMutability": "nonpayable",
      "type": "function"
    },
    {
      "inputs": [],
      "name": "unlockLineup",
      "outputs": [],
      "stateMutability": "nonpayable",
      "type": "function"
    },
    {
      "inputs": [
        {
          "internalType": "address",
          "name": "",
          "type": "address"
        },
        {
          "internalType": "uint256",
          "name": "",
          "type": "uint256"
        }
      ],
      "name": "userToRecord",
      "outputs": [
        {
          "internalType": "uint256",
          "name": "",
          "type": "uint256"
        }
      ],
      "stateMutability": "view",
      "type": "function"
    },
    {
      "inputs": [
        {
          "internalType": "address",
          "name": "",
          "type": "address"
        }
      ],
      "name": "whitelist",
      "outputs": [
        {
          "internalType": "bool",
          "name": "",
          "type": "bool"
        }
      ],
      "stateMutability": "view",
      "type": "function"
    }
  ],
  "bytecode": "0x60806040523480156200001157600080fd5b5062000032620000266200003860201b60201c565b6200004060201b60201c565b62000105565b600033905090565b60008060029054906101000a900473ffffffffffffffffffffffffffffffffffffffff16905081600060026101000a81548173ffffffffffffffffffffffffffffffffffffffff021916908373ffffffffffffffffffffffffffffffffffffffff1602179055508173ffffffffffffffffffffffffffffffffffffffff168173ffffffffffffffffffffffffffffffffffffffff167f8be0079c531659141344cd1fd0a4f28419497f9722a3daafe3b4186f6b6457e060405160405180910390a35050565b61588680620001156000396000f3fe60806040523480156200001157600080fd5b50600436106200031b5760003560e01c8063747b805011620001a7578063a217fddf11620000ff578063d547741f11620000b1578063e4c9066b1162000087578063e4c9066b1462000972578063f2fde38b146200097e578063f612121a146200099e578063f881604514620009be576200031b565b8063d547741f14620008fa578063dc9a1535146200091a578063e2ec6ec3146200093c576200031b565b8063a217fddf1462000870578063a2bc091a1462000892578063ada3a28d146200089e578063c8be3b5b14620008c0578063c99fea9414620008cc578063cdbba4c614620008d8576200031b565b80638caec7a811620001595780638caec7a8146200077c5780638da5cb5b146200079e57806391d1485414620007c057806393f3706c14620007f657806399a6003414620008185780639b19251a146200083a576200031b565b8063747b805014620006a05780637b9417c814620006c05780637eed33f114620006f6578063841abf6e146200071857806385334ffa146200073a578063853976dd1462000746576200031b565b806336568abe11620002795780635ec0b4f7116200022b5780636bdc44df11620002015780636bdc44df146200062e5780636e9960c31462000650578063715018a61462000672578063722580b6146200067e576200031b565b80635ec0b4f714620005c85780635fcc698714620005ea57806360c7dc47146200060c576200031b565b806336568abe14620005005780633cfd1ccc1462000520578063403570c5146200054257806352e6e5f31462000564578063595b1a3e14620005865780635d514d6914620005a8576200031b565b80631d803e0011620002d35780631d803e0014620003fc578063248a9ca3146200040857806324953eaa146200043e578063267175db1462000474578063286dd3f514620004aa5780632f2ff15d14620004e0576200031b565b8062b2476f146200032057806301ffc9a714620003425780630655465a1462000378578063087e18a714620003845780630c6f795914620003a45780630d8e6e2c14620003da575b600080fd5b6200032a620009e0565b60405162000339919062003cce565b60405180910390f35b6200036060048036038101906200035a919062003622565b62000a06565b6040516200036f919062003e33565b60405180910390f35b6200038262000a83565b005b620003a260048036038101906200039c9190620033e3565b62000b3b565b005b620003c26004803603810190620003bc91906200348e565b62000cbf565b604051620003d1919062004062565b60405180910390f35b620003e462000ce8565b604051620003f3919062004062565b60405180910390f35b6200040662000ced565b005b620004266004803603810190620004209190620035a9565b62000efc565b60405162000435919062003e50565b60405180910390f35b6200045c6004803603810190620004569190620034d5565b62000f1c565b6040516200046b919062003e33565b60405180910390f35b6200049260048036038101906200048c91906200376e565b62001019565b604051620004a1919062003cce565b60405180910390f35b620004c86004803603810190620004c29190620033e3565b62001059565b604051620004d7919062003e33565b60405180910390f35b620004fe6004803603810190620004f89190620035db565b620011e8565b005b6200051e6004803603810190620005189190620035db565b62001219565b005b6200052a620012a3565b60405162000539919062004062565b60405180910390f35b6200054c6200135b565b6040516200055b919062003f2e565b60405180910390f35b6200056e620013f5565b6040516200057d919062004062565b60405180910390f35b62000590620013fb565b6040516200059f919062004062565b60405180910390f35b620005c66004803603810190620005c0919062003654565b62001408565b005b620005d262001817565b604051620005e1919062004062565b60405180910390f35b620005f462001821565b60405162000603919062004062565b60405180910390f35b62000616620018d9565b60405162000625919062004062565b60405180910390f35b62000638620018df565b60405162000647919062004062565b60405180910390f35b6200065a62001926565b60405162000669919062003cce565b60405180910390f35b6200067c62001950565b005b62000688620019e1565b60405162000697919062004062565b60405180910390f35b620006be6004803603810190620006b89190620033e3565b620019eb565b005b620006de6004803603810190620006d89190620033e3565b62001b35565b604051620006ed919062003e33565b60405180910390f35b6200070062001cc3565b6040516200070f919062004062565b60405180910390f35b6200072262001cc9565b60405162000731919062003f2e565b60405180910390f35b6200074462001d5f565b005b6200076460048036038101906200075e919062003447565b62001e81565b60405162000773919062003cce565b60405180910390f35b6200078662001fc8565b60405162000795919062003cce565b60405180910390f35b620007a862001ff2565b604051620007b7919062003cce565b60405180910390f35b620007de6004803603810190620007d89190620035db565b6200201b565b604051620007ed919062003e33565b60405180910390f35b6200080062002086565b6040516200080f919062003cce565b60405180910390f35b62000822620020ac565b60405162000831919062004062565b60405180910390f35b620008586004803603810190620008529190620033e3565b620020c8565b60405162000867919062003e33565b60405180910390f35b6200087a620020e8565b60405162000889919062003e50565b60405180910390f35b6200089c620020ef565b005b620008a86200218f565b604051620008b7919062003e0f565b60405180910390f35b620008ca62002226565b005b620008d6620022c6565b005b620008e2620024e4565b604051620008f1919062003cce565b60405180910390f35b620009186004803603810190620009129190620035db565b6200250e565b005b620009246200253f565b60405162000933919062003e33565b60405180910390f35b6200095a6004803603810190620009549190620034d5565b62002552565b60405162000969919062003e33565b60405180910390f35b6200097c6200264f565b005b6200099c6004803603810190620009969190620033e3565b620026ef565b005b620009bc6004803603810190620009b6919062003526565b620027f3565b005b620009c86200289f565b604051620009d7919062003df1565b60405180910390f35b601060009054906101000a900473ffffffffffffffffffffffffffffffffffffffff1681565b60007f7965db0b000000000000000000000000000000000000000000000000000000007bffffffffffffffffffffffffffffffffffffffffffffffffffffffff1916827bffffffffffffffffffffffffffffffffffffffffffffffffffffffff1916148062000a7c575062000a7b826200292b565b5b9050919050565b62000ac36040518060400160405280601081526020017f73657474696e67207363686564756c650000000000000000000000000000000081525062002995565b73__$36fdb4e0c2cb91f3ceca5ea81b025328f3$__63d2c232b5600e600960065460056040518563ffffffff1660e01b815260040162000b07949392919062003e6d565b60006040518083038186803b15801562000b2057600080fd5b505af415801562000b35573d6000803e3d6000fd5b50505050565b600a60149054906101000a900460ff161562000b8e576040517f08c379a000000000000000000000000000000000000000000000000000000000815260040162000b85906200401e565b60405180910390fd5b6008600980549050101562000c97576009819080600181540180825580915050600190039060005260206000200160009091909190916101000a81548173ffffffffffffffffffffffffffffffffffffffff021916908373ffffffffffffffffffffffffffffffffffffffff160217905550601360009054906101000a900473ffffffffffffffffffffffffffffffffffffffff1673ffffffffffffffffffffffffffffffffffffffff1663771bd4ce826040518263ffffffff1660e01b815260040162000c5d919062003cce565b600060405180830381600087803b15801562000c7857600080fd5b505af115801562000c8d573d6000803e3d6000fd5b5050505062000cbc565b62000cbb604051806060016040528060288152602001620058296028913962002995565b5b50565b600c602052816000526040600020816008811062000cdc57600080fd5b01600091509150505481565b600090565b600060098054905060085462000d04919062004254565b9050600080600090505b60098054905081101562000e3f57600b60008373ffffffffffffffffffffffffffffffffffffffff1673ffffffffffffffffffffffffffffffffffffffff16815260200190815260200160002054600b60006009848154811062000d775762000d7662004551565b5b9060005260206000200160009054906101000a900473ffffffffffffffffffffffffffffffffffffffff1673ffffffffffffffffffffffffffffffffffffffff1673ffffffffffffffffffffffffffffffffffffffff16815260200190815260200160002054111562000e29576009818154811062000dfb5762000dfa62004551565b5b9060005260206000200160009054906101000a900473ffffffffffffffffffffffffffffffffffffffff1691505b808062000e3690620044a5565b91505062000d0e565b50601460009054906101000a900473ffffffffffffffffffffffffffffffffffffffff1673ffffffffffffffffffffffffffffffffffffffff166323b872dd3330856040518463ffffffff1660e01b815260040162000ea19392919062003ceb565b602060405180830381600087803b15801562000ebc57600080fd5b505af115801562000ed1573d6000803e3d6000fd5b505050506040513d601f19601f8201168201806040525081019062000ef7919062003577565b505050565b600060016000838152602001908152602001600020600101549050919050565b600062000f2862002a32565b73ffffffffffffffffffffffffffffffffffffffff1662000f4862001ff2565b73ffffffffffffffffffffffffffffffffffffffff161462000fa1576040517f08c379a000000000000000000000000000000000000000000000000000000000815260040162000f989062003fda565b60405180910390fd5b60005b8251811015620010135762000fd683828151811062000fc85762000fc762004551565b5b602002602001015162001059565b1562000ffd5760016003600082825462000ff19190620042b5565b92505081905550600191505b80806200100a90620044a5565b91505062000fa4565b50919050565b600981815481106200102a57600080fd5b906000526020600020016000915054906101000a900473ffffffffffffffffffffffffffffffffffffffff1681565b60006200106562002a32565b73ffffffffffffffffffffffffffffffffffffffff166200108562001ff2565b73ffffffffffffffffffffffffffffffffffffffff1614620010de576040517f08c379a0000000000000000000000000000000000000000000000000000000008152600401620010d59062003fda565b60405180910390fd5b600260008373ffffffffffffffffffffffffffffffffffffffff1673ffffffffffffffffffffffffffffffffffffffff16815260200190815260200160002060009054906101000a900460ff1615620011e3576000600260008473ffffffffffffffffffffffffffffffffffffffff1673ffffffffffffffffffffffffffffffffffffffff16815260200190815260200160002060006101000a81548160ff0219169083151502179055507ff1abf01a1043b7c244d128e8595cf0c1d10743b022b03a02dffd8ca3bf729f5a82604051620011ba919062003cce565b60405180910390a1600160036000828254620011d79190620042b5565b92505081905550600190505b919050565b620011f38262000efc565b62001208816200120262002a32565b62002a3a565b62001214838362002ae2565b505050565b6200122362002a32565b73ffffffffffffffffffffffffffffffffffffffff168173ffffffffffffffffffffffffffffffffffffffff161462001293576040517f08c379a00000000000000000000000000000000000000000000000000000000081526004016200128a9062004040565b60405180910390fd5b6200129f828262002bc7565b5050565b6000601460009054906101000a900473ffffffffffffffffffffffffffffffffffffffff1673ffffffffffffffffffffffffffffffffffffffff166370a08231306040518263ffffffff1660e01b815260040162001302919062003cce565b60206040518083038186803b1580156200131b57600080fd5b505afa15801562001330573d6000803e3d6000fd5b505050506040513d601f19601f82011682018060405250810190620013569190620037a0565b905090565b6060600580546200136c906200441b565b80601f01602080910402602001604051908101604052809291908181526020018280546200139a906200441b565b8015620013eb5780601f10620013bf57610100808354040283529160200191620013eb565b820191906000526020600020905b815481529060010190602001808311620013cd57829003601f168201915b5050505050905090565b60075481565b6000600980549050905090565b600060019054906101000a900460ff16620014325760008054906101000a900460ff16156200143d565b6200143c62002cae565b5b6200147f576040517f08c379a0000000000000000000000000000000000000000000000000000000008152600401620014769062003fb8565b60405180910390fd5b60008060019054906101000a900460ff161590508015620014d0576001600060016101000a81548160ff02191690831515021790555060016000806101000a81548160ff0219169083151502179055505b8b8b60059190620014e39291906200303d565b506008600681905550620014fb6000801b8762002cc1565b6009869080600181540180825580915050600190039060005260206000200160009091909190916101000a81548173ffffffffffffffffffffffffffffffffffffffff021916908373ffffffffffffffffffffffffffffffffffffffff16021790555085600a60006101000a81548173ffffffffffffffffffffffffffffffffffffffff021916908373ffffffffffffffffffffffffffffffffffffffff1602179055508860088190555087600460006101000a81548160ff0219169083151502179055506000600a60156101000a81548160ff0219169083151502179055506000600a60146101000a81548160ff02191690831515021790555086601160006101000a81548173ffffffffffffffffffffffffffffffffffffffff021916908373ffffffffffffffffffffffffffffffffffffffff16021790555081601360006101000a81548173ffffffffffffffffffffffffffffffffffffffff021916908373ffffffffffffffffffffffffffffffffffffffff1602179055506040516200168690620030ce565b604051809103906000f080158015620016a3573d6000803e3d6000fd5b50601260006101000a81548173ffffffffffffffffffffffffffffffffffffffff021916908373ffffffffffffffffffffffffffffffffffffffff16021790555084600f60006101000a81548173ffffffffffffffffffffffffffffffffffffffff021916908373ffffffffffffffffffffffffffffffffffffffff16021790555083601060006101000a81548173ffffffffffffffffffffffffffffffffffffffff021916908373ffffffffffffffffffffffffffffffffffffffff16021790555082601460006101000a81548173ffffffffffffffffffffffffffffffffffffffff021916908373ffffffffffffffffffffffffffffffffffffffff160217905550620017e76040518060400160405280601281526020017f50726f787920696e697469616c697a656421000000000000000000000000000081525062002995565b8015620018095760008060016101000a81548160ff0219169083151502179055505b505050505050505050505050565b6000600754905090565b6000601460009054906101000a900473ffffffffffffffffffffffffffffffffffffffff1673ffffffffffffffffffffffffffffffffffffffff166370a08231336040518263ffffffff1660e01b815260040162001880919062003cce565b60206040518083038186803b1580156200189957600080fd5b505afa158015620018ae573d6000803e3d6000fd5b505050506040513d601f19601f82011682018060405250810190620018d49190620037a0565b905090565b60085481565b6000600b60003373ffffffffffffffffffffffffffffffffffffffff1673ffffffffffffffffffffffffffffffffffffffff16815260200190815260200160002054905090565b6000600a60009054906101000a900473ffffffffffffffffffffffffffffffffffffffff16905090565b6200195a62002a32565b73ffffffffffffffffffffffffffffffffffffffff166200197a62001ff2565b73ffffffffffffffffffffffffffffffffffffffff1614620019d3576040517f08c379a0000000000000000000000000000000000000000000000000000000008152600401620019ca9062003fda565b60405180910390fd5b620019df600062002cd1565b565b6000600854905090565b600a60009054906101000a900473ffffffffffffffffffffffffffffffffffffffff1673ffffffffffffffffffffffffffffffffffffffff163373ffffffffffffffffffffffffffffffffffffffff161462001a7e576040517f08c379a000000000000000000000000000000000000000000000000000000000815260040162001a759062003ffc565b60405180910390fd5b601260009054906101000a900473ffffffffffffffffffffffffffffffffffffffff1673ffffffffffffffffffffffffffffffffffffffff16637b9417c8826040518263ffffffff1660e01b815260040162001adb919062003cce565b602060405180830381600087803b15801562001af657600080fd5b505af115801562001b0b573d6000803e3d6000fd5b505050506040513d601f19601f8201168201806040525081019062001b31919062003577565b5050565b600062001b4162002a32565b73ffffffffffffffffffffffffffffffffffffffff1662001b6162001ff2565b73ffffffffffffffffffffffffffffffffffffffff161462001bba576040517f08c379a000000000000000000000000000000000000000000000000000000000815260040162001bb19062003fda565b60405180910390fd5b600260008373ffffffffffffffffffffffffffffffffffffffff1673ffffffffffffffffffffffffffffffffffffffff16815260200190815260200160002060009054906101000a900460ff1662001cbe576001600260008473ffffffffffffffffffffffffffffffffffffffff1673ffffffffffffffffffffffffffffffffffffffff16815260200190815260200160002060006101000a81548160ff0219169083151502179055507fd1bba68c128cc3f427e5831b3c6f99f480b6efa6b9e80c757768f6124158cc3f8260405162001c95919062003cce565b60405180910390a160016003600082825462001cb29190620041f7565b92505081905550600190505b919050565b60065481565b6005805462001cd8906200441b565b80601f016020809104026020016040519081016040528092919081815260200182805462001d06906200441b565b801562001d575780601f1062001d2b5761010080835404028352916020019162001d57565b820191906000526020600020905b81548152906001019060200180831162001d3957829003601f168201915b505050505081565b62001d6962002a32565b73ffffffffffffffffffffffffffffffffffffffff1662001d8962001ff2565b73ffffffffffffffffffffffffffffffffffffffff161462001de2576040517f08c379a000000000000000000000000000000000000000000000000000000000815260040162001dd99062003fda565b60405180910390fd5b73__$36fdb4e0c2cb91f3ceca5ea81b025328f3$__63c406e268600e600754601160009054906101000a900473ffffffffffffffffffffffffffffffffffffffff16600c600b600d6040518763ffffffff1660e01b815260040162001e4d9695949392919062003ec1565b60006040518083038186803b15801562001e6657600080fd5b505af415801562001e7b573d6000803e3d6000fd5b50505050565b600073__$36fdb4e0c2cb91f3ceca5ea81b025328f3$__63fb0841fb8484600754601160009054906101000a900473ffffffffffffffffffffffffffffffffffffffff16600d60008a73ffffffffffffffffffffffffffffffffffffffff1673ffffffffffffffffffffffffffffffffffffffff168152602001908152602001600020600d60008a73ffffffffffffffffffffffffffffffffffffffff1673ffffffffffffffffffffffffffffffffffffffff168152602001908152602001600020600c600b6040518963ffffffff1660e01b815260040162001f6c98979695949392919062003d28565b60206040518083038186803b15801562001f8557600080fd5b505af415801562001f9a573d6000803e3d6000fd5b505050506040513d601f19601f8201168201806040525081019062001fc0919062003415565b905092915050565b6000601160009054906101000a900473ffffffffffffffffffffffffffffffffffffffff16905090565b60008060029054906101000a900473ffffffffffffffffffffffffffffffffffffffff16905090565b60006001600084815260200190815260200160002060000160008373ffffffffffffffffffffffffffffffffffffffff1673ffffffffffffffffffffffffffffffffffffffff16815260200190815260200160002060009054906101000a900460ff16905092915050565b600f60009054906101000a900473ffffffffffffffffffffffffffffffffffffffff1681565b6000600980549050600854620020c3919062004254565b905090565b60026020528060005260406000206000915054906101000a900460ff1681565b6000801b81565b620020f962002a32565b73ffffffffffffffffffffffffffffffffffffffff166200211962001ff2565b73ffffffffffffffffffffffffffffffffffffffff161462002172576040517f08c379a0000000000000000000000000000000000000000000000000000000008152600401620021699062003fda565b60405180910390fd5b6000600a60156101000a81548160ff021916908315150217905550565b6060600d60003373ffffffffffffffffffffffffffffffffffffffff1673ffffffffffffffffffffffffffffffffffffffff1681526020019081526020016000208054806020026020016040519081016040528092919081815260200182805480156200221c57602002820191906000526020600020905b81548152602001906001019080831162002207575b5050505050905090565b6200223062002a32565b73ffffffffffffffffffffffffffffffffffffffff166200225062001ff2565b73ffffffffffffffffffffffffffffffffffffffff1614620022a9576040517f08c379a0000000000000000000000000000000000000000000000000000000008152600401620022a09062003fda565b60405180910390fd5b6001600a60156101000a81548160ff021916908315150217905550565b600260003373ffffffffffffffffffffffffffffffffffffffff1673ffffffffffffffffffffffffffffffffffffffff16815260200190815260200160002060009054906101000a900460ff16806200232b5750600460009054906101000a900460ff165b6200233557600080fd5b600a60149054906101000a900460ff161562002388576040517f08c379a00000000000000000000000000000000000000000000000000000000081526004016200237f906200401e565b60405180910390fd5b6009339080600181540180825580915050600190039060005260206000200160009091909190916101000a81548173ffffffffffffffffffffffffffffffffffffffff021916908373ffffffffffffffffffffffffffffffffffffffff160217905550601460009054906101000a900473ffffffffffffffffffffffffffffffffffffffff1673ffffffffffffffffffffffffffffffffffffffff166323b872dd33306008546040518463ffffffff1660e01b81526004016200244e9392919062003ceb565b602060405180830381600087803b1580156200246957600080fd5b505af11580156200247e573d6000803e3d6000fd5b505050506040513d601f19601f82011682018060405250810190620024a4919062003577565b507f9e71bc8eea02a63969f509818f2dafb9254532904319f9dbda79b67bd34a5f3d33600854604051620024da92919062003dc4565b60405180910390a1565b6000601460009054906101000a900473ffffffffffffffffffffffffffffffffffffffff16905090565b620025198262000efc565b6200252e816200252862002a32565b62002a3a565b6200253a838362002bc7565b505050565b600460009054906101000a900460ff1681565b60006200255e62002a32565b73ffffffffffffffffffffffffffffffffffffffff166200257e62001ff2565b73ffffffffffffffffffffffffffffffffffffffff1614620025d7576040517f08c379a0000000000000000000000000000000000000000000000000000000008152600401620025ce9062003fda565b60405180910390fd5b60005b825181101562002649576200260c838281518110620025fe57620025fd62004551565b5b602002602001015162001b35565b156200263357600160036000828254620026279190620041f7565b92505081905550600191505b80806200264090620044a5565b915050620025da565b50919050565b6200265962002a32565b73ffffffffffffffffffffffffffffffffffffffff166200267962001ff2565b73ffffffffffffffffffffffffffffffffffffffff1614620026d2576040517f08c379a0000000000000000000000000000000000000000000000000000000008152600401620026c99062003fda565b60405180910390fd5b6001600a60146101000a81548160ff021916908315150217905550565b620026f962002a32565b73ffffffffffffffffffffffffffffffffffffffff166200271962001ff2565b73ffffffffffffffffffffffffffffffffffffffff161462002772576040517f08c379a0000000000000000000000000000000000000000000000000000000008152600401620027699062003fda565b60405180910390fd5b600073ffffffffffffffffffffffffffffffffffffffff168173ffffffffffffffffffffffffffffffffffffffff161415620027e5576040517f08c379a0000000000000000000000000000000000000000000000000000000008152600401620027dc9062003f74565b60405180910390fd5b620027f08162002cd1565b50565b600a60159054906101000a900460ff161562002846576040517f08c379a00000000000000000000000000000000000000000000000000000000081526004016200283d9062003f96565b60405180910390fd5b80600d60003373ffffffffffffffffffffffffffffffffffffffff1673ffffffffffffffffffffffffffffffffffffffff16815260200190815260200160002090805190602001906200289b929190620030dc565b5050565b620028a96200312e565b600c60003373ffffffffffffffffffffffffffffffffffffffff1673ffffffffffffffffffffffffffffffffffffffff16815260200190815260200160002060088060200260405190810160405280929190826008801562002921576020028201915b8154815260200190600101908083116200290c575b5050505050905090565b60007f01ffc9a7000000000000000000000000000000000000000000000000000000007bffffffffffffffffffffffffffffffffffffffffffffffffffffffff1916827bffffffffffffffffffffffffffffffffffffffffffffffffffffffff1916149050919050565b62002a2f81604051602401620029ac919062003f2e565b6040516020818303038152906040527f41304fac000000000000000000000000000000000000000000000000000000007bffffffffffffffffffffffffffffffffffffffffffffffffffffffff19166020820180517bffffffffffffffffffffffffffffffffffffffffffffffffffffffff838183161783525050505062002d96565b50565b600033905090565b62002a4682826200201b565b62002ade5762002a6e8173ffffffffffffffffffffffffffffffffffffffff16601462002dbf565b62002a7e8360001c602062002dbf565b60405160200162002a9192919062003c8c565b6040516020818303038152906040526040517f08c379a000000000000000000000000000000000000000000000000000000000815260040162002ad5919062003f2e565b60405180910390fd5b5050565b62002aee82826200201b565b62002bc357600180600084815260200190815260200160002060000160008373ffffffffffffffffffffffffffffffffffffffff1673ffffffffffffffffffffffffffffffffffffffff16815260200190815260200160002060006101000a81548160ff02191690831515021790555062002b6862002a32565b73ffffffffffffffffffffffffffffffffffffffff168173ffffffffffffffffffffffffffffffffffffffff16837f2f8788117e7eff1d82e926ec794901d17c78024a50270940304540a733656f0d60405160405180910390a45b5050565b62002bd382826200201b565b1562002caa5760006001600084815260200190815260200160002060000160008373ffffffffffffffffffffffffffffffffffffffff1673ffffffffffffffffffffffffffffffffffffffff16815260200190815260200160002060006101000a81548160ff02191690831515021790555062002c4f62002a32565b73ffffffffffffffffffffffffffffffffffffffff168173ffffffffffffffffffffffffffffffffffffffff16837ff6391f5c32d9c69d2a47ea670b442974b53935d1edc7fd64eb21e047a839171b60405160405180910390a45b5050565b600062002cbb306200301a565b15905090565b62002ccd828262002ae2565b5050565b60008060029054906101000a900473ffffffffffffffffffffffffffffffffffffffff16905081600060026101000a81548173ffffffffffffffffffffffffffffffffffffffff021916908373ffffffffffffffffffffffffffffffffffffffff1602179055508173ffffffffffffffffffffffffffffffffffffffff168173ffffffffffffffffffffffffffffffffffffffff167f8be0079c531659141344cd1fd0a4f28419497f9722a3daafe3b4186f6b6457e060405160405180910390a35050565b60008151905060006a636f6e736f6c652e6c6f679050602083016000808483855afa5050505050565b60606000600283600262002dd4919062004254565b62002de09190620041f7565b67ffffffffffffffff81111562002dfc5762002dfb62004580565b5b6040519080825280601f01601f19166020018201604052801562002e2f5781602001600182028036833780820191505090505b5090507f30000000000000000000000000000000000000000000000000000000000000008160008151811062002e6a5762002e6962004551565b5b60200101907effffffffffffffffffffffffffffffffffffffffffffffffffffffffffffff1916908160001a9053507f78000000000000000000000000000000000000000000000000000000000000008160018151811062002ed15762002ed062004551565b5b60200101907effffffffffffffffffffffffffffffffffffffffffffffffffffffffffffff1916908160001a9053506000600184600262002f13919062004254565b62002f1f9190620041f7565b90505b600181111562002fc9577f3031323334353637383961626364656600000000000000000000000000000000600f86166010811062002f655762002f6462004551565b5b1a60f81b82828151811062002f7f5762002f7e62004551565b5b60200101907effffffffffffffffffffffffffffffffffffffffffffffffffffffffffffff1916908160001a905350600485901c94508062002fc190620043ec565b905062002f22565b506000841462003010576040517f08c379a0000000000000000000000000000000000000000000000000000000008152600401620030079062003f52565b60405180910390fd5b8091505092915050565b6000808273ffffffffffffffffffffffffffffffffffffffff163b119050919050565b8280546200304b906200441b565b90600052602060002090601f0160209004810192826200306f5760008555620030bb565b82601f106200308a57803560ff1916838001178555620030bb565b82800160010185558215620030bb579182015b82811115620030ba5782358255916020019190600101906200309d565b5b509050620030ca919062003151565b5090565b610f9f806200488a83390190565b8280548282559060005260206000209081019282156200311b579160200282015b828111156200311a578251825591602001919060010190620030fd565b5b5090506200312a919062003151565b5090565b604051806101000160405280600890602082028036833780820191505090505090565b5b808211156200316c57600081600090555060010162003152565b5090565b6000620031876200318184620040a8565b6200407f565b90508083825260208201905082856020860282011115620031ad57620031ac620045ce565b5b60005b85811015620031e15781620031c6888262003266565b845260208401935060208301925050600181019050620031b0565b5050509392505050565b600062003202620031fc84620040d7565b6200407f565b90508083825260208201905082856020860282011115620032285762003227620045ce565b5b60005b858110156200325c5781620032418882620033b5565b8452602084019350602083019250506001810190506200322b565b5050509392505050565b600081359050620032778162004807565b92915050565b6000815190506200328e8162004807565b92915050565b600082601f830112620032ac57620032ab620045c9565b5b8135620032be84826020860162003170565b91505092915050565b600082601f830112620032df57620032de620045c9565b5b8135620032f1848260208601620031eb565b91505092915050565b6000813590506200330b8162004821565b92915050565b600081519050620033228162004821565b92915050565b60008135905062003339816200483b565b92915050565b600081359050620033508162004855565b92915050565b60008083601f8401126200336f576200336e620045c9565b5b8235905067ffffffffffffffff8111156200338f576200338e620045c4565b5b602083019150836001820283011115620033ae57620033ad620045ce565b5b9250929050565b600081359050620033c6816200486f565b92915050565b600081519050620033dd816200486f565b92915050565b600060208284031215620033fc57620033fb620045d8565b5b60006200340c8482850162003266565b91505092915050565b6000602082840312156200342e576200342d620045d8565b5b60006200343e848285016200327d565b91505092915050565b60008060408385031215620034615762003460620045d8565b5b6000620034718582860162003266565b9250506020620034848582860162003266565b9150509250929050565b60008060408385031215620034a857620034a7620045d8565b5b6000620034b88582860162003266565b9250506020620034cb85828601620033b5565b9150509250929050565b600060208284031215620034ee57620034ed620045d8565b5b600082013567ffffffffffffffff8111156200350f576200350e620045d3565b5b6200351d8482850162003294565b91505092915050565b6000602082840312156200353f576200353e620045d8565b5b600082013567ffffffffffffffff81111562003560576200355f620045d3565b5b6200356e84828501620032c7565b91505092915050565b60006020828403121562003590576200358f620045d8565b5b6000620035a08482850162003311565b91505092915050565b600060208284031215620035c257620035c1620045d8565b5b6000620035d28482850162003328565b91505092915050565b60008060408385031215620035f557620035f4620045d8565b5b6000620036058582860162003328565b9250506020620036188582860162003266565b9150509250929050565b6000602082840312156200363b576200363a620045d8565b5b60006200364b848285016200333f565b91505092915050565b60008060008060008060008060008060006101408c8e0312156200367d576200367c620045d8565b5b60008c013567ffffffffffffffff8111156200369e576200369d620045d3565b5b620036ac8e828f0162003356565b9b509b50506020620036c18e828f01620033b5565b9950506040620036d48e828f01620033b5565b9850506060620036e78e828f01620032fa565b9750506080620036fa8e828f0162003266565b96505060a06200370d8e828f0162003266565b95505060c0620037208e828f0162003266565b94505060e0620037338e828f0162003266565b935050610100620037478e828f0162003266565b9250506101206200375b8e828f0162003266565b9150509295989b509295989b9093969950565b600060208284031215620037875762003786620045d8565b5b60006200379784828501620033b5565b91505092915050565b600060208284031215620037b957620037b8620045d8565b5b6000620037c984828501620033cc565b91505092915050565b6000620037e0838362003c48565b60208301905092915050565b6000620037fa838362003c7b565b60208301905092915050565b6200381181620042fa565b82525050565b6200382281620042fa565b82525050565b8082525050565b6200383a816200414a565b6200384681846200419d565b9250620038538262004106565b8060005b838110156200388a5781516200386e8782620037d2565b96506200387b8362004176565b92505060018101905062003857565b505050505050565b60006200389f8262004155565b620038ab8185620041a8565b9350620038b88362004110565b8060005b83811015620038ef578151620038d38882620037d2565b9750620038e08362004183565b925050600181019050620038bc565b5085935050505092915050565b6000620039098262004160565b620039158185620041b9565b9350620039228362004120565b8060005b8381101562003962576200393a82620045af565b620039468882620037ec565b9750620039538362004190565b92505060018101905062003926565b5085935050505092915050565b6200397a816200430e565b82525050565b6200398b816200431a565b82525050565b6200399c816200437a565b82525050565b8082525050565b8082525050565b8082525050565b8082525050565b6000620039cb826200416b565b620039d78185620041ca565b9350620039e9818560208601620043b6565b620039f481620045dd565b840191505092915050565b600062003a0c826200416b565b62003a188185620041ec565b935062003a2a818560208601620043b6565b80840191505092915050565b6000815462003a45816200441b565b62003a518186620041db565b9450600182166000811462003a6f576001811462003a825762003ab9565b60ff198316865260208601935062003ab9565b62003a8d8562004135565b60005b8381101562003ab15781548189015260018201915060208101905062003a90565b808801955050505b50505092915050565b600062003ad1602083620041ca565b915062003ade82620045fb565b602082019050919050565b600062003af8602683620041ca565b915062003b058262004624565b604082019050919050565b600062003b1f601e83620041ca565b915062003b2c8262004673565b602082019050919050565b600062003b46602e83620041ca565b915062003b53826200469c565b604082019050919050565b600062003b6d602083620041ca565b915062003b7a82620046eb565b602082019050919050565b600062003b94601783620041ca565b915062003ba18262004714565b602082019050919050565b600062003bbb601783620041ec565b915062003bc8826200473d565b601782019050919050565b600062003be2601783620041ca565b915062003bef8262004766565b602082019050919050565b600062003c09601183620041ec565b915062003c16826200478f565b601182019050919050565b600062003c30602f83620041ca565b915062003c3d82620047b8565b604082019050919050565b62003c538162004370565b82525050565b62003c648162004370565b82525050565b62003c758162004370565b82525050565b62003c868162004370565b82525050565b600062003c998262003bac565b915062003ca78285620039ff565b915062003cb48262003bfa565b915062003cc28284620039ff565b91508190509392505050565b600060208201905062003ce5600083018462003806565b92915050565b600060608201905062003d02600083018662003806565b62003d11602083018562003806565b62003d20604083018462003c59565b949350505050565b60006101008201905062003d40600083018b62003817565b62003d4f602083018a62003817565b62003d5e604083018962003c6a565b62003d6d606083018862003991565b818103608083015262003d818187620038fc565b905081810360a083015262003d978186620038fc565b905062003da860c0830185620039a2565b62003db760e0830184620039b0565b9998505050505050505050565b600060408201905062003ddb600083018562003806565b62003dea602083018462003c59565b9392505050565b60006101008201905062003e0960008301846200382f565b92915050565b6000602082019050818103600083015262003e2b818462003892565b905092915050565b600060208201905062003e4a60008301846200396f565b92915050565b600060208201905062003e67600083018462003980565b92915050565b600060808201905062003e846000830187620039b7565b62003e93602083018662003828565b62003ea2604083018562003c6a565b818103606083015262003eb6818462003a36565b905095945050505050565b600060c08201905062003ed86000830189620039b7565b62003ee7602083018862003c6a565b62003ef6604083018762003991565b62003f056060830186620039a2565b62003f146080830185620039b0565b62003f2360a0830184620039a9565b979650505050505050565b6000602082019050818103600083015262003f4a8184620039be565b905092915050565b6000602082019050818103600083015262003f6d8162003ac2565b9050919050565b6000602082019050818103600083015262003f8f8162003ae9565b9050919050565b6000602082019050818103600083015262003fb18162003b10565b9050919050565b6000602082019050818103600083015262003fd38162003b37565b9050919050565b6000602082019050818103600083015262003ff58162003b5e565b9050919050565b60006020820190508181036000830152620040178162003b85565b9050919050565b60006020820190508181036000830152620040398162003bd3565b9050919050565b600060208201905081810360008301526200405b8162003c21565b9050919050565b600060208201905062004079600083018462003c59565b92915050565b60006200408b6200409e565b90506200409982826200446f565b919050565b6000604051905090565b600067ffffffffffffffff821115620040c657620040c562004580565b5b602082029050602081019050919050565b600067ffffffffffffffff821115620040f557620040f462004580565b5b602082029050602081019050919050565b6000819050919050565b6000819050602082019050919050565b60008190508160005260206000209050919050565b60008190508160005260206000209050919050565b600060089050919050565b600081519050919050565b600081549050919050565b600081519050919050565b6000602082019050919050565b6000602082019050919050565b6000600182019050919050565b600081905092915050565b600082825260208201905092915050565b600082825260208201905092915050565b600082825260208201905092915050565b600082825260208201905092915050565b600081905092915050565b6000620042048262004370565b9150620042118362004370565b9250827fffffffffffffffffffffffffffffffffffffffffffffffffffffffffffffffff03821115620042495762004248620044f3565b5b828201905092915050565b6000620042618262004370565b91506200426e8362004370565b9250817fffffffffffffffffffffffffffffffffffffffffffffffffffffffffffffffff0483118215151615620042aa57620042a9620044f3565b5b828202905092915050565b6000620042c28262004370565b9150620042cf8362004370565b925082821015620042e557620042e4620044f3565b5b828203905092915050565b6000819050919050565b6000620043078262004350565b9050919050565b60008115159050919050565b6000819050919050565b60007fffffffff0000000000000000000000000000000000000000000000000000000082169050919050565b600073ffffffffffffffffffffffffffffffffffffffff82169050919050565b6000819050919050565b600062004387826200438e565b9050919050565b60006200439b82620043a2565b9050919050565b6000620043af8262004350565b9050919050565b60005b83811015620043d6578082015181840152602081019050620043b9565b83811115620043e6576000848401525b50505050565b6000620043f98262004370565b9150600082141562004410576200440f620044f3565b5b600182039050919050565b600060028204905060018216806200443457607f821691505b602082108114156200444b576200444a62004522565b5b50919050565b6000620044686200446283620045ee565b620042f0565b9050919050565b6200447a82620045dd565b810181811067ffffffffffffffff821117156200449c576200449b62004580565b5b80604052505050565b6000620044b28262004370565b91507fffffffffffffffffffffffffffffffffffffffffffffffffffffffffffffffff821415620044e857620044e7620044f3565b5b600182019050919050565b7f4e487b7100000000000000000000000000000000000000000000000000000000600052601160045260246000fd5b7f4e487b7100000000000000000000000000000000000000000000000000000000600052602260045260246000fd5b7f4e487b7100000000000000000000000000000000000000000000000000000000600052603260045260246000fd5b7f4e487b7100000000000000000000000000000000000000000000000000000000600052604160045260246000fd5b6000620045bd825462004451565b9050919050565b600080fd5b600080fd5b600080fd5b600080fd5b600080fd5b6000601f19601f8301169050919050565b60008160001c9050919050565b7f537472696e67733a20686578206c656e67746820696e73756666696369656e74600082015250565b7f4f776e61626c653a206e6577206f776e657220697320746865207a65726f206160008201527f6464726573730000000000000000000000000000000000000000000000000000602082015250565b7f6c696e657570206973206c6f636b656420666f7220746865207765656b210000600082015250565b7f496e697469616c697a61626c653a20636f6e747261637420697320616c72656160008201527f647920696e697469616c697a6564000000000000000000000000000000000000602082015250565b7f4f776e61626c653a2063616c6c6572206973206e6f7420746865206f776e6572600082015250565b7f43616c6c6572206973206e6f74207468652061646d696e000000000000000000600082015250565b7f416363657373436f6e74726f6c3a206163636f756e7420000000000000000000600082015250565b7f4c656167756520456e74727920697320436c6f73656421000000000000000000600082015250565b7f206973206d697373696e6720726f6c6520000000000000000000000000000000600082015250565b7f416363657373436f6e74726f6c3a2063616e206f6e6c792072656e6f756e636560008201527f20726f6c657320666f722073656c660000000000000000000000000000000000602082015250565b6200481281620042fa565b81146200481e57600080fd5b50565b6200482c816200430e565b81146200483857600080fd5b50565b62004846816200431a565b81146200485257600080fd5b50565b620048608162004324565b81146200486c57600080fd5b50565b6200487a8162004370565b81146200488657600080fd5b5056fe608060405234801561001057600080fd5b5061002d61002261003260201b60201c565b61003a60201b60201c565b6100fe565b600033905090565b60008060009054906101000a900473ffffffffffffffffffffffffffffffffffffffff169050816000806101000a81548173ffffffffffffffffffffffffffffffffffffffff021916908373ffffffffffffffffffffffffffffffffffffffff1602179055508173ffffffffffffffffffffffffffffffffffffffff168173ffffffffffffffffffffffffffffffffffffffff167f8be0079c531659141344cd1fd0a4f28419497f9722a3daafe3b4186f6b6457e060405160405180910390a35050565b610e928061010d6000396000f3fe608060405234801561001057600080fd5b50600436106100935760003560e01c80638da5cb5b116100665780638da5cb5b146101325780639b19251a14610150578063dc9a153514610180578063e2ec6ec31461019e578063f2fde38b146101ce57610093565b806324953eaa14610098578063286dd3f5146100c8578063715018a6146100f85780637b9417c814610102575b600080fd5b6100b260048036038101906100ad9190610a4a565b6101ea565b6040516100bf9190610b12565b60405180910390f35b6100e260048036038101906100dd9190610a1d565b6102d4565b6040516100ef9190610b12565b60405180910390f35b610100610457565b005b61011c60048036038101906101179190610a1d565b6104df565b6040516101299190610b12565b60405180910390f35b61013a610660565b6040516101479190610af7565b60405180910390f35b61016a60048036038101906101659190610a1d565b610689565b6040516101779190610b12565b60405180910390f35b6101886106a9565b6040516101959190610b12565b60405180910390f35b6101b860048036038101906101b39190610a4a565b6106bc565b6040516101c59190610b12565b60405180910390f35b6101e860048036038101906101e39190610a1d565b6107a6565b005b60006101f461089e565b73ffffffffffffffffffffffffffffffffffffffff16610212610660565b73ffffffffffffffffffffffffffffffffffffffff1614610268576040517f08c379a000000000000000000000000000000000000000000000000000000000815260040161025f90610b4d565b60405180910390fd5b60005b82518110156102ce5761029783828151811061028a57610289610d4a565b5b60200260200101516102d4565b156102bb576001600260008282546102af9190610c25565b92505081905550600191505b80806102c690610cd2565b91505061026b565b50919050565b60006102de61089e565b73ffffffffffffffffffffffffffffffffffffffff166102fc610660565b73ffffffffffffffffffffffffffffffffffffffff1614610352576040517f08c379a000000000000000000000000000000000000000000000000000000000815260040161034990610b4d565b60405180910390fd5b600160008373ffffffffffffffffffffffffffffffffffffffff1673ffffffffffffffffffffffffffffffffffffffff16815260200190815260200160002060009054906101000a900460ff1615610452576000600160008473ffffffffffffffffffffffffffffffffffffffff1673ffffffffffffffffffffffffffffffffffffffff16815260200190815260200160002060006101000a81548160ff0219169083151502179055507ff1abf01a1043b7c244d128e8595cf0c1d10743b022b03a02dffd8ca3bf729f5a8260405161042b9190610af7565b60405180910390a16001600260008282546104469190610c25565b92505081905550600190505b919050565b61045f61089e565b73ffffffffffffffffffffffffffffffffffffffff1661047d610660565b73ffffffffffffffffffffffffffffffffffffffff16146104d3576040517f08c379a00000000000000000000000000000000000000000000000000000000081526004016104ca90610b4d565b60405180910390fd5b6104dd60006108a6565b565b60006104e961089e565b73ffffffffffffffffffffffffffffffffffffffff16610507610660565b73ffffffffffffffffffffffffffffffffffffffff161461055d576040517f08c379a000000000000000000000000000000000000000000000000000000000815260040161055490610b4d565b60405180910390fd5b600160008373ffffffffffffffffffffffffffffffffffffffff1673ffffffffffffffffffffffffffffffffffffffff16815260200190815260200160002060009054906101000a900460ff1661065b5760018060008473ffffffffffffffffffffffffffffffffffffffff1673ffffffffffffffffffffffffffffffffffffffff16815260200190815260200160002060006101000a81548160ff0219169083151502179055507fd1bba68c128cc3f427e5831b3c6f99f480b6efa6b9e80c757768f6124158cc3f826040516106349190610af7565b60405180910390a160016002600082825461064f9190610bcf565b92505081905550600190505b919050565b60008060009054906101000a900473ffffffffffffffffffffffffffffffffffffffff16905090565b60016020528060005260406000206000915054906101000a900460ff1681565b600360009054906101000a900460ff1681565b60006106c661089e565b73ffffffffffffffffffffffffffffffffffffffff166106e4610660565b73ffffffffffffffffffffffffffffffffffffffff161461073a576040517f08c379a000000000000000000000000000000000000000000000000000000000815260040161073190610b4d565b60405180910390fd5b60005b82518110156107a05761076983828151811061075c5761075b610d4a565b5b60200260200101516104df565b1561078d576001600260008282546107819190610bcf565b92505081905550600191505b808061079890610cd2565b91505061073d565b50919050565b6107ae61089e565b73ffffffffffffffffffffffffffffffffffffffff166107cc610660565b73ffffffffffffffffffffffffffffffffffffffff1614610822576040517f08c379a000000000000000000000000000000000000000000000000000000000815260040161081990610b4d565b60405180910390fd5b600073ffffffffffffffffffffffffffffffffffffffff168173ffffffffffffffffffffffffffffffffffffffff161415610892576040517f08c379a000000000000000000000000000000000000000000000000000000000815260040161088990610b2d565b60405180910390fd5b61089b816108a6565b50565b600033905090565b60008060009054906101000a900473ffffffffffffffffffffffffffffffffffffffff169050816000806101000a81548173ffffffffffffffffffffffffffffffffffffffff021916908373ffffffffffffffffffffffffffffffffffffffff1602179055508173ffffffffffffffffffffffffffffffffffffffff168173ffffffffffffffffffffffffffffffffffffffff167f8be0079c531659141344cd1fd0a4f28419497f9722a3daafe3b4186f6b6457e060405160405180910390a35050565b600061097d61097884610b92565b610b6d565b905080838252602082019050828560208602820111156109a05761099f610dad565b5b60005b858110156109d057816109b688826109da565b8452602084019350602083019250506001810190506109a3565b5050509392505050565b6000813590506109e981610e45565b92915050565b600082601f830112610a0457610a03610da8565b5b8135610a1484826020860161096a565b91505092915050565b600060208284031215610a3357610a32610db7565b5b6000610a41848285016109da565b91505092915050565b600060208284031215610a6057610a5f610db7565b5b600082013567ffffffffffffffff811115610a7e57610a7d610db2565b5b610a8a848285016109ef565b91505092915050565b610a9c81610c59565b82525050565b610aab81610c6b565b82525050565b6000610abe602683610bbe565b9150610ac982610dcd565b604082019050919050565b6000610ae1602083610bbe565b9150610aec82610e1c565b602082019050919050565b6000602082019050610b0c6000830184610a93565b92915050565b6000602082019050610b276000830184610aa2565b92915050565b60006020820190508181036000830152610b4681610ab1565b9050919050565b60006020820190508181036000830152610b6681610ad4565b9050919050565b6000610b77610b88565b9050610b838282610ca1565b919050565b6000604051905090565b600067ffffffffffffffff821115610bad57610bac610d79565b5b602082029050602081019050919050565b600082825260208201905092915050565b6000610bda82610c97565b9150610be583610c97565b9250827fffffffffffffffffffffffffffffffffffffffffffffffffffffffffffffffff03821115610c1a57610c19610d1b565b5b828201905092915050565b6000610c3082610c97565b9150610c3b83610c97565b925082821015610c4e57610c4d610d1b565b5b828203905092915050565b6000610c6482610c77565b9050919050565b60008115159050919050565b600073ffffffffffffffffffffffffffffffffffffffff82169050919050565b6000819050919050565b610caa82610dbc565b810181811067ffffffffffffffff82111715610cc957610cc8610d79565b5b80604052505050565b6000610cdd82610c97565b91507fffffffffffffffffffffffffffffffffffffffffffffffffffffffffffffffff821415610d1057610d0f610d1b565b5b600182019050919050565b7f4e487b7100000000000000000000000000000000000000000000000000000000600052601160045260246000fd5b7f4e487b7100000000000000000000000000000000000000000000000000000000600052603260045260246000fd5b7f4e487b7100000000000000000000000000000000000000000000000000000000600052604160045260246000fd5b600080fd5b600080fd5b600080fd5b600080fd5b6000601f19601f8301169050919050565b7f4f776e61626c653a206e6577206f776e657220697320746865207a65726f206160008201527f6464726573730000000000000000000000000000000000000000000000000000602082015250565b7f4f776e61626c653a2063616c6c6572206973206e6f7420746865206f776e6572600082015250565b610e4e81610c59565b8114610e5957600080fd5b5056fea2646970667358221220a21085165a95bba102b3fe59880e17f3027964706b8a63561e6b8ccd43ba90fb64736f6c63430008070033746f6f206d616e7920757365727320696e206c656167756520746f20616464206e65772075736572a264697066735822122074ee0937918621c741a152d5424ff0705d645dfa58a71ec4561553f92222cad264736f6c63430008070033",
  "linkReferences": {
    "contracts/MOBALogicLibrary.sol": {
      "MOBALogicLibrary": [
        {
          "length": 20,
          "start": 3034
        },
        {
          "length": 20,
          "start": 7929
        },
        {
          "length": 20,
          "start": 8090
        }
      ]
    }
  },
  "deployedLinkReferences": {
    "contracts/MOBALogicLibrary.sol": {
      "MOBALogicLibrary": [
        {
          "length": 20,
          "start": 2757
        },
        {
          "length": 20,
          "start": 7652
        },
        {
          "length": 20,
          "start": 7813
        }
      ]
    }
  }
}