{
  "_format": "hh-sol-artifact-1",
  "contractName": "LeagueOfLegendsLogic",
  "sourceName": "contracts/LeagueOfLegendsLogic.sol",
  "abi": [
    {
      "anonymous": false,
      "inputs": [
        {
          "indexed": true,
          "internalType": "address",
          "name": "previousOwner",
          "type": "address"
        },
        {
          "indexed": true,
          "internalType": "address",
          "name": "newOwner",
          "type": "address"
        }
      ],
      "name": "OwnershipTransferred",
      "type": "event"
    },
    {
      "anonymous": false,
      "inputs": [
        {
          "indexed": true,
          "internalType": "bytes32",
          "name": "role",
          "type": "bytes32"
        },
        {
          "indexed": true,
          "internalType": "bytes32",
          "name": "previousAdminRole",
          "type": "bytes32"
        },
        {
          "indexed": true,
          "internalType": "bytes32",
          "name": "newAdminRole",
          "type": "bytes32"
        }
      ],
      "name": "RoleAdminChanged",
      "type": "event"
    },
    {
      "anonymous": false,
      "inputs": [
        {
          "indexed": true,
          "internalType": "bytes32",
          "name": "role",
          "type": "bytes32"
        },
        {
          "indexed": true,
          "internalType": "address",
          "name": "account",
          "type": "address"
        },
        {
          "indexed": true,
          "internalType": "address",
          "name": "sender",
          "type": "address"
        }
      ],
      "name": "RoleGranted",
      "type": "event"
    },
    {
      "anonymous": false,
      "inputs": [
        {
          "indexed": true,
          "internalType": "bytes32",
          "name": "role",
          "type": "bytes32"
        },
        {
          "indexed": true,
          "internalType": "address",
          "name": "account",
          "type": "address"
        },
        {
          "indexed": true,
          "internalType": "address",
          "name": "sender",
          "type": "address"
        }
      ],
      "name": "RoleRevoked",
      "type": "event"
    },
    {
      "anonymous": false,
      "inputs": [
        {
          "indexed": false,
          "internalType": "address",
          "name": "sender",
          "type": "address"
        },
        {
          "indexed": false,
          "internalType": "uint256",
          "name": "amount",
          "type": "uint256"
        }
      ],
      "name": "Staked",
      "type": "event"
    },
    {
      "anonymous": false,
      "inputs": [
        {
          "indexed": false,
          "internalType": "address",
          "name": "addr",
          "type": "address"
        }
      ],
      "name": "WhitelistedAddressAdded",
      "type": "event"
    },
    {
      "anonymous": false,
      "inputs": [
        {
          "indexed": false,
          "internalType": "address",
          "name": "addr",
          "type": "address"
        }
      ],
      "name": "WhitelistedAddressRemoved",
      "type": "event"
    },
    {
      "inputs": [],
      "name": "DEFAULT_ADMIN_ROLE",
      "outputs": [
        {
          "internalType": "bytes32",
          "name": "",
          "type": "bytes32"
        }
      ],
      "stateMutability": "view",
      "type": "function"
    },
    {
      "inputs": [
        {
          "internalType": "address",
          "name": "addr",
          "type": "address"
        }
      ],
      "name": "addAddressToWhitelist",
      "outputs": [
        {
          "internalType": "bool",
          "name": "success",
          "type": "bool"
        }
      ],
      "stateMutability": "nonpayable",
      "type": "function"
    },
    {
      "inputs": [
        {
          "internalType": "address[]",
          "name": "addrs",
          "type": "address[]"
        }
      ],
      "name": "addAddressesToWhitelist",
      "outputs": [
        {
          "internalType": "bool",
          "name": "success",
          "type": "bool"
        }
      ],
      "stateMutability": "nonpayable",
      "type": "function"
    },
    {
      "inputs": [
        {
          "internalType": "address",
          "name": "user",
          "type": "address"
        }
      ],
      "name": "addUserToLeague",
      "outputs": [],
      "stateMutability": "nonpayable",
      "type": "function"
    },
    {
      "inputs": [],
      "name": "addUserToWhitelist",
      "outputs": [],
      "stateMutability": "nonpayable",
      "type": "function"
    },
    {
      "inputs": [],
      "name": "currentWeekNum",
      "outputs": [
        {
          "internalType": "uint256",
          "name": "",
          "type": "uint256"
        }
      ],
      "stateMutability": "view",
      "type": "function"
    },
    {
      "inputs": [
        {
          "internalType": "uint256",
          "name": "currentWeekNum",
          "type": "uint256"
        }
      ],
      "name": "evaluateWeek",
      "outputs": [],
      "stateMutability": "nonpayable",
      "type": "function"
    },
    {
      "inputs": [],
      "name": "getLeagueName",
      "outputs": [
        {
          "internalType": "string",
          "name": "",
          "type": "string"
        }
      ],
      "stateMutability": "view",
      "type": "function"
    },
    {
      "inputs": [],
      "name": "getLineup",
      "outputs": [
        {
          "internalType": "uint256[]",
          "name": "",
          "type": "uint256[]"
        }
      ],
      "stateMutability": "view",
      "type": "function"
    },
    {
      "inputs": [
        {
          "internalType": "bytes32",
          "name": "role",
          "type": "bytes32"
        }
      ],
      "name": "getRoleAdmin",
      "outputs": [
        {
          "internalType": "bytes32",
          "name": "",
          "type": "bytes32"
        }
      ],
      "stateMutability": "view",
      "type": "function"
    },
    {
      "inputs": [],
      "name": "getStakeAmount",
      "outputs": [
        {
          "internalType": "uint256",
          "name": "stakeAmount",
          "type": "uint256"
        }
      ],
      "stateMutability": "view",
      "type": "function"
    },
    {
      "inputs": [],
      "name": "getTotalPrizePot",
      "outputs": [
        {
          "internalType": "uint256",
          "name": "",
          "type": "uint256"
        }
      ],
      "stateMutability": "view",
      "type": "function"
    },
    {
      "inputs": [
        {
          "internalType": "address",
          "name": "_token",
          "type": "address"
        }
      ],
      "name": "getUSDCBalance",
      "outputs": [
        {
          "internalType": "uint256",
          "name": "",
          "type": "uint256"
        }
      ],
      "stateMutability": "view",
      "type": "function"
    },
    {
      "inputs": [],
      "name": "getUserRecord",
      "outputs": [
        {
          "internalType": "uint256[8]",
          "name": "",
          "type": "uint256[8]"
        }
      ],
      "stateMutability": "view",
      "type": "function"
    },
    {
      "inputs": [
        {
          "internalType": "bytes32",
          "name": "role",
          "type": "bytes32"
        },
        {
          "internalType": "address",
          "name": "account",
          "type": "address"
        }
      ],
      "name": "grantRole",
      "outputs": [],
      "stateMutability": "nonpayable",
      "type": "function"
    },
    {
      "inputs": [
        {
          "internalType": "bytes32",
          "name": "role",
          "type": "bytes32"
        },
        {
          "internalType": "address",
          "name": "account",
          "type": "address"
        }
      ],
      "name": "hasRole",
      "outputs": [
        {
          "internalType": "bool",
          "name": "",
          "type": "bool"
        }
      ],
      "stateMutability": "view",
      "type": "function"
    },
    {
      "inputs": [],
      "name": "incrementVersion",
      "outputs": [],
      "stateMutability": "nonpayable",
      "type": "function"
    },
    {
      "inputs": [
        {
          "internalType": "string",
          "name": "_name",
          "type": "string"
        },
        {
          "internalType": "uint256",
          "name": "_version",
          "type": "uint256"
        },
        {
          "internalType": "uint256",
          "name": "_stakeAmount",
          "type": "uint256"
        },
        {
          "internalType": "bool",
          "name": "_isPublic",
          "type": "bool"
        },
        {
          "internalType": "address",
          "name": "athletesDataStorageAddress",
          "type": "address"
        },
        {
          "internalType": "address",
          "name": "_admin",
          "type": "address"
        },
        {
          "internalType": "address",
          "name": "_polygonUSDCAddress",
          "type": "address"
        },
        {
          "internalType": "address",
          "name": "_rinkebyUSDCAddress",
          "type": "address"
        },
        {
          "internalType": "address",
          "name": "leagueMakerContractAddress",
          "type": "address"
        }
      ],
      "name": "initialize",
      "outputs": [],
      "stateMutability": "nonpayable",
      "type": "function"
    },
    {
      "inputs": [],
      "name": "isPublic",
      "outputs": [
        {
          "internalType": "bool",
          "name": "",
          "type": "bool"
        }
      ],
      "stateMutability": "view",
      "type": "function"
    },
    {
      "inputs": [],
      "name": "joinLeague",
      "outputs": [],
      "stateMutability": "nonpayable",
      "type": "function"
    },
    {
      "inputs": [
        {
          "internalType": "uint256",
          "name": "",
          "type": "uint256"
        }
      ],
      "name": "leagueMembers",
      "outputs": [
        {
          "internalType": "address",
          "name": "",
          "type": "address"
        }
      ],
      "stateMutability": "view",
      "type": "function"
    },
    {
      "inputs": [],
      "name": "leagueName",
      "outputs": [
        {
          "internalType": "string",
          "name": "",
          "type": "string"
        }
      ],
      "stateMutability": "view",
      "type": "function"
    },
    {
      "inputs": [],
      "name": "lockLineup",
      "outputs": [],
      "stateMutability": "nonpayable",
      "type": "function"
    },
    {
      "inputs": [],
      "name": "numWeeks",
      "outputs": [
        {
          "internalType": "uint256",
          "name": "",
          "type": "uint256"
        }
      ],
      "stateMutability": "view",
      "type": "function"
    },
    {
      "inputs": [],
      "name": "owner",
      "outputs": [
        {
          "internalType": "address",
          "name": "",
          "type": "address"
        }
      ],
      "stateMutability": "view",
      "type": "function"
    },
    {
      "inputs": [],
      "name": "polygonUSDCAddress",
      "outputs": [
        {
          "internalType": "address",
          "name": "",
          "type": "address"
        }
      ],
      "stateMutability": "view",
      "type": "function"
    },
    {
      "inputs": [
        {
          "internalType": "address",
          "name": "addr",
          "type": "address"
        }
      ],
      "name": "removeAddressFromWhitelist",
      "outputs": [
        {
          "internalType": "bool",
          "name": "success",
          "type": "bool"
        }
      ],
      "stateMutability": "nonpayable",
      "type": "function"
    },
    {
      "inputs": [
        {
          "internalType": "address[]",
          "name": "addrs",
          "type": "address[]"
        }
      ],
      "name": "removeAddressesFromWhitelist",
      "outputs": [
        {
          "internalType": "bool",
          "name": "success",
          "type": "bool"
        }
      ],
      "stateMutability": "nonpayable",
      "type": "function"
    },
    {
      "inputs": [],
      "name": "renounceOwnership",
      "outputs": [],
      "stateMutability": "nonpayable",
      "type": "function"
    },
    {
      "inputs": [
        {
          "internalType": "bytes32",
          "name": "role",
          "type": "bytes32"
        },
        {
          "internalType": "address",
          "name": "account",
          "type": "address"
        }
      ],
      "name": "renounceRole",
      "outputs": [],
      "stateMutability": "nonpayable",
      "type": "function"
    },
    {
      "inputs": [
        {
          "internalType": "bytes32",
          "name": "role",
          "type": "bytes32"
        },
        {
          "internalType": "address",
          "name": "account",
          "type": "address"
        }
      ],
      "name": "revokeRole",
      "outputs": [],
      "stateMutability": "nonpayable",
      "type": "function"
    },
    {
      "inputs": [],
      "name": "rinkebyUSDCAddress",
      "outputs": [
        {
          "internalType": "address",
          "name": "",
          "type": "address"
        }
      ],
      "stateMutability": "view",
      "type": "function"
    },
    {
      "inputs": [],
      "name": "setLeagueEntryIsClosed",
      "outputs": [],
      "stateMutability": "nonpayable",
      "type": "function"
    },
    {
      "inputs": [],
      "name": "setLeagueSchedule",
      "outputs": [],
      "stateMutability": "nonpayable",
      "type": "function"
    },
    {
      "inputs": [
        {
          "internalType": "uint256[]",
          "name": "athleteIds",
          "type": "uint256[]"
        }
      ],
      "name": "setLineup",
      "outputs": [],
      "stateMutability": "nonpayable",
      "type": "function"
    },
    {
      "inputs": [],
      "name": "stakeAmount",
      "outputs": [
        {
          "internalType": "uint256",
          "name": "",
          "type": "uint256"
        }
      ],
      "stateMutability": "view",
      "type": "function"
    },
    {
      "inputs": [
        {
          "internalType": "bytes4",
          "name": "interfaceId",
          "type": "bytes4"
        }
      ],
      "name": "supportsInterface",
      "outputs": [
        {
          "internalType": "bool",
          "name": "",
          "type": "bool"
        }
      ],
      "stateMutability": "view",
      "type": "function"
    },
    {
      "inputs": [
        {
          "internalType": "address",
          "name": "newOwner",
          "type": "address"
        }
      ],
      "name": "transferOwnership",
      "outputs": [],
      "stateMutability": "nonpayable",
      "type": "function"
    },
    {
      "inputs": [],
      "name": "unlockLineup",
      "outputs": [],
      "stateMutability": "nonpayable",
      "type": "function"
    },
    {
      "inputs": [
        {
          "internalType": "address",
          "name": "",
          "type": "address"
        },
        {
          "internalType": "uint256",
          "name": "",
          "type": "uint256"
        }
      ],
      "name": "userToRecord",
      "outputs": [
        {
          "internalType": "uint256",
          "name": "",
          "type": "uint256"
        }
      ],
      "stateMutability": "view",
      "type": "function"
    },
    {
      "inputs": [],
      "name": "version",
      "outputs": [
        {
          "internalType": "uint256",
          "name": "",
          "type": "uint256"
        }
      ],
      "stateMutability": "view",
      "type": "function"
    },
    {
      "inputs": [
        {
          "internalType": "address",
          "name": "",
          "type": "address"
        }
      ],
      "name": "whitelist",
      "outputs": [
        {
          "internalType": "bool",
          "name": "",
          "type": "bool"
        }
      ],
      "stateMutability": "view",
      "type": "function"
    }
  ],
  "bytecode": "0x60806040523480156200001157600080fd5b5062000032620000266200003860201b60201c565b6200004060201b60201c565b62000105565b600033905090565b60008060029054906101000a900473ffffffffffffffffffffffffffffffffffffffff16905081600060026101000a81548173ffffffffffffffffffffffffffffffffffffffff021916908373ffffffffffffffffffffffffffffffffffffffff1602179055508173ffffffffffffffffffffffffffffffffffffffff168173ffffffffffffffffffffffffffffffffffffffff167f8be0079c531659141344cd1fd0a4f28419497f9722a3daafe3b4186f6b6457e060405160405180910390a35050565b614d5780620001156000396000f3fe60806040523480156200001157600080fd5b5060043610620002975760003560e01c80637b9417c81162000165578063a2bc091a11620000d5578063dc9a15351162000093578063dc9a15351462000786578063e2ec6ec314620007a8578063e4c9066b14620007de578063f2fde38b14620007ea578063f612121a146200080a578063f8816045146200082a5762000297565b8063a2bc091a1462000720578063ada3a28d146200072c578063c8be3b5b146200074e578063c99fea94146200075a578063d547741f14620007665762000297565b806393f3706c116200012357806393f3706c146200066457806399a6003414620006865780639b19251a14620006a85780639f2d548114620006de578063a217fddf14620006fe5762000297565b80637b9417c814620005925780637eed33f114620005c8578063841abf6e14620005ea5780638da5cb5b146200060c57806391d14854146200062e5762000297565b80632cf0a1fc116200020d57806354fd4d5011620001cb57806354fd4d5014620004de57806360c7dc471462000500578063680247171462000522578063715018a61462000558578063722580b614620005645780637ac6aa1d14620005865762000297565b80632cf0a1fc146200044e5780632f2ff15d146200045a57806336568abe146200047a578063403570c5146200049a57806352e6e5f314620004bc5762000297565b80630c6f7959116200025b5780630c6f79591462000340578063248a9ca3146200037657806324953eaa14620003ac578063267175db14620003e2578063286dd3f514620004185762000297565b8062b2476f146200029c57806301ffc9a714620002be5780630655465a14620002f4578063087e18a714620003005780630bdcd5f01462000320575b600080fd5b620002a66200084c565b604051620002b591906200336c565b60405180910390f35b620002dc6004803603810190620002d6919062002dac565b62000872565b604051620002eb919062003435565b60405180910390f35b620002fe620008ef565b005b6200031e600480360381019062000318919062002be6565b620009a7565b005b6200033e600480360381019062000338919062002dde565b62000b2b565b005b6200035e600480360381019062000358919062002c18565b62000ebe565b6040516200036d9190620035f7565b60405180910390f35b6200039460048036038101906200038e919062002d33565b62000ee7565b604051620003a3919062003452565b60405180910390f35b620003ca6004803603810190620003c4919062002c5f565b62000f07565b604051620003d9919062003435565b60405180910390f35b620004006004803603810190620003fa919062002ee1565b62001004565b6040516200040f91906200336c565b60405180910390f35b62000436600480360381019062000430919062002be6565b62001044565b60405162000445919062003435565b60405180910390f35b62000458620011d3565b005b62000478600480360381019062000472919062002d65565b620011f1565b005b62000498600480360381019062000492919062002d65565b62001222565b005b620004a4620012ac565b604051620004b39190620034c3565b60405180910390f35b620004c662001346565b604051620004d59190620035f7565b60405180910390f35b620004e86200134c565b604051620004f79190620035f7565b60405180910390f35b6200050a62001352565b604051620005199190620035f7565b60405180910390f35b6200054060048036038101906200053a919062002be6565b62001358565b6040516200054f9190620035f7565b60405180910390f35b62000562620013f0565b005b6200056e62001481565b6040516200057d9190620035f7565b60405180910390f35b6200059062001486565b005b620005b06004803603810190620005aa919062002be6565b620014f9565b604051620005bf919062003435565b60405180910390f35b620005d262001687565b604051620005e19190620035f7565b60405180910390f35b620005f46200168d565b604051620006039190620034c3565b60405180910390f35b6200061662001723565b6040516200062591906200336c565b60405180910390f35b6200064c600480360381019062000646919062002d65565b6200174c565b6040516200065b919062003435565b60405180910390f35b6200066e620017b7565b6040516200067d91906200336c565b60405180910390f35b62000690620017dd565b6040516200069f9190620035f7565b60405180910390f35b620006c66004803603810190620006c0919062002be6565b620017f9565b604051620006d5919062003435565b60405180910390f35b620006fc6004803603810190620006f6919062002ee1565b62001819565b005b62000708620018d8565b60405162000717919062003452565b60405180910390f35b6200072a620018df565b005b620007366200197f565b60405162000745919062003411565b60405180910390f35b6200075862001a16565b005b6200076462001ab6565b005b6200078460048036038101906200077e919062002d65565b62001c0d565b005b6200079062001c3e565b6040516200079f919062003435565b60405180910390f35b620007c66004803603810190620007c0919062002c5f565b62001c51565b604051620007d5919062003435565b60405180910390f35b620007e862001d4e565b005b62000808600480360381019062000802919062002be6565b62001dee565b005b62000828600480360381019062000822919062002cb0565b62001ef2565b005b6200083462001f9e565b604051620008439190620033f3565b60405180910390f35b601260009054906101000a900473ffffffffffffffffffffffffffffffffffffffff1681565b60007f7965db0b000000000000000000000000000000000000000000000000000000007bffffffffffffffffffffffffffffffffffffffffffffffffffffffff1916827bffffffffffffffffffffffffffffffffffffffffffffffffffffffff19161480620008e85750620008e7826200202a565b5b9050919050565b6200092f6040518060400160405280601081526020017f73657474696e67207363686564756c650000000000000000000000000000000081525062002094565b73__$36fdb4e0c2cb91f3ceca5ea81b025328f3$__63d2c232b56010600960075460066040518563ffffffff1660e01b81526004016200097394939291906200346f565b60006040518083038186803b1580156200098c57600080fd5b505af4158015620009a1573d6000803e3d6000fd5b50505050565b600d60009054906101000a900460ff1615620009fa576040517f08c379a0000000000000000000000000000000000000000000000000000000008152600401620009f190620035b3565b60405180910390fd5b6008600980549050101562000b03576009819080600181540180825580915050600190039060005260206000200160009091909190916101000a81548173ffffffffffffffffffffffffffffffffffffffff021916908373ffffffffffffffffffffffffffffffffffffffff160217905550601560009054906101000a900473ffffffffffffffffffffffffffffffffffffffff1673ffffffffffffffffffffffffffffffffffffffff1663771bd4ce826040518263ffffffff1660e01b815260040162000ac991906200336c565b600060405180830381600087803b15801562000ae457600080fd5b505af115801562000af9573d6000803e3d6000fd5b5050505062000b28565b62000b2760405180606001604052806028815260200162004cfa6028913962002094565b5b50565b600060019054906101000a900460ff1662000b555760008054906101000a900460ff161562000b60565b62000b5f62002131565b5b62000ba2576040517f08c379a000000000000000000000000000000000000000000000000000000000815260040162000b99906200356f565b60405180910390fd5b60008060019054906101000a900460ff16159050801562000bf3576001600060016101000a81548160ff02191690831515021790555060016000806101000a81548160ff0219169083151502179055505b886005819055508a8a6006919062000c0d92919062002857565b50600860078190555062000c256000801b8662002144565b6009859080600181540180825580915050600190039060005260206000200160009091909190916101000a81548173ffffffffffffffffffffffffffffffffffffffff021916908373ffffffffffffffffffffffffffffffffffffffff16021790555087600f8190555086600460006101000a81548160ff0219169083151502179055506000600d60016101000a81548160ff0219169083151502179055506000600d60006101000a81548160ff02191690831515021790555085601360006101000a81548173ffffffffffffffffffffffffffffffffffffffff021916908373ffffffffffffffffffffffffffffffffffffffff16021790555081601560006101000a81548173ffffffffffffffffffffffffffffffffffffffff021916908373ffffffffffffffffffffffffffffffffffffffff16021790555060405162000d6f90620028e8565b604051809103906000f08015801562000d8c573d6000803e3d6000fd5b50601460006101000a81548173ffffffffffffffffffffffffffffffffffffffff021916908373ffffffffffffffffffffffffffffffffffffffff16021790555083601160006101000a81548173ffffffffffffffffffffffffffffffffffffffff021916908373ffffffffffffffffffffffffffffffffffffffff16021790555082601260006101000a81548173ffffffffffffffffffffffffffffffffffffffff021916908373ffffffffffffffffffffffffffffffffffffffff16021790555062000e8f6040518060400160405280601281526020017f50726f787920696e697469616c697a656421000000000000000000000000000081525062002094565b801562000eb15760008060016101000a81548160ff0219169083151502179055505b5050505050505050505050565b600c602052816000526040600020816008811062000edb57600080fd5b01600091509150505481565b600060016000838152602001908152602001600020600101549050919050565b600062000f1362002154565b73ffffffffffffffffffffffffffffffffffffffff1662000f3362001723565b73ffffffffffffffffffffffffffffffffffffffff161462000f8c576040517f08c379a000000000000000000000000000000000000000000000000000000000815260040162000f839062003591565b60405180910390fd5b60005b825181101562000ffe5762000fc183828151811062000fb35762000fb262003a44565b5b602002602001015162001044565b1562000fe85760016003600082825462000fdc91906200380c565b92505081905550600191505b808062000ff59062003998565b91505062000f8f565b50919050565b600981815481106200101557600080fd5b906000526020600020016000915054906101000a900473ffffffffffffffffffffffffffffffffffffffff1681565b60006200105062002154565b73ffffffffffffffffffffffffffffffffffffffff166200107062001723565b73ffffffffffffffffffffffffffffffffffffffff1614620010c9576040517f08c379a0000000000000000000000000000000000000000000000000000000008152600401620010c09062003591565b60405180910390fd5b600260008373ffffffffffffffffffffffffffffffffffffffff1673ffffffffffffffffffffffffffffffffffffffff16815260200190815260200160002060009054906101000a900460ff1615620011ce576000600260008473ffffffffffffffffffffffffffffffffffffffff1673ffffffffffffffffffffffffffffffffffffffff16815260200190815260200160002060006101000a81548160ff0219169083151502179055507ff1abf01a1043b7c244d128e8595cf0c1d10743b022b03a02dffd8ca3bf729f5a82604051620011a591906200336c565b60405180910390a1600160036000828254620011c291906200380c565b92505081905550600190505b919050565b600160056000828254620011e891906200374e565b92505081905550565b620011fc8262000ee7565b62001211816200120b62002154565b6200215c565b6200121d838362002204565b505050565b6200122c62002154565b73ffffffffffffffffffffffffffffffffffffffff168173ffffffffffffffffffffffffffffffffffffffff16146200129c576040517f08c379a00000000000000000000000000000000000000000000000000000000081526004016200129390620035d5565b60405180910390fd5b620012a88282620022e9565b5050565b606060068054620012bd906200392c565b80601f0160208091040260200160405190810160405280929190818152602001828054620012eb906200392c565b80156200133c5780601f1062001310576101008083540402835291602001916200133c565b820191906000526020600020905b8154815290600101906020018083116200131e57829003601f168201915b5050505050905090565b60085481565b60055481565b600f5481565b60008173ffffffffffffffffffffffffffffffffffffffff166370a08231306040518263ffffffff1660e01b81526004016200139591906200336c565b60206040518083038186803b158015620013ae57600080fd5b505afa158015620013c3573d6000803e3d6000fd5b505050506040513d601f19601f82011682018060405250810190620013e9919062002f13565b9050919050565b620013fa62002154565b73ffffffffffffffffffffffffffffffffffffffff166200141a62001723565b73ffffffffffffffffffffffffffffffffffffffff161462001473576040517f08c379a00000000000000000000000000000000000000000000000000000000081526004016200146a9062003591565b60405180910390fd5b6200147f6000620023d0565b565b600090565b620014956000801b336200174c565b6200149f57600080fd5b6001600260003373ffffffffffffffffffffffffffffffffffffffff1673ffffffffffffffffffffffffffffffffffffffff16815260200190815260200160002060006101000a81548160ff021916908315150217905550565b60006200150562002154565b73ffffffffffffffffffffffffffffffffffffffff166200152562001723565b73ffffffffffffffffffffffffffffffffffffffff16146200157e576040517f08c379a0000000000000000000000000000000000000000000000000000000008152600401620015759062003591565b60405180910390fd5b600260008373ffffffffffffffffffffffffffffffffffffffff1673ffffffffffffffffffffffffffffffffffffffff16815260200190815260200160002060009054906101000a900460ff1662001682576001600260008473ffffffffffffffffffffffffffffffffffffffff1673ffffffffffffffffffffffffffffffffffffffff16815260200190815260200160002060006101000a81548160ff0219169083151502179055507fd1bba68c128cc3f427e5831b3c6f99f480b6efa6b9e80c757768f6124158cc3f826040516200165991906200336c565b60405180910390a16001600360008282546200167691906200374e565b92505081905550600190505b919050565b60075481565b600680546200169c906200392c565b80601f0160208091040260200160405190810160405280929190818152602001828054620016ca906200392c565b80156200171b5780601f10620016ef576101008083540402835291602001916200171b565b820191906000526020600020905b815481529060010190602001808311620016fd57829003601f168201915b505050505081565b60008060029054906101000a900473ffffffffffffffffffffffffffffffffffffffff16905090565b60006001600084815260200190815260200160002060000160008373ffffffffffffffffffffffffffffffffffffffff1673ffffffffffffffffffffffffffffffffffffffff16815260200190815260200160002060009054906101000a900460ff16905092915050565b601160009054906101000a900473ffffffffffffffffffffffffffffffffffffffff1681565b6000600980549050600f54620017f49190620037ab565b905090565b60026020528060005260406000206000915054906101000a900460ff1681565b6200182362002154565b73ffffffffffffffffffffffffffffffffffffffff166200184362001723565b73ffffffffffffffffffffffffffffffffffffffff16146200189c576040517f08c379a0000000000000000000000000000000000000000000000000000000008152600401620018939062003591565b60405180910390fd5b60005b6010600083815260200190815260200160002080549050811015620018d4578080620018cb9062003998565b9150506200189f565b5050565b6000801b81565b620018e962002154565b73ffffffffffffffffffffffffffffffffffffffff166200190962001723565b73ffffffffffffffffffffffffffffffffffffffff161462001962576040517f08c379a0000000000000000000000000000000000000000000000000000000008152600401620019599062003591565b60405180910390fd5b6000600d60016101000a81548160ff021916908315150217905550565b6060600e60003373ffffffffffffffffffffffffffffffffffffffff1673ffffffffffffffffffffffffffffffffffffffff16815260200190815260200160002080548060200260200160405190810160405280929190818152602001828054801562001a0c57602002820191906000526020600020905b815481526020019060010190808311620019f7575b5050505050905090565b62001a2062002154565b73ffffffffffffffffffffffffffffffffffffffff1662001a4062001723565b73ffffffffffffffffffffffffffffffffffffffff161462001a99576040517f08c379a000000000000000000000000000000000000000000000000000000000815260040162001a909062003591565b60405180910390fd5b6001600d60016101000a81548160ff021916908315150217905550565b600260003373ffffffffffffffffffffffffffffffffffffffff1673ffffffffffffffffffffffffffffffffffffffff16815260200190815260200160002060009054906101000a900460ff168062001b1b5750600460009054906101000a900460ff165b62001b2557600080fd5b600d60009054906101000a900460ff161562001b78576040517f08c379a000000000000000000000000000000000000000000000000000000000815260040162001b6f90620035b3565b60405180910390fd5b6009339080600181540180825580915050600190039060005260206000200160009091909190916101000a81548173ffffffffffffffffffffffffffffffffffffffff021916908373ffffffffffffffffffffffffffffffffffffffff16021790555062001c0b601260009054906101000a900473ffffffffffffffffffffffffffffffffffffffff16600f5462002495565b565b62001c188262000ee7565b62001c2d8162001c2762002154565b6200215c565b62001c398383620022e9565b505050565b600460009054906101000a900460ff1681565b600062001c5d62002154565b73ffffffffffffffffffffffffffffffffffffffff1662001c7d62001723565b73ffffffffffffffffffffffffffffffffffffffff161462001cd6576040517f08c379a000000000000000000000000000000000000000000000000000000000815260040162001ccd9062003591565b60405180910390fd5b60005b825181101562001d485762001d0b83828151811062001cfd5762001cfc62003a44565b5b6020026020010151620014f9565b1562001d325760016003600082825462001d2691906200374e565b92505081905550600191505b808062001d3f9062003998565b91505062001cd9565b50919050565b62001d5862002154565b73ffffffffffffffffffffffffffffffffffffffff1662001d7862001723565b73ffffffffffffffffffffffffffffffffffffffff161462001dd1576040517f08c379a000000000000000000000000000000000000000000000000000000000815260040162001dc89062003591565b60405180910390fd5b6001600d60006101000a81548160ff021916908315150217905550565b62001df862002154565b73ffffffffffffffffffffffffffffffffffffffff1662001e1862001723565b73ffffffffffffffffffffffffffffffffffffffff161462001e71576040517f08c379a000000000000000000000000000000000000000000000000000000000815260040162001e689062003591565b60405180910390fd5b600073ffffffffffffffffffffffffffffffffffffffff168173ffffffffffffffffffffffffffffffffffffffff16141562001ee4576040517f08c379a000000000000000000000000000000000000000000000000000000000815260040162001edb9062003509565b60405180910390fd5b62001eef81620023d0565b50565b600d60019054906101000a900460ff161562001f45576040517f08c379a000000000000000000000000000000000000000000000000000000000815260040162001f3c906200354d565b60405180910390fd5b80600e60003373ffffffffffffffffffffffffffffffffffffffff1673ffffffffffffffffffffffffffffffffffffffff168152602001908152602001600020908051906020019062001f9a929190620028f6565b5050565b62001fa862002948565b600c60003373ffffffffffffffffffffffffffffffffffffffff1673ffffffffffffffffffffffffffffffffffffffff16815260200190815260200160002060088060200260405190810160405280929190826008801562002020576020028201915b8154815260200190600101908083116200200b575b5050505050905090565b60007f01ffc9a7000000000000000000000000000000000000000000000000000000007bffffffffffffffffffffffffffffffffffffffffffffffffffffffff1916827bffffffffffffffffffffffffffffffffffffffffffffffffffffffff1916149050919050565b6200212e81604051602401620020ab9190620034c3565b6040516020818303038152906040527f41304fac000000000000000000000000000000000000000000000000000000007bffffffffffffffffffffffffffffffffffffffffffffffffffffffff19166020820180517bffffffffffffffffffffffffffffffffffffffffffffffffffffffff8381831617835250505050620025b0565b50565b60006200213e30620025d9565b15905090565b62002150828262002204565b5050565b600033905090565b6200216882826200174c565b6200220057620021908173ffffffffffffffffffffffffffffffffffffffff166014620025fc565b620021a08360001c6020620025fc565b604051602001620021b39291906200332a565b6040516020818303038152906040526040517f08c379a0000000000000000000000000000000000000000000000000000000008152600401620021f79190620034c3565b60405180910390fd5b5050565b6200221082826200174c565b620022e557600180600084815260200190815260200160002060000160008373ffffffffffffffffffffffffffffffffffffffff1673ffffffffffffffffffffffffffffffffffffffff16815260200190815260200160002060006101000a81548160ff0219169083151502179055506200228a62002154565b73ffffffffffffffffffffffffffffffffffffffff168173ffffffffffffffffffffffffffffffffffffffff16837f2f8788117e7eff1d82e926ec794901d17c78024a50270940304540a733656f0d60405160405180910390a45b5050565b620022f582826200174c565b15620023cc5760006001600084815260200190815260200160002060000160008373ffffffffffffffffffffffffffffffffffffffff1673ffffffffffffffffffffffffffffffffffffffff16815260200190815260200160002060006101000a81548160ff0219169083151502179055506200237162002154565b73ffffffffffffffffffffffffffffffffffffffff168173ffffffffffffffffffffffffffffffffffffffff16837ff6391f5c32d9c69d2a47ea670b442974b53935d1edc7fd64eb21e047a839171b60405160405180910390a45b5050565b60008060029054906101000a900473ffffffffffffffffffffffffffffffffffffffff16905081600060026101000a81548173ffffffffffffffffffffffffffffffffffffffff021916908373ffffffffffffffffffffffffffffffffffffffff1602179055508173ffffffffffffffffffffffffffffffffffffffff168173ffffffffffffffffffffffffffffffffffffffff167f8be0079c531659141344cd1fd0a4f28419497f9722a3daafe3b4186f6b6457e060405160405180910390a35050565b60008111620024db576040517f08c379a0000000000000000000000000000000000000000000000000000000008152600401620024d2906200352b565b60405180910390fd5b8173ffffffffffffffffffffffffffffffffffffffff166323b872dd3330846040518463ffffffff1660e01b81526004016200251a9392919062003389565b602060405180830381600087803b1580156200253557600080fd5b505af11580156200254a573d6000803e3d6000fd5b505050506040513d601f19601f8201168201806040525081019062002570919062002d01565b507f9e71bc8eea02a63969f509818f2dafb9254532904319f9dbda79b67bd34a5f3d3382604051620025a4929190620033c6565b60405180910390a15050565b60008151905060006a636f6e736f6c652e6c6f679050602083016000808483855afa5050505050565b6000808273ffffffffffffffffffffffffffffffffffffffff163b119050919050565b606060006002836002620026119190620037ab565b6200261d91906200374e565b67ffffffffffffffff81111562002639576200263862003a73565b5b6040519080825280601f01601f1916602001820160405280156200266c5781602001600182028036833780820191505090505b5090507f300000000000000000000000000000000000000000000000000000000000000081600081518110620026a757620026a662003a44565b5b60200101907effffffffffffffffffffffffffffffffffffffffffffffffffffffffffffff1916908160001a9053507f7800000000000000000000000000000000000000000000000000000000000000816001815181106200270e576200270d62003a44565b5b60200101907effffffffffffffffffffffffffffffffffffffffffffffffffffffffffffff1916908160001a90535060006001846002620027509190620037ab565b6200275c91906200374e565b90505b600181111562002806577f3031323334353637383961626364656600000000000000000000000000000000600f861660108110620027a257620027a162003a44565b5b1a60f81b828281518110620027bc57620027bb62003a44565b5b60200101907effffffffffffffffffffffffffffffffffffffffffffffffffffffffffffff1916908160001a905350600485901c945080620027fe90620038fd565b90506200275f565b50600084146200284d576040517f08c379a00000000000000000000000000000000000000000000000000000000081526004016200284490620034e7565b60405180910390fd5b8091505092915050565b82805462002865906200392c565b90600052602060002090601f016020900481019282620028895760008555620028d5565b82601f10620028a457803560ff1916838001178555620028d5565b82800160010185558215620028d5579182015b82811115620028d4578235825591602001919060010190620028b7565b5b509050620028e491906200296b565b5090565b610f9f8062003d5b83390190565b82805482825590600052602060002090810192821562002935579160200282015b828111156200293457825182559160200191906001019062002917565b5b5090506200294491906200296b565b5090565b604051806101000160405280600890602082028036833780820191505090505090565b5b80821115620029865760008160009055506001016200296c565b5090565b6000620029a16200299b846200363d565b62003614565b90508083825260208201905082856020860282011115620029c757620029c662003aac565b5b60005b85811015620029fb5781620029e0888262002a80565b845260208401935060208301925050600181019050620029ca565b5050509392505050565b600062002a1c62002a16846200366c565b62003614565b9050808382526020820190508285602086028201111562002a425762002a4162003aac565b5b60005b8581101562002a76578162002a5b888262002bb8565b84526020840193506020830192505060018101905062002a45565b5050509392505050565b60008135905062002a918162003cd8565b92915050565b600082601f83011262002aaf5762002aae62003aa7565b5b813562002ac18482602086016200298a565b91505092915050565b600082601f83011262002ae25762002ae162003aa7565b5b813562002af484826020860162002a05565b91505092915050565b60008135905062002b0e8162003cf2565b92915050565b60008151905062002b258162003cf2565b92915050565b60008135905062002b3c8162003d0c565b92915050565b60008135905062002b538162003d26565b92915050565b60008083601f84011262002b725762002b7162003aa7565b5b8235905067ffffffffffffffff81111562002b925762002b9162003aa2565b5b60208301915083600182028301111562002bb15762002bb062003aac565b5b9250929050565b60008135905062002bc98162003d40565b92915050565b60008151905062002be08162003d40565b92915050565b60006020828403121562002bff5762002bfe62003ab6565b5b600062002c0f8482850162002a80565b91505092915050565b6000806040838503121562002c325762002c3162003ab6565b5b600062002c428582860162002a80565b925050602062002c558582860162002bb8565b9150509250929050565b60006020828403121562002c785762002c7762003ab6565b5b600082013567ffffffffffffffff81111562002c995762002c9862003ab1565b5b62002ca78482850162002a97565b91505092915050565b60006020828403121562002cc95762002cc862003ab6565b5b600082013567ffffffffffffffff81111562002cea5762002ce962003ab1565b5b62002cf88482850162002aca565b91505092915050565b60006020828403121562002d1a5762002d1962003ab6565b5b600062002d2a8482850162002b14565b91505092915050565b60006020828403121562002d4c5762002d4b62003ab6565b5b600062002d5c8482850162002b2b565b91505092915050565b6000806040838503121562002d7f5762002d7e62003ab6565b5b600062002d8f8582860162002b2b565b925050602062002da28582860162002a80565b9150509250929050565b60006020828403121562002dc55762002dc462003ab6565b5b600062002dd58482850162002b42565b91505092915050565b6000806000806000806000806000806101208b8d03121562002e055762002e0462003ab6565b5b60008b013567ffffffffffffffff81111562002e265762002e2562003ab1565b5b62002e348d828e0162002b59565b9a509a5050602062002e498d828e0162002bb8565b985050604062002e5c8d828e0162002bb8565b975050606062002e6f8d828e0162002afd565b965050608062002e828d828e0162002a80565b95505060a062002e958d828e0162002a80565b94505060c062002ea88d828e0162002a80565b93505060e062002ebb8d828e0162002a80565b92505061010062002ecf8d828e0162002a80565b9150509295989b9194979a5092959850565b60006020828403121562002efa5762002ef962003ab6565b5b600062002f0a8482850162002bb8565b91505092915050565b60006020828403121562002f2c5762002f2b62003ab6565b5b600062002f3c8482850162002bcf565b91505092915050565b600062002f538383620032f7565b60208301905092915050565b62002f6a8162003847565b82525050565b8082525050565b62002f8281620036ca565b62002f8e818462003705565b925062002f9b826200369b565b8060005b8381101562002fd257815162002fb6878262002f45565b965062002fc383620036eb565b92505060018101905062002f9f565b505050505050565b600062002fe782620036d5565b62002ff3818562003710565b93506200300083620036a5565b8060005b83811015620030375781516200301b888262002f45565b97506200302883620036f8565b92505060018101905062003004565b5085935050505092915050565b6200304f816200385b565b82525050565b620030608162003867565b82525050565b8082525050565b60006200307a82620036e0565b62003086818562003721565b935062003098818560208601620038c7565b620030a38162003abb565b840191505092915050565b6000620030bb82620036e0565b620030c7818562003743565b9350620030d9818560208601620038c7565b80840191505092915050565b60008154620030f4816200392c565b62003100818662003732565b945060018216600081146200311e5760018114620031315762003168565b60ff198316865260208601935062003168565b6200313c85620036b5565b60005b8381101562003160578154818901526001820191506020810190506200313f565b808801955050505b50505092915050565b60006200318060208362003721565b91506200318d8262003acc565b602082019050919050565b6000620031a760268362003721565b9150620031b48262003af5565b604082019050919050565b6000620031ce600e8362003721565b9150620031db8262003b44565b602082019050919050565b6000620031f5601e8362003721565b9150620032028262003b6d565b602082019050919050565b60006200321c602e8362003721565b9150620032298262003b96565b604082019050919050565b60006200324360208362003721565b9150620032508262003be5565b602082019050919050565b60006200326a60178362003743565b9150620032778262003c0e565b601782019050919050565b60006200329160178362003721565b91506200329e8262003c37565b602082019050919050565b6000620032b860118362003743565b9150620032c58262003c60565b601182019050919050565b6000620032df602f8362003721565b9150620032ec8262003c89565b604082019050919050565b6200330281620038bd565b82525050565b6200331381620038bd565b82525050565b6200332481620038bd565b82525050565b600062003337826200325b565b9150620033458285620030ae565b91506200335282620032a9565b9150620033608284620030ae565b91508190509392505050565b600060208201905062003383600083018462002f5f565b92915050565b6000606082019050620033a0600083018662002f5f565b620033af602083018562002f5f565b620033be604083018462003308565b949350505050565b6000604082019050620033dd600083018562002f5f565b620033ec602083018462003308565b9392505050565b6000610100820190506200340b600083018462002f77565b92915050565b600060208201905081810360008301526200342d818462002fda565b905092915050565b60006020820190506200344c600083018462003044565b92915050565b600060208201905062003469600083018462003055565b92915050565b600060808201905062003486600083018762003066565b62003495602083018662002f70565b620034a4604083018562003319565b8181036060830152620034b88184620030e5565b905095945050505050565b60006020820190508181036000830152620034df81846200306d565b905092915050565b60006020820190508181036000830152620035028162003171565b9050919050565b60006020820190508181036000830152620035248162003198565b9050919050565b600060208201905081810360008301526200354681620031bf565b9050919050565b600060208201905081810360008301526200356881620031e6565b9050919050565b600060208201905081810360008301526200358a816200320d565b9050919050565b60006020820190508181036000830152620035ac8162003234565b9050919050565b60006020820190508181036000830152620035ce8162003282565b9050919050565b60006020820190508181036000830152620035f081620032d0565b9050919050565b60006020820190506200360e600083018462003308565b92915050565b60006200362062003633565b90506200362e828262003962565b919050565b6000604051905090565b600067ffffffffffffffff8211156200365b576200365a62003a73565b5b602082029050602081019050919050565b600067ffffffffffffffff8211156200368a576200368962003a73565b5b602082029050602081019050919050565b6000819050919050565b6000819050602082019050919050565b60008190508160005260206000209050919050565b600060089050919050565b600081519050919050565b600081519050919050565b6000602082019050919050565b6000602082019050919050565b600081905092915050565b600082825260208201905092915050565b600082825260208201905092915050565b600082825260208201905092915050565b600081905092915050565b60006200375b82620038bd565b91506200376883620038bd565b9250827fffffffffffffffffffffffffffffffffffffffffffffffffffffffffffffffff03821115620037a0576200379f620039e6565b5b828201905092915050565b6000620037b882620038bd565b9150620037c583620038bd565b9250817fffffffffffffffffffffffffffffffffffffffffffffffffffffffffffffffff0483118215151615620038015762003800620039e6565b5b828202905092915050565b60006200381982620038bd565b91506200382683620038bd565b9250828210156200383c576200383b620039e6565b5b828203905092915050565b600062003854826200389d565b9050919050565b60008115159050919050565b6000819050919050565b60007fffffffff0000000000000000000000000000000000000000000000000000000082169050919050565b600073ffffffffffffffffffffffffffffffffffffffff82169050919050565b6000819050919050565b60005b83811015620038e7578082015181840152602081019050620038ca565b83811115620038f7576000848401525b50505050565b60006200390a82620038bd565b91506000821415620039215762003920620039e6565b5b600182039050919050565b600060028204905060018216806200394557607f821691505b602082108114156200395c576200395b62003a15565b5b50919050565b6200396d8262003abb565b810181811067ffffffffffffffff821117156200398f576200398e62003a73565b5b80604052505050565b6000620039a582620038bd565b91507fffffffffffffffffffffffffffffffffffffffffffffffffffffffffffffffff821415620039db57620039da620039e6565b5b600182019050919050565b7f4e487b7100000000000000000000000000000000000000000000000000000000600052601160045260246000fd5b7f4e487b7100000000000000000000000000000000000000000000000000000000600052602260045260246000fd5b7f4e487b7100000000000000000000000000000000000000000000000000000000600052603260045260246000fd5b7f4e487b7100000000000000000000000000000000000000000000000000000000600052604160045260246000fd5b600080fd5b600080fd5b600080fd5b600080fd5b600080fd5b6000601f19601f8301169050919050565b7f537472696e67733a20686578206c656e67746820696e73756666696369656e74600082015250565b7f4f776e61626c653a206e6577206f776e657220697320746865207a65726f206160008201527f6464726573730000000000000000000000000000000000000000000000000000602082015250565b7f43616e6e6f74207374616b652030000000000000000000000000000000000000600082015250565b7f6c696e657570206973206c6f636b656420666f7220746865207765656b210000600082015250565b7f496e697469616c697a61626c653a20636f6e747261637420697320616c72656160008201527f647920696e697469616c697a6564000000000000000000000000000000000000602082015250565b7f4f776e61626c653a2063616c6c6572206973206e6f7420746865206f776e6572600082015250565b7f416363657373436f6e74726f6c3a206163636f756e7420000000000000000000600082015250565b7f4c656167756520456e74727920697320436c6f73656421000000000000000000600082015250565b7f206973206d697373696e6720726f6c6520000000000000000000000000000000600082015250565b7f416363657373436f6e74726f6c3a2063616e206f6e6c792072656e6f756e636560008201527f20726f6c657320666f722073656c660000000000000000000000000000000000602082015250565b62003ce38162003847565b811462003cef57600080fd5b50565b62003cfd816200385b565b811462003d0957600080fd5b50565b62003d178162003867565b811462003d2357600080fd5b50565b62003d318162003871565b811462003d3d57600080fd5b50565b62003d4b81620038bd565b811462003d5757600080fd5b5056fe608060405234801561001057600080fd5b5061002d61002261003260201b60201c565b61003a60201b60201c565b6100fe565b600033905090565b60008060009054906101000a900473ffffffffffffffffffffffffffffffffffffffff169050816000806101000a81548173ffffffffffffffffffffffffffffffffffffffff021916908373ffffffffffffffffffffffffffffffffffffffff1602179055508173ffffffffffffffffffffffffffffffffffffffff168173ffffffffffffffffffffffffffffffffffffffff167f8be0079c531659141344cd1fd0a4f28419497f9722a3daafe3b4186f6b6457e060405160405180910390a35050565b610e928061010d6000396000f3fe608060405234801561001057600080fd5b50600436106100935760003560e01c80638da5cb5b116100665780638da5cb5b146101325780639b19251a14610150578063dc9a153514610180578063e2ec6ec31461019e578063f2fde38b146101ce57610093565b806324953eaa14610098578063286dd3f5146100c8578063715018a6146100f85780637b9417c814610102575b600080fd5b6100b260048036038101906100ad9190610a4a565b6101ea565b6040516100bf9190610b12565b60405180910390f35b6100e260048036038101906100dd9190610a1d565b6102d4565b6040516100ef9190610b12565b60405180910390f35b610100610457565b005b61011c60048036038101906101179190610a1d565b6104df565b6040516101299190610b12565b60405180910390f35b61013a610660565b6040516101479190610af7565b60405180910390f35b61016a60048036038101906101659190610a1d565b610689565b6040516101779190610b12565b60405180910390f35b6101886106a9565b6040516101959190610b12565b60405180910390f35b6101b860048036038101906101b39190610a4a565b6106bc565b6040516101c59190610b12565b60405180910390f35b6101e860048036038101906101e39190610a1d565b6107a6565b005b60006101f461089e565b73ffffffffffffffffffffffffffffffffffffffff16610212610660565b73ffffffffffffffffffffffffffffffffffffffff1614610268576040517f08c379a000000000000000000000000000000000000000000000000000000000815260040161025f90610b4d565b60405180910390fd5b60005b82518110156102ce5761029783828151811061028a57610289610d4a565b5b60200260200101516102d4565b156102bb576001600260008282546102af9190610c25565b92505081905550600191505b80806102c690610cd2565b91505061026b565b50919050565b60006102de61089e565b73ffffffffffffffffffffffffffffffffffffffff166102fc610660565b73ffffffffffffffffffffffffffffffffffffffff1614610352576040517f08c379a000000000000000000000000000000000000000000000000000000000815260040161034990610b4d565b60405180910390fd5b600160008373ffffffffffffffffffffffffffffffffffffffff1673ffffffffffffffffffffffffffffffffffffffff16815260200190815260200160002060009054906101000a900460ff1615610452576000600160008473ffffffffffffffffffffffffffffffffffffffff1673ffffffffffffffffffffffffffffffffffffffff16815260200190815260200160002060006101000a81548160ff0219169083151502179055507ff1abf01a1043b7c244d128e8595cf0c1d10743b022b03a02dffd8ca3bf729f5a8260405161042b9190610af7565b60405180910390a16001600260008282546104469190610c25565b92505081905550600190505b919050565b61045f61089e565b73ffffffffffffffffffffffffffffffffffffffff1661047d610660565b73ffffffffffffffffffffffffffffffffffffffff16146104d3576040517f08c379a00000000000000000000000000000000000000000000000000000000081526004016104ca90610b4d565b60405180910390fd5b6104dd60006108a6565b565b60006104e961089e565b73ffffffffffffffffffffffffffffffffffffffff16610507610660565b73ffffffffffffffffffffffffffffffffffffffff161461055d576040517f08c379a000000000000000000000000000000000000000000000000000000000815260040161055490610b4d565b60405180910390fd5b600160008373ffffffffffffffffffffffffffffffffffffffff1673ffffffffffffffffffffffffffffffffffffffff16815260200190815260200160002060009054906101000a900460ff1661065b5760018060008473ffffffffffffffffffffffffffffffffffffffff1673ffffffffffffffffffffffffffffffffffffffff16815260200190815260200160002060006101000a81548160ff0219169083151502179055507fd1bba68c128cc3f427e5831b3c6f99f480b6efa6b9e80c757768f6124158cc3f826040516106349190610af7565b60405180910390a160016002600082825461064f9190610bcf565b92505081905550600190505b919050565b60008060009054906101000a900473ffffffffffffffffffffffffffffffffffffffff16905090565b60016020528060005260406000206000915054906101000a900460ff1681565b600360009054906101000a900460ff1681565b60006106c661089e565b73ffffffffffffffffffffffffffffffffffffffff166106e4610660565b73ffffffffffffffffffffffffffffffffffffffff161461073a576040517f08c379a000000000000000000000000000000000000000000000000000000000815260040161073190610b4d565b60405180910390fd5b60005b82518110156107a05761076983828151811061075c5761075b610d4a565b5b60200260200101516104df565b1561078d576001600260008282546107819190610bcf565b92505081905550600191505b808061079890610cd2565b91505061073d565b50919050565b6107ae61089e565b73ffffffffffffffffffffffffffffffffffffffff166107cc610660565b73ffffffffffffffffffffffffffffffffffffffff1614610822576040517f08c379a000000000000000000000000000000000000000000000000000000000815260040161081990610b4d565b60405180910390fd5b600073ffffffffffffffffffffffffffffffffffffffff168173ffffffffffffffffffffffffffffffffffffffff161415610892576040517f08c379a000000000000000000000000000000000000000000000000000000000815260040161088990610b2d565b60405180910390fd5b61089b816108a6565b50565b600033905090565b60008060009054906101000a900473ffffffffffffffffffffffffffffffffffffffff169050816000806101000a81548173ffffffffffffffffffffffffffffffffffffffff021916908373ffffffffffffffffffffffffffffffffffffffff1602179055508173ffffffffffffffffffffffffffffffffffffffff168173ffffffffffffffffffffffffffffffffffffffff167f8be0079c531659141344cd1fd0a4f28419497f9722a3daafe3b4186f6b6457e060405160405180910390a35050565b600061097d61097884610b92565b610b6d565b905080838252602082019050828560208602820111156109a05761099f610dad565b5b60005b858110156109d057816109b688826109da565b8452602084019350602083019250506001810190506109a3565b5050509392505050565b6000813590506109e981610e45565b92915050565b600082601f830112610a0457610a03610da8565b5b8135610a1484826020860161096a565b91505092915050565b600060208284031215610a3357610a32610db7565b5b6000610a41848285016109da565b91505092915050565b600060208284031215610a6057610a5f610db7565b5b600082013567ffffffffffffffff811115610a7e57610a7d610db2565b5b610a8a848285016109ef565b91505092915050565b610a9c81610c59565b82525050565b610aab81610c6b565b82525050565b6000610abe602683610bbe565b9150610ac982610dcd565b604082019050919050565b6000610ae1602083610bbe565b9150610aec82610e1c565b602082019050919050565b6000602082019050610b0c6000830184610a93565b92915050565b6000602082019050610b276000830184610aa2565b92915050565b60006020820190508181036000830152610b4681610ab1565b9050919050565b60006020820190508181036000830152610b6681610ad4565b9050919050565b6000610b77610b88565b9050610b838282610ca1565b919050565b6000604051905090565b600067ffffffffffffffff821115610bad57610bac610d79565b5b602082029050602081019050919050565b600082825260208201905092915050565b6000610bda82610c97565b9150610be583610c97565b9250827fffffffffffffffffffffffffffffffffffffffffffffffffffffffffffffffff03821115610c1a57610c19610d1b565b5b828201905092915050565b6000610c3082610c97565b9150610c3b83610c97565b925082821015610c4e57610c4d610d1b565b5b828203905092915050565b6000610c6482610c77565b9050919050565b60008115159050919050565b600073ffffffffffffffffffffffffffffffffffffffff82169050919050565b6000819050919050565b610caa82610dbc565b810181811067ffffffffffffffff82111715610cc957610cc8610d79565b5b80604052505050565b6000610cdd82610c97565b91507fffffffffffffffffffffffffffffffffffffffffffffffffffffffffffffffff821415610d1057610d0f610d1b565b5b600182019050919050565b7f4e487b7100000000000000000000000000000000000000000000000000000000600052601160045260246000fd5b7f4e487b7100000000000000000000000000000000000000000000000000000000600052603260045260246000fd5b7f4e487b7100000000000000000000000000000000000000000000000000000000600052604160045260246000fd5b600080fd5b600080fd5b600080fd5b600080fd5b6000601f19601f8301169050919050565b7f4f776e61626c653a206e6577206f776e657220697320746865207a65726f206160008201527f6464726573730000000000000000000000000000000000000000000000000000602082015250565b7f4f776e61626c653a2063616c6c6572206973206e6f7420746865206f776e6572600082015250565b610e4e81610c59565b8114610e5957600080fd5b5056fea2646970667358221220070224275ad0b13d0a847fbeb4a423ae740dee42968a8d236c8eedaef3b3cc5764736f6c63430008070033746f6f206d616e7920757365727320696e206c656167756520746f20616464206e65772075736572a2646970667358221220f61054515809a882f01948646f483f1d3afcf376ce495008f4a48851b624d31464736f6c63430008070033",
  "linkReferences": {
    "contracts/MOBALogicLibrary.sol": {
      "MOBALogicLibrary": [
        {
          "length": 20,
          "start": 2630
        }
      ]
    }
  },
  "deployedLinkReferences": {
    "contracts/MOBALogicLibrary.sol": {
      "MOBALogicLibrary": [
        {
          "length": 20,
          "start": 2353
        }
      ]
    }
  }
}