{
  "_format": "hh-sol-artifact-1",
  "contractName": "LeagueOfLegendsLogic",
  "sourceName": "contracts/LeagueOfLegendsLogic.sol",
  "abi": [
    {
      "anonymous": false,
      "inputs": [
        {
          "indexed": false,
          "internalType": "address",
          "name": "sender",
          "type": "address"
        },
        {
          "indexed": false,
          "internalType": "uint256",
          "name": "amount",
          "type": "uint256"
        },
        {
          "indexed": false,
          "internalType": "address",
          "name": "leagueAddress",
          "type": "address"
        }
      ],
      "name": "Staked",
      "type": "event"
    },
    {
      "anonymous": false,
      "inputs": [
        {
          "indexed": false,
          "internalType": "address[]",
          "name": "winner",
          "type": "address[]"
        },
        {
          "indexed": false,
          "internalType": "uint256",
          "name": "prizePotPerWinner",
          "type": "uint256"
        }
      ],
      "name": "leagueEnded",
      "type": "event"
    },
    {
      "anonymous": false,
      "inputs": [
        {
          "indexed": false,
          "internalType": "address",
          "name": "sender",
          "type": "address"
        },
        {
          "indexed": false,
          "internalType": "address",
          "name": "contractAddress",
          "type": "address"
        }
      ],
      "name": "testUSDCDeployed",
      "type": "event"
    },
    {
      "inputs": [
        {
          "internalType": "address",
          "name": "_userToAdd",
          "type": "address"
        }
      ],
      "name": "addUserToLeague",
      "outputs": [],
      "stateMutability": "nonpayable",
      "type": "function"
    },
    {
      "inputs": [
        {
          "internalType": "address",
          "name": "_userToAdd",
          "type": "address"
        }
      ],
      "name": "addUserToWhitelist",
      "outputs": [],
      "stateMutability": "nonpayable",
      "type": "function"
    },
    {
      "inputs": [],
      "name": "admin",
      "outputs": [
        {
          "internalType": "address",
          "name": "",
          "type": "address"
        }
      ],
      "stateMutability": "view",
      "type": "function"
    },
    {
      "inputs": [],
      "name": "currentWeekNum",
      "outputs": [
        {
          "internalType": "uint256",
          "name": "",
          "type": "uint256"
        }
      ],
      "stateMutability": "view",
      "type": "function"
    },
    {
      "inputs": [],
      "name": "getAdmin",
      "outputs": [
        {
          "internalType": "address",
          "name": "",
          "type": "address"
        }
      ],
      "stateMutability": "view",
      "type": "function"
    },
    {
      "inputs": [],
      "name": "getContractUSDCBalance",
      "outputs": [
        {
          "internalType": "uint256",
          "name": "",
          "type": "uint256"
        }
      ],
      "stateMutability": "view",
      "type": "function"
    },
    {
      "inputs": [
        {
          "internalType": "uint256",
          "name": "index",
          "type": "uint256"
        }
      ],
      "name": "getLeagueMember",
      "outputs": [
        {
          "internalType": "address",
          "name": "",
          "type": "address"
        }
      ],
      "stateMutability": "view",
      "type": "function"
    },
    {
      "inputs": [],
      "name": "getLeagueMembersLength",
      "outputs": [
        {
          "internalType": "uint256",
          "name": "",
          "type": "uint256"
        }
      ],
      "stateMutability": "view",
      "type": "function"
    },
    {
      "inputs": [
        {
          "internalType": "address",
          "name": "_user",
          "type": "address"
        }
      ],
      "name": "getLineup",
      "outputs": [
        {
          "internalType": "uint256[5]",
          "name": "",
          "type": "uint256[5]"
        }
      ],
      "stateMutability": "view",
      "type": "function"
    },
    {
      "inputs": [],
      "name": "getLineupIsLocked",
      "outputs": [
        {
          "internalType": "bool",
          "name": "",
          "type": "bool"
        }
      ],
      "stateMutability": "view",
      "type": "function"
    },
    {
      "inputs": [
        {
          "internalType": "uint256",
          "name": "_week",
          "type": "uint256"
        }
      ],
      "name": "getScheduleForWeek",
      "outputs": [
        {
          "components": [
            {
              "internalType": "address[2]",
              "name": "players",
              "type": "address[2]"
            }
          ],
          "internalType": "struct LeagueOfLegendsLogic.Matchup[]",
          "name": "",
          "type": "tuple[]"
        }
      ],
      "stateMutability": "view",
      "type": "function"
    },
    {
      "inputs": [
        {
          "internalType": "address",
          "name": "user",
          "type": "address"
        }
      ],
      "name": "getUserRecord",
      "outputs": [
        {
          "internalType": "uint256[8]",
          "name": "",
          "type": "uint256[8]"
        }
      ],
      "stateMutability": "view",
      "type": "function"
    },
    {
      "inputs": [
        {
          "internalType": "address",
          "name": "",
          "type": "address"
        }
      ],
      "name": "inLeague",
      "outputs": [
        {
          "internalType": "bool",
          "name": "",
          "type": "bool"
        }
      ],
      "stateMutability": "view",
      "type": "function"
    },
    {
      "inputs": [
        {
          "internalType": "string",
          "name": "_name",
          "type": "string"
        },
        {
          "internalType": "uint256",
          "name": "_stakeAmount",
          "type": "uint256"
        },
        {
          "internalType": "bool",
          "name": "_isPublic",
          "type": "bool"
        },
        {
          "internalType": "address",
          "name": "athletesDataStorageAddress",
          "type": "address"
        },
        {
          "internalType": "address",
          "name": "_admin",
          "type": "address"
        },
        {
          "internalType": "address",
          "name": "_rinkebyUSDCAddress",
          "type": "address"
        },
        {
          "internalType": "address",
          "name": "_testUSDCAddress",
          "type": "address"
        },
        {
          "internalType": "address",
          "name": "_gameItemsContractAddress",
          "type": "address"
        },
        {
          "internalType": "address",
          "name": "_teamDiffAddress",
          "type": "address"
        },
        {
          "internalType": "address",
          "name": "_leagueMakerContractAddress",
          "type": "address"
        }
      ],
      "name": "initialize",
      "outputs": [],
      "stateMutability": "nonpayable",
      "type": "function"
    },
    {
      "inputs": [],
      "name": "joinLeague",
      "outputs": [],
      "stateMutability": "nonpayable",
      "type": "function"
    },
    {
      "inputs": [],
      "name": "leagueEntryIsClosed",
      "outputs": [
        {
          "internalType": "bool",
          "name": "",
          "type": "bool"
        }
      ],
      "stateMutability": "view",
      "type": "function"
    },
    {
      "inputs": [
        {
          "internalType": "uint256",
          "name": "",
          "type": "uint256"
        }
      ],
      "name": "leagueMembers",
      "outputs": [
        {
          "internalType": "address",
          "name": "",
          "type": "address"
        }
      ],
      "stateMutability": "view",
      "type": "function"
    },
    {
      "inputs": [],
      "name": "leagueName",
      "outputs": [
        {
          "internalType": "string",
          "name": "",
          "type": "string"
        }
      ],
      "stateMutability": "view",
      "type": "function"
    },
    {
      "inputs": [],
      "name": "lineupIsLocked",
      "outputs": [
        {
          "internalType": "bool",
          "name": "",
          "type": "bool"
        }
      ],
      "stateMutability": "view",
      "type": "function"
    },
    {
      "inputs": [],
      "name": "lockLineup",
      "outputs": [],
      "stateMutability": "nonpayable",
      "type": "function"
    },
    {
      "inputs": [],
      "name": "numWeeks",
      "outputs": [
        {
          "internalType": "uint256",
          "name": "",
          "type": "uint256"
        }
      ],
      "stateMutability": "view",
      "type": "function"
    },
    {
      "inputs": [],
      "name": "onLeagueEnd",
      "outputs": [],
      "stateMutability": "nonpayable",
      "type": "function"
    },
    {
      "inputs": [
        {
          "internalType": "address",
          "name": "_userToRemove",
          "type": "address"
        }
      ],
      "name": "removeFromWhitelist",
      "outputs": [],
      "stateMutability": "nonpayable",
      "type": "function"
    },
    {
      "inputs": [],
      "name": "rinkebyUSDC",
      "outputs": [
        {
          "internalType": "contract IERC20",
          "name": "",
          "type": "address"
        }
      ],
      "stateMutability": "view",
      "type": "function"
    },
    {
      "inputs": [
        {
          "internalType": "uint256",
          "name": "athleteId",
          "type": "uint256"
        },
        {
          "internalType": "uint256",
          "name": "position",
          "type": "uint256"
        }
      ],
      "name": "setAthleteInLineup",
      "outputs": [],
      "stateMutability": "nonpayable",
      "type": "function"
    },
    {
      "inputs": [],
      "name": "setLeagueEntryIsClosed",
      "outputs": [],
      "stateMutability": "nonpayable",
      "type": "function"
    },
    {
      "inputs": [],
      "name": "setLeagueSchedule",
      "outputs": [],
      "stateMutability": "nonpayable",
      "type": "function"
    },
    {
      "inputs": [
        {
          "internalType": "uint256[5]",
          "name": "athleteIds",
          "type": "uint256[5]"
        }
      ],
      "name": "setLineup",
      "outputs": [],
      "stateMutability": "nonpayable",
      "type": "function"
    },
    {
      "inputs": [],
      "name": "stakeAmount",
      "outputs": [
        {
          "internalType": "uint256",
          "name": "",
          "type": "uint256"
        }
      ],
      "stateMutability": "view",
      "type": "function"
    },
    {
      "inputs": [],
      "name": "teamDiffAddress",
      "outputs": [
        {
          "internalType": "address",
          "name": "",
          "type": "address"
        }
      ],
      "stateMutability": "view",
      "type": "function"
    },
    {
      "inputs": [],
      "name": "testUSDC",
      "outputs": [
        {
          "internalType": "contract IERC20",
          "name": "",
          "type": "address"
        }
      ],
      "stateMutability": "view",
      "type": "function"
    },
    {
      "inputs": [],
      "name": "unlockLineup",
      "outputs": [],
      "stateMutability": "nonpayable",
      "type": "function"
    },
    {
      "inputs": [
        {
          "internalType": "address",
          "name": "",
          "type": "address"
        },
        {
          "internalType": "uint256",
          "name": "",
          "type": "uint256"
        }
      ],
      "name": "userToLineup",
      "outputs": [
        {
          "internalType": "uint256",
          "name": "",
          "type": "uint256"
        }
      ],
      "stateMutability": "view",
      "type": "function"
    },
    {
      "inputs": [
        {
          "internalType": "address",
          "name": "",
          "type": "address"
        }
      ],
      "name": "userToPoints",
      "outputs": [
        {
          "internalType": "uint256",
          "name": "",
          "type": "uint256"
        }
      ],
      "stateMutability": "view",
      "type": "function"
    },
    {
      "inputs": [
        {
          "internalType": "address",
          "name": "",
          "type": "address"
        },
        {
          "internalType": "uint256",
          "name": "",
          "type": "uint256"
        }
      ],
      "name": "userToRecord",
      "outputs": [
        {
          "internalType": "uint256",
          "name": "",
          "type": "uint256"
        }
      ],
      "stateMutability": "view",
      "type": "function"
    },
    {
      "inputs": [
        {
          "internalType": "address",
          "name": "",
          "type": "address"
        },
        {
          "internalType": "uint256",
          "name": "",
          "type": "uint256"
        }
      ],
      "name": "userToWeekScore",
      "outputs": [
        {
          "internalType": "uint256",
          "name": "",
          "type": "uint256"
        }
      ],
      "stateMutability": "view",
      "type": "function"
    },
    {
      "inputs": [],
      "name": "whitelistContract",
      "outputs": [
        {
          "internalType": "contract Whitelist",
          "name": "",
          "type": "address"
        }
      ],
      "stateMutability": "view",
      "type": "function"
    }
  ],
  "bytecode": "0x608060405234801561001057600080fd5b50600180819055506157d5806100276000396000f3fe60806040523480156200001157600080fd5b50600436106200025b5760003560e01c80636cc15ad5116200014d578063a949a9d711620000c9578063db2a67241162000087578063db2a672414620006b2578063e4c9066b14620006e8578063e5f7322f14620006f4578063ee90080f146200072a578063f851a4401462000760576200025b565b8063a949a9d71462000622578063b47f86281462000644578063c8be3b5b1462000664578063c99fea941462000670578063cff56003146200067c576200025b565b8063841abf6e1162000117578063841abf6e146200057c57806384900b04146200059e5780638ab1d68114620005c05780639122ce6d14620005e0578063a2bc091a1462000616576200025b565b80636cc15ad514620004f65780636e9960c31462000518578063747b8050146200053a5780637eed33f1146200055a576200025b565b806327311b3211620001dd57806352e6e5f311620001a757806352e6e5f3146200043a57806360c7dc47146200045c57806363c665f7146200047e57806366aab25614620004a057806367e2efc614620004c0576200025b565b806327311b32146200038c5780632ae6b13514620003ae5780632d382ee014620003e45780633c3ae13f146200041a576200025b565b8063087e18a7116200022b578063087e18a714620002d25780630c6f795914620002f25780631d803e0014620003285780631dd7f8ca1462000334578063267175db1462000356576200025b565b80622772c21462000260578063022e35e614620002825780630635dbcb14620002a45780630655465a14620002c6575b600080fd5b6200026a62000782565b60405162000279919062003d25565b60405180910390f35b6200028c6200083a565b6040516200029b919062003ab9565b60405180910390f35b620002ae62000860565b604051620002bd919062003a9c565b60405180910390f35b620002d062000873565b005b620002f06004803603810190620002ea919062002fea565b6200097e565b005b6200031060048036038101906200030a91906200301c565b62000ac7565b6040516200031f919062003d25565b60405180910390f35b6200033262000af0565b005b6200033e62000eb0565b6040516200034d919062003901565b60405180910390f35b6200037460048036038101906200036e9190620031e1565b62000ed6565b60405162000383919062003901565b60405180910390f35b6200039662000f16565b604051620003a5919062003a9c565b60405180910390f35b620003cc6004803603810190620003c6919062002fea565b62000f2d565b604051620003db919062003d25565b60405180910390f35b620004026004803603810190620003fc9190620031e1565b62000f45565b60405162000411919062003a3d565b60405180910390f35b620004386004803603810190620004329190620030c7565b62001036565b005b6200044462001407565b60405162000453919062003d25565b60405180910390f35b620004666200140d565b60405162000475919062003d25565b60405180910390f35b6200048862001413565b60405162000497919062003d25565b60405180910390f35b620004be6004803603810190620004b8919062003063565b62001420565b005b620004de6004803603810190620004d8919062002fea565b620018c7565b604051620004ed919062003a7e565b60405180910390f35b6200050062001955565b6040516200050f919062003a9c565b60405180910390f35b6200052262001968565b60405162000531919062003901565b60405180910390f35b62000558600480360381019062000552919062002fea565b62001992565b005b6200056462001adc565b60405162000573919062003d25565b60405180910390f35b6200058662001ae2565b60405162000595919062003b47565b60405180910390f35b620005a862001b78565b604051620005b7919062003ad6565b60405180910390f35b620005de6004803603810190620005d8919062002fea565b62001b9e565b005b620005fe6004803603810190620005f8919062002fea565b62001d3b565b6040516200060d919062003a9c565b60405180910390f35b6200062062001d5b565b005b6200062c62001e0b565b6040516200063b919062003ab9565b60405180910390f35b6200066260048036038101906200065c919062003245565b62001e31565b005b6200066e620020f3565b005b6200067a620021a3565b005b6200069a60048036038101906200069491906200301c565b6200294a565b604051620006a9919062003d25565b60405180910390f35b620006d06004803603810190620006ca91906200301c565b62002973565b604051620006df919062003d25565b60405180910390f35b620006f26200299c565b005b6200071260048036038101906200070c919062002fea565b62002a4c565b60405162000721919062003a61565b60405180910390f35b620007486004803603810190620007429190620031e1565b62002ada565b60405162000757919062003901565b60405180910390f35b6200076a62002b25565b60405162000779919062003901565b60405180910390f35b6000601560009054906101000a900473ffffffffffffffffffffffffffffffffffffffff1673ffffffffffffffffffffffffffffffffffffffff166370a08231306040518263ffffffff1660e01b8152600401620007e1919062003901565b60206040518083038186803b158015620007fa57600080fd5b505afa1580156200080f573d6000803e3d6000fd5b505050506040513d601f19601f8201168201806040525081019062000835919062003213565b905090565b601460009054906101000a900473ffffffffffffffffffffffffffffffffffffffff1681565b600760159054906101000a900460ff1681565b600760009054906101000a900473ffffffffffffffffffffffffffffffffffffffff1673ffffffffffffffffffffffffffffffffffffffff163373ffffffffffffffffffffffffffffffffffffffff161462000906576040517f08c379a0000000000000000000000000000000000000000000000000000000008152600401620008fd9062003c59565b60405180910390fd5b73__$36fdb4e0c2cb91f3ceca5ea81b025328f3$__63d2c232b56010600e60035460026040518563ffffffff1660e01b81526004016200094a949392919062003af3565b60006040518083038186803b1580156200096357600080fd5b505af415801562000978573d6000803e3d6000fd5b50505050565b6001600d60008373ffffffffffffffffffffffffffffffffffffffff1673ffffffffffffffffffffffffffffffffffffffff16815260200190815260200160002060006101000a81548160ff021916908315150217905550600e819080600181540180825580915050600190039060005260206000200160009091909190916101000a81548173ffffffffffffffffffffffffffffffffffffffff021916908373ffffffffffffffffffffffffffffffffffffffff1602179055506040518060a00160405280606460ff168152602001606460ff168152602001606460ff168152602001606460ff168152602001606460ff16815250600a60008373ffffffffffffffffffffffffffffffffffffffff1673ffffffffffffffffffffffffffffffffffffffff16815260200190815260200160002090600562000ac392919062002ce4565b5050565b6009602052816000526040600020816008811062000ae457600080fd5b01600091509150505481565b600760009054906101000a900473ffffffffffffffffffffffffffffffffffffffff1673ffffffffffffffffffffffffffffffffffffffff163373ffffffffffffffffffffffffffffffffffffffff161462000b83576040517f08c379a000000000000000000000000000000000000000000000000000000000815260040162000b7a9062003c59565b60405180910390fd5b6000600454600e8054905062000b9a919062003f7a565b905073__$36fdb4e0c2cb91f3ceca5ea81b025328f3$__63cc9b40cc600e600c600f6040518463ffffffff1660e01b815260040162000bdc93929190620039c5565b60006040518083038186803b15801562000bf557600080fd5b505af415801562000c0a573d6000803e3d6000fd5b5050505060005b600f8054905081101562000c815762000c6b600f828154811062000c3a5762000c396200429a565b5b9060005260206000200160009054906101000a900473ffffffffffffffffffffffffffffffffffffffff1662002b4b565b808062000c7890620041bf565b91505062000c11565b506000600f805490508262000c97919062003f42565b90507f648f2405ea194f3e49fe1655279883b3474e63909ab7e4a579b051d548ad8389600f8260405162000ccd92919062003a09565b60405180910390a160005b600f8054905081101562000eab57601460009054906101000a900473ffffffffffffffffffffffffffffffffffffffff1673ffffffffffffffffffffffffffffffffffffffff1663095ea7b330846040518363ffffffff1660e01b815260040162000d459291906200395b565b602060405180830381600087803b15801562000d6057600080fd5b505af115801562000d75573d6000803e3d6000fd5b505050506040513d601f19601f8201168201806040525081019062000d9b919062003095565b50601460009054906101000a900473ffffffffffffffffffffffffffffffffffffffff1673ffffffffffffffffffffffffffffffffffffffff166323b872dd30600f848154811062000df25762000df16200429a565b5b9060005260206000200160009054906101000a900473ffffffffffffffffffffffffffffffffffffffff16856040518463ffffffff1660e01b815260040162000e3e939291906200391e565b602060405180830381600087803b15801562000e5957600080fd5b505af115801562000e6e573d6000803e3d6000fd5b505050506040513d601f19601f8201168201806040525081019062000e94919062003095565b50808062000ea290620041bf565b91505062000cd8565b505050565b600760009054906101000a900473ffffffffffffffffffffffffffffffffffffffff1681565b600e818154811062000ee757600080fd5b906000526020600020016000915054906101000a900473ffffffffffffffffffffffffffffffffffffffff1681565b6000600760159054906101000a900460ff16905090565b600c6020528060005260406000206000915090505481565b606060106000838152602001908152602001600020805480602002602001604051908101604052809291908181526020016000905b828210156200102b57838290600052602060002090600202016040518060200160405290816000820160028060200260405190810160405280929190826002801562001012576020028201915b8160009054906101000a900473ffffffffffffffffffffffffffffffffffffffff1673ffffffffffffffffffffffffffffffffffffffff168152602001906001019080831162000fc7575b5050505050815250508152602001906001019062000f7a565b505050509050919050565b600060019054906101000a900460ff16620010605760008054906101000a900460ff16156200106b565b6200106a62002be8565b5b620010ad576040517f08c379a0000000000000000000000000000000000000000000000000000000008152600401620010a49062003c15565b60405180910390fd5b60008060019054906101000a900460ff161590508015620010fe576001600060016101000a81548160ff02191690831515021790555060016000806101000a81548160ff0219169083151502179055505b8b8b600291906200111192919062002d2e565b50600860038190555086600660006101000a81548173ffffffffffffffffffffffffffffffffffffffff021916908373ffffffffffffffffffffffffffffffffffffffff160217905550896004819055506000600760146101000a81548160ff0219169083151502179055506000600760156101000a81548160ff02191690831515021790555087601160006101000a81548173ffffffffffffffffffffffffffffffffffffffff021916908373ffffffffffffffffffffffffffffffffffffffff16021790555081601360006101000a81548173ffffffffffffffffffffffffffffffffffffffff021916908373ffffffffffffffffffffffffffffffffffffffff16021790555088604051620012299062002dbf565b62001235919062003a9c565b604051809103906000f08015801562001252573d6000803e3d6000fd5b50601260006101000a81548173ffffffffffffffffffffffffffffffffffffffff021916908373ffffffffffffffffffffffffffffffffffffffff16021790555085601560006101000a81548173ffffffffffffffffffffffffffffffffffffffff021916908373ffffffffffffffffffffffffffffffffffffffff16021790555084601460006101000a81548173ffffffffffffffffffffffffffffffffffffffff021916908373ffffffffffffffffffffffffffffffffffffffff16021790555082600760006101000a81548173ffffffffffffffffffffffffffffffffffffffff021916908373ffffffffffffffffffffffffffffffffffffffff16021790555083601660006101000a81548173ffffffffffffffffffffffffffffffffffffffff021916908373ffffffffffffffffffffffffffffffffffffffff160217905550620013d76040518060400160405280601281526020017f50726f787920696e697469616c697a656421000000000000000000000000000081525062002bfb565b8015620013f95760008060016101000a81548160ff0219169083151502179055505b505050505050505050505050565b60055481565b60045481565b6000600e80549050905090565b600760159054906101000a900460ff161562001473576040517f08c379a00000000000000000000000000000000000000000000000000000000081526004016200146a9062003bf3565b60405180910390fd5b600d60003373ffffffffffffffffffffffffffffffffffffffff1673ffffffffffffffffffffffffffffffffffffffff16815260200190815260200160002060009054906101000a900460ff1662001502576040517f08c379a0000000000000000000000000000000000000000000000000000000008152600401620014f99062003c7b565b60405180910390fd5b60005b600a60003373ffffffffffffffffffffffffffffffffffffffff1673ffffffffffffffffffffffffffffffffffffffff168152602001908152602001600020506005811015620015fd5760086000600a60003373ffffffffffffffffffffffffffffffffffffffff1673ffffffffffffffffffffffffffffffffffffffff1681526020019081526020016000208360058110620015a757620015a66200429a565b5b0154815260200190815260200160002060055460088110620015ce57620015cd6200429a565b5b016000815480929190620015e29062004106565b91905055508080620015f490620041bf565b91505062001505565b5060005b60058110156200178f57600860008383600581106200162557620016246200429a565b5b60200201518152602001908152602001600020600554600881106200164f576200164e6200429a565b5b0160008154809291906200166390620041bf565b91905055506000601660009054906101000a900473ffffffffffffffffffffffffffffffffffffffff1673ffffffffffffffffffffffffffffffffffffffff1662fdd58e33858560058110620016be57620016bd6200429a565b5b60200201516040518363ffffffff1660e01b8152600401620016e29291906200395b565b60206040518083038186803b158015620016fb57600080fd5b505afa15801562001710573d6000803e3d6000fd5b505050506040513d601f19601f8201168201806040525081019062001736919062003213565b1162001779576040517f08c379a0000000000000000000000000000000000000000000000000000000008152600401620017709062003cbf565b60405180910390fd5b80806200178690620041bf565b91505062001601565b5060005b60058110156200187257600a81620017ac919062003f7a565b828260058110620017c257620017c16200429a565b5b6020020151101580156200181a57506001600a600183620017e4919062003ee5565b620017f0919062003f7a565b620017fc919062003fdb565b8282600581106200181257620018116200429a565b5b602002015111155b6200185c576040517f08c379a0000000000000000000000000000000000000000000000000000000008152600401620018539062003bd1565b60405180910390fd5b80806200186990620041bf565b91505062001793565b5080600a60003373ffffffffffffffffffffffffffffffffffffffff1673ffffffffffffffffffffffffffffffffffffffff168152602001908152602001600020906005620018c392919062002dcd565b5050565b620018d162002e12565b600960008373ffffffffffffffffffffffffffffffffffffffff1673ffffffffffffffffffffffffffffffffffffffff16815260200190815260200160002060088060200260405190810160405280929190826008801562001949576020028201915b81548152602001906001019080831162001934575b50505050509050919050565b600760149054906101000a900460ff1681565b6000600660009054906101000a900473ffffffffffffffffffffffffffffffffffffffff16905090565b600660009054906101000a900473ffffffffffffffffffffffffffffffffffffffff1673ffffffffffffffffffffffffffffffffffffffff163373ffffffffffffffffffffffffffffffffffffffff161462001a25576040517f08c379a000000000000000000000000000000000000000000000000000000000815260040162001a1c9062003c37565b60405180910390fd5b601260009054906101000a900473ffffffffffffffffffffffffffffffffffffffff1673ffffffffffffffffffffffffffffffffffffffff16637b9417c8826040518263ffffffff1660e01b815260040162001a82919062003901565b602060405180830381600087803b15801562001a9d57600080fd5b505af115801562001ab2573d6000803e3d6000fd5b505050506040513d601f19601f8201168201806040525081019062001ad8919062003095565b5050565b60035481565b6002805462001af19062004135565b80601f016020809104026020016040519081016040528092919081815260200182805462001b1f9062004135565b801562001b705780601f1062001b445761010080835404028352916020019162001b70565b820191906000526020600020905b81548152906001019060200180831162001b5257829003601f168201915b505050505081565b601260009054906101000a900473ffffffffffffffffffffffffffffffffffffffff1681565b600660009054906101000a900473ffffffffffffffffffffffffffffffffffffffff1673ffffffffffffffffffffffffffffffffffffffff163373ffffffffffffffffffffffffffffffffffffffff161462001c31576040517f08c379a000000000000000000000000000000000000000000000000000000000815260040162001c289062003c37565b60405180910390fd5b600760149054906101000a900460ff161562001c84576040517f08c379a000000000000000000000000000000000000000000000000000000000815260040162001c7b9062003c9d565b60405180910390fd5b601260009054906101000a900473ffffffffffffffffffffffffffffffffffffffff1673ffffffffffffffffffffffffffffffffffffffff1663286dd3f5826040518263ffffffff1660e01b815260040162001ce1919062003901565b602060405180830381600087803b15801562001cfc57600080fd5b505af115801562001d11573d6000803e3d6000fd5b505050506040513d601f19601f8201168201806040525081019062001d37919062003095565b5050565b600d6020528060005260406000206000915054906101000a900460ff1681565b600760009054906101000a900473ffffffffffffffffffffffffffffffffffffffff1673ffffffffffffffffffffffffffffffffffffffff163373ffffffffffffffffffffffffffffffffffffffff161462001dee576040517f08c379a000000000000000000000000000000000000000000000000000000000815260040162001de59062003c59565b60405180910390fd5b6000600760156101000a81548160ff021916908315150217905550565b601560009054906101000a900473ffffffffffffffffffffffffffffffffffffffff1681565b600760159054906101000a900460ff161562001e84576040517f08c379a000000000000000000000000000000000000000000000000000000000815260040162001e7b9062003bf3565b60405180910390fd5b600d60003373ffffffffffffffffffffffffffffffffffffffff1673ffffffffffffffffffffffffffffffffffffffff16815260200190815260200160002060009054906101000a900460ff1662001f13576040517f08c379a000000000000000000000000000000000000000000000000000000000815260040162001f0a9062003c7b565b60405180910390fd5b6000601660009054906101000a900473ffffffffffffffffffffffffffffffffffffffff1673ffffffffffffffffffffffffffffffffffffffff1662fdd58e33856040518363ffffffff1660e01b815260040162001f739291906200395b565b60206040518083038186803b15801562001f8c57600080fd5b505afa15801562001fa1573d6000803e3d6000fd5b505050506040513d601f19601f8201168201806040525081019062001fc7919062003213565b116200200a576040517f08c379a0000000000000000000000000000000000000000000000000000000008152600401620020019062003cbf565b60405180910390fd5b600a8162002019919062003f7a565b82101580156200205357506001600a60018362002037919062003ee5565b62002043919062003f7a565b6200204f919062003fdb565b8211155b62002095576040517f08c379a00000000000000000000000000000000000000000000000000000000081526004016200208c9062003bd1565b60405180910390fd5b81600a60003373ffffffffffffffffffffffffffffffffffffffff1673ffffffffffffffffffffffffffffffffffffffff1681526020019081526020016000208260058110620020ea57620020e96200429a565b5b01819055505050565b600760009054906101000a900473ffffffffffffffffffffffffffffffffffffffff1673ffffffffffffffffffffffffffffffffffffffff163373ffffffffffffffffffffffffffffffffffffffff161462002186576040517f08c379a00000000000000000000000000000000000000000000000000000000081526004016200217d9062003c59565b60405180910390fd5b6001600760156101000a81548160ff021916908315150217905550565b60026001541415620021ec576040517f08c379a0000000000000000000000000000000000000000000000000000000008152600401620021e39062003ce1565b60405180910390fd5b6002600181905550601260009054906101000a900473ffffffffffffffffffffffffffffffffffffffff1673ffffffffffffffffffffffffffffffffffffffff16639b19251a336040518263ffffffff1660e01b815260040162002251919062003901565b60206040518083038186803b1580156200226a57600080fd5b505afa1580156200227f573d6000803e3d6000fd5b505050506040513d601f19601f82011682018060405250810190620022a5919062003095565b80620023515750601260009054906101000a900473ffffffffffffffffffffffffffffffffffffffff1673ffffffffffffffffffffffffffffffffffffffff1663dc9a15356040518163ffffffff1660e01b815260040160206040518083038186803b1580156200231557600080fd5b505afa1580156200232a573d6000803e3d6000fd5b505050506040513d601f19601f8201168201806040525081019062002350919062003095565b5b80620023aa5750600660009054906101000a900473ffffffffffffffffffffffffffffffffffffffff1673ffffffffffffffffffffffffffffffffffffffff163373ffffffffffffffffffffffffffffffffffffffff16145b620023ec576040517f08c379a0000000000000000000000000000000000000000000000000000000008152600401620023e39062003b8d565b60405180910390fd5b600760149054906101000a900460ff16156200243f576040517f08c379a0000000000000000000000000000000000000000000000000000000008152600401620024369062003d03565b60405180910390fd5b600d60003373ffffffffffffffffffffffffffffffffffffffff1673ffffffffffffffffffffffffffffffffffffffff16815260200190815260200160002060009054906101000a900460ff1615620024cf576040517f08c379a0000000000000000000000000000000000000000000000000000000008152600401620024c69062003baf565b60405180910390fd5b600454601460009054906101000a900473ffffffffffffffffffffffffffffffffffffffff1673ffffffffffffffffffffffffffffffffffffffff166370a08231336040518263ffffffff1660e01b81526004016200252f919062003901565b60206040518083038186803b1580156200254857600080fd5b505afa1580156200255d573d6000803e3d6000fd5b505050506040513d601f19601f8201168201806040525081019062002583919062003213565b11620025c6576040517f08c379a0000000000000000000000000000000000000000000000000000000008152600401620025bd9062003b6b565b60405180910390fd5b601260009054906101000a900473ffffffffffffffffffffffffffffffffffffffff1673ffffffffffffffffffffffffffffffffffffffff1663dc9a15356040518163ffffffff1660e01b815260040160206040518083038186803b1580156200262f57600080fd5b505afa15801562002644573d6000803e3d6000fd5b505050506040513d601f19601f820116820180604052508101906200266a919062003095565b156200270257601360009054906101000a900473ffffffffffffffffffffffffffffffffffffffff1673ffffffffffffffffffffffffffffffffffffffff1663771bd4ce336040518263ffffffff1660e01b8152600401620026cd919062003901565b600060405180830381600087803b158015620026e857600080fd5b505af1158015620026fd573d6000803e3d6000fd5b505050505b6001600d60003373ffffffffffffffffffffffffffffffffffffffff1673ffffffffffffffffffffffffffffffffffffffff16815260200190815260200160002060006101000a81548160ff021916908315150217905550600e339080600181540180825580915050600190039060005260206000200160009091909190916101000a81548173ffffffffffffffffffffffffffffffffffffffff021916908373ffffffffffffffffffffffffffffffffffffffff1602179055506040518060a00160405280606460ff168152602001606460ff168152602001606460ff168152602001606460ff168152602001606460ff16815250600a60003373ffffffffffffffffffffffffffffffffffffffff1673ffffffffffffffffffffffffffffffffffffffff1681526020019081526020016000209060056200284792919062002ce4565b50601560009054906101000a900473ffffffffffffffffffffffffffffffffffffffff1673ffffffffffffffffffffffffffffffffffffffff166323b872dd33306004546040518463ffffffff1660e01b8152600401620028ab939291906200391e565b602060405180830381600087803b158015620028c657600080fd5b505af1158015620028db573d6000803e3d6000fd5b505050506040513d601f19601f8201168201806040525081019062002901919062003095565b507f9f9e4044c5742cca66ca090b21552bac14645e68bad7a92364a9d9ff18111a1c3360045430604051620029399392919062003988565b60405180910390a160018081905550565b600a60205281600052604060002081600581106200296757600080fd5b01600091509150505481565b600b60205281600052604060002081600881106200299057600080fd5b01600091509150505481565b600760009054906101000a900473ffffffffffffffffffffffffffffffffffffffff1673ffffffffffffffffffffffffffffffffffffffff163373ffffffffffffffffffffffffffffffffffffffff161462002a2f576040517f08c379a000000000000000000000000000000000000000000000000000000000815260040162002a269062003c59565b60405180910390fd5b6001600760146101000a81548160ff021916908315150217905550565b62002a5662002e35565b600a60008373ffffffffffffffffffffffffffffffffffffffff1673ffffffffffffffffffffffffffffffffffffffff16815260200190815260200160002060058060200260405190810160405280929190826005801562002ace576020028201915b81548152602001906001019080831162002ab9575b50505050509050919050565b6000600e828154811062002af35762002af26200429a565b5b9060005260206000200160009054906101000a900473ffffffffffffffffffffffffffffffffffffffff169050919050565b600660009054906101000a900473ffffffffffffffffffffffffffffffffffffffff1681565b62002be58160405160240162002b62919062003901565b6040516020818303038152906040527f2c2ecbc2000000000000000000000000000000000000000000000000000000007bffffffffffffffffffffffffffffffffffffffffffffffffffffffff19166020820180517bffffffffffffffffffffffffffffffffffffffffffffffffffffffff838183161783525050505062002c98565b50565b600062002bf53062002cc1565b15905090565b62002c958160405160240162002c12919062003b47565b6040516020818303038152906040527f41304fac000000000000000000000000000000000000000000000000000000007bffffffffffffffffffffffffffffffffffffffffffffffffffffffff19166020820180517bffffffffffffffffffffffffffffffffffffffffffffffffffffffff838183161783525050505062002c98565b50565b60008151905060006a636f6e736f6c652e6c6f679050602083016000808483855afa5050505050565b6000808273ffffffffffffffffffffffffffffffffffffffff163b119050919050565b826005810192821562002d1b579160200282015b8281111562002d1a578251829060ff1690559160200191906001019062002cf8565b5b50905062002d2a919062002e57565b5090565b82805462002d3c9062004135565b90600052602060002090601f01602090048101928262002d60576000855562002dac565b82601f1062002d7b57803560ff191683800117855562002dac565b8280016001018555821562002dac579182015b8281111562002dab57823582559160200191906001019062002d8e565b5b50905062002dbb919062002e57565b5090565b611114806200468c83390190565b826005810192821562002dff579160200282015b8281111562002dfe57825182559160200191906001019062002de1565b5b50905062002e0e919062002e57565b5090565b604051806101000160405280600890602082028036833780820191505090505090565b6040518060a00160405280600590602082028036833780820191505090505090565b5b8082111562002e7257600081600090555060010162002e58565b5090565b600062002e8d62002e878462003d6b565b62003d42565b9050808285602086028201111562002eaa5762002ea962004317565b5b60005b8581101562002ede578162002ec3888262002fbc565b84526020840193506020830192505060018101905062002ead565b5050509392505050565b60008135905062002ef9816200463d565b92915050565b600082601f83011262002f175762002f1662004312565b5b600562002f2684828562002e76565b91505092915050565b60008135905062002f408162004657565b92915050565b60008151905062002f578162004657565b92915050565b60008083601f84011262002f765762002f7562004312565b5b8235905067ffffffffffffffff81111562002f965762002f956200430d565b5b60208301915083600182028301111562002fb55762002fb462004317565b5b9250929050565b60008135905062002fcd8162004671565b92915050565b60008151905062002fe48162004671565b92915050565b60006020828403121562003003576200300262004321565b5b6000620030138482850162002ee8565b91505092915050565b6000806040838503121562003036576200303562004321565b5b6000620030468582860162002ee8565b9250506020620030598582860162002fbc565b9150509250929050565b600060a082840312156200307c576200307b62004321565b5b60006200308c8482850162002eff565b91505092915050565b600060208284031215620030ae57620030ad62004321565b5b6000620030be8482850162002f46565b91505092915050565b60008060008060008060008060008060006101408c8e031215620030f057620030ef62004321565b5b60008c013567ffffffffffffffff8111156200311157620031106200431c565b5b6200311f8e828f0162002f5d565b9b509b50506020620031348e828f0162002fbc565b9950506040620031478e828f0162002f2f565b98505060606200315a8e828f0162002ee8565b97505060806200316d8e828f0162002ee8565b96505060a0620031808e828f0162002ee8565b95505060c0620031938e828f0162002ee8565b94505060e0620031a68e828f0162002ee8565b935050610100620031ba8e828f0162002ee8565b925050610120620031ce8e828f0162002ee8565b9150509295989b509295989b9093969950565b600060208284031215620031fa57620031f962004321565b5b60006200320a8482850162002fbc565b91505092915050565b6000602082840312156200322c576200322b62004321565b5b60006200323c8482850162002fd3565b91505092915050565b600080604083850312156200325f576200325e62004321565b5b60006200326f8582860162002fbc565b9250506020620032828582860162002fbc565b9150509250929050565b60006200329a8383620032f4565b60208301905092915050565b6000620032b4838362003316565b60208301905092915050565b6000620032ce8383620038b0565b60408301905092915050565b6000620032e88383620038ce565b60208301905092915050565b620032ff8162004036565b82525050565b620033108162004036565b82525050565b620033218162004036565b82525050565b620033328162003dec565b6200333e818462003e6f565b92506200334b8262003d94565b8060005b83811015620033825781516200336687826200328c565b9650620033738362003e2e565b9250506001810190506200334f565b505050505050565b6000620033978262003df7565b620033a3818562003e7a565b9350620033b08362003d9e565b8060005b83811015620033f057620033c882620042f8565b620033d488826200328c565b9750620033e18362003e3b565b925050600181019050620033b4565b5085935050505092915050565b60006200340a8262003df7565b62003416818562003e8b565b9350620034238362003d9e565b8060005b8381101562003463576200343b82620042f8565b620034478882620032a6565b9750620034548362003e3b565b92505060018101905062003427565b5085935050505092915050565b8082525050565b6000620034848262003e02565b62003490818562003e9c565b93506200349d8362003db3565b8060005b83811015620034d4578151620034b88882620032c0565b9750620034c58362003e48565b925050600181019050620034a1565b5085935050505092915050565b620034ec8162003e0d565b620034f8818462003ead565b9250620035058262003dc3565b8060005b838110156200353c578151620035208782620032da565b96506200352d8362003e55565b92505060018101905062003509565b505050505050565b6200354f8162003e18565b6200355b818462003eb8565b9250620035688262003dcd565b8060005b838110156200359f578151620035838782620032da565b9650620035908362003e62565b9250506001810190506200356c565b505050505050565b620035b2816200404a565b82525050565b620035c38162004080565b82525050565b620035d48162004094565b82525050565b8082525050565b8082525050565b6000620035f58262003e23565b62003601818562003ec3565b935062003613818560208601620040d0565b6200361e8162004326565b840191505092915050565b60008154620036388162004135565b62003644818662003ed4565b945060018216600081146200366257600181146200367557620036ac565b60ff1983168652602086019350620036ac565b620036808562003dd7565b60005b83811015620036a45781548189015260018201915060208101905062003683565b808801955050505b50505092915050565b6000620036c4601d8362003ec3565b9150620036d18262004344565b602082019050919050565b6000620036eb60188362003ec3565b9150620036f8826200436d565b602082019050919050565b60006200371260238362003ec3565b91506200371f8262004396565b604082019050919050565b60006200373960318362003ec3565b91506200374682620043e5565b604082019050919050565b600062003760601e8362003ec3565b91506200376d8262004434565b602082019050919050565b600062003787602e8362003ec3565b915062003794826200445d565b604082019050919050565b6000620037ae60178362003ec3565b9150620037bb82620044ac565b602082019050919050565b6000620037d560168362003ec3565b9150620037e282620044d5565b602082019050919050565b6000620037fc60168362003ec3565b91506200380982620044fe565b602082019050919050565b60006200382360418362003ec3565b9150620038308262004527565b606082019050919050565b60006200384a60248362003ec3565b915062003857826200459c565b604082019050919050565b600062003871601f8362003ec3565b91506200387e82620045eb565b602082019050919050565b60006200389860178362003ec3565b9150620038a58262004614565b602082019050919050565b604082016000820151620038c8600085018262003327565b50505050565b620038d98162004076565b82525050565b620038ea8162004076565b82525050565b620038fb8162004076565b82525050565b600060208201905062003918600083018462003305565b92915050565b600060608201905062003935600083018662003305565b62003944602083018562003305565b620039536040830184620038df565b949350505050565b600060408201905062003972600083018562003305565b620039816020830184620038df565b9392505050565b60006060820190506200399f600083018662003305565b620039ae6020830185620038df565b620039bd604083018462003305565b949350505050565b60006060820190508181036000830152620039e18186620033fd565b9050620039f26020830185620035da565b62003a01604083018462003470565b949350505050565b6000604082019050818103600083015262003a2581856200338a565b905062003a366020830184620038df565b9392505050565b6000602082019050818103600083015262003a59818462003477565b905092915050565b600060a08201905062003a786000830184620034e1565b92915050565b60006101008201905062003a96600083018462003544565b92915050565b600060208201905062003ab36000830184620035a7565b92915050565b600060208201905062003ad06000830184620035b8565b92915050565b600060208201905062003aed6000830184620035c9565b92915050565b600060808201905062003b0a6000830187620035e1565b62003b19602083018662003470565b62003b286040830185620038f0565b818103606083015262003b3c818462003629565b905095945050505050565b6000602082019050818103600083015262003b638184620035e8565b905092915050565b6000602082019050818103600083015262003b8681620036b5565b9050919050565b6000602082019050818103600083015262003ba881620036dc565b9050919050565b6000602082019050818103600083015262003bca8162003703565b9050919050565b6000602082019050818103600083015262003bec816200372a565b9050919050565b6000602082019050818103600083015262003c0e8162003751565b9050919050565b6000602082019050818103600083015262003c308162003778565b9050919050565b6000602082019050818103600083015262003c52816200379f565b9050919050565b6000602082019050818103600083015262003c7481620037c6565b9050919050565b6000602082019050818103600083015262003c9681620037ed565b9050919050565b6000602082019050818103600083015262003cb88162003814565b9050919050565b6000602082019050818103600083015262003cda816200383b565b9050919050565b6000602082019050818103600083015262003cfc8162003862565b9050919050565b6000602082019050818103600083015262003d1e8162003889565b9050919050565b600060208201905062003d3c6000830184620038df565b92915050565b600062003d4e62003d61565b905062003d5c828262004189565b919050565b6000604051905090565b600067ffffffffffffffff82111562003d895762003d88620042c9565b5b602082029050919050565b6000819050919050565b60008190508160005260206000209050919050565b6000819050602082019050919050565b6000819050919050565b6000819050919050565b60008190508160005260206000209050919050565b600060029050919050565b600081549050919050565b600081519050919050565b600060059050919050565b600060089050919050565b600081519050919050565b6000602082019050919050565b6000600182019050919050565b6000602082019050919050565b6000602082019050919050565b6000602082019050919050565b600081905092915050565b600082825260208201905092915050565b600082825260208201905092915050565b600082825260208201905092915050565b600081905092915050565b600081905092915050565b600082825260208201905092915050565b600082825260208201905092915050565b600062003ef28262004076565b915062003eff8362004076565b9250827fffffffffffffffffffffffffffffffffffffffffffffffffffffffffffffffff0382111562003f375762003f366200420d565b5b828201905092915050565b600062003f4f8262004076565b915062003f5c8362004076565b92508262003f6f5762003f6e6200423c565b5b828204905092915050565b600062003f878262004076565b915062003f948362004076565b9250817fffffffffffffffffffffffffffffffffffffffffffffffffffffffffffffffff048311821515161562003fd05762003fcf6200420d565b5b828202905092915050565b600062003fe88262004076565b915062003ff58362004076565b9250828210156200400b576200400a6200420d565b5b828203905092915050565b600073ffffffffffffffffffffffffffffffffffffffff82169050919050565b6000620040438262004056565b9050919050565b60008115159050919050565b600073ffffffffffffffffffffffffffffffffffffffff82169050919050565b6000819050919050565b60006200408d82620040a8565b9050919050565b6000620040a182620040a8565b9050919050565b6000620040b582620040bc565b9050919050565b6000620040c98262004056565b9050919050565b60005b83811015620040f0578082015181840152602081019050620040d3565b8381111562004100576000848401525b50505050565b6000620041138262004076565b915060008214156200412a57620041296200420d565b5b600182039050919050565b600060028204905060018216806200414e57607f821691505b602082108114156200416557620041646200426b565b5b50919050565b6000620041826200417c8362004337565b62004016565b9050919050565b620041948262004326565b810181811067ffffffffffffffff82111715620041b657620041b5620042c9565b5b80604052505050565b6000620041cc8262004076565b91507fffffffffffffffffffffffffffffffffffffffffffffffffffffffffffffffff8214156200420257620042016200420d565b5b600182019050919050565b7f4e487b7100000000000000000000000000000000000000000000000000000000600052601160045260246000fd5b7f4e487b7100000000000000000000000000000000000000000000000000000000600052601260045260246000fd5b7f4e487b7100000000000000000000000000000000000000000000000000000000600052602260045260246000fd5b7f4e487b7100000000000000000000000000000000000000000000000000000000600052603260045260246000fd5b7f4e487b7100000000000000000000000000000000000000000000000000000000600052604160045260246000fd5b60006200430682546200416b565b9050919050565b600080fd5b600080fd5b600080fd5b600080fd5b600080fd5b6000601f19601f8301169050919050565b60008160001c9050919050565b7f496e737566666963656e742066756e647320666f72207374616b696e67000000600082015250565b7f55736572206973206e6f74206f6e2077686974656c6973740000000000000000600082015250565b7f596f75206861766520616c7265616479206a6f696e65642074686973206c656160008201527f6775650000000000000000000000000000000000000000000000000000000000602082015250565b7f596f75206172652073657474696e6720616e206174686c65746520696e20746860008201527f652077726f6e6720706f736974696f6e21000000000000000000000000000000602082015250565b7f6c696e657570206973206c6f636b656420666f7220746865207765656b210000600082015250565b7f496e697469616c697a61626c653a20636f6e747261637420697320616c72656160008201527f647920696e697469616c697a6564000000000000000000000000000000000000602082015250565b7f43616c6c6572206973206e6f74207468652061646d696e000000000000000000600082015250565b7f43616c6c6572206973206e6f74205465616d4469666600000000000000000000600082015250565b7f55736572206973206e6f7420696e204c65616775652e00000000000000000000600082015250565b7f4e6f626f64792063616e20656e7465722f6578697420746865206c656167756560008201527f20616e796d6f72652e2054686520736561736f6e20686173207374617274656460208201527f2100000000000000000000000000000000000000000000000000000000000000604082015250565b7f43616c6c657220646f6573206e6f74206f776e20676976656e206174686c657460008201527f6549647300000000000000000000000000000000000000000000000000000000602082015250565b7f5265656e7472616e637947756172643a207265656e7472616e742063616c6c00600082015250565b7f4c656167756520456e74727920697320436c6f73656421000000000000000000600082015250565b620046488162004036565b81146200465457600080fd5b50565b62004662816200404a565b81146200466e57600080fd5b50565b6200467c8162004076565b81146200468857600080fd5b5056fe60806040523480156200001157600080fd5b50604051620011143803806200111483398181016040528101906200003791906200015b565b620000576200004b6200007860201b60201c565b6200008060201b60201c565b80600360006101000a81548160ff02191690831515021790555050620001b8565b600033905090565b60008060009054906101000a900473ffffffffffffffffffffffffffffffffffffffff169050816000806101000a81548173ffffffffffffffffffffffffffffffffffffffff021916908373ffffffffffffffffffffffffffffffffffffffff1602179055508173ffffffffffffffffffffffffffffffffffffffff168173ffffffffffffffffffffffffffffffffffffffff167f8be0079c531659141344cd1fd0a4f28419497f9722a3daafe3b4186f6b6457e060405160405180910390a35050565b60008151905062000155816200019e565b92915050565b60006020828403121562000174576200017362000199565b5b6000620001848482850162000144565b91505092915050565b60008115159050919050565b600080fd5b620001a9816200018d565b8114620001b557600080fd5b50565b610f4c80620001c86000396000f3fe608060405234801561001057600080fd5b50600436106100a95760003560e01c80638da5cb5b116100715780638da5cb5b146101665780639b19251a14610184578063dc9a1535146101b4578063e2ec6ec3146101d2578063e35a899914610202578063f2fde38b14610232576100a9565b806324953eaa146100ae578063286dd3f5146100de57806344eaa84e1461010e578063715018a61461012c5780637b9417c814610136575b600080fd5b6100c860048036038101906100c39190610ada565b61024e565b6040516100d59190610bb1565b60405180910390f35b6100f860048036038101906100f39190610aad565b61031e565b6040516101059190610bb1565b60405180910390f35b6101166104a1565b6040516101239190610c0c565b60405180910390f35b6101346104ab565b005b610150600480360381019061014b9190610aad565b610533565b60405161015d9190610bb1565b60405180910390f35b61016e6106b4565b60405161017b9190610b96565b60405180910390f35b61019e60048036038101906101999190610aad565b6106dd565b6040516101ab9190610bb1565b60405180910390f35b6101bc6106fd565b6040516101c99190610bb1565b60405180910390f35b6101ec60048036038101906101e79190610ada565b610710565b6040516101f99190610bb1565b60405180910390f35b61021c60048036038101906102179190610aad565b6107e0565b6040516102299190610bb1565b60405180910390f35b61024c60048036038101906102479190610aad565b610836565b005b600061025861092e565b73ffffffffffffffffffffffffffffffffffffffff166102766106b4565b73ffffffffffffffffffffffffffffffffffffffff16146102cc576040517f08c379a00000000000000000000000000000000000000000000000000000000081526004016102c390610bec565b60405180910390fd5b60005b8251811015610318576102fb8382815181106102ee576102ed610e04565b5b602002602001015161031e565b1561030557600191505b808061031090610d8c565b9150506102cf565b50919050565b600061032861092e565b73ffffffffffffffffffffffffffffffffffffffff166103466106b4565b73ffffffffffffffffffffffffffffffffffffffff161461039c576040517f08c379a000000000000000000000000000000000000000000000000000000000815260040161039390610bec565b60405180910390fd5b600160008373ffffffffffffffffffffffffffffffffffffffff1673ffffffffffffffffffffffffffffffffffffffff16815260200190815260200160002060009054906101000a900460ff161561049c576000600160008473ffffffffffffffffffffffffffffffffffffffff1673ffffffffffffffffffffffffffffffffffffffff16815260200190815260200160002060006101000a81548160ff0219169083151502179055507ff1abf01a1043b7c244d128e8595cf0c1d10743b022b03a02dffd8ca3bf729f5a826040516104759190610b96565b60405180910390a16001600260008282546104909190610cdf565b92505081905550600190505b919050565b6000600254905090565b6104b361092e565b73ffffffffffffffffffffffffffffffffffffffff166104d16106b4565b73ffffffffffffffffffffffffffffffffffffffff1614610527576040517f08c379a000000000000000000000000000000000000000000000000000000000815260040161051e90610bec565b60405180910390fd5b6105316000610936565b565b600061053d61092e565b73ffffffffffffffffffffffffffffffffffffffff1661055b6106b4565b73ffffffffffffffffffffffffffffffffffffffff16146105b1576040517f08c379a00000000000000000000000000000000000000000000000000000000081526004016105a890610bec565b60405180910390fd5b600160008373ffffffffffffffffffffffffffffffffffffffff1673ffffffffffffffffffffffffffffffffffffffff16815260200190815260200160002060009054906101000a900460ff166106af5760018060008473ffffffffffffffffffffffffffffffffffffffff1673ffffffffffffffffffffffffffffffffffffffff16815260200190815260200160002060006101000a81548160ff0219169083151502179055507fd1bba68c128cc3f427e5831b3c6f99f480b6efa6b9e80c757768f6124158cc3f826040516106889190610b96565b60405180910390a16001600260008282546106a39190610c89565b92505081905550600190505b919050565b60008060009054906101000a900473ffffffffffffffffffffffffffffffffffffffff16905090565b60016020528060005260406000206000915054906101000a900460ff1681565b600360009054906101000a900460ff1681565b600061071a61092e565b73ffffffffffffffffffffffffffffffffffffffff166107386106b4565b73ffffffffffffffffffffffffffffffffffffffff161461078e576040517f08c379a000000000000000000000000000000000000000000000000000000000815260040161078590610bec565b60405180910390fd5b60005b82518110156107da576107bd8382815181106107b0576107af610e04565b5b6020026020010151610533565b156107c757600191505b80806107d290610d8c565b915050610791565b50919050565b6000600160008373ffffffffffffffffffffffffffffffffffffffff1673ffffffffffffffffffffffffffffffffffffffff16815260200190815260200160002060009054906101000a900460ff169050919050565b61083e61092e565b73ffffffffffffffffffffffffffffffffffffffff1661085c6106b4565b73ffffffffffffffffffffffffffffffffffffffff16146108b2576040517f08c379a00000000000000000000000000000000000000000000000000000000081526004016108a990610bec565b60405180910390fd5b600073ffffffffffffffffffffffffffffffffffffffff168173ffffffffffffffffffffffffffffffffffffffff161415610922576040517f08c379a000000000000000000000000000000000000000000000000000000000815260040161091990610bcc565b60405180910390fd5b61092b81610936565b50565b600033905090565b60008060009054906101000a900473ffffffffffffffffffffffffffffffffffffffff169050816000806101000a81548173ffffffffffffffffffffffffffffffffffffffff021916908373ffffffffffffffffffffffffffffffffffffffff1602179055508173ffffffffffffffffffffffffffffffffffffffff168173ffffffffffffffffffffffffffffffffffffffff167f8be0079c531659141344cd1fd0a4f28419497f9722a3daafe3b4186f6b6457e060405160405180910390a35050565b6000610a0d610a0884610c4c565b610c27565b90508083825260208201905082856020860282011115610a3057610a2f610e67565b5b60005b85811015610a605781610a468882610a6a565b845260208401935060208301925050600181019050610a33565b5050509392505050565b600081359050610a7981610eff565b92915050565b600082601f830112610a9457610a93610e62565b5b8135610aa48482602086016109fa565b91505092915050565b600060208284031215610ac357610ac2610e71565b5b6000610ad184828501610a6a565b91505092915050565b600060208284031215610af057610aef610e71565b5b600082013567ffffffffffffffff811115610b0e57610b0d610e6c565b5b610b1a84828501610a7f565b91505092915050565b610b2c81610d13565b82525050565b610b3b81610d25565b82525050565b6000610b4e602683610c78565b9150610b5982610e87565b604082019050919050565b6000610b71602083610c78565b9150610b7c82610ed6565b602082019050919050565b610b9081610d51565b82525050565b6000602082019050610bab6000830184610b23565b92915050565b6000602082019050610bc66000830184610b32565b92915050565b60006020820190508181036000830152610be581610b41565b9050919050565b60006020820190508181036000830152610c0581610b64565b9050919050565b6000602082019050610c216000830184610b87565b92915050565b6000610c31610c42565b9050610c3d8282610d5b565b919050565b6000604051905090565b600067ffffffffffffffff821115610c6757610c66610e33565b5b602082029050602081019050919050565b600082825260208201905092915050565b6000610c9482610d51565b9150610c9f83610d51565b9250827fffffffffffffffffffffffffffffffffffffffffffffffffffffffffffffffff03821115610cd457610cd3610dd5565b5b828201905092915050565b6000610cea82610d51565b9150610cf583610d51565b925082821015610d0857610d07610dd5565b5b828203905092915050565b6000610d1e82610d31565b9050919050565b60008115159050919050565b600073ffffffffffffffffffffffffffffffffffffffff82169050919050565b6000819050919050565b610d6482610e76565b810181811067ffffffffffffffff82111715610d8357610d82610e33565b5b80604052505050565b6000610d9782610d51565b91507fffffffffffffffffffffffffffffffffffffffffffffffffffffffffffffffff821415610dca57610dc9610dd5565b5b600182019050919050565b7f4e487b7100000000000000000000000000000000000000000000000000000000600052601160045260246000fd5b7f4e487b7100000000000000000000000000000000000000000000000000000000600052603260045260246000fd5b7f4e487b7100000000000000000000000000000000000000000000000000000000600052604160045260246000fd5b600080fd5b600080fd5b600080fd5b600080fd5b6000601f19601f8301169050919050565b7f4f776e61626c653a206e6577206f776e657220697320746865207a65726f206160008201527f6464726573730000000000000000000000000000000000000000000000000000602082015250565b7f4f776e61626c653a2063616c6c6572206973206e6f7420746865206f776e6572600082015250565b610f0881610d13565b8114610f1357600080fd5b5056fea2646970667358221220d9b559c67c9c95c9212a7622f5c7dc9fab9234f044c42f52ae92caa64e6b8af364736f6c63430008070033a264697066735822122084d9bcd05f8e858a256758822b8f9438cb563f038b8e8bae33ca581d6020bfe964736f6c63430008070033",
  "linkReferences": {
    "contracts/MOBALogicLibrary.sol": {
      "MOBALogicLibrary": [
        {
          "length": 20,
          "start": 2351
        },
        {
          "length": 20,
          "start": 3013
        }
      ]
    }
  },
  "deployedLinkReferences": {
    "contracts/MOBALogicLibrary.sol": {
      "MOBALogicLibrary": [
        {
          "length": 20,
          "start": 2312
        },
        {
          "length": 20,
          "start": 2974
        }
      ]
    }
  }
}