{
  "_format": "hh-sol-artifact-1",
  "contractName": "LeagueOfLegendsLogic",
  "sourceName": "contracts/LeagueOfLegendsLogic.sol",
  "abi": [
    {
      "anonymous": false,
      "inputs": [
        {
          "indexed": true,
          "internalType": "address",
          "name": "previousOwner",
          "type": "address"
        },
        {
          "indexed": true,
          "internalType": "address",
          "name": "newOwner",
          "type": "address"
        }
      ],
      "name": "OwnershipTransferred",
      "type": "event"
    },
    {
      "anonymous": false,
      "inputs": [
        {
          "indexed": true,
          "internalType": "bytes32",
          "name": "role",
          "type": "bytes32"
        },
        {
          "indexed": true,
          "internalType": "bytes32",
          "name": "previousAdminRole",
          "type": "bytes32"
        },
        {
          "indexed": true,
          "internalType": "bytes32",
          "name": "newAdminRole",
          "type": "bytes32"
        }
      ],
      "name": "RoleAdminChanged",
      "type": "event"
    },
    {
      "anonymous": false,
      "inputs": [
        {
          "indexed": true,
          "internalType": "bytes32",
          "name": "role",
          "type": "bytes32"
        },
        {
          "indexed": true,
          "internalType": "address",
          "name": "account",
          "type": "address"
        },
        {
          "indexed": true,
          "internalType": "address",
          "name": "sender",
          "type": "address"
        }
      ],
      "name": "RoleGranted",
      "type": "event"
    },
    {
      "anonymous": false,
      "inputs": [
        {
          "indexed": true,
          "internalType": "bytes32",
          "name": "role",
          "type": "bytes32"
        },
        {
          "indexed": true,
          "internalType": "address",
          "name": "account",
          "type": "address"
        },
        {
          "indexed": true,
          "internalType": "address",
          "name": "sender",
          "type": "address"
        }
      ],
      "name": "RoleRevoked",
      "type": "event"
    },
    {
      "anonymous": false,
      "inputs": [
        {
          "indexed": false,
          "internalType": "address",
          "name": "sender",
          "type": "address"
        },
        {
          "indexed": false,
          "internalType": "uint256",
          "name": "amount",
          "type": "uint256"
        }
      ],
      "name": "Staked",
      "type": "event"
    },
    {
      "anonymous": false,
      "inputs": [
        {
          "indexed": false,
          "internalType": "address",
          "name": "addr",
          "type": "address"
        }
      ],
      "name": "WhitelistedAddressAdded",
      "type": "event"
    },
    {
      "anonymous": false,
      "inputs": [
        {
          "indexed": false,
          "internalType": "address",
          "name": "addr",
          "type": "address"
        }
      ],
      "name": "WhitelistedAddressRemoved",
      "type": "event"
    },
    {
      "anonymous": false,
      "inputs": [
        {
          "indexed": false,
          "internalType": "address",
          "name": "sender",
          "type": "address"
        },
        {
          "indexed": false,
          "internalType": "address",
          "name": "contractAddress",
          "type": "address"
        }
      ],
      "name": "testUSDCDeployed",
      "type": "event"
    },
    {
      "inputs": [],
      "name": "DEFAULT_ADMIN_ROLE",
      "outputs": [
        {
          "internalType": "bytes32",
          "name": "",
          "type": "bytes32"
        }
      ],
      "stateMutability": "view",
      "type": "function"
    },
    {
      "inputs": [
        {
          "internalType": "address",
          "name": "addr",
          "type": "address"
        }
      ],
      "name": "addAddressToWhitelist",
      "outputs": [
        {
          "internalType": "bool",
          "name": "success",
          "type": "bool"
        }
      ],
      "stateMutability": "nonpayable",
      "type": "function"
    },
    {
      "inputs": [
        {
          "internalType": "address[]",
          "name": "addrs",
          "type": "address[]"
        }
      ],
      "name": "addAddressesToWhitelist",
      "outputs": [
        {
          "internalType": "bool",
          "name": "success",
          "type": "bool"
        }
      ],
      "stateMutability": "nonpayable",
      "type": "function"
    },
    {
      "inputs": [
        {
          "internalType": "address",
          "name": "user",
          "type": "address"
        }
      ],
      "name": "addUserToLeague",
      "outputs": [],
      "stateMutability": "nonpayable",
      "type": "function"
    },
    {
      "inputs": [
        {
          "internalType": "address",
          "name": "_userToAdd",
          "type": "address"
        }
      ],
      "name": "addUserToWhitelist",
      "outputs": [],
      "stateMutability": "nonpayable",
      "type": "function"
    },
    {
      "inputs": [],
      "name": "currentWeekNum",
      "outputs": [
        {
          "internalType": "uint256",
          "name": "",
          "type": "uint256"
        }
      ],
      "stateMutability": "view",
      "type": "function"
    },
    {
      "inputs": [],
      "name": "evaluateWeek",
      "outputs": [],
      "stateMutability": "nonpayable",
      "type": "function"
    },
    {
      "inputs": [],
      "name": "getAdmin",
      "outputs": [
        {
          "internalType": "address",
          "name": "",
          "type": "address"
        }
      ],
      "stateMutability": "view",
      "type": "function"
    },
    {
      "inputs": [],
      "name": "getAthleteContractAddress",
      "outputs": [
        {
          "internalType": "address",
          "name": "",
          "type": "address"
        }
      ],
      "stateMutability": "view",
      "type": "function"
    },
    {
      "inputs": [],
      "name": "getLeagueName",
      "outputs": [
        {
          "internalType": "string",
          "name": "",
          "type": "string"
        }
      ],
      "stateMutability": "view",
      "type": "function"
    },
    {
      "inputs": [],
      "name": "getLineup",
      "outputs": [
        {
          "internalType": "uint256[]",
          "name": "",
          "type": "uint256[]"
        }
      ],
      "stateMutability": "view",
      "type": "function"
    },
    {
      "inputs": [
        {
          "internalType": "bytes32",
          "name": "role",
          "type": "bytes32"
        }
      ],
      "name": "getRoleAdmin",
      "outputs": [
        {
          "internalType": "bytes32",
          "name": "",
          "type": "bytes32"
        }
      ],
      "stateMutability": "view",
      "type": "function"
    },
    {
      "inputs": [],
      "name": "getStakeAmount",
      "outputs": [
        {
          "internalType": "uint256",
          "name": "",
          "type": "uint256"
        }
      ],
      "stateMutability": "view",
      "type": "function"
    },
    {
      "inputs": [],
      "name": "getTestUSDCAddress",
      "outputs": [
        {
          "internalType": "address",
          "name": "",
          "type": "address"
        }
      ],
      "stateMutability": "view",
      "type": "function"
    },
    {
      "inputs": [],
      "name": "getTotalPrizePot",
      "outputs": [
        {
          "internalType": "uint256",
          "name": "",
          "type": "uint256"
        }
      ],
      "stateMutability": "view",
      "type": "function"
    },
    {
      "inputs": [],
      "name": "getUSDCBalance",
      "outputs": [
        {
          "internalType": "uint256",
          "name": "",
          "type": "uint256"
        }
      ],
      "stateMutability": "view",
      "type": "function"
    },
    {
      "inputs": [],
      "name": "getUserRecord",
      "outputs": [
        {
          "internalType": "uint256[8]",
          "name": "",
          "type": "uint256[8]"
        }
      ],
      "stateMutability": "view",
      "type": "function"
    },
    {
      "inputs": [],
      "name": "getUserUSDCBalance",
      "outputs": [
        {
          "internalType": "uint256",
          "name": "",
          "type": "uint256"
        }
      ],
      "stateMutability": "view",
      "type": "function"
    },
    {
      "inputs": [],
      "name": "getUserWeeklypts",
      "outputs": [
        {
          "internalType": "uint256[8]",
          "name": "",
          "type": "uint256[8]"
        }
      ],
      "stateMutability": "view",
      "type": "function"
    },
    {
      "inputs": [],
      "name": "getUsersLength",
      "outputs": [
        {
          "internalType": "uint256",
          "name": "",
          "type": "uint256"
        }
      ],
      "stateMutability": "view",
      "type": "function"
    },
    {
      "inputs": [],
      "name": "getVersion",
      "outputs": [
        {
          "internalType": "uint256",
          "name": "version",
          "type": "uint256"
        }
      ],
      "stateMutability": "view",
      "type": "function"
    },
    {
      "inputs": [
        {
          "internalType": "bytes32",
          "name": "role",
          "type": "bytes32"
        },
        {
          "internalType": "address",
          "name": "account",
          "type": "address"
        }
      ],
      "name": "grantRole",
      "outputs": [],
      "stateMutability": "nonpayable",
      "type": "function"
    },
    {
      "inputs": [
        {
          "internalType": "bytes32",
          "name": "role",
          "type": "bytes32"
        },
        {
          "internalType": "address",
          "name": "account",
          "type": "address"
        }
      ],
      "name": "hasRole",
      "outputs": [
        {
          "internalType": "bool",
          "name": "",
          "type": "bool"
        }
      ],
      "stateMutability": "view",
      "type": "function"
    },
    {
      "inputs": [
        {
          "internalType": "string",
          "name": "_name",
          "type": "string"
        },
        {
          "internalType": "uint256",
          "name": "_numWeeks",
          "type": "uint256"
        },
        {
          "internalType": "uint256",
          "name": "_stakeAmount",
          "type": "uint256"
        },
        {
          "internalType": "bool",
          "name": "_isPublic",
          "type": "bool"
        },
        {
          "internalType": "address",
          "name": "athletesDataStorageAddress",
          "type": "address"
        },
        {
          "internalType": "address",
          "name": "_admin",
          "type": "address"
        },
        {
          "internalType": "address",
          "name": "_polygonUSDCAddress",
          "type": "address"
        },
        {
          "internalType": "address",
          "name": "_rinkebyUSDCAddress",
          "type": "address"
        },
        {
          "internalType": "address",
          "name": "_testUSDCAddress",
          "type": "address"
        },
        {
          "internalType": "address",
          "name": "leagueMakerContractAddress",
          "type": "address"
        }
      ],
      "name": "initialize",
      "outputs": [],
      "stateMutability": "nonpayable",
      "type": "function"
    },
    {
      "inputs": [],
      "name": "isPublic",
      "outputs": [
        {
          "internalType": "bool",
          "name": "",
          "type": "bool"
        }
      ],
      "stateMutability": "view",
      "type": "function"
    },
    {
      "inputs": [],
      "name": "joinLeague",
      "outputs": [],
      "stateMutability": "nonpayable",
      "type": "function"
    },
    {
      "inputs": [
        {
          "internalType": "uint256",
          "name": "",
          "type": "uint256"
        }
      ],
      "name": "leagueMembers",
      "outputs": [
        {
          "internalType": "address",
          "name": "",
          "type": "address"
        }
      ],
      "stateMutability": "view",
      "type": "function"
    },
    {
      "inputs": [],
      "name": "leagueName",
      "outputs": [
        {
          "internalType": "string",
          "name": "",
          "type": "string"
        }
      ],
      "stateMutability": "view",
      "type": "function"
    },
    {
      "inputs": [],
      "name": "lockLineup",
      "outputs": [],
      "stateMutability": "nonpayable",
      "type": "function"
    },
    {
      "inputs": [],
      "name": "numWeeks",
      "outputs": [
        {
          "internalType": "uint256",
          "name": "",
          "type": "uint256"
        }
      ],
      "stateMutability": "view",
      "type": "function"
    },
    {
      "inputs": [],
      "name": "onLeagueEnd",
      "outputs": [],
      "stateMutability": "nonpayable",
      "type": "function"
    },
    {
      "inputs": [],
      "name": "owner",
      "outputs": [
        {
          "internalType": "address",
          "name": "",
          "type": "address"
        }
      ],
      "stateMutability": "view",
      "type": "function"
    },
    {
      "inputs": [],
      "name": "polygonUSDCAddress",
      "outputs": [
        {
          "internalType": "address",
          "name": "",
          "type": "address"
        }
      ],
      "stateMutability": "view",
      "type": "function"
    },
    {
      "inputs": [
        {
          "internalType": "address",
          "name": "addr",
          "type": "address"
        }
      ],
      "name": "removeAddressFromWhitelist",
      "outputs": [
        {
          "internalType": "bool",
          "name": "success",
          "type": "bool"
        }
      ],
      "stateMutability": "nonpayable",
      "type": "function"
    },
    {
      "inputs": [
        {
          "internalType": "address[]",
          "name": "addrs",
          "type": "address[]"
        }
      ],
      "name": "removeAddressesFromWhitelist",
      "outputs": [
        {
          "internalType": "bool",
          "name": "success",
          "type": "bool"
        }
      ],
      "stateMutability": "nonpayable",
      "type": "function"
    },
    {
      "inputs": [],
      "name": "renounceOwnership",
      "outputs": [],
      "stateMutability": "nonpayable",
      "type": "function"
    },
    {
      "inputs": [
        {
          "internalType": "bytes32",
          "name": "role",
          "type": "bytes32"
        },
        {
          "internalType": "address",
          "name": "account",
          "type": "address"
        }
      ],
      "name": "renounceRole",
      "outputs": [],
      "stateMutability": "nonpayable",
      "type": "function"
    },
    {
      "inputs": [
        {
          "internalType": "bytes32",
          "name": "role",
          "type": "bytes32"
        },
        {
          "internalType": "address",
          "name": "account",
          "type": "address"
        }
      ],
      "name": "revokeRole",
      "outputs": [],
      "stateMutability": "nonpayable",
      "type": "function"
    },
    {
      "inputs": [],
      "name": "rinkebyUSDCAddress",
      "outputs": [
        {
          "internalType": "address",
          "name": "",
          "type": "address"
        }
      ],
      "stateMutability": "view",
      "type": "function"
    },
    {
      "inputs": [],
      "name": "setLeagueEntryIsClosed",
      "outputs": [],
      "stateMutability": "nonpayable",
      "type": "function"
    },
    {
      "inputs": [],
      "name": "setLeagueSchedule",
      "outputs": [],
      "stateMutability": "nonpayable",
      "type": "function"
    },
    {
      "inputs": [
        {
          "internalType": "uint256[]",
          "name": "athleteIds",
          "type": "uint256[]"
        }
      ],
      "name": "setLineup",
      "outputs": [],
      "stateMutability": "nonpayable",
      "type": "function"
    },
    {
      "inputs": [],
      "name": "stakeAmount",
      "outputs": [
        {
          "internalType": "uint256",
          "name": "",
          "type": "uint256"
        }
      ],
      "stateMutability": "view",
      "type": "function"
    },
    {
      "inputs": [
        {
          "internalType": "bytes4",
          "name": "interfaceId",
          "type": "bytes4"
        }
      ],
      "name": "supportsInterface",
      "outputs": [
        {
          "internalType": "bool",
          "name": "",
          "type": "bool"
        }
      ],
      "stateMutability": "view",
      "type": "function"
    },
    {
      "inputs": [
        {
          "internalType": "address",
          "name": "newOwner",
          "type": "address"
        }
      ],
      "name": "transferOwnership",
      "outputs": [],
      "stateMutability": "nonpayable",
      "type": "function"
    },
    {
      "inputs": [],
      "name": "unlockLineup",
      "outputs": [],
      "stateMutability": "nonpayable",
      "type": "function"
    },
    {
      "inputs": [
        {
          "internalType": "address",
          "name": "",
          "type": "address"
        },
        {
          "internalType": "uint256",
          "name": "",
          "type": "uint256"
        }
      ],
      "name": "userToRecord",
      "outputs": [
        {
          "internalType": "uint256",
          "name": "",
          "type": "uint256"
        }
      ],
      "stateMutability": "view",
      "type": "function"
    },
    {
      "inputs": [
        {
          "internalType": "address",
          "name": "",
          "type": "address"
        }
      ],
      "name": "whitelist",
      "outputs": [
        {
          "internalType": "bool",
          "name": "",
          "type": "bool"
        }
      ],
      "stateMutability": "view",
      "type": "function"
    }
  ],
  "bytecode": "0x60806040523480156200001157600080fd5b5062000032620000266200003860201b60201c565b6200004060201b60201c565b62000105565b600033905090565b60008060029054906101000a900473ffffffffffffffffffffffffffffffffffffffff16905081600060026101000a81548173ffffffffffffffffffffffffffffffffffffffff021916908373ffffffffffffffffffffffffffffffffffffffff1602179055508173ffffffffffffffffffffffffffffffffffffffff168173ffffffffffffffffffffffffffffffffffffffff167f8be0079c531659141344cd1fd0a4f28419497f9722a3daafe3b4186f6b6457e060405160405180910390a35050565b61551f80620001156000396000f3fe60806040523480156200001157600080fd5b5060043610620002df5760003560e01c8063747b80501162000189578063a2bc091a11620000e1578063dc9a15351162000093578063dc9a15351462000886578063e2ec6ec314620008a8578063e4c9066b14620008de578063f2fde38b14620008ea578063f612121a146200090a578063f8816045146200092a57620002df565b8063a2bc091a14620007fe578063ada3a28d146200080a578063c8be3b5b146200082c578063c99fea941462000838578063cdbba4c61462000844578063d547741f146200086657620002df565b80638da5cb5b116200013b5780638da5cb5b146200070a57806391d14854146200072c57806393f3706c146200076257806399a6003414620007845780639b19251a14620007a6578063a217fddf14620007dc57620002df565b8063747b805014620006425780637b9417c814620006625780637eed33f11462000698578063841abf6e14620006ba57806385334ffa14620006dc5780638caec7a814620006e857620002df565b806336568abe116200023d5780635fcc698711620001ef5780635fcc6987146200058c57806360c7dc4714620005ae5780636e9960c314620005d05780636fd71a1814620005f2578063715018a61462000614578063722580b6146200062057620002df565b806336568abe14620004c45780633cfd1ccc14620004e4578063403570c5146200050657806352e6e5f31462000528578063595b1a3e146200054a5780635d514d69146200056c57620002df565b80631d803e0011620002975780631d803e0014620003c0578063248a9ca314620003cc57806324953eaa1462000402578063267175db1462000438578063286dd3f5146200046e5780632f2ff15d14620004a457620002df565b8062b2476f14620002e457806301ffc9a714620003065780630655465a146200033c578063087e18a714620003485780630c6f795914620003685780630d8e6e2c146200039e575b600080fd5b620002ee6200094c565b604051620002fd919062003a8b565b60405180910390f35b6200032460048036038101906200031e91906200348e565b62000972565b60405162000333919062003b54565b60405180910390f35b62000346620009ef565b005b620003666004803603810190620003609190620032c8565b62000aa7565b005b620003866004803603810190620003809190620032fa565b62000c2b565b60405162000395919062003d83565b60405180910390f35b620003a862000c54565b604051620003b7919062003d83565b60405180910390f35b620003ca62000c59565b005b620003ea6004803603810190620003e4919062003415565b62000f04565b604051620003f9919062003b71565b60405180910390f35b6200042060048036038101906200041a919062003341565b62000f24565b6040516200042f919062003b54565b60405180910390f35b620004566004803603810190620004509190620035da565b62001021565b60405162000465919062003a8b565b60405180910390f35b6200048c6004803603810190620004869190620032c8565b62001061565b6040516200049b919062003b54565b60405180910390f35b620004c26004803603810190620004bc919062003447565b620011f0565b005b620004e26004803603810190620004dc919062003447565b62001221565b005b620004ee620012ab565b604051620004fd919062003d83565b60405180910390f35b6200051062001363565b6040516200051f919062003c4f565b60405180910390f35b62000532620013fd565b60405162000541919062003d83565b60405180910390f35b6200055462001403565b60405162000563919062003d83565b60405180910390f35b6200058a6004803603810190620005849190620034c0565b62001410565b005b620005966200181f565b604051620005a5919062003d83565b60405180910390f35b620005b8620018d7565b604051620005c7919062003d83565b60405180910390f35b620005da620018dd565b604051620005e9919062003a8b565b60405180910390f35b620005fc62001907565b6040516200060b919062003b12565b60405180910390f35b6200061e62001993565b005b6200062a62001a24565b60405162000639919062003d83565b60405180910390f35b6200066060048036038101906200065a9190620032c8565b62001a2e565b005b6200068060048036038101906200067a9190620032c8565b62001b78565b6040516200068f919062003b54565b60405180910390f35b620006a262001d06565b604051620006b1919062003d83565b60405180910390f35b620006c462001d0c565b604051620006d3919062003c4f565b60405180910390f35b620006e662001da2565b005b620006f262001ec4565b60405162000701919062003a8b565b60405180910390f35b6200071462001eee565b60405162000723919062003a8b565b60405180910390f35b6200074a600480360381019062000744919062003447565b62001f17565b60405162000759919062003b54565b60405180910390f35b6200076c62001f82565b6040516200077b919062003a8b565b60405180910390f35b6200078e62001fa8565b6040516200079d919062003d83565b60405180910390f35b620007c46004803603810190620007be9190620032c8565b62001fc4565b604051620007d3919062003b54565b60405180910390f35b620007e662001fe4565b604051620007f5919062003b71565b60405180910390f35b6200080862001feb565b005b620008146200208b565b60405162000823919062003b30565b60405180910390f35b6200083662002122565b005b62000842620021c2565b005b6200084e620023e0565b6040516200085d919062003a8b565b60405180910390f35b6200088460048036038101906200087e919062003447565b6200240a565b005b620008906200243b565b6040516200089f919062003b54565b60405180910390f35b620008c66004803603810190620008c0919062003341565b6200244e565b604051620008d5919062003b54565b60405180910390f35b620008e86200254b565b005b620009086004803603810190620009029190620032c8565b620025eb565b005b62000928600480360381019062000922919062003392565b620026ef565b005b620009346200279b565b60405162000943919062003b12565b60405180910390f35b601060009054906101000a900473ffffffffffffffffffffffffffffffffffffffff1681565b60007f7965db0b000000000000000000000000000000000000000000000000000000007bffffffffffffffffffffffffffffffffffffffffffffffffffffffff1916827bffffffffffffffffffffffffffffffffffffffffffffffffffffffff19161480620009e85750620009e78262002827565b5b9050919050565b62000a2f6040518060400160405280601081526020017f73657474696e67207363686564756c650000000000000000000000000000000081525062002891565b73__$36fdb4e0c2cb91f3ceca5ea81b025328f3$__63d2c232b5600e600960065460056040518563ffffffff1660e01b815260040162000a73949392919062003b8e565b60006040518083038186803b15801562000a8c57600080fd5b505af415801562000aa1573d6000803e3d6000fd5b50505050565b600a60149054906101000a900460ff161562000afa576040517f08c379a000000000000000000000000000000000000000000000000000000000815260040162000af19062003d3f565b60405180910390fd5b6008600980549050101562000c03576009819080600181540180825580915050600190039060005260206000200160009091909190916101000a81548173ffffffffffffffffffffffffffffffffffffffff021916908373ffffffffffffffffffffffffffffffffffffffff160217905550601360009054906101000a900473ffffffffffffffffffffffffffffffffffffffff1673ffffffffffffffffffffffffffffffffffffffff1663771bd4ce826040518263ffffffff1660e01b815260040162000bc9919062003a8b565b600060405180830381600087803b15801562000be457600080fd5b505af115801562000bf9573d6000803e3d6000fd5b5050505062000c28565b62000c27604051806060016040528060288152602001620054c26028913962002891565b5b50565b600c602052816000526040600020816008811062000c4857600080fd5b01600091509150505481565b600090565b6000601460009054906101000a900473ffffffffffffffffffffffffffffffffffffffff1673ffffffffffffffffffffffffffffffffffffffff166370a08231306040518263ffffffff1660e01b815260040162000cb8919062003a8b565b60206040518083038186803b15801562000cd157600080fd5b505afa15801562000ce6573d6000803e3d6000fd5b505050506040513d601f19601f8201168201806040525081019062000d0c91906200360c565b9050600080600090505b60098054905081101562000e4757600b60008373ffffffffffffffffffffffffffffffffffffffff1673ffffffffffffffffffffffffffffffffffffffff16815260200190815260200160002054600b60006009848154811062000d7f5762000d7e6200420c565b5b9060005260206000200160009054906101000a900473ffffffffffffffffffffffffffffffffffffffff1673ffffffffffffffffffffffffffffffffffffffff1673ffffffffffffffffffffffffffffffffffffffff16815260200190815260200160002054111562000e31576009818154811062000e035762000e026200420c565b5b9060005260206000200160009054906101000a900473ffffffffffffffffffffffffffffffffffffffff1691505b808062000e3e9062004160565b91505062000d16565b50601460009054906101000a900473ffffffffffffffffffffffffffffffffffffffff1673ffffffffffffffffffffffffffffffffffffffff166323b872dd3330856040518463ffffffff1660e01b815260040162000ea99392919062003aa8565b602060405180830381600087803b15801562000ec457600080fd5b505af115801562000ed9573d6000803e3d6000fd5b505050506040513d601f19601f8201168201806040525081019062000eff9190620033e3565b505050565b600060016000838152602001908152602001600020600101549050919050565b600062000f306200292e565b73ffffffffffffffffffffffffffffffffffffffff1662000f5062001eee565b73ffffffffffffffffffffffffffffffffffffffff161462000fa9576040517f08c379a000000000000000000000000000000000000000000000000000000000815260040162000fa09062003cfb565b60405180910390fd5b60005b82518110156200101b5762000fde83828151811062000fd05762000fcf6200420c565b5b602002602001015162001061565b15620010055760016003600082825462000ff9919062003f98565b92505081905550600191505b8080620010129062004160565b91505062000fac565b50919050565b600981815481106200103257600080fd5b906000526020600020016000915054906101000a900473ffffffffffffffffffffffffffffffffffffffff1681565b60006200106d6200292e565b73ffffffffffffffffffffffffffffffffffffffff166200108d62001eee565b73ffffffffffffffffffffffffffffffffffffffff1614620010e6576040517f08c379a0000000000000000000000000000000000000000000000000000000008152600401620010dd9062003cfb565b60405180910390fd5b600260008373ffffffffffffffffffffffffffffffffffffffff1673ffffffffffffffffffffffffffffffffffffffff16815260200190815260200160002060009054906101000a900460ff1615620011eb576000600260008473ffffffffffffffffffffffffffffffffffffffff1673ffffffffffffffffffffffffffffffffffffffff16815260200190815260200160002060006101000a81548160ff0219169083151502179055507ff1abf01a1043b7c244d128e8595cf0c1d10743b022b03a02dffd8ca3bf729f5a82604051620011c2919062003a8b565b60405180910390a1600160036000828254620011df919062003f98565b92505081905550600190505b919050565b620011fb8262000f04565b62001210816200120a6200292e565b62002936565b6200121c8383620029de565b505050565b6200122b6200292e565b73ffffffffffffffffffffffffffffffffffffffff168173ffffffffffffffffffffffffffffffffffffffff16146200129b576040517f08c379a0000000000000000000000000000000000000000000000000000000008152600401620012929062003d61565b60405180910390fd5b620012a7828262002ac3565b5050565b6000601460009054906101000a900473ffffffffffffffffffffffffffffffffffffffff1673ffffffffffffffffffffffffffffffffffffffff166370a08231306040518263ffffffff1660e01b81526004016200130a919062003a8b565b60206040518083038186803b1580156200132357600080fd5b505afa15801562001338573d6000803e3d6000fd5b505050506040513d601f19601f820116820180604052508101906200135e91906200360c565b905090565b6060600580546200137490620040f4565b80601f0160208091040260200160405190810160405280929190818152602001828054620013a290620040f4565b8015620013f35780601f10620013c757610100808354040283529160200191620013f3565b820191906000526020600020905b815481529060010190602001808311620013d557829003601f168201915b5050505050905090565b60075481565b6000600980549050905090565b600060019054906101000a900460ff166200143a5760008054906101000a900460ff161562001445565b6200144462002baa565b5b62001487576040517f08c379a00000000000000000000000000000000000000000000000000000000081526004016200147e9062003cd9565b60405180910390fd5b60008060019054906101000a900460ff161590508015620014d8576001600060016101000a81548160ff02191690831515021790555060016000806101000a81548160ff0219169083151502179055505b8b8b60059190620014eb92919062002f39565b506008600681905550620015036000801b8762002bbd565b6009869080600181540180825580915050600190039060005260206000200160009091909190916101000a81548173ffffffffffffffffffffffffffffffffffffffff021916908373ffffffffffffffffffffffffffffffffffffffff16021790555085600a60006101000a81548173ffffffffffffffffffffffffffffffffffffffff021916908373ffffffffffffffffffffffffffffffffffffffff1602179055508860088190555087600460006101000a81548160ff0219169083151502179055506000600a60156101000a81548160ff0219169083151502179055506000600a60146101000a81548160ff02191690831515021790555086601160006101000a81548173ffffffffffffffffffffffffffffffffffffffff021916908373ffffffffffffffffffffffffffffffffffffffff16021790555081601360006101000a81548173ffffffffffffffffffffffffffffffffffffffff021916908373ffffffffffffffffffffffffffffffffffffffff1602179055506040516200168e9062002fca565b604051809103906000f080158015620016ab573d6000803e3d6000fd5b50601260006101000a81548173ffffffffffffffffffffffffffffffffffffffff021916908373ffffffffffffffffffffffffffffffffffffffff16021790555084600f60006101000a81548173ffffffffffffffffffffffffffffffffffffffff021916908373ffffffffffffffffffffffffffffffffffffffff16021790555083601060006101000a81548173ffffffffffffffffffffffffffffffffffffffff021916908373ffffffffffffffffffffffffffffffffffffffff16021790555082601460006101000a81548173ffffffffffffffffffffffffffffffffffffffff021916908373ffffffffffffffffffffffffffffffffffffffff160217905550620017ef6040518060400160405280601281526020017f50726f787920696e697469616c697a656421000000000000000000000000000081525062002891565b8015620018115760008060016101000a81548160ff0219169083151502179055505b505050505050505050505050565b6000601460009054906101000a900473ffffffffffffffffffffffffffffffffffffffff1673ffffffffffffffffffffffffffffffffffffffff166370a08231336040518263ffffffff1660e01b81526004016200187e919062003a8b565b60206040518083038186803b1580156200189757600080fd5b505afa158015620018ac573d6000803e3d6000fd5b505050506040513d601f19601f82011682018060405250810190620018d291906200360c565b905090565b60085481565b6000600a60009054906101000a900473ffffffffffffffffffffffffffffffffffffffff16905090565b6200191162002fd8565b600c60003373ffffffffffffffffffffffffffffffffffffffff1673ffffffffffffffffffffffffffffffffffffffff16815260200190815260200160002060088060200260405190810160405280929190826008801562001989576020028201915b81548152602001906001019080831162001974575b5050505050905090565b6200199d6200292e565b73ffffffffffffffffffffffffffffffffffffffff16620019bd62001eee565b73ffffffffffffffffffffffffffffffffffffffff161462001a16576040517f08c379a000000000000000000000000000000000000000000000000000000000815260040162001a0d9062003cfb565b60405180910390fd5b62001a22600062002bcd565b565b6000600854905090565b600a60009054906101000a900473ffffffffffffffffffffffffffffffffffffffff1673ffffffffffffffffffffffffffffffffffffffff163373ffffffffffffffffffffffffffffffffffffffff161462001ac1576040517f08c379a000000000000000000000000000000000000000000000000000000000815260040162001ab89062003d1d565b60405180910390fd5b601260009054906101000a900473ffffffffffffffffffffffffffffffffffffffff1673ffffffffffffffffffffffffffffffffffffffff16637b9417c8826040518263ffffffff1660e01b815260040162001b1e919062003a8b565b602060405180830381600087803b15801562001b3957600080fd5b505af115801562001b4e573d6000803e3d6000fd5b505050506040513d601f19601f8201168201806040525081019062001b749190620033e3565b5050565b600062001b846200292e565b73ffffffffffffffffffffffffffffffffffffffff1662001ba462001eee565b73ffffffffffffffffffffffffffffffffffffffff161462001bfd576040517f08c379a000000000000000000000000000000000000000000000000000000000815260040162001bf49062003cfb565b60405180910390fd5b600260008373ffffffffffffffffffffffffffffffffffffffff1673ffffffffffffffffffffffffffffffffffffffff16815260200190815260200160002060009054906101000a900460ff1662001d01576001600260008473ffffffffffffffffffffffffffffffffffffffff1673ffffffffffffffffffffffffffffffffffffffff16815260200190815260200160002060006101000a81548160ff0219169083151502179055507fd1bba68c128cc3f427e5831b3c6f99f480b6efa6b9e80c757768f6124158cc3f8260405162001cd8919062003a8b565b60405180910390a160016003600082825462001cf5919062003eda565b92505081905550600190505b919050565b60065481565b6005805462001d1b90620040f4565b80601f016020809104026020016040519081016040528092919081815260200182805462001d4990620040f4565b801562001d9a5780601f1062001d6e5761010080835404028352916020019162001d9a565b820191906000526020600020905b81548152906001019060200180831162001d7c57829003601f168201915b505050505081565b62001dac6200292e565b73ffffffffffffffffffffffffffffffffffffffff1662001dcc62001eee565b73ffffffffffffffffffffffffffffffffffffffff161462001e25576040517f08c379a000000000000000000000000000000000000000000000000000000000815260040162001e1c9062003cfb565b60405180910390fd5b73__$36fdb4e0c2cb91f3ceca5ea81b025328f3$__63c406e268600e600754601160009054906101000a900473ffffffffffffffffffffffffffffffffffffffff16600c600b600d6040518763ffffffff1660e01b815260040162001e909695949392919062003be2565b60006040518083038186803b15801562001ea957600080fd5b505af415801562001ebe573d6000803e3d6000fd5b50505050565b6000601160009054906101000a900473ffffffffffffffffffffffffffffffffffffffff16905090565b60008060029054906101000a900473ffffffffffffffffffffffffffffffffffffffff16905090565b60006001600084815260200190815260200160002060000160008373ffffffffffffffffffffffffffffffffffffffff1673ffffffffffffffffffffffffffffffffffffffff16815260200190815260200160002060009054906101000a900460ff16905092915050565b600f60009054906101000a900473ffffffffffffffffffffffffffffffffffffffff1681565b600060098054905060085462001fbf919062003f37565b905090565b60026020528060005260406000206000915054906101000a900460ff1681565b6000801b81565b62001ff56200292e565b73ffffffffffffffffffffffffffffffffffffffff166200201562001eee565b73ffffffffffffffffffffffffffffffffffffffff16146200206e576040517f08c379a0000000000000000000000000000000000000000000000000000000008152600401620020659062003cfb565b60405180910390fd5b6000600a60156101000a81548160ff021916908315150217905550565b6060600d60003373ffffffffffffffffffffffffffffffffffffffff1673ffffffffffffffffffffffffffffffffffffffff1681526020019081526020016000208054806020026020016040519081016040528092919081815260200182805480156200211857602002820191906000526020600020905b81548152602001906001019080831162002103575b5050505050905090565b6200212c6200292e565b73ffffffffffffffffffffffffffffffffffffffff166200214c62001eee565b73ffffffffffffffffffffffffffffffffffffffff1614620021a5576040517f08c379a00000000000000000000000000000000000000000000000000000000081526004016200219c9062003cfb565b60405180910390fd5b6001600a60156101000a81548160ff021916908315150217905550565b600260003373ffffffffffffffffffffffffffffffffffffffff1673ffffffffffffffffffffffffffffffffffffffff16815260200190815260200160002060009054906101000a900460ff1680620022275750600460009054906101000a900460ff165b6200223157600080fd5b600a60149054906101000a900460ff161562002284576040517f08c379a00000000000000000000000000000000000000000000000000000000081526004016200227b9062003d3f565b60405180910390fd5b6009339080600181540180825580915050600190039060005260206000200160009091909190916101000a81548173ffffffffffffffffffffffffffffffffffffffff021916908373ffffffffffffffffffffffffffffffffffffffff160217905550601460009054906101000a900473ffffffffffffffffffffffffffffffffffffffff1673ffffffffffffffffffffffffffffffffffffffff166323b872dd33306008546040518463ffffffff1660e01b81526004016200234a9392919062003aa8565b602060405180830381600087803b1580156200236557600080fd5b505af11580156200237a573d6000803e3d6000fd5b505050506040513d601f19601f82011682018060405250810190620023a09190620033e3565b507f9e71bc8eea02a63969f509818f2dafb9254532904319f9dbda79b67bd34a5f3d33600854604051620023d692919062003ae5565b60405180910390a1565b6000601460009054906101000a900473ffffffffffffffffffffffffffffffffffffffff16905090565b620024158262000f04565b6200242a81620024246200292e565b62002936565b62002436838362002ac3565b505050565b600460009054906101000a900460ff1681565b60006200245a6200292e565b73ffffffffffffffffffffffffffffffffffffffff166200247a62001eee565b73ffffffffffffffffffffffffffffffffffffffff1614620024d3576040517f08c379a0000000000000000000000000000000000000000000000000000000008152600401620024ca9062003cfb565b60405180910390fd5b60005b8251811015620025455762002508838281518110620024fa57620024f96200420c565b5b602002602001015162001b78565b156200252f5760016003600082825462002523919062003eda565b92505081905550600191505b80806200253c9062004160565b915050620024d6565b50919050565b620025556200292e565b73ffffffffffffffffffffffffffffffffffffffff166200257562001eee565b73ffffffffffffffffffffffffffffffffffffffff1614620025ce576040517f08c379a0000000000000000000000000000000000000000000000000000000008152600401620025c59062003cfb565b60405180910390fd5b6001600a60146101000a81548160ff021916908315150217905550565b620025f56200292e565b73ffffffffffffffffffffffffffffffffffffffff166200261562001eee565b73ffffffffffffffffffffffffffffffffffffffff16146200266e576040517f08c379a0000000000000000000000000000000000000000000000000000000008152600401620026659062003cfb565b60405180910390fd5b600073ffffffffffffffffffffffffffffffffffffffff168173ffffffffffffffffffffffffffffffffffffffff161415620026e1576040517f08c379a0000000000000000000000000000000000000000000000000000000008152600401620026d89062003c95565b60405180910390fd5b620026ec8162002bcd565b50565b600a60159054906101000a900460ff161562002742576040517f08c379a0000000000000000000000000000000000000000000000000000000008152600401620027399062003cb7565b60405180910390fd5b80600d60003373ffffffffffffffffffffffffffffffffffffffff1673ffffffffffffffffffffffffffffffffffffffff16815260200190815260200160002090805190602001906200279792919062002ffb565b5050565b620027a562002fd8565b600c60003373ffffffffffffffffffffffffffffffffffffffff1673ffffffffffffffffffffffffffffffffffffffff1681526020019081526020016000206008806020026040519081016040528092919082600880156200281d576020028201915b81548152602001906001019080831162002808575b5050505050905090565b60007f01ffc9a7000000000000000000000000000000000000000000000000000000007bffffffffffffffffffffffffffffffffffffffffffffffffffffffff1916827bffffffffffffffffffffffffffffffffffffffffffffffffffffffff1916149050919050565b6200292b81604051602401620028a8919062003c4f565b6040516020818303038152906040527f41304fac000000000000000000000000000000000000000000000000000000007bffffffffffffffffffffffffffffffffffffffffffffffffffffffff19166020820180517bffffffffffffffffffffffffffffffffffffffffffffffffffffffff838183161783525050505062002c92565b50565b600033905090565b62002942828262001f17565b620029da576200296a8173ffffffffffffffffffffffffffffffffffffffff16601462002cbb565b6200297a8360001c602062002cbb565b6040516020016200298d92919062003a49565b6040516020818303038152906040526040517f08c379a0000000000000000000000000000000000000000000000000000000008152600401620029d1919062003c4f565b60405180910390fd5b5050565b620029ea828262001f17565b62002abf57600180600084815260200190815260200160002060000160008373ffffffffffffffffffffffffffffffffffffffff1673ffffffffffffffffffffffffffffffffffffffff16815260200190815260200160002060006101000a81548160ff02191690831515021790555062002a646200292e565b73ffffffffffffffffffffffffffffffffffffffff168173ffffffffffffffffffffffffffffffffffffffff16837f2f8788117e7eff1d82e926ec794901d17c78024a50270940304540a733656f0d60405160405180910390a45b5050565b62002acf828262001f17565b1562002ba65760006001600084815260200190815260200160002060000160008373ffffffffffffffffffffffffffffffffffffffff1673ffffffffffffffffffffffffffffffffffffffff16815260200190815260200160002060006101000a81548160ff02191690831515021790555062002b4b6200292e565b73ffffffffffffffffffffffffffffffffffffffff168173ffffffffffffffffffffffffffffffffffffffff16837ff6391f5c32d9c69d2a47ea670b442974b53935d1edc7fd64eb21e047a839171b60405160405180910390a45b5050565b600062002bb73062002f16565b15905090565b62002bc98282620029de565b5050565b60008060029054906101000a900473ffffffffffffffffffffffffffffffffffffffff16905081600060026101000a81548173ffffffffffffffffffffffffffffffffffffffff021916908373ffffffffffffffffffffffffffffffffffffffff1602179055508173ffffffffffffffffffffffffffffffffffffffff168173ffffffffffffffffffffffffffffffffffffffff167f8be0079c531659141344cd1fd0a4f28419497f9722a3daafe3b4186f6b6457e060405160405180910390a35050565b60008151905060006a636f6e736f6c652e6c6f679050602083016000808483855afa5050505050565b60606000600283600262002cd0919062003f37565b62002cdc919062003eda565b67ffffffffffffffff81111562002cf85762002cf76200423b565b5b6040519080825280601f01601f19166020018201604052801562002d2b5781602001600182028036833780820191505090505b5090507f30000000000000000000000000000000000000000000000000000000000000008160008151811062002d665762002d656200420c565b5b60200101907effffffffffffffffffffffffffffffffffffffffffffffffffffffffffffff1916908160001a9053507f78000000000000000000000000000000000000000000000000000000000000008160018151811062002dcd5762002dcc6200420c565b5b60200101907effffffffffffffffffffffffffffffffffffffffffffffffffffffffffffff1916908160001a9053506000600184600262002e0f919062003f37565b62002e1b919062003eda565b90505b600181111562002ec5577f3031323334353637383961626364656600000000000000000000000000000000600f86166010811062002e615762002e606200420c565b5b1a60f81b82828151811062002e7b5762002e7a6200420c565b5b60200101907effffffffffffffffffffffffffffffffffffffffffffffffffffffffffffff1916908160001a905350600485901c94508062002ebd90620040c5565b905062002e1e565b506000841462002f0c576040517f08c379a000000000000000000000000000000000000000000000000000000000815260040162002f039062003c73565b60405180910390fd5b8091505092915050565b6000808273ffffffffffffffffffffffffffffffffffffffff163b119050919050565b82805462002f4790620040f4565b90600052602060002090601f01602090048101928262002f6b576000855562002fb7565b82601f1062002f8657803560ff191683800117855562002fb7565b8280016001018555821562002fb7579182015b8281111562002fb657823582559160200191906001019062002f99565b5b50905062002fc691906200304d565b5090565b610f9f806200452383390190565b604051806101000160405280600890602082028036833780820191505090505090565b8280548282559060005260206000209081019282156200303a579160200282015b82811115620030395782518255916020019190600101906200301c565b5b5090506200304991906200304d565b5090565b5b80821115620030685760008160009055506001016200304e565b5090565b6000620030836200307d8462003dc9565b62003da0565b90508083825260208201905082856020860282011115620030a957620030a862004274565b5b60005b85811015620030dd5781620030c2888262003162565b845260208401935060208301925050600181019050620030ac565b5050509392505050565b6000620030fe620030f88462003df8565b62003da0565b9050808382526020820190508285602086028201111562003124576200312362004274565b5b60005b858110156200315857816200313d88826200329a565b84526020840193506020830192505060018101905062003127565b5050509392505050565b6000813590506200317381620044a0565b92915050565b600082601f8301126200319157620031906200426f565b5b8135620031a38482602086016200306c565b91505092915050565b600082601f830112620031c457620031c36200426f565b5b8135620031d6848260208601620030e7565b91505092915050565b600081359050620031f081620044ba565b92915050565b6000815190506200320781620044ba565b92915050565b6000813590506200321e81620044d4565b92915050565b6000813590506200323581620044ee565b92915050565b60008083601f8401126200325457620032536200426f565b5b8235905067ffffffffffffffff8111156200327457620032736200426a565b5b60208301915083600182028301111562003293576200329262004274565b5b9250929050565b600081359050620032ab8162004508565b92915050565b600081519050620032c28162004508565b92915050565b600060208284031215620032e157620032e06200427e565b5b6000620032f18482850162003162565b91505092915050565b600080604083850312156200331457620033136200427e565b5b6000620033248582860162003162565b925050602062003337858286016200329a565b9150509250929050565b6000602082840312156200335a57620033596200427e565b5b600082013567ffffffffffffffff8111156200337b576200337a62004279565b5b620033898482850162003179565b91505092915050565b600060208284031215620033ab57620033aa6200427e565b5b600082013567ffffffffffffffff811115620033cc57620033cb62004279565b5b620033da84828501620031ac565b91505092915050565b600060208284031215620033fc57620033fb6200427e565b5b60006200340c84828501620031f6565b91505092915050565b6000602082840312156200342e576200342d6200427e565b5b60006200343e848285016200320d565b91505092915050565b600080604083850312156200346157620034606200427e565b5b600062003471858286016200320d565b9250506020620034848582860162003162565b9150509250929050565b600060208284031215620034a757620034a66200427e565b5b6000620034b78482850162003224565b91505092915050565b60008060008060008060008060008060006101408c8e031215620034e957620034e86200427e565b5b60008c013567ffffffffffffffff8111156200350a576200350962004279565b5b620035188e828f016200323b565b9b509b505060206200352d8e828f016200329a565b9950506040620035408e828f016200329a565b9850506060620035538e828f01620031df565b9750506080620035668e828f0162003162565b96505060a0620035798e828f0162003162565b95505060c06200358c8e828f0162003162565b94505060e06200359f8e828f0162003162565b935050610100620035b38e828f0162003162565b925050610120620035c78e828f0162003162565b9150509295989b509295989b9093969950565b600060208284031215620035f357620035f26200427e565b5b600062003603848285016200329a565b91505092915050565b6000602082840312156200362557620036246200427e565b5b60006200363584828501620032b1565b91505092915050565b60006200364c838362003a16565b60208301905092915050565b620036638162003fd3565b82525050565b8082525050565b6200367b8162003e56565b62003687818462003e91565b9250620036948262003e27565b8060005b83811015620036cb578151620036af87826200363e565b9650620036bc8362003e77565b92505060018101905062003698565b505050505050565b6000620036e08262003e61565b620036ec818562003e9c565b9350620036f98362003e31565b8060005b83811015620037305781516200371488826200363e565b9750620037218362003e84565b925050600181019050620036fd565b5085935050505092915050565b620037488162003fe7565b82525050565b620037598162003ff3565b82525050565b6200376a8162004053565b82525050565b8082525050565b8082525050565b8082525050565b8082525050565b6000620037998262003e6c565b620037a5818562003ead565b9350620037b78185602086016200408f565b620037c28162004283565b840191505092915050565b6000620037da8262003e6c565b620037e6818562003ecf565b9350620037f88185602086016200408f565b80840191505092915050565b600081546200381381620040f4565b6200381f818662003ebe565b945060018216600081146200383d5760018114620038505762003887565b60ff198316865260208601935062003887565b6200385b8562003e41565b60005b838110156200387f578154818901526001820191506020810190506200385e565b808801955050505b50505092915050565b60006200389f60208362003ead565b9150620038ac8262004294565b602082019050919050565b6000620038c660268362003ead565b9150620038d382620042bd565b604082019050919050565b6000620038ed601e8362003ead565b9150620038fa826200430c565b602082019050919050565b600062003914602e8362003ead565b9150620039218262004335565b604082019050919050565b60006200393b60208362003ead565b9150620039488262004384565b602082019050919050565b60006200396260178362003ead565b91506200396f82620043ad565b602082019050919050565b60006200398960178362003ecf565b91506200399682620043d6565b601782019050919050565b6000620039b060178362003ead565b9150620039bd82620043ff565b602082019050919050565b6000620039d760118362003ecf565b9150620039e48262004428565b601182019050919050565b6000620039fe602f8362003ead565b915062003a0b8262004451565b604082019050919050565b62003a218162004049565b82525050565b62003a328162004049565b82525050565b62003a438162004049565b82525050565b600062003a56826200397a565b915062003a648285620037cd565b915062003a7182620039c8565b915062003a7f8284620037cd565b91508190509392505050565b600060208201905062003aa2600083018462003658565b92915050565b600060608201905062003abf600083018662003658565b62003ace602083018562003658565b62003add604083018462003a27565b949350505050565b600060408201905062003afc600083018562003658565b62003b0b602083018462003a27565b9392505050565b60006101008201905062003b2a600083018462003670565b92915050565b6000602082019050818103600083015262003b4c8184620036d3565b905092915050565b600060208201905062003b6b60008301846200373d565b92915050565b600060208201905062003b8860008301846200374e565b92915050565b600060808201905062003ba5600083018762003785565b62003bb4602083018662003669565b62003bc3604083018562003a38565b818103606083015262003bd7818462003804565b905095945050505050565b600060c08201905062003bf9600083018962003785565b62003c08602083018862003a38565b62003c1760408301876200375f565b62003c26606083018662003770565b62003c3560808301856200377e565b62003c4460a083018462003777565b979650505050505050565b6000602082019050818103600083015262003c6b81846200378c565b905092915050565b6000602082019050818103600083015262003c8e8162003890565b9050919050565b6000602082019050818103600083015262003cb081620038b7565b9050919050565b6000602082019050818103600083015262003cd281620038de565b9050919050565b6000602082019050818103600083015262003cf48162003905565b9050919050565b6000602082019050818103600083015262003d16816200392c565b9050919050565b6000602082019050818103600083015262003d388162003953565b9050919050565b6000602082019050818103600083015262003d5a81620039a1565b9050919050565b6000602082019050818103600083015262003d7c81620039ef565b9050919050565b600060208201905062003d9a600083018462003a27565b92915050565b600062003dac62003dbf565b905062003dba82826200412a565b919050565b6000604051905090565b600067ffffffffffffffff82111562003de75762003de66200423b565b5b602082029050602081019050919050565b600067ffffffffffffffff82111562003e165762003e156200423b565b5b602082029050602081019050919050565b6000819050919050565b6000819050602082019050919050565b60008190508160005260206000209050919050565b600060089050919050565b600081519050919050565b600081519050919050565b6000602082019050919050565b6000602082019050919050565b600081905092915050565b600082825260208201905092915050565b600082825260208201905092915050565b600082825260208201905092915050565b600081905092915050565b600062003ee78262004049565b915062003ef48362004049565b9250827fffffffffffffffffffffffffffffffffffffffffffffffffffffffffffffffff0382111562003f2c5762003f2b620041ae565b5b828201905092915050565b600062003f448262004049565b915062003f518362004049565b9250817fffffffffffffffffffffffffffffffffffffffffffffffffffffffffffffffff048311821515161562003f8d5762003f8c620041ae565b5b828202905092915050565b600062003fa58262004049565b915062003fb28362004049565b92508282101562003fc85762003fc7620041ae565b5b828203905092915050565b600062003fe08262004029565b9050919050565b60008115159050919050565b6000819050919050565b60007fffffffff0000000000000000000000000000000000000000000000000000000082169050919050565b600073ffffffffffffffffffffffffffffffffffffffff82169050919050565b6000819050919050565b6000620040608262004067565b9050919050565b600062004074826200407b565b9050919050565b6000620040888262004029565b9050919050565b60005b83811015620040af57808201518184015260208101905062004092565b83811115620040bf576000848401525b50505050565b6000620040d28262004049565b91506000821415620040e957620040e8620041ae565b5b600182039050919050565b600060028204905060018216806200410d57607f821691505b60208210811415620041245762004123620041dd565b5b50919050565b620041358262004283565b810181811067ffffffffffffffff821117156200415757620041566200423b565b5b80604052505050565b60006200416d8262004049565b91507fffffffffffffffffffffffffffffffffffffffffffffffffffffffffffffffff821415620041a357620041a2620041ae565b5b600182019050919050565b7f4e487b7100000000000000000000000000000000000000000000000000000000600052601160045260246000fd5b7f4e487b7100000000000000000000000000000000000000000000000000000000600052602260045260246000fd5b7f4e487b7100000000000000000000000000000000000000000000000000000000600052603260045260246000fd5b7f4e487b7100000000000000000000000000000000000000000000000000000000600052604160045260246000fd5b600080fd5b600080fd5b600080fd5b600080fd5b600080fd5b6000601f19601f8301169050919050565b7f537472696e67733a20686578206c656e67746820696e73756666696369656e74600082015250565b7f4f776e61626c653a206e6577206f776e657220697320746865207a65726f206160008201527f6464726573730000000000000000000000000000000000000000000000000000602082015250565b7f6c696e657570206973206c6f636b656420666f7220746865207765656b210000600082015250565b7f496e697469616c697a61626c653a20636f6e747261637420697320616c72656160008201527f647920696e697469616c697a6564000000000000000000000000000000000000602082015250565b7f4f776e61626c653a2063616c6c6572206973206e6f7420746865206f776e6572600082015250565b7f43616c6c6572206973206e6f74207468652061646d696e000000000000000000600082015250565b7f416363657373436f6e74726f6c3a206163636f756e7420000000000000000000600082015250565b7f4c656167756520456e74727920697320436c6f73656421000000000000000000600082015250565b7f206973206d697373696e6720726f6c6520000000000000000000000000000000600082015250565b7f416363657373436f6e74726f6c3a2063616e206f6e6c792072656e6f756e636560008201527f20726f6c657320666f722073656c660000000000000000000000000000000000602082015250565b620044ab8162003fd3565b8114620044b757600080fd5b50565b620044c58162003fe7565b8114620044d157600080fd5b50565b620044df8162003ff3565b8114620044eb57600080fd5b50565b620044f98162003ffd565b81146200450557600080fd5b50565b620045138162004049565b81146200451f57600080fd5b5056fe608060405234801561001057600080fd5b5061002d61002261003260201b60201c565b61003a60201b60201c565b6100fe565b600033905090565b60008060009054906101000a900473ffffffffffffffffffffffffffffffffffffffff169050816000806101000a81548173ffffffffffffffffffffffffffffffffffffffff021916908373ffffffffffffffffffffffffffffffffffffffff1602179055508173ffffffffffffffffffffffffffffffffffffffff168173ffffffffffffffffffffffffffffffffffffffff167f8be0079c531659141344cd1fd0a4f28419497f9722a3daafe3b4186f6b6457e060405160405180910390a35050565b610e928061010d6000396000f3fe608060405234801561001057600080fd5b50600436106100935760003560e01c80638da5cb5b116100665780638da5cb5b146101325780639b19251a14610150578063dc9a153514610180578063e2ec6ec31461019e578063f2fde38b146101ce57610093565b806324953eaa14610098578063286dd3f5146100c8578063715018a6146100f85780637b9417c814610102575b600080fd5b6100b260048036038101906100ad9190610a4a565b6101ea565b6040516100bf9190610b12565b60405180910390f35b6100e260048036038101906100dd9190610a1d565b6102d4565b6040516100ef9190610b12565b60405180910390f35b610100610457565b005b61011c60048036038101906101179190610a1d565b6104df565b6040516101299190610b12565b60405180910390f35b61013a610660565b6040516101479190610af7565b60405180910390f35b61016a60048036038101906101659190610a1d565b610689565b6040516101779190610b12565b60405180910390f35b6101886106a9565b6040516101959190610b12565b60405180910390f35b6101b860048036038101906101b39190610a4a565b6106bc565b6040516101c59190610b12565b60405180910390f35b6101e860048036038101906101e39190610a1d565b6107a6565b005b60006101f461089e565b73ffffffffffffffffffffffffffffffffffffffff16610212610660565b73ffffffffffffffffffffffffffffffffffffffff1614610268576040517f08c379a000000000000000000000000000000000000000000000000000000000815260040161025f90610b4d565b60405180910390fd5b60005b82518110156102ce5761029783828151811061028a57610289610d4a565b5b60200260200101516102d4565b156102bb576001600260008282546102af9190610c25565b92505081905550600191505b80806102c690610cd2565b91505061026b565b50919050565b60006102de61089e565b73ffffffffffffffffffffffffffffffffffffffff166102fc610660565b73ffffffffffffffffffffffffffffffffffffffff1614610352576040517f08c379a000000000000000000000000000000000000000000000000000000000815260040161034990610b4d565b60405180910390fd5b600160008373ffffffffffffffffffffffffffffffffffffffff1673ffffffffffffffffffffffffffffffffffffffff16815260200190815260200160002060009054906101000a900460ff1615610452576000600160008473ffffffffffffffffffffffffffffffffffffffff1673ffffffffffffffffffffffffffffffffffffffff16815260200190815260200160002060006101000a81548160ff0219169083151502179055507ff1abf01a1043b7c244d128e8595cf0c1d10743b022b03a02dffd8ca3bf729f5a8260405161042b9190610af7565b60405180910390a16001600260008282546104469190610c25565b92505081905550600190505b919050565b61045f61089e565b73ffffffffffffffffffffffffffffffffffffffff1661047d610660565b73ffffffffffffffffffffffffffffffffffffffff16146104d3576040517f08c379a00000000000000000000000000000000000000000000000000000000081526004016104ca90610b4d565b60405180910390fd5b6104dd60006108a6565b565b60006104e961089e565b73ffffffffffffffffffffffffffffffffffffffff16610507610660565b73ffffffffffffffffffffffffffffffffffffffff161461055d576040517f08c379a000000000000000000000000000000000000000000000000000000000815260040161055490610b4d565b60405180910390fd5b600160008373ffffffffffffffffffffffffffffffffffffffff1673ffffffffffffffffffffffffffffffffffffffff16815260200190815260200160002060009054906101000a900460ff1661065b5760018060008473ffffffffffffffffffffffffffffffffffffffff1673ffffffffffffffffffffffffffffffffffffffff16815260200190815260200160002060006101000a81548160ff0219169083151502179055507fd1bba68c128cc3f427e5831b3c6f99f480b6efa6b9e80c757768f6124158cc3f826040516106349190610af7565b60405180910390a160016002600082825461064f9190610bcf565b92505081905550600190505b919050565b60008060009054906101000a900473ffffffffffffffffffffffffffffffffffffffff16905090565b60016020528060005260406000206000915054906101000a900460ff1681565b600360009054906101000a900460ff1681565b60006106c661089e565b73ffffffffffffffffffffffffffffffffffffffff166106e4610660565b73ffffffffffffffffffffffffffffffffffffffff161461073a576040517f08c379a000000000000000000000000000000000000000000000000000000000815260040161073190610b4d565b60405180910390fd5b60005b82518110156107a05761076983828151811061075c5761075b610d4a565b5b60200260200101516104df565b1561078d576001600260008282546107819190610bcf565b92505081905550600191505b808061079890610cd2565b91505061073d565b50919050565b6107ae61089e565b73ffffffffffffffffffffffffffffffffffffffff166107cc610660565b73ffffffffffffffffffffffffffffffffffffffff1614610822576040517f08c379a000000000000000000000000000000000000000000000000000000000815260040161081990610b4d565b60405180910390fd5b600073ffffffffffffffffffffffffffffffffffffffff168173ffffffffffffffffffffffffffffffffffffffff161415610892576040517f08c379a000000000000000000000000000000000000000000000000000000000815260040161088990610b2d565b60405180910390fd5b61089b816108a6565b50565b600033905090565b60008060009054906101000a900473ffffffffffffffffffffffffffffffffffffffff169050816000806101000a81548173ffffffffffffffffffffffffffffffffffffffff021916908373ffffffffffffffffffffffffffffffffffffffff1602179055508173ffffffffffffffffffffffffffffffffffffffff168173ffffffffffffffffffffffffffffffffffffffff167f8be0079c531659141344cd1fd0a4f28419497f9722a3daafe3b4186f6b6457e060405160405180910390a35050565b600061097d61097884610b92565b610b6d565b905080838252602082019050828560208602820111156109a05761099f610dad565b5b60005b858110156109d057816109b688826109da565b8452602084019350602083019250506001810190506109a3565b5050509392505050565b6000813590506109e981610e45565b92915050565b600082601f830112610a0457610a03610da8565b5b8135610a1484826020860161096a565b91505092915050565b600060208284031215610a3357610a32610db7565b5b6000610a41848285016109da565b91505092915050565b600060208284031215610a6057610a5f610db7565b5b600082013567ffffffffffffffff811115610a7e57610a7d610db2565b5b610a8a848285016109ef565b91505092915050565b610a9c81610c59565b82525050565b610aab81610c6b565b82525050565b6000610abe602683610bbe565b9150610ac982610dcd565b604082019050919050565b6000610ae1602083610bbe565b9150610aec82610e1c565b602082019050919050565b6000602082019050610b0c6000830184610a93565b92915050565b6000602082019050610b276000830184610aa2565b92915050565b60006020820190508181036000830152610b4681610ab1565b9050919050565b60006020820190508181036000830152610b6681610ad4565b9050919050565b6000610b77610b88565b9050610b838282610ca1565b919050565b6000604051905090565b600067ffffffffffffffff821115610bad57610bac610d79565b5b602082029050602081019050919050565b600082825260208201905092915050565b6000610bda82610c97565b9150610be583610c97565b9250827fffffffffffffffffffffffffffffffffffffffffffffffffffffffffffffffff03821115610c1a57610c19610d1b565b5b828201905092915050565b6000610c3082610c97565b9150610c3b83610c97565b925082821015610c4e57610c4d610d1b565b5b828203905092915050565b6000610c6482610c77565b9050919050565b60008115159050919050565b600073ffffffffffffffffffffffffffffffffffffffff82169050919050565b6000819050919050565b610caa82610dbc565b810181811067ffffffffffffffff82111715610cc957610cc8610d79565b5b80604052505050565b6000610cdd82610c97565b91507fffffffffffffffffffffffffffffffffffffffffffffffffffffffffffffffff821415610d1057610d0f610d1b565b5b600182019050919050565b7f4e487b7100000000000000000000000000000000000000000000000000000000600052601160045260246000fd5b7f4e487b7100000000000000000000000000000000000000000000000000000000600052603260045260246000fd5b7f4e487b7100000000000000000000000000000000000000000000000000000000600052604160045260246000fd5b600080fd5b600080fd5b600080fd5b600080fd5b6000601f19601f8301169050919050565b7f4f776e61626c653a206e6577206f776e657220697320746865207a65726f206160008201527f6464726573730000000000000000000000000000000000000000000000000000602082015250565b7f4f776e61626c653a2063616c6c6572206973206e6f7420746865206f776e6572600082015250565b610e4e81610c59565b8114610e5957600080fd5b5056fea2646970667358221220a21085165a95bba102b3fe59880e17f3027964706b8a63561e6b8ccd43ba90fb64736f6c63430008070033746f6f206d616e7920757365727320696e206c656167756520746f20616464206e65772075736572a26469706673582212206f32fab8ae05dfb0bbe13c0d6f1d6901f556c33aa154d275b143e0564110da2c64736f6c63430008070033",
  "linkReferences": {
    "contracts/MOBALogicLibrary.sol": {
      "MOBALogicLibrary": [
        {
          "length": 20,
          "start": 2886
        },
        {
          "length": 20,
          "start": 7996
        }
      ]
    }
  },
  "deployedLinkReferences": {
    "contracts/MOBALogicLibrary.sol": {
      "MOBALogicLibrary": [
        {
          "length": 20,
          "start": 2609
        },
        {
          "length": 20,
          "start": 7719
        }
      ]
    }
  }
}