{
  "_format": "hh-sol-artifact-1",
  "contractName": "LeagueOfLegendsLogic",
  "sourceName": "contracts/LeagueOfLegendsLogic.sol",
  "abi": [
    {
      "anonymous": false,
      "inputs": [
        {
          "indexed": true,
          "internalType": "address",
          "name": "previousOwner",
          "type": "address"
        },
        {
          "indexed": true,
          "internalType": "address",
          "name": "newOwner",
          "type": "address"
        }
      ],
      "name": "OwnershipTransferred",
      "type": "event"
    },
    {
      "anonymous": false,
      "inputs": [
        {
          "indexed": false,
          "internalType": "address",
          "name": "sender",
          "type": "address"
        },
        {
          "indexed": false,
          "internalType": "uint256",
          "name": "amount",
          "type": "uint256"
        }
      ],
      "name": "Staked",
      "type": "event"
    },
    {
      "anonymous": false,
      "inputs": [
        {
          "indexed": false,
          "internalType": "address",
          "name": "addr",
          "type": "address"
        }
      ],
      "name": "WhitelistedAddressAdded",
      "type": "event"
    },
    {
      "anonymous": false,
      "inputs": [
        {
          "indexed": false,
          "internalType": "address",
          "name": "addr",
          "type": "address"
        }
      ],
      "name": "WhitelistedAddressRemoved",
      "type": "event"
    },
    {
      "anonymous": false,
      "inputs": [
        {
          "indexed": false,
          "internalType": "address",
          "name": "sender",
          "type": "address"
        },
        {
          "indexed": false,
          "internalType": "address",
          "name": "contractAddress",
          "type": "address"
        }
      ],
      "name": "testUSDCDeployed",
      "type": "event"
    },
    {
      "inputs": [
        {
          "internalType": "address",
          "name": "addr",
          "type": "address"
        }
      ],
      "name": "addAddressToWhitelist",
      "outputs": [
        {
          "internalType": "bool",
          "name": "success",
          "type": "bool"
        }
      ],
      "stateMutability": "nonpayable",
      "type": "function"
    },
    {
      "inputs": [
        {
          "internalType": "address[]",
          "name": "addrs",
          "type": "address[]"
        }
      ],
      "name": "addAddressesToWhitelist",
      "outputs": [
        {
          "internalType": "bool",
          "name": "success",
          "type": "bool"
        }
      ],
      "stateMutability": "nonpayable",
      "type": "function"
    },
    {
      "inputs": [
        {
          "internalType": "address",
          "name": "_userToAdd",
          "type": "address"
        }
      ],
      "name": "addUserToWhitelist",
      "outputs": [],
      "stateMutability": "nonpayable",
      "type": "function"
    },
    {
      "inputs": [
        {
          "internalType": "uint256",
          "name": "currentWeekNum",
          "type": "uint256"
        }
      ],
      "name": "evaluateWeek",
      "outputs": [],
      "stateMutability": "nonpayable",
      "type": "function"
    },
    {
      "inputs": [],
      "name": "getAdmin",
      "outputs": [
        {
          "internalType": "address",
          "name": "",
          "type": "address"
        }
      ],
      "stateMutability": "view",
      "type": "function"
    },
    {
      "inputs": [],
      "name": "getLeagueName",
      "outputs": [
        {
          "internalType": "string",
          "name": "",
          "type": "string"
        }
      ],
      "stateMutability": "view",
      "type": "function"
    },
    {
      "inputs": [],
      "name": "getLineup",
      "outputs": [
        {
          "internalType": "uint256[]",
          "name": "",
          "type": "uint256[]"
        }
      ],
      "stateMutability": "view",
      "type": "function"
    },
    {
      "inputs": [],
      "name": "getNumWhitelisted",
      "outputs": [
        {
          "internalType": "uint256",
          "name": "",
          "type": "uint256"
        }
      ],
      "stateMutability": "view",
      "type": "function"
    },
    {
      "inputs": [],
      "name": "getStakeAmount",
      "outputs": [
        {
          "internalType": "uint256",
          "name": "",
          "type": "uint256"
        }
      ],
      "stateMutability": "view",
      "type": "function"
    },
    {
      "inputs": [],
      "name": "getTestUSDCAddress",
      "outputs": [
        {
          "internalType": "address",
          "name": "",
          "type": "address"
        }
      ],
      "stateMutability": "view",
      "type": "function"
    },
    {
      "inputs": [],
      "name": "getUserRecord",
      "outputs": [
        {
          "internalType": "uint256[8]",
          "name": "",
          "type": "uint256[8]"
        }
      ],
      "stateMutability": "view",
      "type": "function"
    },
    {
      "inputs": [],
      "name": "getUserTotalPts",
      "outputs": [
        {
          "internalType": "uint256",
          "name": "",
          "type": "uint256"
        }
      ],
      "stateMutability": "view",
      "type": "function"
    },
    {
      "inputs": [],
      "name": "getUserUSDCBalance",
      "outputs": [
        {
          "internalType": "uint256",
          "name": "",
          "type": "uint256"
        }
      ],
      "stateMutability": "view",
      "type": "function"
    },
    {
      "inputs": [],
      "name": "getUsersLength",
      "outputs": [
        {
          "internalType": "uint256",
          "name": "",
          "type": "uint256"
        }
      ],
      "stateMutability": "view",
      "type": "function"
    },
    {
      "inputs": [
        {
          "internalType": "string",
          "name": "_name",
          "type": "string"
        },
        {
          "internalType": "uint256",
          "name": "_stakeAmount",
          "type": "uint256"
        },
        {
          "internalType": "bool",
          "name": "_isPublic",
          "type": "bool"
        },
        {
          "internalType": "address",
          "name": "athletesDataStorageAddress",
          "type": "address"
        },
        {
          "internalType": "address",
          "name": "_admin",
          "type": "address"
        },
        {
          "internalType": "address",
          "name": "_polygonUSDCAddress",
          "type": "address"
        },
        {
          "internalType": "address",
          "name": "_rinkebyUSDCAddress",
          "type": "address"
        },
        {
          "internalType": "address",
          "name": "_testUSDCAddress",
          "type": "address"
        },
        {
          "internalType": "address",
          "name": "leagueMakerContractAddress",
          "type": "address"
        },
        {
          "internalType": "address",
          "name": "gameItemsContractAddress",
          "type": "address"
        }
      ],
      "name": "initialize",
      "outputs": [],
      "stateMutability": "nonpayable",
      "type": "function"
    },
    {
      "inputs": [],
      "name": "isPublic",
      "outputs": [
        {
          "internalType": "bool",
          "name": "",
          "type": "bool"
        }
      ],
      "stateMutability": "view",
      "type": "function"
    },
    {
      "inputs": [],
      "name": "joinLeague",
      "outputs": [],
      "stateMutability": "nonpayable",
      "type": "function"
    },
    {
      "inputs": [
        {
          "internalType": "uint256",
          "name": "",
          "type": "uint256"
        }
      ],
      "name": "leagueMembers",
      "outputs": [
        {
          "internalType": "address",
          "name": "",
          "type": "address"
        }
      ],
      "stateMutability": "view",
      "type": "function"
    },
    {
      "inputs": [],
      "name": "leagueName",
      "outputs": [
        {
          "internalType": "string",
          "name": "",
          "type": "string"
        }
      ],
      "stateMutability": "view",
      "type": "function"
    },
    {
      "inputs": [],
      "name": "lockLineup",
      "outputs": [],
      "stateMutability": "nonpayable",
      "type": "function"
    },
    {
      "inputs": [],
      "name": "numWeeks",
      "outputs": [
        {
          "internalType": "uint256",
          "name": "",
          "type": "uint256"
        }
      ],
      "stateMutability": "view",
      "type": "function"
    },
    {
      "inputs": [],
      "name": "onLeagueEnd",
      "outputs": [],
      "stateMutability": "nonpayable",
      "type": "function"
    },
    {
      "inputs": [],
      "name": "owner",
      "outputs": [
        {
          "internalType": "address",
          "name": "",
          "type": "address"
        }
      ],
      "stateMutability": "view",
      "type": "function"
    },
    {
      "inputs": [],
      "name": "polygonUSDCAddress",
      "outputs": [
        {
          "internalType": "address",
          "name": "",
          "type": "address"
        }
      ],
      "stateMutability": "view",
      "type": "function"
    },
    {
      "inputs": [
        {
          "internalType": "address",
          "name": "addr",
          "type": "address"
        }
      ],
      "name": "removeAddressFromWhitelist",
      "outputs": [
        {
          "internalType": "bool",
          "name": "success",
          "type": "bool"
        }
      ],
      "stateMutability": "nonpayable",
      "type": "function"
    },
    {
      "inputs": [
        {
          "internalType": "address[]",
          "name": "addrs",
          "type": "address[]"
        }
      ],
      "name": "removeAddressesFromWhitelist",
      "outputs": [
        {
          "internalType": "bool",
          "name": "success",
          "type": "bool"
        }
      ],
      "stateMutability": "nonpayable",
      "type": "function"
    },
    {
      "inputs": [
        {
          "internalType": "address",
          "name": "_userToRemove",
          "type": "address"
        }
      ],
      "name": "removeFromWhitelist",
      "outputs": [],
      "stateMutability": "nonpayable",
      "type": "function"
    },
    {
      "inputs": [],
      "name": "renounceOwnership",
      "outputs": [],
      "stateMutability": "nonpayable",
      "type": "function"
    },
    {
      "inputs": [],
      "name": "rinkebyUSDCAddress",
      "outputs": [
        {
          "internalType": "address",
          "name": "",
          "type": "address"
        }
      ],
      "stateMutability": "view",
      "type": "function"
    },
    {
      "inputs": [],
      "name": "setLeagueEntryIsClosed",
      "outputs": [],
      "stateMutability": "nonpayable",
      "type": "function"
    },
    {
      "inputs": [],
      "name": "setLeagueSchedule",
      "outputs": [],
      "stateMutability": "nonpayable",
      "type": "function"
    },
    {
      "inputs": [
        {
          "internalType": "uint256[]",
          "name": "athleteIds",
          "type": "uint256[]"
        }
      ],
      "name": "setLineup",
      "outputs": [],
      "stateMutability": "nonpayable",
      "type": "function"
    },
    {
      "inputs": [],
      "name": "stakeAmount",
      "outputs": [
        {
          "internalType": "uint256",
          "name": "",
          "type": "uint256"
        }
      ],
      "stateMutability": "view",
      "type": "function"
    },
    {
      "inputs": [
        {
          "internalType": "address",
          "name": "newOwner",
          "type": "address"
        }
      ],
      "name": "transferOwnership",
      "outputs": [],
      "stateMutability": "nonpayable",
      "type": "function"
    },
    {
      "inputs": [],
      "name": "unlockLineup",
      "outputs": [],
      "stateMutability": "nonpayable",
      "type": "function"
    },
    {
      "inputs": [
        {
          "internalType": "address",
          "name": "",
          "type": "address"
        },
        {
          "internalType": "uint256",
          "name": "",
          "type": "uint256"
        }
      ],
      "name": "userToRecord",
      "outputs": [
        {
          "internalType": "uint256",
          "name": "",
          "type": "uint256"
        }
      ],
      "stateMutability": "view",
      "type": "function"
    },
    {
      "inputs": [
        {
          "internalType": "address",
          "name": "",
          "type": "address"
        }
      ],
      "name": "whitelist",
      "outputs": [
        {
          "internalType": "bool",
          "name": "",
          "type": "bool"
        }
      ],
      "stateMutability": "view",
      "type": "function"
    }
  ],
  "bytecode": "0x60806040523480156200001157600080fd5b5062000032620000266200004060201b60201c565b6200004860201b60201c565b60016004819055506200010d565b600033905090565b60008060029054906101000a900473ffffffffffffffffffffffffffffffffffffffff16905081600060026101000a81548173ffffffffffffffffffffffffffffffffffffffff021916908373ffffffffffffffffffffffffffffffffffffffff1602179055508173ffffffffffffffffffffffffffffffffffffffff168173ffffffffffffffffffffffffffffffffffffffff167f8be0079c531659141344cd1fd0a4f28419497f9722a3daafe3b4186f6b6457e060405160405180910390a35050565b615395806200011d6000396000f3fe60806040523480156200001157600080fd5b50600436106200025b5760003560e01c80637b9417c8116200014d578063ada3a28d11620000c9578063e2ec6ec31162000087578063e2ec6ec3146200068c578063e4c9066b14620006c2578063f2fde38b14620006ce578063f612121a14620006ee578063f8816045146200070e576200025b565b8063ada3a28d146200060e578063c8be3b5b1462000630578063c99fea94146200063c578063cdbba4c61462000648578063dc9a1535146200066a576200025b565b80638da5cb5b11620001175780638da5cb5b146200056857806393f3706c146200058a5780639b19251a14620005ac5780639f2d548114620005e2578063a2bc091a1462000602576200025b565b80637b9417c814620004ce5780637eed33f11462000504578063841abf6e14620005265780638ab1d6811462000548576200025b565b806344eaa84e11620001dd5780636bdc44df11620001a75780636bdc44df146200043c5780636e9960c3146200045e578063715018a61462000480578063722580b6146200048c578063747b805014620004ae576200025b565b806344eaa84e14620003b4578063595b1a3e14620003d65780635fcc698714620003f857806360c7dc47146200041a576200025b565b806324953eaa116200022b57806324953eaa14620002d0578063267175db1462000306578063286dd3f5146200033c5780633c3ae13f1462000372578063403570c51462000392576200025b565b8062b2476f14620002605780630655465a14620002825780630c6f7959146200028e5780631d803e0014620002c4575b600080fd5b6200026a62000730565b60405162000279919062003756565b60405180910390f35b6200028c62000756565b005b620002ac6004803603810190620002a691906200305e565b6200080e565b604051620002bb919062003afd565b60405180910390f35b620002ce62000837565b005b620002ee6004803603810190620002e89190620030a5565b62000b68565b604051620002fd91906200381f565b60405180910390f35b6200032460048036038101906200031e919062003293565b62000c65565b60405162000333919062003756565b60405180910390f35b6200035a60048036038101906200035491906200302c565b62000ca5565b6040516200036991906200381f565b60405180910390f35b6200039060048036038101906200038a919062003179565b62000e34565b005b6200039c620012cd565b604051620003ab9190620038fd565b60405180910390f35b620003be62001367565b604051620003cd919062003afd565b60405180910390f35b620003e062001371565b604051620003ef919062003afd565b60405180910390f35b620004026200137e565b60405162000411919062003afd565b60405180910390f35b620004246200148d565b60405162000433919062003afd565b60405180910390f35b6200044662001493565b60405162000455919062003afd565b60405180910390f35b62000468620014da565b60405162000477919062003756565b60405180910390f35b6200048a62001504565b005b6200049662001595565b604051620004a5919062003afd565b60405180910390f35b620004cc6004803603810190620004c691906200302c565b6200159f565b005b620004ec6004803603810190620004e691906200302c565b620016e9565b604051620004fb91906200381f565b60405180910390f35b6200050e62001876565b6040516200051d919062003afd565b60405180910390f35b620005306200187c565b6040516200053f9190620038fd565b60405180910390f35b6200056660048036038101906200056091906200302c565b62001912565b005b6200057262001aaf565b60405162000581919062003756565b60405180910390f35b6200059462001ad8565b604051620005a3919062003756565b60405180910390f35b620005ca6004803603810190620005c491906200302c565b62001afe565b604051620005d991906200381f565b60405180910390f35b620006006004803603810190620005fa919062003293565b62001b1e565b005b6200060c62001c3f565b005b6200061862001cdf565b604051620006279190620037fb565b60405180910390f35b6200063a62001d76565b005b6200064662001e16565b005b62000652620022a4565b60405162000661919062003756565b60405180910390f35b62000674620022ce565b6040516200068391906200381f565b60405180910390f35b620006aa6004803603810190620006a49190620030a5565b620022e1565b604051620006b991906200381f565b60405180910390f35b620006cc620023de565b005b620006ec6004803603810190620006e691906200302c565b6200247e565b005b6200070c6004803603810190620007069190620030f6565b62002582565b005b6200071862002a76565b604051620007279190620037dd565b60405180910390f35b601260009054906101000a900473ffffffffffffffffffffffffffffffffffffffff1681565b620007966040518060400160405280601081526020017f73657474696e67207363686564756c650000000000000000000000000000000081525062002b02565b73__$36fdb4e0c2cb91f3ceca5ea81b025328f3$__63d2c232b56010600f60065460056040518563ffffffff1660e01b8152600401620007da94939291906200383c565b60006040518083038186803b158015620007f357600080fd5b505af415801562000808573d6000803e3d6000fd5b50505050565b600b60205281600052604060002081600881106200082b57600080fd5b01600091509150505481565b6200084162002b9f565b73ffffffffffffffffffffffffffffffffffffffff166200086162001aaf565b73ffffffffffffffffffffffffffffffffffffffff1614620008ba576040517f08c379a0000000000000000000000000000000000000000000000000000000008152600401620008b19062003a0f565b60405180910390fd5b6002600454141562000903576040517f08c379a0000000000000000000000000000000000000000000000000000000008152600401620008fa9062003ab9565b60405180910390fd5b60026004819055506000600f8054905060075462000922919062003ca6565b90506000600f6000815481106200093e576200093d62003f45565b5b9060005260206000200160009054906101000a900473ffffffffffffffffffffffffffffffffffffffff1690506000600190505b600f8054905081101562000aa357600a60008373ffffffffffffffffffffffffffffffffffffffff1673ffffffffffffffffffffffffffffffffffffffff16815260200190815260200160002054600a6000600f8481548110620009db57620009da62003f45565b5b9060005260206000200160009054906101000a900473ffffffffffffffffffffffffffffffffffffffff1673ffffffffffffffffffffffffffffffffffffffff1673ffffffffffffffffffffffffffffffffffffffff16815260200190815260200160002054111562000a8d57600f818154811062000a5f5762000a5e62003f45565b5b9060005260206000200160009054906101000a900473ffffffffffffffffffffffffffffffffffffffff1691505b808062000a9a9062003e99565b91505062000972565b50601660009054906101000a900473ffffffffffffffffffffffffffffffffffffffff1673ffffffffffffffffffffffffffffffffffffffff166323b872dd3083856040518463ffffffff1660e01b815260040162000b059392919062003773565b602060405180830381600087803b15801562000b2057600080fd5b505af115801562000b35573d6000803e3d6000fd5b505050506040513d601f19601f8201168201806040525081019062000b5b919062003147565b5050506001600481905550565b600062000b7462002b9f565b73ffffffffffffffffffffffffffffffffffffffff1662000b9462001aaf565b73ffffffffffffffffffffffffffffffffffffffff161462000bed576040517f08c379a000000000000000000000000000000000000000000000000000000000815260040162000be49062003a0f565b60405180910390fd5b60005b825181101562000c5f5762000c2283828151811062000c145762000c1362003f45565b5b602002602001015162000ca5565b1562000c495760016002600082825462000c3d919062003d07565b92505081905550600191505b808062000c569062003e99565b91505062000bf0565b50919050565b600f818154811062000c7657600080fd5b906000526020600020016000915054906101000a900473ffffffffffffffffffffffffffffffffffffffff1681565b600062000cb162002b9f565b73ffffffffffffffffffffffffffffffffffffffff1662000cd162001aaf565b73ffffffffffffffffffffffffffffffffffffffff161462000d2a576040517f08c379a000000000000000000000000000000000000000000000000000000000815260040162000d219062003a0f565b60405180910390fd5b600160008373ffffffffffffffffffffffffffffffffffffffff1673ffffffffffffffffffffffffffffffffffffffff16815260200190815260200160002060009054906101000a900460ff161562000e2f576000600160008473ffffffffffffffffffffffffffffffffffffffff1673ffffffffffffffffffffffffffffffffffffffff16815260200190815260200160002060006101000a81548160ff0219169083151502179055507ff1abf01a1043b7c244d128e8595cf0c1d10743b022b03a02dffd8ca3bf729f5a8260405162000e06919062003756565b60405180910390a160016002600082825462000e23919062003d07565b92505081905550600190505b919050565b600060019054906101000a900460ff1662000e5e5760008054906101000a900460ff161562000e69565b62000e6862002ba7565b5b62000eab576040517f08c379a000000000000000000000000000000000000000000000000000000000815260040162000ea290620039ed565b60405180910390fd5b60008060019054906101000a900460ff16159050801562000efc576001600060016101000a81548160ff02191690831515021790555060016000806101000a81548160ff0219169083151502179055505b8b8b6005919062000f0f92919062002ccb565b5060086006819055506001600d60008973ffffffffffffffffffffffffffffffffffffffff1673ffffffffffffffffffffffffffffffffffffffff16815260200190815260200160002060006101000a81548160ff021916908315150217905550600f879080600181540180825580915050600190039060005260206000200160009091909190916101000a81548173ffffffffffffffffffffffffffffffffffffffff021916908373ffffffffffffffffffffffffffffffffffffffff16021790555086600860006101000a81548173ffffffffffffffffffffffffffffffffffffffff021916908373ffffffffffffffffffffffffffffffffffffffff1602179055508960078190555088600360006101000a81548160ff0219169083151502179055506000600960156101000a81548160ff0219169083151502179055506000600960146101000a81548160ff02191690831515021790555087601360006101000a81548173ffffffffffffffffffffffffffffffffffffffff021916908373ffffffffffffffffffffffffffffffffffffffff16021790555082601560006101000a81548173ffffffffffffffffffffffffffffffffffffffff021916908373ffffffffffffffffffffffffffffffffffffffff160217905550604051620010fb9062002d5c565b604051809103906000f08015801562001118573d6000803e3d6000fd5b50601460006101000a81548173ffffffffffffffffffffffffffffffffffffffff021916908373ffffffffffffffffffffffffffffffffffffffff16021790555085601160006101000a81548173ffffffffffffffffffffffffffffffffffffffff021916908373ffffffffffffffffffffffffffffffffffffffff16021790555084601260006101000a81548173ffffffffffffffffffffffffffffffffffffffff021916908373ffffffffffffffffffffffffffffffffffffffff16021790555083601660006101000a81548173ffffffffffffffffffffffffffffffffffffffff021916908373ffffffffffffffffffffffffffffffffffffffff16021790555081601760006101000a81548173ffffffffffffffffffffffffffffffffffffffff021916908373ffffffffffffffffffffffffffffffffffffffff1602179055506200129d6040518060400160405280601281526020017f50726f787920696e697469616c697a656421000000000000000000000000000081525062002b02565b8015620012bf5760008060016101000a81548160ff0219169083151502179055505b505050505050505050505050565b606060058054620012de9062003e2d565b80601f01602080910402602001604051908101604052809291908181526020018280546200130c9062003e2d565b80156200135d5780601f1062001331576101008083540402835291602001916200135d565b820191906000526020600020905b8154815290600101906020018083116200133f57829003601f168201915b5050505050905090565b6000600254905090565b6000600f80549050905090565b6000600d60003373ffffffffffffffffffffffffffffffffffffffff1673ffffffffffffffffffffffffffffffffffffffff16815260200190815260200160002060009054906101000a900460ff16620013d757600080fd5b601660009054906101000a900473ffffffffffffffffffffffffffffffffffffffff1673ffffffffffffffffffffffffffffffffffffffff166370a08231336040518263ffffffff1660e01b815260040162001434919062003756565b60206040518083038186803b1580156200144d57600080fd5b505afa15801562001462573d6000803e3d6000fd5b505050506040513d601f19601f82011682018060405250810190620014889190620032c5565b905090565b60075481565b6000600a60003373ffffffffffffffffffffffffffffffffffffffff1673ffffffffffffffffffffffffffffffffffffffff16815260200190815260200160002054905090565b6000600860009054906101000a900473ffffffffffffffffffffffffffffffffffffffff16905090565b6200150e62002b9f565b73ffffffffffffffffffffffffffffffffffffffff166200152e62001aaf565b73ffffffffffffffffffffffffffffffffffffffff161462001587576040517f08c379a00000000000000000000000000000000000000000000000000000000081526004016200157e9062003a0f565b60405180910390fd5b62001593600062002bba565b565b6000600754905090565b600860009054906101000a900473ffffffffffffffffffffffffffffffffffffffff1673ffffffffffffffffffffffffffffffffffffffff163373ffffffffffffffffffffffffffffffffffffffff161462001632576040517f08c379a0000000000000000000000000000000000000000000000000000000008152600401620016299062003a53565b60405180910390fd5b601460009054906101000a900473ffffffffffffffffffffffffffffffffffffffff1673ffffffffffffffffffffffffffffffffffffffff16637b9417c8826040518263ffffffff1660e01b81526004016200168f919062003756565b602060405180830381600087803b158015620016aa57600080fd5b505af1158015620016bf573d6000803e3d6000fd5b505050506040513d601f19601f82011682018060405250810190620016e5919062003147565b5050565b6000620016f562002b9f565b73ffffffffffffffffffffffffffffffffffffffff166200171562001aaf565b73ffffffffffffffffffffffffffffffffffffffff16146200176e576040517f08c379a0000000000000000000000000000000000000000000000000000000008152600401620017659062003a0f565b60405180910390fd5b600160008373ffffffffffffffffffffffffffffffffffffffff1673ffffffffffffffffffffffffffffffffffffffff16815260200190815260200160002060009054906101000a900460ff16620018715760018060008473ffffffffffffffffffffffffffffffffffffffff1673ffffffffffffffffffffffffffffffffffffffff16815260200190815260200160002060006101000a81548160ff0219169083151502179055507fd1bba68c128cc3f427e5831b3c6f99f480b6efa6b9e80c757768f6124158cc3f8260405162001848919062003756565b60405180910390a160016002600082825462001865919062003c49565b92505081905550600190505b919050565b60065481565b600580546200188b9062003e2d565b80601f0160208091040260200160405190810160405280929190818152602001828054620018b99062003e2d565b80156200190a5780601f10620018de576101008083540402835291602001916200190a565b820191906000526020600020905b815481529060010190602001808311620018ec57829003601f168201915b505050505081565b600860009054906101000a900473ffffffffffffffffffffffffffffffffffffffff1673ffffffffffffffffffffffffffffffffffffffff163373ffffffffffffffffffffffffffffffffffffffff1614620019a5576040517f08c379a00000000000000000000000000000000000000000000000000000000081526004016200199c9062003a53565b60405180910390fd5b600960149054906101000a900460ff1615620019f8576040517f08c379a0000000000000000000000000000000000000000000000000000000008152600401620019ef9062003a75565b60405180910390fd5b601460009054906101000a900473ffffffffffffffffffffffffffffffffffffffff1673ffffffffffffffffffffffffffffffffffffffff1663286dd3f5826040518263ffffffff1660e01b815260040162001a55919062003756565b602060405180830381600087803b15801562001a7057600080fd5b505af115801562001a85573d6000803e3d6000fd5b505050506040513d601f19601f8201168201806040525081019062001aab919062003147565b5050565b60008060029054906101000a900473ffffffffffffffffffffffffffffffffffffffff16905090565b601160009054906101000a900473ffffffffffffffffffffffffffffffffffffffff1681565b60016020528060005260406000206000915054906101000a900460ff1681565b62001b2862002b9f565b73ffffffffffffffffffffffffffffffffffffffff1662001b4862001aaf565b73ffffffffffffffffffffffffffffffffffffffff161462001ba1576040517f08c379a000000000000000000000000000000000000000000000000000000000815260040162001b989062003a0f565b60405180910390fd5b73__$36fdb4e0c2cb91f3ceca5ea81b025328f3$__63c406e268601083601360009054906101000a900473ffffffffffffffffffffffffffffffffffffffff16600b600a600c6040518763ffffffff1660e01b815260040162001c0a9695949392919062003890565b60006040518083038186803b15801562001c2357600080fd5b505af415801562001c38573d6000803e3d6000fd5b5050505050565b62001c4962002b9f565b73ffffffffffffffffffffffffffffffffffffffff1662001c6962001aaf565b73ffffffffffffffffffffffffffffffffffffffff161462001cc2576040517f08c379a000000000000000000000000000000000000000000000000000000000815260040162001cb99062003a0f565b60405180910390fd5b6000600960156101000a81548160ff021916908315150217905550565b6060600c60003373ffffffffffffffffffffffffffffffffffffffff1673ffffffffffffffffffffffffffffffffffffffff16815260200190815260200160002080548060200260200160405190810160405280929190818152602001828054801562001d6c57602002820191906000526020600020905b81548152602001906001019080831162001d57575b5050505050905090565b62001d8062002b9f565b73ffffffffffffffffffffffffffffffffffffffff1662001da062001aaf565b73ffffffffffffffffffffffffffffffffffffffff161462001df9576040517f08c379a000000000000000000000000000000000000000000000000000000000815260040162001df09062003a0f565b60405180910390fd5b6001600960156101000a81548160ff021916908315150217905550565b600160003373ffffffffffffffffffffffffffffffffffffffff1673ffffffffffffffffffffffffffffffffffffffff16815260200190815260200160002060009054906101000a900460ff168062001e7b5750600360009054906101000a900460ff165b62001ebd576040517f08c379a000000000000000000000000000000000000000000000000000000000815260040162001eb49062003987565b60405180910390fd5b6002600454141562001f06576040517f08c379a000000000000000000000000000000000000000000000000000000000815260040162001efd9062003ab9565b60405180910390fd5b6002600481905550600960149054906101000a900460ff161562001f61576040517f08c379a000000000000000000000000000000000000000000000000000000000815260040162001f589062003adb565b60405180910390fd5b600d60003373ffffffffffffffffffffffffffffffffffffffff1673ffffffffffffffffffffffffffffffffffffffff16815260200190815260200160002060009054906101000a900460ff161562001ff1576040517f08c379a000000000000000000000000000000000000000000000000000000000815260040162001fe89062003965565b60405180910390fd5b600754601660009054906101000a900473ffffffffffffffffffffffffffffffffffffffff1673ffffffffffffffffffffffffffffffffffffffff166370a08231336040518263ffffffff1660e01b815260040162002051919062003756565b60206040518083038186803b1580156200206a57600080fd5b505afa1580156200207f573d6000803e3d6000fd5b505050506040513d601f19601f82011682018060405250810190620020a59190620032c5565b11620020e8576040517f08c379a0000000000000000000000000000000000000000000000000000000008152600401620020df9062003943565b60405180910390fd5b6001600d60003373ffffffffffffffffffffffffffffffffffffffff1673ffffffffffffffffffffffffffffffffffffffff16815260200190815260200160002060006101000a81548160ff021916908315150217905550600f339080600181540180825580915050600190039060005260206000200160009091909190916101000a81548173ffffffffffffffffffffffffffffffffffffffff021916908373ffffffffffffffffffffffffffffffffffffffff160217905550601660009054906101000a900473ffffffffffffffffffffffffffffffffffffffff1673ffffffffffffffffffffffffffffffffffffffff166323b872dd33306007546040518463ffffffff1660e01b8152600401620022069392919062003773565b602060405180830381600087803b1580156200222157600080fd5b505af115801562002236573d6000803e3d6000fd5b505050506040513d601f19601f820116820180604052508101906200225c919062003147565b507f9e71bc8eea02a63969f509818f2dafb9254532904319f9dbda79b67bd34a5f3d3360075460405162002292929190620037b0565b60405180910390a16001600481905550565b6000601660009054906101000a900473ffffffffffffffffffffffffffffffffffffffff16905090565b600360009054906101000a900460ff1681565b6000620022ed62002b9f565b73ffffffffffffffffffffffffffffffffffffffff166200230d62001aaf565b73ffffffffffffffffffffffffffffffffffffffff161462002366576040517f08c379a00000000000000000000000000000000000000000000000000000000081526004016200235d9062003a0f565b60405180910390fd5b60005b8251811015620023d8576200239b8382815181106200238d576200238c62003f45565b5b6020026020010151620016e9565b15620023c257600160026000828254620023b6919062003c49565b92505081905550600191505b8080620023cf9062003e99565b91505062002369565b50919050565b620023e862002b9f565b73ffffffffffffffffffffffffffffffffffffffff166200240862001aaf565b73ffffffffffffffffffffffffffffffffffffffff161462002461576040517f08c379a0000000000000000000000000000000000000000000000000000000008152600401620024589062003a0f565b60405180910390fd5b6001600960146101000a81548160ff021916908315150217905550565b6200248862002b9f565b73ffffffffffffffffffffffffffffffffffffffff16620024a862001aaf565b73ffffffffffffffffffffffffffffffffffffffff161462002501576040517f08c379a0000000000000000000000000000000000000000000000000000000008152600401620024f89062003a0f565b60405180910390fd5b600073ffffffffffffffffffffffffffffffffffffffff168173ffffffffffffffffffffffffffffffffffffffff16141562002574576040517f08c379a00000000000000000000000000000000000000000000000000000000081526004016200256b9062003921565b60405180910390fd5b6200257f8162002bba565b50565b600960159054906101000a900460ff1615620025d5576040517f08c379a0000000000000000000000000000000000000000000000000000000008152600401620025cc90620039cb565b60405180910390fd5b600d60003373ffffffffffffffffffffffffffffffffffffffff1673ffffffffffffffffffffffffffffffffffffffff16815260200190815260200160002060009054906101000a900460ff1662002664576040517f08c379a00000000000000000000000000000000000000000000000000000000081526004016200265b9062003a31565b60405180910390fd5b6000601560009054906101000a900473ffffffffffffffffffffffffffffffffffffffff1673ffffffffffffffffffffffffffffffffffffffff166306575c896040518163ffffffff1660e01b815260040160206040518083038186803b158015620026cf57600080fd5b505afa158015620026e4573d6000803e3d6000fd5b505050506040513d601f19601f820116820180604052508101906200270a9190620032c5565b905060005b600c60003373ffffffffffffffffffffffffffffffffffffffff1673ffffffffffffffffffffffffffffffffffffffff168152602001908152602001600020805490508110156200280f57600e6000600c60003373ffffffffffffffffffffffffffffffffffffffff1673ffffffffffffffffffffffffffffffffffffffff1681526020019081526020016000208381548110620027b257620027b162003f45565b5b906000526020600020015481526020019081526020016000208260088110620027e057620027df62003f45565b5b016000815480929190620027f49062003dfe565b91905055508080620028069062003e99565b9150506200270f565b5060005b82518110156200298857600e6000828152602001908152602001600020826008811062002845576200284462003f45565b5b016000815480929190620028599062003e99565b91905055506000601760009054906101000a900473ffffffffffffffffffffffffffffffffffffffff1673ffffffffffffffffffffffffffffffffffffffff1662fdd58e33868581518110620028b457620028b362003f45565b5b60200260200101516040518363ffffffff1660e01b8152600401620028db929190620037b0565b60206040518083038186803b158015620028f457600080fd5b505afa15801562002909573d6000803e3d6000fd5b505050506040513d601f19601f820116820180604052508101906200292f9190620032c5565b1162002972576040517f08c379a0000000000000000000000000000000000000000000000000000000008152600401620029699062003a97565b60405180910390fd5b80806200297f9062003e99565b91505062002813565b5060005b825181101562002a1b576001600e60008381526020019081526020016000208360088110620029c057620029bf62003f45565b5b01541462002a05576040517f08c379a0000000000000000000000000000000000000000000000000000000008152600401620029fc90620039a9565b60405180910390fd5b808062002a129062003e99565b9150506200298c565b5081600c60003373ffffffffffffffffffffffffffffffffffffffff1673ffffffffffffffffffffffffffffffffffffffff168152602001908152602001600020908051906020019062002a7192919062002d6a565b505050565b62002a8062002dbc565b600b60003373ffffffffffffffffffffffffffffffffffffffff1673ffffffffffffffffffffffffffffffffffffffff16815260200190815260200160002060088060200260405190810160405280929190826008801562002af8576020028201915b81548152602001906001019080831162002ae3575b5050505050905090565b62002b9c8160405160240162002b199190620038fd565b6040516020818303038152906040527f41304fac000000000000000000000000000000000000000000000000000000007bffffffffffffffffffffffffffffffffffffffffffffffffffffffff19166020820180517bffffffffffffffffffffffffffffffffffffffffffffffffffffffff838183161783525050505062002c7f565b50565b600033905090565b600062002bb43062002ca8565b15905090565b60008060029054906101000a900473ffffffffffffffffffffffffffffffffffffffff16905081600060026101000a81548173ffffffffffffffffffffffffffffffffffffffff021916908373ffffffffffffffffffffffffffffffffffffffff1602179055508173ffffffffffffffffffffffffffffffffffffffff168173ffffffffffffffffffffffffffffffffffffffff167f8be0079c531659141344cd1fd0a4f28419497f9722a3daafe3b4186f6b6457e060405160405180910390a35050565b60008151905060006a636f6e736f6c652e6c6f679050602083016000808483855afa5050505050565b6000808273ffffffffffffffffffffffffffffffffffffffff163b119050919050565b82805462002cd99062003e2d565b90600052602060002090601f01602090048101928262002cfd576000855562002d49565b82601f1062002d1857803560ff191683800117855562002d49565b8280016001018555821562002d49579182015b8281111562002d4857823582559160200191906001019062002d2b565b5b50905062002d58919062002ddf565b5090565b610ffc806200436483390190565b82805482825590600052602060002090810192821562002da9579160200282015b8281111562002da857825182559160200191906001019062002d8b565b5b50905062002db8919062002ddf565b5090565b604051806101000160405280600890602082028036833780820191505090505090565b5b8082111562002dfa57600081600090555060010162002de0565b5090565b600062002e1562002e0f8462003b43565b62003b1a565b9050808382526020820190508285602086028201111562002e3b5762002e3a62003fad565b5b60005b8581101562002e6f578162002e54888262002ef4565b84526020840193506020830192505060018101905062002e3e565b5050509392505050565b600062002e9062002e8a8462003b72565b62003b1a565b9050808382526020820190508285602086028201111562002eb65762002eb562003fad565b5b60005b8581101562002eea578162002ecf888262002ffe565b84526020840193506020830192505060018101905062002eb9565b5050509392505050565b60008135905062002f058162004315565b92915050565b600082601f83011262002f235762002f2262003fa8565b5b813562002f3584826020860162002dfe565b91505092915050565b600082601f83011262002f565762002f5562003fa8565b5b813562002f6884826020860162002e79565b91505092915050565b60008135905062002f82816200432f565b92915050565b60008151905062002f99816200432f565b92915050565b60008083601f84011262002fb85762002fb762003fa8565b5b8235905067ffffffffffffffff81111562002fd85762002fd762003fa3565b5b60208301915083600182028301111562002ff75762002ff662003fad565b5b9250929050565b6000813590506200300f8162004349565b92915050565b600081519050620030268162004349565b92915050565b60006020828403121562003045576200304462003fb7565b5b6000620030558482850162002ef4565b91505092915050565b6000806040838503121562003078576200307762003fb7565b5b6000620030888582860162002ef4565b92505060206200309b8582860162002ffe565b9150509250929050565b600060208284031215620030be57620030bd62003fb7565b5b600082013567ffffffffffffffff811115620030df57620030de62003fb2565b5b620030ed8482850162002f0b565b91505092915050565b6000602082840312156200310f576200310e62003fb7565b5b600082013567ffffffffffffffff81111562003130576200312f62003fb2565b5b6200313e8482850162002f3e565b91505092915050565b60006020828403121562003160576200315f62003fb7565b5b6000620031708482850162002f88565b91505092915050565b60008060008060008060008060008060006101408c8e031215620031a257620031a162003fb7565b5b60008c013567ffffffffffffffff811115620031c357620031c262003fb2565b5b620031d18e828f0162002f9f565b9b509b50506020620031e68e828f0162002ffe565b9950506040620031f98e828f0162002f71565b98505060606200320c8e828f0162002ef4565b97505060806200321f8e828f0162002ef4565b96505060a0620032328e828f0162002ef4565b95505060c0620032458e828f0162002ef4565b94505060e0620032588e828f0162002ef4565b9350506101006200326c8e828f0162002ef4565b925050610120620032808e828f0162002ef4565b9150509295989b509295989b9093969950565b600060208284031215620032ac57620032ab62003fb7565b5b6000620032bc8482850162002ffe565b91505092915050565b600060208284031215620032de57620032dd62003fb7565b5b6000620032ee8482850162003015565b91505092915050565b600062003305838362003723565b60208301905092915050565b6200331c8162003d42565b82525050565b8082525050565b620033348162003bd0565b62003340818462003c0b565b92506200334d8262003ba1565b8060005b8381101562003384578151620033688782620032f7565b9650620033758362003bf1565b92505060018101905062003351565b505050505050565b6000620033998262003bdb565b620033a5818562003c16565b9350620033b28362003bab565b8060005b83811015620033e9578151620033cd8882620032f7565b9750620033da8362003bfe565b925050600181019050620033b6565b5085935050505092915050565b620034018162003d56565b82525050565b620034128162003d8c565b82525050565b8082525050565b8082525050565b8082525050565b8082525050565b6000620034418262003be6565b6200344d818562003c27565b93506200345f81856020860162003dc8565b6200346a8162003fbc565b840191505092915050565b60008154620034848162003e2d565b62003490818662003c38565b94506001821660008114620034ae5760018114620034c157620034f8565b60ff1983168652602086019350620034f8565b620034cc8562003bbb565b60005b83811015620034f057815481890152600182019150602081019050620034cf565b808801955050505b50505092915050565b60006200351060268362003c27565b91506200351d8262003fcd565b604082019050919050565b600062003537601d8362003c27565b915062003544826200401c565b602082019050919050565b60006200355e60238362003c27565b91506200356b8262004045565b604082019050919050565b600062003585601a8362003c27565b9150620035928262004094565b602082019050919050565b6000620035ac60258362003c27565b9150620035b982620040bd565b604082019050919050565b6000620035d3601e8362003c27565b9150620035e0826200410c565b602082019050919050565b6000620035fa602e8362003c27565b9150620036078262004135565b604082019050919050565b60006200362160208362003c27565b91506200362e8262004184565b602082019050919050565b60006200364860158362003c27565b91506200365582620041ad565b602082019050919050565b60006200366f60178362003c27565b91506200367c82620041d6565b602082019050919050565b60006200369660418362003c27565b9150620036a382620041ff565b606082019050919050565b6000620036bd60248362003c27565b9150620036ca8262004274565b604082019050919050565b6000620036e4601f8362003c27565b9150620036f182620042c3565b602082019050919050565b60006200370b60178362003c27565b91506200371882620042ec565b602082019050919050565b6200372e8162003d82565b82525050565b6200373f8162003d82565b82525050565b620037508162003d82565b82525050565b60006020820190506200376d600083018462003311565b92915050565b60006060820190506200378a600083018662003311565b62003799602083018562003311565b620037a8604083018462003734565b949350505050565b6000604082019050620037c7600083018562003311565b620037d6602083018462003734565b9392505050565b600061010082019050620037f5600083018462003329565b92915050565b600060208201905081810360008301526200381781846200338c565b905092915050565b6000602082019050620038366000830184620033f6565b92915050565b60006080820190506200385360008301876200342d565b62003862602083018662003322565b62003871604083018562003745565b818103606083015262003885818462003475565b905095945050505050565b600060c082019050620038a760008301896200342d565b620038b6602083018862003745565b620038c5604083018762003407565b620038d4606083018662003418565b620038e3608083018562003426565b620038f260a08301846200341f565b979650505050505050565b6000602082019050818103600083015262003919818462003434565b905092915050565b600060208201905081810360008301526200393c8162003501565b9050919050565b600060208201905081810360008301526200395e8162003528565b9050919050565b6000602082019050818103600083015262003980816200354f565b9050919050565b60006020820190508181036000830152620039a28162003576565b9050919050565b60006020820190508181036000830152620039c4816200359d565b9050919050565b60006020820190508181036000830152620039e681620035c4565b9050919050565b6000602082019050818103600083015262003a0881620035eb565b9050919050565b6000602082019050818103600083015262003a2a8162003612565b9050919050565b6000602082019050818103600083015262003a4c8162003639565b9050919050565b6000602082019050818103600083015262003a6e8162003660565b9050919050565b6000602082019050818103600083015262003a908162003687565b9050919050565b6000602082019050818103600083015262003ab281620036ae565b9050919050565b6000602082019050818103600083015262003ad481620036d5565b9050919050565b6000602082019050818103600083015262003af681620036fc565b9050919050565b600060208201905062003b14600083018462003734565b92915050565b600062003b2662003b39565b905062003b34828262003e63565b919050565b6000604051905090565b600067ffffffffffffffff82111562003b615762003b6062003f74565b5b602082029050602081019050919050565b600067ffffffffffffffff82111562003b905762003b8f62003f74565b5b602082029050602081019050919050565b6000819050919050565b6000819050602082019050919050565b60008190508160005260206000209050919050565b600060089050919050565b600081519050919050565b600081519050919050565b6000602082019050919050565b6000602082019050919050565b600081905092915050565b600082825260208201905092915050565b600082825260208201905092915050565b600082825260208201905092915050565b600062003c568262003d82565b915062003c638362003d82565b9250827fffffffffffffffffffffffffffffffffffffffffffffffffffffffffffffffff0382111562003c9b5762003c9a62003ee7565b5b828201905092915050565b600062003cb38262003d82565b915062003cc08362003d82565b9250817fffffffffffffffffffffffffffffffffffffffffffffffffffffffffffffffff048311821515161562003cfc5762003cfb62003ee7565b5b828202905092915050565b600062003d148262003d82565b915062003d218362003d82565b92508282101562003d375762003d3662003ee7565b5b828203905092915050565b600062003d4f8262003d62565b9050919050565b60008115159050919050565b600073ffffffffffffffffffffffffffffffffffffffff82169050919050565b6000819050919050565b600062003d998262003da0565b9050919050565b600062003dad8262003db4565b9050919050565b600062003dc18262003d62565b9050919050565b60005b8381101562003de857808201518184015260208101905062003dcb565b8381111562003df8576000848401525b50505050565b600062003e0b8262003d82565b9150600082141562003e225762003e2162003ee7565b5b600182039050919050565b6000600282049050600182168062003e4657607f821691505b6020821081141562003e5d5762003e5c62003f16565b5b50919050565b62003e6e8262003fbc565b810181811067ffffffffffffffff8211171562003e905762003e8f62003f74565b5b80604052505050565b600062003ea68262003d82565b91507fffffffffffffffffffffffffffffffffffffffffffffffffffffffffffffffff82141562003edc5762003edb62003ee7565b5b600182019050919050565b7f4e487b7100000000000000000000000000000000000000000000000000000000600052601160045260246000fd5b7f4e487b7100000000000000000000000000000000000000000000000000000000600052602260045260246000fd5b7f4e487b7100000000000000000000000000000000000000000000000000000000600052603260045260246000fd5b7f4e487b7100000000000000000000000000000000000000000000000000000000600052604160045260246000fd5b600080fd5b600080fd5b600080fd5b600080fd5b600080fd5b6000601f19601f8301169050919050565b7f4f776e61626c653a206e6577206f776e657220697320746865207a65726f206160008201527f6464726573730000000000000000000000000000000000000000000000000000602082015250565b7f496e737566666963656e742066756e647320666f72207374616b696e67000000600082015250565b7f596f75206861766520616c7265616479206a6f696e65642074686973206c656160008201527f6775650000000000000000000000000000000000000000000000000000000000602082015250565b7f55736572206973206e6f742077686974656c6973746564203a28000000000000600082015250565b7f4475706c6963617465206174686c65746549447320617265206e6f7420616c6c60008201527f6f7765642e000000000000000000000000000000000000000000000000000000602082015250565b7f6c696e657570206973206c6f636b656420666f7220746865207765656b210000600082015250565b7f496e697469616c697a61626c653a20636f6e747261637420697320616c72656160008201527f647920696e697469616c697a6564000000000000000000000000000000000000602082015250565b7f4f776e61626c653a2063616c6c6572206973206e6f7420746865206f776e6572600082015250565b7f75736572206973206e6f7420696e204c65616775650000000000000000000000600082015250565b7f43616c6c6572206973206e6f74207468652061646d696e000000000000000000600082015250565b7f4e6f626f64792063616e20656e7465722f6578697420746865206c656167756560008201527f20616e796d6f72652e2054686520736561736f6e20686173207374617274656460208201527f2100000000000000000000000000000000000000000000000000000000000000604082015250565b7f43616c6c657220646f6573206e6f74206f776e20676976656e206174686c657460008201527f6549647300000000000000000000000000000000000000000000000000000000602082015250565b7f5265656e7472616e637947756172643a207265656e7472616e742063616c6c00600082015250565b7f4c656167756520456e74727920697320436c6f73656421000000000000000000600082015250565b620043208162003d42565b81146200432c57600080fd5b50565b6200433a8162003d56565b81146200434657600080fd5b50565b620043548162003d82565b81146200436057600080fd5b5056fe608060405234801561001057600080fd5b5061002d61002261003260201b60201c565b61003a60201b60201c565b6100fe565b600033905090565b60008060009054906101000a900473ffffffffffffffffffffffffffffffffffffffff169050816000806101000a81548173ffffffffffffffffffffffffffffffffffffffff021916908373ffffffffffffffffffffffffffffffffffffffff1602179055508173ffffffffffffffffffffffffffffffffffffffff168173ffffffffffffffffffffffffffffffffffffffff167f8be0079c531659141344cd1fd0a4f28419497f9722a3daafe3b4186f6b6457e060405160405180910390a35050565b610eef8061010d6000396000f3fe608060405234801561001057600080fd5b506004361061009e5760003560e01c80638da5cb5b116100665780638da5cb5b1461015b5780639b19251a14610179578063dc9a1535146101a9578063e2ec6ec3146101c7578063f2fde38b146101f75761009e565b806324953eaa146100a3578063286dd3f5146100d357806344eaa84e14610103578063715018a6146101215780637b9417c81461012b575b600080fd5b6100bd60048036038101906100b89190610a7d565b610213565b6040516100ca9190610b54565b60405180910390f35b6100ed60048036038101906100e89190610a50565b6102fd565b6040516100fa9190610b54565b60405180910390f35b61010b610480565b6040516101189190610baf565b60405180910390f35b61012961048a565b005b61014560048036038101906101409190610a50565b610512565b6040516101529190610b54565b60405180910390f35b610163610693565b6040516101709190610b39565b60405180910390f35b610193600480360381019061018e9190610a50565b6106bc565b6040516101a09190610b54565b60405180910390f35b6101b16106dc565b6040516101be9190610b54565b60405180910390f35b6101e160048036038101906101dc9190610a7d565b6106ef565b6040516101ee9190610b54565b60405180910390f35b610211600480360381019061020c9190610a50565b6107d9565b005b600061021d6108d1565b73ffffffffffffffffffffffffffffffffffffffff1661023b610693565b73ffffffffffffffffffffffffffffffffffffffff1614610291576040517f08c379a000000000000000000000000000000000000000000000000000000000815260040161028890610b8f565b60405180910390fd5b60005b82518110156102f7576102c08382815181106102b3576102b2610da7565b5b60200260200101516102fd565b156102e4576001600260008282546102d89190610c82565b92505081905550600191505b80806102ef90610d2f565b915050610294565b50919050565b60006103076108d1565b73ffffffffffffffffffffffffffffffffffffffff16610325610693565b73ffffffffffffffffffffffffffffffffffffffff161461037b576040517f08c379a000000000000000000000000000000000000000000000000000000000815260040161037290610b8f565b60405180910390fd5b600160008373ffffffffffffffffffffffffffffffffffffffff1673ffffffffffffffffffffffffffffffffffffffff16815260200190815260200160002060009054906101000a900460ff161561047b576000600160008473ffffffffffffffffffffffffffffffffffffffff1673ffffffffffffffffffffffffffffffffffffffff16815260200190815260200160002060006101000a81548160ff0219169083151502179055507ff1abf01a1043b7c244d128e8595cf0c1d10743b022b03a02dffd8ca3bf729f5a826040516104549190610b39565b60405180910390a160016002600082825461046f9190610c82565b92505081905550600190505b919050565b6000600254905090565b6104926108d1565b73ffffffffffffffffffffffffffffffffffffffff166104b0610693565b73ffffffffffffffffffffffffffffffffffffffff1614610506576040517f08c379a00000000000000000000000000000000000000000000000000000000081526004016104fd90610b8f565b60405180910390fd5b61051060006108d9565b565b600061051c6108d1565b73ffffffffffffffffffffffffffffffffffffffff1661053a610693565b73ffffffffffffffffffffffffffffffffffffffff1614610590576040517f08c379a000000000000000000000000000000000000000000000000000000000815260040161058790610b8f565b60405180910390fd5b600160008373ffffffffffffffffffffffffffffffffffffffff1673ffffffffffffffffffffffffffffffffffffffff16815260200190815260200160002060009054906101000a900460ff1661068e5760018060008473ffffffffffffffffffffffffffffffffffffffff1673ffffffffffffffffffffffffffffffffffffffff16815260200190815260200160002060006101000a81548160ff0219169083151502179055507fd1bba68c128cc3f427e5831b3c6f99f480b6efa6b9e80c757768f6124158cc3f826040516106679190610b39565b60405180910390a16001600260008282546106829190610c2c565b92505081905550600190505b919050565b60008060009054906101000a900473ffffffffffffffffffffffffffffffffffffffff16905090565b60016020528060005260406000206000915054906101000a900460ff1681565b600360009054906101000a900460ff1681565b60006106f96108d1565b73ffffffffffffffffffffffffffffffffffffffff16610717610693565b73ffffffffffffffffffffffffffffffffffffffff161461076d576040517f08c379a000000000000000000000000000000000000000000000000000000000815260040161076490610b8f565b60405180910390fd5b60005b82518110156107d35761079c83828151811061078f5761078e610da7565b5b6020026020010151610512565b156107c0576001600260008282546107b49190610c2c565b92505081905550600191505b80806107cb90610d2f565b915050610770565b50919050565b6107e16108d1565b73ffffffffffffffffffffffffffffffffffffffff166107ff610693565b73ffffffffffffffffffffffffffffffffffffffff1614610855576040517f08c379a000000000000000000000000000000000000000000000000000000000815260040161084c90610b8f565b60405180910390fd5b600073ffffffffffffffffffffffffffffffffffffffff168173ffffffffffffffffffffffffffffffffffffffff1614156108c5576040517f08c379a00000000000000000000000000000000000000000000000000000000081526004016108bc90610b6f565b60405180910390fd5b6108ce816108d9565b50565b600033905090565b60008060009054906101000a900473ffffffffffffffffffffffffffffffffffffffff169050816000806101000a81548173ffffffffffffffffffffffffffffffffffffffff021916908373ffffffffffffffffffffffffffffffffffffffff1602179055508173ffffffffffffffffffffffffffffffffffffffff168173ffffffffffffffffffffffffffffffffffffffff167f8be0079c531659141344cd1fd0a4f28419497f9722a3daafe3b4186f6b6457e060405160405180910390a35050565b60006109b06109ab84610bef565b610bca565b905080838252602082019050828560208602820111156109d3576109d2610e0a565b5b60005b85811015610a0357816109e98882610a0d565b8452602084019350602083019250506001810190506109d6565b5050509392505050565b600081359050610a1c81610ea2565b92915050565b600082601f830112610a3757610a36610e05565b5b8135610a4784826020860161099d565b91505092915050565b600060208284031215610a6657610a65610e14565b5b6000610a7484828501610a0d565b91505092915050565b600060208284031215610a9357610a92610e14565b5b600082013567ffffffffffffffff811115610ab157610ab0610e0f565b5b610abd84828501610a22565b91505092915050565b610acf81610cb6565b82525050565b610ade81610cc8565b82525050565b6000610af1602683610c1b565b9150610afc82610e2a565b604082019050919050565b6000610b14602083610c1b565b9150610b1f82610e79565b602082019050919050565b610b3381610cf4565b82525050565b6000602082019050610b4e6000830184610ac6565b92915050565b6000602082019050610b696000830184610ad5565b92915050565b60006020820190508181036000830152610b8881610ae4565b9050919050565b60006020820190508181036000830152610ba881610b07565b9050919050565b6000602082019050610bc46000830184610b2a565b92915050565b6000610bd4610be5565b9050610be08282610cfe565b919050565b6000604051905090565b600067ffffffffffffffff821115610c0a57610c09610dd6565b5b602082029050602081019050919050565b600082825260208201905092915050565b6000610c3782610cf4565b9150610c4283610cf4565b9250827fffffffffffffffffffffffffffffffffffffffffffffffffffffffffffffffff03821115610c7757610c76610d78565b5b828201905092915050565b6000610c8d82610cf4565b9150610c9883610cf4565b925082821015610cab57610caa610d78565b5b828203905092915050565b6000610cc182610cd4565b9050919050565b60008115159050919050565b600073ffffffffffffffffffffffffffffffffffffffff82169050919050565b6000819050919050565b610d0782610e19565b810181811067ffffffffffffffff82111715610d2657610d25610dd6565b5b80604052505050565b6000610d3a82610cf4565b91507fffffffffffffffffffffffffffffffffffffffffffffffffffffffffffffffff821415610d6d57610d6c610d78565b5b600182019050919050565b7f4e487b7100000000000000000000000000000000000000000000000000000000600052601160045260246000fd5b7f4e487b7100000000000000000000000000000000000000000000000000000000600052603260045260246000fd5b7f4e487b7100000000000000000000000000000000000000000000000000000000600052604160045260246000fd5b600080fd5b600080fd5b600080fd5b600080fd5b6000601f19601f8301169050919050565b7f4f776e61626c653a206e6577206f776e657220697320746865207a65726f206160008201527f6464726573730000000000000000000000000000000000000000000000000000602082015250565b7f4f776e61626c653a2063616c6c6572206973206e6f7420746865206f776e6572600082015250565b610eab81610cb6565b8114610eb657600080fd5b5056fea2646970667358221220ce5a8c1ac30aa67d0790f09c9f63c08184d23037427080e7e9705621c914926764736f6c63430008070033a264697066735822122040dad965209c180fe4f9fc83af84c7856be59d73327d6861ba13cd08e633741464736f6c63430008070033",
  "linkReferences": {
    "contracts/MOBALogicLibrary.sol": {
      "MOBALogicLibrary": [
        {
          "length": 20,
          "start": 2229
        },
        {
          "length": 20,
          "start": 7360
        }
      ]
    }
  },
  "deployedLinkReferences": {
    "contracts/MOBALogicLibrary.sol": {
      "MOBALogicLibrary": [
        {
          "length": 20,
          "start": 1944
        },
        {
          "length": 20,
          "start": 7075
        }
      ]
    }
  }
}