{
  "_format": "hh-sol-artifact-1",
  "contractName": "LeagueOfLegendsLogic",
  "sourceName": "contracts/LeagueOfLegendsLogic.sol",
  "abi": [
    {
      "anonymous": false,
      "inputs": [
        {
          "indexed": true,
          "internalType": "address",
          "name": "previousOwner",
          "type": "address"
        },
        {
          "indexed": true,
          "internalType": "address",
          "name": "newOwner",
          "type": "address"
        }
      ],
      "name": "OwnershipTransferred",
      "type": "event"
    },
    {
      "anonymous": false,
      "inputs": [
        {
          "indexed": false,
          "internalType": "address",
          "name": "sender",
          "type": "address"
        },
        {
          "indexed": false,
          "internalType": "uint256",
          "name": "amount",
          "type": "uint256"
        }
      ],
      "name": "Staked",
      "type": "event"
    },
    {
      "anonymous": false,
      "inputs": [
        {
          "indexed": false,
          "internalType": "address",
          "name": "addr",
          "type": "address"
        }
      ],
      "name": "WhitelistedAddressAdded",
      "type": "event"
    },
    {
      "anonymous": false,
      "inputs": [
        {
          "indexed": false,
          "internalType": "address",
          "name": "addr",
          "type": "address"
        }
      ],
      "name": "WhitelistedAddressRemoved",
      "type": "event"
    },
    {
      "anonymous": false,
      "inputs": [
        {
          "indexed": false,
          "internalType": "address[]",
          "name": "winner",
          "type": "address[]"
        },
        {
          "indexed": false,
          "internalType": "uint256",
          "name": "prizePotPerWinner",
          "type": "uint256"
        }
      ],
      "name": "leagueEnded",
      "type": "event"
    },
    {
      "anonymous": false,
      "inputs": [
        {
          "indexed": false,
          "internalType": "address",
          "name": "sender",
          "type": "address"
        },
        {
          "indexed": false,
          "internalType": "address",
          "name": "contractAddress",
          "type": "address"
        }
      ],
      "name": "testUSDCDeployed",
      "type": "event"
    },
    {
      "inputs": [
        {
          "internalType": "address",
          "name": "addr",
          "type": "address"
        }
      ],
      "name": "addAddressToWhitelist",
      "outputs": [
        {
          "internalType": "bool",
          "name": "success",
          "type": "bool"
        }
      ],
      "stateMutability": "nonpayable",
      "type": "function"
    },
    {
      "inputs": [
        {
          "internalType": "address[]",
          "name": "addrs",
          "type": "address[]"
        }
      ],
      "name": "addAddressesToWhitelist",
      "outputs": [
        {
          "internalType": "bool",
          "name": "success",
          "type": "bool"
        }
      ],
      "stateMutability": "nonpayable",
      "type": "function"
    },
    {
      "inputs": [
        {
          "internalType": "address",
          "name": "_userToAdd",
          "type": "address"
        }
      ],
      "name": "addUserToWhitelist",
      "outputs": [],
      "stateMutability": "nonpayable",
      "type": "function"
    },
    {
      "inputs": [],
      "name": "admin",
      "outputs": [
        {
          "internalType": "address",
          "name": "",
          "type": "address"
        }
      ],
      "stateMutability": "view",
      "type": "function"
    },
    {
      "inputs": [],
      "name": "currentWeekNum",
      "outputs": [
        {
          "internalType": "uint256",
          "name": "",
          "type": "uint256"
        }
      ],
      "stateMutability": "view",
      "type": "function"
    },
    {
      "inputs": [],
      "name": "evaluateMatches",
      "outputs": [],
      "stateMutability": "nonpayable",
      "type": "function"
    },
    {
      "inputs": [],
      "name": "getAdmin",
      "outputs": [
        {
          "internalType": "address",
          "name": "",
          "type": "address"
        }
      ],
      "stateMutability": "view",
      "type": "function"
    },
    {
      "inputs": [],
      "name": "getContractUSDCBalance",
      "outputs": [
        {
          "internalType": "uint256",
          "name": "",
          "type": "uint256"
        }
      ],
      "stateMutability": "view",
      "type": "function"
    },
    {
      "inputs": [
        {
          "internalType": "address",
          "name": "_user",
          "type": "address"
        }
      ],
      "name": "getLineup",
      "outputs": [
        {
          "internalType": "uint256[]",
          "name": "",
          "type": "uint256[]"
        }
      ],
      "stateMutability": "view",
      "type": "function"
    },
    {
      "inputs": [],
      "name": "getNumWhitelisted",
      "outputs": [
        {
          "internalType": "uint256",
          "name": "",
          "type": "uint256"
        }
      ],
      "stateMutability": "view",
      "type": "function"
    },
    {
      "inputs": [
        {
          "internalType": "uint256",
          "name": "_week",
          "type": "uint256"
        }
      ],
      "name": "getScheduleForWeek",
      "outputs": [
        {
          "components": [
            {
              "internalType": "address[2]",
              "name": "players",
              "type": "address[2]"
            }
          ],
          "internalType": "struct LeagueOfLegendsLogic.Matchup[]",
          "name": "",
          "type": "tuple[]"
        }
      ],
      "stateMutability": "view",
      "type": "function"
    },
    {
      "inputs": [
        {
          "internalType": "address",
          "name": "_user",
          "type": "address"
        }
      ],
      "name": "getUserIsWhitelisted",
      "outputs": [
        {
          "internalType": "bool",
          "name": "",
          "type": "bool"
        }
      ],
      "stateMutability": "view",
      "type": "function"
    },
    {
      "inputs": [],
      "name": "getUserRecord",
      "outputs": [
        {
          "internalType": "uint256[]",
          "name": "",
          "type": "uint256[]"
        }
      ],
      "stateMutability": "view",
      "type": "function"
    },
    {
      "inputs": [
        {
          "internalType": "address",
          "name": "",
          "type": "address"
        }
      ],
      "name": "inLeague",
      "outputs": [
        {
          "internalType": "bool",
          "name": "",
          "type": "bool"
        }
      ],
      "stateMutability": "view",
      "type": "function"
    },
    {
      "inputs": [
        {
          "internalType": "string",
          "name": "_name",
          "type": "string"
        },
        {
          "internalType": "uint256",
          "name": "_stakeAmount",
          "type": "uint256"
        },
        {
          "internalType": "bool",
          "name": "_isPublic",
          "type": "bool"
        },
        {
          "internalType": "address",
          "name": "athletesDataStorageAddress",
          "type": "address"
        },
        {
          "internalType": "address",
          "name": "_admin",
          "type": "address"
        },
        {
          "internalType": "address",
          "name": "_rinkebyUSDCAddress",
          "type": "address"
        },
        {
          "internalType": "address",
          "name": "_testUSDCAddress",
          "type": "address"
        },
        {
          "internalType": "address",
          "name": "_gameItemsContractAddress",
          "type": "address"
        },
        {
          "internalType": "address",
          "name": "_teamDiffAddress",
          "type": "address"
        },
        {
          "internalType": "address",
          "name": "_leagueMakerContractAddress",
          "type": "address"
        }
      ],
      "name": "initialize",
      "outputs": [],
      "stateMutability": "nonpayable",
      "type": "function"
    },
    {
      "inputs": [],
      "name": "isPublic",
      "outputs": [
        {
          "internalType": "bool",
          "name": "",
          "type": "bool"
        }
      ],
      "stateMutability": "view",
      "type": "function"
    },
    {
      "inputs": [],
      "name": "joinLeague",
      "outputs": [],
      "stateMutability": "nonpayable",
      "type": "function"
    },
    {
      "inputs": [],
      "name": "leagueEntryIsClosed",
      "outputs": [
        {
          "internalType": "bool",
          "name": "",
          "type": "bool"
        }
      ],
      "stateMutability": "view",
      "type": "function"
    },
    {
      "inputs": [
        {
          "internalType": "uint256",
          "name": "",
          "type": "uint256"
        }
      ],
      "name": "leagueMembers",
      "outputs": [
        {
          "internalType": "address",
          "name": "",
          "type": "address"
        }
      ],
      "stateMutability": "view",
      "type": "function"
    },
    {
      "inputs": [],
      "name": "leagueName",
      "outputs": [
        {
          "internalType": "string",
          "name": "",
          "type": "string"
        }
      ],
      "stateMutability": "view",
      "type": "function"
    },
    {
      "inputs": [],
      "name": "lineupIsLocked",
      "outputs": [
        {
          "internalType": "bool",
          "name": "",
          "type": "bool"
        }
      ],
      "stateMutability": "view",
      "type": "function"
    },
    {
      "inputs": [],
      "name": "lockLineup",
      "outputs": [],
      "stateMutability": "nonpayable",
      "type": "function"
    },
    {
      "inputs": [],
      "name": "numWeeks",
      "outputs": [
        {
          "internalType": "uint256",
          "name": "",
          "type": "uint256"
        }
      ],
      "stateMutability": "view",
      "type": "function"
    },
    {
      "inputs": [],
      "name": "onLeagueEnd",
      "outputs": [],
      "stateMutability": "nonpayable",
      "type": "function"
    },
    {
      "inputs": [],
      "name": "owner",
      "outputs": [
        {
          "internalType": "address",
          "name": "",
          "type": "address"
        }
      ],
      "stateMutability": "view",
      "type": "function"
    },
    {
      "inputs": [
        {
          "internalType": "address",
          "name": "addr",
          "type": "address"
        }
      ],
      "name": "removeAddressFromWhitelist",
      "outputs": [
        {
          "internalType": "bool",
          "name": "success",
          "type": "bool"
        }
      ],
      "stateMutability": "nonpayable",
      "type": "function"
    },
    {
      "inputs": [
        {
          "internalType": "address[]",
          "name": "addrs",
          "type": "address[]"
        }
      ],
      "name": "removeAddressesFromWhitelist",
      "outputs": [
        {
          "internalType": "bool",
          "name": "success",
          "type": "bool"
        }
      ],
      "stateMutability": "nonpayable",
      "type": "function"
    },
    {
      "inputs": [
        {
          "internalType": "address",
          "name": "_userToRemove",
          "type": "address"
        }
      ],
      "name": "removeFromWhitelist",
      "outputs": [],
      "stateMutability": "nonpayable",
      "type": "function"
    },
    {
      "inputs": [],
      "name": "renounceOwnership",
      "outputs": [],
      "stateMutability": "nonpayable",
      "type": "function"
    },
    {
      "inputs": [],
      "name": "rinkebyUSDCAddress",
      "outputs": [
        {
          "internalType": "address",
          "name": "",
          "type": "address"
        }
      ],
      "stateMutability": "view",
      "type": "function"
    },
    {
      "inputs": [],
      "name": "setLeagueEntryIsClosed",
      "outputs": [],
      "stateMutability": "nonpayable",
      "type": "function"
    },
    {
      "inputs": [],
      "name": "setLeagueSchedule",
      "outputs": [],
      "stateMutability": "nonpayable",
      "type": "function"
    },
    {
      "inputs": [
        {
          "internalType": "uint256[]",
          "name": "athleteIds",
          "type": "uint256[]"
        }
      ],
      "name": "setLineup",
      "outputs": [],
      "stateMutability": "nonpayable",
      "type": "function"
    },
    {
      "inputs": [],
      "name": "stakeAmount",
      "outputs": [
        {
          "internalType": "uint256",
          "name": "",
          "type": "uint256"
        }
      ],
      "stateMutability": "view",
      "type": "function"
    },
    {
      "inputs": [],
      "name": "teamDiffAddress",
      "outputs": [
        {
          "internalType": "address",
          "name": "",
          "type": "address"
        }
      ],
      "stateMutability": "view",
      "type": "function"
    },
    {
      "inputs": [],
      "name": "testUSDC",
      "outputs": [
        {
          "internalType": "contract IERC20",
          "name": "",
          "type": "address"
        }
      ],
      "stateMutability": "view",
      "type": "function"
    },
    {
      "inputs": [
        {
          "internalType": "address",
          "name": "newOwner",
          "type": "address"
        }
      ],
      "name": "transferOwnership",
      "outputs": [],
      "stateMutability": "nonpayable",
      "type": "function"
    },
    {
      "inputs": [],
      "name": "unlockLineup",
      "outputs": [],
      "stateMutability": "nonpayable",
      "type": "function"
    },
    {
      "inputs": [
        {
          "internalType": "address",
          "name": "",
          "type": "address"
        },
        {
          "internalType": "uint256",
          "name": "",
          "type": "uint256"
        }
      ],
      "name": "userToLineup",
      "outputs": [
        {
          "internalType": "uint256",
          "name": "",
          "type": "uint256"
        }
      ],
      "stateMutability": "view",
      "type": "function"
    },
    {
      "inputs": [
        {
          "internalType": "address",
          "name": "",
          "type": "address"
        }
      ],
      "name": "userToPoints",
      "outputs": [
        {
          "internalType": "uint256",
          "name": "",
          "type": "uint256"
        }
      ],
      "stateMutability": "view",
      "type": "function"
    },
    {
      "inputs": [
        {
          "internalType": "address",
          "name": "",
          "type": "address"
        },
        {
          "internalType": "uint256",
          "name": "",
          "type": "uint256"
        }
      ],
      "name": "userToRecord",
      "outputs": [
        {
          "internalType": "uint256",
          "name": "",
          "type": "uint256"
        }
      ],
      "stateMutability": "view",
      "type": "function"
    },
    {
      "inputs": [
        {
          "internalType": "address",
          "name": "",
          "type": "address"
        }
      ],
      "name": "whitelist",
      "outputs": [
        {
          "internalType": "bool",
          "name": "",
          "type": "bool"
        }
      ],
      "stateMutability": "view",
      "type": "function"
    }
  ],
  "bytecode": "0x60806040523480156200001157600080fd5b5062000032620000266200004060201b60201c565b6200004860201b60201c565b60016004819055506200010d565b600033905090565b60008060029054906101000a900473ffffffffffffffffffffffffffffffffffffffff16905081600060026101000a81548173ffffffffffffffffffffffffffffffffffffffff021916908373ffffffffffffffffffffffffffffffffffffffff1602179055508173ffffffffffffffffffffffffffffffffffffffff168173ffffffffffffffffffffffffffffffffffffffff167f8be0079c531659141344cd1fd0a4f28419497f9722a3daafe3b4186f6b6457e060405160405180910390a35050565b615d63806200011d6000396000f3fe60806040523480156200001157600080fd5b5060043610620002965760003560e01c8063747b80501162000165578063c99fea9411620000d5578063e4c9066b1162000093578063e4c9066b14620007b3578063e5f7322f14620007bf578063f2fde38b14620007f5578063f612121a1462000815578063f851a4401462000835578063f881604514620008575762000296565b8063c99fea9414620006e3578063cff5600314620006ef578063dc9a15351462000725578063e2ec6ec31462000747578063e35a8999146200077d5762000296565b80638da5cb5b11620001235780638da5cb5b146200063d5780639122ce6d146200065f5780639b19251a1462000695578063a2bc091a14620006cb578063c8be3b5b14620006d75762000296565b8063747b805014620005835780637b9417c814620005a35780637eed33f114620005d9578063841abf6e14620005fb5780638ab1d681146200061d5762000296565b8063286dd3f5116200020d57806344eaa84e11620001cb57806344eaa84e14620004cd57806352e6e5f314620004ef57806360c7dc4714620005115780636cc15ad514620005335780636e9960c31462000555578063715018a614620005775762000296565b8063286dd3f514620003ff5780632ae6b13514620004355780632d382ee0146200046b578063305a578214620004a15780633c3ae13f14620004ad5762000296565b80630c6f7959116200025b5780630c6f7959146200032f5780631d803e0014620003655780631dd7f8ca146200037157806324953eaa1462000393578063267175db14620003c95762000296565b80622772c2146200029b578062b2476f14620002bd578063022e35e614620002df5780630635dbcb14620003015780630655465a1462000323575b600080fd5b620002a562000879565b604051620002b4919062004275565b60405180910390f35b620002c762000931565b604051620002d6919062003e4a565b60405180910390f35b620002e962000957565b604051620002f8919062003fae565b60405180910390f35b6200030b6200097d565b6040516200031a919062003f91565b60405180910390f35b6200032d62000990565b005b6200034d600480360381019062000347919062003543565b62000a9b565b6040516200035c919062004275565b60405180910390f35b6200036f62000acd565b005b6200037b62000f14565b6040516200038a919062003e4a565b60405180910390f35b620003b16004803603810190620003ab91906200358a565b62000f3a565b604051620003c0919062003f91565b60405180910390f35b620003e76004803603810190620003e1919062003778565b6200101b565b604051620003f6919062003e4a565b60405180910390f35b6200041d600480360381019062000417919062003511565b6200105b565b6040516200042c919062003f91565b60405180910390f35b6200045360048036038101906200044d919062003511565b620011ea565b60405162000462919062004275565b60405180910390f35b62000489600480360381019062000483919062003778565b62001202565b60405162000498919062003f49565b60405180910390f35b620004ab620012f3565b005b620004cb6004803603810190620004c591906200365e565b6200146b565b005b620004d7620018c3565b604051620004e6919062004275565b60405180910390f35b620004f9620018cd565b60405162000508919062004275565b60405180910390f35b6200051b620018d3565b6040516200052a919062004275565b60405180910390f35b6200053d620018d9565b6040516200054c919062003f91565b60405180910390f35b6200055f620018ec565b6040516200056e919062003e4a565b60405180910390f35b6200058162001916565b005b620005a160048036038101906200059b919062003511565b620019a7565b005b620005c16004803603810190620005bb919062003511565b62001b44565b604051620005d0919062003f91565b60405180910390f35b620005e362001cd1565b604051620005f2919062004275565b60405180910390f35b6200060562001cd7565b6040516200061491906200401f565b60405180910390f35b6200063b600480360381019062000635919062003511565b62001d6d565b005b6200064762001f0a565b60405162000656919062003e4a565b60405180910390f35b6200067d600480360381019062000677919062003511565b62001f33565b6040516200068c919062003f91565b60405180910390f35b620006b36004803603810190620006ad919062003511565b62001f53565b604051620006c2919062003f91565b60405180910390f35b620006d562001f73565b005b620006e162002023565b005b620006ed620020d3565b005b6200070d600480360381019062000707919062003543565b62002561565b6040516200071c919062004275565b60405180910390f35b6200072f62002593565b6040516200073e919062003f91565b60405180910390f35b6200076560048036038101906200075f91906200358a565b620025a6565b60405162000774919062003f91565b60405180910390f35b6200079b600480360381019062000795919062003511565b62002687565b604051620007aa919062003f91565b60405180910390f35b620007bd620026dd565b005b620007dd6004803603810190620007d7919062003511565b6200278d565b604051620007ec919062003f6d565b60405180910390f35b6200081360048036038101906200080d919062003511565b62002826565b005b6200083360048036038101906200082d9190620035db565b6200292a565b005b6200083f62002e10565b6040516200084e919062003e4a565b60405180910390f35b6200086162002e36565b60405162000870919062003f6d565b60405180910390f35b6000601560009054906101000a900473ffffffffffffffffffffffffffffffffffffffff1673ffffffffffffffffffffffffffffffffffffffff166370a08231306040518263ffffffff1660e01b8152600401620008d8919062003e4a565b60206040518083038186803b158015620008f157600080fd5b505afa15801562000906573d6000803e3d6000fd5b505050506040513d601f19601f820116820180604052508101906200092c9190620037aa565b905090565b601360009054906101000a900473ffffffffffffffffffffffffffffffffffffffff1681565b601560009054906101000a900473ffffffffffffffffffffffffffffffffffffffff1681565b600a60159054906101000a900460ff1681565b600a60009054906101000a900473ffffffffffffffffffffffffffffffffffffffff1673ffffffffffffffffffffffffffffffffffffffff163373ffffffffffffffffffffffffffffffffffffffff161462000a23576040517f08c379a000000000000000000000000000000000000000000000000000000000815260040162000a1a90620041a9565b60405180910390fd5b73__$36fdb4e0c2cb91f3ceca5ea81b025328f3$__63d2c232b56012601060065460056040518563ffffffff1660e01b815260040162000a67949392919062003fcb565b60006040518083038186803b15801562000a8057600080fd5b505af415801562000a95573d6000803e3d6000fd5b50505050565b600c602052816000526040600020818154811062000ab857600080fd5b90600052602060002001600091509150505481565b600a60009054906101000a900473ffffffffffffffffffffffffffffffffffffffff1673ffffffffffffffffffffffffffffffffffffffff163373ffffffffffffffffffffffffffffffffffffffff161462000b60576040517f08c379a000000000000000000000000000000000000000000000000000000000815260040162000b5790620041a9565b60405180910390fd5b600060075460108054905062000b7791906200454b565b905073__$36fdb4e0c2cb91f3ceca5ea81b025328f3$__63cc9b40cc6010600e60116040518463ffffffff1660e01b815260040162000bb99392919062003ed1565b60006040518083038186803b15801562000bd257600080fd5b505af415801562000be7573d6000803e3d6000fd5b5050505060005b60118054905081101562000c5e5762000c486011828154811062000c175762000c166200486b565b5b9060005260206000200160009054906101000a900473ffffffffffffffffffffffffffffffffffffffff1662002ecd565b808062000c559062004790565b91505062000bee565b5060006011805490508262000c74919062004513565b905062000cbc6040518060400160405280601681526020017f4c65616775652077696e6e657273206c656e206973200000000000000000000081525060118054905062002f6a565b62000cfd6040518060400160405280601681526020017f5072697a65207065722077696e6e6572206973203a20000000000000000000008152508262002f6a565b7f648f2405ea194f3e49fe1655279883b3474e63909ab7e4a579b051d548ad838960118260405162000d3192919062003f15565b60405180910390a160005b60118054905081101562000f0f57601560009054906101000a900473ffffffffffffffffffffffffffffffffffffffff1673ffffffffffffffffffffffffffffffffffffffff1663095ea7b330846040518363ffffffff1660e01b815260040162000da992919062003ea4565b602060405180830381600087803b15801562000dc457600080fd5b505af115801562000dd9573d6000803e3d6000fd5b505050506040513d601f19601f8201168201806040525081019062000dff91906200362c565b50601560009054906101000a900473ffffffffffffffffffffffffffffffffffffffff1673ffffffffffffffffffffffffffffffffffffffff166323b872dd306011848154811062000e565762000e556200486b565b5b9060005260206000200160009054906101000a900473ffffffffffffffffffffffffffffffffffffffff16856040518463ffffffff1660e01b815260040162000ea29392919062003e67565b602060405180830381600087803b15801562000ebd57600080fd5b505af115801562000ed2573d6000803e3d6000fd5b505050506040513d601f19601f8201168201806040525081019062000ef891906200362c565b50808062000f069062004790565b91505062000d3c565b505050565b600a60009054906101000a900473ffffffffffffffffffffffffffffffffffffffff1681565b600062000f466200300a565b73ffffffffffffffffffffffffffffffffffffffff1662000f6662001f0a565b73ffffffffffffffffffffffffffffffffffffffff161462000fbf576040517f08c379a000000000000000000000000000000000000000000000000000000000815260040162000fb69062004165565b60405180910390fd5b60005b8251811015620010155762000ff483828151811062000fe65762000fe56200486b565b5b60200260200101516200105b565b1562000fff57600191505b80806200100c9062004790565b91505062000fc2565b50919050565b601081815481106200102c57600080fd5b906000526020600020016000915054906101000a900473ffffffffffffffffffffffffffffffffffffffff1681565b6000620010676200300a565b73ffffffffffffffffffffffffffffffffffffffff166200108762001f0a565b73ffffffffffffffffffffffffffffffffffffffff1614620010e0576040517f08c379a0000000000000000000000000000000000000000000000000000000008152600401620010d79062004165565b60405180910390fd5b600160008373ffffffffffffffffffffffffffffffffffffffff1673ffffffffffffffffffffffffffffffffffffffff16815260200190815260200160002060009054906101000a900460ff1615620011e5576000600160008473ffffffffffffffffffffffffffffffffffffffff1673ffffffffffffffffffffffffffffffffffffffff16815260200190815260200160002060006101000a81548160ff0219169083151502179055507ff1abf01a1043b7c244d128e8595cf0c1d10743b022b03a02dffd8ca3bf729f5a82604051620011bc919062003e4a565b60405180910390a1600160026000828254620011d99190620045ac565b92505081905550600190505b919050565b600e6020528060005260406000206000915090505481565b606060126000838152602001908152602001600020805480602002602001604051908101604052809291908181526020016000905b82821015620012e8578382906000526020600020906002020160405180602001604052908160008201600280602002604051908101604052809291908260028015620012cf576020028201915b8160009054906101000a900473ffffffffffffffffffffffffffffffffffffffff1673ffffffffffffffffffffffffffffffffffffffff168152602001906001019080831162001284575b5050505050815250508152602001906001019062001237565b505050509050919050565b600a60009054906101000a900473ffffffffffffffffffffffffffffffffffffffff1673ffffffffffffffffffffffffffffffffffffffff163373ffffffffffffffffffffffffffffffffffffffff161462001386576040517f08c379a00000000000000000000000000000000000000000000000000000000081526004016200137d90620041a9565b60405180910390fd5b73__$36fdb4e0c2cb91f3ceca5ea81b025328f3$__63c930f4bc600854601660009054906101000a900473ffffffffffffffffffffffffffffffffffffffff16600c600d600e60126040518763ffffffff1660e01b8152600401620013f19695949392919062004292565b60006040518083038186803b1580156200140a57600080fd5b505af41580156200141f573d6000803e3d6000fd5b505050506001600654620014349190620045ac565b60085414156200144e576200144862000acd565b62001469565b60086000815480929190620014639062004790565b91905055505b565b600060019054906101000a900460ff16620014955760008054906101000a900460ff1615620014a0565b6200149f62003012565b5b620014e2576040517f08c379a0000000000000000000000000000000000000000000000000000000008152600401620014d99062004143565b60405180910390fd5b60008060019054906101000a900460ff16159050801562001533576001600060016101000a81548160ff02191690831515021790555060016000806101000a81548160ff0219169083151502179055505b8b8b6005919062001546929190620031d3565b5060086006819055506001600f60008973ffffffffffffffffffffffffffffffffffffffff1673ffffffffffffffffffffffffffffffffffffffff16815260200190815260200160002060006101000a81548160ff0219169083151502179055506010879080600181540180825580915050600190039060005260206000200160009091909190916101000a81548173ffffffffffffffffffffffffffffffffffffffff021916908373ffffffffffffffffffffffffffffffffffffffff16021790555086600960006101000a81548173ffffffffffffffffffffffffffffffffffffffff021916908373ffffffffffffffffffffffffffffffffffffffff1602179055508960078190555088600360006101000a81548160ff0219169083151502179055506000600a60146101000a81548160ff0219169083151502179055506000600a60156101000a81548160ff02191690831515021790555087601660006101000a81548173ffffffffffffffffffffffffffffffffffffffff021916908373ffffffffffffffffffffffffffffffffffffffff160217905550604051620016f19062003264565b604051809103906000f0801580156200170e573d6000803e3d6000fd5b50601460006101000a81548173ffffffffffffffffffffffffffffffffffffffff021916908373ffffffffffffffffffffffffffffffffffffffff16021790555085601360006101000a81548173ffffffffffffffffffffffffffffffffffffffff021916908373ffffffffffffffffffffffffffffffffffffffff16021790555084601560006101000a81548173ffffffffffffffffffffffffffffffffffffffff021916908373ffffffffffffffffffffffffffffffffffffffff16021790555082600a60006101000a81548173ffffffffffffffffffffffffffffffffffffffff021916908373ffffffffffffffffffffffffffffffffffffffff16021790555083601760006101000a81548173ffffffffffffffffffffffffffffffffffffffff021916908373ffffffffffffffffffffffffffffffffffffffff160217905550620018936040518060400160405280601281526020017f50726f787920696e697469616c697a656421000000000000000000000000000081525062003025565b8015620018b55760008060016101000a81548160ff0219169083151502179055505b505050505050505050505050565b6000600254905090565b60085481565b60075481565b600a60149054906101000a900460ff1681565b6000600960009054906101000a900473ffffffffffffffffffffffffffffffffffffffff16905090565b620019206200300a565b73ffffffffffffffffffffffffffffffffffffffff166200194062001f0a565b73ffffffffffffffffffffffffffffffffffffffff161462001999576040517f08c379a0000000000000000000000000000000000000000000000000000000008152600401620019909062004165565b60405180910390fd5b620019a56000620030c2565b565b600960009054906101000a900473ffffffffffffffffffffffffffffffffffffffff1673ffffffffffffffffffffffffffffffffffffffff163373ffffffffffffffffffffffffffffffffffffffff161462001a3a576040517f08c379a000000000000000000000000000000000000000000000000000000000815260040162001a319062004187565b60405180910390fd5b600a60149054906101000a900460ff161562001a8d576040517f08c379a000000000000000000000000000000000000000000000000000000000815260040162001a8490620041ed565b60405180910390fd5b601460009054906101000a900473ffffffffffffffffffffffffffffffffffffffff1673ffffffffffffffffffffffffffffffffffffffff16637b9417c8826040518263ffffffff1660e01b815260040162001aea919062003e4a565b602060405180830381600087803b15801562001b0557600080fd5b505af115801562001b1a573d6000803e3d6000fd5b505050506040513d601f19601f8201168201806040525081019062001b4091906200362c565b5050565b600062001b506200300a565b73ffffffffffffffffffffffffffffffffffffffff1662001b7062001f0a565b73ffffffffffffffffffffffffffffffffffffffff161462001bc9576040517f08c379a000000000000000000000000000000000000000000000000000000000815260040162001bc09062004165565b60405180910390fd5b600160008373ffffffffffffffffffffffffffffffffffffffff1673ffffffffffffffffffffffffffffffffffffffff16815260200190815260200160002060009054906101000a900460ff1662001ccc5760018060008473ffffffffffffffffffffffffffffffffffffffff1673ffffffffffffffffffffffffffffffffffffffff16815260200190815260200160002060006101000a81548160ff0219169083151502179055507fd1bba68c128cc3f427e5831b3c6f99f480b6efa6b9e80c757768f6124158cc3f8260405162001ca3919062003e4a565b60405180910390a160016002600082825462001cc09190620044b6565b92505081905550600190505b919050565b60065481565b6005805462001ce69062004706565b80601f016020809104026020016040519081016040528092919081815260200182805462001d149062004706565b801562001d655780601f1062001d395761010080835404028352916020019162001d65565b820191906000526020600020905b81548152906001019060200180831162001d4757829003601f168201915b505050505081565b600960009054906101000a900473ffffffffffffffffffffffffffffffffffffffff1673ffffffffffffffffffffffffffffffffffffffff163373ffffffffffffffffffffffffffffffffffffffff161462001e00576040517f08c379a000000000000000000000000000000000000000000000000000000000815260040162001df79062004187565b60405180910390fd5b600a60149054906101000a900460ff161562001e53576040517f08c379a000000000000000000000000000000000000000000000000000000000815260040162001e4a90620041ed565b60405180910390fd5b601460009054906101000a900473ffffffffffffffffffffffffffffffffffffffff1673ffffffffffffffffffffffffffffffffffffffff1663286dd3f5826040518263ffffffff1660e01b815260040162001eb0919062003e4a565b602060405180830381600087803b15801562001ecb57600080fd5b505af115801562001ee0573d6000803e3d6000fd5b505050506040513d601f19601f8201168201806040525081019062001f0691906200362c565b5050565b60008060029054906101000a900473ffffffffffffffffffffffffffffffffffffffff16905090565b600f6020528060005260406000206000915054906101000a900460ff1681565b60016020528060005260406000206000915054906101000a900460ff1681565b600a60009054906101000a900473ffffffffffffffffffffffffffffffffffffffff1673ffffffffffffffffffffffffffffffffffffffff163373ffffffffffffffffffffffffffffffffffffffff161462002006576040517f08c379a000000000000000000000000000000000000000000000000000000000815260040162001ffd90620041a9565b60405180910390fd5b6000600a60156101000a81548160ff021916908315150217905550565b600a60009054906101000a900473ffffffffffffffffffffffffffffffffffffffff1673ffffffffffffffffffffffffffffffffffffffff163373ffffffffffffffffffffffffffffffffffffffff1614620020b6576040517f08c379a0000000000000000000000000000000000000000000000000000000008152600401620020ad90620041a9565b60405180910390fd5b6001600a60156101000a81548160ff021916908315150217905550565b600160003373ffffffffffffffffffffffffffffffffffffffff1673ffffffffffffffffffffffffffffffffffffffff16815260200190815260200160002060009054906101000a900460ff1680620021385750600360009054906101000a900460ff165b6200217a576040517f08c379a00000000000000000000000000000000000000000000000000000000081526004016200217190620040dd565b60405180910390fd5b60026004541415620021c3576040517f08c379a0000000000000000000000000000000000000000000000000000000008152600401620021ba9062004231565b60405180910390fd5b6002600481905550600a60149054906101000a900460ff16156200221e576040517f08c379a0000000000000000000000000000000000000000000000000000000008152600401620022159062004253565b60405180910390fd5b600f60003373ffffffffffffffffffffffffffffffffffffffff1673ffffffffffffffffffffffffffffffffffffffff16815260200190815260200160002060009054906101000a900460ff1615620022ae576040517f08c379a0000000000000000000000000000000000000000000000000000000008152600401620022a590620040bb565b60405180910390fd5b600754601560009054906101000a900473ffffffffffffffffffffffffffffffffffffffff1673ffffffffffffffffffffffffffffffffffffffff166370a08231336040518263ffffffff1660e01b81526004016200230e919062003e4a565b60206040518083038186803b1580156200232757600080fd5b505afa1580156200233c573d6000803e3d6000fd5b505050506040513d601f19601f82011682018060405250810190620023629190620037aa565b11620023a5576040517f08c379a00000000000000000000000000000000000000000000000000000000081526004016200239c9062004099565b60405180910390fd5b6001600f60003373ffffffffffffffffffffffffffffffffffffffff1673ffffffffffffffffffffffffffffffffffffffff16815260200190815260200160002060006101000a81548160ff0219169083151502179055506010339080600181540180825580915050600190039060005260206000200160009091909190916101000a81548173ffffffffffffffffffffffffffffffffffffffff021916908373ffffffffffffffffffffffffffffffffffffffff160217905550601560009054906101000a900473ffffffffffffffffffffffffffffffffffffffff1673ffffffffffffffffffffffffffffffffffffffff166323b872dd33306007546040518463ffffffff1660e01b8152600401620024c39392919062003e67565b602060405180830381600087803b158015620024de57600080fd5b505af1158015620024f3573d6000803e3d6000fd5b505050506040513d601f19601f820116820180604052508101906200251991906200362c565b507f9e71bc8eea02a63969f509818f2dafb9254532904319f9dbda79b67bd34a5f3d336007546040516200254f92919062003ea4565b60405180910390a16001600481905550565b600d60205281600052604060002081815481106200257e57600080fd5b90600052602060002001600091509150505481565b600360009054906101000a900460ff1681565b6000620025b26200300a565b73ffffffffffffffffffffffffffffffffffffffff16620025d262001f0a565b73ffffffffffffffffffffffffffffffffffffffff16146200262b576040517f08c379a0000000000000000000000000000000000000000000000000000000008152600401620026229062004165565b60405180910390fd5b60005b82518110156200268157620026608382815181106200265257620026516200486b565b5b602002602001015162001b44565b156200266b57600191505b8080620026789062004790565b9150506200262e565b50919050565b6000600160008373ffffffffffffffffffffffffffffffffffffffff1673ffffffffffffffffffffffffffffffffffffffff16815260200190815260200160002060009054906101000a900460ff169050919050565b600a60009054906101000a900473ffffffffffffffffffffffffffffffffffffffff1673ffffffffffffffffffffffffffffffffffffffff163373ffffffffffffffffffffffffffffffffffffffff161462002770576040517f08c379a00000000000000000000000000000000000000000000000000000000081526004016200276790620041a9565b60405180910390fd5b6001600a60146101000a81548160ff021916908315150217905550565b6060600d60008373ffffffffffffffffffffffffffffffffffffffff1673ffffffffffffffffffffffffffffffffffffffff1681526020019081526020016000208054806020026020016040519081016040528092919081815260200182805480156200281a57602002820191906000526020600020905b81548152602001906001019080831162002805575b50505050509050919050565b620028306200300a565b73ffffffffffffffffffffffffffffffffffffffff166200285062001f0a565b73ffffffffffffffffffffffffffffffffffffffff1614620028a9576040517f08c379a0000000000000000000000000000000000000000000000000000000008152600401620028a09062004165565b60405180910390fd5b600073ffffffffffffffffffffffffffffffffffffffff168173ffffffffffffffffffffffffffffffffffffffff1614156200291c576040517f08c379a0000000000000000000000000000000000000000000000000000000008152600401620029139062004077565b60405180910390fd5b6200292781620030c2565b50565b600a60159054906101000a900460ff16156200297d576040517f08c379a0000000000000000000000000000000000000000000000000000000008152600401620029749062004121565b60405180910390fd5b600f60003373ffffffffffffffffffffffffffffffffffffffff1673ffffffffffffffffffffffffffffffffffffffff16815260200190815260200160002060009054906101000a900460ff1662002a0c576040517f08c379a000000000000000000000000000000000000000000000000000000000815260040162002a0390620041cb565b60405180910390fd5b60005b600d60003373ffffffffffffffffffffffffffffffffffffffff1673ffffffffffffffffffffffffffffffffffffffff1681526020019081526020016000208054905081101562002b1157600b6000600d60003373ffffffffffffffffffffffffffffffffffffffff1673ffffffffffffffffffffffffffffffffffffffff168152602001908152602001600020838154811062002ab25762002ab16200486b565b5b906000526020600020015481526020019081526020016000206008546008811062002ae25762002ae16200486b565b5b01600081548092919062002af690620046d7565b9190505550808062002b089062004790565b91505062002a0f565b5060005b815181101562002b9557600b600083838151811062002b395762002b386200486b565b5b602002602001015181526020019081526020016000206008546008811062002b665762002b656200486b565b5b01600081548092919062002b7a9062004790565b9190505550808062002b8c9062004790565b91505062002b15565b5060005b815181101562002ccd576000601760009054906101000a900473ffffffffffffffffffffffffffffffffffffffff1673ffffffffffffffffffffffffffffffffffffffff1662fdd58e3385858151811062002bf95762002bf86200486b565b5b60200260200101516040518363ffffffff1660e01b815260040162002c2092919062003ea4565b60206040518083038186803b15801562002c3957600080fd5b505afa15801562002c4e573d6000803e3d6000fd5b505050506040513d601f19601f8201168201806040525081019062002c749190620037aa565b1162002cb7576040517f08c379a000000000000000000000000000000000000000000000000000000000815260040162002cae906200420f565b60405180910390fd5b808062002cc49062004790565b91505062002b99565b5060005b815181101562002db657600a8162002cea91906200454b565b82828151811062002d005762002cff6200486b565b5b60200260200101511015801562002d5e57506001600a60018362002d259190620044b6565b62002d3191906200454b565b62002d3d9190620045ac565b82828151811062002d535762002d526200486b565b5b602002602001015111155b62002da0576040517f08c379a000000000000000000000000000000000000000000000000000000000815260040162002d9790620040ff565b60405180910390fd5b808062002dad9062004790565b91505062002cd1565b5080600d60003373ffffffffffffffffffffffffffffffffffffffff1673ffffffffffffffffffffffffffffffffffffffff168152602001908152602001600020908051906020019062002e0c92919062003272565b5050565b600960009054906101000a900473ffffffffffffffffffffffffffffffffffffffff1681565b6060600c60003373ffffffffffffffffffffffffffffffffffffffff1673ffffffffffffffffffffffffffffffffffffffff16815260200190815260200160002080548060200260200160405190810160405280929190818152602001828054801562002ec357602002820191906000526020600020905b81548152602001906001019080831162002eae575b5050505050905090565b62002f678160405160240162002ee4919062003e4a565b6040516020818303038152906040527f2c2ecbc2000000000000000000000000000000000000000000000000000000007bffffffffffffffffffffffffffffffffffffffffffffffffffffffff19166020820180517bffffffffffffffffffffffffffffffffffffffffffffffffffffffff838183161783525050505062003187565b50565b62003006828260405160240162002f8392919062004043565b6040516020818303038152906040527f9710a9d0000000000000000000000000000000000000000000000000000000007bffffffffffffffffffffffffffffffffffffffffffffffffffffffff19166020820180517bffffffffffffffffffffffffffffffffffffffffffffffffffffffff838183161783525050505062003187565b5050565b600033905090565b60006200301f30620031b0565b15905090565b620030bf816040516024016200303c91906200401f565b6040516020818303038152906040527f41304fac000000000000000000000000000000000000000000000000000000007bffffffffffffffffffffffffffffffffffffffffffffffffffffffff19166020820180517bffffffffffffffffffffffffffffffffffffffffffffffffffffffff838183161783525050505062003187565b50565b60008060029054906101000a900473ffffffffffffffffffffffffffffffffffffffff16905081600060026101000a81548173ffffffffffffffffffffffffffffffffffffffff021916908373ffffffffffffffffffffffffffffffffffffffff1602179055508173ffffffffffffffffffffffffffffffffffffffff168173ffffffffffffffffffffffffffffffffffffffff167f8be0079c531659141344cd1fd0a4f28419497f9722a3daafe3b4186f6b6457e060405160405180910390a35050565b60008151905060006a636f6e736f6c652e6c6f679050602083016000808483855afa5050505050565b6000808273ffffffffffffffffffffffffffffffffffffffff163b119050919050565b828054620031e19062004706565b90600052602060002090601f01602090048101928262003205576000855562003251565b82601f106200322057803560ff191683800117855562003251565b8280016001018555821562003251579182015b828111156200325057823582559160200191906001019062003233565b5b509050620032609190620032c4565b5090565b6110598062004cd583390190565b828054828255906000526020600020908101928215620032b1579160200282015b82811115620032b057825182559160200191906001019062003293565b5b509050620032c09190620032c4565b5090565b5b80821115620032df576000816000905550600101620032c5565b5090565b6000620032fa620032f48462004328565b620042ff565b9050808382526020820190508285602086028201111562003320576200331f620048e8565b5b60005b85811015620033545781620033398882620033d9565b84526020840193506020830192505060018101905062003323565b5050509392505050565b6000620033756200336f8462004357565b620042ff565b905080838252602082019050828560208602820111156200339b576200339a620048e8565b5b60005b85811015620033cf5781620033b48882620034e3565b8452602084019350602083019250506001810190506200339e565b5050509392505050565b600081359050620033ea8162004c86565b92915050565b600082601f830112620034085762003407620048e3565b5b81356200341a848260208601620032e3565b91505092915050565b600082601f8301126200343b576200343a620048e3565b5b81356200344d8482602086016200335e565b91505092915050565b600081359050620034678162004ca0565b92915050565b6000815190506200347e8162004ca0565b92915050565b60008083601f8401126200349d576200349c620048e3565b5b8235905067ffffffffffffffff811115620034bd57620034bc620048de565b5b602083019150836001820283011115620034dc57620034db620048e8565b5b9250929050565b600081359050620034f48162004cba565b92915050565b6000815190506200350b8162004cba565b92915050565b6000602082840312156200352a5762003529620048f2565b5b60006200353a84828501620033d9565b91505092915050565b600080604083850312156200355d576200355c620048f2565b5b60006200356d85828601620033d9565b92505060206200358085828601620034e3565b9150509250929050565b600060208284031215620035a357620035a2620048f2565b5b600082013567ffffffffffffffff811115620035c457620035c3620048ed565b5b620035d284828501620033f0565b91505092915050565b600060208284031215620035f457620035f3620048f2565b5b600082013567ffffffffffffffff811115620036155762003614620048ed565b5b620036238482850162003423565b91505092915050565b600060208284031215620036455762003644620048f2565b5b600062003655848285016200346d565b91505092915050565b60008060008060008060008060008060006101408c8e031215620036875762003686620048f2565b5b60008c013567ffffffffffffffff811115620036a857620036a7620048ed565b5b620036b68e828f0162003484565b9b509b50506020620036cb8e828f01620034e3565b9950506040620036de8e828f0162003456565b9850506060620036f18e828f01620033d9565b9750506080620037048e828f01620033d9565b96505060a0620037178e828f01620033d9565b95505060c06200372a8e828f01620033d9565b94505060e06200373d8e828f01620033d9565b935050610100620037518e828f01620033d9565b925050610120620037658e828f01620033d9565b9150509295989b509295989b9093969950565b600060208284031215620037915762003790620048f2565b5b6000620037a184828501620034e3565b91505092915050565b600060208284031215620037c357620037c2620048f2565b5b6000620037d384828501620034fa565b91505092915050565b6000620037ea838362003844565b60208301905092915050565b600062003804838362003866565b60208301905092915050565b60006200381e838362003df9565b60408301905092915050565b600062003838838362003e17565b60208301905092915050565b6200384f8162004607565b82525050565b620038608162004607565b82525050565b620038718162004607565b82525050565b6200388281620043da565b6200388e818462004445565b92506200389b8262004386565b8060005b83811015620038d2578151620038b68782620037dc565b9650620038c38362004411565b9250506001810190506200389f565b505050505050565b6000620038e782620043e5565b620038f3818562004450565b9350620039008362004390565b8060005b8381101562003940576200391882620048c9565b620039248882620037dc565b975062003931836200441e565b92505060018101905062003904565b5085935050505092915050565b60006200395a82620043e5565b62003966818562004461565b9350620039738362004390565b8060005b83811015620039b3576200398b82620048c9565b620039978882620037f6565b9750620039a4836200441e565b92505060018101905062003977565b5085935050505092915050565b8082525050565b6000620039d482620043f0565b620039e0818562004472565b9350620039ed83620043a5565b8060005b8381101562003a2457815162003a08888262003810565b975062003a15836200442b565b925050600181019050620039f1565b5085935050505092915050565b600062003a3e82620043fb565b62003a4a818562004483565b935062003a5783620043b5565b8060005b8381101562003a8e57815162003a7288826200382a565b975062003a7f8362004438565b92505060018101905062003a5b565b5085935050505092915050565b62003aa6816200461b565b82525050565b62003ab78162004651565b82525050565b62003ac88162004665565b82525050565b8082525050565b8082525050565b8082525050565b600062003af08262004406565b62003afc818562004494565b935062003b0e818560208601620046a1565b62003b1981620048f7565b840191505092915050565b6000815462003b338162004706565b62003b3f8186620044a5565b9450600182166000811462003b5d576001811462003b705762003ba7565b60ff198316865260208601935062003ba7565b62003b7b85620043c5565b60005b8381101562003b9f5781548189015260018201915060208101905062003b7e565b808801955050505b50505092915050565b600062003bbf60268362004494565b915062003bcc8262004915565b604082019050919050565b600062003be6601d8362004494565b915062003bf38262004964565b602082019050919050565b600062003c0d60238362004494565b915062003c1a826200498d565b604082019050919050565b600062003c34601a8362004494565b915062003c4182620049dc565b602082019050919050565b600062003c5b60318362004494565b915062003c688262004a05565b604082019050919050565b600062003c82601e8362004494565b915062003c8f8262004a54565b602082019050919050565b600062003ca9602e8362004494565b915062003cb68262004a7d565b604082019050919050565b600062003cd060208362004494565b915062003cdd8262004acc565b602082019050919050565b600062003cf760178362004494565b915062003d048262004af5565b602082019050919050565b600062003d1e60168362004494565b915062003d2b8262004b1e565b602082019050919050565b600062003d4560168362004494565b915062003d528262004b47565b602082019050919050565b600062003d6c60418362004494565b915062003d798262004b70565b606082019050919050565b600062003d9360248362004494565b915062003da08262004be5565b604082019050919050565b600062003dba601f8362004494565b915062003dc78262004c34565b602082019050919050565b600062003de160178362004494565b915062003dee8262004c5d565b602082019050919050565b60408201600082015162003e11600085018262003877565b50505050565b62003e228162004647565b82525050565b62003e338162004647565b82525050565b62003e448162004647565b82525050565b600060208201905062003e61600083018462003855565b92915050565b600060608201905062003e7e600083018662003855565b62003e8d602083018562003855565b62003e9c604083018462003e28565b949350505050565b600060408201905062003ebb600083018562003855565b62003eca602083018462003e28565b9392505050565b6000606082019050818103600083015262003eed81866200394d565b905062003efe602083018562003ad5565b62003f0d6040830184620039c0565b949350505050565b6000604082019050818103600083015262003f318185620038da565b905062003f42602083018462003e28565b9392505050565b6000602082019050818103600083015262003f658184620039c7565b905092915050565b6000602082019050818103600083015262003f89818462003a31565b905092915050565b600060208201905062003fa8600083018462003a9b565b92915050565b600060208201905062003fc5600083018462003abd565b92915050565b600060808201905062003fe2600083018762003adc565b62003ff16020830186620039c0565b62004000604083018562003e39565b818103606083015262004014818462003b24565b905095945050505050565b600060208201905081810360008301526200403b818462003ae3565b905092915050565b600060408201905081810360008301526200405f818562003ae3565b905062004070602083018462003e28565b9392505050565b60006020820190508181036000830152620040928162003bb0565b9050919050565b60006020820190508181036000830152620040b48162003bd7565b9050919050565b60006020820190508181036000830152620040d68162003bfe565b9050919050565b60006020820190508181036000830152620040f88162003c25565b9050919050565b600060208201905081810360008301526200411a8162003c4c565b9050919050565b600060208201905081810360008301526200413c8162003c73565b9050919050565b600060208201905081810360008301526200415e8162003c9a565b9050919050565b60006020820190508181036000830152620041808162003cc1565b9050919050565b60006020820190508181036000830152620041a28162003ce8565b9050919050565b60006020820190508181036000830152620041c48162003d0f565b9050919050565b60006020820190508181036000830152620041e68162003d36565b9050919050565b60006020820190508181036000830152620042088162003d5d565b9050919050565b600060208201905081810360008301526200422a8162003d84565b9050919050565b600060208201905081810360008301526200424c8162003dab565b9050919050565b600060208201905081810360008301526200426e8162003dd2565b9050919050565b60006020820190506200428c600083018462003e28565b92915050565b600060c082019050620042a9600083018962003e39565b620042b8602083018862003aac565b620042c7604083018762003ace565b620042d6606083018662003ace565b620042e5608083018562003ad5565b620042f460a083018462003adc565b979650505050505050565b60006200430b6200431e565b90506200431982826200475a565b919050565b6000604051905090565b600067ffffffffffffffff8211156200434657620043456200489a565b5b602082029050602081019050919050565b600067ffffffffffffffff8211156200437557620043746200489a565b5b602082029050602081019050919050565b6000819050919050565b60008190508160005260206000209050919050565b6000819050602082019050919050565b6000819050602082019050919050565b60008190508160005260206000209050919050565b600060029050919050565b600081549050919050565b600081519050919050565b600081519050919050565b600081519050919050565b6000602082019050919050565b6000600182019050919050565b6000602082019050919050565b6000602082019050919050565b600081905092915050565b600082825260208201905092915050565b600082825260208201905092915050565b600082825260208201905092915050565b600082825260208201905092915050565b600082825260208201905092915050565b600082825260208201905092915050565b6000620044c38262004647565b9150620044d08362004647565b9250827fffffffffffffffffffffffffffffffffffffffffffffffffffffffffffffffff03821115620045085762004507620047de565b5b828201905092915050565b6000620045208262004647565b91506200452d8362004647565b92508262004540576200453f6200480d565b5b828204905092915050565b6000620045588262004647565b9150620045658362004647565b9250817fffffffffffffffffffffffffffffffffffffffffffffffffffffffffffffffff0483118215151615620045a157620045a0620047de565b5b828202905092915050565b6000620045b98262004647565b9150620045c68362004647565b925082821015620045dc57620045db620047de565b5b828203905092915050565b600073ffffffffffffffffffffffffffffffffffffffff82169050919050565b6000620046148262004627565b9050919050565b60008115159050919050565b600073ffffffffffffffffffffffffffffffffffffffff82169050919050565b6000819050919050565b60006200465e8262004679565b9050919050565b6000620046728262004679565b9050919050565b600062004686826200468d565b9050919050565b60006200469a8262004627565b9050919050565b60005b83811015620046c1578082015181840152602081019050620046a4565b83811115620046d1576000848401525b50505050565b6000620046e48262004647565b91506000821415620046fb57620046fa620047de565b5b600182039050919050565b600060028204905060018216806200471f57607f821691505b602082108114156200473657620047356200483c565b5b50919050565b6000620047536200474d8362004908565b620045e7565b9050919050565b6200476582620048f7565b810181811067ffffffffffffffff821117156200478757620047866200489a565b5b80604052505050565b60006200479d8262004647565b91507fffffffffffffffffffffffffffffffffffffffffffffffffffffffffffffffff821415620047d357620047d2620047de565b5b600182019050919050565b7f4e487b7100000000000000000000000000000000000000000000000000000000600052601160045260246000fd5b7f4e487b7100000000000000000000000000000000000000000000000000000000600052601260045260246000fd5b7f4e487b7100000000000000000000000000000000000000000000000000000000600052602260045260246000fd5b7f4e487b7100000000000000000000000000000000000000000000000000000000600052603260045260246000fd5b7f4e487b7100000000000000000000000000000000000000000000000000000000600052604160045260246000fd5b6000620048d782546200473c565b9050919050565b600080fd5b600080fd5b600080fd5b600080fd5b600080fd5b6000601f19601f8301169050919050565b60008160001c9050919050565b7f4f776e61626c653a206e6577206f776e657220697320746865207a65726f206160008201527f6464726573730000000000000000000000000000000000000000000000000000602082015250565b7f496e737566666963656e742066756e647320666f72207374616b696e67000000600082015250565b7f596f75206861766520616c7265616479206a6f696e65642074686973206c656160008201527f6775650000000000000000000000000000000000000000000000000000000000602082015250565b7f55736572206973206e6f742077686974656c6973746564203a28000000000000600082015250565b7f596f75206172652073657474696e6720616e206174686c65746520696e20746860008201527f652077726f6e6720706f736974696f6e21000000000000000000000000000000602082015250565b7f6c696e657570206973206c6f636b656420666f7220746865207765656b210000600082015250565b7f496e697469616c697a61626c653a20636f6e747261637420697320616c72656160008201527f647920696e697469616c697a6564000000000000000000000000000000000000602082015250565b7f4f776e61626c653a2063616c6c6572206973206e6f7420746865206f776e6572600082015250565b7f43616c6c6572206973206e6f74207468652061646d696e000000000000000000600082015250565b7f43616c6c6572206973206e6f74205465616d4469666600000000000000000000600082015250565b7f55736572206973206e6f7420696e204c65616775652e00000000000000000000600082015250565b7f4e6f626f64792063616e20656e7465722f6578697420746865206c656167756560008201527f20616e796d6f72652e2054686520736561736f6e20686173207374617274656460208201527f2100000000000000000000000000000000000000000000000000000000000000604082015250565b7f43616c6c657220646f6573206e6f74206f776e20676976656e206174686c657460008201527f6549647300000000000000000000000000000000000000000000000000000000602082015250565b7f5265656e7472616e637947756172643a207265656e7472616e742063616c6c00600082015250565b7f4c656167756520456e74727920697320436c6f73656421000000000000000000600082015250565b62004c918162004607565b811462004c9d57600080fd5b50565b62004cab816200461b565b811462004cb757600080fd5b50565b62004cc58162004647565b811462004cd157600080fd5b5056fe608060405234801561001057600080fd5b5061002d61002261003260201b60201c565b61003a60201b60201c565b6100fe565b600033905090565b60008060009054906101000a900473ffffffffffffffffffffffffffffffffffffffff169050816000806101000a81548173ffffffffffffffffffffffffffffffffffffffff021916908373ffffffffffffffffffffffffffffffffffffffff1602179055508173ffffffffffffffffffffffffffffffffffffffff168173ffffffffffffffffffffffffffffffffffffffff167f8be0079c531659141344cd1fd0a4f28419497f9722a3daafe3b4186f6b6457e060405160405180910390a35050565b610f4c8061010d6000396000f3fe608060405234801561001057600080fd5b50600436106100a95760003560e01c80638da5cb5b116100715780638da5cb5b146101665780639b19251a14610184578063dc9a1535146101b4578063e2ec6ec3146101d2578063e35a899914610202578063f2fde38b14610232576100a9565b806324953eaa146100ae578063286dd3f5146100de57806344eaa84e1461010e578063715018a61461012c5780637b9417c814610136575b600080fd5b6100c860048036038101906100c39190610ada565b61024e565b6040516100d59190610bb1565b60405180910390f35b6100f860048036038101906100f39190610aad565b61031e565b6040516101059190610bb1565b60405180910390f35b6101166104a1565b6040516101239190610c0c565b60405180910390f35b6101346104ab565b005b610150600480360381019061014b9190610aad565b610533565b60405161015d9190610bb1565b60405180910390f35b61016e6106b4565b60405161017b9190610b96565b60405180910390f35b61019e60048036038101906101999190610aad565b6106dd565b6040516101ab9190610bb1565b60405180910390f35b6101bc6106fd565b6040516101c99190610bb1565b60405180910390f35b6101ec60048036038101906101e79190610ada565b610710565b6040516101f99190610bb1565b60405180910390f35b61021c60048036038101906102179190610aad565b6107e0565b6040516102299190610bb1565b60405180910390f35b61024c60048036038101906102479190610aad565b610836565b005b600061025861092e565b73ffffffffffffffffffffffffffffffffffffffff166102766106b4565b73ffffffffffffffffffffffffffffffffffffffff16146102cc576040517f08c379a00000000000000000000000000000000000000000000000000000000081526004016102c390610bec565b60405180910390fd5b60005b8251811015610318576102fb8382815181106102ee576102ed610e04565b5b602002602001015161031e565b1561030557600191505b808061031090610d8c565b9150506102cf565b50919050565b600061032861092e565b73ffffffffffffffffffffffffffffffffffffffff166103466106b4565b73ffffffffffffffffffffffffffffffffffffffff161461039c576040517f08c379a000000000000000000000000000000000000000000000000000000000815260040161039390610bec565b60405180910390fd5b600160008373ffffffffffffffffffffffffffffffffffffffff1673ffffffffffffffffffffffffffffffffffffffff16815260200190815260200160002060009054906101000a900460ff161561049c576000600160008473ffffffffffffffffffffffffffffffffffffffff1673ffffffffffffffffffffffffffffffffffffffff16815260200190815260200160002060006101000a81548160ff0219169083151502179055507ff1abf01a1043b7c244d128e8595cf0c1d10743b022b03a02dffd8ca3bf729f5a826040516104759190610b96565b60405180910390a16001600260008282546104909190610cdf565b92505081905550600190505b919050565b6000600254905090565b6104b361092e565b73ffffffffffffffffffffffffffffffffffffffff166104d16106b4565b73ffffffffffffffffffffffffffffffffffffffff1614610527576040517f08c379a000000000000000000000000000000000000000000000000000000000815260040161051e90610bec565b60405180910390fd5b6105316000610936565b565b600061053d61092e565b73ffffffffffffffffffffffffffffffffffffffff1661055b6106b4565b73ffffffffffffffffffffffffffffffffffffffff16146105b1576040517f08c379a00000000000000000000000000000000000000000000000000000000081526004016105a890610bec565b60405180910390fd5b600160008373ffffffffffffffffffffffffffffffffffffffff1673ffffffffffffffffffffffffffffffffffffffff16815260200190815260200160002060009054906101000a900460ff166106af5760018060008473ffffffffffffffffffffffffffffffffffffffff1673ffffffffffffffffffffffffffffffffffffffff16815260200190815260200160002060006101000a81548160ff0219169083151502179055507fd1bba68c128cc3f427e5831b3c6f99f480b6efa6b9e80c757768f6124158cc3f826040516106889190610b96565b60405180910390a16001600260008282546106a39190610c89565b92505081905550600190505b919050565b60008060009054906101000a900473ffffffffffffffffffffffffffffffffffffffff16905090565b60016020528060005260406000206000915054906101000a900460ff1681565b600360009054906101000a900460ff1681565b600061071a61092e565b73ffffffffffffffffffffffffffffffffffffffff166107386106b4565b73ffffffffffffffffffffffffffffffffffffffff161461078e576040517f08c379a000000000000000000000000000000000000000000000000000000000815260040161078590610bec565b60405180910390fd5b60005b82518110156107da576107bd8382815181106107b0576107af610e04565b5b6020026020010151610533565b156107c757600191505b80806107d290610d8c565b915050610791565b50919050565b6000600160008373ffffffffffffffffffffffffffffffffffffffff1673ffffffffffffffffffffffffffffffffffffffff16815260200190815260200160002060009054906101000a900460ff169050919050565b61083e61092e565b73ffffffffffffffffffffffffffffffffffffffff1661085c6106b4565b73ffffffffffffffffffffffffffffffffffffffff16146108b2576040517f08c379a00000000000000000000000000000000000000000000000000000000081526004016108a990610bec565b60405180910390fd5b600073ffffffffffffffffffffffffffffffffffffffff168173ffffffffffffffffffffffffffffffffffffffff161415610922576040517f08c379a000000000000000000000000000000000000000000000000000000000815260040161091990610bcc565b60405180910390fd5b61092b81610936565b50565b600033905090565b60008060009054906101000a900473ffffffffffffffffffffffffffffffffffffffff169050816000806101000a81548173ffffffffffffffffffffffffffffffffffffffff021916908373ffffffffffffffffffffffffffffffffffffffff1602179055508173ffffffffffffffffffffffffffffffffffffffff168173ffffffffffffffffffffffffffffffffffffffff167f8be0079c531659141344cd1fd0a4f28419497f9722a3daafe3b4186f6b6457e060405160405180910390a35050565b6000610a0d610a0884610c4c565b610c27565b90508083825260208201905082856020860282011115610a3057610a2f610e67565b5b60005b85811015610a605781610a468882610a6a565b845260208401935060208301925050600181019050610a33565b5050509392505050565b600081359050610a7981610eff565b92915050565b600082601f830112610a9457610a93610e62565b5b8135610aa48482602086016109fa565b91505092915050565b600060208284031215610ac357610ac2610e71565b5b6000610ad184828501610a6a565b91505092915050565b600060208284031215610af057610aef610e71565b5b600082013567ffffffffffffffff811115610b0e57610b0d610e6c565b5b610b1a84828501610a7f565b91505092915050565b610b2c81610d13565b82525050565b610b3b81610d25565b82525050565b6000610b4e602683610c78565b9150610b5982610e87565b604082019050919050565b6000610b71602083610c78565b9150610b7c82610ed6565b602082019050919050565b610b9081610d51565b82525050565b6000602082019050610bab6000830184610b23565b92915050565b6000602082019050610bc66000830184610b32565b92915050565b60006020820190508181036000830152610be581610b41565b9050919050565b60006020820190508181036000830152610c0581610b64565b9050919050565b6000602082019050610c216000830184610b87565b92915050565b6000610c31610c42565b9050610c3d8282610d5b565b919050565b6000604051905090565b600067ffffffffffffffff821115610c6757610c66610e33565b5b602082029050602081019050919050565b600082825260208201905092915050565b6000610c9482610d51565b9150610c9f83610d51565b9250827fffffffffffffffffffffffffffffffffffffffffffffffffffffffffffffffff03821115610cd457610cd3610dd5565b5b828201905092915050565b6000610cea82610d51565b9150610cf583610d51565b925082821015610d0857610d07610dd5565b5b828203905092915050565b6000610d1e82610d31565b9050919050565b60008115159050919050565b600073ffffffffffffffffffffffffffffffffffffffff82169050919050565b6000819050919050565b610d6482610e76565b810181811067ffffffffffffffff82111715610d8357610d82610e33565b5b80604052505050565b6000610d9782610d51565b91507fffffffffffffffffffffffffffffffffffffffffffffffffffffffffffffffff821415610dca57610dc9610dd5565b5b600182019050919050565b7f4e487b7100000000000000000000000000000000000000000000000000000000600052601160045260246000fd5b7f4e487b7100000000000000000000000000000000000000000000000000000000600052603260045260246000fd5b7f4e487b7100000000000000000000000000000000000000000000000000000000600052604160045260246000fd5b600080fd5b600080fd5b600080fd5b600080fd5b6000601f19601f8301169050919050565b7f4f776e61626c653a206e6577206f776e657220697320746865207a65726f206160008201527f6464726573730000000000000000000000000000000000000000000000000000602082015250565b7f4f776e61626c653a2063616c6c6572206973206e6f7420746865206f776e6572600082015250565b610f0881610d13565b8114610f1357600080fd5b5056fea264697066735822122013c44309da17edb16daca538fef0ec10185f0de3a32833486ee12942c2821a9b64736f6c63430008070033a264697066735822122017d1ce5228078d29973babb1a66545039ddafe3c5ea3ca983e92557a899a291d64736f6c63430008070033",
  "linkReferences": {
    "contracts/MOBALogicLibrary.sol": {
      "MOBALogicLibrary": [
        {
          "length": 20,
          "start": 2882
        },
        {
          "length": 20,
          "start": 3224
        },
        {
          "length": 20,
          "start": 5285
        }
      ]
    }
  },
  "deployedLinkReferences": {
    "contracts/MOBALogicLibrary.sol": {
      "MOBALogicLibrary": [
        {
          "length": 20,
          "start": 2597
        },
        {
          "length": 20,
          "start": 2939
        },
        {
          "length": 20,
          "start": 5000
        }
      ]
    }
  }
}