{
  "_format": "hh-sol-artifact-1",
  "contractName": "LeagueOfLegendsLogic",
  "sourceName": "contracts/LeagueOfLegendsLogic.sol",
  "abi": [
    {
      "anonymous": false,
      "inputs": [
        {
          "indexed": true,
          "internalType": "address",
          "name": "previousOwner",
          "type": "address"
        },
        {
          "indexed": true,
          "internalType": "address",
          "name": "newOwner",
          "type": "address"
        }
      ],
      "name": "OwnershipTransferred",
      "type": "event"
    },
    {
      "anonymous": false,
      "inputs": [
        {
          "indexed": false,
          "internalType": "address",
          "name": "sender",
          "type": "address"
        },
        {
          "indexed": false,
          "internalType": "uint256",
          "name": "amount",
          "type": "uint256"
        }
      ],
      "name": "Staked",
      "type": "event"
    },
    {
      "anonymous": false,
      "inputs": [
        {
          "indexed": false,
          "internalType": "address",
          "name": "addr",
          "type": "address"
        }
      ],
      "name": "WhitelistedAddressAdded",
      "type": "event"
    },
    {
      "anonymous": false,
      "inputs": [
        {
          "indexed": false,
          "internalType": "address",
          "name": "addr",
          "type": "address"
        }
      ],
      "name": "WhitelistedAddressRemoved",
      "type": "event"
    },
    {
      "anonymous": false,
      "inputs": [
        {
          "indexed": false,
          "internalType": "address",
          "name": "sender",
          "type": "address"
        },
        {
          "indexed": false,
          "internalType": "address",
          "name": "contractAddress",
          "type": "address"
        }
      ],
      "name": "testUSDCDeployed",
      "type": "event"
    },
    {
      "inputs": [
        {
          "internalType": "address",
          "name": "addr",
          "type": "address"
        }
      ],
      "name": "addAddressToWhitelist",
      "outputs": [
        {
          "internalType": "bool",
          "name": "success",
          "type": "bool"
        }
      ],
      "stateMutability": "nonpayable",
      "type": "function"
    },
    {
      "inputs": [
        {
          "internalType": "address[]",
          "name": "addrs",
          "type": "address[]"
        }
      ],
      "name": "addAddressesToWhitelist",
      "outputs": [
        {
          "internalType": "bool",
          "name": "success",
          "type": "bool"
        }
      ],
      "stateMutability": "nonpayable",
      "type": "function"
    },
    {
      "inputs": [
        {
          "internalType": "address",
          "name": "user",
          "type": "address"
        }
      ],
      "name": "addUserToLeague",
      "outputs": [],
      "stateMutability": "nonpayable",
      "type": "function"
    },
    {
      "inputs": [
        {
          "internalType": "address",
          "name": "_userToAdd",
          "type": "address"
        }
      ],
      "name": "addUserToWhitelist",
      "outputs": [],
      "stateMutability": "nonpayable",
      "type": "function"
    },
    {
      "inputs": [],
      "name": "currentWeekNum",
      "outputs": [
        {
          "internalType": "uint256",
          "name": "",
          "type": "uint256"
        }
      ],
      "stateMutability": "view",
      "type": "function"
    },
    {
      "inputs": [
        {
          "internalType": "address",
          "name": "addr1",
          "type": "address"
        },
        {
          "internalType": "address",
          "name": "addr2",
          "type": "address"
        }
      ],
      "name": "evaluateMatch",
      "outputs": [
        {
          "internalType": "address",
          "name": "",
          "type": "address"
        }
      ],
      "stateMutability": "nonpayable",
      "type": "function"
    },
    {
      "inputs": [],
      "name": "evaluateWeek",
      "outputs": [],
      "stateMutability": "nonpayable",
      "type": "function"
    },
    {
      "inputs": [],
      "name": "getAdmin",
      "outputs": [
        {
          "internalType": "address",
          "name": "",
          "type": "address"
        }
      ],
      "stateMutability": "view",
      "type": "function"
    },
    {
      "inputs": [],
      "name": "getAthleteContractAddress",
      "outputs": [
        {
          "internalType": "address",
          "name": "",
          "type": "address"
        }
      ],
      "stateMutability": "view",
      "type": "function"
    },
    {
      "inputs": [],
      "name": "getCurrentWeekNum",
      "outputs": [
        {
          "internalType": "uint256",
          "name": "",
          "type": "uint256"
        }
      ],
      "stateMutability": "view",
      "type": "function"
    },
    {
      "inputs": [],
      "name": "getLeagueName",
      "outputs": [
        {
          "internalType": "string",
          "name": "",
          "type": "string"
        }
      ],
      "stateMutability": "view",
      "type": "function"
    },
    {
      "inputs": [],
      "name": "getLineup",
      "outputs": [
        {
          "internalType": "uint256[]",
          "name": "",
          "type": "uint256[]"
        }
      ],
      "stateMutability": "view",
      "type": "function"
    },
    {
      "inputs": [],
      "name": "getStakeAmount",
      "outputs": [
        {
          "internalType": "uint256",
          "name": "",
          "type": "uint256"
        }
      ],
      "stateMutability": "view",
      "type": "function"
    },
    {
      "inputs": [],
      "name": "getTestUSDCAddress",
      "outputs": [
        {
          "internalType": "address",
          "name": "",
          "type": "address"
        }
      ],
      "stateMutability": "view",
      "type": "function"
    },
    {
      "inputs": [],
      "name": "getTotalPrizePot",
      "outputs": [
        {
          "internalType": "uint256",
          "name": "",
          "type": "uint256"
        }
      ],
      "stateMutability": "view",
      "type": "function"
    },
    {
      "inputs": [],
      "name": "getUSDCBalance",
      "outputs": [
        {
          "internalType": "uint256",
          "name": "",
          "type": "uint256"
        }
      ],
      "stateMutability": "view",
      "type": "function"
    },
    {
      "inputs": [],
      "name": "getUserRecord",
      "outputs": [
        {
          "internalType": "uint256[8]",
          "name": "",
          "type": "uint256[8]"
        }
      ],
      "stateMutability": "view",
      "type": "function"
    },
    {
      "inputs": [],
      "name": "getUserTotalPts",
      "outputs": [
        {
          "internalType": "uint256",
          "name": "",
          "type": "uint256"
        }
      ],
      "stateMutability": "view",
      "type": "function"
    },
    {
      "inputs": [],
      "name": "getUserUSDCBalance",
      "outputs": [
        {
          "internalType": "uint256",
          "name": "",
          "type": "uint256"
        }
      ],
      "stateMutability": "view",
      "type": "function"
    },
    {
      "inputs": [],
      "name": "getUsersLength",
      "outputs": [
        {
          "internalType": "uint256",
          "name": "",
          "type": "uint256"
        }
      ],
      "stateMutability": "view",
      "type": "function"
    },
    {
      "inputs": [],
      "name": "getVersion",
      "outputs": [
        {
          "internalType": "uint256",
          "name": "version",
          "type": "uint256"
        }
      ],
      "stateMutability": "pure",
      "type": "function"
    },
    {
      "inputs": [
        {
          "internalType": "string",
          "name": "_name",
          "type": "string"
        },
        {
          "internalType": "uint256",
          "name": "_numWeeks",
          "type": "uint256"
        },
        {
          "internalType": "uint256",
          "name": "_stakeAmount",
          "type": "uint256"
        },
        {
          "internalType": "bool",
          "name": "_isPublic",
          "type": "bool"
        },
        {
          "internalType": "address",
          "name": "athletesDataStorageAddress",
          "type": "address"
        },
        {
          "internalType": "address",
          "name": "_admin",
          "type": "address"
        },
        {
          "internalType": "address",
          "name": "_polygonUSDCAddress",
          "type": "address"
        },
        {
          "internalType": "address",
          "name": "_rinkebyUSDCAddress",
          "type": "address"
        },
        {
          "internalType": "address",
          "name": "_testUSDCAddress",
          "type": "address"
        },
        {
          "internalType": "address",
          "name": "leagueMakerContractAddress",
          "type": "address"
        }
      ],
      "name": "initialize",
      "outputs": [],
      "stateMutability": "nonpayable",
      "type": "function"
    },
    {
      "inputs": [],
      "name": "isPublic",
      "outputs": [
        {
          "internalType": "bool",
          "name": "",
          "type": "bool"
        }
      ],
      "stateMutability": "view",
      "type": "function"
    },
    {
      "inputs": [],
      "name": "joinLeague",
      "outputs": [],
      "stateMutability": "nonpayable",
      "type": "function"
    },
    {
      "inputs": [
        {
          "internalType": "uint256",
          "name": "",
          "type": "uint256"
        }
      ],
      "name": "leagueMembers",
      "outputs": [
        {
          "internalType": "address",
          "name": "",
          "type": "address"
        }
      ],
      "stateMutability": "view",
      "type": "function"
    },
    {
      "inputs": [],
      "name": "leagueName",
      "outputs": [
        {
          "internalType": "string",
          "name": "",
          "type": "string"
        }
      ],
      "stateMutability": "view",
      "type": "function"
    },
    {
      "inputs": [],
      "name": "lockLineup",
      "outputs": [],
      "stateMutability": "nonpayable",
      "type": "function"
    },
    {
      "inputs": [],
      "name": "numWeeks",
      "outputs": [
        {
          "internalType": "uint256",
          "name": "",
          "type": "uint256"
        }
      ],
      "stateMutability": "view",
      "type": "function"
    },
    {
      "inputs": [],
      "name": "onLeagueEnd",
      "outputs": [],
      "stateMutability": "nonpayable",
      "type": "function"
    },
    {
      "inputs": [],
      "name": "owner",
      "outputs": [
        {
          "internalType": "address",
          "name": "",
          "type": "address"
        }
      ],
      "stateMutability": "view",
      "type": "function"
    },
    {
      "inputs": [],
      "name": "polygonUSDCAddress",
      "outputs": [
        {
          "internalType": "address",
          "name": "",
          "type": "address"
        }
      ],
      "stateMutability": "view",
      "type": "function"
    },
    {
      "inputs": [
        {
          "internalType": "address",
          "name": "addr",
          "type": "address"
        }
      ],
      "name": "removeAddressFromWhitelist",
      "outputs": [
        {
          "internalType": "bool",
          "name": "success",
          "type": "bool"
        }
      ],
      "stateMutability": "nonpayable",
      "type": "function"
    },
    {
      "inputs": [
        {
          "internalType": "address[]",
          "name": "addrs",
          "type": "address[]"
        }
      ],
      "name": "removeAddressesFromWhitelist",
      "outputs": [
        {
          "internalType": "bool",
          "name": "success",
          "type": "bool"
        }
      ],
      "stateMutability": "nonpayable",
      "type": "function"
    },
    {
      "inputs": [
        {
          "internalType": "address",
          "name": "_userToRemove",
          "type": "address"
        }
      ],
      "name": "removeFromLeague",
      "outputs": [],
      "stateMutability": "nonpayable",
      "type": "function"
    },
    {
      "inputs": [],
      "name": "renounceOwnership",
      "outputs": [],
      "stateMutability": "nonpayable",
      "type": "function"
    },
    {
      "inputs": [],
      "name": "rinkebyUSDCAddress",
      "outputs": [
        {
          "internalType": "address",
          "name": "",
          "type": "address"
        }
      ],
      "stateMutability": "view",
      "type": "function"
    },
    {
      "inputs": [],
      "name": "setLeagueEntryIsClosed",
      "outputs": [],
      "stateMutability": "nonpayable",
      "type": "function"
    },
    {
      "inputs": [],
      "name": "setLeagueSchedule",
      "outputs": [],
      "stateMutability": "nonpayable",
      "type": "function"
    },
    {
      "inputs": [
        {
          "internalType": "uint256[]",
          "name": "athleteIds",
          "type": "uint256[]"
        }
      ],
      "name": "setLineup",
      "outputs": [],
      "stateMutability": "nonpayable",
      "type": "function"
    },
    {
      "inputs": [],
      "name": "stakeAmount",
      "outputs": [
        {
          "internalType": "uint256",
          "name": "",
          "type": "uint256"
        }
      ],
      "stateMutability": "view",
      "type": "function"
    },
    {
      "inputs": [
        {
          "internalType": "address",
          "name": "newOwner",
          "type": "address"
        }
      ],
      "name": "transferOwnership",
      "outputs": [],
      "stateMutability": "nonpayable",
      "type": "function"
    },
    {
      "inputs": [],
      "name": "unlockLineup",
      "outputs": [],
      "stateMutability": "nonpayable",
      "type": "function"
    },
    {
      "inputs": [
        {
          "internalType": "address",
          "name": "",
          "type": "address"
        },
        {
          "internalType": "uint256",
          "name": "",
          "type": "uint256"
        }
      ],
      "name": "userToRecord",
      "outputs": [
        {
          "internalType": "uint256",
          "name": "",
          "type": "uint256"
        }
      ],
      "stateMutability": "view",
      "type": "function"
    },
    {
      "inputs": [
        {
          "internalType": "address",
          "name": "",
          "type": "address"
        }
      ],
      "name": "whitelist",
      "outputs": [
        {
          "internalType": "bool",
          "name": "",
          "type": "bool"
        }
      ],
      "stateMutability": "view",
      "type": "function"
    }
  ],
  "bytecode": "0x60806040523480156200001157600080fd5b5062000032620000266200003860201b60201c565b6200004060201b60201c565b62000105565b600033905090565b60008060029054906101000a900473ffffffffffffffffffffffffffffffffffffffff16905081600060026101000a81548173ffffffffffffffffffffffffffffffffffffffff021916908373ffffffffffffffffffffffffffffffffffffffff1602179055508173ffffffffffffffffffffffffffffffffffffffff168173ffffffffffffffffffffffffffffffffffffffff167f8be0079c531659141344cd1fd0a4f28419497f9722a3daafe3b4186f6b6457e060405160405180910390a35050565b614fe480620001156000396000f3fe60806040523480156200001157600080fd5b5060043610620002af5760003560e01c8063747b80501162000171578063a2bc091a11620000d5578063dc9a15351162000093578063dc9a153514620007aa578063e2ec6ec314620007cc578063e4c9066b1462000802578063f2fde38b146200080e578063f612121a146200082e578063f8816045146200084e57620002af565b8063a2bc091a1462000742578063ada3a28d146200074e578063c8be3b5b1462000770578063c99fea94146200077c578063cdbba4c6146200078857620002af565b8063853976dd116200012f578063853976dd146200064e5780638caec7a814620006845780638da5cb5b14620006a657806393f3706c14620006c857806399a6003414620006ea5780639b19251a146200070c57620002af565b8063747b805014620005a85780637b9417c814620005c85780637eed33f114620005fe578063841abf6e146200062057806385334ffa146200064257620002af565b8063403570c511620002195780635fcc698711620001d75780635fcc698714620004f257806360c7dc4714620005145780636bdc44df14620005365780636e9960c31462000558578063715018a6146200057a578063722580b6146200058657620002af565b8063403570c5146200044a57806352e6e5f3146200046c578063595b1a3e146200048e5780635d514d6914620004b05780635ec0b4f714620004d057620002af565b80630d8e6e2c11620002735780630d8e6e2c14620003585780631d803e00146200037a57806324953eaa1462000386578063267175db14620003bc578063286dd3f514620003f25780633cfd1ccc146200042857620002af565b8062b2476f14620002b45780630655465a14620002d657806306d60c2414620002e2578063087e18a714620003025780630c6f79591462000322575b600080fd5b620002be62000870565b604051620002cd919062003563565b60405180910390f35b620002e062000896565b005b620003006004803603810190620002fa919062002e22565b620009d1565b005b6200032060048036038101906200031a919062002e22565b62000b6e565b005b6200034060048036038101906200033a919062002ecd565b62000d74565b6040516200034f9190620038b8565b60405180910390f35b6200036262000d9d565b604051620003719190620038b8565b60405180910390f35b6200038462000da2565b005b620003a460048036038101906200039e919062002f14565b62001040565b604051620003b39190620036c8565b60405180910390f35b620003da6004803603810190620003d4919062003102565b6200113d565b604051620003e9919062003563565b60405180910390f35b6200041060048036038101906200040a919062002e22565b6200117d565b6040516200041f9190620036c8565b60405180910390f35b620004326200130c565b604051620004419190620038b8565b60405180910390f35b62000454620013c4565b604051620004639190620037a6565b60405180910390f35b620004766200145e565b604051620004859190620038b8565b60405180910390f35b6200049862001464565b604051620004a79190620038b8565b60405180910390f35b620004ce6004803603810190620004c8919062002fe8565b62001471565b005b620004da62001871565b604051620004e99190620038b8565b60405180910390f35b620004fc6200187b565b6040516200050b9190620038b8565b60405180910390f35b6200051e62001933565b6040516200052d9190620038b8565b60405180910390f35b6200054062001939565b6040516200054f9190620038b8565b60405180910390f35b6200056262001980565b60405162000571919062003563565b60405180910390f35b62000584620019aa565b005b6200059062001a3b565b6040516200059f9190620038b8565b60405180910390f35b620005c66004803603810190620005c0919062002e22565b62001a45565b005b620005e66004803603810190620005e0919062002e22565b62001b8f565b604051620005f59190620036c8565b60405180910390f35b6200060862001d1c565b604051620006179190620038b8565b60405180910390f35b6200062a62001d22565b604051620006399190620037a6565b60405180910390f35b6200064c62001db8565b005b6200066c600480360381019062000666919062002e86565b62001eda565b6040516200067b919062003563565b60405180910390f35b6200068e62002021565b6040516200069d919062003563565b60405180910390f35b620006b06200204b565b604051620006bf919062003563565b60405180910390f35b620006d262002074565b604051620006e1919062003563565b60405180910390f35b620006f46200209a565b604051620007039190620038b8565b60405180910390f35b6200072a600480360381019062000724919062002e22565b620020b6565b604051620007399190620036c8565b60405180910390f35b6200074c620020d6565b005b6200075862002176565b604051620007679190620036a4565b60405180910390f35b6200077a6200220d565b005b62000786620022ad565b005b62000792620024cb565b604051620007a1919062003563565b60405180910390f35b620007b4620024f5565b604051620007c39190620036c8565b60405180910390f35b620007ea6004803603810190620007e4919062002f14565b62002508565b604051620007f99190620036c8565b60405180910390f35b6200080c62002605565b005b6200082c600480360381019062000826919062002e22565b620026a5565b005b6200084c600480360381019062000846919062002f65565b620027a9565b005b6200085862002855565b60405162000867919062003686565b60405180910390f35b600f60009054906101000a900473ffffffffffffffffffffffffffffffffffffffff1681565b620008a0620028e1565b73ffffffffffffffffffffffffffffffffffffffff16620008c06200204b565b73ffffffffffffffffffffffffffffffffffffffff161462000919576040517f08c379a0000000000000000000000000000000000000000000000000000000008152600401620009109062003830565b60405180910390fd5b620009596040518060400160405280601081526020017f73657474696e67207363686564756c6500000000000000000000000000000000815250620028e9565b73__$36fdb4e0c2cb91f3ceca5ea81b025328f3$__63d2c232b5600d600860055460046040518563ffffffff1660e01b81526004016200099d9493929190620036e5565b60006040518083038186803b158015620009b657600080fd5b505af4158015620009cb573d6000803e3d6000fd5b50505050565b600960009054906101000a900473ffffffffffffffffffffffffffffffffffffffff1673ffffffffffffffffffffffffffffffffffffffff163373ffffffffffffffffffffffffffffffffffffffff161462000a64576040517f08c379a000000000000000000000000000000000000000000000000000000000815260040162000a5b9062003852565b60405180910390fd5b600960149054906101000a900460ff161562000ab7576040517f08c379a000000000000000000000000000000000000000000000000000000000815260040162000aae9062003874565b60405180910390fd5b601160009054906101000a900473ffffffffffffffffffffffffffffffffffffffff1673ffffffffffffffffffffffffffffffffffffffff1663286dd3f5826040518263ffffffff1660e01b815260040162000b14919062003563565b602060405180830381600087803b15801562000b2f57600080fd5b505af115801562000b44573d6000803e3d6000fd5b505050506040513d601f19601f8201168201806040525081019062000b6a919062002fb6565b5050565b62000b78620028e1565b73ffffffffffffffffffffffffffffffffffffffff1662000b986200204b565b73ffffffffffffffffffffffffffffffffffffffff161462000bf1576040517f08c379a000000000000000000000000000000000000000000000000000000000815260040162000be89062003830565b60405180910390fd5b600960149054906101000a900460ff161562000c44576040517f08c379a000000000000000000000000000000000000000000000000000000000815260040162000c3b9062003896565b60405180910390fd5b60088080549050101562000d4c576008819080600181540180825580915050600190039060005260206000200160009091909190916101000a81548173ffffffffffffffffffffffffffffffffffffffff021916908373ffffffffffffffffffffffffffffffffffffffff160217905550601260009054906101000a900473ffffffffffffffffffffffffffffffffffffffff1673ffffffffffffffffffffffffffffffffffffffff1663771bd4ce826040518263ffffffff1660e01b815260040162000d12919062003563565b600060405180830381600087803b15801562000d2d57600080fd5b505af115801562000d42573d6000803e3d6000fd5b5050505062000d71565b62000d7060405180606001604052806029815260200162004f8660299139620028e9565b5b50565b600b602052816000526040600020816008811062000d9157600080fd5b01600091509150505481565b600090565b600960009054906101000a900473ffffffffffffffffffffffffffffffffffffffff1673ffffffffffffffffffffffffffffffffffffffff163373ffffffffffffffffffffffffffffffffffffffff161462000e35576040517f08c379a000000000000000000000000000000000000000000000000000000000815260040162000e2c9062003852565b60405180910390fd5b600060088054905060075462000e4c919062003a9f565b90506000805b60088054905081101562000f8357600a60008373ffffffffffffffffffffffffffffffffffffffff1673ffffffffffffffffffffffffffffffffffffffff16815260200190815260200160002054600a60006008848154811062000ebb5762000eba62003d37565b5b9060005260206000200160009054906101000a900473ffffffffffffffffffffffffffffffffffffffff1673ffffffffffffffffffffffffffffffffffffffff1673ffffffffffffffffffffffffffffffffffffffff16815260200190815260200160002054111562000f6d576008818154811062000f3f5762000f3e62003d37565b5b9060005260206000200160009054906101000a900473ffffffffffffffffffffffffffffffffffffffff1691505b808062000f7a9062003c8b565b91505062000e52565b50601360009054906101000a900473ffffffffffffffffffffffffffffffffffffffff1673ffffffffffffffffffffffffffffffffffffffff166323b872dd3330856040518463ffffffff1660e01b815260040162000fe59392919062003580565b602060405180830381600087803b1580156200100057600080fd5b505af115801562001015573d6000803e3d6000fd5b505050506040513d601f19601f820116820180604052508101906200103b919062002fb6565b505050565b60006200104c620028e1565b73ffffffffffffffffffffffffffffffffffffffff166200106c6200204b565b73ffffffffffffffffffffffffffffffffffffffff1614620010c5576040517f08c379a0000000000000000000000000000000000000000000000000000000008152600401620010bc9062003830565b60405180910390fd5b60005b82518110156200113757620010fa838281518110620010ec57620010eb62003d37565b5b60200260200101516200117d565b15620011215760016002600082825462001115919062003b00565b92505081905550600191505b80806200112e9062003c8b565b915050620010c8565b50919050565b600881815481106200114e57600080fd5b906000526020600020016000915054906101000a900473ffffffffffffffffffffffffffffffffffffffff1681565b600062001189620028e1565b73ffffffffffffffffffffffffffffffffffffffff16620011a96200204b565b73ffffffffffffffffffffffffffffffffffffffff161462001202576040517f08c379a0000000000000000000000000000000000000000000000000000000008152600401620011f99062003830565b60405180910390fd5b600160008373ffffffffffffffffffffffffffffffffffffffff1673ffffffffffffffffffffffffffffffffffffffff16815260200190815260200160002060009054906101000a900460ff161562001307576000600160008473ffffffffffffffffffffffffffffffffffffffff1673ffffffffffffffffffffffffffffffffffffffff16815260200190815260200160002060006101000a81548160ff0219169083151502179055507ff1abf01a1043b7c244d128e8595cf0c1d10743b022b03a02dffd8ca3bf729f5a82604051620012de919062003563565b60405180910390a1600160026000828254620012fb919062003b00565b92505081905550600190505b919050565b6000601360009054906101000a900473ffffffffffffffffffffffffffffffffffffffff1673ffffffffffffffffffffffffffffffffffffffff166370a08231306040518263ffffffff1660e01b81526004016200136b919062003563565b60206040518083038186803b1580156200138457600080fd5b505afa15801562001399573d6000803e3d6000fd5b505050506040513d601f19601f82011682018060405250810190620013bf919062003134565b905090565b606060048054620013d59062003c01565b80601f0160208091040260200160405190810160405280929190818152602001828054620014039062003c01565b8015620014545780601f10620014285761010080835404028352916020019162001454565b820191906000526020600020905b8154815290600101906020018083116200143657829003601f168201915b5050505050905090565b60065481565b6000600880549050905090565b600060019054906101000a900460ff166200149b5760008054906101000a900460ff1615620014a6565b620014a562002986565b5b620014e8576040517f08c379a0000000000000000000000000000000000000000000000000000000008152600401620014df906200380e565b60405180910390fd5b60008060019054906101000a900460ff16159050801562001539576001600060016101000a81548160ff02191690831515021790555060016000806101000a81548160ff0219169083151502179055505b8b8b600491906200154c92919062002aaa565b5060086005819055506008869080600181540180825580915050600190039060005260206000200160009091909190916101000a81548173ffffffffffffffffffffffffffffffffffffffff021916908373ffffffffffffffffffffffffffffffffffffffff16021790555085600960006101000a81548173ffffffffffffffffffffffffffffffffffffffff021916908373ffffffffffffffffffffffffffffffffffffffff1602179055508860078190555087600360006101000a81548160ff0219169083151502179055506000600960156101000a81548160ff0219169083151502179055506000600960146101000a81548160ff02191690831515021790555086601060006101000a81548173ffffffffffffffffffffffffffffffffffffffff021916908373ffffffffffffffffffffffffffffffffffffffff16021790555081601260006101000a81548173ffffffffffffffffffffffffffffffffffffffff021916908373ffffffffffffffffffffffffffffffffffffffff160217905550604051620016e09062002b3b565b604051809103906000f080158015620016fd573d6000803e3d6000fd5b50601160006101000a81548173ffffffffffffffffffffffffffffffffffffffff021916908373ffffffffffffffffffffffffffffffffffffffff16021790555084600e60006101000a81548173ffffffffffffffffffffffffffffffffffffffff021916908373ffffffffffffffffffffffffffffffffffffffff16021790555083600f60006101000a81548173ffffffffffffffffffffffffffffffffffffffff021916908373ffffffffffffffffffffffffffffffffffffffff16021790555082601360006101000a81548173ffffffffffffffffffffffffffffffffffffffff021916908373ffffffffffffffffffffffffffffffffffffffff160217905550620018416040518060400160405280601281526020017f50726f787920696e697469616c697a6564210000000000000000000000000000815250620028e9565b8015620018635760008060016101000a81548160ff0219169083151502179055505b505050505050505050505050565b6000600654905090565b6000601360009054906101000a900473ffffffffffffffffffffffffffffffffffffffff1673ffffffffffffffffffffffffffffffffffffffff166370a08231336040518263ffffffff1660e01b8152600401620018da919062003563565b60206040518083038186803b158015620018f357600080fd5b505afa15801562001908573d6000803e3d6000fd5b505050506040513d601f19601f820116820180604052508101906200192e919062003134565b905090565b60075481565b6000600a60003373ffffffffffffffffffffffffffffffffffffffff1673ffffffffffffffffffffffffffffffffffffffff16815260200190815260200160002054905090565b6000600960009054906101000a900473ffffffffffffffffffffffffffffffffffffffff16905090565b620019b4620028e1565b73ffffffffffffffffffffffffffffffffffffffff16620019d46200204b565b73ffffffffffffffffffffffffffffffffffffffff161462001a2d576040517f08c379a000000000000000000000000000000000000000000000000000000000815260040162001a249062003830565b60405180910390fd5b62001a39600062002999565b565b6000600754905090565b600960009054906101000a900473ffffffffffffffffffffffffffffffffffffffff1673ffffffffffffffffffffffffffffffffffffffff163373ffffffffffffffffffffffffffffffffffffffff161462001ad8576040517f08c379a000000000000000000000000000000000000000000000000000000000815260040162001acf9062003852565b60405180910390fd5b601160009054906101000a900473ffffffffffffffffffffffffffffffffffffffff1673ffffffffffffffffffffffffffffffffffffffff16637b9417c8826040518263ffffffff1660e01b815260040162001b35919062003563565b602060405180830381600087803b15801562001b5057600080fd5b505af115801562001b65573d6000803e3d6000fd5b505050506040513d601f19601f8201168201806040525081019062001b8b919062002fb6565b5050565b600062001b9b620028e1565b73ffffffffffffffffffffffffffffffffffffffff1662001bbb6200204b565b73ffffffffffffffffffffffffffffffffffffffff161462001c14576040517f08c379a000000000000000000000000000000000000000000000000000000000815260040162001c0b9062003830565b60405180910390fd5b600160008373ffffffffffffffffffffffffffffffffffffffff1673ffffffffffffffffffffffffffffffffffffffff16815260200190815260200160002060009054906101000a900460ff1662001d175760018060008473ffffffffffffffffffffffffffffffffffffffff1673ffffffffffffffffffffffffffffffffffffffff16815260200190815260200160002060006101000a81548160ff0219169083151502179055507fd1bba68c128cc3f427e5831b3c6f99f480b6efa6b9e80c757768f6124158cc3f8260405162001cee919062003563565b60405180910390a160016002600082825462001d0b919062003a42565b92505081905550600190505b919050565b60055481565b6004805462001d319062003c01565b80601f016020809104026020016040519081016040528092919081815260200182805462001d5f9062003c01565b801562001db05780601f1062001d845761010080835404028352916020019162001db0565b820191906000526020600020905b81548152906001019060200180831162001d9257829003601f168201915b505050505081565b62001dc2620028e1565b73ffffffffffffffffffffffffffffffffffffffff1662001de26200204b565b73ffffffffffffffffffffffffffffffffffffffff161462001e3b576040517f08c379a000000000000000000000000000000000000000000000000000000000815260040162001e329062003830565b60405180910390fd5b73__$36fdb4e0c2cb91f3ceca5ea81b025328f3$__63c406e268600d600654601060009054906101000a900473ffffffffffffffffffffffffffffffffffffffff16600b600a600c6040518763ffffffff1660e01b815260040162001ea69695949392919062003739565b60006040518083038186803b15801562001ebf57600080fd5b505af415801562001ed4573d6000803e3d6000fd5b50505050565b600073__$36fdb4e0c2cb91f3ceca5ea81b025328f3$__63fb0841fb8484600654601060009054906101000a900473ffffffffffffffffffffffffffffffffffffffff16600c60008a73ffffffffffffffffffffffffffffffffffffffff1673ffffffffffffffffffffffffffffffffffffffff168152602001908152602001600020600c60008a73ffffffffffffffffffffffffffffffffffffffff1673ffffffffffffffffffffffffffffffffffffffff168152602001908152602001600020600b600a6040518963ffffffff1660e01b815260040162001fc5989796959493929190620035bd565b60206040518083038186803b15801562001fde57600080fd5b505af415801562001ff3573d6000803e3d6000fd5b505050506040513d601f19601f8201168201806040525081019062002019919062002e54565b905092915050565b6000601060009054906101000a900473ffffffffffffffffffffffffffffffffffffffff16905090565b60008060029054906101000a900473ffffffffffffffffffffffffffffffffffffffff16905090565b600e60009054906101000a900473ffffffffffffffffffffffffffffffffffffffff1681565b6000600880549050600754620020b1919062003a9f565b905090565b60016020528060005260406000206000915054906101000a900460ff1681565b620020e0620028e1565b73ffffffffffffffffffffffffffffffffffffffff16620021006200204b565b73ffffffffffffffffffffffffffffffffffffffff161462002159576040517f08c379a0000000000000000000000000000000000000000000000000000000008152600401620021509062003830565b60405180910390fd5b6000600960156101000a81548160ff021916908315150217905550565b6060600c60003373ffffffffffffffffffffffffffffffffffffffff1673ffffffffffffffffffffffffffffffffffffffff1681526020019081526020016000208054806020026020016040519081016040528092919081815260200182805480156200220357602002820191906000526020600020905b815481526020019060010190808311620021ee575b5050505050905090565b62002217620028e1565b73ffffffffffffffffffffffffffffffffffffffff16620022376200204b565b73ffffffffffffffffffffffffffffffffffffffff161462002290576040517f08c379a0000000000000000000000000000000000000000000000000000000008152600401620022879062003830565b60405180910390fd5b6001600960156101000a81548160ff021916908315150217905550565b600160003373ffffffffffffffffffffffffffffffffffffffff1673ffffffffffffffffffffffffffffffffffffffff16815260200190815260200160002060009054906101000a900460ff1680620023125750600360009054906101000a900460ff165b6200231c57600080fd5b600960149054906101000a900460ff16156200236f576040517f08c379a0000000000000000000000000000000000000000000000000000000008152600401620023669062003896565b60405180910390fd5b6008339080600181540180825580915050600190039060005260206000200160009091909190916101000a81548173ffffffffffffffffffffffffffffffffffffffff021916908373ffffffffffffffffffffffffffffffffffffffff160217905550601360009054906101000a900473ffffffffffffffffffffffffffffffffffffffff1673ffffffffffffffffffffffffffffffffffffffff166323b872dd33306007546040518463ffffffff1660e01b8152600401620024359392919062003580565b602060405180830381600087803b1580156200245057600080fd5b505af115801562002465573d6000803e3d6000fd5b505050506040513d601f19601f820116820180604052508101906200248b919062002fb6565b507f9e71bc8eea02a63969f509818f2dafb9254532904319f9dbda79b67bd34a5f3d33600754604051620024c192919062003659565b60405180910390a1565b6000601360009054906101000a900473ffffffffffffffffffffffffffffffffffffffff16905090565b600360009054906101000a900460ff1681565b600062002514620028e1565b73ffffffffffffffffffffffffffffffffffffffff16620025346200204b565b73ffffffffffffffffffffffffffffffffffffffff16146200258d576040517f08c379a0000000000000000000000000000000000000000000000000000000008152600401620025849062003830565b60405180910390fd5b60005b8251811015620025ff57620025c2838281518110620025b457620025b362003d37565b5b602002602001015162001b8f565b15620025e957600160026000828254620025dd919062003a42565b92505081905550600191505b8080620025f69062003c8b565b91505062002590565b50919050565b6200260f620028e1565b73ffffffffffffffffffffffffffffffffffffffff166200262f6200204b565b73ffffffffffffffffffffffffffffffffffffffff161462002688576040517f08c379a00000000000000000000000000000000000000000000000000000000081526004016200267f9062003830565b60405180910390fd5b6001600960146101000a81548160ff021916908315150217905550565b620026af620028e1565b73ffffffffffffffffffffffffffffffffffffffff16620026cf6200204b565b73ffffffffffffffffffffffffffffffffffffffff161462002728576040517f08c379a00000000000000000000000000000000000000000000000000000000081526004016200271f9062003830565b60405180910390fd5b600073ffffffffffffffffffffffffffffffffffffffff168173ffffffffffffffffffffffffffffffffffffffff1614156200279b576040517f08c379a00000000000000000000000000000000000000000000000000000000081526004016200279290620037ca565b60405180910390fd5b620027a68162002999565b50565b600960159054906101000a900460ff1615620027fc576040517f08c379a0000000000000000000000000000000000000000000000000000000008152600401620027f390620037ec565b60405180910390fd5b80600c60003373ffffffffffffffffffffffffffffffffffffffff1673ffffffffffffffffffffffffffffffffffffffff16815260200190815260200160002090805190602001906200285192919062002b49565b5050565b6200285f62002b9b565b600b60003373ffffffffffffffffffffffffffffffffffffffff1673ffffffffffffffffffffffffffffffffffffffff168152602001908152602001600020600880602002604051908101604052809291908260088015620028d7576020028201915b815481526020019060010190808311620028c2575b5050505050905090565b600033905090565b6200298381604051602401620029009190620037a6565b6040516020818303038152906040527f41304fac000000000000000000000000000000000000000000000000000000007bffffffffffffffffffffffffffffffffffffffffffffffffffffffff19166020820180517bffffffffffffffffffffffffffffffffffffffffffffffffffffffff838183161783525050505062002a5e565b50565b6000620029933062002a87565b15905090565b60008060029054906101000a900473ffffffffffffffffffffffffffffffffffffffff16905081600060026101000a81548173ffffffffffffffffffffffffffffffffffffffff021916908373ffffffffffffffffffffffffffffffffffffffff1602179055508173ffffffffffffffffffffffffffffffffffffffff168173ffffffffffffffffffffffffffffffffffffffff167f8be0079c531659141344cd1fd0a4f28419497f9722a3daafe3b4186f6b6457e060405160405180910390a35050565b60008151905060006a636f6e736f6c652e6c6f679050602083016000808483855afa5050505050565b6000808273ffffffffffffffffffffffffffffffffffffffff163b119050919050565b82805462002ab89062003c01565b90600052602060002090601f01602090048101928262002adc576000855562002b28565b82601f1062002af757803560ff191683800117855562002b28565b8280016001018555821562002b28579182015b8281111562002b2757823582559160200191906001019062002b0a565b5b50905062002b37919062002bbe565b5090565b610f9f8062003fe783390190565b82805482825590600052602060002090810192821562002b88579160200282015b8281111562002b8757825182559160200191906001019062002b6a565b5b50905062002b97919062002bbe565b5090565b604051806101000160405280600890602082028036833780820191505090505090565b5b8082111562002bd957600081600090555060010162002bbf565b5090565b600062002bf462002bee84620038fe565b620038d5565b9050808382526020820190508285602086028201111562002c1a5762002c1962003db4565b5b60005b8581101562002c4e578162002c33888262002cd3565b84526020840193506020830192505060018101905062002c1d565b5050509392505050565b600062002c6f62002c69846200392d565b620038d5565b9050808382526020820190508285602086028201111562002c955762002c9462003db4565b5b60005b8581101562002cc9578162002cae888262002df4565b84526020840193506020830192505060018101905062002c98565b5050509392505050565b60008135905062002ce48162003f98565b92915050565b60008151905062002cfb8162003f98565b92915050565b600082601f83011262002d195762002d1862003daf565b5b813562002d2b84826020860162002bdd565b91505092915050565b600082601f83011262002d4c5762002d4b62003daf565b5b813562002d5e84826020860162002c58565b91505092915050565b60008135905062002d788162003fb2565b92915050565b60008151905062002d8f8162003fb2565b92915050565b60008083601f84011262002dae5762002dad62003daf565b5b8235905067ffffffffffffffff81111562002dce5762002dcd62003daa565b5b60208301915083600182028301111562002ded5762002dec62003db4565b5b9250929050565b60008135905062002e058162003fcc565b92915050565b60008151905062002e1c8162003fcc565b92915050565b60006020828403121562002e3b5762002e3a62003dbe565b5b600062002e4b8482850162002cd3565b91505092915050565b60006020828403121562002e6d5762002e6c62003dbe565b5b600062002e7d8482850162002cea565b91505092915050565b6000806040838503121562002ea05762002e9f62003dbe565b5b600062002eb08582860162002cd3565b925050602062002ec38582860162002cd3565b9150509250929050565b6000806040838503121562002ee75762002ee662003dbe565b5b600062002ef78582860162002cd3565b925050602062002f0a8582860162002df4565b9150509250929050565b60006020828403121562002f2d5762002f2c62003dbe565b5b600082013567ffffffffffffffff81111562002f4e5762002f4d62003db9565b5b62002f5c8482850162002d01565b91505092915050565b60006020828403121562002f7e5762002f7d62003dbe565b5b600082013567ffffffffffffffff81111562002f9f5762002f9e62003db9565b5b62002fad8482850162002d34565b91505092915050565b60006020828403121562002fcf5762002fce62003dbe565b5b600062002fdf8482850162002d7e565b91505092915050565b60008060008060008060008060008060006101408c8e03121562003011576200301062003dbe565b5b60008c013567ffffffffffffffff81111562003032576200303162003db9565b5b620030408e828f0162002d95565b9b509b50506020620030558e828f0162002df4565b9950506040620030688e828f0162002df4565b98505060606200307b8e828f0162002d67565b97505060806200308e8e828f0162002cd3565b96505060a0620030a18e828f0162002cd3565b95505060c0620030b48e828f0162002cd3565b94505060e0620030c78e828f0162002cd3565b935050610100620030db8e828f0162002cd3565b925050610120620030ef8e828f0162002cd3565b9150509295989b509295989b9093969950565b6000602082840312156200311b576200311a62003dbe565b5b60006200312b8482850162002df4565b91505092915050565b6000602082840312156200314d576200314c62003dbe565b5b60006200315d8482850162002e0b565b91505092915050565b60006200317483836200351f565b60208301905092915050565b60006200318e838362003552565b60208301905092915050565b620031a58162003b45565b82525050565b620031b68162003b45565b82525050565b8082525050565b620031ce81620039a0565b620031da8184620039f3565b9250620031e7826200395c565b8060005b838110156200321e57815162003202878262003166565b96506200320f83620039cc565b925050600181019050620031eb565b505050505050565b60006200323382620039ab565b6200323f8185620039fe565b93506200324c8362003966565b8060005b838110156200328357815162003267888262003166565b97506200327483620039d9565b92505060018101905062003250565b5085935050505092915050565b60006200329d82620039b6565b620032a9818562003a0f565b9350620032b68362003976565b8060005b83811015620032f657620032ce8262003d95565b620032da888262003180565b9750620032e783620039e6565b925050600181019050620032ba565b5085935050505092915050565b6200330e8162003b59565b82525050565b6200331f8162003b8f565b82525050565b8082525050565b8082525050565b8082525050565b8082525050565b60006200334e82620039c1565b6200335a818562003a20565b93506200336c81856020860162003bcb565b620033778162003dc3565b840191505092915050565b60008154620033918162003c01565b6200339d818662003a31565b94506001821660008114620033bb5760018114620033ce5762003405565b60ff198316865260208601935062003405565b620033d9856200398b565b60005b83811015620033fd57815481890152600182019150602081019050620033dc565b808801955050505b50505092915050565b60006200341d60268362003a20565b91506200342a8262003de1565b604082019050919050565b600062003444601e8362003a20565b9150620034518262003e30565b602082019050919050565b60006200346b602e8362003a20565b9150620034788262003e59565b604082019050919050565b60006200349260208362003a20565b91506200349f8262003ea8565b602082019050919050565b6000620034b960178362003a20565b9150620034c68262003ed1565b602082019050919050565b6000620034e060418362003a20565b9150620034ed8262003efa565b606082019050919050565b60006200350760178362003a20565b9150620035148262003f6f565b602082019050919050565b6200352a8162003b85565b82525050565b6200353b8162003b85565b82525050565b6200354c8162003b85565b82525050565b6200355d8162003b85565b82525050565b60006020820190506200357a60008301846200319a565b92915050565b60006060820190506200359760008301866200319a565b620035a660208301856200319a565b620035b5604083018462003530565b949350505050565b600061010082019050620035d5600083018b620031ab565b620035e4602083018a620031ab565b620035f3604083018962003541565b62003602606083018862003314565b818103608083015262003616818762003290565b905081810360a08301526200362c818662003290565b90506200363d60c083018562003325565b6200364c60e083018462003333565b9998505050505050505050565b60006040820190506200367060008301856200319a565b6200367f602083018462003530565b9392505050565b6000610100820190506200369e6000830184620031c3565b92915050565b60006020820190508181036000830152620036c0818462003226565b905092915050565b6000602082019050620036df600083018462003303565b92915050565b6000608082019050620036fc60008301876200333a565b6200370b6020830186620031bc565b6200371a604083018562003541565b81810360608301526200372e818462003382565b905095945050505050565b600060c0820190506200375060008301896200333a565b6200375f602083018862003541565b6200376e604083018762003314565b6200377d606083018662003325565b6200378c608083018562003333565b6200379b60a08301846200332c565b979650505050505050565b60006020820190508181036000830152620037c2818462003341565b905092915050565b60006020820190508181036000830152620037e5816200340e565b9050919050565b60006020820190508181036000830152620038078162003435565b9050919050565b6000602082019050818103600083015262003829816200345c565b9050919050565b600060208201905081810360008301526200384b8162003483565b9050919050565b600060208201905081810360008301526200386d81620034aa565b9050919050565b600060208201905081810360008301526200388f81620034d1565b9050919050565b60006020820190508181036000830152620038b181620034f8565b9050919050565b6000602082019050620038cf600083018462003530565b92915050565b6000620038e1620038f4565b9050620038ef828262003c55565b919050565b6000604051905090565b600067ffffffffffffffff8211156200391c576200391b62003d66565b5b602082029050602081019050919050565b600067ffffffffffffffff8211156200394b576200394a62003d66565b5b602082029050602081019050919050565b6000819050919050565b6000819050602082019050919050565b60008190508160005260206000209050919050565b60008190508160005260206000209050919050565b600060089050919050565b600081519050919050565b600081549050919050565b600081519050919050565b6000602082019050919050565b6000602082019050919050565b6000600182019050919050565b600081905092915050565b600082825260208201905092915050565b600082825260208201905092915050565b600082825260208201905092915050565b600082825260208201905092915050565b600062003a4f8262003b85565b915062003a5c8362003b85565b9250827fffffffffffffffffffffffffffffffffffffffffffffffffffffffffffffffff0382111562003a945762003a9362003cd9565b5b828201905092915050565b600062003aac8262003b85565b915062003ab98362003b85565b9250817fffffffffffffffffffffffffffffffffffffffffffffffffffffffffffffffff048311821515161562003af55762003af462003cd9565b5b828202905092915050565b600062003b0d8262003b85565b915062003b1a8362003b85565b92508282101562003b305762003b2f62003cd9565b5b828203905092915050565b6000819050919050565b600062003b528262003b65565b9050919050565b60008115159050919050565b600073ffffffffffffffffffffffffffffffffffffffff82169050919050565b6000819050919050565b600062003b9c8262003ba3565b9050919050565b600062003bb08262003bb7565b9050919050565b600062003bc48262003b65565b9050919050565b60005b8381101562003beb57808201518184015260208101905062003bce565b8381111562003bfb576000848401525b50505050565b6000600282049050600182168062003c1a57607f821691505b6020821081141562003c315762003c3062003d08565b5b50919050565b600062003c4e62003c488362003dd4565b62003b3b565b9050919050565b62003c608262003dc3565b810181811067ffffffffffffffff8211171562003c825762003c8162003d66565b5b80604052505050565b600062003c988262003b85565b91507fffffffffffffffffffffffffffffffffffffffffffffffffffffffffffffffff82141562003cce5762003ccd62003cd9565b5b600182019050919050565b7f4e487b7100000000000000000000000000000000000000000000000000000000600052601160045260246000fd5b7f4e487b7100000000000000000000000000000000000000000000000000000000600052602260045260246000fd5b7f4e487b7100000000000000000000000000000000000000000000000000000000600052603260045260246000fd5b7f4e487b7100000000000000000000000000000000000000000000000000000000600052604160045260246000fd5b600062003da3825462003c37565b9050919050565b600080fd5b600080fd5b600080fd5b600080fd5b600080fd5b6000601f19601f8301169050919050565b60008160001c9050919050565b7f4f776e61626c653a206e6577206f776e657220697320746865207a65726f206160008201527f6464726573730000000000000000000000000000000000000000000000000000602082015250565b7f6c696e657570206973206c6f636b656420666f7220746865207765656b210000600082015250565b7f496e697469616c697a61626c653a20636f6e747261637420697320616c72656160008201527f647920696e697469616c697a6564000000000000000000000000000000000000602082015250565b7f4f776e61626c653a2063616c6c6572206973206e6f7420746865206f776e6572600082015250565b7f43616c6c6572206973206e6f74207468652061646d696e000000000000000000600082015250565b7f4e6f626f64792063616e20656e7465722f6578697420746865206c656167756560008201527f20616e796d6f72652e2054686520736561736f6e20686173207374617274656460208201527f2100000000000000000000000000000000000000000000000000000000000000604082015250565b7f4c656167756520456e74727920697320436c6f73656421000000000000000000600082015250565b62003fa38162003b45565b811462003faf57600080fd5b50565b62003fbd8162003b59565b811462003fc957600080fd5b50565b62003fd78162003b85565b811462003fe357600080fd5b5056fe608060405234801561001057600080fd5b5061002d61002261003260201b60201c565b61003a60201b60201c565b6100fe565b600033905090565b60008060009054906101000a900473ffffffffffffffffffffffffffffffffffffffff169050816000806101000a81548173ffffffffffffffffffffffffffffffffffffffff021916908373ffffffffffffffffffffffffffffffffffffffff1602179055508173ffffffffffffffffffffffffffffffffffffffff168173ffffffffffffffffffffffffffffffffffffffff167f8be0079c531659141344cd1fd0a4f28419497f9722a3daafe3b4186f6b6457e060405160405180910390a35050565b610e928061010d6000396000f3fe608060405234801561001057600080fd5b50600436106100935760003560e01c80638da5cb5b116100665780638da5cb5b146101325780639b19251a14610150578063dc9a153514610180578063e2ec6ec31461019e578063f2fde38b146101ce57610093565b806324953eaa14610098578063286dd3f5146100c8578063715018a6146100f85780637b9417c814610102575b600080fd5b6100b260048036038101906100ad9190610a4a565b6101ea565b6040516100bf9190610b12565b60405180910390f35b6100e260048036038101906100dd9190610a1d565b6102d4565b6040516100ef9190610b12565b60405180910390f35b610100610457565b005b61011c60048036038101906101179190610a1d565b6104df565b6040516101299190610b12565b60405180910390f35b61013a610660565b6040516101479190610af7565b60405180910390f35b61016a60048036038101906101659190610a1d565b610689565b6040516101779190610b12565b60405180910390f35b6101886106a9565b6040516101959190610b12565b60405180910390f35b6101b860048036038101906101b39190610a4a565b6106bc565b6040516101c59190610b12565b60405180910390f35b6101e860048036038101906101e39190610a1d565b6107a6565b005b60006101f461089e565b73ffffffffffffffffffffffffffffffffffffffff16610212610660565b73ffffffffffffffffffffffffffffffffffffffff1614610268576040517f08c379a000000000000000000000000000000000000000000000000000000000815260040161025f90610b4d565b60405180910390fd5b60005b82518110156102ce5761029783828151811061028a57610289610d4a565b5b60200260200101516102d4565b156102bb576001600260008282546102af9190610c25565b92505081905550600191505b80806102c690610cd2565b91505061026b565b50919050565b60006102de61089e565b73ffffffffffffffffffffffffffffffffffffffff166102fc610660565b73ffffffffffffffffffffffffffffffffffffffff1614610352576040517f08c379a000000000000000000000000000000000000000000000000000000000815260040161034990610b4d565b60405180910390fd5b600160008373ffffffffffffffffffffffffffffffffffffffff1673ffffffffffffffffffffffffffffffffffffffff16815260200190815260200160002060009054906101000a900460ff1615610452576000600160008473ffffffffffffffffffffffffffffffffffffffff1673ffffffffffffffffffffffffffffffffffffffff16815260200190815260200160002060006101000a81548160ff0219169083151502179055507ff1abf01a1043b7c244d128e8595cf0c1d10743b022b03a02dffd8ca3bf729f5a8260405161042b9190610af7565b60405180910390a16001600260008282546104469190610c25565b92505081905550600190505b919050565b61045f61089e565b73ffffffffffffffffffffffffffffffffffffffff1661047d610660565b73ffffffffffffffffffffffffffffffffffffffff16146104d3576040517f08c379a00000000000000000000000000000000000000000000000000000000081526004016104ca90610b4d565b60405180910390fd5b6104dd60006108a6565b565b60006104e961089e565b73ffffffffffffffffffffffffffffffffffffffff16610507610660565b73ffffffffffffffffffffffffffffffffffffffff161461055d576040517f08c379a000000000000000000000000000000000000000000000000000000000815260040161055490610b4d565b60405180910390fd5b600160008373ffffffffffffffffffffffffffffffffffffffff1673ffffffffffffffffffffffffffffffffffffffff16815260200190815260200160002060009054906101000a900460ff1661065b5760018060008473ffffffffffffffffffffffffffffffffffffffff1673ffffffffffffffffffffffffffffffffffffffff16815260200190815260200160002060006101000a81548160ff0219169083151502179055507fd1bba68c128cc3f427e5831b3c6f99f480b6efa6b9e80c757768f6124158cc3f826040516106349190610af7565b60405180910390a160016002600082825461064f9190610bcf565b92505081905550600190505b919050565b60008060009054906101000a900473ffffffffffffffffffffffffffffffffffffffff16905090565b60016020528060005260406000206000915054906101000a900460ff1681565b600360009054906101000a900460ff1681565b60006106c661089e565b73ffffffffffffffffffffffffffffffffffffffff166106e4610660565b73ffffffffffffffffffffffffffffffffffffffff161461073a576040517f08c379a000000000000000000000000000000000000000000000000000000000815260040161073190610b4d565b60405180910390fd5b60005b82518110156107a05761076983828151811061075c5761075b610d4a565b5b60200260200101516104df565b1561078d576001600260008282546107819190610bcf565b92505081905550600191505b808061079890610cd2565b91505061073d565b50919050565b6107ae61089e565b73ffffffffffffffffffffffffffffffffffffffff166107cc610660565b73ffffffffffffffffffffffffffffffffffffffff1614610822576040517f08c379a000000000000000000000000000000000000000000000000000000000815260040161081990610b4d565b60405180910390fd5b600073ffffffffffffffffffffffffffffffffffffffff168173ffffffffffffffffffffffffffffffffffffffff161415610892576040517f08c379a000000000000000000000000000000000000000000000000000000000815260040161088990610b2d565b60405180910390fd5b61089b816108a6565b50565b600033905090565b60008060009054906101000a900473ffffffffffffffffffffffffffffffffffffffff169050816000806101000a81548173ffffffffffffffffffffffffffffffffffffffff021916908373ffffffffffffffffffffffffffffffffffffffff1602179055508173ffffffffffffffffffffffffffffffffffffffff168173ffffffffffffffffffffffffffffffffffffffff167f8be0079c531659141344cd1fd0a4f28419497f9722a3daafe3b4186f6b6457e060405160405180910390a35050565b600061097d61097884610b92565b610b6d565b905080838252602082019050828560208602820111156109a05761099f610dad565b5b60005b858110156109d057816109b688826109da565b8452602084019350602083019250506001810190506109a3565b5050509392505050565b6000813590506109e981610e45565b92915050565b600082601f830112610a0457610a03610da8565b5b8135610a1484826020860161096a565b91505092915050565b600060208284031215610a3357610a32610db7565b5b6000610a41848285016109da565b91505092915050565b600060208284031215610a6057610a5f610db7565b5b600082013567ffffffffffffffff811115610a7e57610a7d610db2565b5b610a8a848285016109ef565b91505092915050565b610a9c81610c59565b82525050565b610aab81610c6b565b82525050565b6000610abe602683610bbe565b9150610ac982610dcd565b604082019050919050565b6000610ae1602083610bbe565b9150610aec82610e1c565b602082019050919050565b6000602082019050610b0c6000830184610a93565b92915050565b6000602082019050610b276000830184610aa2565b92915050565b60006020820190508181036000830152610b4681610ab1565b9050919050565b60006020820190508181036000830152610b6681610ad4565b9050919050565b6000610b77610b88565b9050610b838282610ca1565b919050565b6000604051905090565b600067ffffffffffffffff821115610bad57610bac610d79565b5b602082029050602081019050919050565b600082825260208201905092915050565b6000610bda82610c97565b9150610be583610c97565b9250827fffffffffffffffffffffffffffffffffffffffffffffffffffffffffffffffff03821115610c1a57610c19610d1b565b5b828201905092915050565b6000610c3082610c97565b9150610c3b83610c97565b925082821015610c4e57610c4d610d1b565b5b828203905092915050565b6000610c6482610c77565b9050919050565b60008115159050919050565b600073ffffffffffffffffffffffffffffffffffffffff82169050919050565b6000819050919050565b610caa82610dbc565b810181811067ffffffffffffffff82111715610cc957610cc8610d79565b5b80604052505050565b6000610cdd82610c97565b91507fffffffffffffffffffffffffffffffffffffffffffffffffffffffffffffffff821415610d1057610d0f610d1b565b5b600182019050919050565b7f4e487b7100000000000000000000000000000000000000000000000000000000600052601160045260246000fd5b7f4e487b7100000000000000000000000000000000000000000000000000000000600052603260045260246000fd5b7f4e487b7100000000000000000000000000000000000000000000000000000000600052604160045260246000fd5b600080fd5b600080fd5b600080fd5b600080fd5b6000601f19601f8301169050919050565b7f4f776e61626c653a206e6577206f776e657220697320746865207a65726f206160008201527f6464726573730000000000000000000000000000000000000000000000000000602082015250565b7f4f776e61626c653a2063616c6c6572206973206e6f7420746865206f776e6572600082015250565b610e4e81610c59565b8114610e5957600080fd5b5056fea2646970667358221220a21085165a95bba102b3fe59880e17f3027964706b8a63561e6b8ccd43ba90fb64736f6c63430008070033546f6f206d616e7920757365727320696e206c656167756520746f20616464206e657720757365722ea2646970667358221220c5b079bf1b725d878ff17aa05535797a5adb8cfe2cc43626dca9beb82dc4a71f64736f6c63430008070033",
  "linkReferences": {
    "contracts/MOBALogicLibrary.sol": {
      "MOBALogicLibrary": [
        {
          "length": 20,
          "start": 2672
        },
        {
          "length": 20,
          "start": 8018
        },
        {
          "length": 20,
          "start": 8179
        }
      ]
    }
  },
  "deployedLinkReferences": {
    "contracts/MOBALogicLibrary.sol": {
      "MOBALogicLibrary": [
        {
          "length": 20,
          "start": 2395
        },
        {
          "length": 20,
          "start": 7741
        },
        {
          "length": 20,
          "start": 7902
        }
      ]
    }
  }
}