{
  "_format": "hh-sol-artifact-1",
  "contractName": "LeagueOfLegendsLogic",
  "sourceName": "contracts/LeagueOfLegendsLogic.sol",
  "abi": [
    {
      "anonymous": false,
      "inputs": [
        {
          "indexed": true,
          "internalType": "address",
          "name": "previousOwner",
          "type": "address"
        },
        {
          "indexed": true,
          "internalType": "address",
          "name": "newOwner",
          "type": "address"
        }
      ],
      "name": "OwnershipTransferred",
      "type": "event"
    },
    {
      "anonymous": false,
      "inputs": [
        {
          "indexed": true,
          "internalType": "bytes32",
          "name": "role",
          "type": "bytes32"
        },
        {
          "indexed": true,
          "internalType": "bytes32",
          "name": "previousAdminRole",
          "type": "bytes32"
        },
        {
          "indexed": true,
          "internalType": "bytes32",
          "name": "newAdminRole",
          "type": "bytes32"
        }
      ],
      "name": "RoleAdminChanged",
      "type": "event"
    },
    {
      "anonymous": false,
      "inputs": [
        {
          "indexed": true,
          "internalType": "bytes32",
          "name": "role",
          "type": "bytes32"
        },
        {
          "indexed": true,
          "internalType": "address",
          "name": "account",
          "type": "address"
        },
        {
          "indexed": true,
          "internalType": "address",
          "name": "sender",
          "type": "address"
        }
      ],
      "name": "RoleGranted",
      "type": "event"
    },
    {
      "anonymous": false,
      "inputs": [
        {
          "indexed": true,
          "internalType": "bytes32",
          "name": "role",
          "type": "bytes32"
        },
        {
          "indexed": true,
          "internalType": "address",
          "name": "account",
          "type": "address"
        },
        {
          "indexed": true,
          "internalType": "address",
          "name": "sender",
          "type": "address"
        }
      ],
      "name": "RoleRevoked",
      "type": "event"
    },
    {
      "anonymous": false,
      "inputs": [
        {
          "indexed": false,
          "internalType": "address",
          "name": "sender",
          "type": "address"
        },
        {
          "indexed": false,
          "internalType": "uint256",
          "name": "amount",
          "type": "uint256"
        }
      ],
      "name": "Staked",
      "type": "event"
    },
    {
      "anonymous": false,
      "inputs": [
        {
          "indexed": false,
          "internalType": "address",
          "name": "addr",
          "type": "address"
        }
      ],
      "name": "WhitelistedAddressAdded",
      "type": "event"
    },
    {
      "anonymous": false,
      "inputs": [
        {
          "indexed": false,
          "internalType": "address",
          "name": "addr",
          "type": "address"
        }
      ],
      "name": "WhitelistedAddressRemoved",
      "type": "event"
    },
    {
      "anonymous": false,
      "inputs": [
        {
          "indexed": false,
          "internalType": "address",
          "name": "sender",
          "type": "address"
        },
        {
          "indexed": false,
          "internalType": "address",
          "name": "contractAddress",
          "type": "address"
        }
      ],
      "name": "testUSDCDeployed",
      "type": "event"
    },
    {
      "inputs": [],
      "name": "DEFAULT_ADMIN_ROLE",
      "outputs": [
        {
          "internalType": "bytes32",
          "name": "",
          "type": "bytes32"
        }
      ],
      "stateMutability": "view",
      "type": "function"
    },
    {
      "inputs": [
        {
          "internalType": "address",
          "name": "addr",
          "type": "address"
        }
      ],
      "name": "addAddressToWhitelist",
      "outputs": [
        {
          "internalType": "bool",
          "name": "success",
          "type": "bool"
        }
      ],
      "stateMutability": "nonpayable",
      "type": "function"
    },
    {
      "inputs": [
        {
          "internalType": "address[]",
          "name": "addrs",
          "type": "address[]"
        }
      ],
      "name": "addAddressesToWhitelist",
      "outputs": [
        {
          "internalType": "bool",
          "name": "success",
          "type": "bool"
        }
      ],
      "stateMutability": "nonpayable",
      "type": "function"
    },
    {
      "inputs": [
        {
          "internalType": "address",
          "name": "user",
          "type": "address"
        }
      ],
      "name": "addUserToLeague",
      "outputs": [],
      "stateMutability": "nonpayable",
      "type": "function"
    },
    {
      "inputs": [
        {
          "internalType": "address",
          "name": "_userToAdd",
          "type": "address"
        }
      ],
      "name": "addUserToWhitelist",
      "outputs": [],
      "stateMutability": "nonpayable",
      "type": "function"
    },
    {
      "inputs": [],
      "name": "currentWeekNum",
      "outputs": [
        {
          "internalType": "uint256",
          "name": "",
          "type": "uint256"
        }
      ],
      "stateMutability": "view",
      "type": "function"
    },
    {
      "inputs": [
        {
          "internalType": "address",
          "name": "addr1",
          "type": "address"
        },
        {
          "internalType": "address",
          "name": "addr2",
          "type": "address"
        }
      ],
      "name": "evaluateMatch",
      "outputs": [
        {
          "internalType": "address",
          "name": "",
          "type": "address"
        }
      ],
      "stateMutability": "nonpayable",
      "type": "function"
    },
    {
      "inputs": [],
      "name": "evaluateWeek",
      "outputs": [],
      "stateMutability": "nonpayable",
      "type": "function"
    },
    {
      "inputs": [],
      "name": "getAdmin",
      "outputs": [
        {
          "internalType": "address",
          "name": "",
          "type": "address"
        }
      ],
      "stateMutability": "view",
      "type": "function"
    },
    {
      "inputs": [],
      "name": "getAthleteContractAddress",
      "outputs": [
        {
          "internalType": "address",
          "name": "",
          "type": "address"
        }
      ],
      "stateMutability": "view",
      "type": "function"
    },
    {
      "inputs": [],
      "name": "getCurrentWeekNum",
      "outputs": [
        {
          "internalType": "uint256",
          "name": "",
          "type": "uint256"
        }
      ],
      "stateMutability": "view",
      "type": "function"
    },
    {
      "inputs": [],
      "name": "getLeagueName",
      "outputs": [
        {
          "internalType": "string",
          "name": "",
          "type": "string"
        }
      ],
      "stateMutability": "view",
      "type": "function"
    },
    {
      "inputs": [],
      "name": "getLineup",
      "outputs": [
        {
          "internalType": "uint256[]",
          "name": "",
          "type": "uint256[]"
        }
      ],
      "stateMutability": "view",
      "type": "function"
    },
    {
      "inputs": [
        {
          "internalType": "bytes32",
          "name": "role",
          "type": "bytes32"
        }
      ],
      "name": "getRoleAdmin",
      "outputs": [
        {
          "internalType": "bytes32",
          "name": "",
          "type": "bytes32"
        }
      ],
      "stateMutability": "view",
      "type": "function"
    },
    {
      "inputs": [],
      "name": "getStakeAmount",
      "outputs": [
        {
          "internalType": "uint256",
          "name": "",
          "type": "uint256"
        }
      ],
      "stateMutability": "view",
      "type": "function"
    },
    {
      "inputs": [],
      "name": "getTestUSDCAddress",
      "outputs": [
        {
          "internalType": "address",
          "name": "",
          "type": "address"
        }
      ],
      "stateMutability": "view",
      "type": "function"
    },
    {
      "inputs": [],
      "name": "getTotalPrizePot",
      "outputs": [
        {
          "internalType": "uint256",
          "name": "",
          "type": "uint256"
        }
      ],
      "stateMutability": "view",
      "type": "function"
    },
    {
      "inputs": [],
      "name": "getUSDCBalance",
      "outputs": [
        {
          "internalType": "uint256",
          "name": "",
          "type": "uint256"
        }
      ],
      "stateMutability": "view",
      "type": "function"
    },
    {
      "inputs": [],
      "name": "getUserRecord",
      "outputs": [
        {
          "internalType": "uint256[8]",
          "name": "",
          "type": "uint256[8]"
        }
      ],
      "stateMutability": "view",
      "type": "function"
    },
    {
      "inputs": [],
      "name": "getUserUSDCBalance",
      "outputs": [
        {
          "internalType": "uint256",
          "name": "",
          "type": "uint256"
        }
      ],
      "stateMutability": "view",
      "type": "function"
    },
    {
      "inputs": [],
      "name": "getUserWeeklypts",
      "outputs": [
        {
          "internalType": "uint256[8]",
          "name": "",
          "type": "uint256[8]"
        }
      ],
      "stateMutability": "view",
      "type": "function"
    },
    {
      "inputs": [],
      "name": "getUsersLength",
      "outputs": [
        {
          "internalType": "uint256",
          "name": "",
          "type": "uint256"
        }
      ],
      "stateMutability": "view",
      "type": "function"
    },
    {
      "inputs": [],
      "name": "getVersion",
      "outputs": [
        {
          "internalType": "uint256",
          "name": "version",
          "type": "uint256"
        }
      ],
      "stateMutability": "view",
      "type": "function"
    },
    {
      "inputs": [
        {
          "internalType": "bytes32",
          "name": "role",
          "type": "bytes32"
        },
        {
          "internalType": "address",
          "name": "account",
          "type": "address"
        }
      ],
      "name": "grantRole",
      "outputs": [],
      "stateMutability": "nonpayable",
      "type": "function"
    },
    {
      "inputs": [
        {
          "internalType": "bytes32",
          "name": "role",
          "type": "bytes32"
        },
        {
          "internalType": "address",
          "name": "account",
          "type": "address"
        }
      ],
      "name": "hasRole",
      "outputs": [
        {
          "internalType": "bool",
          "name": "",
          "type": "bool"
        }
      ],
      "stateMutability": "view",
      "type": "function"
    },
    {
      "inputs": [
        {
          "internalType": "string",
          "name": "_name",
          "type": "string"
        },
        {
          "internalType": "uint256",
          "name": "_numWeeks",
          "type": "uint256"
        },
        {
          "internalType": "uint256",
          "name": "_stakeAmount",
          "type": "uint256"
        },
        {
          "internalType": "bool",
          "name": "_isPublic",
          "type": "bool"
        },
        {
          "internalType": "address",
          "name": "athletesDataStorageAddress",
          "type": "address"
        },
        {
          "internalType": "address",
          "name": "_admin",
          "type": "address"
        },
        {
          "internalType": "address",
          "name": "_polygonUSDCAddress",
          "type": "address"
        },
        {
          "internalType": "address",
          "name": "_rinkebyUSDCAddress",
          "type": "address"
        },
        {
          "internalType": "address",
          "name": "_testUSDCAddress",
          "type": "address"
        },
        {
          "internalType": "address",
          "name": "leagueMakerContractAddress",
          "type": "address"
        }
      ],
      "name": "initialize",
      "outputs": [],
      "stateMutability": "nonpayable",
      "type": "function"
    },
    {
      "inputs": [],
      "name": "isPublic",
      "outputs": [
        {
          "internalType": "bool",
          "name": "",
          "type": "bool"
        }
      ],
      "stateMutability": "view",
      "type": "function"
    },
    {
      "inputs": [],
      "name": "joinLeague",
      "outputs": [],
      "stateMutability": "nonpayable",
      "type": "function"
    },
    {
      "inputs": [
        {
          "internalType": "uint256",
          "name": "",
          "type": "uint256"
        }
      ],
      "name": "leagueMembers",
      "outputs": [
        {
          "internalType": "address",
          "name": "",
          "type": "address"
        }
      ],
      "stateMutability": "view",
      "type": "function"
    },
    {
      "inputs": [],
      "name": "leagueName",
      "outputs": [
        {
          "internalType": "string",
          "name": "",
          "type": "string"
        }
      ],
      "stateMutability": "view",
      "type": "function"
    },
    {
      "inputs": [],
      "name": "lockLineup",
      "outputs": [],
      "stateMutability": "nonpayable",
      "type": "function"
    },
    {
      "inputs": [],
      "name": "numWeeks",
      "outputs": [
        {
          "internalType": "uint256",
          "name": "",
          "type": "uint256"
        }
      ],
      "stateMutability": "view",
      "type": "function"
    },
    {
      "inputs": [],
      "name": "onLeagueEnd",
      "outputs": [],
      "stateMutability": "nonpayable",
      "type": "function"
    },
    {
      "inputs": [],
      "name": "owner",
      "outputs": [
        {
          "internalType": "address",
          "name": "",
          "type": "address"
        }
      ],
      "stateMutability": "view",
      "type": "function"
    },
    {
      "inputs": [],
      "name": "polygonUSDCAddress",
      "outputs": [
        {
          "internalType": "address",
          "name": "",
          "type": "address"
        }
      ],
      "stateMutability": "view",
      "type": "function"
    },
    {
      "inputs": [
        {
          "internalType": "address",
          "name": "addr",
          "type": "address"
        }
      ],
      "name": "removeAddressFromWhitelist",
      "outputs": [
        {
          "internalType": "bool",
          "name": "success",
          "type": "bool"
        }
      ],
      "stateMutability": "nonpayable",
      "type": "function"
    },
    {
      "inputs": [
        {
          "internalType": "address[]",
          "name": "addrs",
          "type": "address[]"
        }
      ],
      "name": "removeAddressesFromWhitelist",
      "outputs": [
        {
          "internalType": "bool",
          "name": "success",
          "type": "bool"
        }
      ],
      "stateMutability": "nonpayable",
      "type": "function"
    },
    {
      "inputs": [],
      "name": "renounceOwnership",
      "outputs": [],
      "stateMutability": "nonpayable",
      "type": "function"
    },
    {
      "inputs": [
        {
          "internalType": "bytes32",
          "name": "role",
          "type": "bytes32"
        },
        {
          "internalType": "address",
          "name": "account",
          "type": "address"
        }
      ],
      "name": "renounceRole",
      "outputs": [],
      "stateMutability": "nonpayable",
      "type": "function"
    },
    {
      "inputs": [
        {
          "internalType": "bytes32",
          "name": "role",
          "type": "bytes32"
        },
        {
          "internalType": "address",
          "name": "account",
          "type": "address"
        }
      ],
      "name": "revokeRole",
      "outputs": [],
      "stateMutability": "nonpayable",
      "type": "function"
    },
    {
      "inputs": [],
      "name": "rinkebyUSDCAddress",
      "outputs": [
        {
          "internalType": "address",
          "name": "",
          "type": "address"
        }
      ],
      "stateMutability": "view",
      "type": "function"
    },
    {
      "inputs": [],
      "name": "setLeagueEntryIsClosed",
      "outputs": [],
      "stateMutability": "nonpayable",
      "type": "function"
    },
    {
      "inputs": [],
      "name": "setLeagueSchedule",
      "outputs": [],
      "stateMutability": "nonpayable",
      "type": "function"
    },
    {
      "inputs": [
        {
          "internalType": "uint256[]",
          "name": "athleteIds",
          "type": "uint256[]"
        }
      ],
      "name": "setLineup",
      "outputs": [],
      "stateMutability": "nonpayable",
      "type": "function"
    },
    {
      "inputs": [],
      "name": "stakeAmount",
      "outputs": [
        {
          "internalType": "uint256",
          "name": "",
          "type": "uint256"
        }
      ],
      "stateMutability": "view",
      "type": "function"
    },
    {
      "inputs": [
        {
          "internalType": "bytes4",
          "name": "interfaceId",
          "type": "bytes4"
        }
      ],
      "name": "supportsInterface",
      "outputs": [
        {
          "internalType": "bool",
          "name": "",
          "type": "bool"
        }
      ],
      "stateMutability": "view",
      "type": "function"
    },
    {
      "inputs": [
        {
          "internalType": "address",
          "name": "newOwner",
          "type": "address"
        }
      ],
      "name": "transferOwnership",
      "outputs": [],
      "stateMutability": "nonpayable",
      "type": "function"
    },
    {
      "inputs": [],
      "name": "unlockLineup",
      "outputs": [],
      "stateMutability": "nonpayable",
      "type": "function"
    },
    {
      "inputs": [
        {
          "internalType": "address",
          "name": "",
          "type": "address"
        },
        {
          "internalType": "uint256",
          "name": "",
          "type": "uint256"
        }
      ],
      "name": "userToRecord",
      "outputs": [
        {
          "internalType": "uint256",
          "name": "",
          "type": "uint256"
        }
      ],
      "stateMutability": "view",
      "type": "function"
    },
    {
      "inputs": [
        {
          "internalType": "address",
          "name": "",
          "type": "address"
        }
      ],
      "name": "whitelist",
      "outputs": [
        {
          "internalType": "bool",
          "name": "",
          "type": "bool"
        }
      ],
      "stateMutability": "view",
      "type": "function"
    }
  ],
  "bytecode": "0x60806040523480156200001157600080fd5b5062000032620000266200003860201b60201c565b6200004060201b60201c565b62000105565b600033905090565b60008060029054906101000a900473ffffffffffffffffffffffffffffffffffffffff16905081600060026101000a81548173ffffffffffffffffffffffffffffffffffffffff021916908373ffffffffffffffffffffffffffffffffffffffff1602179055508173ffffffffffffffffffffffffffffffffffffffff168173ffffffffffffffffffffffffffffffffffffffff167f8be0079c531659141344cd1fd0a4f28419497f9722a3daafe3b4186f6b6457e060405160405180910390a35050565b61596780620001156000396000f3fe60806040523480156200001157600080fd5b50600436106200031b5760003560e01c8063747b805011620001a7578063a217fddf11620000ff578063d547741f11620000b1578063e4c9066b1162000087578063e4c9066b1462000972578063f2fde38b146200097e578063f612121a146200099e578063f881604514620009be576200031b565b8063d547741f14620008fa578063dc9a1535146200091a578063e2ec6ec3146200093c576200031b565b8063a217fddf1462000870578063a2bc091a1462000892578063ada3a28d146200089e578063c8be3b5b14620008c0578063c99fea9414620008cc578063cdbba4c614620008d8576200031b565b80638caec7a811620001595780638caec7a8146200077c5780638da5cb5b146200079e57806391d1485414620007c057806393f3706c14620007f657806399a6003414620008185780639b19251a146200083a576200031b565b8063747b805014620006a05780637b9417c814620006c05780637eed33f114620006f6578063841abf6e146200071857806385334ffa146200073a578063853976dd1462000746576200031b565b806336568abe11620002795780635ec0b4f7116200022b5780636e9960c311620002015780636e9960c3146200062e5780636fd71a181462000650578063715018a61462000672578063722580b6146200067e576200031b565b80635ec0b4f714620005c85780635fcc698714620005ea57806360c7dc47146200060c576200031b565b806336568abe14620005005780633cfd1ccc1462000520578063403570c5146200054257806352e6e5f31462000564578063595b1a3e14620005865780635d514d6914620005a8576200031b565b80631d803e0011620002d35780631d803e0014620003fc578063248a9ca3146200040857806324953eaa146200043e578063267175db1462000474578063286dd3f514620004aa5780632f2ff15d14620004e0576200031b565b8062b2476f146200032057806301ffc9a714620003425780630655465a1462000378578063087e18a714620003845780630c6f795914620003a45780630d8e6e2c14620003da575b600080fd5b6200032a620009e0565b60405162000339919062003daf565b60405180910390f35b6200036060048036038101906200035a919062003703565b62000a06565b6040516200036f919062003f14565b60405180910390f35b6200038262000a83565b005b620003a260048036038101906200039c9190620034c4565b62000b3b565b005b620003c26004803603810190620003bc91906200356f565b62000cbf565b604051620003d1919062004143565b60405180910390f35b620003e462000ce8565b604051620003f3919062004143565b60405180910390f35b6200040662000ced565b005b6200042660048036038101906200042091906200368a565b62000f98565b60405162000435919062003f31565b60405180910390f35b6200045c6004803603810190620004569190620035b6565b62000fb8565b6040516200046b919062003f14565b60405180910390f35b6200049260048036038101906200048c91906200384f565b620010b5565b604051620004a1919062003daf565b60405180910390f35b620004c86004803603810190620004c29190620034c4565b620010f5565b604051620004d7919062003f14565b60405180910390f35b620004fe6004803603810190620004f89190620036bc565b62001284565b005b6200051e6004803603810190620005189190620036bc565b620012b5565b005b6200052a6200133f565b60405162000539919062004143565b60405180910390f35b6200054c620013f7565b6040516200055b91906200400f565b60405180910390f35b6200056e62001491565b6040516200057d919062004143565b60405180910390f35b6200059062001497565b6040516200059f919062004143565b60405180910390f35b620005c66004803603810190620005c0919062003735565b620014a4565b005b620005d2620018b3565b604051620005e1919062004143565b60405180910390f35b620005f4620018bd565b60405162000603919062004143565b60405180910390f35b6200061662001975565b60405162000625919062004143565b60405180910390f35b620006386200197b565b60405162000647919062003daf565b60405180910390f35b6200065a620019a5565b60405162000669919062003ed2565b60405180910390f35b6200067c62001a31565b005b6200068862001ac2565b60405162000697919062004143565b60405180910390f35b620006be6004803603810190620006b89190620034c4565b62001acc565b005b620006de6004803603810190620006d89190620034c4565b62001c16565b604051620006ed919062003f14565b60405180910390f35b6200070062001da4565b6040516200070f919062004143565b60405180910390f35b6200072262001daa565b6040516200073191906200400f565b60405180910390f35b6200074462001e40565b005b6200076460048036038101906200075e919062003528565b62001f62565b60405162000773919062003daf565b60405180910390f35b62000786620020a9565b60405162000795919062003daf565b60405180910390f35b620007a8620020d3565b604051620007b7919062003daf565b60405180910390f35b620007de6004803603810190620007d89190620036bc565b620020fc565b604051620007ed919062003f14565b60405180910390f35b6200080062002167565b6040516200080f919062003daf565b60405180910390f35b620008226200218d565b60405162000831919062004143565b60405180910390f35b620008586004803603810190620008529190620034c4565b620021a9565b60405162000867919062003f14565b60405180910390f35b6200087a620021c9565b60405162000889919062003f31565b60405180910390f35b6200089c620021d0565b005b620008a862002270565b604051620008b7919062003ef0565b60405180910390f35b620008ca62002307565b005b620008d6620023a7565b005b620008e2620025c5565b604051620008f1919062003daf565b60405180910390f35b620009186004803603810190620009129190620036bc565b620025ef565b005b6200092462002620565b60405162000933919062003f14565b60405180910390f35b6200095a6004803603810190620009549190620035b6565b62002633565b60405162000969919062003f14565b60405180910390f35b6200097c62002730565b005b6200099c6004803603810190620009969190620034c4565b620027d0565b005b620009bc6004803603810190620009b6919062003607565b620028d4565b005b620009c862002980565b604051620009d7919062003ed2565b60405180910390f35b601060009054906101000a900473ffffffffffffffffffffffffffffffffffffffff1681565b60007f7965db0b000000000000000000000000000000000000000000000000000000007bffffffffffffffffffffffffffffffffffffffffffffffffffffffff1916827bffffffffffffffffffffffffffffffffffffffffffffffffffffffff1916148062000a7c575062000a7b8262002a0c565b5b9050919050565b62000ac36040518060400160405280601081526020017f73657474696e67207363686564756c650000000000000000000000000000000081525062002a76565b73__$36fdb4e0c2cb91f3ceca5ea81b025328f3$__63d2c232b5600e600960065460056040518563ffffffff1660e01b815260040162000b07949392919062003f4e565b60006040518083038186803b15801562000b2057600080fd5b505af415801562000b35573d6000803e3d6000fd5b50505050565b600a60149054906101000a900460ff161562000b8e576040517f08c379a000000000000000000000000000000000000000000000000000000000815260040162000b8590620040ff565b60405180910390fd5b6008600980549050101562000c97576009819080600181540180825580915050600190039060005260206000200160009091909190916101000a81548173ffffffffffffffffffffffffffffffffffffffff021916908373ffffffffffffffffffffffffffffffffffffffff160217905550601360009054906101000a900473ffffffffffffffffffffffffffffffffffffffff1673ffffffffffffffffffffffffffffffffffffffff1663771bd4ce826040518263ffffffff1660e01b815260040162000c5d919062003daf565b600060405180830381600087803b15801562000c7857600080fd5b505af115801562000c8d573d6000803e3d6000fd5b5050505062000cbc565b62000cbb6040518060600160405280602881526020016200590a6028913962002a76565b5b50565b600c602052816000526040600020816008811062000cdc57600080fd5b01600091509150505481565b600090565b6000601460009054906101000a900473ffffffffffffffffffffffffffffffffffffffff1673ffffffffffffffffffffffffffffffffffffffff166370a08231306040518263ffffffff1660e01b815260040162000d4c919062003daf565b60206040518083038186803b15801562000d6557600080fd5b505afa15801562000d7a573d6000803e3d6000fd5b505050506040513d601f19601f8201168201806040525081019062000da0919062003881565b9050600080600090505b60098054905081101562000edb57600b60008373ffffffffffffffffffffffffffffffffffffffff1673ffffffffffffffffffffffffffffffffffffffff16815260200190815260200160002054600b60006009848154811062000e135762000e1262004632565b5b9060005260206000200160009054906101000a900473ffffffffffffffffffffffffffffffffffffffff1673ffffffffffffffffffffffffffffffffffffffff1673ffffffffffffffffffffffffffffffffffffffff16815260200190815260200160002054111562000ec5576009818154811062000e975762000e9662004632565b5b9060005260206000200160009054906101000a900473ffffffffffffffffffffffffffffffffffffffff1691505b808062000ed29062004586565b91505062000daa565b50601460009054906101000a900473ffffffffffffffffffffffffffffffffffffffff1673ffffffffffffffffffffffffffffffffffffffff166323b872dd3330856040518463ffffffff1660e01b815260040162000f3d9392919062003dcc565b602060405180830381600087803b15801562000f5857600080fd5b505af115801562000f6d573d6000803e3d6000fd5b505050506040513d601f19601f8201168201806040525081019062000f93919062003658565b505050565b600060016000838152602001908152602001600020600101549050919050565b600062000fc462002b13565b73ffffffffffffffffffffffffffffffffffffffff1662000fe4620020d3565b73ffffffffffffffffffffffffffffffffffffffff16146200103d576040517f08c379a00000000000000000000000000000000000000000000000000000000081526004016200103490620040bb565b60405180910390fd5b60005b8251811015620010af576200107283828151811062001064576200106362004632565b5b6020026020010151620010f5565b1562001099576001600360008282546200108d919062004396565b92505081905550600191505b8080620010a69062004586565b91505062001040565b50919050565b60098181548110620010c657600080fd5b906000526020600020016000915054906101000a900473ffffffffffffffffffffffffffffffffffffffff1681565b60006200110162002b13565b73ffffffffffffffffffffffffffffffffffffffff1662001121620020d3565b73ffffffffffffffffffffffffffffffffffffffff16146200117a576040517f08c379a00000000000000000000000000000000000000000000000000000000081526004016200117190620040bb565b60405180910390fd5b600260008373ffffffffffffffffffffffffffffffffffffffff1673ffffffffffffffffffffffffffffffffffffffff16815260200190815260200160002060009054906101000a900460ff16156200127f576000600260008473ffffffffffffffffffffffffffffffffffffffff1673ffffffffffffffffffffffffffffffffffffffff16815260200190815260200160002060006101000a81548160ff0219169083151502179055507ff1abf01a1043b7c244d128e8595cf0c1d10743b022b03a02dffd8ca3bf729f5a8260405162001256919062003daf565b60405180910390a160016003600082825462001273919062004396565b92505081905550600190505b919050565b6200128f8262000f98565b620012a4816200129e62002b13565b62002b1b565b620012b0838362002bc3565b505050565b620012bf62002b13565b73ffffffffffffffffffffffffffffffffffffffff168173ffffffffffffffffffffffffffffffffffffffff16146200132f576040517f08c379a0000000000000000000000000000000000000000000000000000000008152600401620013269062004121565b60405180910390fd5b6200133b828262002ca8565b5050565b6000601460009054906101000a900473ffffffffffffffffffffffffffffffffffffffff1673ffffffffffffffffffffffffffffffffffffffff166370a08231306040518263ffffffff1660e01b81526004016200139e919062003daf565b60206040518083038186803b158015620013b757600080fd5b505afa158015620013cc573d6000803e3d6000fd5b505050506040513d601f19601f82011682018060405250810190620013f2919062003881565b905090565b6060600580546200140890620044fc565b80601f01602080910402602001604051908101604052809291908181526020018280546200143690620044fc565b8015620014875780601f106200145b5761010080835404028352916020019162001487565b820191906000526020600020905b8154815290600101906020018083116200146957829003601f168201915b5050505050905090565b60075481565b6000600980549050905090565b600060019054906101000a900460ff16620014ce5760008054906101000a900460ff1615620014d9565b620014d862002d8f565b5b6200151b576040517f08c379a0000000000000000000000000000000000000000000000000000000008152600401620015129062004099565b60405180910390fd5b60008060019054906101000a900460ff1615905080156200156c576001600060016101000a81548160ff02191690831515021790555060016000806101000a81548160ff0219169083151502179055505b8b8b600591906200157f9291906200311e565b506008600681905550620015976000801b8762002da2565b6009869080600181540180825580915050600190039060005260206000200160009091909190916101000a81548173ffffffffffffffffffffffffffffffffffffffff021916908373ffffffffffffffffffffffffffffffffffffffff16021790555085600a60006101000a81548173ffffffffffffffffffffffffffffffffffffffff021916908373ffffffffffffffffffffffffffffffffffffffff1602179055508860088190555087600460006101000a81548160ff0219169083151502179055506000600a60156101000a81548160ff0219169083151502179055506000600a60146101000a81548160ff02191690831515021790555086601160006101000a81548173ffffffffffffffffffffffffffffffffffffffff021916908373ffffffffffffffffffffffffffffffffffffffff16021790555081601360006101000a81548173ffffffffffffffffffffffffffffffffffffffff021916908373ffffffffffffffffffffffffffffffffffffffff1602179055506040516200172290620031af565b604051809103906000f0801580156200173f573d6000803e3d6000fd5b50601260006101000a81548173ffffffffffffffffffffffffffffffffffffffff021916908373ffffffffffffffffffffffffffffffffffffffff16021790555084600f60006101000a81548173ffffffffffffffffffffffffffffffffffffffff021916908373ffffffffffffffffffffffffffffffffffffffff16021790555083601060006101000a81548173ffffffffffffffffffffffffffffffffffffffff021916908373ffffffffffffffffffffffffffffffffffffffff16021790555082601460006101000a81548173ffffffffffffffffffffffffffffffffffffffff021916908373ffffffffffffffffffffffffffffffffffffffff160217905550620018836040518060400160405280601281526020017f50726f787920696e697469616c697a656421000000000000000000000000000081525062002a76565b8015620018a55760008060016101000a81548160ff0219169083151502179055505b505050505050505050505050565b6000600754905090565b6000601460009054906101000a900473ffffffffffffffffffffffffffffffffffffffff1673ffffffffffffffffffffffffffffffffffffffff166370a08231336040518263ffffffff1660e01b81526004016200191c919062003daf565b60206040518083038186803b1580156200193557600080fd5b505afa1580156200194a573d6000803e3d6000fd5b505050506040513d601f19601f8201168201806040525081019062001970919062003881565b905090565b60085481565b6000600a60009054906101000a900473ffffffffffffffffffffffffffffffffffffffff16905090565b620019af620031bd565b600c60003373ffffffffffffffffffffffffffffffffffffffff1673ffffffffffffffffffffffffffffffffffffffff16815260200190815260200160002060088060200260405190810160405280929190826008801562001a27576020028201915b81548152602001906001019080831162001a12575b5050505050905090565b62001a3b62002b13565b73ffffffffffffffffffffffffffffffffffffffff1662001a5b620020d3565b73ffffffffffffffffffffffffffffffffffffffff161462001ab4576040517f08c379a000000000000000000000000000000000000000000000000000000000815260040162001aab90620040bb565b60405180910390fd5b62001ac0600062002db2565b565b6000600854905090565b600a60009054906101000a900473ffffffffffffffffffffffffffffffffffffffff1673ffffffffffffffffffffffffffffffffffffffff163373ffffffffffffffffffffffffffffffffffffffff161462001b5f576040517f08c379a000000000000000000000000000000000000000000000000000000000815260040162001b5690620040dd565b60405180910390fd5b601260009054906101000a900473ffffffffffffffffffffffffffffffffffffffff1673ffffffffffffffffffffffffffffffffffffffff16637b9417c8826040518263ffffffff1660e01b815260040162001bbc919062003daf565b602060405180830381600087803b15801562001bd757600080fd5b505af115801562001bec573d6000803e3d6000fd5b505050506040513d601f19601f8201168201806040525081019062001c12919062003658565b5050565b600062001c2262002b13565b73ffffffffffffffffffffffffffffffffffffffff1662001c42620020d3565b73ffffffffffffffffffffffffffffffffffffffff161462001c9b576040517f08c379a000000000000000000000000000000000000000000000000000000000815260040162001c9290620040bb565b60405180910390fd5b600260008373ffffffffffffffffffffffffffffffffffffffff1673ffffffffffffffffffffffffffffffffffffffff16815260200190815260200160002060009054906101000a900460ff1662001d9f576001600260008473ffffffffffffffffffffffffffffffffffffffff1673ffffffffffffffffffffffffffffffffffffffff16815260200190815260200160002060006101000a81548160ff0219169083151502179055507fd1bba68c128cc3f427e5831b3c6f99f480b6efa6b9e80c757768f6124158cc3f8260405162001d76919062003daf565b60405180910390a160016003600082825462001d939190620042d8565b92505081905550600190505b919050565b60065481565b6005805462001db990620044fc565b80601f016020809104026020016040519081016040528092919081815260200182805462001de790620044fc565b801562001e385780601f1062001e0c5761010080835404028352916020019162001e38565b820191906000526020600020905b81548152906001019060200180831162001e1a57829003601f168201915b505050505081565b62001e4a62002b13565b73ffffffffffffffffffffffffffffffffffffffff1662001e6a620020d3565b73ffffffffffffffffffffffffffffffffffffffff161462001ec3576040517f08c379a000000000000000000000000000000000000000000000000000000000815260040162001eba90620040bb565b60405180910390fd5b73__$36fdb4e0c2cb91f3ceca5ea81b025328f3$__63c406e268600e600754601160009054906101000a900473ffffffffffffffffffffffffffffffffffffffff16600c600b600d6040518763ffffffff1660e01b815260040162001f2e9695949392919062003fa2565b60006040518083038186803b15801562001f4757600080fd5b505af415801562001f5c573d6000803e3d6000fd5b50505050565b600073__$36fdb4e0c2cb91f3ceca5ea81b025328f3$__63fb0841fb8484600754601160009054906101000a900473ffffffffffffffffffffffffffffffffffffffff16600d60008a73ffffffffffffffffffffffffffffffffffffffff1673ffffffffffffffffffffffffffffffffffffffff168152602001908152602001600020600d60008a73ffffffffffffffffffffffffffffffffffffffff1673ffffffffffffffffffffffffffffffffffffffff168152602001908152602001600020600c600b6040518963ffffffff1660e01b81526004016200204d98979695949392919062003e09565b60206040518083038186803b1580156200206657600080fd5b505af41580156200207b573d6000803e3d6000fd5b505050506040513d601f19601f82011682018060405250810190620020a19190620034f6565b905092915050565b6000601160009054906101000a900473ffffffffffffffffffffffffffffffffffffffff16905090565b60008060029054906101000a900473ffffffffffffffffffffffffffffffffffffffff16905090565b60006001600084815260200190815260200160002060000160008373ffffffffffffffffffffffffffffffffffffffff1673ffffffffffffffffffffffffffffffffffffffff16815260200190815260200160002060009054906101000a900460ff16905092915050565b600f60009054906101000a900473ffffffffffffffffffffffffffffffffffffffff1681565b6000600980549050600854620021a4919062004335565b905090565b60026020528060005260406000206000915054906101000a900460ff1681565b6000801b81565b620021da62002b13565b73ffffffffffffffffffffffffffffffffffffffff16620021fa620020d3565b73ffffffffffffffffffffffffffffffffffffffff161462002253576040517f08c379a00000000000000000000000000000000000000000000000000000000081526004016200224a90620040bb565b60405180910390fd5b6000600a60156101000a81548160ff021916908315150217905550565b6060600d60003373ffffffffffffffffffffffffffffffffffffffff1673ffffffffffffffffffffffffffffffffffffffff168152602001908152602001600020805480602002602001604051908101604052809291908181526020018280548015620022fd57602002820191906000526020600020905b815481526020019060010190808311620022e8575b5050505050905090565b6200231162002b13565b73ffffffffffffffffffffffffffffffffffffffff1662002331620020d3565b73ffffffffffffffffffffffffffffffffffffffff16146200238a576040517f08c379a00000000000000000000000000000000000000000000000000000000081526004016200238190620040bb565b60405180910390fd5b6001600a60156101000a81548160ff021916908315150217905550565b600260003373ffffffffffffffffffffffffffffffffffffffff1673ffffffffffffffffffffffffffffffffffffffff16815260200190815260200160002060009054906101000a900460ff16806200240c5750600460009054906101000a900460ff165b6200241657600080fd5b600a60149054906101000a900460ff161562002469576040517f08c379a00000000000000000000000000000000000000000000000000000000081526004016200246090620040ff565b60405180910390fd5b6009339080600181540180825580915050600190039060005260206000200160009091909190916101000a81548173ffffffffffffffffffffffffffffffffffffffff021916908373ffffffffffffffffffffffffffffffffffffffff160217905550601460009054906101000a900473ffffffffffffffffffffffffffffffffffffffff1673ffffffffffffffffffffffffffffffffffffffff166323b872dd33306008546040518463ffffffff1660e01b81526004016200252f9392919062003dcc565b602060405180830381600087803b1580156200254a57600080fd5b505af11580156200255f573d6000803e3d6000fd5b505050506040513d601f19601f8201168201806040525081019062002585919062003658565b507f9e71bc8eea02a63969f509818f2dafb9254532904319f9dbda79b67bd34a5f3d33600854604051620025bb92919062003ea5565b60405180910390a1565b6000601460009054906101000a900473ffffffffffffffffffffffffffffffffffffffff16905090565b620025fa8262000f98565b6200260f816200260962002b13565b62002b1b565b6200261b838362002ca8565b505050565b600460009054906101000a900460ff1681565b60006200263f62002b13565b73ffffffffffffffffffffffffffffffffffffffff166200265f620020d3565b73ffffffffffffffffffffffffffffffffffffffff1614620026b8576040517f08c379a0000000000000000000000000000000000000000000000000000000008152600401620026af90620040bb565b60405180910390fd5b60005b82518110156200272a57620026ed838281518110620026df57620026de62004632565b5b602002602001015162001c16565b156200271457600160036000828254620027089190620042d8565b92505081905550600191505b8080620027219062004586565b915050620026bb565b50919050565b6200273a62002b13565b73ffffffffffffffffffffffffffffffffffffffff166200275a620020d3565b73ffffffffffffffffffffffffffffffffffffffff1614620027b3576040517f08c379a0000000000000000000000000000000000000000000000000000000008152600401620027aa90620040bb565b60405180910390fd5b6001600a60146101000a81548160ff021916908315150217905550565b620027da62002b13565b73ffffffffffffffffffffffffffffffffffffffff16620027fa620020d3565b73ffffffffffffffffffffffffffffffffffffffff161462002853576040517f08c379a00000000000000000000000000000000000000000000000000000000081526004016200284a90620040bb565b60405180910390fd5b600073ffffffffffffffffffffffffffffffffffffffff168173ffffffffffffffffffffffffffffffffffffffff161415620028c6576040517f08c379a0000000000000000000000000000000000000000000000000000000008152600401620028bd9062004055565b60405180910390fd5b620028d18162002db2565b50565b600a60159054906101000a900460ff161562002927576040517f08c379a00000000000000000000000000000000000000000000000000000000081526004016200291e9062004077565b60405180910390fd5b80600d60003373ffffffffffffffffffffffffffffffffffffffff1673ffffffffffffffffffffffffffffffffffffffff16815260200190815260200160002090805190602001906200297c929190620031e0565b5050565b6200298a620031bd565b600c60003373ffffffffffffffffffffffffffffffffffffffff1673ffffffffffffffffffffffffffffffffffffffff16815260200190815260200160002060088060200260405190810160405280929190826008801562002a02576020028201915b815481526020019060010190808311620029ed575b5050505050905090565b60007f01ffc9a7000000000000000000000000000000000000000000000000000000007bffffffffffffffffffffffffffffffffffffffffffffffffffffffff1916827bffffffffffffffffffffffffffffffffffffffffffffffffffffffff1916149050919050565b62002b108160405160240162002a8d91906200400f565b6040516020818303038152906040527f41304fac000000000000000000000000000000000000000000000000000000007bffffffffffffffffffffffffffffffffffffffffffffffffffffffff19166020820180517bffffffffffffffffffffffffffffffffffffffffffffffffffffffff838183161783525050505062002e77565b50565b600033905090565b62002b278282620020fc565b62002bbf5762002b4f8173ffffffffffffffffffffffffffffffffffffffff16601462002ea0565b62002b5f8360001c602062002ea0565b60405160200162002b7292919062003d6d565b6040516020818303038152906040526040517f08c379a000000000000000000000000000000000000000000000000000000000815260040162002bb691906200400f565b60405180910390fd5b5050565b62002bcf8282620020fc565b62002ca457600180600084815260200190815260200160002060000160008373ffffffffffffffffffffffffffffffffffffffff1673ffffffffffffffffffffffffffffffffffffffff16815260200190815260200160002060006101000a81548160ff02191690831515021790555062002c4962002b13565b73ffffffffffffffffffffffffffffffffffffffff168173ffffffffffffffffffffffffffffffffffffffff16837f2f8788117e7eff1d82e926ec794901d17c78024a50270940304540a733656f0d60405160405180910390a45b5050565b62002cb48282620020fc565b1562002d8b5760006001600084815260200190815260200160002060000160008373ffffffffffffffffffffffffffffffffffffffff1673ffffffffffffffffffffffffffffffffffffffff16815260200190815260200160002060006101000a81548160ff02191690831515021790555062002d3062002b13565b73ffffffffffffffffffffffffffffffffffffffff168173ffffffffffffffffffffffffffffffffffffffff16837ff6391f5c32d9c69d2a47ea670b442974b53935d1edc7fd64eb21e047a839171b60405160405180910390a45b5050565b600062002d9c30620030fb565b15905090565b62002dae828262002bc3565b5050565b60008060029054906101000a900473ffffffffffffffffffffffffffffffffffffffff16905081600060026101000a81548173ffffffffffffffffffffffffffffffffffffffff021916908373ffffffffffffffffffffffffffffffffffffffff1602179055508173ffffffffffffffffffffffffffffffffffffffff168173ffffffffffffffffffffffffffffffffffffffff167f8be0079c531659141344cd1fd0a4f28419497f9722a3daafe3b4186f6b6457e060405160405180910390a35050565b60008151905060006a636f6e736f6c652e6c6f679050602083016000808483855afa5050505050565b60606000600283600262002eb5919062004335565b62002ec19190620042d8565b67ffffffffffffffff81111562002edd5762002edc62004661565b5b6040519080825280601f01601f19166020018201604052801562002f105781602001600182028036833780820191505090505b5090507f30000000000000000000000000000000000000000000000000000000000000008160008151811062002f4b5762002f4a62004632565b5b60200101907effffffffffffffffffffffffffffffffffffffffffffffffffffffffffffff1916908160001a9053507f78000000000000000000000000000000000000000000000000000000000000008160018151811062002fb25762002fb162004632565b5b60200101907effffffffffffffffffffffffffffffffffffffffffffffffffffffffffffff1916908160001a9053506000600184600262002ff4919062004335565b620030009190620042d8565b90505b6001811115620030aa577f3031323334353637383961626364656600000000000000000000000000000000600f86166010811062003046576200304562004632565b5b1a60f81b82828151811062003060576200305f62004632565b5b60200101907effffffffffffffffffffffffffffffffffffffffffffffffffffffffffffff1916908160001a905350600485901c945080620030a290620044cd565b905062003003565b5060008414620030f1576040517f08c379a0000000000000000000000000000000000000000000000000000000008152600401620030e89062004033565b60405180910390fd5b8091505092915050565b6000808273ffffffffffffffffffffffffffffffffffffffff163b119050919050565b8280546200312c90620044fc565b90600052602060002090601f0160209004810192826200315057600085556200319c565b82601f106200316b57803560ff19168380011785556200319c565b828001600101855582156200319c579182015b828111156200319b5782358255916020019190600101906200317e565b5b509050620031ab919062003232565b5090565b610f9f806200496b83390190565b604051806101000160405280600890602082028036833780820191505090505090565b8280548282559060005260206000209081019282156200321f579160200282015b828111156200321e57825182559160200191906001019062003201565b5b5090506200322e919062003232565b5090565b5b808211156200324d57600081600090555060010162003233565b5090565b600062003268620032628462004189565b62004160565b905080838252602082019050828560208602820111156200328e576200328d620046af565b5b60005b85811015620032c25781620032a7888262003347565b84526020840193506020830192505060018101905062003291565b5050509392505050565b6000620032e3620032dd84620041b8565b62004160565b90508083825260208201905082856020860282011115620033095762003308620046af565b5b60005b858110156200333d578162003322888262003496565b8452602084019350602083019250506001810190506200330c565b5050509392505050565b6000813590506200335881620048e8565b92915050565b6000815190506200336f81620048e8565b92915050565b600082601f8301126200338d576200338c620046aa565b5b81356200339f84826020860162003251565b91505092915050565b600082601f830112620033c057620033bf620046aa565b5b8135620033d2848260208601620032cc565b91505092915050565b600081359050620033ec8162004902565b92915050565b600081519050620034038162004902565b92915050565b6000813590506200341a816200491c565b92915050565b600081359050620034318162004936565b92915050565b60008083601f84011262003450576200344f620046aa565b5b8235905067ffffffffffffffff81111562003470576200346f620046a5565b5b6020830191508360018202830111156200348f576200348e620046af565b5b9250929050565b600081359050620034a78162004950565b92915050565b600081519050620034be8162004950565b92915050565b600060208284031215620034dd57620034dc620046b9565b5b6000620034ed8482850162003347565b91505092915050565b6000602082840312156200350f576200350e620046b9565b5b60006200351f848285016200335e565b91505092915050565b60008060408385031215620035425762003541620046b9565b5b6000620035528582860162003347565b9250506020620035658582860162003347565b9150509250929050565b60008060408385031215620035895762003588620046b9565b5b6000620035998582860162003347565b9250506020620035ac8582860162003496565b9150509250929050565b600060208284031215620035cf57620035ce620046b9565b5b600082013567ffffffffffffffff811115620035f057620035ef620046b4565b5b620035fe8482850162003375565b91505092915050565b60006020828403121562003620576200361f620046b9565b5b600082013567ffffffffffffffff811115620036415762003640620046b4565b5b6200364f84828501620033a8565b91505092915050565b600060208284031215620036715762003670620046b9565b5b60006200368184828501620033f2565b91505092915050565b600060208284031215620036a357620036a2620046b9565b5b6000620036b38482850162003409565b91505092915050565b60008060408385031215620036d657620036d5620046b9565b5b6000620036e68582860162003409565b9250506020620036f98582860162003347565b9150509250929050565b6000602082840312156200371c576200371b620046b9565b5b60006200372c8482850162003420565b91505092915050565b60008060008060008060008060008060006101408c8e0312156200375e576200375d620046b9565b5b60008c013567ffffffffffffffff8111156200377f576200377e620046b4565b5b6200378d8e828f0162003437565b9b509b50506020620037a28e828f0162003496565b9950506040620037b58e828f0162003496565b9850506060620037c88e828f01620033db565b9750506080620037db8e828f0162003347565b96505060a0620037ee8e828f0162003347565b95505060c0620038018e828f0162003347565b94505060e0620038148e828f0162003347565b935050610100620038288e828f0162003347565b9250506101206200383c8e828f0162003347565b9150509295989b509295989b9093969950565b600060208284031215620038685762003867620046b9565b5b6000620038788482850162003496565b91505092915050565b6000602082840312156200389a5762003899620046b9565b5b6000620038aa84828501620034ad565b91505092915050565b6000620038c1838362003d29565b60208301905092915050565b6000620038db838362003d5c565b60208301905092915050565b620038f281620043db565b82525050565b6200390381620043db565b82525050565b8082525050565b6200391b816200422b565b6200392781846200427e565b92506200393482620041e7565b8060005b838110156200396b5781516200394f8782620038b3565b96506200395c8362004257565b92505060018101905062003938565b505050505050565b6000620039808262004236565b6200398c818562004289565b93506200399983620041f1565b8060005b83811015620039d0578151620039b48882620038b3565b9750620039c18362004264565b9250506001810190506200399d565b5085935050505092915050565b6000620039ea8262004241565b620039f681856200429a565b935062003a038362004201565b8060005b8381101562003a435762003a1b8262004690565b62003a278882620038cd565b975062003a348362004271565b92505060018101905062003a07565b5085935050505092915050565b62003a5b81620043ef565b82525050565b62003a6c81620043fb565b82525050565b62003a7d816200445b565b82525050565b8082525050565b8082525050565b8082525050565b8082525050565b600062003aac826200424c565b62003ab88185620042ab565b935062003aca81856020860162004497565b62003ad581620046be565b840191505092915050565b600062003aed826200424c565b62003af98185620042cd565b935062003b0b81856020860162004497565b80840191505092915050565b6000815462003b2681620044fc565b62003b328186620042bc565b9450600182166000811462003b50576001811462003b635762003b9a565b60ff198316865260208601935062003b9a565b62003b6e8562004216565b60005b8381101562003b925781548189015260018201915060208101905062003b71565b808801955050505b50505092915050565b600062003bb2602083620042ab565b915062003bbf82620046dc565b602082019050919050565b600062003bd9602683620042ab565b915062003be68262004705565b604082019050919050565b600062003c00601e83620042ab565b915062003c0d8262004754565b602082019050919050565b600062003c27602e83620042ab565b915062003c34826200477d565b604082019050919050565b600062003c4e602083620042ab565b915062003c5b82620047cc565b602082019050919050565b600062003c75601783620042ab565b915062003c8282620047f5565b602082019050919050565b600062003c9c601783620042cd565b915062003ca9826200481e565b601782019050919050565b600062003cc3601783620042ab565b915062003cd08262004847565b602082019050919050565b600062003cea601183620042cd565b915062003cf78262004870565b601182019050919050565b600062003d11602f83620042ab565b915062003d1e8262004899565b604082019050919050565b62003d348162004451565b82525050565b62003d458162004451565b82525050565b62003d568162004451565b82525050565b62003d678162004451565b82525050565b600062003d7a8262003c8d565b915062003d88828562003ae0565b915062003d958262003cdb565b915062003da3828462003ae0565b91508190509392505050565b600060208201905062003dc66000830184620038e7565b92915050565b600060608201905062003de36000830186620038e7565b62003df26020830185620038e7565b62003e01604083018462003d3a565b949350505050565b60006101008201905062003e21600083018b620038f8565b62003e30602083018a620038f8565b62003e3f604083018962003d4b565b62003e4e606083018862003a72565b818103608083015262003e628187620039dd565b905081810360a083015262003e788186620039dd565b905062003e8960c083018562003a83565b62003e9860e083018462003a91565b9998505050505050505050565b600060408201905062003ebc6000830185620038e7565b62003ecb602083018462003d3a565b9392505050565b60006101008201905062003eea600083018462003910565b92915050565b6000602082019050818103600083015262003f0c818462003973565b905092915050565b600060208201905062003f2b600083018462003a50565b92915050565b600060208201905062003f48600083018462003a61565b92915050565b600060808201905062003f65600083018762003a98565b62003f74602083018662003909565b62003f83604083018562003d4b565b818103606083015262003f97818462003b17565b905095945050505050565b600060c08201905062003fb9600083018962003a98565b62003fc8602083018862003d4b565b62003fd7604083018762003a72565b62003fe6606083018662003a83565b62003ff5608083018562003a91565b6200400460a083018462003a8a565b979650505050505050565b600060208201905081810360008301526200402b818462003a9f565b905092915050565b600060208201905081810360008301526200404e8162003ba3565b9050919050565b60006020820190508181036000830152620040708162003bca565b9050919050565b60006020820190508181036000830152620040928162003bf1565b9050919050565b60006020820190508181036000830152620040b48162003c18565b9050919050565b60006020820190508181036000830152620040d68162003c3f565b9050919050565b60006020820190508181036000830152620040f88162003c66565b9050919050565b600060208201905081810360008301526200411a8162003cb4565b9050919050565b600060208201905081810360008301526200413c8162003d02565b9050919050565b60006020820190506200415a600083018462003d3a565b92915050565b60006200416c6200417f565b90506200417a828262004550565b919050565b6000604051905090565b600067ffffffffffffffff821115620041a757620041a662004661565b5b602082029050602081019050919050565b600067ffffffffffffffff821115620041d657620041d562004661565b5b602082029050602081019050919050565b6000819050919050565b6000819050602082019050919050565b60008190508160005260206000209050919050565b60008190508160005260206000209050919050565b600060089050919050565b600081519050919050565b600081549050919050565b600081519050919050565b6000602082019050919050565b6000602082019050919050565b6000600182019050919050565b600081905092915050565b600082825260208201905092915050565b600082825260208201905092915050565b600082825260208201905092915050565b600082825260208201905092915050565b600081905092915050565b6000620042e58262004451565b9150620042f28362004451565b9250827fffffffffffffffffffffffffffffffffffffffffffffffffffffffffffffffff038211156200432a5762004329620045d4565b5b828201905092915050565b6000620043428262004451565b91506200434f8362004451565b9250817fffffffffffffffffffffffffffffffffffffffffffffffffffffffffffffffff04831182151516156200438b576200438a620045d4565b5b828202905092915050565b6000620043a38262004451565b9150620043b08362004451565b925082821015620043c657620043c5620045d4565b5b828203905092915050565b6000819050919050565b6000620043e88262004431565b9050919050565b60008115159050919050565b6000819050919050565b60007fffffffff0000000000000000000000000000000000000000000000000000000082169050919050565b600073ffffffffffffffffffffffffffffffffffffffff82169050919050565b6000819050919050565b600062004468826200446f565b9050919050565b60006200447c8262004483565b9050919050565b6000620044908262004431565b9050919050565b60005b83811015620044b75780820151818401526020810190506200449a565b83811115620044c7576000848401525b50505050565b6000620044da8262004451565b91506000821415620044f157620044f0620045d4565b5b600182039050919050565b600060028204905060018216806200451557607f821691505b602082108114156200452c576200452b62004603565b5b50919050565b6000620045496200454383620046cf565b620043d1565b9050919050565b6200455b82620046be565b810181811067ffffffffffffffff821117156200457d576200457c62004661565b5b80604052505050565b6000620045938262004451565b91507fffffffffffffffffffffffffffffffffffffffffffffffffffffffffffffffff821415620045c957620045c8620045d4565b5b600182019050919050565b7f4e487b7100000000000000000000000000000000000000000000000000000000600052601160045260246000fd5b7f4e487b7100000000000000000000000000000000000000000000000000000000600052602260045260246000fd5b7f4e487b7100000000000000000000000000000000000000000000000000000000600052603260045260246000fd5b7f4e487b7100000000000000000000000000000000000000000000000000000000600052604160045260246000fd5b60006200469e825462004532565b9050919050565b600080fd5b600080fd5b600080fd5b600080fd5b600080fd5b6000601f19601f8301169050919050565b60008160001c9050919050565b7f537472696e67733a20686578206c656e67746820696e73756666696369656e74600082015250565b7f4f776e61626c653a206e6577206f776e657220697320746865207a65726f206160008201527f6464726573730000000000000000000000000000000000000000000000000000602082015250565b7f6c696e657570206973206c6f636b656420666f7220746865207765656b210000600082015250565b7f496e697469616c697a61626c653a20636f6e747261637420697320616c72656160008201527f647920696e697469616c697a6564000000000000000000000000000000000000602082015250565b7f4f776e61626c653a2063616c6c6572206973206e6f7420746865206f776e6572600082015250565b7f43616c6c6572206973206e6f74207468652061646d696e000000000000000000600082015250565b7f416363657373436f6e74726f6c3a206163636f756e7420000000000000000000600082015250565b7f4c656167756520456e74727920697320436c6f73656421000000000000000000600082015250565b7f206973206d697373696e6720726f6c6520000000000000000000000000000000600082015250565b7f416363657373436f6e74726f6c3a2063616e206f6e6c792072656e6f756e636560008201527f20726f6c657320666f722073656c660000000000000000000000000000000000602082015250565b620048f381620043db565b8114620048ff57600080fd5b50565b6200490d81620043ef565b81146200491957600080fd5b50565b6200492781620043fb565b81146200493357600080fd5b50565b620049418162004405565b81146200494d57600080fd5b50565b6200495b8162004451565b81146200496757600080fd5b5056fe608060405234801561001057600080fd5b5061002d61002261003260201b60201c565b61003a60201b60201c565b6100fe565b600033905090565b60008060009054906101000a900473ffffffffffffffffffffffffffffffffffffffff169050816000806101000a81548173ffffffffffffffffffffffffffffffffffffffff021916908373ffffffffffffffffffffffffffffffffffffffff1602179055508173ffffffffffffffffffffffffffffffffffffffff168173ffffffffffffffffffffffffffffffffffffffff167f8be0079c531659141344cd1fd0a4f28419497f9722a3daafe3b4186f6b6457e060405160405180910390a35050565b610e928061010d6000396000f3fe608060405234801561001057600080fd5b50600436106100935760003560e01c80638da5cb5b116100665780638da5cb5b146101325780639b19251a14610150578063dc9a153514610180578063e2ec6ec31461019e578063f2fde38b146101ce57610093565b806324953eaa14610098578063286dd3f5146100c8578063715018a6146100f85780637b9417c814610102575b600080fd5b6100b260048036038101906100ad9190610a4a565b6101ea565b6040516100bf9190610b12565b60405180910390f35b6100e260048036038101906100dd9190610a1d565b6102d4565b6040516100ef9190610b12565b60405180910390f35b610100610457565b005b61011c60048036038101906101179190610a1d565b6104df565b6040516101299190610b12565b60405180910390f35b61013a610660565b6040516101479190610af7565b60405180910390f35b61016a60048036038101906101659190610a1d565b610689565b6040516101779190610b12565b60405180910390f35b6101886106a9565b6040516101959190610b12565b60405180910390f35b6101b860048036038101906101b39190610a4a565b6106bc565b6040516101c59190610b12565b60405180910390f35b6101e860048036038101906101e39190610a1d565b6107a6565b005b60006101f461089e565b73ffffffffffffffffffffffffffffffffffffffff16610212610660565b73ffffffffffffffffffffffffffffffffffffffff1614610268576040517f08c379a000000000000000000000000000000000000000000000000000000000815260040161025f90610b4d565b60405180910390fd5b60005b82518110156102ce5761029783828151811061028a57610289610d4a565b5b60200260200101516102d4565b156102bb576001600260008282546102af9190610c25565b92505081905550600191505b80806102c690610cd2565b91505061026b565b50919050565b60006102de61089e565b73ffffffffffffffffffffffffffffffffffffffff166102fc610660565b73ffffffffffffffffffffffffffffffffffffffff1614610352576040517f08c379a000000000000000000000000000000000000000000000000000000000815260040161034990610b4d565b60405180910390fd5b600160008373ffffffffffffffffffffffffffffffffffffffff1673ffffffffffffffffffffffffffffffffffffffff16815260200190815260200160002060009054906101000a900460ff1615610452576000600160008473ffffffffffffffffffffffffffffffffffffffff1673ffffffffffffffffffffffffffffffffffffffff16815260200190815260200160002060006101000a81548160ff0219169083151502179055507ff1abf01a1043b7c244d128e8595cf0c1d10743b022b03a02dffd8ca3bf729f5a8260405161042b9190610af7565b60405180910390a16001600260008282546104469190610c25565b92505081905550600190505b919050565b61045f61089e565b73ffffffffffffffffffffffffffffffffffffffff1661047d610660565b73ffffffffffffffffffffffffffffffffffffffff16146104d3576040517f08c379a00000000000000000000000000000000000000000000000000000000081526004016104ca90610b4d565b60405180910390fd5b6104dd60006108a6565b565b60006104e961089e565b73ffffffffffffffffffffffffffffffffffffffff16610507610660565b73ffffffffffffffffffffffffffffffffffffffff161461055d576040517f08c379a000000000000000000000000000000000000000000000000000000000815260040161055490610b4d565b60405180910390fd5b600160008373ffffffffffffffffffffffffffffffffffffffff1673ffffffffffffffffffffffffffffffffffffffff16815260200190815260200160002060009054906101000a900460ff1661065b5760018060008473ffffffffffffffffffffffffffffffffffffffff1673ffffffffffffffffffffffffffffffffffffffff16815260200190815260200160002060006101000a81548160ff0219169083151502179055507fd1bba68c128cc3f427e5831b3c6f99f480b6efa6b9e80c757768f6124158cc3f826040516106349190610af7565b60405180910390a160016002600082825461064f9190610bcf565b92505081905550600190505b919050565b60008060009054906101000a900473ffffffffffffffffffffffffffffffffffffffff16905090565b60016020528060005260406000206000915054906101000a900460ff1681565b600360009054906101000a900460ff1681565b60006106c661089e565b73ffffffffffffffffffffffffffffffffffffffff166106e4610660565b73ffffffffffffffffffffffffffffffffffffffff161461073a576040517f08c379a000000000000000000000000000000000000000000000000000000000815260040161073190610b4d565b60405180910390fd5b60005b82518110156107a05761076983828151811061075c5761075b610d4a565b5b60200260200101516104df565b1561078d576001600260008282546107819190610bcf565b92505081905550600191505b808061079890610cd2565b91505061073d565b50919050565b6107ae61089e565b73ffffffffffffffffffffffffffffffffffffffff166107cc610660565b73ffffffffffffffffffffffffffffffffffffffff1614610822576040517f08c379a000000000000000000000000000000000000000000000000000000000815260040161081990610b4d565b60405180910390fd5b600073ffffffffffffffffffffffffffffffffffffffff168173ffffffffffffffffffffffffffffffffffffffff161415610892576040517f08c379a000000000000000000000000000000000000000000000000000000000815260040161088990610b2d565b60405180910390fd5b61089b816108a6565b50565b600033905090565b60008060009054906101000a900473ffffffffffffffffffffffffffffffffffffffff169050816000806101000a81548173ffffffffffffffffffffffffffffffffffffffff021916908373ffffffffffffffffffffffffffffffffffffffff1602179055508173ffffffffffffffffffffffffffffffffffffffff168173ffffffffffffffffffffffffffffffffffffffff167f8be0079c531659141344cd1fd0a4f28419497f9722a3daafe3b4186f6b6457e060405160405180910390a35050565b600061097d61097884610b92565b610b6d565b905080838252602082019050828560208602820111156109a05761099f610dad565b5b60005b858110156109d057816109b688826109da565b8452602084019350602083019250506001810190506109a3565b5050509392505050565b6000813590506109e981610e45565b92915050565b600082601f830112610a0457610a03610da8565b5b8135610a1484826020860161096a565b91505092915050565b600060208284031215610a3357610a32610db7565b5b6000610a41848285016109da565b91505092915050565b600060208284031215610a6057610a5f610db7565b5b600082013567ffffffffffffffff811115610a7e57610a7d610db2565b5b610a8a848285016109ef565b91505092915050565b610a9c81610c59565b82525050565b610aab81610c6b565b82525050565b6000610abe602683610bbe565b9150610ac982610dcd565b604082019050919050565b6000610ae1602083610bbe565b9150610aec82610e1c565b602082019050919050565b6000602082019050610b0c6000830184610a93565b92915050565b6000602082019050610b276000830184610aa2565b92915050565b60006020820190508181036000830152610b4681610ab1565b9050919050565b60006020820190508181036000830152610b6681610ad4565b9050919050565b6000610b77610b88565b9050610b838282610ca1565b919050565b6000604051905090565b600067ffffffffffffffff821115610bad57610bac610d79565b5b602082029050602081019050919050565b600082825260208201905092915050565b6000610bda82610c97565b9150610be583610c97565b9250827fffffffffffffffffffffffffffffffffffffffffffffffffffffffffffffffff03821115610c1a57610c19610d1b565b5b828201905092915050565b6000610c3082610c97565b9150610c3b83610c97565b925082821015610c4e57610c4d610d1b565b5b828203905092915050565b6000610c6482610c77565b9050919050565b60008115159050919050565b600073ffffffffffffffffffffffffffffffffffffffff82169050919050565b6000819050919050565b610caa82610dbc565b810181811067ffffffffffffffff82111715610cc957610cc8610d79565b5b80604052505050565b6000610cdd82610c97565b91507fffffffffffffffffffffffffffffffffffffffffffffffffffffffffffffffff821415610d1057610d0f610d1b565b5b600182019050919050565b7f4e487b7100000000000000000000000000000000000000000000000000000000600052601160045260246000fd5b7f4e487b7100000000000000000000000000000000000000000000000000000000600052603260045260246000fd5b7f4e487b7100000000000000000000000000000000000000000000000000000000600052604160045260246000fd5b600080fd5b600080fd5b600080fd5b600080fd5b6000601f19601f8301169050919050565b7f4f776e61626c653a206e6577206f776e657220697320746865207a65726f206160008201527f6464726573730000000000000000000000000000000000000000000000000000602082015250565b7f4f776e61626c653a2063616c6c6572206973206e6f7420746865206f776e6572600082015250565b610e4e81610c59565b8114610e5957600080fd5b5056fea2646970667358221220a21085165a95bba102b3fe59880e17f3027964706b8a63561e6b8ccd43ba90fb64736f6c63430008070033746f6f206d616e7920757365727320696e206c656167756520746f20616464206e65772075736572a2646970667358221220a0215a95279bbf645091396434f654dd67c06cfe0947e7d216ca918d0ac2593d64736f6c63430008070033",
  "linkReferences": {
    "contracts/MOBALogicLibrary.sol": {
      "MOBALogicLibrary": [
        {
          "length": 20,
          "start": 3034
        },
        {
          "length": 20,
          "start": 8154
        },
        {
          "length": 20,
          "start": 8315
        }
      ]
    }
  },
  "deployedLinkReferences": {
    "contracts/MOBALogicLibrary.sol": {
      "MOBALogicLibrary": [
        {
          "length": 20,
          "start": 2757
        },
        {
          "length": 20,
          "start": 7877
        },
        {
          "length": 20,
          "start": 8038
        }
      ]
    }
  }
}