{
  "_format": "hh-sol-artifact-1",
  "contractName": "LeagueOfLegendsLogic",
  "sourceName": "contracts/LeagueOfLegendsLogic.sol",
  "abi": [
    {
      "anonymous": false,
      "inputs": [
        {
          "indexed": true,
          "internalType": "address",
          "name": "previousOwner",
          "type": "address"
        },
        {
          "indexed": true,
          "internalType": "address",
          "name": "newOwner",
          "type": "address"
        }
      ],
      "name": "OwnershipTransferred",
      "type": "event"
    },
    {
      "anonymous": false,
      "inputs": [
        {
          "indexed": false,
          "internalType": "address",
          "name": "sender",
          "type": "address"
        },
        {
          "indexed": false,
          "internalType": "uint256",
          "name": "amount",
          "type": "uint256"
        }
      ],
      "name": "Staked",
      "type": "event"
    },
    {
      "anonymous": false,
      "inputs": [
        {
          "indexed": false,
          "internalType": "address",
          "name": "addr",
          "type": "address"
        }
      ],
      "name": "WhitelistedAddressAdded",
      "type": "event"
    },
    {
      "anonymous": false,
      "inputs": [
        {
          "indexed": false,
          "internalType": "address",
          "name": "addr",
          "type": "address"
        }
      ],
      "name": "WhitelistedAddressRemoved",
      "type": "event"
    },
    {
      "anonymous": false,
      "inputs": [
        {
          "indexed": false,
          "internalType": "address",
          "name": "winner",
          "type": "address"
        }
      ],
      "name": "leagueEnded",
      "type": "event"
    },
    {
      "anonymous": false,
      "inputs": [
        {
          "indexed": false,
          "internalType": "address",
          "name": "sender",
          "type": "address"
        },
        {
          "indexed": false,
          "internalType": "address",
          "name": "contractAddress",
          "type": "address"
        }
      ],
      "name": "testUSDCDeployed",
      "type": "event"
    },
    {
      "inputs": [
        {
          "internalType": "address",
          "name": "addr",
          "type": "address"
        }
      ],
      "name": "addAddressToWhitelist",
      "outputs": [
        {
          "internalType": "bool",
          "name": "success",
          "type": "bool"
        }
      ],
      "stateMutability": "nonpayable",
      "type": "function"
    },
    {
      "inputs": [
        {
          "internalType": "address[]",
          "name": "addrs",
          "type": "address[]"
        }
      ],
      "name": "addAddressesToWhitelist",
      "outputs": [
        {
          "internalType": "bool",
          "name": "success",
          "type": "bool"
        }
      ],
      "stateMutability": "nonpayable",
      "type": "function"
    },
    {
      "inputs": [
        {
          "internalType": "address",
          "name": "_userToAdd",
          "type": "address"
        }
      ],
      "name": "addUserToWhitelist",
      "outputs": [],
      "stateMutability": "nonpayable",
      "type": "function"
    },
    {
      "inputs": [],
      "name": "admin",
      "outputs": [
        {
          "internalType": "address",
          "name": "",
          "type": "address"
        }
      ],
      "stateMutability": "view",
      "type": "function"
    },
    {
      "inputs": [],
      "name": "currentWeekNum",
      "outputs": [
        {
          "internalType": "uint256",
          "name": "",
          "type": "uint256"
        }
      ],
      "stateMutability": "view",
      "type": "function"
    },
    {
      "inputs": [],
      "name": "evaluateMatches",
      "outputs": [],
      "stateMutability": "nonpayable",
      "type": "function"
    },
    {
      "inputs": [],
      "name": "getAdmin",
      "outputs": [
        {
          "internalType": "address",
          "name": "",
          "type": "address"
        }
      ],
      "stateMutability": "view",
      "type": "function"
    },
    {
      "inputs": [
        {
          "internalType": "address",
          "name": "_user",
          "type": "address"
        }
      ],
      "name": "getLineup",
      "outputs": [
        {
          "internalType": "uint256[]",
          "name": "",
          "type": "uint256[]"
        }
      ],
      "stateMutability": "view",
      "type": "function"
    },
    {
      "inputs": [],
      "name": "getLineupIsLocked",
      "outputs": [
        {
          "internalType": "bool",
          "name": "",
          "type": "bool"
        }
      ],
      "stateMutability": "view",
      "type": "function"
    },
    {
      "inputs": [],
      "name": "getNumWhitelisted",
      "outputs": [
        {
          "internalType": "uint256",
          "name": "",
          "type": "uint256"
        }
      ],
      "stateMutability": "view",
      "type": "function"
    },
    {
      "inputs": [
        {
          "internalType": "uint256",
          "name": "_week",
          "type": "uint256"
        }
      ],
      "name": "getScheduleForWeek",
      "outputs": [
        {
          "components": [
            {
              "internalType": "address[2]",
              "name": "players",
              "type": "address[2]"
            }
          ],
          "internalType": "struct LeagueOfLegendsLogic.Matchup[]",
          "name": "",
          "type": "tuple[]"
        }
      ],
      "stateMutability": "view",
      "type": "function"
    },
    {
      "inputs": [],
      "name": "getUSDCBalance",
      "outputs": [
        {
          "internalType": "uint256",
          "name": "",
          "type": "uint256"
        }
      ],
      "stateMutability": "view",
      "type": "function"
    },
    {
      "inputs": [
        {
          "internalType": "address",
          "name": "_user",
          "type": "address"
        }
      ],
      "name": "getUserIsWhitelisted",
      "outputs": [
        {
          "internalType": "bool",
          "name": "",
          "type": "bool"
        }
      ],
      "stateMutability": "view",
      "type": "function"
    },
    {
      "inputs": [],
      "name": "getUserRecord",
      "outputs": [
        {
          "internalType": "uint256[]",
          "name": "",
          "type": "uint256[]"
        }
      ],
      "stateMutability": "view",
      "type": "function"
    },
    {
      "inputs": [],
      "name": "getUserTotalPts",
      "outputs": [
        {
          "internalType": "uint256",
          "name": "",
          "type": "uint256"
        }
      ],
      "stateMutability": "view",
      "type": "function"
    },
    {
      "inputs": [],
      "name": "getUserUSDCBalance",
      "outputs": [
        {
          "internalType": "uint256",
          "name": "",
          "type": "uint256"
        }
      ],
      "stateMutability": "view",
      "type": "function"
    },
    {
      "inputs": [],
      "name": "getUsersLength",
      "outputs": [
        {
          "internalType": "uint256",
          "name": "",
          "type": "uint256"
        }
      ],
      "stateMutability": "view",
      "type": "function"
    },
    {
      "inputs": [
        {
          "internalType": "address",
          "name": "",
          "type": "address"
        }
      ],
      "name": "inLeague",
      "outputs": [
        {
          "internalType": "bool",
          "name": "",
          "type": "bool"
        }
      ],
      "stateMutability": "view",
      "type": "function"
    },
    {
      "inputs": [
        {
          "internalType": "string",
          "name": "_name",
          "type": "string"
        },
        {
          "internalType": "uint256",
          "name": "_stakeAmount",
          "type": "uint256"
        },
        {
          "internalType": "bool",
          "name": "_isPublic",
          "type": "bool"
        },
        {
          "internalType": "address",
          "name": "athletesDataStorageAddress",
          "type": "address"
        },
        {
          "internalType": "address",
          "name": "_admin",
          "type": "address"
        },
        {
          "internalType": "address",
          "name": "_rinkebyUSDCAddress",
          "type": "address"
        },
        {
          "internalType": "address",
          "name": "_testUSDCAddress",
          "type": "address"
        },
        {
          "internalType": "address",
          "name": "_gameItemsContractAddress",
          "type": "address"
        },
        {
          "internalType": "address",
          "name": "_teamDiffAddress",
          "type": "address"
        },
        {
          "internalType": "address",
          "name": "_leagueMakerContractAddress",
          "type": "address"
        }
      ],
      "name": "initialize",
      "outputs": [],
      "stateMutability": "nonpayable",
      "type": "function"
    },
    {
      "inputs": [],
      "name": "isPublic",
      "outputs": [
        {
          "internalType": "bool",
          "name": "",
          "type": "bool"
        }
      ],
      "stateMutability": "view",
      "type": "function"
    },
    {
      "inputs": [],
      "name": "joinLeague",
      "outputs": [],
      "stateMutability": "nonpayable",
      "type": "function"
    },
    {
      "inputs": [],
      "name": "leagueEntryIsClosed",
      "outputs": [
        {
          "internalType": "bool",
          "name": "",
          "type": "bool"
        }
      ],
      "stateMutability": "view",
      "type": "function"
    },
    {
      "inputs": [
        {
          "internalType": "uint256",
          "name": "",
          "type": "uint256"
        }
      ],
      "name": "leagueMembers",
      "outputs": [
        {
          "internalType": "address",
          "name": "",
          "type": "address"
        }
      ],
      "stateMutability": "view",
      "type": "function"
    },
    {
      "inputs": [],
      "name": "leagueName",
      "outputs": [
        {
          "internalType": "string",
          "name": "",
          "type": "string"
        }
      ],
      "stateMutability": "view",
      "type": "function"
    },
    {
      "inputs": [],
      "name": "lineupIsLocked",
      "outputs": [
        {
          "internalType": "bool",
          "name": "",
          "type": "bool"
        }
      ],
      "stateMutability": "view",
      "type": "function"
    },
    {
      "inputs": [],
      "name": "lockLineup",
      "outputs": [],
      "stateMutability": "nonpayable",
      "type": "function"
    },
    {
      "inputs": [],
      "name": "numWeeks",
      "outputs": [
        {
          "internalType": "uint256",
          "name": "",
          "type": "uint256"
        }
      ],
      "stateMutability": "view",
      "type": "function"
    },
    {
      "inputs": [],
      "name": "onLeagueEnd",
      "outputs": [],
      "stateMutability": "nonpayable",
      "type": "function"
    },
    {
      "inputs": [],
      "name": "owner",
      "outputs": [
        {
          "internalType": "address",
          "name": "",
          "type": "address"
        }
      ],
      "stateMutability": "view",
      "type": "function"
    },
    {
      "inputs": [
        {
          "internalType": "address",
          "name": "addr",
          "type": "address"
        }
      ],
      "name": "removeAddressFromWhitelist",
      "outputs": [
        {
          "internalType": "bool",
          "name": "success",
          "type": "bool"
        }
      ],
      "stateMutability": "nonpayable",
      "type": "function"
    },
    {
      "inputs": [
        {
          "internalType": "address[]",
          "name": "addrs",
          "type": "address[]"
        }
      ],
      "name": "removeAddressesFromWhitelist",
      "outputs": [
        {
          "internalType": "bool",
          "name": "success",
          "type": "bool"
        }
      ],
      "stateMutability": "nonpayable",
      "type": "function"
    },
    {
      "inputs": [
        {
          "internalType": "address",
          "name": "_userToRemove",
          "type": "address"
        }
      ],
      "name": "removeFromWhitelist",
      "outputs": [],
      "stateMutability": "nonpayable",
      "type": "function"
    },
    {
      "inputs": [],
      "name": "renounceOwnership",
      "outputs": [],
      "stateMutability": "nonpayable",
      "type": "function"
    },
    {
      "inputs": [],
      "name": "rinkebyUSDCAddress",
      "outputs": [
        {
          "internalType": "address",
          "name": "",
          "type": "address"
        }
      ],
      "stateMutability": "view",
      "type": "function"
    },
    {
      "inputs": [],
      "name": "setLeagueEntryIsClosed",
      "outputs": [],
      "stateMutability": "nonpayable",
      "type": "function"
    },
    {
      "inputs": [],
      "name": "setLeagueSchedule",
      "outputs": [],
      "stateMutability": "nonpayable",
      "type": "function"
    },
    {
      "inputs": [
        {
          "internalType": "uint256[]",
          "name": "athleteIds",
          "type": "uint256[]"
        }
      ],
      "name": "setLineup",
      "outputs": [],
      "stateMutability": "nonpayable",
      "type": "function"
    },
    {
      "inputs": [],
      "name": "stakeAmount",
      "outputs": [
        {
          "internalType": "uint256",
          "name": "",
          "type": "uint256"
        }
      ],
      "stateMutability": "view",
      "type": "function"
    },
    {
      "inputs": [],
      "name": "teamDiffAddress",
      "outputs": [
        {
          "internalType": "address",
          "name": "",
          "type": "address"
        }
      ],
      "stateMutability": "view",
      "type": "function"
    },
    {
      "inputs": [],
      "name": "testUSDC",
      "outputs": [
        {
          "internalType": "contract IERC20",
          "name": "",
          "type": "address"
        }
      ],
      "stateMutability": "view",
      "type": "function"
    },
    {
      "inputs": [
        {
          "internalType": "address",
          "name": "newOwner",
          "type": "address"
        }
      ],
      "name": "transferOwnership",
      "outputs": [],
      "stateMutability": "nonpayable",
      "type": "function"
    },
    {
      "inputs": [],
      "name": "unlockLineup",
      "outputs": [],
      "stateMutability": "nonpayable",
      "type": "function"
    },
    {
      "inputs": [
        {
          "internalType": "address",
          "name": "",
          "type": "address"
        },
        {
          "internalType": "uint256",
          "name": "",
          "type": "uint256"
        }
      ],
      "name": "userToLineup",
      "outputs": [
        {
          "internalType": "uint256",
          "name": "",
          "type": "uint256"
        }
      ],
      "stateMutability": "view",
      "type": "function"
    },
    {
      "inputs": [
        {
          "internalType": "address",
          "name": "",
          "type": "address"
        },
        {
          "internalType": "uint256",
          "name": "",
          "type": "uint256"
        }
      ],
      "name": "userToRecord",
      "outputs": [
        {
          "internalType": "uint256",
          "name": "",
          "type": "uint256"
        }
      ],
      "stateMutability": "view",
      "type": "function"
    },
    {
      "inputs": [
        {
          "internalType": "address",
          "name": "",
          "type": "address"
        }
      ],
      "name": "userToTotalWins",
      "outputs": [
        {
          "internalType": "uint256",
          "name": "",
          "type": "uint256"
        }
      ],
      "stateMutability": "view",
      "type": "function"
    },
    {
      "inputs": [
        {
          "internalType": "address",
          "name": "",
          "type": "address"
        }
      ],
      "name": "whitelist",
      "outputs": [
        {
          "internalType": "bool",
          "name": "",
          "type": "bool"
        }
      ],
      "stateMutability": "view",
      "type": "function"
    }
  ],
  "bytecode": "0x60806040523480156200001157600080fd5b5062000032620000266200004060201b60201c565b6200004860201b60201c565b60016004819055506200010d565b600033905090565b60008060029054906101000a900473ffffffffffffffffffffffffffffffffffffffff16905081600060026101000a81548173ffffffffffffffffffffffffffffffffffffffff021916908373ffffffffffffffffffffffffffffffffffffffff1602179055508173ffffffffffffffffffffffffffffffffffffffff168173ffffffffffffffffffffffffffffffffffffffff167f8be0079c531659141344cd1fd0a4f28419497f9722a3daafe3b4186f6b6457e060405160405180910390a35050565b615afc806200011d6000396000f3fe60806040523480156200001157600080fd5b5060043610620002c75760003560e01c8063715018a6116200017d578063c99fea9411620000e1578063e5f7322f1162000093578063e5f7322f1462000842578063edcbe96c1462000878578063f2fde38b14620008ae578063f612121a14620008ce578063f851a44014620008ee578063f8816045146200091057620002c7565b8063c99fea941462000766578063cff560031462000772578063dc9a153514620007a8578063e2ec6ec314620007ca578063e35a89991462000800578063e4c9066b146200083657620002c7565b80638ab1d681116200013b5780638ab1d68114620006a05780638da5cb5b14620006c05780639122ce6d14620006e25780639b19251a1462000718578063a2bc091a146200074e578063c8be3b5b146200075a57620002c7565b8063715018a614620005fa578063747b805014620006065780637b9417c814620006265780637eed33f1146200065c578063841abf6e146200067e57620002c7565b80632d382ee01162000231578063595b1a3e11620001e3578063595b1a3e146200052e5780635fcc6987146200055057806360c7dc4714620005725780636bdc44df14620005945780636cc15ad514620005b65780636e9960c314620005d857620002c7565b80632d382ee01462000466578063305a5782146200049c5780633c3ae13f14620004a85780633cfd1ccc14620004c857806344eaa84e14620004ea57806352e6e5f3146200050c57620002c7565b80631d803e00116200028b5780631d803e0014620003745780631dd7f8ca146200038057806324953eaa14620003a2578063267175db14620003d857806327311b32146200040e578063286dd3f5146200043057620002c7565b8062b2476f14620002cc578063022e35e614620002ee5780630635dbcb14620003105780630655465a14620003325780630c6f7959146200033e575b600080fd5b620002d662000932565b604051620002e5919062003da5565b60405180910390f35b620002f862000958565b60405162000307919062003e91565b60405180910390f35b6200031a6200097e565b60405162000329919062003e74565b60405180910390f35b6200033c62000991565b005b6200035c6004803603810190620003569190620035af565b62000a9c565b6040516200036b919062004124565b60405180910390f35b6200037e62000ace565b005b6200038a62000db6565b60405162000399919062003da5565b60405180910390f35b620003c06004803603810190620003ba9190620035f6565b62000ddc565b604051620003cf919062003e74565b60405180910390f35b620003f66004803603810190620003f09190620037e4565b62000ebd565b60405162000405919062003da5565b60405180910390f35b6200041862000efd565b60405162000427919062003e74565b60405180910390f35b6200044e60048036038101906200044891906200357d565b62000f14565b6040516200045d919062003e74565b60405180910390f35b6200048460048036038101906200047e9190620037e4565b620010a3565b60405162000493919062003e2c565b60405180910390f35b620004a662001194565b005b620004c66004803603810190620004c09190620036ca565b620012f7565b005b620004d262001790565b604051620004e1919062004124565b60405180910390f35b620004f46200189f565b60405162000503919062004124565b60405180910390f35b62000516620018a9565b60405162000525919062004124565b60405180910390f35b62000538620018af565b60405162000547919062004124565b60405180910390f35b6200055a620018bc565b60405162000569919062004124565b60405180910390f35b6200057c620019cb565b6040516200058b919062004124565b60405180910390f35b6200059e620019d1565b604051620005ad919062004124565b60405180910390f35b620005c062001a18565b604051620005cf919062003e74565b60405180910390f35b620005e262001a2b565b604051620005f1919062003da5565b60405180910390f35b6200060462001a55565b005b6200062460048036038101906200061e91906200357d565b62001ae6565b005b6200064460048036038101906200063e91906200357d565b62001c30565b60405162000653919062003e74565b60405180910390f35b6200066662001dbd565b60405162000675919062004124565b60405180910390f35b6200068862001dc3565b60405162000697919062003f02565b60405180910390f35b620006be6004803603810190620006b891906200357d565b62001e59565b005b620006ca62001ff6565b604051620006d9919062003da5565b60405180910390f35b620007006004803603810190620006fa91906200357d565b6200201f565b6040516200070f919062003e74565b60405180910390f35b6200073660048036038101906200073091906200357d565b6200203f565b60405162000745919062003e74565b60405180910390f35b620007586200205f565b005b620007646200210f565b005b62000770620021bf565b005b6200079060048036038101906200078a9190620035af565b6200264d565b6040516200079f919062004124565b60405180910390f35b620007b26200267f565b604051620007c1919062003e74565b60405180910390f35b620007e86004803603810190620007e29190620035f6565b62002692565b604051620007f7919062003e74565b60405180910390f35b6200081e60048036038101906200081891906200357d565b62002773565b6040516200082d919062003e74565b60405180910390f35b62000840620027c9565b005b6200086060048036038101906200085a91906200357d565b62002879565b6040516200086f919062003e50565b60405180910390f35b6200089660048036038101906200089091906200357d565b62002912565b604051620008a5919062004124565b60405180910390f35b620008cc6004803603810190620008c691906200357d565b6200292a565b005b620008ec6004803603810190620008e6919062003647565b62002a2e565b005b620008f862002fb9565b60405162000907919062003da5565b60405180910390f35b6200091a62002fdf565b60405162000929919062003e50565b60405180910390f35b601260009054906101000a900473ffffffffffffffffffffffffffffffffffffffff1681565b601660009054906101000a900473ffffffffffffffffffffffffffffffffffffffff1681565b600a60159054906101000a900460ff1681565b600a60009054906101000a900473ffffffffffffffffffffffffffffffffffffffff1673ffffffffffffffffffffffffffffffffffffffff163373ffffffffffffffffffffffffffffffffffffffff161462000a24576040517f08c379a000000000000000000000000000000000000000000000000000000000815260040162000a1b9062004058565b60405180910390fd5b73__$36fdb4e0c2cb91f3ceca5ea81b025328f3$__63d2c232b56011601060065460056040518563ffffffff1660e01b815260040162000a68949392919062003eae565b60006040518083038186803b15801562000a8157600080fd5b505af415801562000a96573d6000803e3d6000fd5b50505050565b600d602052816000526040600020818154811062000ab957600080fd5b90600052602060002001600091509150505481565b600a60009054906101000a900473ffffffffffffffffffffffffffffffffffffffff1673ffffffffffffffffffffffffffffffffffffffff163373ffffffffffffffffffffffffffffffffffffffff161462000b61576040517f08c379a000000000000000000000000000000000000000000000000000000000815260040162000b589062004058565b60405180910390fd5b600060108054905060075462000b78919062004373565b90506000601060008154811062000b945762000b9362004626565b5b9060005260206000200160009054906101000a900473ffffffffffffffffffffffffffffffffffffffff1690506000600190505b60108054905081101562000cf957600c60008373ffffffffffffffffffffffffffffffffffffffff1673ffffffffffffffffffffffffffffffffffffffff16815260200190815260200160002054600c60006010848154811062000c315762000c3062004626565b5b9060005260206000200160009054906101000a900473ffffffffffffffffffffffffffffffffffffffff1673ffffffffffffffffffffffffffffffffffffffff1673ffffffffffffffffffffffffffffffffffffffff16815260200190815260200160002054111562000ce3576010818154811062000cb55762000cb462004626565b5b9060005260206000200160009054906101000a900473ffffffffffffffffffffffffffffffffffffffff1691505b808062000cf0906200457a565b91505062000bc8565b50601660009054906101000a900473ffffffffffffffffffffffffffffffffffffffff1673ffffffffffffffffffffffffffffffffffffffff166323b872dd3083856040518463ffffffff1660e01b815260040162000d5b9392919062003dc2565b602060405180830381600087803b15801562000d7657600080fd5b505af115801562000d8b573d6000803e3d6000fd5b505050506040513d601f19601f8201168201806040525081019062000db1919062003698565b505050565b600a60009054906101000a900473ffffffffffffffffffffffffffffffffffffffff1681565b600062000de862003076565b73ffffffffffffffffffffffffffffffffffffffff1662000e0862001ff6565b73ffffffffffffffffffffffffffffffffffffffff161462000e61576040517f08c379a000000000000000000000000000000000000000000000000000000000815260040162000e589062004014565b60405180910390fd5b60005b825181101562000eb75762000e9683828151811062000e885762000e8762004626565b5b602002602001015162000f14565b1562000ea157600191505b808062000eae906200457a565b91505062000e64565b50919050565b6010818154811062000ece57600080fd5b906000526020600020016000915054906101000a900473ffffffffffffffffffffffffffffffffffffffff1681565b6000600a60159054906101000a900460ff16905090565b600062000f2062003076565b73ffffffffffffffffffffffffffffffffffffffff1662000f4062001ff6565b73ffffffffffffffffffffffffffffffffffffffff161462000f99576040517f08c379a000000000000000000000000000000000000000000000000000000000815260040162000f909062004014565b60405180910390fd5b600160008373ffffffffffffffffffffffffffffffffffffffff1673ffffffffffffffffffffffffffffffffffffffff16815260200190815260200160002060009054906101000a900460ff16156200109e576000600160008473ffffffffffffffffffffffffffffffffffffffff1673ffffffffffffffffffffffffffffffffffffffff16815260200190815260200160002060006101000a81548160ff0219169083151502179055507ff1abf01a1043b7c244d128e8595cf0c1d10743b022b03a02dffd8ca3bf729f5a8260405162001075919062003da5565b60405180910390a1600160026000828254620010929190620043d4565b92505081905550600190505b919050565b606060116000838152602001908152602001600020805480602002602001604051908101604052809291908181526020016000905b828210156200118957838290600052602060002090600202016040518060200160405290816000820160028060200260405190810160405280929190826002801562001170576020028201915b8160009054906101000a900473ffffffffffffffffffffffffffffffffffffffff1673ffffffffffffffffffffffffffffffffffffffff168152602001906001019080831162001125575b50505050508152505081526020019060010190620010d8565b505050509050919050565b600a60009054906101000a900473ffffffffffffffffffffffffffffffffffffffff1673ffffffffffffffffffffffffffffffffffffffff163373ffffffffffffffffffffffffffffffffffffffff161462001227576040517f08c379a00000000000000000000000000000000000000000000000000000000081526004016200121e9062004058565b60405180910390fd5b73__$36fdb4e0c2cb91f3ceca5ea81b025328f3$__63e544ebf5600854601360009054906101000a900473ffffffffffffffffffffffffffffffffffffffff16600d600c600e60116040518763ffffffff1660e01b8152600401620012929695949392919062004141565b60006040518083038186803b158015620012ab57600080fd5b505af4158015620012c0573d6000803e3d6000fd5b5050505060076008541415620012db57620012da62000ace565b5b60086000815480929190620012f0906200457a565b9190505550565b600060019054906101000a900460ff16620013215760008054906101000a900460ff16156200132c565b6200132b6200307e565b5b6200136e576040517f08c379a0000000000000000000000000000000000000000000000000000000008152600401620013659062003ff2565b60405180910390fd5b60008060019054906101000a900460ff161590508015620013bf576001600060016101000a81548160ff02191690831515021790555060016000806101000a81548160ff0219169083151502179055505b8b8b60059190620013d29291906200323f565b5060086006819055506001600f60008973ffffffffffffffffffffffffffffffffffffffff1673ffffffffffffffffffffffffffffffffffffffff16815260200190815260200160002060006101000a81548160ff0219169083151502179055506010879080600181540180825580915050600190039060005260206000200160009091909190916101000a81548173ffffffffffffffffffffffffffffffffffffffff021916908373ffffffffffffffffffffffffffffffffffffffff16021790555086600960006101000a81548173ffffffffffffffffffffffffffffffffffffffff021916908373ffffffffffffffffffffffffffffffffffffffff1602179055508960078190555088600360006101000a81548160ff0219169083151502179055506000600a60146101000a81548160ff0219169083151502179055506000600a60156101000a81548160ff02191690831515021790555087601360006101000a81548173ffffffffffffffffffffffffffffffffffffffff021916908373ffffffffffffffffffffffffffffffffffffffff16021790555081601560006101000a81548173ffffffffffffffffffffffffffffffffffffffff021916908373ffffffffffffffffffffffffffffffffffffffff160217905550604051620015be90620032d0565b604051809103906000f080158015620015db573d6000803e3d6000fd5b50601460006101000a81548173ffffffffffffffffffffffffffffffffffffffff021916908373ffffffffffffffffffffffffffffffffffffffff16021790555085601260006101000a81548173ffffffffffffffffffffffffffffffffffffffff021916908373ffffffffffffffffffffffffffffffffffffffff16021790555084601660006101000a81548173ffffffffffffffffffffffffffffffffffffffff021916908373ffffffffffffffffffffffffffffffffffffffff16021790555082600a60006101000a81548173ffffffffffffffffffffffffffffffffffffffff021916908373ffffffffffffffffffffffffffffffffffffffff16021790555083601760006101000a81548173ffffffffffffffffffffffffffffffffffffffff021916908373ffffffffffffffffffffffffffffffffffffffff160217905550620017606040518060400160405280601281526020017f50726f787920696e697469616c697a656421000000000000000000000000000081525062003091565b8015620017825760008060016101000a81548160ff0219169083151502179055505b505050505050505050505050565b6000600f60003373ffffffffffffffffffffffffffffffffffffffff1673ffffffffffffffffffffffffffffffffffffffff16815260200190815260200160002060009054906101000a900460ff16620017e957600080fd5b601660009054906101000a900473ffffffffffffffffffffffffffffffffffffffff1673ffffffffffffffffffffffffffffffffffffffff166370a08231306040518263ffffffff1660e01b815260040162001846919062003da5565b60206040518083038186803b1580156200185f57600080fd5b505afa15801562001874573d6000803e3d6000fd5b505050506040513d601f19601f820116820180604052508101906200189a919062003816565b905090565b6000600254905090565b60085481565b6000601080549050905090565b6000600f60003373ffffffffffffffffffffffffffffffffffffffff1673ffffffffffffffffffffffffffffffffffffffff16815260200190815260200160002060009054906101000a900460ff166200191557600080fd5b601660009054906101000a900473ffffffffffffffffffffffffffffffffffffffff1673ffffffffffffffffffffffffffffffffffffffff166370a08231336040518263ffffffff1660e01b815260040162001972919062003da5565b60206040518083038186803b1580156200198b57600080fd5b505afa158015620019a0573d6000803e3d6000fd5b505050506040513d601f19601f82011682018060405250810190620019c6919062003816565b905090565b60075481565b6000600c60003373ffffffffffffffffffffffffffffffffffffffff1673ffffffffffffffffffffffffffffffffffffffff16815260200190815260200160002054905090565b600a60149054906101000a900460ff1681565b6000600960009054906101000a900473ffffffffffffffffffffffffffffffffffffffff16905090565b62001a5f62003076565b73ffffffffffffffffffffffffffffffffffffffff1662001a7f62001ff6565b73ffffffffffffffffffffffffffffffffffffffff161462001ad8576040517f08c379a000000000000000000000000000000000000000000000000000000000815260040162001acf9062004014565b60405180910390fd5b62001ae460006200312e565b565b600960009054906101000a900473ffffffffffffffffffffffffffffffffffffffff1673ffffffffffffffffffffffffffffffffffffffff163373ffffffffffffffffffffffffffffffffffffffff161462001b79576040517f08c379a000000000000000000000000000000000000000000000000000000000815260040162001b709062004036565b60405180910390fd5b601460009054906101000a900473ffffffffffffffffffffffffffffffffffffffff1673ffffffffffffffffffffffffffffffffffffffff16637b9417c8826040518263ffffffff1660e01b815260040162001bd6919062003da5565b602060405180830381600087803b15801562001bf157600080fd5b505af115801562001c06573d6000803e3d6000fd5b505050506040513d601f19601f8201168201806040525081019062001c2c919062003698565b5050565b600062001c3c62003076565b73ffffffffffffffffffffffffffffffffffffffff1662001c5c62001ff6565b73ffffffffffffffffffffffffffffffffffffffff161462001cb5576040517f08c379a000000000000000000000000000000000000000000000000000000000815260040162001cac9062004014565b60405180910390fd5b600160008373ffffffffffffffffffffffffffffffffffffffff1673ffffffffffffffffffffffffffffffffffffffff16815260200190815260200160002060009054906101000a900460ff1662001db85760018060008473ffffffffffffffffffffffffffffffffffffffff1673ffffffffffffffffffffffffffffffffffffffff16815260200190815260200160002060006101000a81548160ff0219169083151502179055507fd1bba68c128cc3f427e5831b3c6f99f480b6efa6b9e80c757768f6124158cc3f8260405162001d8f919062003da5565b60405180910390a160016002600082825462001dac919062004316565b92505081905550600190505b919050565b60065481565b6005805462001dd2906200450e565b80601f016020809104026020016040519081016040528092919081815260200182805462001e00906200450e565b801562001e515780601f1062001e255761010080835404028352916020019162001e51565b820191906000526020600020905b81548152906001019060200180831162001e3357829003601f168201915b505050505081565b600960009054906101000a900473ffffffffffffffffffffffffffffffffffffffff1673ffffffffffffffffffffffffffffffffffffffff163373ffffffffffffffffffffffffffffffffffffffff161462001eec576040517f08c379a000000000000000000000000000000000000000000000000000000000815260040162001ee39062004036565b60405180910390fd5b600a60149054906101000a900460ff161562001f3f576040517f08c379a000000000000000000000000000000000000000000000000000000000815260040162001f36906200409c565b60405180910390fd5b601460009054906101000a900473ffffffffffffffffffffffffffffffffffffffff1673ffffffffffffffffffffffffffffffffffffffff1663286dd3f5826040518263ffffffff1660e01b815260040162001f9c919062003da5565b602060405180830381600087803b15801562001fb757600080fd5b505af115801562001fcc573d6000803e3d6000fd5b505050506040513d601f19601f8201168201806040525081019062001ff2919062003698565b5050565b60008060029054906101000a900473ffffffffffffffffffffffffffffffffffffffff16905090565b600f6020528060005260406000206000915054906101000a900460ff1681565b60016020528060005260406000206000915054906101000a900460ff1681565b600a60009054906101000a900473ffffffffffffffffffffffffffffffffffffffff1673ffffffffffffffffffffffffffffffffffffffff163373ffffffffffffffffffffffffffffffffffffffff1614620020f2576040517f08c379a0000000000000000000000000000000000000000000000000000000008152600401620020e99062004058565b60405180910390fd5b6000600a60156101000a81548160ff021916908315150217905550565b600a60009054906101000a900473ffffffffffffffffffffffffffffffffffffffff1673ffffffffffffffffffffffffffffffffffffffff163373ffffffffffffffffffffffffffffffffffffffff1614620021a2576040517f08c379a0000000000000000000000000000000000000000000000000000000008152600401620021999062004058565b60405180910390fd5b6001600a60156101000a81548160ff021916908315150217905550565b600160003373ffffffffffffffffffffffffffffffffffffffff1673ffffffffffffffffffffffffffffffffffffffff16815260200190815260200160002060009054906101000a900460ff1680620022245750600360009054906101000a900460ff165b62002266576040517f08c379a00000000000000000000000000000000000000000000000000000000081526004016200225d9062003f8c565b60405180910390fd5b60026004541415620022af576040517f08c379a0000000000000000000000000000000000000000000000000000000008152600401620022a690620040e0565b60405180910390fd5b6002600481905550600a60149054906101000a900460ff16156200230a576040517f08c379a0000000000000000000000000000000000000000000000000000000008152600401620023019062004102565b60405180910390fd5b600f60003373ffffffffffffffffffffffffffffffffffffffff1673ffffffffffffffffffffffffffffffffffffffff16815260200190815260200160002060009054906101000a900460ff16156200239a576040517f08c379a0000000000000000000000000000000000000000000000000000000008152600401620023919062003f6a565b60405180910390fd5b600754601660009054906101000a900473ffffffffffffffffffffffffffffffffffffffff1673ffffffffffffffffffffffffffffffffffffffff166370a08231336040518263ffffffff1660e01b8152600401620023fa919062003da5565b60206040518083038186803b1580156200241357600080fd5b505afa15801562002428573d6000803e3d6000fd5b505050506040513d601f19601f820116820180604052508101906200244e919062003816565b1162002491576040517f08c379a0000000000000000000000000000000000000000000000000000000008152600401620024889062003f48565b60405180910390fd5b6001600f60003373ffffffffffffffffffffffffffffffffffffffff1673ffffffffffffffffffffffffffffffffffffffff16815260200190815260200160002060006101000a81548160ff0219169083151502179055506010339080600181540180825580915050600190039060005260206000200160009091909190916101000a81548173ffffffffffffffffffffffffffffffffffffffff021916908373ffffffffffffffffffffffffffffffffffffffff160217905550601660009054906101000a900473ffffffffffffffffffffffffffffffffffffffff1673ffffffffffffffffffffffffffffffffffffffff166323b872dd33306007546040518463ffffffff1660e01b8152600401620025af9392919062003dc2565b602060405180830381600087803b158015620025ca57600080fd5b505af1158015620025df573d6000803e3d6000fd5b505050506040513d601f19601f8201168201806040525081019062002605919062003698565b507f9e71bc8eea02a63969f509818f2dafb9254532904319f9dbda79b67bd34a5f3d336007546040516200263b92919062003dff565b60405180910390a16001600481905550565b600e60205281600052604060002081815481106200266a57600080fd5b90600052602060002001600091509150505481565b600360009054906101000a900460ff1681565b60006200269e62003076565b73ffffffffffffffffffffffffffffffffffffffff16620026be62001ff6565b73ffffffffffffffffffffffffffffffffffffffff161462002717576040517f08c379a00000000000000000000000000000000000000000000000000000000081526004016200270e9062004014565b60405180910390fd5b60005b82518110156200276d576200274c8382815181106200273e576200273d62004626565b5b602002602001015162001c30565b156200275757600191505b808062002764906200457a565b9150506200271a565b50919050565b6000600160008373ffffffffffffffffffffffffffffffffffffffff1673ffffffffffffffffffffffffffffffffffffffff16815260200190815260200160002060009054906101000a900460ff169050919050565b600a60009054906101000a900473ffffffffffffffffffffffffffffffffffffffff1673ffffffffffffffffffffffffffffffffffffffff163373ffffffffffffffffffffffffffffffffffffffff16146200285c576040517f08c379a0000000000000000000000000000000000000000000000000000000008152600401620028539062004058565b60405180910390fd5b6001600a60146101000a81548160ff021916908315150217905550565b6060600e60008373ffffffffffffffffffffffffffffffffffffffff1673ffffffffffffffffffffffffffffffffffffffff1681526020019081526020016000208054806020026020016040519081016040528092919081815260200182805480156200290657602002820191906000526020600020905b815481526020019060010190808311620028f1575b50505050509050919050565b600c6020528060005260406000206000915090505481565b6200293462003076565b73ffffffffffffffffffffffffffffffffffffffff166200295462001ff6565b73ffffffffffffffffffffffffffffffffffffffff1614620029ad576040517f08c379a0000000000000000000000000000000000000000000000000000000008152600401620029a49062004014565b60405180910390fd5b600073ffffffffffffffffffffffffffffffffffffffff168173ffffffffffffffffffffffffffffffffffffffff16141562002a20576040517f08c379a000000000000000000000000000000000000000000000000000000000815260040162002a179062003f26565b60405180910390fd5b62002a2b816200312e565b50565b600a60159054906101000a900460ff161562002a81576040517f08c379a000000000000000000000000000000000000000000000000000000000815260040162002a789062003fd0565b60405180910390fd5b600f60003373ffffffffffffffffffffffffffffffffffffffff1673ffffffffffffffffffffffffffffffffffffffff16815260200190815260200160002060009054906101000a900460ff1662002b10576040517f08c379a000000000000000000000000000000000000000000000000000000000815260040162002b07906200407a565b60405180910390fd5b6000601560009054906101000a900473ffffffffffffffffffffffffffffffffffffffff1673ffffffffffffffffffffffffffffffffffffffff166306575c896040518163ffffffff1660e01b815260040160206040518083038186803b15801562002b7b57600080fd5b505afa15801562002b90573d6000803e3d6000fd5b505050506040513d601f19601f8201168201806040525081019062002bb6919062003816565b905060005b600e60003373ffffffffffffffffffffffffffffffffffffffff1673ffffffffffffffffffffffffffffffffffffffff1681526020019081526020016000208054905081101562002cbb57600b6000600e60003373ffffffffffffffffffffffffffffffffffffffff1673ffffffffffffffffffffffffffffffffffffffff168152602001908152602001600020838154811062002c5e5762002c5d62004626565b5b90600052602060002001548152602001908152602001600020826008811062002c8c5762002c8b62004626565b5b01600081548092919062002ca090620044df565b9190505550808062002cb2906200457a565b91505062002bbb565b5060005b825181101562002d3d57600b600084838151811062002ce35762002ce262004626565b5b60200260200101518152602001908152602001600020826008811062002d0e5762002d0d62004626565b5b01600081548092919062002d22906200457a565b9190505550808062002d34906200457a565b91505062002cbf565b5060005b825181101562002e75576000601760009054906101000a900473ffffffffffffffffffffffffffffffffffffffff1673ffffffffffffffffffffffffffffffffffffffff1662fdd58e3386858151811062002da15762002da062004626565b5b60200260200101516040518363ffffffff1660e01b815260040162002dc892919062003dff565b60206040518083038186803b15801562002de157600080fd5b505afa15801562002df6573d6000803e3d6000fd5b505050506040513d601f19601f8201168201806040525081019062002e1c919062003816565b1162002e5f576040517f08c379a000000000000000000000000000000000000000000000000000000000815260040162002e5690620040be565b60405180910390fd5b808062002e6c906200457a565b91505062002d41565b5060005b825181101562002f5e57600a8162002e92919062004373565b83828151811062002ea85762002ea762004626565b5b60200260200101511015801562002f0657506001600a60018362002ecd919062004316565b62002ed9919062004373565b62002ee59190620043d4565b83828151811062002efb5762002efa62004626565b5b602002602001015111155b62002f48576040517f08c379a000000000000000000000000000000000000000000000000000000000815260040162002f3f9062003fae565b60405180910390fd5b808062002f55906200457a565b91505062002e79565b5081600e60003373ffffffffffffffffffffffffffffffffffffffff1673ffffffffffffffffffffffffffffffffffffffff168152602001908152602001600020908051906020019062002fb4929190620032de565b505050565b600960009054906101000a900473ffffffffffffffffffffffffffffffffffffffff1681565b6060600d60003373ffffffffffffffffffffffffffffffffffffffff1673ffffffffffffffffffffffffffffffffffffffff1681526020019081526020016000208054806020026020016040519081016040528092919081815260200182805480156200306c57602002820191906000526020600020905b81548152602001906001019080831162003057575b5050505050905090565b600033905090565b60006200308b30620031f3565b15905090565b6200312b81604051602401620030a8919062003f02565b6040516020818303038152906040527f41304fac000000000000000000000000000000000000000000000000000000007bffffffffffffffffffffffffffffffffffffffffffffffffffffffff19166020820180517bffffffffffffffffffffffffffffffffffffffffffffffffffffffff838183161783525050505062003216565b50565b60008060029054906101000a900473ffffffffffffffffffffffffffffffffffffffff16905081600060026101000a81548173ffffffffffffffffffffffffffffffffffffffff021916908373ffffffffffffffffffffffffffffffffffffffff1602179055508173ffffffffffffffffffffffffffffffffffffffff168173ffffffffffffffffffffffffffffffffffffffff167f8be0079c531659141344cd1fd0a4f28419497f9722a3daafe3b4186f6b6457e060405160405180910390a35050565b6000808273ffffffffffffffffffffffffffffffffffffffff163b119050919050565b60008151905060006a636f6e736f6c652e6c6f679050602083016000808483855afa5050505050565b8280546200324d906200450e565b90600052602060002090601f016020900481019282620032715760008555620032bd565b82601f106200328c57803560ff1916838001178555620032bd565b82800160010185558215620032bd579182015b82811115620032bc5782358255916020019190600101906200329f565b5b509050620032cc919062003330565b5090565b6110598062004a6e83390190565b8280548282559060005260206000209081019282156200331d579160200282015b828111156200331c578251825591602001919060010190620032ff565b5b5090506200332c919062003330565b5090565b5b808211156200334b57600081600090555060010162003331565b5090565b6000620033666200336084620041d7565b620041ae565b905080838252602082019050828560208602820111156200338c576200338b6200468e565b5b60005b85811015620033c05781620033a5888262003445565b8452602084019350602083019250506001810190506200338f565b5050509392505050565b6000620033e1620033db8462004206565b620041ae565b905080838252602082019050828560208602820111156200340757620034066200468e565b5b60005b858110156200343b57816200342088826200354f565b8452602084019350602083019250506001810190506200340a565b5050509392505050565b600081359050620034568162004a1f565b92915050565b600082601f83011262003474576200347362004689565b5b8135620034868482602086016200334f565b91505092915050565b600082601f830112620034a757620034a662004689565b5b8135620034b9848260208601620033ca565b91505092915050565b600081359050620034d38162004a39565b92915050565b600081519050620034ea8162004a39565b92915050565b60008083601f84011262003509576200350862004689565b5b8235905067ffffffffffffffff81111562003529576200352862004684565b5b6020830191508360018202830111156200354857620035476200468e565b5b9250929050565b600081359050620035608162004a53565b92915050565b600081519050620035778162004a53565b92915050565b60006020828403121562003596576200359562004698565b5b6000620035a68482850162003445565b91505092915050565b60008060408385031215620035c957620035c862004698565b5b6000620035d98582860162003445565b9250506020620035ec858286016200354f565b9150509250929050565b6000602082840312156200360f576200360e62004698565b5b600082013567ffffffffffffffff81111562003630576200362f62004693565b5b6200363e848285016200345c565b91505092915050565b60006020828403121562003660576200365f62004698565b5b600082013567ffffffffffffffff81111562003681576200368062004693565b5b6200368f848285016200348f565b91505092915050565b600060208284031215620036b157620036b062004698565b5b6000620036c184828501620034d9565b91505092915050565b60008060008060008060008060008060006101408c8e031215620036f357620036f262004698565b5b60008c013567ffffffffffffffff81111562003714576200371362004693565b5b620037228e828f01620034f0565b9b509b50506020620037378e828f016200354f565b99505060406200374a8e828f01620034c2565b98505060606200375d8e828f0162003445565b9750506080620037708e828f0162003445565b96505060a0620037838e828f0162003445565b95505060c0620037968e828f0162003445565b94505060e0620037a98e828f0162003445565b935050610100620037bd8e828f0162003445565b925050610120620037d18e828f0162003445565b9150509295989b509295989b9093969950565b600060208284031215620037fd57620037fc62004698565b5b60006200380d848285016200354f565b91505092915050565b6000602082840312156200382f576200382e62004698565b5b60006200383f8482850162003566565b91505092915050565b600062003856838362003896565b60208301905092915050565b600062003870838362003d54565b60408301905092915050565b60006200388a838362003d72565b60208301905092915050565b620038a1816200440f565b82525050565b620038b2816200440f565b82525050565b620038c38162004274565b620038cf8184620042c7565b9250620038dc8262004235565b8060005b8381101562003913578151620038f7878262003848565b96506200390483620042a0565b925050600181019050620038e0565b505050505050565b8082525050565b60006200392f826200427f565b6200393b8185620042d2565b935062003948836200423f565b8060005b838110156200397f57815162003963888262003862565b97506200397083620042ad565b9250506001810190506200394c565b5085935050505092915050565b600062003999826200428a565b620039a58185620042e3565b9350620039b2836200424f565b8060005b83811015620039e9578151620039cd88826200387c565b9750620039da83620042ba565b925050600181019050620039b6565b5085935050505092915050565b62003a018162004423565b82525050565b62003a128162004459565b82525050565b62003a23816200446d565b82525050565b8082525050565b8082525050565b8082525050565b600062003a4b8262004295565b62003a578185620042f4565b935062003a69818560208601620044a9565b62003a74816200469d565b840191505092915050565b6000815462003a8e816200450e565b62003a9a818662004305565b9450600182166000811462003ab8576001811462003acb5762003b02565b60ff198316865260208601935062003b02565b62003ad6856200425f565b60005b8381101562003afa5781548189015260018201915060208101905062003ad9565b808801955050505b50505092915050565b600062003b1a602683620042f4565b915062003b2782620046ae565b604082019050919050565b600062003b41601d83620042f4565b915062003b4e82620046fd565b602082019050919050565b600062003b68602383620042f4565b915062003b758262004726565b604082019050919050565b600062003b8f601a83620042f4565b915062003b9c8262004775565b602082019050919050565b600062003bb6603183620042f4565b915062003bc3826200479e565b604082019050919050565b600062003bdd601e83620042f4565b915062003bea82620047ed565b602082019050919050565b600062003c04602e83620042f4565b915062003c118262004816565b604082019050919050565b600062003c2b602083620042f4565b915062003c388262004865565b602082019050919050565b600062003c52601783620042f4565b915062003c5f826200488e565b602082019050919050565b600062003c79601683620042f4565b915062003c8682620048b7565b602082019050919050565b600062003ca0601683620042f4565b915062003cad82620048e0565b602082019050919050565b600062003cc7604183620042f4565b915062003cd48262004909565b606082019050919050565b600062003cee602483620042f4565b915062003cfb826200497e565b604082019050919050565b600062003d15601f83620042f4565b915062003d2282620049cd565b602082019050919050565b600062003d3c601783620042f4565b915062003d4982620049f6565b602082019050919050565b60408201600082015162003d6c6000850182620038b8565b50505050565b62003d7d816200444f565b82525050565b62003d8e816200444f565b82525050565b62003d9f816200444f565b82525050565b600060208201905062003dbc6000830184620038a7565b92915050565b600060608201905062003dd96000830186620038a7565b62003de86020830185620038a7565b62003df7604083018462003d83565b949350505050565b600060408201905062003e166000830185620038a7565b62003e25602083018462003d83565b9392505050565b6000602082019050818103600083015262003e48818462003922565b905092915050565b6000602082019050818103600083015262003e6c81846200398c565b905092915050565b600060208201905062003e8b6000830184620039f6565b92915050565b600060208201905062003ea8600083018462003a18565b92915050565b600060808201905062003ec5600083018762003a37565b62003ed460208301866200391b565b62003ee3604083018562003d94565b818103606083015262003ef7818462003a7f565b905095945050505050565b6000602082019050818103600083015262003f1e818462003a3e565b905092915050565b6000602082019050818103600083015262003f418162003b0b565b9050919050565b6000602082019050818103600083015262003f638162003b32565b9050919050565b6000602082019050818103600083015262003f858162003b59565b9050919050565b6000602082019050818103600083015262003fa78162003b80565b9050919050565b6000602082019050818103600083015262003fc98162003ba7565b9050919050565b6000602082019050818103600083015262003feb8162003bce565b9050919050565b600060208201905081810360008301526200400d8162003bf5565b9050919050565b600060208201905081810360008301526200402f8162003c1c565b9050919050565b60006020820190508181036000830152620040518162003c43565b9050919050565b60006020820190508181036000830152620040738162003c6a565b9050919050565b60006020820190508181036000830152620040958162003c91565b9050919050565b60006020820190508181036000830152620040b78162003cb8565b9050919050565b60006020820190508181036000830152620040d98162003cdf565b9050919050565b60006020820190508181036000830152620040fb8162003d06565b9050919050565b600060208201905081810360008301526200411d8162003d2d565b9050919050565b60006020820190506200413b600083018462003d83565b92915050565b600060c08201905062004158600083018962003d94565b62004167602083018862003a07565b62004176604083018762003a29565b62004185606083018662003a30565b62004194608083018562003a29565b620041a360a083018462003a37565b979650505050505050565b6000620041ba620041cd565b9050620041c8828262004544565b919050565b6000604051905090565b600067ffffffffffffffff821115620041f557620041f462004655565b5b602082029050602081019050919050565b600067ffffffffffffffff82111562004224576200422362004655565b5b602082029050602081019050919050565b6000819050919050565b6000819050602082019050919050565b6000819050602082019050919050565b60008190508160005260206000209050919050565b600060029050919050565b600081519050919050565b600081519050919050565b600081519050919050565b6000602082019050919050565b6000602082019050919050565b6000602082019050919050565b600081905092915050565b600082825260208201905092915050565b600082825260208201905092915050565b600082825260208201905092915050565b600082825260208201905092915050565b600062004323826200444f565b915062004330836200444f565b9250827fffffffffffffffffffffffffffffffffffffffffffffffffffffffffffffffff03821115620043685762004367620045c8565b5b828201905092915050565b600062004380826200444f565b91506200438d836200444f565b9250817fffffffffffffffffffffffffffffffffffffffffffffffffffffffffffffffff0483118215151615620043c957620043c8620045c8565b5b828202905092915050565b6000620043e1826200444f565b9150620043ee836200444f565b925082821015620044045762004403620045c8565b5b828203905092915050565b60006200441c826200442f565b9050919050565b60008115159050919050565b600073ffffffffffffffffffffffffffffffffffffffff82169050919050565b6000819050919050565b6000620044668262004481565b9050919050565b60006200447a8262004481565b9050919050565b60006200448e8262004495565b9050919050565b6000620044a2826200442f565b9050919050565b60005b83811015620044c9578082015181840152602081019050620044ac565b83811115620044d9576000848401525b50505050565b6000620044ec826200444f565b91506000821415620045035762004502620045c8565b5b600182039050919050565b600060028204905060018216806200452757607f821691505b602082108114156200453e576200453d620045f7565b5b50919050565b6200454f826200469d565b810181811067ffffffffffffffff8211171562004571576200457062004655565b5b80604052505050565b600062004587826200444f565b91507fffffffffffffffffffffffffffffffffffffffffffffffffffffffffffffffff821415620045bd57620045bc620045c8565b5b600182019050919050565b7f4e487b7100000000000000000000000000000000000000000000000000000000600052601160045260246000fd5b7f4e487b7100000000000000000000000000000000000000000000000000000000600052602260045260246000fd5b7f4e487b7100000000000000000000000000000000000000000000000000000000600052603260045260246000fd5b7f4e487b7100000000000000000000000000000000000000000000000000000000600052604160045260246000fd5b600080fd5b600080fd5b600080fd5b600080fd5b600080fd5b6000601f19601f8301169050919050565b7f4f776e61626c653a206e6577206f776e657220697320746865207a65726f206160008201527f6464726573730000000000000000000000000000000000000000000000000000602082015250565b7f496e737566666963656e742066756e647320666f72207374616b696e67000000600082015250565b7f596f75206861766520616c7265616479206a6f696e65642074686973206c656160008201527f6775650000000000000000000000000000000000000000000000000000000000602082015250565b7f55736572206973206e6f742077686974656c6973746564203a28000000000000600082015250565b7f596f75206172652073657474696e6720616e206174686c65746520696e20746860008201527f652077726f6e6720706f736974696f6e21000000000000000000000000000000602082015250565b7f6c696e657570206973206c6f636b656420666f7220746865207765656b210000600082015250565b7f496e697469616c697a61626c653a20636f6e747261637420697320616c72656160008201527f647920696e697469616c697a6564000000000000000000000000000000000000602082015250565b7f4f776e61626c653a2063616c6c6572206973206e6f7420746865206f776e6572600082015250565b7f43616c6c6572206973206e6f74207468652061646d696e000000000000000000600082015250565b7f43616c6c6572206973206e6f74205465616d4469666600000000000000000000600082015250565b7f55736572206973206e6f7420696e204c65616775652e00000000000000000000600082015250565b7f4e6f626f64792063616e20656e7465722f6578697420746865206c656167756560008201527f20616e796d6f72652e2054686520736561736f6e20686173207374617274656460208201527f2100000000000000000000000000000000000000000000000000000000000000604082015250565b7f43616c6c657220646f6573206e6f74206f776e20676976656e206174686c657460008201527f6549647300000000000000000000000000000000000000000000000000000000602082015250565b7f5265656e7472616e637947756172643a207265656e7472616e742063616c6c00600082015250565b7f4c656167756520456e74727920697320436c6f73656421000000000000000000600082015250565b62004a2a816200440f565b811462004a3657600080fd5b50565b62004a448162004423565b811462004a5057600080fd5b50565b62004a5e816200444f565b811462004a6a57600080fd5b5056fe608060405234801561001057600080fd5b5061002d61002261003260201b60201c565b61003a60201b60201c565b6100fe565b600033905090565b60008060009054906101000a900473ffffffffffffffffffffffffffffffffffffffff169050816000806101000a81548173ffffffffffffffffffffffffffffffffffffffff021916908373ffffffffffffffffffffffffffffffffffffffff1602179055508173ffffffffffffffffffffffffffffffffffffffff168173ffffffffffffffffffffffffffffffffffffffff167f8be0079c531659141344cd1fd0a4f28419497f9722a3daafe3b4186f6b6457e060405160405180910390a35050565b610f4c8061010d6000396000f3fe608060405234801561001057600080fd5b50600436106100a95760003560e01c80638da5cb5b116100715780638da5cb5b146101665780639b19251a14610184578063dc9a1535146101b4578063e2ec6ec3146101d2578063e35a899914610202578063f2fde38b14610232576100a9565b806324953eaa146100ae578063286dd3f5146100de57806344eaa84e1461010e578063715018a61461012c5780637b9417c814610136575b600080fd5b6100c860048036038101906100c39190610ada565b61024e565b6040516100d59190610bb1565b60405180910390f35b6100f860048036038101906100f39190610aad565b61031e565b6040516101059190610bb1565b60405180910390f35b6101166104a1565b6040516101239190610c0c565b60405180910390f35b6101346104ab565b005b610150600480360381019061014b9190610aad565b610533565b60405161015d9190610bb1565b60405180910390f35b61016e6106b4565b60405161017b9190610b96565b60405180910390f35b61019e60048036038101906101999190610aad565b6106dd565b6040516101ab9190610bb1565b60405180910390f35b6101bc6106fd565b6040516101c99190610bb1565b60405180910390f35b6101ec60048036038101906101e79190610ada565b610710565b6040516101f99190610bb1565b60405180910390f35b61021c60048036038101906102179190610aad565b6107e0565b6040516102299190610bb1565b60405180910390f35b61024c60048036038101906102479190610aad565b610836565b005b600061025861092e565b73ffffffffffffffffffffffffffffffffffffffff166102766106b4565b73ffffffffffffffffffffffffffffffffffffffff16146102cc576040517f08c379a00000000000000000000000000000000000000000000000000000000081526004016102c390610bec565b60405180910390fd5b60005b8251811015610318576102fb8382815181106102ee576102ed610e04565b5b602002602001015161031e565b1561030557600191505b808061031090610d8c565b9150506102cf565b50919050565b600061032861092e565b73ffffffffffffffffffffffffffffffffffffffff166103466106b4565b73ffffffffffffffffffffffffffffffffffffffff161461039c576040517f08c379a000000000000000000000000000000000000000000000000000000000815260040161039390610bec565b60405180910390fd5b600160008373ffffffffffffffffffffffffffffffffffffffff1673ffffffffffffffffffffffffffffffffffffffff16815260200190815260200160002060009054906101000a900460ff161561049c576000600160008473ffffffffffffffffffffffffffffffffffffffff1673ffffffffffffffffffffffffffffffffffffffff16815260200190815260200160002060006101000a81548160ff0219169083151502179055507ff1abf01a1043b7c244d128e8595cf0c1d10743b022b03a02dffd8ca3bf729f5a826040516104759190610b96565b60405180910390a16001600260008282546104909190610cdf565b92505081905550600190505b919050565b6000600254905090565b6104b361092e565b73ffffffffffffffffffffffffffffffffffffffff166104d16106b4565b73ffffffffffffffffffffffffffffffffffffffff1614610527576040517f08c379a000000000000000000000000000000000000000000000000000000000815260040161051e90610bec565b60405180910390fd5b6105316000610936565b565b600061053d61092e565b73ffffffffffffffffffffffffffffffffffffffff1661055b6106b4565b73ffffffffffffffffffffffffffffffffffffffff16146105b1576040517f08c379a00000000000000000000000000000000000000000000000000000000081526004016105a890610bec565b60405180910390fd5b600160008373ffffffffffffffffffffffffffffffffffffffff1673ffffffffffffffffffffffffffffffffffffffff16815260200190815260200160002060009054906101000a900460ff166106af5760018060008473ffffffffffffffffffffffffffffffffffffffff1673ffffffffffffffffffffffffffffffffffffffff16815260200190815260200160002060006101000a81548160ff0219169083151502179055507fd1bba68c128cc3f427e5831b3c6f99f480b6efa6b9e80c757768f6124158cc3f826040516106889190610b96565b60405180910390a16001600260008282546106a39190610c89565b92505081905550600190505b919050565b60008060009054906101000a900473ffffffffffffffffffffffffffffffffffffffff16905090565b60016020528060005260406000206000915054906101000a900460ff1681565b600360009054906101000a900460ff1681565b600061071a61092e565b73ffffffffffffffffffffffffffffffffffffffff166107386106b4565b73ffffffffffffffffffffffffffffffffffffffff161461078e576040517f08c379a000000000000000000000000000000000000000000000000000000000815260040161078590610bec565b60405180910390fd5b60005b82518110156107da576107bd8382815181106107b0576107af610e04565b5b6020026020010151610533565b156107c757600191505b80806107d290610d8c565b915050610791565b50919050565b6000600160008373ffffffffffffffffffffffffffffffffffffffff1673ffffffffffffffffffffffffffffffffffffffff16815260200190815260200160002060009054906101000a900460ff169050919050565b61083e61092e565b73ffffffffffffffffffffffffffffffffffffffff1661085c6106b4565b73ffffffffffffffffffffffffffffffffffffffff16146108b2576040517f08c379a00000000000000000000000000000000000000000000000000000000081526004016108a990610bec565b60405180910390fd5b600073ffffffffffffffffffffffffffffffffffffffff168173ffffffffffffffffffffffffffffffffffffffff161415610922576040517f08c379a000000000000000000000000000000000000000000000000000000000815260040161091990610bcc565b60405180910390fd5b61092b81610936565b50565b600033905090565b60008060009054906101000a900473ffffffffffffffffffffffffffffffffffffffff169050816000806101000a81548173ffffffffffffffffffffffffffffffffffffffff021916908373ffffffffffffffffffffffffffffffffffffffff1602179055508173ffffffffffffffffffffffffffffffffffffffff168173ffffffffffffffffffffffffffffffffffffffff167f8be0079c531659141344cd1fd0a4f28419497f9722a3daafe3b4186f6b6457e060405160405180910390a35050565b6000610a0d610a0884610c4c565b610c27565b90508083825260208201905082856020860282011115610a3057610a2f610e67565b5b60005b85811015610a605781610a468882610a6a565b845260208401935060208301925050600181019050610a33565b5050509392505050565b600081359050610a7981610eff565b92915050565b600082601f830112610a9457610a93610e62565b5b8135610aa48482602086016109fa565b91505092915050565b600060208284031215610ac357610ac2610e71565b5b6000610ad184828501610a6a565b91505092915050565b600060208284031215610af057610aef610e71565b5b600082013567ffffffffffffffff811115610b0e57610b0d610e6c565b5b610b1a84828501610a7f565b91505092915050565b610b2c81610d13565b82525050565b610b3b81610d25565b82525050565b6000610b4e602683610c78565b9150610b5982610e87565b604082019050919050565b6000610b71602083610c78565b9150610b7c82610ed6565b602082019050919050565b610b9081610d51565b82525050565b6000602082019050610bab6000830184610b23565b92915050565b6000602082019050610bc66000830184610b32565b92915050565b60006020820190508181036000830152610be581610b41565b9050919050565b60006020820190508181036000830152610c0581610b64565b9050919050565b6000602082019050610c216000830184610b87565b92915050565b6000610c31610c42565b9050610c3d8282610d5b565b919050565b6000604051905090565b600067ffffffffffffffff821115610c6757610c66610e33565b5b602082029050602081019050919050565b600082825260208201905092915050565b6000610c9482610d51565b9150610c9f83610d51565b9250827fffffffffffffffffffffffffffffffffffffffffffffffffffffffffffffffff03821115610cd457610cd3610dd5565b5b828201905092915050565b6000610cea82610d51565b9150610cf583610d51565b925082821015610d0857610d07610dd5565b5b828203905092915050565b6000610d1e82610d31565b9050919050565b60008115159050919050565b600073ffffffffffffffffffffffffffffffffffffffff82169050919050565b6000819050919050565b610d6482610e76565b810181811067ffffffffffffffff82111715610d8357610d82610e33565b5b80604052505050565b6000610d9782610d51565b91507fffffffffffffffffffffffffffffffffffffffffffffffffffffffffffffffff821415610dca57610dc9610dd5565b5b600182019050919050565b7f4e487b7100000000000000000000000000000000000000000000000000000000600052601160045260246000fd5b7f4e487b7100000000000000000000000000000000000000000000000000000000600052603260045260246000fd5b7f4e487b7100000000000000000000000000000000000000000000000000000000600052604160045260246000fd5b600080fd5b600080fd5b600080fd5b600080fd5b6000601f19601f8301169050919050565b7f4f776e61626c653a206e6577206f776e657220697320746865207a65726f206160008201527f6464726573730000000000000000000000000000000000000000000000000000602082015250565b7f4f776e61626c653a2063616c6c6572206973206e6f7420746865206f776e6572600082015250565b610f0881610d13565b8114610f1357600080fd5b5056fea264697066735822122013c44309da17edb16daca538fef0ec10185f0de3a32833486ee12942c2821a9b64736f6c63430008070033a2646970667358221220326d2c68a29a57bda635a3b78727348c682eb7ba6574edd939166e8115c4fc9664736f6c63430008070033",
  "linkReferences": {
    "contracts/MOBALogicLibrary.sol": {
      "MOBALogicLibrary": [
        {
          "length": 20,
          "start": 2883
        },
        {
          "length": 20,
          "start": 4934
        }
      ]
    }
  },
  "deployedLinkReferences": {
    "contracts/MOBALogicLibrary.sol": {
      "MOBALogicLibrary": [
        {
          "length": 20,
          "start": 2598
        },
        {
          "length": 20,
          "start": 4649
        }
      ]
    }
  }
}