{
  "_format": "hh-sol-artifact-1",
  "contractName": "LeagueOfLegendsLogic",
  "sourceName": "contracts/LeagueOfLegendsLogic.sol",
  "abi": [
    {
      "anonymous": false,
      "inputs": [
        {
          "indexed": true,
          "internalType": "address",
          "name": "previousOwner",
          "type": "address"
        },
        {
          "indexed": true,
          "internalType": "address",
          "name": "newOwner",
          "type": "address"
        }
      ],
      "name": "OwnershipTransferred",
      "type": "event"
    },
    {
      "anonymous": false,
      "inputs": [
        {
          "indexed": false,
          "internalType": "address",
          "name": "sender",
          "type": "address"
        },
        {
          "indexed": false,
          "internalType": "uint256",
          "name": "amount",
          "type": "uint256"
        }
      ],
      "name": "Staked",
      "type": "event"
    },
    {
      "anonymous": false,
      "inputs": [
        {
          "indexed": false,
          "internalType": "address",
          "name": "addr",
          "type": "address"
        }
      ],
      "name": "WhitelistedAddressAdded",
      "type": "event"
    },
    {
      "anonymous": false,
      "inputs": [
        {
          "indexed": false,
          "internalType": "address",
          "name": "addr",
          "type": "address"
        }
      ],
      "name": "WhitelistedAddressRemoved",
      "type": "event"
    },
    {
      "anonymous": false,
      "inputs": [
        {
          "indexed": false,
          "internalType": "address",
          "name": "winner",
          "type": "address"
        }
      ],
      "name": "leagueEnded",
      "type": "event"
    },
    {
      "anonymous": false,
      "inputs": [
        {
          "indexed": false,
          "internalType": "address",
          "name": "sender",
          "type": "address"
        },
        {
          "indexed": false,
          "internalType": "address",
          "name": "contractAddress",
          "type": "address"
        }
      ],
      "name": "testUSDCDeployed",
      "type": "event"
    },
    {
      "inputs": [
        {
          "internalType": "address",
          "name": "addr",
          "type": "address"
        }
      ],
      "name": "addAddressToWhitelist",
      "outputs": [
        {
          "internalType": "bool",
          "name": "success",
          "type": "bool"
        }
      ],
      "stateMutability": "nonpayable",
      "type": "function"
    },
    {
      "inputs": [
        {
          "internalType": "address[]",
          "name": "addrs",
          "type": "address[]"
        }
      ],
      "name": "addAddressesToWhitelist",
      "outputs": [
        {
          "internalType": "bool",
          "name": "success",
          "type": "bool"
        }
      ],
      "stateMutability": "nonpayable",
      "type": "function"
    },
    {
      "inputs": [
        {
          "internalType": "address",
          "name": "_userToAdd",
          "type": "address"
        }
      ],
      "name": "addUserToWhitelist",
      "outputs": [],
      "stateMutability": "nonpayable",
      "type": "function"
    },
    {
      "inputs": [],
      "name": "admin",
      "outputs": [
        {
          "internalType": "address",
          "name": "",
          "type": "address"
        }
      ],
      "stateMutability": "view",
      "type": "function"
    },
    {
      "inputs": [],
      "name": "currentWeekNum",
      "outputs": [
        {
          "internalType": "uint256",
          "name": "",
          "type": "uint256"
        }
      ],
      "stateMutability": "view",
      "type": "function"
    },
    {
      "inputs": [],
      "name": "evaluateMatches",
      "outputs": [],
      "stateMutability": "nonpayable",
      "type": "function"
    },
    {
      "inputs": [],
      "name": "getAdmin",
      "outputs": [
        {
          "internalType": "address",
          "name": "",
          "type": "address"
        }
      ],
      "stateMutability": "view",
      "type": "function"
    },
    {
      "inputs": [
        {
          "internalType": "address",
          "name": "_user",
          "type": "address"
        }
      ],
      "name": "getLineup",
      "outputs": [
        {
          "internalType": "uint256[]",
          "name": "",
          "type": "uint256[]"
        }
      ],
      "stateMutability": "view",
      "type": "function"
    },
    {
      "inputs": [],
      "name": "getLineupIsLocked",
      "outputs": [
        {
          "internalType": "bool",
          "name": "",
          "type": "bool"
        }
      ],
      "stateMutability": "view",
      "type": "function"
    },
    {
      "inputs": [],
      "name": "getNumWhitelisted",
      "outputs": [
        {
          "internalType": "uint256",
          "name": "",
          "type": "uint256"
        }
      ],
      "stateMutability": "view",
      "type": "function"
    },
    {
      "inputs": [
        {
          "internalType": "uint256",
          "name": "_week",
          "type": "uint256"
        }
      ],
      "name": "getScheduleForWeek",
      "outputs": [
        {
          "components": [
            {
              "internalType": "address[2]",
              "name": "players",
              "type": "address[2]"
            }
          ],
          "internalType": "struct LeagueOfLegendsLogic.Matchup[]",
          "name": "",
          "type": "tuple[]"
        }
      ],
      "stateMutability": "view",
      "type": "function"
    },
    {
      "inputs": [],
      "name": "getUSDCBalance",
      "outputs": [
        {
          "internalType": "uint256",
          "name": "",
          "type": "uint256"
        }
      ],
      "stateMutability": "view",
      "type": "function"
    },
    {
      "inputs": [
        {
          "internalType": "address",
          "name": "_user",
          "type": "address"
        }
      ],
      "name": "getUserIsWhitelisted",
      "outputs": [
        {
          "internalType": "bool",
          "name": "",
          "type": "bool"
        }
      ],
      "stateMutability": "view",
      "type": "function"
    },
    {
      "inputs": [],
      "name": "getUserRecord",
      "outputs": [
        {
          "internalType": "uint256[]",
          "name": "",
          "type": "uint256[]"
        }
      ],
      "stateMutability": "view",
      "type": "function"
    },
    {
      "inputs": [],
      "name": "getUserUSDCBalance",
      "outputs": [
        {
          "internalType": "uint256",
          "name": "",
          "type": "uint256"
        }
      ],
      "stateMutability": "view",
      "type": "function"
    },
    {
      "inputs": [],
      "name": "getUsersLength",
      "outputs": [
        {
          "internalType": "uint256",
          "name": "",
          "type": "uint256"
        }
      ],
      "stateMutability": "view",
      "type": "function"
    },
    {
      "inputs": [
        {
          "internalType": "address",
          "name": "",
          "type": "address"
        }
      ],
      "name": "inLeague",
      "outputs": [
        {
          "internalType": "bool",
          "name": "",
          "type": "bool"
        }
      ],
      "stateMutability": "view",
      "type": "function"
    },
    {
      "inputs": [
        {
          "internalType": "string",
          "name": "_name",
          "type": "string"
        },
        {
          "internalType": "uint256",
          "name": "_stakeAmount",
          "type": "uint256"
        },
        {
          "internalType": "bool",
          "name": "_isPublic",
          "type": "bool"
        },
        {
          "internalType": "address",
          "name": "athletesDataStorageAddress",
          "type": "address"
        },
        {
          "internalType": "address",
          "name": "_admin",
          "type": "address"
        },
        {
          "internalType": "address",
          "name": "_rinkebyUSDCAddress",
          "type": "address"
        },
        {
          "internalType": "address",
          "name": "_testUSDCAddress",
          "type": "address"
        },
        {
          "internalType": "address",
          "name": "_gameItemsContractAddress",
          "type": "address"
        },
        {
          "internalType": "address",
          "name": "_teamDiffAddress",
          "type": "address"
        },
        {
          "internalType": "address",
          "name": "_leagueMakerContractAddress",
          "type": "address"
        }
      ],
      "name": "initialize",
      "outputs": [],
      "stateMutability": "nonpayable",
      "type": "function"
    },
    {
      "inputs": [],
      "name": "isPublic",
      "outputs": [
        {
          "internalType": "bool",
          "name": "",
          "type": "bool"
        }
      ],
      "stateMutability": "view",
      "type": "function"
    },
    {
      "inputs": [],
      "name": "joinLeague",
      "outputs": [],
      "stateMutability": "nonpayable",
      "type": "function"
    },
    {
      "inputs": [],
      "name": "leagueEntryIsClosed",
      "outputs": [
        {
          "internalType": "bool",
          "name": "",
          "type": "bool"
        }
      ],
      "stateMutability": "view",
      "type": "function"
    },
    {
      "inputs": [
        {
          "internalType": "uint256",
          "name": "",
          "type": "uint256"
        }
      ],
      "name": "leagueMembers",
      "outputs": [
        {
          "internalType": "address",
          "name": "",
          "type": "address"
        }
      ],
      "stateMutability": "view",
      "type": "function"
    },
    {
      "inputs": [],
      "name": "leagueName",
      "outputs": [
        {
          "internalType": "string",
          "name": "",
          "type": "string"
        }
      ],
      "stateMutability": "view",
      "type": "function"
    },
    {
      "inputs": [],
      "name": "lineupIsLocked",
      "outputs": [
        {
          "internalType": "bool",
          "name": "",
          "type": "bool"
        }
      ],
      "stateMutability": "view",
      "type": "function"
    },
    {
      "inputs": [],
      "name": "lockLineup",
      "outputs": [],
      "stateMutability": "nonpayable",
      "type": "function"
    },
    {
      "inputs": [],
      "name": "numWeeks",
      "outputs": [
        {
          "internalType": "uint256",
          "name": "",
          "type": "uint256"
        }
      ],
      "stateMutability": "view",
      "type": "function"
    },
    {
      "inputs": [],
      "name": "onLeagueEnd",
      "outputs": [],
      "stateMutability": "nonpayable",
      "type": "function"
    },
    {
      "inputs": [],
      "name": "owner",
      "outputs": [
        {
          "internalType": "address",
          "name": "",
          "type": "address"
        }
      ],
      "stateMutability": "view",
      "type": "function"
    },
    {
      "inputs": [
        {
          "internalType": "address",
          "name": "addr",
          "type": "address"
        }
      ],
      "name": "removeAddressFromWhitelist",
      "outputs": [
        {
          "internalType": "bool",
          "name": "success",
          "type": "bool"
        }
      ],
      "stateMutability": "nonpayable",
      "type": "function"
    },
    {
      "inputs": [
        {
          "internalType": "address[]",
          "name": "addrs",
          "type": "address[]"
        }
      ],
      "name": "removeAddressesFromWhitelist",
      "outputs": [
        {
          "internalType": "bool",
          "name": "success",
          "type": "bool"
        }
      ],
      "stateMutability": "nonpayable",
      "type": "function"
    },
    {
      "inputs": [
        {
          "internalType": "address",
          "name": "_userToRemove",
          "type": "address"
        }
      ],
      "name": "removeFromWhitelist",
      "outputs": [],
      "stateMutability": "nonpayable",
      "type": "function"
    },
    {
      "inputs": [],
      "name": "renounceOwnership",
      "outputs": [],
      "stateMutability": "nonpayable",
      "type": "function"
    },
    {
      "inputs": [],
      "name": "rinkebyUSDCAddress",
      "outputs": [
        {
          "internalType": "address",
          "name": "",
          "type": "address"
        }
      ],
      "stateMutability": "view",
      "type": "function"
    },
    {
      "inputs": [],
      "name": "setLeagueEntryIsClosed",
      "outputs": [],
      "stateMutability": "nonpayable",
      "type": "function"
    },
    {
      "inputs": [],
      "name": "setLeagueSchedule",
      "outputs": [],
      "stateMutability": "nonpayable",
      "type": "function"
    },
    {
      "inputs": [
        {
          "internalType": "uint256[]",
          "name": "athleteIds",
          "type": "uint256[]"
        }
      ],
      "name": "setLineup",
      "outputs": [],
      "stateMutability": "nonpayable",
      "type": "function"
    },
    {
      "inputs": [],
      "name": "stakeAmount",
      "outputs": [
        {
          "internalType": "uint256",
          "name": "",
          "type": "uint256"
        }
      ],
      "stateMutability": "view",
      "type": "function"
    },
    {
      "inputs": [],
      "name": "teamDiffAddress",
      "outputs": [
        {
          "internalType": "address",
          "name": "",
          "type": "address"
        }
      ],
      "stateMutability": "view",
      "type": "function"
    },
    {
      "inputs": [],
      "name": "testUSDC",
      "outputs": [
        {
          "internalType": "contract IERC20",
          "name": "",
          "type": "address"
        }
      ],
      "stateMutability": "view",
      "type": "function"
    },
    {
      "inputs": [
        {
          "internalType": "address",
          "name": "newOwner",
          "type": "address"
        }
      ],
      "name": "transferOwnership",
      "outputs": [],
      "stateMutability": "nonpayable",
      "type": "function"
    },
    {
      "inputs": [],
      "name": "unlockLineup",
      "outputs": [],
      "stateMutability": "nonpayable",
      "type": "function"
    },
    {
      "inputs": [
        {
          "internalType": "address",
          "name": "",
          "type": "address"
        },
        {
          "internalType": "uint256",
          "name": "",
          "type": "uint256"
        }
      ],
      "name": "userToLineup",
      "outputs": [
        {
          "internalType": "uint256",
          "name": "",
          "type": "uint256"
        }
      ],
      "stateMutability": "view",
      "type": "function"
    },
    {
      "inputs": [
        {
          "internalType": "address",
          "name": "",
          "type": "address"
        }
      ],
      "name": "userToPoints",
      "outputs": [
        {
          "internalType": "uint256",
          "name": "",
          "type": "uint256"
        }
      ],
      "stateMutability": "view",
      "type": "function"
    },
    {
      "inputs": [
        {
          "internalType": "address",
          "name": "",
          "type": "address"
        },
        {
          "internalType": "uint256",
          "name": "",
          "type": "uint256"
        }
      ],
      "name": "userToRecord",
      "outputs": [
        {
          "internalType": "uint256",
          "name": "",
          "type": "uint256"
        }
      ],
      "stateMutability": "view",
      "type": "function"
    },
    {
      "inputs": [
        {
          "internalType": "address",
          "name": "",
          "type": "address"
        }
      ],
      "name": "whitelist",
      "outputs": [
        {
          "internalType": "bool",
          "name": "",
          "type": "bool"
        }
      ],
      "stateMutability": "view",
      "type": "function"
    }
  ],
  "bytecode": "0x60806040523480156200001157600080fd5b5062000032620000266200004060201b60201c565b6200004860201b60201c565b60016004819055506200010d565b600033905090565b60008060029054906101000a900473ffffffffffffffffffffffffffffffffffffffff16905081600060026101000a81548173ffffffffffffffffffffffffffffffffffffffff021916908373ffffffffffffffffffffffffffffffffffffffff1602179055508173ffffffffffffffffffffffffffffffffffffffff168173ffffffffffffffffffffffffffffffffffffffff167f8be0079c531659141344cd1fd0a4f28419497f9722a3daafe3b4186f6b6457e060405160405180910390a35050565b615cf8806200011d6000396000f3fe60806040523480156200001157600080fd5b5060043610620002bb5760003560e01c80636e9960c3116200017d578063c8be3b5b11620000e1578063e4c9066b1162000093578063e4c9066b146200083e578063e5f7322f146200084a578063f2fde38b1462000880578063f612121a14620008a0578063f851a44014620008c0578063f881604514620008e257620002bb565b8063c8be3b5b1462000762578063c99fea94146200076e578063cff56003146200077a578063dc9a153514620007b0578063e2ec6ec314620007d2578063e35a8999146200080857620002bb565b8063841abf6e116200013b578063841abf6e14620006865780638ab1d68114620006a85780638da5cb5b14620006c85780639122ce6d14620006ea5780639b19251a1462000720578063a2bc091a146200075657620002bb565b80636e9960c314620005e0578063715018a61462000602578063747b8050146200060e5780637b9417c8146200062e5780637eed33f1146200066457620002bb565b80632ae6b135116200022557806344eaa84e11620001e357806344eaa84e146200051457806352e6e5f31462000536578063595b1a3e14620005585780635fcc6987146200057a57806360c7dc47146200059c5780636cc15ad514620005be57620002bb565b80632ae6b135146200045a5780632d382ee01462000490578063305a578214620004c65780633c3ae13f14620004d25780633cfd1ccc14620004f257620002bb565b80631d803e00116200027f5780631d803e0014620003685780631dd7f8ca146200037457806324953eaa1462000396578063267175db14620003cc57806327311b321462000402578063286dd3f5146200042457620002bb565b8062b2476f14620002c0578063022e35e614620002e25780630635dbcb14620003045780630655465a14620003265780630c6f79591462000332575b600080fd5b620002ca62000904565b604051620002d9919062003e68565b60405180910390f35b620002ec6200092a565b604051620002fb919062003f54565b60405180910390f35b6200030e62000950565b6040516200031d919062003f37565b60405180910390f35b6200033062000963565b005b6200035060048036038101906200034a919062003583565b62000a6e565b6040516200035f91906200421b565b60405180910390f35b6200037262000aa0565b005b6200037e62000cf7565b6040516200038d919062003e68565b60405180910390f35b620003b46004803603810190620003ae9190620035ca565b62000d1d565b604051620003c3919062003f37565b60405180910390f35b620003ea6004803603810190620003e4919062003809565b62000dfe565b604051620003f9919062003e68565b60405180910390f35b6200040c62000e3e565b6040516200041b919062003f37565b60405180910390f35b6200044260048036038101906200043c919062003551565b62000e55565b60405162000451919062003f37565b60405180910390f35b62000478600480360381019062000472919062003551565b62000fe4565b6040516200048791906200421b565b60405180910390f35b620004ae6004803603810190620004a8919062003809565b62000ffc565b604051620004bd919062003eef565b60405180910390f35b620004d0620010ed565b005b620004f06004803603810190620004ea9190620036ef565b62001265565b005b620004fc620016fe565b6040516200050b91906200421b565b60405180910390f35b6200051e6200180d565b6040516200052d91906200421b565b60405180910390f35b6200054062001817565b6040516200054f91906200421b565b60405180910390f35b620005626200181d565b6040516200057191906200421b565b60405180910390f35b620005846200182a565b6040516200059391906200421b565b60405180910390f35b620005a662001939565b604051620005b591906200421b565b60405180910390f35b620005c86200193f565b604051620005d7919062003f37565b60405180910390f35b620005ea62001952565b604051620005f9919062003e68565b60405180910390f35b6200060c6200197c565b005b6200062c600480360381019062000626919062003551565b62001a0d565b005b6200064c600480360381019062000646919062003551565b62001b57565b6040516200065b919062003f37565b60405180910390f35b6200066e62001ce4565b6040516200067d91906200421b565b60405180910390f35b6200069062001cea565b6040516200069f919062003ff9565b60405180910390f35b620006c66004803603810190620006c0919062003551565b62001d80565b005b620006d262001f1d565b604051620006e1919062003e68565b60405180910390f35b62000708600480360381019062000702919062003551565b62001f46565b60405162000717919062003f37565b60405180910390f35b6200073e600480360381019062000738919062003551565b62001f66565b6040516200074d919062003f37565b60405180910390f35b6200076062001f86565b005b6200076c62002036565b005b62000778620020e6565b005b62000798600480360381019062000792919062003583565b62002574565b604051620007a791906200421b565b60405180910390f35b620007ba620025a6565b604051620007c9919062003f37565b60405180910390f35b620007f06004803603810190620007ea9190620035ca565b620025b9565b604051620007ff919062003f37565b60405180910390f35b62000826600480360381019062000820919062003551565b6200269a565b60405162000835919062003f37565b60405180910390f35b62000848620026f0565b005b62000868600480360381019062000862919062003551565b620027a0565b60405162000877919062003f13565b60405180910390f35b6200089e600480360381019062000898919062003551565b62002839565b005b620008be6004803603810190620008b891906200366c565b6200293d565b005b620008ca62002ec8565b604051620008d9919062003e68565b60405180910390f35b620008ec62002eee565b604051620008fb919062003f13565b60405180910390f35b601260009054906101000a900473ffffffffffffffffffffffffffffffffffffffff1681565b601660009054906101000a900473ffffffffffffffffffffffffffffffffffffffff1681565b600a60159054906101000a900460ff1681565b600a60009054906101000a900473ffffffffffffffffffffffffffffffffffffffff1673ffffffffffffffffffffffffffffffffffffffff163373ffffffffffffffffffffffffffffffffffffffff1614620009f6576040517f08c379a0000000000000000000000000000000000000000000000000000000008152600401620009ed906200414f565b60405180910390fd5b73__$36fdb4e0c2cb91f3ceca5ea81b025328f3$__63d2c232b56011601060065460056040518563ffffffff1660e01b815260040162000a3a949392919062003fa5565b60006040518083038186803b15801562000a5357600080fd5b505af415801562000a68573d6000803e3d6000fd5b50505050565b600c602052816000526040600020818154811062000a8b57600080fd5b90600052602060002001600091509150505481565b600a60009054906101000a900473ffffffffffffffffffffffffffffffffffffffff1673ffffffffffffffffffffffffffffffffffffffff163373ffffffffffffffffffffffffffffffffffffffff161462000b33576040517f08c379a000000000000000000000000000000000000000000000000000000000815260040162000b2a906200414f565b60405180910390fd5b600060108054905060075462000b4a9190620044e0565b9050600073__$36fdb4e0c2cb91f3ceca5ea81b025328f3$__636b23e894600c60106040518363ffffffff1660e01b815260040162000b8b92919062003f71565b60006040518083038186803b15801562000ba457600080fd5b505af415801562000bb9573d6000803e3d6000fd5b505050506040513d6000823e3d601f19601f8201168201806040525081019062000be491906200361b565b9050600081518362000bf79190620044a8565b905060005b825181101562000cf157601660009054906101000a900473ffffffffffffffffffffffffffffffffffffffff1673ffffffffffffffffffffffffffffffffffffffff166323b872dd3085848151811062000c5b5762000c5a62004800565b5b6020026020010151856040518463ffffffff1660e01b815260040162000c849392919062003e85565b602060405180830381600087803b15801562000c9f57600080fd5b505af115801562000cb4573d6000803e3d6000fd5b505050506040513d601f19601f8201168201806040525081019062000cda9190620036bd565b50808062000ce89062004725565b91505062000bfc565b50505050565b600a60009054906101000a900473ffffffffffffffffffffffffffffffffffffffff1681565b600062000d2962002f85565b73ffffffffffffffffffffffffffffffffffffffff1662000d4962001f1d565b73ffffffffffffffffffffffffffffffffffffffff161462000da2576040517f08c379a000000000000000000000000000000000000000000000000000000000815260040162000d99906200410b565b60405180910390fd5b60005b825181101562000df85762000dd783828151811062000dc95762000dc862004800565b5b602002602001015162000e55565b1562000de257600191505b808062000def9062004725565b91505062000da5565b50919050565b6010818154811062000e0f57600080fd5b906000526020600020016000915054906101000a900473ffffffffffffffffffffffffffffffffffffffff1681565b6000600a60159054906101000a900460ff16905090565b600062000e6162002f85565b73ffffffffffffffffffffffffffffffffffffffff1662000e8162001f1d565b73ffffffffffffffffffffffffffffffffffffffff161462000eda576040517f08c379a000000000000000000000000000000000000000000000000000000000815260040162000ed1906200410b565b60405180910390fd5b600160008373ffffffffffffffffffffffffffffffffffffffff1673ffffffffffffffffffffffffffffffffffffffff16815260200190815260200160002060009054906101000a900460ff161562000fdf576000600160008473ffffffffffffffffffffffffffffffffffffffff1673ffffffffffffffffffffffffffffffffffffffff16815260200190815260200160002060006101000a81548160ff0219169083151502179055507ff1abf01a1043b7c244d128e8595cf0c1d10743b022b03a02dffd8ca3bf729f5a8260405162000fb6919062003e68565b60405180910390a160016002600082825462000fd3919062004541565b92505081905550600190505b919050565b600e6020528060005260406000206000915090505481565b606060116000838152602001908152602001600020805480602002602001604051908101604052809291908181526020016000905b82821015620010e2578382906000526020600020906002020160405180602001604052908160008201600280602002604051908101604052809291908260028015620010c9576020028201915b8160009054906101000a900473ffffffffffffffffffffffffffffffffffffffff1673ffffffffffffffffffffffffffffffffffffffff16815260200190600101908083116200107e575b5050505050815250508152602001906001019062001031565b505050509050919050565b600a60009054906101000a900473ffffffffffffffffffffffffffffffffffffffff1673ffffffffffffffffffffffffffffffffffffffff163373ffffffffffffffffffffffffffffffffffffffff161462001180576040517f08c379a000000000000000000000000000000000000000000000000000000000815260040162001177906200414f565b60405180910390fd5b73__$36fdb4e0c2cb91f3ceca5ea81b025328f3$__63c930f4bc600854601360009054906101000a900473ffffffffffffffffffffffffffffffffffffffff16600c600d600e60116040518763ffffffff1660e01b8152600401620011eb9695949392919062004238565b60006040518083038186803b1580156200120457600080fd5b505af415801562001219573d6000803e3d6000fd5b5050505060016006546200122e919062004541565b600854141562001248576200124262000aa0565b62001263565b600860008154809291906200125d9062004725565b91905055505b565b600060019054906101000a900460ff166200128f5760008054906101000a900460ff16156200129a565b6200129962002f8d565b5b620012dc576040517f08c379a0000000000000000000000000000000000000000000000000000000008152600401620012d390620040e9565b60405180910390fd5b60008060019054906101000a900460ff1615905080156200132d576001600060016101000a81548160ff02191690831515021790555060016000806101000a81548160ff0219169083151502179055505b8b8b60059190620013409291906200314e565b5060086006819055506001600f60008973ffffffffffffffffffffffffffffffffffffffff1673ffffffffffffffffffffffffffffffffffffffff16815260200190815260200160002060006101000a81548160ff0219169083151502179055506010879080600181540180825580915050600190039060005260206000200160009091909190916101000a81548173ffffffffffffffffffffffffffffffffffffffff021916908373ffffffffffffffffffffffffffffffffffffffff16021790555086600960006101000a81548173ffffffffffffffffffffffffffffffffffffffff021916908373ffffffffffffffffffffffffffffffffffffffff1602179055508960078190555088600360006101000a81548160ff0219169083151502179055506000600a60146101000a81548160ff0219169083151502179055506000600a60156101000a81548160ff02191690831515021790555087601360006101000a81548173ffffffffffffffffffffffffffffffffffffffff021916908373ffffffffffffffffffffffffffffffffffffffff16021790555081601560006101000a81548173ffffffffffffffffffffffffffffffffffffffff021916908373ffffffffffffffffffffffffffffffffffffffff1602179055506040516200152c90620031df565b604051809103906000f08015801562001549573d6000803e3d6000fd5b50601460006101000a81548173ffffffffffffffffffffffffffffffffffffffff021916908373ffffffffffffffffffffffffffffffffffffffff16021790555085601260006101000a81548173ffffffffffffffffffffffffffffffffffffffff021916908373ffffffffffffffffffffffffffffffffffffffff16021790555084601660006101000a81548173ffffffffffffffffffffffffffffffffffffffff021916908373ffffffffffffffffffffffffffffffffffffffff16021790555082600a60006101000a81548173ffffffffffffffffffffffffffffffffffffffff021916908373ffffffffffffffffffffffffffffffffffffffff16021790555083601760006101000a81548173ffffffffffffffffffffffffffffffffffffffff021916908373ffffffffffffffffffffffffffffffffffffffff160217905550620016ce6040518060400160405280601281526020017f50726f787920696e697469616c697a656421000000000000000000000000000081525062002fa0565b8015620016f05760008060016101000a81548160ff0219169083151502179055505b505050505050505050505050565b6000600f60003373ffffffffffffffffffffffffffffffffffffffff1673ffffffffffffffffffffffffffffffffffffffff16815260200190815260200160002060009054906101000a900460ff166200175757600080fd5b601660009054906101000a900473ffffffffffffffffffffffffffffffffffffffff1673ffffffffffffffffffffffffffffffffffffffff166370a08231306040518263ffffffff1660e01b8152600401620017b4919062003e68565b60206040518083038186803b158015620017cd57600080fd5b505afa158015620017e2573d6000803e3d6000fd5b505050506040513d601f19601f820116820180604052508101906200180891906200383b565b905090565b6000600254905090565b60085481565b6000601080549050905090565b6000600f60003373ffffffffffffffffffffffffffffffffffffffff1673ffffffffffffffffffffffffffffffffffffffff16815260200190815260200160002060009054906101000a900460ff166200188357600080fd5b601660009054906101000a900473ffffffffffffffffffffffffffffffffffffffff1673ffffffffffffffffffffffffffffffffffffffff166370a08231336040518263ffffffff1660e01b8152600401620018e0919062003e68565b60206040518083038186803b158015620018f957600080fd5b505afa1580156200190e573d6000803e3d6000fd5b505050506040513d601f19601f820116820180604052508101906200193491906200383b565b905090565b60075481565b600a60149054906101000a900460ff1681565b6000600960009054906101000a900473ffffffffffffffffffffffffffffffffffffffff16905090565b6200198662002f85565b73ffffffffffffffffffffffffffffffffffffffff16620019a662001f1d565b73ffffffffffffffffffffffffffffffffffffffff1614620019ff576040517f08c379a0000000000000000000000000000000000000000000000000000000008152600401620019f6906200410b565b60405180910390fd5b62001a0b60006200303d565b565b600960009054906101000a900473ffffffffffffffffffffffffffffffffffffffff1673ffffffffffffffffffffffffffffffffffffffff163373ffffffffffffffffffffffffffffffffffffffff161462001aa0576040517f08c379a000000000000000000000000000000000000000000000000000000000815260040162001a97906200412d565b60405180910390fd5b601460009054906101000a900473ffffffffffffffffffffffffffffffffffffffff1673ffffffffffffffffffffffffffffffffffffffff16637b9417c8826040518263ffffffff1660e01b815260040162001afd919062003e68565b602060405180830381600087803b15801562001b1857600080fd5b505af115801562001b2d573d6000803e3d6000fd5b505050506040513d601f19601f8201168201806040525081019062001b539190620036bd565b5050565b600062001b6362002f85565b73ffffffffffffffffffffffffffffffffffffffff1662001b8362001f1d565b73ffffffffffffffffffffffffffffffffffffffff161462001bdc576040517f08c379a000000000000000000000000000000000000000000000000000000000815260040162001bd3906200410b565b60405180910390fd5b600160008373ffffffffffffffffffffffffffffffffffffffff1673ffffffffffffffffffffffffffffffffffffffff16815260200190815260200160002060009054906101000a900460ff1662001cdf5760018060008473ffffffffffffffffffffffffffffffffffffffff1673ffffffffffffffffffffffffffffffffffffffff16815260200190815260200160002060006101000a81548160ff0219169083151502179055507fd1bba68c128cc3f427e5831b3c6f99f480b6efa6b9e80c757768f6124158cc3f8260405162001cb6919062003e68565b60405180910390a160016002600082825462001cd391906200444b565b92505081905550600190505b919050565b60065481565b6005805462001cf9906200469b565b80601f016020809104026020016040519081016040528092919081815260200182805462001d27906200469b565b801562001d785780601f1062001d4c5761010080835404028352916020019162001d78565b820191906000526020600020905b81548152906001019060200180831162001d5a57829003601f168201915b505050505081565b600960009054906101000a900473ffffffffffffffffffffffffffffffffffffffff1673ffffffffffffffffffffffffffffffffffffffff163373ffffffffffffffffffffffffffffffffffffffff161462001e13576040517f08c379a000000000000000000000000000000000000000000000000000000000815260040162001e0a906200412d565b60405180910390fd5b600a60149054906101000a900460ff161562001e66576040517f08c379a000000000000000000000000000000000000000000000000000000000815260040162001e5d9062004193565b60405180910390fd5b601460009054906101000a900473ffffffffffffffffffffffffffffffffffffffff1673ffffffffffffffffffffffffffffffffffffffff1663286dd3f5826040518263ffffffff1660e01b815260040162001ec3919062003e68565b602060405180830381600087803b15801562001ede57600080fd5b505af115801562001ef3573d6000803e3d6000fd5b505050506040513d601f19601f8201168201806040525081019062001f199190620036bd565b5050565b60008060029054906101000a900473ffffffffffffffffffffffffffffffffffffffff16905090565b600f6020528060005260406000206000915054906101000a900460ff1681565b60016020528060005260406000206000915054906101000a900460ff1681565b600a60009054906101000a900473ffffffffffffffffffffffffffffffffffffffff1673ffffffffffffffffffffffffffffffffffffffff163373ffffffffffffffffffffffffffffffffffffffff161462002019576040517f08c379a000000000000000000000000000000000000000000000000000000000815260040162002010906200414f565b60405180910390fd5b6000600a60156101000a81548160ff021916908315150217905550565b600a60009054906101000a900473ffffffffffffffffffffffffffffffffffffffff1673ffffffffffffffffffffffffffffffffffffffff163373ffffffffffffffffffffffffffffffffffffffff1614620020c9576040517f08c379a0000000000000000000000000000000000000000000000000000000008152600401620020c0906200414f565b60405180910390fd5b6001600a60156101000a81548160ff021916908315150217905550565b600160003373ffffffffffffffffffffffffffffffffffffffff1673ffffffffffffffffffffffffffffffffffffffff16815260200190815260200160002060009054906101000a900460ff16806200214b5750600360009054906101000a900460ff165b6200218d576040517f08c379a0000000000000000000000000000000000000000000000000000000008152600401620021849062004083565b60405180910390fd5b60026004541415620021d6576040517f08c379a0000000000000000000000000000000000000000000000000000000008152600401620021cd90620041d7565b60405180910390fd5b6002600481905550600a60149054906101000a900460ff161562002231576040517f08c379a00000000000000000000000000000000000000000000000000000000081526004016200222890620041f9565b60405180910390fd5b600f60003373ffffffffffffffffffffffffffffffffffffffff1673ffffffffffffffffffffffffffffffffffffffff16815260200190815260200160002060009054906101000a900460ff1615620022c1576040517f08c379a0000000000000000000000000000000000000000000000000000000008152600401620022b89062004061565b60405180910390fd5b600754601660009054906101000a900473ffffffffffffffffffffffffffffffffffffffff1673ffffffffffffffffffffffffffffffffffffffff166370a08231336040518263ffffffff1660e01b815260040162002321919062003e68565b60206040518083038186803b1580156200233a57600080fd5b505afa1580156200234f573d6000803e3d6000fd5b505050506040513d601f19601f820116820180604052508101906200237591906200383b565b11620023b8576040517f08c379a0000000000000000000000000000000000000000000000000000000008152600401620023af906200403f565b60405180910390fd5b6001600f60003373ffffffffffffffffffffffffffffffffffffffff1673ffffffffffffffffffffffffffffffffffffffff16815260200190815260200160002060006101000a81548160ff0219169083151502179055506010339080600181540180825580915050600190039060005260206000200160009091909190916101000a81548173ffffffffffffffffffffffffffffffffffffffff021916908373ffffffffffffffffffffffffffffffffffffffff160217905550601660009054906101000a900473ffffffffffffffffffffffffffffffffffffffff1673ffffffffffffffffffffffffffffffffffffffff166323b872dd33306007546040518463ffffffff1660e01b8152600401620024d69392919062003e85565b602060405180830381600087803b158015620024f157600080fd5b505af115801562002506573d6000803e3d6000fd5b505050506040513d601f19601f820116820180604052508101906200252c9190620036bd565b507f9e71bc8eea02a63969f509818f2dafb9254532904319f9dbda79b67bd34a5f3d336007546040516200256292919062003ec2565b60405180910390a16001600481905550565b600d60205281600052604060002081815481106200259157600080fd5b90600052602060002001600091509150505481565b600360009054906101000a900460ff1681565b6000620025c562002f85565b73ffffffffffffffffffffffffffffffffffffffff16620025e562001f1d565b73ffffffffffffffffffffffffffffffffffffffff16146200263e576040517f08c379a000000000000000000000000000000000000000000000000000000000815260040162002635906200410b565b60405180910390fd5b60005b825181101562002694576200267383828151811062002665576200266462004800565b5b602002602001015162001b57565b156200267e57600191505b80806200268b9062004725565b91505062002641565b50919050565b6000600160008373ffffffffffffffffffffffffffffffffffffffff1673ffffffffffffffffffffffffffffffffffffffff16815260200190815260200160002060009054906101000a900460ff169050919050565b600a60009054906101000a900473ffffffffffffffffffffffffffffffffffffffff1673ffffffffffffffffffffffffffffffffffffffff163373ffffffffffffffffffffffffffffffffffffffff161462002783576040517f08c379a00000000000000000000000000000000000000000000000000000000081526004016200277a906200414f565b60405180910390fd5b6001600a60146101000a81548160ff021916908315150217905550565b6060600d60008373ffffffffffffffffffffffffffffffffffffffff1673ffffffffffffffffffffffffffffffffffffffff1681526020019081526020016000208054806020026020016040519081016040528092919081815260200182805480156200282d57602002820191906000526020600020905b81548152602001906001019080831162002818575b50505050509050919050565b6200284362002f85565b73ffffffffffffffffffffffffffffffffffffffff166200286362001f1d565b73ffffffffffffffffffffffffffffffffffffffff1614620028bc576040517f08c379a0000000000000000000000000000000000000000000000000000000008152600401620028b3906200410b565b60405180910390fd5b600073ffffffffffffffffffffffffffffffffffffffff168173ffffffffffffffffffffffffffffffffffffffff1614156200292f576040517f08c379a000000000000000000000000000000000000000000000000000000000815260040162002926906200401d565b60405180910390fd5b6200293a816200303d565b50565b600a60159054906101000a900460ff161562002990576040517f08c379a00000000000000000000000000000000000000000000000000000000081526004016200298790620040c7565b60405180910390fd5b600f60003373ffffffffffffffffffffffffffffffffffffffff1673ffffffffffffffffffffffffffffffffffffffff16815260200190815260200160002060009054906101000a900460ff1662002a1f576040517f08c379a000000000000000000000000000000000000000000000000000000000815260040162002a169062004171565b60405180910390fd5b6000601560009054906101000a900473ffffffffffffffffffffffffffffffffffffffff1673ffffffffffffffffffffffffffffffffffffffff166306575c896040518163ffffffff1660e01b815260040160206040518083038186803b15801562002a8a57600080fd5b505afa15801562002a9f573d6000803e3d6000fd5b505050506040513d601f19601f8201168201806040525081019062002ac591906200383b565b905060005b600d60003373ffffffffffffffffffffffffffffffffffffffff1673ffffffffffffffffffffffffffffffffffffffff1681526020019081526020016000208054905081101562002bca57600b6000600d60003373ffffffffffffffffffffffffffffffffffffffff1673ffffffffffffffffffffffffffffffffffffffff168152602001908152602001600020838154811062002b6d5762002b6c62004800565b5b90600052602060002001548152602001908152602001600020826008811062002b9b5762002b9a62004800565b5b01600081548092919062002baf906200466c565b9190505550808062002bc19062004725565b91505062002aca565b5060005b825181101562002c4c57600b600084838151811062002bf25762002bf162004800565b5b60200260200101518152602001908152602001600020826008811062002c1d5762002c1c62004800565b5b01600081548092919062002c319062004725565b9190505550808062002c439062004725565b91505062002bce565b5060005b825181101562002d84576000601760009054906101000a900473ffffffffffffffffffffffffffffffffffffffff1673ffffffffffffffffffffffffffffffffffffffff1662fdd58e3386858151811062002cb05762002caf62004800565b5b60200260200101516040518363ffffffff1660e01b815260040162002cd792919062003ec2565b60206040518083038186803b15801562002cf057600080fd5b505afa15801562002d05573d6000803e3d6000fd5b505050506040513d601f19601f8201168201806040525081019062002d2b91906200383b565b1162002d6e576040517f08c379a000000000000000000000000000000000000000000000000000000000815260040162002d6590620041b5565b60405180910390fd5b808062002d7b9062004725565b91505062002c50565b5060005b825181101562002e6d57600a8162002da19190620044e0565b83828151811062002db75762002db662004800565b5b60200260200101511015801562002e1557506001600a60018362002ddc91906200444b565b62002de89190620044e0565b62002df4919062004541565b83828151811062002e0a5762002e0962004800565b5b602002602001015111155b62002e57576040517f08c379a000000000000000000000000000000000000000000000000000000000815260040162002e4e90620040a5565b60405180910390fd5b808062002e649062004725565b91505062002d88565b5081600d60003373ffffffffffffffffffffffffffffffffffffffff1673ffffffffffffffffffffffffffffffffffffffff168152602001908152602001600020908051906020019062002ec3929190620031ed565b505050565b600960009054906101000a900473ffffffffffffffffffffffffffffffffffffffff1681565b6060600c60003373ffffffffffffffffffffffffffffffffffffffff1673ffffffffffffffffffffffffffffffffffffffff16815260200190815260200160002080548060200260200160405190810160405280929190818152602001828054801562002f7b57602002820191906000526020600020905b81548152602001906001019080831162002f66575b5050505050905090565b600033905090565b600062002f9a3062003102565b15905090565b6200303a8160405160240162002fb7919062003ff9565b6040516020818303038152906040527f41304fac000000000000000000000000000000000000000000000000000000007bffffffffffffffffffffffffffffffffffffffffffffffffffffffff19166020820180517bffffffffffffffffffffffffffffffffffffffffffffffffffffffff838183161783525050505062003125565b50565b60008060029054906101000a900473ffffffffffffffffffffffffffffffffffffffff16905081600060026101000a81548173ffffffffffffffffffffffffffffffffffffffff021916908373ffffffffffffffffffffffffffffffffffffffff1602179055508173ffffffffffffffffffffffffffffffffffffffff168173ffffffffffffffffffffffffffffffffffffffff167f8be0079c531659141344cd1fd0a4f28419497f9722a3daafe3b4186f6b6457e060405160405180910390a35050565b6000808273ffffffffffffffffffffffffffffffffffffffff163b119050919050565b60008151905060006a636f6e736f6c652e6c6f679050602083016000808483855afa5050505050565b8280546200315c906200469b565b90600052602060002090601f016020900481019282620031805760008555620031cc565b82601f106200319b57803560ff1916838001178555620031cc565b82800160010185558215620031cc579182015b82811115620031cb578235825591602001919060010190620031ae565b5b509050620031db91906200323f565b5090565b6110598062004c6a83390190565b8280548282559060005260206000209081019282156200322c579160200282015b828111156200322b5782518255916020019190600101906200320e565b5b5090506200323b91906200323f565b5090565b5b808211156200325a57600081600090555060010162003240565b5090565b6000620032756200326f84620042ce565b620042a5565b905080838252602082019050828560208602820111156200329b576200329a6200487d565b5b60005b85811015620032cf5781620032b48882620033cf565b8452602084019350602083019250506001810190506200329e565b5050509392505050565b6000620032f0620032ea84620042ce565b620042a5565b905080838252602082019050828560208602820111156200331657620033156200487d565b5b60005b858110156200334a57816200332f8882620033e6565b84526020840193506020830192505060018101905062003319565b5050509392505050565b60006200336b6200336584620042fd565b620042a5565b905080838252602082019050828560208602820111156200339157620033906200487d565b5b60005b85811015620033c55781620033aa888262003523565b84526020840193506020830192505060018101905062003394565b5050509392505050565b600081359050620033e08162004c1b565b92915050565b600081519050620033f78162004c1b565b92915050565b600082601f83011262003415576200341462004878565b5b8135620034278482602086016200325e565b91505092915050565b600082601f83011262003448576200344762004878565b5b81516200345a848260208601620032d9565b91505092915050565b600082601f8301126200347b576200347a62004878565b5b81356200348d84826020860162003354565b91505092915050565b600081359050620034a78162004c35565b92915050565b600081519050620034be8162004c35565b92915050565b60008083601f840112620034dd57620034dc62004878565b5b8235905067ffffffffffffffff811115620034fd57620034fc62004873565b5b6020830191508360018202830111156200351c576200351b6200487d565b5b9250929050565b600081359050620035348162004c4f565b92915050565b6000815190506200354b8162004c4f565b92915050565b6000602082840312156200356a576200356962004887565b5b60006200357a84828501620033cf565b91505092915050565b600080604083850312156200359d576200359c62004887565b5b6000620035ad85828601620033cf565b9250506020620035c08582860162003523565b9150509250929050565b600060208284031215620035e357620035e262004887565b5b600082013567ffffffffffffffff81111562003604576200360362004882565b5b6200361284828501620033fd565b91505092915050565b60006020828403121562003634576200363362004887565b5b600082015167ffffffffffffffff81111562003655576200365462004882565b5b620036638482850162003430565b91505092915050565b60006020828403121562003685576200368462004887565b5b600082013567ffffffffffffffff811115620036a657620036a562004882565b5b620036b48482850162003463565b91505092915050565b600060208284031215620036d657620036d562004887565b5b6000620036e684828501620034ad565b91505092915050565b60008060008060008060008060008060006101408c8e03121562003718576200371762004887565b5b60008c013567ffffffffffffffff81111562003739576200373862004882565b5b620037478e828f01620034c4565b9b509b505060206200375c8e828f0162003523565b99505060406200376f8e828f0162003496565b9850506060620037828e828f01620033cf565b9750506080620037958e828f01620033cf565b96505060a0620037a88e828f01620033cf565b95505060c0620037bb8e828f01620033cf565b94505060e0620037ce8e828f01620033cf565b935050610100620037e28e828f01620033cf565b925050610120620037f68e828f01620033cf565b9150509295989b509295989b9093969950565b60006020828403121562003822576200382162004887565b5b6000620038328482850162003523565b91505092915050565b60006020828403121562003854576200385362004887565b5b600062003864848285016200353a565b91505092915050565b60006200387b8383620038d5565b60208301905092915050565b6000620038958383620038f7565b60208301905092915050565b6000620038af838362003e17565b60408301905092915050565b6000620038c9838362003e35565b60208301905092915050565b620038e0816200459c565b82525050565b620038f1816200459c565b82525050565b62003902816200459c565b82525050565b620039138162004380565b6200391f8184620043eb565b92506200392c826200432c565b8060005b83811015620039635781516200394787826200386d565b96506200395483620043b7565b92505060018101905062003930565b505050505050565b600062003978826200438b565b620039848185620043f6565b9350620039918362004336565b8060005b83811015620039d157620039a9826200485e565b620039b5888262003887565b9750620039c283620043c4565b92505060018101905062003995565b5085935050505092915050565b8082525050565b6000620039f28262004396565b620039fe818562004407565b935062003a0b836200434b565b8060005b8381101562003a4257815162003a268882620038a1565b975062003a3383620043d1565b92505060018101905062003a0f565b5085935050505092915050565b600062003a5c82620043a1565b62003a68818562004418565b935062003a75836200435b565b8060005b8381101562003aac57815162003a908882620038bb565b975062003a9d83620043de565b92505060018101905062003a79565b5085935050505092915050565b62003ac481620045b0565b82525050565b62003ad581620045e6565b82525050565b62003ae681620045fa565b82525050565b8082525050565b8082525050565b8082525050565b600062003b0e82620043ac565b62003b1a818562004429565b935062003b2c81856020860162004636565b62003b37816200488c565b840191505092915050565b6000815462003b51816200469b565b62003b5d81866200443a565b9450600182166000811462003b7b576001811462003b8e5762003bc5565b60ff198316865260208601935062003bc5565b62003b99856200436b565b60005b8381101562003bbd5781548189015260018201915060208101905062003b9c565b808801955050505b50505092915050565b600062003bdd60268362004429565b915062003bea82620048aa565b604082019050919050565b600062003c04601d8362004429565b915062003c1182620048f9565b602082019050919050565b600062003c2b60238362004429565b915062003c388262004922565b604082019050919050565b600062003c52601a8362004429565b915062003c5f8262004971565b602082019050919050565b600062003c7960318362004429565b915062003c86826200499a565b604082019050919050565b600062003ca0601e8362004429565b915062003cad82620049e9565b602082019050919050565b600062003cc7602e8362004429565b915062003cd48262004a12565b604082019050919050565b600062003cee60208362004429565b915062003cfb8262004a61565b602082019050919050565b600062003d1560178362004429565b915062003d228262004a8a565b602082019050919050565b600062003d3c60168362004429565b915062003d498262004ab3565b602082019050919050565b600062003d6360168362004429565b915062003d708262004adc565b602082019050919050565b600062003d8a60418362004429565b915062003d978262004b05565b606082019050919050565b600062003db160248362004429565b915062003dbe8262004b7a565b604082019050919050565b600062003dd8601f8362004429565b915062003de58262004bc9565b602082019050919050565b600062003dff60178362004429565b915062003e0c8262004bf2565b602082019050919050565b60408201600082015162003e2f600085018262003908565b50505050565b62003e4081620045dc565b82525050565b62003e5181620045dc565b82525050565b62003e6281620045dc565b82525050565b600060208201905062003e7f6000830184620038e6565b92915050565b600060608201905062003e9c6000830186620038e6565b62003eab6020830185620038e6565b62003eba604083018462003e46565b949350505050565b600060408201905062003ed96000830185620038e6565b62003ee8602083018462003e46565b9392505050565b6000602082019050818103600083015262003f0b8184620039e5565b905092915050565b6000602082019050818103600083015262003f2f818462003a4f565b905092915050565b600060208201905062003f4e600083018462003ab9565b92915050565b600060208201905062003f6b600083018462003adb565b92915050565b600060408201905062003f88600083018562003aec565b818103602083015262003f9c81846200396b565b90509392505050565b600060808201905062003fbc600083018762003afa565b62003fcb6020830186620039de565b62003fda604083018562003e57565b818103606083015262003fee818462003b42565b905095945050505050565b6000602082019050818103600083015262004015818462003b01565b905092915050565b60006020820190508181036000830152620040388162003bce565b9050919050565b600060208201905081810360008301526200405a8162003bf5565b9050919050565b600060208201905081810360008301526200407c8162003c1c565b9050919050565b600060208201905081810360008301526200409e8162003c43565b9050919050565b60006020820190508181036000830152620040c08162003c6a565b9050919050565b60006020820190508181036000830152620040e28162003c91565b9050919050565b60006020820190508181036000830152620041048162003cb8565b9050919050565b60006020820190508181036000830152620041268162003cdf565b9050919050565b60006020820190508181036000830152620041488162003d06565b9050919050565b600060208201905081810360008301526200416a8162003d2d565b9050919050565b600060208201905081810360008301526200418c8162003d54565b9050919050565b60006020820190508181036000830152620041ae8162003d7b565b9050919050565b60006020820190508181036000830152620041d08162003da2565b9050919050565b60006020820190508181036000830152620041f28162003dc9565b9050919050565b60006020820190508181036000830152620042148162003df0565b9050919050565b600060208201905062004232600083018462003e46565b92915050565b600060c0820190506200424f600083018962003e57565b6200425e602083018862003aca565b6200426d604083018762003aec565b6200427c606083018662003aec565b6200428b608083018562003af3565b6200429a60a083018462003afa565b979650505050505050565b6000620042b1620042c4565b9050620042bf8282620046ef565b919050565b6000604051905090565b600067ffffffffffffffff821115620042ec57620042eb6200482f565b5b602082029050602081019050919050565b600067ffffffffffffffff8211156200431b576200431a6200482f565b5b602082029050602081019050919050565b6000819050919050565b60008190508160005260206000209050919050565b6000819050602082019050919050565b6000819050602082019050919050565b60008190508160005260206000209050919050565b600060029050919050565b600081549050919050565b600081519050919050565b600081519050919050565b600081519050919050565b6000602082019050919050565b6000600182019050919050565b6000602082019050919050565b6000602082019050919050565b600081905092915050565b600082825260208201905092915050565b600082825260208201905092915050565b600082825260208201905092915050565b600082825260208201905092915050565b600082825260208201905092915050565b60006200445882620045dc565b91506200446583620045dc565b9250827fffffffffffffffffffffffffffffffffffffffffffffffffffffffffffffffff038211156200449d576200449c62004773565b5b828201905092915050565b6000620044b582620045dc565b9150620044c283620045dc565b925082620044d557620044d4620047a2565b5b828204905092915050565b6000620044ed82620045dc565b9150620044fa83620045dc565b9250817fffffffffffffffffffffffffffffffffffffffffffffffffffffffffffffffff048311821515161562004536576200453562004773565b5b828202905092915050565b60006200454e82620045dc565b91506200455b83620045dc565b92508282101562004571576200457062004773565b5b828203905092915050565b600073ffffffffffffffffffffffffffffffffffffffff82169050919050565b6000620045a982620045bc565b9050919050565b60008115159050919050565b600073ffffffffffffffffffffffffffffffffffffffff82169050919050565b6000819050919050565b6000620045f3826200460e565b9050919050565b600062004607826200460e565b9050919050565b60006200461b8262004622565b9050919050565b60006200462f82620045bc565b9050919050565b60005b838110156200465657808201518184015260208101905062004639565b8381111562004666576000848401525b50505050565b60006200467982620045dc565b9150600082141562004690576200468f62004773565b5b600182039050919050565b60006002820490506001821680620046b457607f821691505b60208210811415620046cb57620046ca620047d1565b5b50919050565b6000620046e8620046e2836200489d565b6200457c565b9050919050565b620046fa826200488c565b810181811067ffffffffffffffff821117156200471c576200471b6200482f565b5b80604052505050565b60006200473282620045dc565b91507fffffffffffffffffffffffffffffffffffffffffffffffffffffffffffffffff82141562004768576200476762004773565b5b600182019050919050565b7f4e487b7100000000000000000000000000000000000000000000000000000000600052601160045260246000fd5b7f4e487b7100000000000000000000000000000000000000000000000000000000600052601260045260246000fd5b7f4e487b7100000000000000000000000000000000000000000000000000000000600052602260045260246000fd5b7f4e487b7100000000000000000000000000000000000000000000000000000000600052603260045260246000fd5b7f4e487b7100000000000000000000000000000000000000000000000000000000600052604160045260246000fd5b60006200486c8254620046d1565b9050919050565b600080fd5b600080fd5b600080fd5b600080fd5b600080fd5b6000601f19601f8301169050919050565b60008160001c9050919050565b7f4f776e61626c653a206e6577206f776e657220697320746865207a65726f206160008201527f6464726573730000000000000000000000000000000000000000000000000000602082015250565b7f496e737566666963656e742066756e647320666f72207374616b696e67000000600082015250565b7f596f75206861766520616c7265616479206a6f696e65642074686973206c656160008201527f6775650000000000000000000000000000000000000000000000000000000000602082015250565b7f55736572206973206e6f742077686974656c6973746564203a28000000000000600082015250565b7f596f75206172652073657474696e6720616e206174686c65746520696e20746860008201527f652077726f6e6720706f736974696f6e21000000000000000000000000000000602082015250565b7f6c696e657570206973206c6f636b656420666f7220746865207765656b210000600082015250565b7f496e697469616c697a61626c653a20636f6e747261637420697320616c72656160008201527f647920696e697469616c697a6564000000000000000000000000000000000000602082015250565b7f4f776e61626c653a2063616c6c6572206973206e6f7420746865206f776e6572600082015250565b7f43616c6c6572206973206e6f74207468652061646d696e000000000000000000600082015250565b7f43616c6c6572206973206e6f74205465616d4469666600000000000000000000600082015250565b7f55736572206973206e6f7420696e204c65616775652e00000000000000000000600082015250565b7f4e6f626f64792063616e20656e7465722f6578697420746865206c656167756560008201527f20616e796d6f72652e2054686520736561736f6e20686173207374617274656460208201527f2100000000000000000000000000000000000000000000000000000000000000604082015250565b7f43616c6c657220646f6573206e6f74206f776e20676976656e206174686c657460008201527f6549647300000000000000000000000000000000000000000000000000000000602082015250565b7f5265656e7472616e637947756172643a207265656e7472616e742063616c6c00600082015250565b7f4c656167756520456e74727920697320436c6f73656421000000000000000000600082015250565b62004c26816200459c565b811462004c3257600080fd5b50565b62004c4081620045b0565b811462004c4c57600080fd5b50565b62004c5a81620045dc565b811462004c6657600080fd5b5056fe608060405234801561001057600080fd5b5061002d61002261003260201b60201c565b61003a60201b60201c565b6100fe565b600033905090565b60008060009054906101000a900473ffffffffffffffffffffffffffffffffffffffff169050816000806101000a81548173ffffffffffffffffffffffffffffffffffffffff021916908373ffffffffffffffffffffffffffffffffffffffff1602179055508173ffffffffffffffffffffffffffffffffffffffff168173ffffffffffffffffffffffffffffffffffffffff167f8be0079c531659141344cd1fd0a4f28419497f9722a3daafe3b4186f6b6457e060405160405180910390a35050565b610f4c8061010d6000396000f3fe608060405234801561001057600080fd5b50600436106100a95760003560e01c80638da5cb5b116100715780638da5cb5b146101665780639b19251a14610184578063dc9a1535146101b4578063e2ec6ec3146101d2578063e35a899914610202578063f2fde38b14610232576100a9565b806324953eaa146100ae578063286dd3f5146100de57806344eaa84e1461010e578063715018a61461012c5780637b9417c814610136575b600080fd5b6100c860048036038101906100c39190610ada565b61024e565b6040516100d59190610bb1565b60405180910390f35b6100f860048036038101906100f39190610aad565b61031e565b6040516101059190610bb1565b60405180910390f35b6101166104a1565b6040516101239190610c0c565b60405180910390f35b6101346104ab565b005b610150600480360381019061014b9190610aad565b610533565b60405161015d9190610bb1565b60405180910390f35b61016e6106b4565b60405161017b9190610b96565b60405180910390f35b61019e60048036038101906101999190610aad565b6106dd565b6040516101ab9190610bb1565b60405180910390f35b6101bc6106fd565b6040516101c99190610bb1565b60405180910390f35b6101ec60048036038101906101e79190610ada565b610710565b6040516101f99190610bb1565b60405180910390f35b61021c60048036038101906102179190610aad565b6107e0565b6040516102299190610bb1565b60405180910390f35b61024c60048036038101906102479190610aad565b610836565b005b600061025861092e565b73ffffffffffffffffffffffffffffffffffffffff166102766106b4565b73ffffffffffffffffffffffffffffffffffffffff16146102cc576040517f08c379a00000000000000000000000000000000000000000000000000000000081526004016102c390610bec565b60405180910390fd5b60005b8251811015610318576102fb8382815181106102ee576102ed610e04565b5b602002602001015161031e565b1561030557600191505b808061031090610d8c565b9150506102cf565b50919050565b600061032861092e565b73ffffffffffffffffffffffffffffffffffffffff166103466106b4565b73ffffffffffffffffffffffffffffffffffffffff161461039c576040517f08c379a000000000000000000000000000000000000000000000000000000000815260040161039390610bec565b60405180910390fd5b600160008373ffffffffffffffffffffffffffffffffffffffff1673ffffffffffffffffffffffffffffffffffffffff16815260200190815260200160002060009054906101000a900460ff161561049c576000600160008473ffffffffffffffffffffffffffffffffffffffff1673ffffffffffffffffffffffffffffffffffffffff16815260200190815260200160002060006101000a81548160ff0219169083151502179055507ff1abf01a1043b7c244d128e8595cf0c1d10743b022b03a02dffd8ca3bf729f5a826040516104759190610b96565b60405180910390a16001600260008282546104909190610cdf565b92505081905550600190505b919050565b6000600254905090565b6104b361092e565b73ffffffffffffffffffffffffffffffffffffffff166104d16106b4565b73ffffffffffffffffffffffffffffffffffffffff1614610527576040517f08c379a000000000000000000000000000000000000000000000000000000000815260040161051e90610bec565b60405180910390fd5b6105316000610936565b565b600061053d61092e565b73ffffffffffffffffffffffffffffffffffffffff1661055b6106b4565b73ffffffffffffffffffffffffffffffffffffffff16146105b1576040517f08c379a00000000000000000000000000000000000000000000000000000000081526004016105a890610bec565b60405180910390fd5b600160008373ffffffffffffffffffffffffffffffffffffffff1673ffffffffffffffffffffffffffffffffffffffff16815260200190815260200160002060009054906101000a900460ff166106af5760018060008473ffffffffffffffffffffffffffffffffffffffff1673ffffffffffffffffffffffffffffffffffffffff16815260200190815260200160002060006101000a81548160ff0219169083151502179055507fd1bba68c128cc3f427e5831b3c6f99f480b6efa6b9e80c757768f6124158cc3f826040516106889190610b96565b60405180910390a16001600260008282546106a39190610c89565b92505081905550600190505b919050565b60008060009054906101000a900473ffffffffffffffffffffffffffffffffffffffff16905090565b60016020528060005260406000206000915054906101000a900460ff1681565b600360009054906101000a900460ff1681565b600061071a61092e565b73ffffffffffffffffffffffffffffffffffffffff166107386106b4565b73ffffffffffffffffffffffffffffffffffffffff161461078e576040517f08c379a000000000000000000000000000000000000000000000000000000000815260040161078590610bec565b60405180910390fd5b60005b82518110156107da576107bd8382815181106107b0576107af610e04565b5b6020026020010151610533565b156107c757600191505b80806107d290610d8c565b915050610791565b50919050565b6000600160008373ffffffffffffffffffffffffffffffffffffffff1673ffffffffffffffffffffffffffffffffffffffff16815260200190815260200160002060009054906101000a900460ff169050919050565b61083e61092e565b73ffffffffffffffffffffffffffffffffffffffff1661085c6106b4565b73ffffffffffffffffffffffffffffffffffffffff16146108b2576040517f08c379a00000000000000000000000000000000000000000000000000000000081526004016108a990610bec565b60405180910390fd5b600073ffffffffffffffffffffffffffffffffffffffff168173ffffffffffffffffffffffffffffffffffffffff161415610922576040517f08c379a000000000000000000000000000000000000000000000000000000000815260040161091990610bcc565b60405180910390fd5b61092b81610936565b50565b600033905090565b60008060009054906101000a900473ffffffffffffffffffffffffffffffffffffffff169050816000806101000a81548173ffffffffffffffffffffffffffffffffffffffff021916908373ffffffffffffffffffffffffffffffffffffffff1602179055508173ffffffffffffffffffffffffffffffffffffffff168173ffffffffffffffffffffffffffffffffffffffff167f8be0079c531659141344cd1fd0a4f28419497f9722a3daafe3b4186f6b6457e060405160405180910390a35050565b6000610a0d610a0884610c4c565b610c27565b90508083825260208201905082856020860282011115610a3057610a2f610e67565b5b60005b85811015610a605781610a468882610a6a565b845260208401935060208301925050600181019050610a33565b5050509392505050565b600081359050610a7981610eff565b92915050565b600082601f830112610a9457610a93610e62565b5b8135610aa48482602086016109fa565b91505092915050565b600060208284031215610ac357610ac2610e71565b5b6000610ad184828501610a6a565b91505092915050565b600060208284031215610af057610aef610e71565b5b600082013567ffffffffffffffff811115610b0e57610b0d610e6c565b5b610b1a84828501610a7f565b91505092915050565b610b2c81610d13565b82525050565b610b3b81610d25565b82525050565b6000610b4e602683610c78565b9150610b5982610e87565b604082019050919050565b6000610b71602083610c78565b9150610b7c82610ed6565b602082019050919050565b610b9081610d51565b82525050565b6000602082019050610bab6000830184610b23565b92915050565b6000602082019050610bc66000830184610b32565b92915050565b60006020820190508181036000830152610be581610b41565b9050919050565b60006020820190508181036000830152610c0581610b64565b9050919050565b6000602082019050610c216000830184610b87565b92915050565b6000610c31610c42565b9050610c3d8282610d5b565b919050565b6000604051905090565b600067ffffffffffffffff821115610c6757610c66610e33565b5b602082029050602081019050919050565b600082825260208201905092915050565b6000610c9482610d51565b9150610c9f83610d51565b9250827fffffffffffffffffffffffffffffffffffffffffffffffffffffffffffffffff03821115610cd457610cd3610dd5565b5b828201905092915050565b6000610cea82610d51565b9150610cf583610d51565b925082821015610d0857610d07610dd5565b5b828203905092915050565b6000610d1e82610d31565b9050919050565b60008115159050919050565b600073ffffffffffffffffffffffffffffffffffffffff82169050919050565b6000819050919050565b610d6482610e76565b810181811067ffffffffffffffff82111715610d8357610d82610e33565b5b80604052505050565b6000610d9782610d51565b91507fffffffffffffffffffffffffffffffffffffffffffffffffffffffffffffffff821415610dca57610dc9610dd5565b5b600182019050919050565b7f4e487b7100000000000000000000000000000000000000000000000000000000600052601160045260246000fd5b7f4e487b7100000000000000000000000000000000000000000000000000000000600052603260045260246000fd5b7f4e487b7100000000000000000000000000000000000000000000000000000000600052604160045260246000fd5b600080fd5b600080fd5b600080fd5b600080fd5b6000601f19601f8301169050919050565b7f4f776e61626c653a206e6577206f776e657220697320746865207a65726f206160008201527f6464726573730000000000000000000000000000000000000000000000000000602082015250565b7f4f776e61626c653a2063616c6c6572206973206e6f7420746865206f776e6572600082015250565b610f0881610d13565b8114610f1357600080fd5b5056fea264697066735822122013c44309da17edb16daca538fef0ec10185f0de3a32833486ee12942c2821a9b64736f6c63430008070033a2646970667358221220d36cabf34908433fae26ca67bcab1f9a500ab84fb67e0f18281c4a00703bf33b64736f6c63430008070033",
  "linkReferences": {
    "contracts/MOBALogicLibrary.sol": {
      "MOBALogicLibrary": [
        {
          "length": 20,
          "start": 2837
        },
        {
          "length": 20,
          "start": 3181
        },
        {
          "length": 20,
          "start": 4767
        }
      ]
    }
  },
  "deployedLinkReferences": {
    "contracts/MOBALogicLibrary.sol": {
      "MOBALogicLibrary": [
        {
          "length": 20,
          "start": 2552
        },
        {
          "length": 20,
          "start": 2896
        },
        {
          "length": 20,
          "start": 4482
        }
      ]
    }
  }
}