{
  "_format": "hh-sol-artifact-1",
  "contractName": "LeagueOfLegendsLogic",
  "sourceName": "contracts/LeagueOfLegendsLogic.sol",
  "abi": [
    {
      "anonymous": false,
      "inputs": [
        {
          "indexed": true,
          "internalType": "address",
          "name": "previousOwner",
          "type": "address"
        },
        {
          "indexed": true,
          "internalType": "address",
          "name": "newOwner",
          "type": "address"
        }
      ],
      "name": "OwnershipTransferred",
      "type": "event"
    },
    {
      "anonymous": false,
      "inputs": [
        {
          "indexed": false,
          "internalType": "address",
          "name": "sender",
          "type": "address"
        },
        {
          "indexed": false,
          "internalType": "uint256",
          "name": "amount",
          "type": "uint256"
        }
      ],
      "name": "Staked",
      "type": "event"
    },
    {
      "anonymous": false,
      "inputs": [
        {
          "indexed": false,
          "internalType": "address",
          "name": "addr",
          "type": "address"
        }
      ],
      "name": "WhitelistedAddressAdded",
      "type": "event"
    },
    {
      "anonymous": false,
      "inputs": [
        {
          "indexed": false,
          "internalType": "address",
          "name": "addr",
          "type": "address"
        }
      ],
      "name": "WhitelistedAddressRemoved",
      "type": "event"
    },
    {
      "anonymous": false,
      "inputs": [
        {
          "indexed": false,
          "internalType": "address",
          "name": "winner",
          "type": "address"
        }
      ],
      "name": "leagueEnded",
      "type": "event"
    },
    {
      "anonymous": false,
      "inputs": [
        {
          "indexed": false,
          "internalType": "address",
          "name": "sender",
          "type": "address"
        },
        {
          "indexed": false,
          "internalType": "address",
          "name": "contractAddress",
          "type": "address"
        }
      ],
      "name": "testUSDCDeployed",
      "type": "event"
    },
    {
      "inputs": [
        {
          "internalType": "address",
          "name": "addr",
          "type": "address"
        }
      ],
      "name": "addAddressToWhitelist",
      "outputs": [
        {
          "internalType": "bool",
          "name": "success",
          "type": "bool"
        }
      ],
      "stateMutability": "nonpayable",
      "type": "function"
    },
    {
      "inputs": [
        {
          "internalType": "address[]",
          "name": "addrs",
          "type": "address[]"
        }
      ],
      "name": "addAddressesToWhitelist",
      "outputs": [
        {
          "internalType": "bool",
          "name": "success",
          "type": "bool"
        }
      ],
      "stateMutability": "nonpayable",
      "type": "function"
    },
    {
      "inputs": [
        {
          "internalType": "address",
          "name": "_userToAdd",
          "type": "address"
        }
      ],
      "name": "addUserToWhitelist",
      "outputs": [],
      "stateMutability": "nonpayable",
      "type": "function"
    },
    {
      "inputs": [],
      "name": "admin",
      "outputs": [
        {
          "internalType": "address",
          "name": "",
          "type": "address"
        }
      ],
      "stateMutability": "view",
      "type": "function"
    },
    {
      "inputs": [],
      "name": "currentWeekNum",
      "outputs": [
        {
          "internalType": "uint256",
          "name": "",
          "type": "uint256"
        }
      ],
      "stateMutability": "view",
      "type": "function"
    },
    {
      "inputs": [],
      "name": "evaluateWeek",
      "outputs": [],
      "stateMutability": "nonpayable",
      "type": "function"
    },
    {
      "inputs": [],
      "name": "getAdmin",
      "outputs": [
        {
          "internalType": "address",
          "name": "",
          "type": "address"
        }
      ],
      "stateMutability": "view",
      "type": "function"
    },
    {
      "inputs": [
        {
          "internalType": "address",
          "name": "_user",
          "type": "address"
        }
      ],
      "name": "getLineup",
      "outputs": [
        {
          "internalType": "uint256[]",
          "name": "",
          "type": "uint256[]"
        }
      ],
      "stateMutability": "view",
      "type": "function"
    },
    {
      "inputs": [],
      "name": "getLineupIsLocked",
      "outputs": [
        {
          "internalType": "bool",
          "name": "",
          "type": "bool"
        }
      ],
      "stateMutability": "view",
      "type": "function"
    },
    {
      "inputs": [],
      "name": "getNumWhitelisted",
      "outputs": [
        {
          "internalType": "uint256",
          "name": "",
          "type": "uint256"
        }
      ],
      "stateMutability": "view",
      "type": "function"
    },
    {
      "inputs": [
        {
          "internalType": "uint256",
          "name": "_week",
          "type": "uint256"
        }
      ],
      "name": "getScheduleForWeek",
      "outputs": [
        {
          "components": [
            {
              "internalType": "address[2]",
              "name": "players",
              "type": "address[2]"
            }
          ],
          "internalType": "struct LeagueOfLegendsLogic.Matchup[]",
          "name": "",
          "type": "tuple[]"
        }
      ],
      "stateMutability": "view",
      "type": "function"
    },
    {
      "inputs": [],
      "name": "getUSDCBalance",
      "outputs": [
        {
          "internalType": "uint256",
          "name": "",
          "type": "uint256"
        }
      ],
      "stateMutability": "view",
      "type": "function"
    },
    {
      "inputs": [
        {
          "internalType": "address",
          "name": "_user",
          "type": "address"
        }
      ],
      "name": "getUserIsWhitelisted",
      "outputs": [
        {
          "internalType": "bool",
          "name": "",
          "type": "bool"
        }
      ],
      "stateMutability": "view",
      "type": "function"
    },
    {
      "inputs": [],
      "name": "getUserRecord",
      "outputs": [
        {
          "internalType": "uint256[8]",
          "name": "",
          "type": "uint256[8]"
        }
      ],
      "stateMutability": "view",
      "type": "function"
    },
    {
      "inputs": [],
      "name": "getUserTotalPts",
      "outputs": [
        {
          "internalType": "uint256",
          "name": "",
          "type": "uint256"
        }
      ],
      "stateMutability": "view",
      "type": "function"
    },
    {
      "inputs": [],
      "name": "getUserUSDCBalance",
      "outputs": [
        {
          "internalType": "uint256",
          "name": "",
          "type": "uint256"
        }
      ],
      "stateMutability": "view",
      "type": "function"
    },
    {
      "inputs": [],
      "name": "getUsersLength",
      "outputs": [
        {
          "internalType": "uint256",
          "name": "",
          "type": "uint256"
        }
      ],
      "stateMutability": "view",
      "type": "function"
    },
    {
      "inputs": [
        {
          "internalType": "address",
          "name": "",
          "type": "address"
        }
      ],
      "name": "inLeague",
      "outputs": [
        {
          "internalType": "bool",
          "name": "",
          "type": "bool"
        }
      ],
      "stateMutability": "view",
      "type": "function"
    },
    {
      "inputs": [
        {
          "internalType": "string",
          "name": "_name",
          "type": "string"
        },
        {
          "internalType": "uint256",
          "name": "_stakeAmount",
          "type": "uint256"
        },
        {
          "internalType": "bool",
          "name": "_isPublic",
          "type": "bool"
        },
        {
          "internalType": "address",
          "name": "athletesDataStorageAddress",
          "type": "address"
        },
        {
          "internalType": "address",
          "name": "_admin",
          "type": "address"
        },
        {
          "internalType": "address",
          "name": "_rinkebyUSDCAddress",
          "type": "address"
        },
        {
          "internalType": "address",
          "name": "_testUSDCAddress",
          "type": "address"
        },
        {
          "internalType": "address",
          "name": "_gameItemsContractAddress",
          "type": "address"
        },
        {
          "internalType": "address",
          "name": "_teamDiffAddress",
          "type": "address"
        },
        {
          "internalType": "address",
          "name": "_leagueMakerContractAddress",
          "type": "address"
        }
      ],
      "name": "initialize",
      "outputs": [],
      "stateMutability": "nonpayable",
      "type": "function"
    },
    {
      "inputs": [],
      "name": "isPublic",
      "outputs": [
        {
          "internalType": "bool",
          "name": "",
          "type": "bool"
        }
      ],
      "stateMutability": "view",
      "type": "function"
    },
    {
      "inputs": [],
      "name": "joinLeague",
      "outputs": [],
      "stateMutability": "nonpayable",
      "type": "function"
    },
    {
      "inputs": [],
      "name": "leagueEntryIsClosed",
      "outputs": [
        {
          "internalType": "bool",
          "name": "",
          "type": "bool"
        }
      ],
      "stateMutability": "view",
      "type": "function"
    },
    {
      "inputs": [
        {
          "internalType": "uint256",
          "name": "",
          "type": "uint256"
        }
      ],
      "name": "leagueMembers",
      "outputs": [
        {
          "internalType": "address",
          "name": "",
          "type": "address"
        }
      ],
      "stateMutability": "view",
      "type": "function"
    },
    {
      "inputs": [],
      "name": "leagueName",
      "outputs": [
        {
          "internalType": "string",
          "name": "",
          "type": "string"
        }
      ],
      "stateMutability": "view",
      "type": "function"
    },
    {
      "inputs": [],
      "name": "lineupIsLocked",
      "outputs": [
        {
          "internalType": "bool",
          "name": "",
          "type": "bool"
        }
      ],
      "stateMutability": "view",
      "type": "function"
    },
    {
      "inputs": [],
      "name": "lockLineup",
      "outputs": [],
      "stateMutability": "nonpayable",
      "type": "function"
    },
    {
      "inputs": [],
      "name": "numWeeks",
      "outputs": [
        {
          "internalType": "uint256",
          "name": "",
          "type": "uint256"
        }
      ],
      "stateMutability": "view",
      "type": "function"
    },
    {
      "inputs": [],
      "name": "onLeagueEnd",
      "outputs": [],
      "stateMutability": "nonpayable",
      "type": "function"
    },
    {
      "inputs": [],
      "name": "owner",
      "outputs": [
        {
          "internalType": "address",
          "name": "",
          "type": "address"
        }
      ],
      "stateMutability": "view",
      "type": "function"
    },
    {
      "inputs": [
        {
          "internalType": "address",
          "name": "addr",
          "type": "address"
        }
      ],
      "name": "removeAddressFromWhitelist",
      "outputs": [
        {
          "internalType": "bool",
          "name": "success",
          "type": "bool"
        }
      ],
      "stateMutability": "nonpayable",
      "type": "function"
    },
    {
      "inputs": [
        {
          "internalType": "address[]",
          "name": "addrs",
          "type": "address[]"
        }
      ],
      "name": "removeAddressesFromWhitelist",
      "outputs": [
        {
          "internalType": "bool",
          "name": "success",
          "type": "bool"
        }
      ],
      "stateMutability": "nonpayable",
      "type": "function"
    },
    {
      "inputs": [
        {
          "internalType": "address",
          "name": "_userToRemove",
          "type": "address"
        }
      ],
      "name": "removeFromWhitelist",
      "outputs": [],
      "stateMutability": "nonpayable",
      "type": "function"
    },
    {
      "inputs": [],
      "name": "renounceOwnership",
      "outputs": [],
      "stateMutability": "nonpayable",
      "type": "function"
    },
    {
      "inputs": [],
      "name": "rinkebyUSDCAddress",
      "outputs": [
        {
          "internalType": "address",
          "name": "",
          "type": "address"
        }
      ],
      "stateMutability": "view",
      "type": "function"
    },
    {
      "inputs": [],
      "name": "setLeagueEntryIsClosed",
      "outputs": [],
      "stateMutability": "nonpayable",
      "type": "function"
    },
    {
      "inputs": [],
      "name": "setLeagueSchedule",
      "outputs": [],
      "stateMutability": "nonpayable",
      "type": "function"
    },
    {
      "inputs": [
        {
          "internalType": "uint256[]",
          "name": "athleteIds",
          "type": "uint256[]"
        }
      ],
      "name": "setLineup",
      "outputs": [],
      "stateMutability": "nonpayable",
      "type": "function"
    },
    {
      "inputs": [],
      "name": "stakeAmount",
      "outputs": [
        {
          "internalType": "uint256",
          "name": "",
          "type": "uint256"
        }
      ],
      "stateMutability": "view",
      "type": "function"
    },
    {
      "inputs": [],
      "name": "teamDiffAddress",
      "outputs": [
        {
          "internalType": "address",
          "name": "",
          "type": "address"
        }
      ],
      "stateMutability": "view",
      "type": "function"
    },
    {
      "inputs": [],
      "name": "testUSDC",
      "outputs": [
        {
          "internalType": "contract IERC20",
          "name": "",
          "type": "address"
        }
      ],
      "stateMutability": "view",
      "type": "function"
    },
    {
      "inputs": [
        {
          "internalType": "address",
          "name": "newOwner",
          "type": "address"
        }
      ],
      "name": "transferOwnership",
      "outputs": [],
      "stateMutability": "nonpayable",
      "type": "function"
    },
    {
      "inputs": [],
      "name": "unlockLineup",
      "outputs": [],
      "stateMutability": "nonpayable",
      "type": "function"
    },
    {
      "inputs": [
        {
          "internalType": "address",
          "name": "",
          "type": "address"
        },
        {
          "internalType": "uint256",
          "name": "",
          "type": "uint256"
        }
      ],
      "name": "userToLineup",
      "outputs": [
        {
          "internalType": "uint256",
          "name": "",
          "type": "uint256"
        }
      ],
      "stateMutability": "view",
      "type": "function"
    },
    {
      "inputs": [
        {
          "internalType": "address",
          "name": "",
          "type": "address"
        },
        {
          "internalType": "uint256",
          "name": "",
          "type": "uint256"
        }
      ],
      "name": "userToRecord",
      "outputs": [
        {
          "internalType": "uint256",
          "name": "",
          "type": "uint256"
        }
      ],
      "stateMutability": "view",
      "type": "function"
    },
    {
      "inputs": [
        {
          "internalType": "address",
          "name": "",
          "type": "address"
        }
      ],
      "name": "userToTotalWins",
      "outputs": [
        {
          "internalType": "uint256",
          "name": "",
          "type": "uint256"
        }
      ],
      "stateMutability": "view",
      "type": "function"
    },
    {
      "inputs": [
        {
          "internalType": "address",
          "name": "",
          "type": "address"
        }
      ],
      "name": "whitelist",
      "outputs": [
        {
          "internalType": "bool",
          "name": "",
          "type": "bool"
        }
      ],
      "stateMutability": "view",
      "type": "function"
    }
  ],
  "bytecode": "0x60806040523480156200001157600080fd5b5062000032620000266200004060201b60201c565b6200004860201b60201c565b60016004819055506200010d565b600033905090565b60008060029054906101000a900473ffffffffffffffffffffffffffffffffffffffff16905081600060026101000a81548173ffffffffffffffffffffffffffffffffffffffff021916908373ffffffffffffffffffffffffffffffffffffffff1602179055508173ffffffffffffffffffffffffffffffffffffffff168173ffffffffffffffffffffffffffffffffffffffff167f8be0079c531659141344cd1fd0a4f28419497f9722a3daafe3b4186f6b6457e060405160405180910390a35050565b615c19806200011d6000396000f3fe60806040523480156200001157600080fd5b5060043610620002c75760003560e01c8063747b8050116200017d578063c99fea9411620000e1578063e5f7322f1162000093578063e5f7322f1462000842578063edcbe96c1462000878578063f2fde38b14620008ae578063f612121a14620008ce578063f851a44014620008ee578063f8816045146200091057620002c7565b8063c99fea941462000766578063cff560031462000772578063dc9a153514620007a8578063e2ec6ec314620007ca578063e35a89991462000800578063e4c9066b146200083657620002c7565b80638ab1d681116200013b5780638ab1d68114620006a05780638da5cb5b14620006c05780639122ce6d14620006e25780639b19251a1462000718578063a2bc091a146200074e578063c8be3b5b146200075a57620002c7565b8063747b805014620005fa5780637b9417c8146200061a5780637eed33f11462000650578063841abf6e146200067257806385334ffa146200069457620002c7565b80632d382ee011620002315780635fcc698711620001e35780635fcc6987146200054457806360c7dc4714620005665780636bdc44df14620005885780636cc15ad514620005aa5780636e9960c314620005cc578063715018a614620005ee57620002c7565b80632d382ee014620004665780633c3ae13f146200049c5780633cfd1ccc14620004bc57806344eaa84e14620004de57806352e6e5f31462000500578063595b1a3e146200052257620002c7565b80631d803e00116200028b5780631d803e0014620003745780631dd7f8ca146200038057806324953eaa14620003a2578063267175db14620003d857806327311b32146200040e578063286dd3f5146200043057620002c7565b8062b2476f14620002cc578063022e35e614620002ee5780630635dbcb14620003105780630655465a14620003325780630c6f7959146200033e575b600080fd5b620002d662000932565b604051620002e5919062003e77565b60405180910390f35b620002f862000958565b60405162000307919062003f81565b60405180910390f35b6200031a6200097e565b60405162000329919062003f64565b60405180910390f35b6200033c62000991565b005b6200035c600480360381019062000356919062003617565b62000a9c565b6040516200036b919062004281565b60405180910390f35b6200037e62000ac5565b005b6200038a62000dad565b60405162000399919062003e77565b60405180910390f35b620003c06004803603810190620003ba91906200365e565b62000dd3565b604051620003cf919062003f64565b60405180910390f35b620003f66004803603810190620003f091906200384c565b62000eb4565b60405162000405919062003e77565b60405180910390f35b6200041862000ef4565b60405162000427919062003f64565b60405180910390f35b6200044e6004803603810190620004489190620035e5565b62000f0b565b6040516200045d919062003f64565b60405180910390f35b6200048460048036038101906200047e91906200384c565b6200109a565b60405162000493919062003efe565b60405180910390f35b620004ba6004803603810190620004b4919062003732565b6200118b565b005b620004c662001624565b604051620004d5919062004281565b60405180910390f35b620004e862001733565b604051620004f7919062004281565b60405180910390f35b6200050a6200173d565b60405162000519919062004281565b60405180910390f35b6200052c62001743565b6040516200053b919062004281565b60405180910390f35b6200054e62001750565b6040516200055d919062004281565b60405180910390f35b620005706200185f565b6040516200057f919062004281565b60405180910390f35b6200059262001865565b604051620005a1919062004281565b60405180910390f35b620005b4620018ac565b604051620005c3919062003f64565b60405180910390f35b620005d6620018bf565b604051620005e5919062003e77565b60405180910390f35b620005f8620018e9565b005b620006186004803603810190620006129190620035e5565b6200197a565b005b620006386004803603810190620006329190620035e5565b62001ac4565b60405162000647919062003f64565b60405180910390f35b6200065a62001c51565b60405162000669919062004281565b60405180910390f35b6200067c62001c57565b6040516200068b91906200405f565b60405180910390f35b6200069e62001ced565b005b620006be6004803603810190620006b89190620035e5565b62001ea9565b005b620006ca62002046565b604051620006d9919062003e77565b60405180910390f35b620007006004803603810190620006fa9190620035e5565b6200206f565b6040516200070f919062003f64565b60405180910390f35b620007366004803603810190620007309190620035e5565b6200208f565b60405162000745919062003f64565b60405180910390f35b62000758620020af565b005b620007646200215f565b005b620007706200220f565b005b6200079060048036038101906200078a919062003617565b6200269d565b6040516200079f919062004281565b60405180910390f35b620007b2620026cf565b604051620007c1919062003f64565b60405180910390f35b620007e86004803603810190620007e291906200365e565b620026e2565b604051620007f7919062003f64565b60405180910390f35b6200081e6004803603810190620008189190620035e5565b620027c3565b6040516200082d919062003f64565b60405180910390f35b6200084062002819565b005b6200086060048036038101906200085a9190620035e5565b620028c9565b6040516200086f919062003f40565b60405180910390f35b620008966004803603810190620008909190620035e5565b62002962565b604051620008a5919062004281565b60405180910390f35b620008cc6004803603810190620008c69190620035e5565b6200297a565b005b620008ec6004803603810190620008e69190620036af565b62002a7e565b005b620008f862003009565b60405162000907919062003e77565b60405180910390f35b6200091a6200302f565b60405162000929919062003f22565b60405180910390f35b601260009054906101000a900473ffffffffffffffffffffffffffffffffffffffff1681565b601660009054906101000a900473ffffffffffffffffffffffffffffffffffffffff1681565b600a60159054906101000a900460ff1681565b600a60009054906101000a900473ffffffffffffffffffffffffffffffffffffffff1673ffffffffffffffffffffffffffffffffffffffff163373ffffffffffffffffffffffffffffffffffffffff161462000a24576040517f08c379a000000000000000000000000000000000000000000000000000000000815260040162000a1b90620041b5565b60405180910390fd5b73__$36fdb4e0c2cb91f3ceca5ea81b025328f3$__63d2c232b56011601060065460056040518563ffffffff1660e01b815260040162000a68949392919062003f9e565b60006040518083038186803b15801562000a8157600080fd5b505af415801562000a96573d6000803e3d6000fd5b50505050565b600d602052816000526040600020816008811062000ab957600080fd5b01600091509150505481565b600a60009054906101000a900473ffffffffffffffffffffffffffffffffffffffff1673ffffffffffffffffffffffffffffffffffffffff163373ffffffffffffffffffffffffffffffffffffffff161462000b58576040517f08c379a000000000000000000000000000000000000000000000000000000000815260040162000b4f90620041b5565b60405180910390fd5b600060108054905060075462000b6f919062004490565b90506000601060008154811062000b8b5762000b8a62004743565b5b9060005260206000200160009054906101000a900473ffffffffffffffffffffffffffffffffffffffff1690506000600190505b60108054905081101562000cf057600c60008373ffffffffffffffffffffffffffffffffffffffff1673ffffffffffffffffffffffffffffffffffffffff16815260200190815260200160002054600c60006010848154811062000c285762000c2762004743565b5b9060005260206000200160009054906101000a900473ffffffffffffffffffffffffffffffffffffffff1673ffffffffffffffffffffffffffffffffffffffff1673ffffffffffffffffffffffffffffffffffffffff16815260200190815260200160002054111562000cda576010818154811062000cac5762000cab62004743565b5b9060005260206000200160009054906101000a900473ffffffffffffffffffffffffffffffffffffffff1691505b808062000ce79062004697565b91505062000bbf565b50601660009054906101000a900473ffffffffffffffffffffffffffffffffffffffff1673ffffffffffffffffffffffffffffffffffffffff166323b872dd3083856040518463ffffffff1660e01b815260040162000d529392919062003e94565b602060405180830381600087803b15801562000d6d57600080fd5b505af115801562000d82573d6000803e3d6000fd5b505050506040513d601f19601f8201168201806040525081019062000da8919062003700565b505050565b600a60009054906101000a900473ffffffffffffffffffffffffffffffffffffffff1681565b600062000ddf620030bb565b73ffffffffffffffffffffffffffffffffffffffff1662000dff62002046565b73ffffffffffffffffffffffffffffffffffffffff161462000e58576040517f08c379a000000000000000000000000000000000000000000000000000000000815260040162000e4f9062004171565b60405180910390fd5b60005b825181101562000eae5762000e8d83828151811062000e7f5762000e7e62004743565b5b602002602001015162000f0b565b1562000e9857600191505b808062000ea59062004697565b91505062000e5b565b50919050565b6010818154811062000ec557600080fd5b906000526020600020016000915054906101000a900473ffffffffffffffffffffffffffffffffffffffff1681565b6000600a60159054906101000a900460ff16905090565b600062000f17620030bb565b73ffffffffffffffffffffffffffffffffffffffff1662000f3762002046565b73ffffffffffffffffffffffffffffffffffffffff161462000f90576040517f08c379a000000000000000000000000000000000000000000000000000000000815260040162000f879062004171565b60405180910390fd5b600160008373ffffffffffffffffffffffffffffffffffffffff1673ffffffffffffffffffffffffffffffffffffffff16815260200190815260200160002060009054906101000a900460ff161562001095576000600160008473ffffffffffffffffffffffffffffffffffffffff1673ffffffffffffffffffffffffffffffffffffffff16815260200190815260200160002060006101000a81548160ff0219169083151502179055507ff1abf01a1043b7c244d128e8595cf0c1d10743b022b03a02dffd8ca3bf729f5a826040516200106c919062003e77565b60405180910390a1600160026000828254620010899190620044f1565b92505081905550600190505b919050565b606060116000838152602001908152602001600020805480602002602001604051908101604052809291908181526020016000905b828210156200118057838290600052602060002090600202016040518060200160405290816000820160028060200260405190810160405280929190826002801562001167576020028201915b8160009054906101000a900473ffffffffffffffffffffffffffffffffffffffff1673ffffffffffffffffffffffffffffffffffffffff16815260200190600101908083116200111c575b50505050508152505081526020019060010190620010cf565b505050509050919050565b600060019054906101000a900460ff16620011b55760008054906101000a900460ff1615620011c0565b620011bf620030c3565b5b62001202576040517f08c379a0000000000000000000000000000000000000000000000000000000008152600401620011f9906200414f565b60405180910390fd5b60008060019054906101000a900460ff16159050801562001253576001600060016101000a81548160ff02191690831515021790555060016000806101000a81548160ff0219169083151502179055505b8b8b600591906200126692919062003284565b5060086006819055506001600f60008973ffffffffffffffffffffffffffffffffffffffff1673ffffffffffffffffffffffffffffffffffffffff16815260200190815260200160002060006101000a81548160ff0219169083151502179055506010879080600181540180825580915050600190039060005260206000200160009091909190916101000a81548173ffffffffffffffffffffffffffffffffffffffff021916908373ffffffffffffffffffffffffffffffffffffffff16021790555086600960006101000a81548173ffffffffffffffffffffffffffffffffffffffff021916908373ffffffffffffffffffffffffffffffffffffffff1602179055508960078190555088600360006101000a81548160ff0219169083151502179055506000600a60146101000a81548160ff0219169083151502179055506000600a60156101000a81548160ff02191690831515021790555087601360006101000a81548173ffffffffffffffffffffffffffffffffffffffff021916908373ffffffffffffffffffffffffffffffffffffffff16021790555081601560006101000a81548173ffffffffffffffffffffffffffffffffffffffff021916908373ffffffffffffffffffffffffffffffffffffffff160217905550604051620014529062003315565b604051809103906000f0801580156200146f573d6000803e3d6000fd5b50601460006101000a81548173ffffffffffffffffffffffffffffffffffffffff021916908373ffffffffffffffffffffffffffffffffffffffff16021790555085601260006101000a81548173ffffffffffffffffffffffffffffffffffffffff021916908373ffffffffffffffffffffffffffffffffffffffff16021790555084601660006101000a81548173ffffffffffffffffffffffffffffffffffffffff021916908373ffffffffffffffffffffffffffffffffffffffff16021790555082600a60006101000a81548173ffffffffffffffffffffffffffffffffffffffff021916908373ffffffffffffffffffffffffffffffffffffffff16021790555083601760006101000a81548173ffffffffffffffffffffffffffffffffffffffff021916908373ffffffffffffffffffffffffffffffffffffffff160217905550620015f46040518060400160405280601281526020017f50726f787920696e697469616c697a6564210000000000000000000000000000815250620030d6565b8015620016165760008060016101000a81548160ff0219169083151502179055505b505050505050505050505050565b6000600f60003373ffffffffffffffffffffffffffffffffffffffff1673ffffffffffffffffffffffffffffffffffffffff16815260200190815260200160002060009054906101000a900460ff166200167d57600080fd5b601660009054906101000a900473ffffffffffffffffffffffffffffffffffffffff1673ffffffffffffffffffffffffffffffffffffffff166370a08231306040518263ffffffff1660e01b8152600401620016da919062003e77565b60206040518083038186803b158015620016f357600080fd5b505afa15801562001708573d6000803e3d6000fd5b505050506040513d601f19601f820116820180604052508101906200172e91906200387e565b905090565b6000600254905090565b60085481565b6000601080549050905090565b6000600f60003373ffffffffffffffffffffffffffffffffffffffff1673ffffffffffffffffffffffffffffffffffffffff16815260200190815260200160002060009054906101000a900460ff16620017a957600080fd5b601660009054906101000a900473ffffffffffffffffffffffffffffffffffffffff1673ffffffffffffffffffffffffffffffffffffffff166370a08231336040518263ffffffff1660e01b815260040162001806919062003e77565b60206040518083038186803b1580156200181f57600080fd5b505afa15801562001834573d6000803e3d6000fd5b505050506040513d601f19601f820116820180604052508101906200185a91906200387e565b905090565b60075481565b6000600c60003373ffffffffffffffffffffffffffffffffffffffff1673ffffffffffffffffffffffffffffffffffffffff16815260200190815260200160002054905090565b600a60149054906101000a900460ff1681565b6000600960009054906101000a900473ffffffffffffffffffffffffffffffffffffffff16905090565b620018f3620030bb565b73ffffffffffffffffffffffffffffffffffffffff166200191362002046565b73ffffffffffffffffffffffffffffffffffffffff16146200196c576040517f08c379a0000000000000000000000000000000000000000000000000000000008152600401620019639062004171565b60405180910390fd5b62001978600062003173565b565b600960009054906101000a900473ffffffffffffffffffffffffffffffffffffffff1673ffffffffffffffffffffffffffffffffffffffff163373ffffffffffffffffffffffffffffffffffffffff161462001a0d576040517f08c379a000000000000000000000000000000000000000000000000000000000815260040162001a049062004193565b60405180910390fd5b601460009054906101000a900473ffffffffffffffffffffffffffffffffffffffff1673ffffffffffffffffffffffffffffffffffffffff16637b9417c8826040518263ffffffff1660e01b815260040162001a6a919062003e77565b602060405180830381600087803b15801562001a8557600080fd5b505af115801562001a9a573d6000803e3d6000fd5b505050506040513d601f19601f8201168201806040525081019062001ac0919062003700565b5050565b600062001ad0620030bb565b73ffffffffffffffffffffffffffffffffffffffff1662001af062002046565b73ffffffffffffffffffffffffffffffffffffffff161462001b49576040517f08c379a000000000000000000000000000000000000000000000000000000000815260040162001b409062004171565b60405180910390fd5b600160008373ffffffffffffffffffffffffffffffffffffffff1673ffffffffffffffffffffffffffffffffffffffff16815260200190815260200160002060009054906101000a900460ff1662001c4c5760018060008473ffffffffffffffffffffffffffffffffffffffff1673ffffffffffffffffffffffffffffffffffffffff16815260200190815260200160002060006101000a81548160ff0219169083151502179055507fd1bba68c128cc3f427e5831b3c6f99f480b6efa6b9e80c757768f6124158cc3f8260405162001c23919062003e77565b60405180910390a160016002600082825462001c40919062004433565b92505081905550600190505b919050565b60065481565b6005805462001c66906200462b565b80601f016020809104026020016040519081016040528092919081815260200182805462001c94906200462b565b801562001ce55780601f1062001cb95761010080835404028352916020019162001ce5565b820191906000526020600020905b81548152906001019060200180831162001cc757829003601f168201915b505050505081565b600a60009054906101000a900473ffffffffffffffffffffffffffffffffffffffff1673ffffffffffffffffffffffffffffffffffffffff163373ffffffffffffffffffffffffffffffffffffffff161462001d80576040517f08c379a000000000000000000000000000000000000000000000000000000000815260040162001d7790620041b5565b60405180910390fd5b6002600454141562001dc9576040517f08c379a000000000000000000000000000000000000000000000000000000000815260040162001dc0906200423d565b60405180910390fd5b600260048190555073__$36fdb4e0c2cb91f3ceca5ea81b025328f3$__63c406e2686011600854601360009054906101000a900473ffffffffffffffffffffffffffffffffffffffff16600d600c600e6040518763ffffffff1660e01b815260040162001e3c9695949392919062003ff2565b60006040518083038186803b15801562001e5557600080fd5b505af415801562001e6a573d6000803e3d6000fd5b505050506007600854141562001e855762001e8462000ac5565b5b6008600081548092919062001e9a9062004697565b91905055506001600481905550565b600960009054906101000a900473ffffffffffffffffffffffffffffffffffffffff1673ffffffffffffffffffffffffffffffffffffffff163373ffffffffffffffffffffffffffffffffffffffff161462001f3c576040517f08c379a000000000000000000000000000000000000000000000000000000000815260040162001f339062004193565b60405180910390fd5b600a60149054906101000a900460ff161562001f8f576040517f08c379a000000000000000000000000000000000000000000000000000000000815260040162001f8690620041f9565b60405180910390fd5b601460009054906101000a900473ffffffffffffffffffffffffffffffffffffffff1673ffffffffffffffffffffffffffffffffffffffff1663286dd3f5826040518263ffffffff1660e01b815260040162001fec919062003e77565b602060405180830381600087803b1580156200200757600080fd5b505af11580156200201c573d6000803e3d6000fd5b505050506040513d601f19601f8201168201806040525081019062002042919062003700565b5050565b60008060029054906101000a900473ffffffffffffffffffffffffffffffffffffffff16905090565b600f6020528060005260406000206000915054906101000a900460ff1681565b60016020528060005260406000206000915054906101000a900460ff1681565b600a60009054906101000a900473ffffffffffffffffffffffffffffffffffffffff1673ffffffffffffffffffffffffffffffffffffffff163373ffffffffffffffffffffffffffffffffffffffff161462002142576040517f08c379a00000000000000000000000000000000000000000000000000000000081526004016200213990620041b5565b60405180910390fd5b6000600a60156101000a81548160ff021916908315150217905550565b600a60009054906101000a900473ffffffffffffffffffffffffffffffffffffffff1673ffffffffffffffffffffffffffffffffffffffff163373ffffffffffffffffffffffffffffffffffffffff1614620021f2576040517f08c379a0000000000000000000000000000000000000000000000000000000008152600401620021e990620041b5565b60405180910390fd5b6001600a60156101000a81548160ff021916908315150217905550565b600160003373ffffffffffffffffffffffffffffffffffffffff1673ffffffffffffffffffffffffffffffffffffffff16815260200190815260200160002060009054906101000a900460ff1680620022745750600360009054906101000a900460ff165b620022b6576040517f08c379a0000000000000000000000000000000000000000000000000000000008152600401620022ad90620040e9565b60405180910390fd5b60026004541415620022ff576040517f08c379a0000000000000000000000000000000000000000000000000000000008152600401620022f6906200423d565b60405180910390fd5b6002600481905550600a60149054906101000a900460ff16156200235a576040517f08c379a000000000000000000000000000000000000000000000000000000000815260040162002351906200425f565b60405180910390fd5b600f60003373ffffffffffffffffffffffffffffffffffffffff1673ffffffffffffffffffffffffffffffffffffffff16815260200190815260200160002060009054906101000a900460ff1615620023ea576040517f08c379a0000000000000000000000000000000000000000000000000000000008152600401620023e190620040c7565b60405180910390fd5b600754601660009054906101000a900473ffffffffffffffffffffffffffffffffffffffff1673ffffffffffffffffffffffffffffffffffffffff166370a08231336040518263ffffffff1660e01b81526004016200244a919062003e77565b60206040518083038186803b1580156200246357600080fd5b505afa15801562002478573d6000803e3d6000fd5b505050506040513d601f19601f820116820180604052508101906200249e91906200387e565b11620024e1576040517f08c379a0000000000000000000000000000000000000000000000000000000008152600401620024d890620040a5565b60405180910390fd5b6001600f60003373ffffffffffffffffffffffffffffffffffffffff1673ffffffffffffffffffffffffffffffffffffffff16815260200190815260200160002060006101000a81548160ff0219169083151502179055506010339080600181540180825580915050600190039060005260206000200160009091909190916101000a81548173ffffffffffffffffffffffffffffffffffffffff021916908373ffffffffffffffffffffffffffffffffffffffff160217905550601660009054906101000a900473ffffffffffffffffffffffffffffffffffffffff1673ffffffffffffffffffffffffffffffffffffffff166323b872dd33306007546040518463ffffffff1660e01b8152600401620025ff9392919062003e94565b602060405180830381600087803b1580156200261a57600080fd5b505af11580156200262f573d6000803e3d6000fd5b505050506040513d601f19601f8201168201806040525081019062002655919062003700565b507f9e71bc8eea02a63969f509818f2dafb9254532904319f9dbda79b67bd34a5f3d336007546040516200268b92919062003ed1565b60405180910390a16001600481905550565b600e6020528160005260406000208181548110620026ba57600080fd5b90600052602060002001600091509150505481565b600360009054906101000a900460ff1681565b6000620026ee620030bb565b73ffffffffffffffffffffffffffffffffffffffff166200270e62002046565b73ffffffffffffffffffffffffffffffffffffffff161462002767576040517f08c379a00000000000000000000000000000000000000000000000000000000081526004016200275e9062004171565b60405180910390fd5b60005b8251811015620027bd576200279c8382815181106200278e576200278d62004743565b5b602002602001015162001ac4565b15620027a757600191505b8080620027b49062004697565b9150506200276a565b50919050565b6000600160008373ffffffffffffffffffffffffffffffffffffffff1673ffffffffffffffffffffffffffffffffffffffff16815260200190815260200160002060009054906101000a900460ff169050919050565b600a60009054906101000a900473ffffffffffffffffffffffffffffffffffffffff1673ffffffffffffffffffffffffffffffffffffffff163373ffffffffffffffffffffffffffffffffffffffff1614620028ac576040517f08c379a0000000000000000000000000000000000000000000000000000000008152600401620028a390620041b5565b60405180910390fd5b6001600a60146101000a81548160ff021916908315150217905550565b6060600e60008373ffffffffffffffffffffffffffffffffffffffff1673ffffffffffffffffffffffffffffffffffffffff1681526020019081526020016000208054806020026020016040519081016040528092919081815260200182805480156200295657602002820191906000526020600020905b81548152602001906001019080831162002941575b50505050509050919050565b600c6020528060005260406000206000915090505481565b62002984620030bb565b73ffffffffffffffffffffffffffffffffffffffff16620029a462002046565b73ffffffffffffffffffffffffffffffffffffffff1614620029fd576040517f08c379a0000000000000000000000000000000000000000000000000000000008152600401620029f49062004171565b60405180910390fd5b600073ffffffffffffffffffffffffffffffffffffffff168173ffffffffffffffffffffffffffffffffffffffff16141562002a70576040517f08c379a000000000000000000000000000000000000000000000000000000000815260040162002a679062004083565b60405180910390fd5b62002a7b8162003173565b50565b600a60159054906101000a900460ff161562002ad1576040517f08c379a000000000000000000000000000000000000000000000000000000000815260040162002ac8906200412d565b60405180910390fd5b600f60003373ffffffffffffffffffffffffffffffffffffffff1673ffffffffffffffffffffffffffffffffffffffff16815260200190815260200160002060009054906101000a900460ff1662002b60576040517f08c379a000000000000000000000000000000000000000000000000000000000815260040162002b5790620041d7565b60405180910390fd5b6000601560009054906101000a900473ffffffffffffffffffffffffffffffffffffffff1673ffffffffffffffffffffffffffffffffffffffff166306575c896040518163ffffffff1660e01b815260040160206040518083038186803b15801562002bcb57600080fd5b505afa15801562002be0573d6000803e3d6000fd5b505050506040513d601f19601f8201168201806040525081019062002c0691906200387e565b905060005b600e60003373ffffffffffffffffffffffffffffffffffffffff1673ffffffffffffffffffffffffffffffffffffffff1681526020019081526020016000208054905081101562002d0b57600b6000600e60003373ffffffffffffffffffffffffffffffffffffffff1673ffffffffffffffffffffffffffffffffffffffff168152602001908152602001600020838154811062002cae5762002cad62004743565b5b90600052602060002001548152602001908152602001600020826008811062002cdc5762002cdb62004743565b5b01600081548092919062002cf090620045fc565b9190505550808062002d029062004697565b91505062002c0b565b5060005b825181101562002d8d57600b600084838151811062002d335762002d3262004743565b5b60200260200101518152602001908152602001600020826008811062002d5e5762002d5d62004743565b5b01600081548092919062002d729062004697565b9190505550808062002d849062004697565b91505062002d0f565b5060005b825181101562002ec5576000601760009054906101000a900473ffffffffffffffffffffffffffffffffffffffff1673ffffffffffffffffffffffffffffffffffffffff1662fdd58e3386858151811062002df15762002df062004743565b5b60200260200101516040518363ffffffff1660e01b815260040162002e1892919062003ed1565b60206040518083038186803b15801562002e3157600080fd5b505afa15801562002e46573d6000803e3d6000fd5b505050506040513d601f19601f8201168201806040525081019062002e6c91906200387e565b1162002eaf576040517f08c379a000000000000000000000000000000000000000000000000000000000815260040162002ea6906200421b565b60405180910390fd5b808062002ebc9062004697565b91505062002d91565b5060005b825181101562002fae57600a8162002ee2919062004490565b83828151811062002ef85762002ef762004743565b5b60200260200101511015801562002f5657506001600a60018362002f1d919062004433565b62002f29919062004490565b62002f359190620044f1565b83828151811062002f4b5762002f4a62004743565b5b602002602001015111155b62002f98576040517f08c379a000000000000000000000000000000000000000000000000000000000815260040162002f8f906200410b565b60405180910390fd5b808062002fa59062004697565b91505062002ec9565b5081600e60003373ffffffffffffffffffffffffffffffffffffffff1673ffffffffffffffffffffffffffffffffffffffff16815260200190815260200160002090805190602001906200300492919062003323565b505050565b600960009054906101000a900473ffffffffffffffffffffffffffffffffffffffff1681565b6200303962003375565b600d60003373ffffffffffffffffffffffffffffffffffffffff1673ffffffffffffffffffffffffffffffffffffffff168152602001908152602001600020600880602002604051908101604052809291908260088015620030b1576020028201915b8154815260200190600101908083116200309c575b5050505050905090565b600033905090565b6000620030d03062003238565b15905090565b6200317081604051602401620030ed91906200405f565b6040516020818303038152906040527f41304fac000000000000000000000000000000000000000000000000000000007bffffffffffffffffffffffffffffffffffffffffffffffffffffffff19166020820180517bffffffffffffffffffffffffffffffffffffffffffffffffffffffff83818316178352505050506200325b565b50565b60008060029054906101000a900473ffffffffffffffffffffffffffffffffffffffff16905081600060026101000a81548173ffffffffffffffffffffffffffffffffffffffff021916908373ffffffffffffffffffffffffffffffffffffffff1602179055508173ffffffffffffffffffffffffffffffffffffffff168173ffffffffffffffffffffffffffffffffffffffff167f8be0079c531659141344cd1fd0a4f28419497f9722a3daafe3b4186f6b6457e060405160405180910390a35050565b6000808273ffffffffffffffffffffffffffffffffffffffff163b119050919050565b60008151905060006a636f6e736f6c652e6c6f679050602083016000808483855afa5050505050565b82805462003292906200462b565b90600052602060002090601f016020900481019282620032b6576000855562003302565b82601f10620032d157803560ff191683800117855562003302565b8280016001018555821562003302579182015b8281111562003301578235825591602001919060010190620032e4565b5b50905062003311919062003398565b5090565b6110598062004b8b83390190565b82805482825590600052602060002090810192821562003362579160200282015b828111156200336157825182559160200191906001019062003344565b5b50905062003371919062003398565b5090565b604051806101000160405280600890602082028036833780820191505090505090565b5b80821115620033b357600081600090555060010162003399565b5090565b6000620033ce620033c884620042c7565b6200429e565b90508083825260208201905082856020860282011115620033f457620033f3620047ab565b5b60005b858110156200342857816200340d8882620034ad565b845260208401935060208301925050600181019050620033f7565b5050509392505050565b6000620034496200344384620042f6565b6200429e565b905080838252602082019050828560208602820111156200346f576200346e620047ab565b5b60005b85811015620034a35781620034888882620035b7565b84526020840193506020830192505060018101905062003472565b5050509392505050565b600081359050620034be8162004b3c565b92915050565b600082601f830112620034dc57620034db620047a6565b5b8135620034ee848260208601620033b7565b91505092915050565b600082601f8301126200350f576200350e620047a6565b5b81356200352184826020860162003432565b91505092915050565b6000813590506200353b8162004b56565b92915050565b600081519050620035528162004b56565b92915050565b60008083601f840112620035715762003570620047a6565b5b8235905067ffffffffffffffff811115620035915762003590620047a1565b5b602083019150836001820283011115620035b057620035af620047ab565b5b9250929050565b600081359050620035c88162004b70565b92915050565b600081519050620035df8162004b70565b92915050565b600060208284031215620035fe57620035fd620047b5565b5b60006200360e84828501620034ad565b91505092915050565b60008060408385031215620036315762003630620047b5565b5b60006200364185828601620034ad565b92505060206200365485828601620035b7565b9150509250929050565b600060208284031215620036775762003676620047b5565b5b600082013567ffffffffffffffff811115620036985762003697620047b0565b5b620036a684828501620034c4565b91505092915050565b600060208284031215620036c857620036c7620047b5565b5b600082013567ffffffffffffffff811115620036e957620036e8620047b0565b5b620036f784828501620034f7565b91505092915050565b600060208284031215620037195762003718620047b5565b5b6000620037298482850162003541565b91505092915050565b60008060008060008060008060008060006101408c8e0312156200375b576200375a620047b5565b5b60008c013567ffffffffffffffff8111156200377c576200377b620047b0565b5b6200378a8e828f0162003558565b9b509b505060206200379f8e828f01620035b7565b9950506040620037b28e828f016200352a565b9850506060620037c58e828f01620034ad565b9750506080620037d88e828f01620034ad565b96505060a0620037eb8e828f01620034ad565b95505060c0620037fe8e828f01620034ad565b94505060e0620038118e828f01620034ad565b935050610100620038258e828f01620034ad565b925050610120620038398e828f01620034ad565b9150509295989b509295989b9093969950565b600060208284031215620038655762003864620047b5565b5b60006200387584828501620035b7565b91505092915050565b600060208284031215620038975762003896620047b5565b5b6000620038a784828501620035ce565b91505092915050565b6000620038be8383620038fe565b60208301905092915050565b6000620038d8838362003e26565b60408301905092915050565b6000620038f2838362003e44565b60208301905092915050565b62003909816200452c565b82525050565b6200391a816200452c565b82525050565b6200392b816200436e565b620039378184620043d9565b9250620039448262004325565b8060005b838110156200397b5781516200395f8782620038b0565b96506200396c83620043a5565b92505060018101905062003948565b505050505050565b8082525050565b6000620039978262004379565b620039a38185620043e4565b9350620039b0836200432f565b8060005b83811015620039e7578151620039cb8882620038ca565b9750620039d883620043b2565b925050600181019050620039b4565b5085935050505092915050565b620039ff8162004384565b62003a0b8184620043f5565b925062003a18826200433f565b8060005b8381101562003a4f57815162003a338782620038e4565b965062003a4083620043bf565b92505060018101905062003a1c565b505050505050565b600062003a64826200438f565b62003a70818562004400565b935062003a7d8362004349565b8060005b8381101562003ab457815162003a988882620038e4565b975062003aa583620043cc565b92505060018101905062003a81565b5085935050505092915050565b62003acc8162004540565b82525050565b62003add8162004576565b82525050565b62003aee816200458a565b82525050565b8082525050565b8082525050565b8082525050565b8082525050565b600062003b1d826200439a565b62003b29818562004411565b935062003b3b818560208601620045c6565b62003b4681620047ba565b840191505092915050565b6000815462003b60816200462b565b62003b6c818662004422565b9450600182166000811462003b8a576001811462003b9d5762003bd4565b60ff198316865260208601935062003bd4565b62003ba88562004359565b60005b8381101562003bcc5781548189015260018201915060208101905062003bab565b808801955050505b50505092915050565b600062003bec60268362004411565b915062003bf982620047cb565b604082019050919050565b600062003c13601d8362004411565b915062003c20826200481a565b602082019050919050565b600062003c3a60238362004411565b915062003c478262004843565b604082019050919050565b600062003c61601a8362004411565b915062003c6e8262004892565b602082019050919050565b600062003c8860318362004411565b915062003c9582620048bb565b604082019050919050565b600062003caf601e8362004411565b915062003cbc826200490a565b602082019050919050565b600062003cd6602e8362004411565b915062003ce38262004933565b604082019050919050565b600062003cfd60208362004411565b915062003d0a8262004982565b602082019050919050565b600062003d2460178362004411565b915062003d3182620049ab565b602082019050919050565b600062003d4b60168362004411565b915062003d5882620049d4565b602082019050919050565b600062003d7260168362004411565b915062003d7f82620049fd565b602082019050919050565b600062003d9960418362004411565b915062003da68262004a26565b606082019050919050565b600062003dc060248362004411565b915062003dcd8262004a9b565b604082019050919050565b600062003de7601f8362004411565b915062003df48262004aea565b602082019050919050565b600062003e0e60178362004411565b915062003e1b8262004b13565b602082019050919050565b60408201600082015162003e3e600085018262003920565b50505050565b62003e4f816200456c565b82525050565b62003e60816200456c565b82525050565b62003e71816200456c565b82525050565b600060208201905062003e8e60008301846200390f565b92915050565b600060608201905062003eab60008301866200390f565b62003eba60208301856200390f565b62003ec9604083018462003e55565b949350505050565b600060408201905062003ee860008301856200390f565b62003ef7602083018462003e55565b9392505050565b6000602082019050818103600083015262003f1a81846200398a565b905092915050565b60006101008201905062003f3a6000830184620039f4565b92915050565b6000602082019050818103600083015262003f5c818462003a57565b905092915050565b600060208201905062003f7b600083018462003ac1565b92915050565b600060208201905062003f98600083018462003ae3565b92915050565b600060808201905062003fb5600083018762003b09565b62003fc4602083018662003983565b62003fd3604083018562003e66565b818103606083015262003fe7818462003b51565b905095945050505050565b600060c08201905062004009600083018962003b09565b62004018602083018862003e66565b62004027604083018762003ad2565b62004036606083018662003af4565b62004045608083018562003b02565b6200405460a083018462003afb565b979650505050505050565b600060208201905081810360008301526200407b818462003b10565b905092915050565b600060208201905081810360008301526200409e8162003bdd565b9050919050565b60006020820190508181036000830152620040c08162003c04565b9050919050565b60006020820190508181036000830152620040e28162003c2b565b9050919050565b60006020820190508181036000830152620041048162003c52565b9050919050565b60006020820190508181036000830152620041268162003c79565b9050919050565b60006020820190508181036000830152620041488162003ca0565b9050919050565b600060208201905081810360008301526200416a8162003cc7565b9050919050565b600060208201905081810360008301526200418c8162003cee565b9050919050565b60006020820190508181036000830152620041ae8162003d15565b9050919050565b60006020820190508181036000830152620041d08162003d3c565b9050919050565b60006020820190508181036000830152620041f28162003d63565b9050919050565b60006020820190508181036000830152620042148162003d8a565b9050919050565b60006020820190508181036000830152620042368162003db1565b9050919050565b60006020820190508181036000830152620042588162003dd8565b9050919050565b600060208201905081810360008301526200427a8162003dff565b9050919050565b600060208201905062004298600083018462003e55565b92915050565b6000620042aa620042bd565b9050620042b8828262004661565b919050565b6000604051905090565b600067ffffffffffffffff821115620042e557620042e462004772565b5b602082029050602081019050919050565b600067ffffffffffffffff82111562004314576200431362004772565b5b602082029050602081019050919050565b6000819050919050565b6000819050602082019050919050565b6000819050919050565b6000819050602082019050919050565b60008190508160005260206000209050919050565b600060029050919050565b600081519050919050565b600060089050919050565b600081519050919050565b600081519050919050565b6000602082019050919050565b6000602082019050919050565b6000602082019050919050565b6000602082019050919050565b600081905092915050565b600082825260208201905092915050565b600081905092915050565b600082825260208201905092915050565b600082825260208201905092915050565b600082825260208201905092915050565b600062004440826200456c565b91506200444d836200456c565b9250827fffffffffffffffffffffffffffffffffffffffffffffffffffffffffffffffff03821115620044855762004484620046e5565b5b828201905092915050565b60006200449d826200456c565b9150620044aa836200456c565b9250817fffffffffffffffffffffffffffffffffffffffffffffffffffffffffffffffff0483118215151615620044e657620044e5620046e5565b5b828202905092915050565b6000620044fe826200456c565b91506200450b836200456c565b925082821015620045215762004520620046e5565b5b828203905092915050565b600062004539826200454c565b9050919050565b60008115159050919050565b600073ffffffffffffffffffffffffffffffffffffffff82169050919050565b6000819050919050565b600062004583826200459e565b9050919050565b600062004597826200459e565b9050919050565b6000620045ab82620045b2565b9050919050565b6000620045bf826200454c565b9050919050565b60005b83811015620045e6578082015181840152602081019050620045c9565b83811115620045f6576000848401525b50505050565b600062004609826200456c565b9150600082141562004620576200461f620046e5565b5b600182039050919050565b600060028204905060018216806200464457607f821691505b602082108114156200465b576200465a62004714565b5b50919050565b6200466c82620047ba565b810181811067ffffffffffffffff821117156200468e576200468d62004772565b5b80604052505050565b6000620046a4826200456c565b91507fffffffffffffffffffffffffffffffffffffffffffffffffffffffffffffffff821415620046da57620046d9620046e5565b5b600182019050919050565b7f4e487b7100000000000000000000000000000000000000000000000000000000600052601160045260246000fd5b7f4e487b7100000000000000000000000000000000000000000000000000000000600052602260045260246000fd5b7f4e487b7100000000000000000000000000000000000000000000000000000000600052603260045260246000fd5b7f4e487b7100000000000000000000000000000000000000000000000000000000600052604160045260246000fd5b600080fd5b600080fd5b600080fd5b600080fd5b600080fd5b6000601f19601f8301169050919050565b7f4f776e61626c653a206e6577206f776e657220697320746865207a65726f206160008201527f6464726573730000000000000000000000000000000000000000000000000000602082015250565b7f496e737566666963656e742066756e647320666f72207374616b696e67000000600082015250565b7f596f75206861766520616c7265616479206a6f696e65642074686973206c656160008201527f6775650000000000000000000000000000000000000000000000000000000000602082015250565b7f55736572206973206e6f742077686974656c6973746564203a28000000000000600082015250565b7f596f75206172652073657474696e6720616e206174686c65746520696e20746860008201527f652077726f6e6720706f736974696f6e21000000000000000000000000000000602082015250565b7f6c696e657570206973206c6f636b656420666f7220746865207765656b210000600082015250565b7f496e697469616c697a61626c653a20636f6e747261637420697320616c72656160008201527f647920696e697469616c697a6564000000000000000000000000000000000000602082015250565b7f4f776e61626c653a2063616c6c6572206973206e6f7420746865206f776e6572600082015250565b7f43616c6c6572206973206e6f74207468652061646d696e000000000000000000600082015250565b7f43616c6c6572206973206e6f74205465616d4469666600000000000000000000600082015250565b7f55736572206973206e6f7420696e204c65616775652e00000000000000000000600082015250565b7f4e6f626f64792063616e20656e7465722f6578697420746865206c656167756560008201527f20616e796d6f72652e2054686520736561736f6e20686173207374617274656460208201527f2100000000000000000000000000000000000000000000000000000000000000604082015250565b7f43616c6c657220646f6573206e6f74206f776e20676976656e206174686c657460008201527f6549647300000000000000000000000000000000000000000000000000000000602082015250565b7f5265656e7472616e637947756172643a207265656e7472616e742063616c6c00600082015250565b7f4c656167756520456e74727920697320436c6f73656421000000000000000000600082015250565b62004b47816200452c565b811462004b5357600080fd5b50565b62004b618162004540565b811462004b6d57600080fd5b50565b62004b7b816200456c565b811462004b8757600080fd5b5056fe608060405234801561001057600080fd5b5061002d61002261003260201b60201c565b61003a60201b60201c565b6100fe565b600033905090565b60008060009054906101000a900473ffffffffffffffffffffffffffffffffffffffff169050816000806101000a81548173ffffffffffffffffffffffffffffffffffffffff021916908373ffffffffffffffffffffffffffffffffffffffff1602179055508173ffffffffffffffffffffffffffffffffffffffff168173ffffffffffffffffffffffffffffffffffffffff167f8be0079c531659141344cd1fd0a4f28419497f9722a3daafe3b4186f6b6457e060405160405180910390a35050565b610f4c8061010d6000396000f3fe608060405234801561001057600080fd5b50600436106100a95760003560e01c80638da5cb5b116100715780638da5cb5b146101665780639b19251a14610184578063dc9a1535146101b4578063e2ec6ec3146101d2578063e35a899914610202578063f2fde38b14610232576100a9565b806324953eaa146100ae578063286dd3f5146100de57806344eaa84e1461010e578063715018a61461012c5780637b9417c814610136575b600080fd5b6100c860048036038101906100c39190610ada565b61024e565b6040516100d59190610bb1565b60405180910390f35b6100f860048036038101906100f39190610aad565b61031e565b6040516101059190610bb1565b60405180910390f35b6101166104a1565b6040516101239190610c0c565b60405180910390f35b6101346104ab565b005b610150600480360381019061014b9190610aad565b610533565b60405161015d9190610bb1565b60405180910390f35b61016e6106b4565b60405161017b9190610b96565b60405180910390f35b61019e60048036038101906101999190610aad565b6106dd565b6040516101ab9190610bb1565b60405180910390f35b6101bc6106fd565b6040516101c99190610bb1565b60405180910390f35b6101ec60048036038101906101e79190610ada565b610710565b6040516101f99190610bb1565b60405180910390f35b61021c60048036038101906102179190610aad565b6107e0565b6040516102299190610bb1565b60405180910390f35b61024c60048036038101906102479190610aad565b610836565b005b600061025861092e565b73ffffffffffffffffffffffffffffffffffffffff166102766106b4565b73ffffffffffffffffffffffffffffffffffffffff16146102cc576040517f08c379a00000000000000000000000000000000000000000000000000000000081526004016102c390610bec565b60405180910390fd5b60005b8251811015610318576102fb8382815181106102ee576102ed610e04565b5b602002602001015161031e565b1561030557600191505b808061031090610d8c565b9150506102cf565b50919050565b600061032861092e565b73ffffffffffffffffffffffffffffffffffffffff166103466106b4565b73ffffffffffffffffffffffffffffffffffffffff161461039c576040517f08c379a000000000000000000000000000000000000000000000000000000000815260040161039390610bec565b60405180910390fd5b600160008373ffffffffffffffffffffffffffffffffffffffff1673ffffffffffffffffffffffffffffffffffffffff16815260200190815260200160002060009054906101000a900460ff161561049c576000600160008473ffffffffffffffffffffffffffffffffffffffff1673ffffffffffffffffffffffffffffffffffffffff16815260200190815260200160002060006101000a81548160ff0219169083151502179055507ff1abf01a1043b7c244d128e8595cf0c1d10743b022b03a02dffd8ca3bf729f5a826040516104759190610b96565b60405180910390a16001600260008282546104909190610cdf565b92505081905550600190505b919050565b6000600254905090565b6104b361092e565b73ffffffffffffffffffffffffffffffffffffffff166104d16106b4565b73ffffffffffffffffffffffffffffffffffffffff1614610527576040517f08c379a000000000000000000000000000000000000000000000000000000000815260040161051e90610bec565b60405180910390fd5b6105316000610936565b565b600061053d61092e565b73ffffffffffffffffffffffffffffffffffffffff1661055b6106b4565b73ffffffffffffffffffffffffffffffffffffffff16146105b1576040517f08c379a00000000000000000000000000000000000000000000000000000000081526004016105a890610bec565b60405180910390fd5b600160008373ffffffffffffffffffffffffffffffffffffffff1673ffffffffffffffffffffffffffffffffffffffff16815260200190815260200160002060009054906101000a900460ff166106af5760018060008473ffffffffffffffffffffffffffffffffffffffff1673ffffffffffffffffffffffffffffffffffffffff16815260200190815260200160002060006101000a81548160ff0219169083151502179055507fd1bba68c128cc3f427e5831b3c6f99f480b6efa6b9e80c757768f6124158cc3f826040516106889190610b96565b60405180910390a16001600260008282546106a39190610c89565b92505081905550600190505b919050565b60008060009054906101000a900473ffffffffffffffffffffffffffffffffffffffff16905090565b60016020528060005260406000206000915054906101000a900460ff1681565b600360009054906101000a900460ff1681565b600061071a61092e565b73ffffffffffffffffffffffffffffffffffffffff166107386106b4565b73ffffffffffffffffffffffffffffffffffffffff161461078e576040517f08c379a000000000000000000000000000000000000000000000000000000000815260040161078590610bec565b60405180910390fd5b60005b82518110156107da576107bd8382815181106107b0576107af610e04565b5b6020026020010151610533565b156107c757600191505b80806107d290610d8c565b915050610791565b50919050565b6000600160008373ffffffffffffffffffffffffffffffffffffffff1673ffffffffffffffffffffffffffffffffffffffff16815260200190815260200160002060009054906101000a900460ff169050919050565b61083e61092e565b73ffffffffffffffffffffffffffffffffffffffff1661085c6106b4565b73ffffffffffffffffffffffffffffffffffffffff16146108b2576040517f08c379a00000000000000000000000000000000000000000000000000000000081526004016108a990610bec565b60405180910390fd5b600073ffffffffffffffffffffffffffffffffffffffff168173ffffffffffffffffffffffffffffffffffffffff161415610922576040517f08c379a000000000000000000000000000000000000000000000000000000000815260040161091990610bcc565b60405180910390fd5b61092b81610936565b50565b600033905090565b60008060009054906101000a900473ffffffffffffffffffffffffffffffffffffffff169050816000806101000a81548173ffffffffffffffffffffffffffffffffffffffff021916908373ffffffffffffffffffffffffffffffffffffffff1602179055508173ffffffffffffffffffffffffffffffffffffffff168173ffffffffffffffffffffffffffffffffffffffff167f8be0079c531659141344cd1fd0a4f28419497f9722a3daafe3b4186f6b6457e060405160405180910390a35050565b6000610a0d610a0884610c4c565b610c27565b90508083825260208201905082856020860282011115610a3057610a2f610e67565b5b60005b85811015610a605781610a468882610a6a565b845260208401935060208301925050600181019050610a33565b5050509392505050565b600081359050610a7981610eff565b92915050565b600082601f830112610a9457610a93610e62565b5b8135610aa48482602086016109fa565b91505092915050565b600060208284031215610ac357610ac2610e71565b5b6000610ad184828501610a6a565b91505092915050565b600060208284031215610af057610aef610e71565b5b600082013567ffffffffffffffff811115610b0e57610b0d610e6c565b5b610b1a84828501610a7f565b91505092915050565b610b2c81610d13565b82525050565b610b3b81610d25565b82525050565b6000610b4e602683610c78565b9150610b5982610e87565b604082019050919050565b6000610b71602083610c78565b9150610b7c82610ed6565b602082019050919050565b610b9081610d51565b82525050565b6000602082019050610bab6000830184610b23565b92915050565b6000602082019050610bc66000830184610b32565b92915050565b60006020820190508181036000830152610be581610b41565b9050919050565b60006020820190508181036000830152610c0581610b64565b9050919050565b6000602082019050610c216000830184610b87565b92915050565b6000610c31610c42565b9050610c3d8282610d5b565b919050565b6000604051905090565b600067ffffffffffffffff821115610c6757610c66610e33565b5b602082029050602081019050919050565b600082825260208201905092915050565b6000610c9482610d51565b9150610c9f83610d51565b9250827fffffffffffffffffffffffffffffffffffffffffffffffffffffffffffffffff03821115610cd457610cd3610dd5565b5b828201905092915050565b6000610cea82610d51565b9150610cf583610d51565b925082821015610d0857610d07610dd5565b5b828203905092915050565b6000610d1e82610d31565b9050919050565b60008115159050919050565b600073ffffffffffffffffffffffffffffffffffffffff82169050919050565b6000819050919050565b610d6482610e76565b810181811067ffffffffffffffff82111715610d8357610d82610e33565b5b80604052505050565b6000610d9782610d51565b91507fffffffffffffffffffffffffffffffffffffffffffffffffffffffffffffffff821415610dca57610dc9610dd5565b5b600182019050919050565b7f4e487b7100000000000000000000000000000000000000000000000000000000600052601160045260246000fd5b7f4e487b7100000000000000000000000000000000000000000000000000000000600052603260045260246000fd5b7f4e487b7100000000000000000000000000000000000000000000000000000000600052604160045260246000fd5b600080fd5b600080fd5b600080fd5b600080fd5b6000601f19601f8301169050919050565b7f4f776e61626c653a206e6577206f776e657220697320746865207a65726f206160008201527f6464726573730000000000000000000000000000000000000000000000000000602082015250565b7f4f776e61626c653a2063616c6c6572206973206e6f7420746865206f776e6572600082015250565b610f0881610d13565b8114610f1357600080fd5b5056fea264697066735822122013c44309da17edb16daca538fef0ec10185f0de3a32833486ee12942c2821a9b64736f6c63430008070033a26469706673582212200deaad50eb2bc8c086121f9bb81894c3da2cd71a7fac05b7c4776fc5ae2782c664736f6c63430008070033",
  "linkReferences": {
    "contracts/MOBALogicLibrary.sol": {
      "MOBALogicLibrary": [
        {
          "length": 20,
          "start": 2883
        },
        {
          "length": 20,
          "start": 7920
        }
      ]
    }
  },
  "deployedLinkReferences": {
    "contracts/MOBALogicLibrary.sol": {
      "MOBALogicLibrary": [
        {
          "length": 20,
          "start": 2598
        },
        {
          "length": 20,
          "start": 7635
        }
      ]
    }
  }
}