{
  "_format": "hh-sol-artifact-1",
  "contractName": "LeagueOfLegendsLogic",
  "sourceName": "contracts/LeagueOfLegendsLogic.sol",
  "abi": [
    {
      "anonymous": false,
      "inputs": [
        {
          "indexed": true,
          "internalType": "address",
          "name": "previousOwner",
          "type": "address"
        },
        {
          "indexed": true,
          "internalType": "address",
          "name": "newOwner",
          "type": "address"
        }
      ],
      "name": "OwnershipTransferred",
      "type": "event"
    },
    {
      "anonymous": false,
      "inputs": [
        {
          "indexed": true,
          "internalType": "bytes32",
          "name": "role",
          "type": "bytes32"
        },
        {
          "indexed": true,
          "internalType": "bytes32",
          "name": "previousAdminRole",
          "type": "bytes32"
        },
        {
          "indexed": true,
          "internalType": "bytes32",
          "name": "newAdminRole",
          "type": "bytes32"
        }
      ],
      "name": "RoleAdminChanged",
      "type": "event"
    },
    {
      "anonymous": false,
      "inputs": [
        {
          "indexed": true,
          "internalType": "bytes32",
          "name": "role",
          "type": "bytes32"
        },
        {
          "indexed": true,
          "internalType": "address",
          "name": "account",
          "type": "address"
        },
        {
          "indexed": true,
          "internalType": "address",
          "name": "sender",
          "type": "address"
        }
      ],
      "name": "RoleGranted",
      "type": "event"
    },
    {
      "anonymous": false,
      "inputs": [
        {
          "indexed": true,
          "internalType": "bytes32",
          "name": "role",
          "type": "bytes32"
        },
        {
          "indexed": true,
          "internalType": "address",
          "name": "account",
          "type": "address"
        },
        {
          "indexed": true,
          "internalType": "address",
          "name": "sender",
          "type": "address"
        }
      ],
      "name": "RoleRevoked",
      "type": "event"
    },
    {
      "anonymous": false,
      "inputs": [
        {
          "indexed": false,
          "internalType": "address",
          "name": "sender",
          "type": "address"
        },
        {
          "indexed": false,
          "internalType": "uint256",
          "name": "amount",
          "type": "uint256"
        }
      ],
      "name": "Staked",
      "type": "event"
    },
    {
      "anonymous": false,
      "inputs": [
        {
          "indexed": false,
          "internalType": "address",
          "name": "addr",
          "type": "address"
        }
      ],
      "name": "WhitelistedAddressAdded",
      "type": "event"
    },
    {
      "anonymous": false,
      "inputs": [
        {
          "indexed": false,
          "internalType": "address",
          "name": "addr",
          "type": "address"
        }
      ],
      "name": "WhitelistedAddressRemoved",
      "type": "event"
    },
    {
      "anonymous": false,
      "inputs": [
        {
          "indexed": false,
          "internalType": "address",
          "name": "sender",
          "type": "address"
        },
        {
          "indexed": false,
          "internalType": "address",
          "name": "contractAddress",
          "type": "address"
        }
      ],
      "name": "testUSDCDeployed",
      "type": "event"
    },
    {
      "inputs": [],
      "name": "DEFAULT_ADMIN_ROLE",
      "outputs": [
        {
          "internalType": "bytes32",
          "name": "",
          "type": "bytes32"
        }
      ],
      "stateMutability": "view",
      "type": "function"
    },
    {
      "inputs": [
        {
          "internalType": "address",
          "name": "addr",
          "type": "address"
        }
      ],
      "name": "addAddressToWhitelist",
      "outputs": [
        {
          "internalType": "bool",
          "name": "success",
          "type": "bool"
        }
      ],
      "stateMutability": "nonpayable",
      "type": "function"
    },
    {
      "inputs": [
        {
          "internalType": "address[]",
          "name": "addrs",
          "type": "address[]"
        }
      ],
      "name": "addAddressesToWhitelist",
      "outputs": [
        {
          "internalType": "bool",
          "name": "success",
          "type": "bool"
        }
      ],
      "stateMutability": "nonpayable",
      "type": "function"
    },
    {
      "inputs": [
        {
          "internalType": "address",
          "name": "user",
          "type": "address"
        }
      ],
      "name": "addUserToLeague",
      "outputs": [],
      "stateMutability": "nonpayable",
      "type": "function"
    },
    {
      "inputs": [],
      "name": "addUserToWhitelist",
      "outputs": [],
      "stateMutability": "nonpayable",
      "type": "function"
    },
    {
      "inputs": [],
      "name": "currentWeekNum",
      "outputs": [
        {
          "internalType": "uint256",
          "name": "",
          "type": "uint256"
        }
      ],
      "stateMutability": "view",
      "type": "function"
    },
    {
      "inputs": [
        {
          "internalType": "uint256",
          "name": "currentWeekNum",
          "type": "uint256"
        }
      ],
      "name": "evaluateWeek",
      "outputs": [],
      "stateMutability": "nonpayable",
      "type": "function"
    },
    {
      "inputs": [],
      "name": "getLeagueName",
      "outputs": [
        {
          "internalType": "string",
          "name": "",
          "type": "string"
        }
      ],
      "stateMutability": "view",
      "type": "function"
    },
    {
      "inputs": [],
      "name": "getLineup",
      "outputs": [
        {
          "internalType": "uint256[]",
          "name": "",
          "type": "uint256[]"
        }
      ],
      "stateMutability": "view",
      "type": "function"
    },
    {
      "inputs": [
        {
          "internalType": "bytes32",
          "name": "role",
          "type": "bytes32"
        }
      ],
      "name": "getRoleAdmin",
      "outputs": [
        {
          "internalType": "bytes32",
          "name": "",
          "type": "bytes32"
        }
      ],
      "stateMutability": "view",
      "type": "function"
    },
    {
      "inputs": [],
      "name": "getStakeAmount",
      "outputs": [
        {
          "internalType": "uint256",
          "name": "stakeAmount",
          "type": "uint256"
        }
      ],
      "stateMutability": "pure",
      "type": "function"
    },
    {
      "inputs": [],
      "name": "getTestUSDCAddress",
      "outputs": [
        {
          "internalType": "address",
          "name": "",
          "type": "address"
        }
      ],
      "stateMutability": "view",
      "type": "function"
    },
    {
      "inputs": [],
      "name": "getTotalPrizePot",
      "outputs": [
        {
          "internalType": "uint256",
          "name": "",
          "type": "uint256"
        }
      ],
      "stateMutability": "view",
      "type": "function"
    },
    {
      "inputs": [],
      "name": "getUSDCBalance",
      "outputs": [
        {
          "internalType": "uint256",
          "name": "",
          "type": "uint256"
        }
      ],
      "stateMutability": "view",
      "type": "function"
    },
    {
      "inputs": [],
      "name": "getUserRecord",
      "outputs": [
        {
          "internalType": "uint256[8]",
          "name": "",
          "type": "uint256[8]"
        }
      ],
      "stateMutability": "view",
      "type": "function"
    },
    {
      "inputs": [],
      "name": "getUserUSDCBalance",
      "outputs": [
        {
          "internalType": "uint256",
          "name": "",
          "type": "uint256"
        }
      ],
      "stateMutability": "view",
      "type": "function"
    },
    {
      "inputs": [],
      "name": "getUserWeeklypts",
      "outputs": [
        {
          "internalType": "uint256[8]",
          "name": "",
          "type": "uint256[8]"
        }
      ],
      "stateMutability": "view",
      "type": "function"
    },
    {
      "inputs": [],
      "name": "getUsersLength",
      "outputs": [
        {
          "internalType": "uint256",
          "name": "",
          "type": "uint256"
        }
      ],
      "stateMutability": "view",
      "type": "function"
    },
    {
      "inputs": [
        {
          "internalType": "bytes32",
          "name": "role",
          "type": "bytes32"
        },
        {
          "internalType": "address",
          "name": "account",
          "type": "address"
        }
      ],
      "name": "grantRole",
      "outputs": [],
      "stateMutability": "nonpayable",
      "type": "function"
    },
    {
      "inputs": [
        {
          "internalType": "bytes32",
          "name": "role",
          "type": "bytes32"
        },
        {
          "internalType": "address",
          "name": "account",
          "type": "address"
        }
      ],
      "name": "hasRole",
      "outputs": [
        {
          "internalType": "bool",
          "name": "",
          "type": "bool"
        }
      ],
      "stateMutability": "view",
      "type": "function"
    },
    {
      "inputs": [],
      "name": "incrementVersion",
      "outputs": [],
      "stateMutability": "nonpayable",
      "type": "function"
    },
    {
      "inputs": [
        {
          "internalType": "string",
          "name": "_name",
          "type": "string"
        },
        {
          "internalType": "uint256",
          "name": "_version",
          "type": "uint256"
        },
        {
          "internalType": "uint256",
          "name": "_stakeAmount",
          "type": "uint256"
        },
        {
          "internalType": "bool",
          "name": "_isPublic",
          "type": "bool"
        },
        {
          "internalType": "address",
          "name": "athletesDataStorageAddress",
          "type": "address"
        },
        {
          "internalType": "address",
          "name": "_admin",
          "type": "address"
        },
        {
          "internalType": "address",
          "name": "_polygonUSDCAddress",
          "type": "address"
        },
        {
          "internalType": "address",
          "name": "_rinkebyUSDCAddress",
          "type": "address"
        },
        {
          "internalType": "address",
          "name": "leagueMakerContractAddress",
          "type": "address"
        },
        {
          "internalType": "address",
          "name": "_testUSDCAddress",
          "type": "address"
        }
      ],
      "name": "initialize",
      "outputs": [],
      "stateMutability": "nonpayable",
      "type": "function"
    },
    {
      "inputs": [],
      "name": "isPublic",
      "outputs": [
        {
          "internalType": "bool",
          "name": "",
          "type": "bool"
        }
      ],
      "stateMutability": "view",
      "type": "function"
    },
    {
      "inputs": [],
      "name": "joinLeague",
      "outputs": [],
      "stateMutability": "nonpayable",
      "type": "function"
    },
    {
      "inputs": [
        {
          "internalType": "uint256",
          "name": "",
          "type": "uint256"
        }
      ],
      "name": "leagueMembers",
      "outputs": [
        {
          "internalType": "address",
          "name": "",
          "type": "address"
        }
      ],
      "stateMutability": "view",
      "type": "function"
    },
    {
      "inputs": [],
      "name": "leagueName",
      "outputs": [
        {
          "internalType": "string",
          "name": "",
          "type": "string"
        }
      ],
      "stateMutability": "view",
      "type": "function"
    },
    {
      "inputs": [],
      "name": "lockLineup",
      "outputs": [],
      "stateMutability": "nonpayable",
      "type": "function"
    },
    {
      "inputs": [],
      "name": "numWeeks",
      "outputs": [
        {
          "internalType": "uint256",
          "name": "",
          "type": "uint256"
        }
      ],
      "stateMutability": "view",
      "type": "function"
    },
    {
      "inputs": [],
      "name": "owner",
      "outputs": [
        {
          "internalType": "address",
          "name": "",
          "type": "address"
        }
      ],
      "stateMutability": "view",
      "type": "function"
    },
    {
      "inputs": [],
      "name": "polygonUSDCAddress",
      "outputs": [
        {
          "internalType": "address",
          "name": "",
          "type": "address"
        }
      ],
      "stateMutability": "view",
      "type": "function"
    },
    {
      "inputs": [
        {
          "internalType": "address",
          "name": "addr",
          "type": "address"
        }
      ],
      "name": "removeAddressFromWhitelist",
      "outputs": [
        {
          "internalType": "bool",
          "name": "success",
          "type": "bool"
        }
      ],
      "stateMutability": "nonpayable",
      "type": "function"
    },
    {
      "inputs": [
        {
          "internalType": "address[]",
          "name": "addrs",
          "type": "address[]"
        }
      ],
      "name": "removeAddressesFromWhitelist",
      "outputs": [
        {
          "internalType": "bool",
          "name": "success",
          "type": "bool"
        }
      ],
      "stateMutability": "nonpayable",
      "type": "function"
    },
    {
      "inputs": [],
      "name": "renounceOwnership",
      "outputs": [],
      "stateMutability": "nonpayable",
      "type": "function"
    },
    {
      "inputs": [
        {
          "internalType": "bytes32",
          "name": "role",
          "type": "bytes32"
        },
        {
          "internalType": "address",
          "name": "account",
          "type": "address"
        }
      ],
      "name": "renounceRole",
      "outputs": [],
      "stateMutability": "nonpayable",
      "type": "function"
    },
    {
      "inputs": [
        {
          "internalType": "bytes32",
          "name": "role",
          "type": "bytes32"
        },
        {
          "internalType": "address",
          "name": "account",
          "type": "address"
        }
      ],
      "name": "revokeRole",
      "outputs": [],
      "stateMutability": "nonpayable",
      "type": "function"
    },
    {
      "inputs": [],
      "name": "rinkebyUSDCAddress",
      "outputs": [
        {
          "internalType": "address",
          "name": "",
          "type": "address"
        }
      ],
      "stateMutability": "view",
      "type": "function"
    },
    {
      "inputs": [],
      "name": "setLeagueEntryIsClosed",
      "outputs": [],
      "stateMutability": "nonpayable",
      "type": "function"
    },
    {
      "inputs": [],
      "name": "setLeagueSchedule",
      "outputs": [],
      "stateMutability": "nonpayable",
      "type": "function"
    },
    {
      "inputs": [
        {
          "internalType": "uint256[]",
          "name": "athleteIds",
          "type": "uint256[]"
        }
      ],
      "name": "setLineup",
      "outputs": [],
      "stateMutability": "nonpayable",
      "type": "function"
    },
    {
      "inputs": [],
      "name": "stakeAmount",
      "outputs": [
        {
          "internalType": "uint256",
          "name": "",
          "type": "uint256"
        }
      ],
      "stateMutability": "view",
      "type": "function"
    },
    {
      "inputs": [
        {
          "internalType": "bytes4",
          "name": "interfaceId",
          "type": "bytes4"
        }
      ],
      "name": "supportsInterface",
      "outputs": [
        {
          "internalType": "bool",
          "name": "",
          "type": "bool"
        }
      ],
      "stateMutability": "view",
      "type": "function"
    },
    {
      "inputs": [
        {
          "internalType": "address",
          "name": "newOwner",
          "type": "address"
        }
      ],
      "name": "transferOwnership",
      "outputs": [],
      "stateMutability": "nonpayable",
      "type": "function"
    },
    {
      "inputs": [],
      "name": "unlockLineup",
      "outputs": [],
      "stateMutability": "nonpayable",
      "type": "function"
    },
    {
      "inputs": [
        {
          "internalType": "address",
          "name": "",
          "type": "address"
        },
        {
          "internalType": "uint256",
          "name": "",
          "type": "uint256"
        }
      ],
      "name": "userToRecord",
      "outputs": [
        {
          "internalType": "uint256",
          "name": "",
          "type": "uint256"
        }
      ],
      "stateMutability": "view",
      "type": "function"
    },
    {
      "inputs": [],
      "name": "version",
      "outputs": [
        {
          "internalType": "uint256",
          "name": "",
          "type": "uint256"
        }
      ],
      "stateMutability": "view",
      "type": "function"
    },
    {
      "inputs": [
        {
          "internalType": "address",
          "name": "",
          "type": "address"
        }
      ],
      "name": "whitelist",
      "outputs": [
        {
          "internalType": "bool",
          "name": "",
          "type": "bool"
        }
      ],
      "stateMutability": "view",
      "type": "function"
    }
  ],
  "bytecode": "0x60806040523480156200001157600080fd5b5062000032620000266200003860201b60201c565b6200004060201b60201c565b62000105565b600033905090565b60008060029054906101000a900473ffffffffffffffffffffffffffffffffffffffff16905081600060026101000a81548173ffffffffffffffffffffffffffffffffffffffff021916908373ffffffffffffffffffffffffffffffffffffffff1602179055508173ffffffffffffffffffffffffffffffffffffffff168173ffffffffffffffffffffffffffffffffffffffff167f8be0079c531659141344cd1fd0a4f28419497f9722a3daafe3b4186f6b6457e060405160405180910390a35050565b614fb380620001156000396000f3fe60806040523480156200001157600080fd5b5060043610620002c75760003560e01c80637ac6aa1d116200017d578063a2bc091a11620000e1578063dc9a15351162000093578063dc9a1535146200082a578063e2ec6ec3146200084c578063e4c9066b1462000882578063f2fde38b146200088e578063f612121a14620008ae578063f881604514620008ce57620002c7565b8063a2bc091a14620007a2578063ada3a28d14620007ae578063c8be3b5b14620007d0578063c99fea9414620007dc578063cdbba4c614620007e8578063d547741f146200080a57620002c7565b806391d14854116200013b57806391d1485414620006b057806393f3706c14620006e657806399a6003414620007085780639b19251a146200072a5780639f2d54811462000760578063a217fddf146200078057620002c7565b80637ac6aa1d14620006085780637b9417c814620006145780637eed33f1146200064a578063841abf6e146200066c5780638da5cb5b146200068e57620002c7565b806336568abe11620002315780635d514d6911620001e35780635d514d6914620005545780635fcc6987146200057457806360c7dc4714620005965780636fd71a1814620005b8578063715018a614620005da578063722580b614620005e657620002c7565b806336568abe146200048a5780633cfd1ccc14620004aa578063403570c514620004cc57806352e6e5f314620004ee57806354fd4d501462000510578063595b1a3e146200053257620002c7565b8063248a9ca3116200028b578063248a9ca3146200038657806324953eaa14620003bc578063267175db14620003f2578063286dd3f514620004285780632cf0a1fc146200045e5780632f2ff15d146200046a57620002c7565b8062b2476f14620002cc57806301ffc9a714620002ee5780630655465a1462000324578063087e18a714620003305780630c6f79591462000350575b600080fd5b620002d6620008f0565b604051620002e59190620035e6565b60405180910390f35b6200030c600480360381019062000306919062003036565b62000916565b6040516200031b9190620036dc565b60405180910390f35b6200032e62000993565b005b6200034e600480360381019062000348919062002e70565b62000a4b565b005b6200036e600480360381019062000368919062002ea2565b62000bcf565b6040516200037d91906200387c565b60405180910390f35b620003a460048036038101906200039e919062002fbd565b62000bf8565b604051620003b39190620036f9565b60405180910390f35b620003da6004803603810190620003d4919062002ee9565b62000c18565b604051620003e99190620036dc565b60405180910390f35b6200041060048036038101906200040a919062003182565b62000d15565b6040516200041f9190620035e6565b60405180910390f35b62000446600480360381019062000440919062002e70565b62000d55565b604051620004559190620036dc565b60405180910390f35b6200046862000ee4565b005b62000488600480360381019062000482919062002fef565b62000f02565b005b620004a86004803603810190620004a2919062002fef565b62000f33565b005b620004b462000fbd565b604051620004c391906200387c565b60405180910390f35b620004d662001075565b604051620004e591906200376a565b60405180910390f35b620004f86200110f565b6040516200050791906200387c565b60405180910390f35b6200051a62001115565b6040516200052991906200387c565b60405180910390f35b6200053c6200111b565b6040516200054b91906200387c565b60405180910390f35b6200057260048036038101906200056c919062003068565b62001128565b005b6200057e6200155a565b6040516200058d91906200387c565b60405180910390f35b620005a062001612565b604051620005af91906200387c565b60405180910390f35b620005c262001618565b604051620005d191906200369a565b60405180910390f35b620005e4620016a4565b005b620005f062001735565b604051620005ff91906200387c565b60405180910390f35b620006126200173a565b005b6200063260048036038101906200062c919062002e70565b620017ad565b604051620006419190620036dc565b60405180910390f35b620006546200193b565b6040516200066391906200387c565b60405180910390f35b6200067662001941565b6040516200068591906200376a565b60405180910390f35b62000698620019d7565b604051620006a79190620035e6565b60405180910390f35b620006ce6004803603810190620006c8919062002fef565b62001a00565b604051620006dd9190620036dc565b60405180910390f35b620006f062001a6b565b604051620006ff9190620035e6565b60405180910390f35b6200071262001a91565b6040516200072191906200387c565b60405180910390f35b62000748600480360381019062000742919062002e70565b62001aad565b604051620007579190620036dc565b60405180910390f35b6200077e600480360381019062000778919062003182565b62001acd565b005b6200078a62001b8c565b604051620007999190620036f9565b60405180910390f35b620007ac62001b93565b005b620007b862001c33565b604051620007c79190620036b8565b60405180910390f35b620007da62001cca565b005b620007e662001d6a565b005b620007f262001f88565b604051620008019190620035e6565b60405180910390f35b62000828600480360381019062000822919062002fef565b62001fb2565b005b6200083462001fe3565b604051620008439190620036dc565b60405180910390f35b6200086a600480360381019062000864919062002ee9565b62001ff6565b604051620008799190620036dc565b60405180910390f35b6200088c620020f3565b005b620008ac6004803603810190620008a6919062002e70565b62002193565b005b620008cc6004803603810190620008c6919062002f3a565b62002297565b005b620008d862002343565b604051620008e791906200369a565b60405180910390f35b601260009054906101000a900473ffffffffffffffffffffffffffffffffffffffff1681565b60007f7965db0b000000000000000000000000000000000000000000000000000000007bffffffffffffffffffffffffffffffffffffffffffffffffffffffff1916827bffffffffffffffffffffffffffffffffffffffffffffffffffffffff191614806200098c57506200098b82620023cf565b5b9050919050565b620009d36040518060400160405280601081526020017f73657474696e67207363686564756c650000000000000000000000000000000081525062002439565b73__$36fdb4e0c2cb91f3ceca5ea81b025328f3$__63d2c232b56010600960075460066040518563ffffffff1660e01b815260040162000a17949392919062003716565b60006040518083038186803b15801562000a3057600080fd5b505af415801562000a45573d6000803e3d6000fd5b50505050565b600d60009054906101000a900460ff161562000a9e576040517f08c379a000000000000000000000000000000000000000000000000000000000815260040162000a959062003838565b60405180910390fd5b6008600980549050101562000ba7576009819080600181540180825580915050600190039060005260206000200160009091909190916101000a81548173ffffffffffffffffffffffffffffffffffffffff021916908373ffffffffffffffffffffffffffffffffffffffff160217905550601560009054906101000a900473ffffffffffffffffffffffffffffffffffffffff1673ffffffffffffffffffffffffffffffffffffffff1663771bd4ce826040518263ffffffff1660e01b815260040162000b6d9190620035e6565b600060405180830381600087803b15801562000b8857600080fd5b505af115801562000b9d573d6000803e3d6000fd5b5050505062000bcc565b62000bcb60405180606001604052806028815260200162004f566028913962002439565b5b50565b600c602052816000526040600020816008811062000bec57600080fd5b01600091509150505481565b600060016000838152602001908152602001600020600101549050919050565b600062000c24620024d6565b73ffffffffffffffffffffffffffffffffffffffff1662000c44620019d7565b73ffffffffffffffffffffffffffffffffffffffff161462000c9d576040517f08c379a000000000000000000000000000000000000000000000000000000000815260040162000c949062003816565b60405180910390fd5b60005b825181101562000d0f5762000cd283828151811062000cc45762000cc362003cc9565b5b602002602001015162000d55565b1562000cf95760016003600082825462000ced919062003a91565b92505081905550600191505b808062000d069062003c1d565b91505062000ca0565b50919050565b6009818154811062000d2657600080fd5b906000526020600020016000915054906101000a900473ffffffffffffffffffffffffffffffffffffffff1681565b600062000d61620024d6565b73ffffffffffffffffffffffffffffffffffffffff1662000d81620019d7565b73ffffffffffffffffffffffffffffffffffffffff161462000dda576040517f08c379a000000000000000000000000000000000000000000000000000000000815260040162000dd19062003816565b60405180910390fd5b600260008373ffffffffffffffffffffffffffffffffffffffff1673ffffffffffffffffffffffffffffffffffffffff16815260200190815260200160002060009054906101000a900460ff161562000edf576000600260008473ffffffffffffffffffffffffffffffffffffffff1673ffffffffffffffffffffffffffffffffffffffff16815260200190815260200160002060006101000a81548160ff0219169083151502179055507ff1abf01a1043b7c244d128e8595cf0c1d10743b022b03a02dffd8ca3bf729f5a8260405162000eb69190620035e6565b60405180910390a160016003600082825462000ed3919062003a91565b92505081905550600190505b919050565b60016005600082825462000ef99190620039d3565b92505081905550565b62000f0d8262000bf8565b62000f228162000f1c620024d6565b620024de565b62000f2e838362002586565b505050565b62000f3d620024d6565b73ffffffffffffffffffffffffffffffffffffffff168173ffffffffffffffffffffffffffffffffffffffff161462000fad576040517f08c379a000000000000000000000000000000000000000000000000000000000815260040162000fa4906200385a565b60405180910390fd5b62000fb982826200266b565b5050565b6000601660009054906101000a900473ffffffffffffffffffffffffffffffffffffffff1673ffffffffffffffffffffffffffffffffffffffff166370a08231306040518263ffffffff1660e01b81526004016200101c9190620035e6565b60206040518083038186803b1580156200103557600080fd5b505afa1580156200104a573d6000803e3d6000fd5b505050506040513d601f19601f82011682018060405250810190620010709190620031b4565b905090565b606060068054620010869062003bb1565b80601f0160208091040260200160405190810160405280929190818152602001828054620010b49062003bb1565b8015620011055780601f10620010d95761010080835404028352916020019162001105565b820191906000526020600020905b815481529060010190602001808311620010e757829003601f168201915b5050505050905090565b60085481565b60055481565b6000600980549050905090565b600060019054906101000a900460ff16620011525760008054906101000a900460ff16156200115d565b6200115c62002752565b5b6200119f576040517f08c379a00000000000000000000000000000000000000000000000000000000081526004016200119690620037f4565b60405180910390fd5b60008060019054906101000a900460ff161590508015620011f0576001600060016101000a81548160ff02191690831515021790555060016000806101000a81548160ff0219169083151502179055505b896005819055508b8b600691906200120a92919062002ae1565b506008600781905550620012226000801b8762002765565b6009869080600181540180825580915050600190039060005260206000200160009091909190916101000a81548173ffffffffffffffffffffffffffffffffffffffff021916908373ffffffffffffffffffffffffffffffffffffffff16021790555088600f8190555087600460006101000a81548160ff0219169083151502179055506000600d60016101000a81548160ff0219169083151502179055506000600d60006101000a81548160ff02191690831515021790555086601360006101000a81548173ffffffffffffffffffffffffffffffffffffffff021916908373ffffffffffffffffffffffffffffffffffffffff16021790555082601560006101000a81548173ffffffffffffffffffffffffffffffffffffffff021916908373ffffffffffffffffffffffffffffffffffffffff1602179055506040516200136c9062002b72565b604051809103906000f08015801562001389573d6000803e3d6000fd5b50601460006101000a81548173ffffffffffffffffffffffffffffffffffffffff021916908373ffffffffffffffffffffffffffffffffffffffff16021790555084601160006101000a81548173ffffffffffffffffffffffffffffffffffffffff021916908373ffffffffffffffffffffffffffffffffffffffff16021790555083601260006101000a81548173ffffffffffffffffffffffffffffffffffffffff021916908373ffffffffffffffffffffffffffffffffffffffff16021790555081601660006101000a81548173ffffffffffffffffffffffffffffffffffffffff021916908373ffffffffffffffffffffffffffffffffffffffff1602179055507f44756d6f38cef104460714064fec701fced7bc24a024e05b508a1c68dca5006e33601660009054906101000a900473ffffffffffffffffffffffffffffffffffffffff16604051620014e292919062003603565b60405180910390a16200152a6040518060400160405280601281526020017f50726f787920696e697469616c697a656421000000000000000000000000000081525062002439565b80156200154c5760008060016101000a81548160ff0219169083151502179055505b505050505050505050505050565b6000601660009054906101000a900473ffffffffffffffffffffffffffffffffffffffff1673ffffffffffffffffffffffffffffffffffffffff166370a08231336040518263ffffffff1660e01b8152600401620015b99190620035e6565b60206040518083038186803b158015620015d257600080fd5b505afa158015620015e7573d6000803e3d6000fd5b505050506040513d601f19601f820116820180604052508101906200160d9190620031b4565b905090565b600f5481565b6200162262002b80565b600c60003373ffffffffffffffffffffffffffffffffffffffff1673ffffffffffffffffffffffffffffffffffffffff1681526020019081526020016000206008806020026040519081016040528092919082600880156200169a576020028201915b81548152602001906001019080831162001685575b5050505050905090565b620016ae620024d6565b73ffffffffffffffffffffffffffffffffffffffff16620016ce620019d7565b73ffffffffffffffffffffffffffffffffffffffff161462001727576040517f08c379a00000000000000000000000000000000000000000000000000000000081526004016200171e9062003816565b60405180910390fd5b62001733600062002775565b565b600090565b620017496000801b3362001a00565b6200175357600080fd5b6001600260003373ffffffffffffffffffffffffffffffffffffffff1673ffffffffffffffffffffffffffffffffffffffff16815260200190815260200160002060006101000a81548160ff021916908315150217905550565b6000620017b9620024d6565b73ffffffffffffffffffffffffffffffffffffffff16620017d9620019d7565b73ffffffffffffffffffffffffffffffffffffffff161462001832576040517f08c379a0000000000000000000000000000000000000000000000000000000008152600401620018299062003816565b60405180910390fd5b600260008373ffffffffffffffffffffffffffffffffffffffff1673ffffffffffffffffffffffffffffffffffffffff16815260200190815260200160002060009054906101000a900460ff1662001936576001600260008473ffffffffffffffffffffffffffffffffffffffff1673ffffffffffffffffffffffffffffffffffffffff16815260200190815260200160002060006101000a81548160ff0219169083151502179055507fd1bba68c128cc3f427e5831b3c6f99f480b6efa6b9e80c757768f6124158cc3f826040516200190d9190620035e6565b60405180910390a16001600360008282546200192a9190620039d3565b92505081905550600190505b919050565b60075481565b60068054620019509062003bb1565b80601f01602080910402602001604051908101604052809291908181526020018280546200197e9062003bb1565b8015620019cf5780601f10620019a357610100808354040283529160200191620019cf565b820191906000526020600020905b815481529060010190602001808311620019b157829003601f168201915b505050505081565b60008060029054906101000a900473ffffffffffffffffffffffffffffffffffffffff16905090565b60006001600084815260200190815260200160002060000160008373ffffffffffffffffffffffffffffffffffffffff1673ffffffffffffffffffffffffffffffffffffffff16815260200190815260200160002060009054906101000a900460ff16905092915050565b601160009054906101000a900473ffffffffffffffffffffffffffffffffffffffff1681565b6000600980549050600f5462001aa8919062003a30565b905090565b60026020528060005260406000206000915054906101000a900460ff1681565b62001ad7620024d6565b73ffffffffffffffffffffffffffffffffffffffff1662001af7620019d7565b73ffffffffffffffffffffffffffffffffffffffff161462001b50576040517f08c379a000000000000000000000000000000000000000000000000000000000815260040162001b479062003816565b60405180910390fd5b60005b601060008381526020019081526020016000208054905081101562001b8857808062001b7f9062003c1d565b91505062001b53565b5050565b6000801b81565b62001b9d620024d6565b73ffffffffffffffffffffffffffffffffffffffff1662001bbd620019d7565b73ffffffffffffffffffffffffffffffffffffffff161462001c16576040517f08c379a000000000000000000000000000000000000000000000000000000000815260040162001c0d9062003816565b60405180910390fd5b6000600d60016101000a81548160ff021916908315150217905550565b6060600e60003373ffffffffffffffffffffffffffffffffffffffff1673ffffffffffffffffffffffffffffffffffffffff16815260200190815260200160002080548060200260200160405190810160405280929190818152602001828054801562001cc057602002820191906000526020600020905b81548152602001906001019080831162001cab575b5050505050905090565b62001cd4620024d6565b73ffffffffffffffffffffffffffffffffffffffff1662001cf4620019d7565b73ffffffffffffffffffffffffffffffffffffffff161462001d4d576040517f08c379a000000000000000000000000000000000000000000000000000000000815260040162001d449062003816565b60405180910390fd5b6001600d60016101000a81548160ff021916908315150217905550565b600260003373ffffffffffffffffffffffffffffffffffffffff1673ffffffffffffffffffffffffffffffffffffffff16815260200190815260200160002060009054906101000a900460ff168062001dcf5750600460009054906101000a900460ff165b62001dd957600080fd5b600d60009054906101000a900460ff161562001e2c576040517f08c379a000000000000000000000000000000000000000000000000000000000815260040162001e239062003838565b60405180910390fd5b6009339080600181540180825580915050600190039060005260206000200160009091909190916101000a81548173ffffffffffffffffffffffffffffffffffffffff021916908373ffffffffffffffffffffffffffffffffffffffff160217905550601660009054906101000a900473ffffffffffffffffffffffffffffffffffffffff1673ffffffffffffffffffffffffffffffffffffffff166323b872dd3330600f546040518463ffffffff1660e01b815260040162001ef29392919062003630565b602060405180830381600087803b15801562001f0d57600080fd5b505af115801562001f22573d6000803e3d6000fd5b505050506040513d601f19601f8201168201806040525081019062001f48919062002f8b565b507f9e71bc8eea02a63969f509818f2dafb9254532904319f9dbda79b67bd34a5f3d33600f5460405162001f7e9291906200366d565b60405180910390a1565b6000601660009054906101000a900473ffffffffffffffffffffffffffffffffffffffff16905090565b62001fbd8262000bf8565b62001fd28162001fcc620024d6565b620024de565b62001fde83836200266b565b505050565b600460009054906101000a900460ff1681565b600062002002620024d6565b73ffffffffffffffffffffffffffffffffffffffff1662002022620019d7565b73ffffffffffffffffffffffffffffffffffffffff16146200207b576040517f08c379a0000000000000000000000000000000000000000000000000000000008152600401620020729062003816565b60405180910390fd5b60005b8251811015620020ed57620020b0838281518110620020a257620020a162003cc9565b5b6020026020010151620017ad565b15620020d757600160036000828254620020cb9190620039d3565b92505081905550600191505b8080620020e49062003c1d565b9150506200207e565b50919050565b620020fd620024d6565b73ffffffffffffffffffffffffffffffffffffffff166200211d620019d7565b73ffffffffffffffffffffffffffffffffffffffff161462002176576040517f08c379a00000000000000000000000000000000000000000000000000000000081526004016200216d9062003816565b60405180910390fd5b6001600d60006101000a81548160ff021916908315150217905550565b6200219d620024d6565b73ffffffffffffffffffffffffffffffffffffffff16620021bd620019d7565b73ffffffffffffffffffffffffffffffffffffffff161462002216576040517f08c379a00000000000000000000000000000000000000000000000000000000081526004016200220d9062003816565b60405180910390fd5b600073ffffffffffffffffffffffffffffffffffffffff168173ffffffffffffffffffffffffffffffffffffffff16141562002289576040517f08c379a00000000000000000000000000000000000000000000000000000000081526004016200228090620037b0565b60405180910390fd5b620022948162002775565b50565b600d60019054906101000a900460ff1615620022ea576040517f08c379a0000000000000000000000000000000000000000000000000000000008152600401620022e190620037d2565b60405180910390fd5b80600e60003373ffffffffffffffffffffffffffffffffffffffff1673ffffffffffffffffffffffffffffffffffffffff16815260200190815260200160002090805190602001906200233f92919062002ba3565b5050565b6200234d62002b80565b600c60003373ffffffffffffffffffffffffffffffffffffffff1673ffffffffffffffffffffffffffffffffffffffff168152602001908152602001600020600880602002604051908101604052809291908260088015620023c5576020028201915b815481526020019060010190808311620023b0575b5050505050905090565b60007f01ffc9a7000000000000000000000000000000000000000000000000000000007bffffffffffffffffffffffffffffffffffffffffffffffffffffffff1916827bffffffffffffffffffffffffffffffffffffffffffffffffffffffff1916149050919050565b620024d3816040516024016200245091906200376a565b6040516020818303038152906040527f41304fac000000000000000000000000000000000000000000000000000000007bffffffffffffffffffffffffffffffffffffffffffffffffffffffff19166020820180517bffffffffffffffffffffffffffffffffffffffffffffffffffffffff83818316178352505050506200283a565b50565b600033905090565b620024ea828262001a00565b6200258257620025128173ffffffffffffffffffffffffffffffffffffffff16601462002863565b620025228360001c602062002863565b60405160200162002535929190620035a4565b6040516020818303038152906040526040517f08c379a00000000000000000000000000000000000000000000000000000000081526004016200257991906200376a565b60405180910390fd5b5050565b62002592828262001a00565b6200266757600180600084815260200190815260200160002060000160008373ffffffffffffffffffffffffffffffffffffffff1673ffffffffffffffffffffffffffffffffffffffff16815260200190815260200160002060006101000a81548160ff0219169083151502179055506200260c620024d6565b73ffffffffffffffffffffffffffffffffffffffff168173ffffffffffffffffffffffffffffffffffffffff16837f2f8788117e7eff1d82e926ec794901d17c78024a50270940304540a733656f0d60405160405180910390a45b5050565b62002677828262001a00565b156200274e5760006001600084815260200190815260200160002060000160008373ffffffffffffffffffffffffffffffffffffffff1673ffffffffffffffffffffffffffffffffffffffff16815260200190815260200160002060006101000a81548160ff021916908315150217905550620026f3620024d6565b73ffffffffffffffffffffffffffffffffffffffff168173ffffffffffffffffffffffffffffffffffffffff16837ff6391f5c32d9c69d2a47ea670b442974b53935d1edc7fd64eb21e047a839171b60405160405180910390a45b5050565b60006200275f3062002abe565b15905090565b62002771828262002586565b5050565b60008060029054906101000a900473ffffffffffffffffffffffffffffffffffffffff16905081600060026101000a81548173ffffffffffffffffffffffffffffffffffffffff021916908373ffffffffffffffffffffffffffffffffffffffff1602179055508173ffffffffffffffffffffffffffffffffffffffff168173ffffffffffffffffffffffffffffffffffffffff167f8be0079c531659141344cd1fd0a4f28419497f9722a3daafe3b4186f6b6457e060405160405180910390a35050565b60008151905060006a636f6e736f6c652e6c6f679050602083016000808483855afa5050505050565b60606000600283600262002878919062003a30565b620028849190620039d3565b67ffffffffffffffff811115620028a0576200289f62003cf8565b5b6040519080825280601f01601f191660200182016040528015620028d35781602001600182028036833780820191505090505b5090507f3000000000000000000000000000000000000000000000000000000000000000816000815181106200290e576200290d62003cc9565b5b60200101907effffffffffffffffffffffffffffffffffffffffffffffffffffffffffffff1916908160001a9053507f78000000000000000000000000000000000000000000000000000000000000008160018151811062002975576200297462003cc9565b5b60200101907effffffffffffffffffffffffffffffffffffffffffffffffffffffffffffff1916908160001a90535060006001846002620029b7919062003a30565b620029c39190620039d3565b90505b600181111562002a6d577f3031323334353637383961626364656600000000000000000000000000000000600f86166010811062002a095762002a0862003cc9565b5b1a60f81b82828151811062002a235762002a2262003cc9565b5b60200101907effffffffffffffffffffffffffffffffffffffffffffffffffffffffffffff1916908160001a905350600485901c94508062002a659062003b82565b9050620029c6565b506000841462002ab4576040517f08c379a000000000000000000000000000000000000000000000000000000000815260040162002aab906200378e565b60405180910390fd5b8091505092915050565b6000808273ffffffffffffffffffffffffffffffffffffffff163b119050919050565b82805462002aef9062003bb1565b90600052602060002090601f01602090048101928262002b13576000855562002b5f565b82601f1062002b2e57803560ff191683800117855562002b5f565b8280016001018555821562002b5f579182015b8281111562002b5e57823582559160200191906001019062002b41565b5b50905062002b6e919062002bf5565b5090565b610f9f8062003fb783390190565b604051806101000160405280600890602082028036833780820191505090505090565b82805482825590600052602060002090810192821562002be2579160200282015b8281111562002be157825182559160200191906001019062002bc4565b5b50905062002bf1919062002bf5565b5090565b5b8082111562002c1057600081600090555060010162002bf6565b5090565b600062002c2b62002c2584620038c2565b62003899565b9050808382526020820190508285602086028201111562002c515762002c5062003d31565b5b60005b8581101562002c85578162002c6a888262002d0a565b84526020840193506020830192505060018101905062002c54565b5050509392505050565b600062002ca662002ca084620038f1565b62003899565b9050808382526020820190508285602086028201111562002ccc5762002ccb62003d31565b5b60005b8581101562002d00578162002ce5888262002e42565b84526020840193506020830192505060018101905062002ccf565b5050509392505050565b60008135905062002d1b8162003f34565b92915050565b600082601f83011262002d395762002d3862003d2c565b5b813562002d4b84826020860162002c14565b91505092915050565b600082601f83011262002d6c5762002d6b62003d2c565b5b813562002d7e84826020860162002c8f565b91505092915050565b60008135905062002d988162003f4e565b92915050565b60008151905062002daf8162003f4e565b92915050565b60008135905062002dc68162003f68565b92915050565b60008135905062002ddd8162003f82565b92915050565b60008083601f84011262002dfc5762002dfb62003d2c565b5b8235905067ffffffffffffffff81111562002e1c5762002e1b62003d27565b5b60208301915083600182028301111562002e3b5762002e3a62003d31565b5b9250929050565b60008135905062002e538162003f9c565b92915050565b60008151905062002e6a8162003f9c565b92915050565b60006020828403121562002e895762002e8862003d3b565b5b600062002e998482850162002d0a565b91505092915050565b6000806040838503121562002ebc5762002ebb62003d3b565b5b600062002ecc8582860162002d0a565b925050602062002edf8582860162002e42565b9150509250929050565b60006020828403121562002f025762002f0162003d3b565b5b600082013567ffffffffffffffff81111562002f235762002f2262003d36565b5b62002f318482850162002d21565b91505092915050565b60006020828403121562002f535762002f5262003d3b565b5b600082013567ffffffffffffffff81111562002f745762002f7362003d36565b5b62002f828482850162002d54565b91505092915050565b60006020828403121562002fa45762002fa362003d3b565b5b600062002fb48482850162002d9e565b91505092915050565b60006020828403121562002fd65762002fd562003d3b565b5b600062002fe68482850162002db5565b91505092915050565b6000806040838503121562003009576200300862003d3b565b5b6000620030198582860162002db5565b92505060206200302c8582860162002d0a565b9150509250929050565b6000602082840312156200304f576200304e62003d3b565b5b60006200305f8482850162002dcc565b91505092915050565b60008060008060008060008060008060006101408c8e03121562003091576200309062003d3b565b5b60008c013567ffffffffffffffff811115620030b257620030b162003d36565b5b620030c08e828f0162002de3565b9b509b50506020620030d58e828f0162002e42565b9950506040620030e88e828f0162002e42565b9850506060620030fb8e828f0162002d87565b97505060806200310e8e828f0162002d0a565b96505060a0620031218e828f0162002d0a565b95505060c0620031348e828f0162002d0a565b94505060e0620031478e828f0162002d0a565b9350506101006200315b8e828f0162002d0a565b9250506101206200316f8e828f0162002d0a565b9150509295989b509295989b9093969950565b6000602082840312156200319b576200319a62003d3b565b5b6000620031ab8482850162002e42565b91505092915050565b600060208284031215620031cd57620031cc62003d3b565b5b6000620031dd8482850162002e59565b91505092915050565b6000620031f4838362003571565b60208301905092915050565b6200320b8162003acc565b82525050565b8082525050565b62003223816200394f565b6200322f81846200398a565b92506200323c8262003920565b8060005b8381101562003273578151620032578782620031e6565b9650620032648362003970565b92505060018101905062003240565b505050505050565b600062003288826200395a565b62003294818562003995565b9350620032a1836200392a565b8060005b83811015620032d8578151620032bc8882620031e6565b9750620032c9836200397d565b925050600181019050620032a5565b5085935050505092915050565b620032f08162003ae0565b82525050565b620033018162003aec565b82525050565b8082525050565b60006200331b8262003965565b620033278185620039a6565b93506200333981856020860162003b4c565b620033448162003d40565b840191505092915050565b60006200335c8262003965565b620033688185620039c8565b93506200337a81856020860162003b4c565b80840191505092915050565b60008154620033958162003bb1565b620033a18186620039b7565b94506001821660008114620033bf5760018114620033d25762003409565b60ff198316865260208601935062003409565b620033dd856200393a565b60005b838110156200340157815481890152600182019150602081019050620033e0565b808801955050505b50505092915050565b600062003421602083620039a6565b91506200342e8262003d51565b602082019050919050565b600062003448602683620039a6565b9150620034558262003d7a565b604082019050919050565b60006200346f601e83620039a6565b91506200347c8262003dc9565b602082019050919050565b600062003496602e83620039a6565b9150620034a38262003df2565b604082019050919050565b6000620034bd602083620039a6565b9150620034ca8262003e41565b602082019050919050565b6000620034e4601783620039c8565b9150620034f18262003e6a565b601782019050919050565b60006200350b601783620039a6565b9150620035188262003e93565b602082019050919050565b600062003532601183620039c8565b91506200353f8262003ebc565b601182019050919050565b600062003559602f83620039a6565b9150620035668262003ee5565b604082019050919050565b6200357c8162003b42565b82525050565b6200358d8162003b42565b82525050565b6200359e8162003b42565b82525050565b6000620035b182620034d5565b9150620035bf82856200334f565b9150620035cc8262003523565b9150620035da82846200334f565b91508190509392505050565b6000602082019050620035fd600083018462003200565b92915050565b60006040820190506200361a600083018562003200565b62003629602083018462003200565b9392505050565b600060608201905062003647600083018662003200565b62003656602083018562003200565b62003665604083018462003582565b949350505050565b600060408201905062003684600083018562003200565b62003693602083018462003582565b9392505050565b600061010082019050620036b2600083018462003218565b92915050565b60006020820190508181036000830152620036d481846200327b565b905092915050565b6000602082019050620036f36000830184620032e5565b92915050565b6000602082019050620037106000830184620032f6565b92915050565b60006080820190506200372d600083018762003307565b6200373c602083018662003211565b6200374b604083018562003593565b81810360608301526200375f818462003386565b905095945050505050565b600060208201905081810360008301526200378681846200330e565b905092915050565b60006020820190508181036000830152620037a98162003412565b9050919050565b60006020820190508181036000830152620037cb8162003439565b9050919050565b60006020820190508181036000830152620037ed8162003460565b9050919050565b600060208201905081810360008301526200380f8162003487565b9050919050565b600060208201905081810360008301526200383181620034ae565b9050919050565b600060208201905081810360008301526200385381620034fc565b9050919050565b6000602082019050818103600083015262003875816200354a565b9050919050565b600060208201905062003893600083018462003582565b92915050565b6000620038a5620038b8565b9050620038b3828262003be7565b919050565b6000604051905090565b600067ffffffffffffffff821115620038e057620038df62003cf8565b5b602082029050602081019050919050565b600067ffffffffffffffff8211156200390f576200390e62003cf8565b5b602082029050602081019050919050565b6000819050919050565b6000819050602082019050919050565b60008190508160005260206000209050919050565b600060089050919050565b600081519050919050565b600081519050919050565b6000602082019050919050565b6000602082019050919050565b600081905092915050565b600082825260208201905092915050565b600082825260208201905092915050565b600082825260208201905092915050565b600081905092915050565b6000620039e08262003b42565b9150620039ed8362003b42565b9250827fffffffffffffffffffffffffffffffffffffffffffffffffffffffffffffffff0382111562003a255762003a2462003c6b565b5b828201905092915050565b600062003a3d8262003b42565b915062003a4a8362003b42565b9250817fffffffffffffffffffffffffffffffffffffffffffffffffffffffffffffffff048311821515161562003a865762003a8562003c6b565b5b828202905092915050565b600062003a9e8262003b42565b915062003aab8362003b42565b92508282101562003ac15762003ac062003c6b565b5b828203905092915050565b600062003ad98262003b22565b9050919050565b60008115159050919050565b6000819050919050565b60007fffffffff0000000000000000000000000000000000000000000000000000000082169050919050565b600073ffffffffffffffffffffffffffffffffffffffff82169050919050565b6000819050919050565b60005b8381101562003b6c57808201518184015260208101905062003b4f565b8381111562003b7c576000848401525b50505050565b600062003b8f8262003b42565b9150600082141562003ba65762003ba562003c6b565b5b600182039050919050565b6000600282049050600182168062003bca57607f821691505b6020821081141562003be15762003be062003c9a565b5b50919050565b62003bf28262003d40565b810181811067ffffffffffffffff8211171562003c145762003c1362003cf8565b5b80604052505050565b600062003c2a8262003b42565b91507fffffffffffffffffffffffffffffffffffffffffffffffffffffffffffffffff82141562003c605762003c5f62003c6b565b5b600182019050919050565b7f4e487b7100000000000000000000000000000000000000000000000000000000600052601160045260246000fd5b7f4e487b7100000000000000000000000000000000000000000000000000000000600052602260045260246000fd5b7f4e487b7100000000000000000000000000000000000000000000000000000000600052603260045260246000fd5b7f4e487b7100000000000000000000000000000000000000000000000000000000600052604160045260246000fd5b600080fd5b600080fd5b600080fd5b600080fd5b600080fd5b6000601f19601f8301169050919050565b7f537472696e67733a20686578206c656e67746820696e73756666696369656e74600082015250565b7f4f776e61626c653a206e6577206f776e657220697320746865207a65726f206160008201527f6464726573730000000000000000000000000000000000000000000000000000602082015250565b7f6c696e657570206973206c6f636b656420666f7220746865207765656b210000600082015250565b7f496e697469616c697a61626c653a20636f6e747261637420697320616c72656160008201527f647920696e697469616c697a6564000000000000000000000000000000000000602082015250565b7f4f776e61626c653a2063616c6c6572206973206e6f7420746865206f776e6572600082015250565b7f416363657373436f6e74726f6c3a206163636f756e7420000000000000000000600082015250565b7f4c656167756520456e74727920697320436c6f73656421000000000000000000600082015250565b7f206973206d697373696e6720726f6c6520000000000000000000000000000000600082015250565b7f416363657373436f6e74726f6c3a2063616e206f6e6c792072656e6f756e636560008201527f20726f6c657320666f722073656c660000000000000000000000000000000000602082015250565b62003f3f8162003acc565b811462003f4b57600080fd5b50565b62003f598162003ae0565b811462003f6557600080fd5b50565b62003f738162003aec565b811462003f7f57600080fd5b50565b62003f8d8162003af6565b811462003f9957600080fd5b50565b62003fa78162003b42565b811462003fb357600080fd5b5056fe608060405234801561001057600080fd5b5061002d61002261003260201b60201c565b61003a60201b60201c565b6100fe565b600033905090565b60008060009054906101000a900473ffffffffffffffffffffffffffffffffffffffff169050816000806101000a81548173ffffffffffffffffffffffffffffffffffffffff021916908373ffffffffffffffffffffffffffffffffffffffff1602179055508173ffffffffffffffffffffffffffffffffffffffff168173ffffffffffffffffffffffffffffffffffffffff167f8be0079c531659141344cd1fd0a4f28419497f9722a3daafe3b4186f6b6457e060405160405180910390a35050565b610e928061010d6000396000f3fe608060405234801561001057600080fd5b50600436106100935760003560e01c80638da5cb5b116100665780638da5cb5b146101325780639b19251a14610150578063dc9a153514610180578063e2ec6ec31461019e578063f2fde38b146101ce57610093565b806324953eaa14610098578063286dd3f5146100c8578063715018a6146100f85780637b9417c814610102575b600080fd5b6100b260048036038101906100ad9190610a4a565b6101ea565b6040516100bf9190610b12565b60405180910390f35b6100e260048036038101906100dd9190610a1d565b6102d4565b6040516100ef9190610b12565b60405180910390f35b610100610457565b005b61011c60048036038101906101179190610a1d565b6104df565b6040516101299190610b12565b60405180910390f35b61013a610660565b6040516101479190610af7565b60405180910390f35b61016a60048036038101906101659190610a1d565b610689565b6040516101779190610b12565b60405180910390f35b6101886106a9565b6040516101959190610b12565b60405180910390f35b6101b860048036038101906101b39190610a4a565b6106bc565b6040516101c59190610b12565b60405180910390f35b6101e860048036038101906101e39190610a1d565b6107a6565b005b60006101f461089e565b73ffffffffffffffffffffffffffffffffffffffff16610212610660565b73ffffffffffffffffffffffffffffffffffffffff1614610268576040517f08c379a000000000000000000000000000000000000000000000000000000000815260040161025f90610b4d565b60405180910390fd5b60005b82518110156102ce5761029783828151811061028a57610289610d4a565b5b60200260200101516102d4565b156102bb576001600260008282546102af9190610c25565b92505081905550600191505b80806102c690610cd2565b91505061026b565b50919050565b60006102de61089e565b73ffffffffffffffffffffffffffffffffffffffff166102fc610660565b73ffffffffffffffffffffffffffffffffffffffff1614610352576040517f08c379a000000000000000000000000000000000000000000000000000000000815260040161034990610b4d565b60405180910390fd5b600160008373ffffffffffffffffffffffffffffffffffffffff1673ffffffffffffffffffffffffffffffffffffffff16815260200190815260200160002060009054906101000a900460ff1615610452576000600160008473ffffffffffffffffffffffffffffffffffffffff1673ffffffffffffffffffffffffffffffffffffffff16815260200190815260200160002060006101000a81548160ff0219169083151502179055507ff1abf01a1043b7c244d128e8595cf0c1d10743b022b03a02dffd8ca3bf729f5a8260405161042b9190610af7565b60405180910390a16001600260008282546104469190610c25565b92505081905550600190505b919050565b61045f61089e565b73ffffffffffffffffffffffffffffffffffffffff1661047d610660565b73ffffffffffffffffffffffffffffffffffffffff16146104d3576040517f08c379a00000000000000000000000000000000000000000000000000000000081526004016104ca90610b4d565b60405180910390fd5b6104dd60006108a6565b565b60006104e961089e565b73ffffffffffffffffffffffffffffffffffffffff16610507610660565b73ffffffffffffffffffffffffffffffffffffffff161461055d576040517f08c379a000000000000000000000000000000000000000000000000000000000815260040161055490610b4d565b60405180910390fd5b600160008373ffffffffffffffffffffffffffffffffffffffff1673ffffffffffffffffffffffffffffffffffffffff16815260200190815260200160002060009054906101000a900460ff1661065b5760018060008473ffffffffffffffffffffffffffffffffffffffff1673ffffffffffffffffffffffffffffffffffffffff16815260200190815260200160002060006101000a81548160ff0219169083151502179055507fd1bba68c128cc3f427e5831b3c6f99f480b6efa6b9e80c757768f6124158cc3f826040516106349190610af7565b60405180910390a160016002600082825461064f9190610bcf565b92505081905550600190505b919050565b60008060009054906101000a900473ffffffffffffffffffffffffffffffffffffffff16905090565b60016020528060005260406000206000915054906101000a900460ff1681565b600360009054906101000a900460ff1681565b60006106c661089e565b73ffffffffffffffffffffffffffffffffffffffff166106e4610660565b73ffffffffffffffffffffffffffffffffffffffff161461073a576040517f08c379a000000000000000000000000000000000000000000000000000000000815260040161073190610b4d565b60405180910390fd5b60005b82518110156107a05761076983828151811061075c5761075b610d4a565b5b60200260200101516104df565b1561078d576001600260008282546107819190610bcf565b92505081905550600191505b808061079890610cd2565b91505061073d565b50919050565b6107ae61089e565b73ffffffffffffffffffffffffffffffffffffffff166107cc610660565b73ffffffffffffffffffffffffffffffffffffffff1614610822576040517f08c379a000000000000000000000000000000000000000000000000000000000815260040161081990610b4d565b60405180910390fd5b600073ffffffffffffffffffffffffffffffffffffffff168173ffffffffffffffffffffffffffffffffffffffff161415610892576040517f08c379a000000000000000000000000000000000000000000000000000000000815260040161088990610b2d565b60405180910390fd5b61089b816108a6565b50565b600033905090565b60008060009054906101000a900473ffffffffffffffffffffffffffffffffffffffff169050816000806101000a81548173ffffffffffffffffffffffffffffffffffffffff021916908373ffffffffffffffffffffffffffffffffffffffff1602179055508173ffffffffffffffffffffffffffffffffffffffff168173ffffffffffffffffffffffffffffffffffffffff167f8be0079c531659141344cd1fd0a4f28419497f9722a3daafe3b4186f6b6457e060405160405180910390a35050565b600061097d61097884610b92565b610b6d565b905080838252602082019050828560208602820111156109a05761099f610dad565b5b60005b858110156109d057816109b688826109da565b8452602084019350602083019250506001810190506109a3565b5050509392505050565b6000813590506109e981610e45565b92915050565b600082601f830112610a0457610a03610da8565b5b8135610a1484826020860161096a565b91505092915050565b600060208284031215610a3357610a32610db7565b5b6000610a41848285016109da565b91505092915050565b600060208284031215610a6057610a5f610db7565b5b600082013567ffffffffffffffff811115610a7e57610a7d610db2565b5b610a8a848285016109ef565b91505092915050565b610a9c81610c59565b82525050565b610aab81610c6b565b82525050565b6000610abe602683610bbe565b9150610ac982610dcd565b604082019050919050565b6000610ae1602083610bbe565b9150610aec82610e1c565b602082019050919050565b6000602082019050610b0c6000830184610a93565b92915050565b6000602082019050610b276000830184610aa2565b92915050565b60006020820190508181036000830152610b4681610ab1565b9050919050565b60006020820190508181036000830152610b6681610ad4565b9050919050565b6000610b77610b88565b9050610b838282610ca1565b919050565b6000604051905090565b600067ffffffffffffffff821115610bad57610bac610d79565b5b602082029050602081019050919050565b600082825260208201905092915050565b6000610bda82610c97565b9150610be583610c97565b9250827fffffffffffffffffffffffffffffffffffffffffffffffffffffffffffffffff03821115610c1a57610c19610d1b565b5b828201905092915050565b6000610c3082610c97565b9150610c3b83610c97565b925082821015610c4e57610c4d610d1b565b5b828203905092915050565b6000610c6482610c77565b9050919050565b60008115159050919050565b600073ffffffffffffffffffffffffffffffffffffffff82169050919050565b6000819050919050565b610caa82610dbc565b810181811067ffffffffffffffff82111715610cc957610cc8610d79565b5b80604052505050565b6000610cdd82610c97565b91507fffffffffffffffffffffffffffffffffffffffffffffffffffffffffffffffff821415610d1057610d0f610d1b565b5b600182019050919050565b7f4e487b7100000000000000000000000000000000000000000000000000000000600052601160045260246000fd5b7f4e487b7100000000000000000000000000000000000000000000000000000000600052603260045260246000fd5b7f4e487b7100000000000000000000000000000000000000000000000000000000600052604160045260246000fd5b600080fd5b600080fd5b600080fd5b600080fd5b6000601f19601f8301169050919050565b7f4f776e61626c653a206e6577206f776e657220697320746865207a65726f206160008201527f6464726573730000000000000000000000000000000000000000000000000000602082015250565b7f4f776e61626c653a2063616c6c6572206973206e6f7420746865206f776e6572600082015250565b610e4e81610c59565b8114610e5957600080fd5b5056fea2646970667358221220a21085165a95bba102b3fe59880e17f3027964706b8a63561e6b8ccd43ba90fb64736f6c63430008070033746f6f206d616e7920757365727320696e206c656167756520746f20616464206e65772075736572a26469706673582212205fd6b3bde706946a88da5964b5de704f7470a96187f4cc13de6eaa454166d6c964736f6c63430008070033",
  "linkReferences": {
    "contracts/MOBALogicLibrary.sol": {
      "MOBALogicLibrary": [
        {
          "length": 20,
          "start": 2794
        }
      ]
    }
  },
  "deployedLinkReferences": {
    "contracts/MOBALogicLibrary.sol": {
      "MOBALogicLibrary": [
        {
          "length": 20,
          "start": 2517
        }
      ]
    }
  }
}