{
  "_format": "hh-sol-artifact-1",
  "contractName": "LeagueOfLegendsLogic",
  "sourceName": "contracts/LeagueOfLegendsLogic.sol",
  "abi": [
    {
      "anonymous": false,
      "inputs": [
        {
          "indexed": false,
          "internalType": "address",
          "name": "sender",
          "type": "address"
        },
        {
          "indexed": false,
          "internalType": "uint256",
          "name": "amount",
          "type": "uint256"
        },
        {
          "indexed": false,
          "internalType": "address",
          "name": "leagueAddress",
          "type": "address"
        }
      ],
      "name": "Staked",
      "type": "event"
    },
    {
      "anonymous": false,
      "inputs": [
        {
          "indexed": false,
          "internalType": "address[]",
          "name": "winner",
          "type": "address[]"
        },
        {
          "indexed": false,
          "internalType": "uint256",
          "name": "prizePotPerWinner",
          "type": "uint256"
        }
      ],
      "name": "leagueEnded",
      "type": "event"
    },
    {
      "anonymous": false,
      "inputs": [
        {
          "indexed": false,
          "internalType": "address",
          "name": "sender",
          "type": "address"
        },
        {
          "indexed": false,
          "internalType": "address",
          "name": "contractAddress",
          "type": "address"
        }
      ],
      "name": "testUSDCDeployed",
      "type": "event"
    },
    {
      "inputs": [
        {
          "internalType": "address",
          "name": "_userToAdd",
          "type": "address"
        }
      ],
      "name": "addUserToWhitelist",
      "outputs": [],
      "stateMutability": "nonpayable",
      "type": "function"
    },
    {
      "inputs": [],
      "name": "admin",
      "outputs": [
        {
          "internalType": "address",
          "name": "",
          "type": "address"
        }
      ],
      "stateMutability": "view",
      "type": "function"
    },
    {
      "inputs": [],
      "name": "currentWeekNum",
      "outputs": [
        {
          "internalType": "uint256",
          "name": "",
          "type": "uint256"
        }
      ],
      "stateMutability": "view",
      "type": "function"
    },
    {
      "inputs": [],
      "name": "evaluateMatches",
      "outputs": [],
      "stateMutability": "nonpayable",
      "type": "function"
    },
    {
      "inputs": [],
      "name": "getAdmin",
      "outputs": [
        {
          "internalType": "address",
          "name": "",
          "type": "address"
        }
      ],
      "stateMutability": "view",
      "type": "function"
    },
    {
      "inputs": [],
      "name": "getContractUSDCBalance",
      "outputs": [
        {
          "internalType": "uint256",
          "name": "",
          "type": "uint256"
        }
      ],
      "stateMutability": "view",
      "type": "function"
    },
    {
      "inputs": [
        {
          "internalType": "uint256",
          "name": "index",
          "type": "uint256"
        }
      ],
      "name": "getLeagueMember",
      "outputs": [
        {
          "internalType": "address",
          "name": "",
          "type": "address"
        }
      ],
      "stateMutability": "view",
      "type": "function"
    },
    {
      "inputs": [
        {
          "internalType": "address",
          "name": "_user",
          "type": "address"
        }
      ],
      "name": "getLineup",
      "outputs": [
        {
          "internalType": "uint256[5]",
          "name": "",
          "type": "uint256[5]"
        }
      ],
      "stateMutability": "view",
      "type": "function"
    },
    {
      "inputs": [],
      "name": "getLineupIsLocked",
      "outputs": [
        {
          "internalType": "bool",
          "name": "",
          "type": "bool"
        }
      ],
      "stateMutability": "view",
      "type": "function"
    },
    {
      "inputs": [
        {
          "internalType": "uint256",
          "name": "_week",
          "type": "uint256"
        }
      ],
      "name": "getScheduleForWeek",
      "outputs": [
        {
          "components": [
            {
              "internalType": "address[2]",
              "name": "players",
              "type": "address[2]"
            }
          ],
          "internalType": "struct LeagueOfLegendsLogic.Matchup[]",
          "name": "",
          "type": "tuple[]"
        }
      ],
      "stateMutability": "view",
      "type": "function"
    },
    {
      "inputs": [],
      "name": "getUserRecord",
      "outputs": [
        {
          "internalType": "uint256[8]",
          "name": "",
          "type": "uint256[8]"
        }
      ],
      "stateMutability": "view",
      "type": "function"
    },
    {
      "inputs": [
        {
          "internalType": "address",
          "name": "",
          "type": "address"
        }
      ],
      "name": "inLeague",
      "outputs": [
        {
          "internalType": "bool",
          "name": "",
          "type": "bool"
        }
      ],
      "stateMutability": "view",
      "type": "function"
    },
    {
      "inputs": [
        {
          "internalType": "string",
          "name": "_name",
          "type": "string"
        },
        {
          "internalType": "uint256",
          "name": "_stakeAmount",
          "type": "uint256"
        },
        {
          "internalType": "bool",
          "name": "_isPublic",
          "type": "bool"
        },
        {
          "internalType": "address",
          "name": "athletesDataStorageAddress",
          "type": "address"
        },
        {
          "internalType": "address",
          "name": "_admin",
          "type": "address"
        },
        {
          "internalType": "address",
          "name": "_rinkebyUSDCAddress",
          "type": "address"
        },
        {
          "internalType": "address",
          "name": "_testUSDCAddress",
          "type": "address"
        },
        {
          "internalType": "address",
          "name": "_gameItemsContractAddress",
          "type": "address"
        },
        {
          "internalType": "address",
          "name": "_teamDiffAddress",
          "type": "address"
        },
        {
          "internalType": "address",
          "name": "_leagueMakerContractAddress",
          "type": "address"
        }
      ],
      "name": "initialize",
      "outputs": [],
      "stateMutability": "nonpayable",
      "type": "function"
    },
    {
      "inputs": [],
      "name": "joinLeague",
      "outputs": [],
      "stateMutability": "nonpayable",
      "type": "function"
    },
    {
      "inputs": [],
      "name": "leagueEntryIsClosed",
      "outputs": [
        {
          "internalType": "bool",
          "name": "",
          "type": "bool"
        }
      ],
      "stateMutability": "view",
      "type": "function"
    },
    {
      "inputs": [
        {
          "internalType": "uint256",
          "name": "",
          "type": "uint256"
        }
      ],
      "name": "leagueMembers",
      "outputs": [
        {
          "internalType": "address",
          "name": "",
          "type": "address"
        }
      ],
      "stateMutability": "view",
      "type": "function"
    },
    {
      "inputs": [],
      "name": "leagueName",
      "outputs": [
        {
          "internalType": "string",
          "name": "",
          "type": "string"
        }
      ],
      "stateMutability": "view",
      "type": "function"
    },
    {
      "inputs": [],
      "name": "lineupIsLocked",
      "outputs": [
        {
          "internalType": "bool",
          "name": "",
          "type": "bool"
        }
      ],
      "stateMutability": "view",
      "type": "function"
    },
    {
      "inputs": [],
      "name": "lockLineup",
      "outputs": [],
      "stateMutability": "nonpayable",
      "type": "function"
    },
    {
      "inputs": [],
      "name": "numWeeks",
      "outputs": [
        {
          "internalType": "uint256",
          "name": "",
          "type": "uint256"
        }
      ],
      "stateMutability": "view",
      "type": "function"
    },
    {
      "inputs": [],
      "name": "onLeagueEnd",
      "outputs": [],
      "stateMutability": "nonpayable",
      "type": "function"
    },
    {
      "inputs": [
        {
          "internalType": "address",
          "name": "_userToRemove",
          "type": "address"
        }
      ],
      "name": "removeFromWhitelist",
      "outputs": [],
      "stateMutability": "nonpayable",
      "type": "function"
    },
    {
      "inputs": [],
      "name": "rinkebyUSDC",
      "outputs": [
        {
          "internalType": "contract IERC20",
          "name": "",
          "type": "address"
        }
      ],
      "stateMutability": "view",
      "type": "function"
    },
    {
      "inputs": [],
      "name": "rinkebyUSDCAddress",
      "outputs": [
        {
          "internalType": "address",
          "name": "",
          "type": "address"
        }
      ],
      "stateMutability": "view",
      "type": "function"
    },
    {
      "inputs": [
        {
          "internalType": "uint256",
          "name": "athleteId",
          "type": "uint256"
        },
        {
          "internalType": "uint256",
          "name": "position",
          "type": "uint256"
        }
      ],
      "name": "setAthleteInLineup",
      "outputs": [],
      "stateMutability": "nonpayable",
      "type": "function"
    },
    {
      "inputs": [],
      "name": "setLeagueEntryIsClosed",
      "outputs": [],
      "stateMutability": "nonpayable",
      "type": "function"
    },
    {
      "inputs": [],
      "name": "setLeagueSchedule",
      "outputs": [],
      "stateMutability": "nonpayable",
      "type": "function"
    },
    {
      "inputs": [
        {
          "internalType": "uint256[5]",
          "name": "athleteIds",
          "type": "uint256[5]"
        }
      ],
      "name": "setLineup",
      "outputs": [],
      "stateMutability": "nonpayable",
      "type": "function"
    },
    {
      "inputs": [],
      "name": "stakeAmount",
      "outputs": [
        {
          "internalType": "uint256",
          "name": "",
          "type": "uint256"
        }
      ],
      "stateMutability": "view",
      "type": "function"
    },
    {
      "inputs": [],
      "name": "teamDiffAddress",
      "outputs": [
        {
          "internalType": "address",
          "name": "",
          "type": "address"
        }
      ],
      "stateMutability": "view",
      "type": "function"
    },
    {
      "inputs": [],
      "name": "testUSDC",
      "outputs": [
        {
          "internalType": "contract IERC20",
          "name": "",
          "type": "address"
        }
      ],
      "stateMutability": "view",
      "type": "function"
    },
    {
      "inputs": [],
      "name": "unlockLineup",
      "outputs": [],
      "stateMutability": "nonpayable",
      "type": "function"
    },
    {
      "inputs": [
        {
          "internalType": "address",
          "name": "",
          "type": "address"
        },
        {
          "internalType": "uint256",
          "name": "",
          "type": "uint256"
        }
      ],
      "name": "userToLineup",
      "outputs": [
        {
          "internalType": "uint256",
          "name": "",
          "type": "uint256"
        }
      ],
      "stateMutability": "view",
      "type": "function"
    },
    {
      "inputs": [
        {
          "internalType": "address",
          "name": "",
          "type": "address"
        }
      ],
      "name": "userToPoints",
      "outputs": [
        {
          "internalType": "uint256",
          "name": "",
          "type": "uint256"
        }
      ],
      "stateMutability": "view",
      "type": "function"
    },
    {
      "inputs": [
        {
          "internalType": "address",
          "name": "",
          "type": "address"
        },
        {
          "internalType": "uint256",
          "name": "",
          "type": "uint256"
        }
      ],
      "name": "userToRecord",
      "outputs": [
        {
          "internalType": "uint256",
          "name": "",
          "type": "uint256"
        }
      ],
      "stateMutability": "view",
      "type": "function"
    },
    {
      "inputs": [],
      "name": "whitelistContract",
      "outputs": [
        {
          "internalType": "contract Whitelist",
          "name": "",
          "type": "address"
        }
      ],
      "stateMutability": "view",
      "type": "function"
    }
  ],
  "bytecode": "0x608060405234801561001057600080fd5b50600180819055506158d1806100276000396000f3fe60806040523480156200001157600080fd5b50600436106200024e5760003560e01c80636e9960c31162000141578063b47f862811620000bd578063e4c9066b1162000087578063e4c9066b146200065b578063e5f7322f1462000667578063ee90080f146200069d578063f851a44014620006d3578063f881604514620006f5576200024e565b8063b47f862814620005ed578063c8be3b5b146200060d578063c99fea941462000619578063cff560031462000625576200024e565b806384900b04116200010b57806384900b0414620005475780638ab1d68114620005695780639122ce6d1462000589578063a2bc091a14620005bf578063a949a9d714620005cb576200024e565b80636e9960c314620004c1578063747b805014620004e35780637eed33f11462000503578063841abf6e1462000525576200024e565b806327311b3211620001d15780633c3ae13f116200019b5780633c3ae13f146200041b57806352e6e5f3146200043b57806360c7dc47146200045d57806366aab256146200047f5780636cc15ad5146200049f576200024e565b806327311b3214620003815780632ae6b13514620003a35780632d382ee014620003d9578063305a5782146200040f576200024e565b80630655465a116200021f5780630655465a14620002db5780630c6f795914620002e75780631d803e00146200031d5780631dd7f8ca1462000329578063267175db146200034b576200024e565b80622772c21462000253578062b2476f1462000275578063022e35e614620002975780630635dbcb14620002b9575b600080fd5b6200025d62000717565b6040516200026c919062003da0565b60405180910390f35b6200027f620007cf565b6040516200028e919062003948565b60405180910390f35b620002a1620007f5565b604051620002b0919062003b00565b60405180910390f35b620002c36200081b565b604051620002d2919062003ae3565b60405180910390f35b620002e56200082e565b005b620003056004803603810190620002ff919062003044565b62000939565b60405162000314919062003da0565b60405180910390f35b6200032762000962565b005b6200033362000da9565b60405162000342919062003948565b60405180910390f35b62000369600480360381019062000363919062003209565b62000dcf565b60405162000378919062003948565b60405180910390f35b6200038b62000e0f565b6040516200039a919062003ae3565b60405180910390f35b620003c16004803603810190620003bb919062003012565b62000e26565b604051620003d0919062003da0565b60405180910390f35b620003f76004803603810190620003f1919062003209565b62000e3e565b60405162000406919062003a84565b60405180910390f35b6200041962000f2f565b005b620004396004803603810190620004339190620030ef565b620010a7565b005b6200044562001478565b60405162000454919062003da0565b60405180910390f35b620004676200147e565b60405162000476919062003da0565b60405180910390f35b6200049d60048036038101906200049791906200308b565b62001484565b005b620004a96200194f565b604051620004b8919062003ae3565b60405180910390f35b620004cb62001962565b604051620004da919062003948565b60405180910390f35b620005016004803603810190620004fb919062003012565b6200198c565b005b6200050d62001ad6565b6040516200051c919062003da0565b60405180910390f35b6200052f62001adc565b6040516200053e919062003b8e565b60405180910390f35b6200055162001b72565b60405162000560919062003b1d565b60405180910390f35b62000587600480360381019062000581919062003012565b62001b98565b005b620005a76004803603810190620005a1919062003012565b62001d35565b604051620005b6919062003ae3565b60405180910390f35b620005c962001d55565b005b620005d562001e05565b604051620005e4919062003b00565b60405180910390f35b6200060b60048036038101906200060591906200326d565b62001e2b565b005b62000617620020ed565b005b620006236200219d565b005b6200064360048036038101906200063d919062003044565b620028b9565b60405162000652919062003da0565b60405180910390f35b62000665620028e2565b005b6200068560048036038101906200067f919062003012565b62002992565b60405162000694919062003aa8565b60405180910390f35b620006bb6004803603810190620006b5919062003209565b62002a20565b604051620006ca919062003948565b60405180910390f35b620006dd62002a6b565b604051620006ec919062003948565b60405180910390f35b620006ff62002a91565b6040516200070e919062003ac5565b60405180910390f35b6000601560009054906101000a900473ffffffffffffffffffffffffffffffffffffffff1673ffffffffffffffffffffffffffffffffffffffff166370a08231306040518263ffffffff1660e01b815260040162000776919062003948565b60206040518083038186803b1580156200078f57600080fd5b505afa158015620007a4573d6000803e3d6000fd5b505050506040513d601f19601f82011682018060405250810190620007ca91906200323b565b905090565b601060009054906101000a900473ffffffffffffffffffffffffffffffffffffffff1681565b601460009054906101000a900473ffffffffffffffffffffffffffffffffffffffff1681565b600760159054906101000a900460ff1681565b600760009054906101000a900473ffffffffffffffffffffffffffffffffffffffff1673ffffffffffffffffffffffffffffffffffffffff163373ffffffffffffffffffffffffffffffffffffffff1614620008c1576040517f08c379a0000000000000000000000000000000000000000000000000000000008152600401620008b89062003cb2565b60405180910390fd5b73__$36fdb4e0c2cb91f3ceca5ea81b025328f3$__63d2c232b5600f600d60035460026040518563ffffffff1660e01b815260040162000905949392919062003b3a565b60006040518083038186803b1580156200091e57600080fd5b505af415801562000933573d6000803e3d6000fd5b50505050565b600960205281600052604060002081600881106200095657600080fd5b01600091509150505481565b600760009054906101000a900473ffffffffffffffffffffffffffffffffffffffff1673ffffffffffffffffffffffffffffffffffffffff163373ffffffffffffffffffffffffffffffffffffffff1614620009f5576040517f08c379a0000000000000000000000000000000000000000000000000000000008152600401620009ec9062003cb2565b60405180910390fd5b6000600454600d8054905062000a0c919062004062565b905073__$36fdb4e0c2cb91f3ceca5ea81b025328f3$__63cc9b40cc600d600b600e6040518463ffffffff1660e01b815260040162000a4e9392919062003a0c565b60006040518083038186803b15801562000a6757600080fd5b505af415801562000a7c573d6000803e3d6000fd5b5050505060005b600e8054905081101562000af35762000add600e828154811062000aac5762000aab62004396565b5b9060005260206000200160009054906101000a900473ffffffffffffffffffffffffffffffffffffffff1662002b1d565b808062000aea90620042bb565b91505062000a83565b506000600e805490508262000b0991906200402a565b905062000b516040518060400160405280601681526020017f4c65616775652077696e6e657273206c656e2069732000000000000000000000815250600e8054905062002bba565b62000b926040518060400160405280601681526020017f5072697a65207065722077696e6e6572206973203a20000000000000000000008152508262002bba565b7f648f2405ea194f3e49fe1655279883b3474e63909ab7e4a579b051d548ad8389600e8260405162000bc692919062003a50565b60405180910390a160005b600e8054905081101562000da457601560009054906101000a900473ffffffffffffffffffffffffffffffffffffffff1673ffffffffffffffffffffffffffffffffffffffff1663095ea7b330846040518363ffffffff1660e01b815260040162000c3e929190620039a2565b602060405180830381600087803b15801562000c5957600080fd5b505af115801562000c6e573d6000803e3d6000fd5b505050506040513d601f19601f8201168201806040525081019062000c949190620030bd565b50601560009054906101000a900473ffffffffffffffffffffffffffffffffffffffff1673ffffffffffffffffffffffffffffffffffffffff166323b872dd30600e848154811062000ceb5762000cea62004396565b5b9060005260206000200160009054906101000a900473ffffffffffffffffffffffffffffffffffffffff16856040518463ffffffff1660e01b815260040162000d379392919062003965565b602060405180830381600087803b15801562000d5257600080fd5b505af115801562000d67573d6000803e3d6000fd5b505050506040513d601f19601f8201168201806040525081019062000d8d9190620030bd565b50808062000d9b90620042bb565b91505062000bd1565b505050565b600760009054906101000a900473ffffffffffffffffffffffffffffffffffffffff1681565b600d818154811062000de057600080fd5b906000526020600020016000915054906101000a900473ffffffffffffffffffffffffffffffffffffffff1681565b6000600760159054906101000a900460ff16905090565b600b6020528060005260406000206000915090505481565b6060600f6000838152602001908152602001600020805480602002602001604051908101604052809291908181526020016000905b8282101562000f2457838290600052602060002090600202016040518060200160405290816000820160028060200260405190810160405280929190826002801562000f0b576020028201915b8160009054906101000a900473ffffffffffffffffffffffffffffffffffffffff1673ffffffffffffffffffffffffffffffffffffffff168152602001906001019080831162000ec0575b5050505050815250508152602001906001019062000e73565b505050509050919050565b600760009054906101000a900473ffffffffffffffffffffffffffffffffffffffff1673ffffffffffffffffffffffffffffffffffffffff163373ffffffffffffffffffffffffffffffffffffffff161462000fc2576040517f08c379a000000000000000000000000000000000000000000000000000000000815260040162000fb99062003cb2565b60405180910390fd5b73__$36fdb4e0c2cb91f3ceca5ea81b025328f3$__6361cc9f39600554601160009054906101000a900473ffffffffffffffffffffffffffffffffffffffff166009600a600b600f6040518763ffffffff1660e01b81526004016200102d9695949392919062003dbd565b60006040518083038186803b1580156200104657600080fd5b505af41580156200105b573d6000803e3d6000fd5b505050506001600354620010709190620040c3565b60055414156200108a576200108462000962565b620010a5565b600560008154809291906200109f90620042bb565b91905055505b565b600060019054906101000a900460ff16620010d15760008054906101000a900460ff1615620010dc565b620010db62002c5a565b5b6200111e576040517f08c379a0000000000000000000000000000000000000000000000000000000008152600401620011159062003c6e565b60405180910390fd5b60008060019054906101000a900460ff1615905080156200116f576001600060016101000a81548160ff02191690831515021790555060016000806101000a81548160ff0219169083151502179055505b8b8b600291906200118292919062002d56565b50600860038190555086600660006101000a81548173ffffffffffffffffffffffffffffffffffffffff021916908373ffffffffffffffffffffffffffffffffffffffff160217905550896004819055506000600760146101000a81548160ff0219169083151502179055506000600760156101000a81548160ff02191690831515021790555087601160006101000a81548173ffffffffffffffffffffffffffffffffffffffff021916908373ffffffffffffffffffffffffffffffffffffffff16021790555081601360006101000a81548173ffffffffffffffffffffffffffffffffffffffff021916908373ffffffffffffffffffffffffffffffffffffffff160217905550886040516200129a9062002de7565b620012a6919062003ae3565b604051809103906000f080158015620012c3573d6000803e3d6000fd5b50601260006101000a81548173ffffffffffffffffffffffffffffffffffffffff021916908373ffffffffffffffffffffffffffffffffffffffff16021790555085601560006101000a81548173ffffffffffffffffffffffffffffffffffffffff021916908373ffffffffffffffffffffffffffffffffffffffff16021790555084601460006101000a81548173ffffffffffffffffffffffffffffffffffffffff021916908373ffffffffffffffffffffffffffffffffffffffff16021790555082600760006101000a81548173ffffffffffffffffffffffffffffffffffffffff021916908373ffffffffffffffffffffffffffffffffffffffff16021790555083601660006101000a81548173ffffffffffffffffffffffffffffffffffffffff021916908373ffffffffffffffffffffffffffffffffffffffff160217905550620014486040518060400160405280601281526020017f50726f787920696e697469616c697a656421000000000000000000000000000081525062002c6d565b80156200146a5760008060016101000a81548160ff0219169083151502179055505b505050505050505050505050565b60055481565b60045481565b600760159054906101000a900460ff1615620014d7576040517f08c379a0000000000000000000000000000000000000000000000000000000008152600401620014ce9062003c4c565b60405180910390fd5b600c60003373ffffffffffffffffffffffffffffffffffffffff1673ffffffffffffffffffffffffffffffffffffffff16815260200190815260200160002060009054906101000a900460ff1662001566576040517f08c379a00000000000000000000000000000000000000000000000000000000081526004016200155d9062003cd4565b60405180910390fd5b60005b600a60003373ffffffffffffffffffffffffffffffffffffffff1673ffffffffffffffffffffffffffffffffffffffff168152602001908152602001600020506005811015620016615760086000600a60003373ffffffffffffffffffffffffffffffffffffffff1673ffffffffffffffffffffffffffffffffffffffff16815260200190815260200160002083600581106200160b576200160a62004396565b5b015481526020019081526020016000206005546008811062001632576200163162004396565b5b016000815480929190620016469062004202565b919050555080806200165890620042bb565b91505062001569565b5060005b6005811015620016e2576008600083836005811062001689576200168862004396565b5b6020020151815260200190815260200160002060055460088110620016b357620016b262004396565b5b016000815480929190620016c790620042bb565b91905055508080620016d990620042bb565b91505062001665565b5060005b600581101562001817576000601660009054906101000a900473ffffffffffffffffffffffffffffffffffffffff1673ffffffffffffffffffffffffffffffffffffffff1662fdd58e3385856005811062001746576200174562004396565b5b60200201516040518363ffffffff1660e01b81526004016200176a929190620039a2565b60206040518083038186803b1580156200178357600080fd5b505afa15801562001798573d6000803e3d6000fd5b505050506040513d601f19601f82011682018060405250810190620017be91906200323b565b1162001801576040517f08c379a0000000000000000000000000000000000000000000000000000000008152600401620017f89062003d3a565b60405180910390fd5b80806200180e90620042bb565b915050620016e6565b5060005b6005811015620018fa57600a8162001834919062004062565b8282600581106200184a576200184962004396565b5b602002015110158015620018a257506001600a6001836200186c919062003fcd565b62001878919062004062565b620018849190620040c3565b8282600581106200189a576200189962004396565b5b602002015111155b620018e4576040517f08c379a0000000000000000000000000000000000000000000000000000000008152600401620018db9062003c2a565b60405180910390fd5b8080620018f190620042bb565b9150506200181b565b5080600a60003373ffffffffffffffffffffffffffffffffffffffff1673ffffffffffffffffffffffffffffffffffffffff1681526020019081526020016000209060056200194b92919062002df5565b5050565b600760149054906101000a900460ff1681565b6000600660009054906101000a900473ffffffffffffffffffffffffffffffffffffffff16905090565b600660009054906101000a900473ffffffffffffffffffffffffffffffffffffffff1673ffffffffffffffffffffffffffffffffffffffff163373ffffffffffffffffffffffffffffffffffffffff161462001a1f576040517f08c379a000000000000000000000000000000000000000000000000000000000815260040162001a169062003c90565b60405180910390fd5b601260009054906101000a900473ffffffffffffffffffffffffffffffffffffffff1673ffffffffffffffffffffffffffffffffffffffff16637b9417c8826040518263ffffffff1660e01b815260040162001a7c919062003948565b602060405180830381600087803b15801562001a9757600080fd5b505af115801562001aac573d6000803e3d6000fd5b505050506040513d601f19601f8201168201806040525081019062001ad29190620030bd565b5050565b60035481565b6002805462001aeb9062004231565b80601f016020809104026020016040519081016040528092919081815260200182805462001b199062004231565b801562001b6a5780601f1062001b3e5761010080835404028352916020019162001b6a565b820191906000526020600020905b81548152906001019060200180831162001b4c57829003601f168201915b505050505081565b601260009054906101000a900473ffffffffffffffffffffffffffffffffffffffff1681565b600660009054906101000a900473ffffffffffffffffffffffffffffffffffffffff1673ffffffffffffffffffffffffffffffffffffffff163373ffffffffffffffffffffffffffffffffffffffff161462001c2b576040517f08c379a000000000000000000000000000000000000000000000000000000000815260040162001c229062003c90565b60405180910390fd5b600760149054906101000a900460ff161562001c7e576040517f08c379a000000000000000000000000000000000000000000000000000000000815260040162001c759062003d18565b60405180910390fd5b601260009054906101000a900473ffffffffffffffffffffffffffffffffffffffff1673ffffffffffffffffffffffffffffffffffffffff1663286dd3f5826040518263ffffffff1660e01b815260040162001cdb919062003948565b602060405180830381600087803b15801562001cf657600080fd5b505af115801562001d0b573d6000803e3d6000fd5b505050506040513d601f19601f8201168201806040525081019062001d319190620030bd565b5050565b600c6020528060005260406000206000915054906101000a900460ff1681565b600760009054906101000a900473ffffffffffffffffffffffffffffffffffffffff1673ffffffffffffffffffffffffffffffffffffffff163373ffffffffffffffffffffffffffffffffffffffff161462001de8576040517f08c379a000000000000000000000000000000000000000000000000000000000815260040162001ddf9062003cb2565b60405180910390fd5b6000600760156101000a81548160ff021916908315150217905550565b601560009054906101000a900473ffffffffffffffffffffffffffffffffffffffff1681565b600760159054906101000a900460ff161562001e7e576040517f08c379a000000000000000000000000000000000000000000000000000000000815260040162001e759062003c4c565b60405180910390fd5b600c60003373ffffffffffffffffffffffffffffffffffffffff1673ffffffffffffffffffffffffffffffffffffffff16815260200190815260200160002060009054906101000a900460ff1662001f0d576040517f08c379a000000000000000000000000000000000000000000000000000000000815260040162001f049062003cd4565b60405180910390fd5b6000601660009054906101000a900473ffffffffffffffffffffffffffffffffffffffff1673ffffffffffffffffffffffffffffffffffffffff1662fdd58e33856040518363ffffffff1660e01b815260040162001f6d929190620039a2565b60206040518083038186803b15801562001f8657600080fd5b505afa15801562001f9b573d6000803e3d6000fd5b505050506040513d601f19601f8201168201806040525081019062001fc191906200323b565b1162002004576040517f08c379a000000000000000000000000000000000000000000000000000000000815260040162001ffb9062003d3a565b60405180910390fd5b600a8162002013919062004062565b82101580156200204d57506001600a60018362002031919062003fcd565b6200203d919062004062565b620020499190620040c3565b8211155b6200208f576040517f08c379a0000000000000000000000000000000000000000000000000000000008152600401620020869062003c2a565b60405180910390fd5b81600a60003373ffffffffffffffffffffffffffffffffffffffff1673ffffffffffffffffffffffffffffffffffffffff1681526020019081526020016000208260058110620020e457620020e362004396565b5b01819055505050565b600760009054906101000a900473ffffffffffffffffffffffffffffffffffffffff1673ffffffffffffffffffffffffffffffffffffffff163373ffffffffffffffffffffffffffffffffffffffff161462002180576040517f08c379a0000000000000000000000000000000000000000000000000000000008152600401620021779062003cb2565b60405180910390fd5b6001600760156101000a81548160ff021916908315150217905550565b60026001541415620021e6576040517f08c379a0000000000000000000000000000000000000000000000000000000008152600401620021dd9062003d5c565b60405180910390fd5b6002600181905550601260009054906101000a900473ffffffffffffffffffffffffffffffffffffffff1673ffffffffffffffffffffffffffffffffffffffff16639b19251a336040518263ffffffff1660e01b81526004016200224b919062003948565b60206040518083038186803b1580156200226457600080fd5b505afa15801562002279573d6000803e3d6000fd5b505050506040513d601f19601f820116820180604052508101906200229f9190620030bd565b806200234b5750601260009054906101000a900473ffffffffffffffffffffffffffffffffffffffff1673ffffffffffffffffffffffffffffffffffffffff1663dc9a15356040518163ffffffff1660e01b815260040160206040518083038186803b1580156200230f57600080fd5b505afa15801562002324573d6000803e3d6000fd5b505050506040513d601f19601f820116820180604052508101906200234a9190620030bd565b5b80620023a45750600660009054906101000a900473ffffffffffffffffffffffffffffffffffffffff1673ffffffffffffffffffffffffffffffffffffffff163373ffffffffffffffffffffffffffffffffffffffff16145b620023e6576040517f08c379a0000000000000000000000000000000000000000000000000000000008152600401620023dd9062003cf6565b60405180910390fd5b600760149054906101000a900460ff161562002439576040517f08c379a0000000000000000000000000000000000000000000000000000000008152600401620024309062003d7e565b60405180910390fd5b600c60003373ffffffffffffffffffffffffffffffffffffffff1673ffffffffffffffffffffffffffffffffffffffff16815260200190815260200160002060009054906101000a900460ff1615620024c9576040517f08c379a0000000000000000000000000000000000000000000000000000000008152600401620024c09062003c08565b60405180910390fd5b600454601560009054906101000a900473ffffffffffffffffffffffffffffffffffffffff1673ffffffffffffffffffffffffffffffffffffffff166370a08231336040518263ffffffff1660e01b815260040162002529919062003948565b60206040518083038186803b1580156200254257600080fd5b505afa15801562002557573d6000803e3d6000fd5b505050506040513d601f19601f820116820180604052508101906200257d91906200323b565b11620025c0576040517f08c379a0000000000000000000000000000000000000000000000000000000008152600401620025b79062003be6565b60405180910390fd5b601260009054906101000a900473ffffffffffffffffffffffffffffffffffffffff1673ffffffffffffffffffffffffffffffffffffffff1663dc9a15356040518163ffffffff1660e01b815260040160206040518083038186803b1580156200262957600080fd5b505afa1580156200263e573d6000803e3d6000fd5b505050506040513d601f19601f82011682018060405250810190620026649190620030bd565b15620026fc57601360009054906101000a900473ffffffffffffffffffffffffffffffffffffffff1673ffffffffffffffffffffffffffffffffffffffff1663771bd4ce336040518263ffffffff1660e01b8152600401620026c7919062003948565b600060405180830381600087803b158015620026e257600080fd5b505af1158015620026f7573d6000803e3d6000fd5b505050505b6001600c60003373ffffffffffffffffffffffffffffffffffffffff1673ffffffffffffffffffffffffffffffffffffffff16815260200190815260200160002060006101000a81548160ff021916908315150217905550600d339080600181540180825580915050600190039060005260206000200160009091909190916101000a81548173ffffffffffffffffffffffffffffffffffffffff021916908373ffffffffffffffffffffffffffffffffffffffff160217905550601560009054906101000a900473ffffffffffffffffffffffffffffffffffffffff1673ffffffffffffffffffffffffffffffffffffffff166323b872dd33306004546040518463ffffffff1660e01b81526004016200281a9392919062003965565b602060405180830381600087803b1580156200283557600080fd5b505af11580156200284a573d6000803e3d6000fd5b505050506040513d601f19601f82011682018060405250810190620028709190620030bd565b507f9f9e4044c5742cca66ca090b21552bac14645e68bad7a92364a9d9ff18111a1c3360045430604051620028a893929190620039cf565b60405180910390a160018081905550565b600a6020528160005260406000208160058110620028d657600080fd5b01600091509150505481565b600760009054906101000a900473ffffffffffffffffffffffffffffffffffffffff1673ffffffffffffffffffffffffffffffffffffffff163373ffffffffffffffffffffffffffffffffffffffff161462002975576040517f08c379a00000000000000000000000000000000000000000000000000000000081526004016200296c9062003cb2565b60405180910390fd5b6001600760146101000a81548160ff021916908315150217905550565b6200299c62002e3a565b600a60008373ffffffffffffffffffffffffffffffffffffffff1673ffffffffffffffffffffffffffffffffffffffff16815260200190815260200160002060058060200260405190810160405280929190826005801562002a14576020028201915b815481526020019060010190808311620029ff575b50505050509050919050565b6000600d828154811062002a395762002a3862004396565b5b9060005260206000200160009054906101000a900473ffffffffffffffffffffffffffffffffffffffff169050919050565b600660009054906101000a900473ffffffffffffffffffffffffffffffffffffffff1681565b62002a9b62002e5c565b600960003373ffffffffffffffffffffffffffffffffffffffff1673ffffffffffffffffffffffffffffffffffffffff16815260200190815260200160002060088060200260405190810160405280929190826008801562002b13576020028201915b81548152602001906001019080831162002afe575b5050505050905090565b62002bb78160405160240162002b34919062003948565b6040516020818303038152906040527f2c2ecbc2000000000000000000000000000000000000000000000000000000007bffffffffffffffffffffffffffffffffffffffffffffffffffffffff19166020820180517bffffffffffffffffffffffffffffffffffffffffffffffffffffffff838183161783525050505062002d0a565b50565b62002c56828260405160240162002bd392919062003bb2565b6040516020818303038152906040527f9710a9d0000000000000000000000000000000000000000000000000000000007bffffffffffffffffffffffffffffffffffffffffffffffffffffffff19166020820180517bffffffffffffffffffffffffffffffffffffffffffffffffffffffff838183161783525050505062002d0a565b5050565b600062002c673062002d33565b15905090565b62002d078160405160240162002c84919062003b8e565b6040516020818303038152906040527f41304fac000000000000000000000000000000000000000000000000000000007bffffffffffffffffffffffffffffffffffffffffffffffffffffffff19166020820180517bffffffffffffffffffffffffffffffffffffffffffffffffffffffff838183161783525050505062002d0a565b50565b60008151905060006a636f6e736f6c652e6c6f679050602083016000808483855afa5050505050565b6000808273ffffffffffffffffffffffffffffffffffffffff163b119050919050565b82805462002d649062004231565b90600052602060002090601f01602090048101928262002d88576000855562002dd4565b82601f1062002da357803560ff191683800117855562002dd4565b8280016001018555821562002dd4579182015b8281111562002dd357823582559160200191906001019062002db6565b5b50905062002de3919062002e7f565b5090565b611114806200478883390190565b826005810192821562002e27579160200282015b8281111562002e2657825182559160200191906001019062002e09565b5b50905062002e36919062002e7f565b5090565b6040518060a00160405280600590602082028036833780820191505090505090565b604051806101000160405280600890602082028036833780820191505090505090565b5b8082111562002e9a57600081600090555060010162002e80565b5090565b600062002eb562002eaf8462003e53565b62003e2a565b9050808285602086028201111562002ed25762002ed162004413565b5b60005b8581101562002f06578162002eeb888262002fe4565b84526020840193506020830192505060018101905062002ed5565b5050509392505050565b60008135905062002f218162004739565b92915050565b600082601f83011262002f3f5762002f3e6200440e565b5b600562002f4e84828562002e9e565b91505092915050565b60008135905062002f688162004753565b92915050565b60008151905062002f7f8162004753565b92915050565b60008083601f84011262002f9e5762002f9d6200440e565b5b8235905067ffffffffffffffff81111562002fbe5762002fbd62004409565b5b60208301915083600182028301111562002fdd5762002fdc62004413565b5b9250929050565b60008135905062002ff5816200476d565b92915050565b6000815190506200300c816200476d565b92915050565b6000602082840312156200302b576200302a6200441d565b5b60006200303b8482850162002f10565b91505092915050565b600080604083850312156200305e576200305d6200441d565b5b60006200306e8582860162002f10565b9250506020620030818582860162002fe4565b9150509250929050565b600060a08284031215620030a457620030a36200441d565b5b6000620030b48482850162002f27565b91505092915050565b600060208284031215620030d657620030d56200441d565b5b6000620030e68482850162002f6e565b91505092915050565b60008060008060008060008060008060006101408c8e0312156200311857620031176200441d565b5b60008c013567ffffffffffffffff81111562003139576200313862004418565b5b620031478e828f0162002f85565b9b509b505060206200315c8e828f0162002fe4565b99505060406200316f8e828f0162002f57565b9850506060620031828e828f0162002f10565b9750506080620031958e828f0162002f10565b96505060a0620031a88e828f0162002f10565b95505060c0620031bb8e828f0162002f10565b94505060e0620031ce8e828f0162002f10565b935050610100620031e28e828f0162002f10565b925050610120620031f68e828f0162002f10565b9150509295989b509295989b9093969950565b6000602082840312156200322257620032216200441d565b5b6000620032328482850162002fe4565b91505092915050565b6000602082840312156200325457620032536200441d565b5b6000620032648482850162002ffb565b91505092915050565b600080604083850312156200328757620032866200441d565b5b6000620032978582860162002fe4565b9250506020620032aa8582860162002fe4565b9150509250929050565b6000620032c283836200331c565b60208301905092915050565b6000620032dc83836200333e565b60208301905092915050565b6000620032f68383620038f7565b60408301905092915050565b600062003310838362003915565b60208301905092915050565b62003327816200411e565b82525050565b62003338816200411e565b82525050565b62003349816200411e565b82525050565b6200335a8162003ed4565b62003366818462003f57565b9250620033738262003e7c565b8060005b83811015620033aa5781516200338e8782620032b4565b96506200339b8362003f16565b92505060018101905062003377565b505050505050565b6000620033bf8262003edf565b620033cb818562003f62565b9350620033d88362003e86565b8060005b838110156200341857620033f082620043f4565b620033fc8882620032b4565b9750620034098362003f23565b925050600181019050620033dc565b5085935050505092915050565b6000620034328262003edf565b6200343e818562003f73565b93506200344b8362003e86565b8060005b838110156200348b576200346382620043f4565b6200346f8882620032ce565b97506200347c8362003f23565b9250506001810190506200344f565b5085935050505092915050565b8082525050565b6000620034ac8262003eea565b620034b8818562003f84565b9350620034c58362003e9b565b8060005b83811015620034fc578151620034e08882620032e8565b9750620034ed8362003f30565b925050600181019050620034c9565b5085935050505092915050565b620035148162003ef5565b62003520818462003f95565b92506200352d8262003eab565b8060005b838110156200356457815162003548878262003302565b9650620035558362003f3d565b92505060018101905062003531565b505050505050565b620035778162003f00565b62003583818462003fa0565b9250620035908262003eb5565b8060005b83811015620035c7578151620035ab878262003302565b9650620035b88362003f4a565b92505060018101905062003594565b505050505050565b620035da8162004132565b82525050565b620035eb8162004168565b82525050565b620035fc816200417c565b82525050565b6200360d8162004190565b82525050565b8082525050565b8082525050565b8082525050565b8082525050565b60006200363c8262003f0b565b62003648818562003fab565b93506200365a818560208601620041cc565b620036658162004422565b840191505092915050565b600081546200367f8162004231565b6200368b818662003fbc565b94506001821660008114620036a95760018114620036bc57620036f3565b60ff1983168652602086019350620036f3565b620036c78562003ebf565b60005b83811015620036eb57815481890152600182019150602081019050620036ca565b808801955050505b50505092915050565b60006200370b601d8362003fab565b9150620037188262004440565b602082019050919050565b60006200373260238362003fab565b91506200373f8262004469565b604082019050919050565b60006200375960318362003fab565b91506200376682620044b8565b604082019050919050565b600062003780601e8362003fab565b91506200378d8262004507565b602082019050919050565b6000620037a7602e8362003fab565b9150620037b48262004530565b604082019050919050565b6000620037ce60178362003fab565b9150620037db826200457f565b602082019050919050565b6000620037f560168362003fab565b91506200380282620045a8565b602082019050919050565b60006200381c60168362003fab565b91506200382982620045d1565b602082019050919050565b600062003843601c8362003fab565b91506200385082620045fa565b602082019050919050565b60006200386a60418362003fab565b9150620038778262004623565b606082019050919050565b60006200389160248362003fab565b91506200389e8262004698565b604082019050919050565b6000620038b8601f8362003fab565b9150620038c582620046e7565b602082019050919050565b6000620038df60178362003fab565b9150620038ec8262004710565b602082019050919050565b6040820160008201516200390f60008501826200334f565b50505050565b62003920816200415e565b82525050565b62003931816200415e565b82525050565b62003942816200415e565b82525050565b60006020820190506200395f60008301846200332d565b92915050565b60006060820190506200397c60008301866200332d565b6200398b60208301856200332d565b6200399a604083018462003926565b949350505050565b6000604082019050620039b960008301856200332d565b620039c8602083018462003926565b9392505050565b6000606082019050620039e660008301866200332d565b620039f5602083018562003926565b62003a0460408301846200332d565b949350505050565b6000606082019050818103600083015262003a28818662003425565b905062003a39602083018562003621565b62003a48604083018462003498565b949350505050565b6000604082019050818103600083015262003a6c8185620033b2565b905062003a7d602083018462003926565b9392505050565b6000602082019050818103600083015262003aa081846200349f565b905092915050565b600060a08201905062003abf600083018462003509565b92915050565b60006101008201905062003add60008301846200356c565b92915050565b600060208201905062003afa6000830184620035cf565b92915050565b600060208201905062003b176000830184620035f1565b92915050565b600060208201905062003b34600083018462003602565b92915050565b600060808201905062003b51600083018762003628565b62003b60602083018662003498565b62003b6f604083018562003937565b818103606083015262003b83818462003670565b905095945050505050565b6000602082019050818103600083015262003baa81846200362f565b905092915050565b6000604082019050818103600083015262003bce81856200362f565b905062003bdf602083018462003926565b9392505050565b6000602082019050818103600083015262003c0181620036fc565b9050919050565b6000602082019050818103600083015262003c238162003723565b9050919050565b6000602082019050818103600083015262003c45816200374a565b9050919050565b6000602082019050818103600083015262003c678162003771565b9050919050565b6000602082019050818103600083015262003c898162003798565b9050919050565b6000602082019050818103600083015262003cab81620037bf565b9050919050565b6000602082019050818103600083015262003ccd81620037e6565b9050919050565b6000602082019050818103600083015262003cef816200380d565b9050919050565b6000602082019050818103600083015262003d118162003834565b9050919050565b6000602082019050818103600083015262003d33816200385b565b9050919050565b6000602082019050818103600083015262003d558162003882565b9050919050565b6000602082019050818103600083015262003d7781620038a9565b9050919050565b6000602082019050818103600083015262003d9981620038d0565b9050919050565b600060208201905062003db7600083018462003926565b92915050565b600060c08201905062003dd4600083018962003937565b62003de36020830188620035e0565b62003df260408301876200361a565b62003e01606083018662003613565b62003e10608083018562003621565b62003e1f60a083018462003628565b979650505050505050565b600062003e3662003e49565b905062003e44828262004285565b919050565b6000604051905090565b600067ffffffffffffffff82111562003e715762003e70620043c5565b5b602082029050919050565b6000819050919050565b60008190508160005260206000209050919050565b6000819050602082019050919050565b6000819050919050565b6000819050919050565b60008190508160005260206000209050919050565b600060029050919050565b600081549050919050565b600081519050919050565b600060059050919050565b600060089050919050565b600081519050919050565b6000602082019050919050565b6000600182019050919050565b6000602082019050919050565b6000602082019050919050565b6000602082019050919050565b600081905092915050565b600082825260208201905092915050565b600082825260208201905092915050565b600082825260208201905092915050565b600081905092915050565b600081905092915050565b600082825260208201905092915050565b600082825260208201905092915050565b600062003fda826200415e565b915062003fe7836200415e565b9250827fffffffffffffffffffffffffffffffffffffffffffffffffffffffffffffffff038211156200401f576200401e62004309565b5b828201905092915050565b600062004037826200415e565b915062004044836200415e565b92508262004057576200405662004338565b5b828204905092915050565b60006200406f826200415e565b91506200407c836200415e565b9250817fffffffffffffffffffffffffffffffffffffffffffffffffffffffffffffffff0483118215151615620040b857620040b762004309565b5b828202905092915050565b6000620040d0826200415e565b9150620040dd836200415e565b925082821015620040f357620040f262004309565b5b828203905092915050565b600073ffffffffffffffffffffffffffffffffffffffff82169050919050565b60006200412b826200413e565b9050919050565b60008115159050919050565b600073ffffffffffffffffffffffffffffffffffffffff82169050919050565b6000819050919050565b60006200417582620041a4565b9050919050565b60006200418982620041a4565b9050919050565b60006200419d82620041a4565b9050919050565b6000620041b182620041b8565b9050919050565b6000620041c5826200413e565b9050919050565b60005b83811015620041ec578082015181840152602081019050620041cf565b83811115620041fc576000848401525b50505050565b60006200420f826200415e565b9150600082141562004226576200422562004309565b5b600182039050919050565b600060028204905060018216806200424a57607f821691505b6020821081141562004261576200426062004367565b5b50919050565b60006200427e620042788362004433565b620040fe565b9050919050565b620042908262004422565b810181811067ffffffffffffffff82111715620042b257620042b1620043c5565b5b80604052505050565b6000620042c8826200415e565b91507fffffffffffffffffffffffffffffffffffffffffffffffffffffffffffffffff821415620042fe57620042fd62004309565b5b600182019050919050565b7f4e487b7100000000000000000000000000000000000000000000000000000000600052601160045260246000fd5b7f4e487b7100000000000000000000000000000000000000000000000000000000600052601260045260246000fd5b7f4e487b7100000000000000000000000000000000000000000000000000000000600052602260045260246000fd5b7f4e487b7100000000000000000000000000000000000000000000000000000000600052603260045260246000fd5b7f4e487b7100000000000000000000000000000000000000000000000000000000600052604160045260246000fd5b600062004402825462004267565b9050919050565b600080fd5b600080fd5b600080fd5b600080fd5b600080fd5b6000601f19601f8301169050919050565b60008160001c9050919050565b7f496e737566666963656e742066756e647320666f72207374616b696e67000000600082015250565b7f596f75206861766520616c7265616479206a6f696e65642074686973206c656160008201527f6775650000000000000000000000000000000000000000000000000000000000602082015250565b7f596f75206172652073657474696e6720616e206174686c65746520696e20746860008201527f652077726f6e6720706f736974696f6e21000000000000000000000000000000602082015250565b7f6c696e657570206973206c6f636b656420666f7220746865207765656b210000600082015250565b7f496e697469616c697a61626c653a20636f6e747261637420697320616c72656160008201527f647920696e697469616c697a6564000000000000000000000000000000000000602082015250565b7f43616c6c6572206973206e6f74207468652061646d696e000000000000000000600082015250565b7f43616c6c6572206973206e6f74205465616d4469666600000000000000000000600082015250565b7f55736572206973206e6f7420696e204c65616775652e00000000000000000000600082015250565b7f55736572206973206e6f74206f6e2077686974656c6973742062726f00000000600082015250565b7f4e6f626f64792063616e20656e7465722f6578697420746865206c656167756560008201527f20616e796d6f72652e2054686520736561736f6e20686173207374617274656460208201527f2100000000000000000000000000000000000000000000000000000000000000604082015250565b7f43616c6c657220646f6573206e6f74206f776e20676976656e206174686c657460008201527f6549647300000000000000000000000000000000000000000000000000000000602082015250565b7f5265656e7472616e637947756172643a207265656e7472616e742063616c6c00600082015250565b7f4c656167756520456e74727920697320436c6f73656421000000000000000000600082015250565b62004744816200411e565b81146200475057600080fd5b50565b6200475e8162004132565b81146200476a57600080fd5b50565b62004778816200415e565b81146200478457600080fd5b5056fe60806040523480156200001157600080fd5b50604051620011143803806200111483398181016040528101906200003791906200015b565b620000576200004b6200007860201b60201c565b6200008060201b60201c565b80600360006101000a81548160ff02191690831515021790555050620001b8565b600033905090565b60008060009054906101000a900473ffffffffffffffffffffffffffffffffffffffff169050816000806101000a81548173ffffffffffffffffffffffffffffffffffffffff021916908373ffffffffffffffffffffffffffffffffffffffff1602179055508173ffffffffffffffffffffffffffffffffffffffff168173ffffffffffffffffffffffffffffffffffffffff167f8be0079c531659141344cd1fd0a4f28419497f9722a3daafe3b4186f6b6457e060405160405180910390a35050565b60008151905062000155816200019e565b92915050565b60006020828403121562000174576200017362000199565b5b6000620001848482850162000144565b91505092915050565b60008115159050919050565b600080fd5b620001a9816200018d565b8114620001b557600080fd5b50565b610f4c80620001c86000396000f3fe608060405234801561001057600080fd5b50600436106100a95760003560e01c80638da5cb5b116100715780638da5cb5b146101665780639b19251a14610184578063dc9a1535146101b4578063e2ec6ec3146101d2578063e35a899914610202578063f2fde38b14610232576100a9565b806324953eaa146100ae578063286dd3f5146100de57806344eaa84e1461010e578063715018a61461012c5780637b9417c814610136575b600080fd5b6100c860048036038101906100c39190610ada565b61024e565b6040516100d59190610bb1565b60405180910390f35b6100f860048036038101906100f39190610aad565b61031e565b6040516101059190610bb1565b60405180910390f35b6101166104a1565b6040516101239190610c0c565b60405180910390f35b6101346104ab565b005b610150600480360381019061014b9190610aad565b610533565b60405161015d9190610bb1565b60405180910390f35b61016e6106b4565b60405161017b9190610b96565b60405180910390f35b61019e60048036038101906101999190610aad565b6106dd565b6040516101ab9190610bb1565b60405180910390f35b6101bc6106fd565b6040516101c99190610bb1565b60405180910390f35b6101ec60048036038101906101e79190610ada565b610710565b6040516101f99190610bb1565b60405180910390f35b61021c60048036038101906102179190610aad565b6107e0565b6040516102299190610bb1565b60405180910390f35b61024c60048036038101906102479190610aad565b610836565b005b600061025861092e565b73ffffffffffffffffffffffffffffffffffffffff166102766106b4565b73ffffffffffffffffffffffffffffffffffffffff16146102cc576040517f08c379a00000000000000000000000000000000000000000000000000000000081526004016102c390610bec565b60405180910390fd5b60005b8251811015610318576102fb8382815181106102ee576102ed610e04565b5b602002602001015161031e565b1561030557600191505b808061031090610d8c565b9150506102cf565b50919050565b600061032861092e565b73ffffffffffffffffffffffffffffffffffffffff166103466106b4565b73ffffffffffffffffffffffffffffffffffffffff161461039c576040517f08c379a000000000000000000000000000000000000000000000000000000000815260040161039390610bec565b60405180910390fd5b600160008373ffffffffffffffffffffffffffffffffffffffff1673ffffffffffffffffffffffffffffffffffffffff16815260200190815260200160002060009054906101000a900460ff161561049c576000600160008473ffffffffffffffffffffffffffffffffffffffff1673ffffffffffffffffffffffffffffffffffffffff16815260200190815260200160002060006101000a81548160ff0219169083151502179055507ff1abf01a1043b7c244d128e8595cf0c1d10743b022b03a02dffd8ca3bf729f5a826040516104759190610b96565b60405180910390a16001600260008282546104909190610cdf565b92505081905550600190505b919050565b6000600254905090565b6104b361092e565b73ffffffffffffffffffffffffffffffffffffffff166104d16106b4565b73ffffffffffffffffffffffffffffffffffffffff1614610527576040517f08c379a000000000000000000000000000000000000000000000000000000000815260040161051e90610bec565b60405180910390fd5b6105316000610936565b565b600061053d61092e565b73ffffffffffffffffffffffffffffffffffffffff1661055b6106b4565b73ffffffffffffffffffffffffffffffffffffffff16146105b1576040517f08c379a00000000000000000000000000000000000000000000000000000000081526004016105a890610bec565b60405180910390fd5b600160008373ffffffffffffffffffffffffffffffffffffffff1673ffffffffffffffffffffffffffffffffffffffff16815260200190815260200160002060009054906101000a900460ff166106af5760018060008473ffffffffffffffffffffffffffffffffffffffff1673ffffffffffffffffffffffffffffffffffffffff16815260200190815260200160002060006101000a81548160ff0219169083151502179055507fd1bba68c128cc3f427e5831b3c6f99f480b6efa6b9e80c757768f6124158cc3f826040516106889190610b96565b60405180910390a16001600260008282546106a39190610c89565b92505081905550600190505b919050565b60008060009054906101000a900473ffffffffffffffffffffffffffffffffffffffff16905090565b60016020528060005260406000206000915054906101000a900460ff1681565b600360009054906101000a900460ff1681565b600061071a61092e565b73ffffffffffffffffffffffffffffffffffffffff166107386106b4565b73ffffffffffffffffffffffffffffffffffffffff161461078e576040517f08c379a000000000000000000000000000000000000000000000000000000000815260040161078590610bec565b60405180910390fd5b60005b82518110156107da576107bd8382815181106107b0576107af610e04565b5b6020026020010151610533565b156107c757600191505b80806107d290610d8c565b915050610791565b50919050565b6000600160008373ffffffffffffffffffffffffffffffffffffffff1673ffffffffffffffffffffffffffffffffffffffff16815260200190815260200160002060009054906101000a900460ff169050919050565b61083e61092e565b73ffffffffffffffffffffffffffffffffffffffff1661085c6106b4565b73ffffffffffffffffffffffffffffffffffffffff16146108b2576040517f08c379a00000000000000000000000000000000000000000000000000000000081526004016108a990610bec565b60405180910390fd5b600073ffffffffffffffffffffffffffffffffffffffff168173ffffffffffffffffffffffffffffffffffffffff161415610922576040517f08c379a000000000000000000000000000000000000000000000000000000000815260040161091990610bcc565b60405180910390fd5b61092b81610936565b50565b600033905090565b60008060009054906101000a900473ffffffffffffffffffffffffffffffffffffffff169050816000806101000a81548173ffffffffffffffffffffffffffffffffffffffff021916908373ffffffffffffffffffffffffffffffffffffffff1602179055508173ffffffffffffffffffffffffffffffffffffffff168173ffffffffffffffffffffffffffffffffffffffff167f8be0079c531659141344cd1fd0a4f28419497f9722a3daafe3b4186f6b6457e060405160405180910390a35050565b6000610a0d610a0884610c4c565b610c27565b90508083825260208201905082856020860282011115610a3057610a2f610e67565b5b60005b85811015610a605781610a468882610a6a565b845260208401935060208301925050600181019050610a33565b5050509392505050565b600081359050610a7981610eff565b92915050565b600082601f830112610a9457610a93610e62565b5b8135610aa48482602086016109fa565b91505092915050565b600060208284031215610ac357610ac2610e71565b5b6000610ad184828501610a6a565b91505092915050565b600060208284031215610af057610aef610e71565b5b600082013567ffffffffffffffff811115610b0e57610b0d610e6c565b5b610b1a84828501610a7f565b91505092915050565b610b2c81610d13565b82525050565b610b3b81610d25565b82525050565b6000610b4e602683610c78565b9150610b5982610e87565b604082019050919050565b6000610b71602083610c78565b9150610b7c82610ed6565b602082019050919050565b610b9081610d51565b82525050565b6000602082019050610bab6000830184610b23565b92915050565b6000602082019050610bc66000830184610b32565b92915050565b60006020820190508181036000830152610be581610b41565b9050919050565b60006020820190508181036000830152610c0581610b64565b9050919050565b6000602082019050610c216000830184610b87565b92915050565b6000610c31610c42565b9050610c3d8282610d5b565b919050565b6000604051905090565b600067ffffffffffffffff821115610c6757610c66610e33565b5b602082029050602081019050919050565b600082825260208201905092915050565b6000610c9482610d51565b9150610c9f83610d51565b9250827fffffffffffffffffffffffffffffffffffffffffffffffffffffffffffffffff03821115610cd457610cd3610dd5565b5b828201905092915050565b6000610cea82610d51565b9150610cf583610d51565b925082821015610d0857610d07610dd5565b5b828203905092915050565b6000610d1e82610d31565b9050919050565b60008115159050919050565b600073ffffffffffffffffffffffffffffffffffffffff82169050919050565b6000819050919050565b610d6482610e76565b810181811067ffffffffffffffff82111715610d8357610d82610e33565b5b80604052505050565b6000610d9782610d51565b91507fffffffffffffffffffffffffffffffffffffffffffffffffffffffffffffffff821415610dca57610dc9610dd5565b5b600182019050919050565b7f4e487b7100000000000000000000000000000000000000000000000000000000600052601160045260246000fd5b7f4e487b7100000000000000000000000000000000000000000000000000000000600052603260045260246000fd5b7f4e487b7100000000000000000000000000000000000000000000000000000000600052604160045260246000fd5b600080fd5b600080fd5b600080fd5b600080fd5b6000601f19601f8301169050919050565b7f4f776e61626c653a206e6577206f776e657220697320746865207a65726f206160008201527f6464726573730000000000000000000000000000000000000000000000000000602082015250565b7f4f776e61626c653a2063616c6c6572206973206e6f7420746865206f776e6572600082015250565b610f0881610d13565b8114610f1357600080fd5b5056fea2646970667358221220feccf7967160b27bc4e7387864d237b4000f88abed00a8f38cd892f59bf1675364736f6c63430008070033a264697066735822122055d52ee9d43784bb8dc20d03f00d502e58ccf43cfb2551db2e27b2d8737287b464736f6c63430008070033",
  "linkReferences": {
    "contracts/MOBALogicLibrary.sol": {
      "MOBALogicLibrary": [
        {
          "length": 20,
          "start": 2282
        },
        {
          "length": 20,
          "start": 2615
        },
        {
          "length": 20,
          "start": 4075
        }
      ]
    }
  },
  "deployedLinkReferences": {
    "contracts/MOBALogicLibrary.sol": {
      "MOBALogicLibrary": [
        {
          "length": 20,
          "start": 2243
        },
        {
          "length": 20,
          "start": 2576
        },
        {
          "length": 20,
          "start": 4036
        }
      ]
    }
  }
}