{
  "_format": "hh-sol-artifact-1",
  "contractName": "LeagueOfLegendsLogic",
  "sourceName": "contracts/LeagueOfLegendsLogic.sol",
  "abi": [
    {
      "anonymous": false,
      "inputs": [
        {
          "indexed": false,
          "internalType": "address",
          "name": "sender",
          "type": "address"
        },
        {
          "indexed": false,
          "internalType": "uint256",
          "name": "id",
          "type": "uint256"
        },
        {
          "indexed": false,
          "internalType": "uint256",
          "name": "position",
          "type": "uint256"
        }
      ],
      "name": "AthleteSetInLineup",
      "type": "event"
    },
    {
      "anonymous": false,
      "inputs": [
        {
          "indexed": false,
          "internalType": "address",
          "name": "sender",
          "type": "address"
        },
        {
          "indexed": false,
          "internalType": "uint256",
          "name": "amount",
          "type": "uint256"
        },
        {
          "indexed": false,
          "internalType": "address",
          "name": "leagueAddress",
          "type": "address"
        }
      ],
      "name": "Staked",
      "type": "event"
    },
    {
      "anonymous": false,
      "inputs": [
        {
          "indexed": false,
          "internalType": "address[]",
          "name": "winner",
          "type": "address[]"
        },
        {
          "indexed": false,
          "internalType": "uint256",
          "name": "prizePotPerWinner",
          "type": "uint256"
        }
      ],
      "name": "leagueEnded",
      "type": "event"
    },
    {
      "anonymous": false,
      "inputs": [
        {
          "indexed": false,
          "internalType": "address",
          "name": "sender",
          "type": "address"
        },
        {
          "indexed": false,
          "internalType": "address",
          "name": "leagueAddress",
          "type": "address"
        }
      ],
      "name": "scheduleSet",
      "type": "event"
    },
    {
      "anonymous": false,
      "inputs": [
        {
          "indexed": false,
          "internalType": "address",
          "name": "sender",
          "type": "address"
        },
        {
          "indexed": false,
          "internalType": "address",
          "name": "contractAddress",
          "type": "address"
        }
      ],
      "name": "testUSDCDeployed",
      "type": "event"
    },
    {
      "inputs": [
        {
          "internalType": "address",
          "name": "_userToAdd",
          "type": "address"
        }
      ],
      "name": "addUserToWhitelist",
      "outputs": [],
      "stateMutability": "nonpayable",
      "type": "function"
    },
    {
      "inputs": [],
      "name": "admin",
      "outputs": [
        {
          "internalType": "address",
          "name": "",
          "type": "address"
        }
      ],
      "stateMutability": "view",
      "type": "function"
    },
    {
      "inputs": [],
      "name": "erc20",
      "outputs": [
        {
          "internalType": "contract IERC20",
          "name": "",
          "type": "address"
        }
      ],
      "stateMutability": "view",
      "type": "function"
    },
    {
      "inputs": [
        {
          "internalType": "uint256",
          "name": "currentWeekNum",
          "type": "uint256"
        }
      ],
      "name": "evaluateMatches",
      "outputs": [],
      "stateMutability": "nonpayable",
      "type": "function"
    },
    {
      "inputs": [],
      "name": "getAdmin",
      "outputs": [
        {
          "internalType": "address",
          "name": "",
          "type": "address"
        }
      ],
      "stateMutability": "view",
      "type": "function"
    },
    {
      "inputs": [],
      "name": "getContractUSDCBalance",
      "outputs": [
        {
          "internalType": "uint256",
          "name": "",
          "type": "uint256"
        }
      ],
      "stateMutability": "view",
      "type": "function"
    },
    {
      "inputs": [
        {
          "internalType": "uint256",
          "name": "index",
          "type": "uint256"
        }
      ],
      "name": "getLeagueMember",
      "outputs": [
        {
          "internalType": "address",
          "name": "",
          "type": "address"
        }
      ],
      "stateMutability": "view",
      "type": "function"
    },
    {
      "inputs": [],
      "name": "getLeagueMembersLength",
      "outputs": [
        {
          "internalType": "uint256",
          "name": "",
          "type": "uint256"
        }
      ],
      "stateMutability": "view",
      "type": "function"
    },
    {
      "inputs": [],
      "name": "getLineupIsLocked",
      "outputs": [
        {
          "internalType": "bool",
          "name": "",
          "type": "bool"
        }
      ],
      "stateMutability": "view",
      "type": "function"
    },
    {
      "inputs": [
        {
          "internalType": "uint256",
          "name": "_week",
          "type": "uint256"
        }
      ],
      "name": "getScheduleForWeek",
      "outputs": [
        {
          "components": [
            {
              "internalType": "address[2]",
              "name": "players",
              "type": "address[2]"
            }
          ],
          "internalType": "struct LeagueOfLegendsLogic.Matchup[]",
          "name": "",
          "type": "tuple[]"
        }
      ],
      "stateMutability": "view",
      "type": "function"
    },
    {
      "inputs": [
        {
          "internalType": "address",
          "name": "_user",
          "type": "address"
        }
      ],
      "name": "getUserLineup",
      "outputs": [
        {
          "internalType": "uint256[5]",
          "name": "",
          "type": "uint256[5]"
        }
      ],
      "stateMutability": "view",
      "type": "function"
    },
    {
      "inputs": [
        {
          "internalType": "address",
          "name": "_user",
          "type": "address"
        }
      ],
      "name": "getUserPoints",
      "outputs": [
        {
          "internalType": "uint256",
          "name": "",
          "type": "uint256"
        }
      ],
      "stateMutability": "view",
      "type": "function"
    },
    {
      "inputs": [
        {
          "internalType": "address",
          "name": "_user",
          "type": "address"
        }
      ],
      "name": "getUserRecord",
      "outputs": [
        {
          "internalType": "uint256[8]",
          "name": "",
          "type": "uint256[8]"
        }
      ],
      "stateMutability": "view",
      "type": "function"
    },
    {
      "inputs": [
        {
          "internalType": "address",
          "name": "_user",
          "type": "address"
        }
      ],
      "name": "getUserWeekScore",
      "outputs": [
        {
          "internalType": "uint256[8]",
          "name": "",
          "type": "uint256[8]"
        }
      ],
      "stateMutability": "view",
      "type": "function"
    },
    {
      "inputs": [
        {
          "internalType": "address",
          "name": "",
          "type": "address"
        }
      ],
      "name": "inLeague",
      "outputs": [
        {
          "internalType": "bool",
          "name": "",
          "type": "bool"
        }
      ],
      "stateMutability": "view",
      "type": "function"
    },
    {
      "inputs": [
        {
          "internalType": "string",
          "name": "_name",
          "type": "string"
        },
        {
          "internalType": "uint256",
          "name": "_stakeAmount",
          "type": "uint256"
        },
        {
          "internalType": "bool",
          "name": "_isPublic",
          "type": "bool"
        },
        {
          "internalType": "address",
          "name": "athletesDataStorageAddress",
          "type": "address"
        },
        {
          "internalType": "address",
          "name": "_admin",
          "type": "address"
        },
        {
          "internalType": "address",
          "name": "_ierc20Address",
          "type": "address"
        },
        {
          "internalType": "address",
          "name": "_gameItemsContractAddress",
          "type": "address"
        },
        {
          "internalType": "address",
          "name": "_teamDiffAddress",
          "type": "address"
        },
        {
          "internalType": "address",
          "name": "_leagueMakerContractAddress",
          "type": "address"
        }
      ],
      "name": "initialize",
      "outputs": [],
      "stateMutability": "nonpayable",
      "type": "function"
    },
    {
      "inputs": [],
      "name": "isPublic",
      "outputs": [
        {
          "internalType": "bool",
          "name": "",
          "type": "bool"
        }
      ],
      "stateMutability": "view",
      "type": "function"
    },
    {
      "inputs": [],
      "name": "joinLeague",
      "outputs": [],
      "stateMutability": "nonpayable",
      "type": "function"
    },
    {
      "inputs": [],
      "name": "leagueEntryIsClosed",
      "outputs": [
        {
          "internalType": "bool",
          "name": "",
          "type": "bool"
        }
      ],
      "stateMutability": "view",
      "type": "function"
    },
    {
      "inputs": [
        {
          "internalType": "uint256",
          "name": "",
          "type": "uint256"
        }
      ],
      "name": "leagueMembers",
      "outputs": [
        {
          "internalType": "address",
          "name": "",
          "type": "address"
        }
      ],
      "stateMutability": "view",
      "type": "function"
    },
    {
      "inputs": [],
      "name": "leagueName",
      "outputs": [
        {
          "internalType": "string",
          "name": "",
          "type": "string"
        }
      ],
      "stateMutability": "view",
      "type": "function"
    },
    {
      "inputs": [],
      "name": "lineupIsLocked",
      "outputs": [
        {
          "internalType": "bool",
          "name": "",
          "type": "bool"
        }
      ],
      "stateMutability": "view",
      "type": "function"
    },
    {
      "inputs": [],
      "name": "lockLineup",
      "outputs": [],
      "stateMutability": "nonpayable",
      "type": "function"
    },
    {
      "inputs": [],
      "name": "numWeeks",
      "outputs": [
        {
          "internalType": "uint256",
          "name": "",
          "type": "uint256"
        }
      ],
      "stateMutability": "view",
      "type": "function"
    },
    {
      "inputs": [],
      "name": "onLeagueEnd",
      "outputs": [],
      "stateMutability": "nonpayable",
      "type": "function"
    },
    {
      "inputs": [
        {
          "internalType": "address",
          "name": "_userToRemove",
          "type": "address"
        }
      ],
      "name": "removeFromWhitelist",
      "outputs": [],
      "stateMutability": "nonpayable",
      "type": "function"
    },
    {
      "inputs": [
        {
          "internalType": "uint256",
          "name": "athleteId",
          "type": "uint256"
        },
        {
          "internalType": "uint256",
          "name": "position",
          "type": "uint256"
        }
      ],
      "name": "setAthleteInLineup",
      "outputs": [],
      "stateMutability": "nonpayable",
      "type": "function"
    },
    {
      "inputs": [],
      "name": "setLeagueEntryIsClosed",
      "outputs": [],
      "stateMutability": "nonpayable",
      "type": "function"
    },
    {
      "inputs": [],
      "name": "setLeagueEntryIsOpen",
      "outputs": [],
      "stateMutability": "nonpayable",
      "type": "function"
    },
    {
      "inputs": [],
      "name": "stakeAmount",
      "outputs": [
        {
          "internalType": "uint256",
          "name": "",
          "type": "uint256"
        }
      ],
      "stateMutability": "view",
      "type": "function"
    },
    {
      "inputs": [],
      "name": "teamDiffAddress",
      "outputs": [
        {
          "internalType": "address",
          "name": "",
          "type": "address"
        }
      ],
      "stateMutability": "view",
      "type": "function"
    },
    {
      "inputs": [],
      "name": "unlockLineup",
      "outputs": [],
      "stateMutability": "nonpayable",
      "type": "function"
    },
    {
      "inputs": [
        {
          "internalType": "address",
          "name": "",
          "type": "address"
        },
        {
          "internalType": "uint256",
          "name": "",
          "type": "uint256"
        }
      ],
      "name": "userToLineup",
      "outputs": [
        {
          "internalType": "uint256",
          "name": "",
          "type": "uint256"
        }
      ],
      "stateMutability": "view",
      "type": "function"
    },
    {
      "inputs": [
        {
          "internalType": "address",
          "name": "",
          "type": "address"
        }
      ],
      "name": "userToPoints",
      "outputs": [
        {
          "internalType": "uint256",
          "name": "",
          "type": "uint256"
        }
      ],
      "stateMutability": "view",
      "type": "function"
    },
    {
      "inputs": [
        {
          "internalType": "address",
          "name": "",
          "type": "address"
        },
        {
          "internalType": "uint256",
          "name": "",
          "type": "uint256"
        }
      ],
      "name": "userToRecord",
      "outputs": [
        {
          "internalType": "uint256",
          "name": "",
          "type": "uint256"
        }
      ],
      "stateMutability": "view",
      "type": "function"
    },
    {
      "inputs": [
        {
          "internalType": "address",
          "name": "",
          "type": "address"
        },
        {
          "internalType": "uint256",
          "name": "",
          "type": "uint256"
        }
      ],
      "name": "userToWeekScore",
      "outputs": [
        {
          "internalType": "uint256",
          "name": "",
          "type": "uint256"
        }
      ],
      "stateMutability": "view",
      "type": "function"
    },
    {
      "inputs": [],
      "name": "whitelistContract",
      "outputs": [
        {
          "internalType": "contract Whitelist",
          "name": "",
          "type": "address"
        }
      ],
      "stateMutability": "view",
      "type": "function"
    }
  ],
  "bytecode": "0x608060405234801561001057600080fd5b506001808190555061580f806100276000396000f3fe60806040523480156200001157600080fd5b50600436106200025b5760003560e01c8063841abf6e116200014d578063bc69b42711620000c9578063db2a67241162000087578063db2a672414620006f0578063dc9a15351462000726578063e4c9066b1462000748578063ee90080f1462000754578063f851a440146200078a576200025b565b8063bc69b4271462000660578063c2bfd5ed1462000696578063c8be3b5b14620006a2578063c99fea9414620006ae578063cff5600314620006ba576200025b565b8063989db6591162000117578063989db65914620005be578063a2bc091a14620005de578063aeefe31f14620005ea578063b47f86281462000620578063bb79731c1462000640576200025b565b8063841abf6e146200052457806384900b0414620005465780638ab1d68114620005685780639122ce6d1462000588576200025b565b80634adaf31b11620001dd5780636cc15ad511620001a75780636cc15ad5146200047c5780636e9960c3146200049e578063747b805014620004c0578063785e9e8614620004e05780637eed33f11462000502576200025b565b80634adaf31b14620003cc57806360c7dc47146200040257806363c665f7146200042457806367e2efc61462000446576200025b565b80631dd7f8ca116200022b5780631dd7f8ca14620002e6578063267175db146200030857806327311b32146200033e5780632ae6b13514620003605780632d382ee01462000396576200025b565b80622772c214620002605780630635dbcb14620002825780630c6f795914620002a45780631d803e0014620002da575b600080fd5b6200026a620007ac565b60405162000279919062003b8e565b60405180910390f35b6200028c62000864565b6040516200029b91906200387d565b60405180910390f35b620002c26004803603810190620002bc919062002d21565b62000877565b604051620002d1919062003b8e565b60405180910390f35b620002e4620008a0565b005b620002f062000cc8565b604051620002ff919062003678565b60405180910390f35b62000326600480360381019062000320919062002e9d565b62000cee565b60405162000335919062003678565b60405180910390f35b6200034862000d2e565b6040516200035791906200387d565b60405180910390f35b6200037e600480360381019062000378919062002cef565b62000d45565b6040516200038d919062003b8e565b60405180910390f35b620003b46004803603810190620003ae919062002e9d565b62000d5d565b604051620003c391906200381e565b60405180910390f35b620003ea6004803603810190620003e4919062002cef565b62000e4e565b604051620003f991906200385f565b60405180910390f35b6200040c62000edc565b6040516200041b919062003b8e565b60405180910390f35b6200042e62000ee2565b6040516200043d919062003b8e565b60405180910390f35b6200046460048036038101906200045e919062002cef565b62000eef565b6040516200047391906200385f565b60405180910390f35b6200048662000f7d565b6040516200049591906200387d565b60405180910390f35b620004a862000f90565b604051620004b7919062003678565b60405180910390f35b620004de6004803603810190620004d8919062002cef565b62000fba565b005b620004ea620011e8565b604051620004f991906200389a565b60405180910390f35b6200050c6200120e565b6040516200051b919062003b8e565b60405180910390f35b6200052e62001214565b6040516200053d919062003928565b60405180910390f35b62000550620012aa565b6040516200055f9190620038b7565b60405180910390f35b62000586600480360381019062000580919062002cef565b620012d0565b005b620005a66004803603810190620005a0919062002cef565b6200146d565b604051620005b591906200387d565b60405180910390f35b620005dc6004803603810190620005d6919062002d9a565b6200148d565b005b620005e862001836565b005b62000608600480360381019062000602919062002cef565b620018e6565b60405162000617919062003b8e565b60405180910390f35b6200063e600480360381019062000638919062002f01565b6200192f565b005b6200065e600480360381019062000658919062002e9d565b62001c2e565b005b6200067e600480360381019062000678919062002cef565b62001db4565b6040516200068d919062003842565b60405180910390f35b620006a062001e42565b005b620006ac62001f44565b005b620006b862001ff4565b005b620006d86004803603810190620006d2919062002d21565b620026f1565b604051620006e7919062003b8e565b60405180910390f35b6200070e600480360381019062000708919062002d21565b6200271a565b6040516200071d919062003b8e565b60405180910390f35b6200073062002743565b6040516200073f91906200387d565b60405180910390f35b6200075262002756565b005b6200077260048036038101906200076c919062002e9d565b62002963565b60405162000781919062003678565b60405180910390f35b62000794620029ae565b604051620007a3919062003678565b60405180910390f35b6000601260009054906101000a900473ffffffffffffffffffffffffffffffffffffffff1673ffffffffffffffffffffffffffffffffffffffff166370a08231306040518263ffffffff1660e01b81526004016200080b919062003678565b60206040518083038186803b1580156200082457600080fd5b505afa15801562000839573d6000803e3d6000fd5b505050506040513d601f19601f820116820180604052508101906200085f919062002ecf565b905090565b600660159054906101000a900460ff1681565b600760205281600052604060002081600881106200089457600080fd5b01600091509150505481565b600660009054906101000a900473ffffffffffffffffffffffffffffffffffffffff1673ffffffffffffffffffffffffffffffffffffffff163373ffffffffffffffffffffffffffffffffffffffff161462000933576040517f08c379a00000000000000000000000000000000000000000000000000000000081526004016200092a9062003aa0565b60405180910390fd5b6000601260009054906101000a900473ffffffffffffffffffffffffffffffffffffffff1673ffffffffffffffffffffffffffffffffffffffff166370a08231306040518263ffffffff1660e01b815260040162000992919062003678565b60206040518083038186803b158015620009ab57600080fd5b505afa158015620009c0573d6000803e3d6000fd5b505050506040513d601f19601f82011682018060405250810190620009e6919062002ecf565b905062000a286040518060400160405280601a81526020017f43414c43554c4154494e47204c45414755452057494e4e455253000000000000815250620029d4565b73__$36fdb4e0c2cb91f3ceca5ea81b025328f3$__63cc9b40cc600c600a600d6040518463ffffffff1660e01b815260040162000a6893929190620037a6565b60006040518083038186803b15801562000a8157600080fd5b505af415801562000a96573d6000803e3d6000fd5b505050506000600d805490508262000aaf919062003dd6565b90507f648f2405ea194f3e49fe1655279883b3474e63909ab7e4a579b051d548ad8389600d8260405162000ae5929190620037ea565b60405180910390a160005b600d8054905081101562000cc357601260009054906101000a900473ffffffffffffffffffffffffffffffffffffffff1673ffffffffffffffffffffffffffffffffffffffff1663095ea7b330846040518363ffffffff1660e01b815260040162000b5d929190620036ff565b602060405180830381600087803b15801562000b7857600080fd5b505af115801562000b8d573d6000803e3d6000fd5b505050506040513d601f19601f8201168201806040525081019062000bb3919062002d68565b50601260009054906101000a900473ffffffffffffffffffffffffffffffffffffffff1673ffffffffffffffffffffffffffffffffffffffff166323b872dd30600d848154811062000c0a5762000c09620040dd565b5b9060005260206000200160009054906101000a900473ffffffffffffffffffffffffffffffffffffffff16856040518463ffffffff1660e01b815260040162000c5693929190620036c2565b602060405180830381600087803b15801562000c7157600080fd5b505af115801562000c86573d6000803e3d6000fd5b505050506040513d601f19601f8201168201806040525081019062000cac919062002d68565b50808062000cba9062004002565b91505062000af0565b505050565b600660009054906101000a900473ffffffffffffffffffffffffffffffffffffffff1681565b600c818154811062000cff57600080fd5b906000526020600020016000915054906101000a900473ffffffffffffffffffffffffffffffffffffffff1681565b6000600660159054906101000a900460ff16905090565b600a6020528060005260406000206000915090505481565b6060600e6000838152602001908152602001600020805480602002602001604051908101604052809291908181526020016000905b8282101562000e4357838290600052602060002090600202016040518060200160405290816000820160028060200260405190810160405280929190826002801562000e2a576020028201915b8160009054906101000a900473ffffffffffffffffffffffffffffffffffffffff1673ffffffffffffffffffffffffffffffffffffffff168152602001906001019080831162000ddf575b5050505050815250508152602001906001019062000d92565b505050509050919050565b62000e5862002ad0565b600960008373ffffffffffffffffffffffffffffffffffffffff1673ffffffffffffffffffffffffffffffffffffffff16815260200190815260200160002060088060200260405190810160405280929190826008801562000ed0576020028201915b81548152602001906001019080831162000ebb575b50505050509050919050565b60045481565b6000600c80549050905090565b62000ef962002ad0565b600760008373ffffffffffffffffffffffffffffffffffffffff1673ffffffffffffffffffffffffffffffffffffffff16815260200190815260200160002060088060200260405190810160405280929190826008801562000f71576020028201915b81548152602001906001019080831162000f5c575b50505050509050919050565b600660149054906101000a900460ff1681565b6000600560009054906101000a900473ffffffffffffffffffffffffffffffffffffffff16905090565b600560009054906101000a900473ffffffffffffffffffffffffffffffffffffffff1673ffffffffffffffffffffffffffffffffffffffff163373ffffffffffffffffffffffffffffffffffffffff16146200104d576040517f08c379a0000000000000000000000000000000000000000000000000000000008152600401620010449062003a7e565b60405180910390fd5b600660149054906101000a900460ff1615620010a0576040517f08c379a0000000000000000000000000000000000000000000000000000000008152600401620010979062003b06565b60405180910390fd5b601060009054906101000a900473ffffffffffffffffffffffffffffffffffffffff1673ffffffffffffffffffffffffffffffffffffffff16637b9417c8826040518263ffffffff1660e01b8152600401620010fd919062003678565b602060405180830381600087803b1580156200111857600080fd5b505af11580156200112d573d6000803e3d6000fd5b505050506040513d601f19601f8201168201806040525081019062001153919062002d68565b50601160009054906101000a900473ffffffffffffffffffffffffffffffffffffffff1673ffffffffffffffffffffffffffffffffffffffff1663771bd4ce826040518263ffffffff1660e01b8152600401620011b1919062003678565b600060405180830381600087803b158015620011cc57600080fd5b505af1158015620011e1573d6000803e3d6000fd5b5050505050565b601260009054906101000a900473ffffffffffffffffffffffffffffffffffffffff1681565b60035481565b60028054620012239062003fae565b80601f0160208091040260200160405190810160405280929190818152602001828054620012519062003fae565b8015620012a25780601f106200127657610100808354040283529160200191620012a2565b820191906000526020600020905b8154815290600101906020018083116200128457829003601f168201915b505050505081565b601060009054906101000a900473ffffffffffffffffffffffffffffffffffffffff1681565b600560009054906101000a900473ffffffffffffffffffffffffffffffffffffffff1673ffffffffffffffffffffffffffffffffffffffff163373ffffffffffffffffffffffffffffffffffffffff161462001363576040517f08c379a00000000000000000000000000000000000000000000000000000000081526004016200135a9062003a7e565b60405180910390fd5b600660149054906101000a900460ff1615620013b6576040517f08c379a0000000000000000000000000000000000000000000000000000000008152600401620013ad9062003b06565b60405180910390fd5b601060009054906101000a900473ffffffffffffffffffffffffffffffffffffffff1673ffffffffffffffffffffffffffffffffffffffff1663286dd3f5826040518263ffffffff1660e01b815260040162001413919062003678565b602060405180830381600087803b1580156200142e57600080fd5b505af115801562001443573d6000803e3d6000fd5b505050506040513d601f19601f8201168201806040525081019062001469919062002d68565b5050565b600b6020528060005260406000206000915054906101000a900460ff1681565b600060019054906101000a900460ff16620014b75760008054906101000a900460ff1615620014c2565b620014c162002a71565b5b62001504576040517f08c379a0000000000000000000000000000000000000000000000000000000008152600401620014fb9062003a5c565b60405180910390fd5b60008060019054906101000a900460ff16159050801562001555576001600060016101000a81548160ff02191690831515021790555060016000806101000a81548160ff0219169083151502179055505b8a8a600291906200156892919062002af3565b50600860038190555085600560006101000a81548173ffffffffffffffffffffffffffffffffffffffff021916908373ffffffffffffffffffffffffffffffffffffffff1602179055508860048190555087600660166101000a81548160ff0219169083151502179055506000600660146101000a81548160ff0219169083151502179055506000600660156101000a81548160ff02191690831515021790555086600f60006101000a81548173ffffffffffffffffffffffffffffffffffffffff021916908373ffffffffffffffffffffffffffffffffffffffff16021790555081601160006101000a81548173ffffffffffffffffffffffffffffffffffffffff021916908373ffffffffffffffffffffffffffffffffffffffff160217905550876040516200169a9062002b84565b620016a691906200387d565b604051809103906000f080158015620016c3573d6000803e3d6000fd5b50601060006101000a81548173ffffffffffffffffffffffffffffffffffffffff021916908373ffffffffffffffffffffffffffffffffffffffff16021790555084601260006101000a81548173ffffffffffffffffffffffffffffffffffffffff021916908373ffffffffffffffffffffffffffffffffffffffff16021790555082600660006101000a81548173ffffffffffffffffffffffffffffffffffffffff021916908373ffffffffffffffffffffffffffffffffffffffff16021790555083601360006101000a81548173ffffffffffffffffffffffffffffffffffffffff021916908373ffffffffffffffffffffffffffffffffffffffff160217905550620018076040518060400160405280601281526020017f50726f787920696e697469616c697a6564210000000000000000000000000000815250620029d4565b8015620018295760008060016101000a81548160ff0219169083151502179055505b5050505050505050505050565b600660009054906101000a900473ffffffffffffffffffffffffffffffffffffffff1673ffffffffffffffffffffffffffffffffffffffff163373ffffffffffffffffffffffffffffffffffffffff1614620018c9576040517f08c379a0000000000000000000000000000000000000000000000000000000008152600401620018c09062003aa0565b60405180910390fd5b6000600660156101000a81548160ff021916908315150217905550565b6000600a60008373ffffffffffffffffffffffffffffffffffffffff1673ffffffffffffffffffffffffffffffffffffffff168152602001908152602001600020549050919050565b600660159054906101000a900460ff161562001982576040517f08c379a0000000000000000000000000000000000000000000000000000000008152600401620019799062003a3a565b60405180910390fd5b600b60003373ffffffffffffffffffffffffffffffffffffffff1673ffffffffffffffffffffffffffffffffffffffff16815260200190815260200160002060009054906101000a900460ff1662001a11576040517f08c379a000000000000000000000000000000000000000000000000000000000815260040162001a089062003ac2565b60405180910390fd5b6000601360009054906101000a900473ffffffffffffffffffffffffffffffffffffffff1673ffffffffffffffffffffffffffffffffffffffff1662fdd58e33856040518363ffffffff1660e01b815260040162001a71929190620036ff565b60206040518083038186803b15801562001a8a57600080fd5b505afa15801562001a9f573d6000803e3d6000fd5b505050506040513d601f19601f8201168201806040525081019062001ac5919062002ecf565b1162001b08576040517f08c379a000000000000000000000000000000000000000000000000000000000815260040162001aff9062003b28565b60405180910390fd5b600a8162001b17919062003e0e565b821015801562001b5157506001600a60018362001b35919062003d79565b62001b41919062003e0e565b62001b4d919062003e6f565b8211155b62001b93576040517f08c379a000000000000000000000000000000000000000000000000000000000815260040162001b8a90620039f6565b60405180910390fd5b81600860003373ffffffffffffffffffffffffffffffffffffffff1673ffffffffffffffffffffffffffffffffffffffff168152602001908152602001600020826005811062001be85762001be7620040dd565b5b01819055507f3cfdf147aadd79819d84786e9ecc684d6f3a96df00f508952e97cb7dc3fb328333838360405162001c229392919062003769565b60405180910390a15050565b600660009054906101000a900473ffffffffffffffffffffffffffffffffffffffff1673ffffffffffffffffffffffffffffffffffffffff163373ffffffffffffffffffffffffffffffffffffffff161462001cc1576040517f08c379a000000000000000000000000000000000000000000000000000000000815260040162001cb89062003aa0565b60405180910390fd5b600660149054906101000a900460ff1662001d13576040517f08c379a000000000000000000000000000000000000000000000000000000000815260040162001d0a90620039d4565b60405180910390fd5b73__$36fdb4e0c2cb91f3ceca5ea81b025328f3$__6303626e8482600f60009054906101000a900473ffffffffffffffffffffffffffffffffffffffff1660076008600a6009600e6040518863ffffffff1660e01b815260040162001d7f979695949392919062003bab565b60006040518083038186803b15801562001d9857600080fd5b505af415801562001dad573d6000803e3d6000fd5b5050505050565b62001dbe62002b92565b600860008373ffffffffffffffffffffffffffffffffffffffff1673ffffffffffffffffffffffffffffffffffffffff16815260200190815260200160002060058060200260405190810160405280929190826005801562001e36576020028201915b81548152602001906001019080831162001e21575b50505050509050919050565b600560009054906101000a900473ffffffffffffffffffffffffffffffffffffffff1673ffffffffffffffffffffffffffffffffffffffff163373ffffffffffffffffffffffffffffffffffffffff161462001ed5576040517f08c379a000000000000000000000000000000000000000000000000000000000815260040162001ecc9062003a7e565b60405180910390fd5b600660149054906101000a900460ff1662001f27576040517f08c379a000000000000000000000000000000000000000000000000000000000815260040162001f1e9062003ae4565b60405180910390fd5b6000600660146101000a81548160ff021916908315150217905550565b600660009054906101000a900473ffffffffffffffffffffffffffffffffffffffff1673ffffffffffffffffffffffffffffffffffffffff163373ffffffffffffffffffffffffffffffffffffffff161462001fd7576040517f08c379a000000000000000000000000000000000000000000000000000000000815260040162001fce9062003aa0565b60405180910390fd5b6001600660156101000a81548160ff021916908315150217905550565b600260015414156200203d576040517f08c379a0000000000000000000000000000000000000000000000000000000008152600401620020349062003b4a565b60405180910390fd5b6002600181905550600660149054906101000a900460ff161562002098576040517f08c379a00000000000000000000000000000000000000000000000000000000081526004016200208f9062003b6c565b60405180910390fd5b601060009054906101000a900473ffffffffffffffffffffffffffffffffffffffff1673ffffffffffffffffffffffffffffffffffffffff16639b19251a336040518263ffffffff1660e01b8152600401620020f5919062003678565b60206040518083038186803b1580156200210e57600080fd5b505afa15801562002123573d6000803e3d6000fd5b505050506040513d601f19601f8201168201806040525081019062002149919062002d68565b80620021f55750601060009054906101000a900473ffffffffffffffffffffffffffffffffffffffff1673ffffffffffffffffffffffffffffffffffffffff1663dc9a15356040518163ffffffff1660e01b815260040160206040518083038186803b158015620021b957600080fd5b505afa158015620021ce573d6000803e3d6000fd5b505050506040513d601f19601f82011682018060405250810190620021f4919062002d68565b5b806200224e5750600560009054906101000a900473ffffffffffffffffffffffffffffffffffffffff1673ffffffffffffffffffffffffffffffffffffffff163373ffffffffffffffffffffffffffffffffffffffff16145b62002290576040517f08c379a0000000000000000000000000000000000000000000000000000000008152600401620022879062003990565b60405180910390fd5b600b60003373ffffffffffffffffffffffffffffffffffffffff1673ffffffffffffffffffffffffffffffffffffffff16815260200190815260200160002060009054906101000a900460ff161562002320576040517f08c379a00000000000000000000000000000000000000000000000000000000081526004016200231790620039b2565b60405180910390fd5b600454601260009054906101000a900473ffffffffffffffffffffffffffffffffffffffff1673ffffffffffffffffffffffffffffffffffffffff166370a08231336040518263ffffffff1660e01b815260040162002380919062003678565b60206040518083038186803b1580156200239957600080fd5b505afa158015620023ae573d6000803e3d6000fd5b505050506040513d601f19601f82011682018060405250810190620023d4919062002ecf565b101562002418576040517f08c379a00000000000000000000000000000000000000000000000000000000081526004016200240f906200396e565b60405180910390fd5b601160009054906101000a900473ffffffffffffffffffffffffffffffffffffffff1673ffffffffffffffffffffffffffffffffffffffff1663771bd4ce336040518263ffffffff1660e01b815260040162002475919062003678565b600060405180830381600087803b1580156200249057600080fd5b505af1158015620024a5573d6000803e3d6000fd5b505050506001600b60003373ffffffffffffffffffffffffffffffffffffffff1673ffffffffffffffffffffffffffffffffffffffff16815260200190815260200160002060006101000a81548160ff021916908315150217905550600c339080600181540180825580915050600190039060005260206000200160009091909190916101000a81548173ffffffffffffffffffffffffffffffffffffffff021916908373ffffffffffffffffffffffffffffffffffffffff1602179055506040518060a00160405280606460ff168152602001606460ff168152602001606460ff168152602001606460ff168152602001606460ff16815250600860003373ffffffffffffffffffffffffffffffffffffffff1673ffffffffffffffffffffffffffffffffffffffff168152602001908152602001600020906005620025ee92919062002bb4565b50601260009054906101000a900473ffffffffffffffffffffffffffffffffffffffff1673ffffffffffffffffffffffffffffffffffffffff166323b872dd33306004546040518463ffffffff1660e01b81526004016200265293929190620036c2565b602060405180830381600087803b1580156200266d57600080fd5b505af115801562002682573d6000803e3d6000fd5b505050506040513d601f19601f82011682018060405250810190620026a8919062002d68565b507f9f9e4044c5742cca66ca090b21552bac14645e68bad7a92364a9d9ff18111a1c3360045430604051620026e0939291906200372c565b60405180910390a160018081905550565b600860205281600052604060002081600581106200270e57600080fd5b01600091509150505481565b600960205281600052604060002081600881106200273757600080fd5b01600091509150505481565b600660169054906101000a900460ff1681565b600660009054906101000a900473ffffffffffffffffffffffffffffffffffffffff1673ffffffffffffffffffffffffffffffffffffffff163373ffffffffffffffffffffffffffffffffffffffff161480620028005750600560009054906101000a900473ffffffffffffffffffffffffffffffffffffffff1673ffffffffffffffffffffffffffffffffffffffff163373ffffffffffffffffffffffffffffffffffffffff16145b62002842576040517f08c379a0000000000000000000000000000000000000000000000000000000008152600401620028399062003a18565b60405180910390fd5b600660149054906101000a900460ff161562002895576040517f08c379a00000000000000000000000000000000000000000000000000000000081526004016200288c906200394c565b60405180910390fd5b6001600660146101000a81548160ff02191690831515021790555073__$36fdb4e0c2cb91f3ceca5ea81b025328f3$__63d2c232b5600e600c60035460026040518563ffffffff1660e01b8152600401620028f49493929190620038d4565b60006040518083038186803b1580156200290d57600080fd5b505af415801562002922573d6000803e3d6000fd5b505050507f47e4bb41e46c32049c0f9618964277e228be362ef4c12d8b5049bde9634af8a833306040516200295992919062003695565b60405180910390a1565b6000600c82815481106200297c576200297b620040dd565b5b9060005260206000200160009054906101000a900473ffffffffffffffffffffffffffffffffffffffff169050919050565b600560009054906101000a900473ffffffffffffffffffffffffffffffffffffffff1681565b62002a6e81604051602401620029eb919062003928565b6040516020818303038152906040527f41304fac000000000000000000000000000000000000000000000000000000007bffffffffffffffffffffffffffffffffffffffffffffffffffffffff19166020820180517bffffffffffffffffffffffffffffffffffffffffffffffffffffffff838183161783525050505062002a84565b50565b600062002a7e3062002aad565b15905090565b60008151905060006a636f6e736f6c652e6c6f679050602083016000808483855afa5050505050565b6000808273ffffffffffffffffffffffffffffffffffffffff163b119050919050565b604051806101000160405280600890602082028036833780820191505090505090565b82805462002b019062003fae565b90600052602060002090601f01602090048101928262002b25576000855562002b71565b82601f1062002b4057803560ff191683800117855562002b71565b8280016001018555821562002b71579182015b8281111562002b7057823582559160200191906001019062002b53565b5b50905062002b80919062002bfe565b5090565b61124a806200459083390190565b6040518060a00160405280600590602082028036833780820191505090505090565b826005810192821562002beb579160200282015b8281111562002bea578251829060ff1690559160200191906001019062002bc8565b5b50905062002bfa919062002bfe565b5090565b5b8082111562002c1957600081600090555060010162002bff565b5090565b60008135905062002c2e8162004541565b92915050565b60008135905062002c45816200455b565b92915050565b60008151905062002c5c816200455b565b92915050565b60008083601f84011262002c7b5762002c7a62004126565b5b8235905067ffffffffffffffff81111562002c9b5762002c9a62004121565b5b60208301915083600182028301111562002cba5762002cb96200412b565b5b9250929050565b60008135905062002cd28162004575565b92915050565b60008151905062002ce98162004575565b92915050565b60006020828403121562002d085762002d0762004135565b5b600062002d188482850162002c1d565b91505092915050565b6000806040838503121562002d3b5762002d3a62004135565b5b600062002d4b8582860162002c1d565b925050602062002d5e8582860162002cc1565b9150509250929050565b60006020828403121562002d815762002d8062004135565b5b600062002d918482850162002c4b565b91505092915050565b6000806000806000806000806000806101208b8d03121562002dc15762002dc062004135565b5b60008b013567ffffffffffffffff81111562002de25762002de162004130565b5b62002df08d828e0162002c62565b9a509a5050602062002e058d828e0162002cc1565b985050604062002e188d828e0162002c34565b975050606062002e2b8d828e0162002c1d565b965050608062002e3e8d828e0162002c1d565b95505060a062002e518d828e0162002c1d565b94505060c062002e648d828e0162002c1d565b93505060e062002e778d828e0162002c1d565b92505061010062002e8b8d828e0162002c1d565b9150509295989b9194979a5092959850565b60006020828403121562002eb65762002eb562004135565b5b600062002ec68482850162002cc1565b91505092915050565b60006020828403121562002ee85762002ee762004135565b5b600062002ef88482850162002cd8565b91505092915050565b6000806040838503121562002f1b5762002f1a62004135565b5b600062002f2b8582860162002cc1565b925050602062002f3e8582860162002cc1565b9150509250929050565b600062002f56838362002fb0565b60208301905092915050565b600062002f70838362002fd2565b60208301905092915050565b600062002f8a838362003627565b60408301905092915050565b600062002fa4838362003645565b60208301905092915050565b62002fbb8162003eca565b82525050565b62002fcc8162003eca565b82525050565b62002fdd8162003eca565b82525050565b62002fee8162003c80565b62002ffa818462003d03565b9250620030078262003c28565b8060005b838110156200303e57815162003022878262002f48565b96506200302f8362003cc2565b9250506001810190506200300b565b505050505050565b6000620030538262003c8b565b6200305f818562003d0e565b93506200306c8362003c32565b8060005b83811015620030ac5762003084826200410c565b62003090888262002f48565b97506200309d8362003ccf565b92505060018101905062003070565b5085935050505092915050565b6000620030c68262003c8b565b620030d2818562003d1f565b9350620030df8362003c32565b8060005b838110156200311f57620030f7826200410c565b62003103888262002f62565b9750620031108362003ccf565b925050600181019050620030e3565b5085935050505092915050565b8082525050565b6000620031408262003c96565b6200314c818562003d30565b9350620031598362003c47565b8060005b838110156200319057815162003174888262002f7c565b9750620031818362003cdc565b9250506001810190506200315d565b5085935050505092915050565b620031a88162003ca1565b620031b4818462003d41565b9250620031c18262003c57565b8060005b83811015620031f8578151620031dc878262002f96565b9650620031e98362003ce9565b925050600181019050620031c5565b505050505050565b6200320b8162003cac565b62003217818462003d4c565b9250620032248262003c61565b8060005b838110156200325b5781516200323f878262002f96565b96506200324c8362003cf6565b92505060018101905062003228565b505050505050565b6200326e8162003ede565b82525050565b6200327f8162003f14565b82525050565b620032908162003f28565b82525050565b620032a18162003f3c565b82525050565b8082525050565b8082525050565b8082525050565b8082525050565b6000620032d08262003cb7565b620032dc818562003d57565b9350620032ee81856020860162003f78565b620032f9816200413a565b840191505092915050565b60008154620033138162003fae565b6200331f818662003d68565b945060018216600081146200333d5760018114620033505762003387565b60ff198316865260208601935062003387565b6200335b8562003c6b565b60005b838110156200337f578154818901526001820191506020810190506200335e565b808801955050505b50505092915050565b60006200339f60248362003d57565b9150620033ac8262004158565b604082019050919050565b6000620033c6601d8362003d57565b9150620033d382620041a7565b602082019050919050565b6000620033ed60188362003d57565b9150620033fa82620041d0565b602082019050919050565b60006200341460238362003d57565b91506200342182620041f9565b604082019050919050565b60006200343b603d8362003d57565b9150620034488262004248565b604082019050919050565b60006200346260318362003d57565b91506200346f8262004297565b604082019050919050565b600062003489601f8362003d57565b91506200349682620042e6565b602082019050919050565b6000620034b0601e8362003d57565b9150620034bd826200430f565b602082019050919050565b6000620034d7602e8362003d57565b9150620034e48262004338565b604082019050919050565b6000620034fe60178362003d57565b91506200350b8262004387565b602082019050919050565b60006200352560168362003d57565b91506200353282620043b0565b602082019050919050565b60006200354c60168362003d57565b91506200355982620043d9565b602082019050919050565b600062003573601c8362003d57565b9150620035808262004402565b602082019050919050565b60006200359a60418362003d57565b9150620035a7826200442b565b606082019050919050565b6000620035c160248362003d57565b9150620035ce82620044a0565b604082019050919050565b6000620035e8601f8362003d57565b9150620035f582620044ef565b602082019050919050565b60006200360f60178362003d57565b91506200361c8262004518565b602082019050919050565b6040820160008201516200363f600085018262002fe3565b50505050565b620036508162003f0a565b82525050565b620036618162003f0a565b82525050565b620036728162003f0a565b82525050565b60006020820190506200368f600083018462002fc1565b92915050565b6000604082019050620036ac600083018562002fc1565b620036bb602083018462002fc1565b9392505050565b6000606082019050620036d9600083018662002fc1565b620036e8602083018562002fc1565b620036f7604083018462003656565b949350505050565b600060408201905062003716600083018562002fc1565b62003725602083018462003656565b9392505050565b600060608201905062003743600083018662002fc1565b62003752602083018562003656565b62003761604083018462002fc1565b949350505050565b600060608201905062003780600083018662002fc1565b6200378f602083018562003656565b6200379e604083018462003656565b949350505050565b60006060820190508181036000830152620037c28186620030b9565b9050620037d36020830185620032b5565b620037e260408301846200312c565b949350505050565b6000604082019050818103600083015262003806818562003046565b905062003817602083018462003656565b9392505050565b600060208201905081810360008301526200383a818462003133565b905092915050565b600060a0820190506200385960008301846200319d565b92915050565b60006101008201905062003877600083018462003200565b92915050565b600060208201905062003894600083018462003263565b92915050565b6000602082019050620038b1600083018462003285565b92915050565b6000602082019050620038ce600083018462003296565b92915050565b6000608082019050620038eb6000830187620032bc565b620038fa60208301866200312c565b62003909604083018562003667565b81810360608301526200391d818462003304565b905095945050505050565b60006020820190508181036000830152620039448184620032c3565b905092915050565b60006020820190508181036000830152620039678162003390565b9050919050565b600060208201905081810360008301526200398981620033b7565b9050919050565b60006020820190508181036000830152620039ab81620033de565b9050919050565b60006020820190508181036000830152620039cd8162003405565b9050919050565b60006020820190508181036000830152620039ef816200342c565b9050919050565b6000602082019050818103600083015262003a118162003453565b9050919050565b6000602082019050818103600083015262003a33816200347a565b9050919050565b6000602082019050818103600083015262003a5581620034a1565b9050919050565b6000602082019050818103600083015262003a7781620034c8565b9050919050565b6000602082019050818103600083015262003a9981620034ef565b9050919050565b6000602082019050818103600083015262003abb8162003516565b9050919050565b6000602082019050818103600083015262003add816200353d565b9050919050565b6000602082019050818103600083015262003aff8162003564565b9050919050565b6000602082019050818103600083015262003b21816200358b565b9050919050565b6000602082019050818103600083015262003b4381620035b2565b9050919050565b6000602082019050818103600083015262003b6581620035d9565b9050919050565b6000602082019050818103600083015262003b878162003600565b9050919050565b600060208201905062003ba5600083018462003656565b92915050565b600060e08201905062003bc2600083018a62003667565b62003bd1602083018962003274565b62003be06040830188620032ae565b62003bef6060830187620032a7565b62003bfe6080830186620032b5565b62003c0d60a0830185620032ae565b62003c1c60c0830184620032bc565b98975050505050505050565b6000819050919050565b60008190508160005260206000209050919050565b6000819050602082019050919050565b6000819050919050565b6000819050919050565b60008190508160005260206000209050919050565b600060029050919050565b600081549050919050565b600081519050919050565b600060059050919050565b600060089050919050565b600081519050919050565b6000602082019050919050565b6000600182019050919050565b6000602082019050919050565b6000602082019050919050565b6000602082019050919050565b600081905092915050565b600082825260208201905092915050565b600082825260208201905092915050565b600082825260208201905092915050565b600081905092915050565b600081905092915050565b600082825260208201905092915050565b600082825260208201905092915050565b600062003d868262003f0a565b915062003d938362003f0a565b9250827fffffffffffffffffffffffffffffffffffffffffffffffffffffffffffffffff0382111562003dcb5762003dca62004050565b5b828201905092915050565b600062003de38262003f0a565b915062003df08362003f0a565b92508262003e035762003e026200407f565b5b828204905092915050565b600062003e1b8262003f0a565b915062003e288362003f0a565b9250817fffffffffffffffffffffffffffffffffffffffffffffffffffffffffffffffff048311821515161562003e645762003e6362004050565b5b828202905092915050565b600062003e7c8262003f0a565b915062003e898362003f0a565b92508282101562003e9f5762003e9e62004050565b5b828203905092915050565b600073ffffffffffffffffffffffffffffffffffffffff82169050919050565b600062003ed78262003eea565b9050919050565b60008115159050919050565b600073ffffffffffffffffffffffffffffffffffffffff82169050919050565b6000819050919050565b600062003f218262003f50565b9050919050565b600062003f358262003f50565b9050919050565b600062003f498262003f50565b9050919050565b600062003f5d8262003f64565b9050919050565b600062003f718262003eea565b9050919050565b60005b8381101562003f9857808201518184015260208101905062003f7b565b8381111562003fa8576000848401525b50505050565b6000600282049050600182168062003fc757607f821691505b6020821081141562003fde5762003fdd620040ae565b5b50919050565b600062003ffb62003ff5836200414b565b62003eaa565b9050919050565b60006200400f8262003f0a565b91507fffffffffffffffffffffffffffffffffffffffffffffffffffffffffffffffff82141562004045576200404462004050565b5b600182019050919050565b7f4e487b7100000000000000000000000000000000000000000000000000000000600052601160045260246000fd5b7f4e487b7100000000000000000000000000000000000000000000000000000000600052601260045260246000fd5b7f4e487b7100000000000000000000000000000000000000000000000000000000600052602260045260246000fd5b7f4e487b7100000000000000000000000000000000000000000000000000000000600052603260045260246000fd5b60006200411a825462003fe4565b9050919050565b600080fd5b600080fd5b600080fd5b600080fd5b600080fd5b6000601f19601f8301169050919050565b60008160001c9050919050565b7f4c656167756520656e7472792068617320616c7265616479206265656e20636c60008201527f6f73656400000000000000000000000000000000000000000000000000000000602082015250565b7f496e737566666963656e742066756e647320666f72207374616b696e67000000600082015250565b7f55736572206973206e6f74206f6e2077686974656c6973740000000000000000600082015250565b7f596f75206861766520616c7265616479206a6f696e65642074686973206c656160008201527f6775650000000000000000000000000000000000000000000000000000000000602082015250565b7f6c656167756520656e747279206e6f7420636c6f7365642c20616e642073636860008201527f6564756c65206e6f742073657420666f722074686973206c6561677565000000602082015250565b7f596f75206172652073657474696e6720616e206174686c65746520696e20746860008201527f652077726f6e6720706f736974696f6e21000000000000000000000000000000602082015250565b7f43616c6c6572206973206e6f74205465616d44696666206f722041646d696e00600082015250565b7f6c696e657570206973206c6f636b656420666f7220746865207765656b210000600082015250565b7f496e697469616c697a61626c653a20636f6e747261637420697320616c72656160008201527f647920696e697469616c697a6564000000000000000000000000000000000000602082015250565b7f43616c6c6572206973206e6f74207468652061646d696e000000000000000000600082015250565b7f43616c6c6572206973206e6f74205465616d4469666600000000000000000000600082015250565b7f55736572206973206e6f7420696e204c65616775652e00000000000000000000600082015250565b7f4c656167756520656e74727920697320616c7265616479206f70656e00000000600082015250565b7f4e6f626f64792063616e20656e7465722f6578697420746865206c656167756560008201527f20616e796d6f72652e2054686520736561736f6e20686173207374617274656460208201527f2100000000000000000000000000000000000000000000000000000000000000604082015250565b7f43616c6c657220646f6573206e6f74206f776e20676976656e206174686c657460008201527f6549647300000000000000000000000000000000000000000000000000000000602082015250565b7f5265656e7472616e637947756172643a207265656e7472616e742063616c6c00600082015250565b7f4c656167756520456e74727920697320436c6f73656421000000000000000000600082015250565b6200454c8162003eca565b81146200455857600080fd5b50565b620045668162003ede565b81146200457257600080fd5b50565b620045808162003f0a565b81146200458c57600080fd5b5056fe60806040523480156200001157600080fd5b506040516200124a3803806200124a83398181016040528101906200003791906200015b565b620000576200004b6200007860201b60201c565b6200008060201b60201c565b80600460006101000a81548160ff02191690831515021790555050620001b8565b600033905090565b60008060009054906101000a900473ffffffffffffffffffffffffffffffffffffffff169050816000806101000a81548173ffffffffffffffffffffffffffffffffffffffff021916908373ffffffffffffffffffffffffffffffffffffffff1602179055508173ffffffffffffffffffffffffffffffffffffffff168173ffffffffffffffffffffffffffffffffffffffff167f8be0079c531659141344cd1fd0a4f28419497f9722a3daafe3b4186f6b6457e060405160405180910390a35050565b60008151905062000155816200019e565b92915050565b60006020828403121562000174576200017362000199565b5b6000620001848482850162000144565b91505092915050565b60008115159050919050565b600080fd5b620001a9816200018d565b8114620001b557600080fd5b50565b61108280620001c86000396000f3fe608060405234801561001057600080fd5b50600436106100b45760003560e01c80639b19251a116100715780639b19251a1461018f578063ba4e5c49146101bf578063dc9a1535146101ef578063e2ec6ec31461020d578063e35a89991461023d578063f2fde38b1461026d576100b4565b806324953eaa146100b9578063286dd3f5146100e957806344eaa84e14610119578063715018a6146101375780637b9417c8146101415780638da5cb5b14610171575b600080fd5b6100d360048036038101906100ce9190610bcc565b610289565b6040516100e09190610cd0565b60405180910390f35b61010360048036038101906100fe9190610b9f565b610359565b6040516101109190610cd0565b60405180910390f35b6101216104dc565b60405161012e9190610d2b565b60405180910390f35b61013f6104e6565b005b61015b60048036038101906101569190610b9f565b61056e565b6040516101689190610cd0565b60405180910390f35b610179610752565b6040516101869190610cb5565b60405180910390f35b6101a960048036038101906101a49190610b9f565b61077b565b6040516101b69190610cd0565b60405180910390f35b6101d960048036038101906101d49190610c15565b61079b565b6040516101e69190610cb5565b60405180910390f35b6101f76107da565b6040516102049190610cd0565b60405180910390f35b61022760048036038101906102229190610bcc565b6107ed565b6040516102349190610cd0565b60405180910390f35b61025760048036038101906102529190610b9f565b6108bd565b6040516102649190610cd0565b60405180910390f35b61028760048036038101906102829190610b9f565b610913565b005b6000610293610a0b565b73ffffffffffffffffffffffffffffffffffffffff166102b1610752565b73ffffffffffffffffffffffffffffffffffffffff1614610307576040517f08c379a00000000000000000000000000000000000000000000000000000000081526004016102fe90610d0b565b60405180910390fd5b60005b82518110156103535761033683828151811061032957610328610f23565b5b6020026020010151610359565b1561034057600191505b808061034b90610eab565b91505061030a565b50919050565b6000610363610a0b565b73ffffffffffffffffffffffffffffffffffffffff16610381610752565b73ffffffffffffffffffffffffffffffffffffffff16146103d7576040517f08c379a00000000000000000000000000000000000000000000000000000000081526004016103ce90610d0b565b60405180910390fd5b600160008373ffffffffffffffffffffffffffffffffffffffff1673ffffffffffffffffffffffffffffffffffffffff16815260200190815260200160002060009054906101000a900460ff16156104d7576000600160008473ffffffffffffffffffffffffffffffffffffffff1673ffffffffffffffffffffffffffffffffffffffff16815260200190815260200160002060006101000a81548160ff0219169083151502179055507ff1abf01a1043b7c244d128e8595cf0c1d10743b022b03a02dffd8ca3bf729f5a826040516104b09190610cb5565b60405180910390a16001600360008282546104cb9190610dfe565b92505081905550600190505b919050565b6000600354905090565b6104ee610a0b565b73ffffffffffffffffffffffffffffffffffffffff1661050c610752565b73ffffffffffffffffffffffffffffffffffffffff1614610562576040517f08c379a000000000000000000000000000000000000000000000000000000000815260040161055990610d0b565b60405180910390fd5b61056c6000610a13565b565b6000610578610a0b565b73ffffffffffffffffffffffffffffffffffffffff16610596610752565b73ffffffffffffffffffffffffffffffffffffffff16146105ec576040517f08c379a00000000000000000000000000000000000000000000000000000000081526004016105e390610d0b565b60405180910390fd5b600160008373ffffffffffffffffffffffffffffffffffffffff1673ffffffffffffffffffffffffffffffffffffffff16815260200190815260200160002060009054906101000a900460ff1661074d5760018060008473ffffffffffffffffffffffffffffffffffffffff1673ffffffffffffffffffffffffffffffffffffffff16815260200190815260200160002060006101000a81548160ff0219169083151502179055506002829080600181540180825580915050600190039060005260206000200160009091909190916101000a81548173ffffffffffffffffffffffffffffffffffffffff021916908373ffffffffffffffffffffffffffffffffffffffff1602179055507fd1bba68c128cc3f427e5831b3c6f99f480b6efa6b9e80c757768f6124158cc3f826040516107269190610cb5565b60405180910390a16001600360008282546107419190610da8565b92505081905550600190505b919050565b60008060009054906101000a900473ffffffffffffffffffffffffffffffffffffffff16905090565b60016020528060005260406000206000915054906101000a900460ff1681565b600281815481106107ab57600080fd5b906000526020600020016000915054906101000a900473ffffffffffffffffffffffffffffffffffffffff1681565b600460009054906101000a900460ff1681565b60006107f7610a0b565b73ffffffffffffffffffffffffffffffffffffffff16610815610752565b73ffffffffffffffffffffffffffffffffffffffff161461086b576040517f08c379a000000000000000000000000000000000000000000000000000000000815260040161086290610d0b565b60405180910390fd5b60005b82518110156108b75761089a83828151811061088d5761088c610f23565b5b602002602001015161056e565b156108a457600191505b80806108af90610eab565b91505061086e565b50919050565b6000600160008373ffffffffffffffffffffffffffffffffffffffff1673ffffffffffffffffffffffffffffffffffffffff16815260200190815260200160002060009054906101000a900460ff169050919050565b61091b610a0b565b73ffffffffffffffffffffffffffffffffffffffff16610939610752565b73ffffffffffffffffffffffffffffffffffffffff161461098f576040517f08c379a000000000000000000000000000000000000000000000000000000000815260040161098690610d0b565b60405180910390fd5b600073ffffffffffffffffffffffffffffffffffffffff168173ffffffffffffffffffffffffffffffffffffffff1614156109ff576040517f08c379a00000000000000000000000000000000000000000000000000000000081526004016109f690610ceb565b60405180910390fd5b610a0881610a13565b50565b600033905090565b60008060009054906101000a900473ffffffffffffffffffffffffffffffffffffffff169050816000806101000a81548173ffffffffffffffffffffffffffffffffffffffff021916908373ffffffffffffffffffffffffffffffffffffffff1602179055508173ffffffffffffffffffffffffffffffffffffffff168173ffffffffffffffffffffffffffffffffffffffff167f8be0079c531659141344cd1fd0a4f28419497f9722a3daafe3b4186f6b6457e060405160405180910390a35050565b6000610aea610ae584610d6b565b610d46565b90508083825260208201905082856020860282011115610b0d57610b0c610f86565b5b60005b85811015610b3d5781610b238882610b47565b845260208401935060208301925050600181019050610b10565b5050509392505050565b600081359050610b568161101e565b92915050565b600082601f830112610b7157610b70610f81565b5b8135610b81848260208601610ad7565b91505092915050565b600081359050610b9981611035565b92915050565b600060208284031215610bb557610bb4610f90565b5b6000610bc384828501610b47565b91505092915050565b600060208284031215610be257610be1610f90565b5b600082013567ffffffffffffffff811115610c0057610bff610f8b565b5b610c0c84828501610b5c565b91505092915050565b600060208284031215610c2b57610c2a610f90565b5b6000610c3984828501610b8a565b91505092915050565b610c4b81610e32565b82525050565b610c5a81610e44565b82525050565b6000610c6d602683610d97565b9150610c7882610fa6565b604082019050919050565b6000610c90602083610d97565b9150610c9b82610ff5565b602082019050919050565b610caf81610e70565b82525050565b6000602082019050610cca6000830184610c42565b92915050565b6000602082019050610ce56000830184610c51565b92915050565b60006020820190508181036000830152610d0481610c60565b9050919050565b60006020820190508181036000830152610d2481610c83565b9050919050565b6000602082019050610d406000830184610ca6565b92915050565b6000610d50610d61565b9050610d5c8282610e7a565b919050565b6000604051905090565b600067ffffffffffffffff821115610d8657610d85610f52565b5b602082029050602081019050919050565b600082825260208201905092915050565b6000610db382610e70565b9150610dbe83610e70565b9250827fffffffffffffffffffffffffffffffffffffffffffffffffffffffffffffffff03821115610df357610df2610ef4565b5b828201905092915050565b6000610e0982610e70565b9150610e1483610e70565b925082821015610e2757610e26610ef4565b5b828203905092915050565b6000610e3d82610e50565b9050919050565b60008115159050919050565b600073ffffffffffffffffffffffffffffffffffffffff82169050919050565b6000819050919050565b610e8382610f95565b810181811067ffffffffffffffff82111715610ea257610ea1610f52565b5b80604052505050565b6000610eb682610e70565b91507fffffffffffffffffffffffffffffffffffffffffffffffffffffffffffffffff821415610ee957610ee8610ef4565b5b600182019050919050565b7f4e487b7100000000000000000000000000000000000000000000000000000000600052601160045260246000fd5b7f4e487b7100000000000000000000000000000000000000000000000000000000600052603260045260246000fd5b7f4e487b7100000000000000000000000000000000000000000000000000000000600052604160045260246000fd5b600080fd5b600080fd5b600080fd5b600080fd5b6000601f19601f8301169050919050565b7f4f776e61626c653a206e6577206f776e657220697320746865207a65726f206160008201527f6464726573730000000000000000000000000000000000000000000000000000602082015250565b7f4f776e61626c653a2063616c6c6572206973206e6f7420746865206f776e6572600082015250565b61102781610e32565b811461103257600080fd5b50565b61103e81610e70565b811461104957600080fd5b5056fea2646970667358221220635703a5913b9257d1fabb352d24d1c2e635548b5680032c0cad3aaac84a900264736f6c63430008070033a26469706673582212204e5bca4fd88ba67cc8ee1f4b2982a1fdb275cc7b4427114264cebb45d1119ecc64736f6c63430008070033",
  "linkReferences": {
    "contracts/MOBALogicLibrary.sol": {
      "MOBALogicLibrary": [
        {
          "length": 20,
          "start": 2641
        },
        {
          "length": 20,
          "start": 7484
        },
        {
          "length": 20,
          "start": 10457
        }
      ]
    }
  },
  "deployedLinkReferences": {
    "contracts/MOBALogicLibrary.sol": {
      "MOBALogicLibrary": [
        {
          "length": 20,
          "start": 2602
        },
        {
          "length": 20,
          "start": 7445
        },
        {
          "length": 20,
          "start": 10418
        }
      ]
    }
  }
}