{
  "_format": "hh-sol-artifact-1",
  "contractName": "LeagueOfLegendsLogic",
  "sourceName": "contracts/LeagueOfLegendsLogic.sol",
  "abi": [
    {
      "anonymous": false,
      "inputs": [
        {
          "indexed": true,
          "internalType": "address",
          "name": "previousOwner",
          "type": "address"
        },
        {
          "indexed": true,
          "internalType": "address",
          "name": "newOwner",
          "type": "address"
        }
      ],
      "name": "OwnershipTransferred",
      "type": "event"
    },
    {
      "anonymous": false,
      "inputs": [
        {
          "indexed": true,
          "internalType": "bytes32",
          "name": "role",
          "type": "bytes32"
        },
        {
          "indexed": true,
          "internalType": "bytes32",
          "name": "previousAdminRole",
          "type": "bytes32"
        },
        {
          "indexed": true,
          "internalType": "bytes32",
          "name": "newAdminRole",
          "type": "bytes32"
        }
      ],
      "name": "RoleAdminChanged",
      "type": "event"
    },
    {
      "anonymous": false,
      "inputs": [
        {
          "indexed": true,
          "internalType": "bytes32",
          "name": "role",
          "type": "bytes32"
        },
        {
          "indexed": true,
          "internalType": "address",
          "name": "account",
          "type": "address"
        },
        {
          "indexed": true,
          "internalType": "address",
          "name": "sender",
          "type": "address"
        }
      ],
      "name": "RoleGranted",
      "type": "event"
    },
    {
      "anonymous": false,
      "inputs": [
        {
          "indexed": true,
          "internalType": "bytes32",
          "name": "role",
          "type": "bytes32"
        },
        {
          "indexed": true,
          "internalType": "address",
          "name": "account",
          "type": "address"
        },
        {
          "indexed": true,
          "internalType": "address",
          "name": "sender",
          "type": "address"
        }
      ],
      "name": "RoleRevoked",
      "type": "event"
    },
    {
      "anonymous": false,
      "inputs": [
        {
          "indexed": false,
          "internalType": "address",
          "name": "sender",
          "type": "address"
        },
        {
          "indexed": false,
          "internalType": "uint256",
          "name": "amount",
          "type": "uint256"
        }
      ],
      "name": "Staked",
      "type": "event"
    },
    {
      "anonymous": false,
      "inputs": [
        {
          "indexed": false,
          "internalType": "address",
          "name": "addr",
          "type": "address"
        }
      ],
      "name": "WhitelistedAddressAdded",
      "type": "event"
    },
    {
      "anonymous": false,
      "inputs": [
        {
          "indexed": false,
          "internalType": "address",
          "name": "addr",
          "type": "address"
        }
      ],
      "name": "WhitelistedAddressRemoved",
      "type": "event"
    },
    {
      "anonymous": false,
      "inputs": [
        {
          "indexed": false,
          "internalType": "address",
          "name": "sender",
          "type": "address"
        },
        {
          "indexed": false,
          "internalType": "address",
          "name": "contractAddress",
          "type": "address"
        }
      ],
      "name": "testUSDCDeployed",
      "type": "event"
    },
    {
      "inputs": [],
      "name": "DEFAULT_ADMIN_ROLE",
      "outputs": [
        {
          "internalType": "bytes32",
          "name": "",
          "type": "bytes32"
        }
      ],
      "stateMutability": "view",
      "type": "function"
    },
    {
      "inputs": [
        {
          "internalType": "address",
          "name": "addr",
          "type": "address"
        }
      ],
      "name": "addAddressToWhitelist",
      "outputs": [
        {
          "internalType": "bool",
          "name": "success",
          "type": "bool"
        }
      ],
      "stateMutability": "nonpayable",
      "type": "function"
    },
    {
      "inputs": [
        {
          "internalType": "address[]",
          "name": "addrs",
          "type": "address[]"
        }
      ],
      "name": "addAddressesToWhitelist",
      "outputs": [
        {
          "internalType": "bool",
          "name": "success",
          "type": "bool"
        }
      ],
      "stateMutability": "nonpayable",
      "type": "function"
    },
    {
      "inputs": [
        {
          "internalType": "address",
          "name": "user",
          "type": "address"
        }
      ],
      "name": "addUserToLeague",
      "outputs": [],
      "stateMutability": "nonpayable",
      "type": "function"
    },
    {
      "inputs": [
        {
          "internalType": "address",
          "name": "_userToAdd",
          "type": "address"
        }
      ],
      "name": "addUserToWhitelist",
      "outputs": [],
      "stateMutability": "nonpayable",
      "type": "function"
    },
    {
      "inputs": [],
      "name": "currentWeekNum",
      "outputs": [
        {
          "internalType": "uint256",
          "name": "",
          "type": "uint256"
        }
      ],
      "stateMutability": "view",
      "type": "function"
    },
    {
      "inputs": [],
      "name": "evaluateWeek",
      "outputs": [],
      "stateMutability": "nonpayable",
      "type": "function"
    },
    {
      "inputs": [],
      "name": "getAdmin",
      "outputs": [
        {
          "internalType": "address",
          "name": "",
          "type": "address"
        }
      ],
      "stateMutability": "view",
      "type": "function"
    },
    {
      "inputs": [],
      "name": "getLeagueName",
      "outputs": [
        {
          "internalType": "string",
          "name": "",
          "type": "string"
        }
      ],
      "stateMutability": "view",
      "type": "function"
    },
    {
      "inputs": [],
      "name": "getLineup",
      "outputs": [
        {
          "internalType": "uint256[]",
          "name": "",
          "type": "uint256[]"
        }
      ],
      "stateMutability": "view",
      "type": "function"
    },
    {
      "inputs": [
        {
          "internalType": "bytes32",
          "name": "role",
          "type": "bytes32"
        }
      ],
      "name": "getRoleAdmin",
      "outputs": [
        {
          "internalType": "bytes32",
          "name": "",
          "type": "bytes32"
        }
      ],
      "stateMutability": "view",
      "type": "function"
    },
    {
      "inputs": [],
      "name": "getStakeAmount",
      "outputs": [
        {
          "internalType": "uint256",
          "name": "",
          "type": "uint256"
        }
      ],
      "stateMutability": "view",
      "type": "function"
    },
    {
      "inputs": [],
      "name": "getTestUSDCAddress",
      "outputs": [
        {
          "internalType": "address",
          "name": "",
          "type": "address"
        }
      ],
      "stateMutability": "view",
      "type": "function"
    },
    {
      "inputs": [],
      "name": "getTotalPrizePot",
      "outputs": [
        {
          "internalType": "uint256",
          "name": "",
          "type": "uint256"
        }
      ],
      "stateMutability": "view",
      "type": "function"
    },
    {
      "inputs": [],
      "name": "getUSDCBalance",
      "outputs": [
        {
          "internalType": "uint256",
          "name": "",
          "type": "uint256"
        }
      ],
      "stateMutability": "view",
      "type": "function"
    },
    {
      "inputs": [],
      "name": "getUserRecord",
      "outputs": [
        {
          "internalType": "uint256[8]",
          "name": "",
          "type": "uint256[8]"
        }
      ],
      "stateMutability": "view",
      "type": "function"
    },
    {
      "inputs": [],
      "name": "getUserUSDCBalance",
      "outputs": [
        {
          "internalType": "uint256",
          "name": "",
          "type": "uint256"
        }
      ],
      "stateMutability": "view",
      "type": "function"
    },
    {
      "inputs": [],
      "name": "getUserWeeklypts",
      "outputs": [
        {
          "internalType": "uint256[8]",
          "name": "",
          "type": "uint256[8]"
        }
      ],
      "stateMutability": "view",
      "type": "function"
    },
    {
      "inputs": [],
      "name": "getUsersLength",
      "outputs": [
        {
          "internalType": "uint256",
          "name": "",
          "type": "uint256"
        }
      ],
      "stateMutability": "view",
      "type": "function"
    },
    {
      "inputs": [],
      "name": "getVersion",
      "outputs": [
        {
          "internalType": "uint256",
          "name": "version",
          "type": "uint256"
        }
      ],
      "stateMutability": "view",
      "type": "function"
    },
    {
      "inputs": [
        {
          "internalType": "bytes32",
          "name": "role",
          "type": "bytes32"
        },
        {
          "internalType": "address",
          "name": "account",
          "type": "address"
        }
      ],
      "name": "grantRole",
      "outputs": [],
      "stateMutability": "nonpayable",
      "type": "function"
    },
    {
      "inputs": [
        {
          "internalType": "bytes32",
          "name": "role",
          "type": "bytes32"
        },
        {
          "internalType": "address",
          "name": "account",
          "type": "address"
        }
      ],
      "name": "hasRole",
      "outputs": [
        {
          "internalType": "bool",
          "name": "",
          "type": "bool"
        }
      ],
      "stateMutability": "view",
      "type": "function"
    },
    {
      "inputs": [
        {
          "internalType": "string",
          "name": "_name",
          "type": "string"
        },
        {
          "internalType": "uint256",
          "name": "_numWeeks",
          "type": "uint256"
        },
        {
          "internalType": "uint256",
          "name": "_stakeAmount",
          "type": "uint256"
        },
        {
          "internalType": "bool",
          "name": "_isPublic",
          "type": "bool"
        },
        {
          "internalType": "address",
          "name": "athletesDataStorageAddress",
          "type": "address"
        },
        {
          "internalType": "address",
          "name": "_admin",
          "type": "address"
        },
        {
          "internalType": "address",
          "name": "_polygonUSDCAddress",
          "type": "address"
        },
        {
          "internalType": "address",
          "name": "_rinkebyUSDCAddress",
          "type": "address"
        },
        {
          "internalType": "address",
          "name": "_testUSDCAddress",
          "type": "address"
        },
        {
          "internalType": "address",
          "name": "leagueMakerContractAddress",
          "type": "address"
        }
      ],
      "name": "initialize",
      "outputs": [],
      "stateMutability": "nonpayable",
      "type": "function"
    },
    {
      "inputs": [],
      "name": "isPublic",
      "outputs": [
        {
          "internalType": "bool",
          "name": "",
          "type": "bool"
        }
      ],
      "stateMutability": "view",
      "type": "function"
    },
    {
      "inputs": [],
      "name": "joinLeague",
      "outputs": [],
      "stateMutability": "nonpayable",
      "type": "function"
    },
    {
      "inputs": [
        {
          "internalType": "uint256",
          "name": "",
          "type": "uint256"
        }
      ],
      "name": "leagueMembers",
      "outputs": [
        {
          "internalType": "address",
          "name": "",
          "type": "address"
        }
      ],
      "stateMutability": "view",
      "type": "function"
    },
    {
      "inputs": [],
      "name": "leagueName",
      "outputs": [
        {
          "internalType": "string",
          "name": "",
          "type": "string"
        }
      ],
      "stateMutability": "view",
      "type": "function"
    },
    {
      "inputs": [],
      "name": "lockLineup",
      "outputs": [],
      "stateMutability": "nonpayable",
      "type": "function"
    },
    {
      "inputs": [],
      "name": "numWeeks",
      "outputs": [
        {
          "internalType": "uint256",
          "name": "",
          "type": "uint256"
        }
      ],
      "stateMutability": "view",
      "type": "function"
    },
    {
      "inputs": [],
      "name": "onLeagueEnd",
      "outputs": [],
      "stateMutability": "nonpayable",
      "type": "function"
    },
    {
      "inputs": [],
      "name": "owner",
      "outputs": [
        {
          "internalType": "address",
          "name": "",
          "type": "address"
        }
      ],
      "stateMutability": "view",
      "type": "function"
    },
    {
      "inputs": [],
      "name": "polygonUSDCAddress",
      "outputs": [
        {
          "internalType": "address",
          "name": "",
          "type": "address"
        }
      ],
      "stateMutability": "view",
      "type": "function"
    },
    {
      "inputs": [
        {
          "internalType": "address",
          "name": "addr",
          "type": "address"
        }
      ],
      "name": "removeAddressFromWhitelist",
      "outputs": [
        {
          "internalType": "bool",
          "name": "success",
          "type": "bool"
        }
      ],
      "stateMutability": "nonpayable",
      "type": "function"
    },
    {
      "inputs": [
        {
          "internalType": "address[]",
          "name": "addrs",
          "type": "address[]"
        }
      ],
      "name": "removeAddressesFromWhitelist",
      "outputs": [
        {
          "internalType": "bool",
          "name": "success",
          "type": "bool"
        }
      ],
      "stateMutability": "nonpayable",
      "type": "function"
    },
    {
      "inputs": [],
      "name": "renounceOwnership",
      "outputs": [],
      "stateMutability": "nonpayable",
      "type": "function"
    },
    {
      "inputs": [
        {
          "internalType": "bytes32",
          "name": "role",
          "type": "bytes32"
        },
        {
          "internalType": "address",
          "name": "account",
          "type": "address"
        }
      ],
      "name": "renounceRole",
      "outputs": [],
      "stateMutability": "nonpayable",
      "type": "function"
    },
    {
      "inputs": [
        {
          "internalType": "bytes32",
          "name": "role",
          "type": "bytes32"
        },
        {
          "internalType": "address",
          "name": "account",
          "type": "address"
        }
      ],
      "name": "revokeRole",
      "outputs": [],
      "stateMutability": "nonpayable",
      "type": "function"
    },
    {
      "inputs": [],
      "name": "rinkebyUSDCAddress",
      "outputs": [
        {
          "internalType": "address",
          "name": "",
          "type": "address"
        }
      ],
      "stateMutability": "view",
      "type": "function"
    },
    {
      "inputs": [],
      "name": "setLeagueEntryIsClosed",
      "outputs": [],
      "stateMutability": "nonpayable",
      "type": "function"
    },
    {
      "inputs": [],
      "name": "setLeagueSchedule",
      "outputs": [],
      "stateMutability": "nonpayable",
      "type": "function"
    },
    {
      "inputs": [
        {
          "internalType": "uint256[]",
          "name": "athleteIds",
          "type": "uint256[]"
        }
      ],
      "name": "setLineup",
      "outputs": [],
      "stateMutability": "nonpayable",
      "type": "function"
    },
    {
      "inputs": [],
      "name": "stakeAmount",
      "outputs": [
        {
          "internalType": "uint256",
          "name": "",
          "type": "uint256"
        }
      ],
      "stateMutability": "view",
      "type": "function"
    },
    {
      "inputs": [
        {
          "internalType": "bytes4",
          "name": "interfaceId",
          "type": "bytes4"
        }
      ],
      "name": "supportsInterface",
      "outputs": [
        {
          "internalType": "bool",
          "name": "",
          "type": "bool"
        }
      ],
      "stateMutability": "view",
      "type": "function"
    },
    {
      "inputs": [
        {
          "internalType": "address",
          "name": "newOwner",
          "type": "address"
        }
      ],
      "name": "transferOwnership",
      "outputs": [],
      "stateMutability": "nonpayable",
      "type": "function"
    },
    {
      "inputs": [],
      "name": "unlockLineup",
      "outputs": [],
      "stateMutability": "nonpayable",
      "type": "function"
    },
    {
      "inputs": [
        {
          "internalType": "address",
          "name": "",
          "type": "address"
        },
        {
          "internalType": "uint256",
          "name": "",
          "type": "uint256"
        }
      ],
      "name": "userToRecord",
      "outputs": [
        {
          "internalType": "uint256",
          "name": "",
          "type": "uint256"
        }
      ],
      "stateMutability": "view",
      "type": "function"
    },
    {
      "inputs": [
        {
          "internalType": "address",
          "name": "",
          "type": "address"
        }
      ],
      "name": "whitelist",
      "outputs": [
        {
          "internalType": "bool",
          "name": "",
          "type": "bool"
        }
      ],
      "stateMutability": "view",
      "type": "function"
    }
  ],
  "bytecode": "0x60806040523480156200001157600080fd5b5062000032620000266200003860201b60201c565b6200004060201b60201c565b62000105565b600033905090565b60008060029054906101000a900473ffffffffffffffffffffffffffffffffffffffff16905081600060026101000a81548173ffffffffffffffffffffffffffffffffffffffff021916908373ffffffffffffffffffffffffffffffffffffffff1602179055508173ffffffffffffffffffffffffffffffffffffffff168173ffffffffffffffffffffffffffffffffffffffff167f8be0079c531659141344cd1fd0a4f28419497f9722a3daafe3b4186f6b6457e060405160405180910390a35050565b6154c780620001156000396000f3fe60806040523480156200001157600080fd5b5060043610620002d35760003560e01c8063722580b61162000189578063a2bc091a11620000e1578063dc9a15351162000093578063dc9a15351462000858578063e2ec6ec3146200087a578063e4c9066b14620008b0578063f2fde38b14620008bc578063f612121a14620008dc578063f881604514620008fc57620002d3565b8063a2bc091a14620007d0578063ada3a28d14620007dc578063c8be3b5b14620007fe578063c99fea94146200080a578063cdbba4c61462000816578063d547741f146200083857620002d3565b80638da5cb5b116200013b5780638da5cb5b14620006dc57806391d1485414620006fe57806393f3706c146200073457806399a6003414620007565780639b19251a1462000778578063a217fddf14620007ae57620002d3565b8063722580b61462000614578063747b805014620006365780637b9417c814620006565780637eed33f1146200068c578063841abf6e14620006ae57806385334ffa14620006d057620002d3565b80632f2ff15d116200023d5780635d514d6911620001ef5780635d514d6914620005605780635fcc6987146200058057806360c7dc4714620005a25780636e9960c314620005c45780636fd71a1814620005e6578063715018a6146200060857620002d3565b80632f2ff15d146200049857806336568abe14620004b85780633cfd1ccc14620004d8578063403570c514620004fa57806352e6e5f3146200051c578063595b1a3e146200053e57620002d3565b80630d8e6e2c11620002975780630d8e6e2c14620003925780631d803e0014620003b4578063248a9ca314620003c057806324953eaa14620003f6578063267175db146200042c578063286dd3f5146200046257620002d3565b8062b2476f14620002d857806301ffc9a714620002fa5780630655465a1462000330578063087e18a7146200033c5780630c6f7959146200035c575b600080fd5b620002e26200091e565b604051620002f1919062003a33565b60405180910390f35b62000318600480360381019062000312919062003436565b62000944565b60405162000327919062003afc565b60405180910390f35b6200033a620009c1565b005b6200035a600480360381019062000354919062003270565b62000a79565b005b6200037a6004803603810190620003749190620032a2565b62000bfd565b60405162000389919062003d2b565b60405180910390f35b6200039c62000c26565b604051620003ab919062003d2b565b60405180910390f35b620003be62000c2b565b005b620003de6004803603810190620003d89190620033bd565b62000ed6565b604051620003ed919062003b19565b60405180910390f35b6200041460048036038101906200040e9190620032e9565b62000ef6565b60405162000423919062003afc565b60405180910390f35b6200044a600480360381019062000444919062003582565b62000ff3565b60405162000459919062003a33565b60405180910390f35b6200048060048036038101906200047a919062003270565b62001033565b6040516200048f919062003afc565b60405180910390f35b620004b66004803603810190620004b09190620033ef565b620011c2565b005b620004d66004803603810190620004d09190620033ef565b620011f3565b005b620004e26200127d565b604051620004f1919062003d2b565b60405180910390f35b6200050462001335565b60405162000513919062003bf7565b60405180910390f35b62000526620013cf565b60405162000535919062003d2b565b60405180910390f35b62000548620013d5565b60405162000557919062003d2b565b60405180910390f35b6200057e600480360381019062000578919062003468565b620013e2565b005b6200058a620017f1565b60405162000599919062003d2b565b60405180910390f35b620005ac620018a9565b604051620005bb919062003d2b565b60405180910390f35b620005ce620018af565b604051620005dd919062003a33565b60405180910390f35b620005f0620018d9565b604051620005ff919062003aba565b60405180910390f35b6200061262001965565b005b6200061e620019f6565b6040516200062d919062003d2b565b60405180910390f35b6200065460048036038101906200064e919062003270565b62001a00565b005b6200067460048036038101906200066e919062003270565b62001b4a565b60405162000683919062003afc565b60405180910390f35b6200069662001cd8565b604051620006a5919062003d2b565b60405180910390f35b620006b862001cde565b604051620006c7919062003bf7565b60405180910390f35b620006da62001d74565b005b620006e662001e96565b604051620006f5919062003a33565b60405180910390f35b6200071c6004803603810190620007169190620033ef565b62001ebf565b6040516200072b919062003afc565b60405180910390f35b6200073e62001f2a565b6040516200074d919062003a33565b60405180910390f35b6200076062001f50565b6040516200076f919062003d2b565b60405180910390f35b62000796600480360381019062000790919062003270565b62001f6c565b604051620007a5919062003afc565b60405180910390f35b620007b862001f8c565b604051620007c7919062003b19565b60405180910390f35b620007da62001f93565b005b620007e662002033565b604051620007f5919062003ad8565b60405180910390f35b62000808620020ca565b005b620008146200216a565b005b6200082062002388565b6040516200082f919062003a33565b60405180910390f35b620008566004803603810190620008509190620033ef565b620023b2565b005b62000862620023e3565b60405162000871919062003afc565b60405180910390f35b620008986004803603810190620008929190620032e9565b620023f6565b604051620008a7919062003afc565b60405180910390f35b620008ba620024f3565b005b620008da6004803603810190620008d4919062003270565b62002593565b005b620008fa6004803603810190620008f491906200333a565b62002697565b005b6200090662002743565b60405162000915919062003aba565b60405180910390f35b601060009054906101000a900473ffffffffffffffffffffffffffffffffffffffff1681565b60007f7965db0b000000000000000000000000000000000000000000000000000000007bffffffffffffffffffffffffffffffffffffffffffffffffffffffff1916827bffffffffffffffffffffffffffffffffffffffffffffffffffffffff19161480620009ba5750620009b982620027cf565b5b9050919050565b62000a016040518060400160405280601081526020017f73657474696e67207363686564756c650000000000000000000000000000000081525062002839565b73__$36fdb4e0c2cb91f3ceca5ea81b025328f3$__63d2c232b5600e600960065460056040518563ffffffff1660e01b815260040162000a45949392919062003b36565b60006040518083038186803b15801562000a5e57600080fd5b505af415801562000a73573d6000803e3d6000fd5b50505050565b600a60149054906101000a900460ff161562000acc576040517f08c379a000000000000000000000000000000000000000000000000000000000815260040162000ac39062003ce7565b60405180910390fd5b6008600980549050101562000bd5576009819080600181540180825580915050600190039060005260206000200160009091909190916101000a81548173ffffffffffffffffffffffffffffffffffffffff021916908373ffffffffffffffffffffffffffffffffffffffff160217905550601360009054906101000a900473ffffffffffffffffffffffffffffffffffffffff1673ffffffffffffffffffffffffffffffffffffffff1663771bd4ce826040518263ffffffff1660e01b815260040162000b9b919062003a33565b600060405180830381600087803b15801562000bb657600080fd5b505af115801562000bcb573d6000803e3d6000fd5b5050505062000bfa565b62000bf96040518060600160405280602881526020016200546a6028913962002839565b5b50565b600c602052816000526040600020816008811062000c1a57600080fd5b01600091509150505481565b600090565b6000601460009054906101000a900473ffffffffffffffffffffffffffffffffffffffff1673ffffffffffffffffffffffffffffffffffffffff166370a08231306040518263ffffffff1660e01b815260040162000c8a919062003a33565b60206040518083038186803b15801562000ca357600080fd5b505afa15801562000cb8573d6000803e3d6000fd5b505050506040513d601f19601f8201168201806040525081019062000cde9190620035b4565b9050600080600090505b60098054905081101562000e1957600b60008373ffffffffffffffffffffffffffffffffffffffff1673ffffffffffffffffffffffffffffffffffffffff16815260200190815260200160002054600b60006009848154811062000d515762000d50620041b4565b5b9060005260206000200160009054906101000a900473ffffffffffffffffffffffffffffffffffffffff1673ffffffffffffffffffffffffffffffffffffffff1673ffffffffffffffffffffffffffffffffffffffff16815260200190815260200160002054111562000e03576009818154811062000dd55762000dd4620041b4565b5b9060005260206000200160009054906101000a900473ffffffffffffffffffffffffffffffffffffffff1691505b808062000e109062004108565b91505062000ce8565b50601460009054906101000a900473ffffffffffffffffffffffffffffffffffffffff1673ffffffffffffffffffffffffffffffffffffffff166323b872dd3330856040518463ffffffff1660e01b815260040162000e7b9392919062003a50565b602060405180830381600087803b15801562000e9657600080fd5b505af115801562000eab573d6000803e3d6000fd5b505050506040513d601f19601f8201168201806040525081019062000ed191906200338b565b505050565b600060016000838152602001908152602001600020600101549050919050565b600062000f02620028d6565b73ffffffffffffffffffffffffffffffffffffffff1662000f2262001e96565b73ffffffffffffffffffffffffffffffffffffffff161462000f7b576040517f08c379a000000000000000000000000000000000000000000000000000000000815260040162000f729062003ca3565b60405180910390fd5b60005b825181101562000fed5762000fb083828151811062000fa25762000fa1620041b4565b5b602002602001015162001033565b1562000fd75760016003600082825462000fcb919062003f40565b92505081905550600191505b808062000fe49062004108565b91505062000f7e565b50919050565b600981815481106200100457600080fd5b906000526020600020016000915054906101000a900473ffffffffffffffffffffffffffffffffffffffff1681565b60006200103f620028d6565b73ffffffffffffffffffffffffffffffffffffffff166200105f62001e96565b73ffffffffffffffffffffffffffffffffffffffff1614620010b8576040517f08c379a0000000000000000000000000000000000000000000000000000000008152600401620010af9062003ca3565b60405180910390fd5b600260008373ffffffffffffffffffffffffffffffffffffffff1673ffffffffffffffffffffffffffffffffffffffff16815260200190815260200160002060009054906101000a900460ff1615620011bd576000600260008473ffffffffffffffffffffffffffffffffffffffff1673ffffffffffffffffffffffffffffffffffffffff16815260200190815260200160002060006101000a81548160ff0219169083151502179055507ff1abf01a1043b7c244d128e8595cf0c1d10743b022b03a02dffd8ca3bf729f5a8260405162001194919062003a33565b60405180910390a1600160036000828254620011b1919062003f40565b92505081905550600190505b919050565b620011cd8262000ed6565b620011e281620011dc620028d6565b620028de565b620011ee838362002986565b505050565b620011fd620028d6565b73ffffffffffffffffffffffffffffffffffffffff168173ffffffffffffffffffffffffffffffffffffffff16146200126d576040517f08c379a0000000000000000000000000000000000000000000000000000000008152600401620012649062003d09565b60405180910390fd5b62001279828262002a6b565b5050565b6000601460009054906101000a900473ffffffffffffffffffffffffffffffffffffffff1673ffffffffffffffffffffffffffffffffffffffff166370a08231306040518263ffffffff1660e01b8152600401620012dc919062003a33565b60206040518083038186803b158015620012f557600080fd5b505afa1580156200130a573d6000803e3d6000fd5b505050506040513d601f19601f82011682018060405250810190620013309190620035b4565b905090565b60606005805462001346906200409c565b80601f016020809104026020016040519081016040528092919081815260200182805462001374906200409c565b8015620013c55780601f106200139957610100808354040283529160200191620013c5565b820191906000526020600020905b815481529060010190602001808311620013a757829003601f168201915b5050505050905090565b60075481565b6000600980549050905090565b600060019054906101000a900460ff166200140c5760008054906101000a900460ff161562001417565b6200141662002b52565b5b62001459576040517f08c379a0000000000000000000000000000000000000000000000000000000008152600401620014509062003c81565b60405180910390fd5b60008060019054906101000a900460ff161590508015620014aa576001600060016101000a81548160ff02191690831515021790555060016000806101000a81548160ff0219169083151502179055505b8b8b60059190620014bd92919062002ee1565b506008600681905550620014d56000801b8762002b65565b6009869080600181540180825580915050600190039060005260206000200160009091909190916101000a81548173ffffffffffffffffffffffffffffffffffffffff021916908373ffffffffffffffffffffffffffffffffffffffff16021790555085600a60006101000a81548173ffffffffffffffffffffffffffffffffffffffff021916908373ffffffffffffffffffffffffffffffffffffffff1602179055508860088190555087600460006101000a81548160ff0219169083151502179055506000600a60156101000a81548160ff0219169083151502179055506000600a60146101000a81548160ff02191690831515021790555086601160006101000a81548173ffffffffffffffffffffffffffffffffffffffff021916908373ffffffffffffffffffffffffffffffffffffffff16021790555081601360006101000a81548173ffffffffffffffffffffffffffffffffffffffff021916908373ffffffffffffffffffffffffffffffffffffffff160217905550604051620016609062002f72565b604051809103906000f0801580156200167d573d6000803e3d6000fd5b50601260006101000a81548173ffffffffffffffffffffffffffffffffffffffff021916908373ffffffffffffffffffffffffffffffffffffffff16021790555084600f60006101000a81548173ffffffffffffffffffffffffffffffffffffffff021916908373ffffffffffffffffffffffffffffffffffffffff16021790555083601060006101000a81548173ffffffffffffffffffffffffffffffffffffffff021916908373ffffffffffffffffffffffffffffffffffffffff16021790555082601460006101000a81548173ffffffffffffffffffffffffffffffffffffffff021916908373ffffffffffffffffffffffffffffffffffffffff160217905550620017c16040518060400160405280601281526020017f50726f787920696e697469616c697a656421000000000000000000000000000081525062002839565b8015620017e35760008060016101000a81548160ff0219169083151502179055505b505050505050505050505050565b6000601460009054906101000a900473ffffffffffffffffffffffffffffffffffffffff1673ffffffffffffffffffffffffffffffffffffffff166370a08231336040518263ffffffff1660e01b815260040162001850919062003a33565b60206040518083038186803b1580156200186957600080fd5b505afa1580156200187e573d6000803e3d6000fd5b505050506040513d601f19601f82011682018060405250810190620018a49190620035b4565b905090565b60085481565b6000600a60009054906101000a900473ffffffffffffffffffffffffffffffffffffffff16905090565b620018e362002f80565b600c60003373ffffffffffffffffffffffffffffffffffffffff1673ffffffffffffffffffffffffffffffffffffffff1681526020019081526020016000206008806020026040519081016040528092919082600880156200195b576020028201915b81548152602001906001019080831162001946575b5050505050905090565b6200196f620028d6565b73ffffffffffffffffffffffffffffffffffffffff166200198f62001e96565b73ffffffffffffffffffffffffffffffffffffffff1614620019e8576040517f08c379a0000000000000000000000000000000000000000000000000000000008152600401620019df9062003ca3565b60405180910390fd5b620019f4600062002b75565b565b6000600854905090565b600a60009054906101000a900473ffffffffffffffffffffffffffffffffffffffff1673ffffffffffffffffffffffffffffffffffffffff163373ffffffffffffffffffffffffffffffffffffffff161462001a93576040517f08c379a000000000000000000000000000000000000000000000000000000000815260040162001a8a9062003cc5565b60405180910390fd5b601260009054906101000a900473ffffffffffffffffffffffffffffffffffffffff1673ffffffffffffffffffffffffffffffffffffffff16637b9417c8826040518263ffffffff1660e01b815260040162001af0919062003a33565b602060405180830381600087803b15801562001b0b57600080fd5b505af115801562001b20573d6000803e3d6000fd5b505050506040513d601f19601f8201168201806040525081019062001b4691906200338b565b5050565b600062001b56620028d6565b73ffffffffffffffffffffffffffffffffffffffff1662001b7662001e96565b73ffffffffffffffffffffffffffffffffffffffff161462001bcf576040517f08c379a000000000000000000000000000000000000000000000000000000000815260040162001bc69062003ca3565b60405180910390fd5b600260008373ffffffffffffffffffffffffffffffffffffffff1673ffffffffffffffffffffffffffffffffffffffff16815260200190815260200160002060009054906101000a900460ff1662001cd3576001600260008473ffffffffffffffffffffffffffffffffffffffff1673ffffffffffffffffffffffffffffffffffffffff16815260200190815260200160002060006101000a81548160ff0219169083151502179055507fd1bba68c128cc3f427e5831b3c6f99f480b6efa6b9e80c757768f6124158cc3f8260405162001caa919062003a33565b60405180910390a160016003600082825462001cc7919062003e82565b92505081905550600190505b919050565b60065481565b6005805462001ced906200409c565b80601f016020809104026020016040519081016040528092919081815260200182805462001d1b906200409c565b801562001d6c5780601f1062001d405761010080835404028352916020019162001d6c565b820191906000526020600020905b81548152906001019060200180831162001d4e57829003601f168201915b505050505081565b62001d7e620028d6565b73ffffffffffffffffffffffffffffffffffffffff1662001d9e62001e96565b73ffffffffffffffffffffffffffffffffffffffff161462001df7576040517f08c379a000000000000000000000000000000000000000000000000000000000815260040162001dee9062003ca3565b60405180910390fd5b73__$36fdb4e0c2cb91f3ceca5ea81b025328f3$__63c406e268600e600754601160009054906101000a900473ffffffffffffffffffffffffffffffffffffffff16600c600b600d6040518763ffffffff1660e01b815260040162001e629695949392919062003b8a565b60006040518083038186803b15801562001e7b57600080fd5b505af415801562001e90573d6000803e3d6000fd5b50505050565b60008060029054906101000a900473ffffffffffffffffffffffffffffffffffffffff16905090565b60006001600084815260200190815260200160002060000160008373ffffffffffffffffffffffffffffffffffffffff1673ffffffffffffffffffffffffffffffffffffffff16815260200190815260200160002060009054906101000a900460ff16905092915050565b600f60009054906101000a900473ffffffffffffffffffffffffffffffffffffffff1681565b600060098054905060085462001f67919062003edf565b905090565b60026020528060005260406000206000915054906101000a900460ff1681565b6000801b81565b62001f9d620028d6565b73ffffffffffffffffffffffffffffffffffffffff1662001fbd62001e96565b73ffffffffffffffffffffffffffffffffffffffff161462002016576040517f08c379a00000000000000000000000000000000000000000000000000000000081526004016200200d9062003ca3565b60405180910390fd5b6000600a60156101000a81548160ff021916908315150217905550565b6060600d60003373ffffffffffffffffffffffffffffffffffffffff1673ffffffffffffffffffffffffffffffffffffffff168152602001908152602001600020805480602002602001604051908101604052809291908181526020018280548015620020c057602002820191906000526020600020905b815481526020019060010190808311620020ab575b5050505050905090565b620020d4620028d6565b73ffffffffffffffffffffffffffffffffffffffff16620020f462001e96565b73ffffffffffffffffffffffffffffffffffffffff16146200214d576040517f08c379a0000000000000000000000000000000000000000000000000000000008152600401620021449062003ca3565b60405180910390fd5b6001600a60156101000a81548160ff021916908315150217905550565b600260003373ffffffffffffffffffffffffffffffffffffffff1673ffffffffffffffffffffffffffffffffffffffff16815260200190815260200160002060009054906101000a900460ff1680620021cf5750600460009054906101000a900460ff165b620021d957600080fd5b600a60149054906101000a900460ff16156200222c576040517f08c379a0000000000000000000000000000000000000000000000000000000008152600401620022239062003ce7565b60405180910390fd5b6009339080600181540180825580915050600190039060005260206000200160009091909190916101000a81548173ffffffffffffffffffffffffffffffffffffffff021916908373ffffffffffffffffffffffffffffffffffffffff160217905550601460009054906101000a900473ffffffffffffffffffffffffffffffffffffffff1673ffffffffffffffffffffffffffffffffffffffff166323b872dd33306008546040518463ffffffff1660e01b8152600401620022f29392919062003a50565b602060405180830381600087803b1580156200230d57600080fd5b505af115801562002322573d6000803e3d6000fd5b505050506040513d601f19601f820116820180604052508101906200234891906200338b565b507f9e71bc8eea02a63969f509818f2dafb9254532904319f9dbda79b67bd34a5f3d336008546040516200237e92919062003a8d565b60405180910390a1565b6000601460009054906101000a900473ffffffffffffffffffffffffffffffffffffffff16905090565b620023bd8262000ed6565b620023d281620023cc620028d6565b620028de565b620023de838362002a6b565b505050565b600460009054906101000a900460ff1681565b600062002402620028d6565b73ffffffffffffffffffffffffffffffffffffffff166200242262001e96565b73ffffffffffffffffffffffffffffffffffffffff16146200247b576040517f08c379a0000000000000000000000000000000000000000000000000000000008152600401620024729062003ca3565b60405180910390fd5b60005b8251811015620024ed57620024b0838281518110620024a257620024a1620041b4565b5b602002602001015162001b4a565b15620024d757600160036000828254620024cb919062003e82565b92505081905550600191505b8080620024e49062004108565b9150506200247e565b50919050565b620024fd620028d6565b73ffffffffffffffffffffffffffffffffffffffff166200251d62001e96565b73ffffffffffffffffffffffffffffffffffffffff161462002576576040517f08c379a00000000000000000000000000000000000000000000000000000000081526004016200256d9062003ca3565b60405180910390fd5b6001600a60146101000a81548160ff021916908315150217905550565b6200259d620028d6565b73ffffffffffffffffffffffffffffffffffffffff16620025bd62001e96565b73ffffffffffffffffffffffffffffffffffffffff161462002616576040517f08c379a00000000000000000000000000000000000000000000000000000000081526004016200260d9062003ca3565b60405180910390fd5b600073ffffffffffffffffffffffffffffffffffffffff168173ffffffffffffffffffffffffffffffffffffffff16141562002689576040517f08c379a0000000000000000000000000000000000000000000000000000000008152600401620026809062003c3d565b60405180910390fd5b620026948162002b75565b50565b600a60159054906101000a900460ff1615620026ea576040517f08c379a0000000000000000000000000000000000000000000000000000000008152600401620026e19062003c5f565b60405180910390fd5b80600d60003373ffffffffffffffffffffffffffffffffffffffff1673ffffffffffffffffffffffffffffffffffffffff16815260200190815260200160002090805190602001906200273f92919062002fa3565b5050565b6200274d62002f80565b600c60003373ffffffffffffffffffffffffffffffffffffffff1673ffffffffffffffffffffffffffffffffffffffff168152602001908152602001600020600880602002604051908101604052809291908260088015620027c5576020028201915b815481526020019060010190808311620027b0575b5050505050905090565b60007f01ffc9a7000000000000000000000000000000000000000000000000000000007bffffffffffffffffffffffffffffffffffffffffffffffffffffffff1916827bffffffffffffffffffffffffffffffffffffffffffffffffffffffff1916149050919050565b620028d38160405160240162002850919062003bf7565b6040516020818303038152906040527f41304fac000000000000000000000000000000000000000000000000000000007bffffffffffffffffffffffffffffffffffffffffffffffffffffffff19166020820180517bffffffffffffffffffffffffffffffffffffffffffffffffffffffff838183161783525050505062002c3a565b50565b600033905090565b620028ea828262001ebf565b6200298257620029128173ffffffffffffffffffffffffffffffffffffffff16601462002c63565b620029228360001c602062002c63565b60405160200162002935929190620039f1565b6040516020818303038152906040526040517f08c379a000000000000000000000000000000000000000000000000000000000815260040162002979919062003bf7565b60405180910390fd5b5050565b62002992828262001ebf565b62002a6757600180600084815260200190815260200160002060000160008373ffffffffffffffffffffffffffffffffffffffff1673ffffffffffffffffffffffffffffffffffffffff16815260200190815260200160002060006101000a81548160ff02191690831515021790555062002a0c620028d6565b73ffffffffffffffffffffffffffffffffffffffff168173ffffffffffffffffffffffffffffffffffffffff16837f2f8788117e7eff1d82e926ec794901d17c78024a50270940304540a733656f0d60405160405180910390a45b5050565b62002a77828262001ebf565b1562002b4e5760006001600084815260200190815260200160002060000160008373ffffffffffffffffffffffffffffffffffffffff1673ffffffffffffffffffffffffffffffffffffffff16815260200190815260200160002060006101000a81548160ff02191690831515021790555062002af3620028d6565b73ffffffffffffffffffffffffffffffffffffffff168173ffffffffffffffffffffffffffffffffffffffff16837ff6391f5c32d9c69d2a47ea670b442974b53935d1edc7fd64eb21e047a839171b60405160405180910390a45b5050565b600062002b5f3062002ebe565b15905090565b62002b71828262002986565b5050565b60008060029054906101000a900473ffffffffffffffffffffffffffffffffffffffff16905081600060026101000a81548173ffffffffffffffffffffffffffffffffffffffff021916908373ffffffffffffffffffffffffffffffffffffffff1602179055508173ffffffffffffffffffffffffffffffffffffffff168173ffffffffffffffffffffffffffffffffffffffff167f8be0079c531659141344cd1fd0a4f28419497f9722a3daafe3b4186f6b6457e060405160405180910390a35050565b60008151905060006a636f6e736f6c652e6c6f679050602083016000808483855afa5050505050565b60606000600283600262002c78919062003edf565b62002c84919062003e82565b67ffffffffffffffff81111562002ca05762002c9f620041e3565b5b6040519080825280601f01601f19166020018201604052801562002cd35781602001600182028036833780820191505090505b5090507f30000000000000000000000000000000000000000000000000000000000000008160008151811062002d0e5762002d0d620041b4565b5b60200101907effffffffffffffffffffffffffffffffffffffffffffffffffffffffffffff1916908160001a9053507f78000000000000000000000000000000000000000000000000000000000000008160018151811062002d755762002d74620041b4565b5b60200101907effffffffffffffffffffffffffffffffffffffffffffffffffffffffffffff1916908160001a9053506000600184600262002db7919062003edf565b62002dc3919062003e82565b90505b600181111562002e6d577f3031323334353637383961626364656600000000000000000000000000000000600f86166010811062002e095762002e08620041b4565b5b1a60f81b82828151811062002e235762002e22620041b4565b5b60200101907effffffffffffffffffffffffffffffffffffffffffffffffffffffffffffff1916908160001a905350600485901c94508062002e65906200406d565b905062002dc6565b506000841462002eb4576040517f08c379a000000000000000000000000000000000000000000000000000000000815260040162002eab9062003c1b565b60405180910390fd5b8091505092915050565b6000808273ffffffffffffffffffffffffffffffffffffffff163b119050919050565b82805462002eef906200409c565b90600052602060002090601f01602090048101928262002f13576000855562002f5f565b82601f1062002f2e57803560ff191683800117855562002f5f565b8280016001018555821562002f5f579182015b8281111562002f5e57823582559160200191906001019062002f41565b5b50905062002f6e919062002ff5565b5090565b610f9f80620044cb83390190565b604051806101000160405280600890602082028036833780820191505090505090565b82805482825590600052602060002090810192821562002fe2579160200282015b8281111562002fe157825182559160200191906001019062002fc4565b5b50905062002ff1919062002ff5565b5090565b5b808211156200301057600081600090555060010162002ff6565b5090565b60006200302b620030258462003d71565b62003d48565b905080838252602082019050828560208602820111156200305157620030506200421c565b5b60005b858110156200308557816200306a88826200310a565b84526020840193506020830192505060018101905062003054565b5050509392505050565b6000620030a6620030a08462003da0565b62003d48565b90508083825260208201905082856020860282011115620030cc57620030cb6200421c565b5b60005b85811015620031005781620030e5888262003242565b845260208401935060208301925050600181019050620030cf565b5050509392505050565b6000813590506200311b8162004448565b92915050565b600082601f83011262003139576200313862004217565b5b81356200314b84826020860162003014565b91505092915050565b600082601f8301126200316c576200316b62004217565b5b81356200317e8482602086016200308f565b91505092915050565b600081359050620031988162004462565b92915050565b600081519050620031af8162004462565b92915050565b600081359050620031c6816200447c565b92915050565b600081359050620031dd8162004496565b92915050565b60008083601f840112620031fc57620031fb62004217565b5b8235905067ffffffffffffffff8111156200321c576200321b62004212565b5b6020830191508360018202830111156200323b576200323a6200421c565b5b9250929050565b6000813590506200325381620044b0565b92915050565b6000815190506200326a81620044b0565b92915050565b60006020828403121562003289576200328862004226565b5b600062003299848285016200310a565b91505092915050565b60008060408385031215620032bc57620032bb62004226565b5b6000620032cc858286016200310a565b9250506020620032df8582860162003242565b9150509250929050565b60006020828403121562003302576200330162004226565b5b600082013567ffffffffffffffff81111562003323576200332262004221565b5b620033318482850162003121565b91505092915050565b60006020828403121562003353576200335262004226565b5b600082013567ffffffffffffffff81111562003374576200337362004221565b5b620033828482850162003154565b91505092915050565b600060208284031215620033a457620033a362004226565b5b6000620033b4848285016200319e565b91505092915050565b600060208284031215620033d657620033d562004226565b5b6000620033e684828501620031b5565b91505092915050565b6000806040838503121562003409576200340862004226565b5b60006200341985828601620031b5565b92505060206200342c858286016200310a565b9150509250929050565b6000602082840312156200344f576200344e62004226565b5b60006200345f84828501620031cc565b91505092915050565b60008060008060008060008060008060006101408c8e03121562003491576200349062004226565b5b60008c013567ffffffffffffffff811115620034b257620034b162004221565b5b620034c08e828f01620031e3565b9b509b50506020620034d58e828f0162003242565b9950506040620034e88e828f0162003242565b9850506060620034fb8e828f0162003187565b97505060806200350e8e828f016200310a565b96505060a0620035218e828f016200310a565b95505060c0620035348e828f016200310a565b94505060e0620035478e828f016200310a565b9350506101006200355b8e828f016200310a565b9250506101206200356f8e828f016200310a565b9150509295989b509295989b9093969950565b6000602082840312156200359b576200359a62004226565b5b6000620035ab8482850162003242565b91505092915050565b600060208284031215620035cd57620035cc62004226565b5b6000620035dd8482850162003259565b91505092915050565b6000620035f48383620039be565b60208301905092915050565b6200360b8162003f7b565b82525050565b8082525050565b620036238162003dfe565b6200362f818462003e39565b92506200363c8262003dcf565b8060005b8381101562003673578151620036578782620035e6565b9650620036648362003e1f565b92505060018101905062003640565b505050505050565b6000620036888262003e09565b62003694818562003e44565b9350620036a18362003dd9565b8060005b83811015620036d8578151620036bc8882620035e6565b9750620036c98362003e2c565b925050600181019050620036a5565b5085935050505092915050565b620036f08162003f8f565b82525050565b620037018162003f9b565b82525050565b620037128162003ffb565b82525050565b8082525050565b8082525050565b8082525050565b8082525050565b6000620037418262003e14565b6200374d818562003e55565b93506200375f81856020860162004037565b6200376a816200422b565b840191505092915050565b6000620037828262003e14565b6200378e818562003e77565b9350620037a081856020860162004037565b80840191505092915050565b60008154620037bb816200409c565b620037c7818662003e66565b94506001821660008114620037e55760018114620037f8576200382f565b60ff19831686526020860193506200382f565b620038038562003de9565b60005b83811015620038275781548189015260018201915060208101905062003806565b808801955050505b50505092915050565b60006200384760208362003e55565b915062003854826200423c565b602082019050919050565b60006200386e60268362003e55565b91506200387b8262004265565b604082019050919050565b600062003895601e8362003e55565b9150620038a282620042b4565b602082019050919050565b6000620038bc602e8362003e55565b9150620038c982620042dd565b604082019050919050565b6000620038e360208362003e55565b9150620038f0826200432c565b602082019050919050565b60006200390a60178362003e55565b9150620039178262004355565b602082019050919050565b60006200393160178362003e77565b91506200393e826200437e565b601782019050919050565b60006200395860178362003e55565b91506200396582620043a7565b602082019050919050565b60006200397f60118362003e77565b91506200398c82620043d0565b601182019050919050565b6000620039a6602f8362003e55565b9150620039b382620043f9565b604082019050919050565b620039c98162003ff1565b82525050565b620039da8162003ff1565b82525050565b620039eb8162003ff1565b82525050565b6000620039fe8262003922565b915062003a0c828562003775565b915062003a198262003970565b915062003a27828462003775565b91508190509392505050565b600060208201905062003a4a600083018462003600565b92915050565b600060608201905062003a67600083018662003600565b62003a76602083018562003600565b62003a856040830184620039cf565b949350505050565b600060408201905062003aa4600083018562003600565b62003ab36020830184620039cf565b9392505050565b60006101008201905062003ad2600083018462003618565b92915050565b6000602082019050818103600083015262003af481846200367b565b905092915050565b600060208201905062003b136000830184620036e5565b92915050565b600060208201905062003b306000830184620036f6565b92915050565b600060808201905062003b4d60008301876200372d565b62003b5c602083018662003611565b62003b6b6040830185620039e0565b818103606083015262003b7f8184620037ac565b905095945050505050565b600060c08201905062003ba160008301896200372d565b62003bb06020830188620039e0565b62003bbf604083018762003707565b62003bce606083018662003718565b62003bdd608083018562003726565b62003bec60a08301846200371f565b979650505050505050565b6000602082019050818103600083015262003c13818462003734565b905092915050565b6000602082019050818103600083015262003c368162003838565b9050919050565b6000602082019050818103600083015262003c58816200385f565b9050919050565b6000602082019050818103600083015262003c7a8162003886565b9050919050565b6000602082019050818103600083015262003c9c81620038ad565b9050919050565b6000602082019050818103600083015262003cbe81620038d4565b9050919050565b6000602082019050818103600083015262003ce081620038fb565b9050919050565b6000602082019050818103600083015262003d028162003949565b9050919050565b6000602082019050818103600083015262003d248162003997565b9050919050565b600060208201905062003d426000830184620039cf565b92915050565b600062003d5462003d67565b905062003d628282620040d2565b919050565b6000604051905090565b600067ffffffffffffffff82111562003d8f5762003d8e620041e3565b5b602082029050602081019050919050565b600067ffffffffffffffff82111562003dbe5762003dbd620041e3565b5b602082029050602081019050919050565b6000819050919050565b6000819050602082019050919050565b60008190508160005260206000209050919050565b600060089050919050565b600081519050919050565b600081519050919050565b6000602082019050919050565b6000602082019050919050565b600081905092915050565b600082825260208201905092915050565b600082825260208201905092915050565b600082825260208201905092915050565b600081905092915050565b600062003e8f8262003ff1565b915062003e9c8362003ff1565b9250827fffffffffffffffffffffffffffffffffffffffffffffffffffffffffffffffff0382111562003ed45762003ed362004156565b5b828201905092915050565b600062003eec8262003ff1565b915062003ef98362003ff1565b9250817fffffffffffffffffffffffffffffffffffffffffffffffffffffffffffffffff048311821515161562003f355762003f3462004156565b5b828202905092915050565b600062003f4d8262003ff1565b915062003f5a8362003ff1565b92508282101562003f705762003f6f62004156565b5b828203905092915050565b600062003f888262003fd1565b9050919050565b60008115159050919050565b6000819050919050565b60007fffffffff0000000000000000000000000000000000000000000000000000000082169050919050565b600073ffffffffffffffffffffffffffffffffffffffff82169050919050565b6000819050919050565b600062004008826200400f565b9050919050565b60006200401c8262004023565b9050919050565b6000620040308262003fd1565b9050919050565b60005b83811015620040575780820151818401526020810190506200403a565b8381111562004067576000848401525b50505050565b60006200407a8262003ff1565b9150600082141562004091576200409062004156565b5b600182039050919050565b60006002820490506001821680620040b557607f821691505b60208210811415620040cc57620040cb62004185565b5b50919050565b620040dd826200422b565b810181811067ffffffffffffffff82111715620040ff57620040fe620041e3565b5b80604052505050565b6000620041158262003ff1565b91507fffffffffffffffffffffffffffffffffffffffffffffffffffffffffffffffff8214156200414b576200414a62004156565b5b600182019050919050565b7f4e487b7100000000000000000000000000000000000000000000000000000000600052601160045260246000fd5b7f4e487b7100000000000000000000000000000000000000000000000000000000600052602260045260246000fd5b7f4e487b7100000000000000000000000000000000000000000000000000000000600052603260045260246000fd5b7f4e487b7100000000000000000000000000000000000000000000000000000000600052604160045260246000fd5b600080fd5b600080fd5b600080fd5b600080fd5b600080fd5b6000601f19601f8301169050919050565b7f537472696e67733a20686578206c656e67746820696e73756666696369656e74600082015250565b7f4f776e61626c653a206e6577206f776e657220697320746865207a65726f206160008201527f6464726573730000000000000000000000000000000000000000000000000000602082015250565b7f6c696e657570206973206c6f636b656420666f7220746865207765656b210000600082015250565b7f496e697469616c697a61626c653a20636f6e747261637420697320616c72656160008201527f647920696e697469616c697a6564000000000000000000000000000000000000602082015250565b7f4f776e61626c653a2063616c6c6572206973206e6f7420746865206f776e6572600082015250565b7f43616c6c6572206973206e6f74207468652061646d696e000000000000000000600082015250565b7f416363657373436f6e74726f6c3a206163636f756e7420000000000000000000600082015250565b7f4c656167756520456e74727920697320436c6f73656421000000000000000000600082015250565b7f206973206d697373696e6720726f6c6520000000000000000000000000000000600082015250565b7f416363657373436f6e74726f6c3a2063616e206f6e6c792072656e6f756e636560008201527f20726f6c657320666f722073656c660000000000000000000000000000000000602082015250565b620044538162003f7b565b81146200445f57600080fd5b50565b6200446d8162003f8f565b81146200447957600080fd5b50565b620044878162003f9b565b81146200449357600080fd5b50565b620044a18162003fa5565b8114620044ad57600080fd5b50565b620044bb8162003ff1565b8114620044c757600080fd5b5056fe608060405234801561001057600080fd5b5061002d61002261003260201b60201c565b61003a60201b60201c565b6100fe565b600033905090565b60008060009054906101000a900473ffffffffffffffffffffffffffffffffffffffff169050816000806101000a81548173ffffffffffffffffffffffffffffffffffffffff021916908373ffffffffffffffffffffffffffffffffffffffff1602179055508173ffffffffffffffffffffffffffffffffffffffff168173ffffffffffffffffffffffffffffffffffffffff167f8be0079c531659141344cd1fd0a4f28419497f9722a3daafe3b4186f6b6457e060405160405180910390a35050565b610e928061010d6000396000f3fe608060405234801561001057600080fd5b50600436106100935760003560e01c80638da5cb5b116100665780638da5cb5b146101325780639b19251a14610150578063dc9a153514610180578063e2ec6ec31461019e578063f2fde38b146101ce57610093565b806324953eaa14610098578063286dd3f5146100c8578063715018a6146100f85780637b9417c814610102575b600080fd5b6100b260048036038101906100ad9190610a4a565b6101ea565b6040516100bf9190610b12565b60405180910390f35b6100e260048036038101906100dd9190610a1d565b6102d4565b6040516100ef9190610b12565b60405180910390f35b610100610457565b005b61011c60048036038101906101179190610a1d565b6104df565b6040516101299190610b12565b60405180910390f35b61013a610660565b6040516101479190610af7565b60405180910390f35b61016a60048036038101906101659190610a1d565b610689565b6040516101779190610b12565b60405180910390f35b6101886106a9565b6040516101959190610b12565b60405180910390f35b6101b860048036038101906101b39190610a4a565b6106bc565b6040516101c59190610b12565b60405180910390f35b6101e860048036038101906101e39190610a1d565b6107a6565b005b60006101f461089e565b73ffffffffffffffffffffffffffffffffffffffff16610212610660565b73ffffffffffffffffffffffffffffffffffffffff1614610268576040517f08c379a000000000000000000000000000000000000000000000000000000000815260040161025f90610b4d565b60405180910390fd5b60005b82518110156102ce5761029783828151811061028a57610289610d4a565b5b60200260200101516102d4565b156102bb576001600260008282546102af9190610c25565b92505081905550600191505b80806102c690610cd2565b91505061026b565b50919050565b60006102de61089e565b73ffffffffffffffffffffffffffffffffffffffff166102fc610660565b73ffffffffffffffffffffffffffffffffffffffff1614610352576040517f08c379a000000000000000000000000000000000000000000000000000000000815260040161034990610b4d565b60405180910390fd5b600160008373ffffffffffffffffffffffffffffffffffffffff1673ffffffffffffffffffffffffffffffffffffffff16815260200190815260200160002060009054906101000a900460ff1615610452576000600160008473ffffffffffffffffffffffffffffffffffffffff1673ffffffffffffffffffffffffffffffffffffffff16815260200190815260200160002060006101000a81548160ff0219169083151502179055507ff1abf01a1043b7c244d128e8595cf0c1d10743b022b03a02dffd8ca3bf729f5a8260405161042b9190610af7565b60405180910390a16001600260008282546104469190610c25565b92505081905550600190505b919050565b61045f61089e565b73ffffffffffffffffffffffffffffffffffffffff1661047d610660565b73ffffffffffffffffffffffffffffffffffffffff16146104d3576040517f08c379a00000000000000000000000000000000000000000000000000000000081526004016104ca90610b4d565b60405180910390fd5b6104dd60006108a6565b565b60006104e961089e565b73ffffffffffffffffffffffffffffffffffffffff16610507610660565b73ffffffffffffffffffffffffffffffffffffffff161461055d576040517f08c379a000000000000000000000000000000000000000000000000000000000815260040161055490610b4d565b60405180910390fd5b600160008373ffffffffffffffffffffffffffffffffffffffff1673ffffffffffffffffffffffffffffffffffffffff16815260200190815260200160002060009054906101000a900460ff1661065b5760018060008473ffffffffffffffffffffffffffffffffffffffff1673ffffffffffffffffffffffffffffffffffffffff16815260200190815260200160002060006101000a81548160ff0219169083151502179055507fd1bba68c128cc3f427e5831b3c6f99f480b6efa6b9e80c757768f6124158cc3f826040516106349190610af7565b60405180910390a160016002600082825461064f9190610bcf565b92505081905550600190505b919050565b60008060009054906101000a900473ffffffffffffffffffffffffffffffffffffffff16905090565b60016020528060005260406000206000915054906101000a900460ff1681565b600360009054906101000a900460ff1681565b60006106c661089e565b73ffffffffffffffffffffffffffffffffffffffff166106e4610660565b73ffffffffffffffffffffffffffffffffffffffff161461073a576040517f08c379a000000000000000000000000000000000000000000000000000000000815260040161073190610b4d565b60405180910390fd5b60005b82518110156107a05761076983828151811061075c5761075b610d4a565b5b60200260200101516104df565b1561078d576001600260008282546107819190610bcf565b92505081905550600191505b808061079890610cd2565b91505061073d565b50919050565b6107ae61089e565b73ffffffffffffffffffffffffffffffffffffffff166107cc610660565b73ffffffffffffffffffffffffffffffffffffffff1614610822576040517f08c379a000000000000000000000000000000000000000000000000000000000815260040161081990610b4d565b60405180910390fd5b600073ffffffffffffffffffffffffffffffffffffffff168173ffffffffffffffffffffffffffffffffffffffff161415610892576040517f08c379a000000000000000000000000000000000000000000000000000000000815260040161088990610b2d565b60405180910390fd5b61089b816108a6565b50565b600033905090565b60008060009054906101000a900473ffffffffffffffffffffffffffffffffffffffff169050816000806101000a81548173ffffffffffffffffffffffffffffffffffffffff021916908373ffffffffffffffffffffffffffffffffffffffff1602179055508173ffffffffffffffffffffffffffffffffffffffff168173ffffffffffffffffffffffffffffffffffffffff167f8be0079c531659141344cd1fd0a4f28419497f9722a3daafe3b4186f6b6457e060405160405180910390a35050565b600061097d61097884610b92565b610b6d565b905080838252602082019050828560208602820111156109a05761099f610dad565b5b60005b858110156109d057816109b688826109da565b8452602084019350602083019250506001810190506109a3565b5050509392505050565b6000813590506109e981610e45565b92915050565b600082601f830112610a0457610a03610da8565b5b8135610a1484826020860161096a565b91505092915050565b600060208284031215610a3357610a32610db7565b5b6000610a41848285016109da565b91505092915050565b600060208284031215610a6057610a5f610db7565b5b600082013567ffffffffffffffff811115610a7e57610a7d610db2565b5b610a8a848285016109ef565b91505092915050565b610a9c81610c59565b82525050565b610aab81610c6b565b82525050565b6000610abe602683610bbe565b9150610ac982610dcd565b604082019050919050565b6000610ae1602083610bbe565b9150610aec82610e1c565b602082019050919050565b6000602082019050610b0c6000830184610a93565b92915050565b6000602082019050610b276000830184610aa2565b92915050565b60006020820190508181036000830152610b4681610ab1565b9050919050565b60006020820190508181036000830152610b6681610ad4565b9050919050565b6000610b77610b88565b9050610b838282610ca1565b919050565b6000604051905090565b600067ffffffffffffffff821115610bad57610bac610d79565b5b602082029050602081019050919050565b600082825260208201905092915050565b6000610bda82610c97565b9150610be583610c97565b9250827fffffffffffffffffffffffffffffffffffffffffffffffffffffffffffffffff03821115610c1a57610c19610d1b565b5b828201905092915050565b6000610c3082610c97565b9150610c3b83610c97565b925082821015610c4e57610c4d610d1b565b5b828203905092915050565b6000610c6482610c77565b9050919050565b60008115159050919050565b600073ffffffffffffffffffffffffffffffffffffffff82169050919050565b6000819050919050565b610caa82610dbc565b810181811067ffffffffffffffff82111715610cc957610cc8610d79565b5b80604052505050565b6000610cdd82610c97565b91507fffffffffffffffffffffffffffffffffffffffffffffffffffffffffffffffff821415610d1057610d0f610d1b565b5b600182019050919050565b7f4e487b7100000000000000000000000000000000000000000000000000000000600052601160045260246000fd5b7f4e487b7100000000000000000000000000000000000000000000000000000000600052603260045260246000fd5b7f4e487b7100000000000000000000000000000000000000000000000000000000600052604160045260246000fd5b600080fd5b600080fd5b600080fd5b600080fd5b6000601f19601f8301169050919050565b7f4f776e61626c653a206e6577206f776e657220697320746865207a65726f206160008201527f6464726573730000000000000000000000000000000000000000000000000000602082015250565b7f4f776e61626c653a2063616c6c6572206973206e6f7420746865206f776e6572600082015250565b610e4e81610c59565b8114610e5957600080fd5b5056fea2646970667358221220070224275ad0b13d0a847fbeb4a423ae740dee42968a8d236c8eedaef3b3cc5764736f6c63430008070033746f6f206d616e7920757365727320696e206c656167756520746f20616464206e65772075736572a26469706673582212200c091c705f6a108dc0e3a87c808cac2d8fdafc119ea074f4ff125a2edee9c8a964736f6c63430008070033",
  "linkReferences": {
    "contracts/MOBALogicLibrary.sol": {
      "MOBALogicLibrary": [
        {
          "length": 20,
          "start": 2840
        },
        {
          "length": 20,
          "start": 7950
        }
      ]
    }
  },
  "deployedLinkReferences": {
    "contracts/MOBALogicLibrary.sol": {
      "MOBALogicLibrary": [
        {
          "length": 20,
          "start": 2563
        },
        {
          "length": 20,
          "start": 7673
        }
      ]
    }
  }
}