{
  "_format": "hh-sol-artifact-1",
  "contractName": "LeagueOfLegendsLogic",
  "sourceName": "contracts/LeagueOfLegendsLogic.sol",
  "abi": [
    {
      "anonymous": false,
      "inputs": [
        {
          "indexed": true,
          "internalType": "address",
          "name": "previousOwner",
          "type": "address"
        },
        {
          "indexed": true,
          "internalType": "address",
          "name": "newOwner",
          "type": "address"
        }
      ],
      "name": "OwnershipTransferred",
      "type": "event"
    },
    {
      "anonymous": false,
      "inputs": [
        {
          "indexed": false,
          "internalType": "address",
          "name": "sender",
          "type": "address"
        },
        {
          "indexed": false,
          "internalType": "uint256",
          "name": "amount",
          "type": "uint256"
        }
      ],
      "name": "Staked",
      "type": "event"
    },
    {
      "anonymous": false,
      "inputs": [
        {
          "indexed": false,
          "internalType": "address",
          "name": "addr",
          "type": "address"
        }
      ],
      "name": "WhitelistedAddressAdded",
      "type": "event"
    },
    {
      "anonymous": false,
      "inputs": [
        {
          "indexed": false,
          "internalType": "address",
          "name": "addr",
          "type": "address"
        }
      ],
      "name": "WhitelistedAddressRemoved",
      "type": "event"
    },
    {
      "anonymous": false,
      "inputs": [
        {
          "indexed": false,
          "internalType": "address",
          "name": "sender",
          "type": "address"
        },
        {
          "indexed": false,
          "internalType": "address",
          "name": "contractAddress",
          "type": "address"
        }
      ],
      "name": "testUSDCDeployed",
      "type": "event"
    },
    {
      "inputs": [
        {
          "internalType": "address",
          "name": "addr",
          "type": "address"
        }
      ],
      "name": "addAddressToWhitelist",
      "outputs": [
        {
          "internalType": "bool",
          "name": "success",
          "type": "bool"
        }
      ],
      "stateMutability": "nonpayable",
      "type": "function"
    },
    {
      "inputs": [
        {
          "internalType": "address[]",
          "name": "addrs",
          "type": "address[]"
        }
      ],
      "name": "addAddressesToWhitelist",
      "outputs": [
        {
          "internalType": "bool",
          "name": "success",
          "type": "bool"
        }
      ],
      "stateMutability": "nonpayable",
      "type": "function"
    },
    {
      "inputs": [
        {
          "internalType": "address",
          "name": "_userToAdd",
          "type": "address"
        }
      ],
      "name": "addUserToWhitelist",
      "outputs": [],
      "stateMutability": "nonpayable",
      "type": "function"
    },
    {
      "inputs": [
        {
          "internalType": "uint256",
          "name": "currentWeekNum",
          "type": "uint256"
        }
      ],
      "name": "evaluateWeek",
      "outputs": [],
      "stateMutability": "nonpayable",
      "type": "function"
    },
    {
      "inputs": [],
      "name": "getAdmin",
      "outputs": [
        {
          "internalType": "address",
          "name": "",
          "type": "address"
        }
      ],
      "stateMutability": "view",
      "type": "function"
    },
    {
      "inputs": [],
      "name": "getLeagueName",
      "outputs": [
        {
          "internalType": "string",
          "name": "",
          "type": "string"
        }
      ],
      "stateMutability": "view",
      "type": "function"
    },
    {
      "inputs": [],
      "name": "getLineup",
      "outputs": [
        {
          "internalType": "uint256[]",
          "name": "",
          "type": "uint256[]"
        }
      ],
      "stateMutability": "view",
      "type": "function"
    },
    {
      "inputs": [],
      "name": "getNumWhitelisted",
      "outputs": [
        {
          "internalType": "uint256",
          "name": "",
          "type": "uint256"
        }
      ],
      "stateMutability": "view",
      "type": "function"
    },
    {
      "inputs": [],
      "name": "getStakeAmount",
      "outputs": [
        {
          "internalType": "uint256",
          "name": "",
          "type": "uint256"
        }
      ],
      "stateMutability": "view",
      "type": "function"
    },
    {
      "inputs": [],
      "name": "getTestUSDCAddress",
      "outputs": [
        {
          "internalType": "address",
          "name": "",
          "type": "address"
        }
      ],
      "stateMutability": "view",
      "type": "function"
    },
    {
      "inputs": [],
      "name": "getTotalPrizePot",
      "outputs": [
        {
          "internalType": "uint256",
          "name": "",
          "type": "uint256"
        }
      ],
      "stateMutability": "view",
      "type": "function"
    },
    {
      "inputs": [],
      "name": "getUSDCBalance",
      "outputs": [
        {
          "internalType": "uint256",
          "name": "",
          "type": "uint256"
        }
      ],
      "stateMutability": "view",
      "type": "function"
    },
    {
      "inputs": [
        {
          "internalType": "address",
          "name": "_user",
          "type": "address"
        }
      ],
      "name": "getUserIsWhitelisted",
      "outputs": [
        {
          "internalType": "bool",
          "name": "",
          "type": "bool"
        }
      ],
      "stateMutability": "view",
      "type": "function"
    },
    {
      "inputs": [],
      "name": "getUserRecord",
      "outputs": [
        {
          "internalType": "uint256[8]",
          "name": "",
          "type": "uint256[8]"
        }
      ],
      "stateMutability": "view",
      "type": "function"
    },
    {
      "inputs": [],
      "name": "getUserTotalPts",
      "outputs": [
        {
          "internalType": "uint256",
          "name": "",
          "type": "uint256"
        }
      ],
      "stateMutability": "view",
      "type": "function"
    },
    {
      "inputs": [],
      "name": "getUserUSDCBalance",
      "outputs": [
        {
          "internalType": "uint256",
          "name": "",
          "type": "uint256"
        }
      ],
      "stateMutability": "view",
      "type": "function"
    },
    {
      "inputs": [],
      "name": "getUsersLength",
      "outputs": [
        {
          "internalType": "uint256",
          "name": "",
          "type": "uint256"
        }
      ],
      "stateMutability": "view",
      "type": "function"
    },
    {
      "inputs": [
        {
          "internalType": "string",
          "name": "_name",
          "type": "string"
        },
        {
          "internalType": "uint256",
          "name": "_stakeAmount",
          "type": "uint256"
        },
        {
          "internalType": "bool",
          "name": "_isPublic",
          "type": "bool"
        },
        {
          "internalType": "address",
          "name": "athletesDataStorageAddress",
          "type": "address"
        },
        {
          "internalType": "address",
          "name": "_admin",
          "type": "address"
        },
        {
          "internalType": "address",
          "name": "_polygonUSDCAddress",
          "type": "address"
        },
        {
          "internalType": "address",
          "name": "_rinkebyUSDCAddress",
          "type": "address"
        },
        {
          "internalType": "address",
          "name": "_testUSDCAddress",
          "type": "address"
        },
        {
          "internalType": "address",
          "name": "leagueMakerContractAddress",
          "type": "address"
        },
        {
          "internalType": "address",
          "name": "gameItemsContractAddress",
          "type": "address"
        }
      ],
      "name": "initialize",
      "outputs": [],
      "stateMutability": "nonpayable",
      "type": "function"
    },
    {
      "inputs": [],
      "name": "isPublic",
      "outputs": [
        {
          "internalType": "bool",
          "name": "",
          "type": "bool"
        }
      ],
      "stateMutability": "view",
      "type": "function"
    },
    {
      "inputs": [],
      "name": "joinLeague",
      "outputs": [],
      "stateMutability": "nonpayable",
      "type": "function"
    },
    {
      "inputs": [
        {
          "internalType": "uint256",
          "name": "",
          "type": "uint256"
        }
      ],
      "name": "leagueMembers",
      "outputs": [
        {
          "internalType": "address",
          "name": "",
          "type": "address"
        }
      ],
      "stateMutability": "view",
      "type": "function"
    },
    {
      "inputs": [],
      "name": "leagueName",
      "outputs": [
        {
          "internalType": "string",
          "name": "",
          "type": "string"
        }
      ],
      "stateMutability": "view",
      "type": "function"
    },
    {
      "inputs": [],
      "name": "lockLineup",
      "outputs": [],
      "stateMutability": "nonpayable",
      "type": "function"
    },
    {
      "inputs": [],
      "name": "numWeeks",
      "outputs": [
        {
          "internalType": "uint256",
          "name": "",
          "type": "uint256"
        }
      ],
      "stateMutability": "view",
      "type": "function"
    },
    {
      "inputs": [],
      "name": "onLeagueEnd",
      "outputs": [],
      "stateMutability": "nonpayable",
      "type": "function"
    },
    {
      "inputs": [],
      "name": "owner",
      "outputs": [
        {
          "internalType": "address",
          "name": "",
          "type": "address"
        }
      ],
      "stateMutability": "view",
      "type": "function"
    },
    {
      "inputs": [],
      "name": "polygonUSDCAddress",
      "outputs": [
        {
          "internalType": "address",
          "name": "",
          "type": "address"
        }
      ],
      "stateMutability": "view",
      "type": "function"
    },
    {
      "inputs": [
        {
          "internalType": "address",
          "name": "addr",
          "type": "address"
        }
      ],
      "name": "removeAddressFromWhitelist",
      "outputs": [
        {
          "internalType": "bool",
          "name": "success",
          "type": "bool"
        }
      ],
      "stateMutability": "nonpayable",
      "type": "function"
    },
    {
      "inputs": [
        {
          "internalType": "address[]",
          "name": "addrs",
          "type": "address[]"
        }
      ],
      "name": "removeAddressesFromWhitelist",
      "outputs": [
        {
          "internalType": "bool",
          "name": "success",
          "type": "bool"
        }
      ],
      "stateMutability": "nonpayable",
      "type": "function"
    },
    {
      "inputs": [
        {
          "internalType": "address",
          "name": "_userToRemove",
          "type": "address"
        }
      ],
      "name": "removeFromWhitelist",
      "outputs": [],
      "stateMutability": "nonpayable",
      "type": "function"
    },
    {
      "inputs": [],
      "name": "renounceOwnership",
      "outputs": [],
      "stateMutability": "nonpayable",
      "type": "function"
    },
    {
      "inputs": [],
      "name": "rinkebyUSDCAddress",
      "outputs": [
        {
          "internalType": "address",
          "name": "",
          "type": "address"
        }
      ],
      "stateMutability": "view",
      "type": "function"
    },
    {
      "inputs": [],
      "name": "setLeagueEntryIsClosed",
      "outputs": [],
      "stateMutability": "nonpayable",
      "type": "function"
    },
    {
      "inputs": [],
      "name": "setLeagueSchedule",
      "outputs": [],
      "stateMutability": "nonpayable",
      "type": "function"
    },
    {
      "inputs": [
        {
          "internalType": "uint256[]",
          "name": "athleteIds",
          "type": "uint256[]"
        }
      ],
      "name": "setLineup",
      "outputs": [],
      "stateMutability": "nonpayable",
      "type": "function"
    },
    {
      "inputs": [],
      "name": "stakeAmount",
      "outputs": [
        {
          "internalType": "uint256",
          "name": "",
          "type": "uint256"
        }
      ],
      "stateMutability": "view",
      "type": "function"
    },
    {
      "inputs": [
        {
          "internalType": "address",
          "name": "newOwner",
          "type": "address"
        }
      ],
      "name": "transferOwnership",
      "outputs": [],
      "stateMutability": "nonpayable",
      "type": "function"
    },
    {
      "inputs": [],
      "name": "unlockLineup",
      "outputs": [],
      "stateMutability": "nonpayable",
      "type": "function"
    },
    {
      "inputs": [
        {
          "internalType": "address",
          "name": "",
          "type": "address"
        },
        {
          "internalType": "uint256",
          "name": "",
          "type": "uint256"
        }
      ],
      "name": "userToRecord",
      "outputs": [
        {
          "internalType": "uint256",
          "name": "",
          "type": "uint256"
        }
      ],
      "stateMutability": "view",
      "type": "function"
    },
    {
      "inputs": [
        {
          "internalType": "address",
          "name": "",
          "type": "address"
        }
      ],
      "name": "whitelist",
      "outputs": [
        {
          "internalType": "bool",
          "name": "",
          "type": "bool"
        }
      ],
      "stateMutability": "view",
      "type": "function"
    }
  ],
  "bytecode": "0x60806040523480156200001157600080fd5b5062000032620000266200004060201b60201c565b6200004860201b60201c565b60016004819055506200010d565b600033905090565b60008060029054906101000a900473ffffffffffffffffffffffffffffffffffffffff16905081600060026101000a81548173ffffffffffffffffffffffffffffffffffffffff021916908373ffffffffffffffffffffffffffffffffffffffff1602179055508173ffffffffffffffffffffffffffffffffffffffff168173ffffffffffffffffffffffffffffffffffffffff167f8be0079c531659141344cd1fd0a4f28419497f9722a3daafe3b4186f6b6457e060405160405180910390a35050565b61533c806200011d6000396000f3fe60806040523480156200001157600080fd5b5060043610620002bb5760003560e01c8063747b8050116200017d578063a2bc091a11620000e1578063e2ec6ec31162000093578063e2ec6ec314620007da578063e35a89991462000810578063e4c9066b1462000846578063f2fde38b1462000852578063f612121a1462000872578063f8816045146200089257620002bb565b8063a2bc091a1462000750578063ada3a28d146200075c578063c8be3b5b146200077e578063c99fea94146200078a578063cdbba4c61462000796578063dc9a153514620007b857620002bb565b8063853976dd116200013b578063853976dd146200065c5780638caec7a814620006925780638da5cb5b14620006b457806393f3706c14620006d657806399a6003414620006f85780639b19251a146200071a57620002bb565b8063747b805014620005b65780637b9417c814620005d65780637eed33f1146200060c578063841abf6e146200062e57806385334ffa146200065057620002bb565b806344eaa84e11620002255780635fcc698711620001e35780635fcc6987146200050057806360c7dc4714620005225780636bdc44df14620005445780636e9960c31462000566578063715018a61462000588578063722580b6146200059457620002bb565b806344eaa84e146200045857806352e6e5f3146200047a578063595b1a3e146200049c5780635d514d6914620004be5780635ec0b4f714620004de57620002bb565b80631d803e00116200027f5780631d803e00146200036657806324953eaa1462000372578063267175db14620003a8578063286dd3f514620003de5780633cfd1ccc1462000414578063403570c5146200043657620002bb565b8062b2476f14620002c05780630655465a14620002e257806306d60c2414620002ee5780630c6f7959146200030e5780630d8e6e2c1462000344575b600080fd5b620002ca620008b4565b604051620002d9919062003760565b60405180910390f35b620002ec620008da565b005b6200030c600480360381019062000306919062002fd1565b62000a15565b005b6200032c60048036038101906200032691906200307c565b62000bb2565b6040516200033b919062003af9565b60405180910390f35b6200034e62000bdb565b6040516200035d919062003af9565b60405180910390f35b6200037062000be0565b005b6200039060048036038101906200038a9190620030c3565b62000ec7565b6040516200039f9190620038c5565b60405180910390f35b620003c66004803603810190620003c09190620032b1565b62000fc4565b604051620003d5919062003760565b60405180910390f35b620003fc6004803603810190620003f6919062002fd1565b62001004565b6040516200040b9190620038c5565b60405180910390f35b6200041e62001193565b6040516200042d919062003af9565b60405180910390f35b62000440620012a2565b6040516200044f9190620039a3565b60405180910390f35b620004626200133c565b60405162000471919062003af9565b60405180910390f35b6200048462001346565b60405162000493919062003af9565b60405180910390f35b620004a66200134c565b604051620004b5919062003af9565b60405180910390f35b620004dc6004803603810190620004d6919062003197565b62001359565b005b620004e8620017b0565b604051620004f7919062003af9565b60405180910390f35b6200050a620017ba565b60405162000519919062003af9565b60405180910390f35b6200052c620018c9565b6040516200053b919062003af9565b60405180910390f35b6200054e620018cf565b6040516200055d919062003af9565b60405180910390f35b6200057062001916565b6040516200057f919062003760565b60405180910390f35b6200059262001940565b005b6200059e620019d1565b604051620005ad919062003af9565b60405180910390f35b620005d46004803603810190620005ce919062002fd1565b620019db565b005b620005f46004803603810190620005ee919062002fd1565b62001b25565b604051620006039190620038c5565b60405180910390f35b6200061662001cb2565b60405162000625919062003af9565b60405180910390f35b6200063862001cb8565b604051620006479190620039a3565b60405180910390f35b6200065a62001d4e565b005b6200067a600480360381019062000674919062003035565b62001e70565b60405162000689919062003760565b60405180910390f35b6200069c6200203a565b604051620006ab919062003760565b60405180910390f35b620006be62002064565b604051620006cd919062003760565b60405180910390f35b620006e06200208d565b604051620006ef919062003760565b60405180910390f35b62000702620020b3565b60405162000711919062003af9565b60405180910390f35b62000738600480360381019062000732919062002fd1565b620020cf565b604051620007479190620038c5565b60405180910390f35b6200075a620020ef565b005b620007666200218f565b604051620007759190620038a1565b60405180910390f35b6200078862002226565b005b62000794620022c6565b005b620007a0620025cd565b604051620007af919062003760565b60405180910390f35b620007c2620025f7565b604051620007d19190620038c5565b60405180910390f35b620007f86004803603810190620007f29190620030c3565b6200260a565b604051620008079190620038c5565b60405180910390f35b6200082e600480360381019062000828919062002fd1565b62002707565b6040516200083d9190620038c5565b60405180910390f35b620008506200275d565b005b6200087060048036038101906200086a919062002fd1565b620027fd565b005b6200089060048036038101906200088a919062003114565b62002901565b005b6200089c62002a04565b604051620008ab919062003883565b60405180910390f35b601260009054906101000a900473ffffffffffffffffffffffffffffffffffffffff1681565b620008e462002a90565b73ffffffffffffffffffffffffffffffffffffffff166200090462002064565b73ffffffffffffffffffffffffffffffffffffffff16146200095d576040517f08c379a0000000000000000000000000000000000000000000000000000000008152600401620009549062003a4f565b60405180910390fd5b6200099d6040518060400160405280601081526020017f73657474696e67207363686564756c650000000000000000000000000000000081525062002a98565b73__$36fdb4e0c2cb91f3ceca5ea81b025328f3$__63d2c232b56010600f60065460056040518563ffffffff1660e01b8152600401620009e19493929190620038e2565b60006040518083038186803b158015620009fa57600080fd5b505af415801562000a0f573d6000803e3d6000fd5b50505050565b600960009054906101000a900473ffffffffffffffffffffffffffffffffffffffff1673ffffffffffffffffffffffffffffffffffffffff163373ffffffffffffffffffffffffffffffffffffffff161462000aa8576040517f08c379a000000000000000000000000000000000000000000000000000000000815260040162000a9f9062003a71565b60405180910390fd5b600a60149054906101000a900460ff161562000afb576040517f08c379a000000000000000000000000000000000000000000000000000000000815260040162000af29062003a93565b60405180910390fd5b601460009054906101000a900473ffffffffffffffffffffffffffffffffffffffff1673ffffffffffffffffffffffffffffffffffffffff1663286dd3f5826040518263ffffffff1660e01b815260040162000b58919062003760565b602060405180830381600087803b15801562000b7357600080fd5b505af115801562000b88573d6000803e3d6000fd5b505050506040513d601f19601f8201168201806040525081019062000bae919062003165565b5050565b600c602052816000526040600020816008811062000bcf57600080fd5b01600091509150505481565b600090565b62000bea62002a90565b73ffffffffffffffffffffffffffffffffffffffff1662000c0a62002064565b73ffffffffffffffffffffffffffffffffffffffff161462000c63576040517f08c379a000000000000000000000000000000000000000000000000000000000815260040162000c5a9062003a4f565b60405180910390fd5b6002600454141562000cac576040517f08c379a000000000000000000000000000000000000000000000000000000000815260040162000ca39062003ab5565b60405180910390fd5b60026004819055506000600f8054905060085462000ccb919062003ce0565b90506000805b600f8054905081101562000e0257600b60008373ffffffffffffffffffffffffffffffffffffffff1673ffffffffffffffffffffffffffffffffffffffff16815260200190815260200160002054600b6000600f848154811062000d3a5762000d3962003f78565b5b9060005260206000200160009054906101000a900473ffffffffffffffffffffffffffffffffffffffff1673ffffffffffffffffffffffffffffffffffffffff1673ffffffffffffffffffffffffffffffffffffffff16815260200190815260200160002054111562000dec57600f818154811062000dbe5762000dbd62003f78565b5b9060005260206000200160009054906101000a900473ffffffffffffffffffffffffffffffffffffffff1691505b808062000df99062003ecc565b91505062000cd1565b50601660009054906101000a900473ffffffffffffffffffffffffffffffffffffffff1673ffffffffffffffffffffffffffffffffffffffff166323b872dd3330856040518463ffffffff1660e01b815260040162000e64939291906200377d565b602060405180830381600087803b15801562000e7f57600080fd5b505af115801562000e94573d6000803e3d6000fd5b505050506040513d601f19601f8201168201806040525081019062000eba919062003165565b5050506001600481905550565b600062000ed362002a90565b73ffffffffffffffffffffffffffffffffffffffff1662000ef362002064565b73ffffffffffffffffffffffffffffffffffffffff161462000f4c576040517f08c379a000000000000000000000000000000000000000000000000000000000815260040162000f439062003a4f565b60405180910390fd5b60005b825181101562000fbe5762000f8183828151811062000f735762000f7262003f78565b5b602002602001015162001004565b1562000fa85760016002600082825462000f9c919062003d41565b92505081905550600191505b808062000fb59062003ecc565b91505062000f4f565b50919050565b600f818154811062000fd557600080fd5b906000526020600020016000915054906101000a900473ffffffffffffffffffffffffffffffffffffffff1681565b60006200101062002a90565b73ffffffffffffffffffffffffffffffffffffffff166200103062002064565b73ffffffffffffffffffffffffffffffffffffffff161462001089576040517f08c379a0000000000000000000000000000000000000000000000000000000008152600401620010809062003a4f565b60405180910390fd5b600160008373ffffffffffffffffffffffffffffffffffffffff1673ffffffffffffffffffffffffffffffffffffffff16815260200190815260200160002060009054906101000a900460ff16156200118e576000600160008473ffffffffffffffffffffffffffffffffffffffff1673ffffffffffffffffffffffffffffffffffffffff16815260200190815260200160002060006101000a81548160ff0219169083151502179055507ff1abf01a1043b7c244d128e8595cf0c1d10743b022b03a02dffd8ca3bf729f5a8260405162001165919062003760565b60405180910390a160016002600082825462001182919062003d41565b92505081905550600190505b919050565b6000600e60003373ffffffffffffffffffffffffffffffffffffffff1673ffffffffffffffffffffffffffffffffffffffff16815260200190815260200160002060009054906101000a900460ff16620011ec57600080fd5b601660009054906101000a900473ffffffffffffffffffffffffffffffffffffffff1673ffffffffffffffffffffffffffffffffffffffff166370a08231306040518263ffffffff1660e01b815260040162001249919062003760565b60206040518083038186803b1580156200126257600080fd5b505afa15801562001277573d6000803e3d6000fd5b505050506040513d601f19601f820116820180604052508101906200129d9190620032e3565b905090565b606060058054620012b39062003e42565b80601f0160208091040260200160405190810160405280929190818152602001828054620012e19062003e42565b8015620013325780601f10620013065761010080835404028352916020019162001332565b820191906000526020600020905b8154815290600101906020018083116200131457829003601f168201915b5050505050905090565b6000600254905090565b60075481565b6000600f80549050905090565b600060019054906101000a900460ff16620013835760008054906101000a900460ff16156200138e565b6200138d62002b35565b5b620013d0576040517f08c379a0000000000000000000000000000000000000000000000000000000008152600401620013c79062003a2d565b60405180910390fd5b60008060019054906101000a900460ff16159050801562001421576001600060016101000a81548160ff02191690831515021790555060016000806101000a81548160ff0219169083151502179055505b8b8b600591906200143492919062002c59565b50896006819055506001600e60008873ffffffffffffffffffffffffffffffffffffffff1673ffffffffffffffffffffffffffffffffffffffff16815260200190815260200160002060006101000a81548160ff021916908315150217905550600f869080600181540180825580915050600190039060005260206000200160009091909190916101000a81548173ffffffffffffffffffffffffffffffffffffffff021916908373ffffffffffffffffffffffffffffffffffffffff16021790555085600960006101000a81548173ffffffffffffffffffffffffffffffffffffffff021916908373ffffffffffffffffffffffffffffffffffffffff1602179055508860088190555087600360006101000a81548160ff0219169083151502179055506000600a60156101000a81548160ff0219169083151502179055506000600a60146101000a81548160ff02191690831515021790555086601360006101000a81548173ffffffffffffffffffffffffffffffffffffffff021916908373ffffffffffffffffffffffffffffffffffffffff16021790555081601560006101000a81548173ffffffffffffffffffffffffffffffffffffffff021916908373ffffffffffffffffffffffffffffffffffffffff1602179055506040516200161f9062002cea565b604051809103906000f0801580156200163c573d6000803e3d6000fd5b50601460006101000a81548173ffffffffffffffffffffffffffffffffffffffff021916908373ffffffffffffffffffffffffffffffffffffffff16021790555084601160006101000a81548173ffffffffffffffffffffffffffffffffffffffff021916908373ffffffffffffffffffffffffffffffffffffffff16021790555083601260006101000a81548173ffffffffffffffffffffffffffffffffffffffff021916908373ffffffffffffffffffffffffffffffffffffffff16021790555082601660006101000a81548173ffffffffffffffffffffffffffffffffffffffff021916908373ffffffffffffffffffffffffffffffffffffffff160217905550620017806040518060400160405280601281526020017f50726f787920696e697469616c697a656421000000000000000000000000000081525062002a98565b8015620017a25760008060016101000a81548160ff0219169083151502179055505b505050505050505050505050565b6000600754905090565b6000600e60003373ffffffffffffffffffffffffffffffffffffffff1673ffffffffffffffffffffffffffffffffffffffff16815260200190815260200160002060009054906101000a900460ff166200181357600080fd5b601660009054906101000a900473ffffffffffffffffffffffffffffffffffffffff1673ffffffffffffffffffffffffffffffffffffffff166370a08231336040518263ffffffff1660e01b815260040162001870919062003760565b60206040518083038186803b1580156200188957600080fd5b505afa1580156200189e573d6000803e3d6000fd5b505050506040513d601f19601f82011682018060405250810190620018c49190620032e3565b905090565b60085481565b6000600b60003373ffffffffffffffffffffffffffffffffffffffff1673ffffffffffffffffffffffffffffffffffffffff16815260200190815260200160002054905090565b6000600960009054906101000a900473ffffffffffffffffffffffffffffffffffffffff16905090565b6200194a62002a90565b73ffffffffffffffffffffffffffffffffffffffff166200196a62002064565b73ffffffffffffffffffffffffffffffffffffffff1614620019c3576040517f08c379a0000000000000000000000000000000000000000000000000000000008152600401620019ba9062003a4f565b60405180910390fd5b620019cf600062002b48565b565b6000600854905090565b600960009054906101000a900473ffffffffffffffffffffffffffffffffffffffff1673ffffffffffffffffffffffffffffffffffffffff163373ffffffffffffffffffffffffffffffffffffffff161462001a6e576040517f08c379a000000000000000000000000000000000000000000000000000000000815260040162001a659062003a71565b60405180910390fd5b601460009054906101000a900473ffffffffffffffffffffffffffffffffffffffff1673ffffffffffffffffffffffffffffffffffffffff16637b9417c8826040518263ffffffff1660e01b815260040162001acb919062003760565b602060405180830381600087803b15801562001ae657600080fd5b505af115801562001afb573d6000803e3d6000fd5b505050506040513d601f19601f8201168201806040525081019062001b21919062003165565b5050565b600062001b3162002a90565b73ffffffffffffffffffffffffffffffffffffffff1662001b5162002064565b73ffffffffffffffffffffffffffffffffffffffff161462001baa576040517f08c379a000000000000000000000000000000000000000000000000000000000815260040162001ba19062003a4f565b60405180910390fd5b600160008373ffffffffffffffffffffffffffffffffffffffff1673ffffffffffffffffffffffffffffffffffffffff16815260200190815260200160002060009054906101000a900460ff1662001cad5760018060008473ffffffffffffffffffffffffffffffffffffffff1673ffffffffffffffffffffffffffffffffffffffff16815260200190815260200160002060006101000a81548160ff0219169083151502179055507fd1bba68c128cc3f427e5831b3c6f99f480b6efa6b9e80c757768f6124158cc3f8260405162001c84919062003760565b60405180910390a160016002600082825462001ca1919062003c83565b92505081905550600190505b919050565b60065481565b6005805462001cc79062003e42565b80601f016020809104026020016040519081016040528092919081815260200182805462001cf59062003e42565b801562001d465780601f1062001d1a5761010080835404028352916020019162001d46565b820191906000526020600020905b81548152906001019060200180831162001d2857829003601f168201915b505050505081565b62001d5862002a90565b73ffffffffffffffffffffffffffffffffffffffff1662001d7862002064565b73ffffffffffffffffffffffffffffffffffffffff161462001dd1576040517f08c379a000000000000000000000000000000000000000000000000000000000815260040162001dc89062003a4f565b60405180910390fd5b73__$36fdb4e0c2cb91f3ceca5ea81b025328f3$__63c406e2686010600754601360009054906101000a900473ffffffffffffffffffffffffffffffffffffffff16600c600b600d6040518763ffffffff1660e01b815260040162001e3c9695949392919062003936565b60006040518083038186803b15801562001e5557600080fd5b505af415801562001e6a573d6000803e3d6000fd5b50505050565b600062001e7c62002a90565b73ffffffffffffffffffffffffffffffffffffffff1662001e9c62002064565b73ffffffffffffffffffffffffffffffffffffffff161462001ef5576040517f08c379a000000000000000000000000000000000000000000000000000000000815260040162001eec9062003a4f565b60405180910390fd5b73__$36fdb4e0c2cb91f3ceca5ea81b025328f3$__63fb0841fb8484600754601360009054906101000a900473ffffffffffffffffffffffffffffffffffffffff16600d60008a73ffffffffffffffffffffffffffffffffffffffff1673ffffffffffffffffffffffffffffffffffffffff168152602001908152602001600020600d60008a73ffffffffffffffffffffffffffffffffffffffff1673ffffffffffffffffffffffffffffffffffffffff168152602001908152602001600020600c600b6040518963ffffffff1660e01b815260040162001fde989796959493929190620037ba565b60206040518083038186803b15801562001ff757600080fd5b505af41580156200200c573d6000803e3d6000fd5b505050506040513d601f19601f8201168201806040525081019062002032919062003003565b905092915050565b6000601360009054906101000a900473ffffffffffffffffffffffffffffffffffffffff16905090565b60008060029054906101000a900473ffffffffffffffffffffffffffffffffffffffff16905090565b601160009054906101000a900473ffffffffffffffffffffffffffffffffffffffff1681565b6000600f80549050600854620020ca919062003ce0565b905090565b60016020528060005260406000206000915054906101000a900460ff1681565b620020f962002a90565b73ffffffffffffffffffffffffffffffffffffffff166200211962002064565b73ffffffffffffffffffffffffffffffffffffffff161462002172576040517f08c379a0000000000000000000000000000000000000000000000000000000008152600401620021699062003a4f565b60405180910390fd5b6000600a60156101000a81548160ff021916908315150217905550565b6060600d60003373ffffffffffffffffffffffffffffffffffffffff1673ffffffffffffffffffffffffffffffffffffffff1681526020019081526020016000208054806020026020016040519081016040528092919081815260200182805480156200221c57602002820191906000526020600020905b81548152602001906001019080831162002207575b5050505050905090565b6200223062002a90565b73ffffffffffffffffffffffffffffffffffffffff166200225062002064565b73ffffffffffffffffffffffffffffffffffffffff1614620022a9576040517f08c379a0000000000000000000000000000000000000000000000000000000008152600401620022a09062003a4f565b60405180910390fd5b6001600a60156101000a81548160ff021916908315150217905550565b600160003373ffffffffffffffffffffffffffffffffffffffff1673ffffffffffffffffffffffffffffffffffffffff16815260200190815260200160002060009054906101000a900460ff16806200232b5750600360009054906101000a900460ff165b6200236d576040517f08c379a00000000000000000000000000000000000000000000000000000000081526004016200236490620039e9565b60405180910390fd5b60026004541415620023b6576040517f08c379a0000000000000000000000000000000000000000000000000000000008152600401620023ad9062003ab5565b60405180910390fd5b6002600481905550600a60149054906101000a900460ff161562002411576040517f08c379a0000000000000000000000000000000000000000000000000000000008152600401620024089062003ad7565b60405180910390fd5b6001600e60003373ffffffffffffffffffffffffffffffffffffffff1673ffffffffffffffffffffffffffffffffffffffff16815260200190815260200160002060006101000a81548160ff021916908315150217905550600f339080600181540180825580915050600190039060005260206000200160009091909190916101000a81548173ffffffffffffffffffffffffffffffffffffffff021916908373ffffffffffffffffffffffffffffffffffffffff160217905550601660009054906101000a900473ffffffffffffffffffffffffffffffffffffffff1673ffffffffffffffffffffffffffffffffffffffff166323b872dd33306008546040518463ffffffff1660e01b81526004016200252f939291906200377d565b602060405180830381600087803b1580156200254a57600080fd5b505af11580156200255f573d6000803e3d6000fd5b505050506040513d601f19601f8201168201806040525081019062002585919062003165565b507f9e71bc8eea02a63969f509818f2dafb9254532904319f9dbda79b67bd34a5f3d33600854604051620025bb92919062003856565b60405180910390a16001600481905550565b6000601660009054906101000a900473ffffffffffffffffffffffffffffffffffffffff16905090565b600360009054906101000a900460ff1681565b60006200261662002a90565b73ffffffffffffffffffffffffffffffffffffffff166200263662002064565b73ffffffffffffffffffffffffffffffffffffffff16146200268f576040517f08c379a0000000000000000000000000000000000000000000000000000000008152600401620026869062003a4f565b60405180910390fd5b60005b82518110156200270157620026c4838281518110620026b657620026b562003f78565b5b602002602001015162001b25565b15620026eb57600160026000828254620026df919062003c83565b92505081905550600191505b8080620026f89062003ecc565b91505062002692565b50919050565b6000600160008373ffffffffffffffffffffffffffffffffffffffff1673ffffffffffffffffffffffffffffffffffffffff16815260200190815260200160002060009054906101000a900460ff169050919050565b6200276762002a90565b73ffffffffffffffffffffffffffffffffffffffff166200278762002064565b73ffffffffffffffffffffffffffffffffffffffff1614620027e0576040517f08c379a0000000000000000000000000000000000000000000000000000000008152600401620027d79062003a4f565b60405180910390fd5b6001600a60146101000a81548160ff021916908315150217905550565b6200280762002a90565b73ffffffffffffffffffffffffffffffffffffffff166200282762002064565b73ffffffffffffffffffffffffffffffffffffffff161462002880576040517f08c379a0000000000000000000000000000000000000000000000000000000008152600401620028779062003a4f565b60405180910390fd5b600073ffffffffffffffffffffffffffffffffffffffff168173ffffffffffffffffffffffffffffffffffffffff161415620028f3576040517f08c379a0000000000000000000000000000000000000000000000000000000008152600401620028ea90620039c7565b60405180910390fd5b620028fe8162002b48565b50565b600a60159054906101000a900460ff161562002954576040517f08c379a00000000000000000000000000000000000000000000000000000000081526004016200294b9062003a0b565b60405180910390fd5b600e60003373ffffffffffffffffffffffffffffffffffffffff1673ffffffffffffffffffffffffffffffffffffffff16815260200190815260200160002060009054906101000a900460ff16620029ab57600080fd5b80600d60003373ffffffffffffffffffffffffffffffffffffffff1673ffffffffffffffffffffffffffffffffffffffff168152602001908152602001600020908051906020019062002a0092919062002cf8565b5050565b62002a0e62002d4a565b600c60003373ffffffffffffffffffffffffffffffffffffffff1673ffffffffffffffffffffffffffffffffffffffff16815260200190815260200160002060088060200260405190810160405280929190826008801562002a86576020028201915b81548152602001906001019080831162002a71575b5050505050905090565b600033905090565b62002b328160405160240162002aaf9190620039a3565b6040516020818303038152906040527f41304fac000000000000000000000000000000000000000000000000000000007bffffffffffffffffffffffffffffffffffffffffffffffffffffffff19166020820180517bffffffffffffffffffffffffffffffffffffffffffffffffffffffff838183161783525050505062002c0d565b50565b600062002b423062002c36565b15905090565b60008060029054906101000a900473ffffffffffffffffffffffffffffffffffffffff16905081600060026101000a81548173ffffffffffffffffffffffffffffffffffffffff021916908373ffffffffffffffffffffffffffffffffffffffff1602179055508173ffffffffffffffffffffffffffffffffffffffff168173ffffffffffffffffffffffffffffffffffffffff167f8be0079c531659141344cd1fd0a4f28419497f9722a3daafe3b4186f6b6457e060405160405180910390a35050565b60008151905060006a636f6e736f6c652e6c6f679050602083016000808483855afa5050505050565b6000808273ffffffffffffffffffffffffffffffffffffffff163b119050919050565b82805462002c679062003e42565b90600052602060002090601f01602090048101928262002c8b576000855562002cd7565b82601f1062002ca657803560ff191683800117855562002cd7565b8280016001018555821562002cd7579182015b8281111562002cd657823582559160200191906001019062002cb9565b5b50905062002ce6919062002d6d565b5090565b61108d806200427a83390190565b82805482825590600052602060002090810192821562002d37579160200282015b8281111562002d3657825182559160200191906001019062002d19565b5b50905062002d46919062002d6d565b5090565b604051806101000160405280600890602082028036833780820191505090505090565b5b8082111562002d8857600081600090555060010162002d6e565b5090565b600062002da362002d9d8462003b3f565b62003b16565b9050808382526020820190508285602086028201111562002dc95762002dc862003ff5565b5b60005b8581101562002dfd578162002de2888262002e82565b84526020840193506020830192505060018101905062002dcc565b5050509392505050565b600062002e1e62002e188462003b6e565b62003b16565b9050808382526020820190508285602086028201111562002e445762002e4362003ff5565b5b60005b8581101562002e78578162002e5d888262002fa3565b84526020840193506020830192505060018101905062002e47565b5050509392505050565b60008135905062002e93816200422b565b92915050565b60008151905062002eaa816200422b565b92915050565b600082601f83011262002ec85762002ec762003ff0565b5b813562002eda84826020860162002d8c565b91505092915050565b600082601f83011262002efb5762002efa62003ff0565b5b813562002f0d84826020860162002e07565b91505092915050565b60008135905062002f278162004245565b92915050565b60008151905062002f3e8162004245565b92915050565b60008083601f84011262002f5d5762002f5c62003ff0565b5b8235905067ffffffffffffffff81111562002f7d5762002f7c62003feb565b5b60208301915083600182028301111562002f9c5762002f9b62003ff5565b5b9250929050565b60008135905062002fb4816200425f565b92915050565b60008151905062002fcb816200425f565b92915050565b60006020828403121562002fea5762002fe962003fff565b5b600062002ffa8482850162002e82565b91505092915050565b6000602082840312156200301c576200301b62003fff565b5b60006200302c8482850162002e99565b91505092915050565b600080604083850312156200304f576200304e62003fff565b5b60006200305f8582860162002e82565b9250506020620030728582860162002e82565b9150509250929050565b6000806040838503121562003096576200309562003fff565b5b6000620030a68582860162002e82565b9250506020620030b98582860162002fa3565b9150509250929050565b600060208284031215620030dc57620030db62003fff565b5b600082013567ffffffffffffffff811115620030fd57620030fc62003ffa565b5b6200310b8482850162002eb0565b91505092915050565b6000602082840312156200312d576200312c62003fff565b5b600082013567ffffffffffffffff8111156200314e576200314d62003ffa565b5b6200315c8482850162002ee3565b91505092915050565b6000602082840312156200317e576200317d62003fff565b5b60006200318e8482850162002f2d565b91505092915050565b60008060008060008060008060008060006101408c8e031215620031c057620031bf62003fff565b5b60008c013567ffffffffffffffff811115620031e157620031e062003ffa565b5b620031ef8e828f0162002f44565b9b509b50506020620032048e828f0162002fa3565b9950506040620032178e828f0162002fa3565b98505060606200322a8e828f0162002f16565b97505060806200323d8e828f0162002e82565b96505060a0620032508e828f0162002e82565b95505060c0620032638e828f0162002e82565b94505060e0620032768e828f0162002e82565b9350506101006200328a8e828f0162002e82565b9250506101206200329e8e828f0162002e82565b9150509295989b509295989b9093969950565b600060208284031215620032ca57620032c962003fff565b5b6000620032da8482850162002fa3565b91505092915050565b600060208284031215620032fc57620032fb62003fff565b5b60006200330c8482850162002fba565b91505092915050565b60006200332383836200371c565b60208301905092915050565b60006200333d83836200374f565b60208301905092915050565b620033548162003d86565b82525050565b620033658162003d86565b82525050565b8082525050565b6200337d8162003be1565b62003389818462003c34565b9250620033968262003b9d565b8060005b83811015620033cd578151620033b1878262003315565b9650620033be8362003c0d565b9250506001810190506200339a565b505050505050565b6000620033e28262003bec565b620033ee818562003c3f565b9350620033fb8362003ba7565b8060005b838110156200343257815162003416888262003315565b9750620034238362003c1a565b925050600181019050620033ff565b5085935050505092915050565b60006200344c8262003bf7565b62003458818562003c50565b9350620034658362003bb7565b8060005b83811015620034a5576200347d8262003fd6565b6200348988826200332f565b9750620034968362003c27565b92505060018101905062003469565b5085935050505092915050565b620034bd8162003d9a565b82525050565b620034ce8162003dd0565b82525050565b8082525050565b8082525050565b8082525050565b8082525050565b6000620034fd8262003c02565b62003509818562003c61565b93506200351b81856020860162003e0c565b620035268162004004565b840191505092915050565b60008154620035408162003e42565b6200354c818662003c72565b945060018216600081146200356a57600181146200357d57620035b4565b60ff1983168652602086019350620035b4565b620035888562003bcc565b60005b83811015620035ac578154818901526001820191506020810190506200358b565b808801955050505b50505092915050565b6000620035cc60268362003c61565b9150620035d98262004022565b604082019050919050565b6000620035f3601a8362003c61565b9150620036008262004071565b602082019050919050565b60006200361a601e8362003c61565b915062003627826200409a565b602082019050919050565b600062003641602e8362003c61565b91506200364e82620040c3565b604082019050919050565b60006200366860208362003c61565b9150620036758262004112565b602082019050919050565b60006200368f60178362003c61565b91506200369c826200413b565b602082019050919050565b6000620036b660418362003c61565b9150620036c38262004164565b606082019050919050565b6000620036dd601f8362003c61565b9150620036ea82620041d9565b602082019050919050565b60006200370460178362003c61565b9150620037118262004202565b602082019050919050565b620037278162003dc6565b82525050565b620037388162003dc6565b82525050565b620037498162003dc6565b82525050565b6200375a8162003dc6565b82525050565b600060208201905062003777600083018462003349565b92915050565b600060608201905062003794600083018662003349565b620037a3602083018562003349565b620037b260408301846200372d565b949350505050565b600061010082019050620037d2600083018b6200335a565b620037e1602083018a6200335a565b620037f060408301896200373e565b620037ff6060830188620034c3565b81810360808301526200381381876200343f565b905081810360a08301526200382981866200343f565b90506200383a60c0830185620034d4565b6200384960e0830184620034e2565b9998505050505050505050565b60006040820190506200386d600083018562003349565b6200387c60208301846200372d565b9392505050565b6000610100820190506200389b600083018462003372565b92915050565b60006020820190508181036000830152620038bd8184620033d5565b905092915050565b6000602082019050620038dc6000830184620034b2565b92915050565b6000608082019050620038f96000830187620034e9565b6200390860208301866200336b565b6200391760408301856200373e565b81810360608301526200392b818462003531565b905095945050505050565b600060c0820190506200394d6000830189620034e9565b6200395c60208301886200373e565b6200396b6040830187620034c3565b6200397a6060830186620034d4565b620039896080830185620034e2565b6200399860a0830184620034db565b979650505050505050565b60006020820190508181036000830152620039bf8184620034f0565b905092915050565b60006020820190508181036000830152620039e281620035bd565b9050919050565b6000602082019050818103600083015262003a0481620035e4565b9050919050565b6000602082019050818103600083015262003a26816200360b565b9050919050565b6000602082019050818103600083015262003a488162003632565b9050919050565b6000602082019050818103600083015262003a6a8162003659565b9050919050565b6000602082019050818103600083015262003a8c8162003680565b9050919050565b6000602082019050818103600083015262003aae81620036a7565b9050919050565b6000602082019050818103600083015262003ad081620036ce565b9050919050565b6000602082019050818103600083015262003af281620036f5565b9050919050565b600060208201905062003b1060008301846200372d565b92915050565b600062003b2262003b35565b905062003b30828262003e96565b919050565b6000604051905090565b600067ffffffffffffffff82111562003b5d5762003b5c62003fa7565b5b602082029050602081019050919050565b600067ffffffffffffffff82111562003b8c5762003b8b62003fa7565b5b602082029050602081019050919050565b6000819050919050565b6000819050602082019050919050565b60008190508160005260206000209050919050565b60008190508160005260206000209050919050565b600060089050919050565b600081519050919050565b600081549050919050565b600081519050919050565b6000602082019050919050565b6000602082019050919050565b6000600182019050919050565b600081905092915050565b600082825260208201905092915050565b600082825260208201905092915050565b600082825260208201905092915050565b600082825260208201905092915050565b600062003c908262003dc6565b915062003c9d8362003dc6565b9250827fffffffffffffffffffffffffffffffffffffffffffffffffffffffffffffffff0382111562003cd55762003cd462003f1a565b5b828201905092915050565b600062003ced8262003dc6565b915062003cfa8362003dc6565b9250817fffffffffffffffffffffffffffffffffffffffffffffffffffffffffffffffff048311821515161562003d365762003d3562003f1a565b5b828202905092915050565b600062003d4e8262003dc6565b915062003d5b8362003dc6565b92508282101562003d715762003d7062003f1a565b5b828203905092915050565b6000819050919050565b600062003d938262003da6565b9050919050565b60008115159050919050565b600073ffffffffffffffffffffffffffffffffffffffff82169050919050565b6000819050919050565b600062003ddd8262003de4565b9050919050565b600062003df18262003df8565b9050919050565b600062003e058262003da6565b9050919050565b60005b8381101562003e2c57808201518184015260208101905062003e0f565b8381111562003e3c576000848401525b50505050565b6000600282049050600182168062003e5b57607f821691505b6020821081141562003e725762003e7162003f49565b5b50919050565b600062003e8f62003e898362004015565b62003d7c565b9050919050565b62003ea18262004004565b810181811067ffffffffffffffff8211171562003ec35762003ec262003fa7565b5b80604052505050565b600062003ed98262003dc6565b91507fffffffffffffffffffffffffffffffffffffffffffffffffffffffffffffffff82141562003f0f5762003f0e62003f1a565b5b600182019050919050565b7f4e487b7100000000000000000000000000000000000000000000000000000000600052601160045260246000fd5b7f4e487b7100000000000000000000000000000000000000000000000000000000600052602260045260246000fd5b7f4e487b7100000000000000000000000000000000000000000000000000000000600052603260045260246000fd5b7f4e487b7100000000000000000000000000000000000000000000000000000000600052604160045260246000fd5b600062003fe4825462003e78565b9050919050565b600080fd5b600080fd5b600080fd5b600080fd5b600080fd5b6000601f19601f8301169050919050565b60008160001c9050919050565b7f4f776e61626c653a206e6577206f776e657220697320746865207a65726f206160008201527f6464726573730000000000000000000000000000000000000000000000000000602082015250565b7f55736572206973206e6f742077686974656c6973746564203a28000000000000600082015250565b7f6c696e657570206973206c6f636b656420666f7220746865207765656b210000600082015250565b7f496e697469616c697a61626c653a20636f6e747261637420697320616c72656160008201527f647920696e697469616c697a6564000000000000000000000000000000000000602082015250565b7f4f776e61626c653a2063616c6c6572206973206e6f7420746865206f776e6572600082015250565b7f43616c6c6572206973206e6f74207468652061646d696e000000000000000000600082015250565b7f4e6f626f64792063616e20656e7465722f6578697420746865206c656167756560008201527f20616e796d6f72652e2054686520736561736f6e20686173207374617274656460208201527f2100000000000000000000000000000000000000000000000000000000000000604082015250565b7f5265656e7472616e637947756172643a207265656e7472616e742063616c6c00600082015250565b7f4c656167756520456e74727920697320436c6f73656421000000000000000000600082015250565b620042368162003d86565b81146200424257600080fd5b50565b620042508162003d9a565b81146200425c57600080fd5b50565b6200426a8162003dc6565b81146200427657600080fd5b5056fe608060405234801561001057600080fd5b5061002d61002261003260201b60201c565b61003a60201b60201c565b6100fe565b600033905090565b60008060009054906101000a900473ffffffffffffffffffffffffffffffffffffffff169050816000806101000a81548173ffffffffffffffffffffffffffffffffffffffff021916908373ffffffffffffffffffffffffffffffffffffffff1602179055508173ffffffffffffffffffffffffffffffffffffffff168173ffffffffffffffffffffffffffffffffffffffff167f8be0079c531659141344cd1fd0a4f28419497f9722a3daafe3b4186f6b6457e060405160405180910390a35050565b610f808061010d6000396000f3fe608060405234801561001057600080fd5b50600436106100a95760003560e01c80638da5cb5b116100715780638da5cb5b146101665780639b19251a14610184578063dc9a1535146101b4578063e2ec6ec3146101d2578063e35a899914610202578063f2fde38b14610232576100a9565b806324953eaa146100ae578063286dd3f5146100de57806344eaa84e1461010e578063715018a61461012c5780637b9417c814610136575b600080fd5b6100c860048036038101906100c39190610b0e565b61024e565b6040516100d59190610be5565b60405180910390f35b6100f860048036038101906100f39190610ae1565b610338565b6040516101059190610be5565b60405180910390f35b6101166104bb565b6040516101239190610c40565b60405180910390f35b6101346104c5565b005b610150600480360381019061014b9190610ae1565b61054d565b60405161015d9190610be5565b60405180910390f35b61016e6106ce565b60405161017b9190610bca565b60405180910390f35b61019e60048036038101906101999190610ae1565b6106f7565b6040516101ab9190610be5565b60405180910390f35b6101bc610717565b6040516101c99190610be5565b60405180910390f35b6101ec60048036038101906101e79190610b0e565b61072a565b6040516101f99190610be5565b60405180910390f35b61021c60048036038101906102179190610ae1565b610814565b6040516102299190610be5565b60405180910390f35b61024c60048036038101906102479190610ae1565b61086a565b005b6000610258610962565b73ffffffffffffffffffffffffffffffffffffffff166102766106ce565b73ffffffffffffffffffffffffffffffffffffffff16146102cc576040517f08c379a00000000000000000000000000000000000000000000000000000000081526004016102c390610c20565b60405180910390fd5b60005b8251811015610332576102fb8382815181106102ee576102ed610e38565b5b6020026020010151610338565b1561031f576001600260008282546103139190610d13565b92505081905550600191505b808061032a90610dc0565b9150506102cf565b50919050565b6000610342610962565b73ffffffffffffffffffffffffffffffffffffffff166103606106ce565b73ffffffffffffffffffffffffffffffffffffffff16146103b6576040517f08c379a00000000000000000000000000000000000000000000000000000000081526004016103ad90610c20565b60405180910390fd5b600160008373ffffffffffffffffffffffffffffffffffffffff1673ffffffffffffffffffffffffffffffffffffffff16815260200190815260200160002060009054906101000a900460ff16156104b6576000600160008473ffffffffffffffffffffffffffffffffffffffff1673ffffffffffffffffffffffffffffffffffffffff16815260200190815260200160002060006101000a81548160ff0219169083151502179055507ff1abf01a1043b7c244d128e8595cf0c1d10743b022b03a02dffd8ca3bf729f5a8260405161048f9190610bca565b60405180910390a16001600260008282546104aa9190610d13565b92505081905550600190505b919050565b6000600254905090565b6104cd610962565b73ffffffffffffffffffffffffffffffffffffffff166104eb6106ce565b73ffffffffffffffffffffffffffffffffffffffff1614610541576040517f08c379a000000000000000000000000000000000000000000000000000000000815260040161053890610c20565b60405180910390fd5b61054b600061096a565b565b6000610557610962565b73ffffffffffffffffffffffffffffffffffffffff166105756106ce565b73ffffffffffffffffffffffffffffffffffffffff16146105cb576040517f08c379a00000000000000000000000000000000000000000000000000000000081526004016105c290610c20565b60405180910390fd5b600160008373ffffffffffffffffffffffffffffffffffffffff1673ffffffffffffffffffffffffffffffffffffffff16815260200190815260200160002060009054906101000a900460ff166106c95760018060008473ffffffffffffffffffffffffffffffffffffffff1673ffffffffffffffffffffffffffffffffffffffff16815260200190815260200160002060006101000a81548160ff0219169083151502179055507fd1bba68c128cc3f427e5831b3c6f99f480b6efa6b9e80c757768f6124158cc3f826040516106a29190610bca565b60405180910390a16001600260008282546106bd9190610cbd565b92505081905550600190505b919050565b60008060009054906101000a900473ffffffffffffffffffffffffffffffffffffffff16905090565b60016020528060005260406000206000915054906101000a900460ff1681565b600360009054906101000a900460ff1681565b6000610734610962565b73ffffffffffffffffffffffffffffffffffffffff166107526106ce565b73ffffffffffffffffffffffffffffffffffffffff16146107a8576040517f08c379a000000000000000000000000000000000000000000000000000000000815260040161079f90610c20565b60405180910390fd5b60005b825181101561080e576107d78382815181106107ca576107c9610e38565b5b602002602001015161054d565b156107fb576001600260008282546107ef9190610cbd565b92505081905550600191505b808061080690610dc0565b9150506107ab565b50919050565b6000600160008373ffffffffffffffffffffffffffffffffffffffff1673ffffffffffffffffffffffffffffffffffffffff16815260200190815260200160002060009054906101000a900460ff169050919050565b610872610962565b73ffffffffffffffffffffffffffffffffffffffff166108906106ce565b73ffffffffffffffffffffffffffffffffffffffff16146108e6576040517f08c379a00000000000000000000000000000000000000000000000000000000081526004016108dd90610c20565b60405180910390fd5b600073ffffffffffffffffffffffffffffffffffffffff168173ffffffffffffffffffffffffffffffffffffffff161415610956576040517f08c379a000000000000000000000000000000000000000000000000000000000815260040161094d90610c00565b60405180910390fd5b61095f8161096a565b50565b600033905090565b60008060009054906101000a900473ffffffffffffffffffffffffffffffffffffffff169050816000806101000a81548173ffffffffffffffffffffffffffffffffffffffff021916908373ffffffffffffffffffffffffffffffffffffffff1602179055508173ffffffffffffffffffffffffffffffffffffffff168173ffffffffffffffffffffffffffffffffffffffff167f8be0079c531659141344cd1fd0a4f28419497f9722a3daafe3b4186f6b6457e060405160405180910390a35050565b6000610a41610a3c84610c80565b610c5b565b90508083825260208201905082856020860282011115610a6457610a63610e9b565b5b60005b85811015610a945781610a7a8882610a9e565b845260208401935060208301925050600181019050610a67565b5050509392505050565b600081359050610aad81610f33565b92915050565b600082601f830112610ac857610ac7610e96565b5b8135610ad8848260208601610a2e565b91505092915050565b600060208284031215610af757610af6610ea5565b5b6000610b0584828501610a9e565b91505092915050565b600060208284031215610b2457610b23610ea5565b5b600082013567ffffffffffffffff811115610b4257610b41610ea0565b5b610b4e84828501610ab3565b91505092915050565b610b6081610d47565b82525050565b610b6f81610d59565b82525050565b6000610b82602683610cac565b9150610b8d82610ebb565b604082019050919050565b6000610ba5602083610cac565b9150610bb082610f0a565b602082019050919050565b610bc481610d85565b82525050565b6000602082019050610bdf6000830184610b57565b92915050565b6000602082019050610bfa6000830184610b66565b92915050565b60006020820190508181036000830152610c1981610b75565b9050919050565b60006020820190508181036000830152610c3981610b98565b9050919050565b6000602082019050610c556000830184610bbb565b92915050565b6000610c65610c76565b9050610c718282610d8f565b919050565b6000604051905090565b600067ffffffffffffffff821115610c9b57610c9a610e67565b5b602082029050602081019050919050565b600082825260208201905092915050565b6000610cc882610d85565b9150610cd383610d85565b9250827fffffffffffffffffffffffffffffffffffffffffffffffffffffffffffffffff03821115610d0857610d07610e09565b5b828201905092915050565b6000610d1e82610d85565b9150610d2983610d85565b925082821015610d3c57610d3b610e09565b5b828203905092915050565b6000610d5282610d65565b9050919050565b60008115159050919050565b600073ffffffffffffffffffffffffffffffffffffffff82169050919050565b6000819050919050565b610d9882610eaa565b810181811067ffffffffffffffff82111715610db757610db6610e67565b5b80604052505050565b6000610dcb82610d85565b91507fffffffffffffffffffffffffffffffffffffffffffffffffffffffffffffffff821415610dfe57610dfd610e09565b5b600182019050919050565b7f4e487b7100000000000000000000000000000000000000000000000000000000600052601160045260246000fd5b7f4e487b7100000000000000000000000000000000000000000000000000000000600052603260045260246000fd5b7f4e487b7100000000000000000000000000000000000000000000000000000000600052604160045260246000fd5b600080fd5b600080fd5b600080fd5b600080fd5b6000601f19601f8301169050919050565b7f4f776e61626c653a206e6577206f776e657220697320746865207a65726f206160008201527f6464726573730000000000000000000000000000000000000000000000000000602082015250565b7f4f776e61626c653a2063616c6c6572206973206e6f7420746865206f776e6572600082015250565b610f3c81610d47565b8114610f4757600080fd5b5056fea26469706673582212207192af37282fd7bfe53350acb10318f34b6fed008a48fb804e840facad443e6364736f6c63430008070033a26469706673582212204c73de0df0546dbd3fd28445814ece851d5c0db30d3a6344f9215240ea3c3ec964736f6c63430008070033",
  "linkReferences": {
    "contracts/MOBALogicLibrary.sol": {
      "MOBALogicLibrary": [
        {
          "length": 20,
          "start": 2748
        },
        {
          "length": 20,
          "start": 7920
        },
        {
          "length": 20,
          "start": 8212
        }
      ]
    }
  },
  "deployedLinkReferences": {
    "contracts/MOBALogicLibrary.sol": {
      "MOBALogicLibrary": [
        {
          "length": 20,
          "start": 2463
        },
        {
          "length": 20,
          "start": 7635
        },
        {
          "length": 20,
          "start": 7927
        }
      ]
    }
  }
}