{
  "_format": "hh-sol-artifact-1",
  "contractName": "LeagueOfLegendsLogic",
  "sourceName": "contracts/LeagueOfLegendsLogic.sol",
  "abi": [
    {
      "anonymous": false,
      "inputs": [
        {
          "indexed": false,
          "internalType": "address",
          "name": "sender",
          "type": "address"
        },
        {
          "indexed": false,
          "internalType": "uint256",
          "name": "amount",
          "type": "uint256"
        },
        {
          "indexed": false,
          "internalType": "address",
          "name": "leagueAddress",
          "type": "address"
        }
      ],
      "name": "Staked",
      "type": "event"
    },
    {
      "anonymous": false,
      "inputs": [
        {
          "indexed": false,
          "internalType": "address[]",
          "name": "winner",
          "type": "address[]"
        },
        {
          "indexed": false,
          "internalType": "uint256",
          "name": "prizePotPerWinner",
          "type": "uint256"
        }
      ],
      "name": "leagueEnded",
      "type": "event"
    },
    {
      "anonymous": false,
      "inputs": [
        {
          "indexed": false,
          "internalType": "address",
          "name": "sender",
          "type": "address"
        },
        {
          "indexed": false,
          "internalType": "address",
          "name": "contractAddress",
          "type": "address"
        }
      ],
      "name": "testUSDCDeployed",
      "type": "event"
    },
    {
      "inputs": [
        {
          "internalType": "address",
          "name": "_userToAdd",
          "type": "address"
        }
      ],
      "name": "addUserToWhitelist",
      "outputs": [],
      "stateMutability": "nonpayable",
      "type": "function"
    },
    {
      "inputs": [],
      "name": "admin",
      "outputs": [
        {
          "internalType": "address",
          "name": "",
          "type": "address"
        }
      ],
      "stateMutability": "view",
      "type": "function"
    },
    {
      "inputs": [],
      "name": "currentWeekNum",
      "outputs": [
        {
          "internalType": "uint256",
          "name": "",
          "type": "uint256"
        }
      ],
      "stateMutability": "view",
      "type": "function"
    },
    {
      "inputs": [],
      "name": "evaluateMatches",
      "outputs": [],
      "stateMutability": "nonpayable",
      "type": "function"
    },
    {
      "inputs": [],
      "name": "getAdmin",
      "outputs": [
        {
          "internalType": "address",
          "name": "",
          "type": "address"
        }
      ],
      "stateMutability": "view",
      "type": "function"
    },
    {
      "inputs": [],
      "name": "getContractUSDCBalance",
      "outputs": [
        {
          "internalType": "uint256",
          "name": "",
          "type": "uint256"
        }
      ],
      "stateMutability": "view",
      "type": "function"
    },
    {
      "inputs": [
        {
          "internalType": "uint256",
          "name": "index",
          "type": "uint256"
        }
      ],
      "name": "getLeagueMember",
      "outputs": [
        {
          "internalType": "address",
          "name": "",
          "type": "address"
        }
      ],
      "stateMutability": "view",
      "type": "function"
    },
    {
      "inputs": [
        {
          "internalType": "address",
          "name": "_user",
          "type": "address"
        }
      ],
      "name": "getLineup",
      "outputs": [
        {
          "internalType": "uint256[]",
          "name": "",
          "type": "uint256[]"
        }
      ],
      "stateMutability": "view",
      "type": "function"
    },
    {
      "inputs": [],
      "name": "getLineupIsLocked",
      "outputs": [
        {
          "internalType": "bool",
          "name": "",
          "type": "bool"
        }
      ],
      "stateMutability": "view",
      "type": "function"
    },
    {
      "inputs": [
        {
          "internalType": "uint256",
          "name": "_week",
          "type": "uint256"
        }
      ],
      "name": "getScheduleForWeek",
      "outputs": [
        {
          "components": [
            {
              "internalType": "address[2]",
              "name": "players",
              "type": "address[2]"
            }
          ],
          "internalType": "struct LeagueOfLegendsLogic.Matchup[]",
          "name": "",
          "type": "tuple[]"
        }
      ],
      "stateMutability": "view",
      "type": "function"
    },
    {
      "inputs": [],
      "name": "getUserRecord",
      "outputs": [
        {
          "internalType": "uint256[]",
          "name": "",
          "type": "uint256[]"
        }
      ],
      "stateMutability": "view",
      "type": "function"
    },
    {
      "inputs": [
        {
          "internalType": "address",
          "name": "",
          "type": "address"
        }
      ],
      "name": "inLeague",
      "outputs": [
        {
          "internalType": "bool",
          "name": "",
          "type": "bool"
        }
      ],
      "stateMutability": "view",
      "type": "function"
    },
    {
      "inputs": [
        {
          "internalType": "string",
          "name": "_name",
          "type": "string"
        },
        {
          "internalType": "uint256",
          "name": "_stakeAmount",
          "type": "uint256"
        },
        {
          "internalType": "bool",
          "name": "_isPublic",
          "type": "bool"
        },
        {
          "internalType": "address",
          "name": "athletesDataStorageAddress",
          "type": "address"
        },
        {
          "internalType": "address",
          "name": "_admin",
          "type": "address"
        },
        {
          "internalType": "address",
          "name": "_rinkebyUSDCAddress",
          "type": "address"
        },
        {
          "internalType": "address",
          "name": "_testUSDCAddress",
          "type": "address"
        },
        {
          "internalType": "address",
          "name": "_gameItemsContractAddress",
          "type": "address"
        },
        {
          "internalType": "address",
          "name": "_teamDiffAddress",
          "type": "address"
        },
        {
          "internalType": "address",
          "name": "_leagueMakerContractAddress",
          "type": "address"
        }
      ],
      "name": "initialize",
      "outputs": [],
      "stateMutability": "nonpayable",
      "type": "function"
    },
    {
      "inputs": [],
      "name": "joinLeague",
      "outputs": [],
      "stateMutability": "nonpayable",
      "type": "function"
    },
    {
      "inputs": [],
      "name": "leagueEntryIsClosed",
      "outputs": [
        {
          "internalType": "bool",
          "name": "",
          "type": "bool"
        }
      ],
      "stateMutability": "view",
      "type": "function"
    },
    {
      "inputs": [
        {
          "internalType": "uint256",
          "name": "",
          "type": "uint256"
        }
      ],
      "name": "leagueMembers",
      "outputs": [
        {
          "internalType": "address",
          "name": "",
          "type": "address"
        }
      ],
      "stateMutability": "view",
      "type": "function"
    },
    {
      "inputs": [],
      "name": "leagueName",
      "outputs": [
        {
          "internalType": "string",
          "name": "",
          "type": "string"
        }
      ],
      "stateMutability": "view",
      "type": "function"
    },
    {
      "inputs": [],
      "name": "lineupIsLocked",
      "outputs": [
        {
          "internalType": "bool",
          "name": "",
          "type": "bool"
        }
      ],
      "stateMutability": "view",
      "type": "function"
    },
    {
      "inputs": [],
      "name": "lockLineup",
      "outputs": [],
      "stateMutability": "nonpayable",
      "type": "function"
    },
    {
      "inputs": [],
      "name": "numWeeks",
      "outputs": [
        {
          "internalType": "uint256",
          "name": "",
          "type": "uint256"
        }
      ],
      "stateMutability": "view",
      "type": "function"
    },
    {
      "inputs": [],
      "name": "onLeagueEnd",
      "outputs": [],
      "stateMutability": "nonpayable",
      "type": "function"
    },
    {
      "inputs": [
        {
          "internalType": "address",
          "name": "_userToRemove",
          "type": "address"
        }
      ],
      "name": "removeFromWhitelist",
      "outputs": [],
      "stateMutability": "nonpayable",
      "type": "function"
    },
    {
      "inputs": [],
      "name": "rinkebyUSDC",
      "outputs": [
        {
          "internalType": "contract IERC20",
          "name": "",
          "type": "address"
        }
      ],
      "stateMutability": "view",
      "type": "function"
    },
    {
      "inputs": [],
      "name": "rinkebyUSDCAddress",
      "outputs": [
        {
          "internalType": "address",
          "name": "",
          "type": "address"
        }
      ],
      "stateMutability": "view",
      "type": "function"
    },
    {
      "inputs": [
        {
          "internalType": "uint256",
          "name": "athleteId",
          "type": "uint256"
        },
        {
          "internalType": "uint256",
          "name": "position",
          "type": "uint256"
        }
      ],
      "name": "setAthleteInLineup",
      "outputs": [],
      "stateMutability": "nonpayable",
      "type": "function"
    },
    {
      "inputs": [],
      "name": "setLeagueEntryIsClosed",
      "outputs": [],
      "stateMutability": "nonpayable",
      "type": "function"
    },
    {
      "inputs": [],
      "name": "setLeagueSchedule",
      "outputs": [],
      "stateMutability": "nonpayable",
      "type": "function"
    },
    {
      "inputs": [
        {
          "internalType": "uint256[]",
          "name": "athleteIds",
          "type": "uint256[]"
        }
      ],
      "name": "setLineup",
      "outputs": [],
      "stateMutability": "nonpayable",
      "type": "function"
    },
    {
      "inputs": [],
      "name": "stakeAmount",
      "outputs": [
        {
          "internalType": "uint256",
          "name": "",
          "type": "uint256"
        }
      ],
      "stateMutability": "view",
      "type": "function"
    },
    {
      "inputs": [],
      "name": "teamDiffAddress",
      "outputs": [
        {
          "internalType": "address",
          "name": "",
          "type": "address"
        }
      ],
      "stateMutability": "view",
      "type": "function"
    },
    {
      "inputs": [],
      "name": "unlockLineup",
      "outputs": [],
      "stateMutability": "nonpayable",
      "type": "function"
    },
    {
      "inputs": [
        {
          "internalType": "address",
          "name": "",
          "type": "address"
        },
        {
          "internalType": "uint256",
          "name": "",
          "type": "uint256"
        }
      ],
      "name": "userToLineup",
      "outputs": [
        {
          "internalType": "uint256",
          "name": "",
          "type": "uint256"
        }
      ],
      "stateMutability": "view",
      "type": "function"
    },
    {
      "inputs": [
        {
          "internalType": "address",
          "name": "",
          "type": "address"
        }
      ],
      "name": "userToPoints",
      "outputs": [
        {
          "internalType": "uint256",
          "name": "",
          "type": "uint256"
        }
      ],
      "stateMutability": "view",
      "type": "function"
    },
    {
      "inputs": [
        {
          "internalType": "address",
          "name": "",
          "type": "address"
        },
        {
          "internalType": "uint256",
          "name": "",
          "type": "uint256"
        }
      ],
      "name": "userToRecord",
      "outputs": [
        {
          "internalType": "uint256",
          "name": "",
          "type": "uint256"
        }
      ],
      "stateMutability": "view",
      "type": "function"
    },
    {
      "inputs": [],
      "name": "whitelistContract",
      "outputs": [
        {
          "internalType": "contract Whitelist",
          "name": "",
          "type": "address"
        }
      ],
      "stateMutability": "view",
      "type": "function"
    }
  ],
  "bytecode": "0x608060405234801561001057600080fd5b50600180819055506157e6806100276000396000f3fe60806040523480156200001157600080fd5b5060043610620002425760003560e01c8063747b80501162000141578063c8be3b5b11620000bd578063e5f7322f1162000087578063e5f7322f1462000619578063ee90080f146200064f578063f612121a1462000685578063f851a44014620006a5578063f881604514620006c75762000242565b8063c8be3b5b14620005bf578063c99fea9414620005cb578063cff5600314620005d7578063e4c9066b146200060d5762000242565b80638ab1d681116200010b5780638ab1d681146200051b5780639122ce6d146200053b578063a2bc091a1462000571578063a949a9d7146200057d578063b47f8628146200059f5762000242565b8063747b805014620004955780637eed33f114620004b5578063841abf6e14620004d757806384900b0414620004f95762000242565b806327311b3211620001d15780633c3ae13f116200019b5780633c3ae13f14620003ed57806352e6e5f3146200040d57806360c7dc47146200042f5780636cc15ad514620004515780636e9960c314620004735762000242565b806327311b3214620003535780632ae6b13514620003755780632d382ee014620003ab578063305a578214620003e15762000242565b80630c6f795911620002135780630c6f795914620002b95780631d803e0014620002ef5780631dd7f8ca14620002fb578063267175db146200031d5762000242565b80622772c21462000247578062b2476f14620002695780630635dbcb146200028b5780630655465a14620002ad575b600080fd5b62000251620006e9565b60405162000260919062003cd0565b60405180910390f35b62000273620007a1565b6040516200028291906200388f565b60405180910390f35b62000295620007c7565b604051620002a4919062003a13565b60405180910390f35b620002b7620007da565b005b620002d76004803603810190620002d1919062002fcf565b620008e5565b604051620002e6919062003cd0565b60405180910390f35b620002f962000917565b005b6200030562000d5e565b6040516200031491906200388f565b60405180910390f35b6200033b6004803603810190620003359190620031b3565b62000d84565b6040516200034a91906200388f565b60405180910390f35b6200035d62000dc4565b6040516200036c919062003a13565b60405180910390f35b6200039360048036038101906200038d919062002f9d565b62000ddb565b604051620003a2919062003cd0565b60405180910390f35b620003c96004803603810190620003c39190620031b3565b62000df3565b604051620003d89190620039cb565b60405180910390f35b620003eb62000ee4565b005b6200040b600480360381019062000405919062003099565b6200105c565b005b62000417620013ec565b60405162000426919062003cd0565b60405180910390f35b62000439620013f2565b60405162000448919062003cd0565b60405180910390f35b6200045b620013f8565b6040516200046a919062003a13565b60405180910390f35b6200047d6200140b565b6040516200048c91906200388f565b60405180910390f35b620004b36004803603810190620004ad919062002f9d565b62001435565b005b620004bf6200157f565b604051620004ce919062003cd0565b60405180910390f35b620004e162001585565b604051620004f0919062003abe565b60405180910390f35b620005036200161b565b60405162000512919062003a4d565b60405180910390f35b62000539600480360381019062000533919062002f9d565b62001641565b005b62000559600480360381019062000553919062002f9d565b620017de565b60405162000568919062003a13565b60405180910390f35b6200057b620017fe565b005b62000587620018ae565b60405162000596919062003a30565b60405180910390f35b620005bd6004803603810190620005b7919062003217565b620018d4565b005b620005c962001b9f565b005b620005d562001c4f565b005b620005f56004803603810190620005ef919062002fcf565b6200236b565b60405162000604919062003cd0565b60405180910390f35b620006176200239d565b005b62000637600480360381019062000631919062002f9d565b6200244d565b604051620006469190620039ef565b60405180910390f35b6200066d6004803603810190620006679190620031b3565b620024e6565b6040516200067c91906200388f565b60405180910390f35b620006a360048036038101906200069d919062003016565b62002531565b005b620006af62002a17565b604051620006be91906200388f565b60405180910390f35b620006d162002a3d565b604051620006e09190620039ef565b60405180910390f35b6000601460009054906101000a900473ffffffffffffffffffffffffffffffffffffffff1673ffffffffffffffffffffffffffffffffffffffff166370a08231306040518263ffffffff1660e01b81526004016200074891906200388f565b60206040518083038186803b1580156200076157600080fd5b505afa15801562000776573d6000803e3d6000fd5b505050506040513d601f19601f820116820180604052508101906200079c9190620031e5565b905090565b601060009054906101000a900473ffffffffffffffffffffffffffffffffffffffff1681565b600760159054906101000a900460ff1681565b600760009054906101000a900473ffffffffffffffffffffffffffffffffffffffff1673ffffffffffffffffffffffffffffffffffffffff163373ffffffffffffffffffffffffffffffffffffffff16146200086d576040517f08c379a0000000000000000000000000000000000000000000000000000000008152600401620008649062003be2565b60405180910390fd5b73__$36fdb4e0c2cb91f3ceca5ea81b025328f3$__63d2c232b5600f600d60035460026040518563ffffffff1660e01b8152600401620008b1949392919062003a6a565b60006040518083038186803b158015620008ca57600080fd5b505af4158015620008df573d6000803e3d6000fd5b50505050565b600960205281600052604060002081815481106200090257600080fd5b90600052602060002001600091509150505481565b600760009054906101000a900473ffffffffffffffffffffffffffffffffffffffff1673ffffffffffffffffffffffffffffffffffffffff163373ffffffffffffffffffffffffffffffffffffffff1614620009aa576040517f08c379a0000000000000000000000000000000000000000000000000000000008152600401620009a19062003be2565b60405180910390fd5b6000600454600d80549050620009c1919062003f77565b905073__$36fdb4e0c2cb91f3ceca5ea81b025328f3$__63cc9b40cc600d600b600e6040518463ffffffff1660e01b815260040162000a039392919062003953565b60006040518083038186803b15801562000a1c57600080fd5b505af415801562000a31573d6000803e3d6000fd5b5050505060005b600e8054905081101562000aa85762000a92600e828154811062000a615762000a60620042ab565b5b9060005260206000200160009054906101000a900473ffffffffffffffffffffffffffffffffffffffff1662002ad4565b808062000a9f90620041d0565b91505062000a38565b506000600e805490508262000abe919062003f3f565b905062000b066040518060400160405280601681526020017f4c65616775652077696e6e657273206c656e2069732000000000000000000000815250600e8054905062002b71565b62000b476040518060400160405280601681526020017f5072697a65207065722077696e6e6572206973203a20000000000000000000008152508262002b71565b7f648f2405ea194f3e49fe1655279883b3474e63909ab7e4a579b051d548ad8389600e8260405162000b7b92919062003997565b60405180910390a160005b600e8054905081101562000d5957601460009054906101000a900473ffffffffffffffffffffffffffffffffffffffff1673ffffffffffffffffffffffffffffffffffffffff1663095ea7b330846040518363ffffffff1660e01b815260040162000bf3929190620038e9565b602060405180830381600087803b15801562000c0e57600080fd5b505af115801562000c23573d6000803e3d6000fd5b505050506040513d601f19601f8201168201806040525081019062000c49919062003067565b50601460009054906101000a900473ffffffffffffffffffffffffffffffffffffffff1673ffffffffffffffffffffffffffffffffffffffff166323b872dd30600e848154811062000ca05762000c9f620042ab565b5b9060005260206000200160009054906101000a900473ffffffffffffffffffffffffffffffffffffffff16856040518463ffffffff1660e01b815260040162000cec93929190620038ac565b602060405180830381600087803b15801562000d0757600080fd5b505af115801562000d1c573d6000803e3d6000fd5b505050506040513d601f19601f8201168201806040525081019062000d42919062003067565b50808062000d5090620041d0565b91505062000b86565b505050565b600760009054906101000a900473ffffffffffffffffffffffffffffffffffffffff1681565b600d818154811062000d9557600080fd5b906000526020600020016000915054906101000a900473ffffffffffffffffffffffffffffffffffffffff1681565b6000600760159054906101000a900460ff16905090565b600b6020528060005260406000206000915090505481565b6060600f6000838152602001908152602001600020805480602002602001604051908101604052809291908181526020016000905b8282101562000ed957838290600052602060002090600202016040518060200160405290816000820160028060200260405190810160405280929190826002801562000ec0576020028201915b8160009054906101000a900473ffffffffffffffffffffffffffffffffffffffff1673ffffffffffffffffffffffffffffffffffffffff168152602001906001019080831162000e75575b5050505050815250508152602001906001019062000e28565b505050509050919050565b600760009054906101000a900473ffffffffffffffffffffffffffffffffffffffff1673ffffffffffffffffffffffffffffffffffffffff163373ffffffffffffffffffffffffffffffffffffffff161462000f77576040517f08c379a000000000000000000000000000000000000000000000000000000000815260040162000f6e9062003be2565b60405180910390fd5b73__$36fdb4e0c2cb91f3ceca5ea81b025328f3$__63c930f4bc600554601160009054906101000a900473ffffffffffffffffffffffffffffffffffffffff166009600a600b600f6040518763ffffffff1660e01b815260040162000fe29695949392919062003ced565b60006040518083038186803b15801562000ffb57600080fd5b505af415801562001010573d6000803e3d6000fd5b50505050600160035462001025919062003fd8565b60055414156200103f576200103962000917565b6200105a565b600560008154809291906200105490620041d0565b91905055505b565b600060019054906101000a900460ff16620010865760008054906101000a900460ff161562001091565b6200109062002c11565b5b620010d3576040517f08c379a0000000000000000000000000000000000000000000000000000000008152600401620010ca9062003b9e565b60405180910390fd5b60008060019054906101000a900460ff16159050801562001124576001600060016101000a81548160ff02191690831515021790555060016000806101000a81548160ff0219169083151502179055505b8b8b600291906200113792919062002d0d565b50600860038190555086600660006101000a81548173ffffffffffffffffffffffffffffffffffffffff021916908373ffffffffffffffffffffffffffffffffffffffff160217905550896004819055506000600760146101000a81548160ff0219169083151502179055506000600760156101000a81548160ff02191690831515021790555087601160006101000a81548173ffffffffffffffffffffffffffffffffffffffff021916908373ffffffffffffffffffffffffffffffffffffffff16021790555081601360006101000a81548173ffffffffffffffffffffffffffffffffffffffff021916908373ffffffffffffffffffffffffffffffffffffffff160217905550886040516200124f9062002d9e565b6200125b919062003a13565b604051809103906000f08015801562001278573d6000803e3d6000fd5b50601260006101000a81548173ffffffffffffffffffffffffffffffffffffffff021916908373ffffffffffffffffffffffffffffffffffffffff16021790555085601460006101000a81548173ffffffffffffffffffffffffffffffffffffffff021916908373ffffffffffffffffffffffffffffffffffffffff16021790555082600760006101000a81548173ffffffffffffffffffffffffffffffffffffffff021916908373ffffffffffffffffffffffffffffffffffffffff16021790555083601560006101000a81548173ffffffffffffffffffffffffffffffffffffffff021916908373ffffffffffffffffffffffffffffffffffffffff160217905550620013bc6040518060400160405280601281526020017f50726f787920696e697469616c697a656421000000000000000000000000000081525062002c24565b8015620013de5760008060016101000a81548160ff0219169083151502179055505b505050505050505050505050565b60055481565b60045481565b600760149054906101000a900460ff1681565b6000600660009054906101000a900473ffffffffffffffffffffffffffffffffffffffff16905090565b600660009054906101000a900473ffffffffffffffffffffffffffffffffffffffff1673ffffffffffffffffffffffffffffffffffffffff163373ffffffffffffffffffffffffffffffffffffffff1614620014c8576040517f08c379a0000000000000000000000000000000000000000000000000000000008152600401620014bf9062003bc0565b60405180910390fd5b601260009054906101000a900473ffffffffffffffffffffffffffffffffffffffff1673ffffffffffffffffffffffffffffffffffffffff16637b9417c8826040518263ffffffff1660e01b81526004016200152591906200388f565b602060405180830381600087803b1580156200154057600080fd5b505af115801562001555573d6000803e3d6000fd5b505050506040513d601f19601f820116820180604052508101906200157b919062003067565b5050565b60035481565b60028054620015949062004146565b80601f0160208091040260200160405190810160405280929190818152602001828054620015c29062004146565b8015620016135780601f10620015e75761010080835404028352916020019162001613565b820191906000526020600020905b815481529060010190602001808311620015f557829003601f168201915b505050505081565b601260009054906101000a900473ffffffffffffffffffffffffffffffffffffffff1681565b600660009054906101000a900473ffffffffffffffffffffffffffffffffffffffff1673ffffffffffffffffffffffffffffffffffffffff163373ffffffffffffffffffffffffffffffffffffffff1614620016d4576040517f08c379a0000000000000000000000000000000000000000000000000000000008152600401620016cb9062003bc0565b60405180910390fd5b600760149054906101000a900460ff161562001727576040517f08c379a00000000000000000000000000000000000000000000000000000000081526004016200171e9062003c48565b60405180910390fd5b601260009054906101000a900473ffffffffffffffffffffffffffffffffffffffff1673ffffffffffffffffffffffffffffffffffffffff1663286dd3f5826040518263ffffffff1660e01b81526004016200178491906200388f565b602060405180830381600087803b1580156200179f57600080fd5b505af1158015620017b4573d6000803e3d6000fd5b505050506040513d601f19601f82011682018060405250810190620017da919062003067565b5050565b600c6020528060005260406000206000915054906101000a900460ff1681565b600760009054906101000a900473ffffffffffffffffffffffffffffffffffffffff1673ffffffffffffffffffffffffffffffffffffffff163373ffffffffffffffffffffffffffffffffffffffff161462001891576040517f08c379a0000000000000000000000000000000000000000000000000000000008152600401620018889062003be2565b60405180910390fd5b6000600760156101000a81548160ff021916908315150217905550565b601460009054906101000a900473ffffffffffffffffffffffffffffffffffffffff1681565b600760159054906101000a900460ff161562001927576040517f08c379a00000000000000000000000000000000000000000000000000000000081526004016200191e9062003b7c565b60405180910390fd5b600c60003373ffffffffffffffffffffffffffffffffffffffff1673ffffffffffffffffffffffffffffffffffffffff16815260200190815260200160002060009054906101000a900460ff16620019b6576040517f08c379a0000000000000000000000000000000000000000000000000000000008152600401620019ad9062003c04565b60405180910390fd5b6000601560009054906101000a900473ffffffffffffffffffffffffffffffffffffffff1673ffffffffffffffffffffffffffffffffffffffff1662fdd58e33856040518363ffffffff1660e01b815260040162001a16929190620038e9565b60206040518083038186803b15801562001a2f57600080fd5b505afa15801562001a44573d6000803e3d6000fd5b505050506040513d601f19601f8201168201806040525081019062001a6a9190620031e5565b1162001aad576040517f08c379a000000000000000000000000000000000000000000000000000000000815260040162001aa49062003c6a565b60405180910390fd5b600a8162001abc919062003f77565b821015801562001af657506001600a60018362001ada919062003ee2565b62001ae6919062003f77565b62001af2919062003fd8565b8211155b62001b38576040517f08c379a000000000000000000000000000000000000000000000000000000000815260040162001b2f9062003b5a565b60405180910390fd5b81600a60003373ffffffffffffffffffffffffffffffffffffffff1673ffffffffffffffffffffffffffffffffffffffff168152602001908152602001600020828154811062001b8d5762001b8c620042ab565b5b90600052602060002001819055505050565b600760009054906101000a900473ffffffffffffffffffffffffffffffffffffffff1673ffffffffffffffffffffffffffffffffffffffff163373ffffffffffffffffffffffffffffffffffffffff161462001c32576040517f08c379a000000000000000000000000000000000000000000000000000000000815260040162001c299062003be2565b60405180910390fd5b6001600760156101000a81548160ff021916908315150217905550565b6002600154141562001c98576040517f08c379a000000000000000000000000000000000000000000000000000000000815260040162001c8f9062003c8c565b60405180910390fd5b6002600181905550601260009054906101000a900473ffffffffffffffffffffffffffffffffffffffff1673ffffffffffffffffffffffffffffffffffffffff16639b19251a336040518263ffffffff1660e01b815260040162001cfd91906200388f565b60206040518083038186803b15801562001d1657600080fd5b505afa15801562001d2b573d6000803e3d6000fd5b505050506040513d601f19601f8201168201806040525081019062001d51919062003067565b8062001dfd5750601260009054906101000a900473ffffffffffffffffffffffffffffffffffffffff1673ffffffffffffffffffffffffffffffffffffffff1663dc9a15356040518163ffffffff1660e01b815260040160206040518083038186803b15801562001dc157600080fd5b505afa15801562001dd6573d6000803e3d6000fd5b505050506040513d601f19601f8201168201806040525081019062001dfc919062003067565b5b8062001e565750600660009054906101000a900473ffffffffffffffffffffffffffffffffffffffff1673ffffffffffffffffffffffffffffffffffffffff163373ffffffffffffffffffffffffffffffffffffffff16145b62001e98576040517f08c379a000000000000000000000000000000000000000000000000000000000815260040162001e8f9062003c26565b60405180910390fd5b600760149054906101000a900460ff161562001eeb576040517f08c379a000000000000000000000000000000000000000000000000000000000815260040162001ee29062003cae565b60405180910390fd5b600c60003373ffffffffffffffffffffffffffffffffffffffff1673ffffffffffffffffffffffffffffffffffffffff16815260200190815260200160002060009054906101000a900460ff161562001f7b576040517f08c379a000000000000000000000000000000000000000000000000000000000815260040162001f729062003b38565b60405180910390fd5b600454601460009054906101000a900473ffffffffffffffffffffffffffffffffffffffff1673ffffffffffffffffffffffffffffffffffffffff166370a08231336040518263ffffffff1660e01b815260040162001fdb91906200388f565b60206040518083038186803b15801562001ff457600080fd5b505afa15801562002009573d6000803e3d6000fd5b505050506040513d601f19601f820116820180604052508101906200202f9190620031e5565b1162002072576040517f08c379a0000000000000000000000000000000000000000000000000000000008152600401620020699062003b16565b60405180910390fd5b601260009054906101000a900473ffffffffffffffffffffffffffffffffffffffff1673ffffffffffffffffffffffffffffffffffffffff1663dc9a15356040518163ffffffff1660e01b815260040160206040518083038186803b158015620020db57600080fd5b505afa158015620020f0573d6000803e3d6000fd5b505050506040513d601f19601f8201168201806040525081019062002116919062003067565b15620021ae57601360009054906101000a900473ffffffffffffffffffffffffffffffffffffffff1673ffffffffffffffffffffffffffffffffffffffff1663771bd4ce336040518263ffffffff1660e01b81526004016200217991906200388f565b600060405180830381600087803b1580156200219457600080fd5b505af1158015620021a9573d6000803e3d6000fd5b505050505b6001600c60003373ffffffffffffffffffffffffffffffffffffffff1673ffffffffffffffffffffffffffffffffffffffff16815260200190815260200160002060006101000a81548160ff021916908315150217905550600d339080600181540180825580915050600190039060005260206000200160009091909190916101000a81548173ffffffffffffffffffffffffffffffffffffffff021916908373ffffffffffffffffffffffffffffffffffffffff160217905550601460009054906101000a900473ffffffffffffffffffffffffffffffffffffffff1673ffffffffffffffffffffffffffffffffffffffff166323b872dd33306004546040518463ffffffff1660e01b8152600401620022cc93929190620038ac565b602060405180830381600087803b158015620022e757600080fd5b505af1158015620022fc573d6000803e3d6000fd5b505050506040513d601f19601f8201168201806040525081019062002322919062003067565b507f9f9e4044c5742cca66ca090b21552bac14645e68bad7a92364a9d9ff18111a1c33600454306040516200235a9392919062003916565b60405180910390a160018081905550565b600a60205281600052604060002081815481106200238857600080fd5b90600052602060002001600091509150505481565b600760009054906101000a900473ffffffffffffffffffffffffffffffffffffffff1673ffffffffffffffffffffffffffffffffffffffff163373ffffffffffffffffffffffffffffffffffffffff161462002430576040517f08c379a0000000000000000000000000000000000000000000000000000000008152600401620024279062003be2565b60405180910390fd5b6001600760146101000a81548160ff021916908315150217905550565b6060600a60008373ffffffffffffffffffffffffffffffffffffffff1673ffffffffffffffffffffffffffffffffffffffff168152602001908152602001600020805480602002602001604051908101604052809291908181526020018280548015620024da57602002820191906000526020600020905b815481526020019060010190808311620024c5575b50505050509050919050565b6000600d8281548110620024ff57620024fe620042ab565b5b9060005260206000200160009054906101000a900473ffffffffffffffffffffffffffffffffffffffff169050919050565b600760159054906101000a900460ff161562002584576040517f08c379a00000000000000000000000000000000000000000000000000000000081526004016200257b9062003b7c565b60405180910390fd5b600c60003373ffffffffffffffffffffffffffffffffffffffff1673ffffffffffffffffffffffffffffffffffffffff16815260200190815260200160002060009054906101000a900460ff1662002613576040517f08c379a00000000000000000000000000000000000000000000000000000000081526004016200260a9062003c04565b60405180910390fd5b60005b600a60003373ffffffffffffffffffffffffffffffffffffffff1673ffffffffffffffffffffffffffffffffffffffff16815260200190815260200160002080549050811015620027185760086000600a60003373ffffffffffffffffffffffffffffffffffffffff1673ffffffffffffffffffffffffffffffffffffffff1681526020019081526020016000208381548110620026b957620026b8620042ab565b5b9060005260206000200154815260200190815260200160002060055460088110620026e957620026e8620042ab565b5b016000815480929190620026fd9062004117565b919050555080806200270f90620041d0565b91505062002616565b5060005b81518110156200279c576008600083838151811062002740576200273f620042ab565b5b60200260200101518152602001908152602001600020600554600881106200276d576200276c620042ab565b5b0160008154809291906200278190620041d0565b919050555080806200279390620041d0565b9150506200271c565b5060005b8151811015620028d4576000601560009054906101000a900473ffffffffffffffffffffffffffffffffffffffff1673ffffffffffffffffffffffffffffffffffffffff1662fdd58e338585815181106200280057620027ff620042ab565b5b60200260200101516040518363ffffffff1660e01b815260040162002827929190620038e9565b60206040518083038186803b1580156200284057600080fd5b505afa15801562002855573d6000803e3d6000fd5b505050506040513d601f19601f820116820180604052508101906200287b9190620031e5565b11620028be576040517f08c379a0000000000000000000000000000000000000000000000000000000008152600401620028b59062003c6a565b60405180910390fd5b8080620028cb90620041d0565b915050620027a0565b5060005b8151811015620029bd57600a81620028f1919062003f77565b828281518110620029075762002906620042ab565b5b6020026020010151101580156200296557506001600a6001836200292c919062003ee2565b62002938919062003f77565b62002944919062003fd8565b8282815181106200295a5762002959620042ab565b5b602002602001015111155b620029a7576040517f08c379a00000000000000000000000000000000000000000000000000000000081526004016200299e9062003b5a565b60405180910390fd5b8080620029b490620041d0565b915050620028d8565b5080600a60003373ffffffffffffffffffffffffffffffffffffffff1673ffffffffffffffffffffffffffffffffffffffff168152602001908152602001600020908051906020019062002a1392919062002dac565b5050565b600660009054906101000a900473ffffffffffffffffffffffffffffffffffffffff1681565b6060600960003373ffffffffffffffffffffffffffffffffffffffff1673ffffffffffffffffffffffffffffffffffffffff16815260200190815260200160002080548060200260200160405190810160405280929190818152602001828054801562002aca57602002820191906000526020600020905b81548152602001906001019080831162002ab5575b5050505050905090565b62002b6e8160405160240162002aeb91906200388f565b6040516020818303038152906040527f2c2ecbc2000000000000000000000000000000000000000000000000000000007bffffffffffffffffffffffffffffffffffffffffffffffffffffffff19166020820180517bffffffffffffffffffffffffffffffffffffffffffffffffffffffff838183161783525050505062002cc1565b50565b62002c0d828260405160240162002b8a92919062003ae2565b6040516020818303038152906040527f9710a9d0000000000000000000000000000000000000000000000000000000007bffffffffffffffffffffffffffffffffffffffffffffffffffffffff19166020820180517bffffffffffffffffffffffffffffffffffffffffffffffffffffffff838183161783525050505062002cc1565b5050565b600062002c1e3062002cea565b15905090565b62002cbe8160405160240162002c3b919062003abe565b6040516020818303038152906040527f41304fac000000000000000000000000000000000000000000000000000000007bffffffffffffffffffffffffffffffffffffffffffffffffffffffff19166020820180517bffffffffffffffffffffffffffffffffffffffffffffffffffffffff838183161783525050505062002cc1565b50565b60008151905060006a636f6e736f6c652e6c6f679050602083016000808483855afa5050505050565b6000808273ffffffffffffffffffffffffffffffffffffffff163b119050919050565b82805462002d1b9062004146565b90600052602060002090601f01602090048101928262002d3f576000855562002d8b565b82601f1062002d5a57803560ff191683800117855562002d8b565b8280016001018555821562002d8b579182015b8281111562002d8a57823582559160200191906001019062002d6d565b5b50905062002d9a919062002dfe565b5090565b611114806200469d83390190565b82805482825590600052602060002090810192821562002deb579160200282015b8281111562002dea57825182559160200191906001019062002dcd565b5b50905062002dfa919062002dfe565b5090565b5b8082111562002e1957600081600090555060010162002dff565b5090565b600062002e3462002e2e8462003d83565b62003d5a565b9050808382526020820190508285602086028201111562002e5a5762002e5962004328565b5b60005b8581101562002e8e578162002e73888262002f6f565b84526020840193506020830192505060018101905062002e5d565b5050509392505050565b60008135905062002ea9816200464e565b92915050565b600082601f83011262002ec75762002ec662004323565b5b813562002ed984826020860162002e1d565b91505092915050565b60008135905062002ef38162004668565b92915050565b60008151905062002f0a8162004668565b92915050565b60008083601f84011262002f295762002f2862004323565b5b8235905067ffffffffffffffff81111562002f495762002f486200431e565b5b60208301915083600182028301111562002f685762002f6762004328565b5b9250929050565b60008135905062002f808162004682565b92915050565b60008151905062002f978162004682565b92915050565b60006020828403121562002fb65762002fb562004332565b5b600062002fc68482850162002e98565b91505092915050565b6000806040838503121562002fe95762002fe862004332565b5b600062002ff98582860162002e98565b92505060206200300c8582860162002f6f565b9150509250929050565b6000602082840312156200302f576200302e62004332565b5b600082013567ffffffffffffffff81111562003050576200304f6200432d565b5b6200305e8482850162002eaf565b91505092915050565b60006020828403121562003080576200307f62004332565b5b6000620030908482850162002ef9565b91505092915050565b60008060008060008060008060008060006101408c8e031215620030c257620030c162004332565b5b60008c013567ffffffffffffffff811115620030e357620030e26200432d565b5b620030f18e828f0162002f10565b9b509b50506020620031068e828f0162002f6f565b9950506040620031198e828f0162002ee2565b98505060606200312c8e828f0162002e98565b97505060806200313f8e828f0162002e98565b96505060a0620031528e828f0162002e98565b95505060c0620031658e828f0162002e98565b94505060e0620031788e828f0162002e98565b9350506101006200318c8e828f0162002e98565b925050610120620031a08e828f0162002e98565b9150509295989b509295989b9093969950565b600060208284031215620031cc57620031cb62004332565b5b6000620031dc8482850162002f6f565b91505092915050565b600060208284031215620031fe57620031fd62004332565b5b60006200320e8482850162002f86565b91505092915050565b6000806040838503121562003231576200323062004332565b5b6000620032418582860162002f6f565b9250506020620032548582860162002f6f565b9150509250929050565b60006200326c8383620032c6565b60208301905092915050565b6000620032868383620032e8565b60208301905092915050565b6000620032a083836200383e565b60408301905092915050565b6000620032ba83836200385c565b60208301905092915050565b620032d18162004033565b82525050565b620032e28162004033565b82525050565b620032f38162004033565b82525050565b620033048162003e06565b62003310818462003e71565b92506200331d8262003db2565b8060005b83811015620033545781516200333887826200325e565b9650620033458362003e3d565b92505060018101905062003321565b505050505050565b6000620033698262003e11565b62003375818562003e7c565b9350620033828362003dbc565b8060005b83811015620033c2576200339a8262004309565b620033a688826200325e565b9750620033b38362003e4a565b92505060018101905062003386565b5085935050505092915050565b6000620033dc8262003e11565b620033e8818562003e8d565b9350620033f58362003dbc565b8060005b8381101562003435576200340d8262004309565b62003419888262003278565b9750620034268362003e4a565b925050600181019050620033f9565b5085935050505092915050565b8082525050565b6000620034568262003e1c565b62003462818562003e9e565b93506200346f8362003dd1565b8060005b83811015620034a65781516200348a888262003292565b9750620034978362003e57565b92505060018101905062003473565b5085935050505092915050565b6000620034c08262003e27565b620034cc818562003eaf565b9350620034d98362003de1565b8060005b8381101562003510578151620034f48882620032ac565b9750620035018362003e64565b925050600181019050620034dd565b5085935050505092915050565b620035288162004047565b82525050565b62003539816200407d565b82525050565b6200354a8162004091565b82525050565b6200355b81620040a5565b82525050565b8082525050565b8082525050565b8082525050565b6000620035838262003e32565b6200358f818562003ec0565b9350620035a1818560208601620040e1565b620035ac8162004337565b840191505092915050565b60008154620035c68162004146565b620035d2818662003ed1565b94506001821660008114620035f0576001811462003603576200363a565b60ff19831686526020860193506200363a565b6200360e8562003df1565b60005b83811015620036325781548189015260018201915060208101905062003611565b808801955050505b50505092915050565b600062003652601d8362003ec0565b91506200365f8262004355565b602082019050919050565b60006200367960238362003ec0565b915062003686826200437e565b604082019050919050565b6000620036a060318362003ec0565b9150620036ad82620043cd565b604082019050919050565b6000620036c7601e8362003ec0565b9150620036d4826200441c565b602082019050919050565b6000620036ee602e8362003ec0565b9150620036fb8262004445565b604082019050919050565b60006200371560178362003ec0565b9150620037228262004494565b602082019050919050565b60006200373c60168362003ec0565b91506200374982620044bd565b602082019050919050565b60006200376360168362003ec0565b91506200377082620044e6565b602082019050919050565b60006200378a601c8362003ec0565b915062003797826200450f565b602082019050919050565b6000620037b160418362003ec0565b9150620037be8262004538565b606082019050919050565b6000620037d860248362003ec0565b9150620037e582620045ad565b604082019050919050565b6000620037ff601f8362003ec0565b91506200380c82620045fc565b602082019050919050565b60006200382660178362003ec0565b9150620038338262004625565b602082019050919050565b604082016000820151620038566000850182620032f9565b50505050565b620038678162004073565b82525050565b620038788162004073565b82525050565b620038898162004073565b82525050565b6000602082019050620038a66000830184620032d7565b92915050565b6000606082019050620038c36000830186620032d7565b620038d26020830185620032d7565b620038e160408301846200386d565b949350505050565b6000604082019050620039006000830185620032d7565b6200390f60208301846200386d565b9392505050565b60006060820190506200392d6000830186620032d7565b6200393c60208301856200386d565b6200394b6040830184620032d7565b949350505050565b600060608201905081810360008301526200396f8186620033cf565b905062003980602083018562003568565b6200398f604083018462003442565b949350505050565b60006040820190508181036000830152620039b381856200335c565b9050620039c460208301846200386d565b9392505050565b60006020820190508181036000830152620039e7818462003449565b905092915050565b6000602082019050818103600083015262003a0b8184620034b3565b905092915050565b600060208201905062003a2a60008301846200351d565b92915050565b600060208201905062003a4760008301846200353f565b92915050565b600060208201905062003a64600083018462003550565b92915050565b600060808201905062003a8160008301876200356f565b62003a90602083018662003442565b62003a9f60408301856200387e565b818103606083015262003ab38184620035b7565b905095945050505050565b6000602082019050818103600083015262003ada818462003576565b905092915050565b6000604082019050818103600083015262003afe818562003576565b905062003b0f60208301846200386d565b9392505050565b6000602082019050818103600083015262003b318162003643565b9050919050565b6000602082019050818103600083015262003b53816200366a565b9050919050565b6000602082019050818103600083015262003b758162003691565b9050919050565b6000602082019050818103600083015262003b9781620036b8565b9050919050565b6000602082019050818103600083015262003bb981620036df565b9050919050565b6000602082019050818103600083015262003bdb8162003706565b9050919050565b6000602082019050818103600083015262003bfd816200372d565b9050919050565b6000602082019050818103600083015262003c1f8162003754565b9050919050565b6000602082019050818103600083015262003c41816200377b565b9050919050565b6000602082019050818103600083015262003c6381620037a2565b9050919050565b6000602082019050818103600083015262003c8581620037c9565b9050919050565b6000602082019050818103600083015262003ca781620037f0565b9050919050565b6000602082019050818103600083015262003cc98162003817565b9050919050565b600060208201905062003ce760008301846200386d565b92915050565b600060c08201905062003d0460008301896200387e565b62003d1360208301886200352e565b62003d22604083018762003561565b62003d31606083018662003561565b62003d40608083018562003568565b62003d4f60a08301846200356f565b979650505050505050565b600062003d6662003d79565b905062003d7482826200419a565b919050565b6000604051905090565b600067ffffffffffffffff82111562003da15762003da0620042da565b5b602082029050602081019050919050565b6000819050919050565b60008190508160005260206000209050919050565b6000819050602082019050919050565b6000819050602082019050919050565b60008190508160005260206000209050919050565b600060029050919050565b600081549050919050565b600081519050919050565b600081519050919050565b600081519050919050565b6000602082019050919050565b6000600182019050919050565b6000602082019050919050565b6000602082019050919050565b600081905092915050565b600082825260208201905092915050565b600082825260208201905092915050565b600082825260208201905092915050565b600082825260208201905092915050565b600082825260208201905092915050565b600082825260208201905092915050565b600062003eef8262004073565b915062003efc8362004073565b9250827fffffffffffffffffffffffffffffffffffffffffffffffffffffffffffffffff0382111562003f345762003f336200421e565b5b828201905092915050565b600062003f4c8262004073565b915062003f598362004073565b92508262003f6c5762003f6b6200424d565b5b828204905092915050565b600062003f848262004073565b915062003f918362004073565b9250817fffffffffffffffffffffffffffffffffffffffffffffffffffffffffffffffff048311821515161562003fcd5762003fcc6200421e565b5b828202905092915050565b600062003fe58262004073565b915062003ff28362004073565b9250828210156200400857620040076200421e565b5b828203905092915050565b600073ffffffffffffffffffffffffffffffffffffffff82169050919050565b6000620040408262004053565b9050919050565b60008115159050919050565b600073ffffffffffffffffffffffffffffffffffffffff82169050919050565b6000819050919050565b60006200408a82620040b9565b9050919050565b60006200409e82620040b9565b9050919050565b6000620040b282620040b9565b9050919050565b6000620040c682620040cd565b9050919050565b6000620040da8262004053565b9050919050565b60005b8381101562004101578082015181840152602081019050620040e4565b8381111562004111576000848401525b50505050565b6000620041248262004073565b915060008214156200413b576200413a6200421e565b5b600182039050919050565b600060028204905060018216806200415f57607f821691505b602082108114156200417657620041756200427c565b5b50919050565b6000620041936200418d8362004348565b62004013565b9050919050565b620041a58262004337565b810181811067ffffffffffffffff82111715620041c757620041c6620042da565b5b80604052505050565b6000620041dd8262004073565b91507fffffffffffffffffffffffffffffffffffffffffffffffffffffffffffffffff8214156200421357620042126200421e565b5b600182019050919050565b7f4e487b7100000000000000000000000000000000000000000000000000000000600052601160045260246000fd5b7f4e487b7100000000000000000000000000000000000000000000000000000000600052601260045260246000fd5b7f4e487b7100000000000000000000000000000000000000000000000000000000600052602260045260246000fd5b7f4e487b7100000000000000000000000000000000000000000000000000000000600052603260045260246000fd5b7f4e487b7100000000000000000000000000000000000000000000000000000000600052604160045260246000fd5b60006200431782546200417c565b9050919050565b600080fd5b600080fd5b600080fd5b600080fd5b600080fd5b6000601f19601f8301169050919050565b60008160001c9050919050565b7f496e737566666963656e742066756e647320666f72207374616b696e67000000600082015250565b7f596f75206861766520616c7265616479206a6f696e65642074686973206c656160008201527f6775650000000000000000000000000000000000000000000000000000000000602082015250565b7f596f75206172652073657474696e6720616e206174686c65746520696e20746860008201527f652077726f6e6720706f736974696f6e21000000000000000000000000000000602082015250565b7f6c696e657570206973206c6f636b656420666f7220746865207765656b210000600082015250565b7f496e697469616c697a61626c653a20636f6e747261637420697320616c72656160008201527f647920696e697469616c697a6564000000000000000000000000000000000000602082015250565b7f43616c6c6572206973206e6f74207468652061646d696e000000000000000000600082015250565b7f43616c6c6572206973206e6f74205465616d4469666600000000000000000000600082015250565b7f55736572206973206e6f7420696e204c65616775652e00000000000000000000600082015250565b7f55736572206973206e6f74206f6e2077686974656c6973742062726f00000000600082015250565b7f4e6f626f64792063616e20656e7465722f6578697420746865206c656167756560008201527f20616e796d6f72652e2054686520736561736f6e20686173207374617274656460208201527f2100000000000000000000000000000000000000000000000000000000000000604082015250565b7f43616c6c657220646f6573206e6f74206f776e20676976656e206174686c657460008201527f6549647300000000000000000000000000000000000000000000000000000000602082015250565b7f5265656e7472616e637947756172643a207265656e7472616e742063616c6c00600082015250565b7f4c656167756520456e74727920697320436c6f73656421000000000000000000600082015250565b620046598162004033565b81146200466557600080fd5b50565b620046738162004047565b81146200467f57600080fd5b50565b6200468d8162004073565b81146200469957600080fd5b5056fe60806040523480156200001157600080fd5b50604051620011143803806200111483398181016040528101906200003791906200015b565b620000576200004b6200007860201b60201c565b6200008060201b60201c565b80600360006101000a81548160ff02191690831515021790555050620001b8565b600033905090565b60008060009054906101000a900473ffffffffffffffffffffffffffffffffffffffff169050816000806101000a81548173ffffffffffffffffffffffffffffffffffffffff021916908373ffffffffffffffffffffffffffffffffffffffff1602179055508173ffffffffffffffffffffffffffffffffffffffff168173ffffffffffffffffffffffffffffffffffffffff167f8be0079c531659141344cd1fd0a4f28419497f9722a3daafe3b4186f6b6457e060405160405180910390a35050565b60008151905062000155816200019e565b92915050565b60006020828403121562000174576200017362000199565b5b6000620001848482850162000144565b91505092915050565b60008115159050919050565b600080fd5b620001a9816200018d565b8114620001b557600080fd5b50565b610f4c80620001c86000396000f3fe608060405234801561001057600080fd5b50600436106100a95760003560e01c80638da5cb5b116100715780638da5cb5b146101665780639b19251a14610184578063dc9a1535146101b4578063e2ec6ec3146101d2578063e35a899914610202578063f2fde38b14610232576100a9565b806324953eaa146100ae578063286dd3f5146100de57806344eaa84e1461010e578063715018a61461012c5780637b9417c814610136575b600080fd5b6100c860048036038101906100c39190610ada565b61024e565b6040516100d59190610bb1565b60405180910390f35b6100f860048036038101906100f39190610aad565b61031e565b6040516101059190610bb1565b60405180910390f35b6101166104a1565b6040516101239190610c0c565b60405180910390f35b6101346104ab565b005b610150600480360381019061014b9190610aad565b610533565b60405161015d9190610bb1565b60405180910390f35b61016e6106b4565b60405161017b9190610b96565b60405180910390f35b61019e60048036038101906101999190610aad565b6106dd565b6040516101ab9190610bb1565b60405180910390f35b6101bc6106fd565b6040516101c99190610bb1565b60405180910390f35b6101ec60048036038101906101e79190610ada565b610710565b6040516101f99190610bb1565b60405180910390f35b61021c60048036038101906102179190610aad565b6107e0565b6040516102299190610bb1565b60405180910390f35b61024c60048036038101906102479190610aad565b610836565b005b600061025861092e565b73ffffffffffffffffffffffffffffffffffffffff166102766106b4565b73ffffffffffffffffffffffffffffffffffffffff16146102cc576040517f08c379a00000000000000000000000000000000000000000000000000000000081526004016102c390610bec565b60405180910390fd5b60005b8251811015610318576102fb8382815181106102ee576102ed610e04565b5b602002602001015161031e565b1561030557600191505b808061031090610d8c565b9150506102cf565b50919050565b600061032861092e565b73ffffffffffffffffffffffffffffffffffffffff166103466106b4565b73ffffffffffffffffffffffffffffffffffffffff161461039c576040517f08c379a000000000000000000000000000000000000000000000000000000000815260040161039390610bec565b60405180910390fd5b600160008373ffffffffffffffffffffffffffffffffffffffff1673ffffffffffffffffffffffffffffffffffffffff16815260200190815260200160002060009054906101000a900460ff161561049c576000600160008473ffffffffffffffffffffffffffffffffffffffff1673ffffffffffffffffffffffffffffffffffffffff16815260200190815260200160002060006101000a81548160ff0219169083151502179055507ff1abf01a1043b7c244d128e8595cf0c1d10743b022b03a02dffd8ca3bf729f5a826040516104759190610b96565b60405180910390a16001600260008282546104909190610cdf565b92505081905550600190505b919050565b6000600254905090565b6104b361092e565b73ffffffffffffffffffffffffffffffffffffffff166104d16106b4565b73ffffffffffffffffffffffffffffffffffffffff1614610527576040517f08c379a000000000000000000000000000000000000000000000000000000000815260040161051e90610bec565b60405180910390fd5b6105316000610936565b565b600061053d61092e565b73ffffffffffffffffffffffffffffffffffffffff1661055b6106b4565b73ffffffffffffffffffffffffffffffffffffffff16146105b1576040517f08c379a00000000000000000000000000000000000000000000000000000000081526004016105a890610bec565b60405180910390fd5b600160008373ffffffffffffffffffffffffffffffffffffffff1673ffffffffffffffffffffffffffffffffffffffff16815260200190815260200160002060009054906101000a900460ff166106af5760018060008473ffffffffffffffffffffffffffffffffffffffff1673ffffffffffffffffffffffffffffffffffffffff16815260200190815260200160002060006101000a81548160ff0219169083151502179055507fd1bba68c128cc3f427e5831b3c6f99f480b6efa6b9e80c757768f6124158cc3f826040516106889190610b96565b60405180910390a16001600260008282546106a39190610c89565b92505081905550600190505b919050565b60008060009054906101000a900473ffffffffffffffffffffffffffffffffffffffff16905090565b60016020528060005260406000206000915054906101000a900460ff1681565b600360009054906101000a900460ff1681565b600061071a61092e565b73ffffffffffffffffffffffffffffffffffffffff166107386106b4565b73ffffffffffffffffffffffffffffffffffffffff161461078e576040517f08c379a000000000000000000000000000000000000000000000000000000000815260040161078590610bec565b60405180910390fd5b60005b82518110156107da576107bd8382815181106107b0576107af610e04565b5b6020026020010151610533565b156107c757600191505b80806107d290610d8c565b915050610791565b50919050565b6000600160008373ffffffffffffffffffffffffffffffffffffffff1673ffffffffffffffffffffffffffffffffffffffff16815260200190815260200160002060009054906101000a900460ff169050919050565b61083e61092e565b73ffffffffffffffffffffffffffffffffffffffff1661085c6106b4565b73ffffffffffffffffffffffffffffffffffffffff16146108b2576040517f08c379a00000000000000000000000000000000000000000000000000000000081526004016108a990610bec565b60405180910390fd5b600073ffffffffffffffffffffffffffffffffffffffff168173ffffffffffffffffffffffffffffffffffffffff161415610922576040517f08c379a000000000000000000000000000000000000000000000000000000000815260040161091990610bcc565b60405180910390fd5b61092b81610936565b50565b600033905090565b60008060009054906101000a900473ffffffffffffffffffffffffffffffffffffffff169050816000806101000a81548173ffffffffffffffffffffffffffffffffffffffff021916908373ffffffffffffffffffffffffffffffffffffffff1602179055508173ffffffffffffffffffffffffffffffffffffffff168173ffffffffffffffffffffffffffffffffffffffff167f8be0079c531659141344cd1fd0a4f28419497f9722a3daafe3b4186f6b6457e060405160405180910390a35050565b6000610a0d610a0884610c4c565b610c27565b90508083825260208201905082856020860282011115610a3057610a2f610e67565b5b60005b85811015610a605781610a468882610a6a565b845260208401935060208301925050600181019050610a33565b5050509392505050565b600081359050610a7981610eff565b92915050565b600082601f830112610a9457610a93610e62565b5b8135610aa48482602086016109fa565b91505092915050565b600060208284031215610ac357610ac2610e71565b5b6000610ad184828501610a6a565b91505092915050565b600060208284031215610af057610aef610e71565b5b600082013567ffffffffffffffff811115610b0e57610b0d610e6c565b5b610b1a84828501610a7f565b91505092915050565b610b2c81610d13565b82525050565b610b3b81610d25565b82525050565b6000610b4e602683610c78565b9150610b5982610e87565b604082019050919050565b6000610b71602083610c78565b9150610b7c82610ed6565b602082019050919050565b610b9081610d51565b82525050565b6000602082019050610bab6000830184610b23565b92915050565b6000602082019050610bc66000830184610b32565b92915050565b60006020820190508181036000830152610be581610b41565b9050919050565b60006020820190508181036000830152610c0581610b64565b9050919050565b6000602082019050610c216000830184610b87565b92915050565b6000610c31610c42565b9050610c3d8282610d5b565b919050565b6000604051905090565b600067ffffffffffffffff821115610c6757610c66610e33565b5b602082029050602081019050919050565b600082825260208201905092915050565b6000610c9482610d51565b9150610c9f83610d51565b9250827fffffffffffffffffffffffffffffffffffffffffffffffffffffffffffffffff03821115610cd457610cd3610dd5565b5b828201905092915050565b6000610cea82610d51565b9150610cf583610d51565b925082821015610d0857610d07610dd5565b5b828203905092915050565b6000610d1e82610d31565b9050919050565b60008115159050919050565b600073ffffffffffffffffffffffffffffffffffffffff82169050919050565b6000819050919050565b610d6482610e76565b810181811067ffffffffffffffff82111715610d8357610d82610e33565b5b80604052505050565b6000610d9782610d51565b91507fffffffffffffffffffffffffffffffffffffffffffffffffffffffffffffffff821415610dca57610dc9610dd5565b5b600182019050919050565b7f4e487b7100000000000000000000000000000000000000000000000000000000600052601160045260246000fd5b7f4e487b7100000000000000000000000000000000000000000000000000000000600052603260045260246000fd5b7f4e487b7100000000000000000000000000000000000000000000000000000000600052604160045260246000fd5b600080fd5b600080fd5b600080fd5b600080fd5b6000601f19601f8301169050919050565b7f4f776e61626c653a206e6577206f776e657220697320746865207a65726f206160008201527f6464726573730000000000000000000000000000000000000000000000000000602082015250565b7f4f776e61626c653a2063616c6c6572206973206e6f7420746865206f776e6572600082015250565b610f0881610d13565b8114610f1357600080fd5b5056fea2646970667358221220d9b559c67c9c95c9212a7622f5c7dc9fab9234f044c42f52ae92caa64e6b8af364736f6c63430008070033a26469706673582212208586fbd9840e4fd924d0399cdfd0aff93311a0299c1d2b910ac8681fe59bac7764736f6c63430008070033",
  "linkReferences": {
    "contracts/MOBALogicLibrary.sol": {
      "MOBALogicLibrary": [
        {
          "length": 20,
          "start": 2198
        },
        {
          "length": 20,
          "start": 2540
        },
        {
          "length": 20,
          "start": 4000
        }
      ]
    }
  },
  "deployedLinkReferences": {
    "contracts/MOBALogicLibrary.sol": {
      "MOBALogicLibrary": [
        {
          "length": 20,
          "start": 2159
        },
        {
          "length": 20,
          "start": 2501
        },
        {
          "length": 20,
          "start": 3961
        }
      ]
    }
  }
}