{
  "_format": "hh-sol-artifact-1",
  "contractName": "LeagueOfLegendsLogic",
  "sourceName": "contracts/LeagueOfLegendsLogic.sol",
  "abi": [
    {
      "anonymous": false,
      "inputs": [
        {
          "indexed": false,
          "internalType": "address",
          "name": "sender",
          "type": "address"
        },
        {
          "indexed": false,
          "internalType": "uint256",
          "name": "id",
          "type": "uint256"
        },
        {
          "indexed": false,
          "internalType": "uint256",
          "name": "position",
          "type": "uint256"
        }
      ],
      "name": "AthleteSetInLineup",
      "type": "event"
    },
    {
      "anonymous": false,
      "inputs": [
        {
          "indexed": false,
          "internalType": "address",
          "name": "sender",
          "type": "address"
        },
        {
          "indexed": false,
          "internalType": "uint256",
          "name": "amount",
          "type": "uint256"
        },
        {
          "indexed": false,
          "internalType": "address",
          "name": "leagueAddress",
          "type": "address"
        }
      ],
      "name": "Staked",
      "type": "event"
    },
    {
      "anonymous": false,
      "inputs": [
        {
          "indexed": false,
          "internalType": "address[]",
          "name": "winner",
          "type": "address[]"
        },
        {
          "indexed": false,
          "internalType": "uint256",
          "name": "prizePotPerWinner",
          "type": "uint256"
        }
      ],
      "name": "leagueEnded",
      "type": "event"
    },
    {
      "anonymous": false,
      "inputs": [
        {
          "indexed": false,
          "internalType": "address",
          "name": "sender",
          "type": "address"
        },
        {
          "indexed": false,
          "internalType": "address",
          "name": "contractAddress",
          "type": "address"
        }
      ],
      "name": "testUSDCDeployed",
      "type": "event"
    },
    {
      "inputs": [
        {
          "internalType": "address",
          "name": "_userToAdd",
          "type": "address"
        }
      ],
      "name": "addUserToWhitelist",
      "outputs": [],
      "stateMutability": "nonpayable",
      "type": "function"
    },
    {
      "inputs": [],
      "name": "admin",
      "outputs": [
        {
          "internalType": "address",
          "name": "",
          "type": "address"
        }
      ],
      "stateMutability": "view",
      "type": "function"
    },
    {
      "inputs": [],
      "name": "currentWeekNum",
      "outputs": [
        {
          "internalType": "uint256",
          "name": "",
          "type": "uint256"
        }
      ],
      "stateMutability": "view",
      "type": "function"
    },
    {
      "inputs": [],
      "name": "erc20",
      "outputs": [
        {
          "internalType": "contract IERC20",
          "name": "",
          "type": "address"
        }
      ],
      "stateMutability": "view",
      "type": "function"
    },
    {
      "inputs": [],
      "name": "evaluateMatches",
      "outputs": [],
      "stateMutability": "nonpayable",
      "type": "function"
    },
    {
      "inputs": [],
      "name": "getAdmin",
      "outputs": [
        {
          "internalType": "address",
          "name": "",
          "type": "address"
        }
      ],
      "stateMutability": "view",
      "type": "function"
    },
    {
      "inputs": [],
      "name": "getContractUSDCBalance",
      "outputs": [
        {
          "internalType": "uint256",
          "name": "",
          "type": "uint256"
        }
      ],
      "stateMutability": "view",
      "type": "function"
    },
    {
      "inputs": [
        {
          "internalType": "uint256",
          "name": "index",
          "type": "uint256"
        }
      ],
      "name": "getLeagueMember",
      "outputs": [
        {
          "internalType": "address",
          "name": "",
          "type": "address"
        }
      ],
      "stateMutability": "view",
      "type": "function"
    },
    {
      "inputs": [],
      "name": "getLeagueMembersLength",
      "outputs": [
        {
          "internalType": "uint256",
          "name": "",
          "type": "uint256"
        }
      ],
      "stateMutability": "view",
      "type": "function"
    },
    {
      "inputs": [],
      "name": "getLineupIsLocked",
      "outputs": [
        {
          "internalType": "bool",
          "name": "",
          "type": "bool"
        }
      ],
      "stateMutability": "view",
      "type": "function"
    },
    {
      "inputs": [
        {
          "internalType": "uint256",
          "name": "_week",
          "type": "uint256"
        }
      ],
      "name": "getScheduleForWeek",
      "outputs": [
        {
          "components": [
            {
              "internalType": "address[2]",
              "name": "players",
              "type": "address[2]"
            }
          ],
          "internalType": "struct LeagueOfLegendsLogic.Matchup[]",
          "name": "",
          "type": "tuple[]"
        }
      ],
      "stateMutability": "view",
      "type": "function"
    },
    {
      "inputs": [
        {
          "internalType": "address",
          "name": "_user",
          "type": "address"
        }
      ],
      "name": "getUserLineup",
      "outputs": [
        {
          "internalType": "uint256[5]",
          "name": "",
          "type": "uint256[5]"
        }
      ],
      "stateMutability": "view",
      "type": "function"
    },
    {
      "inputs": [
        {
          "internalType": "address",
          "name": "_user",
          "type": "address"
        }
      ],
      "name": "getUserPoints",
      "outputs": [
        {
          "internalType": "uint256",
          "name": "",
          "type": "uint256"
        }
      ],
      "stateMutability": "view",
      "type": "function"
    },
    {
      "inputs": [
        {
          "internalType": "address",
          "name": "_user",
          "type": "address"
        }
      ],
      "name": "getUserRecord",
      "outputs": [
        {
          "internalType": "uint256[8]",
          "name": "",
          "type": "uint256[8]"
        }
      ],
      "stateMutability": "view",
      "type": "function"
    },
    {
      "inputs": [
        {
          "internalType": "address",
          "name": "_user",
          "type": "address"
        }
      ],
      "name": "getUserWeekScore",
      "outputs": [
        {
          "internalType": "uint256[8]",
          "name": "",
          "type": "uint256[8]"
        }
      ],
      "stateMutability": "view",
      "type": "function"
    },
    {
      "inputs": [
        {
          "internalType": "address",
          "name": "",
          "type": "address"
        }
      ],
      "name": "inLeague",
      "outputs": [
        {
          "internalType": "bool",
          "name": "",
          "type": "bool"
        }
      ],
      "stateMutability": "view",
      "type": "function"
    },
    {
      "inputs": [
        {
          "internalType": "string",
          "name": "_name",
          "type": "string"
        },
        {
          "internalType": "uint256",
          "name": "_stakeAmount",
          "type": "uint256"
        },
        {
          "internalType": "bool",
          "name": "_isPublic",
          "type": "bool"
        },
        {
          "internalType": "address",
          "name": "athletesDataStorageAddress",
          "type": "address"
        },
        {
          "internalType": "address",
          "name": "_admin",
          "type": "address"
        },
        {
          "internalType": "address",
          "name": "_ierc20Address",
          "type": "address"
        },
        {
          "internalType": "address",
          "name": "_gameItemsContractAddress",
          "type": "address"
        },
        {
          "internalType": "address",
          "name": "_teamDiffAddress",
          "type": "address"
        },
        {
          "internalType": "address",
          "name": "_leagueMakerContractAddress",
          "type": "address"
        }
      ],
      "name": "initialize",
      "outputs": [],
      "stateMutability": "nonpayable",
      "type": "function"
    },
    {
      "inputs": [],
      "name": "isPublic",
      "outputs": [
        {
          "internalType": "bool",
          "name": "",
          "type": "bool"
        }
      ],
      "stateMutability": "view",
      "type": "function"
    },
    {
      "inputs": [],
      "name": "joinLeague",
      "outputs": [],
      "stateMutability": "nonpayable",
      "type": "function"
    },
    {
      "inputs": [],
      "name": "leagueEntryIsClosed",
      "outputs": [
        {
          "internalType": "bool",
          "name": "",
          "type": "bool"
        }
      ],
      "stateMutability": "view",
      "type": "function"
    },
    {
      "inputs": [
        {
          "internalType": "uint256",
          "name": "",
          "type": "uint256"
        }
      ],
      "name": "leagueMembers",
      "outputs": [
        {
          "internalType": "address",
          "name": "",
          "type": "address"
        }
      ],
      "stateMutability": "view",
      "type": "function"
    },
    {
      "inputs": [],
      "name": "leagueName",
      "outputs": [
        {
          "internalType": "string",
          "name": "",
          "type": "string"
        }
      ],
      "stateMutability": "view",
      "type": "function"
    },
    {
      "inputs": [],
      "name": "lineupIsLocked",
      "outputs": [
        {
          "internalType": "bool",
          "name": "",
          "type": "bool"
        }
      ],
      "stateMutability": "view",
      "type": "function"
    },
    {
      "inputs": [],
      "name": "lockLineup",
      "outputs": [],
      "stateMutability": "nonpayable",
      "type": "function"
    },
    {
      "inputs": [],
      "name": "numWeeks",
      "outputs": [
        {
          "internalType": "uint256",
          "name": "",
          "type": "uint256"
        }
      ],
      "stateMutability": "view",
      "type": "function"
    },
    {
      "inputs": [],
      "name": "onLeagueEnd",
      "outputs": [],
      "stateMutability": "nonpayable",
      "type": "function"
    },
    {
      "inputs": [
        {
          "internalType": "address",
          "name": "_userToRemove",
          "type": "address"
        }
      ],
      "name": "removeFromWhitelist",
      "outputs": [],
      "stateMutability": "nonpayable",
      "type": "function"
    },
    {
      "inputs": [
        {
          "internalType": "uint256",
          "name": "athleteId",
          "type": "uint256"
        },
        {
          "internalType": "uint256",
          "name": "position",
          "type": "uint256"
        }
      ],
      "name": "setAthleteInLineup",
      "outputs": [],
      "stateMutability": "nonpayable",
      "type": "function"
    },
    {
      "inputs": [],
      "name": "setLeagueEntryIsClosed",
      "outputs": [],
      "stateMutability": "nonpayable",
      "type": "function"
    },
    {
      "inputs": [],
      "name": "setLeagueEntryIsOpen",
      "outputs": [],
      "stateMutability": "nonpayable",
      "type": "function"
    },
    {
      "inputs": [],
      "name": "stakeAmount",
      "outputs": [
        {
          "internalType": "uint256",
          "name": "",
          "type": "uint256"
        }
      ],
      "stateMutability": "view",
      "type": "function"
    },
    {
      "inputs": [],
      "name": "teamDiffAddress",
      "outputs": [
        {
          "internalType": "address",
          "name": "",
          "type": "address"
        }
      ],
      "stateMutability": "view",
      "type": "function"
    },
    {
      "inputs": [],
      "name": "unlockLineup",
      "outputs": [],
      "stateMutability": "nonpayable",
      "type": "function"
    },
    {
      "inputs": [
        {
          "internalType": "address",
          "name": "",
          "type": "address"
        },
        {
          "internalType": "uint256",
          "name": "",
          "type": "uint256"
        }
      ],
      "name": "userToLineup",
      "outputs": [
        {
          "internalType": "uint256",
          "name": "",
          "type": "uint256"
        }
      ],
      "stateMutability": "view",
      "type": "function"
    },
    {
      "inputs": [
        {
          "internalType": "address",
          "name": "",
          "type": "address"
        }
      ],
      "name": "userToPoints",
      "outputs": [
        {
          "internalType": "uint256",
          "name": "",
          "type": "uint256"
        }
      ],
      "stateMutability": "view",
      "type": "function"
    },
    {
      "inputs": [
        {
          "internalType": "address",
          "name": "",
          "type": "address"
        },
        {
          "internalType": "uint256",
          "name": "",
          "type": "uint256"
        }
      ],
      "name": "userToRecord",
      "outputs": [
        {
          "internalType": "uint256",
          "name": "",
          "type": "uint256"
        }
      ],
      "stateMutability": "view",
      "type": "function"
    },
    {
      "inputs": [
        {
          "internalType": "address",
          "name": "",
          "type": "address"
        },
        {
          "internalType": "uint256",
          "name": "",
          "type": "uint256"
        }
      ],
      "name": "userToWeekScore",
      "outputs": [
        {
          "internalType": "uint256",
          "name": "",
          "type": "uint256"
        }
      ],
      "stateMutability": "view",
      "type": "function"
    },
    {
      "inputs": [],
      "name": "whitelistContract",
      "outputs": [
        {
          "internalType": "contract Whitelist",
          "name": "",
          "type": "address"
        }
      ],
      "stateMutability": "view",
      "type": "function"
    }
  ],
  "bytecode": "0x608060405234801561001057600080fd5b50600180819055506158b9806100276000396000f3fe60806040523480156200001157600080fd5b5060043610620002675760003560e01c80637eed33f1116200014d578063bc69b42711620000c9578063db2a67241162000087578063db2a6724146200070a578063dc9a15351462000740578063e4c9066b1462000762578063ee90080f146200076e578063f851a44014620007a45762000267565b8063bc69b427146200067a578063c2bfd5ed14620006b0578063c8be3b5b14620006bc578063c99fea9414620006c8578063cff5600314620006d45762000267565b80639122ce6d11620001175780639122ce6d14620005c2578063989db65914620005f8578063a2bc091a1462000618578063aeefe31f1462000624578063b47f8628146200065a5762000267565b80637eed33f1146200053c578063841abf6e146200055e57806384900b0414620005805780638ab1d68114620005a25762000267565b8063305a578211620001e957806367e2efc611620001a757806367e2efc614620004805780636cc15ad514620004b65780636e9960c314620004d8578063747b805014620004fa578063785e9e86146200051a5762000267565b8063305a578214620003d85780634adaf31b14620003e457806352e6e5f3146200041a57806360c7dc47146200043c57806363c665f7146200045e5762000267565b80631dd7f8ca11620002375780631dd7f8ca14620002f2578063267175db146200031457806327311b32146200034a5780632ae6b135146200036c5780632d382ee014620003a25762000267565b80622772c2146200026c5780630635dbcb146200028e5780630c6f795914620002b05780631d803e0014620002e6575b600080fd5b62000276620007c6565b60405162000285919062003c38565b60405180910390f35b620002986200087e565b604051620002a7919062003927565b60405180910390f35b620002ce6004803603810190620002c8919062002df8565b62000891565b604051620002dd919062003c38565b60405180910390f35b620002f0620008ba565b005b620002fc62000ce2565b6040516200030b91906200374f565b60405180910390f35b6200033260048036038101906200032c919062002f74565b62000d08565b6040516200034191906200374f565b60405180910390f35b6200035462000d48565b60405162000363919062003927565b60405180910390f35b6200038a600480360381019062000384919062002dc6565b62000d5f565b60405162000399919062003c38565b60405180910390f35b620003c06004803603810190620003ba919062002f74565b62000d77565b604051620003cf9190620038c8565b60405180910390f35b620003e262000e68565b005b620004026004803603810190620003fc919062002dc6565b62001035565b60405162000411919062003909565b60405180910390f35b62000424620010c3565b60405162000433919062003c38565b60405180910390f35b62000446620010c9565b60405162000455919062003c38565b60405180910390f35b62000468620010cf565b60405162000477919062003c38565b60405180910390f35b6200049e600480360381019062000498919062002dc6565b620010dc565b604051620004ad919062003909565b60405180910390f35b620004c06200116a565b604051620004cf919062003927565b60405180910390f35b620004e26200117d565b604051620004f191906200374f565b60405180910390f35b62000518600480360381019062000512919062002dc6565b620011a7565b005b62000524620013d5565b60405162000533919062003944565b60405180910390f35b62000546620013fb565b60405162000555919062003c38565b60405180910390f35b6200056862001401565b604051620005779190620039d2565b60405180910390f35b6200058a62001497565b60405162000599919062003961565b60405180910390f35b620005c06004803603810190620005ba919062002dc6565b620014bd565b005b620005e06004803603810190620005da919062002dc6565b6200165a565b604051620005ef919062003927565b60405180910390f35b62000616600480360381019062000610919062002e71565b6200167a565b005b6200062262001a23565b005b6200064260048036038101906200063c919062002dc6565b62001ad3565b60405162000651919062003c38565b60405180910390f35b62000678600480360381019062000672919062002fd8565b62001b1c565b005b62000698600480360381019062000692919062002dc6565b62001e1b565b604051620006a79190620038ec565b60405180910390f35b620006ba62001ea9565b005b620006c662001fab565b005b620006d26200205b565b005b620006f26004803603810190620006ec919062002df8565b62002803565b60405162000701919062003c38565b60405180910390f35b62000728600480360381019062000722919062002df8565b6200282c565b60405162000737919062003c38565b60405180910390f35b6200074a62002855565b60405162000759919062003927565b60405180910390f35b6200076c62002868565b005b6200078c600480360381019062000786919062002f74565b62002a3a565b6040516200079b91906200374f565b60405180910390f35b620007ae62002a85565b604051620007bd91906200374f565b60405180910390f35b6000601360009054906101000a900473ffffffffffffffffffffffffffffffffffffffff1673ffffffffffffffffffffffffffffffffffffffff166370a08231306040518263ffffffff1660e01b81526004016200082591906200374f565b60206040518083038186803b1580156200083e57600080fd5b505afa15801562000853573d6000803e3d6000fd5b505050506040513d601f19601f8201168201806040525081019062000879919062002fa6565b905090565b600760159054906101000a900460ff1681565b60086020528160005260406000208160088110620008ae57600080fd5b01600091509150505481565b600760009054906101000a900473ffffffffffffffffffffffffffffffffffffffff1673ffffffffffffffffffffffffffffffffffffffff163373ffffffffffffffffffffffffffffffffffffffff16146200094d576040517f08c379a0000000000000000000000000000000000000000000000000000000008152600401620009449062003b4a565b60405180910390fd5b6000601360009054906101000a900473ffffffffffffffffffffffffffffffffffffffff1673ffffffffffffffffffffffffffffffffffffffff166370a08231306040518263ffffffff1660e01b8152600401620009ac91906200374f565b60206040518083038186803b158015620009c557600080fd5b505afa158015620009da573d6000803e3d6000fd5b505050506040513d601f19601f8201168201806040525081019062000a00919062002fa6565b905062000a426040518060400160405280601a81526020017f43414c43554c4154494e47204c45414755452057494e4e45525300000000000081525062002aab565b73__$36fdb4e0c2cb91f3ceca5ea81b025328f3$__63cc9b40cc600d600b600e6040518463ffffffff1660e01b815260040162000a829392919062003850565b60006040518083038186803b15801562000a9b57600080fd5b505af415801562000ab0573d6000803e3d6000fd5b505050506000600e805490508262000ac9919062003e80565b90507f648f2405ea194f3e49fe1655279883b3474e63909ab7e4a579b051d548ad8389600e8260405162000aff92919062003894565b60405180910390a160005b600e8054905081101562000cdd57601360009054906101000a900473ffffffffffffffffffffffffffffffffffffffff1673ffffffffffffffffffffffffffffffffffffffff1663095ea7b330846040518363ffffffff1660e01b815260040162000b77929190620037a9565b602060405180830381600087803b15801562000b9257600080fd5b505af115801562000ba7573d6000803e3d6000fd5b505050506040513d601f19601f8201168201806040525081019062000bcd919062002e3f565b50601360009054906101000a900473ffffffffffffffffffffffffffffffffffffffff1673ffffffffffffffffffffffffffffffffffffffff166323b872dd30600e848154811062000c245762000c2362004187565b5b9060005260206000200160009054906101000a900473ffffffffffffffffffffffffffffffffffffffff16856040518463ffffffff1660e01b815260040162000c70939291906200376c565b602060405180830381600087803b15801562000c8b57600080fd5b505af115801562000ca0573d6000803e3d6000fd5b505050506040513d601f19601f8201168201806040525081019062000cc6919062002e3f565b50808062000cd490620040ac565b91505062000b0a565b505050565b600760009054906101000a900473ffffffffffffffffffffffffffffffffffffffff1681565b600d818154811062000d1957600080fd5b906000526020600020016000915054906101000a900473ffffffffffffffffffffffffffffffffffffffff1681565b6000600760159054906101000a900460ff16905090565b600b6020528060005260406000206000915090505481565b6060600f6000838152602001908152602001600020805480602002602001604051908101604052809291908181526020016000905b8282101562000e5d57838290600052602060002090600202016040518060200160405290816000820160028060200260405190810160405280929190826002801562000e44576020028201915b8160009054906101000a900473ffffffffffffffffffffffffffffffffffffffff1673ffffffffffffffffffffffffffffffffffffffff168152602001906001019080831162000df9575b5050505050815250508152602001906001019062000dac565b505050509050919050565b600760009054906101000a900473ffffffffffffffffffffffffffffffffffffffff1673ffffffffffffffffffffffffffffffffffffffff163373ffffffffffffffffffffffffffffffffffffffff161462000efb576040517f08c379a000000000000000000000000000000000000000000000000000000000815260040162000ef29062003b4a565b60405180910390fd5b600760149054906101000a900460ff1662000f4d576040517f08c379a000000000000000000000000000000000000000000000000000000000815260040162000f449062003a7e565b60405180910390fd5b73__$36fdb4e0c2cb91f3ceca5ea81b025328f3$__6303626e84600554601060009054906101000a900473ffffffffffffffffffffffffffffffffffffffff1660086009600b600a600f6040518863ffffffff1660e01b815260040162000fbb979695949392919062003c55565b60006040518083038186803b15801562000fd457600080fd5b505af415801562000fe9573d6000803e3d6000fd5b50505050600160035462000ffe919062003f19565b6005541415620010185762001012620008ba565b62001033565b600560008154809291906200102d90620040ac565b91905055505b565b6200103f62002ba7565b600a60008373ffffffffffffffffffffffffffffffffffffffff1673ffffffffffffffffffffffffffffffffffffffff168152602001908152602001600020600880602002604051908101604052809291908260088015620010b7576020028201915b815481526020019060010190808311620010a2575b50505050509050919050565b60055481565b60045481565b6000600d80549050905090565b620010e662002ba7565b600860008373ffffffffffffffffffffffffffffffffffffffff1673ffffffffffffffffffffffffffffffffffffffff1681526020019081526020016000206008806020026040519081016040528092919082600880156200115e576020028201915b81548152602001906001019080831162001149575b50505050509050919050565b600760149054906101000a900460ff1681565b6000600660009054906101000a900473ffffffffffffffffffffffffffffffffffffffff16905090565b600660009054906101000a900473ffffffffffffffffffffffffffffffffffffffff1673ffffffffffffffffffffffffffffffffffffffff163373ffffffffffffffffffffffffffffffffffffffff16146200123a576040517f08c379a0000000000000000000000000000000000000000000000000000000008152600401620012319062003b28565b60405180910390fd5b600760149054906101000a900460ff16156200128d576040517f08c379a0000000000000000000000000000000000000000000000000000000008152600401620012849062003bb0565b60405180910390fd5b601160009054906101000a900473ffffffffffffffffffffffffffffffffffffffff1673ffffffffffffffffffffffffffffffffffffffff16637b9417c8826040518263ffffffff1660e01b8152600401620012ea91906200374f565b602060405180830381600087803b1580156200130557600080fd5b505af11580156200131a573d6000803e3d6000fd5b505050506040513d601f19601f8201168201806040525081019062001340919062002e3f565b50601260009054906101000a900473ffffffffffffffffffffffffffffffffffffffff1673ffffffffffffffffffffffffffffffffffffffff1663771bd4ce826040518263ffffffff1660e01b81526004016200139e91906200374f565b600060405180830381600087803b158015620013b957600080fd5b505af1158015620013ce573d6000803e3d6000fd5b5050505050565b601360009054906101000a900473ffffffffffffffffffffffffffffffffffffffff1681565b60035481565b60028054620014109062004058565b80601f01602080910402602001604051908101604052809291908181526020018280546200143e9062004058565b80156200148f5780601f1062001463576101008083540402835291602001916200148f565b820191906000526020600020905b8154815290600101906020018083116200147157829003601f168201915b505050505081565b601160009054906101000a900473ffffffffffffffffffffffffffffffffffffffff1681565b600660009054906101000a900473ffffffffffffffffffffffffffffffffffffffff1673ffffffffffffffffffffffffffffffffffffffff163373ffffffffffffffffffffffffffffffffffffffff161462001550576040517f08c379a0000000000000000000000000000000000000000000000000000000008152600401620015479062003b28565b60405180910390fd5b600760149054906101000a900460ff1615620015a3576040517f08c379a00000000000000000000000000000000000000000000000000000000081526004016200159a9062003bb0565b60405180910390fd5b601160009054906101000a900473ffffffffffffffffffffffffffffffffffffffff1673ffffffffffffffffffffffffffffffffffffffff1663286dd3f5826040518263ffffffff1660e01b81526004016200160091906200374f565b602060405180830381600087803b1580156200161b57600080fd5b505af115801562001630573d6000803e3d6000fd5b505050506040513d601f19601f8201168201806040525081019062001656919062002e3f565b5050565b600c6020528060005260406000206000915054906101000a900460ff1681565b600060019054906101000a900460ff16620016a45760008054906101000a900460ff1615620016af565b620016ae62002b48565b5b620016f1576040517f08c379a0000000000000000000000000000000000000000000000000000000008152600401620016e89062003b06565b60405180910390fd5b60008060019054906101000a900460ff16159050801562001742576001600060016101000a81548160ff02191690831515021790555060016000806101000a81548160ff0219169083151502179055505b8a8a600291906200175592919062002bca565b50600860038190555085600660006101000a81548173ffffffffffffffffffffffffffffffffffffffff021916908373ffffffffffffffffffffffffffffffffffffffff1602179055508860048190555087600760166101000a81548160ff0219169083151502179055506000600760146101000a81548160ff0219169083151502179055506000600760156101000a81548160ff02191690831515021790555086601060006101000a81548173ffffffffffffffffffffffffffffffffffffffff021916908373ffffffffffffffffffffffffffffffffffffffff16021790555081601260006101000a81548173ffffffffffffffffffffffffffffffffffffffff021916908373ffffffffffffffffffffffffffffffffffffffff16021790555087604051620018879062002c5b565b62001893919062003927565b604051809103906000f080158015620018b0573d6000803e3d6000fd5b50601160006101000a81548173ffffffffffffffffffffffffffffffffffffffff021916908373ffffffffffffffffffffffffffffffffffffffff16021790555084601360006101000a81548173ffffffffffffffffffffffffffffffffffffffff021916908373ffffffffffffffffffffffffffffffffffffffff16021790555082600760006101000a81548173ffffffffffffffffffffffffffffffffffffffff021916908373ffffffffffffffffffffffffffffffffffffffff16021790555083601460006101000a81548173ffffffffffffffffffffffffffffffffffffffff021916908373ffffffffffffffffffffffffffffffffffffffff160217905550620019f46040518060400160405280601281526020017f50726f787920696e697469616c697a656421000000000000000000000000000081525062002aab565b801562001a165760008060016101000a81548160ff0219169083151502179055505b5050505050505050505050565b600760009054906101000a900473ffffffffffffffffffffffffffffffffffffffff1673ffffffffffffffffffffffffffffffffffffffff163373ffffffffffffffffffffffffffffffffffffffff161462001ab6576040517f08c379a000000000000000000000000000000000000000000000000000000000815260040162001aad9062003b4a565b60405180910390fd5b6000600760156101000a81548160ff021916908315150217905550565b6000600b60008373ffffffffffffffffffffffffffffffffffffffff1673ffffffffffffffffffffffffffffffffffffffff168152602001908152602001600020549050919050565b600760159054906101000a900460ff161562001b6f576040517f08c379a000000000000000000000000000000000000000000000000000000000815260040162001b669062003ae4565b60405180910390fd5b600c60003373ffffffffffffffffffffffffffffffffffffffff1673ffffffffffffffffffffffffffffffffffffffff16815260200190815260200160002060009054906101000a900460ff1662001bfe576040517f08c379a000000000000000000000000000000000000000000000000000000000815260040162001bf59062003b6c565b60405180910390fd5b6000601460009054906101000a900473ffffffffffffffffffffffffffffffffffffffff1673ffffffffffffffffffffffffffffffffffffffff1662fdd58e33856040518363ffffffff1660e01b815260040162001c5e929190620037a9565b60206040518083038186803b15801562001c7757600080fd5b505afa15801562001c8c573d6000803e3d6000fd5b505050506040513d601f19601f8201168201806040525081019062001cb2919062002fa6565b1162001cf5576040517f08c379a000000000000000000000000000000000000000000000000000000000815260040162001cec9062003bd2565b60405180910390fd5b600a8162001d04919062003eb8565b821015801562001d3e57506001600a60018362001d22919062003e23565b62001d2e919062003eb8565b62001d3a919062003f19565b8211155b62001d80576040517f08c379a000000000000000000000000000000000000000000000000000000000815260040162001d779062003aa0565b60405180910390fd5b81600960003373ffffffffffffffffffffffffffffffffffffffff1673ffffffffffffffffffffffffffffffffffffffff168152602001908152602001600020826005811062001dd55762001dd462004187565b5b01819055507f3cfdf147aadd79819d84786e9ecc684d6f3a96df00f508952e97cb7dc3fb328333838360405162001e0f9392919062003813565b60405180910390a15050565b62001e2562002c69565b600960008373ffffffffffffffffffffffffffffffffffffffff1673ffffffffffffffffffffffffffffffffffffffff16815260200190815260200160002060058060200260405190810160405280929190826005801562001e9d576020028201915b81548152602001906001019080831162001e88575b50505050509050919050565b600660009054906101000a900473ffffffffffffffffffffffffffffffffffffffff1673ffffffffffffffffffffffffffffffffffffffff163373ffffffffffffffffffffffffffffffffffffffff161462001f3c576040517f08c379a000000000000000000000000000000000000000000000000000000000815260040162001f339062003b28565b60405180910390fd5b600760149054906101000a900460ff1662001f8e576040517f08c379a000000000000000000000000000000000000000000000000000000000815260040162001f859062003b8e565b60405180910390fd5b6000600760146101000a81548160ff021916908315150217905550565b600760009054906101000a900473ffffffffffffffffffffffffffffffffffffffff1673ffffffffffffffffffffffffffffffffffffffff163373ffffffffffffffffffffffffffffffffffffffff16146200203e576040517f08c379a0000000000000000000000000000000000000000000000000000000008152600401620020359062003b4a565b60405180910390fd5b6001600760156101000a81548160ff021916908315150217905550565b60026001541415620020a4576040517f08c379a00000000000000000000000000000000000000000000000000000000081526004016200209b9062003bf4565b60405180910390fd5b6002600181905550600760149054906101000a900460ff1615620020ff576040517f08c379a0000000000000000000000000000000000000000000000000000000008152600401620020f69062003c16565b60405180910390fd5b601160009054906101000a900473ffffffffffffffffffffffffffffffffffffffff1673ffffffffffffffffffffffffffffffffffffffff16639b19251a336040518263ffffffff1660e01b81526004016200215c91906200374f565b60206040518083038186803b1580156200217557600080fd5b505afa1580156200218a573d6000803e3d6000fd5b505050506040513d601f19601f82011682018060405250810190620021b0919062002e3f565b806200225c5750601160009054906101000a900473ffffffffffffffffffffffffffffffffffffffff1673ffffffffffffffffffffffffffffffffffffffff1663dc9a15356040518163ffffffff1660e01b815260040160206040518083038186803b1580156200222057600080fd5b505afa15801562002235573d6000803e3d6000fd5b505050506040513d601f19601f820116820180604052508101906200225b919062002e3f565b5b80620022b55750600660009054906101000a900473ffffffffffffffffffffffffffffffffffffffff1673ffffffffffffffffffffffffffffffffffffffff163373ffffffffffffffffffffffffffffffffffffffff16145b620022f7576040517f08c379a0000000000000000000000000000000000000000000000000000000008152600401620022ee9062003a3a565b60405180910390fd5b600c60003373ffffffffffffffffffffffffffffffffffffffff1673ffffffffffffffffffffffffffffffffffffffff16815260200190815260200160002060009054906101000a900460ff161562002387576040517f08c379a00000000000000000000000000000000000000000000000000000000081526004016200237e9062003a5c565b60405180910390fd5b600454601360009054906101000a900473ffffffffffffffffffffffffffffffffffffffff1673ffffffffffffffffffffffffffffffffffffffff166370a08231336040518263ffffffff1660e01b8152600401620023e791906200374f565b60206040518083038186803b1580156200240057600080fd5b505afa15801562002415573d6000803e3d6000fd5b505050506040513d601f19601f820116820180604052508101906200243b919062002fa6565b1180620024e85750601160009054906101000a900473ffffffffffffffffffffffffffffffffffffffff1673ffffffffffffffffffffffffffffffffffffffff1663dc9a15356040518163ffffffff1660e01b815260040160206040518083038186803b158015620024ac57600080fd5b505afa158015620024c1573d6000803e3d6000fd5b505050506040513d601f19601f82011682018060405250810190620024e7919062002e3f565b5b6200252a576040517f08c379a0000000000000000000000000000000000000000000000000000000008152600401620025219062003a18565b60405180910390fd5b601260009054906101000a900473ffffffffffffffffffffffffffffffffffffffff1673ffffffffffffffffffffffffffffffffffffffff1663771bd4ce336040518263ffffffff1660e01b81526004016200258791906200374f565b600060405180830381600087803b158015620025a257600080fd5b505af1158015620025b7573d6000803e3d6000fd5b505050506001600c60003373ffffffffffffffffffffffffffffffffffffffff1673ffffffffffffffffffffffffffffffffffffffff16815260200190815260200160002060006101000a81548160ff021916908315150217905550600d339080600181540180825580915050600190039060005260206000200160009091909190916101000a81548173ffffffffffffffffffffffffffffffffffffffff021916908373ffffffffffffffffffffffffffffffffffffffff1602179055506040518060a00160405280606460ff168152602001606460ff168152602001606460ff168152602001606460ff168152602001606460ff16815250600960003373ffffffffffffffffffffffffffffffffffffffff1673ffffffffffffffffffffffffffffffffffffffff1681526020019081526020016000209060056200270092919062002c8b565b50601360009054906101000a900473ffffffffffffffffffffffffffffffffffffffff1673ffffffffffffffffffffffffffffffffffffffff166323b872dd33306004546040518463ffffffff1660e01b815260040162002764939291906200376c565b602060405180830381600087803b1580156200277f57600080fd5b505af115801562002794573d6000803e3d6000fd5b505050506040513d601f19601f82011682018060405250810190620027ba919062002e3f565b507f9f9e4044c5742cca66ca090b21552bac14645e68bad7a92364a9d9ff18111a1c3360045430604051620027f293929190620037d6565b60405180910390a160018081905550565b600960205281600052604060002081600581106200282057600080fd5b01600091509150505481565b600a60205281600052604060002081600881106200284957600080fd5b01600091509150505481565b600760169054906101000a900460ff1681565b600760009054906101000a900473ffffffffffffffffffffffffffffffffffffffff1673ffffffffffffffffffffffffffffffffffffffff163373ffffffffffffffffffffffffffffffffffffffff161480620029125750600660009054906101000a900473ffffffffffffffffffffffffffffffffffffffff1673ffffffffffffffffffffffffffffffffffffffff163373ffffffffffffffffffffffffffffffffffffffff16145b62002954576040517f08c379a00000000000000000000000000000000000000000000000000000000081526004016200294b9062003ac2565b60405180910390fd5b600760149054906101000a900460ff1615620029a7576040517f08c379a00000000000000000000000000000000000000000000000000000000081526004016200299e90620039f6565b60405180910390fd5b6001600760146101000a81548160ff02191690831515021790555073__$36fdb4e0c2cb91f3ceca5ea81b025328f3$__63d2c232b5600f600d60035460026040518563ffffffff1660e01b815260040162002a0694939291906200397e565b60006040518083038186803b15801562002a1f57600080fd5b505af415801562002a34573d6000803e3d6000fd5b50505050565b6000600d828154811062002a535762002a5262004187565b5b9060005260206000200160009054906101000a900473ffffffffffffffffffffffffffffffffffffffff169050919050565b600660009054906101000a900473ffffffffffffffffffffffffffffffffffffffff1681565b62002b458160405160240162002ac29190620039d2565b6040516020818303038152906040527f41304fac000000000000000000000000000000000000000000000000000000007bffffffffffffffffffffffffffffffffffffffffffffffffffffffff19166020820180517bffffffffffffffffffffffffffffffffffffffffffffffffffffffff838183161783525050505062002b5b565b50565b600062002b553062002b84565b15905090565b60008151905060006a636f6e736f6c652e6c6f679050602083016000808483855afa5050505050565b6000808273ffffffffffffffffffffffffffffffffffffffff163b119050919050565b604051806101000160405280600890602082028036833780820191505090505090565b82805462002bd89062004058565b90600052602060002090601f01602090048101928262002bfc576000855562002c48565b82601f1062002c1757803560ff191683800117855562002c48565b8280016001018555821562002c48579182015b8281111562002c4757823582559160200191906001019062002c2a565b5b50905062002c57919062002cd5565b5090565b61124a806200463a83390190565b6040518060a00160405280600590602082028036833780820191505090505090565b826005810192821562002cc2579160200282015b8281111562002cc1578251829060ff1690559160200191906001019062002c9f565b5b50905062002cd1919062002cd5565b5090565b5b8082111562002cf057600081600090555060010162002cd6565b5090565b60008135905062002d0581620045eb565b92915050565b60008135905062002d1c8162004605565b92915050565b60008151905062002d338162004605565b92915050565b60008083601f84011262002d525762002d51620041d0565b5b8235905067ffffffffffffffff81111562002d725762002d71620041cb565b5b60208301915083600182028301111562002d915762002d90620041d5565b5b9250929050565b60008135905062002da9816200461f565b92915050565b60008151905062002dc0816200461f565b92915050565b60006020828403121562002ddf5762002dde620041df565b5b600062002def8482850162002cf4565b91505092915050565b6000806040838503121562002e125762002e11620041df565b5b600062002e228582860162002cf4565b925050602062002e358582860162002d98565b9150509250929050565b60006020828403121562002e585762002e57620041df565b5b600062002e688482850162002d22565b91505092915050565b6000806000806000806000806000806101208b8d03121562002e985762002e97620041df565b5b60008b013567ffffffffffffffff81111562002eb95762002eb8620041da565b5b62002ec78d828e0162002d39565b9a509a5050602062002edc8d828e0162002d98565b985050604062002eef8d828e0162002d0b565b975050606062002f028d828e0162002cf4565b965050608062002f158d828e0162002cf4565b95505060a062002f288d828e0162002cf4565b94505060c062002f3b8d828e0162002cf4565b93505060e062002f4e8d828e0162002cf4565b92505061010062002f628d828e0162002cf4565b9150509295989b9194979a5092959850565b60006020828403121562002f8d5762002f8c620041df565b5b600062002f9d8482850162002d98565b91505092915050565b60006020828403121562002fbf5762002fbe620041df565b5b600062002fcf8482850162002daf565b91505092915050565b6000806040838503121562002ff25762002ff1620041df565b5b6000620030028582860162002d98565b9250506020620030158582860162002d98565b9150509250929050565b60006200302d838362003087565b60208301905092915050565b6000620030478383620030a9565b60208301905092915050565b6000620030618383620036fe565b60408301905092915050565b60006200307b83836200371c565b60208301905092915050565b620030928162003f74565b82525050565b620030a38162003f74565b82525050565b620030b48162003f74565b82525050565b620030c58162003d2a565b620030d1818462003dad565b9250620030de8262003cd2565b8060005b8381101562003115578151620030f987826200301f565b9650620031068362003d6c565b925050600181019050620030e2565b505050505050565b60006200312a8262003d35565b62003136818562003db8565b9350620031438362003cdc565b8060005b8381101562003183576200315b82620041b6565b6200316788826200301f565b9750620031748362003d79565b92505060018101905062003147565b5085935050505092915050565b60006200319d8262003d35565b620031a9818562003dc9565b9350620031b68362003cdc565b8060005b83811015620031f657620031ce82620041b6565b620031da888262003039565b9750620031e78362003d79565b925050600181019050620031ba565b5085935050505092915050565b8082525050565b6000620032178262003d40565b62003223818562003dda565b9350620032308362003cf1565b8060005b83811015620032675781516200324b888262003053565b9750620032588362003d86565b92505060018101905062003234565b5085935050505092915050565b6200327f8162003d4b565b6200328b818462003deb565b9250620032988262003d01565b8060005b83811015620032cf578151620032b387826200306d565b9650620032c08362003d93565b9250506001810190506200329c565b505050505050565b620032e28162003d56565b620032ee818462003df6565b9250620032fb8262003d0b565b8060005b83811015620033325781516200331687826200306d565b9650620033238362003da0565b925050600181019050620032ff565b505050505050565b620033458162003f88565b82525050565b620033568162003fbe565b82525050565b620033678162003fd2565b82525050565b620033788162003fe6565b82525050565b8082525050565b8082525050565b8082525050565b8082525050565b6000620033a78262003d61565b620033b3818562003e01565b9350620033c581856020860162004022565b620033d081620041e4565b840191505092915050565b60008154620033ea8162004058565b620033f6818662003e12565b9450600182166000811462003414576001811462003427576200345e565b60ff19831686526020860193506200345e565b620034328562003d15565b60005b83811015620034565781548189015260018201915060208101905062003435565b808801955050505b50505092915050565b60006200347660248362003e01565b9150620034838262004202565b604082019050919050565b60006200349d601d8362003e01565b9150620034aa8262004251565b602082019050919050565b6000620034c460188362003e01565b9150620034d1826200427a565b602082019050919050565b6000620034eb60238362003e01565b9150620034f882620042a3565b604082019050919050565b600062003512603d8362003e01565b91506200351f82620042f2565b604082019050919050565b60006200353960318362003e01565b9150620035468262004341565b604082019050919050565b600062003560601f8362003e01565b91506200356d8262004390565b602082019050919050565b600062003587601e8362003e01565b91506200359482620043b9565b602082019050919050565b6000620035ae602e8362003e01565b9150620035bb82620043e2565b604082019050919050565b6000620035d560178362003e01565b9150620035e28262004431565b602082019050919050565b6000620035fc60168362003e01565b915062003609826200445a565b602082019050919050565b60006200362360168362003e01565b9150620036308262004483565b602082019050919050565b60006200364a601c8362003e01565b91506200365782620044ac565b602082019050919050565b60006200367160418362003e01565b91506200367e82620044d5565b606082019050919050565b60006200369860248362003e01565b9150620036a5826200454a565b604082019050919050565b6000620036bf601f8362003e01565b9150620036cc8262004599565b602082019050919050565b6000620036e660178362003e01565b9150620036f382620045c2565b602082019050919050565b604082016000820151620037166000850182620030ba565b50505050565b620037278162003fb4565b82525050565b620037388162003fb4565b82525050565b620037498162003fb4565b82525050565b600060208201905062003766600083018462003098565b92915050565b600060608201905062003783600083018662003098565b62003792602083018562003098565b620037a160408301846200372d565b949350505050565b6000604082019050620037c0600083018562003098565b620037cf60208301846200372d565b9392505050565b6000606082019050620037ed600083018662003098565b620037fc60208301856200372d565b6200380b604083018462003098565b949350505050565b60006060820190506200382a600083018662003098565b6200383960208301856200372d565b6200384860408301846200372d565b949350505050565b600060608201905081810360008301526200386c818662003190565b90506200387d60208301856200338c565b6200388c604083018462003203565b949350505050565b60006040820190508181036000830152620038b081856200311d565b9050620038c160208301846200372d565b9392505050565b60006020820190508181036000830152620038e481846200320a565b905092915050565b600060a08201905062003903600083018462003274565b92915050565b600061010082019050620039216000830184620032d7565b92915050565b60006020820190506200393e60008301846200333a565b92915050565b60006020820190506200395b60008301846200335c565b92915050565b60006020820190506200397860008301846200336d565b92915050565b600060808201905062003995600083018762003393565b620039a4602083018662003203565b620039b360408301856200373e565b8181036060830152620039c78184620033db565b905095945050505050565b60006020820190508181036000830152620039ee81846200339a565b905092915050565b6000602082019050818103600083015262003a118162003467565b9050919050565b6000602082019050818103600083015262003a33816200348e565b9050919050565b6000602082019050818103600083015262003a5581620034b5565b9050919050565b6000602082019050818103600083015262003a7781620034dc565b9050919050565b6000602082019050818103600083015262003a998162003503565b9050919050565b6000602082019050818103600083015262003abb816200352a565b9050919050565b6000602082019050818103600083015262003add8162003551565b9050919050565b6000602082019050818103600083015262003aff8162003578565b9050919050565b6000602082019050818103600083015262003b21816200359f565b9050919050565b6000602082019050818103600083015262003b4381620035c6565b9050919050565b6000602082019050818103600083015262003b6581620035ed565b9050919050565b6000602082019050818103600083015262003b878162003614565b9050919050565b6000602082019050818103600083015262003ba9816200363b565b9050919050565b6000602082019050818103600083015262003bcb8162003662565b9050919050565b6000602082019050818103600083015262003bed8162003689565b9050919050565b6000602082019050818103600083015262003c0f81620036b0565b9050919050565b6000602082019050818103600083015262003c3181620036d7565b9050919050565b600060208201905062003c4f60008301846200372d565b92915050565b600060e08201905062003c6c600083018a6200373e565b62003c7b60208301896200334b565b62003c8a604083018862003385565b62003c9960608301876200337e565b62003ca860808301866200338c565b62003cb760a083018562003385565b62003cc660c083018462003393565b98975050505050505050565b6000819050919050565b60008190508160005260206000209050919050565b6000819050602082019050919050565b6000819050919050565b6000819050919050565b60008190508160005260206000209050919050565b600060029050919050565b600081549050919050565b600081519050919050565b600060059050919050565b600060089050919050565b600081519050919050565b6000602082019050919050565b6000600182019050919050565b6000602082019050919050565b6000602082019050919050565b6000602082019050919050565b600081905092915050565b600082825260208201905092915050565b600082825260208201905092915050565b600082825260208201905092915050565b600081905092915050565b600081905092915050565b600082825260208201905092915050565b600082825260208201905092915050565b600062003e308262003fb4565b915062003e3d8362003fb4565b9250827fffffffffffffffffffffffffffffffffffffffffffffffffffffffffffffffff0382111562003e755762003e74620040fa565b5b828201905092915050565b600062003e8d8262003fb4565b915062003e9a8362003fb4565b92508262003ead5762003eac62004129565b5b828204905092915050565b600062003ec58262003fb4565b915062003ed28362003fb4565b9250817fffffffffffffffffffffffffffffffffffffffffffffffffffffffffffffffff048311821515161562003f0e5762003f0d620040fa565b5b828202905092915050565b600062003f268262003fb4565b915062003f338362003fb4565b92508282101562003f495762003f48620040fa565b5b828203905092915050565b600073ffffffffffffffffffffffffffffffffffffffff82169050919050565b600062003f818262003f94565b9050919050565b60008115159050919050565b600073ffffffffffffffffffffffffffffffffffffffff82169050919050565b6000819050919050565b600062003fcb8262003ffa565b9050919050565b600062003fdf8262003ffa565b9050919050565b600062003ff38262003ffa565b9050919050565b600062004007826200400e565b9050919050565b60006200401b8262003f94565b9050919050565b60005b838110156200404257808201518184015260208101905062004025565b8381111562004052576000848401525b50505050565b600060028204905060018216806200407157607f821691505b6020821081141562004088576200408762004158565b5b50919050565b6000620040a56200409f83620041f5565b62003f54565b9050919050565b6000620040b98262003fb4565b91507fffffffffffffffffffffffffffffffffffffffffffffffffffffffffffffffff821415620040ef57620040ee620040fa565b5b600182019050919050565b7f4e487b7100000000000000000000000000000000000000000000000000000000600052601160045260246000fd5b7f4e487b7100000000000000000000000000000000000000000000000000000000600052601260045260246000fd5b7f4e487b7100000000000000000000000000000000000000000000000000000000600052602260045260246000fd5b7f4e487b7100000000000000000000000000000000000000000000000000000000600052603260045260246000fd5b6000620041c482546200408e565b9050919050565b600080fd5b600080fd5b600080fd5b600080fd5b600080fd5b6000601f19601f8301169050919050565b60008160001c9050919050565b7f4c656167756520656e7472792068617320616c7265616479206265656e20636c60008201527f6f73656400000000000000000000000000000000000000000000000000000000602082015250565b7f496e737566666963656e742066756e647320666f72207374616b696e67000000600082015250565b7f55736572206973206e6f74206f6e2077686974656c6973740000000000000000600082015250565b7f596f75206861766520616c7265616479206a6f696e65642074686973206c656160008201527f6775650000000000000000000000000000000000000000000000000000000000602082015250565b7f6c656167756520656e747279206e6f7420636c6f7365642c20616e642073636860008201527f6564756c65206e6f742073657420666f722074686973206c6561677565000000602082015250565b7f596f75206172652073657474696e6720616e206174686c65746520696e20746860008201527f652077726f6e6720706f736974696f6e21000000000000000000000000000000602082015250565b7f43616c6c6572206973206e6f74205465616d44696666206f722041646d696e00600082015250565b7f6c696e657570206973206c6f636b656420666f7220746865207765656b210000600082015250565b7f496e697469616c697a61626c653a20636f6e747261637420697320616c72656160008201527f647920696e697469616c697a6564000000000000000000000000000000000000602082015250565b7f43616c6c6572206973206e6f74207468652061646d696e000000000000000000600082015250565b7f43616c6c6572206973206e6f74205465616d4469666600000000000000000000600082015250565b7f55736572206973206e6f7420696e204c65616775652e00000000000000000000600082015250565b7f4c656167756520656e74727920697320616c7265616479206f70656e00000000600082015250565b7f4e6f626f64792063616e20656e7465722f6578697420746865206c656167756560008201527f20616e796d6f72652e2054686520736561736f6e20686173207374617274656460208201527f2100000000000000000000000000000000000000000000000000000000000000604082015250565b7f43616c6c657220646f6573206e6f74206f776e20676976656e206174686c657460008201527f6549647300000000000000000000000000000000000000000000000000000000602082015250565b7f5265656e7472616e637947756172643a207265656e7472616e742063616c6c00600082015250565b7f4c656167756520456e74727920697320436c6f73656421000000000000000000600082015250565b620045f68162003f74565b81146200460257600080fd5b50565b620046108162003f88565b81146200461c57600080fd5b50565b6200462a8162003fb4565b81146200463657600080fd5b5056fe60806040523480156200001157600080fd5b506040516200124a3803806200124a83398181016040528101906200003791906200015b565b620000576200004b6200007860201b60201c565b6200008060201b60201c565b80600460006101000a81548160ff02191690831515021790555050620001b8565b600033905090565b60008060009054906101000a900473ffffffffffffffffffffffffffffffffffffffff169050816000806101000a81548173ffffffffffffffffffffffffffffffffffffffff021916908373ffffffffffffffffffffffffffffffffffffffff1602179055508173ffffffffffffffffffffffffffffffffffffffff168173ffffffffffffffffffffffffffffffffffffffff167f8be0079c531659141344cd1fd0a4f28419497f9722a3daafe3b4186f6b6457e060405160405180910390a35050565b60008151905062000155816200019e565b92915050565b60006020828403121562000174576200017362000199565b5b6000620001848482850162000144565b91505092915050565b60008115159050919050565b600080fd5b620001a9816200018d565b8114620001b557600080fd5b50565b61108280620001c86000396000f3fe608060405234801561001057600080fd5b50600436106100b45760003560e01c80639b19251a116100715780639b19251a1461018f578063ba4e5c49146101bf578063dc9a1535146101ef578063e2ec6ec31461020d578063e35a89991461023d578063f2fde38b1461026d576100b4565b806324953eaa146100b9578063286dd3f5146100e957806344eaa84e14610119578063715018a6146101375780637b9417c8146101415780638da5cb5b14610171575b600080fd5b6100d360048036038101906100ce9190610bcc565b610289565b6040516100e09190610cd0565b60405180910390f35b61010360048036038101906100fe9190610b9f565b610359565b6040516101109190610cd0565b60405180910390f35b6101216104dc565b60405161012e9190610d2b565b60405180910390f35b61013f6104e6565b005b61015b60048036038101906101569190610b9f565b61056e565b6040516101689190610cd0565b60405180910390f35b610179610752565b6040516101869190610cb5565b60405180910390f35b6101a960048036038101906101a49190610b9f565b61077b565b6040516101b69190610cd0565b60405180910390f35b6101d960048036038101906101d49190610c15565b61079b565b6040516101e69190610cb5565b60405180910390f35b6101f76107da565b6040516102049190610cd0565b60405180910390f35b61022760048036038101906102229190610bcc565b6107ed565b6040516102349190610cd0565b60405180910390f35b61025760048036038101906102529190610b9f565b6108bd565b6040516102649190610cd0565b60405180910390f35b61028760048036038101906102829190610b9f565b610913565b005b6000610293610a0b565b73ffffffffffffffffffffffffffffffffffffffff166102b1610752565b73ffffffffffffffffffffffffffffffffffffffff1614610307576040517f08c379a00000000000000000000000000000000000000000000000000000000081526004016102fe90610d0b565b60405180910390fd5b60005b82518110156103535761033683828151811061032957610328610f23565b5b6020026020010151610359565b1561034057600191505b808061034b90610eab565b91505061030a565b50919050565b6000610363610a0b565b73ffffffffffffffffffffffffffffffffffffffff16610381610752565b73ffffffffffffffffffffffffffffffffffffffff16146103d7576040517f08c379a00000000000000000000000000000000000000000000000000000000081526004016103ce90610d0b565b60405180910390fd5b600160008373ffffffffffffffffffffffffffffffffffffffff1673ffffffffffffffffffffffffffffffffffffffff16815260200190815260200160002060009054906101000a900460ff16156104d7576000600160008473ffffffffffffffffffffffffffffffffffffffff1673ffffffffffffffffffffffffffffffffffffffff16815260200190815260200160002060006101000a81548160ff0219169083151502179055507ff1abf01a1043b7c244d128e8595cf0c1d10743b022b03a02dffd8ca3bf729f5a826040516104b09190610cb5565b60405180910390a16001600360008282546104cb9190610dfe565b92505081905550600190505b919050565b6000600354905090565b6104ee610a0b565b73ffffffffffffffffffffffffffffffffffffffff1661050c610752565b73ffffffffffffffffffffffffffffffffffffffff1614610562576040517f08c379a000000000000000000000000000000000000000000000000000000000815260040161055990610d0b565b60405180910390fd5b61056c6000610a13565b565b6000610578610a0b565b73ffffffffffffffffffffffffffffffffffffffff16610596610752565b73ffffffffffffffffffffffffffffffffffffffff16146105ec576040517f08c379a00000000000000000000000000000000000000000000000000000000081526004016105e390610d0b565b60405180910390fd5b600160008373ffffffffffffffffffffffffffffffffffffffff1673ffffffffffffffffffffffffffffffffffffffff16815260200190815260200160002060009054906101000a900460ff1661074d5760018060008473ffffffffffffffffffffffffffffffffffffffff1673ffffffffffffffffffffffffffffffffffffffff16815260200190815260200160002060006101000a81548160ff0219169083151502179055506002829080600181540180825580915050600190039060005260206000200160009091909190916101000a81548173ffffffffffffffffffffffffffffffffffffffff021916908373ffffffffffffffffffffffffffffffffffffffff1602179055507fd1bba68c128cc3f427e5831b3c6f99f480b6efa6b9e80c757768f6124158cc3f826040516107269190610cb5565b60405180910390a16001600360008282546107419190610da8565b92505081905550600190505b919050565b60008060009054906101000a900473ffffffffffffffffffffffffffffffffffffffff16905090565b60016020528060005260406000206000915054906101000a900460ff1681565b600281815481106107ab57600080fd5b906000526020600020016000915054906101000a900473ffffffffffffffffffffffffffffffffffffffff1681565b600460009054906101000a900460ff1681565b60006107f7610a0b565b73ffffffffffffffffffffffffffffffffffffffff16610815610752565b73ffffffffffffffffffffffffffffffffffffffff161461086b576040517f08c379a000000000000000000000000000000000000000000000000000000000815260040161086290610d0b565b60405180910390fd5b60005b82518110156108b75761089a83828151811061088d5761088c610f23565b5b602002602001015161056e565b156108a457600191505b80806108af90610eab565b91505061086e565b50919050565b6000600160008373ffffffffffffffffffffffffffffffffffffffff1673ffffffffffffffffffffffffffffffffffffffff16815260200190815260200160002060009054906101000a900460ff169050919050565b61091b610a0b565b73ffffffffffffffffffffffffffffffffffffffff16610939610752565b73ffffffffffffffffffffffffffffffffffffffff161461098f576040517f08c379a000000000000000000000000000000000000000000000000000000000815260040161098690610d0b565b60405180910390fd5b600073ffffffffffffffffffffffffffffffffffffffff168173ffffffffffffffffffffffffffffffffffffffff1614156109ff576040517f08c379a00000000000000000000000000000000000000000000000000000000081526004016109f690610ceb565b60405180910390fd5b610a0881610a13565b50565b600033905090565b60008060009054906101000a900473ffffffffffffffffffffffffffffffffffffffff169050816000806101000a81548173ffffffffffffffffffffffffffffffffffffffff021916908373ffffffffffffffffffffffffffffffffffffffff1602179055508173ffffffffffffffffffffffffffffffffffffffff168173ffffffffffffffffffffffffffffffffffffffff167f8be0079c531659141344cd1fd0a4f28419497f9722a3daafe3b4186f6b6457e060405160405180910390a35050565b6000610aea610ae584610d6b565b610d46565b90508083825260208201905082856020860282011115610b0d57610b0c610f86565b5b60005b85811015610b3d5781610b238882610b47565b845260208401935060208301925050600181019050610b10565b5050509392505050565b600081359050610b568161101e565b92915050565b600082601f830112610b7157610b70610f81565b5b8135610b81848260208601610ad7565b91505092915050565b600081359050610b9981611035565b92915050565b600060208284031215610bb557610bb4610f90565b5b6000610bc384828501610b47565b91505092915050565b600060208284031215610be257610be1610f90565b5b600082013567ffffffffffffffff811115610c0057610bff610f8b565b5b610c0c84828501610b5c565b91505092915050565b600060208284031215610c2b57610c2a610f90565b5b6000610c3984828501610b8a565b91505092915050565b610c4b81610e32565b82525050565b610c5a81610e44565b82525050565b6000610c6d602683610d97565b9150610c7882610fa6565b604082019050919050565b6000610c90602083610d97565b9150610c9b82610ff5565b602082019050919050565b610caf81610e70565b82525050565b6000602082019050610cca6000830184610c42565b92915050565b6000602082019050610ce56000830184610c51565b92915050565b60006020820190508181036000830152610d0481610c60565b9050919050565b60006020820190508181036000830152610d2481610c83565b9050919050565b6000602082019050610d406000830184610ca6565b92915050565b6000610d50610d61565b9050610d5c8282610e7a565b919050565b6000604051905090565b600067ffffffffffffffff821115610d8657610d85610f52565b5b602082029050602081019050919050565b600082825260208201905092915050565b6000610db382610e70565b9150610dbe83610e70565b9250827fffffffffffffffffffffffffffffffffffffffffffffffffffffffffffffffff03821115610df357610df2610ef4565b5b828201905092915050565b6000610e0982610e70565b9150610e1483610e70565b925082821015610e2757610e26610ef4565b5b828203905092915050565b6000610e3d82610e50565b9050919050565b60008115159050919050565b600073ffffffffffffffffffffffffffffffffffffffff82169050919050565b6000819050919050565b610e8382610f95565b810181811067ffffffffffffffff82111715610ea257610ea1610f52565b5b80604052505050565b6000610eb682610e70565b91507fffffffffffffffffffffffffffffffffffffffffffffffffffffffffffffffff821415610ee957610ee8610ef4565b5b600182019050919050565b7f4e487b7100000000000000000000000000000000000000000000000000000000600052601160045260246000fd5b7f4e487b7100000000000000000000000000000000000000000000000000000000600052603260045260246000fd5b7f4e487b7100000000000000000000000000000000000000000000000000000000600052604160045260246000fd5b600080fd5b600080fd5b600080fd5b600080fd5b6000601f19601f8301169050919050565b7f4f776e61626c653a206e6577206f776e657220697320746865207a65726f206160008201527f6464726573730000000000000000000000000000000000000000000000000000602082015250565b7f4f776e61626c653a2063616c6c6572206973206e6f7420746865206f776e6572600082015250565b61102781610e32565b811461103257600080fd5b50565b61103e81610e70565b811461104957600080fd5b5056fea2646970667358221220635703a5913b9257d1fabb352d24d1c2e635548b5680032c0cad3aaac84a900264736f6c63430008070033a2646970667358221220e1c42fafcfbff53e3e0a4021c4431748bf54bc68827e22bd48b2a9888d1c0e4764736f6c63430008070033",
  "linkReferences": {
    "contracts/MOBALogicLibrary.sol": {
      "MOBALogicLibrary": [
        {
          "length": 20,
          "start": 2667
        },
        {
          "length": 20,
          "start": 3958
        },
        {
          "length": 20,
          "start": 10731
        }
      ]
    }
  },
  "deployedLinkReferences": {
    "contracts/MOBALogicLibrary.sol": {
      "MOBALogicLibrary": [
        {
          "length": 20,
          "start": 2628
        },
        {
          "length": 20,
          "start": 3919
        },
        {
          "length": 20,
          "start": 10692
        }
      ]
    }
  }
}