{
  "_format": "hh-sol-artifact-1",
  "contractName": "LeagueOfLegendsLogic",
  "sourceName": "contracts/LeagueOfLegendsLogic.sol",
  "abi": [
    {
      "anonymous": false,
      "inputs": [
        {
          "indexed": false,
          "internalType": "address",
          "name": "sender",
          "type": "address"
        },
        {
          "indexed": false,
          "internalType": "uint256",
          "name": "amount",
          "type": "uint256"
        }
      ],
      "name": "Staked",
      "type": "event"
    },
    {
      "anonymous": false,
      "inputs": [
        {
          "indexed": false,
          "internalType": "address[]",
          "name": "winner",
          "type": "address[]"
        },
        {
          "indexed": false,
          "internalType": "uint256",
          "name": "prizePotPerWinner",
          "type": "uint256"
        }
      ],
      "name": "leagueEnded",
      "type": "event"
    },
    {
      "anonymous": false,
      "inputs": [
        {
          "indexed": false,
          "internalType": "address",
          "name": "sender",
          "type": "address"
        },
        {
          "indexed": false,
          "internalType": "address",
          "name": "contractAddress",
          "type": "address"
        }
      ],
      "name": "testUSDCDeployed",
      "type": "event"
    },
    {
      "inputs": [
        {
          "internalType": "address",
          "name": "_userToAdd",
          "type": "address"
        }
      ],
      "name": "addUserToWhitelist",
      "outputs": [],
      "stateMutability": "nonpayable",
      "type": "function"
    },
    {
      "inputs": [],
      "name": "admin",
      "outputs": [
        {
          "internalType": "address",
          "name": "",
          "type": "address"
        }
      ],
      "stateMutability": "view",
      "type": "function"
    },
    {
      "inputs": [],
      "name": "currentWeekNum",
      "outputs": [
        {
          "internalType": "uint256",
          "name": "",
          "type": "uint256"
        }
      ],
      "stateMutability": "view",
      "type": "function"
    },
    {
      "inputs": [],
      "name": "evaluateMatches",
      "outputs": [],
      "stateMutability": "nonpayable",
      "type": "function"
    },
    {
      "inputs": [],
      "name": "getContractUSDCBalance",
      "outputs": [
        {
          "internalType": "uint256",
          "name": "",
          "type": "uint256"
        }
      ],
      "stateMutability": "view",
      "type": "function"
    },
    {
      "inputs": [
        {
          "internalType": "uint256",
          "name": "index",
          "type": "uint256"
        }
      ],
      "name": "getLeagueMember",
      "outputs": [
        {
          "internalType": "address",
          "name": "",
          "type": "address"
        }
      ],
      "stateMutability": "view",
      "type": "function"
    },
    {
      "inputs": [
        {
          "internalType": "address",
          "name": "_user",
          "type": "address"
        }
      ],
      "name": "getLineup",
      "outputs": [
        {
          "internalType": "uint256[]",
          "name": "",
          "type": "uint256[]"
        }
      ],
      "stateMutability": "view",
      "type": "function"
    },
    {
      "inputs": [],
      "name": "getLineupIsLocked",
      "outputs": [
        {
          "internalType": "bool",
          "name": "",
          "type": "bool"
        }
      ],
      "stateMutability": "view",
      "type": "function"
    },
    {
      "inputs": [
        {
          "internalType": "uint256",
          "name": "_week",
          "type": "uint256"
        }
      ],
      "name": "getScheduleForWeek",
      "outputs": [
        {
          "components": [
            {
              "internalType": "address[2]",
              "name": "players",
              "type": "address[2]"
            }
          ],
          "internalType": "struct LeagueOfLegendsLogic.Matchup[]",
          "name": "",
          "type": "tuple[]"
        }
      ],
      "stateMutability": "view",
      "type": "function"
    },
    {
      "inputs": [],
      "name": "getUserRecord",
      "outputs": [
        {
          "internalType": "uint256[]",
          "name": "",
          "type": "uint256[]"
        }
      ],
      "stateMutability": "view",
      "type": "function"
    },
    {
      "inputs": [
        {
          "internalType": "address",
          "name": "",
          "type": "address"
        }
      ],
      "name": "inLeague",
      "outputs": [
        {
          "internalType": "bool",
          "name": "",
          "type": "bool"
        }
      ],
      "stateMutability": "view",
      "type": "function"
    },
    {
      "inputs": [
        {
          "internalType": "string",
          "name": "_name",
          "type": "string"
        },
        {
          "internalType": "uint256",
          "name": "_stakeAmount",
          "type": "uint256"
        },
        {
          "internalType": "bool",
          "name": "_isPublic",
          "type": "bool"
        },
        {
          "internalType": "address",
          "name": "athletesDataStorageAddress",
          "type": "address"
        },
        {
          "internalType": "address",
          "name": "_admin",
          "type": "address"
        },
        {
          "internalType": "address",
          "name": "_rinkebyUSDCAddress",
          "type": "address"
        },
        {
          "internalType": "address",
          "name": "_testUSDCAddress",
          "type": "address"
        },
        {
          "internalType": "address",
          "name": "_gameItemsContractAddress",
          "type": "address"
        },
        {
          "internalType": "address",
          "name": "_teamDiffAddress",
          "type": "address"
        },
        {
          "internalType": "address",
          "name": "_leagueMakerContractAddress",
          "type": "address"
        }
      ],
      "name": "initialize",
      "outputs": [],
      "stateMutability": "nonpayable",
      "type": "function"
    },
    {
      "inputs": [],
      "name": "joinLeague",
      "outputs": [],
      "stateMutability": "nonpayable",
      "type": "function"
    },
    {
      "inputs": [],
      "name": "leagueEntryIsClosed",
      "outputs": [
        {
          "internalType": "bool",
          "name": "",
          "type": "bool"
        }
      ],
      "stateMutability": "view",
      "type": "function"
    },
    {
      "inputs": [
        {
          "internalType": "uint256",
          "name": "",
          "type": "uint256"
        }
      ],
      "name": "leagueMembers",
      "outputs": [
        {
          "internalType": "address",
          "name": "",
          "type": "address"
        }
      ],
      "stateMutability": "view",
      "type": "function"
    },
    {
      "inputs": [],
      "name": "leagueName",
      "outputs": [
        {
          "internalType": "string",
          "name": "",
          "type": "string"
        }
      ],
      "stateMutability": "view",
      "type": "function"
    },
    {
      "inputs": [],
      "name": "lineupIsLocked",
      "outputs": [
        {
          "internalType": "bool",
          "name": "",
          "type": "bool"
        }
      ],
      "stateMutability": "view",
      "type": "function"
    },
    {
      "inputs": [],
      "name": "lockLineup",
      "outputs": [],
      "stateMutability": "nonpayable",
      "type": "function"
    },
    {
      "inputs": [],
      "name": "numWeeks",
      "outputs": [
        {
          "internalType": "uint256",
          "name": "",
          "type": "uint256"
        }
      ],
      "stateMutability": "view",
      "type": "function"
    },
    {
      "inputs": [],
      "name": "onLeagueEnd",
      "outputs": [],
      "stateMutability": "nonpayable",
      "type": "function"
    },
    {
      "inputs": [],
      "name": "rinkebyUSDC",
      "outputs": [
        {
          "internalType": "contract IERC20",
          "name": "",
          "type": "address"
        }
      ],
      "stateMutability": "view",
      "type": "function"
    },
    {
      "inputs": [],
      "name": "rinkebyUSDCAddress",
      "outputs": [
        {
          "internalType": "address",
          "name": "",
          "type": "address"
        }
      ],
      "stateMutability": "view",
      "type": "function"
    },
    {
      "inputs": [],
      "name": "setLeagueEntryIsClosed",
      "outputs": [],
      "stateMutability": "nonpayable",
      "type": "function"
    },
    {
      "inputs": [],
      "name": "setLeagueSchedule",
      "outputs": [],
      "stateMutability": "nonpayable",
      "type": "function"
    },
    {
      "inputs": [
        {
          "internalType": "uint256[]",
          "name": "athleteIds",
          "type": "uint256[]"
        }
      ],
      "name": "setLineup",
      "outputs": [],
      "stateMutability": "nonpayable",
      "type": "function"
    },
    {
      "inputs": [],
      "name": "stakeAmount",
      "outputs": [
        {
          "internalType": "uint256",
          "name": "",
          "type": "uint256"
        }
      ],
      "stateMutability": "view",
      "type": "function"
    },
    {
      "inputs": [],
      "name": "teamDiffAddress",
      "outputs": [
        {
          "internalType": "address",
          "name": "",
          "type": "address"
        }
      ],
      "stateMutability": "view",
      "type": "function"
    },
    {
      "inputs": [],
      "name": "unlockLineup",
      "outputs": [],
      "stateMutability": "nonpayable",
      "type": "function"
    },
    {
      "inputs": [
        {
          "internalType": "address",
          "name": "",
          "type": "address"
        },
        {
          "internalType": "uint256",
          "name": "",
          "type": "uint256"
        }
      ],
      "name": "userToLineup",
      "outputs": [
        {
          "internalType": "uint256",
          "name": "",
          "type": "uint256"
        }
      ],
      "stateMutability": "view",
      "type": "function"
    },
    {
      "inputs": [
        {
          "internalType": "address",
          "name": "",
          "type": "address"
        }
      ],
      "name": "userToPoints",
      "outputs": [
        {
          "internalType": "uint256",
          "name": "",
          "type": "uint256"
        }
      ],
      "stateMutability": "view",
      "type": "function"
    },
    {
      "inputs": [
        {
          "internalType": "address",
          "name": "",
          "type": "address"
        },
        {
          "internalType": "uint256",
          "name": "",
          "type": "uint256"
        }
      ],
      "name": "userToRecord",
      "outputs": [
        {
          "internalType": "uint256",
          "name": "",
          "type": "uint256"
        }
      ],
      "stateMutability": "view",
      "type": "function"
    },
    {
      "inputs": [],
      "name": "whitelistContract",
      "outputs": [
        {
          "internalType": "contract Whitelist",
          "name": "",
          "type": "address"
        }
      ],
      "stateMutability": "view",
      "type": "function"
    }
  ],
  "bytecode": "0x608060405234801561001057600080fd5b5060018081905550615033806100276000396000f3fe60806040523480156200001157600080fd5b50600436106200021e5760003560e01c8063747b80501162000129578063c99fea9411620000b1578063ee90080f116200007b578063ee90080f14620005c9578063f612121a14620005ff578063f851a440146200061f578063f88160451462000641576200021e565b8063c99fea941462000545578063cff560031462000551578063e4c9066b1462000587578063e5f7322f1462000593576200021e565b80639122ce6d11620000f35780639122ce6d14620004d5578063a2bc091a146200050b578063a949a9d71462000517578063c8be3b5b1462000539576200021e565b8063747b8050146200044f5780637eed33f1146200046f578063841abf6e146200049157806384900b0414620004b3576200021e565b806327311b3211620001ad5780633c3ae13f11620001775780633c3ae13f14620003c957806352e6e5f314620003e957806360c7dc47146200040b5780636cc15ad5146200042d576200021e565b806327311b32146200032f5780632ae6b13514620003515780632d382ee01462000387578063305a578214620003bd576200021e565b80630c6f795911620001ef5780630c6f795914620002955780631d803e0014620002cb5780631dd7f8ca14620002d7578063267175db14620002f9576200021e565b80622772c21462000223578062b2476f14620002455780630635dbcb14620002675780630655465a1462000289575b600080fd5b6200022d62000663565b6040516200023c919062003592565b60405180910390f35b6200024f6200071b565b6040516200025e9190620031b0565b60405180910390f35b6200027162000741565b604051620002809190620032f7565b60405180910390f35b6200029362000754565b005b620002b36004803603810190620002ad91906200295e565b6200085f565b604051620002c2919062003592565b60405180910390f35b620002d562000891565b005b620002e162000cd8565b604051620002f09190620031b0565b60405180910390f35b62000317600480360381019062000311919062002b42565b62000cfe565b604051620003269190620031b0565b60405180910390f35b6200033962000d3e565b604051620003489190620032f7565b60405180910390f35b6200036f60048036038101906200036991906200292c565b62000d55565b6040516200037e919062003592565b60405180910390f35b620003a560048036038101906200039f919062002b42565b62000d6d565b604051620003b49190620032af565b60405180910390f35b620003c762000e5e565b005b620003e76004803603810190620003e1919062002a28565b62000fd6565b005b620003f362001366565b60405162000402919062003592565b60405180910390f35b620004156200136c565b60405162000424919062003592565b60405180910390f35b6200043762001372565b604051620004469190620032f7565b60405180910390f35b6200046d60048036038101906200046791906200292c565b62001385565b005b6200047962001560565b60405162000488919062003592565b60405180910390f35b6200049b62001566565b604051620004aa9190620033a2565b60405180910390f35b620004bd620015fc565b604051620004cc919062003331565b60405180910390f35b620004f36004803603810190620004ed91906200292c565b62001622565b604051620005029190620032f7565b60405180910390f35b6200051562001642565b005b62000521620016f2565b60405162000530919062003314565b60405180910390f35b6200054362001718565b005b6200054f620017c8565b005b6200056f60048036038101906200056991906200295e565b62001cfa565b6040516200057e919062003592565b60405180910390f35b6200059162001d2c565b005b620005b16004803603810190620005ab91906200292c565b62001ddc565b604051620005c09190620032d3565b60405180910390f35b620005e76004803603810190620005e1919062002b42565b62001e75565b604051620005f69190620031b0565b60405180910390f35b6200061d6004803603810190620006179190620029a5565b62001ec0565b005b62000629620023a6565b604051620006389190620031b0565b60405180910390f35b6200064b620023cc565b6040516200065a9190620032d3565b60405180910390f35b6000601460009054906101000a900473ffffffffffffffffffffffffffffffffffffffff1673ffffffffffffffffffffffffffffffffffffffff166370a08231306040518263ffffffff1660e01b8152600401620006c29190620031b0565b60206040518083038186803b158015620006db57600080fd5b505afa158015620006f0573d6000803e3d6000fd5b505050506040513d601f19601f8201168201806040525081019062000716919062002b74565b905090565b601060009054906101000a900473ffffffffffffffffffffffffffffffffffffffff1681565b600760159054906101000a900460ff1681565b600760009054906101000a900473ffffffffffffffffffffffffffffffffffffffff1673ffffffffffffffffffffffffffffffffffffffff163373ffffffffffffffffffffffffffffffffffffffff1614620007e7576040517f08c379a0000000000000000000000000000000000000000000000000000000008152600401620007de90620034c6565b60405180910390fd5b73__$36fdb4e0c2cb91f3ceca5ea81b025328f3$__63d2c232b5600f600d60035460026040518563ffffffff1660e01b81526004016200082b94939291906200334e565b60006040518083038186803b1580156200084457600080fd5b505af415801562000859573d6000803e3d6000fd5b50505050565b600960205281600052604060002081815481106200087c57600080fd5b90600052602060002001600091509150505481565b600760009054906101000a900473ffffffffffffffffffffffffffffffffffffffff1673ffffffffffffffffffffffffffffffffffffffff163373ffffffffffffffffffffffffffffffffffffffff161462000924576040517f08c379a00000000000000000000000000000000000000000000000000000000081526004016200091b90620034c6565b60405180910390fd5b6000600454600d805490506200093b919062003839565b905073__$36fdb4e0c2cb91f3ceca5ea81b025328f3$__63cc9b40cc600d600b600e6040518463ffffffff1660e01b81526004016200097d9392919062003237565b60006040518083038186803b1580156200099657600080fd5b505af4158015620009ab573d6000803e3d6000fd5b5050505060005b600e8054905081101562000a225762000a0c600e8281548110620009db57620009da62003b6d565b5b9060005260206000200160009054906101000a900473ffffffffffffffffffffffffffffffffffffffff1662002463565b808062000a199062003a92565b915050620009b2565b506000600e805490508262000a38919062003801565b905062000a806040518060400160405280601681526020017f4c65616775652077696e6e657273206c656e2069732000000000000000000000815250600e8054905062002500565b62000ac16040518060400160405280601681526020017f5072697a65207065722077696e6e6572206973203a20000000000000000000008152508262002500565b7f648f2405ea194f3e49fe1655279883b3474e63909ab7e4a579b051d548ad8389600e8260405162000af59291906200327b565b60405180910390a160005b600e8054905081101562000cd357601460009054906101000a900473ffffffffffffffffffffffffffffffffffffffff1673ffffffffffffffffffffffffffffffffffffffff1663095ea7b330846040518363ffffffff1660e01b815260040162000b6d9291906200320a565b602060405180830381600087803b15801562000b8857600080fd5b505af115801562000b9d573d6000803e3d6000fd5b505050506040513d601f19601f8201168201806040525081019062000bc39190620029f6565b50601460009054906101000a900473ffffffffffffffffffffffffffffffffffffffff1673ffffffffffffffffffffffffffffffffffffffff166323b872dd30600e848154811062000c1a5762000c1962003b6d565b5b9060005260206000200160009054906101000a900473ffffffffffffffffffffffffffffffffffffffff16856040518463ffffffff1660e01b815260040162000c6693929190620031cd565b602060405180830381600087803b15801562000c8157600080fd5b505af115801562000c96573d6000803e3d6000fd5b505050506040513d601f19601f8201168201806040525081019062000cbc9190620029f6565b50808062000cca9062003a92565b91505062000b00565b505050565b600760009054906101000a900473ffffffffffffffffffffffffffffffffffffffff1681565b600d818154811062000d0f57600080fd5b906000526020600020016000915054906101000a900473ffffffffffffffffffffffffffffffffffffffff1681565b6000600760159054906101000a900460ff16905090565b600b6020528060005260406000206000915090505481565b6060600f6000838152602001908152602001600020805480602002602001604051908101604052809291908181526020016000905b8282101562000e5357838290600052602060002090600202016040518060200160405290816000820160028060200260405190810160405280929190826002801562000e3a576020028201915b8160009054906101000a900473ffffffffffffffffffffffffffffffffffffffff1673ffffffffffffffffffffffffffffffffffffffff168152602001906001019080831162000def575b5050505050815250508152602001906001019062000da2565b505050509050919050565b600760009054906101000a900473ffffffffffffffffffffffffffffffffffffffff1673ffffffffffffffffffffffffffffffffffffffff163373ffffffffffffffffffffffffffffffffffffffff161462000ef1576040517f08c379a000000000000000000000000000000000000000000000000000000000815260040162000ee890620034c6565b60405180910390fd5b73__$36fdb4e0c2cb91f3ceca5ea81b025328f3$__63c930f4bc600554601160009054906101000a900473ffffffffffffffffffffffffffffffffffffffff166009600a600b600f6040518763ffffffff1660e01b815260040162000f5c96959493929190620035af565b60006040518083038186803b15801562000f7557600080fd5b505af415801562000f8a573d6000803e3d6000fd5b50505050600160035462000f9f91906200389a565b600554141562000fb95762000fb362000891565b62000fd4565b6005600081548092919062000fce9062003a92565b91905055505b565b600060019054906101000a900460ff16620010005760008054906101000a900460ff16156200100b565b6200100a620025a0565b5b6200104d576040517f08c379a0000000000000000000000000000000000000000000000000000000008152600401620010449062003482565b60405180910390fd5b60008060019054906101000a900460ff1615905080156200109e576001600060016101000a81548160ff02191690831515021790555060016000806101000a81548160ff0219169083151502179055505b8b8b60029190620010b19291906200269c565b50600860038190555086600660006101000a81548173ffffffffffffffffffffffffffffffffffffffff021916908373ffffffffffffffffffffffffffffffffffffffff160217905550896004819055506000600760146101000a81548160ff0219169083151502179055506000600760156101000a81548160ff02191690831515021790555087601160006101000a81548173ffffffffffffffffffffffffffffffffffffffff021916908373ffffffffffffffffffffffffffffffffffffffff16021790555081601360006101000a81548173ffffffffffffffffffffffffffffffffffffffff021916908373ffffffffffffffffffffffffffffffffffffffff16021790555088604051620011c9906200272d565b620011d59190620032f7565b604051809103906000f080158015620011f2573d6000803e3d6000fd5b50601260006101000a81548173ffffffffffffffffffffffffffffffffffffffff021916908373ffffffffffffffffffffffffffffffffffffffff16021790555085601460006101000a81548173ffffffffffffffffffffffffffffffffffffffff021916908373ffffffffffffffffffffffffffffffffffffffff16021790555082600760006101000a81548173ffffffffffffffffffffffffffffffffffffffff021916908373ffffffffffffffffffffffffffffffffffffffff16021790555083601560006101000a81548173ffffffffffffffffffffffffffffffffffffffff021916908373ffffffffffffffffffffffffffffffffffffffff160217905550620013366040518060400160405280601281526020017f50726f787920696e697469616c697a6564210000000000000000000000000000815250620025b3565b8015620013585760008060016101000a81548160ff0219169083151502179055505b505050505050505050505050565b60055481565b60045481565b600760149054906101000a900460ff1681565b600660009054906101000a900473ffffffffffffffffffffffffffffffffffffffff1673ffffffffffffffffffffffffffffffffffffffff163373ffffffffffffffffffffffffffffffffffffffff161462001418576040517f08c379a00000000000000000000000000000000000000000000000000000000081526004016200140f90620034a4565b60405180910390fd5b601260009054906101000a900473ffffffffffffffffffffffffffffffffffffffff1673ffffffffffffffffffffffffffffffffffffffff16637b9417c8826040518263ffffffff1660e01b8152600401620014759190620031b0565b602060405180830381600087803b1580156200149057600080fd5b505af1158015620014a5573d6000803e3d6000fd5b505050506040513d601f19601f82011682018060405250810190620014cb9190620029f6565b50601360009054906101000a900473ffffffffffffffffffffffffffffffffffffffff1673ffffffffffffffffffffffffffffffffffffffff1663771bd4ce826040518263ffffffff1660e01b8152600401620015299190620031b0565b600060405180830381600087803b1580156200154457600080fd5b505af115801562001559573d6000803e3d6000fd5b5050505050565b60035481565b60028054620015759062003a08565b80601f0160208091040260200160405190810160405280929190818152602001828054620015a39062003a08565b8015620015f45780601f10620015c857610100808354040283529160200191620015f4565b820191906000526020600020905b815481529060010190602001808311620015d657829003601f168201915b505050505081565b601260009054906101000a900473ffffffffffffffffffffffffffffffffffffffff1681565b600c6020528060005260406000206000915054906101000a900460ff1681565b600760009054906101000a900473ffffffffffffffffffffffffffffffffffffffff1673ffffffffffffffffffffffffffffffffffffffff163373ffffffffffffffffffffffffffffffffffffffff1614620016d5576040517f08c379a0000000000000000000000000000000000000000000000000000000008152600401620016cc90620034c6565b60405180910390fd5b6000600760156101000a81548160ff021916908315150217905550565b601460009054906101000a900473ffffffffffffffffffffffffffffffffffffffff1681565b600760009054906101000a900473ffffffffffffffffffffffffffffffffffffffff1673ffffffffffffffffffffffffffffffffffffffff163373ffffffffffffffffffffffffffffffffffffffff1614620017ab576040517f08c379a0000000000000000000000000000000000000000000000000000000008152600401620017a290620034c6565b60405180910390fd5b6001600760156101000a81548160ff021916908315150217905550565b6002600154141562001811576040517f08c379a000000000000000000000000000000000000000000000000000000000815260040162001808906200354e565b60405180910390fd5b6002600181905550601260009054906101000a900473ffffffffffffffffffffffffffffffffffffffff1673ffffffffffffffffffffffffffffffffffffffff16639b19251a336040518263ffffffff1660e01b8152600401620018769190620031b0565b60206040518083038186803b1580156200188f57600080fd5b505afa158015620018a4573d6000803e3d6000fd5b505050506040513d601f19601f82011682018060405250810190620018ca9190620029f6565b80620019235750600660009054906101000a900473ffffffffffffffffffffffffffffffffffffffff1673ffffffffffffffffffffffffffffffffffffffff163373ffffffffffffffffffffffffffffffffffffffff16145b62001965576040517f08c379a00000000000000000000000000000000000000000000000000000000081526004016200195c906200350a565b60405180910390fd5b600760149054906101000a900460ff1615620019b8576040517f08c379a0000000000000000000000000000000000000000000000000000000008152600401620019af9062003570565b60405180910390fd5b600c60003373ffffffffffffffffffffffffffffffffffffffff1673ffffffffffffffffffffffffffffffffffffffff16815260200190815260200160002060009054906101000a900460ff161562001a48576040517f08c379a000000000000000000000000000000000000000000000000000000000815260040162001a3f906200341c565b60405180910390fd5b600454601460009054906101000a900473ffffffffffffffffffffffffffffffffffffffff1673ffffffffffffffffffffffffffffffffffffffff166370a08231336040518263ffffffff1660e01b815260040162001aa89190620031b0565b60206040518083038186803b15801562001ac157600080fd5b505afa15801562001ad6573d6000803e3d6000fd5b505050506040513d601f19601f8201168201806040525081019062001afc919062002b74565b1162001b3f576040517f08c379a000000000000000000000000000000000000000000000000000000000815260040162001b3690620033fa565b60405180910390fd5b6001600c60003373ffffffffffffffffffffffffffffffffffffffff1673ffffffffffffffffffffffffffffffffffffffff16815260200190815260200160002060006101000a81548160ff021916908315150217905550600d339080600181540180825580915050600190039060005260206000200160009091909190916101000a81548173ffffffffffffffffffffffffffffffffffffffff021916908373ffffffffffffffffffffffffffffffffffffffff160217905550601460009054906101000a900473ffffffffffffffffffffffffffffffffffffffff1673ffffffffffffffffffffffffffffffffffffffff166323b872dd33306004546040518463ffffffff1660e01b815260040162001c5d93929190620031cd565b602060405180830381600087803b15801562001c7857600080fd5b505af115801562001c8d573d6000803e3d6000fd5b505050506040513d601f19601f8201168201806040525081019062001cb39190620029f6565b507f9e71bc8eea02a63969f509818f2dafb9254532904319f9dbda79b67bd34a5f3d3360045460405162001ce99291906200320a565b60405180910390a160018081905550565b600a602052816000526040600020818154811062001d1757600080fd5b90600052602060002001600091509150505481565b600760009054906101000a900473ffffffffffffffffffffffffffffffffffffffff1673ffffffffffffffffffffffffffffffffffffffff163373ffffffffffffffffffffffffffffffffffffffff161462001dbf576040517f08c379a000000000000000000000000000000000000000000000000000000000815260040162001db690620034c6565b60405180910390fd5b6001600760146101000a81548160ff021916908315150217905550565b6060600a60008373ffffffffffffffffffffffffffffffffffffffff1673ffffffffffffffffffffffffffffffffffffffff16815260200190815260200160002080548060200260200160405190810160405280929190818152602001828054801562001e6957602002820191906000526020600020905b81548152602001906001019080831162001e54575b50505050509050919050565b6000600d828154811062001e8e5762001e8d62003b6d565b5b9060005260206000200160009054906101000a900473ffffffffffffffffffffffffffffffffffffffff169050919050565b600760159054906101000a900460ff161562001f13576040517f08c379a000000000000000000000000000000000000000000000000000000000815260040162001f0a9062003460565b60405180910390fd5b600c60003373ffffffffffffffffffffffffffffffffffffffff1673ffffffffffffffffffffffffffffffffffffffff16815260200190815260200160002060009054906101000a900460ff1662001fa2576040517f08c379a000000000000000000000000000000000000000000000000000000000815260040162001f9990620034e8565b60405180910390fd5b60005b600a60003373ffffffffffffffffffffffffffffffffffffffff1673ffffffffffffffffffffffffffffffffffffffff16815260200190815260200160002080549050811015620020a75760086000600a60003373ffffffffffffffffffffffffffffffffffffffff1673ffffffffffffffffffffffffffffffffffffffff168152602001908152602001600020838154811062002048576200204762003b6d565b5b906000526020600020015481526020019081526020016000206005546008811062002078576200207762003b6d565b5b0160008154809291906200208c90620039d9565b919050555080806200209e9062003a92565b91505062001fa5565b5060005b81518110156200212b5760086000838381518110620020cf57620020ce62003b6d565b5b6020026020010151815260200190815260200160002060055460088110620020fc57620020fb62003b6d565b5b016000815480929190620021109062003a92565b91905055508080620021229062003a92565b915050620020ab565b5060005b815181101562002263576000601560009054906101000a900473ffffffffffffffffffffffffffffffffffffffff1673ffffffffffffffffffffffffffffffffffffffff1662fdd58e338585815181106200218f576200218e62003b6d565b5b60200260200101516040518363ffffffff1660e01b8152600401620021b69291906200320a565b60206040518083038186803b158015620021cf57600080fd5b505afa158015620021e4573d6000803e3d6000fd5b505050506040513d601f19601f820116820180604052508101906200220a919062002b74565b116200224d576040517f08c379a000000000000000000000000000000000000000000000000000000000815260040162002244906200352c565b60405180910390fd5b80806200225a9062003a92565b9150506200212f565b5060005b81518110156200234c57600a8162002280919062003839565b82828151811062002296576200229562003b6d565b5b602002602001015110158015620022f457506001600a600183620022bb9190620037a4565b620022c7919062003839565b620022d391906200389a565b828281518110620022e957620022e862003b6d565b5b602002602001015111155b62002336576040517f08c379a00000000000000000000000000000000000000000000000000000000081526004016200232d906200343e565b60405180910390fd5b8080620023439062003a92565b91505062002267565b5080600a60003373ffffffffffffffffffffffffffffffffffffffff1673ffffffffffffffffffffffffffffffffffffffff1681526020019081526020016000209080519060200190620023a29291906200273b565b5050565b600660009054906101000a900473ffffffffffffffffffffffffffffffffffffffff1681565b6060600960003373ffffffffffffffffffffffffffffffffffffffff1673ffffffffffffffffffffffffffffffffffffffff1681526020019081526020016000208054806020026020016040519081016040528092919081815260200182805480156200245957602002820191906000526020600020905b81548152602001906001019080831162002444575b5050505050905090565b620024fd816040516024016200247a9190620031b0565b6040516020818303038152906040527f2c2ecbc2000000000000000000000000000000000000000000000000000000007bffffffffffffffffffffffffffffffffffffffffffffffffffffffff19166020820180517bffffffffffffffffffffffffffffffffffffffffffffffffffffffff838183161783525050505062002650565b50565b6200259c828260405160240162002519929190620033c6565b6040516020818303038152906040527f9710a9d0000000000000000000000000000000000000000000000000000000007bffffffffffffffffffffffffffffffffffffffffffffffffffffffff19166020820180517bffffffffffffffffffffffffffffffffffffffffffffffffffffffff838183161783525050505062002650565b5050565b6000620025ad3062002679565b15905090565b6200264d81604051602401620025ca9190620033a2565b6040516020818303038152906040527f41304fac000000000000000000000000000000000000000000000000000000007bffffffffffffffffffffffffffffffffffffffffffffffffffffffff19166020820180517bffffffffffffffffffffffffffffffffffffffffffffffffffffffff838183161783525050505062002650565b50565b60008151905060006a636f6e736f6c652e6c6f679050602083016000808483855afa5050505050565b6000808273ffffffffffffffffffffffffffffffffffffffff163b119050919050565b828054620026aa9062003a08565b90600052602060002090601f016020900481019282620026ce57600085556200271a565b82601f10620026e957803560ff19168380011785556200271a565b828001600101855582156200271a579182015b8281111562002719578235825591602001919060010190620026fc565b5b5090506200272991906200278d565b5090565b6111148062003eea83390190565b8280548282559060005260206000209081019282156200277a579160200282015b82811115620027795782518255916020019190600101906200275c565b5b5090506200278991906200278d565b5090565b5b80821115620027a85760008160009055506001016200278e565b5090565b6000620027c3620027bd8462003645565b6200361c565b90508083825260208201905082856020860282011115620027e957620027e862003bea565b5b60005b858110156200281d5781620028028882620028fe565b845260208401935060208301925050600181019050620027ec565b5050509392505050565b600081359050620028388162003e9b565b92915050565b600082601f83011262002856576200285562003be5565b5b813562002868848260208601620027ac565b91505092915050565b600081359050620028828162003eb5565b92915050565b600081519050620028998162003eb5565b92915050565b60008083601f840112620028b857620028b762003be5565b5b8235905067ffffffffffffffff811115620028d857620028d762003be0565b5b602083019150836001820283011115620028f757620028f662003bea565b5b9250929050565b6000813590506200290f8162003ecf565b92915050565b600081519050620029268162003ecf565b92915050565b60006020828403121562002945576200294462003bf4565b5b6000620029558482850162002827565b91505092915050565b6000806040838503121562002978576200297762003bf4565b5b6000620029888582860162002827565b92505060206200299b85828601620028fe565b9150509250929050565b600060208284031215620029be57620029bd62003bf4565b5b600082013567ffffffffffffffff811115620029df57620029de62003bef565b5b620029ed848285016200283e565b91505092915050565b60006020828403121562002a0f5762002a0e62003bf4565b5b600062002a1f8482850162002888565b91505092915050565b60008060008060008060008060008060006101408c8e03121562002a515762002a5062003bf4565b5b60008c013567ffffffffffffffff81111562002a725762002a7162003bef565b5b62002a808e828f016200289f565b9b509b5050602062002a958e828f01620028fe565b995050604062002aa88e828f0162002871565b985050606062002abb8e828f0162002827565b975050608062002ace8e828f0162002827565b96505060a062002ae18e828f0162002827565b95505060c062002af48e828f0162002827565b94505060e062002b078e828f0162002827565b93505061010062002b1b8e828f0162002827565b92505061012062002b2f8e828f0162002827565b9150509295989b509295989b9093969950565b60006020828403121562002b5b5762002b5a62003bf4565b5b600062002b6b84828501620028fe565b91505092915050565b60006020828403121562002b8d5762002b8c62003bf4565b5b600062002b9d8482850162002915565b91505092915050565b600062002bb4838362002c0e565b60208301905092915050565b600062002bce838362002c30565b60208301905092915050565b600062002be883836200315f565b60408301905092915050565b600062002c0283836200317d565b60208301905092915050565b62002c1981620038f5565b82525050565b62002c2a81620038f5565b82525050565b62002c3b81620038f5565b82525050565b62002c4c81620036c8565b62002c58818462003733565b925062002c658262003674565b8060005b8381101562002c9c57815162002c80878262002ba6565b965062002c8d83620036ff565b92505060018101905062002c69565b505050505050565b600062002cb182620036d3565b62002cbd81856200373e565b935062002cca836200367e565b8060005b8381101562002d0a5762002ce28262003bcb565b62002cee888262002ba6565b975062002cfb836200370c565b92505060018101905062002cce565b5085935050505092915050565b600062002d2482620036d3565b62002d3081856200374f565b935062002d3d836200367e565b8060005b8381101562002d7d5762002d558262003bcb565b62002d61888262002bc0565b975062002d6e836200370c565b92505060018101905062002d41565b5085935050505092915050565b8082525050565b600062002d9e82620036de565b62002daa818562003760565b935062002db78362003693565b8060005b8381101562002dee57815162002dd2888262002bda565b975062002ddf8362003719565b92505060018101905062002dbb565b5085935050505092915050565b600062002e0882620036e9565b62002e14818562003771565b935062002e2183620036a3565b8060005b8381101562002e5857815162002e3c888262002bf4565b975062002e498362003726565b92505060018101905062002e25565b5085935050505092915050565b62002e708162003909565b82525050565b62002e81816200393f565b82525050565b62002e928162003953565b82525050565b62002ea38162003967565b82525050565b8082525050565b8082525050565b8082525050565b600062002ecb82620036f4565b62002ed7818562003782565b935062002ee9818560208601620039a3565b62002ef48162003bf9565b840191505092915050565b6000815462002f0e8162003a08565b62002f1a818662003793565b9450600182166000811462002f38576001811462002f4b5762002f82565b60ff198316865260208601935062002f82565b62002f5685620036b3565b60005b8381101562002f7a5781548189015260018201915060208101905062002f59565b808801955050505b50505092915050565b600062002f9a601d8362003782565b915062002fa78262003c17565b602082019050919050565b600062002fc160238362003782565b915062002fce8262003c40565b604082019050919050565b600062002fe860318362003782565b915062002ff58262003c8f565b604082019050919050565b60006200300f601e8362003782565b91506200301c8262003cde565b602082019050919050565b600062003036602e8362003782565b9150620030438262003d07565b604082019050919050565b60006200305d60178362003782565b91506200306a8262003d56565b602082019050919050565b60006200308460168362003782565b9150620030918262003d7f565b602082019050919050565b6000620030ab60168362003782565b9150620030b88262003da8565b602082019050919050565b6000620030d2601c8362003782565b9150620030df8262003dd1565b602082019050919050565b6000620030f960248362003782565b9150620031068262003dfa565b604082019050919050565b600062003120601f8362003782565b91506200312d8262003e49565b602082019050919050565b60006200314760178362003782565b9150620031548262003e72565b602082019050919050565b60408201600082015162003177600085018262002c41565b50505050565b620031888162003935565b82525050565b620031998162003935565b82525050565b620031aa8162003935565b82525050565b6000602082019050620031c7600083018462002c1f565b92915050565b6000606082019050620031e4600083018662002c1f565b620031f3602083018562002c1f565b6200320260408301846200318e565b949350505050565b600060408201905062003221600083018562002c1f565b6200323060208301846200318e565b9392505050565b6000606082019050818103600083015262003253818662002d17565b905062003264602083018562002eb0565b62003273604083018462002d8a565b949350505050565b6000604082019050818103600083015262003297818562002ca4565b9050620032a860208301846200318e565b9392505050565b60006020820190508181036000830152620032cb818462002d91565b905092915050565b60006020820190508181036000830152620032ef818462002dfb565b905092915050565b60006020820190506200330e600083018462002e65565b92915050565b60006020820190506200332b600083018462002e87565b92915050565b600060208201905062003348600083018462002e98565b92915050565b600060808201905062003365600083018762002eb7565b62003374602083018662002d8a565b6200338360408301856200319f565b818103606083015262003397818462002eff565b905095945050505050565b60006020820190508181036000830152620033be818462002ebe565b905092915050565b60006040820190508181036000830152620033e2818562002ebe565b9050620033f360208301846200318e565b9392505050565b60006020820190508181036000830152620034158162002f8b565b9050919050565b60006020820190508181036000830152620034378162002fb2565b9050919050565b60006020820190508181036000830152620034598162002fd9565b9050919050565b600060208201905081810360008301526200347b8162003000565b9050919050565b600060208201905081810360008301526200349d8162003027565b9050919050565b60006020820190508181036000830152620034bf816200304e565b9050919050565b60006020820190508181036000830152620034e18162003075565b9050919050565b6000602082019050818103600083015262003503816200309c565b9050919050565b600060208201905081810360008301526200352581620030c3565b9050919050565b600060208201905081810360008301526200354781620030ea565b9050919050565b60006020820190508181036000830152620035698162003111565b9050919050565b600060208201905081810360008301526200358b8162003138565b9050919050565b6000602082019050620035a960008301846200318e565b92915050565b600060c082019050620035c660008301896200319f565b620035d5602083018862002e76565b620035e4604083018762002ea9565b620035f3606083018662002ea9565b62003602608083018562002eb0565b6200361160a083018462002eb7565b979650505050505050565b6000620036286200363b565b905062003636828262003a5c565b919050565b6000604051905090565b600067ffffffffffffffff82111562003663576200366262003b9c565b5b602082029050602081019050919050565b6000819050919050565b60008190508160005260206000209050919050565b6000819050602082019050919050565b6000819050602082019050919050565b60008190508160005260206000209050919050565b600060029050919050565b600081549050919050565b600081519050919050565b600081519050919050565b600081519050919050565b6000602082019050919050565b6000600182019050919050565b6000602082019050919050565b6000602082019050919050565b600081905092915050565b600082825260208201905092915050565b600082825260208201905092915050565b600082825260208201905092915050565b600082825260208201905092915050565b600082825260208201905092915050565b600082825260208201905092915050565b6000620037b18262003935565b9150620037be8362003935565b9250827fffffffffffffffffffffffffffffffffffffffffffffffffffffffffffffffff03821115620037f657620037f562003ae0565b5b828201905092915050565b60006200380e8262003935565b91506200381b8362003935565b9250826200382e576200382d62003b0f565b5b828204905092915050565b6000620038468262003935565b9150620038538362003935565b9250817fffffffffffffffffffffffffffffffffffffffffffffffffffffffffffffffff04831182151516156200388f576200388e62003ae0565b5b828202905092915050565b6000620038a78262003935565b9150620038b48362003935565b925082821015620038ca57620038c962003ae0565b5b828203905092915050565b600073ffffffffffffffffffffffffffffffffffffffff82169050919050565b6000620039028262003915565b9050919050565b60008115159050919050565b600073ffffffffffffffffffffffffffffffffffffffff82169050919050565b6000819050919050565b60006200394c826200397b565b9050919050565b600062003960826200397b565b9050919050565b600062003974826200397b565b9050919050565b600062003988826200398f565b9050919050565b60006200399c8262003915565b9050919050565b60005b83811015620039c3578082015181840152602081019050620039a6565b83811115620039d3576000848401525b50505050565b6000620039e68262003935565b91506000821415620039fd57620039fc62003ae0565b5b600182039050919050565b6000600282049050600182168062003a2157607f821691505b6020821081141562003a385762003a3762003b3e565b5b50919050565b600062003a5562003a4f8362003c0a565b620038d5565b9050919050565b62003a678262003bf9565b810181811067ffffffffffffffff8211171562003a895762003a8862003b9c565b5b80604052505050565b600062003a9f8262003935565b91507fffffffffffffffffffffffffffffffffffffffffffffffffffffffffffffffff82141562003ad55762003ad462003ae0565b5b600182019050919050565b7f4e487b7100000000000000000000000000000000000000000000000000000000600052601160045260246000fd5b7f4e487b7100000000000000000000000000000000000000000000000000000000600052601260045260246000fd5b7f4e487b7100000000000000000000000000000000000000000000000000000000600052602260045260246000fd5b7f4e487b7100000000000000000000000000000000000000000000000000000000600052603260045260246000fd5b7f4e487b7100000000000000000000000000000000000000000000000000000000600052604160045260246000fd5b600062003bd9825462003a3e565b9050919050565b600080fd5b600080fd5b600080fd5b600080fd5b600080fd5b6000601f19601f8301169050919050565b60008160001c9050919050565b7f496e737566666963656e742066756e647320666f72207374616b696e67000000600082015250565b7f596f75206861766520616c7265616479206a6f696e65642074686973206c656160008201527f6775650000000000000000000000000000000000000000000000000000000000602082015250565b7f596f75206172652073657474696e6720616e206174686c65746520696e20746860008201527f652077726f6e6720706f736974696f6e21000000000000000000000000000000602082015250565b7f6c696e657570206973206c6f636b656420666f7220746865207765656b210000600082015250565b7f496e697469616c697a61626c653a20636f6e747261637420697320616c72656160008201527f647920696e697469616c697a6564000000000000000000000000000000000000602082015250565b7f43616c6c6572206973206e6f74207468652061646d696e000000000000000000600082015250565b7f43616c6c6572206973206e6f74205465616d4469666600000000000000000000600082015250565b7f55736572206973206e6f7420696e204c65616775652e00000000000000000000600082015250565b7f55736572206973206e6f74206f6e2077686974656c6973742062726f00000000600082015250565b7f43616c6c657220646f6573206e6f74206f776e20676976656e206174686c657460008201527f6549647300000000000000000000000000000000000000000000000000000000602082015250565b7f5265656e7472616e637947756172643a207265656e7472616e742063616c6c00600082015250565b7f4c656167756520456e74727920697320436c6f73656421000000000000000000600082015250565b62003ea681620038f5565b811462003eb257600080fd5b50565b62003ec08162003909565b811462003ecc57600080fd5b50565b62003eda8162003935565b811462003ee657600080fd5b5056fe60806040523480156200001157600080fd5b50604051620011143803806200111483398181016040528101906200003791906200015b565b620000576200004b6200007860201b60201c565b6200008060201b60201c565b80600360006101000a81548160ff02191690831515021790555050620001b8565b600033905090565b60008060009054906101000a900473ffffffffffffffffffffffffffffffffffffffff169050816000806101000a81548173ffffffffffffffffffffffffffffffffffffffff021916908373ffffffffffffffffffffffffffffffffffffffff1602179055508173ffffffffffffffffffffffffffffffffffffffff168173ffffffffffffffffffffffffffffffffffffffff167f8be0079c531659141344cd1fd0a4f28419497f9722a3daafe3b4186f6b6457e060405160405180910390a35050565b60008151905062000155816200019e565b92915050565b60006020828403121562000174576200017362000199565b5b6000620001848482850162000144565b91505092915050565b60008115159050919050565b600080fd5b620001a9816200018d565b8114620001b557600080fd5b50565b610f4c80620001c86000396000f3fe608060405234801561001057600080fd5b50600436106100a95760003560e01c80638da5cb5b116100715780638da5cb5b146101665780639b19251a14610184578063dc9a1535146101b4578063e2ec6ec3146101d2578063e35a899914610202578063f2fde38b14610232576100a9565b806324953eaa146100ae578063286dd3f5146100de57806344eaa84e1461010e578063715018a61461012c5780637b9417c814610136575b600080fd5b6100c860048036038101906100c39190610ada565b61024e565b6040516100d59190610bb1565b60405180910390f35b6100f860048036038101906100f39190610aad565b61031e565b6040516101059190610bb1565b60405180910390f35b6101166104a1565b6040516101239190610c0c565b60405180910390f35b6101346104ab565b005b610150600480360381019061014b9190610aad565b610533565b60405161015d9190610bb1565b60405180910390f35b61016e6106b4565b60405161017b9190610b96565b60405180910390f35b61019e60048036038101906101999190610aad565b6106dd565b6040516101ab9190610bb1565b60405180910390f35b6101bc6106fd565b6040516101c99190610bb1565b60405180910390f35b6101ec60048036038101906101e79190610ada565b610710565b6040516101f99190610bb1565b60405180910390f35b61021c60048036038101906102179190610aad565b6107e0565b6040516102299190610bb1565b60405180910390f35b61024c60048036038101906102479190610aad565b610836565b005b600061025861092e565b73ffffffffffffffffffffffffffffffffffffffff166102766106b4565b73ffffffffffffffffffffffffffffffffffffffff16146102cc576040517f08c379a00000000000000000000000000000000000000000000000000000000081526004016102c390610bec565b60405180910390fd5b60005b8251811015610318576102fb8382815181106102ee576102ed610e04565b5b602002602001015161031e565b1561030557600191505b808061031090610d8c565b9150506102cf565b50919050565b600061032861092e565b73ffffffffffffffffffffffffffffffffffffffff166103466106b4565b73ffffffffffffffffffffffffffffffffffffffff161461039c576040517f08c379a000000000000000000000000000000000000000000000000000000000815260040161039390610bec565b60405180910390fd5b600160008373ffffffffffffffffffffffffffffffffffffffff1673ffffffffffffffffffffffffffffffffffffffff16815260200190815260200160002060009054906101000a900460ff161561049c576000600160008473ffffffffffffffffffffffffffffffffffffffff1673ffffffffffffffffffffffffffffffffffffffff16815260200190815260200160002060006101000a81548160ff0219169083151502179055507ff1abf01a1043b7c244d128e8595cf0c1d10743b022b03a02dffd8ca3bf729f5a826040516104759190610b96565b60405180910390a16001600260008282546104909190610cdf565b92505081905550600190505b919050565b6000600254905090565b6104b361092e565b73ffffffffffffffffffffffffffffffffffffffff166104d16106b4565b73ffffffffffffffffffffffffffffffffffffffff1614610527576040517f08c379a000000000000000000000000000000000000000000000000000000000815260040161051e90610bec565b60405180910390fd5b6105316000610936565b565b600061053d61092e565b73ffffffffffffffffffffffffffffffffffffffff1661055b6106b4565b73ffffffffffffffffffffffffffffffffffffffff16146105b1576040517f08c379a00000000000000000000000000000000000000000000000000000000081526004016105a890610bec565b60405180910390fd5b600160008373ffffffffffffffffffffffffffffffffffffffff1673ffffffffffffffffffffffffffffffffffffffff16815260200190815260200160002060009054906101000a900460ff166106af5760018060008473ffffffffffffffffffffffffffffffffffffffff1673ffffffffffffffffffffffffffffffffffffffff16815260200190815260200160002060006101000a81548160ff0219169083151502179055507fd1bba68c128cc3f427e5831b3c6f99f480b6efa6b9e80c757768f6124158cc3f826040516106889190610b96565b60405180910390a16001600260008282546106a39190610c89565b92505081905550600190505b919050565b60008060009054906101000a900473ffffffffffffffffffffffffffffffffffffffff16905090565b60016020528060005260406000206000915054906101000a900460ff1681565b600360009054906101000a900460ff1681565b600061071a61092e565b73ffffffffffffffffffffffffffffffffffffffff166107386106b4565b73ffffffffffffffffffffffffffffffffffffffff161461078e576040517f08c379a000000000000000000000000000000000000000000000000000000000815260040161078590610bec565b60405180910390fd5b60005b82518110156107da576107bd8382815181106107b0576107af610e04565b5b6020026020010151610533565b156107c757600191505b80806107d290610d8c565b915050610791565b50919050565b6000600160008373ffffffffffffffffffffffffffffffffffffffff1673ffffffffffffffffffffffffffffffffffffffff16815260200190815260200160002060009054906101000a900460ff169050919050565b61083e61092e565b73ffffffffffffffffffffffffffffffffffffffff1661085c6106b4565b73ffffffffffffffffffffffffffffffffffffffff16146108b2576040517f08c379a00000000000000000000000000000000000000000000000000000000081526004016108a990610bec565b60405180910390fd5b600073ffffffffffffffffffffffffffffffffffffffff168173ffffffffffffffffffffffffffffffffffffffff161415610922576040517f08c379a000000000000000000000000000000000000000000000000000000000815260040161091990610bcc565b60405180910390fd5b61092b81610936565b50565b600033905090565b60008060009054906101000a900473ffffffffffffffffffffffffffffffffffffffff169050816000806101000a81548173ffffffffffffffffffffffffffffffffffffffff021916908373ffffffffffffffffffffffffffffffffffffffff1602179055508173ffffffffffffffffffffffffffffffffffffffff168173ffffffffffffffffffffffffffffffffffffffff167f8be0079c531659141344cd1fd0a4f28419497f9722a3daafe3b4186f6b6457e060405160405180910390a35050565b6000610a0d610a0884610c4c565b610c27565b90508083825260208201905082856020860282011115610a3057610a2f610e67565b5b60005b85811015610a605781610a468882610a6a565b845260208401935060208301925050600181019050610a33565b5050509392505050565b600081359050610a7981610eff565b92915050565b600082601f830112610a9457610a93610e62565b5b8135610aa48482602086016109fa565b91505092915050565b600060208284031215610ac357610ac2610e71565b5b6000610ad184828501610a6a565b91505092915050565b600060208284031215610af057610aef610e71565b5b600082013567ffffffffffffffff811115610b0e57610b0d610e6c565b5b610b1a84828501610a7f565b91505092915050565b610b2c81610d13565b82525050565b610b3b81610d25565b82525050565b6000610b4e602683610c78565b9150610b5982610e87565b604082019050919050565b6000610b71602083610c78565b9150610b7c82610ed6565b602082019050919050565b610b9081610d51565b82525050565b6000602082019050610bab6000830184610b23565b92915050565b6000602082019050610bc66000830184610b32565b92915050565b60006020820190508181036000830152610be581610b41565b9050919050565b60006020820190508181036000830152610c0581610b64565b9050919050565b6000602082019050610c216000830184610b87565b92915050565b6000610c31610c42565b9050610c3d8282610d5b565b919050565b6000604051905090565b600067ffffffffffffffff821115610c6757610c66610e33565b5b602082029050602081019050919050565b600082825260208201905092915050565b6000610c9482610d51565b9150610c9f83610d51565b9250827fffffffffffffffffffffffffffffffffffffffffffffffffffffffffffffffff03821115610cd457610cd3610dd5565b5b828201905092915050565b6000610cea82610d51565b9150610cf583610d51565b925082821015610d0857610d07610dd5565b5b828203905092915050565b6000610d1e82610d31565b9050919050565b60008115159050919050565b600073ffffffffffffffffffffffffffffffffffffffff82169050919050565b6000819050919050565b610d6482610e76565b810181811067ffffffffffffffff82111715610d8357610d82610e33565b5b80604052505050565b6000610d9782610d51565b91507fffffffffffffffffffffffffffffffffffffffffffffffffffffffffffffffff821415610dca57610dc9610dd5565b5b600182019050919050565b7f4e487b7100000000000000000000000000000000000000000000000000000000600052601160045260246000fd5b7f4e487b7100000000000000000000000000000000000000000000000000000000600052603260045260246000fd5b7f4e487b7100000000000000000000000000000000000000000000000000000000600052604160045260246000fd5b600080fd5b600080fd5b600080fd5b600080fd5b6000601f19601f8301169050919050565b7f4f776e61626c653a206e6577206f776e657220697320746865207a65726f206160008201527f6464726573730000000000000000000000000000000000000000000000000000602082015250565b7f4f776e61626c653a2063616c6c6572206973206e6f7420746865206f776e6572600082015250565b610f0881610d13565b8114610f1357600080fd5b5056fea2646970667358221220d9b559c67c9c95c9212a7622f5c7dc9fab9234f044c42f52ae92caa64e6b8af364736f6c63430008070033a264697066735822122043634dcc8c2c91c4001ad88febe7840b3c09440c310c4f3df8cc2f2eb58d9d2664736f6c63430008070033",
  "linkReferences": {
    "contracts/MOBALogicLibrary.sol": {
      "MOBALogicLibrary": [
        {
          "length": 20,
          "start": 2064
        },
        {
          "length": 20,
          "start": 2406
        },
        {
          "length": 20,
          "start": 3866
        }
      ]
    }
  },
  "deployedLinkReferences": {
    "contracts/MOBALogicLibrary.sol": {
      "MOBALogicLibrary": [
        {
          "length": 20,
          "start": 2025
        },
        {
          "length": 20,
          "start": 2367
        },
        {
          "length": 20,
          "start": 3827
        }
      ]
    }
  }
}