{
  "_format": "hh-sol-artifact-1",
  "contractName": "LeagueOfLegendsLogic",
  "sourceName": "contracts/LeagueOfLegendsLogic.sol",
  "abi": [
    {
      "anonymous": false,
      "inputs": [
        {
          "indexed": true,
          "internalType": "address",
          "name": "previousOwner",
          "type": "address"
        },
        {
          "indexed": true,
          "internalType": "address",
          "name": "newOwner",
          "type": "address"
        }
      ],
      "name": "OwnershipTransferred",
      "type": "event"
    },
    {
      "anonymous": false,
      "inputs": [
        {
          "indexed": false,
          "internalType": "address",
          "name": "sender",
          "type": "address"
        },
        {
          "indexed": false,
          "internalType": "uint256",
          "name": "amount",
          "type": "uint256"
        }
      ],
      "name": "Staked",
      "type": "event"
    },
    {
      "anonymous": false,
      "inputs": [
        {
          "indexed": false,
          "internalType": "address",
          "name": "addr",
          "type": "address"
        }
      ],
      "name": "WhitelistedAddressAdded",
      "type": "event"
    },
    {
      "anonymous": false,
      "inputs": [
        {
          "indexed": false,
          "internalType": "address",
          "name": "addr",
          "type": "address"
        }
      ],
      "name": "WhitelistedAddressRemoved",
      "type": "event"
    },
    {
      "anonymous": false,
      "inputs": [
        {
          "indexed": false,
          "internalType": "address[]",
          "name": "winner",
          "type": "address[]"
        },
        {
          "indexed": false,
          "internalType": "uint256",
          "name": "prizePotPerWinner",
          "type": "uint256"
        }
      ],
      "name": "leagueEnded",
      "type": "event"
    },
    {
      "anonymous": false,
      "inputs": [
        {
          "indexed": false,
          "internalType": "address",
          "name": "sender",
          "type": "address"
        },
        {
          "indexed": false,
          "internalType": "address",
          "name": "contractAddress",
          "type": "address"
        }
      ],
      "name": "testUSDCDeployed",
      "type": "event"
    },
    {
      "inputs": [
        {
          "internalType": "address",
          "name": "addr",
          "type": "address"
        }
      ],
      "name": "addAddressToWhitelist",
      "outputs": [
        {
          "internalType": "bool",
          "name": "success",
          "type": "bool"
        }
      ],
      "stateMutability": "nonpayable",
      "type": "function"
    },
    {
      "inputs": [
        {
          "internalType": "address[]",
          "name": "addrs",
          "type": "address[]"
        }
      ],
      "name": "addAddressesToWhitelist",
      "outputs": [
        {
          "internalType": "bool",
          "name": "success",
          "type": "bool"
        }
      ],
      "stateMutability": "nonpayable",
      "type": "function"
    },
    {
      "inputs": [
        {
          "internalType": "address",
          "name": "_userToAdd",
          "type": "address"
        }
      ],
      "name": "addUserToWhitelist",
      "outputs": [],
      "stateMutability": "nonpayable",
      "type": "function"
    },
    {
      "inputs": [],
      "name": "admin",
      "outputs": [
        {
          "internalType": "address",
          "name": "",
          "type": "address"
        }
      ],
      "stateMutability": "view",
      "type": "function"
    },
    {
      "inputs": [],
      "name": "currentWeekNum",
      "outputs": [
        {
          "internalType": "uint256",
          "name": "",
          "type": "uint256"
        }
      ],
      "stateMutability": "view",
      "type": "function"
    },
    {
      "inputs": [],
      "name": "evaluateMatches",
      "outputs": [],
      "stateMutability": "nonpayable",
      "type": "function"
    },
    {
      "inputs": [],
      "name": "getAdmin",
      "outputs": [
        {
          "internalType": "address",
          "name": "",
          "type": "address"
        }
      ],
      "stateMutability": "view",
      "type": "function"
    },
    {
      "inputs": [],
      "name": "getContractUSDCBalance",
      "outputs": [
        {
          "internalType": "uint256",
          "name": "",
          "type": "uint256"
        }
      ],
      "stateMutability": "view",
      "type": "function"
    },
    {
      "inputs": [
        {
          "internalType": "uint256",
          "name": "index",
          "type": "uint256"
        }
      ],
      "name": "getLeagueMember",
      "outputs": [
        {
          "internalType": "address",
          "name": "",
          "type": "address"
        }
      ],
      "stateMutability": "view",
      "type": "function"
    },
    {
      "inputs": [
        {
          "internalType": "address",
          "name": "_user",
          "type": "address"
        }
      ],
      "name": "getLineup",
      "outputs": [
        {
          "internalType": "uint256[]",
          "name": "",
          "type": "uint256[]"
        }
      ],
      "stateMutability": "view",
      "type": "function"
    },
    {
      "inputs": [],
      "name": "getLineupIsLocked",
      "outputs": [
        {
          "internalType": "bool",
          "name": "",
          "type": "bool"
        }
      ],
      "stateMutability": "view",
      "type": "function"
    },
    {
      "inputs": [],
      "name": "getNumWhitelisted",
      "outputs": [
        {
          "internalType": "uint256",
          "name": "",
          "type": "uint256"
        }
      ],
      "stateMutability": "view",
      "type": "function"
    },
    {
      "inputs": [
        {
          "internalType": "uint256",
          "name": "_week",
          "type": "uint256"
        }
      ],
      "name": "getScheduleForWeek",
      "outputs": [
        {
          "components": [
            {
              "internalType": "address[2]",
              "name": "players",
              "type": "address[2]"
            }
          ],
          "internalType": "struct LeagueOfLegendsLogic.Matchup[]",
          "name": "",
          "type": "tuple[]"
        }
      ],
      "stateMutability": "view",
      "type": "function"
    },
    {
      "inputs": [
        {
          "internalType": "address",
          "name": "_user",
          "type": "address"
        }
      ],
      "name": "getUserIsWhitelisted",
      "outputs": [
        {
          "internalType": "bool",
          "name": "",
          "type": "bool"
        }
      ],
      "stateMutability": "view",
      "type": "function"
    },
    {
      "inputs": [],
      "name": "getUserRecord",
      "outputs": [
        {
          "internalType": "uint256[]",
          "name": "",
          "type": "uint256[]"
        }
      ],
      "stateMutability": "view",
      "type": "function"
    },
    {
      "inputs": [
        {
          "internalType": "address",
          "name": "",
          "type": "address"
        }
      ],
      "name": "inLeague",
      "outputs": [
        {
          "internalType": "bool",
          "name": "",
          "type": "bool"
        }
      ],
      "stateMutability": "view",
      "type": "function"
    },
    {
      "inputs": [
        {
          "internalType": "string",
          "name": "_name",
          "type": "string"
        },
        {
          "internalType": "uint256",
          "name": "_stakeAmount",
          "type": "uint256"
        },
        {
          "internalType": "bool",
          "name": "_isPublic",
          "type": "bool"
        },
        {
          "internalType": "address",
          "name": "athletesDataStorageAddress",
          "type": "address"
        },
        {
          "internalType": "address",
          "name": "_admin",
          "type": "address"
        },
        {
          "internalType": "address",
          "name": "_rinkebyUSDCAddress",
          "type": "address"
        },
        {
          "internalType": "address",
          "name": "_testUSDCAddress",
          "type": "address"
        },
        {
          "internalType": "address",
          "name": "_gameItemsContractAddress",
          "type": "address"
        },
        {
          "internalType": "address",
          "name": "_teamDiffAddress",
          "type": "address"
        },
        {
          "internalType": "address",
          "name": "_leagueMakerContractAddress",
          "type": "address"
        }
      ],
      "name": "initialize",
      "outputs": [],
      "stateMutability": "nonpayable",
      "type": "function"
    },
    {
      "inputs": [],
      "name": "isPublic",
      "outputs": [
        {
          "internalType": "bool",
          "name": "",
          "type": "bool"
        }
      ],
      "stateMutability": "view",
      "type": "function"
    },
    {
      "inputs": [],
      "name": "joinLeague",
      "outputs": [],
      "stateMutability": "nonpayable",
      "type": "function"
    },
    {
      "inputs": [],
      "name": "leagueEntryIsClosed",
      "outputs": [
        {
          "internalType": "bool",
          "name": "",
          "type": "bool"
        }
      ],
      "stateMutability": "view",
      "type": "function"
    },
    {
      "inputs": [
        {
          "internalType": "uint256",
          "name": "",
          "type": "uint256"
        }
      ],
      "name": "leagueMembers",
      "outputs": [
        {
          "internalType": "address",
          "name": "",
          "type": "address"
        }
      ],
      "stateMutability": "view",
      "type": "function"
    },
    {
      "inputs": [],
      "name": "leagueName",
      "outputs": [
        {
          "internalType": "string",
          "name": "",
          "type": "string"
        }
      ],
      "stateMutability": "view",
      "type": "function"
    },
    {
      "inputs": [],
      "name": "lineupIsLocked",
      "outputs": [
        {
          "internalType": "bool",
          "name": "",
          "type": "bool"
        }
      ],
      "stateMutability": "view",
      "type": "function"
    },
    {
      "inputs": [],
      "name": "lockLineup",
      "outputs": [],
      "stateMutability": "nonpayable",
      "type": "function"
    },
    {
      "inputs": [],
      "name": "numWeeks",
      "outputs": [
        {
          "internalType": "uint256",
          "name": "",
          "type": "uint256"
        }
      ],
      "stateMutability": "view",
      "type": "function"
    },
    {
      "inputs": [],
      "name": "onLeagueEnd",
      "outputs": [],
      "stateMutability": "nonpayable",
      "type": "function"
    },
    {
      "inputs": [],
      "name": "owner",
      "outputs": [
        {
          "internalType": "address",
          "name": "",
          "type": "address"
        }
      ],
      "stateMutability": "view",
      "type": "function"
    },
    {
      "inputs": [
        {
          "internalType": "address",
          "name": "addr",
          "type": "address"
        }
      ],
      "name": "removeAddressFromWhitelist",
      "outputs": [
        {
          "internalType": "bool",
          "name": "success",
          "type": "bool"
        }
      ],
      "stateMutability": "nonpayable",
      "type": "function"
    },
    {
      "inputs": [
        {
          "internalType": "address[]",
          "name": "addrs",
          "type": "address[]"
        }
      ],
      "name": "removeAddressesFromWhitelist",
      "outputs": [
        {
          "internalType": "bool",
          "name": "success",
          "type": "bool"
        }
      ],
      "stateMutability": "nonpayable",
      "type": "function"
    },
    {
      "inputs": [
        {
          "internalType": "address",
          "name": "_userToRemove",
          "type": "address"
        }
      ],
      "name": "removeFromWhitelist",
      "outputs": [],
      "stateMutability": "nonpayable",
      "type": "function"
    },
    {
      "inputs": [],
      "name": "renounceOwnership",
      "outputs": [],
      "stateMutability": "nonpayable",
      "type": "function"
    },
    {
      "inputs": [],
      "name": "rinkebyUSDCAddress",
      "outputs": [
        {
          "internalType": "address",
          "name": "",
          "type": "address"
        }
      ],
      "stateMutability": "view",
      "type": "function"
    },
    {
      "inputs": [],
      "name": "setLeagueEntryIsClosed",
      "outputs": [],
      "stateMutability": "nonpayable",
      "type": "function"
    },
    {
      "inputs": [],
      "name": "setLeagueSchedule",
      "outputs": [],
      "stateMutability": "nonpayable",
      "type": "function"
    },
    {
      "inputs": [
        {
          "internalType": "uint256[]",
          "name": "athleteIds",
          "type": "uint256[]"
        }
      ],
      "name": "setLineup",
      "outputs": [],
      "stateMutability": "nonpayable",
      "type": "function"
    },
    {
      "inputs": [],
      "name": "stakeAmount",
      "outputs": [
        {
          "internalType": "uint256",
          "name": "",
          "type": "uint256"
        }
      ],
      "stateMutability": "view",
      "type": "function"
    },
    {
      "inputs": [],
      "name": "teamDiffAddress",
      "outputs": [
        {
          "internalType": "address",
          "name": "",
          "type": "address"
        }
      ],
      "stateMutability": "view",
      "type": "function"
    },
    {
      "inputs": [],
      "name": "testUSDC",
      "outputs": [
        {
          "internalType": "contract IERC20",
          "name": "",
          "type": "address"
        }
      ],
      "stateMutability": "view",
      "type": "function"
    },
    {
      "inputs": [
        {
          "internalType": "address",
          "name": "newOwner",
          "type": "address"
        }
      ],
      "name": "transferOwnership",
      "outputs": [],
      "stateMutability": "nonpayable",
      "type": "function"
    },
    {
      "inputs": [],
      "name": "unlockLineup",
      "outputs": [],
      "stateMutability": "nonpayable",
      "type": "function"
    },
    {
      "inputs": [
        {
          "internalType": "address",
          "name": "",
          "type": "address"
        },
        {
          "internalType": "uint256",
          "name": "",
          "type": "uint256"
        }
      ],
      "name": "userToLineup",
      "outputs": [
        {
          "internalType": "uint256",
          "name": "",
          "type": "uint256"
        }
      ],
      "stateMutability": "view",
      "type": "function"
    },
    {
      "inputs": [
        {
          "internalType": "address",
          "name": "",
          "type": "address"
        }
      ],
      "name": "userToPoints",
      "outputs": [
        {
          "internalType": "uint256",
          "name": "",
          "type": "uint256"
        }
      ],
      "stateMutability": "view",
      "type": "function"
    },
    {
      "inputs": [
        {
          "internalType": "address",
          "name": "",
          "type": "address"
        },
        {
          "internalType": "uint256",
          "name": "",
          "type": "uint256"
        }
      ],
      "name": "userToRecord",
      "outputs": [
        {
          "internalType": "uint256",
          "name": "",
          "type": "uint256"
        }
      ],
      "stateMutability": "view",
      "type": "function"
    },
    {
      "inputs": [
        {
          "internalType": "address",
          "name": "",
          "type": "address"
        }
      ],
      "name": "whitelist",
      "outputs": [
        {
          "internalType": "bool",
          "name": "",
          "type": "bool"
        }
      ],
      "stateMutability": "view",
      "type": "function"
    }
  ],
  "bytecode": "0x60806040523480156200001157600080fd5b5062000032620000266200004060201b60201c565b6200004860201b60201c565b60016004819055506200010d565b600033905090565b60008060029054906101000a900473ffffffffffffffffffffffffffffffffffffffff16905081600060026101000a81548173ffffffffffffffffffffffffffffffffffffffff021916908373ffffffffffffffffffffffffffffffffffffffff1602179055508173ffffffffffffffffffffffffffffffffffffffff168173ffffffffffffffffffffffffffffffffffffffff167f8be0079c531659141344cd1fd0a4f28419497f9722a3daafe3b4186f6b6457e060405160405180910390a35050565b615e35806200011d6000396000f3fe60806040523480156200001157600080fd5b5060043610620002ae5760003560e01c8063747b80501162000171578063cff5600311620000d5578063e5f7322f1162000093578063e5f7322f14620007f9578063ee90080f146200082f578063f2fde38b1462000865578063f612121a1462000885578063f851a44014620008a5578063f881604514620008c757620002ae565b8063cff560031462000729578063dc9a1535146200075f578063e2ec6ec31462000781578063e35a899914620007b7578063e4c9066b14620007ed57620002ae565b80638da5cb5b116200012f5780638da5cb5b14620006775780639122ce6d14620006995780639b19251a14620006cf578063a2bc091a1462000705578063c8be3b5b1462000711578063c99fea94146200071d57620002ae565b8063747b805014620005bd5780637b9417c814620005dd5780637eed33f11462000613578063841abf6e14620006355780638ab1d681146200065757620002ae565b8063286dd3f5116200021957806344eaa84e11620001d757806344eaa84e146200050757806352e6e5f3146200052957806360c7dc47146200054b5780636cc15ad5146200056d5780636e9960c3146200058f578063715018a614620005b157620002ae565b8063286dd3f514620004395780632ae6b135146200046f5780632d382ee014620004a5578063305a578214620004db5780633c3ae13f14620004e757620002ae565b80630c6f795911620002735780630c6f795914620003475780631d803e00146200037d5780631dd7f8ca146200038957806324953eaa14620003ab578063267175db14620003e157806327311b32146200041757620002ae565b80622772c214620002b3578062b2476f14620002d5578063022e35e614620002f75780630635dbcb14620003195780630655465a146200033b575b600080fd5b620002bd620008e9565b604051620002cc919062004347565b60405180910390f35b620002df620009a1565b604051620002ee919062003f1c565b60405180910390f35b62000301620009c7565b60405162000310919062004080565b60405180910390f35b62000323620009ed565b60405162000332919062004063565b60405180910390f35b6200034562000a00565b005b6200036560048036038101906200035f919062003615565b62000b0b565b60405162000374919062004347565b60405180910390f35b6200038762000b3d565b005b6200039362000f84565b604051620003a2919062003f1c565b60405180910390f35b620003c96004803603810190620003c391906200365c565b62000faa565b604051620003d8919062004063565b60405180910390f35b620003ff6004803603810190620003f991906200384a565b6200108b565b6040516200040e919062003f1c565b60405180910390f35b62000421620010cb565b60405162000430919062004063565b60405180910390f35b620004576004803603810190620004519190620035e3565b620010e2565b60405162000466919062004063565b60405180910390f35b6200048d6004803603810190620004879190620035e3565b62001271565b6040516200049c919062004347565b60405180910390f35b620004c36004803603810190620004bd91906200384a565b62001289565b604051620004d291906200401b565b60405180910390f35b620004e56200137a565b005b620005056004803603810190620004ff919062003730565b620014f2565b005b620005116200194a565b60405162000520919062004347565b60405180910390f35b6200053362001954565b60405162000542919062004347565b60405180910390f35b620005556200195a565b60405162000564919062004347565b60405180910390f35b6200057762001960565b60405162000586919062004063565b60405180910390f35b6200059962001973565b604051620005a8919062003f1c565b60405180910390f35b620005bb6200199d565b005b620005db6004803603810190620005d59190620035e3565b62001a2e565b005b620005fb6004803603810190620005f59190620035e3565b62001bcb565b6040516200060a919062004063565b60405180910390f35b6200061d62001d58565b6040516200062c919062004347565b60405180910390f35b6200063f62001d5e565b6040516200064e9190620040f1565b60405180910390f35b6200067560048036038101906200066f9190620035e3565b62001df4565b005b6200068162001f91565b60405162000690919062003f1c565b60405180910390f35b620006b76004803603810190620006b19190620035e3565b62001fba565b604051620006c6919062004063565b60405180910390f35b620006ed6004803603810190620006e79190620035e3565b62001fda565b604051620006fc919062004063565b60405180910390f35b6200070f62001ffa565b005b6200071b620020aa565b005b620007276200215a565b005b62000747600480360381019062000741919062003615565b620025e8565b60405162000756919062004347565b60405180910390f35b620007696200261a565b60405162000778919062004063565b60405180910390f35b6200079f60048036038101906200079991906200365c565b6200262d565b604051620007ae919062004063565b60405180910390f35b620007d56004803603810190620007cf9190620035e3565b6200270e565b604051620007e4919062004063565b60405180910390f35b620007f762002764565b005b620008176004803603810190620008119190620035e3565b62002814565b6040516200082691906200403f565b60405180910390f35b6200084d60048036038101906200084791906200384a565b620028ad565b6040516200085c919062003f1c565b60405180910390f35b6200088360048036038101906200087d9190620035e3565b620028f8565b005b620008a360048036038101906200089d9190620036ad565b620029fc565b005b620008af62002ee2565b604051620008be919062003f1c565b60405180910390f35b620008d162002f08565b604051620008e091906200403f565b60405180910390f35b6000601560009054906101000a900473ffffffffffffffffffffffffffffffffffffffff1673ffffffffffffffffffffffffffffffffffffffff166370a08231306040518263ffffffff1660e01b815260040162000948919062003f1c565b60206040518083038186803b1580156200096157600080fd5b505afa15801562000976573d6000803e3d6000fd5b505050506040513d601f19601f820116820180604052508101906200099c91906200387c565b905090565b601360009054906101000a900473ffffffffffffffffffffffffffffffffffffffff1681565b601560009054906101000a900473ffffffffffffffffffffffffffffffffffffffff1681565b600a60159054906101000a900460ff1681565b600a60009054906101000a900473ffffffffffffffffffffffffffffffffffffffff1673ffffffffffffffffffffffffffffffffffffffff163373ffffffffffffffffffffffffffffffffffffffff161462000a93576040517f08c379a000000000000000000000000000000000000000000000000000000000815260040162000a8a906200427b565b60405180910390fd5b73__$36fdb4e0c2cb91f3ceca5ea81b025328f3$__63d2c232b56012601060065460056040518563ffffffff1660e01b815260040162000ad794939291906200409d565b60006040518083038186803b15801562000af057600080fd5b505af415801562000b05573d6000803e3d6000fd5b50505050565b600c602052816000526040600020818154811062000b2857600080fd5b90600052602060002001600091509150505481565b600a60009054906101000a900473ffffffffffffffffffffffffffffffffffffffff1673ffffffffffffffffffffffffffffffffffffffff163373ffffffffffffffffffffffffffffffffffffffff161462000bd0576040517f08c379a000000000000000000000000000000000000000000000000000000000815260040162000bc7906200427b565b60405180910390fd5b600060075460108054905062000be791906200461d565b905073__$36fdb4e0c2cb91f3ceca5ea81b025328f3$__63cc9b40cc6010600e60116040518463ffffffff1660e01b815260040162000c299392919062003fa3565b60006040518083038186803b15801562000c4257600080fd5b505af415801562000c57573d6000803e3d6000fd5b5050505060005b60118054905081101562000cce5762000cb86011828154811062000c875762000c866200493d565b5b9060005260206000200160009054906101000a900473ffffffffffffffffffffffffffffffffffffffff1662002f9f565b808062000cc59062004862565b91505062000c5e565b5060006011805490508262000ce49190620045e5565b905062000d2c6040518060400160405280601681526020017f4c65616775652077696e6e657273206c656e20697320000000000000000000008152506011805490506200303c565b62000d6d6040518060400160405280601681526020017f5072697a65207065722077696e6e6572206973203a2000000000000000000000815250826200303c565b7f648f2405ea194f3e49fe1655279883b3474e63909ab7e4a579b051d548ad838960118260405162000da192919062003fe7565b60405180910390a160005b60118054905081101562000f7f57601560009054906101000a900473ffffffffffffffffffffffffffffffffffffffff1673ffffffffffffffffffffffffffffffffffffffff1663095ea7b330846040518363ffffffff1660e01b815260040162000e1992919062003f76565b602060405180830381600087803b15801562000e3457600080fd5b505af115801562000e49573d6000803e3d6000fd5b505050506040513d601f19601f8201168201806040525081019062000e6f9190620036fe565b50601560009054906101000a900473ffffffffffffffffffffffffffffffffffffffff1673ffffffffffffffffffffffffffffffffffffffff166323b872dd306011848154811062000ec65762000ec56200493d565b5b9060005260206000200160009054906101000a900473ffffffffffffffffffffffffffffffffffffffff16856040518463ffffffff1660e01b815260040162000f129392919062003f39565b602060405180830381600087803b15801562000f2d57600080fd5b505af115801562000f42573d6000803e3d6000fd5b505050506040513d601f19601f8201168201806040525081019062000f689190620036fe565b50808062000f769062004862565b91505062000dac565b505050565b600a60009054906101000a900473ffffffffffffffffffffffffffffffffffffffff1681565b600062000fb6620030dc565b73ffffffffffffffffffffffffffffffffffffffff1662000fd662001f91565b73ffffffffffffffffffffffffffffffffffffffff16146200102f576040517f08c379a0000000000000000000000000000000000000000000000000000000008152600401620010269062004237565b60405180910390fd5b60005b82518110156200108557620010648382815181106200105657620010556200493d565b5b6020026020010151620010e2565b156200106f57600191505b80806200107c9062004862565b91505062001032565b50919050565b601081815481106200109c57600080fd5b906000526020600020016000915054906101000a900473ffffffffffffffffffffffffffffffffffffffff1681565b6000600a60159054906101000a900460ff16905090565b6000620010ee620030dc565b73ffffffffffffffffffffffffffffffffffffffff166200110e62001f91565b73ffffffffffffffffffffffffffffffffffffffff161462001167576040517f08c379a00000000000000000000000000000000000000000000000000000000081526004016200115e9062004237565b60405180910390fd5b600160008373ffffffffffffffffffffffffffffffffffffffff1673ffffffffffffffffffffffffffffffffffffffff16815260200190815260200160002060009054906101000a900460ff16156200126c576000600160008473ffffffffffffffffffffffffffffffffffffffff1673ffffffffffffffffffffffffffffffffffffffff16815260200190815260200160002060006101000a81548160ff0219169083151502179055507ff1abf01a1043b7c244d128e8595cf0c1d10743b022b03a02dffd8ca3bf729f5a8260405162001243919062003f1c565b60405180910390a16001600260008282546200126091906200467e565b92505081905550600190505b919050565b600e6020528060005260406000206000915090505481565b606060126000838152602001908152602001600020805480602002602001604051908101604052809291908181526020016000905b828210156200136f57838290600052602060002090600202016040518060200160405290816000820160028060200260405190810160405280929190826002801562001356576020028201915b8160009054906101000a900473ffffffffffffffffffffffffffffffffffffffff1673ffffffffffffffffffffffffffffffffffffffff16815260200190600101908083116200130b575b50505050508152505081526020019060010190620012be565b505050509050919050565b600a60009054906101000a900473ffffffffffffffffffffffffffffffffffffffff1673ffffffffffffffffffffffffffffffffffffffff163373ffffffffffffffffffffffffffffffffffffffff16146200140d576040517f08c379a000000000000000000000000000000000000000000000000000000000815260040162001404906200427b565b60405180910390fd5b73__$36fdb4e0c2cb91f3ceca5ea81b025328f3$__63c930f4bc600854601660009054906101000a900473ffffffffffffffffffffffffffffffffffffffff16600c600d600e60126040518763ffffffff1660e01b8152600401620014789695949392919062004364565b60006040518083038186803b1580156200149157600080fd5b505af4158015620014a6573d6000803e3d6000fd5b505050506001600654620014bb91906200467e565b6008541415620014d557620014cf62000b3d565b620014f0565b60086000815480929190620014ea9062004862565b91905055505b565b600060019054906101000a900460ff166200151c5760008054906101000a900460ff161562001527565b62001526620030e4565b5b62001569576040517f08c379a0000000000000000000000000000000000000000000000000000000008152600401620015609062004215565b60405180910390fd5b60008060019054906101000a900460ff161590508015620015ba576001600060016101000a81548160ff02191690831515021790555060016000806101000a81548160ff0219169083151502179055505b8b8b60059190620015cd929190620032a5565b5060086006819055506001600f60008973ffffffffffffffffffffffffffffffffffffffff1673ffffffffffffffffffffffffffffffffffffffff16815260200190815260200160002060006101000a81548160ff0219169083151502179055506010879080600181540180825580915050600190039060005260206000200160009091909190916101000a81548173ffffffffffffffffffffffffffffffffffffffff021916908373ffffffffffffffffffffffffffffffffffffffff16021790555086600960006101000a81548173ffffffffffffffffffffffffffffffffffffffff021916908373ffffffffffffffffffffffffffffffffffffffff1602179055508960078190555088600360006101000a81548160ff0219169083151502179055506000600a60146101000a81548160ff0219169083151502179055506000600a60156101000a81548160ff02191690831515021790555087601660006101000a81548173ffffffffffffffffffffffffffffffffffffffff021916908373ffffffffffffffffffffffffffffffffffffffff160217905550604051620017789062003336565b604051809103906000f08015801562001795573d6000803e3d6000fd5b50601460006101000a81548173ffffffffffffffffffffffffffffffffffffffff021916908373ffffffffffffffffffffffffffffffffffffffff16021790555085601360006101000a81548173ffffffffffffffffffffffffffffffffffffffff021916908373ffffffffffffffffffffffffffffffffffffffff16021790555084601560006101000a81548173ffffffffffffffffffffffffffffffffffffffff021916908373ffffffffffffffffffffffffffffffffffffffff16021790555082600a60006101000a81548173ffffffffffffffffffffffffffffffffffffffff021916908373ffffffffffffffffffffffffffffffffffffffff16021790555083601760006101000a81548173ffffffffffffffffffffffffffffffffffffffff021916908373ffffffffffffffffffffffffffffffffffffffff1602179055506200191a6040518060400160405280601281526020017f50726f787920696e697469616c697a6564210000000000000000000000000000815250620030f7565b80156200193c5760008060016101000a81548160ff0219169083151502179055505b505050505050505050505050565b6000600254905090565b60085481565b60075481565b600a60149054906101000a900460ff1681565b6000600960009054906101000a900473ffffffffffffffffffffffffffffffffffffffff16905090565b620019a7620030dc565b73ffffffffffffffffffffffffffffffffffffffff16620019c762001f91565b73ffffffffffffffffffffffffffffffffffffffff161462001a20576040517f08c379a000000000000000000000000000000000000000000000000000000000815260040162001a179062004237565b60405180910390fd5b62001a2c600062003194565b565b600960009054906101000a900473ffffffffffffffffffffffffffffffffffffffff1673ffffffffffffffffffffffffffffffffffffffff163373ffffffffffffffffffffffffffffffffffffffff161462001ac1576040517f08c379a000000000000000000000000000000000000000000000000000000000815260040162001ab89062004259565b60405180910390fd5b600a60149054906101000a900460ff161562001b14576040517f08c379a000000000000000000000000000000000000000000000000000000000815260040162001b0b90620042bf565b60405180910390fd5b601460009054906101000a900473ffffffffffffffffffffffffffffffffffffffff1673ffffffffffffffffffffffffffffffffffffffff16637b9417c8826040518263ffffffff1660e01b815260040162001b71919062003f1c565b602060405180830381600087803b15801562001b8c57600080fd5b505af115801562001ba1573d6000803e3d6000fd5b505050506040513d601f19601f8201168201806040525081019062001bc79190620036fe565b5050565b600062001bd7620030dc565b73ffffffffffffffffffffffffffffffffffffffff1662001bf762001f91565b73ffffffffffffffffffffffffffffffffffffffff161462001c50576040517f08c379a000000000000000000000000000000000000000000000000000000000815260040162001c479062004237565b60405180910390fd5b600160008373ffffffffffffffffffffffffffffffffffffffff1673ffffffffffffffffffffffffffffffffffffffff16815260200190815260200160002060009054906101000a900460ff1662001d535760018060008473ffffffffffffffffffffffffffffffffffffffff1673ffffffffffffffffffffffffffffffffffffffff16815260200190815260200160002060006101000a81548160ff0219169083151502179055507fd1bba68c128cc3f427e5831b3c6f99f480b6efa6b9e80c757768f6124158cc3f8260405162001d2a919062003f1c565b60405180910390a160016002600082825462001d47919062004588565b92505081905550600190505b919050565b60065481565b6005805462001d6d90620047d8565b80601f016020809104026020016040519081016040528092919081815260200182805462001d9b90620047d8565b801562001dec5780601f1062001dc05761010080835404028352916020019162001dec565b820191906000526020600020905b81548152906001019060200180831162001dce57829003601f168201915b505050505081565b600960009054906101000a900473ffffffffffffffffffffffffffffffffffffffff1673ffffffffffffffffffffffffffffffffffffffff163373ffffffffffffffffffffffffffffffffffffffff161462001e87576040517f08c379a000000000000000000000000000000000000000000000000000000000815260040162001e7e9062004259565b60405180910390fd5b600a60149054906101000a900460ff161562001eda576040517f08c379a000000000000000000000000000000000000000000000000000000000815260040162001ed190620042bf565b60405180910390fd5b601460009054906101000a900473ffffffffffffffffffffffffffffffffffffffff1673ffffffffffffffffffffffffffffffffffffffff1663286dd3f5826040518263ffffffff1660e01b815260040162001f37919062003f1c565b602060405180830381600087803b15801562001f5257600080fd5b505af115801562001f67573d6000803e3d6000fd5b505050506040513d601f19601f8201168201806040525081019062001f8d9190620036fe565b5050565b60008060029054906101000a900473ffffffffffffffffffffffffffffffffffffffff16905090565b600f6020528060005260406000206000915054906101000a900460ff1681565b60016020528060005260406000206000915054906101000a900460ff1681565b600a60009054906101000a900473ffffffffffffffffffffffffffffffffffffffff1673ffffffffffffffffffffffffffffffffffffffff163373ffffffffffffffffffffffffffffffffffffffff16146200208d576040517f08c379a000000000000000000000000000000000000000000000000000000000815260040162002084906200427b565b60405180910390fd5b6000600a60156101000a81548160ff021916908315150217905550565b600a60009054906101000a900473ffffffffffffffffffffffffffffffffffffffff1673ffffffffffffffffffffffffffffffffffffffff163373ffffffffffffffffffffffffffffffffffffffff16146200213d576040517f08c379a000000000000000000000000000000000000000000000000000000000815260040162002134906200427b565b60405180910390fd5b6001600a60156101000a81548160ff021916908315150217905550565b600160003373ffffffffffffffffffffffffffffffffffffffff1673ffffffffffffffffffffffffffffffffffffffff16815260200190815260200160002060009054906101000a900460ff1680620021bf5750600360009054906101000a900460ff165b62002201576040517f08c379a0000000000000000000000000000000000000000000000000000000008152600401620021f890620041af565b60405180910390fd5b600260045414156200224a576040517f08c379a0000000000000000000000000000000000000000000000000000000008152600401620022419062004303565b60405180910390fd5b6002600481905550600a60149054906101000a900460ff1615620022a5576040517f08c379a00000000000000000000000000000000000000000000000000000000081526004016200229c9062004325565b60405180910390fd5b600f60003373ffffffffffffffffffffffffffffffffffffffff1673ffffffffffffffffffffffffffffffffffffffff16815260200190815260200160002060009054906101000a900460ff161562002335576040517f08c379a00000000000000000000000000000000000000000000000000000000081526004016200232c906200418d565b60405180910390fd5b600754601560009054906101000a900473ffffffffffffffffffffffffffffffffffffffff1673ffffffffffffffffffffffffffffffffffffffff166370a08231336040518263ffffffff1660e01b815260040162002395919062003f1c565b60206040518083038186803b158015620023ae57600080fd5b505afa158015620023c3573d6000803e3d6000fd5b505050506040513d601f19601f82011682018060405250810190620023e991906200387c565b116200242c576040517f08c379a000000000000000000000000000000000000000000000000000000000815260040162002423906200416b565b60405180910390fd5b6001600f60003373ffffffffffffffffffffffffffffffffffffffff1673ffffffffffffffffffffffffffffffffffffffff16815260200190815260200160002060006101000a81548160ff0219169083151502179055506010339080600181540180825580915050600190039060005260206000200160009091909190916101000a81548173ffffffffffffffffffffffffffffffffffffffff021916908373ffffffffffffffffffffffffffffffffffffffff160217905550601560009054906101000a900473ffffffffffffffffffffffffffffffffffffffff1673ffffffffffffffffffffffffffffffffffffffff166323b872dd33306007546040518463ffffffff1660e01b81526004016200254a9392919062003f39565b602060405180830381600087803b1580156200256557600080fd5b505af11580156200257a573d6000803e3d6000fd5b505050506040513d601f19601f82011682018060405250810190620025a09190620036fe565b507f9e71bc8eea02a63969f509818f2dafb9254532904319f9dbda79b67bd34a5f3d33600754604051620025d692919062003f76565b60405180910390a16001600481905550565b600d60205281600052604060002081815481106200260557600080fd5b90600052602060002001600091509150505481565b600360009054906101000a900460ff1681565b600062002639620030dc565b73ffffffffffffffffffffffffffffffffffffffff166200265962001f91565b73ffffffffffffffffffffffffffffffffffffffff1614620026b2576040517f08c379a0000000000000000000000000000000000000000000000000000000008152600401620026a99062004237565b60405180910390fd5b60005b82518110156200270857620026e7838281518110620026d957620026d86200493d565b5b602002602001015162001bcb565b15620026f257600191505b8080620026ff9062004862565b915050620026b5565b50919050565b6000600160008373ffffffffffffffffffffffffffffffffffffffff1673ffffffffffffffffffffffffffffffffffffffff16815260200190815260200160002060009054906101000a900460ff169050919050565b600a60009054906101000a900473ffffffffffffffffffffffffffffffffffffffff1673ffffffffffffffffffffffffffffffffffffffff163373ffffffffffffffffffffffffffffffffffffffff1614620027f7576040517f08c379a0000000000000000000000000000000000000000000000000000000008152600401620027ee906200427b565b60405180910390fd5b6001600a60146101000a81548160ff021916908315150217905550565b6060600d60008373ffffffffffffffffffffffffffffffffffffffff1673ffffffffffffffffffffffffffffffffffffffff168152602001908152602001600020805480602002602001604051908101604052809291908181526020018280548015620028a157602002820191906000526020600020905b8154815260200190600101908083116200288c575b50505050509050919050565b600060108281548110620028c657620028c56200493d565b5b9060005260206000200160009054906101000a900473ffffffffffffffffffffffffffffffffffffffff169050919050565b62002902620030dc565b73ffffffffffffffffffffffffffffffffffffffff166200292262001f91565b73ffffffffffffffffffffffffffffffffffffffff16146200297b576040517f08c379a0000000000000000000000000000000000000000000000000000000008152600401620029729062004237565b60405180910390fd5b600073ffffffffffffffffffffffffffffffffffffffff168173ffffffffffffffffffffffffffffffffffffffff161415620029ee576040517f08c379a0000000000000000000000000000000000000000000000000000000008152600401620029e59062004149565b60405180910390fd5b620029f98162003194565b50565b600a60159054906101000a900460ff161562002a4f576040517f08c379a000000000000000000000000000000000000000000000000000000000815260040162002a4690620041f3565b60405180910390fd5b600f60003373ffffffffffffffffffffffffffffffffffffffff1673ffffffffffffffffffffffffffffffffffffffff16815260200190815260200160002060009054906101000a900460ff1662002ade576040517f08c379a000000000000000000000000000000000000000000000000000000000815260040162002ad5906200429d565b60405180910390fd5b60005b600d60003373ffffffffffffffffffffffffffffffffffffffff1673ffffffffffffffffffffffffffffffffffffffff1681526020019081526020016000208054905081101562002be357600b6000600d60003373ffffffffffffffffffffffffffffffffffffffff1673ffffffffffffffffffffffffffffffffffffffff168152602001908152602001600020838154811062002b845762002b836200493d565b5b906000526020600020015481526020019081526020016000206008546008811062002bb45762002bb36200493d565b5b01600081548092919062002bc890620047a9565b9190505550808062002bda9062004862565b91505062002ae1565b5060005b815181101562002c6757600b600083838151811062002c0b5762002c0a6200493d565b5b602002602001015181526020019081526020016000206008546008811062002c385762002c376200493d565b5b01600081548092919062002c4c9062004862565b9190505550808062002c5e9062004862565b91505062002be7565b5060005b815181101562002d9f576000601760009054906101000a900473ffffffffffffffffffffffffffffffffffffffff1673ffffffffffffffffffffffffffffffffffffffff1662fdd58e3385858151811062002ccb5762002cca6200493d565b5b60200260200101516040518363ffffffff1660e01b815260040162002cf292919062003f76565b60206040518083038186803b15801562002d0b57600080fd5b505afa15801562002d20573d6000803e3d6000fd5b505050506040513d601f19601f8201168201806040525081019062002d4691906200387c565b1162002d89576040517f08c379a000000000000000000000000000000000000000000000000000000000815260040162002d8090620042e1565b60405180910390fd5b808062002d969062004862565b91505062002c6b565b5060005b815181101562002e8857600a8162002dbc91906200461d565b82828151811062002dd25762002dd16200493d565b5b60200260200101511015801562002e3057506001600a60018362002df7919062004588565b62002e0391906200461d565b62002e0f91906200467e565b82828151811062002e255762002e246200493d565b5b602002602001015111155b62002e72576040517f08c379a000000000000000000000000000000000000000000000000000000000815260040162002e6990620041d1565b60405180910390fd5b808062002e7f9062004862565b91505062002da3565b5080600d60003373ffffffffffffffffffffffffffffffffffffffff1673ffffffffffffffffffffffffffffffffffffffff168152602001908152602001600020908051906020019062002ede92919062003344565b5050565b600960009054906101000a900473ffffffffffffffffffffffffffffffffffffffff1681565b6060600c60003373ffffffffffffffffffffffffffffffffffffffff1673ffffffffffffffffffffffffffffffffffffffff16815260200190815260200160002080548060200260200160405190810160405280929190818152602001828054801562002f9557602002820191906000526020600020905b81548152602001906001019080831162002f80575b5050505050905090565b620030398160405160240162002fb6919062003f1c565b6040516020818303038152906040527f2c2ecbc2000000000000000000000000000000000000000000000000000000007bffffffffffffffffffffffffffffffffffffffffffffffffffffffff19166020820180517bffffffffffffffffffffffffffffffffffffffffffffffffffffffff838183161783525050505062003259565b50565b620030d882826040516024016200305592919062004115565b6040516020818303038152906040527f9710a9d0000000000000000000000000000000000000000000000000000000007bffffffffffffffffffffffffffffffffffffffffffffffffffffffff19166020820180517bffffffffffffffffffffffffffffffffffffffffffffffffffffffff838183161783525050505062003259565b5050565b600033905090565b6000620030f13062003282565b15905090565b62003191816040516024016200310e9190620040f1565b6040516020818303038152906040527f41304fac000000000000000000000000000000000000000000000000000000007bffffffffffffffffffffffffffffffffffffffffffffffffffffffff19166020820180517bffffffffffffffffffffffffffffffffffffffffffffffffffffffff838183161783525050505062003259565b50565b60008060029054906101000a900473ffffffffffffffffffffffffffffffffffffffff16905081600060026101000a81548173ffffffffffffffffffffffffffffffffffffffff021916908373ffffffffffffffffffffffffffffffffffffffff1602179055508173ffffffffffffffffffffffffffffffffffffffff168173ffffffffffffffffffffffffffffffffffffffff167f8be0079c531659141344cd1fd0a4f28419497f9722a3daafe3b4186f6b6457e060405160405180910390a35050565b60008151905060006a636f6e736f6c652e6c6f679050602083016000808483855afa5050505050565b6000808273ffffffffffffffffffffffffffffffffffffffff163b119050919050565b828054620032b390620047d8565b90600052602060002090601f016020900481019282620032d7576000855562003323565b82601f10620032f257803560ff191683800117855562003323565b8280016001018555821562003323579182015b828111156200332257823582559160200191906001019062003305565b5b50905062003332919062003396565b5090565b6110598062004da783390190565b82805482825590600052602060002090810192821562003383579160200282015b828111156200338257825182559160200191906001019062003365565b5b50905062003392919062003396565b5090565b5b80821115620033b157600081600090555060010162003397565b5090565b6000620033cc620033c684620043fa565b620043d1565b90508083825260208201905082856020860282011115620033f257620033f1620049ba565b5b60005b858110156200342657816200340b8882620034ab565b845260208401935060208301925050600181019050620033f5565b5050509392505050565b600062003447620034418462004429565b620043d1565b905080838252602082019050828560208602820111156200346d576200346c620049ba565b5b60005b85811015620034a15781620034868882620035b5565b84526020840193506020830192505060018101905062003470565b5050509392505050565b600081359050620034bc8162004d58565b92915050565b600082601f830112620034da57620034d9620049b5565b5b8135620034ec848260208601620033b5565b91505092915050565b600082601f8301126200350d576200350c620049b5565b5b81356200351f84826020860162003430565b91505092915050565b600081359050620035398162004d72565b92915050565b600081519050620035508162004d72565b92915050565b60008083601f8401126200356f576200356e620049b5565b5b8235905067ffffffffffffffff8111156200358f576200358e620049b0565b5b602083019150836001820283011115620035ae57620035ad620049ba565b5b9250929050565b600081359050620035c68162004d8c565b92915050565b600081519050620035dd8162004d8c565b92915050565b600060208284031215620035fc57620035fb620049c4565b5b60006200360c84828501620034ab565b91505092915050565b600080604083850312156200362f576200362e620049c4565b5b60006200363f85828601620034ab565b92505060206200365285828601620035b5565b9150509250929050565b600060208284031215620036755762003674620049c4565b5b600082013567ffffffffffffffff811115620036965762003695620049bf565b5b620036a484828501620034c2565b91505092915050565b600060208284031215620036c657620036c5620049c4565b5b600082013567ffffffffffffffff811115620036e757620036e6620049bf565b5b620036f584828501620034f5565b91505092915050565b600060208284031215620037175762003716620049c4565b5b600062003727848285016200353f565b91505092915050565b60008060008060008060008060008060006101408c8e031215620037595762003758620049c4565b5b60008c013567ffffffffffffffff8111156200377a5762003779620049bf565b5b620037888e828f0162003556565b9b509b505060206200379d8e828f01620035b5565b9950506040620037b08e828f0162003528565b9850506060620037c38e828f01620034ab565b9750506080620037d68e828f01620034ab565b96505060a0620037e98e828f01620034ab565b95505060c0620037fc8e828f01620034ab565b94505060e06200380f8e828f01620034ab565b935050610100620038238e828f01620034ab565b925050610120620038378e828f01620034ab565b9150509295989b509295989b9093969950565b600060208284031215620038635762003862620049c4565b5b60006200387384828501620035b5565b91505092915050565b600060208284031215620038955762003894620049c4565b5b6000620038a584828501620035cc565b91505092915050565b6000620038bc838362003916565b60208301905092915050565b6000620038d6838362003938565b60208301905092915050565b6000620038f0838362003ecb565b60408301905092915050565b60006200390a838362003ee9565b60208301905092915050565b6200392181620046d9565b82525050565b6200393281620046d9565b82525050565b6200394381620046d9565b82525050565b6200395481620044ac565b62003960818462004517565b92506200396d8262004458565b8060005b83811015620039a4578151620039888782620038ae565b96506200399583620044e3565b92505060018101905062003971565b505050505050565b6000620039b982620044b7565b620039c5818562004522565b9350620039d28362004462565b8060005b8381101562003a1257620039ea826200499b565b620039f68882620038ae565b975062003a0383620044f0565b925050600181019050620039d6565b5085935050505092915050565b600062003a2c82620044b7565b62003a38818562004533565b935062003a458362004462565b8060005b8381101562003a855762003a5d826200499b565b62003a698882620038c8565b975062003a7683620044f0565b92505060018101905062003a49565b5085935050505092915050565b8082525050565b600062003aa682620044c2565b62003ab2818562004544565b935062003abf8362004477565b8060005b8381101562003af657815162003ada8882620038e2565b975062003ae783620044fd565b92505060018101905062003ac3565b5085935050505092915050565b600062003b1082620044cd565b62003b1c818562004555565b935062003b298362004487565b8060005b8381101562003b6057815162003b448882620038fc565b975062003b51836200450a565b92505060018101905062003b2d565b5085935050505092915050565b62003b7881620046ed565b82525050565b62003b898162004723565b82525050565b62003b9a8162004737565b82525050565b8082525050565b8082525050565b8082525050565b600062003bc282620044d8565b62003bce818562004566565b935062003be081856020860162004773565b62003beb81620049c9565b840191505092915050565b6000815462003c0581620047d8565b62003c11818662004577565b9450600182166000811462003c2f576001811462003c425762003c79565b60ff198316865260208601935062003c79565b62003c4d8562004497565b60005b8381101562003c715781548189015260018201915060208101905062003c50565b808801955050505b50505092915050565b600062003c9160268362004566565b915062003c9e82620049e7565b604082019050919050565b600062003cb8601d8362004566565b915062003cc58262004a36565b602082019050919050565b600062003cdf60238362004566565b915062003cec8262004a5f565b604082019050919050565b600062003d06601a8362004566565b915062003d138262004aae565b602082019050919050565b600062003d2d60318362004566565b915062003d3a8262004ad7565b604082019050919050565b600062003d54601e8362004566565b915062003d618262004b26565b602082019050919050565b600062003d7b602e8362004566565b915062003d888262004b4f565b604082019050919050565b600062003da260208362004566565b915062003daf8262004b9e565b602082019050919050565b600062003dc960178362004566565b915062003dd68262004bc7565b602082019050919050565b600062003df060168362004566565b915062003dfd8262004bf0565b602082019050919050565b600062003e1760168362004566565b915062003e248262004c19565b602082019050919050565b600062003e3e60418362004566565b915062003e4b8262004c42565b606082019050919050565b600062003e6560248362004566565b915062003e728262004cb7565b604082019050919050565b600062003e8c601f8362004566565b915062003e998262004d06565b602082019050919050565b600062003eb360178362004566565b915062003ec08262004d2f565b602082019050919050565b60408201600082015162003ee3600085018262003949565b50505050565b62003ef48162004719565b82525050565b62003f058162004719565b82525050565b62003f168162004719565b82525050565b600060208201905062003f33600083018462003927565b92915050565b600060608201905062003f50600083018662003927565b62003f5f602083018562003927565b62003f6e604083018462003efa565b949350505050565b600060408201905062003f8d600083018562003927565b62003f9c602083018462003efa565b9392505050565b6000606082019050818103600083015262003fbf818662003a1f565b905062003fd0602083018562003ba7565b62003fdf604083018462003a92565b949350505050565b60006040820190508181036000830152620040038185620039ac565b905062004014602083018462003efa565b9392505050565b6000602082019050818103600083015262004037818462003a99565b905092915050565b600060208201905081810360008301526200405b818462003b03565b905092915050565b60006020820190506200407a600083018462003b6d565b92915050565b600060208201905062004097600083018462003b8f565b92915050565b6000608082019050620040b4600083018762003bae565b620040c3602083018662003a92565b620040d2604083018562003f0b565b8181036060830152620040e6818462003bf6565b905095945050505050565b600060208201905081810360008301526200410d818462003bb5565b905092915050565b6000604082019050818103600083015262004131818562003bb5565b905062004142602083018462003efa565b9392505050565b60006020820190508181036000830152620041648162003c82565b9050919050565b60006020820190508181036000830152620041868162003ca9565b9050919050565b60006020820190508181036000830152620041a88162003cd0565b9050919050565b60006020820190508181036000830152620041ca8162003cf7565b9050919050565b60006020820190508181036000830152620041ec8162003d1e565b9050919050565b600060208201905081810360008301526200420e8162003d45565b9050919050565b60006020820190508181036000830152620042308162003d6c565b9050919050565b60006020820190508181036000830152620042528162003d93565b9050919050565b60006020820190508181036000830152620042748162003dba565b9050919050565b60006020820190508181036000830152620042968162003de1565b9050919050565b60006020820190508181036000830152620042b88162003e08565b9050919050565b60006020820190508181036000830152620042da8162003e2f565b9050919050565b60006020820190508181036000830152620042fc8162003e56565b9050919050565b600060208201905081810360008301526200431e8162003e7d565b9050919050565b60006020820190508181036000830152620043408162003ea4565b9050919050565b60006020820190506200435e600083018462003efa565b92915050565b600060c0820190506200437b600083018962003f0b565b6200438a602083018862003b7e565b62004399604083018762003ba0565b620043a8606083018662003ba0565b620043b7608083018562003ba7565b620043c660a083018462003bae565b979650505050505050565b6000620043dd620043f0565b9050620043eb82826200482c565b919050565b6000604051905090565b600067ffffffffffffffff8211156200441857620044176200496c565b5b602082029050602081019050919050565b600067ffffffffffffffff8211156200444757620044466200496c565b5b602082029050602081019050919050565b6000819050919050565b60008190508160005260206000209050919050565b6000819050602082019050919050565b6000819050602082019050919050565b60008190508160005260206000209050919050565b600060029050919050565b600081549050919050565b600081519050919050565b600081519050919050565b600081519050919050565b6000602082019050919050565b6000600182019050919050565b6000602082019050919050565b6000602082019050919050565b600081905092915050565b600082825260208201905092915050565b600082825260208201905092915050565b600082825260208201905092915050565b600082825260208201905092915050565b600082825260208201905092915050565b600082825260208201905092915050565b6000620045958262004719565b9150620045a28362004719565b9250827fffffffffffffffffffffffffffffffffffffffffffffffffffffffffffffffff03821115620045da57620045d9620048b0565b5b828201905092915050565b6000620045f28262004719565b9150620045ff8362004719565b925082620046125762004611620048df565b5b828204905092915050565b60006200462a8262004719565b9150620046378362004719565b9250817fffffffffffffffffffffffffffffffffffffffffffffffffffffffffffffffff0483118215151615620046735762004672620048b0565b5b828202905092915050565b60006200468b8262004719565b9150620046988362004719565b925082821015620046ae57620046ad620048b0565b5b828203905092915050565b600073ffffffffffffffffffffffffffffffffffffffff82169050919050565b6000620046e682620046f9565b9050919050565b60008115159050919050565b600073ffffffffffffffffffffffffffffffffffffffff82169050919050565b6000819050919050565b600062004730826200474b565b9050919050565b600062004744826200474b565b9050919050565b600062004758826200475f565b9050919050565b60006200476c82620046f9565b9050919050565b60005b838110156200479357808201518184015260208101905062004776565b83811115620047a3576000848401525b50505050565b6000620047b68262004719565b91506000821415620047cd57620047cc620048b0565b5b600182039050919050565b60006002820490506001821680620047f157607f821691505b602082108114156200480857620048076200490e565b5b50919050565b6000620048256200481f83620049da565b620046b9565b9050919050565b6200483782620049c9565b810181811067ffffffffffffffff821117156200485957620048586200496c565b5b80604052505050565b60006200486f8262004719565b91507fffffffffffffffffffffffffffffffffffffffffffffffffffffffffffffffff821415620048a557620048a4620048b0565b5b600182019050919050565b7f4e487b7100000000000000000000000000000000000000000000000000000000600052601160045260246000fd5b7f4e487b7100000000000000000000000000000000000000000000000000000000600052601260045260246000fd5b7f4e487b7100000000000000000000000000000000000000000000000000000000600052602260045260246000fd5b7f4e487b7100000000000000000000000000000000000000000000000000000000600052603260045260246000fd5b7f4e487b7100000000000000000000000000000000000000000000000000000000600052604160045260246000fd5b6000620049a982546200480e565b9050919050565b600080fd5b600080fd5b600080fd5b600080fd5b600080fd5b6000601f19601f8301169050919050565b60008160001c9050919050565b7f4f776e61626c653a206e6577206f776e657220697320746865207a65726f206160008201527f6464726573730000000000000000000000000000000000000000000000000000602082015250565b7f496e737566666963656e742066756e647320666f72207374616b696e67000000600082015250565b7f596f75206861766520616c7265616479206a6f696e65642074686973206c656160008201527f6775650000000000000000000000000000000000000000000000000000000000602082015250565b7f55736572206973206e6f742077686974656c6973746564203a28000000000000600082015250565b7f596f75206172652073657474696e6720616e206174686c65746520696e20746860008201527f652077726f6e6720706f736974696f6e21000000000000000000000000000000602082015250565b7f6c696e657570206973206c6f636b656420666f7220746865207765656b210000600082015250565b7f496e697469616c697a61626c653a20636f6e747261637420697320616c72656160008201527f647920696e697469616c697a6564000000000000000000000000000000000000602082015250565b7f4f776e61626c653a2063616c6c6572206973206e6f7420746865206f776e6572600082015250565b7f43616c6c6572206973206e6f74207468652061646d696e000000000000000000600082015250565b7f43616c6c6572206973206e6f74205465616d4469666600000000000000000000600082015250565b7f55736572206973206e6f7420696e204c65616775652e00000000000000000000600082015250565b7f4e6f626f64792063616e20656e7465722f6578697420746865206c656167756560008201527f20616e796d6f72652e2054686520736561736f6e20686173207374617274656460208201527f2100000000000000000000000000000000000000000000000000000000000000604082015250565b7f43616c6c657220646f6573206e6f74206f776e20676976656e206174686c657460008201527f6549647300000000000000000000000000000000000000000000000000000000602082015250565b7f5265656e7472616e637947756172643a207265656e7472616e742063616c6c00600082015250565b7f4c656167756520456e74727920697320436c6f73656421000000000000000000600082015250565b62004d6381620046d9565b811462004d6f57600080fd5b50565b62004d7d81620046ed565b811462004d8957600080fd5b50565b62004d978162004719565b811462004da357600080fd5b5056fe608060405234801561001057600080fd5b5061002d61002261003260201b60201c565b61003a60201b60201c565b6100fe565b600033905090565b60008060009054906101000a900473ffffffffffffffffffffffffffffffffffffffff169050816000806101000a81548173ffffffffffffffffffffffffffffffffffffffff021916908373ffffffffffffffffffffffffffffffffffffffff1602179055508173ffffffffffffffffffffffffffffffffffffffff168173ffffffffffffffffffffffffffffffffffffffff167f8be0079c531659141344cd1fd0a4f28419497f9722a3daafe3b4186f6b6457e060405160405180910390a35050565b610f4c8061010d6000396000f3fe608060405234801561001057600080fd5b50600436106100a95760003560e01c80638da5cb5b116100715780638da5cb5b146101665780639b19251a14610184578063dc9a1535146101b4578063e2ec6ec3146101d2578063e35a899914610202578063f2fde38b14610232576100a9565b806324953eaa146100ae578063286dd3f5146100de57806344eaa84e1461010e578063715018a61461012c5780637b9417c814610136575b600080fd5b6100c860048036038101906100c39190610ada565b61024e565b6040516100d59190610bb1565b60405180910390f35b6100f860048036038101906100f39190610aad565b61031e565b6040516101059190610bb1565b60405180910390f35b6101166104a1565b6040516101239190610c0c565b60405180910390f35b6101346104ab565b005b610150600480360381019061014b9190610aad565b610533565b60405161015d9190610bb1565b60405180910390f35b61016e6106b4565b60405161017b9190610b96565b60405180910390f35b61019e60048036038101906101999190610aad565b6106dd565b6040516101ab9190610bb1565b60405180910390f35b6101bc6106fd565b6040516101c99190610bb1565b60405180910390f35b6101ec60048036038101906101e79190610ada565b610710565b6040516101f99190610bb1565b60405180910390f35b61021c60048036038101906102179190610aad565b6107e0565b6040516102299190610bb1565b60405180910390f35b61024c60048036038101906102479190610aad565b610836565b005b600061025861092e565b73ffffffffffffffffffffffffffffffffffffffff166102766106b4565b73ffffffffffffffffffffffffffffffffffffffff16146102cc576040517f08c379a00000000000000000000000000000000000000000000000000000000081526004016102c390610bec565b60405180910390fd5b60005b8251811015610318576102fb8382815181106102ee576102ed610e04565b5b602002602001015161031e565b1561030557600191505b808061031090610d8c565b9150506102cf565b50919050565b600061032861092e565b73ffffffffffffffffffffffffffffffffffffffff166103466106b4565b73ffffffffffffffffffffffffffffffffffffffff161461039c576040517f08c379a000000000000000000000000000000000000000000000000000000000815260040161039390610bec565b60405180910390fd5b600160008373ffffffffffffffffffffffffffffffffffffffff1673ffffffffffffffffffffffffffffffffffffffff16815260200190815260200160002060009054906101000a900460ff161561049c576000600160008473ffffffffffffffffffffffffffffffffffffffff1673ffffffffffffffffffffffffffffffffffffffff16815260200190815260200160002060006101000a81548160ff0219169083151502179055507ff1abf01a1043b7c244d128e8595cf0c1d10743b022b03a02dffd8ca3bf729f5a826040516104759190610b96565b60405180910390a16001600260008282546104909190610cdf565b92505081905550600190505b919050565b6000600254905090565b6104b361092e565b73ffffffffffffffffffffffffffffffffffffffff166104d16106b4565b73ffffffffffffffffffffffffffffffffffffffff1614610527576040517f08c379a000000000000000000000000000000000000000000000000000000000815260040161051e90610bec565b60405180910390fd5b6105316000610936565b565b600061053d61092e565b73ffffffffffffffffffffffffffffffffffffffff1661055b6106b4565b73ffffffffffffffffffffffffffffffffffffffff16146105b1576040517f08c379a00000000000000000000000000000000000000000000000000000000081526004016105a890610bec565b60405180910390fd5b600160008373ffffffffffffffffffffffffffffffffffffffff1673ffffffffffffffffffffffffffffffffffffffff16815260200190815260200160002060009054906101000a900460ff166106af5760018060008473ffffffffffffffffffffffffffffffffffffffff1673ffffffffffffffffffffffffffffffffffffffff16815260200190815260200160002060006101000a81548160ff0219169083151502179055507fd1bba68c128cc3f427e5831b3c6f99f480b6efa6b9e80c757768f6124158cc3f826040516106889190610b96565b60405180910390a16001600260008282546106a39190610c89565b92505081905550600190505b919050565b60008060009054906101000a900473ffffffffffffffffffffffffffffffffffffffff16905090565b60016020528060005260406000206000915054906101000a900460ff1681565b600360009054906101000a900460ff1681565b600061071a61092e565b73ffffffffffffffffffffffffffffffffffffffff166107386106b4565b73ffffffffffffffffffffffffffffffffffffffff161461078e576040517f08c379a000000000000000000000000000000000000000000000000000000000815260040161078590610bec565b60405180910390fd5b60005b82518110156107da576107bd8382815181106107b0576107af610e04565b5b6020026020010151610533565b156107c757600191505b80806107d290610d8c565b915050610791565b50919050565b6000600160008373ffffffffffffffffffffffffffffffffffffffff1673ffffffffffffffffffffffffffffffffffffffff16815260200190815260200160002060009054906101000a900460ff169050919050565b61083e61092e565b73ffffffffffffffffffffffffffffffffffffffff1661085c6106b4565b73ffffffffffffffffffffffffffffffffffffffff16146108b2576040517f08c379a00000000000000000000000000000000000000000000000000000000081526004016108a990610bec565b60405180910390fd5b600073ffffffffffffffffffffffffffffffffffffffff168173ffffffffffffffffffffffffffffffffffffffff161415610922576040517f08c379a000000000000000000000000000000000000000000000000000000000815260040161091990610bcc565b60405180910390fd5b61092b81610936565b50565b600033905090565b60008060009054906101000a900473ffffffffffffffffffffffffffffffffffffffff169050816000806101000a81548173ffffffffffffffffffffffffffffffffffffffff021916908373ffffffffffffffffffffffffffffffffffffffff1602179055508173ffffffffffffffffffffffffffffffffffffffff168173ffffffffffffffffffffffffffffffffffffffff167f8be0079c531659141344cd1fd0a4f28419497f9722a3daafe3b4186f6b6457e060405160405180910390a35050565b6000610a0d610a0884610c4c565b610c27565b90508083825260208201905082856020860282011115610a3057610a2f610e67565b5b60005b85811015610a605781610a468882610a6a565b845260208401935060208301925050600181019050610a33565b5050509392505050565b600081359050610a7981610eff565b92915050565b600082601f830112610a9457610a93610e62565b5b8135610aa48482602086016109fa565b91505092915050565b600060208284031215610ac357610ac2610e71565b5b6000610ad184828501610a6a565b91505092915050565b600060208284031215610af057610aef610e71565b5b600082013567ffffffffffffffff811115610b0e57610b0d610e6c565b5b610b1a84828501610a7f565b91505092915050565b610b2c81610d13565b82525050565b610b3b81610d25565b82525050565b6000610b4e602683610c78565b9150610b5982610e87565b604082019050919050565b6000610b71602083610c78565b9150610b7c82610ed6565b602082019050919050565b610b9081610d51565b82525050565b6000602082019050610bab6000830184610b23565b92915050565b6000602082019050610bc66000830184610b32565b92915050565b60006020820190508181036000830152610be581610b41565b9050919050565b60006020820190508181036000830152610c0581610b64565b9050919050565b6000602082019050610c216000830184610b87565b92915050565b6000610c31610c42565b9050610c3d8282610d5b565b919050565b6000604051905090565b600067ffffffffffffffff821115610c6757610c66610e33565b5b602082029050602081019050919050565b600082825260208201905092915050565b6000610c9482610d51565b9150610c9f83610d51565b9250827fffffffffffffffffffffffffffffffffffffffffffffffffffffffffffffffff03821115610cd457610cd3610dd5565b5b828201905092915050565b6000610cea82610d51565b9150610cf583610d51565b925082821015610d0857610d07610dd5565b5b828203905092915050565b6000610d1e82610d31565b9050919050565b60008115159050919050565b600073ffffffffffffffffffffffffffffffffffffffff82169050919050565b6000819050919050565b610d6482610e76565b810181811067ffffffffffffffff82111715610d8357610d82610e33565b5b80604052505050565b6000610d9782610d51565b91507fffffffffffffffffffffffffffffffffffffffffffffffffffffffffffffffff821415610dca57610dc9610dd5565b5b600182019050919050565b7f4e487b7100000000000000000000000000000000000000000000000000000000600052601160045260246000fd5b7f4e487b7100000000000000000000000000000000000000000000000000000000600052603260045260246000fd5b7f4e487b7100000000000000000000000000000000000000000000000000000000600052604160045260246000fd5b600080fd5b600080fd5b600080fd5b600080fd5b6000601f19601f8301169050919050565b7f4f776e61626c653a206e6577206f776e657220697320746865207a65726f206160008201527f6464726573730000000000000000000000000000000000000000000000000000602082015250565b7f4f776e61626c653a2063616c6c6572206973206e6f7420746865206f776e6572600082015250565b610f0881610d13565b8114610f1357600080fd5b5056fea264697066735822122025b390357f22f9269bde80291a8d0e54585b05677bc0732b426001d35eb8569364736f6c63430008070033a2646970667358221220ea79bbb1f60461161b0c36a0f8b9a4e73108dfc7643952bf6b9de0d038b9ac5264736f6c63430008070033",
  "linkReferences": {
    "contracts/MOBALogicLibrary.sol": {
      "MOBALogicLibrary": [
        {
          "length": 20,
          "start": 2994
        },
        {
          "length": 20,
          "start": 3336
        },
        {
          "length": 20,
          "start": 5420
        }
      ]
    }
  },
  "deployedLinkReferences": {
    "contracts/MOBALogicLibrary.sol": {
      "MOBALogicLibrary": [
        {
          "length": 20,
          "start": 2709
        },
        {
          "length": 20,
          "start": 3051
        },
        {
          "length": 20,
          "start": 5135
        }
      ]
    }
  }
}