{
  "_format": "hh-sol-artifact-1",
  "contractName": "LeagueOfLegendsLogic",
  "sourceName": "contracts/LeagueOfLegendsLogic.sol",
  "abi": [
    {
      "anonymous": false,
      "inputs": [
        {
          "indexed": true,
          "internalType": "address",
          "name": "previousOwner",
          "type": "address"
        },
        {
          "indexed": true,
          "internalType": "address",
          "name": "newOwner",
          "type": "address"
        }
      ],
      "name": "OwnershipTransferred",
      "type": "event"
    },
    {
      "anonymous": false,
      "inputs": [
        {
          "indexed": false,
          "internalType": "address",
          "name": "sender",
          "type": "address"
        },
        {
          "indexed": false,
          "internalType": "uint256",
          "name": "amount",
          "type": "uint256"
        }
      ],
      "name": "Staked",
      "type": "event"
    },
    {
      "anonymous": false,
      "inputs": [
        {
          "indexed": false,
          "internalType": "address",
          "name": "addr",
          "type": "address"
        }
      ],
      "name": "WhitelistedAddressAdded",
      "type": "event"
    },
    {
      "anonymous": false,
      "inputs": [
        {
          "indexed": false,
          "internalType": "address",
          "name": "addr",
          "type": "address"
        }
      ],
      "name": "WhitelistedAddressRemoved",
      "type": "event"
    },
    {
      "anonymous": false,
      "inputs": [
        {
          "indexed": false,
          "internalType": "address",
          "name": "winner",
          "type": "address"
        }
      ],
      "name": "leagueEnded",
      "type": "event"
    },
    {
      "anonymous": false,
      "inputs": [
        {
          "indexed": false,
          "internalType": "address",
          "name": "sender",
          "type": "address"
        },
        {
          "indexed": false,
          "internalType": "address",
          "name": "contractAddress",
          "type": "address"
        }
      ],
      "name": "testUSDCDeployed",
      "type": "event"
    },
    {
      "inputs": [
        {
          "internalType": "address",
          "name": "addr",
          "type": "address"
        }
      ],
      "name": "addAddressToWhitelist",
      "outputs": [
        {
          "internalType": "bool",
          "name": "success",
          "type": "bool"
        }
      ],
      "stateMutability": "nonpayable",
      "type": "function"
    },
    {
      "inputs": [
        {
          "internalType": "address[]",
          "name": "addrs",
          "type": "address[]"
        }
      ],
      "name": "addAddressesToWhitelist",
      "outputs": [
        {
          "internalType": "bool",
          "name": "success",
          "type": "bool"
        }
      ],
      "stateMutability": "nonpayable",
      "type": "function"
    },
    {
      "inputs": [
        {
          "internalType": "address",
          "name": "_userToAdd",
          "type": "address"
        }
      ],
      "name": "addUserToWhitelist",
      "outputs": [],
      "stateMutability": "nonpayable",
      "type": "function"
    },
    {
      "inputs": [],
      "name": "admin",
      "outputs": [
        {
          "internalType": "address",
          "name": "",
          "type": "address"
        }
      ],
      "stateMutability": "view",
      "type": "function"
    },
    {
      "inputs": [],
      "name": "currentWeekNum",
      "outputs": [
        {
          "internalType": "uint256",
          "name": "",
          "type": "uint256"
        }
      ],
      "stateMutability": "view",
      "type": "function"
    },
    {
      "inputs": [],
      "name": "evaluateMatches",
      "outputs": [],
      "stateMutability": "nonpayable",
      "type": "function"
    },
    {
      "inputs": [],
      "name": "getAdmin",
      "outputs": [
        {
          "internalType": "address",
          "name": "",
          "type": "address"
        }
      ],
      "stateMutability": "view",
      "type": "function"
    },
    {
      "inputs": [
        {
          "internalType": "address",
          "name": "_user",
          "type": "address"
        }
      ],
      "name": "getLineup",
      "outputs": [
        {
          "internalType": "uint256[]",
          "name": "",
          "type": "uint256[]"
        }
      ],
      "stateMutability": "view",
      "type": "function"
    },
    {
      "inputs": [],
      "name": "getLineupIsLocked",
      "outputs": [
        {
          "internalType": "bool",
          "name": "",
          "type": "bool"
        }
      ],
      "stateMutability": "view",
      "type": "function"
    },
    {
      "inputs": [],
      "name": "getNumWhitelisted",
      "outputs": [
        {
          "internalType": "uint256",
          "name": "",
          "type": "uint256"
        }
      ],
      "stateMutability": "view",
      "type": "function"
    },
    {
      "inputs": [
        {
          "internalType": "uint256",
          "name": "_week",
          "type": "uint256"
        }
      ],
      "name": "getScheduleForWeek",
      "outputs": [
        {
          "components": [
            {
              "internalType": "address[2]",
              "name": "players",
              "type": "address[2]"
            }
          ],
          "internalType": "struct LeagueOfLegendsLogic.Matchup[]",
          "name": "",
          "type": "tuple[]"
        }
      ],
      "stateMutability": "view",
      "type": "function"
    },
    {
      "inputs": [],
      "name": "getUSDCBalance",
      "outputs": [
        {
          "internalType": "uint256",
          "name": "",
          "type": "uint256"
        }
      ],
      "stateMutability": "view",
      "type": "function"
    },
    {
      "inputs": [
        {
          "internalType": "address",
          "name": "_user",
          "type": "address"
        }
      ],
      "name": "getUserIsWhitelisted",
      "outputs": [
        {
          "internalType": "bool",
          "name": "",
          "type": "bool"
        }
      ],
      "stateMutability": "view",
      "type": "function"
    },
    {
      "inputs": [],
      "name": "getUserRecord",
      "outputs": [
        {
          "internalType": "uint256[]",
          "name": "",
          "type": "uint256[]"
        }
      ],
      "stateMutability": "view",
      "type": "function"
    },
    {
      "inputs": [],
      "name": "getUserUSDCBalance",
      "outputs": [
        {
          "internalType": "uint256",
          "name": "",
          "type": "uint256"
        }
      ],
      "stateMutability": "view",
      "type": "function"
    },
    {
      "inputs": [],
      "name": "getUsersLength",
      "outputs": [
        {
          "internalType": "uint256",
          "name": "",
          "type": "uint256"
        }
      ],
      "stateMutability": "view",
      "type": "function"
    },
    {
      "inputs": [
        {
          "internalType": "address",
          "name": "",
          "type": "address"
        }
      ],
      "name": "inLeague",
      "outputs": [
        {
          "internalType": "bool",
          "name": "",
          "type": "bool"
        }
      ],
      "stateMutability": "view",
      "type": "function"
    },
    {
      "inputs": [
        {
          "internalType": "string",
          "name": "_name",
          "type": "string"
        },
        {
          "internalType": "uint256",
          "name": "_stakeAmount",
          "type": "uint256"
        },
        {
          "internalType": "bool",
          "name": "_isPublic",
          "type": "bool"
        },
        {
          "internalType": "address",
          "name": "athletesDataStorageAddress",
          "type": "address"
        },
        {
          "internalType": "address",
          "name": "_admin",
          "type": "address"
        },
        {
          "internalType": "address",
          "name": "_rinkebyUSDCAddress",
          "type": "address"
        },
        {
          "internalType": "address",
          "name": "_testUSDCAddress",
          "type": "address"
        },
        {
          "internalType": "address",
          "name": "_gameItemsContractAddress",
          "type": "address"
        },
        {
          "internalType": "address",
          "name": "_teamDiffAddress",
          "type": "address"
        },
        {
          "internalType": "address",
          "name": "_leagueMakerContractAddress",
          "type": "address"
        }
      ],
      "name": "initialize",
      "outputs": [],
      "stateMutability": "nonpayable",
      "type": "function"
    },
    {
      "inputs": [],
      "name": "isPublic",
      "outputs": [
        {
          "internalType": "bool",
          "name": "",
          "type": "bool"
        }
      ],
      "stateMutability": "view",
      "type": "function"
    },
    {
      "inputs": [],
      "name": "joinLeague",
      "outputs": [],
      "stateMutability": "nonpayable",
      "type": "function"
    },
    {
      "inputs": [],
      "name": "leagueEntryIsClosed",
      "outputs": [
        {
          "internalType": "bool",
          "name": "",
          "type": "bool"
        }
      ],
      "stateMutability": "view",
      "type": "function"
    },
    {
      "inputs": [
        {
          "internalType": "uint256",
          "name": "",
          "type": "uint256"
        }
      ],
      "name": "leagueMembers",
      "outputs": [
        {
          "internalType": "address",
          "name": "",
          "type": "address"
        }
      ],
      "stateMutability": "view",
      "type": "function"
    },
    {
      "inputs": [],
      "name": "leagueName",
      "outputs": [
        {
          "internalType": "string",
          "name": "",
          "type": "string"
        }
      ],
      "stateMutability": "view",
      "type": "function"
    },
    {
      "inputs": [],
      "name": "lineupIsLocked",
      "outputs": [
        {
          "internalType": "bool",
          "name": "",
          "type": "bool"
        }
      ],
      "stateMutability": "view",
      "type": "function"
    },
    {
      "inputs": [],
      "name": "lockLineup",
      "outputs": [],
      "stateMutability": "nonpayable",
      "type": "function"
    },
    {
      "inputs": [],
      "name": "numWeeks",
      "outputs": [
        {
          "internalType": "uint256",
          "name": "",
          "type": "uint256"
        }
      ],
      "stateMutability": "view",
      "type": "function"
    },
    {
      "inputs": [],
      "name": "onLeagueEnd",
      "outputs": [],
      "stateMutability": "nonpayable",
      "type": "function"
    },
    {
      "inputs": [],
      "name": "owner",
      "outputs": [
        {
          "internalType": "address",
          "name": "",
          "type": "address"
        }
      ],
      "stateMutability": "view",
      "type": "function"
    },
    {
      "inputs": [
        {
          "internalType": "address",
          "name": "addr",
          "type": "address"
        }
      ],
      "name": "removeAddressFromWhitelist",
      "outputs": [
        {
          "internalType": "bool",
          "name": "success",
          "type": "bool"
        }
      ],
      "stateMutability": "nonpayable",
      "type": "function"
    },
    {
      "inputs": [
        {
          "internalType": "address[]",
          "name": "addrs",
          "type": "address[]"
        }
      ],
      "name": "removeAddressesFromWhitelist",
      "outputs": [
        {
          "internalType": "bool",
          "name": "success",
          "type": "bool"
        }
      ],
      "stateMutability": "nonpayable",
      "type": "function"
    },
    {
      "inputs": [
        {
          "internalType": "address",
          "name": "_userToRemove",
          "type": "address"
        }
      ],
      "name": "removeFromWhitelist",
      "outputs": [],
      "stateMutability": "nonpayable",
      "type": "function"
    },
    {
      "inputs": [],
      "name": "renounceOwnership",
      "outputs": [],
      "stateMutability": "nonpayable",
      "type": "function"
    },
    {
      "inputs": [],
      "name": "rinkebyUSDCAddress",
      "outputs": [
        {
          "internalType": "address",
          "name": "",
          "type": "address"
        }
      ],
      "stateMutability": "view",
      "type": "function"
    },
    {
      "inputs": [],
      "name": "setLeagueEntryIsClosed",
      "outputs": [],
      "stateMutability": "nonpayable",
      "type": "function"
    },
    {
      "inputs": [],
      "name": "setLeagueSchedule",
      "outputs": [],
      "stateMutability": "nonpayable",
      "type": "function"
    },
    {
      "inputs": [
        {
          "internalType": "uint256[]",
          "name": "athleteIds",
          "type": "uint256[]"
        }
      ],
      "name": "setLineup",
      "outputs": [],
      "stateMutability": "nonpayable",
      "type": "function"
    },
    {
      "inputs": [],
      "name": "stakeAmount",
      "outputs": [
        {
          "internalType": "uint256",
          "name": "",
          "type": "uint256"
        }
      ],
      "stateMutability": "view",
      "type": "function"
    },
    {
      "inputs": [],
      "name": "teamDiffAddress",
      "outputs": [
        {
          "internalType": "address",
          "name": "",
          "type": "address"
        }
      ],
      "stateMutability": "view",
      "type": "function"
    },
    {
      "inputs": [],
      "name": "testUSDC",
      "outputs": [
        {
          "internalType": "contract IERC20",
          "name": "",
          "type": "address"
        }
      ],
      "stateMutability": "view",
      "type": "function"
    },
    {
      "inputs": [
        {
          "internalType": "address",
          "name": "newOwner",
          "type": "address"
        }
      ],
      "name": "transferOwnership",
      "outputs": [],
      "stateMutability": "nonpayable",
      "type": "function"
    },
    {
      "inputs": [],
      "name": "unlockLineup",
      "outputs": [],
      "stateMutability": "nonpayable",
      "type": "function"
    },
    {
      "inputs": [
        {
          "internalType": "address",
          "name": "",
          "type": "address"
        },
        {
          "internalType": "uint256",
          "name": "",
          "type": "uint256"
        }
      ],
      "name": "userToLineup",
      "outputs": [
        {
          "internalType": "uint256",
          "name": "",
          "type": "uint256"
        }
      ],
      "stateMutability": "view",
      "type": "function"
    },
    {
      "inputs": [
        {
          "internalType": "address",
          "name": "",
          "type": "address"
        },
        {
          "internalType": "uint256",
          "name": "",
          "type": "uint256"
        }
      ],
      "name": "userToRecord",
      "outputs": [
        {
          "internalType": "uint256",
          "name": "",
          "type": "uint256"
        }
      ],
      "stateMutability": "view",
      "type": "function"
    },
    {
      "inputs": [
        {
          "internalType": "address",
          "name": "",
          "type": "address"
        }
      ],
      "name": "whitelist",
      "outputs": [
        {
          "internalType": "bool",
          "name": "",
          "type": "bool"
        }
      ],
      "stateMutability": "view",
      "type": "function"
    }
  ],
  "bytecode": "0x60806040523480156200001157600080fd5b5062000032620000266200004060201b60201c565b6200004860201b60201c565b60016004819055506200010d565b600033905090565b60008060029054906101000a900473ffffffffffffffffffffffffffffffffffffffff16905081600060026101000a81548173ffffffffffffffffffffffffffffffffffffffff021916908373ffffffffffffffffffffffffffffffffffffffff1602179055508173ffffffffffffffffffffffffffffffffffffffff168173ffffffffffffffffffffffffffffffffffffffff167f8be0079c531659141344cd1fd0a4f28419497f9722a3daafe3b4186f6b6457e060405160405180910390a35050565b6158ef806200011d6000396000f3fe60806040523480156200001157600080fd5b5060043610620002af5760003560e01c8063715018a61162000171578063c99fea9411620000d5578063e4c9066b1162000093578063e4c9066b14620007fc578063e5f7322f1462000808578063f2fde38b146200083e578063f612121a146200085e578063f851a440146200087e578063f881604514620008a057620002af565b8063c99fea94146200072c578063cff560031462000738578063dc9a1535146200076e578063e2ec6ec31462000790578063e35a899914620007c657620002af565b80638ab1d681116200012f5780638ab1d68114620006665780638da5cb5b14620006865780639122ce6d14620006a85780639b19251a14620006de578063a2bc091a1462000714578063c8be3b5b146200072057620002af565b8063715018a614620005c0578063747b805014620005cc5780637b9417c814620005ec5780637eed33f11462000622578063841abf6e146200064457620002af565b80632d382ee0116200021957806352e6e5f311620001d757806352e6e5f314620004f4578063595b1a3e14620005165780635fcc6987146200053857806360c7dc47146200055a5780636cc15ad5146200057c5780636e9960c3146200059e57620002af565b80632d382ee0146200044e578063305a578214620004845780633c3ae13f14620004905780633cfd1ccc14620004b057806344eaa84e14620004d257620002af565b80631d803e0011620002735780631d803e00146200035c5780631dd7f8ca146200036857806324953eaa146200038a578063267175db14620003c057806327311b3214620003f6578063286dd3f5146200041857620002af565b8062b2476f14620002b4578063022e35e614620002d65780630635dbcb14620002f85780630655465a146200031a5780630c6f79591462000326575b600080fd5b620002be620008c2565b604051620002cd919062003ba8565b60405180910390f35b620002e0620008e8565b604051620002ef919062003c94565b60405180910390f35b620003026200090e565b60405162000311919062003c77565b60405180910390f35b6200032462000921565b005b6200034460048036038101906200033e9190620033b9565b62000a2c565b60405162000353919062003f27565b60405180910390f35b6200036662000a5e565b005b6200037262000c0d565b60405162000381919062003ba8565b60405180910390f35b620003a86004803603810190620003a2919062003400565b62000c33565b604051620003b7919062003c77565b60405180910390f35b620003de6004803603810190620003d89190620035ee565b62000d14565b604051620003ed919062003ba8565b60405180910390f35b6200040062000d54565b6040516200040f919062003c77565b60405180910390f35b62000436600480360381019062000430919062003387565b62000d6b565b60405162000445919062003c77565b60405180910390f35b6200046c6004803603810190620004669190620035ee565b62000efa565b6040516200047b919062003c2f565b60405180910390f35b6200048e62000feb565b005b620004ae6004803603810190620004a89190620034d4565b62001160565b005b620004ba620015f9565b604051620004c9919062003f27565b60405180910390f35b620004dc62001708565b604051620004eb919062003f27565b60405180910390f35b620004fe62001712565b6040516200050d919062003f27565b60405180910390f35b6200052062001718565b6040516200052f919062003f27565b60405180910390f35b6200054262001725565b60405162000551919062003f27565b60405180910390f35b6200056462001834565b60405162000573919062003f27565b60405180910390f35b620005866200183a565b60405162000595919062003c77565b60405180910390f35b620005a86200184d565b604051620005b7919062003ba8565b60405180910390f35b620005ca62001877565b005b620005ea6004803603810190620005e4919062003387565b62001908565b005b6200060a600480360381019062000604919062003387565b62001a52565b60405162000619919062003c77565b60405180910390f35b6200062c62001bdf565b6040516200063b919062003f27565b60405180910390f35b6200064e62001be5565b6040516200065d919062003d05565b60405180910390f35b6200068460048036038101906200067e919062003387565b62001c7b565b005b6200069062001e18565b6040516200069f919062003ba8565b60405180910390f35b620006c66004803603810190620006c0919062003387565b62001e41565b604051620006d5919062003c77565b60405180910390f35b620006fc6004803603810190620006f6919062003387565b62001e61565b6040516200070b919062003c77565b60405180910390f35b6200071e62001e81565b005b6200072a62001f31565b005b6200073662001fe1565b005b620007566004803603810190620007509190620033b9565b6200246f565b60405162000765919062003f27565b60405180910390f35b62000778620024a1565b60405162000787919062003c77565b60405180910390f35b620007ae6004803603810190620007a8919062003400565b620024b4565b604051620007bd919062003c77565b60405180910390f35b620007e46004803603810190620007de919062003387565b62002595565b604051620007f3919062003c77565b60405180910390f35b62000806620025eb565b005b62000826600480360381019062000820919062003387565b6200269b565b60405162000835919062003c53565b60405180910390f35b6200085c600480360381019062000856919062003387565b62002734565b005b6200087c600480360381019062000876919062003451565b62002838565b005b6200088862002dc3565b60405162000897919062003ba8565b60405180910390f35b620008aa62002de9565b604051620008b9919062003c53565b60405180910390f35b601160009054906101000a900473ffffffffffffffffffffffffffffffffffffffff1681565b601560009054906101000a900473ffffffffffffffffffffffffffffffffffffffff1681565b600a60159054906101000a900460ff1681565b600a60009054906101000a900473ffffffffffffffffffffffffffffffffffffffff1673ffffffffffffffffffffffffffffffffffffffff163373ffffffffffffffffffffffffffffffffffffffff1614620009b4576040517f08c379a0000000000000000000000000000000000000000000000000000000008152600401620009ab9062003e5b565b60405180910390fd5b73__$36fdb4e0c2cb91f3ceca5ea81b025328f3$__63d2c232b56010600f60065460056040518563ffffffff1660e01b8152600401620009f8949392919062003cb1565b60006040518083038186803b15801562000a1157600080fd5b505af415801562000a26573d6000803e3d6000fd5b50505050565b600c602052816000526040600020818154811062000a4957600080fd5b90600052602060002001600091509150505481565b600a60009054906101000a900473ffffffffffffffffffffffffffffffffffffffff1673ffffffffffffffffffffffffffffffffffffffff163373ffffffffffffffffffffffffffffffffffffffff161462000af1576040517f08c379a000000000000000000000000000000000000000000000000000000000815260040162000ae89062003e5b565b60405180910390fd5b6000600f8054905060075462000b08919062004166565b90506000600f60008154811062000b245762000b2362004419565b5b9060005260206000200160009054906101000a900473ffffffffffffffffffffffffffffffffffffffff169050601560009054906101000a900473ffffffffffffffffffffffffffffffffffffffff1673ffffffffffffffffffffffffffffffffffffffff166323b872dd3083856040518463ffffffff1660e01b815260040162000bb29392919062003bc5565b602060405180830381600087803b15801562000bcd57600080fd5b505af115801562000be2573d6000803e3d6000fd5b505050506040513d601f19601f8201168201806040525081019062000c089190620034a2565b505050565b600a60009054906101000a900473ffffffffffffffffffffffffffffffffffffffff1681565b600062000c3f62002e80565b73ffffffffffffffffffffffffffffffffffffffff1662000c5f62001e18565b73ffffffffffffffffffffffffffffffffffffffff161462000cb8576040517f08c379a000000000000000000000000000000000000000000000000000000000815260040162000caf9062003e17565b60405180910390fd5b60005b825181101562000d0e5762000ced83828151811062000cdf5762000cde62004419565b5b602002602001015162000d6b565b1562000cf857600191505b808062000d05906200436d565b91505062000cbb565b50919050565b600f818154811062000d2557600080fd5b906000526020600020016000915054906101000a900473ffffffffffffffffffffffffffffffffffffffff1681565b6000600a60159054906101000a900460ff16905090565b600062000d7762002e80565b73ffffffffffffffffffffffffffffffffffffffff1662000d9762001e18565b73ffffffffffffffffffffffffffffffffffffffff161462000df0576040517f08c379a000000000000000000000000000000000000000000000000000000000815260040162000de79062003e17565b60405180910390fd5b600160008373ffffffffffffffffffffffffffffffffffffffff1673ffffffffffffffffffffffffffffffffffffffff16815260200190815260200160002060009054906101000a900460ff161562000ef5576000600160008473ffffffffffffffffffffffffffffffffffffffff1673ffffffffffffffffffffffffffffffffffffffff16815260200190815260200160002060006101000a81548160ff0219169083151502179055507ff1abf01a1043b7c244d128e8595cf0c1d10743b022b03a02dffd8ca3bf729f5a8260405162000ecc919062003ba8565b60405180910390a160016002600082825462000ee99190620041c7565b92505081905550600190505b919050565b606060106000838152602001908152602001600020805480602002602001604051908101604052809291908181526020016000905b8282101562000fe057838290600052602060002090600202016040518060200160405290816000820160028060200260405190810160405280929190826002801562000fc7576020028201915b8160009054906101000a900473ffffffffffffffffffffffffffffffffffffffff1673ffffffffffffffffffffffffffffffffffffffff168152602001906001019080831162000f7c575b5050505050815250508152602001906001019062000f2f565b505050509050919050565b600a60009054906101000a900473ffffffffffffffffffffffffffffffffffffffff1673ffffffffffffffffffffffffffffffffffffffff163373ffffffffffffffffffffffffffffffffffffffff16146200107e576040517f08c379a0000000000000000000000000000000000000000000000000000000008152600401620010759062003e5b565b60405180910390fd5b73__$36fdb4e0c2cb91f3ceca5ea81b025328f3$__6334395e34600854601260009054906101000a900473ffffffffffffffffffffffffffffffffffffffff16600c600d60106040518663ffffffff1660e01b8152600401620010e695949392919062003f44565b60006040518083038186803b158015620010ff57600080fd5b505af415801562001114573d6000803e3d6000fd5b505050506001600654620011299190620041c7565b600854141562001143576200113d62000a5e565b6200115e565b6008600081548092919062001158906200436d565b91905055505b565b600060019054906101000a900460ff166200118a5760008054906101000a900460ff161562001195565b6200119462002e88565b5b620011d7576040517f08c379a0000000000000000000000000000000000000000000000000000000008152600401620011ce9062003df5565b60405180910390fd5b60008060019054906101000a900460ff16159050801562001228576001600060016101000a81548160ff02191690831515021790555060016000806101000a81548160ff0219169083151502179055505b8b8b600591906200123b92919062003049565b5060086006819055506001600e60008973ffffffffffffffffffffffffffffffffffffffff1673ffffffffffffffffffffffffffffffffffffffff16815260200190815260200160002060006101000a81548160ff021916908315150217905550600f879080600181540180825580915050600190039060005260206000200160009091909190916101000a81548173ffffffffffffffffffffffffffffffffffffffff021916908373ffffffffffffffffffffffffffffffffffffffff16021790555086600960006101000a81548173ffffffffffffffffffffffffffffffffffffffff021916908373ffffffffffffffffffffffffffffffffffffffff1602179055508960078190555088600360006101000a81548160ff0219169083151502179055506000600a60146101000a81548160ff0219169083151502179055506000600a60156101000a81548160ff02191690831515021790555087601260006101000a81548173ffffffffffffffffffffffffffffffffffffffff021916908373ffffffffffffffffffffffffffffffffffffffff16021790555081601460006101000a81548173ffffffffffffffffffffffffffffffffffffffff021916908373ffffffffffffffffffffffffffffffffffffffff1602179055506040516200142790620030da565b604051809103906000f08015801562001444573d6000803e3d6000fd5b50601360006101000a81548173ffffffffffffffffffffffffffffffffffffffff021916908373ffffffffffffffffffffffffffffffffffffffff16021790555085601160006101000a81548173ffffffffffffffffffffffffffffffffffffffff021916908373ffffffffffffffffffffffffffffffffffffffff16021790555084601560006101000a81548173ffffffffffffffffffffffffffffffffffffffff021916908373ffffffffffffffffffffffffffffffffffffffff16021790555082600a60006101000a81548173ffffffffffffffffffffffffffffffffffffffff021916908373ffffffffffffffffffffffffffffffffffffffff16021790555083601660006101000a81548173ffffffffffffffffffffffffffffffffffffffff021916908373ffffffffffffffffffffffffffffffffffffffff160217905550620015c96040518060400160405280601281526020017f50726f787920696e697469616c697a656421000000000000000000000000000081525062002e9b565b8015620015eb5760008060016101000a81548160ff0219169083151502179055505b505050505050505050505050565b6000600e60003373ffffffffffffffffffffffffffffffffffffffff1673ffffffffffffffffffffffffffffffffffffffff16815260200190815260200160002060009054906101000a900460ff166200165257600080fd5b601560009054906101000a900473ffffffffffffffffffffffffffffffffffffffff1673ffffffffffffffffffffffffffffffffffffffff166370a08231306040518263ffffffff1660e01b8152600401620016af919062003ba8565b60206040518083038186803b158015620016c857600080fd5b505afa158015620016dd573d6000803e3d6000fd5b505050506040513d601f19601f8201168201806040525081019062001703919062003620565b905090565b6000600254905090565b60085481565b6000600f80549050905090565b6000600e60003373ffffffffffffffffffffffffffffffffffffffff1673ffffffffffffffffffffffffffffffffffffffff16815260200190815260200160002060009054906101000a900460ff166200177e57600080fd5b601560009054906101000a900473ffffffffffffffffffffffffffffffffffffffff1673ffffffffffffffffffffffffffffffffffffffff166370a08231336040518263ffffffff1660e01b8152600401620017db919062003ba8565b60206040518083038186803b158015620017f457600080fd5b505afa15801562001809573d6000803e3d6000fd5b505050506040513d601f19601f820116820180604052508101906200182f919062003620565b905090565b60075481565b600a60149054906101000a900460ff1681565b6000600960009054906101000a900473ffffffffffffffffffffffffffffffffffffffff16905090565b6200188162002e80565b73ffffffffffffffffffffffffffffffffffffffff16620018a162001e18565b73ffffffffffffffffffffffffffffffffffffffff1614620018fa576040517f08c379a0000000000000000000000000000000000000000000000000000000008152600401620018f19062003e17565b60405180910390fd5b62001906600062002f38565b565b600960009054906101000a900473ffffffffffffffffffffffffffffffffffffffff1673ffffffffffffffffffffffffffffffffffffffff163373ffffffffffffffffffffffffffffffffffffffff16146200199b576040517f08c379a0000000000000000000000000000000000000000000000000000000008152600401620019929062003e39565b60405180910390fd5b601360009054906101000a900473ffffffffffffffffffffffffffffffffffffffff1673ffffffffffffffffffffffffffffffffffffffff16637b9417c8826040518263ffffffff1660e01b8152600401620019f8919062003ba8565b602060405180830381600087803b15801562001a1357600080fd5b505af115801562001a28573d6000803e3d6000fd5b505050506040513d601f19601f8201168201806040525081019062001a4e9190620034a2565b5050565b600062001a5e62002e80565b73ffffffffffffffffffffffffffffffffffffffff1662001a7e62001e18565b73ffffffffffffffffffffffffffffffffffffffff161462001ad7576040517f08c379a000000000000000000000000000000000000000000000000000000000815260040162001ace9062003e17565b60405180910390fd5b600160008373ffffffffffffffffffffffffffffffffffffffff1673ffffffffffffffffffffffffffffffffffffffff16815260200190815260200160002060009054906101000a900460ff1662001bda5760018060008473ffffffffffffffffffffffffffffffffffffffff1673ffffffffffffffffffffffffffffffffffffffff16815260200190815260200160002060006101000a81548160ff0219169083151502179055507fd1bba68c128cc3f427e5831b3c6f99f480b6efa6b9e80c757768f6124158cc3f8260405162001bb1919062003ba8565b60405180910390a160016002600082825462001bce919062004109565b92505081905550600190505b919050565b60065481565b6005805462001bf49062004301565b80601f016020809104026020016040519081016040528092919081815260200182805462001c229062004301565b801562001c735780601f1062001c475761010080835404028352916020019162001c73565b820191906000526020600020905b81548152906001019060200180831162001c5557829003601f168201915b505050505081565b600960009054906101000a900473ffffffffffffffffffffffffffffffffffffffff1673ffffffffffffffffffffffffffffffffffffffff163373ffffffffffffffffffffffffffffffffffffffff161462001d0e576040517f08c379a000000000000000000000000000000000000000000000000000000000815260040162001d059062003e39565b60405180910390fd5b600a60149054906101000a900460ff161562001d61576040517f08c379a000000000000000000000000000000000000000000000000000000000815260040162001d589062003e9f565b60405180910390fd5b601360009054906101000a900473ffffffffffffffffffffffffffffffffffffffff1673ffffffffffffffffffffffffffffffffffffffff1663286dd3f5826040518263ffffffff1660e01b815260040162001dbe919062003ba8565b602060405180830381600087803b15801562001dd957600080fd5b505af115801562001dee573d6000803e3d6000fd5b505050506040513d601f19601f8201168201806040525081019062001e149190620034a2565b5050565b60008060029054906101000a900473ffffffffffffffffffffffffffffffffffffffff16905090565b600e6020528060005260406000206000915054906101000a900460ff1681565b60016020528060005260406000206000915054906101000a900460ff1681565b600a60009054906101000a900473ffffffffffffffffffffffffffffffffffffffff1673ffffffffffffffffffffffffffffffffffffffff163373ffffffffffffffffffffffffffffffffffffffff161462001f14576040517f08c379a000000000000000000000000000000000000000000000000000000000815260040162001f0b9062003e5b565b60405180910390fd5b6000600a60156101000a81548160ff021916908315150217905550565b600a60009054906101000a900473ffffffffffffffffffffffffffffffffffffffff1673ffffffffffffffffffffffffffffffffffffffff163373ffffffffffffffffffffffffffffffffffffffff161462001fc4576040517f08c379a000000000000000000000000000000000000000000000000000000000815260040162001fbb9062003e5b565b60405180910390fd5b6001600a60156101000a81548160ff021916908315150217905550565b600160003373ffffffffffffffffffffffffffffffffffffffff1673ffffffffffffffffffffffffffffffffffffffff16815260200190815260200160002060009054906101000a900460ff1680620020465750600360009054906101000a900460ff165b62002088576040517f08c379a00000000000000000000000000000000000000000000000000000000081526004016200207f9062003d8f565b60405180910390fd5b60026004541415620020d1576040517f08c379a0000000000000000000000000000000000000000000000000000000008152600401620020c89062003ee3565b60405180910390fd5b6002600481905550600a60149054906101000a900460ff16156200212c576040517f08c379a0000000000000000000000000000000000000000000000000000000008152600401620021239062003f05565b60405180910390fd5b600e60003373ffffffffffffffffffffffffffffffffffffffff1673ffffffffffffffffffffffffffffffffffffffff16815260200190815260200160002060009054906101000a900460ff1615620021bc576040517f08c379a0000000000000000000000000000000000000000000000000000000008152600401620021b39062003d6d565b60405180910390fd5b600754601560009054906101000a900473ffffffffffffffffffffffffffffffffffffffff1673ffffffffffffffffffffffffffffffffffffffff166370a08231336040518263ffffffff1660e01b81526004016200221c919062003ba8565b60206040518083038186803b1580156200223557600080fd5b505afa1580156200224a573d6000803e3d6000fd5b505050506040513d601f19601f8201168201806040525081019062002270919062003620565b11620022b3576040517f08c379a0000000000000000000000000000000000000000000000000000000008152600401620022aa9062003d4b565b60405180910390fd5b6001600e60003373ffffffffffffffffffffffffffffffffffffffff1673ffffffffffffffffffffffffffffffffffffffff16815260200190815260200160002060006101000a81548160ff021916908315150217905550600f339080600181540180825580915050600190039060005260206000200160009091909190916101000a81548173ffffffffffffffffffffffffffffffffffffffff021916908373ffffffffffffffffffffffffffffffffffffffff160217905550601560009054906101000a900473ffffffffffffffffffffffffffffffffffffffff1673ffffffffffffffffffffffffffffffffffffffff166323b872dd33306007546040518463ffffffff1660e01b8152600401620023d19392919062003bc5565b602060405180830381600087803b158015620023ec57600080fd5b505af115801562002401573d6000803e3d6000fd5b505050506040513d601f19601f82011682018060405250810190620024279190620034a2565b507f9e71bc8eea02a63969f509818f2dafb9254532904319f9dbda79b67bd34a5f3d336007546040516200245d92919062003c02565b60405180910390a16001600481905550565b600d60205281600052604060002081815481106200248c57600080fd5b90600052602060002001600091509150505481565b600360009054906101000a900460ff1681565b6000620024c062002e80565b73ffffffffffffffffffffffffffffffffffffffff16620024e062001e18565b73ffffffffffffffffffffffffffffffffffffffff161462002539576040517f08c379a0000000000000000000000000000000000000000000000000000000008152600401620025309062003e17565b60405180910390fd5b60005b82518110156200258f576200256e83828151811062002560576200255f62004419565b5b602002602001015162001a52565b156200257957600191505b808062002586906200436d565b9150506200253c565b50919050565b6000600160008373ffffffffffffffffffffffffffffffffffffffff1673ffffffffffffffffffffffffffffffffffffffff16815260200190815260200160002060009054906101000a900460ff169050919050565b600a60009054906101000a900473ffffffffffffffffffffffffffffffffffffffff1673ffffffffffffffffffffffffffffffffffffffff163373ffffffffffffffffffffffffffffffffffffffff16146200267e576040517f08c379a0000000000000000000000000000000000000000000000000000000008152600401620026759062003e5b565b60405180910390fd5b6001600a60146101000a81548160ff021916908315150217905550565b6060600d60008373ffffffffffffffffffffffffffffffffffffffff1673ffffffffffffffffffffffffffffffffffffffff1681526020019081526020016000208054806020026020016040519081016040528092919081815260200182805480156200272857602002820191906000526020600020905b81548152602001906001019080831162002713575b50505050509050919050565b6200273e62002e80565b73ffffffffffffffffffffffffffffffffffffffff166200275e62001e18565b73ffffffffffffffffffffffffffffffffffffffff1614620027b7576040517f08c379a0000000000000000000000000000000000000000000000000000000008152600401620027ae9062003e17565b60405180910390fd5b600073ffffffffffffffffffffffffffffffffffffffff168173ffffffffffffffffffffffffffffffffffffffff1614156200282a576040517f08c379a0000000000000000000000000000000000000000000000000000000008152600401620028219062003d29565b60405180910390fd5b620028358162002f38565b50565b600a60159054906101000a900460ff16156200288b576040517f08c379a0000000000000000000000000000000000000000000000000000000008152600401620028829062003dd3565b60405180910390fd5b600e60003373ffffffffffffffffffffffffffffffffffffffff1673ffffffffffffffffffffffffffffffffffffffff16815260200190815260200160002060009054906101000a900460ff166200291a576040517f08c379a0000000000000000000000000000000000000000000000000000000008152600401620029119062003e7d565b60405180910390fd5b6000601460009054906101000a900473ffffffffffffffffffffffffffffffffffffffff1673ffffffffffffffffffffffffffffffffffffffff166306575c896040518163ffffffff1660e01b815260040160206040518083038186803b1580156200298557600080fd5b505afa1580156200299a573d6000803e3d6000fd5b505050506040513d601f19601f82011682018060405250810190620029c0919062003620565b905060005b600d60003373ffffffffffffffffffffffffffffffffffffffff1673ffffffffffffffffffffffffffffffffffffffff1681526020019081526020016000208054905081101562002ac557600b6000600d60003373ffffffffffffffffffffffffffffffffffffffff1673ffffffffffffffffffffffffffffffffffffffff168152602001908152602001600020838154811062002a685762002a6762004419565b5b90600052602060002001548152602001908152602001600020826008811062002a965762002a9562004419565b5b01600081548092919062002aaa90620042d2565b9190505550808062002abc906200436d565b915050620029c5565b5060005b825181101562002b4757600b600084838151811062002aed5762002aec62004419565b5b60200260200101518152602001908152602001600020826008811062002b185762002b1762004419565b5b01600081548092919062002b2c906200436d565b9190505550808062002b3e906200436d565b91505062002ac9565b5060005b825181101562002c7f576000601660009054906101000a900473ffffffffffffffffffffffffffffffffffffffff1673ffffffffffffffffffffffffffffffffffffffff1662fdd58e3386858151811062002bab5762002baa62004419565b5b60200260200101516040518363ffffffff1660e01b815260040162002bd292919062003c02565b60206040518083038186803b15801562002beb57600080fd5b505afa15801562002c00573d6000803e3d6000fd5b505050506040513d601f19601f8201168201806040525081019062002c26919062003620565b1162002c69576040517f08c379a000000000000000000000000000000000000000000000000000000000815260040162002c609062003ec1565b60405180910390fd5b808062002c76906200436d565b91505062002b4b565b5060005b825181101562002d6857600a8162002c9c919062004166565b83828151811062002cb25762002cb162004419565b5b60200260200101511015801562002d1057506001600a60018362002cd7919062004109565b62002ce3919062004166565b62002cef9190620041c7565b83828151811062002d055762002d0462004419565b5b602002602001015111155b62002d52576040517f08c379a000000000000000000000000000000000000000000000000000000000815260040162002d499062003db1565b60405180910390fd5b808062002d5f906200436d565b91505062002c83565b5081600d60003373ffffffffffffffffffffffffffffffffffffffff1673ffffffffffffffffffffffffffffffffffffffff168152602001908152602001600020908051906020019062002dbe929190620030e8565b505050565b600960009054906101000a900473ffffffffffffffffffffffffffffffffffffffff1681565b6060600c60003373ffffffffffffffffffffffffffffffffffffffff1673ffffffffffffffffffffffffffffffffffffffff16815260200190815260200160002080548060200260200160405190810160405280929190818152602001828054801562002e7657602002820191906000526020600020905b81548152602001906001019080831162002e61575b5050505050905090565b600033905090565b600062002e953062002ffd565b15905090565b62002f358160405160240162002eb2919062003d05565b6040516020818303038152906040527f41304fac000000000000000000000000000000000000000000000000000000007bffffffffffffffffffffffffffffffffffffffffffffffffffffffff19166020820180517bffffffffffffffffffffffffffffffffffffffffffffffffffffffff838183161783525050505062003020565b50565b60008060029054906101000a900473ffffffffffffffffffffffffffffffffffffffff16905081600060026101000a81548173ffffffffffffffffffffffffffffffffffffffff021916908373ffffffffffffffffffffffffffffffffffffffff1602179055508173ffffffffffffffffffffffffffffffffffffffff168173ffffffffffffffffffffffffffffffffffffffff167f8be0079c531659141344cd1fd0a4f28419497f9722a3daafe3b4186f6b6457e060405160405180910390a35050565b6000808273ffffffffffffffffffffffffffffffffffffffff163b119050919050565b60008151905060006a636f6e736f6c652e6c6f679050602083016000808483855afa5050505050565b828054620030579062004301565b90600052602060002090601f0160209004810192826200307b5760008555620030c7565b82601f106200309657803560ff1916838001178555620030c7565b82800160010185558215620030c7579182015b82811115620030c6578235825591602001919060010190620030a9565b5b509050620030d691906200313a565b5090565b611059806200486183390190565b82805482825590600052602060002090810192821562003127579160200282015b828111156200312657825182559160200191906001019062003109565b5b5090506200313691906200313a565b5090565b5b80821115620031555760008160009055506001016200313b565b5090565b6000620031706200316a8462003fca565b62003fa1565b9050808382526020820190508285602086028201111562003196576200319562004481565b5b60005b85811015620031ca5781620031af88826200324f565b84526020840193506020830192505060018101905062003199565b5050509392505050565b6000620031eb620031e58462003ff9565b62003fa1565b9050808382526020820190508285602086028201111562003211576200321062004481565b5b60005b858110156200324557816200322a888262003359565b84526020840193506020830192505060018101905062003214565b5050509392505050565b600081359050620032608162004812565b92915050565b600082601f8301126200327e576200327d6200447c565b5b81356200329084826020860162003159565b91505092915050565b600082601f830112620032b157620032b06200447c565b5b8135620032c3848260208601620031d4565b91505092915050565b600081359050620032dd816200482c565b92915050565b600081519050620032f4816200482c565b92915050565b60008083601f8401126200331357620033126200447c565b5b8235905067ffffffffffffffff81111562003333576200333262004477565b5b60208301915083600182028301111562003352576200335162004481565b5b9250929050565b6000813590506200336a8162004846565b92915050565b600081519050620033818162004846565b92915050565b600060208284031215620033a0576200339f6200448b565b5b6000620033b0848285016200324f565b91505092915050565b60008060408385031215620033d357620033d26200448b565b5b6000620033e3858286016200324f565b9250506020620033f68582860162003359565b9150509250929050565b6000602082840312156200341957620034186200448b565b5b600082013567ffffffffffffffff8111156200343a576200343962004486565b5b620034488482850162003266565b91505092915050565b6000602082840312156200346a57620034696200448b565b5b600082013567ffffffffffffffff8111156200348b576200348a62004486565b5b620034998482850162003299565b91505092915050565b600060208284031215620034bb57620034ba6200448b565b5b6000620034cb84828501620032e3565b91505092915050565b60008060008060008060008060008060006101408c8e031215620034fd57620034fc6200448b565b5b60008c013567ffffffffffffffff8111156200351e576200351d62004486565b5b6200352c8e828f01620032fa565b9b509b50506020620035418e828f0162003359565b9950506040620035548e828f01620032cc565b9850506060620035678e828f016200324f565b97505060806200357a8e828f016200324f565b96505060a06200358d8e828f016200324f565b95505060c0620035a08e828f016200324f565b94505060e0620035b38e828f016200324f565b935050610100620035c78e828f016200324f565b925050610120620035db8e828f016200324f565b9150509295989b509295989b9093969950565b6000602082840312156200360757620036066200448b565b5b6000620036178482850162003359565b91505092915050565b6000602082840312156200363957620036386200448b565b5b6000620036498482850162003370565b91505092915050565b6000620036608383620036a0565b60208301905092915050565b60006200367a838362003b57565b60408301905092915050565b600062003694838362003b75565b60208301905092915050565b620036ab8162004202565b82525050565b620036bc8162004202565b82525050565b620036cd8162004067565b620036d98184620040ba565b9250620036e68262004028565b8060005b838110156200371d57815162003701878262003652565b96506200370e8362004093565b925050600181019050620036ea565b505050505050565b8082525050565b6000620037398262004072565b620037458185620040c5565b9350620037528362004032565b8060005b83811015620037895781516200376d88826200366c565b97506200377a83620040a0565b92505060018101905062003756565b5085935050505092915050565b6000620037a3826200407d565b620037af8185620040d6565b9350620037bc8362004042565b8060005b83811015620037f3578151620037d7888262003686565b9750620037e483620040ad565b925050600181019050620037c0565b5085935050505092915050565b6200380b8162004216565b82525050565b6200381c816200424c565b82525050565b6200382d8162004260565b82525050565b8082525050565b8082525050565b60006200384e8262004088565b6200385a8185620040e7565b93506200386c8185602086016200429c565b620038778162004490565b840191505092915050565b60008154620038918162004301565b6200389d8186620040f8565b94506001821660008114620038bb5760018114620038ce5762003905565b60ff198316865260208601935062003905565b620038d98562004052565b60005b83811015620038fd57815481890152600182019150602081019050620038dc565b808801955050505b50505092915050565b60006200391d602683620040e7565b91506200392a82620044a1565b604082019050919050565b600062003944601d83620040e7565b91506200395182620044f0565b602082019050919050565b60006200396b602383620040e7565b9150620039788262004519565b604082019050919050565b600062003992601a83620040e7565b91506200399f8262004568565b602082019050919050565b6000620039b9603183620040e7565b9150620039c68262004591565b604082019050919050565b6000620039e0601e83620040e7565b9150620039ed82620045e0565b602082019050919050565b600062003a07602e83620040e7565b915062003a148262004609565b604082019050919050565b600062003a2e602083620040e7565b915062003a3b8262004658565b602082019050919050565b600062003a55601783620040e7565b915062003a628262004681565b602082019050919050565b600062003a7c601683620040e7565b915062003a8982620046aa565b602082019050919050565b600062003aa3601683620040e7565b915062003ab082620046d3565b602082019050919050565b600062003aca604183620040e7565b915062003ad782620046fc565b606082019050919050565b600062003af1602483620040e7565b915062003afe8262004771565b604082019050919050565b600062003b18601f83620040e7565b915062003b2582620047c0565b602082019050919050565b600062003b3f601783620040e7565b915062003b4c82620047e9565b602082019050919050565b60408201600082015162003b6f6000850182620036c2565b50505050565b62003b808162004242565b82525050565b62003b918162004242565b82525050565b62003ba28162004242565b82525050565b600060208201905062003bbf6000830184620036b1565b92915050565b600060608201905062003bdc6000830186620036b1565b62003beb6020830185620036b1565b62003bfa604083018462003b86565b949350505050565b600060408201905062003c196000830185620036b1565b62003c28602083018462003b86565b9392505050565b6000602082019050818103600083015262003c4b81846200372c565b905092915050565b6000602082019050818103600083015262003c6f818462003796565b905092915050565b600060208201905062003c8e600083018462003800565b92915050565b600060208201905062003cab600083018462003822565b92915050565b600060808201905062003cc860008301876200383a565b62003cd7602083018662003725565b62003ce6604083018562003b97565b818103606083015262003cfa818462003882565b905095945050505050565b6000602082019050818103600083015262003d21818462003841565b905092915050565b6000602082019050818103600083015262003d44816200390e565b9050919050565b6000602082019050818103600083015262003d668162003935565b9050919050565b6000602082019050818103600083015262003d88816200395c565b9050919050565b6000602082019050818103600083015262003daa8162003983565b9050919050565b6000602082019050818103600083015262003dcc81620039aa565b9050919050565b6000602082019050818103600083015262003dee81620039d1565b9050919050565b6000602082019050818103600083015262003e1081620039f8565b9050919050565b6000602082019050818103600083015262003e328162003a1f565b9050919050565b6000602082019050818103600083015262003e548162003a46565b9050919050565b6000602082019050818103600083015262003e768162003a6d565b9050919050565b6000602082019050818103600083015262003e988162003a94565b9050919050565b6000602082019050818103600083015262003eba8162003abb565b9050919050565b6000602082019050818103600083015262003edc8162003ae2565b9050919050565b6000602082019050818103600083015262003efe8162003b09565b9050919050565b6000602082019050818103600083015262003f208162003b30565b9050919050565b600060208201905062003f3e600083018462003b86565b92915050565b600060a08201905062003f5b600083018862003b97565b62003f6a602083018762003811565b62003f79604083018662003833565b62003f88606083018562003833565b62003f9760808301846200383a565b9695505050505050565b600062003fad62003fc0565b905062003fbb828262004337565b919050565b6000604051905090565b600067ffffffffffffffff82111562003fe85762003fe762004448565b5b602082029050602081019050919050565b600067ffffffffffffffff82111562004017576200401662004448565b5b602082029050602081019050919050565b6000819050919050565b6000819050602082019050919050565b6000819050602082019050919050565b60008190508160005260206000209050919050565b600060029050919050565b600081519050919050565b600081519050919050565b600081519050919050565b6000602082019050919050565b6000602082019050919050565b6000602082019050919050565b600081905092915050565b600082825260208201905092915050565b600082825260208201905092915050565b600082825260208201905092915050565b600082825260208201905092915050565b6000620041168262004242565b9150620041238362004242565b9250827fffffffffffffffffffffffffffffffffffffffffffffffffffffffffffffffff038211156200415b576200415a620043bb565b5b828201905092915050565b6000620041738262004242565b9150620041808362004242565b9250817fffffffffffffffffffffffffffffffffffffffffffffffffffffffffffffffff0483118215151615620041bc57620041bb620043bb565b5b828202905092915050565b6000620041d48262004242565b9150620041e18362004242565b925082821015620041f757620041f6620043bb565b5b828203905092915050565b60006200420f8262004222565b9050919050565b60008115159050919050565b600073ffffffffffffffffffffffffffffffffffffffff82169050919050565b6000819050919050565b6000620042598262004274565b9050919050565b60006200426d8262004274565b9050919050565b6000620042818262004288565b9050919050565b6000620042958262004222565b9050919050565b60005b83811015620042bc5780820151818401526020810190506200429f565b83811115620042cc576000848401525b50505050565b6000620042df8262004242565b91506000821415620042f657620042f5620043bb565b5b600182039050919050565b600060028204905060018216806200431a57607f821691505b60208210811415620043315762004330620043ea565b5b50919050565b620043428262004490565b810181811067ffffffffffffffff8211171562004364576200436362004448565b5b80604052505050565b60006200437a8262004242565b91507fffffffffffffffffffffffffffffffffffffffffffffffffffffffffffffffff821415620043b057620043af620043bb565b5b600182019050919050565b7f4e487b7100000000000000000000000000000000000000000000000000000000600052601160045260246000fd5b7f4e487b7100000000000000000000000000000000000000000000000000000000600052602260045260246000fd5b7f4e487b7100000000000000000000000000000000000000000000000000000000600052603260045260246000fd5b7f4e487b7100000000000000000000000000000000000000000000000000000000600052604160045260246000fd5b600080fd5b600080fd5b600080fd5b600080fd5b600080fd5b6000601f19601f8301169050919050565b7f4f776e61626c653a206e6577206f776e657220697320746865207a65726f206160008201527f6464726573730000000000000000000000000000000000000000000000000000602082015250565b7f496e737566666963656e742066756e647320666f72207374616b696e67000000600082015250565b7f596f75206861766520616c7265616479206a6f696e65642074686973206c656160008201527f6775650000000000000000000000000000000000000000000000000000000000602082015250565b7f55736572206973206e6f742077686974656c6973746564203a28000000000000600082015250565b7f596f75206172652073657474696e6720616e206174686c65746520696e20746860008201527f652077726f6e6720706f736974696f6e21000000000000000000000000000000602082015250565b7f6c696e657570206973206c6f636b656420666f7220746865207765656b210000600082015250565b7f496e697469616c697a61626c653a20636f6e747261637420697320616c72656160008201527f647920696e697469616c697a6564000000000000000000000000000000000000602082015250565b7f4f776e61626c653a2063616c6c6572206973206e6f7420746865206f776e6572600082015250565b7f43616c6c6572206973206e6f74207468652061646d696e000000000000000000600082015250565b7f43616c6c6572206973206e6f74205465616d4469666600000000000000000000600082015250565b7f55736572206973206e6f7420696e204c65616775652e00000000000000000000600082015250565b7f4e6f626f64792063616e20656e7465722f6578697420746865206c656167756560008201527f20616e796d6f72652e2054686520736561736f6e20686173207374617274656460208201527f2100000000000000000000000000000000000000000000000000000000000000604082015250565b7f43616c6c657220646f6573206e6f74206f776e20676976656e206174686c657460008201527f6549647300000000000000000000000000000000000000000000000000000000602082015250565b7f5265656e7472616e637947756172643a207265656e7472616e742063616c6c00600082015250565b7f4c656167756520456e74727920697320436c6f73656421000000000000000000600082015250565b6200481d8162004202565b81146200482957600080fd5b50565b620048378162004216565b81146200484357600080fd5b50565b620048518162004242565b81146200485d57600080fd5b5056fe608060405234801561001057600080fd5b5061002d61002261003260201b60201c565b61003a60201b60201c565b6100fe565b600033905090565b60008060009054906101000a900473ffffffffffffffffffffffffffffffffffffffff169050816000806101000a81548173ffffffffffffffffffffffffffffffffffffffff021916908373ffffffffffffffffffffffffffffffffffffffff1602179055508173ffffffffffffffffffffffffffffffffffffffff168173ffffffffffffffffffffffffffffffffffffffff167f8be0079c531659141344cd1fd0a4f28419497f9722a3daafe3b4186f6b6457e060405160405180910390a35050565b610f4c8061010d6000396000f3fe608060405234801561001057600080fd5b50600436106100a95760003560e01c80638da5cb5b116100715780638da5cb5b146101665780639b19251a14610184578063dc9a1535146101b4578063e2ec6ec3146101d2578063e35a899914610202578063f2fde38b14610232576100a9565b806324953eaa146100ae578063286dd3f5146100de57806344eaa84e1461010e578063715018a61461012c5780637b9417c814610136575b600080fd5b6100c860048036038101906100c39190610ada565b61024e565b6040516100d59190610bb1565b60405180910390f35b6100f860048036038101906100f39190610aad565b61031e565b6040516101059190610bb1565b60405180910390f35b6101166104a1565b6040516101239190610c0c565b60405180910390f35b6101346104ab565b005b610150600480360381019061014b9190610aad565b610533565b60405161015d9190610bb1565b60405180910390f35b61016e6106b4565b60405161017b9190610b96565b60405180910390f35b61019e60048036038101906101999190610aad565b6106dd565b6040516101ab9190610bb1565b60405180910390f35b6101bc6106fd565b6040516101c99190610bb1565b60405180910390f35b6101ec60048036038101906101e79190610ada565b610710565b6040516101f99190610bb1565b60405180910390f35b61021c60048036038101906102179190610aad565b6107e0565b6040516102299190610bb1565b60405180910390f35b61024c60048036038101906102479190610aad565b610836565b005b600061025861092e565b73ffffffffffffffffffffffffffffffffffffffff166102766106b4565b73ffffffffffffffffffffffffffffffffffffffff16146102cc576040517f08c379a00000000000000000000000000000000000000000000000000000000081526004016102c390610bec565b60405180910390fd5b60005b8251811015610318576102fb8382815181106102ee576102ed610e04565b5b602002602001015161031e565b1561030557600191505b808061031090610d8c565b9150506102cf565b50919050565b600061032861092e565b73ffffffffffffffffffffffffffffffffffffffff166103466106b4565b73ffffffffffffffffffffffffffffffffffffffff161461039c576040517f08c379a000000000000000000000000000000000000000000000000000000000815260040161039390610bec565b60405180910390fd5b600160008373ffffffffffffffffffffffffffffffffffffffff1673ffffffffffffffffffffffffffffffffffffffff16815260200190815260200160002060009054906101000a900460ff161561049c576000600160008473ffffffffffffffffffffffffffffffffffffffff1673ffffffffffffffffffffffffffffffffffffffff16815260200190815260200160002060006101000a81548160ff0219169083151502179055507ff1abf01a1043b7c244d128e8595cf0c1d10743b022b03a02dffd8ca3bf729f5a826040516104759190610b96565b60405180910390a16001600260008282546104909190610cdf565b92505081905550600190505b919050565b6000600254905090565b6104b361092e565b73ffffffffffffffffffffffffffffffffffffffff166104d16106b4565b73ffffffffffffffffffffffffffffffffffffffff1614610527576040517f08c379a000000000000000000000000000000000000000000000000000000000815260040161051e90610bec565b60405180910390fd5b6105316000610936565b565b600061053d61092e565b73ffffffffffffffffffffffffffffffffffffffff1661055b6106b4565b73ffffffffffffffffffffffffffffffffffffffff16146105b1576040517f08c379a00000000000000000000000000000000000000000000000000000000081526004016105a890610bec565b60405180910390fd5b600160008373ffffffffffffffffffffffffffffffffffffffff1673ffffffffffffffffffffffffffffffffffffffff16815260200190815260200160002060009054906101000a900460ff166106af5760018060008473ffffffffffffffffffffffffffffffffffffffff1673ffffffffffffffffffffffffffffffffffffffff16815260200190815260200160002060006101000a81548160ff0219169083151502179055507fd1bba68c128cc3f427e5831b3c6f99f480b6efa6b9e80c757768f6124158cc3f826040516106889190610b96565b60405180910390a16001600260008282546106a39190610c89565b92505081905550600190505b919050565b60008060009054906101000a900473ffffffffffffffffffffffffffffffffffffffff16905090565b60016020528060005260406000206000915054906101000a900460ff1681565b600360009054906101000a900460ff1681565b600061071a61092e565b73ffffffffffffffffffffffffffffffffffffffff166107386106b4565b73ffffffffffffffffffffffffffffffffffffffff161461078e576040517f08c379a000000000000000000000000000000000000000000000000000000000815260040161078590610bec565b60405180910390fd5b60005b82518110156107da576107bd8382815181106107b0576107af610e04565b5b6020026020010151610533565b156107c757600191505b80806107d290610d8c565b915050610791565b50919050565b6000600160008373ffffffffffffffffffffffffffffffffffffffff1673ffffffffffffffffffffffffffffffffffffffff16815260200190815260200160002060009054906101000a900460ff169050919050565b61083e61092e565b73ffffffffffffffffffffffffffffffffffffffff1661085c6106b4565b73ffffffffffffffffffffffffffffffffffffffff16146108b2576040517f08c379a00000000000000000000000000000000000000000000000000000000081526004016108a990610bec565b60405180910390fd5b600073ffffffffffffffffffffffffffffffffffffffff168173ffffffffffffffffffffffffffffffffffffffff161415610922576040517f08c379a000000000000000000000000000000000000000000000000000000000815260040161091990610bcc565b60405180910390fd5b61092b81610936565b50565b600033905090565b60008060009054906101000a900473ffffffffffffffffffffffffffffffffffffffff169050816000806101000a81548173ffffffffffffffffffffffffffffffffffffffff021916908373ffffffffffffffffffffffffffffffffffffffff1602179055508173ffffffffffffffffffffffffffffffffffffffff168173ffffffffffffffffffffffffffffffffffffffff167f8be0079c531659141344cd1fd0a4f28419497f9722a3daafe3b4186f6b6457e060405160405180910390a35050565b6000610a0d610a0884610c4c565b610c27565b90508083825260208201905082856020860282011115610a3057610a2f610e67565b5b60005b85811015610a605781610a468882610a6a565b845260208401935060208301925050600181019050610a33565b5050509392505050565b600081359050610a7981610eff565b92915050565b600082601f830112610a9457610a93610e62565b5b8135610aa48482602086016109fa565b91505092915050565b600060208284031215610ac357610ac2610e71565b5b6000610ad184828501610a6a565b91505092915050565b600060208284031215610af057610aef610e71565b5b600082013567ffffffffffffffff811115610b0e57610b0d610e6c565b5b610b1a84828501610a7f565b91505092915050565b610b2c81610d13565b82525050565b610b3b81610d25565b82525050565b6000610b4e602683610c78565b9150610b5982610e87565b604082019050919050565b6000610b71602083610c78565b9150610b7c82610ed6565b602082019050919050565b610b9081610d51565b82525050565b6000602082019050610bab6000830184610b23565b92915050565b6000602082019050610bc66000830184610b32565b92915050565b60006020820190508181036000830152610be581610b41565b9050919050565b60006020820190508181036000830152610c0581610b64565b9050919050565b6000602082019050610c216000830184610b87565b92915050565b6000610c31610c42565b9050610c3d8282610d5b565b919050565b6000604051905090565b600067ffffffffffffffff821115610c6757610c66610e33565b5b602082029050602081019050919050565b600082825260208201905092915050565b6000610c9482610d51565b9150610c9f83610d51565b9250827fffffffffffffffffffffffffffffffffffffffffffffffffffffffffffffffff03821115610cd457610cd3610dd5565b5b828201905092915050565b6000610cea82610d51565b9150610cf583610d51565b925082821015610d0857610d07610dd5565b5b828203905092915050565b6000610d1e82610d31565b9050919050565b60008115159050919050565b600073ffffffffffffffffffffffffffffffffffffffff82169050919050565b6000819050919050565b610d6482610e76565b810181811067ffffffffffffffff82111715610d8357610d82610e33565b5b80604052505050565b6000610d9782610d51565b91507fffffffffffffffffffffffffffffffffffffffffffffffffffffffffffffffff821415610dca57610dc9610dd5565b5b600182019050919050565b7f4e487b7100000000000000000000000000000000000000000000000000000000600052601160045260246000fd5b7f4e487b7100000000000000000000000000000000000000000000000000000000600052603260045260246000fd5b7f4e487b7100000000000000000000000000000000000000000000000000000000600052604160045260246000fd5b600080fd5b600080fd5b600080fd5b600080fd5b6000601f19601f8301169050919050565b7f4f776e61626c653a206e6577206f776e657220697320746865207a65726f206160008201527f6464726573730000000000000000000000000000000000000000000000000000602082015250565b7f4f776e61626c653a2063616c6c6572206973206e6f7420746865206f776e6572600082015250565b610f0881610d13565b8114610f1357600080fd5b5056fea264697066735822122013c44309da17edb16daca538fef0ec10185f0de3a32833486ee12942c2821a9b64736f6c63430008070033a2646970667358221220599e377d39d3d623d4715c72dfa516ba96143d6bc03565d3b19e94130272e1db64736f6c63430008070033",
  "linkReferences": {
    "contracts/MOBALogicLibrary.sol": {
      "MOBALogicLibrary": [
        {
          "length": 20,
          "start": 2771
        },
        {
          "length": 20,
          "start": 4509
        }
      ]
    }
  },
  "deployedLinkReferences": {
    "contracts/MOBALogicLibrary.sol": {
      "MOBALogicLibrary": [
        {
          "length": 20,
          "start": 2486
        },
        {
          "length": 20,
          "start": 4224
        }
      ]
    }
  }
}