{
  "_format": "hh-sol-artifact-1",
  "contractName": "LeagueOfLegendsLogic",
  "sourceName": "contracts/LeagueOfLegendsLogic.sol",
  "abi": [
    {
      "anonymous": false,
      "inputs": [
        {
          "indexed": true,
          "internalType": "address",
          "name": "previousOwner",
          "type": "address"
        },
        {
          "indexed": true,
          "internalType": "address",
          "name": "newOwner",
          "type": "address"
        }
      ],
      "name": "OwnershipTransferred",
      "type": "event"
    },
    {
      "anonymous": false,
      "inputs": [
        {
          "indexed": true,
          "internalType": "bytes32",
          "name": "role",
          "type": "bytes32"
        },
        {
          "indexed": true,
          "internalType": "bytes32",
          "name": "previousAdminRole",
          "type": "bytes32"
        },
        {
          "indexed": true,
          "internalType": "bytes32",
          "name": "newAdminRole",
          "type": "bytes32"
        }
      ],
      "name": "RoleAdminChanged",
      "type": "event"
    },
    {
      "anonymous": false,
      "inputs": [
        {
          "indexed": true,
          "internalType": "bytes32",
          "name": "role",
          "type": "bytes32"
        },
        {
          "indexed": true,
          "internalType": "address",
          "name": "account",
          "type": "address"
        },
        {
          "indexed": true,
          "internalType": "address",
          "name": "sender",
          "type": "address"
        }
      ],
      "name": "RoleGranted",
      "type": "event"
    },
    {
      "anonymous": false,
      "inputs": [
        {
          "indexed": true,
          "internalType": "bytes32",
          "name": "role",
          "type": "bytes32"
        },
        {
          "indexed": true,
          "internalType": "address",
          "name": "account",
          "type": "address"
        },
        {
          "indexed": true,
          "internalType": "address",
          "name": "sender",
          "type": "address"
        }
      ],
      "name": "RoleRevoked",
      "type": "event"
    },
    {
      "anonymous": false,
      "inputs": [
        {
          "indexed": false,
          "internalType": "address",
          "name": "sender",
          "type": "address"
        },
        {
          "indexed": false,
          "internalType": "uint256",
          "name": "amount",
          "type": "uint256"
        }
      ],
      "name": "Staked",
      "type": "event"
    },
    {
      "anonymous": false,
      "inputs": [
        {
          "indexed": false,
          "internalType": "address",
          "name": "addr",
          "type": "address"
        }
      ],
      "name": "WhitelistedAddressAdded",
      "type": "event"
    },
    {
      "anonymous": false,
      "inputs": [
        {
          "indexed": false,
          "internalType": "address",
          "name": "addr",
          "type": "address"
        }
      ],
      "name": "WhitelistedAddressRemoved",
      "type": "event"
    },
    {
      "inputs": [],
      "name": "DEFAULT_ADMIN_ROLE",
      "outputs": [
        {
          "internalType": "bytes32",
          "name": "",
          "type": "bytes32"
        }
      ],
      "stateMutability": "view",
      "type": "function"
    },
    {
      "inputs": [
        {
          "internalType": "address",
          "name": "addr",
          "type": "address"
        }
      ],
      "name": "addAddressToWhitelist",
      "outputs": [
        {
          "internalType": "bool",
          "name": "success",
          "type": "bool"
        }
      ],
      "stateMutability": "nonpayable",
      "type": "function"
    },
    {
      "inputs": [
        {
          "internalType": "address[]",
          "name": "addrs",
          "type": "address[]"
        }
      ],
      "name": "addAddressesToWhitelist",
      "outputs": [
        {
          "internalType": "bool",
          "name": "success",
          "type": "bool"
        }
      ],
      "stateMutability": "nonpayable",
      "type": "function"
    },
    {
      "inputs": [],
      "name": "addUserToWhitelist",
      "outputs": [],
      "stateMutability": "nonpayable",
      "type": "function"
    },
    {
      "inputs": [
        {
          "components": [
            {
              "internalType": "uint256",
              "name": "kills",
              "type": "uint256"
            }
          ],
          "internalType": "struct LeagueOfLegendsLogic.Stats",
          "name": "athleteStats",
          "type": "tuple"
        }
      ],
      "name": "calculateScoreOnChain",
      "outputs": [
        {
          "internalType": "uint256",
          "name": "score",
          "type": "uint256"
        }
      ],
      "stateMutability": "pure",
      "type": "function"
    },
    {
      "inputs": [],
      "name": "currentWeekNum",
      "outputs": [
        {
          "internalType": "uint256",
          "name": "",
          "type": "uint256"
        }
      ],
      "stateMutability": "view",
      "type": "function"
    },
    {
      "inputs": [
        {
          "internalType": "uint256",
          "name": "currentWeekNum",
          "type": "uint256"
        }
      ],
      "name": "evaluateWeek",
      "outputs": [],
      "stateMutability": "nonpayable",
      "type": "function"
    },
    {
      "inputs": [],
      "name": "getLeagueName",
      "outputs": [
        {
          "internalType": "string",
          "name": "",
          "type": "string"
        }
      ],
      "stateMutability": "view",
      "type": "function"
    },
    {
      "inputs": [],
      "name": "getLineup",
      "outputs": [
        {
          "internalType": "uint256[]",
          "name": "",
          "type": "uint256[]"
        }
      ],
      "stateMutability": "view",
      "type": "function"
    },
    {
      "inputs": [
        {
          "internalType": "bytes32",
          "name": "role",
          "type": "bytes32"
        }
      ],
      "name": "getRoleAdmin",
      "outputs": [
        {
          "internalType": "bytes32",
          "name": "",
          "type": "bytes32"
        }
      ],
      "stateMutability": "view",
      "type": "function"
    },
    {
      "inputs": [],
      "name": "getStakeAmount",
      "outputs": [
        {
          "internalType": "uint256",
          "name": "stakeAmount",
          "type": "uint256"
        }
      ],
      "stateMutability": "view",
      "type": "function"
    },
    {
      "inputs": [],
      "name": "getTotalPrizePot",
      "outputs": [
        {
          "internalType": "uint256",
          "name": "",
          "type": "uint256"
        }
      ],
      "stateMutability": "view",
      "type": "function"
    },
    {
      "inputs": [
        {
          "internalType": "address",
          "name": "_token",
          "type": "address"
        }
      ],
      "name": "getUSDCBalance",
      "outputs": [
        {
          "internalType": "uint256",
          "name": "",
          "type": "uint256"
        }
      ],
      "stateMutability": "view",
      "type": "function"
    },
    {
      "inputs": [],
      "name": "getUserRecord",
      "outputs": [
        {
          "internalType": "uint256[8]",
          "name": "",
          "type": "uint256[8]"
        }
      ],
      "stateMutability": "view",
      "type": "function"
    },
    {
      "inputs": [],
      "name": "getUserTotalWins",
      "outputs": [
        {
          "internalType": "uint256",
          "name": "",
          "type": "uint256"
        }
      ],
      "stateMutability": "view",
      "type": "function"
    },
    {
      "inputs": [],
      "name": "getVersion",
      "outputs": [
        {
          "internalType": "uint256",
          "name": "version",
          "type": "uint256"
        }
      ],
      "stateMutability": "view",
      "type": "function"
    },
    {
      "inputs": [
        {
          "internalType": "bytes32",
          "name": "role",
          "type": "bytes32"
        },
        {
          "internalType": "address",
          "name": "account",
          "type": "address"
        }
      ],
      "name": "grantRole",
      "outputs": [],
      "stateMutability": "nonpayable",
      "type": "function"
    },
    {
      "inputs": [
        {
          "internalType": "bytes32",
          "name": "role",
          "type": "bytes32"
        },
        {
          "internalType": "address",
          "name": "account",
          "type": "address"
        }
      ],
      "name": "hasRole",
      "outputs": [
        {
          "internalType": "bool",
          "name": "",
          "type": "bool"
        }
      ],
      "stateMutability": "view",
      "type": "function"
    },
    {
      "inputs": [],
      "name": "incrementVersion",
      "outputs": [],
      "stateMutability": "nonpayable",
      "type": "function"
    },
    {
      "inputs": [
        {
          "internalType": "string",
          "name": "_name",
          "type": "string"
        },
        {
          "internalType": "uint256",
          "name": "_version",
          "type": "uint256"
        },
        {
          "internalType": "uint256",
          "name": "_stakeAmount",
          "type": "uint256"
        },
        {
          "internalType": "bool",
          "name": "_isPublic",
          "type": "bool"
        },
        {
          "internalType": "address",
          "name": "athletesDataStorageAddress",
          "type": "address"
        },
        {
          "internalType": "address",
          "name": "_admin",
          "type": "address"
        },
        {
          "internalType": "address",
          "name": "_polygonUSDCAddress",
          "type": "address"
        },
        {
          "internalType": "address",
          "name": "_rinkebyUSDCAddress",
          "type": "address"
        },
        {
          "internalType": "address",
          "name": "leagueMakerContractAddress",
          "type": "address"
        }
      ],
      "name": "initialize",
      "outputs": [],
      "stateMutability": "nonpayable",
      "type": "function"
    },
    {
      "inputs": [],
      "name": "isPublic",
      "outputs": [
        {
          "internalType": "bool",
          "name": "",
          "type": "bool"
        }
      ],
      "stateMutability": "view",
      "type": "function"
    },
    {
      "inputs": [],
      "name": "joinLeague",
      "outputs": [],
      "stateMutability": "nonpayable",
      "type": "function"
    },
    {
      "inputs": [
        {
          "internalType": "uint256",
          "name": "",
          "type": "uint256"
        }
      ],
      "name": "leagueMembers",
      "outputs": [
        {
          "internalType": "address",
          "name": "",
          "type": "address"
        }
      ],
      "stateMutability": "view",
      "type": "function"
    },
    {
      "inputs": [],
      "name": "leagueName",
      "outputs": [
        {
          "internalType": "string",
          "name": "",
          "type": "string"
        }
      ],
      "stateMutability": "view",
      "type": "function"
    },
    {
      "inputs": [],
      "name": "lockLineup",
      "outputs": [],
      "stateMutability": "nonpayable",
      "type": "function"
    },
    {
      "inputs": [],
      "name": "numWeeks",
      "outputs": [
        {
          "internalType": "uint256",
          "name": "",
          "type": "uint256"
        }
      ],
      "stateMutability": "view",
      "type": "function"
    },
    {
      "inputs": [],
      "name": "owner",
      "outputs": [
        {
          "internalType": "address",
          "name": "",
          "type": "address"
        }
      ],
      "stateMutability": "view",
      "type": "function"
    },
    {
      "inputs": [],
      "name": "polygonUSDCAddress",
      "outputs": [
        {
          "internalType": "address",
          "name": "",
          "type": "address"
        }
      ],
      "stateMutability": "view",
      "type": "function"
    },
    {
      "inputs": [
        {
          "internalType": "address",
          "name": "addr",
          "type": "address"
        }
      ],
      "name": "removeAddressFromWhitelist",
      "outputs": [
        {
          "internalType": "bool",
          "name": "success",
          "type": "bool"
        }
      ],
      "stateMutability": "nonpayable",
      "type": "function"
    },
    {
      "inputs": [
        {
          "internalType": "address[]",
          "name": "addrs",
          "type": "address[]"
        }
      ],
      "name": "removeAddressesFromWhitelist",
      "outputs": [
        {
          "internalType": "bool",
          "name": "success",
          "type": "bool"
        }
      ],
      "stateMutability": "nonpayable",
      "type": "function"
    },
    {
      "inputs": [],
      "name": "renounceOwnership",
      "outputs": [],
      "stateMutability": "nonpayable",
      "type": "function"
    },
    {
      "inputs": [
        {
          "internalType": "bytes32",
          "name": "role",
          "type": "bytes32"
        },
        {
          "internalType": "address",
          "name": "account",
          "type": "address"
        }
      ],
      "name": "renounceRole",
      "outputs": [],
      "stateMutability": "nonpayable",
      "type": "function"
    },
    {
      "inputs": [
        {
          "internalType": "bytes32",
          "name": "role",
          "type": "bytes32"
        },
        {
          "internalType": "address",
          "name": "account",
          "type": "address"
        }
      ],
      "name": "revokeRole",
      "outputs": [],
      "stateMutability": "nonpayable",
      "type": "function"
    },
    {
      "inputs": [],
      "name": "rinkebyUSDCAddress",
      "outputs": [
        {
          "internalType": "address",
          "name": "",
          "type": "address"
        }
      ],
      "stateMutability": "view",
      "type": "function"
    },
    {
      "inputs": [],
      "name": "setLeagueEntryIsClosed",
      "outputs": [],
      "stateMutability": "nonpayable",
      "type": "function"
    },
    {
      "inputs": [],
      "name": "setLeagueSchedule",
      "outputs": [],
      "stateMutability": "nonpayable",
      "type": "function"
    },
    {
      "inputs": [
        {
          "internalType": "uint256[]",
          "name": "athleteIds",
          "type": "uint256[]"
        }
      ],
      "name": "setLineup",
      "outputs": [],
      "stateMutability": "nonpayable",
      "type": "function"
    },
    {
      "inputs": [],
      "name": "stakeAmount",
      "outputs": [
        {
          "internalType": "uint256",
          "name": "",
          "type": "uint256"
        }
      ],
      "stateMutability": "view",
      "type": "function"
    },
    {
      "inputs": [
        {
          "internalType": "bytes4",
          "name": "interfaceId",
          "type": "bytes4"
        }
      ],
      "name": "supportsInterface",
      "outputs": [
        {
          "internalType": "bool",
          "name": "",
          "type": "bool"
        }
      ],
      "stateMutability": "view",
      "type": "function"
    },
    {
      "inputs": [
        {
          "internalType": "address",
          "name": "newOwner",
          "type": "address"
        }
      ],
      "name": "transferOwnership",
      "outputs": [],
      "stateMutability": "nonpayable",
      "type": "function"
    },
    {
      "inputs": [],
      "name": "unlockLineup",
      "outputs": [],
      "stateMutability": "nonpayable",
      "type": "function"
    },
    {
      "inputs": [
        {
          "internalType": "address",
          "name": "",
          "type": "address"
        },
        {
          "internalType": "uint256",
          "name": "",
          "type": "uint256"
        }
      ],
      "name": "userToRecord",
      "outputs": [
        {
          "internalType": "uint256",
          "name": "",
          "type": "uint256"
        }
      ],
      "stateMutability": "view",
      "type": "function"
    },
    {
      "inputs": [],
      "name": "version",
      "outputs": [
        {
          "internalType": "uint256",
          "name": "",
          "type": "uint256"
        }
      ],
      "stateMutability": "view",
      "type": "function"
    },
    {
      "inputs": [
        {
          "internalType": "address",
          "name": "",
          "type": "address"
        }
      ],
      "name": "whitelist",
      "outputs": [
        {
          "internalType": "bool",
          "name": "",
          "type": "bool"
        }
      ],
      "stateMutability": "view",
      "type": "function"
    }
  ],
  "bytecode": "0x60806040523480156200001157600080fd5b5062000032620000266200003860201b60201c565b6200004060201b60201c565b62000105565b600033905090565b60008060029054906101000a900473ffffffffffffffffffffffffffffffffffffffff16905081600060026101000a81548173ffffffffffffffffffffffffffffffffffffffff021916908373ffffffffffffffffffffffffffffffffffffffff1602179055508173ffffffffffffffffffffffffffffffffffffffff168173ffffffffffffffffffffffffffffffffffffffff167f8be0079c531659141344cd1fd0a4f28419497f9722a3daafe3b4186f6b6457e060405160405180910390a35050565b6158b680620001156000396000f3fe60806040523480156200001157600080fd5b5060043610620002af5760003560e01c80637b9417c81162000171578063ada3a28d11620000d5578063e2ec6ec31162000093578063e2ec6ec314620007f8578063e4c9066b146200082e578063e6bab8ad146200083a578063f2fde38b146200085c578063f612121a146200087c578063f8816045146200089c57620002af565b8063ada3a28d146200077c578063c8be3b5b146200079e578063c99fea9414620007aa578063d547741f14620007b6578063dc9a153514620007d657620002af565b806393f3706c116200012f57806393f3706c14620006b457806399a6003414620006d65780639b19251a14620006f85780639f2d5481146200072e578063a217fddf146200074e578063a2bc091a146200077057620002af565b80637b9417c814620005e25780637eed33f11462000618578063841abf6e146200063a5780638da5cb5b146200065c57806391d14854146200067e57620002af565b80632f2ff15d116200021957806356185d7411620001d757806356185d74146200051a57806360c7dc471462000550578063680247171462000572578063715018a614620005a8578063722580b614620005b45780637ac6aa1d14620005d657620002af565b80632f2ff15d146200047457806336568abe1462000494578063403570c514620004b457806352e6e5f314620004d657806354fd4d5014620004f857620002af565b80630d8e6e2c11620002735780630d8e6e2c146200036e578063248a9ca3146200039057806324953eaa14620003c6578063267175db14620003fc578063286dd3f514620004325780632cf0a1fc146200046857620002af565b8062b2476f14620002b457806301ffc9a714620002d65780630655465a146200030c5780630bdcd5f014620003185780630c6f79591462000338575b600080fd5b620002be620008be565b604051620002cd919062003e75565b60405180910390f35b620002f46004803603810190620002ee91906200381b565b620008e4565b60405162000303919062003f3e565b60405180910390f35b6200031662000961565b005b6200033660048036038101906200033091906200384d565b62001219565b005b62000356600480360381019062000350919062003687565b620015ac565b604051620003659190620040ac565b60405180910390f35b62000378620015d5565b604051620003879190620040ac565b60405180910390f35b620003ae6004803603810190620003a89190620037a2565b620015da565b604051620003bd919062003f5b565b60405180910390f35b620003e46004803603810190620003de9190620036ce565b620015fa565b604051620003f3919062003f3e565b60405180910390f35b6200041a600480360381019062000414919062003982565b620016f7565b60405162000429919062003e75565b60405180910390f35b6200045060048036038101906200044a919062003655565b62001737565b6040516200045f919062003f3e565b60405180910390f35b62000472620018c6565b005b6200049260048036038101906200048c9190620037d4565b620018e4565b005b620004b26004803603810190620004ac9190620037d4565b62001915565b005b620004be6200199f565b604051620004cd919062003f78565b60405180910390f35b620004e062001a39565b604051620004ef9190620040ac565b60405180910390f35b6200050262001a3f565b604051620005119190620040ac565b60405180910390f35b62000538600480360381019062000532919062003950565b62001a45565b604051620005479190620040ac565b60405180910390f35b6200055a62001a61565b604051620005699190620040ac565b60405180910390f35b6200059060048036038101906200058a919062003655565b62001a67565b6040516200059f9190620040ac565b60405180910390f35b620005b262001aff565b005b620005be62001b90565b604051620005cd9190620040ac565b60405180910390f35b620005e062001b95565b005b620006006004803603810190620005fa919062003655565b62001c08565b6040516200060f919062003f3e565b60405180910390f35b6200062262001d96565b604051620006319190620040ac565b60405180910390f35b6200064462001d9c565b60405162000653919062003f78565b60405180910390f35b6200066662001e32565b60405162000675919062003e75565b60405180910390f35b6200069c6004803603810190620006969190620037d4565b62001e5b565b604051620006ab919062003f3e565b60405180910390f35b620006be62001ec6565b604051620006cd919062003e75565b60405180910390f35b620006e062001eec565b604051620006ef9190620040ac565b60405180910390f35b62000716600480360381019062000710919062003655565b62001f08565b60405162000725919062003f3e565b60405180910390f35b6200074c600480360381019062000746919062003982565b62001f28565b005b6200075862001fe7565b60405162000767919062003f5b565b60405180910390f35b6200077a62001fee565b005b620007866200208e565b60405162000795919062003f1a565b60405180910390f35b620007a862002125565b005b620007b4620021c5565b005b620007d46004803603810190620007ce9190620037d4565b6200231c565b005b620007e06200234d565b604051620007ef919062003f3e565b60405180910390f35b620008166004803603810190620008109190620036ce565b62002360565b60405162000825919062003f3e565b60405180910390f35b620008386200245d565b005b62000844620024fd565b604051620008539190620040ac565b60405180910390f35b6200087a600480360381019062000874919062003655565b6200263b565b005b6200089a60048036038101906200089491906200371f565b6200273f565b005b620008a6620027eb565b604051620008b5919062003efc565b60405180910390f35b601160009054906101000a900473ffffffffffffffffffffffffffffffffffffffff1681565b60007f7965db0b000000000000000000000000000000000000000000000000000000007bffffffffffffffffffffffffffffffffffffffffffffffffffffffff1916827bffffffffffffffffffffffffffffffffffffffffffffffffffffffff191614806200095a5750620009598262002877565b5b9050919050565b6200096b620028e1565b73ffffffffffffffffffffffffffffffffffffffff166200098b62001e32565b73ffffffffffffffffffffffffffffffffffffffff1614620009e4576040517f08c379a0000000000000000000000000000000000000000000000000000000008152600401620009db9062004046565b60405180910390fd5b62000a246040518060400160405280601081526020017f73657474696e67207363686564756c6500000000000000000000000000000000815250620028e9565b600060098054905060098054905062000a3e919062004287565b423344600660405160200162000a58949392919062003e23565b6040516020818303038152906040528051906020012060001c62000a7d9190620041f2565b905062000a89620031de565b62000a93620031de565b60005b600754811015620012135762000ae16040518060400160405280600181526020017f0a00000000000000000000000000000000000000000000000000000000000000815250620028e9565b62000aec8162002986565b62000b2c6040518060400160405280601881526020017f2a2a2a2a2a2a2a2a2a2a2a2a2a2a2a2a2a2a2a2a2a2a2a2a0000000000000000815250620028e9565b600080600260098054905062000b439190620044f4565b1462000b6657600160098054905062000b5d9190620041f2565b90508062000b70565b6009805490509050805b5060008360006004811062000b8a5762000b89620045b9565b5b6020020151905060005b60028362000ba391906200424f565b81101562000d2057600084141562000c6657808660028562000bc691906200424f565b898462000bd49190620041f2565b62000be09190620044f4565b6004811062000bf45762000bf3620045b9565b5b60200201818152505060028362000c0c91906200424f565b8162000c199190620041f2565b8560028562000c2991906200424f565b898462000c379190620041f2565b62000c439190620044f4565b6004811062000c575762000c56620045b9565b5b60200201818152505062000d0a565b600086826004811062000c7e5762000c7d620045b9565b5b602002015190508086836004811062000c9c5762000c9b620045b9565b5b6020020181815250508560028562000cb591906200424f565b60018462000cc49190620041f2565b62000cd09190620044f4565b6004811062000ce45762000ce3620045b9565b5b602002015187836004811062000cff5762000cfe620045b9565b5b602002018181525050505b808062000d179062004474565b91505062000b94565b506000831462000d67578085600160028562000d3d91906200424f565b62000d499190620042e8565b6004811062000d5d5762000d5c620045b9565b5b6020020181815250505b60005b60028362000d7991906200424f565b811015620011fa5762000d8b62003200565b60098054905086836004811062000da75762000da6620045b9565b5b60200201511062000e83576040518060400160405280600989856004811062000dd55762000dd4620045b9565b5b60200201518154811062000dee5762000ded620045b9565b5b9060005260206000200160009054906101000a900473ffffffffffffffffffffffffffffffffffffffff1673ffffffffffffffffffffffffffffffffffffffff1673ffffffffffffffffffffffffffffffffffffffff168152602001600073ffffffffffffffffffffffffffffffffffffffff1673ffffffffffffffffffffffffffffffffffffffff168152509050620010a2565b60098054905087836004811062000e9f5762000e9e620045b9565b5b60200201511062000f7b576040518060400160405280600073ffffffffffffffffffffffffffffffffffffffff1673ffffffffffffffffffffffffffffffffffffffff168152602001600988856004811062000f005762000eff620045b9565b5b60200201518154811062000f195762000f18620045b9565b5b9060005260206000200160009054906101000a900473ffffffffffffffffffffffffffffffffffffffff1673ffffffffffffffffffffffffffffffffffffffff1673ffffffffffffffffffffffffffffffffffffffff168152509050620010a1565b6040518060400160405280600989856004811062000f9e5762000f9d620045b9565b5b60200201518154811062000fb75762000fb6620045b9565b5b9060005260206000200160009054906101000a900473ffffffffffffffffffffffffffffffffffffffff1673ffffffffffffffffffffffffffffffffffffffff1673ffffffffffffffffffffffffffffffffffffffff16815260200160098885600481106200102b576200102a620045b9565b5b602002015181548110620010445762001043620045b9565b5b9060005260206000200160009054906101000a900473ffffffffffffffffffffffffffffffffffffffff1673ffffffffffffffffffffffffffffffffffffffff1673ffffffffffffffffffffffffffffffffffffffff1681525090505b5b60006040518060200160405280838152509050600f60008781526020019081526020016000208190806001815401808255809150506001900390600052602060002090600202016000909190919091506000820151816000019060026200110b92919062003222565b5050506200113881600001516000600281106200112d576200112c620045b9565b5b602002015162002a23565b620011786040518060400160405280600481526020017f2076732000000000000000000000000000000000000000000000000000000000815250620028e9565b620011a28160000151600160028110620011975762001196620045b9565b5b602002015162002a23565b620011e26040518060400160405280600181526020017f0a00000000000000000000000000000000000000000000000000000000000000815250620028e9565b50508080620011f19062004474565b91505062000d6a565b50505080806200120a9062004474565b91505062000a96565b50505050565b600060019054906101000a900460ff16620012435760008054906101000a900460ff16156200124e565b6200124d62002ac0565b5b62001290576040517f08c379a0000000000000000000000000000000000000000000000000000000008152600401620012879062004024565b60405180910390fd5b60008060019054906101000a900460ff161590508015620012e1576001600060016101000a81548160ff02191690831515021790555060016000806101000a81548160ff0219169083151502179055505b886005819055508a8a60069190620012fb929190620032a4565b506008600781905550620013136000801b8662002ad3565b6009859080600181540180825580915050600190039060005260206000200160009091909190916101000a81548173ffffffffffffffffffffffffffffffffffffffff021916908373ffffffffffffffffffffffffffffffffffffffff16021790555087600e8190555086600460006101000a81548160ff0219169083151502179055506000600c60016101000a81548160ff0219169083151502179055506000600c60006101000a81548160ff02191690831515021790555085601260006101000a81548173ffffffffffffffffffffffffffffffffffffffff021916908373ffffffffffffffffffffffffffffffffffffffff16021790555081601460006101000a81548173ffffffffffffffffffffffffffffffffffffffff021916908373ffffffffffffffffffffffffffffffffffffffff1602179055506040516200145d9062003335565b604051809103906000f0801580156200147a573d6000803e3d6000fd5b50601360006101000a81548173ffffffffffffffffffffffffffffffffffffffff021916908373ffffffffffffffffffffffffffffffffffffffff16021790555083601060006101000a81548173ffffffffffffffffffffffffffffffffffffffff021916908373ffffffffffffffffffffffffffffffffffffffff16021790555082601160006101000a81548173ffffffffffffffffffffffffffffffffffffffff021916908373ffffffffffffffffffffffffffffffffffffffff1602179055506200157d6040518060400160405280601281526020017f50726f787920696e697469616c697a6564210000000000000000000000000000815250620028e9565b80156200159f5760008060016101000a81548160ff0219169083151502179055505b5050505050505050505050565b600b6020528160005260406000208160088110620015c957600080fd5b01600091509150505481565b600090565b600060016000838152602001908152602001600020600101549050919050565b600062001606620028e1565b73ffffffffffffffffffffffffffffffffffffffff166200162662001e32565b73ffffffffffffffffffffffffffffffffffffffff16146200167f576040517f08c379a0000000000000000000000000000000000000000000000000000000008152600401620016769062004046565b60405180910390fd5b60005b8251811015620016f157620016b4838281518110620016a657620016a5620045b9565b5b602002602001015162001737565b15620016db57600160036000828254620016cf9190620042e8565b92505081905550600191505b8080620016e89062004474565b91505062001682565b50919050565b600981815481106200170857600080fd5b906000526020600020016000915054906101000a900473ffffffffffffffffffffffffffffffffffffffff1681565b600062001743620028e1565b73ffffffffffffffffffffffffffffffffffffffff166200176362001e32565b73ffffffffffffffffffffffffffffffffffffffff1614620017bc576040517f08c379a0000000000000000000000000000000000000000000000000000000008152600401620017b39062004046565b60405180910390fd5b600260008373ffffffffffffffffffffffffffffffffffffffff1673ffffffffffffffffffffffffffffffffffffffff16815260200190815260200160002060009054906101000a900460ff1615620018c1576000600260008473ffffffffffffffffffffffffffffffffffffffff1673ffffffffffffffffffffffffffffffffffffffff16815260200190815260200160002060006101000a81548160ff0219169083151502179055507ff1abf01a1043b7c244d128e8595cf0c1d10743b022b03a02dffd8ca3bf729f5a8260405162001898919062003e75565b60405180910390a1600160036000828254620018b59190620042e8565b92505081905550600190505b919050565b600160056000828254620018db9190620041f2565b92505081905550565b620018ef82620015da565b6200190481620018fe620028e1565b62002ae3565b62001910838362002b8b565b505050565b6200191f620028e1565b73ffffffffffffffffffffffffffffffffffffffff168173ffffffffffffffffffffffffffffffffffffffff16146200198f576040517f08c379a000000000000000000000000000000000000000000000000000000000815260040162001986906200408a565b60405180910390fd5b6200199b828262002c70565b5050565b606060068054620019b09062004408565b80601f0160208091040260200160405190810160405280929190818152602001828054620019de9062004408565b801562001a2f5780601f1062001a035761010080835404028352916020019162001a2f565b820191906000526020600020905b81548152906001019060200180831162001a1157829003601f168201915b5050505050905090565b60085481565b60055481565b60006002826000013562001a5a919062004287565b9050919050565b600e5481565b60008173ffffffffffffffffffffffffffffffffffffffff166370a08231306040518263ffffffff1660e01b815260040162001aa4919062003e75565b60206040518083038186803b15801562001abd57600080fd5b505afa15801562001ad2573d6000803e3d6000fd5b505050506040513d601f19601f8201168201806040525081019062001af89190620039b4565b9050919050565b62001b09620028e1565b73ffffffffffffffffffffffffffffffffffffffff1662001b2962001e32565b73ffffffffffffffffffffffffffffffffffffffff161462001b82576040517f08c379a000000000000000000000000000000000000000000000000000000000815260040162001b799062004046565b60405180910390fd5b62001b8e600062002d57565b565b600090565b62001ba46000801b3362001e5b565b62001bae57600080fd5b6001600260003373ffffffffffffffffffffffffffffffffffffffff1673ffffffffffffffffffffffffffffffffffffffff16815260200190815260200160002060006101000a81548160ff021916908315150217905550565b600062001c14620028e1565b73ffffffffffffffffffffffffffffffffffffffff1662001c3462001e32565b73ffffffffffffffffffffffffffffffffffffffff161462001c8d576040517f08c379a000000000000000000000000000000000000000000000000000000000815260040162001c849062004046565b60405180910390fd5b600260008373ffffffffffffffffffffffffffffffffffffffff1673ffffffffffffffffffffffffffffffffffffffff16815260200190815260200160002060009054906101000a900460ff1662001d91576001600260008473ffffffffffffffffffffffffffffffffffffffff1673ffffffffffffffffffffffffffffffffffffffff16815260200190815260200160002060006101000a81548160ff0219169083151502179055507fd1bba68c128cc3f427e5831b3c6f99f480b6efa6b9e80c757768f6124158cc3f8260405162001d68919062003e75565b60405180910390a160016003600082825462001d859190620041f2565b92505081905550600190505b919050565b60075481565b6006805462001dab9062004408565b80601f016020809104026020016040519081016040528092919081815260200182805462001dd99062004408565b801562001e2a5780601f1062001dfe5761010080835404028352916020019162001e2a565b820191906000526020600020905b81548152906001019060200180831162001e0c57829003601f168201915b505050505081565b60008060029054906101000a900473ffffffffffffffffffffffffffffffffffffffff16905090565b60006001600084815260200190815260200160002060000160008373ffffffffffffffffffffffffffffffffffffffff1673ffffffffffffffffffffffffffffffffffffffff16815260200190815260200160002060009054906101000a900460ff16905092915050565b601060009054906101000a900473ffffffffffffffffffffffffffffffffffffffff1681565b6000600980549050600e5462001f03919062004287565b905090565b60026020528060005260406000206000915054906101000a900460ff1681565b62001f32620028e1565b73ffffffffffffffffffffffffffffffffffffffff1662001f5262001e32565b73ffffffffffffffffffffffffffffffffffffffff161462001fab576040517f08c379a000000000000000000000000000000000000000000000000000000000815260040162001fa29062004046565b60405180910390fd5b60005b600f60008381526020019081526020016000208054905081101562001fe357808062001fda9062004474565b91505062001fae565b5050565b6000801b81565b62001ff8620028e1565b73ffffffffffffffffffffffffffffffffffffffff166200201862001e32565b73ffffffffffffffffffffffffffffffffffffffff161462002071576040517f08c379a0000000000000000000000000000000000000000000000000000000008152600401620020689062004046565b60405180910390fd5b6000600c60016101000a81548160ff021916908315150217905550565b6060600d60003373ffffffffffffffffffffffffffffffffffffffff1673ffffffffffffffffffffffffffffffffffffffff1681526020019081526020016000208054806020026020016040519081016040528092919081815260200182805480156200211b57602002820191906000526020600020905b81548152602001906001019080831162002106575b5050505050905090565b6200212f620028e1565b73ffffffffffffffffffffffffffffffffffffffff166200214f62001e32565b73ffffffffffffffffffffffffffffffffffffffff1614620021a8576040517f08c379a00000000000000000000000000000000000000000000000000000000081526004016200219f9062004046565b60405180910390fd5b6001600c60016101000a81548160ff021916908315150217905550565b600260003373ffffffffffffffffffffffffffffffffffffffff1673ffffffffffffffffffffffffffffffffffffffff16815260200190815260200160002060009054906101000a900460ff16806200222a5750600460009054906101000a900460ff165b6200223457600080fd5b600c60009054906101000a900460ff161562002287576040517f08c379a00000000000000000000000000000000000000000000000000000000081526004016200227e9062004068565b60405180910390fd5b6009339080600181540180825580915050600190039060005260206000200160009091909190916101000a81548173ffffffffffffffffffffffffffffffffffffffff021916908373ffffffffffffffffffffffffffffffffffffffff1602179055506200231a601160009054906101000a900473ffffffffffffffffffffffffffffffffffffffff16600e5462002e1c565b565b6200232782620015da565b6200233c8162002336620028e1565b62002ae3565b62002348838362002c70565b505050565b600460009054906101000a900460ff1681565b60006200236c620028e1565b73ffffffffffffffffffffffffffffffffffffffff166200238c62001e32565b73ffffffffffffffffffffffffffffffffffffffff1614620023e5576040517f08c379a0000000000000000000000000000000000000000000000000000000008152600401620023dc9062004046565b60405180910390fd5b60005b825181101562002457576200241a8382815181106200240c576200240b620045b9565b5b602002602001015162001c08565b156200244157600160036000828254620024359190620041f2565b92505081905550600191505b80806200244e9062004474565b915050620023e8565b50919050565b62002467620028e1565b73ffffffffffffffffffffffffffffffffffffffff166200248762001e32565b73ffffffffffffffffffffffffffffffffffffffff1614620024e0576040517f08c379a0000000000000000000000000000000000000000000000000000000008152600401620024d79062004046565b60405180910390fd5b6001600c60006101000a81548160ff021916908315150217905550565b600080600090506000601460009054906101000a900473ffffffffffffffffffffffffffffffffffffffff1673ffffffffffffffffffffffffffffffffffffffff166306575c896040518163ffffffff1660e01b815260040160206040518083038186803b1580156200256f57600080fd5b505afa15801562002584573d6000803e3d6000fd5b505050506040513d601f19601f82011682018060405250810190620025aa9190620039b4565b905060005b8181116200263257600b60003373ffffffffffffffffffffffffffffffffffffffff1673ffffffffffffffffffffffffffffffffffffffff16815260200190815260200160002081600881106200260b576200260a620045b9565b5b0154836200261a9190620041f2565b92508080620026299062004474565b915050620025af565b50819250505090565b62002645620028e1565b73ffffffffffffffffffffffffffffffffffffffff166200266562001e32565b73ffffffffffffffffffffffffffffffffffffffff1614620026be576040517f08c379a0000000000000000000000000000000000000000000000000000000008152600401620026b59062004046565b60405180910390fd5b600073ffffffffffffffffffffffffffffffffffffffff168173ffffffffffffffffffffffffffffffffffffffff16141562002731576040517f08c379a0000000000000000000000000000000000000000000000000000000008152600401620027289062003fbe565b60405180910390fd5b6200273c8162002d57565b50565b600c60019054906101000a900460ff161562002792576040517f08c379a0000000000000000000000000000000000000000000000000000000008152600401620027899062004002565b60405180910390fd5b80600d60003373ffffffffffffffffffffffffffffffffffffffff1673ffffffffffffffffffffffffffffffffffffffff1681526020019081526020016000209080519060200190620027e792919062003343565b5050565b620027f562003395565b600b60003373ffffffffffffffffffffffffffffffffffffffff1673ffffffffffffffffffffffffffffffffffffffff1681526020019081526020016000206008806020026040519081016040528092919082600880156200286d576020028201915b81548152602001906001019080831162002858575b5050505050905090565b60007f01ffc9a7000000000000000000000000000000000000000000000000000000007bffffffffffffffffffffffffffffffffffffffffffffffffffffffff1916827bffffffffffffffffffffffffffffffffffffffffffffffffffffffff1916149050919050565b600033905090565b620029838160405160240162002900919062003f78565b6040516020818303038152906040527f41304fac000000000000000000000000000000000000000000000000000000007bffffffffffffffffffffffffffffffffffffffffffffffffffffffff19166020820180517bffffffffffffffffffffffffffffffffffffffffffffffffffffffff838183161783525050505062002f37565b50565b62002a20816040516024016200299d9190620040ac565b6040516020818303038152906040527ff5b1bba9000000000000000000000000000000000000000000000000000000007bffffffffffffffffffffffffffffffffffffffffffffffffffffffff19166020820180517bffffffffffffffffffffffffffffffffffffffffffffffffffffffff838183161783525050505062002f37565b50565b62002abd8160405160240162002a3a919062003e75565b6040516020818303038152906040527f2c2ecbc2000000000000000000000000000000000000000000000000000000007bffffffffffffffffffffffffffffffffffffffffffffffffffffffff19166020820180517bffffffffffffffffffffffffffffffffffffffffffffffffffffffff838183161783525050505062002f37565b50565b600062002acd3062002f60565b15905090565b62002adf828262002b8b565b5050565b62002aef828262001e5b565b62002b875762002b178173ffffffffffffffffffffffffffffffffffffffff16601462002f83565b62002b278360001c602062002f83565b60405160200162002b3a92919062003de1565b6040516020818303038152906040526040517f08c379a000000000000000000000000000000000000000000000000000000000815260040162002b7e919062003f78565b60405180910390fd5b5050565b62002b97828262001e5b565b62002c6c57600180600084815260200190815260200160002060000160008373ffffffffffffffffffffffffffffffffffffffff1673ffffffffffffffffffffffffffffffffffffffff16815260200190815260200160002060006101000a81548160ff02191690831515021790555062002c11620028e1565b73ffffffffffffffffffffffffffffffffffffffff168173ffffffffffffffffffffffffffffffffffffffff16837f2f8788117e7eff1d82e926ec794901d17c78024a50270940304540a733656f0d60405160405180910390a45b5050565b62002c7c828262001e5b565b1562002d535760006001600084815260200190815260200160002060000160008373ffffffffffffffffffffffffffffffffffffffff1673ffffffffffffffffffffffffffffffffffffffff16815260200190815260200160002060006101000a81548160ff02191690831515021790555062002cf8620028e1565b73ffffffffffffffffffffffffffffffffffffffff168173ffffffffffffffffffffffffffffffffffffffff16837ff6391f5c32d9c69d2a47ea670b442974b53935d1edc7fd64eb21e047a839171b60405160405180910390a45b5050565b60008060029054906101000a900473ffffffffffffffffffffffffffffffffffffffff16905081600060026101000a81548173ffffffffffffffffffffffffffffffffffffffff021916908373ffffffffffffffffffffffffffffffffffffffff1602179055508173ffffffffffffffffffffffffffffffffffffffff168173ffffffffffffffffffffffffffffffffffffffff167f8be0079c531659141344cd1fd0a4f28419497f9722a3daafe3b4186f6b6457e060405160405180910390a35050565b6000811162002e62576040517f08c379a000000000000000000000000000000000000000000000000000000000815260040162002e599062003fe0565b60405180910390fd5b8173ffffffffffffffffffffffffffffffffffffffff166323b872dd3330846040518463ffffffff1660e01b815260040162002ea19392919062003e92565b602060405180830381600087803b15801562002ebc57600080fd5b505af115801562002ed1573d6000803e3d6000fd5b505050506040513d601f19601f8201168201806040525081019062002ef7919062003770565b507f9e71bc8eea02a63969f509818f2dafb9254532904319f9dbda79b67bd34a5f3d338260405162002f2b92919062003ecf565b60405180910390a15050565b60008151905060006a636f6e736f6c652e6c6f679050602083016000808483855afa5050505050565b6000808273ffffffffffffffffffffffffffffffffffffffff163b119050919050565b60606000600283600262002f98919062004287565b62002fa49190620041f2565b67ffffffffffffffff81111562002fc05762002fbf620045e8565b5b6040519080825280601f01601f19166020018201604052801562002ff35781602001600182028036833780820191505090505b5090507f3000000000000000000000000000000000000000000000000000000000000000816000815181106200302e576200302d620045b9565b5b60200101907effffffffffffffffffffffffffffffffffffffffffffffffffffffffffffff1916908160001a9053507f780000000000000000000000000000000000000000000000000000000000000081600181518110620030955762003094620045b9565b5b60200101907effffffffffffffffffffffffffffffffffffffffffffffffffffffffffffff1916908160001a90535060006001846002620030d7919062004287565b620030e39190620041f2565b90505b60018111156200318d577f3031323334353637383961626364656600000000000000000000000000000000600f861660108110620031295762003128620045b9565b5b1a60f81b828281518110620031435762003142620045b9565b5b60200101907effffffffffffffffffffffffffffffffffffffffffffffffffffffffffffff1916908160001a905350600485901c9450806200318590620043d9565b9050620030e6565b5060008414620031d4576040517f08c379a0000000000000000000000000000000000000000000000000000000008152600401620031cb9062003f9c565b60405180910390fd5b8091505092915050565b6040518060800160405280600490602082028036833780820191505090505090565b6040518060400160405280600290602082028036833780820191505090505090565b826002810192821562003291579160200282015b82811115620032905782518260006101000a81548173ffffffffffffffffffffffffffffffffffffffff021916908373ffffffffffffffffffffffffffffffffffffffff1602179055509160200191906001019062003236565b5b509050620032a09190620033b8565b5090565b828054620032b29062004408565b90600052602060002090601f016020900481019282620032d6576000855562003322565b82601f10620032f157803560ff191683800117855562003322565b8280016001018555821562003322579182015b828111156200332157823582559160200191906001019062003304565b5b509050620033319190620033b8565b5090565b610f9f80620048e283390190565b82805482825590600052602060002090810192821562003382579160200282015b828111156200338157825182559160200191906001019062003364565b5b509050620033919190620033b8565b5090565b604051806101000160405280600890602082028036833780820191505090505090565b5b80821115620033d3576000816000905550600101620033b9565b5090565b6000620033ee620033e884620040f2565b620040c9565b9050808382526020820190508285602086028201111562003414576200341362004626565b5b60005b858110156200344857816200342d8882620034cd565b84526020840193506020830192505060018101905062003417565b5050509392505050565b600062003469620034638462004121565b620040c9565b905080838252602082019050828560208602820111156200348f576200348e62004626565b5b60005b85811015620034c35781620034a8888262003627565b84526020840193506020830192505060018101905062003492565b5050509392505050565b600081359050620034de816200485f565b92915050565b600082601f830112620034fc57620034fb6200461c565b5b81356200350e848260208601620033d7565b91505092915050565b600082601f8301126200352f576200352e6200461c565b5b81356200354184826020860162003452565b91505092915050565b6000813590506200355b8162004879565b92915050565b600081519050620035728162004879565b92915050565b600081359050620035898162004893565b92915050565b600081359050620035a081620048ad565b92915050565b60008083601f840112620035bf57620035be6200461c565b5b8235905067ffffffffffffffff811115620035df57620035de62004617565b5b602083019150836001820283011115620035fe57620035fd62004626565b5b9250929050565b6000602082840312156200361e576200361d62004621565b5b81905092915050565b6000813590506200363881620048c7565b92915050565b6000815190506200364f81620048c7565b92915050565b6000602082840312156200366e576200366d62004630565b5b60006200367e84828501620034cd565b91505092915050565b60008060408385031215620036a157620036a062004630565b5b6000620036b185828601620034cd565b9250506020620036c48582860162003627565b9150509250929050565b600060208284031215620036e757620036e662004630565b5b600082013567ffffffffffffffff8111156200370857620037076200462b565b5b6200371684828501620034e4565b91505092915050565b60006020828403121562003738576200373762004630565b5b600082013567ffffffffffffffff8111156200375957620037586200462b565b5b620037678482850162003517565b91505092915050565b60006020828403121562003789576200378862004630565b5b6000620037998482850162003561565b91505092915050565b600060208284031215620037bb57620037ba62004630565b5b6000620037cb8482850162003578565b91505092915050565b60008060408385031215620037ee57620037ed62004630565b5b6000620037fe8582860162003578565b92505060206200381185828601620034cd565b9150509250929050565b60006020828403121562003834576200383362004630565b5b600062003844848285016200358f565b91505092915050565b6000806000806000806000806000806101208b8d03121562003874576200387362004630565b5b60008b013567ffffffffffffffff8111156200389557620038946200462b565b5b620038a38d828e01620035a6565b9a509a50506020620038b88d828e0162003627565b9850506040620038cb8d828e0162003627565b9750506060620038de8d828e016200354a565b9650506080620038f18d828e01620034cd565b95505060a0620039048d828e01620034cd565b94505060c0620039178d828e01620034cd565b93505060e06200392a8d828e01620034cd565b9250506101006200393e8d828e01620034cd565b9150509295989b9194979a5092959850565b60006020828403121562003969576200396862004630565b5b6000620039798482850162003605565b91505092915050565b6000602082840312156200399b576200399a62004630565b5b6000620039ab8482850162003627565b91505092915050565b600060208284031215620039cd57620039cc62004630565b5b6000620039dd848285016200363e565b91505092915050565b6000620039f4838362003da4565b60208301905092915050565b62003a0b8162004323565b82525050565b62003a2662003a208262004323565b620044c2565b82525050565b62003a37816200417f565b62003a438184620041ba565b925062003a508262004150565b8060005b8381101562003a8757815162003a6b8782620039e6565b965062003a7883620041a0565b92505060018101905062003a54565b505050505050565b600062003a9c826200418a565b62003aa88185620041c5565b935062003ab5836200415a565b8060005b8381101562003aec57815162003ad08882620039e6565b975062003add83620041ad565b92505060018101905062003ab9565b5085935050505092915050565b62003b048162004337565b82525050565b62003b158162004343565b82525050565b600062003b288262004195565b62003b348185620041d6565b935062003b46818560208601620043a3565b62003b518162004635565b840191505092915050565b600062003b698262004195565b62003b758185620041e7565b935062003b87818560208601620043a3565b80840191505092915050565b6000815462003ba28162004408565b62003bae8186620041e7565b9450600182166000811462003bcc576001811462003bde5762003c15565b60ff1983168652818601935062003c15565b62003be9856200416a565b60005b8381101562003c0d5781548189015260018201915060208101905062003bec565b838801955050505b50505092915050565b600062003c2d602083620041d6565b915062003c3a8262004653565b602082019050919050565b600062003c54602683620041d6565b915062003c61826200467c565b604082019050919050565b600062003c7b600e83620041d6565b915062003c8882620046cb565b602082019050919050565b600062003ca2601e83620041d6565b915062003caf82620046f4565b602082019050919050565b600062003cc9602e83620041d6565b915062003cd6826200471d565b604082019050919050565b600062003cf0602083620041d6565b915062003cfd826200476c565b602082019050919050565b600062003d17601783620041e7565b915062003d248262004795565b601782019050919050565b600062003d3e601783620041d6565b915062003d4b82620047be565b602082019050919050565b600062003d65601183620041e7565b915062003d7282620047e7565b601182019050919050565b600062003d8c602f83620041d6565b915062003d998262004810565b604082019050919050565b62003daf8162004399565b82525050565b62003dc08162004399565b82525050565b62003ddb62003dd58262004399565b620044ea565b82525050565b600062003dee8262003d08565b915062003dfc828562003b5c565b915062003e098262003d56565b915062003e17828462003b5c565b91508190509392505050565b600062003e31828762003dc6565b60208201915062003e43828662003a11565b60148201915062003e55828562003dc6565b60208201915062003e67828462003b93565b915081905095945050505050565b600060208201905062003e8c600083018462003a00565b92915050565b600060608201905062003ea9600083018662003a00565b62003eb8602083018562003a00565b62003ec7604083018462003db5565b949350505050565b600060408201905062003ee6600083018562003a00565b62003ef5602083018462003db5565b9392505050565b60006101008201905062003f14600083018462003a2c565b92915050565b6000602082019050818103600083015262003f36818462003a8f565b905092915050565b600060208201905062003f55600083018462003af9565b92915050565b600060208201905062003f72600083018462003b0a565b92915050565b6000602082019050818103600083015262003f94818462003b1b565b905092915050565b6000602082019050818103600083015262003fb78162003c1e565b9050919050565b6000602082019050818103600083015262003fd98162003c45565b9050919050565b6000602082019050818103600083015262003ffb8162003c6c565b9050919050565b600060208201905081810360008301526200401d8162003c93565b9050919050565b600060208201905081810360008301526200403f8162003cba565b9050919050565b60006020820190508181036000830152620040618162003ce1565b9050919050565b60006020820190508181036000830152620040838162003d2f565b9050919050565b60006020820190508181036000830152620040a58162003d7d565b9050919050565b6000602082019050620040c3600083018462003db5565b92915050565b6000620040d5620040e8565b9050620040e382826200443e565b919050565b6000604051905090565b600067ffffffffffffffff82111562004110576200410f620045e8565b5b602082029050602081019050919050565b600067ffffffffffffffff8211156200413f576200413e620045e8565b5b602082029050602081019050919050565b6000819050919050565b6000819050602082019050919050565b60008190508160005260206000209050919050565b600060089050919050565b600081519050919050565b600081519050919050565b6000602082019050919050565b6000602082019050919050565b600081905092915050565b600082825260208201905092915050565b600082825260208201905092915050565b600081905092915050565b6000620041ff8262004399565b91506200420c8362004399565b9250827fffffffffffffffffffffffffffffffffffffffffffffffffffffffffffffffff038211156200424457620042436200452c565b5b828201905092915050565b60006200425c8262004399565b9150620042698362004399565b9250826200427c576200427b6200455b565b5b828204905092915050565b6000620042948262004399565b9150620042a18362004399565b9250817fffffffffffffffffffffffffffffffffffffffffffffffffffffffffffffffff0483118215151615620042dd57620042dc6200452c565b5b828202905092915050565b6000620042f58262004399565b9150620043028362004399565b9250828210156200431857620043176200452c565b5b828203905092915050565b6000620043308262004379565b9050919050565b60008115159050919050565b6000819050919050565b60007fffffffff0000000000000000000000000000000000000000000000000000000082169050919050565b600073ffffffffffffffffffffffffffffffffffffffff82169050919050565b6000819050919050565b60005b83811015620043c3578082015181840152602081019050620043a6565b83811115620043d3576000848401525b50505050565b6000620043e68262004399565b91506000821415620043fd57620043fc6200452c565b5b600182039050919050565b600060028204905060018216806200442157607f821691505b602082108114156200443857620044376200458a565b5b50919050565b620044498262004635565b810181811067ffffffffffffffff821117156200446b576200446a620045e8565b5b80604052505050565b6000620044818262004399565b91507fffffffffffffffffffffffffffffffffffffffffffffffffffffffffffffffff821415620044b757620044b66200452c565b5b600182019050919050565b6000620044cf82620044d6565b9050919050565b6000620044e38262004646565b9050919050565b6000819050919050565b6000620045018262004399565b91506200450e8362004399565b9250826200452157620045206200455b565b5b828206905092915050565b7f4e487b7100000000000000000000000000000000000000000000000000000000600052601160045260246000fd5b7f4e487b7100000000000000000000000000000000000000000000000000000000600052601260045260246000fd5b7f4e487b7100000000000000000000000000000000000000000000000000000000600052602260045260246000fd5b7f4e487b7100000000000000000000000000000000000000000000000000000000600052603260045260246000fd5b7f4e487b7100000000000000000000000000000000000000000000000000000000600052604160045260246000fd5b600080fd5b600080fd5b600080fd5b600080fd5b600080fd5b600080fd5b6000601f19601f8301169050919050565b60008160601b9050919050565b7f537472696e67733a20686578206c656e67746820696e73756666696369656e74600082015250565b7f4f776e61626c653a206e6577206f776e657220697320746865207a65726f206160008201527f6464726573730000000000000000000000000000000000000000000000000000602082015250565b7f43616e6e6f74207374616b652030000000000000000000000000000000000000600082015250565b7f6c696e657570206973206c6f636b656420666f7220746865207765656b210000600082015250565b7f496e697469616c697a61626c653a20636f6e747261637420697320616c72656160008201527f647920696e697469616c697a6564000000000000000000000000000000000000602082015250565b7f4f776e61626c653a2063616c6c6572206973206e6f7420746865206f776e6572600082015250565b7f416363657373436f6e74726f6c3a206163636f756e7420000000000000000000600082015250565b7f4c656167756520456e74727920697320436c6f73656421000000000000000000600082015250565b7f206973206d697373696e6720726f6c6520000000000000000000000000000000600082015250565b7f416363657373436f6e74726f6c3a2063616e206f6e6c792072656e6f756e636560008201527f20726f6c657320666f722073656c660000000000000000000000000000000000602082015250565b6200486a8162004323565b81146200487657600080fd5b50565b620048848162004337565b81146200489057600080fd5b50565b6200489e8162004343565b8114620048aa57600080fd5b50565b620048b8816200434d565b8114620048c457600080fd5b50565b620048d28162004399565b8114620048de57600080fd5b5056fe608060405234801561001057600080fd5b5061002d61002261003260201b60201c565b61003a60201b60201c565b6100fe565b600033905090565b60008060009054906101000a900473ffffffffffffffffffffffffffffffffffffffff169050816000806101000a81548173ffffffffffffffffffffffffffffffffffffffff021916908373ffffffffffffffffffffffffffffffffffffffff1602179055508173ffffffffffffffffffffffffffffffffffffffff168173ffffffffffffffffffffffffffffffffffffffff167f8be0079c531659141344cd1fd0a4f28419497f9722a3daafe3b4186f6b6457e060405160405180910390a35050565b610e928061010d6000396000f3fe608060405234801561001057600080fd5b50600436106100935760003560e01c80638da5cb5b116100665780638da5cb5b146101325780639b19251a14610150578063dc9a153514610180578063e2ec6ec31461019e578063f2fde38b146101ce57610093565b806324953eaa14610098578063286dd3f5146100c8578063715018a6146100f85780637b9417c814610102575b600080fd5b6100b260048036038101906100ad9190610a4a565b6101ea565b6040516100bf9190610b12565b60405180910390f35b6100e260048036038101906100dd9190610a1d565b6102d4565b6040516100ef9190610b12565b60405180910390f35b610100610457565b005b61011c60048036038101906101179190610a1d565b6104df565b6040516101299190610b12565b60405180910390f35b61013a610660565b6040516101479190610af7565b60405180910390f35b61016a60048036038101906101659190610a1d565b610689565b6040516101779190610b12565b60405180910390f35b6101886106a9565b6040516101959190610b12565b60405180910390f35b6101b860048036038101906101b39190610a4a565b6106bc565b6040516101c59190610b12565b60405180910390f35b6101e860048036038101906101e39190610a1d565b6107a6565b005b60006101f461089e565b73ffffffffffffffffffffffffffffffffffffffff16610212610660565b73ffffffffffffffffffffffffffffffffffffffff1614610268576040517f08c379a000000000000000000000000000000000000000000000000000000000815260040161025f90610b4d565b60405180910390fd5b60005b82518110156102ce5761029783828151811061028a57610289610d4a565b5b60200260200101516102d4565b156102bb576001600260008282546102af9190610c25565b92505081905550600191505b80806102c690610cd2565b91505061026b565b50919050565b60006102de61089e565b73ffffffffffffffffffffffffffffffffffffffff166102fc610660565b73ffffffffffffffffffffffffffffffffffffffff1614610352576040517f08c379a000000000000000000000000000000000000000000000000000000000815260040161034990610b4d565b60405180910390fd5b600160008373ffffffffffffffffffffffffffffffffffffffff1673ffffffffffffffffffffffffffffffffffffffff16815260200190815260200160002060009054906101000a900460ff1615610452576000600160008473ffffffffffffffffffffffffffffffffffffffff1673ffffffffffffffffffffffffffffffffffffffff16815260200190815260200160002060006101000a81548160ff0219169083151502179055507ff1abf01a1043b7c244d128e8595cf0c1d10743b022b03a02dffd8ca3bf729f5a8260405161042b9190610af7565b60405180910390a16001600260008282546104469190610c25565b92505081905550600190505b919050565b61045f61089e565b73ffffffffffffffffffffffffffffffffffffffff1661047d610660565b73ffffffffffffffffffffffffffffffffffffffff16146104d3576040517f08c379a00000000000000000000000000000000000000000000000000000000081526004016104ca90610b4d565b60405180910390fd5b6104dd60006108a6565b565b60006104e961089e565b73ffffffffffffffffffffffffffffffffffffffff16610507610660565b73ffffffffffffffffffffffffffffffffffffffff161461055d576040517f08c379a000000000000000000000000000000000000000000000000000000000815260040161055490610b4d565b60405180910390fd5b600160008373ffffffffffffffffffffffffffffffffffffffff1673ffffffffffffffffffffffffffffffffffffffff16815260200190815260200160002060009054906101000a900460ff1661065b5760018060008473ffffffffffffffffffffffffffffffffffffffff1673ffffffffffffffffffffffffffffffffffffffff16815260200190815260200160002060006101000a81548160ff0219169083151502179055507fd1bba68c128cc3f427e5831b3c6f99f480b6efa6b9e80c757768f6124158cc3f826040516106349190610af7565b60405180910390a160016002600082825461064f9190610bcf565b92505081905550600190505b919050565b60008060009054906101000a900473ffffffffffffffffffffffffffffffffffffffff16905090565b60016020528060005260406000206000915054906101000a900460ff1681565b600360009054906101000a900460ff1681565b60006106c661089e565b73ffffffffffffffffffffffffffffffffffffffff166106e4610660565b73ffffffffffffffffffffffffffffffffffffffff161461073a576040517f08c379a000000000000000000000000000000000000000000000000000000000815260040161073190610b4d565b60405180910390fd5b60005b82518110156107a05761076983828151811061075c5761075b610d4a565b5b60200260200101516104df565b1561078d576001600260008282546107819190610bcf565b92505081905550600191505b808061079890610cd2565b91505061073d565b50919050565b6107ae61089e565b73ffffffffffffffffffffffffffffffffffffffff166107cc610660565b73ffffffffffffffffffffffffffffffffffffffff1614610822576040517f08c379a000000000000000000000000000000000000000000000000000000000815260040161081990610b4d565b60405180910390fd5b600073ffffffffffffffffffffffffffffffffffffffff168173ffffffffffffffffffffffffffffffffffffffff161415610892576040517f08c379a000000000000000000000000000000000000000000000000000000000815260040161088990610b2d565b60405180910390fd5b61089b816108a6565b50565b600033905090565b60008060009054906101000a900473ffffffffffffffffffffffffffffffffffffffff169050816000806101000a81548173ffffffffffffffffffffffffffffffffffffffff021916908373ffffffffffffffffffffffffffffffffffffffff1602179055508173ffffffffffffffffffffffffffffffffffffffff168173ffffffffffffffffffffffffffffffffffffffff167f8be0079c531659141344cd1fd0a4f28419497f9722a3daafe3b4186f6b6457e060405160405180910390a35050565b600061097d61097884610b92565b610b6d565b905080838252602082019050828560208602820111156109a05761099f610dad565b5b60005b858110156109d057816109b688826109da565b8452602084019350602083019250506001810190506109a3565b5050509392505050565b6000813590506109e981610e45565b92915050565b600082601f830112610a0457610a03610da8565b5b8135610a1484826020860161096a565b91505092915050565b600060208284031215610a3357610a32610db7565b5b6000610a41848285016109da565b91505092915050565b600060208284031215610a6057610a5f610db7565b5b600082013567ffffffffffffffff811115610a7e57610a7d610db2565b5b610a8a848285016109ef565b91505092915050565b610a9c81610c59565b82525050565b610aab81610c6b565b82525050565b6000610abe602683610bbe565b9150610ac982610dcd565b604082019050919050565b6000610ae1602083610bbe565b9150610aec82610e1c565b602082019050919050565b6000602082019050610b0c6000830184610a93565b92915050565b6000602082019050610b276000830184610aa2565b92915050565b60006020820190508181036000830152610b4681610ab1565b9050919050565b60006020820190508181036000830152610b6681610ad4565b9050919050565b6000610b77610b88565b9050610b838282610ca1565b919050565b6000604051905090565b600067ffffffffffffffff821115610bad57610bac610d79565b5b602082029050602081019050919050565b600082825260208201905092915050565b6000610bda82610c97565b9150610be583610c97565b9250827fffffffffffffffffffffffffffffffffffffffffffffffffffffffffffffffff03821115610c1a57610c19610d1b565b5b828201905092915050565b6000610c3082610c97565b9150610c3b83610c97565b925082821015610c4e57610c4d610d1b565b5b828203905092915050565b6000610c6482610c77565b9050919050565b60008115159050919050565b600073ffffffffffffffffffffffffffffffffffffffff82169050919050565b6000819050919050565b610caa82610dbc565b810181811067ffffffffffffffff82111715610cc957610cc8610d79565b5b80604052505050565b6000610cdd82610c97565b91507fffffffffffffffffffffffffffffffffffffffffffffffffffffffffffffffff821415610d1057610d0f610d1b565b5b600182019050919050565b7f4e487b7100000000000000000000000000000000000000000000000000000000600052601160045260246000fd5b7f4e487b7100000000000000000000000000000000000000000000000000000000600052603260045260246000fd5b7f4e487b7100000000000000000000000000000000000000000000000000000000600052604160045260246000fd5b600080fd5b600080fd5b600080fd5b600080fd5b6000601f19601f8301169050919050565b7f4f776e61626c653a206e6577206f776e657220697320746865207a65726f206160008201527f6464726573730000000000000000000000000000000000000000000000000000602082015250565b7f4f776e61626c653a2063616c6c6572206973206e6f7420746865206f776e6572600082015250565b610e4e81610c59565b8114610e5957600080fd5b5056fea2646970667358221220070224275ad0b13d0a847fbeb4a423ae740dee42968a8d236c8eedaef3b3cc5764736f6c63430008070033a26469706673582212206cfe54634ce98a1fec830d8ac86559dae622c217459afa42e87c2d873f05eed864736f6c63430008070033",
  "linkReferences": {},
  "deployedLinkReferences": {}
}