{
  "_format": "hh-sol-artifact-1",
  "contractName": "LeagueOfLegendsLogic",
  "sourceName": "contracts/LeagueOfLegendsLogic.sol",
  "abi": [
    {
      "anonymous": false,
      "inputs": [
        {
          "indexed": true,
          "internalType": "address",
          "name": "previousOwner",
          "type": "address"
        },
        {
          "indexed": true,
          "internalType": "address",
          "name": "newOwner",
          "type": "address"
        }
      ],
      "name": "OwnershipTransferred",
      "type": "event"
    },
    {
      "anonymous": false,
      "inputs": [
        {
          "indexed": true,
          "internalType": "bytes32",
          "name": "role",
          "type": "bytes32"
        },
        {
          "indexed": true,
          "internalType": "bytes32",
          "name": "previousAdminRole",
          "type": "bytes32"
        },
        {
          "indexed": true,
          "internalType": "bytes32",
          "name": "newAdminRole",
          "type": "bytes32"
        }
      ],
      "name": "RoleAdminChanged",
      "type": "event"
    },
    {
      "anonymous": false,
      "inputs": [
        {
          "indexed": true,
          "internalType": "bytes32",
          "name": "role",
          "type": "bytes32"
        },
        {
          "indexed": true,
          "internalType": "address",
          "name": "account",
          "type": "address"
        },
        {
          "indexed": true,
          "internalType": "address",
          "name": "sender",
          "type": "address"
        }
      ],
      "name": "RoleGranted",
      "type": "event"
    },
    {
      "anonymous": false,
      "inputs": [
        {
          "indexed": true,
          "internalType": "bytes32",
          "name": "role",
          "type": "bytes32"
        },
        {
          "indexed": true,
          "internalType": "address",
          "name": "account",
          "type": "address"
        },
        {
          "indexed": true,
          "internalType": "address",
          "name": "sender",
          "type": "address"
        }
      ],
      "name": "RoleRevoked",
      "type": "event"
    },
    {
      "anonymous": false,
      "inputs": [
        {
          "indexed": false,
          "internalType": "address",
          "name": "sender",
          "type": "address"
        },
        {
          "indexed": false,
          "internalType": "uint256",
          "name": "amount",
          "type": "uint256"
        }
      ],
      "name": "Staked",
      "type": "event"
    },
    {
      "anonymous": false,
      "inputs": [
        {
          "indexed": false,
          "internalType": "address",
          "name": "addr",
          "type": "address"
        }
      ],
      "name": "WhitelistedAddressAdded",
      "type": "event"
    },
    {
      "anonymous": false,
      "inputs": [
        {
          "indexed": false,
          "internalType": "address",
          "name": "addr",
          "type": "address"
        }
      ],
      "name": "WhitelistedAddressRemoved",
      "type": "event"
    },
    {
      "inputs": [],
      "name": "DEFAULT_ADMIN_ROLE",
      "outputs": [
        {
          "internalType": "bytes32",
          "name": "",
          "type": "bytes32"
        }
      ],
      "stateMutability": "view",
      "type": "function"
    },
    {
      "inputs": [
        {
          "internalType": "address",
          "name": "addr",
          "type": "address"
        }
      ],
      "name": "addAddressToWhitelist",
      "outputs": [
        {
          "internalType": "bool",
          "name": "success",
          "type": "bool"
        }
      ],
      "stateMutability": "nonpayable",
      "type": "function"
    },
    {
      "inputs": [
        {
          "internalType": "address[]",
          "name": "addrs",
          "type": "address[]"
        }
      ],
      "name": "addAddressesToWhitelist",
      "outputs": [
        {
          "internalType": "bool",
          "name": "success",
          "type": "bool"
        }
      ],
      "stateMutability": "nonpayable",
      "type": "function"
    },
    {
      "inputs": [
        {
          "internalType": "address",
          "name": "user",
          "type": "address"
        }
      ],
      "name": "addUserToLeague",
      "outputs": [],
      "stateMutability": "nonpayable",
      "type": "function"
    },
    {
      "inputs": [],
      "name": "addUserToWhitelist",
      "outputs": [],
      "stateMutability": "nonpayable",
      "type": "function"
    },
    {
      "inputs": [],
      "name": "currentWeekNum",
      "outputs": [
        {
          "internalType": "uint256",
          "name": "",
          "type": "uint256"
        }
      ],
      "stateMutability": "view",
      "type": "function"
    },
    {
      "inputs": [],
      "name": "evaluateWeek",
      "outputs": [],
      "stateMutability": "nonpayable",
      "type": "function"
    },
    {
      "inputs": [],
      "name": "getLeagueName",
      "outputs": [
        {
          "internalType": "string",
          "name": "",
          "type": "string"
        }
      ],
      "stateMutability": "view",
      "type": "function"
    },
    {
      "inputs": [],
      "name": "getLineup",
      "outputs": [
        {
          "internalType": "uint256[]",
          "name": "",
          "type": "uint256[]"
        }
      ],
      "stateMutability": "view",
      "type": "function"
    },
    {
      "inputs": [
        {
          "internalType": "bytes32",
          "name": "role",
          "type": "bytes32"
        }
      ],
      "name": "getRoleAdmin",
      "outputs": [
        {
          "internalType": "bytes32",
          "name": "",
          "type": "bytes32"
        }
      ],
      "stateMutability": "view",
      "type": "function"
    },
    {
      "inputs": [],
      "name": "getStakeAmount",
      "outputs": [
        {
          "internalType": "uint256",
          "name": "",
          "type": "uint256"
        }
      ],
      "stateMutability": "view",
      "type": "function"
    },
    {
      "inputs": [],
      "name": "getTotalPrizePot",
      "outputs": [
        {
          "internalType": "uint256",
          "name": "",
          "type": "uint256"
        }
      ],
      "stateMutability": "view",
      "type": "function"
    },
    {
      "inputs": [
        {
          "internalType": "address",
          "name": "_token",
          "type": "address"
        }
      ],
      "name": "getUSDCBalance",
      "outputs": [
        {
          "internalType": "uint256",
          "name": "",
          "type": "uint256"
        }
      ],
      "stateMutability": "view",
      "type": "function"
    },
    {
      "inputs": [],
      "name": "getUserRecord",
      "outputs": [
        {
          "internalType": "uint256[8]",
          "name": "",
          "type": "uint256[8]"
        }
      ],
      "stateMutability": "view",
      "type": "function"
    },
    {
      "inputs": [
        {
          "internalType": "bytes32",
          "name": "role",
          "type": "bytes32"
        },
        {
          "internalType": "address",
          "name": "account",
          "type": "address"
        }
      ],
      "name": "grantRole",
      "outputs": [],
      "stateMutability": "nonpayable",
      "type": "function"
    },
    {
      "inputs": [
        {
          "internalType": "bytes32",
          "name": "role",
          "type": "bytes32"
        },
        {
          "internalType": "address",
          "name": "account",
          "type": "address"
        }
      ],
      "name": "hasRole",
      "outputs": [
        {
          "internalType": "bool",
          "name": "",
          "type": "bool"
        }
      ],
      "stateMutability": "view",
      "type": "function"
    },
    {
      "inputs": [
        {
          "internalType": "string",
          "name": "_name",
          "type": "string"
        },
        {
          "internalType": "uint256",
          "name": "_stakeAmount",
          "type": "uint256"
        },
        {
          "internalType": "bool",
          "name": "_isPublic",
          "type": "bool"
        },
        {
          "internalType": "address",
          "name": "athletesDataStorageAddress",
          "type": "address"
        },
        {
          "internalType": "address",
          "name": "_admin",
          "type": "address"
        },
        {
          "internalType": "address",
          "name": "_polygonUSDCAddress",
          "type": "address"
        },
        {
          "internalType": "address",
          "name": "_rinkebyUSDCAddress",
          "type": "address"
        },
        {
          "internalType": "address",
          "name": "leagueMakerContractAddress",
          "type": "address"
        }
      ],
      "name": "initialize",
      "outputs": [],
      "stateMutability": "nonpayable",
      "type": "function"
    },
    {
      "inputs": [],
      "name": "isPublic",
      "outputs": [
        {
          "internalType": "bool",
          "name": "",
          "type": "bool"
        }
      ],
      "stateMutability": "view",
      "type": "function"
    },
    {
      "inputs": [],
      "name": "joinLeague",
      "outputs": [],
      "stateMutability": "nonpayable",
      "type": "function"
    },
    {
      "inputs": [
        {
          "internalType": "uint256",
          "name": "",
          "type": "uint256"
        }
      ],
      "name": "leagueMembers",
      "outputs": [
        {
          "internalType": "address",
          "name": "",
          "type": "address"
        }
      ],
      "stateMutability": "view",
      "type": "function"
    },
    {
      "inputs": [],
      "name": "leagueName",
      "outputs": [
        {
          "internalType": "string",
          "name": "",
          "type": "string"
        }
      ],
      "stateMutability": "view",
      "type": "function"
    },
    {
      "inputs": [],
      "name": "lockLineup",
      "outputs": [],
      "stateMutability": "nonpayable",
      "type": "function"
    },
    {
      "inputs": [],
      "name": "numWeeks",
      "outputs": [
        {
          "internalType": "uint256",
          "name": "",
          "type": "uint256"
        }
      ],
      "stateMutability": "view",
      "type": "function"
    },
    {
      "inputs": [],
      "name": "owner",
      "outputs": [
        {
          "internalType": "address",
          "name": "",
          "type": "address"
        }
      ],
      "stateMutability": "view",
      "type": "function"
    },
    {
      "inputs": [],
      "name": "polygonUSDCAddress",
      "outputs": [
        {
          "internalType": "address",
          "name": "",
          "type": "address"
        }
      ],
      "stateMutability": "view",
      "type": "function"
    },
    {
      "inputs": [
        {
          "internalType": "address",
          "name": "addr",
          "type": "address"
        }
      ],
      "name": "removeAddressFromWhitelist",
      "outputs": [
        {
          "internalType": "bool",
          "name": "success",
          "type": "bool"
        }
      ],
      "stateMutability": "nonpayable",
      "type": "function"
    },
    {
      "inputs": [
        {
          "internalType": "address[]",
          "name": "addrs",
          "type": "address[]"
        }
      ],
      "name": "removeAddressesFromWhitelist",
      "outputs": [
        {
          "internalType": "bool",
          "name": "success",
          "type": "bool"
        }
      ],
      "stateMutability": "nonpayable",
      "type": "function"
    },
    {
      "inputs": [],
      "name": "renounceOwnership",
      "outputs": [],
      "stateMutability": "nonpayable",
      "type": "function"
    },
    {
      "inputs": [
        {
          "internalType": "bytes32",
          "name": "role",
          "type": "bytes32"
        },
        {
          "internalType": "address",
          "name": "account",
          "type": "address"
        }
      ],
      "name": "renounceRole",
      "outputs": [],
      "stateMutability": "nonpayable",
      "type": "function"
    },
    {
      "inputs": [
        {
          "internalType": "bytes32",
          "name": "role",
          "type": "bytes32"
        },
        {
          "internalType": "address",
          "name": "account",
          "type": "address"
        }
      ],
      "name": "revokeRole",
      "outputs": [],
      "stateMutability": "nonpayable",
      "type": "function"
    },
    {
      "inputs": [],
      "name": "rinkebyUSDCAddress",
      "outputs": [
        {
          "internalType": "address",
          "name": "",
          "type": "address"
        }
      ],
      "stateMutability": "view",
      "type": "function"
    },
    {
      "inputs": [
        {
          "internalType": "address",
          "name": "_athleteContractAddress",
          "type": "address"
        }
      ],
      "name": "setAthleteContractAddress",
      "outputs": [],
      "stateMutability": "nonpayable",
      "type": "function"
    },
    {
      "inputs": [],
      "name": "setLeagueEntryIsClosed",
      "outputs": [],
      "stateMutability": "nonpayable",
      "type": "function"
    },
    {
      "inputs": [],
      "name": "setLeagueSchedule",
      "outputs": [],
      "stateMutability": "nonpayable",
      "type": "function"
    },
    {
      "inputs": [
        {
          "internalType": "uint256[]",
          "name": "athleteIds",
          "type": "uint256[]"
        }
      ],
      "name": "setLineup",
      "outputs": [],
      "stateMutability": "nonpayable",
      "type": "function"
    },
    {
      "inputs": [],
      "name": "stakeAmount",
      "outputs": [
        {
          "internalType": "uint256",
          "name": "",
          "type": "uint256"
        }
      ],
      "stateMutability": "view",
      "type": "function"
    },
    {
      "inputs": [
        {
          "internalType": "bytes4",
          "name": "interfaceId",
          "type": "bytes4"
        }
      ],
      "name": "supportsInterface",
      "outputs": [
        {
          "internalType": "bool",
          "name": "",
          "type": "bool"
        }
      ],
      "stateMutability": "view",
      "type": "function"
    },
    {
      "inputs": [
        {
          "internalType": "address",
          "name": "newOwner",
          "type": "address"
        }
      ],
      "name": "transferOwnership",
      "outputs": [],
      "stateMutability": "nonpayable",
      "type": "function"
    },
    {
      "inputs": [],
      "name": "unlockLineup",
      "outputs": [],
      "stateMutability": "nonpayable",
      "type": "function"
    },
    {
      "inputs": [
        {
          "internalType": "address",
          "name": "",
          "type": "address"
        },
        {
          "internalType": "uint256",
          "name": "",
          "type": "uint256"
        }
      ],
      "name": "userToRecord",
      "outputs": [
        {
          "internalType": "uint256",
          "name": "",
          "type": "uint256"
        }
      ],
      "stateMutability": "view",
      "type": "function"
    },
    {
      "inputs": [
        {
          "internalType": "address",
          "name": "",
          "type": "address"
        }
      ],
      "name": "whitelist",
      "outputs": [
        {
          "internalType": "bool",
          "name": "",
          "type": "bool"
        }
      ],
      "stateMutability": "view",
      "type": "function"
    }
  ],
  "bytecode": "0x60806040523480156200001157600080fd5b5062000032620000266200003860201b60201c565b6200004060201b60201c565b62000105565b600033905090565b60008060029054906101000a900473ffffffffffffffffffffffffffffffffffffffff16905081600060026101000a81548173ffffffffffffffffffffffffffffffffffffffff021916908373ffffffffffffffffffffffffffffffffffffffff1602179055508173ffffffffffffffffffffffffffffffffffffffff168173ffffffffffffffffffffffffffffffffffffffff167f8be0079c531659141344cd1fd0a4f28419497f9722a3daafe3b4186f6b6457e060405160405180910390a35050565b614ee480620001156000396000f3fe60806040523480156200001157600080fd5b50600436106200028b5760003560e01c80637eed33f11162000165578063ada3a28d11620000d5578063dc9a15351162000093578063dc9a15351462000758578063e2ec6ec3146200077a578063e4c9066b14620007b0578063f2fde38b14620007bc578063f612121a14620007dc578063f881604514620007fc576200028b565b8063ada3a28d14620006de578063c04c84191462000700578063c8be3b5b1462000720578063c99fea94146200072c578063d547741f1462000738576200028b565b806393f3706c116200012357806393f3706c146200063657806399a6003414620006585780639b19251a146200067a578063a217fddf14620006b0578063a2bc091a14620006d2576200028b565b80637eed33f1146200058e578063841abf6e14620005b057806385334ffa14620005d25780638da5cb5b14620005de57806391d148541462000600576200028b565b806336568abe11620002015780636802471711620001bf5780636802471714620004e8578063715018a6146200051e578063722580b6146200052a5780637ac6aa1d146200054c5780637b9417c81462000558576200028b565b806336568abe1462000442578063403570c51462000462578063486b3944146200048457806352e6e5f314620004a457806360c7dc4714620004c6576200028b565b8063248a9ca3116200024f578063248a9ca3146200034a57806324953eaa1462000380578063267175db14620003b6578063286dd3f514620003ec5780632f2ff15d1462000422576200028b565b8062b2476f146200029057806301ffc9a714620002b25780630655465a14620002e8578063087e18a714620002f45780630c6f79591462000314575b600080fd5b6200029a6200081e565b604051620002a9919062003450565b60405180910390f35b620002d06004803603810190620002ca919062002e81565b62000844565b604051620002df919062003519565b60405180910390f35b620002f2620008c1565b005b6200031260048036038101906200030c919062002cbb565b62000979565b005b6200033260048036038101906200032c919062002ced565b62000afd565b60405162000341919062003748565b60405180910390f35b62000368600480360381019062000362919062002e08565b62000b26565b60405162000377919062003536565b60405180910390f35b6200039e600480360381019062000398919062002d34565b62000b46565b604051620003ad919062003519565b60405180910390f35b620003d46004803603810190620003ce919062002f9f565b62000c43565b604051620003e3919062003450565b60405180910390f35b6200040a600480360381019062000404919062002cbb565b62000c83565b60405162000419919062003519565b60405180910390f35b6200044060048036038101906200043a919062002e3a565b62000e12565b005b6200046060048036038101906200045a919062002e3a565b62000e43565b005b6200046c62000ecd565b6040516200047b919062003614565b60405180910390f35b620004a260048036038101906200049c919062002cbb565b62000f67565b005b620004ae6200102e565b604051620004bd919062003748565b60405180910390f35b620004d062001034565b604051620004df919062003748565b60405180910390f35b62000506600480360381019062000500919062002cbb565b6200103a565b60405162000515919062003748565b60405180910390f35b62000528620010d2565b005b6200053462001163565b60405162000543919062003748565b60405180910390f35b620005566200116d565b005b62000576600480360381019062000570919062002cbb565b620011e0565b60405162000585919062003519565b60405180910390f35b620005986200136e565b604051620005a7919062003748565b60405180910390f35b620005ba62001374565b604051620005c9919062003614565b60405180910390f35b620005dc6200140a565b005b620005e86200152c565b604051620005f7919062003450565b60405180910390f35b6200061e600480360381019062000618919062002e3a565b62001555565b6040516200062d919062003519565b60405180910390f35b62000640620015c0565b6040516200064f919062003450565b60405180910390f35b62000662620015e6565b60405162000671919062003748565b60405180910390f35b62000698600480360381019062000692919062002cbb565b62001602565b604051620006a7919062003519565b60405180910390f35b620006ba62001622565b604051620006c9919062003536565b60405180910390f35b620006dc62001629565b005b620006e8620016c9565b604051620006f79190620034f5565b60405180910390f35b6200071e600480360381019062000718919062002eb3565b62001760565b005b6200072a62001aeb565b005b6200073662001b8b565b005b62000756600480360381019062000750919062002e3a565b62001ce2565b005b6200076262001d13565b60405162000771919062003519565b60405180910390f35b62000798600480360381019062000792919062002d34565b62001d26565b604051620007a7919062003519565b60405180910390f35b620007ba62001e23565b005b620007da6004803603810190620007d4919062002cbb565b62001ec3565b005b620007fa6004803603810190620007f4919062002d85565b62001fc7565b005b6200080662002073565b604051620008159190620034d7565b60405180910390f35b601060009054906101000a900473ffffffffffffffffffffffffffffffffffffffff1681565b60007f7965db0b000000000000000000000000000000000000000000000000000000007bffffffffffffffffffffffffffffffffffffffffffffffffffffffff1916827bffffffffffffffffffffffffffffffffffffffffffffffffffffffff19161480620008ba5750620008b982620020ff565b5b9050919050565b620009016040518060400160405280601081526020017f73657474696e67207363686564756c650000000000000000000000000000000081525062002169565b73__$36fdb4e0c2cb91f3ceca5ea81b025328f3$__63d2c232b5600e600960065460056040518563ffffffff1660e01b815260040162000945949392919062003553565b60006040518083038186803b1580156200095e57600080fd5b505af415801562000973573d6000803e3d6000fd5b50505050565b600a60149054906101000a900460ff1615620009cc576040517f08c379a0000000000000000000000000000000000000000000000000000000008152600401620009c39062003704565b60405180910390fd5b6008600980549050101562000ad5576009819080600181540180825580915050600190039060005260206000200160009091909190916101000a81548173ffffffffffffffffffffffffffffffffffffffff021916908373ffffffffffffffffffffffffffffffffffffffff160217905550601360009054906101000a900473ffffffffffffffffffffffffffffffffffffffff1673ffffffffffffffffffffffffffffffffffffffff1663771bd4ce826040518263ffffffff1660e01b815260040162000a9b919062003450565b600060405180830381600087803b15801562000ab657600080fd5b505af115801562000acb573d6000803e3d6000fd5b5050505062000afa565b62000af960405180606001604052806028815260200162004e876028913962002169565b5b50565b600c602052816000526040600020816008811062000b1a57600080fd5b01600091509150505481565b600060016000838152602001908152602001600020600101549050919050565b600062000b5262002206565b73ffffffffffffffffffffffffffffffffffffffff1662000b726200152c565b73ffffffffffffffffffffffffffffffffffffffff161462000bcb576040517f08c379a000000000000000000000000000000000000000000000000000000000815260040162000bc290620036e2565b60405180910390fd5b60005b825181101562000c3d5762000c0083828151811062000bf25762000bf162003bd1565b5b602002602001015162000c83565b1562000c275760016003600082825462000c1b91906200395d565b92505081905550600191505b808062000c349062003b25565b91505062000bce565b50919050565b6009818154811062000c5457600080fd5b906000526020600020016000915054906101000a900473ffffffffffffffffffffffffffffffffffffffff1681565b600062000c8f62002206565b73ffffffffffffffffffffffffffffffffffffffff1662000caf6200152c565b73ffffffffffffffffffffffffffffffffffffffff161462000d08576040517f08c379a000000000000000000000000000000000000000000000000000000000815260040162000cff90620036e2565b60405180910390fd5b600260008373ffffffffffffffffffffffffffffffffffffffff1673ffffffffffffffffffffffffffffffffffffffff16815260200190815260200160002060009054906101000a900460ff161562000e0d576000600260008473ffffffffffffffffffffffffffffffffffffffff1673ffffffffffffffffffffffffffffffffffffffff16815260200190815260200160002060006101000a81548160ff0219169083151502179055507ff1abf01a1043b7c244d128e8595cf0c1d10743b022b03a02dffd8ca3bf729f5a8260405162000de4919062003450565b60405180910390a160016003600082825462000e0191906200395d565b92505081905550600190505b919050565b62000e1d8262000b26565b62000e328162000e2c62002206565b6200220e565b62000e3e8383620022b6565b505050565b62000e4d62002206565b73ffffffffffffffffffffffffffffffffffffffff168173ffffffffffffffffffffffffffffffffffffffff161462000ebd576040517f08c379a000000000000000000000000000000000000000000000000000000000815260040162000eb49062003726565b60405180910390fd5b62000ec982826200239b565b5050565b60606005805462000ede9062003ab9565b80601f016020809104026020016040519081016040528092919081815260200182805462000f0c9062003ab9565b801562000f5d5780601f1062000f315761010080835404028352916020019162000f5d565b820191906000526020600020905b81548152906001019060200180831162000f3f57829003601f168201915b5050505050905090565b62000f7162002206565b73ffffffffffffffffffffffffffffffffffffffff1662000f916200152c565b73ffffffffffffffffffffffffffffffffffffffff161462000fea576040517f08c379a000000000000000000000000000000000000000000000000000000000815260040162000fe190620036e2565b60405180910390fd5b80601160006101000a81548173ffffffffffffffffffffffffffffffffffffffff021916908373ffffffffffffffffffffffffffffffffffffffff16021790555050565b60075481565b60085481565b60008173ffffffffffffffffffffffffffffffffffffffff166370a08231306040518263ffffffff1660e01b815260040162001077919062003450565b60206040518083038186803b1580156200109057600080fd5b505afa158015620010a5573d6000803e3d6000fd5b505050506040513d601f19601f82011682018060405250810190620010cb919062002fd1565b9050919050565b620010dc62002206565b73ffffffffffffffffffffffffffffffffffffffff16620010fc6200152c565b73ffffffffffffffffffffffffffffffffffffffff161462001155576040517f08c379a00000000000000000000000000000000000000000000000000000000081526004016200114c90620036e2565b60405180910390fd5b62001161600062002482565b565b6000600854905090565b6200117c6000801b3362001555565b6200118657600080fd5b6001600260003373ffffffffffffffffffffffffffffffffffffffff1673ffffffffffffffffffffffffffffffffffffffff16815260200190815260200160002060006101000a81548160ff021916908315150217905550565b6000620011ec62002206565b73ffffffffffffffffffffffffffffffffffffffff166200120c6200152c565b73ffffffffffffffffffffffffffffffffffffffff161462001265576040517f08c379a00000000000000000000000000000000000000000000000000000000081526004016200125c90620036e2565b60405180910390fd5b600260008373ffffffffffffffffffffffffffffffffffffffff1673ffffffffffffffffffffffffffffffffffffffff16815260200190815260200160002060009054906101000a900460ff1662001369576001600260008473ffffffffffffffffffffffffffffffffffffffff1673ffffffffffffffffffffffffffffffffffffffff16815260200190815260200160002060006101000a81548160ff0219169083151502179055507fd1bba68c128cc3f427e5831b3c6f99f480b6efa6b9e80c757768f6124158cc3f8260405162001340919062003450565b60405180910390a16001600360008282546200135d91906200389f565b92505081905550600190505b919050565b60065481565b60058054620013839062003ab9565b80601f0160208091040260200160405190810160405280929190818152602001828054620013b19062003ab9565b8015620014025780601f10620013d65761010080835404028352916020019162001402565b820191906000526020600020905b815481529060010190602001808311620013e457829003601f168201915b505050505081565b6200141462002206565b73ffffffffffffffffffffffffffffffffffffffff16620014346200152c565b73ffffffffffffffffffffffffffffffffffffffff16146200148d576040517f08c379a00000000000000000000000000000000000000000000000000000000081526004016200148490620036e2565b60405180910390fd5b73__$36fdb4e0c2cb91f3ceca5ea81b025328f3$__63c406e268600e600754601160009054906101000a900473ffffffffffffffffffffffffffffffffffffffff16600c600b600d6040518763ffffffff1660e01b8152600401620014f896959493929190620035a7565b60006040518083038186803b1580156200151157600080fd5b505af415801562001526573d6000803e3d6000fd5b50505050565b60008060029054906101000a900473ffffffffffffffffffffffffffffffffffffffff16905090565b60006001600084815260200190815260200160002060000160008373ffffffffffffffffffffffffffffffffffffffff1673ffffffffffffffffffffffffffffffffffffffff16815260200190815260200160002060009054906101000a900460ff16905092915050565b600f60009054906101000a900473ffffffffffffffffffffffffffffffffffffffff1681565b6000600980549050600854620015fd9190620038fc565b905090565b60026020528060005260406000206000915054906101000a900460ff1681565b6000801b81565b6200163362002206565b73ffffffffffffffffffffffffffffffffffffffff16620016536200152c565b73ffffffffffffffffffffffffffffffffffffffff1614620016ac576040517f08c379a0000000000000000000000000000000000000000000000000000000008152600401620016a390620036e2565b60405180910390fd5b6000600a60156101000a81548160ff021916908315150217905550565b6060600d60003373ffffffffffffffffffffffffffffffffffffffff1673ffffffffffffffffffffffffffffffffffffffff1681526020019081526020016000208054806020026020016040519081016040528092919081815260200182805480156200175657602002820191906000526020600020905b81548152602001906001019080831162001741575b5050505050905090565b600060019054906101000a900460ff166200178a5760008054906101000a900460ff161562001795565b6200179462002547565b5b620017d7576040517f08c379a0000000000000000000000000000000000000000000000000000000008152600401620017ce90620036c0565b60405180910390fd5b60008060019054906101000a900460ff16159050801562001828576001600060016101000a81548160ff02191690831515021790555060016000806101000a81548160ff0219169083151502179055505b8989600591906200183b9291906200292c565b506008600681905550620018536000801b866200255a565b6009859080600181540180825580915050600190039060005260206000200160009091909190916101000a81548173ffffffffffffffffffffffffffffffffffffffff021916908373ffffffffffffffffffffffffffffffffffffffff1602179055508760088190555086600460006101000a81548160ff0219169083151502179055506000600a60156101000a81548160ff0219169083151502179055506000600a60146101000a81548160ff02191690831515021790555085601160006101000a81548173ffffffffffffffffffffffffffffffffffffffff021916908373ffffffffffffffffffffffffffffffffffffffff16021790555081601360006101000a81548173ffffffffffffffffffffffffffffffffffffffff021916908373ffffffffffffffffffffffffffffffffffffffff1602179055506040516200199d90620029bd565b604051809103906000f080158015620019ba573d6000803e3d6000fd5b50601260006101000a81548173ffffffffffffffffffffffffffffffffffffffff021916908373ffffffffffffffffffffffffffffffffffffffff16021790555083600f60006101000a81548173ffffffffffffffffffffffffffffffffffffffff021916908373ffffffffffffffffffffffffffffffffffffffff16021790555082601060006101000a81548173ffffffffffffffffffffffffffffffffffffffff021916908373ffffffffffffffffffffffffffffffffffffffff16021790555062001abd6040518060400160405280601281526020017f50726f787920696e697469616c697a656421000000000000000000000000000081525062002169565b801562001adf5760008060016101000a81548160ff0219169083151502179055505b50505050505050505050565b62001af562002206565b73ffffffffffffffffffffffffffffffffffffffff1662001b156200152c565b73ffffffffffffffffffffffffffffffffffffffff161462001b6e576040517f08c379a000000000000000000000000000000000000000000000000000000000815260040162001b6590620036e2565b60405180910390fd5b6001600a60156101000a81548160ff021916908315150217905550565b600260003373ffffffffffffffffffffffffffffffffffffffff1673ffffffffffffffffffffffffffffffffffffffff16815260200190815260200160002060009054906101000a900460ff168062001bf05750600460009054906101000a900460ff165b62001bfa57600080fd5b600a60149054906101000a900460ff161562001c4d576040517f08c379a000000000000000000000000000000000000000000000000000000000815260040162001c449062003704565b60405180910390fd5b6009339080600181540180825580915050600190039060005260206000200160009091909190916101000a81548173ffffffffffffffffffffffffffffffffffffffff021916908373ffffffffffffffffffffffffffffffffffffffff16021790555062001ce0601060009054906101000a900473ffffffffffffffffffffffffffffffffffffffff166008546200256a565b565b62001ced8262000b26565b62001d028162001cfc62002206565b6200220e565b62001d0e83836200239b565b505050565b600460009054906101000a900460ff1681565b600062001d3262002206565b73ffffffffffffffffffffffffffffffffffffffff1662001d526200152c565b73ffffffffffffffffffffffffffffffffffffffff161462001dab576040517f08c379a000000000000000000000000000000000000000000000000000000000815260040162001da290620036e2565b60405180910390fd5b60005b825181101562001e1d5762001de083828151811062001dd25762001dd162003bd1565b5b6020026020010151620011e0565b1562001e075760016003600082825462001dfb91906200389f565b92505081905550600191505b808062001e149062003b25565b91505062001dae565b50919050565b62001e2d62002206565b73ffffffffffffffffffffffffffffffffffffffff1662001e4d6200152c565b73ffffffffffffffffffffffffffffffffffffffff161462001ea6576040517f08c379a000000000000000000000000000000000000000000000000000000000815260040162001e9d90620036e2565b60405180910390fd5b6001600a60146101000a81548160ff021916908315150217905550565b62001ecd62002206565b73ffffffffffffffffffffffffffffffffffffffff1662001eed6200152c565b73ffffffffffffffffffffffffffffffffffffffff161462001f46576040517f08c379a000000000000000000000000000000000000000000000000000000000815260040162001f3d90620036e2565b60405180910390fd5b600073ffffffffffffffffffffffffffffffffffffffff168173ffffffffffffffffffffffffffffffffffffffff16141562001fb9576040517f08c379a000000000000000000000000000000000000000000000000000000000815260040162001fb0906200365a565b60405180910390fd5b62001fc48162002482565b50565b600a60159054906101000a900460ff16156200201a576040517f08c379a000000000000000000000000000000000000000000000000000000000815260040162002011906200369e565b60405180910390fd5b80600d60003373ffffffffffffffffffffffffffffffffffffffff1673ffffffffffffffffffffffffffffffffffffffff16815260200190815260200160002090805190602001906200206f929190620029cb565b5050565b6200207d62002a1d565b600c60003373ffffffffffffffffffffffffffffffffffffffff1673ffffffffffffffffffffffffffffffffffffffff168152602001908152602001600020600880602002604051908101604052809291908260088015620020f5576020028201915b815481526020019060010190808311620020e0575b5050505050905090565b60007f01ffc9a7000000000000000000000000000000000000000000000000000000007bffffffffffffffffffffffffffffffffffffffffffffffffffffffff1916827bffffffffffffffffffffffffffffffffffffffffffffffffffffffff1916149050919050565b620022038160405160240162002180919062003614565b6040516020818303038152906040527f41304fac000000000000000000000000000000000000000000000000000000007bffffffffffffffffffffffffffffffffffffffffffffffffffffffff19166020820180517bffffffffffffffffffffffffffffffffffffffffffffffffffffffff838183161783525050505062002685565b50565b600033905090565b6200221a828262001555565b620022b257620022428173ffffffffffffffffffffffffffffffffffffffff166014620026ae565b620022528360001c6020620026ae565b604051602001620022659291906200340e565b6040516020818303038152906040526040517f08c379a0000000000000000000000000000000000000000000000000000000008152600401620022a9919062003614565b60405180910390fd5b5050565b620022c2828262001555565b6200239757600180600084815260200190815260200160002060000160008373ffffffffffffffffffffffffffffffffffffffff1673ffffffffffffffffffffffffffffffffffffffff16815260200190815260200160002060006101000a81548160ff0219169083151502179055506200233c62002206565b73ffffffffffffffffffffffffffffffffffffffff168173ffffffffffffffffffffffffffffffffffffffff16837f2f8788117e7eff1d82e926ec794901d17c78024a50270940304540a733656f0d60405160405180910390a45b5050565b620023a7828262001555565b156200247e5760006001600084815260200190815260200160002060000160008373ffffffffffffffffffffffffffffffffffffffff1673ffffffffffffffffffffffffffffffffffffffff16815260200190815260200160002060006101000a81548160ff0219169083151502179055506200242362002206565b73ffffffffffffffffffffffffffffffffffffffff168173ffffffffffffffffffffffffffffffffffffffff16837ff6391f5c32d9c69d2a47ea670b442974b53935d1edc7fd64eb21e047a839171b60405160405180910390a45b5050565b60008060029054906101000a900473ffffffffffffffffffffffffffffffffffffffff16905081600060026101000a81548173ffffffffffffffffffffffffffffffffffffffff021916908373ffffffffffffffffffffffffffffffffffffffff1602179055508173ffffffffffffffffffffffffffffffffffffffff168173ffffffffffffffffffffffffffffffffffffffff167f8be0079c531659141344cd1fd0a4f28419497f9722a3daafe3b4186f6b6457e060405160405180910390a35050565b6000620025543062002909565b15905090565b620025668282620022b6565b5050565b60008111620025b0576040517f08c379a0000000000000000000000000000000000000000000000000000000008152600401620025a7906200367c565b60405180910390fd5b8173ffffffffffffffffffffffffffffffffffffffff166323b872dd3330846040518463ffffffff1660e01b8152600401620025ef939291906200346d565b602060405180830381600087803b1580156200260a57600080fd5b505af11580156200261f573d6000803e3d6000fd5b505050506040513d601f19601f8201168201806040525081019062002645919062002dd6565b507f9e71bc8eea02a63969f509818f2dafb9254532904319f9dbda79b67bd34a5f3d338260405162002679929190620034aa565b60405180910390a15050565b60008151905060006a636f6e736f6c652e6c6f679050602083016000808483855afa5050505050565b606060006002836002620026c39190620038fc565b620026cf91906200389f565b67ffffffffffffffff811115620026eb57620026ea62003c00565b5b6040519080825280601f01601f1916602001820160405280156200271e5781602001600182028036833780820191505090505b5090507f30000000000000000000000000000000000000000000000000000000000000008160008151811062002759576200275862003bd1565b5b60200101907effffffffffffffffffffffffffffffffffffffffffffffffffffffffffffff1916908160001a9053507f780000000000000000000000000000000000000000000000000000000000000081600181518110620027c057620027bf62003bd1565b5b60200101907effffffffffffffffffffffffffffffffffffffffffffffffffffffffffffff1916908160001a90535060006001846002620028029190620038fc565b6200280e91906200389f565b90505b6001811115620028b8577f3031323334353637383961626364656600000000000000000000000000000000600f86166010811062002854576200285362003bd1565b5b1a60f81b8282815181106200286e576200286d62003bd1565b5b60200101907effffffffffffffffffffffffffffffffffffffffffffffffffffffffffffff1916908160001a905350600485901c945080620028b09062003a8a565b905062002811565b5060008414620028ff576040517f08c379a0000000000000000000000000000000000000000000000000000000008152600401620028f69062003638565b60405180910390fd5b8091505092915050565b6000808273ffffffffffffffffffffffffffffffffffffffff163b119050919050565b8280546200293a9062003ab9565b90600052602060002090601f0160209004810192826200295e5760008555620029aa565b82601f106200297957803560ff1916838001178555620029aa565b82800160010185558215620029aa579182015b82811115620029a95782358255916020019190600101906200298c565b5b509050620029b9919062002a40565b5090565b610f9f8062003ee883390190565b82805482825590600052602060002090810192821562002a0a579160200282015b8281111562002a09578251825591602001919060010190620029ec565b5b50905062002a19919062002a40565b5090565b604051806101000160405280600890602082028036833780820191505090505090565b5b8082111562002a5b57600081600090555060010162002a41565b5090565b600062002a7662002a70846200378e565b62003765565b9050808382526020820190508285602086028201111562002a9c5762002a9b62003c39565b5b60005b8581101562002ad0578162002ab5888262002b55565b84526020840193506020830192505060018101905062002a9f565b5050509392505050565b600062002af162002aeb84620037bd565b62003765565b9050808382526020820190508285602086028201111562002b175762002b1662003c39565b5b60005b8581101562002b4b578162002b30888262002c8d565b84526020840193506020830192505060018101905062002b1a565b5050509392505050565b60008135905062002b668162003e65565b92915050565b600082601f83011262002b845762002b8362003c34565b5b813562002b9684826020860162002a5f565b91505092915050565b600082601f83011262002bb75762002bb662003c34565b5b813562002bc984826020860162002ada565b91505092915050565b60008135905062002be38162003e7f565b92915050565b60008151905062002bfa8162003e7f565b92915050565b60008135905062002c118162003e99565b92915050565b60008135905062002c288162003eb3565b92915050565b60008083601f84011262002c475762002c4662003c34565b5b8235905067ffffffffffffffff81111562002c675762002c6662003c2f565b5b60208301915083600182028301111562002c865762002c8562003c39565b5b9250929050565b60008135905062002c9e8162003ecd565b92915050565b60008151905062002cb58162003ecd565b92915050565b60006020828403121562002cd45762002cd362003c43565b5b600062002ce48482850162002b55565b91505092915050565b6000806040838503121562002d075762002d0662003c43565b5b600062002d178582860162002b55565b925050602062002d2a8582860162002c8d565b9150509250929050565b60006020828403121562002d4d5762002d4c62003c43565b5b600082013567ffffffffffffffff81111562002d6e5762002d6d62003c3e565b5b62002d7c8482850162002b6c565b91505092915050565b60006020828403121562002d9e5762002d9d62003c43565b5b600082013567ffffffffffffffff81111562002dbf5762002dbe62003c3e565b5b62002dcd8482850162002b9f565b91505092915050565b60006020828403121562002def5762002dee62003c43565b5b600062002dff8482850162002be9565b91505092915050565b60006020828403121562002e215762002e2062003c43565b5b600062002e318482850162002c00565b91505092915050565b6000806040838503121562002e545762002e5362003c43565b5b600062002e648582860162002c00565b925050602062002e778582860162002b55565b9150509250929050565b60006020828403121562002e9a5762002e9962003c43565b5b600062002eaa8482850162002c17565b91505092915050565b60008060008060008060008060006101008a8c03121562002ed95762002ed862003c43565b5b60008a013567ffffffffffffffff81111562002efa5762002ef962003c3e565b5b62002f088c828d0162002c2e565b9950995050602062002f1d8c828d0162002c8d565b975050604062002f308c828d0162002bd2565b965050606062002f438c828d0162002b55565b955050608062002f568c828d0162002b55565b94505060a062002f698c828d0162002b55565b93505060c062002f7c8c828d0162002b55565b92505060e062002f8f8c828d0162002b55565b9150509295985092959850929598565b60006020828403121562002fb85762002fb762003c43565b5b600062002fc88482850162002c8d565b91505092915050565b60006020828403121562002fea5762002fe962003c43565b5b600062002ffa8482850162002ca4565b91505092915050565b6000620030118383620033db565b60208301905092915050565b620030288162003998565b82525050565b8082525050565b62003040816200381b565b6200304c818462003856565b92506200305982620037ec565b8060005b838110156200309057815162003074878262003003565b965062003081836200383c565b9250506001810190506200305d565b505050505050565b6000620030a58262003826565b620030b1818562003861565b9350620030be83620037f6565b8060005b83811015620030f5578151620030d9888262003003565b9750620030e68362003849565b925050600181019050620030c2565b5085935050505092915050565b6200310d81620039ac565b82525050565b6200311e81620039b8565b82525050565b6200312f8162003a18565b82525050565b8082525050565b8082525050565b8082525050565b8082525050565b60006200315e8262003831565b6200316a818562003872565b93506200317c81856020860162003a54565b620031878162003c48565b840191505092915050565b60006200319f8262003831565b620031ab818562003894565b9350620031bd81856020860162003a54565b80840191505092915050565b60008154620031d88162003ab9565b620031e4818662003883565b9450600182166000811462003202576001811462003215576200324c565b60ff19831686526020860193506200324c565b620032208562003806565b60005b83811015620032445781548189015260018201915060208101905062003223565b808801955050505b50505092915050565b60006200326460208362003872565b9150620032718262003c59565b602082019050919050565b60006200328b60268362003872565b9150620032988262003c82565b604082019050919050565b6000620032b2600e8362003872565b9150620032bf8262003cd1565b602082019050919050565b6000620032d9601e8362003872565b9150620032e68262003cfa565b602082019050919050565b600062003300602e8362003872565b91506200330d8262003d23565b604082019050919050565b60006200332760208362003872565b9150620033348262003d72565b602082019050919050565b60006200334e60178362003894565b91506200335b8262003d9b565b601782019050919050565b60006200337560178362003872565b9150620033828262003dc4565b602082019050919050565b60006200339c60118362003894565b9150620033a98262003ded565b601182019050919050565b6000620033c3602f8362003872565b9150620033d08262003e16565b604082019050919050565b620033e68162003a0e565b82525050565b620033f78162003a0e565b82525050565b620034088162003a0e565b82525050565b60006200341b826200333f565b915062003429828562003192565b915062003436826200338d565b915062003444828462003192565b91508190509392505050565b60006020820190506200346760008301846200301d565b92915050565b60006060820190506200348460008301866200301d565b6200349360208301856200301d565b620034a26040830184620033ec565b949350505050565b6000604082019050620034c160008301856200301d565b620034d06020830184620033ec565b9392505050565b600061010082019050620034ef600083018462003035565b92915050565b6000602082019050818103600083015262003511818462003098565b905092915050565b600060208201905062003530600083018462003102565b92915050565b60006020820190506200354d600083018462003113565b92915050565b60006080820190506200356a60008301876200314a565b6200357960208301866200302e565b620035886040830185620033fd565b81810360608301526200359c8184620031c9565b905095945050505050565b600060c082019050620035be60008301896200314a565b620035cd6020830188620033fd565b620035dc604083018762003124565b620035eb606083018662003135565b620035fa608083018562003143565b6200360960a08301846200313c565b979650505050505050565b6000602082019050818103600083015262003630818462003151565b905092915050565b60006020820190508181036000830152620036538162003255565b9050919050565b6000602082019050818103600083015262003675816200327c565b9050919050565b600060208201905081810360008301526200369781620032a3565b9050919050565b60006020820190508181036000830152620036b981620032ca565b9050919050565b60006020820190508181036000830152620036db81620032f1565b9050919050565b60006020820190508181036000830152620036fd8162003318565b9050919050565b600060208201905081810360008301526200371f8162003366565b9050919050565b600060208201905081810360008301526200374181620033b4565b9050919050565b60006020820190506200375f6000830184620033ec565b92915050565b60006200377162003784565b90506200377f828262003aef565b919050565b6000604051905090565b600067ffffffffffffffff821115620037ac57620037ab62003c00565b5b602082029050602081019050919050565b600067ffffffffffffffff821115620037db57620037da62003c00565b5b602082029050602081019050919050565b6000819050919050565b6000819050602082019050919050565b60008190508160005260206000209050919050565b600060089050919050565b600081519050919050565b600081519050919050565b6000602082019050919050565b6000602082019050919050565b600081905092915050565b600082825260208201905092915050565b600082825260208201905092915050565b600082825260208201905092915050565b600081905092915050565b6000620038ac8262003a0e565b9150620038b98362003a0e565b9250827fffffffffffffffffffffffffffffffffffffffffffffffffffffffffffffffff03821115620038f157620038f062003b73565b5b828201905092915050565b6000620039098262003a0e565b9150620039168362003a0e565b9250817fffffffffffffffffffffffffffffffffffffffffffffffffffffffffffffffff048311821515161562003952576200395162003b73565b5b828202905092915050565b60006200396a8262003a0e565b9150620039778362003a0e565b9250828210156200398d576200398c62003b73565b5b828203905092915050565b6000620039a582620039ee565b9050919050565b60008115159050919050565b6000819050919050565b60007fffffffff0000000000000000000000000000000000000000000000000000000082169050919050565b600073ffffffffffffffffffffffffffffffffffffffff82169050919050565b6000819050919050565b600062003a258262003a2c565b9050919050565b600062003a398262003a40565b9050919050565b600062003a4d82620039ee565b9050919050565b60005b8381101562003a7457808201518184015260208101905062003a57565b8381111562003a84576000848401525b50505050565b600062003a978262003a0e565b9150600082141562003aae5762003aad62003b73565b5b600182039050919050565b6000600282049050600182168062003ad257607f821691505b6020821081141562003ae95762003ae862003ba2565b5b50919050565b62003afa8262003c48565b810181811067ffffffffffffffff8211171562003b1c5762003b1b62003c00565b5b80604052505050565b600062003b328262003a0e565b91507fffffffffffffffffffffffffffffffffffffffffffffffffffffffffffffffff82141562003b685762003b6762003b73565b5b600182019050919050565b7f4e487b7100000000000000000000000000000000000000000000000000000000600052601160045260246000fd5b7f4e487b7100000000000000000000000000000000000000000000000000000000600052602260045260246000fd5b7f4e487b7100000000000000000000000000000000000000000000000000000000600052603260045260246000fd5b7f4e487b7100000000000000000000000000000000000000000000000000000000600052604160045260246000fd5b600080fd5b600080fd5b600080fd5b600080fd5b600080fd5b6000601f19601f8301169050919050565b7f537472696e67733a20686578206c656e67746820696e73756666696369656e74600082015250565b7f4f776e61626c653a206e6577206f776e657220697320746865207a65726f206160008201527f6464726573730000000000000000000000000000000000000000000000000000602082015250565b7f43616e6e6f74207374616b652030000000000000000000000000000000000000600082015250565b7f6c696e657570206973206c6f636b656420666f7220746865207765656b210000600082015250565b7f496e697469616c697a61626c653a20636f6e747261637420697320616c72656160008201527f647920696e697469616c697a6564000000000000000000000000000000000000602082015250565b7f4f776e61626c653a2063616c6c6572206973206e6f7420746865206f776e6572600082015250565b7f416363657373436f6e74726f6c3a206163636f756e7420000000000000000000600082015250565b7f4c656167756520456e74727920697320436c6f73656421000000000000000000600082015250565b7f206973206d697373696e6720726f6c6520000000000000000000000000000000600082015250565b7f416363657373436f6e74726f6c3a2063616e206f6e6c792072656e6f756e636560008201527f20726f6c657320666f722073656c660000000000000000000000000000000000602082015250565b62003e708162003998565b811462003e7c57600080fd5b50565b62003e8a81620039ac565b811462003e9657600080fd5b50565b62003ea481620039b8565b811462003eb057600080fd5b50565b62003ebe81620039c2565b811462003eca57600080fd5b50565b62003ed88162003a0e565b811462003ee457600080fd5b5056fe608060405234801561001057600080fd5b5061002d61002261003260201b60201c565b61003a60201b60201c565b6100fe565b600033905090565b60008060009054906101000a900473ffffffffffffffffffffffffffffffffffffffff169050816000806101000a81548173ffffffffffffffffffffffffffffffffffffffff021916908373ffffffffffffffffffffffffffffffffffffffff1602179055508173ffffffffffffffffffffffffffffffffffffffff168173ffffffffffffffffffffffffffffffffffffffff167f8be0079c531659141344cd1fd0a4f28419497f9722a3daafe3b4186f6b6457e060405160405180910390a35050565b610e928061010d6000396000f3fe608060405234801561001057600080fd5b50600436106100935760003560e01c80638da5cb5b116100665780638da5cb5b146101325780639b19251a14610150578063dc9a153514610180578063e2ec6ec31461019e578063f2fde38b146101ce57610093565b806324953eaa14610098578063286dd3f5146100c8578063715018a6146100f85780637b9417c814610102575b600080fd5b6100b260048036038101906100ad9190610a4a565b6101ea565b6040516100bf9190610b12565b60405180910390f35b6100e260048036038101906100dd9190610a1d565b6102d4565b6040516100ef9190610b12565b60405180910390f35b610100610457565b005b61011c60048036038101906101179190610a1d565b6104df565b6040516101299190610b12565b60405180910390f35b61013a610660565b6040516101479190610af7565b60405180910390f35b61016a60048036038101906101659190610a1d565b610689565b6040516101779190610b12565b60405180910390f35b6101886106a9565b6040516101959190610b12565b60405180910390f35b6101b860048036038101906101b39190610a4a565b6106bc565b6040516101c59190610b12565b60405180910390f35b6101e860048036038101906101e39190610a1d565b6107a6565b005b60006101f461089e565b73ffffffffffffffffffffffffffffffffffffffff16610212610660565b73ffffffffffffffffffffffffffffffffffffffff1614610268576040517f08c379a000000000000000000000000000000000000000000000000000000000815260040161025f90610b4d565b60405180910390fd5b60005b82518110156102ce5761029783828151811061028a57610289610d4a565b5b60200260200101516102d4565b156102bb576001600260008282546102af9190610c25565b92505081905550600191505b80806102c690610cd2565b91505061026b565b50919050565b60006102de61089e565b73ffffffffffffffffffffffffffffffffffffffff166102fc610660565b73ffffffffffffffffffffffffffffffffffffffff1614610352576040517f08c379a000000000000000000000000000000000000000000000000000000000815260040161034990610b4d565b60405180910390fd5b600160008373ffffffffffffffffffffffffffffffffffffffff1673ffffffffffffffffffffffffffffffffffffffff16815260200190815260200160002060009054906101000a900460ff1615610452576000600160008473ffffffffffffffffffffffffffffffffffffffff1673ffffffffffffffffffffffffffffffffffffffff16815260200190815260200160002060006101000a81548160ff0219169083151502179055507ff1abf01a1043b7c244d128e8595cf0c1d10743b022b03a02dffd8ca3bf729f5a8260405161042b9190610af7565b60405180910390a16001600260008282546104469190610c25565b92505081905550600190505b919050565b61045f61089e565b73ffffffffffffffffffffffffffffffffffffffff1661047d610660565b73ffffffffffffffffffffffffffffffffffffffff16146104d3576040517f08c379a00000000000000000000000000000000000000000000000000000000081526004016104ca90610b4d565b60405180910390fd5b6104dd60006108a6565b565b60006104e961089e565b73ffffffffffffffffffffffffffffffffffffffff16610507610660565b73ffffffffffffffffffffffffffffffffffffffff161461055d576040517f08c379a000000000000000000000000000000000000000000000000000000000815260040161055490610b4d565b60405180910390fd5b600160008373ffffffffffffffffffffffffffffffffffffffff1673ffffffffffffffffffffffffffffffffffffffff16815260200190815260200160002060009054906101000a900460ff1661065b5760018060008473ffffffffffffffffffffffffffffffffffffffff1673ffffffffffffffffffffffffffffffffffffffff16815260200190815260200160002060006101000a81548160ff0219169083151502179055507fd1bba68c128cc3f427e5831b3c6f99f480b6efa6b9e80c757768f6124158cc3f826040516106349190610af7565b60405180910390a160016002600082825461064f9190610bcf565b92505081905550600190505b919050565b60008060009054906101000a900473ffffffffffffffffffffffffffffffffffffffff16905090565b60016020528060005260406000206000915054906101000a900460ff1681565b600360009054906101000a900460ff1681565b60006106c661089e565b73ffffffffffffffffffffffffffffffffffffffff166106e4610660565b73ffffffffffffffffffffffffffffffffffffffff161461073a576040517f08c379a000000000000000000000000000000000000000000000000000000000815260040161073190610b4d565b60405180910390fd5b60005b82518110156107a05761076983828151811061075c5761075b610d4a565b5b60200260200101516104df565b1561078d576001600260008282546107819190610bcf565b92505081905550600191505b808061079890610cd2565b91505061073d565b50919050565b6107ae61089e565b73ffffffffffffffffffffffffffffffffffffffff166107cc610660565b73ffffffffffffffffffffffffffffffffffffffff1614610822576040517f08c379a000000000000000000000000000000000000000000000000000000000815260040161081990610b4d565b60405180910390fd5b600073ffffffffffffffffffffffffffffffffffffffff168173ffffffffffffffffffffffffffffffffffffffff161415610892576040517f08c379a000000000000000000000000000000000000000000000000000000000815260040161088990610b2d565b60405180910390fd5b61089b816108a6565b50565b600033905090565b60008060009054906101000a900473ffffffffffffffffffffffffffffffffffffffff169050816000806101000a81548173ffffffffffffffffffffffffffffffffffffffff021916908373ffffffffffffffffffffffffffffffffffffffff1602179055508173ffffffffffffffffffffffffffffffffffffffff168173ffffffffffffffffffffffffffffffffffffffff167f8be0079c531659141344cd1fd0a4f28419497f9722a3daafe3b4186f6b6457e060405160405180910390a35050565b600061097d61097884610b92565b610b6d565b905080838252602082019050828560208602820111156109a05761099f610dad565b5b60005b858110156109d057816109b688826109da565b8452602084019350602083019250506001810190506109a3565b5050509392505050565b6000813590506109e981610e45565b92915050565b600082601f830112610a0457610a03610da8565b5b8135610a1484826020860161096a565b91505092915050565b600060208284031215610a3357610a32610db7565b5b6000610a41848285016109da565b91505092915050565b600060208284031215610a6057610a5f610db7565b5b600082013567ffffffffffffffff811115610a7e57610a7d610db2565b5b610a8a848285016109ef565b91505092915050565b610a9c81610c59565b82525050565b610aab81610c6b565b82525050565b6000610abe602683610bbe565b9150610ac982610dcd565b604082019050919050565b6000610ae1602083610bbe565b9150610aec82610e1c565b602082019050919050565b6000602082019050610b0c6000830184610a93565b92915050565b6000602082019050610b276000830184610aa2565b92915050565b60006020820190508181036000830152610b4681610ab1565b9050919050565b60006020820190508181036000830152610b6681610ad4565b9050919050565b6000610b77610b88565b9050610b838282610ca1565b919050565b6000604051905090565b600067ffffffffffffffff821115610bad57610bac610d79565b5b602082029050602081019050919050565b600082825260208201905092915050565b6000610bda82610c97565b9150610be583610c97565b9250827fffffffffffffffffffffffffffffffffffffffffffffffffffffffffffffffff03821115610c1a57610c19610d1b565b5b828201905092915050565b6000610c3082610c97565b9150610c3b83610c97565b925082821015610c4e57610c4d610d1b565b5b828203905092915050565b6000610c6482610c77565b9050919050565b60008115159050919050565b600073ffffffffffffffffffffffffffffffffffffffff82169050919050565b6000819050919050565b610caa82610dbc565b810181811067ffffffffffffffff82111715610cc957610cc8610d79565b5b80604052505050565b6000610cdd82610c97565b91507fffffffffffffffffffffffffffffffffffffffffffffffffffffffffffffffff821415610d1057610d0f610d1b565b5b600182019050919050565b7f4e487b7100000000000000000000000000000000000000000000000000000000600052601160045260246000fd5b7f4e487b7100000000000000000000000000000000000000000000000000000000600052603260045260246000fd5b7f4e487b7100000000000000000000000000000000000000000000000000000000600052604160045260246000fd5b600080fd5b600080fd5b600080fd5b600080fd5b6000601f19601f8301169050919050565b7f4f776e61626c653a206e6577206f776e657220697320746865207a65726f206160008201527f6464726573730000000000000000000000000000000000000000000000000000602082015250565b7f4f776e61626c653a2063616c6c6572206973206e6f7420746865206f776e6572600082015250565b610e4e81610c59565b8114610e5957600080fd5b5056fea2646970667358221220070224275ad0b13d0a847fbeb4a423ae740dee42968a8d236c8eedaef3b3cc5764736f6c63430008070033746f6f206d616e7920757365727320696e206c656167756520746f20616464206e65772075736572a2646970667358221220d66bdecfa6d40d010b82c06d1a765f8ec764f02d049f7dccefb67fb4dcfdec5164736f6c63430008070033",
  "linkReferences": {
    "contracts/MOBALogicLibrary.sol": {
      "MOBALogicLibrary": [
        {
          "length": 20,
          "start": 2584
        },
        {
          "length": 20,
          "start": 5540
        }
      ]
    }
  },
  "deployedLinkReferences": {
    "contracts/MOBALogicLibrary.sol": {
      "MOBALogicLibrary": [
        {
          "length": 20,
          "start": 2307
        },
        {
          "length": 20,
          "start": 5263
        }
      ]
    }
  }
}