{
  "_format": "hh-sol-artifact-1",
  "contractName": "LeagueOfLegendsLogic",
  "sourceName": "contracts/LeagueOfLegendsLogic.sol",
  "abi": [
    {
      "anonymous": false,
      "inputs": [
        {
          "indexed": true,
          "internalType": "address",
          "name": "previousOwner",
          "type": "address"
        },
        {
          "indexed": true,
          "internalType": "address",
          "name": "newOwner",
          "type": "address"
        }
      ],
      "name": "OwnershipTransferred",
      "type": "event"
    },
    {
      "anonymous": false,
      "inputs": [
        {
          "indexed": false,
          "internalType": "address",
          "name": "sender",
          "type": "address"
        },
        {
          "indexed": false,
          "internalType": "uint256",
          "name": "amount",
          "type": "uint256"
        }
      ],
      "name": "Staked",
      "type": "event"
    },
    {
      "anonymous": false,
      "inputs": [
        {
          "indexed": false,
          "internalType": "address",
          "name": "addr",
          "type": "address"
        }
      ],
      "name": "WhitelistedAddressAdded",
      "type": "event"
    },
    {
      "anonymous": false,
      "inputs": [
        {
          "indexed": false,
          "internalType": "address",
          "name": "addr",
          "type": "address"
        }
      ],
      "name": "WhitelistedAddressRemoved",
      "type": "event"
    },
    {
      "anonymous": false,
      "inputs": [
        {
          "indexed": false,
          "internalType": "address",
          "name": "sender",
          "type": "address"
        },
        {
          "indexed": false,
          "internalType": "address",
          "name": "contractAddress",
          "type": "address"
        }
      ],
      "name": "testUSDCDeployed",
      "type": "event"
    },
    {
      "inputs": [
        {
          "internalType": "address",
          "name": "addr",
          "type": "address"
        }
      ],
      "name": "addAddressToWhitelist",
      "outputs": [
        {
          "internalType": "bool",
          "name": "success",
          "type": "bool"
        }
      ],
      "stateMutability": "nonpayable",
      "type": "function"
    },
    {
      "inputs": [
        {
          "internalType": "address[]",
          "name": "addrs",
          "type": "address[]"
        }
      ],
      "name": "addAddressesToWhitelist",
      "outputs": [
        {
          "internalType": "bool",
          "name": "success",
          "type": "bool"
        }
      ],
      "stateMutability": "nonpayable",
      "type": "function"
    },
    {
      "inputs": [
        {
          "internalType": "address",
          "name": "_userToAdd",
          "type": "address"
        }
      ],
      "name": "addUserToWhitelist",
      "outputs": [],
      "stateMutability": "nonpayable",
      "type": "function"
    },
    {
      "inputs": [],
      "name": "admin",
      "outputs": [
        {
          "internalType": "address",
          "name": "",
          "type": "address"
        }
      ],
      "stateMutability": "view",
      "type": "function"
    },
    {
      "inputs": [],
      "name": "evaluateWeek",
      "outputs": [],
      "stateMutability": "nonpayable",
      "type": "function"
    },
    {
      "inputs": [
        {
          "internalType": "address",
          "name": "_user",
          "type": "address"
        }
      ],
      "name": "getLineup",
      "outputs": [
        {
          "internalType": "uint256[]",
          "name": "",
          "type": "uint256[]"
        }
      ],
      "stateMutability": "view",
      "type": "function"
    },
    {
      "inputs": [],
      "name": "getLineupIsLocked",
      "outputs": [
        {
          "internalType": "bool",
          "name": "",
          "type": "bool"
        }
      ],
      "stateMutability": "view",
      "type": "function"
    },
    {
      "inputs": [],
      "name": "getNumWhitelisted",
      "outputs": [
        {
          "internalType": "uint256",
          "name": "",
          "type": "uint256"
        }
      ],
      "stateMutability": "view",
      "type": "function"
    },
    {
      "inputs": [
        {
          "internalType": "address",
          "name": "_user",
          "type": "address"
        }
      ],
      "name": "getUserIsWhitelisted",
      "outputs": [
        {
          "internalType": "bool",
          "name": "",
          "type": "bool"
        }
      ],
      "stateMutability": "view",
      "type": "function"
    },
    {
      "inputs": [],
      "name": "getUserRecord",
      "outputs": [
        {
          "internalType": "uint256[8]",
          "name": "",
          "type": "uint256[8]"
        }
      ],
      "stateMutability": "view",
      "type": "function"
    },
    {
      "inputs": [],
      "name": "getUserTotalPts",
      "outputs": [
        {
          "internalType": "uint256",
          "name": "",
          "type": "uint256"
        }
      ],
      "stateMutability": "view",
      "type": "function"
    },
    {
      "inputs": [],
      "name": "getUserUSDCBalance",
      "outputs": [
        {
          "internalType": "uint256",
          "name": "",
          "type": "uint256"
        }
      ],
      "stateMutability": "view",
      "type": "function"
    },
    {
      "inputs": [],
      "name": "getUsersLength",
      "outputs": [
        {
          "internalType": "uint256",
          "name": "",
          "type": "uint256"
        }
      ],
      "stateMutability": "view",
      "type": "function"
    },
    {
      "inputs": [
        {
          "internalType": "address",
          "name": "",
          "type": "address"
        }
      ],
      "name": "inLeague",
      "outputs": [
        {
          "internalType": "bool",
          "name": "",
          "type": "bool"
        }
      ],
      "stateMutability": "view",
      "type": "function"
    },
    {
      "inputs": [
        {
          "internalType": "string",
          "name": "_name",
          "type": "string"
        },
        {
          "internalType": "uint256",
          "name": "_stakeAmount",
          "type": "uint256"
        },
        {
          "internalType": "bool",
          "name": "_isPublic",
          "type": "bool"
        },
        {
          "internalType": "address",
          "name": "athletesDataStorageAddress",
          "type": "address"
        },
        {
          "internalType": "address",
          "name": "_admin",
          "type": "address"
        },
        {
          "internalType": "address",
          "name": "_rinkebyUSDCAddress",
          "type": "address"
        },
        {
          "internalType": "address",
          "name": "_testUSDCAddress",
          "type": "address"
        },
        {
          "internalType": "address",
          "name": "_gameItemsContractAddress",
          "type": "address"
        },
        {
          "internalType": "address",
          "name": "_teamDiffAddress",
          "type": "address"
        },
        {
          "internalType": "address",
          "name": "_leagueMakerContractAddress",
          "type": "address"
        }
      ],
      "name": "initialize",
      "outputs": [],
      "stateMutability": "nonpayable",
      "type": "function"
    },
    {
      "inputs": [],
      "name": "isPublic",
      "outputs": [
        {
          "internalType": "bool",
          "name": "",
          "type": "bool"
        }
      ],
      "stateMutability": "view",
      "type": "function"
    },
    {
      "inputs": [],
      "name": "joinLeague",
      "outputs": [],
      "stateMutability": "nonpayable",
      "type": "function"
    },
    {
      "inputs": [],
      "name": "leagueEntryIsClosed",
      "outputs": [
        {
          "internalType": "bool",
          "name": "",
          "type": "bool"
        }
      ],
      "stateMutability": "view",
      "type": "function"
    },
    {
      "inputs": [
        {
          "internalType": "uint256",
          "name": "",
          "type": "uint256"
        }
      ],
      "name": "leagueMembers",
      "outputs": [
        {
          "internalType": "address",
          "name": "",
          "type": "address"
        }
      ],
      "stateMutability": "view",
      "type": "function"
    },
    {
      "inputs": [],
      "name": "leagueName",
      "outputs": [
        {
          "internalType": "string",
          "name": "",
          "type": "string"
        }
      ],
      "stateMutability": "view",
      "type": "function"
    },
    {
      "inputs": [],
      "name": "lineupIsLocked",
      "outputs": [
        {
          "internalType": "bool",
          "name": "",
          "type": "bool"
        }
      ],
      "stateMutability": "view",
      "type": "function"
    },
    {
      "inputs": [],
      "name": "lockLineup",
      "outputs": [],
      "stateMutability": "nonpayable",
      "type": "function"
    },
    {
      "inputs": [],
      "name": "numWeeks",
      "outputs": [
        {
          "internalType": "uint256",
          "name": "",
          "type": "uint256"
        }
      ],
      "stateMutability": "view",
      "type": "function"
    },
    {
      "inputs": [],
      "name": "owner",
      "outputs": [
        {
          "internalType": "address",
          "name": "",
          "type": "address"
        }
      ],
      "stateMutability": "view",
      "type": "function"
    },
    {
      "inputs": [
        {
          "internalType": "address",
          "name": "addr",
          "type": "address"
        }
      ],
      "name": "removeAddressFromWhitelist",
      "outputs": [
        {
          "internalType": "bool",
          "name": "success",
          "type": "bool"
        }
      ],
      "stateMutability": "nonpayable",
      "type": "function"
    },
    {
      "inputs": [
        {
          "internalType": "address[]",
          "name": "addrs",
          "type": "address[]"
        }
      ],
      "name": "removeAddressesFromWhitelist",
      "outputs": [
        {
          "internalType": "bool",
          "name": "success",
          "type": "bool"
        }
      ],
      "stateMutability": "nonpayable",
      "type": "function"
    },
    {
      "inputs": [
        {
          "internalType": "address",
          "name": "_userToRemove",
          "type": "address"
        }
      ],
      "name": "removeFromWhitelist",
      "outputs": [],
      "stateMutability": "nonpayable",
      "type": "function"
    },
    {
      "inputs": [],
      "name": "renounceOwnership",
      "outputs": [],
      "stateMutability": "nonpayable",
      "type": "function"
    },
    {
      "inputs": [],
      "name": "rinkebyUSDCAddress",
      "outputs": [
        {
          "internalType": "address",
          "name": "",
          "type": "address"
        }
      ],
      "stateMutability": "view",
      "type": "function"
    },
    {
      "inputs": [],
      "name": "setLeagueEntryIsClosed",
      "outputs": [],
      "stateMutability": "nonpayable",
      "type": "function"
    },
    {
      "inputs": [],
      "name": "setLeagueSchedule",
      "outputs": [],
      "stateMutability": "nonpayable",
      "type": "function"
    },
    {
      "inputs": [
        {
          "internalType": "uint256[]",
          "name": "athleteIds",
          "type": "uint256[]"
        }
      ],
      "name": "setLineup",
      "outputs": [],
      "stateMutability": "nonpayable",
      "type": "function"
    },
    {
      "inputs": [],
      "name": "stakeAmount",
      "outputs": [
        {
          "internalType": "uint256",
          "name": "",
          "type": "uint256"
        }
      ],
      "stateMutability": "view",
      "type": "function"
    },
    {
      "inputs": [],
      "name": "teamDiffAddress",
      "outputs": [
        {
          "internalType": "address",
          "name": "",
          "type": "address"
        }
      ],
      "stateMutability": "view",
      "type": "function"
    },
    {
      "inputs": [],
      "name": "testUSDC",
      "outputs": [
        {
          "internalType": "contract IERC20",
          "name": "",
          "type": "address"
        }
      ],
      "stateMutability": "view",
      "type": "function"
    },
    {
      "inputs": [
        {
          "internalType": "address",
          "name": "newOwner",
          "type": "address"
        }
      ],
      "name": "transferOwnership",
      "outputs": [],
      "stateMutability": "nonpayable",
      "type": "function"
    },
    {
      "inputs": [],
      "name": "unlockLineup",
      "outputs": [],
      "stateMutability": "nonpayable",
      "type": "function"
    },
    {
      "inputs": [
        {
          "internalType": "address",
          "name": "",
          "type": "address"
        },
        {
          "internalType": "uint256",
          "name": "",
          "type": "uint256"
        }
      ],
      "name": "userToLineup",
      "outputs": [
        {
          "internalType": "uint256",
          "name": "",
          "type": "uint256"
        }
      ],
      "stateMutability": "view",
      "type": "function"
    },
    {
      "inputs": [
        {
          "internalType": "address",
          "name": "",
          "type": "address"
        },
        {
          "internalType": "uint256",
          "name": "",
          "type": "uint256"
        }
      ],
      "name": "userToRecord",
      "outputs": [
        {
          "internalType": "uint256",
          "name": "",
          "type": "uint256"
        }
      ],
      "stateMutability": "view",
      "type": "function"
    },
    {
      "inputs": [
        {
          "internalType": "address",
          "name": "",
          "type": "address"
        }
      ],
      "name": "userToTotalWins",
      "outputs": [
        {
          "internalType": "uint256",
          "name": "",
          "type": "uint256"
        }
      ],
      "stateMutability": "view",
      "type": "function"
    },
    {
      "inputs": [
        {
          "internalType": "address",
          "name": "",
          "type": "address"
        }
      ],
      "name": "whitelist",
      "outputs": [
        {
          "internalType": "bool",
          "name": "",
          "type": "bool"
        }
      ],
      "stateMutability": "view",
      "type": "function"
    }
  ],
  "bytecode": "0x60806040523480156200001157600080fd5b5062000032620000266200004060201b60201c565b6200004860201b60201c565b60016004819055506200010d565b600033905090565b60008060029054906101000a900473ffffffffffffffffffffffffffffffffffffffff16905081600060026101000a81548173ffffffffffffffffffffffffffffffffffffffff021916908373ffffffffffffffffffffffffffffffffffffffff1602179055508173ffffffffffffffffffffffffffffffffffffffff168173ffffffffffffffffffffffffffffffffffffffff167f8be0079c531659141344cd1fd0a4f28419497f9722a3daafe3b4186f6b6457e060405160405180910390a35050565b615743806200011d6000396000f3fe60806040523480156200001157600080fd5b50600436106200028b5760003560e01c80637eed33f11162000165578063cff5600311620000d5578063e5f7322f1162000093578063e5f7322f146200075e578063edcbe96c1462000794578063f2fde38b14620007ca578063f612121a14620007ea578063f851a440146200080a578063f8816045146200082c576200028b565b8063cff56003146200068e578063dc9a153514620006c4578063e2ec6ec314620006e6578063e35a8999146200071c578063e4c9066b1462000752576200028b565b80639122ce6d11620001235780639122ce6d14620005fe5780639b19251a1462000634578063a2bc091a146200066a578063c8be3b5b1462000676578063c99fea941462000682576200028b565b80637eed33f1146200056c578063841abf6e146200058e57806385334ffa14620005b05780638ab1d68114620005bc5780638da5cb5b14620005dc576200028b565b80633c3ae13f11620002015780636bdc44df11620001bf5780636bdc44df14620004c65780636cc15ad514620004e8578063715018a6146200050a578063747b805014620005165780637b9417c81462000536576200028b565b80633c3ae13f146200041e57806344eaa84e146200043e578063595b1a3e14620004605780635fcc6987146200048257806360c7dc4714620004a4576200028b565b80631dd7f8ca116200024f5780631dd7f8ca146200033857806324953eaa146200035a578063267175db146200039057806327311b3214620003c6578063286dd3f514620003e8576200028b565b8062b2476f1462000290578063022e35e614620002b25780630635dbcb14620002d45780630655465a14620002f65780630c6f79591462000302575b600080fd5b6200029a6200084e565b604051620002a9919062003a2b565b60405180910390f35b620002bc62000874565b604051620002cb919062003b11565b60405180910390f35b620002de6200089a565b604051620002ed919062003af4565b60405180910390f35b62000300620008ad565b005b6200032060048036038101906200031a9190620032fb565b620009b8565b6040516200032f919062003e11565b60405180910390f35b62000342620009e1565b60405162000351919062003a2b565b60405180910390f35b62000378600480360381019062000372919062003342565b62000a07565b60405162000387919062003af4565b60405180910390f35b620003ae6004803603810190620003a8919062003530565b62000ae8565b604051620003bd919062003a2b565b60405180910390f35b620003d062000b28565b604051620003df919062003af4565b60405180910390f35b620004066004803603810190620004009190620032c9565b62000b3f565b60405162000415919062003af4565b60405180910390f35b6200043c600480360381019062000436919062003416565b62000cce565b005b6200044862001167565b60405162000457919062003e11565b60405180910390f35b6200046a62001171565b60405162000479919062003e11565b60405180910390f35b6200048c6200117e565b6040516200049b919062003e11565b60405180910390f35b620004ae6200128d565b604051620004bd919062003e11565b60405180910390f35b620004d062001293565b604051620004df919062003e11565b60405180910390f35b620004f2620012da565b60405162000501919062003af4565b60405180910390f35b62000514620012ed565b005b6200053460048036038101906200052e9190620032c9565b6200137e565b005b6200055460048036038101906200054e9190620032c9565b620014c8565b60405162000563919062003af4565b60405180910390f35b6200057662001655565b60405162000585919062003e11565b60405180910390f35b620005986200165b565b604051620005a7919062003bef565b60405180910390f35b620005ba620016f1565b005b620005da6004803603810190620005d49190620032c9565b62001938565b005b620005e662001ad5565b604051620005f5919062003a2b565b60405180910390f35b6200061c6004803603810190620006169190620032c9565b62001afe565b6040516200062b919062003af4565b60405180910390f35b6200065260048036038101906200064c9190620032c9565b62001b1e565b60405162000661919062003af4565b60405180910390f35b6200067462001b3e565b005b6200068062001bee565b005b6200068c62001c9e565b005b620006ac6004803603810190620006a69190620032fb565b6200212c565b604051620006bb919062003e11565b60405180910390f35b620006ce6200215e565b604051620006dd919062003af4565b60405180910390f35b620007046004803603810190620006fe919062003342565b62002171565b60405162000713919062003af4565b60405180910390f35b6200073a6004803603810190620007349190620032c9565b62002252565b60405162000749919062003af4565b60405180910390f35b6200075c620022a8565b005b6200077c6004803603810190620007769190620032c9565b62002358565b6040516200078b919062003ad0565b60405180910390f35b620007b26004803603810190620007ac9190620032c9565b620023f1565b604051620007c1919062003e11565b60405180910390f35b620007e86004803603810190620007e29190620032c9565b62002409565b005b62000808600480360381019062000802919062003393565b6200250d565b005b6200081462002a98565b60405162000823919062003a2b565b60405180910390f35b6200083662002abe565b60405162000845919062003ab2565b60405180910390f35b601160009054906101000a900473ffffffffffffffffffffffffffffffffffffffff1681565b601560009054906101000a900473ffffffffffffffffffffffffffffffffffffffff1681565b600960159054906101000a900460ff1681565b600960009054906101000a900473ffffffffffffffffffffffffffffffffffffffff1673ffffffffffffffffffffffffffffffffffffffff163373ffffffffffffffffffffffffffffffffffffffff161462000940576040517f08c379a0000000000000000000000000000000000000000000000000000000008152600401620009379062003d45565b60405180910390fd5b73__$36fdb4e0c2cb91f3ceca5ea81b025328f3$__63d2c232b56010600f60065460056040518563ffffffff1660e01b815260040162000984949392919062003b2e565b60006040518083038186803b1580156200099d57600080fd5b505af4158015620009b2573d6000803e3d6000fd5b50505050565b600c6020528160005260406000208160088110620009d557600080fd5b01600091509150505481565b600960009054906101000a900473ffffffffffffffffffffffffffffffffffffffff1681565b600062000a1362002b4a565b73ffffffffffffffffffffffffffffffffffffffff1662000a3362001ad5565b73ffffffffffffffffffffffffffffffffffffffff161462000a8c576040517f08c379a000000000000000000000000000000000000000000000000000000000815260040162000a839062003d01565b60405180910390fd5b60005b825181101562000ae25762000ac183828151811062000ab35762000ab26200426d565b5b602002602001015162000b3f565b1562000acc57600191505b808062000ad990620041c1565b91505062000a8f565b50919050565b600f818154811062000af957600080fd5b906000526020600020016000915054906101000a900473ffffffffffffffffffffffffffffffffffffffff1681565b6000600960159054906101000a900460ff16905090565b600062000b4b62002b4a565b73ffffffffffffffffffffffffffffffffffffffff1662000b6b62001ad5565b73ffffffffffffffffffffffffffffffffffffffff161462000bc4576040517f08c379a000000000000000000000000000000000000000000000000000000000815260040162000bbb9062003d01565b60405180910390fd5b600160008373ffffffffffffffffffffffffffffffffffffffff1673ffffffffffffffffffffffffffffffffffffffff16815260200190815260200160002060009054906101000a900460ff161562000cc9576000600160008473ffffffffffffffffffffffffffffffffffffffff1673ffffffffffffffffffffffffffffffffffffffff16815260200190815260200160002060006101000a81548160ff0219169083151502179055507ff1abf01a1043b7c244d128e8595cf0c1d10743b022b03a02dffd8ca3bf729f5a8260405162000ca0919062003a2b565b60405180910390a160016002600082825462000cbd91906200401b565b92505081905550600190505b919050565b600060019054906101000a900460ff1662000cf85760008054906101000a900460ff161562000d03565b62000d0262002b52565b5b62000d45576040517f08c379a000000000000000000000000000000000000000000000000000000000815260040162000d3c9062003cdf565b60405180910390fd5b60008060019054906101000a900460ff16159050801562000d96576001600060016101000a81548160ff02191690831515021790555060016000806101000a81548160ff0219169083151502179055505b8b8b6005919062000da992919062002f68565b5060086006819055506001600e60008973ffffffffffffffffffffffffffffffffffffffff1673ffffffffffffffffffffffffffffffffffffffff16815260200190815260200160002060006101000a81548160ff021916908315150217905550600f879080600181540180825580915050600190039060005260206000200160009091909190916101000a81548173ffffffffffffffffffffffffffffffffffffffff021916908373ffffffffffffffffffffffffffffffffffffffff16021790555086600860006101000a81548173ffffffffffffffffffffffffffffffffffffffff021916908373ffffffffffffffffffffffffffffffffffffffff1602179055508960078190555088600360006101000a81548160ff0219169083151502179055506000600960146101000a81548160ff0219169083151502179055506000600960156101000a81548160ff02191690831515021790555087601260006101000a81548173ffffffffffffffffffffffffffffffffffffffff021916908373ffffffffffffffffffffffffffffffffffffffff16021790555081601460006101000a81548173ffffffffffffffffffffffffffffffffffffffff021916908373ffffffffffffffffffffffffffffffffffffffff16021790555060405162000f959062002ff9565b604051809103906000f08015801562000fb2573d6000803e3d6000fd5b50601360006101000a81548173ffffffffffffffffffffffffffffffffffffffff021916908373ffffffffffffffffffffffffffffffffffffffff16021790555085601160006101000a81548173ffffffffffffffffffffffffffffffffffffffff021916908373ffffffffffffffffffffffffffffffffffffffff16021790555084601560006101000a81548173ffffffffffffffffffffffffffffffffffffffff021916908373ffffffffffffffffffffffffffffffffffffffff16021790555082600960006101000a81548173ffffffffffffffffffffffffffffffffffffffff021916908373ffffffffffffffffffffffffffffffffffffffff16021790555083601660006101000a81548173ffffffffffffffffffffffffffffffffffffffff021916908373ffffffffffffffffffffffffffffffffffffffff160217905550620011376040518060400160405280601281526020017f50726f787920696e697469616c697a656421000000000000000000000000000081525062002b65565b8015620011595760008060016101000a81548160ff0219169083151502179055505b505050505050505050505050565b6000600254905090565b6000600f80549050905090565b6000600e60003373ffffffffffffffffffffffffffffffffffffffff1673ffffffffffffffffffffffffffffffffffffffff16815260200190815260200160002060009054906101000a900460ff16620011d757600080fd5b601560009054906101000a900473ffffffffffffffffffffffffffffffffffffffff1673ffffffffffffffffffffffffffffffffffffffff166370a08231336040518263ffffffff1660e01b815260040162001234919062003a2b565b60206040518083038186803b1580156200124d57600080fd5b505afa15801562001262573d6000803e3d6000fd5b505050506040513d601f19601f8201168201806040525081019062001288919062003562565b905090565b60075481565b6000600b60003373ffffffffffffffffffffffffffffffffffffffff1673ffffffffffffffffffffffffffffffffffffffff16815260200190815260200160002054905090565b600960149054906101000a900460ff1681565b620012f762002b4a565b73ffffffffffffffffffffffffffffffffffffffff166200131762001ad5565b73ffffffffffffffffffffffffffffffffffffffff161462001370576040517f08c379a0000000000000000000000000000000000000000000000000000000008152600401620013679062003d01565b60405180910390fd5b6200137c600062002c02565b565b600860009054906101000a900473ffffffffffffffffffffffffffffffffffffffff1673ffffffffffffffffffffffffffffffffffffffff163373ffffffffffffffffffffffffffffffffffffffff161462001411576040517f08c379a0000000000000000000000000000000000000000000000000000000008152600401620014089062003d23565b60405180910390fd5b601360009054906101000a900473ffffffffffffffffffffffffffffffffffffffff1673ffffffffffffffffffffffffffffffffffffffff16637b9417c8826040518263ffffffff1660e01b81526004016200146e919062003a2b565b602060405180830381600087803b1580156200148957600080fd5b505af11580156200149e573d6000803e3d6000fd5b505050506040513d601f19601f82011682018060405250810190620014c49190620033e4565b5050565b6000620014d462002b4a565b73ffffffffffffffffffffffffffffffffffffffff16620014f462001ad5565b73ffffffffffffffffffffffffffffffffffffffff16146200154d576040517f08c379a0000000000000000000000000000000000000000000000000000000008152600401620015449062003d01565b60405180910390fd5b600160008373ffffffffffffffffffffffffffffffffffffffff1673ffffffffffffffffffffffffffffffffffffffff16815260200190815260200160002060009054906101000a900460ff16620016505760018060008473ffffffffffffffffffffffffffffffffffffffff1673ffffffffffffffffffffffffffffffffffffffff16815260200190815260200160002060006101000a81548160ff0219169083151502179055507fd1bba68c128cc3f427e5831b3c6f99f480b6efa6b9e80c757768f6124158cc3f8260405162001627919062003a2b565b60405180910390a160016002600082825462001644919062003f5d565b92505081905550600190505b919050565b60065481565b600580546200166a9062004155565b80601f0160208091040260200160405190810160405280929190818152602001828054620016989062004155565b8015620016e95780601f10620016bd57610100808354040283529160200191620016e9565b820191906000526020600020905b815481529060010190602001808311620016cb57829003601f168201915b505050505081565b600960009054906101000a900473ffffffffffffffffffffffffffffffffffffffff1673ffffffffffffffffffffffffffffffffffffffff163373ffffffffffffffffffffffffffffffffffffffff161462001784576040517f08c379a00000000000000000000000000000000000000000000000000000000081526004016200177b9062003d45565b60405180910390fd5b60026004541415620017cd576040517f08c379a0000000000000000000000000000000000000000000000000000000008152600401620017c49062003dcd565b60405180910390fd5b60026004819055506000601460009054906101000a900473ffffffffffffffffffffffffffffffffffffffff1673ffffffffffffffffffffffffffffffffffffffff166306575c896040518163ffffffff1660e01b815260040160206040518083038186803b1580156200184057600080fd5b505afa15801562001855573d6000803e3d6000fd5b505050506040513d601f19601f820116820180604052508101906200187b919062003562565b905073__$36fdb4e0c2cb91f3ceca5ea81b025328f3$__63c406e268601083601260009054906101000a900473ffffffffffffffffffffffffffffffffffffffff16600c600b600d6040518763ffffffff1660e01b8152600401620018e69695949392919062003b82565b60006040518083038186803b158015620018ff57600080fd5b505af415801562001914573d6000803e3d6000fd5b5050505060088114156200192d576200192c62002cc7565b5b506001600481905550565b600860009054906101000a900473ffffffffffffffffffffffffffffffffffffffff1673ffffffffffffffffffffffffffffffffffffffff163373ffffffffffffffffffffffffffffffffffffffff1614620019cb576040517f08c379a0000000000000000000000000000000000000000000000000000000008152600401620019c29062003d23565b60405180910390fd5b600960149054906101000a900460ff161562001a1e576040517f08c379a000000000000000000000000000000000000000000000000000000000815260040162001a159062003d89565b60405180910390fd5b601360009054906101000a900473ffffffffffffffffffffffffffffffffffffffff1673ffffffffffffffffffffffffffffffffffffffff1663286dd3f5826040518263ffffffff1660e01b815260040162001a7b919062003a2b565b602060405180830381600087803b15801562001a9657600080fd5b505af115801562001aab573d6000803e3d6000fd5b505050506040513d601f19601f8201168201806040525081019062001ad19190620033e4565b5050565b60008060029054906101000a900473ffffffffffffffffffffffffffffffffffffffff16905090565b600e6020528060005260406000206000915054906101000a900460ff1681565b60016020528060005260406000206000915054906101000a900460ff1681565b600960009054906101000a900473ffffffffffffffffffffffffffffffffffffffff1673ffffffffffffffffffffffffffffffffffffffff163373ffffffffffffffffffffffffffffffffffffffff161462001bd1576040517f08c379a000000000000000000000000000000000000000000000000000000000815260040162001bc89062003d45565b60405180910390fd5b6000600960156101000a81548160ff021916908315150217905550565b600960009054906101000a900473ffffffffffffffffffffffffffffffffffffffff1673ffffffffffffffffffffffffffffffffffffffff163373ffffffffffffffffffffffffffffffffffffffff161462001c81576040517f08c379a000000000000000000000000000000000000000000000000000000000815260040162001c789062003d45565b60405180910390fd5b6001600960156101000a81548160ff021916908315150217905550565b600160003373ffffffffffffffffffffffffffffffffffffffff1673ffffffffffffffffffffffffffffffffffffffff16815260200190815260200160002060009054906101000a900460ff168062001d035750600360009054906101000a900460ff165b62001d45576040517f08c379a000000000000000000000000000000000000000000000000000000000815260040162001d3c9062003c79565b60405180910390fd5b6002600454141562001d8e576040517f08c379a000000000000000000000000000000000000000000000000000000000815260040162001d859062003dcd565b60405180910390fd5b6002600481905550600960149054906101000a900460ff161562001de9576040517f08c379a000000000000000000000000000000000000000000000000000000000815260040162001de09062003def565b60405180910390fd5b600e60003373ffffffffffffffffffffffffffffffffffffffff1673ffffffffffffffffffffffffffffffffffffffff16815260200190815260200160002060009054906101000a900460ff161562001e79576040517f08c379a000000000000000000000000000000000000000000000000000000000815260040162001e709062003c57565b60405180910390fd5b600754601560009054906101000a900473ffffffffffffffffffffffffffffffffffffffff1673ffffffffffffffffffffffffffffffffffffffff166370a08231336040518263ffffffff1660e01b815260040162001ed9919062003a2b565b60206040518083038186803b15801562001ef257600080fd5b505afa15801562001f07573d6000803e3d6000fd5b505050506040513d601f19601f8201168201806040525081019062001f2d919062003562565b1162001f70576040517f08c379a000000000000000000000000000000000000000000000000000000000815260040162001f679062003c35565b60405180910390fd5b6001600e60003373ffffffffffffffffffffffffffffffffffffffff1673ffffffffffffffffffffffffffffffffffffffff16815260200190815260200160002060006101000a81548160ff021916908315150217905550600f339080600181540180825580915050600190039060005260206000200160009091909190916101000a81548173ffffffffffffffffffffffffffffffffffffffff021916908373ffffffffffffffffffffffffffffffffffffffff160217905550601560009054906101000a900473ffffffffffffffffffffffffffffffffffffffff1673ffffffffffffffffffffffffffffffffffffffff166323b872dd33306007546040518463ffffffff1660e01b81526004016200208e9392919062003a48565b602060405180830381600087803b158015620020a957600080fd5b505af1158015620020be573d6000803e3d6000fd5b505050506040513d601f19601f82011682018060405250810190620020e49190620033e4565b507f9e71bc8eea02a63969f509818f2dafb9254532904319f9dbda79b67bd34a5f3d336007546040516200211a92919062003a85565b60405180910390a16001600481905550565b600d60205281600052604060002081815481106200214957600080fd5b90600052602060002001600091509150505481565b600360009054906101000a900460ff1681565b60006200217d62002b4a565b73ffffffffffffffffffffffffffffffffffffffff166200219d62001ad5565b73ffffffffffffffffffffffffffffffffffffffff1614620021f6576040517f08c379a0000000000000000000000000000000000000000000000000000000008152600401620021ed9062003d01565b60405180910390fd5b60005b82518110156200224c576200222b8382815181106200221d576200221c6200426d565b5b6020026020010151620014c8565b156200223657600191505b80806200224390620041c1565b915050620021f9565b50919050565b6000600160008373ffffffffffffffffffffffffffffffffffffffff1673ffffffffffffffffffffffffffffffffffffffff16815260200190815260200160002060009054906101000a900460ff169050919050565b600960009054906101000a900473ffffffffffffffffffffffffffffffffffffffff1673ffffffffffffffffffffffffffffffffffffffff163373ffffffffffffffffffffffffffffffffffffffff16146200233b576040517f08c379a0000000000000000000000000000000000000000000000000000000008152600401620023329062003d45565b60405180910390fd5b6001600960146101000a81548160ff021916908315150217905550565b6060600d60008373ffffffffffffffffffffffffffffffffffffffff1673ffffffffffffffffffffffffffffffffffffffff168152602001908152602001600020805480602002602001604051908101604052809291908181526020018280548015620023e557602002820191906000526020600020905b815481526020019060010190808311620023d0575b50505050509050919050565b600b6020528060005260406000206000915090505481565b6200241362002b4a565b73ffffffffffffffffffffffffffffffffffffffff166200243362001ad5565b73ffffffffffffffffffffffffffffffffffffffff16146200248c576040517f08c379a0000000000000000000000000000000000000000000000000000000008152600401620024839062003d01565b60405180910390fd5b600073ffffffffffffffffffffffffffffffffffffffff168173ffffffffffffffffffffffffffffffffffffffff161415620024ff576040517f08c379a0000000000000000000000000000000000000000000000000000000008152600401620024f69062003c13565b60405180910390fd5b6200250a8162002c02565b50565b600960159054906101000a900460ff161562002560576040517f08c379a0000000000000000000000000000000000000000000000000000000008152600401620025579062003cbd565b60405180910390fd5b600e60003373ffffffffffffffffffffffffffffffffffffffff1673ffffffffffffffffffffffffffffffffffffffff16815260200190815260200160002060009054906101000a900460ff16620025ef576040517f08c379a0000000000000000000000000000000000000000000000000000000008152600401620025e69062003d67565b60405180910390fd5b6000601460009054906101000a900473ffffffffffffffffffffffffffffffffffffffff1673ffffffffffffffffffffffffffffffffffffffff166306575c896040518163ffffffff1660e01b815260040160206040518083038186803b1580156200265a57600080fd5b505afa1580156200266f573d6000803e3d6000fd5b505050506040513d601f19601f8201168201806040525081019062002695919062003562565b905060005b600d60003373ffffffffffffffffffffffffffffffffffffffff1673ffffffffffffffffffffffffffffffffffffffff168152602001908152602001600020805490508110156200279a57600a6000600d60003373ffffffffffffffffffffffffffffffffffffffff1673ffffffffffffffffffffffffffffffffffffffff16815260200190815260200160002083815481106200273d576200273c6200426d565b5b9060005260206000200154815260200190815260200160002082600881106200276b576200276a6200426d565b5b0160008154809291906200277f9062004126565b919050555080806200279190620041c1565b9150506200269a565b5060005b82518110156200281c57600a6000848381518110620027c257620027c16200426d565b5b602002602001015181526020019081526020016000208260088110620027ed57620027ec6200426d565b5b0160008154809291906200280190620041c1565b919050555080806200281390620041c1565b9150506200279e565b5060005b825181101562002954576000601660009054906101000a900473ffffffffffffffffffffffffffffffffffffffff1673ffffffffffffffffffffffffffffffffffffffff1662fdd58e3386858151811062002880576200287f6200426d565b5b60200260200101516040518363ffffffff1660e01b8152600401620028a792919062003a85565b60206040518083038186803b158015620028c057600080fd5b505afa158015620028d5573d6000803e3d6000fd5b505050506040513d601f19601f82011682018060405250810190620028fb919062003562565b116200293e576040517f08c379a0000000000000000000000000000000000000000000000000000000008152600401620029359062003dab565b60405180910390fd5b80806200294b90620041c1565b91505062002820565b5060005b825181101562002a3d57600a8162002971919062003fba565b8382815181106200298757620029866200426d565b5b602002602001015110158015620029e557506001600a600183620029ac919062003f5d565b620029b8919062003fba565b620029c491906200401b565b838281518110620029da57620029d96200426d565b5b602002602001015111155b62002a27576040517f08c379a000000000000000000000000000000000000000000000000000000000815260040162002a1e9062003c9b565b60405180910390fd5b808062002a3490620041c1565b91505062002958565b5081600d60003373ffffffffffffffffffffffffffffffffffffffff1673ffffffffffffffffffffffffffffffffffffffff168152602001908152602001600020908051906020019062002a9392919062003007565b505050565b600860009054906101000a900473ffffffffffffffffffffffffffffffffffffffff1681565b62002ac862003059565b600c60003373ffffffffffffffffffffffffffffffffffffffff1673ffffffffffffffffffffffffffffffffffffffff16815260200190815260200160002060088060200260405190810160405280929190826008801562002b40576020028201915b81548152602001906001019080831162002b2b575b5050505050905090565b600033905090565b600062002b5f3062002f1c565b15905090565b62002bff8160405160240162002b7c919062003bef565b6040516020818303038152906040527f41304fac000000000000000000000000000000000000000000000000000000007bffffffffffffffffffffffffffffffffffffffffffffffffffffffff19166020820180517bffffffffffffffffffffffffffffffffffffffffffffffffffffffff838183161783525050505062002f3f565b50565b60008060029054906101000a900473ffffffffffffffffffffffffffffffffffffffff16905081600060026101000a81548173ffffffffffffffffffffffffffffffffffffffff021916908373ffffffffffffffffffffffffffffffffffffffff1602179055508173ffffffffffffffffffffffffffffffffffffffff168173ffffffffffffffffffffffffffffffffffffffff167f8be0079c531659141344cd1fd0a4f28419497f9722a3daafe3b4186f6b6457e060405160405180910390a35050565b6000600f8054905060075462002cde919062003fba565b90506000600f60008154811062002cfa5762002cf96200426d565b5b9060005260206000200160009054906101000a900473ffffffffffffffffffffffffffffffffffffffff1690506000600190505b600f8054905081101562002e5f57600b60008373ffffffffffffffffffffffffffffffffffffffff1673ffffffffffffffffffffffffffffffffffffffff16815260200190815260200160002054600b6000600f848154811062002d975762002d966200426d565b5b9060005260206000200160009054906101000a900473ffffffffffffffffffffffffffffffffffffffff1673ffffffffffffffffffffffffffffffffffffffff1673ffffffffffffffffffffffffffffffffffffffff16815260200190815260200160002054111562002e4957600f818154811062002e1b5762002e1a6200426d565b5b9060005260206000200160009054906101000a900473ffffffffffffffffffffffffffffffffffffffff1691505b808062002e5690620041c1565b91505062002d2e565b50601560009054906101000a900473ffffffffffffffffffffffffffffffffffffffff1673ffffffffffffffffffffffffffffffffffffffff166323b872dd3083856040518463ffffffff1660e01b815260040162002ec19392919062003a48565b602060405180830381600087803b15801562002edc57600080fd5b505af115801562002ef1573d6000803e3d6000fd5b505050506040513d601f19601f8201168201806040525081019062002f179190620033e4565b505050565b6000808273ffffffffffffffffffffffffffffffffffffffff163b119050919050565b60008151905060006a636f6e736f6c652e6c6f679050602083016000808483855afa5050505050565b82805462002f769062004155565b90600052602060002090601f01602090048101928262002f9a576000855562002fe6565b82601f1062002fb557803560ff191683800117855562002fe6565b8280016001018555821562002fe6579182015b8281111562002fe557823582559160200191906001019062002fc8565b5b50905062002ff591906200307c565b5090565b61105980620046b583390190565b82805482825590600052602060002090810192821562003046579160200282015b828111156200304557825182559160200191906001019062003028565b5b5090506200305591906200307c565b5090565b604051806101000160405280600890602082028036833780820191505090505090565b5b80821115620030975760008160009055506001016200307d565b5090565b6000620030b2620030ac8462003e57565b62003e2e565b90508083825260208201905082856020860282011115620030d857620030d7620042d5565b5b60005b858110156200310c5781620030f1888262003191565b845260208401935060208301925050600181019050620030db565b5050509392505050565b60006200312d620031278462003e86565b62003e2e565b90508083825260208201905082856020860282011115620031535762003152620042d5565b5b60005b858110156200318757816200316c88826200329b565b84526020840193506020830192505060018101905062003156565b5050509392505050565b600081359050620031a28162004666565b92915050565b600082601f830112620031c057620031bf620042d0565b5b8135620031d28482602086016200309b565b91505092915050565b600082601f830112620031f357620031f2620042d0565b5b81356200320584826020860162003116565b91505092915050565b6000813590506200321f8162004680565b92915050565b600081519050620032368162004680565b92915050565b60008083601f840112620032555762003254620042d0565b5b8235905067ffffffffffffffff811115620032755762003274620042cb565b5b602083019150836001820283011115620032945762003293620042d5565b5b9250929050565b600081359050620032ac816200469a565b92915050565b600081519050620032c3816200469a565b92915050565b600060208284031215620032e257620032e1620042df565b5b6000620032f28482850162003191565b91505092915050565b60008060408385031215620033155762003314620042df565b5b6000620033258582860162003191565b925050602062003338858286016200329b565b9150509250929050565b6000602082840312156200335b576200335a620042df565b5b600082013567ffffffffffffffff8111156200337c576200337b620042da565b5b6200338a84828501620031a8565b91505092915050565b600060208284031215620033ac57620033ab620042df565b5b600082013567ffffffffffffffff811115620033cd57620033cc620042da565b5b620033db84828501620031db565b91505092915050565b600060208284031215620033fd57620033fc620042df565b5b60006200340d8482850162003225565b91505092915050565b60008060008060008060008060008060006101408c8e0312156200343f576200343e620042df565b5b60008c013567ffffffffffffffff81111562003460576200345f620042da565b5b6200346e8e828f016200323c565b9b509b50506020620034838e828f016200329b565b9950506040620034968e828f016200320e565b9850506060620034a98e828f0162003191565b9750506080620034bc8e828f0162003191565b96505060a0620034cf8e828f0162003191565b95505060c0620034e28e828f0162003191565b94505060e0620034f58e828f0162003191565b935050610100620035098e828f0162003191565b9250506101206200351d8e828f0162003191565b9150509295989b509295989b9093969950565b600060208284031215620035495762003548620042df565b5b600062003559848285016200329b565b91505092915050565b6000602082840312156200357b576200357a620042df565b5b60006200358b84828501620032b2565b91505092915050565b6000620035a28383620039f8565b60208301905092915050565b620035b98162004056565b82525050565b8082525050565b620035d18162003ee4565b620035dd818462003f1f565b9250620035ea8262003eb5565b8060005b838110156200362157815162003605878262003594565b9650620036128362003f05565b925050600181019050620035ee565b505050505050565b6000620036368262003eef565b62003642818562003f2a565b93506200364f8362003ebf565b8060005b83811015620036865781516200366a888262003594565b9750620036778362003f12565b92505060018101905062003653565b5085935050505092915050565b6200369e816200406a565b82525050565b620036af81620040a0565b82525050565b620036c081620040b4565b82525050565b8082525050565b8082525050565b8082525050565b8082525050565b6000620036ef8262003efa565b620036fb818562003f3b565b93506200370d818560208601620040f0565b6200371881620042e4565b840191505092915050565b60008154620037328162004155565b6200373e818662003f4c565b945060018216600081146200375c57600181146200376f57620037a6565b60ff1983168652602086019350620037a6565b6200377a8562003ecf565b60005b838110156200379e578154818901526001820191506020810190506200377d565b808801955050505b50505092915050565b6000620037be60268362003f3b565b9150620037cb82620042f5565b604082019050919050565b6000620037e5601d8362003f3b565b9150620037f28262004344565b602082019050919050565b60006200380c60238362003f3b565b915062003819826200436d565b604082019050919050565b600062003833601a8362003f3b565b91506200384082620043bc565b602082019050919050565b60006200385a60318362003f3b565b91506200386782620043e5565b604082019050919050565b600062003881601e8362003f3b565b91506200388e8262004434565b602082019050919050565b6000620038a8602e8362003f3b565b9150620038b5826200445d565b604082019050919050565b6000620038cf60208362003f3b565b9150620038dc82620044ac565b602082019050919050565b6000620038f660178362003f3b565b91506200390382620044d5565b602082019050919050565b60006200391d60168362003f3b565b91506200392a82620044fe565b602082019050919050565b60006200394460168362003f3b565b9150620039518262004527565b602082019050919050565b60006200396b60418362003f3b565b9150620039788262004550565b606082019050919050565b60006200399260248362003f3b565b91506200399f82620045c5565b604082019050919050565b6000620039b9601f8362003f3b565b9150620039c68262004614565b602082019050919050565b6000620039e060178362003f3b565b9150620039ed826200463d565b602082019050919050565b62003a038162004096565b82525050565b62003a148162004096565b82525050565b62003a258162004096565b82525050565b600060208201905062003a426000830184620035ae565b92915050565b600060608201905062003a5f6000830186620035ae565b62003a6e6020830185620035ae565b62003a7d604083018462003a09565b949350505050565b600060408201905062003a9c6000830185620035ae565b62003aab602083018462003a09565b9392505050565b60006101008201905062003aca6000830184620035c6565b92915050565b6000602082019050818103600083015262003aec818462003629565b905092915050565b600060208201905062003b0b600083018462003693565b92915050565b600060208201905062003b286000830184620036b5565b92915050565b600060808201905062003b456000830187620036db565b62003b546020830186620035bf565b62003b63604083018562003a1a565b818103606083015262003b77818462003723565b905095945050505050565b600060c08201905062003b996000830189620036db565b62003ba8602083018862003a1a565b62003bb76040830187620036a4565b62003bc66060830186620036c6565b62003bd56080830185620036d4565b62003be460a0830184620036cd565b979650505050505050565b6000602082019050818103600083015262003c0b8184620036e2565b905092915050565b6000602082019050818103600083015262003c2e81620037af565b9050919050565b6000602082019050818103600083015262003c5081620037d6565b9050919050565b6000602082019050818103600083015262003c7281620037fd565b9050919050565b6000602082019050818103600083015262003c948162003824565b9050919050565b6000602082019050818103600083015262003cb6816200384b565b9050919050565b6000602082019050818103600083015262003cd88162003872565b9050919050565b6000602082019050818103600083015262003cfa8162003899565b9050919050565b6000602082019050818103600083015262003d1c81620038c0565b9050919050565b6000602082019050818103600083015262003d3e81620038e7565b9050919050565b6000602082019050818103600083015262003d60816200390e565b9050919050565b6000602082019050818103600083015262003d828162003935565b9050919050565b6000602082019050818103600083015262003da4816200395c565b9050919050565b6000602082019050818103600083015262003dc68162003983565b9050919050565b6000602082019050818103600083015262003de881620039aa565b9050919050565b6000602082019050818103600083015262003e0a81620039d1565b9050919050565b600060208201905062003e28600083018462003a09565b92915050565b600062003e3a62003e4d565b905062003e4882826200418b565b919050565b6000604051905090565b600067ffffffffffffffff82111562003e755762003e746200429c565b5b602082029050602081019050919050565b600067ffffffffffffffff82111562003ea45762003ea36200429c565b5b602082029050602081019050919050565b6000819050919050565b6000819050602082019050919050565b60008190508160005260206000209050919050565b600060089050919050565b600081519050919050565b600081519050919050565b6000602082019050919050565b6000602082019050919050565b600081905092915050565b600082825260208201905092915050565b600082825260208201905092915050565b600082825260208201905092915050565b600062003f6a8262004096565b915062003f778362004096565b9250827fffffffffffffffffffffffffffffffffffffffffffffffffffffffffffffffff0382111562003faf5762003fae6200420f565b5b828201905092915050565b600062003fc78262004096565b915062003fd48362004096565b9250817fffffffffffffffffffffffffffffffffffffffffffffffffffffffffffffffff048311821515161562004010576200400f6200420f565b5b828202905092915050565b6000620040288262004096565b9150620040358362004096565b9250828210156200404b576200404a6200420f565b5b828203905092915050565b6000620040638262004076565b9050919050565b60008115159050919050565b600073ffffffffffffffffffffffffffffffffffffffff82169050919050565b6000819050919050565b6000620040ad82620040c8565b9050919050565b6000620040c182620040c8565b9050919050565b6000620040d582620040dc565b9050919050565b6000620040e98262004076565b9050919050565b60005b8381101562004110578082015181840152602081019050620040f3565b8381111562004120576000848401525b50505050565b6000620041338262004096565b915060008214156200414a57620041496200420f565b5b600182039050919050565b600060028204905060018216806200416e57607f821691505b602082108114156200418557620041846200423e565b5b50919050565b6200419682620042e4565b810181811067ffffffffffffffff82111715620041b857620041b76200429c565b5b80604052505050565b6000620041ce8262004096565b91507fffffffffffffffffffffffffffffffffffffffffffffffffffffffffffffffff8214156200420457620042036200420f565b5b600182019050919050565b7f4e487b7100000000000000000000000000000000000000000000000000000000600052601160045260246000fd5b7f4e487b7100000000000000000000000000000000000000000000000000000000600052602260045260246000fd5b7f4e487b7100000000000000000000000000000000000000000000000000000000600052603260045260246000fd5b7f4e487b7100000000000000000000000000000000000000000000000000000000600052604160045260246000fd5b600080fd5b600080fd5b600080fd5b600080fd5b600080fd5b6000601f19601f8301169050919050565b7f4f776e61626c653a206e6577206f776e657220697320746865207a65726f206160008201527f6464726573730000000000000000000000000000000000000000000000000000602082015250565b7f496e737566666963656e742066756e647320666f72207374616b696e67000000600082015250565b7f596f75206861766520616c7265616479206a6f696e65642074686973206c656160008201527f6775650000000000000000000000000000000000000000000000000000000000602082015250565b7f55736572206973206e6f742077686974656c6973746564203a28000000000000600082015250565b7f596f75206172652073657474696e6720616e206174686c65746520696e20746860008201527f652077726f6e6720706f736974696f6e21000000000000000000000000000000602082015250565b7f6c696e657570206973206c6f636b656420666f7220746865207765656b210000600082015250565b7f496e697469616c697a61626c653a20636f6e747261637420697320616c72656160008201527f647920696e697469616c697a6564000000000000000000000000000000000000602082015250565b7f4f776e61626c653a2063616c6c6572206973206e6f7420746865206f776e6572600082015250565b7f43616c6c6572206973206e6f74207468652061646d696e000000000000000000600082015250565b7f43616c6c6572206973206e6f74205465616d4469666600000000000000000000600082015250565b7f55736572206973206e6f7420696e204c65616775652e00000000000000000000600082015250565b7f4e6f626f64792063616e20656e7465722f6578697420746865206c656167756560008201527f20616e796d6f72652e2054686520736561736f6e20686173207374617274656460208201527f2100000000000000000000000000000000000000000000000000000000000000604082015250565b7f43616c6c657220646f6573206e6f74206f776e20676976656e206174686c657460008201527f6549647300000000000000000000000000000000000000000000000000000000602082015250565b7f5265656e7472616e637947756172643a207265656e7472616e742063616c6c00600082015250565b7f4c656167756520456e74727920697320436c6f73656421000000000000000000600082015250565b620046718162004056565b81146200467d57600080fd5b50565b6200468b816200406a565b81146200469757600080fd5b50565b620046a58162004096565b8114620046b157600080fd5b5056fe608060405234801561001057600080fd5b5061002d61002261003260201b60201c565b61003a60201b60201c565b6100fe565b600033905090565b60008060009054906101000a900473ffffffffffffffffffffffffffffffffffffffff169050816000806101000a81548173ffffffffffffffffffffffffffffffffffffffff021916908373ffffffffffffffffffffffffffffffffffffffff1602179055508173ffffffffffffffffffffffffffffffffffffffff168173ffffffffffffffffffffffffffffffffffffffff167f8be0079c531659141344cd1fd0a4f28419497f9722a3daafe3b4186f6b6457e060405160405180910390a35050565b610f4c8061010d6000396000f3fe608060405234801561001057600080fd5b50600436106100a95760003560e01c80638da5cb5b116100715780638da5cb5b146101665780639b19251a14610184578063dc9a1535146101b4578063e2ec6ec3146101d2578063e35a899914610202578063f2fde38b14610232576100a9565b806324953eaa146100ae578063286dd3f5146100de57806344eaa84e1461010e578063715018a61461012c5780637b9417c814610136575b600080fd5b6100c860048036038101906100c39190610ada565b61024e565b6040516100d59190610bb1565b60405180910390f35b6100f860048036038101906100f39190610aad565b61031e565b6040516101059190610bb1565b60405180910390f35b6101166104a1565b6040516101239190610c0c565b60405180910390f35b6101346104ab565b005b610150600480360381019061014b9190610aad565b610533565b60405161015d9190610bb1565b60405180910390f35b61016e6106b4565b60405161017b9190610b96565b60405180910390f35b61019e60048036038101906101999190610aad565b6106dd565b6040516101ab9190610bb1565b60405180910390f35b6101bc6106fd565b6040516101c99190610bb1565b60405180910390f35b6101ec60048036038101906101e79190610ada565b610710565b6040516101f99190610bb1565b60405180910390f35b61021c60048036038101906102179190610aad565b6107e0565b6040516102299190610bb1565b60405180910390f35b61024c60048036038101906102479190610aad565b610836565b005b600061025861092e565b73ffffffffffffffffffffffffffffffffffffffff166102766106b4565b73ffffffffffffffffffffffffffffffffffffffff16146102cc576040517f08c379a00000000000000000000000000000000000000000000000000000000081526004016102c390610bec565b60405180910390fd5b60005b8251811015610318576102fb8382815181106102ee576102ed610e04565b5b602002602001015161031e565b1561030557600191505b808061031090610d8c565b9150506102cf565b50919050565b600061032861092e565b73ffffffffffffffffffffffffffffffffffffffff166103466106b4565b73ffffffffffffffffffffffffffffffffffffffff161461039c576040517f08c379a000000000000000000000000000000000000000000000000000000000815260040161039390610bec565b60405180910390fd5b600160008373ffffffffffffffffffffffffffffffffffffffff1673ffffffffffffffffffffffffffffffffffffffff16815260200190815260200160002060009054906101000a900460ff161561049c576000600160008473ffffffffffffffffffffffffffffffffffffffff1673ffffffffffffffffffffffffffffffffffffffff16815260200190815260200160002060006101000a81548160ff0219169083151502179055507ff1abf01a1043b7c244d128e8595cf0c1d10743b022b03a02dffd8ca3bf729f5a826040516104759190610b96565b60405180910390a16001600260008282546104909190610cdf565b92505081905550600190505b919050565b6000600254905090565b6104b361092e565b73ffffffffffffffffffffffffffffffffffffffff166104d16106b4565b73ffffffffffffffffffffffffffffffffffffffff1614610527576040517f08c379a000000000000000000000000000000000000000000000000000000000815260040161051e90610bec565b60405180910390fd5b6105316000610936565b565b600061053d61092e565b73ffffffffffffffffffffffffffffffffffffffff1661055b6106b4565b73ffffffffffffffffffffffffffffffffffffffff16146105b1576040517f08c379a00000000000000000000000000000000000000000000000000000000081526004016105a890610bec565b60405180910390fd5b600160008373ffffffffffffffffffffffffffffffffffffffff1673ffffffffffffffffffffffffffffffffffffffff16815260200190815260200160002060009054906101000a900460ff166106af5760018060008473ffffffffffffffffffffffffffffffffffffffff1673ffffffffffffffffffffffffffffffffffffffff16815260200190815260200160002060006101000a81548160ff0219169083151502179055507fd1bba68c128cc3f427e5831b3c6f99f480b6efa6b9e80c757768f6124158cc3f826040516106889190610b96565b60405180910390a16001600260008282546106a39190610c89565b92505081905550600190505b919050565b60008060009054906101000a900473ffffffffffffffffffffffffffffffffffffffff16905090565b60016020528060005260406000206000915054906101000a900460ff1681565b600360009054906101000a900460ff1681565b600061071a61092e565b73ffffffffffffffffffffffffffffffffffffffff166107386106b4565b73ffffffffffffffffffffffffffffffffffffffff161461078e576040517f08c379a000000000000000000000000000000000000000000000000000000000815260040161078590610bec565b60405180910390fd5b60005b82518110156107da576107bd8382815181106107b0576107af610e04565b5b6020026020010151610533565b156107c757600191505b80806107d290610d8c565b915050610791565b50919050565b6000600160008373ffffffffffffffffffffffffffffffffffffffff1673ffffffffffffffffffffffffffffffffffffffff16815260200190815260200160002060009054906101000a900460ff169050919050565b61083e61092e565b73ffffffffffffffffffffffffffffffffffffffff1661085c6106b4565b73ffffffffffffffffffffffffffffffffffffffff16146108b2576040517f08c379a00000000000000000000000000000000000000000000000000000000081526004016108a990610bec565b60405180910390fd5b600073ffffffffffffffffffffffffffffffffffffffff168173ffffffffffffffffffffffffffffffffffffffff161415610922576040517f08c379a000000000000000000000000000000000000000000000000000000000815260040161091990610bcc565b60405180910390fd5b61092b81610936565b50565b600033905090565b60008060009054906101000a900473ffffffffffffffffffffffffffffffffffffffff169050816000806101000a81548173ffffffffffffffffffffffffffffffffffffffff021916908373ffffffffffffffffffffffffffffffffffffffff1602179055508173ffffffffffffffffffffffffffffffffffffffff168173ffffffffffffffffffffffffffffffffffffffff167f8be0079c531659141344cd1fd0a4f28419497f9722a3daafe3b4186f6b6457e060405160405180910390a35050565b6000610a0d610a0884610c4c565b610c27565b90508083825260208201905082856020860282011115610a3057610a2f610e67565b5b60005b85811015610a605781610a468882610a6a565b845260208401935060208301925050600181019050610a33565b5050509392505050565b600081359050610a7981610eff565b92915050565b600082601f830112610a9457610a93610e62565b5b8135610aa48482602086016109fa565b91505092915050565b600060208284031215610ac357610ac2610e71565b5b6000610ad184828501610a6a565b91505092915050565b600060208284031215610af057610aef610e71565b5b600082013567ffffffffffffffff811115610b0e57610b0d610e6c565b5b610b1a84828501610a7f565b91505092915050565b610b2c81610d13565b82525050565b610b3b81610d25565b82525050565b6000610b4e602683610c78565b9150610b5982610e87565b604082019050919050565b6000610b71602083610c78565b9150610b7c82610ed6565b602082019050919050565b610b9081610d51565b82525050565b6000602082019050610bab6000830184610b23565b92915050565b6000602082019050610bc66000830184610b32565b92915050565b60006020820190508181036000830152610be581610b41565b9050919050565b60006020820190508181036000830152610c0581610b64565b9050919050565b6000602082019050610c216000830184610b87565b92915050565b6000610c31610c42565b9050610c3d8282610d5b565b919050565b6000604051905090565b600067ffffffffffffffff821115610c6757610c66610e33565b5b602082029050602081019050919050565b600082825260208201905092915050565b6000610c9482610d51565b9150610c9f83610d51565b9250827fffffffffffffffffffffffffffffffffffffffffffffffffffffffffffffffff03821115610cd457610cd3610dd5565b5b828201905092915050565b6000610cea82610d51565b9150610cf583610d51565b925082821015610d0857610d07610dd5565b5b828203905092915050565b6000610d1e82610d31565b9050919050565b60008115159050919050565b600073ffffffffffffffffffffffffffffffffffffffff82169050919050565b6000819050919050565b610d6482610e76565b810181811067ffffffffffffffff82111715610d8357610d82610e33565b5b80604052505050565b6000610d9782610d51565b91507fffffffffffffffffffffffffffffffffffffffffffffffffffffffffffffffff821415610dca57610dc9610dd5565b5b600182019050919050565b7f4e487b7100000000000000000000000000000000000000000000000000000000600052601160045260246000fd5b7f4e487b7100000000000000000000000000000000000000000000000000000000600052603260045260246000fd5b7f4e487b7100000000000000000000000000000000000000000000000000000000600052604160045260246000fd5b600080fd5b600080fd5b600080fd5b600080fd5b6000601f19601f8301169050919050565b7f4f776e61626c653a206e6577206f776e657220697320746865207a65726f206160008201527f6464726573730000000000000000000000000000000000000000000000000000602082015250565b7f4f776e61626c653a2063616c6c6572206973206e6f7420746865206f776e6572600082015250565b610f0881610d13565b8114610f1357600080fd5b5056fea264697066735822122013c44309da17edb16daca538fef0ec10185f0de3a32833486ee12942c2821a9b64736f6c63430008070033a2646970667358221220b9b65280018c11450f93d10c4a619d2f8d0495f2292f11347ce84770af66bc9964736f6c63430008070033",
  "linkReferences": {
    "contracts/MOBALogicLibrary.sol": {
      "MOBALogicLibrary": [
        {
          "length": 20,
          "start": 2655
        },
        {
          "length": 20,
          "start": 6556
        }
      ]
    }
  },
  "deployedLinkReferences": {
    "contracts/MOBALogicLibrary.sol": {
      "MOBALogicLibrary": [
        {
          "length": 20,
          "start": 2370
        },
        {
          "length": 20,
          "start": 6271
        }
      ]
    }
  }
}