{
  "_format": "hh-sol-artifact-1",
  "contractName": "LeagueOfLegendsLogic",
  "sourceName": "contracts/LeagueOfLegendsLogic.sol",
  "abi": [
    {
      "anonymous": false,
      "inputs": [
        {
          "indexed": true,
          "internalType": "address",
          "name": "previousOwner",
          "type": "address"
        },
        {
          "indexed": true,
          "internalType": "address",
          "name": "newOwner",
          "type": "address"
        }
      ],
      "name": "OwnershipTransferred",
      "type": "event"
    },
    {
      "anonymous": false,
      "inputs": [
        {
          "indexed": true,
          "internalType": "bytes32",
          "name": "role",
          "type": "bytes32"
        },
        {
          "indexed": true,
          "internalType": "bytes32",
          "name": "previousAdminRole",
          "type": "bytes32"
        },
        {
          "indexed": true,
          "internalType": "bytes32",
          "name": "newAdminRole",
          "type": "bytes32"
        }
      ],
      "name": "RoleAdminChanged",
      "type": "event"
    },
    {
      "anonymous": false,
      "inputs": [
        {
          "indexed": true,
          "internalType": "bytes32",
          "name": "role",
          "type": "bytes32"
        },
        {
          "indexed": true,
          "internalType": "address",
          "name": "account",
          "type": "address"
        },
        {
          "indexed": true,
          "internalType": "address",
          "name": "sender",
          "type": "address"
        }
      ],
      "name": "RoleGranted",
      "type": "event"
    },
    {
      "anonymous": false,
      "inputs": [
        {
          "indexed": true,
          "internalType": "bytes32",
          "name": "role",
          "type": "bytes32"
        },
        {
          "indexed": true,
          "internalType": "address",
          "name": "account",
          "type": "address"
        },
        {
          "indexed": true,
          "internalType": "address",
          "name": "sender",
          "type": "address"
        }
      ],
      "name": "RoleRevoked",
      "type": "event"
    },
    {
      "anonymous": false,
      "inputs": [
        {
          "indexed": false,
          "internalType": "address",
          "name": "sender",
          "type": "address"
        },
        {
          "indexed": false,
          "internalType": "uint256",
          "name": "amount",
          "type": "uint256"
        }
      ],
      "name": "Staked",
      "type": "event"
    },
    {
      "anonymous": false,
      "inputs": [
        {
          "indexed": false,
          "internalType": "address",
          "name": "addr",
          "type": "address"
        }
      ],
      "name": "WhitelistedAddressAdded",
      "type": "event"
    },
    {
      "anonymous": false,
      "inputs": [
        {
          "indexed": false,
          "internalType": "address",
          "name": "addr",
          "type": "address"
        }
      ],
      "name": "WhitelistedAddressRemoved",
      "type": "event"
    },
    {
      "inputs": [],
      "name": "DEFAULT_ADMIN_ROLE",
      "outputs": [
        {
          "internalType": "bytes32",
          "name": "",
          "type": "bytes32"
        }
      ],
      "stateMutability": "view",
      "type": "function"
    },
    {
      "inputs": [
        {
          "internalType": "address",
          "name": "addr",
          "type": "address"
        }
      ],
      "name": "addAddressToWhitelist",
      "outputs": [
        {
          "internalType": "bool",
          "name": "success",
          "type": "bool"
        }
      ],
      "stateMutability": "nonpayable",
      "type": "function"
    },
    {
      "inputs": [
        {
          "internalType": "address[]",
          "name": "addrs",
          "type": "address[]"
        }
      ],
      "name": "addAddressesToWhitelist",
      "outputs": [
        {
          "internalType": "bool",
          "name": "success",
          "type": "bool"
        }
      ],
      "stateMutability": "nonpayable",
      "type": "function"
    },
    {
      "inputs": [],
      "name": "addUserToWhitelist",
      "outputs": [],
      "stateMutability": "nonpayable",
      "type": "function"
    },
    {
      "inputs": [
        {
          "components": [
            {
              "internalType": "uint256",
              "name": "kills",
              "type": "uint256"
            }
          ],
          "internalType": "struct LeagueOfLegendsLogic.Stats",
          "name": "athleteStats",
          "type": "tuple"
        }
      ],
      "name": "calculateScoreOnChain",
      "outputs": [
        {
          "internalType": "uint256",
          "name": "score",
          "type": "uint256"
        }
      ],
      "stateMutability": "pure",
      "type": "function"
    },
    {
      "inputs": [
        {
          "internalType": "address",
          "name": "addr1",
          "type": "address"
        },
        {
          "internalType": "address",
          "name": "addr2",
          "type": "address"
        },
        {
          "internalType": "uint256",
          "name": "currentWeekNum",
          "type": "uint256"
        }
      ],
      "name": "evaluateMatch",
      "outputs": [
        {
          "internalType": "address",
          "name": "",
          "type": "address"
        }
      ],
      "stateMutability": "nonpayable",
      "type": "function"
    },
    {
      "inputs": [
        {
          "internalType": "uint256",
          "name": "currentWeekNum",
          "type": "uint256"
        }
      ],
      "name": "evaluateWeek",
      "outputs": [],
      "stateMutability": "nonpayable",
      "type": "function"
    },
    {
      "inputs": [],
      "name": "getLeagueName",
      "outputs": [
        {
          "internalType": "string",
          "name": "",
          "type": "string"
        }
      ],
      "stateMutability": "view",
      "type": "function"
    },
    {
      "inputs": [],
      "name": "getLineup",
      "outputs": [
        {
          "internalType": "uint256[]",
          "name": "",
          "type": "uint256[]"
        }
      ],
      "stateMutability": "view",
      "type": "function"
    },
    {
      "inputs": [
        {
          "internalType": "bytes32",
          "name": "role",
          "type": "bytes32"
        }
      ],
      "name": "getRoleAdmin",
      "outputs": [
        {
          "internalType": "bytes32",
          "name": "",
          "type": "bytes32"
        }
      ],
      "stateMutability": "view",
      "type": "function"
    },
    {
      "inputs": [],
      "name": "getStakeAmount",
      "outputs": [
        {
          "internalType": "uint256",
          "name": "stakeAmount",
          "type": "uint256"
        }
      ],
      "stateMutability": "view",
      "type": "function"
    },
    {
      "inputs": [],
      "name": "getTotalPrizePot",
      "outputs": [
        {
          "internalType": "uint256",
          "name": "",
          "type": "uint256"
        }
      ],
      "stateMutability": "view",
      "type": "function"
    },
    {
      "inputs": [
        {
          "internalType": "address",
          "name": "_token",
          "type": "address"
        }
      ],
      "name": "getUSDCBalance",
      "outputs": [
        {
          "internalType": "uint256",
          "name": "",
          "type": "uint256"
        }
      ],
      "stateMutability": "view",
      "type": "function"
    },
    {
      "inputs": [],
      "name": "getUserRecord",
      "outputs": [
        {
          "internalType": "uint256[8]",
          "name": "",
          "type": "uint256[8]"
        }
      ],
      "stateMutability": "view",
      "type": "function"
    },
    {
      "inputs": [],
      "name": "getUserTotalWins",
      "outputs": [
        {
          "internalType": "uint256",
          "name": "",
          "type": "uint256"
        }
      ],
      "stateMutability": "view",
      "type": "function"
    },
    {
      "inputs": [],
      "name": "getVersion",
      "outputs": [
        {
          "internalType": "uint256",
          "name": "version",
          "type": "uint256"
        }
      ],
      "stateMutability": "view",
      "type": "function"
    },
    {
      "inputs": [
        {
          "internalType": "bytes32",
          "name": "role",
          "type": "bytes32"
        },
        {
          "internalType": "address",
          "name": "account",
          "type": "address"
        }
      ],
      "name": "grantRole",
      "outputs": [],
      "stateMutability": "nonpayable",
      "type": "function"
    },
    {
      "inputs": [
        {
          "internalType": "bytes32",
          "name": "role",
          "type": "bytes32"
        },
        {
          "internalType": "address",
          "name": "account",
          "type": "address"
        }
      ],
      "name": "hasRole",
      "outputs": [
        {
          "internalType": "bool",
          "name": "",
          "type": "bool"
        }
      ],
      "stateMutability": "view",
      "type": "function"
    },
    {
      "inputs": [],
      "name": "incrementVersion",
      "outputs": [],
      "stateMutability": "nonpayable",
      "type": "function"
    },
    {
      "inputs": [
        {
          "internalType": "string",
          "name": "_name",
          "type": "string"
        },
        {
          "internalType": "uint256",
          "name": "_version",
          "type": "uint256"
        },
        {
          "internalType": "uint256",
          "name": "_stakeAmount",
          "type": "uint256"
        },
        {
          "internalType": "bool",
          "name": "_isPublic",
          "type": "bool"
        },
        {
          "internalType": "address",
          "name": "athletesDataStorageAddress",
          "type": "address"
        },
        {
          "internalType": "address",
          "name": "_admin",
          "type": "address"
        },
        {
          "internalType": "address",
          "name": "_polygonUSDCAddress",
          "type": "address"
        },
        {
          "internalType": "address",
          "name": "_rinkebyUSDCAddress",
          "type": "address"
        },
        {
          "internalType": "address",
          "name": "leagueMakerContractAddress",
          "type": "address"
        }
      ],
      "name": "initialize",
      "outputs": [],
      "stateMutability": "nonpayable",
      "type": "function"
    },
    {
      "inputs": [],
      "name": "isPublic",
      "outputs": [
        {
          "internalType": "bool",
          "name": "",
          "type": "bool"
        }
      ],
      "stateMutability": "view",
      "type": "function"
    },
    {
      "inputs": [],
      "name": "joinLeague",
      "outputs": [],
      "stateMutability": "nonpayable",
      "type": "function"
    },
    {
      "inputs": [
        {
          "internalType": "uint256",
          "name": "",
          "type": "uint256"
        }
      ],
      "name": "leagueMembers",
      "outputs": [
        {
          "internalType": "address",
          "name": "",
          "type": "address"
        }
      ],
      "stateMutability": "view",
      "type": "function"
    },
    {
      "inputs": [],
      "name": "leagueName",
      "outputs": [
        {
          "internalType": "string",
          "name": "",
          "type": "string"
        }
      ],
      "stateMutability": "view",
      "type": "function"
    },
    {
      "inputs": [],
      "name": "lockLineup",
      "outputs": [],
      "stateMutability": "nonpayable",
      "type": "function"
    },
    {
      "inputs": [],
      "name": "numWeeks",
      "outputs": [
        {
          "internalType": "uint256",
          "name": "",
          "type": "uint256"
        }
      ],
      "stateMutability": "view",
      "type": "function"
    },
    {
      "inputs": [],
      "name": "owner",
      "outputs": [
        {
          "internalType": "address",
          "name": "",
          "type": "address"
        }
      ],
      "stateMutability": "view",
      "type": "function"
    },
    {
      "inputs": [],
      "name": "polygonUSDCAddress",
      "outputs": [
        {
          "internalType": "address",
          "name": "",
          "type": "address"
        }
      ],
      "stateMutability": "view",
      "type": "function"
    },
    {
      "inputs": [
        {
          "internalType": "address",
          "name": "addr",
          "type": "address"
        }
      ],
      "name": "removeAddressFromWhitelist",
      "outputs": [
        {
          "internalType": "bool",
          "name": "success",
          "type": "bool"
        }
      ],
      "stateMutability": "nonpayable",
      "type": "function"
    },
    {
      "inputs": [
        {
          "internalType": "address[]",
          "name": "addrs",
          "type": "address[]"
        }
      ],
      "name": "removeAddressesFromWhitelist",
      "outputs": [
        {
          "internalType": "bool",
          "name": "success",
          "type": "bool"
        }
      ],
      "stateMutability": "nonpayable",
      "type": "function"
    },
    {
      "inputs": [],
      "name": "renounceOwnership",
      "outputs": [],
      "stateMutability": "nonpayable",
      "type": "function"
    },
    {
      "inputs": [
        {
          "internalType": "bytes32",
          "name": "role",
          "type": "bytes32"
        },
        {
          "internalType": "address",
          "name": "account",
          "type": "address"
        }
      ],
      "name": "renounceRole",
      "outputs": [],
      "stateMutability": "nonpayable",
      "type": "function"
    },
    {
      "inputs": [
        {
          "internalType": "bytes32",
          "name": "role",
          "type": "bytes32"
        },
        {
          "internalType": "address",
          "name": "account",
          "type": "address"
        }
      ],
      "name": "revokeRole",
      "outputs": [],
      "stateMutability": "nonpayable",
      "type": "function"
    },
    {
      "inputs": [],
      "name": "rinkebyUSDCAddress",
      "outputs": [
        {
          "internalType": "address",
          "name": "",
          "type": "address"
        }
      ],
      "stateMutability": "view",
      "type": "function"
    },
    {
      "inputs": [],
      "name": "setLeagueEntryIsClosed",
      "outputs": [],
      "stateMutability": "nonpayable",
      "type": "function"
    },
    {
      "inputs": [],
      "name": "setLeagueSchedule",
      "outputs": [],
      "stateMutability": "nonpayable",
      "type": "function"
    },
    {
      "inputs": [
        {
          "internalType": "uint256[]",
          "name": "athleteIds",
          "type": "uint256[]"
        }
      ],
      "name": "setLineup",
      "outputs": [],
      "stateMutability": "nonpayable",
      "type": "function"
    },
    {
      "inputs": [],
      "name": "stakeAmount",
      "outputs": [
        {
          "internalType": "uint256",
          "name": "",
          "type": "uint256"
        }
      ],
      "stateMutability": "view",
      "type": "function"
    },
    {
      "inputs": [
        {
          "internalType": "bytes4",
          "name": "interfaceId",
          "type": "bytes4"
        }
      ],
      "name": "supportsInterface",
      "outputs": [
        {
          "internalType": "bool",
          "name": "",
          "type": "bool"
        }
      ],
      "stateMutability": "view",
      "type": "function"
    },
    {
      "inputs": [
        {
          "internalType": "address",
          "name": "newOwner",
          "type": "address"
        }
      ],
      "name": "transferOwnership",
      "outputs": [],
      "stateMutability": "nonpayable",
      "type": "function"
    },
    {
      "inputs": [],
      "name": "unlockLineup",
      "outputs": [],
      "stateMutability": "nonpayable",
      "type": "function"
    },
    {
      "inputs": [
        {
          "internalType": "address",
          "name": "",
          "type": "address"
        },
        {
          "internalType": "uint256",
          "name": "",
          "type": "uint256"
        }
      ],
      "name": "userToRecord",
      "outputs": [
        {
          "internalType": "uint256",
          "name": "",
          "type": "uint256"
        }
      ],
      "stateMutability": "view",
      "type": "function"
    },
    {
      "inputs": [],
      "name": "version",
      "outputs": [
        {
          "internalType": "uint256",
          "name": "",
          "type": "uint256"
        }
      ],
      "stateMutability": "view",
      "type": "function"
    },
    {
      "inputs": [
        {
          "internalType": "address",
          "name": "",
          "type": "address"
        }
      ],
      "name": "whitelist",
      "outputs": [
        {
          "internalType": "bool",
          "name": "",
          "type": "bool"
        }
      ],
      "stateMutability": "view",
      "type": "function"
    }
  ],
  "bytecode": "0x60806040523480156200001157600080fd5b5062000032620000266200003860201b60201c565b6200004060201b60201c565b62000105565b600033905090565b60008060029054906101000a900473ffffffffffffffffffffffffffffffffffffffff16905081600060026101000a81548173ffffffffffffffffffffffffffffffffffffffff021916908373ffffffffffffffffffffffffffffffffffffffff1602179055508173ffffffffffffffffffffffffffffffffffffffff168173ffffffffffffffffffffffffffffffffffffffff167f8be0079c531659141344cd1fd0a4f28419497f9722a3daafe3b4186f6b6457e060405160405180910390a35050565b6160b880620001156000396000f3fe60806040523480156200001157600080fd5b5060043610620002af5760003560e01c80637eed33f11162000171578063c8be3b5b11620000d5578063e2ec6ec31162000093578063e2ec6ec3146200080c578063e4c9066b1462000842578063e6bab8ad146200084e578063f2fde38b1462000870578063f612121a1462000890578063f881604514620008b057620002af565b8063c8be3b5b146200077c578063c99fea941462000788578063cb6f545e1462000794578063d547741f14620007ca578063dc9a153514620007ea57620002af565b806399a60034116200012f57806399a6003414620006b45780639b19251a14620006d65780639f2d5481146200070c578063a217fddf146200072c578063a2bc091a146200074e578063ada3a28d146200075a57620002af565b80637eed33f114620005f6578063841abf6e14620006185780638da5cb5b146200063a57806391d14854146200065c57806393f3706c146200069257620002af565b80632f2ff15d116200021957806360c7dc4711620001d757806360c7dc47146200052e578063680247171462000550578063715018a61462000586578063722580b614620005925780637ac6aa1d14620005b45780637b9417c814620005c057620002af565b80632f2ff15d146200047457806336568abe1462000494578063403570c514620004b457806354fd4d5014620004d657806356185d7414620004f857620002af565b80630d8e6e2c11620002735780630d8e6e2c146200036e578063248a9ca3146200039057806324953eaa14620003c6578063267175db14620003fc578063286dd3f514620004325780632cf0a1fc146200046857620002af565b8062b2476f14620002b457806301ffc9a714620002d65780630655465a146200030c5780630bdcd5f014620003185780630c6f79591462000338575b600080fd5b620002be620008d2565b604051620002cd919062004677565b60405180910390f35b620002f46004803603810190620002ee91906200401d565b620008f8565b60405162000303919062004740565b60405180910390f35b6200031662000975565b005b6200033660048036038101906200033091906200404f565b6200122d565b005b62000356600480360381019062000350919062003e38565b620015c0565b604051620003659190620048ae565b60405180910390f35b62000378620015e9565b604051620003879190620048ae565b60405180910390f35b620003ae6004803603810190620003a8919062003fa4565b620015ee565b604051620003bd91906200475d565b60405180910390f35b620003e46004803603810190620003de919062003e7f565b6200160e565b604051620003f3919062004740565b60405180910390f35b6200041a600480360381019062000414919062004184565b6200170b565b60405162000429919062004677565b60405180910390f35b6200045060048036038101906200044a919062003daa565b6200174b565b6040516200045f919062004740565b60405180910390f35b62000472620018da565b005b6200049260048036038101906200048c919062003fd6565b620018f8565b005b620004b26004803603810190620004ac919062003fd6565b62001929565b005b620004be620019b3565b604051620004cd91906200477a565b60405180910390f35b620004e062001a4d565b604051620004ef9190620048ae565b60405180910390f35b62000516600480360381019062000510919062004152565b62001a53565b604051620005259190620048ae565b60405180910390f35b6200053862001a6f565b604051620005479190620048ae565b60405180910390f35b6200056e600480360381019062000568919062003daa565b62001a75565b6040516200057d9190620048ae565b60405180910390f35b6200059062001b0d565b005b6200059c62001b9e565b604051620005ab9190620048ae565b60405180910390f35b620005be62001ba3565b005b620005de6004803603810190620005d8919062003daa565b62001c16565b604051620005ed919062004740565b60405180910390f35b6200060062001da4565b6040516200060f9190620048ae565b60405180910390f35b6200062262001daa565b6040516200063191906200477a565b60405180910390f35b6200064462001e40565b60405162000653919062004677565b60405180910390f35b6200067a600480360381019062000674919062003fd6565b62001e69565b60405162000689919062004740565b60405180910390f35b6200069c62001ed4565b604051620006ab919062004677565b60405180910390f35b620006be62001efa565b604051620006cd9190620048ae565b60405180910390f35b620006f46004803603810190620006ee919062003daa565b62001f16565b60405162000703919062004740565b60405180910390f35b6200072a600480360381019062000724919062004184565b62001f36565b005b62000736620020e3565b6040516200074591906200475d565b60405180910390f35b62000758620020ea565b005b620007646200218a565b6040516200077391906200471c565b60405180910390f35b6200078662002221565b005b62000792620022c1565b005b620007b26004803603810190620007ac919062003ddc565b62002418565b604051620007c1919062004677565b60405180910390f35b620007e86004803603810190620007e2919062003fd6565b620029c3565b005b620007f4620029f4565b60405162000803919062004740565b60405180910390f35b6200082a600480360381019062000824919062003e7f565b62002a07565b60405162000839919062004740565b60405180910390f35b6200084c62002b04565b005b6200085862002ba4565b604051620008679190620048ae565b60405180910390f35b6200088e600480360381019062000888919062003daa565b62002ce2565b005b620008ae6004803603810190620008a8919062003ed0565b62002de6565b005b620008ba62002e92565b604051620008c99190620046fe565b60405180910390f35b600d60009054906101000a900473ffffffffffffffffffffffffffffffffffffffff1681565b60007f7965db0b000000000000000000000000000000000000000000000000000000007bffffffffffffffffffffffffffffffffffffffffffffffffffffffff1916827bffffffffffffffffffffffffffffffffffffffffffffffffffffffff191614806200096e57506200096d8262002f1e565b5b9050919050565b6200097f62002f88565b73ffffffffffffffffffffffffffffffffffffffff166200099f62001e40565b73ffffffffffffffffffffffffffffffffffffffff1614620009f8576040517f08c379a0000000000000000000000000000000000000000000000000000000008152600401620009ef9062004848565b60405180910390fd5b62000a386040518060400160405280601081526020017f73657474696e67207363686564756c650000000000000000000000000000000081525062002f90565b600060088054905060088054905062000a52919062004a89565b423344600660405160200162000a6c949392919062004625565b6040516020818303038152906040528051906020012060001c62000a919190620049f4565b905062000a9d62003885565b62000aa762003885565b60005b600754811015620012275762000af56040518060400160405280600181526020017f0a0000000000000000000000000000000000000000000000000000000000000081525062002f90565b62000b00816200302d565b62000b406040518060400160405280601881526020017f2a2a2a2a2a2a2a2a2a2a2a2a2a2a2a2a2a2a2a2a2a2a2a2a000000000000000081525062002f90565b600080600260088054905062000b57919062004cf6565b1462000b7a57600160088054905062000b719190620049f4565b90508062000b84565b6008805490509050805b5060008360006004811062000b9e5762000b9d62004dbb565b5b6020020151905060005b60028362000bb7919062004a51565b81101562000d3457600084141562000c7a57808660028562000bda919062004a51565b898462000be89190620049f4565b62000bf4919062004cf6565b6004811062000c085762000c0762004dbb565b5b60200201818152505060028362000c20919062004a51565b8162000c2d9190620049f4565b8560028562000c3d919062004a51565b898462000c4b9190620049f4565b62000c57919062004cf6565b6004811062000c6b5762000c6a62004dbb565b5b60200201818152505062000d1e565b600086826004811062000c925762000c9162004dbb565b5b602002015190508086836004811062000cb05762000caf62004dbb565b5b6020020181815250508560028562000cc9919062004a51565b60018462000cd89190620049f4565b62000ce4919062004cf6565b6004811062000cf85762000cf762004dbb565b5b602002015187836004811062000d135762000d1262004dbb565b5b602002018181525050505b808062000d2b9062004c76565b91505062000ba8565b506000831462000d7b578085600160028562000d51919062004a51565b62000d5d919062004aea565b6004811062000d715762000d7062004dbb565b5b6020020181815250505b60005b60028362000d8d919062004a51565b8110156200120e5762000d9f620038a7565b60088054905086836004811062000dbb5762000dba62004dbb565b5b60200201511062000e97576040518060400160405280600889856004811062000de95762000de862004dbb565b5b60200201518154811062000e025762000e0162004dbb565b5b9060005260206000200160009054906101000a900473ffffffffffffffffffffffffffffffffffffffff1673ffffffffffffffffffffffffffffffffffffffff1673ffffffffffffffffffffffffffffffffffffffff168152602001600073ffffffffffffffffffffffffffffffffffffffff1673ffffffffffffffffffffffffffffffffffffffff168152509050620010b6565b60088054905087836004811062000eb35762000eb262004dbb565b5b60200201511062000f8f576040518060400160405280600073ffffffffffffffffffffffffffffffffffffffff1673ffffffffffffffffffffffffffffffffffffffff168152602001600888856004811062000f145762000f1362004dbb565b5b60200201518154811062000f2d5762000f2c62004dbb565b5b9060005260206000200160009054906101000a900473ffffffffffffffffffffffffffffffffffffffff1673ffffffffffffffffffffffffffffffffffffffff1673ffffffffffffffffffffffffffffffffffffffff168152509050620010b5565b6040518060400160405280600889856004811062000fb25762000fb162004dbb565b5b60200201518154811062000fcb5762000fca62004dbb565b5b9060005260206000200160009054906101000a900473ffffffffffffffffffffffffffffffffffffffff1673ffffffffffffffffffffffffffffffffffffffff1673ffffffffffffffffffffffffffffffffffffffff16815260200160088885600481106200103f576200103e62004dbb565b5b60200201518154811062001058576200105762004dbb565b5b9060005260206000200160009054906101000a900473ffffffffffffffffffffffffffffffffffffffff1673ffffffffffffffffffffffffffffffffffffffff1673ffffffffffffffffffffffffffffffffffffffff1681525090505b5b60006040518060200160405280838152509050600b60008781526020019081526020016000208190806001815401808255809150506001900390600052602060002090600202016000909190919091506000820151816000019060026200111f929190620038c9565b5050506200114c816000015160006002811062001141576200114062004dbb565b5b6020020151620030ca565b6200118c6040518060400160405280600481526020017f207673200000000000000000000000000000000000000000000000000000000081525062002f90565b620011b68160000151600160028110620011ab57620011aa62004dbb565b5b6020020151620030ca565b620011f66040518060400160405280600181526020017f0a0000000000000000000000000000000000000000000000000000000000000081525062002f90565b50508080620012059062004c76565b91505062000d7e565b50505080806200121e9062004c76565b91505062000aaa565b50505050565b600060019054906101000a900460ff16620012575760008054906101000a900460ff161562001262565b6200126162003167565b5b620012a4576040517f08c379a00000000000000000000000000000000000000000000000000000000081526004016200129b9062004826565b60405180910390fd5b60008060019054906101000a900460ff161590508015620012f5576001600060016101000a81548160ff02191690831515021790555060016000806101000a81548160ff0219169083151502179055505b886005819055508a8a600691906200130f9291906200394b565b50600860078190555087600a8190555086600460006101000a81548160ff0219169083151502179055506000600960016101000a81548160ff0219169083151502179055506000600960006101000a81548160ff02191690831515021790555085601160006101000a81548173ffffffffffffffffffffffffffffffffffffffff021916908373ffffffffffffffffffffffffffffffffffffffff16021790555081601260006101000a81548173ffffffffffffffffffffffffffffffffffffffff021916908373ffffffffffffffffffffffffffffffffffffffff160217905550620014006000801b866200317a565b83600c60006101000a81548173ffffffffffffffffffffffffffffffffffffffff021916908373ffffffffffffffffffffffffffffffffffffffff16021790555082600d60006101000a81548173ffffffffffffffffffffffffffffffffffffffff021916908373ffffffffffffffffffffffffffffffffffffffff1602179055506008859080600181540180825580915050600190039060005260206000200160009091909190916101000a81548173ffffffffffffffffffffffffffffffffffffffff021916908373ffffffffffffffffffffffffffffffffffffffff160217905550604051620014f390620039dc565b604051809103906000f08015801562001510573d6000803e3d6000fd5b50600e60006101000a81548173ffffffffffffffffffffffffffffffffffffffff021916908373ffffffffffffffffffffffffffffffffffffffff160217905550620015916040518060400160405280601281526020017f50726f787920696e697469616c697a656421000000000000000000000000000081525062002f90565b8015620015b35760008060016101000a81548160ff0219169083151502179055505b5050505050505050505050565b600f6020528160005260406000208160088110620015dd57600080fd5b01600091509150505481565b600090565b600060016000838152602001908152602001600020600101549050919050565b60006200161a62002f88565b73ffffffffffffffffffffffffffffffffffffffff166200163a62001e40565b73ffffffffffffffffffffffffffffffffffffffff161462001693576040517f08c379a00000000000000000000000000000000000000000000000000000000081526004016200168a9062004848565b60405180910390fd5b60005b82518110156200170557620016c8838281518110620016ba57620016b962004dbb565b5b60200260200101516200174b565b15620016ef57600160036000828254620016e3919062004aea565b92505081905550600191505b8080620016fc9062004c76565b91505062001696565b50919050565b600881815481106200171c57600080fd5b906000526020600020016000915054906101000a900473ffffffffffffffffffffffffffffffffffffffff1681565b60006200175762002f88565b73ffffffffffffffffffffffffffffffffffffffff166200177762001e40565b73ffffffffffffffffffffffffffffffffffffffff1614620017d0576040517f08c379a0000000000000000000000000000000000000000000000000000000008152600401620017c79062004848565b60405180910390fd5b600260008373ffffffffffffffffffffffffffffffffffffffff1673ffffffffffffffffffffffffffffffffffffffff16815260200190815260200160002060009054906101000a900460ff1615620018d5576000600260008473ffffffffffffffffffffffffffffffffffffffff1673ffffffffffffffffffffffffffffffffffffffff16815260200190815260200160002060006101000a81548160ff0219169083151502179055507ff1abf01a1043b7c244d128e8595cf0c1d10743b022b03a02dffd8ca3bf729f5a82604051620018ac919062004677565b60405180910390a1600160036000828254620018c9919062004aea565b92505081905550600190505b919050565b600160056000828254620018ef9190620049f4565b92505081905550565b6200190382620015ee565b62001918816200191262002f88565b6200318a565b62001924838362003232565b505050565b6200193362002f88565b73ffffffffffffffffffffffffffffffffffffffff168173ffffffffffffffffffffffffffffffffffffffff1614620019a3576040517f08c379a00000000000000000000000000000000000000000000000000000000081526004016200199a906200488c565b60405180910390fd5b620019af828262003317565b5050565b606060068054620019c49062004c0a565b80601f0160208091040260200160405190810160405280929190818152602001828054620019f29062004c0a565b801562001a435780601f1062001a175761010080835404028352916020019162001a43565b820191906000526020600020905b81548152906001019060200180831162001a2557829003601f168201915b5050505050905090565b60055481565b60006002826000013562001a68919062004a89565b9050919050565b600a5481565b60008173ffffffffffffffffffffffffffffffffffffffff166370a08231306040518263ffffffff1660e01b815260040162001ab2919062004677565b60206040518083038186803b15801562001acb57600080fd5b505afa15801562001ae0573d6000803e3d6000fd5b505050506040513d601f19601f8201168201806040525081019062001b069190620041b6565b9050919050565b62001b1762002f88565b73ffffffffffffffffffffffffffffffffffffffff1662001b3762001e40565b73ffffffffffffffffffffffffffffffffffffffff161462001b90576040517f08c379a000000000000000000000000000000000000000000000000000000000815260040162001b879062004848565b60405180910390fd5b62001b9c6000620033fe565b565b600090565b62001bb26000801b3362001e69565b62001bbc57600080fd5b6001600260003373ffffffffffffffffffffffffffffffffffffffff1673ffffffffffffffffffffffffffffffffffffffff16815260200190815260200160002060006101000a81548160ff021916908315150217905550565b600062001c2262002f88565b73ffffffffffffffffffffffffffffffffffffffff1662001c4262001e40565b73ffffffffffffffffffffffffffffffffffffffff161462001c9b576040517f08c379a000000000000000000000000000000000000000000000000000000000815260040162001c929062004848565b60405180910390fd5b600260008373ffffffffffffffffffffffffffffffffffffffff1673ffffffffffffffffffffffffffffffffffffffff16815260200190815260200160002060009054906101000a900460ff1662001d9f576001600260008473ffffffffffffffffffffffffffffffffffffffff1673ffffffffffffffffffffffffffffffffffffffff16815260200190815260200160002060006101000a81548160ff0219169083151502179055507fd1bba68c128cc3f427e5831b3c6f99f480b6efa6b9e80c757768f6124158cc3f8260405162001d76919062004677565b60405180910390a160016003600082825462001d939190620049f4565b92505081905550600190505b919050565b60075481565b6006805462001db99062004c0a565b80601f016020809104026020016040519081016040528092919081815260200182805462001de79062004c0a565b801562001e385780601f1062001e0c5761010080835404028352916020019162001e38565b820191906000526020600020905b81548152906001019060200180831162001e1a57829003601f168201915b505050505081565b60008060029054906101000a900473ffffffffffffffffffffffffffffffffffffffff16905090565b60006001600084815260200190815260200160002060000160008373ffffffffffffffffffffffffffffffffffffffff1673ffffffffffffffffffffffffffffffffffffffff16815260200190815260200160002060009054906101000a900460ff16905092915050565b600c60009054906101000a900473ffffffffffffffffffffffffffffffffffffffff1681565b6000600880549050600a5462001f11919062004a89565b905090565b60026020528060005260406000206000915054906101000a900460ff1681565b62001f4062002f88565b73ffffffffffffffffffffffffffffffffffffffff1662001f6062001e40565b73ffffffffffffffffffffffffffffffffffffffff161462001fb9576040517f08c379a000000000000000000000000000000000000000000000000000000000815260040162001fb09062004848565b60405180910390fd5b60005b600b600083815260200190815260200160002080549050811015620020df57620020c8600b6000848152602001908152602001600020828154811062002007576200200662004dbb565b5b90600052602060002090600202016000016000600281106200202e576200202d62004dbb565b5b0160009054906101000a900473ffffffffffffffffffffffffffffffffffffffff16600b6000858152602001908152602001600020838154811062002078576200207762004dbb565b5b90600052602060002090600202016000016001600281106200209f576200209e62004dbb565b5b0160009054906101000a900473ffffffffffffffffffffffffffffffffffffffff168462002418565b508080620020d69062004c76565b91505062001fbc565b5050565b6000801b81565b620020f462002f88565b73ffffffffffffffffffffffffffffffffffffffff166200211462001e40565b73ffffffffffffffffffffffffffffffffffffffff16146200216d576040517f08c379a0000000000000000000000000000000000000000000000000000000008152600401620021649062004848565b60405180910390fd5b6000600960016101000a81548160ff021916908315150217905550565b6060601060003373ffffffffffffffffffffffffffffffffffffffff1673ffffffffffffffffffffffffffffffffffffffff1681526020019081526020016000208054806020026020016040519081016040528092919081815260200182805480156200221757602002820191906000526020600020905b81548152602001906001019080831162002202575b5050505050905090565b6200222b62002f88565b73ffffffffffffffffffffffffffffffffffffffff166200224b62001e40565b73ffffffffffffffffffffffffffffffffffffffff1614620022a4576040517f08c379a00000000000000000000000000000000000000000000000000000000081526004016200229b9062004848565b60405180910390fd5b6001600960016101000a81548160ff021916908315150217905550565b600260003373ffffffffffffffffffffffffffffffffffffffff1673ffffffffffffffffffffffffffffffffffffffff16815260200190815260200160002060009054906101000a900460ff1680620023265750600460009054906101000a900460ff165b6200233057600080fd5b600960009054906101000a900460ff161562002383576040517f08c379a00000000000000000000000000000000000000000000000000000000081526004016200237a906200486a565b60405180910390fd5b6008339080600181540180825580915050600190039060005260206000200160009091909190916101000a81548173ffffffffffffffffffffffffffffffffffffffff021916908373ffffffffffffffffffffffffffffffffffffffff16021790555062002416600d60009054906101000a900473ffffffffffffffffffffffffffffffffffffffff16600a54620034c3565b565b60006200242462002f88565b73ffffffffffffffffffffffffffffffffffffffff166200244462001e40565b73ffffffffffffffffffffffffffffffffffffffff16146200249d576040517f08c379a0000000000000000000000000000000000000000000000000000000008152600401620024949062004848565b60405180910390fd5b6000601060008673ffffffffffffffffffffffffffffffffffffffff1673ffffffffffffffffffffffffffffffffffffffff1681526020019081526020016000208054806020026020016040519081016040528092919081815260200182805480156200252a57602002820191906000526020600020905b81548152602001906001019080831162002515575b505050505090506000601060008673ffffffffffffffffffffffffffffffffffffffff1673ffffffffffffffffffffffffffffffffffffffff168152602001908152602001600020805480602002602001604051908101604052809291908181526020018280548015620025be57602002820191906000526020600020905b815481526020019060010190808311620025a9575b5050505050905060008060005b845181101562002831576000601160009054906101000a900473ffffffffffffffffffffffffffffffffffffffff1673ffffffffffffffffffffffffffffffffffffffff1663d4313da88784815181106200262b576200262a62004dbb565b5b60200260200101516040518263ffffffff1660e01b8152600401620026519190620048ae565b60006040518083038186803b1580156200266a57600080fd5b505afa1580156200267f573d6000803e3d6000fd5b505050506040513d6000823e3d601f19601f82011682018060405250810190620026aa919062003f21565b90506000601160009054906101000a900473ffffffffffffffffffffffffffffffffffffffff1673ffffffffffffffffffffffffffffffffffffffff1663d4313da887858151811062002702576200270162004dbb565b5b60200260200101516040518263ffffffff1660e01b8152600401620027289190620048ae565b60006040518083038186803b1580156200274157600080fd5b505afa15801562002756573d6000803e3d6000fd5b505050506040513d6000823e3d601f19601f8201168201806040525081019062002781919062003f21565b90506000826001845162002796919062004aea565b81518110620027aa57620027a962004dbb565b5b6020026020010151905060008260018451620027c7919062004aea565b81518110620027db57620027da62004dbb565b5b60200260200101519050808211156200280557600187620027fd9190620049f4565b965062002817565b600186620028149190620049f4565b95505b505050508080620028289062004c76565b915050620025cb565b5080821115620028fe576001600f60008a73ffffffffffffffffffffffffffffffffffffffff1673ffffffffffffffffffffffffffffffffffffffff168152602001908152602001600020876008811062002891576200289062004dbb565b5b01819055506000600f60008973ffffffffffffffffffffffffffffffffffffffff1673ffffffffffffffffffffffffffffffffffffffff1681526020019081526020016000208760088110620028ec57620028eb62004dbb565b5b018190555087945050505050620029bc565b6001600f60008973ffffffffffffffffffffffffffffffffffffffff1673ffffffffffffffffffffffffffffffffffffffff168152602001908152602001600020876008811062002954576200295362004dbb565b5b01819055506000600f60008a73ffffffffffffffffffffffffffffffffffffffff1673ffffffffffffffffffffffffffffffffffffffff1681526020019081526020016000208760088110620029af57620029ae62004dbb565b5b0181905550869450505050505b9392505050565b620029ce82620015ee565b620029e381620029dd62002f88565b6200318a565b620029ef838362003317565b505050565b600460009054906101000a900460ff1681565b600062002a1362002f88565b73ffffffffffffffffffffffffffffffffffffffff1662002a3362001e40565b73ffffffffffffffffffffffffffffffffffffffff161462002a8c576040517f08c379a000000000000000000000000000000000000000000000000000000000815260040162002a839062004848565b60405180910390fd5b60005b825181101562002afe5762002ac183828151811062002ab35762002ab262004dbb565b5b602002602001015162001c16565b1562002ae85760016003600082825462002adc9190620049f4565b92505081905550600191505b808062002af59062004c76565b91505062002a8f565b50919050565b62002b0e62002f88565b73ffffffffffffffffffffffffffffffffffffffff1662002b2e62001e40565b73ffffffffffffffffffffffffffffffffffffffff161462002b87576040517f08c379a000000000000000000000000000000000000000000000000000000000815260040162002b7e9062004848565b60405180910390fd5b6001600960006101000a81548160ff021916908315150217905550565b600080600090506000601260009054906101000a900473ffffffffffffffffffffffffffffffffffffffff1673ffffffffffffffffffffffffffffffffffffffff166306575c896040518163ffffffff1660e01b815260040160206040518083038186803b15801562002c1657600080fd5b505afa15801562002c2b573d6000803e3d6000fd5b505050506040513d601f19601f8201168201806040525081019062002c519190620041b6565b905060005b81811162002cd957600f60003373ffffffffffffffffffffffffffffffffffffffff1673ffffffffffffffffffffffffffffffffffffffff168152602001908152602001600020816008811062002cb25762002cb162004dbb565b5b01548362002cc19190620049f4565b9250808062002cd09062004c76565b91505062002c56565b50819250505090565b62002cec62002f88565b73ffffffffffffffffffffffffffffffffffffffff1662002d0c62001e40565b73ffffffffffffffffffffffffffffffffffffffff161462002d65576040517f08c379a000000000000000000000000000000000000000000000000000000000815260040162002d5c9062004848565b60405180910390fd5b600073ffffffffffffffffffffffffffffffffffffffff168173ffffffffffffffffffffffffffffffffffffffff16141562002dd8576040517f08c379a000000000000000000000000000000000000000000000000000000000815260040162002dcf90620047c0565b60405180910390fd5b62002de381620033fe565b50565b600960019054906101000a900460ff161562002e39576040517f08c379a000000000000000000000000000000000000000000000000000000000815260040162002e309062004804565b60405180910390fd5b80601060003373ffffffffffffffffffffffffffffffffffffffff1673ffffffffffffffffffffffffffffffffffffffff168152602001908152602001600020908051906020019062002e8e929190620039ea565b5050565b62002e9c62003a3c565b600f60003373ffffffffffffffffffffffffffffffffffffffff1673ffffffffffffffffffffffffffffffffffffffff16815260200190815260200160002060088060200260405190810160405280929190826008801562002f14576020028201915b81548152602001906001019080831162002eff575b5050505050905090565b60007f01ffc9a7000000000000000000000000000000000000000000000000000000007bffffffffffffffffffffffffffffffffffffffffffffffffffffffff1916827bffffffffffffffffffffffffffffffffffffffffffffffffffffffff1916149050919050565b600033905090565b6200302a8160405160240162002fa791906200477a565b6040516020818303038152906040527f41304fac000000000000000000000000000000000000000000000000000000007bffffffffffffffffffffffffffffffffffffffffffffffffffffffff19166020820180517bffffffffffffffffffffffffffffffffffffffffffffffffffffffff8381831617835250505050620035de565b50565b620030c781604051602401620030449190620048ae565b6040516020818303038152906040527ff5b1bba9000000000000000000000000000000000000000000000000000000007bffffffffffffffffffffffffffffffffffffffffffffffffffffffff19166020820180517bffffffffffffffffffffffffffffffffffffffffffffffffffffffff8381831617835250505050620035de565b50565b6200316481604051602401620030e1919062004677565b6040516020818303038152906040527f2c2ecbc2000000000000000000000000000000000000000000000000000000007bffffffffffffffffffffffffffffffffffffffffffffffffffffffff19166020820180517bffffffffffffffffffffffffffffffffffffffffffffffffffffffff8381831617835250505050620035de565b50565b6000620031743062003607565b15905090565b62003186828262003232565b5050565b62003196828262001e69565b6200322e57620031be8173ffffffffffffffffffffffffffffffffffffffff1660146200362a565b620031ce8360001c60206200362a565b604051602001620031e1929190620045e3565b6040516020818303038152906040526040517f08c379a00000000000000000000000000000000000000000000000000000000081526004016200322591906200477a565b60405180910390fd5b5050565b6200323e828262001e69565b6200331357600180600084815260200190815260200160002060000160008373ffffffffffffffffffffffffffffffffffffffff1673ffffffffffffffffffffffffffffffffffffffff16815260200190815260200160002060006101000a81548160ff021916908315150217905550620032b862002f88565b73ffffffffffffffffffffffffffffffffffffffff168173ffffffffffffffffffffffffffffffffffffffff16837f2f8788117e7eff1d82e926ec794901d17c78024a50270940304540a733656f0d60405160405180910390a45b5050565b62003323828262001e69565b15620033fa5760006001600084815260200190815260200160002060000160008373ffffffffffffffffffffffffffffffffffffffff1673ffffffffffffffffffffffffffffffffffffffff16815260200190815260200160002060006101000a81548160ff0219169083151502179055506200339f62002f88565b73ffffffffffffffffffffffffffffffffffffffff168173ffffffffffffffffffffffffffffffffffffffff16837ff6391f5c32d9c69d2a47ea670b442974b53935d1edc7fd64eb21e047a839171b60405160405180910390a45b5050565b60008060029054906101000a900473ffffffffffffffffffffffffffffffffffffffff16905081600060026101000a81548173ffffffffffffffffffffffffffffffffffffffff021916908373ffffffffffffffffffffffffffffffffffffffff1602179055508173ffffffffffffffffffffffffffffffffffffffff168173ffffffffffffffffffffffffffffffffffffffff167f8be0079c531659141344cd1fd0a4f28419497f9722a3daafe3b4186f6b6457e060405160405180910390a35050565b6000811162003509576040517f08c379a00000000000000000000000000000000000000000000000000000000081526004016200350090620047e2565b60405180910390fd5b8173ffffffffffffffffffffffffffffffffffffffff166323b872dd3330846040518463ffffffff1660e01b8152600401620035489392919062004694565b602060405180830381600087803b1580156200356357600080fd5b505af115801562003578573d6000803e3d6000fd5b505050506040513d601f19601f820116820180604052508101906200359e919062003f72565b507f9e71bc8eea02a63969f509818f2dafb9254532904319f9dbda79b67bd34a5f3d3382604051620035d2929190620046d1565b60405180910390a15050565b60008151905060006a636f6e736f6c652e6c6f679050602083016000808483855afa5050505050565b6000808273ffffffffffffffffffffffffffffffffffffffff163b119050919050565b6060600060028360026200363f919062004a89565b6200364b9190620049f4565b67ffffffffffffffff81111562003667576200366662004dea565b5b6040519080825280601f01601f1916602001820160405280156200369a5781602001600182028036833780820191505090505b5090507f300000000000000000000000000000000000000000000000000000000000000081600081518110620036d557620036d462004dbb565b5b60200101907effffffffffffffffffffffffffffffffffffffffffffffffffffffffffffff1916908160001a9053507f7800000000000000000000000000000000000000000000000000000000000000816001815181106200373c576200373b62004dbb565b5b60200101907effffffffffffffffffffffffffffffffffffffffffffffffffffffffffffff1916908160001a905350600060018460026200377e919062004a89565b6200378a9190620049f4565b90505b600181111562003834577f3031323334353637383961626364656600000000000000000000000000000000600f861660108110620037d057620037cf62004dbb565b5b1a60f81b828281518110620037ea57620037e962004dbb565b5b60200101907effffffffffffffffffffffffffffffffffffffffffffffffffffffffffffff1916908160001a905350600485901c9450806200382c9062004bdb565b90506200378d565b50600084146200387b576040517f08c379a000000000000000000000000000000000000000000000000000000000815260040162003872906200479e565b60405180910390fd5b8091505092915050565b6040518060800160405280600490602082028036833780820191505090505090565b6040518060400160405280600290602082028036833780820191505090505090565b826002810192821562003938579160200282015b82811115620039375782518260006101000a81548173ffffffffffffffffffffffffffffffffffffffff021916908373ffffffffffffffffffffffffffffffffffffffff16021790555091602001919060010190620038dd565b5b50905062003947919062003a5f565b5090565b828054620039599062004c0a565b90600052602060002090601f0160209004810192826200397d5760008555620039c9565b82601f106200399857803560ff1916838001178555620039c9565b82800160010185558215620039c9579182015b82811115620039c8578235825591602001919060010190620039ab565b5b509050620039d8919062003a5f565b5090565b610f9f80620050e483390190565b82805482825590600052602060002090810192821562003a29579160200282015b8281111562003a2857825182559160200191906001019062003a0b565b5b50905062003a38919062003a5f565b5090565b604051806101000160405280600890602082028036833780820191505090505090565b5b8082111562003a7a57600081600090555060010162003a60565b5090565b600062003a9562003a8f84620048f4565b620048cb565b9050808382526020820190508285602086028201111562003abb5762003aba62004e28565b5b60005b8581101562003aef578162003ad4888262003bef565b84526020840193506020830192505060018101905062003abe565b5050509392505050565b600062003b1062003b0a8462004923565b620048cb565b9050808382526020820190508285602086028201111562003b365762003b3562004e28565b5b60005b8581101562003b6a578162003b4f888262003d7c565b84526020840193506020830192505060018101905062003b39565b5050509392505050565b600062003b8b62003b858462004923565b620048cb565b9050808382526020820190508285602086028201111562003bb15762003bb062004e28565b5b60005b8581101562003be5578162003bca888262003d93565b84526020840193506020830192505060018101905062003bb4565b5050509392505050565b60008135905062003c008162005061565b92915050565b600082601f83011262003c1e5762003c1d62004e1e565b5b813562003c3084826020860162003a7e565b91505092915050565b600082601f83011262003c515762003c5062004e1e565b5b813562003c6384826020860162003af9565b91505092915050565b600082601f83011262003c845762003c8362004e1e565b5b815162003c9684826020860162003b74565b91505092915050565b60008135905062003cb0816200507b565b92915050565b60008151905062003cc7816200507b565b92915050565b60008135905062003cde8162005095565b92915050565b60008135905062003cf581620050af565b92915050565b60008083601f84011262003d145762003d1362004e1e565b5b8235905067ffffffffffffffff81111562003d345762003d3362004e19565b5b60208301915083600182028301111562003d535762003d5262004e28565b5b9250929050565b60006020828403121562003d735762003d7262004e23565b5b81905092915050565b60008135905062003d8d81620050c9565b92915050565b60008151905062003da481620050c9565b92915050565b60006020828403121562003dc35762003dc262004e32565b5b600062003dd38482850162003bef565b91505092915050565b60008060006060848603121562003df85762003df762004e32565b5b600062003e088682870162003bef565b935050602062003e1b8682870162003bef565b925050604062003e2e8682870162003d7c565b9150509250925092565b6000806040838503121562003e525762003e5162004e32565b5b600062003e628582860162003bef565b925050602062003e758582860162003d7c565b9150509250929050565b60006020828403121562003e985762003e9762004e32565b5b600082013567ffffffffffffffff81111562003eb95762003eb862004e2d565b5b62003ec78482850162003c06565b91505092915050565b60006020828403121562003ee95762003ee862004e32565b5b600082013567ffffffffffffffff81111562003f0a5762003f0962004e2d565b5b62003f188482850162003c39565b91505092915050565b60006020828403121562003f3a5762003f3962004e32565b5b600082015167ffffffffffffffff81111562003f5b5762003f5a62004e2d565b5b62003f698482850162003c6c565b91505092915050565b60006020828403121562003f8b5762003f8a62004e32565b5b600062003f9b8482850162003cb6565b91505092915050565b60006020828403121562003fbd5762003fbc62004e32565b5b600062003fcd8482850162003ccd565b91505092915050565b6000806040838503121562003ff05762003fef62004e32565b5b6000620040008582860162003ccd565b9250506020620040138582860162003bef565b9150509250929050565b60006020828403121562004036576200403562004e32565b5b6000620040468482850162003ce4565b91505092915050565b6000806000806000806000806000806101208b8d03121562004076576200407562004e32565b5b60008b013567ffffffffffffffff81111562004097576200409662004e2d565b5b620040a58d828e0162003cfb565b9a509a50506020620040ba8d828e0162003d7c565b9850506040620040cd8d828e0162003d7c565b9750506060620040e08d828e0162003c9f565b9650506080620040f38d828e0162003bef565b95505060a0620041068d828e0162003bef565b94505060c0620041198d828e0162003bef565b93505060e06200412c8d828e0162003bef565b925050610100620041408d828e0162003bef565b9150509295989b9194979a5092959850565b6000602082840312156200416b576200416a62004e32565b5b60006200417b8482850162003d5a565b91505092915050565b6000602082840312156200419d576200419c62004e32565b5b6000620041ad8482850162003d7c565b91505092915050565b600060208284031215620041cf57620041ce62004e32565b5b6000620041df8482850162003d93565b91505092915050565b6000620041f68383620045a6565b60208301905092915050565b6200420d8162004b25565b82525050565b62004228620042228262004b25565b62004cc4565b82525050565b620042398162004981565b620042458184620049bc565b9250620042528262004952565b8060005b83811015620042895781516200426d8782620041e8565b96506200427a83620049a2565b92505060018101905062004256565b505050505050565b60006200429e826200498c565b620042aa8185620049c7565b9350620042b7836200495c565b8060005b83811015620042ee578151620042d28882620041e8565b9750620042df83620049af565b925050600181019050620042bb565b5085935050505092915050565b620043068162004b39565b82525050565b620043178162004b45565b82525050565b60006200432a8262004997565b620043368185620049d8565b93506200434881856020860162004ba5565b620043538162004e37565b840191505092915050565b60006200436b8262004997565b620043778185620049e9565b93506200438981856020860162004ba5565b80840191505092915050565b60008154620043a48162004c0a565b620043b08186620049e9565b94506001821660008114620043ce5760018114620043e05762004417565b60ff1983168652818601935062004417565b620043eb856200496c565b60005b838110156200440f57815481890152600182019150602081019050620043ee565b838801955050505b50505092915050565b60006200442f602083620049d8565b91506200443c8262004e55565b602082019050919050565b600062004456602683620049d8565b9150620044638262004e7e565b604082019050919050565b60006200447d600e83620049d8565b91506200448a8262004ecd565b602082019050919050565b6000620044a4601e83620049d8565b9150620044b18262004ef6565b602082019050919050565b6000620044cb602e83620049d8565b9150620044d88262004f1f565b604082019050919050565b6000620044f2602083620049d8565b9150620044ff8262004f6e565b602082019050919050565b600062004519601783620049e9565b9150620045268262004f97565b601782019050919050565b600062004540601783620049d8565b91506200454d8262004fc0565b602082019050919050565b600062004567601183620049e9565b9150620045748262004fe9565b601182019050919050565b60006200458e602f83620049d8565b91506200459b8262005012565b604082019050919050565b620045b18162004b9b565b82525050565b620045c28162004b9b565b82525050565b620045dd620045d78262004b9b565b62004cec565b82525050565b6000620045f0826200450a565b9150620045fe82856200435e565b91506200460b8262004558565b91506200461982846200435e565b91508190509392505050565b6000620046338287620045c8565b60208201915062004645828662004213565b601482019150620046578285620045c8565b60208201915062004669828462004395565b915081905095945050505050565b60006020820190506200468e600083018462004202565b92915050565b6000606082019050620046ab600083018662004202565b620046ba602083018562004202565b620046c96040830184620045b7565b949350505050565b6000604082019050620046e8600083018562004202565b620046f76020830184620045b7565b9392505050565b6000610100820190506200471660008301846200422e565b92915050565b6000602082019050818103600083015262004738818462004291565b905092915050565b6000602082019050620047576000830184620042fb565b92915050565b60006020820190506200477460008301846200430c565b92915050565b600060208201905081810360008301526200479681846200431d565b905092915050565b60006020820190508181036000830152620047b98162004420565b9050919050565b60006020820190508181036000830152620047db8162004447565b9050919050565b60006020820190508181036000830152620047fd816200446e565b9050919050565b600060208201905081810360008301526200481f8162004495565b9050919050565b600060208201905081810360008301526200484181620044bc565b9050919050565b600060208201905081810360008301526200486381620044e3565b9050919050565b60006020820190508181036000830152620048858162004531565b9050919050565b60006020820190508181036000830152620048a7816200457f565b9050919050565b6000602082019050620048c56000830184620045b7565b92915050565b6000620048d7620048ea565b9050620048e5828262004c40565b919050565b6000604051905090565b600067ffffffffffffffff82111562004912576200491162004dea565b5b602082029050602081019050919050565b600067ffffffffffffffff82111562004941576200494062004dea565b5b602082029050602081019050919050565b6000819050919050565b6000819050602082019050919050565b60008190508160005260206000209050919050565b600060089050919050565b600081519050919050565b600081519050919050565b6000602082019050919050565b6000602082019050919050565b600081905092915050565b600082825260208201905092915050565b600082825260208201905092915050565b600081905092915050565b600062004a018262004b9b565b915062004a0e8362004b9b565b9250827fffffffffffffffffffffffffffffffffffffffffffffffffffffffffffffffff0382111562004a465762004a4562004d2e565b5b828201905092915050565b600062004a5e8262004b9b565b915062004a6b8362004b9b565b92508262004a7e5762004a7d62004d5d565b5b828204905092915050565b600062004a968262004b9b565b915062004aa38362004b9b565b9250817fffffffffffffffffffffffffffffffffffffffffffffffffffffffffffffffff048311821515161562004adf5762004ade62004d2e565b5b828202905092915050565b600062004af78262004b9b565b915062004b048362004b9b565b92508282101562004b1a5762004b1962004d2e565b5b828203905092915050565b600062004b328262004b7b565b9050919050565b60008115159050919050565b6000819050919050565b60007fffffffff0000000000000000000000000000000000000000000000000000000082169050919050565b600073ffffffffffffffffffffffffffffffffffffffff82169050919050565b6000819050919050565b60005b8381101562004bc557808201518184015260208101905062004ba8565b8381111562004bd5576000848401525b50505050565b600062004be88262004b9b565b9150600082141562004bff5762004bfe62004d2e565b5b600182039050919050565b6000600282049050600182168062004c2357607f821691505b6020821081141562004c3a5762004c3962004d8c565b5b50919050565b62004c4b8262004e37565b810181811067ffffffffffffffff8211171562004c6d5762004c6c62004dea565b5b80604052505050565b600062004c838262004b9b565b91507fffffffffffffffffffffffffffffffffffffffffffffffffffffffffffffffff82141562004cb95762004cb862004d2e565b5b600182019050919050565b600062004cd18262004cd8565b9050919050565b600062004ce58262004e48565b9050919050565b6000819050919050565b600062004d038262004b9b565b915062004d108362004b9b565b92508262004d235762004d2262004d5d565b5b828206905092915050565b7f4e487b7100000000000000000000000000000000000000000000000000000000600052601160045260246000fd5b7f4e487b7100000000000000000000000000000000000000000000000000000000600052601260045260246000fd5b7f4e487b7100000000000000000000000000000000000000000000000000000000600052602260045260246000fd5b7f4e487b7100000000000000000000000000000000000000000000000000000000600052603260045260246000fd5b7f4e487b7100000000000000000000000000000000000000000000000000000000600052604160045260246000fd5b600080fd5b600080fd5b600080fd5b600080fd5b600080fd5b600080fd5b6000601f19601f8301169050919050565b60008160601b9050919050565b7f537472696e67733a20686578206c656e67746820696e73756666696369656e74600082015250565b7f4f776e61626c653a206e6577206f776e657220697320746865207a65726f206160008201527f6464726573730000000000000000000000000000000000000000000000000000602082015250565b7f43616e6e6f74207374616b652030000000000000000000000000000000000000600082015250565b7f6c696e657570206973206c6f636b656420666f7220746865207765656b210000600082015250565b7f496e697469616c697a61626c653a20636f6e747261637420697320616c72656160008201527f647920696e697469616c697a6564000000000000000000000000000000000000602082015250565b7f4f776e61626c653a2063616c6c6572206973206e6f7420746865206f776e6572600082015250565b7f416363657373436f6e74726f6c3a206163636f756e7420000000000000000000600082015250565b7f4c656167756520456e74727920697320436c6f73656421000000000000000000600082015250565b7f206973206d697373696e6720726f6c6520000000000000000000000000000000600082015250565b7f416363657373436f6e74726f6c3a2063616e206f6e6c792072656e6f756e636560008201527f20726f6c657320666f722073656c660000000000000000000000000000000000602082015250565b6200506c8162004b25565b81146200507857600080fd5b50565b620050868162004b39565b81146200509257600080fd5b50565b620050a08162004b45565b8114620050ac57600080fd5b50565b620050ba8162004b4f565b8114620050c657600080fd5b50565b620050d48162004b9b565b8114620050e057600080fd5b5056fe608060405234801561001057600080fd5b5061002d61002261003260201b60201c565b61003a60201b60201c565b6100fe565b600033905090565b60008060009054906101000a900473ffffffffffffffffffffffffffffffffffffffff169050816000806101000a81548173ffffffffffffffffffffffffffffffffffffffff021916908373ffffffffffffffffffffffffffffffffffffffff1602179055508173ffffffffffffffffffffffffffffffffffffffff168173ffffffffffffffffffffffffffffffffffffffff167f8be0079c531659141344cd1fd0a4f28419497f9722a3daafe3b4186f6b6457e060405160405180910390a35050565b610e928061010d6000396000f3fe608060405234801561001057600080fd5b50600436106100935760003560e01c80638da5cb5b116100665780638da5cb5b146101325780639b19251a14610150578063dc9a153514610180578063e2ec6ec31461019e578063f2fde38b146101ce57610093565b806324953eaa14610098578063286dd3f5146100c8578063715018a6146100f85780637b9417c814610102575b600080fd5b6100b260048036038101906100ad9190610a4a565b6101ea565b6040516100bf9190610b12565b60405180910390f35b6100e260048036038101906100dd9190610a1d565b6102d4565b6040516100ef9190610b12565b60405180910390f35b610100610457565b005b61011c60048036038101906101179190610a1d565b6104df565b6040516101299190610b12565b60405180910390f35b61013a610660565b6040516101479190610af7565b60405180910390f35b61016a60048036038101906101659190610a1d565b610689565b6040516101779190610b12565b60405180910390f35b6101886106a9565b6040516101959190610b12565b60405180910390f35b6101b860048036038101906101b39190610a4a565b6106bc565b6040516101c59190610b12565b60405180910390f35b6101e860048036038101906101e39190610a1d565b6107a6565b005b60006101f461089e565b73ffffffffffffffffffffffffffffffffffffffff16610212610660565b73ffffffffffffffffffffffffffffffffffffffff1614610268576040517f08c379a000000000000000000000000000000000000000000000000000000000815260040161025f90610b4d565b60405180910390fd5b60005b82518110156102ce5761029783828151811061028a57610289610d4a565b5b60200260200101516102d4565b156102bb576001600260008282546102af9190610c25565b92505081905550600191505b80806102c690610cd2565b91505061026b565b50919050565b60006102de61089e565b73ffffffffffffffffffffffffffffffffffffffff166102fc610660565b73ffffffffffffffffffffffffffffffffffffffff1614610352576040517f08c379a000000000000000000000000000000000000000000000000000000000815260040161034990610b4d565b60405180910390fd5b600160008373ffffffffffffffffffffffffffffffffffffffff1673ffffffffffffffffffffffffffffffffffffffff16815260200190815260200160002060009054906101000a900460ff1615610452576000600160008473ffffffffffffffffffffffffffffffffffffffff1673ffffffffffffffffffffffffffffffffffffffff16815260200190815260200160002060006101000a81548160ff0219169083151502179055507ff1abf01a1043b7c244d128e8595cf0c1d10743b022b03a02dffd8ca3bf729f5a8260405161042b9190610af7565b60405180910390a16001600260008282546104469190610c25565b92505081905550600190505b919050565b61045f61089e565b73ffffffffffffffffffffffffffffffffffffffff1661047d610660565b73ffffffffffffffffffffffffffffffffffffffff16146104d3576040517f08c379a00000000000000000000000000000000000000000000000000000000081526004016104ca90610b4d565b60405180910390fd5b6104dd60006108a6565b565b60006104e961089e565b73ffffffffffffffffffffffffffffffffffffffff16610507610660565b73ffffffffffffffffffffffffffffffffffffffff161461055d576040517f08c379a000000000000000000000000000000000000000000000000000000000815260040161055490610b4d565b60405180910390fd5b600160008373ffffffffffffffffffffffffffffffffffffffff1673ffffffffffffffffffffffffffffffffffffffff16815260200190815260200160002060009054906101000a900460ff1661065b5760018060008473ffffffffffffffffffffffffffffffffffffffff1673ffffffffffffffffffffffffffffffffffffffff16815260200190815260200160002060006101000a81548160ff0219169083151502179055507fd1bba68c128cc3f427e5831b3c6f99f480b6efa6b9e80c757768f6124158cc3f826040516106349190610af7565b60405180910390a160016002600082825461064f9190610bcf565b92505081905550600190505b919050565b60008060009054906101000a900473ffffffffffffffffffffffffffffffffffffffff16905090565b60016020528060005260406000206000915054906101000a900460ff1681565b600360009054906101000a900460ff1681565b60006106c661089e565b73ffffffffffffffffffffffffffffffffffffffff166106e4610660565b73ffffffffffffffffffffffffffffffffffffffff161461073a576040517f08c379a000000000000000000000000000000000000000000000000000000000815260040161073190610b4d565b60405180910390fd5b60005b82518110156107a05761076983828151811061075c5761075b610d4a565b5b60200260200101516104df565b1561078d576001600260008282546107819190610bcf565b92505081905550600191505b808061079890610cd2565b91505061073d565b50919050565b6107ae61089e565b73ffffffffffffffffffffffffffffffffffffffff166107cc610660565b73ffffffffffffffffffffffffffffffffffffffff1614610822576040517f08c379a000000000000000000000000000000000000000000000000000000000815260040161081990610b4d565b60405180910390fd5b600073ffffffffffffffffffffffffffffffffffffffff168173ffffffffffffffffffffffffffffffffffffffff161415610892576040517f08c379a000000000000000000000000000000000000000000000000000000000815260040161088990610b2d565b60405180910390fd5b61089b816108a6565b50565b600033905090565b60008060009054906101000a900473ffffffffffffffffffffffffffffffffffffffff169050816000806101000a81548173ffffffffffffffffffffffffffffffffffffffff021916908373ffffffffffffffffffffffffffffffffffffffff1602179055508173ffffffffffffffffffffffffffffffffffffffff168173ffffffffffffffffffffffffffffffffffffffff167f8be0079c531659141344cd1fd0a4f28419497f9722a3daafe3b4186f6b6457e060405160405180910390a35050565b600061097d61097884610b92565b610b6d565b905080838252602082019050828560208602820111156109a05761099f610dad565b5b60005b858110156109d057816109b688826109da565b8452602084019350602083019250506001810190506109a3565b5050509392505050565b6000813590506109e981610e45565b92915050565b600082601f830112610a0457610a03610da8565b5b8135610a1484826020860161096a565b91505092915050565b600060208284031215610a3357610a32610db7565b5b6000610a41848285016109da565b91505092915050565b600060208284031215610a6057610a5f610db7565b5b600082013567ffffffffffffffff811115610a7e57610a7d610db2565b5b610a8a848285016109ef565b91505092915050565b610a9c81610c59565b82525050565b610aab81610c6b565b82525050565b6000610abe602683610bbe565b9150610ac982610dcd565b604082019050919050565b6000610ae1602083610bbe565b9150610aec82610e1c565b602082019050919050565b6000602082019050610b0c6000830184610a93565b92915050565b6000602082019050610b276000830184610aa2565b92915050565b60006020820190508181036000830152610b4681610ab1565b9050919050565b60006020820190508181036000830152610b6681610ad4565b9050919050565b6000610b77610b88565b9050610b838282610ca1565b919050565b6000604051905090565b600067ffffffffffffffff821115610bad57610bac610d79565b5b602082029050602081019050919050565b600082825260208201905092915050565b6000610bda82610c97565b9150610be583610c97565b9250827fffffffffffffffffffffffffffffffffffffffffffffffffffffffffffffffff03821115610c1a57610c19610d1b565b5b828201905092915050565b6000610c3082610c97565b9150610c3b83610c97565b925082821015610c4e57610c4d610d1b565b5b828203905092915050565b6000610c6482610c77565b9050919050565b60008115159050919050565b600073ffffffffffffffffffffffffffffffffffffffff82169050919050565b6000819050919050565b610caa82610dbc565b810181811067ffffffffffffffff82111715610cc957610cc8610d79565b5b80604052505050565b6000610cdd82610c97565b91507fffffffffffffffffffffffffffffffffffffffffffffffffffffffffffffffff821415610d1057610d0f610d1b565b5b600182019050919050565b7f4e487b7100000000000000000000000000000000000000000000000000000000600052601160045260246000fd5b7f4e487b7100000000000000000000000000000000000000000000000000000000600052603260045260246000fd5b7f4e487b7100000000000000000000000000000000000000000000000000000000600052604160045260246000fd5b600080fd5b600080fd5b600080fd5b600080fd5b6000601f19601f8301169050919050565b7f4f776e61626c653a206e6577206f776e657220697320746865207a65726f206160008201527f6464726573730000000000000000000000000000000000000000000000000000602082015250565b7f4f776e61626c653a2063616c6c6572206973206e6f7420746865206f776e6572600082015250565b610e4e81610c59565b8114610e5957600080fd5b5056fea2646970667358221220070224275ad0b13d0a847fbeb4a423ae740dee42968a8d236c8eedaef3b3cc5764736f6c63430008070033a264697066735822122029fd32ba64b42fd4cad9002e2d78df94b469d521c4c6979b16c4d252a955895b64736f6c63430008070033",
  "linkReferences": {},
  "deployedLinkReferences": {}
}