{
  "_format": "hh-sol-artifact-1",
  "contractName": "LeagueOfLegendsLogic",
  "sourceName": "contracts/LeagueOfLegendsLogic.sol",
  "abi": [
    {
      "anonymous": false,
      "inputs": [
        {
          "indexed": true,
          "internalType": "address",
          "name": "previousOwner",
          "type": "address"
        },
        {
          "indexed": true,
          "internalType": "address",
          "name": "newOwner",
          "type": "address"
        }
      ],
      "name": "OwnershipTransferred",
      "type": "event"
    },
    {
      "anonymous": false,
      "inputs": [
        {
          "indexed": true,
          "internalType": "bytes32",
          "name": "role",
          "type": "bytes32"
        },
        {
          "indexed": true,
          "internalType": "bytes32",
          "name": "previousAdminRole",
          "type": "bytes32"
        },
        {
          "indexed": true,
          "internalType": "bytes32",
          "name": "newAdminRole",
          "type": "bytes32"
        }
      ],
      "name": "RoleAdminChanged",
      "type": "event"
    },
    {
      "anonymous": false,
      "inputs": [
        {
          "indexed": true,
          "internalType": "bytes32",
          "name": "role",
          "type": "bytes32"
        },
        {
          "indexed": true,
          "internalType": "address",
          "name": "account",
          "type": "address"
        },
        {
          "indexed": true,
          "internalType": "address",
          "name": "sender",
          "type": "address"
        }
      ],
      "name": "RoleGranted",
      "type": "event"
    },
    {
      "anonymous": false,
      "inputs": [
        {
          "indexed": true,
          "internalType": "bytes32",
          "name": "role",
          "type": "bytes32"
        },
        {
          "indexed": true,
          "internalType": "address",
          "name": "account",
          "type": "address"
        },
        {
          "indexed": true,
          "internalType": "address",
          "name": "sender",
          "type": "address"
        }
      ],
      "name": "RoleRevoked",
      "type": "event"
    },
    {
      "anonymous": false,
      "inputs": [
        {
          "indexed": false,
          "internalType": "address",
          "name": "sender",
          "type": "address"
        },
        {
          "indexed": false,
          "internalType": "uint256",
          "name": "amount",
          "type": "uint256"
        }
      ],
      "name": "Staked",
      "type": "event"
    },
    {
      "anonymous": false,
      "inputs": [
        {
          "indexed": false,
          "internalType": "address",
          "name": "addr",
          "type": "address"
        }
      ],
      "name": "WhitelistedAddressAdded",
      "type": "event"
    },
    {
      "anonymous": false,
      "inputs": [
        {
          "indexed": false,
          "internalType": "address",
          "name": "addr",
          "type": "address"
        }
      ],
      "name": "WhitelistedAddressRemoved",
      "type": "event"
    },
    {
      "inputs": [],
      "name": "DEFAULT_ADMIN_ROLE",
      "outputs": [
        {
          "internalType": "bytes32",
          "name": "",
          "type": "bytes32"
        }
      ],
      "stateMutability": "view",
      "type": "function"
    },
    {
      "inputs": [
        {
          "internalType": "address",
          "name": "addr",
          "type": "address"
        }
      ],
      "name": "addAddressToWhitelist",
      "outputs": [
        {
          "internalType": "bool",
          "name": "success",
          "type": "bool"
        }
      ],
      "stateMutability": "nonpayable",
      "type": "function"
    },
    {
      "inputs": [
        {
          "internalType": "address[]",
          "name": "addrs",
          "type": "address[]"
        }
      ],
      "name": "addAddressesToWhitelist",
      "outputs": [
        {
          "internalType": "bool",
          "name": "success",
          "type": "bool"
        }
      ],
      "stateMutability": "nonpayable",
      "type": "function"
    },
    {
      "inputs": [
        {
          "internalType": "address",
          "name": "user",
          "type": "address"
        }
      ],
      "name": "addUserToLeague",
      "outputs": [],
      "stateMutability": "nonpayable",
      "type": "function"
    },
    {
      "inputs": [],
      "name": "addUserToWhitelist",
      "outputs": [],
      "stateMutability": "nonpayable",
      "type": "function"
    },
    {
      "inputs": [],
      "name": "currentWeekNum",
      "outputs": [
        {
          "internalType": "uint256",
          "name": "",
          "type": "uint256"
        }
      ],
      "stateMutability": "view",
      "type": "function"
    },
    {
      "inputs": [
        {
          "internalType": "uint256",
          "name": "currentWeekNum",
          "type": "uint256"
        }
      ],
      "name": "evaluateWeek",
      "outputs": [],
      "stateMutability": "nonpayable",
      "type": "function"
    },
    {
      "inputs": [],
      "name": "getLeagueName",
      "outputs": [
        {
          "internalType": "string",
          "name": "",
          "type": "string"
        }
      ],
      "stateMutability": "view",
      "type": "function"
    },
    {
      "inputs": [],
      "name": "getLineup",
      "outputs": [
        {
          "internalType": "uint256[]",
          "name": "",
          "type": "uint256[]"
        }
      ],
      "stateMutability": "view",
      "type": "function"
    },
    {
      "inputs": [
        {
          "internalType": "bytes32",
          "name": "role",
          "type": "bytes32"
        }
      ],
      "name": "getRoleAdmin",
      "outputs": [
        {
          "internalType": "bytes32",
          "name": "",
          "type": "bytes32"
        }
      ],
      "stateMutability": "view",
      "type": "function"
    },
    {
      "inputs": [],
      "name": "getStakeAmount",
      "outputs": [
        {
          "internalType": "uint256",
          "name": "stakeAmount",
          "type": "uint256"
        }
      ],
      "stateMutability": "pure",
      "type": "function"
    },
    {
      "inputs": [],
      "name": "getTotalPrizePot",
      "outputs": [
        {
          "internalType": "uint256",
          "name": "",
          "type": "uint256"
        }
      ],
      "stateMutability": "view",
      "type": "function"
    },
    {
      "inputs": [],
      "name": "getUSDCBalance",
      "outputs": [
        {
          "internalType": "uint256",
          "name": "",
          "type": "uint256"
        }
      ],
      "stateMutability": "view",
      "type": "function"
    },
    {
      "inputs": [],
      "name": "getUserRecord",
      "outputs": [
        {
          "internalType": "uint256[8]",
          "name": "",
          "type": "uint256[8]"
        }
      ],
      "stateMutability": "view",
      "type": "function"
    },
    {
      "inputs": [],
      "name": "getUserUSDCBalance",
      "outputs": [
        {
          "internalType": "uint256",
          "name": "",
          "type": "uint256"
        }
      ],
      "stateMutability": "view",
      "type": "function"
    },
    {
      "inputs": [],
      "name": "getUserWeeklypts",
      "outputs": [
        {
          "internalType": "uint256[8]",
          "name": "",
          "type": "uint256[8]"
        }
      ],
      "stateMutability": "view",
      "type": "function"
    },
    {
      "inputs": [],
      "name": "getUsersLength",
      "outputs": [
        {
          "internalType": "uint256",
          "name": "",
          "type": "uint256"
        }
      ],
      "stateMutability": "view",
      "type": "function"
    },
    {
      "inputs": [
        {
          "internalType": "bytes32",
          "name": "role",
          "type": "bytes32"
        },
        {
          "internalType": "address",
          "name": "account",
          "type": "address"
        }
      ],
      "name": "grantRole",
      "outputs": [],
      "stateMutability": "nonpayable",
      "type": "function"
    },
    {
      "inputs": [
        {
          "internalType": "bytes32",
          "name": "role",
          "type": "bytes32"
        },
        {
          "internalType": "address",
          "name": "account",
          "type": "address"
        }
      ],
      "name": "hasRole",
      "outputs": [
        {
          "internalType": "bool",
          "name": "",
          "type": "bool"
        }
      ],
      "stateMutability": "view",
      "type": "function"
    },
    {
      "inputs": [],
      "name": "incrementVersion",
      "outputs": [],
      "stateMutability": "nonpayable",
      "type": "function"
    },
    {
      "inputs": [
        {
          "internalType": "string",
          "name": "_name",
          "type": "string"
        },
        {
          "internalType": "uint256",
          "name": "_version",
          "type": "uint256"
        },
        {
          "internalType": "uint256",
          "name": "_stakeAmount",
          "type": "uint256"
        },
        {
          "internalType": "bool",
          "name": "_isPublic",
          "type": "bool"
        },
        {
          "internalType": "address",
          "name": "athletesDataStorageAddress",
          "type": "address"
        },
        {
          "internalType": "address",
          "name": "_admin",
          "type": "address"
        },
        {
          "internalType": "address",
          "name": "_polygonUSDCAddress",
          "type": "address"
        },
        {
          "internalType": "address",
          "name": "_rinkebyUSDCAddress",
          "type": "address"
        },
        {
          "internalType": "address",
          "name": "leagueMakerContractAddress",
          "type": "address"
        },
        {
          "internalType": "address",
          "name": "_testUSDCAddress",
          "type": "address"
        }
      ],
      "name": "initialize",
      "outputs": [],
      "stateMutability": "nonpayable",
      "type": "function"
    },
    {
      "inputs": [],
      "name": "isPublic",
      "outputs": [
        {
          "internalType": "bool",
          "name": "",
          "type": "bool"
        }
      ],
      "stateMutability": "view",
      "type": "function"
    },
    {
      "inputs": [],
      "name": "joinLeague",
      "outputs": [],
      "stateMutability": "nonpayable",
      "type": "function"
    },
    {
      "inputs": [
        {
          "internalType": "uint256",
          "name": "",
          "type": "uint256"
        }
      ],
      "name": "leagueMembers",
      "outputs": [
        {
          "internalType": "address",
          "name": "",
          "type": "address"
        }
      ],
      "stateMutability": "view",
      "type": "function"
    },
    {
      "inputs": [],
      "name": "leagueName",
      "outputs": [
        {
          "internalType": "string",
          "name": "",
          "type": "string"
        }
      ],
      "stateMutability": "view",
      "type": "function"
    },
    {
      "inputs": [],
      "name": "lockLineup",
      "outputs": [],
      "stateMutability": "nonpayable",
      "type": "function"
    },
    {
      "inputs": [],
      "name": "numWeeks",
      "outputs": [
        {
          "internalType": "uint256",
          "name": "",
          "type": "uint256"
        }
      ],
      "stateMutability": "view",
      "type": "function"
    },
    {
      "inputs": [],
      "name": "owner",
      "outputs": [
        {
          "internalType": "address",
          "name": "",
          "type": "address"
        }
      ],
      "stateMutability": "view",
      "type": "function"
    },
    {
      "inputs": [],
      "name": "polygonUSDCAddress",
      "outputs": [
        {
          "internalType": "address",
          "name": "",
          "type": "address"
        }
      ],
      "stateMutability": "view",
      "type": "function"
    },
    {
      "inputs": [
        {
          "internalType": "address",
          "name": "addr",
          "type": "address"
        }
      ],
      "name": "removeAddressFromWhitelist",
      "outputs": [
        {
          "internalType": "bool",
          "name": "success",
          "type": "bool"
        }
      ],
      "stateMutability": "nonpayable",
      "type": "function"
    },
    {
      "inputs": [
        {
          "internalType": "address[]",
          "name": "addrs",
          "type": "address[]"
        }
      ],
      "name": "removeAddressesFromWhitelist",
      "outputs": [
        {
          "internalType": "bool",
          "name": "success",
          "type": "bool"
        }
      ],
      "stateMutability": "nonpayable",
      "type": "function"
    },
    {
      "inputs": [],
      "name": "renounceOwnership",
      "outputs": [],
      "stateMutability": "nonpayable",
      "type": "function"
    },
    {
      "inputs": [
        {
          "internalType": "bytes32",
          "name": "role",
          "type": "bytes32"
        },
        {
          "internalType": "address",
          "name": "account",
          "type": "address"
        }
      ],
      "name": "renounceRole",
      "outputs": [],
      "stateMutability": "nonpayable",
      "type": "function"
    },
    {
      "inputs": [
        {
          "internalType": "bytes32",
          "name": "role",
          "type": "bytes32"
        },
        {
          "internalType": "address",
          "name": "account",
          "type": "address"
        }
      ],
      "name": "revokeRole",
      "outputs": [],
      "stateMutability": "nonpayable",
      "type": "function"
    },
    {
      "inputs": [],
      "name": "rinkebyUSDCAddress",
      "outputs": [
        {
          "internalType": "address",
          "name": "",
          "type": "address"
        }
      ],
      "stateMutability": "view",
      "type": "function"
    },
    {
      "inputs": [],
      "name": "setLeagueEntryIsClosed",
      "outputs": [],
      "stateMutability": "nonpayable",
      "type": "function"
    },
    {
      "inputs": [],
      "name": "setLeagueSchedule",
      "outputs": [],
      "stateMutability": "nonpayable",
      "type": "function"
    },
    {
      "inputs": [
        {
          "internalType": "uint256[]",
          "name": "athleteIds",
          "type": "uint256[]"
        }
      ],
      "name": "setLineup",
      "outputs": [],
      "stateMutability": "nonpayable",
      "type": "function"
    },
    {
      "inputs": [],
      "name": "stakeAmount",
      "outputs": [
        {
          "internalType": "uint256",
          "name": "",
          "type": "uint256"
        }
      ],
      "stateMutability": "view",
      "type": "function"
    },
    {
      "inputs": [
        {
          "internalType": "bytes4",
          "name": "interfaceId",
          "type": "bytes4"
        }
      ],
      "name": "supportsInterface",
      "outputs": [
        {
          "internalType": "bool",
          "name": "",
          "type": "bool"
        }
      ],
      "stateMutability": "view",
      "type": "function"
    },
    {
      "inputs": [
        {
          "internalType": "address",
          "name": "newOwner",
          "type": "address"
        }
      ],
      "name": "transferOwnership",
      "outputs": [],
      "stateMutability": "nonpayable",
      "type": "function"
    },
    {
      "inputs": [],
      "name": "unlockLineup",
      "outputs": [],
      "stateMutability": "nonpayable",
      "type": "function"
    },
    {
      "inputs": [
        {
          "internalType": "address",
          "name": "",
          "type": "address"
        },
        {
          "internalType": "uint256",
          "name": "",
          "type": "uint256"
        }
      ],
      "name": "userToRecord",
      "outputs": [
        {
          "internalType": "uint256",
          "name": "",
          "type": "uint256"
        }
      ],
      "stateMutability": "view",
      "type": "function"
    },
    {
      "inputs": [],
      "name": "version",
      "outputs": [
        {
          "internalType": "uint256",
          "name": "",
          "type": "uint256"
        }
      ],
      "stateMutability": "view",
      "type": "function"
    },
    {
      "inputs": [
        {
          "internalType": "address",
          "name": "",
          "type": "address"
        }
      ],
      "name": "whitelist",
      "outputs": [
        {
          "internalType": "bool",
          "name": "",
          "type": "bool"
        }
      ],
      "stateMutability": "view",
      "type": "function"
    }
  ],
  "bytecode": "0x60806040523480156200001157600080fd5b5062000032620000266200003860201b60201c565b6200004060201b60201c565b62000105565b600033905090565b60008060029054906101000a900473ffffffffffffffffffffffffffffffffffffffff16905081600060026101000a81548173ffffffffffffffffffffffffffffffffffffffff021916908373ffffffffffffffffffffffffffffffffffffffff1602179055508173ffffffffffffffffffffffffffffffffffffffff168173ffffffffffffffffffffffffffffffffffffffff167f8be0079c531659141344cd1fd0a4f28419497f9722a3daafe3b4186f6b6457e060405160405180910390a35050565b614ed180620001156000396000f3fe60806040523480156200001157600080fd5b5060043610620002bb5760003560e01c8063722580b6116200017d578063a217fddf11620000e1578063dc9a15351162000093578063dc9a153514620007fc578063e2ec6ec3146200081e578063e4c9066b1462000854578063f2fde38b1462000860578063f612121a1462000880578063f881604514620008a057620002bb565b8063a217fddf1462000774578063a2bc091a1462000796578063ada3a28d14620007a2578063c8be3b5b14620007c4578063c99fea9414620007d0578063d547741f14620007dc57620002bb565b80638da5cb5b116200013b5780638da5cb5b146200068257806391d1485414620006a457806393f3706c14620006da57806399a6003414620006fc5780639b19251a146200071e5780639f2d5481146200075457620002bb565b8063722580b614620005da5780637ac6aa1d14620005fc5780637b9417c814620006085780637eed33f1146200063e578063841abf6e146200066057620002bb565b806336568abe1162000225578063595b1a3e11620001e3578063595b1a3e14620005265780635d514d6914620005485780635fcc6987146200056857806360c7dc47146200058a5780636fd71a1814620005ac578063715018a614620005ce57620002bb565b806336568abe146200047e5780633cfd1ccc146200049e578063403570c514620004c057806352e6e5f314620004e257806354fd4d50146200050457620002bb565b8063248a9ca3116200027f578063248a9ca3146200037a57806324953eaa14620003b0578063267175db14620003e6578063286dd3f5146200041c5780632cf0a1fc14620004525780632f2ff15d146200045e57620002bb565b8062b2476f14620002c057806301ffc9a714620002e25780630655465a1462000318578063087e18a714620003245780630c6f79591462000344575b600080fd5b620002ca620008c2565b604051620002d9919062003531565b60405180910390f35b620003006004803603810190620002fa919062002f81565b620008e8565b6040516200030f9190620035fa565b60405180910390f35b6200032262000965565b005b6200034260048036038101906200033c919062002dbb565b62000a1d565b005b6200036260048036038101906200035c919062002ded565b62000ba1565b6040516200037191906200379a565b60405180910390f35b62000398600480360381019062000392919062002f08565b62000bca565b604051620003a7919062003617565b60405180910390f35b620003ce6004803603810190620003c8919062002e34565b62000bea565b604051620003dd9190620035fa565b60405180910390f35b620004046004803603810190620003fe9190620030cd565b62000ce7565b60405162000413919062003531565b60405180910390f35b6200043a600480360381019062000434919062002dbb565b62000d27565b604051620004499190620035fa565b60405180910390f35b6200045c62000eb6565b005b6200047c600480360381019062000476919062002f3a565b62000ed4565b005b6200049c600480360381019062000496919062002f3a565b62000f05565b005b620004a862000f8f565b604051620004b791906200379a565b60405180910390f35b620004ca62001047565b604051620004d9919062003688565b60405180910390f35b620004ec620010e1565b604051620004fb91906200379a565b60405180910390f35b6200050e620010e7565b6040516200051d91906200379a565b60405180910390f35b62000530620010ed565b6040516200053f91906200379a565b60405180910390f35b62000566600480360381019062000560919062002fb3565b620010fa565b005b62000572620014cf565b6040516200058191906200379a565b60405180910390f35b6200059462001587565b604051620005a391906200379a565b60405180910390f35b620005b66200158d565b604051620005c59190620035b8565b60405180910390f35b620005d862001619565b005b620005e4620016aa565b604051620005f391906200379a565b60405180910390f35b62000606620016af565b005b62000626600480360381019062000620919062002dbb565b62001722565b604051620006359190620035fa565b60405180910390f35b62000648620018b0565b6040516200065791906200379a565b60405180910390f35b6200066a620018b6565b60405162000679919062003688565b60405180910390f35b6200068c6200194c565b6040516200069b919062003531565b60405180910390f35b620006c26004803603810190620006bc919062002f3a565b62001975565b604051620006d19190620035fa565b60405180910390f35b620006e4620019e0565b604051620006f3919062003531565b60405180910390f35b6200070662001a06565b6040516200071591906200379a565b60405180910390f35b6200073c600480360381019062000736919062002dbb565b62001a22565b6040516200074b9190620035fa565b60405180910390f35b6200077260048036038101906200076c9190620030cd565b62001a42565b005b6200077e62001b01565b6040516200078d919062003617565b60405180910390f35b620007a062001b08565b005b620007ac62001ba8565b604051620007bb9190620035d6565b60405180910390f35b620007ce62001c3f565b005b620007da62001cdf565b005b620007fa6004803603810190620007f4919062002f3a565b62001efd565b005b6200080662001f2e565b604051620008159190620035fa565b60405180910390f35b6200083c600480360381019062000836919062002e34565b62001f41565b6040516200084b9190620035fa565b60405180910390f35b6200085e6200203e565b005b6200087e600480360381019062000878919062002dbb565b620020de565b005b6200089e600480360381019062000898919062002e85565b620021e2565b005b620008aa6200228e565b604051620008b99190620035b8565b60405180910390f35b601260009054906101000a900473ffffffffffffffffffffffffffffffffffffffff1681565b60007f7965db0b000000000000000000000000000000000000000000000000000000007bffffffffffffffffffffffffffffffffffffffffffffffffffffffff1916827bffffffffffffffffffffffffffffffffffffffffffffffffffffffff191614806200095e57506200095d826200231a565b5b9050919050565b620009a56040518060400160405280601081526020017f73657474696e67207363686564756c650000000000000000000000000000000081525062002384565b73__$36fdb4e0c2cb91f3ceca5ea81b025328f3$__63d2c232b56010600960075460066040518563ffffffff1660e01b8152600401620009e9949392919062003634565b60006040518083038186803b15801562000a0257600080fd5b505af415801562000a17573d6000803e3d6000fd5b50505050565b600d60009054906101000a900460ff161562000a70576040517f08c379a000000000000000000000000000000000000000000000000000000000815260040162000a679062003756565b60405180910390fd5b6008600980549050101562000b79576009819080600181540180825580915050600190039060005260206000200160009091909190916101000a81548173ffffffffffffffffffffffffffffffffffffffff021916908373ffffffffffffffffffffffffffffffffffffffff160217905550601560009054906101000a900473ffffffffffffffffffffffffffffffffffffffff1673ffffffffffffffffffffffffffffffffffffffff1663771bd4ce826040518263ffffffff1660e01b815260040162000b3f919062003531565b600060405180830381600087803b15801562000b5a57600080fd5b505af115801562000b6f573d6000803e3d6000fd5b5050505062000b9e565b62000b9d60405180606001604052806028815260200162004e746028913962002384565b5b50565b600c602052816000526040600020816008811062000bbe57600080fd5b01600091509150505481565b600060016000838152602001908152602001600020600101549050919050565b600062000bf662002421565b73ffffffffffffffffffffffffffffffffffffffff1662000c166200194c565b73ffffffffffffffffffffffffffffffffffffffff161462000c6f576040517f08c379a000000000000000000000000000000000000000000000000000000000815260040162000c669062003734565b60405180910390fd5b60005b825181101562000ce15762000ca483828151811062000c965762000c9562003be7565b5b602002602001015162000d27565b1562000ccb5760016003600082825462000cbf9190620039af565b92505081905550600191505b808062000cd89062003b3b565b91505062000c72565b50919050565b6009818154811062000cf857600080fd5b906000526020600020016000915054906101000a900473ffffffffffffffffffffffffffffffffffffffff1681565b600062000d3362002421565b73ffffffffffffffffffffffffffffffffffffffff1662000d536200194c565b73ffffffffffffffffffffffffffffffffffffffff161462000dac576040517f08c379a000000000000000000000000000000000000000000000000000000000815260040162000da39062003734565b60405180910390fd5b600260008373ffffffffffffffffffffffffffffffffffffffff1673ffffffffffffffffffffffffffffffffffffffff16815260200190815260200160002060009054906101000a900460ff161562000eb1576000600260008473ffffffffffffffffffffffffffffffffffffffff1673ffffffffffffffffffffffffffffffffffffffff16815260200190815260200160002060006101000a81548160ff0219169083151502179055507ff1abf01a1043b7c244d128e8595cf0c1d10743b022b03a02dffd8ca3bf729f5a8260405162000e88919062003531565b60405180910390a160016003600082825462000ea59190620039af565b92505081905550600190505b919050565b60016005600082825462000ecb9190620038f1565b92505081905550565b62000edf8262000bca565b62000ef48162000eee62002421565b62002429565b62000f008383620024d1565b505050565b62000f0f62002421565b73ffffffffffffffffffffffffffffffffffffffff168173ffffffffffffffffffffffffffffffffffffffff161462000f7f576040517f08c379a000000000000000000000000000000000000000000000000000000000815260040162000f769062003778565b60405180910390fd5b62000f8b8282620025b6565b5050565b6000601660009054906101000a900473ffffffffffffffffffffffffffffffffffffffff1673ffffffffffffffffffffffffffffffffffffffff166370a08231306040518263ffffffff1660e01b815260040162000fee919062003531565b60206040518083038186803b1580156200100757600080fd5b505afa1580156200101c573d6000803e3d6000fd5b505050506040513d601f19601f82011682018060405250810190620010429190620030ff565b905090565b606060068054620010589062003acf565b80601f0160208091040260200160405190810160405280929190818152602001828054620010869062003acf565b8015620010d75780601f10620010ab57610100808354040283529160200191620010d7565b820191906000526020600020905b815481529060010190602001808311620010b957829003601f168201915b5050505050905090565b60085481565b60055481565b6000600980549050905090565b600060019054906101000a900460ff16620011245760008054906101000a900460ff16156200112f565b6200112e6200269d565b5b62001171576040517f08c379a0000000000000000000000000000000000000000000000000000000008152600401620011689062003712565b60405180910390fd5b60008060019054906101000a900460ff161590508015620011c2576001600060016101000a81548160ff02191690831515021790555060016000806101000a81548160ff0219169083151502179055505b896005819055508b8b60069190620011dc92919062002a2c565b506008600781905550620011f46000801b87620026b0565b6009869080600181540180825580915050600190039060005260206000200160009091909190916101000a81548173ffffffffffffffffffffffffffffffffffffffff021916908373ffffffffffffffffffffffffffffffffffffffff16021790555088600f8190555087600460006101000a81548160ff0219169083151502179055506000600d60016101000a81548160ff0219169083151502179055506000600d60006101000a81548160ff02191690831515021790555086601360006101000a81548173ffffffffffffffffffffffffffffffffffffffff021916908373ffffffffffffffffffffffffffffffffffffffff16021790555082601560006101000a81548173ffffffffffffffffffffffffffffffffffffffff021916908373ffffffffffffffffffffffffffffffffffffffff1602179055506040516200133e9062002abd565b604051809103906000f0801580156200135b573d6000803e3d6000fd5b50601460006101000a81548173ffffffffffffffffffffffffffffffffffffffff021916908373ffffffffffffffffffffffffffffffffffffffff16021790555084601160006101000a81548173ffffffffffffffffffffffffffffffffffffffff021916908373ffffffffffffffffffffffffffffffffffffffff16021790555083601260006101000a81548173ffffffffffffffffffffffffffffffffffffffff021916908373ffffffffffffffffffffffffffffffffffffffff16021790555081601660006101000a81548173ffffffffffffffffffffffffffffffffffffffff021916908373ffffffffffffffffffffffffffffffffffffffff1602179055506200149f6040518060400160405280601281526020017f50726f787920696e697469616c697a656421000000000000000000000000000081525062002384565b8015620014c15760008060016101000a81548160ff0219169083151502179055505b505050505050505050505050565b6000601660009054906101000a900473ffffffffffffffffffffffffffffffffffffffff1673ffffffffffffffffffffffffffffffffffffffff166370a08231336040518263ffffffff1660e01b81526004016200152e919062003531565b60206040518083038186803b1580156200154757600080fd5b505afa1580156200155c573d6000803e3d6000fd5b505050506040513d601f19601f82011682018060405250810190620015829190620030ff565b905090565b600f5481565b6200159762002acb565b600c60003373ffffffffffffffffffffffffffffffffffffffff1673ffffffffffffffffffffffffffffffffffffffff1681526020019081526020016000206008806020026040519081016040528092919082600880156200160f576020028201915b815481526020019060010190808311620015fa575b5050505050905090565b6200162362002421565b73ffffffffffffffffffffffffffffffffffffffff16620016436200194c565b73ffffffffffffffffffffffffffffffffffffffff16146200169c576040517f08c379a0000000000000000000000000000000000000000000000000000000008152600401620016939062003734565b60405180910390fd5b620016a86000620026c0565b565b600090565b620016be6000801b3362001975565b620016c857600080fd5b6001600260003373ffffffffffffffffffffffffffffffffffffffff1673ffffffffffffffffffffffffffffffffffffffff16815260200190815260200160002060006101000a81548160ff021916908315150217905550565b60006200172e62002421565b73ffffffffffffffffffffffffffffffffffffffff166200174e6200194c565b73ffffffffffffffffffffffffffffffffffffffff1614620017a7576040517f08c379a00000000000000000000000000000000000000000000000000000000081526004016200179e9062003734565b60405180910390fd5b600260008373ffffffffffffffffffffffffffffffffffffffff1673ffffffffffffffffffffffffffffffffffffffff16815260200190815260200160002060009054906101000a900460ff16620018ab576001600260008473ffffffffffffffffffffffffffffffffffffffff1673ffffffffffffffffffffffffffffffffffffffff16815260200190815260200160002060006101000a81548160ff0219169083151502179055507fd1bba68c128cc3f427e5831b3c6f99f480b6efa6b9e80c757768f6124158cc3f8260405162001882919062003531565b60405180910390a16001600360008282546200189f9190620038f1565b92505081905550600190505b919050565b60075481565b60068054620018c59062003acf565b80601f0160208091040260200160405190810160405280929190818152602001828054620018f39062003acf565b8015620019445780601f10620019185761010080835404028352916020019162001944565b820191906000526020600020905b8154815290600101906020018083116200192657829003601f168201915b505050505081565b60008060029054906101000a900473ffffffffffffffffffffffffffffffffffffffff16905090565b60006001600084815260200190815260200160002060000160008373ffffffffffffffffffffffffffffffffffffffff1673ffffffffffffffffffffffffffffffffffffffff16815260200190815260200160002060009054906101000a900460ff16905092915050565b601160009054906101000a900473ffffffffffffffffffffffffffffffffffffffff1681565b6000600980549050600f5462001a1d91906200394e565b905090565b60026020528060005260406000206000915054906101000a900460ff1681565b62001a4c62002421565b73ffffffffffffffffffffffffffffffffffffffff1662001a6c6200194c565b73ffffffffffffffffffffffffffffffffffffffff161462001ac5576040517f08c379a000000000000000000000000000000000000000000000000000000000815260040162001abc9062003734565b60405180910390fd5b60005b601060008381526020019081526020016000208054905081101562001afd57808062001af49062003b3b565b91505062001ac8565b5050565b6000801b81565b62001b1262002421565b73ffffffffffffffffffffffffffffffffffffffff1662001b326200194c565b73ffffffffffffffffffffffffffffffffffffffff161462001b8b576040517f08c379a000000000000000000000000000000000000000000000000000000000815260040162001b829062003734565b60405180910390fd5b6000600d60016101000a81548160ff021916908315150217905550565b6060600e60003373ffffffffffffffffffffffffffffffffffffffff1673ffffffffffffffffffffffffffffffffffffffff16815260200190815260200160002080548060200260200160405190810160405280929190818152602001828054801562001c3557602002820191906000526020600020905b81548152602001906001019080831162001c20575b5050505050905090565b62001c4962002421565b73ffffffffffffffffffffffffffffffffffffffff1662001c696200194c565b73ffffffffffffffffffffffffffffffffffffffff161462001cc2576040517f08c379a000000000000000000000000000000000000000000000000000000000815260040162001cb99062003734565b60405180910390fd5b6001600d60016101000a81548160ff021916908315150217905550565b600260003373ffffffffffffffffffffffffffffffffffffffff1673ffffffffffffffffffffffffffffffffffffffff16815260200190815260200160002060009054906101000a900460ff168062001d445750600460009054906101000a900460ff165b62001d4e57600080fd5b600d60009054906101000a900460ff161562001da1576040517f08c379a000000000000000000000000000000000000000000000000000000000815260040162001d989062003756565b60405180910390fd5b6009339080600181540180825580915050600190039060005260206000200160009091909190916101000a81548173ffffffffffffffffffffffffffffffffffffffff021916908373ffffffffffffffffffffffffffffffffffffffff160217905550601660009054906101000a900473ffffffffffffffffffffffffffffffffffffffff1673ffffffffffffffffffffffffffffffffffffffff166323b872dd3330600f546040518463ffffffff1660e01b815260040162001e67939291906200354e565b602060405180830381600087803b15801562001e8257600080fd5b505af115801562001e97573d6000803e3d6000fd5b505050506040513d601f19601f8201168201806040525081019062001ebd919062002ed6565b507f9e71bc8eea02a63969f509818f2dafb9254532904319f9dbda79b67bd34a5f3d33600f5460405162001ef39291906200358b565b60405180910390a1565b62001f088262000bca565b62001f1d8162001f1762002421565b62002429565b62001f298383620025b6565b505050565b600460009054906101000a900460ff1681565b600062001f4d62002421565b73ffffffffffffffffffffffffffffffffffffffff1662001f6d6200194c565b73ffffffffffffffffffffffffffffffffffffffff161462001fc6576040517f08c379a000000000000000000000000000000000000000000000000000000000815260040162001fbd9062003734565b60405180910390fd5b60005b8251811015620020385762001ffb83828151811062001fed5762001fec62003be7565b5b602002602001015162001722565b156200202257600160036000828254620020169190620038f1565b92505081905550600191505b80806200202f9062003b3b565b91505062001fc9565b50919050565b6200204862002421565b73ffffffffffffffffffffffffffffffffffffffff16620020686200194c565b73ffffffffffffffffffffffffffffffffffffffff1614620020c1576040517f08c379a0000000000000000000000000000000000000000000000000000000008152600401620020b89062003734565b60405180910390fd5b6001600d60006101000a81548160ff021916908315150217905550565b620020e862002421565b73ffffffffffffffffffffffffffffffffffffffff16620021086200194c565b73ffffffffffffffffffffffffffffffffffffffff161462002161576040517f08c379a0000000000000000000000000000000000000000000000000000000008152600401620021589062003734565b60405180910390fd5b600073ffffffffffffffffffffffffffffffffffffffff168173ffffffffffffffffffffffffffffffffffffffff161415620021d4576040517f08c379a0000000000000000000000000000000000000000000000000000000008152600401620021cb90620036ce565b60405180910390fd5b620021df81620026c0565b50565b600d60019054906101000a900460ff161562002235576040517f08c379a00000000000000000000000000000000000000000000000000000000081526004016200222c90620036f0565b60405180910390fd5b80600e60003373ffffffffffffffffffffffffffffffffffffffff1673ffffffffffffffffffffffffffffffffffffffff16815260200190815260200160002090805190602001906200228a92919062002aee565b5050565b6200229862002acb565b600c60003373ffffffffffffffffffffffffffffffffffffffff1673ffffffffffffffffffffffffffffffffffffffff16815260200190815260200160002060088060200260405190810160405280929190826008801562002310576020028201915b815481526020019060010190808311620022fb575b5050505050905090565b60007f01ffc9a7000000000000000000000000000000000000000000000000000000007bffffffffffffffffffffffffffffffffffffffffffffffffffffffff1916827bffffffffffffffffffffffffffffffffffffffffffffffffffffffff1916149050919050565b6200241e816040516024016200239b919062003688565b6040516020818303038152906040527f41304fac000000000000000000000000000000000000000000000000000000007bffffffffffffffffffffffffffffffffffffffffffffffffffffffff19166020820180517bffffffffffffffffffffffffffffffffffffffffffffffffffffffff838183161783525050505062002785565b50565b600033905090565b62002435828262001975565b620024cd576200245d8173ffffffffffffffffffffffffffffffffffffffff166014620027ae565b6200246d8360001c6020620027ae565b60405160200162002480929190620034ef565b6040516020818303038152906040526040517f08c379a0000000000000000000000000000000000000000000000000000000008152600401620024c4919062003688565b60405180910390fd5b5050565b620024dd828262001975565b620025b257600180600084815260200190815260200160002060000160008373ffffffffffffffffffffffffffffffffffffffff1673ffffffffffffffffffffffffffffffffffffffff16815260200190815260200160002060006101000a81548160ff0219169083151502179055506200255762002421565b73ffffffffffffffffffffffffffffffffffffffff168173ffffffffffffffffffffffffffffffffffffffff16837f2f8788117e7eff1d82e926ec794901d17c78024a50270940304540a733656f0d60405160405180910390a45b5050565b620025c2828262001975565b15620026995760006001600084815260200190815260200160002060000160008373ffffffffffffffffffffffffffffffffffffffff1673ffffffffffffffffffffffffffffffffffffffff16815260200190815260200160002060006101000a81548160ff0219169083151502179055506200263e62002421565b73ffffffffffffffffffffffffffffffffffffffff168173ffffffffffffffffffffffffffffffffffffffff16837ff6391f5c32d9c69d2a47ea670b442974b53935d1edc7fd64eb21e047a839171b60405160405180910390a45b5050565b6000620026aa3062002a09565b15905090565b620026bc8282620024d1565b5050565b60008060029054906101000a900473ffffffffffffffffffffffffffffffffffffffff16905081600060026101000a81548173ffffffffffffffffffffffffffffffffffffffff021916908373ffffffffffffffffffffffffffffffffffffffff1602179055508173ffffffffffffffffffffffffffffffffffffffff168173ffffffffffffffffffffffffffffffffffffffff167f8be0079c531659141344cd1fd0a4f28419497f9722a3daafe3b4186f6b6457e060405160405180910390a35050565b60008151905060006a636f6e736f6c652e6c6f679050602083016000808483855afa5050505050565b606060006002836002620027c391906200394e565b620027cf9190620038f1565b67ffffffffffffffff811115620027eb57620027ea62003c16565b5b6040519080825280601f01601f1916602001820160405280156200281e5781602001600182028036833780820191505090505b5090507f30000000000000000000000000000000000000000000000000000000000000008160008151811062002859576200285862003be7565b5b60200101907effffffffffffffffffffffffffffffffffffffffffffffffffffffffffffff1916908160001a9053507f780000000000000000000000000000000000000000000000000000000000000081600181518110620028c057620028bf62003be7565b5b60200101907effffffffffffffffffffffffffffffffffffffffffffffffffffffffffffff1916908160001a905350600060018460026200290291906200394e565b6200290e9190620038f1565b90505b6001811115620029b8577f3031323334353637383961626364656600000000000000000000000000000000600f86166010811062002954576200295362003be7565b5b1a60f81b8282815181106200296e576200296d62003be7565b5b60200101907effffffffffffffffffffffffffffffffffffffffffffffffffffffffffffff1916908160001a905350600485901c945080620029b09062003aa0565b905062002911565b5060008414620029ff576040517f08c379a0000000000000000000000000000000000000000000000000000000008152600401620029f690620036ac565b60405180910390fd5b8091505092915050565b6000808273ffffffffffffffffffffffffffffffffffffffff163b119050919050565b82805462002a3a9062003acf565b90600052602060002090601f01602090048101928262002a5e576000855562002aaa565b82601f1062002a7957803560ff191683800117855562002aaa565b8280016001018555821562002aaa579182015b8281111562002aa957823582559160200191906001019062002a8c565b5b50905062002ab9919062002b40565b5090565b610f9f8062003ed583390190565b604051806101000160405280600890602082028036833780820191505090505090565b82805482825590600052602060002090810192821562002b2d579160200282015b8281111562002b2c57825182559160200191906001019062002b0f565b5b50905062002b3c919062002b40565b5090565b5b8082111562002b5b57600081600090555060010162002b41565b5090565b600062002b7662002b7084620037e0565b620037b7565b9050808382526020820190508285602086028201111562002b9c5762002b9b62003c4f565b5b60005b8581101562002bd0578162002bb5888262002c55565b84526020840193506020830192505060018101905062002b9f565b5050509392505050565b600062002bf162002beb846200380f565b620037b7565b9050808382526020820190508285602086028201111562002c175762002c1662003c4f565b5b60005b8581101562002c4b578162002c30888262002d8d565b84526020840193506020830192505060018101905062002c1a565b5050509392505050565b60008135905062002c668162003e52565b92915050565b600082601f83011262002c845762002c8362003c4a565b5b813562002c9684826020860162002b5f565b91505092915050565b600082601f83011262002cb75762002cb662003c4a565b5b813562002cc984826020860162002bda565b91505092915050565b60008135905062002ce38162003e6c565b92915050565b60008151905062002cfa8162003e6c565b92915050565b60008135905062002d118162003e86565b92915050565b60008135905062002d288162003ea0565b92915050565b60008083601f84011262002d475762002d4662003c4a565b5b8235905067ffffffffffffffff81111562002d675762002d6662003c45565b5b60208301915083600182028301111562002d865762002d8562003c4f565b5b9250929050565b60008135905062002d9e8162003eba565b92915050565b60008151905062002db58162003eba565b92915050565b60006020828403121562002dd45762002dd362003c59565b5b600062002de48482850162002c55565b91505092915050565b6000806040838503121562002e075762002e0662003c59565b5b600062002e178582860162002c55565b925050602062002e2a8582860162002d8d565b9150509250929050565b60006020828403121562002e4d5762002e4c62003c59565b5b600082013567ffffffffffffffff81111562002e6e5762002e6d62003c54565b5b62002e7c8482850162002c6c565b91505092915050565b60006020828403121562002e9e5762002e9d62003c59565b5b600082013567ffffffffffffffff81111562002ebf5762002ebe62003c54565b5b62002ecd8482850162002c9f565b91505092915050565b60006020828403121562002eef5762002eee62003c59565b5b600062002eff8482850162002ce9565b91505092915050565b60006020828403121562002f215762002f2062003c59565b5b600062002f318482850162002d00565b91505092915050565b6000806040838503121562002f545762002f5362003c59565b5b600062002f648582860162002d00565b925050602062002f778582860162002c55565b9150509250929050565b60006020828403121562002f9a5762002f9962003c59565b5b600062002faa8482850162002d17565b91505092915050565b60008060008060008060008060008060006101408c8e03121562002fdc5762002fdb62003c59565b5b60008c013567ffffffffffffffff81111562002ffd5762002ffc62003c54565b5b6200300b8e828f0162002d2e565b9b509b50506020620030208e828f0162002d8d565b9950506040620030338e828f0162002d8d565b9850506060620030468e828f0162002cd2565b9750506080620030598e828f0162002c55565b96505060a06200306c8e828f0162002c55565b95505060c06200307f8e828f0162002c55565b94505060e0620030928e828f0162002c55565b935050610100620030a68e828f0162002c55565b925050610120620030ba8e828f0162002c55565b9150509295989b509295989b9093969950565b600060208284031215620030e657620030e562003c59565b5b6000620030f68482850162002d8d565b91505092915050565b60006020828403121562003118576200311762003c59565b5b6000620031288482850162002da4565b91505092915050565b60006200313f8383620034bc565b60208301905092915050565b6200315681620039ea565b82525050565b8082525050565b6200316e816200386d565b6200317a8184620038a8565b925062003187826200383e565b8060005b83811015620031be578151620031a2878262003131565b9650620031af836200388e565b9250506001810190506200318b565b505050505050565b6000620031d38262003878565b620031df8185620038b3565b9350620031ec8362003848565b8060005b838110156200322357815162003207888262003131565b975062003214836200389b565b925050600181019050620031f0565b5085935050505092915050565b6200323b81620039fe565b82525050565b6200324c8162003a0a565b82525050565b8082525050565b6000620032668262003883565b620032728185620038c4565b93506200328481856020860162003a6a565b6200328f8162003c5e565b840191505092915050565b6000620032a78262003883565b620032b38185620038e6565b9350620032c581856020860162003a6a565b80840191505092915050565b60008154620032e08162003acf565b620032ec8186620038d5565b945060018216600081146200330a57600181146200331d5762003354565b60ff198316865260208601935062003354565b620033288562003858565b60005b838110156200334c578154818901526001820191506020810190506200332b565b808801955050505b50505092915050565b60006200336c602083620038c4565b9150620033798262003c6f565b602082019050919050565b600062003393602683620038c4565b9150620033a08262003c98565b604082019050919050565b6000620033ba601e83620038c4565b9150620033c78262003ce7565b602082019050919050565b6000620033e1602e83620038c4565b9150620033ee8262003d10565b604082019050919050565b600062003408602083620038c4565b9150620034158262003d5f565b602082019050919050565b60006200342f601783620038e6565b91506200343c8262003d88565b601782019050919050565b600062003456601783620038c4565b9150620034638262003db1565b602082019050919050565b60006200347d601183620038e6565b91506200348a8262003dda565b601182019050919050565b6000620034a4602f83620038c4565b9150620034b18262003e03565b604082019050919050565b620034c78162003a60565b82525050565b620034d88162003a60565b82525050565b620034e98162003a60565b82525050565b6000620034fc8262003420565b91506200350a82856200329a565b915062003517826200346e565b91506200352582846200329a565b91508190509392505050565b60006020820190506200354860008301846200314b565b92915050565b60006060820190506200356560008301866200314b565b6200357460208301856200314b565b620035836040830184620034cd565b949350505050565b6000604082019050620035a260008301856200314b565b620035b16020830184620034cd565b9392505050565b600061010082019050620035d0600083018462003163565b92915050565b60006020820190508181036000830152620035f28184620031c6565b905092915050565b600060208201905062003611600083018462003230565b92915050565b60006020820190506200362e600083018462003241565b92915050565b60006080820190506200364b600083018762003252565b6200365a60208301866200315c565b620036696040830185620034de565b81810360608301526200367d8184620032d1565b905095945050505050565b60006020820190508181036000830152620036a4818462003259565b905092915050565b60006020820190508181036000830152620036c7816200335d565b9050919050565b60006020820190508181036000830152620036e98162003384565b9050919050565b600060208201905081810360008301526200370b81620033ab565b9050919050565b600060208201905081810360008301526200372d81620033d2565b9050919050565b600060208201905081810360008301526200374f81620033f9565b9050919050565b60006020820190508181036000830152620037718162003447565b9050919050565b60006020820190508181036000830152620037938162003495565b9050919050565b6000602082019050620037b16000830184620034cd565b92915050565b6000620037c3620037d6565b9050620037d1828262003b05565b919050565b6000604051905090565b600067ffffffffffffffff821115620037fe57620037fd62003c16565b5b602082029050602081019050919050565b600067ffffffffffffffff8211156200382d576200382c62003c16565b5b602082029050602081019050919050565b6000819050919050565b6000819050602082019050919050565b60008190508160005260206000209050919050565b600060089050919050565b600081519050919050565b600081519050919050565b6000602082019050919050565b6000602082019050919050565b600081905092915050565b600082825260208201905092915050565b600082825260208201905092915050565b600082825260208201905092915050565b600081905092915050565b6000620038fe8262003a60565b91506200390b8362003a60565b9250827fffffffffffffffffffffffffffffffffffffffffffffffffffffffffffffffff0382111562003943576200394262003b89565b5b828201905092915050565b60006200395b8262003a60565b9150620039688362003a60565b9250817fffffffffffffffffffffffffffffffffffffffffffffffffffffffffffffffff0483118215151615620039a457620039a362003b89565b5b828202905092915050565b6000620039bc8262003a60565b9150620039c98362003a60565b925082821015620039df57620039de62003b89565b5b828203905092915050565b6000620039f78262003a40565b9050919050565b60008115159050919050565b6000819050919050565b60007fffffffff0000000000000000000000000000000000000000000000000000000082169050919050565b600073ffffffffffffffffffffffffffffffffffffffff82169050919050565b6000819050919050565b60005b8381101562003a8a57808201518184015260208101905062003a6d565b8381111562003a9a576000848401525b50505050565b600062003aad8262003a60565b9150600082141562003ac45762003ac362003b89565b5b600182039050919050565b6000600282049050600182168062003ae857607f821691505b6020821081141562003aff5762003afe62003bb8565b5b50919050565b62003b108262003c5e565b810181811067ffffffffffffffff8211171562003b325762003b3162003c16565b5b80604052505050565b600062003b488262003a60565b91507fffffffffffffffffffffffffffffffffffffffffffffffffffffffffffffffff82141562003b7e5762003b7d62003b89565b5b600182019050919050565b7f4e487b7100000000000000000000000000000000000000000000000000000000600052601160045260246000fd5b7f4e487b7100000000000000000000000000000000000000000000000000000000600052602260045260246000fd5b7f4e487b7100000000000000000000000000000000000000000000000000000000600052603260045260246000fd5b7f4e487b7100000000000000000000000000000000000000000000000000000000600052604160045260246000fd5b600080fd5b600080fd5b600080fd5b600080fd5b600080fd5b6000601f19601f8301169050919050565b7f537472696e67733a20686578206c656e67746820696e73756666696369656e74600082015250565b7f4f776e61626c653a206e6577206f776e657220697320746865207a65726f206160008201527f6464726573730000000000000000000000000000000000000000000000000000602082015250565b7f6c696e657570206973206c6f636b656420666f7220746865207765656b210000600082015250565b7f496e697469616c697a61626c653a20636f6e747261637420697320616c72656160008201527f647920696e697469616c697a6564000000000000000000000000000000000000602082015250565b7f4f776e61626c653a2063616c6c6572206973206e6f7420746865206f776e6572600082015250565b7f416363657373436f6e74726f6c3a206163636f756e7420000000000000000000600082015250565b7f4c656167756520456e74727920697320436c6f73656421000000000000000000600082015250565b7f206973206d697373696e6720726f6c6520000000000000000000000000000000600082015250565b7f416363657373436f6e74726f6c3a2063616e206f6e6c792072656e6f756e636560008201527f20726f6c657320666f722073656c660000000000000000000000000000000000602082015250565b62003e5d81620039ea565b811462003e6957600080fd5b50565b62003e7781620039fe565b811462003e8357600080fd5b50565b62003e918162003a0a565b811462003e9d57600080fd5b50565b62003eab8162003a14565b811462003eb757600080fd5b50565b62003ec58162003a60565b811462003ed157600080fd5b5056fe608060405234801561001057600080fd5b5061002d61002261003260201b60201c565b61003a60201b60201c565b6100fe565b600033905090565b60008060009054906101000a900473ffffffffffffffffffffffffffffffffffffffff169050816000806101000a81548173ffffffffffffffffffffffffffffffffffffffff021916908373ffffffffffffffffffffffffffffffffffffffff1602179055508173ffffffffffffffffffffffffffffffffffffffff168173ffffffffffffffffffffffffffffffffffffffff167f8be0079c531659141344cd1fd0a4f28419497f9722a3daafe3b4186f6b6457e060405160405180910390a35050565b610e928061010d6000396000f3fe608060405234801561001057600080fd5b50600436106100935760003560e01c80638da5cb5b116100665780638da5cb5b146101325780639b19251a14610150578063dc9a153514610180578063e2ec6ec31461019e578063f2fde38b146101ce57610093565b806324953eaa14610098578063286dd3f5146100c8578063715018a6146100f85780637b9417c814610102575b600080fd5b6100b260048036038101906100ad9190610a4a565b6101ea565b6040516100bf9190610b12565b60405180910390f35b6100e260048036038101906100dd9190610a1d565b6102d4565b6040516100ef9190610b12565b60405180910390f35b610100610457565b005b61011c60048036038101906101179190610a1d565b6104df565b6040516101299190610b12565b60405180910390f35b61013a610660565b6040516101479190610af7565b60405180910390f35b61016a60048036038101906101659190610a1d565b610689565b6040516101779190610b12565b60405180910390f35b6101886106a9565b6040516101959190610b12565b60405180910390f35b6101b860048036038101906101b39190610a4a565b6106bc565b6040516101c59190610b12565b60405180910390f35b6101e860048036038101906101e39190610a1d565b6107a6565b005b60006101f461089e565b73ffffffffffffffffffffffffffffffffffffffff16610212610660565b73ffffffffffffffffffffffffffffffffffffffff1614610268576040517f08c379a000000000000000000000000000000000000000000000000000000000815260040161025f90610b4d565b60405180910390fd5b60005b82518110156102ce5761029783828151811061028a57610289610d4a565b5b60200260200101516102d4565b156102bb576001600260008282546102af9190610c25565b92505081905550600191505b80806102c690610cd2565b91505061026b565b50919050565b60006102de61089e565b73ffffffffffffffffffffffffffffffffffffffff166102fc610660565b73ffffffffffffffffffffffffffffffffffffffff1614610352576040517f08c379a000000000000000000000000000000000000000000000000000000000815260040161034990610b4d565b60405180910390fd5b600160008373ffffffffffffffffffffffffffffffffffffffff1673ffffffffffffffffffffffffffffffffffffffff16815260200190815260200160002060009054906101000a900460ff1615610452576000600160008473ffffffffffffffffffffffffffffffffffffffff1673ffffffffffffffffffffffffffffffffffffffff16815260200190815260200160002060006101000a81548160ff0219169083151502179055507ff1abf01a1043b7c244d128e8595cf0c1d10743b022b03a02dffd8ca3bf729f5a8260405161042b9190610af7565b60405180910390a16001600260008282546104469190610c25565b92505081905550600190505b919050565b61045f61089e565b73ffffffffffffffffffffffffffffffffffffffff1661047d610660565b73ffffffffffffffffffffffffffffffffffffffff16146104d3576040517f08c379a00000000000000000000000000000000000000000000000000000000081526004016104ca90610b4d565b60405180910390fd5b6104dd60006108a6565b565b60006104e961089e565b73ffffffffffffffffffffffffffffffffffffffff16610507610660565b73ffffffffffffffffffffffffffffffffffffffff161461055d576040517f08c379a000000000000000000000000000000000000000000000000000000000815260040161055490610b4d565b60405180910390fd5b600160008373ffffffffffffffffffffffffffffffffffffffff1673ffffffffffffffffffffffffffffffffffffffff16815260200190815260200160002060009054906101000a900460ff1661065b5760018060008473ffffffffffffffffffffffffffffffffffffffff1673ffffffffffffffffffffffffffffffffffffffff16815260200190815260200160002060006101000a81548160ff0219169083151502179055507fd1bba68c128cc3f427e5831b3c6f99f480b6efa6b9e80c757768f6124158cc3f826040516106349190610af7565b60405180910390a160016002600082825461064f9190610bcf565b92505081905550600190505b919050565b60008060009054906101000a900473ffffffffffffffffffffffffffffffffffffffff16905090565b60016020528060005260406000206000915054906101000a900460ff1681565b600360009054906101000a900460ff1681565b60006106c661089e565b73ffffffffffffffffffffffffffffffffffffffff166106e4610660565b73ffffffffffffffffffffffffffffffffffffffff161461073a576040517f08c379a000000000000000000000000000000000000000000000000000000000815260040161073190610b4d565b60405180910390fd5b60005b82518110156107a05761076983828151811061075c5761075b610d4a565b5b60200260200101516104df565b1561078d576001600260008282546107819190610bcf565b92505081905550600191505b808061079890610cd2565b91505061073d565b50919050565b6107ae61089e565b73ffffffffffffffffffffffffffffffffffffffff166107cc610660565b73ffffffffffffffffffffffffffffffffffffffff1614610822576040517f08c379a000000000000000000000000000000000000000000000000000000000815260040161081990610b4d565b60405180910390fd5b600073ffffffffffffffffffffffffffffffffffffffff168173ffffffffffffffffffffffffffffffffffffffff161415610892576040517f08c379a000000000000000000000000000000000000000000000000000000000815260040161088990610b2d565b60405180910390fd5b61089b816108a6565b50565b600033905090565b60008060009054906101000a900473ffffffffffffffffffffffffffffffffffffffff169050816000806101000a81548173ffffffffffffffffffffffffffffffffffffffff021916908373ffffffffffffffffffffffffffffffffffffffff1602179055508173ffffffffffffffffffffffffffffffffffffffff168173ffffffffffffffffffffffffffffffffffffffff167f8be0079c531659141344cd1fd0a4f28419497f9722a3daafe3b4186f6b6457e060405160405180910390a35050565b600061097d61097884610b92565b610b6d565b905080838252602082019050828560208602820111156109a05761099f610dad565b5b60005b858110156109d057816109b688826109da565b8452602084019350602083019250506001810190506109a3565b5050509392505050565b6000813590506109e981610e45565b92915050565b600082601f830112610a0457610a03610da8565b5b8135610a1484826020860161096a565b91505092915050565b600060208284031215610a3357610a32610db7565b5b6000610a41848285016109da565b91505092915050565b600060208284031215610a6057610a5f610db7565b5b600082013567ffffffffffffffff811115610a7e57610a7d610db2565b5b610a8a848285016109ef565b91505092915050565b610a9c81610c59565b82525050565b610aab81610c6b565b82525050565b6000610abe602683610bbe565b9150610ac982610dcd565b604082019050919050565b6000610ae1602083610bbe565b9150610aec82610e1c565b602082019050919050565b6000602082019050610b0c6000830184610a93565b92915050565b6000602082019050610b276000830184610aa2565b92915050565b60006020820190508181036000830152610b4681610ab1565b9050919050565b60006020820190508181036000830152610b6681610ad4565b9050919050565b6000610b77610b88565b9050610b838282610ca1565b919050565b6000604051905090565b600067ffffffffffffffff821115610bad57610bac610d79565b5b602082029050602081019050919050565b600082825260208201905092915050565b6000610bda82610c97565b9150610be583610c97565b9250827fffffffffffffffffffffffffffffffffffffffffffffffffffffffffffffffff03821115610c1a57610c19610d1b565b5b828201905092915050565b6000610c3082610c97565b9150610c3b83610c97565b925082821015610c4e57610c4d610d1b565b5b828203905092915050565b6000610c6482610c77565b9050919050565b60008115159050919050565b600073ffffffffffffffffffffffffffffffffffffffff82169050919050565b6000819050919050565b610caa82610dbc565b810181811067ffffffffffffffff82111715610cc957610cc8610d79565b5b80604052505050565b6000610cdd82610c97565b91507fffffffffffffffffffffffffffffffffffffffffffffffffffffffffffffffff821415610d1057610d0f610d1b565b5b600182019050919050565b7f4e487b7100000000000000000000000000000000000000000000000000000000600052601160045260246000fd5b7f4e487b7100000000000000000000000000000000000000000000000000000000600052603260045260246000fd5b7f4e487b7100000000000000000000000000000000000000000000000000000000600052604160045260246000fd5b600080fd5b600080fd5b600080fd5b600080fd5b6000601f19601f8301169050919050565b7f4f776e61626c653a206e6577206f776e657220697320746865207a65726f206160008201527f6464726573730000000000000000000000000000000000000000000000000000602082015250565b7f4f776e61626c653a2063616c6c6572206973206e6f7420746865206f776e6572600082015250565b610e4e81610c59565b8114610e5957600080fd5b5056fea2646970667358221220a21085165a95bba102b3fe59880e17f3027964706b8a63561e6b8ccd43ba90fb64736f6c63430008070033746f6f206d616e7920757365727320696e206c656167756520746f20616464206e65772075736572a2646970667358221220001f79006a5f71c26aa25454fbc48e84129d127061d5db22e63e82061767ed1264736f6c63430008070033",
  "linkReferences": {
    "contracts/MOBALogicLibrary.sol": {
      "MOBALogicLibrary": [
        {
          "length": 20,
          "start": 2748
        }
      ]
    }
  },
  "deployedLinkReferences": {
    "contracts/MOBALogicLibrary.sol": {
      "MOBALogicLibrary": [
        {
          "length": 20,
          "start": 2471
        }
      ]
    }
  }
}