{
  "_format": "hh-sol-artifact-1",
  "contractName": "LeagueOfLegendsLogic",
  "sourceName": "contracts/LeagueOfLegendsLogic.sol",
  "abi": [
    {
      "anonymous": false,
      "inputs": [
        {
          "indexed": true,
          "internalType": "address",
          "name": "previousOwner",
          "type": "address"
        },
        {
          "indexed": true,
          "internalType": "address",
          "name": "newOwner",
          "type": "address"
        }
      ],
      "name": "OwnershipTransferred",
      "type": "event"
    },
    {
      "anonymous": false,
      "inputs": [
        {
          "indexed": false,
          "internalType": "address",
          "name": "sender",
          "type": "address"
        },
        {
          "indexed": false,
          "internalType": "uint256",
          "name": "amount",
          "type": "uint256"
        }
      ],
      "name": "Staked",
      "type": "event"
    },
    {
      "anonymous": false,
      "inputs": [
        {
          "indexed": false,
          "internalType": "address",
          "name": "addr",
          "type": "address"
        }
      ],
      "name": "WhitelistedAddressAdded",
      "type": "event"
    },
    {
      "anonymous": false,
      "inputs": [
        {
          "indexed": false,
          "internalType": "address",
          "name": "addr",
          "type": "address"
        }
      ],
      "name": "WhitelistedAddressRemoved",
      "type": "event"
    },
    {
      "anonymous": false,
      "inputs": [
        {
          "indexed": false,
          "internalType": "address[]",
          "name": "winner",
          "type": "address[]"
        },
        {
          "indexed": false,
          "internalType": "uint256",
          "name": "prizePotPerWinner",
          "type": "uint256"
        }
      ],
      "name": "leagueEnded",
      "type": "event"
    },
    {
      "anonymous": false,
      "inputs": [
        {
          "indexed": false,
          "internalType": "address",
          "name": "sender",
          "type": "address"
        },
        {
          "indexed": false,
          "internalType": "address",
          "name": "contractAddress",
          "type": "address"
        }
      ],
      "name": "testUSDCDeployed",
      "type": "event"
    },
    {
      "inputs": [
        {
          "internalType": "address",
          "name": "addr",
          "type": "address"
        }
      ],
      "name": "addAddressToWhitelist",
      "outputs": [
        {
          "internalType": "bool",
          "name": "success",
          "type": "bool"
        }
      ],
      "stateMutability": "nonpayable",
      "type": "function"
    },
    {
      "inputs": [
        {
          "internalType": "address[]",
          "name": "addrs",
          "type": "address[]"
        }
      ],
      "name": "addAddressesToWhitelist",
      "outputs": [
        {
          "internalType": "bool",
          "name": "success",
          "type": "bool"
        }
      ],
      "stateMutability": "nonpayable",
      "type": "function"
    },
    {
      "inputs": [
        {
          "internalType": "address",
          "name": "_userToAdd",
          "type": "address"
        }
      ],
      "name": "addUserToWhitelist",
      "outputs": [],
      "stateMutability": "nonpayable",
      "type": "function"
    },
    {
      "inputs": [],
      "name": "admin",
      "outputs": [
        {
          "internalType": "address",
          "name": "",
          "type": "address"
        }
      ],
      "stateMutability": "view",
      "type": "function"
    },
    {
      "inputs": [],
      "name": "currentWeekNum",
      "outputs": [
        {
          "internalType": "uint256",
          "name": "",
          "type": "uint256"
        }
      ],
      "stateMutability": "view",
      "type": "function"
    },
    {
      "inputs": [],
      "name": "evaluateMatches",
      "outputs": [],
      "stateMutability": "nonpayable",
      "type": "function"
    },
    {
      "inputs": [],
      "name": "getContractUSDCBalance",
      "outputs": [
        {
          "internalType": "uint256",
          "name": "",
          "type": "uint256"
        }
      ],
      "stateMutability": "view",
      "type": "function"
    },
    {
      "inputs": [
        {
          "internalType": "uint256",
          "name": "index",
          "type": "uint256"
        }
      ],
      "name": "getLeagueMember",
      "outputs": [
        {
          "internalType": "address",
          "name": "",
          "type": "address"
        }
      ],
      "stateMutability": "view",
      "type": "function"
    },
    {
      "inputs": [
        {
          "internalType": "address",
          "name": "_user",
          "type": "address"
        }
      ],
      "name": "getLineup",
      "outputs": [
        {
          "internalType": "uint256[]",
          "name": "",
          "type": "uint256[]"
        }
      ],
      "stateMutability": "view",
      "type": "function"
    },
    {
      "inputs": [],
      "name": "getLineupIsLocked",
      "outputs": [
        {
          "internalType": "bool",
          "name": "",
          "type": "bool"
        }
      ],
      "stateMutability": "view",
      "type": "function"
    },
    {
      "inputs": [],
      "name": "getNumWhitelisted",
      "outputs": [
        {
          "internalType": "uint256",
          "name": "",
          "type": "uint256"
        }
      ],
      "stateMutability": "view",
      "type": "function"
    },
    {
      "inputs": [
        {
          "internalType": "uint256",
          "name": "_week",
          "type": "uint256"
        }
      ],
      "name": "getScheduleForWeek",
      "outputs": [
        {
          "components": [
            {
              "internalType": "address[2]",
              "name": "players",
              "type": "address[2]"
            }
          ],
          "internalType": "struct LeagueOfLegendsLogic.Matchup[]",
          "name": "",
          "type": "tuple[]"
        }
      ],
      "stateMutability": "view",
      "type": "function"
    },
    {
      "inputs": [
        {
          "internalType": "address",
          "name": "_user",
          "type": "address"
        }
      ],
      "name": "getUserIsWhitelisted",
      "outputs": [
        {
          "internalType": "bool",
          "name": "",
          "type": "bool"
        }
      ],
      "stateMutability": "view",
      "type": "function"
    },
    {
      "inputs": [],
      "name": "getUserRecord",
      "outputs": [
        {
          "internalType": "uint256[]",
          "name": "",
          "type": "uint256[]"
        }
      ],
      "stateMutability": "view",
      "type": "function"
    },
    {
      "inputs": [
        {
          "internalType": "address",
          "name": "",
          "type": "address"
        }
      ],
      "name": "inLeague",
      "outputs": [
        {
          "internalType": "bool",
          "name": "",
          "type": "bool"
        }
      ],
      "stateMutability": "view",
      "type": "function"
    },
    {
      "inputs": [
        {
          "internalType": "string",
          "name": "_name",
          "type": "string"
        },
        {
          "internalType": "uint256",
          "name": "_stakeAmount",
          "type": "uint256"
        },
        {
          "internalType": "bool",
          "name": "_isPublic",
          "type": "bool"
        },
        {
          "internalType": "address",
          "name": "athletesDataStorageAddress",
          "type": "address"
        },
        {
          "internalType": "address",
          "name": "_admin",
          "type": "address"
        },
        {
          "internalType": "address",
          "name": "_rinkebyUSDCAddress",
          "type": "address"
        },
        {
          "internalType": "address",
          "name": "_testUSDCAddress",
          "type": "address"
        },
        {
          "internalType": "address",
          "name": "_gameItemsContractAddress",
          "type": "address"
        },
        {
          "internalType": "address",
          "name": "_teamDiffAddress",
          "type": "address"
        },
        {
          "internalType": "address",
          "name": "_leagueMakerContractAddress",
          "type": "address"
        }
      ],
      "name": "initialize",
      "outputs": [],
      "stateMutability": "nonpayable",
      "type": "function"
    },
    {
      "inputs": [],
      "name": "isPublic",
      "outputs": [
        {
          "internalType": "bool",
          "name": "",
          "type": "bool"
        }
      ],
      "stateMutability": "view",
      "type": "function"
    },
    {
      "inputs": [],
      "name": "joinLeague",
      "outputs": [],
      "stateMutability": "nonpayable",
      "type": "function"
    },
    {
      "inputs": [],
      "name": "leagueEntryIsClosed",
      "outputs": [
        {
          "internalType": "bool",
          "name": "",
          "type": "bool"
        }
      ],
      "stateMutability": "view",
      "type": "function"
    },
    {
      "inputs": [
        {
          "internalType": "uint256",
          "name": "",
          "type": "uint256"
        }
      ],
      "name": "leagueMembers",
      "outputs": [
        {
          "internalType": "address",
          "name": "",
          "type": "address"
        }
      ],
      "stateMutability": "view",
      "type": "function"
    },
    {
      "inputs": [],
      "name": "leagueName",
      "outputs": [
        {
          "internalType": "string",
          "name": "",
          "type": "string"
        }
      ],
      "stateMutability": "view",
      "type": "function"
    },
    {
      "inputs": [],
      "name": "lineupIsLocked",
      "outputs": [
        {
          "internalType": "bool",
          "name": "",
          "type": "bool"
        }
      ],
      "stateMutability": "view",
      "type": "function"
    },
    {
      "inputs": [],
      "name": "lockLineup",
      "outputs": [],
      "stateMutability": "nonpayable",
      "type": "function"
    },
    {
      "inputs": [],
      "name": "numWeeks",
      "outputs": [
        {
          "internalType": "uint256",
          "name": "",
          "type": "uint256"
        }
      ],
      "stateMutability": "view",
      "type": "function"
    },
    {
      "inputs": [],
      "name": "onLeagueEnd",
      "outputs": [],
      "stateMutability": "nonpayable",
      "type": "function"
    },
    {
      "inputs": [],
      "name": "owner",
      "outputs": [
        {
          "internalType": "address",
          "name": "",
          "type": "address"
        }
      ],
      "stateMutability": "view",
      "type": "function"
    },
    {
      "inputs": [
        {
          "internalType": "address",
          "name": "addr",
          "type": "address"
        }
      ],
      "name": "removeAddressFromWhitelist",
      "outputs": [
        {
          "internalType": "bool",
          "name": "success",
          "type": "bool"
        }
      ],
      "stateMutability": "nonpayable",
      "type": "function"
    },
    {
      "inputs": [
        {
          "internalType": "address[]",
          "name": "addrs",
          "type": "address[]"
        }
      ],
      "name": "removeAddressesFromWhitelist",
      "outputs": [
        {
          "internalType": "bool",
          "name": "success",
          "type": "bool"
        }
      ],
      "stateMutability": "nonpayable",
      "type": "function"
    },
    {
      "inputs": [],
      "name": "renounceOwnership",
      "outputs": [],
      "stateMutability": "nonpayable",
      "type": "function"
    },
    {
      "inputs": [],
      "name": "rinkebyUSDCAddress",
      "outputs": [
        {
          "internalType": "address",
          "name": "",
          "type": "address"
        }
      ],
      "stateMutability": "view",
      "type": "function"
    },
    {
      "inputs": [],
      "name": "setLeagueEntryIsClosed",
      "outputs": [],
      "stateMutability": "nonpayable",
      "type": "function"
    },
    {
      "inputs": [],
      "name": "setLeagueSchedule",
      "outputs": [],
      "stateMutability": "nonpayable",
      "type": "function"
    },
    {
      "inputs": [
        {
          "internalType": "uint256[]",
          "name": "athleteIds",
          "type": "uint256[]"
        }
      ],
      "name": "setLineup",
      "outputs": [],
      "stateMutability": "nonpayable",
      "type": "function"
    },
    {
      "inputs": [],
      "name": "stakeAmount",
      "outputs": [
        {
          "internalType": "uint256",
          "name": "",
          "type": "uint256"
        }
      ],
      "stateMutability": "view",
      "type": "function"
    },
    {
      "inputs": [],
      "name": "teamDiffAddress",
      "outputs": [
        {
          "internalType": "address",
          "name": "",
          "type": "address"
        }
      ],
      "stateMutability": "view",
      "type": "function"
    },
    {
      "inputs": [],
      "name": "testUSDC",
      "outputs": [
        {
          "internalType": "contract IERC20",
          "name": "",
          "type": "address"
        }
      ],
      "stateMutability": "view",
      "type": "function"
    },
    {
      "inputs": [
        {
          "internalType": "address",
          "name": "newOwner",
          "type": "address"
        }
      ],
      "name": "transferOwnership",
      "outputs": [],
      "stateMutability": "nonpayable",
      "type": "function"
    },
    {
      "inputs": [],
      "name": "unlockLineup",
      "outputs": [],
      "stateMutability": "nonpayable",
      "type": "function"
    },
    {
      "inputs": [
        {
          "internalType": "address",
          "name": "",
          "type": "address"
        },
        {
          "internalType": "uint256",
          "name": "",
          "type": "uint256"
        }
      ],
      "name": "userToLineup",
      "outputs": [
        {
          "internalType": "uint256",
          "name": "",
          "type": "uint256"
        }
      ],
      "stateMutability": "view",
      "type": "function"
    },
    {
      "inputs": [
        {
          "internalType": "address",
          "name": "",
          "type": "address"
        }
      ],
      "name": "userToPoints",
      "outputs": [
        {
          "internalType": "uint256",
          "name": "",
          "type": "uint256"
        }
      ],
      "stateMutability": "view",
      "type": "function"
    },
    {
      "inputs": [
        {
          "internalType": "address",
          "name": "",
          "type": "address"
        },
        {
          "internalType": "uint256",
          "name": "",
          "type": "uint256"
        }
      ],
      "name": "userToRecord",
      "outputs": [
        {
          "internalType": "uint256",
          "name": "",
          "type": "uint256"
        }
      ],
      "stateMutability": "view",
      "type": "function"
    },
    {
      "inputs": [
        {
          "internalType": "address",
          "name": "",
          "type": "address"
        }
      ],
      "name": "whitelist",
      "outputs": [
        {
          "internalType": "bool",
          "name": "",
          "type": "bool"
        }
      ],
      "stateMutability": "view",
      "type": "function"
    },
    {
      "inputs": [],
      "name": "whitelistContract",
      "outputs": [
        {
          "internalType": "contract Whitelist",
          "name": "",
          "type": "address"
        }
      ],
      "stateMutability": "view",
      "type": "function"
    }
  ],
  "bytecode": "0x60806040523480156200001157600080fd5b5062000032620000266200004060201b60201c565b6200004860201b60201c565b60016004819055506200010d565b600033905090565b60008060029054906101000a900473ffffffffffffffffffffffffffffffffffffffff16905081600060026101000a81548173ffffffffffffffffffffffffffffffffffffffff021916908373ffffffffffffffffffffffffffffffffffffffff1602179055508173ffffffffffffffffffffffffffffffffffffffff168173ffffffffffffffffffffffffffffffffffffffff167f8be0079c531659141344cd1fd0a4f28419497f9722a3daafe3b4186f6b6457e060405160405180910390a35050565b615c90806200011d6000396000f3fe60806040523480156200001157600080fd5b5060043610620002a25760003560e01c8063747b80501162000171578063cff5600311620000d5578063e5f7322f1162000093578063e5f7322f14620007cd578063ee90080f1462000803578063f2fde38b1462000839578063f612121a1462000859578063f851a4401462000879578063f8816045146200089b57620002a2565b8063cff5600314620006fd578063dc9a15351462000733578063e2ec6ec31462000755578063e35a8999146200078b578063e4c9066b14620007c157620002a2565b80638da5cb5b116200012f5780638da5cb5b146200064b5780639122ce6d146200066d5780639b19251a14620006a3578063a2bc091a14620006d9578063c8be3b5b14620006e5578063c99fea9414620006f157620002a2565b8063747b8050146200058f5780637b9417c814620005af5780637eed33f114620005e5578063841abf6e146200060757806384900b04146200062957620002a2565b806327311b3211620002195780633c3ae13f11620001d75780633c3ae13f14620004db57806344eaa84e14620004fb57806352e6e5f3146200051d57806360c7dc47146200053f5780636cc15ad51462000561578063715018a6146200058357620002a2565b806327311b32146200040b578063286dd3f5146200042d5780632ae6b13514620004635780632d382ee01462000499578063305a578214620004cf57620002a2565b80630c6f795911620002675780630c6f7959146200033b5780631d803e0014620003715780631dd7f8ca146200037d57806324953eaa146200039f578063267175db14620003d557620002a2565b80622772c214620002a7578062b2476f14620002c9578063022e35e614620002eb5780630635dbcb146200030d5780630655465a146200032f575b600080fd5b620002b1620008bd565b604051620002c091906200418e565b60405180910390f35b620002d362000975565b604051620002e2919062003d46565b60405180910390f35b620002f56200099b565b60405162000304919062003eaa565b60405180910390f35b62000317620009c1565b60405162000326919062003e8d565b60405180910390f35b62000339620009d4565b005b6200035960048036038101906200035391906200342e565b62000adf565b6040516200036891906200418e565b60405180910390f35b6200037b62000b11565b005b6200038762000f58565b60405162000396919062003d46565b60405180910390f35b620003bd6004803603810190620003b7919062003475565b62000f7e565b604051620003cc919062003e8d565b60405180910390f35b620003f36004803603810190620003ed919062003663565b6200105f565b60405162000402919062003d46565b60405180910390f35b620004156200109f565b60405162000424919062003e8d565b60405180910390f35b6200044b6004803603810190620004459190620033fc565b620010b6565b6040516200045a919062003e8d565b60405180910390f35b6200048160048036038101906200047b9190620033fc565b62001245565b6040516200049091906200418e565b60405180910390f35b620004b76004803603810190620004b1919062003663565b6200125d565b604051620004c6919062003e45565b60405180910390f35b620004d96200134e565b005b620004f96004803603810190620004f3919062003549565b620014c6565b005b620005056200191e565b6040516200051491906200418e565b60405180910390f35b6200052762001928565b6040516200053691906200418e565b60405180910390f35b620005496200192e565b6040516200055891906200418e565b60405180910390f35b6200056b62001934565b6040516200057a919062003e8d565b60405180910390f35b6200058d62001947565b005b620005ad6004803603810190620005a79190620033fc565b620019d8565b005b620005cd6004803603810190620005c79190620033fc565b62001c06565b604051620005dc919062003e8d565b60405180910390f35b620005ef62001d93565b604051620005fe91906200418e565b60405180910390f35b6200061162001d99565b60405162000620919062003f38565b60405180910390f35b6200063362001e2f565b60405162000642919062003ec7565b60405180910390f35b6200065562001e55565b60405162000664919062003d46565b60405180910390f35b6200068b6004803603810190620006859190620033fc565b62001e7e565b6040516200069a919062003e8d565b60405180910390f35b620006c16004803603810190620006bb9190620033fc565b62001e9e565b604051620006d0919062003e8d565b60405180910390f35b620006e362001ebe565b005b620006ef62001f6e565b005b620006fb6200201e565b005b6200071b60048036038101906200071591906200342e565b62002401565b6040516200072a91906200418e565b60405180910390f35b6200073d62002433565b6040516200074c919062003e8d565b60405180910390f35b6200077360048036038101906200076d919062003475565b62002446565b60405162000782919062003e8d565b60405180910390f35b620007a96004803603810190620007a39190620033fc565b62002527565b604051620007b8919062003e8d565b60405180910390f35b620007cb6200257d565b005b620007eb6004803603810190620007e59190620033fc565b6200262d565b604051620007fa919062003e69565b60405180910390f35b6200082160048036038101906200081b919062003663565b620026c6565b60405162000830919062003d46565b60405180910390f35b620008576004803603810190620008519190620033fc565b62002711565b005b620008776004803603810190620008719190620034c6565b62002815565b005b6200088362002cfb565b60405162000892919062003d46565b60405180910390f35b620008a562002d21565b604051620008b4919062003e69565b60405180910390f35b6000601760009054906101000a900473ffffffffffffffffffffffffffffffffffffffff1673ffffffffffffffffffffffffffffffffffffffff166370a08231306040518263ffffffff1660e01b81526004016200091c919062003d46565b60206040518083038186803b1580156200093557600080fd5b505afa1580156200094a573d6000803e3d6000fd5b505050506040513d601f19601f8201168201806040525081019062000970919062003695565b905090565b601360009054906101000a900473ffffffffffffffffffffffffffffffffffffffff1681565b601760009054906101000a900473ffffffffffffffffffffffffffffffffffffffff1681565b600a60159054906101000a900460ff1681565b600a60009054906101000a900473ffffffffffffffffffffffffffffffffffffffff1673ffffffffffffffffffffffffffffffffffffffff163373ffffffffffffffffffffffffffffffffffffffff161462000a67576040517f08c379a000000000000000000000000000000000000000000000000000000000815260040162000a5e90620040a0565b60405180910390fd5b73__$36fdb4e0c2cb91f3ceca5ea81b025328f3$__63d2c232b56012601060065460056040518563ffffffff1660e01b815260040162000aab949392919062003ee4565b60006040518083038186803b15801562000ac457600080fd5b505af415801562000ad9573d6000803e3d6000fd5b50505050565b600c602052816000526040600020818154811062000afc57600080fd5b90600052602060002001600091509150505481565b600a60009054906101000a900473ffffffffffffffffffffffffffffffffffffffff1673ffffffffffffffffffffffffffffffffffffffff163373ffffffffffffffffffffffffffffffffffffffff161462000ba4576040517f08c379a000000000000000000000000000000000000000000000000000000000815260040162000b9b90620040a0565b60405180910390fd5b600060075460108054905062000bbb919062004464565b905073__$36fdb4e0c2cb91f3ceca5ea81b025328f3$__63cc9b40cc6010600e60116040518463ffffffff1660e01b815260040162000bfd9392919062003dcd565b60006040518083038186803b15801562000c1657600080fd5b505af415801562000c2b573d6000803e3d6000fd5b5050505060005b60118054905081101562000ca25762000c8c6011828154811062000c5b5762000c5a62004798565b5b9060005260206000200160009054906101000a900473ffffffffffffffffffffffffffffffffffffffff1662002db8565b808062000c9990620046bd565b91505062000c32565b5060006011805490508262000cb891906200442c565b905062000d006040518060400160405280601681526020017f4c65616775652077696e6e657273206c656e206973200000000000000000000081525060118054905062002e55565b62000d416040518060400160405280601681526020017f5072697a65207065722077696e6e6572206973203a20000000000000000000008152508262002e55565b7f648f2405ea194f3e49fe1655279883b3474e63909ab7e4a579b051d548ad838960118260405162000d7592919062003e11565b60405180910390a160005b60118054905081101562000f5357601760009054906101000a900473ffffffffffffffffffffffffffffffffffffffff1673ffffffffffffffffffffffffffffffffffffffff1663095ea7b330846040518363ffffffff1660e01b815260040162000ded92919062003da0565b602060405180830381600087803b15801562000e0857600080fd5b505af115801562000e1d573d6000803e3d6000fd5b505050506040513d601f19601f8201168201806040525081019062000e43919062003517565b50601760009054906101000a900473ffffffffffffffffffffffffffffffffffffffff1673ffffffffffffffffffffffffffffffffffffffff166323b872dd306011848154811062000e9a5762000e9962004798565b5b9060005260206000200160009054906101000a900473ffffffffffffffffffffffffffffffffffffffff16856040518463ffffffff1660e01b815260040162000ee69392919062003d63565b602060405180830381600087803b15801562000f0157600080fd5b505af115801562000f16573d6000803e3d6000fd5b505050506040513d601f19601f8201168201806040525081019062000f3c919062003517565b50808062000f4a90620046bd565b91505062000d80565b505050565b600a60009054906101000a900473ffffffffffffffffffffffffffffffffffffffff1681565b600062000f8a62002ef5565b73ffffffffffffffffffffffffffffffffffffffff1662000faa62001e55565b73ffffffffffffffffffffffffffffffffffffffff161462001003576040517f08c379a000000000000000000000000000000000000000000000000000000000815260040162000ffa906200405c565b60405180910390fd5b60005b82518110156200105957620010388382815181106200102a576200102962004798565b5b6020026020010151620010b6565b156200104357600191505b80806200105090620046bd565b91505062001006565b50919050565b601081815481106200107057600080fd5b906000526020600020016000915054906101000a900473ffffffffffffffffffffffffffffffffffffffff1681565b6000600a60159054906101000a900460ff16905090565b6000620010c262002ef5565b73ffffffffffffffffffffffffffffffffffffffff16620010e262001e55565b73ffffffffffffffffffffffffffffffffffffffff16146200113b576040517f08c379a000000000000000000000000000000000000000000000000000000000815260040162001132906200405c565b60405180910390fd5b600160008373ffffffffffffffffffffffffffffffffffffffff1673ffffffffffffffffffffffffffffffffffffffff16815260200190815260200160002060009054906101000a900460ff161562001240576000600160008473ffffffffffffffffffffffffffffffffffffffff1673ffffffffffffffffffffffffffffffffffffffff16815260200190815260200160002060006101000a81548160ff0219169083151502179055507ff1abf01a1043b7c244d128e8595cf0c1d10743b022b03a02dffd8ca3bf729f5a8260405162001217919062003d46565b60405180910390a1600160026000828254620012349190620044c5565b92505081905550600190505b919050565b600e6020528060005260406000206000915090505481565b606060126000838152602001908152602001600020805480602002602001604051908101604052809291908181526020016000905b82821015620013435783829060005260206000209060020201604051806020016040529081600082016002806020026040519081016040528092919082600280156200132a576020028201915b8160009054906101000a900473ffffffffffffffffffffffffffffffffffffffff1673ffffffffffffffffffffffffffffffffffffffff1681526020019060010190808311620012df575b5050505050815250508152602001906001019062001292565b505050509050919050565b600a60009054906101000a900473ffffffffffffffffffffffffffffffffffffffff1673ffffffffffffffffffffffffffffffffffffffff163373ffffffffffffffffffffffffffffffffffffffff1614620013e1576040517f08c379a0000000000000000000000000000000000000000000000000000000008152600401620013d890620040a0565b60405180910390fd5b73__$36fdb4e0c2cb91f3ceca5ea81b025328f3$__63c930f4bc600854601460009054906101000a900473ffffffffffffffffffffffffffffffffffffffff16600c600d600e60126040518763ffffffff1660e01b81526004016200144c96959493929190620041ab565b60006040518083038186803b1580156200146557600080fd5b505af41580156200147a573d6000803e3d6000fd5b5050505060016006546200148f9190620044c5565b6008541415620014a957620014a362000b11565b620014c4565b60086000815480929190620014be90620046bd565b91905055505b565b600060019054906101000a900460ff16620014f05760008054906101000a900460ff1615620014fb565b620014fa62002efd565b5b6200153d576040517f08c379a000000000000000000000000000000000000000000000000000000000815260040162001534906200403a565b60405180910390fd5b60008060019054906101000a900460ff1615905080156200158e576001600060016101000a81548160ff02191690831515021790555060016000806101000a81548160ff0219169083151502179055505b8b8b60059190620015a1929190620030be565b5060086006819055506001600f60008973ffffffffffffffffffffffffffffffffffffffff1673ffffffffffffffffffffffffffffffffffffffff16815260200190815260200160002060006101000a81548160ff0219169083151502179055506010879080600181540180825580915050600190039060005260206000200160009091909190916101000a81548173ffffffffffffffffffffffffffffffffffffffff021916908373ffffffffffffffffffffffffffffffffffffffff16021790555086600960006101000a81548173ffffffffffffffffffffffffffffffffffffffff021916908373ffffffffffffffffffffffffffffffffffffffff1602179055508960078190555088600360006101000a81548160ff0219169083151502179055506000600a60146101000a81548160ff0219169083151502179055506000600a60156101000a81548160ff02191690831515021790555087601460006101000a81548173ffffffffffffffffffffffffffffffffffffffff021916908373ffffffffffffffffffffffffffffffffffffffff1602179055506040516200174c906200314f565b604051809103906000f08015801562001769573d6000803e3d6000fd5b50601560006101000a81548173ffffffffffffffffffffffffffffffffffffffff021916908373ffffffffffffffffffffffffffffffffffffffff16021790555085601360006101000a81548173ffffffffffffffffffffffffffffffffffffffff021916908373ffffffffffffffffffffffffffffffffffffffff16021790555084601760006101000a81548173ffffffffffffffffffffffffffffffffffffffff021916908373ffffffffffffffffffffffffffffffffffffffff16021790555082600a60006101000a81548173ffffffffffffffffffffffffffffffffffffffff021916908373ffffffffffffffffffffffffffffffffffffffff16021790555083601860006101000a81548173ffffffffffffffffffffffffffffffffffffffff021916908373ffffffffffffffffffffffffffffffffffffffff160217905550620018ee6040518060400160405280601281526020017f50726f787920696e697469616c697a656421000000000000000000000000000081525062002f10565b8015620019105760008060016101000a81548160ff0219169083151502179055505b505050505050505050505050565b6000600254905090565b60085481565b60075481565b600a60149054906101000a900460ff1681565b6200195162002ef5565b73ffffffffffffffffffffffffffffffffffffffff166200197162001e55565b73ffffffffffffffffffffffffffffffffffffffff1614620019ca576040517f08c379a0000000000000000000000000000000000000000000000000000000008152600401620019c1906200405c565b60405180910390fd5b620019d6600062002fad565b565b600960009054906101000a900473ffffffffffffffffffffffffffffffffffffffff1673ffffffffffffffffffffffffffffffffffffffff163373ffffffffffffffffffffffffffffffffffffffff161462001a6b576040517f08c379a000000000000000000000000000000000000000000000000000000000815260040162001a62906200407e565b60405180910390fd5b600a60149054906101000a900460ff161562001abe576040517f08c379a000000000000000000000000000000000000000000000000000000000815260040162001ab59062004106565b60405180910390fd5b601560009054906101000a900473ffffffffffffffffffffffffffffffffffffffff1673ffffffffffffffffffffffffffffffffffffffff16637b9417c8826040518263ffffffff1660e01b815260040162001b1b919062003d46565b602060405180830381600087803b15801562001b3657600080fd5b505af115801562001b4b573d6000803e3d6000fd5b505050506040513d601f19601f8201168201806040525081019062001b71919062003517565b50601660009054906101000a900473ffffffffffffffffffffffffffffffffffffffff1673ffffffffffffffffffffffffffffffffffffffff1663771bd4ce826040518263ffffffff1660e01b815260040162001bcf919062003d46565b600060405180830381600087803b15801562001bea57600080fd5b505af115801562001bff573d6000803e3d6000fd5b5050505050565b600062001c1262002ef5565b73ffffffffffffffffffffffffffffffffffffffff1662001c3262001e55565b73ffffffffffffffffffffffffffffffffffffffff161462001c8b576040517f08c379a000000000000000000000000000000000000000000000000000000000815260040162001c82906200405c565b60405180910390fd5b600160008373ffffffffffffffffffffffffffffffffffffffff1673ffffffffffffffffffffffffffffffffffffffff16815260200190815260200160002060009054906101000a900460ff1662001d8e5760018060008473ffffffffffffffffffffffffffffffffffffffff1673ffffffffffffffffffffffffffffffffffffffff16815260200190815260200160002060006101000a81548160ff0219169083151502179055507fd1bba68c128cc3f427e5831b3c6f99f480b6efa6b9e80c757768f6124158cc3f8260405162001d65919062003d46565b60405180910390a160016002600082825462001d829190620043cf565b92505081905550600190505b919050565b60065481565b6005805462001da89062004633565b80601f016020809104026020016040519081016040528092919081815260200182805462001dd69062004633565b801562001e275780601f1062001dfb5761010080835404028352916020019162001e27565b820191906000526020600020905b81548152906001019060200180831162001e0957829003601f168201915b505050505081565b601560009054906101000a900473ffffffffffffffffffffffffffffffffffffffff1681565b60008060029054906101000a900473ffffffffffffffffffffffffffffffffffffffff16905090565b600f6020528060005260406000206000915054906101000a900460ff1681565b60016020528060005260406000206000915054906101000a900460ff1681565b600a60009054906101000a900473ffffffffffffffffffffffffffffffffffffffff1673ffffffffffffffffffffffffffffffffffffffff163373ffffffffffffffffffffffffffffffffffffffff161462001f51576040517f08c379a000000000000000000000000000000000000000000000000000000000815260040162001f4890620040a0565b60405180910390fd5b6000600a60156101000a81548160ff021916908315150217905550565b600a60009054906101000a900473ffffffffffffffffffffffffffffffffffffffff1673ffffffffffffffffffffffffffffffffffffffff163373ffffffffffffffffffffffffffffffffffffffff161462002001576040517f08c379a000000000000000000000000000000000000000000000000000000000815260040162001ff890620040a0565b60405180910390fd5b6001600a60156101000a81548160ff021916908315150217905550565b6002600454141562002067576040517f08c379a00000000000000000000000000000000000000000000000000000000081526004016200205e906200414a565b60405180910390fd5b6002600481905550601560009054906101000a900473ffffffffffffffffffffffffffffffffffffffff1673ffffffffffffffffffffffffffffffffffffffff16639b19251a336040518263ffffffff1660e01b8152600401620020cc919062003d46565b60206040518083038186803b158015620020e557600080fd5b505afa158015620020fa573d6000803e3d6000fd5b505050506040513d601f19601f8201168201806040525081019062002120919062003517565b62002162576040517f08c379a00000000000000000000000000000000000000000000000000000000081526004016200215990620040e4565b60405180910390fd5b600a60149054906101000a900460ff1615620021b5576040517f08c379a0000000000000000000000000000000000000000000000000000000008152600401620021ac906200416c565b60405180910390fd5b600f60003373ffffffffffffffffffffffffffffffffffffffff1673ffffffffffffffffffffffffffffffffffffffff16815260200190815260200160002060009054906101000a900460ff161562002245576040517f08c379a00000000000000000000000000000000000000000000000000000000081526004016200223c9062003fd4565b60405180910390fd5b600754601760009054906101000a900473ffffffffffffffffffffffffffffffffffffffff1673ffffffffffffffffffffffffffffffffffffffff166370a08231336040518263ffffffff1660e01b8152600401620022a5919062003d46565b60206040518083038186803b158015620022be57600080fd5b505afa158015620022d3573d6000803e3d6000fd5b505050506040513d601f19601f82011682018060405250810190620022f9919062003695565b116200233c576040517f08c379a0000000000000000000000000000000000000000000000000000000008152600401620023339062003fb2565b60405180910390fd5b6001600f60003373ffffffffffffffffffffffffffffffffffffffff1673ffffffffffffffffffffffffffffffffffffffff16815260200190815260200160002060006101000a81548160ff0219169083151502179055506010339080600181540180825580915050600190039060005260206000200160009091909190916101000a81548173ffffffffffffffffffffffffffffffffffffffff021916908373ffffffffffffffffffffffffffffffffffffffff1602179055506001600481905550565b600d60205281600052604060002081815481106200241e57600080fd5b90600052602060002001600091509150505481565b600360009054906101000a900460ff1681565b60006200245262002ef5565b73ffffffffffffffffffffffffffffffffffffffff166200247262001e55565b73ffffffffffffffffffffffffffffffffffffffff1614620024cb576040517f08c379a0000000000000000000000000000000000000000000000000000000008152600401620024c2906200405c565b60405180910390fd5b60005b8251811015620025215762002500838281518110620024f257620024f162004798565b5b602002602001015162001c06565b156200250b57600191505b80806200251890620046bd565b915050620024ce565b50919050565b6000600160008373ffffffffffffffffffffffffffffffffffffffff1673ffffffffffffffffffffffffffffffffffffffff16815260200190815260200160002060009054906101000a900460ff169050919050565b600a60009054906101000a900473ffffffffffffffffffffffffffffffffffffffff1673ffffffffffffffffffffffffffffffffffffffff163373ffffffffffffffffffffffffffffffffffffffff161462002610576040517f08c379a00000000000000000000000000000000000000000000000000000000081526004016200260790620040a0565b60405180910390fd5b6001600a60146101000a81548160ff021916908315150217905550565b6060600d60008373ffffffffffffffffffffffffffffffffffffffff1673ffffffffffffffffffffffffffffffffffffffff168152602001908152602001600020805480602002602001604051908101604052809291908181526020018280548015620026ba57602002820191906000526020600020905b815481526020019060010190808311620026a5575b50505050509050919050565b600060108281548110620026df57620026de62004798565b5b9060005260206000200160009054906101000a900473ffffffffffffffffffffffffffffffffffffffff169050919050565b6200271b62002ef5565b73ffffffffffffffffffffffffffffffffffffffff166200273b62001e55565b73ffffffffffffffffffffffffffffffffffffffff161462002794576040517f08c379a00000000000000000000000000000000000000000000000000000000081526004016200278b906200405c565b60405180910390fd5b600073ffffffffffffffffffffffffffffffffffffffff168173ffffffffffffffffffffffffffffffffffffffff16141562002807576040517f08c379a0000000000000000000000000000000000000000000000000000000008152600401620027fe9062003f90565b60405180910390fd5b620028128162002fad565b50565b600a60159054906101000a900460ff161562002868576040517f08c379a00000000000000000000000000000000000000000000000000000000081526004016200285f9062004018565b60405180910390fd5b600f60003373ffffffffffffffffffffffffffffffffffffffff1673ffffffffffffffffffffffffffffffffffffffff16815260200190815260200160002060009054906101000a900460ff16620028f7576040517f08c379a0000000000000000000000000000000000000000000000000000000008152600401620028ee90620040c2565b60405180910390fd5b60005b600d60003373ffffffffffffffffffffffffffffffffffffffff1673ffffffffffffffffffffffffffffffffffffffff16815260200190815260200160002080549050811015620029fc57600b6000600d60003373ffffffffffffffffffffffffffffffffffffffff1673ffffffffffffffffffffffffffffffffffffffff16815260200190815260200160002083815481106200299d576200299c62004798565b5b9060005260206000200154815260200190815260200160002060085460088110620029cd57620029cc62004798565b5b016000815480929190620029e19062004604565b91905055508080620029f390620046bd565b915050620028fa565b5060005b815181101562002a8057600b600083838151811062002a245762002a2362004798565b5b602002602001015181526020019081526020016000206008546008811062002a515762002a5062004798565b5b01600081548092919062002a6590620046bd565b9190505550808062002a7790620046bd565b91505062002a00565b5060005b815181101562002bb8576000601860009054906101000a900473ffffffffffffffffffffffffffffffffffffffff1673ffffffffffffffffffffffffffffffffffffffff1662fdd58e3385858151811062002ae45762002ae362004798565b5b60200260200101516040518363ffffffff1660e01b815260040162002b0b92919062003da0565b60206040518083038186803b15801562002b2457600080fd5b505afa15801562002b39573d6000803e3d6000fd5b505050506040513d601f19601f8201168201806040525081019062002b5f919062003695565b1162002ba2576040517f08c379a000000000000000000000000000000000000000000000000000000000815260040162002b999062004128565b60405180910390fd5b808062002baf90620046bd565b91505062002a84565b5060005b815181101562002ca157600a8162002bd5919062004464565b82828151811062002beb5762002bea62004798565b5b60200260200101511015801562002c4957506001600a60018362002c109190620043cf565b62002c1c919062004464565b62002c289190620044c5565b82828151811062002c3e5762002c3d62004798565b5b602002602001015111155b62002c8b576040517f08c379a000000000000000000000000000000000000000000000000000000000815260040162002c829062003ff6565b60405180910390fd5b808062002c9890620046bd565b91505062002bbc565b5080600d60003373ffffffffffffffffffffffffffffffffffffffff1673ffffffffffffffffffffffffffffffffffffffff168152602001908152602001600020908051906020019062002cf79291906200315d565b5050565b600960009054906101000a900473ffffffffffffffffffffffffffffffffffffffff1681565b6060600c60003373ffffffffffffffffffffffffffffffffffffffff1673ffffffffffffffffffffffffffffffffffffffff16815260200190815260200160002080548060200260200160405190810160405280929190818152602001828054801562002dae57602002820191906000526020600020905b81548152602001906001019080831162002d99575b5050505050905090565b62002e528160405160240162002dcf919062003d46565b6040516020818303038152906040527f2c2ecbc2000000000000000000000000000000000000000000000000000000007bffffffffffffffffffffffffffffffffffffffffffffffffffffffff19166020820180517bffffffffffffffffffffffffffffffffffffffffffffffffffffffff838183161783525050505062003072565b50565b62002ef1828260405160240162002e6e92919062003f5c565b6040516020818303038152906040527f9710a9d0000000000000000000000000000000000000000000000000000000007bffffffffffffffffffffffffffffffffffffffffffffffffffffffff19166020820180517bffffffffffffffffffffffffffffffffffffffffffffffffffffffff838183161783525050505062003072565b5050565b600033905090565b600062002f0a306200309b565b15905090565b62002faa8160405160240162002f27919062003f38565b6040516020818303038152906040527f41304fac000000000000000000000000000000000000000000000000000000007bffffffffffffffffffffffffffffffffffffffffffffffffffffffff19166020820180517bffffffffffffffffffffffffffffffffffffffffffffffffffffffff838183161783525050505062003072565b50565b60008060029054906101000a900473ffffffffffffffffffffffffffffffffffffffff16905081600060026101000a81548173ffffffffffffffffffffffffffffffffffffffff021916908373ffffffffffffffffffffffffffffffffffffffff1602179055508173ffffffffffffffffffffffffffffffffffffffff168173ffffffffffffffffffffffffffffffffffffffff167f8be0079c531659141344cd1fd0a4f28419497f9722a3daafe3b4186f6b6457e060405160405180910390a35050565b60008151905060006a636f6e736f6c652e6c6f679050602083016000808483855afa5050505050565b6000808273ffffffffffffffffffffffffffffffffffffffff163b119050919050565b828054620030cc9062004633565b90600052602060002090601f016020900481019282620030f057600085556200313c565b82601f106200310b57803560ff19168380011785556200313c565b828001600101855582156200313c579182015b828111156200313b5782358255916020019190600101906200311e565b5b5090506200314b9190620031af565b5090565b6110598062004c0283390190565b8280548282559060005260206000209081019282156200319c579160200282015b828111156200319b5782518255916020019190600101906200317e565b5b509050620031ab9190620031af565b5090565b5b80821115620031ca576000816000905550600101620031b0565b5090565b6000620031e5620031df8462004241565b62004218565b905080838252602082019050828560208602820111156200320b576200320a62004815565b5b60005b858110156200323f5781620032248882620032c4565b8452602084019350602083019250506001810190506200320e565b5050509392505050565b6000620032606200325a8462004270565b62004218565b9050808382526020820190508285602086028201111562003286576200328562004815565b5b60005b85811015620032ba57816200329f8882620033ce565b84526020840193506020830192505060018101905062003289565b5050509392505050565b600081359050620032d58162004bb3565b92915050565b600082601f830112620032f357620032f262004810565b5b813562003305848260208601620031ce565b91505092915050565b600082601f83011262003326576200332562004810565b5b81356200333884826020860162003249565b91505092915050565b600081359050620033528162004bcd565b92915050565b600081519050620033698162004bcd565b92915050565b60008083601f84011262003388576200338762004810565b5b8235905067ffffffffffffffff811115620033a857620033a76200480b565b5b602083019150836001820283011115620033c757620033c662004815565b5b9250929050565b600081359050620033df8162004be7565b92915050565b600081519050620033f68162004be7565b92915050565b6000602082840312156200341557620034146200481f565b5b60006200342584828501620032c4565b91505092915050565b600080604083850312156200344857620034476200481f565b5b60006200345885828601620032c4565b92505060206200346b85828601620033ce565b9150509250929050565b6000602082840312156200348e576200348d6200481f565b5b600082013567ffffffffffffffff811115620034af57620034ae6200481a565b5b620034bd84828501620032db565b91505092915050565b600060208284031215620034df57620034de6200481f565b5b600082013567ffffffffffffffff8111156200350057620034ff6200481a565b5b6200350e848285016200330e565b91505092915050565b60006020828403121562003530576200352f6200481f565b5b6000620035408482850162003358565b91505092915050565b60008060008060008060008060008060006101408c8e0312156200357257620035716200481f565b5b60008c013567ffffffffffffffff8111156200359357620035926200481a565b5b620035a18e828f016200336f565b9b509b50506020620035b68e828f01620033ce565b9950506040620035c98e828f0162003341565b9850506060620035dc8e828f01620032c4565b9750506080620035ef8e828f01620032c4565b96505060a0620036028e828f01620032c4565b95505060c0620036158e828f01620032c4565b94505060e0620036288e828f01620032c4565b9350506101006200363c8e828f01620032c4565b925050610120620036508e828f01620032c4565b9150509295989b509295989b9093969950565b6000602082840312156200367c576200367b6200481f565b5b60006200368c84828501620033ce565b91505092915050565b600060208284031215620036ae57620036ad6200481f565b5b6000620036be84828501620033e5565b91505092915050565b6000620036d583836200372f565b60208301905092915050565b6000620036ef838362003751565b60208301905092915050565b600062003709838362003cf5565b60408301905092915050565b600062003723838362003d13565b60208301905092915050565b6200373a8162004520565b82525050565b6200374b8162004520565b82525050565b6200375c8162004520565b82525050565b6200376d81620042f3565b6200377981846200435e565b925062003786826200429f565b8060005b83811015620037bd578151620037a18782620036c7565b9650620037ae836200432a565b9250506001810190506200378a565b505050505050565b6000620037d282620042fe565b620037de818562004369565b9350620037eb83620042a9565b8060005b838110156200382b576200380382620047f6565b6200380f8882620036c7565b97506200381c8362004337565b925050600181019050620037ef565b5085935050505092915050565b60006200384582620042fe565b6200385181856200437a565b93506200385e83620042a9565b8060005b838110156200389e576200387682620047f6565b620038828882620036e1565b97506200388f8362004337565b92505060018101905062003862565b5085935050505092915050565b8082525050565b6000620038bf8262004309565b620038cb81856200438b565b9350620038d883620042be565b8060005b838110156200390f578151620038f38882620036fb565b9750620039008362004344565b925050600181019050620038dc565b5085935050505092915050565b6000620039298262004314565b6200393581856200439c565b93506200394283620042ce565b8060005b83811015620039795781516200395d888262003715565b97506200396a8362004351565b92505060018101905062003946565b5085935050505092915050565b620039918162004534565b82525050565b620039a2816200456a565b82525050565b620039b3816200457e565b82525050565b620039c48162004592565b82525050565b8082525050565b8082525050565b8082525050565b6000620039ec826200431f565b620039f88185620043ad565b935062003a0a818560208601620045ce565b62003a158162004824565b840191505092915050565b6000815462003a2f8162004633565b62003a3b8186620043be565b9450600182166000811462003a59576001811462003a6c5762003aa3565b60ff198316865260208601935062003aa3565b62003a7785620042de565b60005b8381101562003a9b5781548189015260018201915060208101905062003a7a565b808801955050505b50505092915050565b600062003abb602683620043ad565b915062003ac88262004842565b604082019050919050565b600062003ae2601d83620043ad565b915062003aef8262004891565b602082019050919050565b600062003b09602383620043ad565b915062003b1682620048ba565b604082019050919050565b600062003b30603183620043ad565b915062003b3d8262004909565b604082019050919050565b600062003b57601e83620043ad565b915062003b648262004958565b602082019050919050565b600062003b7e602e83620043ad565b915062003b8b8262004981565b604082019050919050565b600062003ba5602083620043ad565b915062003bb282620049d0565b602082019050919050565b600062003bcc601783620043ad565b915062003bd982620049f9565b602082019050919050565b600062003bf3601683620043ad565b915062003c008262004a22565b602082019050919050565b600062003c1a601683620043ad565b915062003c278262004a4b565b602082019050919050565b600062003c41601c83620043ad565b915062003c4e8262004a74565b602082019050919050565b600062003c68604183620043ad565b915062003c758262004a9d565b606082019050919050565b600062003c8f602483620043ad565b915062003c9c8262004b12565b604082019050919050565b600062003cb6601f83620043ad565b915062003cc38262004b61565b602082019050919050565b600062003cdd601783620043ad565b915062003cea8262004b8a565b602082019050919050565b60408201600082015162003d0d600085018262003762565b50505050565b62003d1e8162004560565b82525050565b62003d2f8162004560565b82525050565b62003d408162004560565b82525050565b600060208201905062003d5d600083018462003740565b92915050565b600060608201905062003d7a600083018662003740565b62003d89602083018562003740565b62003d98604083018462003d24565b949350505050565b600060408201905062003db7600083018562003740565b62003dc6602083018462003d24565b9392505050565b6000606082019050818103600083015262003de9818662003838565b905062003dfa6020830185620039d1565b62003e096040830184620038ab565b949350505050565b6000604082019050818103600083015262003e2d8185620037c5565b905062003e3e602083018462003d24565b9392505050565b6000602082019050818103600083015262003e618184620038b2565b905092915050565b6000602082019050818103600083015262003e8581846200391c565b905092915050565b600060208201905062003ea4600083018462003986565b92915050565b600060208201905062003ec16000830184620039a8565b92915050565b600060208201905062003ede6000830184620039b9565b92915050565b600060808201905062003efb6000830187620039d8565b62003f0a6020830186620038ab565b62003f19604083018562003d35565b818103606083015262003f2d818462003a20565b905095945050505050565b6000602082019050818103600083015262003f548184620039df565b905092915050565b6000604082019050818103600083015262003f788185620039df565b905062003f89602083018462003d24565b9392505050565b6000602082019050818103600083015262003fab8162003aac565b9050919050565b6000602082019050818103600083015262003fcd8162003ad3565b9050919050565b6000602082019050818103600083015262003fef8162003afa565b9050919050565b60006020820190508181036000830152620040118162003b21565b9050919050565b60006020820190508181036000830152620040338162003b48565b9050919050565b60006020820190508181036000830152620040558162003b6f565b9050919050565b60006020820190508181036000830152620040778162003b96565b9050919050565b60006020820190508181036000830152620040998162003bbd565b9050919050565b60006020820190508181036000830152620040bb8162003be4565b9050919050565b60006020820190508181036000830152620040dd8162003c0b565b9050919050565b60006020820190508181036000830152620040ff8162003c32565b9050919050565b60006020820190508181036000830152620041218162003c59565b9050919050565b60006020820190508181036000830152620041438162003c80565b9050919050565b60006020820190508181036000830152620041658162003ca7565b9050919050565b60006020820190508181036000830152620041878162003cce565b9050919050565b6000602082019050620041a5600083018462003d24565b92915050565b600060c082019050620041c2600083018962003d35565b620041d1602083018862003997565b620041e06040830187620039ca565b620041ef6060830186620039ca565b620041fe6080830185620039d1565b6200420d60a0830184620039d8565b979650505050505050565b60006200422462004237565b905062004232828262004687565b919050565b6000604051905090565b600067ffffffffffffffff8211156200425f576200425e620047c7565b5b602082029050602081019050919050565b600067ffffffffffffffff8211156200428e576200428d620047c7565b5b602082029050602081019050919050565b6000819050919050565b60008190508160005260206000209050919050565b6000819050602082019050919050565b6000819050602082019050919050565b60008190508160005260206000209050919050565b600060029050919050565b600081549050919050565b600081519050919050565b600081519050919050565b600081519050919050565b6000602082019050919050565b6000600182019050919050565b6000602082019050919050565b6000602082019050919050565b600081905092915050565b600082825260208201905092915050565b600082825260208201905092915050565b600082825260208201905092915050565b600082825260208201905092915050565b600082825260208201905092915050565b600082825260208201905092915050565b6000620043dc8262004560565b9150620043e98362004560565b9250827fffffffffffffffffffffffffffffffffffffffffffffffffffffffffffffffff038211156200442157620044206200470b565b5b828201905092915050565b6000620044398262004560565b9150620044468362004560565b9250826200445957620044586200473a565b5b828204905092915050565b6000620044718262004560565b91506200447e8362004560565b9250817fffffffffffffffffffffffffffffffffffffffffffffffffffffffffffffffff0483118215151615620044ba57620044b96200470b565b5b828202905092915050565b6000620044d28262004560565b9150620044df8362004560565b925082821015620044f557620044f46200470b565b5b828203905092915050565b600073ffffffffffffffffffffffffffffffffffffffff82169050919050565b60006200452d8262004540565b9050919050565b60008115159050919050565b600073ffffffffffffffffffffffffffffffffffffffff82169050919050565b6000819050919050565b60006200457782620045a6565b9050919050565b60006200458b82620045a6565b9050919050565b60006200459f82620045a6565b9050919050565b6000620045b382620045ba565b9050919050565b6000620045c78262004540565b9050919050565b60005b83811015620045ee578082015181840152602081019050620045d1565b83811115620045fe576000848401525b50505050565b6000620046118262004560565b915060008214156200462857620046276200470b565b5b600182039050919050565b600060028204905060018216806200464c57607f821691505b6020821081141562004663576200466262004769565b5b50919050565b6000620046806200467a8362004835565b62004500565b9050919050565b620046928262004824565b810181811067ffffffffffffffff82111715620046b457620046b3620047c7565b5b80604052505050565b6000620046ca8262004560565b91507fffffffffffffffffffffffffffffffffffffffffffffffffffffffffffffffff8214156200470057620046ff6200470b565b5b600182019050919050565b7f4e487b7100000000000000000000000000000000000000000000000000000000600052601160045260246000fd5b7f4e487b7100000000000000000000000000000000000000000000000000000000600052601260045260246000fd5b7f4e487b7100000000000000000000000000000000000000000000000000000000600052602260045260246000fd5b7f4e487b7100000000000000000000000000000000000000000000000000000000600052603260045260246000fd5b7f4e487b7100000000000000000000000000000000000000000000000000000000600052604160045260246000fd5b600062004804825462004669565b9050919050565b600080fd5b600080fd5b600080fd5b600080fd5b600080fd5b6000601f19601f8301169050919050565b60008160001c9050919050565b7f4f776e61626c653a206e6577206f776e657220697320746865207a65726f206160008201527f6464726573730000000000000000000000000000000000000000000000000000602082015250565b7f496e737566666963656e742066756e647320666f72207374616b696e67000000600082015250565b7f596f75206861766520616c7265616479206a6f696e65642074686973206c656160008201527f6775650000000000000000000000000000000000000000000000000000000000602082015250565b7f596f75206172652073657474696e6720616e206174686c65746520696e20746860008201527f652077726f6e6720706f736974696f6e21000000000000000000000000000000602082015250565b7f6c696e657570206973206c6f636b656420666f7220746865207765656b210000600082015250565b7f496e697469616c697a61626c653a20636f6e747261637420697320616c72656160008201527f647920696e697469616c697a6564000000000000000000000000000000000000602082015250565b7f4f776e61626c653a2063616c6c6572206973206e6f7420746865206f776e6572600082015250565b7f43616c6c6572206973206e6f74207468652061646d696e000000000000000000600082015250565b7f43616c6c6572206973206e6f74205465616d4469666600000000000000000000600082015250565b7f55736572206973206e6f7420696e204c65616775652e00000000000000000000600082015250565b7f55736572206973206e6f74206f6e2077686974656c6973742062726f00000000600082015250565b7f4e6f626f64792063616e20656e7465722f6578697420746865206c656167756560008201527f20616e796d6f72652e2054686520736561736f6e20686173207374617274656460208201527f2100000000000000000000000000000000000000000000000000000000000000604082015250565b7f43616c6c657220646f6573206e6f74206f776e20676976656e206174686c657460008201527f6549647300000000000000000000000000000000000000000000000000000000602082015250565b7f5265656e7472616e637947756172643a207265656e7472616e742063616c6c00600082015250565b7f4c656167756520456e74727920697320436c6f73656421000000000000000000600082015250565b62004bbe8162004520565b811462004bca57600080fd5b50565b62004bd88162004534565b811462004be457600080fd5b50565b62004bf28162004560565b811462004bfe57600080fd5b5056fe608060405234801561001057600080fd5b5061002d61002261003260201b60201c565b61003a60201b60201c565b6100fe565b600033905090565b60008060009054906101000a900473ffffffffffffffffffffffffffffffffffffffff169050816000806101000a81548173ffffffffffffffffffffffffffffffffffffffff021916908373ffffffffffffffffffffffffffffffffffffffff1602179055508173ffffffffffffffffffffffffffffffffffffffff168173ffffffffffffffffffffffffffffffffffffffff167f8be0079c531659141344cd1fd0a4f28419497f9722a3daafe3b4186f6b6457e060405160405180910390a35050565b610f4c8061010d6000396000f3fe608060405234801561001057600080fd5b50600436106100a95760003560e01c80638da5cb5b116100715780638da5cb5b146101665780639b19251a14610184578063dc9a1535146101b4578063e2ec6ec3146101d2578063e35a899914610202578063f2fde38b14610232576100a9565b806324953eaa146100ae578063286dd3f5146100de57806344eaa84e1461010e578063715018a61461012c5780637b9417c814610136575b600080fd5b6100c860048036038101906100c39190610ada565b61024e565b6040516100d59190610bb1565b60405180910390f35b6100f860048036038101906100f39190610aad565b61031e565b6040516101059190610bb1565b60405180910390f35b6101166104a1565b6040516101239190610c0c565b60405180910390f35b6101346104ab565b005b610150600480360381019061014b9190610aad565b610533565b60405161015d9190610bb1565b60405180910390f35b61016e6106b4565b60405161017b9190610b96565b60405180910390f35b61019e60048036038101906101999190610aad565b6106dd565b6040516101ab9190610bb1565b60405180910390f35b6101bc6106fd565b6040516101c99190610bb1565b60405180910390f35b6101ec60048036038101906101e79190610ada565b610710565b6040516101f99190610bb1565b60405180910390f35b61021c60048036038101906102179190610aad565b6107e0565b6040516102299190610bb1565b60405180910390f35b61024c60048036038101906102479190610aad565b610836565b005b600061025861092e565b73ffffffffffffffffffffffffffffffffffffffff166102766106b4565b73ffffffffffffffffffffffffffffffffffffffff16146102cc576040517f08c379a00000000000000000000000000000000000000000000000000000000081526004016102c390610bec565b60405180910390fd5b60005b8251811015610318576102fb8382815181106102ee576102ed610e04565b5b602002602001015161031e565b1561030557600191505b808061031090610d8c565b9150506102cf565b50919050565b600061032861092e565b73ffffffffffffffffffffffffffffffffffffffff166103466106b4565b73ffffffffffffffffffffffffffffffffffffffff161461039c576040517f08c379a000000000000000000000000000000000000000000000000000000000815260040161039390610bec565b60405180910390fd5b600160008373ffffffffffffffffffffffffffffffffffffffff1673ffffffffffffffffffffffffffffffffffffffff16815260200190815260200160002060009054906101000a900460ff161561049c576000600160008473ffffffffffffffffffffffffffffffffffffffff1673ffffffffffffffffffffffffffffffffffffffff16815260200190815260200160002060006101000a81548160ff0219169083151502179055507ff1abf01a1043b7c244d128e8595cf0c1d10743b022b03a02dffd8ca3bf729f5a826040516104759190610b96565b60405180910390a16001600260008282546104909190610cdf565b92505081905550600190505b919050565b6000600254905090565b6104b361092e565b73ffffffffffffffffffffffffffffffffffffffff166104d16106b4565b73ffffffffffffffffffffffffffffffffffffffff1614610527576040517f08c379a000000000000000000000000000000000000000000000000000000000815260040161051e90610bec565b60405180910390fd5b6105316000610936565b565b600061053d61092e565b73ffffffffffffffffffffffffffffffffffffffff1661055b6106b4565b73ffffffffffffffffffffffffffffffffffffffff16146105b1576040517f08c379a00000000000000000000000000000000000000000000000000000000081526004016105a890610bec565b60405180910390fd5b600160008373ffffffffffffffffffffffffffffffffffffffff1673ffffffffffffffffffffffffffffffffffffffff16815260200190815260200160002060009054906101000a900460ff166106af5760018060008473ffffffffffffffffffffffffffffffffffffffff1673ffffffffffffffffffffffffffffffffffffffff16815260200190815260200160002060006101000a81548160ff0219169083151502179055507fd1bba68c128cc3f427e5831b3c6f99f480b6efa6b9e80c757768f6124158cc3f826040516106889190610b96565b60405180910390a16001600260008282546106a39190610c89565b92505081905550600190505b919050565b60008060009054906101000a900473ffffffffffffffffffffffffffffffffffffffff16905090565b60016020528060005260406000206000915054906101000a900460ff1681565b600360009054906101000a900460ff1681565b600061071a61092e565b73ffffffffffffffffffffffffffffffffffffffff166107386106b4565b73ffffffffffffffffffffffffffffffffffffffff161461078e576040517f08c379a000000000000000000000000000000000000000000000000000000000815260040161078590610bec565b60405180910390fd5b60005b82518110156107da576107bd8382815181106107b0576107af610e04565b5b6020026020010151610533565b156107c757600191505b80806107d290610d8c565b915050610791565b50919050565b6000600160008373ffffffffffffffffffffffffffffffffffffffff1673ffffffffffffffffffffffffffffffffffffffff16815260200190815260200160002060009054906101000a900460ff169050919050565b61083e61092e565b73ffffffffffffffffffffffffffffffffffffffff1661085c6106b4565b73ffffffffffffffffffffffffffffffffffffffff16146108b2576040517f08c379a00000000000000000000000000000000000000000000000000000000081526004016108a990610bec565b60405180910390fd5b600073ffffffffffffffffffffffffffffffffffffffff168173ffffffffffffffffffffffffffffffffffffffff161415610922576040517f08c379a000000000000000000000000000000000000000000000000000000000815260040161091990610bcc565b60405180910390fd5b61092b81610936565b50565b600033905090565b60008060009054906101000a900473ffffffffffffffffffffffffffffffffffffffff169050816000806101000a81548173ffffffffffffffffffffffffffffffffffffffff021916908373ffffffffffffffffffffffffffffffffffffffff1602179055508173ffffffffffffffffffffffffffffffffffffffff168173ffffffffffffffffffffffffffffffffffffffff167f8be0079c531659141344cd1fd0a4f28419497f9722a3daafe3b4186f6b6457e060405160405180910390a35050565b6000610a0d610a0884610c4c565b610c27565b90508083825260208201905082856020860282011115610a3057610a2f610e67565b5b60005b85811015610a605781610a468882610a6a565b845260208401935060208301925050600181019050610a33565b5050509392505050565b600081359050610a7981610eff565b92915050565b600082601f830112610a9457610a93610e62565b5b8135610aa48482602086016109fa565b91505092915050565b600060208284031215610ac357610ac2610e71565b5b6000610ad184828501610a6a565b91505092915050565b600060208284031215610af057610aef610e71565b5b600082013567ffffffffffffffff811115610b0e57610b0d610e6c565b5b610b1a84828501610a7f565b91505092915050565b610b2c81610d13565b82525050565b610b3b81610d25565b82525050565b6000610b4e602683610c78565b9150610b5982610e87565b604082019050919050565b6000610b71602083610c78565b9150610b7c82610ed6565b602082019050919050565b610b9081610d51565b82525050565b6000602082019050610bab6000830184610b23565b92915050565b6000602082019050610bc66000830184610b32565b92915050565b60006020820190508181036000830152610be581610b41565b9050919050565b60006020820190508181036000830152610c0581610b64565b9050919050565b6000602082019050610c216000830184610b87565b92915050565b6000610c31610c42565b9050610c3d8282610d5b565b919050565b6000604051905090565b600067ffffffffffffffff821115610c6757610c66610e33565b5b602082029050602081019050919050565b600082825260208201905092915050565b6000610c9482610d51565b9150610c9f83610d51565b9250827fffffffffffffffffffffffffffffffffffffffffffffffffffffffffffffffff03821115610cd457610cd3610dd5565b5b828201905092915050565b6000610cea82610d51565b9150610cf583610d51565b925082821015610d0857610d07610dd5565b5b828203905092915050565b6000610d1e82610d31565b9050919050565b60008115159050919050565b600073ffffffffffffffffffffffffffffffffffffffff82169050919050565b6000819050919050565b610d6482610e76565b810181811067ffffffffffffffff82111715610d8357610d82610e33565b5b80604052505050565b6000610d9782610d51565b91507fffffffffffffffffffffffffffffffffffffffffffffffffffffffffffffffff821415610dca57610dc9610dd5565b5b600182019050919050565b7f4e487b7100000000000000000000000000000000000000000000000000000000600052601160045260246000fd5b7f4e487b7100000000000000000000000000000000000000000000000000000000600052603260045260246000fd5b7f4e487b7100000000000000000000000000000000000000000000000000000000600052604160045260246000fd5b600080fd5b600080fd5b600080fd5b600080fd5b6000601f19601f8301169050919050565b7f4f776e61626c653a206e6577206f776e657220697320746865207a65726f206160008201527f6464726573730000000000000000000000000000000000000000000000000000602082015250565b7f4f776e61626c653a2063616c6c6572206973206e6f7420746865206f776e6572600082015250565b610f0881610d13565b8114610f1357600080fd5b5056fea264697066735822122025b390357f22f9269bde80291a8d0e54585b05677bc0732b426001d35eb8569364736f6c63430008070033a26469706673582212201e287601c02b1fa05aa265cf3ca793e839e6e4736dab56ff5c874f045d7f02d464736f6c63430008070033",
  "linkReferences": {
    "contracts/MOBALogicLibrary.sol": {
      "MOBALogicLibrary": [
        {
          "length": 20,
          "start": 2950
        },
        {
          "length": 20,
          "start": 3292
        },
        {
          "length": 20,
          "start": 5376
        }
      ]
    }
  },
  "deployedLinkReferences": {
    "contracts/MOBALogicLibrary.sol": {
      "MOBALogicLibrary": [
        {
          "length": 20,
          "start": 2665
        },
        {
          "length": 20,
          "start": 3007
        },
        {
          "length": 20,
          "start": 5091
        }
      ]
    }
  }
}