{
  "_format": "hh-sol-artifact-1",
  "contractName": "LeagueOfLegendsLogic",
  "sourceName": "contracts/LeagueOfLegendsLogic.sol",
  "abi": [
    {
      "anonymous": false,
      "inputs": [
        {
          "indexed": true,
          "internalType": "address",
          "name": "previousOwner",
          "type": "address"
        },
        {
          "indexed": true,
          "internalType": "address",
          "name": "newOwner",
          "type": "address"
        }
      ],
      "name": "OwnershipTransferred",
      "type": "event"
    },
    {
      "anonymous": false,
      "inputs": [
        {
          "indexed": false,
          "internalType": "address",
          "name": "sender",
          "type": "address"
        },
        {
          "indexed": false,
          "internalType": "uint256",
          "name": "amount",
          "type": "uint256"
        }
      ],
      "name": "Staked",
      "type": "event"
    },
    {
      "anonymous": false,
      "inputs": [
        {
          "indexed": false,
          "internalType": "address",
          "name": "addr",
          "type": "address"
        }
      ],
      "name": "WhitelistedAddressAdded",
      "type": "event"
    },
    {
      "anonymous": false,
      "inputs": [
        {
          "indexed": false,
          "internalType": "address",
          "name": "addr",
          "type": "address"
        }
      ],
      "name": "WhitelistedAddressRemoved",
      "type": "event"
    },
    {
      "anonymous": false,
      "inputs": [
        {
          "indexed": false,
          "internalType": "address",
          "name": "sender",
          "type": "address"
        },
        {
          "indexed": false,
          "internalType": "address",
          "name": "contractAddress",
          "type": "address"
        }
      ],
      "name": "testUSDCDeployed",
      "type": "event"
    },
    {
      "inputs": [
        {
          "internalType": "address",
          "name": "addr",
          "type": "address"
        }
      ],
      "name": "addAddressToWhitelist",
      "outputs": [
        {
          "internalType": "bool",
          "name": "success",
          "type": "bool"
        }
      ],
      "stateMutability": "nonpayable",
      "type": "function"
    },
    {
      "inputs": [
        {
          "internalType": "address[]",
          "name": "addrs",
          "type": "address[]"
        }
      ],
      "name": "addAddressesToWhitelist",
      "outputs": [
        {
          "internalType": "bool",
          "name": "success",
          "type": "bool"
        }
      ],
      "stateMutability": "nonpayable",
      "type": "function"
    },
    {
      "inputs": [
        {
          "internalType": "address",
          "name": "_userToAdd",
          "type": "address"
        }
      ],
      "name": "addUserToWhitelist",
      "outputs": [],
      "stateMutability": "nonpayable",
      "type": "function"
    },
    {
      "inputs": [],
      "name": "admin",
      "outputs": [
        {
          "internalType": "address",
          "name": "",
          "type": "address"
        }
      ],
      "stateMutability": "view",
      "type": "function"
    },
    {
      "inputs": [],
      "name": "evaluateWeek",
      "outputs": [],
      "stateMutability": "nonpayable",
      "type": "function"
    },
    {
      "inputs": [],
      "name": "getLineupIsLocked",
      "outputs": [
        {
          "internalType": "bool",
          "name": "",
          "type": "bool"
        }
      ],
      "stateMutability": "view",
      "type": "function"
    },
    {
      "inputs": [],
      "name": "getNumWhitelisted",
      "outputs": [
        {
          "internalType": "uint256",
          "name": "",
          "type": "uint256"
        }
      ],
      "stateMutability": "view",
      "type": "function"
    },
    {
      "inputs": [
        {
          "internalType": "address",
          "name": "_user",
          "type": "address"
        }
      ],
      "name": "getUserIsWhitelisted",
      "outputs": [
        {
          "internalType": "bool",
          "name": "",
          "type": "bool"
        }
      ],
      "stateMutability": "view",
      "type": "function"
    },
    {
      "inputs": [],
      "name": "getUserRecord",
      "outputs": [
        {
          "internalType": "uint256[8]",
          "name": "",
          "type": "uint256[8]"
        }
      ],
      "stateMutability": "view",
      "type": "function"
    },
    {
      "inputs": [],
      "name": "getUserTotalPts",
      "outputs": [
        {
          "internalType": "uint256",
          "name": "",
          "type": "uint256"
        }
      ],
      "stateMutability": "view",
      "type": "function"
    },
    {
      "inputs": [],
      "name": "getUserUSDCBalance",
      "outputs": [
        {
          "internalType": "uint256",
          "name": "",
          "type": "uint256"
        }
      ],
      "stateMutability": "view",
      "type": "function"
    },
    {
      "inputs": [],
      "name": "getUsersLength",
      "outputs": [
        {
          "internalType": "uint256",
          "name": "",
          "type": "uint256"
        }
      ],
      "stateMutability": "view",
      "type": "function"
    },
    {
      "inputs": [
        {
          "internalType": "address",
          "name": "",
          "type": "address"
        }
      ],
      "name": "inLeague",
      "outputs": [
        {
          "internalType": "bool",
          "name": "",
          "type": "bool"
        }
      ],
      "stateMutability": "view",
      "type": "function"
    },
    {
      "inputs": [
        {
          "internalType": "string",
          "name": "_name",
          "type": "string"
        },
        {
          "internalType": "uint256",
          "name": "_stakeAmount",
          "type": "uint256"
        },
        {
          "internalType": "bool",
          "name": "_isPublic",
          "type": "bool"
        },
        {
          "internalType": "address",
          "name": "athletesDataStorageAddress",
          "type": "address"
        },
        {
          "internalType": "address",
          "name": "_admin",
          "type": "address"
        },
        {
          "internalType": "address",
          "name": "_polygonUSDCAddress",
          "type": "address"
        },
        {
          "internalType": "address",
          "name": "_rinkebyUSDCAddress",
          "type": "address"
        },
        {
          "internalType": "address",
          "name": "_testUSDCAddress",
          "type": "address"
        },
        {
          "internalType": "address",
          "name": "_teamDiffAddress",
          "type": "address"
        },
        {
          "internalType": "address",
          "name": "_leagueMakerContractAddress",
          "type": "address"
        }
      ],
      "name": "initialize",
      "outputs": [],
      "stateMutability": "nonpayable",
      "type": "function"
    },
    {
      "inputs": [],
      "name": "isPublic",
      "outputs": [
        {
          "internalType": "bool",
          "name": "",
          "type": "bool"
        }
      ],
      "stateMutability": "view",
      "type": "function"
    },
    {
      "inputs": [],
      "name": "joinLeague",
      "outputs": [],
      "stateMutability": "nonpayable",
      "type": "function"
    },
    {
      "inputs": [],
      "name": "leagueEntryIsClosed",
      "outputs": [
        {
          "internalType": "bool",
          "name": "",
          "type": "bool"
        }
      ],
      "stateMutability": "view",
      "type": "function"
    },
    {
      "inputs": [
        {
          "internalType": "uint256",
          "name": "",
          "type": "uint256"
        }
      ],
      "name": "leagueMembers",
      "outputs": [
        {
          "internalType": "address",
          "name": "",
          "type": "address"
        }
      ],
      "stateMutability": "view",
      "type": "function"
    },
    {
      "inputs": [],
      "name": "leagueName",
      "outputs": [
        {
          "internalType": "string",
          "name": "",
          "type": "string"
        }
      ],
      "stateMutability": "view",
      "type": "function"
    },
    {
      "inputs": [],
      "name": "lineupIsLocked",
      "outputs": [
        {
          "internalType": "bool",
          "name": "",
          "type": "bool"
        }
      ],
      "stateMutability": "view",
      "type": "function"
    },
    {
      "inputs": [],
      "name": "lockLineup",
      "outputs": [],
      "stateMutability": "nonpayable",
      "type": "function"
    },
    {
      "inputs": [],
      "name": "numWeeks",
      "outputs": [
        {
          "internalType": "uint256",
          "name": "",
          "type": "uint256"
        }
      ],
      "stateMutability": "view",
      "type": "function"
    },
    {
      "inputs": [],
      "name": "onLeagueEnd",
      "outputs": [],
      "stateMutability": "nonpayable",
      "type": "function"
    },
    {
      "inputs": [],
      "name": "owner",
      "outputs": [
        {
          "internalType": "address",
          "name": "",
          "type": "address"
        }
      ],
      "stateMutability": "view",
      "type": "function"
    },
    {
      "inputs": [],
      "name": "polygonUSDCAddress",
      "outputs": [
        {
          "internalType": "address",
          "name": "",
          "type": "address"
        }
      ],
      "stateMutability": "view",
      "type": "function"
    },
    {
      "inputs": [
        {
          "internalType": "address",
          "name": "addr",
          "type": "address"
        }
      ],
      "name": "removeAddressFromWhitelist",
      "outputs": [
        {
          "internalType": "bool",
          "name": "success",
          "type": "bool"
        }
      ],
      "stateMutability": "nonpayable",
      "type": "function"
    },
    {
      "inputs": [
        {
          "internalType": "address[]",
          "name": "addrs",
          "type": "address[]"
        }
      ],
      "name": "removeAddressesFromWhitelist",
      "outputs": [
        {
          "internalType": "bool",
          "name": "success",
          "type": "bool"
        }
      ],
      "stateMutability": "nonpayable",
      "type": "function"
    },
    {
      "inputs": [
        {
          "internalType": "address",
          "name": "_userToRemove",
          "type": "address"
        }
      ],
      "name": "removeFromWhitelist",
      "outputs": [],
      "stateMutability": "nonpayable",
      "type": "function"
    },
    {
      "inputs": [],
      "name": "renounceOwnership",
      "outputs": [],
      "stateMutability": "nonpayable",
      "type": "function"
    },
    {
      "inputs": [],
      "name": "rinkebyUSDCAddress",
      "outputs": [
        {
          "internalType": "address",
          "name": "",
          "type": "address"
        }
      ],
      "stateMutability": "view",
      "type": "function"
    },
    {
      "inputs": [],
      "name": "setLeagueEntryIsClosed",
      "outputs": [],
      "stateMutability": "nonpayable",
      "type": "function"
    },
    {
      "inputs": [],
      "name": "setLeagueSchedule",
      "outputs": [],
      "stateMutability": "nonpayable",
      "type": "function"
    },
    {
      "inputs": [
        {
          "internalType": "uint256[]",
          "name": "athleteIds",
          "type": "uint256[]"
        }
      ],
      "name": "setLineup",
      "outputs": [],
      "stateMutability": "nonpayable",
      "type": "function"
    },
    {
      "inputs": [],
      "name": "stakeAmount",
      "outputs": [
        {
          "internalType": "uint256",
          "name": "",
          "type": "uint256"
        }
      ],
      "stateMutability": "view",
      "type": "function"
    },
    {
      "inputs": [],
      "name": "teamDiffAddress",
      "outputs": [
        {
          "internalType": "address",
          "name": "",
          "type": "address"
        }
      ],
      "stateMutability": "view",
      "type": "function"
    },
    {
      "inputs": [],
      "name": "testUSDC",
      "outputs": [
        {
          "internalType": "contract IERC20",
          "name": "",
          "type": "address"
        }
      ],
      "stateMutability": "view",
      "type": "function"
    },
    {
      "inputs": [
        {
          "internalType": "address",
          "name": "newOwner",
          "type": "address"
        }
      ],
      "name": "transferOwnership",
      "outputs": [],
      "stateMutability": "nonpayable",
      "type": "function"
    },
    {
      "inputs": [],
      "name": "unlockLineup",
      "outputs": [],
      "stateMutability": "nonpayable",
      "type": "function"
    },
    {
      "inputs": [
        {
          "internalType": "address",
          "name": "",
          "type": "address"
        },
        {
          "internalType": "uint256",
          "name": "",
          "type": "uint256"
        }
      ],
      "name": "userToLineup",
      "outputs": [
        {
          "internalType": "uint256",
          "name": "",
          "type": "uint256"
        }
      ],
      "stateMutability": "view",
      "type": "function"
    },
    {
      "inputs": [
        {
          "internalType": "address",
          "name": "",
          "type": "address"
        },
        {
          "internalType": "uint256",
          "name": "",
          "type": "uint256"
        }
      ],
      "name": "userToRecord",
      "outputs": [
        {
          "internalType": "uint256",
          "name": "",
          "type": "uint256"
        }
      ],
      "stateMutability": "view",
      "type": "function"
    },
    {
      "inputs": [
        {
          "internalType": "address",
          "name": "",
          "type": "address"
        }
      ],
      "name": "userToTotalWins",
      "outputs": [
        {
          "internalType": "uint256",
          "name": "",
          "type": "uint256"
        }
      ],
      "stateMutability": "view",
      "type": "function"
    },
    {
      "inputs": [
        {
          "internalType": "address",
          "name": "",
          "type": "address"
        }
      ],
      "name": "whitelist",
      "outputs": [
        {
          "internalType": "bool",
          "name": "",
          "type": "bool"
        }
      ],
      "stateMutability": "view",
      "type": "function"
    }
  ],
  "bytecode": "0x60806040523480156200001157600080fd5b5062000032620000266200004060201b60201c565b6200004860201b60201c565b60016004819055506200010d565b600033905090565b60008060029054906101000a900473ffffffffffffffffffffffffffffffffffffffff16905081600060026101000a81548173ffffffffffffffffffffffffffffffffffffffff021916908373ffffffffffffffffffffffffffffffffffffffff1602179055508173ffffffffffffffffffffffffffffffffffffffff168173ffffffffffffffffffffffffffffffffffffffff167f8be0079c531659141344cd1fd0a4f28419497f9722a3daafe3b4186f6b6457e060405160405180910390a35050565b61579d806200011d6000396000f3fe60806040523480156200001157600080fd5b5060043610620002975760003560e01c80637eed33f11162000165578063c99fea9411620000d5578063e4c9066b1162000093578063e4c9066b146200078c578063edcbe96c1462000798578063f2fde38b14620007ce578063f612121a14620007ee578063f851a440146200080e578063f881604514620008305762000297565b8063c99fea9414620006bc578063cff5600314620006c8578063dc9a153514620006fe578063e2ec6ec31462000720578063e35a899914620007565762000297565b80639122ce6d11620001235780639122ce6d146200061657806393f3706c146200064c5780639b19251a146200066e578063a2bc091a14620006a4578063c8be3b5b14620006b05762000297565b80637eed33f11462000584578063841abf6e14620005a657806385334ffa14620005c85780638ab1d68114620005d45780638da5cb5b14620005f45762000297565b8063286dd3f5116200020d57806360c7dc4711620001cb57806360c7dc4714620004bc5780636bdc44df14620004de5780636cc15ad51462000500578063715018a61462000522578063747b8050146200052e5780637b9417c8146200054e5762000297565b8063286dd3f514620004005780633c3ae13f146200043657806344eaa84e1462000456578063595b1a3e14620004785780635fcc6987146200049a5762000297565b80631d803e00116200025b5780631d803e0014620003445780631dd7f8ca146200035057806324953eaa1462000372578063267175db14620003a857806327311b3214620003de5762000297565b8062b2476f146200029c578063022e35e614620002be5780630635dbcb14620002e05780630655465a14620003025780630c6f7959146200030e575b600080fd5b620002a662000852565b604051620002b5919062003a56565b60405180910390f35b620002c862000878565b604051620002d7919062003b18565b60405180910390f35b620002ea6200089e565b604051620002f9919062003afb565b60405180910390f35b6200030c620008b1565b005b6200032c600480360381019062000326919062003390565b620009fc565b6040516200033b919062003e4c565b60405180910390f35b6200034e62000a25565b005b6200035a62000cd3565b60405162000369919062003a56565b60405180910390f35b6200039060048036038101906200038a9190620033d7565b62000cf9565b6040516200039f919062003afb565b60405180910390f35b620003c66004803603810190620003c09190620035c5565b62000df6565b604051620003d5919062003a56565b60405180910390f35b620003e862000e36565b604051620003f7919062003afb565b60405180910390f35b6200041e60048036038101906200041891906200335e565b62000e4d565b6040516200042d919062003afb565b60405180910390f35b6200045460048036038101906200044e9190620034ab565b62000fdc565b005b6200046062001475565b6040516200046f919062003e4c565b60405180910390f35b620004826200147f565b60405162000491919062003e4c565b60405180910390f35b620004a46200148c565b604051620004b3919062003e4c565b60405180910390f35b620004c66200159b565b604051620004d5919062003e4c565b60405180910390f35b620004e8620015a1565b604051620004f7919062003e4c565b60405180910390f35b6200050a620015e8565b60405162000519919062003afb565b60405180910390f35b6200052c620015fb565b005b6200054c60048036038101906200054691906200335e565b6200168c565b005b6200056c60048036038101906200056691906200335e565b620017d6565b6040516200057b919062003afb565b60405180910390f35b6200058e62001963565b6040516200059d919062003e4c565b60405180910390f35b620005b062001969565b604051620005bf919062003bf6565b60405180910390f35b620005d2620019ff565b005b620005f26004803603810190620005ec91906200335e565b62001bd8565b005b620005fe62001d75565b6040516200060d919062003a56565b60405180910390f35b6200063460048036038101906200062e91906200335e565b62001d9e565b60405162000643919062003afb565b60405180910390f35b6200065662001dbe565b60405162000665919062003a56565b60405180910390f35b6200068c60048036038101906200068691906200335e565b62001de4565b6040516200069b919062003afb565b60405180910390f35b620006ae62001e04565b005b620006ba62001eb4565b005b620006c662001f88565b005b620006e66004803603810190620006e0919062003390565b62002416565b604051620006f5919062003e4c565b60405180910390f35b6200070862002448565b60405162000717919062003afb565b60405180910390f35b6200073e6004803603810190620007389190620033d7565b6200245b565b6040516200074d919062003afb565b60405180910390f35b6200077460048036038101906200076e91906200335e565b62002558565b60405162000783919062003afb565b60405180910390f35b62000796620025ae565b005b620007b66004803603810190620007b091906200335e565b6200265e565b604051620007c5919062003e4c565b60405180910390f35b620007ec6004803603810190620007e691906200335e565b62002676565b005b6200080c600480360381019062000806919062003428565b6200277a565b005b6200081862002ce2565b60405162000827919062003a56565b60405180910390f35b6200083a62002d08565b60405162000849919062003add565b60405180910390f35b601260009054906101000a900473ffffffffffffffffffffffffffffffffffffffff1681565b601660009054906101000a900473ffffffffffffffffffffffffffffffffffffffff1681565b600960159054906101000a900460ff1681565b600960009054906101000a900473ffffffffffffffffffffffffffffffffffffffff1673ffffffffffffffffffffffffffffffffffffffff163373ffffffffffffffffffffffffffffffffffffffff161462000944576040517f08c379a00000000000000000000000000000000000000000000000000000000081526004016200093b9062003da2565b60405180910390fd5b620009846040518060400160405280601081526020017f73657474696e67207363686564756c650000000000000000000000000000000081525062002d94565b73__$36fdb4e0c2cb91f3ceca5ea81b025328f3$__63d2c232b56010600f60065460056040518563ffffffff1660e01b8152600401620009c8949392919062003b35565b60006040518083038186803b158015620009e157600080fd5b505af4158015620009f6573d6000803e3d6000fd5b50505050565b600b602052816000526040600020816008811062000a1957600080fd5b01600091509150505481565b6002600454141562000a6e576040517f08c379a000000000000000000000000000000000000000000000000000000000815260040162000a659062003e08565b60405180910390fd5b60026004819055506000600f8054905060075462000a8d919062003fbc565b90506000600f60008154811062000aa95762000aa86200426f565b5b9060005260206000200160009054906101000a900473ffffffffffffffffffffffffffffffffffffffff1690506000600190505b600f8054905081101562000c0e57600a60008373ffffffffffffffffffffffffffffffffffffffff1673ffffffffffffffffffffffffffffffffffffffff16815260200190815260200160002054600a6000600f848154811062000b465762000b456200426f565b5b9060005260206000200160009054906101000a900473ffffffffffffffffffffffffffffffffffffffff1673ffffffffffffffffffffffffffffffffffffffff1673ffffffffffffffffffffffffffffffffffffffff16815260200190815260200160002054111562000bf857600f818154811062000bca5762000bc96200426f565b5b9060005260206000200160009054906101000a900473ffffffffffffffffffffffffffffffffffffffff1691505b808062000c0590620041c3565b91505062000add565b50601660009054906101000a900473ffffffffffffffffffffffffffffffffffffffff1673ffffffffffffffffffffffffffffffffffffffff166323b872dd3083856040518463ffffffff1660e01b815260040162000c709392919062003a73565b602060405180830381600087803b15801562000c8b57600080fd5b505af115801562000ca0573d6000803e3d6000fd5b505050506040513d601f19601f8201168201806040525081019062000cc6919062003479565b5050506001600481905550565b600960009054906101000a900473ffffffffffffffffffffffffffffffffffffffff1681565b600062000d0562002e31565b73ffffffffffffffffffffffffffffffffffffffff1662000d2562001d75565b73ffffffffffffffffffffffffffffffffffffffff161462000d7e576040517f08c379a000000000000000000000000000000000000000000000000000000000815260040162000d759062003d5e565b60405180910390fd5b60005b825181101562000df05762000db383828151811062000da55762000da46200426f565b5b602002602001015162000e4d565b1562000dda5760016002600082825462000dce91906200401d565b92505081905550600191505b808062000de790620041c3565b91505062000d81565b50919050565b600f818154811062000e0757600080fd5b906000526020600020016000915054906101000a900473ffffffffffffffffffffffffffffffffffffffff1681565b6000600960159054906101000a900460ff16905090565b600062000e5962002e31565b73ffffffffffffffffffffffffffffffffffffffff1662000e7962001d75565b73ffffffffffffffffffffffffffffffffffffffff161462000ed2576040517f08c379a000000000000000000000000000000000000000000000000000000000815260040162000ec99062003d5e565b60405180910390fd5b600160008373ffffffffffffffffffffffffffffffffffffffff1673ffffffffffffffffffffffffffffffffffffffff16815260200190815260200160002060009054906101000a900460ff161562000fd7576000600160008473ffffffffffffffffffffffffffffffffffffffff1673ffffffffffffffffffffffffffffffffffffffff16815260200190815260200160002060006101000a81548160ff0219169083151502179055507ff1abf01a1043b7c244d128e8595cf0c1d10743b022b03a02dffd8ca3bf729f5a8260405162000fae919062003a56565b60405180910390a160016002600082825462000fcb91906200401d565b92505081905550600190505b919050565b600060019054906101000a900460ff16620010065760008054906101000a900460ff161562001011565b6200101062002e39565b5b62001053576040517f08c379a00000000000000000000000000000000000000000000000000000000081526004016200104a9062003d3c565b60405180910390fd5b60008060019054906101000a900460ff161590508015620010a4576001600060016101000a81548160ff02191690831515021790555060016000806101000a81548160ff0219169083151502179055505b8b8b60059190620010b792919062002ffd565b5060086006819055506001600e60008973ffffffffffffffffffffffffffffffffffffffff1673ffffffffffffffffffffffffffffffffffffffff16815260200190815260200160002060006101000a81548160ff021916908315150217905550600f879080600181540180825580915050600190039060005260206000200160009091909190916101000a81548173ffffffffffffffffffffffffffffffffffffffff021916908373ffffffffffffffffffffffffffffffffffffffff16021790555086600860006101000a81548173ffffffffffffffffffffffffffffffffffffffff021916908373ffffffffffffffffffffffffffffffffffffffff1602179055508960078190555088600360006101000a81548160ff0219169083151502179055506000600960146101000a81548160ff0219169083151502179055506000600960156101000a81548160ff02191690831515021790555087601360006101000a81548173ffffffffffffffffffffffffffffffffffffffff021916908373ffffffffffffffffffffffffffffffffffffffff16021790555081601560006101000a81548173ffffffffffffffffffffffffffffffffffffffff021916908373ffffffffffffffffffffffffffffffffffffffff160217905550604051620012a3906200308e565b604051809103906000f080158015620012c0573d6000803e3d6000fd5b50601460006101000a81548173ffffffffffffffffffffffffffffffffffffffff021916908373ffffffffffffffffffffffffffffffffffffffff16021790555085601160006101000a81548173ffffffffffffffffffffffffffffffffffffffff021916908373ffffffffffffffffffffffffffffffffffffffff16021790555084601260006101000a81548173ffffffffffffffffffffffffffffffffffffffff021916908373ffffffffffffffffffffffffffffffffffffffff16021790555083601660006101000a81548173ffffffffffffffffffffffffffffffffffffffff021916908373ffffffffffffffffffffffffffffffffffffffff16021790555082600960006101000a81548173ffffffffffffffffffffffffffffffffffffffff021916908373ffffffffffffffffffffffffffffffffffffffff160217905550620014456040518060400160405280601281526020017f50726f787920696e697469616c697a656421000000000000000000000000000081525062002d94565b8015620014675760008060016101000a81548160ff0219169083151502179055505b505050505050505050505050565b6000600254905090565b6000600f80549050905090565b6000600e60003373ffffffffffffffffffffffffffffffffffffffff1673ffffffffffffffffffffffffffffffffffffffff16815260200190815260200160002060009054906101000a900460ff16620014e557600080fd5b601660009054906101000a900473ffffffffffffffffffffffffffffffffffffffff1673ffffffffffffffffffffffffffffffffffffffff166370a08231336040518263ffffffff1660e01b815260040162001542919062003a56565b60206040518083038186803b1580156200155b57600080fd5b505afa15801562001570573d6000803e3d6000fd5b505050506040513d601f19601f82011682018060405250810190620015969190620035f7565b905090565b60075481565b6000600a60003373ffffffffffffffffffffffffffffffffffffffff1673ffffffffffffffffffffffffffffffffffffffff16815260200190815260200160002054905090565b600960149054906101000a900460ff1681565b6200160562002e31565b73ffffffffffffffffffffffffffffffffffffffff166200162562001d75565b73ffffffffffffffffffffffffffffffffffffffff16146200167e576040517f08c379a0000000000000000000000000000000000000000000000000000000008152600401620016759062003d5e565b60405180910390fd5b6200168a600062002e4c565b565b600860009054906101000a900473ffffffffffffffffffffffffffffffffffffffff1673ffffffffffffffffffffffffffffffffffffffff163373ffffffffffffffffffffffffffffffffffffffff16146200171f576040517f08c379a0000000000000000000000000000000000000000000000000000000008152600401620017169062003d80565b60405180910390fd5b601460009054906101000a900473ffffffffffffffffffffffffffffffffffffffff1673ffffffffffffffffffffffffffffffffffffffff16637b9417c8826040518263ffffffff1660e01b81526004016200177c919062003a56565b602060405180830381600087803b1580156200179757600080fd5b505af1158015620017ac573d6000803e3d6000fd5b505050506040513d601f19601f82011682018060405250810190620017d2919062003479565b5050565b6000620017e262002e31565b73ffffffffffffffffffffffffffffffffffffffff166200180262001d75565b73ffffffffffffffffffffffffffffffffffffffff16146200185b576040517f08c379a0000000000000000000000000000000000000000000000000000000008152600401620018529062003d5e565b60405180910390fd5b600160008373ffffffffffffffffffffffffffffffffffffffff1673ffffffffffffffffffffffffffffffffffffffff16815260200190815260200160002060009054906101000a900460ff166200195e5760018060008473ffffffffffffffffffffffffffffffffffffffff1673ffffffffffffffffffffffffffffffffffffffff16815260200190815260200160002060006101000a81548160ff0219169083151502179055507fd1bba68c128cc3f427e5831b3c6f99f480b6efa6b9e80c757768f6124158cc3f8260405162001935919062003a56565b60405180910390a160016002600082825462001952919062003f5f565b92505081905550600190505b919050565b60065481565b60058054620019789062004157565b80601f0160208091040260200160405190810160405280929190818152602001828054620019a69062004157565b8015620019f75780601f10620019cb57610100808354040283529160200191620019f7565b820191906000526020600020905b815481529060010190602001808311620019d957829003601f168201915b505050505081565b600960009054906101000a900473ffffffffffffffffffffffffffffffffffffffff1673ffffffffffffffffffffffffffffffffffffffff163373ffffffffffffffffffffffffffffffffffffffff161462001a92576040517f08c379a000000000000000000000000000000000000000000000000000000000815260040162001a899062003da2565b60405180910390fd5b6000601560009054906101000a900473ffffffffffffffffffffffffffffffffffffffff1673ffffffffffffffffffffffffffffffffffffffff166306575c896040518163ffffffff1660e01b815260040160206040518083038186803b15801562001afd57600080fd5b505afa15801562001b12573d6000803e3d6000fd5b505050506040513d601f19601f8201168201806040525081019062001b389190620035f7565b905073__$36fdb4e0c2cb91f3ceca5ea81b025328f3$__63c406e268601083601360009054906101000a900473ffffffffffffffffffffffffffffffffffffffff16600b600a600d6040518763ffffffff1660e01b815260040162001ba39695949392919062003b89565b60006040518083038186803b15801562001bbc57600080fd5b505af415801562001bd1573d6000803e3d6000fd5b5050505050565b600860009054906101000a900473ffffffffffffffffffffffffffffffffffffffff1673ffffffffffffffffffffffffffffffffffffffff163373ffffffffffffffffffffffffffffffffffffffff161462001c6b576040517f08c379a000000000000000000000000000000000000000000000000000000000815260040162001c629062003d80565b60405180910390fd5b600960149054906101000a900460ff161562001cbe576040517f08c379a000000000000000000000000000000000000000000000000000000000815260040162001cb59062003de6565b60405180910390fd5b601460009054906101000a900473ffffffffffffffffffffffffffffffffffffffff1673ffffffffffffffffffffffffffffffffffffffff1663286dd3f5826040518263ffffffff1660e01b815260040162001d1b919062003a56565b602060405180830381600087803b15801562001d3657600080fd5b505af115801562001d4b573d6000803e3d6000fd5b505050506040513d601f19601f8201168201806040525081019062001d71919062003479565b5050565b60008060029054906101000a900473ffffffffffffffffffffffffffffffffffffffff16905090565b600e6020528060005260406000206000915054906101000a900460ff1681565b601160009054906101000a900473ffffffffffffffffffffffffffffffffffffffff1681565b60016020528060005260406000206000915054906101000a900460ff1681565b600960009054906101000a900473ffffffffffffffffffffffffffffffffffffffff1673ffffffffffffffffffffffffffffffffffffffff163373ffffffffffffffffffffffffffffffffffffffff161462001e97576040517f08c379a000000000000000000000000000000000000000000000000000000000815260040162001e8e9062003da2565b60405180910390fd5b6000600960156101000a81548160ff021916908315150217905550565b600960009054906101000a900473ffffffffffffffffffffffffffffffffffffffff1673ffffffffffffffffffffffffffffffffffffffff163373ffffffffffffffffffffffffffffffffffffffff161462001f47576040517f08c379a000000000000000000000000000000000000000000000000000000000815260040162001f3e9062003da2565b60405180910390fd5b62001f6b604051806060016040528060248152602001620057446024913962002d94565b6001600960156101000a81548160ff021916908315150217905550565b600160003373ffffffffffffffffffffffffffffffffffffffff1673ffffffffffffffffffffffffffffffffffffffff16815260200190815260200160002060009054906101000a900460ff168062001fed5750600360009054906101000a900460ff165b6200202f576040517f08c379a0000000000000000000000000000000000000000000000000000000008152600401620020269062003cb4565b60405180910390fd5b6002600454141562002078576040517f08c379a00000000000000000000000000000000000000000000000000000000081526004016200206f9062003e08565b60405180910390fd5b6002600481905550600960149054906101000a900460ff1615620020d3576040517f08c379a0000000000000000000000000000000000000000000000000000000008152600401620020ca9062003e2a565b60405180910390fd5b600e60003373ffffffffffffffffffffffffffffffffffffffff1673ffffffffffffffffffffffffffffffffffffffff16815260200190815260200160002060009054906101000a900460ff161562002163576040517f08c379a00000000000000000000000000000000000000000000000000000000081526004016200215a9062003c92565b60405180910390fd5b600754601660009054906101000a900473ffffffffffffffffffffffffffffffffffffffff1673ffffffffffffffffffffffffffffffffffffffff166370a08231336040518263ffffffff1660e01b8152600401620021c3919062003a56565b60206040518083038186803b158015620021dc57600080fd5b505afa158015620021f1573d6000803e3d6000fd5b505050506040513d601f19601f82011682018060405250810190620022179190620035f7565b116200225a576040517f08c379a0000000000000000000000000000000000000000000000000000000008152600401620022519062003c70565b60405180910390fd5b6001600e60003373ffffffffffffffffffffffffffffffffffffffff1673ffffffffffffffffffffffffffffffffffffffff16815260200190815260200160002060006101000a81548160ff021916908315150217905550600f339080600181540180825580915050600190039060005260206000200160009091909190916101000a81548173ffffffffffffffffffffffffffffffffffffffff021916908373ffffffffffffffffffffffffffffffffffffffff160217905550601660009054906101000a900473ffffffffffffffffffffffffffffffffffffffff1673ffffffffffffffffffffffffffffffffffffffff166323b872dd33306007546040518463ffffffff1660e01b8152600401620023789392919062003a73565b602060405180830381600087803b1580156200239357600080fd5b505af1158015620023a8573d6000803e3d6000fd5b505050506040513d601f19601f82011682018060405250810190620023ce919062003479565b507f9e71bc8eea02a63969f509818f2dafb9254532904319f9dbda79b67bd34a5f3d336007546040516200240492919062003ab0565b60405180910390a16001600481905550565b600d60205281600052604060002081815481106200243357600080fd5b90600052602060002001600091509150505481565b600360009054906101000a900460ff1681565b60006200246762002e31565b73ffffffffffffffffffffffffffffffffffffffff166200248762001d75565b73ffffffffffffffffffffffffffffffffffffffff1614620024e0576040517f08c379a0000000000000000000000000000000000000000000000000000000008152600401620024d79062003d5e565b60405180910390fd5b60005b82518110156200255257620025158382815181106200250757620025066200426f565b5b6020026020010151620017d6565b156200253c5760016002600082825462002530919062003f5f565b92505081905550600191505b80806200254990620041c3565b915050620024e3565b50919050565b6000600160008373ffffffffffffffffffffffffffffffffffffffff1673ffffffffffffffffffffffffffffffffffffffff16815260200190815260200160002060009054906101000a900460ff169050919050565b600960009054906101000a900473ffffffffffffffffffffffffffffffffffffffff1673ffffffffffffffffffffffffffffffffffffffff163373ffffffffffffffffffffffffffffffffffffffff161462002641576040517f08c379a0000000000000000000000000000000000000000000000000000000008152600401620026389062003da2565b60405180910390fd5b6001600960146101000a81548160ff021916908315150217905550565b600a6020528060005260406000206000915090505481565b6200268062002e31565b73ffffffffffffffffffffffffffffffffffffffff16620026a062001d75565b73ffffffffffffffffffffffffffffffffffffffff1614620026f9576040517f08c379a0000000000000000000000000000000000000000000000000000000008152600401620026f09062003d5e565b60405180910390fd5b600073ffffffffffffffffffffffffffffffffffffffff168173ffffffffffffffffffffffffffffffffffffffff1614156200276c576040517f08c379a0000000000000000000000000000000000000000000000000000000008152600401620027639062003c4e565b60405180910390fd5b620027778162002e4c565b50565b600960159054906101000a900460ff1615620027cd576040517f08c379a0000000000000000000000000000000000000000000000000000000008152600401620027c49062003d1a565b60405180910390fd5b600e60003373ffffffffffffffffffffffffffffffffffffffff1673ffffffffffffffffffffffffffffffffffffffff16815260200190815260200160002060009054906101000a900460ff166200285c576040517f08c379a0000000000000000000000000000000000000000000000000000000008152600401620028539062003dc4565b60405180910390fd5b6000600d60003373ffffffffffffffffffffffffffffffffffffffff1673ffffffffffffffffffffffffffffffffffffffff168152602001908152602001600020805480602002602001604051908101604052809291908181526020018280548015620028e957602002820191906000526020600020905b815481526020019060010190808311620028d4575b505050505090506000601560009054906101000a900473ffffffffffffffffffffffffffffffffffffffff1673ffffffffffffffffffffffffffffffffffffffff166306575c896040518163ffffffff1660e01b815260040160206040518083038186803b1580156200295b57600080fd5b505afa15801562002970573d6000803e3d6000fd5b505050506040513d601f19601f82011682018060405250810190620029969190620035f7565b905060005b835181101562002a2a576001600c60008381526020019081526020016000208360088110620029cf57620029ce6200426f565b5b01541462002a14576040517f08c379a000000000000000000000000000000000000000000000000000000000815260040162002a0b9062003cd6565b60405180910390fd5b808062002a2190620041c3565b9150506200299b565b5060005b835181101562002b9f5760006001600a60018462002a4d919062003f5f565b62002a59919062003fbc565b62002a6591906200401d565b905062002aa86040518060400160405280600f81526020017f5570706572206c696d69742069732000000000000000000000000000000000008152508262002f11565b6000600a8362002ab9919062003fbc565b905062002afc6040518060400160405280600f81526020017f4c6f776572206c696d69742069732000000000000000000000000000000000008152508262002f11565b8086848151811062002b135762002b126200426f565b5b602002602001015111801562002b4557508186848151811062002b3b5762002b3a6200426f565b5b6020026020010151105b62002b87576040517f08c379a000000000000000000000000000000000000000000000000000000000815260040162002b7e9062003cf8565b60405180910390fd5b5050808062002b9690620041c3565b91505062002a2e565b5060005b825181101562002c2157600c600084838151811062002bc75762002bc66200426f565b5b60200260200101518152602001908152602001600020826008811062002bf25762002bf16200426f565b5b01600081548092919062002c069062004128565b9190505550808062002c1890620041c3565b91505062002ba3565b5060005b835181101562002c8657600c6000828152602001908152602001600020826008811062002c575762002c566200426f565b5b01600081548092919062002c6b90620041c3565b9190505550808062002c7d90620041c3565b91505062002c25565b5082600d60003373ffffffffffffffffffffffffffffffffffffffff1673ffffffffffffffffffffffffffffffffffffffff168152602001908152602001600020908051906020019062002cdc9291906200309c565b50505050565b600860009054906101000a900473ffffffffffffffffffffffffffffffffffffffff1681565b62002d12620030ee565b600b60003373ffffffffffffffffffffffffffffffffffffffff1673ffffffffffffffffffffffffffffffffffffffff16815260200190815260200160002060088060200260405190810160405280929190826008801562002d8a576020028201915b81548152602001906001019080831162002d75575b5050505050905090565b62002e2e8160405160240162002dab919062003bf6565b6040516020818303038152906040527f41304fac000000000000000000000000000000000000000000000000000000007bffffffffffffffffffffffffffffffffffffffffffffffffffffffff19166020820180517bffffffffffffffffffffffffffffffffffffffffffffffffffffffff838183161783525050505062002fb1565b50565b600033905090565b600062002e463062002fda565b15905090565b60008060029054906101000a900473ffffffffffffffffffffffffffffffffffffffff16905081600060026101000a81548173ffffffffffffffffffffffffffffffffffffffff021916908373ffffffffffffffffffffffffffffffffffffffff1602179055508173ffffffffffffffffffffffffffffffffffffffff168173ffffffffffffffffffffffffffffffffffffffff167f8be0079c531659141344cd1fd0a4f28419497f9722a3daafe3b4186f6b6457e060405160405180910390a35050565b62002fad828260405160240162002f2a92919062003c1a565b6040516020818303038152906040527f9710a9d0000000000000000000000000000000000000000000000000000000007bffffffffffffffffffffffffffffffffffffffffffffffffffffffff19166020820180517bffffffffffffffffffffffffffffffffffffffffffffffffffffffff838183161783525050505062002fb1565b5050565b60008151905060006a636f6e736f6c652e6c6f679050602083016000808483855afa5050505050565b6000808273ffffffffffffffffffffffffffffffffffffffff163b119050919050565b8280546200300b9062004157565b90600052602060002090601f0160209004810192826200302f57600085556200307b565b82601f106200304a57803560ff19168380011785556200307b565b828001600101855582156200307b579182015b828111156200307a5782358255916020019190600101906200305d565b5b5090506200308a919062003111565b5090565b61108d80620046b783390190565b828054828255906000526020600020908101928215620030db579160200282015b82811115620030da578251825591602001919060010190620030bd565b5b509050620030ea919062003111565b5090565b604051806101000160405280600890602082028036833780820191505090505090565b5b808211156200312c57600081600090555060010162003112565b5090565b600062003147620031418462003e92565b62003e69565b905080838252602082019050828560208602820111156200316d576200316c620042d7565b5b60005b85811015620031a1578162003186888262003226565b84526020840193506020830192505060018101905062003170565b5050509392505050565b6000620031c2620031bc8462003ec1565b62003e69565b90508083825260208201905082856020860282011115620031e857620031e7620042d7565b5b60005b858110156200321c578162003201888262003330565b845260208401935060208301925050600181019050620031eb565b5050509392505050565b600081359050620032378162004668565b92915050565b600082601f830112620032555762003254620042d2565b5b81356200326784826020860162003130565b91505092915050565b600082601f830112620032885762003287620042d2565b5b81356200329a848260208601620031ab565b91505092915050565b600081359050620032b48162004682565b92915050565b600081519050620032cb8162004682565b92915050565b60008083601f840112620032ea57620032e9620042d2565b5b8235905067ffffffffffffffff8111156200330a5762003309620042cd565b5b602083019150836001820283011115620033295762003328620042d7565b5b9250929050565b60008135905062003341816200469c565b92915050565b60008151905062003358816200469c565b92915050565b600060208284031215620033775762003376620042e1565b5b6000620033878482850162003226565b91505092915050565b60008060408385031215620033aa57620033a9620042e1565b5b6000620033ba8582860162003226565b9250506020620033cd8582860162003330565b9150509250929050565b600060208284031215620033f057620033ef620042e1565b5b600082013567ffffffffffffffff811115620034115762003410620042dc565b5b6200341f848285016200323d565b91505092915050565b600060208284031215620034415762003440620042e1565b5b600082013567ffffffffffffffff811115620034625762003461620042dc565b5b620034708482850162003270565b91505092915050565b600060208284031215620034925762003491620042e1565b5b6000620034a284828501620032ba565b91505092915050565b60008060008060008060008060008060006101408c8e031215620034d457620034d3620042e1565b5b60008c013567ffffffffffffffff811115620034f557620034f4620042dc565b5b620035038e828f01620032d1565b9b509b50506020620035188e828f0162003330565b99505060406200352b8e828f01620032a3565b98505060606200353e8e828f0162003226565b9750506080620035518e828f0162003226565b96505060a0620035648e828f0162003226565b95505060c0620035778e828f0162003226565b94505060e06200358a8e828f0162003226565b9350506101006200359e8e828f0162003226565b925050610120620035b28e828f0162003226565b9150509295989b509295989b9093969950565b600060208284031215620035de57620035dd620042e1565b5b6000620035ee8482850162003330565b91505092915050565b60006020828403121562003610576200360f620042e1565b5b6000620036208482850162003347565b91505092915050565b600062003637838362003a23565b60208301905092915050565b6200364e8162004058565b82525050565b8082525050565b620036668162003f0f565b62003672818462003f32565b92506200367f8262003ef0565b8060005b83811015620036b65781516200369a878262003629565b9650620036a78362003f25565b92505060018101905062003683565b505050505050565b620036c9816200406c565b82525050565b620036da81620040a2565b82525050565b620036eb81620040b6565b82525050565b8082525050565b8082525050565b8082525050565b8082525050565b60006200371a8262003f1a565b62003726818562003f3d565b935062003738818560208601620040f2565b6200374381620042e6565b840191505092915050565b600081546200375d8162004157565b62003769818662003f4e565b945060018216600081146200378757600181146200379a57620037d1565b60ff1983168652602086019350620037d1565b620037a58562003efa565b60005b83811015620037c957815481890152600182019150602081019050620037a8565b808801955050505b50505092915050565b6000620037e960268362003f3d565b9150620037f682620042f7565b604082019050919050565b600062003810601d8362003f3d565b91506200381d8262004346565b602082019050919050565b60006200383760238362003f3d565b915062003844826200436f565b604082019050919050565b60006200385e601a8362003f3d565b91506200386b82620043be565b602082019050919050565b60006200388560258362003f3d565b91506200389282620043e7565b604082019050919050565b6000620038ac60318362003f3d565b9150620038b98262004436565b604082019050919050565b6000620038d3601e8362003f3d565b9150620038e08262004485565b602082019050919050565b6000620038fa602e8362003f3d565b91506200390782620044ae565b604082019050919050565b60006200392160208362003f3d565b91506200392e82620044fd565b602082019050919050565b60006200394860178362003f3d565b9150620039558262004526565b602082019050919050565b60006200396f60168362003f3d565b91506200397c826200454f565b602082019050919050565b60006200399660168362003f3d565b9150620039a38262004578565b602082019050919050565b6000620039bd60418362003f3d565b9150620039ca82620045a1565b606082019050919050565b6000620039e4601f8362003f3d565b9150620039f18262004616565b602082019050919050565b600062003a0b60178362003f3d565b915062003a18826200463f565b602082019050919050565b62003a2e8162004098565b82525050565b62003a3f8162004098565b82525050565b62003a508162004098565b82525050565b600060208201905062003a6d600083018462003643565b92915050565b600060608201905062003a8a600083018662003643565b62003a99602083018562003643565b62003aa8604083018462003a34565b949350505050565b600060408201905062003ac7600083018562003643565b62003ad6602083018462003a34565b9392505050565b60006101008201905062003af560008301846200365b565b92915050565b600060208201905062003b126000830184620036be565b92915050565b600060208201905062003b2f6000830184620036e0565b92915050565b600060808201905062003b4c600083018762003706565b62003b5b602083018662003654565b62003b6a604083018562003a45565b818103606083015262003b7e81846200374e565b905095945050505050565b600060c08201905062003ba0600083018962003706565b62003baf602083018862003a45565b62003bbe6040830187620036cf565b62003bcd6060830186620036f1565b62003bdc6080830185620036ff565b62003beb60a0830184620036f8565b979650505050505050565b6000602082019050818103600083015262003c1281846200370d565b905092915050565b6000604082019050818103600083015262003c3681856200370d565b905062003c47602083018462003a34565b9392505050565b6000602082019050818103600083015262003c6981620037da565b9050919050565b6000602082019050818103600083015262003c8b8162003801565b9050919050565b6000602082019050818103600083015262003cad8162003828565b9050919050565b6000602082019050818103600083015262003ccf816200384f565b9050919050565b6000602082019050818103600083015262003cf18162003876565b9050919050565b6000602082019050818103600083015262003d13816200389d565b9050919050565b6000602082019050818103600083015262003d3581620038c4565b9050919050565b6000602082019050818103600083015262003d5781620038eb565b9050919050565b6000602082019050818103600083015262003d798162003912565b9050919050565b6000602082019050818103600083015262003d9b8162003939565b9050919050565b6000602082019050818103600083015262003dbd8162003960565b9050919050565b6000602082019050818103600083015262003ddf8162003987565b9050919050565b6000602082019050818103600083015262003e0181620039ae565b9050919050565b6000602082019050818103600083015262003e2381620039d5565b9050919050565b6000602082019050818103600083015262003e4581620039fc565b9050919050565b600060208201905062003e63600083018462003a34565b92915050565b600062003e7562003e88565b905062003e8382826200418d565b919050565b6000604051905090565b600067ffffffffffffffff82111562003eb05762003eaf6200429e565b5b602082029050602081019050919050565b600067ffffffffffffffff82111562003edf5762003ede6200429e565b5b602082029050602081019050919050565b6000819050919050565b60008190508160005260206000209050919050565b600060089050919050565b600081519050919050565b6000602082019050919050565b600081905092915050565b600082825260208201905092915050565b600082825260208201905092915050565b600062003f6c8262004098565b915062003f798362004098565b9250827fffffffffffffffffffffffffffffffffffffffffffffffffffffffffffffffff0382111562003fb15762003fb062004211565b5b828201905092915050565b600062003fc98262004098565b915062003fd68362004098565b9250817fffffffffffffffffffffffffffffffffffffffffffffffffffffffffffffffff048311821515161562004012576200401162004211565b5b828202905092915050565b60006200402a8262004098565b9150620040378362004098565b9250828210156200404d576200404c62004211565b5b828203905092915050565b6000620040658262004078565b9050919050565b60008115159050919050565b600073ffffffffffffffffffffffffffffffffffffffff82169050919050565b6000819050919050565b6000620040af82620040ca565b9050919050565b6000620040c382620040ca565b9050919050565b6000620040d782620040de565b9050919050565b6000620040eb8262004078565b9050919050565b60005b8381101562004112578082015181840152602081019050620040f5565b8381111562004122576000848401525b50505050565b6000620041358262004098565b915060008214156200414c576200414b62004211565b5b600182039050919050565b600060028204905060018216806200417057607f821691505b6020821081141562004187576200418662004240565b5b50919050565b6200419882620042e6565b810181811067ffffffffffffffff82111715620041ba57620041b96200429e565b5b80604052505050565b6000620041d08262004098565b91507fffffffffffffffffffffffffffffffffffffffffffffffffffffffffffffffff82141562004206576200420562004211565b5b600182019050919050565b7f4e487b7100000000000000000000000000000000000000000000000000000000600052601160045260246000fd5b7f4e487b7100000000000000000000000000000000000000000000000000000000600052602260045260246000fd5b7f4e487b7100000000000000000000000000000000000000000000000000000000600052603260045260246000fd5b7f4e487b7100000000000000000000000000000000000000000000000000000000600052604160045260246000fd5b600080fd5b600080fd5b600080fd5b600080fd5b600080fd5b6000601f19601f8301169050919050565b7f4f776e61626c653a206e6577206f776e657220697320746865207a65726f206160008201527f6464726573730000000000000000000000000000000000000000000000000000602082015250565b7f496e737566666963656e742066756e647320666f72207374616b696e67000000600082015250565b7f596f75206861766520616c7265616479206a6f696e65642074686973206c656160008201527f6775650000000000000000000000000000000000000000000000000000000000602082015250565b7f55736572206973206e6f742077686974656c6973746564203a28000000000000600082015250565b7f4475706c6963617465206174686c65746549447320617265206e6f7420616c6c60008201527f6f7765642e000000000000000000000000000000000000000000000000000000602082015250565b7f596f75206172652073657474696e6720616e206174686c65746520696e20746860008201527f652077726f6e6720706f736974696f6e21000000000000000000000000000000602082015250565b7f6c696e657570206973206c6f636b656420666f7220746865207765656b210000600082015250565b7f496e697469616c697a61626c653a20636f6e747261637420697320616c72656160008201527f647920696e697469616c697a6564000000000000000000000000000000000000602082015250565b7f4f776e61626c653a2063616c6c6572206973206e6f7420746865206f776e6572600082015250565b7f43616c6c6572206973206e6f74207468652061646d696e000000000000000000600082015250565b7f43616c6c6572206973206e6f74205465616d4469666600000000000000000000600082015250565b7f55736572206973206e6f7420696e204c65616775652e00000000000000000000600082015250565b7f4e6f626f64792063616e20656e7465722f6578697420746865206c656167756560008201527f20616e796d6f72652e2054686520736561736f6e20686173207374617274656460208201527f2100000000000000000000000000000000000000000000000000000000000000604082015250565b7f5265656e7472616e637947756172643a207265656e7472616e742063616c6c00600082015250565b7f4c656167756520456e74727920697320436c6f73656421000000000000000000600082015250565b620046738162004058565b81146200467f57600080fd5b50565b6200468d816200406c565b81146200469957600080fd5b50565b620046a78162004098565b8114620046b357600080fd5b5056fe608060405234801561001057600080fd5b5061002d61002261003260201b60201c565b61003a60201b60201c565b6100fe565b600033905090565b60008060009054906101000a900473ffffffffffffffffffffffffffffffffffffffff169050816000806101000a81548173ffffffffffffffffffffffffffffffffffffffff021916908373ffffffffffffffffffffffffffffffffffffffff1602179055508173ffffffffffffffffffffffffffffffffffffffff168173ffffffffffffffffffffffffffffffffffffffff167f8be0079c531659141344cd1fd0a4f28419497f9722a3daafe3b4186f6b6457e060405160405180910390a35050565b610f808061010d6000396000f3fe608060405234801561001057600080fd5b50600436106100a95760003560e01c80638da5cb5b116100715780638da5cb5b146101665780639b19251a14610184578063dc9a1535146101b4578063e2ec6ec3146101d2578063e35a899914610202578063f2fde38b14610232576100a9565b806324953eaa146100ae578063286dd3f5146100de57806344eaa84e1461010e578063715018a61461012c5780637b9417c814610136575b600080fd5b6100c860048036038101906100c39190610b0e565b61024e565b6040516100d59190610be5565b60405180910390f35b6100f860048036038101906100f39190610ae1565b610338565b6040516101059190610be5565b60405180910390f35b6101166104bb565b6040516101239190610c40565b60405180910390f35b6101346104c5565b005b610150600480360381019061014b9190610ae1565b61054d565b60405161015d9190610be5565b60405180910390f35b61016e6106ce565b60405161017b9190610bca565b60405180910390f35b61019e60048036038101906101999190610ae1565b6106f7565b6040516101ab9190610be5565b60405180910390f35b6101bc610717565b6040516101c99190610be5565b60405180910390f35b6101ec60048036038101906101e79190610b0e565b61072a565b6040516101f99190610be5565b60405180910390f35b61021c60048036038101906102179190610ae1565b610814565b6040516102299190610be5565b60405180910390f35b61024c60048036038101906102479190610ae1565b61086a565b005b6000610258610962565b73ffffffffffffffffffffffffffffffffffffffff166102766106ce565b73ffffffffffffffffffffffffffffffffffffffff16146102cc576040517f08c379a00000000000000000000000000000000000000000000000000000000081526004016102c390610c20565b60405180910390fd5b60005b8251811015610332576102fb8382815181106102ee576102ed610e38565b5b6020026020010151610338565b1561031f576001600260008282546103139190610d13565b92505081905550600191505b808061032a90610dc0565b9150506102cf565b50919050565b6000610342610962565b73ffffffffffffffffffffffffffffffffffffffff166103606106ce565b73ffffffffffffffffffffffffffffffffffffffff16146103b6576040517f08c379a00000000000000000000000000000000000000000000000000000000081526004016103ad90610c20565b60405180910390fd5b600160008373ffffffffffffffffffffffffffffffffffffffff1673ffffffffffffffffffffffffffffffffffffffff16815260200190815260200160002060009054906101000a900460ff16156104b6576000600160008473ffffffffffffffffffffffffffffffffffffffff1673ffffffffffffffffffffffffffffffffffffffff16815260200190815260200160002060006101000a81548160ff0219169083151502179055507ff1abf01a1043b7c244d128e8595cf0c1d10743b022b03a02dffd8ca3bf729f5a8260405161048f9190610bca565b60405180910390a16001600260008282546104aa9190610d13565b92505081905550600190505b919050565b6000600254905090565b6104cd610962565b73ffffffffffffffffffffffffffffffffffffffff166104eb6106ce565b73ffffffffffffffffffffffffffffffffffffffff1614610541576040517f08c379a000000000000000000000000000000000000000000000000000000000815260040161053890610c20565b60405180910390fd5b61054b600061096a565b565b6000610557610962565b73ffffffffffffffffffffffffffffffffffffffff166105756106ce565b73ffffffffffffffffffffffffffffffffffffffff16146105cb576040517f08c379a00000000000000000000000000000000000000000000000000000000081526004016105c290610c20565b60405180910390fd5b600160008373ffffffffffffffffffffffffffffffffffffffff1673ffffffffffffffffffffffffffffffffffffffff16815260200190815260200160002060009054906101000a900460ff166106c95760018060008473ffffffffffffffffffffffffffffffffffffffff1673ffffffffffffffffffffffffffffffffffffffff16815260200190815260200160002060006101000a81548160ff0219169083151502179055507fd1bba68c128cc3f427e5831b3c6f99f480b6efa6b9e80c757768f6124158cc3f826040516106a29190610bca565b60405180910390a16001600260008282546106bd9190610cbd565b92505081905550600190505b919050565b60008060009054906101000a900473ffffffffffffffffffffffffffffffffffffffff16905090565b60016020528060005260406000206000915054906101000a900460ff1681565b600360009054906101000a900460ff1681565b6000610734610962565b73ffffffffffffffffffffffffffffffffffffffff166107526106ce565b73ffffffffffffffffffffffffffffffffffffffff16146107a8576040517f08c379a000000000000000000000000000000000000000000000000000000000815260040161079f90610c20565b60405180910390fd5b60005b825181101561080e576107d78382815181106107ca576107c9610e38565b5b602002602001015161054d565b156107fb576001600260008282546107ef9190610cbd565b92505081905550600191505b808061080690610dc0565b9150506107ab565b50919050565b6000600160008373ffffffffffffffffffffffffffffffffffffffff1673ffffffffffffffffffffffffffffffffffffffff16815260200190815260200160002060009054906101000a900460ff169050919050565b610872610962565b73ffffffffffffffffffffffffffffffffffffffff166108906106ce565b73ffffffffffffffffffffffffffffffffffffffff16146108e6576040517f08c379a00000000000000000000000000000000000000000000000000000000081526004016108dd90610c20565b60405180910390fd5b600073ffffffffffffffffffffffffffffffffffffffff168173ffffffffffffffffffffffffffffffffffffffff161415610956576040517f08c379a000000000000000000000000000000000000000000000000000000000815260040161094d90610c00565b60405180910390fd5b61095f8161096a565b50565b600033905090565b60008060009054906101000a900473ffffffffffffffffffffffffffffffffffffffff169050816000806101000a81548173ffffffffffffffffffffffffffffffffffffffff021916908373ffffffffffffffffffffffffffffffffffffffff1602179055508173ffffffffffffffffffffffffffffffffffffffff168173ffffffffffffffffffffffffffffffffffffffff167f8be0079c531659141344cd1fd0a4f28419497f9722a3daafe3b4186f6b6457e060405160405180910390a35050565b6000610a41610a3c84610c80565b610c5b565b90508083825260208201905082856020860282011115610a6457610a63610e9b565b5b60005b85811015610a945781610a7a8882610a9e565b845260208401935060208301925050600181019050610a67565b5050509392505050565b600081359050610aad81610f33565b92915050565b600082601f830112610ac857610ac7610e96565b5b8135610ad8848260208601610a2e565b91505092915050565b600060208284031215610af757610af6610ea5565b5b6000610b0584828501610a9e565b91505092915050565b600060208284031215610b2457610b23610ea5565b5b600082013567ffffffffffffffff811115610b4257610b41610ea0565b5b610b4e84828501610ab3565b91505092915050565b610b6081610d47565b82525050565b610b6f81610d59565b82525050565b6000610b82602683610cac565b9150610b8d82610ebb565b604082019050919050565b6000610ba5602083610cac565b9150610bb082610f0a565b602082019050919050565b610bc481610d85565b82525050565b6000602082019050610bdf6000830184610b57565b92915050565b6000602082019050610bfa6000830184610b66565b92915050565b60006020820190508181036000830152610c1981610b75565b9050919050565b60006020820190508181036000830152610c3981610b98565b9050919050565b6000602082019050610c556000830184610bbb565b92915050565b6000610c65610c76565b9050610c718282610d8f565b919050565b6000604051905090565b600067ffffffffffffffff821115610c9b57610c9a610e67565b5b602082029050602081019050919050565b600082825260208201905092915050565b6000610cc882610d85565b9150610cd383610d85565b9250827fffffffffffffffffffffffffffffffffffffffffffffffffffffffffffffffff03821115610d0857610d07610e09565b5b828201905092915050565b6000610d1e82610d85565b9150610d2983610d85565b925082821015610d3c57610d3b610e09565b5b828203905092915050565b6000610d5282610d65565b9050919050565b60008115159050919050565b600073ffffffffffffffffffffffffffffffffffffffff82169050919050565b6000819050919050565b610d9882610eaa565b810181811067ffffffffffffffff82111715610db757610db6610e67565b5b80604052505050565b6000610dcb82610d85565b91507fffffffffffffffffffffffffffffffffffffffffffffffffffffffffffffffff821415610dfe57610dfd610e09565b5b600182019050919050565b7f4e487b7100000000000000000000000000000000000000000000000000000000600052601160045260246000fd5b7f4e487b7100000000000000000000000000000000000000000000000000000000600052603260045260246000fd5b7f4e487b7100000000000000000000000000000000000000000000000000000000600052604160045260246000fd5b600080fd5b600080fd5b600080fd5b600080fd5b6000601f19601f8301169050919050565b7f4f776e61626c653a206e6577206f776e657220697320746865207a65726f206160008201527f6464726573730000000000000000000000000000000000000000000000000000602082015250565b7f4f776e61626c653a2063616c6c6572206973206e6f7420746865206f776e6572600082015250565b610f3c81610d47565b8114610f4757600080fd5b5056fea2646970667358221220bed30b98fd52fd06427fedf4fcef33f2521d9e36ee375e945eb6c8c8ba1d457d64736f6c63430008070033494e204c4f434b204c494e4555502046554e4354494f4e20494e204c4f4c204c4f474943a26469706673582212208dd851136d73da3497cda54d5c7a895ecba2c7282fbd5dd50fe7c5339bb66a9264736f6c63430008070033",
  "linkReferences": {
    "contracts/MOBALogicLibrary.sol": {
      "MOBALogicLibrary": [
        {
          "length": 20,
          "start": 2723
        },
        {
          "length": 20,
          "start": 7257
        }
      ]
    }
  },
  "deployedLinkReferences": {
    "contracts/MOBALogicLibrary.sol": {
      "MOBALogicLibrary": [
        {
          "length": 20,
          "start": 2438
        },
        {
          "length": 20,
          "start": 6972
        }
      ]
    }
  }
}