{
  "_format": "hh-sol-artifact-1",
  "contractName": "LeagueOfLegendsLogic",
  "sourceName": "contracts/LeagueOfLegendsLogic.sol",
  "abi": [
    {
      "anonymous": false,
      "inputs": [
        {
          "indexed": true,
          "internalType": "address",
          "name": "previousOwner",
          "type": "address"
        },
        {
          "indexed": true,
          "internalType": "address",
          "name": "newOwner",
          "type": "address"
        }
      ],
      "name": "OwnershipTransferred",
      "type": "event"
    },
    {
      "anonymous": false,
      "inputs": [
        {
          "indexed": false,
          "internalType": "address",
          "name": "sender",
          "type": "address"
        },
        {
          "indexed": false,
          "internalType": "uint256",
          "name": "amount",
          "type": "uint256"
        }
      ],
      "name": "Staked",
      "type": "event"
    },
    {
      "anonymous": false,
      "inputs": [
        {
          "indexed": false,
          "internalType": "address",
          "name": "addr",
          "type": "address"
        }
      ],
      "name": "WhitelistedAddressAdded",
      "type": "event"
    },
    {
      "anonymous": false,
      "inputs": [
        {
          "indexed": false,
          "internalType": "address",
          "name": "addr",
          "type": "address"
        }
      ],
      "name": "WhitelistedAddressRemoved",
      "type": "event"
    },
    {
      "anonymous": false,
      "inputs": [
        {
          "indexed": false,
          "internalType": "address",
          "name": "sender",
          "type": "address"
        },
        {
          "indexed": false,
          "internalType": "address",
          "name": "contractAddress",
          "type": "address"
        }
      ],
      "name": "testUSDCDeployed",
      "type": "event"
    },
    {
      "inputs": [
        {
          "internalType": "address",
          "name": "addr",
          "type": "address"
        }
      ],
      "name": "addAddressToWhitelist",
      "outputs": [
        {
          "internalType": "bool",
          "name": "success",
          "type": "bool"
        }
      ],
      "stateMutability": "nonpayable",
      "type": "function"
    },
    {
      "inputs": [
        {
          "internalType": "address[]",
          "name": "addrs",
          "type": "address[]"
        }
      ],
      "name": "addAddressesToWhitelist",
      "outputs": [
        {
          "internalType": "bool",
          "name": "success",
          "type": "bool"
        }
      ],
      "stateMutability": "nonpayable",
      "type": "function"
    },
    {
      "inputs": [
        {
          "internalType": "address",
          "name": "_userToAdd",
          "type": "address"
        }
      ],
      "name": "addUserToWhitelist",
      "outputs": [],
      "stateMutability": "nonpayable",
      "type": "function"
    },
    {
      "inputs": [],
      "name": "currentWeekNum",
      "outputs": [
        {
          "internalType": "uint256",
          "name": "",
          "type": "uint256"
        }
      ],
      "stateMutability": "view",
      "type": "function"
    },
    {
      "inputs": [
        {
          "internalType": "address",
          "name": "addr1",
          "type": "address"
        },
        {
          "internalType": "address",
          "name": "addr2",
          "type": "address"
        }
      ],
      "name": "evaluateMatch",
      "outputs": [
        {
          "internalType": "address",
          "name": "",
          "type": "address"
        }
      ],
      "stateMutability": "nonpayable",
      "type": "function"
    },
    {
      "inputs": [],
      "name": "evaluateWeek",
      "outputs": [],
      "stateMutability": "nonpayable",
      "type": "function"
    },
    {
      "inputs": [],
      "name": "getAdmin",
      "outputs": [
        {
          "internalType": "address",
          "name": "",
          "type": "address"
        }
      ],
      "stateMutability": "view",
      "type": "function"
    },
    {
      "inputs": [],
      "name": "getAthleteContractAddress",
      "outputs": [
        {
          "internalType": "address",
          "name": "",
          "type": "address"
        }
      ],
      "stateMutability": "view",
      "type": "function"
    },
    {
      "inputs": [],
      "name": "getCurrentWeekNum",
      "outputs": [
        {
          "internalType": "uint256",
          "name": "",
          "type": "uint256"
        }
      ],
      "stateMutability": "view",
      "type": "function"
    },
    {
      "inputs": [],
      "name": "getLeagueName",
      "outputs": [
        {
          "internalType": "string",
          "name": "",
          "type": "string"
        }
      ],
      "stateMutability": "view",
      "type": "function"
    },
    {
      "inputs": [],
      "name": "getLineup",
      "outputs": [
        {
          "internalType": "uint256[]",
          "name": "",
          "type": "uint256[]"
        }
      ],
      "stateMutability": "view",
      "type": "function"
    },
    {
      "inputs": [],
      "name": "getNumWhitelisted",
      "outputs": [
        {
          "internalType": "uint256",
          "name": "",
          "type": "uint256"
        }
      ],
      "stateMutability": "view",
      "type": "function"
    },
    {
      "inputs": [],
      "name": "getStakeAmount",
      "outputs": [
        {
          "internalType": "uint256",
          "name": "",
          "type": "uint256"
        }
      ],
      "stateMutability": "view",
      "type": "function"
    },
    {
      "inputs": [],
      "name": "getTestUSDCAddress",
      "outputs": [
        {
          "internalType": "address",
          "name": "",
          "type": "address"
        }
      ],
      "stateMutability": "view",
      "type": "function"
    },
    {
      "inputs": [],
      "name": "getTotalPrizePot",
      "outputs": [
        {
          "internalType": "uint256",
          "name": "",
          "type": "uint256"
        }
      ],
      "stateMutability": "view",
      "type": "function"
    },
    {
      "inputs": [],
      "name": "getUSDCBalance",
      "outputs": [
        {
          "internalType": "uint256",
          "name": "",
          "type": "uint256"
        }
      ],
      "stateMutability": "view",
      "type": "function"
    },
    {
      "inputs": [],
      "name": "getUserRecord",
      "outputs": [
        {
          "internalType": "uint256[8]",
          "name": "",
          "type": "uint256[8]"
        }
      ],
      "stateMutability": "view",
      "type": "function"
    },
    {
      "inputs": [],
      "name": "getUserTotalPts",
      "outputs": [
        {
          "internalType": "uint256",
          "name": "",
          "type": "uint256"
        }
      ],
      "stateMutability": "view",
      "type": "function"
    },
    {
      "inputs": [],
      "name": "getUserUSDCBalance",
      "outputs": [
        {
          "internalType": "uint256",
          "name": "",
          "type": "uint256"
        }
      ],
      "stateMutability": "view",
      "type": "function"
    },
    {
      "inputs": [],
      "name": "getUsersLength",
      "outputs": [
        {
          "internalType": "uint256",
          "name": "",
          "type": "uint256"
        }
      ],
      "stateMutability": "view",
      "type": "function"
    },
    {
      "inputs": [],
      "name": "getVersion",
      "outputs": [
        {
          "internalType": "uint256",
          "name": "version",
          "type": "uint256"
        }
      ],
      "stateMutability": "pure",
      "type": "function"
    },
    {
      "inputs": [
        {
          "internalType": "string",
          "name": "_name",
          "type": "string"
        },
        {
          "internalType": "uint256",
          "name": "_numWeeks",
          "type": "uint256"
        },
        {
          "internalType": "uint256",
          "name": "_stakeAmount",
          "type": "uint256"
        },
        {
          "internalType": "bool",
          "name": "_isPublic",
          "type": "bool"
        },
        {
          "internalType": "address",
          "name": "athletesDataStorageAddress",
          "type": "address"
        },
        {
          "internalType": "address",
          "name": "_admin",
          "type": "address"
        },
        {
          "internalType": "address",
          "name": "_polygonUSDCAddress",
          "type": "address"
        },
        {
          "internalType": "address",
          "name": "_rinkebyUSDCAddress",
          "type": "address"
        },
        {
          "internalType": "address",
          "name": "_testUSDCAddress",
          "type": "address"
        },
        {
          "internalType": "address",
          "name": "leagueMakerContractAddress",
          "type": "address"
        }
      ],
      "name": "initialize",
      "outputs": [],
      "stateMutability": "nonpayable",
      "type": "function"
    },
    {
      "inputs": [],
      "name": "isPublic",
      "outputs": [
        {
          "internalType": "bool",
          "name": "",
          "type": "bool"
        }
      ],
      "stateMutability": "view",
      "type": "function"
    },
    {
      "inputs": [],
      "name": "joinLeague",
      "outputs": [],
      "stateMutability": "nonpayable",
      "type": "function"
    },
    {
      "inputs": [
        {
          "internalType": "uint256",
          "name": "",
          "type": "uint256"
        }
      ],
      "name": "leagueMembers",
      "outputs": [
        {
          "internalType": "address",
          "name": "",
          "type": "address"
        }
      ],
      "stateMutability": "view",
      "type": "function"
    },
    {
      "inputs": [],
      "name": "leagueName",
      "outputs": [
        {
          "internalType": "string",
          "name": "",
          "type": "string"
        }
      ],
      "stateMutability": "view",
      "type": "function"
    },
    {
      "inputs": [],
      "name": "lockLineup",
      "outputs": [],
      "stateMutability": "nonpayable",
      "type": "function"
    },
    {
      "inputs": [],
      "name": "numWeeks",
      "outputs": [
        {
          "internalType": "uint256",
          "name": "",
          "type": "uint256"
        }
      ],
      "stateMutability": "view",
      "type": "function"
    },
    {
      "inputs": [],
      "name": "onLeagueEnd",
      "outputs": [],
      "stateMutability": "nonpayable",
      "type": "function"
    },
    {
      "inputs": [],
      "name": "owner",
      "outputs": [
        {
          "internalType": "address",
          "name": "",
          "type": "address"
        }
      ],
      "stateMutability": "view",
      "type": "function"
    },
    {
      "inputs": [],
      "name": "polygonUSDCAddress",
      "outputs": [
        {
          "internalType": "address",
          "name": "",
          "type": "address"
        }
      ],
      "stateMutability": "view",
      "type": "function"
    },
    {
      "inputs": [
        {
          "internalType": "address",
          "name": "addr",
          "type": "address"
        }
      ],
      "name": "removeAddressFromWhitelist",
      "outputs": [
        {
          "internalType": "bool",
          "name": "success",
          "type": "bool"
        }
      ],
      "stateMutability": "nonpayable",
      "type": "function"
    },
    {
      "inputs": [
        {
          "internalType": "address[]",
          "name": "addrs",
          "type": "address[]"
        }
      ],
      "name": "removeAddressesFromWhitelist",
      "outputs": [
        {
          "internalType": "bool",
          "name": "success",
          "type": "bool"
        }
      ],
      "stateMutability": "nonpayable",
      "type": "function"
    },
    {
      "inputs": [
        {
          "internalType": "address",
          "name": "_userToRemove",
          "type": "address"
        }
      ],
      "name": "removeFromLeague",
      "outputs": [],
      "stateMutability": "nonpayable",
      "type": "function"
    },
    {
      "inputs": [],
      "name": "renounceOwnership",
      "outputs": [],
      "stateMutability": "nonpayable",
      "type": "function"
    },
    {
      "inputs": [],
      "name": "rinkebyUSDCAddress",
      "outputs": [
        {
          "internalType": "address",
          "name": "",
          "type": "address"
        }
      ],
      "stateMutability": "view",
      "type": "function"
    },
    {
      "inputs": [],
      "name": "setLeagueEntryIsClosed",
      "outputs": [],
      "stateMutability": "nonpayable",
      "type": "function"
    },
    {
      "inputs": [],
      "name": "setLeagueSchedule",
      "outputs": [],
      "stateMutability": "nonpayable",
      "type": "function"
    },
    {
      "inputs": [
        {
          "internalType": "uint256[]",
          "name": "athleteIds",
          "type": "uint256[]"
        }
      ],
      "name": "setLineup",
      "outputs": [],
      "stateMutability": "nonpayable",
      "type": "function"
    },
    {
      "inputs": [],
      "name": "stakeAmount",
      "outputs": [
        {
          "internalType": "uint256",
          "name": "",
          "type": "uint256"
        }
      ],
      "stateMutability": "view",
      "type": "function"
    },
    {
      "inputs": [
        {
          "internalType": "address",
          "name": "newOwner",
          "type": "address"
        }
      ],
      "name": "transferOwnership",
      "outputs": [],
      "stateMutability": "nonpayable",
      "type": "function"
    },
    {
      "inputs": [],
      "name": "unlockLineup",
      "outputs": [],
      "stateMutability": "nonpayable",
      "type": "function"
    },
    {
      "inputs": [
        {
          "internalType": "address",
          "name": "",
          "type": "address"
        },
        {
          "internalType": "uint256",
          "name": "",
          "type": "uint256"
        }
      ],
      "name": "userToRecord",
      "outputs": [
        {
          "internalType": "uint256",
          "name": "",
          "type": "uint256"
        }
      ],
      "stateMutability": "view",
      "type": "function"
    },
    {
      "inputs": [
        {
          "internalType": "address",
          "name": "",
          "type": "address"
        }
      ],
      "name": "whitelist",
      "outputs": [
        {
          "internalType": "bool",
          "name": "",
          "type": "bool"
        }
      ],
      "stateMutability": "view",
      "type": "function"
    }
  ],
  "bytecode": "0x60806040523480156200001157600080fd5b5062000032620000266200004060201b60201c565b6200004860201b60201c565b60016004819055506200010d565b600033905090565b60008060029054906101000a900473ffffffffffffffffffffffffffffffffffffffff16905081600060026101000a81548173ffffffffffffffffffffffffffffffffffffffff021916908373ffffffffffffffffffffffffffffffffffffffff1602179055508173ffffffffffffffffffffffffffffffffffffffff168173ffffffffffffffffffffffffffffffffffffffff167f8be0079c531659141344cd1fd0a4f28419497f9722a3daafe3b4186f6b6457e060405160405180910390a35050565b615213806200011d6000396000f3fe60806040523480156200001157600080fd5b5060043610620002af5760003560e01c8063747b80501162000171578063a2bc091a11620000d5578063dc9a15351162000093578063dc9a153514620007ac578063e2ec6ec314620007ce578063e4c9066b1462000804578063f2fde38b1462000810578063f612121a1462000830578063f8816045146200085057620002af565b8063a2bc091a1462000744578063ada3a28d1462000750578063c8be3b5b1462000772578063c99fea94146200077e578063cdbba4c6146200078a57620002af565b8063853976dd116200012f578063853976dd14620006505780638caec7a814620006865780638da5cb5b14620006a857806393f3706c14620006ca57806399a6003414620006ec5780639b19251a146200070e57620002af565b8063747b805014620005aa5780637b9417c814620005ca5780637eed33f11462000600578063841abf6e146200062257806385334ffa146200064457620002af565b806344eaa84e11620002195780635fcc698711620001d75780635fcc698714620004f457806360c7dc4714620005165780636bdc44df14620005385780636e9960c3146200055a578063715018a6146200057c578063722580b6146200058857620002af565b806344eaa84e146200044c57806352e6e5f3146200046e578063595b1a3e14620004905780635d514d6914620004b25780635ec0b4f714620004d257620002af565b80631d803e0011620002735780631d803e00146200035a57806324953eaa1462000366578063267175db146200039c578063286dd3f514620003d25780633cfd1ccc1462000408578063403570c5146200042a57620002af565b8062b2476f14620002b45780630655465a14620002d657806306d60c2414620002e25780630c6f795914620003025780630d8e6e2c1462000338575b600080fd5b620002be62000872565b604051620002cd9190620036c8565b60405180910390f35b620002e062000898565b005b620003006004803603810190620002fa919062002f39565b620009d3565b005b6200032060048036038101906200031a919062002fe4565b62000b70565b6040516200032f919062003a61565b60405180910390f35b6200034262000b99565b60405162000351919062003a61565b60405180910390f35b6200036462000b9e565b005b6200038460048036038101906200037e91906200302b565b62000e85565b6040516200039391906200382d565b60405180910390f35b620003ba6004803603810190620003b4919062003219565b62000f82565b604051620003c99190620036c8565b60405180910390f35b620003f06004803603810190620003ea919062002f39565b62000fc2565b604051620003ff91906200382d565b60405180910390f35b6200041262001151565b60405162000421919062003a61565b60405180910390f35b6200043462001260565b6040516200044391906200390b565b60405180910390f35b62000456620012fa565b60405162000465919062003a61565b60405180910390f35b6200047862001304565b60405162000487919062003a61565b60405180910390f35b6200049a6200130a565b604051620004a9919062003a61565b60405180910390f35b620004d06004803603810190620004ca9190620030ff565b62001317565b005b620004dc6200176e565b604051620004eb919062003a61565b60405180910390f35b620004fe62001778565b6040516200050d919062003a61565b60405180910390f35b6200052062001887565b6040516200052f919062003a61565b60405180910390f35b620005426200188d565b60405162000551919062003a61565b60405180910390f35b62000564620018d4565b604051620005739190620036c8565b60405180910390f35b62000586620018fe565b005b620005926200198f565b604051620005a1919062003a61565b60405180910390f35b620005c86004803603810190620005c2919062002f39565b62001999565b005b620005e86004803603810190620005e2919062002f39565b62001ae3565b604051620005f791906200382d565b60405180910390f35b6200060a62001c70565b60405162000619919062003a61565b60405180910390f35b6200062c62001c76565b6040516200063b91906200390b565b60405180910390f35b6200064e62001d0c565b005b6200066e600480360381019062000668919062002f9d565b62001e2e565b6040516200067d9190620036c8565b60405180910390f35b6200069062001ff8565b6040516200069f9190620036c8565b60405180910390f35b620006b262002022565b604051620006c19190620036c8565b60405180910390f35b620006d46200204b565b604051620006e39190620036c8565b60405180910390f35b620006f662002071565b60405162000705919062003a61565b60405180910390f35b6200072c600480360381019062000726919062002f39565b6200208d565b6040516200073b91906200382d565b60405180910390f35b6200074e620020ad565b005b6200075a6200214d565b60405162000769919062003809565b60405180910390f35b6200077c620021e4565b005b6200078862002284565b005b620007946200258b565b604051620007a39190620036c8565b60405180910390f35b620007b6620025b5565b604051620007c591906200382d565b60405180910390f35b620007ec6004803603810190620007e691906200302b565b620025c8565b604051620007fb91906200382d565b60405180910390f35b6200080e620026c5565b005b6200082e600480360381019062000828919062002f39565b62002765565b005b6200084e60048036038101906200084891906200307c565b62002869565b005b6200085a6200296c565b604051620008699190620037eb565b60405180910390f35b601260009054906101000a900473ffffffffffffffffffffffffffffffffffffffff1681565b620008a2620029f8565b73ffffffffffffffffffffffffffffffffffffffff16620008c262002022565b73ffffffffffffffffffffffffffffffffffffffff16146200091b576040517f08c379a00000000000000000000000000000000000000000000000000000000081526004016200091290620039b7565b60405180910390fd5b6200095b6040518060400160405280601081526020017f73657474696e67207363686564756c650000000000000000000000000000000081525062002a00565b73__$36fdb4e0c2cb91f3ceca5ea81b025328f3$__63d2c232b56010600f60065460056040518563ffffffff1660e01b81526004016200099f94939291906200384a565b60006040518083038186803b158015620009b857600080fd5b505af4158015620009cd573d6000803e3d6000fd5b50505050565b600960009054906101000a900473ffffffffffffffffffffffffffffffffffffffff1673ffffffffffffffffffffffffffffffffffffffff163373ffffffffffffffffffffffffffffffffffffffff161462000a66576040517f08c379a000000000000000000000000000000000000000000000000000000000815260040162000a5d90620039d9565b60405180910390fd5b600a60149054906101000a900460ff161562000ab9576040517f08c379a000000000000000000000000000000000000000000000000000000000815260040162000ab090620039fb565b60405180910390fd5b601460009054906101000a900473ffffffffffffffffffffffffffffffffffffffff1673ffffffffffffffffffffffffffffffffffffffff1663286dd3f5826040518263ffffffff1660e01b815260040162000b169190620036c8565b602060405180830381600087803b15801562000b3157600080fd5b505af115801562000b46573d6000803e3d6000fd5b505050506040513d601f19601f8201168201806040525081019062000b6c9190620030cd565b5050565b600c602052816000526040600020816008811062000b8d57600080fd5b01600091509150505481565b600090565b62000ba8620029f8565b73ffffffffffffffffffffffffffffffffffffffff1662000bc862002022565b73ffffffffffffffffffffffffffffffffffffffff161462000c21576040517f08c379a000000000000000000000000000000000000000000000000000000000815260040162000c1890620039b7565b60405180910390fd5b6002600454141562000c6a576040517f08c379a000000000000000000000000000000000000000000000000000000000815260040162000c619062003a1d565b60405180910390fd5b60026004819055506000600f8054905060085462000c89919062003c48565b90506000805b600f8054905081101562000dc057600b60008373ffffffffffffffffffffffffffffffffffffffff1673ffffffffffffffffffffffffffffffffffffffff16815260200190815260200160002054600b6000600f848154811062000cf85762000cf762003ee0565b5b9060005260206000200160009054906101000a900473ffffffffffffffffffffffffffffffffffffffff1673ffffffffffffffffffffffffffffffffffffffff1673ffffffffffffffffffffffffffffffffffffffff16815260200190815260200160002054111562000daa57600f818154811062000d7c5762000d7b62003ee0565b5b9060005260206000200160009054906101000a900473ffffffffffffffffffffffffffffffffffffffff1691505b808062000db79062003e34565b91505062000c8f565b50601660009054906101000a900473ffffffffffffffffffffffffffffffffffffffff1673ffffffffffffffffffffffffffffffffffffffff166323b872dd3330856040518463ffffffff1660e01b815260040162000e2293929190620036e5565b602060405180830381600087803b15801562000e3d57600080fd5b505af115801562000e52573d6000803e3d6000fd5b505050506040513d601f19601f8201168201806040525081019062000e789190620030cd565b5050506001600481905550565b600062000e91620029f8565b73ffffffffffffffffffffffffffffffffffffffff1662000eb162002022565b73ffffffffffffffffffffffffffffffffffffffff161462000f0a576040517f08c379a000000000000000000000000000000000000000000000000000000000815260040162000f0190620039b7565b60405180910390fd5b60005b825181101562000f7c5762000f3f83828151811062000f315762000f3062003ee0565b5b602002602001015162000fc2565b1562000f665760016002600082825462000f5a919062003ca9565b92505081905550600191505b808062000f739062003e34565b91505062000f0d565b50919050565b600f818154811062000f9357600080fd5b906000526020600020016000915054906101000a900473ffffffffffffffffffffffffffffffffffffffff1681565b600062000fce620029f8565b73ffffffffffffffffffffffffffffffffffffffff1662000fee62002022565b73ffffffffffffffffffffffffffffffffffffffff161462001047576040517f08c379a00000000000000000000000000000000000000000000000000000000081526004016200103e90620039b7565b60405180910390fd5b600160008373ffffffffffffffffffffffffffffffffffffffff1673ffffffffffffffffffffffffffffffffffffffff16815260200190815260200160002060009054906101000a900460ff16156200114c576000600160008473ffffffffffffffffffffffffffffffffffffffff1673ffffffffffffffffffffffffffffffffffffffff16815260200190815260200160002060006101000a81548160ff0219169083151502179055507ff1abf01a1043b7c244d128e8595cf0c1d10743b022b03a02dffd8ca3bf729f5a82604051620011239190620036c8565b60405180910390a160016002600082825462001140919062003ca9565b92505081905550600190505b919050565b6000600e60003373ffffffffffffffffffffffffffffffffffffffff1673ffffffffffffffffffffffffffffffffffffffff16815260200190815260200160002060009054906101000a900460ff16620011aa57600080fd5b601660009054906101000a900473ffffffffffffffffffffffffffffffffffffffff1673ffffffffffffffffffffffffffffffffffffffff166370a08231306040518263ffffffff1660e01b8152600401620012079190620036c8565b60206040518083038186803b1580156200122057600080fd5b505afa15801562001235573d6000803e3d6000fd5b505050506040513d601f19601f820116820180604052508101906200125b91906200324b565b905090565b606060058054620012719062003daa565b80601f01602080910402602001604051908101604052809291908181526020018280546200129f9062003daa565b8015620012f05780601f10620012c457610100808354040283529160200191620012f0565b820191906000526020600020905b815481529060010190602001808311620012d257829003601f168201915b5050505050905090565b6000600254905090565b60075481565b6000600f80549050905090565b600060019054906101000a900460ff16620013415760008054906101000a900460ff16156200134c565b6200134b62002a9d565b5b6200138e576040517f08c379a0000000000000000000000000000000000000000000000000000000008152600401620013859062003995565b60405180910390fd5b60008060019054906101000a900460ff161590508015620013df576001600060016101000a81548160ff02191690831515021790555060016000806101000a81548160ff0219169083151502179055505b8b8b60059190620013f292919062002bc1565b50896006819055506001600e60008873ffffffffffffffffffffffffffffffffffffffff1673ffffffffffffffffffffffffffffffffffffffff16815260200190815260200160002060006101000a81548160ff021916908315150217905550600f869080600181540180825580915050600190039060005260206000200160009091909190916101000a81548173ffffffffffffffffffffffffffffffffffffffff021916908373ffffffffffffffffffffffffffffffffffffffff16021790555085600960006101000a81548173ffffffffffffffffffffffffffffffffffffffff021916908373ffffffffffffffffffffffffffffffffffffffff1602179055508860088190555087600360006101000a81548160ff0219169083151502179055506000600a60156101000a81548160ff0219169083151502179055506000600a60146101000a81548160ff02191690831515021790555086601360006101000a81548173ffffffffffffffffffffffffffffffffffffffff021916908373ffffffffffffffffffffffffffffffffffffffff16021790555081601560006101000a81548173ffffffffffffffffffffffffffffffffffffffff021916908373ffffffffffffffffffffffffffffffffffffffff160217905550604051620015dd9062002c52565b604051809103906000f080158015620015fa573d6000803e3d6000fd5b50601460006101000a81548173ffffffffffffffffffffffffffffffffffffffff021916908373ffffffffffffffffffffffffffffffffffffffff16021790555084601160006101000a81548173ffffffffffffffffffffffffffffffffffffffff021916908373ffffffffffffffffffffffffffffffffffffffff16021790555083601260006101000a81548173ffffffffffffffffffffffffffffffffffffffff021916908373ffffffffffffffffffffffffffffffffffffffff16021790555082601660006101000a81548173ffffffffffffffffffffffffffffffffffffffff021916908373ffffffffffffffffffffffffffffffffffffffff1602179055506200173e6040518060400160405280601281526020017f50726f787920696e697469616c697a656421000000000000000000000000000081525062002a00565b8015620017605760008060016101000a81548160ff0219169083151502179055505b505050505050505050505050565b6000600754905090565b6000600e60003373ffffffffffffffffffffffffffffffffffffffff1673ffffffffffffffffffffffffffffffffffffffff16815260200190815260200160002060009054906101000a900460ff16620017d157600080fd5b601660009054906101000a900473ffffffffffffffffffffffffffffffffffffffff1673ffffffffffffffffffffffffffffffffffffffff166370a08231336040518263ffffffff1660e01b81526004016200182e9190620036c8565b60206040518083038186803b1580156200184757600080fd5b505afa1580156200185c573d6000803e3d6000fd5b505050506040513d601f19601f820116820180604052508101906200188291906200324b565b905090565b60085481565b6000600b60003373ffffffffffffffffffffffffffffffffffffffff1673ffffffffffffffffffffffffffffffffffffffff16815260200190815260200160002054905090565b6000600960009054906101000a900473ffffffffffffffffffffffffffffffffffffffff16905090565b62001908620029f8565b73ffffffffffffffffffffffffffffffffffffffff166200192862002022565b73ffffffffffffffffffffffffffffffffffffffff161462001981576040517f08c379a00000000000000000000000000000000000000000000000000000000081526004016200197890620039b7565b60405180910390fd5b6200198d600062002ab0565b565b6000600854905090565b600960009054906101000a900473ffffffffffffffffffffffffffffffffffffffff1673ffffffffffffffffffffffffffffffffffffffff163373ffffffffffffffffffffffffffffffffffffffff161462001a2c576040517f08c379a000000000000000000000000000000000000000000000000000000000815260040162001a2390620039d9565b60405180910390fd5b601460009054906101000a900473ffffffffffffffffffffffffffffffffffffffff1673ffffffffffffffffffffffffffffffffffffffff16637b9417c8826040518263ffffffff1660e01b815260040162001a899190620036c8565b602060405180830381600087803b15801562001aa457600080fd5b505af115801562001ab9573d6000803e3d6000fd5b505050506040513d601f19601f8201168201806040525081019062001adf9190620030cd565b5050565b600062001aef620029f8565b73ffffffffffffffffffffffffffffffffffffffff1662001b0f62002022565b73ffffffffffffffffffffffffffffffffffffffff161462001b68576040517f08c379a000000000000000000000000000000000000000000000000000000000815260040162001b5f90620039b7565b60405180910390fd5b600160008373ffffffffffffffffffffffffffffffffffffffff1673ffffffffffffffffffffffffffffffffffffffff16815260200190815260200160002060009054906101000a900460ff1662001c6b5760018060008473ffffffffffffffffffffffffffffffffffffffff1673ffffffffffffffffffffffffffffffffffffffff16815260200190815260200160002060006101000a81548160ff0219169083151502179055507fd1bba68c128cc3f427e5831b3c6f99f480b6efa6b9e80c757768f6124158cc3f8260405162001c429190620036c8565b60405180910390a160016002600082825462001c5f919062003beb565b92505081905550600190505b919050565b60065481565b6005805462001c859062003daa565b80601f016020809104026020016040519081016040528092919081815260200182805462001cb39062003daa565b801562001d045780601f1062001cd85761010080835404028352916020019162001d04565b820191906000526020600020905b81548152906001019060200180831162001ce657829003601f168201915b505050505081565b62001d16620029f8565b73ffffffffffffffffffffffffffffffffffffffff1662001d3662002022565b73ffffffffffffffffffffffffffffffffffffffff161462001d8f576040517f08c379a000000000000000000000000000000000000000000000000000000000815260040162001d8690620039b7565b60405180910390fd5b73__$36fdb4e0c2cb91f3ceca5ea81b025328f3$__63c406e2686010600754601360009054906101000a900473ffffffffffffffffffffffffffffffffffffffff16600c600b600d6040518763ffffffff1660e01b815260040162001dfa969594939291906200389e565b60006040518083038186803b15801562001e1357600080fd5b505af415801562001e28573d6000803e3d6000fd5b50505050565b600062001e3a620029f8565b73ffffffffffffffffffffffffffffffffffffffff1662001e5a62002022565b73ffffffffffffffffffffffffffffffffffffffff161462001eb3576040517f08c379a000000000000000000000000000000000000000000000000000000000815260040162001eaa90620039b7565b60405180910390fd5b73__$36fdb4e0c2cb91f3ceca5ea81b025328f3$__63fb0841fb8484600754601360009054906101000a900473ffffffffffffffffffffffffffffffffffffffff16600d60008a73ffffffffffffffffffffffffffffffffffffffff1673ffffffffffffffffffffffffffffffffffffffff168152602001908152602001600020600d60008a73ffffffffffffffffffffffffffffffffffffffff1673ffffffffffffffffffffffffffffffffffffffff168152602001908152602001600020600c600b6040518963ffffffff1660e01b815260040162001f9c98979695949392919062003722565b60206040518083038186803b15801562001fb557600080fd5b505af415801562001fca573d6000803e3d6000fd5b505050506040513d601f19601f8201168201806040525081019062001ff0919062002f6b565b905092915050565b6000601360009054906101000a900473ffffffffffffffffffffffffffffffffffffffff16905090565b60008060029054906101000a900473ffffffffffffffffffffffffffffffffffffffff16905090565b601160009054906101000a900473ffffffffffffffffffffffffffffffffffffffff1681565b6000600f8054905060085462002088919062003c48565b905090565b60016020528060005260406000206000915054906101000a900460ff1681565b620020b7620029f8565b73ffffffffffffffffffffffffffffffffffffffff16620020d762002022565b73ffffffffffffffffffffffffffffffffffffffff161462002130576040517f08c379a00000000000000000000000000000000000000000000000000000000081526004016200212790620039b7565b60405180910390fd5b6000600a60156101000a81548160ff021916908315150217905550565b6060600d60003373ffffffffffffffffffffffffffffffffffffffff1673ffffffffffffffffffffffffffffffffffffffff168152602001908152602001600020805480602002602001604051908101604052809291908181526020018280548015620021da57602002820191906000526020600020905b815481526020019060010190808311620021c5575b5050505050905090565b620021ee620029f8565b73ffffffffffffffffffffffffffffffffffffffff166200220e62002022565b73ffffffffffffffffffffffffffffffffffffffff161462002267576040517f08c379a00000000000000000000000000000000000000000000000000000000081526004016200225e90620039b7565b60405180910390fd5b6001600a60156101000a81548160ff021916908315150217905550565b600160003373ffffffffffffffffffffffffffffffffffffffff1673ffffffffffffffffffffffffffffffffffffffff16815260200190815260200160002060009054906101000a900460ff1680620022e95750600360009054906101000a900460ff165b6200232b576040517f08c379a0000000000000000000000000000000000000000000000000000000008152600401620023229062003951565b60405180910390fd5b6002600454141562002374576040517f08c379a00000000000000000000000000000000000000000000000000000000081526004016200236b9062003a1d565b60405180910390fd5b6002600481905550600a60149054906101000a900460ff1615620023cf576040517f08c379a0000000000000000000000000000000000000000000000000000000008152600401620023c69062003a3f565b60405180910390fd5b6001600e60003373ffffffffffffffffffffffffffffffffffffffff1673ffffffffffffffffffffffffffffffffffffffff16815260200190815260200160002060006101000a81548160ff021916908315150217905550600f339080600181540180825580915050600190039060005260206000200160009091909190916101000a81548173ffffffffffffffffffffffffffffffffffffffff021916908373ffffffffffffffffffffffffffffffffffffffff160217905550601660009054906101000a900473ffffffffffffffffffffffffffffffffffffffff1673ffffffffffffffffffffffffffffffffffffffff166323b872dd33306008546040518463ffffffff1660e01b8152600401620024ed93929190620036e5565b602060405180830381600087803b1580156200250857600080fd5b505af11580156200251d573d6000803e3d6000fd5b505050506040513d601f19601f82011682018060405250810190620025439190620030cd565b507f9e71bc8eea02a63969f509818f2dafb9254532904319f9dbda79b67bd34a5f3d3360085460405162002579929190620037be565b60405180910390a16001600481905550565b6000601660009054906101000a900473ffffffffffffffffffffffffffffffffffffffff16905090565b600360009054906101000a900460ff1681565b6000620025d4620029f8565b73ffffffffffffffffffffffffffffffffffffffff16620025f462002022565b73ffffffffffffffffffffffffffffffffffffffff16146200264d576040517f08c379a00000000000000000000000000000000000000000000000000000000081526004016200264490620039b7565b60405180910390fd5b60005b8251811015620026bf576200268283828151811062002674576200267362003ee0565b5b602002602001015162001ae3565b15620026a9576001600260008282546200269d919062003beb565b92505081905550600191505b8080620026b69062003e34565b91505062002650565b50919050565b620026cf620029f8565b73ffffffffffffffffffffffffffffffffffffffff16620026ef62002022565b73ffffffffffffffffffffffffffffffffffffffff161462002748576040517f08c379a00000000000000000000000000000000000000000000000000000000081526004016200273f90620039b7565b60405180910390fd5b6001600a60146101000a81548160ff021916908315150217905550565b6200276f620029f8565b73ffffffffffffffffffffffffffffffffffffffff166200278f62002022565b73ffffffffffffffffffffffffffffffffffffffff1614620027e8576040517f08c379a0000000000000000000000000000000000000000000000000000000008152600401620027df90620039b7565b60405180910390fd5b600073ffffffffffffffffffffffffffffffffffffffff168173ffffffffffffffffffffffffffffffffffffffff1614156200285b576040517f08c379a000000000000000000000000000000000000000000000000000000000815260040162002852906200392f565b60405180910390fd5b620028668162002ab0565b50565b600a60159054906101000a900460ff1615620028bc576040517f08c379a0000000000000000000000000000000000000000000000000000000008152600401620028b39062003973565b60405180910390fd5b600e60003373ffffffffffffffffffffffffffffffffffffffff1673ffffffffffffffffffffffffffffffffffffffff16815260200190815260200160002060009054906101000a900460ff166200291357600080fd5b80600d60003373ffffffffffffffffffffffffffffffffffffffff1673ffffffffffffffffffffffffffffffffffffffff16815260200190815260200160002090805190602001906200296892919062002c60565b5050565b6200297662002cb2565b600c60003373ffffffffffffffffffffffffffffffffffffffff1673ffffffffffffffffffffffffffffffffffffffff168152602001908152602001600020600880602002604051908101604052809291908260088015620029ee576020028201915b815481526020019060010190808311620029d9575b5050505050905090565b600033905090565b62002a9a8160405160240162002a1791906200390b565b6040516020818303038152906040527f41304fac000000000000000000000000000000000000000000000000000000007bffffffffffffffffffffffffffffffffffffffffffffffffffffffff19166020820180517bffffffffffffffffffffffffffffffffffffffffffffffffffffffff838183161783525050505062002b75565b50565b600062002aaa3062002b9e565b15905090565b60008060029054906101000a900473ffffffffffffffffffffffffffffffffffffffff16905081600060026101000a81548173ffffffffffffffffffffffffffffffffffffffff021916908373ffffffffffffffffffffffffffffffffffffffff1602179055508173ffffffffffffffffffffffffffffffffffffffff168173ffffffffffffffffffffffffffffffffffffffff167f8be0079c531659141344cd1fd0a4f28419497f9722a3daafe3b4186f6b6457e060405160405180910390a35050565b60008151905060006a636f6e736f6c652e6c6f679050602083016000808483855afa5050505050565b6000808273ffffffffffffffffffffffffffffffffffffffff163b119050919050565b82805462002bcf9062003daa565b90600052602060002090601f01602090048101928262002bf3576000855562002c3f565b82601f1062002c0e57803560ff191683800117855562002c3f565b8280016001018555821562002c3f579182015b8281111562002c3e57823582559160200191906001019062002c21565b5b50905062002c4e919062002cd5565b5090565b610ffc80620041e283390190565b82805482825590600052602060002090810192821562002c9f579160200282015b8281111562002c9e57825182559160200191906001019062002c81565b5b50905062002cae919062002cd5565b5090565b604051806101000160405280600890602082028036833780820191505090505090565b5b8082111562002cf057600081600090555060010162002cd6565b5090565b600062002d0b62002d058462003aa7565b62003a7e565b9050808382526020820190508285602086028201111562002d315762002d3062003f5d565b5b60005b8581101562002d65578162002d4a888262002dea565b84526020840193506020830192505060018101905062002d34565b5050509392505050565b600062002d8662002d808462003ad6565b62003a7e565b9050808382526020820190508285602086028201111562002dac5762002dab62003f5d565b5b60005b8581101562002de0578162002dc5888262002f0b565b84526020840193506020830192505060018101905062002daf565b5050509392505050565b60008135905062002dfb8162004193565b92915050565b60008151905062002e128162004193565b92915050565b600082601f83011262002e305762002e2f62003f58565b5b813562002e4284826020860162002cf4565b91505092915050565b600082601f83011262002e635762002e6262003f58565b5b813562002e7584826020860162002d6f565b91505092915050565b60008135905062002e8f81620041ad565b92915050565b60008151905062002ea681620041ad565b92915050565b60008083601f84011262002ec55762002ec462003f58565b5b8235905067ffffffffffffffff81111562002ee55762002ee462003f53565b5b60208301915083600182028301111562002f045762002f0362003f5d565b5b9250929050565b60008135905062002f1c81620041c7565b92915050565b60008151905062002f3381620041c7565b92915050565b60006020828403121562002f525762002f5162003f67565b5b600062002f628482850162002dea565b91505092915050565b60006020828403121562002f845762002f8362003f67565b5b600062002f948482850162002e01565b91505092915050565b6000806040838503121562002fb75762002fb662003f67565b5b600062002fc78582860162002dea565b925050602062002fda8582860162002dea565b9150509250929050565b6000806040838503121562002ffe5762002ffd62003f67565b5b60006200300e8582860162002dea565b9250506020620030218582860162002f0b565b9150509250929050565b60006020828403121562003044576200304362003f67565b5b600082013567ffffffffffffffff81111562003065576200306462003f62565b5b620030738482850162002e18565b91505092915050565b60006020828403121562003095576200309462003f67565b5b600082013567ffffffffffffffff811115620030b657620030b562003f62565b5b620030c48482850162002e4b565b91505092915050565b600060208284031215620030e657620030e562003f67565b5b6000620030f68482850162002e95565b91505092915050565b60008060008060008060008060008060006101408c8e03121562003128576200312762003f67565b5b60008c013567ffffffffffffffff81111562003149576200314862003f62565b5b620031578e828f0162002eac565b9b509b505060206200316c8e828f0162002f0b565b99505060406200317f8e828f0162002f0b565b9850506060620031928e828f0162002e7e565b9750506080620031a58e828f0162002dea565b96505060a0620031b88e828f0162002dea565b95505060c0620031cb8e828f0162002dea565b94505060e0620031de8e828f0162002dea565b935050610100620031f28e828f0162002dea565b925050610120620032068e828f0162002dea565b9150509295989b509295989b9093969950565b60006020828403121562003232576200323162003f67565b5b6000620032428482850162002f0b565b91505092915050565b60006020828403121562003264576200326362003f67565b5b6000620032748482850162002f22565b91505092915050565b60006200328b838362003684565b60208301905092915050565b6000620032a58383620036b7565b60208301905092915050565b620032bc8162003cee565b82525050565b620032cd8162003cee565b82525050565b8082525050565b620032e58162003b49565b620032f1818462003b9c565b9250620032fe8262003b05565b8060005b83811015620033355781516200331987826200327d565b9650620033268362003b75565b92505060018101905062003302565b505050505050565b60006200334a8262003b54565b62003356818562003ba7565b9350620033638362003b0f565b8060005b838110156200339a5781516200337e88826200327d565b97506200338b8362003b82565b92505060018101905062003367565b5085935050505092915050565b6000620033b48262003b5f565b620033c0818562003bb8565b9350620033cd8362003b1f565b8060005b838110156200340d57620033e58262003f3e565b620033f1888262003297565b9750620033fe8362003b8f565b925050600181019050620033d1565b5085935050505092915050565b620034258162003d02565b82525050565b620034368162003d38565b82525050565b8082525050565b8082525050565b8082525050565b8082525050565b6000620034658262003b6a565b62003471818562003bc9565b93506200348381856020860162003d74565b6200348e8162003f6c565b840191505092915050565b60008154620034a88162003daa565b620034b4818662003bda565b94506001821660008114620034d25760018114620034e5576200351c565b60ff19831686526020860193506200351c565b620034f08562003b34565b60005b838110156200351457815481890152600182019150602081019050620034f3565b808801955050505b50505092915050565b60006200353460268362003bc9565b9150620035418262003f8a565b604082019050919050565b60006200355b601a8362003bc9565b9150620035688262003fd9565b602082019050919050565b600062003582601e8362003bc9565b91506200358f8262004002565b602082019050919050565b6000620035a9602e8362003bc9565b9150620035b6826200402b565b604082019050919050565b6000620035d060208362003bc9565b9150620035dd826200407a565b602082019050919050565b6000620035f760178362003bc9565b91506200360482620040a3565b602082019050919050565b60006200361e60418362003bc9565b91506200362b82620040cc565b606082019050919050565b600062003645601f8362003bc9565b9150620036528262004141565b602082019050919050565b60006200366c60178362003bc9565b915062003679826200416a565b602082019050919050565b6200368f8162003d2e565b82525050565b620036a08162003d2e565b82525050565b620036b18162003d2e565b82525050565b620036c28162003d2e565b82525050565b6000602082019050620036df6000830184620032b1565b92915050565b6000606082019050620036fc6000830186620032b1565b6200370b6020830185620032b1565b6200371a604083018462003695565b949350505050565b6000610100820190506200373a600083018b620032c2565b62003749602083018a620032c2565b620037586040830189620036a6565b6200376760608301886200342b565b81810360808301526200377b8187620033a7565b905081810360a0830152620037918186620033a7565b9050620037a260c08301856200343c565b620037b160e08301846200344a565b9998505050505050505050565b6000604082019050620037d56000830185620032b1565b620037e4602083018462003695565b9392505050565b600061010082019050620038036000830184620032da565b92915050565b600060208201905081810360008301526200382581846200333d565b905092915050565b60006020820190506200384460008301846200341a565b92915050565b600060808201905062003861600083018762003451565b620038706020830186620032d3565b6200387f6040830185620036a6565b818103606083015262003893818462003499565b905095945050505050565b600060c082019050620038b5600083018962003451565b620038c46020830188620036a6565b620038d360408301876200342b565b620038e260608301866200343c565b620038f160808301856200344a565b6200390060a083018462003443565b979650505050505050565b6000602082019050818103600083015262003927818462003458565b905092915050565b600060208201905081810360008301526200394a8162003525565b9050919050565b600060208201905081810360008301526200396c816200354c565b9050919050565b600060208201905081810360008301526200398e8162003573565b9050919050565b60006020820190508181036000830152620039b0816200359a565b9050919050565b60006020820190508181036000830152620039d281620035c1565b9050919050565b60006020820190508181036000830152620039f481620035e8565b9050919050565b6000602082019050818103600083015262003a16816200360f565b9050919050565b6000602082019050818103600083015262003a388162003636565b9050919050565b6000602082019050818103600083015262003a5a816200365d565b9050919050565b600060208201905062003a78600083018462003695565b92915050565b600062003a8a62003a9d565b905062003a98828262003dfe565b919050565b6000604051905090565b600067ffffffffffffffff82111562003ac55762003ac462003f0f565b5b602082029050602081019050919050565b600067ffffffffffffffff82111562003af45762003af362003f0f565b5b602082029050602081019050919050565b6000819050919050565b6000819050602082019050919050565b60008190508160005260206000209050919050565b60008190508160005260206000209050919050565b600060089050919050565b600081519050919050565b600081549050919050565b600081519050919050565b6000602082019050919050565b6000602082019050919050565b6000600182019050919050565b600081905092915050565b600082825260208201905092915050565b600082825260208201905092915050565b600082825260208201905092915050565b600082825260208201905092915050565b600062003bf88262003d2e565b915062003c058362003d2e565b9250827fffffffffffffffffffffffffffffffffffffffffffffffffffffffffffffffff0382111562003c3d5762003c3c62003e82565b5b828201905092915050565b600062003c558262003d2e565b915062003c628362003d2e565b9250817fffffffffffffffffffffffffffffffffffffffffffffffffffffffffffffffff048311821515161562003c9e5762003c9d62003e82565b5b828202905092915050565b600062003cb68262003d2e565b915062003cc38362003d2e565b92508282101562003cd95762003cd862003e82565b5b828203905092915050565b6000819050919050565b600062003cfb8262003d0e565b9050919050565b60008115159050919050565b600073ffffffffffffffffffffffffffffffffffffffff82169050919050565b6000819050919050565b600062003d458262003d4c565b9050919050565b600062003d598262003d60565b9050919050565b600062003d6d8262003d0e565b9050919050565b60005b8381101562003d9457808201518184015260208101905062003d77565b8381111562003da4576000848401525b50505050565b6000600282049050600182168062003dc357607f821691505b6020821081141562003dda5762003dd962003eb1565b5b50919050565b600062003df762003df18362003f7d565b62003ce4565b9050919050565b62003e098262003f6c565b810181811067ffffffffffffffff8211171562003e2b5762003e2a62003f0f565b5b80604052505050565b600062003e418262003d2e565b91507fffffffffffffffffffffffffffffffffffffffffffffffffffffffffffffffff82141562003e775762003e7662003e82565b5b600182019050919050565b7f4e487b7100000000000000000000000000000000000000000000000000000000600052601160045260246000fd5b7f4e487b7100000000000000000000000000000000000000000000000000000000600052602260045260246000fd5b7f4e487b7100000000000000000000000000000000000000000000000000000000600052603260045260246000fd5b7f4e487b7100000000000000000000000000000000000000000000000000000000600052604160045260246000fd5b600062003f4c825462003de0565b9050919050565b600080fd5b600080fd5b600080fd5b600080fd5b600080fd5b6000601f19601f8301169050919050565b60008160001c9050919050565b7f4f776e61626c653a206e6577206f776e657220697320746865207a65726f206160008201527f6464726573730000000000000000000000000000000000000000000000000000602082015250565b7f55736572206973206e6f742077686974656c6973746564203a28000000000000600082015250565b7f6c696e657570206973206c6f636b656420666f7220746865207765656b210000600082015250565b7f496e697469616c697a61626c653a20636f6e747261637420697320616c72656160008201527f647920696e697469616c697a6564000000000000000000000000000000000000602082015250565b7f4f776e61626c653a2063616c6c6572206973206e6f7420746865206f776e6572600082015250565b7f43616c6c6572206973206e6f74207468652061646d696e000000000000000000600082015250565b7f4e6f626f64792063616e20656e7465722f6578697420746865206c656167756560008201527f20616e796d6f72652e2054686520736561736f6e20686173207374617274656460208201527f2100000000000000000000000000000000000000000000000000000000000000604082015250565b7f5265656e7472616e637947756172643a207265656e7472616e742063616c6c00600082015250565b7f4c656167756520456e74727920697320436c6f73656421000000000000000000600082015250565b6200419e8162003cee565b8114620041aa57600080fd5b50565b620041b88162003d02565b8114620041c457600080fd5b50565b620041d28162003d2e565b8114620041de57600080fd5b5056fe608060405234801561001057600080fd5b5061002d61002261003260201b60201c565b61003a60201b60201c565b6100fe565b600033905090565b60008060009054906101000a900473ffffffffffffffffffffffffffffffffffffffff169050816000806101000a81548173ffffffffffffffffffffffffffffffffffffffff021916908373ffffffffffffffffffffffffffffffffffffffff1602179055508173ffffffffffffffffffffffffffffffffffffffff168173ffffffffffffffffffffffffffffffffffffffff167f8be0079c531659141344cd1fd0a4f28419497f9722a3daafe3b4186f6b6457e060405160405180910390a35050565b610eef8061010d6000396000f3fe608060405234801561001057600080fd5b506004361061009e5760003560e01c80638da5cb5b116100665780638da5cb5b1461015b5780639b19251a14610179578063dc9a1535146101a9578063e2ec6ec3146101c7578063f2fde38b146101f75761009e565b806324953eaa146100a3578063286dd3f5146100d357806344eaa84e14610103578063715018a6146101215780637b9417c81461012b575b600080fd5b6100bd60048036038101906100b89190610a7d565b610213565b6040516100ca9190610b54565b60405180910390f35b6100ed60048036038101906100e89190610a50565b6102fd565b6040516100fa9190610b54565b60405180910390f35b61010b610480565b6040516101189190610baf565b60405180910390f35b61012961048a565b005b61014560048036038101906101409190610a50565b610512565b6040516101529190610b54565b60405180910390f35b610163610693565b6040516101709190610b39565b60405180910390f35b610193600480360381019061018e9190610a50565b6106bc565b6040516101a09190610b54565b60405180910390f35b6101b16106dc565b6040516101be9190610b54565b60405180910390f35b6101e160048036038101906101dc9190610a7d565b6106ef565b6040516101ee9190610b54565b60405180910390f35b610211600480360381019061020c9190610a50565b6107d9565b005b600061021d6108d1565b73ffffffffffffffffffffffffffffffffffffffff1661023b610693565b73ffffffffffffffffffffffffffffffffffffffff1614610291576040517f08c379a000000000000000000000000000000000000000000000000000000000815260040161028890610b8f565b60405180910390fd5b60005b82518110156102f7576102c08382815181106102b3576102b2610da7565b5b60200260200101516102fd565b156102e4576001600260008282546102d89190610c82565b92505081905550600191505b80806102ef90610d2f565b915050610294565b50919050565b60006103076108d1565b73ffffffffffffffffffffffffffffffffffffffff16610325610693565b73ffffffffffffffffffffffffffffffffffffffff161461037b576040517f08c379a000000000000000000000000000000000000000000000000000000000815260040161037290610b8f565b60405180910390fd5b600160008373ffffffffffffffffffffffffffffffffffffffff1673ffffffffffffffffffffffffffffffffffffffff16815260200190815260200160002060009054906101000a900460ff161561047b576000600160008473ffffffffffffffffffffffffffffffffffffffff1673ffffffffffffffffffffffffffffffffffffffff16815260200190815260200160002060006101000a81548160ff0219169083151502179055507ff1abf01a1043b7c244d128e8595cf0c1d10743b022b03a02dffd8ca3bf729f5a826040516104549190610b39565b60405180910390a160016002600082825461046f9190610c82565b92505081905550600190505b919050565b6000600254905090565b6104926108d1565b73ffffffffffffffffffffffffffffffffffffffff166104b0610693565b73ffffffffffffffffffffffffffffffffffffffff1614610506576040517f08c379a00000000000000000000000000000000000000000000000000000000081526004016104fd90610b8f565b60405180910390fd5b61051060006108d9565b565b600061051c6108d1565b73ffffffffffffffffffffffffffffffffffffffff1661053a610693565b73ffffffffffffffffffffffffffffffffffffffff1614610590576040517f08c379a000000000000000000000000000000000000000000000000000000000815260040161058790610b8f565b60405180910390fd5b600160008373ffffffffffffffffffffffffffffffffffffffff1673ffffffffffffffffffffffffffffffffffffffff16815260200190815260200160002060009054906101000a900460ff1661068e5760018060008473ffffffffffffffffffffffffffffffffffffffff1673ffffffffffffffffffffffffffffffffffffffff16815260200190815260200160002060006101000a81548160ff0219169083151502179055507fd1bba68c128cc3f427e5831b3c6f99f480b6efa6b9e80c757768f6124158cc3f826040516106679190610b39565b60405180910390a16001600260008282546106829190610c2c565b92505081905550600190505b919050565b60008060009054906101000a900473ffffffffffffffffffffffffffffffffffffffff16905090565b60016020528060005260406000206000915054906101000a900460ff1681565b600360009054906101000a900460ff1681565b60006106f96108d1565b73ffffffffffffffffffffffffffffffffffffffff16610717610693565b73ffffffffffffffffffffffffffffffffffffffff161461076d576040517f08c379a000000000000000000000000000000000000000000000000000000000815260040161076490610b8f565b60405180910390fd5b60005b82518110156107d35761079c83828151811061078f5761078e610da7565b5b6020026020010151610512565b156107c0576001600260008282546107b49190610c2c565b92505081905550600191505b80806107cb90610d2f565b915050610770565b50919050565b6107e16108d1565b73ffffffffffffffffffffffffffffffffffffffff166107ff610693565b73ffffffffffffffffffffffffffffffffffffffff1614610855576040517f08c379a000000000000000000000000000000000000000000000000000000000815260040161084c90610b8f565b60405180910390fd5b600073ffffffffffffffffffffffffffffffffffffffff168173ffffffffffffffffffffffffffffffffffffffff1614156108c5576040517f08c379a00000000000000000000000000000000000000000000000000000000081526004016108bc90610b6f565b60405180910390fd5b6108ce816108d9565b50565b600033905090565b60008060009054906101000a900473ffffffffffffffffffffffffffffffffffffffff169050816000806101000a81548173ffffffffffffffffffffffffffffffffffffffff021916908373ffffffffffffffffffffffffffffffffffffffff1602179055508173ffffffffffffffffffffffffffffffffffffffff168173ffffffffffffffffffffffffffffffffffffffff167f8be0079c531659141344cd1fd0a4f28419497f9722a3daafe3b4186f6b6457e060405160405180910390a35050565b60006109b06109ab84610bef565b610bca565b905080838252602082019050828560208602820111156109d3576109d2610e0a565b5b60005b85811015610a0357816109e98882610a0d565b8452602084019350602083019250506001810190506109d6565b5050509392505050565b600081359050610a1c81610ea2565b92915050565b600082601f830112610a3757610a36610e05565b5b8135610a4784826020860161099d565b91505092915050565b600060208284031215610a6657610a65610e14565b5b6000610a7484828501610a0d565b91505092915050565b600060208284031215610a9357610a92610e14565b5b600082013567ffffffffffffffff811115610ab157610ab0610e0f565b5b610abd84828501610a22565b91505092915050565b610acf81610cb6565b82525050565b610ade81610cc8565b82525050565b6000610af1602683610c1b565b9150610afc82610e2a565b604082019050919050565b6000610b14602083610c1b565b9150610b1f82610e79565b602082019050919050565b610b3381610cf4565b82525050565b6000602082019050610b4e6000830184610ac6565b92915050565b6000602082019050610b696000830184610ad5565b92915050565b60006020820190508181036000830152610b8881610ae4565b9050919050565b60006020820190508181036000830152610ba881610b07565b9050919050565b6000602082019050610bc46000830184610b2a565b92915050565b6000610bd4610be5565b9050610be08282610cfe565b919050565b6000604051905090565b600067ffffffffffffffff821115610c0a57610c09610dd6565b5b602082029050602081019050919050565b600082825260208201905092915050565b6000610c3782610cf4565b9150610c4283610cf4565b9250827fffffffffffffffffffffffffffffffffffffffffffffffffffffffffffffffff03821115610c7757610c76610d78565b5b828201905092915050565b6000610c8d82610cf4565b9150610c9883610cf4565b925082821015610cab57610caa610d78565b5b828203905092915050565b6000610cc182610cd4565b9050919050565b60008115159050919050565b600073ffffffffffffffffffffffffffffffffffffffff82169050919050565b6000819050919050565b610d0782610e19565b810181811067ffffffffffffffff82111715610d2657610d25610dd6565b5b80604052505050565b6000610d3a82610cf4565b91507fffffffffffffffffffffffffffffffffffffffffffffffffffffffffffffffff821415610d6d57610d6c610d78565b5b600182019050919050565b7f4e487b7100000000000000000000000000000000000000000000000000000000600052601160045260246000fd5b7f4e487b7100000000000000000000000000000000000000000000000000000000600052603260045260246000fd5b7f4e487b7100000000000000000000000000000000000000000000000000000000600052604160045260246000fd5b600080fd5b600080fd5b600080fd5b600080fd5b6000601f19601f8301169050919050565b7f4f776e61626c653a206e6577206f776e657220697320746865207a65726f206160008201527f6464726573730000000000000000000000000000000000000000000000000000602082015250565b7f4f776e61626c653a2063616c6c6572206973206e6f7420746865206f776e6572600082015250565b610eab81610cb6565b8114610eb657600080fd5b5056fea2646970667358221220b19f539cfe7d503e405ad92d3c12e2726881219f37f5d5a2af3c5a4094511b7e64736f6c63430008070033a2646970667358221220f3b572daf9a050914d21eadf2bc63fac95c54cdebc2e3f22099c5d7fbf649cfe64736f6c63430008070033",
  "linkReferences": {
    "contracts/MOBALogicLibrary.sol": {
      "MOBALogicLibrary": [
        {
          "length": 20,
          "start": 2682
        },
        {
          "length": 20,
          "start": 7854
        },
        {
          "length": 20,
          "start": 8146
        }
      ]
    }
  },
  "deployedLinkReferences": {
    "contracts/MOBALogicLibrary.sol": {
      "MOBALogicLibrary": [
        {
          "length": 20,
          "start": 2397
        },
        {
          "length": 20,
          "start": 7569
        },
        {
          "length": 20,
          "start": 7861
        }
      ]
    }
  }
}