{
  "_format": "hh-sol-artifact-1",
  "contractName": "LeagueOfLegendsLogic",
  "sourceName": "contracts/LeagueOfLegendsLogic.sol",
  "abi": [
    {
      "anonymous": false,
      "inputs": [
        {
          "indexed": true,
          "internalType": "address",
          "name": "previousOwner",
          "type": "address"
        },
        {
          "indexed": true,
          "internalType": "address",
          "name": "newOwner",
          "type": "address"
        }
      ],
      "name": "OwnershipTransferred",
      "type": "event"
    },
    {
      "anonymous": false,
      "inputs": [
        {
          "indexed": false,
          "internalType": "address",
          "name": "sender",
          "type": "address"
        },
        {
          "indexed": false,
          "internalType": "uint256",
          "name": "amount",
          "type": "uint256"
        }
      ],
      "name": "Staked",
      "type": "event"
    },
    {
      "anonymous": false,
      "inputs": [
        {
          "indexed": false,
          "internalType": "address",
          "name": "addr",
          "type": "address"
        }
      ],
      "name": "WhitelistedAddressAdded",
      "type": "event"
    },
    {
      "anonymous": false,
      "inputs": [
        {
          "indexed": false,
          "internalType": "address",
          "name": "addr",
          "type": "address"
        }
      ],
      "name": "WhitelistedAddressRemoved",
      "type": "event"
    },
    {
      "anonymous": false,
      "inputs": [
        {
          "indexed": false,
          "internalType": "address[]",
          "name": "winner",
          "type": "address[]"
        },
        {
          "indexed": false,
          "internalType": "uint256",
          "name": "prizePotPerWinner",
          "type": "uint256"
        }
      ],
      "name": "leagueEnded",
      "type": "event"
    },
    {
      "anonymous": false,
      "inputs": [
        {
          "indexed": false,
          "internalType": "address",
          "name": "sender",
          "type": "address"
        },
        {
          "indexed": false,
          "internalType": "address",
          "name": "contractAddress",
          "type": "address"
        }
      ],
      "name": "testUSDCDeployed",
      "type": "event"
    },
    {
      "inputs": [
        {
          "internalType": "address",
          "name": "addr",
          "type": "address"
        }
      ],
      "name": "addAddressToWhitelist",
      "outputs": [
        {
          "internalType": "bool",
          "name": "success",
          "type": "bool"
        }
      ],
      "stateMutability": "nonpayable",
      "type": "function"
    },
    {
      "inputs": [
        {
          "internalType": "address[]",
          "name": "addrs",
          "type": "address[]"
        }
      ],
      "name": "addAddressesToWhitelist",
      "outputs": [
        {
          "internalType": "bool",
          "name": "success",
          "type": "bool"
        }
      ],
      "stateMutability": "nonpayable",
      "type": "function"
    },
    {
      "inputs": [
        {
          "internalType": "address",
          "name": "_userToAdd",
          "type": "address"
        }
      ],
      "name": "addUserToWhitelist",
      "outputs": [],
      "stateMutability": "nonpayable",
      "type": "function"
    },
    {
      "inputs": [],
      "name": "admin",
      "outputs": [
        {
          "internalType": "address",
          "name": "",
          "type": "address"
        }
      ],
      "stateMutability": "view",
      "type": "function"
    },
    {
      "inputs": [],
      "name": "currentWeekNum",
      "outputs": [
        {
          "internalType": "uint256",
          "name": "",
          "type": "uint256"
        }
      ],
      "stateMutability": "view",
      "type": "function"
    },
    {
      "inputs": [],
      "name": "evaluateMatches",
      "outputs": [],
      "stateMutability": "nonpayable",
      "type": "function"
    },
    {
      "inputs": [],
      "name": "getAdmin",
      "outputs": [
        {
          "internalType": "address",
          "name": "",
          "type": "address"
        }
      ],
      "stateMutability": "view",
      "type": "function"
    },
    {
      "inputs": [],
      "name": "getContractUSDCBalance",
      "outputs": [
        {
          "internalType": "uint256",
          "name": "",
          "type": "uint256"
        }
      ],
      "stateMutability": "view",
      "type": "function"
    },
    {
      "inputs": [
        {
          "internalType": "address",
          "name": "_user",
          "type": "address"
        }
      ],
      "name": "getLineup",
      "outputs": [
        {
          "internalType": "uint256[]",
          "name": "",
          "type": "uint256[]"
        }
      ],
      "stateMutability": "view",
      "type": "function"
    },
    {
      "inputs": [],
      "name": "getLineupIsLocked",
      "outputs": [
        {
          "internalType": "bool",
          "name": "",
          "type": "bool"
        }
      ],
      "stateMutability": "view",
      "type": "function"
    },
    {
      "inputs": [],
      "name": "getNumWhitelisted",
      "outputs": [
        {
          "internalType": "uint256",
          "name": "",
          "type": "uint256"
        }
      ],
      "stateMutability": "view",
      "type": "function"
    },
    {
      "inputs": [
        {
          "internalType": "uint256",
          "name": "_week",
          "type": "uint256"
        }
      ],
      "name": "getScheduleForWeek",
      "outputs": [
        {
          "components": [
            {
              "internalType": "address[2]",
              "name": "players",
              "type": "address[2]"
            }
          ],
          "internalType": "struct LeagueOfLegendsLogic.Matchup[]",
          "name": "",
          "type": "tuple[]"
        }
      ],
      "stateMutability": "view",
      "type": "function"
    },
    {
      "inputs": [
        {
          "internalType": "address",
          "name": "_user",
          "type": "address"
        }
      ],
      "name": "getUserIsWhitelisted",
      "outputs": [
        {
          "internalType": "bool",
          "name": "",
          "type": "bool"
        }
      ],
      "stateMutability": "view",
      "type": "function"
    },
    {
      "inputs": [],
      "name": "getUserRecord",
      "outputs": [
        {
          "internalType": "uint256[]",
          "name": "",
          "type": "uint256[]"
        }
      ],
      "stateMutability": "view",
      "type": "function"
    },
    {
      "inputs": [
        {
          "internalType": "address",
          "name": "",
          "type": "address"
        }
      ],
      "name": "inLeague",
      "outputs": [
        {
          "internalType": "bool",
          "name": "",
          "type": "bool"
        }
      ],
      "stateMutability": "view",
      "type": "function"
    },
    {
      "inputs": [
        {
          "internalType": "string",
          "name": "_name",
          "type": "string"
        },
        {
          "internalType": "uint256",
          "name": "_stakeAmount",
          "type": "uint256"
        },
        {
          "internalType": "bool",
          "name": "_isPublic",
          "type": "bool"
        },
        {
          "internalType": "address",
          "name": "athletesDataStorageAddress",
          "type": "address"
        },
        {
          "internalType": "address",
          "name": "_admin",
          "type": "address"
        },
        {
          "internalType": "address",
          "name": "_rinkebyUSDCAddress",
          "type": "address"
        },
        {
          "internalType": "address",
          "name": "_testUSDCAddress",
          "type": "address"
        },
        {
          "internalType": "address",
          "name": "_gameItemsContractAddress",
          "type": "address"
        },
        {
          "internalType": "address",
          "name": "_teamDiffAddress",
          "type": "address"
        },
        {
          "internalType": "address",
          "name": "_leagueMakerContractAddress",
          "type": "address"
        }
      ],
      "name": "initialize",
      "outputs": [],
      "stateMutability": "nonpayable",
      "type": "function"
    },
    {
      "inputs": [],
      "name": "isPublic",
      "outputs": [
        {
          "internalType": "bool",
          "name": "",
          "type": "bool"
        }
      ],
      "stateMutability": "view",
      "type": "function"
    },
    {
      "inputs": [],
      "name": "joinLeague",
      "outputs": [],
      "stateMutability": "nonpayable",
      "type": "function"
    },
    {
      "inputs": [],
      "name": "leagueEntryIsClosed",
      "outputs": [
        {
          "internalType": "bool",
          "name": "",
          "type": "bool"
        }
      ],
      "stateMutability": "view",
      "type": "function"
    },
    {
      "inputs": [
        {
          "internalType": "uint256",
          "name": "",
          "type": "uint256"
        }
      ],
      "name": "leagueMembers",
      "outputs": [
        {
          "internalType": "address",
          "name": "",
          "type": "address"
        }
      ],
      "stateMutability": "view",
      "type": "function"
    },
    {
      "inputs": [],
      "name": "leagueName",
      "outputs": [
        {
          "internalType": "string",
          "name": "",
          "type": "string"
        }
      ],
      "stateMutability": "view",
      "type": "function"
    },
    {
      "inputs": [],
      "name": "lineupIsLocked",
      "outputs": [
        {
          "internalType": "bool",
          "name": "",
          "type": "bool"
        }
      ],
      "stateMutability": "view",
      "type": "function"
    },
    {
      "inputs": [],
      "name": "lockLineup",
      "outputs": [],
      "stateMutability": "nonpayable",
      "type": "function"
    },
    {
      "inputs": [],
      "name": "numWeeks",
      "outputs": [
        {
          "internalType": "uint256",
          "name": "",
          "type": "uint256"
        }
      ],
      "stateMutability": "view",
      "type": "function"
    },
    {
      "inputs": [],
      "name": "onLeagueEnd",
      "outputs": [],
      "stateMutability": "nonpayable",
      "type": "function"
    },
    {
      "inputs": [],
      "name": "owner",
      "outputs": [
        {
          "internalType": "address",
          "name": "",
          "type": "address"
        }
      ],
      "stateMutability": "view",
      "type": "function"
    },
    {
      "inputs": [
        {
          "internalType": "address",
          "name": "addr",
          "type": "address"
        }
      ],
      "name": "removeAddressFromWhitelist",
      "outputs": [
        {
          "internalType": "bool",
          "name": "success",
          "type": "bool"
        }
      ],
      "stateMutability": "nonpayable",
      "type": "function"
    },
    {
      "inputs": [
        {
          "internalType": "address[]",
          "name": "addrs",
          "type": "address[]"
        }
      ],
      "name": "removeAddressesFromWhitelist",
      "outputs": [
        {
          "internalType": "bool",
          "name": "success",
          "type": "bool"
        }
      ],
      "stateMutability": "nonpayable",
      "type": "function"
    },
    {
      "inputs": [
        {
          "internalType": "address",
          "name": "_userToRemove",
          "type": "address"
        }
      ],
      "name": "removeFromWhitelist",
      "outputs": [],
      "stateMutability": "nonpayable",
      "type": "function"
    },
    {
      "inputs": [],
      "name": "renounceOwnership",
      "outputs": [],
      "stateMutability": "nonpayable",
      "type": "function"
    },
    {
      "inputs": [],
      "name": "rinkebyUSDCAddress",
      "outputs": [
        {
          "internalType": "address",
          "name": "",
          "type": "address"
        }
      ],
      "stateMutability": "view",
      "type": "function"
    },
    {
      "inputs": [],
      "name": "setLeagueEntryIsClosed",
      "outputs": [],
      "stateMutability": "nonpayable",
      "type": "function"
    },
    {
      "inputs": [],
      "name": "setLeagueSchedule",
      "outputs": [],
      "stateMutability": "nonpayable",
      "type": "function"
    },
    {
      "inputs": [
        {
          "internalType": "uint256[]",
          "name": "athleteIds",
          "type": "uint256[]"
        }
      ],
      "name": "setLineup",
      "outputs": [],
      "stateMutability": "nonpayable",
      "type": "function"
    },
    {
      "inputs": [],
      "name": "stakeAmount",
      "outputs": [
        {
          "internalType": "uint256",
          "name": "",
          "type": "uint256"
        }
      ],
      "stateMutability": "view",
      "type": "function"
    },
    {
      "inputs": [],
      "name": "teamDiffAddress",
      "outputs": [
        {
          "internalType": "address",
          "name": "",
          "type": "address"
        }
      ],
      "stateMutability": "view",
      "type": "function"
    },
    {
      "inputs": [],
      "name": "testUSDC",
      "outputs": [
        {
          "internalType": "contract IERC20",
          "name": "",
          "type": "address"
        }
      ],
      "stateMutability": "view",
      "type": "function"
    },
    {
      "inputs": [
        {
          "internalType": "address",
          "name": "newOwner",
          "type": "address"
        }
      ],
      "name": "transferOwnership",
      "outputs": [],
      "stateMutability": "nonpayable",
      "type": "function"
    },
    {
      "inputs": [],
      "name": "unlockLineup",
      "outputs": [],
      "stateMutability": "nonpayable",
      "type": "function"
    },
    {
      "inputs": [
        {
          "internalType": "address",
          "name": "",
          "type": "address"
        },
        {
          "internalType": "uint256",
          "name": "",
          "type": "uint256"
        }
      ],
      "name": "userToLineup",
      "outputs": [
        {
          "internalType": "uint256",
          "name": "",
          "type": "uint256"
        }
      ],
      "stateMutability": "view",
      "type": "function"
    },
    {
      "inputs": [
        {
          "internalType": "address",
          "name": "",
          "type": "address"
        }
      ],
      "name": "userToPoints",
      "outputs": [
        {
          "internalType": "uint256",
          "name": "",
          "type": "uint256"
        }
      ],
      "stateMutability": "view",
      "type": "function"
    },
    {
      "inputs": [
        {
          "internalType": "address",
          "name": "",
          "type": "address"
        },
        {
          "internalType": "uint256",
          "name": "",
          "type": "uint256"
        }
      ],
      "name": "userToRecord",
      "outputs": [
        {
          "internalType": "uint256",
          "name": "",
          "type": "uint256"
        }
      ],
      "stateMutability": "view",
      "type": "function"
    },
    {
      "inputs": [
        {
          "internalType": "address",
          "name": "",
          "type": "address"
        }
      ],
      "name": "whitelist",
      "outputs": [
        {
          "internalType": "bool",
          "name": "",
          "type": "bool"
        }
      ],
      "stateMutability": "view",
      "type": "function"
    }
  ],
  "bytecode": "0x60806040523480156200001157600080fd5b5062000032620000266200004060201b60201c565b6200004860201b60201c565b60016004819055506200010d565b600033905090565b60008060029054906101000a900473ffffffffffffffffffffffffffffffffffffffff16905081600060026101000a81548173ffffffffffffffffffffffffffffffffffffffff021916908373ffffffffffffffffffffffffffffffffffffffff1602179055508173ffffffffffffffffffffffffffffffffffffffff168173ffffffffffffffffffffffffffffffffffffffff167f8be0079c531659141344cd1fd0a4f28419497f9722a3daafe3b4186f6b6457e060405160405180910390a35050565b615da8806200011d6000396000f3fe60806040523480156200001157600080fd5b5060043610620002a25760003560e01c8063715018a61162000171578063c99fea9411620000d5578063e4c9066b1162000093578063e4c9066b14620007e1578063e5f7322f14620007ed578063f2fde38b1462000823578063f612121a1462000843578063f851a4401462000863578063f8816045146200088557620002a2565b8063c99fea941462000711578063cff56003146200071d578063dc9a15351462000753578063e2ec6ec31462000775578063e35a899914620007ab57620002a2565b80638ab1d681116200012f5780638ab1d681146200064b5780638da5cb5b146200066b5780639122ce6d146200068d5780639b19251a14620006c3578063a2bc091a14620006f9578063c8be3b5b146200070557620002a2565b8063715018a614620005a5578063747b805014620005b15780637b9417c814620005d15780637eed33f11462000607578063841abf6e146200062957620002a2565b806327311b3211620002195780633c3ae13f11620001d75780633c3ae13f14620004db57806344eaa84e14620004fb57806352e6e5f3146200051d57806360c7dc47146200053f5780636cc15ad514620005615780636e9960c3146200058357620002a2565b806327311b32146200040b578063286dd3f5146200042d5780632ae6b13514620004635780632d382ee01462000499578063305a578214620004cf57620002a2565b80630c6f795911620002675780630c6f7959146200033b5780631d803e0014620003715780631dd7f8ca146200037d57806324953eaa146200039f578063267175db14620003d557620002a2565b80622772c214620002a7578062b2476f14620002c9578063022e35e614620002eb5780630635dbcb146200030d5780630655465a146200032f575b600080fd5b620002b1620008a7565b604051620002c09190620042ba565b60405180910390f35b620002d36200095f565b604051620002e2919062003e8f565b60405180910390f35b620002f562000985565b60405162000304919062003ff3565b60405180910390f35b62000317620009ab565b60405162000326919062003fd6565b60405180910390f35b62000339620009be565b005b62000359600480360381019062000353919062003588565b62000ac9565b604051620003689190620042ba565b60405180910390f35b6200037b62000afb565b005b6200038762000f42565b60405162000396919062003e8f565b60405180910390f35b620003bd6004803603810190620003b79190620035cf565b62000f68565b604051620003cc919062003fd6565b60405180910390f35b620003f36004803603810190620003ed9190620037bd565b62001049565b60405162000402919062003e8f565b60405180910390f35b6200041562001089565b60405162000424919062003fd6565b60405180910390f35b6200044b600480360381019062000445919062003556565b620010a0565b6040516200045a919062003fd6565b60405180910390f35b6200048160048036038101906200047b919062003556565b6200122f565b604051620004909190620042ba565b60405180910390f35b620004b76004803603810190620004b19190620037bd565b62001247565b604051620004c6919062003f8e565b60405180910390f35b620004d962001338565b005b620004f96004803603810190620004f39190620036a3565b620014b0565b005b6200050562001908565b604051620005149190620042ba565b60405180910390f35b6200052762001912565b604051620005369190620042ba565b60405180910390f35b6200054962001918565b604051620005589190620042ba565b60405180910390f35b6200056b6200191e565b6040516200057a919062003fd6565b60405180910390f35b6200058d62001931565b6040516200059c919062003e8f565b60405180910390f35b620005af6200195b565b005b620005cf6004803603810190620005c9919062003556565b620019ec565b005b620005ef6004803603810190620005e9919062003556565b62001b89565b604051620005fe919062003fd6565b60405180910390f35b6200061162001d16565b604051620006209190620042ba565b60405180910390f35b6200063362001d1c565b60405162000642919062004064565b60405180910390f35b62000669600480360381019062000663919062003556565b62001db2565b005b6200067562001f4f565b60405162000684919062003e8f565b60405180910390f35b620006ab6004803603810190620006a5919062003556565b62001f78565b604051620006ba919062003fd6565b60405180910390f35b620006e16004803603810190620006db919062003556565b62001f98565b604051620006f0919062003fd6565b60405180910390f35b6200070362001fb8565b005b6200070f62002068565b005b6200071b62002118565b005b6200073b600480360381019062000735919062003588565b620025a6565b6040516200074a9190620042ba565b60405180910390f35b6200075d620025d8565b6040516200076c919062003fd6565b60405180910390f35b6200079360048036038101906200078d9190620035cf565b620025eb565b604051620007a2919062003fd6565b60405180910390f35b620007c96004803603810190620007c3919062003556565b620026cc565b604051620007d8919062003fd6565b60405180910390f35b620007eb62002722565b005b6200080b600480360381019062000805919062003556565b620027d2565b6040516200081a919062003fb2565b60405180910390f35b6200084160048036038101906200083b919062003556565b6200286b565b005b6200086160048036038101906200085b919062003620565b6200296f565b005b6200086d62002e55565b6040516200087c919062003e8f565b60405180910390f35b6200088f62002e7b565b6040516200089e919062003fb2565b60405180910390f35b6000601560009054906101000a900473ffffffffffffffffffffffffffffffffffffffff1673ffffffffffffffffffffffffffffffffffffffff166370a08231306040518263ffffffff1660e01b815260040162000906919062003e8f565b60206040518083038186803b1580156200091f57600080fd5b505afa15801562000934573d6000803e3d6000fd5b505050506040513d601f19601f820116820180604052508101906200095a9190620037ef565b905090565b601360009054906101000a900473ffffffffffffffffffffffffffffffffffffffff1681565b601560009054906101000a900473ffffffffffffffffffffffffffffffffffffffff1681565b600a60159054906101000a900460ff1681565b600a60009054906101000a900473ffffffffffffffffffffffffffffffffffffffff1673ffffffffffffffffffffffffffffffffffffffff163373ffffffffffffffffffffffffffffffffffffffff161462000a51576040517f08c379a000000000000000000000000000000000000000000000000000000000815260040162000a4890620041ee565b60405180910390fd5b73__$36fdb4e0c2cb91f3ceca5ea81b025328f3$__63d2c232b56012601060065460056040518563ffffffff1660e01b815260040162000a95949392919062004010565b60006040518083038186803b15801562000aae57600080fd5b505af415801562000ac3573d6000803e3d6000fd5b50505050565b600c602052816000526040600020818154811062000ae657600080fd5b90600052602060002001600091509150505481565b600a60009054906101000a900473ffffffffffffffffffffffffffffffffffffffff1673ffffffffffffffffffffffffffffffffffffffff163373ffffffffffffffffffffffffffffffffffffffff161462000b8e576040517f08c379a000000000000000000000000000000000000000000000000000000000815260040162000b8590620041ee565b60405180910390fd5b600060075460108054905062000ba5919062004590565b905073__$36fdb4e0c2cb91f3ceca5ea81b025328f3$__63cc9b40cc6010600e60116040518463ffffffff1660e01b815260040162000be79392919062003f16565b60006040518083038186803b15801562000c0057600080fd5b505af415801562000c15573d6000803e3d6000fd5b5050505060005b60118054905081101562000c8c5762000c766011828154811062000c455762000c44620048b0565b5b9060005260206000200160009054906101000a900473ffffffffffffffffffffffffffffffffffffffff1662002f12565b808062000c8390620047d5565b91505062000c1c565b5060006011805490508262000ca2919062004558565b905062000cea6040518060400160405280601681526020017f4c65616775652077696e6e657273206c656e206973200000000000000000000081525060118054905062002faf565b62000d2b6040518060400160405280601681526020017f5072697a65207065722077696e6e6572206973203a20000000000000000000008152508262002faf565b7f648f2405ea194f3e49fe1655279883b3474e63909ab7e4a579b051d548ad838960118260405162000d5f92919062003f5a565b60405180910390a160005b60118054905081101562000f3d57601560009054906101000a900473ffffffffffffffffffffffffffffffffffffffff1673ffffffffffffffffffffffffffffffffffffffff1663095ea7b330846040518363ffffffff1660e01b815260040162000dd792919062003ee9565b602060405180830381600087803b15801562000df257600080fd5b505af115801562000e07573d6000803e3d6000fd5b505050506040513d601f19601f8201168201806040525081019062000e2d919062003671565b50601560009054906101000a900473ffffffffffffffffffffffffffffffffffffffff1673ffffffffffffffffffffffffffffffffffffffff166323b872dd306011848154811062000e845762000e83620048b0565b5b9060005260206000200160009054906101000a900473ffffffffffffffffffffffffffffffffffffffff16856040518463ffffffff1660e01b815260040162000ed09392919062003eac565b602060405180830381600087803b15801562000eeb57600080fd5b505af115801562000f00573d6000803e3d6000fd5b505050506040513d601f19601f8201168201806040525081019062000f26919062003671565b50808062000f3490620047d5565b91505062000d6a565b505050565b600a60009054906101000a900473ffffffffffffffffffffffffffffffffffffffff1681565b600062000f746200304f565b73ffffffffffffffffffffffffffffffffffffffff1662000f9462001f4f565b73ffffffffffffffffffffffffffffffffffffffff161462000fed576040517f08c379a000000000000000000000000000000000000000000000000000000000815260040162000fe490620041aa565b60405180910390fd5b60005b8251811015620010435762001022838281518110620010145762001013620048b0565b5b6020026020010151620010a0565b156200102d57600191505b80806200103a90620047d5565b91505062000ff0565b50919050565b601081815481106200105a57600080fd5b906000526020600020016000915054906101000a900473ffffffffffffffffffffffffffffffffffffffff1681565b6000600a60159054906101000a900460ff16905090565b6000620010ac6200304f565b73ffffffffffffffffffffffffffffffffffffffff16620010cc62001f4f565b73ffffffffffffffffffffffffffffffffffffffff161462001125576040517f08c379a00000000000000000000000000000000000000000000000000000000081526004016200111c90620041aa565b60405180910390fd5b600160008373ffffffffffffffffffffffffffffffffffffffff1673ffffffffffffffffffffffffffffffffffffffff16815260200190815260200160002060009054906101000a900460ff16156200122a576000600160008473ffffffffffffffffffffffffffffffffffffffff1673ffffffffffffffffffffffffffffffffffffffff16815260200190815260200160002060006101000a81548160ff0219169083151502179055507ff1abf01a1043b7c244d128e8595cf0c1d10743b022b03a02dffd8ca3bf729f5a8260405162001201919062003e8f565b60405180910390a16001600260008282546200121e9190620045f1565b92505081905550600190505b919050565b600e6020528060005260406000206000915090505481565b606060126000838152602001908152602001600020805480602002602001604051908101604052809291908181526020016000905b828210156200132d57838290600052602060002090600202016040518060200160405290816000820160028060200260405190810160405280929190826002801562001314576020028201915b8160009054906101000a900473ffffffffffffffffffffffffffffffffffffffff1673ffffffffffffffffffffffffffffffffffffffff1681526020019060010190808311620012c9575b505050505081525050815260200190600101906200127c565b505050509050919050565b600a60009054906101000a900473ffffffffffffffffffffffffffffffffffffffff1673ffffffffffffffffffffffffffffffffffffffff163373ffffffffffffffffffffffffffffffffffffffff1614620013cb576040517f08c379a0000000000000000000000000000000000000000000000000000000008152600401620013c290620041ee565b60405180910390fd5b73__$36fdb4e0c2cb91f3ceca5ea81b025328f3$__63c930f4bc600854601660009054906101000a900473ffffffffffffffffffffffffffffffffffffffff16600c600d600e60126040518763ffffffff1660e01b81526004016200143696959493929190620042d7565b60006040518083038186803b1580156200144f57600080fd5b505af415801562001464573d6000803e3d6000fd5b505050506001600654620014799190620045f1565b600854141562001493576200148d62000afb565b620014ae565b60086000815480929190620014a890620047d5565b91905055505b565b600060019054906101000a900460ff16620014da5760008054906101000a900460ff1615620014e5565b620014e462003057565b5b62001527576040517f08c379a00000000000000000000000000000000000000000000000000000000081526004016200151e9062004188565b60405180910390fd5b60008060019054906101000a900460ff16159050801562001578576001600060016101000a81548160ff02191690831515021790555060016000806101000a81548160ff0219169083151502179055505b8b8b600591906200158b92919062003218565b5060086006819055506001600f60008973ffffffffffffffffffffffffffffffffffffffff1673ffffffffffffffffffffffffffffffffffffffff16815260200190815260200160002060006101000a81548160ff0219169083151502179055506010879080600181540180825580915050600190039060005260206000200160009091909190916101000a81548173ffffffffffffffffffffffffffffffffffffffff021916908373ffffffffffffffffffffffffffffffffffffffff16021790555086600960006101000a81548173ffffffffffffffffffffffffffffffffffffffff021916908373ffffffffffffffffffffffffffffffffffffffff1602179055508960078190555088600360006101000a81548160ff0219169083151502179055506000600a60146101000a81548160ff0219169083151502179055506000600a60156101000a81548160ff02191690831515021790555087601660006101000a81548173ffffffffffffffffffffffffffffffffffffffff021916908373ffffffffffffffffffffffffffffffffffffffff1602179055506040516200173690620032a9565b604051809103906000f08015801562001753573d6000803e3d6000fd5b50601460006101000a81548173ffffffffffffffffffffffffffffffffffffffff021916908373ffffffffffffffffffffffffffffffffffffffff16021790555085601360006101000a81548173ffffffffffffffffffffffffffffffffffffffff021916908373ffffffffffffffffffffffffffffffffffffffff16021790555084601560006101000a81548173ffffffffffffffffffffffffffffffffffffffff021916908373ffffffffffffffffffffffffffffffffffffffff16021790555082600a60006101000a81548173ffffffffffffffffffffffffffffffffffffffff021916908373ffffffffffffffffffffffffffffffffffffffff16021790555083601760006101000a81548173ffffffffffffffffffffffffffffffffffffffff021916908373ffffffffffffffffffffffffffffffffffffffff160217905550620018d86040518060400160405280601281526020017f50726f787920696e697469616c697a65642100000000000000000000000000008152506200306a565b8015620018fa5760008060016101000a81548160ff0219169083151502179055505b505050505050505050505050565b6000600254905090565b60085481565b60075481565b600a60149054906101000a900460ff1681565b6000600960009054906101000a900473ffffffffffffffffffffffffffffffffffffffff16905090565b620019656200304f565b73ffffffffffffffffffffffffffffffffffffffff166200198562001f4f565b73ffffffffffffffffffffffffffffffffffffffff1614620019de576040517f08c379a0000000000000000000000000000000000000000000000000000000008152600401620019d590620041aa565b60405180910390fd5b620019ea600062003107565b565b600960009054906101000a900473ffffffffffffffffffffffffffffffffffffffff1673ffffffffffffffffffffffffffffffffffffffff163373ffffffffffffffffffffffffffffffffffffffff161462001a7f576040517f08c379a000000000000000000000000000000000000000000000000000000000815260040162001a7690620041cc565b60405180910390fd5b600a60149054906101000a900460ff161562001ad2576040517f08c379a000000000000000000000000000000000000000000000000000000000815260040162001ac99062004232565b60405180910390fd5b601460009054906101000a900473ffffffffffffffffffffffffffffffffffffffff1673ffffffffffffffffffffffffffffffffffffffff16637b9417c8826040518263ffffffff1660e01b815260040162001b2f919062003e8f565b602060405180830381600087803b15801562001b4a57600080fd5b505af115801562001b5f573d6000803e3d6000fd5b505050506040513d601f19601f8201168201806040525081019062001b85919062003671565b5050565b600062001b956200304f565b73ffffffffffffffffffffffffffffffffffffffff1662001bb562001f4f565b73ffffffffffffffffffffffffffffffffffffffff161462001c0e576040517f08c379a000000000000000000000000000000000000000000000000000000000815260040162001c0590620041aa565b60405180910390fd5b600160008373ffffffffffffffffffffffffffffffffffffffff1673ffffffffffffffffffffffffffffffffffffffff16815260200190815260200160002060009054906101000a900460ff1662001d115760018060008473ffffffffffffffffffffffffffffffffffffffff1673ffffffffffffffffffffffffffffffffffffffff16815260200190815260200160002060006101000a81548160ff0219169083151502179055507fd1bba68c128cc3f427e5831b3c6f99f480b6efa6b9e80c757768f6124158cc3f8260405162001ce8919062003e8f565b60405180910390a160016002600082825462001d059190620044fb565b92505081905550600190505b919050565b60065481565b6005805462001d2b906200474b565b80601f016020809104026020016040519081016040528092919081815260200182805462001d59906200474b565b801562001daa5780601f1062001d7e5761010080835404028352916020019162001daa565b820191906000526020600020905b81548152906001019060200180831162001d8c57829003601f168201915b505050505081565b600960009054906101000a900473ffffffffffffffffffffffffffffffffffffffff1673ffffffffffffffffffffffffffffffffffffffff163373ffffffffffffffffffffffffffffffffffffffff161462001e45576040517f08c379a000000000000000000000000000000000000000000000000000000000815260040162001e3c90620041cc565b60405180910390fd5b600a60149054906101000a900460ff161562001e98576040517f08c379a000000000000000000000000000000000000000000000000000000000815260040162001e8f9062004232565b60405180910390fd5b601460009054906101000a900473ffffffffffffffffffffffffffffffffffffffff1673ffffffffffffffffffffffffffffffffffffffff1663286dd3f5826040518263ffffffff1660e01b815260040162001ef5919062003e8f565b602060405180830381600087803b15801562001f1057600080fd5b505af115801562001f25573d6000803e3d6000fd5b505050506040513d601f19601f8201168201806040525081019062001f4b919062003671565b5050565b60008060029054906101000a900473ffffffffffffffffffffffffffffffffffffffff16905090565b600f6020528060005260406000206000915054906101000a900460ff1681565b60016020528060005260406000206000915054906101000a900460ff1681565b600a60009054906101000a900473ffffffffffffffffffffffffffffffffffffffff1673ffffffffffffffffffffffffffffffffffffffff163373ffffffffffffffffffffffffffffffffffffffff16146200204b576040517f08c379a00000000000000000000000000000000000000000000000000000000081526004016200204290620041ee565b60405180910390fd5b6000600a60156101000a81548160ff021916908315150217905550565b600a60009054906101000a900473ffffffffffffffffffffffffffffffffffffffff1673ffffffffffffffffffffffffffffffffffffffff163373ffffffffffffffffffffffffffffffffffffffff1614620020fb576040517f08c379a0000000000000000000000000000000000000000000000000000000008152600401620020f290620041ee565b60405180910390fd5b6001600a60156101000a81548160ff021916908315150217905550565b600160003373ffffffffffffffffffffffffffffffffffffffff1673ffffffffffffffffffffffffffffffffffffffff16815260200190815260200160002060009054906101000a900460ff16806200217d5750600360009054906101000a900460ff165b620021bf576040517f08c379a0000000000000000000000000000000000000000000000000000000008152600401620021b69062004122565b60405180910390fd5b6002600454141562002208576040517f08c379a0000000000000000000000000000000000000000000000000000000008152600401620021ff9062004276565b60405180910390fd5b6002600481905550600a60149054906101000a900460ff161562002263576040517f08c379a00000000000000000000000000000000000000000000000000000000081526004016200225a9062004298565b60405180910390fd5b600f60003373ffffffffffffffffffffffffffffffffffffffff1673ffffffffffffffffffffffffffffffffffffffff16815260200190815260200160002060009054906101000a900460ff1615620022f3576040517f08c379a0000000000000000000000000000000000000000000000000000000008152600401620022ea9062004100565b60405180910390fd5b600754601560009054906101000a900473ffffffffffffffffffffffffffffffffffffffff1673ffffffffffffffffffffffffffffffffffffffff166370a08231336040518263ffffffff1660e01b815260040162002353919062003e8f565b60206040518083038186803b1580156200236c57600080fd5b505afa15801562002381573d6000803e3d6000fd5b505050506040513d601f19601f82011682018060405250810190620023a79190620037ef565b11620023ea576040517f08c379a0000000000000000000000000000000000000000000000000000000008152600401620023e190620040de565b60405180910390fd5b6001600f60003373ffffffffffffffffffffffffffffffffffffffff1673ffffffffffffffffffffffffffffffffffffffff16815260200190815260200160002060006101000a81548160ff0219169083151502179055506010339080600181540180825580915050600190039060005260206000200160009091909190916101000a81548173ffffffffffffffffffffffffffffffffffffffff021916908373ffffffffffffffffffffffffffffffffffffffff160217905550601560009054906101000a900473ffffffffffffffffffffffffffffffffffffffff1673ffffffffffffffffffffffffffffffffffffffff166323b872dd33306007546040518463ffffffff1660e01b8152600401620025089392919062003eac565b602060405180830381600087803b1580156200252357600080fd5b505af115801562002538573d6000803e3d6000fd5b505050506040513d601f19601f820116820180604052508101906200255e919062003671565b507f9e71bc8eea02a63969f509818f2dafb9254532904319f9dbda79b67bd34a5f3d336007546040516200259492919062003ee9565b60405180910390a16001600481905550565b600d6020528160005260406000208181548110620025c357600080fd5b90600052602060002001600091509150505481565b600360009054906101000a900460ff1681565b6000620025f76200304f565b73ffffffffffffffffffffffffffffffffffffffff166200261762001f4f565b73ffffffffffffffffffffffffffffffffffffffff161462002670576040517f08c379a00000000000000000000000000000000000000000000000000000000081526004016200266790620041aa565b60405180910390fd5b60005b8251811015620026c657620026a5838281518110620026975762002696620048b0565b5b602002602001015162001b89565b15620026b057600191505b8080620026bd90620047d5565b91505062002673565b50919050565b6000600160008373ffffffffffffffffffffffffffffffffffffffff1673ffffffffffffffffffffffffffffffffffffffff16815260200190815260200160002060009054906101000a900460ff169050919050565b600a60009054906101000a900473ffffffffffffffffffffffffffffffffffffffff1673ffffffffffffffffffffffffffffffffffffffff163373ffffffffffffffffffffffffffffffffffffffff1614620027b5576040517f08c379a0000000000000000000000000000000000000000000000000000000008152600401620027ac90620041ee565b60405180910390fd5b6001600a60146101000a81548160ff021916908315150217905550565b6060600d60008373ffffffffffffffffffffffffffffffffffffffff1673ffffffffffffffffffffffffffffffffffffffff1681526020019081526020016000208054806020026020016040519081016040528092919081815260200182805480156200285f57602002820191906000526020600020905b8154815260200190600101908083116200284a575b50505050509050919050565b620028756200304f565b73ffffffffffffffffffffffffffffffffffffffff166200289562001f4f565b73ffffffffffffffffffffffffffffffffffffffff1614620028ee576040517f08c379a0000000000000000000000000000000000000000000000000000000008152600401620028e590620041aa565b60405180910390fd5b600073ffffffffffffffffffffffffffffffffffffffff168173ffffffffffffffffffffffffffffffffffffffff16141562002961576040517f08c379a00000000000000000000000000000000000000000000000000000000081526004016200295890620040bc565b60405180910390fd5b6200296c8162003107565b50565b600a60159054906101000a900460ff1615620029c2576040517f08c379a0000000000000000000000000000000000000000000000000000000008152600401620029b99062004166565b60405180910390fd5b600f60003373ffffffffffffffffffffffffffffffffffffffff1673ffffffffffffffffffffffffffffffffffffffff16815260200190815260200160002060009054906101000a900460ff1662002a51576040517f08c379a000000000000000000000000000000000000000000000000000000000815260040162002a489062004210565b60405180910390fd5b60005b600d60003373ffffffffffffffffffffffffffffffffffffffff1673ffffffffffffffffffffffffffffffffffffffff1681526020019081526020016000208054905081101562002b5657600b6000600d60003373ffffffffffffffffffffffffffffffffffffffff1673ffffffffffffffffffffffffffffffffffffffff168152602001908152602001600020838154811062002af75762002af6620048b0565b5b906000526020600020015481526020019081526020016000206008546008811062002b275762002b26620048b0565b5b01600081548092919062002b3b906200471c565b9190505550808062002b4d90620047d5565b91505062002a54565b5060005b815181101562002bda57600b600083838151811062002b7e5762002b7d620048b0565b5b602002602001015181526020019081526020016000206008546008811062002bab5762002baa620048b0565b5b01600081548092919062002bbf90620047d5565b9190505550808062002bd190620047d5565b91505062002b5a565b5060005b815181101562002d12576000601760009054906101000a900473ffffffffffffffffffffffffffffffffffffffff1673ffffffffffffffffffffffffffffffffffffffff1662fdd58e3385858151811062002c3e5762002c3d620048b0565b5b60200260200101516040518363ffffffff1660e01b815260040162002c6592919062003ee9565b60206040518083038186803b15801562002c7e57600080fd5b505afa15801562002c93573d6000803e3d6000fd5b505050506040513d601f19601f8201168201806040525081019062002cb99190620037ef565b1162002cfc576040517f08c379a000000000000000000000000000000000000000000000000000000000815260040162002cf39062004254565b60405180910390fd5b808062002d0990620047d5565b91505062002bde565b5060005b815181101562002dfb57600a8162002d2f919062004590565b82828151811062002d455762002d44620048b0565b5b60200260200101511015801562002da357506001600a60018362002d6a9190620044fb565b62002d76919062004590565b62002d829190620045f1565b82828151811062002d985762002d97620048b0565b5b602002602001015111155b62002de5576040517f08c379a000000000000000000000000000000000000000000000000000000000815260040162002ddc9062004144565b60405180910390fd5b808062002df290620047d5565b91505062002d16565b5080600d60003373ffffffffffffffffffffffffffffffffffffffff1673ffffffffffffffffffffffffffffffffffffffff168152602001908152602001600020908051906020019062002e51929190620032b7565b5050565b600960009054906101000a900473ffffffffffffffffffffffffffffffffffffffff1681565b6060600c60003373ffffffffffffffffffffffffffffffffffffffff1673ffffffffffffffffffffffffffffffffffffffff16815260200190815260200160002080548060200260200160405190810160405280929190818152602001828054801562002f0857602002820191906000526020600020905b81548152602001906001019080831162002ef3575b5050505050905090565b62002fac8160405160240162002f29919062003e8f565b6040516020818303038152906040527f2c2ecbc2000000000000000000000000000000000000000000000000000000007bffffffffffffffffffffffffffffffffffffffffffffffffffffffff19166020820180517bffffffffffffffffffffffffffffffffffffffffffffffffffffffff8381831617835250505050620031cc565b50565b6200304b828260405160240162002fc892919062004088565b6040516020818303038152906040527f9710a9d0000000000000000000000000000000000000000000000000000000007bffffffffffffffffffffffffffffffffffffffffffffffffffffffff19166020820180517bffffffffffffffffffffffffffffffffffffffffffffffffffffffff8381831617835250505050620031cc565b5050565b600033905090565b60006200306430620031f5565b15905090565b620031048160405160240162003081919062004064565b6040516020818303038152906040527f41304fac000000000000000000000000000000000000000000000000000000007bffffffffffffffffffffffffffffffffffffffffffffffffffffffff19166020820180517bffffffffffffffffffffffffffffffffffffffffffffffffffffffff8381831617835250505050620031cc565b50565b60008060029054906101000a900473ffffffffffffffffffffffffffffffffffffffff16905081600060026101000a81548173ffffffffffffffffffffffffffffffffffffffff021916908373ffffffffffffffffffffffffffffffffffffffff1602179055508173ffffffffffffffffffffffffffffffffffffffff168173ffffffffffffffffffffffffffffffffffffffff167f8be0079c531659141344cd1fd0a4f28419497f9722a3daafe3b4186f6b6457e060405160405180910390a35050565b60008151905060006a636f6e736f6c652e6c6f679050602083016000808483855afa5050505050565b6000808273ffffffffffffffffffffffffffffffffffffffff163b119050919050565b82805462003226906200474b565b90600052602060002090601f0160209004810192826200324a576000855562003296565b82601f106200326557803560ff191683800117855562003296565b8280016001018555821562003296579182015b828111156200329557823582559160200191906001019062003278565b5b509050620032a5919062003309565b5090565b6110598062004d1a83390190565b828054828255906000526020600020908101928215620032f6579160200282015b82811115620032f5578251825591602001919060010190620032d8565b5b50905062003305919062003309565b5090565b5b80821115620033245760008160009055506001016200330a565b5090565b60006200333f62003339846200436d565b62004344565b905080838252602082019050828560208602820111156200336557620033646200492d565b5b60005b858110156200339957816200337e88826200341e565b84526020840193506020830192505060018101905062003368565b5050509392505050565b6000620033ba620033b4846200439c565b62004344565b90508083825260208201905082856020860282011115620033e057620033df6200492d565b5b60005b85811015620034145781620033f9888262003528565b845260208401935060208301925050600181019050620033e3565b5050509392505050565b6000813590506200342f8162004ccb565b92915050565b600082601f8301126200344d576200344c62004928565b5b81356200345f84826020860162003328565b91505092915050565b600082601f83011262003480576200347f62004928565b5b813562003492848260208601620033a3565b91505092915050565b600081359050620034ac8162004ce5565b92915050565b600081519050620034c38162004ce5565b92915050565b60008083601f840112620034e257620034e162004928565b5b8235905067ffffffffffffffff81111562003502576200350162004923565b5b6020830191508360018202830111156200352157620035206200492d565b5b9250929050565b600081359050620035398162004cff565b92915050565b600081519050620035508162004cff565b92915050565b6000602082840312156200356f576200356e62004937565b5b60006200357f848285016200341e565b91505092915050565b60008060408385031215620035a257620035a162004937565b5b6000620035b2858286016200341e565b9250506020620035c58582860162003528565b9150509250929050565b600060208284031215620035e857620035e762004937565b5b600082013567ffffffffffffffff81111562003609576200360862004932565b5b620036178482850162003435565b91505092915050565b60006020828403121562003639576200363862004937565b5b600082013567ffffffffffffffff8111156200365a576200365962004932565b5b620036688482850162003468565b91505092915050565b6000602082840312156200368a576200368962004937565b5b60006200369a84828501620034b2565b91505092915050565b60008060008060008060008060008060006101408c8e031215620036cc57620036cb62004937565b5b60008c013567ffffffffffffffff811115620036ed57620036ec62004932565b5b620036fb8e828f01620034c9565b9b509b50506020620037108e828f0162003528565b9950506040620037238e828f016200349b565b9850506060620037368e828f016200341e565b9750506080620037498e828f016200341e565b96505060a06200375c8e828f016200341e565b95505060c06200376f8e828f016200341e565b94505060e0620037828e828f016200341e565b935050610100620037968e828f016200341e565b925050610120620037aa8e828f016200341e565b9150509295989b509295989b9093969950565b600060208284031215620037d657620037d562004937565b5b6000620037e68482850162003528565b91505092915050565b60006020828403121562003808576200380762004937565b5b600062003818848285016200353f565b91505092915050565b60006200382f838362003889565b60208301905092915050565b6000620038498383620038ab565b60208301905092915050565b600062003863838362003e3e565b60408301905092915050565b60006200387d838362003e5c565b60208301905092915050565b62003894816200464c565b82525050565b620038a5816200464c565b82525050565b620038b6816200464c565b82525050565b620038c7816200441f565b620038d381846200448a565b9250620038e082620043cb565b8060005b8381101562003917578151620038fb878262003821565b9650620039088362004456565b925050600181019050620038e4565b505050505050565b60006200392c826200442a565b62003938818562004495565b93506200394583620043d5565b8060005b8381101562003985576200395d826200490e565b62003969888262003821565b9750620039768362004463565b92505060018101905062003949565b5085935050505092915050565b60006200399f826200442a565b620039ab8185620044a6565b9350620039b883620043d5565b8060005b83811015620039f857620039d0826200490e565b620039dc88826200383b565b9750620039e98362004463565b925050600181019050620039bc565b5085935050505092915050565b8082525050565b600062003a198262004435565b62003a258185620044b7565b935062003a3283620043ea565b8060005b8381101562003a6957815162003a4d888262003855565b975062003a5a8362004470565b92505060018101905062003a36565b5085935050505092915050565b600062003a838262004440565b62003a8f8185620044c8565b935062003a9c83620043fa565b8060005b8381101562003ad357815162003ab788826200386f565b975062003ac4836200447d565b92505060018101905062003aa0565b5085935050505092915050565b62003aeb8162004660565b82525050565b62003afc8162004696565b82525050565b62003b0d81620046aa565b82525050565b8082525050565b8082525050565b8082525050565b600062003b35826200444b565b62003b418185620044d9565b935062003b53818560208601620046e6565b62003b5e816200493c565b840191505092915050565b6000815462003b78816200474b565b62003b848186620044ea565b9450600182166000811462003ba2576001811462003bb55762003bec565b60ff198316865260208601935062003bec565b62003bc0856200440a565b60005b8381101562003be45781548189015260018201915060208101905062003bc3565b808801955050505b50505092915050565b600062003c04602683620044d9565b915062003c11826200495a565b604082019050919050565b600062003c2b601d83620044d9565b915062003c3882620049a9565b602082019050919050565b600062003c52602383620044d9565b915062003c5f82620049d2565b604082019050919050565b600062003c79601a83620044d9565b915062003c868262004a21565b602082019050919050565b600062003ca0603183620044d9565b915062003cad8262004a4a565b604082019050919050565b600062003cc7601e83620044d9565b915062003cd48262004a99565b602082019050919050565b600062003cee602e83620044d9565b915062003cfb8262004ac2565b604082019050919050565b600062003d15602083620044d9565b915062003d228262004b11565b602082019050919050565b600062003d3c601783620044d9565b915062003d498262004b3a565b602082019050919050565b600062003d63601683620044d9565b915062003d708262004b63565b602082019050919050565b600062003d8a601683620044d9565b915062003d978262004b8c565b602082019050919050565b600062003db1604183620044d9565b915062003dbe8262004bb5565b606082019050919050565b600062003dd8602483620044d9565b915062003de58262004c2a565b604082019050919050565b600062003dff601f83620044d9565b915062003e0c8262004c79565b602082019050919050565b600062003e26601783620044d9565b915062003e338262004ca2565b602082019050919050565b60408201600082015162003e566000850182620038bc565b50505050565b62003e67816200468c565b82525050565b62003e78816200468c565b82525050565b62003e89816200468c565b82525050565b600060208201905062003ea660008301846200389a565b92915050565b600060608201905062003ec360008301866200389a565b62003ed260208301856200389a565b62003ee1604083018462003e6d565b949350505050565b600060408201905062003f0060008301856200389a565b62003f0f602083018462003e6d565b9392505050565b6000606082019050818103600083015262003f32818662003992565b905062003f43602083018562003b1a565b62003f52604083018462003a05565b949350505050565b6000604082019050818103600083015262003f7681856200391f565b905062003f87602083018462003e6d565b9392505050565b6000602082019050818103600083015262003faa818462003a0c565b905092915050565b6000602082019050818103600083015262003fce818462003a76565b905092915050565b600060208201905062003fed600083018462003ae0565b92915050565b60006020820190506200400a600083018462003b02565b92915050565b600060808201905062004027600083018762003b21565b62004036602083018662003a05565b62004045604083018562003e7e565b818103606083015262004059818462003b69565b905095945050505050565b6000602082019050818103600083015262004080818462003b28565b905092915050565b60006040820190508181036000830152620040a4818562003b28565b9050620040b5602083018462003e6d565b9392505050565b60006020820190508181036000830152620040d78162003bf5565b9050919050565b60006020820190508181036000830152620040f98162003c1c565b9050919050565b600060208201905081810360008301526200411b8162003c43565b9050919050565b600060208201905081810360008301526200413d8162003c6a565b9050919050565b600060208201905081810360008301526200415f8162003c91565b9050919050565b60006020820190508181036000830152620041818162003cb8565b9050919050565b60006020820190508181036000830152620041a38162003cdf565b9050919050565b60006020820190508181036000830152620041c58162003d06565b9050919050565b60006020820190508181036000830152620041e78162003d2d565b9050919050565b60006020820190508181036000830152620042098162003d54565b9050919050565b600060208201905081810360008301526200422b8162003d7b565b9050919050565b600060208201905081810360008301526200424d8162003da2565b9050919050565b600060208201905081810360008301526200426f8162003dc9565b9050919050565b60006020820190508181036000830152620042918162003df0565b9050919050565b60006020820190508181036000830152620042b38162003e17565b9050919050565b6000602082019050620042d1600083018462003e6d565b92915050565b600060c082019050620042ee600083018962003e7e565b620042fd602083018862003af1565b6200430c604083018762003b13565b6200431b606083018662003b13565b6200432a608083018562003b1a565b6200433960a083018462003b21565b979650505050505050565b60006200435062004363565b90506200435e82826200479f565b919050565b6000604051905090565b600067ffffffffffffffff8211156200438b576200438a620048df565b5b602082029050602081019050919050565b600067ffffffffffffffff821115620043ba57620043b9620048df565b5b602082029050602081019050919050565b6000819050919050565b60008190508160005260206000209050919050565b6000819050602082019050919050565b6000819050602082019050919050565b60008190508160005260206000209050919050565b600060029050919050565b600081549050919050565b600081519050919050565b600081519050919050565b600081519050919050565b6000602082019050919050565b6000600182019050919050565b6000602082019050919050565b6000602082019050919050565b600081905092915050565b600082825260208201905092915050565b600082825260208201905092915050565b600082825260208201905092915050565b600082825260208201905092915050565b600082825260208201905092915050565b600082825260208201905092915050565b600062004508826200468c565b915062004515836200468c565b9250827fffffffffffffffffffffffffffffffffffffffffffffffffffffffffffffffff038211156200454d576200454c62004823565b5b828201905092915050565b600062004565826200468c565b915062004572836200468c565b92508262004585576200458462004852565b5b828204905092915050565b60006200459d826200468c565b9150620045aa836200468c565b9250817fffffffffffffffffffffffffffffffffffffffffffffffffffffffffffffffff0483118215151615620045e657620045e562004823565b5b828202905092915050565b6000620045fe826200468c565b91506200460b836200468c565b92508282101562004621576200462062004823565b5b828203905092915050565b600073ffffffffffffffffffffffffffffffffffffffff82169050919050565b600062004659826200466c565b9050919050565b60008115159050919050565b600073ffffffffffffffffffffffffffffffffffffffff82169050919050565b6000819050919050565b6000620046a382620046be565b9050919050565b6000620046b782620046be565b9050919050565b6000620046cb82620046d2565b9050919050565b6000620046df826200466c565b9050919050565b60005b8381101562004706578082015181840152602081019050620046e9565b8381111562004716576000848401525b50505050565b600062004729826200468c565b9150600082141562004740576200473f62004823565b5b600182039050919050565b600060028204905060018216806200476457607f821691505b602082108114156200477b576200477a62004881565b5b50919050565b60006200479862004792836200494d565b6200462c565b9050919050565b620047aa826200493c565b810181811067ffffffffffffffff82111715620047cc57620047cb620048df565b5b80604052505050565b6000620047e2826200468c565b91507fffffffffffffffffffffffffffffffffffffffffffffffffffffffffffffffff82141562004818576200481762004823565b5b600182019050919050565b7f4e487b7100000000000000000000000000000000000000000000000000000000600052601160045260246000fd5b7f4e487b7100000000000000000000000000000000000000000000000000000000600052601260045260246000fd5b7f4e487b7100000000000000000000000000000000000000000000000000000000600052602260045260246000fd5b7f4e487b7100000000000000000000000000000000000000000000000000000000600052603260045260246000fd5b7f4e487b7100000000000000000000000000000000000000000000000000000000600052604160045260246000fd5b60006200491c825462004781565b9050919050565b600080fd5b600080fd5b600080fd5b600080fd5b600080fd5b6000601f19601f8301169050919050565b60008160001c9050919050565b7f4f776e61626c653a206e6577206f776e657220697320746865207a65726f206160008201527f6464726573730000000000000000000000000000000000000000000000000000602082015250565b7f496e737566666963656e742066756e647320666f72207374616b696e67000000600082015250565b7f596f75206861766520616c7265616479206a6f696e65642074686973206c656160008201527f6775650000000000000000000000000000000000000000000000000000000000602082015250565b7f55736572206973206e6f742077686974656c6973746564203a28000000000000600082015250565b7f596f75206172652073657474696e6720616e206174686c65746520696e20746860008201527f652077726f6e6720706f736974696f6e21000000000000000000000000000000602082015250565b7f6c696e657570206973206c6f636b656420666f7220746865207765656b210000600082015250565b7f496e697469616c697a61626c653a20636f6e747261637420697320616c72656160008201527f647920696e697469616c697a6564000000000000000000000000000000000000602082015250565b7f4f776e61626c653a2063616c6c6572206973206e6f7420746865206f776e6572600082015250565b7f43616c6c6572206973206e6f74207468652061646d696e000000000000000000600082015250565b7f43616c6c6572206973206e6f74205465616d4469666600000000000000000000600082015250565b7f55736572206973206e6f7420696e204c65616775652e00000000000000000000600082015250565b7f4e6f626f64792063616e20656e7465722f6578697420746865206c656167756560008201527f20616e796d6f72652e2054686520736561736f6e20686173207374617274656460208201527f2100000000000000000000000000000000000000000000000000000000000000604082015250565b7f43616c6c657220646f6573206e6f74206f776e20676976656e206174686c657460008201527f6549647300000000000000000000000000000000000000000000000000000000602082015250565b7f5265656e7472616e637947756172643a207265656e7472616e742063616c6c00600082015250565b7f4c656167756520456e74727920697320436c6f73656421000000000000000000600082015250565b62004cd6816200464c565b811462004ce257600080fd5b50565b62004cf08162004660565b811462004cfc57600080fd5b50565b62004d0a816200468c565b811462004d1657600080fd5b5056fe608060405234801561001057600080fd5b5061002d61002261003260201b60201c565b61003a60201b60201c565b6100fe565b600033905090565b60008060009054906101000a900473ffffffffffffffffffffffffffffffffffffffff169050816000806101000a81548173ffffffffffffffffffffffffffffffffffffffff021916908373ffffffffffffffffffffffffffffffffffffffff1602179055508173ffffffffffffffffffffffffffffffffffffffff168173ffffffffffffffffffffffffffffffffffffffff167f8be0079c531659141344cd1fd0a4f28419497f9722a3daafe3b4186f6b6457e060405160405180910390a35050565b610f4c8061010d6000396000f3fe608060405234801561001057600080fd5b50600436106100a95760003560e01c80638da5cb5b116100715780638da5cb5b146101665780639b19251a14610184578063dc9a1535146101b4578063e2ec6ec3146101d2578063e35a899914610202578063f2fde38b14610232576100a9565b806324953eaa146100ae578063286dd3f5146100de57806344eaa84e1461010e578063715018a61461012c5780637b9417c814610136575b600080fd5b6100c860048036038101906100c39190610ada565b61024e565b6040516100d59190610bb1565b60405180910390f35b6100f860048036038101906100f39190610aad565b61031e565b6040516101059190610bb1565b60405180910390f35b6101166104a1565b6040516101239190610c0c565b60405180910390f35b6101346104ab565b005b610150600480360381019061014b9190610aad565b610533565b60405161015d9190610bb1565b60405180910390f35b61016e6106b4565b60405161017b9190610b96565b60405180910390f35b61019e60048036038101906101999190610aad565b6106dd565b6040516101ab9190610bb1565b60405180910390f35b6101bc6106fd565b6040516101c99190610bb1565b60405180910390f35b6101ec60048036038101906101e79190610ada565b610710565b6040516101f99190610bb1565b60405180910390f35b61021c60048036038101906102179190610aad565b6107e0565b6040516102299190610bb1565b60405180910390f35b61024c60048036038101906102479190610aad565b610836565b005b600061025861092e565b73ffffffffffffffffffffffffffffffffffffffff166102766106b4565b73ffffffffffffffffffffffffffffffffffffffff16146102cc576040517f08c379a00000000000000000000000000000000000000000000000000000000081526004016102c390610bec565b60405180910390fd5b60005b8251811015610318576102fb8382815181106102ee576102ed610e04565b5b602002602001015161031e565b1561030557600191505b808061031090610d8c565b9150506102cf565b50919050565b600061032861092e565b73ffffffffffffffffffffffffffffffffffffffff166103466106b4565b73ffffffffffffffffffffffffffffffffffffffff161461039c576040517f08c379a000000000000000000000000000000000000000000000000000000000815260040161039390610bec565b60405180910390fd5b600160008373ffffffffffffffffffffffffffffffffffffffff1673ffffffffffffffffffffffffffffffffffffffff16815260200190815260200160002060009054906101000a900460ff161561049c576000600160008473ffffffffffffffffffffffffffffffffffffffff1673ffffffffffffffffffffffffffffffffffffffff16815260200190815260200160002060006101000a81548160ff0219169083151502179055507ff1abf01a1043b7c244d128e8595cf0c1d10743b022b03a02dffd8ca3bf729f5a826040516104759190610b96565b60405180910390a16001600260008282546104909190610cdf565b92505081905550600190505b919050565b6000600254905090565b6104b361092e565b73ffffffffffffffffffffffffffffffffffffffff166104d16106b4565b73ffffffffffffffffffffffffffffffffffffffff1614610527576040517f08c379a000000000000000000000000000000000000000000000000000000000815260040161051e90610bec565b60405180910390fd5b6105316000610936565b565b600061053d61092e565b73ffffffffffffffffffffffffffffffffffffffff1661055b6106b4565b73ffffffffffffffffffffffffffffffffffffffff16146105b1576040517f08c379a00000000000000000000000000000000000000000000000000000000081526004016105a890610bec565b60405180910390fd5b600160008373ffffffffffffffffffffffffffffffffffffffff1673ffffffffffffffffffffffffffffffffffffffff16815260200190815260200160002060009054906101000a900460ff166106af5760018060008473ffffffffffffffffffffffffffffffffffffffff1673ffffffffffffffffffffffffffffffffffffffff16815260200190815260200160002060006101000a81548160ff0219169083151502179055507fd1bba68c128cc3f427e5831b3c6f99f480b6efa6b9e80c757768f6124158cc3f826040516106889190610b96565b60405180910390a16001600260008282546106a39190610c89565b92505081905550600190505b919050565b60008060009054906101000a900473ffffffffffffffffffffffffffffffffffffffff16905090565b60016020528060005260406000206000915054906101000a900460ff1681565b600360009054906101000a900460ff1681565b600061071a61092e565b73ffffffffffffffffffffffffffffffffffffffff166107386106b4565b73ffffffffffffffffffffffffffffffffffffffff161461078e576040517f08c379a000000000000000000000000000000000000000000000000000000000815260040161078590610bec565b60405180910390fd5b60005b82518110156107da576107bd8382815181106107b0576107af610e04565b5b6020026020010151610533565b156107c757600191505b80806107d290610d8c565b915050610791565b50919050565b6000600160008373ffffffffffffffffffffffffffffffffffffffff1673ffffffffffffffffffffffffffffffffffffffff16815260200190815260200160002060009054906101000a900460ff169050919050565b61083e61092e565b73ffffffffffffffffffffffffffffffffffffffff1661085c6106b4565b73ffffffffffffffffffffffffffffffffffffffff16146108b2576040517f08c379a00000000000000000000000000000000000000000000000000000000081526004016108a990610bec565b60405180910390fd5b600073ffffffffffffffffffffffffffffffffffffffff168173ffffffffffffffffffffffffffffffffffffffff161415610922576040517f08c379a000000000000000000000000000000000000000000000000000000000815260040161091990610bcc565b60405180910390fd5b61092b81610936565b50565b600033905090565b60008060009054906101000a900473ffffffffffffffffffffffffffffffffffffffff169050816000806101000a81548173ffffffffffffffffffffffffffffffffffffffff021916908373ffffffffffffffffffffffffffffffffffffffff1602179055508173ffffffffffffffffffffffffffffffffffffffff168173ffffffffffffffffffffffffffffffffffffffff167f8be0079c531659141344cd1fd0a4f28419497f9722a3daafe3b4186f6b6457e060405160405180910390a35050565b6000610a0d610a0884610c4c565b610c27565b90508083825260208201905082856020860282011115610a3057610a2f610e67565b5b60005b85811015610a605781610a468882610a6a565b845260208401935060208301925050600181019050610a33565b5050509392505050565b600081359050610a7981610eff565b92915050565b600082601f830112610a9457610a93610e62565b5b8135610aa48482602086016109fa565b91505092915050565b600060208284031215610ac357610ac2610e71565b5b6000610ad184828501610a6a565b91505092915050565b600060208284031215610af057610aef610e71565b5b600082013567ffffffffffffffff811115610b0e57610b0d610e6c565b5b610b1a84828501610a7f565b91505092915050565b610b2c81610d13565b82525050565b610b3b81610d25565b82525050565b6000610b4e602683610c78565b9150610b5982610e87565b604082019050919050565b6000610b71602083610c78565b9150610b7c82610ed6565b602082019050919050565b610b9081610d51565b82525050565b6000602082019050610bab6000830184610b23565b92915050565b6000602082019050610bc66000830184610b32565b92915050565b60006020820190508181036000830152610be581610b41565b9050919050565b60006020820190508181036000830152610c0581610b64565b9050919050565b6000602082019050610c216000830184610b87565b92915050565b6000610c31610c42565b9050610c3d8282610d5b565b919050565b6000604051905090565b600067ffffffffffffffff821115610c6757610c66610e33565b5b602082029050602081019050919050565b600082825260208201905092915050565b6000610c9482610d51565b9150610c9f83610d51565b9250827fffffffffffffffffffffffffffffffffffffffffffffffffffffffffffffffff03821115610cd457610cd3610dd5565b5b828201905092915050565b6000610cea82610d51565b9150610cf583610d51565b925082821015610d0857610d07610dd5565b5b828203905092915050565b6000610d1e82610d31565b9050919050565b60008115159050919050565b600073ffffffffffffffffffffffffffffffffffffffff82169050919050565b6000819050919050565b610d6482610e76565b810181811067ffffffffffffffff82111715610d8357610d82610e33565b5b80604052505050565b6000610d9782610d51565b91507fffffffffffffffffffffffffffffffffffffffffffffffffffffffffffffffff821415610dca57610dc9610dd5565b5b600182019050919050565b7f4e487b7100000000000000000000000000000000000000000000000000000000600052601160045260246000fd5b7f4e487b7100000000000000000000000000000000000000000000000000000000600052603260045260246000fd5b7f4e487b7100000000000000000000000000000000000000000000000000000000600052604160045260246000fd5b600080fd5b600080fd5b600080fd5b600080fd5b6000601f19601f8301169050919050565b7f4f776e61626c653a206e6577206f776e657220697320746865207a65726f206160008201527f6464726573730000000000000000000000000000000000000000000000000000602082015250565b7f4f776e61626c653a2063616c6c6572206973206e6f7420746865206f776e6572600082015250565b610f0881610d13565b8114610f1357600080fd5b5056fea264697066735822122013c44309da17edb16daca538fef0ec10185f0de3a32833486ee12942c2821a9b64736f6c63430008070033a2646970667358221220f86ad7201d1e255b0f20bb15fa8e05f9430dd72779c854291994b5e45837973164736f6c63430008070033",
  "linkReferences": {
    "contracts/MOBALogicLibrary.sol": {
      "MOBALogicLibrary": [
        {
          "length": 20,
          "start": 2928
        },
        {
          "length": 20,
          "start": 3270
        },
        {
          "length": 20,
          "start": 5354
        }
      ]
    }
  },
  "deployedLinkReferences": {
    "contracts/MOBALogicLibrary.sol": {
      "MOBALogicLibrary": [
        {
          "length": 20,
          "start": 2643
        },
        {
          "length": 20,
          "start": 2985
        },
        {
          "length": 20,
          "start": 5069
        }
      ]
    }
  }
}