{
  "_format": "hh-sol-artifact-1",
  "contractName": "LeagueOfLegendsLogic",
  "sourceName": "contracts/LeagueOfLegendsLogic.sol",
  "abi": [
    {
      "anonymous": false,
      "inputs": [
        {
          "indexed": true,
          "internalType": "address",
          "name": "previousOwner",
          "type": "address"
        },
        {
          "indexed": true,
          "internalType": "address",
          "name": "newOwner",
          "type": "address"
        }
      ],
      "name": "OwnershipTransferred",
      "type": "event"
    },
    {
      "anonymous": false,
      "inputs": [
        {
          "indexed": true,
          "internalType": "bytes32",
          "name": "role",
          "type": "bytes32"
        },
        {
          "indexed": true,
          "internalType": "bytes32",
          "name": "previousAdminRole",
          "type": "bytes32"
        },
        {
          "indexed": true,
          "internalType": "bytes32",
          "name": "newAdminRole",
          "type": "bytes32"
        }
      ],
      "name": "RoleAdminChanged",
      "type": "event"
    },
    {
      "anonymous": false,
      "inputs": [
        {
          "indexed": true,
          "internalType": "bytes32",
          "name": "role",
          "type": "bytes32"
        },
        {
          "indexed": true,
          "internalType": "address",
          "name": "account",
          "type": "address"
        },
        {
          "indexed": true,
          "internalType": "address",
          "name": "sender",
          "type": "address"
        }
      ],
      "name": "RoleGranted",
      "type": "event"
    },
    {
      "anonymous": false,
      "inputs": [
        {
          "indexed": true,
          "internalType": "bytes32",
          "name": "role",
          "type": "bytes32"
        },
        {
          "indexed": true,
          "internalType": "address",
          "name": "account",
          "type": "address"
        },
        {
          "indexed": true,
          "internalType": "address",
          "name": "sender",
          "type": "address"
        }
      ],
      "name": "RoleRevoked",
      "type": "event"
    },
    {
      "anonymous": false,
      "inputs": [
        {
          "indexed": false,
          "internalType": "address",
          "name": "sender",
          "type": "address"
        },
        {
          "indexed": false,
          "internalType": "uint256",
          "name": "amount",
          "type": "uint256"
        }
      ],
      "name": "Staked",
      "type": "event"
    },
    {
      "anonymous": false,
      "inputs": [
        {
          "indexed": false,
          "internalType": "address",
          "name": "addr",
          "type": "address"
        }
      ],
      "name": "WhitelistedAddressAdded",
      "type": "event"
    },
    {
      "anonymous": false,
      "inputs": [
        {
          "indexed": false,
          "internalType": "address",
          "name": "addr",
          "type": "address"
        }
      ],
      "name": "WhitelistedAddressRemoved",
      "type": "event"
    },
    {
      "inputs": [],
      "name": "DEFAULT_ADMIN_ROLE",
      "outputs": [
        {
          "internalType": "bytes32",
          "name": "",
          "type": "bytes32"
        }
      ],
      "stateMutability": "view",
      "type": "function"
    },
    {
      "inputs": [
        {
          "internalType": "address",
          "name": "addr",
          "type": "address"
        }
      ],
      "name": "addAddressToWhitelist",
      "outputs": [
        {
          "internalType": "bool",
          "name": "success",
          "type": "bool"
        }
      ],
      "stateMutability": "nonpayable",
      "type": "function"
    },
    {
      "inputs": [
        {
          "internalType": "address[]",
          "name": "addrs",
          "type": "address[]"
        }
      ],
      "name": "addAddressesToWhitelist",
      "outputs": [
        {
          "internalType": "bool",
          "name": "success",
          "type": "bool"
        }
      ],
      "stateMutability": "nonpayable",
      "type": "function"
    },
    {
      "inputs": [
        {
          "internalType": "address",
          "name": "user",
          "type": "address"
        }
      ],
      "name": "addUserToLeague",
      "outputs": [],
      "stateMutability": "nonpayable",
      "type": "function"
    },
    {
      "inputs": [],
      "name": "addUserToWhitelist",
      "outputs": [],
      "stateMutability": "nonpayable",
      "type": "function"
    },
    {
      "inputs": [],
      "name": "currentWeekNum",
      "outputs": [
        {
          "internalType": "uint256",
          "name": "",
          "type": "uint256"
        }
      ],
      "stateMutability": "view",
      "type": "function"
    },
    {
      "inputs": [
        {
          "internalType": "uint256",
          "name": "currentWeekNum",
          "type": "uint256"
        }
      ],
      "name": "evaluateWeek",
      "outputs": [],
      "stateMutability": "nonpayable",
      "type": "function"
    },
    {
      "inputs": [],
      "name": "getLeagueName",
      "outputs": [
        {
          "internalType": "string",
          "name": "",
          "type": "string"
        }
      ],
      "stateMutability": "view",
      "type": "function"
    },
    {
      "inputs": [],
      "name": "getLineup",
      "outputs": [
        {
          "internalType": "uint256[]",
          "name": "",
          "type": "uint256[]"
        }
      ],
      "stateMutability": "view",
      "type": "function"
    },
    {
      "inputs": [
        {
          "internalType": "bytes32",
          "name": "role",
          "type": "bytes32"
        }
      ],
      "name": "getRoleAdmin",
      "outputs": [
        {
          "internalType": "bytes32",
          "name": "",
          "type": "bytes32"
        }
      ],
      "stateMutability": "view",
      "type": "function"
    },
    {
      "inputs": [],
      "name": "getStakeAmount",
      "outputs": [
        {
          "internalType": "uint256",
          "name": "stakeAmount",
          "type": "uint256"
        }
      ],
      "stateMutability": "view",
      "type": "function"
    },
    {
      "inputs": [],
      "name": "getTotalPrizePot",
      "outputs": [
        {
          "internalType": "uint256",
          "name": "",
          "type": "uint256"
        }
      ],
      "stateMutability": "view",
      "type": "function"
    },
    {
      "inputs": [
        {
          "internalType": "address",
          "name": "_token",
          "type": "address"
        }
      ],
      "name": "getUSDCBalance",
      "outputs": [
        {
          "internalType": "uint256",
          "name": "",
          "type": "uint256"
        }
      ],
      "stateMutability": "view",
      "type": "function"
    },
    {
      "inputs": [],
      "name": "getUserRecord",
      "outputs": [
        {
          "internalType": "uint256[8]",
          "name": "",
          "type": "uint256[8]"
        }
      ],
      "stateMutability": "view",
      "type": "function"
    },
    {
      "inputs": [
        {
          "internalType": "bytes32",
          "name": "role",
          "type": "bytes32"
        },
        {
          "internalType": "address",
          "name": "account",
          "type": "address"
        }
      ],
      "name": "grantRole",
      "outputs": [],
      "stateMutability": "nonpayable",
      "type": "function"
    },
    {
      "inputs": [
        {
          "internalType": "bytes32",
          "name": "role",
          "type": "bytes32"
        },
        {
          "internalType": "address",
          "name": "account",
          "type": "address"
        }
      ],
      "name": "hasRole",
      "outputs": [
        {
          "internalType": "bool",
          "name": "",
          "type": "bool"
        }
      ],
      "stateMutability": "view",
      "type": "function"
    },
    {
      "inputs": [],
      "name": "incrementVersion",
      "outputs": [],
      "stateMutability": "nonpayable",
      "type": "function"
    },
    {
      "inputs": [
        {
          "internalType": "string",
          "name": "_name",
          "type": "string"
        },
        {
          "internalType": "uint256",
          "name": "_version",
          "type": "uint256"
        },
        {
          "internalType": "uint256",
          "name": "_stakeAmount",
          "type": "uint256"
        },
        {
          "internalType": "bool",
          "name": "_isPublic",
          "type": "bool"
        },
        {
          "internalType": "address",
          "name": "athletesDataStorageAddress",
          "type": "address"
        },
        {
          "internalType": "address",
          "name": "_admin",
          "type": "address"
        },
        {
          "internalType": "address",
          "name": "_polygonUSDCAddress",
          "type": "address"
        },
        {
          "internalType": "address",
          "name": "_rinkebyUSDCAddress",
          "type": "address"
        },
        {
          "internalType": "address",
          "name": "leagueMakerContractAddress",
          "type": "address"
        }
      ],
      "name": "initialize",
      "outputs": [],
      "stateMutability": "nonpayable",
      "type": "function"
    },
    {
      "inputs": [],
      "name": "isPublic",
      "outputs": [
        {
          "internalType": "bool",
          "name": "",
          "type": "bool"
        }
      ],
      "stateMutability": "view",
      "type": "function"
    },
    {
      "inputs": [],
      "name": "joinLeague",
      "outputs": [],
      "stateMutability": "nonpayable",
      "type": "function"
    },
    {
      "inputs": [
        {
          "internalType": "uint256",
          "name": "",
          "type": "uint256"
        }
      ],
      "name": "leagueMembers",
      "outputs": [
        {
          "internalType": "address",
          "name": "",
          "type": "address"
        }
      ],
      "stateMutability": "view",
      "type": "function"
    },
    {
      "inputs": [],
      "name": "leagueName",
      "outputs": [
        {
          "internalType": "string",
          "name": "",
          "type": "string"
        }
      ],
      "stateMutability": "view",
      "type": "function"
    },
    {
      "inputs": [],
      "name": "lockLineup",
      "outputs": [],
      "stateMutability": "nonpayable",
      "type": "function"
    },
    {
      "inputs": [],
      "name": "numWeeks",
      "outputs": [
        {
          "internalType": "uint256",
          "name": "",
          "type": "uint256"
        }
      ],
      "stateMutability": "view",
      "type": "function"
    },
    {
      "inputs": [],
      "name": "owner",
      "outputs": [
        {
          "internalType": "address",
          "name": "",
          "type": "address"
        }
      ],
      "stateMutability": "view",
      "type": "function"
    },
    {
      "inputs": [],
      "name": "polygonUSDCAddress",
      "outputs": [
        {
          "internalType": "address",
          "name": "",
          "type": "address"
        }
      ],
      "stateMutability": "view",
      "type": "function"
    },
    {
      "inputs": [
        {
          "internalType": "address",
          "name": "addr",
          "type": "address"
        }
      ],
      "name": "removeAddressFromWhitelist",
      "outputs": [
        {
          "internalType": "bool",
          "name": "success",
          "type": "bool"
        }
      ],
      "stateMutability": "nonpayable",
      "type": "function"
    },
    {
      "inputs": [
        {
          "internalType": "address[]",
          "name": "addrs",
          "type": "address[]"
        }
      ],
      "name": "removeAddressesFromWhitelist",
      "outputs": [
        {
          "internalType": "bool",
          "name": "success",
          "type": "bool"
        }
      ],
      "stateMutability": "nonpayable",
      "type": "function"
    },
    {
      "inputs": [],
      "name": "renounceOwnership",
      "outputs": [],
      "stateMutability": "nonpayable",
      "type": "function"
    },
    {
      "inputs": [
        {
          "internalType": "bytes32",
          "name": "role",
          "type": "bytes32"
        },
        {
          "internalType": "address",
          "name": "account",
          "type": "address"
        }
      ],
      "name": "renounceRole",
      "outputs": [],
      "stateMutability": "nonpayable",
      "type": "function"
    },
    {
      "inputs": [
        {
          "internalType": "bytes32",
          "name": "role",
          "type": "bytes32"
        },
        {
          "internalType": "address",
          "name": "account",
          "type": "address"
        }
      ],
      "name": "revokeRole",
      "outputs": [],
      "stateMutability": "nonpayable",
      "type": "function"
    },
    {
      "inputs": [],
      "name": "rinkebyUSDCAddress",
      "outputs": [
        {
          "internalType": "address",
          "name": "",
          "type": "address"
        }
      ],
      "stateMutability": "view",
      "type": "function"
    },
    {
      "inputs": [],
      "name": "setLeagueEntryIsClosed",
      "outputs": [],
      "stateMutability": "nonpayable",
      "type": "function"
    },
    {
      "inputs": [],
      "name": "setLeagueSchedule",
      "outputs": [],
      "stateMutability": "nonpayable",
      "type": "function"
    },
    {
      "inputs": [
        {
          "internalType": "uint256[]",
          "name": "athleteIds",
          "type": "uint256[]"
        }
      ],
      "name": "setLineup",
      "outputs": [],
      "stateMutability": "nonpayable",
      "type": "function"
    },
    {
      "inputs": [],
      "name": "stakeAmount",
      "outputs": [
        {
          "internalType": "uint256",
          "name": "",
          "type": "uint256"
        }
      ],
      "stateMutability": "view",
      "type": "function"
    },
    {
      "inputs": [
        {
          "internalType": "bytes4",
          "name": "interfaceId",
          "type": "bytes4"
        }
      ],
      "name": "supportsInterface",
      "outputs": [
        {
          "internalType": "bool",
          "name": "",
          "type": "bool"
        }
      ],
      "stateMutability": "view",
      "type": "function"
    },
    {
      "inputs": [
        {
          "internalType": "address",
          "name": "newOwner",
          "type": "address"
        }
      ],
      "name": "transferOwnership",
      "outputs": [],
      "stateMutability": "nonpayable",
      "type": "function"
    },
    {
      "inputs": [],
      "name": "unlockLineup",
      "outputs": [],
      "stateMutability": "nonpayable",
      "type": "function"
    },
    {
      "inputs": [
        {
          "internalType": "address",
          "name": "",
          "type": "address"
        },
        {
          "internalType": "uint256",
          "name": "",
          "type": "uint256"
        }
      ],
      "name": "userToRecord",
      "outputs": [
        {
          "internalType": "uint256",
          "name": "",
          "type": "uint256"
        }
      ],
      "stateMutability": "view",
      "type": "function"
    },
    {
      "inputs": [],
      "name": "version",
      "outputs": [
        {
          "internalType": "uint256",
          "name": "",
          "type": "uint256"
        }
      ],
      "stateMutability": "view",
      "type": "function"
    },
    {
      "inputs": [
        {
          "internalType": "address",
          "name": "",
          "type": "address"
        }
      ],
      "name": "whitelist",
      "outputs": [
        {
          "internalType": "bool",
          "name": "",
          "type": "bool"
        }
      ],
      "stateMutability": "view",
      "type": "function"
    }
  ],
  "bytecode": "0x60806040523480156200001157600080fd5b5062000032620000266200003860201b60201c565b6200004060201b60201c565b62000105565b600033905090565b60008060029054906101000a900473ffffffffffffffffffffffffffffffffffffffff16905081600060026101000a81548173ffffffffffffffffffffffffffffffffffffffff021916908373ffffffffffffffffffffffffffffffffffffffff1602179055508173ffffffffffffffffffffffffffffffffffffffff168173ffffffffffffffffffffffffffffffffffffffff167f8be0079c531659141344cd1fd0a4f28419497f9722a3daafe3b4186f6b6457e060405160405180910390a35050565b614e8880620001156000396000f3fe60806040523480156200001157600080fd5b5060043610620002975760003560e01c80637b9417c81162000165578063a2bc091a11620000d5578063dc9a15351162000093578063dc9a15351462000786578063e2ec6ec314620007a8578063e4c9066b14620007de578063f2fde38b14620007ea578063f612121a146200080a578063f8816045146200082a5762000297565b8063a2bc091a1462000720578063ada3a28d146200072c578063c8be3b5b146200074e578063c99fea94146200075a578063d547741f14620007665762000297565b806393f3706c116200012357806393f3706c146200066457806399a6003414620006865780639b19251a14620006a85780639f2d548114620006de578063a217fddf14620006fe5762000297565b80637b9417c814620005925780637eed33f114620005c8578063841abf6e14620005ea5780638da5cb5b146200060c57806391d14854146200062e5762000297565b80632cf0a1fc116200020d57806354fd4d5011620001cb57806354fd4d5014620004de57806360c7dc471462000500578063680247171462000522578063715018a61462000558578063722580b614620005645780637ac6aa1d14620005865762000297565b80632cf0a1fc146200044e5780632f2ff15d146200045a57806336568abe146200047a578063403570c5146200049a57806352e6e5f314620004bc5762000297565b80630c6f7959116200025b5780630c6f79591462000340578063248a9ca3146200037657806324953eaa14620003ac578063267175db14620003e2578063286dd3f514620004185762000297565b8062b2476f146200029c57806301ffc9a714620002be5780630655465a14620002f4578063087e18a714620003005780630bdcd5f01462000320575b600080fd5b620002a66200084c565b604051620002b59190620033f4565b60405180910390f35b620002dc6004803603810190620002d6919062002e0e565b62000872565b604051620002eb9190620034bd565b60405180910390f35b620002fe620008ef565b005b6200031e600480360381019062000318919062002c48565b620009a7565b005b6200033e600480360381019062000338919062002e40565b62000b2b565b005b6200035e600480360381019062000358919062002c7a565b62000ebe565b6040516200036d9190620036ec565b60405180910390f35b6200039460048036038101906200038e919062002d95565b62000ee7565b604051620003a39190620034da565b60405180910390f35b620003ca6004803603810190620003c4919062002cc1565b62000f07565b604051620003d99190620034bd565b60405180910390f35b620004006004803603810190620003fa919062002f43565b62001004565b6040516200040f9190620033f4565b60405180910390f35b62000436600480360381019062000430919062002c48565b62001044565b604051620004459190620034bd565b60405180910390f35b62000458620011d3565b005b62000478600480360381019062000472919062002dc7565b620011f1565b005b62000498600480360381019062000492919062002dc7565b62001222565b005b620004a4620012ac565b604051620004b39190620035b8565b60405180910390f35b620004c662001346565b604051620004d59190620036ec565b60405180910390f35b620004e86200134c565b604051620004f79190620036ec565b60405180910390f35b6200050a62001352565b604051620005199190620036ec565b60405180910390f35b6200054060048036038101906200053a919062002c48565b62001358565b6040516200054f9190620036ec565b60405180910390f35b62000562620013f0565b005b6200056e62001481565b6040516200057d9190620036ec565b60405180910390f35b6200059062001486565b005b620005b06004803603810190620005aa919062002c48565b620014f9565b604051620005bf9190620034bd565b60405180910390f35b620005d262001687565b604051620005e19190620036ec565b60405180910390f35b620005f46200168d565b604051620006039190620035b8565b60405180910390f35b6200061662001723565b604051620006259190620033f4565b60405180910390f35b6200064c600480360381019062000646919062002dc7565b6200174c565b6040516200065b9190620034bd565b60405180910390f35b6200066e620017b7565b6040516200067d9190620033f4565b60405180910390f35b62000690620017dd565b6040516200069f9190620036ec565b60405180910390f35b620006c66004803603810190620006c0919062002c48565b620017f9565b604051620006d59190620034bd565b60405180910390f35b620006fc6004803603810190620006f6919062002f43565b62001819565b005b620007086200193a565b604051620007179190620034da565b60405180910390f35b6200072a62001941565b005b62000736620019e1565b60405162000745919062003499565b60405180910390f35b6200075862001a78565b005b6200076462001b18565b005b6200078460048036038101906200077e919062002dc7565b62001c6f565b005b6200079062001ca0565b6040516200079f9190620034bd565b60405180910390f35b620007c66004803603810190620007c0919062002cc1565b62001cb3565b604051620007d59190620034bd565b60405180910390f35b620007e862001db0565b005b62000808600480360381019062000802919062002c48565b62001e50565b005b62000828600480360381019062000822919062002d12565b62001f54565b005b6200083462002000565b6040516200084391906200347b565b60405180910390f35b601260009054906101000a900473ffffffffffffffffffffffffffffffffffffffff1681565b60007f7965db0b000000000000000000000000000000000000000000000000000000007bffffffffffffffffffffffffffffffffffffffffffffffffffffffff1916827bffffffffffffffffffffffffffffffffffffffffffffffffffffffff19161480620008e85750620008e7826200208c565b5b9050919050565b6200092f6040518060400160405280601081526020017f73657474696e67207363686564756c6500000000000000000000000000000000815250620020f6565b73__$36fdb4e0c2cb91f3ceca5ea81b025328f3$__63d2c232b56010600960075460066040518563ffffffff1660e01b8152600401620009739493929190620034f7565b60006040518083038186803b1580156200098c57600080fd5b505af4158015620009a1573d6000803e3d6000fd5b50505050565b600d60009054906101000a900460ff1615620009fa576040517f08c379a0000000000000000000000000000000000000000000000000000000008152600401620009f190620036a8565b60405180910390fd5b6008600980549050101562000b03576009819080600181540180825580915050600190039060005260206000200160009091909190916101000a81548173ffffffffffffffffffffffffffffffffffffffff021916908373ffffffffffffffffffffffffffffffffffffffff160217905550601560009054906101000a900473ffffffffffffffffffffffffffffffffffffffff1673ffffffffffffffffffffffffffffffffffffffff1663771bd4ce826040518263ffffffff1660e01b815260040162000ac99190620033f4565b600060405180830381600087803b15801562000ae457600080fd5b505af115801562000af9573d6000803e3d6000fd5b5050505062000b28565b62000b2760405180606001604052806028815260200162004e2b60289139620020f6565b5b50565b600060019054906101000a900460ff1662000b555760008054906101000a900460ff161562000b60565b62000b5f62002193565b5b62000ba2576040517f08c379a000000000000000000000000000000000000000000000000000000000815260040162000b999062003664565b60405180910390fd5b60008060019054906101000a900460ff16159050801562000bf3576001600060016101000a81548160ff02191690831515021790555060016000806101000a81548160ff0219169083151502179055505b886005819055508a8a6006919062000c0d929190620028b9565b50600860078190555062000c256000801b86620021a6565b6009859080600181540180825580915050600190039060005260206000200160009091909190916101000a81548173ffffffffffffffffffffffffffffffffffffffff021916908373ffffffffffffffffffffffffffffffffffffffff16021790555087600f8190555086600460006101000a81548160ff0219169083151502179055506000600d60016101000a81548160ff0219169083151502179055506000600d60006101000a81548160ff02191690831515021790555085601360006101000a81548173ffffffffffffffffffffffffffffffffffffffff021916908373ffffffffffffffffffffffffffffffffffffffff16021790555081601560006101000a81548173ffffffffffffffffffffffffffffffffffffffff021916908373ffffffffffffffffffffffffffffffffffffffff16021790555060405162000d6f906200294a565b604051809103906000f08015801562000d8c573d6000803e3d6000fd5b50601460006101000a81548173ffffffffffffffffffffffffffffffffffffffff021916908373ffffffffffffffffffffffffffffffffffffffff16021790555083601160006101000a81548173ffffffffffffffffffffffffffffffffffffffff021916908373ffffffffffffffffffffffffffffffffffffffff16021790555082601260006101000a81548173ffffffffffffffffffffffffffffffffffffffff021916908373ffffffffffffffffffffffffffffffffffffffff16021790555062000e8f6040518060400160405280601281526020017f50726f787920696e697469616c697a6564210000000000000000000000000000815250620020f6565b801562000eb15760008060016101000a81548160ff0219169083151502179055505b5050505050505050505050565b600c602052816000526040600020816008811062000edb57600080fd5b01600091509150505481565b600060016000838152602001908152602001600020600101549050919050565b600062000f13620021b6565b73ffffffffffffffffffffffffffffffffffffffff1662000f3362001723565b73ffffffffffffffffffffffffffffffffffffffff161462000f8c576040517f08c379a000000000000000000000000000000000000000000000000000000000815260040162000f839062003686565b60405180910390fd5b60005b825181101562000ffe5762000fc183828151811062000fb35762000fb262003b75565b5b602002602001015162001044565b1562000fe85760016003600082825462000fdc919062003901565b92505081905550600191505b808062000ff59062003ac9565b91505062000f8f565b50919050565b600981815481106200101557600080fd5b906000526020600020016000915054906101000a900473ffffffffffffffffffffffffffffffffffffffff1681565b600062001050620021b6565b73ffffffffffffffffffffffffffffffffffffffff166200107062001723565b73ffffffffffffffffffffffffffffffffffffffff1614620010c9576040517f08c379a0000000000000000000000000000000000000000000000000000000008152600401620010c09062003686565b60405180910390fd5b600260008373ffffffffffffffffffffffffffffffffffffffff1673ffffffffffffffffffffffffffffffffffffffff16815260200190815260200160002060009054906101000a900460ff1615620011ce576000600260008473ffffffffffffffffffffffffffffffffffffffff1673ffffffffffffffffffffffffffffffffffffffff16815260200190815260200160002060006101000a81548160ff0219169083151502179055507ff1abf01a1043b7c244d128e8595cf0c1d10743b022b03a02dffd8ca3bf729f5a82604051620011a59190620033f4565b60405180910390a1600160036000828254620011c2919062003901565b92505081905550600190505b919050565b600160056000828254620011e8919062003843565b92505081905550565b620011fc8262000ee7565b62001211816200120b620021b6565b620021be565b6200121d838362002266565b505050565b6200122c620021b6565b73ffffffffffffffffffffffffffffffffffffffff168173ffffffffffffffffffffffffffffffffffffffff16146200129c576040517f08c379a00000000000000000000000000000000000000000000000000000000081526004016200129390620036ca565b60405180910390fd5b620012a882826200234b565b5050565b606060068054620012bd9062003a5d565b80601f0160208091040260200160405190810160405280929190818152602001828054620012eb9062003a5d565b80156200133c5780601f1062001310576101008083540402835291602001916200133c565b820191906000526020600020905b8154815290600101906020018083116200131e57829003601f168201915b5050505050905090565b60085481565b60055481565b600f5481565b60008173ffffffffffffffffffffffffffffffffffffffff166370a08231306040518263ffffffff1660e01b8152600401620013959190620033f4565b60206040518083038186803b158015620013ae57600080fd5b505afa158015620013c3573d6000803e3d6000fd5b505050506040513d601f19601f82011682018060405250810190620013e9919062002f75565b9050919050565b620013fa620021b6565b73ffffffffffffffffffffffffffffffffffffffff166200141a62001723565b73ffffffffffffffffffffffffffffffffffffffff161462001473576040517f08c379a00000000000000000000000000000000000000000000000000000000081526004016200146a9062003686565b60405180910390fd5b6200147f600062002432565b565b600090565b620014956000801b336200174c565b6200149f57600080fd5b6001600260003373ffffffffffffffffffffffffffffffffffffffff1673ffffffffffffffffffffffffffffffffffffffff16815260200190815260200160002060006101000a81548160ff021916908315150217905550565b600062001505620021b6565b73ffffffffffffffffffffffffffffffffffffffff166200152562001723565b73ffffffffffffffffffffffffffffffffffffffff16146200157e576040517f08c379a0000000000000000000000000000000000000000000000000000000008152600401620015759062003686565b60405180910390fd5b600260008373ffffffffffffffffffffffffffffffffffffffff1673ffffffffffffffffffffffffffffffffffffffff16815260200190815260200160002060009054906101000a900460ff1662001682576001600260008473ffffffffffffffffffffffffffffffffffffffff1673ffffffffffffffffffffffffffffffffffffffff16815260200190815260200160002060006101000a81548160ff0219169083151502179055507fd1bba68c128cc3f427e5831b3c6f99f480b6efa6b9e80c757768f6124158cc3f82604051620016599190620033f4565b60405180910390a160016003600082825462001676919062003843565b92505081905550600190505b919050565b60075481565b600680546200169c9062003a5d565b80601f0160208091040260200160405190810160405280929190818152602001828054620016ca9062003a5d565b80156200171b5780601f10620016ef576101008083540402835291602001916200171b565b820191906000526020600020905b815481529060010190602001808311620016fd57829003601f168201915b505050505081565b60008060029054906101000a900473ffffffffffffffffffffffffffffffffffffffff16905090565b60006001600084815260200190815260200160002060000160008373ffffffffffffffffffffffffffffffffffffffff1673ffffffffffffffffffffffffffffffffffffffff16815260200190815260200160002060009054906101000a900460ff16905092915050565b601160009054906101000a900473ffffffffffffffffffffffffffffffffffffffff1681565b6000600980549050600f54620017f49190620038a0565b905090565b60026020528060005260406000206000915054906101000a900460ff1681565b62001823620021b6565b73ffffffffffffffffffffffffffffffffffffffff166200184362001723565b73ffffffffffffffffffffffffffffffffffffffff16146200189c576040517f08c379a0000000000000000000000000000000000000000000000000000000008152600401620018939062003686565b60405180910390fd5b73__$36fdb4e0c2cb91f3ceca5ea81b025328f3$__63c406e268601083601360009054906101000a900473ffffffffffffffffffffffffffffffffffffffff16600c600b600e6040518763ffffffff1660e01b815260040162001905969594939291906200354b565b60006040518083038186803b1580156200191e57600080fd5b505af415801562001933573d6000803e3d6000fd5b5050505050565b6000801b81565b6200194b620021b6565b73ffffffffffffffffffffffffffffffffffffffff166200196b62001723565b73ffffffffffffffffffffffffffffffffffffffff1614620019c4576040517f08c379a0000000000000000000000000000000000000000000000000000000008152600401620019bb9062003686565b60405180910390fd5b6000600d60016101000a81548160ff021916908315150217905550565b6060600e60003373ffffffffffffffffffffffffffffffffffffffff1673ffffffffffffffffffffffffffffffffffffffff16815260200190815260200160002080548060200260200160405190810160405280929190818152602001828054801562001a6e57602002820191906000526020600020905b81548152602001906001019080831162001a59575b5050505050905090565b62001a82620021b6565b73ffffffffffffffffffffffffffffffffffffffff1662001aa262001723565b73ffffffffffffffffffffffffffffffffffffffff161462001afb576040517f08c379a000000000000000000000000000000000000000000000000000000000815260040162001af29062003686565b60405180910390fd5b6001600d60016101000a81548160ff021916908315150217905550565b600260003373ffffffffffffffffffffffffffffffffffffffff1673ffffffffffffffffffffffffffffffffffffffff16815260200190815260200160002060009054906101000a900460ff168062001b7d5750600460009054906101000a900460ff165b62001b8757600080fd5b600d60009054906101000a900460ff161562001bda576040517f08c379a000000000000000000000000000000000000000000000000000000000815260040162001bd190620036a8565b60405180910390fd5b6009339080600181540180825580915050600190039060005260206000200160009091909190916101000a81548173ffffffffffffffffffffffffffffffffffffffff021916908373ffffffffffffffffffffffffffffffffffffffff16021790555062001c6d601260009054906101000a900473ffffffffffffffffffffffffffffffffffffffff16600f54620024f7565b565b62001c7a8262000ee7565b62001c8f8162001c89620021b6565b620021be565b62001c9b83836200234b565b505050565b600460009054906101000a900460ff1681565b600062001cbf620021b6565b73ffffffffffffffffffffffffffffffffffffffff1662001cdf62001723565b73ffffffffffffffffffffffffffffffffffffffff161462001d38576040517f08c379a000000000000000000000000000000000000000000000000000000000815260040162001d2f9062003686565b60405180910390fd5b60005b825181101562001daa5762001d6d83828151811062001d5f5762001d5e62003b75565b5b6020026020010151620014f9565b1562001d945760016003600082825462001d88919062003843565b92505081905550600191505b808062001da19062003ac9565b91505062001d3b565b50919050565b62001dba620021b6565b73ffffffffffffffffffffffffffffffffffffffff1662001dda62001723565b73ffffffffffffffffffffffffffffffffffffffff161462001e33576040517f08c379a000000000000000000000000000000000000000000000000000000000815260040162001e2a9062003686565b60405180910390fd5b6001600d60006101000a81548160ff021916908315150217905550565b62001e5a620021b6565b73ffffffffffffffffffffffffffffffffffffffff1662001e7a62001723565b73ffffffffffffffffffffffffffffffffffffffff161462001ed3576040517f08c379a000000000000000000000000000000000000000000000000000000000815260040162001eca9062003686565b60405180910390fd5b600073ffffffffffffffffffffffffffffffffffffffff168173ffffffffffffffffffffffffffffffffffffffff16141562001f46576040517f08c379a000000000000000000000000000000000000000000000000000000000815260040162001f3d90620035fe565b60405180910390fd5b62001f518162002432565b50565b600d60019054906101000a900460ff161562001fa7576040517f08c379a000000000000000000000000000000000000000000000000000000000815260040162001f9e9062003642565b60405180910390fd5b80600e60003373ffffffffffffffffffffffffffffffffffffffff1673ffffffffffffffffffffffffffffffffffffffff168152602001908152602001600020908051906020019062001ffc92919062002958565b5050565b6200200a620029aa565b600c60003373ffffffffffffffffffffffffffffffffffffffff1673ffffffffffffffffffffffffffffffffffffffff16815260200190815260200160002060088060200260405190810160405280929190826008801562002082576020028201915b8154815260200190600101908083116200206d575b5050505050905090565b60007f01ffc9a7000000000000000000000000000000000000000000000000000000007bffffffffffffffffffffffffffffffffffffffffffffffffffffffff1916827bffffffffffffffffffffffffffffffffffffffffffffffffffffffff1916149050919050565b62002190816040516024016200210d9190620035b8565b6040516020818303038152906040527f41304fac000000000000000000000000000000000000000000000000000000007bffffffffffffffffffffffffffffffffffffffffffffffffffffffff19166020820180517bffffffffffffffffffffffffffffffffffffffffffffffffffffffff838183161783525050505062002612565b50565b6000620021a0306200263b565b15905090565b620021b2828262002266565b5050565b600033905090565b620021ca82826200174c565b6200226257620021f28173ffffffffffffffffffffffffffffffffffffffff1660146200265e565b620022028360001c60206200265e565b60405160200162002215929190620033b2565b6040516020818303038152906040526040517f08c379a0000000000000000000000000000000000000000000000000000000008152600401620022599190620035b8565b60405180910390fd5b5050565b6200227282826200174c565b6200234757600180600084815260200190815260200160002060000160008373ffffffffffffffffffffffffffffffffffffffff1673ffffffffffffffffffffffffffffffffffffffff16815260200190815260200160002060006101000a81548160ff021916908315150217905550620022ec620021b6565b73ffffffffffffffffffffffffffffffffffffffff168173ffffffffffffffffffffffffffffffffffffffff16837f2f8788117e7eff1d82e926ec794901d17c78024a50270940304540a733656f0d60405160405180910390a45b5050565b6200235782826200174c565b156200242e5760006001600084815260200190815260200160002060000160008373ffffffffffffffffffffffffffffffffffffffff1673ffffffffffffffffffffffffffffffffffffffff16815260200190815260200160002060006101000a81548160ff021916908315150217905550620023d3620021b6565b73ffffffffffffffffffffffffffffffffffffffff168173ffffffffffffffffffffffffffffffffffffffff16837ff6391f5c32d9c69d2a47ea670b442974b53935d1edc7fd64eb21e047a839171b60405160405180910390a45b5050565b60008060029054906101000a900473ffffffffffffffffffffffffffffffffffffffff16905081600060026101000a81548173ffffffffffffffffffffffffffffffffffffffff021916908373ffffffffffffffffffffffffffffffffffffffff1602179055508173ffffffffffffffffffffffffffffffffffffffff168173ffffffffffffffffffffffffffffffffffffffff167f8be0079c531659141344cd1fd0a4f28419497f9722a3daafe3b4186f6b6457e060405160405180910390a35050565b600081116200253d576040517f08c379a0000000000000000000000000000000000000000000000000000000008152600401620025349062003620565b60405180910390fd5b8173ffffffffffffffffffffffffffffffffffffffff166323b872dd3330846040518463ffffffff1660e01b81526004016200257c9392919062003411565b602060405180830381600087803b1580156200259757600080fd5b505af1158015620025ac573d6000803e3d6000fd5b505050506040513d601f19601f82011682018060405250810190620025d2919062002d63565b507f9e71bc8eea02a63969f509818f2dafb9254532904319f9dbda79b67bd34a5f3d3382604051620026069291906200344e565b60405180910390a15050565b60008151905060006a636f6e736f6c652e6c6f679050602083016000808483855afa5050505050565b6000808273ffffffffffffffffffffffffffffffffffffffff163b119050919050565b606060006002836002620026739190620038a0565b6200267f919062003843565b67ffffffffffffffff8111156200269b576200269a62003ba4565b5b6040519080825280601f01601f191660200182016040528015620026ce5781602001600182028036833780820191505090505b5090507f30000000000000000000000000000000000000000000000000000000000000008160008151811062002709576200270862003b75565b5b60200101907effffffffffffffffffffffffffffffffffffffffffffffffffffffffffffff1916908160001a9053507f78000000000000000000000000000000000000000000000000000000000000008160018151811062002770576200276f62003b75565b5b60200101907effffffffffffffffffffffffffffffffffffffffffffffffffffffffffffff1916908160001a90535060006001846002620027b29190620038a0565b620027be919062003843565b90505b600181111562002868577f3031323334353637383961626364656600000000000000000000000000000000600f86166010811062002804576200280362003b75565b5b1a60f81b8282815181106200281e576200281d62003b75565b5b60200101907effffffffffffffffffffffffffffffffffffffffffffffffffffffffffffff1916908160001a905350600485901c945080620028609062003a2e565b9050620027c1565b5060008414620028af576040517f08c379a0000000000000000000000000000000000000000000000000000000008152600401620028a690620035dc565b60405180910390fd5b8091505092915050565b828054620028c79062003a5d565b90600052602060002090601f016020900481019282620028eb576000855562002937565b82601f106200290657803560ff191683800117855562002937565b8280016001018555821562002937579182015b828111156200293657823582559160200191906001019062002919565b5b509050620029469190620029cd565b5090565b610f9f8062003e8c83390190565b82805482825590600052602060002090810192821562002997579160200282015b828111156200299657825182559160200191906001019062002979565b5b509050620029a69190620029cd565b5090565b604051806101000160405280600890602082028036833780820191505090505090565b5b80821115620029e8576000816000905550600101620029ce565b5090565b600062002a03620029fd8462003732565b62003709565b9050808382526020820190508285602086028201111562002a295762002a2862003bdd565b5b60005b8581101562002a5d578162002a42888262002ae2565b84526020840193506020830192505060018101905062002a2c565b5050509392505050565b600062002a7e62002a788462003761565b62003709565b9050808382526020820190508285602086028201111562002aa45762002aa362003bdd565b5b60005b8581101562002ad8578162002abd888262002c1a565b84526020840193506020830192505060018101905062002aa7565b5050509392505050565b60008135905062002af38162003e09565b92915050565b600082601f83011262002b115762002b1062003bd8565b5b813562002b23848260208601620029ec565b91505092915050565b600082601f83011262002b445762002b4362003bd8565b5b813562002b5684826020860162002a67565b91505092915050565b60008135905062002b708162003e23565b92915050565b60008151905062002b878162003e23565b92915050565b60008135905062002b9e8162003e3d565b92915050565b60008135905062002bb58162003e57565b92915050565b60008083601f84011262002bd45762002bd362003bd8565b5b8235905067ffffffffffffffff81111562002bf45762002bf362003bd3565b5b60208301915083600182028301111562002c135762002c1262003bdd565b5b9250929050565b60008135905062002c2b8162003e71565b92915050565b60008151905062002c428162003e71565b92915050565b60006020828403121562002c615762002c6062003be7565b5b600062002c718482850162002ae2565b91505092915050565b6000806040838503121562002c945762002c9362003be7565b5b600062002ca48582860162002ae2565b925050602062002cb78582860162002c1a565b9150509250929050565b60006020828403121562002cda5762002cd962003be7565b5b600082013567ffffffffffffffff81111562002cfb5762002cfa62003be2565b5b62002d098482850162002af9565b91505092915050565b60006020828403121562002d2b5762002d2a62003be7565b5b600082013567ffffffffffffffff81111562002d4c5762002d4b62003be2565b5b62002d5a8482850162002b2c565b91505092915050565b60006020828403121562002d7c5762002d7b62003be7565b5b600062002d8c8482850162002b76565b91505092915050565b60006020828403121562002dae5762002dad62003be7565b5b600062002dbe8482850162002b8d565b91505092915050565b6000806040838503121562002de15762002de062003be7565b5b600062002df18582860162002b8d565b925050602062002e048582860162002ae2565b9150509250929050565b60006020828403121562002e275762002e2662003be7565b5b600062002e378482850162002ba4565b91505092915050565b6000806000806000806000806000806101208b8d03121562002e675762002e6662003be7565b5b60008b013567ffffffffffffffff81111562002e885762002e8762003be2565b5b62002e968d828e0162002bbb565b9a509a5050602062002eab8d828e0162002c1a565b985050604062002ebe8d828e0162002c1a565b975050606062002ed18d828e0162002b5f565b965050608062002ee48d828e0162002ae2565b95505060a062002ef78d828e0162002ae2565b94505060c062002f0a8d828e0162002ae2565b93505060e062002f1d8d828e0162002ae2565b92505061010062002f318d828e0162002ae2565b9150509295989b9194979a5092959850565b60006020828403121562002f5c5762002f5b62003be7565b5b600062002f6c8482850162002c1a565b91505092915050565b60006020828403121562002f8e5762002f8d62003be7565b5b600062002f9e8482850162002c31565b91505092915050565b600062002fb583836200337f565b60208301905092915050565b62002fcc816200393c565b82525050565b8082525050565b62002fe481620037bf565b62002ff08184620037fa565b925062002ffd8262003790565b8060005b838110156200303457815162003018878262002fa7565b96506200302583620037e0565b92505060018101905062003001565b505050505050565b60006200304982620037ca565b62003055818562003805565b935062003062836200379a565b8060005b83811015620030995781516200307d888262002fa7565b97506200308a83620037ed565b92505060018101905062003066565b5085935050505092915050565b620030b18162003950565b82525050565b620030c2816200395c565b82525050565b620030d381620039bc565b82525050565b8082525050565b8082525050565b8082525050565b8082525050565b60006200310282620037d5565b6200310e818562003816565b935062003120818560208601620039f8565b6200312b8162003bec565b840191505092915050565b60006200314382620037d5565b6200314f818562003838565b935062003161818560208601620039f8565b80840191505092915050565b600081546200317c8162003a5d565b62003188818662003827565b94506001821660008114620031a65760018114620031b957620031f0565b60ff1983168652602086019350620031f0565b620031c485620037aa565b60005b83811015620031e857815481890152600182019150602081019050620031c7565b808801955050505b50505092915050565b60006200320860208362003816565b9150620032158262003bfd565b602082019050919050565b60006200322f60268362003816565b91506200323c8262003c26565b604082019050919050565b600062003256600e8362003816565b9150620032638262003c75565b602082019050919050565b60006200327d601e8362003816565b91506200328a8262003c9e565b602082019050919050565b6000620032a4602e8362003816565b9150620032b18262003cc7565b604082019050919050565b6000620032cb60208362003816565b9150620032d88262003d16565b602082019050919050565b6000620032f260178362003838565b9150620032ff8262003d3f565b601782019050919050565b60006200331960178362003816565b9150620033268262003d68565b602082019050919050565b60006200334060118362003838565b91506200334d8262003d91565b601182019050919050565b600062003367602f8362003816565b9150620033748262003dba565b604082019050919050565b6200338a81620039b2565b82525050565b6200339b81620039b2565b82525050565b620033ac81620039b2565b82525050565b6000620033bf82620032e3565b9150620033cd828562003136565b9150620033da8262003331565b9150620033e8828462003136565b91508190509392505050565b60006020820190506200340b600083018462002fc1565b92915050565b600060608201905062003428600083018662002fc1565b62003437602083018562002fc1565b62003446604083018462003390565b949350505050565b600060408201905062003465600083018562002fc1565b62003474602083018462003390565b9392505050565b60006101008201905062003493600083018462002fd9565b92915050565b60006020820190508181036000830152620034b581846200303c565b905092915050565b6000602082019050620034d46000830184620030a6565b92915050565b6000602082019050620034f16000830184620030b7565b92915050565b60006080820190506200350e6000830187620030ee565b6200351d602083018662002fd2565b6200352c6040830185620033a1565b81810360608301526200354081846200316d565b905095945050505050565b600060c082019050620035626000830189620030ee565b620035716020830188620033a1565b620035806040830187620030c8565b6200358f6060830186620030d9565b6200359e6080830185620030e7565b620035ad60a0830184620030e0565b979650505050505050565b60006020820190508181036000830152620035d48184620030f5565b905092915050565b60006020820190508181036000830152620035f781620031f9565b9050919050565b60006020820190508181036000830152620036198162003220565b9050919050565b600060208201905081810360008301526200363b8162003247565b9050919050565b600060208201905081810360008301526200365d816200326e565b9050919050565b600060208201905081810360008301526200367f8162003295565b9050919050565b60006020820190508181036000830152620036a181620032bc565b9050919050565b60006020820190508181036000830152620036c3816200330a565b9050919050565b60006020820190508181036000830152620036e58162003358565b9050919050565b600060208201905062003703600083018462003390565b92915050565b60006200371562003728565b905062003723828262003a93565b919050565b6000604051905090565b600067ffffffffffffffff82111562003750576200374f62003ba4565b5b602082029050602081019050919050565b600067ffffffffffffffff8211156200377f576200377e62003ba4565b5b602082029050602081019050919050565b6000819050919050565b6000819050602082019050919050565b60008190508160005260206000209050919050565b600060089050919050565b600081519050919050565b600081519050919050565b6000602082019050919050565b6000602082019050919050565b600081905092915050565b600082825260208201905092915050565b600082825260208201905092915050565b600082825260208201905092915050565b600081905092915050565b60006200385082620039b2565b91506200385d83620039b2565b9250827fffffffffffffffffffffffffffffffffffffffffffffffffffffffffffffffff0382111562003895576200389462003b17565b5b828201905092915050565b6000620038ad82620039b2565b9150620038ba83620039b2565b9250817fffffffffffffffffffffffffffffffffffffffffffffffffffffffffffffffff0483118215151615620038f657620038f562003b17565b5b828202905092915050565b60006200390e82620039b2565b91506200391b83620039b2565b92508282101562003931576200393062003b17565b5b828203905092915050565b6000620039498262003992565b9050919050565b60008115159050919050565b6000819050919050565b60007fffffffff0000000000000000000000000000000000000000000000000000000082169050919050565b600073ffffffffffffffffffffffffffffffffffffffff82169050919050565b6000819050919050565b6000620039c982620039d0565b9050919050565b6000620039dd82620039e4565b9050919050565b6000620039f18262003992565b9050919050565b60005b8381101562003a18578082015181840152602081019050620039fb565b8381111562003a28576000848401525b50505050565b600062003a3b82620039b2565b9150600082141562003a525762003a5162003b17565b5b600182039050919050565b6000600282049050600182168062003a7657607f821691505b6020821081141562003a8d5762003a8c62003b46565b5b50919050565b62003a9e8262003bec565b810181811067ffffffffffffffff8211171562003ac05762003abf62003ba4565b5b80604052505050565b600062003ad682620039b2565b91507fffffffffffffffffffffffffffffffffffffffffffffffffffffffffffffffff82141562003b0c5762003b0b62003b17565b5b600182019050919050565b7f4e487b7100000000000000000000000000000000000000000000000000000000600052601160045260246000fd5b7f4e487b7100000000000000000000000000000000000000000000000000000000600052602260045260246000fd5b7f4e487b7100000000000000000000000000000000000000000000000000000000600052603260045260246000fd5b7f4e487b7100000000000000000000000000000000000000000000000000000000600052604160045260246000fd5b600080fd5b600080fd5b600080fd5b600080fd5b600080fd5b6000601f19601f8301169050919050565b7f537472696e67733a20686578206c656e67746820696e73756666696369656e74600082015250565b7f4f776e61626c653a206e6577206f776e657220697320746865207a65726f206160008201527f6464726573730000000000000000000000000000000000000000000000000000602082015250565b7f43616e6e6f74207374616b652030000000000000000000000000000000000000600082015250565b7f6c696e657570206973206c6f636b656420666f7220746865207765656b210000600082015250565b7f496e697469616c697a61626c653a20636f6e747261637420697320616c72656160008201527f647920696e697469616c697a6564000000000000000000000000000000000000602082015250565b7f4f776e61626c653a2063616c6c6572206973206e6f7420746865206f776e6572600082015250565b7f416363657373436f6e74726f6c3a206163636f756e7420000000000000000000600082015250565b7f4c656167756520456e74727920697320436c6f73656421000000000000000000600082015250565b7f206973206d697373696e6720726f6c6520000000000000000000000000000000600082015250565b7f416363657373436f6e74726f6c3a2063616e206f6e6c792072656e6f756e636560008201527f20726f6c657320666f722073656c660000000000000000000000000000000000602082015250565b62003e14816200393c565b811462003e2057600080fd5b50565b62003e2e8162003950565b811462003e3a57600080fd5b50565b62003e48816200395c565b811462003e5457600080fd5b50565b62003e628162003966565b811462003e6e57600080fd5b50565b62003e7c81620039b2565b811462003e8857600080fd5b5056fe608060405234801561001057600080fd5b5061002d61002261003260201b60201c565b61003a60201b60201c565b6100fe565b600033905090565b60008060009054906101000a900473ffffffffffffffffffffffffffffffffffffffff169050816000806101000a81548173ffffffffffffffffffffffffffffffffffffffff021916908373ffffffffffffffffffffffffffffffffffffffff1602179055508173ffffffffffffffffffffffffffffffffffffffff168173ffffffffffffffffffffffffffffffffffffffff167f8be0079c531659141344cd1fd0a4f28419497f9722a3daafe3b4186f6b6457e060405160405180910390a35050565b610e928061010d6000396000f3fe608060405234801561001057600080fd5b50600436106100935760003560e01c80638da5cb5b116100665780638da5cb5b146101325780639b19251a14610150578063dc9a153514610180578063e2ec6ec31461019e578063f2fde38b146101ce57610093565b806324953eaa14610098578063286dd3f5146100c8578063715018a6146100f85780637b9417c814610102575b600080fd5b6100b260048036038101906100ad9190610a4a565b6101ea565b6040516100bf9190610b12565b60405180910390f35b6100e260048036038101906100dd9190610a1d565b6102d4565b6040516100ef9190610b12565b60405180910390f35b610100610457565b005b61011c60048036038101906101179190610a1d565b6104df565b6040516101299190610b12565b60405180910390f35b61013a610660565b6040516101479190610af7565b60405180910390f35b61016a60048036038101906101659190610a1d565b610689565b6040516101779190610b12565b60405180910390f35b6101886106a9565b6040516101959190610b12565b60405180910390f35b6101b860048036038101906101b39190610a4a565b6106bc565b6040516101c59190610b12565b60405180910390f35b6101e860048036038101906101e39190610a1d565b6107a6565b005b60006101f461089e565b73ffffffffffffffffffffffffffffffffffffffff16610212610660565b73ffffffffffffffffffffffffffffffffffffffff1614610268576040517f08c379a000000000000000000000000000000000000000000000000000000000815260040161025f90610b4d565b60405180910390fd5b60005b82518110156102ce5761029783828151811061028a57610289610d4a565b5b60200260200101516102d4565b156102bb576001600260008282546102af9190610c25565b92505081905550600191505b80806102c690610cd2565b91505061026b565b50919050565b60006102de61089e565b73ffffffffffffffffffffffffffffffffffffffff166102fc610660565b73ffffffffffffffffffffffffffffffffffffffff1614610352576040517f08c379a000000000000000000000000000000000000000000000000000000000815260040161034990610b4d565b60405180910390fd5b600160008373ffffffffffffffffffffffffffffffffffffffff1673ffffffffffffffffffffffffffffffffffffffff16815260200190815260200160002060009054906101000a900460ff1615610452576000600160008473ffffffffffffffffffffffffffffffffffffffff1673ffffffffffffffffffffffffffffffffffffffff16815260200190815260200160002060006101000a81548160ff0219169083151502179055507ff1abf01a1043b7c244d128e8595cf0c1d10743b022b03a02dffd8ca3bf729f5a8260405161042b9190610af7565b60405180910390a16001600260008282546104469190610c25565b92505081905550600190505b919050565b61045f61089e565b73ffffffffffffffffffffffffffffffffffffffff1661047d610660565b73ffffffffffffffffffffffffffffffffffffffff16146104d3576040517f08c379a00000000000000000000000000000000000000000000000000000000081526004016104ca90610b4d565b60405180910390fd5b6104dd60006108a6565b565b60006104e961089e565b73ffffffffffffffffffffffffffffffffffffffff16610507610660565b73ffffffffffffffffffffffffffffffffffffffff161461055d576040517f08c379a000000000000000000000000000000000000000000000000000000000815260040161055490610b4d565b60405180910390fd5b600160008373ffffffffffffffffffffffffffffffffffffffff1673ffffffffffffffffffffffffffffffffffffffff16815260200190815260200160002060009054906101000a900460ff1661065b5760018060008473ffffffffffffffffffffffffffffffffffffffff1673ffffffffffffffffffffffffffffffffffffffff16815260200190815260200160002060006101000a81548160ff0219169083151502179055507fd1bba68c128cc3f427e5831b3c6f99f480b6efa6b9e80c757768f6124158cc3f826040516106349190610af7565b60405180910390a160016002600082825461064f9190610bcf565b92505081905550600190505b919050565b60008060009054906101000a900473ffffffffffffffffffffffffffffffffffffffff16905090565b60016020528060005260406000206000915054906101000a900460ff1681565b600360009054906101000a900460ff1681565b60006106c661089e565b73ffffffffffffffffffffffffffffffffffffffff166106e4610660565b73ffffffffffffffffffffffffffffffffffffffff161461073a576040517f08c379a000000000000000000000000000000000000000000000000000000000815260040161073190610b4d565b60405180910390fd5b60005b82518110156107a05761076983828151811061075c5761075b610d4a565b5b60200260200101516104df565b1561078d576001600260008282546107819190610bcf565b92505081905550600191505b808061079890610cd2565b91505061073d565b50919050565b6107ae61089e565b73ffffffffffffffffffffffffffffffffffffffff166107cc610660565b73ffffffffffffffffffffffffffffffffffffffff1614610822576040517f08c379a000000000000000000000000000000000000000000000000000000000815260040161081990610b4d565b60405180910390fd5b600073ffffffffffffffffffffffffffffffffffffffff168173ffffffffffffffffffffffffffffffffffffffff161415610892576040517f08c379a000000000000000000000000000000000000000000000000000000000815260040161088990610b2d565b60405180910390fd5b61089b816108a6565b50565b600033905090565b60008060009054906101000a900473ffffffffffffffffffffffffffffffffffffffff169050816000806101000a81548173ffffffffffffffffffffffffffffffffffffffff021916908373ffffffffffffffffffffffffffffffffffffffff1602179055508173ffffffffffffffffffffffffffffffffffffffff168173ffffffffffffffffffffffffffffffffffffffff167f8be0079c531659141344cd1fd0a4f28419497f9722a3daafe3b4186f6b6457e060405160405180910390a35050565b600061097d61097884610b92565b610b6d565b905080838252602082019050828560208602820111156109a05761099f610dad565b5b60005b858110156109d057816109b688826109da565b8452602084019350602083019250506001810190506109a3565b5050509392505050565b6000813590506109e981610e45565b92915050565b600082601f830112610a0457610a03610da8565b5b8135610a1484826020860161096a565b91505092915050565b600060208284031215610a3357610a32610db7565b5b6000610a41848285016109da565b91505092915050565b600060208284031215610a6057610a5f610db7565b5b600082013567ffffffffffffffff811115610a7e57610a7d610db2565b5b610a8a848285016109ef565b91505092915050565b610a9c81610c59565b82525050565b610aab81610c6b565b82525050565b6000610abe602683610bbe565b9150610ac982610dcd565b604082019050919050565b6000610ae1602083610bbe565b9150610aec82610e1c565b602082019050919050565b6000602082019050610b0c6000830184610a93565b92915050565b6000602082019050610b276000830184610aa2565b92915050565b60006020820190508181036000830152610b4681610ab1565b9050919050565b60006020820190508181036000830152610b6681610ad4565b9050919050565b6000610b77610b88565b9050610b838282610ca1565b919050565b6000604051905090565b600067ffffffffffffffff821115610bad57610bac610d79565b5b602082029050602081019050919050565b600082825260208201905092915050565b6000610bda82610c97565b9150610be583610c97565b9250827fffffffffffffffffffffffffffffffffffffffffffffffffffffffffffffffff03821115610c1a57610c19610d1b565b5b828201905092915050565b6000610c3082610c97565b9150610c3b83610c97565b925082821015610c4e57610c4d610d1b565b5b828203905092915050565b6000610c6482610c77565b9050919050565b60008115159050919050565b600073ffffffffffffffffffffffffffffffffffffffff82169050919050565b6000819050919050565b610caa82610dbc565b810181811067ffffffffffffffff82111715610cc957610cc8610d79565b5b80604052505050565b6000610cdd82610c97565b91507fffffffffffffffffffffffffffffffffffffffffffffffffffffffffffffffff821415610d1057610d0f610d1b565b5b600182019050919050565b7f4e487b7100000000000000000000000000000000000000000000000000000000600052601160045260246000fd5b7f4e487b7100000000000000000000000000000000000000000000000000000000600052603260045260246000fd5b7f4e487b7100000000000000000000000000000000000000000000000000000000600052604160045260246000fd5b600080fd5b600080fd5b600080fd5b600080fd5b6000601f19601f8301169050919050565b7f4f776e61626c653a206e6577206f776e657220697320746865207a65726f206160008201527f6464726573730000000000000000000000000000000000000000000000000000602082015250565b7f4f776e61626c653a2063616c6c6572206973206e6f7420746865206f776e6572600082015250565b610e4e81610c59565b8114610e5957600080fd5b5056fea2646970667358221220070224275ad0b13d0a847fbeb4a423ae740dee42968a8d236c8eedaef3b3cc5764736f6c63430008070033746f6f206d616e7920757365727320696e206c656167756520746f20616464206e65772075736572a264697066735822122091d7b5bab62f928010604e3595e839d7b2b1277a869d04008d0ee42913d90a1864736f6c63430008070033",
  "linkReferences": {
    "contracts/MOBALogicLibrary.sol": {
      "MOBALogicLibrary": [
        {
          "length": 20,
          "start": 2630
        },
        {
          "length": 20,
          "start": 6579
        }
      ]
    }
  },
  "deployedLinkReferences": {
    "contracts/MOBALogicLibrary.sol": {
      "MOBALogicLibrary": [
        {
          "length": 20,
          "start": 2353
        },
        {
          "length": 20,
          "start": 6302
        }
      ]
    }
  }
}