{
  "_format": "hh-sol-artifact-1",
  "contractName": "LeagueOfLegendsLogic",
  "sourceName": "contracts/LeagueOfLegendsLogic.sol",
  "abi": [
    {
      "anonymous": false,
      "inputs": [
        {
          "indexed": true,
          "internalType": "address",
          "name": "previousOwner",
          "type": "address"
        },
        {
          "indexed": true,
          "internalType": "address",
          "name": "newOwner",
          "type": "address"
        }
      ],
      "name": "OwnershipTransferred",
      "type": "event"
    },
    {
      "anonymous": false,
      "inputs": [
        {
          "indexed": false,
          "internalType": "address",
          "name": "sender",
          "type": "address"
        },
        {
          "indexed": false,
          "internalType": "uint256",
          "name": "amount",
          "type": "uint256"
        }
      ],
      "name": "Staked",
      "type": "event"
    },
    {
      "anonymous": false,
      "inputs": [
        {
          "indexed": false,
          "internalType": "address",
          "name": "addr",
          "type": "address"
        }
      ],
      "name": "WhitelistedAddressAdded",
      "type": "event"
    },
    {
      "anonymous": false,
      "inputs": [
        {
          "indexed": false,
          "internalType": "address",
          "name": "addr",
          "type": "address"
        }
      ],
      "name": "WhitelistedAddressRemoved",
      "type": "event"
    },
    {
      "anonymous": false,
      "inputs": [
        {
          "indexed": false,
          "internalType": "address",
          "name": "sender",
          "type": "address"
        },
        {
          "indexed": false,
          "internalType": "address",
          "name": "contractAddress",
          "type": "address"
        }
      ],
      "name": "testUSDCDeployed",
      "type": "event"
    },
    {
      "inputs": [
        {
          "internalType": "address",
          "name": "addr",
          "type": "address"
        }
      ],
      "name": "addAddressToWhitelist",
      "outputs": [
        {
          "internalType": "bool",
          "name": "success",
          "type": "bool"
        }
      ],
      "stateMutability": "nonpayable",
      "type": "function"
    },
    {
      "inputs": [
        {
          "internalType": "address[]",
          "name": "addrs",
          "type": "address[]"
        }
      ],
      "name": "addAddressesToWhitelist",
      "outputs": [
        {
          "internalType": "bool",
          "name": "success",
          "type": "bool"
        }
      ],
      "stateMutability": "nonpayable",
      "type": "function"
    },
    {
      "inputs": [
        {
          "internalType": "address",
          "name": "user",
          "type": "address"
        }
      ],
      "name": "addUserToLeague",
      "outputs": [],
      "stateMutability": "nonpayable",
      "type": "function"
    },
    {
      "inputs": [
        {
          "internalType": "address",
          "name": "_userToAdd",
          "type": "address"
        }
      ],
      "name": "addUserToWhitelist",
      "outputs": [],
      "stateMutability": "nonpayable",
      "type": "function"
    },
    {
      "inputs": [],
      "name": "admin",
      "outputs": [
        {
          "internalType": "address",
          "name": "",
          "type": "address"
        }
      ],
      "stateMutability": "view",
      "type": "function"
    },
    {
      "inputs": [
        {
          "internalType": "uint256",
          "name": "currentWeekNum",
          "type": "uint256"
        }
      ],
      "name": "evaluateWeek",
      "outputs": [],
      "stateMutability": "nonpayable",
      "type": "function"
    },
    {
      "inputs": [],
      "name": "getNumWhitelisted",
      "outputs": [
        {
          "internalType": "uint256",
          "name": "",
          "type": "uint256"
        }
      ],
      "stateMutability": "view",
      "type": "function"
    },
    {
      "inputs": [
        {
          "internalType": "address",
          "name": "_user",
          "type": "address"
        }
      ],
      "name": "getUserIsWhitelisted",
      "outputs": [
        {
          "internalType": "bool",
          "name": "",
          "type": "bool"
        }
      ],
      "stateMutability": "view",
      "type": "function"
    },
    {
      "inputs": [],
      "name": "getUserRecord",
      "outputs": [
        {
          "internalType": "uint256[8]",
          "name": "",
          "type": "uint256[8]"
        }
      ],
      "stateMutability": "view",
      "type": "function"
    },
    {
      "inputs": [],
      "name": "getUserTotalPts",
      "outputs": [
        {
          "internalType": "uint256",
          "name": "",
          "type": "uint256"
        }
      ],
      "stateMutability": "view",
      "type": "function"
    },
    {
      "inputs": [],
      "name": "getUserUSDCBalance",
      "outputs": [
        {
          "internalType": "uint256",
          "name": "",
          "type": "uint256"
        }
      ],
      "stateMutability": "view",
      "type": "function"
    },
    {
      "inputs": [],
      "name": "getUsersLength",
      "outputs": [
        {
          "internalType": "uint256",
          "name": "",
          "type": "uint256"
        }
      ],
      "stateMutability": "view",
      "type": "function"
    },
    {
      "inputs": [
        {
          "internalType": "address",
          "name": "",
          "type": "address"
        }
      ],
      "name": "inLeague",
      "outputs": [
        {
          "internalType": "bool",
          "name": "",
          "type": "bool"
        }
      ],
      "stateMutability": "view",
      "type": "function"
    },
    {
      "inputs": [
        {
          "internalType": "string",
          "name": "_name",
          "type": "string"
        },
        {
          "internalType": "uint256",
          "name": "_stakeAmount",
          "type": "uint256"
        },
        {
          "internalType": "bool",
          "name": "_isPublic",
          "type": "bool"
        },
        {
          "internalType": "address",
          "name": "athletesDataStorageAddress",
          "type": "address"
        },
        {
          "internalType": "address",
          "name": "_admin",
          "type": "address"
        },
        {
          "internalType": "address",
          "name": "_polygonUSDCAddress",
          "type": "address"
        },
        {
          "internalType": "address",
          "name": "_rinkebyUSDCAddress",
          "type": "address"
        },
        {
          "internalType": "address",
          "name": "_testUSDCAddress",
          "type": "address"
        },
        {
          "internalType": "address",
          "name": "leagueMakerContractAddress",
          "type": "address"
        }
      ],
      "name": "initialize",
      "outputs": [],
      "stateMutability": "nonpayable",
      "type": "function"
    },
    {
      "inputs": [],
      "name": "isPublic",
      "outputs": [
        {
          "internalType": "bool",
          "name": "",
          "type": "bool"
        }
      ],
      "stateMutability": "view",
      "type": "function"
    },
    {
      "inputs": [],
      "name": "joinLeague",
      "outputs": [],
      "stateMutability": "nonpayable",
      "type": "function"
    },
    {
      "inputs": [
        {
          "internalType": "uint256",
          "name": "",
          "type": "uint256"
        }
      ],
      "name": "leagueMembers",
      "outputs": [
        {
          "internalType": "address",
          "name": "",
          "type": "address"
        }
      ],
      "stateMutability": "view",
      "type": "function"
    },
    {
      "inputs": [],
      "name": "leagueName",
      "outputs": [
        {
          "internalType": "string",
          "name": "",
          "type": "string"
        }
      ],
      "stateMutability": "view",
      "type": "function"
    },
    {
      "inputs": [],
      "name": "lockLineup",
      "outputs": [],
      "stateMutability": "nonpayable",
      "type": "function"
    },
    {
      "inputs": [],
      "name": "numWeeks",
      "outputs": [
        {
          "internalType": "uint256",
          "name": "",
          "type": "uint256"
        }
      ],
      "stateMutability": "view",
      "type": "function"
    },
    {
      "inputs": [],
      "name": "onLeagueEnd",
      "outputs": [],
      "stateMutability": "nonpayable",
      "type": "function"
    },
    {
      "inputs": [],
      "name": "owner",
      "outputs": [
        {
          "internalType": "address",
          "name": "",
          "type": "address"
        }
      ],
      "stateMutability": "view",
      "type": "function"
    },
    {
      "inputs": [],
      "name": "polygonUSDCAddress",
      "outputs": [
        {
          "internalType": "address",
          "name": "",
          "type": "address"
        }
      ],
      "stateMutability": "view",
      "type": "function"
    },
    {
      "inputs": [
        {
          "internalType": "address",
          "name": "addr",
          "type": "address"
        }
      ],
      "name": "removeAddressFromWhitelist",
      "outputs": [
        {
          "internalType": "bool",
          "name": "success",
          "type": "bool"
        }
      ],
      "stateMutability": "nonpayable",
      "type": "function"
    },
    {
      "inputs": [
        {
          "internalType": "address[]",
          "name": "addrs",
          "type": "address[]"
        }
      ],
      "name": "removeAddressesFromWhitelist",
      "outputs": [
        {
          "internalType": "bool",
          "name": "success",
          "type": "bool"
        }
      ],
      "stateMutability": "nonpayable",
      "type": "function"
    },
    {
      "inputs": [
        {
          "internalType": "address",
          "name": "_userToRemove",
          "type": "address"
        }
      ],
      "name": "removeFromWhitelist",
      "outputs": [],
      "stateMutability": "nonpayable",
      "type": "function"
    },
    {
      "inputs": [],
      "name": "renounceOwnership",
      "outputs": [],
      "stateMutability": "nonpayable",
      "type": "function"
    },
    {
      "inputs": [],
      "name": "rinkebyUSDCAddress",
      "outputs": [
        {
          "internalType": "address",
          "name": "",
          "type": "address"
        }
      ],
      "stateMutability": "view",
      "type": "function"
    },
    {
      "inputs": [],
      "name": "setLeagueEntryIsClosed",
      "outputs": [],
      "stateMutability": "nonpayable",
      "type": "function"
    },
    {
      "inputs": [],
      "name": "setLeagueSchedule",
      "outputs": [],
      "stateMutability": "nonpayable",
      "type": "function"
    },
    {
      "inputs": [
        {
          "internalType": "uint256[]",
          "name": "athleteIds",
          "type": "uint256[]"
        }
      ],
      "name": "setLineup",
      "outputs": [],
      "stateMutability": "nonpayable",
      "type": "function"
    },
    {
      "inputs": [],
      "name": "stakeAmount",
      "outputs": [
        {
          "internalType": "uint256",
          "name": "",
          "type": "uint256"
        }
      ],
      "stateMutability": "view",
      "type": "function"
    },
    {
      "inputs": [],
      "name": "testUSDC",
      "outputs": [
        {
          "internalType": "contract IERC20",
          "name": "",
          "type": "address"
        }
      ],
      "stateMutability": "view",
      "type": "function"
    },
    {
      "inputs": [
        {
          "internalType": "address",
          "name": "newOwner",
          "type": "address"
        }
      ],
      "name": "transferOwnership",
      "outputs": [],
      "stateMutability": "nonpayable",
      "type": "function"
    },
    {
      "inputs": [],
      "name": "unlockLineup",
      "outputs": [],
      "stateMutability": "nonpayable",
      "type": "function"
    },
    {
      "inputs": [
        {
          "internalType": "address",
          "name": "",
          "type": "address"
        },
        {
          "internalType": "uint256",
          "name": "",
          "type": "uint256"
        }
      ],
      "name": "userToLineup",
      "outputs": [
        {
          "internalType": "uint256",
          "name": "",
          "type": "uint256"
        }
      ],
      "stateMutability": "view",
      "type": "function"
    },
    {
      "inputs": [
        {
          "internalType": "address",
          "name": "",
          "type": "address"
        },
        {
          "internalType": "uint256",
          "name": "",
          "type": "uint256"
        }
      ],
      "name": "userToRecord",
      "outputs": [
        {
          "internalType": "uint256",
          "name": "",
          "type": "uint256"
        }
      ],
      "stateMutability": "view",
      "type": "function"
    },
    {
      "inputs": [
        {
          "internalType": "address",
          "name": "",
          "type": "address"
        }
      ],
      "name": "userToTotalWins",
      "outputs": [
        {
          "internalType": "uint256",
          "name": "",
          "type": "uint256"
        }
      ],
      "stateMutability": "view",
      "type": "function"
    },
    {
      "inputs": [
        {
          "internalType": "address",
          "name": "",
          "type": "address"
        }
      ],
      "name": "whitelist",
      "outputs": [
        {
          "internalType": "bool",
          "name": "",
          "type": "bool"
        }
      ],
      "stateMutability": "view",
      "type": "function"
    }
  ],
  "bytecode": "0x60806040523480156200001157600080fd5b5062000032620000266200004060201b60201c565b6200004860201b60201c565b60016004819055506200010d565b600033905090565b60008060029054906101000a900473ffffffffffffffffffffffffffffffffffffffff16905081600060026101000a81548173ffffffffffffffffffffffffffffffffffffffff021916908373ffffffffffffffffffffffffffffffffffffffff1602179055508173ffffffffffffffffffffffffffffffffffffffff168173ffffffffffffffffffffffffffffffffffffffff167f8be0079c531659141344cd1fd0a4f28419497f9722a3daafe3b4186f6b6457e060405160405180910390a35050565b6153e3806200011d6000396000f3fe60806040523480156200001157600080fd5b5060043610620002735760003560e01c80638ab1d6811162000159578063cff5600311620000c9578063edcbe96c1162000087578063edcbe96c1462000720578063f2fde38b1462000756578063f612121a1462000776578063f851a4401462000796578063f881604514620007b85762000273565b8063cff560031462000650578063dc9a15351462000686578063e2ec6ec314620006a8578063e35a899914620006de578063e4c9066b14620007145762000273565b80639b19251a11620001175780639b19251a14620005d65780639f2d5481146200060c578063a2bc091a146200062c578063c8be3b5b1462000638578063c99fea9414620006445762000273565b80638ab1d681146200051c5780638da5cb5b146200053c5780639122ce6d146200055e57806393f3706c1462000594578063989db65914620005b65762000273565b806344eaa84e11620001f5578063715018a611620001b3578063715018a61462000476578063747b805014620004825780637b9417c814620004a25780637eed33f114620004d8578063841abf6e14620004fa5762000273565b806344eaa84e14620003cc578063595b1a3e14620003ee5780635fcc6987146200041057806360c7dc4714620004325780636bdc44df14620004545762000273565b80630c6f795911620002435780630c6f795914620002e85780631d803e00146200031e57806324953eaa146200032a578063267175db1462000360578063286dd3f514620003965762000273565b8062b2476f1462000278578063022e35e6146200029a5780630655465a14620002bc578063087e18a714620002c8575b600080fd5b62000282620007da565b60405162000291919062003787565b60405180910390f35b620002a462000800565b604051620002b3919062003849565b60405180910390f35b620002c662000826565b005b620002e66004803603810190620002e09190620030f4565b620008de565b005b62000306600480360381019062000300919062003126565b62000a62565b60405162000315919062003b05565b60405180910390f35b6200032862000a8b565b005b6200034860048036038101906200034291906200316d565b62000dbc565b6040516200035791906200382c565b60405180910390f35b6200037e600480360381019062000378919062003344565b62000eb9565b6040516200038d919062003787565b60405180910390f35b620003b46004803603810190620003ae9190620030f4565b62000ef9565b604051620003c391906200382c565b60405180910390f35b620003d662001088565b604051620003e5919062003b05565b60405180910390f35b620003f862001092565b60405162000407919062003b05565b60405180910390f35b6200041a6200109f565b60405162000429919062003b05565b60405180910390f35b6200043c620011ae565b6040516200044b919062003b05565b60405180910390f35b6200045e620011b4565b6040516200046d919062003b05565b60405180910390f35b62000480620011fb565b005b620004a060048036038101906200049a9190620030f4565b6200128c565b005b620004c06004803603810190620004ba9190620030f4565b620013d6565b604051620004cf91906200382c565b60405180910390f35b620004e262001563565b604051620004f1919062003b05565b60405180910390f35b6200050462001569565b60405162000513919062003927565b60405180910390f35b6200053a6004803603810190620005349190620030f4565b620015ff565b005b620005466200179c565b60405162000555919062003787565b60405180910390f35b6200057c6004803603810190620005769190620030f4565b620017c5565b6040516200058b91906200382c565b60405180910390f35b6200059e620017e5565b604051620005ad919062003787565b60405180910390f35b620005d46004803603810190620005ce919062003241565b6200180b565b005b620005f46004803603810190620005ee9190620030f4565b62001c62565b6040516200060391906200382c565b60405180910390f35b6200062a600480360381019062000624919062003344565b62001c82565b005b6200063662001da3565b005b6200064262001e43565b005b6200064e62001ee3565b005b6200066e600480360381019062000668919062003126565b62002371565b6040516200067d919062003b05565b60405180910390f35b62000690620023a3565b6040516200069f91906200382c565b60405180910390f35b620006c66004803603810190620006c091906200316d565b620023b6565b604051620006d591906200382c565b60405180910390f35b620006fc6004803603810190620006f69190620030f4565b620024b3565b6040516200070b91906200382c565b60405180910390f35b6200071e62002509565b005b6200073e6004803603810190620007389190620030f4565b620025a9565b6040516200074d919062003b05565b60405180910390f35b6200077460048036038101906200076e9190620030f4565b620025c1565b005b6200079460048036038101906200078e9190620031be565b620026c5565b005b620007a062002b18565b604051620007af919062003787565b60405180910390f35b620007c262002b3e565b604051620007d191906200380e565b60405180910390f35b601260009054906101000a900473ffffffffffffffffffffffffffffffffffffffff1681565b601660009054906101000a900473ffffffffffffffffffffffffffffffffffffffff1681565b620008666040518060400160405280601081526020017f73657474696e67207363686564756c650000000000000000000000000000000081525062002bca565b73__$36fdb4e0c2cb91f3ceca5ea81b025328f3$__63d2c232b56010600f60065460056040518563ffffffff1660e01b8152600401620008aa949392919062003866565b60006040518083038186803b158015620008c357600080fd5b505af4158015620008d8573d6000803e3d6000fd5b50505050565b600960149054906101000a900460ff161562000931576040517f08c379a0000000000000000000000000000000000000000000000000000000008152600401620009289062003ae3565b60405180910390fd5b6008600f80549050101562000a3a57600f819080600181540180825580915050600190039060005260206000200160009091909190916101000a81548173ffffffffffffffffffffffffffffffffffffffff021916908373ffffffffffffffffffffffffffffffffffffffff160217905550601560009054906101000a900473ffffffffffffffffffffffffffffffffffffffff1673ffffffffffffffffffffffffffffffffffffffff1663771bd4ce826040518263ffffffff1660e01b815260040162000a00919062003787565b600060405180830381600087803b15801562000a1b57600080fd5b505af115801562000a30573d6000803e3d6000fd5b5050505062000a5f565b62000a5e604051806060016040528060298152602001620053856029913962002bca565b5b50565b600b602052816000526040600020816008811062000a7f57600080fd5b01600091509150505481565b62000a9562002c67565b73ffffffffffffffffffffffffffffffffffffffff1662000ab56200179c565b73ffffffffffffffffffffffffffffffffffffffff161462000b0e576040517f08c379a000000000000000000000000000000000000000000000000000000000815260040162000b059062003a39565b60405180910390fd5b6002600454141562000b57576040517f08c379a000000000000000000000000000000000000000000000000000000000815260040162000b4e9062003ac1565b60405180910390fd5b60026004819055506000600f8054905060075462000b76919062003c75565b90506000600f60008154811062000b925762000b9162003f28565b5b9060005260206000200160009054906101000a900473ffffffffffffffffffffffffffffffffffffffff1690506000600190505b600f8054905081101562000cf757600a60008373ffffffffffffffffffffffffffffffffffffffff1673ffffffffffffffffffffffffffffffffffffffff16815260200190815260200160002054600a6000600f848154811062000c2f5762000c2e62003f28565b5b9060005260206000200160009054906101000a900473ffffffffffffffffffffffffffffffffffffffff1673ffffffffffffffffffffffffffffffffffffffff1673ffffffffffffffffffffffffffffffffffffffff16815260200190815260200160002054111562000ce157600f818154811062000cb35762000cb262003f28565b5b9060005260206000200160009054906101000a900473ffffffffffffffffffffffffffffffffffffffff1691505b808062000cee9062003e7c565b91505062000bc6565b50601660009054906101000a900473ffffffffffffffffffffffffffffffffffffffff1673ffffffffffffffffffffffffffffffffffffffff166323b872dd3083856040518463ffffffff1660e01b815260040162000d5993929190620037a4565b602060405180830381600087803b15801562000d7457600080fd5b505af115801562000d89573d6000803e3d6000fd5b505050506040513d601f19601f8201168201806040525081019062000daf91906200320f565b5050506001600481905550565b600062000dc862002c67565b73ffffffffffffffffffffffffffffffffffffffff1662000de86200179c565b73ffffffffffffffffffffffffffffffffffffffff161462000e41576040517f08c379a000000000000000000000000000000000000000000000000000000000815260040162000e389062003a39565b60405180910390fd5b60005b825181101562000eb35762000e7683828151811062000e685762000e6762003f28565b5b602002602001015162000ef9565b1562000e9d5760016002600082825462000e91919062003cd6565b92505081905550600191505b808062000eaa9062003e7c565b91505062000e44565b50919050565b600f818154811062000eca57600080fd5b906000526020600020016000915054906101000a900473ffffffffffffffffffffffffffffffffffffffff1681565b600062000f0562002c67565b73ffffffffffffffffffffffffffffffffffffffff1662000f256200179c565b73ffffffffffffffffffffffffffffffffffffffff161462000f7e576040517f08c379a000000000000000000000000000000000000000000000000000000000815260040162000f759062003a39565b60405180910390fd5b600160008373ffffffffffffffffffffffffffffffffffffffff1673ffffffffffffffffffffffffffffffffffffffff16815260200190815260200160002060009054906101000a900460ff161562001083576000600160008473ffffffffffffffffffffffffffffffffffffffff1673ffffffffffffffffffffffffffffffffffffffff16815260200190815260200160002060006101000a81548160ff0219169083151502179055507ff1abf01a1043b7c244d128e8595cf0c1d10743b022b03a02dffd8ca3bf729f5a826040516200105a919062003787565b60405180910390a160016002600082825462001077919062003cd6565b92505081905550600190505b919050565b6000600254905090565b6000600f80549050905090565b6000600e60003373ffffffffffffffffffffffffffffffffffffffff1673ffffffffffffffffffffffffffffffffffffffff16815260200190815260200160002060009054906101000a900460ff16620010f857600080fd5b601660009054906101000a900473ffffffffffffffffffffffffffffffffffffffff1673ffffffffffffffffffffffffffffffffffffffff166370a08231336040518263ffffffff1660e01b815260040162001155919062003787565b60206040518083038186803b1580156200116e57600080fd5b505afa15801562001183573d6000803e3d6000fd5b505050506040513d601f19601f82011682018060405250810190620011a9919062003376565b905090565b60075481565b6000600a60003373ffffffffffffffffffffffffffffffffffffffff1673ffffffffffffffffffffffffffffffffffffffff16815260200190815260200160002054905090565b6200120562002c67565b73ffffffffffffffffffffffffffffffffffffffff16620012256200179c565b73ffffffffffffffffffffffffffffffffffffffff16146200127e576040517f08c379a0000000000000000000000000000000000000000000000000000000008152600401620012759062003a39565b60405180910390fd5b6200128a600062002c6f565b565b600860009054906101000a900473ffffffffffffffffffffffffffffffffffffffff1673ffffffffffffffffffffffffffffffffffffffff163373ffffffffffffffffffffffffffffffffffffffff16146200131f576040517f08c379a0000000000000000000000000000000000000000000000000000000008152600401620013169062003a7d565b60405180910390fd5b601460009054906101000a900473ffffffffffffffffffffffffffffffffffffffff1673ffffffffffffffffffffffffffffffffffffffff16637b9417c8826040518263ffffffff1660e01b81526004016200137c919062003787565b602060405180830381600087803b1580156200139757600080fd5b505af1158015620013ac573d6000803e3d6000fd5b505050506040513d601f19601f82011682018060405250810190620013d291906200320f565b5050565b6000620013e262002c67565b73ffffffffffffffffffffffffffffffffffffffff16620014026200179c565b73ffffffffffffffffffffffffffffffffffffffff16146200145b576040517f08c379a0000000000000000000000000000000000000000000000000000000008152600401620014529062003a39565b60405180910390fd5b600160008373ffffffffffffffffffffffffffffffffffffffff1673ffffffffffffffffffffffffffffffffffffffff16815260200190815260200160002060009054906101000a900460ff166200155e5760018060008473ffffffffffffffffffffffffffffffffffffffff1673ffffffffffffffffffffffffffffffffffffffff16815260200190815260200160002060006101000a81548160ff0219169083151502179055507fd1bba68c128cc3f427e5831b3c6f99f480b6efa6b9e80c757768f6124158cc3f8260405162001535919062003787565b60405180910390a160016002600082825462001552919062003c18565b92505081905550600190505b919050565b60065481565b60058054620015789062003e10565b80601f0160208091040260200160405190810160405280929190818152602001828054620015a69062003e10565b8015620015f75780601f10620015cb57610100808354040283529160200191620015f7565b820191906000526020600020905b815481529060010190602001808311620015d957829003601f168201915b505050505081565b600860009054906101000a900473ffffffffffffffffffffffffffffffffffffffff1673ffffffffffffffffffffffffffffffffffffffff163373ffffffffffffffffffffffffffffffffffffffff161462001692576040517f08c379a0000000000000000000000000000000000000000000000000000000008152600401620016899062003a7d565b60405180910390fd5b600960149054906101000a900460ff1615620016e5576040517f08c379a0000000000000000000000000000000000000000000000000000000008152600401620016dc9062003a9f565b60405180910390fd5b601460009054906101000a900473ffffffffffffffffffffffffffffffffffffffff1673ffffffffffffffffffffffffffffffffffffffff1663286dd3f5826040518263ffffffff1660e01b815260040162001742919062003787565b602060405180830381600087803b1580156200175d57600080fd5b505af115801562001772573d6000803e3d6000fd5b505050506040513d601f19601f820116820180604052508101906200179891906200320f565b5050565b60008060029054906101000a900473ffffffffffffffffffffffffffffffffffffffff16905090565b600e6020528060005260406000206000915054906101000a900460ff1681565b601160009054906101000a900473ffffffffffffffffffffffffffffffffffffffff1681565b600060019054906101000a900460ff16620018355760008054906101000a900460ff161562001840565b6200183f62002d34565b5b62001882576040517f08c379a0000000000000000000000000000000000000000000000000000000008152600401620018799062003a17565b60405180910390fd5b60008060019054906101000a900460ff161590508015620018d3576001600060016101000a81548160ff02191690831515021790555060016000806101000a81548160ff0219169083151502179055505b8a8a60059190620018e692919062002d93565b5060086006819055506001600e60008873ffffffffffffffffffffffffffffffffffffffff1673ffffffffffffffffffffffffffffffffffffffff16815260200190815260200160002060006101000a81548160ff021916908315150217905550600f869080600181540180825580915050600190039060005260206000200160009091909190916101000a81548173ffffffffffffffffffffffffffffffffffffffff021916908373ffffffffffffffffffffffffffffffffffffffff16021790555085600860006101000a81548173ffffffffffffffffffffffffffffffffffffffff021916908373ffffffffffffffffffffffffffffffffffffffff1602179055508860078190555087600360006101000a81548160ff0219169083151502179055506000600960156101000a81548160ff0219169083151502179055506000600960146101000a81548160ff02191690831515021790555086601360006101000a81548173ffffffffffffffffffffffffffffffffffffffff021916908373ffffffffffffffffffffffffffffffffffffffff16021790555081601560006101000a81548173ffffffffffffffffffffffffffffffffffffffff021916908373ffffffffffffffffffffffffffffffffffffffff16021790555060405162001ad29062002e24565b604051809103906000f08015801562001aef573d6000803e3d6000fd5b50601460006101000a81548173ffffffffffffffffffffffffffffffffffffffff021916908373ffffffffffffffffffffffffffffffffffffffff16021790555084601160006101000a81548173ffffffffffffffffffffffffffffffffffffffff021916908373ffffffffffffffffffffffffffffffffffffffff16021790555083601260006101000a81548173ffffffffffffffffffffffffffffffffffffffff021916908373ffffffffffffffffffffffffffffffffffffffff16021790555082601660006101000a81548173ffffffffffffffffffffffffffffffffffffffff021916908373ffffffffffffffffffffffffffffffffffffffff16021790555062001c336040518060400160405280601281526020017f50726f787920696e697469616c697a656421000000000000000000000000000081525062002bca565b801562001c555760008060016101000a81548160ff0219169083151502179055505b5050505050505050505050565b60016020528060005260406000206000915054906101000a900460ff1681565b62001c8c62002c67565b73ffffffffffffffffffffffffffffffffffffffff1662001cac6200179c565b73ffffffffffffffffffffffffffffffffffffffff161462001d05576040517f08c379a000000000000000000000000000000000000000000000000000000000815260040162001cfc9062003a39565b60405180910390fd5b73__$36fdb4e0c2cb91f3ceca5ea81b025328f3$__63c406e268601083601360009054906101000a900473ffffffffffffffffffffffffffffffffffffffff16600b600a600d6040518763ffffffff1660e01b815260040162001d6e96959493929190620038ba565b60006040518083038186803b15801562001d8757600080fd5b505af415801562001d9c573d6000803e3d6000fd5b5050505050565b62001dad62002c67565b73ffffffffffffffffffffffffffffffffffffffff1662001dcd6200179c565b73ffffffffffffffffffffffffffffffffffffffff161462001e26576040517f08c379a000000000000000000000000000000000000000000000000000000000815260040162001e1d9062003a39565b60405180910390fd5b6000600960156101000a81548160ff021916908315150217905550565b62001e4d62002c67565b73ffffffffffffffffffffffffffffffffffffffff1662001e6d6200179c565b73ffffffffffffffffffffffffffffffffffffffff161462001ec6576040517f08c379a000000000000000000000000000000000000000000000000000000000815260040162001ebd9062003a39565b60405180910390fd5b6001600960156101000a81548160ff021916908315150217905550565b600160003373ffffffffffffffffffffffffffffffffffffffff1673ffffffffffffffffffffffffffffffffffffffff16815260200190815260200160002060009054906101000a900460ff168062001f485750600360009054906101000a900460ff165b62001f8a576040517f08c379a000000000000000000000000000000000000000000000000000000000815260040162001f8190620039b1565b60405180910390fd5b6002600454141562001fd3576040517f08c379a000000000000000000000000000000000000000000000000000000000815260040162001fca9062003ac1565b60405180910390fd5b6002600481905550600960149054906101000a900460ff16156200202e576040517f08c379a0000000000000000000000000000000000000000000000000000000008152600401620020259062003ae3565b60405180910390fd5b600e60003373ffffffffffffffffffffffffffffffffffffffff1673ffffffffffffffffffffffffffffffffffffffff16815260200190815260200160002060009054906101000a900460ff1615620020be576040517f08c379a0000000000000000000000000000000000000000000000000000000008152600401620020b5906200398f565b60405180910390fd5b600754601660009054906101000a900473ffffffffffffffffffffffffffffffffffffffff1673ffffffffffffffffffffffffffffffffffffffff166370a08231336040518263ffffffff1660e01b81526004016200211e919062003787565b60206040518083038186803b1580156200213757600080fd5b505afa1580156200214c573d6000803e3d6000fd5b505050506040513d601f19601f8201168201806040525081019062002172919062003376565b11620021b5576040517f08c379a0000000000000000000000000000000000000000000000000000000008152600401620021ac906200396d565b60405180910390fd5b6001600e60003373ffffffffffffffffffffffffffffffffffffffff1673ffffffffffffffffffffffffffffffffffffffff16815260200190815260200160002060006101000a81548160ff021916908315150217905550600f339080600181540180825580915050600190039060005260206000200160009091909190916101000a81548173ffffffffffffffffffffffffffffffffffffffff021916908373ffffffffffffffffffffffffffffffffffffffff160217905550601660009054906101000a900473ffffffffffffffffffffffffffffffffffffffff1673ffffffffffffffffffffffffffffffffffffffff166323b872dd33306007546040518463ffffffff1660e01b8152600401620022d393929190620037a4565b602060405180830381600087803b158015620022ee57600080fd5b505af115801562002303573d6000803e3d6000fd5b505050506040513d601f19601f820116820180604052508101906200232991906200320f565b507f9e71bc8eea02a63969f509818f2dafb9254532904319f9dbda79b67bd34a5f3d336007546040516200235f929190620037e1565b60405180910390a16001600481905550565b600d60205281600052604060002081815481106200238e57600080fd5b90600052602060002001600091509150505481565b600360009054906101000a900460ff1681565b6000620023c262002c67565b73ffffffffffffffffffffffffffffffffffffffff16620023e26200179c565b73ffffffffffffffffffffffffffffffffffffffff16146200243b576040517f08c379a0000000000000000000000000000000000000000000000000000000008152600401620024329062003a39565b60405180910390fd5b60005b8251811015620024ad576200247083828151811062002462576200246162003f28565b5b6020026020010151620013d6565b1562002497576001600260008282546200248b919062003c18565b92505081905550600191505b8080620024a49062003e7c565b9150506200243e565b50919050565b6000600160008373ffffffffffffffffffffffffffffffffffffffff1673ffffffffffffffffffffffffffffffffffffffff16815260200190815260200160002060009054906101000a900460ff169050919050565b6200251362002c67565b73ffffffffffffffffffffffffffffffffffffffff16620025336200179c565b73ffffffffffffffffffffffffffffffffffffffff16146200258c576040517f08c379a0000000000000000000000000000000000000000000000000000000008152600401620025839062003a39565b60405180910390fd5b6001600960146101000a81548160ff021916908315150217905550565b600a6020528060005260406000206000915090505481565b620025cb62002c67565b73ffffffffffffffffffffffffffffffffffffffff16620025eb6200179c565b73ffffffffffffffffffffffffffffffffffffffff161462002644576040517f08c379a00000000000000000000000000000000000000000000000000000000081526004016200263b9062003a39565b60405180910390fd5b600073ffffffffffffffffffffffffffffffffffffffff168173ffffffffffffffffffffffffffffffffffffffff161415620026b7576040517f08c379a0000000000000000000000000000000000000000000000000000000008152600401620026ae906200394b565b60405180910390fd5b620026c28162002c6f565b50565b600960159054906101000a900460ff161562002718576040517f08c379a00000000000000000000000000000000000000000000000000000000081526004016200270f90620039f5565b60405180910390fd5b600e60003373ffffffffffffffffffffffffffffffffffffffff1673ffffffffffffffffffffffffffffffffffffffff16815260200190815260200160002060009054906101000a900460ff16620027a7576040517f08c379a00000000000000000000000000000000000000000000000000000000081526004016200279e9062003a5b565b60405180910390fd5b6000600d60003373ffffffffffffffffffffffffffffffffffffffff1673ffffffffffffffffffffffffffffffffffffffff1681526020019081526020016000208054806020026020016040519081016040528092919081815260200182805480156200283457602002820191906000526020600020905b8154815260200190600101908083116200281f575b5050505050905060005b81518110156200292d5760006001600a6001846200285d919062003c18565b62002869919062003c75565b62002875919062003cd6565b90506000600a8362002888919062003c75565b905080858481518110620028a157620028a062003f28565b5b6020026020010151118015620028d3575081858481518110620028c957620028c862003f28565b5b6020026020010151105b62002915576040517f08c379a00000000000000000000000000000000000000000000000000000000081526004016200290c90620039d3565b60405180910390fd5b50508080620029249062003e7c565b9150506200283e565b506000601560009054906101000a900473ffffffffffffffffffffffffffffffffffffffff1673ffffffffffffffffffffffffffffffffffffffff166306575c896040518163ffffffff1660e01b815260040160206040518083038186803b1580156200299957600080fd5b505afa158015620029ae573d6000803e3d6000fd5b505050506040513d601f19601f82011682018060405250810190620029d4919062003376565b905060005b825181101562002a5757600c6000848381518110620029fd57620029fc62003f28565b5b60200260200101518152602001908152602001600020826008811062002a285762002a2762003f28565b5b01600081548092919062002a3c9062003de1565b9190505550808062002a4e9062003e7c565b915050620029d9565b5060005b835181101562002abc57600c6000828152602001908152602001600020826008811062002a8d5762002a8c62003f28565b5b01600081548092919062002aa19062003e7c565b9190505550808062002ab39062003e7c565b91505062002a5b565b5082600d60003373ffffffffffffffffffffffffffffffffffffffff1673ffffffffffffffffffffffffffffffffffffffff168152602001908152602001600020908051906020019062002b1292919062002e32565b50505050565b600860009054906101000a900473ffffffffffffffffffffffffffffffffffffffff1681565b62002b4862002e84565b600b60003373ffffffffffffffffffffffffffffffffffffffff1673ffffffffffffffffffffffffffffffffffffffff16815260200190815260200160002060088060200260405190810160405280929190826008801562002bc0576020028201915b81548152602001906001019080831162002bab575b5050505050905090565b62002c648160405160240162002be1919062003927565b6040516020818303038152906040527f41304fac000000000000000000000000000000000000000000000000000000007bffffffffffffffffffffffffffffffffffffffffffffffffffffffff19166020820180517bffffffffffffffffffffffffffffffffffffffffffffffffffffffff838183161783525050505062002d47565b50565b600033905090565b60008060029054906101000a900473ffffffffffffffffffffffffffffffffffffffff16905081600060026101000a81548173ffffffffffffffffffffffffffffffffffffffff021916908373ffffffffffffffffffffffffffffffffffffffff1602179055508173ffffffffffffffffffffffffffffffffffffffff168173ffffffffffffffffffffffffffffffffffffffff167f8be0079c531659141344cd1fd0a4f28419497f9722a3daafe3b4186f6b6457e060405160405180910390a35050565b600062002d413062002d70565b15905090565b60008151905060006a636f6e736f6c652e6c6f679050602083016000808483855afa5050505050565b6000808273ffffffffffffffffffffffffffffffffffffffff163b119050919050565b82805462002da19062003e10565b90600052602060002090601f01602090048101928262002dc5576000855562002e11565b82601f1062002de057803560ff191683800117855562002e11565b8280016001018555821562002e11579182015b8281111562002e1057823582559160200191906001019062002df3565b5b50905062002e20919062002ea7565b5090565b61108d80620042f883390190565b82805482825590600052602060002090810192821562002e71579160200282015b8281111562002e7057825182559160200191906001019062002e53565b5b50905062002e80919062002ea7565b5090565b604051806101000160405280600890602082028036833780820191505090505090565b5b8082111562002ec257600081600090555060010162002ea8565b5090565b600062002edd62002ed78462003b4b565b62003b22565b9050808382526020820190508285602086028201111562002f035762002f0262003f90565b5b60005b8581101562002f37578162002f1c888262002fbc565b84526020840193506020830192505060018101905062002f06565b5050509392505050565b600062002f5862002f528462003b7a565b62003b22565b9050808382526020820190508285602086028201111562002f7e5762002f7d62003f90565b5b60005b8581101562002fb2578162002f978882620030c6565b84526020840193506020830192505060018101905062002f81565b5050509392505050565b60008135905062002fcd81620042a9565b92915050565b600082601f83011262002feb5762002fea62003f8b565b5b813562002ffd84826020860162002ec6565b91505092915050565b600082601f8301126200301e576200301d62003f8b565b5b81356200303084826020860162002f41565b91505092915050565b6000813590506200304a81620042c3565b92915050565b6000815190506200306181620042c3565b92915050565b60008083601f84011262003080576200307f62003f8b565b5b8235905067ffffffffffffffff811115620030a0576200309f62003f86565b5b602083019150836001820283011115620030bf57620030be62003f90565b5b9250929050565b600081359050620030d781620042dd565b92915050565b600081519050620030ee81620042dd565b92915050565b6000602082840312156200310d576200310c62003f9a565b5b60006200311d8482850162002fbc565b91505092915050565b6000806040838503121562003140576200313f62003f9a565b5b6000620031508582860162002fbc565b92505060206200316385828601620030c6565b9150509250929050565b60006020828403121562003186576200318562003f9a565b5b600082013567ffffffffffffffff811115620031a757620031a662003f95565b5b620031b58482850162002fd3565b91505092915050565b600060208284031215620031d757620031d662003f9a565b5b600082013567ffffffffffffffff811115620031f857620031f762003f95565b5b620032068482850162003006565b91505092915050565b60006020828403121562003228576200322762003f9a565b5b6000620032388482850162003050565b91505092915050565b6000806000806000806000806000806101208b8d03121562003268576200326762003f9a565b5b60008b013567ffffffffffffffff81111562003289576200328862003f95565b5b620032978d828e0162003067565b9a509a50506020620032ac8d828e01620030c6565b9850506040620032bf8d828e0162003039565b9750506060620032d28d828e0162002fbc565b9650506080620032e58d828e0162002fbc565b95505060a0620032f88d828e0162002fbc565b94505060c06200330b8d828e0162002fbc565b93505060e06200331e8d828e0162002fbc565b925050610100620033328d828e0162002fbc565b9150509295989b9194979a5092959850565b6000602082840312156200335d576200335c62003f9a565b5b60006200336d84828501620030c6565b91505092915050565b6000602082840312156200338f576200338e62003f9a565b5b60006200339f84828501620030dd565b91505092915050565b6000620033b6838362003754565b60208301905092915050565b620033cd8162003d11565b82525050565b8082525050565b620033e58162003bc8565b620033f1818462003beb565b9250620033fe8262003ba9565b8060005b8381101562003435578151620034198782620033a8565b9650620034268362003bde565b92505060018101905062003402565b505050505050565b620034488162003d25565b82525050565b620034598162003d5b565b82525050565b6200346a8162003d6f565b82525050565b8082525050565b8082525050565b8082525050565b8082525050565b6000620034998262003bd3565b620034a5818562003bf6565b9350620034b781856020860162003dab565b620034c28162003f9f565b840191505092915050565b60008154620034dc8162003e10565b620034e8818662003c07565b94506001821660008114620035065760018114620035195762003550565b60ff198316865260208601935062003550565b620035248562003bb3565b60005b83811015620035485781548189015260018201915060208101905062003527565b808801955050505b50505092915050565b60006200356860268362003bf6565b9150620035758262003fb0565b604082019050919050565b60006200358f601d8362003bf6565b91506200359c8262003fff565b602082019050919050565b6000620035b660238362003bf6565b9150620035c38262004028565b604082019050919050565b6000620035dd601a8362003bf6565b9150620035ea8262004077565b602082019050919050565b60006200360460318362003bf6565b91506200361182620040a0565b604082019050919050565b60006200362b601e8362003bf6565b91506200363882620040ef565b602082019050919050565b600062003652602e8362003bf6565b91506200365f8262004118565b604082019050919050565b60006200367960208362003bf6565b9150620036868262004167565b602082019050919050565b6000620036a060158362003bf6565b9150620036ad8262004190565b602082019050919050565b6000620036c760178362003bf6565b9150620036d482620041b9565b602082019050919050565b6000620036ee60418362003bf6565b9150620036fb82620041e2565b606082019050919050565b600062003715601f8362003bf6565b9150620037228262004257565b602082019050919050565b60006200373c60178362003bf6565b9150620037498262004280565b602082019050919050565b6200375f8162003d51565b82525050565b620037708162003d51565b82525050565b620037818162003d51565b82525050565b60006020820190506200379e6000830184620033c2565b92915050565b6000606082019050620037bb6000830186620033c2565b620037ca6020830185620033c2565b620037d9604083018462003765565b949350505050565b6000604082019050620037f86000830185620033c2565b62003807602083018462003765565b9392505050565b600061010082019050620038266000830184620033da565b92915050565b60006020820190506200384360008301846200343d565b92915050565b60006020820190506200386060008301846200345f565b92915050565b60006080820190506200387d600083018762003485565b6200388c6020830186620033d3565b6200389b604083018562003776565b8181036060830152620038af8184620034cd565b905095945050505050565b600060c082019050620038d1600083018962003485565b620038e0602083018862003776565b620038ef60408301876200344e565b620038fe606083018662003470565b6200390d60808301856200347e565b6200391c60a083018462003477565b979650505050505050565b600060208201905081810360008301526200394381846200348c565b905092915050565b60006020820190508181036000830152620039668162003559565b9050919050565b60006020820190508181036000830152620039888162003580565b9050919050565b60006020820190508181036000830152620039aa81620035a7565b9050919050565b60006020820190508181036000830152620039cc81620035ce565b9050919050565b60006020820190508181036000830152620039ee81620035f5565b9050919050565b6000602082019050818103600083015262003a10816200361c565b9050919050565b6000602082019050818103600083015262003a328162003643565b9050919050565b6000602082019050818103600083015262003a54816200366a565b9050919050565b6000602082019050818103600083015262003a768162003691565b9050919050565b6000602082019050818103600083015262003a9881620036b8565b9050919050565b6000602082019050818103600083015262003aba81620036df565b9050919050565b6000602082019050818103600083015262003adc8162003706565b9050919050565b6000602082019050818103600083015262003afe816200372d565b9050919050565b600060208201905062003b1c600083018462003765565b92915050565b600062003b2e62003b41565b905062003b3c828262003e46565b919050565b6000604051905090565b600067ffffffffffffffff82111562003b695762003b6862003f57565b5b602082029050602081019050919050565b600067ffffffffffffffff82111562003b985762003b9762003f57565b5b602082029050602081019050919050565b6000819050919050565b60008190508160005260206000209050919050565b600060089050919050565b600081519050919050565b6000602082019050919050565b600081905092915050565b600082825260208201905092915050565b600082825260208201905092915050565b600062003c258262003d51565b915062003c328362003d51565b9250827fffffffffffffffffffffffffffffffffffffffffffffffffffffffffffffffff0382111562003c6a5762003c6962003eca565b5b828201905092915050565b600062003c828262003d51565b915062003c8f8362003d51565b9250817fffffffffffffffffffffffffffffffffffffffffffffffffffffffffffffffff048311821515161562003ccb5762003cca62003eca565b5b828202905092915050565b600062003ce38262003d51565b915062003cf08362003d51565b92508282101562003d065762003d0562003eca565b5b828203905092915050565b600062003d1e8262003d31565b9050919050565b60008115159050919050565b600073ffffffffffffffffffffffffffffffffffffffff82169050919050565b6000819050919050565b600062003d688262003d83565b9050919050565b600062003d7c8262003d83565b9050919050565b600062003d908262003d97565b9050919050565b600062003da48262003d31565b9050919050565b60005b8381101562003dcb57808201518184015260208101905062003dae565b8381111562003ddb576000848401525b50505050565b600062003dee8262003d51565b9150600082141562003e055762003e0462003eca565b5b600182039050919050565b6000600282049050600182168062003e2957607f821691505b6020821081141562003e405762003e3f62003ef9565b5b50919050565b62003e518262003f9f565b810181811067ffffffffffffffff8211171562003e735762003e7262003f57565b5b80604052505050565b600062003e898262003d51565b91507fffffffffffffffffffffffffffffffffffffffffffffffffffffffffffffffff82141562003ebf5762003ebe62003eca565b5b600182019050919050565b7f4e487b7100000000000000000000000000000000000000000000000000000000600052601160045260246000fd5b7f4e487b7100000000000000000000000000000000000000000000000000000000600052602260045260246000fd5b7f4e487b7100000000000000000000000000000000000000000000000000000000600052603260045260246000fd5b7f4e487b7100000000000000000000000000000000000000000000000000000000600052604160045260246000fd5b600080fd5b600080fd5b600080fd5b600080fd5b600080fd5b6000601f19601f8301169050919050565b7f4f776e61626c653a206e6577206f776e657220697320746865207a65726f206160008201527f6464726573730000000000000000000000000000000000000000000000000000602082015250565b7f496e737566666963656e742066756e647320666f72207374616b696e67000000600082015250565b7f596f75206861766520616c7265616479206a6f696e65642074686973206c656160008201527f6775650000000000000000000000000000000000000000000000000000000000602082015250565b7f55736572206973206e6f742077686974656c6973746564203a28000000000000600082015250565b7f596f75206172652073657474696e6720616e206174686c65746520696e20746860008201527f652077726f6e6720706f736974696f6e21000000000000000000000000000000602082015250565b7f6c696e657570206973206c6f636b656420666f7220746865207765656b210000600082015250565b7f496e697469616c697a61626c653a20636f6e747261637420697320616c72656160008201527f647920696e697469616c697a6564000000000000000000000000000000000000602082015250565b7f4f776e61626c653a2063616c6c6572206973206e6f7420746865206f776e6572600082015250565b7f75736572206973206e6f7420696e204c65616775650000000000000000000000600082015250565b7f43616c6c6572206973206e6f74207468652061646d696e000000000000000000600082015250565b7f4e6f626f64792063616e20656e7465722f6578697420746865206c656167756560008201527f20616e796d6f72652e2054686520736561736f6e20686173207374617274656460208201527f2100000000000000000000000000000000000000000000000000000000000000604082015250565b7f5265656e7472616e637947756172643a207265656e7472616e742063616c6c00600082015250565b7f4c656167756520456e74727920697320436c6f73656421000000000000000000600082015250565b620042b48162003d11565b8114620042c057600080fd5b50565b620042ce8162003d25565b8114620042da57600080fd5b50565b620042e88162003d51565b8114620042f457600080fd5b5056fe608060405234801561001057600080fd5b5061002d61002261003260201b60201c565b61003a60201b60201c565b6100fe565b600033905090565b60008060009054906101000a900473ffffffffffffffffffffffffffffffffffffffff169050816000806101000a81548173ffffffffffffffffffffffffffffffffffffffff021916908373ffffffffffffffffffffffffffffffffffffffff1602179055508173ffffffffffffffffffffffffffffffffffffffff168173ffffffffffffffffffffffffffffffffffffffff167f8be0079c531659141344cd1fd0a4f28419497f9722a3daafe3b4186f6b6457e060405160405180910390a35050565b610f808061010d6000396000f3fe608060405234801561001057600080fd5b50600436106100a95760003560e01c80638da5cb5b116100715780638da5cb5b146101665780639b19251a14610184578063dc9a1535146101b4578063e2ec6ec3146101d2578063e35a899914610202578063f2fde38b14610232576100a9565b806324953eaa146100ae578063286dd3f5146100de57806344eaa84e1461010e578063715018a61461012c5780637b9417c814610136575b600080fd5b6100c860048036038101906100c39190610b0e565b61024e565b6040516100d59190610be5565b60405180910390f35b6100f860048036038101906100f39190610ae1565b610338565b6040516101059190610be5565b60405180910390f35b6101166104bb565b6040516101239190610c40565b60405180910390f35b6101346104c5565b005b610150600480360381019061014b9190610ae1565b61054d565b60405161015d9190610be5565b60405180910390f35b61016e6106ce565b60405161017b9190610bca565b60405180910390f35b61019e60048036038101906101999190610ae1565b6106f7565b6040516101ab9190610be5565b60405180910390f35b6101bc610717565b6040516101c99190610be5565b60405180910390f35b6101ec60048036038101906101e79190610b0e565b61072a565b6040516101f99190610be5565b60405180910390f35b61021c60048036038101906102179190610ae1565b610814565b6040516102299190610be5565b60405180910390f35b61024c60048036038101906102479190610ae1565b61086a565b005b6000610258610962565b73ffffffffffffffffffffffffffffffffffffffff166102766106ce565b73ffffffffffffffffffffffffffffffffffffffff16146102cc576040517f08c379a00000000000000000000000000000000000000000000000000000000081526004016102c390610c20565b60405180910390fd5b60005b8251811015610332576102fb8382815181106102ee576102ed610e38565b5b6020026020010151610338565b1561031f576001600260008282546103139190610d13565b92505081905550600191505b808061032a90610dc0565b9150506102cf565b50919050565b6000610342610962565b73ffffffffffffffffffffffffffffffffffffffff166103606106ce565b73ffffffffffffffffffffffffffffffffffffffff16146103b6576040517f08c379a00000000000000000000000000000000000000000000000000000000081526004016103ad90610c20565b60405180910390fd5b600160008373ffffffffffffffffffffffffffffffffffffffff1673ffffffffffffffffffffffffffffffffffffffff16815260200190815260200160002060009054906101000a900460ff16156104b6576000600160008473ffffffffffffffffffffffffffffffffffffffff1673ffffffffffffffffffffffffffffffffffffffff16815260200190815260200160002060006101000a81548160ff0219169083151502179055507ff1abf01a1043b7c244d128e8595cf0c1d10743b022b03a02dffd8ca3bf729f5a8260405161048f9190610bca565b60405180910390a16001600260008282546104aa9190610d13565b92505081905550600190505b919050565b6000600254905090565b6104cd610962565b73ffffffffffffffffffffffffffffffffffffffff166104eb6106ce565b73ffffffffffffffffffffffffffffffffffffffff1614610541576040517f08c379a000000000000000000000000000000000000000000000000000000000815260040161053890610c20565b60405180910390fd5b61054b600061096a565b565b6000610557610962565b73ffffffffffffffffffffffffffffffffffffffff166105756106ce565b73ffffffffffffffffffffffffffffffffffffffff16146105cb576040517f08c379a00000000000000000000000000000000000000000000000000000000081526004016105c290610c20565b60405180910390fd5b600160008373ffffffffffffffffffffffffffffffffffffffff1673ffffffffffffffffffffffffffffffffffffffff16815260200190815260200160002060009054906101000a900460ff166106c95760018060008473ffffffffffffffffffffffffffffffffffffffff1673ffffffffffffffffffffffffffffffffffffffff16815260200190815260200160002060006101000a81548160ff0219169083151502179055507fd1bba68c128cc3f427e5831b3c6f99f480b6efa6b9e80c757768f6124158cc3f826040516106a29190610bca565b60405180910390a16001600260008282546106bd9190610cbd565b92505081905550600190505b919050565b60008060009054906101000a900473ffffffffffffffffffffffffffffffffffffffff16905090565b60016020528060005260406000206000915054906101000a900460ff1681565b600360009054906101000a900460ff1681565b6000610734610962565b73ffffffffffffffffffffffffffffffffffffffff166107526106ce565b73ffffffffffffffffffffffffffffffffffffffff16146107a8576040517f08c379a000000000000000000000000000000000000000000000000000000000815260040161079f90610c20565b60405180910390fd5b60005b825181101561080e576107d78382815181106107ca576107c9610e38565b5b602002602001015161054d565b156107fb576001600260008282546107ef9190610cbd565b92505081905550600191505b808061080690610dc0565b9150506107ab565b50919050565b6000600160008373ffffffffffffffffffffffffffffffffffffffff1673ffffffffffffffffffffffffffffffffffffffff16815260200190815260200160002060009054906101000a900460ff169050919050565b610872610962565b73ffffffffffffffffffffffffffffffffffffffff166108906106ce565b73ffffffffffffffffffffffffffffffffffffffff16146108e6576040517f08c379a00000000000000000000000000000000000000000000000000000000081526004016108dd90610c20565b60405180910390fd5b600073ffffffffffffffffffffffffffffffffffffffff168173ffffffffffffffffffffffffffffffffffffffff161415610956576040517f08c379a000000000000000000000000000000000000000000000000000000000815260040161094d90610c00565b60405180910390fd5b61095f8161096a565b50565b600033905090565b60008060009054906101000a900473ffffffffffffffffffffffffffffffffffffffff169050816000806101000a81548173ffffffffffffffffffffffffffffffffffffffff021916908373ffffffffffffffffffffffffffffffffffffffff1602179055508173ffffffffffffffffffffffffffffffffffffffff168173ffffffffffffffffffffffffffffffffffffffff167f8be0079c531659141344cd1fd0a4f28419497f9722a3daafe3b4186f6b6457e060405160405180910390a35050565b6000610a41610a3c84610c80565b610c5b565b90508083825260208201905082856020860282011115610a6457610a63610e9b565b5b60005b85811015610a945781610a7a8882610a9e565b845260208401935060208301925050600181019050610a67565b5050509392505050565b600081359050610aad81610f33565b92915050565b600082601f830112610ac857610ac7610e96565b5b8135610ad8848260208601610a2e565b91505092915050565b600060208284031215610af757610af6610ea5565b5b6000610b0584828501610a9e565b91505092915050565b600060208284031215610b2457610b23610ea5565b5b600082013567ffffffffffffffff811115610b4257610b41610ea0565b5b610b4e84828501610ab3565b91505092915050565b610b6081610d47565b82525050565b610b6f81610d59565b82525050565b6000610b82602683610cac565b9150610b8d82610ebb565b604082019050919050565b6000610ba5602083610cac565b9150610bb082610f0a565b602082019050919050565b610bc481610d85565b82525050565b6000602082019050610bdf6000830184610b57565b92915050565b6000602082019050610bfa6000830184610b66565b92915050565b60006020820190508181036000830152610c1981610b75565b9050919050565b60006020820190508181036000830152610c3981610b98565b9050919050565b6000602082019050610c556000830184610bbb565b92915050565b6000610c65610c76565b9050610c718282610d8f565b919050565b6000604051905090565b600067ffffffffffffffff821115610c9b57610c9a610e67565b5b602082029050602081019050919050565b600082825260208201905092915050565b6000610cc882610d85565b9150610cd383610d85565b9250827fffffffffffffffffffffffffffffffffffffffffffffffffffffffffffffffff03821115610d0857610d07610e09565b5b828201905092915050565b6000610d1e82610d85565b9150610d2983610d85565b925082821015610d3c57610d3b610e09565b5b828203905092915050565b6000610d5282610d65565b9050919050565b60008115159050919050565b600073ffffffffffffffffffffffffffffffffffffffff82169050919050565b6000819050919050565b610d9882610eaa565b810181811067ffffffffffffffff82111715610db757610db6610e67565b5b80604052505050565b6000610dcb82610d85565b91507fffffffffffffffffffffffffffffffffffffffffffffffffffffffffffffffff821415610dfe57610dfd610e09565b5b600182019050919050565b7f4e487b7100000000000000000000000000000000000000000000000000000000600052601160045260246000fd5b7f4e487b7100000000000000000000000000000000000000000000000000000000600052603260045260246000fd5b7f4e487b7100000000000000000000000000000000000000000000000000000000600052604160045260246000fd5b600080fd5b600080fd5b600080fd5b600080fd5b6000601f19601f8301169050919050565b7f4f776e61626c653a206e6577206f776e657220697320746865207a65726f206160008201527f6464726573730000000000000000000000000000000000000000000000000000602082015250565b7f4f776e61626c653a2063616c6c6572206973206e6f7420746865206f776e6572600082015250565b610f3c81610d47565b8114610f4757600080fd5b5056fea2646970667358221220bed30b98fd52fd06427fedf4fcef33f2521d9e36ee375e945eb6c8c8ba1d457d64736f6c63430008070033546f6f206d616e7920757365727320696e206c656167756520746f20616464206e657720757365722ea264697066735822122075d0023ba4b1d288839bbd8f78788a07369b7e904f2ea6c933c71ab279ca03fc64736f6c63430008070033",
  "linkReferences": {
    "contracts/MOBALogicLibrary.sol": {
      "MOBALogicLibrary": [
        {
          "length": 20,
          "start": 2437
        },
        {
          "length": 20,
          "start": 7716
        }
      ]
    }
  },
  "deployedLinkReferences": {
    "contracts/MOBALogicLibrary.sol": {
      "MOBALogicLibrary": [
        {
          "length": 20,
          "start": 2152
        },
        {
          "length": 20,
          "start": 7431
        }
      ]
    }
  }
}