{
  "_format": "hh-sol-artifact-1",
  "contractName": "LeagueOfLegendsLogic",
  "sourceName": "contracts/LeagueOfLegendsLogic.sol",
  "abi": [
    {
      "anonymous": false,
      "inputs": [
        {
          "indexed": true,
          "internalType": "address",
          "name": "previousOwner",
          "type": "address"
        },
        {
          "indexed": true,
          "internalType": "address",
          "name": "newOwner",
          "type": "address"
        }
      ],
      "name": "OwnershipTransferred",
      "type": "event"
    },
    {
      "anonymous": false,
      "inputs": [
        {
          "indexed": true,
          "internalType": "bytes32",
          "name": "role",
          "type": "bytes32"
        },
        {
          "indexed": true,
          "internalType": "bytes32",
          "name": "previousAdminRole",
          "type": "bytes32"
        },
        {
          "indexed": true,
          "internalType": "bytes32",
          "name": "newAdminRole",
          "type": "bytes32"
        }
      ],
      "name": "RoleAdminChanged",
      "type": "event"
    },
    {
      "anonymous": false,
      "inputs": [
        {
          "indexed": true,
          "internalType": "bytes32",
          "name": "role",
          "type": "bytes32"
        },
        {
          "indexed": true,
          "internalType": "address",
          "name": "account",
          "type": "address"
        },
        {
          "indexed": true,
          "internalType": "address",
          "name": "sender",
          "type": "address"
        }
      ],
      "name": "RoleGranted",
      "type": "event"
    },
    {
      "anonymous": false,
      "inputs": [
        {
          "indexed": true,
          "internalType": "bytes32",
          "name": "role",
          "type": "bytes32"
        },
        {
          "indexed": true,
          "internalType": "address",
          "name": "account",
          "type": "address"
        },
        {
          "indexed": true,
          "internalType": "address",
          "name": "sender",
          "type": "address"
        }
      ],
      "name": "RoleRevoked",
      "type": "event"
    },
    {
      "anonymous": false,
      "inputs": [
        {
          "indexed": false,
          "internalType": "address",
          "name": "sender",
          "type": "address"
        },
        {
          "indexed": false,
          "internalType": "uint256",
          "name": "amount",
          "type": "uint256"
        }
      ],
      "name": "Staked",
      "type": "event"
    },
    {
      "anonymous": false,
      "inputs": [
        {
          "indexed": false,
          "internalType": "address",
          "name": "addr",
          "type": "address"
        }
      ],
      "name": "WhitelistedAddressAdded",
      "type": "event"
    },
    {
      "anonymous": false,
      "inputs": [
        {
          "indexed": false,
          "internalType": "address",
          "name": "addr",
          "type": "address"
        }
      ],
      "name": "WhitelistedAddressRemoved",
      "type": "event"
    },
    {
      "anonymous": false,
      "inputs": [
        {
          "indexed": false,
          "internalType": "address",
          "name": "sender",
          "type": "address"
        },
        {
          "indexed": false,
          "internalType": "address",
          "name": "contractAddress",
          "type": "address"
        }
      ],
      "name": "testUSDCDeployed",
      "type": "event"
    },
    {
      "inputs": [],
      "name": "DEFAULT_ADMIN_ROLE",
      "outputs": [
        {
          "internalType": "bytes32",
          "name": "",
          "type": "bytes32"
        }
      ],
      "stateMutability": "view",
      "type": "function"
    },
    {
      "inputs": [
        {
          "internalType": "address",
          "name": "addr",
          "type": "address"
        }
      ],
      "name": "addAddressToWhitelist",
      "outputs": [
        {
          "internalType": "bool",
          "name": "success",
          "type": "bool"
        }
      ],
      "stateMutability": "nonpayable",
      "type": "function"
    },
    {
      "inputs": [
        {
          "internalType": "address[]",
          "name": "addrs",
          "type": "address[]"
        }
      ],
      "name": "addAddressesToWhitelist",
      "outputs": [
        {
          "internalType": "bool",
          "name": "success",
          "type": "bool"
        }
      ],
      "stateMutability": "nonpayable",
      "type": "function"
    },
    {
      "inputs": [
        {
          "internalType": "address",
          "name": "user",
          "type": "address"
        }
      ],
      "name": "addUserToLeague",
      "outputs": [],
      "stateMutability": "nonpayable",
      "type": "function"
    },
    {
      "inputs": [
        {
          "internalType": "address",
          "name": "_userToAdd",
          "type": "address"
        }
      ],
      "name": "addUserToWhitelist",
      "outputs": [],
      "stateMutability": "nonpayable",
      "type": "function"
    },
    {
      "inputs": [],
      "name": "currentWeekNum",
      "outputs": [
        {
          "internalType": "uint256",
          "name": "",
          "type": "uint256"
        }
      ],
      "stateMutability": "view",
      "type": "function"
    },
    {
      "inputs": [
        {
          "internalType": "uint256",
          "name": "currentWeekNum",
          "type": "uint256"
        }
      ],
      "name": "evaluateWeek",
      "outputs": [],
      "stateMutability": "nonpayable",
      "type": "function"
    },
    {
      "inputs": [],
      "name": "getLeagueName",
      "outputs": [
        {
          "internalType": "string",
          "name": "",
          "type": "string"
        }
      ],
      "stateMutability": "view",
      "type": "function"
    },
    {
      "inputs": [],
      "name": "getLineup",
      "outputs": [
        {
          "internalType": "uint256[]",
          "name": "",
          "type": "uint256[]"
        }
      ],
      "stateMutability": "view",
      "type": "function"
    },
    {
      "inputs": [
        {
          "internalType": "bytes32",
          "name": "role",
          "type": "bytes32"
        }
      ],
      "name": "getRoleAdmin",
      "outputs": [
        {
          "internalType": "bytes32",
          "name": "",
          "type": "bytes32"
        }
      ],
      "stateMutability": "view",
      "type": "function"
    },
    {
      "inputs": [],
      "name": "getStakeAmount",
      "outputs": [
        {
          "internalType": "uint256",
          "name": "",
          "type": "uint256"
        }
      ],
      "stateMutability": "view",
      "type": "function"
    },
    {
      "inputs": [],
      "name": "getTestUSDCAddress",
      "outputs": [
        {
          "internalType": "address",
          "name": "",
          "type": "address"
        }
      ],
      "stateMutability": "view",
      "type": "function"
    },
    {
      "inputs": [],
      "name": "getTotalPrizePot",
      "outputs": [
        {
          "internalType": "uint256",
          "name": "",
          "type": "uint256"
        }
      ],
      "stateMutability": "view",
      "type": "function"
    },
    {
      "inputs": [],
      "name": "getUSDCBalance",
      "outputs": [
        {
          "internalType": "uint256",
          "name": "",
          "type": "uint256"
        }
      ],
      "stateMutability": "view",
      "type": "function"
    },
    {
      "inputs": [],
      "name": "getUserRecord",
      "outputs": [
        {
          "internalType": "uint256[8]",
          "name": "",
          "type": "uint256[8]"
        }
      ],
      "stateMutability": "view",
      "type": "function"
    },
    {
      "inputs": [],
      "name": "getUserUSDCBalance",
      "outputs": [
        {
          "internalType": "uint256",
          "name": "",
          "type": "uint256"
        }
      ],
      "stateMutability": "view",
      "type": "function"
    },
    {
      "inputs": [],
      "name": "getUserWeeklypts",
      "outputs": [
        {
          "internalType": "uint256[8]",
          "name": "",
          "type": "uint256[8]"
        }
      ],
      "stateMutability": "view",
      "type": "function"
    },
    {
      "inputs": [],
      "name": "getUsersLength",
      "outputs": [
        {
          "internalType": "uint256",
          "name": "",
          "type": "uint256"
        }
      ],
      "stateMutability": "view",
      "type": "function"
    },
    {
      "inputs": [],
      "name": "getVersion",
      "outputs": [
        {
          "internalType": "uint256",
          "name": "version",
          "type": "uint256"
        }
      ],
      "stateMutability": "view",
      "type": "function"
    },
    {
      "inputs": [
        {
          "internalType": "bytes32",
          "name": "role",
          "type": "bytes32"
        },
        {
          "internalType": "address",
          "name": "account",
          "type": "address"
        }
      ],
      "name": "grantRole",
      "outputs": [],
      "stateMutability": "nonpayable",
      "type": "function"
    },
    {
      "inputs": [
        {
          "internalType": "bytes32",
          "name": "role",
          "type": "bytes32"
        },
        {
          "internalType": "address",
          "name": "account",
          "type": "address"
        }
      ],
      "name": "hasRole",
      "outputs": [
        {
          "internalType": "bool",
          "name": "",
          "type": "bool"
        }
      ],
      "stateMutability": "view",
      "type": "function"
    },
    {
      "inputs": [],
      "name": "incrementVersion",
      "outputs": [],
      "stateMutability": "nonpayable",
      "type": "function"
    },
    {
      "inputs": [
        {
          "internalType": "string",
          "name": "_name",
          "type": "string"
        },
        {
          "internalType": "uint256",
          "name": "_version",
          "type": "uint256"
        },
        {
          "internalType": "uint256",
          "name": "_stakeAmount",
          "type": "uint256"
        },
        {
          "internalType": "bool",
          "name": "_isPublic",
          "type": "bool"
        },
        {
          "internalType": "address",
          "name": "athletesDataStorageAddress",
          "type": "address"
        },
        {
          "internalType": "address",
          "name": "_admin",
          "type": "address"
        },
        {
          "internalType": "address",
          "name": "_polygonUSDCAddress",
          "type": "address"
        },
        {
          "internalType": "address",
          "name": "_rinkebyUSDCAddress",
          "type": "address"
        },
        {
          "internalType": "address",
          "name": "leagueMakerContractAddress",
          "type": "address"
        },
        {
          "internalType": "address",
          "name": "_testUSDCAddress",
          "type": "address"
        }
      ],
      "name": "initialize",
      "outputs": [],
      "stateMutability": "nonpayable",
      "type": "function"
    },
    {
      "inputs": [],
      "name": "isPublic",
      "outputs": [
        {
          "internalType": "bool",
          "name": "",
          "type": "bool"
        }
      ],
      "stateMutability": "view",
      "type": "function"
    },
    {
      "inputs": [],
      "name": "joinLeague",
      "outputs": [],
      "stateMutability": "nonpayable",
      "type": "function"
    },
    {
      "inputs": [
        {
          "internalType": "uint256",
          "name": "",
          "type": "uint256"
        }
      ],
      "name": "leagueMembers",
      "outputs": [
        {
          "internalType": "address",
          "name": "",
          "type": "address"
        }
      ],
      "stateMutability": "view",
      "type": "function"
    },
    {
      "inputs": [],
      "name": "leagueName",
      "outputs": [
        {
          "internalType": "string",
          "name": "",
          "type": "string"
        }
      ],
      "stateMutability": "view",
      "type": "function"
    },
    {
      "inputs": [],
      "name": "lockLineup",
      "outputs": [],
      "stateMutability": "nonpayable",
      "type": "function"
    },
    {
      "inputs": [],
      "name": "numWeeks",
      "outputs": [
        {
          "internalType": "uint256",
          "name": "",
          "type": "uint256"
        }
      ],
      "stateMutability": "view",
      "type": "function"
    },
    {
      "inputs": [],
      "name": "owner",
      "outputs": [
        {
          "internalType": "address",
          "name": "",
          "type": "address"
        }
      ],
      "stateMutability": "view",
      "type": "function"
    },
    {
      "inputs": [],
      "name": "polygonUSDCAddress",
      "outputs": [
        {
          "internalType": "address",
          "name": "",
          "type": "address"
        }
      ],
      "stateMutability": "view",
      "type": "function"
    },
    {
      "inputs": [
        {
          "internalType": "address",
          "name": "addr",
          "type": "address"
        }
      ],
      "name": "removeAddressFromWhitelist",
      "outputs": [
        {
          "internalType": "bool",
          "name": "success",
          "type": "bool"
        }
      ],
      "stateMutability": "nonpayable",
      "type": "function"
    },
    {
      "inputs": [
        {
          "internalType": "address[]",
          "name": "addrs",
          "type": "address[]"
        }
      ],
      "name": "removeAddressesFromWhitelist",
      "outputs": [
        {
          "internalType": "bool",
          "name": "success",
          "type": "bool"
        }
      ],
      "stateMutability": "nonpayable",
      "type": "function"
    },
    {
      "inputs": [],
      "name": "renounceOwnership",
      "outputs": [],
      "stateMutability": "nonpayable",
      "type": "function"
    },
    {
      "inputs": [
        {
          "internalType": "bytes32",
          "name": "role",
          "type": "bytes32"
        },
        {
          "internalType": "address",
          "name": "account",
          "type": "address"
        }
      ],
      "name": "renounceRole",
      "outputs": [],
      "stateMutability": "nonpayable",
      "type": "function"
    },
    {
      "inputs": [
        {
          "internalType": "bytes32",
          "name": "role",
          "type": "bytes32"
        },
        {
          "internalType": "address",
          "name": "account",
          "type": "address"
        }
      ],
      "name": "revokeRole",
      "outputs": [],
      "stateMutability": "nonpayable",
      "type": "function"
    },
    {
      "inputs": [],
      "name": "rinkebyUSDCAddress",
      "outputs": [
        {
          "internalType": "address",
          "name": "",
          "type": "address"
        }
      ],
      "stateMutability": "view",
      "type": "function"
    },
    {
      "inputs": [],
      "name": "setLeagueEntryIsClosed",
      "outputs": [],
      "stateMutability": "nonpayable",
      "type": "function"
    },
    {
      "inputs": [],
      "name": "setLeagueSchedule",
      "outputs": [],
      "stateMutability": "nonpayable",
      "type": "function"
    },
    {
      "inputs": [
        {
          "internalType": "uint256[]",
          "name": "athleteIds",
          "type": "uint256[]"
        }
      ],
      "name": "setLineup",
      "outputs": [],
      "stateMutability": "nonpayable",
      "type": "function"
    },
    {
      "inputs": [],
      "name": "stakeAmount",
      "outputs": [
        {
          "internalType": "uint256",
          "name": "",
          "type": "uint256"
        }
      ],
      "stateMutability": "view",
      "type": "function"
    },
    {
      "inputs": [
        {
          "internalType": "bytes4",
          "name": "interfaceId",
          "type": "bytes4"
        }
      ],
      "name": "supportsInterface",
      "outputs": [
        {
          "internalType": "bool",
          "name": "",
          "type": "bool"
        }
      ],
      "stateMutability": "view",
      "type": "function"
    },
    {
      "inputs": [
        {
          "internalType": "address",
          "name": "newOwner",
          "type": "address"
        }
      ],
      "name": "transferOwnership",
      "outputs": [],
      "stateMutability": "nonpayable",
      "type": "function"
    },
    {
      "inputs": [],
      "name": "unlockLineup",
      "outputs": [],
      "stateMutability": "nonpayable",
      "type": "function"
    },
    {
      "inputs": [
        {
          "internalType": "address",
          "name": "",
          "type": "address"
        },
        {
          "internalType": "uint256",
          "name": "",
          "type": "uint256"
        }
      ],
      "name": "userToRecord",
      "outputs": [
        {
          "internalType": "uint256",
          "name": "",
          "type": "uint256"
        }
      ],
      "stateMutability": "view",
      "type": "function"
    },
    {
      "inputs": [],
      "name": "version",
      "outputs": [
        {
          "internalType": "uint256",
          "name": "",
          "type": "uint256"
        }
      ],
      "stateMutability": "view",
      "type": "function"
    },
    {
      "inputs": [
        {
          "internalType": "address",
          "name": "",
          "type": "address"
        }
      ],
      "name": "whitelist",
      "outputs": [
        {
          "internalType": "bool",
          "name": "",
          "type": "bool"
        }
      ],
      "stateMutability": "view",
      "type": "function"
    }
  ],
  "bytecode": "0x60806040523480156200001157600080fd5b5062000032620000266200003860201b60201c565b6200004060201b60201c565b62000105565b600033905090565b60008060029054906101000a900473ffffffffffffffffffffffffffffffffffffffff16905081600060026101000a81548173ffffffffffffffffffffffffffffffffffffffff021916908373ffffffffffffffffffffffffffffffffffffffff1602179055508173ffffffffffffffffffffffffffffffffffffffff168173ffffffffffffffffffffffffffffffffffffffff167f8be0079c531659141344cd1fd0a4f28419497f9722a3daafe3b4186f6b6457e060405160405180910390a35050565b614f7680620001156000396000f3fe60806040523480156200001157600080fd5b5060043610620002d35760003560e01c8063722580b61162000189578063a2bc091a11620000e1578063dc9a15351162000093578063dc9a1535146200086c578063e2ec6ec3146200088e578063e4c9066b14620008c4578063f2fde38b14620008d0578063f612121a14620008f0578063f8816045146200091057620002d3565b8063a2bc091a14620007e4578063ada3a28d14620007f0578063c8be3b5b1462000812578063c99fea94146200081e578063cdbba4c6146200082a578063d547741f146200084c57620002d3565b806391d14854116200013b57806391d1485414620006f257806393f3706c146200072857806399a60034146200074a5780639b19251a146200076c5780639f2d548114620007a2578063a217fddf14620007c257620002d3565b8063722580b61462000614578063747b805014620006365780637b9417c814620006565780637eed33f1146200068c578063841abf6e14620006ae5780638da5cb5b14620006d057620002d3565b80632f2ff15d116200023d578063595b1a3e11620001ef578063595b1a3e14620005605780635d514d6914620005825780635fcc698714620005a257806360c7dc4714620005c45780636fd71a1814620005e6578063715018a6146200060857620002d3565b80632f2ff15d146200049857806336568abe14620004b85780633cfd1ccc14620004d8578063403570c514620004fa57806352e6e5f3146200051c57806354fd4d50146200053e57620002d3565b80630d8e6e2c11620002975780630d8e6e2c1462000392578063248a9ca314620003b457806324953eaa14620003ea578063267175db1462000420578063286dd3f514620004565780632cf0a1fc146200048c57620002d3565b8062b2476f14620002d857806301ffc9a714620002fa5780630655465a1462000330578063087e18a7146200033c5780630c6f7959146200035c575b600080fd5b620002e262000932565b604051620002f19190620035d6565b60405180910390f35b62000318600480360381019062000312919062003026565b62000958565b6040516200032791906200369f565b60405180910390f35b6200033a620009d5565b005b6200035a600480360381019062000354919062002e60565b62000a8d565b005b6200037a600480360381019062000374919062002e92565b62000c11565b6040516200038991906200383f565b60405180910390f35b6200039c62000c3a565b604051620003ab91906200383f565b60405180910390f35b620003d26004803603810190620003cc919062002fad565b62000c3f565b604051620003e19190620036bc565b60405180910390f35b62000408600480360381019062000402919062002ed9565b62000c5f565b6040516200041791906200369f565b60405180910390f35b6200043e600480360381019062000438919062003172565b62000d5c565b6040516200044d9190620035d6565b60405180910390f35b6200047460048036038101906200046e919062002e60565b62000d9c565b6040516200048391906200369f565b60405180910390f35b6200049662000f2b565b005b620004b66004803603810190620004b0919062002fdf565b62000f49565b005b620004d66004803603810190620004d0919062002fdf565b62000f7a565b005b620004e262001004565b604051620004f191906200383f565b60405180910390f35b62000504620010bc565b6040516200051391906200372d565b60405180910390f35b6200052662001156565b6040516200053591906200383f565b60405180910390f35b620005486200115c565b6040516200055791906200383f565b60405180910390f35b6200056a62001162565b6040516200057991906200383f565b60405180910390f35b620005a060048036038101906200059a919062003058565b6200116f565b005b620005ac62001544565b604051620005bb91906200383f565b60405180910390f35b620005ce620015fc565b604051620005dd91906200383f565b60405180910390f35b620005f062001602565b604051620005ff91906200365d565b60405180910390f35b620006126200168e565b005b6200061e6200171f565b6040516200062d91906200383f565b60405180910390f35b6200065460048036038101906200064e919062002e60565b62001729565b005b6200067460048036038101906200066e919062002e60565b6200179d565b6040516200068391906200369f565b60405180910390f35b620006966200192b565b604051620006a591906200383f565b60405180910390f35b620006b862001931565b604051620006c791906200372d565b60405180910390f35b620006da620019c7565b604051620006e99190620035d6565b60405180910390f35b6200071060048036038101906200070a919062002fdf565b620019f0565b6040516200071f91906200369f565b60405180910390f35b6200073262001a5b565b604051620007419190620035d6565b60405180910390f35b6200075462001a81565b6040516200076391906200383f565b60405180910390f35b6200078a600480360381019062000784919062002e60565b62001a9d565b6040516200079991906200369f565b60405180910390f35b620007c06004803603810190620007ba919062003172565b62001abd565b005b620007cc62001b7c565b604051620007db9190620036bc565b60405180910390f35b620007ee62001b83565b005b620007fa62001c23565b6040516200080991906200367b565b60405180910390f35b6200081c62001cba565b005b6200082862001d5a565b005b6200083462001f78565b604051620008439190620035d6565b60405180910390f35b6200086a600480360381019062000864919062002fdf565b62001fa2565b005b6200087662001fd3565b6040516200088591906200369f565b60405180910390f35b620008ac6004803603810190620008a6919062002ed9565b62001fe6565b604051620008bb91906200369f565b60405180910390f35b620008ce620020e3565b005b620008ee6004803603810190620008e8919062002e60565b62002183565b005b6200090e600480360381019062000908919062002f2a565b62002287565b005b6200091a62002333565b6040516200092991906200365d565b60405180910390f35b601260009054906101000a900473ffffffffffffffffffffffffffffffffffffffff1681565b60007f7965db0b000000000000000000000000000000000000000000000000000000007bffffffffffffffffffffffffffffffffffffffffffffffffffffffff1916827bffffffffffffffffffffffffffffffffffffffffffffffffffffffff19161480620009ce5750620009cd82620023bf565b5b9050919050565b62000a156040518060400160405280601081526020017f73657474696e67207363686564756c650000000000000000000000000000000081525062002429565b73__$36fdb4e0c2cb91f3ceca5ea81b025328f3$__63d2c232b56010600960075460066040518563ffffffff1660e01b815260040162000a599493929190620036d9565b60006040518083038186803b15801562000a7257600080fd5b505af415801562000a87573d6000803e3d6000fd5b50505050565b600d60009054906101000a900460ff161562000ae0576040517f08c379a000000000000000000000000000000000000000000000000000000000815260040162000ad790620037fb565b60405180910390fd5b6008600980549050101562000be9576009819080600181540180825580915050600190039060005260206000200160009091909190916101000a81548173ffffffffffffffffffffffffffffffffffffffff021916908373ffffffffffffffffffffffffffffffffffffffff160217905550601560009054906101000a900473ffffffffffffffffffffffffffffffffffffffff1673ffffffffffffffffffffffffffffffffffffffff1663771bd4ce826040518263ffffffff1660e01b815260040162000baf9190620035d6565b600060405180830381600087803b15801562000bca57600080fd5b505af115801562000bdf573d6000803e3d6000fd5b5050505062000c0e565b62000c0d60405180606001604052806028815260200162004f196028913962002429565b5b50565b600c602052816000526040600020816008811062000c2e57600080fd5b01600091509150505481565b600090565b600060016000838152602001908152602001600020600101549050919050565b600062000c6b620024c6565b73ffffffffffffffffffffffffffffffffffffffff1662000c8b620019c7565b73ffffffffffffffffffffffffffffffffffffffff161462000ce4576040517f08c379a000000000000000000000000000000000000000000000000000000000815260040162000cdb90620037d9565b60405180910390fd5b60005b825181101562000d565762000d1983828151811062000d0b5762000d0a62003c8c565b5b602002602001015162000d9c565b1562000d405760016003600082825462000d34919062003a54565b92505081905550600191505b808062000d4d9062003be0565b91505062000ce7565b50919050565b6009818154811062000d6d57600080fd5b906000526020600020016000915054906101000a900473ffffffffffffffffffffffffffffffffffffffff1681565b600062000da8620024c6565b73ffffffffffffffffffffffffffffffffffffffff1662000dc8620019c7565b73ffffffffffffffffffffffffffffffffffffffff161462000e21576040517f08c379a000000000000000000000000000000000000000000000000000000000815260040162000e1890620037d9565b60405180910390fd5b600260008373ffffffffffffffffffffffffffffffffffffffff1673ffffffffffffffffffffffffffffffffffffffff16815260200190815260200160002060009054906101000a900460ff161562000f26576000600260008473ffffffffffffffffffffffffffffffffffffffff1673ffffffffffffffffffffffffffffffffffffffff16815260200190815260200160002060006101000a81548160ff0219169083151502179055507ff1abf01a1043b7c244d128e8595cf0c1d10743b022b03a02dffd8ca3bf729f5a8260405162000efd9190620035d6565b60405180910390a160016003600082825462000f1a919062003a54565b92505081905550600190505b919050565b60016005600082825462000f40919062003996565b92505081905550565b62000f548262000c3f565b62000f698162000f63620024c6565b620024ce565b62000f75838362002576565b505050565b62000f84620024c6565b73ffffffffffffffffffffffffffffffffffffffff168173ffffffffffffffffffffffffffffffffffffffff161462000ff4576040517f08c379a000000000000000000000000000000000000000000000000000000000815260040162000feb906200381d565b60405180910390fd5b6200100082826200265b565b5050565b6000601660009054906101000a900473ffffffffffffffffffffffffffffffffffffffff1673ffffffffffffffffffffffffffffffffffffffff166370a08231306040518263ffffffff1660e01b8152600401620010639190620035d6565b60206040518083038186803b1580156200107c57600080fd5b505afa15801562001091573d6000803e3d6000fd5b505050506040513d601f19601f82011682018060405250810190620010b79190620031a4565b905090565b606060068054620010cd9062003b74565b80601f0160208091040260200160405190810160405280929190818152602001828054620010fb9062003b74565b80156200114c5780601f1062001120576101008083540402835291602001916200114c565b820191906000526020600020905b8154815290600101906020018083116200112e57829003601f168201915b5050505050905090565b60085481565b60055481565b6000600980549050905090565b600060019054906101000a900460ff16620011995760008054906101000a900460ff1615620011a4565b620011a362002742565b5b620011e6576040517f08c379a0000000000000000000000000000000000000000000000000000000008152600401620011dd90620037b7565b60405180910390fd5b60008060019054906101000a900460ff16159050801562001237576001600060016101000a81548160ff02191690831515021790555060016000806101000a81548160ff0219169083151502179055505b896005819055508b8b600691906200125192919062002ad1565b506008600781905550620012696000801b8762002755565b6009869080600181540180825580915050600190039060005260206000200160009091909190916101000a81548173ffffffffffffffffffffffffffffffffffffffff021916908373ffffffffffffffffffffffffffffffffffffffff16021790555088600f8190555087600460006101000a81548160ff0219169083151502179055506000600d60016101000a81548160ff0219169083151502179055506000600d60006101000a81548160ff02191690831515021790555086601360006101000a81548173ffffffffffffffffffffffffffffffffffffffff021916908373ffffffffffffffffffffffffffffffffffffffff16021790555082601560006101000a81548173ffffffffffffffffffffffffffffffffffffffff021916908373ffffffffffffffffffffffffffffffffffffffff160217905550604051620013b39062002b62565b604051809103906000f080158015620013d0573d6000803e3d6000fd5b50601460006101000a81548173ffffffffffffffffffffffffffffffffffffffff021916908373ffffffffffffffffffffffffffffffffffffffff16021790555084601160006101000a81548173ffffffffffffffffffffffffffffffffffffffff021916908373ffffffffffffffffffffffffffffffffffffffff16021790555083601260006101000a81548173ffffffffffffffffffffffffffffffffffffffff021916908373ffffffffffffffffffffffffffffffffffffffff16021790555081601660006101000a81548173ffffffffffffffffffffffffffffffffffffffff021916908373ffffffffffffffffffffffffffffffffffffffff160217905550620015146040518060400160405280601281526020017f50726f787920696e697469616c697a656421000000000000000000000000000081525062002429565b8015620015365760008060016101000a81548160ff0219169083151502179055505b505050505050505050505050565b6000601660009054906101000a900473ffffffffffffffffffffffffffffffffffffffff1673ffffffffffffffffffffffffffffffffffffffff166370a08231336040518263ffffffff1660e01b8152600401620015a39190620035d6565b60206040518083038186803b158015620015bc57600080fd5b505afa158015620015d1573d6000803e3d6000fd5b505050506040513d601f19601f82011682018060405250810190620015f79190620031a4565b905090565b600f5481565b6200160c62002b70565b600c60003373ffffffffffffffffffffffffffffffffffffffff1673ffffffffffffffffffffffffffffffffffffffff16815260200190815260200160002060088060200260405190810160405280929190826008801562001684576020028201915b8154815260200190600101908083116200166f575b5050505050905090565b62001698620024c6565b73ffffffffffffffffffffffffffffffffffffffff16620016b8620019c7565b73ffffffffffffffffffffffffffffffffffffffff161462001711576040517f08c379a00000000000000000000000000000000000000000000000000000000081526004016200170890620037d9565b60405180910390fd5b6200171d600062002765565b565b6000600f54905090565b620017386000801b33620019f0565b6200174257600080fd5b6001600260008373ffffffffffffffffffffffffffffffffffffffff1673ffffffffffffffffffffffffffffffffffffffff16815260200190815260200160002060006101000a81548160ff02191690831515021790555050565b6000620017a9620024c6565b73ffffffffffffffffffffffffffffffffffffffff16620017c9620019c7565b73ffffffffffffffffffffffffffffffffffffffff161462001822576040517f08c379a00000000000000000000000000000000000000000000000000000000081526004016200181990620037d9565b60405180910390fd5b600260008373ffffffffffffffffffffffffffffffffffffffff1673ffffffffffffffffffffffffffffffffffffffff16815260200190815260200160002060009054906101000a900460ff1662001926576001600260008473ffffffffffffffffffffffffffffffffffffffff1673ffffffffffffffffffffffffffffffffffffffff16815260200190815260200160002060006101000a81548160ff0219169083151502179055507fd1bba68c128cc3f427e5831b3c6f99f480b6efa6b9e80c757768f6124158cc3f82604051620018fd9190620035d6565b60405180910390a16001600360008282546200191a919062003996565b92505081905550600190505b919050565b60075481565b60068054620019409062003b74565b80601f01602080910402602001604051908101604052809291908181526020018280546200196e9062003b74565b8015620019bf5780601f106200199357610100808354040283529160200191620019bf565b820191906000526020600020905b815481529060010190602001808311620019a157829003601f168201915b505050505081565b60008060029054906101000a900473ffffffffffffffffffffffffffffffffffffffff16905090565b60006001600084815260200190815260200160002060000160008373ffffffffffffffffffffffffffffffffffffffff1673ffffffffffffffffffffffffffffffffffffffff16815260200190815260200160002060009054906101000a900460ff16905092915050565b601160009054906101000a900473ffffffffffffffffffffffffffffffffffffffff1681565b6000600980549050600f5462001a989190620039f3565b905090565b60026020528060005260406000206000915054906101000a900460ff1681565b62001ac7620024c6565b73ffffffffffffffffffffffffffffffffffffffff1662001ae7620019c7565b73ffffffffffffffffffffffffffffffffffffffff161462001b40576040517f08c379a000000000000000000000000000000000000000000000000000000000815260040162001b3790620037d9565b60405180910390fd5b60005b601060008381526020019081526020016000208054905081101562001b7857808062001b6f9062003be0565b91505062001b43565b5050565b6000801b81565b62001b8d620024c6565b73ffffffffffffffffffffffffffffffffffffffff1662001bad620019c7565b73ffffffffffffffffffffffffffffffffffffffff161462001c06576040517f08c379a000000000000000000000000000000000000000000000000000000000815260040162001bfd90620037d9565b60405180910390fd5b6000600d60016101000a81548160ff021916908315150217905550565b6060600e60003373ffffffffffffffffffffffffffffffffffffffff1673ffffffffffffffffffffffffffffffffffffffff16815260200190815260200160002080548060200260200160405190810160405280929190818152602001828054801562001cb057602002820191906000526020600020905b81548152602001906001019080831162001c9b575b5050505050905090565b62001cc4620024c6565b73ffffffffffffffffffffffffffffffffffffffff1662001ce4620019c7565b73ffffffffffffffffffffffffffffffffffffffff161462001d3d576040517f08c379a000000000000000000000000000000000000000000000000000000000815260040162001d3490620037d9565b60405180910390fd5b6001600d60016101000a81548160ff021916908315150217905550565b600260003373ffffffffffffffffffffffffffffffffffffffff1673ffffffffffffffffffffffffffffffffffffffff16815260200190815260200160002060009054906101000a900460ff168062001dbf5750600460009054906101000a900460ff165b62001dc957600080fd5b600d60009054906101000a900460ff161562001e1c576040517f08c379a000000000000000000000000000000000000000000000000000000000815260040162001e1390620037fb565b60405180910390fd5b6009339080600181540180825580915050600190039060005260206000200160009091909190916101000a81548173ffffffffffffffffffffffffffffffffffffffff021916908373ffffffffffffffffffffffffffffffffffffffff160217905550601660009054906101000a900473ffffffffffffffffffffffffffffffffffffffff1673ffffffffffffffffffffffffffffffffffffffff166323b872dd3330600f546040518463ffffffff1660e01b815260040162001ee293929190620035f3565b602060405180830381600087803b15801562001efd57600080fd5b505af115801562001f12573d6000803e3d6000fd5b505050506040513d601f19601f8201168201806040525081019062001f38919062002f7b565b507f9e71bc8eea02a63969f509818f2dafb9254532904319f9dbda79b67bd34a5f3d33600f5460405162001f6e92919062003630565b60405180910390a1565b6000601660009054906101000a900473ffffffffffffffffffffffffffffffffffffffff16905090565b62001fad8262000c3f565b62001fc28162001fbc620024c6565b620024ce565b62001fce83836200265b565b505050565b600460009054906101000a900460ff1681565b600062001ff2620024c6565b73ffffffffffffffffffffffffffffffffffffffff1662002012620019c7565b73ffffffffffffffffffffffffffffffffffffffff16146200206b576040517f08c379a00000000000000000000000000000000000000000000000000000000081526004016200206290620037d9565b60405180910390fd5b60005b8251811015620020dd57620020a083828151811062002092576200209162003c8c565b5b60200260200101516200179d565b15620020c757600160036000828254620020bb919062003996565b92505081905550600191505b8080620020d49062003be0565b9150506200206e565b50919050565b620020ed620024c6565b73ffffffffffffffffffffffffffffffffffffffff166200210d620019c7565b73ffffffffffffffffffffffffffffffffffffffff161462002166576040517f08c379a00000000000000000000000000000000000000000000000000000000081526004016200215d90620037d9565b60405180910390fd5b6001600d60006101000a81548160ff021916908315150217905550565b6200218d620024c6565b73ffffffffffffffffffffffffffffffffffffffff16620021ad620019c7565b73ffffffffffffffffffffffffffffffffffffffff161462002206576040517f08c379a0000000000000000000000000000000000000000000000000000000008152600401620021fd90620037d9565b60405180910390fd5b600073ffffffffffffffffffffffffffffffffffffffff168173ffffffffffffffffffffffffffffffffffffffff16141562002279576040517f08c379a0000000000000000000000000000000000000000000000000000000008152600401620022709062003773565b60405180910390fd5b620022848162002765565b50565b600d60019054906101000a900460ff1615620022da576040517f08c379a0000000000000000000000000000000000000000000000000000000008152600401620022d19062003795565b60405180910390fd5b80600e60003373ffffffffffffffffffffffffffffffffffffffff1673ffffffffffffffffffffffffffffffffffffffff16815260200190815260200160002090805190602001906200232f92919062002b93565b5050565b6200233d62002b70565b600c60003373ffffffffffffffffffffffffffffffffffffffff1673ffffffffffffffffffffffffffffffffffffffff168152602001908152602001600020600880602002604051908101604052809291908260088015620023b5576020028201915b815481526020019060010190808311620023a0575b5050505050905090565b60007f01ffc9a7000000000000000000000000000000000000000000000000000000007bffffffffffffffffffffffffffffffffffffffffffffffffffffffff1916827bffffffffffffffffffffffffffffffffffffffffffffffffffffffff1916149050919050565b620024c3816040516024016200244091906200372d565b6040516020818303038152906040527f41304fac000000000000000000000000000000000000000000000000000000007bffffffffffffffffffffffffffffffffffffffffffffffffffffffff19166020820180517bffffffffffffffffffffffffffffffffffffffffffffffffffffffff83818316178352505050506200282a565b50565b600033905090565b620024da8282620019f0565b6200257257620025028173ffffffffffffffffffffffffffffffffffffffff16601462002853565b620025128360001c602062002853565b6040516020016200252592919062003594565b6040516020818303038152906040526040517f08c379a00000000000000000000000000000000000000000000000000000000081526004016200256991906200372d565b60405180910390fd5b5050565b620025828282620019f0565b6200265757600180600084815260200190815260200160002060000160008373ffffffffffffffffffffffffffffffffffffffff1673ffffffffffffffffffffffffffffffffffffffff16815260200190815260200160002060006101000a81548160ff021916908315150217905550620025fc620024c6565b73ffffffffffffffffffffffffffffffffffffffff168173ffffffffffffffffffffffffffffffffffffffff16837f2f8788117e7eff1d82e926ec794901d17c78024a50270940304540a733656f0d60405160405180910390a45b5050565b620026678282620019f0565b156200273e5760006001600084815260200190815260200160002060000160008373ffffffffffffffffffffffffffffffffffffffff1673ffffffffffffffffffffffffffffffffffffffff16815260200190815260200160002060006101000a81548160ff021916908315150217905550620026e3620024c6565b73ffffffffffffffffffffffffffffffffffffffff168173ffffffffffffffffffffffffffffffffffffffff16837ff6391f5c32d9c69d2a47ea670b442974b53935d1edc7fd64eb21e047a839171b60405160405180910390a45b5050565b60006200274f3062002aae565b15905090565b62002761828262002576565b5050565b60008060029054906101000a900473ffffffffffffffffffffffffffffffffffffffff16905081600060026101000a81548173ffffffffffffffffffffffffffffffffffffffff021916908373ffffffffffffffffffffffffffffffffffffffff1602179055508173ffffffffffffffffffffffffffffffffffffffff168173ffffffffffffffffffffffffffffffffffffffff167f8be0079c531659141344cd1fd0a4f28419497f9722a3daafe3b4186f6b6457e060405160405180910390a35050565b60008151905060006a636f6e736f6c652e6c6f679050602083016000808483855afa5050505050565b606060006002836002620028689190620039f3565b62002874919062003996565b67ffffffffffffffff81111562002890576200288f62003cbb565b5b6040519080825280601f01601f191660200182016040528015620028c35781602001600182028036833780820191505090505b5090507f300000000000000000000000000000000000000000000000000000000000000081600081518110620028fe57620028fd62003c8c565b5b60200101907effffffffffffffffffffffffffffffffffffffffffffffffffffffffffffff1916908160001a9053507f78000000000000000000000000000000000000000000000000000000000000008160018151811062002965576200296462003c8c565b5b60200101907effffffffffffffffffffffffffffffffffffffffffffffffffffffffffffff1916908160001a90535060006001846002620029a79190620039f3565b620029b3919062003996565b90505b600181111562002a5d577f3031323334353637383961626364656600000000000000000000000000000000600f861660108110620029f957620029f862003c8c565b5b1a60f81b82828151811062002a135762002a1262003c8c565b5b60200101907effffffffffffffffffffffffffffffffffffffffffffffffffffffffffffff1916908160001a905350600485901c94508062002a559062003b45565b9050620029b6565b506000841462002aa4576040517f08c379a000000000000000000000000000000000000000000000000000000000815260040162002a9b9062003751565b60405180910390fd5b8091505092915050565b6000808273ffffffffffffffffffffffffffffffffffffffff163b119050919050565b82805462002adf9062003b74565b90600052602060002090601f01602090048101928262002b03576000855562002b4f565b82601f1062002b1e57803560ff191683800117855562002b4f565b8280016001018555821562002b4f579182015b8281111562002b4e57823582559160200191906001019062002b31565b5b50905062002b5e919062002be5565b5090565b610f9f8062003f7a83390190565b604051806101000160405280600890602082028036833780820191505090505090565b82805482825590600052602060002090810192821562002bd2579160200282015b8281111562002bd157825182559160200191906001019062002bb4565b5b50905062002be1919062002be5565b5090565b5b8082111562002c0057600081600090555060010162002be6565b5090565b600062002c1b62002c158462003885565b6200385c565b9050808382526020820190508285602086028201111562002c415762002c4062003cf4565b5b60005b8581101562002c75578162002c5a888262002cfa565b84526020840193506020830192505060018101905062002c44565b5050509392505050565b600062002c9662002c9084620038b4565b6200385c565b9050808382526020820190508285602086028201111562002cbc5762002cbb62003cf4565b5b60005b8581101562002cf0578162002cd5888262002e32565b84526020840193506020830192505060018101905062002cbf565b5050509392505050565b60008135905062002d0b8162003ef7565b92915050565b600082601f83011262002d295762002d2862003cef565b5b813562002d3b84826020860162002c04565b91505092915050565b600082601f83011262002d5c5762002d5b62003cef565b5b813562002d6e84826020860162002c7f565b91505092915050565b60008135905062002d888162003f11565b92915050565b60008151905062002d9f8162003f11565b92915050565b60008135905062002db68162003f2b565b92915050565b60008135905062002dcd8162003f45565b92915050565b60008083601f84011262002dec5762002deb62003cef565b5b8235905067ffffffffffffffff81111562002e0c5762002e0b62003cea565b5b60208301915083600182028301111562002e2b5762002e2a62003cf4565b5b9250929050565b60008135905062002e438162003f5f565b92915050565b60008151905062002e5a8162003f5f565b92915050565b60006020828403121562002e795762002e7862003cfe565b5b600062002e898482850162002cfa565b91505092915050565b6000806040838503121562002eac5762002eab62003cfe565b5b600062002ebc8582860162002cfa565b925050602062002ecf8582860162002e32565b9150509250929050565b60006020828403121562002ef25762002ef162003cfe565b5b600082013567ffffffffffffffff81111562002f135762002f1262003cf9565b5b62002f218482850162002d11565b91505092915050565b60006020828403121562002f435762002f4262003cfe565b5b600082013567ffffffffffffffff81111562002f645762002f6362003cf9565b5b62002f728482850162002d44565b91505092915050565b60006020828403121562002f945762002f9362003cfe565b5b600062002fa48482850162002d8e565b91505092915050565b60006020828403121562002fc65762002fc562003cfe565b5b600062002fd68482850162002da5565b91505092915050565b6000806040838503121562002ff95762002ff862003cfe565b5b6000620030098582860162002da5565b92505060206200301c8582860162002cfa565b9150509250929050565b6000602082840312156200303f576200303e62003cfe565b5b60006200304f8482850162002dbc565b91505092915050565b60008060008060008060008060008060006101408c8e03121562003081576200308062003cfe565b5b60008c013567ffffffffffffffff811115620030a257620030a162003cf9565b5b620030b08e828f0162002dd3565b9b509b50506020620030c58e828f0162002e32565b9950506040620030d88e828f0162002e32565b9850506060620030eb8e828f0162002d77565b9750506080620030fe8e828f0162002cfa565b96505060a0620031118e828f0162002cfa565b95505060c0620031248e828f0162002cfa565b94505060e0620031378e828f0162002cfa565b9350506101006200314b8e828f0162002cfa565b9250506101206200315f8e828f0162002cfa565b9150509295989b509295989b9093969950565b6000602082840312156200318b576200318a62003cfe565b5b60006200319b8482850162002e32565b91505092915050565b600060208284031215620031bd57620031bc62003cfe565b5b6000620031cd8482850162002e49565b91505092915050565b6000620031e4838362003561565b60208301905092915050565b620031fb8162003a8f565b82525050565b8082525050565b620032138162003912565b6200321f81846200394d565b92506200322c82620038e3565b8060005b8381101562003263578151620032478782620031d6565b9650620032548362003933565b92505060018101905062003230565b505050505050565b600062003278826200391d565b62003284818562003958565b93506200329183620038ed565b8060005b83811015620032c8578151620032ac8882620031d6565b9750620032b98362003940565b92505060018101905062003295565b5085935050505092915050565b620032e08162003aa3565b82525050565b620032f18162003aaf565b82525050565b8082525050565b60006200330b8262003928565b62003317818562003969565b93506200332981856020860162003b0f565b620033348162003d03565b840191505092915050565b60006200334c8262003928565b6200335881856200398b565b93506200336a81856020860162003b0f565b80840191505092915050565b60008154620033858162003b74565b6200339181866200397a565b94506001821660008114620033af5760018114620033c257620033f9565b60ff1983168652602086019350620033f9565b620033cd85620038fd565b60005b83811015620033f157815481890152600182019150602081019050620033d0565b808801955050505b50505092915050565b60006200341160208362003969565b91506200341e8262003d14565b602082019050919050565b60006200343860268362003969565b9150620034458262003d3d565b604082019050919050565b60006200345f601e8362003969565b91506200346c8262003d8c565b602082019050919050565b600062003486602e8362003969565b9150620034938262003db5565b604082019050919050565b6000620034ad60208362003969565b9150620034ba8262003e04565b602082019050919050565b6000620034d46017836200398b565b9150620034e18262003e2d565b601782019050919050565b6000620034fb60178362003969565b9150620035088262003e56565b602082019050919050565b6000620035226011836200398b565b91506200352f8262003e7f565b601182019050919050565b600062003549602f8362003969565b9150620035568262003ea8565b604082019050919050565b6200356c8162003b05565b82525050565b6200357d8162003b05565b82525050565b6200358e8162003b05565b82525050565b6000620035a182620034c5565b9150620035af82856200333f565b9150620035bc8262003513565b9150620035ca82846200333f565b91508190509392505050565b6000602082019050620035ed6000830184620031f0565b92915050565b60006060820190506200360a6000830186620031f0565b620036196020830185620031f0565b62003628604083018462003572565b949350505050565b6000604082019050620036476000830185620031f0565b62003656602083018462003572565b9392505050565b60006101008201905062003675600083018462003208565b92915050565b600060208201905081810360008301526200369781846200326b565b905092915050565b6000602082019050620036b66000830184620032d5565b92915050565b6000602082019050620036d36000830184620032e6565b92915050565b6000608082019050620036f06000830187620032f7565b620036ff602083018662003201565b6200370e604083018562003583565b818103606083015262003722818462003376565b905095945050505050565b60006020820190508181036000830152620037498184620032fe565b905092915050565b600060208201905081810360008301526200376c8162003402565b9050919050565b600060208201905081810360008301526200378e8162003429565b9050919050565b60006020820190508181036000830152620037b08162003450565b9050919050565b60006020820190508181036000830152620037d28162003477565b9050919050565b60006020820190508181036000830152620037f4816200349e565b9050919050565b600060208201905081810360008301526200381681620034ec565b9050919050565b6000602082019050818103600083015262003838816200353a565b9050919050565b600060208201905062003856600083018462003572565b92915050565b6000620038686200387b565b905062003876828262003baa565b919050565b6000604051905090565b600067ffffffffffffffff821115620038a357620038a262003cbb565b5b602082029050602081019050919050565b600067ffffffffffffffff821115620038d257620038d162003cbb565b5b602082029050602081019050919050565b6000819050919050565b6000819050602082019050919050565b60008190508160005260206000209050919050565b600060089050919050565b600081519050919050565b600081519050919050565b6000602082019050919050565b6000602082019050919050565b600081905092915050565b600082825260208201905092915050565b600082825260208201905092915050565b600082825260208201905092915050565b600081905092915050565b6000620039a38262003b05565b9150620039b08362003b05565b9250827fffffffffffffffffffffffffffffffffffffffffffffffffffffffffffffffff03821115620039e857620039e762003c2e565b5b828201905092915050565b600062003a008262003b05565b915062003a0d8362003b05565b9250817fffffffffffffffffffffffffffffffffffffffffffffffffffffffffffffffff048311821515161562003a495762003a4862003c2e565b5b828202905092915050565b600062003a618262003b05565b915062003a6e8362003b05565b92508282101562003a845762003a8362003c2e565b5b828203905092915050565b600062003a9c8262003ae5565b9050919050565b60008115159050919050565b6000819050919050565b60007fffffffff0000000000000000000000000000000000000000000000000000000082169050919050565b600073ffffffffffffffffffffffffffffffffffffffff82169050919050565b6000819050919050565b60005b8381101562003b2f57808201518184015260208101905062003b12565b8381111562003b3f576000848401525b50505050565b600062003b528262003b05565b9150600082141562003b695762003b6862003c2e565b5b600182039050919050565b6000600282049050600182168062003b8d57607f821691505b6020821081141562003ba45762003ba362003c5d565b5b50919050565b62003bb58262003d03565b810181811067ffffffffffffffff8211171562003bd75762003bd662003cbb565b5b80604052505050565b600062003bed8262003b05565b91507fffffffffffffffffffffffffffffffffffffffffffffffffffffffffffffffff82141562003c235762003c2262003c2e565b5b600182019050919050565b7f4e487b7100000000000000000000000000000000000000000000000000000000600052601160045260246000fd5b7f4e487b7100000000000000000000000000000000000000000000000000000000600052602260045260246000fd5b7f4e487b7100000000000000000000000000000000000000000000000000000000600052603260045260246000fd5b7f4e487b7100000000000000000000000000000000000000000000000000000000600052604160045260246000fd5b600080fd5b600080fd5b600080fd5b600080fd5b600080fd5b6000601f19601f8301169050919050565b7f537472696e67733a20686578206c656e67746820696e73756666696369656e74600082015250565b7f4f776e61626c653a206e6577206f776e657220697320746865207a65726f206160008201527f6464726573730000000000000000000000000000000000000000000000000000602082015250565b7f6c696e657570206973206c6f636b656420666f7220746865207765656b210000600082015250565b7f496e697469616c697a61626c653a20636f6e747261637420697320616c72656160008201527f647920696e697469616c697a6564000000000000000000000000000000000000602082015250565b7f4f776e61626c653a2063616c6c6572206973206e6f7420746865206f776e6572600082015250565b7f416363657373436f6e74726f6c3a206163636f756e7420000000000000000000600082015250565b7f4c656167756520456e74727920697320436c6f73656421000000000000000000600082015250565b7f206973206d697373696e6720726f6c6520000000000000000000000000000000600082015250565b7f416363657373436f6e74726f6c3a2063616e206f6e6c792072656e6f756e636560008201527f20726f6c657320666f722073656c660000000000000000000000000000000000602082015250565b62003f028162003a8f565b811462003f0e57600080fd5b50565b62003f1c8162003aa3565b811462003f2857600080fd5b50565b62003f368162003aaf565b811462003f4257600080fd5b50565b62003f508162003ab9565b811462003f5c57600080fd5b50565b62003f6a8162003b05565b811462003f7657600080fd5b5056fe608060405234801561001057600080fd5b5061002d61002261003260201b60201c565b61003a60201b60201c565b6100fe565b600033905090565b60008060009054906101000a900473ffffffffffffffffffffffffffffffffffffffff169050816000806101000a81548173ffffffffffffffffffffffffffffffffffffffff021916908373ffffffffffffffffffffffffffffffffffffffff1602179055508173ffffffffffffffffffffffffffffffffffffffff168173ffffffffffffffffffffffffffffffffffffffff167f8be0079c531659141344cd1fd0a4f28419497f9722a3daafe3b4186f6b6457e060405160405180910390a35050565b610e928061010d6000396000f3fe608060405234801561001057600080fd5b50600436106100935760003560e01c80638da5cb5b116100665780638da5cb5b146101325780639b19251a14610150578063dc9a153514610180578063e2ec6ec31461019e578063f2fde38b146101ce57610093565b806324953eaa14610098578063286dd3f5146100c8578063715018a6146100f85780637b9417c814610102575b600080fd5b6100b260048036038101906100ad9190610a4a565b6101ea565b6040516100bf9190610b12565b60405180910390f35b6100e260048036038101906100dd9190610a1d565b6102d4565b6040516100ef9190610b12565b60405180910390f35b610100610457565b005b61011c60048036038101906101179190610a1d565b6104df565b6040516101299190610b12565b60405180910390f35b61013a610660565b6040516101479190610af7565b60405180910390f35b61016a60048036038101906101659190610a1d565b610689565b6040516101779190610b12565b60405180910390f35b6101886106a9565b6040516101959190610b12565b60405180910390f35b6101b860048036038101906101b39190610a4a565b6106bc565b6040516101c59190610b12565b60405180910390f35b6101e860048036038101906101e39190610a1d565b6107a6565b005b60006101f461089e565b73ffffffffffffffffffffffffffffffffffffffff16610212610660565b73ffffffffffffffffffffffffffffffffffffffff1614610268576040517f08c379a000000000000000000000000000000000000000000000000000000000815260040161025f90610b4d565b60405180910390fd5b60005b82518110156102ce5761029783828151811061028a57610289610d4a565b5b60200260200101516102d4565b156102bb576001600260008282546102af9190610c25565b92505081905550600191505b80806102c690610cd2565b91505061026b565b50919050565b60006102de61089e565b73ffffffffffffffffffffffffffffffffffffffff166102fc610660565b73ffffffffffffffffffffffffffffffffffffffff1614610352576040517f08c379a000000000000000000000000000000000000000000000000000000000815260040161034990610b4d565b60405180910390fd5b600160008373ffffffffffffffffffffffffffffffffffffffff1673ffffffffffffffffffffffffffffffffffffffff16815260200190815260200160002060009054906101000a900460ff1615610452576000600160008473ffffffffffffffffffffffffffffffffffffffff1673ffffffffffffffffffffffffffffffffffffffff16815260200190815260200160002060006101000a81548160ff0219169083151502179055507ff1abf01a1043b7c244d128e8595cf0c1d10743b022b03a02dffd8ca3bf729f5a8260405161042b9190610af7565b60405180910390a16001600260008282546104469190610c25565b92505081905550600190505b919050565b61045f61089e565b73ffffffffffffffffffffffffffffffffffffffff1661047d610660565b73ffffffffffffffffffffffffffffffffffffffff16146104d3576040517f08c379a00000000000000000000000000000000000000000000000000000000081526004016104ca90610b4d565b60405180910390fd5b6104dd60006108a6565b565b60006104e961089e565b73ffffffffffffffffffffffffffffffffffffffff16610507610660565b73ffffffffffffffffffffffffffffffffffffffff161461055d576040517f08c379a000000000000000000000000000000000000000000000000000000000815260040161055490610b4d565b60405180910390fd5b600160008373ffffffffffffffffffffffffffffffffffffffff1673ffffffffffffffffffffffffffffffffffffffff16815260200190815260200160002060009054906101000a900460ff1661065b5760018060008473ffffffffffffffffffffffffffffffffffffffff1673ffffffffffffffffffffffffffffffffffffffff16815260200190815260200160002060006101000a81548160ff0219169083151502179055507fd1bba68c128cc3f427e5831b3c6f99f480b6efa6b9e80c757768f6124158cc3f826040516106349190610af7565b60405180910390a160016002600082825461064f9190610bcf565b92505081905550600190505b919050565b60008060009054906101000a900473ffffffffffffffffffffffffffffffffffffffff16905090565b60016020528060005260406000206000915054906101000a900460ff1681565b600360009054906101000a900460ff1681565b60006106c661089e565b73ffffffffffffffffffffffffffffffffffffffff166106e4610660565b73ffffffffffffffffffffffffffffffffffffffff161461073a576040517f08c379a000000000000000000000000000000000000000000000000000000000815260040161073190610b4d565b60405180910390fd5b60005b82518110156107a05761076983828151811061075c5761075b610d4a565b5b60200260200101516104df565b1561078d576001600260008282546107819190610bcf565b92505081905550600191505b808061079890610cd2565b91505061073d565b50919050565b6107ae61089e565b73ffffffffffffffffffffffffffffffffffffffff166107cc610660565b73ffffffffffffffffffffffffffffffffffffffff1614610822576040517f08c379a000000000000000000000000000000000000000000000000000000000815260040161081990610b4d565b60405180910390fd5b600073ffffffffffffffffffffffffffffffffffffffff168173ffffffffffffffffffffffffffffffffffffffff161415610892576040517f08c379a000000000000000000000000000000000000000000000000000000000815260040161088990610b2d565b60405180910390fd5b61089b816108a6565b50565b600033905090565b60008060009054906101000a900473ffffffffffffffffffffffffffffffffffffffff169050816000806101000a81548173ffffffffffffffffffffffffffffffffffffffff021916908373ffffffffffffffffffffffffffffffffffffffff1602179055508173ffffffffffffffffffffffffffffffffffffffff168173ffffffffffffffffffffffffffffffffffffffff167f8be0079c531659141344cd1fd0a4f28419497f9722a3daafe3b4186f6b6457e060405160405180910390a35050565b600061097d61097884610b92565b610b6d565b905080838252602082019050828560208602820111156109a05761099f610dad565b5b60005b858110156109d057816109b688826109da565b8452602084019350602083019250506001810190506109a3565b5050509392505050565b6000813590506109e981610e45565b92915050565b600082601f830112610a0457610a03610da8565b5b8135610a1484826020860161096a565b91505092915050565b600060208284031215610a3357610a32610db7565b5b6000610a41848285016109da565b91505092915050565b600060208284031215610a6057610a5f610db7565b5b600082013567ffffffffffffffff811115610a7e57610a7d610db2565b5b610a8a848285016109ef565b91505092915050565b610a9c81610c59565b82525050565b610aab81610c6b565b82525050565b6000610abe602683610bbe565b9150610ac982610dcd565b604082019050919050565b6000610ae1602083610bbe565b9150610aec82610e1c565b602082019050919050565b6000602082019050610b0c6000830184610a93565b92915050565b6000602082019050610b276000830184610aa2565b92915050565b60006020820190508181036000830152610b4681610ab1565b9050919050565b60006020820190508181036000830152610b6681610ad4565b9050919050565b6000610b77610b88565b9050610b838282610ca1565b919050565b6000604051905090565b600067ffffffffffffffff821115610bad57610bac610d79565b5b602082029050602081019050919050565b600082825260208201905092915050565b6000610bda82610c97565b9150610be583610c97565b9250827fffffffffffffffffffffffffffffffffffffffffffffffffffffffffffffffff03821115610c1a57610c19610d1b565b5b828201905092915050565b6000610c3082610c97565b9150610c3b83610c97565b925082821015610c4e57610c4d610d1b565b5b828203905092915050565b6000610c6482610c77565b9050919050565b60008115159050919050565b600073ffffffffffffffffffffffffffffffffffffffff82169050919050565b6000819050919050565b610caa82610dbc565b810181811067ffffffffffffffff82111715610cc957610cc8610d79565b5b80604052505050565b6000610cdd82610c97565b91507fffffffffffffffffffffffffffffffffffffffffffffffffffffffffffffffff821415610d1057610d0f610d1b565b5b600182019050919050565b7f4e487b7100000000000000000000000000000000000000000000000000000000600052601160045260246000fd5b7f4e487b7100000000000000000000000000000000000000000000000000000000600052603260045260246000fd5b7f4e487b7100000000000000000000000000000000000000000000000000000000600052604160045260246000fd5b600080fd5b600080fd5b600080fd5b600080fd5b6000601f19601f8301169050919050565b7f4f776e61626c653a206e6577206f776e657220697320746865207a65726f206160008201527f6464726573730000000000000000000000000000000000000000000000000000602082015250565b7f4f776e61626c653a2063616c6c6572206973206e6f7420746865206f776e6572600082015250565b610e4e81610c59565b8114610e5957600080fd5b5056fea2646970667358221220a21085165a95bba102b3fe59880e17f3027964706b8a63561e6b8ccd43ba90fb64736f6c63430008070033746f6f206d616e7920757365727320696e206c656167756520746f20616464206e65772075736572a2646970667358221220ec4eba857d0dfa35e8dc89db90186fc8a720d1aed513a47d82bc67fbfd2c30d564736f6c63430008070033",
  "linkReferences": {
    "contracts/MOBALogicLibrary.sol": {
      "MOBALogicLibrary": [
        {
          "length": 20,
          "start": 2860
        }
      ]
    }
  },
  "deployedLinkReferences": {
    "contracts/MOBALogicLibrary.sol": {
      "MOBALogicLibrary": [
        {
          "length": 20,
          "start": 2583
        }
      ]
    }
  }
}