{
  "_format": "hh-sol-artifact-1",
  "contractName": "LeagueOfLegendsLogic",
  "sourceName": "contracts/LeagueOfLegendsLogic.sol",
  "abi": [
    {
      "anonymous": false,
      "inputs": [
        {
          "indexed": true,
          "internalType": "address",
          "name": "previousOwner",
          "type": "address"
        },
        {
          "indexed": true,
          "internalType": "address",
          "name": "newOwner",
          "type": "address"
        }
      ],
      "name": "OwnershipTransferred",
      "type": "event"
    },
    {
      "anonymous": false,
      "inputs": [
        {
          "indexed": false,
          "internalType": "address",
          "name": "sender",
          "type": "address"
        },
        {
          "indexed": false,
          "internalType": "uint256",
          "name": "amount",
          "type": "uint256"
        }
      ],
      "name": "Staked",
      "type": "event"
    },
    {
      "anonymous": false,
      "inputs": [
        {
          "indexed": false,
          "internalType": "address",
          "name": "addr",
          "type": "address"
        }
      ],
      "name": "WhitelistedAddressAdded",
      "type": "event"
    },
    {
      "anonymous": false,
      "inputs": [
        {
          "indexed": false,
          "internalType": "address",
          "name": "addr",
          "type": "address"
        }
      ],
      "name": "WhitelistedAddressRemoved",
      "type": "event"
    },
    {
      "anonymous": false,
      "inputs": [
        {
          "indexed": false,
          "internalType": "address[]",
          "name": "winner",
          "type": "address[]"
        },
        {
          "indexed": false,
          "internalType": "uint256",
          "name": "prizePotPerWinner",
          "type": "uint256"
        }
      ],
      "name": "leagueEnded",
      "type": "event"
    },
    {
      "anonymous": false,
      "inputs": [
        {
          "indexed": false,
          "internalType": "address",
          "name": "sender",
          "type": "address"
        },
        {
          "indexed": false,
          "internalType": "address",
          "name": "contractAddress",
          "type": "address"
        }
      ],
      "name": "testUSDCDeployed",
      "type": "event"
    },
    {
      "inputs": [
        {
          "internalType": "address",
          "name": "addr",
          "type": "address"
        }
      ],
      "name": "addAddressToWhitelist",
      "outputs": [
        {
          "internalType": "bool",
          "name": "success",
          "type": "bool"
        }
      ],
      "stateMutability": "nonpayable",
      "type": "function"
    },
    {
      "inputs": [
        {
          "internalType": "address[]",
          "name": "addrs",
          "type": "address[]"
        }
      ],
      "name": "addAddressesToWhitelist",
      "outputs": [
        {
          "internalType": "bool",
          "name": "success",
          "type": "bool"
        }
      ],
      "stateMutability": "nonpayable",
      "type": "function"
    },
    {
      "inputs": [
        {
          "internalType": "address",
          "name": "_userToAdd",
          "type": "address"
        }
      ],
      "name": "addUserToWhitelist",
      "outputs": [],
      "stateMutability": "nonpayable",
      "type": "function"
    },
    {
      "inputs": [],
      "name": "admin",
      "outputs": [
        {
          "internalType": "address",
          "name": "",
          "type": "address"
        }
      ],
      "stateMutability": "view",
      "type": "function"
    },
    {
      "inputs": [],
      "name": "currentWeekNum",
      "outputs": [
        {
          "internalType": "uint256",
          "name": "",
          "type": "uint256"
        }
      ],
      "stateMutability": "view",
      "type": "function"
    },
    {
      "inputs": [],
      "name": "evaluateMatches",
      "outputs": [],
      "stateMutability": "nonpayable",
      "type": "function"
    },
    {
      "inputs": [],
      "name": "getContractUSDCBalance",
      "outputs": [
        {
          "internalType": "uint256",
          "name": "",
          "type": "uint256"
        }
      ],
      "stateMutability": "view",
      "type": "function"
    },
    {
      "inputs": [
        {
          "internalType": "uint256",
          "name": "index",
          "type": "uint256"
        }
      ],
      "name": "getLeagueMember",
      "outputs": [
        {
          "internalType": "address",
          "name": "",
          "type": "address"
        }
      ],
      "stateMutability": "view",
      "type": "function"
    },
    {
      "inputs": [
        {
          "internalType": "address",
          "name": "_user",
          "type": "address"
        }
      ],
      "name": "getLineup",
      "outputs": [
        {
          "internalType": "uint256[]",
          "name": "",
          "type": "uint256[]"
        }
      ],
      "stateMutability": "view",
      "type": "function"
    },
    {
      "inputs": [],
      "name": "getLineupIsLocked",
      "outputs": [
        {
          "internalType": "bool",
          "name": "",
          "type": "bool"
        }
      ],
      "stateMutability": "view",
      "type": "function"
    },
    {
      "inputs": [],
      "name": "getNumWhitelisted",
      "outputs": [
        {
          "internalType": "uint256",
          "name": "",
          "type": "uint256"
        }
      ],
      "stateMutability": "view",
      "type": "function"
    },
    {
      "inputs": [
        {
          "internalType": "uint256",
          "name": "_week",
          "type": "uint256"
        }
      ],
      "name": "getScheduleForWeek",
      "outputs": [
        {
          "components": [
            {
              "internalType": "address[2]",
              "name": "players",
              "type": "address[2]"
            }
          ],
          "internalType": "struct LeagueOfLegendsLogic.Matchup[]",
          "name": "",
          "type": "tuple[]"
        }
      ],
      "stateMutability": "view",
      "type": "function"
    },
    {
      "inputs": [
        {
          "internalType": "address",
          "name": "_user",
          "type": "address"
        }
      ],
      "name": "getUserIsWhitelisted",
      "outputs": [
        {
          "internalType": "bool",
          "name": "",
          "type": "bool"
        }
      ],
      "stateMutability": "view",
      "type": "function"
    },
    {
      "inputs": [],
      "name": "getUserRecord",
      "outputs": [
        {
          "internalType": "uint256[]",
          "name": "",
          "type": "uint256[]"
        }
      ],
      "stateMutability": "view",
      "type": "function"
    },
    {
      "inputs": [
        {
          "internalType": "address",
          "name": "",
          "type": "address"
        }
      ],
      "name": "inLeague",
      "outputs": [
        {
          "internalType": "bool",
          "name": "",
          "type": "bool"
        }
      ],
      "stateMutability": "view",
      "type": "function"
    },
    {
      "inputs": [
        {
          "internalType": "string",
          "name": "_name",
          "type": "string"
        },
        {
          "internalType": "uint256",
          "name": "_stakeAmount",
          "type": "uint256"
        },
        {
          "internalType": "bool",
          "name": "_isPublic",
          "type": "bool"
        },
        {
          "internalType": "address",
          "name": "athletesDataStorageAddress",
          "type": "address"
        },
        {
          "internalType": "address",
          "name": "_admin",
          "type": "address"
        },
        {
          "internalType": "address",
          "name": "_rinkebyUSDCAddress",
          "type": "address"
        },
        {
          "internalType": "address",
          "name": "_testUSDCAddress",
          "type": "address"
        },
        {
          "internalType": "address",
          "name": "_gameItemsContractAddress",
          "type": "address"
        },
        {
          "internalType": "address",
          "name": "_teamDiffAddress",
          "type": "address"
        },
        {
          "internalType": "address",
          "name": "_leagueMakerContractAddress",
          "type": "address"
        }
      ],
      "name": "initialize",
      "outputs": [],
      "stateMutability": "nonpayable",
      "type": "function"
    },
    {
      "inputs": [],
      "name": "isPublic",
      "outputs": [
        {
          "internalType": "bool",
          "name": "",
          "type": "bool"
        }
      ],
      "stateMutability": "view",
      "type": "function"
    },
    {
      "inputs": [],
      "name": "joinLeague",
      "outputs": [],
      "stateMutability": "nonpayable",
      "type": "function"
    },
    {
      "inputs": [],
      "name": "leagueEntryIsClosed",
      "outputs": [
        {
          "internalType": "bool",
          "name": "",
          "type": "bool"
        }
      ],
      "stateMutability": "view",
      "type": "function"
    },
    {
      "inputs": [
        {
          "internalType": "uint256",
          "name": "",
          "type": "uint256"
        }
      ],
      "name": "leagueMembers",
      "outputs": [
        {
          "internalType": "address",
          "name": "",
          "type": "address"
        }
      ],
      "stateMutability": "view",
      "type": "function"
    },
    {
      "inputs": [],
      "name": "leagueName",
      "outputs": [
        {
          "internalType": "string",
          "name": "",
          "type": "string"
        }
      ],
      "stateMutability": "view",
      "type": "function"
    },
    {
      "inputs": [],
      "name": "lineupIsLocked",
      "outputs": [
        {
          "internalType": "bool",
          "name": "",
          "type": "bool"
        }
      ],
      "stateMutability": "view",
      "type": "function"
    },
    {
      "inputs": [],
      "name": "lockLineup",
      "outputs": [],
      "stateMutability": "nonpayable",
      "type": "function"
    },
    {
      "inputs": [],
      "name": "numWeeks",
      "outputs": [
        {
          "internalType": "uint256",
          "name": "",
          "type": "uint256"
        }
      ],
      "stateMutability": "view",
      "type": "function"
    },
    {
      "inputs": [],
      "name": "onLeagueEnd",
      "outputs": [],
      "stateMutability": "nonpayable",
      "type": "function"
    },
    {
      "inputs": [],
      "name": "owner",
      "outputs": [
        {
          "internalType": "address",
          "name": "",
          "type": "address"
        }
      ],
      "stateMutability": "view",
      "type": "function"
    },
    {
      "inputs": [
        {
          "internalType": "address",
          "name": "addr",
          "type": "address"
        }
      ],
      "name": "removeAddressFromWhitelist",
      "outputs": [
        {
          "internalType": "bool",
          "name": "success",
          "type": "bool"
        }
      ],
      "stateMutability": "nonpayable",
      "type": "function"
    },
    {
      "inputs": [
        {
          "internalType": "address[]",
          "name": "addrs",
          "type": "address[]"
        }
      ],
      "name": "removeAddressesFromWhitelist",
      "outputs": [
        {
          "internalType": "bool",
          "name": "success",
          "type": "bool"
        }
      ],
      "stateMutability": "nonpayable",
      "type": "function"
    },
    {
      "inputs": [],
      "name": "renounceOwnership",
      "outputs": [],
      "stateMutability": "nonpayable",
      "type": "function"
    },
    {
      "inputs": [],
      "name": "rinkebyUSDC",
      "outputs": [
        {
          "internalType": "contract IERC20",
          "name": "",
          "type": "address"
        }
      ],
      "stateMutability": "view",
      "type": "function"
    },
    {
      "inputs": [],
      "name": "rinkebyUSDCAddress",
      "outputs": [
        {
          "internalType": "address",
          "name": "",
          "type": "address"
        }
      ],
      "stateMutability": "view",
      "type": "function"
    },
    {
      "inputs": [],
      "name": "setLeagueEntryIsClosed",
      "outputs": [],
      "stateMutability": "nonpayable",
      "type": "function"
    },
    {
      "inputs": [],
      "name": "setLeagueSchedule",
      "outputs": [],
      "stateMutability": "nonpayable",
      "type": "function"
    },
    {
      "inputs": [
        {
          "internalType": "uint256[]",
          "name": "athleteIds",
          "type": "uint256[]"
        }
      ],
      "name": "setLineup",
      "outputs": [],
      "stateMutability": "nonpayable",
      "type": "function"
    },
    {
      "inputs": [],
      "name": "stakeAmount",
      "outputs": [
        {
          "internalType": "uint256",
          "name": "",
          "type": "uint256"
        }
      ],
      "stateMutability": "view",
      "type": "function"
    },
    {
      "inputs": [],
      "name": "teamDiffAddress",
      "outputs": [
        {
          "internalType": "address",
          "name": "",
          "type": "address"
        }
      ],
      "stateMutability": "view",
      "type": "function"
    },
    {
      "inputs": [
        {
          "internalType": "address",
          "name": "newOwner",
          "type": "address"
        }
      ],
      "name": "transferOwnership",
      "outputs": [],
      "stateMutability": "nonpayable",
      "type": "function"
    },
    {
      "inputs": [],
      "name": "unlockLineup",
      "outputs": [],
      "stateMutability": "nonpayable",
      "type": "function"
    },
    {
      "inputs": [
        {
          "internalType": "address",
          "name": "",
          "type": "address"
        },
        {
          "internalType": "uint256",
          "name": "",
          "type": "uint256"
        }
      ],
      "name": "userToLineup",
      "outputs": [
        {
          "internalType": "uint256",
          "name": "",
          "type": "uint256"
        }
      ],
      "stateMutability": "view",
      "type": "function"
    },
    {
      "inputs": [
        {
          "internalType": "address",
          "name": "",
          "type": "address"
        }
      ],
      "name": "userToPoints",
      "outputs": [
        {
          "internalType": "uint256",
          "name": "",
          "type": "uint256"
        }
      ],
      "stateMutability": "view",
      "type": "function"
    },
    {
      "inputs": [
        {
          "internalType": "address",
          "name": "",
          "type": "address"
        },
        {
          "internalType": "uint256",
          "name": "",
          "type": "uint256"
        }
      ],
      "name": "userToRecord",
      "outputs": [
        {
          "internalType": "uint256",
          "name": "",
          "type": "uint256"
        }
      ],
      "stateMutability": "view",
      "type": "function"
    },
    {
      "inputs": [
        {
          "internalType": "address",
          "name": "",
          "type": "address"
        }
      ],
      "name": "whitelist",
      "outputs": [
        {
          "internalType": "bool",
          "name": "",
          "type": "bool"
        }
      ],
      "stateMutability": "view",
      "type": "function"
    },
    {
      "inputs": [],
      "name": "whitelistContract",
      "outputs": [
        {
          "internalType": "contract Whitelist",
          "name": "",
          "type": "address"
        }
      ],
      "stateMutability": "view",
      "type": "function"
    }
  ],
  "bytecode": "0x60806040523480156200001157600080fd5b5062000032620000266200004060201b60201c565b6200004860201b60201c565b60016004819055506200010d565b600033905090565b60008060029054906101000a900473ffffffffffffffffffffffffffffffffffffffff16905081600060026101000a81548173ffffffffffffffffffffffffffffffffffffffff021916908373ffffffffffffffffffffffffffffffffffffffff1602179055508173ffffffffffffffffffffffffffffffffffffffff168173ffffffffffffffffffffffffffffffffffffffff167f8be0079c531659141344cd1fd0a4f28419497f9722a3daafe3b4186f6b6457e060405160405180910390a35050565b615ce2806200011d6000396000f3fe60806040523480156200001157600080fd5b5060043610620002a25760003560e01c80637b9417c81162000171578063cff5600311620000d5578063e5f7322f1162000093578063e5f7322f14620007cd578063ee90080f1462000803578063f2fde38b1462000839578063f612121a1462000859578063f851a4401462000879578063f8816045146200089b57620002a2565b8063cff5600314620006fd578063dc9a15351462000733578063e2ec6ec31462000755578063e35a8999146200078b578063e4c9066b14620007c157620002a2565b80639122ce6d116200012f5780639122ce6d146200064b5780639b19251a1462000681578063a2bc091a14620006b7578063a949a9d714620006c3578063c8be3b5b14620006e5578063c99fea9414620006f157620002a2565b80637b9417c8146200058d5780637eed33f114620005c3578063841abf6e14620005e557806384900b0414620006075780638da5cb5b146200062957620002a2565b8063286dd3f5116200021957806344eaa84e11620001d757806344eaa84e14620004d957806352e6e5f314620004fb57806360c7dc47146200051d5780636cc15ad5146200053f578063715018a61462000561578063747b8050146200056d57620002a2565b8063286dd3f5146200040b5780632ae6b13514620004415780632d382ee01462000477578063305a578214620004ad5780633c3ae13f14620004b957620002a2565b80631d803e0011620002675780631d803e00146200034f5780631dd7f8ca146200035b57806324953eaa146200037d578063267175db14620003b357806327311b3214620003e957620002a2565b80622772c214620002a7578062b2476f14620002c95780630635dbcb14620002eb5780630655465a146200030d5780630c6f79591462000319575b600080fd5b620002b1620008bd565b604051620002c09190620041e0565b60405180910390f35b620002d362000975565b604051620002e2919062003d98565b60405180910390f35b620002f56200099b565b60405162000304919062003edf565b60405180910390f35b62000317620009ae565b005b62000337600480360381019062000331919062003480565b62000ab9565b604051620003469190620041e0565b60405180910390f35b6200035962000aeb565b005b6200036562000f32565b60405162000374919062003d98565b60405180910390f35b6200039b6004803603810190620003959190620034c7565b62000f58565b604051620003aa919062003edf565b60405180910390f35b620003d16004803603810190620003cb9190620036b5565b62001039565b604051620003e0919062003d98565b60405180910390f35b620003f362001079565b60405162000402919062003edf565b60405180910390f35b6200042960048036038101906200042391906200344e565b62001090565b60405162000438919062003edf565b60405180910390f35b6200045f60048036038101906200045991906200344e565b6200121f565b6040516200046e9190620041e0565b60405180910390f35b6200049560048036038101906200048f9190620036b5565b62001237565b604051620004a4919062003e97565b60405180910390f35b620004b762001328565b005b620004d76004803603810190620004d191906200359b565b620014a0565b005b620004e3620017fc565b604051620004f29190620041e0565b60405180910390f35b6200050562001806565b604051620005149190620041e0565b60405180910390f35b620005276200180c565b604051620005369190620041e0565b60405180910390f35b6200054962001812565b60405162000558919062003edf565b60405180910390f35b6200056b62001825565b005b6200058b60048036038101906200058591906200344e565b620018b6565b005b620005ab6004803603810190620005a591906200344e565b62001ae4565b604051620005ba919062003edf565b60405180910390f35b620005cd62001c71565b604051620005dc9190620041e0565b60405180910390f35b620005ef62001c77565b604051620005fe919062003f8a565b60405180910390f35b6200061162001d0d565b60405162000620919062003f19565b60405180910390f35b6200063362001d33565b60405162000642919062003d98565b60405180910390f35b6200066960048036038101906200066391906200344e565b62001d5c565b60405162000678919062003edf565b60405180910390f35b6200069f60048036038101906200069991906200344e565b62001d7c565b604051620006ae919062003edf565b60405180910390f35b620006c162001d9c565b005b620006cd62001e4c565b604051620006dc919062003efc565b60405180910390f35b620006ef62001e72565b005b620006fb62001f22565b005b6200071b600480360381019062000715919062003480565b62002453565b6040516200072a9190620041e0565b60405180910390f35b6200073d62002485565b6040516200074c919062003edf565b60405180910390f35b6200077360048036038101906200076d9190620034c7565b62002498565b60405162000782919062003edf565b60405180910390f35b620007a96004803603810190620007a391906200344e565b62002579565b604051620007b8919062003edf565b60405180910390f35b620007cb620025cf565b005b620007eb6004803603810190620007e591906200344e565b6200267f565b604051620007fa919062003ebb565b60405180910390f35b6200082160048036038101906200081b9190620036b5565b62002718565b60405162000830919062003d98565b60405180910390f35b6200085760048036038101906200085191906200344e565b62002763565b005b62000877600480360381019062000871919062003518565b62002867565b005b6200088362002d4d565b60405162000892919062003d98565b60405180910390f35b620008a562002d73565b604051620008b4919062003ebb565b60405180910390f35b6000601760009054906101000a900473ffffffffffffffffffffffffffffffffffffffff1673ffffffffffffffffffffffffffffffffffffffff166370a08231306040518263ffffffff1660e01b81526004016200091c919062003d98565b60206040518083038186803b1580156200093557600080fd5b505afa1580156200094a573d6000803e3d6000fd5b505050506040513d601f19601f82011682018060405250810190620009709190620036e7565b905090565b601360009054906101000a900473ffffffffffffffffffffffffffffffffffffffff1681565b600a60159054906101000a900460ff1681565b600a60009054906101000a900473ffffffffffffffffffffffffffffffffffffffff1673ffffffffffffffffffffffffffffffffffffffff163373ffffffffffffffffffffffffffffffffffffffff161462000a41576040517f08c379a000000000000000000000000000000000000000000000000000000000815260040162000a3890620040f2565b60405180910390fd5b73__$36fdb4e0c2cb91f3ceca5ea81b025328f3$__63d2c232b56012601060065460056040518563ffffffff1660e01b815260040162000a85949392919062003f36565b60006040518083038186803b15801562000a9e57600080fd5b505af415801562000ab3573d6000803e3d6000fd5b50505050565b600c602052816000526040600020818154811062000ad657600080fd5b90600052602060002001600091509150505481565b600a60009054906101000a900473ffffffffffffffffffffffffffffffffffffffff1673ffffffffffffffffffffffffffffffffffffffff163373ffffffffffffffffffffffffffffffffffffffff161462000b7e576040517f08c379a000000000000000000000000000000000000000000000000000000000815260040162000b7590620040f2565b60405180910390fd5b600060075460108054905062000b959190620044b6565b905073__$36fdb4e0c2cb91f3ceca5ea81b025328f3$__63cc9b40cc6010600e60116040518463ffffffff1660e01b815260040162000bd79392919062003e1f565b60006040518083038186803b15801562000bf057600080fd5b505af415801562000c05573d6000803e3d6000fd5b5050505060005b60118054905081101562000c7c5762000c666011828154811062000c355762000c34620047ea565b5b9060005260206000200160009054906101000a900473ffffffffffffffffffffffffffffffffffffffff1662002e0a565b808062000c73906200470f565b91505062000c0c565b5060006011805490508262000c9291906200447e565b905062000cda6040518060400160405280601681526020017f4c65616775652077696e6e657273206c656e206973200000000000000000000081525060118054905062002ea7565b62000d1b6040518060400160405280601681526020017f5072697a65207065722077696e6e6572206973203a20000000000000000000008152508262002ea7565b7f648f2405ea194f3e49fe1655279883b3474e63909ab7e4a579b051d548ad838960118260405162000d4f92919062003e63565b60405180910390a160005b60118054905081101562000f2d57601760009054906101000a900473ffffffffffffffffffffffffffffffffffffffff1673ffffffffffffffffffffffffffffffffffffffff1663095ea7b330846040518363ffffffff1660e01b815260040162000dc792919062003df2565b602060405180830381600087803b15801562000de257600080fd5b505af115801562000df7573d6000803e3d6000fd5b505050506040513d601f19601f8201168201806040525081019062000e1d919062003569565b50601760009054906101000a900473ffffffffffffffffffffffffffffffffffffffff1673ffffffffffffffffffffffffffffffffffffffff166323b872dd306011848154811062000e745762000e73620047ea565b5b9060005260206000200160009054906101000a900473ffffffffffffffffffffffffffffffffffffffff16856040518463ffffffff1660e01b815260040162000ec09392919062003db5565b602060405180830381600087803b15801562000edb57600080fd5b505af115801562000ef0573d6000803e3d6000fd5b505050506040513d601f19601f8201168201806040525081019062000f16919062003569565b50808062000f24906200470f565b91505062000d5a565b505050565b600a60009054906101000a900473ffffffffffffffffffffffffffffffffffffffff1681565b600062000f6462002f47565b73ffffffffffffffffffffffffffffffffffffffff1662000f8462001d33565b73ffffffffffffffffffffffffffffffffffffffff161462000fdd576040517f08c379a000000000000000000000000000000000000000000000000000000000815260040162000fd490620040ae565b60405180910390fd5b60005b8251811015620010335762001012838281518110620010045762001003620047ea565b5b602002602001015162001090565b156200101d57600191505b80806200102a906200470f565b91505062000fe0565b50919050565b601081815481106200104a57600080fd5b906000526020600020016000915054906101000a900473ffffffffffffffffffffffffffffffffffffffff1681565b6000600a60159054906101000a900460ff16905090565b60006200109c62002f47565b73ffffffffffffffffffffffffffffffffffffffff16620010bc62001d33565b73ffffffffffffffffffffffffffffffffffffffff161462001115576040517f08c379a00000000000000000000000000000000000000000000000000000000081526004016200110c90620040ae565b60405180910390fd5b600160008373ffffffffffffffffffffffffffffffffffffffff1673ffffffffffffffffffffffffffffffffffffffff16815260200190815260200160002060009054906101000a900460ff16156200121a576000600160008473ffffffffffffffffffffffffffffffffffffffff1673ffffffffffffffffffffffffffffffffffffffff16815260200190815260200160002060006101000a81548160ff0219169083151502179055507ff1abf01a1043b7c244d128e8595cf0c1d10743b022b03a02dffd8ca3bf729f5a82604051620011f1919062003d98565b60405180910390a16001600260008282546200120e919062004517565b92505081905550600190505b919050565b600e6020528060005260406000206000915090505481565b606060126000838152602001908152602001600020805480602002602001604051908101604052809291908181526020016000905b828210156200131d57838290600052602060002090600202016040518060200160405290816000820160028060200260405190810160405280929190826002801562001304576020028201915b8160009054906101000a900473ffffffffffffffffffffffffffffffffffffffff1673ffffffffffffffffffffffffffffffffffffffff1681526020019060010190808311620012b9575b505050505081525050815260200190600101906200126c565b505050509050919050565b600a60009054906101000a900473ffffffffffffffffffffffffffffffffffffffff1673ffffffffffffffffffffffffffffffffffffffff163373ffffffffffffffffffffffffffffffffffffffff1614620013bb576040517f08c379a0000000000000000000000000000000000000000000000000000000008152600401620013b290620040f2565b60405180910390fd5b73__$36fdb4e0c2cb91f3ceca5ea81b025328f3$__63c930f4bc600854601460009054906101000a900473ffffffffffffffffffffffffffffffffffffffff16600c600d600e60126040518763ffffffff1660e01b81526004016200142696959493929190620041fd565b60006040518083038186803b1580156200143f57600080fd5b505af415801562001454573d6000803e3d6000fd5b50505050600160065462001469919062004517565b600854141562001483576200147d62000aeb565b6200149e565b6008600081548092919062001498906200470f565b91905055505b565b600060019054906101000a900460ff16620014ca5760008054906101000a900460ff1615620014d5565b620014d462002f4f565b5b62001517576040517f08c379a00000000000000000000000000000000000000000000000000000000081526004016200150e906200408c565b60405180910390fd5b60008060019054906101000a900460ff16159050801562001568576001600060016101000a81548160ff02191690831515021790555060016000806101000a81548160ff0219169083151502179055505b8b8b600591906200157b92919062003110565b50600860068190555086600960006101000a81548173ffffffffffffffffffffffffffffffffffffffff021916908373ffffffffffffffffffffffffffffffffffffffff1602179055508960078190555088600360006101000a81548160ff0219169083151502179055506000600a60146101000a81548160ff0219169083151502179055506000600a60156101000a81548160ff02191690831515021790555087601460006101000a81548173ffffffffffffffffffffffffffffffffffffffff021916908373ffffffffffffffffffffffffffffffffffffffff1602179055506040516200166b90620031a1565b604051809103906000f08015801562001688573d6000803e3d6000fd5b50601560006101000a81548173ffffffffffffffffffffffffffffffffffffffff021916908373ffffffffffffffffffffffffffffffffffffffff16021790555085601760006101000a81548173ffffffffffffffffffffffffffffffffffffffff021916908373ffffffffffffffffffffffffffffffffffffffff16021790555082600a60006101000a81548173ffffffffffffffffffffffffffffffffffffffff021916908373ffffffffffffffffffffffffffffffffffffffff16021790555083601860006101000a81548173ffffffffffffffffffffffffffffffffffffffff021916908373ffffffffffffffffffffffffffffffffffffffff160217905550620017cc6040518060400160405280601281526020017f50726f787920696e697469616c697a656421000000000000000000000000000081525062002f62565b8015620017ee5760008060016101000a81548160ff0219169083151502179055505b505050505050505050505050565b6000600254905090565b60085481565b60075481565b600a60149054906101000a900460ff1681565b6200182f62002f47565b73ffffffffffffffffffffffffffffffffffffffff166200184f62001d33565b73ffffffffffffffffffffffffffffffffffffffff1614620018a8576040517f08c379a00000000000000000000000000000000000000000000000000000000081526004016200189f90620040ae565b60405180910390fd5b620018b4600062002fff565b565b600960009054906101000a900473ffffffffffffffffffffffffffffffffffffffff1673ffffffffffffffffffffffffffffffffffffffff163373ffffffffffffffffffffffffffffffffffffffff161462001949576040517f08c379a00000000000000000000000000000000000000000000000000000000081526004016200194090620040d0565b60405180910390fd5b600a60149054906101000a900460ff16156200199c576040517f08c379a0000000000000000000000000000000000000000000000000000000008152600401620019939062004158565b60405180910390fd5b601560009054906101000a900473ffffffffffffffffffffffffffffffffffffffff1673ffffffffffffffffffffffffffffffffffffffff16637b9417c8826040518263ffffffff1660e01b8152600401620019f9919062003d98565b602060405180830381600087803b15801562001a1457600080fd5b505af115801562001a29573d6000803e3d6000fd5b505050506040513d601f19601f8201168201806040525081019062001a4f919062003569565b50601660009054906101000a900473ffffffffffffffffffffffffffffffffffffffff1673ffffffffffffffffffffffffffffffffffffffff1663771bd4ce826040518263ffffffff1660e01b815260040162001aad919062003d98565b600060405180830381600087803b15801562001ac857600080fd5b505af115801562001add573d6000803e3d6000fd5b5050505050565b600062001af062002f47565b73ffffffffffffffffffffffffffffffffffffffff1662001b1062001d33565b73ffffffffffffffffffffffffffffffffffffffff161462001b69576040517f08c379a000000000000000000000000000000000000000000000000000000000815260040162001b6090620040ae565b60405180910390fd5b600160008373ffffffffffffffffffffffffffffffffffffffff1673ffffffffffffffffffffffffffffffffffffffff16815260200190815260200160002060009054906101000a900460ff1662001c6c5760018060008473ffffffffffffffffffffffffffffffffffffffff1673ffffffffffffffffffffffffffffffffffffffff16815260200190815260200160002060006101000a81548160ff0219169083151502179055507fd1bba68c128cc3f427e5831b3c6f99f480b6efa6b9e80c757768f6124158cc3f8260405162001c43919062003d98565b60405180910390a160016002600082825462001c60919062004421565b92505081905550600190505b919050565b60065481565b6005805462001c869062004685565b80601f016020809104026020016040519081016040528092919081815260200182805462001cb49062004685565b801562001d055780601f1062001cd95761010080835404028352916020019162001d05565b820191906000526020600020905b81548152906001019060200180831162001ce757829003601f168201915b505050505081565b601560009054906101000a900473ffffffffffffffffffffffffffffffffffffffff1681565b60008060029054906101000a900473ffffffffffffffffffffffffffffffffffffffff16905090565b600f6020528060005260406000206000915054906101000a900460ff1681565b60016020528060005260406000206000915054906101000a900460ff1681565b600a60009054906101000a900473ffffffffffffffffffffffffffffffffffffffff1673ffffffffffffffffffffffffffffffffffffffff163373ffffffffffffffffffffffffffffffffffffffff161462001e2f576040517f08c379a000000000000000000000000000000000000000000000000000000000815260040162001e2690620040f2565b60405180910390fd5b6000600a60156101000a81548160ff021916908315150217905550565b601760009054906101000a900473ffffffffffffffffffffffffffffffffffffffff1681565b600a60009054906101000a900473ffffffffffffffffffffffffffffffffffffffff1673ffffffffffffffffffffffffffffffffffffffff163373ffffffffffffffffffffffffffffffffffffffff161462001f05576040517f08c379a000000000000000000000000000000000000000000000000000000000815260040162001efc90620040f2565b60405180910390fd5b6001600a60156101000a81548160ff021916908315150217905550565b6002600454141562001f6b576040517f08c379a000000000000000000000000000000000000000000000000000000000815260040162001f62906200419c565b60405180910390fd5b6002600481905550601560009054906101000a900473ffffffffffffffffffffffffffffffffffffffff1673ffffffffffffffffffffffffffffffffffffffff16639b19251a336040518263ffffffff1660e01b815260040162001fd0919062003d98565b60206040518083038186803b15801562001fe957600080fd5b505afa15801562001ffe573d6000803e3d6000fd5b505050506040513d601f19601f8201168201806040525081019062002024919062003569565b806200207d5750600960009054906101000a900473ffffffffffffffffffffffffffffffffffffffff1673ffffffffffffffffffffffffffffffffffffffff163373ffffffffffffffffffffffffffffffffffffffff16145b620020bf576040517f08c379a0000000000000000000000000000000000000000000000000000000008152600401620020b69062004136565b60405180910390fd5b600a60149054906101000a900460ff161562002112576040517f08c379a00000000000000000000000000000000000000000000000000000000081526004016200210990620041be565b60405180910390fd5b600f60003373ffffffffffffffffffffffffffffffffffffffff1673ffffffffffffffffffffffffffffffffffffffff16815260200190815260200160002060009054906101000a900460ff1615620021a2576040517f08c379a0000000000000000000000000000000000000000000000000000000008152600401620021999062004026565b60405180910390fd5b600754601760009054906101000a900473ffffffffffffffffffffffffffffffffffffffff1673ffffffffffffffffffffffffffffffffffffffff166370a08231336040518263ffffffff1660e01b815260040162002202919062003d98565b60206040518083038186803b1580156200221b57600080fd5b505afa15801562002230573d6000803e3d6000fd5b505050506040513d601f19601f82011682018060405250810190620022569190620036e7565b1162002299576040517f08c379a0000000000000000000000000000000000000000000000000000000008152600401620022909062004004565b60405180910390fd5b6001600f60003373ffffffffffffffffffffffffffffffffffffffff1673ffffffffffffffffffffffffffffffffffffffff16815260200190815260200160002060006101000a81548160ff0219169083151502179055506010339080600181540180825580915050600190039060005260206000200160009091909190916101000a81548173ffffffffffffffffffffffffffffffffffffffff021916908373ffffffffffffffffffffffffffffffffffffffff160217905550601760009054906101000a900473ffffffffffffffffffffffffffffffffffffffff1673ffffffffffffffffffffffffffffffffffffffff1663a9059cbb306007546040518363ffffffff1660e01b8152600401620023b592919062003df2565b602060405180830381600087803b158015620023d057600080fd5b505af1158015620023e5573d6000803e3d6000fd5b505050506040513d601f19601f820116820180604052508101906200240b919062003569565b507f9e71bc8eea02a63969f509818f2dafb9254532904319f9dbda79b67bd34a5f3d336007546040516200244192919062003df2565b60405180910390a16001600481905550565b600d60205281600052604060002081815481106200247057600080fd5b90600052602060002001600091509150505481565b600360009054906101000a900460ff1681565b6000620024a462002f47565b73ffffffffffffffffffffffffffffffffffffffff16620024c462001d33565b73ffffffffffffffffffffffffffffffffffffffff16146200251d576040517f08c379a00000000000000000000000000000000000000000000000000000000081526004016200251490620040ae565b60405180910390fd5b60005b8251811015620025735762002552838281518110620025445762002543620047ea565b5b602002602001015162001ae4565b156200255d57600191505b80806200256a906200470f565b91505062002520565b50919050565b6000600160008373ffffffffffffffffffffffffffffffffffffffff1673ffffffffffffffffffffffffffffffffffffffff16815260200190815260200160002060009054906101000a900460ff169050919050565b600a60009054906101000a900473ffffffffffffffffffffffffffffffffffffffff1673ffffffffffffffffffffffffffffffffffffffff163373ffffffffffffffffffffffffffffffffffffffff161462002662576040517f08c379a00000000000000000000000000000000000000000000000000000000081526004016200265990620040f2565b60405180910390fd5b6001600a60146101000a81548160ff021916908315150217905550565b6060600d60008373ffffffffffffffffffffffffffffffffffffffff1673ffffffffffffffffffffffffffffffffffffffff1681526020019081526020016000208054806020026020016040519081016040528092919081815260200182805480156200270c57602002820191906000526020600020905b815481526020019060010190808311620026f7575b50505050509050919050565b600060108281548110620027315762002730620047ea565b5b9060005260206000200160009054906101000a900473ffffffffffffffffffffffffffffffffffffffff169050919050565b6200276d62002f47565b73ffffffffffffffffffffffffffffffffffffffff166200278d62001d33565b73ffffffffffffffffffffffffffffffffffffffff1614620027e6576040517f08c379a0000000000000000000000000000000000000000000000000000000008152600401620027dd90620040ae565b60405180910390fd5b600073ffffffffffffffffffffffffffffffffffffffff168173ffffffffffffffffffffffffffffffffffffffff16141562002859576040517f08c379a0000000000000000000000000000000000000000000000000000000008152600401620028509062003fe2565b60405180910390fd5b620028648162002fff565b50565b600a60159054906101000a900460ff1615620028ba576040517f08c379a0000000000000000000000000000000000000000000000000000000008152600401620028b1906200406a565b60405180910390fd5b600f60003373ffffffffffffffffffffffffffffffffffffffff1673ffffffffffffffffffffffffffffffffffffffff16815260200190815260200160002060009054906101000a900460ff1662002949576040517f08c379a0000000000000000000000000000000000000000000000000000000008152600401620029409062004114565b60405180910390fd5b60005b600d60003373ffffffffffffffffffffffffffffffffffffffff1673ffffffffffffffffffffffffffffffffffffffff1681526020019081526020016000208054905081101562002a4e57600b6000600d60003373ffffffffffffffffffffffffffffffffffffffff1673ffffffffffffffffffffffffffffffffffffffff1681526020019081526020016000208381548110620029ef57620029ee620047ea565b5b906000526020600020015481526020019081526020016000206008546008811062002a1f5762002a1e620047ea565b5b01600081548092919062002a339062004656565b9190505550808062002a45906200470f565b9150506200294c565b5060005b815181101562002ad257600b600083838151811062002a765762002a75620047ea565b5b602002602001015181526020019081526020016000206008546008811062002aa35762002aa2620047ea565b5b01600081548092919062002ab7906200470f565b9190505550808062002ac9906200470f565b91505062002a52565b5060005b815181101562002c0a576000601860009054906101000a900473ffffffffffffffffffffffffffffffffffffffff1673ffffffffffffffffffffffffffffffffffffffff1662fdd58e3385858151811062002b365762002b35620047ea565b5b60200260200101516040518363ffffffff1660e01b815260040162002b5d92919062003df2565b60206040518083038186803b15801562002b7657600080fd5b505afa15801562002b8b573d6000803e3d6000fd5b505050506040513d601f19601f8201168201806040525081019062002bb19190620036e7565b1162002bf4576040517f08c379a000000000000000000000000000000000000000000000000000000000815260040162002beb906200417a565b60405180910390fd5b808062002c01906200470f565b91505062002ad6565b5060005b815181101562002cf357600a8162002c279190620044b6565b82828151811062002c3d5762002c3c620047ea565b5b60200260200101511015801562002c9b57506001600a60018362002c62919062004421565b62002c6e9190620044b6565b62002c7a919062004517565b82828151811062002c905762002c8f620047ea565b5b602002602001015111155b62002cdd576040517f08c379a000000000000000000000000000000000000000000000000000000000815260040162002cd49062004048565b60405180910390fd5b808062002cea906200470f565b91505062002c0e565b5080600d60003373ffffffffffffffffffffffffffffffffffffffff1673ffffffffffffffffffffffffffffffffffffffff168152602001908152602001600020908051906020019062002d49929190620031af565b5050565b600960009054906101000a900473ffffffffffffffffffffffffffffffffffffffff1681565b6060600c60003373ffffffffffffffffffffffffffffffffffffffff1673ffffffffffffffffffffffffffffffffffffffff16815260200190815260200160002080548060200260200160405190810160405280929190818152602001828054801562002e0057602002820191906000526020600020905b81548152602001906001019080831162002deb575b5050505050905090565b62002ea48160405160240162002e21919062003d98565b6040516020818303038152906040527f2c2ecbc2000000000000000000000000000000000000000000000000000000007bffffffffffffffffffffffffffffffffffffffffffffffffffffffff19166020820180517bffffffffffffffffffffffffffffffffffffffffffffffffffffffff8381831617835250505050620030c4565b50565b62002f43828260405160240162002ec092919062003fae565b6040516020818303038152906040527f9710a9d0000000000000000000000000000000000000000000000000000000007bffffffffffffffffffffffffffffffffffffffffffffffffffffffff19166020820180517bffffffffffffffffffffffffffffffffffffffffffffffffffffffff8381831617835250505050620030c4565b5050565b600033905090565b600062002f5c30620030ed565b15905090565b62002ffc8160405160240162002f79919062003f8a565b6040516020818303038152906040527f41304fac000000000000000000000000000000000000000000000000000000007bffffffffffffffffffffffffffffffffffffffffffffffffffffffff19166020820180517bffffffffffffffffffffffffffffffffffffffffffffffffffffffff8381831617835250505050620030c4565b50565b60008060029054906101000a900473ffffffffffffffffffffffffffffffffffffffff16905081600060026101000a81548173ffffffffffffffffffffffffffffffffffffffff021916908373ffffffffffffffffffffffffffffffffffffffff1602179055508173ffffffffffffffffffffffffffffffffffffffff168173ffffffffffffffffffffffffffffffffffffffff167f8be0079c531659141344cd1fd0a4f28419497f9722a3daafe3b4186f6b6457e060405160405180910390a35050565b60008151905060006a636f6e736f6c652e6c6f679050602083016000808483855afa5050505050565b6000808273ffffffffffffffffffffffffffffffffffffffff163b119050919050565b8280546200311e9062004685565b90600052602060002090601f0160209004810192826200314257600085556200318e565b82601f106200315d57803560ff19168380011785556200318e565b828001600101855582156200318e579182015b828111156200318d57823582559160200191906001019062003170565b5b5090506200319d919062003201565b5090565b6110598062004c5483390190565b828054828255906000526020600020908101928215620031ee579160200282015b82811115620031ed578251825591602001919060010190620031d0565b5b509050620031fd919062003201565b5090565b5b808211156200321c57600081600090555060010162003202565b5090565b600062003237620032318462004293565b6200426a565b905080838252602082019050828560208602820111156200325d576200325c62004867565b5b60005b8581101562003291578162003276888262003316565b84526020840193506020830192505060018101905062003260565b5050509392505050565b6000620032b2620032ac84620042c2565b6200426a565b90508083825260208201905082856020860282011115620032d857620032d762004867565b5b60005b858110156200330c5781620032f1888262003420565b845260208401935060208301925050600181019050620032db565b5050509392505050565b600081359050620033278162004c05565b92915050565b600082601f83011262003345576200334462004862565b5b81356200335784826020860162003220565b91505092915050565b600082601f83011262003378576200337762004862565b5b81356200338a8482602086016200329b565b91505092915050565b600081359050620033a48162004c1f565b92915050565b600081519050620033bb8162004c1f565b92915050565b60008083601f840112620033da57620033d962004862565b5b8235905067ffffffffffffffff811115620033fa57620033f96200485d565b5b60208301915083600182028301111562003419576200341862004867565b5b9250929050565b600081359050620034318162004c39565b92915050565b600081519050620034488162004c39565b92915050565b60006020828403121562003467576200346662004871565b5b6000620034778482850162003316565b91505092915050565b600080604083850312156200349a576200349962004871565b5b6000620034aa8582860162003316565b9250506020620034bd8582860162003420565b9150509250929050565b600060208284031215620034e057620034df62004871565b5b600082013567ffffffffffffffff8111156200350157620035006200486c565b5b6200350f848285016200332d565b91505092915050565b60006020828403121562003531576200353062004871565b5b600082013567ffffffffffffffff8111156200355257620035516200486c565b5b620035608482850162003360565b91505092915050565b60006020828403121562003582576200358162004871565b5b60006200359284828501620033aa565b91505092915050565b60008060008060008060008060008060006101408c8e031215620035c457620035c362004871565b5b60008c013567ffffffffffffffff811115620035e557620035e46200486c565b5b620035f38e828f01620033c1565b9b509b50506020620036088e828f0162003420565b99505060406200361b8e828f0162003393565b98505060606200362e8e828f0162003316565b9750506080620036418e828f0162003316565b96505060a0620036548e828f0162003316565b95505060c0620036678e828f0162003316565b94505060e06200367a8e828f0162003316565b9350506101006200368e8e828f0162003316565b925050610120620036a28e828f0162003316565b9150509295989b509295989b9093969950565b600060208284031215620036ce57620036cd62004871565b5b6000620036de8482850162003420565b91505092915050565b6000602082840312156200370057620036ff62004871565b5b6000620037108482850162003437565b91505092915050565b600062003727838362003781565b60208301905092915050565b6000620037418383620037a3565b60208301905092915050565b60006200375b838362003d47565b60408301905092915050565b600062003775838362003d65565b60208301905092915050565b6200378c8162004572565b82525050565b6200379d8162004572565b82525050565b620037ae8162004572565b82525050565b620037bf8162004345565b620037cb8184620043b0565b9250620037d882620042f1565b8060005b838110156200380f578151620037f3878262003719565b965062003800836200437c565b925050600181019050620037dc565b505050505050565b6000620038248262004350565b620038308185620043bb565b93506200383d83620042fb565b8060005b838110156200387d57620038558262004848565b62003861888262003719565b97506200386e8362004389565b92505060018101905062003841565b5085935050505092915050565b6000620038978262004350565b620038a38185620043cc565b9350620038b083620042fb565b8060005b83811015620038f057620038c88262004848565b620038d4888262003733565b9750620038e18362004389565b925050600181019050620038b4565b5085935050505092915050565b8082525050565b600062003911826200435b565b6200391d8185620043dd565b93506200392a8362004310565b8060005b83811015620039615781516200394588826200374d565b9750620039528362004396565b9250506001810190506200392e565b5085935050505092915050565b60006200397b8262004366565b620039878185620043ee565b9350620039948362004320565b8060005b83811015620039cb578151620039af888262003767565b9750620039bc83620043a3565b92505060018101905062003998565b5085935050505092915050565b620039e38162004586565b82525050565b620039f481620045bc565b82525050565b62003a0581620045d0565b82525050565b62003a1681620045e4565b82525050565b8082525050565b8082525050565b8082525050565b600062003a3e8262004371565b62003a4a8185620043ff565b935062003a5c81856020860162004620565b62003a678162004876565b840191505092915050565b6000815462003a818162004685565b62003a8d818662004410565b9450600182166000811462003aab576001811462003abe5762003af5565b60ff198316865260208601935062003af5565b62003ac98562004330565b60005b8381101562003aed5781548189015260018201915060208101905062003acc565b808801955050505b50505092915050565b600062003b0d602683620043ff565b915062003b1a8262004894565b604082019050919050565b600062003b34601d83620043ff565b915062003b4182620048e3565b602082019050919050565b600062003b5b602383620043ff565b915062003b68826200490c565b604082019050919050565b600062003b82603183620043ff565b915062003b8f826200495b565b604082019050919050565b600062003ba9601e83620043ff565b915062003bb682620049aa565b602082019050919050565b600062003bd0602e83620043ff565b915062003bdd82620049d3565b604082019050919050565b600062003bf7602083620043ff565b915062003c048262004a22565b602082019050919050565b600062003c1e601783620043ff565b915062003c2b8262004a4b565b602082019050919050565b600062003c45601683620043ff565b915062003c528262004a74565b602082019050919050565b600062003c6c601683620043ff565b915062003c798262004a9d565b602082019050919050565b600062003c93601c83620043ff565b915062003ca08262004ac6565b602082019050919050565b600062003cba604183620043ff565b915062003cc78262004aef565b606082019050919050565b600062003ce1602483620043ff565b915062003cee8262004b64565b604082019050919050565b600062003d08601f83620043ff565b915062003d158262004bb3565b602082019050919050565b600062003d2f601783620043ff565b915062003d3c8262004bdc565b602082019050919050565b60408201600082015162003d5f6000850182620037b4565b50505050565b62003d7081620045b2565b82525050565b62003d8181620045b2565b82525050565b62003d9281620045b2565b82525050565b600060208201905062003daf600083018462003792565b92915050565b600060608201905062003dcc600083018662003792565b62003ddb602083018562003792565b62003dea604083018462003d76565b949350505050565b600060408201905062003e09600083018562003792565b62003e18602083018462003d76565b9392505050565b6000606082019050818103600083015262003e3b81866200388a565b905062003e4c602083018562003a23565b62003e5b6040830184620038fd565b949350505050565b6000604082019050818103600083015262003e7f818562003817565b905062003e90602083018462003d76565b9392505050565b6000602082019050818103600083015262003eb3818462003904565b905092915050565b6000602082019050818103600083015262003ed781846200396e565b905092915050565b600060208201905062003ef66000830184620039d8565b92915050565b600060208201905062003f136000830184620039fa565b92915050565b600060208201905062003f30600083018462003a0b565b92915050565b600060808201905062003f4d600083018762003a2a565b62003f5c6020830186620038fd565b62003f6b604083018562003d87565b818103606083015262003f7f818462003a72565b905095945050505050565b6000602082019050818103600083015262003fa6818462003a31565b905092915050565b6000604082019050818103600083015262003fca818562003a31565b905062003fdb602083018462003d76565b9392505050565b6000602082019050818103600083015262003ffd8162003afe565b9050919050565b600060208201905081810360008301526200401f8162003b25565b9050919050565b60006020820190508181036000830152620040418162003b4c565b9050919050565b60006020820190508181036000830152620040638162003b73565b9050919050565b60006020820190508181036000830152620040858162003b9a565b9050919050565b60006020820190508181036000830152620040a78162003bc1565b9050919050565b60006020820190508181036000830152620040c98162003be8565b9050919050565b60006020820190508181036000830152620040eb8162003c0f565b9050919050565b600060208201905081810360008301526200410d8162003c36565b9050919050565b600060208201905081810360008301526200412f8162003c5d565b9050919050565b60006020820190508181036000830152620041518162003c84565b9050919050565b60006020820190508181036000830152620041738162003cab565b9050919050565b60006020820190508181036000830152620041958162003cd2565b9050919050565b60006020820190508181036000830152620041b78162003cf9565b9050919050565b60006020820190508181036000830152620041d98162003d20565b9050919050565b6000602082019050620041f7600083018462003d76565b92915050565b600060c08201905062004214600083018962003d87565b620042236020830188620039e9565b62004232604083018762003a1c565b62004241606083018662003a1c565b62004250608083018562003a23565b6200425f60a083018462003a2a565b979650505050505050565b60006200427662004289565b9050620042848282620046d9565b919050565b6000604051905090565b600067ffffffffffffffff821115620042b157620042b062004819565b5b602082029050602081019050919050565b600067ffffffffffffffff821115620042e057620042df62004819565b5b602082029050602081019050919050565b6000819050919050565b60008190508160005260206000209050919050565b6000819050602082019050919050565b6000819050602082019050919050565b60008190508160005260206000209050919050565b600060029050919050565b600081549050919050565b600081519050919050565b600081519050919050565b600081519050919050565b6000602082019050919050565b6000600182019050919050565b6000602082019050919050565b6000602082019050919050565b600081905092915050565b600082825260208201905092915050565b600082825260208201905092915050565b600082825260208201905092915050565b600082825260208201905092915050565b600082825260208201905092915050565b600082825260208201905092915050565b60006200442e82620045b2565b91506200443b83620045b2565b9250827fffffffffffffffffffffffffffffffffffffffffffffffffffffffffffffffff038211156200447357620044726200475d565b5b828201905092915050565b60006200448b82620045b2565b91506200449883620045b2565b925082620044ab57620044aa6200478c565b5b828204905092915050565b6000620044c382620045b2565b9150620044d083620045b2565b9250817fffffffffffffffffffffffffffffffffffffffffffffffffffffffffffffffff04831182151516156200450c576200450b6200475d565b5b828202905092915050565b60006200452482620045b2565b91506200453183620045b2565b9250828210156200454757620045466200475d565b5b828203905092915050565b600073ffffffffffffffffffffffffffffffffffffffff82169050919050565b60006200457f8262004592565b9050919050565b60008115159050919050565b600073ffffffffffffffffffffffffffffffffffffffff82169050919050565b6000819050919050565b6000620045c982620045f8565b9050919050565b6000620045dd82620045f8565b9050919050565b6000620045f182620045f8565b9050919050565b600062004605826200460c565b9050919050565b6000620046198262004592565b9050919050565b60005b838110156200464057808201518184015260208101905062004623565b8381111562004650576000848401525b50505050565b60006200466382620045b2565b915060008214156200467a57620046796200475d565b5b600182039050919050565b600060028204905060018216806200469e57607f821691505b60208210811415620046b557620046b4620047bb565b5b50919050565b6000620046d2620046cc8362004887565b62004552565b9050919050565b620046e48262004876565b810181811067ffffffffffffffff8211171562004706576200470562004819565b5b80604052505050565b60006200471c82620045b2565b91507fffffffffffffffffffffffffffffffffffffffffffffffffffffffffffffffff8214156200475257620047516200475d565b5b600182019050919050565b7f4e487b7100000000000000000000000000000000000000000000000000000000600052601160045260246000fd5b7f4e487b7100000000000000000000000000000000000000000000000000000000600052601260045260246000fd5b7f4e487b7100000000000000000000000000000000000000000000000000000000600052602260045260246000fd5b7f4e487b7100000000000000000000000000000000000000000000000000000000600052603260045260246000fd5b7f4e487b7100000000000000000000000000000000000000000000000000000000600052604160045260246000fd5b6000620048568254620046bb565b9050919050565b600080fd5b600080fd5b600080fd5b600080fd5b600080fd5b6000601f19601f8301169050919050565b60008160001c9050919050565b7f4f776e61626c653a206e6577206f776e657220697320746865207a65726f206160008201527f6464726573730000000000000000000000000000000000000000000000000000602082015250565b7f496e737566666963656e742066756e647320666f72207374616b696e67000000600082015250565b7f596f75206861766520616c7265616479206a6f696e65642074686973206c656160008201527f6775650000000000000000000000000000000000000000000000000000000000602082015250565b7f596f75206172652073657474696e6720616e206174686c65746520696e20746860008201527f652077726f6e6720706f736974696f6e21000000000000000000000000000000602082015250565b7f6c696e657570206973206c6f636b656420666f7220746865207765656b210000600082015250565b7f496e697469616c697a61626c653a20636f6e747261637420697320616c72656160008201527f647920696e697469616c697a6564000000000000000000000000000000000000602082015250565b7f4f776e61626c653a2063616c6c6572206973206e6f7420746865206f776e6572600082015250565b7f43616c6c6572206973206e6f74207468652061646d696e000000000000000000600082015250565b7f43616c6c6572206973206e6f74205465616d4469666600000000000000000000600082015250565b7f55736572206973206e6f7420696e204c65616775652e00000000000000000000600082015250565b7f55736572206973206e6f74206f6e2077686974656c6973742062726f00000000600082015250565b7f4e6f626f64792063616e20656e7465722f6578697420746865206c656167756560008201527f20616e796d6f72652e2054686520736561736f6e20686173207374617274656460208201527f2100000000000000000000000000000000000000000000000000000000000000604082015250565b7f43616c6c657220646f6573206e6f74206f776e20676976656e206174686c657460008201527f6549647300000000000000000000000000000000000000000000000000000000602082015250565b7f5265656e7472616e637947756172643a207265656e7472616e742063616c6c00600082015250565b7f4c656167756520456e74727920697320436c6f73656421000000000000000000600082015250565b62004c108162004572565b811462004c1c57600080fd5b50565b62004c2a8162004586565b811462004c3657600080fd5b50565b62004c4481620045b2565b811462004c5057600080fd5b5056fe608060405234801561001057600080fd5b5061002d61002261003260201b60201c565b61003a60201b60201c565b6100fe565b600033905090565b60008060009054906101000a900473ffffffffffffffffffffffffffffffffffffffff169050816000806101000a81548173ffffffffffffffffffffffffffffffffffffffff021916908373ffffffffffffffffffffffffffffffffffffffff1602179055508173ffffffffffffffffffffffffffffffffffffffff168173ffffffffffffffffffffffffffffffffffffffff167f8be0079c531659141344cd1fd0a4f28419497f9722a3daafe3b4186f6b6457e060405160405180910390a35050565b610f4c8061010d6000396000f3fe608060405234801561001057600080fd5b50600436106100a95760003560e01c80638da5cb5b116100715780638da5cb5b146101665780639b19251a14610184578063dc9a1535146101b4578063e2ec6ec3146101d2578063e35a899914610202578063f2fde38b14610232576100a9565b806324953eaa146100ae578063286dd3f5146100de57806344eaa84e1461010e578063715018a61461012c5780637b9417c814610136575b600080fd5b6100c860048036038101906100c39190610ada565b61024e565b6040516100d59190610bb1565b60405180910390f35b6100f860048036038101906100f39190610aad565b61031e565b6040516101059190610bb1565b60405180910390f35b6101166104a1565b6040516101239190610c0c565b60405180910390f35b6101346104ab565b005b610150600480360381019061014b9190610aad565b610533565b60405161015d9190610bb1565b60405180910390f35b61016e6106b4565b60405161017b9190610b96565b60405180910390f35b61019e60048036038101906101999190610aad565b6106dd565b6040516101ab9190610bb1565b60405180910390f35b6101bc6106fd565b6040516101c99190610bb1565b60405180910390f35b6101ec60048036038101906101e79190610ada565b610710565b6040516101f99190610bb1565b60405180910390f35b61021c60048036038101906102179190610aad565b6107e0565b6040516102299190610bb1565b60405180910390f35b61024c60048036038101906102479190610aad565b610836565b005b600061025861092e565b73ffffffffffffffffffffffffffffffffffffffff166102766106b4565b73ffffffffffffffffffffffffffffffffffffffff16146102cc576040517f08c379a00000000000000000000000000000000000000000000000000000000081526004016102c390610bec565b60405180910390fd5b60005b8251811015610318576102fb8382815181106102ee576102ed610e04565b5b602002602001015161031e565b1561030557600191505b808061031090610d8c565b9150506102cf565b50919050565b600061032861092e565b73ffffffffffffffffffffffffffffffffffffffff166103466106b4565b73ffffffffffffffffffffffffffffffffffffffff161461039c576040517f08c379a000000000000000000000000000000000000000000000000000000000815260040161039390610bec565b60405180910390fd5b600160008373ffffffffffffffffffffffffffffffffffffffff1673ffffffffffffffffffffffffffffffffffffffff16815260200190815260200160002060009054906101000a900460ff161561049c576000600160008473ffffffffffffffffffffffffffffffffffffffff1673ffffffffffffffffffffffffffffffffffffffff16815260200190815260200160002060006101000a81548160ff0219169083151502179055507ff1abf01a1043b7c244d128e8595cf0c1d10743b022b03a02dffd8ca3bf729f5a826040516104759190610b96565b60405180910390a16001600260008282546104909190610cdf565b92505081905550600190505b919050565b6000600254905090565b6104b361092e565b73ffffffffffffffffffffffffffffffffffffffff166104d16106b4565b73ffffffffffffffffffffffffffffffffffffffff1614610527576040517f08c379a000000000000000000000000000000000000000000000000000000000815260040161051e90610bec565b60405180910390fd5b6105316000610936565b565b600061053d61092e565b73ffffffffffffffffffffffffffffffffffffffff1661055b6106b4565b73ffffffffffffffffffffffffffffffffffffffff16146105b1576040517f08c379a00000000000000000000000000000000000000000000000000000000081526004016105a890610bec565b60405180910390fd5b600160008373ffffffffffffffffffffffffffffffffffffffff1673ffffffffffffffffffffffffffffffffffffffff16815260200190815260200160002060009054906101000a900460ff166106af5760018060008473ffffffffffffffffffffffffffffffffffffffff1673ffffffffffffffffffffffffffffffffffffffff16815260200190815260200160002060006101000a81548160ff0219169083151502179055507fd1bba68c128cc3f427e5831b3c6f99f480b6efa6b9e80c757768f6124158cc3f826040516106889190610b96565b60405180910390a16001600260008282546106a39190610c89565b92505081905550600190505b919050565b60008060009054906101000a900473ffffffffffffffffffffffffffffffffffffffff16905090565b60016020528060005260406000206000915054906101000a900460ff1681565b600360009054906101000a900460ff1681565b600061071a61092e565b73ffffffffffffffffffffffffffffffffffffffff166107386106b4565b73ffffffffffffffffffffffffffffffffffffffff161461078e576040517f08c379a000000000000000000000000000000000000000000000000000000000815260040161078590610bec565b60405180910390fd5b60005b82518110156107da576107bd8382815181106107b0576107af610e04565b5b6020026020010151610533565b156107c757600191505b80806107d290610d8c565b915050610791565b50919050565b6000600160008373ffffffffffffffffffffffffffffffffffffffff1673ffffffffffffffffffffffffffffffffffffffff16815260200190815260200160002060009054906101000a900460ff169050919050565b61083e61092e565b73ffffffffffffffffffffffffffffffffffffffff1661085c6106b4565b73ffffffffffffffffffffffffffffffffffffffff16146108b2576040517f08c379a00000000000000000000000000000000000000000000000000000000081526004016108a990610bec565b60405180910390fd5b600073ffffffffffffffffffffffffffffffffffffffff168173ffffffffffffffffffffffffffffffffffffffff161415610922576040517f08c379a000000000000000000000000000000000000000000000000000000000815260040161091990610bcc565b60405180910390fd5b61092b81610936565b50565b600033905090565b60008060009054906101000a900473ffffffffffffffffffffffffffffffffffffffff169050816000806101000a81548173ffffffffffffffffffffffffffffffffffffffff021916908373ffffffffffffffffffffffffffffffffffffffff1602179055508173ffffffffffffffffffffffffffffffffffffffff168173ffffffffffffffffffffffffffffffffffffffff167f8be0079c531659141344cd1fd0a4f28419497f9722a3daafe3b4186f6b6457e060405160405180910390a35050565b6000610a0d610a0884610c4c565b610c27565b90508083825260208201905082856020860282011115610a3057610a2f610e67565b5b60005b85811015610a605781610a468882610a6a565b845260208401935060208301925050600181019050610a33565b5050509392505050565b600081359050610a7981610eff565b92915050565b600082601f830112610a9457610a93610e62565b5b8135610aa48482602086016109fa565b91505092915050565b600060208284031215610ac357610ac2610e71565b5b6000610ad184828501610a6a565b91505092915050565b600060208284031215610af057610aef610e71565b5b600082013567ffffffffffffffff811115610b0e57610b0d610e6c565b5b610b1a84828501610a7f565b91505092915050565b610b2c81610d13565b82525050565b610b3b81610d25565b82525050565b6000610b4e602683610c78565b9150610b5982610e87565b604082019050919050565b6000610b71602083610c78565b9150610b7c82610ed6565b602082019050919050565b610b9081610d51565b82525050565b6000602082019050610bab6000830184610b23565b92915050565b6000602082019050610bc66000830184610b32565b92915050565b60006020820190508181036000830152610be581610b41565b9050919050565b60006020820190508181036000830152610c0581610b64565b9050919050565b6000602082019050610c216000830184610b87565b92915050565b6000610c31610c42565b9050610c3d8282610d5b565b919050565b6000604051905090565b600067ffffffffffffffff821115610c6757610c66610e33565b5b602082029050602081019050919050565b600082825260208201905092915050565b6000610c9482610d51565b9150610c9f83610d51565b9250827fffffffffffffffffffffffffffffffffffffffffffffffffffffffffffffffff03821115610cd457610cd3610dd5565b5b828201905092915050565b6000610cea82610d51565b9150610cf583610d51565b925082821015610d0857610d07610dd5565b5b828203905092915050565b6000610d1e82610d31565b9050919050565b60008115159050919050565b600073ffffffffffffffffffffffffffffffffffffffff82169050919050565b6000819050919050565b610d6482610e76565b810181811067ffffffffffffffff82111715610d8357610d82610e33565b5b80604052505050565b6000610d9782610d51565b91507fffffffffffffffffffffffffffffffffffffffffffffffffffffffffffffffff821415610dca57610dc9610dd5565b5b600182019050919050565b7f4e487b7100000000000000000000000000000000000000000000000000000000600052601160045260246000fd5b7f4e487b7100000000000000000000000000000000000000000000000000000000600052603260045260246000fd5b7f4e487b7100000000000000000000000000000000000000000000000000000000600052604160045260246000fd5b600080fd5b600080fd5b600080fd5b600080fd5b6000601f19601f8301169050919050565b7f4f776e61626c653a206e6577206f776e657220697320746865207a65726f206160008201527f6464726573730000000000000000000000000000000000000000000000000000602082015250565b7f4f776e61626c653a2063616c6c6572206973206e6f7420746865206f776e6572600082015250565b610f0881610d13565b8114610f1357600080fd5b5056fea264697066735822122025b390357f22f9269bde80291a8d0e54585b05677bc0732b426001d35eb8569364736f6c63430008070033a2646970667358221220b7bbcbbbaa353a99dc069c9bdb2b00cfc1d20d27c3e127e7b4af0422e71a568664736f6c63430008070033",
  "linkReferences": {
    "contracts/MOBALogicLibrary.sol": {
      "MOBALogicLibrary": [
        {
          "length": 20,
          "start": 2912
        },
        {
          "length": 20,
          "start": 3254
        },
        {
          "length": 20,
          "start": 5338
        }
      ]
    }
  },
  "deployedLinkReferences": {
    "contracts/MOBALogicLibrary.sol": {
      "MOBALogicLibrary": [
        {
          "length": 20,
          "start": 2627
        },
        {
          "length": 20,
          "start": 2969
        },
        {
          "length": 20,
          "start": 5053
        }
      ]
    }
  }
}