{
  "_format": "hh-sol-artifact-1",
  "contractName": "LeagueOfLegendsLogic",
  "sourceName": "contracts/LeagueOfLegendsLogic.sol",
  "abi": [
    {
      "anonymous": false,
      "inputs": [
        {
          "indexed": true,
          "internalType": "address",
          "name": "previousOwner",
          "type": "address"
        },
        {
          "indexed": true,
          "internalType": "address",
          "name": "newOwner",
          "type": "address"
        }
      ],
      "name": "OwnershipTransferred",
      "type": "event"
    },
    {
      "anonymous": false,
      "inputs": [
        {
          "indexed": false,
          "internalType": "address",
          "name": "sender",
          "type": "address"
        },
        {
          "indexed": false,
          "internalType": "uint256",
          "name": "amount",
          "type": "uint256"
        }
      ],
      "name": "Staked",
      "type": "event"
    },
    {
      "anonymous": false,
      "inputs": [
        {
          "indexed": false,
          "internalType": "address",
          "name": "addr",
          "type": "address"
        }
      ],
      "name": "WhitelistedAddressAdded",
      "type": "event"
    },
    {
      "anonymous": false,
      "inputs": [
        {
          "indexed": false,
          "internalType": "address",
          "name": "addr",
          "type": "address"
        }
      ],
      "name": "WhitelistedAddressRemoved",
      "type": "event"
    },
    {
      "anonymous": false,
      "inputs": [
        {
          "indexed": false,
          "internalType": "address",
          "name": "sender",
          "type": "address"
        },
        {
          "indexed": false,
          "internalType": "address",
          "name": "contractAddress",
          "type": "address"
        }
      ],
      "name": "testUSDCDeployed",
      "type": "event"
    },
    {
      "inputs": [
        {
          "internalType": "address",
          "name": "addr",
          "type": "address"
        }
      ],
      "name": "addAddressToWhitelist",
      "outputs": [
        {
          "internalType": "bool",
          "name": "success",
          "type": "bool"
        }
      ],
      "stateMutability": "nonpayable",
      "type": "function"
    },
    {
      "inputs": [
        {
          "internalType": "address[]",
          "name": "addrs",
          "type": "address[]"
        }
      ],
      "name": "addAddressesToWhitelist",
      "outputs": [
        {
          "internalType": "bool",
          "name": "success",
          "type": "bool"
        }
      ],
      "stateMutability": "nonpayable",
      "type": "function"
    },
    {
      "inputs": [
        {
          "internalType": "address",
          "name": "_userToAdd",
          "type": "address"
        }
      ],
      "name": "addUserToWhitelist",
      "outputs": [],
      "stateMutability": "nonpayable",
      "type": "function"
    },
    {
      "inputs": [],
      "name": "admin",
      "outputs": [
        {
          "internalType": "address",
          "name": "",
          "type": "address"
        }
      ],
      "stateMutability": "view",
      "type": "function"
    },
    {
      "inputs": [],
      "name": "evaluateWeek",
      "outputs": [],
      "stateMutability": "nonpayable",
      "type": "function"
    },
    {
      "inputs": [],
      "name": "getNumWhitelisted",
      "outputs": [
        {
          "internalType": "uint256",
          "name": "",
          "type": "uint256"
        }
      ],
      "stateMutability": "view",
      "type": "function"
    },
    {
      "inputs": [
        {
          "internalType": "address",
          "name": "_user",
          "type": "address"
        }
      ],
      "name": "getUserIsWhitelisted",
      "outputs": [
        {
          "internalType": "bool",
          "name": "",
          "type": "bool"
        }
      ],
      "stateMutability": "view",
      "type": "function"
    },
    {
      "inputs": [],
      "name": "getUserRecord",
      "outputs": [
        {
          "internalType": "uint256[8]",
          "name": "",
          "type": "uint256[8]"
        }
      ],
      "stateMutability": "view",
      "type": "function"
    },
    {
      "inputs": [],
      "name": "getUserTotalPts",
      "outputs": [
        {
          "internalType": "uint256",
          "name": "",
          "type": "uint256"
        }
      ],
      "stateMutability": "view",
      "type": "function"
    },
    {
      "inputs": [],
      "name": "getUserUSDCBalance",
      "outputs": [
        {
          "internalType": "uint256",
          "name": "",
          "type": "uint256"
        }
      ],
      "stateMutability": "view",
      "type": "function"
    },
    {
      "inputs": [],
      "name": "getUsersLength",
      "outputs": [
        {
          "internalType": "uint256",
          "name": "",
          "type": "uint256"
        }
      ],
      "stateMutability": "view",
      "type": "function"
    },
    {
      "inputs": [
        {
          "internalType": "address",
          "name": "",
          "type": "address"
        }
      ],
      "name": "inLeague",
      "outputs": [
        {
          "internalType": "bool",
          "name": "",
          "type": "bool"
        }
      ],
      "stateMutability": "view",
      "type": "function"
    },
    {
      "inputs": [
        {
          "internalType": "string",
          "name": "_name",
          "type": "string"
        },
        {
          "internalType": "uint256",
          "name": "_stakeAmount",
          "type": "uint256"
        },
        {
          "internalType": "bool",
          "name": "_isPublic",
          "type": "bool"
        },
        {
          "internalType": "address",
          "name": "athletesDataStorageAddress",
          "type": "address"
        },
        {
          "internalType": "address",
          "name": "_admin",
          "type": "address"
        },
        {
          "internalType": "address",
          "name": "_polygonUSDCAddress",
          "type": "address"
        },
        {
          "internalType": "address",
          "name": "_rinkebyUSDCAddress",
          "type": "address"
        },
        {
          "internalType": "address",
          "name": "_testUSDCAddress",
          "type": "address"
        },
        {
          "internalType": "address",
          "name": "_leagueMakerLibraryAddress",
          "type": "address"
        },
        {
          "internalType": "address",
          "name": "_leagueMakerContractAddress",
          "type": "address"
        }
      ],
      "name": "initialize",
      "outputs": [],
      "stateMutability": "nonpayable",
      "type": "function"
    },
    {
      "inputs": [],
      "name": "isPublic",
      "outputs": [
        {
          "internalType": "bool",
          "name": "",
          "type": "bool"
        }
      ],
      "stateMutability": "view",
      "type": "function"
    },
    {
      "inputs": [],
      "name": "joinLeague",
      "outputs": [],
      "stateMutability": "nonpayable",
      "type": "function"
    },
    {
      "inputs": [],
      "name": "leagueEntryIsClosed",
      "outputs": [
        {
          "internalType": "bool",
          "name": "",
          "type": "bool"
        }
      ],
      "stateMutability": "view",
      "type": "function"
    },
    {
      "inputs": [
        {
          "internalType": "uint256",
          "name": "",
          "type": "uint256"
        }
      ],
      "name": "leagueMembers",
      "outputs": [
        {
          "internalType": "address",
          "name": "",
          "type": "address"
        }
      ],
      "stateMutability": "view",
      "type": "function"
    },
    {
      "inputs": [],
      "name": "leagueName",
      "outputs": [
        {
          "internalType": "string",
          "name": "",
          "type": "string"
        }
      ],
      "stateMutability": "view",
      "type": "function"
    },
    {
      "inputs": [],
      "name": "lineupIsLocked",
      "outputs": [
        {
          "internalType": "bool",
          "name": "",
          "type": "bool"
        }
      ],
      "stateMutability": "view",
      "type": "function"
    },
    {
      "inputs": [],
      "name": "lockLineup",
      "outputs": [],
      "stateMutability": "nonpayable",
      "type": "function"
    },
    {
      "inputs": [],
      "name": "numWeeks",
      "outputs": [
        {
          "internalType": "uint256",
          "name": "",
          "type": "uint256"
        }
      ],
      "stateMutability": "view",
      "type": "function"
    },
    {
      "inputs": [],
      "name": "onLeagueEnd",
      "outputs": [],
      "stateMutability": "nonpayable",
      "type": "function"
    },
    {
      "inputs": [],
      "name": "owner",
      "outputs": [
        {
          "internalType": "address",
          "name": "",
          "type": "address"
        }
      ],
      "stateMutability": "view",
      "type": "function"
    },
    {
      "inputs": [],
      "name": "polygonUSDCAddress",
      "outputs": [
        {
          "internalType": "address",
          "name": "",
          "type": "address"
        }
      ],
      "stateMutability": "view",
      "type": "function"
    },
    {
      "inputs": [
        {
          "internalType": "address",
          "name": "addr",
          "type": "address"
        }
      ],
      "name": "removeAddressFromWhitelist",
      "outputs": [
        {
          "internalType": "bool",
          "name": "success",
          "type": "bool"
        }
      ],
      "stateMutability": "nonpayable",
      "type": "function"
    },
    {
      "inputs": [
        {
          "internalType": "address[]",
          "name": "addrs",
          "type": "address[]"
        }
      ],
      "name": "removeAddressesFromWhitelist",
      "outputs": [
        {
          "internalType": "bool",
          "name": "success",
          "type": "bool"
        }
      ],
      "stateMutability": "nonpayable",
      "type": "function"
    },
    {
      "inputs": [
        {
          "internalType": "address",
          "name": "_userToRemove",
          "type": "address"
        }
      ],
      "name": "removeFromWhitelist",
      "outputs": [],
      "stateMutability": "nonpayable",
      "type": "function"
    },
    {
      "inputs": [],
      "name": "renounceOwnership",
      "outputs": [],
      "stateMutability": "nonpayable",
      "type": "function"
    },
    {
      "inputs": [],
      "name": "rinkebyUSDCAddress",
      "outputs": [
        {
          "internalType": "address",
          "name": "",
          "type": "address"
        }
      ],
      "stateMutability": "view",
      "type": "function"
    },
    {
      "inputs": [],
      "name": "setLeagueEntryIsClosed",
      "outputs": [],
      "stateMutability": "nonpayable",
      "type": "function"
    },
    {
      "inputs": [],
      "name": "setLeagueSchedule",
      "outputs": [],
      "stateMutability": "nonpayable",
      "type": "function"
    },
    {
      "inputs": [
        {
          "internalType": "uint256[]",
          "name": "athleteIds",
          "type": "uint256[]"
        }
      ],
      "name": "setLineup",
      "outputs": [],
      "stateMutability": "nonpayable",
      "type": "function"
    },
    {
      "inputs": [],
      "name": "stakeAmount",
      "outputs": [
        {
          "internalType": "uint256",
          "name": "",
          "type": "uint256"
        }
      ],
      "stateMutability": "view",
      "type": "function"
    },
    {
      "inputs": [],
      "name": "testUSDC",
      "outputs": [
        {
          "internalType": "contract IERC20",
          "name": "",
          "type": "address"
        }
      ],
      "stateMutability": "view",
      "type": "function"
    },
    {
      "inputs": [
        {
          "internalType": "address",
          "name": "newOwner",
          "type": "address"
        }
      ],
      "name": "transferOwnership",
      "outputs": [],
      "stateMutability": "nonpayable",
      "type": "function"
    },
    {
      "inputs": [],
      "name": "unlockLineup",
      "outputs": [],
      "stateMutability": "nonpayable",
      "type": "function"
    },
    {
      "inputs": [
        {
          "internalType": "address",
          "name": "",
          "type": "address"
        },
        {
          "internalType": "uint256",
          "name": "",
          "type": "uint256"
        }
      ],
      "name": "userToLineup",
      "outputs": [
        {
          "internalType": "uint256",
          "name": "",
          "type": "uint256"
        }
      ],
      "stateMutability": "view",
      "type": "function"
    },
    {
      "inputs": [
        {
          "internalType": "address",
          "name": "",
          "type": "address"
        },
        {
          "internalType": "uint256",
          "name": "",
          "type": "uint256"
        }
      ],
      "name": "userToRecord",
      "outputs": [
        {
          "internalType": "uint256",
          "name": "",
          "type": "uint256"
        }
      ],
      "stateMutability": "view",
      "type": "function"
    },
    {
      "inputs": [
        {
          "internalType": "address",
          "name": "",
          "type": "address"
        }
      ],
      "name": "userToTotalWins",
      "outputs": [
        {
          "internalType": "uint256",
          "name": "",
          "type": "uint256"
        }
      ],
      "stateMutability": "view",
      "type": "function"
    },
    {
      "inputs": [
        {
          "internalType": "address",
          "name": "",
          "type": "address"
        }
      ],
      "name": "whitelist",
      "outputs": [
        {
          "internalType": "bool",
          "name": "",
          "type": "bool"
        }
      ],
      "stateMutability": "view",
      "type": "function"
    }
  ],
  "bytecode": "0x60806040523480156200001157600080fd5b5062000032620000266200004060201b60201c565b6200004860201b60201c565b60016004819055506200010d565b600033905090565b60008060029054906101000a900473ffffffffffffffffffffffffffffffffffffffff16905081600060026101000a81548173ffffffffffffffffffffffffffffffffffffffff021916908373ffffffffffffffffffffffffffffffffffffffff1602179055508173ffffffffffffffffffffffffffffffffffffffff168173ffffffffffffffffffffffffffffffffffffffff167f8be0079c531659141344cd1fd0a4f28419497f9722a3daafe3b4186f6b6457e060405160405180910390a35050565b6156be806200011d6000396000f3fe60806040523480156200001157600080fd5b50600436106200027f5760003560e01c8063841abf6e1162000159578063cff5600311620000c9578063edcbe96c1162000087578063edcbe96c146200073c578063f2fde38b1462000772578063f612121a1462000792578063f851a44014620007b2578063f881604514620007d4576200027f565b8063cff56003146200066c578063dc9a153514620006a2578063e2ec6ec314620006c4578063e35a899914620006fa578063e4c9066b1462000730576200027f565b806393f3706c116200011757806393f3706c14620005f05780639b19251a1462000612578063a2bc091a1462000648578063c8be3b5b1462000654578063c99fea941462000660576200027f565b8063841abf6e146200054a57806385334ffa146200056c5780638ab1d68114620005785780638da5cb5b14620005985780639122ce6d14620005ba576200027f565b806344eaa84e11620001f55780636cc15ad511620001b35780636cc15ad514620004a4578063715018a614620004c6578063747b805014620004d25780637b9417c814620004f25780637eed33f11462000528576200027f565b806344eaa84e14620003fa578063595b1a3e146200041c5780635fcc6987146200043e57806360c7dc4714620004605780636bdc44df1462000482576200027f565b80631d803e0011620002435780631d803e00146200032c57806324953eaa1462000338578063267175db146200036e578063286dd3f514620003a45780633c3ae13f14620003da576200027f565b8062b2476f1462000284578063022e35e614620002a65780630635dbcb14620002c85780630655465a14620002ea5780630c6f795914620002f6575b600080fd5b6200028e620007f6565b6040516200029d919062003977565b60405180910390f35b620002b06200081c565b604051620002bf919062003a39565b60405180910390f35b620002d262000842565b604051620002e1919062003a1c565b60405180910390f35b620002f462000855565b005b6200031460048036038101906200030e9190620032b1565b62000992565b60405162000323919062003d6d565b60405180910390f35b62000336620009bb565b005b620003566004803603810190620003509190620032f8565b62000c69565b60405162000365919062003a1c565b60405180910390f35b6200038c6004803603810190620003869190620034e6565b62000d66565b6040516200039b919062003977565b60405180910390f35b620003c26004803603810190620003bc91906200327f565b62000da6565b604051620003d1919062003a1c565b60405180910390f35b620003f86004803603810190620003f29190620033cc565b62000f35565b005b62000404620013ce565b60405162000413919062003d6d565b60405180910390f35b62000426620013d8565b60405162000435919062003d6d565b60405180910390f35b62000448620013e5565b60405162000457919062003d6d565b60405180910390f35b6200046a620014f4565b60405162000479919062003d6d565b60405180910390f35b6200048c620014fa565b6040516200049b919062003d6d565b60405180910390f35b620004ae62001541565b604051620004bd919062003a1c565b60405180910390f35b620004d062001554565b005b620004f06004803603810190620004ea91906200327f565b620015e5565b005b6200051060048036038101906200050a91906200327f565b6200172f565b6040516200051f919062003a1c565b60405180910390f35b62000532620018bc565b60405162000541919062003d6d565b60405180910390f35b62000554620018c2565b60405162000563919062003b17565b60405180910390f35b6200057662001958565b005b6200059660048036038101906200059091906200327f565b62001b23565b005b620005a262001cc0565b604051620005b1919062003977565b60405180910390f35b620005d86004803603810190620005d291906200327f565b62001ce9565b604051620005e7919062003a1c565b60405180910390f35b620005fa62001d09565b60405162000609919062003977565b60405180910390f35b6200063060048036038101906200062a91906200327f565b62001d2f565b6040516200063f919062003a1c565b60405180910390f35b6200065262001d4f565b005b6200065e62001df1565b005b6200066a62001eb7565b005b6200068a6004803603810190620006849190620032b1565b62002345565b60405162000699919062003d6d565b60405180910390f35b620006ac62002377565b604051620006bb919062003a1c565b60405180910390f35b620006e26004803603810190620006dc9190620032f8565b6200238a565b604051620006f1919062003a1c565b60405180910390f35b6200071860048036038101906200071291906200327f565b62002487565b60405162000727919062003a1c565b60405180910390f35b6200073a620024dd565b005b6200075a60048036038101906200075491906200327f565b6200257f565b60405162000769919062003d6d565b60405180910390f35b6200079060048036038101906200078a91906200327f565b62002597565b005b620007b06004803603810190620007aa919062003349565b6200269b565b005b620007bc62002c03565b604051620007cb919062003977565b60405180910390f35b620007de62002c29565b604051620007ed9190620039fe565b60405180910390f35b601260009054906101000a900473ffffffffffffffffffffffffffffffffffffffff1681565b601660009054906101000a900473ffffffffffffffffffffffffffffffffffffffff1681565b600960159054906101000a900460ff1681565b733736306384bd666d6166e639cf1b36ebaa81887573ffffffffffffffffffffffffffffffffffffffff163373ffffffffffffffffffffffffffffffffffffffff1614620008da576040517f08c379a0000000000000000000000000000000000000000000000000000000008152600401620008d19062003cc3565b60405180910390fd5b6200091a6040518060400160405280601081526020017f73657474696e67207363686564756c650000000000000000000000000000000081525062002cb5565b73__$36fdb4e0c2cb91f3ceca5ea81b025328f3$__63d2c232b56010600f60065460056040518563ffffffff1660e01b81526004016200095e949392919062003a56565b60006040518083038186803b1580156200097757600080fd5b505af41580156200098c573d6000803e3d6000fd5b50505050565b600b6020528160005260406000208160088110620009af57600080fd5b01600091509150505481565b6002600454141562000a04576040517f08c379a0000000000000000000000000000000000000000000000000000000008152600401620009fb9062003d29565b60405180910390fd5b60026004819055506000600f8054905060075462000a23919062003edd565b90506000600f60008154811062000a3f5762000a3e62004190565b5b9060005260206000200160009054906101000a900473ffffffffffffffffffffffffffffffffffffffff1690506000600190505b600f8054905081101562000ba457600a60008373ffffffffffffffffffffffffffffffffffffffff1673ffffffffffffffffffffffffffffffffffffffff16815260200190815260200160002054600a6000600f848154811062000adc5762000adb62004190565b5b9060005260206000200160009054906101000a900473ffffffffffffffffffffffffffffffffffffffff1673ffffffffffffffffffffffffffffffffffffffff1673ffffffffffffffffffffffffffffffffffffffff16815260200190815260200160002054111562000b8e57600f818154811062000b605762000b5f62004190565b5b9060005260206000200160009054906101000a900473ffffffffffffffffffffffffffffffffffffffff1691505b808062000b9b90620040e4565b91505062000a73565b50601660009054906101000a900473ffffffffffffffffffffffffffffffffffffffff1673ffffffffffffffffffffffffffffffffffffffff166323b872dd3083856040518463ffffffff1660e01b815260040162000c069392919062003994565b602060405180830381600087803b15801562000c2157600080fd5b505af115801562000c36573d6000803e3d6000fd5b505050506040513d601f19601f8201168201806040525081019062000c5c91906200339a565b5050506001600481905550565b600062000c7562002d52565b73ffffffffffffffffffffffffffffffffffffffff1662000c9562001cc0565b73ffffffffffffffffffffffffffffffffffffffff161462000cee576040517f08c379a000000000000000000000000000000000000000000000000000000000815260040162000ce59062003c7f565b60405180910390fd5b60005b825181101562000d605762000d2383828151811062000d155762000d1462004190565b5b602002602001015162000da6565b1562000d4a5760016002600082825462000d3e919062003f3e565b92505081905550600191505b808062000d5790620040e4565b91505062000cf1565b50919050565b600f818154811062000d7757600080fd5b906000526020600020016000915054906101000a900473ffffffffffffffffffffffffffffffffffffffff1681565b600062000db262002d52565b73ffffffffffffffffffffffffffffffffffffffff1662000dd262001cc0565b73ffffffffffffffffffffffffffffffffffffffff161462000e2b576040517f08c379a000000000000000000000000000000000000000000000000000000000815260040162000e229062003c7f565b60405180910390fd5b600160008373ffffffffffffffffffffffffffffffffffffffff1673ffffffffffffffffffffffffffffffffffffffff16815260200190815260200160002060009054906101000a900460ff161562000f30576000600160008473ffffffffffffffffffffffffffffffffffffffff1673ffffffffffffffffffffffffffffffffffffffff16815260200190815260200160002060006101000a81548160ff0219169083151502179055507ff1abf01a1043b7c244d128e8595cf0c1d10743b022b03a02dffd8ca3bf729f5a8260405162000f07919062003977565b60405180910390a160016002600082825462000f24919062003f3e565b92505081905550600190505b919050565b600060019054906101000a900460ff1662000f5f5760008054906101000a900460ff161562000f6a565b62000f6962002d5a565b5b62000fac576040517f08c379a000000000000000000000000000000000000000000000000000000000815260040162000fa39062003c5d565b60405180910390fd5b60008060019054906101000a900460ff16159050801562000ffd576001600060016101000a81548160ff02191690831515021790555060016000806101000a81548160ff0219169083151502179055505b8b8b600591906200101092919062002f1e565b5060086006819055506001600e60008973ffffffffffffffffffffffffffffffffffffffff1673ffffffffffffffffffffffffffffffffffffffff16815260200190815260200160002060006101000a81548160ff021916908315150217905550600f879080600181540180825580915050600190039060005260206000200160009091909190916101000a81548173ffffffffffffffffffffffffffffffffffffffff021916908373ffffffffffffffffffffffffffffffffffffffff16021790555086600860006101000a81548173ffffffffffffffffffffffffffffffffffffffff021916908373ffffffffffffffffffffffffffffffffffffffff1602179055508960078190555088600360006101000a81548160ff0219169083151502179055506000600960146101000a81548160ff0219169083151502179055506000600960156101000a81548160ff02191690831515021790555087601360006101000a81548173ffffffffffffffffffffffffffffffffffffffff021916908373ffffffffffffffffffffffffffffffffffffffff16021790555081601560006101000a81548173ffffffffffffffffffffffffffffffffffffffff021916908373ffffffffffffffffffffffffffffffffffffffff160217905550604051620011fc9062002faf565b604051809103906000f08015801562001219573d6000803e3d6000fd5b50601460006101000a81548173ffffffffffffffffffffffffffffffffffffffff021916908373ffffffffffffffffffffffffffffffffffffffff16021790555085601160006101000a81548173ffffffffffffffffffffffffffffffffffffffff021916908373ffffffffffffffffffffffffffffffffffffffff16021790555084601260006101000a81548173ffffffffffffffffffffffffffffffffffffffff021916908373ffffffffffffffffffffffffffffffffffffffff16021790555083601660006101000a81548173ffffffffffffffffffffffffffffffffffffffff021916908373ffffffffffffffffffffffffffffffffffffffff16021790555082601860006101000a81548173ffffffffffffffffffffffffffffffffffffffff021916908373ffffffffffffffffffffffffffffffffffffffff1602179055506200139e6040518060400160405280601281526020017f50726f787920696e697469616c697a656421000000000000000000000000000081525062002cb5565b8015620013c05760008060016101000a81548160ff0219169083151502179055505b505050505050505050505050565b6000600254905090565b6000600f80549050905090565b6000600e60003373ffffffffffffffffffffffffffffffffffffffff1673ffffffffffffffffffffffffffffffffffffffff16815260200190815260200160002060009054906101000a900460ff166200143e57600080fd5b601660009054906101000a900473ffffffffffffffffffffffffffffffffffffffff1673ffffffffffffffffffffffffffffffffffffffff166370a08231336040518263ffffffff1660e01b81526004016200149b919062003977565b60206040518083038186803b158015620014b457600080fd5b505afa158015620014c9573d6000803e3d6000fd5b505050506040513d601f19601f82011682018060405250810190620014ef919062003518565b905090565b60075481565b6000600a60003373ffffffffffffffffffffffffffffffffffffffff1673ffffffffffffffffffffffffffffffffffffffff16815260200190815260200160002054905090565b600960149054906101000a900460ff1681565b6200155e62002d52565b73ffffffffffffffffffffffffffffffffffffffff166200157e62001cc0565b73ffffffffffffffffffffffffffffffffffffffff1614620015d7576040517f08c379a0000000000000000000000000000000000000000000000000000000008152600401620015ce9062003c7f565b60405180910390fd5b620015e3600062002d6d565b565b600860009054906101000a900473ffffffffffffffffffffffffffffffffffffffff1673ffffffffffffffffffffffffffffffffffffffff163373ffffffffffffffffffffffffffffffffffffffff161462001678576040517f08c379a00000000000000000000000000000000000000000000000000000000081526004016200166f9062003ca1565b60405180910390fd5b601460009054906101000a900473ffffffffffffffffffffffffffffffffffffffff1673ffffffffffffffffffffffffffffffffffffffff16637b9417c8826040518263ffffffff1660e01b8152600401620016d5919062003977565b602060405180830381600087803b158015620016f057600080fd5b505af115801562001705573d6000803e3d6000fd5b505050506040513d601f19601f820116820180604052508101906200172b91906200339a565b5050565b60006200173b62002d52565b73ffffffffffffffffffffffffffffffffffffffff166200175b62001cc0565b73ffffffffffffffffffffffffffffffffffffffff1614620017b4576040517f08c379a0000000000000000000000000000000000000000000000000000000008152600401620017ab9062003c7f565b60405180910390fd5b600160008373ffffffffffffffffffffffffffffffffffffffff1673ffffffffffffffffffffffffffffffffffffffff16815260200190815260200160002060009054906101000a900460ff16620018b75760018060008473ffffffffffffffffffffffffffffffffffffffff1673ffffffffffffffffffffffffffffffffffffffff16815260200190815260200160002060006101000a81548160ff0219169083151502179055507fd1bba68c128cc3f427e5831b3c6f99f480b6efa6b9e80c757768f6124158cc3f826040516200188e919062003977565b60405180910390a1600160026000828254620018ab919062003e80565b92505081905550600190505b919050565b60065481565b60058054620018d19062004078565b80601f0160208091040260200160405190810160405280929190818152602001828054620018ff9062004078565b8015620019505780601f10620019245761010080835404028352916020019162001950565b820191906000526020600020905b8154815290600101906020018083116200193257829003601f168201915b505050505081565b733736306384bd666d6166e639cf1b36ebaa81887573ffffffffffffffffffffffffffffffffffffffff163373ffffffffffffffffffffffffffffffffffffffff1614620019dd576040517f08c379a0000000000000000000000000000000000000000000000000000000008152600401620019d49062003cc3565b60405180910390fd5b6000601560009054906101000a900473ffffffffffffffffffffffffffffffffffffffff1673ffffffffffffffffffffffffffffffffffffffff166306575c896040518163ffffffff1660e01b815260040160206040518083038186803b15801562001a4857600080fd5b505afa15801562001a5d573d6000803e3d6000fd5b505050506040513d601f19601f8201168201806040525081019062001a83919062003518565b905073__$36fdb4e0c2cb91f3ceca5ea81b025328f3$__63c406e268601083601360009054906101000a900473ffffffffffffffffffffffffffffffffffffffff16600b600a600d6040518763ffffffff1660e01b815260040162001aee9695949392919062003aaa565b60006040518083038186803b15801562001b0757600080fd5b505af415801562001b1c573d6000803e3d6000fd5b5050505050565b600860009054906101000a900473ffffffffffffffffffffffffffffffffffffffff1673ffffffffffffffffffffffffffffffffffffffff163373ffffffffffffffffffffffffffffffffffffffff161462001bb6576040517f08c379a000000000000000000000000000000000000000000000000000000000815260040162001bad9062003ca1565b60405180910390fd5b600960149054906101000a900460ff161562001c09576040517f08c379a000000000000000000000000000000000000000000000000000000000815260040162001c009062003d07565b60405180910390fd5b601460009054906101000a900473ffffffffffffffffffffffffffffffffffffffff1673ffffffffffffffffffffffffffffffffffffffff1663286dd3f5826040518263ffffffff1660e01b815260040162001c66919062003977565b602060405180830381600087803b15801562001c8157600080fd5b505af115801562001c96573d6000803e3d6000fd5b505050506040513d601f19601f8201168201806040525081019062001cbc91906200339a565b5050565b60008060029054906101000a900473ffffffffffffffffffffffffffffffffffffffff16905090565b600e6020528060005260406000206000915054906101000a900460ff1681565b601160009054906101000a900473ffffffffffffffffffffffffffffffffffffffff1681565b60016020528060005260406000206000915054906101000a900460ff1681565b733736306384bd666d6166e639cf1b36ebaa81887573ffffffffffffffffffffffffffffffffffffffff163373ffffffffffffffffffffffffffffffffffffffff161462001dd4576040517f08c379a000000000000000000000000000000000000000000000000000000000815260040162001dcb9062003cc3565b60405180910390fd5b6000600960156101000a81548160ff021916908315150217905550565b733736306384bd666d6166e639cf1b36ebaa81887573ffffffffffffffffffffffffffffffffffffffff163373ffffffffffffffffffffffffffffffffffffffff161462001e76576040517f08c379a000000000000000000000000000000000000000000000000000000000815260040162001e6d9062003cc3565b60405180910390fd5b62001e9a604051806060016040528060248152602001620056656024913962002cb5565b6001600960156101000a81548160ff021916908315150217905550565b600160003373ffffffffffffffffffffffffffffffffffffffff1673ffffffffffffffffffffffffffffffffffffffff16815260200190815260200160002060009054906101000a900460ff168062001f1c5750600360009054906101000a900460ff165b62001f5e576040517f08c379a000000000000000000000000000000000000000000000000000000000815260040162001f559062003bd5565b60405180910390fd5b6002600454141562001fa7576040517f08c379a000000000000000000000000000000000000000000000000000000000815260040162001f9e9062003d29565b60405180910390fd5b6002600481905550600960149054906101000a900460ff161562002002576040517f08c379a000000000000000000000000000000000000000000000000000000000815260040162001ff99062003d4b565b60405180910390fd5b600e60003373ffffffffffffffffffffffffffffffffffffffff1673ffffffffffffffffffffffffffffffffffffffff16815260200190815260200160002060009054906101000a900460ff161562002092576040517f08c379a0000000000000000000000000000000000000000000000000000000008152600401620020899062003bb3565b60405180910390fd5b600754601660009054906101000a900473ffffffffffffffffffffffffffffffffffffffff1673ffffffffffffffffffffffffffffffffffffffff166370a08231336040518263ffffffff1660e01b8152600401620020f2919062003977565b60206040518083038186803b1580156200210b57600080fd5b505afa15801562002120573d6000803e3d6000fd5b505050506040513d601f19601f8201168201806040525081019062002146919062003518565b1162002189576040517f08c379a0000000000000000000000000000000000000000000000000000000008152600401620021809062003b91565b60405180910390fd5b6001600e60003373ffffffffffffffffffffffffffffffffffffffff1673ffffffffffffffffffffffffffffffffffffffff16815260200190815260200160002060006101000a81548160ff021916908315150217905550600f339080600181540180825580915050600190039060005260206000200160009091909190916101000a81548173ffffffffffffffffffffffffffffffffffffffff021916908373ffffffffffffffffffffffffffffffffffffffff160217905550601660009054906101000a900473ffffffffffffffffffffffffffffffffffffffff1673ffffffffffffffffffffffffffffffffffffffff166323b872dd33306007546040518463ffffffff1660e01b8152600401620022a79392919062003994565b602060405180830381600087803b158015620022c257600080fd5b505af1158015620022d7573d6000803e3d6000fd5b505050506040513d601f19601f82011682018060405250810190620022fd91906200339a565b507f9e71bc8eea02a63969f509818f2dafb9254532904319f9dbda79b67bd34a5f3d3360075460405162002333929190620039d1565b60405180910390a16001600481905550565b600d60205281600052604060002081815481106200236257600080fd5b90600052602060002001600091509150505481565b600360009054906101000a900460ff1681565b60006200239662002d52565b73ffffffffffffffffffffffffffffffffffffffff16620023b662001cc0565b73ffffffffffffffffffffffffffffffffffffffff16146200240f576040517f08c379a0000000000000000000000000000000000000000000000000000000008152600401620024069062003c7f565b60405180910390fd5b60005b825181101562002481576200244483828151811062002436576200243562004190565b5b60200260200101516200172f565b156200246b576001600260008282546200245f919062003e80565b92505081905550600191505b80806200247890620040e4565b91505062002412565b50919050565b6000600160008373ffffffffffffffffffffffffffffffffffffffff1673ffffffffffffffffffffffffffffffffffffffff16815260200190815260200160002060009054906101000a900460ff169050919050565b733736306384bd666d6166e639cf1b36ebaa81887573ffffffffffffffffffffffffffffffffffffffff163373ffffffffffffffffffffffffffffffffffffffff161462002562576040517f08c379a0000000000000000000000000000000000000000000000000000000008152600401620025599062003cc3565b60405180910390fd5b6001600960146101000a81548160ff021916908315150217905550565b600a6020528060005260406000206000915090505481565b620025a162002d52565b73ffffffffffffffffffffffffffffffffffffffff16620025c162001cc0565b73ffffffffffffffffffffffffffffffffffffffff16146200261a576040517f08c379a0000000000000000000000000000000000000000000000000000000008152600401620026119062003c7f565b60405180910390fd5b600073ffffffffffffffffffffffffffffffffffffffff168173ffffffffffffffffffffffffffffffffffffffff1614156200268d576040517f08c379a0000000000000000000000000000000000000000000000000000000008152600401620026849062003b6f565b60405180910390fd5b620026988162002d6d565b50565b600960159054906101000a900460ff1615620026ee576040517f08c379a0000000000000000000000000000000000000000000000000000000008152600401620026e59062003c3b565b60405180910390fd5b600e60003373ffffffffffffffffffffffffffffffffffffffff1673ffffffffffffffffffffffffffffffffffffffff16815260200190815260200160002060009054906101000a900460ff166200277d576040517f08c379a0000000000000000000000000000000000000000000000000000000008152600401620027749062003ce5565b60405180910390fd5b6000600d60003373ffffffffffffffffffffffffffffffffffffffff1673ffffffffffffffffffffffffffffffffffffffff1681526020019081526020016000208054806020026020016040519081016040528092919081815260200182805480156200280a57602002820191906000526020600020905b815481526020019060010190808311620027f5575b505050505090506000601560009054906101000a900473ffffffffffffffffffffffffffffffffffffffff1673ffffffffffffffffffffffffffffffffffffffff166306575c896040518163ffffffff1660e01b815260040160206040518083038186803b1580156200287c57600080fd5b505afa15801562002891573d6000803e3d6000fd5b505050506040513d601f19601f82011682018060405250810190620028b7919062003518565b905060005b83518110156200294b576001600c60008381526020019081526020016000208360088110620028f057620028ef62004190565b5b01541462002935576040517f08c379a00000000000000000000000000000000000000000000000000000000081526004016200292c9062003bf7565b60405180910390fd5b80806200294290620040e4565b915050620028bc565b5060005b835181101562002ac05760006001600a6001846200296e919062003e80565b6200297a919062003edd565b62002986919062003f3e565b9050620029c96040518060400160405280600f81526020017f5570706572206c696d69742069732000000000000000000000000000000000008152508262002e32565b6000600a83620029da919062003edd565b905062002a1d6040518060400160405280600f81526020017f4c6f776572206c696d69742069732000000000000000000000000000000000008152508262002e32565b8086848151811062002a345762002a3362004190565b5b602002602001015111801562002a6657508186848151811062002a5c5762002a5b62004190565b5b6020026020010151105b62002aa8576040517f08c379a000000000000000000000000000000000000000000000000000000000815260040162002a9f9062003c19565b60405180910390fd5b5050808062002ab790620040e4565b9150506200294f565b5060005b825181101562002b4257600c600084838151811062002ae85762002ae762004190565b5b60200260200101518152602001908152602001600020826008811062002b135762002b1262004190565b5b01600081548092919062002b279062004049565b9190505550808062002b3990620040e4565b91505062002ac4565b5060005b835181101562002ba757600c6000828152602001908152602001600020826008811062002b785762002b7762004190565b5b01600081548092919062002b8c90620040e4565b9190505550808062002b9e90620040e4565b91505062002b46565b5082600d60003373ffffffffffffffffffffffffffffffffffffffff1673ffffffffffffffffffffffffffffffffffffffff168152602001908152602001600020908051906020019062002bfd92919062002fbd565b50505050565b600860009054906101000a900473ffffffffffffffffffffffffffffffffffffffff1681565b62002c336200300f565b600b60003373ffffffffffffffffffffffffffffffffffffffff1673ffffffffffffffffffffffffffffffffffffffff16815260200190815260200160002060088060200260405190810160405280929190826008801562002cab576020028201915b81548152602001906001019080831162002c96575b5050505050905090565b62002d4f8160405160240162002ccc919062003b17565b6040516020818303038152906040527f41304fac000000000000000000000000000000000000000000000000000000007bffffffffffffffffffffffffffffffffffffffffffffffffffffffff19166020820180517bffffffffffffffffffffffffffffffffffffffffffffffffffffffff838183161783525050505062002ed2565b50565b600033905090565b600062002d673062002efb565b15905090565b60008060029054906101000a900473ffffffffffffffffffffffffffffffffffffffff16905081600060026101000a81548173ffffffffffffffffffffffffffffffffffffffff021916908373ffffffffffffffffffffffffffffffffffffffff1602179055508173ffffffffffffffffffffffffffffffffffffffff168173ffffffffffffffffffffffffffffffffffffffff167f8be0079c531659141344cd1fd0a4f28419497f9722a3daafe3b4186f6b6457e060405160405180910390a35050565b62002ece828260405160240162002e4b92919062003b3b565b6040516020818303038152906040527f9710a9d0000000000000000000000000000000000000000000000000000000007bffffffffffffffffffffffffffffffffffffffffffffffffffffffff19166020820180517bffffffffffffffffffffffffffffffffffffffffffffffffffffffff838183161783525050505062002ed2565b5050565b60008151905060006a636f6e736f6c652e6c6f679050602083016000808483855afa5050505050565b6000808273ffffffffffffffffffffffffffffffffffffffff163b119050919050565b82805462002f2c9062004078565b90600052602060002090601f01602090048101928262002f50576000855562002f9c565b82601f1062002f6b57803560ff191683800117855562002f9c565b8280016001018555821562002f9c579182015b8281111562002f9b57823582559160200191906001019062002f7e565b5b50905062002fab919062003032565b5090565b61108d80620045d883390190565b82805482825590600052602060002090810192821562002ffc579160200282015b8281111562002ffb57825182559160200191906001019062002fde565b5b5090506200300b919062003032565b5090565b604051806101000160405280600890602082028036833780820191505090505090565b5b808211156200304d57600081600090555060010162003033565b5090565b600062003068620030628462003db3565b62003d8a565b905080838252602082019050828560208602820111156200308e576200308d620041f8565b5b60005b85811015620030c25781620030a7888262003147565b84526020840193506020830192505060018101905062003091565b5050509392505050565b6000620030e3620030dd8462003de2565b62003d8a565b90508083825260208201905082856020860282011115620031095762003108620041f8565b5b60005b858110156200313d578162003122888262003251565b8452602084019350602083019250506001810190506200310c565b5050509392505050565b600081359050620031588162004589565b92915050565b600082601f830112620031765762003175620041f3565b5b81356200318884826020860162003051565b91505092915050565b600082601f830112620031a957620031a8620041f3565b5b8135620031bb848260208601620030cc565b91505092915050565b600081359050620031d581620045a3565b92915050565b600081519050620031ec81620045a3565b92915050565b60008083601f8401126200320b576200320a620041f3565b5b8235905067ffffffffffffffff8111156200322b576200322a620041ee565b5b6020830191508360018202830111156200324a5762003249620041f8565b5b9250929050565b6000813590506200326281620045bd565b92915050565b6000815190506200327981620045bd565b92915050565b60006020828403121562003298576200329762004202565b5b6000620032a88482850162003147565b91505092915050565b60008060408385031215620032cb57620032ca62004202565b5b6000620032db8582860162003147565b9250506020620032ee8582860162003251565b9150509250929050565b60006020828403121562003311576200331062004202565b5b600082013567ffffffffffffffff811115620033325762003331620041fd565b5b62003340848285016200315e565b91505092915050565b60006020828403121562003362576200336162004202565b5b600082013567ffffffffffffffff811115620033835762003382620041fd565b5b620033918482850162003191565b91505092915050565b600060208284031215620033b357620033b262004202565b5b6000620033c384828501620031db565b91505092915050565b60008060008060008060008060008060006101408c8e031215620033f557620033f462004202565b5b60008c013567ffffffffffffffff811115620034165762003415620041fd565b5b620034248e828f01620031f2565b9b509b50506020620034398e828f0162003251565b99505060406200344c8e828f01620031c4565b98505060606200345f8e828f0162003147565b9750506080620034728e828f0162003147565b96505060a0620034858e828f0162003147565b95505060c0620034988e828f0162003147565b94505060e0620034ab8e828f0162003147565b935050610100620034bf8e828f0162003147565b925050610120620034d38e828f0162003147565b9150509295989b509295989b9093969950565b600060208284031215620034ff57620034fe62004202565b5b60006200350f8482850162003251565b91505092915050565b60006020828403121562003531576200353062004202565b5b6000620035418482850162003268565b91505092915050565b600062003558838362003944565b60208301905092915050565b6200356f8162003f79565b82525050565b8082525050565b620035878162003e30565b62003593818462003e53565b9250620035a08262003e11565b8060005b83811015620035d7578151620035bb87826200354a565b9650620035c88362003e46565b925050600181019050620035a4565b505050505050565b620035ea8162003f8d565b82525050565b620035fb8162003fc3565b82525050565b6200360c8162003fd7565b82525050565b8082525050565b8082525050565b8082525050565b8082525050565b60006200363b8262003e3b565b62003647818562003e5e565b93506200365981856020860162004013565b620036648162004207565b840191505092915050565b600081546200367e8162004078565b6200368a818662003e6f565b94506001821660008114620036a85760018114620036bb57620036f2565b60ff1983168652602086019350620036f2565b620036c68562003e1b565b60005b83811015620036ea57815481890152600182019150602081019050620036c9565b808801955050505b50505092915050565b60006200370a60268362003e5e565b9150620037178262004218565b604082019050919050565b600062003731601d8362003e5e565b91506200373e8262004267565b602082019050919050565b60006200375860238362003e5e565b9150620037658262004290565b604082019050919050565b60006200377f601a8362003e5e565b91506200378c82620042df565b602082019050919050565b6000620037a660258362003e5e565b9150620037b38262004308565b604082019050919050565b6000620037cd60318362003e5e565b9150620037da8262004357565b604082019050919050565b6000620037f4601e8362003e5e565b91506200380182620043a6565b602082019050919050565b60006200381b602e8362003e5e565b91506200382882620043cf565b604082019050919050565b60006200384260208362003e5e565b91506200384f826200441e565b602082019050919050565b60006200386960178362003e5e565b9150620038768262004447565b602082019050919050565b60006200389060168362003e5e565b91506200389d8262004470565b602082019050919050565b6000620038b760168362003e5e565b9150620038c48262004499565b602082019050919050565b6000620038de60418362003e5e565b9150620038eb82620044c2565b606082019050919050565b600062003905601f8362003e5e565b9150620039128262004537565b602082019050919050565b60006200392c60178362003e5e565b9150620039398262004560565b602082019050919050565b6200394f8162003fb9565b82525050565b620039608162003fb9565b82525050565b620039718162003fb9565b82525050565b60006020820190506200398e600083018462003564565b92915050565b6000606082019050620039ab600083018662003564565b620039ba602083018562003564565b620039c9604083018462003955565b949350505050565b6000604082019050620039e8600083018562003564565b620039f7602083018462003955565b9392505050565b60006101008201905062003a1660008301846200357c565b92915050565b600060208201905062003a336000830184620035df565b92915050565b600060208201905062003a50600083018462003601565b92915050565b600060808201905062003a6d600083018762003627565b62003a7c602083018662003575565b62003a8b604083018562003966565b818103606083015262003a9f81846200366f565b905095945050505050565b600060c08201905062003ac1600083018962003627565b62003ad0602083018862003966565b62003adf6040830187620035f0565b62003aee606083018662003612565b62003afd608083018562003620565b62003b0c60a083018462003619565b979650505050505050565b6000602082019050818103600083015262003b3381846200362e565b905092915050565b6000604082019050818103600083015262003b5781856200362e565b905062003b68602083018462003955565b9392505050565b6000602082019050818103600083015262003b8a81620036fb565b9050919050565b6000602082019050818103600083015262003bac8162003722565b9050919050565b6000602082019050818103600083015262003bce8162003749565b9050919050565b6000602082019050818103600083015262003bf08162003770565b9050919050565b6000602082019050818103600083015262003c128162003797565b9050919050565b6000602082019050818103600083015262003c3481620037be565b9050919050565b6000602082019050818103600083015262003c5681620037e5565b9050919050565b6000602082019050818103600083015262003c78816200380c565b9050919050565b6000602082019050818103600083015262003c9a8162003833565b9050919050565b6000602082019050818103600083015262003cbc816200385a565b9050919050565b6000602082019050818103600083015262003cde8162003881565b9050919050565b6000602082019050818103600083015262003d0081620038a8565b9050919050565b6000602082019050818103600083015262003d2281620038cf565b9050919050565b6000602082019050818103600083015262003d4481620038f6565b9050919050565b6000602082019050818103600083015262003d66816200391d565b9050919050565b600060208201905062003d84600083018462003955565b92915050565b600062003d9662003da9565b905062003da48282620040ae565b919050565b6000604051905090565b600067ffffffffffffffff82111562003dd15762003dd0620041bf565b5b602082029050602081019050919050565b600067ffffffffffffffff82111562003e005762003dff620041bf565b5b602082029050602081019050919050565b6000819050919050565b60008190508160005260206000209050919050565b600060089050919050565b600081519050919050565b6000602082019050919050565b600081905092915050565b600082825260208201905092915050565b600082825260208201905092915050565b600062003e8d8262003fb9565b915062003e9a8362003fb9565b9250827fffffffffffffffffffffffffffffffffffffffffffffffffffffffffffffffff0382111562003ed25762003ed162004132565b5b828201905092915050565b600062003eea8262003fb9565b915062003ef78362003fb9565b9250817fffffffffffffffffffffffffffffffffffffffffffffffffffffffffffffffff048311821515161562003f335762003f3262004132565b5b828202905092915050565b600062003f4b8262003fb9565b915062003f588362003fb9565b92508282101562003f6e5762003f6d62004132565b5b828203905092915050565b600062003f868262003f99565b9050919050565b60008115159050919050565b600073ffffffffffffffffffffffffffffffffffffffff82169050919050565b6000819050919050565b600062003fd08262003feb565b9050919050565b600062003fe48262003feb565b9050919050565b600062003ff88262003fff565b9050919050565b60006200400c8262003f99565b9050919050565b60005b838110156200403357808201518184015260208101905062004016565b8381111562004043576000848401525b50505050565b6000620040568262003fb9565b915060008214156200406d576200406c62004132565b5b600182039050919050565b600060028204905060018216806200409157607f821691505b60208210811415620040a857620040a762004161565b5b50919050565b620040b98262004207565b810181811067ffffffffffffffff82111715620040db57620040da620041bf565b5b80604052505050565b6000620040f18262003fb9565b91507fffffffffffffffffffffffffffffffffffffffffffffffffffffffffffffffff82141562004127576200412662004132565b5b600182019050919050565b7f4e487b7100000000000000000000000000000000000000000000000000000000600052601160045260246000fd5b7f4e487b7100000000000000000000000000000000000000000000000000000000600052602260045260246000fd5b7f4e487b7100000000000000000000000000000000000000000000000000000000600052603260045260246000fd5b7f4e487b7100000000000000000000000000000000000000000000000000000000600052604160045260246000fd5b600080fd5b600080fd5b600080fd5b600080fd5b600080fd5b6000601f19601f8301169050919050565b7f4f776e61626c653a206e6577206f776e657220697320746865207a65726f206160008201527f6464726573730000000000000000000000000000000000000000000000000000602082015250565b7f496e737566666963656e742066756e647320666f72207374616b696e67000000600082015250565b7f596f75206861766520616c7265616479206a6f696e65642074686973206c656160008201527f6775650000000000000000000000000000000000000000000000000000000000602082015250565b7f55736572206973206e6f742077686974656c6973746564203a28000000000000600082015250565b7f4475706c6963617465206174686c65746549447320617265206e6f7420616c6c60008201527f6f7765642e000000000000000000000000000000000000000000000000000000602082015250565b7f596f75206172652073657474696e6720616e206174686c65746520696e20746860008201527f652077726f6e6720706f736974696f6e21000000000000000000000000000000602082015250565b7f6c696e657570206973206c6f636b656420666f7220746865207765656b210000600082015250565b7f496e697469616c697a61626c653a20636f6e747261637420697320616c72656160008201527f647920696e697469616c697a6564000000000000000000000000000000000000602082015250565b7f4f776e61626c653a2063616c6c6572206973206e6f7420746865206f776e6572600082015250565b7f43616c6c6572206973206e6f74207468652061646d696e000000000000000000600082015250565b7f43616c6c6572206973206e6f74205465616d4469666600000000000000000000600082015250565b7f55736572206973206e6f7420696e204c65616775652e00000000000000000000600082015250565b7f4e6f626f64792063616e20656e7465722f6578697420746865206c656167756560008201527f20616e796d6f72652e2054686520736561736f6e20686173207374617274656460208201527f2100000000000000000000000000000000000000000000000000000000000000604082015250565b7f5265656e7472616e637947756172643a207265656e7472616e742063616c6c00600082015250565b7f4c656167756520456e74727920697320436c6f73656421000000000000000000600082015250565b620045948162003f79565b8114620045a057600080fd5b50565b620045ae8162003f8d565b8114620045ba57600080fd5b50565b620045c88162003fb9565b8114620045d457600080fd5b5056fe608060405234801561001057600080fd5b5061002d61002261003260201b60201c565b61003a60201b60201c565b6100fe565b600033905090565b60008060009054906101000a900473ffffffffffffffffffffffffffffffffffffffff169050816000806101000a81548173ffffffffffffffffffffffffffffffffffffffff021916908373ffffffffffffffffffffffffffffffffffffffff1602179055508173ffffffffffffffffffffffffffffffffffffffff168173ffffffffffffffffffffffffffffffffffffffff167f8be0079c531659141344cd1fd0a4f28419497f9722a3daafe3b4186f6b6457e060405160405180910390a35050565b610f808061010d6000396000f3fe608060405234801561001057600080fd5b50600436106100a95760003560e01c80638da5cb5b116100715780638da5cb5b146101665780639b19251a14610184578063dc9a1535146101b4578063e2ec6ec3146101d2578063e35a899914610202578063f2fde38b14610232576100a9565b806324953eaa146100ae578063286dd3f5146100de57806344eaa84e1461010e578063715018a61461012c5780637b9417c814610136575b600080fd5b6100c860048036038101906100c39190610b0e565b61024e565b6040516100d59190610be5565b60405180910390f35b6100f860048036038101906100f39190610ae1565b610338565b6040516101059190610be5565b60405180910390f35b6101166104bb565b6040516101239190610c40565b60405180910390f35b6101346104c5565b005b610150600480360381019061014b9190610ae1565b61054d565b60405161015d9190610be5565b60405180910390f35b61016e6106ce565b60405161017b9190610bca565b60405180910390f35b61019e60048036038101906101999190610ae1565b6106f7565b6040516101ab9190610be5565b60405180910390f35b6101bc610717565b6040516101c99190610be5565b60405180910390f35b6101ec60048036038101906101e79190610b0e565b61072a565b6040516101f99190610be5565b60405180910390f35b61021c60048036038101906102179190610ae1565b610814565b6040516102299190610be5565b60405180910390f35b61024c60048036038101906102479190610ae1565b61086a565b005b6000610258610962565b73ffffffffffffffffffffffffffffffffffffffff166102766106ce565b73ffffffffffffffffffffffffffffffffffffffff16146102cc576040517f08c379a00000000000000000000000000000000000000000000000000000000081526004016102c390610c20565b60405180910390fd5b60005b8251811015610332576102fb8382815181106102ee576102ed610e38565b5b6020026020010151610338565b1561031f576001600260008282546103139190610d13565b92505081905550600191505b808061032a90610dc0565b9150506102cf565b50919050565b6000610342610962565b73ffffffffffffffffffffffffffffffffffffffff166103606106ce565b73ffffffffffffffffffffffffffffffffffffffff16146103b6576040517f08c379a00000000000000000000000000000000000000000000000000000000081526004016103ad90610c20565b60405180910390fd5b600160008373ffffffffffffffffffffffffffffffffffffffff1673ffffffffffffffffffffffffffffffffffffffff16815260200190815260200160002060009054906101000a900460ff16156104b6576000600160008473ffffffffffffffffffffffffffffffffffffffff1673ffffffffffffffffffffffffffffffffffffffff16815260200190815260200160002060006101000a81548160ff0219169083151502179055507ff1abf01a1043b7c244d128e8595cf0c1d10743b022b03a02dffd8ca3bf729f5a8260405161048f9190610bca565b60405180910390a16001600260008282546104aa9190610d13565b92505081905550600190505b919050565b6000600254905090565b6104cd610962565b73ffffffffffffffffffffffffffffffffffffffff166104eb6106ce565b73ffffffffffffffffffffffffffffffffffffffff1614610541576040517f08c379a000000000000000000000000000000000000000000000000000000000815260040161053890610c20565b60405180910390fd5b61054b600061096a565b565b6000610557610962565b73ffffffffffffffffffffffffffffffffffffffff166105756106ce565b73ffffffffffffffffffffffffffffffffffffffff16146105cb576040517f08c379a00000000000000000000000000000000000000000000000000000000081526004016105c290610c20565b60405180910390fd5b600160008373ffffffffffffffffffffffffffffffffffffffff1673ffffffffffffffffffffffffffffffffffffffff16815260200190815260200160002060009054906101000a900460ff166106c95760018060008473ffffffffffffffffffffffffffffffffffffffff1673ffffffffffffffffffffffffffffffffffffffff16815260200190815260200160002060006101000a81548160ff0219169083151502179055507fd1bba68c128cc3f427e5831b3c6f99f480b6efa6b9e80c757768f6124158cc3f826040516106a29190610bca565b60405180910390a16001600260008282546106bd9190610cbd565b92505081905550600190505b919050565b60008060009054906101000a900473ffffffffffffffffffffffffffffffffffffffff16905090565b60016020528060005260406000206000915054906101000a900460ff1681565b600360009054906101000a900460ff1681565b6000610734610962565b73ffffffffffffffffffffffffffffffffffffffff166107526106ce565b73ffffffffffffffffffffffffffffffffffffffff16146107a8576040517f08c379a000000000000000000000000000000000000000000000000000000000815260040161079f90610c20565b60405180910390fd5b60005b825181101561080e576107d78382815181106107ca576107c9610e38565b5b602002602001015161054d565b156107fb576001600260008282546107ef9190610cbd565b92505081905550600191505b808061080690610dc0565b9150506107ab565b50919050565b6000600160008373ffffffffffffffffffffffffffffffffffffffff1673ffffffffffffffffffffffffffffffffffffffff16815260200190815260200160002060009054906101000a900460ff169050919050565b610872610962565b73ffffffffffffffffffffffffffffffffffffffff166108906106ce565b73ffffffffffffffffffffffffffffffffffffffff16146108e6576040517f08c379a00000000000000000000000000000000000000000000000000000000081526004016108dd90610c20565b60405180910390fd5b600073ffffffffffffffffffffffffffffffffffffffff168173ffffffffffffffffffffffffffffffffffffffff161415610956576040517f08c379a000000000000000000000000000000000000000000000000000000000815260040161094d90610c00565b60405180910390fd5b61095f8161096a565b50565b600033905090565b60008060009054906101000a900473ffffffffffffffffffffffffffffffffffffffff169050816000806101000a81548173ffffffffffffffffffffffffffffffffffffffff021916908373ffffffffffffffffffffffffffffffffffffffff1602179055508173ffffffffffffffffffffffffffffffffffffffff168173ffffffffffffffffffffffffffffffffffffffff167f8be0079c531659141344cd1fd0a4f28419497f9722a3daafe3b4186f6b6457e060405160405180910390a35050565b6000610a41610a3c84610c80565b610c5b565b90508083825260208201905082856020860282011115610a6457610a63610e9b565b5b60005b85811015610a945781610a7a8882610a9e565b845260208401935060208301925050600181019050610a67565b5050509392505050565b600081359050610aad81610f33565b92915050565b600082601f830112610ac857610ac7610e96565b5b8135610ad8848260208601610a2e565b91505092915050565b600060208284031215610af757610af6610ea5565b5b6000610b0584828501610a9e565b91505092915050565b600060208284031215610b2457610b23610ea5565b5b600082013567ffffffffffffffff811115610b4257610b41610ea0565b5b610b4e84828501610ab3565b91505092915050565b610b6081610d47565b82525050565b610b6f81610d59565b82525050565b6000610b82602683610cac565b9150610b8d82610ebb565b604082019050919050565b6000610ba5602083610cac565b9150610bb082610f0a565b602082019050919050565b610bc481610d85565b82525050565b6000602082019050610bdf6000830184610b57565b92915050565b6000602082019050610bfa6000830184610b66565b92915050565b60006020820190508181036000830152610c1981610b75565b9050919050565b60006020820190508181036000830152610c3981610b98565b9050919050565b6000602082019050610c556000830184610bbb565b92915050565b6000610c65610c76565b9050610c718282610d8f565b919050565b6000604051905090565b600067ffffffffffffffff821115610c9b57610c9a610e67565b5b602082029050602081019050919050565b600082825260208201905092915050565b6000610cc882610d85565b9150610cd383610d85565b9250827fffffffffffffffffffffffffffffffffffffffffffffffffffffffffffffffff03821115610d0857610d07610e09565b5b828201905092915050565b6000610d1e82610d85565b9150610d2983610d85565b925082821015610d3c57610d3b610e09565b5b828203905092915050565b6000610d5282610d65565b9050919050565b60008115159050919050565b600073ffffffffffffffffffffffffffffffffffffffff82169050919050565b6000819050919050565b610d9882610eaa565b810181811067ffffffffffffffff82111715610db757610db6610e67565b5b80604052505050565b6000610dcb82610d85565b91507fffffffffffffffffffffffffffffffffffffffffffffffffffffffffffffffff821415610dfe57610dfd610e09565b5b600182019050919050565b7f4e487b7100000000000000000000000000000000000000000000000000000000600052601160045260246000fd5b7f4e487b7100000000000000000000000000000000000000000000000000000000600052603260045260246000fd5b7f4e487b7100000000000000000000000000000000000000000000000000000000600052604160045260246000fd5b600080fd5b600080fd5b600080fd5b600080fd5b6000601f19601f8301169050919050565b7f4f776e61626c653a206e6577206f776e657220697320746865207a65726f206160008201527f6464726573730000000000000000000000000000000000000000000000000000602082015250565b7f4f776e61626c653a2063616c6c6572206973206e6f7420746865206f776e6572600082015250565b610f3c81610d47565b8114610f4757600080fd5b5056fea2646970667358221220bed30b98fd52fd06427fedf4fcef33f2521d9e36ee375e945eb6c8c8ba1d457d64736f6c63430008070033494e204c4f434b204c494e4555502046554e4354494f4e20494e204c4f4c204c4f474943a2646970667358221220aa839de44ac133ed7746b9eaa9f3d504f41e25736f9ab1bfbab53d41c0e978e064736f6c63430008070033",
  "linkReferences": {
    "contracts/MOBALogicLibrary.sol": {
      "MOBALogicLibrary": [
        {
          "length": 20,
          "start": 2617
        },
        {
          "length": 20,
          "start": 7076
        }
      ]
    }
  },
  "deployedLinkReferences": {
    "contracts/MOBALogicLibrary.sol": {
      "MOBALogicLibrary": [
        {
          "length": 20,
          "start": 2332
        },
        {
          "length": 20,
          "start": 6791
        }
      ]
    }
  }
}