{
  "_format": "hh-sol-artifact-1",
  "contractName": "LeagueOfLegendsLogic",
  "sourceName": "contracts/LeagueOfLegendsLogic.sol",
  "abi": [
    {
      "anonymous": false,
      "inputs": [
        {
          "indexed": true,
          "internalType": "address",
          "name": "previousOwner",
          "type": "address"
        },
        {
          "indexed": true,
          "internalType": "address",
          "name": "newOwner",
          "type": "address"
        }
      ],
      "name": "OwnershipTransferred",
      "type": "event"
    },
    {
      "anonymous": false,
      "inputs": [
        {
          "indexed": false,
          "internalType": "address",
          "name": "sender",
          "type": "address"
        },
        {
          "indexed": false,
          "internalType": "uint256",
          "name": "amount",
          "type": "uint256"
        }
      ],
      "name": "Staked",
      "type": "event"
    },
    {
      "anonymous": false,
      "inputs": [
        {
          "indexed": false,
          "internalType": "address",
          "name": "addr",
          "type": "address"
        }
      ],
      "name": "WhitelistedAddressAdded",
      "type": "event"
    },
    {
      "anonymous": false,
      "inputs": [
        {
          "indexed": false,
          "internalType": "address",
          "name": "addr",
          "type": "address"
        }
      ],
      "name": "WhitelistedAddressRemoved",
      "type": "event"
    },
    {
      "anonymous": false,
      "inputs": [
        {
          "indexed": false,
          "internalType": "address",
          "name": "sender",
          "type": "address"
        },
        {
          "indexed": false,
          "internalType": "address",
          "name": "contractAddress",
          "type": "address"
        }
      ],
      "name": "testUSDCDeployed",
      "type": "event"
    },
    {
      "inputs": [
        {
          "internalType": "address",
          "name": "addr",
          "type": "address"
        }
      ],
      "name": "addAddressToWhitelist",
      "outputs": [
        {
          "internalType": "bool",
          "name": "success",
          "type": "bool"
        }
      ],
      "stateMutability": "nonpayable",
      "type": "function"
    },
    {
      "inputs": [
        {
          "internalType": "address[]",
          "name": "addrs",
          "type": "address[]"
        }
      ],
      "name": "addAddressesToWhitelist",
      "outputs": [
        {
          "internalType": "bool",
          "name": "success",
          "type": "bool"
        }
      ],
      "stateMutability": "nonpayable",
      "type": "function"
    },
    {
      "inputs": [
        {
          "internalType": "address",
          "name": "_userToAdd",
          "type": "address"
        }
      ],
      "name": "addUserToWhitelist",
      "outputs": [],
      "stateMutability": "nonpayable",
      "type": "function"
    },
    {
      "inputs": [],
      "name": "admin",
      "outputs": [
        {
          "internalType": "address",
          "name": "",
          "type": "address"
        }
      ],
      "stateMutability": "view",
      "type": "function"
    },
    {
      "inputs": [
        {
          "internalType": "uint256",
          "name": "currentWeekNum",
          "type": "uint256"
        }
      ],
      "name": "evaluateWeek",
      "outputs": [],
      "stateMutability": "nonpayable",
      "type": "function"
    },
    {
      "inputs": [],
      "name": "getNumWhitelisted",
      "outputs": [
        {
          "internalType": "uint256",
          "name": "",
          "type": "uint256"
        }
      ],
      "stateMutability": "view",
      "type": "function"
    },
    {
      "inputs": [
        {
          "internalType": "address",
          "name": "_user",
          "type": "address"
        }
      ],
      "name": "getUserIsWhitelisted",
      "outputs": [
        {
          "internalType": "bool",
          "name": "",
          "type": "bool"
        }
      ],
      "stateMutability": "view",
      "type": "function"
    },
    {
      "inputs": [],
      "name": "getUserRecord",
      "outputs": [
        {
          "internalType": "uint256[8]",
          "name": "",
          "type": "uint256[8]"
        }
      ],
      "stateMutability": "view",
      "type": "function"
    },
    {
      "inputs": [],
      "name": "getUserTotalPts",
      "outputs": [
        {
          "internalType": "uint256",
          "name": "",
          "type": "uint256"
        }
      ],
      "stateMutability": "view",
      "type": "function"
    },
    {
      "inputs": [],
      "name": "getUserUSDCBalance",
      "outputs": [
        {
          "internalType": "uint256",
          "name": "",
          "type": "uint256"
        }
      ],
      "stateMutability": "view",
      "type": "function"
    },
    {
      "inputs": [],
      "name": "getUsersLength",
      "outputs": [
        {
          "internalType": "uint256",
          "name": "",
          "type": "uint256"
        }
      ],
      "stateMutability": "view",
      "type": "function"
    },
    {
      "inputs": [
        {
          "internalType": "address",
          "name": "",
          "type": "address"
        }
      ],
      "name": "inLeague",
      "outputs": [
        {
          "internalType": "bool",
          "name": "",
          "type": "bool"
        }
      ],
      "stateMutability": "view",
      "type": "function"
    },
    {
      "inputs": [
        {
          "internalType": "string",
          "name": "_name",
          "type": "string"
        },
        {
          "internalType": "uint256",
          "name": "_stakeAmount",
          "type": "uint256"
        },
        {
          "internalType": "bool",
          "name": "_isPublic",
          "type": "bool"
        },
        {
          "internalType": "address",
          "name": "athletesDataStorageAddress",
          "type": "address"
        },
        {
          "internalType": "address",
          "name": "_admin",
          "type": "address"
        },
        {
          "internalType": "address",
          "name": "_polygonUSDCAddress",
          "type": "address"
        },
        {
          "internalType": "address",
          "name": "_rinkebyUSDCAddress",
          "type": "address"
        },
        {
          "internalType": "address",
          "name": "_testUSDCAddress",
          "type": "address"
        },
        {
          "internalType": "address",
          "name": "leagueMakerContractAddress",
          "type": "address"
        }
      ],
      "name": "initialize",
      "outputs": [],
      "stateMutability": "nonpayable",
      "type": "function"
    },
    {
      "inputs": [],
      "name": "isPublic",
      "outputs": [
        {
          "internalType": "bool",
          "name": "",
          "type": "bool"
        }
      ],
      "stateMutability": "view",
      "type": "function"
    },
    {
      "inputs": [],
      "name": "joinLeague",
      "outputs": [],
      "stateMutability": "nonpayable",
      "type": "function"
    },
    {
      "inputs": [
        {
          "internalType": "uint256",
          "name": "",
          "type": "uint256"
        }
      ],
      "name": "leagueMembers",
      "outputs": [
        {
          "internalType": "address",
          "name": "",
          "type": "address"
        }
      ],
      "stateMutability": "view",
      "type": "function"
    },
    {
      "inputs": [],
      "name": "leagueName",
      "outputs": [
        {
          "internalType": "string",
          "name": "",
          "type": "string"
        }
      ],
      "stateMutability": "view",
      "type": "function"
    },
    {
      "inputs": [],
      "name": "lockLineup",
      "outputs": [],
      "stateMutability": "nonpayable",
      "type": "function"
    },
    {
      "inputs": [],
      "name": "numWeeks",
      "outputs": [
        {
          "internalType": "uint256",
          "name": "",
          "type": "uint256"
        }
      ],
      "stateMutability": "view",
      "type": "function"
    },
    {
      "inputs": [],
      "name": "onLeagueEnd",
      "outputs": [],
      "stateMutability": "nonpayable",
      "type": "function"
    },
    {
      "inputs": [],
      "name": "owner",
      "outputs": [
        {
          "internalType": "address",
          "name": "",
          "type": "address"
        }
      ],
      "stateMutability": "view",
      "type": "function"
    },
    {
      "inputs": [],
      "name": "polygonUSDCAddress",
      "outputs": [
        {
          "internalType": "address",
          "name": "",
          "type": "address"
        }
      ],
      "stateMutability": "view",
      "type": "function"
    },
    {
      "inputs": [
        {
          "internalType": "address",
          "name": "addr",
          "type": "address"
        }
      ],
      "name": "removeAddressFromWhitelist",
      "outputs": [
        {
          "internalType": "bool",
          "name": "success",
          "type": "bool"
        }
      ],
      "stateMutability": "nonpayable",
      "type": "function"
    },
    {
      "inputs": [
        {
          "internalType": "address[]",
          "name": "addrs",
          "type": "address[]"
        }
      ],
      "name": "removeAddressesFromWhitelist",
      "outputs": [
        {
          "internalType": "bool",
          "name": "success",
          "type": "bool"
        }
      ],
      "stateMutability": "nonpayable",
      "type": "function"
    },
    {
      "inputs": [
        {
          "internalType": "address",
          "name": "_userToRemove",
          "type": "address"
        }
      ],
      "name": "removeFromWhitelist",
      "outputs": [],
      "stateMutability": "nonpayable",
      "type": "function"
    },
    {
      "inputs": [],
      "name": "renounceOwnership",
      "outputs": [],
      "stateMutability": "nonpayable",
      "type": "function"
    },
    {
      "inputs": [],
      "name": "rinkebyUSDCAddress",
      "outputs": [
        {
          "internalType": "address",
          "name": "",
          "type": "address"
        }
      ],
      "stateMutability": "view",
      "type": "function"
    },
    {
      "inputs": [],
      "name": "setLeagueEntryIsClosed",
      "outputs": [],
      "stateMutability": "nonpayable",
      "type": "function"
    },
    {
      "inputs": [],
      "name": "setLeagueSchedule",
      "outputs": [],
      "stateMutability": "nonpayable",
      "type": "function"
    },
    {
      "inputs": [
        {
          "internalType": "uint256[]",
          "name": "athleteIds",
          "type": "uint256[]"
        }
      ],
      "name": "setLineup",
      "outputs": [],
      "stateMutability": "nonpayable",
      "type": "function"
    },
    {
      "inputs": [],
      "name": "stakeAmount",
      "outputs": [
        {
          "internalType": "uint256",
          "name": "",
          "type": "uint256"
        }
      ],
      "stateMutability": "view",
      "type": "function"
    },
    {
      "inputs": [
        {
          "internalType": "address",
          "name": "newOwner",
          "type": "address"
        }
      ],
      "name": "transferOwnership",
      "outputs": [],
      "stateMutability": "nonpayable",
      "type": "function"
    },
    {
      "inputs": [],
      "name": "unlockLineup",
      "outputs": [],
      "stateMutability": "nonpayable",
      "type": "function"
    },
    {
      "inputs": [
        {
          "internalType": "address",
          "name": "",
          "type": "address"
        },
        {
          "internalType": "uint256",
          "name": "",
          "type": "uint256"
        }
      ],
      "name": "userToLineup",
      "outputs": [
        {
          "internalType": "uint256",
          "name": "",
          "type": "uint256"
        }
      ],
      "stateMutability": "view",
      "type": "function"
    },
    {
      "inputs": [
        {
          "internalType": "address",
          "name": "",
          "type": "address"
        },
        {
          "internalType": "uint256",
          "name": "",
          "type": "uint256"
        }
      ],
      "name": "userToRecord",
      "outputs": [
        {
          "internalType": "uint256",
          "name": "",
          "type": "uint256"
        }
      ],
      "stateMutability": "view",
      "type": "function"
    },
    {
      "inputs": [
        {
          "internalType": "address",
          "name": "",
          "type": "address"
        }
      ],
      "name": "userToTotalWins",
      "outputs": [
        {
          "internalType": "uint256",
          "name": "",
          "type": "uint256"
        }
      ],
      "stateMutability": "view",
      "type": "function"
    },
    {
      "inputs": [
        {
          "internalType": "address",
          "name": "",
          "type": "address"
        }
      ],
      "name": "whitelist",
      "outputs": [
        {
          "internalType": "bool",
          "name": "",
          "type": "bool"
        }
      ],
      "stateMutability": "view",
      "type": "function"
    }
  ],
  "bytecode": "0x60806040523480156200001157600080fd5b5062000032620000266200004060201b60201c565b6200004860201b60201c565b60016004819055506200010d565b600033905090565b60008060029054906101000a900473ffffffffffffffffffffffffffffffffffffffff16905081600060026101000a81548173ffffffffffffffffffffffffffffffffffffffff021916908373ffffffffffffffffffffffffffffffffffffffff1602179055508173ffffffffffffffffffffffffffffffffffffffff168173ffffffffffffffffffffffffffffffffffffffff167f8be0079c531659141344cd1fd0a4f28419497f9722a3daafe3b4186f6b6457e060405160405180910390a35050565b6152ad806200011d6000396000f3fe60806040523480156200001157600080fd5b50600436106200025b5760003560e01c80638da5cb5b116200014d578063cff5600311620000c9578063edcbe96c1162000087578063edcbe96c14620006c6578063f2fde38b14620006fc578063f612121a146200071c578063f851a440146200073c578063f8816045146200075e576200025b565b8063cff5600314620005f6578063dc9a1535146200062c578063e2ec6ec3146200064e578063e35a89991462000684578063e4c9066b14620006ba576200025b565b80639b19251a11620001175780639b19251a146200057c5780639f2d548114620005b2578063a2bc091a14620005d2578063c8be3b5b14620005de578063c99fea9414620005ea576200025b565b80638da5cb5b14620004e25780639122ce6d146200050457806393f3706c146200053a578063989db659146200055c576200025b565b80635fcc698711620001dd578063747b805011620001a7578063747b805014620004285780637b9417c814620004485780637eed33f1146200047e578063841abf6e14620004a05780638ab1d68114620004c2576200025b565b80635fcc698714620003b657806360c7dc4714620003d85780636bdc44df14620003fa578063715018a6146200041c576200025b565b806324953eaa116200022b57806324953eaa14620002d0578063267175db1462000306578063286dd3f5146200033c57806344eaa84e1462000372578063595b1a3e1462000394576200025b565b8062b2476f14620002605780630655465a14620002825780630c6f7959146200028e5780631d803e0014620002c4575b600080fd5b6200026a62000780565b6040516200027991906200363a565b60405180910390f35b6200028c620007a6565b005b620002ac6004803603810190620002a6919062002fc3565b6200085e565b604051620002bb9190620039bd565b60405180910390f35b620002ce62000887565b005b620002ee6004803603810190620002e891906200300a565b62000bb8565b604051620002fd9190620036df565b60405180910390f35b6200032460048036038101906200031e9190620031e1565b62000cb5565b6040516200033391906200363a565b60405180910390f35b6200035a600480360381019062000354919062002f91565b62000cf5565b604051620003699190620036df565b60405180910390f35b6200037c62000e84565b6040516200038b9190620039bd565b60405180910390f35b6200039e62000e8e565b604051620003ad9190620039bd565b60405180910390f35b620003c062000e9b565b604051620003cf9190620039bd565b60405180910390f35b620003e262000faa565b604051620003f19190620039bd565b60405180910390f35b6200040462000fb0565b604051620004139190620039bd565b60405180910390f35b6200042662000ff7565b005b62000446600480360381019062000440919062002f91565b62001088565b005b62000466600480360381019062000460919062002f91565b620011d2565b604051620004759190620036df565b60405180910390f35b620004886200135f565b604051620004979190620039bd565b60405180910390f35b620004aa62001365565b604051620004b99190620037bd565b60405180910390f35b620004e06004803603810190620004da919062002f91565b620013fb565b005b620004ec62001598565b604051620004fb91906200363a565b60405180910390f35b6200052260048036038101906200051c919062002f91565b620015c1565b604051620005319190620036df565b60405180910390f35b62000544620015e1565b6040516200055391906200363a565b60405180910390f35b6200057a6004803603810190620005749190620030de565b62001607565b005b6200059a600480360381019062000594919062002f91565b62001a5e565b604051620005a99190620036df565b60405180910390f35b620005d06004803603810190620005ca9190620031e1565b62001a7e565b005b620005dc62001b9f565b005b620005e862001c3f565b005b620005f462001cdf565b005b6200061460048036038101906200060e919062002fc3565b6200216d565b604051620006239190620039bd565b60405180910390f35b620006366200219f565b604051620006459190620036df565b60405180910390f35b6200066c60048036038101906200066691906200300a565b620021b2565b6040516200067b9190620036df565b60405180910390f35b620006a260048036038101906200069c919062002f91565b620022af565b604051620006b19190620036df565b60405180910390f35b620006c462002305565b005b620006e46004803603810190620006de919062002f91565b620023a5565b604051620006f39190620039bd565b60405180910390f35b6200071a600480360381019062000714919062002f91565b620023bd565b005b6200073a60048036038101906200073491906200305b565b620024c1565b005b62000746620029b5565b6040516200075591906200363a565b60405180910390f35b62000768620029db565b604051620007779190620036c1565b60405180910390f35b601260009054906101000a900473ffffffffffffffffffffffffffffffffffffffff1681565b620007e66040518060400160405280601081526020017f73657474696e67207363686564756c650000000000000000000000000000000081525062002a67565b73__$36fdb4e0c2cb91f3ceca5ea81b025328f3$__63d2c232b56010600f60065460056040518563ffffffff1660e01b81526004016200082a9493929190620036fc565b60006040518083038186803b1580156200084357600080fd5b505af415801562000858573d6000803e3d6000fd5b50505050565b600b60205281600052604060002081600881106200087b57600080fd5b01600091509150505481565b6200089162002b04565b73ffffffffffffffffffffffffffffffffffffffff16620008b162001598565b73ffffffffffffffffffffffffffffffffffffffff16146200090a576040517f08c379a00000000000000000000000000000000000000000000000000000000081526004016200090190620038cf565b60405180910390fd5b6002600454141562000953576040517f08c379a00000000000000000000000000000000000000000000000000000000081526004016200094a9062003979565b60405180910390fd5b60026004819055506000600f8054905060075462000972919062003b2d565b90506000600f6000815481106200098e576200098d62003dcc565b5b9060005260206000200160009054906101000a900473ffffffffffffffffffffffffffffffffffffffff1690506000600190505b600f8054905081101562000af357600a60008373ffffffffffffffffffffffffffffffffffffffff1673ffffffffffffffffffffffffffffffffffffffff16815260200190815260200160002054600a6000600f848154811062000a2b5762000a2a62003dcc565b5b9060005260206000200160009054906101000a900473ffffffffffffffffffffffffffffffffffffffff1673ffffffffffffffffffffffffffffffffffffffff1673ffffffffffffffffffffffffffffffffffffffff16815260200190815260200160002054111562000add57600f818154811062000aaf5762000aae62003dcc565b5b9060005260206000200160009054906101000a900473ffffffffffffffffffffffffffffffffffffffff1691505b808062000aea9062003d20565b915050620009c2565b50601660009054906101000a900473ffffffffffffffffffffffffffffffffffffffff1673ffffffffffffffffffffffffffffffffffffffff166323b872dd3083856040518463ffffffff1660e01b815260040162000b559392919062003657565b602060405180830381600087803b15801562000b7057600080fd5b505af115801562000b85573d6000803e3d6000fd5b505050506040513d601f19601f8201168201806040525081019062000bab9190620030ac565b5050506001600481905550565b600062000bc462002b04565b73ffffffffffffffffffffffffffffffffffffffff1662000be462001598565b73ffffffffffffffffffffffffffffffffffffffff161462000c3d576040517f08c379a000000000000000000000000000000000000000000000000000000000815260040162000c3490620038cf565b60405180910390fd5b60005b825181101562000caf5762000c7283828151811062000c645762000c6362003dcc565b5b602002602001015162000cf5565b1562000c995760016002600082825462000c8d919062003b8e565b92505081905550600191505b808062000ca69062003d20565b91505062000c40565b50919050565b600f818154811062000cc657600080fd5b906000526020600020016000915054906101000a900473ffffffffffffffffffffffffffffffffffffffff1681565b600062000d0162002b04565b73ffffffffffffffffffffffffffffffffffffffff1662000d2162001598565b73ffffffffffffffffffffffffffffffffffffffff161462000d7a576040517f08c379a000000000000000000000000000000000000000000000000000000000815260040162000d7190620038cf565b60405180910390fd5b600160008373ffffffffffffffffffffffffffffffffffffffff1673ffffffffffffffffffffffffffffffffffffffff16815260200190815260200160002060009054906101000a900460ff161562000e7f576000600160008473ffffffffffffffffffffffffffffffffffffffff1673ffffffffffffffffffffffffffffffffffffffff16815260200190815260200160002060006101000a81548160ff0219169083151502179055507ff1abf01a1043b7c244d128e8595cf0c1d10743b022b03a02dffd8ca3bf729f5a8260405162000e5691906200363a565b60405180910390a160016002600082825462000e73919062003b8e565b92505081905550600190505b919050565b6000600254905090565b6000600f80549050905090565b6000600e60003373ffffffffffffffffffffffffffffffffffffffff1673ffffffffffffffffffffffffffffffffffffffff16815260200190815260200160002060009054906101000a900460ff1662000ef457600080fd5b601660009054906101000a900473ffffffffffffffffffffffffffffffffffffffff1673ffffffffffffffffffffffffffffffffffffffff166370a08231336040518263ffffffff1660e01b815260040162000f5191906200363a565b60206040518083038186803b15801562000f6a57600080fd5b505afa15801562000f7f573d6000803e3d6000fd5b505050506040513d601f19601f8201168201806040525081019062000fa5919062003213565b905090565b60075481565b6000600a60003373ffffffffffffffffffffffffffffffffffffffff1673ffffffffffffffffffffffffffffffffffffffff16815260200190815260200160002054905090565b6200100162002b04565b73ffffffffffffffffffffffffffffffffffffffff166200102162001598565b73ffffffffffffffffffffffffffffffffffffffff16146200107a576040517f08c379a00000000000000000000000000000000000000000000000000000000081526004016200107190620038cf565b60405180910390fd5b62001086600062002b0c565b565b600860009054906101000a900473ffffffffffffffffffffffffffffffffffffffff1673ffffffffffffffffffffffffffffffffffffffff163373ffffffffffffffffffffffffffffffffffffffff16146200111b576040517f08c379a0000000000000000000000000000000000000000000000000000000008152600401620011129062003913565b60405180910390fd5b601460009054906101000a900473ffffffffffffffffffffffffffffffffffffffff1673ffffffffffffffffffffffffffffffffffffffff16637b9417c8826040518263ffffffff1660e01b81526004016200117891906200363a565b602060405180830381600087803b1580156200119357600080fd5b505af1158015620011a8573d6000803e3d6000fd5b505050506040513d601f19601f82011682018060405250810190620011ce9190620030ac565b5050565b6000620011de62002b04565b73ffffffffffffffffffffffffffffffffffffffff16620011fe62001598565b73ffffffffffffffffffffffffffffffffffffffff161462001257576040517f08c379a00000000000000000000000000000000000000000000000000000000081526004016200124e90620038cf565b60405180910390fd5b600160008373ffffffffffffffffffffffffffffffffffffffff1673ffffffffffffffffffffffffffffffffffffffff16815260200190815260200160002060009054906101000a900460ff166200135a5760018060008473ffffffffffffffffffffffffffffffffffffffff1673ffffffffffffffffffffffffffffffffffffffff16815260200190815260200160002060006101000a81548160ff0219169083151502179055507fd1bba68c128cc3f427e5831b3c6f99f480b6efa6b9e80c757768f6124158cc3f826040516200133191906200363a565b60405180910390a16001600260008282546200134e919062003ad0565b92505081905550600190505b919050565b60065481565b60058054620013749062003cb4565b80601f0160208091040260200160405190810160405280929190818152602001828054620013a29062003cb4565b8015620013f35780601f10620013c757610100808354040283529160200191620013f3565b820191906000526020600020905b815481529060010190602001808311620013d557829003601f168201915b505050505081565b600860009054906101000a900473ffffffffffffffffffffffffffffffffffffffff1673ffffffffffffffffffffffffffffffffffffffff163373ffffffffffffffffffffffffffffffffffffffff16146200148e576040517f08c379a0000000000000000000000000000000000000000000000000000000008152600401620014859062003913565b60405180910390fd5b600960149054906101000a900460ff1615620014e1576040517f08c379a0000000000000000000000000000000000000000000000000000000008152600401620014d89062003935565b60405180910390fd5b601460009054906101000a900473ffffffffffffffffffffffffffffffffffffffff1673ffffffffffffffffffffffffffffffffffffffff1663286dd3f5826040518263ffffffff1660e01b81526004016200153e91906200363a565b602060405180830381600087803b1580156200155957600080fd5b505af11580156200156e573d6000803e3d6000fd5b505050506040513d601f19601f82011682018060405250810190620015949190620030ac565b5050565b60008060029054906101000a900473ffffffffffffffffffffffffffffffffffffffff16905090565b600e6020528060005260406000206000915054906101000a900460ff1681565b601160009054906101000a900473ffffffffffffffffffffffffffffffffffffffff1681565b600060019054906101000a900460ff16620016315760008054906101000a900460ff16156200163c565b6200163b62002bd1565b5b6200167e576040517f08c379a00000000000000000000000000000000000000000000000000000000081526004016200167590620038ad565b60405180910390fd5b60008060019054906101000a900460ff161590508015620016cf576001600060016101000a81548160ff02191690831515021790555060016000806101000a81548160ff0219169083151502179055505b8a8a60059190620016e292919062002c30565b5060086006819055506001600e60008873ffffffffffffffffffffffffffffffffffffffff1673ffffffffffffffffffffffffffffffffffffffff16815260200190815260200160002060006101000a81548160ff021916908315150217905550600f869080600181540180825580915050600190039060005260206000200160009091909190916101000a81548173ffffffffffffffffffffffffffffffffffffffff021916908373ffffffffffffffffffffffffffffffffffffffff16021790555085600860006101000a81548173ffffffffffffffffffffffffffffffffffffffff021916908373ffffffffffffffffffffffffffffffffffffffff1602179055508860078190555087600360006101000a81548160ff0219169083151502179055506000600960156101000a81548160ff0219169083151502179055506000600960146101000a81548160ff02191690831515021790555086601360006101000a81548173ffffffffffffffffffffffffffffffffffffffff021916908373ffffffffffffffffffffffffffffffffffffffff16021790555081601560006101000a81548173ffffffffffffffffffffffffffffffffffffffff021916908373ffffffffffffffffffffffffffffffffffffffff160217905550604051620018ce9062002cc1565b604051809103906000f080158015620018eb573d6000803e3d6000fd5b50601460006101000a81548173ffffffffffffffffffffffffffffffffffffffff021916908373ffffffffffffffffffffffffffffffffffffffff16021790555084601160006101000a81548173ffffffffffffffffffffffffffffffffffffffff021916908373ffffffffffffffffffffffffffffffffffffffff16021790555083601260006101000a81548173ffffffffffffffffffffffffffffffffffffffff021916908373ffffffffffffffffffffffffffffffffffffffff16021790555082601660006101000a81548173ffffffffffffffffffffffffffffffffffffffff021916908373ffffffffffffffffffffffffffffffffffffffff16021790555062001a2f6040518060400160405280601281526020017f50726f787920696e697469616c697a656421000000000000000000000000000081525062002a67565b801562001a515760008060016101000a81548160ff0219169083151502179055505b5050505050505050505050565b60016020528060005260406000206000915054906101000a900460ff1681565b62001a8862002b04565b73ffffffffffffffffffffffffffffffffffffffff1662001aa862001598565b73ffffffffffffffffffffffffffffffffffffffff161462001b01576040517f08c379a000000000000000000000000000000000000000000000000000000000815260040162001af890620038cf565b60405180910390fd5b73__$36fdb4e0c2cb91f3ceca5ea81b025328f3$__63c406e268601083601360009054906101000a900473ffffffffffffffffffffffffffffffffffffffff16600b600a600d6040518763ffffffff1660e01b815260040162001b6a9695949392919062003750565b60006040518083038186803b15801562001b8357600080fd5b505af415801562001b98573d6000803e3d6000fd5b5050505050565b62001ba962002b04565b73ffffffffffffffffffffffffffffffffffffffff1662001bc962001598565b73ffffffffffffffffffffffffffffffffffffffff161462001c22576040517f08c379a000000000000000000000000000000000000000000000000000000000815260040162001c1990620038cf565b60405180910390fd5b6000600960156101000a81548160ff021916908315150217905550565b62001c4962002b04565b73ffffffffffffffffffffffffffffffffffffffff1662001c6962001598565b73ffffffffffffffffffffffffffffffffffffffff161462001cc2576040517f08c379a000000000000000000000000000000000000000000000000000000000815260040162001cb990620038cf565b60405180910390fd5b6001600960156101000a81548160ff021916908315150217905550565b600160003373ffffffffffffffffffffffffffffffffffffffff1673ffffffffffffffffffffffffffffffffffffffff16815260200190815260200160002060009054906101000a900460ff168062001d445750600360009054906101000a900460ff165b62001d86576040517f08c379a000000000000000000000000000000000000000000000000000000000815260040162001d7d9062003847565b60405180910390fd5b6002600454141562001dcf576040517f08c379a000000000000000000000000000000000000000000000000000000000815260040162001dc69062003979565b60405180910390fd5b6002600481905550600960149054906101000a900460ff161562001e2a576040517f08c379a000000000000000000000000000000000000000000000000000000000815260040162001e21906200399b565b60405180910390fd5b600e60003373ffffffffffffffffffffffffffffffffffffffff1673ffffffffffffffffffffffffffffffffffffffff16815260200190815260200160002060009054906101000a900460ff161562001eba576040517f08c379a000000000000000000000000000000000000000000000000000000000815260040162001eb19062003825565b60405180910390fd5b600754601660009054906101000a900473ffffffffffffffffffffffffffffffffffffffff1673ffffffffffffffffffffffffffffffffffffffff166370a08231336040518263ffffffff1660e01b815260040162001f1a91906200363a565b60206040518083038186803b15801562001f3357600080fd5b505afa15801562001f48573d6000803e3d6000fd5b505050506040513d601f19601f8201168201806040525081019062001f6e919062003213565b1162001fb1576040517f08c379a000000000000000000000000000000000000000000000000000000000815260040162001fa89062003803565b60405180910390fd5b6001600e60003373ffffffffffffffffffffffffffffffffffffffff1673ffffffffffffffffffffffffffffffffffffffff16815260200190815260200160002060006101000a81548160ff021916908315150217905550600f339080600181540180825580915050600190039060005260206000200160009091909190916101000a81548173ffffffffffffffffffffffffffffffffffffffff021916908373ffffffffffffffffffffffffffffffffffffffff160217905550601660009054906101000a900473ffffffffffffffffffffffffffffffffffffffff1673ffffffffffffffffffffffffffffffffffffffff166323b872dd33306007546040518463ffffffff1660e01b8152600401620020cf9392919062003657565b602060405180830381600087803b158015620020ea57600080fd5b505af1158015620020ff573d6000803e3d6000fd5b505050506040513d601f19601f82011682018060405250810190620021259190620030ac565b507f9e71bc8eea02a63969f509818f2dafb9254532904319f9dbda79b67bd34a5f3d336007546040516200215b92919062003694565b60405180910390a16001600481905550565b600d60205281600052604060002081815481106200218a57600080fd5b90600052602060002001600091509150505481565b600360009054906101000a900460ff1681565b6000620021be62002b04565b73ffffffffffffffffffffffffffffffffffffffff16620021de62001598565b73ffffffffffffffffffffffffffffffffffffffff161462002237576040517f08c379a00000000000000000000000000000000000000000000000000000000081526004016200222e90620038cf565b60405180910390fd5b60005b8251811015620022a9576200226c8382815181106200225e576200225d62003dcc565b5b6020026020010151620011d2565b15620022935760016002600082825462002287919062003ad0565b92505081905550600191505b8080620022a09062003d20565b9150506200223a565b50919050565b6000600160008373ffffffffffffffffffffffffffffffffffffffff1673ffffffffffffffffffffffffffffffffffffffff16815260200190815260200160002060009054906101000a900460ff169050919050565b6200230f62002b04565b73ffffffffffffffffffffffffffffffffffffffff166200232f62001598565b73ffffffffffffffffffffffffffffffffffffffff161462002388576040517f08c379a00000000000000000000000000000000000000000000000000000000081526004016200237f90620038cf565b60405180910390fd5b6001600960146101000a81548160ff021916908315150217905550565b600a6020528060005260406000206000915090505481565b620023c762002b04565b73ffffffffffffffffffffffffffffffffffffffff16620023e762001598565b73ffffffffffffffffffffffffffffffffffffffff161462002440576040517f08c379a00000000000000000000000000000000000000000000000000000000081526004016200243790620038cf565b60405180910390fd5b600073ffffffffffffffffffffffffffffffffffffffff168173ffffffffffffffffffffffffffffffffffffffff161415620024b3576040517f08c379a0000000000000000000000000000000000000000000000000000000008152600401620024aa90620037e1565b60405180910390fd5b620024be8162002b0c565b50565b600960159054906101000a900460ff161562002514576040517f08c379a00000000000000000000000000000000000000000000000000000000081526004016200250b906200388b565b60405180910390fd5b600e60003373ffffffffffffffffffffffffffffffffffffffff1673ffffffffffffffffffffffffffffffffffffffff16815260200190815260200160002060009054906101000a900460ff16620025a3576040517f08c379a00000000000000000000000000000000000000000000000000000000081526004016200259a90620038f1565b60405180910390fd5b6000601560009054906101000a900473ffffffffffffffffffffffffffffffffffffffff1673ffffffffffffffffffffffffffffffffffffffff166306575c896040518163ffffffff1660e01b815260040160206040518083038186803b1580156200260e57600080fd5b505afa15801562002623573d6000803e3d6000fd5b505050506040513d601f19601f8201168201806040525081019062002649919062003213565b905060005b600d60003373ffffffffffffffffffffffffffffffffffffffff1673ffffffffffffffffffffffffffffffffffffffff168152602001908152602001600020805490508110156200274e57600c6000600d60003373ffffffffffffffffffffffffffffffffffffffff1673ffffffffffffffffffffffffffffffffffffffff1681526020019081526020016000208381548110620026f157620026f062003dcc565b5b9060005260206000200154815260200190815260200160002082600881106200271f576200271e62003dcc565b5b016000815480929190620027339062003c85565b91905055508080620027459062003d20565b9150506200264e565b5060005b8251811015620028c757600c6000828152602001908152602001600020826008811062002784576200278362003dcc565b5b016000815480929190620027989062003d20565b91905055506000601760009054906101000a900473ffffffffffffffffffffffffffffffffffffffff1673ffffffffffffffffffffffffffffffffffffffff1662fdd58e33868581518110620027f357620027f262003dcc565b5b60200260200101516040518363ffffffff1660e01b81526004016200281a92919062003694565b60206040518083038186803b1580156200283357600080fd5b505afa15801562002848573d6000803e3d6000fd5b505050506040513d601f19601f820116820180604052508101906200286e919062003213565b11620028b1576040517f08c379a0000000000000000000000000000000000000000000000000000000008152600401620028a89062003957565b60405180910390fd5b8080620028be9062003d20565b91505062002752565b5060005b82518110156200295a576001600c60008381526020019081526020016000208360088110620028ff57620028fe62003dcc565b5b01541462002944576040517f08c379a00000000000000000000000000000000000000000000000000000000081526004016200293b9062003869565b60405180910390fd5b8080620029519062003d20565b915050620028cb565b5081600d60003373ffffffffffffffffffffffffffffffffffffffff1673ffffffffffffffffffffffffffffffffffffffff1681526020019081526020016000209080519060200190620029b092919062002ccf565b505050565b600860009054906101000a900473ffffffffffffffffffffffffffffffffffffffff1681565b620029e562002d21565b600b60003373ffffffffffffffffffffffffffffffffffffffff1673ffffffffffffffffffffffffffffffffffffffff16815260200190815260200160002060088060200260405190810160405280929190826008801562002a5d576020028201915b81548152602001906001019080831162002a48575b5050505050905090565b62002b018160405160240162002a7e9190620037bd565b6040516020818303038152906040527f41304fac000000000000000000000000000000000000000000000000000000007bffffffffffffffffffffffffffffffffffffffffffffffffffffffff19166020820180517bffffffffffffffffffffffffffffffffffffffffffffffffffffffff838183161783525050505062002be4565b50565b600033905090565b60008060029054906101000a900473ffffffffffffffffffffffffffffffffffffffff16905081600060026101000a81548173ffffffffffffffffffffffffffffffffffffffff021916908373ffffffffffffffffffffffffffffffffffffffff1602179055508173ffffffffffffffffffffffffffffffffffffffff168173ffffffffffffffffffffffffffffffffffffffff167f8be0079c531659141344cd1fd0a4f28419497f9722a3daafe3b4186f6b6457e060405160405180910390a35050565b600062002bde3062002c0d565b15905090565b60008151905060006a636f6e736f6c652e6c6f679050602083016000808483855afa5050505050565b6000808273ffffffffffffffffffffffffffffffffffffffff163b119050919050565b82805462002c3e9062003cb4565b90600052602060002090601f01602090048101928262002c62576000855562002cae565b82601f1062002c7d57803560ff191683800117855562002cae565b8280016001018555821562002cae579182015b8281111562002cad57823582559160200191906001019062002c90565b5b50905062002cbd919062002d44565b5090565b61108d80620041eb83390190565b82805482825590600052602060002090810192821562002d0e579160200282015b8281111562002d0d57825182559160200191906001019062002cf0565b5b50905062002d1d919062002d44565b5090565b604051806101000160405280600890602082028036833780820191505090505090565b5b8082111562002d5f57600081600090555060010162002d45565b5090565b600062002d7a62002d748462003a03565b620039da565b9050808382526020820190508285602086028201111562002da05762002d9f62003e34565b5b60005b8581101562002dd4578162002db9888262002e59565b84526020840193506020830192505060018101905062002da3565b5050509392505050565b600062002df562002def8462003a32565b620039da565b9050808382526020820190508285602086028201111562002e1b5762002e1a62003e34565b5b60005b8581101562002e4f578162002e34888262002f63565b84526020840193506020830192505060018101905062002e1e565b5050509392505050565b60008135905062002e6a816200419c565b92915050565b600082601f83011262002e885762002e8762003e2f565b5b813562002e9a84826020860162002d63565b91505092915050565b600082601f83011262002ebb5762002eba62003e2f565b5b813562002ecd84826020860162002dde565b91505092915050565b60008135905062002ee781620041b6565b92915050565b60008151905062002efe81620041b6565b92915050565b60008083601f84011262002f1d5762002f1c62003e2f565b5b8235905067ffffffffffffffff81111562002f3d5762002f3c62003e2a565b5b60208301915083600182028301111562002f5c5762002f5b62003e34565b5b9250929050565b60008135905062002f7481620041d0565b92915050565b60008151905062002f8b81620041d0565b92915050565b60006020828403121562002faa5762002fa962003e3e565b5b600062002fba8482850162002e59565b91505092915050565b6000806040838503121562002fdd5762002fdc62003e3e565b5b600062002fed8582860162002e59565b9250506020620030008582860162002f63565b9150509250929050565b60006020828403121562003023576200302262003e3e565b5b600082013567ffffffffffffffff81111562003044576200304362003e39565b5b620030528482850162002e70565b91505092915050565b60006020828403121562003074576200307362003e3e565b5b600082013567ffffffffffffffff81111562003095576200309462003e39565b5b620030a38482850162002ea3565b91505092915050565b600060208284031215620030c557620030c462003e3e565b5b6000620030d58482850162002eed565b91505092915050565b6000806000806000806000806000806101208b8d03121562003105576200310462003e3e565b5b60008b013567ffffffffffffffff81111562003126576200312562003e39565b5b620031348d828e0162002f04565b9a509a50506020620031498d828e0162002f63565b98505060406200315c8d828e0162002ed6565b97505060606200316f8d828e0162002e59565b9650506080620031828d828e0162002e59565b95505060a0620031958d828e0162002e59565b94505060c0620031a88d828e0162002e59565b93505060e0620031bb8d828e0162002e59565b925050610100620031cf8d828e0162002e59565b9150509295989b9194979a5092959850565b600060208284031215620031fa57620031f962003e3e565b5b60006200320a8482850162002f63565b91505092915050565b6000602082840312156200322c576200322b62003e3e565b5b60006200323c8482850162002f7a565b91505092915050565b600062003253838362003607565b60208301905092915050565b6200326a8162003bc9565b82525050565b8082525050565b620032828162003a80565b6200328e818462003aa3565b92506200329b8262003a61565b8060005b83811015620032d2578151620032b6878262003245565b9650620032c38362003a96565b9250506001810190506200329f565b505050505050565b620032e58162003bdd565b82525050565b620032f68162003c13565b82525050565b8082525050565b8082525050565b8082525050565b8082525050565b6000620033258262003a8b565b62003331818562003aae565b93506200334381856020860162003c4f565b6200334e8162003e43565b840191505092915050565b60008154620033688162003cb4565b62003374818662003abf565b94506001821660008114620033925760018114620033a557620033dc565b60ff1983168652602086019350620033dc565b620033b08562003a6b565b60005b83811015620033d457815481890152600182019150602081019050620033b3565b808801955050505b50505092915050565b6000620033f460268362003aae565b9150620034018262003e54565b604082019050919050565b60006200341b601d8362003aae565b9150620034288262003ea3565b602082019050919050565b60006200344260238362003aae565b91506200344f8262003ecc565b604082019050919050565b600062003469601a8362003aae565b9150620034768262003f1b565b602082019050919050565b60006200349060258362003aae565b91506200349d8262003f44565b604082019050919050565b6000620034b7601e8362003aae565b9150620034c48262003f93565b602082019050919050565b6000620034de602e8362003aae565b9150620034eb8262003fbc565b604082019050919050565b60006200350560208362003aae565b915062003512826200400b565b602082019050919050565b60006200352c60158362003aae565b9150620035398262004034565b602082019050919050565b60006200355360178362003aae565b915062003560826200405d565b602082019050919050565b60006200357a60418362003aae565b9150620035878262004086565b606082019050919050565b6000620035a160248362003aae565b9150620035ae82620040fb565b604082019050919050565b6000620035c8601f8362003aae565b9150620035d5826200414a565b602082019050919050565b6000620035ef60178362003aae565b9150620035fc8262004173565b602082019050919050565b620036128162003c09565b82525050565b620036238162003c09565b82525050565b620036348162003c09565b82525050565b60006020820190506200365160008301846200325f565b92915050565b60006060820190506200366e60008301866200325f565b6200367d60208301856200325f565b6200368c604083018462003618565b949350505050565b6000604082019050620036ab60008301856200325f565b620036ba602083018462003618565b9392505050565b600061010082019050620036d9600083018462003277565b92915050565b6000602082019050620036f66000830184620032da565b92915050565b600060808201905062003713600083018762003311565b62003722602083018662003270565b62003731604083018562003629565b818103606083015262003745818462003359565b905095945050505050565b600060c08201905062003767600083018962003311565b62003776602083018862003629565b620037856040830187620032eb565b620037946060830186620032fc565b620037a360808301856200330a565b620037b260a083018462003303565b979650505050505050565b60006020820190508181036000830152620037d9818462003318565b905092915050565b60006020820190508181036000830152620037fc81620033e5565b9050919050565b600060208201905081810360008301526200381e816200340c565b9050919050565b60006020820190508181036000830152620038408162003433565b9050919050565b6000602082019050818103600083015262003862816200345a565b9050919050565b60006020820190508181036000830152620038848162003481565b9050919050565b60006020820190508181036000830152620038a681620034a8565b9050919050565b60006020820190508181036000830152620038c881620034cf565b9050919050565b60006020820190508181036000830152620038ea81620034f6565b9050919050565b600060208201905081810360008301526200390c816200351d565b9050919050565b600060208201905081810360008301526200392e8162003544565b9050919050565b6000602082019050818103600083015262003950816200356b565b9050919050565b60006020820190508181036000830152620039728162003592565b9050919050565b600060208201905081810360008301526200399481620035b9565b9050919050565b60006020820190508181036000830152620039b681620035e0565b9050919050565b6000602082019050620039d4600083018462003618565b92915050565b6000620039e6620039f9565b9050620039f4828262003cea565b919050565b6000604051905090565b600067ffffffffffffffff82111562003a215762003a2062003dfb565b5b602082029050602081019050919050565b600067ffffffffffffffff82111562003a505762003a4f62003dfb565b5b602082029050602081019050919050565b6000819050919050565b60008190508160005260206000209050919050565b600060089050919050565b600081519050919050565b6000602082019050919050565b600081905092915050565b600082825260208201905092915050565b600082825260208201905092915050565b600062003add8262003c09565b915062003aea8362003c09565b9250827fffffffffffffffffffffffffffffffffffffffffffffffffffffffffffffffff0382111562003b225762003b2162003d6e565b5b828201905092915050565b600062003b3a8262003c09565b915062003b478362003c09565b9250817fffffffffffffffffffffffffffffffffffffffffffffffffffffffffffffffff048311821515161562003b835762003b8262003d6e565b5b828202905092915050565b600062003b9b8262003c09565b915062003ba88362003c09565b92508282101562003bbe5762003bbd62003d6e565b5b828203905092915050565b600062003bd68262003be9565b9050919050565b60008115159050919050565b600073ffffffffffffffffffffffffffffffffffffffff82169050919050565b6000819050919050565b600062003c208262003c27565b9050919050565b600062003c348262003c3b565b9050919050565b600062003c488262003be9565b9050919050565b60005b8381101562003c6f57808201518184015260208101905062003c52565b8381111562003c7f576000848401525b50505050565b600062003c928262003c09565b9150600082141562003ca95762003ca862003d6e565b5b600182039050919050565b6000600282049050600182168062003ccd57607f821691505b6020821081141562003ce45762003ce362003d9d565b5b50919050565b62003cf58262003e43565b810181811067ffffffffffffffff8211171562003d175762003d1662003dfb565b5b80604052505050565b600062003d2d8262003c09565b91507fffffffffffffffffffffffffffffffffffffffffffffffffffffffffffffffff82141562003d635762003d6262003d6e565b5b600182019050919050565b7f4e487b7100000000000000000000000000000000000000000000000000000000600052601160045260246000fd5b7f4e487b7100000000000000000000000000000000000000000000000000000000600052602260045260246000fd5b7f4e487b7100000000000000000000000000000000000000000000000000000000600052603260045260246000fd5b7f4e487b7100000000000000000000000000000000000000000000000000000000600052604160045260246000fd5b600080fd5b600080fd5b600080fd5b600080fd5b600080fd5b6000601f19601f8301169050919050565b7f4f776e61626c653a206e6577206f776e657220697320746865207a65726f206160008201527f6464726573730000000000000000000000000000000000000000000000000000602082015250565b7f496e737566666963656e742066756e647320666f72207374616b696e67000000600082015250565b7f596f75206861766520616c7265616479206a6f696e65642074686973206c656160008201527f6775650000000000000000000000000000000000000000000000000000000000602082015250565b7f55736572206973206e6f742077686974656c6973746564203a28000000000000600082015250565b7f4475706c6963617465206174686c65746549447320617265206e6f7420616c6c60008201527f6f7765642e000000000000000000000000000000000000000000000000000000602082015250565b7f6c696e657570206973206c6f636b656420666f7220746865207765656b210000600082015250565b7f496e697469616c697a61626c653a20636f6e747261637420697320616c72656160008201527f647920696e697469616c697a6564000000000000000000000000000000000000602082015250565b7f4f776e61626c653a2063616c6c6572206973206e6f7420746865206f776e6572600082015250565b7f75736572206973206e6f7420696e204c65616775650000000000000000000000600082015250565b7f43616c6c6572206973206e6f74207468652061646d696e000000000000000000600082015250565b7f4e6f626f64792063616e20656e7465722f6578697420746865206c656167756560008201527f20616e796d6f72652e2054686520736561736f6e20686173207374617274656460208201527f2100000000000000000000000000000000000000000000000000000000000000604082015250565b7f43616c6c657220646f6573206e6f74206f776e20676976656e206174686c657460008201527f6549647300000000000000000000000000000000000000000000000000000000602082015250565b7f5265656e7472616e637947756172643a207265656e7472616e742063616c6c00600082015250565b7f4c656167756520456e74727920697320436c6f73656421000000000000000000600082015250565b620041a78162003bc9565b8114620041b357600080fd5b50565b620041c18162003bdd565b8114620041cd57600080fd5b50565b620041db8162003c09565b8114620041e757600080fd5b5056fe608060405234801561001057600080fd5b5061002d61002261003260201b60201c565b61003a60201b60201c565b6100fe565b600033905090565b60008060009054906101000a900473ffffffffffffffffffffffffffffffffffffffff169050816000806101000a81548173ffffffffffffffffffffffffffffffffffffffff021916908373ffffffffffffffffffffffffffffffffffffffff1602179055508173ffffffffffffffffffffffffffffffffffffffff168173ffffffffffffffffffffffffffffffffffffffff167f8be0079c531659141344cd1fd0a4f28419497f9722a3daafe3b4186f6b6457e060405160405180910390a35050565b610f808061010d6000396000f3fe608060405234801561001057600080fd5b50600436106100a95760003560e01c80638da5cb5b116100715780638da5cb5b146101665780639b19251a14610184578063dc9a1535146101b4578063e2ec6ec3146101d2578063e35a899914610202578063f2fde38b14610232576100a9565b806324953eaa146100ae578063286dd3f5146100de57806344eaa84e1461010e578063715018a61461012c5780637b9417c814610136575b600080fd5b6100c860048036038101906100c39190610b0e565b61024e565b6040516100d59190610be5565b60405180910390f35b6100f860048036038101906100f39190610ae1565b610338565b6040516101059190610be5565b60405180910390f35b6101166104bb565b6040516101239190610c40565b60405180910390f35b6101346104c5565b005b610150600480360381019061014b9190610ae1565b61054d565b60405161015d9190610be5565b60405180910390f35b61016e6106ce565b60405161017b9190610bca565b60405180910390f35b61019e60048036038101906101999190610ae1565b6106f7565b6040516101ab9190610be5565b60405180910390f35b6101bc610717565b6040516101c99190610be5565b60405180910390f35b6101ec60048036038101906101e79190610b0e565b61072a565b6040516101f99190610be5565b60405180910390f35b61021c60048036038101906102179190610ae1565b610814565b6040516102299190610be5565b60405180910390f35b61024c60048036038101906102479190610ae1565b61086a565b005b6000610258610962565b73ffffffffffffffffffffffffffffffffffffffff166102766106ce565b73ffffffffffffffffffffffffffffffffffffffff16146102cc576040517f08c379a00000000000000000000000000000000000000000000000000000000081526004016102c390610c20565b60405180910390fd5b60005b8251811015610332576102fb8382815181106102ee576102ed610e38565b5b6020026020010151610338565b1561031f576001600260008282546103139190610d13565b92505081905550600191505b808061032a90610dc0565b9150506102cf565b50919050565b6000610342610962565b73ffffffffffffffffffffffffffffffffffffffff166103606106ce565b73ffffffffffffffffffffffffffffffffffffffff16146103b6576040517f08c379a00000000000000000000000000000000000000000000000000000000081526004016103ad90610c20565b60405180910390fd5b600160008373ffffffffffffffffffffffffffffffffffffffff1673ffffffffffffffffffffffffffffffffffffffff16815260200190815260200160002060009054906101000a900460ff16156104b6576000600160008473ffffffffffffffffffffffffffffffffffffffff1673ffffffffffffffffffffffffffffffffffffffff16815260200190815260200160002060006101000a81548160ff0219169083151502179055507ff1abf01a1043b7c244d128e8595cf0c1d10743b022b03a02dffd8ca3bf729f5a8260405161048f9190610bca565b60405180910390a16001600260008282546104aa9190610d13565b92505081905550600190505b919050565b6000600254905090565b6104cd610962565b73ffffffffffffffffffffffffffffffffffffffff166104eb6106ce565b73ffffffffffffffffffffffffffffffffffffffff1614610541576040517f08c379a000000000000000000000000000000000000000000000000000000000815260040161053890610c20565b60405180910390fd5b61054b600061096a565b565b6000610557610962565b73ffffffffffffffffffffffffffffffffffffffff166105756106ce565b73ffffffffffffffffffffffffffffffffffffffff16146105cb576040517f08c379a00000000000000000000000000000000000000000000000000000000081526004016105c290610c20565b60405180910390fd5b600160008373ffffffffffffffffffffffffffffffffffffffff1673ffffffffffffffffffffffffffffffffffffffff16815260200190815260200160002060009054906101000a900460ff166106c95760018060008473ffffffffffffffffffffffffffffffffffffffff1673ffffffffffffffffffffffffffffffffffffffff16815260200190815260200160002060006101000a81548160ff0219169083151502179055507fd1bba68c128cc3f427e5831b3c6f99f480b6efa6b9e80c757768f6124158cc3f826040516106a29190610bca565b60405180910390a16001600260008282546106bd9190610cbd565b92505081905550600190505b919050565b60008060009054906101000a900473ffffffffffffffffffffffffffffffffffffffff16905090565b60016020528060005260406000206000915054906101000a900460ff1681565b600360009054906101000a900460ff1681565b6000610734610962565b73ffffffffffffffffffffffffffffffffffffffff166107526106ce565b73ffffffffffffffffffffffffffffffffffffffff16146107a8576040517f08c379a000000000000000000000000000000000000000000000000000000000815260040161079f90610c20565b60405180910390fd5b60005b825181101561080e576107d78382815181106107ca576107c9610e38565b5b602002602001015161054d565b156107fb576001600260008282546107ef9190610cbd565b92505081905550600191505b808061080690610dc0565b9150506107ab565b50919050565b6000600160008373ffffffffffffffffffffffffffffffffffffffff1673ffffffffffffffffffffffffffffffffffffffff16815260200190815260200160002060009054906101000a900460ff169050919050565b610872610962565b73ffffffffffffffffffffffffffffffffffffffff166108906106ce565b73ffffffffffffffffffffffffffffffffffffffff16146108e6576040517f08c379a00000000000000000000000000000000000000000000000000000000081526004016108dd90610c20565b60405180910390fd5b600073ffffffffffffffffffffffffffffffffffffffff168173ffffffffffffffffffffffffffffffffffffffff161415610956576040517f08c379a000000000000000000000000000000000000000000000000000000000815260040161094d90610c00565b60405180910390fd5b61095f8161096a565b50565b600033905090565b60008060009054906101000a900473ffffffffffffffffffffffffffffffffffffffff169050816000806101000a81548173ffffffffffffffffffffffffffffffffffffffff021916908373ffffffffffffffffffffffffffffffffffffffff1602179055508173ffffffffffffffffffffffffffffffffffffffff168173ffffffffffffffffffffffffffffffffffffffff167f8be0079c531659141344cd1fd0a4f28419497f9722a3daafe3b4186f6b6457e060405160405180910390a35050565b6000610a41610a3c84610c80565b610c5b565b90508083825260208201905082856020860282011115610a6457610a63610e9b565b5b60005b85811015610a945781610a7a8882610a9e565b845260208401935060208301925050600181019050610a67565b5050509392505050565b600081359050610aad81610f33565b92915050565b600082601f830112610ac857610ac7610e96565b5b8135610ad8848260208601610a2e565b91505092915050565b600060208284031215610af757610af6610ea5565b5b6000610b0584828501610a9e565b91505092915050565b600060208284031215610b2457610b23610ea5565b5b600082013567ffffffffffffffff811115610b4257610b41610ea0565b5b610b4e84828501610ab3565b91505092915050565b610b6081610d47565b82525050565b610b6f81610d59565b82525050565b6000610b82602683610cac565b9150610b8d82610ebb565b604082019050919050565b6000610ba5602083610cac565b9150610bb082610f0a565b602082019050919050565b610bc481610d85565b82525050565b6000602082019050610bdf6000830184610b57565b92915050565b6000602082019050610bfa6000830184610b66565b92915050565b60006020820190508181036000830152610c1981610b75565b9050919050565b60006020820190508181036000830152610c3981610b98565b9050919050565b6000602082019050610c556000830184610bbb565b92915050565b6000610c65610c76565b9050610c718282610d8f565b919050565b6000604051905090565b600067ffffffffffffffff821115610c9b57610c9a610e67565b5b602082029050602081019050919050565b600082825260208201905092915050565b6000610cc882610d85565b9150610cd383610d85565b9250827fffffffffffffffffffffffffffffffffffffffffffffffffffffffffffffffff03821115610d0857610d07610e09565b5b828201905092915050565b6000610d1e82610d85565b9150610d2983610d85565b925082821015610d3c57610d3b610e09565b5b828203905092915050565b6000610d5282610d65565b9050919050565b60008115159050919050565b600073ffffffffffffffffffffffffffffffffffffffff82169050919050565b6000819050919050565b610d9882610eaa565b810181811067ffffffffffffffff82111715610db757610db6610e67565b5b80604052505050565b6000610dcb82610d85565b91507fffffffffffffffffffffffffffffffffffffffffffffffffffffffffffffffff821415610dfe57610dfd610e09565b5b600182019050919050565b7f4e487b7100000000000000000000000000000000000000000000000000000000600052601160045260246000fd5b7f4e487b7100000000000000000000000000000000000000000000000000000000600052603260045260246000fd5b7f4e487b7100000000000000000000000000000000000000000000000000000000600052604160045260246000fd5b600080fd5b600080fd5b600080fd5b600080fd5b6000601f19601f8301169050919050565b7f4f776e61626c653a206e6577206f776e657220697320746865207a65726f206160008201527f6464726573730000000000000000000000000000000000000000000000000000602082015250565b7f4f776e61626c653a2063616c6c6572206973206e6f7420746865206f776e6572600082015250565b610f3c81610d47565b8114610f4757600080fd5b5056fea26469706673582212207192af37282fd7bfe53350acb10318f34b6fed008a48fb804e840facad443e6364736f6c63430008070033a26469706673582212203cdd101d2f27de5e8ebd6daf4d856bd2d25e5b2ff14666ff8d47e6b1012d408d64736f6c63430008070033",
  "linkReferences": {
    "contracts/MOBALogicLibrary.sol": {
      "MOBALogicLibrary": [
        {
          "length": 20,
          "start": 2309
        },
        {
          "length": 20,
          "start": 7200
        }
      ]
    }
  },
  "deployedLinkReferences": {
    "contracts/MOBALogicLibrary.sol": {
      "MOBALogicLibrary": [
        {
          "length": 20,
          "start": 2024
        },
        {
          "length": 20,
          "start": 6915
        }
      ]
    }
  }
}