{
  "_format": "hh-sol-artifact-1",
  "contractName": "LeagueOfLegendsLogic",
  "sourceName": "contracts/LeagueOfLegendsLogic.sol",
  "abi": [
    {
      "anonymous": false,
      "inputs": [
        {
          "indexed": true,
          "internalType": "address",
          "name": "previousOwner",
          "type": "address"
        },
        {
          "indexed": true,
          "internalType": "address",
          "name": "newOwner",
          "type": "address"
        }
      ],
      "name": "OwnershipTransferred",
      "type": "event"
    },
    {
      "anonymous": false,
      "inputs": [
        {
          "indexed": false,
          "internalType": "address",
          "name": "sender",
          "type": "address"
        },
        {
          "indexed": false,
          "internalType": "uint256",
          "name": "amount",
          "type": "uint256"
        }
      ],
      "name": "Staked",
      "type": "event"
    },
    {
      "anonymous": false,
      "inputs": [
        {
          "indexed": false,
          "internalType": "address",
          "name": "addr",
          "type": "address"
        }
      ],
      "name": "WhitelistedAddressAdded",
      "type": "event"
    },
    {
      "anonymous": false,
      "inputs": [
        {
          "indexed": false,
          "internalType": "address",
          "name": "addr",
          "type": "address"
        }
      ],
      "name": "WhitelistedAddressRemoved",
      "type": "event"
    },
    {
      "anonymous": false,
      "inputs": [
        {
          "indexed": false,
          "internalType": "address",
          "name": "sender",
          "type": "address"
        },
        {
          "indexed": false,
          "internalType": "address",
          "name": "contractAddress",
          "type": "address"
        }
      ],
      "name": "testUSDCDeployed",
      "type": "event"
    },
    {
      "inputs": [
        {
          "internalType": "address",
          "name": "addr",
          "type": "address"
        }
      ],
      "name": "addAddressToWhitelist",
      "outputs": [
        {
          "internalType": "bool",
          "name": "success",
          "type": "bool"
        }
      ],
      "stateMutability": "nonpayable",
      "type": "function"
    },
    {
      "inputs": [
        {
          "internalType": "address[]",
          "name": "addrs",
          "type": "address[]"
        }
      ],
      "name": "addAddressesToWhitelist",
      "outputs": [
        {
          "internalType": "bool",
          "name": "success",
          "type": "bool"
        }
      ],
      "stateMutability": "nonpayable",
      "type": "function"
    },
    {
      "inputs": [
        {
          "internalType": "address",
          "name": "_userToAdd",
          "type": "address"
        }
      ],
      "name": "addUserToWhitelist",
      "outputs": [],
      "stateMutability": "nonpayable",
      "type": "function"
    },
    {
      "inputs": [],
      "name": "admin",
      "outputs": [
        {
          "internalType": "address",
          "name": "",
          "type": "address"
        }
      ],
      "stateMutability": "view",
      "type": "function"
    },
    {
      "inputs": [],
      "name": "evaluateWeek",
      "outputs": [],
      "stateMutability": "nonpayable",
      "type": "function"
    },
    {
      "inputs": [
        {
          "internalType": "address",
          "name": "_user",
          "type": "address"
        }
      ],
      "name": "getLineup",
      "outputs": [
        {
          "internalType": "uint256[]",
          "name": "",
          "type": "uint256[]"
        }
      ],
      "stateMutability": "view",
      "type": "function"
    },
    {
      "inputs": [],
      "name": "getLineupIsLocked",
      "outputs": [
        {
          "internalType": "bool",
          "name": "",
          "type": "bool"
        }
      ],
      "stateMutability": "view",
      "type": "function"
    },
    {
      "inputs": [],
      "name": "getNumWhitelisted",
      "outputs": [
        {
          "internalType": "uint256",
          "name": "",
          "type": "uint256"
        }
      ],
      "stateMutability": "view",
      "type": "function"
    },
    {
      "inputs": [
        {
          "internalType": "address",
          "name": "_user",
          "type": "address"
        }
      ],
      "name": "getUserIsWhitelisted",
      "outputs": [
        {
          "internalType": "bool",
          "name": "",
          "type": "bool"
        }
      ],
      "stateMutability": "view",
      "type": "function"
    },
    {
      "inputs": [],
      "name": "getUserRecord",
      "outputs": [
        {
          "internalType": "uint256[8]",
          "name": "",
          "type": "uint256[8]"
        }
      ],
      "stateMutability": "view",
      "type": "function"
    },
    {
      "inputs": [],
      "name": "getUserTotalPts",
      "outputs": [
        {
          "internalType": "uint256",
          "name": "",
          "type": "uint256"
        }
      ],
      "stateMutability": "view",
      "type": "function"
    },
    {
      "inputs": [],
      "name": "getUserUSDCBalance",
      "outputs": [
        {
          "internalType": "uint256",
          "name": "",
          "type": "uint256"
        }
      ],
      "stateMutability": "view",
      "type": "function"
    },
    {
      "inputs": [],
      "name": "getUsersLength",
      "outputs": [
        {
          "internalType": "uint256",
          "name": "",
          "type": "uint256"
        }
      ],
      "stateMutability": "view",
      "type": "function"
    },
    {
      "inputs": [
        {
          "internalType": "address",
          "name": "",
          "type": "address"
        }
      ],
      "name": "inLeague",
      "outputs": [
        {
          "internalType": "bool",
          "name": "",
          "type": "bool"
        }
      ],
      "stateMutability": "view",
      "type": "function"
    },
    {
      "inputs": [
        {
          "internalType": "string",
          "name": "_name",
          "type": "string"
        },
        {
          "internalType": "uint256",
          "name": "_stakeAmount",
          "type": "uint256"
        },
        {
          "internalType": "bool",
          "name": "_isPublic",
          "type": "bool"
        },
        {
          "internalType": "address",
          "name": "athletesDataStorageAddress",
          "type": "address"
        },
        {
          "internalType": "address",
          "name": "_admin",
          "type": "address"
        },
        {
          "internalType": "address",
          "name": "_polygonUSDCAddress",
          "type": "address"
        },
        {
          "internalType": "address",
          "name": "_rinkebyUSDCAddress",
          "type": "address"
        },
        {
          "internalType": "address",
          "name": "_testUSDCAddress",
          "type": "address"
        },
        {
          "internalType": "address",
          "name": "_teamDiffAddress",
          "type": "address"
        },
        {
          "internalType": "address",
          "name": "_leagueMakerContractAddress",
          "type": "address"
        }
      ],
      "name": "initialize",
      "outputs": [],
      "stateMutability": "nonpayable",
      "type": "function"
    },
    {
      "inputs": [],
      "name": "isPublic",
      "outputs": [
        {
          "internalType": "bool",
          "name": "",
          "type": "bool"
        }
      ],
      "stateMutability": "view",
      "type": "function"
    },
    {
      "inputs": [],
      "name": "joinLeague",
      "outputs": [],
      "stateMutability": "nonpayable",
      "type": "function"
    },
    {
      "inputs": [],
      "name": "leagueEntryIsClosed",
      "outputs": [
        {
          "internalType": "bool",
          "name": "",
          "type": "bool"
        }
      ],
      "stateMutability": "view",
      "type": "function"
    },
    {
      "inputs": [
        {
          "internalType": "uint256",
          "name": "",
          "type": "uint256"
        }
      ],
      "name": "leagueMembers",
      "outputs": [
        {
          "internalType": "address",
          "name": "",
          "type": "address"
        }
      ],
      "stateMutability": "view",
      "type": "function"
    },
    {
      "inputs": [],
      "name": "leagueName",
      "outputs": [
        {
          "internalType": "string",
          "name": "",
          "type": "string"
        }
      ],
      "stateMutability": "view",
      "type": "function"
    },
    {
      "inputs": [],
      "name": "lineupIsLocked",
      "outputs": [
        {
          "internalType": "bool",
          "name": "",
          "type": "bool"
        }
      ],
      "stateMutability": "view",
      "type": "function"
    },
    {
      "inputs": [],
      "name": "lockLineup",
      "outputs": [],
      "stateMutability": "nonpayable",
      "type": "function"
    },
    {
      "inputs": [],
      "name": "numWeeks",
      "outputs": [
        {
          "internalType": "uint256",
          "name": "",
          "type": "uint256"
        }
      ],
      "stateMutability": "view",
      "type": "function"
    },
    {
      "inputs": [],
      "name": "owner",
      "outputs": [
        {
          "internalType": "address",
          "name": "",
          "type": "address"
        }
      ],
      "stateMutability": "view",
      "type": "function"
    },
    {
      "inputs": [],
      "name": "polygonUSDCAddress",
      "outputs": [
        {
          "internalType": "address",
          "name": "",
          "type": "address"
        }
      ],
      "stateMutability": "view",
      "type": "function"
    },
    {
      "inputs": [
        {
          "internalType": "address",
          "name": "addr",
          "type": "address"
        }
      ],
      "name": "removeAddressFromWhitelist",
      "outputs": [
        {
          "internalType": "bool",
          "name": "success",
          "type": "bool"
        }
      ],
      "stateMutability": "nonpayable",
      "type": "function"
    },
    {
      "inputs": [
        {
          "internalType": "address[]",
          "name": "addrs",
          "type": "address[]"
        }
      ],
      "name": "removeAddressesFromWhitelist",
      "outputs": [
        {
          "internalType": "bool",
          "name": "success",
          "type": "bool"
        }
      ],
      "stateMutability": "nonpayable",
      "type": "function"
    },
    {
      "inputs": [
        {
          "internalType": "address",
          "name": "_userToRemove",
          "type": "address"
        }
      ],
      "name": "removeFromWhitelist",
      "outputs": [],
      "stateMutability": "nonpayable",
      "type": "function"
    },
    {
      "inputs": [],
      "name": "renounceOwnership",
      "outputs": [],
      "stateMutability": "nonpayable",
      "type": "function"
    },
    {
      "inputs": [],
      "name": "rinkebyUSDCAddress",
      "outputs": [
        {
          "internalType": "address",
          "name": "",
          "type": "address"
        }
      ],
      "stateMutability": "view",
      "type": "function"
    },
    {
      "inputs": [],
      "name": "setLeagueEntryIsClosed",
      "outputs": [],
      "stateMutability": "nonpayable",
      "type": "function"
    },
    {
      "inputs": [],
      "name": "setLeagueSchedule",
      "outputs": [],
      "stateMutability": "nonpayable",
      "type": "function"
    },
    {
      "inputs": [
        {
          "internalType": "uint256[]",
          "name": "athleteIds",
          "type": "uint256[]"
        }
      ],
      "name": "setLineup",
      "outputs": [],
      "stateMutability": "nonpayable",
      "type": "function"
    },
    {
      "inputs": [],
      "name": "stakeAmount",
      "outputs": [
        {
          "internalType": "uint256",
          "name": "",
          "type": "uint256"
        }
      ],
      "stateMutability": "view",
      "type": "function"
    },
    {
      "inputs": [],
      "name": "teamDiffAddress",
      "outputs": [
        {
          "internalType": "address",
          "name": "",
          "type": "address"
        }
      ],
      "stateMutability": "view",
      "type": "function"
    },
    {
      "inputs": [],
      "name": "testUSDC",
      "outputs": [
        {
          "internalType": "contract IERC20",
          "name": "",
          "type": "address"
        }
      ],
      "stateMutability": "view",
      "type": "function"
    },
    {
      "inputs": [
        {
          "internalType": "address",
          "name": "newOwner",
          "type": "address"
        }
      ],
      "name": "transferOwnership",
      "outputs": [],
      "stateMutability": "nonpayable",
      "type": "function"
    },
    {
      "inputs": [],
      "name": "unlockLineup",
      "outputs": [],
      "stateMutability": "nonpayable",
      "type": "function"
    },
    {
      "inputs": [
        {
          "internalType": "address",
          "name": "",
          "type": "address"
        },
        {
          "internalType": "uint256",
          "name": "",
          "type": "uint256"
        }
      ],
      "name": "userToLineup",
      "outputs": [
        {
          "internalType": "uint256",
          "name": "",
          "type": "uint256"
        }
      ],
      "stateMutability": "view",
      "type": "function"
    },
    {
      "inputs": [
        {
          "internalType": "address",
          "name": "",
          "type": "address"
        },
        {
          "internalType": "uint256",
          "name": "",
          "type": "uint256"
        }
      ],
      "name": "userToRecord",
      "outputs": [
        {
          "internalType": "uint256",
          "name": "",
          "type": "uint256"
        }
      ],
      "stateMutability": "view",
      "type": "function"
    },
    {
      "inputs": [
        {
          "internalType": "address",
          "name": "",
          "type": "address"
        }
      ],
      "name": "userToTotalWins",
      "outputs": [
        {
          "internalType": "uint256",
          "name": "",
          "type": "uint256"
        }
      ],
      "stateMutability": "view",
      "type": "function"
    },
    {
      "inputs": [
        {
          "internalType": "address",
          "name": "",
          "type": "address"
        }
      ],
      "name": "whitelist",
      "outputs": [
        {
          "internalType": "bool",
          "name": "",
          "type": "bool"
        }
      ],
      "stateMutability": "view",
      "type": "function"
    }
  ],
  "bytecode": "0x60806040523480156200001157600080fd5b5062000032620000266200004060201b60201c565b6200004860201b60201c565b60016004819055506200010d565b600033905090565b60008060029054906101000a900473ffffffffffffffffffffffffffffffffffffffff16905081600060026101000a81548173ffffffffffffffffffffffffffffffffffffffff021916908373ffffffffffffffffffffffffffffffffffffffff1602179055508173ffffffffffffffffffffffffffffffffffffffff168173ffffffffffffffffffffffffffffffffffffffff167f8be0079c531659141344cd1fd0a4f28419497f9722a3daafe3b4186f6b6457e060405160405180910390a35050565b6157bb806200011d6000396000f3fe60806040523480156200001157600080fd5b5060043610620002975760003560e01c8063841abf6e1162000165578063cff5600311620000d5578063e5f7322f1162000093578063e5f7322f146200078c578063edcbe96c14620007c2578063f2fde38b14620007f8578063f612121a1462000818578063f851a4401462000838578063f8816045146200085a5762000297565b8063cff5600314620006bc578063dc9a153514620006f2578063e2ec6ec31462000714578063e35a8999146200074a578063e4c9066b14620007805762000297565b806393f3706c116200012357806393f3706c14620006405780639b19251a1462000662578063a2bc091a1462000698578063c8be3b5b14620006a4578063c99fea9414620006b05762000297565b8063841abf6e146200059a57806385334ffa14620005bc5780638ab1d68114620005c85780638da5cb5b14620005e85780639122ce6d146200060a5762000297565b80633c3ae13f116200020d5780636bdc44df11620001cb5780636bdc44df14620004d25780636cc15ad514620004f4578063715018a61462000516578063747b805014620005225780637b9417c814620005425780637eed33f114620005785762000297565b80633c3ae13f146200042a57806344eaa84e146200044a578063595b1a3e146200046c5780635fcc6987146200048e57806360c7dc4714620004b05762000297565b80631dd7f8ca116200025b5780631dd7f8ca146200034457806324953eaa1462000366578063267175db146200039c57806327311b3214620003d2578063286dd3f514620003f45762000297565b8062b2476f146200029c578063022e35e614620002be5780630635dbcb14620002e05780630655465a14620003025780630c6f7959146200030e575b600080fd5b620002a66200087c565b604051620002b5919062003a6f565b60405180910390f35b620002c8620008a2565b604051620002d7919062003b55565b60405180910390f35b620002ea620008c8565b604051620002f9919062003b38565b60405180910390f35b6200030c620008db565b005b6200032c60048036038101906200032691906200333f565b620009e6565b6040516200033b919062003e55565b60405180910390f35b6200034e62000a0f565b6040516200035d919062003a6f565b60405180910390f35b6200038460048036038101906200037e919062003386565b62000a35565b60405162000393919062003b38565b60405180910390f35b620003ba6004803603810190620003b4919062003574565b62000b32565b604051620003c9919062003a6f565b60405180910390f35b620003dc62000b72565b604051620003eb919062003b38565b60405180910390f35b6200041260048036038101906200040c91906200330d565b62000b89565b60405162000421919062003b38565b60405180910390f35b6200044860048036038101906200044291906200345a565b62000d18565b005b62000454620011b1565b60405162000463919062003e55565b60405180910390f35b62000476620011bb565b60405162000485919062003e55565b60405180910390f35b62000498620011c8565b604051620004a7919062003e55565b60405180910390f35b620004ba620012d7565b604051620004c9919062003e55565b60405180910390f35b620004dc620012dd565b604051620004eb919062003e55565b60405180910390f35b620004fe62001324565b6040516200050d919062003b38565b60405180910390f35b6200052062001337565b005b6200054060048036038101906200053a91906200330d565b620013c8565b005b6200056060048036038101906200055a91906200330d565b62001512565b6040516200056f919062003b38565b60405180910390f35b620005826200169f565b60405162000591919062003e55565b60405180910390f35b620005a4620016a5565b604051620005b3919062003c33565b60405180910390f35b620005c66200173b565b005b620005e66004803603810190620005e091906200330d565b62001982565b005b620005f262001b1f565b60405162000601919062003a6f565b60405180910390f35b6200062860048036038101906200062291906200330d565b62001b48565b60405162000637919062003b38565b60405180910390f35b6200064a62001b68565b60405162000659919062003a6f565b60405180910390f35b6200068060048036038101906200067a91906200330d565b62001b8e565b6040516200068f919062003b38565b60405180910390f35b620006a262001bae565b005b620006ae62001c5e565b005b620006ba62001d0e565b005b620006da6004803603810190620006d491906200333f565b6200219c565b604051620006e9919062003e55565b60405180910390f35b620006fc620021ce565b6040516200070b919062003b38565b60405180910390f35b6200073260048036038101906200072c919062003386565b620021e1565b60405162000741919062003b38565b60405180910390f35b6200076860048036038101906200076291906200330d565b620022de565b60405162000777919062003b38565b60405180910390f35b6200078a62002334565b005b620007aa6004803603810190620007a491906200330d565b620023e4565b604051620007b9919062003b14565b60405180910390f35b620007e06004803603810190620007da91906200330d565b6200247d565b604051620007ef919062003e55565b60405180910390f35b6200081660048036038101906200081091906200330d565b62002495565b005b620008366004803603810190620008309190620033d7565b62002599565b005b6200084262002adc565b60405162000851919062003a6f565b60405180910390f35b6200086462002b02565b60405162000873919062003af6565b60405180910390f35b601260009054906101000a900473ffffffffffffffffffffffffffffffffffffffff1681565b601660009054906101000a900473ffffffffffffffffffffffffffffffffffffffff1681565b600960159054906101000a900460ff1681565b600960009054906101000a900473ffffffffffffffffffffffffffffffffffffffff1673ffffffffffffffffffffffffffffffffffffffff163373ffffffffffffffffffffffffffffffffffffffff16146200096e576040517f08c379a0000000000000000000000000000000000000000000000000000000008152600401620009659062003dab565b60405180910390fd5b73__$36fdb4e0c2cb91f3ceca5ea81b025328f3$__63d2c232b56010600f60065460056040518563ffffffff1660e01b8152600401620009b2949392919062003b72565b60006040518083038186803b158015620009cb57600080fd5b505af4158015620009e0573d6000803e3d6000fd5b50505050565b600c602052816000526040600020816008811062000a0357600080fd5b01600091509150505481565b600960009054906101000a900473ffffffffffffffffffffffffffffffffffffffff1681565b600062000a4162002b8e565b73ffffffffffffffffffffffffffffffffffffffff1662000a6162001b1f565b73ffffffffffffffffffffffffffffffffffffffff161462000aba576040517f08c379a000000000000000000000000000000000000000000000000000000000815260040162000ab19062003d67565b60405180910390fd5b60005b825181101562000b2c5762000aef83828151811062000ae15762000ae0620042b1565b5b602002602001015162000b89565b1562000b165760016002600082825462000b0a91906200405f565b92505081905550600191505b808062000b239062004205565b91505062000abd565b50919050565b600f818154811062000b4357600080fd5b906000526020600020016000915054906101000a900473ffffffffffffffffffffffffffffffffffffffff1681565b6000600960159054906101000a900460ff16905090565b600062000b9562002b8e565b73ffffffffffffffffffffffffffffffffffffffff1662000bb562001b1f565b73ffffffffffffffffffffffffffffffffffffffff161462000c0e576040517f08c379a000000000000000000000000000000000000000000000000000000000815260040162000c059062003d67565b60405180910390fd5b600160008373ffffffffffffffffffffffffffffffffffffffff1673ffffffffffffffffffffffffffffffffffffffff16815260200190815260200160002060009054906101000a900460ff161562000d13576000600160008473ffffffffffffffffffffffffffffffffffffffff1673ffffffffffffffffffffffffffffffffffffffff16815260200190815260200160002060006101000a81548160ff0219169083151502179055507ff1abf01a1043b7c244d128e8595cf0c1d10743b022b03a02dffd8ca3bf729f5a8260405162000cea919062003a6f565b60405180910390a160016002600082825462000d0791906200405f565b92505081905550600190505b919050565b600060019054906101000a900460ff1662000d425760008054906101000a900460ff161562000d4d565b62000d4c62002b96565b5b62000d8f576040517f08c379a000000000000000000000000000000000000000000000000000000000815260040162000d869062003d45565b60405180910390fd5b60008060019054906101000a900460ff16159050801562000de0576001600060016101000a81548160ff02191690831515021790555060016000806101000a81548160ff0219169083151502179055505b8b8b6005919062000df392919062002fac565b5060086006819055506001600e60008973ffffffffffffffffffffffffffffffffffffffff1673ffffffffffffffffffffffffffffffffffffffff16815260200190815260200160002060006101000a81548160ff021916908315150217905550600f879080600181540180825580915050600190039060005260206000200160009091909190916101000a81548173ffffffffffffffffffffffffffffffffffffffff021916908373ffffffffffffffffffffffffffffffffffffffff16021790555086600860006101000a81548173ffffffffffffffffffffffffffffffffffffffff021916908373ffffffffffffffffffffffffffffffffffffffff1602179055508960078190555088600360006101000a81548160ff0219169083151502179055506000600960146101000a81548160ff0219169083151502179055506000600960156101000a81548160ff02191690831515021790555087601360006101000a81548173ffffffffffffffffffffffffffffffffffffffff021916908373ffffffffffffffffffffffffffffffffffffffff16021790555081601560006101000a81548173ffffffffffffffffffffffffffffffffffffffff021916908373ffffffffffffffffffffffffffffffffffffffff16021790555060405162000fdf906200303d565b604051809103906000f08015801562000ffc573d6000803e3d6000fd5b50601460006101000a81548173ffffffffffffffffffffffffffffffffffffffff021916908373ffffffffffffffffffffffffffffffffffffffff16021790555085601160006101000a81548173ffffffffffffffffffffffffffffffffffffffff021916908373ffffffffffffffffffffffffffffffffffffffff16021790555084601260006101000a81548173ffffffffffffffffffffffffffffffffffffffff021916908373ffffffffffffffffffffffffffffffffffffffff16021790555083601660006101000a81548173ffffffffffffffffffffffffffffffffffffffff021916908373ffffffffffffffffffffffffffffffffffffffff16021790555082600960006101000a81548173ffffffffffffffffffffffffffffffffffffffff021916908373ffffffffffffffffffffffffffffffffffffffff160217905550620011816040518060400160405280601281526020017f50726f787920696e697469616c697a656421000000000000000000000000000081525062002ba9565b8015620011a35760008060016101000a81548160ff0219169083151502179055505b505050505050505050505050565b6000600254905090565b6000600f80549050905090565b6000600e60003373ffffffffffffffffffffffffffffffffffffffff1673ffffffffffffffffffffffffffffffffffffffff16815260200190815260200160002060009054906101000a900460ff166200122157600080fd5b601660009054906101000a900473ffffffffffffffffffffffffffffffffffffffff1673ffffffffffffffffffffffffffffffffffffffff166370a08231336040518263ffffffff1660e01b81526004016200127e919062003a6f565b60206040518083038186803b1580156200129757600080fd5b505afa158015620012ac573d6000803e3d6000fd5b505050506040513d601f19601f82011682018060405250810190620012d29190620035a6565b905090565b60075481565b6000600b60003373ffffffffffffffffffffffffffffffffffffffff1673ffffffffffffffffffffffffffffffffffffffff16815260200190815260200160002054905090565b600960149054906101000a900460ff1681565b6200134162002b8e565b73ffffffffffffffffffffffffffffffffffffffff166200136162001b1f565b73ffffffffffffffffffffffffffffffffffffffff1614620013ba576040517f08c379a0000000000000000000000000000000000000000000000000000000008152600401620013b19062003d67565b60405180910390fd5b620013c6600062002c46565b565b600860009054906101000a900473ffffffffffffffffffffffffffffffffffffffff1673ffffffffffffffffffffffffffffffffffffffff163373ffffffffffffffffffffffffffffffffffffffff16146200145b576040517f08c379a0000000000000000000000000000000000000000000000000000000008152600401620014529062003d89565b60405180910390fd5b601460009054906101000a900473ffffffffffffffffffffffffffffffffffffffff1673ffffffffffffffffffffffffffffffffffffffff16637b9417c8826040518263ffffffff1660e01b8152600401620014b8919062003a6f565b602060405180830381600087803b158015620014d357600080fd5b505af1158015620014e8573d6000803e3d6000fd5b505050506040513d601f19601f820116820180604052508101906200150e919062003428565b5050565b60006200151e62002b8e565b73ffffffffffffffffffffffffffffffffffffffff166200153e62001b1f565b73ffffffffffffffffffffffffffffffffffffffff161462001597576040517f08c379a00000000000000000000000000000000000000000000000000000000081526004016200158e9062003d67565b60405180910390fd5b600160008373ffffffffffffffffffffffffffffffffffffffff1673ffffffffffffffffffffffffffffffffffffffff16815260200190815260200160002060009054906101000a900460ff166200169a5760018060008473ffffffffffffffffffffffffffffffffffffffff1673ffffffffffffffffffffffffffffffffffffffff16815260200190815260200160002060006101000a81548160ff0219169083151502179055507fd1bba68c128cc3f427e5831b3c6f99f480b6efa6b9e80c757768f6124158cc3f8260405162001671919062003a6f565b60405180910390a16001600260008282546200168e919062003fa1565b92505081905550600190505b919050565b60065481565b60058054620016b49062004199565b80601f0160208091040260200160405190810160405280929190818152602001828054620016e29062004199565b8015620017335780601f10620017075761010080835404028352916020019162001733565b820191906000526020600020905b8154815290600101906020018083116200171557829003601f168201915b505050505081565b600960009054906101000a900473ffffffffffffffffffffffffffffffffffffffff1673ffffffffffffffffffffffffffffffffffffffff163373ffffffffffffffffffffffffffffffffffffffff1614620017ce576040517f08c379a0000000000000000000000000000000000000000000000000000000008152600401620017c59062003dab565b60405180910390fd5b6002600454141562001817576040517f08c379a00000000000000000000000000000000000000000000000000000000081526004016200180e9062003e11565b60405180910390fd5b60026004819055506000601560009054906101000a900473ffffffffffffffffffffffffffffffffffffffff1673ffffffffffffffffffffffffffffffffffffffff166306575c896040518163ffffffff1660e01b815260040160206040518083038186803b1580156200188a57600080fd5b505afa1580156200189f573d6000803e3d6000fd5b505050506040513d601f19601f82011682018060405250810190620018c59190620035a6565b905073__$36fdb4e0c2cb91f3ceca5ea81b025328f3$__63c406e268601083601360009054906101000a900473ffffffffffffffffffffffffffffffffffffffff16600c600b600d6040518763ffffffff1660e01b8152600401620019309695949392919062003bc6565b60006040518083038186803b1580156200194957600080fd5b505af41580156200195e573d6000803e3d6000fd5b50505050600881141562001977576200197662002d0b565b5b506001600481905550565b600860009054906101000a900473ffffffffffffffffffffffffffffffffffffffff1673ffffffffffffffffffffffffffffffffffffffff163373ffffffffffffffffffffffffffffffffffffffff161462001a15576040517f08c379a000000000000000000000000000000000000000000000000000000000815260040162001a0c9062003d89565b60405180910390fd5b600960149054906101000a900460ff161562001a68576040517f08c379a000000000000000000000000000000000000000000000000000000000815260040162001a5f9062003def565b60405180910390fd5b601460009054906101000a900473ffffffffffffffffffffffffffffffffffffffff1673ffffffffffffffffffffffffffffffffffffffff1663286dd3f5826040518263ffffffff1660e01b815260040162001ac5919062003a6f565b602060405180830381600087803b15801562001ae057600080fd5b505af115801562001af5573d6000803e3d6000fd5b505050506040513d601f19601f8201168201806040525081019062001b1b919062003428565b5050565b60008060029054906101000a900473ffffffffffffffffffffffffffffffffffffffff16905090565b600e6020528060005260406000206000915054906101000a900460ff1681565b601160009054906101000a900473ffffffffffffffffffffffffffffffffffffffff1681565b60016020528060005260406000206000915054906101000a900460ff1681565b600960009054906101000a900473ffffffffffffffffffffffffffffffffffffffff1673ffffffffffffffffffffffffffffffffffffffff163373ffffffffffffffffffffffffffffffffffffffff161462001c41576040517f08c379a000000000000000000000000000000000000000000000000000000000815260040162001c389062003dab565b60405180910390fd5b6000600960156101000a81548160ff021916908315150217905550565b600960009054906101000a900473ffffffffffffffffffffffffffffffffffffffff1673ffffffffffffffffffffffffffffffffffffffff163373ffffffffffffffffffffffffffffffffffffffff161462001cf1576040517f08c379a000000000000000000000000000000000000000000000000000000000815260040162001ce89062003dab565b60405180910390fd5b6001600960156101000a81548160ff021916908315150217905550565b600160003373ffffffffffffffffffffffffffffffffffffffff1673ffffffffffffffffffffffffffffffffffffffff16815260200190815260200160002060009054906101000a900460ff168062001d735750600360009054906101000a900460ff165b62001db5576040517f08c379a000000000000000000000000000000000000000000000000000000000815260040162001dac9062003cbd565b60405180910390fd5b6002600454141562001dfe576040517f08c379a000000000000000000000000000000000000000000000000000000000815260040162001df59062003e11565b60405180910390fd5b6002600481905550600960149054906101000a900460ff161562001e59576040517f08c379a000000000000000000000000000000000000000000000000000000000815260040162001e509062003e33565b60405180910390fd5b600e60003373ffffffffffffffffffffffffffffffffffffffff1673ffffffffffffffffffffffffffffffffffffffff16815260200190815260200160002060009054906101000a900460ff161562001ee9576040517f08c379a000000000000000000000000000000000000000000000000000000000815260040162001ee09062003c9b565b60405180910390fd5b600754601660009054906101000a900473ffffffffffffffffffffffffffffffffffffffff1673ffffffffffffffffffffffffffffffffffffffff166370a08231336040518263ffffffff1660e01b815260040162001f49919062003a6f565b60206040518083038186803b15801562001f6257600080fd5b505afa15801562001f77573d6000803e3d6000fd5b505050506040513d601f19601f8201168201806040525081019062001f9d9190620035a6565b1162001fe0576040517f08c379a000000000000000000000000000000000000000000000000000000000815260040162001fd79062003c79565b60405180910390fd5b6001600e60003373ffffffffffffffffffffffffffffffffffffffff1673ffffffffffffffffffffffffffffffffffffffff16815260200190815260200160002060006101000a81548160ff021916908315150217905550600f339080600181540180825580915050600190039060005260206000200160009091909190916101000a81548173ffffffffffffffffffffffffffffffffffffffff021916908373ffffffffffffffffffffffffffffffffffffffff160217905550601660009054906101000a900473ffffffffffffffffffffffffffffffffffffffff1673ffffffffffffffffffffffffffffffffffffffff166323b872dd33306007546040518463ffffffff1660e01b8152600401620020fe9392919062003a8c565b602060405180830381600087803b1580156200211957600080fd5b505af11580156200212e573d6000803e3d6000fd5b505050506040513d601f19601f8201168201806040525081019062002154919062003428565b507f9e71bc8eea02a63969f509818f2dafb9254532904319f9dbda79b67bd34a5f3d336007546040516200218a92919062003ac9565b60405180910390a16001600481905550565b600d6020528160005260406000208181548110620021b957600080fd5b90600052602060002001600091509150505481565b600360009054906101000a900460ff1681565b6000620021ed62002b8e565b73ffffffffffffffffffffffffffffffffffffffff166200220d62001b1f565b73ffffffffffffffffffffffffffffffffffffffff161462002266576040517f08c379a00000000000000000000000000000000000000000000000000000000081526004016200225d9062003d67565b60405180910390fd5b60005b8251811015620022d8576200229b8382815181106200228d576200228c620042b1565b5b602002602001015162001512565b15620022c257600160026000828254620022b6919062003fa1565b92505081905550600191505b8080620022cf9062004205565b91505062002269565b50919050565b6000600160008373ffffffffffffffffffffffffffffffffffffffff1673ffffffffffffffffffffffffffffffffffffffff16815260200190815260200160002060009054906101000a900460ff169050919050565b600960009054906101000a900473ffffffffffffffffffffffffffffffffffffffff1673ffffffffffffffffffffffffffffffffffffffff163373ffffffffffffffffffffffffffffffffffffffff1614620023c7576040517f08c379a0000000000000000000000000000000000000000000000000000000008152600401620023be9062003dab565b60405180910390fd5b6001600960146101000a81548160ff021916908315150217905550565b6060600d60008373ffffffffffffffffffffffffffffffffffffffff1673ffffffffffffffffffffffffffffffffffffffff1681526020019081526020016000208054806020026020016040519081016040528092919081815260200182805480156200247157602002820191906000526020600020905b8154815260200190600101908083116200245c575b50505050509050919050565b600b6020528060005260406000206000915090505481565b6200249f62002b8e565b73ffffffffffffffffffffffffffffffffffffffff16620024bf62001b1f565b73ffffffffffffffffffffffffffffffffffffffff161462002518576040517f08c379a00000000000000000000000000000000000000000000000000000000081526004016200250f9062003d67565b60405180910390fd5b600073ffffffffffffffffffffffffffffffffffffffff168173ffffffffffffffffffffffffffffffffffffffff1614156200258b576040517f08c379a0000000000000000000000000000000000000000000000000000000008152600401620025829062003c57565b60405180910390fd5b620025968162002c46565b50565b600960159054906101000a900460ff1615620025ec576040517f08c379a0000000000000000000000000000000000000000000000000000000008152600401620025e39062003d23565b60405180910390fd5b600e60003373ffffffffffffffffffffffffffffffffffffffff1673ffffffffffffffffffffffffffffffffffffffff16815260200190815260200160002060009054906101000a900460ff166200267b576040517f08c379a0000000000000000000000000000000000000000000000000000000008152600401620026729062003dcd565b60405180910390fd5b6000601560009054906101000a900473ffffffffffffffffffffffffffffffffffffffff1673ffffffffffffffffffffffffffffffffffffffff166306575c896040518163ffffffff1660e01b815260040160206040518083038186803b158015620026e657600080fd5b505afa158015620026fb573d6000803e3d6000fd5b505050506040513d601f19601f82011682018060405250810190620027219190620035a6565b905060005b600d60003373ffffffffffffffffffffffffffffffffffffffff1673ffffffffffffffffffffffffffffffffffffffff168152602001908152602001600020805490508110156200282657600a6000600d60003373ffffffffffffffffffffffffffffffffffffffff1673ffffffffffffffffffffffffffffffffffffffff1681526020019081526020016000208381548110620027c957620027c8620042b1565b5b906000526020600020015481526020019081526020016000208260088110620027f757620027f6620042b1565b5b0160008154809291906200280b906200416a565b919050555080806200281d9062004205565b91505062002726565b5060005b8251811015620028a857600a60008483815181106200284e576200284d620042b1565b5b602002602001015181526020019081526020016000208260088110620028795762002878620042b1565b5b0160008154809291906200288d9062004205565b919050555080806200289f9062004205565b9150506200282a565b5060005b825181101562002958576001600a6000858481518110620028d257620028d1620042b1565b5b602002602001015181526020019081526020016000208360088110620028fd57620028fc620042b1565b5b01541462002942576040517f08c379a0000000000000000000000000000000000000000000000000000000008152600401620029399062003cdf565b60405180910390fd5b80806200294f9062004205565b915050620028ac565b5060005b825181101562002a4157600a8162002975919062003ffe565b8382815181106200298b576200298a620042b1565b5b602002602001015110158015620029e957506001600a600183620029b0919062003fa1565b620029bc919062003ffe565b620029c891906200405f565b838281518110620029de57620029dd620042b1565b5b602002602001015111155b62002a2b576040517f08c379a000000000000000000000000000000000000000000000000000000000815260040162002a229062003d01565b60405180910390fd5b808062002a389062004205565b9150506200295c565b5062002a826040518060400160405280601781526020017f53657474696e67206c696e657570206e6f77206261627900000000000000000081525062002ba9565b81600d60003373ffffffffffffffffffffffffffffffffffffffff1673ffffffffffffffffffffffffffffffffffffffff168152602001908152602001600020908051906020019062002ad79291906200304b565b505050565b600860009054906101000a900473ffffffffffffffffffffffffffffffffffffffff1681565b62002b0c6200309d565b600c60003373ffffffffffffffffffffffffffffffffffffffff1673ffffffffffffffffffffffffffffffffffffffff16815260200190815260200160002060088060200260405190810160405280929190826008801562002b84576020028201915b81548152602001906001019080831162002b6f575b5050505050905090565b600033905090565b600062002ba33062002f60565b15905090565b62002c438160405160240162002bc0919062003c33565b6040516020818303038152906040527f41304fac000000000000000000000000000000000000000000000000000000007bffffffffffffffffffffffffffffffffffffffffffffffffffffffff19166020820180517bffffffffffffffffffffffffffffffffffffffffffffffffffffffff838183161783525050505062002f83565b50565b60008060029054906101000a900473ffffffffffffffffffffffffffffffffffffffff16905081600060026101000a81548173ffffffffffffffffffffffffffffffffffffffff021916908373ffffffffffffffffffffffffffffffffffffffff1602179055508173ffffffffffffffffffffffffffffffffffffffff168173ffffffffffffffffffffffffffffffffffffffff167f8be0079c531659141344cd1fd0a4f28419497f9722a3daafe3b4186f6b6457e060405160405180910390a35050565b6000600f8054905060075462002d22919062003ffe565b90506000600f60008154811062002d3e5762002d3d620042b1565b5b9060005260206000200160009054906101000a900473ffffffffffffffffffffffffffffffffffffffff1690506000600190505b600f8054905081101562002ea357600b60008373ffffffffffffffffffffffffffffffffffffffff1673ffffffffffffffffffffffffffffffffffffffff16815260200190815260200160002054600b6000600f848154811062002ddb5762002dda620042b1565b5b9060005260206000200160009054906101000a900473ffffffffffffffffffffffffffffffffffffffff1673ffffffffffffffffffffffffffffffffffffffff1673ffffffffffffffffffffffffffffffffffffffff16815260200190815260200160002054111562002e8d57600f818154811062002e5f5762002e5e620042b1565b5b9060005260206000200160009054906101000a900473ffffffffffffffffffffffffffffffffffffffff1691505b808062002e9a9062004205565b91505062002d72565b50601660009054906101000a900473ffffffffffffffffffffffffffffffffffffffff1673ffffffffffffffffffffffffffffffffffffffff166323b872dd3083856040518463ffffffff1660e01b815260040162002f059392919062003a8c565b602060405180830381600087803b15801562002f2057600080fd5b505af115801562002f35573d6000803e3d6000fd5b505050506040513d601f19601f8201168201806040525081019062002f5b919062003428565b505050565b6000808273ffffffffffffffffffffffffffffffffffffffff163b119050919050565b60008151905060006a636f6e736f6c652e6c6f679050602083016000808483855afa5050505050565b82805462002fba9062004199565b90600052602060002090601f01602090048101928262002fde57600085556200302a565b82601f1062002ff957803560ff19168380011785556200302a565b828001600101855582156200302a579182015b82811115620030295782358255916020019190600101906200300c565b5b509050620030399190620030c0565b5090565b61108d80620046f983390190565b8280548282559060005260206000209081019282156200308a579160200282015b82811115620030895782518255916020019190600101906200306c565b5b509050620030999190620030c0565b5090565b604051806101000160405280600890602082028036833780820191505090505090565b5b80821115620030db576000816000905550600101620030c1565b5090565b6000620030f6620030f08462003e9b565b62003e72565b905080838252602082019050828560208602820111156200311c576200311b62004319565b5b60005b85811015620031505781620031358882620031d5565b8452602084019350602083019250506001810190506200311f565b5050509392505050565b6000620031716200316b8462003eca565b62003e72565b9050808382526020820190508285602086028201111562003197576200319662004319565b5b60005b85811015620031cb5781620031b08882620032df565b8452602084019350602083019250506001810190506200319a565b5050509392505050565b600081359050620031e681620046aa565b92915050565b600082601f83011262003204576200320362004314565b5b813562003216848260208601620030df565b91505092915050565b600082601f83011262003237576200323662004314565b5b8135620032498482602086016200315a565b91505092915050565b6000813590506200326381620046c4565b92915050565b6000815190506200327a81620046c4565b92915050565b60008083601f84011262003299576200329862004314565b5b8235905067ffffffffffffffff811115620032b957620032b86200430f565b5b602083019150836001820283011115620032d857620032d762004319565b5b9250929050565b600081359050620032f081620046de565b92915050565b6000815190506200330781620046de565b92915050565b60006020828403121562003326576200332562004323565b5b60006200333684828501620031d5565b91505092915050565b6000806040838503121562003359576200335862004323565b5b60006200336985828601620031d5565b92505060206200337c85828601620032df565b9150509250929050565b6000602082840312156200339f576200339e62004323565b5b600082013567ffffffffffffffff811115620033c057620033bf6200431e565b5b620033ce84828501620031ec565b91505092915050565b600060208284031215620033f057620033ef62004323565b5b600082013567ffffffffffffffff8111156200341157620034106200431e565b5b6200341f848285016200321f565b91505092915050565b60006020828403121562003441576200344062004323565b5b6000620034518482850162003269565b91505092915050565b60008060008060008060008060008060006101408c8e03121562003483576200348262004323565b5b60008c013567ffffffffffffffff811115620034a457620034a36200431e565b5b620034b28e828f0162003280565b9b509b50506020620034c78e828f01620032df565b9950506040620034da8e828f0162003252565b9850506060620034ed8e828f01620031d5565b9750506080620035008e828f01620031d5565b96505060a0620035138e828f01620031d5565b95505060c0620035268e828f01620031d5565b94505060e0620035398e828f01620031d5565b9350506101006200354d8e828f01620031d5565b925050610120620035618e828f01620031d5565b9150509295989b509295989b9093969950565b6000602082840312156200358d576200358c62004323565b5b60006200359d84828501620032df565b91505092915050565b600060208284031215620035bf57620035be62004323565b5b6000620035cf84828501620032f6565b91505092915050565b6000620035e6838362003a3c565b60208301905092915050565b620035fd816200409a565b82525050565b8082525050565b620036158162003f28565b62003621818462003f63565b92506200362e8262003ef9565b8060005b8381101562003665578151620036498782620035d8565b9650620036568362003f49565b92505060018101905062003632565b505050505050565b60006200367a8262003f33565b62003686818562003f6e565b9350620036938362003f03565b8060005b83811015620036ca578151620036ae8882620035d8565b9750620036bb8362003f56565b92505060018101905062003697565b5085935050505092915050565b620036e281620040ae565b82525050565b620036f381620040e4565b82525050565b6200370481620040f8565b82525050565b8082525050565b8082525050565b8082525050565b8082525050565b6000620037338262003f3e565b6200373f818562003f7f565b93506200375181856020860162004134565b6200375c8162004328565b840191505092915050565b60008154620037768162004199565b62003782818662003f90565b94506001821660008114620037a05760018114620037b357620037ea565b60ff1983168652602086019350620037ea565b620037be8562003f13565b60005b83811015620037e257815481890152600182019150602081019050620037c1565b808801955050505b50505092915050565b60006200380260268362003f7f565b91506200380f8262004339565b604082019050919050565b600062003829601d8362003f7f565b9150620038368262004388565b602082019050919050565b60006200385060238362003f7f565b91506200385d82620043b1565b604082019050919050565b600062003877601a8362003f7f565b9150620038848262004400565b602082019050919050565b60006200389e60258362003f7f565b9150620038ab8262004429565b604082019050919050565b6000620038c560318362003f7f565b9150620038d28262004478565b604082019050919050565b6000620038ec601e8362003f7f565b9150620038f982620044c7565b602082019050919050565b600062003913602e8362003f7f565b91506200392082620044f0565b604082019050919050565b60006200393a60208362003f7f565b915062003947826200453f565b602082019050919050565b60006200396160178362003f7f565b91506200396e8262004568565b602082019050919050565b60006200398860168362003f7f565b9150620039958262004591565b602082019050919050565b6000620039af60168362003f7f565b9150620039bc82620045ba565b602082019050919050565b6000620039d660418362003f7f565b9150620039e382620045e3565b606082019050919050565b6000620039fd601f8362003f7f565b915062003a0a8262004658565b602082019050919050565b600062003a2460178362003f7f565b915062003a318262004681565b602082019050919050565b62003a4781620040da565b82525050565b62003a5881620040da565b82525050565b62003a6981620040da565b82525050565b600060208201905062003a866000830184620035f2565b92915050565b600060608201905062003aa36000830186620035f2565b62003ab26020830185620035f2565b62003ac1604083018462003a4d565b949350505050565b600060408201905062003ae06000830185620035f2565b62003aef602083018462003a4d565b9392505050565b60006101008201905062003b0e60008301846200360a565b92915050565b6000602082019050818103600083015262003b3081846200366d565b905092915050565b600060208201905062003b4f6000830184620036d7565b92915050565b600060208201905062003b6c6000830184620036f9565b92915050565b600060808201905062003b8960008301876200371f565b62003b98602083018662003603565b62003ba7604083018562003a5e565b818103606083015262003bbb818462003767565b905095945050505050565b600060c08201905062003bdd60008301896200371f565b62003bec602083018862003a5e565b62003bfb6040830187620036e8565b62003c0a60608301866200370a565b62003c19608083018562003718565b62003c2860a083018462003711565b979650505050505050565b6000602082019050818103600083015262003c4f818462003726565b905092915050565b6000602082019050818103600083015262003c7281620037f3565b9050919050565b6000602082019050818103600083015262003c94816200381a565b9050919050565b6000602082019050818103600083015262003cb68162003841565b9050919050565b6000602082019050818103600083015262003cd88162003868565b9050919050565b6000602082019050818103600083015262003cfa816200388f565b9050919050565b6000602082019050818103600083015262003d1c81620038b6565b9050919050565b6000602082019050818103600083015262003d3e81620038dd565b9050919050565b6000602082019050818103600083015262003d608162003904565b9050919050565b6000602082019050818103600083015262003d82816200392b565b9050919050565b6000602082019050818103600083015262003da48162003952565b9050919050565b6000602082019050818103600083015262003dc68162003979565b9050919050565b6000602082019050818103600083015262003de881620039a0565b9050919050565b6000602082019050818103600083015262003e0a81620039c7565b9050919050565b6000602082019050818103600083015262003e2c81620039ee565b9050919050565b6000602082019050818103600083015262003e4e8162003a15565b9050919050565b600060208201905062003e6c600083018462003a4d565b92915050565b600062003e7e62003e91565b905062003e8c8282620041cf565b919050565b6000604051905090565b600067ffffffffffffffff82111562003eb95762003eb8620042e0565b5b602082029050602081019050919050565b600067ffffffffffffffff82111562003ee85762003ee7620042e0565b5b602082029050602081019050919050565b6000819050919050565b6000819050602082019050919050565b60008190508160005260206000209050919050565b600060089050919050565b600081519050919050565b600081519050919050565b6000602082019050919050565b6000602082019050919050565b600081905092915050565b600082825260208201905092915050565b600082825260208201905092915050565b600082825260208201905092915050565b600062003fae82620040da565b915062003fbb83620040da565b9250827fffffffffffffffffffffffffffffffffffffffffffffffffffffffffffffffff0382111562003ff35762003ff262004253565b5b828201905092915050565b60006200400b82620040da565b91506200401883620040da565b9250817fffffffffffffffffffffffffffffffffffffffffffffffffffffffffffffffff048311821515161562004054576200405362004253565b5b828202905092915050565b60006200406c82620040da565b91506200407983620040da565b9250828210156200408f576200408e62004253565b5b828203905092915050565b6000620040a782620040ba565b9050919050565b60008115159050919050565b600073ffffffffffffffffffffffffffffffffffffffff82169050919050565b6000819050919050565b6000620040f1826200410c565b9050919050565b600062004105826200410c565b9050919050565b6000620041198262004120565b9050919050565b60006200412d82620040ba565b9050919050565b60005b838110156200415457808201518184015260208101905062004137565b8381111562004164576000848401525b50505050565b60006200417782620040da565b915060008214156200418e576200418d62004253565b5b600182039050919050565b60006002820490506001821680620041b257607f821691505b60208210811415620041c957620041c862004282565b5b50919050565b620041da8262004328565b810181811067ffffffffffffffff82111715620041fc57620041fb620042e0565b5b80604052505050565b60006200421282620040da565b91507fffffffffffffffffffffffffffffffffffffffffffffffffffffffffffffffff82141562004248576200424762004253565b5b600182019050919050565b7f4e487b7100000000000000000000000000000000000000000000000000000000600052601160045260246000fd5b7f4e487b7100000000000000000000000000000000000000000000000000000000600052602260045260246000fd5b7f4e487b7100000000000000000000000000000000000000000000000000000000600052603260045260246000fd5b7f4e487b7100000000000000000000000000000000000000000000000000000000600052604160045260246000fd5b600080fd5b600080fd5b600080fd5b600080fd5b600080fd5b6000601f19601f8301169050919050565b7f4f776e61626c653a206e6577206f776e657220697320746865207a65726f206160008201527f6464726573730000000000000000000000000000000000000000000000000000602082015250565b7f496e737566666963656e742066756e647320666f72207374616b696e67000000600082015250565b7f596f75206861766520616c7265616479206a6f696e65642074686973206c656160008201527f6775650000000000000000000000000000000000000000000000000000000000602082015250565b7f55736572206973206e6f742077686974656c6973746564203a28000000000000600082015250565b7f4475706c6963617465206174686c65746549447320617265206e6f7420616c6c60008201527f6f7765642e000000000000000000000000000000000000000000000000000000602082015250565b7f596f75206172652073657474696e6720616e206174686c65746520696e20746860008201527f652077726f6e6720706f736974696f6e21000000000000000000000000000000602082015250565b7f6c696e657570206973206c6f636b656420666f7220746865207765656b210000600082015250565b7f496e697469616c697a61626c653a20636f6e747261637420697320616c72656160008201527f647920696e697469616c697a6564000000000000000000000000000000000000602082015250565b7f4f776e61626c653a2063616c6c6572206973206e6f7420746865206f776e6572600082015250565b7f43616c6c6572206973206e6f74207468652061646d696e000000000000000000600082015250565b7f43616c6c6572206973206e6f74205465616d4469666600000000000000000000600082015250565b7f55736572206973206e6f7420696e204c65616775652e00000000000000000000600082015250565b7f4e6f626f64792063616e20656e7465722f6578697420746865206c656167756560008201527f20616e796d6f72652e2054686520736561736f6e20686173207374617274656460208201527f2100000000000000000000000000000000000000000000000000000000000000604082015250565b7f5265656e7472616e637947756172643a207265656e7472616e742063616c6c00600082015250565b7f4c656167756520456e74727920697320436c6f73656421000000000000000000600082015250565b620046b5816200409a565b8114620046c157600080fd5b50565b620046cf81620040ae565b8114620046db57600080fd5b50565b620046e981620040da565b8114620046f557600080fd5b5056fe608060405234801561001057600080fd5b5061002d61002261003260201b60201c565b61003a60201b60201c565b6100fe565b600033905090565b60008060009054906101000a900473ffffffffffffffffffffffffffffffffffffffff169050816000806101000a81548173ffffffffffffffffffffffffffffffffffffffff021916908373ffffffffffffffffffffffffffffffffffffffff1602179055508173ffffffffffffffffffffffffffffffffffffffff168173ffffffffffffffffffffffffffffffffffffffff167f8be0079c531659141344cd1fd0a4f28419497f9722a3daafe3b4186f6b6457e060405160405180910390a35050565b610f808061010d6000396000f3fe608060405234801561001057600080fd5b50600436106100a95760003560e01c80638da5cb5b116100715780638da5cb5b146101665780639b19251a14610184578063dc9a1535146101b4578063e2ec6ec3146101d2578063e35a899914610202578063f2fde38b14610232576100a9565b806324953eaa146100ae578063286dd3f5146100de57806344eaa84e1461010e578063715018a61461012c5780637b9417c814610136575b600080fd5b6100c860048036038101906100c39190610b0e565b61024e565b6040516100d59190610be5565b60405180910390f35b6100f860048036038101906100f39190610ae1565b610338565b6040516101059190610be5565b60405180910390f35b6101166104bb565b6040516101239190610c40565b60405180910390f35b6101346104c5565b005b610150600480360381019061014b9190610ae1565b61054d565b60405161015d9190610be5565b60405180910390f35b61016e6106ce565b60405161017b9190610bca565b60405180910390f35b61019e60048036038101906101999190610ae1565b6106f7565b6040516101ab9190610be5565b60405180910390f35b6101bc610717565b6040516101c99190610be5565b60405180910390f35b6101ec60048036038101906101e79190610b0e565b61072a565b6040516101f99190610be5565b60405180910390f35b61021c60048036038101906102179190610ae1565b610814565b6040516102299190610be5565b60405180910390f35b61024c60048036038101906102479190610ae1565b61086a565b005b6000610258610962565b73ffffffffffffffffffffffffffffffffffffffff166102766106ce565b73ffffffffffffffffffffffffffffffffffffffff16146102cc576040517f08c379a00000000000000000000000000000000000000000000000000000000081526004016102c390610c20565b60405180910390fd5b60005b8251811015610332576102fb8382815181106102ee576102ed610e38565b5b6020026020010151610338565b1561031f576001600260008282546103139190610d13565b92505081905550600191505b808061032a90610dc0565b9150506102cf565b50919050565b6000610342610962565b73ffffffffffffffffffffffffffffffffffffffff166103606106ce565b73ffffffffffffffffffffffffffffffffffffffff16146103b6576040517f08c379a00000000000000000000000000000000000000000000000000000000081526004016103ad90610c20565b60405180910390fd5b600160008373ffffffffffffffffffffffffffffffffffffffff1673ffffffffffffffffffffffffffffffffffffffff16815260200190815260200160002060009054906101000a900460ff16156104b6576000600160008473ffffffffffffffffffffffffffffffffffffffff1673ffffffffffffffffffffffffffffffffffffffff16815260200190815260200160002060006101000a81548160ff0219169083151502179055507ff1abf01a1043b7c244d128e8595cf0c1d10743b022b03a02dffd8ca3bf729f5a8260405161048f9190610bca565b60405180910390a16001600260008282546104aa9190610d13565b92505081905550600190505b919050565b6000600254905090565b6104cd610962565b73ffffffffffffffffffffffffffffffffffffffff166104eb6106ce565b73ffffffffffffffffffffffffffffffffffffffff1614610541576040517f08c379a000000000000000000000000000000000000000000000000000000000815260040161053890610c20565b60405180910390fd5b61054b600061096a565b565b6000610557610962565b73ffffffffffffffffffffffffffffffffffffffff166105756106ce565b73ffffffffffffffffffffffffffffffffffffffff16146105cb576040517f08c379a00000000000000000000000000000000000000000000000000000000081526004016105c290610c20565b60405180910390fd5b600160008373ffffffffffffffffffffffffffffffffffffffff1673ffffffffffffffffffffffffffffffffffffffff16815260200190815260200160002060009054906101000a900460ff166106c95760018060008473ffffffffffffffffffffffffffffffffffffffff1673ffffffffffffffffffffffffffffffffffffffff16815260200190815260200160002060006101000a81548160ff0219169083151502179055507fd1bba68c128cc3f427e5831b3c6f99f480b6efa6b9e80c757768f6124158cc3f826040516106a29190610bca565b60405180910390a16001600260008282546106bd9190610cbd565b92505081905550600190505b919050565b60008060009054906101000a900473ffffffffffffffffffffffffffffffffffffffff16905090565b60016020528060005260406000206000915054906101000a900460ff1681565b600360009054906101000a900460ff1681565b6000610734610962565b73ffffffffffffffffffffffffffffffffffffffff166107526106ce565b73ffffffffffffffffffffffffffffffffffffffff16146107a8576040517f08c379a000000000000000000000000000000000000000000000000000000000815260040161079f90610c20565b60405180910390fd5b60005b825181101561080e576107d78382815181106107ca576107c9610e38565b5b602002602001015161054d565b156107fb576001600260008282546107ef9190610cbd565b92505081905550600191505b808061080690610dc0565b9150506107ab565b50919050565b6000600160008373ffffffffffffffffffffffffffffffffffffffff1673ffffffffffffffffffffffffffffffffffffffff16815260200190815260200160002060009054906101000a900460ff169050919050565b610872610962565b73ffffffffffffffffffffffffffffffffffffffff166108906106ce565b73ffffffffffffffffffffffffffffffffffffffff16146108e6576040517f08c379a00000000000000000000000000000000000000000000000000000000081526004016108dd90610c20565b60405180910390fd5b600073ffffffffffffffffffffffffffffffffffffffff168173ffffffffffffffffffffffffffffffffffffffff161415610956576040517f08c379a000000000000000000000000000000000000000000000000000000000815260040161094d90610c00565b60405180910390fd5b61095f8161096a565b50565b600033905090565b60008060009054906101000a900473ffffffffffffffffffffffffffffffffffffffff169050816000806101000a81548173ffffffffffffffffffffffffffffffffffffffff021916908373ffffffffffffffffffffffffffffffffffffffff1602179055508173ffffffffffffffffffffffffffffffffffffffff168173ffffffffffffffffffffffffffffffffffffffff167f8be0079c531659141344cd1fd0a4f28419497f9722a3daafe3b4186f6b6457e060405160405180910390a35050565b6000610a41610a3c84610c80565b610c5b565b90508083825260208201905082856020860282011115610a6457610a63610e9b565b5b60005b85811015610a945781610a7a8882610a9e565b845260208401935060208301925050600181019050610a67565b5050509392505050565b600081359050610aad81610f33565b92915050565b600082601f830112610ac857610ac7610e96565b5b8135610ad8848260208601610a2e565b91505092915050565b600060208284031215610af757610af6610ea5565b5b6000610b0584828501610a9e565b91505092915050565b600060208284031215610b2457610b23610ea5565b5b600082013567ffffffffffffffff811115610b4257610b41610ea0565b5b610b4e84828501610ab3565b91505092915050565b610b6081610d47565b82525050565b610b6f81610d59565b82525050565b6000610b82602683610cac565b9150610b8d82610ebb565b604082019050919050565b6000610ba5602083610cac565b9150610bb082610f0a565b602082019050919050565b610bc481610d85565b82525050565b6000602082019050610bdf6000830184610b57565b92915050565b6000602082019050610bfa6000830184610b66565b92915050565b60006020820190508181036000830152610c1981610b75565b9050919050565b60006020820190508181036000830152610c3981610b98565b9050919050565b6000602082019050610c556000830184610bbb565b92915050565b6000610c65610c76565b9050610c718282610d8f565b919050565b6000604051905090565b600067ffffffffffffffff821115610c9b57610c9a610e67565b5b602082029050602081019050919050565b600082825260208201905092915050565b6000610cc882610d85565b9150610cd383610d85565b9250827fffffffffffffffffffffffffffffffffffffffffffffffffffffffffffffffff03821115610d0857610d07610e09565b5b828201905092915050565b6000610d1e82610d85565b9150610d2983610d85565b925082821015610d3c57610d3b610e09565b5b828203905092915050565b6000610d5282610d65565b9050919050565b60008115159050919050565b600073ffffffffffffffffffffffffffffffffffffffff82169050919050565b6000819050919050565b610d9882610eaa565b810181811067ffffffffffffffff82111715610db757610db6610e67565b5b80604052505050565b6000610dcb82610d85565b91507fffffffffffffffffffffffffffffffffffffffffffffffffffffffffffffffff821415610dfe57610dfd610e09565b5b600182019050919050565b7f4e487b7100000000000000000000000000000000000000000000000000000000600052601160045260246000fd5b7f4e487b7100000000000000000000000000000000000000000000000000000000600052603260045260246000fd5b7f4e487b7100000000000000000000000000000000000000000000000000000000600052604160045260246000fd5b600080fd5b600080fd5b600080fd5b600080fd5b6000601f19601f8301169050919050565b7f4f776e61626c653a206e6577206f776e657220697320746865207a65726f206160008201527f6464726573730000000000000000000000000000000000000000000000000000602082015250565b7f4f776e61626c653a2063616c6c6572206973206e6f7420746865206f776e6572600082015250565b610f3c81610d47565b8114610f4757600080fd5b5056fea2646970667358221220bed30b98fd52fd06427fedf4fcef33f2521d9e36ee375e945eb6c8c8ba1d457d64736f6c63430008070033a2646970667358221220a3ccf9934337c7b8d1d710b9984dcddc263eec696225f8f69d09a1435e889b8264736f6c63430008070033",
  "linkReferences": {
    "contracts/MOBALogicLibrary.sol": {
      "MOBALogicLibrary": [
        {
          "length": 20,
          "start": 2701
        },
        {
          "length": 20,
          "start": 6630
        }
      ]
    }
  },
  "deployedLinkReferences": {
    "contracts/MOBALogicLibrary.sol": {
      "MOBALogicLibrary": [
        {
          "length": 20,
          "start": 2416
        },
        {
          "length": 20,
          "start": 6345
        }
      ]
    }
  }
}