{
  "_format": "hh-sol-artifact-1",
  "contractName": "LeagueOfLegendsLogic",
  "sourceName": "contracts/LeagueOfLegendsLogic.sol",
  "abi": [
    {
      "anonymous": false,
      "inputs": [
        {
          "indexed": false,
          "internalType": "address",
          "name": "sender",
          "type": "address"
        },
        {
          "indexed": false,
          "internalType": "uint256",
          "name": "amount",
          "type": "uint256"
        },
        {
          "indexed": false,
          "internalType": "address",
          "name": "leagueAddress",
          "type": "address"
        }
      ],
      "name": "Staked",
      "type": "event"
    },
    {
      "anonymous": false,
      "inputs": [
        {
          "indexed": false,
          "internalType": "address[]",
          "name": "winner",
          "type": "address[]"
        },
        {
          "indexed": false,
          "internalType": "uint256",
          "name": "prizePotPerWinner",
          "type": "uint256"
        }
      ],
      "name": "leagueEnded",
      "type": "event"
    },
    {
      "anonymous": false,
      "inputs": [
        {
          "indexed": false,
          "internalType": "address",
          "name": "sender",
          "type": "address"
        },
        {
          "indexed": false,
          "internalType": "address",
          "name": "contractAddress",
          "type": "address"
        }
      ],
      "name": "testUSDCDeployed",
      "type": "event"
    },
    {
      "inputs": [
        {
          "internalType": "address",
          "name": "_userToAdd",
          "type": "address"
        }
      ],
      "name": "addUserToWhitelist",
      "outputs": [],
      "stateMutability": "nonpayable",
      "type": "function"
    },
    {
      "inputs": [],
      "name": "admin",
      "outputs": [
        {
          "internalType": "address",
          "name": "",
          "type": "address"
        }
      ],
      "stateMutability": "view",
      "type": "function"
    },
    {
      "inputs": [],
      "name": "currentWeekNum",
      "outputs": [
        {
          "internalType": "uint256",
          "name": "",
          "type": "uint256"
        }
      ],
      "stateMutability": "view",
      "type": "function"
    },
    {
      "inputs": [],
      "name": "evaluateMatches",
      "outputs": [],
      "stateMutability": "nonpayable",
      "type": "function"
    },
    {
      "inputs": [],
      "name": "getAdmin",
      "outputs": [
        {
          "internalType": "address",
          "name": "",
          "type": "address"
        }
      ],
      "stateMutability": "view",
      "type": "function"
    },
    {
      "inputs": [],
      "name": "getContractUSDCBalance",
      "outputs": [
        {
          "internalType": "uint256",
          "name": "",
          "type": "uint256"
        }
      ],
      "stateMutability": "view",
      "type": "function"
    },
    {
      "inputs": [
        {
          "internalType": "uint256",
          "name": "index",
          "type": "uint256"
        }
      ],
      "name": "getLeagueMember",
      "outputs": [
        {
          "internalType": "address",
          "name": "",
          "type": "address"
        }
      ],
      "stateMutability": "view",
      "type": "function"
    },
    {
      "inputs": [
        {
          "internalType": "address",
          "name": "_user",
          "type": "address"
        }
      ],
      "name": "getLineup",
      "outputs": [
        {
          "internalType": "uint256[5]",
          "name": "",
          "type": "uint256[5]"
        }
      ],
      "stateMutability": "view",
      "type": "function"
    },
    {
      "inputs": [],
      "name": "getLineupIsLocked",
      "outputs": [
        {
          "internalType": "bool",
          "name": "",
          "type": "bool"
        }
      ],
      "stateMutability": "view",
      "type": "function"
    },
    {
      "inputs": [
        {
          "internalType": "uint256",
          "name": "_week",
          "type": "uint256"
        }
      ],
      "name": "getScheduleForWeek",
      "outputs": [
        {
          "components": [
            {
              "internalType": "address[2]",
              "name": "players",
              "type": "address[2]"
            }
          ],
          "internalType": "struct LeagueOfLegendsLogic.Matchup[]",
          "name": "",
          "type": "tuple[]"
        }
      ],
      "stateMutability": "view",
      "type": "function"
    },
    {
      "inputs": [],
      "name": "getUserRecord",
      "outputs": [
        {
          "internalType": "uint256[8]",
          "name": "",
          "type": "uint256[8]"
        }
      ],
      "stateMutability": "view",
      "type": "function"
    },
    {
      "inputs": [
        {
          "internalType": "address",
          "name": "",
          "type": "address"
        }
      ],
      "name": "inLeague",
      "outputs": [
        {
          "internalType": "bool",
          "name": "",
          "type": "bool"
        }
      ],
      "stateMutability": "view",
      "type": "function"
    },
    {
      "inputs": [
        {
          "internalType": "string",
          "name": "_name",
          "type": "string"
        },
        {
          "internalType": "uint256",
          "name": "_stakeAmount",
          "type": "uint256"
        },
        {
          "internalType": "bool",
          "name": "_isPublic",
          "type": "bool"
        },
        {
          "internalType": "address",
          "name": "athletesDataStorageAddress",
          "type": "address"
        },
        {
          "internalType": "address",
          "name": "_admin",
          "type": "address"
        },
        {
          "internalType": "address",
          "name": "_rinkebyUSDCAddress",
          "type": "address"
        },
        {
          "internalType": "address",
          "name": "_testUSDCAddress",
          "type": "address"
        },
        {
          "internalType": "address",
          "name": "_gameItemsContractAddress",
          "type": "address"
        },
        {
          "internalType": "address",
          "name": "_teamDiffAddress",
          "type": "address"
        },
        {
          "internalType": "address",
          "name": "_leagueMakerContractAddress",
          "type": "address"
        }
      ],
      "name": "initialize",
      "outputs": [],
      "stateMutability": "nonpayable",
      "type": "function"
    },
    {
      "inputs": [],
      "name": "joinLeague",
      "outputs": [],
      "stateMutability": "nonpayable",
      "type": "function"
    },
    {
      "inputs": [],
      "name": "leagueEntryIsClosed",
      "outputs": [
        {
          "internalType": "bool",
          "name": "",
          "type": "bool"
        }
      ],
      "stateMutability": "view",
      "type": "function"
    },
    {
      "inputs": [
        {
          "internalType": "uint256",
          "name": "",
          "type": "uint256"
        }
      ],
      "name": "leagueMembers",
      "outputs": [
        {
          "internalType": "address",
          "name": "",
          "type": "address"
        }
      ],
      "stateMutability": "view",
      "type": "function"
    },
    {
      "inputs": [],
      "name": "leagueName",
      "outputs": [
        {
          "internalType": "string",
          "name": "",
          "type": "string"
        }
      ],
      "stateMutability": "view",
      "type": "function"
    },
    {
      "inputs": [],
      "name": "lineupIsLocked",
      "outputs": [
        {
          "internalType": "bool",
          "name": "",
          "type": "bool"
        }
      ],
      "stateMutability": "view",
      "type": "function"
    },
    {
      "inputs": [],
      "name": "lockLineup",
      "outputs": [],
      "stateMutability": "nonpayable",
      "type": "function"
    },
    {
      "inputs": [],
      "name": "numWeeks",
      "outputs": [
        {
          "internalType": "uint256",
          "name": "",
          "type": "uint256"
        }
      ],
      "stateMutability": "view",
      "type": "function"
    },
    {
      "inputs": [],
      "name": "onLeagueEnd",
      "outputs": [],
      "stateMutability": "nonpayable",
      "type": "function"
    },
    {
      "inputs": [
        {
          "internalType": "address",
          "name": "_userToRemove",
          "type": "address"
        }
      ],
      "name": "removeFromWhitelist",
      "outputs": [],
      "stateMutability": "nonpayable",
      "type": "function"
    },
    {
      "inputs": [],
      "name": "rinkebyUSDC",
      "outputs": [
        {
          "internalType": "contract IERC20",
          "name": "",
          "type": "address"
        }
      ],
      "stateMutability": "view",
      "type": "function"
    },
    {
      "inputs": [],
      "name": "rinkebyUSDCAddress",
      "outputs": [
        {
          "internalType": "address",
          "name": "",
          "type": "address"
        }
      ],
      "stateMutability": "view",
      "type": "function"
    },
    {
      "inputs": [
        {
          "internalType": "uint256",
          "name": "athleteId",
          "type": "uint256"
        },
        {
          "internalType": "uint256",
          "name": "position",
          "type": "uint256"
        }
      ],
      "name": "setAthleteInLineup",
      "outputs": [],
      "stateMutability": "nonpayable",
      "type": "function"
    },
    {
      "inputs": [],
      "name": "setLeagueEntryIsClosed",
      "outputs": [],
      "stateMutability": "nonpayable",
      "type": "function"
    },
    {
      "inputs": [],
      "name": "setLeagueSchedule",
      "outputs": [],
      "stateMutability": "nonpayable",
      "type": "function"
    },
    {
      "inputs": [
        {
          "internalType": "uint256[5]",
          "name": "athleteIds",
          "type": "uint256[5]"
        }
      ],
      "name": "setLineup",
      "outputs": [],
      "stateMutability": "nonpayable",
      "type": "function"
    },
    {
      "inputs": [],
      "name": "stakeAmount",
      "outputs": [
        {
          "internalType": "uint256",
          "name": "",
          "type": "uint256"
        }
      ],
      "stateMutability": "view",
      "type": "function"
    },
    {
      "inputs": [],
      "name": "teamDiffAddress",
      "outputs": [
        {
          "internalType": "address",
          "name": "",
          "type": "address"
        }
      ],
      "stateMutability": "view",
      "type": "function"
    },
    {
      "inputs": [],
      "name": "testUSDC",
      "outputs": [
        {
          "internalType": "contract IERC20",
          "name": "",
          "type": "address"
        }
      ],
      "stateMutability": "view",
      "type": "function"
    },
    {
      "inputs": [],
      "name": "unlockLineup",
      "outputs": [],
      "stateMutability": "nonpayable",
      "type": "function"
    },
    {
      "inputs": [
        {
          "internalType": "address",
          "name": "",
          "type": "address"
        },
        {
          "internalType": "uint256",
          "name": "",
          "type": "uint256"
        }
      ],
      "name": "userToLineup",
      "outputs": [
        {
          "internalType": "uint256",
          "name": "",
          "type": "uint256"
        }
      ],
      "stateMutability": "view",
      "type": "function"
    },
    {
      "inputs": [
        {
          "internalType": "address",
          "name": "",
          "type": "address"
        }
      ],
      "name": "userToPoints",
      "outputs": [
        {
          "internalType": "uint256",
          "name": "",
          "type": "uint256"
        }
      ],
      "stateMutability": "view",
      "type": "function"
    },
    {
      "inputs": [
        {
          "internalType": "address",
          "name": "",
          "type": "address"
        },
        {
          "internalType": "uint256",
          "name": "",
          "type": "uint256"
        }
      ],
      "name": "userToRecord",
      "outputs": [
        {
          "internalType": "uint256",
          "name": "",
          "type": "uint256"
        }
      ],
      "stateMutability": "view",
      "type": "function"
    },
    {
      "inputs": [],
      "name": "whitelistContract",
      "outputs": [
        {
          "internalType": "contract Whitelist",
          "name": "",
          "type": "address"
        }
      ],
      "stateMutability": "view",
      "type": "function"
    }
  ],
  "bytecode": "0x608060405234801561001057600080fd5b50600180819055506159a6806100276000396000f3fe60806040523480156200001157600080fd5b50600436106200024e5760003560e01c80636e9960c31162000141578063b47f862811620000bd578063e4c9066b1162000087578063e4c9066b146200065b578063e5f7322f1462000667578063ee90080f146200069d578063f851a44014620006d3578063f881604514620006f5576200024e565b8063b47f862814620005ed578063c8be3b5b146200060d578063c99fea941462000619578063cff560031462000625576200024e565b806384900b04116200010b57806384900b0414620005475780638ab1d68114620005695780639122ce6d1462000589578063a2bc091a14620005bf578063a949a9d714620005cb576200024e565b80636e9960c314620004c1578063747b805014620004e35780637eed33f11462000503578063841abf6e1462000525576200024e565b806327311b3211620001d15780633c3ae13f116200019b5780633c3ae13f146200041b57806352e6e5f3146200043b57806360c7dc47146200045d57806366aab256146200047f5780636cc15ad5146200049f576200024e565b806327311b3214620003815780632ae6b13514620003a35780632d382ee014620003d9578063305a5782146200040f576200024e565b80630655465a116200021f5780630655465a14620002db5780630c6f795914620002e75780631d803e00146200031d5780631dd7f8ca1462000329578063267175db146200034b576200024e565b80622772c21462000253578062b2476f1462000275578063022e35e614620002975780630635dbcb14620002b9575b600080fd5b6200025d62000717565b6040516200026c919062003e75565b60405180910390f35b6200027f620007cf565b6040516200028e919062003a1d565b60405180910390f35b620002a1620007f5565b604051620002b0919062003bd5565b60405180910390f35b620002c36200081b565b604051620002d2919062003bb8565b60405180910390f35b620002e56200082e565b005b620003056004803603810190620002ff919062003119565b62000939565b60405162000314919062003e75565b60405180910390f35b6200032762000962565b005b6200033362000da9565b60405162000342919062003a1d565b60405180910390f35b620003696004803603810190620003639190620032de565b62000dcf565b60405162000378919062003a1d565b60405180910390f35b6200038b62000e0f565b6040516200039a919062003bb8565b60405180910390f35b620003c16004803603810190620003bb9190620030e7565b62000e26565b604051620003d0919062003e75565b60405180910390f35b620003f76004803603810190620003f19190620032de565b62000e3e565b60405162000406919062003b59565b60405180910390f35b6200041962000f2f565b005b620004396004803603810190620004339190620031c4565b620010a7565b005b6200044562001478565b60405162000454919062003e75565b60405180910390f35b620004676200147e565b60405162000476919062003e75565b60405180910390f35b6200049d600480360381019062000497919062003160565b62001484565b005b620004a96200194f565b604051620004b8919062003bb8565b60405180910390f35b620004cb62001962565b604051620004da919062003a1d565b60405180910390f35b620005016004803603810190620004fb9190620030e7565b6200198c565b005b6200050d62001ad6565b6040516200051c919062003e75565b60405180910390f35b6200052f62001adc565b6040516200053e919062003c63565b60405180910390f35b6200055162001b72565b60405162000560919062003bf2565b60405180910390f35b620005876004803603810190620005819190620030e7565b62001b98565b005b620005a76004803603810190620005a19190620030e7565b62001d35565b604051620005b6919062003bb8565b60405180910390f35b620005c962001d55565b005b620005d562001e05565b604051620005e4919062003bd5565b60405180910390f35b6200060b600480360381019062000605919062003342565b62001e2b565b005b62000617620020ed565b005b620006236200219d565b005b6200064360048036038101906200063d919062003119565b62002944565b60405162000652919062003e75565b60405180910390f35b620006656200296d565b005b6200068560048036038101906200067f9190620030e7565b62002a1d565b60405162000694919062003b7d565b60405180910390f35b620006bb6004803603810190620006b59190620032de565b62002aab565b604051620006ca919062003a1d565b60405180910390f35b620006dd62002af6565b604051620006ec919062003a1d565b60405180910390f35b620006ff62002b1c565b6040516200070e919062003b9a565b60405180910390f35b6000601560009054906101000a900473ffffffffffffffffffffffffffffffffffffffff1673ffffffffffffffffffffffffffffffffffffffff166370a08231306040518263ffffffff1660e01b815260040162000776919062003a1d565b60206040518083038186803b1580156200078f57600080fd5b505afa158015620007a4573d6000803e3d6000fd5b505050506040513d601f19601f82011682018060405250810190620007ca919062003310565b905090565b601060009054906101000a900473ffffffffffffffffffffffffffffffffffffffff1681565b601460009054906101000a900473ffffffffffffffffffffffffffffffffffffffff1681565b600760159054906101000a900460ff1681565b600760009054906101000a900473ffffffffffffffffffffffffffffffffffffffff1673ffffffffffffffffffffffffffffffffffffffff163373ffffffffffffffffffffffffffffffffffffffff1614620008c1576040517f08c379a0000000000000000000000000000000000000000000000000000000008152600401620008b89062003da9565b60405180910390fd5b73__$36fdb4e0c2cb91f3ceca5ea81b025328f3$__63d2c232b5600f600d60035460026040518563ffffffff1660e01b815260040162000905949392919062003c0f565b60006040518083038186803b1580156200091e57600080fd5b505af415801562000933573d6000803e3d6000fd5b50505050565b600960205281600052604060002081600881106200095657600080fd5b01600091509150505481565b600760009054906101000a900473ffffffffffffffffffffffffffffffffffffffff1673ffffffffffffffffffffffffffffffffffffffff163373ffffffffffffffffffffffffffffffffffffffff1614620009f5576040517f08c379a0000000000000000000000000000000000000000000000000000000008152600401620009ec9062003da9565b60405180910390fd5b6000600454600d8054905062000a0c919062004137565b905073__$36fdb4e0c2cb91f3ceca5ea81b025328f3$__63cc9b40cc600d600b600e6040518463ffffffff1660e01b815260040162000a4e9392919062003ae1565b60006040518083038186803b15801562000a6757600080fd5b505af415801562000a7c573d6000803e3d6000fd5b5050505060005b600e8054905081101562000af35762000add600e828154811062000aac5762000aab6200446b565b5b9060005260206000200160009054906101000a900473ffffffffffffffffffffffffffffffffffffffff1662002ba8565b808062000aea9062004390565b91505062000a83565b506000600e805490508262000b099190620040ff565b905062000b516040518060400160405280601681526020017f4c65616775652077696e6e657273206c656e2069732000000000000000000000815250600e8054905062002c45565b62000b926040518060400160405280601681526020017f5072697a65207065722077696e6e6572206973203a20000000000000000000008152508262002c45565b7f648f2405ea194f3e49fe1655279883b3474e63909ab7e4a579b051d548ad8389600e8260405162000bc692919062003b25565b60405180910390a160005b600e8054905081101562000da457601560009054906101000a900473ffffffffffffffffffffffffffffffffffffffff1673ffffffffffffffffffffffffffffffffffffffff1663095ea7b330846040518363ffffffff1660e01b815260040162000c3e92919062003a77565b602060405180830381600087803b15801562000c5957600080fd5b505af115801562000c6e573d6000803e3d6000fd5b505050506040513d601f19601f8201168201806040525081019062000c94919062003192565b50601560009054906101000a900473ffffffffffffffffffffffffffffffffffffffff1673ffffffffffffffffffffffffffffffffffffffff166323b872dd30600e848154811062000ceb5762000cea6200446b565b5b9060005260206000200160009054906101000a900473ffffffffffffffffffffffffffffffffffffffff16856040518463ffffffff1660e01b815260040162000d379392919062003a3a565b602060405180830381600087803b15801562000d5257600080fd5b505af115801562000d67573d6000803e3d6000fd5b505050506040513d601f19601f8201168201806040525081019062000d8d919062003192565b50808062000d9b9062004390565b91505062000bd1565b505050565b600760009054906101000a900473ffffffffffffffffffffffffffffffffffffffff1681565b600d818154811062000de057600080fd5b906000526020600020016000915054906101000a900473ffffffffffffffffffffffffffffffffffffffff1681565b6000600760159054906101000a900460ff16905090565b600b6020528060005260406000206000915090505481565b6060600f6000838152602001908152602001600020805480602002602001604051908101604052809291908181526020016000905b8282101562000f2457838290600052602060002090600202016040518060200160405290816000820160028060200260405190810160405280929190826002801562000f0b576020028201915b8160009054906101000a900473ffffffffffffffffffffffffffffffffffffffff1673ffffffffffffffffffffffffffffffffffffffff168152602001906001019080831162000ec0575b5050505050815250508152602001906001019062000e73565b505050509050919050565b600760009054906101000a900473ffffffffffffffffffffffffffffffffffffffff1673ffffffffffffffffffffffffffffffffffffffff163373ffffffffffffffffffffffffffffffffffffffff161462000fc2576040517f08c379a000000000000000000000000000000000000000000000000000000000815260040162000fb99062003da9565b60405180910390fd5b73__$36fdb4e0c2cb91f3ceca5ea81b025328f3$__6361cc9f39600554601160009054906101000a900473ffffffffffffffffffffffffffffffffffffffff166009600a600b600f6040518763ffffffff1660e01b81526004016200102d9695949392919062003e92565b60006040518083038186803b1580156200104657600080fd5b505af41580156200105b573d6000803e3d6000fd5b50505050600160035462001070919062004198565b60055414156200108a576200108462000962565b620010a5565b600560008154809291906200109f9062004390565b91905055505b565b600060019054906101000a900460ff16620010d15760008054906101000a900460ff1615620010dc565b620010db62002ce5565b5b6200111e576040517f08c379a0000000000000000000000000000000000000000000000000000000008152600401620011159062003d65565b60405180910390fd5b60008060019054906101000a900460ff1615905080156200116f576001600060016101000a81548160ff02191690831515021790555060016000806101000a81548160ff0219169083151502179055505b8b8b600291906200118292919062002de1565b50600860038190555086600660006101000a81548173ffffffffffffffffffffffffffffffffffffffff021916908373ffffffffffffffffffffffffffffffffffffffff160217905550896004819055506000600760146101000a81548160ff0219169083151502179055506000600760156101000a81548160ff02191690831515021790555087601160006101000a81548173ffffffffffffffffffffffffffffffffffffffff021916908373ffffffffffffffffffffffffffffffffffffffff16021790555081601360006101000a81548173ffffffffffffffffffffffffffffffffffffffff021916908373ffffffffffffffffffffffffffffffffffffffff160217905550886040516200129a9062002e72565b620012a6919062003bb8565b604051809103906000f080158015620012c3573d6000803e3d6000fd5b50601260006101000a81548173ffffffffffffffffffffffffffffffffffffffff021916908373ffffffffffffffffffffffffffffffffffffffff16021790555085601560006101000a81548173ffffffffffffffffffffffffffffffffffffffff021916908373ffffffffffffffffffffffffffffffffffffffff16021790555084601460006101000a81548173ffffffffffffffffffffffffffffffffffffffff021916908373ffffffffffffffffffffffffffffffffffffffff16021790555082600760006101000a81548173ffffffffffffffffffffffffffffffffffffffff021916908373ffffffffffffffffffffffffffffffffffffffff16021790555083601660006101000a81548173ffffffffffffffffffffffffffffffffffffffff021916908373ffffffffffffffffffffffffffffffffffffffff160217905550620014486040518060400160405280601281526020017f50726f787920696e697469616c697a656421000000000000000000000000000081525062002cf8565b80156200146a5760008060016101000a81548160ff0219169083151502179055505b505050505050505050505050565b60055481565b60045481565b600760159054906101000a900460ff1615620014d7576040517f08c379a0000000000000000000000000000000000000000000000000000000008152600401620014ce9062003d43565b60405180910390fd5b600c60003373ffffffffffffffffffffffffffffffffffffffff1673ffffffffffffffffffffffffffffffffffffffff16815260200190815260200160002060009054906101000a900460ff1662001566576040517f08c379a00000000000000000000000000000000000000000000000000000000081526004016200155d9062003dcb565b60405180910390fd5b60005b600a60003373ffffffffffffffffffffffffffffffffffffffff1673ffffffffffffffffffffffffffffffffffffffff168152602001908152602001600020506005811015620016615760086000600a60003373ffffffffffffffffffffffffffffffffffffffff1673ffffffffffffffffffffffffffffffffffffffff16815260200190815260200160002083600581106200160b576200160a6200446b565b5b01548152602001908152602001600020600554600881106200163257620016316200446b565b5b0160008154809291906200164690620042d7565b91905055508080620016589062004390565b91505062001569565b5060005b6005811015620016e257600860008383600581106200168957620016886200446b565b5b6020020151815260200190815260200160002060055460088110620016b357620016b26200446b565b5b016000815480929190620016c79062004390565b91905055508080620016d99062004390565b91505062001665565b5060005b600581101562001817576000601660009054906101000a900473ffffffffffffffffffffffffffffffffffffffff1673ffffffffffffffffffffffffffffffffffffffff1662fdd58e338585600581106200174657620017456200446b565b5b60200201516040518363ffffffff1660e01b81526004016200176a92919062003a77565b60206040518083038186803b1580156200178357600080fd5b505afa15801562001798573d6000803e3d6000fd5b505050506040513d601f19601f82011682018060405250810190620017be919062003310565b1162001801576040517f08c379a0000000000000000000000000000000000000000000000000000000008152600401620017f89062003e0f565b60405180910390fd5b80806200180e9062004390565b915050620016e6565b5060005b6005811015620018fa57600a8162001834919062004137565b8282600581106200184a57620018496200446b565b5b602002015110158015620018a257506001600a6001836200186c9190620040a2565b62001878919062004137565b62001884919062004198565b8282600581106200189a57620018996200446b565b5b602002015111155b620018e4576040517f08c379a0000000000000000000000000000000000000000000000000000000008152600401620018db9062003d21565b60405180910390fd5b8080620018f19062004390565b9150506200181b565b5080600a60003373ffffffffffffffffffffffffffffffffffffffff1673ffffffffffffffffffffffffffffffffffffffff1681526020019081526020016000209060056200194b92919062002e80565b5050565b600760149054906101000a900460ff1681565b6000600660009054906101000a900473ffffffffffffffffffffffffffffffffffffffff16905090565b600660009054906101000a900473ffffffffffffffffffffffffffffffffffffffff1673ffffffffffffffffffffffffffffffffffffffff163373ffffffffffffffffffffffffffffffffffffffff161462001a1f576040517f08c379a000000000000000000000000000000000000000000000000000000000815260040162001a169062003d87565b60405180910390fd5b601260009054906101000a900473ffffffffffffffffffffffffffffffffffffffff1673ffffffffffffffffffffffffffffffffffffffff16637b9417c8826040518263ffffffff1660e01b815260040162001a7c919062003a1d565b602060405180830381600087803b15801562001a9757600080fd5b505af115801562001aac573d6000803e3d6000fd5b505050506040513d601f19601f8201168201806040525081019062001ad2919062003192565b5050565b60035481565b6002805462001aeb9062004306565b80601f016020809104026020016040519081016040528092919081815260200182805462001b199062004306565b801562001b6a5780601f1062001b3e5761010080835404028352916020019162001b6a565b820191906000526020600020905b81548152906001019060200180831162001b4c57829003601f168201915b505050505081565b601260009054906101000a900473ffffffffffffffffffffffffffffffffffffffff1681565b600660009054906101000a900473ffffffffffffffffffffffffffffffffffffffff1673ffffffffffffffffffffffffffffffffffffffff163373ffffffffffffffffffffffffffffffffffffffff161462001c2b576040517f08c379a000000000000000000000000000000000000000000000000000000000815260040162001c229062003d87565b60405180910390fd5b600760149054906101000a900460ff161562001c7e576040517f08c379a000000000000000000000000000000000000000000000000000000000815260040162001c759062003ded565b60405180910390fd5b601260009054906101000a900473ffffffffffffffffffffffffffffffffffffffff1673ffffffffffffffffffffffffffffffffffffffff1663286dd3f5826040518263ffffffff1660e01b815260040162001cdb919062003a1d565b602060405180830381600087803b15801562001cf657600080fd5b505af115801562001d0b573d6000803e3d6000fd5b505050506040513d601f19601f8201168201806040525081019062001d31919062003192565b5050565b600c6020528060005260406000206000915054906101000a900460ff1681565b600760009054906101000a900473ffffffffffffffffffffffffffffffffffffffff1673ffffffffffffffffffffffffffffffffffffffff163373ffffffffffffffffffffffffffffffffffffffff161462001de8576040517f08c379a000000000000000000000000000000000000000000000000000000000815260040162001ddf9062003da9565b60405180910390fd5b6000600760156101000a81548160ff021916908315150217905550565b601560009054906101000a900473ffffffffffffffffffffffffffffffffffffffff1681565b600760159054906101000a900460ff161562001e7e576040517f08c379a000000000000000000000000000000000000000000000000000000000815260040162001e759062003d43565b60405180910390fd5b600c60003373ffffffffffffffffffffffffffffffffffffffff1673ffffffffffffffffffffffffffffffffffffffff16815260200190815260200160002060009054906101000a900460ff1662001f0d576040517f08c379a000000000000000000000000000000000000000000000000000000000815260040162001f049062003dcb565b60405180910390fd5b6000601660009054906101000a900473ffffffffffffffffffffffffffffffffffffffff1673ffffffffffffffffffffffffffffffffffffffff1662fdd58e33856040518363ffffffff1660e01b815260040162001f6d92919062003a77565b60206040518083038186803b15801562001f8657600080fd5b505afa15801562001f9b573d6000803e3d6000fd5b505050506040513d601f19601f8201168201806040525081019062001fc1919062003310565b1162002004576040517f08c379a000000000000000000000000000000000000000000000000000000000815260040162001ffb9062003e0f565b60405180910390fd5b600a8162002013919062004137565b82101580156200204d57506001600a600183620020319190620040a2565b6200203d919062004137565b62002049919062004198565b8211155b6200208f576040517f08c379a0000000000000000000000000000000000000000000000000000000008152600401620020869062003d21565b60405180910390fd5b81600a60003373ffffffffffffffffffffffffffffffffffffffff1673ffffffffffffffffffffffffffffffffffffffff1681526020019081526020016000208260058110620020e457620020e36200446b565b5b01819055505050565b600760009054906101000a900473ffffffffffffffffffffffffffffffffffffffff1673ffffffffffffffffffffffffffffffffffffffff163373ffffffffffffffffffffffffffffffffffffffff161462002180576040517f08c379a0000000000000000000000000000000000000000000000000000000008152600401620021779062003da9565b60405180910390fd5b6001600760156101000a81548160ff021916908315150217905550565b60026001541415620021e6576040517f08c379a0000000000000000000000000000000000000000000000000000000008152600401620021dd9062003e31565b60405180910390fd5b6002600181905550601260009054906101000a900473ffffffffffffffffffffffffffffffffffffffff1673ffffffffffffffffffffffffffffffffffffffff16639b19251a336040518263ffffffff1660e01b81526004016200224b919062003a1d565b60206040518083038186803b1580156200226457600080fd5b505afa15801562002279573d6000803e3d6000fd5b505050506040513d601f19601f820116820180604052508101906200229f919062003192565b806200234b5750601260009054906101000a900473ffffffffffffffffffffffffffffffffffffffff1673ffffffffffffffffffffffffffffffffffffffff1663dc9a15356040518163ffffffff1660e01b815260040160206040518083038186803b1580156200230f57600080fd5b505afa15801562002324573d6000803e3d6000fd5b505050506040513d601f19601f820116820180604052508101906200234a919062003192565b5b80620023a45750600660009054906101000a900473ffffffffffffffffffffffffffffffffffffffff1673ffffffffffffffffffffffffffffffffffffffff163373ffffffffffffffffffffffffffffffffffffffff16145b620023e6576040517f08c379a0000000000000000000000000000000000000000000000000000000008152600401620023dd9062003cdd565b60405180910390fd5b600760149054906101000a900460ff161562002439576040517f08c379a0000000000000000000000000000000000000000000000000000000008152600401620024309062003e53565b60405180910390fd5b600c60003373ffffffffffffffffffffffffffffffffffffffff1673ffffffffffffffffffffffffffffffffffffffff16815260200190815260200160002060009054906101000a900460ff1615620024c9576040517f08c379a0000000000000000000000000000000000000000000000000000000008152600401620024c09062003cff565b60405180910390fd5b600454601560009054906101000a900473ffffffffffffffffffffffffffffffffffffffff1673ffffffffffffffffffffffffffffffffffffffff166370a08231336040518263ffffffff1660e01b815260040162002529919062003a1d565b60206040518083038186803b1580156200254257600080fd5b505afa15801562002557573d6000803e3d6000fd5b505050506040513d601f19601f820116820180604052508101906200257d919062003310565b11620025c0576040517f08c379a0000000000000000000000000000000000000000000000000000000008152600401620025b79062003cbb565b60405180910390fd5b601260009054906101000a900473ffffffffffffffffffffffffffffffffffffffff1673ffffffffffffffffffffffffffffffffffffffff1663dc9a15356040518163ffffffff1660e01b815260040160206040518083038186803b1580156200262957600080fd5b505afa1580156200263e573d6000803e3d6000fd5b505050506040513d601f19601f8201168201806040525081019062002664919062003192565b15620026fc57601360009054906101000a900473ffffffffffffffffffffffffffffffffffffffff1673ffffffffffffffffffffffffffffffffffffffff1663771bd4ce336040518263ffffffff1660e01b8152600401620026c7919062003a1d565b600060405180830381600087803b158015620026e257600080fd5b505af1158015620026f7573d6000803e3d6000fd5b505050505b6001600c60003373ffffffffffffffffffffffffffffffffffffffff1673ffffffffffffffffffffffffffffffffffffffff16815260200190815260200160002060006101000a81548160ff021916908315150217905550600d339080600181540180825580915050600190039060005260206000200160009091909190916101000a81548173ffffffffffffffffffffffffffffffffffffffff021916908373ffffffffffffffffffffffffffffffffffffffff1602179055506040518060a00160405280606460ff168152602001606460ff168152602001606460ff168152602001606460ff168152602001606460ff16815250600a60003373ffffffffffffffffffffffffffffffffffffffff1673ffffffffffffffffffffffffffffffffffffffff1681526020019081526020016000209060056200284192919062002ec5565b50601560009054906101000a900473ffffffffffffffffffffffffffffffffffffffff1673ffffffffffffffffffffffffffffffffffffffff166323b872dd33306004546040518463ffffffff1660e01b8152600401620028a59392919062003a3a565b602060405180830381600087803b158015620028c057600080fd5b505af1158015620028d5573d6000803e3d6000fd5b505050506040513d601f19601f82011682018060405250810190620028fb919062003192565b507f9f9e4044c5742cca66ca090b21552bac14645e68bad7a92364a9d9ff18111a1c3360045430604051620029339392919062003aa4565b60405180910390a160018081905550565b600a60205281600052604060002081600581106200296157600080fd5b01600091509150505481565b600760009054906101000a900473ffffffffffffffffffffffffffffffffffffffff1673ffffffffffffffffffffffffffffffffffffffff163373ffffffffffffffffffffffffffffffffffffffff161462002a00576040517f08c379a0000000000000000000000000000000000000000000000000000000008152600401620029f79062003da9565b60405180910390fd5b6001600760146101000a81548160ff021916908315150217905550565b62002a2762002f0f565b600a60008373ffffffffffffffffffffffffffffffffffffffff1673ffffffffffffffffffffffffffffffffffffffff16815260200190815260200160002060058060200260405190810160405280929190826005801562002a9f576020028201915b81548152602001906001019080831162002a8a575b50505050509050919050565b6000600d828154811062002ac45762002ac36200446b565b5b9060005260206000200160009054906101000a900473ffffffffffffffffffffffffffffffffffffffff169050919050565b600660009054906101000a900473ffffffffffffffffffffffffffffffffffffffff1681565b62002b2662002f31565b600960003373ffffffffffffffffffffffffffffffffffffffff1673ffffffffffffffffffffffffffffffffffffffff16815260200190815260200160002060088060200260405190810160405280929190826008801562002b9e576020028201915b81548152602001906001019080831162002b89575b5050505050905090565b62002c428160405160240162002bbf919062003a1d565b6040516020818303038152906040527f2c2ecbc2000000000000000000000000000000000000000000000000000000007bffffffffffffffffffffffffffffffffffffffffffffffffffffffff19166020820180517bffffffffffffffffffffffffffffffffffffffffffffffffffffffff838183161783525050505062002d95565b50565b62002ce1828260405160240162002c5e92919062003c87565b6040516020818303038152906040527f9710a9d0000000000000000000000000000000000000000000000000000000007bffffffffffffffffffffffffffffffffffffffffffffffffffffffff19166020820180517bffffffffffffffffffffffffffffffffffffffffffffffffffffffff838183161783525050505062002d95565b5050565b600062002cf23062002dbe565b15905090565b62002d928160405160240162002d0f919062003c63565b6040516020818303038152906040527f41304fac000000000000000000000000000000000000000000000000000000007bffffffffffffffffffffffffffffffffffffffffffffffffffffffff19166020820180517bffffffffffffffffffffffffffffffffffffffffffffffffffffffff838183161783525050505062002d95565b50565b60008151905060006a636f6e736f6c652e6c6f679050602083016000808483855afa5050505050565b6000808273ffffffffffffffffffffffffffffffffffffffff163b119050919050565b82805462002def9062004306565b90600052602060002090601f01602090048101928262002e13576000855562002e5f565b82601f1062002e2e57803560ff191683800117855562002e5f565b8280016001018555821562002e5f579182015b8281111562002e5e57823582559160200191906001019062002e41565b5b50905062002e6e919062002f54565b5090565b611114806200485d83390190565b826005810192821562002eb2579160200282015b8281111562002eb157825182559160200191906001019062002e94565b5b50905062002ec1919062002f54565b5090565b826005810192821562002efc579160200282015b8281111562002efb578251829060ff1690559160200191906001019062002ed9565b5b50905062002f0b919062002f54565b5090565b6040518060a00160405280600590602082028036833780820191505090505090565b604051806101000160405280600890602082028036833780820191505090505090565b5b8082111562002f6f57600081600090555060010162002f55565b5090565b600062002f8a62002f848462003f28565b62003eff565b9050808285602086028201111562002fa75762002fa6620044e8565b5b60005b8581101562002fdb578162002fc08882620030b9565b84526020840193506020830192505060018101905062002faa565b5050509392505050565b60008135905062002ff6816200480e565b92915050565b600082601f830112620030145762003013620044e3565b5b60056200302384828562002f73565b91505092915050565b6000813590506200303d8162004828565b92915050565b600081519050620030548162004828565b92915050565b60008083601f840112620030735762003072620044e3565b5b8235905067ffffffffffffffff811115620030935762003092620044de565b5b602083019150836001820283011115620030b257620030b1620044e8565b5b9250929050565b600081359050620030ca8162004842565b92915050565b600081519050620030e18162004842565b92915050565b6000602082840312156200310057620030ff620044f2565b5b6000620031108482850162002fe5565b91505092915050565b60008060408385031215620031335762003132620044f2565b5b6000620031438582860162002fe5565b92505060206200315685828601620030b9565b9150509250929050565b600060a08284031215620031795762003178620044f2565b5b6000620031898482850162002ffc565b91505092915050565b600060208284031215620031ab57620031aa620044f2565b5b6000620031bb8482850162003043565b91505092915050565b60008060008060008060008060008060006101408c8e031215620031ed57620031ec620044f2565b5b60008c013567ffffffffffffffff8111156200320e576200320d620044ed565b5b6200321c8e828f016200305a565b9b509b50506020620032318e828f01620030b9565b9950506040620032448e828f016200302c565b9850506060620032578e828f0162002fe5565b97505060806200326a8e828f0162002fe5565b96505060a06200327d8e828f0162002fe5565b95505060c0620032908e828f0162002fe5565b94505060e0620032a38e828f0162002fe5565b935050610100620032b78e828f0162002fe5565b925050610120620032cb8e828f0162002fe5565b9150509295989b509295989b9093969950565b600060208284031215620032f757620032f6620044f2565b5b60006200330784828501620030b9565b91505092915050565b600060208284031215620033295762003328620044f2565b5b60006200333984828501620030d0565b91505092915050565b600080604083850312156200335c576200335b620044f2565b5b60006200336c85828601620030b9565b92505060206200337f85828601620030b9565b9150509250929050565b6000620033978383620033f1565b60208301905092915050565b6000620033b1838362003413565b60208301905092915050565b6000620033cb8383620039cc565b60408301905092915050565b6000620033e58383620039ea565b60208301905092915050565b620033fc81620041f3565b82525050565b6200340d81620041f3565b82525050565b6200341e81620041f3565b82525050565b6200342f8162003fa9565b6200343b81846200402c565b9250620034488262003f51565b8060005b838110156200347f57815162003463878262003389565b9650620034708362003feb565b9250506001810190506200344c565b505050505050565b6000620034948262003fb4565b620034a0818562004037565b9350620034ad8362003f5b565b8060005b83811015620034ed57620034c582620044c9565b620034d1888262003389565b9750620034de8362003ff8565b925050600181019050620034b1565b5085935050505092915050565b6000620035078262003fb4565b62003513818562004048565b9350620035208362003f5b565b8060005b8381101562003560576200353882620044c9565b620035448882620033a3565b9750620035518362003ff8565b92505060018101905062003524565b5085935050505092915050565b8082525050565b6000620035818262003fbf565b6200358d818562004059565b93506200359a8362003f70565b8060005b83811015620035d1578151620035b58882620033bd565b9750620035c28362004005565b9250506001810190506200359e565b5085935050505092915050565b620035e98162003fca565b620035f581846200406a565b9250620036028262003f80565b8060005b83811015620036395781516200361d8782620033d7565b96506200362a8362004012565b92505060018101905062003606565b505050505050565b6200364c8162003fd5565b62003658818462004075565b9250620036658262003f8a565b8060005b838110156200369c578151620036808782620033d7565b96506200368d836200401f565b92505060018101905062003669565b505050505050565b620036af8162004207565b82525050565b620036c0816200423d565b82525050565b620036d18162004251565b82525050565b620036e28162004265565b82525050565b8082525050565b8082525050565b8082525050565b8082525050565b6000620037118262003fe0565b6200371d818562004080565b93506200372f818560208601620042a1565b6200373a81620044f7565b840191505092915050565b60008154620037548162004306565b62003760818662004091565b945060018216600081146200377e57600181146200379157620037c8565b60ff1983168652602086019350620037c8565b6200379c8562003f94565b60005b83811015620037c0578154818901526001820191506020810190506200379f565b808801955050505b50505092915050565b6000620037e0601d8362004080565b9150620037ed8262004515565b602082019050919050565b60006200380760188362004080565b915062003814826200453e565b602082019050919050565b60006200382e60238362004080565b91506200383b8262004567565b604082019050919050565b60006200385560318362004080565b91506200386282620045b6565b604082019050919050565b60006200387c601e8362004080565b9150620038898262004605565b602082019050919050565b6000620038a3602e8362004080565b9150620038b0826200462e565b604082019050919050565b6000620038ca60178362004080565b9150620038d7826200467d565b602082019050919050565b6000620038f160168362004080565b9150620038fe82620046a6565b602082019050919050565b60006200391860168362004080565b91506200392582620046cf565b602082019050919050565b60006200393f60418362004080565b91506200394c82620046f8565b606082019050919050565b60006200396660248362004080565b915062003973826200476d565b604082019050919050565b60006200398d601f8362004080565b91506200399a82620047bc565b602082019050919050565b6000620039b460178362004080565b9150620039c182620047e5565b602082019050919050565b604082016000820151620039e4600085018262003424565b50505050565b620039f58162004233565b82525050565b62003a068162004233565b82525050565b62003a178162004233565b82525050565b600060208201905062003a34600083018462003402565b92915050565b600060608201905062003a51600083018662003402565b62003a60602083018562003402565b62003a6f6040830184620039fb565b949350505050565b600060408201905062003a8e600083018562003402565b62003a9d6020830184620039fb565b9392505050565b600060608201905062003abb600083018662003402565b62003aca6020830185620039fb565b62003ad9604083018462003402565b949350505050565b6000606082019050818103600083015262003afd8186620034fa565b905062003b0e6020830185620036f6565b62003b1d60408301846200356d565b949350505050565b6000604082019050818103600083015262003b41818562003487565b905062003b526020830184620039fb565b9392505050565b6000602082019050818103600083015262003b75818462003574565b905092915050565b600060a08201905062003b946000830184620035de565b92915050565b60006101008201905062003bb2600083018462003641565b92915050565b600060208201905062003bcf6000830184620036a4565b92915050565b600060208201905062003bec6000830184620036c6565b92915050565b600060208201905062003c096000830184620036d7565b92915050565b600060808201905062003c266000830187620036fd565b62003c3560208301866200356d565b62003c44604083018562003a0c565b818103606083015262003c58818462003745565b905095945050505050565b6000602082019050818103600083015262003c7f818462003704565b905092915050565b6000604082019050818103600083015262003ca3818562003704565b905062003cb46020830184620039fb565b9392505050565b6000602082019050818103600083015262003cd681620037d1565b9050919050565b6000602082019050818103600083015262003cf881620037f8565b9050919050565b6000602082019050818103600083015262003d1a816200381f565b9050919050565b6000602082019050818103600083015262003d3c8162003846565b9050919050565b6000602082019050818103600083015262003d5e816200386d565b9050919050565b6000602082019050818103600083015262003d808162003894565b9050919050565b6000602082019050818103600083015262003da281620038bb565b9050919050565b6000602082019050818103600083015262003dc481620038e2565b9050919050565b6000602082019050818103600083015262003de68162003909565b9050919050565b6000602082019050818103600083015262003e088162003930565b9050919050565b6000602082019050818103600083015262003e2a8162003957565b9050919050565b6000602082019050818103600083015262003e4c816200397e565b9050919050565b6000602082019050818103600083015262003e6e81620039a5565b9050919050565b600060208201905062003e8c6000830184620039fb565b92915050565b600060c08201905062003ea9600083018962003a0c565b62003eb86020830188620036b5565b62003ec76040830187620036ef565b62003ed66060830186620036e8565b62003ee56080830185620036f6565b62003ef460a0830184620036fd565b979650505050505050565b600062003f0b62003f1e565b905062003f1982826200435a565b919050565b6000604051905090565b600067ffffffffffffffff82111562003f465762003f456200449a565b5b602082029050919050565b6000819050919050565b60008190508160005260206000209050919050565b6000819050602082019050919050565b6000819050919050565b6000819050919050565b60008190508160005260206000209050919050565b600060029050919050565b600081549050919050565b600081519050919050565b600060059050919050565b600060089050919050565b600081519050919050565b6000602082019050919050565b6000600182019050919050565b6000602082019050919050565b6000602082019050919050565b6000602082019050919050565b600081905092915050565b600082825260208201905092915050565b600082825260208201905092915050565b600082825260208201905092915050565b600081905092915050565b600081905092915050565b600082825260208201905092915050565b600082825260208201905092915050565b6000620040af8262004233565b9150620040bc8362004233565b9250827fffffffffffffffffffffffffffffffffffffffffffffffffffffffffffffffff03821115620040f457620040f3620043de565b5b828201905092915050565b60006200410c8262004233565b9150620041198362004233565b9250826200412c576200412b6200440d565b5b828204905092915050565b6000620041448262004233565b9150620041518362004233565b9250817fffffffffffffffffffffffffffffffffffffffffffffffffffffffffffffffff04831182151516156200418d576200418c620043de565b5b828202905092915050565b6000620041a58262004233565b9150620041b28362004233565b925082821015620041c857620041c7620043de565b5b828203905092915050565b600073ffffffffffffffffffffffffffffffffffffffff82169050919050565b6000620042008262004213565b9050919050565b60008115159050919050565b600073ffffffffffffffffffffffffffffffffffffffff82169050919050565b6000819050919050565b60006200424a8262004279565b9050919050565b60006200425e8262004279565b9050919050565b6000620042728262004279565b9050919050565b600062004286826200428d565b9050919050565b60006200429a8262004213565b9050919050565b60005b83811015620042c1578082015181840152602081019050620042a4565b83811115620042d1576000848401525b50505050565b6000620042e48262004233565b91506000821415620042fb57620042fa620043de565b5b600182039050919050565b600060028204905060018216806200431f57607f821691505b602082108114156200433657620043356200443c565b5b50919050565b6000620043536200434d8362004508565b620041d3565b9050919050565b6200436582620044f7565b810181811067ffffffffffffffff821117156200438757620043866200449a565b5b80604052505050565b60006200439d8262004233565b91507fffffffffffffffffffffffffffffffffffffffffffffffffffffffffffffffff821415620043d357620043d2620043de565b5b600182019050919050565b7f4e487b7100000000000000000000000000000000000000000000000000000000600052601160045260246000fd5b7f4e487b7100000000000000000000000000000000000000000000000000000000600052601260045260246000fd5b7f4e487b7100000000000000000000000000000000000000000000000000000000600052602260045260246000fd5b7f4e487b7100000000000000000000000000000000000000000000000000000000600052603260045260246000fd5b7f4e487b7100000000000000000000000000000000000000000000000000000000600052604160045260246000fd5b6000620044d782546200433c565b9050919050565b600080fd5b600080fd5b600080fd5b600080fd5b600080fd5b6000601f19601f8301169050919050565b60008160001c9050919050565b7f496e737566666963656e742066756e647320666f72207374616b696e67000000600082015250565b7f55736572206973206e6f74206f6e2077686974656c6973740000000000000000600082015250565b7f596f75206861766520616c7265616479206a6f696e65642074686973206c656160008201527f6775650000000000000000000000000000000000000000000000000000000000602082015250565b7f596f75206172652073657474696e6720616e206174686c65746520696e20746860008201527f652077726f6e6720706f736974696f6e21000000000000000000000000000000602082015250565b7f6c696e657570206973206c6f636b656420666f7220746865207765656b210000600082015250565b7f496e697469616c697a61626c653a20636f6e747261637420697320616c72656160008201527f647920696e697469616c697a6564000000000000000000000000000000000000602082015250565b7f43616c6c6572206973206e6f74207468652061646d696e000000000000000000600082015250565b7f43616c6c6572206973206e6f74205465616d4469666600000000000000000000600082015250565b7f55736572206973206e6f7420696e204c65616775652e00000000000000000000600082015250565b7f4e6f626f64792063616e20656e7465722f6578697420746865206c656167756560008201527f20616e796d6f72652e2054686520736561736f6e20686173207374617274656460208201527f2100000000000000000000000000000000000000000000000000000000000000604082015250565b7f43616c6c657220646f6573206e6f74206f776e20676976656e206174686c657460008201527f6549647300000000000000000000000000000000000000000000000000000000602082015250565b7f5265656e7472616e637947756172643a207265656e7472616e742063616c6c00600082015250565b7f4c656167756520456e74727920697320436c6f73656421000000000000000000600082015250565b6200481981620041f3565b81146200482557600080fd5b50565b620048338162004207565b81146200483f57600080fd5b50565b6200484d8162004233565b81146200485957600080fd5b5056fe60806040523480156200001157600080fd5b50604051620011143803806200111483398181016040528101906200003791906200015b565b620000576200004b6200007860201b60201c565b6200008060201b60201c565b80600360006101000a81548160ff02191690831515021790555050620001b8565b600033905090565b60008060009054906101000a900473ffffffffffffffffffffffffffffffffffffffff169050816000806101000a81548173ffffffffffffffffffffffffffffffffffffffff021916908373ffffffffffffffffffffffffffffffffffffffff1602179055508173ffffffffffffffffffffffffffffffffffffffff168173ffffffffffffffffffffffffffffffffffffffff167f8be0079c531659141344cd1fd0a4f28419497f9722a3daafe3b4186f6b6457e060405160405180910390a35050565b60008151905062000155816200019e565b92915050565b60006020828403121562000174576200017362000199565b5b6000620001848482850162000144565b91505092915050565b60008115159050919050565b600080fd5b620001a9816200018d565b8114620001b557600080fd5b50565b610f4c80620001c86000396000f3fe608060405234801561001057600080fd5b50600436106100a95760003560e01c80638da5cb5b116100715780638da5cb5b146101665780639b19251a14610184578063dc9a1535146101b4578063e2ec6ec3146101d2578063e35a899914610202578063f2fde38b14610232576100a9565b806324953eaa146100ae578063286dd3f5146100de57806344eaa84e1461010e578063715018a61461012c5780637b9417c814610136575b600080fd5b6100c860048036038101906100c39190610ada565b61024e565b6040516100d59190610bb1565b60405180910390f35b6100f860048036038101906100f39190610aad565b61031e565b6040516101059190610bb1565b60405180910390f35b6101166104a1565b6040516101239190610c0c565b60405180910390f35b6101346104ab565b005b610150600480360381019061014b9190610aad565b610533565b60405161015d9190610bb1565b60405180910390f35b61016e6106b4565b60405161017b9190610b96565b60405180910390f35b61019e60048036038101906101999190610aad565b6106dd565b6040516101ab9190610bb1565b60405180910390f35b6101bc6106fd565b6040516101c99190610bb1565b60405180910390f35b6101ec60048036038101906101e79190610ada565b610710565b6040516101f99190610bb1565b60405180910390f35b61021c60048036038101906102179190610aad565b6107e0565b6040516102299190610bb1565b60405180910390f35b61024c60048036038101906102479190610aad565b610836565b005b600061025861092e565b73ffffffffffffffffffffffffffffffffffffffff166102766106b4565b73ffffffffffffffffffffffffffffffffffffffff16146102cc576040517f08c379a00000000000000000000000000000000000000000000000000000000081526004016102c390610bec565b60405180910390fd5b60005b8251811015610318576102fb8382815181106102ee576102ed610e04565b5b602002602001015161031e565b1561030557600191505b808061031090610d8c565b9150506102cf565b50919050565b600061032861092e565b73ffffffffffffffffffffffffffffffffffffffff166103466106b4565b73ffffffffffffffffffffffffffffffffffffffff161461039c576040517f08c379a000000000000000000000000000000000000000000000000000000000815260040161039390610bec565b60405180910390fd5b600160008373ffffffffffffffffffffffffffffffffffffffff1673ffffffffffffffffffffffffffffffffffffffff16815260200190815260200160002060009054906101000a900460ff161561049c576000600160008473ffffffffffffffffffffffffffffffffffffffff1673ffffffffffffffffffffffffffffffffffffffff16815260200190815260200160002060006101000a81548160ff0219169083151502179055507ff1abf01a1043b7c244d128e8595cf0c1d10743b022b03a02dffd8ca3bf729f5a826040516104759190610b96565b60405180910390a16001600260008282546104909190610cdf565b92505081905550600190505b919050565b6000600254905090565b6104b361092e565b73ffffffffffffffffffffffffffffffffffffffff166104d16106b4565b73ffffffffffffffffffffffffffffffffffffffff1614610527576040517f08c379a000000000000000000000000000000000000000000000000000000000815260040161051e90610bec565b60405180910390fd5b6105316000610936565b565b600061053d61092e565b73ffffffffffffffffffffffffffffffffffffffff1661055b6106b4565b73ffffffffffffffffffffffffffffffffffffffff16146105b1576040517f08c379a00000000000000000000000000000000000000000000000000000000081526004016105a890610bec565b60405180910390fd5b600160008373ffffffffffffffffffffffffffffffffffffffff1673ffffffffffffffffffffffffffffffffffffffff16815260200190815260200160002060009054906101000a900460ff166106af5760018060008473ffffffffffffffffffffffffffffffffffffffff1673ffffffffffffffffffffffffffffffffffffffff16815260200190815260200160002060006101000a81548160ff0219169083151502179055507fd1bba68c128cc3f427e5831b3c6f99f480b6efa6b9e80c757768f6124158cc3f826040516106889190610b96565b60405180910390a16001600260008282546106a39190610c89565b92505081905550600190505b919050565b60008060009054906101000a900473ffffffffffffffffffffffffffffffffffffffff16905090565b60016020528060005260406000206000915054906101000a900460ff1681565b600360009054906101000a900460ff1681565b600061071a61092e565b73ffffffffffffffffffffffffffffffffffffffff166107386106b4565b73ffffffffffffffffffffffffffffffffffffffff161461078e576040517f08c379a000000000000000000000000000000000000000000000000000000000815260040161078590610bec565b60405180910390fd5b60005b82518110156107da576107bd8382815181106107b0576107af610e04565b5b6020026020010151610533565b156107c757600191505b80806107d290610d8c565b915050610791565b50919050565b6000600160008373ffffffffffffffffffffffffffffffffffffffff1673ffffffffffffffffffffffffffffffffffffffff16815260200190815260200160002060009054906101000a900460ff169050919050565b61083e61092e565b73ffffffffffffffffffffffffffffffffffffffff1661085c6106b4565b73ffffffffffffffffffffffffffffffffffffffff16146108b2576040517f08c379a00000000000000000000000000000000000000000000000000000000081526004016108a990610bec565b60405180910390fd5b600073ffffffffffffffffffffffffffffffffffffffff168173ffffffffffffffffffffffffffffffffffffffff161415610922576040517f08c379a000000000000000000000000000000000000000000000000000000000815260040161091990610bcc565b60405180910390fd5b61092b81610936565b50565b600033905090565b60008060009054906101000a900473ffffffffffffffffffffffffffffffffffffffff169050816000806101000a81548173ffffffffffffffffffffffffffffffffffffffff021916908373ffffffffffffffffffffffffffffffffffffffff1602179055508173ffffffffffffffffffffffffffffffffffffffff168173ffffffffffffffffffffffffffffffffffffffff167f8be0079c531659141344cd1fd0a4f28419497f9722a3daafe3b4186f6b6457e060405160405180910390a35050565b6000610a0d610a0884610c4c565b610c27565b90508083825260208201905082856020860282011115610a3057610a2f610e67565b5b60005b85811015610a605781610a468882610a6a565b845260208401935060208301925050600181019050610a33565b5050509392505050565b600081359050610a7981610eff565b92915050565b600082601f830112610a9457610a93610e62565b5b8135610aa48482602086016109fa565b91505092915050565b600060208284031215610ac357610ac2610e71565b5b6000610ad184828501610a6a565b91505092915050565b600060208284031215610af057610aef610e71565b5b600082013567ffffffffffffffff811115610b0e57610b0d610e6c565b5b610b1a84828501610a7f565b91505092915050565b610b2c81610d13565b82525050565b610b3b81610d25565b82525050565b6000610b4e602683610c78565b9150610b5982610e87565b604082019050919050565b6000610b71602083610c78565b9150610b7c82610ed6565b602082019050919050565b610b9081610d51565b82525050565b6000602082019050610bab6000830184610b23565b92915050565b6000602082019050610bc66000830184610b32565b92915050565b60006020820190508181036000830152610be581610b41565b9050919050565b60006020820190508181036000830152610c0581610b64565b9050919050565b6000602082019050610c216000830184610b87565b92915050565b6000610c31610c42565b9050610c3d8282610d5b565b919050565b6000604051905090565b600067ffffffffffffffff821115610c6757610c66610e33565b5b602082029050602081019050919050565b600082825260208201905092915050565b6000610c9482610d51565b9150610c9f83610d51565b9250827fffffffffffffffffffffffffffffffffffffffffffffffffffffffffffffffff03821115610cd457610cd3610dd5565b5b828201905092915050565b6000610cea82610d51565b9150610cf583610d51565b925082821015610d0857610d07610dd5565b5b828203905092915050565b6000610d1e82610d31565b9050919050565b60008115159050919050565b600073ffffffffffffffffffffffffffffffffffffffff82169050919050565b6000819050919050565b610d6482610e76565b810181811067ffffffffffffffff82111715610d8357610d82610e33565b5b80604052505050565b6000610d9782610d51565b91507fffffffffffffffffffffffffffffffffffffffffffffffffffffffffffffffff821415610dca57610dc9610dd5565b5b600182019050919050565b7f4e487b7100000000000000000000000000000000000000000000000000000000600052601160045260246000fd5b7f4e487b7100000000000000000000000000000000000000000000000000000000600052603260045260246000fd5b7f4e487b7100000000000000000000000000000000000000000000000000000000600052604160045260246000fd5b600080fd5b600080fd5b600080fd5b600080fd5b6000601f19601f8301169050919050565b7f4f776e61626c653a206e6577206f776e657220697320746865207a65726f206160008201527f6464726573730000000000000000000000000000000000000000000000000000602082015250565b7f4f776e61626c653a2063616c6c6572206973206e6f7420746865206f776e6572600082015250565b610f0881610d13565b8114610f1357600080fd5b5056fea2646970667358221220d9b559c67c9c95c9212a7622f5c7dc9fab9234f044c42f52ae92caa64e6b8af364736f6c63430008070033a264697066735822122056ebb7d7cc4f3d0d83ae7857c63c9145ab353c2db6850dc8c595f36a71330db164736f6c63430008070033",
  "linkReferences": {
    "contracts/MOBALogicLibrary.sol": {
      "MOBALogicLibrary": [
        {
          "length": 20,
          "start": 2282
        },
        {
          "length": 20,
          "start": 2615
        },
        {
          "length": 20,
          "start": 4075
        }
      ]
    }
  },
  "deployedLinkReferences": {
    "contracts/MOBALogicLibrary.sol": {
      "MOBALogicLibrary": [
        {
          "length": 20,
          "start": 2243
        },
        {
          "length": 20,
          "start": 2576
        },
        {
          "length": 20,
          "start": 4036
        }
      ]
    }
  }
}