{
  "_format": "hh-sol-artifact-1",
  "contractName": "LeagueOfLegendsLogic",
  "sourceName": "contracts/LeagueOfLegendsLogic.sol",
  "abi": [
    {
      "anonymous": false,
      "inputs": [
        {
          "indexed": false,
          "internalType": "address",
          "name": "sender",
          "type": "address"
        },
        {
          "indexed": false,
          "internalType": "uint256",
          "name": "id",
          "type": "uint256"
        },
        {
          "indexed": false,
          "internalType": "uint256",
          "name": "position",
          "type": "uint256"
        }
      ],
      "name": "AthleteSetInLineup",
      "type": "event"
    },
    {
      "anonymous": false,
      "inputs": [
        {
          "indexed": false,
          "internalType": "address",
          "name": "sender",
          "type": "address"
        },
        {
          "indexed": false,
          "internalType": "uint256",
          "name": "amount",
          "type": "uint256"
        },
        {
          "indexed": false,
          "internalType": "address",
          "name": "leagueAddress",
          "type": "address"
        }
      ],
      "name": "Staked",
      "type": "event"
    },
    {
      "anonymous": false,
      "inputs": [
        {
          "indexed": false,
          "internalType": "address[]",
          "name": "winner",
          "type": "address[]"
        },
        {
          "indexed": false,
          "internalType": "uint256",
          "name": "prizePotPerWinner",
          "type": "uint256"
        }
      ],
      "name": "leagueEnded",
      "type": "event"
    },
    {
      "anonymous": false,
      "inputs": [
        {
          "indexed": false,
          "internalType": "address",
          "name": "sender",
          "type": "address"
        },
        {
          "indexed": false,
          "internalType": "address",
          "name": "contractAddress",
          "type": "address"
        }
      ],
      "name": "testUSDCDeployed",
      "type": "event"
    },
    {
      "inputs": [
        {
          "internalType": "address",
          "name": "_userToAdd",
          "type": "address"
        }
      ],
      "name": "addUserToWhitelist",
      "outputs": [],
      "stateMutability": "nonpayable",
      "type": "function"
    },
    {
      "inputs": [],
      "name": "admin",
      "outputs": [
        {
          "internalType": "address",
          "name": "",
          "type": "address"
        }
      ],
      "stateMutability": "view",
      "type": "function"
    },
    {
      "inputs": [],
      "name": "currentWeekNum",
      "outputs": [
        {
          "internalType": "uint256",
          "name": "",
          "type": "uint256"
        }
      ],
      "stateMutability": "view",
      "type": "function"
    },
    {
      "inputs": [],
      "name": "erc20",
      "outputs": [
        {
          "internalType": "contract IERC20",
          "name": "",
          "type": "address"
        }
      ],
      "stateMutability": "view",
      "type": "function"
    },
    {
      "inputs": [],
      "name": "evaluateMatches",
      "outputs": [],
      "stateMutability": "nonpayable",
      "type": "function"
    },
    {
      "inputs": [],
      "name": "getAdmin",
      "outputs": [
        {
          "internalType": "address",
          "name": "",
          "type": "address"
        }
      ],
      "stateMutability": "view",
      "type": "function"
    },
    {
      "inputs": [],
      "name": "getContractUSDCBalance",
      "outputs": [
        {
          "internalType": "uint256",
          "name": "",
          "type": "uint256"
        }
      ],
      "stateMutability": "view",
      "type": "function"
    },
    {
      "inputs": [
        {
          "internalType": "uint256",
          "name": "index",
          "type": "uint256"
        }
      ],
      "name": "getLeagueMember",
      "outputs": [
        {
          "internalType": "address",
          "name": "",
          "type": "address"
        }
      ],
      "stateMutability": "view",
      "type": "function"
    },
    {
      "inputs": [],
      "name": "getLeagueMembersLength",
      "outputs": [
        {
          "internalType": "uint256",
          "name": "",
          "type": "uint256"
        }
      ],
      "stateMutability": "view",
      "type": "function"
    },
    {
      "inputs": [],
      "name": "getLineupIsLocked",
      "outputs": [
        {
          "internalType": "bool",
          "name": "",
          "type": "bool"
        }
      ],
      "stateMutability": "view",
      "type": "function"
    },
    {
      "inputs": [
        {
          "internalType": "uint256",
          "name": "_week",
          "type": "uint256"
        }
      ],
      "name": "getScheduleForWeek",
      "outputs": [
        {
          "components": [
            {
              "internalType": "address[2]",
              "name": "players",
              "type": "address[2]"
            }
          ],
          "internalType": "struct LeagueOfLegendsLogic.Matchup[]",
          "name": "",
          "type": "tuple[]"
        }
      ],
      "stateMutability": "view",
      "type": "function"
    },
    {
      "inputs": [
        {
          "internalType": "address",
          "name": "_user",
          "type": "address"
        }
      ],
      "name": "getUserLineup",
      "outputs": [
        {
          "internalType": "uint256[5]",
          "name": "",
          "type": "uint256[5]"
        }
      ],
      "stateMutability": "view",
      "type": "function"
    },
    {
      "inputs": [
        {
          "internalType": "address",
          "name": "_user",
          "type": "address"
        }
      ],
      "name": "getUserPoints",
      "outputs": [
        {
          "internalType": "uint256",
          "name": "",
          "type": "uint256"
        }
      ],
      "stateMutability": "view",
      "type": "function"
    },
    {
      "inputs": [
        {
          "internalType": "address",
          "name": "_user",
          "type": "address"
        }
      ],
      "name": "getUserRecord",
      "outputs": [
        {
          "internalType": "uint256[8]",
          "name": "",
          "type": "uint256[8]"
        }
      ],
      "stateMutability": "view",
      "type": "function"
    },
    {
      "inputs": [
        {
          "internalType": "address",
          "name": "_user",
          "type": "address"
        }
      ],
      "name": "getUserWeekScore",
      "outputs": [
        {
          "internalType": "uint256[8]",
          "name": "",
          "type": "uint256[8]"
        }
      ],
      "stateMutability": "view",
      "type": "function"
    },
    {
      "inputs": [
        {
          "internalType": "address",
          "name": "",
          "type": "address"
        }
      ],
      "name": "inLeague",
      "outputs": [
        {
          "internalType": "bool",
          "name": "",
          "type": "bool"
        }
      ],
      "stateMutability": "view",
      "type": "function"
    },
    {
      "inputs": [
        {
          "internalType": "string",
          "name": "_name",
          "type": "string"
        },
        {
          "internalType": "uint256",
          "name": "_stakeAmount",
          "type": "uint256"
        },
        {
          "internalType": "bool",
          "name": "_isPublic",
          "type": "bool"
        },
        {
          "internalType": "address",
          "name": "athletesDataStorageAddress",
          "type": "address"
        },
        {
          "internalType": "address",
          "name": "_admin",
          "type": "address"
        },
        {
          "internalType": "address",
          "name": "_ierc20Address",
          "type": "address"
        },
        {
          "internalType": "address",
          "name": "_gameItemsContractAddress",
          "type": "address"
        },
        {
          "internalType": "address",
          "name": "_teamDiffAddress",
          "type": "address"
        },
        {
          "internalType": "address",
          "name": "_leagueMakerContractAddress",
          "type": "address"
        }
      ],
      "name": "initialize",
      "outputs": [],
      "stateMutability": "nonpayable",
      "type": "function"
    },
    {
      "inputs": [],
      "name": "isPublic",
      "outputs": [
        {
          "internalType": "bool",
          "name": "",
          "type": "bool"
        }
      ],
      "stateMutability": "view",
      "type": "function"
    },
    {
      "inputs": [],
      "name": "joinLeague",
      "outputs": [],
      "stateMutability": "nonpayable",
      "type": "function"
    },
    {
      "inputs": [],
      "name": "leagueEntryIsClosed",
      "outputs": [
        {
          "internalType": "bool",
          "name": "",
          "type": "bool"
        }
      ],
      "stateMutability": "view",
      "type": "function"
    },
    {
      "inputs": [
        {
          "internalType": "uint256",
          "name": "",
          "type": "uint256"
        }
      ],
      "name": "leagueMembers",
      "outputs": [
        {
          "internalType": "address",
          "name": "",
          "type": "address"
        }
      ],
      "stateMutability": "view",
      "type": "function"
    },
    {
      "inputs": [],
      "name": "leagueName",
      "outputs": [
        {
          "internalType": "string",
          "name": "",
          "type": "string"
        }
      ],
      "stateMutability": "view",
      "type": "function"
    },
    {
      "inputs": [],
      "name": "lineupIsLocked",
      "outputs": [
        {
          "internalType": "bool",
          "name": "",
          "type": "bool"
        }
      ],
      "stateMutability": "view",
      "type": "function"
    },
    {
      "inputs": [],
      "name": "lockLineup",
      "outputs": [],
      "stateMutability": "nonpayable",
      "type": "function"
    },
    {
      "inputs": [],
      "name": "numWeeks",
      "outputs": [
        {
          "internalType": "uint256",
          "name": "",
          "type": "uint256"
        }
      ],
      "stateMutability": "view",
      "type": "function"
    },
    {
      "inputs": [],
      "name": "onLeagueEnd",
      "outputs": [],
      "stateMutability": "nonpayable",
      "type": "function"
    },
    {
      "inputs": [
        {
          "internalType": "address",
          "name": "_userToRemove",
          "type": "address"
        }
      ],
      "name": "removeFromWhitelist",
      "outputs": [],
      "stateMutability": "nonpayable",
      "type": "function"
    },
    {
      "inputs": [
        {
          "internalType": "uint256",
          "name": "athleteId",
          "type": "uint256"
        },
        {
          "internalType": "uint256",
          "name": "position",
          "type": "uint256"
        }
      ],
      "name": "setAthleteInLineup",
      "outputs": [],
      "stateMutability": "nonpayable",
      "type": "function"
    },
    {
      "inputs": [],
      "name": "setLeagueEntryIsClosed",
      "outputs": [],
      "stateMutability": "nonpayable",
      "type": "function"
    },
    {
      "inputs": [],
      "name": "setLeagueSchedule",
      "outputs": [],
      "stateMutability": "nonpayable",
      "type": "function"
    },
    {
      "inputs": [],
      "name": "stakeAmount",
      "outputs": [
        {
          "internalType": "uint256",
          "name": "",
          "type": "uint256"
        }
      ],
      "stateMutability": "view",
      "type": "function"
    },
    {
      "inputs": [],
      "name": "teamDiffAddress",
      "outputs": [
        {
          "internalType": "address",
          "name": "",
          "type": "address"
        }
      ],
      "stateMutability": "view",
      "type": "function"
    },
    {
      "inputs": [],
      "name": "unlockLineup",
      "outputs": [],
      "stateMutability": "nonpayable",
      "type": "function"
    },
    {
      "inputs": [
        {
          "internalType": "address",
          "name": "",
          "type": "address"
        },
        {
          "internalType": "uint256",
          "name": "",
          "type": "uint256"
        }
      ],
      "name": "userToLineup",
      "outputs": [
        {
          "internalType": "uint256",
          "name": "",
          "type": "uint256"
        }
      ],
      "stateMutability": "view",
      "type": "function"
    },
    {
      "inputs": [
        {
          "internalType": "address",
          "name": "",
          "type": "address"
        }
      ],
      "name": "userToPoints",
      "outputs": [
        {
          "internalType": "uint256",
          "name": "",
          "type": "uint256"
        }
      ],
      "stateMutability": "view",
      "type": "function"
    },
    {
      "inputs": [
        {
          "internalType": "address",
          "name": "",
          "type": "address"
        },
        {
          "internalType": "uint256",
          "name": "",
          "type": "uint256"
        }
      ],
      "name": "userToRecord",
      "outputs": [
        {
          "internalType": "uint256",
          "name": "",
          "type": "uint256"
        }
      ],
      "stateMutability": "view",
      "type": "function"
    },
    {
      "inputs": [
        {
          "internalType": "address",
          "name": "",
          "type": "address"
        },
        {
          "internalType": "uint256",
          "name": "",
          "type": "uint256"
        }
      ],
      "name": "userToWeekScore",
      "outputs": [
        {
          "internalType": "uint256",
          "name": "",
          "type": "uint256"
        }
      ],
      "stateMutability": "view",
      "type": "function"
    },
    {
      "inputs": [],
      "name": "whitelistContract",
      "outputs": [
        {
          "internalType": "contract Whitelist",
          "name": "",
          "type": "address"
        }
      ],
      "stateMutability": "view",
      "type": "function"
    }
  ],
  "bytecode": "0x608060405234801561001057600080fd5b5060018081905550615404806100276000396000f3fe60806040523480156200001157600080fd5b5060043610620002675760003560e01c8063785e9e86116200014d578063b47f862811620000c9578063db2a67241162000087578063db2a6724146200070a578063dc9a15351462000740578063e4c9066b1462000762578063ee90080f146200076e578063f851a44014620007a45762000267565b8063b47f86281462000666578063bc69b4271462000686578063c8be3b5b14620006bc578063c99fea9414620006c8578063cff5600314620006d45762000267565b80638ab1d68111620001175780638ab1d68114620005ae5780639122ce6d14620005ce578063989db6591462000604578063a2bc091a1462000624578063aeefe31f14620006305762000267565b8063785e9e8614620005265780637eed33f11462000548578063841abf6e146200056a57806384900b04146200058c5762000267565b80632d382ee011620001e957806363c665f711620001a757806363c665f7146200046a57806367e2efc6146200048c5780636cc15ad514620004c25780636e9960c314620004e4578063747b805014620005065762000267565b80632d382ee014620003ae578063305a578214620003e45780634adaf31b14620003f057806352e6e5f3146200042657806360c7dc4714620004485762000267565b80631d803e0011620002375780631d803e0014620002f25780631dd7f8ca14620002fe578063267175db146200032057806327311b3214620003565780632ae6b13514620003785762000267565b80622772c2146200026c5780630635dbcb146200028e5780630655465a14620002b05780630c6f795914620002bc575b600080fd5b62000276620007c6565b604051620002859190620039a9565b60405180910390f35b620002986200087e565b604051620002a7919062003720565b60405180910390f35b620002ba62000891565b005b620002da6004803603810190620002d4919062002c8d565b6200099c565b604051620002e99190620039a9565b60405180910390f35b620002fc620009c5565b005b6200030862000ded565b60405162000317919062003548565b60405180910390f35b6200033e600480360381019062000338919062002e09565b62000e13565b6040516200034d919062003548565b60405180910390f35b6200036062000e53565b6040516200036f919062003720565b60405180910390f35b62000396600480360381019062000390919062002c5b565b62000e6a565b604051620003a59190620039a9565b60405180910390f35b620003cc6004803603810190620003c6919062002e09565b62000e82565b604051620003db9190620036c1565b60405180910390f35b620003ee62000f73565b005b6200040e600480360381019062000408919062002c5b565b620010ee565b6040516200041d919062003702565b60405180910390f35b620004306200117c565b6040516200043f9190620039a9565b60405180910390f35b6200045262001182565b604051620004619190620039a9565b60405180910390f35b6200047462001188565b604051620004839190620039a9565b60405180910390f35b620004aa6004803603810190620004a4919062002c5b565b62001195565b604051620004b9919062003702565b60405180910390f35b620004cc62001223565b604051620004db919062003720565b60405180910390f35b620004ee62001236565b604051620004fd919062003548565b60405180910390f35b6200052460048036038101906200051e919062002c5b565b62001260565b005b620005306200148e565b6040516200053f91906200373d565b60405180910390f35b62000552620014b4565b604051620005619190620039a9565b60405180910390f35b62000574620014ba565b604051620005839190620037cb565b60405180910390f35b6200059662001550565b604051620005a591906200375a565b60405180910390f35b620005cc6004803603810190620005c6919062002c5b565b62001576565b005b620005ec6004803603810190620005e6919062002c5b565b62001713565b604051620005fb919062003720565b60405180910390f35b6200062260048036038101906200061c919062002d06565b62001733565b005b6200062e62001adc565b005b6200064e600480360381019062000648919062002c5b565b62001b8c565b6040516200065d9190620039a9565b60405180910390f35b6200068460048036038101906200067e919062002e6d565b62001bd5565b005b620006a460048036038101906200069e919062002c5b565b62001ed4565b604051620006b39190620036e5565b60405180910390f35b620006c662001f62565b005b620006d262002012565b005b620006f26004803603810190620006ec919062002c8d565b620027ba565b604051620007019190620039a9565b60405180910390f35b62000728600480360381019062000722919062002c8d565b620027e3565b604051620007379190620039a9565b60405180910390f35b6200074a6200280c565b60405162000759919062003720565b60405180910390f35b6200076c6200281f565b005b6200078c600480360381019062000786919062002e09565b620028cf565b6040516200079b919062003548565b60405180910390f35b620007ae6200291a565b604051620007bd919062003548565b60405180910390f35b6000601360009054906101000a900473ffffffffffffffffffffffffffffffffffffffff1673ffffffffffffffffffffffffffffffffffffffff166370a08231306040518263ffffffff1660e01b815260040162000825919062003548565b60206040518083038186803b1580156200083e57600080fd5b505afa15801562000853573d6000803e3d6000fd5b505050506040513d601f19601f8201168201806040525081019062000879919062002e3b565b905090565b600760159054906101000a900460ff1681565b600760009054906101000a900473ffffffffffffffffffffffffffffffffffffffff1673ffffffffffffffffffffffffffffffffffffffff163373ffffffffffffffffffffffffffffffffffffffff161462000924576040517f08c379a00000000000000000000000000000000000000000000000000000000081526004016200091b90620038dd565b60405180910390fd5b73__$36fdb4e0c2cb91f3ceca5ea81b025328f3$__63d2c232b5600f600d60035460026040518563ffffffff1660e01b815260040162000968949392919062003777565b60006040518083038186803b1580156200098157600080fd5b505af415801562000996573d6000803e3d6000fd5b50505050565b60086020528160005260406000208160088110620009b957600080fd5b01600091509150505481565b600760009054906101000a900473ffffffffffffffffffffffffffffffffffffffff1673ffffffffffffffffffffffffffffffffffffffff163373ffffffffffffffffffffffffffffffffffffffff161462000a58576040517f08c379a000000000000000000000000000000000000000000000000000000000815260040162000a4f90620038dd565b60405180910390fd5b6000601360009054906101000a900473ffffffffffffffffffffffffffffffffffffffff1673ffffffffffffffffffffffffffffffffffffffff166370a08231306040518263ffffffff1660e01b815260040162000ab7919062003548565b60206040518083038186803b15801562000ad057600080fd5b505afa15801562000ae5573d6000803e3d6000fd5b505050506040513d601f19601f8201168201806040525081019062000b0b919062002e3b565b905062000b4d6040518060400160405280601a81526020017f43414c43554c4154494e47204c45414755452057494e4e45525300000000000081525062002940565b73__$36fdb4e0c2cb91f3ceca5ea81b025328f3$__63cc9b40cc600d600b600e6040518463ffffffff1660e01b815260040162000b8d9392919062003649565b60006040518083038186803b15801562000ba657600080fd5b505af415801562000bbb573d6000803e3d6000fd5b505050506000600e805490508262000bd4919062003bf1565b90507f648f2405ea194f3e49fe1655279883b3474e63909ab7e4a579b051d548ad8389600e8260405162000c0a9291906200368d565b60405180910390a160005b600e8054905081101562000de857601360009054906101000a900473ffffffffffffffffffffffffffffffffffffffff1673ffffffffffffffffffffffffffffffffffffffff1663095ea7b330846040518363ffffffff1660e01b815260040162000c82929190620035a2565b602060405180830381600087803b15801562000c9d57600080fd5b505af115801562000cb2573d6000803e3d6000fd5b505050506040513d601f19601f8201168201806040525081019062000cd8919062002cd4565b50601360009054906101000a900473ffffffffffffffffffffffffffffffffffffffff1673ffffffffffffffffffffffffffffffffffffffff166323b872dd30600e848154811062000d2f5762000d2e62003ef8565b5b9060005260206000200160009054906101000a900473ffffffffffffffffffffffffffffffffffffffff16856040518463ffffffff1660e01b815260040162000d7b9392919062003565565b602060405180830381600087803b15801562000d9657600080fd5b505af115801562000dab573d6000803e3d6000fd5b505050506040513d601f19601f8201168201806040525081019062000dd1919062002cd4565b50808062000ddf9062003e1d565b91505062000c15565b505050565b600760009054906101000a900473ffffffffffffffffffffffffffffffffffffffff1681565b600d818154811062000e2457600080fd5b906000526020600020016000915054906101000a900473ffffffffffffffffffffffffffffffffffffffff1681565b6000600760159054906101000a900460ff16905090565b600b6020528060005260406000206000915090505481565b6060600f6000838152602001908152602001600020805480602002602001604051908101604052809291908181526020016000905b8282101562000f6857838290600052602060002090600202016040518060200160405290816000820160028060200260405190810160405280929190826002801562000f4f576020028201915b8160009054906101000a900473ffffffffffffffffffffffffffffffffffffffff1673ffffffffffffffffffffffffffffffffffffffff168152602001906001019080831162000f04575b5050505050815250508152602001906001019062000eb7565b505050509050919050565b600760009054906101000a900473ffffffffffffffffffffffffffffffffffffffff1673ffffffffffffffffffffffffffffffffffffffff163373ffffffffffffffffffffffffffffffffffffffff161462001006576040517f08c379a000000000000000000000000000000000000000000000000000000000815260040162000ffd90620038dd565b60405180910390fd5b73__$36fdb4e0c2cb91f3ceca5ea81b025328f3$__6303626e84600554601060009054906101000a900473ffffffffffffffffffffffffffffffffffffffff1660086009600b600a600f6040518863ffffffff1660e01b8152600401620010749796959493929190620039c6565b60006040518083038186803b1580156200108d57600080fd5b505af4158015620010a2573d6000803e3d6000fd5b505050506001600354620010b7919062003c8a565b6005541415620010d157620010cb620009c5565b620010ec565b60056000815480929190620010e69062003e1d565b91905055505b565b620010f862002a3c565b600a60008373ffffffffffffffffffffffffffffffffffffffff1673ffffffffffffffffffffffffffffffffffffffff16815260200190815260200160002060088060200260405190810160405280929190826008801562001170576020028201915b8154815260200190600101908083116200115b575b50505050509050919050565b60055481565b60045481565b6000600d80549050905090565b6200119f62002a3c565b600860008373ffffffffffffffffffffffffffffffffffffffff1673ffffffffffffffffffffffffffffffffffffffff16815260200190815260200160002060088060200260405190810160405280929190826008801562001217576020028201915b81548152602001906001019080831162001202575b50505050509050919050565b600760149054906101000a900460ff1681565b6000600660009054906101000a900473ffffffffffffffffffffffffffffffffffffffff16905090565b600660009054906101000a900473ffffffffffffffffffffffffffffffffffffffff1673ffffffffffffffffffffffffffffffffffffffff163373ffffffffffffffffffffffffffffffffffffffff1614620012f3576040517f08c379a0000000000000000000000000000000000000000000000000000000008152600401620012ea90620038bb565b60405180910390fd5b600760149054906101000a900460ff161562001346576040517f08c379a00000000000000000000000000000000000000000000000000000000081526004016200133d9062003921565b60405180910390fd5b601160009054906101000a900473ffffffffffffffffffffffffffffffffffffffff1673ffffffffffffffffffffffffffffffffffffffff16637b9417c8826040518263ffffffff1660e01b8152600401620013a3919062003548565b602060405180830381600087803b158015620013be57600080fd5b505af1158015620013d3573d6000803e3d6000fd5b505050506040513d601f19601f82011682018060405250810190620013f9919062002cd4565b50601260009054906101000a900473ffffffffffffffffffffffffffffffffffffffff1673ffffffffffffffffffffffffffffffffffffffff1663771bd4ce826040518263ffffffff1660e01b815260040162001457919062003548565b600060405180830381600087803b1580156200147257600080fd5b505af115801562001487573d6000803e3d6000fd5b5050505050565b601360009054906101000a900473ffffffffffffffffffffffffffffffffffffffff1681565b60035481565b60028054620014c99062003dc9565b80601f0160208091040260200160405190810160405280929190818152602001828054620014f79062003dc9565b8015620015485780601f106200151c5761010080835404028352916020019162001548565b820191906000526020600020905b8154815290600101906020018083116200152a57829003601f168201915b505050505081565b601160009054906101000a900473ffffffffffffffffffffffffffffffffffffffff1681565b600660009054906101000a900473ffffffffffffffffffffffffffffffffffffffff1673ffffffffffffffffffffffffffffffffffffffff163373ffffffffffffffffffffffffffffffffffffffff161462001609576040517f08c379a00000000000000000000000000000000000000000000000000000000081526004016200160090620038bb565b60405180910390fd5b600760149054906101000a900460ff16156200165c576040517f08c379a0000000000000000000000000000000000000000000000000000000008152600401620016539062003921565b60405180910390fd5b601160009054906101000a900473ffffffffffffffffffffffffffffffffffffffff1673ffffffffffffffffffffffffffffffffffffffff1663286dd3f5826040518263ffffffff1660e01b8152600401620016b9919062003548565b602060405180830381600087803b158015620016d457600080fd5b505af1158015620016e9573d6000803e3d6000fd5b505050506040513d601f19601f820116820180604052508101906200170f919062002cd4565b5050565b600c6020528060005260406000206000915054906101000a900460ff1681565b600060019054906101000a900460ff166200175d5760008054906101000a900460ff161562001768565b62001767620029dd565b5b620017aa576040517f08c379a0000000000000000000000000000000000000000000000000000000008152600401620017a19062003899565b60405180910390fd5b60008060019054906101000a900460ff161590508015620017fb576001600060016101000a81548160ff02191690831515021790555060016000806101000a81548160ff0219169083151502179055505b8a8a600291906200180e92919062002a5f565b50600860038190555085600660006101000a81548173ffffffffffffffffffffffffffffffffffffffff021916908373ffffffffffffffffffffffffffffffffffffffff1602179055508860048190555087600760166101000a81548160ff0219169083151502179055506000600760146101000a81548160ff0219169083151502179055506000600760156101000a81548160ff02191690831515021790555086601060006101000a81548173ffffffffffffffffffffffffffffffffffffffff021916908373ffffffffffffffffffffffffffffffffffffffff16021790555081601260006101000a81548173ffffffffffffffffffffffffffffffffffffffff021916908373ffffffffffffffffffffffffffffffffffffffff16021790555087604051620019409062002af0565b6200194c919062003720565b604051809103906000f08015801562001969573d6000803e3d6000fd5b50601160006101000a81548173ffffffffffffffffffffffffffffffffffffffff021916908373ffffffffffffffffffffffffffffffffffffffff16021790555084601360006101000a81548173ffffffffffffffffffffffffffffffffffffffff021916908373ffffffffffffffffffffffffffffffffffffffff16021790555082600760006101000a81548173ffffffffffffffffffffffffffffffffffffffff021916908373ffffffffffffffffffffffffffffffffffffffff16021790555083601460006101000a81548173ffffffffffffffffffffffffffffffffffffffff021916908373ffffffffffffffffffffffffffffffffffffffff16021790555062001aad6040518060400160405280601281526020017f50726f787920696e697469616c697a656421000000000000000000000000000081525062002940565b801562001acf5760008060016101000a81548160ff0219169083151502179055505b5050505050505050505050565b600760009054906101000a900473ffffffffffffffffffffffffffffffffffffffff1673ffffffffffffffffffffffffffffffffffffffff163373ffffffffffffffffffffffffffffffffffffffff161462001b6f576040517f08c379a000000000000000000000000000000000000000000000000000000000815260040162001b6690620038dd565b60405180910390fd5b6000600760156101000a81548160ff021916908315150217905550565b6000600b60008373ffffffffffffffffffffffffffffffffffffffff1673ffffffffffffffffffffffffffffffffffffffff168152602001908152602001600020549050919050565b600760159054906101000a900460ff161562001c28576040517f08c379a000000000000000000000000000000000000000000000000000000000815260040162001c1f9062003877565b60405180910390fd5b600c60003373ffffffffffffffffffffffffffffffffffffffff1673ffffffffffffffffffffffffffffffffffffffff16815260200190815260200160002060009054906101000a900460ff1662001cb7576040517f08c379a000000000000000000000000000000000000000000000000000000000815260040162001cae90620038ff565b60405180910390fd5b6000601460009054906101000a900473ffffffffffffffffffffffffffffffffffffffff1673ffffffffffffffffffffffffffffffffffffffff1662fdd58e33856040518363ffffffff1660e01b815260040162001d17929190620035a2565b60206040518083038186803b15801562001d3057600080fd5b505afa15801562001d45573d6000803e3d6000fd5b505050506040513d601f19601f8201168201806040525081019062001d6b919062002e3b565b1162001dae576040517f08c379a000000000000000000000000000000000000000000000000000000000815260040162001da59062003943565b60405180910390fd5b600a8162001dbd919062003c29565b821015801562001df757506001600a60018362001ddb919062003b94565b62001de7919062003c29565b62001df3919062003c8a565b8211155b62001e39576040517f08c379a000000000000000000000000000000000000000000000000000000000815260040162001e309062003855565b60405180910390fd5b81600960003373ffffffffffffffffffffffffffffffffffffffff1673ffffffffffffffffffffffffffffffffffffffff168152602001908152602001600020826005811062001e8e5762001e8d62003ef8565b5b01819055507f3cfdf147aadd79819d84786e9ecc684d6f3a96df00f508952e97cb7dc3fb328333838360405162001ec8939291906200360c565b60405180910390a15050565b62001ede62002afe565b600960008373ffffffffffffffffffffffffffffffffffffffff1673ffffffffffffffffffffffffffffffffffffffff16815260200190815260200160002060058060200260405190810160405280929190826005801562001f56576020028201915b81548152602001906001019080831162001f41575b50505050509050919050565b600760009054906101000a900473ffffffffffffffffffffffffffffffffffffffff1673ffffffffffffffffffffffffffffffffffffffff163373ffffffffffffffffffffffffffffffffffffffff161462001ff5576040517f08c379a000000000000000000000000000000000000000000000000000000000815260040162001fec90620038dd565b60405180910390fd5b6001600760156101000a81548160ff021916908315150217905550565b600260015414156200205b576040517f08c379a0000000000000000000000000000000000000000000000000000000008152600401620020529062003965565b60405180910390fd5b6002600181905550600760149054906101000a900460ff1615620020b6576040517f08c379a0000000000000000000000000000000000000000000000000000000008152600401620020ad9062003987565b60405180910390fd5b601160009054906101000a900473ffffffffffffffffffffffffffffffffffffffff1673ffffffffffffffffffffffffffffffffffffffff16639b19251a336040518263ffffffff1660e01b815260040162002113919062003548565b60206040518083038186803b1580156200212c57600080fd5b505afa15801562002141573d6000803e3d6000fd5b505050506040513d601f19601f8201168201806040525081019062002167919062002cd4565b80620022135750601160009054906101000a900473ffffffffffffffffffffffffffffffffffffffff1673ffffffffffffffffffffffffffffffffffffffff1663dc9a15356040518163ffffffff1660e01b815260040160206040518083038186803b158015620021d757600080fd5b505afa158015620021ec573d6000803e3d6000fd5b505050506040513d601f19601f8201168201806040525081019062002212919062002cd4565b5b806200226c5750600660009054906101000a900473ffffffffffffffffffffffffffffffffffffffff1673ffffffffffffffffffffffffffffffffffffffff163373ffffffffffffffffffffffffffffffffffffffff16145b620022ae576040517f08c379a0000000000000000000000000000000000000000000000000000000008152600401620022a59062003811565b60405180910390fd5b600c60003373ffffffffffffffffffffffffffffffffffffffff1673ffffffffffffffffffffffffffffffffffffffff16815260200190815260200160002060009054906101000a900460ff16156200233e576040517f08c379a0000000000000000000000000000000000000000000000000000000008152600401620023359062003833565b60405180910390fd5b600454601360009054906101000a900473ffffffffffffffffffffffffffffffffffffffff1673ffffffffffffffffffffffffffffffffffffffff166370a08231336040518263ffffffff1660e01b81526004016200239e919062003548565b60206040518083038186803b158015620023b757600080fd5b505afa158015620023cc573d6000803e3d6000fd5b505050506040513d601f19601f82011682018060405250810190620023f2919062002e3b565b11806200249f5750601160009054906101000a900473ffffffffffffffffffffffffffffffffffffffff1673ffffffffffffffffffffffffffffffffffffffff1663dc9a15356040518163ffffffff1660e01b815260040160206040518083038186803b1580156200246357600080fd5b505afa15801562002478573d6000803e3d6000fd5b505050506040513d601f19601f820116820180604052508101906200249e919062002cd4565b5b620024e1576040517f08c379a0000000000000000000000000000000000000000000000000000000008152600401620024d890620037ef565b60405180910390fd5b601260009054906101000a900473ffffffffffffffffffffffffffffffffffffffff1673ffffffffffffffffffffffffffffffffffffffff1663771bd4ce336040518263ffffffff1660e01b81526004016200253e919062003548565b600060405180830381600087803b1580156200255957600080fd5b505af11580156200256e573d6000803e3d6000fd5b505050506001600c60003373ffffffffffffffffffffffffffffffffffffffff1673ffffffffffffffffffffffffffffffffffffffff16815260200190815260200160002060006101000a81548160ff021916908315150217905550600d339080600181540180825580915050600190039060005260206000200160009091909190916101000a81548173ffffffffffffffffffffffffffffffffffffffff021916908373ffffffffffffffffffffffffffffffffffffffff1602179055506040518060a00160405280606460ff168152602001606460ff168152602001606460ff168152602001606460ff168152602001606460ff16815250600960003373ffffffffffffffffffffffffffffffffffffffff1673ffffffffffffffffffffffffffffffffffffffff168152602001908152602001600020906005620026b792919062002b20565b50601360009054906101000a900473ffffffffffffffffffffffffffffffffffffffff1673ffffffffffffffffffffffffffffffffffffffff166323b872dd33306004546040518463ffffffff1660e01b81526004016200271b9392919062003565565b602060405180830381600087803b1580156200273657600080fd5b505af11580156200274b573d6000803e3d6000fd5b505050506040513d601f19601f8201168201806040525081019062002771919062002cd4565b507f9f9e4044c5742cca66ca090b21552bac14645e68bad7a92364a9d9ff18111a1c3360045430604051620027a993929190620035cf565b60405180910390a160018081905550565b60096020528160005260406000208160058110620027d757600080fd5b01600091509150505481565b600a60205281600052604060002081600881106200280057600080fd5b01600091509150505481565b600760169054906101000a900460ff1681565b600760009054906101000a900473ffffffffffffffffffffffffffffffffffffffff1673ffffffffffffffffffffffffffffffffffffffff163373ffffffffffffffffffffffffffffffffffffffff1614620028b2576040517f08c379a0000000000000000000000000000000000000000000000000000000008152600401620028a990620038dd565b60405180910390fd5b6001600760146101000a81548160ff021916908315150217905550565b6000600d8281548110620028e857620028e762003ef8565b5b9060005260206000200160009054906101000a900473ffffffffffffffffffffffffffffffffffffffff169050919050565b600660009054906101000a900473ffffffffffffffffffffffffffffffffffffffff1681565b620029da81604051602401620029579190620037cb565b6040516020818303038152906040527f41304fac000000000000000000000000000000000000000000000000000000007bffffffffffffffffffffffffffffffffffffffffffffffffffffffff19166020820180517bffffffffffffffffffffffffffffffffffffffffffffffffffffffff8381831617835250505050620029f0565b50565b6000620029ea3062002a19565b15905090565b60008151905060006a636f6e736f6c652e6c6f679050602083016000808483855afa5050505050565b6000808273ffffffffffffffffffffffffffffffffffffffff163b119050919050565b604051806101000160405280600890602082028036833780820191505090505090565b82805462002a6d9062003dc9565b90600052602060002090601f01602090048101928262002a91576000855562002add565b82601f1062002aac57803560ff191683800117855562002add565b8280016001018555821562002add579182015b8281111562002adc57823582559160200191906001019062002abf565b5b50905062002aec919062002b6a565b5090565b61111480620042bb83390190565b6040518060a00160405280600590602082028036833780820191505090505090565b826005810192821562002b57579160200282015b8281111562002b56578251829060ff1690559160200191906001019062002b34565b5b50905062002b66919062002b6a565b5090565b5b8082111562002b8557600081600090555060010162002b6b565b5090565b60008135905062002b9a816200426c565b92915050565b60008135905062002bb18162004286565b92915050565b60008151905062002bc88162004286565b92915050565b60008083601f84011262002be75762002be662003f41565b5b8235905067ffffffffffffffff81111562002c075762002c0662003f3c565b5b60208301915083600182028301111562002c265762002c2562003f46565b5b9250929050565b60008135905062002c3e81620042a0565b92915050565b60008151905062002c5581620042a0565b92915050565b60006020828403121562002c745762002c7362003f50565b5b600062002c848482850162002b89565b91505092915050565b6000806040838503121562002ca75762002ca662003f50565b5b600062002cb78582860162002b89565b925050602062002cca8582860162002c2d565b9150509250929050565b60006020828403121562002ced5762002cec62003f50565b5b600062002cfd8482850162002bb7565b91505092915050565b6000806000806000806000806000806101208b8d03121562002d2d5762002d2c62003f50565b5b60008b013567ffffffffffffffff81111562002d4e5762002d4d62003f4b565b5b62002d5c8d828e0162002bce565b9a509a5050602062002d718d828e0162002c2d565b985050604062002d848d828e0162002ba0565b975050606062002d978d828e0162002b89565b965050608062002daa8d828e0162002b89565b95505060a062002dbd8d828e0162002b89565b94505060c062002dd08d828e0162002b89565b93505060e062002de38d828e0162002b89565b92505061010062002df78d828e0162002b89565b9150509295989b9194979a5092959850565b60006020828403121562002e225762002e2162003f50565b5b600062002e328482850162002c2d565b91505092915050565b60006020828403121562002e545762002e5362003f50565b5b600062002e648482850162002c44565b91505092915050565b6000806040838503121562002e875762002e8662003f50565b5b600062002e978582860162002c2d565b925050602062002eaa8582860162002c2d565b9150509250929050565b600062002ec2838362002f1c565b60208301905092915050565b600062002edc838362002f3e565b60208301905092915050565b600062002ef68383620034f7565b60408301905092915050565b600062002f10838362003515565b60208301905092915050565b62002f278162003ce5565b82525050565b62002f388162003ce5565b82525050565b62002f498162003ce5565b82525050565b62002f5a8162003a9b565b62002f66818462003b1e565b925062002f738262003a43565b8060005b8381101562002faa57815162002f8e878262002eb4565b965062002f9b8362003add565b92505060018101905062002f77565b505050505050565b600062002fbf8262003aa6565b62002fcb818562003b29565b935062002fd88362003a4d565b8060005b83811015620030185762002ff08262003f27565b62002ffc888262002eb4565b9750620030098362003aea565b92505060018101905062002fdc565b5085935050505092915050565b6000620030328262003aa6565b6200303e818562003b3a565b93506200304b8362003a4d565b8060005b838110156200308b57620030638262003f27565b6200306f888262002ece565b97506200307c8362003aea565b9250506001810190506200304f565b5085935050505092915050565b8082525050565b6000620030ac8262003ab1565b620030b8818562003b4b565b9350620030c58362003a62565b8060005b83811015620030fc578151620030e0888262002ee8565b9750620030ed8362003af7565b925050600181019050620030c9565b5085935050505092915050565b620031148162003abc565b62003120818462003b5c565b92506200312d8262003a72565b8060005b838110156200316457815162003148878262002f02565b9650620031558362003b04565b92505060018101905062003131565b505050505050565b620031778162003ac7565b62003183818462003b67565b9250620031908262003a7c565b8060005b83811015620031c7578151620031ab878262002f02565b9650620031b88362003b11565b92505060018101905062003194565b505050505050565b620031da8162003cf9565b82525050565b620031eb8162003d2f565b82525050565b620031fc8162003d43565b82525050565b6200320d8162003d57565b82525050565b8082525050565b8082525050565b8082525050565b8082525050565b60006200323c8262003ad2565b62003248818562003b72565b93506200325a81856020860162003d93565b620032658162003f55565b840191505092915050565b600081546200327f8162003dc9565b6200328b818662003b83565b94506001821660008114620032a95760018114620032bc57620032f3565b60ff1983168652602086019350620032f3565b620032c78562003a86565b60005b83811015620032eb57815481890152600182019150602081019050620032ca565b808801955050505b50505092915050565b60006200330b601d8362003b72565b9150620033188262003f73565b602082019050919050565b60006200333260188362003b72565b91506200333f8262003f9c565b602082019050919050565b60006200335960238362003b72565b9150620033668262003fc5565b604082019050919050565b60006200338060318362003b72565b91506200338d8262004014565b604082019050919050565b6000620033a7601e8362003b72565b9150620033b48262004063565b602082019050919050565b6000620033ce602e8362003b72565b9150620033db826200408c565b604082019050919050565b6000620033f560178362003b72565b91506200340282620040db565b602082019050919050565b60006200341c60168362003b72565b9150620034298262004104565b602082019050919050565b60006200344360168362003b72565b915062003450826200412d565b602082019050919050565b60006200346a60418362003b72565b9150620034778262004156565b606082019050919050565b60006200349160248362003b72565b91506200349e82620041cb565b604082019050919050565b6000620034b8601f8362003b72565b9150620034c5826200421a565b602082019050919050565b6000620034df60178362003b72565b9150620034ec8262004243565b602082019050919050565b6040820160008201516200350f600085018262002f4f565b50505050565b620035208162003d25565b82525050565b620035318162003d25565b82525050565b620035428162003d25565b82525050565b60006020820190506200355f600083018462002f2d565b92915050565b60006060820190506200357c600083018662002f2d565b6200358b602083018562002f2d565b6200359a604083018462003526565b949350505050565b6000604082019050620035b9600083018562002f2d565b620035c8602083018462003526565b9392505050565b6000606082019050620035e6600083018662002f2d565b620035f5602083018562003526565b62003604604083018462002f2d565b949350505050565b600060608201905062003623600083018662002f2d565b62003632602083018562003526565b62003641604083018462003526565b949350505050565b6000606082019050818103600083015262003665818662003025565b905062003676602083018562003221565b62003685604083018462003098565b949350505050565b60006040820190508181036000830152620036a9818562002fb2565b9050620036ba602083018462003526565b9392505050565b60006020820190508181036000830152620036dd81846200309f565b905092915050565b600060a082019050620036fc600083018462003109565b92915050565b6000610100820190506200371a60008301846200316c565b92915050565b6000602082019050620037376000830184620031cf565b92915050565b6000602082019050620037546000830184620031f1565b92915050565b600060208201905062003771600083018462003202565b92915050565b60006080820190506200378e600083018762003228565b6200379d602083018662003098565b620037ac604083018562003537565b8181036060830152620037c0818462003270565b905095945050505050565b60006020820190508181036000830152620037e781846200322f565b905092915050565b600060208201905081810360008301526200380a81620032fc565b9050919050565b600060208201905081810360008301526200382c8162003323565b9050919050565b600060208201905081810360008301526200384e816200334a565b9050919050565b60006020820190508181036000830152620038708162003371565b9050919050565b60006020820190508181036000830152620038928162003398565b9050919050565b60006020820190508181036000830152620038b481620033bf565b9050919050565b60006020820190508181036000830152620038d681620033e6565b9050919050565b60006020820190508181036000830152620038f8816200340d565b9050919050565b600060208201905081810360008301526200391a8162003434565b9050919050565b600060208201905081810360008301526200393c816200345b565b9050919050565b600060208201905081810360008301526200395e8162003482565b9050919050565b600060208201905081810360008301526200398081620034a9565b9050919050565b60006020820190508181036000830152620039a281620034d0565b9050919050565b6000602082019050620039c0600083018462003526565b92915050565b600060e082019050620039dd600083018a62003537565b620039ec6020830189620031e0565b620039fb60408301886200321a565b62003a0a606083018762003213565b62003a19608083018662003221565b62003a2860a08301856200321a565b62003a3760c083018462003228565b98975050505050505050565b6000819050919050565b60008190508160005260206000209050919050565b6000819050602082019050919050565b6000819050919050565b6000819050919050565b60008190508160005260206000209050919050565b600060029050919050565b600081549050919050565b600081519050919050565b600060059050919050565b600060089050919050565b600081519050919050565b6000602082019050919050565b6000600182019050919050565b6000602082019050919050565b6000602082019050919050565b6000602082019050919050565b600081905092915050565b600082825260208201905092915050565b600082825260208201905092915050565b600082825260208201905092915050565b600081905092915050565b600081905092915050565b600082825260208201905092915050565b600082825260208201905092915050565b600062003ba18262003d25565b915062003bae8362003d25565b9250827fffffffffffffffffffffffffffffffffffffffffffffffffffffffffffffffff0382111562003be65762003be562003e6b565b5b828201905092915050565b600062003bfe8262003d25565b915062003c0b8362003d25565b92508262003c1e5762003c1d62003e9a565b5b828204905092915050565b600062003c368262003d25565b915062003c438362003d25565b9250817fffffffffffffffffffffffffffffffffffffffffffffffffffffffffffffffff048311821515161562003c7f5762003c7e62003e6b565b5b828202905092915050565b600062003c978262003d25565b915062003ca48362003d25565b92508282101562003cba5762003cb962003e6b565b5b828203905092915050565b600073ffffffffffffffffffffffffffffffffffffffff82169050919050565b600062003cf28262003d05565b9050919050565b60008115159050919050565b600073ffffffffffffffffffffffffffffffffffffffff82169050919050565b6000819050919050565b600062003d3c8262003d6b565b9050919050565b600062003d508262003d6b565b9050919050565b600062003d648262003d6b565b9050919050565b600062003d788262003d7f565b9050919050565b600062003d8c8262003d05565b9050919050565b60005b8381101562003db357808201518184015260208101905062003d96565b8381111562003dc3576000848401525b50505050565b6000600282049050600182168062003de257607f821691505b6020821081141562003df95762003df862003ec9565b5b50919050565b600062003e1662003e108362003f66565b62003cc5565b9050919050565b600062003e2a8262003d25565b91507fffffffffffffffffffffffffffffffffffffffffffffffffffffffffffffffff82141562003e605762003e5f62003e6b565b5b600182019050919050565b7f4e487b7100000000000000000000000000000000000000000000000000000000600052601160045260246000fd5b7f4e487b7100000000000000000000000000000000000000000000000000000000600052601260045260246000fd5b7f4e487b7100000000000000000000000000000000000000000000000000000000600052602260045260246000fd5b7f4e487b7100000000000000000000000000000000000000000000000000000000600052603260045260246000fd5b600062003f35825462003dff565b9050919050565b600080fd5b600080fd5b600080fd5b600080fd5b600080fd5b6000601f19601f8301169050919050565b60008160001c9050919050565b7f496e737566666963656e742066756e647320666f72207374616b696e67000000600082015250565b7f55736572206973206e6f74206f6e2077686974656c6973740000000000000000600082015250565b7f596f75206861766520616c7265616479206a6f696e65642074686973206c656160008201527f6775650000000000000000000000000000000000000000000000000000000000602082015250565b7f596f75206172652073657474696e6720616e206174686c65746520696e20746860008201527f652077726f6e6720706f736974696f6e21000000000000000000000000000000602082015250565b7f6c696e657570206973206c6f636b656420666f7220746865207765656b210000600082015250565b7f496e697469616c697a61626c653a20636f6e747261637420697320616c72656160008201527f647920696e697469616c697a6564000000000000000000000000000000000000602082015250565b7f43616c6c6572206973206e6f74207468652061646d696e000000000000000000600082015250565b7f43616c6c6572206973206e6f74205465616d4469666600000000000000000000600082015250565b7f55736572206973206e6f7420696e204c65616775652e00000000000000000000600082015250565b7f4e6f626f64792063616e20656e7465722f6578697420746865206c656167756560008201527f20616e796d6f72652e2054686520736561736f6e20686173207374617274656460208201527f2100000000000000000000000000000000000000000000000000000000000000604082015250565b7f43616c6c657220646f6573206e6f74206f776e20676976656e206174686c657460008201527f6549647300000000000000000000000000000000000000000000000000000000602082015250565b7f5265656e7472616e637947756172643a207265656e7472616e742063616c6c00600082015250565b7f4c656167756520456e74727920697320436c6f73656421000000000000000000600082015250565b620042778162003ce5565b81146200428357600080fd5b50565b620042918162003cf9565b81146200429d57600080fd5b50565b620042ab8162003d25565b8114620042b757600080fd5b5056fe60806040523480156200001157600080fd5b50604051620011143803806200111483398181016040528101906200003791906200015b565b620000576200004b6200007860201b60201c565b6200008060201b60201c565b80600360006101000a81548160ff02191690831515021790555050620001b8565b600033905090565b60008060009054906101000a900473ffffffffffffffffffffffffffffffffffffffff169050816000806101000a81548173ffffffffffffffffffffffffffffffffffffffff021916908373ffffffffffffffffffffffffffffffffffffffff1602179055508173ffffffffffffffffffffffffffffffffffffffff168173ffffffffffffffffffffffffffffffffffffffff167f8be0079c531659141344cd1fd0a4f28419497f9722a3daafe3b4186f6b6457e060405160405180910390a35050565b60008151905062000155816200019e565b92915050565b60006020828403121562000174576200017362000199565b5b6000620001848482850162000144565b91505092915050565b60008115159050919050565b600080fd5b620001a9816200018d565b8114620001b557600080fd5b50565b610f4c80620001c86000396000f3fe608060405234801561001057600080fd5b50600436106100a95760003560e01c80638da5cb5b116100715780638da5cb5b146101665780639b19251a14610184578063dc9a1535146101b4578063e2ec6ec3146101d2578063e35a899914610202578063f2fde38b14610232576100a9565b806324953eaa146100ae578063286dd3f5146100de57806344eaa84e1461010e578063715018a61461012c5780637b9417c814610136575b600080fd5b6100c860048036038101906100c39190610ada565b61024e565b6040516100d59190610bb1565b60405180910390f35b6100f860048036038101906100f39190610aad565b61031e565b6040516101059190610bb1565b60405180910390f35b6101166104a1565b6040516101239190610c0c565b60405180910390f35b6101346104ab565b005b610150600480360381019061014b9190610aad565b610533565b60405161015d9190610bb1565b60405180910390f35b61016e6106b4565b60405161017b9190610b96565b60405180910390f35b61019e60048036038101906101999190610aad565b6106dd565b6040516101ab9190610bb1565b60405180910390f35b6101bc6106fd565b6040516101c99190610bb1565b60405180910390f35b6101ec60048036038101906101e79190610ada565b610710565b6040516101f99190610bb1565b60405180910390f35b61021c60048036038101906102179190610aad565b6107e0565b6040516102299190610bb1565b60405180910390f35b61024c60048036038101906102479190610aad565b610836565b005b600061025861092e565b73ffffffffffffffffffffffffffffffffffffffff166102766106b4565b73ffffffffffffffffffffffffffffffffffffffff16146102cc576040517f08c379a00000000000000000000000000000000000000000000000000000000081526004016102c390610bec565b60405180910390fd5b60005b8251811015610318576102fb8382815181106102ee576102ed610e04565b5b602002602001015161031e565b1561030557600191505b808061031090610d8c565b9150506102cf565b50919050565b600061032861092e565b73ffffffffffffffffffffffffffffffffffffffff166103466106b4565b73ffffffffffffffffffffffffffffffffffffffff161461039c576040517f08c379a000000000000000000000000000000000000000000000000000000000815260040161039390610bec565b60405180910390fd5b600160008373ffffffffffffffffffffffffffffffffffffffff1673ffffffffffffffffffffffffffffffffffffffff16815260200190815260200160002060009054906101000a900460ff161561049c576000600160008473ffffffffffffffffffffffffffffffffffffffff1673ffffffffffffffffffffffffffffffffffffffff16815260200190815260200160002060006101000a81548160ff0219169083151502179055507ff1abf01a1043b7c244d128e8595cf0c1d10743b022b03a02dffd8ca3bf729f5a826040516104759190610b96565b60405180910390a16001600260008282546104909190610cdf565b92505081905550600190505b919050565b6000600254905090565b6104b361092e565b73ffffffffffffffffffffffffffffffffffffffff166104d16106b4565b73ffffffffffffffffffffffffffffffffffffffff1614610527576040517f08c379a000000000000000000000000000000000000000000000000000000000815260040161051e90610bec565b60405180910390fd5b6105316000610936565b565b600061053d61092e565b73ffffffffffffffffffffffffffffffffffffffff1661055b6106b4565b73ffffffffffffffffffffffffffffffffffffffff16146105b1576040517f08c379a00000000000000000000000000000000000000000000000000000000081526004016105a890610bec565b60405180910390fd5b600160008373ffffffffffffffffffffffffffffffffffffffff1673ffffffffffffffffffffffffffffffffffffffff16815260200190815260200160002060009054906101000a900460ff166106af5760018060008473ffffffffffffffffffffffffffffffffffffffff1673ffffffffffffffffffffffffffffffffffffffff16815260200190815260200160002060006101000a81548160ff0219169083151502179055507fd1bba68c128cc3f427e5831b3c6f99f480b6efa6b9e80c757768f6124158cc3f826040516106889190610b96565b60405180910390a16001600260008282546106a39190610c89565b92505081905550600190505b919050565b60008060009054906101000a900473ffffffffffffffffffffffffffffffffffffffff16905090565b60016020528060005260406000206000915054906101000a900460ff1681565b600360009054906101000a900460ff1681565b600061071a61092e565b73ffffffffffffffffffffffffffffffffffffffff166107386106b4565b73ffffffffffffffffffffffffffffffffffffffff161461078e576040517f08c379a000000000000000000000000000000000000000000000000000000000815260040161078590610bec565b60405180910390fd5b60005b82518110156107da576107bd8382815181106107b0576107af610e04565b5b6020026020010151610533565b156107c757600191505b80806107d290610d8c565b915050610791565b50919050565b6000600160008373ffffffffffffffffffffffffffffffffffffffff1673ffffffffffffffffffffffffffffffffffffffff16815260200190815260200160002060009054906101000a900460ff169050919050565b61083e61092e565b73ffffffffffffffffffffffffffffffffffffffff1661085c6106b4565b73ffffffffffffffffffffffffffffffffffffffff16146108b2576040517f08c379a00000000000000000000000000000000000000000000000000000000081526004016108a990610bec565b60405180910390fd5b600073ffffffffffffffffffffffffffffffffffffffff168173ffffffffffffffffffffffffffffffffffffffff161415610922576040517f08c379a000000000000000000000000000000000000000000000000000000000815260040161091990610bcc565b60405180910390fd5b61092b81610936565b50565b600033905090565b60008060009054906101000a900473ffffffffffffffffffffffffffffffffffffffff169050816000806101000a81548173ffffffffffffffffffffffffffffffffffffffff021916908373ffffffffffffffffffffffffffffffffffffffff1602179055508173ffffffffffffffffffffffffffffffffffffffff168173ffffffffffffffffffffffffffffffffffffffff167f8be0079c531659141344cd1fd0a4f28419497f9722a3daafe3b4186f6b6457e060405160405180910390a35050565b6000610a0d610a0884610c4c565b610c27565b90508083825260208201905082856020860282011115610a3057610a2f610e67565b5b60005b85811015610a605781610a468882610a6a565b845260208401935060208301925050600181019050610a33565b5050509392505050565b600081359050610a7981610eff565b92915050565b600082601f830112610a9457610a93610e62565b5b8135610aa48482602086016109fa565b91505092915050565b600060208284031215610ac357610ac2610e71565b5b6000610ad184828501610a6a565b91505092915050565b600060208284031215610af057610aef610e71565b5b600082013567ffffffffffffffff811115610b0e57610b0d610e6c565b5b610b1a84828501610a7f565b91505092915050565b610b2c81610d13565b82525050565b610b3b81610d25565b82525050565b6000610b4e602683610c78565b9150610b5982610e87565b604082019050919050565b6000610b71602083610c78565b9150610b7c82610ed6565b602082019050919050565b610b9081610d51565b82525050565b6000602082019050610bab6000830184610b23565b92915050565b6000602082019050610bc66000830184610b32565b92915050565b60006020820190508181036000830152610be581610b41565b9050919050565b60006020820190508181036000830152610c0581610b64565b9050919050565b6000602082019050610c216000830184610b87565b92915050565b6000610c31610c42565b9050610c3d8282610d5b565b919050565b6000604051905090565b600067ffffffffffffffff821115610c6757610c66610e33565b5b602082029050602081019050919050565b600082825260208201905092915050565b6000610c9482610d51565b9150610c9f83610d51565b9250827fffffffffffffffffffffffffffffffffffffffffffffffffffffffffffffffff03821115610cd457610cd3610dd5565b5b828201905092915050565b6000610cea82610d51565b9150610cf583610d51565b925082821015610d0857610d07610dd5565b5b828203905092915050565b6000610d1e82610d31565b9050919050565b60008115159050919050565b600073ffffffffffffffffffffffffffffffffffffffff82169050919050565b6000819050919050565b610d6482610e76565b810181811067ffffffffffffffff82111715610d8357610d82610e33565b5b80604052505050565b6000610d9782610d51565b91507fffffffffffffffffffffffffffffffffffffffffffffffffffffffffffffffff821415610dca57610dc9610dd5565b5b600182019050919050565b7f4e487b7100000000000000000000000000000000000000000000000000000000600052601160045260246000fd5b7f4e487b7100000000000000000000000000000000000000000000000000000000600052603260045260246000fd5b7f4e487b7100000000000000000000000000000000000000000000000000000000600052604160045260246000fd5b600080fd5b600080fd5b600080fd5b600080fd5b6000601f19601f8301169050919050565b7f4f776e61626c653a206e6577206f776e657220697320746865207a65726f206160008201527f6464726573730000000000000000000000000000000000000000000000000000602082015250565b7f4f776e61626c653a2063616c6c6572206973206e6f7420746865206f776e6572600082015250565b610f0881610d13565b8114610f1357600080fd5b5056fea2646970667358221220feccf7967160b27bc4e7387864d237b4000f88abed00a8f38cd892f59bf1675364736f6c63430008070033a2646970667358221220dcbbc20ac9c11c7641fa3f00a7f7f2ee5063807909543639fc9d37658894412864736f6c63430008070033",
  "linkReferences": {
    "contracts/MOBALogicLibrary.sol": {
      "MOBALogicLibrary": [
        {
          "length": 20,
          "start": 2381
        },
        {
          "length": 20,
          "start": 2934
        },
        {
          "length": 20,
          "start": 4143
        }
      ]
    }
  },
  "deployedLinkReferences": {
    "contracts/MOBALogicLibrary.sol": {
      "MOBALogicLibrary": [
        {
          "length": 20,
          "start": 2342
        },
        {
          "length": 20,
          "start": 2895
        },
        {
          "length": 20,
          "start": 4104
        }
      ]
    }
  }
}