{
  "_format": "hh-sol-artifact-1",
  "contractName": "LeagueOfLegendsLogic",
  "sourceName": "contracts/LeagueOfLegendsLogic.sol",
  "abi": [
    {
      "anonymous": false,
      "inputs": [
        {
          "indexed": true,
          "internalType": "address",
          "name": "previousOwner",
          "type": "address"
        },
        {
          "indexed": true,
          "internalType": "address",
          "name": "newOwner",
          "type": "address"
        }
      ],
      "name": "OwnershipTransferred",
      "type": "event"
    },
    {
      "anonymous": false,
      "inputs": [
        {
          "indexed": false,
          "internalType": "address",
          "name": "sender",
          "type": "address"
        },
        {
          "indexed": false,
          "internalType": "uint256",
          "name": "amount",
          "type": "uint256"
        }
      ],
      "name": "Staked",
      "type": "event"
    },
    {
      "anonymous": false,
      "inputs": [
        {
          "indexed": false,
          "internalType": "address",
          "name": "addr",
          "type": "address"
        }
      ],
      "name": "WhitelistedAddressAdded",
      "type": "event"
    },
    {
      "anonymous": false,
      "inputs": [
        {
          "indexed": false,
          "internalType": "address",
          "name": "addr",
          "type": "address"
        }
      ],
      "name": "WhitelistedAddressRemoved",
      "type": "event"
    },
    {
      "anonymous": false,
      "inputs": [
        {
          "indexed": false,
          "internalType": "address",
          "name": "sender",
          "type": "address"
        },
        {
          "indexed": false,
          "internalType": "address",
          "name": "contractAddress",
          "type": "address"
        }
      ],
      "name": "testUSDCDeployed",
      "type": "event"
    },
    {
      "inputs": [
        {
          "internalType": "address",
          "name": "addr",
          "type": "address"
        }
      ],
      "name": "addAddressToWhitelist",
      "outputs": [
        {
          "internalType": "bool",
          "name": "success",
          "type": "bool"
        }
      ],
      "stateMutability": "nonpayable",
      "type": "function"
    },
    {
      "inputs": [
        {
          "internalType": "address[]",
          "name": "addrs",
          "type": "address[]"
        }
      ],
      "name": "addAddressesToWhitelist",
      "outputs": [
        {
          "internalType": "bool",
          "name": "success",
          "type": "bool"
        }
      ],
      "stateMutability": "nonpayable",
      "type": "function"
    },
    {
      "inputs": [
        {
          "internalType": "address",
          "name": "_userToAdd",
          "type": "address"
        }
      ],
      "name": "addUserToWhitelist",
      "outputs": [],
      "stateMutability": "nonpayable",
      "type": "function"
    },
    {
      "inputs": [],
      "name": "admin",
      "outputs": [
        {
          "internalType": "address",
          "name": "",
          "type": "address"
        }
      ],
      "stateMutability": "view",
      "type": "function"
    },
    {
      "inputs": [],
      "name": "evaluateWeek",
      "outputs": [],
      "stateMutability": "nonpayable",
      "type": "function"
    },
    {
      "inputs": [],
      "name": "getLineupIsLocked",
      "outputs": [
        {
          "internalType": "bool",
          "name": "",
          "type": "bool"
        }
      ],
      "stateMutability": "view",
      "type": "function"
    },
    {
      "inputs": [],
      "name": "getNumWhitelisted",
      "outputs": [
        {
          "internalType": "uint256",
          "name": "",
          "type": "uint256"
        }
      ],
      "stateMutability": "view",
      "type": "function"
    },
    {
      "inputs": [
        {
          "internalType": "address",
          "name": "_user",
          "type": "address"
        }
      ],
      "name": "getUserIsWhitelisted",
      "outputs": [
        {
          "internalType": "bool",
          "name": "",
          "type": "bool"
        }
      ],
      "stateMutability": "view",
      "type": "function"
    },
    {
      "inputs": [],
      "name": "getUserRecord",
      "outputs": [
        {
          "internalType": "uint256[8]",
          "name": "",
          "type": "uint256[8]"
        }
      ],
      "stateMutability": "view",
      "type": "function"
    },
    {
      "inputs": [],
      "name": "getUserTotalPts",
      "outputs": [
        {
          "internalType": "uint256",
          "name": "",
          "type": "uint256"
        }
      ],
      "stateMutability": "view",
      "type": "function"
    },
    {
      "inputs": [],
      "name": "getUserUSDCBalance",
      "outputs": [
        {
          "internalType": "uint256",
          "name": "",
          "type": "uint256"
        }
      ],
      "stateMutability": "view",
      "type": "function"
    },
    {
      "inputs": [],
      "name": "getUsersLength",
      "outputs": [
        {
          "internalType": "uint256",
          "name": "",
          "type": "uint256"
        }
      ],
      "stateMutability": "view",
      "type": "function"
    },
    {
      "inputs": [
        {
          "internalType": "address",
          "name": "",
          "type": "address"
        }
      ],
      "name": "inLeague",
      "outputs": [
        {
          "internalType": "bool",
          "name": "",
          "type": "bool"
        }
      ],
      "stateMutability": "view",
      "type": "function"
    },
    {
      "inputs": [
        {
          "internalType": "string",
          "name": "_name",
          "type": "string"
        },
        {
          "internalType": "uint256",
          "name": "_stakeAmount",
          "type": "uint256"
        },
        {
          "internalType": "bool",
          "name": "_isPublic",
          "type": "bool"
        },
        {
          "internalType": "address",
          "name": "athletesDataStorageAddress",
          "type": "address"
        },
        {
          "internalType": "address",
          "name": "_admin",
          "type": "address"
        },
        {
          "internalType": "address",
          "name": "_polygonUSDCAddress",
          "type": "address"
        },
        {
          "internalType": "address",
          "name": "_rinkebyUSDCAddress",
          "type": "address"
        },
        {
          "internalType": "address",
          "name": "_testUSDCAddress",
          "type": "address"
        },
        {
          "internalType": "address",
          "name": "_teamDiffAddress",
          "type": "address"
        },
        {
          "internalType": "address",
          "name": "_leagueMakerContractAddress",
          "type": "address"
        }
      ],
      "name": "initialize",
      "outputs": [],
      "stateMutability": "nonpayable",
      "type": "function"
    },
    {
      "inputs": [],
      "name": "isPublic",
      "outputs": [
        {
          "internalType": "bool",
          "name": "",
          "type": "bool"
        }
      ],
      "stateMutability": "view",
      "type": "function"
    },
    {
      "inputs": [],
      "name": "joinLeague",
      "outputs": [],
      "stateMutability": "nonpayable",
      "type": "function"
    },
    {
      "inputs": [],
      "name": "leagueEntryIsClosed",
      "outputs": [
        {
          "internalType": "bool",
          "name": "",
          "type": "bool"
        }
      ],
      "stateMutability": "view",
      "type": "function"
    },
    {
      "inputs": [
        {
          "internalType": "uint256",
          "name": "",
          "type": "uint256"
        }
      ],
      "name": "leagueMembers",
      "outputs": [
        {
          "internalType": "address",
          "name": "",
          "type": "address"
        }
      ],
      "stateMutability": "view",
      "type": "function"
    },
    {
      "inputs": [],
      "name": "leagueName",
      "outputs": [
        {
          "internalType": "string",
          "name": "",
          "type": "string"
        }
      ],
      "stateMutability": "view",
      "type": "function"
    },
    {
      "inputs": [],
      "name": "lineupIsLocked",
      "outputs": [
        {
          "internalType": "bool",
          "name": "",
          "type": "bool"
        }
      ],
      "stateMutability": "view",
      "type": "function"
    },
    {
      "inputs": [],
      "name": "lockLineup",
      "outputs": [],
      "stateMutability": "nonpayable",
      "type": "function"
    },
    {
      "inputs": [],
      "name": "numWeeks",
      "outputs": [
        {
          "internalType": "uint256",
          "name": "",
          "type": "uint256"
        }
      ],
      "stateMutability": "view",
      "type": "function"
    },
    {
      "inputs": [],
      "name": "onLeagueEnd",
      "outputs": [],
      "stateMutability": "nonpayable",
      "type": "function"
    },
    {
      "inputs": [],
      "name": "owner",
      "outputs": [
        {
          "internalType": "address",
          "name": "",
          "type": "address"
        }
      ],
      "stateMutability": "view",
      "type": "function"
    },
    {
      "inputs": [],
      "name": "polygonUSDCAddress",
      "outputs": [
        {
          "internalType": "address",
          "name": "",
          "type": "address"
        }
      ],
      "stateMutability": "view",
      "type": "function"
    },
    {
      "inputs": [
        {
          "internalType": "address",
          "name": "addr",
          "type": "address"
        }
      ],
      "name": "removeAddressFromWhitelist",
      "outputs": [
        {
          "internalType": "bool",
          "name": "success",
          "type": "bool"
        }
      ],
      "stateMutability": "nonpayable",
      "type": "function"
    },
    {
      "inputs": [
        {
          "internalType": "address[]",
          "name": "addrs",
          "type": "address[]"
        }
      ],
      "name": "removeAddressesFromWhitelist",
      "outputs": [
        {
          "internalType": "bool",
          "name": "success",
          "type": "bool"
        }
      ],
      "stateMutability": "nonpayable",
      "type": "function"
    },
    {
      "inputs": [
        {
          "internalType": "address",
          "name": "_userToRemove",
          "type": "address"
        }
      ],
      "name": "removeFromWhitelist",
      "outputs": [],
      "stateMutability": "nonpayable",
      "type": "function"
    },
    {
      "inputs": [],
      "name": "renounceOwnership",
      "outputs": [],
      "stateMutability": "nonpayable",
      "type": "function"
    },
    {
      "inputs": [],
      "name": "rinkebyUSDCAddress",
      "outputs": [
        {
          "internalType": "address",
          "name": "",
          "type": "address"
        }
      ],
      "stateMutability": "view",
      "type": "function"
    },
    {
      "inputs": [],
      "name": "setLeagueEntryIsClosed",
      "outputs": [],
      "stateMutability": "nonpayable",
      "type": "function"
    },
    {
      "inputs": [],
      "name": "setLeagueSchedule",
      "outputs": [],
      "stateMutability": "nonpayable",
      "type": "function"
    },
    {
      "inputs": [
        {
          "internalType": "uint256[]",
          "name": "athleteIds",
          "type": "uint256[]"
        }
      ],
      "name": "setLineup",
      "outputs": [],
      "stateMutability": "nonpayable",
      "type": "function"
    },
    {
      "inputs": [],
      "name": "stakeAmount",
      "outputs": [
        {
          "internalType": "uint256",
          "name": "",
          "type": "uint256"
        }
      ],
      "stateMutability": "view",
      "type": "function"
    },
    {
      "inputs": [],
      "name": "teamDiffAddress",
      "outputs": [
        {
          "internalType": "address",
          "name": "",
          "type": "address"
        }
      ],
      "stateMutability": "view",
      "type": "function"
    },
    {
      "inputs": [],
      "name": "testUSDC",
      "outputs": [
        {
          "internalType": "contract IERC20",
          "name": "",
          "type": "address"
        }
      ],
      "stateMutability": "view",
      "type": "function"
    },
    {
      "inputs": [
        {
          "internalType": "address",
          "name": "newOwner",
          "type": "address"
        }
      ],
      "name": "transferOwnership",
      "outputs": [],
      "stateMutability": "nonpayable",
      "type": "function"
    },
    {
      "inputs": [],
      "name": "unlockLineup",
      "outputs": [],
      "stateMutability": "nonpayable",
      "type": "function"
    },
    {
      "inputs": [
        {
          "internalType": "address",
          "name": "",
          "type": "address"
        },
        {
          "internalType": "uint256",
          "name": "",
          "type": "uint256"
        }
      ],
      "name": "userToLineup",
      "outputs": [
        {
          "internalType": "uint256",
          "name": "",
          "type": "uint256"
        }
      ],
      "stateMutability": "view",
      "type": "function"
    },
    {
      "inputs": [
        {
          "internalType": "address",
          "name": "",
          "type": "address"
        },
        {
          "internalType": "uint256",
          "name": "",
          "type": "uint256"
        }
      ],
      "name": "userToRecord",
      "outputs": [
        {
          "internalType": "uint256",
          "name": "",
          "type": "uint256"
        }
      ],
      "stateMutability": "view",
      "type": "function"
    },
    {
      "inputs": [
        {
          "internalType": "address",
          "name": "",
          "type": "address"
        }
      ],
      "name": "userToTotalWins",
      "outputs": [
        {
          "internalType": "uint256",
          "name": "",
          "type": "uint256"
        }
      ],
      "stateMutability": "view",
      "type": "function"
    },
    {
      "inputs": [
        {
          "internalType": "address",
          "name": "",
          "type": "address"
        }
      ],
      "name": "whitelist",
      "outputs": [
        {
          "internalType": "bool",
          "name": "",
          "type": "bool"
        }
      ],
      "stateMutability": "view",
      "type": "function"
    }
  ],
  "bytecode": "0x60806040523480156200001157600080fd5b5062000032620000266200004060201b60201c565b6200004860201b60201c565b60016004819055506200010d565b600033905090565b60008060029054906101000a900473ffffffffffffffffffffffffffffffffffffffff16905081600060026101000a81548173ffffffffffffffffffffffffffffffffffffffff021916908373ffffffffffffffffffffffffffffffffffffffff1602179055508173ffffffffffffffffffffffffffffffffffffffff168173ffffffffffffffffffffffffffffffffffffffff167f8be0079c531659141344cd1fd0a4f28419497f9722a3daafe3b4186f6b6457e060405160405180910390a35050565b6155bc806200011d6000396000f3fe60806040523480156200001157600080fd5b5060043610620002975760003560e01c80637eed33f11162000165578063c99fea9411620000d5578063e4c9066b1162000093578063e4c9066b146200078c578063edcbe96c1462000798578063f2fde38b14620007ce578063f612121a14620007ee578063f851a440146200080e578063f881604514620008305762000297565b8063c99fea9414620006bc578063cff5600314620006c8578063dc9a153514620006fe578063e2ec6ec31462000720578063e35a899914620007565762000297565b80639122ce6d11620001235780639122ce6d146200061657806393f3706c146200064c5780639b19251a146200066e578063a2bc091a14620006a4578063c8be3b5b14620006b05762000297565b80637eed33f11462000584578063841abf6e14620005a657806385334ffa14620005c85780638ab1d68114620005d45780638da5cb5b14620005f45762000297565b8063286dd3f5116200020d57806360c7dc4711620001cb57806360c7dc4714620004bc5780636bdc44df14620004de5780636cc15ad51462000500578063715018a61462000522578063747b8050146200052e5780637b9417c8146200054e5762000297565b8063286dd3f514620004005780633c3ae13f146200043657806344eaa84e1462000456578063595b1a3e14620004785780635fcc6987146200049a5762000297565b80631d803e00116200025b5780631d803e0014620003445780631dd7f8ca146200035057806324953eaa1462000372578063267175db14620003a857806327311b3214620003de5762000297565b8062b2476f146200029c578063022e35e614620002be5780630635dbcb14620002e05780630655465a14620003025780630c6f7959146200030e575b600080fd5b620002a662000852565b604051620002b591906200389f565b60405180910390f35b620002c862000878565b604051620002d7919062003985565b60405180910390f35b620002ea6200089e565b604051620002f9919062003968565b60405180910390f35b6200030c620008b1565b005b6200032c600480360381019062000326919062003144565b620009fc565b6040516200033b919062003c85565b60405180910390f35b6200034e62000a25565b005b6200035a62000cd3565b6040516200036991906200389f565b60405180910390f35b6200039060048036038101906200038a91906200318b565b62000cf9565b6040516200039f919062003968565b60405180910390f35b620003c66004803603810190620003c0919062003379565b62000df6565b604051620003d591906200389f565b60405180910390f35b620003e862000e36565b604051620003f7919062003968565b60405180910390f35b6200041e600480360381019062000418919062003112565b62000e4d565b6040516200042d919062003968565b60405180910390f35b6200045460048036038101906200044e91906200325f565b62000fdc565b005b6200046062001475565b6040516200046f919062003c85565b60405180910390f35b620004826200147f565b60405162000491919062003c85565b60405180910390f35b620004a46200148c565b604051620004b3919062003c85565b60405180910390f35b620004c66200159b565b604051620004d5919062003c85565b60405180910390f35b620004e8620015a1565b604051620004f7919062003c85565b60405180910390f35b6200050a620015e8565b60405162000519919062003968565b60405180910390f35b6200052c620015fb565b005b6200054c600480360381019062000546919062003112565b6200168c565b005b6200056c600480360381019062000566919062003112565b620017d6565b6040516200057b919062003968565b60405180910390f35b6200058e62001963565b6040516200059d919062003c85565b60405180910390f35b620005b062001969565b604051620005bf919062003a63565b60405180910390f35b620005d2620019ff565b005b620005f26004803603810190620005ec919062003112565b62001bd8565b005b620005fe62001d75565b6040516200060d91906200389f565b60405180910390f35b6200063460048036038101906200062e919062003112565b62001d9e565b60405162000643919062003968565b60405180910390f35b6200065662001dbe565b6040516200066591906200389f565b60405180910390f35b6200068c600480360381019062000686919062003112565b62001de4565b6040516200069b919062003968565b60405180910390f35b620006ae62001e04565b005b620006ba62001eb4565b005b620006c662001f64565b005b620006e66004803603810190620006e0919062003144565b620023f2565b604051620006f5919062003c85565b60405180910390f35b6200070862002424565b60405162000717919062003968565b60405180910390f35b6200073e60048036038101906200073891906200318b565b62002437565b6040516200074d919062003968565b60405180910390f35b6200077460048036038101906200076e919062003112565b62002534565b60405162000783919062003968565b60405180910390f35b620007966200258a565b005b620007b66004803603810190620007b0919062003112565b6200263a565b604051620007c5919062003c85565b60405180910390f35b620007ec6004803603810190620007e6919062003112565b62002652565b005b6200080c6004803603810190620008069190620031dc565b62002756565b005b6200081862002b36565b6040516200082791906200389f565b60405180910390f35b6200083a62002b5c565b60405162000849919062003926565b60405180910390f35b601160009054906101000a900473ffffffffffffffffffffffffffffffffffffffff1681565b601560009054906101000a900473ffffffffffffffffffffffffffffffffffffffff1681565b600960159054906101000a900460ff1681565b600960009054906101000a900473ffffffffffffffffffffffffffffffffffffffff1673ffffffffffffffffffffffffffffffffffffffff163373ffffffffffffffffffffffffffffffffffffffff161462000944576040517f08c379a00000000000000000000000000000000000000000000000000000000081526004016200093b9062003bdb565b60405180910390fd5b620009846040518060400160405280601081526020017f73657474696e67207363686564756c650000000000000000000000000000000081525062002be8565b73__$36fdb4e0c2cb91f3ceca5ea81b025328f3$__63d2c232b5600f600e60065460056040518563ffffffff1660e01b8152600401620009c89493929190620039a2565b60006040518083038186803b158015620009e157600080fd5b505af4158015620009f6573d6000803e3d6000fd5b50505050565b600b602052816000526040600020816008811062000a1957600080fd5b01600091509150505481565b6002600454141562000a6e576040517f08c379a000000000000000000000000000000000000000000000000000000000815260040162000a659062003c41565b60405180910390fd5b60026004819055506000600e8054905060075462000a8d919062003e2e565b90506000600e60008154811062000aa95762000aa8620040b2565b5b9060005260206000200160009054906101000a900473ffffffffffffffffffffffffffffffffffffffff1690506000600190505b600e8054905081101562000c0e57600a60008373ffffffffffffffffffffffffffffffffffffffff1673ffffffffffffffffffffffffffffffffffffffff16815260200190815260200160002054600a6000600e848154811062000b465762000b45620040b2565b5b9060005260206000200160009054906101000a900473ffffffffffffffffffffffffffffffffffffffff1673ffffffffffffffffffffffffffffffffffffffff1673ffffffffffffffffffffffffffffffffffffffff16815260200190815260200160002054111562000bf857600e818154811062000bca5762000bc9620040b2565b5b9060005260206000200160009054906101000a900473ffffffffffffffffffffffffffffffffffffffff1691505b808062000c059062004006565b91505062000add565b50601560009054906101000a900473ffffffffffffffffffffffffffffffffffffffff1673ffffffffffffffffffffffffffffffffffffffff166323b872dd3083856040518463ffffffff1660e01b815260040162000c7093929190620038bc565b602060405180830381600087803b15801562000c8b57600080fd5b505af115801562000ca0573d6000803e3d6000fd5b505050506040513d601f19601f8201168201806040525081019062000cc691906200322d565b5050506001600481905550565b600960009054906101000a900473ffffffffffffffffffffffffffffffffffffffff1681565b600062000d0562002c85565b73ffffffffffffffffffffffffffffffffffffffff1662000d2562001d75565b73ffffffffffffffffffffffffffffffffffffffff161462000d7e576040517f08c379a000000000000000000000000000000000000000000000000000000000815260040162000d759062003b97565b60405180910390fd5b60005b825181101562000df05762000db383828151811062000da55762000da4620040b2565b5b602002602001015162000e4d565b1562000dda5760016002600082825462000dce919062003e8f565b92505081905550600191505b808062000de79062004006565b91505062000d81565b50919050565b600e818154811062000e0757600080fd5b906000526020600020016000915054906101000a900473ffffffffffffffffffffffffffffffffffffffff1681565b6000600960159054906101000a900460ff16905090565b600062000e5962002c85565b73ffffffffffffffffffffffffffffffffffffffff1662000e7962001d75565b73ffffffffffffffffffffffffffffffffffffffff161462000ed2576040517f08c379a000000000000000000000000000000000000000000000000000000000815260040162000ec99062003b97565b60405180910390fd5b600160008373ffffffffffffffffffffffffffffffffffffffff1673ffffffffffffffffffffffffffffffffffffffff16815260200190815260200160002060009054906101000a900460ff161562000fd7576000600160008473ffffffffffffffffffffffffffffffffffffffff1673ffffffffffffffffffffffffffffffffffffffff16815260200190815260200160002060006101000a81548160ff0219169083151502179055507ff1abf01a1043b7c244d128e8595cf0c1d10743b022b03a02dffd8ca3bf729f5a8260405162000fae91906200389f565b60405180910390a160016002600082825462000fcb919062003e8f565b92505081905550600190505b919050565b600060019054906101000a900460ff16620010065760008054906101000a900460ff161562001011565b6200101062002c8d565b5b62001053576040517f08c379a00000000000000000000000000000000000000000000000000000000081526004016200104a9062003b75565b60405180910390fd5b60008060019054906101000a900460ff161590508015620010a4576001600060016101000a81548160ff02191690831515021790555060016000806101000a81548160ff0219169083151502179055505b8b8b60059190620010b792919062002db1565b5060086006819055506001600d60008973ffffffffffffffffffffffffffffffffffffffff1673ffffffffffffffffffffffffffffffffffffffff16815260200190815260200160002060006101000a81548160ff021916908315150217905550600e879080600181540180825580915050600190039060005260206000200160009091909190916101000a81548173ffffffffffffffffffffffffffffffffffffffff021916908373ffffffffffffffffffffffffffffffffffffffff16021790555086600860006101000a81548173ffffffffffffffffffffffffffffffffffffffff021916908373ffffffffffffffffffffffffffffffffffffffff1602179055508960078190555088600360006101000a81548160ff0219169083151502179055506000600960146101000a81548160ff0219169083151502179055506000600960156101000a81548160ff02191690831515021790555087601260006101000a81548173ffffffffffffffffffffffffffffffffffffffff021916908373ffffffffffffffffffffffffffffffffffffffff16021790555081601460006101000a81548173ffffffffffffffffffffffffffffffffffffffff021916908373ffffffffffffffffffffffffffffffffffffffff160217905550604051620012a39062002e42565b604051809103906000f080158015620012c0573d6000803e3d6000fd5b50601360006101000a81548173ffffffffffffffffffffffffffffffffffffffff021916908373ffffffffffffffffffffffffffffffffffffffff16021790555085601060006101000a81548173ffffffffffffffffffffffffffffffffffffffff021916908373ffffffffffffffffffffffffffffffffffffffff16021790555084601160006101000a81548173ffffffffffffffffffffffffffffffffffffffff021916908373ffffffffffffffffffffffffffffffffffffffff16021790555083601560006101000a81548173ffffffffffffffffffffffffffffffffffffffff021916908373ffffffffffffffffffffffffffffffffffffffff16021790555082600960006101000a81548173ffffffffffffffffffffffffffffffffffffffff021916908373ffffffffffffffffffffffffffffffffffffffff160217905550620014456040518060400160405280601281526020017f50726f787920696e697469616c697a656421000000000000000000000000000081525062002be8565b8015620014675760008060016101000a81548160ff0219169083151502179055505b505050505050505050505050565b6000600254905090565b6000600e80549050905090565b6000600d60003373ffffffffffffffffffffffffffffffffffffffff1673ffffffffffffffffffffffffffffffffffffffff16815260200190815260200160002060009054906101000a900460ff16620014e557600080fd5b601560009054906101000a900473ffffffffffffffffffffffffffffffffffffffff1673ffffffffffffffffffffffffffffffffffffffff166370a08231336040518263ffffffff1660e01b81526004016200154291906200389f565b60206040518083038186803b1580156200155b57600080fd5b505afa15801562001570573d6000803e3d6000fd5b505050506040513d601f19601f82011682018060405250810190620015969190620033ab565b905090565b60075481565b6000600a60003373ffffffffffffffffffffffffffffffffffffffff1673ffffffffffffffffffffffffffffffffffffffff16815260200190815260200160002054905090565b600960149054906101000a900460ff1681565b6200160562002c85565b73ffffffffffffffffffffffffffffffffffffffff166200162562001d75565b73ffffffffffffffffffffffffffffffffffffffff16146200167e576040517f08c379a0000000000000000000000000000000000000000000000000000000008152600401620016759062003b97565b60405180910390fd5b6200168a600062002ca0565b565b600860009054906101000a900473ffffffffffffffffffffffffffffffffffffffff1673ffffffffffffffffffffffffffffffffffffffff163373ffffffffffffffffffffffffffffffffffffffff16146200171f576040517f08c379a0000000000000000000000000000000000000000000000000000000008152600401620017169062003bb9565b60405180910390fd5b601360009054906101000a900473ffffffffffffffffffffffffffffffffffffffff1673ffffffffffffffffffffffffffffffffffffffff16637b9417c8826040518263ffffffff1660e01b81526004016200177c91906200389f565b602060405180830381600087803b1580156200179757600080fd5b505af1158015620017ac573d6000803e3d6000fd5b505050506040513d601f19601f82011682018060405250810190620017d291906200322d565b5050565b6000620017e262002c85565b73ffffffffffffffffffffffffffffffffffffffff166200180262001d75565b73ffffffffffffffffffffffffffffffffffffffff16146200185b576040517f08c379a0000000000000000000000000000000000000000000000000000000008152600401620018529062003b97565b60405180910390fd5b600160008373ffffffffffffffffffffffffffffffffffffffff1673ffffffffffffffffffffffffffffffffffffffff16815260200190815260200160002060009054906101000a900460ff166200195e5760018060008473ffffffffffffffffffffffffffffffffffffffff1673ffffffffffffffffffffffffffffffffffffffff16815260200190815260200160002060006101000a81548160ff0219169083151502179055507fd1bba68c128cc3f427e5831b3c6f99f480b6efa6b9e80c757768f6124158cc3f826040516200193591906200389f565b60405180910390a160016002600082825462001952919062003dd1565b92505081905550600190505b919050565b60065481565b60058054620019789062003f9a565b80601f0160208091040260200160405190810160405280929190818152602001828054620019a69062003f9a565b8015620019f75780601f10620019cb57610100808354040283529160200191620019f7565b820191906000526020600020905b815481529060010190602001808311620019d957829003601f168201915b505050505081565b600960009054906101000a900473ffffffffffffffffffffffffffffffffffffffff1673ffffffffffffffffffffffffffffffffffffffff163373ffffffffffffffffffffffffffffffffffffffff161462001a92576040517f08c379a000000000000000000000000000000000000000000000000000000000815260040162001a899062003bdb565b60405180910390fd5b6000601460009054906101000a900473ffffffffffffffffffffffffffffffffffffffff1673ffffffffffffffffffffffffffffffffffffffff166306575c896040518163ffffffff1660e01b815260040160206040518083038186803b15801562001afd57600080fd5b505afa15801562001b12573d6000803e3d6000fd5b505050506040513d601f19601f8201168201806040525081019062001b389190620033ab565b905073__$36fdb4e0c2cb91f3ceca5ea81b025328f3$__63c406e268600f83601260009054906101000a900473ffffffffffffffffffffffffffffffffffffffff16600b600a600c6040518763ffffffff1660e01b815260040162001ba396959493929190620039f6565b60006040518083038186803b15801562001bbc57600080fd5b505af415801562001bd1573d6000803e3d6000fd5b5050505050565b600860009054906101000a900473ffffffffffffffffffffffffffffffffffffffff1673ffffffffffffffffffffffffffffffffffffffff163373ffffffffffffffffffffffffffffffffffffffff161462001c6b576040517f08c379a000000000000000000000000000000000000000000000000000000000815260040162001c629062003bb9565b60405180910390fd5b600960149054906101000a900460ff161562001cbe576040517f08c379a000000000000000000000000000000000000000000000000000000000815260040162001cb59062003c1f565b60405180910390fd5b601360009054906101000a900473ffffffffffffffffffffffffffffffffffffffff1673ffffffffffffffffffffffffffffffffffffffff1663286dd3f5826040518263ffffffff1660e01b815260040162001d1b91906200389f565b602060405180830381600087803b15801562001d3657600080fd5b505af115801562001d4b573d6000803e3d6000fd5b505050506040513d601f19601f8201168201806040525081019062001d7191906200322d565b5050565b60008060029054906101000a900473ffffffffffffffffffffffffffffffffffffffff16905090565b600d6020528060005260406000206000915054906101000a900460ff1681565b601060009054906101000a900473ffffffffffffffffffffffffffffffffffffffff1681565b60016020528060005260406000206000915054906101000a900460ff1681565b600960009054906101000a900473ffffffffffffffffffffffffffffffffffffffff1673ffffffffffffffffffffffffffffffffffffffff163373ffffffffffffffffffffffffffffffffffffffff161462001e97576040517f08c379a000000000000000000000000000000000000000000000000000000000815260040162001e8e9062003bdb565b60405180910390fd5b6000600960156101000a81548160ff021916908315150217905550565b600960009054906101000a900473ffffffffffffffffffffffffffffffffffffffff1673ffffffffffffffffffffffffffffffffffffffff163373ffffffffffffffffffffffffffffffffffffffff161462001f47576040517f08c379a000000000000000000000000000000000000000000000000000000000815260040162001f3e9062003bdb565b60405180910390fd5b6001600960156101000a81548160ff021916908315150217905550565b600160003373ffffffffffffffffffffffffffffffffffffffff1673ffffffffffffffffffffffffffffffffffffffff16815260200190815260200160002060009054906101000a900460ff168062001fc95750600360009054906101000a900460ff165b6200200b576040517f08c379a0000000000000000000000000000000000000000000000000000000008152600401620020029062003aed565b60405180910390fd5b6002600454141562002054576040517f08c379a00000000000000000000000000000000000000000000000000000000081526004016200204b9062003c41565b60405180910390fd5b6002600481905550600960149054906101000a900460ff1615620020af576040517f08c379a0000000000000000000000000000000000000000000000000000000008152600401620020a69062003c63565b60405180910390fd5b600d60003373ffffffffffffffffffffffffffffffffffffffff1673ffffffffffffffffffffffffffffffffffffffff16815260200190815260200160002060009054906101000a900460ff16156200213f576040517f08c379a0000000000000000000000000000000000000000000000000000000008152600401620021369062003acb565b60405180910390fd5b600754601560009054906101000a900473ffffffffffffffffffffffffffffffffffffffff1673ffffffffffffffffffffffffffffffffffffffff166370a08231336040518263ffffffff1660e01b81526004016200219f91906200389f565b60206040518083038186803b158015620021b857600080fd5b505afa158015620021cd573d6000803e3d6000fd5b505050506040513d601f19601f82011682018060405250810190620021f39190620033ab565b1162002236576040517f08c379a00000000000000000000000000000000000000000000000000000000081526004016200222d9062003aa9565b60405180910390fd5b6001600d60003373ffffffffffffffffffffffffffffffffffffffff1673ffffffffffffffffffffffffffffffffffffffff16815260200190815260200160002060006101000a81548160ff021916908315150217905550600e339080600181540180825580915050600190039060005260206000200160009091909190916101000a81548173ffffffffffffffffffffffffffffffffffffffff021916908373ffffffffffffffffffffffffffffffffffffffff160217905550601560009054906101000a900473ffffffffffffffffffffffffffffffffffffffff1673ffffffffffffffffffffffffffffffffffffffff166323b872dd33306007546040518463ffffffff1660e01b81526004016200235493929190620038bc565b602060405180830381600087803b1580156200236f57600080fd5b505af115801562002384573d6000803e3d6000fd5b505050506040513d601f19601f82011682018060405250810190620023aa91906200322d565b507f9e71bc8eea02a63969f509818f2dafb9254532904319f9dbda79b67bd34a5f3d33600754604051620023e0929190620038f9565b60405180910390a16001600481905550565b600c60205281600052604060002081815481106200240f57600080fd5b90600052602060002001600091509150505481565b600360009054906101000a900460ff1681565b60006200244362002c85565b73ffffffffffffffffffffffffffffffffffffffff166200246362001d75565b73ffffffffffffffffffffffffffffffffffffffff1614620024bc576040517f08c379a0000000000000000000000000000000000000000000000000000000008152600401620024b39062003b97565b60405180910390fd5b60005b82518110156200252e57620024f1838281518110620024e357620024e2620040b2565b5b6020026020010151620017d6565b1562002518576001600260008282546200250c919062003dd1565b92505081905550600191505b8080620025259062004006565b915050620024bf565b50919050565b6000600160008373ffffffffffffffffffffffffffffffffffffffff1673ffffffffffffffffffffffffffffffffffffffff16815260200190815260200160002060009054906101000a900460ff169050919050565b600960009054906101000a900473ffffffffffffffffffffffffffffffffffffffff1673ffffffffffffffffffffffffffffffffffffffff163373ffffffffffffffffffffffffffffffffffffffff16146200261d576040517f08c379a0000000000000000000000000000000000000000000000000000000008152600401620026149062003bdb565b60405180910390fd5b6001600960146101000a81548160ff021916908315150217905550565b600a6020528060005260406000206000915090505481565b6200265c62002c85565b73ffffffffffffffffffffffffffffffffffffffff166200267c62001d75565b73ffffffffffffffffffffffffffffffffffffffff1614620026d5576040517f08c379a0000000000000000000000000000000000000000000000000000000008152600401620026cc9062003b97565b60405180910390fd5b600073ffffffffffffffffffffffffffffffffffffffff168173ffffffffffffffffffffffffffffffffffffffff16141562002748576040517f08c379a00000000000000000000000000000000000000000000000000000000081526004016200273f9062003a87565b60405180910390fd5b620027538162002ca0565b50565b600960159054906101000a900460ff1615620027a9576040517f08c379a0000000000000000000000000000000000000000000000000000000008152600401620027a09062003b53565b60405180910390fd5b600d60003373ffffffffffffffffffffffffffffffffffffffff1673ffffffffffffffffffffffffffffffffffffffff16815260200190815260200160002060009054906101000a900460ff1662002838576040517f08c379a00000000000000000000000000000000000000000000000000000000081526004016200282f9062003bfd565b60405180910390fd5b6000601460009054906101000a900473ffffffffffffffffffffffffffffffffffffffff1673ffffffffffffffffffffffffffffffffffffffff166306575c896040518163ffffffff1660e01b815260040160206040518083038186803b158015620028a357600080fd5b505afa158015620028b8573d6000803e3d6000fd5b505050506040513d601f19601f82011682018060405250810190620028de9190620033ab565b9050600073__$36fdb4e0c2cb91f3ceca5ea81b025328f3$__633e7d2702846040518263ffffffff1660e01b81526004016200291b919062003944565b60206040518083038186803b1580156200293457600080fd5b505af415801562002949573d6000803e3d6000fd5b505050506040513d601f19601f820116820180604052508101906200296f91906200322d565b905080620029b4576040517f08c379a0000000000000000000000000000000000000000000000000000000008152600401620029ab9062003b0f565b60405180910390fd5b60005b835181101562002a9a57600a81620029d0919062003e2e565b848281518110620029e657620029e5620040b2565b5b602002602001015111801562002a4257506001600a60018362002a0a919062003dd1565b62002a16919062003e2e565b62002a22919062003e8f565b84828151811062002a385762002a37620040b2565b5b6020026020010151105b62002a84576040517f08c379a000000000000000000000000000000000000000000000000000000000815260040162002a7b9062003b31565b60405180910390fd5b808062002a919062004006565b915050620029b7565b5062002adb6040518060400160405280601c81526020017f41626f757420746f20736574206174686c657465206c696e657570210000000081525062002be8565b82600c60003373ffffffffffffffffffffffffffffffffffffffff1673ffffffffffffffffffffffffffffffffffffffff168152602001908152602001600020908051906020019062002b3092919062002e50565b50505050565b600860009054906101000a900473ffffffffffffffffffffffffffffffffffffffff1681565b62002b6662002ea2565b600b60003373ffffffffffffffffffffffffffffffffffffffff1673ffffffffffffffffffffffffffffffffffffffff16815260200190815260200160002060088060200260405190810160405280929190826008801562002bde576020028201915b81548152602001906001019080831162002bc9575b5050505050905090565b62002c828160405160240162002bff919062003a63565b6040516020818303038152906040527f41304fac000000000000000000000000000000000000000000000000000000007bffffffffffffffffffffffffffffffffffffffffffffffffffffffff19166020820180517bffffffffffffffffffffffffffffffffffffffffffffffffffffffff838183161783525050505062002d65565b50565b600033905090565b600062002c9a3062002d8e565b15905090565b60008060029054906101000a900473ffffffffffffffffffffffffffffffffffffffff16905081600060026101000a81548173ffffffffffffffffffffffffffffffffffffffff021916908373ffffffffffffffffffffffffffffffffffffffff1602179055508173ffffffffffffffffffffffffffffffffffffffff168173ffffffffffffffffffffffffffffffffffffffff167f8be0079c531659141344cd1fd0a4f28419497f9722a3daafe3b4186f6b6457e060405160405180910390a35050565b60008151905060006a636f6e736f6c652e6c6f679050602083016000808483855afa5050505050565b6000808273ffffffffffffffffffffffffffffffffffffffff163b119050919050565b82805462002dbf9062003f9a565b90600052602060002090601f01602090048101928262002de3576000855562002e2f565b82601f1062002dfe57803560ff191683800117855562002e2f565b8280016001018555821562002e2f579182015b8281111562002e2e57823582559160200191906001019062002e11565b5b50905062002e3e919062002ec5565b5090565b61108d80620044fa83390190565b82805482825590600052602060002090810192821562002e8f579160200282015b8281111562002e8e57825182559160200191906001019062002e71565b5b50905062002e9e919062002ec5565b5090565b604051806101000160405280600890602082028036833780820191505090505090565b5b8082111562002ee057600081600090555060010162002ec6565b5090565b600062002efb62002ef58462003ccb565b62003ca2565b9050808382526020820190508285602086028201111562002f215762002f206200411a565b5b60005b8581101562002f55578162002f3a888262002fda565b84526020840193506020830192505060018101905062002f24565b5050509392505050565b600062002f7662002f708462003cfa565b62003ca2565b9050808382526020820190508285602086028201111562002f9c5762002f9b6200411a565b5b60005b8581101562002fd0578162002fb58882620030e4565b84526020840193506020830192505060018101905062002f9f565b5050509392505050565b60008135905062002feb81620044ab565b92915050565b600082601f83011262003009576200300862004115565b5b81356200301b84826020860162002ee4565b91505092915050565b600082601f8301126200303c576200303b62004115565b5b81356200304e84826020860162002f5f565b91505092915050565b6000813590506200306881620044c5565b92915050565b6000815190506200307f81620044c5565b92915050565b60008083601f8401126200309e576200309d62004115565b5b8235905067ffffffffffffffff811115620030be57620030bd62004110565b5b602083019150836001820283011115620030dd57620030dc6200411a565b5b9250929050565b600081359050620030f581620044df565b92915050565b6000815190506200310c81620044df565b92915050565b6000602082840312156200312b576200312a62004124565b5b60006200313b8482850162002fda565b91505092915050565b600080604083850312156200315e576200315d62004124565b5b60006200316e8582860162002fda565b92505060206200318185828601620030e4565b9150509250929050565b600060208284031215620031a457620031a362004124565b5b600082013567ffffffffffffffff811115620031c557620031c46200411f565b5b620031d38482850162002ff1565b91505092915050565b600060208284031215620031f557620031f462004124565b5b600082013567ffffffffffffffff8111156200321657620032156200411f565b5b620032248482850162003024565b91505092915050565b60006020828403121562003246576200324562004124565b5b600062003256848285016200306e565b91505092915050565b60008060008060008060008060008060006101408c8e03121562003288576200328762004124565b5b60008c013567ffffffffffffffff811115620032a957620032a86200411f565b5b620032b78e828f0162003085565b9b509b50506020620032cc8e828f01620030e4565b9950506040620032df8e828f0162003057565b9850506060620032f28e828f0162002fda565b9750506080620033058e828f0162002fda565b96505060a0620033188e828f0162002fda565b95505060c06200332b8e828f0162002fda565b94505060e06200333e8e828f0162002fda565b935050610100620033528e828f0162002fda565b925050610120620033668e828f0162002fda565b9150509295989b509295989b9093969950565b60006020828403121562003392576200339162004124565b5b6000620033a284828501620030e4565b91505092915050565b600060208284031215620033c457620033c362004124565b5b6000620033d484828501620030fb565b91505092915050565b6000620033eb83836200385b565b60208301905092915050565b60006200340583836200388e565b60208301905092915050565b6200341c8162003eca565b82525050565b8082525050565b620034348162003d58565b62003440818462003d93565b92506200344d8262003d29565b8060005b8381101562003484578151620034688782620033dd565b9650620034758362003d79565b92505060018101905062003451565b505050505050565b6000620034998262003d63565b620034a5818562003d9e565b9350620034b28362003d33565b8060005b83811015620034e9578151620034cd8882620033f7565b9750620034da8362003d86565b925050600181019050620034b6565b5085935050505092915050565b620035018162003ede565b82525050565b620035128162003f14565b82525050565b620035238162003f28565b82525050565b8082525050565b8082525050565b8082525050565b8082525050565b6000620035528262003d6e565b6200355e818562003daf565b93506200357081856020860162003f64565b6200357b8162004129565b840191505092915050565b60008154620035958162003f9a565b620035a1818662003dc0565b94506001821660008114620035bf5760018114620035d25762003609565b60ff198316865260208601935062003609565b620035dd8562003d43565b60005b838110156200360157815481890152600182019150602081019050620035e0565b808801955050505b50505092915050565b60006200362160268362003daf565b91506200362e826200413a565b604082019050919050565b600062003648601d8362003daf565b9150620036558262004189565b602082019050919050565b60006200366f60238362003daf565b91506200367c82620041b2565b604082019050919050565b600062003696601a8362003daf565b9150620036a38262004201565b602082019050919050565b6000620036bd60258362003daf565b9150620036ca826200422a565b604082019050919050565b6000620036e460318362003daf565b9150620036f18262004279565b604082019050919050565b60006200370b601e8362003daf565b91506200371882620042c8565b602082019050919050565b600062003732602e8362003daf565b91506200373f82620042f1565b604082019050919050565b60006200375960208362003daf565b9150620037668262004340565b602082019050919050565b60006200378060178362003daf565b91506200378d8262004369565b602082019050919050565b6000620037a760168362003daf565b9150620037b48262004392565b602082019050919050565b6000620037ce60168362003daf565b9150620037db82620043bb565b602082019050919050565b6000620037f560418362003daf565b91506200380282620043e4565b606082019050919050565b60006200381c601f8362003daf565b9150620038298262004459565b602082019050919050565b60006200384360178362003daf565b9150620038508262004482565b602082019050919050565b620038668162003f0a565b82525050565b620038778162003f0a565b82525050565b620038888162003f0a565b82525050565b620038998162003f0a565b82525050565b6000602082019050620038b6600083018462003411565b92915050565b6000606082019050620038d3600083018662003411565b620038e2602083018562003411565b620038f160408301846200386c565b949350505050565b600060408201905062003910600083018562003411565b6200391f60208301846200386c565b9392505050565b6000610100820190506200393e600083018462003429565b92915050565b600060208201905081810360008301526200396081846200348c565b905092915050565b60006020820190506200397f6000830184620034f6565b92915050565b60006020820190506200399c600083018462003518565b92915050565b6000608082019050620039b960008301876200353e565b620039c8602083018662003422565b620039d760408301856200387d565b8181036060830152620039eb818462003586565b905095945050505050565b600060c08201905062003a0d60008301896200353e565b62003a1c60208301886200387d565b62003a2b604083018762003507565b62003a3a606083018662003529565b62003a49608083018562003537565b62003a5860a083018462003530565b979650505050505050565b6000602082019050818103600083015262003a7f818462003545565b905092915050565b6000602082019050818103600083015262003aa28162003612565b9050919050565b6000602082019050818103600083015262003ac48162003639565b9050919050565b6000602082019050818103600083015262003ae68162003660565b9050919050565b6000602082019050818103600083015262003b088162003687565b9050919050565b6000602082019050818103600083015262003b2a81620036ae565b9050919050565b6000602082019050818103600083015262003b4c81620036d5565b9050919050565b6000602082019050818103600083015262003b6e81620036fc565b9050919050565b6000602082019050818103600083015262003b908162003723565b9050919050565b6000602082019050818103600083015262003bb2816200374a565b9050919050565b6000602082019050818103600083015262003bd48162003771565b9050919050565b6000602082019050818103600083015262003bf68162003798565b9050919050565b6000602082019050818103600083015262003c1881620037bf565b9050919050565b6000602082019050818103600083015262003c3a81620037e6565b9050919050565b6000602082019050818103600083015262003c5c816200380d565b9050919050565b6000602082019050818103600083015262003c7e8162003834565b9050919050565b600060208201905062003c9c60008301846200386c565b92915050565b600062003cae62003cc1565b905062003cbc828262003fd0565b919050565b6000604051905090565b600067ffffffffffffffff82111562003ce95762003ce8620040e1565b5b602082029050602081019050919050565b600067ffffffffffffffff82111562003d185762003d17620040e1565b5b602082029050602081019050919050565b6000819050919050565b6000819050602082019050919050565b60008190508160005260206000209050919050565b600060089050919050565b600081519050919050565b600081519050919050565b6000602082019050919050565b6000602082019050919050565b600081905092915050565b600082825260208201905092915050565b600082825260208201905092915050565b600082825260208201905092915050565b600062003dde8262003f0a565b915062003deb8362003f0a565b9250827fffffffffffffffffffffffffffffffffffffffffffffffffffffffffffffffff0382111562003e235762003e2262004054565b5b828201905092915050565b600062003e3b8262003f0a565b915062003e488362003f0a565b9250817fffffffffffffffffffffffffffffffffffffffffffffffffffffffffffffffff048311821515161562003e845762003e8362004054565b5b828202905092915050565b600062003e9c8262003f0a565b915062003ea98362003f0a565b92508282101562003ebf5762003ebe62004054565b5b828203905092915050565b600062003ed78262003eea565b9050919050565b60008115159050919050565b600073ffffffffffffffffffffffffffffffffffffffff82169050919050565b6000819050919050565b600062003f218262003f3c565b9050919050565b600062003f358262003f3c565b9050919050565b600062003f498262003f50565b9050919050565b600062003f5d8262003eea565b9050919050565b60005b8381101562003f8457808201518184015260208101905062003f67565b8381111562003f94576000848401525b50505050565b6000600282049050600182168062003fb357607f821691505b6020821081141562003fca5762003fc962004083565b5b50919050565b62003fdb8262004129565b810181811067ffffffffffffffff8211171562003ffd5762003ffc620040e1565b5b80604052505050565b6000620040138262003f0a565b91507fffffffffffffffffffffffffffffffffffffffffffffffffffffffffffffffff82141562004049576200404862004054565b5b600182019050919050565b7f4e487b7100000000000000000000000000000000000000000000000000000000600052601160045260246000fd5b7f4e487b7100000000000000000000000000000000000000000000000000000000600052602260045260246000fd5b7f4e487b7100000000000000000000000000000000000000000000000000000000600052603260045260246000fd5b7f4e487b7100000000000000000000000000000000000000000000000000000000600052604160045260246000fd5b600080fd5b600080fd5b600080fd5b600080fd5b600080fd5b6000601f19601f8301169050919050565b7f4f776e61626c653a206e6577206f776e657220697320746865207a65726f206160008201527f6464726573730000000000000000000000000000000000000000000000000000602082015250565b7f496e737566666963656e742066756e647320666f72207374616b696e67000000600082015250565b7f596f75206861766520616c7265616479206a6f696e65642074686973206c656160008201527f6775650000000000000000000000000000000000000000000000000000000000602082015250565b7f55736572206973206e6f742077686974656c6973746564203a28000000000000600082015250565b7f4475706c6963617465206174686c65746549447320617265206e6f7420616c6c60008201527f6f7765642e000000000000000000000000000000000000000000000000000000602082015250565b7f596f75206172652073657474696e6720616e206174686c65746520696e20746860008201527f652077726f6e6720706f736974696f6e21000000000000000000000000000000602082015250565b7f6c696e657570206973206c6f636b656420666f7220746865207765656b210000600082015250565b7f496e697469616c697a61626c653a20636f6e747261637420697320616c72656160008201527f647920696e697469616c697a6564000000000000000000000000000000000000602082015250565b7f4f776e61626c653a2063616c6c6572206973206e6f7420746865206f776e6572600082015250565b7f43616c6c6572206973206e6f74207468652061646d696e000000000000000000600082015250565b7f43616c6c6572206973206e6f74205465616d4469666600000000000000000000600082015250565b7f55736572206973206e6f7420696e204c65616775652e00000000000000000000600082015250565b7f4e6f626f64792063616e20656e7465722f6578697420746865206c656167756560008201527f20616e796d6f72652e2054686520736561736f6e20686173207374617274656460208201527f2100000000000000000000000000000000000000000000000000000000000000604082015250565b7f5265656e7472616e637947756172643a207265656e7472616e742063616c6c00600082015250565b7f4c656167756520456e74727920697320436c6f73656421000000000000000000600082015250565b620044b68162003eca565b8114620044c257600080fd5b50565b620044d08162003ede565b8114620044dc57600080fd5b50565b620044ea8162003f0a565b8114620044f657600080fd5b5056fe608060405234801561001057600080fd5b5061002d61002261003260201b60201c565b61003a60201b60201c565b6100fe565b600033905090565b60008060009054906101000a900473ffffffffffffffffffffffffffffffffffffffff169050816000806101000a81548173ffffffffffffffffffffffffffffffffffffffff021916908373ffffffffffffffffffffffffffffffffffffffff1602179055508173ffffffffffffffffffffffffffffffffffffffff168173ffffffffffffffffffffffffffffffffffffffff167f8be0079c531659141344cd1fd0a4f28419497f9722a3daafe3b4186f6b6457e060405160405180910390a35050565b610f808061010d6000396000f3fe608060405234801561001057600080fd5b50600436106100a95760003560e01c80638da5cb5b116100715780638da5cb5b146101665780639b19251a14610184578063dc9a1535146101b4578063e2ec6ec3146101d2578063e35a899914610202578063f2fde38b14610232576100a9565b806324953eaa146100ae578063286dd3f5146100de57806344eaa84e1461010e578063715018a61461012c5780637b9417c814610136575b600080fd5b6100c860048036038101906100c39190610b0e565b61024e565b6040516100d59190610be5565b60405180910390f35b6100f860048036038101906100f39190610ae1565b610338565b6040516101059190610be5565b60405180910390f35b6101166104bb565b6040516101239190610c40565b60405180910390f35b6101346104c5565b005b610150600480360381019061014b9190610ae1565b61054d565b60405161015d9190610be5565b60405180910390f35b61016e6106ce565b60405161017b9190610bca565b60405180910390f35b61019e60048036038101906101999190610ae1565b6106f7565b6040516101ab9190610be5565b60405180910390f35b6101bc610717565b6040516101c99190610be5565b60405180910390f35b6101ec60048036038101906101e79190610b0e565b61072a565b6040516101f99190610be5565b60405180910390f35b61021c60048036038101906102179190610ae1565b610814565b6040516102299190610be5565b60405180910390f35b61024c60048036038101906102479190610ae1565b61086a565b005b6000610258610962565b73ffffffffffffffffffffffffffffffffffffffff166102766106ce565b73ffffffffffffffffffffffffffffffffffffffff16146102cc576040517f08c379a00000000000000000000000000000000000000000000000000000000081526004016102c390610c20565b60405180910390fd5b60005b8251811015610332576102fb8382815181106102ee576102ed610e38565b5b6020026020010151610338565b1561031f576001600260008282546103139190610d13565b92505081905550600191505b808061032a90610dc0565b9150506102cf565b50919050565b6000610342610962565b73ffffffffffffffffffffffffffffffffffffffff166103606106ce565b73ffffffffffffffffffffffffffffffffffffffff16146103b6576040517f08c379a00000000000000000000000000000000000000000000000000000000081526004016103ad90610c20565b60405180910390fd5b600160008373ffffffffffffffffffffffffffffffffffffffff1673ffffffffffffffffffffffffffffffffffffffff16815260200190815260200160002060009054906101000a900460ff16156104b6576000600160008473ffffffffffffffffffffffffffffffffffffffff1673ffffffffffffffffffffffffffffffffffffffff16815260200190815260200160002060006101000a81548160ff0219169083151502179055507ff1abf01a1043b7c244d128e8595cf0c1d10743b022b03a02dffd8ca3bf729f5a8260405161048f9190610bca565b60405180910390a16001600260008282546104aa9190610d13565b92505081905550600190505b919050565b6000600254905090565b6104cd610962565b73ffffffffffffffffffffffffffffffffffffffff166104eb6106ce565b73ffffffffffffffffffffffffffffffffffffffff1614610541576040517f08c379a000000000000000000000000000000000000000000000000000000000815260040161053890610c20565b60405180910390fd5b61054b600061096a565b565b6000610557610962565b73ffffffffffffffffffffffffffffffffffffffff166105756106ce565b73ffffffffffffffffffffffffffffffffffffffff16146105cb576040517f08c379a00000000000000000000000000000000000000000000000000000000081526004016105c290610c20565b60405180910390fd5b600160008373ffffffffffffffffffffffffffffffffffffffff1673ffffffffffffffffffffffffffffffffffffffff16815260200190815260200160002060009054906101000a900460ff166106c95760018060008473ffffffffffffffffffffffffffffffffffffffff1673ffffffffffffffffffffffffffffffffffffffff16815260200190815260200160002060006101000a81548160ff0219169083151502179055507fd1bba68c128cc3f427e5831b3c6f99f480b6efa6b9e80c757768f6124158cc3f826040516106a29190610bca565b60405180910390a16001600260008282546106bd9190610cbd565b92505081905550600190505b919050565b60008060009054906101000a900473ffffffffffffffffffffffffffffffffffffffff16905090565b60016020528060005260406000206000915054906101000a900460ff1681565b600360009054906101000a900460ff1681565b6000610734610962565b73ffffffffffffffffffffffffffffffffffffffff166107526106ce565b73ffffffffffffffffffffffffffffffffffffffff16146107a8576040517f08c379a000000000000000000000000000000000000000000000000000000000815260040161079f90610c20565b60405180910390fd5b60005b825181101561080e576107d78382815181106107ca576107c9610e38565b5b602002602001015161054d565b156107fb576001600260008282546107ef9190610cbd565b92505081905550600191505b808061080690610dc0565b9150506107ab565b50919050565b6000600160008373ffffffffffffffffffffffffffffffffffffffff1673ffffffffffffffffffffffffffffffffffffffff16815260200190815260200160002060009054906101000a900460ff169050919050565b610872610962565b73ffffffffffffffffffffffffffffffffffffffff166108906106ce565b73ffffffffffffffffffffffffffffffffffffffff16146108e6576040517f08c379a00000000000000000000000000000000000000000000000000000000081526004016108dd90610c20565b60405180910390fd5b600073ffffffffffffffffffffffffffffffffffffffff168173ffffffffffffffffffffffffffffffffffffffff161415610956576040517f08c379a000000000000000000000000000000000000000000000000000000000815260040161094d90610c00565b60405180910390fd5b61095f8161096a565b50565b600033905090565b60008060009054906101000a900473ffffffffffffffffffffffffffffffffffffffff169050816000806101000a81548173ffffffffffffffffffffffffffffffffffffffff021916908373ffffffffffffffffffffffffffffffffffffffff1602179055508173ffffffffffffffffffffffffffffffffffffffff168173ffffffffffffffffffffffffffffffffffffffff167f8be0079c531659141344cd1fd0a4f28419497f9722a3daafe3b4186f6b6457e060405160405180910390a35050565b6000610a41610a3c84610c80565b610c5b565b90508083825260208201905082856020860282011115610a6457610a63610e9b565b5b60005b85811015610a945781610a7a8882610a9e565b845260208401935060208301925050600181019050610a67565b5050509392505050565b600081359050610aad81610f33565b92915050565b600082601f830112610ac857610ac7610e96565b5b8135610ad8848260208601610a2e565b91505092915050565b600060208284031215610af757610af6610ea5565b5b6000610b0584828501610a9e565b91505092915050565b600060208284031215610b2457610b23610ea5565b5b600082013567ffffffffffffffff811115610b4257610b41610ea0565b5b610b4e84828501610ab3565b91505092915050565b610b6081610d47565b82525050565b610b6f81610d59565b82525050565b6000610b82602683610cac565b9150610b8d82610ebb565b604082019050919050565b6000610ba5602083610cac565b9150610bb082610f0a565b602082019050919050565b610bc481610d85565b82525050565b6000602082019050610bdf6000830184610b57565b92915050565b6000602082019050610bfa6000830184610b66565b92915050565b60006020820190508181036000830152610c1981610b75565b9050919050565b60006020820190508181036000830152610c3981610b98565b9050919050565b6000602082019050610c556000830184610bbb565b92915050565b6000610c65610c76565b9050610c718282610d8f565b919050565b6000604051905090565b600067ffffffffffffffff821115610c9b57610c9a610e67565b5b602082029050602081019050919050565b600082825260208201905092915050565b6000610cc882610d85565b9150610cd383610d85565b9250827fffffffffffffffffffffffffffffffffffffffffffffffffffffffffffffffff03821115610d0857610d07610e09565b5b828201905092915050565b6000610d1e82610d85565b9150610d2983610d85565b925082821015610d3c57610d3b610e09565b5b828203905092915050565b6000610d5282610d65565b9050919050565b60008115159050919050565b600073ffffffffffffffffffffffffffffffffffffffff82169050919050565b6000819050919050565b610d9882610eaa565b810181811067ffffffffffffffff82111715610db757610db6610e67565b5b80604052505050565b6000610dcb82610d85565b91507fffffffffffffffffffffffffffffffffffffffffffffffffffffffffffffffff821415610dfe57610dfd610e09565b5b600182019050919050565b7f4e487b7100000000000000000000000000000000000000000000000000000000600052601160045260246000fd5b7f4e487b7100000000000000000000000000000000000000000000000000000000600052603260045260246000fd5b7f4e487b7100000000000000000000000000000000000000000000000000000000600052604160045260246000fd5b600080fd5b600080fd5b600080fd5b600080fd5b6000601f19601f8301169050919050565b7f4f776e61626c653a206e6577206f776e657220697320746865207a65726f206160008201527f6464726573730000000000000000000000000000000000000000000000000000602082015250565b7f4f776e61626c653a2063616c6c6572206973206e6f7420746865206f776e6572600082015250565b610f3c81610d47565b8114610f4757600080fd5b5056fea2646970667358221220bed30b98fd52fd06427fedf4fcef33f2521d9e36ee375e945eb6c8c8ba1d457d64736f6c63430008070033a2646970667358221220baf0e633572d31354d91f208263c20a922699fc8c65e76e278c6745092b810d164736f6c63430008070033",
  "linkReferences": {
    "contracts/MOBALogicLibrary.sol": {
      "MOBALogicLibrary": [
        {
          "length": 20,
          "start": 2723
        },
        {
          "length": 20,
          "start": 7257
        },
        {
          "length": 20,
          "start": 10753
        }
      ]
    }
  },
  "deployedLinkReferences": {
    "contracts/MOBALogicLibrary.sol": {
      "MOBALogicLibrary": [
        {
          "length": 20,
          "start": 2438
        },
        {
          "length": 20,
          "start": 6972
        },
        {
          "length": 20,
          "start": 10468
        }
      ]
    }
  }
}