{
  "_format": "hh-sol-artifact-1",
  "contractName": "LeagueOfLegendsLogic",
  "sourceName": "contracts/LeagueOfLegendsLogic.sol",
  "abi": [
    {
      "anonymous": false,
      "inputs": [
        {
          "indexed": true,
          "internalType": "address",
          "name": "previousOwner",
          "type": "address"
        },
        {
          "indexed": true,
          "internalType": "address",
          "name": "newOwner",
          "type": "address"
        }
      ],
      "name": "OwnershipTransferred",
      "type": "event"
    },
    {
      "anonymous": false,
      "inputs": [
        {
          "indexed": false,
          "internalType": "address",
          "name": "sender",
          "type": "address"
        },
        {
          "indexed": false,
          "internalType": "uint256",
          "name": "amount",
          "type": "uint256"
        }
      ],
      "name": "Staked",
      "type": "event"
    },
    {
      "anonymous": false,
      "inputs": [
        {
          "indexed": false,
          "internalType": "address",
          "name": "addr",
          "type": "address"
        }
      ],
      "name": "WhitelistedAddressAdded",
      "type": "event"
    },
    {
      "anonymous": false,
      "inputs": [
        {
          "indexed": false,
          "internalType": "address",
          "name": "addr",
          "type": "address"
        }
      ],
      "name": "WhitelistedAddressRemoved",
      "type": "event"
    },
    {
      "anonymous": false,
      "inputs": [
        {
          "indexed": false,
          "internalType": "address",
          "name": "winner",
          "type": "address"
        }
      ],
      "name": "leagueEnded",
      "type": "event"
    },
    {
      "anonymous": false,
      "inputs": [
        {
          "indexed": false,
          "internalType": "address",
          "name": "sender",
          "type": "address"
        },
        {
          "indexed": false,
          "internalType": "address",
          "name": "contractAddress",
          "type": "address"
        }
      ],
      "name": "testUSDCDeployed",
      "type": "event"
    },
    {
      "inputs": [
        {
          "internalType": "address",
          "name": "addr",
          "type": "address"
        }
      ],
      "name": "addAddressToWhitelist",
      "outputs": [
        {
          "internalType": "bool",
          "name": "success",
          "type": "bool"
        }
      ],
      "stateMutability": "nonpayable",
      "type": "function"
    },
    {
      "inputs": [
        {
          "internalType": "address[]",
          "name": "addrs",
          "type": "address[]"
        }
      ],
      "name": "addAddressesToWhitelist",
      "outputs": [
        {
          "internalType": "bool",
          "name": "success",
          "type": "bool"
        }
      ],
      "stateMutability": "nonpayable",
      "type": "function"
    },
    {
      "inputs": [
        {
          "internalType": "address",
          "name": "_userToAdd",
          "type": "address"
        }
      ],
      "name": "addUserToWhitelist",
      "outputs": [],
      "stateMutability": "nonpayable",
      "type": "function"
    },
    {
      "inputs": [],
      "name": "admin",
      "outputs": [
        {
          "internalType": "address",
          "name": "",
          "type": "address"
        }
      ],
      "stateMutability": "view",
      "type": "function"
    },
    {
      "inputs": [],
      "name": "currentWeekNum",
      "outputs": [
        {
          "internalType": "uint256",
          "name": "",
          "type": "uint256"
        }
      ],
      "stateMutability": "view",
      "type": "function"
    },
    {
      "inputs": [],
      "name": "evaluateMatches",
      "outputs": [],
      "stateMutability": "nonpayable",
      "type": "function"
    },
    {
      "inputs": [],
      "name": "getAdmin",
      "outputs": [
        {
          "internalType": "address",
          "name": "",
          "type": "address"
        }
      ],
      "stateMutability": "view",
      "type": "function"
    },
    {
      "inputs": [
        {
          "internalType": "address",
          "name": "_user",
          "type": "address"
        }
      ],
      "name": "getLineup",
      "outputs": [
        {
          "internalType": "uint256[]",
          "name": "",
          "type": "uint256[]"
        }
      ],
      "stateMutability": "view",
      "type": "function"
    },
    {
      "inputs": [],
      "name": "getLineupIsLocked",
      "outputs": [
        {
          "internalType": "bool",
          "name": "",
          "type": "bool"
        }
      ],
      "stateMutability": "view",
      "type": "function"
    },
    {
      "inputs": [],
      "name": "getNumWhitelisted",
      "outputs": [
        {
          "internalType": "uint256",
          "name": "",
          "type": "uint256"
        }
      ],
      "stateMutability": "view",
      "type": "function"
    },
    {
      "inputs": [
        {
          "internalType": "uint256",
          "name": "_week",
          "type": "uint256"
        }
      ],
      "name": "getScheduleForWeek",
      "outputs": [
        {
          "components": [
            {
              "internalType": "address[2]",
              "name": "players",
              "type": "address[2]"
            }
          ],
          "internalType": "struct LeagueOfLegendsLogic.Matchup[]",
          "name": "",
          "type": "tuple[]"
        }
      ],
      "stateMutability": "view",
      "type": "function"
    },
    {
      "inputs": [],
      "name": "getUSDCBalance",
      "outputs": [
        {
          "internalType": "uint256",
          "name": "",
          "type": "uint256"
        }
      ],
      "stateMutability": "view",
      "type": "function"
    },
    {
      "inputs": [
        {
          "internalType": "address",
          "name": "_user",
          "type": "address"
        }
      ],
      "name": "getUserIsWhitelisted",
      "outputs": [
        {
          "internalType": "bool",
          "name": "",
          "type": "bool"
        }
      ],
      "stateMutability": "view",
      "type": "function"
    },
    {
      "inputs": [],
      "name": "getUserRecord",
      "outputs": [
        {
          "internalType": "uint256[]",
          "name": "",
          "type": "uint256[]"
        }
      ],
      "stateMutability": "view",
      "type": "function"
    },
    {
      "inputs": [],
      "name": "getUserUSDCBalance",
      "outputs": [
        {
          "internalType": "uint256",
          "name": "",
          "type": "uint256"
        }
      ],
      "stateMutability": "view",
      "type": "function"
    },
    {
      "inputs": [],
      "name": "getUsersLength",
      "outputs": [
        {
          "internalType": "uint256",
          "name": "",
          "type": "uint256"
        }
      ],
      "stateMutability": "view",
      "type": "function"
    },
    {
      "inputs": [
        {
          "internalType": "address",
          "name": "",
          "type": "address"
        }
      ],
      "name": "inLeague",
      "outputs": [
        {
          "internalType": "bool",
          "name": "",
          "type": "bool"
        }
      ],
      "stateMutability": "view",
      "type": "function"
    },
    {
      "inputs": [
        {
          "internalType": "string",
          "name": "_name",
          "type": "string"
        },
        {
          "internalType": "uint256",
          "name": "_stakeAmount",
          "type": "uint256"
        },
        {
          "internalType": "bool",
          "name": "_isPublic",
          "type": "bool"
        },
        {
          "internalType": "address",
          "name": "athletesDataStorageAddress",
          "type": "address"
        },
        {
          "internalType": "address",
          "name": "_admin",
          "type": "address"
        },
        {
          "internalType": "address",
          "name": "_rinkebyUSDCAddress",
          "type": "address"
        },
        {
          "internalType": "address",
          "name": "_testUSDCAddress",
          "type": "address"
        },
        {
          "internalType": "address",
          "name": "_gameItemsContractAddress",
          "type": "address"
        },
        {
          "internalType": "address",
          "name": "_teamDiffAddress",
          "type": "address"
        },
        {
          "internalType": "address",
          "name": "_leagueMakerContractAddress",
          "type": "address"
        }
      ],
      "name": "initialize",
      "outputs": [],
      "stateMutability": "nonpayable",
      "type": "function"
    },
    {
      "inputs": [],
      "name": "isPublic",
      "outputs": [
        {
          "internalType": "bool",
          "name": "",
          "type": "bool"
        }
      ],
      "stateMutability": "view",
      "type": "function"
    },
    {
      "inputs": [],
      "name": "joinLeague",
      "outputs": [],
      "stateMutability": "nonpayable",
      "type": "function"
    },
    {
      "inputs": [],
      "name": "leagueEntryIsClosed",
      "outputs": [
        {
          "internalType": "bool",
          "name": "",
          "type": "bool"
        }
      ],
      "stateMutability": "view",
      "type": "function"
    },
    {
      "inputs": [
        {
          "internalType": "uint256",
          "name": "",
          "type": "uint256"
        }
      ],
      "name": "leagueMembers",
      "outputs": [
        {
          "internalType": "address",
          "name": "",
          "type": "address"
        }
      ],
      "stateMutability": "view",
      "type": "function"
    },
    {
      "inputs": [],
      "name": "leagueName",
      "outputs": [
        {
          "internalType": "string",
          "name": "",
          "type": "string"
        }
      ],
      "stateMutability": "view",
      "type": "function"
    },
    {
      "inputs": [],
      "name": "lineupIsLocked",
      "outputs": [
        {
          "internalType": "bool",
          "name": "",
          "type": "bool"
        }
      ],
      "stateMutability": "view",
      "type": "function"
    },
    {
      "inputs": [],
      "name": "lockLineup",
      "outputs": [],
      "stateMutability": "nonpayable",
      "type": "function"
    },
    {
      "inputs": [],
      "name": "numWeeks",
      "outputs": [
        {
          "internalType": "uint256",
          "name": "",
          "type": "uint256"
        }
      ],
      "stateMutability": "view",
      "type": "function"
    },
    {
      "inputs": [],
      "name": "onLeagueEnd",
      "outputs": [],
      "stateMutability": "nonpayable",
      "type": "function"
    },
    {
      "inputs": [],
      "name": "owner",
      "outputs": [
        {
          "internalType": "address",
          "name": "",
          "type": "address"
        }
      ],
      "stateMutability": "view",
      "type": "function"
    },
    {
      "inputs": [
        {
          "internalType": "address",
          "name": "addr",
          "type": "address"
        }
      ],
      "name": "removeAddressFromWhitelist",
      "outputs": [
        {
          "internalType": "bool",
          "name": "success",
          "type": "bool"
        }
      ],
      "stateMutability": "nonpayable",
      "type": "function"
    },
    {
      "inputs": [
        {
          "internalType": "address[]",
          "name": "addrs",
          "type": "address[]"
        }
      ],
      "name": "removeAddressesFromWhitelist",
      "outputs": [
        {
          "internalType": "bool",
          "name": "success",
          "type": "bool"
        }
      ],
      "stateMutability": "nonpayable",
      "type": "function"
    },
    {
      "inputs": [
        {
          "internalType": "address",
          "name": "_userToRemove",
          "type": "address"
        }
      ],
      "name": "removeFromWhitelist",
      "outputs": [],
      "stateMutability": "nonpayable",
      "type": "function"
    },
    {
      "inputs": [],
      "name": "renounceOwnership",
      "outputs": [],
      "stateMutability": "nonpayable",
      "type": "function"
    },
    {
      "inputs": [],
      "name": "rinkebyUSDCAddress",
      "outputs": [
        {
          "internalType": "address",
          "name": "",
          "type": "address"
        }
      ],
      "stateMutability": "view",
      "type": "function"
    },
    {
      "inputs": [],
      "name": "setLeagueEntryIsClosed",
      "outputs": [],
      "stateMutability": "nonpayable",
      "type": "function"
    },
    {
      "inputs": [],
      "name": "setLeagueSchedule",
      "outputs": [],
      "stateMutability": "nonpayable",
      "type": "function"
    },
    {
      "inputs": [
        {
          "internalType": "uint256[]",
          "name": "athleteIds",
          "type": "uint256[]"
        }
      ],
      "name": "setLineup",
      "outputs": [],
      "stateMutability": "nonpayable",
      "type": "function"
    },
    {
      "inputs": [],
      "name": "stakeAmount",
      "outputs": [
        {
          "internalType": "uint256",
          "name": "",
          "type": "uint256"
        }
      ],
      "stateMutability": "view",
      "type": "function"
    },
    {
      "inputs": [],
      "name": "teamDiffAddress",
      "outputs": [
        {
          "internalType": "address",
          "name": "",
          "type": "address"
        }
      ],
      "stateMutability": "view",
      "type": "function"
    },
    {
      "inputs": [],
      "name": "testUSDC",
      "outputs": [
        {
          "internalType": "contract IERC20",
          "name": "",
          "type": "address"
        }
      ],
      "stateMutability": "view",
      "type": "function"
    },
    {
      "inputs": [
        {
          "internalType": "address",
          "name": "newOwner",
          "type": "address"
        }
      ],
      "name": "transferOwnership",
      "outputs": [],
      "stateMutability": "nonpayable",
      "type": "function"
    },
    {
      "inputs": [],
      "name": "unlockLineup",
      "outputs": [],
      "stateMutability": "nonpayable",
      "type": "function"
    },
    {
      "inputs": [
        {
          "internalType": "address",
          "name": "",
          "type": "address"
        },
        {
          "internalType": "uint256",
          "name": "",
          "type": "uint256"
        }
      ],
      "name": "userToLineup",
      "outputs": [
        {
          "internalType": "uint256",
          "name": "",
          "type": "uint256"
        }
      ],
      "stateMutability": "view",
      "type": "function"
    },
    {
      "inputs": [
        {
          "internalType": "address",
          "name": "",
          "type": "address"
        }
      ],
      "name": "userToPoints",
      "outputs": [
        {
          "internalType": "uint256",
          "name": "",
          "type": "uint256"
        }
      ],
      "stateMutability": "view",
      "type": "function"
    },
    {
      "inputs": [
        {
          "internalType": "address",
          "name": "",
          "type": "address"
        },
        {
          "internalType": "uint256",
          "name": "",
          "type": "uint256"
        }
      ],
      "name": "userToRecord",
      "outputs": [
        {
          "internalType": "uint256",
          "name": "",
          "type": "uint256"
        }
      ],
      "stateMutability": "view",
      "type": "function"
    },
    {
      "inputs": [
        {
          "internalType": "address",
          "name": "",
          "type": "address"
        }
      ],
      "name": "whitelist",
      "outputs": [
        {
          "internalType": "bool",
          "name": "",
          "type": "bool"
        }
      ],
      "stateMutability": "view",
      "type": "function"
    }
  ],
  "bytecode": "0x60806040523480156200001157600080fd5b5062000032620000266200004060201b60201c565b6200004860201b60201c565b60016004819055506200010d565b600033905090565b60008060029054906101000a900473ffffffffffffffffffffffffffffffffffffffff16905081600060026101000a81548173ffffffffffffffffffffffffffffffffffffffff021916908373ffffffffffffffffffffffffffffffffffffffff1602179055508173ffffffffffffffffffffffffffffffffffffffff168173ffffffffffffffffffffffffffffffffffffffff167f8be0079c531659141344cd1fd0a4f28419497f9722a3daafe3b4186f6b6457e060405160405180910390a35050565b615bf5806200011d6000396000f3fe60806040523480156200001157600080fd5b5060043610620002bb5760003560e01c80636e9960c3116200017d578063c8be3b5b11620000e1578063e4c9066b1162000093578063e4c9066b146200083e578063e5f7322f146200084a578063f2fde38b1462000880578063f612121a14620008a0578063f851a44014620008c0578063f881604514620008e257620002bb565b8063c8be3b5b1462000762578063c99fea94146200076e578063cff56003146200077a578063dc9a153514620007b0578063e2ec6ec314620007d2578063e35a8999146200080857620002bb565b8063841abf6e116200013b578063841abf6e14620006865780638ab1d68114620006a85780638da5cb5b14620006c85780639122ce6d14620006ea5780639b19251a1462000720578063a2bc091a146200075657620002bb565b80636e9960c314620005e0578063715018a61462000602578063747b8050146200060e5780637b9417c8146200062e5780637eed33f1146200066457620002bb565b80632ae6b135116200022557806344eaa84e11620001e357806344eaa84e146200051457806352e6e5f31462000536578063595b1a3e14620005585780635fcc6987146200057a57806360c7dc47146200059c5780636cc15ad514620005be57620002bb565b80632ae6b135146200045a5780632d382ee01462000490578063305a578214620004c65780633c3ae13f14620004d25780633cfd1ccc14620004f257620002bb565b80631d803e00116200027f5780631d803e0014620003685780631dd7f8ca146200037457806324953eaa1462000396578063267175db14620003cc57806327311b321462000402578063286dd3f5146200042457620002bb565b8062b2476f14620002c0578063022e35e614620002e25780630635dbcb14620003045780630655465a14620003265780630c6f79591462000332575b600080fd5b620002ca62000904565b604051620002d9919062003d55565b60405180910390f35b620002ec6200092a565b604051620002fb919062003e85565b60405180910390f35b6200030e62000950565b6040516200031d919062003e68565b60405180910390f35b6200033062000963565b005b6200035060048036038101906200034a9190620034c1565b62000a6e565b6040516200035f919062004118565b60405180910390f35b6200037262000aa0565b005b6200037e62000cfa565b6040516200038d919062003d55565b60405180910390f35b620003b46004803603810190620003ae919062003508565b62000d20565b604051620003c3919062003e68565b60405180910390f35b620003ea6004803603810190620003e49190620036f6565b62000e01565b604051620003f9919062003d55565b60405180910390f35b6200040c62000e41565b6040516200041b919062003e68565b60405180910390f35b6200044260048036038101906200043c91906200348f565b62000e58565b60405162000451919062003e68565b60405180910390f35b6200047860048036038101906200047291906200348f565b62000fe7565b60405162000487919062004118565b60405180910390f35b620004ae6004803603810190620004a89190620036f6565b62000fff565b604051620004bd919062003e20565b60405180910390f35b620004d0620010f0565b005b620004f06004803603810190620004ea9190620035dc565b62001268565b005b620004fc62001701565b6040516200050b919062004118565b60405180910390f35b6200051e62001810565b6040516200052d919062004118565b60405180910390f35b620005406200181a565b6040516200054f919062004118565b60405180910390f35b6200056262001820565b60405162000571919062004118565b60405180910390f35b620005846200182d565b60405162000593919062004118565b60405180910390f35b620005a66200193c565b604051620005b5919062004118565b60405180910390f35b620005c862001942565b604051620005d7919062003e68565b60405180910390f35b620005ea62001955565b604051620005f9919062003d55565b60405180910390f35b6200060c6200197f565b005b6200062c60048036038101906200062691906200348f565b62001a10565b005b6200064c60048036038101906200064691906200348f565b62001b5a565b6040516200065b919062003e68565b60405180910390f35b6200066e62001ce7565b6040516200067d919062004118565b60405180910390f35b6200069062001ced565b6040516200069f919062003ef6565b60405180910390f35b620006c66004803603810190620006c091906200348f565b62001d83565b005b620006d262001f20565b604051620006e1919062003d55565b60405180910390f35b6200070860048036038101906200070291906200348f565b62001f49565b60405162000717919062003e68565b60405180910390f35b6200073e60048036038101906200073891906200348f565b62001f69565b6040516200074d919062003e68565b60405180910390f35b6200076062001f89565b005b6200076c62002039565b005b62000778620020e9565b005b620007986004803603810190620007929190620034c1565b62002577565b604051620007a7919062004118565b60405180910390f35b620007ba620025a9565b604051620007c9919062003e68565b60405180910390f35b620007f06004803603810190620007ea919062003508565b620025bc565b604051620007ff919062003e68565b60405180910390f35b6200082660048036038101906200082091906200348f565b6200269d565b60405162000835919062003e68565b60405180910390f35b62000848620026f3565b005b6200086860048036038101906200086291906200348f565b620027a3565b60405162000877919062003e44565b60405180910390f35b6200089e60048036038101906200089891906200348f565b6200283c565b005b620008be6004803603810190620008b8919062003559565b62002940565b005b620008ca62002ecb565b604051620008d9919062003d55565b60405180910390f35b620008ec62002ef1565b604051620008fb919062003e44565b60405180910390f35b601360009054906101000a900473ffffffffffffffffffffffffffffffffffffffff1681565b601760009054906101000a900473ffffffffffffffffffffffffffffffffffffffff1681565b600a60159054906101000a900460ff1681565b600a60009054906101000a900473ffffffffffffffffffffffffffffffffffffffff1673ffffffffffffffffffffffffffffffffffffffff163373ffffffffffffffffffffffffffffffffffffffff1614620009f6576040517f08c379a0000000000000000000000000000000000000000000000000000000008152600401620009ed906200404c565b60405180910390fd5b73__$36fdb4e0c2cb91f3ceca5ea81b025328f3$__63d2c232b56012601060065460056040518563ffffffff1660e01b815260040162000a3a949392919062003ea2565b60006040518083038186803b15801562000a5357600080fd5b505af415801562000a68573d6000803e3d6000fd5b50505050565b600c602052816000526040600020818154811062000a8b57600080fd5b90600052602060002001600091509150505481565b600a60009054906101000a900473ffffffffffffffffffffffffffffffffffffffff1673ffffffffffffffffffffffffffffffffffffffff163373ffffffffffffffffffffffffffffffffffffffff161462000b33576040517f08c379a000000000000000000000000000000000000000000000000000000000815260040162000b2a906200404c565b60405180910390fd5b600060108054905060075462000b4a9190620043dd565b905073__$36fdb4e0c2cb91f3ceca5ea81b025328f3$__63cc9b40cc6010600e60116040518463ffffffff1660e01b815260040162000b8c9392919062003ddc565b60006040518083038186803b15801562000ba557600080fd5b505af415801562000bba573d6000803e3d6000fd5b5050505060006011805490508262000bd39190620043a5565b905060005b60118054905081101562000cf557601760009054906101000a900473ffffffffffffffffffffffffffffffffffffffff1673ffffffffffffffffffffffffffffffffffffffff166323b872dd306011848154811062000c3c5762000c3b620046fd565b5b9060005260206000200160009054906101000a900473ffffffffffffffffffffffffffffffffffffffff16856040518463ffffffff1660e01b815260040162000c889392919062003d72565b602060405180830381600087803b15801562000ca357600080fd5b505af115801562000cb8573d6000803e3d6000fd5b505050506040513d601f19601f8201168201806040525081019062000cde9190620035aa565b50808062000cec9062004622565b91505062000bd8565b505050565b600a60009054906101000a900473ffffffffffffffffffffffffffffffffffffffff1681565b600062000d2c62002f88565b73ffffffffffffffffffffffffffffffffffffffff1662000d4c62001f20565b73ffffffffffffffffffffffffffffffffffffffff161462000da5576040517f08c379a000000000000000000000000000000000000000000000000000000000815260040162000d9c9062004008565b60405180910390fd5b60005b825181101562000dfb5762000dda83828151811062000dcc5762000dcb620046fd565b5b602002602001015162000e58565b1562000de557600191505b808062000df29062004622565b91505062000da8565b50919050565b6010818154811062000e1257600080fd5b906000526020600020016000915054906101000a900473ffffffffffffffffffffffffffffffffffffffff1681565b6000600a60159054906101000a900460ff16905090565b600062000e6462002f88565b73ffffffffffffffffffffffffffffffffffffffff1662000e8462001f20565b73ffffffffffffffffffffffffffffffffffffffff161462000edd576040517f08c379a000000000000000000000000000000000000000000000000000000000815260040162000ed49062004008565b60405180910390fd5b600160008373ffffffffffffffffffffffffffffffffffffffff1673ffffffffffffffffffffffffffffffffffffffff16815260200190815260200160002060009054906101000a900460ff161562000fe2576000600160008473ffffffffffffffffffffffffffffffffffffffff1673ffffffffffffffffffffffffffffffffffffffff16815260200190815260200160002060006101000a81548160ff0219169083151502179055507ff1abf01a1043b7c244d128e8595cf0c1d10743b022b03a02dffd8ca3bf729f5a8260405162000fb9919062003d55565b60405180910390a160016002600082825462000fd691906200443e565b92505081905550600190505b919050565b600e6020528060005260406000206000915090505481565b606060126000838152602001908152602001600020805480602002602001604051908101604052809291908181526020016000905b82821015620010e5578382906000526020600020906002020160405180602001604052908160008201600280602002604051908101604052809291908260028015620010cc576020028201915b8160009054906101000a900473ffffffffffffffffffffffffffffffffffffffff1673ffffffffffffffffffffffffffffffffffffffff168152602001906001019080831162001081575b5050505050815250508152602001906001019062001034565b505050509050919050565b600a60009054906101000a900473ffffffffffffffffffffffffffffffffffffffff1673ffffffffffffffffffffffffffffffffffffffff163373ffffffffffffffffffffffffffffffffffffffff161462001183576040517f08c379a00000000000000000000000000000000000000000000000000000000081526004016200117a906200404c565b60405180910390fd5b73__$36fdb4e0c2cb91f3ceca5ea81b025328f3$__63c930f4bc600854601460009054906101000a900473ffffffffffffffffffffffffffffffffffffffff16600c600d600e60126040518763ffffffff1660e01b8152600401620011ee9695949392919062004135565b60006040518083038186803b1580156200120757600080fd5b505af41580156200121c573d6000803e3d6000fd5b5050505060016006546200123191906200443e565b60085414156200124b576200124562000aa0565b62001266565b60086000815480929190620012609062004622565b91905055505b565b600060019054906101000a900460ff16620012925760008054906101000a900460ff16156200129d565b6200129c62002f90565b5b620012df576040517f08c379a0000000000000000000000000000000000000000000000000000000008152600401620012d69062003fe6565b60405180910390fd5b60008060019054906101000a900460ff16159050801562001330576001600060016101000a81548160ff02191690831515021790555060016000806101000a81548160ff0219169083151502179055505b8b8b600591906200134392919062003151565b5060086006819055506001600f60008973ffffffffffffffffffffffffffffffffffffffff1673ffffffffffffffffffffffffffffffffffffffff16815260200190815260200160002060006101000a81548160ff0219169083151502179055506010879080600181540180825580915050600190039060005260206000200160009091909190916101000a81548173ffffffffffffffffffffffffffffffffffffffff021916908373ffffffffffffffffffffffffffffffffffffffff16021790555086600960006101000a81548173ffffffffffffffffffffffffffffffffffffffff021916908373ffffffffffffffffffffffffffffffffffffffff1602179055508960078190555088600360006101000a81548160ff0219169083151502179055506000600a60146101000a81548160ff0219169083151502179055506000600a60156101000a81548160ff02191690831515021790555087601460006101000a81548173ffffffffffffffffffffffffffffffffffffffff021916908373ffffffffffffffffffffffffffffffffffffffff16021790555081601660006101000a81548173ffffffffffffffffffffffffffffffffffffffff021916908373ffffffffffffffffffffffffffffffffffffffff1602179055506040516200152f90620031e2565b604051809103906000f0801580156200154c573d6000803e3d6000fd5b50601560006101000a81548173ffffffffffffffffffffffffffffffffffffffff021916908373ffffffffffffffffffffffffffffffffffffffff16021790555085601360006101000a81548173ffffffffffffffffffffffffffffffffffffffff021916908373ffffffffffffffffffffffffffffffffffffffff16021790555084601760006101000a81548173ffffffffffffffffffffffffffffffffffffffff021916908373ffffffffffffffffffffffffffffffffffffffff16021790555082600a60006101000a81548173ffffffffffffffffffffffffffffffffffffffff021916908373ffffffffffffffffffffffffffffffffffffffff16021790555083601860006101000a81548173ffffffffffffffffffffffffffffffffffffffff021916908373ffffffffffffffffffffffffffffffffffffffff160217905550620016d16040518060400160405280601281526020017f50726f787920696e697469616c697a656421000000000000000000000000000081525062002fa3565b8015620016f35760008060016101000a81548160ff0219169083151502179055505b505050505050505050505050565b6000600f60003373ffffffffffffffffffffffffffffffffffffffff1673ffffffffffffffffffffffffffffffffffffffff16815260200190815260200160002060009054906101000a900460ff166200175a57600080fd5b601760009054906101000a900473ffffffffffffffffffffffffffffffffffffffff1673ffffffffffffffffffffffffffffffffffffffff166370a08231306040518263ffffffff1660e01b8152600401620017b7919062003d55565b60206040518083038186803b158015620017d057600080fd5b505afa158015620017e5573d6000803e3d6000fd5b505050506040513d601f19601f820116820180604052508101906200180b919062003728565b905090565b6000600254905090565b60085481565b6000601080549050905090565b6000600f60003373ffffffffffffffffffffffffffffffffffffffff1673ffffffffffffffffffffffffffffffffffffffff16815260200190815260200160002060009054906101000a900460ff166200188657600080fd5b601760009054906101000a900473ffffffffffffffffffffffffffffffffffffffff1673ffffffffffffffffffffffffffffffffffffffff166370a08231336040518263ffffffff1660e01b8152600401620018e3919062003d55565b60206040518083038186803b158015620018fc57600080fd5b505afa15801562001911573d6000803e3d6000fd5b505050506040513d601f19601f8201168201806040525081019062001937919062003728565b905090565b60075481565b600a60149054906101000a900460ff1681565b6000600960009054906101000a900473ffffffffffffffffffffffffffffffffffffffff16905090565b6200198962002f88565b73ffffffffffffffffffffffffffffffffffffffff16620019a962001f20565b73ffffffffffffffffffffffffffffffffffffffff161462001a02576040517f08c379a0000000000000000000000000000000000000000000000000000000008152600401620019f99062004008565b60405180910390fd5b62001a0e600062003040565b565b600960009054906101000a900473ffffffffffffffffffffffffffffffffffffffff1673ffffffffffffffffffffffffffffffffffffffff163373ffffffffffffffffffffffffffffffffffffffff161462001aa3576040517f08c379a000000000000000000000000000000000000000000000000000000000815260040162001a9a906200402a565b60405180910390fd5b601560009054906101000a900473ffffffffffffffffffffffffffffffffffffffff1673ffffffffffffffffffffffffffffffffffffffff16637b9417c8826040518263ffffffff1660e01b815260040162001b00919062003d55565b602060405180830381600087803b15801562001b1b57600080fd5b505af115801562001b30573d6000803e3d6000fd5b505050506040513d601f19601f8201168201806040525081019062001b569190620035aa565b5050565b600062001b6662002f88565b73ffffffffffffffffffffffffffffffffffffffff1662001b8662001f20565b73ffffffffffffffffffffffffffffffffffffffff161462001bdf576040517f08c379a000000000000000000000000000000000000000000000000000000000815260040162001bd69062004008565b60405180910390fd5b600160008373ffffffffffffffffffffffffffffffffffffffff1673ffffffffffffffffffffffffffffffffffffffff16815260200190815260200160002060009054906101000a900460ff1662001ce25760018060008473ffffffffffffffffffffffffffffffffffffffff1673ffffffffffffffffffffffffffffffffffffffff16815260200190815260200160002060006101000a81548160ff0219169083151502179055507fd1bba68c128cc3f427e5831b3c6f99f480b6efa6b9e80c757768f6124158cc3f8260405162001cb9919062003d55565b60405180910390a160016002600082825462001cd6919062004348565b92505081905550600190505b919050565b60065481565b6005805462001cfc9062004598565b80601f016020809104026020016040519081016040528092919081815260200182805462001d2a9062004598565b801562001d7b5780601f1062001d4f5761010080835404028352916020019162001d7b565b820191906000526020600020905b81548152906001019060200180831162001d5d57829003601f168201915b505050505081565b600960009054906101000a900473ffffffffffffffffffffffffffffffffffffffff1673ffffffffffffffffffffffffffffffffffffffff163373ffffffffffffffffffffffffffffffffffffffff161462001e16576040517f08c379a000000000000000000000000000000000000000000000000000000000815260040162001e0d906200402a565b60405180910390fd5b600a60149054906101000a900460ff161562001e69576040517f08c379a000000000000000000000000000000000000000000000000000000000815260040162001e609062004090565b60405180910390fd5b601560009054906101000a900473ffffffffffffffffffffffffffffffffffffffff1673ffffffffffffffffffffffffffffffffffffffff1663286dd3f5826040518263ffffffff1660e01b815260040162001ec6919062003d55565b602060405180830381600087803b15801562001ee157600080fd5b505af115801562001ef6573d6000803e3d6000fd5b505050506040513d601f19601f8201168201806040525081019062001f1c9190620035aa565b5050565b60008060029054906101000a900473ffffffffffffffffffffffffffffffffffffffff16905090565b600f6020528060005260406000206000915054906101000a900460ff1681565b60016020528060005260406000206000915054906101000a900460ff1681565b600a60009054906101000a900473ffffffffffffffffffffffffffffffffffffffff1673ffffffffffffffffffffffffffffffffffffffff163373ffffffffffffffffffffffffffffffffffffffff16146200201c576040517f08c379a000000000000000000000000000000000000000000000000000000000815260040162002013906200404c565b60405180910390fd5b6000600a60156101000a81548160ff021916908315150217905550565b600a60009054906101000a900473ffffffffffffffffffffffffffffffffffffffff1673ffffffffffffffffffffffffffffffffffffffff163373ffffffffffffffffffffffffffffffffffffffff1614620020cc576040517f08c379a0000000000000000000000000000000000000000000000000000000008152600401620020c3906200404c565b60405180910390fd5b6001600a60156101000a81548160ff021916908315150217905550565b600160003373ffffffffffffffffffffffffffffffffffffffff1673ffffffffffffffffffffffffffffffffffffffff16815260200190815260200160002060009054906101000a900460ff16806200214e5750600360009054906101000a900460ff165b62002190576040517f08c379a0000000000000000000000000000000000000000000000000000000008152600401620021879062003f80565b60405180910390fd5b60026004541415620021d9576040517f08c379a0000000000000000000000000000000000000000000000000000000008152600401620021d090620040d4565b60405180910390fd5b6002600481905550600a60149054906101000a900460ff161562002234576040517f08c379a00000000000000000000000000000000000000000000000000000000081526004016200222b90620040f6565b60405180910390fd5b600f60003373ffffffffffffffffffffffffffffffffffffffff1673ffffffffffffffffffffffffffffffffffffffff16815260200190815260200160002060009054906101000a900460ff1615620022c4576040517f08c379a0000000000000000000000000000000000000000000000000000000008152600401620022bb9062003f5e565b60405180910390fd5b600754601760009054906101000a900473ffffffffffffffffffffffffffffffffffffffff1673ffffffffffffffffffffffffffffffffffffffff166370a08231336040518263ffffffff1660e01b815260040162002324919062003d55565b60206040518083038186803b1580156200233d57600080fd5b505afa15801562002352573d6000803e3d6000fd5b505050506040513d601f19601f8201168201806040525081019062002378919062003728565b11620023bb576040517f08c379a0000000000000000000000000000000000000000000000000000000008152600401620023b29062003f3c565b60405180910390fd5b6001600f60003373ffffffffffffffffffffffffffffffffffffffff1673ffffffffffffffffffffffffffffffffffffffff16815260200190815260200160002060006101000a81548160ff0219169083151502179055506010339080600181540180825580915050600190039060005260206000200160009091909190916101000a81548173ffffffffffffffffffffffffffffffffffffffff021916908373ffffffffffffffffffffffffffffffffffffffff160217905550601760009054906101000a900473ffffffffffffffffffffffffffffffffffffffff1673ffffffffffffffffffffffffffffffffffffffff166323b872dd33306007546040518463ffffffff1660e01b8152600401620024d99392919062003d72565b602060405180830381600087803b158015620024f457600080fd5b505af115801562002509573d6000803e3d6000fd5b505050506040513d601f19601f820116820180604052508101906200252f9190620035aa565b507f9e71bc8eea02a63969f509818f2dafb9254532904319f9dbda79b67bd34a5f3d336007546040516200256592919062003daf565b60405180910390a16001600481905550565b600d60205281600052604060002081815481106200259457600080fd5b90600052602060002001600091509150505481565b600360009054906101000a900460ff1681565b6000620025c862002f88565b73ffffffffffffffffffffffffffffffffffffffff16620025e862001f20565b73ffffffffffffffffffffffffffffffffffffffff161462002641576040517f08c379a0000000000000000000000000000000000000000000000000000000008152600401620026389062004008565b60405180910390fd5b60005b8251811015620026975762002676838281518110620026685762002667620046fd565b5b602002602001015162001b5a565b156200268157600191505b80806200268e9062004622565b91505062002644565b50919050565b6000600160008373ffffffffffffffffffffffffffffffffffffffff1673ffffffffffffffffffffffffffffffffffffffff16815260200190815260200160002060009054906101000a900460ff169050919050565b600a60009054906101000a900473ffffffffffffffffffffffffffffffffffffffff1673ffffffffffffffffffffffffffffffffffffffff163373ffffffffffffffffffffffffffffffffffffffff161462002786576040517f08c379a00000000000000000000000000000000000000000000000000000000081526004016200277d906200404c565b60405180910390fd5b6001600a60146101000a81548160ff021916908315150217905550565b6060600d60008373ffffffffffffffffffffffffffffffffffffffff1673ffffffffffffffffffffffffffffffffffffffff1681526020019081526020016000208054806020026020016040519081016040528092919081815260200182805480156200283057602002820191906000526020600020905b8154815260200190600101908083116200281b575b50505050509050919050565b6200284662002f88565b73ffffffffffffffffffffffffffffffffffffffff166200286662001f20565b73ffffffffffffffffffffffffffffffffffffffff1614620028bf576040517f08c379a0000000000000000000000000000000000000000000000000000000008152600401620028b69062004008565b60405180910390fd5b600073ffffffffffffffffffffffffffffffffffffffff168173ffffffffffffffffffffffffffffffffffffffff16141562002932576040517f08c379a0000000000000000000000000000000000000000000000000000000008152600401620029299062003f1a565b60405180910390fd5b6200293d8162003040565b50565b600a60159054906101000a900460ff161562002993576040517f08c379a00000000000000000000000000000000000000000000000000000000081526004016200298a9062003fc4565b60405180910390fd5b600f60003373ffffffffffffffffffffffffffffffffffffffff1673ffffffffffffffffffffffffffffffffffffffff16815260200190815260200160002060009054906101000a900460ff1662002a22576040517f08c379a000000000000000000000000000000000000000000000000000000000815260040162002a19906200406e565b60405180910390fd5b6000601660009054906101000a900473ffffffffffffffffffffffffffffffffffffffff1673ffffffffffffffffffffffffffffffffffffffff166306575c896040518163ffffffff1660e01b815260040160206040518083038186803b15801562002a8d57600080fd5b505afa15801562002aa2573d6000803e3d6000fd5b505050506040513d601f19601f8201168201806040525081019062002ac8919062003728565b905060005b600d60003373ffffffffffffffffffffffffffffffffffffffff1673ffffffffffffffffffffffffffffffffffffffff1681526020019081526020016000208054905081101562002bcd57600b6000600d60003373ffffffffffffffffffffffffffffffffffffffff1673ffffffffffffffffffffffffffffffffffffffff168152602001908152602001600020838154811062002b705762002b6f620046fd565b5b90600052602060002001548152602001908152602001600020826008811062002b9e5762002b9d620046fd565b5b01600081548092919062002bb29062004569565b9190505550808062002bc49062004622565b91505062002acd565b5060005b825181101562002c4f57600b600084838151811062002bf55762002bf4620046fd565b5b60200260200101518152602001908152602001600020826008811062002c205762002c1f620046fd565b5b01600081548092919062002c349062004622565b9190505550808062002c469062004622565b91505062002bd1565b5060005b825181101562002d87576000601860009054906101000a900473ffffffffffffffffffffffffffffffffffffffff1673ffffffffffffffffffffffffffffffffffffffff1662fdd58e3386858151811062002cb35762002cb2620046fd565b5b60200260200101516040518363ffffffff1660e01b815260040162002cda92919062003daf565b60206040518083038186803b15801562002cf357600080fd5b505afa15801562002d08573d6000803e3d6000fd5b505050506040513d601f19601f8201168201806040525081019062002d2e919062003728565b1162002d71576040517f08c379a000000000000000000000000000000000000000000000000000000000815260040162002d6890620040b2565b60405180910390fd5b808062002d7e9062004622565b91505062002c53565b5060005b825181101562002e7057600a8162002da49190620043dd565b83828151811062002dba5762002db9620046fd565b5b60200260200101511015801562002e1857506001600a60018362002ddf919062004348565b62002deb9190620043dd565b62002df791906200443e565b83828151811062002e0d5762002e0c620046fd565b5b602002602001015111155b62002e5a576040517f08c379a000000000000000000000000000000000000000000000000000000000815260040162002e519062003fa2565b60405180910390fd5b808062002e679062004622565b91505062002d8b565b5081600d60003373ffffffffffffffffffffffffffffffffffffffff1673ffffffffffffffffffffffffffffffffffffffff168152602001908152602001600020908051906020019062002ec6929190620031f0565b505050565b600960009054906101000a900473ffffffffffffffffffffffffffffffffffffffff1681565b6060600c60003373ffffffffffffffffffffffffffffffffffffffff1673ffffffffffffffffffffffffffffffffffffffff16815260200190815260200160002080548060200260200160405190810160405280929190818152602001828054801562002f7e57602002820191906000526020600020905b81548152602001906001019080831162002f69575b5050505050905090565b600033905090565b600062002f9d3062003105565b15905090565b6200303d8160405160240162002fba919062003ef6565b6040516020818303038152906040527f41304fac000000000000000000000000000000000000000000000000000000007bffffffffffffffffffffffffffffffffffffffffffffffffffffffff19166020820180517bffffffffffffffffffffffffffffffffffffffffffffffffffffffff838183161783525050505062003128565b50565b60008060029054906101000a900473ffffffffffffffffffffffffffffffffffffffff16905081600060026101000a81548173ffffffffffffffffffffffffffffffffffffffff021916908373ffffffffffffffffffffffffffffffffffffffff1602179055508173ffffffffffffffffffffffffffffffffffffffff168173ffffffffffffffffffffffffffffffffffffffff167f8be0079c531659141344cd1fd0a4f28419497f9722a3daafe3b4186f6b6457e060405160405180910390a35050565b6000808273ffffffffffffffffffffffffffffffffffffffff163b119050919050565b60008151905060006a636f6e736f6c652e6c6f679050602083016000808483855afa5050505050565b8280546200315f9062004598565b90600052602060002090601f016020900481019282620031835760008555620031cf565b82601f106200319e57803560ff1916838001178555620031cf565b82800160010185558215620031cf579182015b82811115620031ce578235825591602001919060010190620031b1565b5b509050620031de919062003242565b5090565b6110598062004b6783390190565b8280548282559060005260206000209081019282156200322f579160200282015b828111156200322e57825182559160200191906001019062003211565b5b5090506200323e919062003242565b5090565b5b808211156200325d57600081600090555060010162003243565b5090565b6000620032786200327284620041cb565b620041a2565b905080838252602082019050828560208602820111156200329e576200329d6200477a565b5b60005b85811015620032d25781620032b7888262003357565b845260208401935060208301925050600181019050620032a1565b5050509392505050565b6000620032f3620032ed84620041fa565b620041a2565b905080838252602082019050828560208602820111156200331957620033186200477a565b5b60005b858110156200334d578162003332888262003461565b8452602084019350602083019250506001810190506200331c565b5050509392505050565b600081359050620033688162004b18565b92915050565b600082601f83011262003386576200338562004775565b5b81356200339884826020860162003261565b91505092915050565b600082601f830112620033b957620033b862004775565b5b8135620033cb848260208601620032dc565b91505092915050565b600081359050620033e58162004b32565b92915050565b600081519050620033fc8162004b32565b92915050565b60008083601f8401126200341b576200341a62004775565b5b8235905067ffffffffffffffff8111156200343b576200343a62004770565b5b6020830191508360018202830111156200345a57620034596200477a565b5b9250929050565b600081359050620034728162004b4c565b92915050565b600081519050620034898162004b4c565b92915050565b600060208284031215620034a857620034a762004784565b5b6000620034b88482850162003357565b91505092915050565b60008060408385031215620034db57620034da62004784565b5b6000620034eb8582860162003357565b9250506020620034fe8582860162003461565b9150509250929050565b60006020828403121562003521576200352062004784565b5b600082013567ffffffffffffffff8111156200354257620035416200477f565b5b62003550848285016200336e565b91505092915050565b60006020828403121562003572576200357162004784565b5b600082013567ffffffffffffffff8111156200359357620035926200477f565b5b620035a184828501620033a1565b91505092915050565b600060208284031215620035c357620035c262004784565b5b6000620035d384828501620033eb565b91505092915050565b60008060008060008060008060008060006101408c8e03121562003605576200360462004784565b5b60008c013567ffffffffffffffff8111156200362657620036256200477f565b5b620036348e828f0162003402565b9b509b50506020620036498e828f0162003461565b99505060406200365c8e828f01620033d4565b98505060606200366f8e828f0162003357565b9750506080620036828e828f0162003357565b96505060a0620036958e828f0162003357565b95505060c0620036a88e828f0162003357565b94505060e0620036bb8e828f0162003357565b935050610100620036cf8e828f0162003357565b925050610120620036e38e828f0162003357565b9150509295989b509295989b9093969950565b6000602082840312156200370f576200370e62004784565b5b60006200371f8482850162003461565b91505092915050565b60006020828403121562003741576200374062004784565b5b6000620037518482850162003478565b91505092915050565b6000620037688383620037c2565b60208301905092915050565b6000620037828383620037e4565b60208301905092915050565b60006200379c838362003d04565b60408301905092915050565b6000620037b6838362003d22565b60208301905092915050565b620037cd8162004499565b82525050565b620037de8162004499565b82525050565b620037ef8162004499565b82525050565b62003800816200427d565b6200380c8184620042e8565b9250620038198262004229565b8060005b83811015620038505781516200383487826200375a565b96506200384183620042b4565b9250506001810190506200381d565b505050505050565b6000620038658262004288565b620038718185620042f3565b93506200387e8362004233565b8060005b83811015620038be5762003896826200475b565b620038a2888262003774565b9750620038af83620042c1565b92505060018101905062003882565b5085935050505092915050565b8082525050565b6000620038df8262004293565b620038eb818562004304565b9350620038f88362004248565b8060005b838110156200392f5781516200391388826200378e565b97506200392083620042ce565b925050600181019050620038fc565b5085935050505092915050565b600062003949826200429e565b62003955818562004315565b9350620039628362004258565b8060005b83811015620039995781516200397d8882620037a8565b97506200398a83620042db565b92505060018101905062003966565b5085935050505092915050565b620039b181620044ad565b82525050565b620039c281620044e3565b82525050565b620039d381620044f7565b82525050565b8082525050565b8082525050565b8082525050565b6000620039fb82620042a9565b62003a07818562004326565b935062003a1981856020860162004533565b62003a248162004789565b840191505092915050565b6000815462003a3e8162004598565b62003a4a818662004337565b9450600182166000811462003a68576001811462003a7b5762003ab2565b60ff198316865260208601935062003ab2565b62003a868562004268565b60005b8381101562003aaa5781548189015260018201915060208101905062003a89565b808801955050505b50505092915050565b600062003aca60268362004326565b915062003ad782620047a7565b604082019050919050565b600062003af1601d8362004326565b915062003afe82620047f6565b602082019050919050565b600062003b1860238362004326565b915062003b25826200481f565b604082019050919050565b600062003b3f601a8362004326565b915062003b4c826200486e565b602082019050919050565b600062003b6660318362004326565b915062003b738262004897565b604082019050919050565b600062003b8d601e8362004326565b915062003b9a82620048e6565b602082019050919050565b600062003bb4602e8362004326565b915062003bc1826200490f565b604082019050919050565b600062003bdb60208362004326565b915062003be8826200495e565b602082019050919050565b600062003c0260178362004326565b915062003c0f8262004987565b602082019050919050565b600062003c2960168362004326565b915062003c3682620049b0565b602082019050919050565b600062003c5060168362004326565b915062003c5d82620049d9565b602082019050919050565b600062003c7760418362004326565b915062003c848262004a02565b606082019050919050565b600062003c9e60248362004326565b915062003cab8262004a77565b604082019050919050565b600062003cc5601f8362004326565b915062003cd28262004ac6565b602082019050919050565b600062003cec60178362004326565b915062003cf98262004aef565b602082019050919050565b60408201600082015162003d1c6000850182620037f5565b50505050565b62003d2d81620044d9565b82525050565b62003d3e81620044d9565b82525050565b62003d4f81620044d9565b82525050565b600060208201905062003d6c6000830184620037d3565b92915050565b600060608201905062003d896000830186620037d3565b62003d986020830185620037d3565b62003da7604083018462003d33565b949350505050565b600060408201905062003dc66000830185620037d3565b62003dd5602083018462003d33565b9392505050565b6000606082019050818103600083015262003df8818662003858565b905062003e096020830185620039e0565b62003e186040830184620038cb565b949350505050565b6000602082019050818103600083015262003e3c8184620038d2565b905092915050565b6000602082019050818103600083015262003e6081846200393c565b905092915050565b600060208201905062003e7f6000830184620039a6565b92915050565b600060208201905062003e9c6000830184620039c8565b92915050565b600060808201905062003eb96000830187620039e7565b62003ec86020830186620038cb565b62003ed7604083018562003d44565b818103606083015262003eeb818462003a2f565b905095945050505050565b6000602082019050818103600083015262003f128184620039ee565b905092915050565b6000602082019050818103600083015262003f358162003abb565b9050919050565b6000602082019050818103600083015262003f578162003ae2565b9050919050565b6000602082019050818103600083015262003f798162003b09565b9050919050565b6000602082019050818103600083015262003f9b8162003b30565b9050919050565b6000602082019050818103600083015262003fbd8162003b57565b9050919050565b6000602082019050818103600083015262003fdf8162003b7e565b9050919050565b60006020820190508181036000830152620040018162003ba5565b9050919050565b60006020820190508181036000830152620040238162003bcc565b9050919050565b60006020820190508181036000830152620040458162003bf3565b9050919050565b60006020820190508181036000830152620040678162003c1a565b9050919050565b60006020820190508181036000830152620040898162003c41565b9050919050565b60006020820190508181036000830152620040ab8162003c68565b9050919050565b60006020820190508181036000830152620040cd8162003c8f565b9050919050565b60006020820190508181036000830152620040ef8162003cb6565b9050919050565b60006020820190508181036000830152620041118162003cdd565b9050919050565b60006020820190506200412f600083018462003d33565b92915050565b600060c0820190506200414c600083018962003d44565b6200415b6020830188620039b7565b6200416a6040830187620039d9565b620041796060830186620039d9565b620041886080830185620039e0565b6200419760a0830184620039e7565b979650505050505050565b6000620041ae620041c1565b9050620041bc8282620045ec565b919050565b6000604051905090565b600067ffffffffffffffff821115620041e957620041e86200472c565b5b602082029050602081019050919050565b600067ffffffffffffffff8211156200421857620042176200472c565b5b602082029050602081019050919050565b6000819050919050565b60008190508160005260206000209050919050565b6000819050602082019050919050565b6000819050602082019050919050565b60008190508160005260206000209050919050565b600060029050919050565b600081549050919050565b600081519050919050565b600081519050919050565b600081519050919050565b6000602082019050919050565b6000600182019050919050565b6000602082019050919050565b6000602082019050919050565b600081905092915050565b600082825260208201905092915050565b600082825260208201905092915050565b600082825260208201905092915050565b600082825260208201905092915050565b600082825260208201905092915050565b60006200435582620044d9565b91506200436283620044d9565b9250827fffffffffffffffffffffffffffffffffffffffffffffffffffffffffffffffff038211156200439a576200439962004670565b5b828201905092915050565b6000620043b282620044d9565b9150620043bf83620044d9565b925082620043d257620043d16200469f565b5b828204905092915050565b6000620043ea82620044d9565b9150620043f783620044d9565b9250817fffffffffffffffffffffffffffffffffffffffffffffffffffffffffffffffff048311821515161562004433576200443262004670565b5b828202905092915050565b60006200444b82620044d9565b91506200445883620044d9565b9250828210156200446e576200446d62004670565b5b828203905092915050565b600073ffffffffffffffffffffffffffffffffffffffff82169050919050565b6000620044a682620044b9565b9050919050565b60008115159050919050565b600073ffffffffffffffffffffffffffffffffffffffff82169050919050565b6000819050919050565b6000620044f0826200450b565b9050919050565b600062004504826200450b565b9050919050565b600062004518826200451f565b9050919050565b60006200452c82620044b9565b9050919050565b60005b838110156200455357808201518184015260208101905062004536565b8381111562004563576000848401525b50505050565b60006200457682620044d9565b915060008214156200458d576200458c62004670565b5b600182039050919050565b60006002820490506001821680620045b157607f821691505b60208210811415620045c857620045c7620046ce565b5b50919050565b6000620045e5620045df836200479a565b62004479565b9050919050565b620045f78262004789565b810181811067ffffffffffffffff821117156200461957620046186200472c565b5b80604052505050565b60006200462f82620044d9565b91507fffffffffffffffffffffffffffffffffffffffffffffffffffffffffffffffff82141562004665576200466462004670565b5b600182019050919050565b7f4e487b7100000000000000000000000000000000000000000000000000000000600052601160045260246000fd5b7f4e487b7100000000000000000000000000000000000000000000000000000000600052601260045260246000fd5b7f4e487b7100000000000000000000000000000000000000000000000000000000600052602260045260246000fd5b7f4e487b7100000000000000000000000000000000000000000000000000000000600052603260045260246000fd5b7f4e487b7100000000000000000000000000000000000000000000000000000000600052604160045260246000fd5b6000620047698254620045ce565b9050919050565b600080fd5b600080fd5b600080fd5b600080fd5b600080fd5b6000601f19601f8301169050919050565b60008160001c9050919050565b7f4f776e61626c653a206e6577206f776e657220697320746865207a65726f206160008201527f6464726573730000000000000000000000000000000000000000000000000000602082015250565b7f496e737566666963656e742066756e647320666f72207374616b696e67000000600082015250565b7f596f75206861766520616c7265616479206a6f696e65642074686973206c656160008201527f6775650000000000000000000000000000000000000000000000000000000000602082015250565b7f55736572206973206e6f742077686974656c6973746564203a28000000000000600082015250565b7f596f75206172652073657474696e6720616e206174686c65746520696e20746860008201527f652077726f6e6720706f736974696f6e21000000000000000000000000000000602082015250565b7f6c696e657570206973206c6f636b656420666f7220746865207765656b210000600082015250565b7f496e697469616c697a61626c653a20636f6e747261637420697320616c72656160008201527f647920696e697469616c697a6564000000000000000000000000000000000000602082015250565b7f4f776e61626c653a2063616c6c6572206973206e6f7420746865206f776e6572600082015250565b7f43616c6c6572206973206e6f74207468652061646d696e000000000000000000600082015250565b7f43616c6c6572206973206e6f74205465616d4469666600000000000000000000600082015250565b7f55736572206973206e6f7420696e204c65616775652e00000000000000000000600082015250565b7f4e6f626f64792063616e20656e7465722f6578697420746865206c656167756560008201527f20616e796d6f72652e2054686520736561736f6e20686173207374617274656460208201527f2100000000000000000000000000000000000000000000000000000000000000604082015250565b7f43616c6c657220646f6573206e6f74206f776e20676976656e206174686c657460008201527f6549647300000000000000000000000000000000000000000000000000000000602082015250565b7f5265656e7472616e637947756172643a207265656e7472616e742063616c6c00600082015250565b7f4c656167756520456e74727920697320436c6f73656421000000000000000000600082015250565b62004b238162004499565b811462004b2f57600080fd5b50565b62004b3d81620044ad565b811462004b4957600080fd5b50565b62004b5781620044d9565b811462004b6357600080fd5b5056fe608060405234801561001057600080fd5b5061002d61002261003260201b60201c565b61003a60201b60201c565b6100fe565b600033905090565b60008060009054906101000a900473ffffffffffffffffffffffffffffffffffffffff169050816000806101000a81548173ffffffffffffffffffffffffffffffffffffffff021916908373ffffffffffffffffffffffffffffffffffffffff1602179055508173ffffffffffffffffffffffffffffffffffffffff168173ffffffffffffffffffffffffffffffffffffffff167f8be0079c531659141344cd1fd0a4f28419497f9722a3daafe3b4186f6b6457e060405160405180910390a35050565b610f4c8061010d6000396000f3fe608060405234801561001057600080fd5b50600436106100a95760003560e01c80638da5cb5b116100715780638da5cb5b146101665780639b19251a14610184578063dc9a1535146101b4578063e2ec6ec3146101d2578063e35a899914610202578063f2fde38b14610232576100a9565b806324953eaa146100ae578063286dd3f5146100de57806344eaa84e1461010e578063715018a61461012c5780637b9417c814610136575b600080fd5b6100c860048036038101906100c39190610ada565b61024e565b6040516100d59190610bb1565b60405180910390f35b6100f860048036038101906100f39190610aad565b61031e565b6040516101059190610bb1565b60405180910390f35b6101166104a1565b6040516101239190610c0c565b60405180910390f35b6101346104ab565b005b610150600480360381019061014b9190610aad565b610533565b60405161015d9190610bb1565b60405180910390f35b61016e6106b4565b60405161017b9190610b96565b60405180910390f35b61019e60048036038101906101999190610aad565b6106dd565b6040516101ab9190610bb1565b60405180910390f35b6101bc6106fd565b6040516101c99190610bb1565b60405180910390f35b6101ec60048036038101906101e79190610ada565b610710565b6040516101f99190610bb1565b60405180910390f35b61021c60048036038101906102179190610aad565b6107e0565b6040516102299190610bb1565b60405180910390f35b61024c60048036038101906102479190610aad565b610836565b005b600061025861092e565b73ffffffffffffffffffffffffffffffffffffffff166102766106b4565b73ffffffffffffffffffffffffffffffffffffffff16146102cc576040517f08c379a00000000000000000000000000000000000000000000000000000000081526004016102c390610bec565b60405180910390fd5b60005b8251811015610318576102fb8382815181106102ee576102ed610e04565b5b602002602001015161031e565b1561030557600191505b808061031090610d8c565b9150506102cf565b50919050565b600061032861092e565b73ffffffffffffffffffffffffffffffffffffffff166103466106b4565b73ffffffffffffffffffffffffffffffffffffffff161461039c576040517f08c379a000000000000000000000000000000000000000000000000000000000815260040161039390610bec565b60405180910390fd5b600160008373ffffffffffffffffffffffffffffffffffffffff1673ffffffffffffffffffffffffffffffffffffffff16815260200190815260200160002060009054906101000a900460ff161561049c576000600160008473ffffffffffffffffffffffffffffffffffffffff1673ffffffffffffffffffffffffffffffffffffffff16815260200190815260200160002060006101000a81548160ff0219169083151502179055507ff1abf01a1043b7c244d128e8595cf0c1d10743b022b03a02dffd8ca3bf729f5a826040516104759190610b96565b60405180910390a16001600260008282546104909190610cdf565b92505081905550600190505b919050565b6000600254905090565b6104b361092e565b73ffffffffffffffffffffffffffffffffffffffff166104d16106b4565b73ffffffffffffffffffffffffffffffffffffffff1614610527576040517f08c379a000000000000000000000000000000000000000000000000000000000815260040161051e90610bec565b60405180910390fd5b6105316000610936565b565b600061053d61092e565b73ffffffffffffffffffffffffffffffffffffffff1661055b6106b4565b73ffffffffffffffffffffffffffffffffffffffff16146105b1576040517f08c379a00000000000000000000000000000000000000000000000000000000081526004016105a890610bec565b60405180910390fd5b600160008373ffffffffffffffffffffffffffffffffffffffff1673ffffffffffffffffffffffffffffffffffffffff16815260200190815260200160002060009054906101000a900460ff166106af5760018060008473ffffffffffffffffffffffffffffffffffffffff1673ffffffffffffffffffffffffffffffffffffffff16815260200190815260200160002060006101000a81548160ff0219169083151502179055507fd1bba68c128cc3f427e5831b3c6f99f480b6efa6b9e80c757768f6124158cc3f826040516106889190610b96565b60405180910390a16001600260008282546106a39190610c89565b92505081905550600190505b919050565b60008060009054906101000a900473ffffffffffffffffffffffffffffffffffffffff16905090565b60016020528060005260406000206000915054906101000a900460ff1681565b600360009054906101000a900460ff1681565b600061071a61092e565b73ffffffffffffffffffffffffffffffffffffffff166107386106b4565b73ffffffffffffffffffffffffffffffffffffffff161461078e576040517f08c379a000000000000000000000000000000000000000000000000000000000815260040161078590610bec565b60405180910390fd5b60005b82518110156107da576107bd8382815181106107b0576107af610e04565b5b6020026020010151610533565b156107c757600191505b80806107d290610d8c565b915050610791565b50919050565b6000600160008373ffffffffffffffffffffffffffffffffffffffff1673ffffffffffffffffffffffffffffffffffffffff16815260200190815260200160002060009054906101000a900460ff169050919050565b61083e61092e565b73ffffffffffffffffffffffffffffffffffffffff1661085c6106b4565b73ffffffffffffffffffffffffffffffffffffffff16146108b2576040517f08c379a00000000000000000000000000000000000000000000000000000000081526004016108a990610bec565b60405180910390fd5b600073ffffffffffffffffffffffffffffffffffffffff168173ffffffffffffffffffffffffffffffffffffffff161415610922576040517f08c379a000000000000000000000000000000000000000000000000000000000815260040161091990610bcc565b60405180910390fd5b61092b81610936565b50565b600033905090565b60008060009054906101000a900473ffffffffffffffffffffffffffffffffffffffff169050816000806101000a81548173ffffffffffffffffffffffffffffffffffffffff021916908373ffffffffffffffffffffffffffffffffffffffff1602179055508173ffffffffffffffffffffffffffffffffffffffff168173ffffffffffffffffffffffffffffffffffffffff167f8be0079c531659141344cd1fd0a4f28419497f9722a3daafe3b4186f6b6457e060405160405180910390a35050565b6000610a0d610a0884610c4c565b610c27565b90508083825260208201905082856020860282011115610a3057610a2f610e67565b5b60005b85811015610a605781610a468882610a6a565b845260208401935060208301925050600181019050610a33565b5050509392505050565b600081359050610a7981610eff565b92915050565b600082601f830112610a9457610a93610e62565b5b8135610aa48482602086016109fa565b91505092915050565b600060208284031215610ac357610ac2610e71565b5b6000610ad184828501610a6a565b91505092915050565b600060208284031215610af057610aef610e71565b5b600082013567ffffffffffffffff811115610b0e57610b0d610e6c565b5b610b1a84828501610a7f565b91505092915050565b610b2c81610d13565b82525050565b610b3b81610d25565b82525050565b6000610b4e602683610c78565b9150610b5982610e87565b604082019050919050565b6000610b71602083610c78565b9150610b7c82610ed6565b602082019050919050565b610b9081610d51565b82525050565b6000602082019050610bab6000830184610b23565b92915050565b6000602082019050610bc66000830184610b32565b92915050565b60006020820190508181036000830152610be581610b41565b9050919050565b60006020820190508181036000830152610c0581610b64565b9050919050565b6000602082019050610c216000830184610b87565b92915050565b6000610c31610c42565b9050610c3d8282610d5b565b919050565b6000604051905090565b600067ffffffffffffffff821115610c6757610c66610e33565b5b602082029050602081019050919050565b600082825260208201905092915050565b6000610c9482610d51565b9150610c9f83610d51565b9250827fffffffffffffffffffffffffffffffffffffffffffffffffffffffffffffffff03821115610cd457610cd3610dd5565b5b828201905092915050565b6000610cea82610d51565b9150610cf583610d51565b925082821015610d0857610d07610dd5565b5b828203905092915050565b6000610d1e82610d31565b9050919050565b60008115159050919050565b600073ffffffffffffffffffffffffffffffffffffffff82169050919050565b6000819050919050565b610d6482610e76565b810181811067ffffffffffffffff82111715610d8357610d82610e33565b5b80604052505050565b6000610d9782610d51565b91507fffffffffffffffffffffffffffffffffffffffffffffffffffffffffffffffff821415610dca57610dc9610dd5565b5b600182019050919050565b7f4e487b7100000000000000000000000000000000000000000000000000000000600052601160045260246000fd5b7f4e487b7100000000000000000000000000000000000000000000000000000000600052603260045260246000fd5b7f4e487b7100000000000000000000000000000000000000000000000000000000600052604160045260246000fd5b600080fd5b600080fd5b600080fd5b600080fd5b6000601f19601f8301169050919050565b7f4f776e61626c653a206e6577206f776e657220697320746865207a65726f206160008201527f6464726573730000000000000000000000000000000000000000000000000000602082015250565b7f4f776e61626c653a2063616c6c6572206973206e6f7420746865206f776e6572600082015250565b610f0881610d13565b8114610f1357600080fd5b5056fea264697066735822122013c44309da17edb16daca538fef0ec10185f0de3a32833486ee12942c2821a9b64736f6c63430008070033a2646970667358221220c22509ccd7d174fcf1e7c6e157211fa6162743f31301338d3af5f88a8c2d921a64736f6c63430008070033",
  "linkReferences": {
    "contracts/MOBALogicLibrary.sol": {
      "MOBALogicLibrary": [
        {
          "length": 20,
          "start": 2837
        },
        {
          "length": 20,
          "start": 3179
        },
        {
          "length": 20,
          "start": 4770
        }
      ]
    }
  },
  "deployedLinkReferences": {
    "contracts/MOBALogicLibrary.sol": {
      "MOBALogicLibrary": [
        {
          "length": 20,
          "start": 2552
        },
        {
          "length": 20,
          "start": 2894
        },
        {
          "length": 20,
          "start": 4485
        }
      ]
    }
  }
}