{
  "_format": "hh-sol-artifact-1",
  "contractName": "LeagueOfLegendsLogic",
  "sourceName": "contracts/LeagueOfLegendsLogic.sol",
  "abi": [
    {
      "anonymous": false,
      "inputs": [
        {
          "indexed": true,
          "internalType": "address",
          "name": "previousOwner",
          "type": "address"
        },
        {
          "indexed": true,
          "internalType": "address",
          "name": "newOwner",
          "type": "address"
        }
      ],
      "name": "OwnershipTransferred",
      "type": "event"
    },
    {
      "anonymous": false,
      "inputs": [
        {
          "indexed": true,
          "internalType": "bytes32",
          "name": "role",
          "type": "bytes32"
        },
        {
          "indexed": true,
          "internalType": "bytes32",
          "name": "previousAdminRole",
          "type": "bytes32"
        },
        {
          "indexed": true,
          "internalType": "bytes32",
          "name": "newAdminRole",
          "type": "bytes32"
        }
      ],
      "name": "RoleAdminChanged",
      "type": "event"
    },
    {
      "anonymous": false,
      "inputs": [
        {
          "indexed": true,
          "internalType": "bytes32",
          "name": "role",
          "type": "bytes32"
        },
        {
          "indexed": true,
          "internalType": "address",
          "name": "account",
          "type": "address"
        },
        {
          "indexed": true,
          "internalType": "address",
          "name": "sender",
          "type": "address"
        }
      ],
      "name": "RoleGranted",
      "type": "event"
    },
    {
      "anonymous": false,
      "inputs": [
        {
          "indexed": true,
          "internalType": "bytes32",
          "name": "role",
          "type": "bytes32"
        },
        {
          "indexed": true,
          "internalType": "address",
          "name": "account",
          "type": "address"
        },
        {
          "indexed": true,
          "internalType": "address",
          "name": "sender",
          "type": "address"
        }
      ],
      "name": "RoleRevoked",
      "type": "event"
    },
    {
      "anonymous": false,
      "inputs": [
        {
          "indexed": false,
          "internalType": "address",
          "name": "sender",
          "type": "address"
        },
        {
          "indexed": false,
          "internalType": "uint256",
          "name": "amount",
          "type": "uint256"
        }
      ],
      "name": "Staked",
      "type": "event"
    },
    {
      "anonymous": false,
      "inputs": [
        {
          "indexed": false,
          "internalType": "address",
          "name": "addr",
          "type": "address"
        }
      ],
      "name": "WhitelistedAddressAdded",
      "type": "event"
    },
    {
      "anonymous": false,
      "inputs": [
        {
          "indexed": false,
          "internalType": "address",
          "name": "addr",
          "type": "address"
        }
      ],
      "name": "WhitelistedAddressRemoved",
      "type": "event"
    },
    {
      "anonymous": false,
      "inputs": [
        {
          "indexed": false,
          "internalType": "address",
          "name": "sender",
          "type": "address"
        },
        {
          "indexed": false,
          "internalType": "address",
          "name": "contractAddress",
          "type": "address"
        }
      ],
      "name": "testUSDCDeployed",
      "type": "event"
    },
    {
      "inputs": [],
      "name": "DEFAULT_ADMIN_ROLE",
      "outputs": [
        {
          "internalType": "bytes32",
          "name": "",
          "type": "bytes32"
        }
      ],
      "stateMutability": "view",
      "type": "function"
    },
    {
      "inputs": [
        {
          "internalType": "address",
          "name": "addr",
          "type": "address"
        }
      ],
      "name": "addAddressToWhitelist",
      "outputs": [
        {
          "internalType": "bool",
          "name": "success",
          "type": "bool"
        }
      ],
      "stateMutability": "nonpayable",
      "type": "function"
    },
    {
      "inputs": [
        {
          "internalType": "address[]",
          "name": "addrs",
          "type": "address[]"
        }
      ],
      "name": "addAddressesToWhitelist",
      "outputs": [
        {
          "internalType": "bool",
          "name": "success",
          "type": "bool"
        }
      ],
      "stateMutability": "nonpayable",
      "type": "function"
    },
    {
      "inputs": [
        {
          "internalType": "address",
          "name": "_userToAdd",
          "type": "address"
        }
      ],
      "name": "addUserToWhitelist",
      "outputs": [],
      "stateMutability": "nonpayable",
      "type": "function"
    },
    {
      "inputs": [],
      "name": "currentWeekNum",
      "outputs": [
        {
          "internalType": "uint256",
          "name": "",
          "type": "uint256"
        }
      ],
      "stateMutability": "view",
      "type": "function"
    },
    {
      "inputs": [],
      "name": "evaluateWeek",
      "outputs": [],
      "stateMutability": "nonpayable",
      "type": "function"
    },
    {
      "inputs": [],
      "name": "getAdmin",
      "outputs": [
        {
          "internalType": "address",
          "name": "",
          "type": "address"
        }
      ],
      "stateMutability": "view",
      "type": "function"
    },
    {
      "inputs": [],
      "name": "getAthleteContractAddress",
      "outputs": [
        {
          "internalType": "address",
          "name": "",
          "type": "address"
        }
      ],
      "stateMutability": "view",
      "type": "function"
    },
    {
      "inputs": [],
      "name": "getCurrentWeekNum",
      "outputs": [
        {
          "internalType": "uint256",
          "name": "",
          "type": "uint256"
        }
      ],
      "stateMutability": "view",
      "type": "function"
    },
    {
      "inputs": [],
      "name": "getLeagueName",
      "outputs": [
        {
          "internalType": "string",
          "name": "",
          "type": "string"
        }
      ],
      "stateMutability": "view",
      "type": "function"
    },
    {
      "inputs": [],
      "name": "getLineup",
      "outputs": [
        {
          "internalType": "uint256[]",
          "name": "",
          "type": "uint256[]"
        }
      ],
      "stateMutability": "view",
      "type": "function"
    },
    {
      "inputs": [
        {
          "internalType": "bytes32",
          "name": "role",
          "type": "bytes32"
        }
      ],
      "name": "getRoleAdmin",
      "outputs": [
        {
          "internalType": "bytes32",
          "name": "",
          "type": "bytes32"
        }
      ],
      "stateMutability": "view",
      "type": "function"
    },
    {
      "inputs": [],
      "name": "getStakeAmount",
      "outputs": [
        {
          "internalType": "uint256",
          "name": "",
          "type": "uint256"
        }
      ],
      "stateMutability": "view",
      "type": "function"
    },
    {
      "inputs": [],
      "name": "getTestUSDCAddress",
      "outputs": [
        {
          "internalType": "address",
          "name": "",
          "type": "address"
        }
      ],
      "stateMutability": "view",
      "type": "function"
    },
    {
      "inputs": [],
      "name": "getTotalPrizePot",
      "outputs": [
        {
          "internalType": "uint256",
          "name": "",
          "type": "uint256"
        }
      ],
      "stateMutability": "view",
      "type": "function"
    },
    {
      "inputs": [],
      "name": "getUSDCBalance",
      "outputs": [
        {
          "internalType": "uint256",
          "name": "",
          "type": "uint256"
        }
      ],
      "stateMutability": "view",
      "type": "function"
    },
    {
      "inputs": [],
      "name": "getUserRecord",
      "outputs": [
        {
          "internalType": "uint256[8]",
          "name": "",
          "type": "uint256[8]"
        }
      ],
      "stateMutability": "view",
      "type": "function"
    },
    {
      "inputs": [],
      "name": "getUserTotalPts",
      "outputs": [
        {
          "internalType": "uint256",
          "name": "",
          "type": "uint256"
        }
      ],
      "stateMutability": "view",
      "type": "function"
    },
    {
      "inputs": [],
      "name": "getUserUSDCBalance",
      "outputs": [
        {
          "internalType": "uint256",
          "name": "",
          "type": "uint256"
        }
      ],
      "stateMutability": "view",
      "type": "function"
    },
    {
      "inputs": [],
      "name": "getUsersLength",
      "outputs": [
        {
          "internalType": "uint256",
          "name": "",
          "type": "uint256"
        }
      ],
      "stateMutability": "view",
      "type": "function"
    },
    {
      "inputs": [],
      "name": "getVersion",
      "outputs": [
        {
          "internalType": "uint256",
          "name": "version",
          "type": "uint256"
        }
      ],
      "stateMutability": "view",
      "type": "function"
    },
    {
      "inputs": [
        {
          "internalType": "bytes32",
          "name": "role",
          "type": "bytes32"
        },
        {
          "internalType": "address",
          "name": "account",
          "type": "address"
        }
      ],
      "name": "grantRole",
      "outputs": [],
      "stateMutability": "nonpayable",
      "type": "function"
    },
    {
      "inputs": [
        {
          "internalType": "bytes32",
          "name": "role",
          "type": "bytes32"
        },
        {
          "internalType": "address",
          "name": "account",
          "type": "address"
        }
      ],
      "name": "hasRole",
      "outputs": [
        {
          "internalType": "bool",
          "name": "",
          "type": "bool"
        }
      ],
      "stateMutability": "view",
      "type": "function"
    },
    {
      "inputs": [
        {
          "internalType": "string",
          "name": "_name",
          "type": "string"
        },
        {
          "internalType": "uint256",
          "name": "_numWeeks",
          "type": "uint256"
        },
        {
          "internalType": "uint256",
          "name": "_stakeAmount",
          "type": "uint256"
        },
        {
          "internalType": "bool",
          "name": "_isPublic",
          "type": "bool"
        },
        {
          "internalType": "address",
          "name": "athletesDataStorageAddress",
          "type": "address"
        },
        {
          "internalType": "address",
          "name": "_admin",
          "type": "address"
        },
        {
          "internalType": "address",
          "name": "_polygonUSDCAddress",
          "type": "address"
        },
        {
          "internalType": "address",
          "name": "_rinkebyUSDCAddress",
          "type": "address"
        },
        {
          "internalType": "address",
          "name": "_testUSDCAddress",
          "type": "address"
        },
        {
          "internalType": "address",
          "name": "leagueMakerContractAddress",
          "type": "address"
        }
      ],
      "name": "initialize",
      "outputs": [],
      "stateMutability": "nonpayable",
      "type": "function"
    },
    {
      "inputs": [],
      "name": "isPublic",
      "outputs": [
        {
          "internalType": "bool",
          "name": "",
          "type": "bool"
        }
      ],
      "stateMutability": "view",
      "type": "function"
    },
    {
      "inputs": [],
      "name": "joinLeague",
      "outputs": [],
      "stateMutability": "nonpayable",
      "type": "function"
    },
    {
      "inputs": [
        {
          "internalType": "uint256",
          "name": "",
          "type": "uint256"
        }
      ],
      "name": "leagueMembers",
      "outputs": [
        {
          "internalType": "address",
          "name": "",
          "type": "address"
        }
      ],
      "stateMutability": "view",
      "type": "function"
    },
    {
      "inputs": [],
      "name": "leagueName",
      "outputs": [
        {
          "internalType": "string",
          "name": "",
          "type": "string"
        }
      ],
      "stateMutability": "view",
      "type": "function"
    },
    {
      "inputs": [],
      "name": "lockLineup",
      "outputs": [],
      "stateMutability": "nonpayable",
      "type": "function"
    },
    {
      "inputs": [],
      "name": "numWeeks",
      "outputs": [
        {
          "internalType": "uint256",
          "name": "",
          "type": "uint256"
        }
      ],
      "stateMutability": "view",
      "type": "function"
    },
    {
      "inputs": [],
      "name": "onLeagueEnd",
      "outputs": [],
      "stateMutability": "nonpayable",
      "type": "function"
    },
    {
      "inputs": [],
      "name": "owner",
      "outputs": [
        {
          "internalType": "address",
          "name": "",
          "type": "address"
        }
      ],
      "stateMutability": "view",
      "type": "function"
    },
    {
      "inputs": [],
      "name": "polygonUSDCAddress",
      "outputs": [
        {
          "internalType": "address",
          "name": "",
          "type": "address"
        }
      ],
      "stateMutability": "view",
      "type": "function"
    },
    {
      "inputs": [
        {
          "internalType": "address",
          "name": "addr",
          "type": "address"
        }
      ],
      "name": "removeAddressFromWhitelist",
      "outputs": [
        {
          "internalType": "bool",
          "name": "success",
          "type": "bool"
        }
      ],
      "stateMutability": "nonpayable",
      "type": "function"
    },
    {
      "inputs": [
        {
          "internalType": "address[]",
          "name": "addrs",
          "type": "address[]"
        }
      ],
      "name": "removeAddressesFromWhitelist",
      "outputs": [
        {
          "internalType": "bool",
          "name": "success",
          "type": "bool"
        }
      ],
      "stateMutability": "nonpayable",
      "type": "function"
    },
    {
      "inputs": [],
      "name": "renounceOwnership",
      "outputs": [],
      "stateMutability": "nonpayable",
      "type": "function"
    },
    {
      "inputs": [
        {
          "internalType": "bytes32",
          "name": "role",
          "type": "bytes32"
        },
        {
          "internalType": "address",
          "name": "account",
          "type": "address"
        }
      ],
      "name": "renounceRole",
      "outputs": [],
      "stateMutability": "nonpayable",
      "type": "function"
    },
    {
      "inputs": [
        {
          "internalType": "bytes32",
          "name": "role",
          "type": "bytes32"
        },
        {
          "internalType": "address",
          "name": "account",
          "type": "address"
        }
      ],
      "name": "revokeRole",
      "outputs": [],
      "stateMutability": "nonpayable",
      "type": "function"
    },
    {
      "inputs": [],
      "name": "rinkebyUSDCAddress",
      "outputs": [
        {
          "internalType": "address",
          "name": "",
          "type": "address"
        }
      ],
      "stateMutability": "view",
      "type": "function"
    },
    {
      "inputs": [],
      "name": "setLeagueEntryIsClosed",
      "outputs": [],
      "stateMutability": "nonpayable",
      "type": "function"
    },
    {
      "inputs": [],
      "name": "setLeagueSchedule",
      "outputs": [],
      "stateMutability": "nonpayable",
      "type": "function"
    },
    {
      "inputs": [
        {
          "internalType": "uint256[]",
          "name": "athleteIds",
          "type": "uint256[]"
        }
      ],
      "name": "setLineup",
      "outputs": [],
      "stateMutability": "nonpayable",
      "type": "function"
    },
    {
      "inputs": [],
      "name": "stakeAmount",
      "outputs": [
        {
          "internalType": "uint256",
          "name": "",
          "type": "uint256"
        }
      ],
      "stateMutability": "view",
      "type": "function"
    },
    {
      "inputs": [
        {
          "internalType": "bytes4",
          "name": "interfaceId",
          "type": "bytes4"
        }
      ],
      "name": "supportsInterface",
      "outputs": [
        {
          "internalType": "bool",
          "name": "",
          "type": "bool"
        }
      ],
      "stateMutability": "view",
      "type": "function"
    },
    {
      "inputs": [
        {
          "internalType": "address",
          "name": "newOwner",
          "type": "address"
        }
      ],
      "name": "transferOwnership",
      "outputs": [],
      "stateMutability": "nonpayable",
      "type": "function"
    },
    {
      "inputs": [],
      "name": "unlockLineup",
      "outputs": [],
      "stateMutability": "nonpayable",
      "type": "function"
    },
    {
      "inputs": [
        {
          "internalType": "address",
          "name": "",
          "type": "address"
        },
        {
          "internalType": "uint256",
          "name": "",
          "type": "uint256"
        }
      ],
      "name": "userToRecord",
      "outputs": [
        {
          "internalType": "uint256",
          "name": "",
          "type": "uint256"
        }
      ],
      "stateMutability": "view",
      "type": "function"
    },
    {
      "inputs": [
        {
          "internalType": "address",
          "name": "",
          "type": "address"
        }
      ],
      "name": "whitelist",
      "outputs": [
        {
          "internalType": "bool",
          "name": "",
          "type": "bool"
        }
      ],
      "stateMutability": "view",
      "type": "function"
    }
  ],
  "bytecode": "0x60806040523480156200001157600080fd5b5062000032620000266200003860201b60201c565b6200004060201b60201c565b62000105565b600033905090565b60008060029054906101000a900473ffffffffffffffffffffffffffffffffffffffff16905081600060026101000a81548173ffffffffffffffffffffffffffffffffffffffff021916908373ffffffffffffffffffffffffffffffffffffffff1602179055508173ffffffffffffffffffffffffffffffffffffffff168173ffffffffffffffffffffffffffffffffffffffff167f8be0079c531659141344cd1fd0a4f28419497f9722a3daafe3b4186f6b6457e060405160405180910390a35050565b61529e80620001156000396000f3fe60806040523480156200001157600080fd5b5060043610620002df5760003560e01c8063747b80501162000189578063a2bc091a11620000e1578063dc9a15351162000093578063dc9a15351462000888578063e2ec6ec314620008aa578063e4c9066b14620008e0578063f2fde38b14620008ec578063f612121a146200090c578063f8816045146200092c57620002df565b8063a2bc091a1462000800578063ada3a28d146200080c578063c8be3b5b146200082e578063c99fea94146200083a578063cdbba4c61462000846578063d547741f146200086857620002df565b80638da5cb5b116200013b5780638da5cb5b146200070c57806391d14854146200072e57806393f3706c146200076457806399a6003414620007865780639b19251a14620007a8578063a217fddf14620007de57620002df565b8063747b805014620006445780637b9417c814620006645780637eed33f1146200069a578063841abf6e14620006bc57806385334ffa14620006de5780638caec7a814620006ea57620002df565b80633cfd1ccc116200023d5780635fcc698711620001ef5780635fcc6987146200058e57806360c7dc4714620005b05780636bdc44df14620005d25780636e9960c314620005f4578063715018a61462000616578063722580b6146200062257620002df565b80633cfd1ccc14620004c4578063403570c514620004e657806352e6e5f31462000508578063595b1a3e146200052a5780635d514d69146200054c5780635ec0b4f7146200056c57620002df565b8063248a9ca31162000297578063248a9ca314620003ac57806324953eaa14620003e2578063267175db1462000418578063286dd3f5146200044e5780632f2ff15d146200048457806336568abe14620004a457620002df565b8062b2476f14620002e457806301ffc9a714620003065780630655465a146200033c5780630c6f795914620003485780630d8e6e2c146200037e5780631d803e0014620003a0575b600080fd5b620002ee6200094e565b604051620002fd919062003832565b60405180910390f35b6200032460048036038101906200031e919062003235565b62000974565b604051620003339190620038fb565b60405180910390f35b62000346620009f1565b005b620003666004803603810190620003609190620030a1565b62000aa9565b60405162000375919062003b2a565b60405180910390f35b6200038862000ad2565b60405162000397919062003b2a565b60405180910390f35b620003aa62000ad7565b005b620003ca6004803603810190620003c49190620031bc565b62000ce6565b604051620003d9919062003918565b60405180910390f35b620004006004803603810190620003fa9190620030e8565b62000d06565b6040516200040f9190620038fb565b60405180910390f35b62000436600480360381019062000430919062003381565b62000e03565b60405162000445919062003832565b60405180910390f35b6200046c60048036038101906200046691906200306f565b62000e43565b6040516200047b9190620038fb565b60405180910390f35b620004a260048036038101906200049c9190620031ee565b62000fd2565b005b620004c26004803603810190620004bc9190620031ee565b62001003565b005b620004ce6200108d565b604051620004dd919062003b2a565b60405180910390f35b620004f062001145565b604051620004ff9190620039f6565b60405180910390f35b62000512620011df565b60405162000521919062003b2a565b60405180910390f35b62000534620011e5565b60405162000543919062003b2a565b60405180910390f35b6200056a600480360381019062000564919062003267565b620011f2565b005b6200057662001601565b60405162000585919062003b2a565b60405180910390f35b620005986200160b565b604051620005a7919062003b2a565b60405180910390f35b620005ba620016c3565b604051620005c9919062003b2a565b60405180910390f35b620005dc620016c9565b604051620005eb919062003b2a565b60405180910390f35b620005fe62001710565b6040516200060d919062003832565b60405180910390f35b620006206200173a565b005b6200062c620017cb565b6040516200063b919062003b2a565b60405180910390f35b6200066260048036038101906200065c91906200306f565b620017d5565b005b6200068260048036038101906200067c91906200306f565b6200191f565b604051620006919190620038fb565b60405180910390f35b620006a462001aad565b604051620006b3919062003b2a565b60405180910390f35b620006c662001ab3565b604051620006d59190620039f6565b60405180910390f35b620006e862001b49565b005b620006f462001c6b565b60405162000703919062003832565b60405180910390f35b6200071662001c95565b60405162000725919062003832565b60405180910390f35b6200074c6004803603810190620007469190620031ee565b62001cbe565b6040516200075b9190620038fb565b60405180910390f35b6200076e62001d29565b6040516200077d919062003832565b60405180910390f35b6200079062001d4f565b6040516200079f919062003b2a565b60405180910390f35b620007c66004803603810190620007c091906200306f565b62001d6b565b604051620007d59190620038fb565b60405180910390f35b620007e862001d8b565b604051620007f7919062003918565b60405180910390f35b6200080a62001d92565b005b6200081662001e32565b604051620008259190620038d7565b60405180910390f35b6200083862001ec9565b005b6200084462001f69565b005b6200085062002187565b6040516200085f919062003832565b60405180910390f35b620008866004803603810190620008809190620031ee565b620021b1565b005b62000892620021e2565b604051620008a19190620038fb565b60405180910390f35b620008c86004803603810190620008c29190620030e8565b620021f5565b604051620008d79190620038fb565b60405180910390f35b620008ea620022f2565b005b6200090a60048036038101906200090491906200306f565b62002392565b005b6200092a600480360381019062000924919062003139565b62002496565b005b6200093662002542565b604051620009459190620038b9565b60405180910390f35b601060009054906101000a900473ffffffffffffffffffffffffffffffffffffffff1681565b60007f7965db0b000000000000000000000000000000000000000000000000000000007bffffffffffffffffffffffffffffffffffffffffffffffffffffffff1916827bffffffffffffffffffffffffffffffffffffffffffffffffffffffff19161480620009ea5750620009e982620025ce565b5b9050919050565b62000a316040518060400160405280601081526020017f73657474696e67207363686564756c650000000000000000000000000000000081525062002638565b73__$36fdb4e0c2cb91f3ceca5ea81b025328f3$__63d2c232b5600e600960065460056040518563ffffffff1660e01b815260040162000a75949392919062003935565b60006040518083038186803b15801562000a8e57600080fd5b505af415801562000aa3573d6000803e3d6000fd5b50505050565b600c602052816000526040600020816008811062000ac657600080fd5b01600091509150505481565b600090565b600060098054905060085462000aee919062003cde565b9050600080600090505b60098054905081101562000c2957600b60008373ffffffffffffffffffffffffffffffffffffffff1673ffffffffffffffffffffffffffffffffffffffff16815260200190815260200160002054600b60006009848154811062000b615762000b6062003fb3565b5b9060005260206000200160009054906101000a900473ffffffffffffffffffffffffffffffffffffffff1673ffffffffffffffffffffffffffffffffffffffff1673ffffffffffffffffffffffffffffffffffffffff16815260200190815260200160002054111562000c13576009818154811062000be55762000be462003fb3565b5b9060005260206000200160009054906101000a900473ffffffffffffffffffffffffffffffffffffffff1691505b808062000c209062003f07565b91505062000af8565b50601460009054906101000a900473ffffffffffffffffffffffffffffffffffffffff1673ffffffffffffffffffffffffffffffffffffffff166323b872dd3330856040518463ffffffff1660e01b815260040162000c8b939291906200384f565b602060405180830381600087803b15801562000ca657600080fd5b505af115801562000cbb573d6000803e3d6000fd5b505050506040513d601f19601f8201168201806040525081019062000ce191906200318a565b505050565b600060016000838152602001908152602001600020600101549050919050565b600062000d12620026d5565b73ffffffffffffffffffffffffffffffffffffffff1662000d3262001c95565b73ffffffffffffffffffffffffffffffffffffffff161462000d8b576040517f08c379a000000000000000000000000000000000000000000000000000000000815260040162000d829062003aa2565b60405180910390fd5b60005b825181101562000dfd5762000dc083828151811062000db25762000db162003fb3565b5b602002602001015162000e43565b1562000de75760016003600082825462000ddb919062003d3f565b92505081905550600191505b808062000df49062003f07565b91505062000d8e565b50919050565b6009818154811062000e1457600080fd5b906000526020600020016000915054906101000a900473ffffffffffffffffffffffffffffffffffffffff1681565b600062000e4f620026d5565b73ffffffffffffffffffffffffffffffffffffffff1662000e6f62001c95565b73ffffffffffffffffffffffffffffffffffffffff161462000ec8576040517f08c379a000000000000000000000000000000000000000000000000000000000815260040162000ebf9062003aa2565b60405180910390fd5b600260008373ffffffffffffffffffffffffffffffffffffffff1673ffffffffffffffffffffffffffffffffffffffff16815260200190815260200160002060009054906101000a900460ff161562000fcd576000600260008473ffffffffffffffffffffffffffffffffffffffff1673ffffffffffffffffffffffffffffffffffffffff16815260200190815260200160002060006101000a81548160ff0219169083151502179055507ff1abf01a1043b7c244d128e8595cf0c1d10743b022b03a02dffd8ca3bf729f5a8260405162000fa4919062003832565b60405180910390a160016003600082825462000fc1919062003d3f565b92505081905550600190505b919050565b62000fdd8262000ce6565b62000ff28162000fec620026d5565b620026dd565b62000ffe838362002785565b505050565b6200100d620026d5565b73ffffffffffffffffffffffffffffffffffffffff168173ffffffffffffffffffffffffffffffffffffffff16146200107d576040517f08c379a0000000000000000000000000000000000000000000000000000000008152600401620010749062003b08565b60405180910390fd5b6200108982826200286a565b5050565b6000601460009054906101000a900473ffffffffffffffffffffffffffffffffffffffff1673ffffffffffffffffffffffffffffffffffffffff166370a08231306040518263ffffffff1660e01b8152600401620010ec919062003832565b60206040518083038186803b1580156200110557600080fd5b505afa1580156200111a573d6000803e3d6000fd5b505050506040513d601f19601f82011682018060405250810190620011409190620033b3565b905090565b606060058054620011569062003e9b565b80601f0160208091040260200160405190810160405280929190818152602001828054620011849062003e9b565b8015620011d55780601f10620011a957610100808354040283529160200191620011d5565b820191906000526020600020905b815481529060010190602001808311620011b757829003601f168201915b5050505050905090565b60075481565b6000600980549050905090565b600060019054906101000a900460ff166200121c5760008054906101000a900460ff161562001227565b6200122662002951565b5b62001269576040517f08c379a0000000000000000000000000000000000000000000000000000000008152600401620012609062003a80565b60405180910390fd5b60008060019054906101000a900460ff161590508015620012ba576001600060016101000a81548160ff02191690831515021790555060016000806101000a81548160ff0219169083151502179055505b8b8b60059190620012cd92919062002ce0565b506008600681905550620012e56000801b8762002964565b6009869080600181540180825580915050600190039060005260206000200160009091909190916101000a81548173ffffffffffffffffffffffffffffffffffffffff021916908373ffffffffffffffffffffffffffffffffffffffff16021790555085600a60006101000a81548173ffffffffffffffffffffffffffffffffffffffff021916908373ffffffffffffffffffffffffffffffffffffffff1602179055508860088190555087600460006101000a81548160ff0219169083151502179055506000600a60156101000a81548160ff0219169083151502179055506000600a60146101000a81548160ff02191690831515021790555086601160006101000a81548173ffffffffffffffffffffffffffffffffffffffff021916908373ffffffffffffffffffffffffffffffffffffffff16021790555081601360006101000a81548173ffffffffffffffffffffffffffffffffffffffff021916908373ffffffffffffffffffffffffffffffffffffffff160217905550604051620014709062002d71565b604051809103906000f0801580156200148d573d6000803e3d6000fd5b50601260006101000a81548173ffffffffffffffffffffffffffffffffffffffff021916908373ffffffffffffffffffffffffffffffffffffffff16021790555084600f60006101000a81548173ffffffffffffffffffffffffffffffffffffffff021916908373ffffffffffffffffffffffffffffffffffffffff16021790555083601060006101000a81548173ffffffffffffffffffffffffffffffffffffffff021916908373ffffffffffffffffffffffffffffffffffffffff16021790555082601460006101000a81548173ffffffffffffffffffffffffffffffffffffffff021916908373ffffffffffffffffffffffffffffffffffffffff160217905550620015d16040518060400160405280601281526020017f50726f787920696e697469616c697a656421000000000000000000000000000081525062002638565b8015620015f35760008060016101000a81548160ff0219169083151502179055505b505050505050505050505050565b6000600754905090565b6000601460009054906101000a900473ffffffffffffffffffffffffffffffffffffffff1673ffffffffffffffffffffffffffffffffffffffff166370a08231336040518263ffffffff1660e01b81526004016200166a919062003832565b60206040518083038186803b1580156200168357600080fd5b505afa15801562001698573d6000803e3d6000fd5b505050506040513d601f19601f82011682018060405250810190620016be9190620033b3565b905090565b60085481565b6000600b60003373ffffffffffffffffffffffffffffffffffffffff1673ffffffffffffffffffffffffffffffffffffffff16815260200190815260200160002054905090565b6000600a60009054906101000a900473ffffffffffffffffffffffffffffffffffffffff16905090565b62001744620026d5565b73ffffffffffffffffffffffffffffffffffffffff166200176462001c95565b73ffffffffffffffffffffffffffffffffffffffff1614620017bd576040517f08c379a0000000000000000000000000000000000000000000000000000000008152600401620017b49062003aa2565b60405180910390fd5b620017c9600062002974565b565b6000600854905090565b600a60009054906101000a900473ffffffffffffffffffffffffffffffffffffffff1673ffffffffffffffffffffffffffffffffffffffff163373ffffffffffffffffffffffffffffffffffffffff161462001868576040517f08c379a00000000000000000000000000000000000000000000000000000000081526004016200185f9062003ac4565b60405180910390fd5b601260009054906101000a900473ffffffffffffffffffffffffffffffffffffffff1673ffffffffffffffffffffffffffffffffffffffff16637b9417c8826040518263ffffffff1660e01b8152600401620018c5919062003832565b602060405180830381600087803b158015620018e057600080fd5b505af1158015620018f5573d6000803e3d6000fd5b505050506040513d601f19601f820116820180604052508101906200191b91906200318a565b5050565b60006200192b620026d5565b73ffffffffffffffffffffffffffffffffffffffff166200194b62001c95565b73ffffffffffffffffffffffffffffffffffffffff1614620019a4576040517f08c379a00000000000000000000000000000000000000000000000000000000081526004016200199b9062003aa2565b60405180910390fd5b600260008373ffffffffffffffffffffffffffffffffffffffff1673ffffffffffffffffffffffffffffffffffffffff16815260200190815260200160002060009054906101000a900460ff1662001aa8576001600260008473ffffffffffffffffffffffffffffffffffffffff1673ffffffffffffffffffffffffffffffffffffffff16815260200190815260200160002060006101000a81548160ff0219169083151502179055507fd1bba68c128cc3f427e5831b3c6f99f480b6efa6b9e80c757768f6124158cc3f8260405162001a7f919062003832565b60405180910390a160016003600082825462001a9c919062003c81565b92505081905550600190505b919050565b60065481565b6005805462001ac29062003e9b565b80601f016020809104026020016040519081016040528092919081815260200182805462001af09062003e9b565b801562001b415780601f1062001b155761010080835404028352916020019162001b41565b820191906000526020600020905b81548152906001019060200180831162001b2357829003601f168201915b505050505081565b62001b53620026d5565b73ffffffffffffffffffffffffffffffffffffffff1662001b7362001c95565b73ffffffffffffffffffffffffffffffffffffffff161462001bcc576040517f08c379a000000000000000000000000000000000000000000000000000000000815260040162001bc39062003aa2565b60405180910390fd5b73__$36fdb4e0c2cb91f3ceca5ea81b025328f3$__63c406e268600e600754601160009054906101000a900473ffffffffffffffffffffffffffffffffffffffff16600c600b600d6040518763ffffffff1660e01b815260040162001c379695949392919062003989565b60006040518083038186803b15801562001c5057600080fd5b505af415801562001c65573d6000803e3d6000fd5b50505050565b6000601160009054906101000a900473ffffffffffffffffffffffffffffffffffffffff16905090565b60008060029054906101000a900473ffffffffffffffffffffffffffffffffffffffff16905090565b60006001600084815260200190815260200160002060000160008373ffffffffffffffffffffffffffffffffffffffff1673ffffffffffffffffffffffffffffffffffffffff16815260200190815260200160002060009054906101000a900460ff16905092915050565b600f60009054906101000a900473ffffffffffffffffffffffffffffffffffffffff1681565b600060098054905060085462001d66919062003cde565b905090565b60026020528060005260406000206000915054906101000a900460ff1681565b6000801b81565b62001d9c620026d5565b73ffffffffffffffffffffffffffffffffffffffff1662001dbc62001c95565b73ffffffffffffffffffffffffffffffffffffffff161462001e15576040517f08c379a000000000000000000000000000000000000000000000000000000000815260040162001e0c9062003aa2565b60405180910390fd5b6000600a60156101000a81548160ff021916908315150217905550565b6060600d60003373ffffffffffffffffffffffffffffffffffffffff1673ffffffffffffffffffffffffffffffffffffffff16815260200190815260200160002080548060200260200160405190810160405280929190818152602001828054801562001ebf57602002820191906000526020600020905b81548152602001906001019080831162001eaa575b5050505050905090565b62001ed3620026d5565b73ffffffffffffffffffffffffffffffffffffffff1662001ef362001c95565b73ffffffffffffffffffffffffffffffffffffffff161462001f4c576040517f08c379a000000000000000000000000000000000000000000000000000000000815260040162001f439062003aa2565b60405180910390fd5b6001600a60156101000a81548160ff021916908315150217905550565b600260003373ffffffffffffffffffffffffffffffffffffffff1673ffffffffffffffffffffffffffffffffffffffff16815260200190815260200160002060009054906101000a900460ff168062001fce5750600460009054906101000a900460ff165b62001fd857600080fd5b600a60149054906101000a900460ff16156200202b576040517f08c379a0000000000000000000000000000000000000000000000000000000008152600401620020229062003ae6565b60405180910390fd5b6009339080600181540180825580915050600190039060005260206000200160009091909190916101000a81548173ffffffffffffffffffffffffffffffffffffffff021916908373ffffffffffffffffffffffffffffffffffffffff160217905550601460009054906101000a900473ffffffffffffffffffffffffffffffffffffffff1673ffffffffffffffffffffffffffffffffffffffff166323b872dd33306008546040518463ffffffff1660e01b8152600401620020f1939291906200384f565b602060405180830381600087803b1580156200210c57600080fd5b505af115801562002121573d6000803e3d6000fd5b505050506040513d601f19601f820116820180604052508101906200214791906200318a565b507f9e71bc8eea02a63969f509818f2dafb9254532904319f9dbda79b67bd34a5f3d336008546040516200217d9291906200388c565b60405180910390a1565b6000601460009054906101000a900473ffffffffffffffffffffffffffffffffffffffff16905090565b620021bc8262000ce6565b620021d181620021cb620026d5565b620026dd565b620021dd83836200286a565b505050565b600460009054906101000a900460ff1681565b600062002201620026d5565b73ffffffffffffffffffffffffffffffffffffffff166200222162001c95565b73ffffffffffffffffffffffffffffffffffffffff16146200227a576040517f08c379a0000000000000000000000000000000000000000000000000000000008152600401620022719062003aa2565b60405180910390fd5b60005b8251811015620022ec57620022af838281518110620022a157620022a062003fb3565b5b60200260200101516200191f565b15620022d657600160036000828254620022ca919062003c81565b92505081905550600191505b8080620022e39062003f07565b9150506200227d565b50919050565b620022fc620026d5565b73ffffffffffffffffffffffffffffffffffffffff166200231c62001c95565b73ffffffffffffffffffffffffffffffffffffffff161462002375576040517f08c379a00000000000000000000000000000000000000000000000000000000081526004016200236c9062003aa2565b60405180910390fd5b6001600a60146101000a81548160ff021916908315150217905550565b6200239c620026d5565b73ffffffffffffffffffffffffffffffffffffffff16620023bc62001c95565b73ffffffffffffffffffffffffffffffffffffffff161462002415576040517f08c379a00000000000000000000000000000000000000000000000000000000081526004016200240c9062003aa2565b60405180910390fd5b600073ffffffffffffffffffffffffffffffffffffffff168173ffffffffffffffffffffffffffffffffffffffff16141562002488576040517f08c379a00000000000000000000000000000000000000000000000000000000081526004016200247f9062003a3c565b60405180910390fd5b620024938162002974565b50565b600a60159054906101000a900460ff1615620024e9576040517f08c379a0000000000000000000000000000000000000000000000000000000008152600401620024e09062003a5e565b60405180910390fd5b80600d60003373ffffffffffffffffffffffffffffffffffffffff1673ffffffffffffffffffffffffffffffffffffffff16815260200190815260200160002090805190602001906200253e92919062002d7f565b5050565b6200254c62002dd1565b600c60003373ffffffffffffffffffffffffffffffffffffffff1673ffffffffffffffffffffffffffffffffffffffff168152602001908152602001600020600880602002604051908101604052809291908260088015620025c4576020028201915b815481526020019060010190808311620025af575b5050505050905090565b60007f01ffc9a7000000000000000000000000000000000000000000000000000000007bffffffffffffffffffffffffffffffffffffffffffffffffffffffff1916827bffffffffffffffffffffffffffffffffffffffffffffffffffffffff1916149050919050565b620026d2816040516024016200264f9190620039f6565b6040516020818303038152906040527f41304fac000000000000000000000000000000000000000000000000000000007bffffffffffffffffffffffffffffffffffffffffffffffffffffffff19166020820180517bffffffffffffffffffffffffffffffffffffffffffffffffffffffff838183161783525050505062002a39565b50565b600033905090565b620026e9828262001cbe565b6200278157620027118173ffffffffffffffffffffffffffffffffffffffff16601462002a62565b620027218360001c602062002a62565b60405160200162002734929190620037f0565b6040516020818303038152906040526040517f08c379a0000000000000000000000000000000000000000000000000000000008152600401620027789190620039f6565b60405180910390fd5b5050565b62002791828262001cbe565b6200286657600180600084815260200190815260200160002060000160008373ffffffffffffffffffffffffffffffffffffffff1673ffffffffffffffffffffffffffffffffffffffff16815260200190815260200160002060006101000a81548160ff0219169083151502179055506200280b620026d5565b73ffffffffffffffffffffffffffffffffffffffff168173ffffffffffffffffffffffffffffffffffffffff16837f2f8788117e7eff1d82e926ec794901d17c78024a50270940304540a733656f0d60405160405180910390a45b5050565b62002876828262001cbe565b156200294d5760006001600084815260200190815260200160002060000160008373ffffffffffffffffffffffffffffffffffffffff1673ffffffffffffffffffffffffffffffffffffffff16815260200190815260200160002060006101000a81548160ff021916908315150217905550620028f2620026d5565b73ffffffffffffffffffffffffffffffffffffffff168173ffffffffffffffffffffffffffffffffffffffff16837ff6391f5c32d9c69d2a47ea670b442974b53935d1edc7fd64eb21e047a839171b60405160405180910390a45b5050565b60006200295e3062002cbd565b15905090565b62002970828262002785565b5050565b60008060029054906101000a900473ffffffffffffffffffffffffffffffffffffffff16905081600060026101000a81548173ffffffffffffffffffffffffffffffffffffffff021916908373ffffffffffffffffffffffffffffffffffffffff1602179055508173ffffffffffffffffffffffffffffffffffffffff168173ffffffffffffffffffffffffffffffffffffffff167f8be0079c531659141344cd1fd0a4f28419497f9722a3daafe3b4186f6b6457e060405160405180910390a35050565b60008151905060006a636f6e736f6c652e6c6f679050602083016000808483855afa5050505050565b60606000600283600262002a77919062003cde565b62002a83919062003c81565b67ffffffffffffffff81111562002a9f5762002a9e62003fe2565b5b6040519080825280601f01601f19166020018201604052801562002ad25781602001600182028036833780820191505090505b5090507f30000000000000000000000000000000000000000000000000000000000000008160008151811062002b0d5762002b0c62003fb3565b5b60200101907effffffffffffffffffffffffffffffffffffffffffffffffffffffffffffff1916908160001a9053507f78000000000000000000000000000000000000000000000000000000000000008160018151811062002b745762002b7362003fb3565b5b60200101907effffffffffffffffffffffffffffffffffffffffffffffffffffffffffffff1916908160001a9053506000600184600262002bb6919062003cde565b62002bc2919062003c81565b90505b600181111562002c6c577f3031323334353637383961626364656600000000000000000000000000000000600f86166010811062002c085762002c0762003fb3565b5b1a60f81b82828151811062002c225762002c2162003fb3565b5b60200101907effffffffffffffffffffffffffffffffffffffffffffffffffffffffffffff1916908160001a905350600485901c94508062002c649062003e6c565b905062002bc5565b506000841462002cb3576040517f08c379a000000000000000000000000000000000000000000000000000000000815260040162002caa9062003a1a565b60405180910390fd5b8091505092915050565b6000808273ffffffffffffffffffffffffffffffffffffffff163b119050919050565b82805462002cee9062003e9b565b90600052602060002090601f01602090048101928262002d12576000855562002d5e565b82601f1062002d2d57803560ff191683800117855562002d5e565b8280016001018555821562002d5e579182015b8281111562002d5d57823582559160200191906001019062002d40565b5b50905062002d6d919062002df4565b5090565b610f9f80620042ca83390190565b82805482825590600052602060002090810192821562002dbe579160200282015b8281111562002dbd57825182559160200191906001019062002da0565b5b50905062002dcd919062002df4565b5090565b604051806101000160405280600890602082028036833780820191505090505090565b5b8082111562002e0f57600081600090555060010162002df5565b5090565b600062002e2a62002e248462003b70565b62003b47565b9050808382526020820190508285602086028201111562002e505762002e4f6200401b565b5b60005b8581101562002e84578162002e69888262002f09565b84526020840193506020830192505060018101905062002e53565b5050509392505050565b600062002ea562002e9f8462003b9f565b62003b47565b9050808382526020820190508285602086028201111562002ecb5762002eca6200401b565b5b60005b8581101562002eff578162002ee4888262003041565b84526020840193506020830192505060018101905062002ece565b5050509392505050565b60008135905062002f1a8162004247565b92915050565b600082601f83011262002f385762002f3762004016565b5b813562002f4a84826020860162002e13565b91505092915050565b600082601f83011262002f6b5762002f6a62004016565b5b813562002f7d84826020860162002e8e565b91505092915050565b60008135905062002f978162004261565b92915050565b60008151905062002fae8162004261565b92915050565b60008135905062002fc5816200427b565b92915050565b60008135905062002fdc8162004295565b92915050565b60008083601f84011262002ffb5762002ffa62004016565b5b8235905067ffffffffffffffff8111156200301b576200301a62004011565b5b6020830191508360018202830111156200303a57620030396200401b565b5b9250929050565b6000813590506200305281620042af565b92915050565b6000815190506200306981620042af565b92915050565b60006020828403121562003088576200308762004025565b5b6000620030988482850162002f09565b91505092915050565b60008060408385031215620030bb57620030ba62004025565b5b6000620030cb8582860162002f09565b9250506020620030de8582860162003041565b9150509250929050565b60006020828403121562003101576200310062004025565b5b600082013567ffffffffffffffff81111562003122576200312162004020565b5b620031308482850162002f20565b91505092915050565b60006020828403121562003152576200315162004025565b5b600082013567ffffffffffffffff81111562003173576200317262004020565b5b620031818482850162002f53565b91505092915050565b600060208284031215620031a357620031a262004025565b5b6000620031b38482850162002f9d565b91505092915050565b600060208284031215620031d557620031d462004025565b5b6000620031e58482850162002fb4565b91505092915050565b6000806040838503121562003208576200320762004025565b5b6000620032188582860162002fb4565b92505060206200322b8582860162002f09565b9150509250929050565b6000602082840312156200324e576200324d62004025565b5b60006200325e8482850162002fcb565b91505092915050565b60008060008060008060008060008060006101408c8e03121562003290576200328f62004025565b5b60008c013567ffffffffffffffff811115620032b157620032b062004020565b5b620032bf8e828f0162002fe2565b9b509b50506020620032d48e828f0162003041565b9950506040620032e78e828f0162003041565b9850506060620032fa8e828f0162002f86565b97505060806200330d8e828f0162002f09565b96505060a0620033208e828f0162002f09565b95505060c0620033338e828f0162002f09565b94505060e0620033468e828f0162002f09565b9350506101006200335a8e828f0162002f09565b9250506101206200336e8e828f0162002f09565b9150509295989b509295989b9093969950565b6000602082840312156200339a576200339962004025565b5b6000620033aa8482850162003041565b91505092915050565b600060208284031215620033cc57620033cb62004025565b5b6000620033dc8482850162003058565b91505092915050565b6000620033f38383620037bd565b60208301905092915050565b6200340a8162003d7a565b82525050565b8082525050565b620034228162003bfd565b6200342e818462003c38565b92506200343b8262003bce565b8060005b8381101562003472578151620034568782620033e5565b9650620034638362003c1e565b9250506001810190506200343f565b505050505050565b6000620034878262003c08565b62003493818562003c43565b9350620034a08362003bd8565b8060005b83811015620034d7578151620034bb8882620033e5565b9750620034c88362003c2b565b925050600181019050620034a4565b5085935050505092915050565b620034ef8162003d8e565b82525050565b620035008162003d9a565b82525050565b620035118162003dfa565b82525050565b8082525050565b8082525050565b8082525050565b8082525050565b6000620035408262003c13565b6200354c818562003c54565b93506200355e81856020860162003e36565b62003569816200402a565b840191505092915050565b6000620035818262003c13565b6200358d818562003c76565b93506200359f81856020860162003e36565b80840191505092915050565b60008154620035ba8162003e9b565b620035c6818662003c65565b94506001821660008114620035e45760018114620035f7576200362e565b60ff19831686526020860193506200362e565b620036028562003be8565b60005b83811015620036265781548189015260018201915060208101905062003605565b808801955050505b50505092915050565b60006200364660208362003c54565b915062003653826200403b565b602082019050919050565b60006200366d60268362003c54565b91506200367a8262004064565b604082019050919050565b600062003694601e8362003c54565b9150620036a182620040b3565b602082019050919050565b6000620036bb602e8362003c54565b9150620036c882620040dc565b604082019050919050565b6000620036e260208362003c54565b9150620036ef826200412b565b602082019050919050565b60006200370960178362003c54565b9150620037168262004154565b602082019050919050565b60006200373060178362003c76565b91506200373d826200417d565b601782019050919050565b60006200375760178362003c54565b91506200376482620041a6565b602082019050919050565b60006200377e60118362003c76565b91506200378b82620041cf565b601182019050919050565b6000620037a5602f8362003c54565b9150620037b282620041f8565b604082019050919050565b620037c88162003df0565b82525050565b620037d98162003df0565b82525050565b620037ea8162003df0565b82525050565b6000620037fd8262003721565b91506200380b828562003574565b915062003818826200376f565b915062003826828462003574565b91508190509392505050565b6000602082019050620038496000830184620033ff565b92915050565b6000606082019050620038666000830186620033ff565b620038756020830185620033ff565b620038846040830184620037ce565b949350505050565b6000604082019050620038a36000830185620033ff565b620038b26020830184620037ce565b9392505050565b600061010082019050620038d1600083018462003417565b92915050565b60006020820190508181036000830152620038f381846200347a565b905092915050565b6000602082019050620039126000830184620034e4565b92915050565b60006020820190506200392f6000830184620034f5565b92915050565b60006080820190506200394c60008301876200352c565b6200395b602083018662003410565b6200396a6040830185620037df565b81810360608301526200397e8184620035ab565b905095945050505050565b600060c082019050620039a060008301896200352c565b620039af6020830188620037df565b620039be604083018762003506565b620039cd606083018662003517565b620039dc608083018562003525565b620039eb60a08301846200351e565b979650505050505050565b6000602082019050818103600083015262003a12818462003533565b905092915050565b6000602082019050818103600083015262003a358162003637565b9050919050565b6000602082019050818103600083015262003a57816200365e565b9050919050565b6000602082019050818103600083015262003a798162003685565b9050919050565b6000602082019050818103600083015262003a9b81620036ac565b9050919050565b6000602082019050818103600083015262003abd81620036d3565b9050919050565b6000602082019050818103600083015262003adf81620036fa565b9050919050565b6000602082019050818103600083015262003b018162003748565b9050919050565b6000602082019050818103600083015262003b238162003796565b9050919050565b600060208201905062003b416000830184620037ce565b92915050565b600062003b5362003b66565b905062003b61828262003ed1565b919050565b6000604051905090565b600067ffffffffffffffff82111562003b8e5762003b8d62003fe2565b5b602082029050602081019050919050565b600067ffffffffffffffff82111562003bbd5762003bbc62003fe2565b5b602082029050602081019050919050565b6000819050919050565b6000819050602082019050919050565b60008190508160005260206000209050919050565b600060089050919050565b600081519050919050565b600081519050919050565b6000602082019050919050565b6000602082019050919050565b600081905092915050565b600082825260208201905092915050565b600082825260208201905092915050565b600082825260208201905092915050565b600081905092915050565b600062003c8e8262003df0565b915062003c9b8362003df0565b9250827fffffffffffffffffffffffffffffffffffffffffffffffffffffffffffffffff0382111562003cd35762003cd262003f55565b5b828201905092915050565b600062003ceb8262003df0565b915062003cf88362003df0565b9250817fffffffffffffffffffffffffffffffffffffffffffffffffffffffffffffffff048311821515161562003d345762003d3362003f55565b5b828202905092915050565b600062003d4c8262003df0565b915062003d598362003df0565b92508282101562003d6f5762003d6e62003f55565b5b828203905092915050565b600062003d878262003dd0565b9050919050565b60008115159050919050565b6000819050919050565b60007fffffffff0000000000000000000000000000000000000000000000000000000082169050919050565b600073ffffffffffffffffffffffffffffffffffffffff82169050919050565b6000819050919050565b600062003e078262003e0e565b9050919050565b600062003e1b8262003e22565b9050919050565b600062003e2f8262003dd0565b9050919050565b60005b8381101562003e5657808201518184015260208101905062003e39565b8381111562003e66576000848401525b50505050565b600062003e798262003df0565b9150600082141562003e905762003e8f62003f55565b5b600182039050919050565b6000600282049050600182168062003eb457607f821691505b6020821081141562003ecb5762003eca62003f84565b5b50919050565b62003edc826200402a565b810181811067ffffffffffffffff8211171562003efe5762003efd62003fe2565b5b80604052505050565b600062003f148262003df0565b91507fffffffffffffffffffffffffffffffffffffffffffffffffffffffffffffffff82141562003f4a5762003f4962003f55565b5b600182019050919050565b7f4e487b7100000000000000000000000000000000000000000000000000000000600052601160045260246000fd5b7f4e487b7100000000000000000000000000000000000000000000000000000000600052602260045260246000fd5b7f4e487b7100000000000000000000000000000000000000000000000000000000600052603260045260246000fd5b7f4e487b7100000000000000000000000000000000000000000000000000000000600052604160045260246000fd5b600080fd5b600080fd5b600080fd5b600080fd5b600080fd5b6000601f19601f8301169050919050565b7f537472696e67733a20686578206c656e67746820696e73756666696369656e74600082015250565b7f4f776e61626c653a206e6577206f776e657220697320746865207a65726f206160008201527f6464726573730000000000000000000000000000000000000000000000000000602082015250565b7f6c696e657570206973206c6f636b656420666f7220746865207765656b210000600082015250565b7f496e697469616c697a61626c653a20636f6e747261637420697320616c72656160008201527f647920696e697469616c697a6564000000000000000000000000000000000000602082015250565b7f4f776e61626c653a2063616c6c6572206973206e6f7420746865206f776e6572600082015250565b7f43616c6c6572206973206e6f74207468652061646d696e000000000000000000600082015250565b7f416363657373436f6e74726f6c3a206163636f756e7420000000000000000000600082015250565b7f4c656167756520456e74727920697320436c6f73656421000000000000000000600082015250565b7f206973206d697373696e6720726f6c6520000000000000000000000000000000600082015250565b7f416363657373436f6e74726f6c3a2063616e206f6e6c792072656e6f756e636560008201527f20726f6c657320666f722073656c660000000000000000000000000000000000602082015250565b620042528162003d7a565b81146200425e57600080fd5b50565b6200426c8162003d8e565b81146200427857600080fd5b50565b620042868162003d9a565b81146200429257600080fd5b50565b620042a08162003da4565b8114620042ac57600080fd5b50565b620042ba8162003df0565b8114620042c657600080fd5b5056fe608060405234801561001057600080fd5b5061002d61002261003260201b60201c565b61003a60201b60201c565b6100fe565b600033905090565b60008060009054906101000a900473ffffffffffffffffffffffffffffffffffffffff169050816000806101000a81548173ffffffffffffffffffffffffffffffffffffffff021916908373ffffffffffffffffffffffffffffffffffffffff1602179055508173ffffffffffffffffffffffffffffffffffffffff168173ffffffffffffffffffffffffffffffffffffffff167f8be0079c531659141344cd1fd0a4f28419497f9722a3daafe3b4186f6b6457e060405160405180910390a35050565b610e928061010d6000396000f3fe608060405234801561001057600080fd5b50600436106100935760003560e01c80638da5cb5b116100665780638da5cb5b146101325780639b19251a14610150578063dc9a153514610180578063e2ec6ec31461019e578063f2fde38b146101ce57610093565b806324953eaa14610098578063286dd3f5146100c8578063715018a6146100f85780637b9417c814610102575b600080fd5b6100b260048036038101906100ad9190610a4a565b6101ea565b6040516100bf9190610b12565b60405180910390f35b6100e260048036038101906100dd9190610a1d565b6102d4565b6040516100ef9190610b12565b60405180910390f35b610100610457565b005b61011c60048036038101906101179190610a1d565b6104df565b6040516101299190610b12565b60405180910390f35b61013a610660565b6040516101479190610af7565b60405180910390f35b61016a60048036038101906101659190610a1d565b610689565b6040516101779190610b12565b60405180910390f35b6101886106a9565b6040516101959190610b12565b60405180910390f35b6101b860048036038101906101b39190610a4a565b6106bc565b6040516101c59190610b12565b60405180910390f35b6101e860048036038101906101e39190610a1d565b6107a6565b005b60006101f461089e565b73ffffffffffffffffffffffffffffffffffffffff16610212610660565b73ffffffffffffffffffffffffffffffffffffffff1614610268576040517f08c379a000000000000000000000000000000000000000000000000000000000815260040161025f90610b4d565b60405180910390fd5b60005b82518110156102ce5761029783828151811061028a57610289610d4a565b5b60200260200101516102d4565b156102bb576001600260008282546102af9190610c25565b92505081905550600191505b80806102c690610cd2565b91505061026b565b50919050565b60006102de61089e565b73ffffffffffffffffffffffffffffffffffffffff166102fc610660565b73ffffffffffffffffffffffffffffffffffffffff1614610352576040517f08c379a000000000000000000000000000000000000000000000000000000000815260040161034990610b4d565b60405180910390fd5b600160008373ffffffffffffffffffffffffffffffffffffffff1673ffffffffffffffffffffffffffffffffffffffff16815260200190815260200160002060009054906101000a900460ff1615610452576000600160008473ffffffffffffffffffffffffffffffffffffffff1673ffffffffffffffffffffffffffffffffffffffff16815260200190815260200160002060006101000a81548160ff0219169083151502179055507ff1abf01a1043b7c244d128e8595cf0c1d10743b022b03a02dffd8ca3bf729f5a8260405161042b9190610af7565b60405180910390a16001600260008282546104469190610c25565b92505081905550600190505b919050565b61045f61089e565b73ffffffffffffffffffffffffffffffffffffffff1661047d610660565b73ffffffffffffffffffffffffffffffffffffffff16146104d3576040517f08c379a00000000000000000000000000000000000000000000000000000000081526004016104ca90610b4d565b60405180910390fd5b6104dd60006108a6565b565b60006104e961089e565b73ffffffffffffffffffffffffffffffffffffffff16610507610660565b73ffffffffffffffffffffffffffffffffffffffff161461055d576040517f08c379a000000000000000000000000000000000000000000000000000000000815260040161055490610b4d565b60405180910390fd5b600160008373ffffffffffffffffffffffffffffffffffffffff1673ffffffffffffffffffffffffffffffffffffffff16815260200190815260200160002060009054906101000a900460ff1661065b5760018060008473ffffffffffffffffffffffffffffffffffffffff1673ffffffffffffffffffffffffffffffffffffffff16815260200190815260200160002060006101000a81548160ff0219169083151502179055507fd1bba68c128cc3f427e5831b3c6f99f480b6efa6b9e80c757768f6124158cc3f826040516106349190610af7565b60405180910390a160016002600082825461064f9190610bcf565b92505081905550600190505b919050565b60008060009054906101000a900473ffffffffffffffffffffffffffffffffffffffff16905090565b60016020528060005260406000206000915054906101000a900460ff1681565b600360009054906101000a900460ff1681565b60006106c661089e565b73ffffffffffffffffffffffffffffffffffffffff166106e4610660565b73ffffffffffffffffffffffffffffffffffffffff161461073a576040517f08c379a000000000000000000000000000000000000000000000000000000000815260040161073190610b4d565b60405180910390fd5b60005b82518110156107a05761076983828151811061075c5761075b610d4a565b5b60200260200101516104df565b1561078d576001600260008282546107819190610bcf565b92505081905550600191505b808061079890610cd2565b91505061073d565b50919050565b6107ae61089e565b73ffffffffffffffffffffffffffffffffffffffff166107cc610660565b73ffffffffffffffffffffffffffffffffffffffff1614610822576040517f08c379a000000000000000000000000000000000000000000000000000000000815260040161081990610b4d565b60405180910390fd5b600073ffffffffffffffffffffffffffffffffffffffff168173ffffffffffffffffffffffffffffffffffffffff161415610892576040517f08c379a000000000000000000000000000000000000000000000000000000000815260040161088990610b2d565b60405180910390fd5b61089b816108a6565b50565b600033905090565b60008060009054906101000a900473ffffffffffffffffffffffffffffffffffffffff169050816000806101000a81548173ffffffffffffffffffffffffffffffffffffffff021916908373ffffffffffffffffffffffffffffffffffffffff1602179055508173ffffffffffffffffffffffffffffffffffffffff168173ffffffffffffffffffffffffffffffffffffffff167f8be0079c531659141344cd1fd0a4f28419497f9722a3daafe3b4186f6b6457e060405160405180910390a35050565b600061097d61097884610b92565b610b6d565b905080838252602082019050828560208602820111156109a05761099f610dad565b5b60005b858110156109d057816109b688826109da565b8452602084019350602083019250506001810190506109a3565b5050509392505050565b6000813590506109e981610e45565b92915050565b600082601f830112610a0457610a03610da8565b5b8135610a1484826020860161096a565b91505092915050565b600060208284031215610a3357610a32610db7565b5b6000610a41848285016109da565b91505092915050565b600060208284031215610a6057610a5f610db7565b5b600082013567ffffffffffffffff811115610a7e57610a7d610db2565b5b610a8a848285016109ef565b91505092915050565b610a9c81610c59565b82525050565b610aab81610c6b565b82525050565b6000610abe602683610bbe565b9150610ac982610dcd565b604082019050919050565b6000610ae1602083610bbe565b9150610aec82610e1c565b602082019050919050565b6000602082019050610b0c6000830184610a93565b92915050565b6000602082019050610b276000830184610aa2565b92915050565b60006020820190508181036000830152610b4681610ab1565b9050919050565b60006020820190508181036000830152610b6681610ad4565b9050919050565b6000610b77610b88565b9050610b838282610ca1565b919050565b6000604051905090565b600067ffffffffffffffff821115610bad57610bac610d79565b5b602082029050602081019050919050565b600082825260208201905092915050565b6000610bda82610c97565b9150610be583610c97565b9250827fffffffffffffffffffffffffffffffffffffffffffffffffffffffffffffffff03821115610c1a57610c19610d1b565b5b828201905092915050565b6000610c3082610c97565b9150610c3b83610c97565b925082821015610c4e57610c4d610d1b565b5b828203905092915050565b6000610c6482610c77565b9050919050565b60008115159050919050565b600073ffffffffffffffffffffffffffffffffffffffff82169050919050565b6000819050919050565b610caa82610dbc565b810181811067ffffffffffffffff82111715610cc957610cc8610d79565b5b80604052505050565b6000610cdd82610c97565b91507fffffffffffffffffffffffffffffffffffffffffffffffffffffffffffffffff821415610d1057610d0f610d1b565b5b600182019050919050565b7f4e487b7100000000000000000000000000000000000000000000000000000000600052601160045260246000fd5b7f4e487b7100000000000000000000000000000000000000000000000000000000600052603260045260246000fd5b7f4e487b7100000000000000000000000000000000000000000000000000000000600052604160045260246000fd5b600080fd5b600080fd5b600080fd5b600080fd5b6000601f19601f8301169050919050565b7f4f776e61626c653a206e6577206f776e657220697320746865207a65726f206160008201527f6464726573730000000000000000000000000000000000000000000000000000602082015250565b7f4f776e61626c653a2063616c6c6572206973206e6f7420746865206f776e6572600082015250565b610e4e81610c59565b8114610e5957600080fd5b5056fea2646970667358221220070224275ad0b13d0a847fbeb4a423ae740dee42968a8d236c8eedaef3b3cc5764736f6c63430008070033a26469706673582212205cbe5f62663826f24909e02a57040789eb02705fd6100df60d3e8000a0966bea64736f6c63430008070033",
  "linkReferences": {
    "contracts/MOBALogicLibrary.sol": {
      "MOBALogicLibrary": [
        {
          "length": 20,
          "start": 2888
        },
        {
          "length": 20,
          "start": 7395
        }
      ]
    }
  },
  "deployedLinkReferences": {
    "contracts/MOBALogicLibrary.sol": {
      "MOBALogicLibrary": [
        {
          "length": 20,
          "start": 2611
        },
        {
          "length": 20,
          "start": 7118
        }
      ]
    }
  }
}