{
  "_format": "hh-sol-artifact-1",
  "contractName": "LeagueOfLegendsLogic",
  "sourceName": "contracts/LeagueOfLegendsLogic.sol",
  "abi": [
    {
      "anonymous": false,
      "inputs": [
        {
          "indexed": true,
          "internalType": "address",
          "name": "previousOwner",
          "type": "address"
        },
        {
          "indexed": true,
          "internalType": "address",
          "name": "newOwner",
          "type": "address"
        }
      ],
      "name": "OwnershipTransferred",
      "type": "event"
    },
    {
      "anonymous": false,
      "inputs": [
        {
          "indexed": false,
          "internalType": "address",
          "name": "sender",
          "type": "address"
        },
        {
          "indexed": false,
          "internalType": "uint256",
          "name": "amount",
          "type": "uint256"
        }
      ],
      "name": "Staked",
      "type": "event"
    },
    {
      "anonymous": false,
      "inputs": [
        {
          "indexed": false,
          "internalType": "address",
          "name": "addr",
          "type": "address"
        }
      ],
      "name": "WhitelistedAddressAdded",
      "type": "event"
    },
    {
      "anonymous": false,
      "inputs": [
        {
          "indexed": false,
          "internalType": "address",
          "name": "addr",
          "type": "address"
        }
      ],
      "name": "WhitelistedAddressRemoved",
      "type": "event"
    },
    {
      "anonymous": false,
      "inputs": [
        {
          "indexed": false,
          "internalType": "address",
          "name": "sender",
          "type": "address"
        },
        {
          "indexed": false,
          "internalType": "address",
          "name": "contractAddress",
          "type": "address"
        }
      ],
      "name": "testUSDCDeployed",
      "type": "event"
    },
    {
      "inputs": [
        {
          "internalType": "address",
          "name": "addr",
          "type": "address"
        }
      ],
      "name": "addAddressToWhitelist",
      "outputs": [
        {
          "internalType": "bool",
          "name": "success",
          "type": "bool"
        }
      ],
      "stateMutability": "nonpayable",
      "type": "function"
    },
    {
      "inputs": [
        {
          "internalType": "address[]",
          "name": "addrs",
          "type": "address[]"
        }
      ],
      "name": "addAddressesToWhitelist",
      "outputs": [
        {
          "internalType": "bool",
          "name": "success",
          "type": "bool"
        }
      ],
      "stateMutability": "nonpayable",
      "type": "function"
    },
    {
      "inputs": [
        {
          "internalType": "address",
          "name": "_userToAdd",
          "type": "address"
        }
      ],
      "name": "addUserToWhitelist",
      "outputs": [],
      "stateMutability": "nonpayable",
      "type": "function"
    },
    {
      "inputs": [],
      "name": "admin",
      "outputs": [
        {
          "internalType": "address",
          "name": "",
          "type": "address"
        }
      ],
      "stateMutability": "view",
      "type": "function"
    },
    {
      "inputs": [
        {
          "internalType": "uint256",
          "name": "currentWeekNum",
          "type": "uint256"
        }
      ],
      "name": "evaluateWeek",
      "outputs": [],
      "stateMutability": "nonpayable",
      "type": "function"
    },
    {
      "inputs": [],
      "name": "getNumWhitelisted",
      "outputs": [
        {
          "internalType": "uint256",
          "name": "",
          "type": "uint256"
        }
      ],
      "stateMutability": "view",
      "type": "function"
    },
    {
      "inputs": [
        {
          "internalType": "address",
          "name": "_user",
          "type": "address"
        }
      ],
      "name": "getUserIsWhitelisted",
      "outputs": [
        {
          "internalType": "bool",
          "name": "",
          "type": "bool"
        }
      ],
      "stateMutability": "view",
      "type": "function"
    },
    {
      "inputs": [],
      "name": "getUserRecord",
      "outputs": [
        {
          "internalType": "uint256[8]",
          "name": "",
          "type": "uint256[8]"
        }
      ],
      "stateMutability": "view",
      "type": "function"
    },
    {
      "inputs": [],
      "name": "getUserTotalPts",
      "outputs": [
        {
          "internalType": "uint256",
          "name": "",
          "type": "uint256"
        }
      ],
      "stateMutability": "view",
      "type": "function"
    },
    {
      "inputs": [],
      "name": "getUserUSDCBalance",
      "outputs": [
        {
          "internalType": "uint256",
          "name": "",
          "type": "uint256"
        }
      ],
      "stateMutability": "view",
      "type": "function"
    },
    {
      "inputs": [],
      "name": "getUsersLength",
      "outputs": [
        {
          "internalType": "uint256",
          "name": "",
          "type": "uint256"
        }
      ],
      "stateMutability": "view",
      "type": "function"
    },
    {
      "inputs": [
        {
          "internalType": "address",
          "name": "",
          "type": "address"
        }
      ],
      "name": "inLeague",
      "outputs": [
        {
          "internalType": "bool",
          "name": "",
          "type": "bool"
        }
      ],
      "stateMutability": "view",
      "type": "function"
    },
    {
      "inputs": [
        {
          "internalType": "string",
          "name": "_name",
          "type": "string"
        },
        {
          "internalType": "uint256",
          "name": "_stakeAmount",
          "type": "uint256"
        },
        {
          "internalType": "bool",
          "name": "_isPublic",
          "type": "bool"
        },
        {
          "internalType": "address",
          "name": "athletesDataStorageAddress",
          "type": "address"
        },
        {
          "internalType": "address",
          "name": "_admin",
          "type": "address"
        },
        {
          "internalType": "address",
          "name": "_polygonUSDCAddress",
          "type": "address"
        },
        {
          "internalType": "address",
          "name": "_rinkebyUSDCAddress",
          "type": "address"
        },
        {
          "internalType": "address",
          "name": "_testUSDCAddress",
          "type": "address"
        },
        {
          "internalType": "address",
          "name": "leagueMakerContractAddress",
          "type": "address"
        }
      ],
      "name": "initialize",
      "outputs": [],
      "stateMutability": "nonpayable",
      "type": "function"
    },
    {
      "inputs": [],
      "name": "isPublic",
      "outputs": [
        {
          "internalType": "bool",
          "name": "",
          "type": "bool"
        }
      ],
      "stateMutability": "view",
      "type": "function"
    },
    {
      "inputs": [],
      "name": "joinLeague",
      "outputs": [],
      "stateMutability": "nonpayable",
      "type": "function"
    },
    {
      "inputs": [
        {
          "internalType": "uint256",
          "name": "",
          "type": "uint256"
        }
      ],
      "name": "leagueMembers",
      "outputs": [
        {
          "internalType": "address",
          "name": "",
          "type": "address"
        }
      ],
      "stateMutability": "view",
      "type": "function"
    },
    {
      "inputs": [],
      "name": "leagueName",
      "outputs": [
        {
          "internalType": "string",
          "name": "",
          "type": "string"
        }
      ],
      "stateMutability": "view",
      "type": "function"
    },
    {
      "inputs": [],
      "name": "lockLineup",
      "outputs": [],
      "stateMutability": "nonpayable",
      "type": "function"
    },
    {
      "inputs": [],
      "name": "numWeeks",
      "outputs": [
        {
          "internalType": "uint256",
          "name": "",
          "type": "uint256"
        }
      ],
      "stateMutability": "view",
      "type": "function"
    },
    {
      "inputs": [],
      "name": "onLeagueEnd",
      "outputs": [],
      "stateMutability": "nonpayable",
      "type": "function"
    },
    {
      "inputs": [],
      "name": "owner",
      "outputs": [
        {
          "internalType": "address",
          "name": "",
          "type": "address"
        }
      ],
      "stateMutability": "view",
      "type": "function"
    },
    {
      "inputs": [],
      "name": "polygonUSDCAddress",
      "outputs": [
        {
          "internalType": "address",
          "name": "",
          "type": "address"
        }
      ],
      "stateMutability": "view",
      "type": "function"
    },
    {
      "inputs": [
        {
          "internalType": "address",
          "name": "addr",
          "type": "address"
        }
      ],
      "name": "removeAddressFromWhitelist",
      "outputs": [
        {
          "internalType": "bool",
          "name": "success",
          "type": "bool"
        }
      ],
      "stateMutability": "nonpayable",
      "type": "function"
    },
    {
      "inputs": [
        {
          "internalType": "address[]",
          "name": "addrs",
          "type": "address[]"
        }
      ],
      "name": "removeAddressesFromWhitelist",
      "outputs": [
        {
          "internalType": "bool",
          "name": "success",
          "type": "bool"
        }
      ],
      "stateMutability": "nonpayable",
      "type": "function"
    },
    {
      "inputs": [
        {
          "internalType": "address",
          "name": "_userToRemove",
          "type": "address"
        }
      ],
      "name": "removeFromWhitelist",
      "outputs": [],
      "stateMutability": "nonpayable",
      "type": "function"
    },
    {
      "inputs": [],
      "name": "renounceOwnership",
      "outputs": [],
      "stateMutability": "nonpayable",
      "type": "function"
    },
    {
      "inputs": [],
      "name": "rinkebyUSDCAddress",
      "outputs": [
        {
          "internalType": "address",
          "name": "",
          "type": "address"
        }
      ],
      "stateMutability": "view",
      "type": "function"
    },
    {
      "inputs": [],
      "name": "setLeagueEntryIsClosed",
      "outputs": [],
      "stateMutability": "nonpayable",
      "type": "function"
    },
    {
      "inputs": [],
      "name": "setLeagueSchedule",
      "outputs": [],
      "stateMutability": "nonpayable",
      "type": "function"
    },
    {
      "inputs": [
        {
          "internalType": "uint256[]",
          "name": "athleteIds",
          "type": "uint256[]"
        }
      ],
      "name": "setLineup",
      "outputs": [],
      "stateMutability": "nonpayable",
      "type": "function"
    },
    {
      "inputs": [],
      "name": "stakeAmount",
      "outputs": [
        {
          "internalType": "uint256",
          "name": "",
          "type": "uint256"
        }
      ],
      "stateMutability": "view",
      "type": "function"
    },
    {
      "inputs": [],
      "name": "testUSDC",
      "outputs": [
        {
          "internalType": "contract IERC20",
          "name": "",
          "type": "address"
        }
      ],
      "stateMutability": "view",
      "type": "function"
    },
    {
      "inputs": [
        {
          "internalType": "address",
          "name": "newOwner",
          "type": "address"
        }
      ],
      "name": "transferOwnership",
      "outputs": [],
      "stateMutability": "nonpayable",
      "type": "function"
    },
    {
      "inputs": [],
      "name": "unlockLineup",
      "outputs": [],
      "stateMutability": "nonpayable",
      "type": "function"
    },
    {
      "inputs": [
        {
          "internalType": "address",
          "name": "",
          "type": "address"
        },
        {
          "internalType": "uint256",
          "name": "",
          "type": "uint256"
        }
      ],
      "name": "userToLineup",
      "outputs": [
        {
          "internalType": "uint256",
          "name": "",
          "type": "uint256"
        }
      ],
      "stateMutability": "view",
      "type": "function"
    },
    {
      "inputs": [
        {
          "internalType": "address",
          "name": "",
          "type": "address"
        },
        {
          "internalType": "uint256",
          "name": "",
          "type": "uint256"
        }
      ],
      "name": "userToRecord",
      "outputs": [
        {
          "internalType": "uint256",
          "name": "",
          "type": "uint256"
        }
      ],
      "stateMutability": "view",
      "type": "function"
    },
    {
      "inputs": [
        {
          "internalType": "address",
          "name": "",
          "type": "address"
        }
      ],
      "name": "userToTotalWins",
      "outputs": [
        {
          "internalType": "uint256",
          "name": "",
          "type": "uint256"
        }
      ],
      "stateMutability": "view",
      "type": "function"
    },
    {
      "inputs": [
        {
          "internalType": "address",
          "name": "",
          "type": "address"
        }
      ],
      "name": "whitelist",
      "outputs": [
        {
          "internalType": "bool",
          "name": "",
          "type": "bool"
        }
      ],
      "stateMutability": "view",
      "type": "function"
    }
  ],
  "bytecode": "0x60806040523480156200001157600080fd5b5062000032620000266200004060201b60201c565b6200004860201b60201c565b60016004819055506200010d565b600033905090565b60008060029054906101000a900473ffffffffffffffffffffffffffffffffffffffff16905081600060026101000a81548173ffffffffffffffffffffffffffffffffffffffff021916908373ffffffffffffffffffffffffffffffffffffffff1602179055508173ffffffffffffffffffffffffffffffffffffffff168173ffffffffffffffffffffffffffffffffffffffff167f8be0079c531659141344cd1fd0a4f28419497f9722a3daafe3b4186f6b6457e060405160405180910390a35050565b61520a806200011d6000396000f3fe60806040523480156200001157600080fd5b5060043610620002675760003560e01c80638da5cb5b116200014d578063cff5600311620000c9578063edcbe96c1162000087578063edcbe96c14620006f4578063f2fde38b146200072a578063f612121a146200074a578063f851a440146200076a578063f8816045146200078c5762000267565b8063cff560031462000624578063dc9a1535146200065a578063e2ec6ec3146200067c578063e35a899914620006b2578063e4c9066b14620006e85762000267565b80639b19251a11620001175780639b19251a14620005aa5780639f2d548114620005e0578063a2bc091a1462000600578063c8be3b5b146200060c578063c99fea9414620006185762000267565b80638da5cb5b14620005105780639122ce6d146200053257806393f3706c1462000568578063989db659146200058a5762000267565b8063595b1a3e11620001e9578063747b805011620001a7578063747b805014620004565780637b9417c814620004765780637eed33f114620004ac578063841abf6e14620004ce5780638ab1d68114620004f05762000267565b8063595b1a3e14620003c25780635fcc698714620003e457806360c7dc4714620004065780636bdc44df1462000428578063715018a6146200044a5762000267565b80631d803e0011620002375780631d803e0014620002f257806324953eaa14620002fe578063267175db1462000334578063286dd3f5146200036a57806344eaa84e14620003a05762000267565b8062b2476f146200026c578063022e35e6146200028e5780630655465a14620002b05780630c6f795914620002bc575b600080fd5b62000276620007ae565b604051620002859190620035d7565b60405180910390f35b62000298620007d4565b604051620002a7919062003699565b60405180910390f35b620002ba620007fa565b005b620002da6004803603810190620002d4919062002f76565b620008b2565b604051620002e9919062003955565b60405180910390f35b620002fc620008db565b005b6200031c600480360381019062000316919062002fbd565b62000c0c565b6040516200032b91906200367c565b60405180910390f35b6200035260048036038101906200034c919062003194565b62000d09565b604051620003619190620035d7565b60405180910390f35b62000388600480360381019062000382919062002f44565b62000d49565b6040516200039791906200367c565b60405180910390f35b620003aa62000ed8565b604051620003b9919062003955565b60405180910390f35b620003cc62000ee2565b604051620003db919062003955565b60405180910390f35b620003ee62000eef565b604051620003fd919062003955565b60405180910390f35b6200041062000ffe565b6040516200041f919062003955565b60405180910390f35b6200043262001004565b60405162000441919062003955565b60405180910390f35b620004546200104b565b005b6200047460048036038101906200046e919062002f44565b620010dc565b005b6200049460048036038101906200048e919062002f44565b62001226565b604051620004a391906200367c565b60405180910390f35b620004b6620013b3565b604051620004c5919062003955565b60405180910390f35b620004d8620013b9565b604051620004e7919062003777565b60405180910390f35b6200050e600480360381019062000508919062002f44565b6200144f565b005b6200051a620015ec565b604051620005299190620035d7565b60405180910390f35b6200055060048036038101906200054a919062002f44565b62001615565b6040516200055f91906200367c565b60405180910390f35b6200057262001635565b604051620005819190620035d7565b60405180910390f35b620005a86004803603810190620005a2919062003091565b6200165b565b005b620005c86004803603810190620005c2919062002f44565b62001ab2565b604051620005d791906200367c565b60405180910390f35b620005fe6004803603810190620005f8919062003194565b62001ad2565b005b6200060a62001bf3565b005b6200061662001c93565b005b6200062262001d33565b005b6200064260048036038101906200063c919062002f76565b620021c1565b60405162000651919062003955565b60405180910390f35b62000664620021f3565b6040516200067391906200367c565b60405180910390f35b6200069a600480360381019062000694919062002fbd565b62002206565b604051620006a991906200367c565b60405180910390f35b620006d06004803603810190620006ca919062002f44565b62002303565b604051620006df91906200367c565b60405180910390f35b620006f262002359565b005b6200071260048036038101906200070c919062002f44565b620023f9565b60405162000721919062003955565b60405180910390f35b62000748600480360381019062000742919062002f44565b62002411565b005b6200076860048036038101906200076291906200300e565b62002515565b005b6200077462002968565b604051620007839190620035d7565b60405180910390f35b620007966200298e565b604051620007a591906200365e565b60405180910390f35b601260009054906101000a900473ffffffffffffffffffffffffffffffffffffffff1681565b601660009054906101000a900473ffffffffffffffffffffffffffffffffffffffff1681565b6200083a6040518060400160405280601081526020017f73657474696e67207363686564756c650000000000000000000000000000000081525062002a1a565b73__$36fdb4e0c2cb91f3ceca5ea81b025328f3$__63d2c232b56010600f60065460056040518563ffffffff1660e01b81526004016200087e9493929190620036b6565b60006040518083038186803b1580156200089757600080fd5b505af4158015620008ac573d6000803e3d6000fd5b50505050565b600b6020528160005260406000208160088110620008cf57600080fd5b01600091509150505481565b620008e562002ab7565b73ffffffffffffffffffffffffffffffffffffffff1662000905620015ec565b73ffffffffffffffffffffffffffffffffffffffff16146200095e576040517f08c379a0000000000000000000000000000000000000000000000000000000008152600401620009559062003889565b60405180910390fd5b60026004541415620009a7576040517f08c379a00000000000000000000000000000000000000000000000000000000081526004016200099e9062003911565b60405180910390fd5b60026004819055506000600f80549050600754620009c6919062003ac5565b90506000600f600081548110620009e257620009e162003d78565b5b9060005260206000200160009054906101000a900473ffffffffffffffffffffffffffffffffffffffff1690506000600190505b600f8054905081101562000b4757600a60008373ffffffffffffffffffffffffffffffffffffffff1673ffffffffffffffffffffffffffffffffffffffff16815260200190815260200160002054600a6000600f848154811062000a7f5762000a7e62003d78565b5b9060005260206000200160009054906101000a900473ffffffffffffffffffffffffffffffffffffffff1673ffffffffffffffffffffffffffffffffffffffff1673ffffffffffffffffffffffffffffffffffffffff16815260200190815260200160002054111562000b3157600f818154811062000b035762000b0262003d78565b5b9060005260206000200160009054906101000a900473ffffffffffffffffffffffffffffffffffffffff1691505b808062000b3e9062003ccc565b91505062000a16565b50601660009054906101000a900473ffffffffffffffffffffffffffffffffffffffff1673ffffffffffffffffffffffffffffffffffffffff166323b872dd3083856040518463ffffffff1660e01b815260040162000ba993929190620035f4565b602060405180830381600087803b15801562000bc457600080fd5b505af115801562000bd9573d6000803e3d6000fd5b505050506040513d601f19601f8201168201806040525081019062000bff91906200305f565b5050506001600481905550565b600062000c1862002ab7565b73ffffffffffffffffffffffffffffffffffffffff1662000c38620015ec565b73ffffffffffffffffffffffffffffffffffffffff161462000c91576040517f08c379a000000000000000000000000000000000000000000000000000000000815260040162000c889062003889565b60405180910390fd5b60005b825181101562000d035762000cc683828151811062000cb85762000cb762003d78565b5b602002602001015162000d49565b1562000ced5760016002600082825462000ce1919062003b26565b92505081905550600191505b808062000cfa9062003ccc565b91505062000c94565b50919050565b600f818154811062000d1a57600080fd5b906000526020600020016000915054906101000a900473ffffffffffffffffffffffffffffffffffffffff1681565b600062000d5562002ab7565b73ffffffffffffffffffffffffffffffffffffffff1662000d75620015ec565b73ffffffffffffffffffffffffffffffffffffffff161462000dce576040517f08c379a000000000000000000000000000000000000000000000000000000000815260040162000dc59062003889565b60405180910390fd5b600160008373ffffffffffffffffffffffffffffffffffffffff1673ffffffffffffffffffffffffffffffffffffffff16815260200190815260200160002060009054906101000a900460ff161562000ed3576000600160008473ffffffffffffffffffffffffffffffffffffffff1673ffffffffffffffffffffffffffffffffffffffff16815260200190815260200160002060006101000a81548160ff0219169083151502179055507ff1abf01a1043b7c244d128e8595cf0c1d10743b022b03a02dffd8ca3bf729f5a8260405162000eaa9190620035d7565b60405180910390a160016002600082825462000ec7919062003b26565b92505081905550600190505b919050565b6000600254905090565b6000600f80549050905090565b6000600e60003373ffffffffffffffffffffffffffffffffffffffff1673ffffffffffffffffffffffffffffffffffffffff16815260200190815260200160002060009054906101000a900460ff1662000f4857600080fd5b601660009054906101000a900473ffffffffffffffffffffffffffffffffffffffff1673ffffffffffffffffffffffffffffffffffffffff166370a08231336040518263ffffffff1660e01b815260040162000fa59190620035d7565b60206040518083038186803b15801562000fbe57600080fd5b505afa15801562000fd3573d6000803e3d6000fd5b505050506040513d601f19601f8201168201806040525081019062000ff99190620031c6565b905090565b60075481565b6000600a60003373ffffffffffffffffffffffffffffffffffffffff1673ffffffffffffffffffffffffffffffffffffffff16815260200190815260200160002054905090565b6200105562002ab7565b73ffffffffffffffffffffffffffffffffffffffff1662001075620015ec565b73ffffffffffffffffffffffffffffffffffffffff1614620010ce576040517f08c379a0000000000000000000000000000000000000000000000000000000008152600401620010c59062003889565b60405180910390fd5b620010da600062002abf565b565b600860009054906101000a900473ffffffffffffffffffffffffffffffffffffffff1673ffffffffffffffffffffffffffffffffffffffff163373ffffffffffffffffffffffffffffffffffffffff16146200116f576040517f08c379a00000000000000000000000000000000000000000000000000000000081526004016200116690620038cd565b60405180910390fd5b601460009054906101000a900473ffffffffffffffffffffffffffffffffffffffff1673ffffffffffffffffffffffffffffffffffffffff16637b9417c8826040518263ffffffff1660e01b8152600401620011cc9190620035d7565b602060405180830381600087803b158015620011e757600080fd5b505af1158015620011fc573d6000803e3d6000fd5b505050506040513d601f19601f820116820180604052508101906200122291906200305f565b5050565b60006200123262002ab7565b73ffffffffffffffffffffffffffffffffffffffff1662001252620015ec565b73ffffffffffffffffffffffffffffffffffffffff1614620012ab576040517f08c379a0000000000000000000000000000000000000000000000000000000008152600401620012a29062003889565b60405180910390fd5b600160008373ffffffffffffffffffffffffffffffffffffffff1673ffffffffffffffffffffffffffffffffffffffff16815260200190815260200160002060009054906101000a900460ff16620013ae5760018060008473ffffffffffffffffffffffffffffffffffffffff1673ffffffffffffffffffffffffffffffffffffffff16815260200190815260200160002060006101000a81548160ff0219169083151502179055507fd1bba68c128cc3f427e5831b3c6f99f480b6efa6b9e80c757768f6124158cc3f82604051620013859190620035d7565b60405180910390a1600160026000828254620013a2919062003a68565b92505081905550600190505b919050565b60065481565b60058054620013c89062003c60565b80601f0160208091040260200160405190810160405280929190818152602001828054620013f69062003c60565b8015620014475780601f106200141b5761010080835404028352916020019162001447565b820191906000526020600020905b8154815290600101906020018083116200142957829003601f168201915b505050505081565b600860009054906101000a900473ffffffffffffffffffffffffffffffffffffffff1673ffffffffffffffffffffffffffffffffffffffff163373ffffffffffffffffffffffffffffffffffffffff1614620014e2576040517f08c379a0000000000000000000000000000000000000000000000000000000008152600401620014d990620038cd565b60405180910390fd5b600960149054906101000a900460ff161562001535576040517f08c379a00000000000000000000000000000000000000000000000000000000081526004016200152c90620038ef565b60405180910390fd5b601460009054906101000a900473ffffffffffffffffffffffffffffffffffffffff1673ffffffffffffffffffffffffffffffffffffffff1663286dd3f5826040518263ffffffff1660e01b8152600401620015929190620035d7565b602060405180830381600087803b158015620015ad57600080fd5b505af1158015620015c2573d6000803e3d6000fd5b505050506040513d601f19601f82011682018060405250810190620015e891906200305f565b5050565b60008060029054906101000a900473ffffffffffffffffffffffffffffffffffffffff16905090565b600e6020528060005260406000206000915054906101000a900460ff1681565b601160009054906101000a900473ffffffffffffffffffffffffffffffffffffffff1681565b600060019054906101000a900460ff16620016855760008054906101000a900460ff161562001690565b6200168f62002b84565b5b620016d2576040517f08c379a0000000000000000000000000000000000000000000000000000000008152600401620016c99062003867565b60405180910390fd5b60008060019054906101000a900460ff16159050801562001723576001600060016101000a81548160ff02191690831515021790555060016000806101000a81548160ff0219169083151502179055505b8a8a600591906200173692919062002be3565b5060086006819055506001600e60008873ffffffffffffffffffffffffffffffffffffffff1673ffffffffffffffffffffffffffffffffffffffff16815260200190815260200160002060006101000a81548160ff021916908315150217905550600f869080600181540180825580915050600190039060005260206000200160009091909190916101000a81548173ffffffffffffffffffffffffffffffffffffffff021916908373ffffffffffffffffffffffffffffffffffffffff16021790555085600860006101000a81548173ffffffffffffffffffffffffffffffffffffffff021916908373ffffffffffffffffffffffffffffffffffffffff1602179055508860078190555087600360006101000a81548160ff0219169083151502179055506000600960156101000a81548160ff0219169083151502179055506000600960146101000a81548160ff02191690831515021790555086601360006101000a81548173ffffffffffffffffffffffffffffffffffffffff021916908373ffffffffffffffffffffffffffffffffffffffff16021790555081601560006101000a81548173ffffffffffffffffffffffffffffffffffffffff021916908373ffffffffffffffffffffffffffffffffffffffff160217905550604051620019229062002c74565b604051809103906000f0801580156200193f573d6000803e3d6000fd5b50601460006101000a81548173ffffffffffffffffffffffffffffffffffffffff021916908373ffffffffffffffffffffffffffffffffffffffff16021790555084601160006101000a81548173ffffffffffffffffffffffffffffffffffffffff021916908373ffffffffffffffffffffffffffffffffffffffff16021790555083601260006101000a81548173ffffffffffffffffffffffffffffffffffffffff021916908373ffffffffffffffffffffffffffffffffffffffff16021790555082601660006101000a81548173ffffffffffffffffffffffffffffffffffffffff021916908373ffffffffffffffffffffffffffffffffffffffff16021790555062001a836040518060400160405280601281526020017f50726f787920696e697469616c697a656421000000000000000000000000000081525062002a1a565b801562001aa55760008060016101000a81548160ff0219169083151502179055505b5050505050505050505050565b60016020528060005260406000206000915054906101000a900460ff1681565b62001adc62002ab7565b73ffffffffffffffffffffffffffffffffffffffff1662001afc620015ec565b73ffffffffffffffffffffffffffffffffffffffff161462001b55576040517f08c379a000000000000000000000000000000000000000000000000000000000815260040162001b4c9062003889565b60405180910390fd5b73__$36fdb4e0c2cb91f3ceca5ea81b025328f3$__63c406e268601083601360009054906101000a900473ffffffffffffffffffffffffffffffffffffffff16600b600a600d6040518763ffffffff1660e01b815260040162001bbe969594939291906200370a565b60006040518083038186803b15801562001bd757600080fd5b505af415801562001bec573d6000803e3d6000fd5b5050505050565b62001bfd62002ab7565b73ffffffffffffffffffffffffffffffffffffffff1662001c1d620015ec565b73ffffffffffffffffffffffffffffffffffffffff161462001c76576040517f08c379a000000000000000000000000000000000000000000000000000000000815260040162001c6d9062003889565b60405180910390fd5b6000600960156101000a81548160ff021916908315150217905550565b62001c9d62002ab7565b73ffffffffffffffffffffffffffffffffffffffff1662001cbd620015ec565b73ffffffffffffffffffffffffffffffffffffffff161462001d16576040517f08c379a000000000000000000000000000000000000000000000000000000000815260040162001d0d9062003889565b60405180910390fd5b6001600960156101000a81548160ff021916908315150217905550565b600160003373ffffffffffffffffffffffffffffffffffffffff1673ffffffffffffffffffffffffffffffffffffffff16815260200190815260200160002060009054906101000a900460ff168062001d985750600360009054906101000a900460ff165b62001dda576040517f08c379a000000000000000000000000000000000000000000000000000000000815260040162001dd19062003801565b60405180910390fd5b6002600454141562001e23576040517f08c379a000000000000000000000000000000000000000000000000000000000815260040162001e1a9062003911565b60405180910390fd5b6002600481905550600960149054906101000a900460ff161562001e7e576040517f08c379a000000000000000000000000000000000000000000000000000000000815260040162001e759062003933565b60405180910390fd5b600e60003373ffffffffffffffffffffffffffffffffffffffff1673ffffffffffffffffffffffffffffffffffffffff16815260200190815260200160002060009054906101000a900460ff161562001f0e576040517f08c379a000000000000000000000000000000000000000000000000000000000815260040162001f0590620037df565b60405180910390fd5b600754601660009054906101000a900473ffffffffffffffffffffffffffffffffffffffff1673ffffffffffffffffffffffffffffffffffffffff166370a08231336040518263ffffffff1660e01b815260040162001f6e9190620035d7565b60206040518083038186803b15801562001f8757600080fd5b505afa15801562001f9c573d6000803e3d6000fd5b505050506040513d601f19601f8201168201806040525081019062001fc29190620031c6565b1162002005576040517f08c379a000000000000000000000000000000000000000000000000000000000815260040162001ffc90620037bd565b60405180910390fd5b6001600e60003373ffffffffffffffffffffffffffffffffffffffff1673ffffffffffffffffffffffffffffffffffffffff16815260200190815260200160002060006101000a81548160ff021916908315150217905550600f339080600181540180825580915050600190039060005260206000200160009091909190916101000a81548173ffffffffffffffffffffffffffffffffffffffff021916908373ffffffffffffffffffffffffffffffffffffffff160217905550601660009054906101000a900473ffffffffffffffffffffffffffffffffffffffff1673ffffffffffffffffffffffffffffffffffffffff166323b872dd33306007546040518463ffffffff1660e01b81526004016200212393929190620035f4565b602060405180830381600087803b1580156200213e57600080fd5b505af115801562002153573d6000803e3d6000fd5b505050506040513d601f19601f820116820180604052508101906200217991906200305f565b507f9e71bc8eea02a63969f509818f2dafb9254532904319f9dbda79b67bd34a5f3d33600754604051620021af92919062003631565b60405180910390a16001600481905550565b600d6020528160005260406000208181548110620021de57600080fd5b90600052602060002001600091509150505481565b600360009054906101000a900460ff1681565b60006200221262002ab7565b73ffffffffffffffffffffffffffffffffffffffff1662002232620015ec565b73ffffffffffffffffffffffffffffffffffffffff16146200228b576040517f08c379a0000000000000000000000000000000000000000000000000000000008152600401620022829062003889565b60405180910390fd5b60005b8251811015620022fd57620022c0838281518110620022b257620022b162003d78565b5b602002602001015162001226565b15620022e757600160026000828254620022db919062003a68565b92505081905550600191505b8080620022f49062003ccc565b9150506200228e565b50919050565b6000600160008373ffffffffffffffffffffffffffffffffffffffff1673ffffffffffffffffffffffffffffffffffffffff16815260200190815260200160002060009054906101000a900460ff169050919050565b6200236362002ab7565b73ffffffffffffffffffffffffffffffffffffffff1662002383620015ec565b73ffffffffffffffffffffffffffffffffffffffff1614620023dc576040517f08c379a0000000000000000000000000000000000000000000000000000000008152600401620023d39062003889565b60405180910390fd5b6001600960146101000a81548160ff021916908315150217905550565b600a6020528060005260406000206000915090505481565b6200241b62002ab7565b73ffffffffffffffffffffffffffffffffffffffff166200243b620015ec565b73ffffffffffffffffffffffffffffffffffffffff161462002494576040517f08c379a00000000000000000000000000000000000000000000000000000000081526004016200248b9062003889565b60405180910390fd5b600073ffffffffffffffffffffffffffffffffffffffff168173ffffffffffffffffffffffffffffffffffffffff16141562002507576040517f08c379a0000000000000000000000000000000000000000000000000000000008152600401620024fe906200379b565b60405180910390fd5b620025128162002abf565b50565b600960159054906101000a900460ff161562002568576040517f08c379a00000000000000000000000000000000000000000000000000000000081526004016200255f9062003845565b60405180910390fd5b600e60003373ffffffffffffffffffffffffffffffffffffffff1673ffffffffffffffffffffffffffffffffffffffff16815260200190815260200160002060009054906101000a900460ff16620025f7576040517f08c379a0000000000000000000000000000000000000000000000000000000008152600401620025ee90620038ab565b60405180910390fd5b6000600d60003373ffffffffffffffffffffffffffffffffffffffff1673ffffffffffffffffffffffffffffffffffffffff1681526020019081526020016000208054806020026020016040519081016040528092919081815260200182805480156200268457602002820191906000526020600020905b8154815260200190600101908083116200266f575b5050505050905060005b81518110156200277d5760006001600a600184620026ad919062003a68565b620026b9919062003ac5565b620026c5919062003b26565b90506000600a83620026d8919062003ac5565b905080858481518110620026f157620026f062003d78565b5b60200260200101511180156200272357508185848151811062002719576200271862003d78565b5b6020026020010151105b62002765576040517f08c379a00000000000000000000000000000000000000000000000000000000081526004016200275c9062003823565b60405180910390fd5b50508080620027749062003ccc565b9150506200268e565b506000601560009054906101000a900473ffffffffffffffffffffffffffffffffffffffff1673ffffffffffffffffffffffffffffffffffffffff166306575c896040518163ffffffff1660e01b815260040160206040518083038186803b158015620027e957600080fd5b505afa158015620027fe573d6000803e3d6000fd5b505050506040513d601f19601f82011682018060405250810190620028249190620031c6565b905060005b8251811015620028a757600c60008483815181106200284d576200284c62003d78565b5b60200260200101518152602001908152602001600020826008811062002878576200287762003d78565b5b0160008154809291906200288c9062003c31565b919050555080806200289e9062003ccc565b91505062002829565b5060005b83518110156200290c57600c60008281526020019081526020016000208260088110620028dd57620028dc62003d78565b5b016000815480929190620028f19062003ccc565b91905055508080620029039062003ccc565b915050620028ab565b5082600d60003373ffffffffffffffffffffffffffffffffffffffff1673ffffffffffffffffffffffffffffffffffffffff16815260200190815260200160002090805190602001906200296292919062002c82565b50505050565b600860009054906101000a900473ffffffffffffffffffffffffffffffffffffffff1681565b6200299862002cd4565b600b60003373ffffffffffffffffffffffffffffffffffffffff1673ffffffffffffffffffffffffffffffffffffffff16815260200190815260200160002060088060200260405190810160405280929190826008801562002a10576020028201915b815481526020019060010190808311620029fb575b5050505050905090565b62002ab48160405160240162002a31919062003777565b6040516020818303038152906040527f41304fac000000000000000000000000000000000000000000000000000000007bffffffffffffffffffffffffffffffffffffffffffffffffffffffff19166020820180517bffffffffffffffffffffffffffffffffffffffffffffffffffffffff838183161783525050505062002b97565b50565b600033905090565b60008060029054906101000a900473ffffffffffffffffffffffffffffffffffffffff16905081600060026101000a81548173ffffffffffffffffffffffffffffffffffffffff021916908373ffffffffffffffffffffffffffffffffffffffff1602179055508173ffffffffffffffffffffffffffffffffffffffff168173ffffffffffffffffffffffffffffffffffffffff167f8be0079c531659141344cd1fd0a4f28419497f9722a3daafe3b4186f6b6457e060405160405180910390a35050565b600062002b913062002bc0565b15905090565b60008151905060006a636f6e736f6c652e6c6f679050602083016000808483855afa5050505050565b6000808273ffffffffffffffffffffffffffffffffffffffff163b119050919050565b82805462002bf19062003c60565b90600052602060002090601f01602090048101928262002c15576000855562002c61565b82601f1062002c3057803560ff191683800117855562002c61565b8280016001018555821562002c61579182015b8281111562002c6057823582559160200191906001019062002c43565b5b50905062002c70919062002cf7565b5090565b61108d806200414883390190565b82805482825590600052602060002090810192821562002cc1579160200282015b8281111562002cc057825182559160200191906001019062002ca3565b5b50905062002cd0919062002cf7565b5090565b604051806101000160405280600890602082028036833780820191505090505090565b5b8082111562002d1257600081600090555060010162002cf8565b5090565b600062002d2d62002d27846200399b565b62003972565b9050808382526020820190508285602086028201111562002d535762002d5262003de0565b5b60005b8581101562002d87578162002d6c888262002e0c565b84526020840193506020830192505060018101905062002d56565b5050509392505050565b600062002da862002da284620039ca565b62003972565b9050808382526020820190508285602086028201111562002dce5762002dcd62003de0565b5b60005b8581101562002e02578162002de7888262002f16565b84526020840193506020830192505060018101905062002dd1565b5050509392505050565b60008135905062002e1d81620040f9565b92915050565b600082601f83011262002e3b5762002e3a62003ddb565b5b813562002e4d84826020860162002d16565b91505092915050565b600082601f83011262002e6e5762002e6d62003ddb565b5b813562002e8084826020860162002d91565b91505092915050565b60008135905062002e9a8162004113565b92915050565b60008151905062002eb18162004113565b92915050565b60008083601f84011262002ed05762002ecf62003ddb565b5b8235905067ffffffffffffffff81111562002ef05762002eef62003dd6565b5b60208301915083600182028301111562002f0f5762002f0e62003de0565b5b9250929050565b60008135905062002f27816200412d565b92915050565b60008151905062002f3e816200412d565b92915050565b60006020828403121562002f5d5762002f5c62003dea565b5b600062002f6d8482850162002e0c565b91505092915050565b6000806040838503121562002f905762002f8f62003dea565b5b600062002fa08582860162002e0c565b925050602062002fb38582860162002f16565b9150509250929050565b60006020828403121562002fd65762002fd562003dea565b5b600082013567ffffffffffffffff81111562002ff75762002ff662003de5565b5b620030058482850162002e23565b91505092915050565b60006020828403121562003027576200302662003dea565b5b600082013567ffffffffffffffff81111562003048576200304762003de5565b5b620030568482850162002e56565b91505092915050565b60006020828403121562003078576200307762003dea565b5b6000620030888482850162002ea0565b91505092915050565b6000806000806000806000806000806101208b8d031215620030b857620030b762003dea565b5b60008b013567ffffffffffffffff811115620030d957620030d862003de5565b5b620030e78d828e0162002eb7565b9a509a50506020620030fc8d828e0162002f16565b98505060406200310f8d828e0162002e89565b9750506060620031228d828e0162002e0c565b9650506080620031358d828e0162002e0c565b95505060a0620031488d828e0162002e0c565b94505060c06200315b8d828e0162002e0c565b93505060e06200316e8d828e0162002e0c565b925050610100620031828d828e0162002e0c565b9150509295989b9194979a5092959850565b600060208284031215620031ad57620031ac62003dea565b5b6000620031bd8482850162002f16565b91505092915050565b600060208284031215620031df57620031de62003dea565b5b6000620031ef8482850162002f2d565b91505092915050565b6000620032068383620035a4565b60208301905092915050565b6200321d8162003b61565b82525050565b8082525050565b620032358162003a18565b62003241818462003a3b565b92506200324e82620039f9565b8060005b8381101562003285578151620032698782620031f8565b9650620032768362003a2e565b92505060018101905062003252565b505050505050565b620032988162003b75565b82525050565b620032a98162003bab565b82525050565b620032ba8162003bbf565b82525050565b8082525050565b8082525050565b8082525050565b8082525050565b6000620032e98262003a23565b620032f5818562003a46565b93506200330781856020860162003bfb565b620033128162003def565b840191505092915050565b600081546200332c8162003c60565b62003338818662003a57565b945060018216600081146200335657600181146200336957620033a0565b60ff1983168652602086019350620033a0565b620033748562003a03565b60005b83811015620033985781548189015260018201915060208101905062003377565b808801955050505b50505092915050565b6000620033b860268362003a46565b9150620033c58262003e00565b604082019050919050565b6000620033df601d8362003a46565b9150620033ec8262003e4f565b602082019050919050565b60006200340660238362003a46565b9150620034138262003e78565b604082019050919050565b60006200342d601a8362003a46565b91506200343a8262003ec7565b602082019050919050565b60006200345460318362003a46565b9150620034618262003ef0565b604082019050919050565b60006200347b601e8362003a46565b9150620034888262003f3f565b602082019050919050565b6000620034a2602e8362003a46565b9150620034af8262003f68565b604082019050919050565b6000620034c960208362003a46565b9150620034d68262003fb7565b602082019050919050565b6000620034f060158362003a46565b9150620034fd8262003fe0565b602082019050919050565b60006200351760178362003a46565b9150620035248262004009565b602082019050919050565b60006200353e60418362003a46565b91506200354b8262004032565b606082019050919050565b600062003565601f8362003a46565b91506200357282620040a7565b602082019050919050565b60006200358c60178362003a46565b91506200359982620040d0565b602082019050919050565b620035af8162003ba1565b82525050565b620035c08162003ba1565b82525050565b620035d18162003ba1565b82525050565b6000602082019050620035ee600083018462003212565b92915050565b60006060820190506200360b600083018662003212565b6200361a602083018562003212565b620036296040830184620035b5565b949350505050565b600060408201905062003648600083018562003212565b620036576020830184620035b5565b9392505050565b6000610100820190506200367660008301846200322a565b92915050565b60006020820190506200369360008301846200328d565b92915050565b6000602082019050620036b06000830184620032af565b92915050565b6000608082019050620036cd6000830187620032d5565b620036dc602083018662003223565b620036eb6040830185620035c6565b8181036060830152620036ff81846200331d565b905095945050505050565b600060c082019050620037216000830189620032d5565b620037306020830188620035c6565b6200373f60408301876200329e565b6200374e6060830186620032c0565b6200375d6080830185620032ce565b6200376c60a0830184620032c7565b979650505050505050565b60006020820190508181036000830152620037938184620032dc565b905092915050565b60006020820190508181036000830152620037b681620033a9565b9050919050565b60006020820190508181036000830152620037d881620033d0565b9050919050565b60006020820190508181036000830152620037fa81620033f7565b9050919050565b600060208201905081810360008301526200381c816200341e565b9050919050565b600060208201905081810360008301526200383e8162003445565b9050919050565b6000602082019050818103600083015262003860816200346c565b9050919050565b60006020820190508181036000830152620038828162003493565b9050919050565b60006020820190508181036000830152620038a481620034ba565b9050919050565b60006020820190508181036000830152620038c681620034e1565b9050919050565b60006020820190508181036000830152620038e88162003508565b9050919050565b600060208201905081810360008301526200390a816200352f565b9050919050565b600060208201905081810360008301526200392c8162003556565b9050919050565b600060208201905081810360008301526200394e816200357d565b9050919050565b60006020820190506200396c6000830184620035b5565b92915050565b60006200397e62003991565b90506200398c828262003c96565b919050565b6000604051905090565b600067ffffffffffffffff821115620039b957620039b862003da7565b5b602082029050602081019050919050565b600067ffffffffffffffff821115620039e857620039e762003da7565b5b602082029050602081019050919050565b6000819050919050565b60008190508160005260206000209050919050565b600060089050919050565b600081519050919050565b6000602082019050919050565b600081905092915050565b600082825260208201905092915050565b600082825260208201905092915050565b600062003a758262003ba1565b915062003a828362003ba1565b9250827fffffffffffffffffffffffffffffffffffffffffffffffffffffffffffffffff0382111562003aba5762003ab962003d1a565b5b828201905092915050565b600062003ad28262003ba1565b915062003adf8362003ba1565b9250817fffffffffffffffffffffffffffffffffffffffffffffffffffffffffffffffff048311821515161562003b1b5762003b1a62003d1a565b5b828202905092915050565b600062003b338262003ba1565b915062003b408362003ba1565b92508282101562003b565762003b5562003d1a565b5b828203905092915050565b600062003b6e8262003b81565b9050919050565b60008115159050919050565b600073ffffffffffffffffffffffffffffffffffffffff82169050919050565b6000819050919050565b600062003bb88262003bd3565b9050919050565b600062003bcc8262003bd3565b9050919050565b600062003be08262003be7565b9050919050565b600062003bf48262003b81565b9050919050565b60005b8381101562003c1b57808201518184015260208101905062003bfe565b8381111562003c2b576000848401525b50505050565b600062003c3e8262003ba1565b9150600082141562003c555762003c5462003d1a565b5b600182039050919050565b6000600282049050600182168062003c7957607f821691505b6020821081141562003c905762003c8f62003d49565b5b50919050565b62003ca18262003def565b810181811067ffffffffffffffff8211171562003cc35762003cc262003da7565b5b80604052505050565b600062003cd98262003ba1565b91507fffffffffffffffffffffffffffffffffffffffffffffffffffffffffffffffff82141562003d0f5762003d0e62003d1a565b5b600182019050919050565b7f4e487b7100000000000000000000000000000000000000000000000000000000600052601160045260246000fd5b7f4e487b7100000000000000000000000000000000000000000000000000000000600052602260045260246000fd5b7f4e487b7100000000000000000000000000000000000000000000000000000000600052603260045260246000fd5b7f4e487b7100000000000000000000000000000000000000000000000000000000600052604160045260246000fd5b600080fd5b600080fd5b600080fd5b600080fd5b600080fd5b6000601f19601f8301169050919050565b7f4f776e61626c653a206e6577206f776e657220697320746865207a65726f206160008201527f6464726573730000000000000000000000000000000000000000000000000000602082015250565b7f496e737566666963656e742066756e647320666f72207374616b696e67000000600082015250565b7f596f75206861766520616c7265616479206a6f696e65642074686973206c656160008201527f6775650000000000000000000000000000000000000000000000000000000000602082015250565b7f55736572206973206e6f742077686974656c6973746564203a28000000000000600082015250565b7f596f75206172652073657474696e6720616e206174686c65746520696e20746860008201527f652077726f6e6720706f736974696f6e21000000000000000000000000000000602082015250565b7f6c696e657570206973206c6f636b656420666f7220746865207765656b210000600082015250565b7f496e697469616c697a61626c653a20636f6e747261637420697320616c72656160008201527f647920696e697469616c697a6564000000000000000000000000000000000000602082015250565b7f4f776e61626c653a2063616c6c6572206973206e6f7420746865206f776e6572600082015250565b7f75736572206973206e6f7420696e204c65616775650000000000000000000000600082015250565b7f43616c6c6572206973206e6f74207468652061646d696e000000000000000000600082015250565b7f4e6f626f64792063616e20656e7465722f6578697420746865206c656167756560008201527f20616e796d6f72652e2054686520736561736f6e20686173207374617274656460208201527f2100000000000000000000000000000000000000000000000000000000000000604082015250565b7f5265656e7472616e637947756172643a207265656e7472616e742063616c6c00600082015250565b7f4c656167756520456e74727920697320436c6f73656421000000000000000000600082015250565b620041048162003b61565b81146200411057600080fd5b50565b6200411e8162003b75565b81146200412a57600080fd5b50565b620041388162003ba1565b81146200414457600080fd5b5056fe608060405234801561001057600080fd5b5061002d61002261003260201b60201c565b61003a60201b60201c565b6100fe565b600033905090565b60008060009054906101000a900473ffffffffffffffffffffffffffffffffffffffff169050816000806101000a81548173ffffffffffffffffffffffffffffffffffffffff021916908373ffffffffffffffffffffffffffffffffffffffff1602179055508173ffffffffffffffffffffffffffffffffffffffff168173ffffffffffffffffffffffffffffffffffffffff167f8be0079c531659141344cd1fd0a4f28419497f9722a3daafe3b4186f6b6457e060405160405180910390a35050565b610f808061010d6000396000f3fe608060405234801561001057600080fd5b50600436106100a95760003560e01c80638da5cb5b116100715780638da5cb5b146101665780639b19251a14610184578063dc9a1535146101b4578063e2ec6ec3146101d2578063e35a899914610202578063f2fde38b14610232576100a9565b806324953eaa146100ae578063286dd3f5146100de57806344eaa84e1461010e578063715018a61461012c5780637b9417c814610136575b600080fd5b6100c860048036038101906100c39190610b0e565b61024e565b6040516100d59190610be5565b60405180910390f35b6100f860048036038101906100f39190610ae1565b610338565b6040516101059190610be5565b60405180910390f35b6101166104bb565b6040516101239190610c40565b60405180910390f35b6101346104c5565b005b610150600480360381019061014b9190610ae1565b61054d565b60405161015d9190610be5565b60405180910390f35b61016e6106ce565b60405161017b9190610bca565b60405180910390f35b61019e60048036038101906101999190610ae1565b6106f7565b6040516101ab9190610be5565b60405180910390f35b6101bc610717565b6040516101c99190610be5565b60405180910390f35b6101ec60048036038101906101e79190610b0e565b61072a565b6040516101f99190610be5565b60405180910390f35b61021c60048036038101906102179190610ae1565b610814565b6040516102299190610be5565b60405180910390f35b61024c60048036038101906102479190610ae1565b61086a565b005b6000610258610962565b73ffffffffffffffffffffffffffffffffffffffff166102766106ce565b73ffffffffffffffffffffffffffffffffffffffff16146102cc576040517f08c379a00000000000000000000000000000000000000000000000000000000081526004016102c390610c20565b60405180910390fd5b60005b8251811015610332576102fb8382815181106102ee576102ed610e38565b5b6020026020010151610338565b1561031f576001600260008282546103139190610d13565b92505081905550600191505b808061032a90610dc0565b9150506102cf565b50919050565b6000610342610962565b73ffffffffffffffffffffffffffffffffffffffff166103606106ce565b73ffffffffffffffffffffffffffffffffffffffff16146103b6576040517f08c379a00000000000000000000000000000000000000000000000000000000081526004016103ad90610c20565b60405180910390fd5b600160008373ffffffffffffffffffffffffffffffffffffffff1673ffffffffffffffffffffffffffffffffffffffff16815260200190815260200160002060009054906101000a900460ff16156104b6576000600160008473ffffffffffffffffffffffffffffffffffffffff1673ffffffffffffffffffffffffffffffffffffffff16815260200190815260200160002060006101000a81548160ff0219169083151502179055507ff1abf01a1043b7c244d128e8595cf0c1d10743b022b03a02dffd8ca3bf729f5a8260405161048f9190610bca565b60405180910390a16001600260008282546104aa9190610d13565b92505081905550600190505b919050565b6000600254905090565b6104cd610962565b73ffffffffffffffffffffffffffffffffffffffff166104eb6106ce565b73ffffffffffffffffffffffffffffffffffffffff1614610541576040517f08c379a000000000000000000000000000000000000000000000000000000000815260040161053890610c20565b60405180910390fd5b61054b600061096a565b565b6000610557610962565b73ffffffffffffffffffffffffffffffffffffffff166105756106ce565b73ffffffffffffffffffffffffffffffffffffffff16146105cb576040517f08c379a00000000000000000000000000000000000000000000000000000000081526004016105c290610c20565b60405180910390fd5b600160008373ffffffffffffffffffffffffffffffffffffffff1673ffffffffffffffffffffffffffffffffffffffff16815260200190815260200160002060009054906101000a900460ff166106c95760018060008473ffffffffffffffffffffffffffffffffffffffff1673ffffffffffffffffffffffffffffffffffffffff16815260200190815260200160002060006101000a81548160ff0219169083151502179055507fd1bba68c128cc3f427e5831b3c6f99f480b6efa6b9e80c757768f6124158cc3f826040516106a29190610bca565b60405180910390a16001600260008282546106bd9190610cbd565b92505081905550600190505b919050565b60008060009054906101000a900473ffffffffffffffffffffffffffffffffffffffff16905090565b60016020528060005260406000206000915054906101000a900460ff1681565b600360009054906101000a900460ff1681565b6000610734610962565b73ffffffffffffffffffffffffffffffffffffffff166107526106ce565b73ffffffffffffffffffffffffffffffffffffffff16146107a8576040517f08c379a000000000000000000000000000000000000000000000000000000000815260040161079f90610c20565b60405180910390fd5b60005b825181101561080e576107d78382815181106107ca576107c9610e38565b5b602002602001015161054d565b156107fb576001600260008282546107ef9190610cbd565b92505081905550600191505b808061080690610dc0565b9150506107ab565b50919050565b6000600160008373ffffffffffffffffffffffffffffffffffffffff1673ffffffffffffffffffffffffffffffffffffffff16815260200190815260200160002060009054906101000a900460ff169050919050565b610872610962565b73ffffffffffffffffffffffffffffffffffffffff166108906106ce565b73ffffffffffffffffffffffffffffffffffffffff16146108e6576040517f08c379a00000000000000000000000000000000000000000000000000000000081526004016108dd90610c20565b60405180910390fd5b600073ffffffffffffffffffffffffffffffffffffffff168173ffffffffffffffffffffffffffffffffffffffff161415610956576040517f08c379a000000000000000000000000000000000000000000000000000000000815260040161094d90610c00565b60405180910390fd5b61095f8161096a565b50565b600033905090565b60008060009054906101000a900473ffffffffffffffffffffffffffffffffffffffff169050816000806101000a81548173ffffffffffffffffffffffffffffffffffffffff021916908373ffffffffffffffffffffffffffffffffffffffff1602179055508173ffffffffffffffffffffffffffffffffffffffff168173ffffffffffffffffffffffffffffffffffffffff167f8be0079c531659141344cd1fd0a4f28419497f9722a3daafe3b4186f6b6457e060405160405180910390a35050565b6000610a41610a3c84610c80565b610c5b565b90508083825260208201905082856020860282011115610a6457610a63610e9b565b5b60005b85811015610a945781610a7a8882610a9e565b845260208401935060208301925050600181019050610a67565b5050509392505050565b600081359050610aad81610f33565b92915050565b600082601f830112610ac857610ac7610e96565b5b8135610ad8848260208601610a2e565b91505092915050565b600060208284031215610af757610af6610ea5565b5b6000610b0584828501610a9e565b91505092915050565b600060208284031215610b2457610b23610ea5565b5b600082013567ffffffffffffffff811115610b4257610b41610ea0565b5b610b4e84828501610ab3565b91505092915050565b610b6081610d47565b82525050565b610b6f81610d59565b82525050565b6000610b82602683610cac565b9150610b8d82610ebb565b604082019050919050565b6000610ba5602083610cac565b9150610bb082610f0a565b602082019050919050565b610bc481610d85565b82525050565b6000602082019050610bdf6000830184610b57565b92915050565b6000602082019050610bfa6000830184610b66565b92915050565b60006020820190508181036000830152610c1981610b75565b9050919050565b60006020820190508181036000830152610c3981610b98565b9050919050565b6000602082019050610c556000830184610bbb565b92915050565b6000610c65610c76565b9050610c718282610d8f565b919050565b6000604051905090565b600067ffffffffffffffff821115610c9b57610c9a610e67565b5b602082029050602081019050919050565b600082825260208201905092915050565b6000610cc882610d85565b9150610cd383610d85565b9250827fffffffffffffffffffffffffffffffffffffffffffffffffffffffffffffffff03821115610d0857610d07610e09565b5b828201905092915050565b6000610d1e82610d85565b9150610d2983610d85565b925082821015610d3c57610d3b610e09565b5b828203905092915050565b6000610d5282610d65565b9050919050565b60008115159050919050565b600073ffffffffffffffffffffffffffffffffffffffff82169050919050565b6000819050919050565b610d9882610eaa565b810181811067ffffffffffffffff82111715610db757610db6610e67565b5b80604052505050565b6000610dcb82610d85565b91507fffffffffffffffffffffffffffffffffffffffffffffffffffffffffffffffff821415610dfe57610dfd610e09565b5b600182019050919050565b7f4e487b7100000000000000000000000000000000000000000000000000000000600052601160045260246000fd5b7f4e487b7100000000000000000000000000000000000000000000000000000000600052603260045260246000fd5b7f4e487b7100000000000000000000000000000000000000000000000000000000600052604160045260246000fd5b600080fd5b600080fd5b600080fd5b600080fd5b6000601f19601f8301169050919050565b7f4f776e61626c653a206e6577206f776e657220697320746865207a65726f206160008201527f6464726573730000000000000000000000000000000000000000000000000000602082015250565b7f4f776e61626c653a2063616c6c6572206973206e6f7420746865206f776e6572600082015250565b610f3c81610d47565b8114610f4757600080fd5b5056fea2646970667358221220bed30b98fd52fd06427fedf4fcef33f2521d9e36ee375e945eb6c8c8ba1d457d64736f6c63430008070033a2646970667358221220159f6319808db742c7a64786793bb214fb36347b3aba5a42f64e2ce4ecae5ecf64736f6c63430008070033",
  "linkReferences": {
    "contracts/MOBALogicLibrary.sol": {
      "MOBALogicLibrary": [
        {
          "length": 20,
          "start": 2393
        },
        {
          "length": 20,
          "start": 7284
        }
      ]
    }
  },
  "deployedLinkReferences": {
    "contracts/MOBALogicLibrary.sol": {
      "MOBALogicLibrary": [
        {
          "length": 20,
          "start": 2108
        },
        {
          "length": 20,
          "start": 6999
        }
      ]
    }
  }
}