{
  "_format": "hh-sol-artifact-1",
  "contractName": "LeagueOfLegendsLogic",
  "sourceName": "contracts/LeagueOfLegendsLogic.sol",
  "abi": [
    {
      "anonymous": false,
      "inputs": [
        {
          "indexed": true,
          "internalType": "address",
          "name": "previousOwner",
          "type": "address"
        },
        {
          "indexed": true,
          "internalType": "address",
          "name": "newOwner",
          "type": "address"
        }
      ],
      "name": "OwnershipTransferred",
      "type": "event"
    },
    {
      "anonymous": false,
      "inputs": [
        {
          "indexed": false,
          "internalType": "address",
          "name": "sender",
          "type": "address"
        },
        {
          "indexed": false,
          "internalType": "uint256",
          "name": "amount",
          "type": "uint256"
        }
      ],
      "name": "Staked",
      "type": "event"
    },
    {
      "anonymous": false,
      "inputs": [
        {
          "indexed": false,
          "internalType": "address",
          "name": "addr",
          "type": "address"
        }
      ],
      "name": "WhitelistedAddressAdded",
      "type": "event"
    },
    {
      "anonymous": false,
      "inputs": [
        {
          "indexed": false,
          "internalType": "address",
          "name": "addr",
          "type": "address"
        }
      ],
      "name": "WhitelistedAddressRemoved",
      "type": "event"
    },
    {
      "anonymous": false,
      "inputs": [
        {
          "indexed": false,
          "internalType": "address",
          "name": "sender",
          "type": "address"
        },
        {
          "indexed": false,
          "internalType": "address",
          "name": "contractAddress",
          "type": "address"
        }
      ],
      "name": "testUSDCDeployed",
      "type": "event"
    },
    {
      "inputs": [
        {
          "internalType": "address",
          "name": "addr",
          "type": "address"
        }
      ],
      "name": "addAddressToWhitelist",
      "outputs": [
        {
          "internalType": "bool",
          "name": "success",
          "type": "bool"
        }
      ],
      "stateMutability": "nonpayable",
      "type": "function"
    },
    {
      "inputs": [
        {
          "internalType": "address[]",
          "name": "addrs",
          "type": "address[]"
        }
      ],
      "name": "addAddressesToWhitelist",
      "outputs": [
        {
          "internalType": "bool",
          "name": "success",
          "type": "bool"
        }
      ],
      "stateMutability": "nonpayable",
      "type": "function"
    },
    {
      "inputs": [
        {
          "internalType": "address",
          "name": "_userToAdd",
          "type": "address"
        }
      ],
      "name": "addUserToWhitelist",
      "outputs": [],
      "stateMutability": "nonpayable",
      "type": "function"
    },
    {
      "inputs": [],
      "name": "admin",
      "outputs": [
        {
          "internalType": "address",
          "name": "",
          "type": "address"
        }
      ],
      "stateMutability": "view",
      "type": "function"
    },
    {
      "inputs": [
        {
          "internalType": "uint256",
          "name": "currentWeekNum",
          "type": "uint256"
        }
      ],
      "name": "evaluateWeek",
      "outputs": [],
      "stateMutability": "nonpayable",
      "type": "function"
    },
    {
      "inputs": [],
      "name": "getNumWhitelisted",
      "outputs": [
        {
          "internalType": "uint256",
          "name": "",
          "type": "uint256"
        }
      ],
      "stateMutability": "view",
      "type": "function"
    },
    {
      "inputs": [
        {
          "internalType": "address",
          "name": "_user",
          "type": "address"
        }
      ],
      "name": "getUserIsWhitelisted",
      "outputs": [
        {
          "internalType": "bool",
          "name": "",
          "type": "bool"
        }
      ],
      "stateMutability": "view",
      "type": "function"
    },
    {
      "inputs": [],
      "name": "getUserRecord",
      "outputs": [
        {
          "internalType": "uint256[8]",
          "name": "",
          "type": "uint256[8]"
        }
      ],
      "stateMutability": "view",
      "type": "function"
    },
    {
      "inputs": [],
      "name": "getUserTotalPts",
      "outputs": [
        {
          "internalType": "uint256",
          "name": "",
          "type": "uint256"
        }
      ],
      "stateMutability": "view",
      "type": "function"
    },
    {
      "inputs": [],
      "name": "getUserUSDCBalance",
      "outputs": [
        {
          "internalType": "uint256",
          "name": "",
          "type": "uint256"
        }
      ],
      "stateMutability": "view",
      "type": "function"
    },
    {
      "inputs": [],
      "name": "getUsersLength",
      "outputs": [
        {
          "internalType": "uint256",
          "name": "",
          "type": "uint256"
        }
      ],
      "stateMutability": "view",
      "type": "function"
    },
    {
      "inputs": [
        {
          "internalType": "address",
          "name": "",
          "type": "address"
        }
      ],
      "name": "inLeague",
      "outputs": [
        {
          "internalType": "bool",
          "name": "",
          "type": "bool"
        }
      ],
      "stateMutability": "view",
      "type": "function"
    },
    {
      "inputs": [
        {
          "internalType": "string",
          "name": "_name",
          "type": "string"
        },
        {
          "internalType": "uint256",
          "name": "_stakeAmount",
          "type": "uint256"
        },
        {
          "internalType": "bool",
          "name": "_isPublic",
          "type": "bool"
        },
        {
          "internalType": "address",
          "name": "athletesDataStorageAddress",
          "type": "address"
        },
        {
          "internalType": "address",
          "name": "_admin",
          "type": "address"
        },
        {
          "internalType": "address",
          "name": "_polygonUSDCAddress",
          "type": "address"
        },
        {
          "internalType": "address",
          "name": "_rinkebyUSDCAddress",
          "type": "address"
        },
        {
          "internalType": "address",
          "name": "_testUSDCAddress",
          "type": "address"
        },
        {
          "internalType": "address",
          "name": "leagueMakerContractAddress",
          "type": "address"
        }
      ],
      "name": "initialize",
      "outputs": [],
      "stateMutability": "nonpayable",
      "type": "function"
    },
    {
      "inputs": [],
      "name": "isPublic",
      "outputs": [
        {
          "internalType": "bool",
          "name": "",
          "type": "bool"
        }
      ],
      "stateMutability": "view",
      "type": "function"
    },
    {
      "inputs": [],
      "name": "joinLeague",
      "outputs": [],
      "stateMutability": "nonpayable",
      "type": "function"
    },
    {
      "inputs": [
        {
          "internalType": "uint256",
          "name": "",
          "type": "uint256"
        }
      ],
      "name": "leagueMembers",
      "outputs": [
        {
          "internalType": "address",
          "name": "",
          "type": "address"
        }
      ],
      "stateMutability": "view",
      "type": "function"
    },
    {
      "inputs": [],
      "name": "leagueName",
      "outputs": [
        {
          "internalType": "string",
          "name": "",
          "type": "string"
        }
      ],
      "stateMutability": "view",
      "type": "function"
    },
    {
      "inputs": [],
      "name": "lockLineup",
      "outputs": [],
      "stateMutability": "nonpayable",
      "type": "function"
    },
    {
      "inputs": [],
      "name": "numWeeks",
      "outputs": [
        {
          "internalType": "uint256",
          "name": "",
          "type": "uint256"
        }
      ],
      "stateMutability": "view",
      "type": "function"
    },
    {
      "inputs": [],
      "name": "onLeagueEnd",
      "outputs": [],
      "stateMutability": "nonpayable",
      "type": "function"
    },
    {
      "inputs": [],
      "name": "owner",
      "outputs": [
        {
          "internalType": "address",
          "name": "",
          "type": "address"
        }
      ],
      "stateMutability": "view",
      "type": "function"
    },
    {
      "inputs": [],
      "name": "polygonUSDCAddress",
      "outputs": [
        {
          "internalType": "address",
          "name": "",
          "type": "address"
        }
      ],
      "stateMutability": "view",
      "type": "function"
    },
    {
      "inputs": [
        {
          "internalType": "address",
          "name": "addr",
          "type": "address"
        }
      ],
      "name": "removeAddressFromWhitelist",
      "outputs": [
        {
          "internalType": "bool",
          "name": "success",
          "type": "bool"
        }
      ],
      "stateMutability": "nonpayable",
      "type": "function"
    },
    {
      "inputs": [
        {
          "internalType": "address[]",
          "name": "addrs",
          "type": "address[]"
        }
      ],
      "name": "removeAddressesFromWhitelist",
      "outputs": [
        {
          "internalType": "bool",
          "name": "success",
          "type": "bool"
        }
      ],
      "stateMutability": "nonpayable",
      "type": "function"
    },
    {
      "inputs": [
        {
          "internalType": "address",
          "name": "_userToRemove",
          "type": "address"
        }
      ],
      "name": "removeFromWhitelist",
      "outputs": [],
      "stateMutability": "nonpayable",
      "type": "function"
    },
    {
      "inputs": [],
      "name": "renounceOwnership",
      "outputs": [],
      "stateMutability": "nonpayable",
      "type": "function"
    },
    {
      "inputs": [],
      "name": "rinkebyUSDCAddress",
      "outputs": [
        {
          "internalType": "address",
          "name": "",
          "type": "address"
        }
      ],
      "stateMutability": "view",
      "type": "function"
    },
    {
      "inputs": [],
      "name": "setLeagueEntryIsClosed",
      "outputs": [],
      "stateMutability": "nonpayable",
      "type": "function"
    },
    {
      "inputs": [],
      "name": "setLeagueSchedule",
      "outputs": [],
      "stateMutability": "nonpayable",
      "type": "function"
    },
    {
      "inputs": [
        {
          "internalType": "uint256[]",
          "name": "athleteIds",
          "type": "uint256[]"
        }
      ],
      "name": "setLineup",
      "outputs": [],
      "stateMutability": "nonpayable",
      "type": "function"
    },
    {
      "inputs": [],
      "name": "stakeAmount",
      "outputs": [
        {
          "internalType": "uint256",
          "name": "",
          "type": "uint256"
        }
      ],
      "stateMutability": "view",
      "type": "function"
    },
    {
      "inputs": [
        {
          "internalType": "address",
          "name": "newOwner",
          "type": "address"
        }
      ],
      "name": "transferOwnership",
      "outputs": [],
      "stateMutability": "nonpayable",
      "type": "function"
    },
    {
      "inputs": [],
      "name": "unlockLineup",
      "outputs": [],
      "stateMutability": "nonpayable",
      "type": "function"
    },
    {
      "inputs": [
        {
          "internalType": "address",
          "name": "",
          "type": "address"
        },
        {
          "internalType": "uint256",
          "name": "",
          "type": "uint256"
        }
      ],
      "name": "userToLineup",
      "outputs": [
        {
          "internalType": "uint256",
          "name": "",
          "type": "uint256"
        }
      ],
      "stateMutability": "view",
      "type": "function"
    },
    {
      "inputs": [
        {
          "internalType": "address",
          "name": "",
          "type": "address"
        },
        {
          "internalType": "uint256",
          "name": "",
          "type": "uint256"
        }
      ],
      "name": "userToRecord",
      "outputs": [
        {
          "internalType": "uint256",
          "name": "",
          "type": "uint256"
        }
      ],
      "stateMutability": "view",
      "type": "function"
    },
    {
      "inputs": [
        {
          "internalType": "address",
          "name": "",
          "type": "address"
        }
      ],
      "name": "userToTotalWins",
      "outputs": [
        {
          "internalType": "uint256",
          "name": "",
          "type": "uint256"
        }
      ],
      "stateMutability": "view",
      "type": "function"
    },
    {
      "inputs": [
        {
          "internalType": "address",
          "name": "",
          "type": "address"
        }
      ],
      "name": "whitelist",
      "outputs": [
        {
          "internalType": "bool",
          "name": "",
          "type": "bool"
        }
      ],
      "stateMutability": "view",
      "type": "function"
    },
    {
      "inputs": [],
      "name": "whitelistContract",
      "outputs": [
        {
          "internalType": "contract Whitelist",
          "name": "",
          "type": "address"
        }
      ],
      "stateMutability": "view",
      "type": "function"
    }
  ],
  "bytecode": "0x60806040523480156200001157600080fd5b5062000032620000266200004060201b60201c565b6200004860201b60201c565b60016004819055506200010d565b600033905090565b60008060029054906101000a900473ffffffffffffffffffffffffffffffffffffffff16905081600060026101000a81548173ffffffffffffffffffffffffffffffffffffffff021916908373ffffffffffffffffffffffffffffffffffffffff1602179055508173ffffffffffffffffffffffffffffffffffffffff168173ffffffffffffffffffffffffffffffffffffffff167f8be0079c531659141344cd1fd0a4f28419497f9722a3daafe3b4186f6b6457e060405160405180910390a35050565b615420806200011d6000396000f3fe60806040523480156200001157600080fd5b5060043610620002675760003560e01c80638da5cb5b116200014d578063cff5600311620000c9578063edcbe96c1162000087578063edcbe96c14620006f4578063f2fde38b146200072a578063f612121a146200074a578063f851a440146200076a578063f8816045146200078c5762000267565b8063cff560031462000624578063dc9a1535146200065a578063e2ec6ec3146200067c578063e35a899914620006b2578063e4c9066b14620006e85762000267565b80639b19251a11620001175780639b19251a14620005aa5780639f2d548114620005e0578063a2bc091a1462000600578063c8be3b5b146200060c578063c99fea9414620006185762000267565b80638da5cb5b14620005105780639122ce6d146200053257806393f3706c1462000568578063989db659146200058a5762000267565b80635fcc698711620001e95780637b9417c811620001a75780637b9417c814620004545780637eed33f1146200048a578063841abf6e14620004ac57806384900b0414620004ce5780638ab1d68114620004f05762000267565b80635fcc698714620003c257806360c7dc4714620003e45780636bdc44df1462000406578063715018a61462000428578063747b805014620004345762000267565b806324953eaa116200023757806324953eaa14620002dc578063267175db1462000312578063286dd3f5146200034857806344eaa84e146200037e578063595b1a3e14620003a05762000267565b8062b2476f146200026c5780630655465a146200028e5780630c6f7959146200029a5780631d803e0014620002d0575b600080fd5b62000276620007ae565b6040516200028591906200377c565b60405180910390f35b62000298620007d4565b005b620002b86004803603810190620002b29190620030f4565b6200088c565b604051620002c7919062003b1c565b60405180910390f35b620002da620008b5565b005b620002fa6004803603810190620002f491906200313b565b62000be6565b60405162000309919062003821565b60405180910390f35b6200033060048036038101906200032a919062003312565b62000ce3565b6040516200033f91906200377c565b60405180910390f35b620003666004803603810190620003609190620030c2565b62000d23565b60405162000375919062003821565b60405180910390f35b6200038862000eb2565b60405162000397919062003b1c565b60405180910390f35b620003aa62000ebc565b604051620003b9919062003b1c565b60405180910390f35b620003cc62000ec9565b604051620003db919062003b1c565b60405180910390f35b620003ee62000fd8565b604051620003fd919062003b1c565b60405180910390f35b6200041062000fde565b6040516200041f919062003b1c565b60405180910390f35b6200043262001025565b005b6200045260048036038101906200044c9190620030c2565b620010b6565b005b6200047260048036038101906200046c9190620030c2565b62001291565b60405162000481919062003821565b60405180910390f35b620004946200141e565b604051620004a3919062003b1c565b60405180910390f35b620004b662001424565b604051620004c591906200391c565b60405180910390f35b620004d8620014ba565b604051620004e791906200383e565b60405180910390f35b6200050e6004803603810190620005089190620030c2565b620014e0565b005b6200051a6200167d565b6040516200052991906200377c565b60405180910390f35b6200055060048036038101906200054a9190620030c2565b620016a6565b6040516200055f919062003821565b60405180910390f35b62000572620016c6565b6040516200058191906200377c565b60405180910390f35b620005a86004803603810190620005a291906200320f565b620016ec565b005b620005c86004803603810190620005c29190620030c2565b62001b43565b604051620005d7919062003821565b60405180910390f35b620005fe6004803603810190620005f8919062003312565b62001b63565b005b6200060a62001c84565b005b6200061662001d24565b005b6200062262001dc4565b005b6200064260048036038101906200063c9190620030f4565b6200229e565b60405162000651919062003b1c565b60405180910390f35b62000664620022d0565b60405162000673919062003821565b60405180910390f35b6200069a60048036038101906200069491906200313b565b620022e3565b604051620006a9919062003821565b60405180910390f35b620006d06004803603810190620006ca9190620030c2565b620023e0565b604051620006df919062003821565b60405180910390f35b620006f262002436565b005b6200071260048036038101906200070c9190620030c2565b620024d6565b60405162000721919062003b1c565b60405180910390f35b620007486004803603810190620007429190620030c2565b620024ee565b005b6200076860048036038101906200076291906200318c565b620025f2565b005b6200077462002ae6565b6040516200078391906200377c565b60405180910390f35b6200079662002b0c565b604051620007a5919062003803565b60405180910390f35b601260009054906101000a900473ffffffffffffffffffffffffffffffffffffffff1681565b620008146040518060400160405280601081526020017f73657474696e67207363686564756c650000000000000000000000000000000081525062002b98565b73__$36fdb4e0c2cb91f3ceca5ea81b025328f3$__63d2c232b56010600f60065460056040518563ffffffff1660e01b81526004016200085894939291906200385b565b60006040518083038186803b1580156200087157600080fd5b505af415801562000886573d6000803e3d6000fd5b50505050565b600b6020528160005260406000208160088110620008a957600080fd5b01600091509150505481565b620008bf62002c35565b73ffffffffffffffffffffffffffffffffffffffff16620008df6200167d565b73ffffffffffffffffffffffffffffffffffffffff161462000938576040517f08c379a00000000000000000000000000000000000000000000000000000000081526004016200092f9062003a0c565b60405180910390fd5b6002600454141562000981576040517f08c379a0000000000000000000000000000000000000000000000000000000008152600401620009789062003ad8565b60405180910390fd5b60026004819055506000600f80549050600754620009a0919062003c8c565b90506000600f600081548110620009bc57620009bb62003f3f565b5b9060005260206000200160009054906101000a900473ffffffffffffffffffffffffffffffffffffffff1690506000600190505b600f8054905081101562000b2157600a60008373ffffffffffffffffffffffffffffffffffffffff1673ffffffffffffffffffffffffffffffffffffffff16815260200190815260200160002054600a6000600f848154811062000a595762000a5862003f3f565b5b9060005260206000200160009054906101000a900473ffffffffffffffffffffffffffffffffffffffff1673ffffffffffffffffffffffffffffffffffffffff1673ffffffffffffffffffffffffffffffffffffffff16815260200190815260200160002054111562000b0b57600f818154811062000add5762000adc62003f3f565b5b9060005260206000200160009054906101000a900473ffffffffffffffffffffffffffffffffffffffff1691505b808062000b189062003e93565b915050620009f0565b50601660009054906101000a900473ffffffffffffffffffffffffffffffffffffffff1673ffffffffffffffffffffffffffffffffffffffff166323b872dd3083856040518463ffffffff1660e01b815260040162000b839392919062003799565b602060405180830381600087803b15801562000b9e57600080fd5b505af115801562000bb3573d6000803e3d6000fd5b505050506040513d601f19601f8201168201806040525081019062000bd99190620031dd565b5050506001600481905550565b600062000bf262002c35565b73ffffffffffffffffffffffffffffffffffffffff1662000c126200167d565b73ffffffffffffffffffffffffffffffffffffffff161462000c6b576040517f08c379a000000000000000000000000000000000000000000000000000000000815260040162000c629062003a0c565b60405180910390fd5b60005b825181101562000cdd5762000ca083828151811062000c925762000c9162003f3f565b5b602002602001015162000d23565b1562000cc75760016002600082825462000cbb919062003ced565b92505081905550600191505b808062000cd49062003e93565b91505062000c6e565b50919050565b600f818154811062000cf457600080fd5b906000526020600020016000915054906101000a900473ffffffffffffffffffffffffffffffffffffffff1681565b600062000d2f62002c35565b73ffffffffffffffffffffffffffffffffffffffff1662000d4f6200167d565b73ffffffffffffffffffffffffffffffffffffffff161462000da8576040517f08c379a000000000000000000000000000000000000000000000000000000000815260040162000d9f9062003a0c565b60405180910390fd5b600160008373ffffffffffffffffffffffffffffffffffffffff1673ffffffffffffffffffffffffffffffffffffffff16815260200190815260200160002060009054906101000a900460ff161562000ead576000600160008473ffffffffffffffffffffffffffffffffffffffff1673ffffffffffffffffffffffffffffffffffffffff16815260200190815260200160002060006101000a81548160ff0219169083151502179055507ff1abf01a1043b7c244d128e8595cf0c1d10743b022b03a02dffd8ca3bf729f5a8260405162000e8491906200377c565b60405180910390a160016002600082825462000ea1919062003ced565b92505081905550600190505b919050565b6000600254905090565b6000600f80549050905090565b6000600e60003373ffffffffffffffffffffffffffffffffffffffff1673ffffffffffffffffffffffffffffffffffffffff16815260200190815260200160002060009054906101000a900460ff1662000f2257600080fd5b601660009054906101000a900473ffffffffffffffffffffffffffffffffffffffff1673ffffffffffffffffffffffffffffffffffffffff166370a08231336040518263ffffffff1660e01b815260040162000f7f91906200377c565b60206040518083038186803b15801562000f9857600080fd5b505afa15801562000fad573d6000803e3d6000fd5b505050506040513d601f19601f8201168201806040525081019062000fd3919062003344565b905090565b60075481565b6000600a60003373ffffffffffffffffffffffffffffffffffffffff1673ffffffffffffffffffffffffffffffffffffffff16815260200190815260200160002054905090565b6200102f62002c35565b73ffffffffffffffffffffffffffffffffffffffff166200104f6200167d565b73ffffffffffffffffffffffffffffffffffffffff1614620010a8576040517f08c379a00000000000000000000000000000000000000000000000000000000081526004016200109f9062003a0c565b60405180910390fd5b620010b4600062002c3d565b565b600860009054906101000a900473ffffffffffffffffffffffffffffffffffffffff1673ffffffffffffffffffffffffffffffffffffffff163373ffffffffffffffffffffffffffffffffffffffff161462001149576040517f08c379a0000000000000000000000000000000000000000000000000000000008152600401620011409062003a50565b60405180910390fd5b601460009054906101000a900473ffffffffffffffffffffffffffffffffffffffff1673ffffffffffffffffffffffffffffffffffffffff16637b9417c8826040518263ffffffff1660e01b8152600401620011a691906200377c565b602060405180830381600087803b158015620011c157600080fd5b505af1158015620011d6573d6000803e3d6000fd5b505050506040513d601f19601f82011682018060405250810190620011fc9190620031dd565b50601560009054906101000a900473ffffffffffffffffffffffffffffffffffffffff1673ffffffffffffffffffffffffffffffffffffffff1663771bd4ce826040518263ffffffff1660e01b81526004016200125a91906200377c565b600060405180830381600087803b1580156200127557600080fd5b505af11580156200128a573d6000803e3d6000fd5b5050505050565b60006200129d62002c35565b73ffffffffffffffffffffffffffffffffffffffff16620012bd6200167d565b73ffffffffffffffffffffffffffffffffffffffff161462001316576040517f08c379a00000000000000000000000000000000000000000000000000000000081526004016200130d9062003a0c565b60405180910390fd5b600160008373ffffffffffffffffffffffffffffffffffffffff1673ffffffffffffffffffffffffffffffffffffffff16815260200190815260200160002060009054906101000a900460ff16620014195760018060008473ffffffffffffffffffffffffffffffffffffffff1673ffffffffffffffffffffffffffffffffffffffff16815260200190815260200160002060006101000a81548160ff0219169083151502179055507fd1bba68c128cc3f427e5831b3c6f99f480b6efa6b9e80c757768f6124158cc3f82604051620013f091906200377c565b60405180910390a16001600260008282546200140d919062003c2f565b92505081905550600190505b919050565b60065481565b60058054620014339062003e27565b80601f0160208091040260200160405190810160405280929190818152602001828054620014619062003e27565b8015620014b25780601f106200148657610100808354040283529160200191620014b2565b820191906000526020600020905b8154815290600101906020018083116200149457829003601f168201915b505050505081565b601460009054906101000a900473ffffffffffffffffffffffffffffffffffffffff1681565b600860009054906101000a900473ffffffffffffffffffffffffffffffffffffffff1673ffffffffffffffffffffffffffffffffffffffff163373ffffffffffffffffffffffffffffffffffffffff161462001573576040517f08c379a00000000000000000000000000000000000000000000000000000000081526004016200156a9062003a50565b60405180910390fd5b600960149054906101000a900460ff1615620015c6576040517f08c379a0000000000000000000000000000000000000000000000000000000008152600401620015bd9062003a94565b60405180910390fd5b601460009054906101000a900473ffffffffffffffffffffffffffffffffffffffff1673ffffffffffffffffffffffffffffffffffffffff1663286dd3f5826040518263ffffffff1660e01b81526004016200162391906200377c565b602060405180830381600087803b1580156200163e57600080fd5b505af115801562001653573d6000803e3d6000fd5b505050506040513d601f19601f82011682018060405250810190620016799190620031dd565b5050565b60008060029054906101000a900473ffffffffffffffffffffffffffffffffffffffff16905090565b600e6020528060005260406000206000915054906101000a900460ff1681565b601160009054906101000a900473ffffffffffffffffffffffffffffffffffffffff1681565b600060019054906101000a900460ff16620017165760008054906101000a900460ff161562001721565b6200172062002d02565b5b62001763576040517f08c379a00000000000000000000000000000000000000000000000000000000081526004016200175a90620039ea565b60405180910390fd5b60008060019054906101000a900460ff161590508015620017b4576001600060016101000a81548160ff02191690831515021790555060016000806101000a81548160ff0219169083151502179055505b8a8a60059190620017c792919062002d61565b5060086006819055506001600e60008873ffffffffffffffffffffffffffffffffffffffff1673ffffffffffffffffffffffffffffffffffffffff16815260200190815260200160002060006101000a81548160ff021916908315150217905550600f869080600181540180825580915050600190039060005260206000200160009091909190916101000a81548173ffffffffffffffffffffffffffffffffffffffff021916908373ffffffffffffffffffffffffffffffffffffffff16021790555085600860006101000a81548173ffffffffffffffffffffffffffffffffffffffff021916908373ffffffffffffffffffffffffffffffffffffffff1602179055508860078190555087600360006101000a81548160ff0219169083151502179055506000600960156101000a81548160ff0219169083151502179055506000600960146101000a81548160ff02191690831515021790555086601360006101000a81548173ffffffffffffffffffffffffffffffffffffffff021916908373ffffffffffffffffffffffffffffffffffffffff16021790555081601560006101000a81548173ffffffffffffffffffffffffffffffffffffffff021916908373ffffffffffffffffffffffffffffffffffffffff160217905550604051620019b39062002df2565b604051809103906000f080158015620019d0573d6000803e3d6000fd5b50601460006101000a81548173ffffffffffffffffffffffffffffffffffffffff021916908373ffffffffffffffffffffffffffffffffffffffff16021790555084601160006101000a81548173ffffffffffffffffffffffffffffffffffffffff021916908373ffffffffffffffffffffffffffffffffffffffff16021790555083601260006101000a81548173ffffffffffffffffffffffffffffffffffffffff021916908373ffffffffffffffffffffffffffffffffffffffff16021790555082601660006101000a81548173ffffffffffffffffffffffffffffffffffffffff021916908373ffffffffffffffffffffffffffffffffffffffff16021790555062001b146040518060400160405280601281526020017f50726f787920696e697469616c697a656421000000000000000000000000000081525062002b98565b801562001b365760008060016101000a81548160ff0219169083151502179055505b5050505050505050505050565b60016020528060005260406000206000915054906101000a900460ff1681565b62001b6d62002c35565b73ffffffffffffffffffffffffffffffffffffffff1662001b8d6200167d565b73ffffffffffffffffffffffffffffffffffffffff161462001be6576040517f08c379a000000000000000000000000000000000000000000000000000000000815260040162001bdd9062003a0c565b60405180910390fd5b73__$36fdb4e0c2cb91f3ceca5ea81b025328f3$__63c406e268601083601360009054906101000a900473ffffffffffffffffffffffffffffffffffffffff16600b600a600d6040518763ffffffff1660e01b815260040162001c4f96959493929190620038af565b60006040518083038186803b15801562001c6857600080fd5b505af415801562001c7d573d6000803e3d6000fd5b5050505050565b62001c8e62002c35565b73ffffffffffffffffffffffffffffffffffffffff1662001cae6200167d565b73ffffffffffffffffffffffffffffffffffffffff161462001d07576040517f08c379a000000000000000000000000000000000000000000000000000000000815260040162001cfe9062003a0c565b60405180910390fd5b6000600960156101000a81548160ff021916908315150217905550565b62001d2e62002c35565b73ffffffffffffffffffffffffffffffffffffffff1662001d4e6200167d565b73ffffffffffffffffffffffffffffffffffffffff161462001da7576040517f08c379a000000000000000000000000000000000000000000000000000000000815260040162001d9e9062003a0c565b60405180910390fd5b6001600960156101000a81548160ff021916908315150217905550565b6002600454141562001e0d576040517f08c379a000000000000000000000000000000000000000000000000000000000815260040162001e049062003ad8565b60405180910390fd5b6002600481905550601460009054906101000a900473ffffffffffffffffffffffffffffffffffffffff1673ffffffffffffffffffffffffffffffffffffffff16639b19251a336040518263ffffffff1660e01b815260040162001e7291906200377c565b60206040518083038186803b15801562001e8b57600080fd5b505afa15801562001ea0573d6000803e3d6000fd5b505050506040513d601f19601f8201168201806040525081019062001ec69190620031dd565b62001f08576040517f08c379a000000000000000000000000000000000000000000000000000000000815260040162001eff9062003a72565b60405180910390fd5b600960149054906101000a900460ff161562001f5b576040517f08c379a000000000000000000000000000000000000000000000000000000000815260040162001f529062003afa565b60405180910390fd5b600e60003373ffffffffffffffffffffffffffffffffffffffff1673ffffffffffffffffffffffffffffffffffffffff16815260200190815260200160002060009054906101000a900460ff161562001feb576040517f08c379a000000000000000000000000000000000000000000000000000000000815260040162001fe29062003984565b60405180910390fd5b600754601660009054906101000a900473ffffffffffffffffffffffffffffffffffffffff1673ffffffffffffffffffffffffffffffffffffffff166370a08231336040518263ffffffff1660e01b81526004016200204b91906200377c565b60206040518083038186803b1580156200206457600080fd5b505afa15801562002079573d6000803e3d6000fd5b505050506040513d601f19601f820116820180604052508101906200209f919062003344565b11620020e2576040517f08c379a0000000000000000000000000000000000000000000000000000000008152600401620020d99062003962565b60405180910390fd5b6001600e60003373ffffffffffffffffffffffffffffffffffffffff1673ffffffffffffffffffffffffffffffffffffffff16815260200190815260200160002060006101000a81548160ff021916908315150217905550600f339080600181540180825580915050600190039060005260206000200160009091909190916101000a81548173ffffffffffffffffffffffffffffffffffffffff021916908373ffffffffffffffffffffffffffffffffffffffff160217905550601660009054906101000a900473ffffffffffffffffffffffffffffffffffffffff1673ffffffffffffffffffffffffffffffffffffffff166323b872dd33306007546040518463ffffffff1660e01b8152600401620022009392919062003799565b602060405180830381600087803b1580156200221b57600080fd5b505af115801562002230573d6000803e3d6000fd5b505050506040513d601f19601f82011682018060405250810190620022569190620031dd565b507f9e71bc8eea02a63969f509818f2dafb9254532904319f9dbda79b67bd34a5f3d336007546040516200228c929190620037d6565b60405180910390a16001600481905550565b600d6020528160005260406000208181548110620022bb57600080fd5b90600052602060002001600091509150505481565b600360009054906101000a900460ff1681565b6000620022ef62002c35565b73ffffffffffffffffffffffffffffffffffffffff166200230f6200167d565b73ffffffffffffffffffffffffffffffffffffffff161462002368576040517f08c379a00000000000000000000000000000000000000000000000000000000081526004016200235f9062003a0c565b60405180910390fd5b60005b8251811015620023da576200239d8382815181106200238f576200238e62003f3f565b5b602002602001015162001291565b15620023c457600160026000828254620023b8919062003c2f565b92505081905550600191505b8080620023d19062003e93565b9150506200236b565b50919050565b6000600160008373ffffffffffffffffffffffffffffffffffffffff1673ffffffffffffffffffffffffffffffffffffffff16815260200190815260200160002060009054906101000a900460ff169050919050565b6200244062002c35565b73ffffffffffffffffffffffffffffffffffffffff16620024606200167d565b73ffffffffffffffffffffffffffffffffffffffff1614620024b9576040517f08c379a0000000000000000000000000000000000000000000000000000000008152600401620024b09062003a0c565b60405180910390fd5b6001600960146101000a81548160ff021916908315150217905550565b600a6020528060005260406000206000915090505481565b620024f862002c35565b73ffffffffffffffffffffffffffffffffffffffff16620025186200167d565b73ffffffffffffffffffffffffffffffffffffffff161462002571576040517f08c379a0000000000000000000000000000000000000000000000000000000008152600401620025689062003a0c565b60405180910390fd5b600073ffffffffffffffffffffffffffffffffffffffff168173ffffffffffffffffffffffffffffffffffffffff161415620025e4576040517f08c379a0000000000000000000000000000000000000000000000000000000008152600401620025db9062003940565b60405180910390fd5b620025ef8162002c3d565b50565b600960159054906101000a900460ff161562002645576040517f08c379a00000000000000000000000000000000000000000000000000000000081526004016200263c90620039c8565b60405180910390fd5b600e60003373ffffffffffffffffffffffffffffffffffffffff1673ffffffffffffffffffffffffffffffffffffffff16815260200190815260200160002060009054906101000a900460ff16620026d4576040517f08c379a0000000000000000000000000000000000000000000000000000000008152600401620026cb9062003a2e565b60405180910390fd5b6000601560009054906101000a900473ffffffffffffffffffffffffffffffffffffffff1673ffffffffffffffffffffffffffffffffffffffff166306575c896040518163ffffffff1660e01b815260040160206040518083038186803b1580156200273f57600080fd5b505afa15801562002754573d6000803e3d6000fd5b505050506040513d601f19601f820116820180604052508101906200277a919062003344565b905060005b600d60003373ffffffffffffffffffffffffffffffffffffffff1673ffffffffffffffffffffffffffffffffffffffff168152602001908152602001600020805490508110156200287f57600c6000600d60003373ffffffffffffffffffffffffffffffffffffffff1673ffffffffffffffffffffffffffffffffffffffff168152602001908152602001600020838154811062002822576200282162003f3f565b5b90600052602060002001548152602001908152602001600020826008811062002850576200284f62003f3f565b5b016000815480929190620028649062003df8565b91905055508080620028769062003e93565b9150506200277f565b5060005b8251811015620029f857600c60008281526020019081526020016000208260088110620028b557620028b462003f3f565b5b016000815480929190620028c99062003e93565b91905055506000601760009054906101000a900473ffffffffffffffffffffffffffffffffffffffff1673ffffffffffffffffffffffffffffffffffffffff1662fdd58e3386858151811062002924576200292362003f3f565b5b60200260200101516040518363ffffffff1660e01b81526004016200294b929190620037d6565b60206040518083038186803b1580156200296457600080fd5b505afa15801562002979573d6000803e3d6000fd5b505050506040513d601f19601f820116820180604052508101906200299f919062003344565b11620029e2576040517f08c379a0000000000000000000000000000000000000000000000000000000008152600401620029d99062003ab6565b60405180910390fd5b8080620029ef9062003e93565b91505062002883565b5060005b825181101562002a8b576001600c6000838152602001908152602001600020836008811062002a305762002a2f62003f3f565b5b01541462002a75576040517f08c379a000000000000000000000000000000000000000000000000000000000815260040162002a6c90620039a6565b60405180910390fd5b808062002a829062003e93565b915050620029fc565b5081600d60003373ffffffffffffffffffffffffffffffffffffffff1673ffffffffffffffffffffffffffffffffffffffff168152602001908152602001600020908051906020019062002ae192919062002e00565b505050565b600860009054906101000a900473ffffffffffffffffffffffffffffffffffffffff1681565b62002b1662002e52565b600b60003373ffffffffffffffffffffffffffffffffffffffff1673ffffffffffffffffffffffffffffffffffffffff16815260200190815260200160002060088060200260405190810160405280929190826008801562002b8e576020028201915b81548152602001906001019080831162002b79575b5050505050905090565b62002c328160405160240162002baf91906200391c565b6040516020818303038152906040527f41304fac000000000000000000000000000000000000000000000000000000007bffffffffffffffffffffffffffffffffffffffffffffffffffffffff19166020820180517bffffffffffffffffffffffffffffffffffffffffffffffffffffffff838183161783525050505062002d15565b50565b600033905090565b60008060029054906101000a900473ffffffffffffffffffffffffffffffffffffffff16905081600060026101000a81548173ffffffffffffffffffffffffffffffffffffffff021916908373ffffffffffffffffffffffffffffffffffffffff1602179055508173ffffffffffffffffffffffffffffffffffffffff168173ffffffffffffffffffffffffffffffffffffffff167f8be0079c531659141344cd1fd0a4f28419497f9722a3daafe3b4186f6b6457e060405160405180910390a35050565b600062002d0f3062002d3e565b15905090565b60008151905060006a636f6e736f6c652e6c6f679050602083016000808483855afa5050505050565b6000808273ffffffffffffffffffffffffffffffffffffffff163b119050919050565b82805462002d6f9062003e27565b90600052602060002090601f01602090048101928262002d93576000855562002ddf565b82601f1062002dae57803560ff191683800117855562002ddf565b8280016001018555821562002ddf579182015b8281111562002dde57823582559160200191906001019062002dc1565b5b50905062002dee919062002e75565b5090565b61108d806200435e83390190565b82805482825590600052602060002090810192821562002e3f579160200282015b8281111562002e3e57825182559160200191906001019062002e21565b5b50905062002e4e919062002e75565b5090565b604051806101000160405280600890602082028036833780820191505090505090565b5b8082111562002e9057600081600090555060010162002e76565b5090565b600062002eab62002ea58462003b62565b62003b39565b9050808382526020820190508285602086028201111562002ed15762002ed062003fa7565b5b60005b8581101562002f05578162002eea888262002f8a565b84526020840193506020830192505060018101905062002ed4565b5050509392505050565b600062002f2662002f208462003b91565b62003b39565b9050808382526020820190508285602086028201111562002f4c5762002f4b62003fa7565b5b60005b8581101562002f80578162002f65888262003094565b84526020840193506020830192505060018101905062002f4f565b5050509392505050565b60008135905062002f9b816200430f565b92915050565b600082601f83011262002fb95762002fb862003fa2565b5b813562002fcb84826020860162002e94565b91505092915050565b600082601f83011262002fec5762002feb62003fa2565b5b813562002ffe84826020860162002f0f565b91505092915050565b600081359050620030188162004329565b92915050565b6000815190506200302f8162004329565b92915050565b60008083601f8401126200304e576200304d62003fa2565b5b8235905067ffffffffffffffff8111156200306e576200306d62003f9d565b5b6020830191508360018202830111156200308d576200308c62003fa7565b5b9250929050565b600081359050620030a58162004343565b92915050565b600081519050620030bc8162004343565b92915050565b600060208284031215620030db57620030da62003fb1565b5b6000620030eb8482850162002f8a565b91505092915050565b600080604083850312156200310e576200310d62003fb1565b5b60006200311e8582860162002f8a565b9250506020620031318582860162003094565b9150509250929050565b60006020828403121562003154576200315362003fb1565b5b600082013567ffffffffffffffff81111562003175576200317462003fac565b5b620031838482850162002fa1565b91505092915050565b600060208284031215620031a557620031a462003fb1565b5b600082013567ffffffffffffffff811115620031c657620031c562003fac565b5b620031d48482850162002fd4565b91505092915050565b600060208284031215620031f657620031f562003fb1565b5b600062003206848285016200301e565b91505092915050565b6000806000806000806000806000806101208b8d03121562003236576200323562003fb1565b5b60008b013567ffffffffffffffff81111562003257576200325662003fac565b5b620032658d828e0162003035565b9a509a505060206200327a8d828e0162003094565b98505060406200328d8d828e0162003007565b9750506060620032a08d828e0162002f8a565b9650506080620032b38d828e0162002f8a565b95505060a0620032c68d828e0162002f8a565b94505060c0620032d98d828e0162002f8a565b93505060e0620032ec8d828e0162002f8a565b925050610100620033008d828e0162002f8a565b9150509295989b9194979a5092959850565b6000602082840312156200332b576200332a62003fb1565b5b60006200333b8482850162003094565b91505092915050565b6000602082840312156200335d576200335c62003fb1565b5b60006200336d84828501620030ab565b91505092915050565b600062003384838362003749565b60208301905092915050565b6200339b8162003d28565b82525050565b8082525050565b620033b38162003bdf565b620033bf818462003c02565b9250620033cc8262003bc0565b8060005b8381101562003403578151620033e7878262003376565b9650620033f48362003bf5565b925050600181019050620033d0565b505050505050565b620034168162003d3c565b82525050565b620034278162003d72565b82525050565b620034388162003d86565b82525050565b8082525050565b8082525050565b8082525050565b8082525050565b6000620034678262003bea565b62003473818562003c0d565b93506200348581856020860162003dc2565b620034908162003fb6565b840191505092915050565b60008154620034aa8162003e27565b620034b6818662003c1e565b94506001821660008114620034d45760018114620034e7576200351e565b60ff19831686526020860193506200351e565b620034f28562003bca565b60005b838110156200351657815481890152600182019150602081019050620034f5565b808801955050505b50505092915050565b60006200353660268362003c0d565b9150620035438262003fc7565b604082019050919050565b60006200355d601d8362003c0d565b91506200356a8262004016565b602082019050919050565b60006200358460238362003c0d565b915062003591826200403f565b604082019050919050565b6000620035ab60258362003c0d565b9150620035b8826200408e565b604082019050919050565b6000620035d2601e8362003c0d565b9150620035df82620040dd565b602082019050919050565b6000620035f9602e8362003c0d565b9150620036068262004106565b604082019050919050565b60006200362060208362003c0d565b91506200362d8262004155565b602082019050919050565b60006200364760158362003c0d565b915062003654826200417e565b602082019050919050565b60006200366e60178362003c0d565b91506200367b82620041a7565b602082019050919050565b600062003695601c8362003c0d565b9150620036a282620041d0565b602082019050919050565b6000620036bc60418362003c0d565b9150620036c982620041f9565b606082019050919050565b6000620036e360248362003c0d565b9150620036f0826200426e565b604082019050919050565b60006200370a601f8362003c0d565b91506200371782620042bd565b602082019050919050565b60006200373160178362003c0d565b91506200373e82620042e6565b602082019050919050565b620037548162003d68565b82525050565b620037658162003d68565b82525050565b620037768162003d68565b82525050565b600060208201905062003793600083018462003390565b92915050565b6000606082019050620037b0600083018662003390565b620037bf602083018562003390565b620037ce60408301846200375a565b949350505050565b6000604082019050620037ed600083018562003390565b620037fc60208301846200375a565b9392505050565b6000610100820190506200381b6000830184620033a8565b92915050565b60006020820190506200383860008301846200340b565b92915050565b60006020820190506200385560008301846200342d565b92915050565b600060808201905062003872600083018762003453565b620038816020830186620033a1565b6200389060408301856200376b565b8181036060830152620038a481846200349b565b905095945050505050565b600060c082019050620038c6600083018962003453565b620038d560208301886200376b565b620038e460408301876200341c565b620038f360608301866200343e565b6200390260808301856200344c565b6200391160a083018462003445565b979650505050505050565b600060208201905081810360008301526200393881846200345a565b905092915050565b600060208201905081810360008301526200395b8162003527565b9050919050565b600060208201905081810360008301526200397d816200354e565b9050919050565b600060208201905081810360008301526200399f8162003575565b9050919050565b60006020820190508181036000830152620039c1816200359c565b9050919050565b60006020820190508181036000830152620039e381620035c3565b9050919050565b6000602082019050818103600083015262003a0581620035ea565b9050919050565b6000602082019050818103600083015262003a278162003611565b9050919050565b6000602082019050818103600083015262003a498162003638565b9050919050565b6000602082019050818103600083015262003a6b816200365f565b9050919050565b6000602082019050818103600083015262003a8d8162003686565b9050919050565b6000602082019050818103600083015262003aaf81620036ad565b9050919050565b6000602082019050818103600083015262003ad181620036d4565b9050919050565b6000602082019050818103600083015262003af381620036fb565b9050919050565b6000602082019050818103600083015262003b158162003722565b9050919050565b600060208201905062003b3360008301846200375a565b92915050565b600062003b4562003b58565b905062003b53828262003e5d565b919050565b6000604051905090565b600067ffffffffffffffff82111562003b805762003b7f62003f6e565b5b602082029050602081019050919050565b600067ffffffffffffffff82111562003baf5762003bae62003f6e565b5b602082029050602081019050919050565b6000819050919050565b60008190508160005260206000209050919050565b600060089050919050565b600081519050919050565b6000602082019050919050565b600081905092915050565b600082825260208201905092915050565b600082825260208201905092915050565b600062003c3c8262003d68565b915062003c498362003d68565b9250827fffffffffffffffffffffffffffffffffffffffffffffffffffffffffffffffff0382111562003c815762003c8062003ee1565b5b828201905092915050565b600062003c998262003d68565b915062003ca68362003d68565b9250817fffffffffffffffffffffffffffffffffffffffffffffffffffffffffffffffff048311821515161562003ce25762003ce162003ee1565b5b828202905092915050565b600062003cfa8262003d68565b915062003d078362003d68565b92508282101562003d1d5762003d1c62003ee1565b5b828203905092915050565b600062003d358262003d48565b9050919050565b60008115159050919050565b600073ffffffffffffffffffffffffffffffffffffffff82169050919050565b6000819050919050565b600062003d7f8262003d9a565b9050919050565b600062003d938262003d9a565b9050919050565b600062003da78262003dae565b9050919050565b600062003dbb8262003d48565b9050919050565b60005b8381101562003de257808201518184015260208101905062003dc5565b8381111562003df2576000848401525b50505050565b600062003e058262003d68565b9150600082141562003e1c5762003e1b62003ee1565b5b600182039050919050565b6000600282049050600182168062003e4057607f821691505b6020821081141562003e575762003e5662003f10565b5b50919050565b62003e688262003fb6565b810181811067ffffffffffffffff8211171562003e8a5762003e8962003f6e565b5b80604052505050565b600062003ea08262003d68565b91507fffffffffffffffffffffffffffffffffffffffffffffffffffffffffffffffff82141562003ed65762003ed562003ee1565b5b600182019050919050565b7f4e487b7100000000000000000000000000000000000000000000000000000000600052601160045260246000fd5b7f4e487b7100000000000000000000000000000000000000000000000000000000600052602260045260246000fd5b7f4e487b7100000000000000000000000000000000000000000000000000000000600052603260045260246000fd5b7f4e487b7100000000000000000000000000000000000000000000000000000000600052604160045260246000fd5b600080fd5b600080fd5b600080fd5b600080fd5b600080fd5b6000601f19601f8301169050919050565b7f4f776e61626c653a206e6577206f776e657220697320746865207a65726f206160008201527f6464726573730000000000000000000000000000000000000000000000000000602082015250565b7f496e737566666963656e742066756e647320666f72207374616b696e67000000600082015250565b7f596f75206861766520616c7265616479206a6f696e65642074686973206c656160008201527f6775650000000000000000000000000000000000000000000000000000000000602082015250565b7f4475706c6963617465206174686c65746549447320617265206e6f7420616c6c60008201527f6f7765642e000000000000000000000000000000000000000000000000000000602082015250565b7f6c696e657570206973206c6f636b656420666f7220746865207765656b210000600082015250565b7f496e697469616c697a61626c653a20636f6e747261637420697320616c72656160008201527f647920696e697469616c697a6564000000000000000000000000000000000000602082015250565b7f4f776e61626c653a2063616c6c6572206973206e6f7420746865206f776e6572600082015250565b7f75736572206973206e6f7420696e204c65616775650000000000000000000000600082015250565b7f43616c6c6572206973206e6f74207468652061646d696e000000000000000000600082015250565b7f55736572206973206e6f74206f6e2077686974656c6973742062726f00000000600082015250565b7f4e6f626f64792063616e20656e7465722f6578697420746865206c656167756560008201527f20616e796d6f72652e2054686520736561736f6e20686173207374617274656460208201527f2100000000000000000000000000000000000000000000000000000000000000604082015250565b7f43616c6c657220646f6573206e6f74206f776e20676976656e206174686c657460008201527f6549647300000000000000000000000000000000000000000000000000000000602082015250565b7f5265656e7472616e637947756172643a207265656e7472616e742063616c6c00600082015250565b7f4c656167756520456e74727920697320436c6f73656421000000000000000000600082015250565b6200431a8162003d28565b81146200432657600080fd5b50565b620043348162003d3c565b81146200434057600080fd5b50565b6200434e8162003d68565b81146200435a57600080fd5b5056fe608060405234801561001057600080fd5b5061002d61002261003260201b60201c565b61003a60201b60201c565b6100fe565b600033905090565b60008060009054906101000a900473ffffffffffffffffffffffffffffffffffffffff169050816000806101000a81548173ffffffffffffffffffffffffffffffffffffffff021916908373ffffffffffffffffffffffffffffffffffffffff1602179055508173ffffffffffffffffffffffffffffffffffffffff168173ffffffffffffffffffffffffffffffffffffffff167f8be0079c531659141344cd1fd0a4f28419497f9722a3daafe3b4186f6b6457e060405160405180910390a35050565b610f808061010d6000396000f3fe608060405234801561001057600080fd5b50600436106100a95760003560e01c80638da5cb5b116100715780638da5cb5b146101665780639b19251a14610184578063dc9a1535146101b4578063e2ec6ec3146101d2578063e35a899914610202578063f2fde38b14610232576100a9565b806324953eaa146100ae578063286dd3f5146100de57806344eaa84e1461010e578063715018a61461012c5780637b9417c814610136575b600080fd5b6100c860048036038101906100c39190610b0e565b61024e565b6040516100d59190610be5565b60405180910390f35b6100f860048036038101906100f39190610ae1565b610338565b6040516101059190610be5565b60405180910390f35b6101166104bb565b6040516101239190610c40565b60405180910390f35b6101346104c5565b005b610150600480360381019061014b9190610ae1565b61054d565b60405161015d9190610be5565b60405180910390f35b61016e6106ce565b60405161017b9190610bca565b60405180910390f35b61019e60048036038101906101999190610ae1565b6106f7565b6040516101ab9190610be5565b60405180910390f35b6101bc610717565b6040516101c99190610be5565b60405180910390f35b6101ec60048036038101906101e79190610b0e565b61072a565b6040516101f99190610be5565b60405180910390f35b61021c60048036038101906102179190610ae1565b610814565b6040516102299190610be5565b60405180910390f35b61024c60048036038101906102479190610ae1565b61086a565b005b6000610258610962565b73ffffffffffffffffffffffffffffffffffffffff166102766106ce565b73ffffffffffffffffffffffffffffffffffffffff16146102cc576040517f08c379a00000000000000000000000000000000000000000000000000000000081526004016102c390610c20565b60405180910390fd5b60005b8251811015610332576102fb8382815181106102ee576102ed610e38565b5b6020026020010151610338565b1561031f576001600260008282546103139190610d13565b92505081905550600191505b808061032a90610dc0565b9150506102cf565b50919050565b6000610342610962565b73ffffffffffffffffffffffffffffffffffffffff166103606106ce565b73ffffffffffffffffffffffffffffffffffffffff16146103b6576040517f08c379a00000000000000000000000000000000000000000000000000000000081526004016103ad90610c20565b60405180910390fd5b600160008373ffffffffffffffffffffffffffffffffffffffff1673ffffffffffffffffffffffffffffffffffffffff16815260200190815260200160002060009054906101000a900460ff16156104b6576000600160008473ffffffffffffffffffffffffffffffffffffffff1673ffffffffffffffffffffffffffffffffffffffff16815260200190815260200160002060006101000a81548160ff0219169083151502179055507ff1abf01a1043b7c244d128e8595cf0c1d10743b022b03a02dffd8ca3bf729f5a8260405161048f9190610bca565b60405180910390a16001600260008282546104aa9190610d13565b92505081905550600190505b919050565b6000600254905090565b6104cd610962565b73ffffffffffffffffffffffffffffffffffffffff166104eb6106ce565b73ffffffffffffffffffffffffffffffffffffffff1614610541576040517f08c379a000000000000000000000000000000000000000000000000000000000815260040161053890610c20565b60405180910390fd5b61054b600061096a565b565b6000610557610962565b73ffffffffffffffffffffffffffffffffffffffff166105756106ce565b73ffffffffffffffffffffffffffffffffffffffff16146105cb576040517f08c379a00000000000000000000000000000000000000000000000000000000081526004016105c290610c20565b60405180910390fd5b600160008373ffffffffffffffffffffffffffffffffffffffff1673ffffffffffffffffffffffffffffffffffffffff16815260200190815260200160002060009054906101000a900460ff166106c95760018060008473ffffffffffffffffffffffffffffffffffffffff1673ffffffffffffffffffffffffffffffffffffffff16815260200190815260200160002060006101000a81548160ff0219169083151502179055507fd1bba68c128cc3f427e5831b3c6f99f480b6efa6b9e80c757768f6124158cc3f826040516106a29190610bca565b60405180910390a16001600260008282546106bd9190610cbd565b92505081905550600190505b919050565b60008060009054906101000a900473ffffffffffffffffffffffffffffffffffffffff16905090565b60016020528060005260406000206000915054906101000a900460ff1681565b600360009054906101000a900460ff1681565b6000610734610962565b73ffffffffffffffffffffffffffffffffffffffff166107526106ce565b73ffffffffffffffffffffffffffffffffffffffff16146107a8576040517f08c379a000000000000000000000000000000000000000000000000000000000815260040161079f90610c20565b60405180910390fd5b60005b825181101561080e576107d78382815181106107ca576107c9610e38565b5b602002602001015161054d565b156107fb576001600260008282546107ef9190610cbd565b92505081905550600191505b808061080690610dc0565b9150506107ab565b50919050565b6000600160008373ffffffffffffffffffffffffffffffffffffffff1673ffffffffffffffffffffffffffffffffffffffff16815260200190815260200160002060009054906101000a900460ff169050919050565b610872610962565b73ffffffffffffffffffffffffffffffffffffffff166108906106ce565b73ffffffffffffffffffffffffffffffffffffffff16146108e6576040517f08c379a00000000000000000000000000000000000000000000000000000000081526004016108dd90610c20565b60405180910390fd5b600073ffffffffffffffffffffffffffffffffffffffff168173ffffffffffffffffffffffffffffffffffffffff161415610956576040517f08c379a000000000000000000000000000000000000000000000000000000000815260040161094d90610c00565b60405180910390fd5b61095f8161096a565b50565b600033905090565b60008060009054906101000a900473ffffffffffffffffffffffffffffffffffffffff169050816000806101000a81548173ffffffffffffffffffffffffffffffffffffffff021916908373ffffffffffffffffffffffffffffffffffffffff1602179055508173ffffffffffffffffffffffffffffffffffffffff168173ffffffffffffffffffffffffffffffffffffffff167f8be0079c531659141344cd1fd0a4f28419497f9722a3daafe3b4186f6b6457e060405160405180910390a35050565b6000610a41610a3c84610c80565b610c5b565b90508083825260208201905082856020860282011115610a6457610a63610e9b565b5b60005b85811015610a945781610a7a8882610a9e565b845260208401935060208301925050600181019050610a67565b5050509392505050565b600081359050610aad81610f33565b92915050565b600082601f830112610ac857610ac7610e96565b5b8135610ad8848260208601610a2e565b91505092915050565b600060208284031215610af757610af6610ea5565b5b6000610b0584828501610a9e565b91505092915050565b600060208284031215610b2457610b23610ea5565b5b600082013567ffffffffffffffff811115610b4257610b41610ea0565b5b610b4e84828501610ab3565b91505092915050565b610b6081610d47565b82525050565b610b6f81610d59565b82525050565b6000610b82602683610cac565b9150610b8d82610ebb565b604082019050919050565b6000610ba5602083610cac565b9150610bb082610f0a565b602082019050919050565b610bc481610d85565b82525050565b6000602082019050610bdf6000830184610b57565b92915050565b6000602082019050610bfa6000830184610b66565b92915050565b60006020820190508181036000830152610c1981610b75565b9050919050565b60006020820190508181036000830152610c3981610b98565b9050919050565b6000602082019050610c556000830184610bbb565b92915050565b6000610c65610c76565b9050610c718282610d8f565b919050565b6000604051905090565b600067ffffffffffffffff821115610c9b57610c9a610e67565b5b602082029050602081019050919050565b600082825260208201905092915050565b6000610cc882610d85565b9150610cd383610d85565b9250827fffffffffffffffffffffffffffffffffffffffffffffffffffffffffffffffff03821115610d0857610d07610e09565b5b828201905092915050565b6000610d1e82610d85565b9150610d2983610d85565b925082821015610d3c57610d3b610e09565b5b828203905092915050565b6000610d5282610d65565b9050919050565b60008115159050919050565b600073ffffffffffffffffffffffffffffffffffffffff82169050919050565b6000819050919050565b610d9882610eaa565b810181811067ffffffffffffffff82111715610db757610db6610e67565b5b80604052505050565b6000610dcb82610d85565b91507fffffffffffffffffffffffffffffffffffffffffffffffffffffffffffffffff821415610dfe57610dfd610e09565b5b600182019050919050565b7f4e487b7100000000000000000000000000000000000000000000000000000000600052601160045260246000fd5b7f4e487b7100000000000000000000000000000000000000000000000000000000600052603260045260246000fd5b7f4e487b7100000000000000000000000000000000000000000000000000000000600052604160045260246000fd5b600080fd5b600080fd5b600080fd5b600080fd5b6000601f19601f8301169050919050565b7f4f776e61626c653a206e6577206f776e657220697320746865207a65726f206160008201527f6464726573730000000000000000000000000000000000000000000000000000602082015250565b7f4f776e61626c653a2063616c6c6572206973206e6f7420746865206f776e6572600082015250565b610f3c81610d47565b8114610f4757600080fd5b5056fea26469706673582212207192af37282fd7bfe53350acb10318f34b6fed008a48fb804e840facad443e6364736f6c63430008070033a264697066735822122035e31a1a487ef60ac619be9a8643652e4ca09583df099cbd29dd23e00756fc2864736f6c63430008070033",
  "linkReferences": {
    "contracts/MOBALogicLibrary.sol": {
      "MOBALogicLibrary": [
        {
          "length": 20,
          "start": 2355
        },
        {
          "length": 20,
          "start": 7429
        }
      ]
    }
  },
  "deployedLinkReferences": {
    "contracts/MOBALogicLibrary.sol": {
      "MOBALogicLibrary": [
        {
          "length": 20,
          "start": 2070
        },
        {
          "length": 20,
          "start": 7144
        }
      ]
    }
  }
}