{
  "_format": "hh-sol-artifact-1",
  "contractName": "LeagueOfLegendsLogic",
  "sourceName": "contracts/LeagueOfLegendsLogic.sol",
  "abi": [
    {
      "anonymous": false,
      "inputs": [
        {
          "indexed": true,
          "internalType": "address",
          "name": "previousOwner",
          "type": "address"
        },
        {
          "indexed": true,
          "internalType": "address",
          "name": "newOwner",
          "type": "address"
        }
      ],
      "name": "OwnershipTransferred",
      "type": "event"
    },
    {
      "anonymous": false,
      "inputs": [
        {
          "indexed": true,
          "internalType": "bytes32",
          "name": "role",
          "type": "bytes32"
        },
        {
          "indexed": true,
          "internalType": "bytes32",
          "name": "previousAdminRole",
          "type": "bytes32"
        },
        {
          "indexed": true,
          "internalType": "bytes32",
          "name": "newAdminRole",
          "type": "bytes32"
        }
      ],
      "name": "RoleAdminChanged",
      "type": "event"
    },
    {
      "anonymous": false,
      "inputs": [
        {
          "indexed": true,
          "internalType": "bytes32",
          "name": "role",
          "type": "bytes32"
        },
        {
          "indexed": true,
          "internalType": "address",
          "name": "account",
          "type": "address"
        },
        {
          "indexed": true,
          "internalType": "address",
          "name": "sender",
          "type": "address"
        }
      ],
      "name": "RoleGranted",
      "type": "event"
    },
    {
      "anonymous": false,
      "inputs": [
        {
          "indexed": true,
          "internalType": "bytes32",
          "name": "role",
          "type": "bytes32"
        },
        {
          "indexed": true,
          "internalType": "address",
          "name": "account",
          "type": "address"
        },
        {
          "indexed": true,
          "internalType": "address",
          "name": "sender",
          "type": "address"
        }
      ],
      "name": "RoleRevoked",
      "type": "event"
    },
    {
      "anonymous": false,
      "inputs": [
        {
          "indexed": false,
          "internalType": "address",
          "name": "sender",
          "type": "address"
        },
        {
          "indexed": false,
          "internalType": "uint256",
          "name": "amount",
          "type": "uint256"
        }
      ],
      "name": "Staked",
      "type": "event"
    },
    {
      "anonymous": false,
      "inputs": [
        {
          "indexed": false,
          "internalType": "address",
          "name": "addr",
          "type": "address"
        }
      ],
      "name": "WhitelistedAddressAdded",
      "type": "event"
    },
    {
      "anonymous": false,
      "inputs": [
        {
          "indexed": false,
          "internalType": "address",
          "name": "addr",
          "type": "address"
        }
      ],
      "name": "WhitelistedAddressRemoved",
      "type": "event"
    },
    {
      "anonymous": false,
      "inputs": [
        {
          "indexed": false,
          "internalType": "address",
          "name": "sender",
          "type": "address"
        },
        {
          "indexed": false,
          "internalType": "address",
          "name": "contractAddress",
          "type": "address"
        }
      ],
      "name": "testUSDCDeployed",
      "type": "event"
    },
    {
      "inputs": [],
      "name": "DEFAULT_ADMIN_ROLE",
      "outputs": [
        {
          "internalType": "bytes32",
          "name": "",
          "type": "bytes32"
        }
      ],
      "stateMutability": "view",
      "type": "function"
    },
    {
      "inputs": [
        {
          "internalType": "address",
          "name": "addr",
          "type": "address"
        }
      ],
      "name": "addAddressToWhitelist",
      "outputs": [
        {
          "internalType": "bool",
          "name": "success",
          "type": "bool"
        }
      ],
      "stateMutability": "nonpayable",
      "type": "function"
    },
    {
      "inputs": [
        {
          "internalType": "address[]",
          "name": "addrs",
          "type": "address[]"
        }
      ],
      "name": "addAddressesToWhitelist",
      "outputs": [
        {
          "internalType": "bool",
          "name": "success",
          "type": "bool"
        }
      ],
      "stateMutability": "nonpayable",
      "type": "function"
    },
    {
      "inputs": [
        {
          "internalType": "address",
          "name": "user",
          "type": "address"
        }
      ],
      "name": "addUserToLeague",
      "outputs": [],
      "stateMutability": "nonpayable",
      "type": "function"
    },
    {
      "inputs": [
        {
          "internalType": "address",
          "name": "_userToAdd",
          "type": "address"
        }
      ],
      "name": "addUserToWhitelist",
      "outputs": [],
      "stateMutability": "nonpayable",
      "type": "function"
    },
    {
      "inputs": [],
      "name": "currentWeekNum",
      "outputs": [
        {
          "internalType": "uint256",
          "name": "",
          "type": "uint256"
        }
      ],
      "stateMutability": "view",
      "type": "function"
    },
    {
      "inputs": [
        {
          "internalType": "address",
          "name": "addr1",
          "type": "address"
        },
        {
          "internalType": "address",
          "name": "addr2",
          "type": "address"
        }
      ],
      "name": "evaluateMatch",
      "outputs": [
        {
          "internalType": "address",
          "name": "",
          "type": "address"
        }
      ],
      "stateMutability": "nonpayable",
      "type": "function"
    },
    {
      "inputs": [],
      "name": "evaluateWeek",
      "outputs": [],
      "stateMutability": "nonpayable",
      "type": "function"
    },
    {
      "inputs": [],
      "name": "getAdmin",
      "outputs": [
        {
          "internalType": "address",
          "name": "",
          "type": "address"
        }
      ],
      "stateMutability": "view",
      "type": "function"
    },
    {
      "inputs": [],
      "name": "getAthleteContractAddress",
      "outputs": [
        {
          "internalType": "address",
          "name": "",
          "type": "address"
        }
      ],
      "stateMutability": "view",
      "type": "function"
    },
    {
      "inputs": [],
      "name": "getCurrentWeekNum",
      "outputs": [
        {
          "internalType": "uint256",
          "name": "",
          "type": "uint256"
        }
      ],
      "stateMutability": "view",
      "type": "function"
    },
    {
      "inputs": [],
      "name": "getLeagueName",
      "outputs": [
        {
          "internalType": "string",
          "name": "",
          "type": "string"
        }
      ],
      "stateMutability": "view",
      "type": "function"
    },
    {
      "inputs": [],
      "name": "getLineup",
      "outputs": [
        {
          "internalType": "uint256[]",
          "name": "",
          "type": "uint256[]"
        }
      ],
      "stateMutability": "view",
      "type": "function"
    },
    {
      "inputs": [
        {
          "internalType": "bytes32",
          "name": "role",
          "type": "bytes32"
        }
      ],
      "name": "getRoleAdmin",
      "outputs": [
        {
          "internalType": "bytes32",
          "name": "",
          "type": "bytes32"
        }
      ],
      "stateMutability": "view",
      "type": "function"
    },
    {
      "inputs": [],
      "name": "getStakeAmount",
      "outputs": [
        {
          "internalType": "uint256",
          "name": "",
          "type": "uint256"
        }
      ],
      "stateMutability": "view",
      "type": "function"
    },
    {
      "inputs": [],
      "name": "getTestUSDCAddress",
      "outputs": [
        {
          "internalType": "address",
          "name": "",
          "type": "address"
        }
      ],
      "stateMutability": "view",
      "type": "function"
    },
    {
      "inputs": [],
      "name": "getTotalPrizePot",
      "outputs": [
        {
          "internalType": "uint256",
          "name": "",
          "type": "uint256"
        }
      ],
      "stateMutability": "view",
      "type": "function"
    },
    {
      "inputs": [],
      "name": "getUSDCBalance",
      "outputs": [
        {
          "internalType": "uint256",
          "name": "",
          "type": "uint256"
        }
      ],
      "stateMutability": "view",
      "type": "function"
    },
    {
      "inputs": [],
      "name": "getUserRecord",
      "outputs": [
        {
          "internalType": "uint256[8]",
          "name": "",
          "type": "uint256[8]"
        }
      ],
      "stateMutability": "view",
      "type": "function"
    },
    {
      "inputs": [],
      "name": "getUserTotalPts",
      "outputs": [
        {
          "internalType": "uint256",
          "name": "",
          "type": "uint256"
        }
      ],
      "stateMutability": "view",
      "type": "function"
    },
    {
      "inputs": [],
      "name": "getUserUSDCBalance",
      "outputs": [
        {
          "internalType": "uint256",
          "name": "",
          "type": "uint256"
        }
      ],
      "stateMutability": "view",
      "type": "function"
    },
    {
      "inputs": [],
      "name": "getUsersLength",
      "outputs": [
        {
          "internalType": "uint256",
          "name": "",
          "type": "uint256"
        }
      ],
      "stateMutability": "view",
      "type": "function"
    },
    {
      "inputs": [],
      "name": "getVersion",
      "outputs": [
        {
          "internalType": "uint256",
          "name": "version",
          "type": "uint256"
        }
      ],
      "stateMutability": "pure",
      "type": "function"
    },
    {
      "inputs": [
        {
          "internalType": "bytes32",
          "name": "role",
          "type": "bytes32"
        },
        {
          "internalType": "address",
          "name": "account",
          "type": "address"
        }
      ],
      "name": "grantRole",
      "outputs": [],
      "stateMutability": "nonpayable",
      "type": "function"
    },
    {
      "inputs": [
        {
          "internalType": "bytes32",
          "name": "role",
          "type": "bytes32"
        },
        {
          "internalType": "address",
          "name": "account",
          "type": "address"
        }
      ],
      "name": "hasRole",
      "outputs": [
        {
          "internalType": "bool",
          "name": "",
          "type": "bool"
        }
      ],
      "stateMutability": "view",
      "type": "function"
    },
    {
      "inputs": [
        {
          "internalType": "string",
          "name": "_name",
          "type": "string"
        },
        {
          "internalType": "uint256",
          "name": "_numWeeks",
          "type": "uint256"
        },
        {
          "internalType": "uint256",
          "name": "_stakeAmount",
          "type": "uint256"
        },
        {
          "internalType": "bool",
          "name": "_isPublic",
          "type": "bool"
        },
        {
          "internalType": "address",
          "name": "athletesDataStorageAddress",
          "type": "address"
        },
        {
          "internalType": "address",
          "name": "_admin",
          "type": "address"
        },
        {
          "internalType": "address",
          "name": "_polygonUSDCAddress",
          "type": "address"
        },
        {
          "internalType": "address",
          "name": "_rinkebyUSDCAddress",
          "type": "address"
        },
        {
          "internalType": "address",
          "name": "_testUSDCAddress",
          "type": "address"
        },
        {
          "internalType": "address",
          "name": "leagueMakerContractAddress",
          "type": "address"
        }
      ],
      "name": "initialize",
      "outputs": [],
      "stateMutability": "nonpayable",
      "type": "function"
    },
    {
      "inputs": [],
      "name": "isPublic",
      "outputs": [
        {
          "internalType": "bool",
          "name": "",
          "type": "bool"
        }
      ],
      "stateMutability": "view",
      "type": "function"
    },
    {
      "inputs": [],
      "name": "joinLeague",
      "outputs": [],
      "stateMutability": "nonpayable",
      "type": "function"
    },
    {
      "inputs": [
        {
          "internalType": "uint256",
          "name": "",
          "type": "uint256"
        }
      ],
      "name": "leagueMembers",
      "outputs": [
        {
          "internalType": "address",
          "name": "",
          "type": "address"
        }
      ],
      "stateMutability": "view",
      "type": "function"
    },
    {
      "inputs": [],
      "name": "leagueName",
      "outputs": [
        {
          "internalType": "string",
          "name": "",
          "type": "string"
        }
      ],
      "stateMutability": "view",
      "type": "function"
    },
    {
      "inputs": [],
      "name": "lockLineup",
      "outputs": [],
      "stateMutability": "nonpayable",
      "type": "function"
    },
    {
      "inputs": [],
      "name": "numWeeks",
      "outputs": [
        {
          "internalType": "uint256",
          "name": "",
          "type": "uint256"
        }
      ],
      "stateMutability": "view",
      "type": "function"
    },
    {
      "inputs": [],
      "name": "onLeagueEnd",
      "outputs": [],
      "stateMutability": "nonpayable",
      "type": "function"
    },
    {
      "inputs": [],
      "name": "owner",
      "outputs": [
        {
          "internalType": "address",
          "name": "",
          "type": "address"
        }
      ],
      "stateMutability": "view",
      "type": "function"
    },
    {
      "inputs": [],
      "name": "polygonUSDCAddress",
      "outputs": [
        {
          "internalType": "address",
          "name": "",
          "type": "address"
        }
      ],
      "stateMutability": "view",
      "type": "function"
    },
    {
      "inputs": [
        {
          "internalType": "address",
          "name": "addr",
          "type": "address"
        }
      ],
      "name": "removeAddressFromWhitelist",
      "outputs": [
        {
          "internalType": "bool",
          "name": "success",
          "type": "bool"
        }
      ],
      "stateMutability": "nonpayable",
      "type": "function"
    },
    {
      "inputs": [
        {
          "internalType": "address[]",
          "name": "addrs",
          "type": "address[]"
        }
      ],
      "name": "removeAddressesFromWhitelist",
      "outputs": [
        {
          "internalType": "bool",
          "name": "success",
          "type": "bool"
        }
      ],
      "stateMutability": "nonpayable",
      "type": "function"
    },
    {
      "inputs": [
        {
          "internalType": "address",
          "name": "_userToRemove",
          "type": "address"
        }
      ],
      "name": "removeFromLeague",
      "outputs": [],
      "stateMutability": "nonpayable",
      "type": "function"
    },
    {
      "inputs": [],
      "name": "renounceOwnership",
      "outputs": [],
      "stateMutability": "nonpayable",
      "type": "function"
    },
    {
      "inputs": [
        {
          "internalType": "bytes32",
          "name": "role",
          "type": "bytes32"
        },
        {
          "internalType": "address",
          "name": "account",
          "type": "address"
        }
      ],
      "name": "renounceRole",
      "outputs": [],
      "stateMutability": "nonpayable",
      "type": "function"
    },
    {
      "inputs": [
        {
          "internalType": "bytes32",
          "name": "role",
          "type": "bytes32"
        },
        {
          "internalType": "address",
          "name": "account",
          "type": "address"
        }
      ],
      "name": "revokeRole",
      "outputs": [],
      "stateMutability": "nonpayable",
      "type": "function"
    },
    {
      "inputs": [],
      "name": "rinkebyUSDCAddress",
      "outputs": [
        {
          "internalType": "address",
          "name": "",
          "type": "address"
        }
      ],
      "stateMutability": "view",
      "type": "function"
    },
    {
      "inputs": [],
      "name": "setLeagueEntryIsClosed",
      "outputs": [],
      "stateMutability": "nonpayable",
      "type": "function"
    },
    {
      "inputs": [],
      "name": "setLeagueSchedule",
      "outputs": [],
      "stateMutability": "nonpayable",
      "type": "function"
    },
    {
      "inputs": [
        {
          "internalType": "uint256[]",
          "name": "athleteIds",
          "type": "uint256[]"
        }
      ],
      "name": "setLineup",
      "outputs": [],
      "stateMutability": "nonpayable",
      "type": "function"
    },
    {
      "inputs": [],
      "name": "stakeAmount",
      "outputs": [
        {
          "internalType": "uint256",
          "name": "",
          "type": "uint256"
        }
      ],
      "stateMutability": "view",
      "type": "function"
    },
    {
      "inputs": [
        {
          "internalType": "bytes4",
          "name": "interfaceId",
          "type": "bytes4"
        }
      ],
      "name": "supportsInterface",
      "outputs": [
        {
          "internalType": "bool",
          "name": "",
          "type": "bool"
        }
      ],
      "stateMutability": "view",
      "type": "function"
    },
    {
      "inputs": [
        {
          "internalType": "address",
          "name": "newOwner",
          "type": "address"
        }
      ],
      "name": "transferOwnership",
      "outputs": [],
      "stateMutability": "nonpayable",
      "type": "function"
    },
    {
      "inputs": [],
      "name": "unlockLineup",
      "outputs": [],
      "stateMutability": "nonpayable",
      "type": "function"
    },
    {
      "inputs": [
        {
          "internalType": "address",
          "name": "",
          "type": "address"
        },
        {
          "internalType": "uint256",
          "name": "",
          "type": "uint256"
        }
      ],
      "name": "userToRecord",
      "outputs": [
        {
          "internalType": "uint256",
          "name": "",
          "type": "uint256"
        }
      ],
      "stateMutability": "view",
      "type": "function"
    },
    {
      "inputs": [
        {
          "internalType": "address",
          "name": "",
          "type": "address"
        }
      ],
      "name": "whitelist",
      "outputs": [
        {
          "internalType": "bool",
          "name": "",
          "type": "bool"
        }
      ],
      "stateMutability": "view",
      "type": "function"
    }
  ],
  "bytecode": "0x60806040523480156200001157600080fd5b5062000032620000266200003860201b60201c565b6200004060201b60201c565b62000105565b600033905090565b60008060029054906101000a900473ffffffffffffffffffffffffffffffffffffffff16905081600060026101000a81548173ffffffffffffffffffffffffffffffffffffffff021916908373ffffffffffffffffffffffffffffffffffffffff1602179055508173ffffffffffffffffffffffffffffffffffffffff168173ffffffffffffffffffffffffffffffffffffffff167f8be0079c531659141344cd1fd0a4f28419497f9722a3daafe3b4186f6b6457e060405160405180910390a35050565b615cb980620001156000396000f3fe60806040523480156200001157600080fd5b5060043610620003395760003560e01c8063722580b611620001c5578063a217fddf11620000ff578063d547741f11620000b1578063e4c9066b1162000087578063e4c9066b14620009b0578063f2fde38b14620009bc578063f612121a14620009dc578063f881604514620009fc5762000339565b8063d547741f1462000938578063dc9a15351462000958578063e2ec6ec3146200097a5762000339565b8063a217fddf14620008ae578063a2bc091a14620008d0578063ada3a28d14620008dc578063c8be3b5b14620008fe578063c99fea94146200090a578063cdbba4c614620009165762000339565b8063853976dd116200017757806391d14854116200014d57806391d1485414620007fe57806393f3706c146200083457806399a6003414620008565780639b19251a14620008785762000339565b8063853976dd14620007845780638caec7a814620007ba5780638da5cb5b14620007dc5762000339565b8063722580b614620006bc578063747b805014620006de5780637b9417c814620006fe5780637eed33f11462000734578063841abf6e146200075657806385334ffa14620007785762000339565b80632f2ff15d11620002975780635d514d69116200024957806360c7dc47116200021f57806360c7dc47146200064a5780636bdc44df146200066c5780636e9960c3146200068e578063715018a614620006b05762000339565b80635d514d6914620005e65780635ec0b4f714620006065780635fcc698714620006285762000339565b80632f2ff15d146200051e57806336568abe146200053e5780633cfd1ccc146200055e578063403570c5146200058057806352e6e5f314620005a2578063595b1a3e14620005c45762000339565b80630d8e6e2c11620002f15780630d8e6e2c14620004185780631d803e00146200043a578063248a9ca3146200044657806324953eaa146200047c578063267175db14620004b2578063286dd3f514620004e85762000339565b8062b2476f146200033e57806301ffc9a714620003605780630655465a146200039657806306d60c2414620003a2578063087e18a714620003c25780630c6f795914620003e2575b600080fd5b6200034862000a1e565b60405162000357919062004069565b60405180910390f35b6200037e600480360381019062000378919062003996565b62000a44565b6040516200038d9190620041ce565b60405180910390f35b620003a062000ac1565b005b620003c06004803603810190620003ba919062003757565b62000bfc565b005b620003e06004803603810190620003da919062003757565b62000d99565b005b620004006004803603810190620003fa919062003802565b62000fa0565b6040516200040f91906200441f565b60405180910390f35b6200042262000fc9565b6040516200043191906200441f565b60405180910390f35b6200044462000fce565b005b6200046460048036038101906200045e91906200391d565b62001270565b604051620004739190620041eb565b60405180910390f35b6200049a600480360381019062000494919062003849565b62001290565b604051620004a99190620041ce565b60405180910390f35b620004d06004803603810190620004ca919062003ae2565b6200138d565b604051620004df919062004069565b60405180910390f35b62000506600480360381019062000500919062003757565b620013cd565b604051620005159190620041ce565b60405180910390f35b6200053c60048036038101906200053691906200394f565b6200155c565b005b6200055c60048036038101906200055691906200394f565b6200158d565b005b6200056862001617565b6040516200057791906200441f565b60405180910390f35b6200058a620016cf565b604051620005999190620042c9565b60405180910390f35b620005ac62001769565b604051620005bb91906200441f565b60405180910390f35b620005ce6200176f565b604051620005dd91906200441f565b60405180910390f35b620006046004803603810190620005fe9190620039c8565b6200177c565b005b6200061062001b8b565b6040516200061f91906200441f565b60405180910390f35b6200063262001b95565b6040516200064191906200441f565b60405180910390f35b6200065462001c4d565b6040516200066391906200441f565b60405180910390f35b6200067662001c53565b6040516200068591906200441f565b60405180910390f35b6200069862001c9a565b604051620006a7919062004069565b60405180910390f35b620006ba62001cc4565b005b620006c662001d55565b604051620006d591906200441f565b60405180910390f35b620006fc6004803603810190620006f6919062003757565b62001d5f565b005b6200071c600480360381019062000716919062003757565b62001ea9565b6040516200072b9190620041ce565b60405180910390f35b6200073e62002037565b6040516200074d91906200441f565b60405180910390f35b620007606200203d565b6040516200076f9190620042c9565b60405180910390f35b62000782620020d3565b005b620007a260048036038101906200079c9190620037bb565b620021f5565b604051620007b1919062004069565b60405180910390f35b620007c46200233c565b604051620007d3919062004069565b60405180910390f35b620007e662002366565b604051620007f5919062004069565b60405180910390f35b6200081c60048036038101906200081691906200394f565b6200238f565b6040516200082b9190620041ce565b60405180910390f35b6200083e620023fa565b6040516200084d919062004069565b60405180910390f35b6200086062002420565b6040516200086f91906200441f565b60405180910390f35b62000896600480360381019062000890919062003757565b6200243c565b604051620008a59190620041ce565b60405180910390f35b620008b86200245c565b604051620008c79190620041eb565b60405180910390f35b620008da62002463565b005b620008e662002503565b604051620008f59190620041aa565b60405180910390f35b620009086200259a565b005b620009146200263a565b005b6200092062002858565b6040516200092f919062004069565b60405180910390f35b6200095660048036038101906200095091906200394f565b62002882565b005b62000962620028b3565b604051620009719190620041ce565b60405180910390f35b62000998600480360381019062000992919062003849565b620028c6565b604051620009a79190620041ce565b60405180910390f35b620009ba620029c3565b005b620009da6004803603810190620009d4919062003757565b62002a63565b005b620009fa6004803603810190620009f491906200389a565b62002b67565b005b62000a0662002c13565b60405162000a1591906200418c565b60405180910390f35b601060009054906101000a900473ffffffffffffffffffffffffffffffffffffffff1681565b60007f7965db0b000000000000000000000000000000000000000000000000000000007bffffffffffffffffffffffffffffffffffffffffffffffffffffffff1916827bffffffffffffffffffffffffffffffffffffffffffffffffffffffff1916148062000aba575062000ab98262002c9f565b5b9050919050565b62000acb62002d09565b73ffffffffffffffffffffffffffffffffffffffff1662000aeb62002366565b73ffffffffffffffffffffffffffffffffffffffff161462000b44576040517f08c379a000000000000000000000000000000000000000000000000000000000815260040162000b3b9062004375565b60405180910390fd5b62000b846040518060400160405280601081526020017f73657474696e67207363686564756c650000000000000000000000000000000081525062002d11565b73__$36fdb4e0c2cb91f3ceca5ea81b025328f3$__63d2c232b5600e600960065460056040518563ffffffff1660e01b815260040162000bc8949392919062004208565b60006040518083038186803b15801562000be157600080fd5b505af415801562000bf6573d6000803e3d6000fd5b50505050565b600a60009054906101000a900473ffffffffffffffffffffffffffffffffffffffff1673ffffffffffffffffffffffffffffffffffffffff163373ffffffffffffffffffffffffffffffffffffffff161462000c8f576040517f08c379a000000000000000000000000000000000000000000000000000000000815260040162000c869062004397565b60405180910390fd5b600a60149054906101000a900460ff161562000ce2576040517f08c379a000000000000000000000000000000000000000000000000000000000815260040162000cd990620043b9565b60405180910390fd5b601260009054906101000a900473ffffffffffffffffffffffffffffffffffffffff1673ffffffffffffffffffffffffffffffffffffffff1663286dd3f5826040518263ffffffff1660e01b815260040162000d3f919062004069565b602060405180830381600087803b15801562000d5a57600080fd5b505af115801562000d6f573d6000803e3d6000fd5b505050506040513d601f19601f8201168201806040525081019062000d959190620038eb565b5050565b62000da362002d09565b73ffffffffffffffffffffffffffffffffffffffff1662000dc362002366565b73ffffffffffffffffffffffffffffffffffffffff161462000e1c576040517f08c379a000000000000000000000000000000000000000000000000000000000815260040162000e139062004375565b60405180910390fd5b600a60149054906101000a900460ff161562000e6f576040517f08c379a000000000000000000000000000000000000000000000000000000000815260040162000e6690620043db565b60405180910390fd5b6008600980549050101562000f78576009819080600181540180825580915050600190039060005260206000200160009091909190916101000a81548173ffffffffffffffffffffffffffffffffffffffff021916908373ffffffffffffffffffffffffffffffffffffffff160217905550601360009054906101000a900473ffffffffffffffffffffffffffffffffffffffff1673ffffffffffffffffffffffffffffffffffffffff1663771bd4ce826040518263ffffffff1660e01b815260040162000f3e919062004069565b600060405180830381600087803b15801562000f5957600080fd5b505af115801562000f6e573d6000803e3d6000fd5b5050505062000f9d565b62000f9c60405180606001604052806029815260200162005c5b6029913962002d11565b5b50565b600c602052816000526040600020816008811062000fbd57600080fd5b01600091509150505481565b600090565b600a60009054906101000a900473ffffffffffffffffffffffffffffffffffffffff1673ffffffffffffffffffffffffffffffffffffffff163373ffffffffffffffffffffffffffffffffffffffff161462001061576040517f08c379a0000000000000000000000000000000000000000000000000000000008152600401620010589062004397565b60405180910390fd5b600060098054905060085462001078919062004611565b9050600080600090505b600980549050811015620011b357600b60008373ffffffffffffffffffffffffffffffffffffffff1673ffffffffffffffffffffffffffffffffffffffff16815260200190815260200160002054600b600060098481548110620010eb57620010ea6200490e565b5b9060005260206000200160009054906101000a900473ffffffffffffffffffffffffffffffffffffffff1673ffffffffffffffffffffffffffffffffffffffff1673ffffffffffffffffffffffffffffffffffffffff1681526020019081526020016000205411156200119d57600981815481106200116f576200116e6200490e565b5b9060005260206000200160009054906101000a900473ffffffffffffffffffffffffffffffffffffffff1691505b8080620011aa9062004862565b91505062001082565b50601460009054906101000a900473ffffffffffffffffffffffffffffffffffffffff1673ffffffffffffffffffffffffffffffffffffffff166323b872dd3330856040518463ffffffff1660e01b8152600401620012159392919062004086565b602060405180830381600087803b1580156200123057600080fd5b505af115801562001245573d6000803e3d6000fd5b505050506040513d601f19601f820116820180604052508101906200126b9190620038eb565b505050565b600060016000838152602001908152602001600020600101549050919050565b60006200129c62002d09565b73ffffffffffffffffffffffffffffffffffffffff16620012bc62002366565b73ffffffffffffffffffffffffffffffffffffffff161462001315576040517f08c379a00000000000000000000000000000000000000000000000000000000081526004016200130c9062004375565b60405180910390fd5b60005b825181101562001387576200134a8382815181106200133c576200133b6200490e565b5b6020026020010151620013cd565b15620013715760016003600082825462001365919062004672565b92505081905550600191505b80806200137e9062004862565b91505062001318565b50919050565b600981815481106200139e57600080fd5b906000526020600020016000915054906101000a900473ffffffffffffffffffffffffffffffffffffffff1681565b6000620013d962002d09565b73ffffffffffffffffffffffffffffffffffffffff16620013f962002366565b73ffffffffffffffffffffffffffffffffffffffff161462001452576040517f08c379a0000000000000000000000000000000000000000000000000000000008152600401620014499062004375565b60405180910390fd5b600260008373ffffffffffffffffffffffffffffffffffffffff1673ffffffffffffffffffffffffffffffffffffffff16815260200190815260200160002060009054906101000a900460ff161562001557576000600260008473ffffffffffffffffffffffffffffffffffffffff1673ffffffffffffffffffffffffffffffffffffffff16815260200190815260200160002060006101000a81548160ff0219169083151502179055507ff1abf01a1043b7c244d128e8595cf0c1d10743b022b03a02dffd8ca3bf729f5a826040516200152e919062004069565b60405180910390a16001600360008282546200154b919062004672565b92505081905550600190505b919050565b620015678262001270565b6200157c816200157662002d09565b62002dae565b62001588838362002e56565b505050565b6200159762002d09565b73ffffffffffffffffffffffffffffffffffffffff168173ffffffffffffffffffffffffffffffffffffffff161462001607576040517f08c379a0000000000000000000000000000000000000000000000000000000008152600401620015fe90620043fd565b60405180910390fd5b62001613828262002f3b565b5050565b6000601460009054906101000a900473ffffffffffffffffffffffffffffffffffffffff1673ffffffffffffffffffffffffffffffffffffffff166370a08231306040518263ffffffff1660e01b815260040162001676919062004069565b60206040518083038186803b1580156200168f57600080fd5b505afa158015620016a4573d6000803e3d6000fd5b505050506040513d601f19601f82011682018060405250810190620016ca919062003b14565b905090565b606060058054620016e090620047d8565b80601f01602080910402602001604051908101604052809291908181526020018280546200170e90620047d8565b80156200175f5780601f1062001733576101008083540402835291602001916200175f565b820191906000526020600020905b8154815290600101906020018083116200174157829003601f168201915b5050505050905090565b60075481565b6000600980549050905090565b600060019054906101000a900460ff16620017a65760008054906101000a900460ff1615620017b1565b620017b062003022565b5b620017f3576040517f08c379a0000000000000000000000000000000000000000000000000000000008152600401620017ea9062004353565b60405180910390fd5b60008060019054906101000a900460ff16159050801562001844576001600060016101000a81548160ff02191690831515021790555060016000806101000a81548160ff0219169083151502179055505b8b8b6005919062001857929190620033b1565b5060086006819055506200186f6000801b8762003035565b6009869080600181540180825580915050600190039060005260206000200160009091909190916101000a81548173ffffffffffffffffffffffffffffffffffffffff021916908373ffffffffffffffffffffffffffffffffffffffff16021790555085600a60006101000a81548173ffffffffffffffffffffffffffffffffffffffff021916908373ffffffffffffffffffffffffffffffffffffffff1602179055508860088190555087600460006101000a81548160ff0219169083151502179055506000600a60156101000a81548160ff0219169083151502179055506000600a60146101000a81548160ff02191690831515021790555086601160006101000a81548173ffffffffffffffffffffffffffffffffffffffff021916908373ffffffffffffffffffffffffffffffffffffffff16021790555081601360006101000a81548173ffffffffffffffffffffffffffffffffffffffff021916908373ffffffffffffffffffffffffffffffffffffffff160217905550604051620019fa9062003442565b604051809103906000f08015801562001a17573d6000803e3d6000fd5b50601260006101000a81548173ffffffffffffffffffffffffffffffffffffffff021916908373ffffffffffffffffffffffffffffffffffffffff16021790555084600f60006101000a81548173ffffffffffffffffffffffffffffffffffffffff021916908373ffffffffffffffffffffffffffffffffffffffff16021790555083601060006101000a81548173ffffffffffffffffffffffffffffffffffffffff021916908373ffffffffffffffffffffffffffffffffffffffff16021790555082601460006101000a81548173ffffffffffffffffffffffffffffffffffffffff021916908373ffffffffffffffffffffffffffffffffffffffff16021790555062001b5b6040518060400160405280601281526020017f50726f787920696e697469616c697a656421000000000000000000000000000081525062002d11565b801562001b7d5760008060016101000a81548160ff0219169083151502179055505b505050505050505050505050565b6000600754905090565b6000601460009054906101000a900473ffffffffffffffffffffffffffffffffffffffff1673ffffffffffffffffffffffffffffffffffffffff166370a08231336040518263ffffffff1660e01b815260040162001bf4919062004069565b60206040518083038186803b15801562001c0d57600080fd5b505afa15801562001c22573d6000803e3d6000fd5b505050506040513d601f19601f8201168201806040525081019062001c48919062003b14565b905090565b60085481565b6000600b60003373ffffffffffffffffffffffffffffffffffffffff1673ffffffffffffffffffffffffffffffffffffffff16815260200190815260200160002054905090565b6000600a60009054906101000a900473ffffffffffffffffffffffffffffffffffffffff16905090565b62001cce62002d09565b73ffffffffffffffffffffffffffffffffffffffff1662001cee62002366565b73ffffffffffffffffffffffffffffffffffffffff161462001d47576040517f08c379a000000000000000000000000000000000000000000000000000000000815260040162001d3e9062004375565b60405180910390fd5b62001d53600062003045565b565b6000600854905090565b600a60009054906101000a900473ffffffffffffffffffffffffffffffffffffffff1673ffffffffffffffffffffffffffffffffffffffff163373ffffffffffffffffffffffffffffffffffffffff161462001df2576040517f08c379a000000000000000000000000000000000000000000000000000000000815260040162001de99062004397565b60405180910390fd5b601260009054906101000a900473ffffffffffffffffffffffffffffffffffffffff1673ffffffffffffffffffffffffffffffffffffffff16637b9417c8826040518263ffffffff1660e01b815260040162001e4f919062004069565b602060405180830381600087803b15801562001e6a57600080fd5b505af115801562001e7f573d6000803e3d6000fd5b505050506040513d601f19601f8201168201806040525081019062001ea59190620038eb565b5050565b600062001eb562002d09565b73ffffffffffffffffffffffffffffffffffffffff1662001ed562002366565b73ffffffffffffffffffffffffffffffffffffffff161462001f2e576040517f08c379a000000000000000000000000000000000000000000000000000000000815260040162001f259062004375565b60405180910390fd5b600260008373ffffffffffffffffffffffffffffffffffffffff1673ffffffffffffffffffffffffffffffffffffffff16815260200190815260200160002060009054906101000a900460ff1662002032576001600260008473ffffffffffffffffffffffffffffffffffffffff1673ffffffffffffffffffffffffffffffffffffffff16815260200190815260200160002060006101000a81548160ff0219169083151502179055507fd1bba68c128cc3f427e5831b3c6f99f480b6efa6b9e80c757768f6124158cc3f8260405162002009919062004069565b60405180910390a1600160036000828254620020269190620045b4565b92505081905550600190505b919050565b60065481565b600580546200204c90620047d8565b80601f01602080910402602001604051908101604052809291908181526020018280546200207a90620047d8565b8015620020cb5780601f106200209f57610100808354040283529160200191620020cb565b820191906000526020600020905b815481529060010190602001808311620020ad57829003601f168201915b505050505081565b620020dd62002d09565b73ffffffffffffffffffffffffffffffffffffffff16620020fd62002366565b73ffffffffffffffffffffffffffffffffffffffff161462002156576040517f08c379a00000000000000000000000000000000000000000000000000000000081526004016200214d9062004375565b60405180910390fd5b73__$36fdb4e0c2cb91f3ceca5ea81b025328f3$__63c406e268600e600754601160009054906101000a900473ffffffffffffffffffffffffffffffffffffffff16600c600b600d6040518763ffffffff1660e01b8152600401620021c1969594939291906200425c565b60006040518083038186803b158015620021da57600080fd5b505af4158015620021ef573d6000803e3d6000fd5b50505050565b600073__$36fdb4e0c2cb91f3ceca5ea81b025328f3$__63fb0841fb8484600754601160009054906101000a900473ffffffffffffffffffffffffffffffffffffffff16600d60008a73ffffffffffffffffffffffffffffffffffffffff1673ffffffffffffffffffffffffffffffffffffffff168152602001908152602001600020600d60008a73ffffffffffffffffffffffffffffffffffffffff1673ffffffffffffffffffffffffffffffffffffffff168152602001908152602001600020600c600b6040518963ffffffff1660e01b8152600401620022e0989796959493929190620040c3565b60206040518083038186803b158015620022f957600080fd5b505af41580156200230e573d6000803e3d6000fd5b505050506040513d601f19601f8201168201806040525081019062002334919062003789565b905092915050565b6000601160009054906101000a900473ffffffffffffffffffffffffffffffffffffffff16905090565b60008060029054906101000a900473ffffffffffffffffffffffffffffffffffffffff16905090565b60006001600084815260200190815260200160002060000160008373ffffffffffffffffffffffffffffffffffffffff1673ffffffffffffffffffffffffffffffffffffffff16815260200190815260200160002060009054906101000a900460ff16905092915050565b600f60009054906101000a900473ffffffffffffffffffffffffffffffffffffffff1681565b600060098054905060085462002437919062004611565b905090565b60026020528060005260406000206000915054906101000a900460ff1681565b6000801b81565b6200246d62002d09565b73ffffffffffffffffffffffffffffffffffffffff166200248d62002366565b73ffffffffffffffffffffffffffffffffffffffff1614620024e6576040517f08c379a0000000000000000000000000000000000000000000000000000000008152600401620024dd9062004375565b60405180910390fd5b6000600a60156101000a81548160ff021916908315150217905550565b6060600d60003373ffffffffffffffffffffffffffffffffffffffff1673ffffffffffffffffffffffffffffffffffffffff1681526020019081526020016000208054806020026020016040519081016040528092919081815260200182805480156200259057602002820191906000526020600020905b8154815260200190600101908083116200257b575b5050505050905090565b620025a462002d09565b73ffffffffffffffffffffffffffffffffffffffff16620025c462002366565b73ffffffffffffffffffffffffffffffffffffffff16146200261d576040517f08c379a0000000000000000000000000000000000000000000000000000000008152600401620026149062004375565b60405180910390fd5b6001600a60156101000a81548160ff021916908315150217905550565b600260003373ffffffffffffffffffffffffffffffffffffffff1673ffffffffffffffffffffffffffffffffffffffff16815260200190815260200160002060009054906101000a900460ff16806200269f5750600460009054906101000a900460ff165b620026a957600080fd5b600a60149054906101000a900460ff1615620026fc576040517f08c379a0000000000000000000000000000000000000000000000000000000008152600401620026f390620043db565b60405180910390fd5b6009339080600181540180825580915050600190039060005260206000200160009091909190916101000a81548173ffffffffffffffffffffffffffffffffffffffff021916908373ffffffffffffffffffffffffffffffffffffffff160217905550601460009054906101000a900473ffffffffffffffffffffffffffffffffffffffff1673ffffffffffffffffffffffffffffffffffffffff166323b872dd33306008546040518463ffffffff1660e01b8152600401620027c29392919062004086565b602060405180830381600087803b158015620027dd57600080fd5b505af1158015620027f2573d6000803e3d6000fd5b505050506040513d601f19601f82011682018060405250810190620028189190620038eb565b507f9e71bc8eea02a63969f509818f2dafb9254532904319f9dbda79b67bd34a5f3d336008546040516200284e9291906200415f565b60405180910390a1565b6000601460009054906101000a900473ffffffffffffffffffffffffffffffffffffffff16905090565b6200288d8262001270565b620028a2816200289c62002d09565b62002dae565b620028ae838362002f3b565b505050565b600460009054906101000a900460ff1681565b6000620028d262002d09565b73ffffffffffffffffffffffffffffffffffffffff16620028f262002366565b73ffffffffffffffffffffffffffffffffffffffff16146200294b576040517f08c379a0000000000000000000000000000000000000000000000000000000008152600401620029429062004375565b60405180910390fd5b60005b8251811015620029bd57620029808382815181106200297257620029716200490e565b5b602002602001015162001ea9565b15620029a7576001600360008282546200299b9190620045b4565b92505081905550600191505b8080620029b49062004862565b9150506200294e565b50919050565b620029cd62002d09565b73ffffffffffffffffffffffffffffffffffffffff16620029ed62002366565b73ffffffffffffffffffffffffffffffffffffffff161462002a46576040517f08c379a000000000000000000000000000000000000000000000000000000000815260040162002a3d9062004375565b60405180910390fd5b6001600a60146101000a81548160ff021916908315150217905550565b62002a6d62002d09565b73ffffffffffffffffffffffffffffffffffffffff1662002a8d62002366565b73ffffffffffffffffffffffffffffffffffffffff161462002ae6576040517f08c379a000000000000000000000000000000000000000000000000000000000815260040162002add9062004375565b60405180910390fd5b600073ffffffffffffffffffffffffffffffffffffffff168173ffffffffffffffffffffffffffffffffffffffff16141562002b59576040517f08c379a000000000000000000000000000000000000000000000000000000000815260040162002b50906200430f565b60405180910390fd5b62002b648162003045565b50565b600a60159054906101000a900460ff161562002bba576040517f08c379a000000000000000000000000000000000000000000000000000000000815260040162002bb19062004331565b60405180910390fd5b80600d60003373ffffffffffffffffffffffffffffffffffffffff1673ffffffffffffffffffffffffffffffffffffffff168152602001908152602001600020908051906020019062002c0f92919062003450565b5050565b62002c1d620034a2565b600c60003373ffffffffffffffffffffffffffffffffffffffff1673ffffffffffffffffffffffffffffffffffffffff16815260200190815260200160002060088060200260405190810160405280929190826008801562002c95576020028201915b81548152602001906001019080831162002c80575b5050505050905090565b60007f01ffc9a7000000000000000000000000000000000000000000000000000000007bffffffffffffffffffffffffffffffffffffffffffffffffffffffff1916827bffffffffffffffffffffffffffffffffffffffffffffffffffffffff1916149050919050565b600033905090565b62002dab8160405160240162002d289190620042c9565b6040516020818303038152906040527f41304fac000000000000000000000000000000000000000000000000000000007bffffffffffffffffffffffffffffffffffffffffffffffffffffffff19166020820180517bffffffffffffffffffffffffffffffffffffffffffffffffffffffff83818316178352505050506200310a565b50565b62002dba82826200238f565b62002e525762002de28173ffffffffffffffffffffffffffffffffffffffff16601462003133565b62002df28360001c602062003133565b60405160200162002e0592919062004027565b6040516020818303038152906040526040517f08c379a000000000000000000000000000000000000000000000000000000000815260040162002e499190620042c9565b60405180910390fd5b5050565b62002e6282826200238f565b62002f3757600180600084815260200190815260200160002060000160008373ffffffffffffffffffffffffffffffffffffffff1673ffffffffffffffffffffffffffffffffffffffff16815260200190815260200160002060006101000a81548160ff02191690831515021790555062002edc62002d09565b73ffffffffffffffffffffffffffffffffffffffff168173ffffffffffffffffffffffffffffffffffffffff16837f2f8788117e7eff1d82e926ec794901d17c78024a50270940304540a733656f0d60405160405180910390a45b5050565b62002f4782826200238f565b156200301e5760006001600084815260200190815260200160002060000160008373ffffffffffffffffffffffffffffffffffffffff1673ffffffffffffffffffffffffffffffffffffffff16815260200190815260200160002060006101000a81548160ff02191690831515021790555062002fc362002d09565b73ffffffffffffffffffffffffffffffffffffffff168173ffffffffffffffffffffffffffffffffffffffff16837ff6391f5c32d9c69d2a47ea670b442974b53935d1edc7fd64eb21e047a839171b60405160405180910390a45b5050565b60006200302f306200338e565b15905090565b62003041828262002e56565b5050565b60008060029054906101000a900473ffffffffffffffffffffffffffffffffffffffff16905081600060026101000a81548173ffffffffffffffffffffffffffffffffffffffff021916908373ffffffffffffffffffffffffffffffffffffffff1602179055508173ffffffffffffffffffffffffffffffffffffffff168173ffffffffffffffffffffffffffffffffffffffff167f8be0079c531659141344cd1fd0a4f28419497f9722a3daafe3b4186f6b6457e060405160405180910390a35050565b60008151905060006a636f6e736f6c652e6c6f679050602083016000808483855afa5050505050565b60606000600283600262003148919062004611565b620031549190620045b4565b67ffffffffffffffff81111562003170576200316f6200493d565b5b6040519080825280601f01601f191660200182016040528015620031a35781602001600182028036833780820191505090505b5090507f300000000000000000000000000000000000000000000000000000000000000081600081518110620031de57620031dd6200490e565b5b60200101907effffffffffffffffffffffffffffffffffffffffffffffffffffffffffffff1916908160001a9053507f7800000000000000000000000000000000000000000000000000000000000000816001815181106200324557620032446200490e565b5b60200101907effffffffffffffffffffffffffffffffffffffffffffffffffffffffffffff1916908160001a9053506000600184600262003287919062004611565b620032939190620045b4565b90505b60018111156200333d577f3031323334353637383961626364656600000000000000000000000000000000600f861660108110620032d957620032d86200490e565b5b1a60f81b828281518110620032f357620032f26200490e565b5b60200101907effffffffffffffffffffffffffffffffffffffffffffffffffffffffffffff1916908160001a905350600485901c9450806200333590620047a9565b905062003296565b506000841462003384576040517f08c379a00000000000000000000000000000000000000000000000000000000081526004016200337b90620042ed565b60405180910390fd5b8091505092915050565b6000808273ffffffffffffffffffffffffffffffffffffffff163b119050919050565b828054620033bf90620047d8565b90600052602060002090601f016020900481019282620033e357600085556200342f565b82601f10620033fe57803560ff19168380011785556200342f565b828001600101855582156200342f579182015b828111156200342e57823582559160200191906001019062003411565b5b5090506200343e9190620034c5565b5090565b610f9f8062004cbc83390190565b8280548282559060005260206000209081019282156200348f579160200282015b828111156200348e57825182559160200191906001019062003471565b5b5090506200349e9190620034c5565b5090565b604051806101000160405280600890602082028036833780820191505090505090565b5b80821115620034e0576000816000905550600101620034c6565b5090565b6000620034fb620034f58462004465565b6200443c565b905080838252602082019050828560208602820111156200352157620035206200498b565b5b60005b858110156200355557816200353a8882620035da565b84526020840193506020830192505060018101905062003524565b5050509392505050565b600062003576620035708462004494565b6200443c565b905080838252602082019050828560208602820111156200359c576200359b6200498b565b5b60005b85811015620035d05781620035b5888262003729565b8452602084019350602083019250506001810190506200359f565b5050509392505050565b600081359050620035eb8162004c39565b92915050565b600081519050620036028162004c39565b92915050565b600082601f83011262003620576200361f62004986565b5b813562003632848260208601620034e4565b91505092915050565b600082601f83011262003653576200365262004986565b5b8135620036658482602086016200355f565b91505092915050565b6000813590506200367f8162004c53565b92915050565b600081519050620036968162004c53565b92915050565b600081359050620036ad8162004c6d565b92915050565b600081359050620036c48162004c87565b92915050565b60008083601f840112620036e357620036e262004986565b5b8235905067ffffffffffffffff81111562003703576200370262004981565b5b6020830191508360018202830111156200372257620037216200498b565b5b9250929050565b6000813590506200373a8162004ca1565b92915050565b600081519050620037518162004ca1565b92915050565b60006020828403121562003770576200376f62004995565b5b60006200378084828501620035da565b91505092915050565b600060208284031215620037a257620037a162004995565b5b6000620037b284828501620035f1565b91505092915050565b60008060408385031215620037d557620037d462004995565b5b6000620037e585828601620035da565b9250506020620037f885828601620035da565b9150509250929050565b600080604083850312156200381c576200381b62004995565b5b60006200382c85828601620035da565b92505060206200383f8582860162003729565b9150509250929050565b60006020828403121562003862576200386162004995565b5b600082013567ffffffffffffffff81111562003883576200388262004990565b5b620038918482850162003608565b91505092915050565b600060208284031215620038b357620038b262004995565b5b600082013567ffffffffffffffff811115620038d457620038d362004990565b5b620038e2848285016200363b565b91505092915050565b60006020828403121562003904576200390362004995565b5b6000620039148482850162003685565b91505092915050565b60006020828403121562003936576200393562004995565b5b600062003946848285016200369c565b91505092915050565b6000806040838503121562003969576200396862004995565b5b600062003979858286016200369c565b92505060206200398c85828601620035da565b9150509250929050565b600060208284031215620039af57620039ae62004995565b5b6000620039bf84828501620036b3565b91505092915050565b60008060008060008060008060008060006101408c8e031215620039f157620039f062004995565b5b60008c013567ffffffffffffffff81111562003a125762003a1162004990565b5b62003a208e828f01620036ca565b9b509b5050602062003a358e828f0162003729565b995050604062003a488e828f0162003729565b985050606062003a5b8e828f016200366e565b975050608062003a6e8e828f01620035da565b96505060a062003a818e828f01620035da565b95505060c062003a948e828f01620035da565b94505060e062003aa78e828f01620035da565b93505061010062003abb8e828f01620035da565b92505061012062003acf8e828f01620035da565b9150509295989b509295989b9093969950565b60006020828403121562003afb5762003afa62004995565b5b600062003b0b8482850162003729565b91505092915050565b60006020828403121562003b2d5762003b2c62004995565b5b600062003b3d8482850162003740565b91505092915050565b600062003b54838362003fe3565b60208301905092915050565b600062003b6e838362004016565b60208301905092915050565b62003b8581620046b7565b82525050565b62003b9681620046b7565b82525050565b8082525050565b62003bae8162004507565b62003bba81846200455a565b925062003bc782620044c3565b8060005b8381101562003bfe57815162003be2878262003b46565b965062003bef8362004533565b92505060018101905062003bcb565b505050505050565b600062003c138262004512565b62003c1f818562004565565b935062003c2c83620044cd565b8060005b8381101562003c6357815162003c47888262003b46565b975062003c548362004540565b92505060018101905062003c30565b5085935050505092915050565b600062003c7d826200451d565b62003c89818562004576565b935062003c9683620044dd565b8060005b8381101562003cd65762003cae826200496c565b62003cba888262003b60565b975062003cc7836200454d565b92505060018101905062003c9a565b5085935050505092915050565b62003cee81620046cb565b82525050565b62003cff81620046d7565b82525050565b62003d108162004737565b82525050565b8082525050565b8082525050565b8082525050565b8082525050565b600062003d3f8262004528565b62003d4b818562004587565b935062003d5d81856020860162004773565b62003d68816200499a565b840191505092915050565b600062003d808262004528565b62003d8c8185620045a9565b935062003d9e81856020860162004773565b80840191505092915050565b6000815462003db981620047d8565b62003dc5818662004598565b9450600182166000811462003de3576001811462003df65762003e2d565b60ff198316865260208601935062003e2d565b62003e0185620044f2565b60005b8381101562003e255781548189015260018201915060208101905062003e04565b808801955050505b50505092915050565b600062003e4560208362004587565b915062003e5282620049b8565b602082019050919050565b600062003e6c60268362004587565b915062003e7982620049e1565b604082019050919050565b600062003e93601e8362004587565b915062003ea08262004a30565b602082019050919050565b600062003eba602e8362004587565b915062003ec78262004a59565b604082019050919050565b600062003ee160208362004587565b915062003eee8262004aa8565b602082019050919050565b600062003f0860178362004587565b915062003f158262004ad1565b602082019050919050565b600062003f2f60418362004587565b915062003f3c8262004afa565b606082019050919050565b600062003f56601783620045a9565b915062003f638262004b6f565b601782019050919050565b600062003f7d60178362004587565b915062003f8a8262004b98565b602082019050919050565b600062003fa4601183620045a9565b915062003fb18262004bc1565b601182019050919050565b600062003fcb602f8362004587565b915062003fd88262004bea565b604082019050919050565b62003fee816200472d565b82525050565b62003fff816200472d565b82525050565b62004010816200472d565b82525050565b62004021816200472d565b82525050565b6000620040348262003f47565b915062004042828562003d73565b91506200404f8262003f95565b91506200405d828462003d73565b91508190509392505050565b600060208201905062004080600083018462003b7a565b92915050565b60006060820190506200409d600083018662003b7a565b620040ac602083018562003b7a565b620040bb604083018462003ff4565b949350505050565b600061010082019050620040db600083018b62003b8b565b620040ea602083018a62003b8b565b620040f9604083018962004005565b62004108606083018862003d05565b81810360808301526200411c818762003c70565b905081810360a083015262004132818662003c70565b90506200414360c083018562003d16565b6200415260e083018462003d24565b9998505050505050505050565b600060408201905062004176600083018562003b7a565b62004185602083018462003ff4565b9392505050565b600061010082019050620041a4600083018462003ba3565b92915050565b60006020820190508181036000830152620041c6818462003c06565b905092915050565b6000602082019050620041e5600083018462003ce3565b92915050565b600060208201905062004202600083018462003cf4565b92915050565b60006080820190506200421f600083018762003d2b565b6200422e602083018662003b9c565b6200423d604083018562004005565b818103606083015262004251818462003daa565b905095945050505050565b600060c08201905062004273600083018962003d2b565b62004282602083018862004005565b62004291604083018762003d05565b620042a0606083018662003d16565b620042af608083018562003d24565b620042be60a083018462003d1d565b979650505050505050565b60006020820190508181036000830152620042e5818462003d32565b905092915050565b60006020820190508181036000830152620043088162003e36565b9050919050565b600060208201905081810360008301526200432a8162003e5d565b9050919050565b600060208201905081810360008301526200434c8162003e84565b9050919050565b600060208201905081810360008301526200436e8162003eab565b9050919050565b60006020820190508181036000830152620043908162003ed2565b9050919050565b60006020820190508181036000830152620043b28162003ef9565b9050919050565b60006020820190508181036000830152620043d48162003f20565b9050919050565b60006020820190508181036000830152620043f68162003f6e565b9050919050565b60006020820190508181036000830152620044188162003fbc565b9050919050565b600060208201905062004436600083018462003ff4565b92915050565b6000620044486200445b565b90506200445682826200482c565b919050565b6000604051905090565b600067ffffffffffffffff8211156200448357620044826200493d565b5b602082029050602081019050919050565b600067ffffffffffffffff821115620044b257620044b16200493d565b5b602082029050602081019050919050565b6000819050919050565b6000819050602082019050919050565b60008190508160005260206000209050919050565b60008190508160005260206000209050919050565b600060089050919050565b600081519050919050565b600081549050919050565b600081519050919050565b6000602082019050919050565b6000602082019050919050565b6000600182019050919050565b600081905092915050565b600082825260208201905092915050565b600082825260208201905092915050565b600082825260208201905092915050565b600082825260208201905092915050565b600081905092915050565b6000620045c1826200472d565b9150620045ce836200472d565b9250827fffffffffffffffffffffffffffffffffffffffffffffffffffffffffffffffff03821115620046065762004605620048b0565b5b828201905092915050565b60006200461e826200472d565b91506200462b836200472d565b9250817fffffffffffffffffffffffffffffffffffffffffffffffffffffffffffffffff0483118215151615620046675762004666620048b0565b5b828202905092915050565b60006200467f826200472d565b91506200468c836200472d565b925082821015620046a257620046a1620048b0565b5b828203905092915050565b6000819050919050565b6000620046c4826200470d565b9050919050565b60008115159050919050565b6000819050919050565b60007fffffffff0000000000000000000000000000000000000000000000000000000082169050919050565b600073ffffffffffffffffffffffffffffffffffffffff82169050919050565b6000819050919050565b600062004744826200474b565b9050919050565b600062004758826200475f565b9050919050565b60006200476c826200470d565b9050919050565b60005b838110156200479357808201518184015260208101905062004776565b83811115620047a3576000848401525b50505050565b6000620047b6826200472d565b91506000821415620047cd57620047cc620048b0565b5b600182039050919050565b60006002820490506001821680620047f157607f821691505b60208210811415620048085762004807620048df565b5b50919050565b6000620048256200481f83620049ab565b620046ad565b9050919050565b62004837826200499a565b810181811067ffffffffffffffff821117156200485957620048586200493d565b5b80604052505050565b60006200486f826200472d565b91507fffffffffffffffffffffffffffffffffffffffffffffffffffffffffffffffff821415620048a557620048a4620048b0565b5b600182019050919050565b7f4e487b7100000000000000000000000000000000000000000000000000000000600052601160045260246000fd5b7f4e487b7100000000000000000000000000000000000000000000000000000000600052602260045260246000fd5b7f4e487b7100000000000000000000000000000000000000000000000000000000600052603260045260246000fd5b7f4e487b7100000000000000000000000000000000000000000000000000000000600052604160045260246000fd5b60006200497a82546200480e565b9050919050565b600080fd5b600080fd5b600080fd5b600080fd5b600080fd5b6000601f19601f8301169050919050565b60008160001c9050919050565b7f537472696e67733a20686578206c656e67746820696e73756666696369656e74600082015250565b7f4f776e61626c653a206e6577206f776e657220697320746865207a65726f206160008201527f6464726573730000000000000000000000000000000000000000000000000000602082015250565b7f6c696e657570206973206c6f636b656420666f7220746865207765656b210000600082015250565b7f496e697469616c697a61626c653a20636f6e747261637420697320616c72656160008201527f647920696e697469616c697a6564000000000000000000000000000000000000602082015250565b7f4f776e61626c653a2063616c6c6572206973206e6f7420746865206f776e6572600082015250565b7f43616c6c6572206973206e6f74207468652061646d696e000000000000000000600082015250565b7f4e6f626f64792063616e20656e7465722f6578697420746865206c656167756560008201527f20616e796d6f72652e2054686520736561736f6e20686173207374617274656460208201527f2100000000000000000000000000000000000000000000000000000000000000604082015250565b7f416363657373436f6e74726f6c3a206163636f756e7420000000000000000000600082015250565b7f4c656167756520456e74727920697320436c6f73656421000000000000000000600082015250565b7f206973206d697373696e6720726f6c6520000000000000000000000000000000600082015250565b7f416363657373436f6e74726f6c3a2063616e206f6e6c792072656e6f756e636560008201527f20726f6c657320666f722073656c660000000000000000000000000000000000602082015250565b62004c4481620046b7565b811462004c5057600080fd5b50565b62004c5e81620046cb565b811462004c6a57600080fd5b50565b62004c7881620046d7565b811462004c8457600080fd5b50565b62004c9281620046e1565b811462004c9e57600080fd5b50565b62004cac816200472d565b811462004cb857600080fd5b5056fe608060405234801561001057600080fd5b5061002d61002261003260201b60201c565b61003a60201b60201c565b6100fe565b600033905090565b60008060009054906101000a900473ffffffffffffffffffffffffffffffffffffffff169050816000806101000a81548173ffffffffffffffffffffffffffffffffffffffff021916908373ffffffffffffffffffffffffffffffffffffffff1602179055508173ffffffffffffffffffffffffffffffffffffffff168173ffffffffffffffffffffffffffffffffffffffff167f8be0079c531659141344cd1fd0a4f28419497f9722a3daafe3b4186f6b6457e060405160405180910390a35050565b610e928061010d6000396000f3fe608060405234801561001057600080fd5b50600436106100935760003560e01c80638da5cb5b116100665780638da5cb5b146101325780639b19251a14610150578063dc9a153514610180578063e2ec6ec31461019e578063f2fde38b146101ce57610093565b806324953eaa14610098578063286dd3f5146100c8578063715018a6146100f85780637b9417c814610102575b600080fd5b6100b260048036038101906100ad9190610a4a565b6101ea565b6040516100bf9190610b12565b60405180910390f35b6100e260048036038101906100dd9190610a1d565b6102d4565b6040516100ef9190610b12565b60405180910390f35b610100610457565b005b61011c60048036038101906101179190610a1d565b6104df565b6040516101299190610b12565b60405180910390f35b61013a610660565b6040516101479190610af7565b60405180910390f35b61016a60048036038101906101659190610a1d565b610689565b6040516101779190610b12565b60405180910390f35b6101886106a9565b6040516101959190610b12565b60405180910390f35b6101b860048036038101906101b39190610a4a565b6106bc565b6040516101c59190610b12565b60405180910390f35b6101e860048036038101906101e39190610a1d565b6107a6565b005b60006101f461089e565b73ffffffffffffffffffffffffffffffffffffffff16610212610660565b73ffffffffffffffffffffffffffffffffffffffff1614610268576040517f08c379a000000000000000000000000000000000000000000000000000000000815260040161025f90610b4d565b60405180910390fd5b60005b82518110156102ce5761029783828151811061028a57610289610d4a565b5b60200260200101516102d4565b156102bb576001600260008282546102af9190610c25565b92505081905550600191505b80806102c690610cd2565b91505061026b565b50919050565b60006102de61089e565b73ffffffffffffffffffffffffffffffffffffffff166102fc610660565b73ffffffffffffffffffffffffffffffffffffffff1614610352576040517f08c379a000000000000000000000000000000000000000000000000000000000815260040161034990610b4d565b60405180910390fd5b600160008373ffffffffffffffffffffffffffffffffffffffff1673ffffffffffffffffffffffffffffffffffffffff16815260200190815260200160002060009054906101000a900460ff1615610452576000600160008473ffffffffffffffffffffffffffffffffffffffff1673ffffffffffffffffffffffffffffffffffffffff16815260200190815260200160002060006101000a81548160ff0219169083151502179055507ff1abf01a1043b7c244d128e8595cf0c1d10743b022b03a02dffd8ca3bf729f5a8260405161042b9190610af7565b60405180910390a16001600260008282546104469190610c25565b92505081905550600190505b919050565b61045f61089e565b73ffffffffffffffffffffffffffffffffffffffff1661047d610660565b73ffffffffffffffffffffffffffffffffffffffff16146104d3576040517f08c379a00000000000000000000000000000000000000000000000000000000081526004016104ca90610b4d565b60405180910390fd5b6104dd60006108a6565b565b60006104e961089e565b73ffffffffffffffffffffffffffffffffffffffff16610507610660565b73ffffffffffffffffffffffffffffffffffffffff161461055d576040517f08c379a000000000000000000000000000000000000000000000000000000000815260040161055490610b4d565b60405180910390fd5b600160008373ffffffffffffffffffffffffffffffffffffffff1673ffffffffffffffffffffffffffffffffffffffff16815260200190815260200160002060009054906101000a900460ff1661065b5760018060008473ffffffffffffffffffffffffffffffffffffffff1673ffffffffffffffffffffffffffffffffffffffff16815260200190815260200160002060006101000a81548160ff0219169083151502179055507fd1bba68c128cc3f427e5831b3c6f99f480b6efa6b9e80c757768f6124158cc3f826040516106349190610af7565b60405180910390a160016002600082825461064f9190610bcf565b92505081905550600190505b919050565b60008060009054906101000a900473ffffffffffffffffffffffffffffffffffffffff16905090565b60016020528060005260406000206000915054906101000a900460ff1681565b600360009054906101000a900460ff1681565b60006106c661089e565b73ffffffffffffffffffffffffffffffffffffffff166106e4610660565b73ffffffffffffffffffffffffffffffffffffffff161461073a576040517f08c379a000000000000000000000000000000000000000000000000000000000815260040161073190610b4d565b60405180910390fd5b60005b82518110156107a05761076983828151811061075c5761075b610d4a565b5b60200260200101516104df565b1561078d576001600260008282546107819190610bcf565b92505081905550600191505b808061079890610cd2565b91505061073d565b50919050565b6107ae61089e565b73ffffffffffffffffffffffffffffffffffffffff166107cc610660565b73ffffffffffffffffffffffffffffffffffffffff1614610822576040517f08c379a000000000000000000000000000000000000000000000000000000000815260040161081990610b4d565b60405180910390fd5b600073ffffffffffffffffffffffffffffffffffffffff168173ffffffffffffffffffffffffffffffffffffffff161415610892576040517f08c379a000000000000000000000000000000000000000000000000000000000815260040161088990610b2d565b60405180910390fd5b61089b816108a6565b50565b600033905090565b60008060009054906101000a900473ffffffffffffffffffffffffffffffffffffffff169050816000806101000a81548173ffffffffffffffffffffffffffffffffffffffff021916908373ffffffffffffffffffffffffffffffffffffffff1602179055508173ffffffffffffffffffffffffffffffffffffffff168173ffffffffffffffffffffffffffffffffffffffff167f8be0079c531659141344cd1fd0a4f28419497f9722a3daafe3b4186f6b6457e060405160405180910390a35050565b600061097d61097884610b92565b610b6d565b905080838252602082019050828560208602820111156109a05761099f610dad565b5b60005b858110156109d057816109b688826109da565b8452602084019350602083019250506001810190506109a3565b5050509392505050565b6000813590506109e981610e45565b92915050565b600082601f830112610a0457610a03610da8565b5b8135610a1484826020860161096a565b91505092915050565b600060208284031215610a3357610a32610db7565b5b6000610a41848285016109da565b91505092915050565b600060208284031215610a6057610a5f610db7565b5b600082013567ffffffffffffffff811115610a7e57610a7d610db2565b5b610a8a848285016109ef565b91505092915050565b610a9c81610c59565b82525050565b610aab81610c6b565b82525050565b6000610abe602683610bbe565b9150610ac982610dcd565b604082019050919050565b6000610ae1602083610bbe565b9150610aec82610e1c565b602082019050919050565b6000602082019050610b0c6000830184610a93565b92915050565b6000602082019050610b276000830184610aa2565b92915050565b60006020820190508181036000830152610b4681610ab1565b9050919050565b60006020820190508181036000830152610b6681610ad4565b9050919050565b6000610b77610b88565b9050610b838282610ca1565b919050565b6000604051905090565b600067ffffffffffffffff821115610bad57610bac610d79565b5b602082029050602081019050919050565b600082825260208201905092915050565b6000610bda82610c97565b9150610be583610c97565b9250827fffffffffffffffffffffffffffffffffffffffffffffffffffffffffffffffff03821115610c1a57610c19610d1b565b5b828201905092915050565b6000610c3082610c97565b9150610c3b83610c97565b925082821015610c4e57610c4d610d1b565b5b828203905092915050565b6000610c6482610c77565b9050919050565b60008115159050919050565b600073ffffffffffffffffffffffffffffffffffffffff82169050919050565b6000819050919050565b610caa82610dbc565b810181811067ffffffffffffffff82111715610cc957610cc8610d79565b5b80604052505050565b6000610cdd82610c97565b91507fffffffffffffffffffffffffffffffffffffffffffffffffffffffffffffffff821415610d1057610d0f610d1b565b5b600182019050919050565b7f4e487b7100000000000000000000000000000000000000000000000000000000600052601160045260246000fd5b7f4e487b7100000000000000000000000000000000000000000000000000000000600052603260045260246000fd5b7f4e487b7100000000000000000000000000000000000000000000000000000000600052604160045260246000fd5b600080fd5b600080fd5b600080fd5b600080fd5b6000601f19601f8301169050919050565b7f4f776e61626c653a206e6577206f776e657220697320746865207a65726f206160008201527f6464726573730000000000000000000000000000000000000000000000000000602082015250565b7f4f776e61626c653a2063616c6c6572206973206e6f7420746865206f776e6572600082015250565b610e4e81610c59565b8114610e5957600080fd5b5056fea2646970667358221220a21085165a95bba102b3fe59880e17f3027964706b8a63561e6b8ccd43ba90fb64736f6c63430008070033546f6f206d616e7920757365727320696e206c656167756520746f20616464206e657720757365722ea264697066735822122023e1f1608c8d1a0ac3bda9e18e23f2940de15ef779b81ca1e6eed0ddde03037b64736f6c63430008070033",
  "linkReferences": {
    "contracts/MOBALogicLibrary.sol": {
      "MOBALogicLibrary": [
        {
          "length": 20,
          "start": 3227
        },
        {
          "length": 20,
          "start": 8813
        },
        {
          "length": 20,
          "start": 8974
        }
      ]
    }
  },
  "deployedLinkReferences": {
    "contracts/MOBALogicLibrary.sol": {
      "MOBALogicLibrary": [
        {
          "length": 20,
          "start": 2950
        },
        {
          "length": 20,
          "start": 8536
        },
        {
          "length": 20,
          "start": 8697
        }
      ]
    }
  }
}