{
  "_format": "hh-sol-artifact-1",
  "contractName": "LeagueOfLegendsLogic",
  "sourceName": "contracts/LeagueOfLegendsLogic.sol",
  "abi": [
    {
      "anonymous": false,
      "inputs": [
        {
          "indexed": true,
          "internalType": "address",
          "name": "previousOwner",
          "type": "address"
        },
        {
          "indexed": true,
          "internalType": "address",
          "name": "newOwner",
          "type": "address"
        }
      ],
      "name": "OwnershipTransferred",
      "type": "event"
    },
    {
      "anonymous": false,
      "inputs": [
        {
          "indexed": true,
          "internalType": "bytes32",
          "name": "role",
          "type": "bytes32"
        },
        {
          "indexed": true,
          "internalType": "bytes32",
          "name": "previousAdminRole",
          "type": "bytes32"
        },
        {
          "indexed": true,
          "internalType": "bytes32",
          "name": "newAdminRole",
          "type": "bytes32"
        }
      ],
      "name": "RoleAdminChanged",
      "type": "event"
    },
    {
      "anonymous": false,
      "inputs": [
        {
          "indexed": true,
          "internalType": "bytes32",
          "name": "role",
          "type": "bytes32"
        },
        {
          "indexed": true,
          "internalType": "address",
          "name": "account",
          "type": "address"
        },
        {
          "indexed": true,
          "internalType": "address",
          "name": "sender",
          "type": "address"
        }
      ],
      "name": "RoleGranted",
      "type": "event"
    },
    {
      "anonymous": false,
      "inputs": [
        {
          "indexed": true,
          "internalType": "bytes32",
          "name": "role",
          "type": "bytes32"
        },
        {
          "indexed": true,
          "internalType": "address",
          "name": "account",
          "type": "address"
        },
        {
          "indexed": true,
          "internalType": "address",
          "name": "sender",
          "type": "address"
        }
      ],
      "name": "RoleRevoked",
      "type": "event"
    },
    {
      "anonymous": false,
      "inputs": [
        {
          "indexed": false,
          "internalType": "address",
          "name": "sender",
          "type": "address"
        },
        {
          "indexed": false,
          "internalType": "uint256",
          "name": "amount",
          "type": "uint256"
        }
      ],
      "name": "Staked",
      "type": "event"
    },
    {
      "anonymous": false,
      "inputs": [
        {
          "indexed": false,
          "internalType": "address",
          "name": "addr",
          "type": "address"
        }
      ],
      "name": "WhitelistedAddressAdded",
      "type": "event"
    },
    {
      "anonymous": false,
      "inputs": [
        {
          "indexed": false,
          "internalType": "address",
          "name": "addr",
          "type": "address"
        }
      ],
      "name": "WhitelistedAddressRemoved",
      "type": "event"
    },
    {
      "inputs": [],
      "name": "DEFAULT_ADMIN_ROLE",
      "outputs": [
        {
          "internalType": "bytes32",
          "name": "",
          "type": "bytes32"
        }
      ],
      "stateMutability": "view",
      "type": "function"
    },
    {
      "inputs": [
        {
          "internalType": "address",
          "name": "addr",
          "type": "address"
        }
      ],
      "name": "addAddressToWhitelist",
      "outputs": [
        {
          "internalType": "bool",
          "name": "success",
          "type": "bool"
        }
      ],
      "stateMutability": "nonpayable",
      "type": "function"
    },
    {
      "inputs": [
        {
          "internalType": "address[]",
          "name": "addrs",
          "type": "address[]"
        }
      ],
      "name": "addAddressesToWhitelist",
      "outputs": [
        {
          "internalType": "bool",
          "name": "success",
          "type": "bool"
        }
      ],
      "stateMutability": "nonpayable",
      "type": "function"
    },
    {
      "inputs": [],
      "name": "addUserToWhitelist",
      "outputs": [],
      "stateMutability": "nonpayable",
      "type": "function"
    },
    {
      "inputs": [],
      "name": "currentWeekNum",
      "outputs": [
        {
          "internalType": "uint256",
          "name": "",
          "type": "uint256"
        }
      ],
      "stateMutability": "view",
      "type": "function"
    },
    {
      "inputs": [],
      "name": "getLeagueName",
      "outputs": [
        {
          "internalType": "string",
          "name": "",
          "type": "string"
        }
      ],
      "stateMutability": "view",
      "type": "function"
    },
    {
      "inputs": [],
      "name": "getLineup",
      "outputs": [
        {
          "internalType": "uint256[]",
          "name": "",
          "type": "uint256[]"
        }
      ],
      "stateMutability": "view",
      "type": "function"
    },
    {
      "inputs": [
        {
          "internalType": "bytes32",
          "name": "role",
          "type": "bytes32"
        }
      ],
      "name": "getRoleAdmin",
      "outputs": [
        {
          "internalType": "bytes32",
          "name": "",
          "type": "bytes32"
        }
      ],
      "stateMutability": "view",
      "type": "function"
    },
    {
      "inputs": [],
      "name": "getStakeAmount",
      "outputs": [
        {
          "internalType": "uint256",
          "name": "stakeAmount",
          "type": "uint256"
        }
      ],
      "stateMutability": "view",
      "type": "function"
    },
    {
      "inputs": [],
      "name": "getTotalPrizePot",
      "outputs": [
        {
          "internalType": "uint256",
          "name": "",
          "type": "uint256"
        }
      ],
      "stateMutability": "view",
      "type": "function"
    },
    {
      "inputs": [
        {
          "internalType": "address",
          "name": "_token",
          "type": "address"
        }
      ],
      "name": "getUSDCBalance",
      "outputs": [
        {
          "internalType": "uint256",
          "name": "",
          "type": "uint256"
        }
      ],
      "stateMutability": "view",
      "type": "function"
    },
    {
      "inputs": [],
      "name": "getUserRecord",
      "outputs": [
        {
          "internalType": "uint256[8]",
          "name": "",
          "type": "uint256[8]"
        }
      ],
      "stateMutability": "view",
      "type": "function"
    },
    {
      "inputs": [],
      "name": "getUserTotalWins",
      "outputs": [
        {
          "internalType": "uint256",
          "name": "",
          "type": "uint256"
        }
      ],
      "stateMutability": "view",
      "type": "function"
    },
    {
      "inputs": [],
      "name": "getVersion",
      "outputs": [
        {
          "internalType": "uint256",
          "name": "version",
          "type": "uint256"
        }
      ],
      "stateMutability": "view",
      "type": "function"
    },
    {
      "inputs": [
        {
          "internalType": "bytes32",
          "name": "role",
          "type": "bytes32"
        },
        {
          "internalType": "address",
          "name": "account",
          "type": "address"
        }
      ],
      "name": "grantRole",
      "outputs": [],
      "stateMutability": "nonpayable",
      "type": "function"
    },
    {
      "inputs": [
        {
          "internalType": "bytes32",
          "name": "role",
          "type": "bytes32"
        },
        {
          "internalType": "address",
          "name": "account",
          "type": "address"
        }
      ],
      "name": "hasRole",
      "outputs": [
        {
          "internalType": "bool",
          "name": "",
          "type": "bool"
        }
      ],
      "stateMutability": "view",
      "type": "function"
    },
    {
      "inputs": [],
      "name": "incrementVersion",
      "outputs": [],
      "stateMutability": "nonpayable",
      "type": "function"
    },
    {
      "inputs": [
        {
          "internalType": "string",
          "name": "_name",
          "type": "string"
        },
        {
          "internalType": "uint256",
          "name": "_version",
          "type": "uint256"
        },
        {
          "internalType": "uint256",
          "name": "_stakeAmount",
          "type": "uint256"
        },
        {
          "internalType": "bool",
          "name": "_isPublic",
          "type": "bool"
        },
        {
          "internalType": "address",
          "name": "athletesDataStorageAddress",
          "type": "address"
        },
        {
          "internalType": "address",
          "name": "_admin",
          "type": "address"
        },
        {
          "internalType": "address",
          "name": "_polygonUSDCAddress",
          "type": "address"
        },
        {
          "internalType": "address",
          "name": "_rinkebyUSDCAddress",
          "type": "address"
        },
        {
          "internalType": "address",
          "name": "leagueMakerContractAddress",
          "type": "address"
        }
      ],
      "name": "initialize",
      "outputs": [],
      "stateMutability": "nonpayable",
      "type": "function"
    },
    {
      "inputs": [],
      "name": "isPublic",
      "outputs": [
        {
          "internalType": "bool",
          "name": "",
          "type": "bool"
        }
      ],
      "stateMutability": "view",
      "type": "function"
    },
    {
      "inputs": [],
      "name": "joinLeague",
      "outputs": [],
      "stateMutability": "nonpayable",
      "type": "function"
    },
    {
      "inputs": [
        {
          "internalType": "uint256",
          "name": "",
          "type": "uint256"
        }
      ],
      "name": "leagueMembers",
      "outputs": [
        {
          "internalType": "address",
          "name": "",
          "type": "address"
        }
      ],
      "stateMutability": "view",
      "type": "function"
    },
    {
      "inputs": [],
      "name": "leagueName",
      "outputs": [
        {
          "internalType": "string",
          "name": "",
          "type": "string"
        }
      ],
      "stateMutability": "view",
      "type": "function"
    },
    {
      "inputs": [],
      "name": "lockLineup",
      "outputs": [],
      "stateMutability": "nonpayable",
      "type": "function"
    },
    {
      "inputs": [],
      "name": "numWeeks",
      "outputs": [
        {
          "internalType": "uint256",
          "name": "",
          "type": "uint256"
        }
      ],
      "stateMutability": "view",
      "type": "function"
    },
    {
      "inputs": [],
      "name": "owner",
      "outputs": [
        {
          "internalType": "address",
          "name": "",
          "type": "address"
        }
      ],
      "stateMutability": "view",
      "type": "function"
    },
    {
      "inputs": [],
      "name": "polygonUSDCAddress",
      "outputs": [
        {
          "internalType": "address",
          "name": "",
          "type": "address"
        }
      ],
      "stateMutability": "view",
      "type": "function"
    },
    {
      "inputs": [
        {
          "internalType": "address",
          "name": "addr",
          "type": "address"
        }
      ],
      "name": "removeAddressFromWhitelist",
      "outputs": [
        {
          "internalType": "bool",
          "name": "success",
          "type": "bool"
        }
      ],
      "stateMutability": "nonpayable",
      "type": "function"
    },
    {
      "inputs": [
        {
          "internalType": "address[]",
          "name": "addrs",
          "type": "address[]"
        }
      ],
      "name": "removeAddressesFromWhitelist",
      "outputs": [
        {
          "internalType": "bool",
          "name": "success",
          "type": "bool"
        }
      ],
      "stateMutability": "nonpayable",
      "type": "function"
    },
    {
      "inputs": [],
      "name": "renounceOwnership",
      "outputs": [],
      "stateMutability": "nonpayable",
      "type": "function"
    },
    {
      "inputs": [
        {
          "internalType": "bytes32",
          "name": "role",
          "type": "bytes32"
        },
        {
          "internalType": "address",
          "name": "account",
          "type": "address"
        }
      ],
      "name": "renounceRole",
      "outputs": [],
      "stateMutability": "nonpayable",
      "type": "function"
    },
    {
      "inputs": [
        {
          "internalType": "bytes32",
          "name": "role",
          "type": "bytes32"
        },
        {
          "internalType": "address",
          "name": "account",
          "type": "address"
        }
      ],
      "name": "revokeRole",
      "outputs": [],
      "stateMutability": "nonpayable",
      "type": "function"
    },
    {
      "inputs": [],
      "name": "rinkebyUSDCAddress",
      "outputs": [
        {
          "internalType": "address",
          "name": "",
          "type": "address"
        }
      ],
      "stateMutability": "view",
      "type": "function"
    },
    {
      "inputs": [],
      "name": "setLeagueEntryIsClosed",
      "outputs": [],
      "stateMutability": "nonpayable",
      "type": "function"
    },
    {
      "inputs": [],
      "name": "setLeagueSchedule",
      "outputs": [],
      "stateMutability": "nonpayable",
      "type": "function"
    },
    {
      "inputs": [
        {
          "internalType": "uint256[]",
          "name": "athleteIds",
          "type": "uint256[]"
        }
      ],
      "name": "setLineup",
      "outputs": [],
      "stateMutability": "nonpayable",
      "type": "function"
    },
    {
      "inputs": [],
      "name": "stakeAmount",
      "outputs": [
        {
          "internalType": "uint256",
          "name": "",
          "type": "uint256"
        }
      ],
      "stateMutability": "view",
      "type": "function"
    },
    {
      "inputs": [
        {
          "internalType": "bytes4",
          "name": "interfaceId",
          "type": "bytes4"
        }
      ],
      "name": "supportsInterface",
      "outputs": [
        {
          "internalType": "bool",
          "name": "",
          "type": "bool"
        }
      ],
      "stateMutability": "view",
      "type": "function"
    },
    {
      "inputs": [
        {
          "internalType": "address",
          "name": "newOwner",
          "type": "address"
        }
      ],
      "name": "transferOwnership",
      "outputs": [],
      "stateMutability": "nonpayable",
      "type": "function"
    },
    {
      "inputs": [],
      "name": "unlockLineup",
      "outputs": [],
      "stateMutability": "nonpayable",
      "type": "function"
    },
    {
      "inputs": [
        {
          "internalType": "address",
          "name": "",
          "type": "address"
        },
        {
          "internalType": "uint256",
          "name": "",
          "type": "uint256"
        }
      ],
      "name": "userToRecord",
      "outputs": [
        {
          "internalType": "uint256",
          "name": "",
          "type": "uint256"
        }
      ],
      "stateMutability": "view",
      "type": "function"
    },
    {
      "inputs": [],
      "name": "version",
      "outputs": [
        {
          "internalType": "uint256",
          "name": "",
          "type": "uint256"
        }
      ],
      "stateMutability": "view",
      "type": "function"
    },
    {
      "inputs": [
        {
          "internalType": "address",
          "name": "",
          "type": "address"
        }
      ],
      "name": "whitelist",
      "outputs": [
        {
          "internalType": "bool",
          "name": "",
          "type": "bool"
        }
      ],
      "stateMutability": "view",
      "type": "function"
    }
  ],
  "bytecode": "0x60806040523480156200001157600080fd5b5062000032620000266200003860201b60201c565b6200004060201b60201c565b62000105565b600033905090565b60008060029054906101000a900473ffffffffffffffffffffffffffffffffffffffff16905081600060026101000a81548173ffffffffffffffffffffffffffffffffffffffff021916908373ffffffffffffffffffffffffffffffffffffffff1602179055508173ffffffffffffffffffffffffffffffffffffffff168173ffffffffffffffffffffffffffffffffffffffff167f8be0079c531659141344cd1fd0a4f28419497f9722a3daafe3b4186f6b6457e060405160405180910390a35050565b61571480620001156000396000f3fe60806040523480156200001157600080fd5b5060043610620002975760003560e01c80637b9417c81162000165578063ada3a28d11620000d5578063e2ec6ec31162000093578063e2ec6ec3146200078a578063e4c9066b14620007c0578063e6bab8ad14620007cc578063f2fde38b14620007ee578063f612121a146200080e578063f8816045146200082e5762000297565b8063ada3a28d146200070e578063c8be3b5b1462000730578063c99fea94146200073c578063d547741f1462000748578063dc9a153514620007685762000297565b806393f3706c116200012357806393f3706c146200066657806399a6003414620006885780639b19251a14620006aa578063a217fddf14620006e0578063a2bc091a14620007025762000297565b80637b9417c814620005945780637eed33f114620005ca578063841abf6e14620005ec5780638da5cb5b146200060e57806391d1485414620006305762000297565b80632cf0a1fc116200020d57806354fd4d5011620001cb57806354fd4d5014620004e057806360c7dc471462000502578063680247171462000524578063715018a6146200055a578063722580b614620005665780637ac6aa1d14620005885762000297565b80632cf0a1fc14620004505780632f2ff15d146200045c57806336568abe146200047c578063403570c5146200049c57806352e6e5f314620004be5762000297565b80630d8e6e2c116200025b5780630d8e6e2c1462000356578063248a9ca3146200037857806324953eaa14620003ae578063267175db14620003e4578063286dd3f5146200041a5762000297565b8062b2476f146200029c57806301ffc9a714620002be5780630655465a14620002f45780630bdcd5f014620003005780630c6f79591462000320575b600080fd5b620002a662000850565b604051620002b5919062003cd8565b60405180910390f35b620002dc6004803603810190620002d69190620036b0565b62000876565b604051620002eb919062003da1565b60405180910390f35b620002fe620008f3565b005b6200031e6004803603810190620003189190620036e2565b620011ab565b005b6200033e60048036038101906200033891906200351c565b6200153e565b6040516200034d919062003f0f565b60405180910390f35b6200036062001567565b6040516200036f919062003f0f565b60405180910390f35b62000396600480360381019062000390919062003637565b6200156c565b604051620003a5919062003dbe565b60405180910390f35b620003cc6004803603810190620003c6919062003563565b6200158c565b604051620003db919062003da1565b60405180910390f35b620004026004803603810190620003fc9190620037e5565b62001689565b60405162000411919062003cd8565b60405180910390f35b620004386004803603810190620004329190620034ea565b620016c9565b60405162000447919062003da1565b60405180910390f35b6200045a62001858565b005b6200047a600480360381019062000474919062003669565b62001876565b005b6200049a600480360381019062000494919062003669565b620018a7565b005b620004a662001931565b604051620004b5919062003ddb565b60405180910390f35b620004c8620019cb565b604051620004d7919062003f0f565b60405180910390f35b620004ea620019d1565b604051620004f9919062003f0f565b60405180910390f35b6200050c620019d7565b6040516200051b919062003f0f565b60405180910390f35b6200054260048036038101906200053c9190620034ea565b620019dd565b60405162000551919062003f0f565b60405180910390f35b6200056462001a75565b005b6200057062001b06565b6040516200057f919062003f0f565b60405180910390f35b6200059262001b0b565b005b620005b26004803603810190620005ac9190620034ea565b62001b7e565b604051620005c1919062003da1565b60405180910390f35b620005d462001d0c565b604051620005e3919062003f0f565b60405180910390f35b620005f662001d12565b60405162000605919062003ddb565b60405180910390f35b6200061862001da8565b60405162000627919062003cd8565b60405180910390f35b6200064e600480360381019062000648919062003669565b62001dd1565b6040516200065d919062003da1565b60405180910390f35b6200067062001e3c565b6040516200067f919062003cd8565b60405180910390f35b6200069262001e62565b604051620006a1919062003f0f565b60405180910390f35b620006c86004803603810190620006c29190620034ea565b62001e7e565b604051620006d7919062003da1565b60405180910390f35b620006ea62001e9e565b604051620006f9919062003dbe565b60405180910390f35b6200070c62001ea5565b005b6200071862001f45565b60405162000727919062003d7d565b60405180910390f35b6200073a62001fdc565b005b620007466200207c565b005b62000766600480360381019062000760919062003669565b620021d3565b005b6200077262002204565b60405162000781919062003da1565b60405180910390f35b620007a86004803603810190620007a2919062003563565b62002217565b604051620007b7919062003da1565b60405180910390f35b620007ca62002314565b005b620007d6620023b4565b604051620007e5919062003f0f565b60405180910390f35b6200080c6004803603810190620008069190620034ea565b620024f2565b005b6200082c6004803603810190620008269190620035b4565b620025f6565b005b62000838620026a2565b60405162000847919062003d5f565b60405180910390f35b601160009054906101000a900473ffffffffffffffffffffffffffffffffffffffff1681565b60007f7965db0b000000000000000000000000000000000000000000000000000000007bffffffffffffffffffffffffffffffffffffffffffffffffffffffff1916827bffffffffffffffffffffffffffffffffffffffffffffffffffffffff19161480620008ec5750620008eb826200272e565b5b9050919050565b620008fd62002798565b73ffffffffffffffffffffffffffffffffffffffff166200091d62001da8565b73ffffffffffffffffffffffffffffffffffffffff161462000976576040517f08c379a00000000000000000000000000000000000000000000000000000000081526004016200096d9062003ea9565b60405180910390fd5b620009b66040518060400160405280601081526020017f73657474696e67207363686564756c6500000000000000000000000000000000815250620027a0565b6000600980549050600980549050620009d09190620040ea565b4233446006604051602001620009ea949392919062003c86565b6040516020818303038152906040528051906020012060001c62000a0f919062004055565b905062000a1b62003095565b62000a2562003095565b60005b600754811015620011a55762000a736040518060400160405280600181526020017f0a00000000000000000000000000000000000000000000000000000000000000815250620027a0565b62000a7e816200283d565b62000abe6040518060400160405280601881526020017f2a2a2a2a2a2a2a2a2a2a2a2a2a2a2a2a2a2a2a2a2a2a2a2a0000000000000000815250620027a0565b600080600260098054905062000ad5919062004357565b1462000af857600160098054905062000aef919062004055565b90508062000b02565b6009805490509050805b5060008360006004811062000b1c5762000b1b6200441c565b5b6020020151905060005b60028362000b359190620040b2565b81101562000cb257600084141562000bf857808660028562000b589190620040b2565b898462000b66919062004055565b62000b72919062004357565b6004811062000b865762000b856200441c565b5b60200201818152505060028362000b9e9190620040b2565b8162000bab919062004055565b8560028562000bbb9190620040b2565b898462000bc9919062004055565b62000bd5919062004357565b6004811062000be95762000be86200441c565b5b60200201818152505062000c9c565b600086826004811062000c105762000c0f6200441c565b5b602002015190508086836004811062000c2e5762000c2d6200441c565b5b6020020181815250508560028562000c479190620040b2565b60018462000c56919062004055565b62000c62919062004357565b6004811062000c765762000c756200441c565b5b602002015187836004811062000c915762000c906200441c565b5b602002018181525050505b808062000ca990620042d7565b91505062000b26565b506000831462000cf9578085600160028562000ccf9190620040b2565b62000cdb91906200414b565b6004811062000cef5762000cee6200441c565b5b6020020181815250505b60005b60028362000d0b9190620040b2565b8110156200118c5762000d1d620030b7565b60098054905086836004811062000d395762000d386200441c565b5b60200201511062000e15576040518060400160405280600989856004811062000d675762000d666200441c565b5b60200201518154811062000d805762000d7f6200441c565b5b9060005260206000200160009054906101000a900473ffffffffffffffffffffffffffffffffffffffff1673ffffffffffffffffffffffffffffffffffffffff1673ffffffffffffffffffffffffffffffffffffffff168152602001600073ffffffffffffffffffffffffffffffffffffffff1673ffffffffffffffffffffffffffffffffffffffff16815250905062001034565b60098054905087836004811062000e315762000e306200441c565b5b60200201511062000f0d576040518060400160405280600073ffffffffffffffffffffffffffffffffffffffff1673ffffffffffffffffffffffffffffffffffffffff168152602001600988856004811062000e925762000e916200441c565b5b60200201518154811062000eab5762000eaa6200441c565b5b9060005260206000200160009054906101000a900473ffffffffffffffffffffffffffffffffffffffff1673ffffffffffffffffffffffffffffffffffffffff1673ffffffffffffffffffffffffffffffffffffffff16815250905062001033565b6040518060400160405280600989856004811062000f305762000f2f6200441c565b5b60200201518154811062000f495762000f486200441c565b5b9060005260206000200160009054906101000a900473ffffffffffffffffffffffffffffffffffffffff1673ffffffffffffffffffffffffffffffffffffffff1673ffffffffffffffffffffffffffffffffffffffff168152602001600988856004811062000fbd5762000fbc6200441c565b5b60200201518154811062000fd65762000fd56200441c565b5b9060005260206000200160009054906101000a900473ffffffffffffffffffffffffffffffffffffffff1673ffffffffffffffffffffffffffffffffffffffff1673ffffffffffffffffffffffffffffffffffffffff1681525090505b5b60006040518060200160405280838152509050600f60008781526020019081526020016000208190806001815401808255809150506001900390600052602060002090600202016000909190919091506000820151816000019060026200109d929190620030d9565b505050620010ca8160000151600060028110620010bf57620010be6200441c565b5b6020020151620028da565b6200110a6040518060400160405280600481526020017f2076732000000000000000000000000000000000000000000000000000000000815250620027a0565b6200113481600001516001600281106200112957620011286200441c565b5b6020020151620028da565b620011746040518060400160405280600181526020017f0a00000000000000000000000000000000000000000000000000000000000000815250620027a0565b505080806200118390620042d7565b91505062000cfc565b50505080806200119c90620042d7565b91505062000a28565b50505050565b600060019054906101000a900460ff16620011d55760008054906101000a900460ff1615620011e0565b620011df62002977565b5b62001222576040517f08c379a0000000000000000000000000000000000000000000000000000000008152600401620012199062003e87565b60405180910390fd5b60008060019054906101000a900460ff16159050801562001273576001600060016101000a81548160ff02191690831515021790555060016000806101000a81548160ff0219169083151502179055505b886005819055508a8a600691906200128d9291906200315b565b506008600781905550620012a56000801b866200298a565b6009859080600181540180825580915050600190039060005260206000200160009091909190916101000a81548173ffffffffffffffffffffffffffffffffffffffff021916908373ffffffffffffffffffffffffffffffffffffffff16021790555087600e8190555086600460006101000a81548160ff0219169083151502179055506000600c60016101000a81548160ff0219169083151502179055506000600c60006101000a81548160ff02191690831515021790555085601260006101000a81548173ffffffffffffffffffffffffffffffffffffffff021916908373ffffffffffffffffffffffffffffffffffffffff16021790555081601460006101000a81548173ffffffffffffffffffffffffffffffffffffffff021916908373ffffffffffffffffffffffffffffffffffffffff160217905550604051620013ef90620031ec565b604051809103906000f0801580156200140c573d6000803e3d6000fd5b50601360006101000a81548173ffffffffffffffffffffffffffffffffffffffff021916908373ffffffffffffffffffffffffffffffffffffffff16021790555083601060006101000a81548173ffffffffffffffffffffffffffffffffffffffff021916908373ffffffffffffffffffffffffffffffffffffffff16021790555082601160006101000a81548173ffffffffffffffffffffffffffffffffffffffff021916908373ffffffffffffffffffffffffffffffffffffffff1602179055506200150f6040518060400160405280601281526020017f50726f787920696e697469616c697a6564210000000000000000000000000000815250620027a0565b8015620015315760008060016101000a81548160ff0219169083151502179055505b5050505050505050505050565b600b60205281600052604060002081600881106200155b57600080fd5b01600091509150505481565b600090565b600060016000838152602001908152602001600020600101549050919050565b60006200159862002798565b73ffffffffffffffffffffffffffffffffffffffff16620015b862001da8565b73ffffffffffffffffffffffffffffffffffffffff161462001611576040517f08c379a0000000000000000000000000000000000000000000000000000000008152600401620016089062003ea9565b60405180910390fd5b60005b82518110156200168357620016468382815181106200163857620016376200441c565b5b6020026020010151620016c9565b156200166d576001600360008282546200166191906200414b565b92505081905550600191505b80806200167a90620042d7565b91505062001614565b50919050565b600981815481106200169a57600080fd5b906000526020600020016000915054906101000a900473ffffffffffffffffffffffffffffffffffffffff1681565b6000620016d562002798565b73ffffffffffffffffffffffffffffffffffffffff16620016f562001da8565b73ffffffffffffffffffffffffffffffffffffffff16146200174e576040517f08c379a0000000000000000000000000000000000000000000000000000000008152600401620017459062003ea9565b60405180910390fd5b600260008373ffffffffffffffffffffffffffffffffffffffff1673ffffffffffffffffffffffffffffffffffffffff16815260200190815260200160002060009054906101000a900460ff161562001853576000600260008473ffffffffffffffffffffffffffffffffffffffff1673ffffffffffffffffffffffffffffffffffffffff16815260200190815260200160002060006101000a81548160ff0219169083151502179055507ff1abf01a1043b7c244d128e8595cf0c1d10743b022b03a02dffd8ca3bf729f5a826040516200182a919062003cd8565b60405180910390a16001600360008282546200184791906200414b565b92505081905550600190505b919050565b6001600560008282546200186d919062004055565b92505081905550565b62001881826200156c565b62001896816200189062002798565b6200299a565b620018a2838362002a42565b505050565b620018b162002798565b73ffffffffffffffffffffffffffffffffffffffff168173ffffffffffffffffffffffffffffffffffffffff161462001921576040517f08c379a0000000000000000000000000000000000000000000000000000000008152600401620019189062003eed565b60405180910390fd5b6200192d828262002b27565b5050565b60606006805462001942906200426b565b80601f016020809104026020016040519081016040528092919081815260200182805462001970906200426b565b8015620019c15780601f106200199557610100808354040283529160200191620019c1565b820191906000526020600020905b815481529060010190602001808311620019a357829003601f168201915b5050505050905090565b60085481565b60055481565b600e5481565b60008173ffffffffffffffffffffffffffffffffffffffff166370a08231306040518263ffffffff1660e01b815260040162001a1a919062003cd8565b60206040518083038186803b15801562001a3357600080fd5b505afa15801562001a48573d6000803e3d6000fd5b505050506040513d601f19601f8201168201806040525081019062001a6e919062003817565b9050919050565b62001a7f62002798565b73ffffffffffffffffffffffffffffffffffffffff1662001a9f62001da8565b73ffffffffffffffffffffffffffffffffffffffff161462001af8576040517f08c379a000000000000000000000000000000000000000000000000000000000815260040162001aef9062003ea9565b60405180910390fd5b62001b04600062002c0e565b565b600090565b62001b1a6000801b3362001dd1565b62001b2457600080fd5b6001600260003373ffffffffffffffffffffffffffffffffffffffff1673ffffffffffffffffffffffffffffffffffffffff16815260200190815260200160002060006101000a81548160ff021916908315150217905550565b600062001b8a62002798565b73ffffffffffffffffffffffffffffffffffffffff1662001baa62001da8565b73ffffffffffffffffffffffffffffffffffffffff161462001c03576040517f08c379a000000000000000000000000000000000000000000000000000000000815260040162001bfa9062003ea9565b60405180910390fd5b600260008373ffffffffffffffffffffffffffffffffffffffff1673ffffffffffffffffffffffffffffffffffffffff16815260200190815260200160002060009054906101000a900460ff1662001d07576001600260008473ffffffffffffffffffffffffffffffffffffffff1673ffffffffffffffffffffffffffffffffffffffff16815260200190815260200160002060006101000a81548160ff0219169083151502179055507fd1bba68c128cc3f427e5831b3c6f99f480b6efa6b9e80c757768f6124158cc3f8260405162001cde919062003cd8565b60405180910390a160016003600082825462001cfb919062004055565b92505081905550600190505b919050565b60075481565b6006805462001d21906200426b565b80601f016020809104026020016040519081016040528092919081815260200182805462001d4f906200426b565b801562001da05780601f1062001d745761010080835404028352916020019162001da0565b820191906000526020600020905b81548152906001019060200180831162001d8257829003601f168201915b505050505081565b60008060029054906101000a900473ffffffffffffffffffffffffffffffffffffffff16905090565b60006001600084815260200190815260200160002060000160008373ffffffffffffffffffffffffffffffffffffffff1673ffffffffffffffffffffffffffffffffffffffff16815260200190815260200160002060009054906101000a900460ff16905092915050565b601060009054906101000a900473ffffffffffffffffffffffffffffffffffffffff1681565b6000600980549050600e5462001e799190620040ea565b905090565b60026020528060005260406000206000915054906101000a900460ff1681565b6000801b81565b62001eaf62002798565b73ffffffffffffffffffffffffffffffffffffffff1662001ecf62001da8565b73ffffffffffffffffffffffffffffffffffffffff161462001f28576040517f08c379a000000000000000000000000000000000000000000000000000000000815260040162001f1f9062003ea9565b60405180910390fd5b6000600c60016101000a81548160ff021916908315150217905550565b6060600d60003373ffffffffffffffffffffffffffffffffffffffff1673ffffffffffffffffffffffffffffffffffffffff16815260200190815260200160002080548060200260200160405190810160405280929190818152602001828054801562001fd257602002820191906000526020600020905b81548152602001906001019080831162001fbd575b5050505050905090565b62001fe662002798565b73ffffffffffffffffffffffffffffffffffffffff166200200662001da8565b73ffffffffffffffffffffffffffffffffffffffff16146200205f576040517f08c379a0000000000000000000000000000000000000000000000000000000008152600401620020569062003ea9565b60405180910390fd5b6001600c60016101000a81548160ff021916908315150217905550565b600260003373ffffffffffffffffffffffffffffffffffffffff1673ffffffffffffffffffffffffffffffffffffffff16815260200190815260200160002060009054906101000a900460ff1680620020e15750600460009054906101000a900460ff165b620020eb57600080fd5b600c60009054906101000a900460ff16156200213e576040517f08c379a0000000000000000000000000000000000000000000000000000000008152600401620021359062003ecb565b60405180910390fd5b6009339080600181540180825580915050600190039060005260206000200160009091909190916101000a81548173ffffffffffffffffffffffffffffffffffffffff021916908373ffffffffffffffffffffffffffffffffffffffff160217905550620021d1601160009054906101000a900473ffffffffffffffffffffffffffffffffffffffff16600e5462002cd3565b565b620021de826200156c565b620021f381620021ed62002798565b6200299a565b620021ff838362002b27565b505050565b600460009054906101000a900460ff1681565b60006200222362002798565b73ffffffffffffffffffffffffffffffffffffffff166200224362001da8565b73ffffffffffffffffffffffffffffffffffffffff16146200229c576040517f08c379a0000000000000000000000000000000000000000000000000000000008152600401620022939062003ea9565b60405180910390fd5b60005b82518110156200230e57620022d1838281518110620022c357620022c26200441c565b5b602002602001015162001b7e565b15620022f857600160036000828254620022ec919062004055565b92505081905550600191505b80806200230590620042d7565b9150506200229f565b50919050565b6200231e62002798565b73ffffffffffffffffffffffffffffffffffffffff166200233e62001da8565b73ffffffffffffffffffffffffffffffffffffffff161462002397576040517f08c379a00000000000000000000000000000000000000000000000000000000081526004016200238e9062003ea9565b60405180910390fd5b6001600c60006101000a81548160ff021916908315150217905550565b600080600090506000601460009054906101000a900473ffffffffffffffffffffffffffffffffffffffff1673ffffffffffffffffffffffffffffffffffffffff166306575c896040518163ffffffff1660e01b815260040160206040518083038186803b1580156200242657600080fd5b505afa1580156200243b573d6000803e3d6000fd5b505050506040513d601f19601f8201168201806040525081019062002461919062003817565b905060005b818111620024e957600b60003373ffffffffffffffffffffffffffffffffffffffff1673ffffffffffffffffffffffffffffffffffffffff1681526020019081526020016000208160088110620024c257620024c16200441c565b5b015483620024d1919062004055565b92508080620024e090620042d7565b91505062002466565b50819250505090565b620024fc62002798565b73ffffffffffffffffffffffffffffffffffffffff166200251c62001da8565b73ffffffffffffffffffffffffffffffffffffffff161462002575576040517f08c379a00000000000000000000000000000000000000000000000000000000081526004016200256c9062003ea9565b60405180910390fd5b600073ffffffffffffffffffffffffffffffffffffffff168173ffffffffffffffffffffffffffffffffffffffff161415620025e8576040517f08c379a0000000000000000000000000000000000000000000000000000000008152600401620025df9062003e21565b60405180910390fd5b620025f38162002c0e565b50565b600c60019054906101000a900460ff161562002649576040517f08c379a0000000000000000000000000000000000000000000000000000000008152600401620026409062003e65565b60405180910390fd5b80600d60003373ffffffffffffffffffffffffffffffffffffffff1673ffffffffffffffffffffffffffffffffffffffff16815260200190815260200160002090805190602001906200269e929190620031fa565b5050565b620026ac6200324c565b600b60003373ffffffffffffffffffffffffffffffffffffffff1673ffffffffffffffffffffffffffffffffffffffff16815260200190815260200160002060088060200260405190810160405280929190826008801562002724576020028201915b8154815260200190600101908083116200270f575b5050505050905090565b60007f01ffc9a7000000000000000000000000000000000000000000000000000000007bffffffffffffffffffffffffffffffffffffffffffffffffffffffff1916827bffffffffffffffffffffffffffffffffffffffffffffffffffffffff1916149050919050565b600033905090565b6200283a81604051602401620027b7919062003ddb565b6040516020818303038152906040527f41304fac000000000000000000000000000000000000000000000000000000007bffffffffffffffffffffffffffffffffffffffffffffffffffffffff19166020820180517bffffffffffffffffffffffffffffffffffffffffffffffffffffffff838183161783525050505062002dee565b50565b620028d78160405160240162002854919062003f0f565b6040516020818303038152906040527ff5b1bba9000000000000000000000000000000000000000000000000000000007bffffffffffffffffffffffffffffffffffffffffffffffffffffffff19166020820180517bffffffffffffffffffffffffffffffffffffffffffffffffffffffff838183161783525050505062002dee565b50565b6200297481604051602401620028f1919062003cd8565b6040516020818303038152906040527f2c2ecbc2000000000000000000000000000000000000000000000000000000007bffffffffffffffffffffffffffffffffffffffffffffffffffffffff19166020820180517bffffffffffffffffffffffffffffffffffffffffffffffffffffffff838183161783525050505062002dee565b50565b6000620029843062002e17565b15905090565b62002996828262002a42565b5050565b620029a6828262001dd1565b62002a3e57620029ce8173ffffffffffffffffffffffffffffffffffffffff16601462002e3a565b620029de8360001c602062002e3a565b604051602001620029f192919062003c44565b6040516020818303038152906040526040517f08c379a000000000000000000000000000000000000000000000000000000000815260040162002a35919062003ddb565b60405180910390fd5b5050565b62002a4e828262001dd1565b62002b2357600180600084815260200190815260200160002060000160008373ffffffffffffffffffffffffffffffffffffffff1673ffffffffffffffffffffffffffffffffffffffff16815260200190815260200160002060006101000a81548160ff02191690831515021790555062002ac862002798565b73ffffffffffffffffffffffffffffffffffffffff168173ffffffffffffffffffffffffffffffffffffffff16837f2f8788117e7eff1d82e926ec794901d17c78024a50270940304540a733656f0d60405160405180910390a45b5050565b62002b33828262001dd1565b1562002c0a5760006001600084815260200190815260200160002060000160008373ffffffffffffffffffffffffffffffffffffffff1673ffffffffffffffffffffffffffffffffffffffff16815260200190815260200160002060006101000a81548160ff02191690831515021790555062002baf62002798565b73ffffffffffffffffffffffffffffffffffffffff168173ffffffffffffffffffffffffffffffffffffffff16837ff6391f5c32d9c69d2a47ea670b442974b53935d1edc7fd64eb21e047a839171b60405160405180910390a45b5050565b60008060029054906101000a900473ffffffffffffffffffffffffffffffffffffffff16905081600060026101000a81548173ffffffffffffffffffffffffffffffffffffffff021916908373ffffffffffffffffffffffffffffffffffffffff1602179055508173ffffffffffffffffffffffffffffffffffffffff168173ffffffffffffffffffffffffffffffffffffffff167f8be0079c531659141344cd1fd0a4f28419497f9722a3daafe3b4186f6b6457e060405160405180910390a35050565b6000811162002d19576040517f08c379a000000000000000000000000000000000000000000000000000000000815260040162002d109062003e43565b60405180910390fd5b8173ffffffffffffffffffffffffffffffffffffffff166323b872dd3330846040518463ffffffff1660e01b815260040162002d589392919062003cf5565b602060405180830381600087803b15801562002d7357600080fd5b505af115801562002d88573d6000803e3d6000fd5b505050506040513d601f19601f8201168201806040525081019062002dae919062003605565b507f9e71bc8eea02a63969f509818f2dafb9254532904319f9dbda79b67bd34a5f3d338260405162002de292919062003d32565b60405180910390a15050565b60008151905060006a636f6e736f6c652e6c6f679050602083016000808483855afa5050505050565b6000808273ffffffffffffffffffffffffffffffffffffffff163b119050919050565b60606000600283600262002e4f9190620040ea565b62002e5b919062004055565b67ffffffffffffffff81111562002e775762002e766200444b565b5b6040519080825280601f01601f19166020018201604052801562002eaa5781602001600182028036833780820191505090505b5090507f30000000000000000000000000000000000000000000000000000000000000008160008151811062002ee55762002ee46200441c565b5b60200101907effffffffffffffffffffffffffffffffffffffffffffffffffffffffffffff1916908160001a9053507f78000000000000000000000000000000000000000000000000000000000000008160018151811062002f4c5762002f4b6200441c565b5b60200101907effffffffffffffffffffffffffffffffffffffffffffffffffffffffffffff1916908160001a9053506000600184600262002f8e9190620040ea565b62002f9a919062004055565b90505b600181111562003044577f3031323334353637383961626364656600000000000000000000000000000000600f86166010811062002fe05762002fdf6200441c565b5b1a60f81b82828151811062002ffa5762002ff96200441c565b5b60200101907effffffffffffffffffffffffffffffffffffffffffffffffffffffffffffff1916908160001a905350600485901c9450806200303c906200423c565b905062002f9d565b50600084146200308b576040517f08c379a0000000000000000000000000000000000000000000000000000000008152600401620030829062003dff565b60405180910390fd5b8091505092915050565b6040518060800160405280600490602082028036833780820191505090505090565b6040518060400160405280600290602082028036833780820191505090505090565b826002810192821562003148579160200282015b82811115620031475782518260006101000a81548173ffffffffffffffffffffffffffffffffffffffff021916908373ffffffffffffffffffffffffffffffffffffffff16021790555091602001919060010190620030ed565b5b5090506200315791906200326f565b5090565b82805462003169906200426b565b90600052602060002090601f0160209004810192826200318d5760008555620031d9565b82601f10620031a857803560ff1916838001178555620031d9565b82800160010185558215620031d9579182015b82811115620031d8578235825591602001919060010190620031bb565b5b509050620031e891906200326f565b5090565b610f9f806200474083390190565b82805482825590600052602060002090810192821562003239579160200282015b82811115620032385782518255916020019190600101906200321b565b5b5090506200324891906200326f565b5090565b604051806101000160405280600890602082028036833780820191505090505090565b5b808211156200328a57600081600090555060010162003270565b5090565b6000620032a56200329f8462003f55565b62003f2c565b90508083825260208201905082856020860282011115620032cb57620032ca62004484565b5b60005b85811015620032ff5781620032e4888262003384565b845260208401935060208301925050600181019050620032ce565b5050509392505050565b6000620033206200331a8462003f84565b62003f2c565b9050808382526020820190508285602086028201111562003346576200334562004484565b5b60005b858110156200337a57816200335f8882620034bc565b84526020840193506020830192505060018101905062003349565b5050509392505050565b6000813590506200339581620046bd565b92915050565b600082601f830112620033b357620033b26200447f565b5b8135620033c58482602086016200328e565b91505092915050565b600082601f830112620033e657620033e56200447f565b5b8135620033f884826020860162003309565b91505092915050565b6000813590506200341281620046d7565b92915050565b6000815190506200342981620046d7565b92915050565b6000813590506200344081620046f1565b92915050565b60008135905062003457816200470b565b92915050565b60008083601f8401126200347657620034756200447f565b5b8235905067ffffffffffffffff8111156200349657620034956200447a565b5b602083019150836001820283011115620034b557620034b462004484565b5b9250929050565b600081359050620034cd8162004725565b92915050565b600081519050620034e48162004725565b92915050565b6000602082840312156200350357620035026200448e565b5b6000620035138482850162003384565b91505092915050565b600080604083850312156200353657620035356200448e565b5b6000620035468582860162003384565b92505060206200355985828601620034bc565b9150509250929050565b6000602082840312156200357c576200357b6200448e565b5b600082013567ffffffffffffffff8111156200359d576200359c62004489565b5b620035ab848285016200339b565b91505092915050565b600060208284031215620035cd57620035cc6200448e565b5b600082013567ffffffffffffffff811115620035ee57620035ed62004489565b5b620035fc84828501620033ce565b91505092915050565b6000602082840312156200361e576200361d6200448e565b5b60006200362e8482850162003418565b91505092915050565b60006020828403121562003650576200364f6200448e565b5b600062003660848285016200342f565b91505092915050565b600080604083850312156200368357620036826200448e565b5b600062003693858286016200342f565b9250506020620036a68582860162003384565b9150509250929050565b600060208284031215620036c957620036c86200448e565b5b6000620036d98482850162003446565b91505092915050565b6000806000806000806000806000806101208b8d0312156200370957620037086200448e565b5b60008b013567ffffffffffffffff8111156200372a576200372962004489565b5b620037388d828e016200345d565b9a509a505060206200374d8d828e01620034bc565b9850506040620037608d828e01620034bc565b9750506060620037738d828e0162003401565b9650506080620037868d828e0162003384565b95505060a0620037998d828e0162003384565b94505060c0620037ac8d828e0162003384565b93505060e0620037bf8d828e0162003384565b925050610100620037d38d828e0162003384565b9150509295989b9194979a5092959850565b600060208284031215620037fe57620037fd6200448e565b5b60006200380e84828501620034bc565b91505092915050565b60006020828403121562003830576200382f6200448e565b5b60006200384084828501620034d3565b91505092915050565b600062003857838362003c07565b60208301905092915050565b6200386e8162004186565b82525050565b62003889620038838262004186565b62004325565b82525050565b6200389a8162003fe2565b620038a681846200401d565b9250620038b38262003fb3565b8060005b83811015620038ea578151620038ce878262003849565b9650620038db8362004003565b925050600181019050620038b7565b505050505050565b6000620038ff8262003fed565b6200390b818562004028565b9350620039188362003fbd565b8060005b838110156200394f57815162003933888262003849565b9750620039408362004010565b9250506001810190506200391c565b5085935050505092915050565b62003967816200419a565b82525050565b6200397881620041a6565b82525050565b60006200398b8262003ff8565b62003997818562004039565b9350620039a981856020860162004206565b620039b48162004493565b840191505092915050565b6000620039cc8262003ff8565b620039d881856200404a565b9350620039ea81856020860162004206565b80840191505092915050565b6000815462003a05816200426b565b62003a1181866200404a565b9450600182166000811462003a2f576001811462003a415762003a78565b60ff1983168652818601935062003a78565b62003a4c8562003fcd565b60005b8381101562003a705781548189015260018201915060208101905062003a4f565b838801955050505b50505092915050565b600062003a9060208362004039565b915062003a9d82620044b1565b602082019050919050565b600062003ab760268362004039565b915062003ac482620044da565b604082019050919050565b600062003ade600e8362004039565b915062003aeb8262004529565b602082019050919050565b600062003b05601e8362004039565b915062003b128262004552565b602082019050919050565b600062003b2c602e8362004039565b915062003b39826200457b565b604082019050919050565b600062003b5360208362004039565b915062003b6082620045ca565b602082019050919050565b600062003b7a6017836200404a565b915062003b8782620045f3565b601782019050919050565b600062003ba160178362004039565b915062003bae826200461c565b602082019050919050565b600062003bc86011836200404a565b915062003bd58262004645565b601182019050919050565b600062003bef602f8362004039565b915062003bfc826200466e565b604082019050919050565b62003c1281620041fc565b82525050565b62003c2381620041fc565b82525050565b62003c3e62003c3882620041fc565b6200434d565b82525050565b600062003c518262003b6b565b915062003c5f8285620039bf565b915062003c6c8262003bb9565b915062003c7a8284620039bf565b91508190509392505050565b600062003c94828762003c29565b60208201915062003ca6828662003874565b60148201915062003cb8828562003c29565b60208201915062003cca8284620039f6565b915081905095945050505050565b600060208201905062003cef600083018462003863565b92915050565b600060608201905062003d0c600083018662003863565b62003d1b602083018562003863565b62003d2a604083018462003c18565b949350505050565b600060408201905062003d49600083018562003863565b62003d58602083018462003c18565b9392505050565b60006101008201905062003d7760008301846200388f565b92915050565b6000602082019050818103600083015262003d998184620038f2565b905092915050565b600060208201905062003db860008301846200395c565b92915050565b600060208201905062003dd560008301846200396d565b92915050565b6000602082019050818103600083015262003df781846200397e565b905092915050565b6000602082019050818103600083015262003e1a8162003a81565b9050919050565b6000602082019050818103600083015262003e3c8162003aa8565b9050919050565b6000602082019050818103600083015262003e5e8162003acf565b9050919050565b6000602082019050818103600083015262003e808162003af6565b9050919050565b6000602082019050818103600083015262003ea28162003b1d565b9050919050565b6000602082019050818103600083015262003ec48162003b44565b9050919050565b6000602082019050818103600083015262003ee68162003b92565b9050919050565b6000602082019050818103600083015262003f088162003be0565b9050919050565b600060208201905062003f26600083018462003c18565b92915050565b600062003f3862003f4b565b905062003f468282620042a1565b919050565b6000604051905090565b600067ffffffffffffffff82111562003f735762003f726200444b565b5b602082029050602081019050919050565b600067ffffffffffffffff82111562003fa25762003fa16200444b565b5b602082029050602081019050919050565b6000819050919050565b6000819050602082019050919050565b60008190508160005260206000209050919050565b600060089050919050565b600081519050919050565b600081519050919050565b6000602082019050919050565b6000602082019050919050565b600081905092915050565b600082825260208201905092915050565b600082825260208201905092915050565b600081905092915050565b60006200406282620041fc565b91506200406f83620041fc565b9250827fffffffffffffffffffffffffffffffffffffffffffffffffffffffffffffffff03821115620040a757620040a66200438f565b5b828201905092915050565b6000620040bf82620041fc565b9150620040cc83620041fc565b925082620040df57620040de620043be565b5b828204905092915050565b6000620040f782620041fc565b91506200410483620041fc565b9250817fffffffffffffffffffffffffffffffffffffffffffffffffffffffffffffffff048311821515161562004140576200413f6200438f565b5b828202905092915050565b60006200415882620041fc565b91506200416583620041fc565b9250828210156200417b576200417a6200438f565b5b828203905092915050565b60006200419382620041dc565b9050919050565b60008115159050919050565b6000819050919050565b60007fffffffff0000000000000000000000000000000000000000000000000000000082169050919050565b600073ffffffffffffffffffffffffffffffffffffffff82169050919050565b6000819050919050565b60005b838110156200422657808201518184015260208101905062004209565b8381111562004236576000848401525b50505050565b60006200424982620041fc565b9150600082141562004260576200425f6200438f565b5b600182039050919050565b600060028204905060018216806200428457607f821691505b602082108114156200429b576200429a620043ed565b5b50919050565b620042ac8262004493565b810181811067ffffffffffffffff82111715620042ce57620042cd6200444b565b5b80604052505050565b6000620042e482620041fc565b91507fffffffffffffffffffffffffffffffffffffffffffffffffffffffffffffffff8214156200431a57620043196200438f565b5b600182019050919050565b6000620043328262004339565b9050919050565b60006200434682620044a4565b9050919050565b6000819050919050565b60006200436482620041fc565b91506200437183620041fc565b925082620043845762004383620043be565b5b828206905092915050565b7f4e487b7100000000000000000000000000000000000000000000000000000000600052601160045260246000fd5b7f4e487b7100000000000000000000000000000000000000000000000000000000600052601260045260246000fd5b7f4e487b7100000000000000000000000000000000000000000000000000000000600052602260045260246000fd5b7f4e487b7100000000000000000000000000000000000000000000000000000000600052603260045260246000fd5b7f4e487b7100000000000000000000000000000000000000000000000000000000600052604160045260246000fd5b600080fd5b600080fd5b600080fd5b600080fd5b600080fd5b6000601f19601f8301169050919050565b60008160601b9050919050565b7f537472696e67733a20686578206c656e67746820696e73756666696369656e74600082015250565b7f4f776e61626c653a206e6577206f776e657220697320746865207a65726f206160008201527f6464726573730000000000000000000000000000000000000000000000000000602082015250565b7f43616e6e6f74207374616b652030000000000000000000000000000000000000600082015250565b7f6c696e657570206973206c6f636b656420666f7220746865207765656b210000600082015250565b7f496e697469616c697a61626c653a20636f6e747261637420697320616c72656160008201527f647920696e697469616c697a6564000000000000000000000000000000000000602082015250565b7f4f776e61626c653a2063616c6c6572206973206e6f7420746865206f776e6572600082015250565b7f416363657373436f6e74726f6c3a206163636f756e7420000000000000000000600082015250565b7f4c656167756520456e74727920697320436c6f73656421000000000000000000600082015250565b7f206973206d697373696e6720726f6c6520000000000000000000000000000000600082015250565b7f416363657373436f6e74726f6c3a2063616e206f6e6c792072656e6f756e636560008201527f20726f6c657320666f722073656c660000000000000000000000000000000000602082015250565b620046c88162004186565b8114620046d457600080fd5b50565b620046e2816200419a565b8114620046ee57600080fd5b50565b620046fc81620041a6565b81146200470857600080fd5b50565b6200471681620041b0565b81146200472257600080fd5b50565b6200473081620041fc565b81146200473c57600080fd5b5056fe608060405234801561001057600080fd5b5061002d61002261003260201b60201c565b61003a60201b60201c565b6100fe565b600033905090565b60008060009054906101000a900473ffffffffffffffffffffffffffffffffffffffff169050816000806101000a81548173ffffffffffffffffffffffffffffffffffffffff021916908373ffffffffffffffffffffffffffffffffffffffff1602179055508173ffffffffffffffffffffffffffffffffffffffff168173ffffffffffffffffffffffffffffffffffffffff167f8be0079c531659141344cd1fd0a4f28419497f9722a3daafe3b4186f6b6457e060405160405180910390a35050565b610e928061010d6000396000f3fe608060405234801561001057600080fd5b50600436106100935760003560e01c80638da5cb5b116100665780638da5cb5b146101325780639b19251a14610150578063dc9a153514610180578063e2ec6ec31461019e578063f2fde38b146101ce57610093565b806324953eaa14610098578063286dd3f5146100c8578063715018a6146100f85780637b9417c814610102575b600080fd5b6100b260048036038101906100ad9190610a4a565b6101ea565b6040516100bf9190610b12565b60405180910390f35b6100e260048036038101906100dd9190610a1d565b6102d4565b6040516100ef9190610b12565b60405180910390f35b610100610457565b005b61011c60048036038101906101179190610a1d565b6104df565b6040516101299190610b12565b60405180910390f35b61013a610660565b6040516101479190610af7565b60405180910390f35b61016a60048036038101906101659190610a1d565b610689565b6040516101779190610b12565b60405180910390f35b6101886106a9565b6040516101959190610b12565b60405180910390f35b6101b860048036038101906101b39190610a4a565b6106bc565b6040516101c59190610b12565b60405180910390f35b6101e860048036038101906101e39190610a1d565b6107a6565b005b60006101f461089e565b73ffffffffffffffffffffffffffffffffffffffff16610212610660565b73ffffffffffffffffffffffffffffffffffffffff1614610268576040517f08c379a000000000000000000000000000000000000000000000000000000000815260040161025f90610b4d565b60405180910390fd5b60005b82518110156102ce5761029783828151811061028a57610289610d4a565b5b60200260200101516102d4565b156102bb576001600260008282546102af9190610c25565b92505081905550600191505b80806102c690610cd2565b91505061026b565b50919050565b60006102de61089e565b73ffffffffffffffffffffffffffffffffffffffff166102fc610660565b73ffffffffffffffffffffffffffffffffffffffff1614610352576040517f08c379a000000000000000000000000000000000000000000000000000000000815260040161034990610b4d565b60405180910390fd5b600160008373ffffffffffffffffffffffffffffffffffffffff1673ffffffffffffffffffffffffffffffffffffffff16815260200190815260200160002060009054906101000a900460ff1615610452576000600160008473ffffffffffffffffffffffffffffffffffffffff1673ffffffffffffffffffffffffffffffffffffffff16815260200190815260200160002060006101000a81548160ff0219169083151502179055507ff1abf01a1043b7c244d128e8595cf0c1d10743b022b03a02dffd8ca3bf729f5a8260405161042b9190610af7565b60405180910390a16001600260008282546104469190610c25565b92505081905550600190505b919050565b61045f61089e565b73ffffffffffffffffffffffffffffffffffffffff1661047d610660565b73ffffffffffffffffffffffffffffffffffffffff16146104d3576040517f08c379a00000000000000000000000000000000000000000000000000000000081526004016104ca90610b4d565b60405180910390fd5b6104dd60006108a6565b565b60006104e961089e565b73ffffffffffffffffffffffffffffffffffffffff16610507610660565b73ffffffffffffffffffffffffffffffffffffffff161461055d576040517f08c379a000000000000000000000000000000000000000000000000000000000815260040161055490610b4d565b60405180910390fd5b600160008373ffffffffffffffffffffffffffffffffffffffff1673ffffffffffffffffffffffffffffffffffffffff16815260200190815260200160002060009054906101000a900460ff1661065b5760018060008473ffffffffffffffffffffffffffffffffffffffff1673ffffffffffffffffffffffffffffffffffffffff16815260200190815260200160002060006101000a81548160ff0219169083151502179055507fd1bba68c128cc3f427e5831b3c6f99f480b6efa6b9e80c757768f6124158cc3f826040516106349190610af7565b60405180910390a160016002600082825461064f9190610bcf565b92505081905550600190505b919050565b60008060009054906101000a900473ffffffffffffffffffffffffffffffffffffffff16905090565b60016020528060005260406000206000915054906101000a900460ff1681565b600360009054906101000a900460ff1681565b60006106c661089e565b73ffffffffffffffffffffffffffffffffffffffff166106e4610660565b73ffffffffffffffffffffffffffffffffffffffff161461073a576040517f08c379a000000000000000000000000000000000000000000000000000000000815260040161073190610b4d565b60405180910390fd5b60005b82518110156107a05761076983828151811061075c5761075b610d4a565b5b60200260200101516104df565b1561078d576001600260008282546107819190610bcf565b92505081905550600191505b808061079890610cd2565b91505061073d565b50919050565b6107ae61089e565b73ffffffffffffffffffffffffffffffffffffffff166107cc610660565b73ffffffffffffffffffffffffffffffffffffffff1614610822576040517f08c379a000000000000000000000000000000000000000000000000000000000815260040161081990610b4d565b60405180910390fd5b600073ffffffffffffffffffffffffffffffffffffffff168173ffffffffffffffffffffffffffffffffffffffff161415610892576040517f08c379a000000000000000000000000000000000000000000000000000000000815260040161088990610b2d565b60405180910390fd5b61089b816108a6565b50565b600033905090565b60008060009054906101000a900473ffffffffffffffffffffffffffffffffffffffff169050816000806101000a81548173ffffffffffffffffffffffffffffffffffffffff021916908373ffffffffffffffffffffffffffffffffffffffff1602179055508173ffffffffffffffffffffffffffffffffffffffff168173ffffffffffffffffffffffffffffffffffffffff167f8be0079c531659141344cd1fd0a4f28419497f9722a3daafe3b4186f6b6457e060405160405180910390a35050565b600061097d61097884610b92565b610b6d565b905080838252602082019050828560208602820111156109a05761099f610dad565b5b60005b858110156109d057816109b688826109da565b8452602084019350602083019250506001810190506109a3565b5050509392505050565b6000813590506109e981610e45565b92915050565b600082601f830112610a0457610a03610da8565b5b8135610a1484826020860161096a565b91505092915050565b600060208284031215610a3357610a32610db7565b5b6000610a41848285016109da565b91505092915050565b600060208284031215610a6057610a5f610db7565b5b600082013567ffffffffffffffff811115610a7e57610a7d610db2565b5b610a8a848285016109ef565b91505092915050565b610a9c81610c59565b82525050565b610aab81610c6b565b82525050565b6000610abe602683610bbe565b9150610ac982610dcd565b604082019050919050565b6000610ae1602083610bbe565b9150610aec82610e1c565b602082019050919050565b6000602082019050610b0c6000830184610a93565b92915050565b6000602082019050610b276000830184610aa2565b92915050565b60006020820190508181036000830152610b4681610ab1565b9050919050565b60006020820190508181036000830152610b6681610ad4565b9050919050565b6000610b77610b88565b9050610b838282610ca1565b919050565b6000604051905090565b600067ffffffffffffffff821115610bad57610bac610d79565b5b602082029050602081019050919050565b600082825260208201905092915050565b6000610bda82610c97565b9150610be583610c97565b9250827fffffffffffffffffffffffffffffffffffffffffffffffffffffffffffffffff03821115610c1a57610c19610d1b565b5b828201905092915050565b6000610c3082610c97565b9150610c3b83610c97565b925082821015610c4e57610c4d610d1b565b5b828203905092915050565b6000610c6482610c77565b9050919050565b60008115159050919050565b600073ffffffffffffffffffffffffffffffffffffffff82169050919050565b6000819050919050565b610caa82610dbc565b810181811067ffffffffffffffff82111715610cc957610cc8610d79565b5b80604052505050565b6000610cdd82610c97565b91507fffffffffffffffffffffffffffffffffffffffffffffffffffffffffffffffff821415610d1057610d0f610d1b565b5b600182019050919050565b7f4e487b7100000000000000000000000000000000000000000000000000000000600052601160045260246000fd5b7f4e487b7100000000000000000000000000000000000000000000000000000000600052603260045260246000fd5b7f4e487b7100000000000000000000000000000000000000000000000000000000600052604160045260246000fd5b600080fd5b600080fd5b600080fd5b600080fd5b6000601f19601f8301169050919050565b7f4f776e61626c653a206e6577206f776e657220697320746865207a65726f206160008201527f6464726573730000000000000000000000000000000000000000000000000000602082015250565b7f4f776e61626c653a2063616c6c6572206973206e6f7420746865206f776e6572600082015250565b610e4e81610c59565b8114610e5957600080fd5b5056fea2646970667358221220070224275ad0b13d0a847fbeb4a423ae740dee42968a8d236c8eedaef3b3cc5764736f6c63430008070033a2646970667358221220f5cdf1484c812233aad66148d89354f81b0661b935a8563fb64fa750c9844bbe64736f6c63430008070033",
  "linkReferences": {},
  "deployedLinkReferences": {}
}