{
  "_format": "hh-sol-artifact-1",
  "contractName": "LeagueOfLegendsLogic",
  "sourceName": "contracts/LeagueOfLegendsLogic.sol",
  "abi": [
    {
      "anonymous": false,
      "inputs": [
        {
          "indexed": false,
          "internalType": "address",
          "name": "sender",
          "type": "address"
        },
        {
          "indexed": false,
          "internalType": "uint256",
          "name": "amount",
          "type": "uint256"
        },
        {
          "indexed": false,
          "internalType": "address",
          "name": "leagueAddress",
          "type": "address"
        }
      ],
      "name": "Staked",
      "type": "event"
    },
    {
      "anonymous": false,
      "inputs": [
        {
          "indexed": false,
          "internalType": "address[]",
          "name": "winner",
          "type": "address[]"
        },
        {
          "indexed": false,
          "internalType": "uint256",
          "name": "prizePotPerWinner",
          "type": "uint256"
        }
      ],
      "name": "leagueEnded",
      "type": "event"
    },
    {
      "anonymous": false,
      "inputs": [
        {
          "indexed": false,
          "internalType": "address",
          "name": "sender",
          "type": "address"
        },
        {
          "indexed": false,
          "internalType": "address",
          "name": "contractAddress",
          "type": "address"
        }
      ],
      "name": "testUSDCDeployed",
      "type": "event"
    },
    {
      "inputs": [
        {
          "internalType": "address",
          "name": "_userToAdd",
          "type": "address"
        }
      ],
      "name": "addUserToWhitelist",
      "outputs": [],
      "stateMutability": "nonpayable",
      "type": "function"
    },
    {
      "inputs": [],
      "name": "admin",
      "outputs": [
        {
          "internalType": "address",
          "name": "",
          "type": "address"
        }
      ],
      "stateMutability": "view",
      "type": "function"
    },
    {
      "inputs": [],
      "name": "currentWeekNum",
      "outputs": [
        {
          "internalType": "uint256",
          "name": "",
          "type": "uint256"
        }
      ],
      "stateMutability": "view",
      "type": "function"
    },
    {
      "inputs": [],
      "name": "evaluateMatches",
      "outputs": [],
      "stateMutability": "nonpayable",
      "type": "function"
    },
    {
      "inputs": [],
      "name": "getContractUSDCBalance",
      "outputs": [
        {
          "internalType": "uint256",
          "name": "",
          "type": "uint256"
        }
      ],
      "stateMutability": "view",
      "type": "function"
    },
    {
      "inputs": [
        {
          "internalType": "uint256",
          "name": "index",
          "type": "uint256"
        }
      ],
      "name": "getLeagueMember",
      "outputs": [
        {
          "internalType": "address",
          "name": "",
          "type": "address"
        }
      ],
      "stateMutability": "view",
      "type": "function"
    },
    {
      "inputs": [
        {
          "internalType": "address",
          "name": "_user",
          "type": "address"
        }
      ],
      "name": "getLineup",
      "outputs": [
        {
          "internalType": "uint256[]",
          "name": "",
          "type": "uint256[]"
        }
      ],
      "stateMutability": "view",
      "type": "function"
    },
    {
      "inputs": [],
      "name": "getLineupIsLocked",
      "outputs": [
        {
          "internalType": "bool",
          "name": "",
          "type": "bool"
        }
      ],
      "stateMutability": "view",
      "type": "function"
    },
    {
      "inputs": [
        {
          "internalType": "uint256",
          "name": "_week",
          "type": "uint256"
        }
      ],
      "name": "getScheduleForWeek",
      "outputs": [
        {
          "components": [
            {
              "internalType": "address[2]",
              "name": "players",
              "type": "address[2]"
            }
          ],
          "internalType": "struct LeagueOfLegendsLogic.Matchup[]",
          "name": "",
          "type": "tuple[]"
        }
      ],
      "stateMutability": "view",
      "type": "function"
    },
    {
      "inputs": [],
      "name": "getUserRecord",
      "outputs": [
        {
          "internalType": "uint256[]",
          "name": "",
          "type": "uint256[]"
        }
      ],
      "stateMutability": "view",
      "type": "function"
    },
    {
      "inputs": [
        {
          "internalType": "address",
          "name": "",
          "type": "address"
        }
      ],
      "name": "inLeague",
      "outputs": [
        {
          "internalType": "bool",
          "name": "",
          "type": "bool"
        }
      ],
      "stateMutability": "view",
      "type": "function"
    },
    {
      "inputs": [
        {
          "internalType": "string",
          "name": "_name",
          "type": "string"
        },
        {
          "internalType": "uint256",
          "name": "_stakeAmount",
          "type": "uint256"
        },
        {
          "internalType": "bool",
          "name": "_isPublic",
          "type": "bool"
        },
        {
          "internalType": "address",
          "name": "athletesDataStorageAddress",
          "type": "address"
        },
        {
          "internalType": "address",
          "name": "_admin",
          "type": "address"
        },
        {
          "internalType": "address",
          "name": "_rinkebyUSDCAddress",
          "type": "address"
        },
        {
          "internalType": "address",
          "name": "_testUSDCAddress",
          "type": "address"
        },
        {
          "internalType": "address",
          "name": "_gameItemsContractAddress",
          "type": "address"
        },
        {
          "internalType": "address",
          "name": "_teamDiffAddress",
          "type": "address"
        },
        {
          "internalType": "address",
          "name": "_leagueMakerContractAddress",
          "type": "address"
        }
      ],
      "name": "initialize",
      "outputs": [],
      "stateMutability": "nonpayable",
      "type": "function"
    },
    {
      "inputs": [],
      "name": "joinLeague",
      "outputs": [],
      "stateMutability": "nonpayable",
      "type": "function"
    },
    {
      "inputs": [],
      "name": "leagueEntryIsClosed",
      "outputs": [
        {
          "internalType": "bool",
          "name": "",
          "type": "bool"
        }
      ],
      "stateMutability": "view",
      "type": "function"
    },
    {
      "inputs": [
        {
          "internalType": "uint256",
          "name": "",
          "type": "uint256"
        }
      ],
      "name": "leagueMembers",
      "outputs": [
        {
          "internalType": "address",
          "name": "",
          "type": "address"
        }
      ],
      "stateMutability": "view",
      "type": "function"
    },
    {
      "inputs": [],
      "name": "leagueName",
      "outputs": [
        {
          "internalType": "string",
          "name": "",
          "type": "string"
        }
      ],
      "stateMutability": "view",
      "type": "function"
    },
    {
      "inputs": [],
      "name": "lineupIsLocked",
      "outputs": [
        {
          "internalType": "bool",
          "name": "",
          "type": "bool"
        }
      ],
      "stateMutability": "view",
      "type": "function"
    },
    {
      "inputs": [],
      "name": "lockLineup",
      "outputs": [],
      "stateMutability": "nonpayable",
      "type": "function"
    },
    {
      "inputs": [],
      "name": "numWeeks",
      "outputs": [
        {
          "internalType": "uint256",
          "name": "",
          "type": "uint256"
        }
      ],
      "stateMutability": "view",
      "type": "function"
    },
    {
      "inputs": [],
      "name": "onLeagueEnd",
      "outputs": [],
      "stateMutability": "nonpayable",
      "type": "function"
    },
    {
      "inputs": [],
      "name": "rinkebyUSDC",
      "outputs": [
        {
          "internalType": "contract IERC20",
          "name": "",
          "type": "address"
        }
      ],
      "stateMutability": "view",
      "type": "function"
    },
    {
      "inputs": [],
      "name": "rinkebyUSDCAddress",
      "outputs": [
        {
          "internalType": "address",
          "name": "",
          "type": "address"
        }
      ],
      "stateMutability": "view",
      "type": "function"
    },
    {
      "inputs": [
        {
          "internalType": "uint256",
          "name": "athleteId",
          "type": "uint256"
        },
        {
          "internalType": "uint256",
          "name": "position",
          "type": "uint256"
        }
      ],
      "name": "setAthleteInLineup",
      "outputs": [],
      "stateMutability": "nonpayable",
      "type": "function"
    },
    {
      "inputs": [],
      "name": "setLeagueEntryIsClosed",
      "outputs": [],
      "stateMutability": "nonpayable",
      "type": "function"
    },
    {
      "inputs": [],
      "name": "setLeagueSchedule",
      "outputs": [],
      "stateMutability": "nonpayable",
      "type": "function"
    },
    {
      "inputs": [
        {
          "internalType": "uint256[]",
          "name": "athleteIds",
          "type": "uint256[]"
        }
      ],
      "name": "setLineup",
      "outputs": [],
      "stateMutability": "nonpayable",
      "type": "function"
    },
    {
      "inputs": [],
      "name": "stakeAmount",
      "outputs": [
        {
          "internalType": "uint256",
          "name": "",
          "type": "uint256"
        }
      ],
      "stateMutability": "view",
      "type": "function"
    },
    {
      "inputs": [],
      "name": "teamDiffAddress",
      "outputs": [
        {
          "internalType": "address",
          "name": "",
          "type": "address"
        }
      ],
      "stateMutability": "view",
      "type": "function"
    },
    {
      "inputs": [],
      "name": "unlockLineup",
      "outputs": [],
      "stateMutability": "nonpayable",
      "type": "function"
    },
    {
      "inputs": [
        {
          "internalType": "address",
          "name": "",
          "type": "address"
        },
        {
          "internalType": "uint256",
          "name": "",
          "type": "uint256"
        }
      ],
      "name": "userToLineup",
      "outputs": [
        {
          "internalType": "uint256",
          "name": "",
          "type": "uint256"
        }
      ],
      "stateMutability": "view",
      "type": "function"
    },
    {
      "inputs": [
        {
          "internalType": "address",
          "name": "",
          "type": "address"
        }
      ],
      "name": "userToPoints",
      "outputs": [
        {
          "internalType": "uint256",
          "name": "",
          "type": "uint256"
        }
      ],
      "stateMutability": "view",
      "type": "function"
    },
    {
      "inputs": [
        {
          "internalType": "address",
          "name": "",
          "type": "address"
        },
        {
          "internalType": "uint256",
          "name": "",
          "type": "uint256"
        }
      ],
      "name": "userToRecord",
      "outputs": [
        {
          "internalType": "uint256",
          "name": "",
          "type": "uint256"
        }
      ],
      "stateMutability": "view",
      "type": "function"
    },
    {
      "inputs": [],
      "name": "whitelistContract",
      "outputs": [
        {
          "internalType": "contract Whitelist",
          "name": "",
          "type": "address"
        }
      ],
      "stateMutability": "view",
      "type": "function"
    }
  ],
  "bytecode": "0x608060405234801561001057600080fd5b506001808190555061545c806100276000396000f3fe60806040523480156200001157600080fd5b50600436106200022a5760003560e01c8063747b80501162000135578063c8be3b5b11620000bd578063e5f7322f1162000087578063e5f7322f14620005bf578063ee90080f14620005f5578063f612121a146200062b578063f851a440146200064b578063f8816045146200066d576200022a565b8063c8be3b5b1462000565578063c99fea941462000571578063cff56003146200057d578063e4c9066b14620005b3576200022a565b80639122ce6d11620000ff5780639122ce6d14620004e1578063a2bc091a1462000517578063a949a9d71462000523578063b47f86281462000545576200022a565b8063747b8050146200045b5780637eed33f1146200047b578063841abf6e146200049d57806384900b0414620004bf576200022a565b806327311b3211620001b95780633c3ae13f11620001835780633c3ae13f14620003d557806352e6e5f314620003f557806360c7dc4714620004175780636cc15ad51462000439576200022a565b806327311b32146200033b5780632ae6b135146200035d5780632d382ee01462000393578063305a578214620003c9576200022a565b80630c6f795911620001fb5780630c6f795914620002a15780631d803e0014620002d75780631dd7f8ca14620002e3578063267175db1462000305576200022a565b80622772c2146200022f578062b2476f14620002515780630635dbcb14620002735780630655465a1462000295575b600080fd5b620002396200068f565b604051620002489190620039bb565b60405180910390f35b6200025b62000747565b6040516200026a91906200359c565b60405180910390f35b6200027d6200076d565b6040516200028c919062003720565b60405180910390f35b6200029f62000780565b005b620002bf6004803603810190620002b9919062002d03565b6200088b565b604051620002ce9190620039bb565b60405180910390f35b620002e1620008bd565b005b620002ed62000d04565b604051620002fc91906200359c565b60405180910390f35b6200032360048036038101906200031d919062002ee7565b62000d2a565b6040516200033291906200359c565b60405180910390f35b6200034562000d6a565b60405162000354919062003720565b60405180910390f35b6200037b600480360381019062000375919062002cd1565b62000d81565b6040516200038a9190620039bb565b60405180910390f35b620003b16004803603810190620003ab919062002ee7565b62000d99565b604051620003c09190620036d8565b60405180910390f35b620003d362000e8a565b005b620003f36004803603810190620003ed919062002dcd565b62001002565b005b620003ff62001392565b6040516200040e9190620039bb565b60405180910390f35b6200042162001398565b604051620004309190620039bb565b60405180910390f35b620004436200139e565b60405162000452919062003720565b60405180910390f35b62000479600480360381019062000473919062002cd1565b620013b1565b005b620004856200158c565b604051620004949190620039bb565b60405180910390f35b620004a762001592565b604051620004b69190620037cb565b60405180910390f35b620004c962001628565b604051620004d891906200375a565b60405180910390f35b620004ff6004803603810190620004f9919062002cd1565b6200164e565b6040516200050e919062003720565b60405180910390f35b620005216200166e565b005b6200052d6200171e565b6040516200053c91906200373d565b60405180910390f35b6200056360048036038101906200055d919062002f4b565b62001744565b005b6200056f62001a0f565b005b6200057b62001abf565b005b6200059b600480360381019062000595919062002d03565b6200209f565b604051620005aa9190620039bb565b60405180910390f35b620005bd620020d1565b005b620005dd6004803603810190620005d7919062002cd1565b62002181565b604051620005ec9190620036fc565b60405180910390f35b6200061360048036038101906200060d919062002ee7565b6200221a565b6040516200062291906200359c565b60405180910390f35b62000649600480360381019062000643919062002d4a565b62002265565b005b620006556200274b565b6040516200066491906200359c565b60405180910390f35b6200067762002771565b604051620006869190620036fc565b60405180910390f35b6000601460009054906101000a900473ffffffffffffffffffffffffffffffffffffffff1673ffffffffffffffffffffffffffffffffffffffff166370a08231306040518263ffffffff1660e01b8152600401620006ee91906200359c565b60206040518083038186803b1580156200070757600080fd5b505afa1580156200071c573d6000803e3d6000fd5b505050506040513d601f19601f8201168201806040525081019062000742919062002f19565b905090565b601060009054906101000a900473ffffffffffffffffffffffffffffffffffffffff1681565b600760159054906101000a900460ff1681565b600760009054906101000a900473ffffffffffffffffffffffffffffffffffffffff1673ffffffffffffffffffffffffffffffffffffffff163373ffffffffffffffffffffffffffffffffffffffff161462000813576040517f08c379a00000000000000000000000000000000000000000000000000000000081526004016200080a90620038ef565b60405180910390fd5b73__$36fdb4e0c2cb91f3ceca5ea81b025328f3$__63d2c232b5600f600d60035460026040518563ffffffff1660e01b815260040162000857949392919062003777565b60006040518083038186803b1580156200087057600080fd5b505af415801562000885573d6000803e3d6000fd5b50505050565b60096020528160005260406000208181548110620008a857600080fd5b90600052602060002001600091509150505481565b600760009054906101000a900473ffffffffffffffffffffffffffffffffffffffff1673ffffffffffffffffffffffffffffffffffffffff163373ffffffffffffffffffffffffffffffffffffffff161462000950576040517f08c379a00000000000000000000000000000000000000000000000000000000081526004016200094790620038ef565b60405180910390fd5b6000600454600d8054905062000967919062003c62565b905073__$36fdb4e0c2cb91f3ceca5ea81b025328f3$__63cc9b40cc600d600b600e6040518463ffffffff1660e01b8152600401620009a99392919062003660565b60006040518083038186803b158015620009c257600080fd5b505af4158015620009d7573d6000803e3d6000fd5b5050505060005b600e8054905081101562000a4e5762000a38600e828154811062000a075762000a0662003f96565b5b9060005260206000200160009054906101000a900473ffffffffffffffffffffffffffffffffffffffff1662002808565b808062000a459062003ebb565b915050620009de565b506000600e805490508262000a64919062003c2a565b905062000aac6040518060400160405280601681526020017f4c65616775652077696e6e657273206c656e2069732000000000000000000000815250600e80549050620028a5565b62000aed6040518060400160405280601681526020017f5072697a65207065722077696e6e6572206973203a200000000000000000000081525082620028a5565b7f648f2405ea194f3e49fe1655279883b3474e63909ab7e4a579b051d548ad8389600e8260405162000b21929190620036a4565b60405180910390a160005b600e8054905081101562000cff57601460009054906101000a900473ffffffffffffffffffffffffffffffffffffffff1673ffffffffffffffffffffffffffffffffffffffff1663095ea7b330846040518363ffffffff1660e01b815260040162000b99929190620035f6565b602060405180830381600087803b15801562000bb457600080fd5b505af115801562000bc9573d6000803e3d6000fd5b505050506040513d601f19601f8201168201806040525081019062000bef919062002d9b565b50601460009054906101000a900473ffffffffffffffffffffffffffffffffffffffff1673ffffffffffffffffffffffffffffffffffffffff166323b872dd30600e848154811062000c465762000c4562003f96565b5b9060005260206000200160009054906101000a900473ffffffffffffffffffffffffffffffffffffffff16856040518463ffffffff1660e01b815260040162000c9293929190620035b9565b602060405180830381600087803b15801562000cad57600080fd5b505af115801562000cc2573d6000803e3d6000fd5b505050506040513d601f19601f8201168201806040525081019062000ce8919062002d9b565b50808062000cf69062003ebb565b91505062000b2c565b505050565b600760009054906101000a900473ffffffffffffffffffffffffffffffffffffffff1681565b600d818154811062000d3b57600080fd5b906000526020600020016000915054906101000a900473ffffffffffffffffffffffffffffffffffffffff1681565b6000600760159054906101000a900460ff16905090565b600b6020528060005260406000206000915090505481565b6060600f6000838152602001908152602001600020805480602002602001604051908101604052809291908181526020016000905b8282101562000e7f57838290600052602060002090600202016040518060200160405290816000820160028060200260405190810160405280929190826002801562000e66576020028201915b8160009054906101000a900473ffffffffffffffffffffffffffffffffffffffff1673ffffffffffffffffffffffffffffffffffffffff168152602001906001019080831162000e1b575b5050505050815250508152602001906001019062000dce565b505050509050919050565b600760009054906101000a900473ffffffffffffffffffffffffffffffffffffffff1673ffffffffffffffffffffffffffffffffffffffff163373ffffffffffffffffffffffffffffffffffffffff161462000f1d576040517f08c379a000000000000000000000000000000000000000000000000000000000815260040162000f1490620038ef565b60405180910390fd5b73__$36fdb4e0c2cb91f3ceca5ea81b025328f3$__63c930f4bc600554601160009054906101000a900473ffffffffffffffffffffffffffffffffffffffff166009600a600b600f6040518763ffffffff1660e01b815260040162000f8896959493929190620039d8565b60006040518083038186803b15801562000fa157600080fd5b505af415801562000fb6573d6000803e3d6000fd5b50505050600160035462000fcb919062003cc3565b600554141562000fe55762000fdf620008bd565b62001000565b6005600081548092919062000ffa9062003ebb565b91905055505b565b600060019054906101000a900460ff166200102c5760008054906101000a900460ff161562001037565b6200103662002945565b5b62001079576040517f08c379a00000000000000000000000000000000000000000000000000000000081526004016200107090620038ab565b60405180910390fd5b60008060019054906101000a900460ff161590508015620010ca576001600060016101000a81548160ff02191690831515021790555060016000806101000a81548160ff0219169083151502179055505b8b8b60029190620010dd92919062002a41565b50600860038190555086600660006101000a81548173ffffffffffffffffffffffffffffffffffffffff021916908373ffffffffffffffffffffffffffffffffffffffff160217905550896004819055506000600760146101000a81548160ff0219169083151502179055506000600760156101000a81548160ff02191690831515021790555087601160006101000a81548173ffffffffffffffffffffffffffffffffffffffff021916908373ffffffffffffffffffffffffffffffffffffffff16021790555081601360006101000a81548173ffffffffffffffffffffffffffffffffffffffff021916908373ffffffffffffffffffffffffffffffffffffffff16021790555088604051620011f59062002ad2565b62001201919062003720565b604051809103906000f0801580156200121e573d6000803e3d6000fd5b50601260006101000a81548173ffffffffffffffffffffffffffffffffffffffff021916908373ffffffffffffffffffffffffffffffffffffffff16021790555085601460006101000a81548173ffffffffffffffffffffffffffffffffffffffff021916908373ffffffffffffffffffffffffffffffffffffffff16021790555082600760006101000a81548173ffffffffffffffffffffffffffffffffffffffff021916908373ffffffffffffffffffffffffffffffffffffffff16021790555083601560006101000a81548173ffffffffffffffffffffffffffffffffffffffff021916908373ffffffffffffffffffffffffffffffffffffffff160217905550620013626040518060400160405280601281526020017f50726f787920696e697469616c697a656421000000000000000000000000000081525062002958565b8015620013845760008060016101000a81548160ff0219169083151502179055505b505050505050505050505050565b60055481565b60045481565b600760149054906101000a900460ff1681565b600660009054906101000a900473ffffffffffffffffffffffffffffffffffffffff1673ffffffffffffffffffffffffffffffffffffffff163373ffffffffffffffffffffffffffffffffffffffff161462001444576040517f08c379a00000000000000000000000000000000000000000000000000000000081526004016200143b90620038cd565b60405180910390fd5b601260009054906101000a900473ffffffffffffffffffffffffffffffffffffffff1673ffffffffffffffffffffffffffffffffffffffff16637b9417c8826040518263ffffffff1660e01b8152600401620014a191906200359c565b602060405180830381600087803b158015620014bc57600080fd5b505af1158015620014d1573d6000803e3d6000fd5b505050506040513d601f19601f82011682018060405250810190620014f7919062002d9b565b50601360009054906101000a900473ffffffffffffffffffffffffffffffffffffffff1673ffffffffffffffffffffffffffffffffffffffff1663771bd4ce826040518263ffffffff1660e01b81526004016200155591906200359c565b600060405180830381600087803b1580156200157057600080fd5b505af115801562001585573d6000803e3d6000fd5b5050505050565b60035481565b60028054620015a19062003e31565b80601f0160208091040260200160405190810160405280929190818152602001828054620015cf9062003e31565b8015620016205780601f10620015f45761010080835404028352916020019162001620565b820191906000526020600020905b8154815290600101906020018083116200160257829003601f168201915b505050505081565b601260009054906101000a900473ffffffffffffffffffffffffffffffffffffffff1681565b600c6020528060005260406000206000915054906101000a900460ff1681565b600760009054906101000a900473ffffffffffffffffffffffffffffffffffffffff1673ffffffffffffffffffffffffffffffffffffffff163373ffffffffffffffffffffffffffffffffffffffff161462001701576040517f08c379a0000000000000000000000000000000000000000000000000000000008152600401620016f890620038ef565b60405180910390fd5b6000600760156101000a81548160ff021916908315150217905550565b601460009054906101000a900473ffffffffffffffffffffffffffffffffffffffff1681565b600760159054906101000a900460ff161562001797576040517f08c379a00000000000000000000000000000000000000000000000000000000081526004016200178e9062003889565b60405180910390fd5b600c60003373ffffffffffffffffffffffffffffffffffffffff1673ffffffffffffffffffffffffffffffffffffffff16815260200190815260200160002060009054906101000a900460ff1662001826576040517f08c379a00000000000000000000000000000000000000000000000000000000081526004016200181d9062003911565b60405180910390fd5b6000601560009054906101000a900473ffffffffffffffffffffffffffffffffffffffff1673ffffffffffffffffffffffffffffffffffffffff1662fdd58e33856040518363ffffffff1660e01b815260040162001886929190620035f6565b60206040518083038186803b1580156200189f57600080fd5b505afa158015620018b4573d6000803e3d6000fd5b505050506040513d601f19601f82011682018060405250810190620018da919062002f19565b116200191d576040517f08c379a0000000000000000000000000000000000000000000000000000000008152600401620019149062003955565b60405180910390fd5b600a816200192c919062003c62565b82101580156200196657506001600a6001836200194a919062003bcd565b62001956919062003c62565b62001962919062003cc3565b8211155b620019a8576040517f08c379a00000000000000000000000000000000000000000000000000000000081526004016200199f9062003867565b60405180910390fd5b81600a60003373ffffffffffffffffffffffffffffffffffffffff1673ffffffffffffffffffffffffffffffffffffffff1681526020019081526020016000208281548110620019fd57620019fc62003f96565b5b90600052602060002001819055505050565b600760009054906101000a900473ffffffffffffffffffffffffffffffffffffffff1673ffffffffffffffffffffffffffffffffffffffff163373ffffffffffffffffffffffffffffffffffffffff161462001aa2576040517f08c379a000000000000000000000000000000000000000000000000000000000815260040162001a9990620038ef565b60405180910390fd5b6001600760156101000a81548160ff021916908315150217905550565b6002600154141562001b08576040517f08c379a000000000000000000000000000000000000000000000000000000000815260040162001aff9062003977565b60405180910390fd5b6002600181905550601260009054906101000a900473ffffffffffffffffffffffffffffffffffffffff1673ffffffffffffffffffffffffffffffffffffffff16639b19251a336040518263ffffffff1660e01b815260040162001b6d91906200359c565b60206040518083038186803b15801562001b8657600080fd5b505afa15801562001b9b573d6000803e3d6000fd5b505050506040513d601f19601f8201168201806040525081019062001bc1919062002d9b565b8062001c6d5750601260009054906101000a900473ffffffffffffffffffffffffffffffffffffffff1673ffffffffffffffffffffffffffffffffffffffff1663dc9a15356040518163ffffffff1660e01b815260040160206040518083038186803b15801562001c3157600080fd5b505afa15801562001c46573d6000803e3d6000fd5b505050506040513d601f19601f8201168201806040525081019062001c6c919062002d9b565b5b8062001cc65750600660009054906101000a900473ffffffffffffffffffffffffffffffffffffffff1673ffffffffffffffffffffffffffffffffffffffff163373ffffffffffffffffffffffffffffffffffffffff16145b62001d08576040517f08c379a000000000000000000000000000000000000000000000000000000000815260040162001cff9062003933565b60405180910390fd5b600760149054906101000a900460ff161562001d5b576040517f08c379a000000000000000000000000000000000000000000000000000000000815260040162001d529062003999565b60405180910390fd5b600c60003373ffffffffffffffffffffffffffffffffffffffff1673ffffffffffffffffffffffffffffffffffffffff16815260200190815260200160002060009054906101000a900460ff161562001deb576040517f08c379a000000000000000000000000000000000000000000000000000000000815260040162001de29062003845565b60405180910390fd5b600454601460009054906101000a900473ffffffffffffffffffffffffffffffffffffffff1673ffffffffffffffffffffffffffffffffffffffff166370a08231336040518263ffffffff1660e01b815260040162001e4b91906200359c565b60206040518083038186803b15801562001e6457600080fd5b505afa15801562001e79573d6000803e3d6000fd5b505050506040513d601f19601f8201168201806040525081019062001e9f919062002f19565b1162001ee2576040517f08c379a000000000000000000000000000000000000000000000000000000000815260040162001ed99062003823565b60405180910390fd5b6001600c60003373ffffffffffffffffffffffffffffffffffffffff1673ffffffffffffffffffffffffffffffffffffffff16815260200190815260200160002060006101000a81548160ff021916908315150217905550600d339080600181540180825580915050600190039060005260206000200160009091909190916101000a81548173ffffffffffffffffffffffffffffffffffffffff021916908373ffffffffffffffffffffffffffffffffffffffff160217905550601460009054906101000a900473ffffffffffffffffffffffffffffffffffffffff1673ffffffffffffffffffffffffffffffffffffffff166323b872dd33306004546040518463ffffffff1660e01b81526004016200200093929190620035b9565b602060405180830381600087803b1580156200201b57600080fd5b505af115801562002030573d6000803e3d6000fd5b505050506040513d601f19601f8201168201806040525081019062002056919062002d9b565b507f9f9e4044c5742cca66ca090b21552bac14645e68bad7a92364a9d9ff18111a1c33600454306040516200208e9392919062003623565b60405180910390a160018081905550565b600a6020528160005260406000208181548110620020bc57600080fd5b90600052602060002001600091509150505481565b600760009054906101000a900473ffffffffffffffffffffffffffffffffffffffff1673ffffffffffffffffffffffffffffffffffffffff163373ffffffffffffffffffffffffffffffffffffffff161462002164576040517f08c379a00000000000000000000000000000000000000000000000000000000081526004016200215b90620038ef565b60405180910390fd5b6001600760146101000a81548160ff021916908315150217905550565b6060600a60008373ffffffffffffffffffffffffffffffffffffffff1673ffffffffffffffffffffffffffffffffffffffff1681526020019081526020016000208054806020026020016040519081016040528092919081815260200182805480156200220e57602002820191906000526020600020905b815481526020019060010190808311620021f9575b50505050509050919050565b6000600d828154811062002233576200223262003f96565b5b9060005260206000200160009054906101000a900473ffffffffffffffffffffffffffffffffffffffff169050919050565b600760159054906101000a900460ff1615620022b8576040517f08c379a0000000000000000000000000000000000000000000000000000000008152600401620022af9062003889565b60405180910390fd5b600c60003373ffffffffffffffffffffffffffffffffffffffff1673ffffffffffffffffffffffffffffffffffffffff16815260200190815260200160002060009054906101000a900460ff1662002347576040517f08c379a00000000000000000000000000000000000000000000000000000000081526004016200233e9062003911565b60405180910390fd5b60005b600a60003373ffffffffffffffffffffffffffffffffffffffff1673ffffffffffffffffffffffffffffffffffffffff168152602001908152602001600020805490508110156200244c5760086000600a60003373ffffffffffffffffffffffffffffffffffffffff1673ffffffffffffffffffffffffffffffffffffffff1681526020019081526020016000208381548110620023ed57620023ec62003f96565b5b90600052602060002001548152602001908152602001600020600554600881106200241d576200241c62003f96565b5b016000815480929190620024319062003e02565b91905055508080620024439062003ebb565b9150506200234a565b5060005b8151811015620024d0576008600083838151811062002474576200247362003f96565b5b6020026020010151815260200190815260200160002060055460088110620024a157620024a062003f96565b5b016000815480929190620024b59062003ebb565b91905055508080620024c79062003ebb565b91505062002450565b5060005b815181101562002608576000601560009054906101000a900473ffffffffffffffffffffffffffffffffffffffff1673ffffffffffffffffffffffffffffffffffffffff1662fdd58e3385858151811062002534576200253362003f96565b5b60200260200101516040518363ffffffff1660e01b81526004016200255b929190620035f6565b60206040518083038186803b1580156200257457600080fd5b505afa15801562002589573d6000803e3d6000fd5b505050506040513d601f19601f82011682018060405250810190620025af919062002f19565b11620025f2576040517f08c379a0000000000000000000000000000000000000000000000000000000008152600401620025e99062003955565b60405180910390fd5b8080620025ff9062003ebb565b915050620024d4565b5060005b8151811015620026f157600a8162002625919062003c62565b8282815181106200263b576200263a62003f96565b5b6020026020010151101580156200269957506001600a60018362002660919062003bcd565b6200266c919062003c62565b62002678919062003cc3565b8282815181106200268e576200268d62003f96565b5b602002602001015111155b620026db576040517f08c379a0000000000000000000000000000000000000000000000000000000008152600401620026d29062003867565b60405180910390fd5b8080620026e89062003ebb565b9150506200260c565b5080600a60003373ffffffffffffffffffffffffffffffffffffffff1673ffffffffffffffffffffffffffffffffffffffff16815260200190815260200160002090805190602001906200274792919062002ae0565b5050565b600660009054906101000a900473ffffffffffffffffffffffffffffffffffffffff1681565b6060600960003373ffffffffffffffffffffffffffffffffffffffff1673ffffffffffffffffffffffffffffffffffffffff168152602001908152602001600020805480602002602001604051908101604052809291908181526020018280548015620027fe57602002820191906000526020600020905b815481526020019060010190808311620027e9575b5050505050905090565b620028a2816040516024016200281f91906200359c565b6040516020818303038152906040527f2c2ecbc2000000000000000000000000000000000000000000000000000000007bffffffffffffffffffffffffffffffffffffffffffffffffffffffff19166020820180517bffffffffffffffffffffffffffffffffffffffffffffffffffffffff8381831617835250505050620029f5565b50565b620029418282604051602401620028be929190620037ef565b6040516020818303038152906040527f9710a9d0000000000000000000000000000000000000000000000000000000007bffffffffffffffffffffffffffffffffffffffffffffffffffffffff19166020820180517bffffffffffffffffffffffffffffffffffffffffffffffffffffffff8381831617835250505050620029f5565b5050565b6000620029523062002a1e565b15905090565b620029f2816040516024016200296f9190620037cb565b6040516020818303038152906040527f41304fac000000000000000000000000000000000000000000000000000000007bffffffffffffffffffffffffffffffffffffffffffffffffffffffff19166020820180517bffffffffffffffffffffffffffffffffffffffffffffffffffffffff8381831617835250505050620029f5565b50565b60008151905060006a636f6e736f6c652e6c6f679050602083016000808483855afa5050505050565b6000808273ffffffffffffffffffffffffffffffffffffffff163b119050919050565b82805462002a4f9062003e31565b90600052602060002090601f01602090048101928262002a73576000855562002abf565b82601f1062002a8e57803560ff191683800117855562002abf565b8280016001018555821562002abf579182015b8281111562002abe57823582559160200191906001019062002aa1565b5b50905062002ace919062002b32565b5090565b611114806200431383390190565b82805482825590600052602060002090810192821562002b1f579160200282015b8281111562002b1e57825182559160200191906001019062002b01565b5b50905062002b2e919062002b32565b5090565b5b8082111562002b4d57600081600090555060010162002b33565b5090565b600062002b6862002b628462003a6e565b62003a45565b9050808382526020820190508285602086028201111562002b8e5762002b8d62004013565b5b60005b8581101562002bc2578162002ba7888262002ca3565b84526020840193506020830192505060018101905062002b91565b5050509392505050565b60008135905062002bdd81620042c4565b92915050565b600082601f83011262002bfb5762002bfa6200400e565b5b813562002c0d84826020860162002b51565b91505092915050565b60008135905062002c2781620042de565b92915050565b60008151905062002c3e81620042de565b92915050565b60008083601f84011262002c5d5762002c5c6200400e565b5b8235905067ffffffffffffffff81111562002c7d5762002c7c62004009565b5b60208301915083600182028301111562002c9c5762002c9b62004013565b5b9250929050565b60008135905062002cb481620042f8565b92915050565b60008151905062002ccb81620042f8565b92915050565b60006020828403121562002cea5762002ce96200401d565b5b600062002cfa8482850162002bcc565b91505092915050565b6000806040838503121562002d1d5762002d1c6200401d565b5b600062002d2d8582860162002bcc565b925050602062002d408582860162002ca3565b9150509250929050565b60006020828403121562002d635762002d626200401d565b5b600082013567ffffffffffffffff81111562002d845762002d8362004018565b5b62002d928482850162002be3565b91505092915050565b60006020828403121562002db45762002db36200401d565b5b600062002dc48482850162002c2d565b91505092915050565b60008060008060008060008060008060006101408c8e03121562002df65762002df56200401d565b5b60008c013567ffffffffffffffff81111562002e175762002e1662004018565b5b62002e258e828f0162002c44565b9b509b5050602062002e3a8e828f0162002ca3565b995050604062002e4d8e828f0162002c16565b985050606062002e608e828f0162002bcc565b975050608062002e738e828f0162002bcc565b96505060a062002e868e828f0162002bcc565b95505060c062002e998e828f0162002bcc565b94505060e062002eac8e828f0162002bcc565b93505061010062002ec08e828f0162002bcc565b92505061012062002ed48e828f0162002bcc565b9150509295989b509295989b9093969950565b60006020828403121562002f005762002eff6200401d565b5b600062002f108482850162002ca3565b91505092915050565b60006020828403121562002f325762002f316200401d565b5b600062002f428482850162002cba565b91505092915050565b6000806040838503121562002f655762002f646200401d565b5b600062002f758582860162002ca3565b925050602062002f888582860162002ca3565b9150509250929050565b600062002fa0838362002ffa565b60208301905092915050565b600062002fba83836200301c565b60208301905092915050565b600062002fd483836200354b565b60408301905092915050565b600062002fee838362003569565b60208301905092915050565b620030058162003d1e565b82525050565b620030168162003d1e565b82525050565b620030278162003d1e565b82525050565b620030388162003af1565b62003044818462003b5c565b9250620030518262003a9d565b8060005b83811015620030885781516200306c878262002f92565b9650620030798362003b28565b92505060018101905062003055565b505050505050565b60006200309d8262003afc565b620030a9818562003b67565b9350620030b68362003aa7565b8060005b83811015620030f657620030ce8262003ff4565b620030da888262002f92565b9750620030e78362003b35565b925050600181019050620030ba565b5085935050505092915050565b6000620031108262003afc565b6200311c818562003b78565b9350620031298362003aa7565b8060005b838110156200316957620031418262003ff4565b6200314d888262002fac565b97506200315a8362003b35565b9250506001810190506200312d565b5085935050505092915050565b8082525050565b60006200318a8262003b07565b62003196818562003b89565b9350620031a38362003abc565b8060005b83811015620031da578151620031be888262002fc6565b9750620031cb8362003b42565b925050600181019050620031a7565b5085935050505092915050565b6000620031f48262003b12565b62003200818562003b9a565b93506200320d8362003acc565b8060005b838110156200324457815162003228888262002fe0565b9750620032358362003b4f565b92505060018101905062003211565b5085935050505092915050565b6200325c8162003d32565b82525050565b6200326d8162003d68565b82525050565b6200327e8162003d7c565b82525050565b6200328f8162003d90565b82525050565b8082525050565b8082525050565b8082525050565b6000620032b78262003b1d565b620032c3818562003bab565b9350620032d581856020860162003dcc565b620032e08162004022565b840191505092915050565b60008154620032fa8162003e31565b62003306818662003bbc565b9450600182166000811462003324576001811462003337576200336e565b60ff19831686526020860193506200336e565b620033428562003adc565b60005b83811015620033665781548189015260018201915060208101905062003345565b808801955050505b50505092915050565b600062003386601d8362003bab565b9150620033938262004040565b602082019050919050565b6000620033ad60238362003bab565b9150620033ba8262004069565b604082019050919050565b6000620033d460318362003bab565b9150620033e182620040b8565b604082019050919050565b6000620033fb601e8362003bab565b9150620034088262004107565b602082019050919050565b600062003422602e8362003bab565b91506200342f8262004130565b604082019050919050565b60006200344960178362003bab565b915062003456826200417f565b602082019050919050565b60006200347060168362003bab565b91506200347d82620041a8565b602082019050919050565b60006200349760168362003bab565b9150620034a482620041d1565b602082019050919050565b6000620034be601c8362003bab565b9150620034cb82620041fa565b602082019050919050565b6000620034e560248362003bab565b9150620034f28262004223565b604082019050919050565b60006200350c601f8362003bab565b9150620035198262004272565b602082019050919050565b60006200353360178362003bab565b915062003540826200429b565b602082019050919050565b6040820160008201516200356360008501826200302d565b50505050565b620035748162003d5e565b82525050565b620035858162003d5e565b82525050565b620035968162003d5e565b82525050565b6000602082019050620035b360008301846200300b565b92915050565b6000606082019050620035d060008301866200300b565b620035df60208301856200300b565b620035ee60408301846200357a565b949350505050565b60006040820190506200360d60008301856200300b565b6200361c60208301846200357a565b9392505050565b60006060820190506200363a60008301866200300b565b6200364960208301856200357a565b6200365860408301846200300b565b949350505050565b600060608201905081810360008301526200367c818662003103565b90506200368d60208301856200329c565b6200369c604083018462003176565b949350505050565b60006040820190508181036000830152620036c0818562003090565b9050620036d160208301846200357a565b9392505050565b60006020820190508181036000830152620036f481846200317d565b905092915050565b60006020820190508181036000830152620037188184620031e7565b905092915050565b600060208201905062003737600083018462003251565b92915050565b600060208201905062003754600083018462003273565b92915050565b600060208201905062003771600083018462003284565b92915050565b60006080820190506200378e6000830187620032a3565b6200379d602083018662003176565b620037ac60408301856200358b565b8181036060830152620037c08184620032eb565b905095945050505050565b60006020820190508181036000830152620037e78184620032aa565b905092915050565b600060408201905081810360008301526200380b8185620032aa565b90506200381c60208301846200357a565b9392505050565b600060208201905081810360008301526200383e8162003377565b9050919050565b6000602082019050818103600083015262003860816200339e565b9050919050565b600060208201905081810360008301526200388281620033c5565b9050919050565b60006020820190508181036000830152620038a481620033ec565b9050919050565b60006020820190508181036000830152620038c68162003413565b9050919050565b60006020820190508181036000830152620038e8816200343a565b9050919050565b600060208201905081810360008301526200390a8162003461565b9050919050565b600060208201905081810360008301526200392c8162003488565b9050919050565b600060208201905081810360008301526200394e81620034af565b9050919050565b600060208201905081810360008301526200397081620034d6565b9050919050565b600060208201905081810360008301526200399281620034fd565b9050919050565b60006020820190508181036000830152620039b48162003524565b9050919050565b6000602082019050620039d260008301846200357a565b92915050565b600060c082019050620039ef60008301896200358b565b620039fe602083018862003262565b62003a0d604083018762003295565b62003a1c606083018662003295565b62003a2b60808301856200329c565b62003a3a60a0830184620032a3565b979650505050505050565b600062003a5162003a64565b905062003a5f828262003e85565b919050565b6000604051905090565b600067ffffffffffffffff82111562003a8c5762003a8b62003fc5565b5b602082029050602081019050919050565b6000819050919050565b60008190508160005260206000209050919050565b6000819050602082019050919050565b6000819050602082019050919050565b60008190508160005260206000209050919050565b600060029050919050565b600081549050919050565b600081519050919050565b600081519050919050565b600081519050919050565b6000602082019050919050565b6000600182019050919050565b6000602082019050919050565b6000602082019050919050565b600081905092915050565b600082825260208201905092915050565b600082825260208201905092915050565b600082825260208201905092915050565b600082825260208201905092915050565b600082825260208201905092915050565b600082825260208201905092915050565b600062003bda8262003d5e565b915062003be78362003d5e565b9250827fffffffffffffffffffffffffffffffffffffffffffffffffffffffffffffffff0382111562003c1f5762003c1e62003f09565b5b828201905092915050565b600062003c378262003d5e565b915062003c448362003d5e565b92508262003c575762003c5662003f38565b5b828204905092915050565b600062003c6f8262003d5e565b915062003c7c8362003d5e565b9250817fffffffffffffffffffffffffffffffffffffffffffffffffffffffffffffffff048311821515161562003cb85762003cb762003f09565b5b828202905092915050565b600062003cd08262003d5e565b915062003cdd8362003d5e565b92508282101562003cf35762003cf262003f09565b5b828203905092915050565b600073ffffffffffffffffffffffffffffffffffffffff82169050919050565b600062003d2b8262003d3e565b9050919050565b60008115159050919050565b600073ffffffffffffffffffffffffffffffffffffffff82169050919050565b6000819050919050565b600062003d758262003da4565b9050919050565b600062003d898262003da4565b9050919050565b600062003d9d8262003da4565b9050919050565b600062003db18262003db8565b9050919050565b600062003dc58262003d3e565b9050919050565b60005b8381101562003dec57808201518184015260208101905062003dcf565b8381111562003dfc576000848401525b50505050565b600062003e0f8262003d5e565b9150600082141562003e265762003e2562003f09565b5b600182039050919050565b6000600282049050600182168062003e4a57607f821691505b6020821081141562003e615762003e6062003f67565b5b50919050565b600062003e7e62003e788362004033565b62003cfe565b9050919050565b62003e908262004022565b810181811067ffffffffffffffff8211171562003eb25762003eb162003fc5565b5b80604052505050565b600062003ec88262003d5e565b91507fffffffffffffffffffffffffffffffffffffffffffffffffffffffffffffffff82141562003efe5762003efd62003f09565b5b600182019050919050565b7f4e487b7100000000000000000000000000000000000000000000000000000000600052601160045260246000fd5b7f4e487b7100000000000000000000000000000000000000000000000000000000600052601260045260246000fd5b7f4e487b7100000000000000000000000000000000000000000000000000000000600052602260045260246000fd5b7f4e487b7100000000000000000000000000000000000000000000000000000000600052603260045260246000fd5b7f4e487b7100000000000000000000000000000000000000000000000000000000600052604160045260246000fd5b600062004002825462003e67565b9050919050565b600080fd5b600080fd5b600080fd5b600080fd5b600080fd5b6000601f19601f8301169050919050565b60008160001c9050919050565b7f496e737566666963656e742066756e647320666f72207374616b696e67000000600082015250565b7f596f75206861766520616c7265616479206a6f696e65642074686973206c656160008201527f6775650000000000000000000000000000000000000000000000000000000000602082015250565b7f596f75206172652073657474696e6720616e206174686c65746520696e20746860008201527f652077726f6e6720706f736974696f6e21000000000000000000000000000000602082015250565b7f6c696e657570206973206c6f636b656420666f7220746865207765656b210000600082015250565b7f496e697469616c697a61626c653a20636f6e747261637420697320616c72656160008201527f647920696e697469616c697a6564000000000000000000000000000000000000602082015250565b7f43616c6c6572206973206e6f74207468652061646d696e000000000000000000600082015250565b7f43616c6c6572206973206e6f74205465616d4469666600000000000000000000600082015250565b7f55736572206973206e6f7420696e204c65616775652e00000000000000000000600082015250565b7f55736572206973206e6f74206f6e2077686974656c6973742062726f00000000600082015250565b7f43616c6c657220646f6573206e6f74206f776e20676976656e206174686c657460008201527f6549647300000000000000000000000000000000000000000000000000000000602082015250565b7f5265656e7472616e637947756172643a207265656e7472616e742063616c6c00600082015250565b7f4c656167756520456e74727920697320436c6f73656421000000000000000000600082015250565b620042cf8162003d1e565b8114620042db57600080fd5b50565b620042e98162003d32565b8114620042f557600080fd5b50565b620043038162003d5e565b81146200430f57600080fd5b5056fe60806040523480156200001157600080fd5b50604051620011143803806200111483398181016040528101906200003791906200015b565b620000576200004b6200007860201b60201c565b6200008060201b60201c565b80600360006101000a81548160ff02191690831515021790555050620001b8565b600033905090565b60008060009054906101000a900473ffffffffffffffffffffffffffffffffffffffff169050816000806101000a81548173ffffffffffffffffffffffffffffffffffffffff021916908373ffffffffffffffffffffffffffffffffffffffff1602179055508173ffffffffffffffffffffffffffffffffffffffff168173ffffffffffffffffffffffffffffffffffffffff167f8be0079c531659141344cd1fd0a4f28419497f9722a3daafe3b4186f6b6457e060405160405180910390a35050565b60008151905062000155816200019e565b92915050565b60006020828403121562000174576200017362000199565b5b6000620001848482850162000144565b91505092915050565b60008115159050919050565b600080fd5b620001a9816200018d565b8114620001b557600080fd5b50565b610f4c80620001c86000396000f3fe608060405234801561001057600080fd5b50600436106100a95760003560e01c80638da5cb5b116100715780638da5cb5b146101665780639b19251a14610184578063dc9a1535146101b4578063e2ec6ec3146101d2578063e35a899914610202578063f2fde38b14610232576100a9565b806324953eaa146100ae578063286dd3f5146100de57806344eaa84e1461010e578063715018a61461012c5780637b9417c814610136575b600080fd5b6100c860048036038101906100c39190610ada565b61024e565b6040516100d59190610bb1565b60405180910390f35b6100f860048036038101906100f39190610aad565b61031e565b6040516101059190610bb1565b60405180910390f35b6101166104a1565b6040516101239190610c0c565b60405180910390f35b6101346104ab565b005b610150600480360381019061014b9190610aad565b610533565b60405161015d9190610bb1565b60405180910390f35b61016e6106b4565b60405161017b9190610b96565b60405180910390f35b61019e60048036038101906101999190610aad565b6106dd565b6040516101ab9190610bb1565b60405180910390f35b6101bc6106fd565b6040516101c99190610bb1565b60405180910390f35b6101ec60048036038101906101e79190610ada565b610710565b6040516101f99190610bb1565b60405180910390f35b61021c60048036038101906102179190610aad565b6107e0565b6040516102299190610bb1565b60405180910390f35b61024c60048036038101906102479190610aad565b610836565b005b600061025861092e565b73ffffffffffffffffffffffffffffffffffffffff166102766106b4565b73ffffffffffffffffffffffffffffffffffffffff16146102cc576040517f08c379a00000000000000000000000000000000000000000000000000000000081526004016102c390610bec565b60405180910390fd5b60005b8251811015610318576102fb8382815181106102ee576102ed610e04565b5b602002602001015161031e565b1561030557600191505b808061031090610d8c565b9150506102cf565b50919050565b600061032861092e565b73ffffffffffffffffffffffffffffffffffffffff166103466106b4565b73ffffffffffffffffffffffffffffffffffffffff161461039c576040517f08c379a000000000000000000000000000000000000000000000000000000000815260040161039390610bec565b60405180910390fd5b600160008373ffffffffffffffffffffffffffffffffffffffff1673ffffffffffffffffffffffffffffffffffffffff16815260200190815260200160002060009054906101000a900460ff161561049c576000600160008473ffffffffffffffffffffffffffffffffffffffff1673ffffffffffffffffffffffffffffffffffffffff16815260200190815260200160002060006101000a81548160ff0219169083151502179055507ff1abf01a1043b7c244d128e8595cf0c1d10743b022b03a02dffd8ca3bf729f5a826040516104759190610b96565b60405180910390a16001600260008282546104909190610cdf565b92505081905550600190505b919050565b6000600254905090565b6104b361092e565b73ffffffffffffffffffffffffffffffffffffffff166104d16106b4565b73ffffffffffffffffffffffffffffffffffffffff1614610527576040517f08c379a000000000000000000000000000000000000000000000000000000000815260040161051e90610bec565b60405180910390fd5b6105316000610936565b565b600061053d61092e565b73ffffffffffffffffffffffffffffffffffffffff1661055b6106b4565b73ffffffffffffffffffffffffffffffffffffffff16146105b1576040517f08c379a00000000000000000000000000000000000000000000000000000000081526004016105a890610bec565b60405180910390fd5b600160008373ffffffffffffffffffffffffffffffffffffffff1673ffffffffffffffffffffffffffffffffffffffff16815260200190815260200160002060009054906101000a900460ff166106af5760018060008473ffffffffffffffffffffffffffffffffffffffff1673ffffffffffffffffffffffffffffffffffffffff16815260200190815260200160002060006101000a81548160ff0219169083151502179055507fd1bba68c128cc3f427e5831b3c6f99f480b6efa6b9e80c757768f6124158cc3f826040516106889190610b96565b60405180910390a16001600260008282546106a39190610c89565b92505081905550600190505b919050565b60008060009054906101000a900473ffffffffffffffffffffffffffffffffffffffff16905090565b60016020528060005260406000206000915054906101000a900460ff1681565b600360009054906101000a900460ff1681565b600061071a61092e565b73ffffffffffffffffffffffffffffffffffffffff166107386106b4565b73ffffffffffffffffffffffffffffffffffffffff161461078e576040517f08c379a000000000000000000000000000000000000000000000000000000000815260040161078590610bec565b60405180910390fd5b60005b82518110156107da576107bd8382815181106107b0576107af610e04565b5b6020026020010151610533565b156107c757600191505b80806107d290610d8c565b915050610791565b50919050565b6000600160008373ffffffffffffffffffffffffffffffffffffffff1673ffffffffffffffffffffffffffffffffffffffff16815260200190815260200160002060009054906101000a900460ff169050919050565b61083e61092e565b73ffffffffffffffffffffffffffffffffffffffff1661085c6106b4565b73ffffffffffffffffffffffffffffffffffffffff16146108b2576040517f08c379a00000000000000000000000000000000000000000000000000000000081526004016108a990610bec565b60405180910390fd5b600073ffffffffffffffffffffffffffffffffffffffff168173ffffffffffffffffffffffffffffffffffffffff161415610922576040517f08c379a000000000000000000000000000000000000000000000000000000000815260040161091990610bcc565b60405180910390fd5b61092b81610936565b50565b600033905090565b60008060009054906101000a900473ffffffffffffffffffffffffffffffffffffffff169050816000806101000a81548173ffffffffffffffffffffffffffffffffffffffff021916908373ffffffffffffffffffffffffffffffffffffffff1602179055508173ffffffffffffffffffffffffffffffffffffffff168173ffffffffffffffffffffffffffffffffffffffff167f8be0079c531659141344cd1fd0a4f28419497f9722a3daafe3b4186f6b6457e060405160405180910390a35050565b6000610a0d610a0884610c4c565b610c27565b90508083825260208201905082856020860282011115610a3057610a2f610e67565b5b60005b85811015610a605781610a468882610a6a565b845260208401935060208301925050600181019050610a33565b5050509392505050565b600081359050610a7981610eff565b92915050565b600082601f830112610a9457610a93610e62565b5b8135610aa48482602086016109fa565b91505092915050565b600060208284031215610ac357610ac2610e71565b5b6000610ad184828501610a6a565b91505092915050565b600060208284031215610af057610aef610e71565b5b600082013567ffffffffffffffff811115610b0e57610b0d610e6c565b5b610b1a84828501610a7f565b91505092915050565b610b2c81610d13565b82525050565b610b3b81610d25565b82525050565b6000610b4e602683610c78565b9150610b5982610e87565b604082019050919050565b6000610b71602083610c78565b9150610b7c82610ed6565b602082019050919050565b610b9081610d51565b82525050565b6000602082019050610bab6000830184610b23565b92915050565b6000602082019050610bc66000830184610b32565b92915050565b60006020820190508181036000830152610be581610b41565b9050919050565b60006020820190508181036000830152610c0581610b64565b9050919050565b6000602082019050610c216000830184610b87565b92915050565b6000610c31610c42565b9050610c3d8282610d5b565b919050565b6000604051905090565b600067ffffffffffffffff821115610c6757610c66610e33565b5b602082029050602081019050919050565b600082825260208201905092915050565b6000610c9482610d51565b9150610c9f83610d51565b9250827fffffffffffffffffffffffffffffffffffffffffffffffffffffffffffffffff03821115610cd457610cd3610dd5565b5b828201905092915050565b6000610cea82610d51565b9150610cf583610d51565b925082821015610d0857610d07610dd5565b5b828203905092915050565b6000610d1e82610d31565b9050919050565b60008115159050919050565b600073ffffffffffffffffffffffffffffffffffffffff82169050919050565b6000819050919050565b610d6482610e76565b810181811067ffffffffffffffff82111715610d8357610d82610e33565b5b80604052505050565b6000610d9782610d51565b91507fffffffffffffffffffffffffffffffffffffffffffffffffffffffffffffffff821415610dca57610dc9610dd5565b5b600182019050919050565b7f4e487b7100000000000000000000000000000000000000000000000000000000600052601160045260246000fd5b7f4e487b7100000000000000000000000000000000000000000000000000000000600052603260045260246000fd5b7f4e487b7100000000000000000000000000000000000000000000000000000000600052604160045260246000fd5b600080fd5b600080fd5b600080fd5b600080fd5b6000601f19601f8301169050919050565b7f4f776e61626c653a206e6577206f776e657220697320746865207a65726f206160008201527f6464726573730000000000000000000000000000000000000000000000000000602082015250565b7f4f776e61626c653a2063616c6c6572206973206e6f7420746865206f776e6572600082015250565b610f0881610d13565b8114610f1357600080fd5b5056fea2646970667358221220d9b559c67c9c95c9212a7622f5c7dc9fab9234f044c42f52ae92caa64e6b8af364736f6c63430008070033a2646970667358221220a152ca1f9d725fed8bebf3b3e72dfea06024c25c695a4459aaa28d3ebd09b18d64736f6c63430008070033",
  "linkReferences": {
    "contracts/MOBALogicLibrary.sol": {
      "MOBALogicLibrary": [
        {
          "length": 20,
          "start": 2108
        },
        {
          "length": 20,
          "start": 2450
        },
        {
          "length": 20,
          "start": 3910
        }
      ]
    }
  },
  "deployedLinkReferences": {
    "contracts/MOBALogicLibrary.sol": {
      "MOBALogicLibrary": [
        {
          "length": 20,
          "start": 2069
        },
        {
          "length": 20,
          "start": 2411
        },
        {
          "length": 20,
          "start": 3871
        }
      ]
    }
  }
}