{
  "_format": "hh-sol-artifact-1",
  "contractName": "LeagueOfLegendsLogic",
  "sourceName": "contracts/LeagueOfLegendsLogic.sol",
  "abi": [
    {
      "anonymous": false,
      "inputs": [
        {
          "indexed": false,
          "internalType": "address",
          "name": "sender",
          "type": "address"
        },
        {
          "indexed": false,
          "internalType": "uint256",
          "name": "amount",
          "type": "uint256"
        },
        {
          "indexed": false,
          "internalType": "address",
          "name": "leagueAddress",
          "type": "address"
        }
      ],
      "name": "Staked",
      "type": "event"
    },
    {
      "anonymous": false,
      "inputs": [
        {
          "indexed": false,
          "internalType": "address",
          "name": "sender",
          "type": "address"
        },
        {
          "indexed": false,
          "internalType": "uint256",
          "name": "index",
          "type": "uint256"
        },
        {
          "indexed": false,
          "internalType": "uint256",
          "name": "position",
          "type": "uint256"
        }
      ],
      "name": "athleteSetInLineup",
      "type": "event"
    },
    {
      "anonymous": false,
      "inputs": [
        {
          "indexed": false,
          "internalType": "address[]",
          "name": "winner",
          "type": "address[]"
        },
        {
          "indexed": false,
          "internalType": "uint256",
          "name": "prizePotPerWinner",
          "type": "uint256"
        }
      ],
      "name": "leagueEnded",
      "type": "event"
    },
    {
      "anonymous": false,
      "inputs": [
        {
          "indexed": false,
          "internalType": "address",
          "name": "sender",
          "type": "address"
        },
        {
          "indexed": false,
          "internalType": "address",
          "name": "contractAddress",
          "type": "address"
        }
      ],
      "name": "testUSDCDeployed",
      "type": "event"
    },
    {
      "inputs": [
        {
          "internalType": "address",
          "name": "_userToAdd",
          "type": "address"
        }
      ],
      "name": "addUserToWhitelist",
      "outputs": [],
      "stateMutability": "nonpayable",
      "type": "function"
    },
    {
      "inputs": [],
      "name": "admin",
      "outputs": [
        {
          "internalType": "address",
          "name": "",
          "type": "address"
        }
      ],
      "stateMutability": "view",
      "type": "function"
    },
    {
      "inputs": [],
      "name": "currentWeekNum",
      "outputs": [
        {
          "internalType": "uint256",
          "name": "",
          "type": "uint256"
        }
      ],
      "stateMutability": "view",
      "type": "function"
    },
    {
      "inputs": [],
      "name": "getAdmin",
      "outputs": [
        {
          "internalType": "address",
          "name": "",
          "type": "address"
        }
      ],
      "stateMutability": "view",
      "type": "function"
    },
    {
      "inputs": [],
      "name": "getContractUSDCBalance",
      "outputs": [
        {
          "internalType": "uint256",
          "name": "",
          "type": "uint256"
        }
      ],
      "stateMutability": "view",
      "type": "function"
    },
    {
      "inputs": [
        {
          "internalType": "uint256",
          "name": "index",
          "type": "uint256"
        }
      ],
      "name": "getLeagueMember",
      "outputs": [
        {
          "internalType": "address",
          "name": "",
          "type": "address"
        }
      ],
      "stateMutability": "view",
      "type": "function"
    },
    {
      "inputs": [],
      "name": "getLeagueMembersLength",
      "outputs": [
        {
          "internalType": "uint256",
          "name": "",
          "type": "uint256"
        }
      ],
      "stateMutability": "view",
      "type": "function"
    },
    {
      "inputs": [
        {
          "internalType": "address",
          "name": "_user",
          "type": "address"
        }
      ],
      "name": "getLineup",
      "outputs": [
        {
          "internalType": "uint256[5]",
          "name": "",
          "type": "uint256[5]"
        }
      ],
      "stateMutability": "view",
      "type": "function"
    },
    {
      "inputs": [],
      "name": "getLineupIsLocked",
      "outputs": [
        {
          "internalType": "bool",
          "name": "",
          "type": "bool"
        }
      ],
      "stateMutability": "view",
      "type": "function"
    },
    {
      "inputs": [
        {
          "internalType": "uint256",
          "name": "_week",
          "type": "uint256"
        }
      ],
      "name": "getScheduleForWeek",
      "outputs": [
        {
          "components": [
            {
              "internalType": "address[2]",
              "name": "players",
              "type": "address[2]"
            }
          ],
          "internalType": "struct LeagueOfLegendsLogic.Matchup[]",
          "name": "",
          "type": "tuple[]"
        }
      ],
      "stateMutability": "view",
      "type": "function"
    },
    {
      "inputs": [
        {
          "internalType": "address",
          "name": "user",
          "type": "address"
        }
      ],
      "name": "getUserRecord",
      "outputs": [
        {
          "internalType": "uint256[8]",
          "name": "",
          "type": "uint256[8]"
        }
      ],
      "stateMutability": "view",
      "type": "function"
    },
    {
      "inputs": [
        {
          "internalType": "address",
          "name": "",
          "type": "address"
        }
      ],
      "name": "inLeague",
      "outputs": [
        {
          "internalType": "bool",
          "name": "",
          "type": "bool"
        }
      ],
      "stateMutability": "view",
      "type": "function"
    },
    {
      "inputs": [
        {
          "internalType": "string",
          "name": "_name",
          "type": "string"
        },
        {
          "internalType": "uint256",
          "name": "_stakeAmount",
          "type": "uint256"
        },
        {
          "internalType": "bool",
          "name": "_isPublic",
          "type": "bool"
        },
        {
          "internalType": "address",
          "name": "athletesDataStorageAddress",
          "type": "address"
        },
        {
          "internalType": "address",
          "name": "_admin",
          "type": "address"
        },
        {
          "internalType": "address",
          "name": "_rinkebyUSDCAddress",
          "type": "address"
        },
        {
          "internalType": "address",
          "name": "_testUSDCAddress",
          "type": "address"
        },
        {
          "internalType": "address",
          "name": "_gameItemsContractAddress",
          "type": "address"
        },
        {
          "internalType": "address",
          "name": "_teamDiffAddress",
          "type": "address"
        },
        {
          "internalType": "address",
          "name": "_leagueMakerContractAddress",
          "type": "address"
        }
      ],
      "name": "initialize",
      "outputs": [],
      "stateMutability": "nonpayable",
      "type": "function"
    },
    {
      "inputs": [],
      "name": "joinLeague",
      "outputs": [],
      "stateMutability": "nonpayable",
      "type": "function"
    },
    {
      "inputs": [],
      "name": "leagueEntryIsClosed",
      "outputs": [
        {
          "internalType": "bool",
          "name": "",
          "type": "bool"
        }
      ],
      "stateMutability": "view",
      "type": "function"
    },
    {
      "inputs": [
        {
          "internalType": "uint256",
          "name": "",
          "type": "uint256"
        }
      ],
      "name": "leagueMembers",
      "outputs": [
        {
          "internalType": "address",
          "name": "",
          "type": "address"
        }
      ],
      "stateMutability": "view",
      "type": "function"
    },
    {
      "inputs": [],
      "name": "leagueName",
      "outputs": [
        {
          "internalType": "string",
          "name": "",
          "type": "string"
        }
      ],
      "stateMutability": "view",
      "type": "function"
    },
    {
      "inputs": [],
      "name": "lineupIsLocked",
      "outputs": [
        {
          "internalType": "bool",
          "name": "",
          "type": "bool"
        }
      ],
      "stateMutability": "view",
      "type": "function"
    },
    {
      "inputs": [],
      "name": "lockLineup",
      "outputs": [],
      "stateMutability": "nonpayable",
      "type": "function"
    },
    {
      "inputs": [],
      "name": "numWeeks",
      "outputs": [
        {
          "internalType": "uint256",
          "name": "",
          "type": "uint256"
        }
      ],
      "stateMutability": "view",
      "type": "function"
    },
    {
      "inputs": [],
      "name": "onLeagueEnd",
      "outputs": [],
      "stateMutability": "nonpayable",
      "type": "function"
    },
    {
      "inputs": [
        {
          "internalType": "address",
          "name": "_userToRemove",
          "type": "address"
        }
      ],
      "name": "removeFromWhitelist",
      "outputs": [],
      "stateMutability": "nonpayable",
      "type": "function"
    },
    {
      "inputs": [],
      "name": "rinkebyUSDC",
      "outputs": [
        {
          "internalType": "contract IERC20",
          "name": "",
          "type": "address"
        }
      ],
      "stateMutability": "view",
      "type": "function"
    },
    {
      "inputs": [
        {
          "internalType": "uint256",
          "name": "athleteId",
          "type": "uint256"
        },
        {
          "internalType": "uint256",
          "name": "position",
          "type": "uint256"
        }
      ],
      "name": "setAthleteInLineup",
      "outputs": [],
      "stateMutability": "nonpayable",
      "type": "function"
    },
    {
      "inputs": [],
      "name": "setLeagueEntryIsClosed",
      "outputs": [],
      "stateMutability": "nonpayable",
      "type": "function"
    },
    {
      "inputs": [],
      "name": "setLeagueSchedule",
      "outputs": [],
      "stateMutability": "nonpayable",
      "type": "function"
    },
    {
      "inputs": [],
      "name": "stakeAmount",
      "outputs": [
        {
          "internalType": "uint256",
          "name": "",
          "type": "uint256"
        }
      ],
      "stateMutability": "view",
      "type": "function"
    },
    {
      "inputs": [],
      "name": "teamDiffAddress",
      "outputs": [
        {
          "internalType": "address",
          "name": "",
          "type": "address"
        }
      ],
      "stateMutability": "view",
      "type": "function"
    },
    {
      "inputs": [],
      "name": "testUSDC",
      "outputs": [
        {
          "internalType": "contract IERC20",
          "name": "",
          "type": "address"
        }
      ],
      "stateMutability": "view",
      "type": "function"
    },
    {
      "inputs": [],
      "name": "unlockLineup",
      "outputs": [],
      "stateMutability": "nonpayable",
      "type": "function"
    },
    {
      "inputs": [
        {
          "internalType": "address",
          "name": "",
          "type": "address"
        },
        {
          "internalType": "uint256",
          "name": "",
          "type": "uint256"
        }
      ],
      "name": "userToLineup",
      "outputs": [
        {
          "internalType": "uint256",
          "name": "",
          "type": "uint256"
        }
      ],
      "stateMutability": "view",
      "type": "function"
    },
    {
      "inputs": [
        {
          "internalType": "address",
          "name": "",
          "type": "address"
        }
      ],
      "name": "userToPoints",
      "outputs": [
        {
          "internalType": "uint256",
          "name": "",
          "type": "uint256"
        }
      ],
      "stateMutability": "view",
      "type": "function"
    },
    {
      "inputs": [
        {
          "internalType": "address",
          "name": "",
          "type": "address"
        },
        {
          "internalType": "uint256",
          "name": "",
          "type": "uint256"
        }
      ],
      "name": "userToRecord",
      "outputs": [
        {
          "internalType": "uint256",
          "name": "",
          "type": "uint256"
        }
      ],
      "stateMutability": "view",
      "type": "function"
    },
    {
      "inputs": [
        {
          "internalType": "address",
          "name": "",
          "type": "address"
        },
        {
          "internalType": "uint256",
          "name": "",
          "type": "uint256"
        }
      ],
      "name": "userToWeekScore",
      "outputs": [
        {
          "internalType": "uint256",
          "name": "",
          "type": "uint256"
        }
      ],
      "stateMutability": "view",
      "type": "function"
    },
    {
      "inputs": [],
      "name": "whitelistContract",
      "outputs": [
        {
          "internalType": "contract Whitelist",
          "name": "",
          "type": "address"
        }
      ],
      "stateMutability": "view",
      "type": "function"
    }
  ],
  "bytecode": "0x608060405234801561001057600080fd5b5060018081905550615099806100276000396000f3fe60806040523480156200001157600080fd5b5060043610620002435760003560e01c80636e9960c31162000141578063b47f862811620000bd578063db2a67241162000087578063db2a6724146200065a578063e4c9066b1462000690578063e5f7322f146200069c578063ee90080f14620006d2578063f851a44014620007085762000243565b8063b47f862814620005ec578063c8be3b5b146200060c578063c99fea941462000618578063cff5600314620006245762000243565b806384900b04116200010b57806384900b0414620005465780638ab1d68114620005685780639122ce6d1462000588578063a2bc091a14620005be578063a949a9d714620005ca5762000243565b80636e9960c314620004c0578063747b805014620004e25780637eed33f11462000502578063841abf6e14620005245762000243565b806327311b3211620001d157806352e6e5f3116200019b57806352e6e5f3146200040257806360c7dc47146200042457806363c665f7146200044657806367e2efc614620004685780636cc15ad5146200049e5762000243565b806327311b3214620003545780632ae6b13514620003765780632d382ee014620003ac5780633c3ae13f14620003e25762000243565b80630c6f795911620002135780630c6f795914620002ba5780631d803e0014620002f05780631dd7f8ca14620002fc578063267175db146200031e5762000243565b80622772c21462000248578063022e35e6146200026a5780630635dbcb146200028c5780630655465a14620002ae575b600080fd5b620002526200072a565b604051620002619190620036cf565b60405180910390f35b62000274620007e2565b60405162000283919062003463565b60405180910390f35b6200029662000808565b604051620002a5919062003446565b60405180910390f35b620002b86200081b565b005b620002d86004803603810190620002d29190620029bb565b62000926565b604051620002e79190620036cf565b60405180910390f35b620002fa6200094f565b005b6200030662000d0f565b6040516200031591906200326e565b60405180910390f35b6200033c600480360381019062000336919062002b4e565b62000d35565b6040516200034b91906200326e565b60405180910390f35b6200035e62000d75565b6040516200036d919062003446565b60405180910390f35b6200039460048036038101906200038e919062002989565b62000d8c565b604051620003a39190620036cf565b60405180910390f35b620003ca6004803603810190620003c4919062002b4e565b62000da4565b604051620003d99190620033e7565b60405180910390f35b620004006004803603810190620003fa919062002a34565b62000e95565b005b6200040c62001266565b6040516200041b9190620036cf565b60405180910390f35b6200042e6200126c565b6040516200043d9190620036cf565b60405180910390f35b6200045062001272565b6040516200045f9190620036cf565b60405180910390f35b62000486600480360381019062000480919062002989565b6200127f565b60405162000495919062003428565b60405180910390f35b620004a86200130d565b604051620004b7919062003446565b60405180910390f35b620004ca62001320565b604051620004d991906200326e565b60405180910390f35b620005006004803603810190620004fa919062002989565b6200134a565b005b6200050c62001525565b6040516200051b9190620036cf565b60405180910390f35b6200052e6200152b565b6040516200053d9190620034f1565b60405180910390f35b62000550620015c1565b6040516200055f919062003480565b60405180910390f35b62000586600480360381019062000580919062002989565b620015e7565b005b620005a66004803603810190620005a0919062002989565b62001784565b604051620005b5919062003446565b60405180910390f35b620005c8620017a4565b005b620005d462001854565b604051620005e3919062003463565b60405180910390f35b6200060a600480360381019062000604919062002bb2565b6200187a565b005b6200061662001b79565b005b6200062262001c29565b005b6200064260048036038101906200063c9190620029bb565b620023d0565b604051620006519190620036cf565b60405180910390f35b620006786004803603810190620006729190620029bb565b620023f9565b604051620006879190620036cf565b60405180910390f35b6200069a62002422565b005b620006ba6004803603810190620006b4919062002989565b620024d2565b604051620006c991906200340b565b60405180910390f35b620006f06004803603810190620006ea919062002b4e565b62002560565b604051620006ff91906200326e565b60405180910390f35b62000712620025ab565b6040516200072191906200326e565b60405180910390f35b6000601560009054906101000a900473ffffffffffffffffffffffffffffffffffffffff1673ffffffffffffffffffffffffffffffffffffffff166370a08231306040518263ffffffff1660e01b81526004016200078991906200326e565b60206040518083038186803b158015620007a257600080fd5b505afa158015620007b7573d6000803e3d6000fd5b505050506040513d601f19601f82011682018060405250810190620007dd919062002b80565b905090565b601460009054906101000a900473ffffffffffffffffffffffffffffffffffffffff1681565b600760159054906101000a900460ff1681565b600760009054906101000a900473ffffffffffffffffffffffffffffffffffffffff1673ffffffffffffffffffffffffffffffffffffffff163373ffffffffffffffffffffffffffffffffffffffff1614620008ae576040517f08c379a0000000000000000000000000000000000000000000000000000000008152600401620008a59062003603565b60405180910390fd5b73__$36fdb4e0c2cb91f3ceca5ea81b025328f3$__63d2c232b56010600e60035460026040518563ffffffff1660e01b8152600401620008f294939291906200349d565b60006040518083038186803b1580156200090b57600080fd5b505af415801562000920573d6000803e3d6000fd5b50505050565b600960205281600052604060002081600881106200094357600080fd5b01600091509150505481565b600760009054906101000a900473ffffffffffffffffffffffffffffffffffffffff1673ffffffffffffffffffffffffffffffffffffffff163373ffffffffffffffffffffffffffffffffffffffff1614620009e2576040517f08c379a0000000000000000000000000000000000000000000000000000000008152600401620009d99062003603565b60405180910390fd5b6000600454600e80549050620009f99190620038d2565b905073__$36fdb4e0c2cb91f3ceca5ea81b025328f3$__63cc9b40cc600e600c600f6040518463ffffffff1660e01b815260040162000a3b939291906200336f565b60006040518083038186803b15801562000a5457600080fd5b505af415801562000a69573d6000803e3d6000fd5b5050505060005b600f8054905081101562000ae05762000aca600f828154811062000a995762000a9862003b8d565b5b9060005260206000200160009054906101000a900473ffffffffffffffffffffffffffffffffffffffff16620025d1565b808062000ad79062003ab2565b91505062000a70565b506000600f805490508262000af691906200389a565b90507f648f2405ea194f3e49fe1655279883b3474e63909ab7e4a579b051d548ad8389600f8260405162000b2c929190620033b3565b60405180910390a160005b600f8054905081101562000d0a57601460009054906101000a900473ffffffffffffffffffffffffffffffffffffffff1673ffffffffffffffffffffffffffffffffffffffff1663095ea7b330846040518363ffffffff1660e01b815260040162000ba4929190620032c8565b602060405180830381600087803b15801562000bbf57600080fd5b505af115801562000bd4573d6000803e3d6000fd5b505050506040513d601f19601f8201168201806040525081019062000bfa919062002a02565b50601460009054906101000a900473ffffffffffffffffffffffffffffffffffffffff1673ffffffffffffffffffffffffffffffffffffffff166323b872dd30600f848154811062000c515762000c5062003b8d565b5b9060005260206000200160009054906101000a900473ffffffffffffffffffffffffffffffffffffffff16856040518463ffffffff1660e01b815260040162000c9d939291906200328b565b602060405180830381600087803b15801562000cb857600080fd5b505af115801562000ccd573d6000803e3d6000fd5b505050506040513d601f19601f8201168201806040525081019062000cf3919062002a02565b50808062000d019062003ab2565b91505062000b37565b505050565b600760009054906101000a900473ffffffffffffffffffffffffffffffffffffffff1681565b600e818154811062000d4657600080fd5b906000526020600020016000915054906101000a900473ffffffffffffffffffffffffffffffffffffffff1681565b6000600760159054906101000a900460ff16905090565b600c6020528060005260406000206000915090505481565b606060106000838152602001908152602001600020805480602002602001604051908101604052809291908181526020016000905b8282101562000e8a57838290600052602060002090600202016040518060200160405290816000820160028060200260405190810160405280929190826002801562000e71576020028201915b8160009054906101000a900473ffffffffffffffffffffffffffffffffffffffff1673ffffffffffffffffffffffffffffffffffffffff168152602001906001019080831162000e26575b5050505050815250508152602001906001019062000dd9565b505050509050919050565b600060019054906101000a900460ff1662000ebf5760008054906101000a900460ff161562000eca565b62000ec96200266e565b5b62000f0c576040517f08c379a000000000000000000000000000000000000000000000000000000000815260040162000f0390620035bf565b60405180910390fd5b60008060019054906101000a900460ff16159050801562000f5d576001600060016101000a81548160ff02191690831515021790555060016000806101000a81548160ff0219169083151502179055505b8b8b6002919062000f709291906200276a565b50600860038190555086600660006101000a81548173ffffffffffffffffffffffffffffffffffffffff021916908373ffffffffffffffffffffffffffffffffffffffff160217905550896004819055506000600760146101000a81548160ff0219169083151502179055506000600760156101000a81548160ff02191690831515021790555087601160006101000a81548173ffffffffffffffffffffffffffffffffffffffff021916908373ffffffffffffffffffffffffffffffffffffffff16021790555081601360006101000a81548173ffffffffffffffffffffffffffffffffffffffff021916908373ffffffffffffffffffffffffffffffffffffffff160217905550886040516200108890620027fb565b62001094919062003446565b604051809103906000f080158015620010b1573d6000803e3d6000fd5b50601260006101000a81548173ffffffffffffffffffffffffffffffffffffffff021916908373ffffffffffffffffffffffffffffffffffffffff16021790555085601560006101000a81548173ffffffffffffffffffffffffffffffffffffffff021916908373ffffffffffffffffffffffffffffffffffffffff16021790555084601460006101000a81548173ffffffffffffffffffffffffffffffffffffffff021916908373ffffffffffffffffffffffffffffffffffffffff16021790555082600760006101000a81548173ffffffffffffffffffffffffffffffffffffffff021916908373ffffffffffffffffffffffffffffffffffffffff16021790555083601660006101000a81548173ffffffffffffffffffffffffffffffffffffffff021916908373ffffffffffffffffffffffffffffffffffffffff160217905550620012366040518060400160405280601281526020017f50726f787920696e697469616c697a656421000000000000000000000000000081525062002681565b8015620012585760008060016101000a81548160ff0219169083151502179055505b505050505050505050505050565b60055481565b60045481565b6000600e80549050905090565b6200128962002809565b600960008373ffffffffffffffffffffffffffffffffffffffff1673ffffffffffffffffffffffffffffffffffffffff16815260200190815260200160002060088060200260405190810160405280929190826008801562001301576020028201915b815481526020019060010190808311620012ec575b50505050509050919050565b600760149054906101000a900460ff1681565b6000600660009054906101000a900473ffffffffffffffffffffffffffffffffffffffff16905090565b600660009054906101000a900473ffffffffffffffffffffffffffffffffffffffff1673ffffffffffffffffffffffffffffffffffffffff163373ffffffffffffffffffffffffffffffffffffffff1614620013dd576040517f08c379a0000000000000000000000000000000000000000000000000000000008152600401620013d490620035e1565b60405180910390fd5b601260009054906101000a900473ffffffffffffffffffffffffffffffffffffffff1673ffffffffffffffffffffffffffffffffffffffff16637b9417c8826040518263ffffffff1660e01b81526004016200143a91906200326e565b602060405180830381600087803b1580156200145557600080fd5b505af11580156200146a573d6000803e3d6000fd5b505050506040513d601f19601f8201168201806040525081019062001490919062002a02565b50601360009054906101000a900473ffffffffffffffffffffffffffffffffffffffff1673ffffffffffffffffffffffffffffffffffffffff1663771bd4ce826040518263ffffffff1660e01b8152600401620014ee91906200326e565b600060405180830381600087803b1580156200150957600080fd5b505af11580156200151e573d6000803e3d6000fd5b5050505050565b60035481565b600280546200153a9062003a5e565b80601f0160208091040260200160405190810160405280929190818152602001828054620015689062003a5e565b8015620015b95780601f106200158d57610100808354040283529160200191620015b9565b820191906000526020600020905b8154815290600101906020018083116200159b57829003601f168201915b505050505081565b601260009054906101000a900473ffffffffffffffffffffffffffffffffffffffff1681565b600660009054906101000a900473ffffffffffffffffffffffffffffffffffffffff1673ffffffffffffffffffffffffffffffffffffffff163373ffffffffffffffffffffffffffffffffffffffff16146200167a576040517f08c379a00000000000000000000000000000000000000000000000000000000081526004016200167190620035e1565b60405180910390fd5b600760149054906101000a900460ff1615620016cd576040517f08c379a0000000000000000000000000000000000000000000000000000000008152600401620016c49062003647565b60405180910390fd5b601260009054906101000a900473ffffffffffffffffffffffffffffffffffffffff1673ffffffffffffffffffffffffffffffffffffffff1663286dd3f5826040518263ffffffff1660e01b81526004016200172a91906200326e565b602060405180830381600087803b1580156200174557600080fd5b505af11580156200175a573d6000803e3d6000fd5b505050506040513d601f19601f8201168201806040525081019062001780919062002a02565b5050565b600d6020528060005260406000206000915054906101000a900460ff1681565b600760009054906101000a900473ffffffffffffffffffffffffffffffffffffffff1673ffffffffffffffffffffffffffffffffffffffff163373ffffffffffffffffffffffffffffffffffffffff161462001837576040517f08c379a00000000000000000000000000000000000000000000000000000000081526004016200182e9062003603565b60405180910390fd5b6000600760156101000a81548160ff021916908315150217905550565b601560009054906101000a900473ffffffffffffffffffffffffffffffffffffffff1681565b600760159054906101000a900460ff1615620018cd576040517f08c379a0000000000000000000000000000000000000000000000000000000008152600401620018c4906200359d565b60405180910390fd5b600d60003373ffffffffffffffffffffffffffffffffffffffff1673ffffffffffffffffffffffffffffffffffffffff16815260200190815260200160002060009054906101000a900460ff166200195c576040517f08c379a0000000000000000000000000000000000000000000000000000000008152600401620019539062003625565b60405180910390fd5b6000601660009054906101000a900473ffffffffffffffffffffffffffffffffffffffff1673ffffffffffffffffffffffffffffffffffffffff1662fdd58e33856040518363ffffffff1660e01b8152600401620019bc929190620032c8565b60206040518083038186803b158015620019d557600080fd5b505afa158015620019ea573d6000803e3d6000fd5b505050506040513d601f19601f8201168201806040525081019062001a10919062002b80565b1162001a53576040517f08c379a000000000000000000000000000000000000000000000000000000000815260040162001a4a9062003669565b60405180910390fd5b600a8162001a629190620038d2565b821015801562001a9c57506001600a60018362001a8091906200383d565b62001a8c9190620038d2565b62001a98919062003933565b8211155b62001ade576040517f08c379a000000000000000000000000000000000000000000000000000000000815260040162001ad5906200357b565b60405180910390fd5b81600a60003373ffffffffffffffffffffffffffffffffffffffff1673ffffffffffffffffffffffffffffffffffffffff168152602001908152602001600020826005811062001b335762001b3262003b8d565b5b01819055507f54855417c0e2ab054364c5b9ce89e35cf9ab4dba31271a3c1dbfde84e071405933838360405162001b6d9392919062003332565b60405180910390a15050565b600760009054906101000a900473ffffffffffffffffffffffffffffffffffffffff1673ffffffffffffffffffffffffffffffffffffffff163373ffffffffffffffffffffffffffffffffffffffff161462001c0c576040517f08c379a000000000000000000000000000000000000000000000000000000000815260040162001c039062003603565b60405180910390fd5b6001600760156101000a81548160ff021916908315150217905550565b6002600154141562001c72576040517f08c379a000000000000000000000000000000000000000000000000000000000815260040162001c69906200368b565b60405180910390fd5b6002600181905550601260009054906101000a900473ffffffffffffffffffffffffffffffffffffffff1673ffffffffffffffffffffffffffffffffffffffff16639b19251a336040518263ffffffff1660e01b815260040162001cd791906200326e565b60206040518083038186803b15801562001cf057600080fd5b505afa15801562001d05573d6000803e3d6000fd5b505050506040513d601f19601f8201168201806040525081019062001d2b919062002a02565b8062001dd75750601260009054906101000a900473ffffffffffffffffffffffffffffffffffffffff1673ffffffffffffffffffffffffffffffffffffffff1663dc9a15356040518163ffffffff1660e01b815260040160206040518083038186803b15801562001d9b57600080fd5b505afa15801562001db0573d6000803e3d6000fd5b505050506040513d601f19601f8201168201806040525081019062001dd6919062002a02565b5b8062001e305750600660009054906101000a900473ffffffffffffffffffffffffffffffffffffffff1673ffffffffffffffffffffffffffffffffffffffff163373ffffffffffffffffffffffffffffffffffffffff16145b62001e72576040517f08c379a000000000000000000000000000000000000000000000000000000000815260040162001e699062003537565b60405180910390fd5b600760149054906101000a900460ff161562001ec5576040517f08c379a000000000000000000000000000000000000000000000000000000000815260040162001ebc90620036ad565b60405180910390fd5b600d60003373ffffffffffffffffffffffffffffffffffffffff1673ffffffffffffffffffffffffffffffffffffffff16815260200190815260200160002060009054906101000a900460ff161562001f55576040517f08c379a000000000000000000000000000000000000000000000000000000000815260040162001f4c9062003559565b60405180910390fd5b600454601560009054906101000a900473ffffffffffffffffffffffffffffffffffffffff1673ffffffffffffffffffffffffffffffffffffffff166370a08231336040518263ffffffff1660e01b815260040162001fb591906200326e565b60206040518083038186803b15801562001fce57600080fd5b505afa15801562001fe3573d6000803e3d6000fd5b505050506040513d601f19601f8201168201806040525081019062002009919062002b80565b116200204c576040517f08c379a0000000000000000000000000000000000000000000000000000000008152600401620020439062003515565b60405180910390fd5b601260009054906101000a900473ffffffffffffffffffffffffffffffffffffffff1673ffffffffffffffffffffffffffffffffffffffff1663dc9a15356040518163ffffffff1660e01b815260040160206040518083038186803b158015620020b557600080fd5b505afa158015620020ca573d6000803e3d6000fd5b505050506040513d601f19601f82011682018060405250810190620020f0919062002a02565b156200218857601360009054906101000a900473ffffffffffffffffffffffffffffffffffffffff1673ffffffffffffffffffffffffffffffffffffffff1663771bd4ce336040518263ffffffff1660e01b81526004016200215391906200326e565b600060405180830381600087803b1580156200216e57600080fd5b505af115801562002183573d6000803e3d6000fd5b505050505b6001600d60003373ffffffffffffffffffffffffffffffffffffffff1673ffffffffffffffffffffffffffffffffffffffff16815260200190815260200160002060006101000a81548160ff021916908315150217905550600e339080600181540180825580915050600190039060005260206000200160009091909190916101000a81548173ffffffffffffffffffffffffffffffffffffffff021916908373ffffffffffffffffffffffffffffffffffffffff1602179055506040518060a00160405280606460ff168152602001606460ff168152602001606460ff168152602001606460ff168152602001606460ff16815250600a60003373ffffffffffffffffffffffffffffffffffffffff1673ffffffffffffffffffffffffffffffffffffffff168152602001908152602001600020906005620022cd9291906200282c565b50601560009054906101000a900473ffffffffffffffffffffffffffffffffffffffff1673ffffffffffffffffffffffffffffffffffffffff166323b872dd33306004546040518463ffffffff1660e01b815260040162002331939291906200328b565b602060405180830381600087803b1580156200234c57600080fd5b505af115801562002361573d6000803e3d6000fd5b505050506040513d601f19601f8201168201806040525081019062002387919062002a02565b507f9f9e4044c5742cca66ca090b21552bac14645e68bad7a92364a9d9ff18111a1c3360045430604051620023bf93929190620032f5565b60405180910390a160018081905550565b600a6020528160005260406000208160058110620023ed57600080fd5b01600091509150505481565b600b60205281600052604060002081600881106200241657600080fd5b01600091509150505481565b600760009054906101000a900473ffffffffffffffffffffffffffffffffffffffff1673ffffffffffffffffffffffffffffffffffffffff163373ffffffffffffffffffffffffffffffffffffffff1614620024b5576040517f08c379a0000000000000000000000000000000000000000000000000000000008152600401620024ac9062003603565b60405180910390fd5b6001600760146101000a81548160ff021916908315150217905550565b620024dc62002876565b600a60008373ffffffffffffffffffffffffffffffffffffffff1673ffffffffffffffffffffffffffffffffffffffff16815260200190815260200160002060058060200260405190810160405280929190826005801562002554576020028201915b8154815260200190600101908083116200253f575b50505050509050919050565b6000600e828154811062002579576200257862003b8d565b5b9060005260206000200160009054906101000a900473ffffffffffffffffffffffffffffffffffffffff169050919050565b600660009054906101000a900473ffffffffffffffffffffffffffffffffffffffff1681565b6200266b81604051602401620025e891906200326e565b6040516020818303038152906040527f2c2ecbc2000000000000000000000000000000000000000000000000000000007bffffffffffffffffffffffffffffffffffffffffffffffffffffffff19166020820180517bffffffffffffffffffffffffffffffffffffffffffffffffffffffff83818316178352505050506200271e565b50565b60006200267b3062002747565b15905090565b6200271b81604051602401620026989190620034f1565b6040516020818303038152906040527f41304fac000000000000000000000000000000000000000000000000000000007bffffffffffffffffffffffffffffffffffffffffffffffffffffffff19166020820180517bffffffffffffffffffffffffffffffffffffffffffffffffffffffff83818316178352505050506200271e565b50565b60008151905060006a636f6e736f6c652e6c6f679050602083016000808483855afa5050505050565b6000808273ffffffffffffffffffffffffffffffffffffffff163b119050919050565b828054620027789062003a5e565b90600052602060002090601f0160209004810192826200279c5760008555620027e8565b82601f10620027b757803560ff1916838001178555620027e8565b82800160010185558215620027e8579182015b82811115620027e7578235825591602001919060010190620027ca565b5b509050620027f7919062002898565b5090565b6111148062003f5083390190565b604051806101000160405280600890602082028036833780820191505090505090565b826005810192821562002863579160200282015b8281111562002862578251829060ff1690559160200191906001019062002840565b5b50905062002872919062002898565b5090565b6040518060a00160405280600590602082028036833780820191505090505090565b5b80821115620028b357600081600090555060010162002899565b5090565b600081359050620028c88162003f01565b92915050565b600081359050620028df8162003f1b565b92915050565b600081519050620028f68162003f1b565b92915050565b60008083601f84011262002915576200291462003bd6565b5b8235905067ffffffffffffffff81111562002935576200293462003bd1565b5b60208301915083600182028301111562002954576200295362003bdb565b5b9250929050565b6000813590506200296c8162003f35565b92915050565b600081519050620029838162003f35565b92915050565b600060208284031215620029a257620029a162003be5565b5b6000620029b284828501620028b7565b91505092915050565b60008060408385031215620029d557620029d462003be5565b5b6000620029e585828601620028b7565b9250506020620029f8858286016200295b565b9150509250929050565b60006020828403121562002a1b5762002a1a62003be5565b5b600062002a2b84828501620028e5565b91505092915050565b60008060008060008060008060008060006101408c8e03121562002a5d5762002a5c62003be5565b5b60008c013567ffffffffffffffff81111562002a7e5762002a7d62003be0565b5b62002a8c8e828f01620028fc565b9b509b5050602062002aa18e828f016200295b565b995050604062002ab48e828f01620028ce565b985050606062002ac78e828f01620028b7565b975050608062002ada8e828f01620028b7565b96505060a062002aed8e828f01620028b7565b95505060c062002b008e828f01620028b7565b94505060e062002b138e828f01620028b7565b93505061010062002b278e828f01620028b7565b92505061012062002b3b8e828f01620028b7565b9150509295989b509295989b9093969950565b60006020828403121562002b675762002b6662003be5565b5b600062002b77848285016200295b565b91505092915050565b60006020828403121562002b995762002b9862003be5565b5b600062002ba98482850162002972565b91505092915050565b6000806040838503121562002bcc5762002bcb62003be5565b5b600062002bdc858286016200295b565b925050602062002bef858286016200295b565b9150509250929050565b600062002c07838362002c61565b60208301905092915050565b600062002c21838362002c83565b60208301905092915050565b600062002c3b83836200321d565b60408301905092915050565b600062002c5583836200323b565b60208301905092915050565b62002c6c816200398e565b82525050565b62002c7d816200398e565b82525050565b62002c8e816200398e565b82525050565b62002c9f8162003744565b62002cab8184620037c7565b925062002cb882620036ec565b8060005b8381101562002cef57815162002cd3878262002bf9565b965062002ce08362003786565b92505060018101905062002cbc565b505050505050565b600062002d04826200374f565b62002d108185620037d2565b935062002d1d83620036f6565b8060005b8381101562002d5d5762002d358262003bbc565b62002d41888262002bf9565b975062002d4e8362003793565b92505060018101905062002d21565b5085935050505092915050565b600062002d77826200374f565b62002d838185620037e3565b935062002d9083620036f6565b8060005b8381101562002dd05762002da88262003bbc565b62002db4888262002c13565b975062002dc18362003793565b92505060018101905062002d94565b5085935050505092915050565b8082525050565b600062002df1826200375a565b62002dfd8185620037f4565b935062002e0a836200370b565b8060005b8381101562002e4157815162002e25888262002c2d565b975062002e3283620037a0565b92505060018101905062002e0e565b5085935050505092915050565b62002e598162003765565b62002e65818462003805565b925062002e72826200371b565b8060005b8381101562002ea957815162002e8d878262002c47565b965062002e9a83620037ad565b92505060018101905062002e76565b505050505050565b62002ebc8162003770565b62002ec8818462003810565b925062002ed58262003725565b8060005b8381101562002f0c57815162002ef0878262002c47565b965062002efd83620037ba565b92505060018101905062002ed9565b505050505050565b62002f1f81620039a2565b82525050565b62002f3081620039d8565b82525050565b62002f4181620039ec565b82525050565b8082525050565b8082525050565b600062002f62826200377b565b62002f6e81856200381b565b935062002f8081856020860162003a28565b62002f8b8162003bea565b840191505092915050565b6000815462002fa58162003a5e565b62002fb181866200382c565b9450600182166000811462002fcf576001811462002fe25762003019565b60ff198316865260208601935062003019565b62002fed856200372f565b60005b83811015620030115781548189015260018201915060208101905062002ff0565b808801955050505b50505092915050565b600062003031601d836200381b565b91506200303e8262003c08565b602082019050919050565b6000620030586018836200381b565b9150620030658262003c31565b602082019050919050565b60006200307f6023836200381b565b91506200308c8262003c5a565b604082019050919050565b6000620030a66031836200381b565b9150620030b38262003ca9565b604082019050919050565b6000620030cd601e836200381b565b9150620030da8262003cf8565b602082019050919050565b6000620030f4602e836200381b565b9150620031018262003d21565b604082019050919050565b60006200311b6017836200381b565b9150620031288262003d70565b602082019050919050565b6000620031426016836200381b565b91506200314f8262003d99565b602082019050919050565b6000620031696016836200381b565b9150620031768262003dc2565b602082019050919050565b6000620031906041836200381b565b91506200319d8262003deb565b606082019050919050565b6000620031b76024836200381b565b9150620031c48262003e60565b604082019050919050565b6000620031de601f836200381b565b9150620031eb8262003eaf565b602082019050919050565b6000620032056017836200381b565b9150620032128262003ed8565b602082019050919050565b60408201600082015162003235600085018262002c94565b50505050565b6200324681620039ce565b82525050565b6200325781620039ce565b82525050565b6200326881620039ce565b82525050565b600060208201905062003285600083018462002c72565b92915050565b6000606082019050620032a2600083018662002c72565b620032b1602083018562002c72565b620032c060408301846200324c565b949350505050565b6000604082019050620032df600083018562002c72565b620032ee60208301846200324c565b9392505050565b60006060820190506200330c600083018662002c72565b6200331b60208301856200324c565b6200332a604083018462002c72565b949350505050565b600060608201905062003349600083018662002c72565b6200335860208301856200324c565b6200336760408301846200324c565b949350505050565b600060608201905081810360008301526200338b818662002d6a565b90506200339c602083018562002f47565b620033ab604083018462002ddd565b949350505050565b60006040820190508181036000830152620033cf818562002cf7565b9050620033e060208301846200324c565b9392505050565b6000602082019050818103600083015262003403818462002de4565b905092915050565b600060a08201905062003422600083018462002e4e565b92915050565b60006101008201905062003440600083018462002eb1565b92915050565b60006020820190506200345d600083018462002f14565b92915050565b60006020820190506200347a600083018462002f25565b92915050565b600060208201905062003497600083018462002f36565b92915050565b6000608082019050620034b4600083018762002f4e565b620034c3602083018662002ddd565b620034d260408301856200325d565b8181036060830152620034e6818462002f96565b905095945050505050565b600060208201905081810360008301526200350d818462002f55565b905092915050565b60006020820190508181036000830152620035308162003022565b9050919050565b60006020820190508181036000830152620035528162003049565b9050919050565b60006020820190508181036000830152620035748162003070565b9050919050565b60006020820190508181036000830152620035968162003097565b9050919050565b60006020820190508181036000830152620035b881620030be565b9050919050565b60006020820190508181036000830152620035da81620030e5565b9050919050565b60006020820190508181036000830152620035fc816200310c565b9050919050565b600060208201905081810360008301526200361e8162003133565b9050919050565b6000602082019050818103600083015262003640816200315a565b9050919050565b60006020820190508181036000830152620036628162003181565b9050919050565b600060208201905081810360008301526200368481620031a8565b9050919050565b60006020820190508181036000830152620036a681620031cf565b9050919050565b60006020820190508181036000830152620036c881620031f6565b9050919050565b6000602082019050620036e660008301846200324c565b92915050565b6000819050919050565b60008190508160005260206000209050919050565b6000819050602082019050919050565b6000819050919050565b6000819050919050565b60008190508160005260206000209050919050565b600060029050919050565b600081549050919050565b600081519050919050565b600060059050919050565b600060089050919050565b600081519050919050565b6000602082019050919050565b6000600182019050919050565b6000602082019050919050565b6000602082019050919050565b6000602082019050919050565b600081905092915050565b600082825260208201905092915050565b600082825260208201905092915050565b600082825260208201905092915050565b600081905092915050565b600081905092915050565b600082825260208201905092915050565b600082825260208201905092915050565b60006200384a82620039ce565b91506200385783620039ce565b9250827fffffffffffffffffffffffffffffffffffffffffffffffffffffffffffffffff038211156200388f576200388e62003b00565b5b828201905092915050565b6000620038a782620039ce565b9150620038b483620039ce565b925082620038c757620038c662003b2f565b5b828204905092915050565b6000620038df82620039ce565b9150620038ec83620039ce565b9250817fffffffffffffffffffffffffffffffffffffffffffffffffffffffffffffffff048311821515161562003928576200392762003b00565b5b828202905092915050565b60006200394082620039ce565b91506200394d83620039ce565b92508282101562003963576200396262003b00565b5b828203905092915050565b600073ffffffffffffffffffffffffffffffffffffffff82169050919050565b60006200399b82620039ae565b9050919050565b60008115159050919050565b600073ffffffffffffffffffffffffffffffffffffffff82169050919050565b6000819050919050565b6000620039e58262003a00565b9050919050565b6000620039f98262003a00565b9050919050565b600062003a0d8262003a14565b9050919050565b600062003a2182620039ae565b9050919050565b60005b8381101562003a4857808201518184015260208101905062003a2b565b8381111562003a58576000848401525b50505050565b6000600282049050600182168062003a7757607f821691505b6020821081141562003a8e5762003a8d62003b5e565b5b50919050565b600062003aab62003aa58362003bfb565b6200396e565b9050919050565b600062003abf82620039ce565b91507fffffffffffffffffffffffffffffffffffffffffffffffffffffffffffffffff82141562003af55762003af462003b00565b5b600182019050919050565b7f4e487b7100000000000000000000000000000000000000000000000000000000600052601160045260246000fd5b7f4e487b7100000000000000000000000000000000000000000000000000000000600052601260045260246000fd5b7f4e487b7100000000000000000000000000000000000000000000000000000000600052602260045260246000fd5b7f4e487b7100000000000000000000000000000000000000000000000000000000600052603260045260246000fd5b600062003bca825462003a94565b9050919050565b600080fd5b600080fd5b600080fd5b600080fd5b600080fd5b6000601f19601f8301169050919050565b60008160001c9050919050565b7f496e737566666963656e742066756e647320666f72207374616b696e67000000600082015250565b7f55736572206973206e6f74206f6e2077686974656c6973740000000000000000600082015250565b7f596f75206861766520616c7265616479206a6f696e65642074686973206c656160008201527f6775650000000000000000000000000000000000000000000000000000000000602082015250565b7f596f75206172652073657474696e6720616e206174686c65746520696e20746860008201527f652077726f6e6720706f736974696f6e21000000000000000000000000000000602082015250565b7f6c696e657570206973206c6f636b656420666f7220746865207765656b210000600082015250565b7f496e697469616c697a61626c653a20636f6e747261637420697320616c72656160008201527f647920696e697469616c697a6564000000000000000000000000000000000000602082015250565b7f43616c6c6572206973206e6f74207468652061646d696e000000000000000000600082015250565b7f43616c6c6572206973206e6f74205465616d4469666600000000000000000000600082015250565b7f55736572206973206e6f7420696e204c65616775652e00000000000000000000600082015250565b7f4e6f626f64792063616e20656e7465722f6578697420746865206c656167756560008201527f20616e796d6f72652e2054686520736561736f6e20686173207374617274656460208201527f2100000000000000000000000000000000000000000000000000000000000000604082015250565b7f43616c6c657220646f6573206e6f74206f776e20676976656e206174686c657460008201527f6549647300000000000000000000000000000000000000000000000000000000602082015250565b7f5265656e7472616e637947756172643a207265656e7472616e742063616c6c00600082015250565b7f4c656167756520456e74727920697320436c6f73656421000000000000000000600082015250565b62003f0c816200398e565b811462003f1857600080fd5b50565b62003f2681620039a2565b811462003f3257600080fd5b50565b62003f4081620039ce565b811462003f4c57600080fd5b5056fe60806040523480156200001157600080fd5b50604051620011143803806200111483398181016040528101906200003791906200015b565b620000576200004b6200007860201b60201c565b6200008060201b60201c565b80600360006101000a81548160ff02191690831515021790555050620001b8565b600033905090565b60008060009054906101000a900473ffffffffffffffffffffffffffffffffffffffff169050816000806101000a81548173ffffffffffffffffffffffffffffffffffffffff021916908373ffffffffffffffffffffffffffffffffffffffff1602179055508173ffffffffffffffffffffffffffffffffffffffff168173ffffffffffffffffffffffffffffffffffffffff167f8be0079c531659141344cd1fd0a4f28419497f9722a3daafe3b4186f6b6457e060405160405180910390a35050565b60008151905062000155816200019e565b92915050565b60006020828403121562000174576200017362000199565b5b6000620001848482850162000144565b91505092915050565b60008115159050919050565b600080fd5b620001a9816200018d565b8114620001b557600080fd5b50565b610f4c80620001c86000396000f3fe608060405234801561001057600080fd5b50600436106100a95760003560e01c80638da5cb5b116100715780638da5cb5b146101665780639b19251a14610184578063dc9a1535146101b4578063e2ec6ec3146101d2578063e35a899914610202578063f2fde38b14610232576100a9565b806324953eaa146100ae578063286dd3f5146100de57806344eaa84e1461010e578063715018a61461012c5780637b9417c814610136575b600080fd5b6100c860048036038101906100c39190610ada565b61024e565b6040516100d59190610bb1565b60405180910390f35b6100f860048036038101906100f39190610aad565b61031e565b6040516101059190610bb1565b60405180910390f35b6101166104a1565b6040516101239190610c0c565b60405180910390f35b6101346104ab565b005b610150600480360381019061014b9190610aad565b610533565b60405161015d9190610bb1565b60405180910390f35b61016e6106b4565b60405161017b9190610b96565b60405180910390f35b61019e60048036038101906101999190610aad565b6106dd565b6040516101ab9190610bb1565b60405180910390f35b6101bc6106fd565b6040516101c99190610bb1565b60405180910390f35b6101ec60048036038101906101e79190610ada565b610710565b6040516101f99190610bb1565b60405180910390f35b61021c60048036038101906102179190610aad565b6107e0565b6040516102299190610bb1565b60405180910390f35b61024c60048036038101906102479190610aad565b610836565b005b600061025861092e565b73ffffffffffffffffffffffffffffffffffffffff166102766106b4565b73ffffffffffffffffffffffffffffffffffffffff16146102cc576040517f08c379a00000000000000000000000000000000000000000000000000000000081526004016102c390610bec565b60405180910390fd5b60005b8251811015610318576102fb8382815181106102ee576102ed610e04565b5b602002602001015161031e565b1561030557600191505b808061031090610d8c565b9150506102cf565b50919050565b600061032861092e565b73ffffffffffffffffffffffffffffffffffffffff166103466106b4565b73ffffffffffffffffffffffffffffffffffffffff161461039c576040517f08c379a000000000000000000000000000000000000000000000000000000000815260040161039390610bec565b60405180910390fd5b600160008373ffffffffffffffffffffffffffffffffffffffff1673ffffffffffffffffffffffffffffffffffffffff16815260200190815260200160002060009054906101000a900460ff161561049c576000600160008473ffffffffffffffffffffffffffffffffffffffff1673ffffffffffffffffffffffffffffffffffffffff16815260200190815260200160002060006101000a81548160ff0219169083151502179055507ff1abf01a1043b7c244d128e8595cf0c1d10743b022b03a02dffd8ca3bf729f5a826040516104759190610b96565b60405180910390a16001600260008282546104909190610cdf565b92505081905550600190505b919050565b6000600254905090565b6104b361092e565b73ffffffffffffffffffffffffffffffffffffffff166104d16106b4565b73ffffffffffffffffffffffffffffffffffffffff1614610527576040517f08c379a000000000000000000000000000000000000000000000000000000000815260040161051e90610bec565b60405180910390fd5b6105316000610936565b565b600061053d61092e565b73ffffffffffffffffffffffffffffffffffffffff1661055b6106b4565b73ffffffffffffffffffffffffffffffffffffffff16146105b1576040517f08c379a00000000000000000000000000000000000000000000000000000000081526004016105a890610bec565b60405180910390fd5b600160008373ffffffffffffffffffffffffffffffffffffffff1673ffffffffffffffffffffffffffffffffffffffff16815260200190815260200160002060009054906101000a900460ff166106af5760018060008473ffffffffffffffffffffffffffffffffffffffff1673ffffffffffffffffffffffffffffffffffffffff16815260200190815260200160002060006101000a81548160ff0219169083151502179055507fd1bba68c128cc3f427e5831b3c6f99f480b6efa6b9e80c757768f6124158cc3f826040516106889190610b96565b60405180910390a16001600260008282546106a39190610c89565b92505081905550600190505b919050565b60008060009054906101000a900473ffffffffffffffffffffffffffffffffffffffff16905090565b60016020528060005260406000206000915054906101000a900460ff1681565b600360009054906101000a900460ff1681565b600061071a61092e565b73ffffffffffffffffffffffffffffffffffffffff166107386106b4565b73ffffffffffffffffffffffffffffffffffffffff161461078e576040517f08c379a000000000000000000000000000000000000000000000000000000000815260040161078590610bec565b60405180910390fd5b60005b82518110156107da576107bd8382815181106107b0576107af610e04565b5b6020026020010151610533565b156107c757600191505b80806107d290610d8c565b915050610791565b50919050565b6000600160008373ffffffffffffffffffffffffffffffffffffffff1673ffffffffffffffffffffffffffffffffffffffff16815260200190815260200160002060009054906101000a900460ff169050919050565b61083e61092e565b73ffffffffffffffffffffffffffffffffffffffff1661085c6106b4565b73ffffffffffffffffffffffffffffffffffffffff16146108b2576040517f08c379a00000000000000000000000000000000000000000000000000000000081526004016108a990610bec565b60405180910390fd5b600073ffffffffffffffffffffffffffffffffffffffff168173ffffffffffffffffffffffffffffffffffffffff161415610922576040517f08c379a000000000000000000000000000000000000000000000000000000000815260040161091990610bcc565b60405180910390fd5b61092b81610936565b50565b600033905090565b60008060009054906101000a900473ffffffffffffffffffffffffffffffffffffffff169050816000806101000a81548173ffffffffffffffffffffffffffffffffffffffff021916908373ffffffffffffffffffffffffffffffffffffffff1602179055508173ffffffffffffffffffffffffffffffffffffffff168173ffffffffffffffffffffffffffffffffffffffff167f8be0079c531659141344cd1fd0a4f28419497f9722a3daafe3b4186f6b6457e060405160405180910390a35050565b6000610a0d610a0884610c4c565b610c27565b90508083825260208201905082856020860282011115610a3057610a2f610e67565b5b60005b85811015610a605781610a468882610a6a565b845260208401935060208301925050600181019050610a33565b5050509392505050565b600081359050610a7981610eff565b92915050565b600082601f830112610a9457610a93610e62565b5b8135610aa48482602086016109fa565b91505092915050565b600060208284031215610ac357610ac2610e71565b5b6000610ad184828501610a6a565b91505092915050565b600060208284031215610af057610aef610e71565b5b600082013567ffffffffffffffff811115610b0e57610b0d610e6c565b5b610b1a84828501610a7f565b91505092915050565b610b2c81610d13565b82525050565b610b3b81610d25565b82525050565b6000610b4e602683610c78565b9150610b5982610e87565b604082019050919050565b6000610b71602083610c78565b9150610b7c82610ed6565b602082019050919050565b610b9081610d51565b82525050565b6000602082019050610bab6000830184610b23565b92915050565b6000602082019050610bc66000830184610b32565b92915050565b60006020820190508181036000830152610be581610b41565b9050919050565b60006020820190508181036000830152610c0581610b64565b9050919050565b6000602082019050610c216000830184610b87565b92915050565b6000610c31610c42565b9050610c3d8282610d5b565b919050565b6000604051905090565b600067ffffffffffffffff821115610c6757610c66610e33565b5b602082029050602081019050919050565b600082825260208201905092915050565b6000610c9482610d51565b9150610c9f83610d51565b9250827fffffffffffffffffffffffffffffffffffffffffffffffffffffffffffffffff03821115610cd457610cd3610dd5565b5b828201905092915050565b6000610cea82610d51565b9150610cf583610d51565b925082821015610d0857610d07610dd5565b5b828203905092915050565b6000610d1e82610d31565b9050919050565b60008115159050919050565b600073ffffffffffffffffffffffffffffffffffffffff82169050919050565b6000819050919050565b610d6482610e76565b810181811067ffffffffffffffff82111715610d8357610d82610e33565b5b80604052505050565b6000610d9782610d51565b91507fffffffffffffffffffffffffffffffffffffffffffffffffffffffffffffffff821415610dca57610dc9610dd5565b5b600182019050919050565b7f4e487b7100000000000000000000000000000000000000000000000000000000600052601160045260246000fd5b7f4e487b7100000000000000000000000000000000000000000000000000000000600052603260045260246000fd5b7f4e487b7100000000000000000000000000000000000000000000000000000000600052604160045260246000fd5b600080fd5b600080fd5b600080fd5b600080fd5b6000601f19601f8301169050919050565b7f4f776e61626c653a206e6577206f776e657220697320746865207a65726f206160008201527f6464726573730000000000000000000000000000000000000000000000000000602082015250565b7f4f776e61626c653a2063616c6c6572206973206e6f7420746865206f776e6572600082015250565b610f0881610d13565b8114610f1357600080fd5b5056fea2646970667358221220d9b559c67c9c95c9212a7622f5c7dc9fab9234f044c42f52ae92caa64e6b8af364736f6c63430008070033a26469706673582212208193ca494f43ea36373d1d361a03edf05a9856916a281b20a7deecb8fbfec51664736f6c63430008070033",
  "linkReferences": {
    "contracts/MOBALogicLibrary.sol": {
      "MOBALogicLibrary": [
        {
          "length": 20,
          "start": 2263
        },
        {
          "length": 20,
          "start": 2596
        }
      ]
    }
  },
  "deployedLinkReferences": {
    "contracts/MOBALogicLibrary.sol": {
      "MOBALogicLibrary": [
        {
          "length": 20,
          "start": 2224
        },
        {
          "length": 20,
          "start": 2557
        }
      ]
    }
  }
}