{
  "_format": "hh-sol-artifact-1",
  "contractName": "LeagueOfLegendsLogic",
  "sourceName": "contracts/LeagueOfLegendsLogic.sol",
  "abi": [
    {
      "anonymous": false,
      "inputs": [
        {
          "indexed": true,
          "internalType": "address",
          "name": "previousOwner",
          "type": "address"
        },
        {
          "indexed": true,
          "internalType": "address",
          "name": "newOwner",
          "type": "address"
        }
      ],
      "name": "OwnershipTransferred",
      "type": "event"
    },
    {
      "anonymous": false,
      "inputs": [
        {
          "indexed": false,
          "internalType": "address",
          "name": "sender",
          "type": "address"
        },
        {
          "indexed": false,
          "internalType": "uint256",
          "name": "amount",
          "type": "uint256"
        }
      ],
      "name": "Staked",
      "type": "event"
    },
    {
      "anonymous": false,
      "inputs": [
        {
          "indexed": false,
          "internalType": "address",
          "name": "addr",
          "type": "address"
        }
      ],
      "name": "WhitelistedAddressAdded",
      "type": "event"
    },
    {
      "anonymous": false,
      "inputs": [
        {
          "indexed": false,
          "internalType": "address",
          "name": "addr",
          "type": "address"
        }
      ],
      "name": "WhitelistedAddressRemoved",
      "type": "event"
    },
    {
      "anonymous": false,
      "inputs": [
        {
          "indexed": false,
          "internalType": "address",
          "name": "sender",
          "type": "address"
        },
        {
          "indexed": false,
          "internalType": "address",
          "name": "contractAddress",
          "type": "address"
        }
      ],
      "name": "testUSDCDeployed",
      "type": "event"
    },
    {
      "inputs": [
        {
          "internalType": "address",
          "name": "addr",
          "type": "address"
        }
      ],
      "name": "addAddressToWhitelist",
      "outputs": [
        {
          "internalType": "bool",
          "name": "success",
          "type": "bool"
        }
      ],
      "stateMutability": "nonpayable",
      "type": "function"
    },
    {
      "inputs": [
        {
          "internalType": "address[]",
          "name": "addrs",
          "type": "address[]"
        }
      ],
      "name": "addAddressesToWhitelist",
      "outputs": [
        {
          "internalType": "bool",
          "name": "success",
          "type": "bool"
        }
      ],
      "stateMutability": "nonpayable",
      "type": "function"
    },
    {
      "inputs": [
        {
          "internalType": "address",
          "name": "_userToAdd",
          "type": "address"
        }
      ],
      "name": "addUserToWhitelist",
      "outputs": [],
      "stateMutability": "nonpayable",
      "type": "function"
    },
    {
      "inputs": [],
      "name": "admin",
      "outputs": [
        {
          "internalType": "address",
          "name": "",
          "type": "address"
        }
      ],
      "stateMutability": "view",
      "type": "function"
    },
    {
      "inputs": [
        {
          "internalType": "uint256",
          "name": "currentWeekNum",
          "type": "uint256"
        }
      ],
      "name": "evaluateWeek",
      "outputs": [],
      "stateMutability": "nonpayable",
      "type": "function"
    },
    {
      "inputs": [],
      "name": "getNumWhitelisted",
      "outputs": [
        {
          "internalType": "uint256",
          "name": "",
          "type": "uint256"
        }
      ],
      "stateMutability": "view",
      "type": "function"
    },
    {
      "inputs": [
        {
          "internalType": "address",
          "name": "_user",
          "type": "address"
        }
      ],
      "name": "getUserIsWhitelisted",
      "outputs": [
        {
          "internalType": "bool",
          "name": "",
          "type": "bool"
        }
      ],
      "stateMutability": "view",
      "type": "function"
    },
    {
      "inputs": [],
      "name": "getUserRecord",
      "outputs": [
        {
          "internalType": "uint256[8]",
          "name": "",
          "type": "uint256[8]"
        }
      ],
      "stateMutability": "view",
      "type": "function"
    },
    {
      "inputs": [],
      "name": "getUserTotalPts",
      "outputs": [
        {
          "internalType": "uint256",
          "name": "",
          "type": "uint256"
        }
      ],
      "stateMutability": "view",
      "type": "function"
    },
    {
      "inputs": [],
      "name": "getUserUSDCBalance",
      "outputs": [
        {
          "internalType": "uint256",
          "name": "",
          "type": "uint256"
        }
      ],
      "stateMutability": "view",
      "type": "function"
    },
    {
      "inputs": [],
      "name": "getUsersLength",
      "outputs": [
        {
          "internalType": "uint256",
          "name": "",
          "type": "uint256"
        }
      ],
      "stateMutability": "view",
      "type": "function"
    },
    {
      "inputs": [
        {
          "internalType": "address",
          "name": "",
          "type": "address"
        }
      ],
      "name": "inLeague",
      "outputs": [
        {
          "internalType": "bool",
          "name": "",
          "type": "bool"
        }
      ],
      "stateMutability": "view",
      "type": "function"
    },
    {
      "inputs": [
        {
          "internalType": "string",
          "name": "_name",
          "type": "string"
        },
        {
          "internalType": "uint256",
          "name": "_stakeAmount",
          "type": "uint256"
        },
        {
          "internalType": "bool",
          "name": "_isPublic",
          "type": "bool"
        },
        {
          "internalType": "address",
          "name": "athletesDataStorageAddress",
          "type": "address"
        },
        {
          "internalType": "address",
          "name": "_admin",
          "type": "address"
        },
        {
          "internalType": "address",
          "name": "_polygonUSDCAddress",
          "type": "address"
        },
        {
          "internalType": "address",
          "name": "_rinkebyUSDCAddress",
          "type": "address"
        },
        {
          "internalType": "address",
          "name": "_testUSDCAddress",
          "type": "address"
        },
        {
          "internalType": "address",
          "name": "leagueMakerContractAddress",
          "type": "address"
        }
      ],
      "name": "initialize",
      "outputs": [],
      "stateMutability": "nonpayable",
      "type": "function"
    },
    {
      "inputs": [],
      "name": "isPublic",
      "outputs": [
        {
          "internalType": "bool",
          "name": "",
          "type": "bool"
        }
      ],
      "stateMutability": "view",
      "type": "function"
    },
    {
      "inputs": [],
      "name": "joinLeague",
      "outputs": [],
      "stateMutability": "nonpayable",
      "type": "function"
    },
    {
      "inputs": [
        {
          "internalType": "uint256",
          "name": "",
          "type": "uint256"
        }
      ],
      "name": "leagueMembers",
      "outputs": [
        {
          "internalType": "address",
          "name": "",
          "type": "address"
        }
      ],
      "stateMutability": "view",
      "type": "function"
    },
    {
      "inputs": [],
      "name": "leagueName",
      "outputs": [
        {
          "internalType": "string",
          "name": "",
          "type": "string"
        }
      ],
      "stateMutability": "view",
      "type": "function"
    },
    {
      "inputs": [],
      "name": "lockLineup",
      "outputs": [],
      "stateMutability": "nonpayable",
      "type": "function"
    },
    {
      "inputs": [],
      "name": "numWeeks",
      "outputs": [
        {
          "internalType": "uint256",
          "name": "",
          "type": "uint256"
        }
      ],
      "stateMutability": "view",
      "type": "function"
    },
    {
      "inputs": [],
      "name": "onLeagueEnd",
      "outputs": [],
      "stateMutability": "nonpayable",
      "type": "function"
    },
    {
      "inputs": [],
      "name": "owner",
      "outputs": [
        {
          "internalType": "address",
          "name": "",
          "type": "address"
        }
      ],
      "stateMutability": "view",
      "type": "function"
    },
    {
      "inputs": [],
      "name": "polygonUSDCAddress",
      "outputs": [
        {
          "internalType": "address",
          "name": "",
          "type": "address"
        }
      ],
      "stateMutability": "view",
      "type": "function"
    },
    {
      "inputs": [
        {
          "internalType": "address",
          "name": "addr",
          "type": "address"
        }
      ],
      "name": "removeAddressFromWhitelist",
      "outputs": [
        {
          "internalType": "bool",
          "name": "success",
          "type": "bool"
        }
      ],
      "stateMutability": "nonpayable",
      "type": "function"
    },
    {
      "inputs": [
        {
          "internalType": "address[]",
          "name": "addrs",
          "type": "address[]"
        }
      ],
      "name": "removeAddressesFromWhitelist",
      "outputs": [
        {
          "internalType": "bool",
          "name": "success",
          "type": "bool"
        }
      ],
      "stateMutability": "nonpayable",
      "type": "function"
    },
    {
      "inputs": [
        {
          "internalType": "address",
          "name": "_userToRemove",
          "type": "address"
        }
      ],
      "name": "removeFromWhitelist",
      "outputs": [],
      "stateMutability": "nonpayable",
      "type": "function"
    },
    {
      "inputs": [],
      "name": "renounceOwnership",
      "outputs": [],
      "stateMutability": "nonpayable",
      "type": "function"
    },
    {
      "inputs": [],
      "name": "rinkebyUSDCAddress",
      "outputs": [
        {
          "internalType": "address",
          "name": "",
          "type": "address"
        }
      ],
      "stateMutability": "view",
      "type": "function"
    },
    {
      "inputs": [],
      "name": "setLeagueEntryIsClosed",
      "outputs": [],
      "stateMutability": "nonpayable",
      "type": "function"
    },
    {
      "inputs": [],
      "name": "setLeagueSchedule",
      "outputs": [],
      "stateMutability": "nonpayable",
      "type": "function"
    },
    {
      "inputs": [
        {
          "internalType": "uint256[]",
          "name": "athleteIds",
          "type": "uint256[]"
        }
      ],
      "name": "setLineup",
      "outputs": [],
      "stateMutability": "nonpayable",
      "type": "function"
    },
    {
      "inputs": [],
      "name": "stakeAmount",
      "outputs": [
        {
          "internalType": "uint256",
          "name": "",
          "type": "uint256"
        }
      ],
      "stateMutability": "view",
      "type": "function"
    },
    {
      "inputs": [
        {
          "internalType": "address",
          "name": "newOwner",
          "type": "address"
        }
      ],
      "name": "transferOwnership",
      "outputs": [],
      "stateMutability": "nonpayable",
      "type": "function"
    },
    {
      "inputs": [],
      "name": "unlockLineup",
      "outputs": [],
      "stateMutability": "nonpayable",
      "type": "function"
    },
    {
      "inputs": [
        {
          "internalType": "address",
          "name": "",
          "type": "address"
        },
        {
          "internalType": "uint256",
          "name": "",
          "type": "uint256"
        }
      ],
      "name": "userToLineup",
      "outputs": [
        {
          "internalType": "uint256",
          "name": "",
          "type": "uint256"
        }
      ],
      "stateMutability": "view",
      "type": "function"
    },
    {
      "inputs": [
        {
          "internalType": "address",
          "name": "",
          "type": "address"
        },
        {
          "internalType": "uint256",
          "name": "",
          "type": "uint256"
        }
      ],
      "name": "userToRecord",
      "outputs": [
        {
          "internalType": "uint256",
          "name": "",
          "type": "uint256"
        }
      ],
      "stateMutability": "view",
      "type": "function"
    },
    {
      "inputs": [
        {
          "internalType": "address",
          "name": "",
          "type": "address"
        }
      ],
      "name": "userToTotalWins",
      "outputs": [
        {
          "internalType": "uint256",
          "name": "",
          "type": "uint256"
        }
      ],
      "stateMutability": "view",
      "type": "function"
    },
    {
      "inputs": [
        {
          "internalType": "address",
          "name": "",
          "type": "address"
        }
      ],
      "name": "whitelist",
      "outputs": [
        {
          "internalType": "bool",
          "name": "",
          "type": "bool"
        }
      ],
      "stateMutability": "view",
      "type": "function"
    },
    {
      "inputs": [],
      "name": "whitelistContract",
      "outputs": [
        {
          "internalType": "contract Whitelist",
          "name": "",
          "type": "address"
        }
      ],
      "stateMutability": "view",
      "type": "function"
    }
  ],
  "bytecode": "0x60806040523480156200001157600080fd5b5062000032620000266200004060201b60201c565b6200004860201b60201c565b60016004819055506200010d565b600033905090565b60008060029054906101000a900473ffffffffffffffffffffffffffffffffffffffff16905081600060026101000a81548173ffffffffffffffffffffffffffffffffffffffff021916908373ffffffffffffffffffffffffffffffffffffffff1602179055508173ffffffffffffffffffffffffffffffffffffffff168173ffffffffffffffffffffffffffffffffffffffff167f8be0079c531659141344cd1fd0a4f28419497f9722a3daafe3b4186f6b6457e060405160405180910390a35050565b6153d4806200011d6000396000f3fe60806040523480156200001157600080fd5b5060043610620002675760003560e01c80638da5cb5b116200014d578063cff5600311620000c9578063edcbe96c1162000087578063edcbe96c14620006f4578063f2fde38b146200072a578063f612121a146200074a578063f851a440146200076a578063f8816045146200078c5762000267565b8063cff560031462000624578063dc9a1535146200065a578063e2ec6ec3146200067c578063e35a899914620006b2578063e4c9066b14620006e85762000267565b80639b19251a11620001175780639b19251a14620005aa5780639f2d548114620005e0578063a2bc091a1462000600578063c8be3b5b146200060c578063c99fea9414620006185762000267565b80638da5cb5b14620005105780639122ce6d146200053257806393f3706c1462000568578063989db659146200058a5762000267565b80635fcc698711620001e95780637b9417c811620001a75780637b9417c814620004545780637eed33f1146200048a578063841abf6e14620004ac57806384900b0414620004ce5780638ab1d68114620004f05762000267565b80635fcc698714620003c257806360c7dc4714620003e45780636bdc44df1462000406578063715018a61462000428578063747b805014620004345762000267565b806324953eaa116200023757806324953eaa14620002dc578063267175db1462000312578063286dd3f5146200034857806344eaa84e146200037e578063595b1a3e14620003a05762000267565b8062b2476f146200026c5780630655465a146200028e5780630c6f7959146200029a5780631d803e0014620002d0575b600080fd5b62000276620007ae565b60405162000285919062003730565b60405180910390f35b62000298620007d4565b005b620002b86004803603810190620002b29190620030a8565b6200088c565b604051620002c7919062003ad0565b60405180910390f35b620002da620008b5565b005b620002fa6004803603810190620002f49190620030ef565b62000be6565b604051620003099190620037d5565b60405180910390f35b6200033060048036038101906200032a9190620032c6565b62000ce3565b6040516200033f919062003730565b60405180910390f35b62000366600480360381019062000360919062003076565b62000d23565b604051620003759190620037d5565b60405180910390f35b6200038862000eb2565b60405162000397919062003ad0565b60405180910390f35b620003aa62000ebc565b604051620003b9919062003ad0565b60405180910390f35b620003cc62000ec9565b604051620003db919062003ad0565b60405180910390f35b620003ee62000fd8565b604051620003fd919062003ad0565b60405180910390f35b6200041062000fde565b6040516200041f919062003ad0565b60405180910390f35b6200043262001025565b005b6200045260048036038101906200044c919062003076565b620010b6565b005b6200047260048036038101906200046c919062003076565b62001291565b604051620004819190620037d5565b60405180910390f35b620004946200141e565b604051620004a3919062003ad0565b60405180910390f35b620004b662001424565b604051620004c59190620038d0565b60405180910390f35b620004d8620014ba565b604051620004e79190620037f2565b60405180910390f35b6200050e600480360381019062000508919062003076565b620014e0565b005b6200051a6200167d565b60405162000529919062003730565b60405180910390f35b6200055060048036038101906200054a919062003076565b620016a6565b6040516200055f9190620037d5565b60405180910390f35b62000572620016c6565b60405162000581919062003730565b60405180910390f35b620005a86004803603810190620005a29190620031c3565b620016ec565b005b620005c86004803603810190620005c2919062003076565b62001b43565b604051620005d79190620037d5565b60405180910390f35b620005fe6004803603810190620005f89190620032c6565b62001b63565b005b6200060a62001c84565b005b6200061662001d24565b005b6200062262001dc4565b005b6200064260048036038101906200063c9190620030a8565b62002252565b60405162000651919062003ad0565b60405180910390f35b6200066462002284565b604051620006739190620037d5565b60405180910390f35b6200069a6004803603810190620006949190620030ef565b62002297565b604051620006a99190620037d5565b60405180910390f35b620006d06004803603810190620006ca919062003076565b62002394565b604051620006df9190620037d5565b60405180910390f35b620006f2620023ea565b005b6200071260048036038101906200070c919062003076565b6200248a565b60405162000721919062003ad0565b60405180910390f35b62000748600480360381019062000742919062003076565b620024a2565b005b62000768600480360381019062000762919062003140565b620025a6565b005b6200077462002a9a565b60405162000783919062003730565b60405180910390f35b6200079662002ac0565b604051620007a59190620037b7565b60405180910390f35b601260009054906101000a900473ffffffffffffffffffffffffffffffffffffffff1681565b620008146040518060400160405280601081526020017f73657474696e67207363686564756c650000000000000000000000000000000081525062002b4c565b73__$36fdb4e0c2cb91f3ceca5ea81b025328f3$__63d2c232b56010600f60065460056040518563ffffffff1660e01b81526004016200085894939291906200380f565b60006040518083038186803b1580156200087157600080fd5b505af415801562000886573d6000803e3d6000fd5b50505050565b600b6020528160005260406000208160088110620008a957600080fd5b01600091509150505481565b620008bf62002be9565b73ffffffffffffffffffffffffffffffffffffffff16620008df6200167d565b73ffffffffffffffffffffffffffffffffffffffff161462000938576040517f08c379a00000000000000000000000000000000000000000000000000000000081526004016200092f90620039e2565b60405180910390fd5b6002600454141562000981576040517f08c379a0000000000000000000000000000000000000000000000000000000008152600401620009789062003a8c565b60405180910390fd5b60026004819055506000600f80549050600754620009a0919062003c40565b90506000600f600081548110620009bc57620009bb62003ef3565b5b9060005260206000200160009054906101000a900473ffffffffffffffffffffffffffffffffffffffff1690506000600190505b600f8054905081101562000b2157600a60008373ffffffffffffffffffffffffffffffffffffffff1673ffffffffffffffffffffffffffffffffffffffff16815260200190815260200160002054600a6000600f848154811062000a595762000a5862003ef3565b5b9060005260206000200160009054906101000a900473ffffffffffffffffffffffffffffffffffffffff1673ffffffffffffffffffffffffffffffffffffffff1673ffffffffffffffffffffffffffffffffffffffff16815260200190815260200160002054111562000b0b57600f818154811062000add5762000adc62003ef3565b5b9060005260206000200160009054906101000a900473ffffffffffffffffffffffffffffffffffffffff1691505b808062000b189062003e47565b915050620009f0565b50601660009054906101000a900473ffffffffffffffffffffffffffffffffffffffff1673ffffffffffffffffffffffffffffffffffffffff166323b872dd3083856040518463ffffffff1660e01b815260040162000b83939291906200374d565b602060405180830381600087803b15801562000b9e57600080fd5b505af115801562000bb3573d6000803e3d6000fd5b505050506040513d601f19601f8201168201806040525081019062000bd9919062003191565b5050506001600481905550565b600062000bf262002be9565b73ffffffffffffffffffffffffffffffffffffffff1662000c126200167d565b73ffffffffffffffffffffffffffffffffffffffff161462000c6b576040517f08c379a000000000000000000000000000000000000000000000000000000000815260040162000c6290620039e2565b60405180910390fd5b60005b825181101562000cdd5762000ca083828151811062000c925762000c9162003ef3565b5b602002602001015162000d23565b1562000cc75760016002600082825462000cbb919062003ca1565b92505081905550600191505b808062000cd49062003e47565b91505062000c6e565b50919050565b600f818154811062000cf457600080fd5b906000526020600020016000915054906101000a900473ffffffffffffffffffffffffffffffffffffffff1681565b600062000d2f62002be9565b73ffffffffffffffffffffffffffffffffffffffff1662000d4f6200167d565b73ffffffffffffffffffffffffffffffffffffffff161462000da8576040517f08c379a000000000000000000000000000000000000000000000000000000000815260040162000d9f90620039e2565b60405180910390fd5b600160008373ffffffffffffffffffffffffffffffffffffffff1673ffffffffffffffffffffffffffffffffffffffff16815260200190815260200160002060009054906101000a900460ff161562000ead576000600160008473ffffffffffffffffffffffffffffffffffffffff1673ffffffffffffffffffffffffffffffffffffffff16815260200190815260200160002060006101000a81548160ff0219169083151502179055507ff1abf01a1043b7c244d128e8595cf0c1d10743b022b03a02dffd8ca3bf729f5a8260405162000e84919062003730565b60405180910390a160016002600082825462000ea1919062003ca1565b92505081905550600190505b919050565b6000600254905090565b6000600f80549050905090565b6000600e60003373ffffffffffffffffffffffffffffffffffffffff1673ffffffffffffffffffffffffffffffffffffffff16815260200190815260200160002060009054906101000a900460ff1662000f2257600080fd5b601660009054906101000a900473ffffffffffffffffffffffffffffffffffffffff1673ffffffffffffffffffffffffffffffffffffffff166370a08231336040518263ffffffff1660e01b815260040162000f7f919062003730565b60206040518083038186803b15801562000f9857600080fd5b505afa15801562000fad573d6000803e3d6000fd5b505050506040513d601f19601f8201168201806040525081019062000fd39190620032f8565b905090565b60075481565b6000600a60003373ffffffffffffffffffffffffffffffffffffffff1673ffffffffffffffffffffffffffffffffffffffff16815260200190815260200160002054905090565b6200102f62002be9565b73ffffffffffffffffffffffffffffffffffffffff166200104f6200167d565b73ffffffffffffffffffffffffffffffffffffffff1614620010a8576040517f08c379a00000000000000000000000000000000000000000000000000000000081526004016200109f90620039e2565b60405180910390fd5b620010b4600062002bf1565b565b600860009054906101000a900473ffffffffffffffffffffffffffffffffffffffff1673ffffffffffffffffffffffffffffffffffffffff163373ffffffffffffffffffffffffffffffffffffffff161462001149576040517f08c379a0000000000000000000000000000000000000000000000000000000008152600401620011409062003a26565b60405180910390fd5b601460009054906101000a900473ffffffffffffffffffffffffffffffffffffffff1673ffffffffffffffffffffffffffffffffffffffff16637b9417c8826040518263ffffffff1660e01b8152600401620011a6919062003730565b602060405180830381600087803b158015620011c157600080fd5b505af1158015620011d6573d6000803e3d6000fd5b505050506040513d601f19601f82011682018060405250810190620011fc919062003191565b50601560009054906101000a900473ffffffffffffffffffffffffffffffffffffffff1673ffffffffffffffffffffffffffffffffffffffff1663771bd4ce826040518263ffffffff1660e01b81526004016200125a919062003730565b600060405180830381600087803b1580156200127557600080fd5b505af11580156200128a573d6000803e3d6000fd5b5050505050565b60006200129d62002be9565b73ffffffffffffffffffffffffffffffffffffffff16620012bd6200167d565b73ffffffffffffffffffffffffffffffffffffffff161462001316576040517f08c379a00000000000000000000000000000000000000000000000000000000081526004016200130d90620039e2565b60405180910390fd5b600160008373ffffffffffffffffffffffffffffffffffffffff1673ffffffffffffffffffffffffffffffffffffffff16815260200190815260200160002060009054906101000a900460ff16620014195760018060008473ffffffffffffffffffffffffffffffffffffffff1673ffffffffffffffffffffffffffffffffffffffff16815260200190815260200160002060006101000a81548160ff0219169083151502179055507fd1bba68c128cc3f427e5831b3c6f99f480b6efa6b9e80c757768f6124158cc3f82604051620013f0919062003730565b60405180910390a16001600260008282546200140d919062003be3565b92505081905550600190505b919050565b60065481565b60058054620014339062003ddb565b80601f0160208091040260200160405190810160405280929190818152602001828054620014619062003ddb565b8015620014b25780601f106200148657610100808354040283529160200191620014b2565b820191906000526020600020905b8154815290600101906020018083116200149457829003601f168201915b505050505081565b601460009054906101000a900473ffffffffffffffffffffffffffffffffffffffff1681565b600860009054906101000a900473ffffffffffffffffffffffffffffffffffffffff1673ffffffffffffffffffffffffffffffffffffffff163373ffffffffffffffffffffffffffffffffffffffff161462001573576040517f08c379a00000000000000000000000000000000000000000000000000000000081526004016200156a9062003a26565b60405180910390fd5b600960149054906101000a900460ff1615620015c6576040517f08c379a0000000000000000000000000000000000000000000000000000000008152600401620015bd9062003a48565b60405180910390fd5b601460009054906101000a900473ffffffffffffffffffffffffffffffffffffffff1673ffffffffffffffffffffffffffffffffffffffff1663286dd3f5826040518263ffffffff1660e01b815260040162001623919062003730565b602060405180830381600087803b1580156200163e57600080fd5b505af115801562001653573d6000803e3d6000fd5b505050506040513d601f19601f8201168201806040525081019062001679919062003191565b5050565b60008060029054906101000a900473ffffffffffffffffffffffffffffffffffffffff16905090565b600e6020528060005260406000206000915054906101000a900460ff1681565b601160009054906101000a900473ffffffffffffffffffffffffffffffffffffffff1681565b600060019054906101000a900460ff16620017165760008054906101000a900460ff161562001721565b6200172062002cb6565b5b62001763576040517f08c379a00000000000000000000000000000000000000000000000000000000081526004016200175a90620039c0565b60405180910390fd5b60008060019054906101000a900460ff161590508015620017b4576001600060016101000a81548160ff02191690831515021790555060016000806101000a81548160ff0219169083151502179055505b8a8a60059190620017c792919062002d15565b5060086006819055506001600e60008873ffffffffffffffffffffffffffffffffffffffff1673ffffffffffffffffffffffffffffffffffffffff16815260200190815260200160002060006101000a81548160ff021916908315150217905550600f869080600181540180825580915050600190039060005260206000200160009091909190916101000a81548173ffffffffffffffffffffffffffffffffffffffff021916908373ffffffffffffffffffffffffffffffffffffffff16021790555085600860006101000a81548173ffffffffffffffffffffffffffffffffffffffff021916908373ffffffffffffffffffffffffffffffffffffffff1602179055508860078190555087600360006101000a81548160ff0219169083151502179055506000600960156101000a81548160ff0219169083151502179055506000600960146101000a81548160ff02191690831515021790555086601360006101000a81548173ffffffffffffffffffffffffffffffffffffffff021916908373ffffffffffffffffffffffffffffffffffffffff16021790555081601560006101000a81548173ffffffffffffffffffffffffffffffffffffffff021916908373ffffffffffffffffffffffffffffffffffffffff160217905550604051620019b39062002da6565b604051809103906000f080158015620019d0573d6000803e3d6000fd5b50601460006101000a81548173ffffffffffffffffffffffffffffffffffffffff021916908373ffffffffffffffffffffffffffffffffffffffff16021790555084601160006101000a81548173ffffffffffffffffffffffffffffffffffffffff021916908373ffffffffffffffffffffffffffffffffffffffff16021790555083601260006101000a81548173ffffffffffffffffffffffffffffffffffffffff021916908373ffffffffffffffffffffffffffffffffffffffff16021790555082601660006101000a81548173ffffffffffffffffffffffffffffffffffffffff021916908373ffffffffffffffffffffffffffffffffffffffff16021790555062001b146040518060400160405280601281526020017f50726f787920696e697469616c697a656421000000000000000000000000000081525062002b4c565b801562001b365760008060016101000a81548160ff0219169083151502179055505b5050505050505050505050565b60016020528060005260406000206000915054906101000a900460ff1681565b62001b6d62002be9565b73ffffffffffffffffffffffffffffffffffffffff1662001b8d6200167d565b73ffffffffffffffffffffffffffffffffffffffff161462001be6576040517f08c379a000000000000000000000000000000000000000000000000000000000815260040162001bdd90620039e2565b60405180910390fd5b73__$36fdb4e0c2cb91f3ceca5ea81b025328f3$__63c406e268601083601360009054906101000a900473ffffffffffffffffffffffffffffffffffffffff16600b600a600d6040518763ffffffff1660e01b815260040162001c4f9695949392919062003863565b60006040518083038186803b15801562001c6857600080fd5b505af415801562001c7d573d6000803e3d6000fd5b5050505050565b62001c8e62002be9565b73ffffffffffffffffffffffffffffffffffffffff1662001cae6200167d565b73ffffffffffffffffffffffffffffffffffffffff161462001d07576040517f08c379a000000000000000000000000000000000000000000000000000000000815260040162001cfe90620039e2565b60405180910390fd5b6000600960156101000a81548160ff021916908315150217905550565b62001d2e62002be9565b73ffffffffffffffffffffffffffffffffffffffff1662001d4e6200167d565b73ffffffffffffffffffffffffffffffffffffffff161462001da7576040517f08c379a000000000000000000000000000000000000000000000000000000000815260040162001d9e90620039e2565b60405180910390fd5b6001600960156101000a81548160ff021916908315150217905550565b600160003373ffffffffffffffffffffffffffffffffffffffff1673ffffffffffffffffffffffffffffffffffffffff16815260200190815260200160002060009054906101000a900460ff168062001e295750600360009054906101000a900460ff165b62001e6b576040517f08c379a000000000000000000000000000000000000000000000000000000000815260040162001e62906200395a565b60405180910390fd5b6002600454141562001eb4576040517f08c379a000000000000000000000000000000000000000000000000000000000815260040162001eab9062003a8c565b60405180910390fd5b6002600481905550600960149054906101000a900460ff161562001f0f576040517f08c379a000000000000000000000000000000000000000000000000000000000815260040162001f069062003aae565b60405180910390fd5b600e60003373ffffffffffffffffffffffffffffffffffffffff1673ffffffffffffffffffffffffffffffffffffffff16815260200190815260200160002060009054906101000a900460ff161562001f9f576040517f08c379a000000000000000000000000000000000000000000000000000000000815260040162001f969062003938565b60405180910390fd5b600754601660009054906101000a900473ffffffffffffffffffffffffffffffffffffffff1673ffffffffffffffffffffffffffffffffffffffff166370a08231336040518263ffffffff1660e01b815260040162001fff919062003730565b60206040518083038186803b1580156200201857600080fd5b505afa1580156200202d573d6000803e3d6000fd5b505050506040513d601f19601f82011682018060405250810190620020539190620032f8565b1162002096576040517f08c379a00000000000000000000000000000000000000000000000000000000081526004016200208d9062003916565b60405180910390fd5b6001600e60003373ffffffffffffffffffffffffffffffffffffffff1673ffffffffffffffffffffffffffffffffffffffff16815260200190815260200160002060006101000a81548160ff021916908315150217905550600f339080600181540180825580915050600190039060005260206000200160009091909190916101000a81548173ffffffffffffffffffffffffffffffffffffffff021916908373ffffffffffffffffffffffffffffffffffffffff160217905550601660009054906101000a900473ffffffffffffffffffffffffffffffffffffffff1673ffffffffffffffffffffffffffffffffffffffff166323b872dd33306007546040518463ffffffff1660e01b8152600401620021b4939291906200374d565b602060405180830381600087803b158015620021cf57600080fd5b505af1158015620021e4573d6000803e3d6000fd5b505050506040513d601f19601f820116820180604052508101906200220a919062003191565b507f9e71bc8eea02a63969f509818f2dafb9254532904319f9dbda79b67bd34a5f3d33600754604051620022409291906200378a565b60405180910390a16001600481905550565b600d60205281600052604060002081815481106200226f57600080fd5b90600052602060002001600091509150505481565b600360009054906101000a900460ff1681565b6000620022a362002be9565b73ffffffffffffffffffffffffffffffffffffffff16620022c36200167d565b73ffffffffffffffffffffffffffffffffffffffff16146200231c576040517f08c379a00000000000000000000000000000000000000000000000000000000081526004016200231390620039e2565b60405180910390fd5b60005b82518110156200238e576200235183828151811062002343576200234262003ef3565b5b602002602001015162001291565b1562002378576001600260008282546200236c919062003be3565b92505081905550600191505b8080620023859062003e47565b9150506200231f565b50919050565b6000600160008373ffffffffffffffffffffffffffffffffffffffff1673ffffffffffffffffffffffffffffffffffffffff16815260200190815260200160002060009054906101000a900460ff169050919050565b620023f462002be9565b73ffffffffffffffffffffffffffffffffffffffff16620024146200167d565b73ffffffffffffffffffffffffffffffffffffffff16146200246d576040517f08c379a00000000000000000000000000000000000000000000000000000000081526004016200246490620039e2565b60405180910390fd5b6001600960146101000a81548160ff021916908315150217905550565b600a6020528060005260406000206000915090505481565b620024ac62002be9565b73ffffffffffffffffffffffffffffffffffffffff16620024cc6200167d565b73ffffffffffffffffffffffffffffffffffffffff161462002525576040517f08c379a00000000000000000000000000000000000000000000000000000000081526004016200251c90620039e2565b60405180910390fd5b600073ffffffffffffffffffffffffffffffffffffffff168173ffffffffffffffffffffffffffffffffffffffff16141562002598576040517f08c379a00000000000000000000000000000000000000000000000000000000081526004016200258f90620038f4565b60405180910390fd5b620025a38162002bf1565b50565b600960159054906101000a900460ff1615620025f9576040517f08c379a0000000000000000000000000000000000000000000000000000000008152600401620025f0906200399e565b60405180910390fd5b600e60003373ffffffffffffffffffffffffffffffffffffffff1673ffffffffffffffffffffffffffffffffffffffff16815260200190815260200160002060009054906101000a900460ff1662002688576040517f08c379a00000000000000000000000000000000000000000000000000000000081526004016200267f9062003a04565b60405180910390fd5b6000601560009054906101000a900473ffffffffffffffffffffffffffffffffffffffff1673ffffffffffffffffffffffffffffffffffffffff166306575c896040518163ffffffff1660e01b815260040160206040518083038186803b158015620026f357600080fd5b505afa15801562002708573d6000803e3d6000fd5b505050506040513d601f19601f820116820180604052508101906200272e9190620032f8565b905060005b600d60003373ffffffffffffffffffffffffffffffffffffffff1673ffffffffffffffffffffffffffffffffffffffff168152602001908152602001600020805490508110156200283357600c6000600d60003373ffffffffffffffffffffffffffffffffffffffff1673ffffffffffffffffffffffffffffffffffffffff1681526020019081526020016000208381548110620027d657620027d562003ef3565b5b90600052602060002001548152602001908152602001600020826008811062002804576200280362003ef3565b5b016000815480929190620028189062003dac565b919050555080806200282a9062003e47565b91505062002733565b5060005b8251811015620029ac57600c6000828152602001908152602001600020826008811062002869576200286862003ef3565b5b0160008154809291906200287d9062003e47565b91905055506000601760009054906101000a900473ffffffffffffffffffffffffffffffffffffffff1673ffffffffffffffffffffffffffffffffffffffff1662fdd58e33868581518110620028d857620028d762003ef3565b5b60200260200101516040518363ffffffff1660e01b8152600401620028ff9291906200378a565b60206040518083038186803b1580156200291857600080fd5b505afa1580156200292d573d6000803e3d6000fd5b505050506040513d601f19601f82011682018060405250810190620029539190620032f8565b1162002996576040517f08c379a00000000000000000000000000000000000000000000000000000000081526004016200298d9062003a6a565b60405180910390fd5b8080620029a39062003e47565b91505062002837565b5060005b825181101562002a3f576001600c60008381526020019081526020016000208360088110620029e457620029e362003ef3565b5b01541462002a29576040517f08c379a000000000000000000000000000000000000000000000000000000000815260040162002a20906200397c565b60405180910390fd5b808062002a369062003e47565b915050620029b0565b5081600d60003373ffffffffffffffffffffffffffffffffffffffff1673ffffffffffffffffffffffffffffffffffffffff168152602001908152602001600020908051906020019062002a9592919062002db4565b505050565b600860009054906101000a900473ffffffffffffffffffffffffffffffffffffffff1681565b62002aca62002e06565b600b60003373ffffffffffffffffffffffffffffffffffffffff1673ffffffffffffffffffffffffffffffffffffffff16815260200190815260200160002060088060200260405190810160405280929190826008801562002b42576020028201915b81548152602001906001019080831162002b2d575b5050505050905090565b62002be68160405160240162002b639190620038d0565b6040516020818303038152906040527f41304fac000000000000000000000000000000000000000000000000000000007bffffffffffffffffffffffffffffffffffffffffffffffffffffffff19166020820180517bffffffffffffffffffffffffffffffffffffffffffffffffffffffff838183161783525050505062002cc9565b50565b600033905090565b60008060029054906101000a900473ffffffffffffffffffffffffffffffffffffffff16905081600060026101000a81548173ffffffffffffffffffffffffffffffffffffffff021916908373ffffffffffffffffffffffffffffffffffffffff1602179055508173ffffffffffffffffffffffffffffffffffffffff168173ffffffffffffffffffffffffffffffffffffffff167f8be0079c531659141344cd1fd0a4f28419497f9722a3daafe3b4186f6b6457e060405160405180910390a35050565b600062002cc33062002cf2565b15905090565b60008151905060006a636f6e736f6c652e6c6f679050602083016000808483855afa5050505050565b6000808273ffffffffffffffffffffffffffffffffffffffff163b119050919050565b82805462002d239062003ddb565b90600052602060002090601f01602090048101928262002d47576000855562002d93565b82601f1062002d6257803560ff191683800117855562002d93565b8280016001018555821562002d93579182015b8281111562002d9257823582559160200191906001019062002d75565b5b50905062002da2919062002e29565b5090565b61108d806200431283390190565b82805482825590600052602060002090810192821562002df3579160200282015b8281111562002df257825182559160200191906001019062002dd5565b5b50905062002e02919062002e29565b5090565b604051806101000160405280600890602082028036833780820191505090505090565b5b8082111562002e4457600081600090555060010162002e2a565b5090565b600062002e5f62002e598462003b16565b62003aed565b9050808382526020820190508285602086028201111562002e855762002e8462003f5b565b5b60005b8581101562002eb9578162002e9e888262002f3e565b84526020840193506020830192505060018101905062002e88565b5050509392505050565b600062002eda62002ed48462003b45565b62003aed565b9050808382526020820190508285602086028201111562002f005762002eff62003f5b565b5b60005b8581101562002f34578162002f19888262003048565b84526020840193506020830192505060018101905062002f03565b5050509392505050565b60008135905062002f4f81620042c3565b92915050565b600082601f83011262002f6d5762002f6c62003f56565b5b813562002f7f84826020860162002e48565b91505092915050565b600082601f83011262002fa05762002f9f62003f56565b5b813562002fb284826020860162002ec3565b91505092915050565b60008135905062002fcc81620042dd565b92915050565b60008151905062002fe381620042dd565b92915050565b60008083601f84011262003002576200300162003f56565b5b8235905067ffffffffffffffff81111562003022576200302162003f51565b5b60208301915083600182028301111562003041576200304062003f5b565b5b9250929050565b6000813590506200305981620042f7565b92915050565b6000815190506200307081620042f7565b92915050565b6000602082840312156200308f576200308e62003f65565b5b60006200309f8482850162002f3e565b91505092915050565b60008060408385031215620030c257620030c162003f65565b5b6000620030d28582860162002f3e565b9250506020620030e58582860162003048565b9150509250929050565b60006020828403121562003108576200310762003f65565b5b600082013567ffffffffffffffff81111562003129576200312862003f60565b5b620031378482850162002f55565b91505092915050565b60006020828403121562003159576200315862003f65565b5b600082013567ffffffffffffffff8111156200317a576200317962003f60565b5b620031888482850162002f88565b91505092915050565b600060208284031215620031aa57620031a962003f65565b5b6000620031ba8482850162002fd2565b91505092915050565b6000806000806000806000806000806101208b8d031215620031ea57620031e962003f65565b5b60008b013567ffffffffffffffff8111156200320b576200320a62003f60565b5b620032198d828e0162002fe9565b9a509a505060206200322e8d828e0162003048565b9850506040620032418d828e0162002fbb565b9750506060620032548d828e0162002f3e565b9650506080620032678d828e0162002f3e565b95505060a06200327a8d828e0162002f3e565b94505060c06200328d8d828e0162002f3e565b93505060e0620032a08d828e0162002f3e565b925050610100620032b48d828e0162002f3e565b9150509295989b9194979a5092959850565b600060208284031215620032df57620032de62003f65565b5b6000620032ef8482850162003048565b91505092915050565b60006020828403121562003311576200331062003f65565b5b600062003321848285016200305f565b91505092915050565b6000620033388383620036fd565b60208301905092915050565b6200334f8162003cdc565b82525050565b8082525050565b620033678162003b93565b62003373818462003bb6565b9250620033808262003b74565b8060005b83811015620033b75781516200339b87826200332a565b9650620033a88362003ba9565b92505060018101905062003384565b505050505050565b620033ca8162003cf0565b82525050565b620033db8162003d26565b82525050565b620033ec8162003d3a565b82525050565b8082525050565b8082525050565b8082525050565b8082525050565b60006200341b8262003b9e565b62003427818562003bc1565b93506200343981856020860162003d76565b620034448162003f6a565b840191505092915050565b600081546200345e8162003ddb565b6200346a818662003bd2565b945060018216600081146200348857600181146200349b57620034d2565b60ff1983168652602086019350620034d2565b620034a68562003b7e565b60005b83811015620034ca57815481890152600182019150602081019050620034a9565b808801955050505b50505092915050565b6000620034ea60268362003bc1565b9150620034f78262003f7b565b604082019050919050565b600062003511601d8362003bc1565b91506200351e8262003fca565b602082019050919050565b60006200353860238362003bc1565b9150620035458262003ff3565b604082019050919050565b60006200355f601a8362003bc1565b91506200356c8262004042565b602082019050919050565b60006200358660258362003bc1565b915062003593826200406b565b604082019050919050565b6000620035ad601e8362003bc1565b9150620035ba82620040ba565b602082019050919050565b6000620035d4602e8362003bc1565b9150620035e182620040e3565b604082019050919050565b6000620035fb60208362003bc1565b9150620036088262004132565b602082019050919050565b60006200362260158362003bc1565b91506200362f826200415b565b602082019050919050565b60006200364960178362003bc1565b9150620036568262004184565b602082019050919050565b60006200367060418362003bc1565b91506200367d82620041ad565b606082019050919050565b60006200369760248362003bc1565b9150620036a48262004222565b604082019050919050565b6000620036be601f8362003bc1565b9150620036cb8262004271565b602082019050919050565b6000620036e560178362003bc1565b9150620036f2826200429a565b602082019050919050565b620037088162003d1c565b82525050565b620037198162003d1c565b82525050565b6200372a8162003d1c565b82525050565b600060208201905062003747600083018462003344565b92915050565b600060608201905062003764600083018662003344565b62003773602083018562003344565b6200378260408301846200370e565b949350505050565b6000604082019050620037a1600083018562003344565b620037b060208301846200370e565b9392505050565b600061010082019050620037cf60008301846200335c565b92915050565b6000602082019050620037ec6000830184620033bf565b92915050565b6000602082019050620038096000830184620033e1565b92915050565b600060808201905062003826600083018762003407565b62003835602083018662003355565b6200384460408301856200371f565b81810360608301526200385881846200344f565b905095945050505050565b600060c0820190506200387a600083018962003407565b6200388960208301886200371f565b620038986040830187620033d0565b620038a76060830186620033f2565b620038b6608083018562003400565b620038c560a0830184620033f9565b979650505050505050565b60006020820190508181036000830152620038ec81846200340e565b905092915050565b600060208201905081810360008301526200390f81620034db565b9050919050565b60006020820190508181036000830152620039318162003502565b9050919050565b60006020820190508181036000830152620039538162003529565b9050919050565b60006020820190508181036000830152620039758162003550565b9050919050565b60006020820190508181036000830152620039978162003577565b9050919050565b60006020820190508181036000830152620039b9816200359e565b9050919050565b60006020820190508181036000830152620039db81620035c5565b9050919050565b60006020820190508181036000830152620039fd81620035ec565b9050919050565b6000602082019050818103600083015262003a1f8162003613565b9050919050565b6000602082019050818103600083015262003a41816200363a565b9050919050565b6000602082019050818103600083015262003a638162003661565b9050919050565b6000602082019050818103600083015262003a858162003688565b9050919050565b6000602082019050818103600083015262003aa781620036af565b9050919050565b6000602082019050818103600083015262003ac981620036d6565b9050919050565b600060208201905062003ae760008301846200370e565b92915050565b600062003af962003b0c565b905062003b07828262003e11565b919050565b6000604051905090565b600067ffffffffffffffff82111562003b345762003b3362003f22565b5b602082029050602081019050919050565b600067ffffffffffffffff82111562003b635762003b6262003f22565b5b602082029050602081019050919050565b6000819050919050565b60008190508160005260206000209050919050565b600060089050919050565b600081519050919050565b6000602082019050919050565b600081905092915050565b600082825260208201905092915050565b600082825260208201905092915050565b600062003bf08262003d1c565b915062003bfd8362003d1c565b9250827fffffffffffffffffffffffffffffffffffffffffffffffffffffffffffffffff0382111562003c355762003c3462003e95565b5b828201905092915050565b600062003c4d8262003d1c565b915062003c5a8362003d1c565b9250817fffffffffffffffffffffffffffffffffffffffffffffffffffffffffffffffff048311821515161562003c965762003c9562003e95565b5b828202905092915050565b600062003cae8262003d1c565b915062003cbb8362003d1c565b92508282101562003cd15762003cd062003e95565b5b828203905092915050565b600062003ce98262003cfc565b9050919050565b60008115159050919050565b600073ffffffffffffffffffffffffffffffffffffffff82169050919050565b6000819050919050565b600062003d338262003d4e565b9050919050565b600062003d478262003d4e565b9050919050565b600062003d5b8262003d62565b9050919050565b600062003d6f8262003cfc565b9050919050565b60005b8381101562003d9657808201518184015260208101905062003d79565b8381111562003da6576000848401525b50505050565b600062003db98262003d1c565b9150600082141562003dd05762003dcf62003e95565b5b600182039050919050565b6000600282049050600182168062003df457607f821691505b6020821081141562003e0b5762003e0a62003ec4565b5b50919050565b62003e1c8262003f6a565b810181811067ffffffffffffffff8211171562003e3e5762003e3d62003f22565b5b80604052505050565b600062003e548262003d1c565b91507fffffffffffffffffffffffffffffffffffffffffffffffffffffffffffffffff82141562003e8a5762003e8962003e95565b5b600182019050919050565b7f4e487b7100000000000000000000000000000000000000000000000000000000600052601160045260246000fd5b7f4e487b7100000000000000000000000000000000000000000000000000000000600052602260045260246000fd5b7f4e487b7100000000000000000000000000000000000000000000000000000000600052603260045260246000fd5b7f4e487b7100000000000000000000000000000000000000000000000000000000600052604160045260246000fd5b600080fd5b600080fd5b600080fd5b600080fd5b600080fd5b6000601f19601f8301169050919050565b7f4f776e61626c653a206e6577206f776e657220697320746865207a65726f206160008201527f6464726573730000000000000000000000000000000000000000000000000000602082015250565b7f496e737566666963656e742066756e647320666f72207374616b696e67000000600082015250565b7f596f75206861766520616c7265616479206a6f696e65642074686973206c656160008201527f6775650000000000000000000000000000000000000000000000000000000000602082015250565b7f55736572206973206e6f742077686974656c6973746564203a28000000000000600082015250565b7f4475706c6963617465206174686c65746549447320617265206e6f7420616c6c60008201527f6f7765642e000000000000000000000000000000000000000000000000000000602082015250565b7f6c696e657570206973206c6f636b656420666f7220746865207765656b210000600082015250565b7f496e697469616c697a61626c653a20636f6e747261637420697320616c72656160008201527f647920696e697469616c697a6564000000000000000000000000000000000000602082015250565b7f4f776e61626c653a2063616c6c6572206973206e6f7420746865206f776e6572600082015250565b7f75736572206973206e6f7420696e204c65616775650000000000000000000000600082015250565b7f43616c6c6572206973206e6f74207468652061646d696e000000000000000000600082015250565b7f4e6f626f64792063616e20656e7465722f6578697420746865206c656167756560008201527f20616e796d6f72652e2054686520736561736f6e20686173207374617274656460208201527f2100000000000000000000000000000000000000000000000000000000000000604082015250565b7f43616c6c657220646f6573206e6f74206f776e20676976656e206174686c657460008201527f6549647300000000000000000000000000000000000000000000000000000000602082015250565b7f5265656e7472616e637947756172643a207265656e7472616e742063616c6c00600082015250565b7f4c656167756520456e74727920697320436c6f73656421000000000000000000600082015250565b620042ce8162003cdc565b8114620042da57600080fd5b50565b620042e88162003cf0565b8114620042f457600080fd5b50565b620043028162003d1c565b81146200430e57600080fd5b5056fe608060405234801561001057600080fd5b5061002d61002261003260201b60201c565b61003a60201b60201c565b6100fe565b600033905090565b60008060009054906101000a900473ffffffffffffffffffffffffffffffffffffffff169050816000806101000a81548173ffffffffffffffffffffffffffffffffffffffff021916908373ffffffffffffffffffffffffffffffffffffffff1602179055508173ffffffffffffffffffffffffffffffffffffffff168173ffffffffffffffffffffffffffffffffffffffff167f8be0079c531659141344cd1fd0a4f28419497f9722a3daafe3b4186f6b6457e060405160405180910390a35050565b610f808061010d6000396000f3fe608060405234801561001057600080fd5b50600436106100a95760003560e01c80638da5cb5b116100715780638da5cb5b146101665780639b19251a14610184578063dc9a1535146101b4578063e2ec6ec3146101d2578063e35a899914610202578063f2fde38b14610232576100a9565b806324953eaa146100ae578063286dd3f5146100de57806344eaa84e1461010e578063715018a61461012c5780637b9417c814610136575b600080fd5b6100c860048036038101906100c39190610b0e565b61024e565b6040516100d59190610be5565b60405180910390f35b6100f860048036038101906100f39190610ae1565b610338565b6040516101059190610be5565b60405180910390f35b6101166104bb565b6040516101239190610c40565b60405180910390f35b6101346104c5565b005b610150600480360381019061014b9190610ae1565b61054d565b60405161015d9190610be5565b60405180910390f35b61016e6106ce565b60405161017b9190610bca565b60405180910390f35b61019e60048036038101906101999190610ae1565b6106f7565b6040516101ab9190610be5565b60405180910390f35b6101bc610717565b6040516101c99190610be5565b60405180910390f35b6101ec60048036038101906101e79190610b0e565b61072a565b6040516101f99190610be5565b60405180910390f35b61021c60048036038101906102179190610ae1565b610814565b6040516102299190610be5565b60405180910390f35b61024c60048036038101906102479190610ae1565b61086a565b005b6000610258610962565b73ffffffffffffffffffffffffffffffffffffffff166102766106ce565b73ffffffffffffffffffffffffffffffffffffffff16146102cc576040517f08c379a00000000000000000000000000000000000000000000000000000000081526004016102c390610c20565b60405180910390fd5b60005b8251811015610332576102fb8382815181106102ee576102ed610e38565b5b6020026020010151610338565b1561031f576001600260008282546103139190610d13565b92505081905550600191505b808061032a90610dc0565b9150506102cf565b50919050565b6000610342610962565b73ffffffffffffffffffffffffffffffffffffffff166103606106ce565b73ffffffffffffffffffffffffffffffffffffffff16146103b6576040517f08c379a00000000000000000000000000000000000000000000000000000000081526004016103ad90610c20565b60405180910390fd5b600160008373ffffffffffffffffffffffffffffffffffffffff1673ffffffffffffffffffffffffffffffffffffffff16815260200190815260200160002060009054906101000a900460ff16156104b6576000600160008473ffffffffffffffffffffffffffffffffffffffff1673ffffffffffffffffffffffffffffffffffffffff16815260200190815260200160002060006101000a81548160ff0219169083151502179055507ff1abf01a1043b7c244d128e8595cf0c1d10743b022b03a02dffd8ca3bf729f5a8260405161048f9190610bca565b60405180910390a16001600260008282546104aa9190610d13565b92505081905550600190505b919050565b6000600254905090565b6104cd610962565b73ffffffffffffffffffffffffffffffffffffffff166104eb6106ce565b73ffffffffffffffffffffffffffffffffffffffff1614610541576040517f08c379a000000000000000000000000000000000000000000000000000000000815260040161053890610c20565b60405180910390fd5b61054b600061096a565b565b6000610557610962565b73ffffffffffffffffffffffffffffffffffffffff166105756106ce565b73ffffffffffffffffffffffffffffffffffffffff16146105cb576040517f08c379a00000000000000000000000000000000000000000000000000000000081526004016105c290610c20565b60405180910390fd5b600160008373ffffffffffffffffffffffffffffffffffffffff1673ffffffffffffffffffffffffffffffffffffffff16815260200190815260200160002060009054906101000a900460ff166106c95760018060008473ffffffffffffffffffffffffffffffffffffffff1673ffffffffffffffffffffffffffffffffffffffff16815260200190815260200160002060006101000a81548160ff0219169083151502179055507fd1bba68c128cc3f427e5831b3c6f99f480b6efa6b9e80c757768f6124158cc3f826040516106a29190610bca565b60405180910390a16001600260008282546106bd9190610cbd565b92505081905550600190505b919050565b60008060009054906101000a900473ffffffffffffffffffffffffffffffffffffffff16905090565b60016020528060005260406000206000915054906101000a900460ff1681565b600360009054906101000a900460ff1681565b6000610734610962565b73ffffffffffffffffffffffffffffffffffffffff166107526106ce565b73ffffffffffffffffffffffffffffffffffffffff16146107a8576040517f08c379a000000000000000000000000000000000000000000000000000000000815260040161079f90610c20565b60405180910390fd5b60005b825181101561080e576107d78382815181106107ca576107c9610e38565b5b602002602001015161054d565b156107fb576001600260008282546107ef9190610cbd565b92505081905550600191505b808061080690610dc0565b9150506107ab565b50919050565b6000600160008373ffffffffffffffffffffffffffffffffffffffff1673ffffffffffffffffffffffffffffffffffffffff16815260200190815260200160002060009054906101000a900460ff169050919050565b610872610962565b73ffffffffffffffffffffffffffffffffffffffff166108906106ce565b73ffffffffffffffffffffffffffffffffffffffff16146108e6576040517f08c379a00000000000000000000000000000000000000000000000000000000081526004016108dd90610c20565b60405180910390fd5b600073ffffffffffffffffffffffffffffffffffffffff168173ffffffffffffffffffffffffffffffffffffffff161415610956576040517f08c379a000000000000000000000000000000000000000000000000000000000815260040161094d90610c00565b60405180910390fd5b61095f8161096a565b50565b600033905090565b60008060009054906101000a900473ffffffffffffffffffffffffffffffffffffffff169050816000806101000a81548173ffffffffffffffffffffffffffffffffffffffff021916908373ffffffffffffffffffffffffffffffffffffffff1602179055508173ffffffffffffffffffffffffffffffffffffffff168173ffffffffffffffffffffffffffffffffffffffff167f8be0079c531659141344cd1fd0a4f28419497f9722a3daafe3b4186f6b6457e060405160405180910390a35050565b6000610a41610a3c84610c80565b610c5b565b90508083825260208201905082856020860282011115610a6457610a63610e9b565b5b60005b85811015610a945781610a7a8882610a9e565b845260208401935060208301925050600181019050610a67565b5050509392505050565b600081359050610aad81610f33565b92915050565b600082601f830112610ac857610ac7610e96565b5b8135610ad8848260208601610a2e565b91505092915050565b600060208284031215610af757610af6610ea5565b5b6000610b0584828501610a9e565b91505092915050565b600060208284031215610b2457610b23610ea5565b5b600082013567ffffffffffffffff811115610b4257610b41610ea0565b5b610b4e84828501610ab3565b91505092915050565b610b6081610d47565b82525050565b610b6f81610d59565b82525050565b6000610b82602683610cac565b9150610b8d82610ebb565b604082019050919050565b6000610ba5602083610cac565b9150610bb082610f0a565b602082019050919050565b610bc481610d85565b82525050565b6000602082019050610bdf6000830184610b57565b92915050565b6000602082019050610bfa6000830184610b66565b92915050565b60006020820190508181036000830152610c1981610b75565b9050919050565b60006020820190508181036000830152610c3981610b98565b9050919050565b6000602082019050610c556000830184610bbb565b92915050565b6000610c65610c76565b9050610c718282610d8f565b919050565b6000604051905090565b600067ffffffffffffffff821115610c9b57610c9a610e67565b5b602082029050602081019050919050565b600082825260208201905092915050565b6000610cc882610d85565b9150610cd383610d85565b9250827fffffffffffffffffffffffffffffffffffffffffffffffffffffffffffffffff03821115610d0857610d07610e09565b5b828201905092915050565b6000610d1e82610d85565b9150610d2983610d85565b925082821015610d3c57610d3b610e09565b5b828203905092915050565b6000610d5282610d65565b9050919050565b60008115159050919050565b600073ffffffffffffffffffffffffffffffffffffffff82169050919050565b6000819050919050565b610d9882610eaa565b810181811067ffffffffffffffff82111715610db757610db6610e67565b5b80604052505050565b6000610dcb82610d85565b91507fffffffffffffffffffffffffffffffffffffffffffffffffffffffffffffffff821415610dfe57610dfd610e09565b5b600182019050919050565b7f4e487b7100000000000000000000000000000000000000000000000000000000600052601160045260246000fd5b7f4e487b7100000000000000000000000000000000000000000000000000000000600052603260045260246000fd5b7f4e487b7100000000000000000000000000000000000000000000000000000000600052604160045260246000fd5b600080fd5b600080fd5b600080fd5b600080fd5b6000601f19601f8301169050919050565b7f4f776e61626c653a206e6577206f776e657220697320746865207a65726f206160008201527f6464726573730000000000000000000000000000000000000000000000000000602082015250565b7f4f776e61626c653a2063616c6c6572206973206e6f7420746865206f776e6572600082015250565b610f3c81610d47565b8114610f4757600080fd5b5056fea26469706673582212207192af37282fd7bfe53350acb10318f34b6fed008a48fb804e840facad443e6364736f6c63430008070033a2646970667358221220d884b65708154a98b08b4ccaca07adb828fa30ef9421a6c9e85a416f2b9594c364736f6c63430008070033",
  "linkReferences": {
    "contracts/MOBALogicLibrary.sol": {
      "MOBALogicLibrary": [
        {
          "length": 20,
          "start": 2355
        },
        {
          "length": 20,
          "start": 7429
        }
      ]
    }
  },
  "deployedLinkReferences": {
    "contracts/MOBALogicLibrary.sol": {
      "MOBALogicLibrary": [
        {
          "length": 20,
          "start": 2070
        },
        {
          "length": 20,
          "start": 7144
        }
      ]
    }
  }
}