{
  "_format": "hh-sol-artifact-1",
  "contractName": "LeagueOfLegendsLogic",
  "sourceName": "contracts/LeagueOfLegendsLogic.sol",
  "abi": [
    {
      "anonymous": false,
      "inputs": [
        {
          "indexed": true,
          "internalType": "address",
          "name": "previousOwner",
          "type": "address"
        },
        {
          "indexed": true,
          "internalType": "address",
          "name": "newOwner",
          "type": "address"
        }
      ],
      "name": "OwnershipTransferred",
      "type": "event"
    },
    {
      "anonymous": false,
      "inputs": [
        {
          "indexed": false,
          "internalType": "address",
          "name": "sender",
          "type": "address"
        },
        {
          "indexed": false,
          "internalType": "uint256",
          "name": "amount",
          "type": "uint256"
        }
      ],
      "name": "Staked",
      "type": "event"
    },
    {
      "anonymous": false,
      "inputs": [
        {
          "indexed": false,
          "internalType": "address",
          "name": "addr",
          "type": "address"
        }
      ],
      "name": "WhitelistedAddressAdded",
      "type": "event"
    },
    {
      "anonymous": false,
      "inputs": [
        {
          "indexed": false,
          "internalType": "address",
          "name": "addr",
          "type": "address"
        }
      ],
      "name": "WhitelistedAddressRemoved",
      "type": "event"
    },
    {
      "anonymous": false,
      "inputs": [
        {
          "indexed": false,
          "internalType": "address",
          "name": "sender",
          "type": "address"
        },
        {
          "indexed": false,
          "internalType": "address",
          "name": "contractAddress",
          "type": "address"
        }
      ],
      "name": "testUSDCDeployed",
      "type": "event"
    },
    {
      "inputs": [
        {
          "internalType": "address",
          "name": "addr",
          "type": "address"
        }
      ],
      "name": "addAddressToWhitelist",
      "outputs": [
        {
          "internalType": "bool",
          "name": "success",
          "type": "bool"
        }
      ],
      "stateMutability": "nonpayable",
      "type": "function"
    },
    {
      "inputs": [
        {
          "internalType": "address[]",
          "name": "addrs",
          "type": "address[]"
        }
      ],
      "name": "addAddressesToWhitelist",
      "outputs": [
        {
          "internalType": "bool",
          "name": "success",
          "type": "bool"
        }
      ],
      "stateMutability": "nonpayable",
      "type": "function"
    },
    {
      "inputs": [
        {
          "internalType": "address",
          "name": "_userToAdd",
          "type": "address"
        }
      ],
      "name": "addUserToWhitelist",
      "outputs": [],
      "stateMutability": "nonpayable",
      "type": "function"
    },
    {
      "inputs": [],
      "name": "admin",
      "outputs": [
        {
          "internalType": "address",
          "name": "",
          "type": "address"
        }
      ],
      "stateMutability": "view",
      "type": "function"
    },
    {
      "inputs": [],
      "name": "evaluateWeek",
      "outputs": [],
      "stateMutability": "nonpayable",
      "type": "function"
    },
    {
      "inputs": [],
      "name": "getNumWhitelisted",
      "outputs": [
        {
          "internalType": "uint256",
          "name": "",
          "type": "uint256"
        }
      ],
      "stateMutability": "view",
      "type": "function"
    },
    {
      "inputs": [
        {
          "internalType": "address",
          "name": "_user",
          "type": "address"
        }
      ],
      "name": "getUserIsWhitelisted",
      "outputs": [
        {
          "internalType": "bool",
          "name": "",
          "type": "bool"
        }
      ],
      "stateMutability": "view",
      "type": "function"
    },
    {
      "inputs": [],
      "name": "getUserRecord",
      "outputs": [
        {
          "internalType": "uint256[8]",
          "name": "",
          "type": "uint256[8]"
        }
      ],
      "stateMutability": "view",
      "type": "function"
    },
    {
      "inputs": [],
      "name": "getUserTotalPts",
      "outputs": [
        {
          "internalType": "uint256",
          "name": "",
          "type": "uint256"
        }
      ],
      "stateMutability": "view",
      "type": "function"
    },
    {
      "inputs": [],
      "name": "getUserUSDCBalance",
      "outputs": [
        {
          "internalType": "uint256",
          "name": "",
          "type": "uint256"
        }
      ],
      "stateMutability": "view",
      "type": "function"
    },
    {
      "inputs": [],
      "name": "getUsersLength",
      "outputs": [
        {
          "internalType": "uint256",
          "name": "",
          "type": "uint256"
        }
      ],
      "stateMutability": "view",
      "type": "function"
    },
    {
      "inputs": [
        {
          "internalType": "address",
          "name": "",
          "type": "address"
        }
      ],
      "name": "inLeague",
      "outputs": [
        {
          "internalType": "bool",
          "name": "",
          "type": "bool"
        }
      ],
      "stateMutability": "view",
      "type": "function"
    },
    {
      "inputs": [
        {
          "internalType": "string",
          "name": "_name",
          "type": "string"
        },
        {
          "internalType": "uint256",
          "name": "_stakeAmount",
          "type": "uint256"
        },
        {
          "internalType": "bool",
          "name": "_isPublic",
          "type": "bool"
        },
        {
          "internalType": "address",
          "name": "athletesDataStorageAddress",
          "type": "address"
        },
        {
          "internalType": "address",
          "name": "_admin",
          "type": "address"
        },
        {
          "internalType": "address",
          "name": "_polygonUSDCAddress",
          "type": "address"
        },
        {
          "internalType": "address",
          "name": "_rinkebyUSDCAddress",
          "type": "address"
        },
        {
          "internalType": "address",
          "name": "_testUSDCAddress",
          "type": "address"
        },
        {
          "internalType": "address",
          "name": "_leagueMakerLibraryAddress",
          "type": "address"
        },
        {
          "internalType": "address",
          "name": "_leagueMakerContractAddress",
          "type": "address"
        }
      ],
      "name": "initialize",
      "outputs": [],
      "stateMutability": "nonpayable",
      "type": "function"
    },
    {
      "inputs": [],
      "name": "isPublic",
      "outputs": [
        {
          "internalType": "bool",
          "name": "",
          "type": "bool"
        }
      ],
      "stateMutability": "view",
      "type": "function"
    },
    {
      "inputs": [],
      "name": "joinLeague",
      "outputs": [],
      "stateMutability": "nonpayable",
      "type": "function"
    },
    {
      "inputs": [],
      "name": "leagueEntryIsClosed",
      "outputs": [
        {
          "internalType": "bool",
          "name": "",
          "type": "bool"
        }
      ],
      "stateMutability": "view",
      "type": "function"
    },
    {
      "inputs": [
        {
          "internalType": "uint256",
          "name": "",
          "type": "uint256"
        }
      ],
      "name": "leagueMembers",
      "outputs": [
        {
          "internalType": "address",
          "name": "",
          "type": "address"
        }
      ],
      "stateMutability": "view",
      "type": "function"
    },
    {
      "inputs": [],
      "name": "leagueName",
      "outputs": [
        {
          "internalType": "string",
          "name": "",
          "type": "string"
        }
      ],
      "stateMutability": "view",
      "type": "function"
    },
    {
      "inputs": [],
      "name": "lineupIsLocked",
      "outputs": [
        {
          "internalType": "bool",
          "name": "",
          "type": "bool"
        }
      ],
      "stateMutability": "view",
      "type": "function"
    },
    {
      "inputs": [],
      "name": "lockLineup",
      "outputs": [],
      "stateMutability": "nonpayable",
      "type": "function"
    },
    {
      "inputs": [],
      "name": "numWeeks",
      "outputs": [
        {
          "internalType": "uint256",
          "name": "",
          "type": "uint256"
        }
      ],
      "stateMutability": "view",
      "type": "function"
    },
    {
      "inputs": [],
      "name": "onLeagueEnd",
      "outputs": [],
      "stateMutability": "nonpayable",
      "type": "function"
    },
    {
      "inputs": [],
      "name": "owner",
      "outputs": [
        {
          "internalType": "address",
          "name": "",
          "type": "address"
        }
      ],
      "stateMutability": "view",
      "type": "function"
    },
    {
      "inputs": [],
      "name": "polygonUSDCAddress",
      "outputs": [
        {
          "internalType": "address",
          "name": "",
          "type": "address"
        }
      ],
      "stateMutability": "view",
      "type": "function"
    },
    {
      "inputs": [
        {
          "internalType": "address",
          "name": "addr",
          "type": "address"
        }
      ],
      "name": "removeAddressFromWhitelist",
      "outputs": [
        {
          "internalType": "bool",
          "name": "success",
          "type": "bool"
        }
      ],
      "stateMutability": "nonpayable",
      "type": "function"
    },
    {
      "inputs": [
        {
          "internalType": "address[]",
          "name": "addrs",
          "type": "address[]"
        }
      ],
      "name": "removeAddressesFromWhitelist",
      "outputs": [
        {
          "internalType": "bool",
          "name": "success",
          "type": "bool"
        }
      ],
      "stateMutability": "nonpayable",
      "type": "function"
    },
    {
      "inputs": [
        {
          "internalType": "address",
          "name": "_userToRemove",
          "type": "address"
        }
      ],
      "name": "removeFromWhitelist",
      "outputs": [],
      "stateMutability": "nonpayable",
      "type": "function"
    },
    {
      "inputs": [],
      "name": "renounceOwnership",
      "outputs": [],
      "stateMutability": "nonpayable",
      "type": "function"
    },
    {
      "inputs": [],
      "name": "rinkebyUSDCAddress",
      "outputs": [
        {
          "internalType": "address",
          "name": "",
          "type": "address"
        }
      ],
      "stateMutability": "view",
      "type": "function"
    },
    {
      "inputs": [],
      "name": "setLeagueEntryIsClosed",
      "outputs": [],
      "stateMutability": "nonpayable",
      "type": "function"
    },
    {
      "inputs": [],
      "name": "setLeagueSchedule",
      "outputs": [],
      "stateMutability": "nonpayable",
      "type": "function"
    },
    {
      "inputs": [
        {
          "internalType": "uint256[]",
          "name": "athleteIds",
          "type": "uint256[]"
        }
      ],
      "name": "setLineup",
      "outputs": [],
      "stateMutability": "nonpayable",
      "type": "function"
    },
    {
      "inputs": [],
      "name": "stakeAmount",
      "outputs": [
        {
          "internalType": "uint256",
          "name": "",
          "type": "uint256"
        }
      ],
      "stateMutability": "view",
      "type": "function"
    },
    {
      "inputs": [],
      "name": "testUSDC",
      "outputs": [
        {
          "internalType": "contract IERC20",
          "name": "",
          "type": "address"
        }
      ],
      "stateMutability": "view",
      "type": "function"
    },
    {
      "inputs": [
        {
          "internalType": "address",
          "name": "newOwner",
          "type": "address"
        }
      ],
      "name": "transferOwnership",
      "outputs": [],
      "stateMutability": "nonpayable",
      "type": "function"
    },
    {
      "inputs": [],
      "name": "unlockLineup",
      "outputs": [],
      "stateMutability": "nonpayable",
      "type": "function"
    },
    {
      "inputs": [
        {
          "internalType": "address",
          "name": "",
          "type": "address"
        },
        {
          "internalType": "uint256",
          "name": "",
          "type": "uint256"
        }
      ],
      "name": "userToLineup",
      "outputs": [
        {
          "internalType": "uint256",
          "name": "",
          "type": "uint256"
        }
      ],
      "stateMutability": "view",
      "type": "function"
    },
    {
      "inputs": [
        {
          "internalType": "address",
          "name": "",
          "type": "address"
        },
        {
          "internalType": "uint256",
          "name": "",
          "type": "uint256"
        }
      ],
      "name": "userToRecord",
      "outputs": [
        {
          "internalType": "uint256",
          "name": "",
          "type": "uint256"
        }
      ],
      "stateMutability": "view",
      "type": "function"
    },
    {
      "inputs": [
        {
          "internalType": "address",
          "name": "",
          "type": "address"
        }
      ],
      "name": "userToTotalWins",
      "outputs": [
        {
          "internalType": "uint256",
          "name": "",
          "type": "uint256"
        }
      ],
      "stateMutability": "view",
      "type": "function"
    },
    {
      "inputs": [
        {
          "internalType": "address",
          "name": "",
          "type": "address"
        }
      ],
      "name": "whitelist",
      "outputs": [
        {
          "internalType": "bool",
          "name": "",
          "type": "bool"
        }
      ],
      "stateMutability": "view",
      "type": "function"
    }
  ],
  "bytecode": "0x60806040523480156200001157600080fd5b5062000032620000266200004060201b60201c565b6200004860201b60201c565b60016004819055506200010d565b600033905090565b60008060029054906101000a900473ffffffffffffffffffffffffffffffffffffffff16905081600060026101000a81548173ffffffffffffffffffffffffffffffffffffffff021916908373ffffffffffffffffffffffffffffffffffffffff1602179055508173ffffffffffffffffffffffffffffffffffffffff168173ffffffffffffffffffffffffffffffffffffffff167f8be0079c531659141344cd1fd0a4f28419497f9722a3daafe3b4186f6b6457e060405160405180910390a35050565b61570f806200011d6000396000f3fe60806040523480156200001157600080fd5b50600436106200027f5760003560e01c8063841abf6e1162000159578063cff5600311620000c9578063edcbe96c1162000087578063edcbe96c146200073c578063f2fde38b1462000772578063f612121a1462000792578063f851a44014620007b2578063f881604514620007d4576200027f565b8063cff56003146200066c578063dc9a153514620006a2578063e2ec6ec314620006c4578063e35a899914620006fa578063e4c9066b1462000730576200027f565b806393f3706c116200011757806393f3706c14620005f05780639b19251a1462000612578063a2bc091a1462000648578063c8be3b5b1462000654578063c99fea941462000660576200027f565b8063841abf6e146200054a57806385334ffa146200056c5780638ab1d68114620005785780638da5cb5b14620005985780639122ce6d14620005ba576200027f565b806344eaa84e11620001f55780636cc15ad511620001b35780636cc15ad514620004a4578063715018a614620004c6578063747b805014620004d25780637b9417c814620004f25780637eed33f11462000528576200027f565b806344eaa84e14620003fa578063595b1a3e146200041c5780635fcc6987146200043e57806360c7dc4714620004605780636bdc44df1462000482576200027f565b80631d803e0011620002435780631d803e00146200032c57806324953eaa1462000338578063267175db146200036e578063286dd3f514620003a45780633c3ae13f14620003da576200027f565b8062b2476f1462000284578063022e35e614620002a65780630635dbcb14620002c85780630655465a14620002ea5780630c6f795914620002f6575b600080fd5b6200028e620007f6565b6040516200029d9190620039a2565b60405180910390f35b620002b06200081c565b604051620002bf919062003a64565b60405180910390f35b620002d262000842565b604051620002e1919062003a47565b60405180910390f35b620002f462000855565b005b6200031460048036038101906200030e9190620032dc565b620009a0565b60405162000323919062003d98565b60405180910390f35b62000336620009c9565b005b62000356600480360381019062000350919062003323565b62000c77565b60405162000365919062003a47565b60405180910390f35b6200038c600480360381019062000386919062003511565b62000d74565b6040516200039b9190620039a2565b60405180910390f35b620003c26004803603810190620003bc9190620032aa565b62000db4565b604051620003d1919062003a47565b60405180910390f35b620003f86004803603810190620003f29190620033f7565b62000f43565b005b62000404620013c1565b60405162000413919062003d98565b60405180910390f35b62000426620013cb565b60405162000435919062003d98565b60405180910390f35b62000448620013d8565b60405162000457919062003d98565b60405180910390f35b6200046a620014e7565b60405162000479919062003d98565b60405180910390f35b6200048c620014ed565b6040516200049b919062003d98565b60405180910390f35b620004ae62001534565b604051620004bd919062003a47565b60405180910390f35b620004d062001547565b005b620004f06004803603810190620004ea9190620032aa565b620015d8565b005b6200051060048036038101906200050a9190620032aa565b62001722565b6040516200051f919062003a47565b60405180910390f35b62000532620018af565b60405162000541919062003d98565b60405180910390f35b62000554620018b5565b60405162000563919062003b42565b60405180910390f35b620005766200194b565b005b620005966004803603810190620005909190620032aa565b62001b24565b005b620005a262001cc1565b604051620005b19190620039a2565b60405180910390f35b620005d86004803603810190620005d29190620032aa565b62001cea565b604051620005e7919062003a47565b60405180910390f35b620005fa62001d0a565b604051620006099190620039a2565b60405180910390f35b6200063060048036038101906200062a9190620032aa565b62001d30565b6040516200063f919062003a47565b60405180910390f35b6200065262001d50565b005b6200065e62001e00565b005b6200066a62001ed4565b005b6200068a6004803603810190620006849190620032dc565b62002362565b60405162000699919062003d98565b60405180910390f35b620006ac62002394565b604051620006bb919062003a47565b60405180910390f35b620006e26004803603810190620006dc919062003323565b620023a7565b604051620006f1919062003a47565b60405180910390f35b620007186004803603810190620007129190620032aa565b620024a4565b60405162000727919062003a47565b60405180910390f35b6200073a620024fa565b005b6200075a6004803603810190620007549190620032aa565b620025aa565b60405162000769919062003d98565b60405180910390f35b6200079060048036038101906200078a9190620032aa565b620025c2565b005b620007b06004803603810190620007aa919062003374565b620026c6565b005b620007bc62002c2e565b604051620007cb9190620039a2565b60405180910390f35b620007de62002c54565b604051620007ed919062003a29565b60405180910390f35b601260009054906101000a900473ffffffffffffffffffffffffffffffffffffffff1681565b601660009054906101000a900473ffffffffffffffffffffffffffffffffffffffff1681565b600960159054906101000a900460ff1681565b601860009054906101000a900473ffffffffffffffffffffffffffffffffffffffff1673ffffffffffffffffffffffffffffffffffffffff163373ffffffffffffffffffffffffffffffffffffffff1614620008e8576040517f08c379a0000000000000000000000000000000000000000000000000000000008152600401620008df9062003c66565b60405180910390fd5b620009286040518060400160405280601081526020017f73657474696e67207363686564756c650000000000000000000000000000000081525062002ce0565b73__$36fdb4e0c2cb91f3ceca5ea81b025328f3$__63d2c232b56010600f60065460056040518563ffffffff1660e01b81526004016200096c949392919062003a81565b60006040518083038186803b1580156200098557600080fd5b505af41580156200099a573d6000803e3d6000fd5b50505050565b600b6020528160005260406000208160088110620009bd57600080fd5b01600091509150505481565b6002600454141562000a12576040517f08c379a000000000000000000000000000000000000000000000000000000000815260040162000a099062003d54565b60405180910390fd5b60026004819055506000600f8054905060075462000a31919062003f08565b90506000600f60008154811062000a4d5762000a4c620041bb565b5b9060005260206000200160009054906101000a900473ffffffffffffffffffffffffffffffffffffffff1690506000600190505b600f8054905081101562000bb257600a60008373ffffffffffffffffffffffffffffffffffffffff1673ffffffffffffffffffffffffffffffffffffffff16815260200190815260200160002054600a6000600f848154811062000aea5762000ae9620041bb565b5b9060005260206000200160009054906101000a900473ffffffffffffffffffffffffffffffffffffffff1673ffffffffffffffffffffffffffffffffffffffff1673ffffffffffffffffffffffffffffffffffffffff16815260200190815260200160002054111562000b9c57600f818154811062000b6e5762000b6d620041bb565b5b9060005260206000200160009054906101000a900473ffffffffffffffffffffffffffffffffffffffff1691505b808062000ba9906200410f565b91505062000a81565b50601660009054906101000a900473ffffffffffffffffffffffffffffffffffffffff1673ffffffffffffffffffffffffffffffffffffffff166323b872dd3083856040518463ffffffff1660e01b815260040162000c1493929190620039bf565b602060405180830381600087803b15801562000c2f57600080fd5b505af115801562000c44573d6000803e3d6000fd5b505050506040513d601f19601f8201168201806040525081019062000c6a9190620033c5565b5050506001600481905550565b600062000c8362002d7d565b73ffffffffffffffffffffffffffffffffffffffff1662000ca362001cc1565b73ffffffffffffffffffffffffffffffffffffffff161462000cfc576040517f08c379a000000000000000000000000000000000000000000000000000000000815260040162000cf39062003ccc565b60405180910390fd5b60005b825181101562000d6e5762000d3183828151811062000d235762000d22620041bb565b5b602002602001015162000db4565b1562000d585760016002600082825462000d4c919062003f69565b92505081905550600191505b808062000d65906200410f565b91505062000cff565b50919050565b600f818154811062000d8557600080fd5b906000526020600020016000915054906101000a900473ffffffffffffffffffffffffffffffffffffffff1681565b600062000dc062002d7d565b73ffffffffffffffffffffffffffffffffffffffff1662000de062001cc1565b73ffffffffffffffffffffffffffffffffffffffff161462000e39576040517f08c379a000000000000000000000000000000000000000000000000000000000815260040162000e309062003ccc565b60405180910390fd5b600160008373ffffffffffffffffffffffffffffffffffffffff1673ffffffffffffffffffffffffffffffffffffffff16815260200190815260200160002060009054906101000a900460ff161562000f3e576000600160008473ffffffffffffffffffffffffffffffffffffffff1673ffffffffffffffffffffffffffffffffffffffff16815260200190815260200160002060006101000a81548160ff0219169083151502179055507ff1abf01a1043b7c244d128e8595cf0c1d10743b022b03a02dffd8ca3bf729f5a8260405162000f159190620039a2565b60405180910390a160016002600082825462000f32919062003f69565b92505081905550600190505b919050565b600060019054906101000a900460ff1662000f6d5760008054906101000a900460ff161562000f78565b62000f7762002d85565b5b62000fba576040517f08c379a000000000000000000000000000000000000000000000000000000000815260040162000fb19062003caa565b60405180910390fd5b60008060019054906101000a900460ff1615905080156200100b576001600060016101000a81548160ff02191690831515021790555060016000806101000a81548160ff0219169083151502179055505b8b8b600591906200101e92919062002f49565b5060086006819055506001600e60008973ffffffffffffffffffffffffffffffffffffffff1673ffffffffffffffffffffffffffffffffffffffff16815260200190815260200160002060006101000a81548160ff021916908315150217905550600f879080600181540180825580915050600190039060005260206000200160009091909190916101000a81548173ffffffffffffffffffffffffffffffffffffffff021916908373ffffffffffffffffffffffffffffffffffffffff16021790555086600860006101000a81548173ffffffffffffffffffffffffffffffffffffffff021916908373ffffffffffffffffffffffffffffffffffffffff1602179055508960078190555088600360006101000a81548160ff0219169083151502179055506000600960146101000a81548160ff02191690831515021790555087601360006101000a81548173ffffffffffffffffffffffffffffffffffffffff021916908373ffffffffffffffffffffffffffffffffffffffff16021790555081601560006101000a81548173ffffffffffffffffffffffffffffffffffffffff021916908373ffffffffffffffffffffffffffffffffffffffff160217905550604051620011ef9062002fda565b604051809103906000f0801580156200120c573d6000803e3d6000fd5b50601460006101000a81548173ffffffffffffffffffffffffffffffffffffffff021916908373ffffffffffffffffffffffffffffffffffffffff16021790555085601160006101000a81548173ffffffffffffffffffffffffffffffffffffffff021916908373ffffffffffffffffffffffffffffffffffffffff16021790555084601260006101000a81548173ffffffffffffffffffffffffffffffffffffffff021916908373ffffffffffffffffffffffffffffffffffffffff16021790555083601660006101000a81548173ffffffffffffffffffffffffffffffffffffffff021916908373ffffffffffffffffffffffffffffffffffffffff16021790555082601860006101000a81548173ffffffffffffffffffffffffffffffffffffffff021916908373ffffffffffffffffffffffffffffffffffffffff160217905550620013916040518060400160405280601281526020017f50726f787920696e697469616c697a656421000000000000000000000000000081525062002ce0565b8015620013b35760008060016101000a81548160ff0219169083151502179055505b505050505050505050505050565b6000600254905090565b6000600f80549050905090565b6000600e60003373ffffffffffffffffffffffffffffffffffffffff1673ffffffffffffffffffffffffffffffffffffffff16815260200190815260200160002060009054906101000a900460ff166200143157600080fd5b601660009054906101000a900473ffffffffffffffffffffffffffffffffffffffff1673ffffffffffffffffffffffffffffffffffffffff166370a08231336040518263ffffffff1660e01b81526004016200148e9190620039a2565b60206040518083038186803b158015620014a757600080fd5b505afa158015620014bc573d6000803e3d6000fd5b505050506040513d601f19601f82011682018060405250810190620014e2919062003543565b905090565b60075481565b6000600a60003373ffffffffffffffffffffffffffffffffffffffff1673ffffffffffffffffffffffffffffffffffffffff16815260200190815260200160002054905090565b600960149054906101000a900460ff1681565b6200155162002d7d565b73ffffffffffffffffffffffffffffffffffffffff166200157162001cc1565b73ffffffffffffffffffffffffffffffffffffffff1614620015ca576040517f08c379a0000000000000000000000000000000000000000000000000000000008152600401620015c19062003ccc565b60405180910390fd5b620015d6600062002d98565b565b600860009054906101000a900473ffffffffffffffffffffffffffffffffffffffff1673ffffffffffffffffffffffffffffffffffffffff163373ffffffffffffffffffffffffffffffffffffffff16146200166b576040517f08c379a0000000000000000000000000000000000000000000000000000000008152600401620016629062003cee565b60405180910390fd5b601460009054906101000a900473ffffffffffffffffffffffffffffffffffffffff1673ffffffffffffffffffffffffffffffffffffffff16637b9417c8826040518263ffffffff1660e01b8152600401620016c89190620039a2565b602060405180830381600087803b158015620016e357600080fd5b505af1158015620016f8573d6000803e3d6000fd5b505050506040513d601f19601f820116820180604052508101906200171e9190620033c5565b5050565b60006200172e62002d7d565b73ffffffffffffffffffffffffffffffffffffffff166200174e62001cc1565b73ffffffffffffffffffffffffffffffffffffffff1614620017a7576040517f08c379a00000000000000000000000000000000000000000000000000000000081526004016200179e9062003ccc565b60405180910390fd5b600160008373ffffffffffffffffffffffffffffffffffffffff1673ffffffffffffffffffffffffffffffffffffffff16815260200190815260200160002060009054906101000a900460ff16620018aa5760018060008473ffffffffffffffffffffffffffffffffffffffff1673ffffffffffffffffffffffffffffffffffffffff16815260200190815260200160002060006101000a81548160ff0219169083151502179055507fd1bba68c128cc3f427e5831b3c6f99f480b6efa6b9e80c757768f6124158cc3f82604051620018819190620039a2565b60405180910390a16001600260008282546200189e919062003eab565b92505081905550600190505b919050565b60065481565b60058054620018c490620040a3565b80601f0160208091040260200160405190810160405280929190818152602001828054620018f290620040a3565b8015620019435780601f10620019175761010080835404028352916020019162001943565b820191906000526020600020905b8154815290600101906020018083116200192557829003601f168201915b505050505081565b601860009054906101000a900473ffffffffffffffffffffffffffffffffffffffff1673ffffffffffffffffffffffffffffffffffffffff163373ffffffffffffffffffffffffffffffffffffffff1614620019de576040517f08c379a0000000000000000000000000000000000000000000000000000000008152600401620019d59062003c66565b60405180910390fd5b6000601560009054906101000a900473ffffffffffffffffffffffffffffffffffffffff1673ffffffffffffffffffffffffffffffffffffffff166306575c896040518163ffffffff1660e01b815260040160206040518083038186803b15801562001a4957600080fd5b505afa15801562001a5e573d6000803e3d6000fd5b505050506040513d601f19601f8201168201806040525081019062001a84919062003543565b905073__$36fdb4e0c2cb91f3ceca5ea81b025328f3$__63c406e268601083601360009054906101000a900473ffffffffffffffffffffffffffffffffffffffff16600b600a600d6040518763ffffffff1660e01b815260040162001aef9695949392919062003ad5565b60006040518083038186803b15801562001b0857600080fd5b505af415801562001b1d573d6000803e3d6000fd5b5050505050565b600860009054906101000a900473ffffffffffffffffffffffffffffffffffffffff1673ffffffffffffffffffffffffffffffffffffffff163373ffffffffffffffffffffffffffffffffffffffff161462001bb7576040517f08c379a000000000000000000000000000000000000000000000000000000000815260040162001bae9062003cee565b60405180910390fd5b600960149054906101000a900460ff161562001c0a576040517f08c379a000000000000000000000000000000000000000000000000000000000815260040162001c019062003d32565b60405180910390fd5b601460009054906101000a900473ffffffffffffffffffffffffffffffffffffffff1673ffffffffffffffffffffffffffffffffffffffff1663286dd3f5826040518263ffffffff1660e01b815260040162001c679190620039a2565b602060405180830381600087803b15801562001c8257600080fd5b505af115801562001c97573d6000803e3d6000fd5b505050506040513d601f19601f8201168201806040525081019062001cbd9190620033c5565b5050565b60008060029054906101000a900473ffffffffffffffffffffffffffffffffffffffff16905090565b600e6020528060005260406000206000915054906101000a900460ff1681565b601160009054906101000a900473ffffffffffffffffffffffffffffffffffffffff1681565b60016020528060005260406000206000915054906101000a900460ff1681565b601860009054906101000a900473ffffffffffffffffffffffffffffffffffffffff1673ffffffffffffffffffffffffffffffffffffffff163373ffffffffffffffffffffffffffffffffffffffff161462001de3576040517f08c379a000000000000000000000000000000000000000000000000000000000815260040162001dda9062003c66565b60405180910390fd5b6000600960156101000a81548160ff021916908315150217905550565b601860009054906101000a900473ffffffffffffffffffffffffffffffffffffffff1673ffffffffffffffffffffffffffffffffffffffff163373ffffffffffffffffffffffffffffffffffffffff161462001e93576040517f08c379a000000000000000000000000000000000000000000000000000000000815260040162001e8a9062003c66565b60405180910390fd5b62001eb7604051806060016040528060248152602001620056b66024913962002ce0565b6001600960156101000a81548160ff021916908315150217905550565b600160003373ffffffffffffffffffffffffffffffffffffffff1673ffffffffffffffffffffffffffffffffffffffff16815260200190815260200160002060009054906101000a900460ff168062001f395750600360009054906101000a900460ff165b62001f7b576040517f08c379a000000000000000000000000000000000000000000000000000000000815260040162001f729062003c00565b60405180910390fd5b6002600454141562001fc4576040517f08c379a000000000000000000000000000000000000000000000000000000000815260040162001fbb9062003d54565b60405180910390fd5b6002600481905550600960149054906101000a900460ff16156200201f576040517f08c379a0000000000000000000000000000000000000000000000000000000008152600401620020169062003d76565b60405180910390fd5b600e60003373ffffffffffffffffffffffffffffffffffffffff1673ffffffffffffffffffffffffffffffffffffffff16815260200190815260200160002060009054906101000a900460ff1615620020af576040517f08c379a0000000000000000000000000000000000000000000000000000000008152600401620020a69062003bde565b60405180910390fd5b600754601660009054906101000a900473ffffffffffffffffffffffffffffffffffffffff1673ffffffffffffffffffffffffffffffffffffffff166370a08231336040518263ffffffff1660e01b81526004016200210f9190620039a2565b60206040518083038186803b1580156200212857600080fd5b505afa1580156200213d573d6000803e3d6000fd5b505050506040513d601f19601f8201168201806040525081019062002163919062003543565b11620021a6576040517f08c379a00000000000000000000000000000000000000000000000000000000081526004016200219d9062003bbc565b60405180910390fd5b6001600e60003373ffffffffffffffffffffffffffffffffffffffff1673ffffffffffffffffffffffffffffffffffffffff16815260200190815260200160002060006101000a81548160ff021916908315150217905550600f339080600181540180825580915050600190039060005260206000200160009091909190916101000a81548173ffffffffffffffffffffffffffffffffffffffff021916908373ffffffffffffffffffffffffffffffffffffffff160217905550601660009054906101000a900473ffffffffffffffffffffffffffffffffffffffff1673ffffffffffffffffffffffffffffffffffffffff166323b872dd33306007546040518463ffffffff1660e01b8152600401620022c493929190620039bf565b602060405180830381600087803b158015620022df57600080fd5b505af1158015620022f4573d6000803e3d6000fd5b505050506040513d601f19601f820116820180604052508101906200231a9190620033c5565b507f9e71bc8eea02a63969f509818f2dafb9254532904319f9dbda79b67bd34a5f3d3360075460405162002350929190620039fc565b60405180910390a16001600481905550565b600d60205281600052604060002081815481106200237f57600080fd5b90600052602060002001600091509150505481565b600360009054906101000a900460ff1681565b6000620023b362002d7d565b73ffffffffffffffffffffffffffffffffffffffff16620023d362001cc1565b73ffffffffffffffffffffffffffffffffffffffff16146200242c576040517f08c379a0000000000000000000000000000000000000000000000000000000008152600401620024239062003ccc565b60405180910390fd5b60005b82518110156200249e5762002461838281518110620024535762002452620041bb565b5b602002602001015162001722565b1562002488576001600260008282546200247c919062003eab565b92505081905550600191505b808062002495906200410f565b9150506200242f565b50919050565b6000600160008373ffffffffffffffffffffffffffffffffffffffff1673ffffffffffffffffffffffffffffffffffffffff16815260200190815260200160002060009054906101000a900460ff169050919050565b601860009054906101000a900473ffffffffffffffffffffffffffffffffffffffff1673ffffffffffffffffffffffffffffffffffffffff163373ffffffffffffffffffffffffffffffffffffffff16146200258d576040517f08c379a0000000000000000000000000000000000000000000000000000000008152600401620025849062003c66565b60405180910390fd5b6001600960146101000a81548160ff021916908315150217905550565b600a6020528060005260406000206000915090505481565b620025cc62002d7d565b73ffffffffffffffffffffffffffffffffffffffff16620025ec62001cc1565b73ffffffffffffffffffffffffffffffffffffffff161462002645576040517f08c379a00000000000000000000000000000000000000000000000000000000081526004016200263c9062003ccc565b60405180910390fd5b600073ffffffffffffffffffffffffffffffffffffffff168173ffffffffffffffffffffffffffffffffffffffff161415620026b8576040517f08c379a0000000000000000000000000000000000000000000000000000000008152600401620026af9062003b9a565b60405180910390fd5b620026c38162002d98565b50565b600960159054906101000a900460ff161562002719576040517f08c379a0000000000000000000000000000000000000000000000000000000008152600401620027109062003c88565b60405180910390fd5b600e60003373ffffffffffffffffffffffffffffffffffffffff1673ffffffffffffffffffffffffffffffffffffffff16815260200190815260200160002060009054906101000a900460ff16620027a8576040517f08c379a00000000000000000000000000000000000000000000000000000000081526004016200279f9062003d10565b60405180910390fd5b6000600d60003373ffffffffffffffffffffffffffffffffffffffff1673ffffffffffffffffffffffffffffffffffffffff1681526020019081526020016000208054806020026020016040519081016040528092919081815260200182805480156200283557602002820191906000526020600020905b81548152602001906001019080831162002820575b505050505090506000601560009054906101000a900473ffffffffffffffffffffffffffffffffffffffff1673ffffffffffffffffffffffffffffffffffffffff166306575c896040518163ffffffff1660e01b815260040160206040518083038186803b158015620028a757600080fd5b505afa158015620028bc573d6000803e3d6000fd5b505050506040513d601f19601f82011682018060405250810190620028e2919062003543565b905060005b835181101562002976576001600c600083815260200190815260200160002083600881106200291b576200291a620041bb565b5b01541462002960576040517f08c379a0000000000000000000000000000000000000000000000000000000008152600401620029579062003c22565b60405180910390fd5b80806200296d906200410f565b915050620028e7565b5060005b835181101562002aeb5760006001600a60018462002999919062003eab565b620029a5919062003f08565b620029b1919062003f69565b9050620029f46040518060400160405280600f81526020017f5570706572206c696d69742069732000000000000000000000000000000000008152508262002e5d565b6000600a8362002a05919062003f08565b905062002a486040518060400160405280600f81526020017f4c6f776572206c696d69742069732000000000000000000000000000000000008152508262002e5d565b8086848151811062002a5f5762002a5e620041bb565b5b602002602001015111801562002a9157508186848151811062002a875762002a86620041bb565b5b6020026020010151105b62002ad3576040517f08c379a000000000000000000000000000000000000000000000000000000000815260040162002aca9062003c44565b60405180910390fd5b5050808062002ae2906200410f565b9150506200297a565b5060005b825181101562002b6d57600c600084838151811062002b135762002b12620041bb565b5b60200260200101518152602001908152602001600020826008811062002b3e5762002b3d620041bb565b5b01600081548092919062002b529062004074565b9190505550808062002b64906200410f565b91505062002aef565b5060005b835181101562002bd257600c6000828152602001908152602001600020826008811062002ba35762002ba2620041bb565b5b01600081548092919062002bb7906200410f565b9190505550808062002bc9906200410f565b91505062002b71565b5082600d60003373ffffffffffffffffffffffffffffffffffffffff1673ffffffffffffffffffffffffffffffffffffffff168152602001908152602001600020908051906020019062002c2892919062002fe8565b50505050565b600860009054906101000a900473ffffffffffffffffffffffffffffffffffffffff1681565b62002c5e6200303a565b600b60003373ffffffffffffffffffffffffffffffffffffffff1673ffffffffffffffffffffffffffffffffffffffff16815260200190815260200160002060088060200260405190810160405280929190826008801562002cd6576020028201915b81548152602001906001019080831162002cc1575b5050505050905090565b62002d7a8160405160240162002cf7919062003b42565b6040516020818303038152906040527f41304fac000000000000000000000000000000000000000000000000000000007bffffffffffffffffffffffffffffffffffffffffffffffffffffffff19166020820180517bffffffffffffffffffffffffffffffffffffffffffffffffffffffff838183161783525050505062002efd565b50565b600033905090565b600062002d923062002f26565b15905090565b60008060029054906101000a900473ffffffffffffffffffffffffffffffffffffffff16905081600060026101000a81548173ffffffffffffffffffffffffffffffffffffffff021916908373ffffffffffffffffffffffffffffffffffffffff1602179055508173ffffffffffffffffffffffffffffffffffffffff168173ffffffffffffffffffffffffffffffffffffffff167f8be0079c531659141344cd1fd0a4f28419497f9722a3daafe3b4186f6b6457e060405160405180910390a35050565b62002ef9828260405160240162002e7692919062003b66565b6040516020818303038152906040527f9710a9d0000000000000000000000000000000000000000000000000000000007bffffffffffffffffffffffffffffffffffffffffffffffffffffffff19166020820180517bffffffffffffffffffffffffffffffffffffffffffffffffffffffff838183161783525050505062002efd565b5050565b60008151905060006a636f6e736f6c652e6c6f679050602083016000808483855afa5050505050565b6000808273ffffffffffffffffffffffffffffffffffffffff163b119050919050565b82805462002f5790620040a3565b90600052602060002090601f01602090048101928262002f7b576000855562002fc7565b82601f1062002f9657803560ff191683800117855562002fc7565b8280016001018555821562002fc7579182015b8281111562002fc657823582559160200191906001019062002fa9565b5b50905062002fd691906200305d565b5090565b61108d806200462983390190565b82805482825590600052602060002090810192821562003027579160200282015b828111156200302657825182559160200191906001019062003009565b5b5090506200303691906200305d565b5090565b604051806101000160405280600890602082028036833780820191505090505090565b5b80821115620030785760008160009055506001016200305e565b5090565b6000620030936200308d8462003dde565b62003db5565b90508083825260208201905082856020860282011115620030b957620030b862004223565b5b60005b85811015620030ed5781620030d2888262003172565b845260208401935060208301925050600181019050620030bc565b5050509392505050565b60006200310e620031088462003e0d565b62003db5565b9050808382526020820190508285602086028201111562003134576200313362004223565b5b60005b858110156200316857816200314d88826200327c565b84526020840193506020830192505060018101905062003137565b5050509392505050565b6000813590506200318381620045da565b92915050565b600082601f830112620031a157620031a06200421e565b5b8135620031b38482602086016200307c565b91505092915050565b600082601f830112620031d457620031d36200421e565b5b8135620031e6848260208601620030f7565b91505092915050565b6000813590506200320081620045f4565b92915050565b6000815190506200321781620045f4565b92915050565b60008083601f8401126200323657620032356200421e565b5b8235905067ffffffffffffffff81111562003256576200325562004219565b5b60208301915083600182028301111562003275576200327462004223565b5b9250929050565b6000813590506200328d816200460e565b92915050565b600081519050620032a4816200460e565b92915050565b600060208284031215620032c357620032c26200422d565b5b6000620032d38482850162003172565b91505092915050565b60008060408385031215620032f657620032f56200422d565b5b6000620033068582860162003172565b925050602062003319858286016200327c565b9150509250929050565b6000602082840312156200333c576200333b6200422d565b5b600082013567ffffffffffffffff8111156200335d576200335c62004228565b5b6200336b8482850162003189565b91505092915050565b6000602082840312156200338d576200338c6200422d565b5b600082013567ffffffffffffffff811115620033ae57620033ad62004228565b5b620033bc84828501620031bc565b91505092915050565b600060208284031215620033de57620033dd6200422d565b5b6000620033ee8482850162003206565b91505092915050565b60008060008060008060008060008060006101408c8e03121562003420576200341f6200422d565b5b60008c013567ffffffffffffffff81111562003441576200344062004228565b5b6200344f8e828f016200321d565b9b509b50506020620034648e828f016200327c565b9950506040620034778e828f01620031ef565b98505060606200348a8e828f0162003172565b97505060806200349d8e828f0162003172565b96505060a0620034b08e828f0162003172565b95505060c0620034c38e828f0162003172565b94505060e0620034d68e828f0162003172565b935050610100620034ea8e828f0162003172565b925050610120620034fe8e828f0162003172565b9150509295989b509295989b9093969950565b6000602082840312156200352a57620035296200422d565b5b60006200353a848285016200327c565b91505092915050565b6000602082840312156200355c576200355b6200422d565b5b60006200356c8482850162003293565b91505092915050565b60006200358383836200396f565b60208301905092915050565b6200359a8162003fa4565b82525050565b8082525050565b620035b28162003e5b565b620035be818462003e7e565b9250620035cb8262003e3c565b8060005b8381101562003602578151620035e6878262003575565b9650620035f38362003e71565b925050600181019050620035cf565b505050505050565b620036158162003fb8565b82525050565b620036268162003fee565b82525050565b620036378162004002565b82525050565b8082525050565b8082525050565b8082525050565b8082525050565b6000620036668262003e66565b62003672818562003e89565b9350620036848185602086016200403e565b6200368f8162004232565b840191505092915050565b60008154620036a981620040a3565b620036b5818662003e9a565b94506001821660008114620036d35760018114620036e6576200371d565b60ff19831686526020860193506200371d565b620036f18562003e46565b60005b838110156200371557815481890152600182019150602081019050620036f4565b808801955050505b50505092915050565b60006200373560268362003e89565b9150620037428262004243565b604082019050919050565b60006200375c601d8362003e89565b9150620037698262004292565b602082019050919050565b60006200378360238362003e89565b91506200379082620042bb565b604082019050919050565b6000620037aa601a8362003e89565b9150620037b7826200430a565b602082019050919050565b6000620037d160258362003e89565b9150620037de8262004333565b604082019050919050565b6000620037f860318362003e89565b9150620038058262004382565b604082019050919050565b60006200381f60268362003e89565b91506200382c82620043d1565b604082019050919050565b600062003846601e8362003e89565b9150620038538262004420565b602082019050919050565b60006200386d602e8362003e89565b91506200387a8262004449565b604082019050919050565b60006200389460208362003e89565b9150620038a18262004498565b602082019050919050565b6000620038bb60178362003e89565b9150620038c882620044c1565b602082019050919050565b6000620038e260168362003e89565b9150620038ef82620044ea565b602082019050919050565b60006200390960418362003e89565b9150620039168262004513565b606082019050919050565b600062003930601f8362003e89565b91506200393d8262004588565b602082019050919050565b60006200395760178362003e89565b91506200396482620045b1565b602082019050919050565b6200397a8162003fe4565b82525050565b6200398b8162003fe4565b82525050565b6200399c8162003fe4565b82525050565b6000602082019050620039b960008301846200358f565b92915050565b6000606082019050620039d660008301866200358f565b620039e560208301856200358f565b620039f4604083018462003980565b949350505050565b600060408201905062003a1360008301856200358f565b62003a22602083018462003980565b9392505050565b60006101008201905062003a416000830184620035a7565b92915050565b600060208201905062003a5e60008301846200360a565b92915050565b600060208201905062003a7b60008301846200362c565b92915050565b600060808201905062003a98600083018762003652565b62003aa76020830186620035a0565b62003ab6604083018562003991565b818103606083015262003aca81846200369a565b905095945050505050565b600060c08201905062003aec600083018962003652565b62003afb602083018862003991565b62003b0a60408301876200361b565b62003b1960608301866200363d565b62003b2860808301856200364b565b62003b3760a083018462003644565b979650505050505050565b6000602082019050818103600083015262003b5e818462003659565b905092915050565b6000604082019050818103600083015262003b82818562003659565b905062003b93602083018462003980565b9392505050565b6000602082019050818103600083015262003bb58162003726565b9050919050565b6000602082019050818103600083015262003bd7816200374d565b9050919050565b6000602082019050818103600083015262003bf98162003774565b9050919050565b6000602082019050818103600083015262003c1b816200379b565b9050919050565b6000602082019050818103600083015262003c3d81620037c2565b9050919050565b6000602082019050818103600083015262003c5f81620037e9565b9050919050565b6000602082019050818103600083015262003c818162003810565b9050919050565b6000602082019050818103600083015262003ca38162003837565b9050919050565b6000602082019050818103600083015262003cc5816200385e565b9050919050565b6000602082019050818103600083015262003ce78162003885565b9050919050565b6000602082019050818103600083015262003d0981620038ac565b9050919050565b6000602082019050818103600083015262003d2b81620038d3565b9050919050565b6000602082019050818103600083015262003d4d81620038fa565b9050919050565b6000602082019050818103600083015262003d6f8162003921565b9050919050565b6000602082019050818103600083015262003d918162003948565b9050919050565b600060208201905062003daf600083018462003980565b92915050565b600062003dc162003dd4565b905062003dcf8282620040d9565b919050565b6000604051905090565b600067ffffffffffffffff82111562003dfc5762003dfb620041ea565b5b602082029050602081019050919050565b600067ffffffffffffffff82111562003e2b5762003e2a620041ea565b5b602082029050602081019050919050565b6000819050919050565b60008190508160005260206000209050919050565b600060089050919050565b600081519050919050565b6000602082019050919050565b600081905092915050565b600082825260208201905092915050565b600082825260208201905092915050565b600062003eb88262003fe4565b915062003ec58362003fe4565b9250827fffffffffffffffffffffffffffffffffffffffffffffffffffffffffffffffff0382111562003efd5762003efc6200415d565b5b828201905092915050565b600062003f158262003fe4565b915062003f228362003fe4565b9250817fffffffffffffffffffffffffffffffffffffffffffffffffffffffffffffffff048311821515161562003f5e5762003f5d6200415d565b5b828202905092915050565b600062003f768262003fe4565b915062003f838362003fe4565b92508282101562003f995762003f986200415d565b5b828203905092915050565b600062003fb18262003fc4565b9050919050565b60008115159050919050565b600073ffffffffffffffffffffffffffffffffffffffff82169050919050565b6000819050919050565b600062003ffb8262004016565b9050919050565b60006200400f8262004016565b9050919050565b600062004023826200402a565b9050919050565b6000620040378262003fc4565b9050919050565b60005b838110156200405e57808201518184015260208101905062004041565b838111156200406e576000848401525b50505050565b6000620040818262003fe4565b915060008214156200409857620040976200415d565b5b600182039050919050565b60006002820490506001821680620040bc57607f821691505b60208210811415620040d357620040d26200418c565b5b50919050565b620040e48262004232565b810181811067ffffffffffffffff82111715620041065762004105620041ea565b5b80604052505050565b60006200411c8262003fe4565b91507fffffffffffffffffffffffffffffffffffffffffffffffffffffffffffffffff8214156200415257620041516200415d565b5b600182019050919050565b7f4e487b7100000000000000000000000000000000000000000000000000000000600052601160045260246000fd5b7f4e487b7100000000000000000000000000000000000000000000000000000000600052602260045260246000fd5b7f4e487b7100000000000000000000000000000000000000000000000000000000600052603260045260246000fd5b7f4e487b7100000000000000000000000000000000000000000000000000000000600052604160045260246000fd5b600080fd5b600080fd5b600080fd5b600080fd5b600080fd5b6000601f19601f8301169050919050565b7f4f776e61626c653a206e6577206f776e657220697320746865207a65726f206160008201527f6464726573730000000000000000000000000000000000000000000000000000602082015250565b7f496e737566666963656e742066756e647320666f72207374616b696e67000000600082015250565b7f596f75206861766520616c7265616479206a6f696e65642074686973206c656160008201527f6775650000000000000000000000000000000000000000000000000000000000602082015250565b7f55736572206973206e6f742077686974656c6973746564203a28000000000000600082015250565b7f4475706c6963617465206174686c65746549447320617265206e6f7420616c6c60008201527f6f7765642e000000000000000000000000000000000000000000000000000000602082015250565b7f596f75206172652073657474696e6720616e206174686c65746520696e20746860008201527f652077726f6e6720706f736974696f6e21000000000000000000000000000000602082015250565b7f43616c6c6572206973206e6f7420746865204c6561677565204d616b6572204c60008201527f6962726172790000000000000000000000000000000000000000000000000000602082015250565b7f6c696e657570206973206c6f636b656420666f7220746865207765656b210000600082015250565b7f496e697469616c697a61626c653a20636f6e747261637420697320616c72656160008201527f647920696e697469616c697a6564000000000000000000000000000000000000602082015250565b7f4f776e61626c653a2063616c6c6572206973206e6f7420746865206f776e6572600082015250565b7f43616c6c6572206973206e6f74207468652061646d696e000000000000000000600082015250565b7f55736572206973206e6f7420696e204c65616775652e00000000000000000000600082015250565b7f4e6f626f64792063616e20656e7465722f6578697420746865206c656167756560008201527f20616e796d6f72652e2054686520736561736f6e20686173207374617274656460208201527f2100000000000000000000000000000000000000000000000000000000000000604082015250565b7f5265656e7472616e637947756172643a207265656e7472616e742063616c6c00600082015250565b7f4c656167756520456e74727920697320436c6f73656421000000000000000000600082015250565b620045e58162003fa4565b8114620045f157600080fd5b50565b620045ff8162003fb8565b81146200460b57600080fd5b50565b620046198162003fe4565b81146200462557600080fd5b5056fe608060405234801561001057600080fd5b5061002d61002261003260201b60201c565b61003a60201b60201c565b6100fe565b600033905090565b60008060009054906101000a900473ffffffffffffffffffffffffffffffffffffffff169050816000806101000a81548173ffffffffffffffffffffffffffffffffffffffff021916908373ffffffffffffffffffffffffffffffffffffffff1602179055508173ffffffffffffffffffffffffffffffffffffffff168173ffffffffffffffffffffffffffffffffffffffff167f8be0079c531659141344cd1fd0a4f28419497f9722a3daafe3b4186f6b6457e060405160405180910390a35050565b610f808061010d6000396000f3fe608060405234801561001057600080fd5b50600436106100a95760003560e01c80638da5cb5b116100715780638da5cb5b146101665780639b19251a14610184578063dc9a1535146101b4578063e2ec6ec3146101d2578063e35a899914610202578063f2fde38b14610232576100a9565b806324953eaa146100ae578063286dd3f5146100de57806344eaa84e1461010e578063715018a61461012c5780637b9417c814610136575b600080fd5b6100c860048036038101906100c39190610b0e565b61024e565b6040516100d59190610be5565b60405180910390f35b6100f860048036038101906100f39190610ae1565b610338565b6040516101059190610be5565b60405180910390f35b6101166104bb565b6040516101239190610c40565b60405180910390f35b6101346104c5565b005b610150600480360381019061014b9190610ae1565b61054d565b60405161015d9190610be5565b60405180910390f35b61016e6106ce565b60405161017b9190610bca565b60405180910390f35b61019e60048036038101906101999190610ae1565b6106f7565b6040516101ab9190610be5565b60405180910390f35b6101bc610717565b6040516101c99190610be5565b60405180910390f35b6101ec60048036038101906101e79190610b0e565b61072a565b6040516101f99190610be5565b60405180910390f35b61021c60048036038101906102179190610ae1565b610814565b6040516102299190610be5565b60405180910390f35b61024c60048036038101906102479190610ae1565b61086a565b005b6000610258610962565b73ffffffffffffffffffffffffffffffffffffffff166102766106ce565b73ffffffffffffffffffffffffffffffffffffffff16146102cc576040517f08c379a00000000000000000000000000000000000000000000000000000000081526004016102c390610c20565b60405180910390fd5b60005b8251811015610332576102fb8382815181106102ee576102ed610e38565b5b6020026020010151610338565b1561031f576001600260008282546103139190610d13565b92505081905550600191505b808061032a90610dc0565b9150506102cf565b50919050565b6000610342610962565b73ffffffffffffffffffffffffffffffffffffffff166103606106ce565b73ffffffffffffffffffffffffffffffffffffffff16146103b6576040517f08c379a00000000000000000000000000000000000000000000000000000000081526004016103ad90610c20565b60405180910390fd5b600160008373ffffffffffffffffffffffffffffffffffffffff1673ffffffffffffffffffffffffffffffffffffffff16815260200190815260200160002060009054906101000a900460ff16156104b6576000600160008473ffffffffffffffffffffffffffffffffffffffff1673ffffffffffffffffffffffffffffffffffffffff16815260200190815260200160002060006101000a81548160ff0219169083151502179055507ff1abf01a1043b7c244d128e8595cf0c1d10743b022b03a02dffd8ca3bf729f5a8260405161048f9190610bca565b60405180910390a16001600260008282546104aa9190610d13565b92505081905550600190505b919050565b6000600254905090565b6104cd610962565b73ffffffffffffffffffffffffffffffffffffffff166104eb6106ce565b73ffffffffffffffffffffffffffffffffffffffff1614610541576040517f08c379a000000000000000000000000000000000000000000000000000000000815260040161053890610c20565b60405180910390fd5b61054b600061096a565b565b6000610557610962565b73ffffffffffffffffffffffffffffffffffffffff166105756106ce565b73ffffffffffffffffffffffffffffffffffffffff16146105cb576040517f08c379a00000000000000000000000000000000000000000000000000000000081526004016105c290610c20565b60405180910390fd5b600160008373ffffffffffffffffffffffffffffffffffffffff1673ffffffffffffffffffffffffffffffffffffffff16815260200190815260200160002060009054906101000a900460ff166106c95760018060008473ffffffffffffffffffffffffffffffffffffffff1673ffffffffffffffffffffffffffffffffffffffff16815260200190815260200160002060006101000a81548160ff0219169083151502179055507fd1bba68c128cc3f427e5831b3c6f99f480b6efa6b9e80c757768f6124158cc3f826040516106a29190610bca565b60405180910390a16001600260008282546106bd9190610cbd565b92505081905550600190505b919050565b60008060009054906101000a900473ffffffffffffffffffffffffffffffffffffffff16905090565b60016020528060005260406000206000915054906101000a900460ff1681565b600360009054906101000a900460ff1681565b6000610734610962565b73ffffffffffffffffffffffffffffffffffffffff166107526106ce565b73ffffffffffffffffffffffffffffffffffffffff16146107a8576040517f08c379a000000000000000000000000000000000000000000000000000000000815260040161079f90610c20565b60405180910390fd5b60005b825181101561080e576107d78382815181106107ca576107c9610e38565b5b602002602001015161054d565b156107fb576001600260008282546107ef9190610cbd565b92505081905550600191505b808061080690610dc0565b9150506107ab565b50919050565b6000600160008373ffffffffffffffffffffffffffffffffffffffff1673ffffffffffffffffffffffffffffffffffffffff16815260200190815260200160002060009054906101000a900460ff169050919050565b610872610962565b73ffffffffffffffffffffffffffffffffffffffff166108906106ce565b73ffffffffffffffffffffffffffffffffffffffff16146108e6576040517f08c379a00000000000000000000000000000000000000000000000000000000081526004016108dd90610c20565b60405180910390fd5b600073ffffffffffffffffffffffffffffffffffffffff168173ffffffffffffffffffffffffffffffffffffffff161415610956576040517f08c379a000000000000000000000000000000000000000000000000000000000815260040161094d90610c00565b60405180910390fd5b61095f8161096a565b50565b600033905090565b60008060009054906101000a900473ffffffffffffffffffffffffffffffffffffffff169050816000806101000a81548173ffffffffffffffffffffffffffffffffffffffff021916908373ffffffffffffffffffffffffffffffffffffffff1602179055508173ffffffffffffffffffffffffffffffffffffffff168173ffffffffffffffffffffffffffffffffffffffff167f8be0079c531659141344cd1fd0a4f28419497f9722a3daafe3b4186f6b6457e060405160405180910390a35050565b6000610a41610a3c84610c80565b610c5b565b90508083825260208201905082856020860282011115610a6457610a63610e9b565b5b60005b85811015610a945781610a7a8882610a9e565b845260208401935060208301925050600181019050610a67565b5050509392505050565b600081359050610aad81610f33565b92915050565b600082601f830112610ac857610ac7610e96565b5b8135610ad8848260208601610a2e565b91505092915050565b600060208284031215610af757610af6610ea5565b5b6000610b0584828501610a9e565b91505092915050565b600060208284031215610b2457610b23610ea5565b5b600082013567ffffffffffffffff811115610b4257610b41610ea0565b5b610b4e84828501610ab3565b91505092915050565b610b6081610d47565b82525050565b610b6f81610d59565b82525050565b6000610b82602683610cac565b9150610b8d82610ebb565b604082019050919050565b6000610ba5602083610cac565b9150610bb082610f0a565b602082019050919050565b610bc481610d85565b82525050565b6000602082019050610bdf6000830184610b57565b92915050565b6000602082019050610bfa6000830184610b66565b92915050565b60006020820190508181036000830152610c1981610b75565b9050919050565b60006020820190508181036000830152610c3981610b98565b9050919050565b6000602082019050610c556000830184610bbb565b92915050565b6000610c65610c76565b9050610c718282610d8f565b919050565b6000604051905090565b600067ffffffffffffffff821115610c9b57610c9a610e67565b5b602082029050602081019050919050565b600082825260208201905092915050565b6000610cc882610d85565b9150610cd383610d85565b9250827fffffffffffffffffffffffffffffffffffffffffffffffffffffffffffffffff03821115610d0857610d07610e09565b5b828201905092915050565b6000610d1e82610d85565b9150610d2983610d85565b925082821015610d3c57610d3b610e09565b5b828203905092915050565b6000610d5282610d65565b9050919050565b60008115159050919050565b600073ffffffffffffffffffffffffffffffffffffffff82169050919050565b6000819050919050565b610d9882610eaa565b810181811067ffffffffffffffff82111715610db757610db6610e67565b5b80604052505050565b6000610dcb82610d85565b91507fffffffffffffffffffffffffffffffffffffffffffffffffffffffffffffffff821415610dfe57610dfd610e09565b5b600182019050919050565b7f4e487b7100000000000000000000000000000000000000000000000000000000600052601160045260246000fd5b7f4e487b7100000000000000000000000000000000000000000000000000000000600052603260045260246000fd5b7f4e487b7100000000000000000000000000000000000000000000000000000000600052604160045260246000fd5b600080fd5b600080fd5b600080fd5b600080fd5b6000601f19601f8301169050919050565b7f4f776e61626c653a206e6577206f776e657220697320746865207a65726f206160008201527f6464726573730000000000000000000000000000000000000000000000000000602082015250565b7f4f776e61626c653a2063616c6c6572206973206e6f7420746865206f776e6572600082015250565b610f3c81610d47565b8114610f4757600080fd5b5056fea2646970667358221220bed30b98fd52fd06427fedf4fcef33f2521d9e36ee375e945eb6c8c8ba1d457d64736f6c63430008070033494e204c4f434b204c494e4555502046554e4354494f4e20494e204c4f4c204c4f474943a26469706673582212204b986494bd2df1dd660b26368ddff3b33341e4653954a7adcc3f0798a3c87d1164736f6c63430008070033",
  "linkReferences": {
    "contracts/MOBALogicLibrary.sol": {
      "MOBALogicLibrary": [
        {
          "length": 20,
          "start": 2631
        },
        {
          "length": 20,
          "start": 7077
        }
      ]
    }
  },
  "deployedLinkReferences": {
    "contracts/MOBALogicLibrary.sol": {
      "MOBALogicLibrary": [
        {
          "length": 20,
          "start": 2346
        },
        {
          "length": 20,
          "start": 6792
        }
      ]
    }
  }
}