{
  "_format": "hh-sol-artifact-1",
  "contractName": "LeagueOfLegendsLogic",
  "sourceName": "contracts/LeagueOfLegendsLogic.sol",
  "abi": [
    {
      "anonymous": false,
      "inputs": [
        {
          "indexed": true,
          "internalType": "address",
          "name": "previousOwner",
          "type": "address"
        },
        {
          "indexed": true,
          "internalType": "address",
          "name": "newOwner",
          "type": "address"
        }
      ],
      "name": "OwnershipTransferred",
      "type": "event"
    },
    {
      "anonymous": false,
      "inputs": [
        {
          "indexed": false,
          "internalType": "address",
          "name": "sender",
          "type": "address"
        },
        {
          "indexed": false,
          "internalType": "uint256",
          "name": "amount",
          "type": "uint256"
        }
      ],
      "name": "Staked",
      "type": "event"
    },
    {
      "anonymous": false,
      "inputs": [
        {
          "indexed": false,
          "internalType": "address",
          "name": "addr",
          "type": "address"
        }
      ],
      "name": "WhitelistedAddressAdded",
      "type": "event"
    },
    {
      "anonymous": false,
      "inputs": [
        {
          "indexed": false,
          "internalType": "address",
          "name": "addr",
          "type": "address"
        }
      ],
      "name": "WhitelistedAddressRemoved",
      "type": "event"
    },
    {
      "anonymous": false,
      "inputs": [
        {
          "indexed": false,
          "internalType": "address",
          "name": "sender",
          "type": "address"
        },
        {
          "indexed": false,
          "internalType": "address",
          "name": "contractAddress",
          "type": "address"
        }
      ],
      "name": "testUSDCDeployed",
      "type": "event"
    },
    {
      "inputs": [
        {
          "internalType": "address",
          "name": "addr",
          "type": "address"
        }
      ],
      "name": "addAddressToWhitelist",
      "outputs": [
        {
          "internalType": "bool",
          "name": "success",
          "type": "bool"
        }
      ],
      "stateMutability": "nonpayable",
      "type": "function"
    },
    {
      "inputs": [
        {
          "internalType": "address[]",
          "name": "addrs",
          "type": "address[]"
        }
      ],
      "name": "addAddressesToWhitelist",
      "outputs": [
        {
          "internalType": "bool",
          "name": "success",
          "type": "bool"
        }
      ],
      "stateMutability": "nonpayable",
      "type": "function"
    },
    {
      "inputs": [
        {
          "internalType": "address",
          "name": "_userToAdd",
          "type": "address"
        }
      ],
      "name": "addUserToWhitelist",
      "outputs": [],
      "stateMutability": "nonpayable",
      "type": "function"
    },
    {
      "inputs": [],
      "name": "admin",
      "outputs": [
        {
          "internalType": "address",
          "name": "",
          "type": "address"
        }
      ],
      "stateMutability": "view",
      "type": "function"
    },
    {
      "inputs": [],
      "name": "evaluateWeek",
      "outputs": [],
      "stateMutability": "nonpayable",
      "type": "function"
    },
    {
      "inputs": [],
      "name": "getLineupIsLocked",
      "outputs": [
        {
          "internalType": "bool",
          "name": "",
          "type": "bool"
        }
      ],
      "stateMutability": "view",
      "type": "function"
    },
    {
      "inputs": [],
      "name": "getNumWhitelisted",
      "outputs": [
        {
          "internalType": "uint256",
          "name": "",
          "type": "uint256"
        }
      ],
      "stateMutability": "view",
      "type": "function"
    },
    {
      "inputs": [
        {
          "internalType": "address",
          "name": "_user",
          "type": "address"
        }
      ],
      "name": "getUserIsWhitelisted",
      "outputs": [
        {
          "internalType": "bool",
          "name": "",
          "type": "bool"
        }
      ],
      "stateMutability": "view",
      "type": "function"
    },
    {
      "inputs": [],
      "name": "getUserRecord",
      "outputs": [
        {
          "internalType": "uint256[8]",
          "name": "",
          "type": "uint256[8]"
        }
      ],
      "stateMutability": "view",
      "type": "function"
    },
    {
      "inputs": [],
      "name": "getUserTotalPts",
      "outputs": [
        {
          "internalType": "uint256",
          "name": "",
          "type": "uint256"
        }
      ],
      "stateMutability": "view",
      "type": "function"
    },
    {
      "inputs": [],
      "name": "getUserUSDCBalance",
      "outputs": [
        {
          "internalType": "uint256",
          "name": "",
          "type": "uint256"
        }
      ],
      "stateMutability": "view",
      "type": "function"
    },
    {
      "inputs": [],
      "name": "getUsersLength",
      "outputs": [
        {
          "internalType": "uint256",
          "name": "",
          "type": "uint256"
        }
      ],
      "stateMutability": "view",
      "type": "function"
    },
    {
      "inputs": [
        {
          "internalType": "address",
          "name": "",
          "type": "address"
        }
      ],
      "name": "inLeague",
      "outputs": [
        {
          "internalType": "bool",
          "name": "",
          "type": "bool"
        }
      ],
      "stateMutability": "view",
      "type": "function"
    },
    {
      "inputs": [
        {
          "internalType": "string",
          "name": "_name",
          "type": "string"
        },
        {
          "internalType": "uint256",
          "name": "_stakeAmount",
          "type": "uint256"
        },
        {
          "internalType": "bool",
          "name": "_isPublic",
          "type": "bool"
        },
        {
          "internalType": "address",
          "name": "athletesDataStorageAddress",
          "type": "address"
        },
        {
          "internalType": "address",
          "name": "_admin",
          "type": "address"
        },
        {
          "internalType": "address",
          "name": "_polygonUSDCAddress",
          "type": "address"
        },
        {
          "internalType": "address",
          "name": "_rinkebyUSDCAddress",
          "type": "address"
        },
        {
          "internalType": "address",
          "name": "_testUSDCAddress",
          "type": "address"
        },
        {
          "internalType": "address",
          "name": "_teamDiffAddress",
          "type": "address"
        },
        {
          "internalType": "address",
          "name": "_leagueMakerContractAddress",
          "type": "address"
        }
      ],
      "name": "initialize",
      "outputs": [],
      "stateMutability": "nonpayable",
      "type": "function"
    },
    {
      "inputs": [],
      "name": "isPublic",
      "outputs": [
        {
          "internalType": "bool",
          "name": "",
          "type": "bool"
        }
      ],
      "stateMutability": "view",
      "type": "function"
    },
    {
      "inputs": [],
      "name": "joinLeague",
      "outputs": [],
      "stateMutability": "nonpayable",
      "type": "function"
    },
    {
      "inputs": [],
      "name": "leagueEntryIsClosed",
      "outputs": [
        {
          "internalType": "bool",
          "name": "",
          "type": "bool"
        }
      ],
      "stateMutability": "view",
      "type": "function"
    },
    {
      "inputs": [
        {
          "internalType": "uint256",
          "name": "",
          "type": "uint256"
        }
      ],
      "name": "leagueMembers",
      "outputs": [
        {
          "internalType": "address",
          "name": "",
          "type": "address"
        }
      ],
      "stateMutability": "view",
      "type": "function"
    },
    {
      "inputs": [],
      "name": "leagueName",
      "outputs": [
        {
          "internalType": "string",
          "name": "",
          "type": "string"
        }
      ],
      "stateMutability": "view",
      "type": "function"
    },
    {
      "inputs": [],
      "name": "lineupIsLocked",
      "outputs": [
        {
          "internalType": "bool",
          "name": "",
          "type": "bool"
        }
      ],
      "stateMutability": "view",
      "type": "function"
    },
    {
      "inputs": [],
      "name": "lockLineup",
      "outputs": [],
      "stateMutability": "nonpayable",
      "type": "function"
    },
    {
      "inputs": [],
      "name": "numWeeks",
      "outputs": [
        {
          "internalType": "uint256",
          "name": "",
          "type": "uint256"
        }
      ],
      "stateMutability": "view",
      "type": "function"
    },
    {
      "inputs": [],
      "name": "owner",
      "outputs": [
        {
          "internalType": "address",
          "name": "",
          "type": "address"
        }
      ],
      "stateMutability": "view",
      "type": "function"
    },
    {
      "inputs": [],
      "name": "polygonUSDCAddress",
      "outputs": [
        {
          "internalType": "address",
          "name": "",
          "type": "address"
        }
      ],
      "stateMutability": "view",
      "type": "function"
    },
    {
      "inputs": [
        {
          "internalType": "address",
          "name": "addr",
          "type": "address"
        }
      ],
      "name": "removeAddressFromWhitelist",
      "outputs": [
        {
          "internalType": "bool",
          "name": "success",
          "type": "bool"
        }
      ],
      "stateMutability": "nonpayable",
      "type": "function"
    },
    {
      "inputs": [
        {
          "internalType": "address[]",
          "name": "addrs",
          "type": "address[]"
        }
      ],
      "name": "removeAddressesFromWhitelist",
      "outputs": [
        {
          "internalType": "bool",
          "name": "success",
          "type": "bool"
        }
      ],
      "stateMutability": "nonpayable",
      "type": "function"
    },
    {
      "inputs": [
        {
          "internalType": "address",
          "name": "_userToRemove",
          "type": "address"
        }
      ],
      "name": "removeFromWhitelist",
      "outputs": [],
      "stateMutability": "nonpayable",
      "type": "function"
    },
    {
      "inputs": [],
      "name": "renounceOwnership",
      "outputs": [],
      "stateMutability": "nonpayable",
      "type": "function"
    },
    {
      "inputs": [],
      "name": "rinkebyUSDCAddress",
      "outputs": [
        {
          "internalType": "address",
          "name": "",
          "type": "address"
        }
      ],
      "stateMutability": "view",
      "type": "function"
    },
    {
      "inputs": [],
      "name": "setLeagueEntryIsClosed",
      "outputs": [],
      "stateMutability": "nonpayable",
      "type": "function"
    },
    {
      "inputs": [],
      "name": "setLeagueSchedule",
      "outputs": [],
      "stateMutability": "nonpayable",
      "type": "function"
    },
    {
      "inputs": [
        {
          "internalType": "uint256[]",
          "name": "athleteIds",
          "type": "uint256[]"
        }
      ],
      "name": "setLineup",
      "outputs": [],
      "stateMutability": "nonpayable",
      "type": "function"
    },
    {
      "inputs": [],
      "name": "stakeAmount",
      "outputs": [
        {
          "internalType": "uint256",
          "name": "",
          "type": "uint256"
        }
      ],
      "stateMutability": "view",
      "type": "function"
    },
    {
      "inputs": [],
      "name": "teamDiffAddress",
      "outputs": [
        {
          "internalType": "address",
          "name": "",
          "type": "address"
        }
      ],
      "stateMutability": "view",
      "type": "function"
    },
    {
      "inputs": [],
      "name": "testUSDC",
      "outputs": [
        {
          "internalType": "contract IERC20",
          "name": "",
          "type": "address"
        }
      ],
      "stateMutability": "view",
      "type": "function"
    },
    {
      "inputs": [
        {
          "internalType": "address",
          "name": "newOwner",
          "type": "address"
        }
      ],
      "name": "transferOwnership",
      "outputs": [],
      "stateMutability": "nonpayable",
      "type": "function"
    },
    {
      "inputs": [],
      "name": "unlockLineup",
      "outputs": [],
      "stateMutability": "nonpayable",
      "type": "function"
    },
    {
      "inputs": [
        {
          "internalType": "address",
          "name": "",
          "type": "address"
        },
        {
          "internalType": "uint256",
          "name": "",
          "type": "uint256"
        }
      ],
      "name": "userToLineup",
      "outputs": [
        {
          "internalType": "uint256",
          "name": "",
          "type": "uint256"
        }
      ],
      "stateMutability": "view",
      "type": "function"
    },
    {
      "inputs": [
        {
          "internalType": "address",
          "name": "",
          "type": "address"
        },
        {
          "internalType": "uint256",
          "name": "",
          "type": "uint256"
        }
      ],
      "name": "userToRecord",
      "outputs": [
        {
          "internalType": "uint256",
          "name": "",
          "type": "uint256"
        }
      ],
      "stateMutability": "view",
      "type": "function"
    },
    {
      "inputs": [
        {
          "internalType": "address",
          "name": "",
          "type": "address"
        }
      ],
      "name": "userToTotalWins",
      "outputs": [
        {
          "internalType": "uint256",
          "name": "",
          "type": "uint256"
        }
      ],
      "stateMutability": "view",
      "type": "function"
    },
    {
      "inputs": [
        {
          "internalType": "address",
          "name": "",
          "type": "address"
        }
      ],
      "name": "whitelist",
      "outputs": [
        {
          "internalType": "bool",
          "name": "",
          "type": "bool"
        }
      ],
      "stateMutability": "view",
      "type": "function"
    }
  ],
  "bytecode": "0x60806040523480156200001157600080fd5b5062000032620000266200004060201b60201c565b6200004860201b60201c565b60016004819055506200010d565b600033905090565b60008060029054906101000a900473ffffffffffffffffffffffffffffffffffffffff16905081600060026101000a81548173ffffffffffffffffffffffffffffffffffffffff021916908373ffffffffffffffffffffffffffffffffffffffff1602179055508173ffffffffffffffffffffffffffffffffffffffff168173ffffffffffffffffffffffffffffffffffffffff167f8be0079c531659141344cd1fd0a4f28419497f9722a3daafe3b4186f6b6457e060405160405180910390a35050565b61562c806200011d6000396000f3fe60806040523480156200001157600080fd5b50600436106200028b5760003560e01c80637eed33f11162000165578063c99fea9411620000d5578063e4c9066b1162000093578063e4c9066b1462000774578063edcbe96c1462000780578063f2fde38b14620007b6578063f612121a14620007d6578063f851a44014620007f6578063f88160451462000818576200028b565b8063c99fea9414620006a4578063cff5600314620006b0578063dc9a153514620006e6578063e2ec6ec31462000708578063e35a8999146200073e576200028b565b80639122ce6d11620001235780639122ce6d14620005fe57806393f3706c14620006345780639b19251a1462000656578063a2bc091a146200068c578063c8be3b5b1462000698576200028b565b80637eed33f1146200056c578063841abf6e146200058e57806385334ffa14620005b05780638ab1d68114620005bc5780638da5cb5b14620005dc576200028b565b80633c3ae13f11620002015780636bdc44df11620001bf5780636bdc44df14620004c65780636cc15ad514620004e8578063715018a6146200050a578063747b805014620005165780637b9417c81462000536576200028b565b80633c3ae13f146200041e57806344eaa84e146200043e578063595b1a3e14620004605780635fcc6987146200048257806360c7dc4714620004a4576200028b565b80631dd7f8ca116200024f5780631dd7f8ca146200033857806324953eaa146200035a578063267175db146200039057806327311b3214620003c6578063286dd3f514620003e8576200028b565b8062b2476f1462000290578063022e35e614620002b25780630635dbcb14620002d45780630655465a14620002f65780630c6f79591462000302575b600080fd5b6200029a6200083a565b604051620002a991906200393d565b60405180910390f35b620002bc62000860565b604051620002cb9190620039ff565b60405180910390f35b620002de62000886565b604051620002ed9190620039e2565b60405180910390f35b6200030062000899565b005b6200032060048036038101906200031a919062003277565b620009a4565b6040516200032f919062003cff565b60405180910390f35b62000342620009cd565b6040516200035191906200393d565b60405180910390f35b620003786004803603810190620003729190620032be565b620009f3565b604051620003879190620039e2565b60405180910390f35b620003ae6004803603810190620003a89190620034ac565b62000af0565b604051620003bd91906200393d565b60405180910390f35b620003d062000b30565b604051620003df9190620039e2565b60405180910390f35b62000406600480360381019062000400919062003245565b62000b47565b604051620004159190620039e2565b60405180910390f35b6200043c600480360381019062000436919062003392565b62000cd6565b005b620004486200116f565b60405162000457919062003cff565b60405180910390f35b6200046a62001179565b60405162000479919062003cff565b60405180910390f35b6200048c62001186565b6040516200049b919062003cff565b60405180910390f35b620004ae62001295565b604051620004bd919062003cff565b60405180910390f35b620004d06200129b565b604051620004df919062003cff565b60405180910390f35b620004f2620012e2565b604051620005019190620039e2565b60405180910390f35b62000514620012f5565b005b6200053460048036038101906200052e919062003245565b62001386565b005b6200055460048036038101906200054e919062003245565b620014d0565b604051620005639190620039e2565b60405180910390f35b620005766200165d565b60405162000585919062003cff565b60405180910390f35b6200059862001663565b604051620005a7919062003add565b60405180910390f35b620005ba620016f9565b005b620005da6004803603810190620005d4919062003245565b62001940565b005b620005e662001add565b604051620005f591906200393d565b60405180910390f35b6200061c600480360381019062000616919062003245565b62001b06565b6040516200062b9190620039e2565b60405180910390f35b6200063e62001b26565b6040516200064d91906200393d565b60405180910390f35b6200067460048036038101906200066e919062003245565b62001b4c565b604051620006839190620039e2565b60405180910390f35b6200069662001b6c565b005b620006a262001c1c565b005b620006ae62001ccc565b005b620006ce6004803603810190620006c8919062003277565b6200215a565b604051620006dd919062003cff565b60405180910390f35b620006f06200218c565b604051620006ff9190620039e2565b60405180910390f35b620007266004803603810190620007209190620032be565b6200219f565b604051620007359190620039e2565b60405180910390f35b6200075c600480360381019062000756919062003245565b6200229c565b6040516200076b9190620039e2565b60405180910390f35b6200077e620022f2565b005b6200079e600480360381019062000798919062003245565b620023a2565b604051620007ad919062003cff565b60405180910390f35b620007d46004803603810190620007ce919062003245565b620023ba565b005b620007f46004803603810190620007ee91906200330f565b620024be565b005b6200080062002a14565b6040516200080f91906200393d565b60405180910390f35b6200082262002a3a565b604051620008319190620039c4565b60405180910390f35b601260009054906101000a900473ffffffffffffffffffffffffffffffffffffffff1681565b601660009054906101000a900473ffffffffffffffffffffffffffffffffffffffff1681565b600960159054906101000a900460ff1681565b600960009054906101000a900473ffffffffffffffffffffffffffffffffffffffff1673ffffffffffffffffffffffffffffffffffffffff163373ffffffffffffffffffffffffffffffffffffffff16146200092c576040517f08c379a0000000000000000000000000000000000000000000000000000000008152600401620009239062003c55565b60405180910390fd5b73__$36fdb4e0c2cb91f3ceca5ea81b025328f3$__63d2c232b56010600f60065460056040518563ffffffff1660e01b815260040162000970949392919062003a1c565b60006040518083038186803b1580156200098957600080fd5b505af41580156200099e573d6000803e3d6000fd5b50505050565b600c6020528160005260406000208160088110620009c157600080fd5b01600091509150505481565b600960009054906101000a900473ffffffffffffffffffffffffffffffffffffffff1681565b6000620009ff62002ac6565b73ffffffffffffffffffffffffffffffffffffffff1662000a1f62001add565b73ffffffffffffffffffffffffffffffffffffffff161462000a78576040517f08c379a000000000000000000000000000000000000000000000000000000000815260040162000a6f9062003c11565b60405180910390fd5b60005b825181101562000aea5762000aad83828151811062000a9f5762000a9e62004122565b5b602002602001015162000b47565b1562000ad45760016002600082825462000ac8919062003ed0565b92505081905550600191505b808062000ae19062004076565b91505062000a7b565b50919050565b600f818154811062000b0157600080fd5b906000526020600020016000915054906101000a900473ffffffffffffffffffffffffffffffffffffffff1681565b6000600960159054906101000a900460ff16905090565b600062000b5362002ac6565b73ffffffffffffffffffffffffffffffffffffffff1662000b7362001add565b73ffffffffffffffffffffffffffffffffffffffff161462000bcc576040517f08c379a000000000000000000000000000000000000000000000000000000000815260040162000bc39062003c11565b60405180910390fd5b600160008373ffffffffffffffffffffffffffffffffffffffff1673ffffffffffffffffffffffffffffffffffffffff16815260200190815260200160002060009054906101000a900460ff161562000cd1576000600160008473ffffffffffffffffffffffffffffffffffffffff1673ffffffffffffffffffffffffffffffffffffffff16815260200190815260200160002060006101000a81548160ff0219169083151502179055507ff1abf01a1043b7c244d128e8595cf0c1d10743b022b03a02dffd8ca3bf729f5a8260405162000ca891906200393d565b60405180910390a160016002600082825462000cc5919062003ed0565b92505081905550600190505b919050565b600060019054906101000a900460ff1662000d005760008054906101000a900460ff161562000d0b565b62000d0a62002ace565b5b62000d4d576040517f08c379a000000000000000000000000000000000000000000000000000000000815260040162000d449062003bef565b60405180910390fd5b60008060019054906101000a900460ff16159050801562000d9e576001600060016101000a81548160ff02191690831515021790555060016000806101000a81548160ff0219169083151502179055505b8b8b6005919062000db192919062002ee4565b5060086006819055506001600e60008973ffffffffffffffffffffffffffffffffffffffff1673ffffffffffffffffffffffffffffffffffffffff16815260200190815260200160002060006101000a81548160ff021916908315150217905550600f879080600181540180825580915050600190039060005260206000200160009091909190916101000a81548173ffffffffffffffffffffffffffffffffffffffff021916908373ffffffffffffffffffffffffffffffffffffffff16021790555086600860006101000a81548173ffffffffffffffffffffffffffffffffffffffff021916908373ffffffffffffffffffffffffffffffffffffffff1602179055508960078190555088600360006101000a81548160ff0219169083151502179055506000600960146101000a81548160ff0219169083151502179055506000600960156101000a81548160ff02191690831515021790555087601360006101000a81548173ffffffffffffffffffffffffffffffffffffffff021916908373ffffffffffffffffffffffffffffffffffffffff16021790555081601560006101000a81548173ffffffffffffffffffffffffffffffffffffffff021916908373ffffffffffffffffffffffffffffffffffffffff16021790555060405162000f9d9062002f75565b604051809103906000f08015801562000fba573d6000803e3d6000fd5b50601460006101000a81548173ffffffffffffffffffffffffffffffffffffffff021916908373ffffffffffffffffffffffffffffffffffffffff16021790555085601160006101000a81548173ffffffffffffffffffffffffffffffffffffffff021916908373ffffffffffffffffffffffffffffffffffffffff16021790555084601260006101000a81548173ffffffffffffffffffffffffffffffffffffffff021916908373ffffffffffffffffffffffffffffffffffffffff16021790555083601660006101000a81548173ffffffffffffffffffffffffffffffffffffffff021916908373ffffffffffffffffffffffffffffffffffffffff16021790555082600960006101000a81548173ffffffffffffffffffffffffffffffffffffffff021916908373ffffffffffffffffffffffffffffffffffffffff1602179055506200113f6040518060400160405280601281526020017f50726f787920696e697469616c697a656421000000000000000000000000000081525062002ae1565b8015620011615760008060016101000a81548160ff0219169083151502179055505b505050505050505050505050565b6000600254905090565b6000600f80549050905090565b6000600e60003373ffffffffffffffffffffffffffffffffffffffff1673ffffffffffffffffffffffffffffffffffffffff16815260200190815260200160002060009054906101000a900460ff16620011df57600080fd5b601660009054906101000a900473ffffffffffffffffffffffffffffffffffffffff1673ffffffffffffffffffffffffffffffffffffffff166370a08231336040518263ffffffff1660e01b81526004016200123c91906200393d565b60206040518083038186803b1580156200125557600080fd5b505afa1580156200126a573d6000803e3d6000fd5b505050506040513d601f19601f82011682018060405250810190620012909190620034de565b905090565b60075481565b6000600b60003373ffffffffffffffffffffffffffffffffffffffff1673ffffffffffffffffffffffffffffffffffffffff16815260200190815260200160002054905090565b600960149054906101000a900460ff1681565b620012ff62002ac6565b73ffffffffffffffffffffffffffffffffffffffff166200131f62001add565b73ffffffffffffffffffffffffffffffffffffffff161462001378576040517f08c379a00000000000000000000000000000000000000000000000000000000081526004016200136f9062003c11565b60405180910390fd5b62001384600062002b7e565b565b600860009054906101000a900473ffffffffffffffffffffffffffffffffffffffff1673ffffffffffffffffffffffffffffffffffffffff163373ffffffffffffffffffffffffffffffffffffffff161462001419576040517f08c379a0000000000000000000000000000000000000000000000000000000008152600401620014109062003c33565b60405180910390fd5b601460009054906101000a900473ffffffffffffffffffffffffffffffffffffffff1673ffffffffffffffffffffffffffffffffffffffff16637b9417c8826040518263ffffffff1660e01b81526004016200147691906200393d565b602060405180830381600087803b1580156200149157600080fd5b505af1158015620014a6573d6000803e3d6000fd5b505050506040513d601f19601f82011682018060405250810190620014cc919062003360565b5050565b6000620014dc62002ac6565b73ffffffffffffffffffffffffffffffffffffffff16620014fc62001add565b73ffffffffffffffffffffffffffffffffffffffff161462001555576040517f08c379a00000000000000000000000000000000000000000000000000000000081526004016200154c9062003c11565b60405180910390fd5b600160008373ffffffffffffffffffffffffffffffffffffffff1673ffffffffffffffffffffffffffffffffffffffff16815260200190815260200160002060009054906101000a900460ff16620016585760018060008473ffffffffffffffffffffffffffffffffffffffff1673ffffffffffffffffffffffffffffffffffffffff16815260200190815260200160002060006101000a81548160ff0219169083151502179055507fd1bba68c128cc3f427e5831b3c6f99f480b6efa6b9e80c757768f6124158cc3f826040516200162f91906200393d565b60405180910390a16001600260008282546200164c919062003e12565b92505081905550600190505b919050565b60065481565b6005805462001672906200400a565b80601f0160208091040260200160405190810160405280929190818152602001828054620016a0906200400a565b8015620016f15780601f10620016c557610100808354040283529160200191620016f1565b820191906000526020600020905b815481529060010190602001808311620016d357829003601f168201915b505050505081565b600960009054906101000a900473ffffffffffffffffffffffffffffffffffffffff1673ffffffffffffffffffffffffffffffffffffffff163373ffffffffffffffffffffffffffffffffffffffff16146200178c576040517f08c379a0000000000000000000000000000000000000000000000000000000008152600401620017839062003c55565b60405180910390fd5b60026004541415620017d5576040517f08c379a0000000000000000000000000000000000000000000000000000000008152600401620017cc9062003cbb565b60405180910390fd5b60026004819055506000601560009054906101000a900473ffffffffffffffffffffffffffffffffffffffff1673ffffffffffffffffffffffffffffffffffffffff166306575c896040518163ffffffff1660e01b815260040160206040518083038186803b1580156200184857600080fd5b505afa1580156200185d573d6000803e3d6000fd5b505050506040513d601f19601f82011682018060405250810190620018839190620034de565b905073__$36fdb4e0c2cb91f3ceca5ea81b025328f3$__63c406e268601083601360009054906101000a900473ffffffffffffffffffffffffffffffffffffffff16600c600b600d6040518763ffffffff1660e01b8152600401620018ee9695949392919062003a70565b60006040518083038186803b1580156200190757600080fd5b505af41580156200191c573d6000803e3d6000fd5b50505050600881141562001935576200193462002c43565b5b506001600481905550565b600860009054906101000a900473ffffffffffffffffffffffffffffffffffffffff1673ffffffffffffffffffffffffffffffffffffffff163373ffffffffffffffffffffffffffffffffffffffff1614620019d3576040517f08c379a0000000000000000000000000000000000000000000000000000000008152600401620019ca9062003c33565b60405180910390fd5b600960149054906101000a900460ff161562001a26576040517f08c379a000000000000000000000000000000000000000000000000000000000815260040162001a1d9062003c99565b60405180910390fd5b601460009054906101000a900473ffffffffffffffffffffffffffffffffffffffff1673ffffffffffffffffffffffffffffffffffffffff1663286dd3f5826040518263ffffffff1660e01b815260040162001a8391906200393d565b602060405180830381600087803b15801562001a9e57600080fd5b505af115801562001ab3573d6000803e3d6000fd5b505050506040513d601f19601f8201168201806040525081019062001ad9919062003360565b5050565b60008060029054906101000a900473ffffffffffffffffffffffffffffffffffffffff16905090565b600e6020528060005260406000206000915054906101000a900460ff1681565b601160009054906101000a900473ffffffffffffffffffffffffffffffffffffffff1681565b60016020528060005260406000206000915054906101000a900460ff1681565b600960009054906101000a900473ffffffffffffffffffffffffffffffffffffffff1673ffffffffffffffffffffffffffffffffffffffff163373ffffffffffffffffffffffffffffffffffffffff161462001bff576040517f08c379a000000000000000000000000000000000000000000000000000000000815260040162001bf69062003c55565b60405180910390fd5b6000600960156101000a81548160ff021916908315150217905550565b600960009054906101000a900473ffffffffffffffffffffffffffffffffffffffff1673ffffffffffffffffffffffffffffffffffffffff163373ffffffffffffffffffffffffffffffffffffffff161462001caf576040517f08c379a000000000000000000000000000000000000000000000000000000000815260040162001ca69062003c55565b60405180910390fd5b6001600960156101000a81548160ff021916908315150217905550565b600160003373ffffffffffffffffffffffffffffffffffffffff1673ffffffffffffffffffffffffffffffffffffffff16815260200190815260200160002060009054906101000a900460ff168062001d315750600360009054906101000a900460ff165b62001d73576040517f08c379a000000000000000000000000000000000000000000000000000000000815260040162001d6a9062003b67565b60405180910390fd5b6002600454141562001dbc576040517f08c379a000000000000000000000000000000000000000000000000000000000815260040162001db39062003cbb565b60405180910390fd5b6002600481905550600960149054906101000a900460ff161562001e17576040517f08c379a000000000000000000000000000000000000000000000000000000000815260040162001e0e9062003cdd565b60405180910390fd5b600e60003373ffffffffffffffffffffffffffffffffffffffff1673ffffffffffffffffffffffffffffffffffffffff16815260200190815260200160002060009054906101000a900460ff161562001ea7576040517f08c379a000000000000000000000000000000000000000000000000000000000815260040162001e9e9062003b45565b60405180910390fd5b600754601660009054906101000a900473ffffffffffffffffffffffffffffffffffffffff1673ffffffffffffffffffffffffffffffffffffffff166370a08231336040518263ffffffff1660e01b815260040162001f0791906200393d565b60206040518083038186803b15801562001f2057600080fd5b505afa15801562001f35573d6000803e3d6000fd5b505050506040513d601f19601f8201168201806040525081019062001f5b9190620034de565b1162001f9e576040517f08c379a000000000000000000000000000000000000000000000000000000000815260040162001f959062003b23565b60405180910390fd5b6001600e60003373ffffffffffffffffffffffffffffffffffffffff1673ffffffffffffffffffffffffffffffffffffffff16815260200190815260200160002060006101000a81548160ff021916908315150217905550600f339080600181540180825580915050600190039060005260206000200160009091909190916101000a81548173ffffffffffffffffffffffffffffffffffffffff021916908373ffffffffffffffffffffffffffffffffffffffff160217905550601660009054906101000a900473ffffffffffffffffffffffffffffffffffffffff1673ffffffffffffffffffffffffffffffffffffffff166323b872dd33306007546040518463ffffffff1660e01b8152600401620020bc939291906200395a565b602060405180830381600087803b158015620020d757600080fd5b505af1158015620020ec573d6000803e3d6000fd5b505050506040513d601f19601f8201168201806040525081019062002112919062003360565b507f9e71bc8eea02a63969f509818f2dafb9254532904319f9dbda79b67bd34a5f3d336007546040516200214892919062003997565b60405180910390a16001600481905550565b600d60205281600052604060002081815481106200217757600080fd5b90600052602060002001600091509150505481565b600360009054906101000a900460ff1681565b6000620021ab62002ac6565b73ffffffffffffffffffffffffffffffffffffffff16620021cb62001add565b73ffffffffffffffffffffffffffffffffffffffff161462002224576040517f08c379a00000000000000000000000000000000000000000000000000000000081526004016200221b9062003c11565b60405180910390fd5b60005b82518110156200229657620022598382815181106200224b576200224a62004122565b5b6020026020010151620014d0565b15620022805760016002600082825462002274919062003e12565b92505081905550600191505b80806200228d9062004076565b91505062002227565b50919050565b6000600160008373ffffffffffffffffffffffffffffffffffffffff1673ffffffffffffffffffffffffffffffffffffffff16815260200190815260200160002060009054906101000a900460ff169050919050565b600960009054906101000a900473ffffffffffffffffffffffffffffffffffffffff1673ffffffffffffffffffffffffffffffffffffffff163373ffffffffffffffffffffffffffffffffffffffff161462002385576040517f08c379a00000000000000000000000000000000000000000000000000000000081526004016200237c9062003c55565b60405180910390fd5b6001600960146101000a81548160ff021916908315150217905550565b600b6020528060005260406000206000915090505481565b620023c462002ac6565b73ffffffffffffffffffffffffffffffffffffffff16620023e462001add565b73ffffffffffffffffffffffffffffffffffffffff16146200243d576040517f08c379a0000000000000000000000000000000000000000000000000000000008152600401620024349062003c11565b60405180910390fd5b600073ffffffffffffffffffffffffffffffffffffffff168173ffffffffffffffffffffffffffffffffffffffff161415620024b0576040517f08c379a0000000000000000000000000000000000000000000000000000000008152600401620024a79062003b01565b60405180910390fd5b620024bb8162002b7e565b50565b600960159054906101000a900460ff161562002511576040517f08c379a0000000000000000000000000000000000000000000000000000000008152600401620025089062003bcd565b60405180910390fd5b600e60003373ffffffffffffffffffffffffffffffffffffffff1673ffffffffffffffffffffffffffffffffffffffff16815260200190815260200160002060009054906101000a900460ff16620025a0576040517f08c379a0000000000000000000000000000000000000000000000000000000008152600401620025979062003c77565b60405180910390fd5b6000601560009054906101000a900473ffffffffffffffffffffffffffffffffffffffff1673ffffffffffffffffffffffffffffffffffffffff166306575c896040518163ffffffff1660e01b815260040160206040518083038186803b1580156200260b57600080fd5b505afa15801562002620573d6000803e3d6000fd5b505050506040513d601f19601f82011682018060405250810190620026469190620034de565b90506000600d60003373ffffffffffffffffffffffffffffffffffffffff1673ffffffffffffffffffffffffffffffffffffffff168152602001908152602001600020805490501115620027995760005b600d60003373ffffffffffffffffffffffffffffffffffffffff1673ffffffffffffffffffffffffffffffffffffffff168152602001908152602001600020805490508110156200279757600a6000600d60003373ffffffffffffffffffffffffffffffffffffffff1673ffffffffffffffffffffffffffffffffffffffff16815260200190815260200160002083815481106200273a576200273962004122565b5b90600052602060002001548152602001908152602001600020826008811062002768576200276762004122565b5b0160008154809291906200277c9062003fdb565b919050555080806200278e9062004076565b91505062002697565b505b60005b8251811015620027fd57600a60008281526020019081526020016000208260088110620027ce57620027cd62004122565b5b016000815480929190620027e29062004076565b91905055508080620027f49062004076565b9150506200279c565b5060005b825181101562002890576001600a6000838152602001908152602001600020836008811062002835576200283462004122565b5b0154146200287a576040517f08c379a0000000000000000000000000000000000000000000000000000000008152600401620028719062003b89565b60405180910390fd5b8080620028879062004076565b91505062002801565b5060005b82518110156200297957600a81620028ad919062003e6f565b838281518110620028c357620028c262004122565b5b6020026020010151101580156200292157506001600a600183620028e8919062003e12565b620028f4919062003e6f565b62002900919062003ed0565b83828151811062002916576200291562004122565b5b602002602001015111155b62002963576040517f08c379a00000000000000000000000000000000000000000000000000000000081526004016200295a9062003bab565b60405180910390fd5b8080620029709062004076565b91505062002894565b50620029ba6040518060400160405280601781526020017f53657474696e67206c696e657570206e6f77206261627900000000000000000081525062002ae1565b81600d60003373ffffffffffffffffffffffffffffffffffffffff1673ffffffffffffffffffffffffffffffffffffffff168152602001908152602001600020908051906020019062002a0f92919062002f83565b505050565b600860009054906101000a900473ffffffffffffffffffffffffffffffffffffffff1681565b62002a4462002fd5565b600c60003373ffffffffffffffffffffffffffffffffffffffff1673ffffffffffffffffffffffffffffffffffffffff16815260200190815260200160002060088060200260405190810160405280929190826008801562002abc576020028201915b81548152602001906001019080831162002aa7575b5050505050905090565b600033905090565b600062002adb3062002e98565b15905090565b62002b7b8160405160240162002af8919062003add565b6040516020818303038152906040527f41304fac000000000000000000000000000000000000000000000000000000007bffffffffffffffffffffffffffffffffffffffffffffffffffffffff19166020820180517bffffffffffffffffffffffffffffffffffffffffffffffffffffffff838183161783525050505062002ebb565b50565b60008060029054906101000a900473ffffffffffffffffffffffffffffffffffffffff16905081600060026101000a81548173ffffffffffffffffffffffffffffffffffffffff021916908373ffffffffffffffffffffffffffffffffffffffff1602179055508173ffffffffffffffffffffffffffffffffffffffff168173ffffffffffffffffffffffffffffffffffffffff167f8be0079c531659141344cd1fd0a4f28419497f9722a3daafe3b4186f6b6457e060405160405180910390a35050565b6000600f8054905060075462002c5a919062003e6f565b90506000600f60008154811062002c765762002c7562004122565b5b9060005260206000200160009054906101000a900473ffffffffffffffffffffffffffffffffffffffff1690506000600190505b600f8054905081101562002ddb57600b60008373ffffffffffffffffffffffffffffffffffffffff1673ffffffffffffffffffffffffffffffffffffffff16815260200190815260200160002054600b6000600f848154811062002d135762002d1262004122565b5b9060005260206000200160009054906101000a900473ffffffffffffffffffffffffffffffffffffffff1673ffffffffffffffffffffffffffffffffffffffff1673ffffffffffffffffffffffffffffffffffffffff16815260200190815260200160002054111562002dc557600f818154811062002d975762002d9662004122565b5b9060005260206000200160009054906101000a900473ffffffffffffffffffffffffffffffffffffffff1691505b808062002dd29062004076565b91505062002caa565b50601660009054906101000a900473ffffffffffffffffffffffffffffffffffffffff1673ffffffffffffffffffffffffffffffffffffffff166323b872dd3083856040518463ffffffff1660e01b815260040162002e3d939291906200395a565b602060405180830381600087803b15801562002e5857600080fd5b505af115801562002e6d573d6000803e3d6000fd5b505050506040513d601f19601f8201168201806040525081019062002e93919062003360565b505050565b6000808273ffffffffffffffffffffffffffffffffffffffff163b119050919050565b60008151905060006a636f6e736f6c652e6c6f679050602083016000808483855afa5050505050565b82805462002ef2906200400a565b90600052602060002090601f01602090048101928262002f16576000855562002f62565b82601f1062002f3157803560ff191683800117855562002f62565b8280016001018555821562002f62579182015b8281111562002f6157823582559160200191906001019062002f44565b5b50905062002f71919062002ff8565b5090565b61108d806200456a83390190565b82805482825590600052602060002090810192821562002fc2579160200282015b8281111562002fc157825182559160200191906001019062002fa4565b5b50905062002fd1919062002ff8565b5090565b604051806101000160405280600890602082028036833780820191505090505090565b5b808211156200301357600081600090555060010162002ff9565b5090565b60006200302e620030288462003d45565b62003d1c565b905080838252602082019050828560208602820111156200305457620030536200418a565b5b60005b858110156200308857816200306d88826200310d565b84526020840193506020830192505060018101905062003057565b5050509392505050565b6000620030a9620030a38462003d74565b62003d1c565b90508083825260208201905082856020860282011115620030cf57620030ce6200418a565b5b60005b85811015620031035781620030e8888262003217565b845260208401935060208301925050600181019050620030d2565b5050509392505050565b6000813590506200311e816200451b565b92915050565b600082601f8301126200313c576200313b62004185565b5b81356200314e84826020860162003017565b91505092915050565b600082601f8301126200316f576200316e62004185565b5b81356200318184826020860162003092565b91505092915050565b6000813590506200319b8162004535565b92915050565b600081519050620031b28162004535565b92915050565b60008083601f840112620031d157620031d062004185565b5b8235905067ffffffffffffffff811115620031f157620031f062004180565b5b60208301915083600182028301111562003210576200320f6200418a565b5b9250929050565b60008135905062003228816200454f565b92915050565b6000815190506200323f816200454f565b92915050565b6000602082840312156200325e576200325d62004194565b5b60006200326e848285016200310d565b91505092915050565b6000806040838503121562003291576200329062004194565b5b6000620032a1858286016200310d565b9250506020620032b48582860162003217565b9150509250929050565b600060208284031215620032d757620032d662004194565b5b600082013567ffffffffffffffff811115620032f857620032f76200418f565b5b620033068482850162003124565b91505092915050565b60006020828403121562003328576200332762004194565b5b600082013567ffffffffffffffff8111156200334957620033486200418f565b5b620033578482850162003157565b91505092915050565b60006020828403121562003379576200337862004194565b5b60006200338984828501620031a1565b91505092915050565b60008060008060008060008060008060006101408c8e031215620033bb57620033ba62004194565b5b60008c013567ffffffffffffffff811115620033dc57620033db6200418f565b5b620033ea8e828f01620031b8565b9b509b50506020620033ff8e828f0162003217565b9950506040620034128e828f016200318a565b9850506060620034258e828f016200310d565b9750506080620034388e828f016200310d565b96505060a06200344b8e828f016200310d565b95505060c06200345e8e828f016200310d565b94505060e0620034718e828f016200310d565b935050610100620034858e828f016200310d565b925050610120620034998e828f016200310d565b9150509295989b509295989b9093969950565b600060208284031215620034c557620034c462004194565b5b6000620034d58482850162003217565b91505092915050565b600060208284031215620034f757620034f662004194565b5b600062003507848285016200322e565b91505092915050565b60006200351e83836200390a565b60208301905092915050565b620035358162003f0b565b82525050565b8082525050565b6200354d8162003dc2565b62003559818462003de5565b9250620035668262003da3565b8060005b838110156200359d57815162003581878262003510565b96506200358e8362003dd8565b9250506001810190506200356a565b505050505050565b620035b08162003f1f565b82525050565b620035c18162003f55565b82525050565b620035d28162003f69565b82525050565b8082525050565b8082525050565b8082525050565b8082525050565b6000620036018262003dcd565b6200360d818562003df0565b93506200361f81856020860162003fa5565b6200362a8162004199565b840191505092915050565b6000815462003644816200400a565b62003650818662003e01565b945060018216600081146200366e57600181146200368157620036b8565b60ff1983168652602086019350620036b8565b6200368c8562003dad565b60005b83811015620036b0578154818901526001820191506020810190506200368f565b808801955050505b50505092915050565b6000620036d060268362003df0565b9150620036dd82620041aa565b604082019050919050565b6000620036f7601d8362003df0565b91506200370482620041f9565b602082019050919050565b60006200371e60238362003df0565b91506200372b8262004222565b604082019050919050565b600062003745601a8362003df0565b9150620037528262004271565b602082019050919050565b60006200376c60258362003df0565b915062003779826200429a565b604082019050919050565b60006200379360318362003df0565b9150620037a082620042e9565b604082019050919050565b6000620037ba601e8362003df0565b9150620037c78262004338565b602082019050919050565b6000620037e1602e8362003df0565b9150620037ee8262004361565b604082019050919050565b60006200380860208362003df0565b91506200381582620043b0565b602082019050919050565b60006200382f60178362003df0565b91506200383c82620043d9565b602082019050919050565b60006200385660168362003df0565b9150620038638262004402565b602082019050919050565b60006200387d60168362003df0565b91506200388a826200442b565b602082019050919050565b6000620038a460418362003df0565b9150620038b18262004454565b606082019050919050565b6000620038cb601f8362003df0565b9150620038d882620044c9565b602082019050919050565b6000620038f260178362003df0565b9150620038ff82620044f2565b602082019050919050565b620039158162003f4b565b82525050565b620039268162003f4b565b82525050565b620039378162003f4b565b82525050565b60006020820190506200395460008301846200352a565b92915050565b60006060820190506200397160008301866200352a565b6200398060208301856200352a565b6200398f60408301846200391b565b949350505050565b6000604082019050620039ae60008301856200352a565b620039bd60208301846200391b565b9392505050565b600061010082019050620039dc600083018462003542565b92915050565b6000602082019050620039f96000830184620035a5565b92915050565b600060208201905062003a166000830184620035c7565b92915050565b600060808201905062003a336000830187620035ed565b62003a4260208301866200353b565b62003a5160408301856200392c565b818103606083015262003a65818462003635565b905095945050505050565b600060c08201905062003a876000830189620035ed565b62003a9660208301886200392c565b62003aa56040830187620035b6565b62003ab46060830186620035d8565b62003ac36080830185620035e6565b62003ad260a0830184620035df565b979650505050505050565b6000602082019050818103600083015262003af98184620035f4565b905092915050565b6000602082019050818103600083015262003b1c81620036c1565b9050919050565b6000602082019050818103600083015262003b3e81620036e8565b9050919050565b6000602082019050818103600083015262003b60816200370f565b9050919050565b6000602082019050818103600083015262003b828162003736565b9050919050565b6000602082019050818103600083015262003ba4816200375d565b9050919050565b6000602082019050818103600083015262003bc68162003784565b9050919050565b6000602082019050818103600083015262003be881620037ab565b9050919050565b6000602082019050818103600083015262003c0a81620037d2565b9050919050565b6000602082019050818103600083015262003c2c81620037f9565b9050919050565b6000602082019050818103600083015262003c4e8162003820565b9050919050565b6000602082019050818103600083015262003c708162003847565b9050919050565b6000602082019050818103600083015262003c92816200386e565b9050919050565b6000602082019050818103600083015262003cb48162003895565b9050919050565b6000602082019050818103600083015262003cd681620038bc565b9050919050565b6000602082019050818103600083015262003cf881620038e3565b9050919050565b600060208201905062003d1660008301846200391b565b92915050565b600062003d2862003d3b565b905062003d36828262004040565b919050565b6000604051905090565b600067ffffffffffffffff82111562003d635762003d6262004151565b5b602082029050602081019050919050565b600067ffffffffffffffff82111562003d925762003d9162004151565b5b602082029050602081019050919050565b6000819050919050565b60008190508160005260206000209050919050565b600060089050919050565b600081519050919050565b6000602082019050919050565b600081905092915050565b600082825260208201905092915050565b600082825260208201905092915050565b600062003e1f8262003f4b565b915062003e2c8362003f4b565b9250827fffffffffffffffffffffffffffffffffffffffffffffffffffffffffffffffff0382111562003e645762003e63620040c4565b5b828201905092915050565b600062003e7c8262003f4b565b915062003e898362003f4b565b9250817fffffffffffffffffffffffffffffffffffffffffffffffffffffffffffffffff048311821515161562003ec55762003ec4620040c4565b5b828202905092915050565b600062003edd8262003f4b565b915062003eea8362003f4b565b92508282101562003f005762003eff620040c4565b5b828203905092915050565b600062003f188262003f2b565b9050919050565b60008115159050919050565b600073ffffffffffffffffffffffffffffffffffffffff82169050919050565b6000819050919050565b600062003f628262003f7d565b9050919050565b600062003f768262003f7d565b9050919050565b600062003f8a8262003f91565b9050919050565b600062003f9e8262003f2b565b9050919050565b60005b8381101562003fc557808201518184015260208101905062003fa8565b8381111562003fd5576000848401525b50505050565b600062003fe88262003f4b565b9150600082141562003fff5762003ffe620040c4565b5b600182039050919050565b600060028204905060018216806200402357607f821691505b602082108114156200403a5762004039620040f3565b5b50919050565b6200404b8262004199565b810181811067ffffffffffffffff821117156200406d576200406c62004151565b5b80604052505050565b6000620040838262003f4b565b91507fffffffffffffffffffffffffffffffffffffffffffffffffffffffffffffffff821415620040b957620040b8620040c4565b5b600182019050919050565b7f4e487b7100000000000000000000000000000000000000000000000000000000600052601160045260246000fd5b7f4e487b7100000000000000000000000000000000000000000000000000000000600052602260045260246000fd5b7f4e487b7100000000000000000000000000000000000000000000000000000000600052603260045260246000fd5b7f4e487b7100000000000000000000000000000000000000000000000000000000600052604160045260246000fd5b600080fd5b600080fd5b600080fd5b600080fd5b600080fd5b6000601f19601f8301169050919050565b7f4f776e61626c653a206e6577206f776e657220697320746865207a65726f206160008201527f6464726573730000000000000000000000000000000000000000000000000000602082015250565b7f496e737566666963656e742066756e647320666f72207374616b696e67000000600082015250565b7f596f75206861766520616c7265616479206a6f696e65642074686973206c656160008201527f6775650000000000000000000000000000000000000000000000000000000000602082015250565b7f55736572206973206e6f742077686974656c6973746564203a28000000000000600082015250565b7f4475706c6963617465206174686c65746549447320617265206e6f7420616c6c60008201527f6f7765642e000000000000000000000000000000000000000000000000000000602082015250565b7f596f75206172652073657474696e6720616e206174686c65746520696e20746860008201527f652077726f6e6720706f736974696f6e21000000000000000000000000000000602082015250565b7f6c696e657570206973206c6f636b656420666f7220746865207765656b210000600082015250565b7f496e697469616c697a61626c653a20636f6e747261637420697320616c72656160008201527f647920696e697469616c697a6564000000000000000000000000000000000000602082015250565b7f4f776e61626c653a2063616c6c6572206973206e6f7420746865206f776e6572600082015250565b7f43616c6c6572206973206e6f74207468652061646d696e000000000000000000600082015250565b7f43616c6c6572206973206e6f74205465616d4469666600000000000000000000600082015250565b7f55736572206973206e6f7420696e204c65616775652e00000000000000000000600082015250565b7f4e6f626f64792063616e20656e7465722f6578697420746865206c656167756560008201527f20616e796d6f72652e2054686520736561736f6e20686173207374617274656460208201527f2100000000000000000000000000000000000000000000000000000000000000604082015250565b7f5265656e7472616e637947756172643a207265656e7472616e742063616c6c00600082015250565b7f4c656167756520456e74727920697320436c6f73656421000000000000000000600082015250565b620045268162003f0b565b81146200453257600080fd5b50565b620045408162003f1f565b81146200454c57600080fd5b50565b6200455a8162003f4b565b81146200456657600080fd5b5056fe608060405234801561001057600080fd5b5061002d61002261003260201b60201c565b61003a60201b60201c565b6100fe565b600033905090565b60008060009054906101000a900473ffffffffffffffffffffffffffffffffffffffff169050816000806101000a81548173ffffffffffffffffffffffffffffffffffffffff021916908373ffffffffffffffffffffffffffffffffffffffff1602179055508173ffffffffffffffffffffffffffffffffffffffff168173ffffffffffffffffffffffffffffffffffffffff167f8be0079c531659141344cd1fd0a4f28419497f9722a3daafe3b4186f6b6457e060405160405180910390a35050565b610f808061010d6000396000f3fe608060405234801561001057600080fd5b50600436106100a95760003560e01c80638da5cb5b116100715780638da5cb5b146101665780639b19251a14610184578063dc9a1535146101b4578063e2ec6ec3146101d2578063e35a899914610202578063f2fde38b14610232576100a9565b806324953eaa146100ae578063286dd3f5146100de57806344eaa84e1461010e578063715018a61461012c5780637b9417c814610136575b600080fd5b6100c860048036038101906100c39190610b0e565b61024e565b6040516100d59190610be5565b60405180910390f35b6100f860048036038101906100f39190610ae1565b610338565b6040516101059190610be5565b60405180910390f35b6101166104bb565b6040516101239190610c40565b60405180910390f35b6101346104c5565b005b610150600480360381019061014b9190610ae1565b61054d565b60405161015d9190610be5565b60405180910390f35b61016e6106ce565b60405161017b9190610bca565b60405180910390f35b61019e60048036038101906101999190610ae1565b6106f7565b6040516101ab9190610be5565b60405180910390f35b6101bc610717565b6040516101c99190610be5565b60405180910390f35b6101ec60048036038101906101e79190610b0e565b61072a565b6040516101f99190610be5565b60405180910390f35b61021c60048036038101906102179190610ae1565b610814565b6040516102299190610be5565b60405180910390f35b61024c60048036038101906102479190610ae1565b61086a565b005b6000610258610962565b73ffffffffffffffffffffffffffffffffffffffff166102766106ce565b73ffffffffffffffffffffffffffffffffffffffff16146102cc576040517f08c379a00000000000000000000000000000000000000000000000000000000081526004016102c390610c20565b60405180910390fd5b60005b8251811015610332576102fb8382815181106102ee576102ed610e38565b5b6020026020010151610338565b1561031f576001600260008282546103139190610d13565b92505081905550600191505b808061032a90610dc0565b9150506102cf565b50919050565b6000610342610962565b73ffffffffffffffffffffffffffffffffffffffff166103606106ce565b73ffffffffffffffffffffffffffffffffffffffff16146103b6576040517f08c379a00000000000000000000000000000000000000000000000000000000081526004016103ad90610c20565b60405180910390fd5b600160008373ffffffffffffffffffffffffffffffffffffffff1673ffffffffffffffffffffffffffffffffffffffff16815260200190815260200160002060009054906101000a900460ff16156104b6576000600160008473ffffffffffffffffffffffffffffffffffffffff1673ffffffffffffffffffffffffffffffffffffffff16815260200190815260200160002060006101000a81548160ff0219169083151502179055507ff1abf01a1043b7c244d128e8595cf0c1d10743b022b03a02dffd8ca3bf729f5a8260405161048f9190610bca565b60405180910390a16001600260008282546104aa9190610d13565b92505081905550600190505b919050565b6000600254905090565b6104cd610962565b73ffffffffffffffffffffffffffffffffffffffff166104eb6106ce565b73ffffffffffffffffffffffffffffffffffffffff1614610541576040517f08c379a000000000000000000000000000000000000000000000000000000000815260040161053890610c20565b60405180910390fd5b61054b600061096a565b565b6000610557610962565b73ffffffffffffffffffffffffffffffffffffffff166105756106ce565b73ffffffffffffffffffffffffffffffffffffffff16146105cb576040517f08c379a00000000000000000000000000000000000000000000000000000000081526004016105c290610c20565b60405180910390fd5b600160008373ffffffffffffffffffffffffffffffffffffffff1673ffffffffffffffffffffffffffffffffffffffff16815260200190815260200160002060009054906101000a900460ff166106c95760018060008473ffffffffffffffffffffffffffffffffffffffff1673ffffffffffffffffffffffffffffffffffffffff16815260200190815260200160002060006101000a81548160ff0219169083151502179055507fd1bba68c128cc3f427e5831b3c6f99f480b6efa6b9e80c757768f6124158cc3f826040516106a29190610bca565b60405180910390a16001600260008282546106bd9190610cbd565b92505081905550600190505b919050565b60008060009054906101000a900473ffffffffffffffffffffffffffffffffffffffff16905090565b60016020528060005260406000206000915054906101000a900460ff1681565b600360009054906101000a900460ff1681565b6000610734610962565b73ffffffffffffffffffffffffffffffffffffffff166107526106ce565b73ffffffffffffffffffffffffffffffffffffffff16146107a8576040517f08c379a000000000000000000000000000000000000000000000000000000000815260040161079f90610c20565b60405180910390fd5b60005b825181101561080e576107d78382815181106107ca576107c9610e38565b5b602002602001015161054d565b156107fb576001600260008282546107ef9190610cbd565b92505081905550600191505b808061080690610dc0565b9150506107ab565b50919050565b6000600160008373ffffffffffffffffffffffffffffffffffffffff1673ffffffffffffffffffffffffffffffffffffffff16815260200190815260200160002060009054906101000a900460ff169050919050565b610872610962565b73ffffffffffffffffffffffffffffffffffffffff166108906106ce565b73ffffffffffffffffffffffffffffffffffffffff16146108e6576040517f08c379a00000000000000000000000000000000000000000000000000000000081526004016108dd90610c20565b60405180910390fd5b600073ffffffffffffffffffffffffffffffffffffffff168173ffffffffffffffffffffffffffffffffffffffff161415610956576040517f08c379a000000000000000000000000000000000000000000000000000000000815260040161094d90610c00565b60405180910390fd5b61095f8161096a565b50565b600033905090565b60008060009054906101000a900473ffffffffffffffffffffffffffffffffffffffff169050816000806101000a81548173ffffffffffffffffffffffffffffffffffffffff021916908373ffffffffffffffffffffffffffffffffffffffff1602179055508173ffffffffffffffffffffffffffffffffffffffff168173ffffffffffffffffffffffffffffffffffffffff167f8be0079c531659141344cd1fd0a4f28419497f9722a3daafe3b4186f6b6457e060405160405180910390a35050565b6000610a41610a3c84610c80565b610c5b565b90508083825260208201905082856020860282011115610a6457610a63610e9b565b5b60005b85811015610a945781610a7a8882610a9e565b845260208401935060208301925050600181019050610a67565b5050509392505050565b600081359050610aad81610f33565b92915050565b600082601f830112610ac857610ac7610e96565b5b8135610ad8848260208601610a2e565b91505092915050565b600060208284031215610af757610af6610ea5565b5b6000610b0584828501610a9e565b91505092915050565b600060208284031215610b2457610b23610ea5565b5b600082013567ffffffffffffffff811115610b4257610b41610ea0565b5b610b4e84828501610ab3565b91505092915050565b610b6081610d47565b82525050565b610b6f81610d59565b82525050565b6000610b82602683610cac565b9150610b8d82610ebb565b604082019050919050565b6000610ba5602083610cac565b9150610bb082610f0a565b602082019050919050565b610bc481610d85565b82525050565b6000602082019050610bdf6000830184610b57565b92915050565b6000602082019050610bfa6000830184610b66565b92915050565b60006020820190508181036000830152610c1981610b75565b9050919050565b60006020820190508181036000830152610c3981610b98565b9050919050565b6000602082019050610c556000830184610bbb565b92915050565b6000610c65610c76565b9050610c718282610d8f565b919050565b6000604051905090565b600067ffffffffffffffff821115610c9b57610c9a610e67565b5b602082029050602081019050919050565b600082825260208201905092915050565b6000610cc882610d85565b9150610cd383610d85565b9250827fffffffffffffffffffffffffffffffffffffffffffffffffffffffffffffffff03821115610d0857610d07610e09565b5b828201905092915050565b6000610d1e82610d85565b9150610d2983610d85565b925082821015610d3c57610d3b610e09565b5b828203905092915050565b6000610d5282610d65565b9050919050565b60008115159050919050565b600073ffffffffffffffffffffffffffffffffffffffff82169050919050565b6000819050919050565b610d9882610eaa565b810181811067ffffffffffffffff82111715610db757610db6610e67565b5b80604052505050565b6000610dcb82610d85565b91507fffffffffffffffffffffffffffffffffffffffffffffffffffffffffffffffff821415610dfe57610dfd610e09565b5b600182019050919050565b7f4e487b7100000000000000000000000000000000000000000000000000000000600052601160045260246000fd5b7f4e487b7100000000000000000000000000000000000000000000000000000000600052603260045260246000fd5b7f4e487b7100000000000000000000000000000000000000000000000000000000600052604160045260246000fd5b600080fd5b600080fd5b600080fd5b600080fd5b6000601f19601f8301169050919050565b7f4f776e61626c653a206e6577206f776e657220697320746865207a65726f206160008201527f6464726573730000000000000000000000000000000000000000000000000000602082015250565b7f4f776e61626c653a2063616c6c6572206973206e6f7420746865206f776e6572600082015250565b610f3c81610d47565b8114610f4757600080fd5b5056fea2646970667358221220bed30b98fd52fd06427fedf4fcef33f2521d9e36ee375e945eb6c8c8ba1d457d64736f6c63430008070033a2646970667358221220076b062e26582f329cd8dc21ebec9a40dba25208b8cf92d48785c674cff3e6c464736f6c63430008070033",
  "linkReferences": {
    "contracts/MOBALogicLibrary.sol": {
      "MOBALogicLibrary": [
        {
          "length": 20,
          "start": 2635
        },
        {
          "length": 20,
          "start": 6564
        }
      ]
    }
  },
  "deployedLinkReferences": {
    "contracts/MOBALogicLibrary.sol": {
      "MOBALogicLibrary": [
        {
          "length": 20,
          "start": 2350
        },
        {
          "length": 20,
          "start": 6279
        }
      ]
    }
  }
}