{
  "_format": "hh-sol-artifact-1",
  "contractName": "LeagueOfLegendsLogic",
  "sourceName": "contracts/LeagueOfLegendsLogic.sol",
  "abi": [
    {
      "anonymous": false,
      "inputs": [
        {
          "indexed": true,
          "internalType": "address",
          "name": "previousOwner",
          "type": "address"
        },
        {
          "indexed": true,
          "internalType": "address",
          "name": "newOwner",
          "type": "address"
        }
      ],
      "name": "OwnershipTransferred",
      "type": "event"
    },
    {
      "anonymous": false,
      "inputs": [
        {
          "indexed": true,
          "internalType": "bytes32",
          "name": "role",
          "type": "bytes32"
        },
        {
          "indexed": true,
          "internalType": "bytes32",
          "name": "previousAdminRole",
          "type": "bytes32"
        },
        {
          "indexed": true,
          "internalType": "bytes32",
          "name": "newAdminRole",
          "type": "bytes32"
        }
      ],
      "name": "RoleAdminChanged",
      "type": "event"
    },
    {
      "anonymous": false,
      "inputs": [
        {
          "indexed": true,
          "internalType": "bytes32",
          "name": "role",
          "type": "bytes32"
        },
        {
          "indexed": true,
          "internalType": "address",
          "name": "account",
          "type": "address"
        },
        {
          "indexed": true,
          "internalType": "address",
          "name": "sender",
          "type": "address"
        }
      ],
      "name": "RoleGranted",
      "type": "event"
    },
    {
      "anonymous": false,
      "inputs": [
        {
          "indexed": true,
          "internalType": "bytes32",
          "name": "role",
          "type": "bytes32"
        },
        {
          "indexed": true,
          "internalType": "address",
          "name": "account",
          "type": "address"
        },
        {
          "indexed": true,
          "internalType": "address",
          "name": "sender",
          "type": "address"
        }
      ],
      "name": "RoleRevoked",
      "type": "event"
    },
    {
      "anonymous": false,
      "inputs": [
        {
          "indexed": false,
          "internalType": "address",
          "name": "sender",
          "type": "address"
        },
        {
          "indexed": false,
          "internalType": "uint256",
          "name": "amount",
          "type": "uint256"
        }
      ],
      "name": "Staked",
      "type": "event"
    },
    {
      "anonymous": false,
      "inputs": [
        {
          "indexed": false,
          "internalType": "address",
          "name": "addr",
          "type": "address"
        }
      ],
      "name": "WhitelistedAddressAdded",
      "type": "event"
    },
    {
      "anonymous": false,
      "inputs": [
        {
          "indexed": false,
          "internalType": "address",
          "name": "addr",
          "type": "address"
        }
      ],
      "name": "WhitelistedAddressRemoved",
      "type": "event"
    },
    {
      "inputs": [],
      "name": "DEFAULT_ADMIN_ROLE",
      "outputs": [
        {
          "internalType": "bytes32",
          "name": "",
          "type": "bytes32"
        }
      ],
      "stateMutability": "view",
      "type": "function"
    },
    {
      "inputs": [
        {
          "internalType": "address",
          "name": "addr",
          "type": "address"
        }
      ],
      "name": "addAddressToWhitelist",
      "outputs": [
        {
          "internalType": "bool",
          "name": "success",
          "type": "bool"
        }
      ],
      "stateMutability": "nonpayable",
      "type": "function"
    },
    {
      "inputs": [
        {
          "internalType": "address[]",
          "name": "addrs",
          "type": "address[]"
        }
      ],
      "name": "addAddressesToWhitelist",
      "outputs": [
        {
          "internalType": "bool",
          "name": "success",
          "type": "bool"
        }
      ],
      "stateMutability": "nonpayable",
      "type": "function"
    },
    {
      "inputs": [
        {
          "internalType": "address",
          "name": "user",
          "type": "address"
        }
      ],
      "name": "addUserToLeague",
      "outputs": [],
      "stateMutability": "nonpayable",
      "type": "function"
    },
    {
      "inputs": [],
      "name": "addUserToWhitelist",
      "outputs": [],
      "stateMutability": "nonpayable",
      "type": "function"
    },
    {
      "inputs": [],
      "name": "currentWeekNum",
      "outputs": [
        {
          "internalType": "uint256",
          "name": "",
          "type": "uint256"
        }
      ],
      "stateMutability": "view",
      "type": "function"
    },
    {
      "inputs": [],
      "name": "evaluateWeek",
      "outputs": [],
      "stateMutability": "nonpayable",
      "type": "function"
    },
    {
      "inputs": [],
      "name": "getLeagueName",
      "outputs": [
        {
          "internalType": "string",
          "name": "",
          "type": "string"
        }
      ],
      "stateMutability": "view",
      "type": "function"
    },
    {
      "inputs": [],
      "name": "getLineup",
      "outputs": [
        {
          "internalType": "uint256[]",
          "name": "",
          "type": "uint256[]"
        }
      ],
      "stateMutability": "view",
      "type": "function"
    },
    {
      "inputs": [
        {
          "internalType": "bytes32",
          "name": "role",
          "type": "bytes32"
        }
      ],
      "name": "getRoleAdmin",
      "outputs": [
        {
          "internalType": "bytes32",
          "name": "",
          "type": "bytes32"
        }
      ],
      "stateMutability": "view",
      "type": "function"
    },
    {
      "inputs": [],
      "name": "getStakeAmount",
      "outputs": [
        {
          "internalType": "uint256",
          "name": "",
          "type": "uint256"
        }
      ],
      "stateMutability": "view",
      "type": "function"
    },
    {
      "inputs": [],
      "name": "getTotalPrizePot",
      "outputs": [
        {
          "internalType": "uint256",
          "name": "",
          "type": "uint256"
        }
      ],
      "stateMutability": "view",
      "type": "function"
    },
    {
      "inputs": [
        {
          "internalType": "address",
          "name": "_token",
          "type": "address"
        }
      ],
      "name": "getUSDCBalance",
      "outputs": [
        {
          "internalType": "uint256",
          "name": "",
          "type": "uint256"
        }
      ],
      "stateMutability": "view",
      "type": "function"
    },
    {
      "inputs": [],
      "name": "getUserRecord",
      "outputs": [
        {
          "internalType": "uint256[8]",
          "name": "",
          "type": "uint256[8]"
        }
      ],
      "stateMutability": "view",
      "type": "function"
    },
    {
      "inputs": [
        {
          "internalType": "bytes32",
          "name": "role",
          "type": "bytes32"
        },
        {
          "internalType": "address",
          "name": "account",
          "type": "address"
        }
      ],
      "name": "grantRole",
      "outputs": [],
      "stateMutability": "nonpayable",
      "type": "function"
    },
    {
      "inputs": [
        {
          "internalType": "bytes32",
          "name": "role",
          "type": "bytes32"
        },
        {
          "internalType": "address",
          "name": "account",
          "type": "address"
        }
      ],
      "name": "hasRole",
      "outputs": [
        {
          "internalType": "bool",
          "name": "",
          "type": "bool"
        }
      ],
      "stateMutability": "view",
      "type": "function"
    },
    {
      "inputs": [
        {
          "internalType": "string",
          "name": "_name",
          "type": "string"
        },
        {
          "internalType": "uint256",
          "name": "_stakeAmount",
          "type": "uint256"
        },
        {
          "internalType": "bool",
          "name": "_isPublic",
          "type": "bool"
        },
        {
          "internalType": "address",
          "name": "athletesDataStorageAddress",
          "type": "address"
        },
        {
          "internalType": "address",
          "name": "_admin",
          "type": "address"
        },
        {
          "internalType": "address",
          "name": "_polygonUSDCAddress",
          "type": "address"
        },
        {
          "internalType": "address",
          "name": "_rinkebyUSDCAddress",
          "type": "address"
        },
        {
          "internalType": "address",
          "name": "leagueMakerContractAddress",
          "type": "address"
        }
      ],
      "name": "initialize",
      "outputs": [],
      "stateMutability": "nonpayable",
      "type": "function"
    },
    {
      "inputs": [],
      "name": "isPublic",
      "outputs": [
        {
          "internalType": "bool",
          "name": "",
          "type": "bool"
        }
      ],
      "stateMutability": "view",
      "type": "function"
    },
    {
      "inputs": [],
      "name": "joinLeague",
      "outputs": [],
      "stateMutability": "nonpayable",
      "type": "function"
    },
    {
      "inputs": [
        {
          "internalType": "uint256",
          "name": "",
          "type": "uint256"
        }
      ],
      "name": "leagueMembers",
      "outputs": [
        {
          "internalType": "address",
          "name": "",
          "type": "address"
        }
      ],
      "stateMutability": "view",
      "type": "function"
    },
    {
      "inputs": [],
      "name": "leagueName",
      "outputs": [
        {
          "internalType": "string",
          "name": "",
          "type": "string"
        }
      ],
      "stateMutability": "view",
      "type": "function"
    },
    {
      "inputs": [],
      "name": "lockLineup",
      "outputs": [],
      "stateMutability": "nonpayable",
      "type": "function"
    },
    {
      "inputs": [],
      "name": "numWeeks",
      "outputs": [
        {
          "internalType": "uint256",
          "name": "",
          "type": "uint256"
        }
      ],
      "stateMutability": "view",
      "type": "function"
    },
    {
      "inputs": [],
      "name": "owner",
      "outputs": [
        {
          "internalType": "address",
          "name": "",
          "type": "address"
        }
      ],
      "stateMutability": "view",
      "type": "function"
    },
    {
      "inputs": [],
      "name": "polygonUSDCAddress",
      "outputs": [
        {
          "internalType": "address",
          "name": "",
          "type": "address"
        }
      ],
      "stateMutability": "view",
      "type": "function"
    },
    {
      "inputs": [
        {
          "internalType": "address",
          "name": "addr",
          "type": "address"
        }
      ],
      "name": "removeAddressFromWhitelist",
      "outputs": [
        {
          "internalType": "bool",
          "name": "success",
          "type": "bool"
        }
      ],
      "stateMutability": "nonpayable",
      "type": "function"
    },
    {
      "inputs": [
        {
          "internalType": "address[]",
          "name": "addrs",
          "type": "address[]"
        }
      ],
      "name": "removeAddressesFromWhitelist",
      "outputs": [
        {
          "internalType": "bool",
          "name": "success",
          "type": "bool"
        }
      ],
      "stateMutability": "nonpayable",
      "type": "function"
    },
    {
      "inputs": [],
      "name": "renounceOwnership",
      "outputs": [],
      "stateMutability": "nonpayable",
      "type": "function"
    },
    {
      "inputs": [
        {
          "internalType": "bytes32",
          "name": "role",
          "type": "bytes32"
        },
        {
          "internalType": "address",
          "name": "account",
          "type": "address"
        }
      ],
      "name": "renounceRole",
      "outputs": [],
      "stateMutability": "nonpayable",
      "type": "function"
    },
    {
      "inputs": [
        {
          "internalType": "bytes32",
          "name": "role",
          "type": "bytes32"
        },
        {
          "internalType": "address",
          "name": "account",
          "type": "address"
        }
      ],
      "name": "revokeRole",
      "outputs": [],
      "stateMutability": "nonpayable",
      "type": "function"
    },
    {
      "inputs": [],
      "name": "rinkebyUSDCAddress",
      "outputs": [
        {
          "internalType": "address",
          "name": "",
          "type": "address"
        }
      ],
      "stateMutability": "view",
      "type": "function"
    },
    {
      "inputs": [
        {
          "internalType": "address",
          "name": "_athleteContractAddress",
          "type": "address"
        }
      ],
      "name": "setAthleteContractAddress",
      "outputs": [],
      "stateMutability": "nonpayable",
      "type": "function"
    },
    {
      "inputs": [],
      "name": "setLeagueEntryIsClosed",
      "outputs": [],
      "stateMutability": "nonpayable",
      "type": "function"
    },
    {
      "inputs": [],
      "name": "setLeagueSchedule",
      "outputs": [],
      "stateMutability": "nonpayable",
      "type": "function"
    },
    {
      "inputs": [
        {
          "internalType": "uint256[]",
          "name": "athleteIds",
          "type": "uint256[]"
        }
      ],
      "name": "setLineup",
      "outputs": [],
      "stateMutability": "nonpayable",
      "type": "function"
    },
    {
      "inputs": [],
      "name": "stakeAmount",
      "outputs": [
        {
          "internalType": "uint256",
          "name": "",
          "type": "uint256"
        }
      ],
      "stateMutability": "view",
      "type": "function"
    },
    {
      "inputs": [
        {
          "internalType": "bytes4",
          "name": "interfaceId",
          "type": "bytes4"
        }
      ],
      "name": "supportsInterface",
      "outputs": [
        {
          "internalType": "bool",
          "name": "",
          "type": "bool"
        }
      ],
      "stateMutability": "view",
      "type": "function"
    },
    {
      "inputs": [
        {
          "internalType": "address",
          "name": "newOwner",
          "type": "address"
        }
      ],
      "name": "transferOwnership",
      "outputs": [],
      "stateMutability": "nonpayable",
      "type": "function"
    },
    {
      "inputs": [],
      "name": "unlockLineup",
      "outputs": [],
      "stateMutability": "nonpayable",
      "type": "function"
    },
    {
      "inputs": [
        {
          "internalType": "address",
          "name": "",
          "type": "address"
        },
        {
          "internalType": "uint256",
          "name": "",
          "type": "uint256"
        }
      ],
      "name": "userToRecord",
      "outputs": [
        {
          "internalType": "uint256",
          "name": "",
          "type": "uint256"
        }
      ],
      "stateMutability": "view",
      "type": "function"
    },
    {
      "inputs": [
        {
          "internalType": "address",
          "name": "",
          "type": "address"
        }
      ],
      "name": "whitelist",
      "outputs": [
        {
          "internalType": "bool",
          "name": "",
          "type": "bool"
        }
      ],
      "stateMutability": "view",
      "type": "function"
    }
  ],
  "bytecode": "0x60806040523480156200001157600080fd5b5062000032620000266200003860201b60201c565b6200004060201b60201c565b62000105565b600033905090565b60008060029054906101000a900473ffffffffffffffffffffffffffffffffffffffff16905081600060026101000a81548173ffffffffffffffffffffffffffffffffffffffff021916908373ffffffffffffffffffffffffffffffffffffffff1602179055508173ffffffffffffffffffffffffffffffffffffffff168173ffffffffffffffffffffffffffffffffffffffff167f8be0079c531659141344cd1fd0a4f28419497f9722a3daafe3b4186f6b6457e060405160405180910390a35050565b614f6780620001156000396000f3fe60806040523480156200001157600080fd5b50600436106200028b5760003560e01c80637eed33f11162000165578063ada3a28d11620000d5578063dc9a15351162000093578063dc9a15351462000758578063e2ec6ec3146200077a578063e4c9066b14620007b0578063f2fde38b14620007bc578063f612121a14620007dc578063f881604514620007fc576200028b565b8063ada3a28d14620006de578063c04c84191462000700578063c8be3b5b1462000720578063c99fea94146200072c578063d547741f1462000738576200028b565b806393f3706c116200012357806393f3706c146200063657806399a6003414620006585780639b19251a146200067a578063a217fddf14620006b0578063a2bc091a14620006d2576200028b565b80637eed33f1146200058e578063841abf6e14620005b057806385334ffa14620005d25780638da5cb5b14620005de57806391d148541462000600576200028b565b806336568abe11620002015780636802471711620001bf5780636802471714620004e8578063715018a6146200051e578063722580b6146200052a5780637ac6aa1d146200054c5780637b9417c81462000558576200028b565b806336568abe1462000442578063403570c51462000462578063486b3944146200048457806352e6e5f314620004a457806360c7dc4714620004c6576200028b565b8063248a9ca3116200024f578063248a9ca3146200034a57806324953eaa1462000380578063267175db14620003b6578063286dd3f514620003ec5780632f2ff15d1462000422576200028b565b8062b2476f146200029057806301ffc9a714620002b25780630655465a14620002e8578063087e18a714620002f45780630c6f79591462000314575b600080fd5b6200029a6200081e565b604051620002a99190620034d3565b60405180910390f35b620002d06004803603810190620002ca919062002f04565b62000844565b604051620002df91906200359c565b60405180910390f35b620002f2620008c1565b005b6200031260048036038101906200030c919062002d3e565b620009fc565b005b6200033260048036038101906200032c919062002d70565b62000b80565b604051620003419190620037cb565b60405180910390f35b62000368600480360381019062000362919062002e8b565b62000ba9565b604051620003779190620035b9565b60405180910390f35b6200039e600480360381019062000398919062002db7565b62000bc9565b604051620003ad91906200359c565b60405180910390f35b620003d46004803603810190620003ce919062003022565b62000cc6565b604051620003e39190620034d3565b60405180910390f35b6200040a600480360381019062000404919062002d3e565b62000d06565b6040516200041991906200359c565b60405180910390f35b6200044060048036038101906200043a919062002ebd565b62000e95565b005b6200046060048036038101906200045a919062002ebd565b62000ec6565b005b6200046c62000f50565b6040516200047b919062003697565b60405180910390f35b620004a260048036038101906200049c919062002d3e565b62000fea565b005b620004ae620010b1565b604051620004bd9190620037cb565b60405180910390f35b620004d0620010b7565b604051620004df9190620037cb565b60405180910390f35b62000506600480360381019062000500919062002d3e565b620010bd565b604051620005159190620037cb565b60405180910390f35b6200052862001155565b005b62000534620011e6565b604051620005439190620037cb565b60405180910390f35b62000556620011f0565b005b62000576600480360381019062000570919062002d3e565b62001263565b6040516200058591906200359c565b60405180910390f35b62000598620013f1565b604051620005a79190620037cb565b60405180910390f35b620005ba620013f7565b604051620005c9919062003697565b60405180910390f35b620005dc6200148d565b005b620005e8620015af565b604051620005f79190620034d3565b60405180910390f35b6200061e600480360381019062000618919062002ebd565b620015d8565b6040516200062d91906200359c565b60405180910390f35b6200064062001643565b6040516200064f9190620034d3565b60405180910390f35b6200066262001669565b604051620006719190620037cb565b60405180910390f35b62000698600480360381019062000692919062002d3e565b62001685565b604051620006a791906200359c565b60405180910390f35b620006ba620016a5565b604051620006c99190620035b9565b60405180910390f35b620006dc620016ac565b005b620006e86200174c565b604051620006f7919062003578565b60405180910390f35b6200071e600480360381019062000718919062002f36565b620017e3565b005b6200072a62001b6e565b005b6200073662001c0e565b005b62000756600480360381019062000750919062002ebd565b62001d65565b005b6200076262001d96565b6040516200077191906200359c565b60405180910390f35b62000798600480360381019062000792919062002db7565b62001da9565b604051620007a791906200359c565b60405180910390f35b620007ba62001ea6565b005b620007da6004803603810190620007d4919062002d3e565b62001f46565b005b620007fa6004803603810190620007f4919062002e08565b6200204a565b005b62000806620020f6565b6040516200081591906200355a565b60405180910390f35b601060009054906101000a900473ffffffffffffffffffffffffffffffffffffffff1681565b60007f7965db0b000000000000000000000000000000000000000000000000000000007bffffffffffffffffffffffffffffffffffffffffffffffffffffffff1916827bffffffffffffffffffffffffffffffffffffffffffffffffffffffff19161480620008ba5750620008b98262002182565b5b9050919050565b620008cb620021ec565b73ffffffffffffffffffffffffffffffffffffffff16620008eb620015af565b73ffffffffffffffffffffffffffffffffffffffff161462000944576040517f08c379a00000000000000000000000000000000000000000000000000000000081526004016200093b9062003765565b60405180910390fd5b620009846040518060400160405280601081526020017f73657474696e67207363686564756c6500000000000000000000000000000000815250620021f4565b73__$36fdb4e0c2cb91f3ceca5ea81b025328f3$__63d2c232b5600e600960065460056040518563ffffffff1660e01b8152600401620009c89493929190620035d6565b60006040518083038186803b158015620009e157600080fd5b505af4158015620009f6573d6000803e3d6000fd5b50505050565b600a60149054906101000a900460ff161562000a4f576040517f08c379a000000000000000000000000000000000000000000000000000000000815260040162000a469062003787565b60405180910390fd5b6008600980549050101562000b58576009819080600181540180825580915050600190039060005260206000200160009091909190916101000a81548173ffffffffffffffffffffffffffffffffffffffff021916908373ffffffffffffffffffffffffffffffffffffffff160217905550601360009054906101000a900473ffffffffffffffffffffffffffffffffffffffff1673ffffffffffffffffffffffffffffffffffffffff1663771bd4ce826040518263ffffffff1660e01b815260040162000b1e9190620034d3565b600060405180830381600087803b15801562000b3957600080fd5b505af115801562000b4e573d6000803e3d6000fd5b5050505062000b7d565b62000b7c60405180606001604052806028815260200162004f0a60289139620021f4565b5b50565b600c602052816000526040600020816008811062000b9d57600080fd5b01600091509150505481565b600060016000838152602001908152602001600020600101549050919050565b600062000bd5620021ec565b73ffffffffffffffffffffffffffffffffffffffff1662000bf5620015af565b73ffffffffffffffffffffffffffffffffffffffff161462000c4e576040517f08c379a000000000000000000000000000000000000000000000000000000000815260040162000c459062003765565b60405180910390fd5b60005b825181101562000cc05762000c8383828151811062000c755762000c7462003c54565b5b602002602001015162000d06565b1562000caa5760016003600082825462000c9e9190620039e0565b92505081905550600191505b808062000cb79062003ba8565b91505062000c51565b50919050565b6009818154811062000cd757600080fd5b906000526020600020016000915054906101000a900473ffffffffffffffffffffffffffffffffffffffff1681565b600062000d12620021ec565b73ffffffffffffffffffffffffffffffffffffffff1662000d32620015af565b73ffffffffffffffffffffffffffffffffffffffff161462000d8b576040517f08c379a000000000000000000000000000000000000000000000000000000000815260040162000d829062003765565b60405180910390fd5b600260008373ffffffffffffffffffffffffffffffffffffffff1673ffffffffffffffffffffffffffffffffffffffff16815260200190815260200160002060009054906101000a900460ff161562000e90576000600260008473ffffffffffffffffffffffffffffffffffffffff1673ffffffffffffffffffffffffffffffffffffffff16815260200190815260200160002060006101000a81548160ff0219169083151502179055507ff1abf01a1043b7c244d128e8595cf0c1d10743b022b03a02dffd8ca3bf729f5a8260405162000e679190620034d3565b60405180910390a160016003600082825462000e849190620039e0565b92505081905550600190505b919050565b62000ea08262000ba9565b62000eb58162000eaf620021ec565b62002291565b62000ec1838362002339565b505050565b62000ed0620021ec565b73ffffffffffffffffffffffffffffffffffffffff168173ffffffffffffffffffffffffffffffffffffffff161462000f40576040517f08c379a000000000000000000000000000000000000000000000000000000000815260040162000f3790620037a9565b60405180910390fd5b62000f4c82826200241e565b5050565b60606005805462000f619062003b3c565b80601f016020809104026020016040519081016040528092919081815260200182805462000f8f9062003b3c565b801562000fe05780601f1062000fb45761010080835404028352916020019162000fe0565b820191906000526020600020905b81548152906001019060200180831162000fc257829003601f168201915b5050505050905090565b62000ff4620021ec565b73ffffffffffffffffffffffffffffffffffffffff1662001014620015af565b73ffffffffffffffffffffffffffffffffffffffff16146200106d576040517f08c379a0000000000000000000000000000000000000000000000000000000008152600401620010649062003765565b60405180910390fd5b80601160006101000a81548173ffffffffffffffffffffffffffffffffffffffff021916908373ffffffffffffffffffffffffffffffffffffffff16021790555050565b60075481565b60085481565b60008173ffffffffffffffffffffffffffffffffffffffff166370a08231306040518263ffffffff1660e01b8152600401620010fa9190620034d3565b60206040518083038186803b1580156200111357600080fd5b505afa15801562001128573d6000803e3d6000fd5b505050506040513d601f19601f820116820180604052508101906200114e919062003054565b9050919050565b6200115f620021ec565b73ffffffffffffffffffffffffffffffffffffffff166200117f620015af565b73ffffffffffffffffffffffffffffffffffffffff1614620011d8576040517f08c379a0000000000000000000000000000000000000000000000000000000008152600401620011cf9062003765565b60405180910390fd5b620011e4600062002505565b565b6000600854905090565b620011ff6000801b33620015d8565b6200120957600080fd5b6001600260003373ffffffffffffffffffffffffffffffffffffffff1673ffffffffffffffffffffffffffffffffffffffff16815260200190815260200160002060006101000a81548160ff021916908315150217905550565b60006200126f620021ec565b73ffffffffffffffffffffffffffffffffffffffff166200128f620015af565b73ffffffffffffffffffffffffffffffffffffffff1614620012e8576040517f08c379a0000000000000000000000000000000000000000000000000000000008152600401620012df9062003765565b60405180910390fd5b600260008373ffffffffffffffffffffffffffffffffffffffff1673ffffffffffffffffffffffffffffffffffffffff16815260200190815260200160002060009054906101000a900460ff16620013ec576001600260008473ffffffffffffffffffffffffffffffffffffffff1673ffffffffffffffffffffffffffffffffffffffff16815260200190815260200160002060006101000a81548160ff0219169083151502179055507fd1bba68c128cc3f427e5831b3c6f99f480b6efa6b9e80c757768f6124158cc3f82604051620013c39190620034d3565b60405180910390a1600160036000828254620013e0919062003922565b92505081905550600190505b919050565b60065481565b60058054620014069062003b3c565b80601f0160208091040260200160405190810160405280929190818152602001828054620014349062003b3c565b8015620014855780601f10620014595761010080835404028352916020019162001485565b820191906000526020600020905b8154815290600101906020018083116200146757829003601f168201915b505050505081565b62001497620021ec565b73ffffffffffffffffffffffffffffffffffffffff16620014b7620015af565b73ffffffffffffffffffffffffffffffffffffffff161462001510576040517f08c379a0000000000000000000000000000000000000000000000000000000008152600401620015079062003765565b60405180910390fd5b73__$36fdb4e0c2cb91f3ceca5ea81b025328f3$__63c406e268600e600754601160009054906101000a900473ffffffffffffffffffffffffffffffffffffffff16600c600b600d6040518763ffffffff1660e01b81526004016200157b969594939291906200362a565b60006040518083038186803b1580156200159457600080fd5b505af4158015620015a9573d6000803e3d6000fd5b50505050565b60008060029054906101000a900473ffffffffffffffffffffffffffffffffffffffff16905090565b60006001600084815260200190815260200160002060000160008373ffffffffffffffffffffffffffffffffffffffff1673ffffffffffffffffffffffffffffffffffffffff16815260200190815260200160002060009054906101000a900460ff16905092915050565b600f60009054906101000a900473ffffffffffffffffffffffffffffffffffffffff1681565b60006009805490506008546200168091906200397f565b905090565b60026020528060005260406000206000915054906101000a900460ff1681565b6000801b81565b620016b6620021ec565b73ffffffffffffffffffffffffffffffffffffffff16620016d6620015af565b73ffffffffffffffffffffffffffffffffffffffff16146200172f576040517f08c379a0000000000000000000000000000000000000000000000000000000008152600401620017269062003765565b60405180910390fd5b6000600a60156101000a81548160ff021916908315150217905550565b6060600d60003373ffffffffffffffffffffffffffffffffffffffff1673ffffffffffffffffffffffffffffffffffffffff168152602001908152602001600020805480602002602001604051908101604052809291908181526020018280548015620017d957602002820191906000526020600020905b815481526020019060010190808311620017c4575b5050505050905090565b600060019054906101000a900460ff166200180d5760008054906101000a900460ff161562001818565b62001817620025ca565b5b6200185a576040517f08c379a0000000000000000000000000000000000000000000000000000000008152600401620018519062003743565b60405180910390fd5b60008060019054906101000a900460ff161590508015620018ab576001600060016101000a81548160ff02191690831515021790555060016000806101000a81548160ff0219169083151502179055505b898960059190620018be929190620029af565b506008600681905550620018d66000801b86620025dd565b6009859080600181540180825580915050600190039060005260206000200160009091909190916101000a81548173ffffffffffffffffffffffffffffffffffffffff021916908373ffffffffffffffffffffffffffffffffffffffff1602179055508760088190555086600460006101000a81548160ff0219169083151502179055506000600a60156101000a81548160ff0219169083151502179055506000600a60146101000a81548160ff02191690831515021790555085601160006101000a81548173ffffffffffffffffffffffffffffffffffffffff021916908373ffffffffffffffffffffffffffffffffffffffff16021790555081601360006101000a81548173ffffffffffffffffffffffffffffffffffffffff021916908373ffffffffffffffffffffffffffffffffffffffff16021790555060405162001a209062002a40565b604051809103906000f08015801562001a3d573d6000803e3d6000fd5b50601260006101000a81548173ffffffffffffffffffffffffffffffffffffffff021916908373ffffffffffffffffffffffffffffffffffffffff16021790555083600f60006101000a81548173ffffffffffffffffffffffffffffffffffffffff021916908373ffffffffffffffffffffffffffffffffffffffff16021790555082601060006101000a81548173ffffffffffffffffffffffffffffffffffffffff021916908373ffffffffffffffffffffffffffffffffffffffff16021790555062001b406040518060400160405280601281526020017f50726f787920696e697469616c697a6564210000000000000000000000000000815250620021f4565b801562001b625760008060016101000a81548160ff0219169083151502179055505b50505050505050505050565b62001b78620021ec565b73ffffffffffffffffffffffffffffffffffffffff1662001b98620015af565b73ffffffffffffffffffffffffffffffffffffffff161462001bf1576040517f08c379a000000000000000000000000000000000000000000000000000000000815260040162001be89062003765565b60405180910390fd5b6001600a60156101000a81548160ff021916908315150217905550565b600260003373ffffffffffffffffffffffffffffffffffffffff1673ffffffffffffffffffffffffffffffffffffffff16815260200190815260200160002060009054906101000a900460ff168062001c735750600460009054906101000a900460ff165b62001c7d57600080fd5b600a60149054906101000a900460ff161562001cd0576040517f08c379a000000000000000000000000000000000000000000000000000000000815260040162001cc79062003787565b60405180910390fd5b6009339080600181540180825580915050600190039060005260206000200160009091909190916101000a81548173ffffffffffffffffffffffffffffffffffffffff021916908373ffffffffffffffffffffffffffffffffffffffff16021790555062001d63601060009054906101000a900473ffffffffffffffffffffffffffffffffffffffff16600854620025ed565b565b62001d708262000ba9565b62001d858162001d7f620021ec565b62002291565b62001d9183836200241e565b505050565b600460009054906101000a900460ff1681565b600062001db5620021ec565b73ffffffffffffffffffffffffffffffffffffffff1662001dd5620015af565b73ffffffffffffffffffffffffffffffffffffffff161462001e2e576040517f08c379a000000000000000000000000000000000000000000000000000000000815260040162001e259062003765565b60405180910390fd5b60005b825181101562001ea05762001e6383828151811062001e555762001e5462003c54565b5b602002602001015162001263565b1562001e8a5760016003600082825462001e7e919062003922565b92505081905550600191505b808062001e979062003ba8565b91505062001e31565b50919050565b62001eb0620021ec565b73ffffffffffffffffffffffffffffffffffffffff1662001ed0620015af565b73ffffffffffffffffffffffffffffffffffffffff161462001f29576040517f08c379a000000000000000000000000000000000000000000000000000000000815260040162001f209062003765565b60405180910390fd5b6001600a60146101000a81548160ff021916908315150217905550565b62001f50620021ec565b73ffffffffffffffffffffffffffffffffffffffff1662001f70620015af565b73ffffffffffffffffffffffffffffffffffffffff161462001fc9576040517f08c379a000000000000000000000000000000000000000000000000000000000815260040162001fc09062003765565b60405180910390fd5b600073ffffffffffffffffffffffffffffffffffffffff168173ffffffffffffffffffffffffffffffffffffffff1614156200203c576040517f08c379a00000000000000000000000000000000000000000000000000000000081526004016200203390620036dd565b60405180910390fd5b620020478162002505565b50565b600a60159054906101000a900460ff16156200209d576040517f08c379a0000000000000000000000000000000000000000000000000000000008152600401620020949062003721565b60405180910390fd5b80600d60003373ffffffffffffffffffffffffffffffffffffffff1673ffffffffffffffffffffffffffffffffffffffff1681526020019081526020016000209080519060200190620020f292919062002a4e565b5050565b6200210062002aa0565b600c60003373ffffffffffffffffffffffffffffffffffffffff1673ffffffffffffffffffffffffffffffffffffffff16815260200190815260200160002060088060200260405190810160405280929190826008801562002178576020028201915b81548152602001906001019080831162002163575b5050505050905090565b60007f01ffc9a7000000000000000000000000000000000000000000000000000000007bffffffffffffffffffffffffffffffffffffffffffffffffffffffff1916827bffffffffffffffffffffffffffffffffffffffffffffffffffffffff1916149050919050565b600033905090565b6200228e816040516024016200220b919062003697565b6040516020818303038152906040527f41304fac000000000000000000000000000000000000000000000000000000007bffffffffffffffffffffffffffffffffffffffffffffffffffffffff19166020820180517bffffffffffffffffffffffffffffffffffffffffffffffffffffffff838183161783525050505062002708565b50565b6200229d8282620015d8565b6200233557620022c58173ffffffffffffffffffffffffffffffffffffffff16601462002731565b620022d58360001c602062002731565b604051602001620022e892919062003491565b6040516020818303038152906040526040517f08c379a00000000000000000000000000000000000000000000000000000000081526004016200232c919062003697565b60405180910390fd5b5050565b620023458282620015d8565b6200241a57600180600084815260200190815260200160002060000160008373ffffffffffffffffffffffffffffffffffffffff1673ffffffffffffffffffffffffffffffffffffffff16815260200190815260200160002060006101000a81548160ff021916908315150217905550620023bf620021ec565b73ffffffffffffffffffffffffffffffffffffffff168173ffffffffffffffffffffffffffffffffffffffff16837f2f8788117e7eff1d82e926ec794901d17c78024a50270940304540a733656f0d60405160405180910390a45b5050565b6200242a8282620015d8565b15620025015760006001600084815260200190815260200160002060000160008373ffffffffffffffffffffffffffffffffffffffff1673ffffffffffffffffffffffffffffffffffffffff16815260200190815260200160002060006101000a81548160ff021916908315150217905550620024a6620021ec565b73ffffffffffffffffffffffffffffffffffffffff168173ffffffffffffffffffffffffffffffffffffffff16837ff6391f5c32d9c69d2a47ea670b442974b53935d1edc7fd64eb21e047a839171b60405160405180910390a45b5050565b60008060029054906101000a900473ffffffffffffffffffffffffffffffffffffffff16905081600060026101000a81548173ffffffffffffffffffffffffffffffffffffffff021916908373ffffffffffffffffffffffffffffffffffffffff1602179055508173ffffffffffffffffffffffffffffffffffffffff168173ffffffffffffffffffffffffffffffffffffffff167f8be0079c531659141344cd1fd0a4f28419497f9722a3daafe3b4186f6b6457e060405160405180910390a35050565b6000620025d7306200298c565b15905090565b620025e9828262002339565b5050565b6000811162002633576040517f08c379a00000000000000000000000000000000000000000000000000000000081526004016200262a90620036ff565b60405180910390fd5b8173ffffffffffffffffffffffffffffffffffffffff166323b872dd3330846040518463ffffffff1660e01b81526004016200267293929190620034f0565b602060405180830381600087803b1580156200268d57600080fd5b505af1158015620026a2573d6000803e3d6000fd5b505050506040513d601f19601f82011682018060405250810190620026c8919062002e59565b507f9e71bc8eea02a63969f509818f2dafb9254532904319f9dbda79b67bd34a5f3d3382604051620026fc9291906200352d565b60405180910390a15050565b60008151905060006a636f6e736f6c652e6c6f679050602083016000808483855afa5050505050565b6060600060028360026200274691906200397f565b62002752919062003922565b67ffffffffffffffff8111156200276e576200276d62003c83565b5b6040519080825280601f01601f191660200182016040528015620027a15781602001600182028036833780820191505090505b5090507f300000000000000000000000000000000000000000000000000000000000000081600081518110620027dc57620027db62003c54565b5b60200101907effffffffffffffffffffffffffffffffffffffffffffffffffffffffffffff1916908160001a9053507f78000000000000000000000000000000000000000000000000000000000000008160018151811062002843576200284262003c54565b5b60200101907effffffffffffffffffffffffffffffffffffffffffffffffffffffffffffff1916908160001a905350600060018460026200288591906200397f565b62002891919062003922565b90505b60018111156200293b577f3031323334353637383961626364656600000000000000000000000000000000600f861660108110620028d757620028d662003c54565b5b1a60f81b828281518110620028f157620028f062003c54565b5b60200101907effffffffffffffffffffffffffffffffffffffffffffffffffffffffffffff1916908160001a905350600485901c945080620029339062003b0d565b905062002894565b506000841462002982576040517f08c379a00000000000000000000000000000000000000000000000000000000081526004016200297990620036bb565b60405180910390fd5b8091505092915050565b6000808273ffffffffffffffffffffffffffffffffffffffff163b119050919050565b828054620029bd9062003b3c565b90600052602060002090601f016020900481019282620029e1576000855562002a2d565b82601f10620029fc57803560ff191683800117855562002a2d565b8280016001018555821562002a2d579182015b8281111562002a2c57823582559160200191906001019062002a0f565b5b50905062002a3c919062002ac3565b5090565b610f9f8062003f6b83390190565b82805482825590600052602060002090810192821562002a8d579160200282015b8281111562002a8c57825182559160200191906001019062002a6f565b5b50905062002a9c919062002ac3565b5090565b604051806101000160405280600890602082028036833780820191505090505090565b5b8082111562002ade57600081600090555060010162002ac4565b5090565b600062002af962002af38462003811565b620037e8565b9050808382526020820190508285602086028201111562002b1f5762002b1e62003cbc565b5b60005b8581101562002b53578162002b38888262002bd8565b84526020840193506020830192505060018101905062002b22565b5050509392505050565b600062002b7462002b6e8462003840565b620037e8565b9050808382526020820190508285602086028201111562002b9a5762002b9962003cbc565b5b60005b8581101562002bce578162002bb3888262002d10565b84526020840193506020830192505060018101905062002b9d565b5050509392505050565b60008135905062002be98162003ee8565b92915050565b600082601f83011262002c075762002c0662003cb7565b5b813562002c1984826020860162002ae2565b91505092915050565b600082601f83011262002c3a5762002c3962003cb7565b5b813562002c4c84826020860162002b5d565b91505092915050565b60008135905062002c668162003f02565b92915050565b60008151905062002c7d8162003f02565b92915050565b60008135905062002c948162003f1c565b92915050565b60008135905062002cab8162003f36565b92915050565b60008083601f84011262002cca5762002cc962003cb7565b5b8235905067ffffffffffffffff81111562002cea5762002ce962003cb2565b5b60208301915083600182028301111562002d095762002d0862003cbc565b5b9250929050565b60008135905062002d218162003f50565b92915050565b60008151905062002d388162003f50565b92915050565b60006020828403121562002d575762002d5662003cc6565b5b600062002d678482850162002bd8565b91505092915050565b6000806040838503121562002d8a5762002d8962003cc6565b5b600062002d9a8582860162002bd8565b925050602062002dad8582860162002d10565b9150509250929050565b60006020828403121562002dd05762002dcf62003cc6565b5b600082013567ffffffffffffffff81111562002df15762002df062003cc1565b5b62002dff8482850162002bef565b91505092915050565b60006020828403121562002e215762002e2062003cc6565b5b600082013567ffffffffffffffff81111562002e425762002e4162003cc1565b5b62002e508482850162002c22565b91505092915050565b60006020828403121562002e725762002e7162003cc6565b5b600062002e828482850162002c6c565b91505092915050565b60006020828403121562002ea45762002ea362003cc6565b5b600062002eb48482850162002c83565b91505092915050565b6000806040838503121562002ed75762002ed662003cc6565b5b600062002ee78582860162002c83565b925050602062002efa8582860162002bd8565b9150509250929050565b60006020828403121562002f1d5762002f1c62003cc6565b5b600062002f2d8482850162002c9a565b91505092915050565b60008060008060008060008060006101008a8c03121562002f5c5762002f5b62003cc6565b5b60008a013567ffffffffffffffff81111562002f7d5762002f7c62003cc1565b5b62002f8b8c828d0162002cb1565b9950995050602062002fa08c828d0162002d10565b975050604062002fb38c828d0162002c55565b965050606062002fc68c828d0162002bd8565b955050608062002fd98c828d0162002bd8565b94505060a062002fec8c828d0162002bd8565b93505060c062002fff8c828d0162002bd8565b92505060e0620030128c828d0162002bd8565b9150509295985092959850929598565b6000602082840312156200303b576200303a62003cc6565b5b60006200304b8482850162002d10565b91505092915050565b6000602082840312156200306d576200306c62003cc6565b5b60006200307d8482850162002d27565b91505092915050565b60006200309483836200345e565b60208301905092915050565b620030ab8162003a1b565b82525050565b8082525050565b620030c3816200389e565b620030cf8184620038d9565b9250620030dc826200386f565b8060005b8381101562003113578151620030f7878262003086565b96506200310483620038bf565b925050600181019050620030e0565b505050505050565b60006200312882620038a9565b620031348185620038e4565b9350620031418362003879565b8060005b83811015620031785781516200315c888262003086565b97506200316983620038cc565b92505060018101905062003145565b5085935050505092915050565b620031908162003a2f565b82525050565b620031a18162003a3b565b82525050565b620031b28162003a9b565b82525050565b8082525050565b8082525050565b8082525050565b8082525050565b6000620031e182620038b4565b620031ed8185620038f5565b9350620031ff81856020860162003ad7565b6200320a8162003ccb565b840191505092915050565b60006200322282620038b4565b6200322e818562003917565b93506200324081856020860162003ad7565b80840191505092915050565b600081546200325b8162003b3c565b62003267818662003906565b945060018216600081146200328557600181146200329857620032cf565b60ff1983168652602086019350620032cf565b620032a38562003889565b60005b83811015620032c757815481890152600182019150602081019050620032a6565b808801955050505b50505092915050565b6000620032e7602083620038f5565b9150620032f48262003cdc565b602082019050919050565b60006200330e602683620038f5565b91506200331b8262003d05565b604082019050919050565b600062003335600e83620038f5565b9150620033428262003d54565b602082019050919050565b60006200335c601e83620038f5565b9150620033698262003d7d565b602082019050919050565b600062003383602e83620038f5565b9150620033908262003da6565b604082019050919050565b6000620033aa602083620038f5565b9150620033b78262003df5565b602082019050919050565b6000620033d160178362003917565b9150620033de8262003e1e565b601782019050919050565b6000620033f8601783620038f5565b9150620034058262003e47565b602082019050919050565b60006200341f60118362003917565b91506200342c8262003e70565b601182019050919050565b600062003446602f83620038f5565b9150620034538262003e99565b604082019050919050565b620034698162003a91565b82525050565b6200347a8162003a91565b82525050565b6200348b8162003a91565b82525050565b60006200349e82620033c2565b9150620034ac828562003215565b9150620034b98262003410565b9150620034c7828462003215565b91508190509392505050565b6000602082019050620034ea6000830184620030a0565b92915050565b6000606082019050620035076000830186620030a0565b620035166020830185620030a0565b6200352560408301846200346f565b949350505050565b6000604082019050620035446000830185620030a0565b6200355360208301846200346f565b9392505050565b600061010082019050620035726000830184620030b8565b92915050565b600060208201905081810360008301526200359481846200311b565b905092915050565b6000602082019050620035b3600083018462003185565b92915050565b6000602082019050620035d0600083018462003196565b92915050565b6000608082019050620035ed6000830187620031cd565b620035fc6020830186620030b1565b6200360b604083018562003480565b81810360608301526200361f81846200324c565b905095945050505050565b600060c082019050620036416000830189620031cd565b62003650602083018862003480565b6200365f6040830187620031a7565b6200366e6060830186620031b8565b6200367d6080830185620031c6565b6200368c60a0830184620031bf565b979650505050505050565b60006020820190508181036000830152620036b38184620031d4565b905092915050565b60006020820190508181036000830152620036d681620032d8565b9050919050565b60006020820190508181036000830152620036f881620032ff565b9050919050565b600060208201905081810360008301526200371a8162003326565b9050919050565b600060208201905081810360008301526200373c816200334d565b9050919050565b600060208201905081810360008301526200375e8162003374565b9050919050565b6000602082019050818103600083015262003780816200339b565b9050919050565b60006020820190508181036000830152620037a281620033e9565b9050919050565b60006020820190508181036000830152620037c48162003437565b9050919050565b6000602082019050620037e260008301846200346f565b92915050565b6000620037f462003807565b905062003802828262003b72565b919050565b6000604051905090565b600067ffffffffffffffff8211156200382f576200382e62003c83565b5b602082029050602081019050919050565b600067ffffffffffffffff8211156200385e576200385d62003c83565b5b602082029050602081019050919050565b6000819050919050565b6000819050602082019050919050565b60008190508160005260206000209050919050565b600060089050919050565b600081519050919050565b600081519050919050565b6000602082019050919050565b6000602082019050919050565b600081905092915050565b600082825260208201905092915050565b600082825260208201905092915050565b600082825260208201905092915050565b600081905092915050565b60006200392f8262003a91565b91506200393c8362003a91565b9250827fffffffffffffffffffffffffffffffffffffffffffffffffffffffffffffffff0382111562003974576200397362003bf6565b5b828201905092915050565b60006200398c8262003a91565b9150620039998362003a91565b9250817fffffffffffffffffffffffffffffffffffffffffffffffffffffffffffffffff0483118215151615620039d557620039d462003bf6565b5b828202905092915050565b6000620039ed8262003a91565b9150620039fa8362003a91565b92508282101562003a105762003a0f62003bf6565b5b828203905092915050565b600062003a288262003a71565b9050919050565b60008115159050919050565b6000819050919050565b60007fffffffff0000000000000000000000000000000000000000000000000000000082169050919050565b600073ffffffffffffffffffffffffffffffffffffffff82169050919050565b6000819050919050565b600062003aa88262003aaf565b9050919050565b600062003abc8262003ac3565b9050919050565b600062003ad08262003a71565b9050919050565b60005b8381101562003af757808201518184015260208101905062003ada565b8381111562003b07576000848401525b50505050565b600062003b1a8262003a91565b9150600082141562003b315762003b3062003bf6565b5b600182039050919050565b6000600282049050600182168062003b5557607f821691505b6020821081141562003b6c5762003b6b62003c25565b5b50919050565b62003b7d8262003ccb565b810181811067ffffffffffffffff8211171562003b9f5762003b9e62003c83565b5b80604052505050565b600062003bb58262003a91565b91507fffffffffffffffffffffffffffffffffffffffffffffffffffffffffffffffff82141562003beb5762003bea62003bf6565b5b600182019050919050565b7f4e487b7100000000000000000000000000000000000000000000000000000000600052601160045260246000fd5b7f4e487b7100000000000000000000000000000000000000000000000000000000600052602260045260246000fd5b7f4e487b7100000000000000000000000000000000000000000000000000000000600052603260045260246000fd5b7f4e487b7100000000000000000000000000000000000000000000000000000000600052604160045260246000fd5b600080fd5b600080fd5b600080fd5b600080fd5b600080fd5b6000601f19601f8301169050919050565b7f537472696e67733a20686578206c656e67746820696e73756666696369656e74600082015250565b7f4f776e61626c653a206e6577206f776e657220697320746865207a65726f206160008201527f6464726573730000000000000000000000000000000000000000000000000000602082015250565b7f43616e6e6f74207374616b652030000000000000000000000000000000000000600082015250565b7f6c696e657570206973206c6f636b656420666f7220746865207765656b210000600082015250565b7f496e697469616c697a61626c653a20636f6e747261637420697320616c72656160008201527f647920696e697469616c697a6564000000000000000000000000000000000000602082015250565b7f4f776e61626c653a2063616c6c6572206973206e6f7420746865206f776e6572600082015250565b7f416363657373436f6e74726f6c3a206163636f756e7420000000000000000000600082015250565b7f4c656167756520456e74727920697320436c6f73656421000000000000000000600082015250565b7f206973206d697373696e6720726f6c6520000000000000000000000000000000600082015250565b7f416363657373436f6e74726f6c3a2063616e206f6e6c792072656e6f756e636560008201527f20726f6c657320666f722073656c660000000000000000000000000000000000602082015250565b62003ef38162003a1b565b811462003eff57600080fd5b50565b62003f0d8162003a2f565b811462003f1957600080fd5b50565b62003f278162003a3b565b811462003f3357600080fd5b50565b62003f418162003a45565b811462003f4d57600080fd5b50565b62003f5b8162003a91565b811462003f6757600080fd5b5056fe608060405234801561001057600080fd5b5061002d61002261003260201b60201c565b61003a60201b60201c565b6100fe565b600033905090565b60008060009054906101000a900473ffffffffffffffffffffffffffffffffffffffff169050816000806101000a81548173ffffffffffffffffffffffffffffffffffffffff021916908373ffffffffffffffffffffffffffffffffffffffff1602179055508173ffffffffffffffffffffffffffffffffffffffff168173ffffffffffffffffffffffffffffffffffffffff167f8be0079c531659141344cd1fd0a4f28419497f9722a3daafe3b4186f6b6457e060405160405180910390a35050565b610e928061010d6000396000f3fe608060405234801561001057600080fd5b50600436106100935760003560e01c80638da5cb5b116100665780638da5cb5b146101325780639b19251a14610150578063dc9a153514610180578063e2ec6ec31461019e578063f2fde38b146101ce57610093565b806324953eaa14610098578063286dd3f5146100c8578063715018a6146100f85780637b9417c814610102575b600080fd5b6100b260048036038101906100ad9190610a4a565b6101ea565b6040516100bf9190610b12565b60405180910390f35b6100e260048036038101906100dd9190610a1d565b6102d4565b6040516100ef9190610b12565b60405180910390f35b610100610457565b005b61011c60048036038101906101179190610a1d565b6104df565b6040516101299190610b12565b60405180910390f35b61013a610660565b6040516101479190610af7565b60405180910390f35b61016a60048036038101906101659190610a1d565b610689565b6040516101779190610b12565b60405180910390f35b6101886106a9565b6040516101959190610b12565b60405180910390f35b6101b860048036038101906101b39190610a4a565b6106bc565b6040516101c59190610b12565b60405180910390f35b6101e860048036038101906101e39190610a1d565b6107a6565b005b60006101f461089e565b73ffffffffffffffffffffffffffffffffffffffff16610212610660565b73ffffffffffffffffffffffffffffffffffffffff1614610268576040517f08c379a000000000000000000000000000000000000000000000000000000000815260040161025f90610b4d565b60405180910390fd5b60005b82518110156102ce5761029783828151811061028a57610289610d4a565b5b60200260200101516102d4565b156102bb576001600260008282546102af9190610c25565b92505081905550600191505b80806102c690610cd2565b91505061026b565b50919050565b60006102de61089e565b73ffffffffffffffffffffffffffffffffffffffff166102fc610660565b73ffffffffffffffffffffffffffffffffffffffff1614610352576040517f08c379a000000000000000000000000000000000000000000000000000000000815260040161034990610b4d565b60405180910390fd5b600160008373ffffffffffffffffffffffffffffffffffffffff1673ffffffffffffffffffffffffffffffffffffffff16815260200190815260200160002060009054906101000a900460ff1615610452576000600160008473ffffffffffffffffffffffffffffffffffffffff1673ffffffffffffffffffffffffffffffffffffffff16815260200190815260200160002060006101000a81548160ff0219169083151502179055507ff1abf01a1043b7c244d128e8595cf0c1d10743b022b03a02dffd8ca3bf729f5a8260405161042b9190610af7565b60405180910390a16001600260008282546104469190610c25565b92505081905550600190505b919050565b61045f61089e565b73ffffffffffffffffffffffffffffffffffffffff1661047d610660565b73ffffffffffffffffffffffffffffffffffffffff16146104d3576040517f08c379a00000000000000000000000000000000000000000000000000000000081526004016104ca90610b4d565b60405180910390fd5b6104dd60006108a6565b565b60006104e961089e565b73ffffffffffffffffffffffffffffffffffffffff16610507610660565b73ffffffffffffffffffffffffffffffffffffffff161461055d576040517f08c379a000000000000000000000000000000000000000000000000000000000815260040161055490610b4d565b60405180910390fd5b600160008373ffffffffffffffffffffffffffffffffffffffff1673ffffffffffffffffffffffffffffffffffffffff16815260200190815260200160002060009054906101000a900460ff1661065b5760018060008473ffffffffffffffffffffffffffffffffffffffff1673ffffffffffffffffffffffffffffffffffffffff16815260200190815260200160002060006101000a81548160ff0219169083151502179055507fd1bba68c128cc3f427e5831b3c6f99f480b6efa6b9e80c757768f6124158cc3f826040516106349190610af7565b60405180910390a160016002600082825461064f9190610bcf565b92505081905550600190505b919050565b60008060009054906101000a900473ffffffffffffffffffffffffffffffffffffffff16905090565b60016020528060005260406000206000915054906101000a900460ff1681565b600360009054906101000a900460ff1681565b60006106c661089e565b73ffffffffffffffffffffffffffffffffffffffff166106e4610660565b73ffffffffffffffffffffffffffffffffffffffff161461073a576040517f08c379a000000000000000000000000000000000000000000000000000000000815260040161073190610b4d565b60405180910390fd5b60005b82518110156107a05761076983828151811061075c5761075b610d4a565b5b60200260200101516104df565b1561078d576001600260008282546107819190610bcf565b92505081905550600191505b808061079890610cd2565b91505061073d565b50919050565b6107ae61089e565b73ffffffffffffffffffffffffffffffffffffffff166107cc610660565b73ffffffffffffffffffffffffffffffffffffffff1614610822576040517f08c379a000000000000000000000000000000000000000000000000000000000815260040161081990610b4d565b60405180910390fd5b600073ffffffffffffffffffffffffffffffffffffffff168173ffffffffffffffffffffffffffffffffffffffff161415610892576040517f08c379a000000000000000000000000000000000000000000000000000000000815260040161088990610b2d565b60405180910390fd5b61089b816108a6565b50565b600033905090565b60008060009054906101000a900473ffffffffffffffffffffffffffffffffffffffff169050816000806101000a81548173ffffffffffffffffffffffffffffffffffffffff021916908373ffffffffffffffffffffffffffffffffffffffff1602179055508173ffffffffffffffffffffffffffffffffffffffff168173ffffffffffffffffffffffffffffffffffffffff167f8be0079c531659141344cd1fd0a4f28419497f9722a3daafe3b4186f6b6457e060405160405180910390a35050565b600061097d61097884610b92565b610b6d565b905080838252602082019050828560208602820111156109a05761099f610dad565b5b60005b858110156109d057816109b688826109da565b8452602084019350602083019250506001810190506109a3565b5050509392505050565b6000813590506109e981610e45565b92915050565b600082601f830112610a0457610a03610da8565b5b8135610a1484826020860161096a565b91505092915050565b600060208284031215610a3357610a32610db7565b5b6000610a41848285016109da565b91505092915050565b600060208284031215610a6057610a5f610db7565b5b600082013567ffffffffffffffff811115610a7e57610a7d610db2565b5b610a8a848285016109ef565b91505092915050565b610a9c81610c59565b82525050565b610aab81610c6b565b82525050565b6000610abe602683610bbe565b9150610ac982610dcd565b604082019050919050565b6000610ae1602083610bbe565b9150610aec82610e1c565b602082019050919050565b6000602082019050610b0c6000830184610a93565b92915050565b6000602082019050610b276000830184610aa2565b92915050565b60006020820190508181036000830152610b4681610ab1565b9050919050565b60006020820190508181036000830152610b6681610ad4565b9050919050565b6000610b77610b88565b9050610b838282610ca1565b919050565b6000604051905090565b600067ffffffffffffffff821115610bad57610bac610d79565b5b602082029050602081019050919050565b600082825260208201905092915050565b6000610bda82610c97565b9150610be583610c97565b9250827fffffffffffffffffffffffffffffffffffffffffffffffffffffffffffffffff03821115610c1a57610c19610d1b565b5b828201905092915050565b6000610c3082610c97565b9150610c3b83610c97565b925082821015610c4e57610c4d610d1b565b5b828203905092915050565b6000610c6482610c77565b9050919050565b60008115159050919050565b600073ffffffffffffffffffffffffffffffffffffffff82169050919050565b6000819050919050565b610caa82610dbc565b810181811067ffffffffffffffff82111715610cc957610cc8610d79565b5b80604052505050565b6000610cdd82610c97565b91507fffffffffffffffffffffffffffffffffffffffffffffffffffffffffffffffff821415610d1057610d0f610d1b565b5b600182019050919050565b7f4e487b7100000000000000000000000000000000000000000000000000000000600052601160045260246000fd5b7f4e487b7100000000000000000000000000000000000000000000000000000000600052603260045260246000fd5b7f4e487b7100000000000000000000000000000000000000000000000000000000600052604160045260246000fd5b600080fd5b600080fd5b600080fd5b600080fd5b6000601f19601f8301169050919050565b7f4f776e61626c653a206e6577206f776e657220697320746865207a65726f206160008201527f6464726573730000000000000000000000000000000000000000000000000000602082015250565b7f4f776e61626c653a2063616c6c6572206973206e6f7420746865206f776e6572600082015250565b610e4e81610c59565b8114610e5957600080fd5b5056fea2646970667358221220070224275ad0b13d0a847fbeb4a423ae740dee42968a8d236c8eedaef3b3cc5764736f6c63430008070033746f6f206d616e7920757365727320696e206c656167756520746f20616464206e65772075736572a26469706673582212206729d07d356c4277e693c35d1abe67ecd417adb6351f864d639db9e955fd625764736f6c63430008070033",
  "linkReferences": {
    "contracts/MOBALogicLibrary.sol": {
      "MOBALogicLibrary": [
        {
          "length": 20,
          "start": 2715
        },
        {
          "length": 20,
          "start": 5671
        }
      ]
    }
  },
  "deployedLinkReferences": {
    "contracts/MOBALogicLibrary.sol": {
      "MOBALogicLibrary": [
        {
          "length": 20,
          "start": 2438
        },
        {
          "length": 20,
          "start": 5394
        }
      ]
    }
  }
}