{
  "_format": "hh-sol-artifact-1",
  "contractName": "LeagueOfLegendsLogic",
  "sourceName": "contracts/LeagueOfLegendsLogic.sol",
  "abi": [
    {
      "anonymous": false,
      "inputs": [
        {
          "indexed": true,
          "internalType": "address",
          "name": "previousOwner",
          "type": "address"
        },
        {
          "indexed": true,
          "internalType": "address",
          "name": "newOwner",
          "type": "address"
        }
      ],
      "name": "OwnershipTransferred",
      "type": "event"
    },
    {
      "anonymous": false,
      "inputs": [
        {
          "indexed": true,
          "internalType": "bytes32",
          "name": "role",
          "type": "bytes32"
        },
        {
          "indexed": true,
          "internalType": "bytes32",
          "name": "previousAdminRole",
          "type": "bytes32"
        },
        {
          "indexed": true,
          "internalType": "bytes32",
          "name": "newAdminRole",
          "type": "bytes32"
        }
      ],
      "name": "RoleAdminChanged",
      "type": "event"
    },
    {
      "anonymous": false,
      "inputs": [
        {
          "indexed": true,
          "internalType": "bytes32",
          "name": "role",
          "type": "bytes32"
        },
        {
          "indexed": true,
          "internalType": "address",
          "name": "account",
          "type": "address"
        },
        {
          "indexed": true,
          "internalType": "address",
          "name": "sender",
          "type": "address"
        }
      ],
      "name": "RoleGranted",
      "type": "event"
    },
    {
      "anonymous": false,
      "inputs": [
        {
          "indexed": true,
          "internalType": "bytes32",
          "name": "role",
          "type": "bytes32"
        },
        {
          "indexed": true,
          "internalType": "address",
          "name": "account",
          "type": "address"
        },
        {
          "indexed": true,
          "internalType": "address",
          "name": "sender",
          "type": "address"
        }
      ],
      "name": "RoleRevoked",
      "type": "event"
    },
    {
      "anonymous": false,
      "inputs": [
        {
          "indexed": false,
          "internalType": "address",
          "name": "sender",
          "type": "address"
        },
        {
          "indexed": false,
          "internalType": "uint256",
          "name": "amount",
          "type": "uint256"
        }
      ],
      "name": "Staked",
      "type": "event"
    },
    {
      "anonymous": false,
      "inputs": [
        {
          "indexed": false,
          "internalType": "address",
          "name": "addr",
          "type": "address"
        }
      ],
      "name": "WhitelistedAddressAdded",
      "type": "event"
    },
    {
      "anonymous": false,
      "inputs": [
        {
          "indexed": false,
          "internalType": "address",
          "name": "addr",
          "type": "address"
        }
      ],
      "name": "WhitelistedAddressRemoved",
      "type": "event"
    },
    {
      "inputs": [],
      "name": "DEFAULT_ADMIN_ROLE",
      "outputs": [
        {
          "internalType": "bytes32",
          "name": "",
          "type": "bytes32"
        }
      ],
      "stateMutability": "view",
      "type": "function"
    },
    {
      "inputs": [
        {
          "internalType": "address",
          "name": "addr",
          "type": "address"
        }
      ],
      "name": "addAddressToWhitelist",
      "outputs": [
        {
          "internalType": "bool",
          "name": "success",
          "type": "bool"
        }
      ],
      "stateMutability": "nonpayable",
      "type": "function"
    },
    {
      "inputs": [
        {
          "internalType": "address[]",
          "name": "addrs",
          "type": "address[]"
        }
      ],
      "name": "addAddressesToWhitelist",
      "outputs": [
        {
          "internalType": "bool",
          "name": "success",
          "type": "bool"
        }
      ],
      "stateMutability": "nonpayable",
      "type": "function"
    },
    {
      "inputs": [],
      "name": "addUserToWhitelist",
      "outputs": [],
      "stateMutability": "nonpayable",
      "type": "function"
    },
    {
      "inputs": [],
      "name": "currentWeekNum",
      "outputs": [
        {
          "internalType": "uint256",
          "name": "",
          "type": "uint256"
        }
      ],
      "stateMutability": "view",
      "type": "function"
    },
    {
      "inputs": [
        {
          "internalType": "uint256",
          "name": "currentWeekNum",
          "type": "uint256"
        }
      ],
      "name": "evaluateWeek",
      "outputs": [],
      "stateMutability": "nonpayable",
      "type": "function"
    },
    {
      "inputs": [],
      "name": "getLeagueName",
      "outputs": [
        {
          "internalType": "string",
          "name": "",
          "type": "string"
        }
      ],
      "stateMutability": "view",
      "type": "function"
    },
    {
      "inputs": [],
      "name": "getLineup",
      "outputs": [
        {
          "internalType": "uint256[]",
          "name": "",
          "type": "uint256[]"
        }
      ],
      "stateMutability": "view",
      "type": "function"
    },
    {
      "inputs": [
        {
          "internalType": "bytes32",
          "name": "role",
          "type": "bytes32"
        }
      ],
      "name": "getRoleAdmin",
      "outputs": [
        {
          "internalType": "bytes32",
          "name": "",
          "type": "bytes32"
        }
      ],
      "stateMutability": "view",
      "type": "function"
    },
    {
      "inputs": [],
      "name": "getStakeAmount",
      "outputs": [
        {
          "internalType": "uint256",
          "name": "stakeAmount",
          "type": "uint256"
        }
      ],
      "stateMutability": "view",
      "type": "function"
    },
    {
      "inputs": [],
      "name": "getTotalPrizePot",
      "outputs": [
        {
          "internalType": "uint256",
          "name": "",
          "type": "uint256"
        }
      ],
      "stateMutability": "view",
      "type": "function"
    },
    {
      "inputs": [
        {
          "internalType": "address",
          "name": "_token",
          "type": "address"
        }
      ],
      "name": "getUSDCBalance",
      "outputs": [
        {
          "internalType": "uint256",
          "name": "",
          "type": "uint256"
        }
      ],
      "stateMutability": "view",
      "type": "function"
    },
    {
      "inputs": [],
      "name": "getUserRecord",
      "outputs": [
        {
          "internalType": "uint256[8]",
          "name": "",
          "type": "uint256[8]"
        }
      ],
      "stateMutability": "view",
      "type": "function"
    },
    {
      "inputs": [
        {
          "internalType": "bytes32",
          "name": "role",
          "type": "bytes32"
        },
        {
          "internalType": "address",
          "name": "account",
          "type": "address"
        }
      ],
      "name": "grantRole",
      "outputs": [],
      "stateMutability": "nonpayable",
      "type": "function"
    },
    {
      "inputs": [
        {
          "internalType": "bytes32",
          "name": "role",
          "type": "bytes32"
        },
        {
          "internalType": "address",
          "name": "account",
          "type": "address"
        }
      ],
      "name": "hasRole",
      "outputs": [
        {
          "internalType": "bool",
          "name": "",
          "type": "bool"
        }
      ],
      "stateMutability": "view",
      "type": "function"
    },
    {
      "inputs": [],
      "name": "incrementVersion",
      "outputs": [],
      "stateMutability": "nonpayable",
      "type": "function"
    },
    {
      "inputs": [
        {
          "internalType": "string",
          "name": "_name",
          "type": "string"
        },
        {
          "internalType": "uint256",
          "name": "_version",
          "type": "uint256"
        },
        {
          "internalType": "uint256",
          "name": "_stakeAmount",
          "type": "uint256"
        },
        {
          "internalType": "bool",
          "name": "_isPublic",
          "type": "bool"
        },
        {
          "internalType": "address",
          "name": "athletesDataStorageAddress",
          "type": "address"
        },
        {
          "internalType": "address",
          "name": "_admin",
          "type": "address"
        },
        {
          "internalType": "address",
          "name": "_polygonUSDCAddress",
          "type": "address"
        },
        {
          "internalType": "address",
          "name": "_rinkebyUSDCAddress",
          "type": "address"
        },
        {
          "internalType": "address",
          "name": "leagueMakerContractAddress",
          "type": "address"
        }
      ],
      "name": "initialize",
      "outputs": [],
      "stateMutability": "nonpayable",
      "type": "function"
    },
    {
      "inputs": [],
      "name": "isPublic",
      "outputs": [
        {
          "internalType": "bool",
          "name": "",
          "type": "bool"
        }
      ],
      "stateMutability": "view",
      "type": "function"
    },
    {
      "inputs": [],
      "name": "joinLeague",
      "outputs": [],
      "stateMutability": "nonpayable",
      "type": "function"
    },
    {
      "inputs": [
        {
          "internalType": "uint256",
          "name": "",
          "type": "uint256"
        }
      ],
      "name": "leagueMembers",
      "outputs": [
        {
          "internalType": "address",
          "name": "",
          "type": "address"
        }
      ],
      "stateMutability": "view",
      "type": "function"
    },
    {
      "inputs": [],
      "name": "leagueName",
      "outputs": [
        {
          "internalType": "string",
          "name": "",
          "type": "string"
        }
      ],
      "stateMutability": "view",
      "type": "function"
    },
    {
      "inputs": [],
      "name": "lockLineup",
      "outputs": [],
      "stateMutability": "nonpayable",
      "type": "function"
    },
    {
      "inputs": [],
      "name": "numWeeks",
      "outputs": [
        {
          "internalType": "uint256",
          "name": "",
          "type": "uint256"
        }
      ],
      "stateMutability": "view",
      "type": "function"
    },
    {
      "inputs": [],
      "name": "owner",
      "outputs": [
        {
          "internalType": "address",
          "name": "",
          "type": "address"
        }
      ],
      "stateMutability": "view",
      "type": "function"
    },
    {
      "inputs": [],
      "name": "polygonUSDCAddress",
      "outputs": [
        {
          "internalType": "address",
          "name": "",
          "type": "address"
        }
      ],
      "stateMutability": "view",
      "type": "function"
    },
    {
      "inputs": [
        {
          "internalType": "address",
          "name": "addr",
          "type": "address"
        }
      ],
      "name": "removeAddressFromWhitelist",
      "outputs": [
        {
          "internalType": "bool",
          "name": "success",
          "type": "bool"
        }
      ],
      "stateMutability": "nonpayable",
      "type": "function"
    },
    {
      "inputs": [
        {
          "internalType": "address[]",
          "name": "addrs",
          "type": "address[]"
        }
      ],
      "name": "removeAddressesFromWhitelist",
      "outputs": [
        {
          "internalType": "bool",
          "name": "success",
          "type": "bool"
        }
      ],
      "stateMutability": "nonpayable",
      "type": "function"
    },
    {
      "inputs": [],
      "name": "renounceOwnership",
      "outputs": [],
      "stateMutability": "nonpayable",
      "type": "function"
    },
    {
      "inputs": [
        {
          "internalType": "bytes32",
          "name": "role",
          "type": "bytes32"
        },
        {
          "internalType": "address",
          "name": "account",
          "type": "address"
        }
      ],
      "name": "renounceRole",
      "outputs": [],
      "stateMutability": "nonpayable",
      "type": "function"
    },
    {
      "inputs": [
        {
          "internalType": "bytes32",
          "name": "role",
          "type": "bytes32"
        },
        {
          "internalType": "address",
          "name": "account",
          "type": "address"
        }
      ],
      "name": "revokeRole",
      "outputs": [],
      "stateMutability": "nonpayable",
      "type": "function"
    },
    {
      "inputs": [],
      "name": "rinkebyUSDCAddress",
      "outputs": [
        {
          "internalType": "address",
          "name": "",
          "type": "address"
        }
      ],
      "stateMutability": "view",
      "type": "function"
    },
    {
      "inputs": [],
      "name": "setLeagueEntryIsClosed",
      "outputs": [],
      "stateMutability": "nonpayable",
      "type": "function"
    },
    {
      "inputs": [],
      "name": "setLeagueSchedule",
      "outputs": [],
      "stateMutability": "nonpayable",
      "type": "function"
    },
    {
      "inputs": [
        {
          "internalType": "uint256[]",
          "name": "athleteIds",
          "type": "uint256[]"
        }
      ],
      "name": "setLineup",
      "outputs": [],
      "stateMutability": "nonpayable",
      "type": "function"
    },
    {
      "inputs": [],
      "name": "stakeAmount",
      "outputs": [
        {
          "internalType": "uint256",
          "name": "",
          "type": "uint256"
        }
      ],
      "stateMutability": "view",
      "type": "function"
    },
    {
      "inputs": [
        {
          "internalType": "bytes4",
          "name": "interfaceId",
          "type": "bytes4"
        }
      ],
      "name": "supportsInterface",
      "outputs": [
        {
          "internalType": "bool",
          "name": "",
          "type": "bool"
        }
      ],
      "stateMutability": "view",
      "type": "function"
    },
    {
      "inputs": [
        {
          "internalType": "address",
          "name": "newOwner",
          "type": "address"
        }
      ],
      "name": "transferOwnership",
      "outputs": [],
      "stateMutability": "nonpayable",
      "type": "function"
    },
    {
      "inputs": [],
      "name": "unlockLineup",
      "outputs": [],
      "stateMutability": "nonpayable",
      "type": "function"
    },
    {
      "inputs": [
        {
          "internalType": "address",
          "name": "",
          "type": "address"
        },
        {
          "internalType": "uint256",
          "name": "",
          "type": "uint256"
        }
      ],
      "name": "userToRecord",
      "outputs": [
        {
          "internalType": "uint256",
          "name": "",
          "type": "uint256"
        }
      ],
      "stateMutability": "view",
      "type": "function"
    },
    {
      "inputs": [],
      "name": "version",
      "outputs": [
        {
          "internalType": "uint256",
          "name": "",
          "type": "uint256"
        }
      ],
      "stateMutability": "view",
      "type": "function"
    },
    {
      "inputs": [
        {
          "internalType": "address",
          "name": "",
          "type": "address"
        }
      ],
      "name": "whitelist",
      "outputs": [
        {
          "internalType": "bool",
          "name": "",
          "type": "bool"
        }
      ],
      "stateMutability": "view",
      "type": "function"
    }
  ],
  "bytecode": "0x60806040523480156200001157600080fd5b5062000032620000266200003860201b60201c565b6200004060201b60201c565b62000105565b600033905090565b60008060029054906101000a900473ffffffffffffffffffffffffffffffffffffffff16905081600060026101000a81548173ffffffffffffffffffffffffffffffffffffffff021916908373ffffffffffffffffffffffffffffffffffffffff1602179055508173ffffffffffffffffffffffffffffffffffffffff168173ffffffffffffffffffffffffffffffffffffffff167f8be0079c531659141344cd1fd0a4f28419497f9722a3daafe3b4186f6b6457e060405160405180910390a35050565b617c2080620001156000396000f3fe60806040523480156200001157600080fd5b50600436106200028b5760003560e01c80637b9417c81162000165578063a2bc091a11620000d5578063dc9a15351162000093578063dc9a1535146200075a578063e2ec6ec3146200077c578063e4c9066b14620007b2578063f2fde38b14620007be578063f612121a14620007de578063f881604514620007fe576200028b565b8063a2bc091a14620006f4578063ada3a28d1462000700578063c8be3b5b1462000722578063c99fea94146200072e578063d547741f146200073a576200028b565b806393f3706c116200012357806393f3706c146200063857806399a60034146200065a5780639b19251a146200067c5780639f2d548114620006b2578063a217fddf14620006d2576200028b565b80637b9417c814620005665780637eed33f1146200059c578063841abf6e14620005be5780638da5cb5b14620005e057806391d148541462000602576200028b565b80632f2ff15d116200020157806360c7dc4711620001bf57806360c7dc4714620004d45780636802471714620004f6578063715018a6146200052c578063722580b614620005385780637ac6aa1d146200055a576200028b565b80632f2ff15d146200042e57806336568abe146200044e578063403570c5146200046e57806352e6e5f3146200049057806354fd4d5014620004b2576200028b565b8063248a9ca3116200024f578063248a9ca3146200034a57806324953eaa1462000380578063267175db14620003b6578063286dd3f514620003ec5780632cf0a1fc1462000422576200028b565b8062b2476f146200029057806301ffc9a714620002b25780630655465a14620002e85780630bdcd5f014620002f45780630c6f79591462000314575b600080fd5b6200029a62000820565b604051620002a9919062003810565b60405180910390f35b620002d06004803603810190620002ca9190620031d1565b62000846565b604051620002df919062003989565b60405180910390f35b620002f2620008c3565b005b6200031260048036038101906200030c919062003203565b62000d06565b005b6200033260048036038101906200032c91906200300a565b62001105565b60405162000341919062003af7565b60405180910390f35b62000368600480360381019062000362919062003158565b6200112e565b604051620003779190620039a6565b60405180910390f35b6200039e600480360381019062000398919062003051565b6200114e565b604051620003ad919062003989565b60405180910390f35b620003d46004803603810190620003ce919062003306565b6200124b565b604051620003e3919062003810565b60405180910390f35b6200040a600480360381019062000404919062002f91565b6200128b565b60405162000419919062003989565b60405180910390f35b6200042c6200141a565b005b6200044c60048036038101906200044691906200318a565b62001438565b005b6200046c60048036038101906200046691906200318a565b62001469565b005b62000478620014f3565b604051620004879190620039c3565b60405180910390f35b6200049a6200158d565b604051620004a9919062003af7565b60405180910390f35b620004bc62001593565b604051620004cb919062003af7565b60405180910390f35b620004de62001599565b604051620004ed919062003af7565b60405180910390f35b6200051460048036038101906200050e919062002f91565b6200159f565b60405162000523919062003af7565b60405180910390f35b6200053662001637565b005b62000542620016c8565b60405162000551919062003af7565b60405180910390f35b62000564620016cd565b005b6200058460048036038101906200057e919062002f91565b62001740565b60405162000593919062003989565b60405180910390f35b620005a6620018ce565b604051620005b5919062003af7565b60405180910390f35b620005c8620018d4565b604051620005d79190620039c3565b60405180910390f35b620005ea6200196a565b604051620005f9919062003810565b60405180910390f35b6200062060048036038101906200061a91906200318a565b62001993565b6040516200062f919062003989565b60405180910390f35b62000642620019fe565b60405162000651919062003810565b60405180910390f35b6200066462001a24565b60405162000673919062003af7565b60405180910390f35b6200069a600480360381019062000694919062002f91565b62001a40565b604051620006a9919062003989565b60405180910390f35b620006d06004803603810190620006ca919062003306565b62001a60565b005b620006dc62001b1f565b604051620006eb9190620039a6565b60405180910390f35b620006fe62001b26565b005b6200070a62001bc6565b60405162000719919062003965565b60405180910390f35b6200072c62001c5d565b005b6200073862001cfd565b005b6200075860048036038101906200075291906200318a565b62001e54565b005b6200076462001e85565b60405162000773919062003989565b60405180910390f35b6200079a600480360381019062000794919062003051565b62001e98565b604051620007a9919062003989565b60405180910390f35b620007bc62001f95565b005b620007dc6004803603810190620007d6919062002f91565b62002035565b005b620007fc6004803603810190620007f69190620030d5565b62002139565b005b62000808620021e5565b60405162000817919062003897565b60405180910390f35b601260009054906101000a900473ffffffffffffffffffffffffffffffffffffffff1681565b60007f7965db0b000000000000000000000000000000000000000000000000000000007bffffffffffffffffffffffffffffffffffffffffffffffffffffffff1916827bffffffffffffffffffffffffffffffffffffffffffffffffffffffff19161480620008bc5750620008bb8262002271565b5b9050919050565b620008cd620022db565b73ffffffffffffffffffffffffffffffffffffffff16620008ed6200196a565b73ffffffffffffffffffffffffffffffffffffffff161462000946576040517f08c379a00000000000000000000000000000000000000000000000000000000081526004016200093d9062003a91565b60405180910390fd5b620009866040518060400160405280601081526020017f73657474696e67207363686564756c6500000000000000000000000000000000815250620022e3565b6200099062002b3b565b60005b60075481101562000d0257620009de6040518060400160405280600181526020017f0a00000000000000000000000000000000000000000000000000000000000000815250620022e3565b620009e98162002380565b62000a296040518060400160405280601881526020017f2a2a2a2a2a2a2a2a2a2a2a2a2a2a2a2a2a2a2a2a2a2a2a2a0000000000000000815250620022e3565b601660009054906101000a900473ffffffffffffffffffffffffffffffffffffffff1673ffffffffffffffffffffffffffffffffffffffff1663b52aa76e836009805490508460066040518563ffffffff1660e01b815260040162000a9294939291906200390d565b61010060405180830381600087803b15801562000aae57600080fd5b505af115801562000ac3573d6000803e3d6000fd5b505050506040513d601f19601f8201168201806040525081019062000ae99190620030a2565b915060005b600481101562000ceb57601660009054906101000a900473ffffffffffffffffffffffffffffffffffffffff1673ffffffffffffffffffffffffffffffffffffffff1663f4acfcb884600985856040518563ffffffff1660e01b815260040162000b5c9493929190620038b5565b6040805180830381600087803b15801562000b7657600080fd5b505af115801562000b8b573d6000803e3d6000fd5b505050506040513d601f19601f8201168201806040525081019062000bb1919062002fc3565b60106000858152602001908152602001600020838154811062000bd95762000bd862003fd8565b5b906000526020600020906002020160000160006002811062000c005762000bff62003fd8565b5b01600060106000878152602001908152602001600020858154811062000c2b5762000c2a62003fd8565b5b906000526020600020906002020160000160016002811062000c525762000c5162003fd8565b5b0160008491906101000a81548173ffffffffffffffffffffffffffffffffffffffff021916908373ffffffffffffffffffffffffffffffffffffffff1602179055508391906101000a81548173ffffffffffffffffffffffffffffffffffffffff021916908373ffffffffffffffffffffffffffffffffffffffff1602179055505050808062000ce29062003f2c565b91505062000aee565b50808062000cf99062003f2c565b91505062000993565b5050565b600060019054906101000a900460ff1662000d305760008054906101000a900460ff161562000d3b565b62000d3a6200241d565b5b62000d7d576040517f08c379a000000000000000000000000000000000000000000000000000000000815260040162000d749062003a6f565b60405180910390fd5b60008060019054906101000a900460ff16159050801562000dce576001600060016101000a81548160ff02191690831515021790555060016000806101000a81548160ff0219169083151502179055505b886005819055508a8a6006919062000de892919062002b5e565b50600860078190555062000e006000801b8662002430565b6009859080600181540180825580915050600190039060005260206000200160009091909190916101000a81548173ffffffffffffffffffffffffffffffffffffffff021916908373ffffffffffffffffffffffffffffffffffffffff16021790555087600f8190555086600460006101000a81548160ff0219169083151502179055506000600d60016101000a81548160ff0219169083151502179055506000600d60006101000a81548160ff02191690831515021790555085601360006101000a81548173ffffffffffffffffffffffffffffffffffffffff021916908373ffffffffffffffffffffffffffffffffffffffff16021790555081601560006101000a81548173ffffffffffffffffffffffffffffffffffffffff021916908373ffffffffffffffffffffffffffffffffffffffff16021790555060405162000f4a9062002bef565b604051809103906000f08015801562000f67573d6000803e3d6000fd5b50601460006101000a81548173ffffffffffffffffffffffffffffffffffffffff021916908373ffffffffffffffffffffffffffffffffffffffff16021790555060405162000fb69062002bfd565b604051809103906000f08015801562000fd3573d6000803e3d6000fd5b50601660006101000a81548173ffffffffffffffffffffffffffffffffffffffff021916908373ffffffffffffffffffffffffffffffffffffffff16021790555083601160006101000a81548173ffffffffffffffffffffffffffffffffffffffff021916908373ffffffffffffffffffffffffffffffffffffffff16021790555082601260006101000a81548173ffffffffffffffffffffffffffffffffffffffff021916908373ffffffffffffffffffffffffffffffffffffffff160217905550620010d66040518060400160405280601281526020017f50726f787920696e697469616c697a6564210000000000000000000000000000815250620022e3565b8015620010f85760008060016101000a81548160ff0219169083151502179055505b5050505050505050505050565b600c60205281600052604060002081600881106200112257600080fd5b01600091509150505481565b600060016000838152602001908152602001600020600101549050919050565b60006200115a620022db565b73ffffffffffffffffffffffffffffffffffffffff166200117a6200196a565b73ffffffffffffffffffffffffffffffffffffffff1614620011d3576040517f08c379a0000000000000000000000000000000000000000000000000000000008152600401620011ca9062003a91565b60405180910390fd5b60005b8251811015620012455762001208838281518110620011fa57620011f962003fd8565b5b60200260200101516200128b565b156200122f5760016003600082825462001223919062003d62565b92505081905550600191505b80806200123c9062003f2c565b915050620011d6565b50919050565b600981815481106200125c57600080fd5b906000526020600020016000915054906101000a900473ffffffffffffffffffffffffffffffffffffffff1681565b600062001297620022db565b73ffffffffffffffffffffffffffffffffffffffff16620012b76200196a565b73ffffffffffffffffffffffffffffffffffffffff161462001310576040517f08c379a0000000000000000000000000000000000000000000000000000000008152600401620013079062003a91565b60405180910390fd5b600260008373ffffffffffffffffffffffffffffffffffffffff1673ffffffffffffffffffffffffffffffffffffffff16815260200190815260200160002060009054906101000a900460ff161562001415576000600260008473ffffffffffffffffffffffffffffffffffffffff1673ffffffffffffffffffffffffffffffffffffffff16815260200190815260200160002060006101000a81548160ff0219169083151502179055507ff1abf01a1043b7c244d128e8595cf0c1d10743b022b03a02dffd8ca3bf729f5a82604051620013ec919062003810565b60405180910390a160016003600082825462001409919062003d62565b92505081905550600190505b919050565b6001600560008282546200142f919062003ca4565b92505081905550565b62001443826200112e565b620014588162001452620022db565b62002440565b620014648383620024e8565b505050565b62001473620022db565b73ffffffffffffffffffffffffffffffffffffffff168173ffffffffffffffffffffffffffffffffffffffff1614620014e3576040517f08c379a0000000000000000000000000000000000000000000000000000000008152600401620014da9062003ad5565b60405180910390fd5b620014ef8282620025cd565b5050565b606060068054620015049062003ea2565b80601f0160208091040260200160405190810160405280929190818152602001828054620015329062003ea2565b8015620015835780601f10620015575761010080835404028352916020019162001583565b820191906000526020600020905b8154815290600101906020018083116200156557829003601f168201915b5050505050905090565b60085481565b60055481565b600f5481565b60008173ffffffffffffffffffffffffffffffffffffffff166370a08231306040518263ffffffff1660e01b8152600401620015dc919062003810565b60206040518083038186803b158015620015f557600080fd5b505afa1580156200160a573d6000803e3d6000fd5b505050506040513d601f19601f8201168201806040525081019062001630919062003338565b9050919050565b62001641620022db565b73ffffffffffffffffffffffffffffffffffffffff16620016616200196a565b73ffffffffffffffffffffffffffffffffffffffff1614620016ba576040517f08c379a0000000000000000000000000000000000000000000000000000000008152600401620016b19062003a91565b60405180910390fd5b620016c66000620026b4565b565b600090565b620016dc6000801b3362001993565b620016e657600080fd5b6001600260003373ffffffffffffffffffffffffffffffffffffffff1673ffffffffffffffffffffffffffffffffffffffff16815260200190815260200160002060006101000a81548160ff021916908315150217905550565b60006200174c620022db565b73ffffffffffffffffffffffffffffffffffffffff166200176c6200196a565b73ffffffffffffffffffffffffffffffffffffffff1614620017c5576040517f08c379a0000000000000000000000000000000000000000000000000000000008152600401620017bc9062003a91565b60405180910390fd5b600260008373ffffffffffffffffffffffffffffffffffffffff1673ffffffffffffffffffffffffffffffffffffffff16815260200190815260200160002060009054906101000a900460ff16620018c9576001600260008473ffffffffffffffffffffffffffffffffffffffff1673ffffffffffffffffffffffffffffffffffffffff16815260200190815260200160002060006101000a81548160ff0219169083151502179055507fd1bba68c128cc3f427e5831b3c6f99f480b6efa6b9e80c757768f6124158cc3f82604051620018a0919062003810565b60405180910390a1600160036000828254620018bd919062003ca4565b92505081905550600190505b919050565b60075481565b60068054620018e39062003ea2565b80601f0160208091040260200160405190810160405280929190818152602001828054620019119062003ea2565b8015620019625780601f10620019365761010080835404028352916020019162001962565b820191906000526020600020905b8154815290600101906020018083116200194457829003601f168201915b505050505081565b60008060029054906101000a900473ffffffffffffffffffffffffffffffffffffffff16905090565b60006001600084815260200190815260200160002060000160008373ffffffffffffffffffffffffffffffffffffffff1673ffffffffffffffffffffffffffffffffffffffff16815260200190815260200160002060009054906101000a900460ff16905092915050565b601160009054906101000a900473ffffffffffffffffffffffffffffffffffffffff1681565b6000600980549050600f5462001a3b919062003d01565b905090565b60026020528060005260406000206000915054906101000a900460ff1681565b62001a6a620022db565b73ffffffffffffffffffffffffffffffffffffffff1662001a8a6200196a565b73ffffffffffffffffffffffffffffffffffffffff161462001ae3576040517f08c379a000000000000000000000000000000000000000000000000000000000815260040162001ada9062003a91565b60405180910390fd5b60005b601060008381526020019081526020016000208054905081101562001b1b57808062001b129062003f2c565b91505062001ae6565b5050565b6000801b81565b62001b30620022db565b73ffffffffffffffffffffffffffffffffffffffff1662001b506200196a565b73ffffffffffffffffffffffffffffffffffffffff161462001ba9576040517f08c379a000000000000000000000000000000000000000000000000000000000815260040162001ba09062003a91565b60405180910390fd5b6000600d60016101000a81548160ff021916908315150217905550565b6060600e60003373ffffffffffffffffffffffffffffffffffffffff1673ffffffffffffffffffffffffffffffffffffffff16815260200190815260200160002080548060200260200160405190810160405280929190818152602001828054801562001c5357602002820191906000526020600020905b81548152602001906001019080831162001c3e575b5050505050905090565b62001c67620022db565b73ffffffffffffffffffffffffffffffffffffffff1662001c876200196a565b73ffffffffffffffffffffffffffffffffffffffff161462001ce0576040517f08c379a000000000000000000000000000000000000000000000000000000000815260040162001cd79062003a91565b60405180910390fd5b6001600d60016101000a81548160ff021916908315150217905550565b600260003373ffffffffffffffffffffffffffffffffffffffff1673ffffffffffffffffffffffffffffffffffffffff16815260200190815260200160002060009054906101000a900460ff168062001d625750600460009054906101000a900460ff165b62001d6c57600080fd5b600d60009054906101000a900460ff161562001dbf576040517f08c379a000000000000000000000000000000000000000000000000000000000815260040162001db69062003ab3565b60405180910390fd5b6009339080600181540180825580915050600190039060005260206000200160009091909190916101000a81548173ffffffffffffffffffffffffffffffffffffffff021916908373ffffffffffffffffffffffffffffffffffffffff16021790555062001e52601260009054906101000a900473ffffffffffffffffffffffffffffffffffffffff16600f5462002779565b565b62001e5f826200112e565b62001e748162001e6e620022db565b62002440565b62001e808383620025cd565b505050565b600460009054906101000a900460ff1681565b600062001ea4620022db565b73ffffffffffffffffffffffffffffffffffffffff1662001ec46200196a565b73ffffffffffffffffffffffffffffffffffffffff161462001f1d576040517f08c379a000000000000000000000000000000000000000000000000000000000815260040162001f149062003a91565b60405180910390fd5b60005b825181101562001f8f5762001f5283828151811062001f445762001f4362003fd8565b5b602002602001015162001740565b1562001f795760016003600082825462001f6d919062003ca4565b92505081905550600191505b808062001f869062003f2c565b91505062001f20565b50919050565b62001f9f620022db565b73ffffffffffffffffffffffffffffffffffffffff1662001fbf6200196a565b73ffffffffffffffffffffffffffffffffffffffff161462002018576040517f08c379a00000000000000000000000000000000000000000000000000000000081526004016200200f9062003a91565b60405180910390fd5b6001600d60006101000a81548160ff021916908315150217905550565b6200203f620022db565b73ffffffffffffffffffffffffffffffffffffffff166200205f6200196a565b73ffffffffffffffffffffffffffffffffffffffff1614620020b8576040517f08c379a0000000000000000000000000000000000000000000000000000000008152600401620020af9062003a91565b60405180910390fd5b600073ffffffffffffffffffffffffffffffffffffffff168173ffffffffffffffffffffffffffffffffffffffff1614156200212b576040517f08c379a0000000000000000000000000000000000000000000000000000000008152600401620021229062003a09565b60405180910390fd5b6200213681620026b4565b50565b600d60019054906101000a900460ff16156200218c576040517f08c379a0000000000000000000000000000000000000000000000000000000008152600401620021839062003a4d565b60405180910390fd5b80600e60003373ffffffffffffffffffffffffffffffffffffffff1673ffffffffffffffffffffffffffffffffffffffff1681526020019081526020016000209080519060200190620021e192919062002c0b565b5050565b620021ef62002b3b565b600c60003373ffffffffffffffffffffffffffffffffffffffff1673ffffffffffffffffffffffffffffffffffffffff16815260200190815260200160002060088060200260405190810160405280929190826008801562002267576020028201915b81548152602001906001019080831162002252575b5050505050905090565b60007f01ffc9a7000000000000000000000000000000000000000000000000000000007bffffffffffffffffffffffffffffffffffffffffffffffffffffffff1916827bffffffffffffffffffffffffffffffffffffffffffffffffffffffff1916149050919050565b600033905090565b6200237d81604051602401620022fa9190620039c3565b6040516020818303038152906040527f41304fac000000000000000000000000000000000000000000000000000000007bffffffffffffffffffffffffffffffffffffffffffffffffffffffff19166020820180517bffffffffffffffffffffffffffffffffffffffffffffffffffffffff838183161783525050505062002894565b50565b6200241a8160405160240162002397919062003af7565b6040516020818303038152906040527ff5b1bba9000000000000000000000000000000000000000000000000000000007bffffffffffffffffffffffffffffffffffffffffffffffffffffffff19166020820180517bffffffffffffffffffffffffffffffffffffffffffffffffffffffff838183161783525050505062002894565b50565b60006200242a30620028bd565b15905090565b6200243c8282620024e8565b5050565b6200244c828262001993565b620024e457620024748173ffffffffffffffffffffffffffffffffffffffff166014620028e0565b620024848360001c6020620028e0565b60405160200162002497929190620037ce565b6040516020818303038152906040526040517f08c379a0000000000000000000000000000000000000000000000000000000008152600401620024db9190620039c3565b60405180910390fd5b5050565b620024f4828262001993565b620025c957600180600084815260200190815260200160002060000160008373ffffffffffffffffffffffffffffffffffffffff1673ffffffffffffffffffffffffffffffffffffffff16815260200190815260200160002060006101000a81548160ff0219169083151502179055506200256e620022db565b73ffffffffffffffffffffffffffffffffffffffff168173ffffffffffffffffffffffffffffffffffffffff16837f2f8788117e7eff1d82e926ec794901d17c78024a50270940304540a733656f0d60405160405180910390a45b5050565b620025d9828262001993565b15620026b05760006001600084815260200190815260200160002060000160008373ffffffffffffffffffffffffffffffffffffffff1673ffffffffffffffffffffffffffffffffffffffff16815260200190815260200160002060006101000a81548160ff02191690831515021790555062002655620022db565b73ffffffffffffffffffffffffffffffffffffffff168173ffffffffffffffffffffffffffffffffffffffff16837ff6391f5c32d9c69d2a47ea670b442974b53935d1edc7fd64eb21e047a839171b60405160405180910390a45b5050565b60008060029054906101000a900473ffffffffffffffffffffffffffffffffffffffff16905081600060026101000a81548173ffffffffffffffffffffffffffffffffffffffff021916908373ffffffffffffffffffffffffffffffffffffffff1602179055508173ffffffffffffffffffffffffffffffffffffffff168173ffffffffffffffffffffffffffffffffffffffff167f8be0079c531659141344cd1fd0a4f28419497f9722a3daafe3b4186f6b6457e060405160405180910390a35050565b60008111620027bf576040517f08c379a0000000000000000000000000000000000000000000000000000000008152600401620027b69062003a2b565b60405180910390fd5b8173ffffffffffffffffffffffffffffffffffffffff166323b872dd3330846040518463ffffffff1660e01b8152600401620027fe939291906200382d565b602060405180830381600087803b1580156200281957600080fd5b505af11580156200282e573d6000803e3d6000fd5b505050506040513d601f19601f8201168201806040525081019062002854919062003126565b507f9e71bc8eea02a63969f509818f2dafb9254532904319f9dbda79b67bd34a5f3d3382604051620028889291906200386a565b60405180910390a15050565b60008151905060006a636f6e736f6c652e6c6f679050602083016000808483855afa5050505050565b6000808273ffffffffffffffffffffffffffffffffffffffff163b119050919050565b606060006002836002620028f5919062003d01565b62002901919062003ca4565b67ffffffffffffffff8111156200291d576200291c62004007565b5b6040519080825280601f01601f191660200182016040528015620029505781602001600182028036833780820191505090505b5090507f3000000000000000000000000000000000000000000000000000000000000000816000815181106200298b576200298a62003fd8565b5b60200101907effffffffffffffffffffffffffffffffffffffffffffffffffffffffffffff1916908160001a9053507f780000000000000000000000000000000000000000000000000000000000000081600181518110620029f257620029f162003fd8565b5b60200101907effffffffffffffffffffffffffffffffffffffffffffffffffffffffffffff1916908160001a9053506000600184600262002a34919062003d01565b62002a40919062003ca4565b90505b600181111562002aea577f3031323334353637383961626364656600000000000000000000000000000000600f86166010811062002a865762002a8562003fd8565b5b1a60f81b82828151811062002aa05762002a9f62003fd8565b5b60200101907effffffffffffffffffffffffffffffffffffffffffffffffffffffffffffff1916908160001a905350600485901c94508062002ae29062003e73565b905062002a43565b506000841462002b31576040517f08c379a000000000000000000000000000000000000000000000000000000000815260040162002b2890620039e7565b60405180910390fd5b8091505092915050565b604051806101000160405280600890602082028036833780820191505090505090565b82805462002b6c9062003ea2565b90600052602060002090601f01602090048101928262002b90576000855562002bdc565b82601f1062002bab57803560ff191683800117855562002bdc565b8280016001018555821562002bdc579182015b8281111562002bdb57823582559160200191906001019062002bbe565b5b50905062002beb919062002c5d565b5090565b610f9f806200431183390190565b61293b80620052b083390190565b82805482825590600052602060002090810192821562002c4a579160200282015b8281111562002c4957825182559160200191906001019062002c2c565b5b50905062002c59919062002c5d565b5090565b5b8082111562002c7857600081600090555060010162002c5e565b5090565b600062002c9362002c8d8462003b3d565b62003b14565b9050808382526020820190508285602086028201111562002cb95762002cb862004055565b5b60005b8581101562002ced578162002cd2888262002de4565b84526020840193506020830192505060018101905062002cbc565b5050509392505050565b600062002d0e62002d088462003b6c565b62003b14565b9050808285602086028201111562002d2b5762002d2a62004055565b5b60005b8581101562002d5f578162002d44888262002f7a565b84526020840193506020830192505060018101905062002d2e565b5050509392505050565b600062002d8062002d7a8462003b95565b62003b14565b9050808382526020820190508285602086028201111562002da65762002da562004055565b5b60005b8581101562002dda578162002dbf888262002f63565b84526020840193506020830192505060018101905062002da9565b5050509392505050565b60008135905062002df5816200428e565b92915050565b60008151905062002e0c816200428e565b92915050565b600082601f83011262002e2a5762002e2962004050565b5b813562002e3c84826020860162002c7c565b91505092915050565b600082601f83011262002e5d5762002e5c62004050565b5b600862002e6c84828562002cf7565b91505092915050565b600082601f83011262002e8d5762002e8c62004050565b5b813562002e9f84826020860162002d69565b91505092915050565b60008135905062002eb981620042a8565b92915050565b60008151905062002ed081620042a8565b92915050565b60008135905062002ee781620042c2565b92915050565b60008135905062002efe81620042dc565b92915050565b60008083601f84011262002f1d5762002f1c62004050565b5b8235905067ffffffffffffffff81111562002f3d5762002f3c6200404b565b5b60208301915083600182028301111562002f5c5762002f5b62004055565b5b9250929050565b60008135905062002f7481620042f6565b92915050565b60008151905062002f8b81620042f6565b92915050565b60006020828403121562002faa5762002fa96200405f565b5b600062002fba8482850162002de4565b91505092915050565b6000806040838503121562002fdd5762002fdc6200405f565b5b600062002fed8582860162002dfb565b9250506020620030008582860162002dfb565b9150509250929050565b600080604083850312156200302457620030236200405f565b5b6000620030348582860162002de4565b9250506020620030478582860162002f63565b9150509250929050565b6000602082840312156200306a57620030696200405f565b5b600082013567ffffffffffffffff8111156200308b576200308a6200405a565b5b620030998482850162002e12565b91505092915050565b60006101008284031215620030bc57620030bb6200405f565b5b6000620030cc8482850162002e45565b91505092915050565b600060208284031215620030ee57620030ed6200405f565b5b600082013567ffffffffffffffff8111156200310f576200310e6200405a565b5b6200311d8482850162002e75565b91505092915050565b6000602082840312156200313f576200313e6200405f565b5b60006200314f8482850162002ebf565b91505092915050565b6000602082840312156200317157620031706200405f565b5b6000620031818482850162002ed6565b91505092915050565b60008060408385031215620031a457620031a36200405f565b5b6000620031b48582860162002ed6565b9250506020620031c78582860162002de4565b9150509250929050565b600060208284031215620031ea57620031e96200405f565b5b6000620031fa8482850162002eed565b91505092915050565b6000806000806000806000806000806101208b8d0312156200322a57620032296200405f565b5b60008b013567ffffffffffffffff8111156200324b576200324a6200405a565b5b620032598d828e0162002f04565b9a509a505060206200326e8d828e0162002f63565b9850506040620032818d828e0162002f63565b9750506060620032948d828e0162002ea8565b9650506080620032a78d828e0162002de4565b95505060a0620032ba8d828e0162002de4565b94505060c0620032cd8d828e0162002de4565b93505060e0620032e08d828e0162002de4565b925050610100620032f48d828e0162002de4565b9150509295989b9194979a5092959850565b6000602082840312156200331f576200331e6200405f565b5b60006200332f8482850162002f63565b91505092915050565b6000602082840312156200335157620033506200405f565b5b6000620033618482850162002f7a565b91505092915050565b60006200337883836200339e565b60208301905092915050565b6000620033928383620037ac565b60208301905092915050565b620033a98162003dbd565b82525050565b620033ba8162003dbd565b82525050565b6000620033cd8262003c08565b620033d9818562003c5b565b9350620033e68362003bc4565b8060005b838110156200342657620033fe8262004036565b6200340a88826200336a565b9750620034178362003c34565b925050600181019050620033ea565b5085935050505092915050565b6200343e8162003c13565b6200344a818462003c6c565b9250620034578262003bd9565b8060005b838110156200348e57815162003472878262003384565b96506200347f8362003c41565b9250506001810190506200345b565b505050505050565b6000620034a38262003c1e565b620034af818562003c77565b9350620034bc8362003be3565b8060005b83811015620034f3578151620034d7888262003384565b9750620034e48362003c4e565b925050600181019050620034c0565b5085935050505092915050565b6200350b8162003dd1565b82525050565b6200351c8162003ddd565b82525050565b60006200352f8262003c29565b6200353b818562003c88565b93506200354d81856020860162003e3d565b620035588162004064565b840191505092915050565b6000620035708262003c29565b6200357c818562003c99565b93506200358e81856020860162003e3d565b80840191505092915050565b60008154620035a98162003ea2565b620035b5818662003c88565b94506001821660008114620035d35760018114620035e6576200361d565b60ff19831686526020860193506200361d565b620035f18562003bf3565b60005b838110156200361557815481890152600182019150602081019050620035f4565b808801955050505b50505092915050565b60006200363560208362003c88565b9150620036428262004082565b602082019050919050565b60006200365c60268362003c88565b91506200366982620040ab565b604082019050919050565b600062003683600e8362003c88565b91506200369082620040fa565b602082019050919050565b6000620036aa601e8362003c88565b9150620036b78262004123565b602082019050919050565b6000620036d1602e8362003c88565b9150620036de826200414c565b604082019050919050565b6000620036f860208362003c88565b915062003705826200419b565b602082019050919050565b60006200371f60178362003c99565b91506200372c82620041c4565b601782019050919050565b60006200374660178362003c88565b91506200375382620041ed565b602082019050919050565b60006200376d60118362003c99565b91506200377a8262004216565b601182019050919050565b600062003794602f8362003c88565b9150620037a1826200423f565b604082019050919050565b620037b78162003e33565b82525050565b620037c88162003e33565b82525050565b6000620037db8262003710565b9150620037e9828562003563565b9150620037f6826200375e565b915062003804828462003563565b91508190509392505050565b6000602082019050620038276000830184620033af565b92915050565b6000606082019050620038446000830186620033af565b620038536020830185620033af565b620038626040830184620037bd565b949350505050565b6000604082019050620038816000830185620033af565b620038906020830184620037bd565b9392505050565b600061010082019050620038af600083018462003433565b92915050565b600061016082019050620038cd600083018762003433565b818103610100830152620038e28186620033c0565b9050620038f4610120830185620037bd565b62003904610140830184620037bd565b95945050505050565b60006101608201905062003925600083018762003433565b62003935610100830186620037bd565b62003945610120830185620037bd565b8181036101408301526200395a81846200359a565b905095945050505050565b6000602082019050818103600083015262003981818462003496565b905092915050565b6000602082019050620039a0600083018462003500565b92915050565b6000602082019050620039bd600083018462003511565b92915050565b60006020820190508181036000830152620039df818462003522565b905092915050565b6000602082019050818103600083015262003a028162003626565b9050919050565b6000602082019050818103600083015262003a24816200364d565b9050919050565b6000602082019050818103600083015262003a468162003674565b9050919050565b6000602082019050818103600083015262003a68816200369b565b9050919050565b6000602082019050818103600083015262003a8a81620036c2565b9050919050565b6000602082019050818103600083015262003aac81620036e9565b9050919050565b6000602082019050818103600083015262003ace8162003737565b9050919050565b6000602082019050818103600083015262003af08162003785565b9050919050565b600060208201905062003b0e6000830184620037bd565b92915050565b600062003b2062003b33565b905062003b2e828262003ef6565b919050565b6000604051905090565b600067ffffffffffffffff82111562003b5b5762003b5a62004007565b5b602082029050602081019050919050565b600067ffffffffffffffff82111562003b8a5762003b8962004007565b5b602082029050919050565b600067ffffffffffffffff82111562003bb35762003bb262004007565b5b602082029050602081019050919050565b60008190508160005260206000209050919050565b6000819050919050565b6000819050602082019050919050565b60008190508160005260206000209050919050565b600081549050919050565b600060089050919050565b600081519050919050565b600081519050919050565b6000600182019050919050565b6000602082019050919050565b6000602082019050919050565b600082825260208201905092915050565b600081905092915050565b600082825260208201905092915050565b600082825260208201905092915050565b600081905092915050565b600062003cb18262003e33565b915062003cbe8362003e33565b9250827fffffffffffffffffffffffffffffffffffffffffffffffffffffffffffffffff0382111562003cf65762003cf562003f7a565b5b828201905092915050565b600062003d0e8262003e33565b915062003d1b8362003e33565b9250817fffffffffffffffffffffffffffffffffffffffffffffffffffffffffffffffff048311821515161562003d575762003d5662003f7a565b5b828202905092915050565b600062003d6f8262003e33565b915062003d7c8362003e33565b92508282101562003d925762003d9162003f7a565b5b828203905092915050565b600073ffffffffffffffffffffffffffffffffffffffff82169050919050565b600062003dca8262003e13565b9050919050565b60008115159050919050565b6000819050919050565b60007fffffffff0000000000000000000000000000000000000000000000000000000082169050919050565b600073ffffffffffffffffffffffffffffffffffffffff82169050919050565b6000819050919050565b60005b8381101562003e5d57808201518184015260208101905062003e40565b8381111562003e6d576000848401525b50505050565b600062003e808262003e33565b9150600082141562003e975762003e9662003f7a565b5b600182039050919050565b6000600282049050600182168062003ebb57607f821691505b6020821081141562003ed25762003ed162003fa9565b5b50919050565b600062003eef62003ee98362004075565b62003d9d565b9050919050565b62003f018262004064565b810181811067ffffffffffffffff8211171562003f235762003f2262004007565b5b80604052505050565b600062003f398262003e33565b91507fffffffffffffffffffffffffffffffffffffffffffffffffffffffffffffffff82141562003f6f5762003f6e62003f7a565b5b600182019050919050565b7f4e487b7100000000000000000000000000000000000000000000000000000000600052601160045260246000fd5b7f4e487b7100000000000000000000000000000000000000000000000000000000600052602260045260246000fd5b7f4e487b7100000000000000000000000000000000000000000000000000000000600052603260045260246000fd5b7f4e487b7100000000000000000000000000000000000000000000000000000000600052604160045260246000fd5b600062004044825462003ed8565b9050919050565b600080fd5b600080fd5b600080fd5b600080fd5b600080fd5b6000601f19601f8301169050919050565b60008160001c9050919050565b7f537472696e67733a20686578206c656e67746820696e73756666696369656e74600082015250565b7f4f776e61626c653a206e6577206f776e657220697320746865207a65726f206160008201527f6464726573730000000000000000000000000000000000000000000000000000602082015250565b7f43616e6e6f74207374616b652030000000000000000000000000000000000000600082015250565b7f6c696e657570206973206c6f636b656420666f7220746865207765656b210000600082015250565b7f496e697469616c697a61626c653a20636f6e747261637420697320616c72656160008201527f647920696e697469616c697a6564000000000000000000000000000000000000602082015250565b7f4f776e61626c653a2063616c6c6572206973206e6f7420746865206f776e6572600082015250565b7f416363657373436f6e74726f6c3a206163636f756e7420000000000000000000600082015250565b7f4c656167756520456e74727920697320436c6f73656421000000000000000000600082015250565b7f206973206d697373696e6720726f6c6520000000000000000000000000000000600082015250565b7f416363657373436f6e74726f6c3a2063616e206f6e6c792072656e6f756e636560008201527f20726f6c657320666f722073656c660000000000000000000000000000000000602082015250565b620042998162003dbd565b8114620042a557600080fd5b50565b620042b38162003dd1565b8114620042bf57600080fd5b50565b620042cd8162003ddd565b8114620042d957600080fd5b50565b620042e78162003de7565b8114620042f357600080fd5b50565b620043018162003e33565b81146200430d57600080fd5b5056fe608060405234801561001057600080fd5b5061002d61002261003260201b60201c565b61003a60201b60201c565b6100fe565b600033905090565b60008060009054906101000a900473ffffffffffffffffffffffffffffffffffffffff169050816000806101000a81548173ffffffffffffffffffffffffffffffffffffffff021916908373ffffffffffffffffffffffffffffffffffffffff1602179055508173ffffffffffffffffffffffffffffffffffffffff168173ffffffffffffffffffffffffffffffffffffffff167f8be0079c531659141344cd1fd0a4f28419497f9722a3daafe3b4186f6b6457e060405160405180910390a35050565b610e928061010d6000396000f3fe608060405234801561001057600080fd5b50600436106100935760003560e01c80638da5cb5b116100665780638da5cb5b146101325780639b19251a14610150578063dc9a153514610180578063e2ec6ec31461019e578063f2fde38b146101ce57610093565b806324953eaa14610098578063286dd3f5146100c8578063715018a6146100f85780637b9417c814610102575b600080fd5b6100b260048036038101906100ad9190610a4a565b6101ea565b6040516100bf9190610b12565b60405180910390f35b6100e260048036038101906100dd9190610a1d565b6102d4565b6040516100ef9190610b12565b60405180910390f35b610100610457565b005b61011c60048036038101906101179190610a1d565b6104df565b6040516101299190610b12565b60405180910390f35b61013a610660565b6040516101479190610af7565b60405180910390f35b61016a60048036038101906101659190610a1d565b610689565b6040516101779190610b12565b60405180910390f35b6101886106a9565b6040516101959190610b12565b60405180910390f35b6101b860048036038101906101b39190610a4a565b6106bc565b6040516101c59190610b12565b60405180910390f35b6101e860048036038101906101e39190610a1d565b6107a6565b005b60006101f461089e565b73ffffffffffffffffffffffffffffffffffffffff16610212610660565b73ffffffffffffffffffffffffffffffffffffffff1614610268576040517f08c379a000000000000000000000000000000000000000000000000000000000815260040161025f90610b4d565b60405180910390fd5b60005b82518110156102ce5761029783828151811061028a57610289610d4a565b5b60200260200101516102d4565b156102bb576001600260008282546102af9190610c25565b92505081905550600191505b80806102c690610cd2565b91505061026b565b50919050565b60006102de61089e565b73ffffffffffffffffffffffffffffffffffffffff166102fc610660565b73ffffffffffffffffffffffffffffffffffffffff1614610352576040517f08c379a000000000000000000000000000000000000000000000000000000000815260040161034990610b4d565b60405180910390fd5b600160008373ffffffffffffffffffffffffffffffffffffffff1673ffffffffffffffffffffffffffffffffffffffff16815260200190815260200160002060009054906101000a900460ff1615610452576000600160008473ffffffffffffffffffffffffffffffffffffffff1673ffffffffffffffffffffffffffffffffffffffff16815260200190815260200160002060006101000a81548160ff0219169083151502179055507ff1abf01a1043b7c244d128e8595cf0c1d10743b022b03a02dffd8ca3bf729f5a8260405161042b9190610af7565b60405180910390a16001600260008282546104469190610c25565b92505081905550600190505b919050565b61045f61089e565b73ffffffffffffffffffffffffffffffffffffffff1661047d610660565b73ffffffffffffffffffffffffffffffffffffffff16146104d3576040517f08c379a00000000000000000000000000000000000000000000000000000000081526004016104ca90610b4d565b60405180910390fd5b6104dd60006108a6565b565b60006104e961089e565b73ffffffffffffffffffffffffffffffffffffffff16610507610660565b73ffffffffffffffffffffffffffffffffffffffff161461055d576040517f08c379a000000000000000000000000000000000000000000000000000000000815260040161055490610b4d565b60405180910390fd5b600160008373ffffffffffffffffffffffffffffffffffffffff1673ffffffffffffffffffffffffffffffffffffffff16815260200190815260200160002060009054906101000a900460ff1661065b5760018060008473ffffffffffffffffffffffffffffffffffffffff1673ffffffffffffffffffffffffffffffffffffffff16815260200190815260200160002060006101000a81548160ff0219169083151502179055507fd1bba68c128cc3f427e5831b3c6f99f480b6efa6b9e80c757768f6124158cc3f826040516106349190610af7565b60405180910390a160016002600082825461064f9190610bcf565b92505081905550600190505b919050565b60008060009054906101000a900473ffffffffffffffffffffffffffffffffffffffff16905090565b60016020528060005260406000206000915054906101000a900460ff1681565b600360009054906101000a900460ff1681565b60006106c661089e565b73ffffffffffffffffffffffffffffffffffffffff166106e4610660565b73ffffffffffffffffffffffffffffffffffffffff161461073a576040517f08c379a000000000000000000000000000000000000000000000000000000000815260040161073190610b4d565b60405180910390fd5b60005b82518110156107a05761076983828151811061075c5761075b610d4a565b5b60200260200101516104df565b1561078d576001600260008282546107819190610bcf565b92505081905550600191505b808061079890610cd2565b91505061073d565b50919050565b6107ae61089e565b73ffffffffffffffffffffffffffffffffffffffff166107cc610660565b73ffffffffffffffffffffffffffffffffffffffff1614610822576040517f08c379a000000000000000000000000000000000000000000000000000000000815260040161081990610b4d565b60405180910390fd5b600073ffffffffffffffffffffffffffffffffffffffff168173ffffffffffffffffffffffffffffffffffffffff161415610892576040517f08c379a000000000000000000000000000000000000000000000000000000000815260040161088990610b2d565b60405180910390fd5b61089b816108a6565b50565b600033905090565b60008060009054906101000a900473ffffffffffffffffffffffffffffffffffffffff169050816000806101000a81548173ffffffffffffffffffffffffffffffffffffffff021916908373ffffffffffffffffffffffffffffffffffffffff1602179055508173ffffffffffffffffffffffffffffffffffffffff168173ffffffffffffffffffffffffffffffffffffffff167f8be0079c531659141344cd1fd0a4f28419497f9722a3daafe3b4186f6b6457e060405160405180910390a35050565b600061097d61097884610b92565b610b6d565b905080838252602082019050828560208602820111156109a05761099f610dad565b5b60005b858110156109d057816109b688826109da565b8452602084019350602083019250506001810190506109a3565b5050509392505050565b6000813590506109e981610e45565b92915050565b600082601f830112610a0457610a03610da8565b5b8135610a1484826020860161096a565b91505092915050565b600060208284031215610a3357610a32610db7565b5b6000610a41848285016109da565b91505092915050565b600060208284031215610a6057610a5f610db7565b5b600082013567ffffffffffffffff811115610a7e57610a7d610db2565b5b610a8a848285016109ef565b91505092915050565b610a9c81610c59565b82525050565b610aab81610c6b565b82525050565b6000610abe602683610bbe565b9150610ac982610dcd565b604082019050919050565b6000610ae1602083610bbe565b9150610aec82610e1c565b602082019050919050565b6000602082019050610b0c6000830184610a93565b92915050565b6000602082019050610b276000830184610aa2565b92915050565b60006020820190508181036000830152610b4681610ab1565b9050919050565b60006020820190508181036000830152610b6681610ad4565b9050919050565b6000610b77610b88565b9050610b838282610ca1565b919050565b6000604051905090565b600067ffffffffffffffff821115610bad57610bac610d79565b5b602082029050602081019050919050565b600082825260208201905092915050565b6000610bda82610c97565b9150610be583610c97565b9250827fffffffffffffffffffffffffffffffffffffffffffffffffffffffffffffffff03821115610c1a57610c19610d1b565b5b828201905092915050565b6000610c3082610c97565b9150610c3b83610c97565b925082821015610c4e57610c4d610d1b565b5b828203905092915050565b6000610c6482610c77565b9050919050565b60008115159050919050565b600073ffffffffffffffffffffffffffffffffffffffff82169050919050565b6000819050919050565b610caa82610dbc565b810181811067ffffffffffffffff82111715610cc957610cc8610d79565b5b80604052505050565b6000610cdd82610c97565b91507fffffffffffffffffffffffffffffffffffffffffffffffffffffffffffffffff821415610d1057610d0f610d1b565b5b600182019050919050565b7f4e487b7100000000000000000000000000000000000000000000000000000000600052601160045260246000fd5b7f4e487b7100000000000000000000000000000000000000000000000000000000600052603260045260246000fd5b7f4e487b7100000000000000000000000000000000000000000000000000000000600052604160045260246000fd5b600080fd5b600080fd5b600080fd5b600080fd5b6000601f19601f8301169050919050565b7f4f776e61626c653a206e6577206f776e657220697320746865207a65726f206160008201527f6464726573730000000000000000000000000000000000000000000000000000602082015250565b7f4f776e61626c653a2063616c6c6572206973206e6f7420746865206f776e6572600082015250565b610e4e81610c59565b8114610e5957600080fd5b5056fea2646970667358221220070224275ad0b13d0a847fbeb4a423ae740dee42968a8d236c8eedaef3b3cc5764736f6c6343000807003360806040523480156200001157600080fd5b5062000032620000266200003860201b60201c565b6200004060201b60201c565b62000105565b600033905090565b60008060029054906101000a900473ffffffffffffffffffffffffffffffffffffffff16905081600060026101000a81548173ffffffffffffffffffffffffffffffffffffffff021916908373ffffffffffffffffffffffffffffffffffffffff1602179055508173ffffffffffffffffffffffffffffffffffffffff168173ffffffffffffffffffffffffffffffffffffffff167f8be0079c531659141344cd1fd0a4f28419497f9722a3daafe3b4186f6b6457e060405160405180910390a35050565b61282680620001156000396000f3fe608060405234801561001057600080fd5b50600436106101165760003560e01c806391d14854116100a2578063d547741f11610071578063d547741f14610319578063dc9a153514610335578063e2ec6ec314610353578063f2fde38b14610383578063f4acfcb81461039f57610116565b806391d148541461026b5780639b19251a1461029b578063a217fddf146102cb578063b52aa76e146102e957610116565b80632f2ff15d116100e95780632f2ff15d146101db57806336568abe146101f7578063715018a6146102135780637b9417c81461021d5780638da5cb5b1461024d57610116565b806301ffc9a71461011b578063248a9ca31461014b57806324953eaa1461017b578063286dd3f5146101ab575b600080fd5b61013560048036038101906101309190611d97565b6103d0565b60405161014291906120e4565b60405180910390f35b61016560048036038101906101609190611d2a565b61044a565b60405161017291906120ff565b60405180910390f35b61019560048036038101906101909190611bc9565b61046a565b6040516101a291906120e4565b60405180910390f35b6101c560048036038101906101c09190611b9c565b610554565b6040516101d291906120e4565b60405180910390f35b6101f560048036038101906101f09190611d57565b6106d7565b005b610211600480360381019061020c9190611d57565b610700565b005b61021b610783565b005b61023760048036038101906102329190611b9c565b61080b565b60405161024491906120e4565b60405180910390f35b61025561098d565b6040516102629190612084565b60405180910390f35b61028560048036038101906102809190611d57565b6109b6565b60405161029291906120e4565b60405180910390f35b6102b560048036038101906102b09190611b9c565b610a21565b6040516102c291906120e4565b60405180910390f35b6102d3610a41565b6040516102e091906120ff565b60405180910390f35b61030360048036038101906102fe9190611c9e565b610a48565b60405161031091906120c8565b60405180910390f35b610333600480360381019061032e9190611d57565b610cf8565b005b61033d610d21565b60405161034a91906120e4565b60405180910390f35b61036d60048036038101906103689190611bc9565b610d34565b60405161037a91906120e4565b60405180910390f35b61039d60048036038101906103989190611b9c565b610e1e565b005b6103b960048036038101906103b49190611c12565b610f16565b6040516103c792919061209f565b60405180910390f35b60007f7965db0b000000000000000000000000000000000000000000000000000000007bffffffffffffffffffffffffffffffffffffffffffffffffffffffff1916827bffffffffffffffffffffffffffffffffffffffffffffffffffffffff19161480610443575061044282611293565b5b9050919050565b600060016000838152602001908152602001600020600101549050919050565b60006104746112fd565b73ffffffffffffffffffffffffffffffffffffffff1661049261098d565b73ffffffffffffffffffffffffffffffffffffffff16146104e8576040517f08c379a00000000000000000000000000000000000000000000000000000000081526004016104df9061217c565b60405180910390fd5b60005b825181101561054e5761051783828151811061050a576105096125bd565b5b6020026020010151610554565b1561053b5760016003600082825461052f9190612368565b92505081905550600191505b8080610546906124b7565b9150506104eb565b50919050565b600061055e6112fd565b73ffffffffffffffffffffffffffffffffffffffff1661057c61098d565b73ffffffffffffffffffffffffffffffffffffffff16146105d2576040517f08c379a00000000000000000000000000000000000000000000000000000000081526004016105c99061217c565b60405180910390fd5b600260008373ffffffffffffffffffffffffffffffffffffffff1673ffffffffffffffffffffffffffffffffffffffff16815260200190815260200160002060009054906101000a900460ff16156106d2576000600260008473ffffffffffffffffffffffffffffffffffffffff1673ffffffffffffffffffffffffffffffffffffffff16815260200190815260200160002060006101000a81548160ff0219169083151502179055507ff1abf01a1043b7c244d128e8595cf0c1d10743b022b03a02dffd8ca3bf729f5a826040516106ab9190612084565b60405180910390a16001600360008282546106c69190612368565b92505081905550600190505b919050565b6106e08261044a565b6106f1816106ec6112fd565b611305565b6106fb83836113a2565b505050565b6107086112fd565b73ffffffffffffffffffffffffffffffffffffffff168173ffffffffffffffffffffffffffffffffffffffff1614610775576040517f08c379a000000000000000000000000000000000000000000000000000000000815260040161076c9061219c565b60405180910390fd5b61077f8282611482565b5050565b61078b6112fd565b73ffffffffffffffffffffffffffffffffffffffff166107a961098d565b73ffffffffffffffffffffffffffffffffffffffff16146107ff576040517f08c379a00000000000000000000000000000000000000000000000000000000081526004016107f69061217c565b60405180910390fd5b6108096000611564565b565b60006108156112fd565b73ffffffffffffffffffffffffffffffffffffffff1661083361098d565b73ffffffffffffffffffffffffffffffffffffffff1614610889576040517f08c379a00000000000000000000000000000000000000000000000000000000081526004016108809061217c565b60405180910390fd5b600260008373ffffffffffffffffffffffffffffffffffffffff1673ffffffffffffffffffffffffffffffffffffffff16815260200190815260200160002060009054906101000a900460ff16610988576001600260008473ffffffffffffffffffffffffffffffffffffffff1673ffffffffffffffffffffffffffffffffffffffff16815260200190815260200160002060006101000a81548160ff0219169083151502179055507fd1bba68c128cc3f427e5831b3c6f99f480b6efa6b9e80c757768f6124158cc3f826040516109619190612084565b60405180910390a160016003600082825461097c9190612287565b92505081905550600190505b919050565b60008060029054906101000a900473ffffffffffffffffffffffffffffffffffffffff16905090565b60006001600084815260200190815260200160002060000160008373ffffffffffffffffffffffffffffffffffffffff1673ffffffffffffffffffffffffffffffffffffffff16815260200190815260200160002060009054906101000a900460ff16905092915050565b60026020528060005260406000206000915054906101000a900460ff1681565b6000801b81565b610a50611927565b610a8e6040518060400160405280601081526020017f73657474696e67207363686564756c6500000000000000000000000000000000815250611629565b60008586610a9c919061230e565b4233448787604051602001610ab5959493929190612038565b6040516020818303038152906040528051906020012060001c610ad89190612287565b9050600080600288610aea919061252e565b14610b0457600187610afc9190612287565b905080610b09565b869050805b50600088600460088110610b2057610b1f6125bd565b5b6020020151905060005b600283610b3791906122dd565b811015610caa576000881415610bed57808a600285610b5691906122dd565b8684610b629190612287565b610b6c919061252e565b60088110610b7d57610b7c6125bd565b5b602002018181525050600283610b9391906122dd565b81610b9e9190612287565b8a6004600286610bae91906122dd565b8785610bba9190612287565b610bc4919061252e565b610bce9190612287565b60088110610bdf57610bde6125bd565b5b602002018181525050610c97565b60008a8260088110610c0257610c016125bd565b5b60200201519050808b600484610c189190612287565b60088110610c2957610c286125bd565b5b6020020181815250508a6004600286610c4291906122dd565b600185610c4f9190612287565b610c59919061252e565b610c639190612287565b60088110610c7457610c736125bd565b5b60200201518b8360088110610c8c57610c8b6125bd565b5b602002018181525050505b8080610ca2906124b7565b915050610b2a565b5060008714610ce95780896001600285610cc491906122dd565b610cce9190612368565b60088110610cdf57610cde6125bd565b5b6020020181815250505b88935050505095945050505050565b610d018261044a565b610d1281610d0d6112fd565b611305565b610d1c8383611482565b505050565b600460009054906101000a900460ff1681565b6000610d3e6112fd565b73ffffffffffffffffffffffffffffffffffffffff16610d5c61098d565b73ffffffffffffffffffffffffffffffffffffffff1614610db2576040517f08c379a0000000000000000000000000000000000000000000000000000000008152600401610da99061217c565b60405180910390fd5b60005b8251811015610e1857610de1838281518110610dd457610dd36125bd565b5b602002602001015161080b565b15610e0557600160036000828254610df99190612287565b92505081905550600191505b8080610e10906124b7565b915050610db5565b50919050565b610e266112fd565b73ffffffffffffffffffffffffffffffffffffffff16610e4461098d565b73ffffffffffffffffffffffffffffffffffffffff1614610e9a576040517f08c379a0000000000000000000000000000000000000000000000000000000008152600401610e919061217c565b60405180910390fd5b600073ffffffffffffffffffffffffffffffffffffffff168173ffffffffffffffffffffffffffffffffffffffff161415610f0a576040517f08c379a0000000000000000000000000000000000000000000000000000000008152600401610f019061215c565b60405180910390fd5b610f1381611564565b50565b600080610f576040518060400160405280601081526020017f73657474696e67207363686564756c6500000000000000000000000000000000815250611629565b600080600288889050610f6a919061252e565b14610f8757600187879050610f7f9190612287565b905080610f8f565b868690509050805b50610f9861194a565b8787905089600487610faa9190612287565b60088110610fbb57610fba6125bd565b5b60200201511061107857604051806040016040528089898c8960088110610fe557610fe46125bd565b5b6020020151818110610ffa57610ff96125bd565b5b905060200201602081019061100f9190611b9c565b73ffffffffffffffffffffffffffffffffffffffff1673ffffffffffffffffffffffffffffffffffffffff168152602001600073ffffffffffffffffffffffffffffffffffffffff1673ffffffffffffffffffffffffffffffffffffffff168152509050611251565b8787905089866008811061108f5761108e6125bd565b5b602002015110611158576040518060400160405280600073ffffffffffffffffffffffffffffffffffffffff1673ffffffffffffffffffffffffffffffffffffffff16815260200189898c60048a6110e79190612287565b600881106110f8576110f76125bd565b5b602002015181811061110d5761110c6125bd565b5b90506020020160208101906111229190611b9c565b73ffffffffffffffffffffffffffffffffffffffff1673ffffffffffffffffffffffffffffffffffffffff168152509050611250565b604051806040016040528089898c8960088110611178576111776125bd565b5b602002015181811061118d5761118c6125bd565b5b90506020020160208101906111a29190611b9c565b73ffffffffffffffffffffffffffffffffffffffff1673ffffffffffffffffffffffffffffffffffffffff16815260200189898c60048a6111e39190612287565b600881106111f4576111f36125bd565b5b6020020151818110611209576112086125bd565b5b905060200201602081019061121e9190611b9c565b73ffffffffffffffffffffffffffffffffffffffff1673ffffffffffffffffffffffffffffffffffffffff1681525090505b5b80600060028110611265576112646125bd565b5b60200201518160016002811061127e5761127d6125bd565b5b60200201519350935050509550959350505050565b60007f01ffc9a7000000000000000000000000000000000000000000000000000000007bffffffffffffffffffffffffffffffffffffffffffffffffffffffff1916827bffffffffffffffffffffffffffffffffffffffffffffffffffffffff1916149050919050565b600033905090565b61130f82826109b6565b61139e576113348173ffffffffffffffffffffffffffffffffffffffff1660146116c2565b6113428360001c60206116c2565b604051602001611353929190611ffe565b6040516020818303038152906040526040517f08c379a0000000000000000000000000000000000000000000000000000000008152600401611395919061211a565b60405180910390fd5b5050565b6113ac82826109b6565b61147e57600180600084815260200190815260200160002060000160008373ffffffffffffffffffffffffffffffffffffffff1673ffffffffffffffffffffffffffffffffffffffff16815260200190815260200160002060006101000a81548160ff0219169083151502179055506114236112fd565b73ffffffffffffffffffffffffffffffffffffffff168173ffffffffffffffffffffffffffffffffffffffff16837f2f8788117e7eff1d82e926ec794901d17c78024a50270940304540a733656f0d60405160405180910390a45b5050565b61148c82826109b6565b156115605760006001600084815260200190815260200160002060000160008373ffffffffffffffffffffffffffffffffffffffff1673ffffffffffffffffffffffffffffffffffffffff16815260200190815260200160002060006101000a81548160ff0219169083151502179055506115056112fd565b73ffffffffffffffffffffffffffffffffffffffff168173ffffffffffffffffffffffffffffffffffffffff16837ff6391f5c32d9c69d2a47ea670b442974b53935d1edc7fd64eb21e047a839171b60405160405180910390a45b5050565b60008060029054906101000a900473ffffffffffffffffffffffffffffffffffffffff16905081600060026101000a81548173ffffffffffffffffffffffffffffffffffffffff021916908373ffffffffffffffffffffffffffffffffffffffff1602179055508173ffffffffffffffffffffffffffffffffffffffff168173ffffffffffffffffffffffffffffffffffffffff167f8be0079c531659141344cd1fd0a4f28419497f9722a3daafe3b4186f6b6457e060405160405180910390a35050565b6116bf8160405160240161163d919061211a565b6040516020818303038152906040527f41304fac000000000000000000000000000000000000000000000000000000007bffffffffffffffffffffffffffffffffffffffffffffffffffffffff19166020820180517bffffffffffffffffffffffffffffffffffffffffffffffffffffffff83818316178352505050506118fe565b50565b6060600060028360026116d5919061230e565b6116df9190612287565b67ffffffffffffffff8111156116f8576116f76125ec565b5b6040519080825280601f01601f19166020018201604052801561172a5781602001600182028036833780820191505090505b5090507f300000000000000000000000000000000000000000000000000000000000000081600081518110611762576117616125bd565b5b60200101907effffffffffffffffffffffffffffffffffffffffffffffffffffffffffffff1916908160001a9053507f7800000000000000000000000000000000000000000000000000000000000000816001815181106117c6576117c56125bd565b5b60200101907effffffffffffffffffffffffffffffffffffffffffffffffffffffffffffff1916908160001a90535060006001846002611806919061230e565b6118109190612287565b90505b60018111156118b0577f3031323334353637383961626364656600000000000000000000000000000000600f861660108110611852576118516125bd565b5b1a60f81b828281518110611869576118686125bd565b5b60200101907effffffffffffffffffffffffffffffffffffffffffffffffffffffffffffff1916908160001a905350600485901c9450806118a99061245c565b9050611813565b50600084146118f4576040517f08c379a00000000000000000000000000000000000000000000000000000000081526004016118eb9061213c565b60405180910390fd5b8091505092915050565b60008151905060006a636f6e736f6c652e6c6f679050602083016000808483855afa5050505050565b604051806101000160405280600890602082028036833780820191505090505090565b6040518060400160405280600290602082028036833780820191505090505090565b600061197f61197a846121e1565b6121bc565b905080838252602082019050828560208602820111156119a2576119a1612625565b5b60005b858110156119d257816119b88882611a43565b8452602084019350602083019250506001810190506119a5565b5050509392505050565b60006119ef6119ea8461220d565b6121bc565b90508082856020860282011115611a0957611a08612625565b5b60005b85811015611a395781611a1f8882611b87565b845260208401935060208301925050600181019050611a0c565b5050509392505050565b600081359050611a5281612794565b92915050565b60008083601f840112611a6e57611a6d612620565b5b8235905067ffffffffffffffff811115611a8b57611a8a61261b565b5b602083019150836020820283011115611aa757611aa6612625565b5b9250929050565b600082601f830112611ac357611ac2612620565b5b8135611ad384826020860161196c565b91505092915050565b600082601f830112611af157611af0612620565b5b6008611afe8482856119dc565b91505092915050565b600081359050611b16816127ab565b92915050565b600081359050611b2b816127c2565b92915050565b60008083601f840112611b4757611b46612620565b5b8235905067ffffffffffffffff811115611b6457611b6361261b565b5b602083019150836001820283011115611b8057611b7f612625565b5b9250929050565b600081359050611b96816127d9565b92915050565b600060208284031215611bb257611bb161262f565b5b6000611bc084828501611a43565b91505092915050565b600060208284031215611bdf57611bde61262f565b5b600082013567ffffffffffffffff811115611bfd57611bfc61262a565b5b611c0984828501611aae565b91505092915050565b60008060008060006101608688031215611c2f57611c2e61262f565b5b6000611c3d88828901611adc565b95505061010086013567ffffffffffffffff811115611c5f57611c5e61262a565b5b611c6b88828901611a58565b9450945050610120611c7f88828901611b87565b925050610140611c9188828901611b87565b9150509295509295909350565b60008060008060006101608688031215611cbb57611cba61262f565b5b6000611cc988828901611adc565b955050610100611cdb88828901611b87565b945050610120611ced88828901611b87565b93505061014086013567ffffffffffffffff811115611d0f57611d0e61262a565b5b611d1b88828901611b31565b92509250509295509295909350565b600060208284031215611d4057611d3f61262f565b5b6000611d4e84828501611b07565b91505092915050565b60008060408385031215611d6e57611d6d61262f565b5b6000611d7c85828601611b07565b9250506020611d8d85828601611a43565b9150509250929050565b600060208284031215611dad57611dac61262f565b5b6000611dbb84828501611b1c565b91505092915050565b6000611dd08383611fd8565b60208301905092915050565b611de58161239c565b82525050565b611dfc611df78261239c565b612500565b82525050565b611e0b8161223d565b611e158184612260565b9250611e2082612233565b8060005b83811015611e51578151611e388782611dc4565b9650611e4383612253565b925050600181019050611e24565b505050505050565b611e62816123ae565b82525050565b611e71816123ba565b82525050565b6000611e83838561227c565b9350611e9083858461241a565b82840190509392505050565b6000611ea782612248565b611eb1818561226b565b9350611ec1818560208601612429565b611eca81612634565b840191505092915050565b6000611ee082612248565b611eea818561227c565b9350611efa818560208601612429565b80840191505092915050565b6000611f1360208361226b565b9150611f1e82612652565b602082019050919050565b6000611f3660268361226b565b9150611f418261267b565b604082019050919050565b6000611f5960208361226b565b9150611f64826126ca565b602082019050919050565b6000611f7c60178361227c565b9150611f87826126f3565b601782019050919050565b6000611f9f60118361227c565b9150611faa8261271c565b601182019050919050565b6000611fc2602f8361226b565b9150611fcd82612745565b604082019050919050565b611fe181612410565b82525050565b611ff8611ff382612410565b612524565b82525050565b600061200982611f6f565b91506120158285611ed5565b915061202082611f92565b915061202c8284611ed5565b91508190509392505050565b60006120448288611fe7565b6020820191506120548287611deb565b6014820191506120648286611fe7565b602082019150612075828486611e77565b91508190509695505050505050565b60006020820190506120996000830184611ddc565b92915050565b60006040820190506120b46000830185611ddc565b6120c16020830184611ddc565b9392505050565b6000610100820190506120de6000830184611e02565b92915050565b60006020820190506120f96000830184611e59565b92915050565b60006020820190506121146000830184611e68565b92915050565b600060208201905081810360008301526121348184611e9c565b905092915050565b6000602082019050818103600083015261215581611f06565b9050919050565b6000602082019050818103600083015261217581611f29565b9050919050565b6000602082019050818103600083015261219581611f4c565b9050919050565b600060208201905081810360008301526121b581611fb5565b9050919050565b60006121c66121d7565b90506121d28282612486565b919050565b6000604051905090565b600067ffffffffffffffff8211156121fc576121fb6125ec565b5b602082029050602081019050919050565b600067ffffffffffffffff821115612228576122276125ec565b5b602082029050919050565b6000819050919050565b600060089050919050565b600081519050919050565b6000602082019050919050565b600081905092915050565b600082825260208201905092915050565b600081905092915050565b600061229282612410565b915061229d83612410565b9250827fffffffffffffffffffffffffffffffffffffffffffffffffffffffffffffffff038211156122d2576122d161255f565b5b828201905092915050565b60006122e882612410565b91506122f383612410565b9250826123035761230261258e565b5b828204905092915050565b600061231982612410565b915061232483612410565b9250817fffffffffffffffffffffffffffffffffffffffffffffffffffffffffffffffff048311821515161561235d5761235c61255f565b5b828202905092915050565b600061237382612410565b915061237e83612410565b9250828210156123915761239061255f565b5b828203905092915050565b60006123a7826123f0565b9050919050565b60008115159050919050565b6000819050919050565b60007fffffffff0000000000000000000000000000000000000000000000000000000082169050919050565b600073ffffffffffffffffffffffffffffffffffffffff82169050919050565b6000819050919050565b82818337600083830152505050565b60005b8381101561244757808201518184015260208101905061242c565b83811115612456576000848401525b50505050565b600061246782612410565b9150600082141561247b5761247a61255f565b5b600182039050919050565b61248f82612634565b810181811067ffffffffffffffff821117156124ae576124ad6125ec565b5b80604052505050565b60006124c282612410565b91507fffffffffffffffffffffffffffffffffffffffffffffffffffffffffffffffff8214156124f5576124f461255f565b5b600182019050919050565b600061250b82612512565b9050919050565b600061251d82612645565b9050919050565b6000819050919050565b600061253982612410565b915061254483612410565b9250826125545761255361258e565b5b828206905092915050565b7f4e487b7100000000000000000000000000000000000000000000000000000000600052601160045260246000fd5b7f4e487b7100000000000000000000000000000000000000000000000000000000600052601260045260246000fd5b7f4e487b7100000000000000000000000000000000000000000000000000000000600052603260045260246000fd5b7f4e487b7100000000000000000000000000000000000000000000000000000000600052604160045260246000fd5b600080fd5b600080fd5b600080fd5b600080fd5b600080fd5b6000601f19601f8301169050919050565b60008160601b9050919050565b7f537472696e67733a20686578206c656e67746820696e73756666696369656e74600082015250565b7f4f776e61626c653a206e6577206f776e657220697320746865207a65726f206160008201527f6464726573730000000000000000000000000000000000000000000000000000602082015250565b7f4f776e61626c653a2063616c6c6572206973206e6f7420746865206f776e6572600082015250565b7f416363657373436f6e74726f6c3a206163636f756e7420000000000000000000600082015250565b7f206973206d697373696e6720726f6c6520000000000000000000000000000000600082015250565b7f416363657373436f6e74726f6c3a2063616e206f6e6c792072656e6f756e636560008201527f20726f6c657320666f722073656c660000000000000000000000000000000000602082015250565b61279d8161239c565b81146127a857600080fd5b50565b6127b4816123ba565b81146127bf57600080fd5b50565b6127cb816123c4565b81146127d657600080fd5b50565b6127e281612410565b81146127ed57600080fd5b5056fea26469706673582212207ee329f1fdd1c0b97e30ec5720b79c16a84cb4f668b2eb4d43649a563e7761dc64736f6c63430008070033a264697066735822122076bdcfc13bd9c80df6bf0d4091a12ca17d9c12fb782a25de6acfed068f6558c464736f6c63430008070033",
  "linkReferences": {},
  "deployedLinkReferences": {}
}