{
  "_format": "hh-sol-artifact-1",
  "contractName": "LeagueOfLegendsLogic",
  "sourceName": "contracts/LeagueOfLegendsLogic.sol",
  "abi": [
    {
      "anonymous": false,
      "inputs": [
        {
          "indexed": true,
          "internalType": "address",
          "name": "previousOwner",
          "type": "address"
        },
        {
          "indexed": true,
          "internalType": "address",
          "name": "newOwner",
          "type": "address"
        }
      ],
      "name": "OwnershipTransferred",
      "type": "event"
    },
    {
      "anonymous": false,
      "inputs": [
        {
          "indexed": true,
          "internalType": "bytes32",
          "name": "role",
          "type": "bytes32"
        },
        {
          "indexed": true,
          "internalType": "bytes32",
          "name": "previousAdminRole",
          "type": "bytes32"
        },
        {
          "indexed": true,
          "internalType": "bytes32",
          "name": "newAdminRole",
          "type": "bytes32"
        }
      ],
      "name": "RoleAdminChanged",
      "type": "event"
    },
    {
      "anonymous": false,
      "inputs": [
        {
          "indexed": true,
          "internalType": "bytes32",
          "name": "role",
          "type": "bytes32"
        },
        {
          "indexed": true,
          "internalType": "address",
          "name": "account",
          "type": "address"
        },
        {
          "indexed": true,
          "internalType": "address",
          "name": "sender",
          "type": "address"
        }
      ],
      "name": "RoleGranted",
      "type": "event"
    },
    {
      "anonymous": false,
      "inputs": [
        {
          "indexed": true,
          "internalType": "bytes32",
          "name": "role",
          "type": "bytes32"
        },
        {
          "indexed": true,
          "internalType": "address",
          "name": "account",
          "type": "address"
        },
        {
          "indexed": true,
          "internalType": "address",
          "name": "sender",
          "type": "address"
        }
      ],
      "name": "RoleRevoked",
      "type": "event"
    },
    {
      "anonymous": false,
      "inputs": [
        {
          "indexed": false,
          "internalType": "address",
          "name": "sender",
          "type": "address"
        },
        {
          "indexed": false,
          "internalType": "uint256",
          "name": "amount",
          "type": "uint256"
        }
      ],
      "name": "Staked",
      "type": "event"
    },
    {
      "anonymous": false,
      "inputs": [
        {
          "indexed": false,
          "internalType": "address",
          "name": "addr",
          "type": "address"
        }
      ],
      "name": "WhitelistedAddressAdded",
      "type": "event"
    },
    {
      "anonymous": false,
      "inputs": [
        {
          "indexed": false,
          "internalType": "address",
          "name": "addr",
          "type": "address"
        }
      ],
      "name": "WhitelistedAddressRemoved",
      "type": "event"
    },
    {
      "anonymous": false,
      "inputs": [
        {
          "indexed": false,
          "internalType": "address",
          "name": "sender",
          "type": "address"
        },
        {
          "indexed": false,
          "internalType": "address",
          "name": "contractAddress",
          "type": "address"
        }
      ],
      "name": "testUSDCDeployed",
      "type": "event"
    },
    {
      "inputs": [],
      "name": "DEFAULT_ADMIN_ROLE",
      "outputs": [
        {
          "internalType": "bytes32",
          "name": "",
          "type": "bytes32"
        }
      ],
      "stateMutability": "view",
      "type": "function"
    },
    {
      "inputs": [
        {
          "internalType": "address",
          "name": "addr",
          "type": "address"
        }
      ],
      "name": "addAddressToWhitelist",
      "outputs": [
        {
          "internalType": "bool",
          "name": "success",
          "type": "bool"
        }
      ],
      "stateMutability": "nonpayable",
      "type": "function"
    },
    {
      "inputs": [
        {
          "internalType": "address[]",
          "name": "addrs",
          "type": "address[]"
        }
      ],
      "name": "addAddressesToWhitelist",
      "outputs": [
        {
          "internalType": "bool",
          "name": "success",
          "type": "bool"
        }
      ],
      "stateMutability": "nonpayable",
      "type": "function"
    },
    {
      "inputs": [
        {
          "internalType": "address",
          "name": "user",
          "type": "address"
        }
      ],
      "name": "addUserToLeague",
      "outputs": [],
      "stateMutability": "nonpayable",
      "type": "function"
    },
    {
      "inputs": [
        {
          "internalType": "address",
          "name": "_userToAdd",
          "type": "address"
        }
      ],
      "name": "addUserToWhitelist",
      "outputs": [],
      "stateMutability": "nonpayable",
      "type": "function"
    },
    {
      "inputs": [],
      "name": "currentWeekNum",
      "outputs": [
        {
          "internalType": "uint256",
          "name": "",
          "type": "uint256"
        }
      ],
      "stateMutability": "view",
      "type": "function"
    },
    {
      "inputs": [
        {
          "internalType": "address",
          "name": "addr1",
          "type": "address"
        },
        {
          "internalType": "address",
          "name": "addr2",
          "type": "address"
        }
      ],
      "name": "evaluateMatch",
      "outputs": [
        {
          "internalType": "address",
          "name": "",
          "type": "address"
        }
      ],
      "stateMutability": "nonpayable",
      "type": "function"
    },
    {
      "inputs": [],
      "name": "evaluateWeek",
      "outputs": [],
      "stateMutability": "nonpayable",
      "type": "function"
    },
    {
      "inputs": [],
      "name": "getAdmin",
      "outputs": [
        {
          "internalType": "address",
          "name": "",
          "type": "address"
        }
      ],
      "stateMutability": "view",
      "type": "function"
    },
    {
      "inputs": [],
      "name": "getAthleteContractAddress",
      "outputs": [
        {
          "internalType": "address",
          "name": "",
          "type": "address"
        }
      ],
      "stateMutability": "view",
      "type": "function"
    },
    {
      "inputs": [],
      "name": "getCurrentWeekNum",
      "outputs": [
        {
          "internalType": "uint256",
          "name": "",
          "type": "uint256"
        }
      ],
      "stateMutability": "view",
      "type": "function"
    },
    {
      "inputs": [],
      "name": "getLeagueName",
      "outputs": [
        {
          "internalType": "string",
          "name": "",
          "type": "string"
        }
      ],
      "stateMutability": "view",
      "type": "function"
    },
    {
      "inputs": [],
      "name": "getLineup",
      "outputs": [
        {
          "internalType": "uint256[]",
          "name": "",
          "type": "uint256[]"
        }
      ],
      "stateMutability": "view",
      "type": "function"
    },
    {
      "inputs": [
        {
          "internalType": "bytes32",
          "name": "role",
          "type": "bytes32"
        }
      ],
      "name": "getRoleAdmin",
      "outputs": [
        {
          "internalType": "bytes32",
          "name": "",
          "type": "bytes32"
        }
      ],
      "stateMutability": "view",
      "type": "function"
    },
    {
      "inputs": [],
      "name": "getStakeAmount",
      "outputs": [
        {
          "internalType": "uint256",
          "name": "",
          "type": "uint256"
        }
      ],
      "stateMutability": "view",
      "type": "function"
    },
    {
      "inputs": [],
      "name": "getTestUSDCAddress",
      "outputs": [
        {
          "internalType": "address",
          "name": "",
          "type": "address"
        }
      ],
      "stateMutability": "view",
      "type": "function"
    },
    {
      "inputs": [],
      "name": "getTotalPrizePot",
      "outputs": [
        {
          "internalType": "uint256",
          "name": "",
          "type": "uint256"
        }
      ],
      "stateMutability": "view",
      "type": "function"
    },
    {
      "inputs": [],
      "name": "getUSDCBalance",
      "outputs": [
        {
          "internalType": "uint256",
          "name": "",
          "type": "uint256"
        }
      ],
      "stateMutability": "view",
      "type": "function"
    },
    {
      "inputs": [],
      "name": "getUserRecord",
      "outputs": [
        {
          "internalType": "uint256[8]",
          "name": "",
          "type": "uint256[8]"
        }
      ],
      "stateMutability": "view",
      "type": "function"
    },
    {
      "inputs": [],
      "name": "getUserTotalPts",
      "outputs": [
        {
          "internalType": "uint256",
          "name": "",
          "type": "uint256"
        }
      ],
      "stateMutability": "view",
      "type": "function"
    },
    {
      "inputs": [],
      "name": "getUserUSDCBalance",
      "outputs": [
        {
          "internalType": "uint256",
          "name": "",
          "type": "uint256"
        }
      ],
      "stateMutability": "view",
      "type": "function"
    },
    {
      "inputs": [],
      "name": "getUsersLength",
      "outputs": [
        {
          "internalType": "uint256",
          "name": "",
          "type": "uint256"
        }
      ],
      "stateMutability": "view",
      "type": "function"
    },
    {
      "inputs": [],
      "name": "getVersion",
      "outputs": [
        {
          "internalType": "uint256",
          "name": "version",
          "type": "uint256"
        }
      ],
      "stateMutability": "pure",
      "type": "function"
    },
    {
      "inputs": [
        {
          "internalType": "bytes32",
          "name": "role",
          "type": "bytes32"
        },
        {
          "internalType": "address",
          "name": "account",
          "type": "address"
        }
      ],
      "name": "grantRole",
      "outputs": [],
      "stateMutability": "nonpayable",
      "type": "function"
    },
    {
      "inputs": [
        {
          "internalType": "bytes32",
          "name": "role",
          "type": "bytes32"
        },
        {
          "internalType": "address",
          "name": "account",
          "type": "address"
        }
      ],
      "name": "hasRole",
      "outputs": [
        {
          "internalType": "bool",
          "name": "",
          "type": "bool"
        }
      ],
      "stateMutability": "view",
      "type": "function"
    },
    {
      "inputs": [
        {
          "internalType": "string",
          "name": "_name",
          "type": "string"
        },
        {
          "internalType": "uint256",
          "name": "_numWeeks",
          "type": "uint256"
        },
        {
          "internalType": "uint256",
          "name": "_stakeAmount",
          "type": "uint256"
        },
        {
          "internalType": "bool",
          "name": "_isPublic",
          "type": "bool"
        },
        {
          "internalType": "address",
          "name": "athletesDataStorageAddress",
          "type": "address"
        },
        {
          "internalType": "address",
          "name": "_admin",
          "type": "address"
        },
        {
          "internalType": "address",
          "name": "_polygonUSDCAddress",
          "type": "address"
        },
        {
          "internalType": "address",
          "name": "_rinkebyUSDCAddress",
          "type": "address"
        },
        {
          "internalType": "address",
          "name": "_testUSDCAddress",
          "type": "address"
        },
        {
          "internalType": "address",
          "name": "leagueMakerContractAddress",
          "type": "address"
        }
      ],
      "name": "initialize",
      "outputs": [],
      "stateMutability": "nonpayable",
      "type": "function"
    },
    {
      "inputs": [],
      "name": "isPublic",
      "outputs": [
        {
          "internalType": "bool",
          "name": "",
          "type": "bool"
        }
      ],
      "stateMutability": "view",
      "type": "function"
    },
    {
      "inputs": [],
      "name": "joinLeague",
      "outputs": [],
      "stateMutability": "nonpayable",
      "type": "function"
    },
    {
      "inputs": [
        {
          "internalType": "uint256",
          "name": "",
          "type": "uint256"
        }
      ],
      "name": "leagueMembers",
      "outputs": [
        {
          "internalType": "address",
          "name": "",
          "type": "address"
        }
      ],
      "stateMutability": "view",
      "type": "function"
    },
    {
      "inputs": [],
      "name": "leagueName",
      "outputs": [
        {
          "internalType": "string",
          "name": "",
          "type": "string"
        }
      ],
      "stateMutability": "view",
      "type": "function"
    },
    {
      "inputs": [],
      "name": "lockLineup",
      "outputs": [],
      "stateMutability": "nonpayable",
      "type": "function"
    },
    {
      "inputs": [],
      "name": "numWeeks",
      "outputs": [
        {
          "internalType": "uint256",
          "name": "",
          "type": "uint256"
        }
      ],
      "stateMutability": "view",
      "type": "function"
    },
    {
      "inputs": [],
      "name": "onLeagueEnd",
      "outputs": [],
      "stateMutability": "nonpayable",
      "type": "function"
    },
    {
      "inputs": [],
      "name": "owner",
      "outputs": [
        {
          "internalType": "address",
          "name": "",
          "type": "address"
        }
      ],
      "stateMutability": "view",
      "type": "function"
    },
    {
      "inputs": [],
      "name": "polygonUSDCAddress",
      "outputs": [
        {
          "internalType": "address",
          "name": "",
          "type": "address"
        }
      ],
      "stateMutability": "view",
      "type": "function"
    },
    {
      "inputs": [
        {
          "internalType": "address",
          "name": "addr",
          "type": "address"
        }
      ],
      "name": "removeAddressFromWhitelist",
      "outputs": [
        {
          "internalType": "bool",
          "name": "success",
          "type": "bool"
        }
      ],
      "stateMutability": "nonpayable",
      "type": "function"
    },
    {
      "inputs": [
        {
          "internalType": "address[]",
          "name": "addrs",
          "type": "address[]"
        }
      ],
      "name": "removeAddressesFromWhitelist",
      "outputs": [
        {
          "internalType": "bool",
          "name": "success",
          "type": "bool"
        }
      ],
      "stateMutability": "nonpayable",
      "type": "function"
    },
    {
      "inputs": [
        {
          "internalType": "address",
          "name": "_userToRemove",
          "type": "address"
        }
      ],
      "name": "removeFromLeague",
      "outputs": [],
      "stateMutability": "nonpayable",
      "type": "function"
    },
    {
      "inputs": [],
      "name": "renounceOwnership",
      "outputs": [],
      "stateMutability": "nonpayable",
      "type": "function"
    },
    {
      "inputs": [
        {
          "internalType": "bytes32",
          "name": "role",
          "type": "bytes32"
        },
        {
          "internalType": "address",
          "name": "account",
          "type": "address"
        }
      ],
      "name": "renounceRole",
      "outputs": [],
      "stateMutability": "nonpayable",
      "type": "function"
    },
    {
      "inputs": [
        {
          "internalType": "bytes32",
          "name": "role",
          "type": "bytes32"
        },
        {
          "internalType": "address",
          "name": "account",
          "type": "address"
        }
      ],
      "name": "revokeRole",
      "outputs": [],
      "stateMutability": "nonpayable",
      "type": "function"
    },
    {
      "inputs": [],
      "name": "rinkebyUSDCAddress",
      "outputs": [
        {
          "internalType": "address",
          "name": "",
          "type": "address"
        }
      ],
      "stateMutability": "view",
      "type": "function"
    },
    {
      "inputs": [],
      "name": "setLeagueEntryIsClosed",
      "outputs": [],
      "stateMutability": "nonpayable",
      "type": "function"
    },
    {
      "inputs": [],
      "name": "setLeagueSchedule",
      "outputs": [],
      "stateMutability": "nonpayable",
      "type": "function"
    },
    {
      "inputs": [
        {
          "internalType": "uint256[]",
          "name": "athleteIds",
          "type": "uint256[]"
        }
      ],
      "name": "setLineup",
      "outputs": [],
      "stateMutability": "nonpayable",
      "type": "function"
    },
    {
      "inputs": [],
      "name": "stakeAmount",
      "outputs": [
        {
          "internalType": "uint256",
          "name": "",
          "type": "uint256"
        }
      ],
      "stateMutability": "view",
      "type": "function"
    },
    {
      "inputs": [
        {
          "internalType": "bytes4",
          "name": "interfaceId",
          "type": "bytes4"
        }
      ],
      "name": "supportsInterface",
      "outputs": [
        {
          "internalType": "bool",
          "name": "",
          "type": "bool"
        }
      ],
      "stateMutability": "view",
      "type": "function"
    },
    {
      "inputs": [
        {
          "internalType": "address",
          "name": "newOwner",
          "type": "address"
        }
      ],
      "name": "transferOwnership",
      "outputs": [],
      "stateMutability": "nonpayable",
      "type": "function"
    },
    {
      "inputs": [],
      "name": "unlockLineup",
      "outputs": [],
      "stateMutability": "nonpayable",
      "type": "function"
    },
    {
      "inputs": [
        {
          "internalType": "address",
          "name": "",
          "type": "address"
        },
        {
          "internalType": "uint256",
          "name": "",
          "type": "uint256"
        }
      ],
      "name": "userToRecord",
      "outputs": [
        {
          "internalType": "uint256",
          "name": "",
          "type": "uint256"
        }
      ],
      "stateMutability": "view",
      "type": "function"
    },
    {
      "inputs": [
        {
          "internalType": "address",
          "name": "",
          "type": "address"
        }
      ],
      "name": "whitelist",
      "outputs": [
        {
          "internalType": "bool",
          "name": "",
          "type": "bool"
        }
      ],
      "stateMutability": "view",
      "type": "function"
    }
  ],
  "bytecode": "0x60806040523480156200001157600080fd5b5062000032620000266200003860201b60201c565b6200004060201b60201c565b62000105565b600033905090565b60008060029054906101000a900473ffffffffffffffffffffffffffffffffffffffff16905081600060026101000a81548173ffffffffffffffffffffffffffffffffffffffff021916908373ffffffffffffffffffffffffffffffffffffffff1602179055508173ffffffffffffffffffffffffffffffffffffffff168173ffffffffffffffffffffffffffffffffffffffff167f8be0079c531659141344cd1fd0a4f28419497f9722a3daafe3b4186f6b6457e060405160405180910390a35050565b615ca980620001156000396000f3fe60806040523480156200001157600080fd5b5060043610620003395760003560e01c8063722580b611620001c5578063a217fddf11620000ff578063d547741f11620000b1578063e4c9066b1162000087578063e4c9066b14620009b0578063f2fde38b14620009bc578063f612121a14620009dc578063f881604514620009fc5762000339565b8063d547741f1462000938578063dc9a15351462000958578063e2ec6ec3146200097a5762000339565b8063a217fddf14620008ae578063a2bc091a14620008d0578063ada3a28d14620008dc578063c8be3b5b14620008fe578063c99fea94146200090a578063cdbba4c614620009165762000339565b8063853976dd116200017757806391d14854116200014d57806391d1485414620007fe57806393f3706c146200083457806399a6003414620008565780639b19251a14620008785762000339565b8063853976dd14620007845780638caec7a814620007ba5780638da5cb5b14620007dc5762000339565b8063722580b614620006bc578063747b805014620006de5780637b9417c814620006fe5780637eed33f11462000734578063841abf6e146200075657806385334ffa14620007785762000339565b80632f2ff15d11620002975780635d514d69116200024957806360c7dc47116200021f57806360c7dc47146200064a5780636bdc44df146200066c5780636e9960c3146200068e578063715018a614620006b05762000339565b80635d514d6914620005e65780635ec0b4f714620006065780635fcc698714620006285762000339565b80632f2ff15d146200051e57806336568abe146200053e5780633cfd1ccc146200055e578063403570c5146200058057806352e6e5f314620005a2578063595b1a3e14620005c45762000339565b80630d8e6e2c11620002f15780630d8e6e2c14620004185780631d803e00146200043a578063248a9ca3146200044657806324953eaa146200047c578063267175db14620004b2578063286dd3f514620004e85762000339565b8062b2476f146200033e57806301ffc9a714620003605780630655465a146200039657806306d60c2414620003a2578063087e18a714620003c25780630c6f795914620003e2575b600080fd5b6200034862000a1e565b60405162000357919062004059565b60405180910390f35b6200037e600480360381019062000378919062003986565b62000a44565b6040516200038d9190620041be565b60405180910390f35b620003a062000ac1565b005b620003c06004803603810190620003ba919062003747565b62000bfc565b005b620003e06004803603810190620003da919062003747565b62000d99565b005b620004006004803603810190620003fa9190620037f2565b62000fa0565b6040516200040f91906200440f565b60405180910390f35b6200042262000fc9565b6040516200043191906200440f565b60405180910390f35b6200044462000fce565b005b6200046460048036038101906200045e91906200390d565b62001260565b604051620004739190620041db565b60405180910390f35b6200049a600480360381019062000494919062003839565b62001280565b604051620004a99190620041be565b60405180910390f35b620004d06004803603810190620004ca919062003ad2565b6200137d565b604051620004df919062004059565b60405180910390f35b62000506600480360381019062000500919062003747565b620013bd565b604051620005159190620041be565b60405180910390f35b6200053c60048036038101906200053691906200393f565b6200154c565b005b6200055c60048036038101906200055691906200393f565b6200157d565b005b6200056862001607565b6040516200057791906200440f565b60405180910390f35b6200058a620016bf565b604051620005999190620042b9565b60405180910390f35b620005ac62001759565b604051620005bb91906200440f565b60405180910390f35b620005ce6200175f565b604051620005dd91906200440f565b60405180910390f35b620006046004803603810190620005fe9190620039b8565b6200176c565b005b6200061062001b7b565b6040516200061f91906200440f565b60405180910390f35b6200063262001b85565b6040516200064191906200440f565b60405180910390f35b6200065462001c3d565b6040516200066391906200440f565b60405180910390f35b6200067662001c43565b6040516200068591906200440f565b60405180910390f35b6200069862001c8a565b604051620006a7919062004059565b60405180910390f35b620006ba62001cb4565b005b620006c662001d45565b604051620006d591906200440f565b60405180910390f35b620006fc6004803603810190620006f6919062003747565b62001d4f565b005b6200071c600480360381019062000716919062003747565b62001e99565b6040516200072b9190620041be565b60405180910390f35b6200073e62002027565b6040516200074d91906200440f565b60405180910390f35b620007606200202d565b6040516200076f9190620042b9565b60405180910390f35b62000782620020c3565b005b620007a260048036038101906200079c9190620037ab565b620021e5565b604051620007b1919062004059565b60405180910390f35b620007c46200232c565b604051620007d3919062004059565b60405180910390f35b620007e662002356565b604051620007f5919062004059565b60405180910390f35b6200081c60048036038101906200081691906200393f565b6200237f565b6040516200082b9190620041be565b60405180910390f35b6200083e620023ea565b6040516200084d919062004059565b60405180910390f35b6200086062002410565b6040516200086f91906200440f565b60405180910390f35b62000896600480360381019062000890919062003747565b6200242c565b604051620008a59190620041be565b60405180910390f35b620008b86200244c565b604051620008c79190620041db565b60405180910390f35b620008da62002453565b005b620008e6620024f3565b604051620008f591906200419a565b60405180910390f35b620009086200258a565b005b620009146200262a565b005b6200092062002848565b6040516200092f919062004059565b60405180910390f35b6200095660048036038101906200095091906200393f565b62002872565b005b62000962620028a3565b604051620009719190620041be565b60405180910390f35b62000998600480360381019062000992919062003839565b620028b6565b604051620009a79190620041be565b60405180910390f35b620009ba620029b3565b005b620009da6004803603810190620009d4919062003747565b62002a53565b005b620009fa6004803603810190620009f491906200388a565b62002b57565b005b62000a0662002c03565b60405162000a1591906200417c565b60405180910390f35b601060009054906101000a900473ffffffffffffffffffffffffffffffffffffffff1681565b60007f7965db0b000000000000000000000000000000000000000000000000000000007bffffffffffffffffffffffffffffffffffffffffffffffffffffffff1916827bffffffffffffffffffffffffffffffffffffffffffffffffffffffff1916148062000aba575062000ab98262002c8f565b5b9050919050565b62000acb62002cf9565b73ffffffffffffffffffffffffffffffffffffffff1662000aeb62002356565b73ffffffffffffffffffffffffffffffffffffffff161462000b44576040517f08c379a000000000000000000000000000000000000000000000000000000000815260040162000b3b9062004365565b60405180910390fd5b62000b846040518060400160405280601081526020017f73657474696e67207363686564756c650000000000000000000000000000000081525062002d01565b73__$36fdb4e0c2cb91f3ceca5ea81b025328f3$__63d2c232b5600e600960065460056040518563ffffffff1660e01b815260040162000bc89493929190620041f8565b60006040518083038186803b15801562000be157600080fd5b505af415801562000bf6573d6000803e3d6000fd5b50505050565b600a60009054906101000a900473ffffffffffffffffffffffffffffffffffffffff1673ffffffffffffffffffffffffffffffffffffffff163373ffffffffffffffffffffffffffffffffffffffff161462000c8f576040517f08c379a000000000000000000000000000000000000000000000000000000000815260040162000c869062004387565b60405180910390fd5b600a60149054906101000a900460ff161562000ce2576040517f08c379a000000000000000000000000000000000000000000000000000000000815260040162000cd990620043a9565b60405180910390fd5b601260009054906101000a900473ffffffffffffffffffffffffffffffffffffffff1673ffffffffffffffffffffffffffffffffffffffff1663286dd3f5826040518263ffffffff1660e01b815260040162000d3f919062004059565b602060405180830381600087803b15801562000d5a57600080fd5b505af115801562000d6f573d6000803e3d6000fd5b505050506040513d601f19601f8201168201806040525081019062000d959190620038db565b5050565b62000da362002cf9565b73ffffffffffffffffffffffffffffffffffffffff1662000dc362002356565b73ffffffffffffffffffffffffffffffffffffffff161462000e1c576040517f08c379a000000000000000000000000000000000000000000000000000000000815260040162000e139062004365565b60405180910390fd5b600a60149054906101000a900460ff161562000e6f576040517f08c379a000000000000000000000000000000000000000000000000000000000815260040162000e6690620043cb565b60405180910390fd5b6008600980549050101562000f78576009819080600181540180825580915050600190039060005260206000200160009091909190916101000a81548173ffffffffffffffffffffffffffffffffffffffff021916908373ffffffffffffffffffffffffffffffffffffffff160217905550601360009054906101000a900473ffffffffffffffffffffffffffffffffffffffff1673ffffffffffffffffffffffffffffffffffffffff1663771bd4ce826040518263ffffffff1660e01b815260040162000f3e919062004059565b600060405180830381600087803b15801562000f5957600080fd5b505af115801562000f6e573d6000803e3d6000fd5b5050505062000f9d565b62000f9c60405180606001604052806029815260200162005c4b6029913962002d01565b5b50565b600c602052816000526040600020816008811062000fbd57600080fd5b01600091509150505481565b600090565b62000fd862002cf9565b73ffffffffffffffffffffffffffffffffffffffff1662000ff862002356565b73ffffffffffffffffffffffffffffffffffffffff161462001051576040517f08c379a0000000000000000000000000000000000000000000000000000000008152600401620010489062004365565b60405180910390fd5b600060098054905060085462001068919062004601565b9050600080600090505b600980549050811015620011a357600b60008373ffffffffffffffffffffffffffffffffffffffff1673ffffffffffffffffffffffffffffffffffffffff16815260200190815260200160002054600b600060098481548110620010db57620010da620048fe565b5b9060005260206000200160009054906101000a900473ffffffffffffffffffffffffffffffffffffffff1673ffffffffffffffffffffffffffffffffffffffff1673ffffffffffffffffffffffffffffffffffffffff1681526020019081526020016000205411156200118d57600981815481106200115f576200115e620048fe565b5b9060005260206000200160009054906101000a900473ffffffffffffffffffffffffffffffffffffffff1691505b80806200119a9062004852565b91505062001072565b50601460009054906101000a900473ffffffffffffffffffffffffffffffffffffffff1673ffffffffffffffffffffffffffffffffffffffff166323b872dd3330856040518463ffffffff1660e01b8152600401620012059392919062004076565b602060405180830381600087803b1580156200122057600080fd5b505af115801562001235573d6000803e3d6000fd5b505050506040513d601f19601f820116820180604052508101906200125b9190620038db565b505050565b600060016000838152602001908152602001600020600101549050919050565b60006200128c62002cf9565b73ffffffffffffffffffffffffffffffffffffffff16620012ac62002356565b73ffffffffffffffffffffffffffffffffffffffff161462001305576040517f08c379a0000000000000000000000000000000000000000000000000000000008152600401620012fc9062004365565b60405180910390fd5b60005b825181101562001377576200133a8382815181106200132c576200132b620048fe565b5b6020026020010151620013bd565b15620013615760016003600082825462001355919062004662565b92505081905550600191505b80806200136e9062004852565b91505062001308565b50919050565b600981815481106200138e57600080fd5b906000526020600020016000915054906101000a900473ffffffffffffffffffffffffffffffffffffffff1681565b6000620013c962002cf9565b73ffffffffffffffffffffffffffffffffffffffff16620013e962002356565b73ffffffffffffffffffffffffffffffffffffffff161462001442576040517f08c379a0000000000000000000000000000000000000000000000000000000008152600401620014399062004365565b60405180910390fd5b600260008373ffffffffffffffffffffffffffffffffffffffff1673ffffffffffffffffffffffffffffffffffffffff16815260200190815260200160002060009054906101000a900460ff161562001547576000600260008473ffffffffffffffffffffffffffffffffffffffff1673ffffffffffffffffffffffffffffffffffffffff16815260200190815260200160002060006101000a81548160ff0219169083151502179055507ff1abf01a1043b7c244d128e8595cf0c1d10743b022b03a02dffd8ca3bf729f5a826040516200151e919062004059565b60405180910390a16001600360008282546200153b919062004662565b92505081905550600190505b919050565b620015578262001260565b6200156c816200156662002cf9565b62002d9e565b62001578838362002e46565b505050565b6200158762002cf9565b73ffffffffffffffffffffffffffffffffffffffff168173ffffffffffffffffffffffffffffffffffffffff1614620015f7576040517f08c379a0000000000000000000000000000000000000000000000000000000008152600401620015ee90620043ed565b60405180910390fd5b62001603828262002f2b565b5050565b6000601460009054906101000a900473ffffffffffffffffffffffffffffffffffffffff1673ffffffffffffffffffffffffffffffffffffffff166370a08231306040518263ffffffff1660e01b815260040162001666919062004059565b60206040518083038186803b1580156200167f57600080fd5b505afa15801562001694573d6000803e3d6000fd5b505050506040513d601f19601f82011682018060405250810190620016ba919062003b04565b905090565b606060058054620016d090620047c8565b80601f0160208091040260200160405190810160405280929190818152602001828054620016fe90620047c8565b80156200174f5780601f1062001723576101008083540402835291602001916200174f565b820191906000526020600020905b8154815290600101906020018083116200173157829003601f168201915b5050505050905090565b60075481565b6000600980549050905090565b600060019054906101000a900460ff16620017965760008054906101000a900460ff1615620017a1565b620017a062003012565b5b620017e3576040517f08c379a0000000000000000000000000000000000000000000000000000000008152600401620017da9062004343565b60405180910390fd5b60008060019054906101000a900460ff16159050801562001834576001600060016101000a81548160ff02191690831515021790555060016000806101000a81548160ff0219169083151502179055505b8b8b6005919062001847929190620033a1565b5060086006819055506200185f6000801b8762003025565b6009869080600181540180825580915050600190039060005260206000200160009091909190916101000a81548173ffffffffffffffffffffffffffffffffffffffff021916908373ffffffffffffffffffffffffffffffffffffffff16021790555085600a60006101000a81548173ffffffffffffffffffffffffffffffffffffffff021916908373ffffffffffffffffffffffffffffffffffffffff1602179055508860088190555087600460006101000a81548160ff0219169083151502179055506000600a60156101000a81548160ff0219169083151502179055506000600a60146101000a81548160ff02191690831515021790555086601160006101000a81548173ffffffffffffffffffffffffffffffffffffffff021916908373ffffffffffffffffffffffffffffffffffffffff16021790555081601360006101000a81548173ffffffffffffffffffffffffffffffffffffffff021916908373ffffffffffffffffffffffffffffffffffffffff160217905550604051620019ea9062003432565b604051809103906000f08015801562001a07573d6000803e3d6000fd5b50601260006101000a81548173ffffffffffffffffffffffffffffffffffffffff021916908373ffffffffffffffffffffffffffffffffffffffff16021790555084600f60006101000a81548173ffffffffffffffffffffffffffffffffffffffff021916908373ffffffffffffffffffffffffffffffffffffffff16021790555083601060006101000a81548173ffffffffffffffffffffffffffffffffffffffff021916908373ffffffffffffffffffffffffffffffffffffffff16021790555082601460006101000a81548173ffffffffffffffffffffffffffffffffffffffff021916908373ffffffffffffffffffffffffffffffffffffffff16021790555062001b4b6040518060400160405280601281526020017f50726f787920696e697469616c697a656421000000000000000000000000000081525062002d01565b801562001b6d5760008060016101000a81548160ff0219169083151502179055505b505050505050505050505050565b6000600754905090565b6000601460009054906101000a900473ffffffffffffffffffffffffffffffffffffffff1673ffffffffffffffffffffffffffffffffffffffff166370a08231336040518263ffffffff1660e01b815260040162001be4919062004059565b60206040518083038186803b15801562001bfd57600080fd5b505afa15801562001c12573d6000803e3d6000fd5b505050506040513d601f19601f8201168201806040525081019062001c38919062003b04565b905090565b60085481565b6000600b60003373ffffffffffffffffffffffffffffffffffffffff1673ffffffffffffffffffffffffffffffffffffffff16815260200190815260200160002054905090565b6000600a60009054906101000a900473ffffffffffffffffffffffffffffffffffffffff16905090565b62001cbe62002cf9565b73ffffffffffffffffffffffffffffffffffffffff1662001cde62002356565b73ffffffffffffffffffffffffffffffffffffffff161462001d37576040517f08c379a000000000000000000000000000000000000000000000000000000000815260040162001d2e9062004365565b60405180910390fd5b62001d43600062003035565b565b6000600854905090565b600a60009054906101000a900473ffffffffffffffffffffffffffffffffffffffff1673ffffffffffffffffffffffffffffffffffffffff163373ffffffffffffffffffffffffffffffffffffffff161462001de2576040517f08c379a000000000000000000000000000000000000000000000000000000000815260040162001dd99062004387565b60405180910390fd5b601260009054906101000a900473ffffffffffffffffffffffffffffffffffffffff1673ffffffffffffffffffffffffffffffffffffffff16637b9417c8826040518263ffffffff1660e01b815260040162001e3f919062004059565b602060405180830381600087803b15801562001e5a57600080fd5b505af115801562001e6f573d6000803e3d6000fd5b505050506040513d601f19601f8201168201806040525081019062001e959190620038db565b5050565b600062001ea562002cf9565b73ffffffffffffffffffffffffffffffffffffffff1662001ec562002356565b73ffffffffffffffffffffffffffffffffffffffff161462001f1e576040517f08c379a000000000000000000000000000000000000000000000000000000000815260040162001f159062004365565b60405180910390fd5b600260008373ffffffffffffffffffffffffffffffffffffffff1673ffffffffffffffffffffffffffffffffffffffff16815260200190815260200160002060009054906101000a900460ff1662002022576001600260008473ffffffffffffffffffffffffffffffffffffffff1673ffffffffffffffffffffffffffffffffffffffff16815260200190815260200160002060006101000a81548160ff0219169083151502179055507fd1bba68c128cc3f427e5831b3c6f99f480b6efa6b9e80c757768f6124158cc3f8260405162001ff9919062004059565b60405180910390a1600160036000828254620020169190620045a4565b92505081905550600190505b919050565b60065481565b600580546200203c90620047c8565b80601f01602080910402602001604051908101604052809291908181526020018280546200206a90620047c8565b8015620020bb5780601f106200208f57610100808354040283529160200191620020bb565b820191906000526020600020905b8154815290600101906020018083116200209d57829003601f168201915b505050505081565b620020cd62002cf9565b73ffffffffffffffffffffffffffffffffffffffff16620020ed62002356565b73ffffffffffffffffffffffffffffffffffffffff161462002146576040517f08c379a00000000000000000000000000000000000000000000000000000000081526004016200213d9062004365565b60405180910390fd5b73__$36fdb4e0c2cb91f3ceca5ea81b025328f3$__63c406e268600e600754601160009054906101000a900473ffffffffffffffffffffffffffffffffffffffff16600c600b600d6040518763ffffffff1660e01b8152600401620021b1969594939291906200424c565b60006040518083038186803b158015620021ca57600080fd5b505af4158015620021df573d6000803e3d6000fd5b50505050565b600073__$36fdb4e0c2cb91f3ceca5ea81b025328f3$__63fb0841fb8484600754601160009054906101000a900473ffffffffffffffffffffffffffffffffffffffff16600d60008a73ffffffffffffffffffffffffffffffffffffffff1673ffffffffffffffffffffffffffffffffffffffff168152602001908152602001600020600d60008a73ffffffffffffffffffffffffffffffffffffffff1673ffffffffffffffffffffffffffffffffffffffff168152602001908152602001600020600c600b6040518963ffffffff1660e01b8152600401620022d0989796959493929190620040b3565b60206040518083038186803b158015620022e957600080fd5b505af4158015620022fe573d6000803e3d6000fd5b505050506040513d601f19601f8201168201806040525081019062002324919062003779565b905092915050565b6000601160009054906101000a900473ffffffffffffffffffffffffffffffffffffffff16905090565b60008060029054906101000a900473ffffffffffffffffffffffffffffffffffffffff16905090565b60006001600084815260200190815260200160002060000160008373ffffffffffffffffffffffffffffffffffffffff1673ffffffffffffffffffffffffffffffffffffffff16815260200190815260200160002060009054906101000a900460ff16905092915050565b600f60009054906101000a900473ffffffffffffffffffffffffffffffffffffffff1681565b600060098054905060085462002427919062004601565b905090565b60026020528060005260406000206000915054906101000a900460ff1681565b6000801b81565b6200245d62002cf9565b73ffffffffffffffffffffffffffffffffffffffff166200247d62002356565b73ffffffffffffffffffffffffffffffffffffffff1614620024d6576040517f08c379a0000000000000000000000000000000000000000000000000000000008152600401620024cd9062004365565b60405180910390fd5b6000600a60156101000a81548160ff021916908315150217905550565b6060600d60003373ffffffffffffffffffffffffffffffffffffffff1673ffffffffffffffffffffffffffffffffffffffff1681526020019081526020016000208054806020026020016040519081016040528092919081815260200182805480156200258057602002820191906000526020600020905b8154815260200190600101908083116200256b575b5050505050905090565b6200259462002cf9565b73ffffffffffffffffffffffffffffffffffffffff16620025b462002356565b73ffffffffffffffffffffffffffffffffffffffff16146200260d576040517f08c379a0000000000000000000000000000000000000000000000000000000008152600401620026049062004365565b60405180910390fd5b6001600a60156101000a81548160ff021916908315150217905550565b600260003373ffffffffffffffffffffffffffffffffffffffff1673ffffffffffffffffffffffffffffffffffffffff16815260200190815260200160002060009054906101000a900460ff16806200268f5750600460009054906101000a900460ff165b6200269957600080fd5b600a60149054906101000a900460ff1615620026ec576040517f08c379a0000000000000000000000000000000000000000000000000000000008152600401620026e390620043cb565b60405180910390fd5b6009339080600181540180825580915050600190039060005260206000200160009091909190916101000a81548173ffffffffffffffffffffffffffffffffffffffff021916908373ffffffffffffffffffffffffffffffffffffffff160217905550601460009054906101000a900473ffffffffffffffffffffffffffffffffffffffff1673ffffffffffffffffffffffffffffffffffffffff166323b872dd33306008546040518463ffffffff1660e01b8152600401620027b29392919062004076565b602060405180830381600087803b158015620027cd57600080fd5b505af1158015620027e2573d6000803e3d6000fd5b505050506040513d601f19601f82011682018060405250810190620028089190620038db565b507f9e71bc8eea02a63969f509818f2dafb9254532904319f9dbda79b67bd34a5f3d336008546040516200283e9291906200414f565b60405180910390a1565b6000601460009054906101000a900473ffffffffffffffffffffffffffffffffffffffff16905090565b6200287d8262001260565b62002892816200288c62002cf9565b62002d9e565b6200289e838362002f2b565b505050565b600460009054906101000a900460ff1681565b6000620028c262002cf9565b73ffffffffffffffffffffffffffffffffffffffff16620028e262002356565b73ffffffffffffffffffffffffffffffffffffffff16146200293b576040517f08c379a0000000000000000000000000000000000000000000000000000000008152600401620029329062004365565b60405180910390fd5b60005b8251811015620029ad5762002970838281518110620029625762002961620048fe565b5b602002602001015162001e99565b1562002997576001600360008282546200298b9190620045a4565b92505081905550600191505b8080620029a49062004852565b9150506200293e565b50919050565b620029bd62002cf9565b73ffffffffffffffffffffffffffffffffffffffff16620029dd62002356565b73ffffffffffffffffffffffffffffffffffffffff161462002a36576040517f08c379a000000000000000000000000000000000000000000000000000000000815260040162002a2d9062004365565b60405180910390fd5b6001600a60146101000a81548160ff021916908315150217905550565b62002a5d62002cf9565b73ffffffffffffffffffffffffffffffffffffffff1662002a7d62002356565b73ffffffffffffffffffffffffffffffffffffffff161462002ad6576040517f08c379a000000000000000000000000000000000000000000000000000000000815260040162002acd9062004365565b60405180910390fd5b600073ffffffffffffffffffffffffffffffffffffffff168173ffffffffffffffffffffffffffffffffffffffff16141562002b49576040517f08c379a000000000000000000000000000000000000000000000000000000000815260040162002b4090620042ff565b60405180910390fd5b62002b548162003035565b50565b600a60159054906101000a900460ff161562002baa576040517f08c379a000000000000000000000000000000000000000000000000000000000815260040162002ba19062004321565b60405180910390fd5b80600d60003373ffffffffffffffffffffffffffffffffffffffff1673ffffffffffffffffffffffffffffffffffffffff168152602001908152602001600020908051906020019062002bff92919062003440565b5050565b62002c0d62003492565b600c60003373ffffffffffffffffffffffffffffffffffffffff1673ffffffffffffffffffffffffffffffffffffffff16815260200190815260200160002060088060200260405190810160405280929190826008801562002c85576020028201915b81548152602001906001019080831162002c70575b5050505050905090565b60007f01ffc9a7000000000000000000000000000000000000000000000000000000007bffffffffffffffffffffffffffffffffffffffffffffffffffffffff1916827bffffffffffffffffffffffffffffffffffffffffffffffffffffffff1916149050919050565b600033905090565b62002d9b8160405160240162002d189190620042b9565b6040516020818303038152906040527f41304fac000000000000000000000000000000000000000000000000000000007bffffffffffffffffffffffffffffffffffffffffffffffffffffffff19166020820180517bffffffffffffffffffffffffffffffffffffffffffffffffffffffff8381831617835250505050620030fa565b50565b62002daa82826200237f565b62002e425762002dd28173ffffffffffffffffffffffffffffffffffffffff16601462003123565b62002de28360001c602062003123565b60405160200162002df592919062004017565b6040516020818303038152906040526040517f08c379a000000000000000000000000000000000000000000000000000000000815260040162002e399190620042b9565b60405180910390fd5b5050565b62002e5282826200237f565b62002f2757600180600084815260200190815260200160002060000160008373ffffffffffffffffffffffffffffffffffffffff1673ffffffffffffffffffffffffffffffffffffffff16815260200190815260200160002060006101000a81548160ff02191690831515021790555062002ecc62002cf9565b73ffffffffffffffffffffffffffffffffffffffff168173ffffffffffffffffffffffffffffffffffffffff16837f2f8788117e7eff1d82e926ec794901d17c78024a50270940304540a733656f0d60405160405180910390a45b5050565b62002f3782826200237f565b156200300e5760006001600084815260200190815260200160002060000160008373ffffffffffffffffffffffffffffffffffffffff1673ffffffffffffffffffffffffffffffffffffffff16815260200190815260200160002060006101000a81548160ff02191690831515021790555062002fb362002cf9565b73ffffffffffffffffffffffffffffffffffffffff168173ffffffffffffffffffffffffffffffffffffffff16837ff6391f5c32d9c69d2a47ea670b442974b53935d1edc7fd64eb21e047a839171b60405160405180910390a45b5050565b60006200301f306200337e565b15905090565b62003031828262002e46565b5050565b60008060029054906101000a900473ffffffffffffffffffffffffffffffffffffffff16905081600060026101000a81548173ffffffffffffffffffffffffffffffffffffffff021916908373ffffffffffffffffffffffffffffffffffffffff1602179055508173ffffffffffffffffffffffffffffffffffffffff168173ffffffffffffffffffffffffffffffffffffffff167f8be0079c531659141344cd1fd0a4f28419497f9722a3daafe3b4186f6b6457e060405160405180910390a35050565b60008151905060006a636f6e736f6c652e6c6f679050602083016000808483855afa5050505050565b60606000600283600262003138919062004601565b620031449190620045a4565b67ffffffffffffffff81111562003160576200315f6200492d565b5b6040519080825280601f01601f191660200182016040528015620031935781602001600182028036833780820191505090505b5090507f300000000000000000000000000000000000000000000000000000000000000081600081518110620031ce57620031cd620048fe565b5b60200101907effffffffffffffffffffffffffffffffffffffffffffffffffffffffffffff1916908160001a9053507f780000000000000000000000000000000000000000000000000000000000000081600181518110620032355762003234620048fe565b5b60200101907effffffffffffffffffffffffffffffffffffffffffffffffffffffffffffff1916908160001a9053506000600184600262003277919062004601565b620032839190620045a4565b90505b60018111156200332d577f3031323334353637383961626364656600000000000000000000000000000000600f861660108110620032c957620032c8620048fe565b5b1a60f81b828281518110620032e357620032e2620048fe565b5b60200101907effffffffffffffffffffffffffffffffffffffffffffffffffffffffffffff1916908160001a905350600485901c945080620033259062004799565b905062003286565b506000841462003374576040517f08c379a00000000000000000000000000000000000000000000000000000000081526004016200336b90620042dd565b60405180910390fd5b8091505092915050565b6000808273ffffffffffffffffffffffffffffffffffffffff163b119050919050565b828054620033af90620047c8565b90600052602060002090601f016020900481019282620033d357600085556200341f565b82601f10620033ee57803560ff19168380011785556200341f565b828001600101855582156200341f579182015b828111156200341e57823582559160200191906001019062003401565b5b5090506200342e9190620034b5565b5090565b610f9f8062004cac83390190565b8280548282559060005260206000209081019282156200347f579160200282015b828111156200347e57825182559160200191906001019062003461565b5b5090506200348e9190620034b5565b5090565b604051806101000160405280600890602082028036833780820191505090505090565b5b80821115620034d0576000816000905550600101620034b6565b5090565b6000620034eb620034e58462004455565b6200442c565b905080838252602082019050828560208602820111156200351157620035106200497b565b5b60005b858110156200354557816200352a8882620035ca565b84526020840193506020830192505060018101905062003514565b5050509392505050565b600062003566620035608462004484565b6200442c565b905080838252602082019050828560208602820111156200358c576200358b6200497b565b5b60005b85811015620035c05781620035a5888262003719565b8452602084019350602083019250506001810190506200358f565b5050509392505050565b600081359050620035db8162004c29565b92915050565b600081519050620035f28162004c29565b92915050565b600082601f83011262003610576200360f62004976565b5b813562003622848260208601620034d4565b91505092915050565b600082601f83011262003643576200364262004976565b5b8135620036558482602086016200354f565b91505092915050565b6000813590506200366f8162004c43565b92915050565b600081519050620036868162004c43565b92915050565b6000813590506200369d8162004c5d565b92915050565b600081359050620036b48162004c77565b92915050565b60008083601f840112620036d357620036d262004976565b5b8235905067ffffffffffffffff811115620036f357620036f262004971565b5b6020830191508360018202830111156200371257620037116200497b565b5b9250929050565b6000813590506200372a8162004c91565b92915050565b600081519050620037418162004c91565b92915050565b60006020828403121562003760576200375f62004985565b5b60006200377084828501620035ca565b91505092915050565b60006020828403121562003792576200379162004985565b5b6000620037a284828501620035e1565b91505092915050565b60008060408385031215620037c557620037c462004985565b5b6000620037d585828601620035ca565b9250506020620037e885828601620035ca565b9150509250929050565b600080604083850312156200380c576200380b62004985565b5b60006200381c85828601620035ca565b92505060206200382f8582860162003719565b9150509250929050565b60006020828403121562003852576200385162004985565b5b600082013567ffffffffffffffff81111562003873576200387262004980565b5b6200388184828501620035f8565b91505092915050565b600060208284031215620038a357620038a262004985565b5b600082013567ffffffffffffffff811115620038c457620038c362004980565b5b620038d2848285016200362b565b91505092915050565b600060208284031215620038f457620038f362004985565b5b6000620039048482850162003675565b91505092915050565b60006020828403121562003926576200392562004985565b5b600062003936848285016200368c565b91505092915050565b6000806040838503121562003959576200395862004985565b5b600062003969858286016200368c565b92505060206200397c85828601620035ca565b9150509250929050565b6000602082840312156200399f576200399e62004985565b5b6000620039af84828501620036a3565b91505092915050565b60008060008060008060008060008060006101408c8e031215620039e157620039e062004985565b5b60008c013567ffffffffffffffff81111562003a025762003a0162004980565b5b62003a108e828f01620036ba565b9b509b5050602062003a258e828f0162003719565b995050604062003a388e828f0162003719565b985050606062003a4b8e828f016200365e565b975050608062003a5e8e828f01620035ca565b96505060a062003a718e828f01620035ca565b95505060c062003a848e828f01620035ca565b94505060e062003a978e828f01620035ca565b93505061010062003aab8e828f01620035ca565b92505061012062003abf8e828f01620035ca565b9150509295989b509295989b9093969950565b60006020828403121562003aeb5762003aea62004985565b5b600062003afb8482850162003719565b91505092915050565b60006020828403121562003b1d5762003b1c62004985565b5b600062003b2d8482850162003730565b91505092915050565b600062003b44838362003fd3565b60208301905092915050565b600062003b5e838362004006565b60208301905092915050565b62003b7581620046a7565b82525050565b62003b8681620046a7565b82525050565b8082525050565b62003b9e81620044f7565b62003baa81846200454a565b925062003bb782620044b3565b8060005b8381101562003bee57815162003bd2878262003b36565b965062003bdf8362004523565b92505060018101905062003bbb565b505050505050565b600062003c038262004502565b62003c0f818562004555565b935062003c1c83620044bd565b8060005b8381101562003c5357815162003c37888262003b36565b975062003c448362004530565b92505060018101905062003c20565b5085935050505092915050565b600062003c6d826200450d565b62003c79818562004566565b935062003c8683620044cd565b8060005b8381101562003cc65762003c9e826200495c565b62003caa888262003b50565b975062003cb7836200453d565b92505060018101905062003c8a565b5085935050505092915050565b62003cde81620046bb565b82525050565b62003cef81620046c7565b82525050565b62003d008162004727565b82525050565b8082525050565b8082525050565b8082525050565b8082525050565b600062003d2f8262004518565b62003d3b818562004577565b935062003d4d81856020860162004763565b62003d58816200498a565b840191505092915050565b600062003d708262004518565b62003d7c818562004599565b935062003d8e81856020860162004763565b80840191505092915050565b6000815462003da981620047c8565b62003db5818662004588565b9450600182166000811462003dd3576001811462003de65762003e1d565b60ff198316865260208601935062003e1d565b62003df185620044e2565b60005b8381101562003e155781548189015260018201915060208101905062003df4565b808801955050505b50505092915050565b600062003e3560208362004577565b915062003e4282620049a8565b602082019050919050565b600062003e5c60268362004577565b915062003e6982620049d1565b604082019050919050565b600062003e83601e8362004577565b915062003e908262004a20565b602082019050919050565b600062003eaa602e8362004577565b915062003eb78262004a49565b604082019050919050565b600062003ed160208362004577565b915062003ede8262004a98565b602082019050919050565b600062003ef860178362004577565b915062003f058262004ac1565b602082019050919050565b600062003f1f60418362004577565b915062003f2c8262004aea565b606082019050919050565b600062003f4660178362004599565b915062003f538262004b5f565b601782019050919050565b600062003f6d60178362004577565b915062003f7a8262004b88565b602082019050919050565b600062003f9460118362004599565b915062003fa18262004bb1565b601182019050919050565b600062003fbb602f8362004577565b915062003fc88262004bda565b604082019050919050565b62003fde816200471d565b82525050565b62003fef816200471d565b82525050565b62004000816200471d565b82525050565b62004011816200471d565b82525050565b6000620040248262003f37565b915062004032828562003d63565b91506200403f8262003f85565b91506200404d828462003d63565b91508190509392505050565b600060208201905062004070600083018462003b6a565b92915050565b60006060820190506200408d600083018662003b6a565b6200409c602083018562003b6a565b620040ab604083018462003fe4565b949350505050565b600061010082019050620040cb600083018b62003b7b565b620040da602083018a62003b7b565b620040e9604083018962003ff5565b620040f8606083018862003cf5565b81810360808301526200410c818762003c60565b905081810360a083015262004122818662003c60565b90506200413360c083018562003d06565b6200414260e083018462003d14565b9998505050505050505050565b600060408201905062004166600083018562003b6a565b62004175602083018462003fe4565b9392505050565b60006101008201905062004194600083018462003b93565b92915050565b60006020820190508181036000830152620041b6818462003bf6565b905092915050565b6000602082019050620041d5600083018462003cd3565b92915050565b6000602082019050620041f2600083018462003ce4565b92915050565b60006080820190506200420f600083018762003d1b565b6200421e602083018662003b8c565b6200422d604083018562003ff5565b818103606083015262004241818462003d9a565b905095945050505050565b600060c08201905062004263600083018962003d1b565b62004272602083018862003ff5565b62004281604083018762003cf5565b62004290606083018662003d06565b6200429f608083018562003d14565b620042ae60a083018462003d0d565b979650505050505050565b60006020820190508181036000830152620042d5818462003d22565b905092915050565b60006020820190508181036000830152620042f88162003e26565b9050919050565b600060208201905081810360008301526200431a8162003e4d565b9050919050565b600060208201905081810360008301526200433c8162003e74565b9050919050565b600060208201905081810360008301526200435e8162003e9b565b9050919050565b60006020820190508181036000830152620043808162003ec2565b9050919050565b60006020820190508181036000830152620043a28162003ee9565b9050919050565b60006020820190508181036000830152620043c48162003f10565b9050919050565b60006020820190508181036000830152620043e68162003f5e565b9050919050565b60006020820190508181036000830152620044088162003fac565b9050919050565b600060208201905062004426600083018462003fe4565b92915050565b6000620044386200444b565b90506200444682826200481c565b919050565b6000604051905090565b600067ffffffffffffffff8211156200447357620044726200492d565b5b602082029050602081019050919050565b600067ffffffffffffffff821115620044a257620044a16200492d565b5b602082029050602081019050919050565b6000819050919050565b6000819050602082019050919050565b60008190508160005260206000209050919050565b60008190508160005260206000209050919050565b600060089050919050565b600081519050919050565b600081549050919050565b600081519050919050565b6000602082019050919050565b6000602082019050919050565b6000600182019050919050565b600081905092915050565b600082825260208201905092915050565b600082825260208201905092915050565b600082825260208201905092915050565b600082825260208201905092915050565b600081905092915050565b6000620045b1826200471d565b9150620045be836200471d565b9250827fffffffffffffffffffffffffffffffffffffffffffffffffffffffffffffffff03821115620045f657620045f5620048a0565b5b828201905092915050565b60006200460e826200471d565b91506200461b836200471d565b9250817fffffffffffffffffffffffffffffffffffffffffffffffffffffffffffffffff0483118215151615620046575762004656620048a0565b5b828202905092915050565b60006200466f826200471d565b91506200467c836200471d565b925082821015620046925762004691620048a0565b5b828203905092915050565b6000819050919050565b6000620046b482620046fd565b9050919050565b60008115159050919050565b6000819050919050565b60007fffffffff0000000000000000000000000000000000000000000000000000000082169050919050565b600073ffffffffffffffffffffffffffffffffffffffff82169050919050565b6000819050919050565b600062004734826200473b565b9050919050565b600062004748826200474f565b9050919050565b60006200475c82620046fd565b9050919050565b60005b838110156200478357808201518184015260208101905062004766565b8381111562004793576000848401525b50505050565b6000620047a6826200471d565b91506000821415620047bd57620047bc620048a0565b5b600182039050919050565b60006002820490506001821680620047e157607f821691505b60208210811415620047f857620047f7620048cf565b5b50919050565b6000620048156200480f836200499b565b6200469d565b9050919050565b62004827826200498a565b810181811067ffffffffffffffff821117156200484957620048486200492d565b5b80604052505050565b60006200485f826200471d565b91507fffffffffffffffffffffffffffffffffffffffffffffffffffffffffffffffff821415620048955762004894620048a0565b5b600182019050919050565b7f4e487b7100000000000000000000000000000000000000000000000000000000600052601160045260246000fd5b7f4e487b7100000000000000000000000000000000000000000000000000000000600052602260045260246000fd5b7f4e487b7100000000000000000000000000000000000000000000000000000000600052603260045260246000fd5b7f4e487b7100000000000000000000000000000000000000000000000000000000600052604160045260246000fd5b60006200496a8254620047fe565b9050919050565b600080fd5b600080fd5b600080fd5b600080fd5b600080fd5b6000601f19601f8301169050919050565b60008160001c9050919050565b7f537472696e67733a20686578206c656e67746820696e73756666696369656e74600082015250565b7f4f776e61626c653a206e6577206f776e657220697320746865207a65726f206160008201527f6464726573730000000000000000000000000000000000000000000000000000602082015250565b7f6c696e657570206973206c6f636b656420666f7220746865207765656b210000600082015250565b7f496e697469616c697a61626c653a20636f6e747261637420697320616c72656160008201527f647920696e697469616c697a6564000000000000000000000000000000000000602082015250565b7f4f776e61626c653a2063616c6c6572206973206e6f7420746865206f776e6572600082015250565b7f43616c6c6572206973206e6f74207468652061646d696e000000000000000000600082015250565b7f4e6f626f64792063616e20656e7465722f6578697420746865206c656167756560008201527f20616e796d6f72652e2054686520736561736f6e20686173207374617274656460208201527f2100000000000000000000000000000000000000000000000000000000000000604082015250565b7f416363657373436f6e74726f6c3a206163636f756e7420000000000000000000600082015250565b7f4c656167756520456e74727920697320436c6f73656421000000000000000000600082015250565b7f206973206d697373696e6720726f6c6520000000000000000000000000000000600082015250565b7f416363657373436f6e74726f6c3a2063616e206f6e6c792072656e6f756e636560008201527f20726f6c657320666f722073656c660000000000000000000000000000000000602082015250565b62004c3481620046a7565b811462004c4057600080fd5b50565b62004c4e81620046bb565b811462004c5a57600080fd5b50565b62004c6881620046c7565b811462004c7457600080fd5b50565b62004c8281620046d1565b811462004c8e57600080fd5b50565b62004c9c816200471d565b811462004ca857600080fd5b5056fe608060405234801561001057600080fd5b5061002d61002261003260201b60201c565b61003a60201b60201c565b6100fe565b600033905090565b60008060009054906101000a900473ffffffffffffffffffffffffffffffffffffffff169050816000806101000a81548173ffffffffffffffffffffffffffffffffffffffff021916908373ffffffffffffffffffffffffffffffffffffffff1602179055508173ffffffffffffffffffffffffffffffffffffffff168173ffffffffffffffffffffffffffffffffffffffff167f8be0079c531659141344cd1fd0a4f28419497f9722a3daafe3b4186f6b6457e060405160405180910390a35050565b610e928061010d6000396000f3fe608060405234801561001057600080fd5b50600436106100935760003560e01c80638da5cb5b116100665780638da5cb5b146101325780639b19251a14610150578063dc9a153514610180578063e2ec6ec31461019e578063f2fde38b146101ce57610093565b806324953eaa14610098578063286dd3f5146100c8578063715018a6146100f85780637b9417c814610102575b600080fd5b6100b260048036038101906100ad9190610a4a565b6101ea565b6040516100bf9190610b12565b60405180910390f35b6100e260048036038101906100dd9190610a1d565b6102d4565b6040516100ef9190610b12565b60405180910390f35b610100610457565b005b61011c60048036038101906101179190610a1d565b6104df565b6040516101299190610b12565b60405180910390f35b61013a610660565b6040516101479190610af7565b60405180910390f35b61016a60048036038101906101659190610a1d565b610689565b6040516101779190610b12565b60405180910390f35b6101886106a9565b6040516101959190610b12565b60405180910390f35b6101b860048036038101906101b39190610a4a565b6106bc565b6040516101c59190610b12565b60405180910390f35b6101e860048036038101906101e39190610a1d565b6107a6565b005b60006101f461089e565b73ffffffffffffffffffffffffffffffffffffffff16610212610660565b73ffffffffffffffffffffffffffffffffffffffff1614610268576040517f08c379a000000000000000000000000000000000000000000000000000000000815260040161025f90610b4d565b60405180910390fd5b60005b82518110156102ce5761029783828151811061028a57610289610d4a565b5b60200260200101516102d4565b156102bb576001600260008282546102af9190610c25565b92505081905550600191505b80806102c690610cd2565b91505061026b565b50919050565b60006102de61089e565b73ffffffffffffffffffffffffffffffffffffffff166102fc610660565b73ffffffffffffffffffffffffffffffffffffffff1614610352576040517f08c379a000000000000000000000000000000000000000000000000000000000815260040161034990610b4d565b60405180910390fd5b600160008373ffffffffffffffffffffffffffffffffffffffff1673ffffffffffffffffffffffffffffffffffffffff16815260200190815260200160002060009054906101000a900460ff1615610452576000600160008473ffffffffffffffffffffffffffffffffffffffff1673ffffffffffffffffffffffffffffffffffffffff16815260200190815260200160002060006101000a81548160ff0219169083151502179055507ff1abf01a1043b7c244d128e8595cf0c1d10743b022b03a02dffd8ca3bf729f5a8260405161042b9190610af7565b60405180910390a16001600260008282546104469190610c25565b92505081905550600190505b919050565b61045f61089e565b73ffffffffffffffffffffffffffffffffffffffff1661047d610660565b73ffffffffffffffffffffffffffffffffffffffff16146104d3576040517f08c379a00000000000000000000000000000000000000000000000000000000081526004016104ca90610b4d565b60405180910390fd5b6104dd60006108a6565b565b60006104e961089e565b73ffffffffffffffffffffffffffffffffffffffff16610507610660565b73ffffffffffffffffffffffffffffffffffffffff161461055d576040517f08c379a000000000000000000000000000000000000000000000000000000000815260040161055490610b4d565b60405180910390fd5b600160008373ffffffffffffffffffffffffffffffffffffffff1673ffffffffffffffffffffffffffffffffffffffff16815260200190815260200160002060009054906101000a900460ff1661065b5760018060008473ffffffffffffffffffffffffffffffffffffffff1673ffffffffffffffffffffffffffffffffffffffff16815260200190815260200160002060006101000a81548160ff0219169083151502179055507fd1bba68c128cc3f427e5831b3c6f99f480b6efa6b9e80c757768f6124158cc3f826040516106349190610af7565b60405180910390a160016002600082825461064f9190610bcf565b92505081905550600190505b919050565b60008060009054906101000a900473ffffffffffffffffffffffffffffffffffffffff16905090565b60016020528060005260406000206000915054906101000a900460ff1681565b600360009054906101000a900460ff1681565b60006106c661089e565b73ffffffffffffffffffffffffffffffffffffffff166106e4610660565b73ffffffffffffffffffffffffffffffffffffffff161461073a576040517f08c379a000000000000000000000000000000000000000000000000000000000815260040161073190610b4d565b60405180910390fd5b60005b82518110156107a05761076983828151811061075c5761075b610d4a565b5b60200260200101516104df565b1561078d576001600260008282546107819190610bcf565b92505081905550600191505b808061079890610cd2565b91505061073d565b50919050565b6107ae61089e565b73ffffffffffffffffffffffffffffffffffffffff166107cc610660565b73ffffffffffffffffffffffffffffffffffffffff1614610822576040517f08c379a000000000000000000000000000000000000000000000000000000000815260040161081990610b4d565b60405180910390fd5b600073ffffffffffffffffffffffffffffffffffffffff168173ffffffffffffffffffffffffffffffffffffffff161415610892576040517f08c379a000000000000000000000000000000000000000000000000000000000815260040161088990610b2d565b60405180910390fd5b61089b816108a6565b50565b600033905090565b60008060009054906101000a900473ffffffffffffffffffffffffffffffffffffffff169050816000806101000a81548173ffffffffffffffffffffffffffffffffffffffff021916908373ffffffffffffffffffffffffffffffffffffffff1602179055508173ffffffffffffffffffffffffffffffffffffffff168173ffffffffffffffffffffffffffffffffffffffff167f8be0079c531659141344cd1fd0a4f28419497f9722a3daafe3b4186f6b6457e060405160405180910390a35050565b600061097d61097884610b92565b610b6d565b905080838252602082019050828560208602820111156109a05761099f610dad565b5b60005b858110156109d057816109b688826109da565b8452602084019350602083019250506001810190506109a3565b5050509392505050565b6000813590506109e981610e45565b92915050565b600082601f830112610a0457610a03610da8565b5b8135610a1484826020860161096a565b91505092915050565b600060208284031215610a3357610a32610db7565b5b6000610a41848285016109da565b91505092915050565b600060208284031215610a6057610a5f610db7565b5b600082013567ffffffffffffffff811115610a7e57610a7d610db2565b5b610a8a848285016109ef565b91505092915050565b610a9c81610c59565b82525050565b610aab81610c6b565b82525050565b6000610abe602683610bbe565b9150610ac982610dcd565b604082019050919050565b6000610ae1602083610bbe565b9150610aec82610e1c565b602082019050919050565b6000602082019050610b0c6000830184610a93565b92915050565b6000602082019050610b276000830184610aa2565b92915050565b60006020820190508181036000830152610b4681610ab1565b9050919050565b60006020820190508181036000830152610b6681610ad4565b9050919050565b6000610b77610b88565b9050610b838282610ca1565b919050565b6000604051905090565b600067ffffffffffffffff821115610bad57610bac610d79565b5b602082029050602081019050919050565b600082825260208201905092915050565b6000610bda82610c97565b9150610be583610c97565b9250827fffffffffffffffffffffffffffffffffffffffffffffffffffffffffffffffff03821115610c1a57610c19610d1b565b5b828201905092915050565b6000610c3082610c97565b9150610c3b83610c97565b925082821015610c4e57610c4d610d1b565b5b828203905092915050565b6000610c6482610c77565b9050919050565b60008115159050919050565b600073ffffffffffffffffffffffffffffffffffffffff82169050919050565b6000819050919050565b610caa82610dbc565b810181811067ffffffffffffffff82111715610cc957610cc8610d79565b5b80604052505050565b6000610cdd82610c97565b91507fffffffffffffffffffffffffffffffffffffffffffffffffffffffffffffffff821415610d1057610d0f610d1b565b5b600182019050919050565b7f4e487b7100000000000000000000000000000000000000000000000000000000600052601160045260246000fd5b7f4e487b7100000000000000000000000000000000000000000000000000000000600052603260045260246000fd5b7f4e487b7100000000000000000000000000000000000000000000000000000000600052604160045260246000fd5b600080fd5b600080fd5b600080fd5b600080fd5b6000601f19601f8301169050919050565b7f4f776e61626c653a206e6577206f776e657220697320746865207a65726f206160008201527f6464726573730000000000000000000000000000000000000000000000000000602082015250565b7f4f776e61626c653a2063616c6c6572206973206e6f7420746865206f776e6572600082015250565b610e4e81610c59565b8114610e5957600080fd5b5056fea2646970667358221220a21085165a95bba102b3fe59880e17f3027964706b8a63561e6b8ccd43ba90fb64736f6c63430008070033546f6f206d616e7920757365727320696e206c656167756520746f20616464206e657720757365722ea264697066735822122060490670798202627eafc5112a322a9297a462b57fe5ea3544a6954961d7260164736f6c63430008070033",
  "linkReferences": {
    "contracts/MOBALogicLibrary.sol": {
      "MOBALogicLibrary": [
        {
          "length": 20,
          "start": 3227
        },
        {
          "length": 20,
          "start": 8797
        },
        {
          "length": 20,
          "start": 8958
        }
      ]
    }
  },
  "deployedLinkReferences": {
    "contracts/MOBALogicLibrary.sol": {
      "MOBALogicLibrary": [
        {
          "length": 20,
          "start": 2950
        },
        {
          "length": 20,
          "start": 8520
        },
        {
          "length": 20,
          "start": 8681
        }
      ]
    }
  }
}