{
  "_format": "hh-sol-artifact-1",
  "contractName": "LeagueOfLegendsLogic",
  "sourceName": "contracts/LeagueOfLegendsLogic.sol",
  "abi": [
    {
      "anonymous": false,
      "inputs": [
        {
          "indexed": false,
          "internalType": "address",
          "name": "sender",
          "type": "address"
        },
        {
          "indexed": false,
          "internalType": "uint256",
          "name": "amount",
          "type": "uint256"
        },
        {
          "indexed": false,
          "internalType": "address",
          "name": "leagueAddress",
          "type": "address"
        }
      ],
      "name": "Staked",
      "type": "event"
    },
    {
      "anonymous": false,
      "inputs": [
        {
          "indexed": false,
          "internalType": "address[]",
          "name": "winner",
          "type": "address[]"
        },
        {
          "indexed": false,
          "internalType": "uint256",
          "name": "prizePotPerWinner",
          "type": "uint256"
        }
      ],
      "name": "leagueEnded",
      "type": "event"
    },
    {
      "anonymous": false,
      "inputs": [
        {
          "indexed": false,
          "internalType": "address",
          "name": "sender",
          "type": "address"
        },
        {
          "indexed": false,
          "internalType": "address",
          "name": "contractAddress",
          "type": "address"
        }
      ],
      "name": "testUSDCDeployed",
      "type": "event"
    },
    {
      "inputs": [
        {
          "internalType": "address",
          "name": "_userToAdd",
          "type": "address"
        }
      ],
      "name": "addUserToWhitelist",
      "outputs": [],
      "stateMutability": "nonpayable",
      "type": "function"
    },
    {
      "inputs": [],
      "name": "admin",
      "outputs": [
        {
          "internalType": "address",
          "name": "",
          "type": "address"
        }
      ],
      "stateMutability": "view",
      "type": "function"
    },
    {
      "inputs": [],
      "name": "currentWeekNum",
      "outputs": [
        {
          "internalType": "uint256",
          "name": "",
          "type": "uint256"
        }
      ],
      "stateMutability": "view",
      "type": "function"
    },
    {
      "inputs": [],
      "name": "evaluateMatches",
      "outputs": [],
      "stateMutability": "nonpayable",
      "type": "function"
    },
    {
      "inputs": [],
      "name": "getAdmin",
      "outputs": [
        {
          "internalType": "address",
          "name": "",
          "type": "address"
        }
      ],
      "stateMutability": "view",
      "type": "function"
    },
    {
      "inputs": [],
      "name": "getContractUSDCBalance",
      "outputs": [
        {
          "internalType": "uint256",
          "name": "",
          "type": "uint256"
        }
      ],
      "stateMutability": "view",
      "type": "function"
    },
    {
      "inputs": [
        {
          "internalType": "uint256",
          "name": "index",
          "type": "uint256"
        }
      ],
      "name": "getLeagueMember",
      "outputs": [
        {
          "internalType": "address",
          "name": "",
          "type": "address"
        }
      ],
      "stateMutability": "view",
      "type": "function"
    },
    {
      "inputs": [],
      "name": "getLeagueMembersLength",
      "outputs": [
        {
          "internalType": "uint256",
          "name": "",
          "type": "uint256"
        }
      ],
      "stateMutability": "view",
      "type": "function"
    },
    {
      "inputs": [
        {
          "internalType": "address",
          "name": "_user",
          "type": "address"
        }
      ],
      "name": "getLineup",
      "outputs": [
        {
          "internalType": "uint256[5]",
          "name": "",
          "type": "uint256[5]"
        }
      ],
      "stateMutability": "view",
      "type": "function"
    },
    {
      "inputs": [],
      "name": "getLineupIsLocked",
      "outputs": [
        {
          "internalType": "bool",
          "name": "",
          "type": "bool"
        }
      ],
      "stateMutability": "view",
      "type": "function"
    },
    {
      "inputs": [
        {
          "internalType": "uint256",
          "name": "_week",
          "type": "uint256"
        }
      ],
      "name": "getScheduleForWeek",
      "outputs": [
        {
          "components": [
            {
              "internalType": "address[2]",
              "name": "players",
              "type": "address[2]"
            }
          ],
          "internalType": "struct LeagueOfLegendsLogic.Matchup[]",
          "name": "",
          "type": "tuple[]"
        }
      ],
      "stateMutability": "view",
      "type": "function"
    },
    {
      "inputs": [],
      "name": "getUserRecord",
      "outputs": [
        {
          "internalType": "uint256[8]",
          "name": "",
          "type": "uint256[8]"
        }
      ],
      "stateMutability": "view",
      "type": "function"
    },
    {
      "inputs": [
        {
          "internalType": "address",
          "name": "",
          "type": "address"
        }
      ],
      "name": "inLeague",
      "outputs": [
        {
          "internalType": "bool",
          "name": "",
          "type": "bool"
        }
      ],
      "stateMutability": "view",
      "type": "function"
    },
    {
      "inputs": [
        {
          "internalType": "string",
          "name": "_name",
          "type": "string"
        },
        {
          "internalType": "uint256",
          "name": "_stakeAmount",
          "type": "uint256"
        },
        {
          "internalType": "bool",
          "name": "_isPublic",
          "type": "bool"
        },
        {
          "internalType": "address",
          "name": "athletesDataStorageAddress",
          "type": "address"
        },
        {
          "internalType": "address",
          "name": "_admin",
          "type": "address"
        },
        {
          "internalType": "address",
          "name": "_rinkebyUSDCAddress",
          "type": "address"
        },
        {
          "internalType": "address",
          "name": "_testUSDCAddress",
          "type": "address"
        },
        {
          "internalType": "address",
          "name": "_gameItemsContractAddress",
          "type": "address"
        },
        {
          "internalType": "address",
          "name": "_teamDiffAddress",
          "type": "address"
        },
        {
          "internalType": "address",
          "name": "_leagueMakerContractAddress",
          "type": "address"
        }
      ],
      "name": "initialize",
      "outputs": [],
      "stateMutability": "nonpayable",
      "type": "function"
    },
    {
      "inputs": [],
      "name": "joinLeague",
      "outputs": [],
      "stateMutability": "nonpayable",
      "type": "function"
    },
    {
      "inputs": [],
      "name": "leagueEntryIsClosed",
      "outputs": [
        {
          "internalType": "bool",
          "name": "",
          "type": "bool"
        }
      ],
      "stateMutability": "view",
      "type": "function"
    },
    {
      "inputs": [
        {
          "internalType": "uint256",
          "name": "",
          "type": "uint256"
        }
      ],
      "name": "leagueMembers",
      "outputs": [
        {
          "internalType": "address",
          "name": "",
          "type": "address"
        }
      ],
      "stateMutability": "view",
      "type": "function"
    },
    {
      "inputs": [],
      "name": "leagueName",
      "outputs": [
        {
          "internalType": "string",
          "name": "",
          "type": "string"
        }
      ],
      "stateMutability": "view",
      "type": "function"
    },
    {
      "inputs": [],
      "name": "lineupIsLocked",
      "outputs": [
        {
          "internalType": "bool",
          "name": "",
          "type": "bool"
        }
      ],
      "stateMutability": "view",
      "type": "function"
    },
    {
      "inputs": [],
      "name": "lockLineup",
      "outputs": [],
      "stateMutability": "nonpayable",
      "type": "function"
    },
    {
      "inputs": [],
      "name": "numWeeks",
      "outputs": [
        {
          "internalType": "uint256",
          "name": "",
          "type": "uint256"
        }
      ],
      "stateMutability": "view",
      "type": "function"
    },
    {
      "inputs": [],
      "name": "onLeagueEnd",
      "outputs": [],
      "stateMutability": "nonpayable",
      "type": "function"
    },
    {
      "inputs": [
        {
          "internalType": "address",
          "name": "_userToRemove",
          "type": "address"
        }
      ],
      "name": "removeFromWhitelist",
      "outputs": [],
      "stateMutability": "nonpayable",
      "type": "function"
    },
    {
      "inputs": [],
      "name": "rinkebyUSDC",
      "outputs": [
        {
          "internalType": "contract IERC20",
          "name": "",
          "type": "address"
        }
      ],
      "stateMutability": "view",
      "type": "function"
    },
    {
      "inputs": [
        {
          "internalType": "uint256",
          "name": "athleteId",
          "type": "uint256"
        },
        {
          "internalType": "uint256",
          "name": "position",
          "type": "uint256"
        }
      ],
      "name": "setAthleteInLineup",
      "outputs": [],
      "stateMutability": "nonpayable",
      "type": "function"
    },
    {
      "inputs": [],
      "name": "setLeagueEntryIsClosed",
      "outputs": [],
      "stateMutability": "nonpayable",
      "type": "function"
    },
    {
      "inputs": [],
      "name": "setLeagueSchedule",
      "outputs": [],
      "stateMutability": "nonpayable",
      "type": "function"
    },
    {
      "inputs": [
        {
          "internalType": "uint256[5]",
          "name": "athleteIds",
          "type": "uint256[5]"
        }
      ],
      "name": "setLineup",
      "outputs": [],
      "stateMutability": "nonpayable",
      "type": "function"
    },
    {
      "inputs": [],
      "name": "stakeAmount",
      "outputs": [
        {
          "internalType": "uint256",
          "name": "",
          "type": "uint256"
        }
      ],
      "stateMutability": "view",
      "type": "function"
    },
    {
      "inputs": [],
      "name": "teamDiffAddress",
      "outputs": [
        {
          "internalType": "address",
          "name": "",
          "type": "address"
        }
      ],
      "stateMutability": "view",
      "type": "function"
    },
    {
      "inputs": [],
      "name": "testUSDC",
      "outputs": [
        {
          "internalType": "contract IERC20",
          "name": "",
          "type": "address"
        }
      ],
      "stateMutability": "view",
      "type": "function"
    },
    {
      "inputs": [],
      "name": "unlockLineup",
      "outputs": [],
      "stateMutability": "nonpayable",
      "type": "function"
    },
    {
      "inputs": [
        {
          "internalType": "address",
          "name": "",
          "type": "address"
        },
        {
          "internalType": "uint256",
          "name": "",
          "type": "uint256"
        }
      ],
      "name": "userToLineup",
      "outputs": [
        {
          "internalType": "uint256",
          "name": "",
          "type": "uint256"
        }
      ],
      "stateMutability": "view",
      "type": "function"
    },
    {
      "inputs": [
        {
          "internalType": "address",
          "name": "",
          "type": "address"
        }
      ],
      "name": "userToPoints",
      "outputs": [
        {
          "internalType": "uint256",
          "name": "",
          "type": "uint256"
        }
      ],
      "stateMutability": "view",
      "type": "function"
    },
    {
      "inputs": [
        {
          "internalType": "address",
          "name": "",
          "type": "address"
        },
        {
          "internalType": "uint256",
          "name": "",
          "type": "uint256"
        }
      ],
      "name": "userToRecord",
      "outputs": [
        {
          "internalType": "uint256",
          "name": "",
          "type": "uint256"
        }
      ],
      "stateMutability": "view",
      "type": "function"
    },
    {
      "inputs": [
        {
          "internalType": "address",
          "name": "",
          "type": "address"
        },
        {
          "internalType": "uint256",
          "name": "",
          "type": "uint256"
        }
      ],
      "name": "userToWeekScore",
      "outputs": [
        {
          "internalType": "uint256",
          "name": "",
          "type": "uint256"
        }
      ],
      "stateMutability": "view",
      "type": "function"
    },
    {
      "inputs": [],
      "name": "whitelistContract",
      "outputs": [
        {
          "internalType": "contract Whitelist",
          "name": "",
          "type": "address"
        }
      ],
      "stateMutability": "view",
      "type": "function"
    }
  ],
  "bytecode": "0x608060405234801561001057600080fd5b50600180819055506157b8806100276000396000f3fe60806040523480156200001157600080fd5b50600436106200025b5760003560e01c80636e9960c3116200014d578063b47f862811620000c9578063e4c9066b1162000087578063e4c9066b146200069e578063e5f7322f14620006aa578063ee90080f14620006e0578063f851a4401462000716578063f88160451462000738576200025b565b8063b47f862814620005fa578063c8be3b5b146200061a578063c99fea941462000626578063cff560031462000632578063db2a67241462000668576200025b565b806384900b04116200011757806384900b0414620005545780638ab1d68114620005765780639122ce6d1462000596578063a2bc091a14620005cc578063a949a9d714620005d8576200025b565b80636e9960c314620004ce578063747b805014620004f05780637eed33f11462000510578063841abf6e1462000532576200025b565b80632ae6b13511620001dd57806352e6e5f311620001a757806352e6e5f3146200042657806360c7dc47146200044857806363c665f7146200046a57806366aab256146200048c5780636cc15ad514620004ac576200025b565b80632ae6b135146200038e5780632d382ee014620003c4578063305a578214620003fa5780633c3ae13f1462000406576200025b565b80630c6f7959116200022b5780630c6f795914620002d25780631d803e0014620003085780631dd7f8ca1462000314578063267175db146200033657806327311b32146200036c576200025b565b80622772c21462000260578063022e35e614620002825780630635dbcb14620002a45780630655465a14620002c6575b600080fd5b6200026a6200075a565b60405162000279919062003c77565b60405180910390f35b6200028c62000812565b6040516200029b919062003a0b565b60405180910390f35b620002ae62000838565b604051620002bd9190620039ee565b60405180910390f35b620002d06200084b565b005b620002f06004803603810190620002ea919062002f4f565b62000956565b604051620002ff919062003c77565b60405180910390f35b620003126200097f565b005b6200031e62000d3f565b6040516200032d919062003853565b60405180910390f35b6200035460048036038101906200034e919062003114565b62000d65565b60405162000363919062003853565b60405180910390f35b6200037662000da5565b604051620003859190620039ee565b60405180910390f35b620003ac6004803603810190620003a6919062002f1d565b62000dbc565b604051620003bb919062003c77565b60405180910390f35b620003e26004803603810190620003dc919062003114565b62000dd4565b604051620003f191906200398f565b60405180910390f35b6200040462000ec5565b005b6200042460048036038101906200041e919062002ffa565b62001040565b005b6200043062001411565b6040516200043f919062003c77565b60405180910390f35b6200045262001417565b60405162000461919062003c77565b60405180910390f35b620004746200141d565b60405162000483919062003c77565b60405180910390f35b620004aa6004803603810190620004a4919062002f96565b6200142a565b005b620004b6620018d1565b604051620004c59190620039ee565b60405180910390f35b620004d8620018e4565b604051620004e7919062003853565b60405180910390f35b6200050e600480360381019062000508919062002f1d565b6200190e565b005b6200051a62001a58565b60405162000529919062003c77565b60405180910390f35b6200053c62001a5e565b6040516200054b919062003a99565b60405180910390f35b6200055e62001af4565b6040516200056d919062003a28565b60405180910390f35b6200059460048036038101906200058e919062002f1d565b62001b1a565b005b620005b46004803603810190620005ae919062002f1d565b62001cb7565b604051620005c39190620039ee565b60405180910390f35b620005d662001cd7565b005b620005e262001d87565b604051620005f1919062003a0b565b60405180910390f35b62000618600480360381019062000612919062003178565b62001dad565b005b620006246200206f565b005b620006306200211f565b005b6200065060048036038101906200064a919062002f4f565b6200283b565b6040516200065f919062003c77565b60405180910390f35b62000686600480360381019062000680919062002f4f565b62002864565b60405162000695919062003c77565b60405180910390f35b620006a86200288d565b005b620006c86004803603810190620006c2919062002f1d565b6200293d565b604051620006d79190620039b3565b60405180910390f35b620006fe6004803603810190620006f8919062003114565b620029cb565b6040516200070d919062003853565b60405180910390f35b6200072062002a16565b6040516200072f919062003853565b60405180910390f35b6200074262002a3c565b604051620007519190620039d0565b60405180910390f35b6000601560009054906101000a900473ffffffffffffffffffffffffffffffffffffffff1673ffffffffffffffffffffffffffffffffffffffff166370a08231306040518263ffffffff1660e01b8152600401620007b9919062003853565b60206040518083038186803b158015620007d257600080fd5b505afa158015620007e7573d6000803e3d6000fd5b505050506040513d601f19601f820116820180604052508101906200080d919062003146565b905090565b601460009054906101000a900473ffffffffffffffffffffffffffffffffffffffff1681565b600760159054906101000a900460ff1681565b600760009054906101000a900473ffffffffffffffffffffffffffffffffffffffff1673ffffffffffffffffffffffffffffffffffffffff163373ffffffffffffffffffffffffffffffffffffffff1614620008de576040517f08c379a0000000000000000000000000000000000000000000000000000000008152600401620008d59062003bab565b60405180910390fd5b73__$36fdb4e0c2cb91f3ceca5ea81b025328f3$__63d2c232b56010600e60035460026040518563ffffffff1660e01b815260040162000922949392919062003a45565b60006040518083038186803b1580156200093b57600080fd5b505af415801562000950573d6000803e3d6000fd5b50505050565b600960205281600052604060002081600881106200097357600080fd5b01600091509150505481565b600760009054906101000a900473ffffffffffffffffffffffffffffffffffffffff1673ffffffffffffffffffffffffffffffffffffffff163373ffffffffffffffffffffffffffffffffffffffff161462000a12576040517f08c379a000000000000000000000000000000000000000000000000000000000815260040162000a099062003bab565b60405180910390fd5b6000600454600e8054905062000a29919062003f49565b905073__$36fdb4e0c2cb91f3ceca5ea81b025328f3$__63cc9b40cc600e600c600f6040518463ffffffff1660e01b815260040162000a6b9392919062003917565b60006040518083038186803b15801562000a8457600080fd5b505af415801562000a99573d6000803e3d6000fd5b5050505060005b600f8054905081101562000b105762000afa600f828154811062000ac95762000ac86200427d565b5b9060005260206000200160009054906101000a900473ffffffffffffffffffffffffffffffffffffffff1662002ac8565b808062000b0790620041a2565b91505062000aa0565b506000600f805490508262000b26919062003f11565b90507f648f2405ea194f3e49fe1655279883b3474e63909ab7e4a579b051d548ad8389600f8260405162000b5c9291906200395b565b60405180910390a160005b600f8054905081101562000d3a57601460009054906101000a900473ffffffffffffffffffffffffffffffffffffffff1673ffffffffffffffffffffffffffffffffffffffff1663095ea7b330846040518363ffffffff1660e01b815260040162000bd4929190620038ad565b602060405180830381600087803b15801562000bef57600080fd5b505af115801562000c04573d6000803e3d6000fd5b505050506040513d601f19601f8201168201806040525081019062000c2a919062002fc8565b50601460009054906101000a900473ffffffffffffffffffffffffffffffffffffffff1673ffffffffffffffffffffffffffffffffffffffff166323b872dd30600f848154811062000c815762000c806200427d565b5b9060005260206000200160009054906101000a900473ffffffffffffffffffffffffffffffffffffffff16856040518463ffffffff1660e01b815260040162000ccd9392919062003870565b602060405180830381600087803b15801562000ce857600080fd5b505af115801562000cfd573d6000803e3d6000fd5b505050506040513d601f19601f8201168201806040525081019062000d23919062002fc8565b50808062000d3190620041a2565b91505062000b67565b505050565b600760009054906101000a900473ffffffffffffffffffffffffffffffffffffffff1681565b600e818154811062000d7657600080fd5b906000526020600020016000915054906101000a900473ffffffffffffffffffffffffffffffffffffffff1681565b6000600760159054906101000a900460ff16905090565b600c6020528060005260406000206000915090505481565b606060106000838152602001908152602001600020805480602002602001604051908101604052809291908181526020016000905b8282101562000eba57838290600052602060002090600202016040518060200160405290816000820160028060200260405190810160405280929190826002801562000ea1576020028201915b8160009054906101000a900473ffffffffffffffffffffffffffffffffffffffff1673ffffffffffffffffffffffffffffffffffffffff168152602001906001019080831162000e56575b5050505050815250508152602001906001019062000e09565b505050509050919050565b600760009054906101000a900473ffffffffffffffffffffffffffffffffffffffff1673ffffffffffffffffffffffffffffffffffffffff163373ffffffffffffffffffffffffffffffffffffffff161462000f58576040517f08c379a000000000000000000000000000000000000000000000000000000000815260040162000f4f9062003bab565b60405180910390fd5b73__$36fdb4e0c2cb91f3ceca5ea81b025328f3$__6303626e84600554601160009054906101000a900473ffffffffffffffffffffffffffffffffffffffff166009600a600c600b60106040518863ffffffff1660e01b815260040162000fc6979695949392919062003c94565b60006040518083038186803b15801562000fdf57600080fd5b505af415801562000ff4573d6000803e3d6000fd5b50505050600160035462001009919062003faa565b600554141562001023576200101d6200097f565b6200103e565b600560008154809291906200103890620041a2565b91905055505b565b600060019054906101000a900460ff166200106a5760008054906101000a900460ff161562001075565b6200107462002b65565b5b620010b7576040517f08c379a0000000000000000000000000000000000000000000000000000000008152600401620010ae9062003b67565b60405180910390fd5b60008060019054906101000a900460ff16159050801562001108576001600060016101000a81548160ff02191690831515021790555060016000806101000a81548160ff0219169083151502179055505b8b8b600291906200111b92919062002c61565b50600860038190555086600660006101000a81548173ffffffffffffffffffffffffffffffffffffffff021916908373ffffffffffffffffffffffffffffffffffffffff160217905550896004819055506000600760146101000a81548160ff0219169083151502179055506000600760156101000a81548160ff02191690831515021790555087601160006101000a81548173ffffffffffffffffffffffffffffffffffffffff021916908373ffffffffffffffffffffffffffffffffffffffff16021790555081601360006101000a81548173ffffffffffffffffffffffffffffffffffffffff021916908373ffffffffffffffffffffffffffffffffffffffff16021790555088604051620012339062002cf2565b6200123f9190620039ee565b604051809103906000f0801580156200125c573d6000803e3d6000fd5b50601260006101000a81548173ffffffffffffffffffffffffffffffffffffffff021916908373ffffffffffffffffffffffffffffffffffffffff16021790555085601560006101000a81548173ffffffffffffffffffffffffffffffffffffffff021916908373ffffffffffffffffffffffffffffffffffffffff16021790555084601460006101000a81548173ffffffffffffffffffffffffffffffffffffffff021916908373ffffffffffffffffffffffffffffffffffffffff16021790555082600760006101000a81548173ffffffffffffffffffffffffffffffffffffffff021916908373ffffffffffffffffffffffffffffffffffffffff16021790555083601660006101000a81548173ffffffffffffffffffffffffffffffffffffffff021916908373ffffffffffffffffffffffffffffffffffffffff160217905550620013e16040518060400160405280601281526020017f50726f787920696e697469616c697a656421000000000000000000000000000081525062002b78565b8015620014035760008060016101000a81548160ff0219169083151502179055505b505050505050505050505050565b60055481565b60045481565b6000600e80549050905090565b600760159054906101000a900460ff16156200147d576040517f08c379a0000000000000000000000000000000000000000000000000000000008152600401620014749062003b45565b60405180910390fd5b600d60003373ffffffffffffffffffffffffffffffffffffffff1673ffffffffffffffffffffffffffffffffffffffff16815260200190815260200160002060009054906101000a900460ff166200150c576040517f08c379a0000000000000000000000000000000000000000000000000000000008152600401620015039062003bcd565b60405180910390fd5b60005b600a60003373ffffffffffffffffffffffffffffffffffffffff1673ffffffffffffffffffffffffffffffffffffffff168152602001908152602001600020506005811015620016075760086000600a60003373ffffffffffffffffffffffffffffffffffffffff1673ffffffffffffffffffffffffffffffffffffffff1681526020019081526020016000208360058110620015b157620015b06200427d565b5b0154815260200190815260200160002060055460088110620015d857620015d76200427d565b5b016000815480929190620015ec90620040e9565b91905055508080620015fe90620041a2565b9150506200150f565b5060005b60058110156200179957600860008383600581106200162f576200162e6200427d565b5b60200201518152602001908152602001600020600554600881106200165957620016586200427d565b5b0160008154809291906200166d90620041a2565b91905055506000601660009054906101000a900473ffffffffffffffffffffffffffffffffffffffff1673ffffffffffffffffffffffffffffffffffffffff1662fdd58e33858560058110620016c857620016c76200427d565b5b60200201516040518363ffffffff1660e01b8152600401620016ec929190620038ad565b60206040518083038186803b1580156200170557600080fd5b505afa1580156200171a573d6000803e3d6000fd5b505050506040513d601f19601f8201168201806040525081019062001740919062003146565b1162001783576040517f08c379a00000000000000000000000000000000000000000000000000000000081526004016200177a9062003c11565b60405180910390fd5b80806200179090620041a2565b9150506200160b565b5060005b60058110156200187c57600a81620017b6919062003f49565b828260058110620017cc57620017cb6200427d565b5b6020020151101580156200182457506001600a600183620017ee919062003eb4565b620017fa919062003f49565b62001806919062003faa565b8282600581106200181c576200181b6200427d565b5b602002015111155b62001866576040517f08c379a00000000000000000000000000000000000000000000000000000000081526004016200185d9062003b01565b60405180910390fd5b80806200187390620041a2565b9150506200179d565b5080600a60003373ffffffffffffffffffffffffffffffffffffffff1673ffffffffffffffffffffffffffffffffffffffff168152602001908152602001600020906005620018cd92919062002d00565b5050565b600760149054906101000a900460ff1681565b6000600660009054906101000a900473ffffffffffffffffffffffffffffffffffffffff16905090565b600660009054906101000a900473ffffffffffffffffffffffffffffffffffffffff1673ffffffffffffffffffffffffffffffffffffffff163373ffffffffffffffffffffffffffffffffffffffff1614620019a1576040517f08c379a0000000000000000000000000000000000000000000000000000000008152600401620019989062003b89565b60405180910390fd5b601260009054906101000a900473ffffffffffffffffffffffffffffffffffffffff1673ffffffffffffffffffffffffffffffffffffffff16637b9417c8826040518263ffffffff1660e01b8152600401620019fe919062003853565b602060405180830381600087803b15801562001a1957600080fd5b505af115801562001a2e573d6000803e3d6000fd5b505050506040513d601f19601f8201168201806040525081019062001a54919062002fc8565b5050565b60035481565b6002805462001a6d9062004118565b80601f016020809104026020016040519081016040528092919081815260200182805462001a9b9062004118565b801562001aec5780601f1062001ac05761010080835404028352916020019162001aec565b820191906000526020600020905b81548152906001019060200180831162001ace57829003601f168201915b505050505081565b601260009054906101000a900473ffffffffffffffffffffffffffffffffffffffff1681565b600660009054906101000a900473ffffffffffffffffffffffffffffffffffffffff1673ffffffffffffffffffffffffffffffffffffffff163373ffffffffffffffffffffffffffffffffffffffff161462001bad576040517f08c379a000000000000000000000000000000000000000000000000000000000815260040162001ba49062003b89565b60405180910390fd5b600760149054906101000a900460ff161562001c00576040517f08c379a000000000000000000000000000000000000000000000000000000000815260040162001bf79062003bef565b60405180910390fd5b601260009054906101000a900473ffffffffffffffffffffffffffffffffffffffff1673ffffffffffffffffffffffffffffffffffffffff1663286dd3f5826040518263ffffffff1660e01b815260040162001c5d919062003853565b602060405180830381600087803b15801562001c7857600080fd5b505af115801562001c8d573d6000803e3d6000fd5b505050506040513d601f19601f8201168201806040525081019062001cb3919062002fc8565b5050565b600d6020528060005260406000206000915054906101000a900460ff1681565b600760009054906101000a900473ffffffffffffffffffffffffffffffffffffffff1673ffffffffffffffffffffffffffffffffffffffff163373ffffffffffffffffffffffffffffffffffffffff161462001d6a576040517f08c379a000000000000000000000000000000000000000000000000000000000815260040162001d619062003bab565b60405180910390fd5b6000600760156101000a81548160ff021916908315150217905550565b601560009054906101000a900473ffffffffffffffffffffffffffffffffffffffff1681565b600760159054906101000a900460ff161562001e00576040517f08c379a000000000000000000000000000000000000000000000000000000000815260040162001df79062003b45565b60405180910390fd5b600d60003373ffffffffffffffffffffffffffffffffffffffff1673ffffffffffffffffffffffffffffffffffffffff16815260200190815260200160002060009054906101000a900460ff1662001e8f576040517f08c379a000000000000000000000000000000000000000000000000000000000815260040162001e869062003bcd565b60405180910390fd5b6000601660009054906101000a900473ffffffffffffffffffffffffffffffffffffffff1673ffffffffffffffffffffffffffffffffffffffff1662fdd58e33856040518363ffffffff1660e01b815260040162001eef929190620038ad565b60206040518083038186803b15801562001f0857600080fd5b505afa15801562001f1d573d6000803e3d6000fd5b505050506040513d601f19601f8201168201806040525081019062001f43919062003146565b1162001f86576040517f08c379a000000000000000000000000000000000000000000000000000000000815260040162001f7d9062003c11565b60405180910390fd5b600a8162001f95919062003f49565b821015801562001fcf57506001600a60018362001fb3919062003eb4565b62001fbf919062003f49565b62001fcb919062003faa565b8211155b62002011576040517f08c379a0000000000000000000000000000000000000000000000000000000008152600401620020089062003b01565b60405180910390fd5b81600a60003373ffffffffffffffffffffffffffffffffffffffff1673ffffffffffffffffffffffffffffffffffffffff16815260200190815260200160002082600581106200206657620020656200427d565b5b01819055505050565b600760009054906101000a900473ffffffffffffffffffffffffffffffffffffffff1673ffffffffffffffffffffffffffffffffffffffff163373ffffffffffffffffffffffffffffffffffffffff161462002102576040517f08c379a0000000000000000000000000000000000000000000000000000000008152600401620020f99062003bab565b60405180910390fd5b6001600760156101000a81548160ff021916908315150217905550565b6002600154141562002168576040517f08c379a00000000000000000000000000000000000000000000000000000000081526004016200215f9062003c33565b60405180910390fd5b6002600181905550601260009054906101000a900473ffffffffffffffffffffffffffffffffffffffff1673ffffffffffffffffffffffffffffffffffffffff16639b19251a336040518263ffffffff1660e01b8152600401620021cd919062003853565b60206040518083038186803b158015620021e657600080fd5b505afa158015620021fb573d6000803e3d6000fd5b505050506040513d601f19601f8201168201806040525081019062002221919062002fc8565b80620022cd5750601260009054906101000a900473ffffffffffffffffffffffffffffffffffffffff1673ffffffffffffffffffffffffffffffffffffffff1663dc9a15356040518163ffffffff1660e01b815260040160206040518083038186803b1580156200229157600080fd5b505afa158015620022a6573d6000803e3d6000fd5b505050506040513d601f19601f82011682018060405250810190620022cc919062002fc8565b5b80620023265750600660009054906101000a900473ffffffffffffffffffffffffffffffffffffffff1673ffffffffffffffffffffffffffffffffffffffff163373ffffffffffffffffffffffffffffffffffffffff16145b62002368576040517f08c379a00000000000000000000000000000000000000000000000000000000081526004016200235f9062003b23565b60405180910390fd5b600760149054906101000a900460ff1615620023bb576040517f08c379a0000000000000000000000000000000000000000000000000000000008152600401620023b29062003c55565b60405180910390fd5b600d60003373ffffffffffffffffffffffffffffffffffffffff1673ffffffffffffffffffffffffffffffffffffffff16815260200190815260200160002060009054906101000a900460ff16156200244b576040517f08c379a0000000000000000000000000000000000000000000000000000000008152600401620024429062003adf565b60405180910390fd5b600454601460009054906101000a900473ffffffffffffffffffffffffffffffffffffffff1673ffffffffffffffffffffffffffffffffffffffff166370a08231336040518263ffffffff1660e01b8152600401620024ab919062003853565b60206040518083038186803b158015620024c457600080fd5b505afa158015620024d9573d6000803e3d6000fd5b505050506040513d601f19601f82011682018060405250810190620024ff919062003146565b1162002542576040517f08c379a0000000000000000000000000000000000000000000000000000000008152600401620025399062003abd565b60405180910390fd5b601260009054906101000a900473ffffffffffffffffffffffffffffffffffffffff1673ffffffffffffffffffffffffffffffffffffffff1663dc9a15356040518163ffffffff1660e01b815260040160206040518083038186803b158015620025ab57600080fd5b505afa158015620025c0573d6000803e3d6000fd5b505050506040513d601f19601f82011682018060405250810190620025e6919062002fc8565b156200267e57601360009054906101000a900473ffffffffffffffffffffffffffffffffffffffff1673ffffffffffffffffffffffffffffffffffffffff1663771bd4ce336040518263ffffffff1660e01b815260040162002649919062003853565b600060405180830381600087803b1580156200266457600080fd5b505af115801562002679573d6000803e3d6000fd5b505050505b6001600d60003373ffffffffffffffffffffffffffffffffffffffff1673ffffffffffffffffffffffffffffffffffffffff16815260200190815260200160002060006101000a81548160ff021916908315150217905550600e339080600181540180825580915050600190039060005260206000200160009091909190916101000a81548173ffffffffffffffffffffffffffffffffffffffff021916908373ffffffffffffffffffffffffffffffffffffffff160217905550601460009054906101000a900473ffffffffffffffffffffffffffffffffffffffff1673ffffffffffffffffffffffffffffffffffffffff166323b872dd33306004546040518463ffffffff1660e01b81526004016200279c9392919062003870565b602060405180830381600087803b158015620027b757600080fd5b505af1158015620027cc573d6000803e3d6000fd5b505050506040513d601f19601f82011682018060405250810190620027f2919062002fc8565b507f9f9e4044c5742cca66ca090b21552bac14645e68bad7a92364a9d9ff18111a1c33600454306040516200282a93929190620038da565b60405180910390a160018081905550565b600a60205281600052604060002081600581106200285857600080fd5b01600091509150505481565b600b60205281600052604060002081600881106200288157600080fd5b01600091509150505481565b600760009054906101000a900473ffffffffffffffffffffffffffffffffffffffff1673ffffffffffffffffffffffffffffffffffffffff163373ffffffffffffffffffffffffffffffffffffffff161462002920576040517f08c379a0000000000000000000000000000000000000000000000000000000008152600401620029179062003bab565b60405180910390fd5b6001600760146101000a81548160ff021916908315150217905550565b6200294762002d45565b600a60008373ffffffffffffffffffffffffffffffffffffffff1673ffffffffffffffffffffffffffffffffffffffff168152602001908152602001600020600580602002604051908101604052809291908260058015620029bf576020028201915b815481526020019060010190808311620029aa575b50505050509050919050565b6000600e8281548110620029e457620029e36200427d565b5b9060005260206000200160009054906101000a900473ffffffffffffffffffffffffffffffffffffffff169050919050565b600660009054906101000a900473ffffffffffffffffffffffffffffffffffffffff1681565b62002a4662002d67565b600960003373ffffffffffffffffffffffffffffffffffffffff1673ffffffffffffffffffffffffffffffffffffffff16815260200190815260200160002060088060200260405190810160405280929190826008801562002abe576020028201915b81548152602001906001019080831162002aa9575b5050505050905090565b62002b628160405160240162002adf919062003853565b6040516020818303038152906040527f2c2ecbc2000000000000000000000000000000000000000000000000000000007bffffffffffffffffffffffffffffffffffffffffffffffffffffffff19166020820180517bffffffffffffffffffffffffffffffffffffffffffffffffffffffff838183161783525050505062002c15565b50565b600062002b723062002c3e565b15905090565b62002c128160405160240162002b8f919062003a99565b6040516020818303038152906040527f41304fac000000000000000000000000000000000000000000000000000000007bffffffffffffffffffffffffffffffffffffffffffffffffffffffff19166020820180517bffffffffffffffffffffffffffffffffffffffffffffffffffffffff838183161783525050505062002c15565b50565b60008151905060006a636f6e736f6c652e6c6f679050602083016000808483855afa5050505050565b6000808273ffffffffffffffffffffffffffffffffffffffff163b119050919050565b82805462002c6f9062004118565b90600052602060002090601f01602090048101928262002c93576000855562002cdf565b82601f1062002cae57803560ff191683800117855562002cdf565b8280016001018555821562002cdf579182015b8281111562002cde57823582559160200191906001019062002cc1565b5b50905062002cee919062002d8a565b5090565b611114806200466f83390190565b826005810192821562002d32579160200282015b8281111562002d3157825182559160200191906001019062002d14565b5b50905062002d41919062002d8a565b5090565b6040518060a00160405280600590602082028036833780820191505090505090565b604051806101000160405280600890602082028036833780820191505090505090565b5b8082111562002da557600081600090555060010162002d8b565b5090565b600062002dc062002dba8462003d3a565b62003d11565b9050808285602086028201111562002ddd5762002ddc620042fa565b5b60005b8581101562002e11578162002df6888262002eef565b84526020840193506020830192505060018101905062002de0565b5050509392505050565b60008135905062002e2c8162004620565b92915050565b600082601f83011262002e4a5762002e49620042f5565b5b600562002e5984828562002da9565b91505092915050565b60008135905062002e73816200463a565b92915050565b60008151905062002e8a816200463a565b92915050565b60008083601f84011262002ea95762002ea8620042f5565b5b8235905067ffffffffffffffff81111562002ec95762002ec8620042f0565b5b60208301915083600182028301111562002ee85762002ee7620042fa565b5b9250929050565b60008135905062002f008162004654565b92915050565b60008151905062002f178162004654565b92915050565b60006020828403121562002f365762002f3562004304565b5b600062002f468482850162002e1b565b91505092915050565b6000806040838503121562002f695762002f6862004304565b5b600062002f798582860162002e1b565b925050602062002f8c8582860162002eef565b9150509250929050565b600060a0828403121562002faf5762002fae62004304565b5b600062002fbf8482850162002e32565b91505092915050565b60006020828403121562002fe15762002fe062004304565b5b600062002ff18482850162002e79565b91505092915050565b60008060008060008060008060008060006101408c8e03121562003023576200302262004304565b5b60008c013567ffffffffffffffff811115620030445762003043620042ff565b5b620030528e828f0162002e90565b9b509b50506020620030678e828f0162002eef565b99505060406200307a8e828f0162002e62565b98505060606200308d8e828f0162002e1b565b9750506080620030a08e828f0162002e1b565b96505060a0620030b38e828f0162002e1b565b95505060c0620030c68e828f0162002e1b565b94505060e0620030d98e828f0162002e1b565b935050610100620030ed8e828f0162002e1b565b925050610120620031018e828f0162002e1b565b9150509295989b509295989b9093969950565b6000602082840312156200312d576200312c62004304565b5b60006200313d8482850162002eef565b91505092915050565b6000602082840312156200315f576200315e62004304565b5b60006200316f8482850162002f06565b91505092915050565b6000806040838503121562003192576200319162004304565b5b6000620031a28582860162002eef565b9250506020620031b58582860162002eef565b9150509250929050565b6000620031cd838362003227565b60208301905092915050565b6000620031e7838362003249565b60208301905092915050565b600062003201838362003802565b60408301905092915050565b60006200321b838362003820565b60208301905092915050565b620032328162004005565b82525050565b620032438162004005565b82525050565b620032548162004005565b82525050565b620032658162003dbb565b62003271818462003e3e565b92506200327e8262003d63565b8060005b83811015620032b5578151620032998782620031bf565b9650620032a68362003dfd565b92505060018101905062003282565b505050505050565b6000620032ca8262003dc6565b620032d6818562003e49565b9350620032e38362003d6d565b8060005b838110156200332357620032fb82620042db565b620033078882620031bf565b9750620033148362003e0a565b925050600181019050620032e7565b5085935050505092915050565b60006200333d8262003dc6565b62003349818562003e5a565b9350620033568362003d6d565b8060005b8381101562003396576200336e82620042db565b6200337a8882620031d9565b9750620033878362003e0a565b9250506001810190506200335a565b5085935050505092915050565b8082525050565b6000620033b78262003dd1565b620033c3818562003e6b565b9350620033d08362003d82565b8060005b8381101562003407578151620033eb8882620031f3565b9750620033f88362003e17565b925050600181019050620033d4565b5085935050505092915050565b6200341f8162003ddc565b6200342b818462003e7c565b9250620034388262003d92565b8060005b838110156200346f5781516200345387826200320d565b9650620034608362003e24565b9250506001810190506200343c565b505050505050565b620034828162003de7565b6200348e818462003e87565b92506200349b8262003d9c565b8060005b83811015620034d2578151620034b687826200320d565b9650620034c38362003e31565b9250506001810190506200349f565b505050505050565b620034e58162004019565b82525050565b620034f6816200404f565b82525050565b620035078162004063565b82525050565b620035188162004077565b82525050565b8082525050565b8082525050565b8082525050565b8082525050565b6000620035478262003df2565b62003553818562003e92565b935062003565818560208601620040b3565b620035708162004309565b840191505092915050565b600081546200358a8162004118565b62003596818662003ea3565b94506001821660008114620035b45760018114620035c757620035fe565b60ff1983168652602086019350620035fe565b620035d28562003da6565b60005b83811015620035f657815481890152600182019150602081019050620035d5565b808801955050505b50505092915050565b600062003616601d8362003e92565b9150620036238262004327565b602082019050919050565b60006200363d60238362003e92565b91506200364a8262004350565b604082019050919050565b60006200366460318362003e92565b915062003671826200439f565b604082019050919050565b60006200368b601d8362003e92565b91506200369882620043ee565b602082019050919050565b6000620036b2601e8362003e92565b9150620036bf8262004417565b602082019050919050565b6000620036d9602e8362003e92565b9150620036e68262004440565b604082019050919050565b60006200370060178362003e92565b91506200370d826200448f565b602082019050919050565b60006200372760168362003e92565b91506200373482620044b8565b602082019050919050565b60006200374e60168362003e92565b91506200375b82620044e1565b602082019050919050565b60006200377560418362003e92565b915062003782826200450a565b606082019050919050565b60006200379c60248362003e92565b9150620037a9826200457f565b604082019050919050565b6000620037c3601f8362003e92565b9150620037d082620045ce565b602082019050919050565b6000620037ea60178362003e92565b9150620037f782620045f7565b602082019050919050565b6040820160008201516200381a60008501826200325a565b50505050565b6200382b8162004045565b82525050565b6200383c8162004045565b82525050565b6200384d8162004045565b82525050565b60006020820190506200386a600083018462003238565b92915050565b600060608201905062003887600083018662003238565b62003896602083018562003238565b620038a5604083018462003831565b949350505050565b6000604082019050620038c4600083018562003238565b620038d3602083018462003831565b9392505050565b6000606082019050620038f1600083018662003238565b62003900602083018562003831565b6200390f604083018462003238565b949350505050565b6000606082019050818103600083015262003933818662003330565b90506200394460208301856200352c565b620039536040830184620033a3565b949350505050565b60006040820190508181036000830152620039778185620032bd565b905062003988602083018462003831565b9392505050565b60006020820190508181036000830152620039ab8184620033aa565b905092915050565b600060a082019050620039ca600083018462003414565b92915050565b600061010082019050620039e8600083018462003477565b92915050565b600060208201905062003a056000830184620034da565b92915050565b600060208201905062003a226000830184620034fc565b92915050565b600060208201905062003a3f60008301846200350d565b92915050565b600060808201905062003a5c600083018762003533565b62003a6b6020830186620033a3565b62003a7a604083018562003842565b818103606083015262003a8e81846200357b565b905095945050505050565b6000602082019050818103600083015262003ab581846200353a565b905092915050565b6000602082019050818103600083015262003ad88162003607565b9050919050565b6000602082019050818103600083015262003afa816200362e565b9050919050565b6000602082019050818103600083015262003b1c8162003655565b9050919050565b6000602082019050818103600083015262003b3e816200367c565b9050919050565b6000602082019050818103600083015262003b6081620036a3565b9050919050565b6000602082019050818103600083015262003b8281620036ca565b9050919050565b6000602082019050818103600083015262003ba481620036f1565b9050919050565b6000602082019050818103600083015262003bc68162003718565b9050919050565b6000602082019050818103600083015262003be8816200373f565b9050919050565b6000602082019050818103600083015262003c0a8162003766565b9050919050565b6000602082019050818103600083015262003c2c816200378d565b9050919050565b6000602082019050818103600083015262003c4e81620037b4565b9050919050565b6000602082019050818103600083015262003c7081620037db565b9050919050565b600060208201905062003c8e600083018462003831565b92915050565b600060e08201905062003cab600083018a62003842565b62003cba6020830189620034eb565b62003cc9604083018862003525565b62003cd860608301876200351e565b62003ce760808301866200352c565b62003cf660a083018562003525565b62003d0560c083018462003533565b98975050505050505050565b600062003d1d62003d30565b905062003d2b82826200416c565b919050565b6000604051905090565b600067ffffffffffffffff82111562003d585762003d57620042ac565b5b602082029050919050565b6000819050919050565b60008190508160005260206000209050919050565b6000819050602082019050919050565b6000819050919050565b6000819050919050565b60008190508160005260206000209050919050565b600060029050919050565b600081549050919050565b600081519050919050565b600060059050919050565b600060089050919050565b600081519050919050565b6000602082019050919050565b6000600182019050919050565b6000602082019050919050565b6000602082019050919050565b6000602082019050919050565b600081905092915050565b600082825260208201905092915050565b600082825260208201905092915050565b600082825260208201905092915050565b600081905092915050565b600081905092915050565b600082825260208201905092915050565b600082825260208201905092915050565b600062003ec18262004045565b915062003ece8362004045565b9250827fffffffffffffffffffffffffffffffffffffffffffffffffffffffffffffffff0382111562003f065762003f05620041f0565b5b828201905092915050565b600062003f1e8262004045565b915062003f2b8362004045565b92508262003f3e5762003f3d6200421f565b5b828204905092915050565b600062003f568262004045565b915062003f638362004045565b9250817fffffffffffffffffffffffffffffffffffffffffffffffffffffffffffffffff048311821515161562003f9f5762003f9e620041f0565b5b828202905092915050565b600062003fb78262004045565b915062003fc48362004045565b92508282101562003fda5762003fd9620041f0565b5b828203905092915050565b600073ffffffffffffffffffffffffffffffffffffffff82169050919050565b6000620040128262004025565b9050919050565b60008115159050919050565b600073ffffffffffffffffffffffffffffffffffffffff82169050919050565b6000819050919050565b60006200405c826200408b565b9050919050565b600062004070826200408b565b9050919050565b600062004084826200408b565b9050919050565b600062004098826200409f565b9050919050565b6000620040ac8262004025565b9050919050565b60005b83811015620040d3578082015181840152602081019050620040b6565b83811115620040e3576000848401525b50505050565b6000620040f68262004045565b915060008214156200410d576200410c620041f0565b5b600182039050919050565b600060028204905060018216806200413157607f821691505b602082108114156200414857620041476200424e565b5b50919050565b6000620041656200415f836200431a565b62003fe5565b9050919050565b620041778262004309565b810181811067ffffffffffffffff82111715620041995762004198620042ac565b5b80604052505050565b6000620041af8262004045565b91507fffffffffffffffffffffffffffffffffffffffffffffffffffffffffffffffff821415620041e557620041e4620041f0565b5b600182019050919050565b7f4e487b7100000000000000000000000000000000000000000000000000000000600052601160045260246000fd5b7f4e487b7100000000000000000000000000000000000000000000000000000000600052601260045260246000fd5b7f4e487b7100000000000000000000000000000000000000000000000000000000600052602260045260246000fd5b7f4e487b7100000000000000000000000000000000000000000000000000000000600052603260045260246000fd5b7f4e487b7100000000000000000000000000000000000000000000000000000000600052604160045260246000fd5b6000620042e982546200414e565b9050919050565b600080fd5b600080fd5b600080fd5b600080fd5b600080fd5b6000601f19601f8301169050919050565b60008160001c9050919050565b7f496e737566666963656e742066756e647320666f72207374616b696e67000000600082015250565b7f596f75206861766520616c7265616479206a6f696e65642074686973206c656160008201527f6775650000000000000000000000000000000000000000000000000000000000602082015250565b7f596f75206172652073657474696e6720616e206174686c65746520696e20746860008201527f652077726f6e6720706f736974696f6e21000000000000000000000000000000602082015250565b7f55736572206973206e6f74206f6e2077686974656c6973742062726f2e000000600082015250565b7f6c696e657570206973206c6f636b656420666f7220746865207765656b210000600082015250565b7f496e697469616c697a61626c653a20636f6e747261637420697320616c72656160008201527f647920696e697469616c697a6564000000000000000000000000000000000000602082015250565b7f43616c6c6572206973206e6f74207468652061646d696e000000000000000000600082015250565b7f43616c6c6572206973206e6f74205465616d4469666600000000000000000000600082015250565b7f55736572206973206e6f7420696e204c65616775652e00000000000000000000600082015250565b7f4e6f626f64792063616e20656e7465722f6578697420746865206c656167756560008201527f20616e796d6f72652e2054686520736561736f6e20686173207374617274656460208201527f2100000000000000000000000000000000000000000000000000000000000000604082015250565b7f43616c6c657220646f6573206e6f74206f776e20676976656e206174686c657460008201527f6549647300000000000000000000000000000000000000000000000000000000602082015250565b7f5265656e7472616e637947756172643a207265656e7472616e742063616c6c00600082015250565b7f4c656167756520456e74727920697320436c6f73656421000000000000000000600082015250565b6200462b8162004005565b81146200463757600080fd5b50565b620046458162004019565b81146200465157600080fd5b50565b6200465f8162004045565b81146200466b57600080fd5b5056fe60806040523480156200001157600080fd5b50604051620011143803806200111483398181016040528101906200003791906200015b565b620000576200004b6200007860201b60201c565b6200008060201b60201c565b80600360006101000a81548160ff02191690831515021790555050620001b8565b600033905090565b60008060009054906101000a900473ffffffffffffffffffffffffffffffffffffffff169050816000806101000a81548173ffffffffffffffffffffffffffffffffffffffff021916908373ffffffffffffffffffffffffffffffffffffffff1602179055508173ffffffffffffffffffffffffffffffffffffffff168173ffffffffffffffffffffffffffffffffffffffff167f8be0079c531659141344cd1fd0a4f28419497f9722a3daafe3b4186f6b6457e060405160405180910390a35050565b60008151905062000155816200019e565b92915050565b60006020828403121562000174576200017362000199565b5b6000620001848482850162000144565b91505092915050565b60008115159050919050565b600080fd5b620001a9816200018d565b8114620001b557600080fd5b50565b610f4c80620001c86000396000f3fe608060405234801561001057600080fd5b50600436106100a95760003560e01c80638da5cb5b116100715780638da5cb5b146101665780639b19251a14610184578063dc9a1535146101b4578063e2ec6ec3146101d2578063e35a899914610202578063f2fde38b14610232576100a9565b806324953eaa146100ae578063286dd3f5146100de57806344eaa84e1461010e578063715018a61461012c5780637b9417c814610136575b600080fd5b6100c860048036038101906100c39190610ada565b61024e565b6040516100d59190610bb1565b60405180910390f35b6100f860048036038101906100f39190610aad565b61031e565b6040516101059190610bb1565b60405180910390f35b6101166104a1565b6040516101239190610c0c565b60405180910390f35b6101346104ab565b005b610150600480360381019061014b9190610aad565b610533565b60405161015d9190610bb1565b60405180910390f35b61016e6106b4565b60405161017b9190610b96565b60405180910390f35b61019e60048036038101906101999190610aad565b6106dd565b6040516101ab9190610bb1565b60405180910390f35b6101bc6106fd565b6040516101c99190610bb1565b60405180910390f35b6101ec60048036038101906101e79190610ada565b610710565b6040516101f99190610bb1565b60405180910390f35b61021c60048036038101906102179190610aad565b6107e0565b6040516102299190610bb1565b60405180910390f35b61024c60048036038101906102479190610aad565b610836565b005b600061025861092e565b73ffffffffffffffffffffffffffffffffffffffff166102766106b4565b73ffffffffffffffffffffffffffffffffffffffff16146102cc576040517f08c379a00000000000000000000000000000000000000000000000000000000081526004016102c390610bec565b60405180910390fd5b60005b8251811015610318576102fb8382815181106102ee576102ed610e04565b5b602002602001015161031e565b1561030557600191505b808061031090610d8c565b9150506102cf565b50919050565b600061032861092e565b73ffffffffffffffffffffffffffffffffffffffff166103466106b4565b73ffffffffffffffffffffffffffffffffffffffff161461039c576040517f08c379a000000000000000000000000000000000000000000000000000000000815260040161039390610bec565b60405180910390fd5b600160008373ffffffffffffffffffffffffffffffffffffffff1673ffffffffffffffffffffffffffffffffffffffff16815260200190815260200160002060009054906101000a900460ff161561049c576000600160008473ffffffffffffffffffffffffffffffffffffffff1673ffffffffffffffffffffffffffffffffffffffff16815260200190815260200160002060006101000a81548160ff0219169083151502179055507ff1abf01a1043b7c244d128e8595cf0c1d10743b022b03a02dffd8ca3bf729f5a826040516104759190610b96565b60405180910390a16001600260008282546104909190610cdf565b92505081905550600190505b919050565b6000600254905090565b6104b361092e565b73ffffffffffffffffffffffffffffffffffffffff166104d16106b4565b73ffffffffffffffffffffffffffffffffffffffff1614610527576040517f08c379a000000000000000000000000000000000000000000000000000000000815260040161051e90610bec565b60405180910390fd5b6105316000610936565b565b600061053d61092e565b73ffffffffffffffffffffffffffffffffffffffff1661055b6106b4565b73ffffffffffffffffffffffffffffffffffffffff16146105b1576040517f08c379a00000000000000000000000000000000000000000000000000000000081526004016105a890610bec565b60405180910390fd5b600160008373ffffffffffffffffffffffffffffffffffffffff1673ffffffffffffffffffffffffffffffffffffffff16815260200190815260200160002060009054906101000a900460ff166106af5760018060008473ffffffffffffffffffffffffffffffffffffffff1673ffffffffffffffffffffffffffffffffffffffff16815260200190815260200160002060006101000a81548160ff0219169083151502179055507fd1bba68c128cc3f427e5831b3c6f99f480b6efa6b9e80c757768f6124158cc3f826040516106889190610b96565b60405180910390a16001600260008282546106a39190610c89565b92505081905550600190505b919050565b60008060009054906101000a900473ffffffffffffffffffffffffffffffffffffffff16905090565b60016020528060005260406000206000915054906101000a900460ff1681565b600360009054906101000a900460ff1681565b600061071a61092e565b73ffffffffffffffffffffffffffffffffffffffff166107386106b4565b73ffffffffffffffffffffffffffffffffffffffff161461078e576040517f08c379a000000000000000000000000000000000000000000000000000000000815260040161078590610bec565b60405180910390fd5b60005b82518110156107da576107bd8382815181106107b0576107af610e04565b5b6020026020010151610533565b156107c757600191505b80806107d290610d8c565b915050610791565b50919050565b6000600160008373ffffffffffffffffffffffffffffffffffffffff1673ffffffffffffffffffffffffffffffffffffffff16815260200190815260200160002060009054906101000a900460ff169050919050565b61083e61092e565b73ffffffffffffffffffffffffffffffffffffffff1661085c6106b4565b73ffffffffffffffffffffffffffffffffffffffff16146108b2576040517f08c379a00000000000000000000000000000000000000000000000000000000081526004016108a990610bec565b60405180910390fd5b600073ffffffffffffffffffffffffffffffffffffffff168173ffffffffffffffffffffffffffffffffffffffff161415610922576040517f08c379a000000000000000000000000000000000000000000000000000000000815260040161091990610bcc565b60405180910390fd5b61092b81610936565b50565b600033905090565b60008060009054906101000a900473ffffffffffffffffffffffffffffffffffffffff169050816000806101000a81548173ffffffffffffffffffffffffffffffffffffffff021916908373ffffffffffffffffffffffffffffffffffffffff1602179055508173ffffffffffffffffffffffffffffffffffffffff168173ffffffffffffffffffffffffffffffffffffffff167f8be0079c531659141344cd1fd0a4f28419497f9722a3daafe3b4186f6b6457e060405160405180910390a35050565b6000610a0d610a0884610c4c565b610c27565b90508083825260208201905082856020860282011115610a3057610a2f610e67565b5b60005b85811015610a605781610a468882610a6a565b845260208401935060208301925050600181019050610a33565b5050509392505050565b600081359050610a7981610eff565b92915050565b600082601f830112610a9457610a93610e62565b5b8135610aa48482602086016109fa565b91505092915050565b600060208284031215610ac357610ac2610e71565b5b6000610ad184828501610a6a565b91505092915050565b600060208284031215610af057610aef610e71565b5b600082013567ffffffffffffffff811115610b0e57610b0d610e6c565b5b610b1a84828501610a7f565b91505092915050565b610b2c81610d13565b82525050565b610b3b81610d25565b82525050565b6000610b4e602683610c78565b9150610b5982610e87565b604082019050919050565b6000610b71602083610c78565b9150610b7c82610ed6565b602082019050919050565b610b9081610d51565b82525050565b6000602082019050610bab6000830184610b23565b92915050565b6000602082019050610bc66000830184610b32565b92915050565b60006020820190508181036000830152610be581610b41565b9050919050565b60006020820190508181036000830152610c0581610b64565b9050919050565b6000602082019050610c216000830184610b87565b92915050565b6000610c31610c42565b9050610c3d8282610d5b565b919050565b6000604051905090565b600067ffffffffffffffff821115610c6757610c66610e33565b5b602082029050602081019050919050565b600082825260208201905092915050565b6000610c9482610d51565b9150610c9f83610d51565b9250827fffffffffffffffffffffffffffffffffffffffffffffffffffffffffffffffff03821115610cd457610cd3610dd5565b5b828201905092915050565b6000610cea82610d51565b9150610cf583610d51565b925082821015610d0857610d07610dd5565b5b828203905092915050565b6000610d1e82610d31565b9050919050565b60008115159050919050565b600073ffffffffffffffffffffffffffffffffffffffff82169050919050565b6000819050919050565b610d6482610e76565b810181811067ffffffffffffffff82111715610d8357610d82610e33565b5b80604052505050565b6000610d9782610d51565b91507fffffffffffffffffffffffffffffffffffffffffffffffffffffffffffffffff821415610dca57610dc9610dd5565b5b600182019050919050565b7f4e487b7100000000000000000000000000000000000000000000000000000000600052601160045260246000fd5b7f4e487b7100000000000000000000000000000000000000000000000000000000600052603260045260246000fd5b7f4e487b7100000000000000000000000000000000000000000000000000000000600052604160045260246000fd5b600080fd5b600080fd5b600080fd5b600080fd5b6000601f19601f8301169050919050565b7f4f776e61626c653a206e6577206f776e657220697320746865207a65726f206160008201527f6464726573730000000000000000000000000000000000000000000000000000602082015250565b7f4f776e61626c653a2063616c6c6572206973206e6f7420746865206f776e6572600082015250565b610f0881610d13565b8114610f1357600080fd5b5056fea2646970667358221220feccf7967160b27bc4e7387864d237b4000f88abed00a8f38cd892f59bf1675364736f6c63430008070033a26469706673582212202214371d1a8629eccb30c0f31421bf37cbb0fece473ce167ff73a25ef0189cc164736f6c63430008070033",
  "linkReferences": {
    "contracts/MOBALogicLibrary.sol": {
      "MOBALogicLibrary": [
        {
          "length": 20,
          "start": 2311
        },
        {
          "length": 20,
          "start": 2644
        },
        {
          "length": 20,
          "start": 3969
        }
      ]
    }
  },
  "deployedLinkReferences": {
    "contracts/MOBALogicLibrary.sol": {
      "MOBALogicLibrary": [
        {
          "length": 20,
          "start": 2272
        },
        {
          "length": 20,
          "start": 2605
        },
        {
          "length": 20,
          "start": 3930
        }
      ]
    }
  }
}