{
  "_format": "hh-sol-artifact-1",
  "contractName": "LeagueOfLegendsLogic",
  "sourceName": "contracts/LeagueOfLegendsLogic.sol",
  "abi": [
    {
      "anonymous": false,
      "inputs": [
        {
          "indexed": false,
          "internalType": "address",
          "name": "sender",
          "type": "address"
        },
        {
          "indexed": false,
          "internalType": "uint256",
          "name": "id",
          "type": "uint256"
        },
        {
          "indexed": false,
          "internalType": "uint256",
          "name": "position",
          "type": "uint256"
        }
      ],
      "name": "AthleteSetInLineup",
      "type": "event"
    },
    {
      "anonymous": false,
      "inputs": [
        {
          "indexed": false,
          "internalType": "address",
          "name": "sender",
          "type": "address"
        },
        {
          "indexed": false,
          "internalType": "uint256",
          "name": "amount",
          "type": "uint256"
        },
        {
          "indexed": false,
          "internalType": "address",
          "name": "leagueAddress",
          "type": "address"
        }
      ],
      "name": "Staked",
      "type": "event"
    },
    {
      "anonymous": false,
      "inputs": [
        {
          "indexed": false,
          "internalType": "address[]",
          "name": "winner",
          "type": "address[]"
        },
        {
          "indexed": false,
          "internalType": "uint256",
          "name": "prizePotPerWinner",
          "type": "uint256"
        }
      ],
      "name": "leagueEnded",
      "type": "event"
    },
    {
      "anonymous": false,
      "inputs": [
        {
          "indexed": false,
          "internalType": "address",
          "name": "sender",
          "type": "address"
        },
        {
          "indexed": false,
          "internalType": "address",
          "name": "leagueAddress",
          "type": "address"
        }
      ],
      "name": "scheduleSet",
      "type": "event"
    },
    {
      "inputs": [
        {
          "internalType": "address",
          "name": "_userToAdd",
          "type": "address"
        }
      ],
      "name": "addUserToWhitelist",
      "outputs": [],
      "stateMutability": "nonpayable",
      "type": "function"
    },
    {
      "inputs": [],
      "name": "admin",
      "outputs": [
        {
          "internalType": "address",
          "name": "",
          "type": "address"
        }
      ],
      "stateMutability": "view",
      "type": "function"
    },
    {
      "inputs": [],
      "name": "erc20",
      "outputs": [
        {
          "internalType": "contract IERC20",
          "name": "",
          "type": "address"
        }
      ],
      "stateMutability": "view",
      "type": "function"
    },
    {
      "inputs": [
        {
          "internalType": "uint256",
          "name": "currentWeekNum",
          "type": "uint256"
        }
      ],
      "name": "evaluateMatches",
      "outputs": [],
      "stateMutability": "nonpayable",
      "type": "function"
    },
    {
      "inputs": [],
      "name": "getContractUSDCBalance",
      "outputs": [
        {
          "internalType": "uint256",
          "name": "",
          "type": "uint256"
        }
      ],
      "stateMutability": "view",
      "type": "function"
    },
    {
      "inputs": [
        {
          "internalType": "uint256",
          "name": "_week",
          "type": "uint256"
        }
      ],
      "name": "getScheduleForWeek",
      "outputs": [
        {
          "components": [
            {
              "internalType": "address[2]",
              "name": "players",
              "type": "address[2]"
            }
          ],
          "internalType": "struct LeagueOfLegendsLogic.Matchup[]",
          "name": "",
          "type": "tuple[]"
        }
      ],
      "stateMutability": "view",
      "type": "function"
    },
    {
      "inputs": [
        {
          "internalType": "address",
          "name": "_user",
          "type": "address"
        }
      ],
      "name": "getUserRecord",
      "outputs": [
        {
          "internalType": "uint256[8]",
          "name": "",
          "type": "uint256[8]"
        }
      ],
      "stateMutability": "view",
      "type": "function"
    },
    {
      "inputs": [
        {
          "internalType": "address",
          "name": "",
          "type": "address"
        }
      ],
      "name": "inLeague",
      "outputs": [
        {
          "internalType": "bool",
          "name": "",
          "type": "bool"
        }
      ],
      "stateMutability": "view",
      "type": "function"
    },
    {
      "inputs": [
        {
          "internalType": "string",
          "name": "_name",
          "type": "string"
        },
        {
          "internalType": "uint256",
          "name": "_stakeAmount",
          "type": "uint256"
        },
        {
          "internalType": "bool",
          "name": "_isPublic",
          "type": "bool"
        },
        {
          "internalType": "address",
          "name": "athletesDataStorageAddress",
          "type": "address"
        },
        {
          "internalType": "address",
          "name": "_admin",
          "type": "address"
        },
        {
          "internalType": "address",
          "name": "_ierc20Address",
          "type": "address"
        },
        {
          "internalType": "address",
          "name": "_gameItemsContractAddress",
          "type": "address"
        },
        {
          "internalType": "address",
          "name": "_teamDiffAddress",
          "type": "address"
        },
        {
          "internalType": "address",
          "name": "_leagueMakerContractAddress",
          "type": "address"
        }
      ],
      "name": "initialize",
      "outputs": [],
      "stateMutability": "nonpayable",
      "type": "function"
    },
    {
      "inputs": [],
      "name": "isPublic",
      "outputs": [
        {
          "internalType": "bool",
          "name": "",
          "type": "bool"
        }
      ],
      "stateMutability": "view",
      "type": "function"
    },
    {
      "inputs": [],
      "name": "joinLeague",
      "outputs": [],
      "stateMutability": "nonpayable",
      "type": "function"
    },
    {
      "inputs": [],
      "name": "leagueEntryIsClosed",
      "outputs": [
        {
          "internalType": "bool",
          "name": "",
          "type": "bool"
        }
      ],
      "stateMutability": "view",
      "type": "function"
    },
    {
      "inputs": [
        {
          "internalType": "uint256",
          "name": "",
          "type": "uint256"
        }
      ],
      "name": "leagueMembers",
      "outputs": [
        {
          "internalType": "address",
          "name": "",
          "type": "address"
        }
      ],
      "stateMutability": "view",
      "type": "function"
    },
    {
      "inputs": [],
      "name": "leagueName",
      "outputs": [
        {
          "internalType": "string",
          "name": "",
          "type": "string"
        }
      ],
      "stateMutability": "view",
      "type": "function"
    },
    {
      "inputs": [],
      "name": "lineupIsLocked",
      "outputs": [
        {
          "internalType": "bool",
          "name": "",
          "type": "bool"
        }
      ],
      "stateMutability": "view",
      "type": "function"
    },
    {
      "inputs": [],
      "name": "lockLineup",
      "outputs": [],
      "stateMutability": "nonpayable",
      "type": "function"
    },
    {
      "inputs": [],
      "name": "numWeeks",
      "outputs": [
        {
          "internalType": "uint256",
          "name": "",
          "type": "uint256"
        }
      ],
      "stateMutability": "view",
      "type": "function"
    },
    {
      "inputs": [],
      "name": "onLeagueEnd",
      "outputs": [],
      "stateMutability": "nonpayable",
      "type": "function"
    },
    {
      "inputs": [
        {
          "internalType": "address",
          "name": "_userToRemove",
          "type": "address"
        }
      ],
      "name": "removeFromWhitelist",
      "outputs": [],
      "stateMutability": "nonpayable",
      "type": "function"
    },
    {
      "inputs": [
        {
          "internalType": "uint256",
          "name": "athleteId",
          "type": "uint256"
        },
        {
          "internalType": "uint256",
          "name": "position",
          "type": "uint256"
        }
      ],
      "name": "setAthleteInLineup",
      "outputs": [],
      "stateMutability": "nonpayable",
      "type": "function"
    },
    {
      "inputs": [],
      "name": "setLeagueEntryIsClosed",
      "outputs": [],
      "stateMutability": "nonpayable",
      "type": "function"
    },
    {
      "inputs": [],
      "name": "setLeagueEntryIsOpen",
      "outputs": [],
      "stateMutability": "nonpayable",
      "type": "function"
    },
    {
      "inputs": [],
      "name": "stakeAmount",
      "outputs": [
        {
          "internalType": "uint256",
          "name": "",
          "type": "uint256"
        }
      ],
      "stateMutability": "view",
      "type": "function"
    },
    {
      "inputs": [],
      "name": "teamDiffAddress",
      "outputs": [
        {
          "internalType": "address",
          "name": "",
          "type": "address"
        }
      ],
      "stateMutability": "view",
      "type": "function"
    },
    {
      "inputs": [],
      "name": "unlockLineup",
      "outputs": [],
      "stateMutability": "nonpayable",
      "type": "function"
    },
    {
      "inputs": [
        {
          "internalType": "address",
          "name": "",
          "type": "address"
        },
        {
          "internalType": "uint256",
          "name": "",
          "type": "uint256"
        }
      ],
      "name": "userToLineup",
      "outputs": [
        {
          "internalType": "uint256",
          "name": "",
          "type": "uint256"
        }
      ],
      "stateMutability": "view",
      "type": "function"
    },
    {
      "inputs": [
        {
          "internalType": "address",
          "name": "",
          "type": "address"
        }
      ],
      "name": "userToPoints",
      "outputs": [
        {
          "internalType": "uint256",
          "name": "",
          "type": "uint256"
        }
      ],
      "stateMutability": "view",
      "type": "function"
    },
    {
      "inputs": [
        {
          "internalType": "address",
          "name": "",
          "type": "address"
        },
        {
          "internalType": "uint256",
          "name": "",
          "type": "uint256"
        }
      ],
      "name": "userToRecord",
      "outputs": [
        {
          "internalType": "uint256",
          "name": "",
          "type": "uint256"
        }
      ],
      "stateMutability": "view",
      "type": "function"
    },
    {
      "inputs": [
        {
          "internalType": "address",
          "name": "",
          "type": "address"
        },
        {
          "internalType": "uint256",
          "name": "",
          "type": "uint256"
        }
      ],
      "name": "userToWeekScore",
      "outputs": [
        {
          "internalType": "uint256",
          "name": "",
          "type": "uint256"
        }
      ],
      "stateMutability": "view",
      "type": "function"
    },
    {
      "inputs": [],
      "name": "whitelistContract",
      "outputs": [
        {
          "internalType": "contract Whitelist",
          "name": "",
          "type": "address"
        }
      ],
      "stateMutability": "view",
      "type": "function"
    }
  ],
  "bytecode": "0x608060405234801561001057600080fd5b5060018081905550615370806100276000396000f3fe60806040523480156200001157600080fd5b5060043610620002075760003560e01c806384900b04116200011d578063c2bfd5ed11620000b1578063db2a6724116200007b578063db2a67241462000594578063dc9a153514620005ca578063e4c9066b14620005ec578063f851a44014620005f85762000207565b8063c2bfd5ed146200053a578063c8be3b5b1462000546578063c99fea941462000552578063cff56003146200055e5762000207565b8063989db65911620000f3578063989db65914620004ce578063a2bc091a14620004ee578063b47f862814620004fa578063bb79731c146200051a5762000207565b806384900b0414620004565780638ab1d68114620004785780639122ce6d14620004985762000207565b80632d382ee011620001a1578063747b8050116200016b578063747b805014620003d0578063785e9e8614620003f05780637eed33f11462000412578063841abf6e14620004345762000207565b80632d382ee0146200032057806360c7dc47146200035657806367e2efc614620003785780636cc15ad514620003ae5762000207565b80631d803e0011620001e35780631d803e0014620002865780631dd7f8ca1462000292578063267175db14620002b45780632ae6b13514620002ea5762000207565b80622772c2146200020c5780630635dbcb146200022e5780630c6f79591462000250575b600080fd5b620002166200061a565b6040516200022591906200371c565b60405180910390f35b62000238620006d2565b6040516200024791906200340b565b60405180910390f35b6200026e60048036038101906200026891906200292f565b620006e5565b6040516200027d91906200371c565b60405180910390f35b620002906200070e565b005b6200029c62000af6565b604051620002ab919062003223565b60405180910390f35b620002d26004803603810190620002cc919062002aab565b62000b1c565b604051620002e1919062003223565b60405180910390f35b620003086004803603810190620003029190620028fd565b62000b5c565b6040516200031791906200371c565b60405180910390f35b6200033e600480360381019062000338919062002aab565b62000b74565b6040516200034d9190620033c9565b60405180910390f35b6200036062000c65565b6040516200036f91906200371c565b60405180910390f35b620003966004803603810190620003909190620028fd565b62000c6b565b604051620003a59190620033ed565b60405180910390f35b620003b862000cf9565b604051620003c791906200340b565b60405180910390f35b620003ee6004803603810190620003e89190620028fd565b62000d0c565b005b620003fa62000f3a565b60405162000409919062003428565b60405180910390f35b6200041c62000f60565b6040516200042b91906200371c565b60405180910390f35b6200043e62000f66565b6040516200044d9190620034b6565b60405180910390f35b6200046062000ffc565b6040516200046f919062003445565b60405180910390f35b620004966004803603810190620004909190620028fd565b62001022565b005b620004b66004803603810190620004b09190620028fd565b620011bf565b604051620004c591906200340b565b60405180910390f35b620004ec6004803603810190620004e69190620029a8565b620011df565b005b620004f862001588565b005b62000518600480360381019062000512919062002b0f565b62001638565b005b62000538600480360381019062000532919062002aab565b62001937565b005b6200054462001abd565b005b6200055062001bbf565b005b6200055c62001c6f565b005b6200057c60048036038101906200057691906200292f565b6200236c565b6040516200058b91906200371c565b60405180910390f35b620005b26004803603810190620005ac91906200292f565b62002395565b604051620005c191906200371c565b60405180910390f35b620005d4620023be565b604051620005e391906200340b565b60405180910390f35b620005f6620023d1565b005b62000602620025de565b60405162000611919062003223565b60405180910390f35b6000601260009054906101000a900473ffffffffffffffffffffffffffffffffffffffff1673ffffffffffffffffffffffffffffffffffffffff166370a08231306040518263ffffffff1660e01b815260040162000679919062003223565b60206040518083038186803b1580156200069257600080fd5b505afa158015620006a7573d6000803e3d6000fd5b505050506040513d601f19601f82011682018060405250810190620006cd919062002add565b905090565b600660159054906101000a900460ff1681565b600760205281600052604060002081600881106200070257600080fd5b01600091509150505481565b600660009054906101000a900473ffffffffffffffffffffffffffffffffffffffff1673ffffffffffffffffffffffffffffffffffffffff163373ffffffffffffffffffffffffffffffffffffffff1614620007a1576040517f08c379a000000000000000000000000000000000000000000000000000000000815260040162000798906200362e565b60405180910390fd5b6000601260009054906101000a900473ffffffffffffffffffffffffffffffffffffffff1673ffffffffffffffffffffffffffffffffffffffff166370a08231306040518263ffffffff1660e01b815260040162000800919062003223565b60206040518083038186803b1580156200081957600080fd5b505afa1580156200082e573d6000803e3d6000fd5b505050506040513d601f19601f8201168201806040525081019062000854919062002add565b905073__$36fdb4e0c2cb91f3ceca5ea81b025328f3$__63cc9b40cc600c600a600d6040518463ffffffff1660e01b8152600401620008969392919062003351565b60006040518083038186803b158015620008af57600080fd5b505af4158015620008c4573d6000803e3d6000fd5b505050506000600d8054905082620008dd919062003937565b90507f648f2405ea194f3e49fe1655279883b3474e63909ab7e4a579b051d548ad8389600d826040516200091392919062003395565b60405180910390a160005b600d8054905081101562000af157601260009054906101000a900473ffffffffffffffffffffffffffffffffffffffff1673ffffffffffffffffffffffffffffffffffffffff1663095ea7b330846040518363ffffffff1660e01b81526004016200098b929190620032aa565b602060405180830381600087803b158015620009a657600080fd5b505af1158015620009bb573d6000803e3d6000fd5b505050506040513d601f19601f82011682018060405250810190620009e1919062002976565b50601260009054906101000a900473ffffffffffffffffffffffffffffffffffffffff1673ffffffffffffffffffffffffffffffffffffffff166323b872dd30600d848154811062000a385762000a3762003c3e565b5b9060005260206000200160009054906101000a900473ffffffffffffffffffffffffffffffffffffffff16856040518463ffffffff1660e01b815260040162000a84939291906200326d565b602060405180830381600087803b15801562000a9f57600080fd5b505af115801562000ab4573d6000803e3d6000fd5b505050506040513d601f19601f8201168201806040525081019062000ada919062002976565b50808062000ae89062003b63565b9150506200091e565b505050565b600660009054906101000a900473ffffffffffffffffffffffffffffffffffffffff1681565b600c818154811062000b2d57600080fd5b906000526020600020016000915054906101000a900473ffffffffffffffffffffffffffffffffffffffff1681565b600a6020528060005260406000206000915090505481565b6060600e6000838152602001908152602001600020805480602002602001604051908101604052809291908181526020016000905b8282101562000c5a57838290600052602060002090600202016040518060200160405290816000820160028060200260405190810160405280929190826002801562000c41576020028201915b8160009054906101000a900473ffffffffffffffffffffffffffffffffffffffff1673ffffffffffffffffffffffffffffffffffffffff168152602001906001019080831162000bf6575b5050505050815250508152602001906001019062000ba9565b505050509050919050565b60045481565b62000c7562002700565b600760008373ffffffffffffffffffffffffffffffffffffffff1673ffffffffffffffffffffffffffffffffffffffff16815260200190815260200160002060088060200260405190810160405280929190826008801562000ced576020028201915b81548152602001906001019080831162000cd8575b50505050509050919050565b600660149054906101000a900460ff1681565b600560009054906101000a900473ffffffffffffffffffffffffffffffffffffffff1673ffffffffffffffffffffffffffffffffffffffff163373ffffffffffffffffffffffffffffffffffffffff161462000d9f576040517f08c379a000000000000000000000000000000000000000000000000000000000815260040162000d96906200360c565b60405180910390fd5b600660149054906101000a900460ff161562000df2576040517f08c379a000000000000000000000000000000000000000000000000000000000815260040162000de99062003694565b60405180910390fd5b601060009054906101000a900473ffffffffffffffffffffffffffffffffffffffff1673ffffffffffffffffffffffffffffffffffffffff16637b9417c8826040518263ffffffff1660e01b815260040162000e4f919062003223565b602060405180830381600087803b15801562000e6a57600080fd5b505af115801562000e7f573d6000803e3d6000fd5b505050506040513d601f19601f8201168201806040525081019062000ea5919062002976565b50601160009054906101000a900473ffffffffffffffffffffffffffffffffffffffff1673ffffffffffffffffffffffffffffffffffffffff1663771bd4ce826040518263ffffffff1660e01b815260040162000f03919062003223565b600060405180830381600087803b15801562000f1e57600080fd5b505af115801562000f33573d6000803e3d6000fd5b5050505050565b601260009054906101000a900473ffffffffffffffffffffffffffffffffffffffff1681565b60035481565b6002805462000f759062003b0f565b80601f016020809104026020016040519081016040528092919081815260200182805462000fa39062003b0f565b801562000ff45780601f1062000fc85761010080835404028352916020019162000ff4565b820191906000526020600020905b81548152906001019060200180831162000fd657829003601f168201915b505050505081565b601060009054906101000a900473ffffffffffffffffffffffffffffffffffffffff1681565b600560009054906101000a900473ffffffffffffffffffffffffffffffffffffffff1673ffffffffffffffffffffffffffffffffffffffff163373ffffffffffffffffffffffffffffffffffffffff1614620010b5576040517f08c379a0000000000000000000000000000000000000000000000000000000008152600401620010ac906200360c565b60405180910390fd5b600660149054906101000a900460ff161562001108576040517f08c379a0000000000000000000000000000000000000000000000000000000008152600401620010ff9062003694565b60405180910390fd5b601060009054906101000a900473ffffffffffffffffffffffffffffffffffffffff1673ffffffffffffffffffffffffffffffffffffffff1663286dd3f5826040518263ffffffff1660e01b815260040162001165919062003223565b602060405180830381600087803b1580156200118057600080fd5b505af115801562001195573d6000803e3d6000fd5b505050506040513d601f19601f82011682018060405250810190620011bb919062002976565b5050565b600b6020528060005260406000206000915054906101000a900460ff1681565b600060019054906101000a900460ff16620012095760008054906101000a900460ff161562001214565b6200121362002604565b5b62001256576040517f08c379a00000000000000000000000000000000000000000000000000000000081526004016200124d90620035ea565b60405180910390fd5b60008060019054906101000a900460ff161590508015620012a7576001600060016101000a81548160ff02191690831515021790555060016000806101000a81548160ff0219169083151502179055505b8a8a60029190620012ba92919062002723565b50600860038190555085600560006101000a81548173ffffffffffffffffffffffffffffffffffffffff021916908373ffffffffffffffffffffffffffffffffffffffff1602179055508860048190555087600660166101000a81548160ff0219169083151502179055506000600660146101000a81548160ff0219169083151502179055506000600660156101000a81548160ff02191690831515021790555086600f60006101000a81548173ffffffffffffffffffffffffffffffffffffffff021916908373ffffffffffffffffffffffffffffffffffffffff16021790555081601160006101000a81548173ffffffffffffffffffffffffffffffffffffffff021916908373ffffffffffffffffffffffffffffffffffffffff16021790555087604051620013ec90620027b4565b620013f891906200340b565b604051809103906000f08015801562001415573d6000803e3d6000fd5b50601060006101000a81548173ffffffffffffffffffffffffffffffffffffffff021916908373ffffffffffffffffffffffffffffffffffffffff16021790555084601260006101000a81548173ffffffffffffffffffffffffffffffffffffffff021916908373ffffffffffffffffffffffffffffffffffffffff16021790555082600660006101000a81548173ffffffffffffffffffffffffffffffffffffffff021916908373ffffffffffffffffffffffffffffffffffffffff16021790555083601360006101000a81548173ffffffffffffffffffffffffffffffffffffffff021916908373ffffffffffffffffffffffffffffffffffffffff160217905550620015596040518060400160405280601281526020017f50726f787920696e697469616c697a656421000000000000000000000000000081525062002617565b80156200157b5760008060016101000a81548160ff0219169083151502179055505b5050505050505050505050565b600660009054906101000a900473ffffffffffffffffffffffffffffffffffffffff1673ffffffffffffffffffffffffffffffffffffffff163373ffffffffffffffffffffffffffffffffffffffff16146200161b576040517f08c379a000000000000000000000000000000000000000000000000000000000815260040162001612906200362e565b60405180910390fd5b6000600660156101000a81548160ff021916908315150217905550565b600660159054906101000a900460ff16156200168b576040517f08c379a00000000000000000000000000000000000000000000000000000000081526004016200168290620035c8565b60405180910390fd5b600b60003373ffffffffffffffffffffffffffffffffffffffff1673ffffffffffffffffffffffffffffffffffffffff16815260200190815260200160002060009054906101000a900460ff166200171a576040517f08c379a0000000000000000000000000000000000000000000000000000000008152600401620017119062003650565b60405180910390fd5b6000601360009054906101000a900473ffffffffffffffffffffffffffffffffffffffff1673ffffffffffffffffffffffffffffffffffffffff1662fdd58e33856040518363ffffffff1660e01b81526004016200177a929190620032aa565b60206040518083038186803b1580156200179357600080fd5b505afa158015620017a8573d6000803e3d6000fd5b505050506040513d601f19601f82011682018060405250810190620017ce919062002add565b1162001811576040517f08c379a00000000000000000000000000000000000000000000000000000000081526004016200180890620036b6565b60405180910390fd5b600a816200182091906200396f565b82101580156200185a57506001600a6001836200183e9190620038da565b6200184a91906200396f565b620018569190620039d0565b8211155b6200189c576040517f08c379a0000000000000000000000000000000000000000000000000000000008152600401620018939062003584565b60405180910390fd5b81600860003373ffffffffffffffffffffffffffffffffffffffff1673ffffffffffffffffffffffffffffffffffffffff1681526020019081526020016000208260058110620018f157620018f062003c3e565b5b01819055507f3cfdf147aadd79819d84786e9ecc684d6f3a96df00f508952e97cb7dc3fb32833383836040516200192b9392919062003314565b60405180910390a15050565b600660009054906101000a900473ffffffffffffffffffffffffffffffffffffffff1673ffffffffffffffffffffffffffffffffffffffff163373ffffffffffffffffffffffffffffffffffffffff1614620019ca576040517f08c379a0000000000000000000000000000000000000000000000000000000008152600401620019c1906200362e565b60405180910390fd5b600660149054906101000a900460ff1662001a1c576040517f08c379a000000000000000000000000000000000000000000000000000000000815260040162001a139062003562565b60405180910390fd5b73__$36fdb4e0c2cb91f3ceca5ea81b025328f3$__6303626e8482600f60009054906101000a900473ffffffffffffffffffffffffffffffffffffffff1660076008600a6009600e6040518863ffffffff1660e01b815260040162001a88979695949392919062003739565b60006040518083038186803b15801562001aa157600080fd5b505af415801562001ab6573d6000803e3d6000fd5b5050505050565b600560009054906101000a900473ffffffffffffffffffffffffffffffffffffffff1673ffffffffffffffffffffffffffffffffffffffff163373ffffffffffffffffffffffffffffffffffffffff161462001b50576040517f08c379a000000000000000000000000000000000000000000000000000000000815260040162001b47906200360c565b60405180910390fd5b600660149054906101000a900460ff1662001ba2576040517f08c379a000000000000000000000000000000000000000000000000000000000815260040162001b999062003672565b60405180910390fd5b6000600660146101000a81548160ff021916908315150217905550565b600660009054906101000a900473ffffffffffffffffffffffffffffffffffffffff1673ffffffffffffffffffffffffffffffffffffffff163373ffffffffffffffffffffffffffffffffffffffff161462001c52576040517f08c379a000000000000000000000000000000000000000000000000000000000815260040162001c49906200362e565b60405180910390fd5b6001600660156101000a81548160ff021916908315150217905550565b6002600154141562001cb8576040517f08c379a000000000000000000000000000000000000000000000000000000000815260040162001caf90620036d8565b60405180910390fd5b6002600181905550600660149054906101000a900460ff161562001d13576040517f08c379a000000000000000000000000000000000000000000000000000000000815260040162001d0a90620036fa565b60405180910390fd5b601060009054906101000a900473ffffffffffffffffffffffffffffffffffffffff1673ffffffffffffffffffffffffffffffffffffffff16639b19251a336040518263ffffffff1660e01b815260040162001d70919062003223565b60206040518083038186803b15801562001d8957600080fd5b505afa15801562001d9e573d6000803e3d6000fd5b505050506040513d601f19601f8201168201806040525081019062001dc4919062002976565b8062001e705750601060009054906101000a900473ffffffffffffffffffffffffffffffffffffffff1673ffffffffffffffffffffffffffffffffffffffff1663dc9a15356040518163ffffffff1660e01b815260040160206040518083038186803b15801562001e3457600080fd5b505afa15801562001e49573d6000803e3d6000fd5b505050506040513d601f19601f8201168201806040525081019062001e6f919062002976565b5b8062001ec95750600560009054906101000a900473ffffffffffffffffffffffffffffffffffffffff1673ffffffffffffffffffffffffffffffffffffffff163373ffffffffffffffffffffffffffffffffffffffff16145b62001f0b576040517f08c379a000000000000000000000000000000000000000000000000000000000815260040162001f02906200351e565b60405180910390fd5b600b60003373ffffffffffffffffffffffffffffffffffffffff1673ffffffffffffffffffffffffffffffffffffffff16815260200190815260200160002060009054906101000a900460ff161562001f9b576040517f08c379a000000000000000000000000000000000000000000000000000000000815260040162001f929062003540565b60405180910390fd5b600454601260009054906101000a900473ffffffffffffffffffffffffffffffffffffffff1673ffffffffffffffffffffffffffffffffffffffff166370a08231336040518263ffffffff1660e01b815260040162001ffb919062003223565b60206040518083038186803b1580156200201457600080fd5b505afa15801562002029573d6000803e3d6000fd5b505050506040513d601f19601f820116820180604052508101906200204f919062002add565b101562002093576040517f08c379a00000000000000000000000000000000000000000000000000000000081526004016200208a90620034fc565b60405180910390fd5b601160009054906101000a900473ffffffffffffffffffffffffffffffffffffffff1673ffffffffffffffffffffffffffffffffffffffff1663771bd4ce336040518263ffffffff1660e01b8152600401620020f0919062003223565b600060405180830381600087803b1580156200210b57600080fd5b505af115801562002120573d6000803e3d6000fd5b505050506001600b60003373ffffffffffffffffffffffffffffffffffffffff1673ffffffffffffffffffffffffffffffffffffffff16815260200190815260200160002060006101000a81548160ff021916908315150217905550600c339080600181540180825580915050600190039060005260206000200160009091909190916101000a81548173ffffffffffffffffffffffffffffffffffffffff021916908373ffffffffffffffffffffffffffffffffffffffff1602179055506040518060a00160405280606460ff168152602001606460ff168152602001606460ff168152602001606460ff168152602001606460ff16815250600860003373ffffffffffffffffffffffffffffffffffffffff1673ffffffffffffffffffffffffffffffffffffffff16815260200190815260200160002090600562002269929190620027c2565b50601260009054906101000a900473ffffffffffffffffffffffffffffffffffffffff1673ffffffffffffffffffffffffffffffffffffffff166323b872dd33306004546040518463ffffffff1660e01b8152600401620022cd939291906200326d565b602060405180830381600087803b158015620022e857600080fd5b505af1158015620022fd573d6000803e3d6000fd5b505050506040513d601f19601f8201168201806040525081019062002323919062002976565b507f9f9e4044c5742cca66ca090b21552bac14645e68bad7a92364a9d9ff18111a1c33600454306040516200235b93929190620032d7565b60405180910390a160018081905550565b600860205281600052604060002081600581106200238957600080fd5b01600091509150505481565b60096020528160005260406000208160088110620023b257600080fd5b01600091509150505481565b600660169054906101000a900460ff1681565b600660009054906101000a900473ffffffffffffffffffffffffffffffffffffffff1673ffffffffffffffffffffffffffffffffffffffff163373ffffffffffffffffffffffffffffffffffffffff1614806200247b5750600560009054906101000a900473ffffffffffffffffffffffffffffffffffffffff1673ffffffffffffffffffffffffffffffffffffffff163373ffffffffffffffffffffffffffffffffffffffff16145b620024bd576040517f08c379a0000000000000000000000000000000000000000000000000000000008152600401620024b490620035a6565b60405180910390fd5b600660149054906101000a900460ff161562002510576040517f08c379a00000000000000000000000000000000000000000000000000000000081526004016200250790620034da565b60405180910390fd5b6001600660146101000a81548160ff02191690831515021790555073__$36fdb4e0c2cb91f3ceca5ea81b025328f3$__63d2c232b5600e600c60035460026040518563ffffffff1660e01b81526004016200256f949392919062003462565b60006040518083038186803b1580156200258857600080fd5b505af41580156200259d573d6000803e3d6000fd5b505050507f47e4bb41e46c32049c0f9618964277e228be362ef4c12d8b5049bde9634af8a83330604051620025d492919062003240565b60405180910390a1565b600560009054906101000a900473ffffffffffffffffffffffffffffffffffffffff1681565b60006200261130620026b4565b15905090565b620026b1816040516024016200262e9190620034b6565b6040516020818303038152906040527f41304fac000000000000000000000000000000000000000000000000000000007bffffffffffffffffffffffffffffffffffffffffffffffffffffffff19166020820180517bffffffffffffffffffffffffffffffffffffffffffffffffffffffff8381831617835250505050620026d7565b50565b6000808273ffffffffffffffffffffffffffffffffffffffff163b119050919050565b60008151905060006a636f6e736f6c652e6c6f679050602083016000808483855afa5050505050565b604051806101000160405280600890602082028036833780820191505090505090565b828054620027319062003b0f565b90600052602060002090601f016020900481019282620027555760008555620027a1565b82601f106200277057803560ff1916838001178555620027a1565b82800160010185558215620027a1579182015b82811115620027a057823582559160200191906001019062002783565b5b509050620027b091906200280c565b5090565b61124a80620040f183390190565b8260058101928215620027f9579160200282015b82811115620027f8578251829060ff16905591602001919060010190620027d6565b5b5090506200280891906200280c565b5090565b5b80821115620028275760008160009055506001016200280d565b5090565b6000813590506200283c81620040a2565b92915050565b6000813590506200285381620040bc565b92915050565b6000815190506200286a81620040bc565b92915050565b60008083601f84011262002889576200288862003c87565b5b8235905067ffffffffffffffff811115620028a957620028a862003c82565b5b602083019150836001820283011115620028c857620028c762003c8c565b5b9250929050565b600081359050620028e081620040d6565b92915050565b600081519050620028f781620040d6565b92915050565b60006020828403121562002916576200291562003c96565b5b600062002926848285016200282b565b91505092915050565b6000806040838503121562002949576200294862003c96565b5b600062002959858286016200282b565b92505060206200296c85828601620028cf565b9150509250929050565b6000602082840312156200298f576200298e62003c96565b5b60006200299f8482850162002859565b91505092915050565b6000806000806000806000806000806101208b8d031215620029cf57620029ce62003c96565b5b60008b013567ffffffffffffffff811115620029f057620029ef62003c91565b5b620029fe8d828e0162002870565b9a509a5050602062002a138d828e01620028cf565b985050604062002a268d828e0162002842565b975050606062002a398d828e016200282b565b965050608062002a4c8d828e016200282b565b95505060a062002a5f8d828e016200282b565b94505060c062002a728d828e016200282b565b93505060e062002a858d828e016200282b565b92505061010062002a998d828e016200282b565b9150509295989b9194979a5092959850565b60006020828403121562002ac45762002ac362003c96565b5b600062002ad484828501620028cf565b91505092915050565b60006020828403121562002af65762002af562003c96565b5b600062002b0684828501620028e6565b91505092915050565b6000806040838503121562002b295762002b2862003c96565b5b600062002b3985828601620028cf565b925050602062002b4c85828601620028cf565b9150509250929050565b600062002b64838362002bbe565b60208301905092915050565b600062002b7e838362002be0565b60208301905092915050565b600062002b988383620031d2565b60408301905092915050565b600062002bb28383620031f0565b60208301905092915050565b62002bc98162003a2b565b82525050565b62002bda8162003a2b565b82525050565b62002beb8162003a2b565b82525050565b62002bfc8162003804565b62002c0881846200386f565b925062002c1582620037b6565b8060005b8381101562002c4c57815162002c30878262002b56565b965062002c3d836200383b565b92505060018101905062002c19565b505050505050565b600062002c61826200380f565b62002c6d81856200387a565b935062002c7a83620037c0565b8060005b8381101562002cba5762002c928262003c6d565b62002c9e888262002b56565b975062002cab8362003848565b92505060018101905062002c7e565b5085935050505092915050565b600062002cd4826200380f565b62002ce081856200388b565b935062002ced83620037c0565b8060005b8381101562002d2d5762002d058262003c6d565b62002d11888262002b70565b975062002d1e8362003848565b92505060018101905062002cf1565b5085935050505092915050565b8082525050565b600062002d4e826200381a565b62002d5a81856200389c565b935062002d6783620037d5565b8060005b8381101562002d9e57815162002d82888262002b8a565b975062002d8f8362003855565b92505060018101905062002d6b565b5085935050505092915050565b62002db68162003825565b62002dc28184620038ad565b925062002dcf82620037e5565b8060005b8381101562002e0657815162002dea878262002ba4565b965062002df78362003862565b92505060018101905062002dd3565b505050505050565b62002e198162003a3f565b82525050565b62002e2a8162003a75565b82525050565b62002e3b8162003a89565b82525050565b62002e4c8162003a9d565b82525050565b8082525050565b8082525050565b8082525050565b8082525050565b600062002e7b8262003830565b62002e878185620038b8565b935062002e9981856020860162003ad9565b62002ea48162003c9b565b840191505092915050565b6000815462002ebe8162003b0f565b62002eca8186620038c9565b9450600182166000811462002ee8576001811462002efb5762002f32565b60ff198316865260208601935062002f32565b62002f0685620037ef565b60005b8381101562002f2a5781548189015260018201915060208101905062002f09565b808801955050505b50505092915050565b600062002f4a602483620038b8565b915062002f578262003cb9565b604082019050919050565b600062002f71601d83620038b8565b915062002f7e8262003d08565b602082019050919050565b600062002f98601883620038b8565b915062002fa58262003d31565b602082019050919050565b600062002fbf602383620038b8565b915062002fcc8262003d5a565b604082019050919050565b600062002fe6603d83620038b8565b915062002ff38262003da9565b604082019050919050565b60006200300d603183620038b8565b91506200301a8262003df8565b604082019050919050565b600062003034601f83620038b8565b9150620030418262003e47565b602082019050919050565b60006200305b601e83620038b8565b9150620030688262003e70565b602082019050919050565b600062003082602e83620038b8565b91506200308f8262003e99565b604082019050919050565b6000620030a9601783620038b8565b9150620030b68262003ee8565b602082019050919050565b6000620030d0601683620038b8565b9150620030dd8262003f11565b602082019050919050565b6000620030f7601683620038b8565b9150620031048262003f3a565b602082019050919050565b60006200311e601c83620038b8565b91506200312b8262003f63565b602082019050919050565b600062003145604183620038b8565b9150620031528262003f8c565b606082019050919050565b60006200316c602483620038b8565b9150620031798262004001565b604082019050919050565b600062003193601f83620038b8565b9150620031a08262004050565b602082019050919050565b6000620031ba601783620038b8565b9150620031c78262004079565b602082019050919050565b604082016000820151620031ea600085018262002bf1565b50505050565b620031fb8162003a6b565b82525050565b6200320c8162003a6b565b82525050565b6200321d8162003a6b565b82525050565b60006020820190506200323a600083018462002bcf565b92915050565b600060408201905062003257600083018562002bcf565b62003266602083018462002bcf565b9392505050565b600060608201905062003284600083018662002bcf565b62003293602083018562002bcf565b620032a2604083018462003201565b949350505050565b6000604082019050620032c1600083018562002bcf565b620032d0602083018462003201565b9392505050565b6000606082019050620032ee600083018662002bcf565b620032fd602083018562003201565b6200330c604083018462002bcf565b949350505050565b60006060820190506200332b600083018662002bcf565b6200333a602083018562003201565b62003349604083018462003201565b949350505050565b600060608201905081810360008301526200336d818662002cc7565b90506200337e602083018562002e60565b6200338d604083018462002d3a565b949350505050565b60006040820190508181036000830152620033b1818562002c54565b9050620033c2602083018462003201565b9392505050565b60006020820190508181036000830152620033e5818462002d41565b905092915050565b60006101008201905062003405600083018462002dab565b92915050565b600060208201905062003422600083018462002e0e565b92915050565b60006020820190506200343f600083018462002e30565b92915050565b60006020820190506200345c600083018462002e41565b92915050565b600060808201905062003479600083018762002e67565b62003488602083018662002d3a565b62003497604083018562003212565b8181036060830152620034ab818462002eaf565b905095945050505050565b60006020820190508181036000830152620034d2818462002e6e565b905092915050565b60006020820190508181036000830152620034f58162002f3b565b9050919050565b60006020820190508181036000830152620035178162002f62565b9050919050565b60006020820190508181036000830152620035398162002f89565b9050919050565b600060208201905081810360008301526200355b8162002fb0565b9050919050565b600060208201905081810360008301526200357d8162002fd7565b9050919050565b600060208201905081810360008301526200359f8162002ffe565b9050919050565b60006020820190508181036000830152620035c18162003025565b9050919050565b60006020820190508181036000830152620035e3816200304c565b9050919050565b60006020820190508181036000830152620036058162003073565b9050919050565b6000602082019050818103600083015262003627816200309a565b9050919050565b600060208201905081810360008301526200364981620030c1565b9050919050565b600060208201905081810360008301526200366b81620030e8565b9050919050565b600060208201905081810360008301526200368d816200310f565b9050919050565b60006020820190508181036000830152620036af8162003136565b9050919050565b60006020820190508181036000830152620036d1816200315d565b9050919050565b60006020820190508181036000830152620036f38162003184565b9050919050565b600060208201905081810360008301526200371581620031ab565b9050919050565b600060208201905062003733600083018462003201565b92915050565b600060e08201905062003750600083018a62003212565b6200375f602083018962002e1f565b6200376e604083018862002e59565b6200377d606083018762002e52565b6200378c608083018662002e60565b6200379b60a083018562002e59565b620037aa60c083018462002e67565b98975050505050505050565b6000819050919050565b60008190508160005260206000209050919050565b6000819050602082019050919050565b6000819050919050565b60008190508160005260206000209050919050565b600060029050919050565b600081549050919050565b600081519050919050565b600060089050919050565b600081519050919050565b6000602082019050919050565b6000600182019050919050565b6000602082019050919050565b6000602082019050919050565b600081905092915050565b600082825260208201905092915050565b600082825260208201905092915050565b600082825260208201905092915050565b600081905092915050565b600082825260208201905092915050565b600082825260208201905092915050565b6000620038e78262003a6b565b9150620038f48362003a6b565b9250827fffffffffffffffffffffffffffffffffffffffffffffffffffffffffffffffff038211156200392c576200392b62003bb1565b5b828201905092915050565b6000620039448262003a6b565b9150620039518362003a6b565b92508262003964576200396362003be0565b5b828204905092915050565b60006200397c8262003a6b565b9150620039898362003a6b565b9250817fffffffffffffffffffffffffffffffffffffffffffffffffffffffffffffffff0483118215151615620039c557620039c462003bb1565b5b828202905092915050565b6000620039dd8262003a6b565b9150620039ea8362003a6b565b92508282101562003a0057620039ff62003bb1565b5b828203905092915050565b600073ffffffffffffffffffffffffffffffffffffffff82169050919050565b600062003a388262003a4b565b9050919050565b60008115159050919050565b600073ffffffffffffffffffffffffffffffffffffffff82169050919050565b6000819050919050565b600062003a828262003ab1565b9050919050565b600062003a968262003ab1565b9050919050565b600062003aaa8262003ab1565b9050919050565b600062003abe8262003ac5565b9050919050565b600062003ad28262003a4b565b9050919050565b60005b8381101562003af957808201518184015260208101905062003adc565b8381111562003b09576000848401525b50505050565b6000600282049050600182168062003b2857607f821691505b6020821081141562003b3f5762003b3e62003c0f565b5b50919050565b600062003b5c62003b568362003cac565b62003a0b565b9050919050565b600062003b708262003a6b565b91507fffffffffffffffffffffffffffffffffffffffffffffffffffffffffffffffff82141562003ba65762003ba562003bb1565b5b600182019050919050565b7f4e487b7100000000000000000000000000000000000000000000000000000000600052601160045260246000fd5b7f4e487b7100000000000000000000000000000000000000000000000000000000600052601260045260246000fd5b7f4e487b7100000000000000000000000000000000000000000000000000000000600052602260045260246000fd5b7f4e487b7100000000000000000000000000000000000000000000000000000000600052603260045260246000fd5b600062003c7b825462003b45565b9050919050565b600080fd5b600080fd5b600080fd5b600080fd5b600080fd5b6000601f19601f8301169050919050565b60008160001c9050919050565b7f4c656167756520656e7472792068617320616c7265616479206265656e20636c60008201527f6f73656400000000000000000000000000000000000000000000000000000000602082015250565b7f496e737566666963656e742066756e647320666f72207374616b696e67000000600082015250565b7f55736572206973206e6f74206f6e2077686974656c6973740000000000000000600082015250565b7f596f75206861766520616c7265616479206a6f696e65642074686973206c656160008201527f6775650000000000000000000000000000000000000000000000000000000000602082015250565b7f6c656167756520656e747279206e6f7420636c6f7365642c20616e642073636860008201527f6564756c65206e6f742073657420666f722074686973206c6561677565000000602082015250565b7f596f75206172652073657474696e6720616e206174686c65746520696e20746860008201527f652077726f6e6720706f736974696f6e21000000000000000000000000000000602082015250565b7f43616c6c6572206973206e6f74205465616d44696666206f722041646d696e00600082015250565b7f6c696e657570206973206c6f636b656420666f7220746865207765656b210000600082015250565b7f496e697469616c697a61626c653a20636f6e747261637420697320616c72656160008201527f647920696e697469616c697a6564000000000000000000000000000000000000602082015250565b7f43616c6c6572206973206e6f74207468652061646d696e000000000000000000600082015250565b7f43616c6c6572206973206e6f74205465616d4469666600000000000000000000600082015250565b7f55736572206973206e6f7420696e204c65616775652e00000000000000000000600082015250565b7f4c656167756520656e74727920697320616c7265616479206f70656e00000000600082015250565b7f4e6f626f64792063616e20656e7465722f6578697420746865206c656167756560008201527f20616e796d6f72652e2054686520736561736f6e20686173207374617274656460208201527f2100000000000000000000000000000000000000000000000000000000000000604082015250565b7f43616c6c657220646f6573206e6f74206f776e20676976656e206174686c657460008201527f6549647300000000000000000000000000000000000000000000000000000000602082015250565b7f5265656e7472616e637947756172643a207265656e7472616e742063616c6c00600082015250565b7f4c656167756520456e74727920697320436c6f73656421000000000000000000600082015250565b620040ad8162003a2b565b8114620040b957600080fd5b50565b620040c78162003a3f565b8114620040d357600080fd5b50565b620040e18162003a6b565b8114620040ed57600080fd5b5056fe60806040523480156200001157600080fd5b506040516200124a3803806200124a83398181016040528101906200003791906200015b565b620000576200004b6200007860201b60201c565b6200008060201b60201c565b80600460006101000a81548160ff02191690831515021790555050620001b8565b600033905090565b60008060009054906101000a900473ffffffffffffffffffffffffffffffffffffffff169050816000806101000a81548173ffffffffffffffffffffffffffffffffffffffff021916908373ffffffffffffffffffffffffffffffffffffffff1602179055508173ffffffffffffffffffffffffffffffffffffffff168173ffffffffffffffffffffffffffffffffffffffff167f8be0079c531659141344cd1fd0a4f28419497f9722a3daafe3b4186f6b6457e060405160405180910390a35050565b60008151905062000155816200019e565b92915050565b60006020828403121562000174576200017362000199565b5b6000620001848482850162000144565b91505092915050565b60008115159050919050565b600080fd5b620001a9816200018d565b8114620001b557600080fd5b50565b61108280620001c86000396000f3fe608060405234801561001057600080fd5b50600436106100b45760003560e01c80639b19251a116100715780639b19251a1461018f578063ba4e5c49146101bf578063dc9a1535146101ef578063e2ec6ec31461020d578063e35a89991461023d578063f2fde38b1461026d576100b4565b806324953eaa146100b9578063286dd3f5146100e957806344eaa84e14610119578063715018a6146101375780637b9417c8146101415780638da5cb5b14610171575b600080fd5b6100d360048036038101906100ce9190610bcc565b610289565b6040516100e09190610cd0565b60405180910390f35b61010360048036038101906100fe9190610b9f565b610359565b6040516101109190610cd0565b60405180910390f35b6101216104dc565b60405161012e9190610d2b565b60405180910390f35b61013f6104e6565b005b61015b60048036038101906101569190610b9f565b61056e565b6040516101689190610cd0565b60405180910390f35b610179610752565b6040516101869190610cb5565b60405180910390f35b6101a960048036038101906101a49190610b9f565b61077b565b6040516101b69190610cd0565b60405180910390f35b6101d960048036038101906101d49190610c15565b61079b565b6040516101e69190610cb5565b60405180910390f35b6101f76107da565b6040516102049190610cd0565b60405180910390f35b61022760048036038101906102229190610bcc565b6107ed565b6040516102349190610cd0565b60405180910390f35b61025760048036038101906102529190610b9f565b6108bd565b6040516102649190610cd0565b60405180910390f35b61028760048036038101906102829190610b9f565b610913565b005b6000610293610a0b565b73ffffffffffffffffffffffffffffffffffffffff166102b1610752565b73ffffffffffffffffffffffffffffffffffffffff1614610307576040517f08c379a00000000000000000000000000000000000000000000000000000000081526004016102fe90610d0b565b60405180910390fd5b60005b82518110156103535761033683828151811061032957610328610f23565b5b6020026020010151610359565b1561034057600191505b808061034b90610eab565b91505061030a565b50919050565b6000610363610a0b565b73ffffffffffffffffffffffffffffffffffffffff16610381610752565b73ffffffffffffffffffffffffffffffffffffffff16146103d7576040517f08c379a00000000000000000000000000000000000000000000000000000000081526004016103ce90610d0b565b60405180910390fd5b600160008373ffffffffffffffffffffffffffffffffffffffff1673ffffffffffffffffffffffffffffffffffffffff16815260200190815260200160002060009054906101000a900460ff16156104d7576000600160008473ffffffffffffffffffffffffffffffffffffffff1673ffffffffffffffffffffffffffffffffffffffff16815260200190815260200160002060006101000a81548160ff0219169083151502179055507ff1abf01a1043b7c244d128e8595cf0c1d10743b022b03a02dffd8ca3bf729f5a826040516104b09190610cb5565b60405180910390a16001600360008282546104cb9190610dfe565b92505081905550600190505b919050565b6000600354905090565b6104ee610a0b565b73ffffffffffffffffffffffffffffffffffffffff1661050c610752565b73ffffffffffffffffffffffffffffffffffffffff1614610562576040517f08c379a000000000000000000000000000000000000000000000000000000000815260040161055990610d0b565b60405180910390fd5b61056c6000610a13565b565b6000610578610a0b565b73ffffffffffffffffffffffffffffffffffffffff16610596610752565b73ffffffffffffffffffffffffffffffffffffffff16146105ec576040517f08c379a00000000000000000000000000000000000000000000000000000000081526004016105e390610d0b565b60405180910390fd5b600160008373ffffffffffffffffffffffffffffffffffffffff1673ffffffffffffffffffffffffffffffffffffffff16815260200190815260200160002060009054906101000a900460ff1661074d5760018060008473ffffffffffffffffffffffffffffffffffffffff1673ffffffffffffffffffffffffffffffffffffffff16815260200190815260200160002060006101000a81548160ff0219169083151502179055506002829080600181540180825580915050600190039060005260206000200160009091909190916101000a81548173ffffffffffffffffffffffffffffffffffffffff021916908373ffffffffffffffffffffffffffffffffffffffff1602179055507fd1bba68c128cc3f427e5831b3c6f99f480b6efa6b9e80c757768f6124158cc3f826040516107269190610cb5565b60405180910390a16001600360008282546107419190610da8565b92505081905550600190505b919050565b60008060009054906101000a900473ffffffffffffffffffffffffffffffffffffffff16905090565b60016020528060005260406000206000915054906101000a900460ff1681565b600281815481106107ab57600080fd5b906000526020600020016000915054906101000a900473ffffffffffffffffffffffffffffffffffffffff1681565b600460009054906101000a900460ff1681565b60006107f7610a0b565b73ffffffffffffffffffffffffffffffffffffffff16610815610752565b73ffffffffffffffffffffffffffffffffffffffff161461086b576040517f08c379a000000000000000000000000000000000000000000000000000000000815260040161086290610d0b565b60405180910390fd5b60005b82518110156108b75761089a83828151811061088d5761088c610f23565b5b602002602001015161056e565b156108a457600191505b80806108af90610eab565b91505061086e565b50919050565b6000600160008373ffffffffffffffffffffffffffffffffffffffff1673ffffffffffffffffffffffffffffffffffffffff16815260200190815260200160002060009054906101000a900460ff169050919050565b61091b610a0b565b73ffffffffffffffffffffffffffffffffffffffff16610939610752565b73ffffffffffffffffffffffffffffffffffffffff161461098f576040517f08c379a000000000000000000000000000000000000000000000000000000000815260040161098690610d0b565b60405180910390fd5b600073ffffffffffffffffffffffffffffffffffffffff168173ffffffffffffffffffffffffffffffffffffffff1614156109ff576040517f08c379a00000000000000000000000000000000000000000000000000000000081526004016109f690610ceb565b60405180910390fd5b610a0881610a13565b50565b600033905090565b60008060009054906101000a900473ffffffffffffffffffffffffffffffffffffffff169050816000806101000a81548173ffffffffffffffffffffffffffffffffffffffff021916908373ffffffffffffffffffffffffffffffffffffffff1602179055508173ffffffffffffffffffffffffffffffffffffffff168173ffffffffffffffffffffffffffffffffffffffff167f8be0079c531659141344cd1fd0a4f28419497f9722a3daafe3b4186f6b6457e060405160405180910390a35050565b6000610aea610ae584610d6b565b610d46565b90508083825260208201905082856020860282011115610b0d57610b0c610f86565b5b60005b85811015610b3d5781610b238882610b47565b845260208401935060208301925050600181019050610b10565b5050509392505050565b600081359050610b568161101e565b92915050565b600082601f830112610b7157610b70610f81565b5b8135610b81848260208601610ad7565b91505092915050565b600081359050610b9981611035565b92915050565b600060208284031215610bb557610bb4610f90565b5b6000610bc384828501610b47565b91505092915050565b600060208284031215610be257610be1610f90565b5b600082013567ffffffffffffffff811115610c0057610bff610f8b565b5b610c0c84828501610b5c565b91505092915050565b600060208284031215610c2b57610c2a610f90565b5b6000610c3984828501610b8a565b91505092915050565b610c4b81610e32565b82525050565b610c5a81610e44565b82525050565b6000610c6d602683610d97565b9150610c7882610fa6565b604082019050919050565b6000610c90602083610d97565b9150610c9b82610ff5565b602082019050919050565b610caf81610e70565b82525050565b6000602082019050610cca6000830184610c42565b92915050565b6000602082019050610ce56000830184610c51565b92915050565b60006020820190508181036000830152610d0481610c60565b9050919050565b60006020820190508181036000830152610d2481610c83565b9050919050565b6000602082019050610d406000830184610ca6565b92915050565b6000610d50610d61565b9050610d5c8282610e7a565b919050565b6000604051905090565b600067ffffffffffffffff821115610d8657610d85610f52565b5b602082029050602081019050919050565b600082825260208201905092915050565b6000610db382610e70565b9150610dbe83610e70565b9250827fffffffffffffffffffffffffffffffffffffffffffffffffffffffffffffffff03821115610df357610df2610ef4565b5b828201905092915050565b6000610e0982610e70565b9150610e1483610e70565b925082821015610e2757610e26610ef4565b5b828203905092915050565b6000610e3d82610e50565b9050919050565b60008115159050919050565b600073ffffffffffffffffffffffffffffffffffffffff82169050919050565b6000819050919050565b610e8382610f95565b810181811067ffffffffffffffff82111715610ea257610ea1610f52565b5b80604052505050565b6000610eb682610e70565b91507fffffffffffffffffffffffffffffffffffffffffffffffffffffffffffffffff821415610ee957610ee8610ef4565b5b600182019050919050565b7f4e487b7100000000000000000000000000000000000000000000000000000000600052601160045260246000fd5b7f4e487b7100000000000000000000000000000000000000000000000000000000600052603260045260246000fd5b7f4e487b7100000000000000000000000000000000000000000000000000000000600052604160045260246000fd5b600080fd5b600080fd5b600080fd5b600080fd5b6000601f19601f8301169050919050565b7f4f776e61626c653a206e6577206f776e657220697320746865207a65726f206160008201527f6464726573730000000000000000000000000000000000000000000000000000602082015250565b7f4f776e61626c653a2063616c6c6572206973206e6f7420746865206f776e6572600082015250565b61102781610e32565b811461103257600080fd5b50565b61103e81610e70565b811461104957600080fd5b5056fea2646970667358221220635703a5913b9257d1fabb352d24d1c2e635548b5680032c0cad3aaac84a900264736f6c63430008070033a2646970667358221220ff042e7f008e591ade1e1bb17c1fd7f40eb904fe4d275895cefecc7bc4ba977d64736f6c63430008070033",
  "linkReferences": {
    "contracts/MOBALogicLibrary.sol": {
      "MOBALogicLibrary": [
        {
          "length": 20,
          "start": 2175
        },
        {
          "length": 20,
          "start": 6725
        },
        {
          "length": 20,
          "start": 9556
        }
      ]
    }
  },
  "deployedLinkReferences": {
    "contracts/MOBALogicLibrary.sol": {
      "MOBALogicLibrary": [
        {
          "length": 20,
          "start": 2136
        },
        {
          "length": 20,
          "start": 6686
        },
        {
          "length": 20,
          "start": 9517
        }
      ]
    }
  }
}