{
  "_format": "hh-sol-artifact-1",
  "contractName": "LeagueOfLegendsLogic",
  "sourceName": "contracts/LeagueOfLegendsLogic.sol",
  "abi": [
    {
      "anonymous": false,
      "inputs": [
        {
          "indexed": true,
          "internalType": "address",
          "name": "previousOwner",
          "type": "address"
        },
        {
          "indexed": true,
          "internalType": "address",
          "name": "newOwner",
          "type": "address"
        }
      ],
      "name": "OwnershipTransferred",
      "type": "event"
    },
    {
      "anonymous": false,
      "inputs": [
        {
          "indexed": false,
          "internalType": "address",
          "name": "sender",
          "type": "address"
        },
        {
          "indexed": false,
          "internalType": "uint256",
          "name": "amount",
          "type": "uint256"
        }
      ],
      "name": "Staked",
      "type": "event"
    },
    {
      "anonymous": false,
      "inputs": [
        {
          "indexed": false,
          "internalType": "address",
          "name": "addr",
          "type": "address"
        }
      ],
      "name": "WhitelistedAddressAdded",
      "type": "event"
    },
    {
      "anonymous": false,
      "inputs": [
        {
          "indexed": false,
          "internalType": "address",
          "name": "addr",
          "type": "address"
        }
      ],
      "name": "WhitelistedAddressRemoved",
      "type": "event"
    },
    {
      "anonymous": false,
      "inputs": [
        {
          "indexed": false,
          "internalType": "address",
          "name": "sender",
          "type": "address"
        },
        {
          "indexed": false,
          "internalType": "address",
          "name": "contractAddress",
          "type": "address"
        }
      ],
      "name": "testUSDCDeployed",
      "type": "event"
    },
    {
      "inputs": [
        {
          "internalType": "address",
          "name": "addr",
          "type": "address"
        }
      ],
      "name": "addAddressToWhitelist",
      "outputs": [
        {
          "internalType": "bool",
          "name": "success",
          "type": "bool"
        }
      ],
      "stateMutability": "nonpayable",
      "type": "function"
    },
    {
      "inputs": [
        {
          "internalType": "address[]",
          "name": "addrs",
          "type": "address[]"
        }
      ],
      "name": "addAddressesToWhitelist",
      "outputs": [
        {
          "internalType": "bool",
          "name": "success",
          "type": "bool"
        }
      ],
      "stateMutability": "nonpayable",
      "type": "function"
    },
    {
      "inputs": [
        {
          "internalType": "address",
          "name": "_userToAdd",
          "type": "address"
        }
      ],
      "name": "addUserToWhitelist",
      "outputs": [],
      "stateMutability": "nonpayable",
      "type": "function"
    },
    {
      "inputs": [],
      "name": "currentWeekNum",
      "outputs": [
        {
          "internalType": "uint256",
          "name": "",
          "type": "uint256"
        }
      ],
      "stateMutability": "view",
      "type": "function"
    },
    {
      "inputs": [
        {
          "internalType": "address",
          "name": "addr1",
          "type": "address"
        },
        {
          "internalType": "address",
          "name": "addr2",
          "type": "address"
        }
      ],
      "name": "evaluateMatch",
      "outputs": [
        {
          "internalType": "address",
          "name": "",
          "type": "address"
        }
      ],
      "stateMutability": "nonpayable",
      "type": "function"
    },
    {
      "inputs": [],
      "name": "evaluateWeek",
      "outputs": [],
      "stateMutability": "nonpayable",
      "type": "function"
    },
    {
      "inputs": [],
      "name": "getAdmin",
      "outputs": [
        {
          "internalType": "address",
          "name": "",
          "type": "address"
        }
      ],
      "stateMutability": "view",
      "type": "function"
    },
    {
      "inputs": [],
      "name": "getAthleteContractAddress",
      "outputs": [
        {
          "internalType": "address",
          "name": "",
          "type": "address"
        }
      ],
      "stateMutability": "view",
      "type": "function"
    },
    {
      "inputs": [],
      "name": "getCurrentWeekNum",
      "outputs": [
        {
          "internalType": "uint256",
          "name": "",
          "type": "uint256"
        }
      ],
      "stateMutability": "view",
      "type": "function"
    },
    {
      "inputs": [],
      "name": "getLeagueName",
      "outputs": [
        {
          "internalType": "string",
          "name": "",
          "type": "string"
        }
      ],
      "stateMutability": "view",
      "type": "function"
    },
    {
      "inputs": [],
      "name": "getLineup",
      "outputs": [
        {
          "internalType": "uint256[]",
          "name": "",
          "type": "uint256[]"
        }
      ],
      "stateMutability": "view",
      "type": "function"
    },
    {
      "inputs": [],
      "name": "getStakeAmount",
      "outputs": [
        {
          "internalType": "uint256",
          "name": "",
          "type": "uint256"
        }
      ],
      "stateMutability": "view",
      "type": "function"
    },
    {
      "inputs": [],
      "name": "getTestUSDCAddress",
      "outputs": [
        {
          "internalType": "address",
          "name": "",
          "type": "address"
        }
      ],
      "stateMutability": "view",
      "type": "function"
    },
    {
      "inputs": [],
      "name": "getTotalPrizePot",
      "outputs": [
        {
          "internalType": "uint256",
          "name": "",
          "type": "uint256"
        }
      ],
      "stateMutability": "view",
      "type": "function"
    },
    {
      "inputs": [],
      "name": "getUSDCBalance",
      "outputs": [
        {
          "internalType": "uint256",
          "name": "",
          "type": "uint256"
        }
      ],
      "stateMutability": "view",
      "type": "function"
    },
    {
      "inputs": [],
      "name": "getUserRecord",
      "outputs": [
        {
          "internalType": "uint256[8]",
          "name": "",
          "type": "uint256[8]"
        }
      ],
      "stateMutability": "view",
      "type": "function"
    },
    {
      "inputs": [],
      "name": "getUserTotalPts",
      "outputs": [
        {
          "internalType": "uint256",
          "name": "",
          "type": "uint256"
        }
      ],
      "stateMutability": "view",
      "type": "function"
    },
    {
      "inputs": [],
      "name": "getUserUSDCBalance",
      "outputs": [
        {
          "internalType": "uint256",
          "name": "",
          "type": "uint256"
        }
      ],
      "stateMutability": "view",
      "type": "function"
    },
    {
      "inputs": [],
      "name": "getUsersLength",
      "outputs": [
        {
          "internalType": "uint256",
          "name": "",
          "type": "uint256"
        }
      ],
      "stateMutability": "view",
      "type": "function"
    },
    {
      "inputs": [],
      "name": "getVersion",
      "outputs": [
        {
          "internalType": "uint256",
          "name": "version",
          "type": "uint256"
        }
      ],
      "stateMutability": "pure",
      "type": "function"
    },
    {
      "inputs": [
        {
          "internalType": "string",
          "name": "_name",
          "type": "string"
        },
        {
          "internalType": "uint256",
          "name": "_numWeeks",
          "type": "uint256"
        },
        {
          "internalType": "uint256",
          "name": "_stakeAmount",
          "type": "uint256"
        },
        {
          "internalType": "bool",
          "name": "_isPublic",
          "type": "bool"
        },
        {
          "internalType": "address",
          "name": "athletesDataStorageAddress",
          "type": "address"
        },
        {
          "internalType": "address",
          "name": "_admin",
          "type": "address"
        },
        {
          "internalType": "address",
          "name": "_polygonUSDCAddress",
          "type": "address"
        },
        {
          "internalType": "address",
          "name": "_rinkebyUSDCAddress",
          "type": "address"
        },
        {
          "internalType": "address",
          "name": "_testUSDCAddress",
          "type": "address"
        },
        {
          "internalType": "address",
          "name": "leagueMakerContractAddress",
          "type": "address"
        }
      ],
      "name": "initialize",
      "outputs": [],
      "stateMutability": "nonpayable",
      "type": "function"
    },
    {
      "inputs": [],
      "name": "isPublic",
      "outputs": [
        {
          "internalType": "bool",
          "name": "",
          "type": "bool"
        }
      ],
      "stateMutability": "view",
      "type": "function"
    },
    {
      "inputs": [],
      "name": "joinLeague",
      "outputs": [],
      "stateMutability": "nonpayable",
      "type": "function"
    },
    {
      "inputs": [
        {
          "internalType": "uint256",
          "name": "",
          "type": "uint256"
        }
      ],
      "name": "leagueMembers",
      "outputs": [
        {
          "internalType": "address",
          "name": "",
          "type": "address"
        }
      ],
      "stateMutability": "view",
      "type": "function"
    },
    {
      "inputs": [],
      "name": "leagueName",
      "outputs": [
        {
          "internalType": "string",
          "name": "",
          "type": "string"
        }
      ],
      "stateMutability": "view",
      "type": "function"
    },
    {
      "inputs": [],
      "name": "lockLineup",
      "outputs": [],
      "stateMutability": "nonpayable",
      "type": "function"
    },
    {
      "inputs": [],
      "name": "numWeeks",
      "outputs": [
        {
          "internalType": "uint256",
          "name": "",
          "type": "uint256"
        }
      ],
      "stateMutability": "view",
      "type": "function"
    },
    {
      "inputs": [],
      "name": "onLeagueEnd",
      "outputs": [],
      "stateMutability": "nonpayable",
      "type": "function"
    },
    {
      "inputs": [],
      "name": "owner",
      "outputs": [
        {
          "internalType": "address",
          "name": "",
          "type": "address"
        }
      ],
      "stateMutability": "view",
      "type": "function"
    },
    {
      "inputs": [],
      "name": "polygonUSDCAddress",
      "outputs": [
        {
          "internalType": "address",
          "name": "",
          "type": "address"
        }
      ],
      "stateMutability": "view",
      "type": "function"
    },
    {
      "inputs": [
        {
          "internalType": "address",
          "name": "addr",
          "type": "address"
        }
      ],
      "name": "removeAddressFromWhitelist",
      "outputs": [
        {
          "internalType": "bool",
          "name": "success",
          "type": "bool"
        }
      ],
      "stateMutability": "nonpayable",
      "type": "function"
    },
    {
      "inputs": [
        {
          "internalType": "address[]",
          "name": "addrs",
          "type": "address[]"
        }
      ],
      "name": "removeAddressesFromWhitelist",
      "outputs": [
        {
          "internalType": "bool",
          "name": "success",
          "type": "bool"
        }
      ],
      "stateMutability": "nonpayable",
      "type": "function"
    },
    {
      "inputs": [
        {
          "internalType": "address",
          "name": "_userToRemove",
          "type": "address"
        }
      ],
      "name": "removeFromLeague",
      "outputs": [],
      "stateMutability": "nonpayable",
      "type": "function"
    },
    {
      "inputs": [],
      "name": "renounceOwnership",
      "outputs": [],
      "stateMutability": "nonpayable",
      "type": "function"
    },
    {
      "inputs": [],
      "name": "rinkebyUSDCAddress",
      "outputs": [
        {
          "internalType": "address",
          "name": "",
          "type": "address"
        }
      ],
      "stateMutability": "view",
      "type": "function"
    },
    {
      "inputs": [],
      "name": "setLeagueEntryIsClosed",
      "outputs": [],
      "stateMutability": "nonpayable",
      "type": "function"
    },
    {
      "inputs": [],
      "name": "setLeagueSchedule",
      "outputs": [],
      "stateMutability": "nonpayable",
      "type": "function"
    },
    {
      "inputs": [
        {
          "internalType": "uint256[]",
          "name": "athleteIds",
          "type": "uint256[]"
        }
      ],
      "name": "setLineup",
      "outputs": [],
      "stateMutability": "nonpayable",
      "type": "function"
    },
    {
      "inputs": [],
      "name": "stakeAmount",
      "outputs": [
        {
          "internalType": "uint256",
          "name": "",
          "type": "uint256"
        }
      ],
      "stateMutability": "view",
      "type": "function"
    },
    {
      "inputs": [
        {
          "internalType": "address",
          "name": "newOwner",
          "type": "address"
        }
      ],
      "name": "transferOwnership",
      "outputs": [],
      "stateMutability": "nonpayable",
      "type": "function"
    },
    {
      "inputs": [],
      "name": "unlockLineup",
      "outputs": [],
      "stateMutability": "nonpayable",
      "type": "function"
    },
    {
      "inputs": [
        {
          "internalType": "address",
          "name": "",
          "type": "address"
        },
        {
          "internalType": "uint256",
          "name": "",
          "type": "uint256"
        }
      ],
      "name": "userToRecord",
      "outputs": [
        {
          "internalType": "uint256",
          "name": "",
          "type": "uint256"
        }
      ],
      "stateMutability": "view",
      "type": "function"
    },
    {
      "inputs": [
        {
          "internalType": "address",
          "name": "",
          "type": "address"
        }
      ],
      "name": "whitelist",
      "outputs": [
        {
          "internalType": "bool",
          "name": "",
          "type": "bool"
        }
      ],
      "stateMutability": "view",
      "type": "function"
    }
  ],
  "bytecode": "0x60806040523480156200001157600080fd5b5062000032620000266200004060201b60201c565b6200004860201b60201c565b60016004819055506200010d565b600033905090565b60008060029054906101000a900473ffffffffffffffffffffffffffffffffffffffff16905081600060026101000a81548173ffffffffffffffffffffffffffffffffffffffff021916908373ffffffffffffffffffffffffffffffffffffffff1602179055508173ffffffffffffffffffffffffffffffffffffffff168173ffffffffffffffffffffffffffffffffffffffff167f8be0079c531659141344cd1fd0a4f28419497f9722a3daafe3b4186f6b6457e060405160405180910390a35050565b615144806200011d6000396000f3fe60806040523480156200001157600080fd5b5060043610620002a35760003560e01c8063747b80501162000171578063a2bc091a11620000d5578063dc9a15351162000093578063dc9a1535146200077e578063e2ec6ec314620007a0578063e4c9066b14620007d6578063f2fde38b14620007e2578063f612121a1462000802578063f8816045146200082257620002a3565b8063a2bc091a1462000716578063ada3a28d1462000722578063c8be3b5b1462000744578063c99fea941462000750578063cdbba4c6146200075c57620002a3565b8063853976dd116200012f578063853976dd14620006225780638caec7a814620006585780638da5cb5b146200067a57806393f3706c146200069c57806399a6003414620006be5780639b19251a14620006e057620002a3565b8063747b8050146200057c5780637b9417c8146200059c5780637eed33f114620005d2578063841abf6e14620005f457806385334ffa146200061657620002a3565b8063403570c511620002195780635fcc698711620001d75780635fcc698714620004c657806360c7dc4714620004e85780636bdc44df146200050a5780636e9960c3146200052c578063715018a6146200054e578063722580b6146200055a57620002a3565b8063403570c5146200041e57806352e6e5f31462000440578063595b1a3e14620004625780635d514d6914620004845780635ec0b4f714620004a457620002a3565b80631d803e0011620002675780631d803e00146200034e57806324953eaa146200035a578063267175db1462000390578063286dd3f514620003c65780633cfd1ccc14620003fc57620002a3565b8062b2476f14620002a85780630655465a14620002ca57806306d60c2414620002d65780630c6f795914620002f65780630d8e6e2c146200032c575b600080fd5b620002b262000844565b604051620002c19190620036a1565b60405180910390f35b620002d46200086a565b005b620002f46004803603810190620002ee919062002f39565b620009b5565b005b6200031460048036038101906200030e919062002fe4565b62000b52565b60405162000323919062003a18565b60405180910390f35b6200033662000b7b565b60405162000345919062003a18565b60405180910390f35b6200035862000b80565b005b6200037860048036038101906200037291906200302b565b62000e77565b60405162000387919062003806565b60405180910390f35b620003ae6004803603810190620003a8919062003219565b62000f74565b604051620003bd9190620036a1565b60405180910390f35b620003e46004803603810190620003de919062002f39565b62000fb4565b604051620003f3919062003806565b60405180910390f35b6200040662001143565b60405162000415919062003a18565b60405180910390f35b6200042862001252565b604051620004379190620038e4565b60405180910390f35b6200044a620012ec565b60405162000459919062003a18565b60405180910390f35b6200046c620012f2565b6040516200047b919062003a18565b60405180910390f35b620004a260048036038101906200049c9190620030ff565b620012ff565b005b620004ae62001756565b604051620004bd919062003a18565b60405180910390f35b620004d062001760565b604051620004df919062003a18565b60405180910390f35b620004f26200186f565b60405162000501919062003a18565b60405180910390f35b6200051462001875565b60405162000523919062003a18565b60405180910390f35b62000536620018bc565b604051620005459190620036a1565b60405180910390f35b62000558620018e6565b005b6200056462001977565b60405162000573919062003a18565b60405180910390f35b6200059a600480360381019062000594919062002f39565b62001981565b005b620005ba6004803603810190620005b4919062002f39565b62001acb565b604051620005c9919062003806565b60405180910390f35b620005dc62001c58565b604051620005eb919062003a18565b60405180910390f35b620005fe62001c5e565b6040516200060d9190620038e4565b60405180910390f35b6200062062001cf4565b005b6200064060048036038101906200063a919062002f9d565b62001e26565b6040516200064f9190620036a1565b60405180910390f35b6200066262002000565b604051620006719190620036a1565b60405180910390f35b620006846200202a565b604051620006939190620036a1565b60405180910390f35b620006a662002053565b604051620006b59190620036a1565b60405180910390f35b620006c862002079565b604051620006d7919062003a18565b60405180910390f35b620006fe6004803603810190620006f8919062002f39565b62002095565b6040516200070d919062003806565b60405180910390f35b62000720620020b5565b005b6200072c62002165565b6040516200073b9190620037e2565b60405180910390f35b6200074e620021fc565b005b6200075a620022ac565b005b620007666200257b565b604051620007759190620036a1565b60405180910390f35b62000788620025a5565b60405162000797919062003806565b60405180910390f35b620007be6004803603810190620007b891906200302b565b620025b8565b604051620007cd919062003806565b60405180910390f35b620007e0620026b5565b005b620008006004803603810190620007fa919062002f39565b62002765565b005b6200082060048036038101906200081a91906200307c565b62002869565b005b6200082c6200296c565b6040516200083b9190620037c4565b60405180910390f35b601260009054906101000a900473ffffffffffffffffffffffffffffffffffffffff1681565b600960009054906101000a900473ffffffffffffffffffffffffffffffffffffffff1673ffffffffffffffffffffffffffffffffffffffff163373ffffffffffffffffffffffffffffffffffffffff1614620008fd576040517f08c379a0000000000000000000000000000000000000000000000000000000008152600401620008f49062003990565b60405180910390fd5b6200093d6040518060400160405280601081526020017f73657474696e67207363686564756c6500000000000000000000000000000000815250620029f8565b73__$36fdb4e0c2cb91f3ceca5ea81b025328f3$__63d2c232b56010600f60065460056040518563ffffffff1660e01b815260040162000981949392919062003823565b60006040518083038186803b1580156200099a57600080fd5b505af4158015620009af573d6000803e3d6000fd5b50505050565b600960009054906101000a900473ffffffffffffffffffffffffffffffffffffffff1673ffffffffffffffffffffffffffffffffffffffff163373ffffffffffffffffffffffffffffffffffffffff161462000a48576040517f08c379a000000000000000000000000000000000000000000000000000000000815260040162000a3f9062003990565b60405180910390fd5b600a60149054906101000a900460ff161562000a9b576040517f08c379a000000000000000000000000000000000000000000000000000000000815260040162000a9290620039b2565b60405180910390fd5b601460009054906101000a900473ffffffffffffffffffffffffffffffffffffffff1673ffffffffffffffffffffffffffffffffffffffff1663286dd3f5826040518263ffffffff1660e01b815260040162000af89190620036a1565b602060405180830381600087803b15801562000b1357600080fd5b505af115801562000b28573d6000803e3d6000fd5b505050506040513d601f19601f8201168201806040525081019062000b4e9190620030cd565b5050565b600c602052816000526040600020816008811062000b6f57600080fd5b01600091509150505481565b600090565b600960009054906101000a900473ffffffffffffffffffffffffffffffffffffffff1673ffffffffffffffffffffffffffffffffffffffff163373ffffffffffffffffffffffffffffffffffffffff161462000c13576040517f08c379a000000000000000000000000000000000000000000000000000000000815260040162000c0a9062003990565b60405180910390fd5b6002600454141562000c5c576040517f08c379a000000000000000000000000000000000000000000000000000000000815260040162000c5390620039d4565b60405180910390fd5b60026004819055506000600f8054905060085462000c7b919062003bff565b90506000805b600f8054905081101562000db257600b60008373ffffffffffffffffffffffffffffffffffffffff1673ffffffffffffffffffffffffffffffffffffffff16815260200190815260200160002054600b6000600f848154811062000cea5762000ce962003e97565b5b9060005260206000200160009054906101000a900473ffffffffffffffffffffffffffffffffffffffff1673ffffffffffffffffffffffffffffffffffffffff1673ffffffffffffffffffffffffffffffffffffffff16815260200190815260200160002054111562000d9c57600f818154811062000d6e5762000d6d62003e97565b5b9060005260206000200160009054906101000a900473ffffffffffffffffffffffffffffffffffffffff1691505b808062000da99062003deb565b91505062000c81565b50601660009054906101000a900473ffffffffffffffffffffffffffffffffffffffff1673ffffffffffffffffffffffffffffffffffffffff166323b872dd3330856040518463ffffffff1660e01b815260040162000e1493929190620036be565b602060405180830381600087803b15801562000e2f57600080fd5b505af115801562000e44573d6000803e3d6000fd5b505050506040513d601f19601f8201168201806040525081019062000e6a9190620030cd565b5050506001600481905550565b600062000e8362002a95565b73ffffffffffffffffffffffffffffffffffffffff1662000ea36200202a565b73ffffffffffffffffffffffffffffffffffffffff161462000efc576040517f08c379a000000000000000000000000000000000000000000000000000000000815260040162000ef3906200396e565b60405180910390fd5b60005b825181101562000f6e5762000f3183828151811062000f235762000f2262003e97565b5b602002602001015162000fb4565b1562000f585760016002600082825462000f4c919062003c60565b92505081905550600191505b808062000f659062003deb565b91505062000eff565b50919050565b600f818154811062000f8557600080fd5b906000526020600020016000915054906101000a900473ffffffffffffffffffffffffffffffffffffffff1681565b600062000fc062002a95565b73ffffffffffffffffffffffffffffffffffffffff1662000fe06200202a565b73ffffffffffffffffffffffffffffffffffffffff161462001039576040517f08c379a000000000000000000000000000000000000000000000000000000000815260040162001030906200396e565b60405180910390fd5b600160008373ffffffffffffffffffffffffffffffffffffffff1673ffffffffffffffffffffffffffffffffffffffff16815260200190815260200160002060009054906101000a900460ff16156200113e576000600160008473ffffffffffffffffffffffffffffffffffffffff1673ffffffffffffffffffffffffffffffffffffffff16815260200190815260200160002060006101000a81548160ff0219169083151502179055507ff1abf01a1043b7c244d128e8595cf0c1d10743b022b03a02dffd8ca3bf729f5a82604051620011159190620036a1565b60405180910390a160016002600082825462001132919062003c60565b92505081905550600190505b919050565b6000600e60003373ffffffffffffffffffffffffffffffffffffffff1673ffffffffffffffffffffffffffffffffffffffff16815260200190815260200160002060009054906101000a900460ff166200119c57600080fd5b601660009054906101000a900473ffffffffffffffffffffffffffffffffffffffff1673ffffffffffffffffffffffffffffffffffffffff166370a08231306040518263ffffffff1660e01b8152600401620011f99190620036a1565b60206040518083038186803b1580156200121257600080fd5b505afa15801562001227573d6000803e3d6000fd5b505050506040513d601f19601f820116820180604052508101906200124d91906200324b565b905090565b606060058054620012639062003d61565b80601f0160208091040260200160405190810160405280929190818152602001828054620012919062003d61565b8015620012e25780601f10620012b657610100808354040283529160200191620012e2565b820191906000526020600020905b815481529060010190602001808311620012c457829003601f168201915b5050505050905090565b60075481565b6000600f80549050905090565b600060019054906101000a900460ff16620013295760008054906101000a900460ff161562001334565b6200133362002a9d565b5b62001376576040517f08c379a00000000000000000000000000000000000000000000000000000000081526004016200136d906200394c565b60405180910390fd5b60008060019054906101000a900460ff161590508015620013c7576001600060016101000a81548160ff02191690831515021790555060016000806101000a81548160ff0219169083151502179055505b8b8b60059190620013da92919062002bc1565b50896006819055506001600e60008873ffffffffffffffffffffffffffffffffffffffff1673ffffffffffffffffffffffffffffffffffffffff16815260200190815260200160002060006101000a81548160ff021916908315150217905550600f869080600181540180825580915050600190039060005260206000200160009091909190916101000a81548173ffffffffffffffffffffffffffffffffffffffff021916908373ffffffffffffffffffffffffffffffffffffffff16021790555085600960006101000a81548173ffffffffffffffffffffffffffffffffffffffff021916908373ffffffffffffffffffffffffffffffffffffffff1602179055508860088190555087600360006101000a81548160ff0219169083151502179055506000600a60156101000a81548160ff0219169083151502179055506000600a60146101000a81548160ff02191690831515021790555086601360006101000a81548173ffffffffffffffffffffffffffffffffffffffff021916908373ffffffffffffffffffffffffffffffffffffffff16021790555081601560006101000a81548173ffffffffffffffffffffffffffffffffffffffff021916908373ffffffffffffffffffffffffffffffffffffffff160217905550604051620015c59062002c52565b604051809103906000f080158015620015e2573d6000803e3d6000fd5b50601460006101000a81548173ffffffffffffffffffffffffffffffffffffffff021916908373ffffffffffffffffffffffffffffffffffffffff16021790555084601160006101000a81548173ffffffffffffffffffffffffffffffffffffffff021916908373ffffffffffffffffffffffffffffffffffffffff16021790555083601260006101000a81548173ffffffffffffffffffffffffffffffffffffffff021916908373ffffffffffffffffffffffffffffffffffffffff16021790555082601660006101000a81548173ffffffffffffffffffffffffffffffffffffffff021916908373ffffffffffffffffffffffffffffffffffffffff160217905550620017266040518060400160405280601281526020017f50726f787920696e697469616c697a6564210000000000000000000000000000815250620029f8565b8015620017485760008060016101000a81548160ff0219169083151502179055505b505050505050505050505050565b6000600754905090565b6000600e60003373ffffffffffffffffffffffffffffffffffffffff1673ffffffffffffffffffffffffffffffffffffffff16815260200190815260200160002060009054906101000a900460ff16620017b957600080fd5b601660009054906101000a900473ffffffffffffffffffffffffffffffffffffffff1673ffffffffffffffffffffffffffffffffffffffff166370a08231336040518263ffffffff1660e01b8152600401620018169190620036a1565b60206040518083038186803b1580156200182f57600080fd5b505afa15801562001844573d6000803e3d6000fd5b505050506040513d601f19601f820116820180604052508101906200186a91906200324b565b905090565b60085481565b6000600b60003373ffffffffffffffffffffffffffffffffffffffff1673ffffffffffffffffffffffffffffffffffffffff16815260200190815260200160002054905090565b6000600960009054906101000a900473ffffffffffffffffffffffffffffffffffffffff16905090565b620018f062002a95565b73ffffffffffffffffffffffffffffffffffffffff16620019106200202a565b73ffffffffffffffffffffffffffffffffffffffff161462001969576040517f08c379a000000000000000000000000000000000000000000000000000000000815260040162001960906200396e565b60405180910390fd5b62001975600062002ab0565b565b6000600854905090565b600960009054906101000a900473ffffffffffffffffffffffffffffffffffffffff1673ffffffffffffffffffffffffffffffffffffffff163373ffffffffffffffffffffffffffffffffffffffff161462001a14576040517f08c379a000000000000000000000000000000000000000000000000000000000815260040162001a0b9062003990565b60405180910390fd5b601460009054906101000a900473ffffffffffffffffffffffffffffffffffffffff1673ffffffffffffffffffffffffffffffffffffffff16637b9417c8826040518263ffffffff1660e01b815260040162001a719190620036a1565b602060405180830381600087803b15801562001a8c57600080fd5b505af115801562001aa1573d6000803e3d6000fd5b505050506040513d601f19601f8201168201806040525081019062001ac79190620030cd565b5050565b600062001ad762002a95565b73ffffffffffffffffffffffffffffffffffffffff1662001af76200202a565b73ffffffffffffffffffffffffffffffffffffffff161462001b50576040517f08c379a000000000000000000000000000000000000000000000000000000000815260040162001b47906200396e565b60405180910390fd5b600160008373ffffffffffffffffffffffffffffffffffffffff1673ffffffffffffffffffffffffffffffffffffffff16815260200190815260200160002060009054906101000a900460ff1662001c535760018060008473ffffffffffffffffffffffffffffffffffffffff1673ffffffffffffffffffffffffffffffffffffffff16815260200190815260200160002060006101000a81548160ff0219169083151502179055507fd1bba68c128cc3f427e5831b3c6f99f480b6efa6b9e80c757768f6124158cc3f8260405162001c2a9190620036a1565b60405180910390a160016002600082825462001c47919062003ba2565b92505081905550600190505b919050565b60065481565b6005805462001c6d9062003d61565b80601f016020809104026020016040519081016040528092919081815260200182805462001c9b9062003d61565b801562001cec5780601f1062001cc05761010080835404028352916020019162001cec565b820191906000526020600020905b81548152906001019060200180831162001cce57829003601f168201915b505050505081565b600960009054906101000a900473ffffffffffffffffffffffffffffffffffffffff1673ffffffffffffffffffffffffffffffffffffffff163373ffffffffffffffffffffffffffffffffffffffff161462001d87576040517f08c379a000000000000000000000000000000000000000000000000000000000815260040162001d7e9062003990565b60405180910390fd5b73__$36fdb4e0c2cb91f3ceca5ea81b025328f3$__63c406e2686010600754601360009054906101000a900473ffffffffffffffffffffffffffffffffffffffff16600c600b600d6040518763ffffffff1660e01b815260040162001df29695949392919062003877565b60006040518083038186803b15801562001e0b57600080fd5b505af415801562001e20573d6000803e3d6000fd5b50505050565b6000600960009054906101000a900473ffffffffffffffffffffffffffffffffffffffff1673ffffffffffffffffffffffffffffffffffffffff163373ffffffffffffffffffffffffffffffffffffffff161462001ebb576040517f08c379a000000000000000000000000000000000000000000000000000000000815260040162001eb29062003990565b60405180910390fd5b73__$36fdb4e0c2cb91f3ceca5ea81b025328f3$__63fb0841fb8484600754601360009054906101000a900473ffffffffffffffffffffffffffffffffffffffff16600d60008a73ffffffffffffffffffffffffffffffffffffffff1673ffffffffffffffffffffffffffffffffffffffff168152602001908152602001600020600d60008a73ffffffffffffffffffffffffffffffffffffffff1673ffffffffffffffffffffffffffffffffffffffff168152602001908152602001600020600c600b6040518963ffffffff1660e01b815260040162001fa4989796959493929190620036fb565b60206040518083038186803b15801562001fbd57600080fd5b505af415801562001fd2573d6000803e3d6000fd5b505050506040513d601f19601f8201168201806040525081019062001ff8919062002f6b565b905092915050565b6000601360009054906101000a900473ffffffffffffffffffffffffffffffffffffffff16905090565b60008060029054906101000a900473ffffffffffffffffffffffffffffffffffffffff16905090565b601160009054906101000a900473ffffffffffffffffffffffffffffffffffffffff1681565b6000600f8054905060085462002090919062003bff565b905090565b60016020528060005260406000206000915054906101000a900460ff1681565b600960009054906101000a900473ffffffffffffffffffffffffffffffffffffffff1673ffffffffffffffffffffffffffffffffffffffff163373ffffffffffffffffffffffffffffffffffffffff161462002148576040517f08c379a00000000000000000000000000000000000000000000000000000000081526004016200213f9062003990565b60405180910390fd5b6000600a60156101000a81548160ff021916908315150217905550565b6060600d60003373ffffffffffffffffffffffffffffffffffffffff1673ffffffffffffffffffffffffffffffffffffffff168152602001908152602001600020805480602002602001604051908101604052809291908181526020018280548015620021f257602002820191906000526020600020905b815481526020019060010190808311620021dd575b5050505050905090565b600960009054906101000a900473ffffffffffffffffffffffffffffffffffffffff1673ffffffffffffffffffffffffffffffffffffffff163373ffffffffffffffffffffffffffffffffffffffff16146200228f576040517f08c379a0000000000000000000000000000000000000000000000000000000008152600401620022869062003990565b60405180910390fd5b6001600a60156101000a81548160ff021916908315150217905550565b600160003373ffffffffffffffffffffffffffffffffffffffff1673ffffffffffffffffffffffffffffffffffffffff16815260200190815260200160002060009054906101000a900460ff1680620023115750600360009054906101000a900460ff165b6200231b57600080fd5b6002600454141562002364576040517f08c379a00000000000000000000000000000000000000000000000000000000081526004016200235b90620039d4565b60405180910390fd5b6002600481905550600a60149054906101000a900460ff1615620023bf576040517f08c379a0000000000000000000000000000000000000000000000000000000008152600401620023b690620039f6565b60405180910390fd5b6001600e60003373ffffffffffffffffffffffffffffffffffffffff1673ffffffffffffffffffffffffffffffffffffffff16815260200190815260200160002060006101000a81548160ff021916908315150217905550600f339080600181540180825580915050600190039060005260206000200160009091909190916101000a81548173ffffffffffffffffffffffffffffffffffffffff021916908373ffffffffffffffffffffffffffffffffffffffff160217905550601660009054906101000a900473ffffffffffffffffffffffffffffffffffffffff1673ffffffffffffffffffffffffffffffffffffffff166323b872dd33306008546040518463ffffffff1660e01b8152600401620024dd93929190620036be565b602060405180830381600087803b158015620024f857600080fd5b505af11580156200250d573d6000803e3d6000fd5b505050506040513d601f19601f82011682018060405250810190620025339190620030cd565b507f9e71bc8eea02a63969f509818f2dafb9254532904319f9dbda79b67bd34a5f3d336008546040516200256992919062003797565b60405180910390a16001600481905550565b6000601660009054906101000a900473ffffffffffffffffffffffffffffffffffffffff16905090565b600360009054906101000a900460ff1681565b6000620025c462002a95565b73ffffffffffffffffffffffffffffffffffffffff16620025e46200202a565b73ffffffffffffffffffffffffffffffffffffffff16146200263d576040517f08c379a000000000000000000000000000000000000000000000000000000000815260040162002634906200396e565b60405180910390fd5b60005b8251811015620026af576200267283828151811062002664576200266362003e97565b5b602002602001015162001acb565b1562002699576001600260008282546200268d919062003ba2565b92505081905550600191505b8080620026a69062003deb565b91505062002640565b50919050565b600960009054906101000a900473ffffffffffffffffffffffffffffffffffffffff1673ffffffffffffffffffffffffffffffffffffffff163373ffffffffffffffffffffffffffffffffffffffff161462002748576040517f08c379a00000000000000000000000000000000000000000000000000000000081526004016200273f9062003990565b60405180910390fd5b6001600a60146101000a81548160ff021916908315150217905550565b6200276f62002a95565b73ffffffffffffffffffffffffffffffffffffffff166200278f6200202a565b73ffffffffffffffffffffffffffffffffffffffff1614620027e8576040517f08c379a0000000000000000000000000000000000000000000000000000000008152600401620027df906200396e565b60405180910390fd5b600073ffffffffffffffffffffffffffffffffffffffff168173ffffffffffffffffffffffffffffffffffffffff1614156200285b576040517f08c379a0000000000000000000000000000000000000000000000000000000008152600401620028529062003908565b60405180910390fd5b620028668162002ab0565b50565b600a60159054906101000a900460ff1615620028bc576040517f08c379a0000000000000000000000000000000000000000000000000000000008152600401620028b3906200392a565b60405180910390fd5b600e60003373ffffffffffffffffffffffffffffffffffffffff1673ffffffffffffffffffffffffffffffffffffffff16815260200190815260200160002060009054906101000a900460ff166200291357600080fd5b80600d60003373ffffffffffffffffffffffffffffffffffffffff1673ffffffffffffffffffffffffffffffffffffffff16815260200190815260200160002090805190602001906200296892919062002c60565b5050565b6200297662002cb2565b600c60003373ffffffffffffffffffffffffffffffffffffffff1673ffffffffffffffffffffffffffffffffffffffff168152602001908152602001600020600880602002604051908101604052809291908260088015620029ee576020028201915b815481526020019060010190808311620029d9575b5050505050905090565b62002a928160405160240162002a0f9190620038e4565b6040516020818303038152906040527f41304fac000000000000000000000000000000000000000000000000000000007bffffffffffffffffffffffffffffffffffffffffffffffffffffffff19166020820180517bffffffffffffffffffffffffffffffffffffffffffffffffffffffff838183161783525050505062002b75565b50565b600033905090565b600062002aaa3062002b9e565b15905090565b60008060029054906101000a900473ffffffffffffffffffffffffffffffffffffffff16905081600060026101000a81548173ffffffffffffffffffffffffffffffffffffffff021916908373ffffffffffffffffffffffffffffffffffffffff1602179055508173ffffffffffffffffffffffffffffffffffffffff168173ffffffffffffffffffffffffffffffffffffffff167f8be0079c531659141344cd1fd0a4f28419497f9722a3daafe3b4186f6b6457e060405160405180910390a35050565b60008151905060006a636f6e736f6c652e6c6f679050602083016000808483855afa5050505050565b6000808273ffffffffffffffffffffffffffffffffffffffff163b119050919050565b82805462002bcf9062003d61565b90600052602060002090601f01602090048101928262002bf3576000855562002c3f565b82601f1062002c0e57803560ff191683800117855562002c3f565b8280016001018555821562002c3f579182015b8281111562002c3e57823582559160200191906001019062002c21565b5b50905062002c4e919062002cd5565b5090565b610f9f806200417083390190565b82805482825590600052602060002090810192821562002c9f579160200282015b8281111562002c9e57825182559160200191906001019062002c81565b5b50905062002cae919062002cd5565b5090565b604051806101000160405280600890602082028036833780820191505090505090565b5b8082111562002cf057600081600090555060010162002cd6565b5090565b600062002d0b62002d058462003a5e565b62003a35565b9050808382526020820190508285602086028201111562002d315762002d3062003f14565b5b60005b8581101562002d65578162002d4a888262002dea565b84526020840193506020830192505060018101905062002d34565b5050509392505050565b600062002d8662002d808462003a8d565b62003a35565b9050808382526020820190508285602086028201111562002dac5762002dab62003f14565b5b60005b8581101562002de0578162002dc5888262002f0b565b84526020840193506020830192505060018101905062002daf565b5050509392505050565b60008135905062002dfb8162004121565b92915050565b60008151905062002e128162004121565b92915050565b600082601f83011262002e305762002e2f62003f0f565b5b813562002e4284826020860162002cf4565b91505092915050565b600082601f83011262002e635762002e6262003f0f565b5b813562002e7584826020860162002d6f565b91505092915050565b60008135905062002e8f816200413b565b92915050565b60008151905062002ea6816200413b565b92915050565b60008083601f84011262002ec55762002ec462003f0f565b5b8235905067ffffffffffffffff81111562002ee55762002ee462003f0a565b5b60208301915083600182028301111562002f045762002f0362003f14565b5b9250929050565b60008135905062002f1c8162004155565b92915050565b60008151905062002f338162004155565b92915050565b60006020828403121562002f525762002f5162003f1e565b5b600062002f628482850162002dea565b91505092915050565b60006020828403121562002f845762002f8362003f1e565b5b600062002f948482850162002e01565b91505092915050565b6000806040838503121562002fb75762002fb662003f1e565b5b600062002fc78582860162002dea565b925050602062002fda8582860162002dea565b9150509250929050565b6000806040838503121562002ffe5762002ffd62003f1e565b5b60006200300e8582860162002dea565b9250506020620030218582860162002f0b565b9150509250929050565b60006020828403121562003044576200304362003f1e565b5b600082013567ffffffffffffffff81111562003065576200306462003f19565b5b620030738482850162002e18565b91505092915050565b60006020828403121562003095576200309462003f1e565b5b600082013567ffffffffffffffff811115620030b657620030b562003f19565b5b620030c48482850162002e4b565b91505092915050565b600060208284031215620030e657620030e562003f1e565b5b6000620030f68482850162002e95565b91505092915050565b60008060008060008060008060008060006101408c8e03121562003128576200312762003f1e565b5b60008c013567ffffffffffffffff81111562003149576200314862003f19565b5b620031578e828f0162002eac565b9b509b505060206200316c8e828f0162002f0b565b99505060406200317f8e828f0162002f0b565b9850506060620031928e828f0162002e7e565b9750506080620031a58e828f0162002dea565b96505060a0620031b88e828f0162002dea565b95505060c0620031cb8e828f0162002dea565b94505060e0620031de8e828f0162002dea565b935050610100620031f28e828f0162002dea565b925050610120620032068e828f0162002dea565b9150509295989b509295989b9093969950565b60006020828403121562003232576200323162003f1e565b5b6000620032428482850162002f0b565b91505092915050565b60006020828403121562003264576200326362003f1e565b5b6000620032748482850162002f22565b91505092915050565b60006200328b83836200365d565b60208301905092915050565b6000620032a5838362003690565b60208301905092915050565b620032bc8162003ca5565b82525050565b620032cd8162003ca5565b82525050565b8082525050565b620032e58162003b00565b620032f1818462003b53565b9250620032fe8262003abc565b8060005b83811015620033355781516200331987826200327d565b9650620033268362003b2c565b92505060018101905062003302565b505050505050565b60006200334a8262003b0b565b62003356818562003b5e565b9350620033638362003ac6565b8060005b838110156200339a5781516200337e88826200327d565b97506200338b8362003b39565b92505060018101905062003367565b5085935050505092915050565b6000620033b48262003b16565b620033c0818562003b6f565b9350620033cd8362003ad6565b8060005b838110156200340d57620033e58262003ef5565b620033f1888262003297565b9750620033fe8362003b46565b925050600181019050620033d1565b5085935050505092915050565b620034258162003cb9565b82525050565b620034368162003cef565b82525050565b8082525050565b8082525050565b8082525050565b8082525050565b6000620034658262003b21565b62003471818562003b80565b93506200348381856020860162003d2b565b6200348e8162003f23565b840191505092915050565b60008154620034a88162003d61565b620034b4818662003b91565b94506001821660008114620034d25760018114620034e5576200351c565b60ff19831686526020860193506200351c565b620034f08562003aeb565b60005b838110156200351457815481890152600182019150602081019050620034f3565b808801955050505b50505092915050565b60006200353460268362003b80565b9150620035418262003f41565b604082019050919050565b60006200355b601e8362003b80565b9150620035688262003f90565b602082019050919050565b600062003582602e8362003b80565b91506200358f8262003fb9565b604082019050919050565b6000620035a960208362003b80565b9150620035b68262004008565b602082019050919050565b6000620035d060178362003b80565b9150620035dd8262004031565b602082019050919050565b6000620035f760418362003b80565b915062003604826200405a565b606082019050919050565b60006200361e601f8362003b80565b91506200362b82620040cf565b602082019050919050565b60006200364560178362003b80565b91506200365282620040f8565b602082019050919050565b620036688162003ce5565b82525050565b620036798162003ce5565b82525050565b6200368a8162003ce5565b82525050565b6200369b8162003ce5565b82525050565b6000602082019050620036b86000830184620032b1565b92915050565b6000606082019050620036d56000830186620032b1565b620036e46020830185620032b1565b620036f360408301846200366e565b949350505050565b60006101008201905062003713600083018b620032c2565b62003722602083018a620032c2565b6200373160408301896200367f565b6200374060608301886200342b565b8181036080830152620037548187620033a7565b905081810360a08301526200376a8186620033a7565b90506200377b60c08301856200343c565b6200378a60e08301846200344a565b9998505050505050505050565b6000604082019050620037ae6000830185620032b1565b620037bd60208301846200366e565b9392505050565b600061010082019050620037dc6000830184620032da565b92915050565b60006020820190508181036000830152620037fe81846200333d565b905092915050565b60006020820190506200381d60008301846200341a565b92915050565b60006080820190506200383a600083018762003451565b620038496020830186620032d3565b6200385860408301856200367f565b81810360608301526200386c818462003499565b905095945050505050565b600060c0820190506200388e600083018962003451565b6200389d60208301886200367f565b620038ac60408301876200342b565b620038bb60608301866200343c565b620038ca60808301856200344a565b620038d960a083018462003443565b979650505050505050565b6000602082019050818103600083015262003900818462003458565b905092915050565b60006020820190508181036000830152620039238162003525565b9050919050565b6000602082019050818103600083015262003945816200354c565b9050919050565b60006020820190508181036000830152620039678162003573565b9050919050565b6000602082019050818103600083015262003989816200359a565b9050919050565b60006020820190508181036000830152620039ab81620035c1565b9050919050565b60006020820190508181036000830152620039cd81620035e8565b9050919050565b60006020820190508181036000830152620039ef816200360f565b9050919050565b6000602082019050818103600083015262003a118162003636565b9050919050565b600060208201905062003a2f60008301846200366e565b92915050565b600062003a4162003a54565b905062003a4f828262003db5565b919050565b6000604051905090565b600067ffffffffffffffff82111562003a7c5762003a7b62003ec6565b5b602082029050602081019050919050565b600067ffffffffffffffff82111562003aab5762003aaa62003ec6565b5b602082029050602081019050919050565b6000819050919050565b6000819050602082019050919050565b60008190508160005260206000209050919050565b60008190508160005260206000209050919050565b600060089050919050565b600081519050919050565b600081549050919050565b600081519050919050565b6000602082019050919050565b6000602082019050919050565b6000600182019050919050565b600081905092915050565b600082825260208201905092915050565b600082825260208201905092915050565b600082825260208201905092915050565b600082825260208201905092915050565b600062003baf8262003ce5565b915062003bbc8362003ce5565b9250827fffffffffffffffffffffffffffffffffffffffffffffffffffffffffffffffff0382111562003bf45762003bf362003e39565b5b828201905092915050565b600062003c0c8262003ce5565b915062003c198362003ce5565b9250817fffffffffffffffffffffffffffffffffffffffffffffffffffffffffffffffff048311821515161562003c555762003c5462003e39565b5b828202905092915050565b600062003c6d8262003ce5565b915062003c7a8362003ce5565b92508282101562003c905762003c8f62003e39565b5b828203905092915050565b6000819050919050565b600062003cb28262003cc5565b9050919050565b60008115159050919050565b600073ffffffffffffffffffffffffffffffffffffffff82169050919050565b6000819050919050565b600062003cfc8262003d03565b9050919050565b600062003d108262003d17565b9050919050565b600062003d248262003cc5565b9050919050565b60005b8381101562003d4b57808201518184015260208101905062003d2e565b8381111562003d5b576000848401525b50505050565b6000600282049050600182168062003d7a57607f821691505b6020821081141562003d915762003d9062003e68565b5b50919050565b600062003dae62003da88362003f34565b62003c9b565b9050919050565b62003dc08262003f23565b810181811067ffffffffffffffff8211171562003de25762003de162003ec6565b5b80604052505050565b600062003df88262003ce5565b91507fffffffffffffffffffffffffffffffffffffffffffffffffffffffffffffffff82141562003e2e5762003e2d62003e39565b5b600182019050919050565b7f4e487b7100000000000000000000000000000000000000000000000000000000600052601160045260246000fd5b7f4e487b7100000000000000000000000000000000000000000000000000000000600052602260045260246000fd5b7f4e487b7100000000000000000000000000000000000000000000000000000000600052603260045260246000fd5b7f4e487b7100000000000000000000000000000000000000000000000000000000600052604160045260246000fd5b600062003f03825462003d97565b9050919050565b600080fd5b600080fd5b600080fd5b600080fd5b600080fd5b6000601f19601f8301169050919050565b60008160001c9050919050565b7f4f776e61626c653a206e6577206f776e657220697320746865207a65726f206160008201527f6464726573730000000000000000000000000000000000000000000000000000602082015250565b7f6c696e657570206973206c6f636b656420666f7220746865207765656b210000600082015250565b7f496e697469616c697a61626c653a20636f6e747261637420697320616c72656160008201527f647920696e697469616c697a6564000000000000000000000000000000000000602082015250565b7f4f776e61626c653a2063616c6c6572206973206e6f7420746865206f776e6572600082015250565b7f43616c6c6572206973206e6f74207468652061646d696e000000000000000000600082015250565b7f4e6f626f64792063616e20656e7465722f6578697420746865206c656167756560008201527f20616e796d6f72652e2054686520736561736f6e20686173207374617274656460208201527f2100000000000000000000000000000000000000000000000000000000000000604082015250565b7f5265656e7472616e637947756172643a207265656e7472616e742063616c6c00600082015250565b7f4c656167756520456e74727920697320436c6f73656421000000000000000000600082015250565b6200412c8162003ca5565b81146200413857600080fd5b50565b620041468162003cb9565b81146200415257600080fd5b50565b620041608162003ce5565b81146200416c57600080fd5b5056fe608060405234801561001057600080fd5b5061002d61002261003260201b60201c565b61003a60201b60201c565b6100fe565b600033905090565b60008060009054906101000a900473ffffffffffffffffffffffffffffffffffffffff169050816000806101000a81548173ffffffffffffffffffffffffffffffffffffffff021916908373ffffffffffffffffffffffffffffffffffffffff1602179055508173ffffffffffffffffffffffffffffffffffffffff168173ffffffffffffffffffffffffffffffffffffffff167f8be0079c531659141344cd1fd0a4f28419497f9722a3daafe3b4186f6b6457e060405160405180910390a35050565b610e928061010d6000396000f3fe608060405234801561001057600080fd5b50600436106100935760003560e01c80638da5cb5b116100665780638da5cb5b146101325780639b19251a14610150578063dc9a153514610180578063e2ec6ec31461019e578063f2fde38b146101ce57610093565b806324953eaa14610098578063286dd3f5146100c8578063715018a6146100f85780637b9417c814610102575b600080fd5b6100b260048036038101906100ad9190610a4a565b6101ea565b6040516100bf9190610b12565b60405180910390f35b6100e260048036038101906100dd9190610a1d565b6102d4565b6040516100ef9190610b12565b60405180910390f35b610100610457565b005b61011c60048036038101906101179190610a1d565b6104df565b6040516101299190610b12565b60405180910390f35b61013a610660565b6040516101479190610af7565b60405180910390f35b61016a60048036038101906101659190610a1d565b610689565b6040516101779190610b12565b60405180910390f35b6101886106a9565b6040516101959190610b12565b60405180910390f35b6101b860048036038101906101b39190610a4a565b6106bc565b6040516101c59190610b12565b60405180910390f35b6101e860048036038101906101e39190610a1d565b6107a6565b005b60006101f461089e565b73ffffffffffffffffffffffffffffffffffffffff16610212610660565b73ffffffffffffffffffffffffffffffffffffffff1614610268576040517f08c379a000000000000000000000000000000000000000000000000000000000815260040161025f90610b4d565b60405180910390fd5b60005b82518110156102ce5761029783828151811061028a57610289610d4a565b5b60200260200101516102d4565b156102bb576001600260008282546102af9190610c25565b92505081905550600191505b80806102c690610cd2565b91505061026b565b50919050565b60006102de61089e565b73ffffffffffffffffffffffffffffffffffffffff166102fc610660565b73ffffffffffffffffffffffffffffffffffffffff1614610352576040517f08c379a000000000000000000000000000000000000000000000000000000000815260040161034990610b4d565b60405180910390fd5b600160008373ffffffffffffffffffffffffffffffffffffffff1673ffffffffffffffffffffffffffffffffffffffff16815260200190815260200160002060009054906101000a900460ff1615610452576000600160008473ffffffffffffffffffffffffffffffffffffffff1673ffffffffffffffffffffffffffffffffffffffff16815260200190815260200160002060006101000a81548160ff0219169083151502179055507ff1abf01a1043b7c244d128e8595cf0c1d10743b022b03a02dffd8ca3bf729f5a8260405161042b9190610af7565b60405180910390a16001600260008282546104469190610c25565b92505081905550600190505b919050565b61045f61089e565b73ffffffffffffffffffffffffffffffffffffffff1661047d610660565b73ffffffffffffffffffffffffffffffffffffffff16146104d3576040517f08c379a00000000000000000000000000000000000000000000000000000000081526004016104ca90610b4d565b60405180910390fd5b6104dd60006108a6565b565b60006104e961089e565b73ffffffffffffffffffffffffffffffffffffffff16610507610660565b73ffffffffffffffffffffffffffffffffffffffff161461055d576040517f08c379a000000000000000000000000000000000000000000000000000000000815260040161055490610b4d565b60405180910390fd5b600160008373ffffffffffffffffffffffffffffffffffffffff1673ffffffffffffffffffffffffffffffffffffffff16815260200190815260200160002060009054906101000a900460ff1661065b5760018060008473ffffffffffffffffffffffffffffffffffffffff1673ffffffffffffffffffffffffffffffffffffffff16815260200190815260200160002060006101000a81548160ff0219169083151502179055507fd1bba68c128cc3f427e5831b3c6f99f480b6efa6b9e80c757768f6124158cc3f826040516106349190610af7565b60405180910390a160016002600082825461064f9190610bcf565b92505081905550600190505b919050565b60008060009054906101000a900473ffffffffffffffffffffffffffffffffffffffff16905090565b60016020528060005260406000206000915054906101000a900460ff1681565b600360009054906101000a900460ff1681565b60006106c661089e565b73ffffffffffffffffffffffffffffffffffffffff166106e4610660565b73ffffffffffffffffffffffffffffffffffffffff161461073a576040517f08c379a000000000000000000000000000000000000000000000000000000000815260040161073190610b4d565b60405180910390fd5b60005b82518110156107a05761076983828151811061075c5761075b610d4a565b5b60200260200101516104df565b1561078d576001600260008282546107819190610bcf565b92505081905550600191505b808061079890610cd2565b91505061073d565b50919050565b6107ae61089e565b73ffffffffffffffffffffffffffffffffffffffff166107cc610660565b73ffffffffffffffffffffffffffffffffffffffff1614610822576040517f08c379a000000000000000000000000000000000000000000000000000000000815260040161081990610b4d565b60405180910390fd5b600073ffffffffffffffffffffffffffffffffffffffff168173ffffffffffffffffffffffffffffffffffffffff161415610892576040517f08c379a000000000000000000000000000000000000000000000000000000000815260040161088990610b2d565b60405180910390fd5b61089b816108a6565b50565b600033905090565b60008060009054906101000a900473ffffffffffffffffffffffffffffffffffffffff169050816000806101000a81548173ffffffffffffffffffffffffffffffffffffffff021916908373ffffffffffffffffffffffffffffffffffffffff1602179055508173ffffffffffffffffffffffffffffffffffffffff168173ffffffffffffffffffffffffffffffffffffffff167f8be0079c531659141344cd1fd0a4f28419497f9722a3daafe3b4186f6b6457e060405160405180910390a35050565b600061097d61097884610b92565b610b6d565b905080838252602082019050828560208602820111156109a05761099f610dad565b5b60005b858110156109d057816109b688826109da565b8452602084019350602083019250506001810190506109a3565b5050509392505050565b6000813590506109e981610e45565b92915050565b600082601f830112610a0457610a03610da8565b5b8135610a1484826020860161096a565b91505092915050565b600060208284031215610a3357610a32610db7565b5b6000610a41848285016109da565b91505092915050565b600060208284031215610a6057610a5f610db7565b5b600082013567ffffffffffffffff811115610a7e57610a7d610db2565b5b610a8a848285016109ef565b91505092915050565b610a9c81610c59565b82525050565b610aab81610c6b565b82525050565b6000610abe602683610bbe565b9150610ac982610dcd565b604082019050919050565b6000610ae1602083610bbe565b9150610aec82610e1c565b602082019050919050565b6000602082019050610b0c6000830184610a93565b92915050565b6000602082019050610b276000830184610aa2565b92915050565b60006020820190508181036000830152610b4681610ab1565b9050919050565b60006020820190508181036000830152610b6681610ad4565b9050919050565b6000610b77610b88565b9050610b838282610ca1565b919050565b6000604051905090565b600067ffffffffffffffff821115610bad57610bac610d79565b5b602082029050602081019050919050565b600082825260208201905092915050565b6000610bda82610c97565b9150610be583610c97565b9250827fffffffffffffffffffffffffffffffffffffffffffffffffffffffffffffffff03821115610c1a57610c19610d1b565b5b828201905092915050565b6000610c3082610c97565b9150610c3b83610c97565b925082821015610c4e57610c4d610d1b565b5b828203905092915050565b6000610c6482610c77565b9050919050565b60008115159050919050565b600073ffffffffffffffffffffffffffffffffffffffff82169050919050565b6000819050919050565b610caa82610dbc565b810181811067ffffffffffffffff82111715610cc957610cc8610d79565b5b80604052505050565b6000610cdd82610c97565b91507fffffffffffffffffffffffffffffffffffffffffffffffffffffffffffffffff821415610d1057610d0f610d1b565b5b600182019050919050565b7f4e487b7100000000000000000000000000000000000000000000000000000000600052601160045260246000fd5b7f4e487b7100000000000000000000000000000000000000000000000000000000600052603260045260246000fd5b7f4e487b7100000000000000000000000000000000000000000000000000000000600052604160045260246000fd5b600080fd5b600080fd5b600080fd5b600080fd5b6000601f19601f8301169050919050565b7f4f776e61626c653a206e6577206f776e657220697320746865207a65726f206160008201527f6464726573730000000000000000000000000000000000000000000000000000602082015250565b7f4f776e61626c653a2063616c6c6572206973206e6f7420746865206f776e6572600082015250565b610e4e81610c59565b8114610e5957600080fd5b5056fea2646970667358221220a21085165a95bba102b3fe59880e17f3027964706b8a63561e6b8ccd43ba90fb64736f6c63430008070033a26469706673582212204843035734d864981a5c2248cc1471ca82f1939d9c261b6c75720a2e5fb59de764736f6c63430008070033",
  "linkReferences": {
    "contracts/MOBALogicLibrary.sol": {
      "MOBALogicLibrary": [
        {
          "length": 20,
          "start": 2652
        },
        {
          "length": 20,
          "start": 7846
        },
        {
          "length": 20,
          "start": 8154
        }
      ]
    }
  },
  "deployedLinkReferences": {
    "contracts/MOBALogicLibrary.sol": {
      "MOBALogicLibrary": [
        {
          "length": 20,
          "start": 2367
        },
        {
          "length": 20,
          "start": 7561
        },
        {
          "length": 20,
          "start": 7869
        }
      ]
    }
  }
}