{
  "_format": "hh-sol-artifact-1",
  "contractName": "LeagueOfLegendsLogic",
  "sourceName": "contracts/LeagueOfLegendsLogic.sol",
  "abi": [
    {
      "anonymous": false,
      "inputs": [
        {
          "indexed": false,
          "internalType": "address",
          "name": "sender",
          "type": "address"
        },
        {
          "indexed": false,
          "internalType": "uint256",
          "name": "amount",
          "type": "uint256"
        },
        {
          "indexed": false,
          "internalType": "address",
          "name": "leagueAddress",
          "type": "address"
        }
      ],
      "name": "Staked",
      "type": "event"
    },
    {
      "anonymous": false,
      "inputs": [
        {
          "indexed": false,
          "internalType": "address[]",
          "name": "winner",
          "type": "address[]"
        },
        {
          "indexed": false,
          "internalType": "uint256",
          "name": "prizePotPerWinner",
          "type": "uint256"
        }
      ],
      "name": "leagueEnded",
      "type": "event"
    },
    {
      "anonymous": false,
      "inputs": [
        {
          "indexed": false,
          "internalType": "address",
          "name": "sender",
          "type": "address"
        },
        {
          "indexed": false,
          "internalType": "address",
          "name": "contractAddress",
          "type": "address"
        }
      ],
      "name": "testUSDCDeployed",
      "type": "event"
    },
    {
      "inputs": [
        {
          "internalType": "address",
          "name": "_userToAdd",
          "type": "address"
        }
      ],
      "name": "addUserToWhitelist",
      "outputs": [],
      "stateMutability": "nonpayable",
      "type": "function"
    },
    {
      "inputs": [],
      "name": "admin",
      "outputs": [
        {
          "internalType": "address",
          "name": "",
          "type": "address"
        }
      ],
      "stateMutability": "view",
      "type": "function"
    },
    {
      "inputs": [],
      "name": "currentWeekNum",
      "outputs": [
        {
          "internalType": "uint256",
          "name": "",
          "type": "uint256"
        }
      ],
      "stateMutability": "view",
      "type": "function"
    },
    {
      "inputs": [],
      "name": "evaluateMatches",
      "outputs": [],
      "stateMutability": "nonpayable",
      "type": "function"
    },
    {
      "inputs": [],
      "name": "getAdmin",
      "outputs": [
        {
          "internalType": "address",
          "name": "",
          "type": "address"
        }
      ],
      "stateMutability": "view",
      "type": "function"
    },
    {
      "inputs": [],
      "name": "getContractUSDCBalance",
      "outputs": [
        {
          "internalType": "uint256",
          "name": "",
          "type": "uint256"
        }
      ],
      "stateMutability": "view",
      "type": "function"
    },
    {
      "inputs": [
        {
          "internalType": "uint256",
          "name": "index",
          "type": "uint256"
        }
      ],
      "name": "getLeagueMember",
      "outputs": [
        {
          "internalType": "address",
          "name": "",
          "type": "address"
        }
      ],
      "stateMutability": "view",
      "type": "function"
    },
    {
      "inputs": [],
      "name": "getLeagueMembersLength",
      "outputs": [
        {
          "internalType": "uint256",
          "name": "",
          "type": "uint256"
        }
      ],
      "stateMutability": "view",
      "type": "function"
    },
    {
      "inputs": [],
      "name": "getLineupIsLocked",
      "outputs": [
        {
          "internalType": "bool",
          "name": "",
          "type": "bool"
        }
      ],
      "stateMutability": "view",
      "type": "function"
    },
    {
      "inputs": [
        {
          "internalType": "uint256",
          "name": "_week",
          "type": "uint256"
        }
      ],
      "name": "getScheduleForWeek",
      "outputs": [
        {
          "components": [
            {
              "internalType": "address[2]",
              "name": "players",
              "type": "address[2]"
            }
          ],
          "internalType": "struct LeagueOfLegendsLogic.Matchup[]",
          "name": "",
          "type": "tuple[]"
        }
      ],
      "stateMutability": "view",
      "type": "function"
    },
    {
      "inputs": [
        {
          "internalType": "address",
          "name": "_user",
          "type": "address"
        }
      ],
      "name": "getUserLineup",
      "outputs": [
        {
          "internalType": "uint256[5]",
          "name": "",
          "type": "uint256[5]"
        }
      ],
      "stateMutability": "view",
      "type": "function"
    },
    {
      "inputs": [
        {
          "internalType": "address",
          "name": "_user",
          "type": "address"
        }
      ],
      "name": "getUserPoints",
      "outputs": [
        {
          "internalType": "uint256",
          "name": "",
          "type": "uint256"
        }
      ],
      "stateMutability": "view",
      "type": "function"
    },
    {
      "inputs": [
        {
          "internalType": "address",
          "name": "_user",
          "type": "address"
        }
      ],
      "name": "getUserRecord",
      "outputs": [
        {
          "internalType": "uint256[8]",
          "name": "",
          "type": "uint256[8]"
        }
      ],
      "stateMutability": "view",
      "type": "function"
    },
    {
      "inputs": [
        {
          "internalType": "address",
          "name": "_user",
          "type": "address"
        }
      ],
      "name": "getUserWeekScore",
      "outputs": [
        {
          "internalType": "uint256[8]",
          "name": "",
          "type": "uint256[8]"
        }
      ],
      "stateMutability": "view",
      "type": "function"
    },
    {
      "inputs": [
        {
          "internalType": "address",
          "name": "",
          "type": "address"
        }
      ],
      "name": "inLeague",
      "outputs": [
        {
          "internalType": "bool",
          "name": "",
          "type": "bool"
        }
      ],
      "stateMutability": "view",
      "type": "function"
    },
    {
      "inputs": [
        {
          "internalType": "string",
          "name": "_name",
          "type": "string"
        },
        {
          "internalType": "uint256",
          "name": "_stakeAmount",
          "type": "uint256"
        },
        {
          "internalType": "bool",
          "name": "_isPublic",
          "type": "bool"
        },
        {
          "internalType": "address",
          "name": "athletesDataStorageAddress",
          "type": "address"
        },
        {
          "internalType": "address",
          "name": "_admin",
          "type": "address"
        },
        {
          "internalType": "address",
          "name": "_rinkebyUSDCAddress",
          "type": "address"
        },
        {
          "internalType": "address",
          "name": "_testUSDCAddress",
          "type": "address"
        },
        {
          "internalType": "address",
          "name": "_gameItemsContractAddress",
          "type": "address"
        },
        {
          "internalType": "address",
          "name": "_teamDiffAddress",
          "type": "address"
        },
        {
          "internalType": "address",
          "name": "_leagueMakerContractAddress",
          "type": "address"
        }
      ],
      "name": "initialize",
      "outputs": [],
      "stateMutability": "nonpayable",
      "type": "function"
    },
    {
      "inputs": [],
      "name": "joinLeague",
      "outputs": [],
      "stateMutability": "nonpayable",
      "type": "function"
    },
    {
      "inputs": [],
      "name": "leagueEntryIsClosed",
      "outputs": [
        {
          "internalType": "bool",
          "name": "",
          "type": "bool"
        }
      ],
      "stateMutability": "view",
      "type": "function"
    },
    {
      "inputs": [
        {
          "internalType": "uint256",
          "name": "",
          "type": "uint256"
        }
      ],
      "name": "leagueMembers",
      "outputs": [
        {
          "internalType": "address",
          "name": "",
          "type": "address"
        }
      ],
      "stateMutability": "view",
      "type": "function"
    },
    {
      "inputs": [],
      "name": "leagueName",
      "outputs": [
        {
          "internalType": "string",
          "name": "",
          "type": "string"
        }
      ],
      "stateMutability": "view",
      "type": "function"
    },
    {
      "inputs": [],
      "name": "lineupIsLocked",
      "outputs": [
        {
          "internalType": "bool",
          "name": "",
          "type": "bool"
        }
      ],
      "stateMutability": "view",
      "type": "function"
    },
    {
      "inputs": [],
      "name": "lockLineup",
      "outputs": [],
      "stateMutability": "nonpayable",
      "type": "function"
    },
    {
      "inputs": [],
      "name": "numWeeks",
      "outputs": [
        {
          "internalType": "uint256",
          "name": "",
          "type": "uint256"
        }
      ],
      "stateMutability": "view",
      "type": "function"
    },
    {
      "inputs": [],
      "name": "onLeagueEnd",
      "outputs": [],
      "stateMutability": "nonpayable",
      "type": "function"
    },
    {
      "inputs": [
        {
          "internalType": "address",
          "name": "_userToRemove",
          "type": "address"
        }
      ],
      "name": "removeFromWhitelist",
      "outputs": [],
      "stateMutability": "nonpayable",
      "type": "function"
    },
    {
      "inputs": [],
      "name": "rinkebyUSDC",
      "outputs": [
        {
          "internalType": "contract IERC20",
          "name": "",
          "type": "address"
        }
      ],
      "stateMutability": "view",
      "type": "function"
    },
    {
      "inputs": [
        {
          "internalType": "uint256",
          "name": "athleteId",
          "type": "uint256"
        },
        {
          "internalType": "uint256",
          "name": "position",
          "type": "uint256"
        }
      ],
      "name": "setAthleteInLineup",
      "outputs": [],
      "stateMutability": "nonpayable",
      "type": "function"
    },
    {
      "inputs": [],
      "name": "setLeagueEntryIsClosed",
      "outputs": [],
      "stateMutability": "nonpayable",
      "type": "function"
    },
    {
      "inputs": [],
      "name": "setLeagueSchedule",
      "outputs": [],
      "stateMutability": "nonpayable",
      "type": "function"
    },
    {
      "inputs": [],
      "name": "stakeAmount",
      "outputs": [
        {
          "internalType": "uint256",
          "name": "",
          "type": "uint256"
        }
      ],
      "stateMutability": "view",
      "type": "function"
    },
    {
      "inputs": [],
      "name": "teamDiffAddress",
      "outputs": [
        {
          "internalType": "address",
          "name": "",
          "type": "address"
        }
      ],
      "stateMutability": "view",
      "type": "function"
    },
    {
      "inputs": [],
      "name": "testUSDC",
      "outputs": [
        {
          "internalType": "contract IERC20",
          "name": "",
          "type": "address"
        }
      ],
      "stateMutability": "view",
      "type": "function"
    },
    {
      "inputs": [],
      "name": "unlockLineup",
      "outputs": [],
      "stateMutability": "nonpayable",
      "type": "function"
    },
    {
      "inputs": [
        {
          "internalType": "address",
          "name": "",
          "type": "address"
        },
        {
          "internalType": "uint256",
          "name": "",
          "type": "uint256"
        }
      ],
      "name": "userToLineup",
      "outputs": [
        {
          "internalType": "uint256",
          "name": "",
          "type": "uint256"
        }
      ],
      "stateMutability": "view",
      "type": "function"
    },
    {
      "inputs": [
        {
          "internalType": "address",
          "name": "",
          "type": "address"
        }
      ],
      "name": "userToPoints",
      "outputs": [
        {
          "internalType": "uint256",
          "name": "",
          "type": "uint256"
        }
      ],
      "stateMutability": "view",
      "type": "function"
    },
    {
      "inputs": [
        {
          "internalType": "address",
          "name": "",
          "type": "address"
        },
        {
          "internalType": "uint256",
          "name": "",
          "type": "uint256"
        }
      ],
      "name": "userToRecord",
      "outputs": [
        {
          "internalType": "uint256",
          "name": "",
          "type": "uint256"
        }
      ],
      "stateMutability": "view",
      "type": "function"
    },
    {
      "inputs": [
        {
          "internalType": "address",
          "name": "",
          "type": "address"
        },
        {
          "internalType": "uint256",
          "name": "",
          "type": "uint256"
        }
      ],
      "name": "userToWeekScore",
      "outputs": [
        {
          "internalType": "uint256",
          "name": "",
          "type": "uint256"
        }
      ],
      "stateMutability": "view",
      "type": "function"
    },
    {
      "inputs": [],
      "name": "whitelistContract",
      "outputs": [
        {
          "internalType": "contract Whitelist",
          "name": "",
          "type": "address"
        }
      ],
      "stateMutability": "view",
      "type": "function"
    }
  ],
  "bytecode": "0x608060405234801561001057600080fd5b50600180819055506152a1806100276000396000f3fe60806040523480156200001157600080fd5b5060043610620002675760003560e01c80636e9960c3116200014d578063aeefe31f11620000c9578063cff560031162000087578063cff5600314620006f6578063db2a6724146200072c578063e4c9066b1462000762578063ee90080f146200076e578063f851a44014620007a45762000267565b8063aeefe31f1462000652578063b47f86281462000688578063bc69b42714620006a8578063c8be3b5b14620006de578063c99fea9414620006ea5762000267565b806384900b04116200011757806384900b0414620005ac5780638ab1d68114620005ce5780639122ce6d14620005ee578063a2bc091a1462000624578063a949a9d714620006305762000267565b80636e9960c31462000526578063747b805014620005485780637eed33f11462000568578063841abf6e146200058a5762000267565b80632ae6b13511620001e957806352e6e5f311620001a757806352e6e5f3146200046857806360c7dc47146200048a57806363c665f714620004ac57806367e2efc614620004ce5780636cc15ad514620005045762000267565b80632ae6b135146200039a5780632d382ee014620003d0578063305a578214620004065780633c3ae13f14620004125780634adaf31b14620004325762000267565b80630c6f795911620002375780630c6f795914620002de5780631d803e0014620003145780631dd7f8ca1462000320578063267175db146200034257806327311b3214620003785762000267565b80622772c2146200026c578063022e35e6146200028e5780630635dbcb14620002b05780630655465a14620002d2575b600080fd5b62000276620007c6565b60405162000285919062003846565b60405180910390f35b620002986200087e565b604051620002a79190620035da565b60405180910390f35b620002ba620008a4565b604051620002c99190620035bd565b60405180910390f35b620002dc620008b7565b005b620002fc6004803603810190620002f6919062002b50565b620009c2565b6040516200030b919062003846565b60405180910390f35b6200031e620009eb565b005b6200032a62000e93565b60405162000339919062003422565b60405180910390f35b6200036060048036038101906200035a919062002ce3565b62000eb9565b6040516200036f919062003422565b60405180910390f35b6200038262000ef9565b604051620003919190620035bd565b60405180910390f35b620003b86004803603810190620003b2919062002b1e565b62000f10565b604051620003c7919062003846565b60405180910390f35b620003ee6004803603810190620003e8919062002ce3565b62000f28565b604051620003fd91906200355e565b60405180910390f35b6200041062001019565b005b6200043060048036038101906200042a919062002bc9565b62001194565b005b6200045060048036038101906200044a919062002b1e565b62001565565b6040516200045f91906200359f565b60405180910390f35b62000472620015f3565b60405162000481919062003846565b60405180910390f35b62000494620015f9565b604051620004a3919062003846565b60405180910390f35b620004b6620015ff565b604051620004c5919062003846565b60405180910390f35b620004ec6004803603810190620004e6919062002b1e565b6200160c565b604051620004fb91906200359f565b60405180910390f35b6200050e6200169a565b6040516200051d9190620035bd565b60405180910390f35b62000530620016ad565b6040516200053f919062003422565b60405180910390f35b62000566600480360381019062000560919062002b1e565b620016d7565b005b6200057262001821565b60405162000581919062003846565b60405180910390f35b6200059462001827565b604051620005a3919062003668565b60405180910390f35b620005b6620018bd565b604051620005c59190620035f7565b60405180910390f35b620005ec6004803603810190620005e6919062002b1e565b620018e3565b005b6200060c600480360381019062000606919062002b1e565b62001a80565b6040516200061b9190620035bd565b60405180910390f35b6200062e62001aa0565b005b6200063a62001b50565b604051620006499190620035da565b60405180910390f35b6200067060048036038101906200066a919062002b1e565b62001b76565b6040516200067f919062003846565b60405180910390f35b620006a66004803603810190620006a0919062002d47565b62001bbf565b005b620006c66004803603810190620006c0919062002b1e565b62001e81565b604051620006d5919062003582565b60405180910390f35b620006e862001f0f565b005b620006f462001fbf565b005b6200071460048036038101906200070e919062002b50565b620026da565b60405162000723919062003846565b60405180910390f35b6200074a600480360381019062000744919062002b50565b62002703565b60405162000759919062003846565b60405180910390f35b6200076c6200272c565b005b6200078c600480360381019062000786919062002ce3565b620027dc565b6040516200079b919062003422565b60405180910390f35b620007ae62002827565b604051620007bd919062003422565b60405180910390f35b6000601460009054906101000a900473ffffffffffffffffffffffffffffffffffffffff1673ffffffffffffffffffffffffffffffffffffffff166370a08231306040518263ffffffff1660e01b815260040162000825919062003422565b60206040518083038186803b1580156200083e57600080fd5b505afa15801562000853573d6000803e3d6000fd5b505050506040513d601f19601f8201168201806040525081019062000879919062002d15565b905090565b601460009054906101000a900473ffffffffffffffffffffffffffffffffffffffff1681565b600760159054906101000a900460ff1681565b600760009054906101000a900473ffffffffffffffffffffffffffffffffffffffff1673ffffffffffffffffffffffffffffffffffffffff163373ffffffffffffffffffffffffffffffffffffffff16146200094a576040517f08c379a000000000000000000000000000000000000000000000000000000000815260040162000941906200377a565b60405180910390fd5b73__$36fdb4e0c2cb91f3ceca5ea81b025328f3$__63d2c232b56010600e60035460026040518563ffffffff1660e01b81526004016200098e949392919062003614565b60006040518083038186803b158015620009a757600080fd5b505af4158015620009bc573d6000803e3d6000fd5b50505050565b60096020528160005260406000208160088110620009df57600080fd5b01600091509150505481565b600760009054906101000a900473ffffffffffffffffffffffffffffffffffffffff1673ffffffffffffffffffffffffffffffffffffffff163373ffffffffffffffffffffffffffffffffffffffff161462000a7e576040517f08c379a000000000000000000000000000000000000000000000000000000000815260040162000a75906200377a565b60405180910390fd5b62000abe6040518060400160405280601081526020017f494e204f4e204c454147554520454e44000000000000000000000000000000008152506200284d565b6000601460009054906101000a900473ffffffffffffffffffffffffffffffffffffffff1673ffffffffffffffffffffffffffffffffffffffff166370a08231306040518263ffffffff1660e01b815260040162000b1d919062003422565b60206040518083038186803b15801562000b3657600080fd5b505afa15801562000b4b573d6000803e3d6000fd5b505050506040513d601f19601f8201168201806040525081019062000b71919062002d15565b905062000bb36040518060400160405280601a81526020017f43414c43554c4154494e47204c45414755452057494e4e4552530000000000008152506200284d565b73__$36fdb4e0c2cb91f3ceca5ea81b025328f3$__63cc9b40cc600e600c600f6040518463ffffffff1660e01b815260040162000bf393929190620034e6565b60006040518083038186803b15801562000c0c57600080fd5b505af415801562000c21573d6000803e3d6000fd5b505050506000600f805490508262000c3a919062003a8e565b90507f648f2405ea194f3e49fe1655279883b3474e63909ab7e4a579b051d548ad8389600f8260405162000c709291906200352a565b60405180910390a160005b600f8054905081101562000e8e5762000cc96040518060400160405280601b81526020017f417070726f76696e67207370656e6420696e204c4f4c4c4f47494300000000008152506200284d565b601460009054906101000a900473ffffffffffffffffffffffffffffffffffffffff1673ffffffffffffffffffffffffffffffffffffffff1663095ea7b330846040518363ffffffff1660e01b815260040162000d289291906200347c565b602060405180830381600087803b15801562000d4357600080fd5b505af115801562000d58573d6000803e3d6000fd5b505050506040513d601f19601f8201168201806040525081019062000d7e919062002b97565b50601460009054906101000a900473ffffffffffffffffffffffffffffffffffffffff1673ffffffffffffffffffffffffffffffffffffffff166323b872dd30600f848154811062000dd55762000dd462003d95565b5b9060005260206000200160009054906101000a900473ffffffffffffffffffffffffffffffffffffffff16856040518463ffffffff1660e01b815260040162000e21939291906200343f565b602060405180830381600087803b15801562000e3c57600080fd5b505af115801562000e51573d6000803e3d6000fd5b505050506040513d601f19601f8201168201806040525081019062000e77919062002b97565b50808062000e859062003cba565b91505062000c7b565b505050565b600760009054906101000a900473ffffffffffffffffffffffffffffffffffffffff1681565b600e818154811062000eca57600080fd5b906000526020600020016000915054906101000a900473ffffffffffffffffffffffffffffffffffffffff1681565b6000600760159054906101000a900460ff16905090565b600c6020528060005260406000206000915090505481565b606060106000838152602001908152602001600020805480602002602001604051908101604052809291908181526020016000905b828210156200100e57838290600052602060002090600202016040518060200160405290816000820160028060200260405190810160405280929190826002801562000ff5576020028201915b8160009054906101000a900473ffffffffffffffffffffffffffffffffffffffff1673ffffffffffffffffffffffffffffffffffffffff168152602001906001019080831162000faa575b5050505050815250508152602001906001019062000f5d565b505050509050919050565b600760009054906101000a900473ffffffffffffffffffffffffffffffffffffffff1673ffffffffffffffffffffffffffffffffffffffff163373ffffffffffffffffffffffffffffffffffffffff1614620010ac576040517f08c379a0000000000000000000000000000000000000000000000000000000008152600401620010a3906200377a565b60405180910390fd5b73__$36fdb4e0c2cb91f3ceca5ea81b025328f3$__6303626e84600554601160009054906101000a900473ffffffffffffffffffffffffffffffffffffffff166009600a600c600b60106040518863ffffffff1660e01b81526004016200111a979695949392919062003863565b60006040518083038186803b1580156200113357600080fd5b505af415801562001148573d6000803e3d6000fd5b5050505060016003546200115d919062003b27565b6005541415620011775762001171620009eb565b62001192565b600560008154809291906200118c9062003cba565b91905055505b565b600060019054906101000a900460ff16620011be5760008054906101000a900460ff1615620011c9565b620011c8620028ea565b5b6200120b576040517f08c379a0000000000000000000000000000000000000000000000000000000008152600401620012029062003736565b60405180910390fd5b60008060019054906101000a900460ff1615905080156200125c576001600060016101000a81548160ff02191690831515021790555060016000806101000a81548160ff0219169083151502179055505b8b8b600291906200126f92919062002949565b50600860038190555086600660006101000a81548173ffffffffffffffffffffffffffffffffffffffff021916908373ffffffffffffffffffffffffffffffffffffffff160217905550896004819055506000600760146101000a81548160ff0219169083151502179055506000600760156101000a81548160ff02191690831515021790555087601160006101000a81548173ffffffffffffffffffffffffffffffffffffffff021916908373ffffffffffffffffffffffffffffffffffffffff16021790555081601360006101000a81548173ffffffffffffffffffffffffffffffffffffffff021916908373ffffffffffffffffffffffffffffffffffffffff160217905550886040516200138790620029da565b620013939190620035bd565b604051809103906000f080158015620013b0573d6000803e3d6000fd5b50601260006101000a81548173ffffffffffffffffffffffffffffffffffffffff021916908373ffffffffffffffffffffffffffffffffffffffff16021790555085601560006101000a81548173ffffffffffffffffffffffffffffffffffffffff021916908373ffffffffffffffffffffffffffffffffffffffff16021790555084601460006101000a81548173ffffffffffffffffffffffffffffffffffffffff021916908373ffffffffffffffffffffffffffffffffffffffff16021790555082600760006101000a81548173ffffffffffffffffffffffffffffffffffffffff021916908373ffffffffffffffffffffffffffffffffffffffff16021790555083601660006101000a81548173ffffffffffffffffffffffffffffffffffffffff021916908373ffffffffffffffffffffffffffffffffffffffff160217905550620015356040518060400160405280601281526020017f50726f787920696e697469616c697a65642100000000000000000000000000008152506200284d565b8015620015575760008060016101000a81548160ff0219169083151502179055505b505050505050505050505050565b6200156f620029e8565b600b60008373ffffffffffffffffffffffffffffffffffffffff1673ffffffffffffffffffffffffffffffffffffffff168152602001908152602001600020600880602002604051908101604052809291908260088015620015e7576020028201915b815481526020019060010190808311620015d2575b50505050509050919050565b60055481565b60045481565b6000600e80549050905090565b62001616620029e8565b600960008373ffffffffffffffffffffffffffffffffffffffff1673ffffffffffffffffffffffffffffffffffffffff1681526020019081526020016000206008806020026040519081016040528092919082600880156200168e576020028201915b81548152602001906001019080831162001679575b50505050509050919050565b600760149054906101000a900460ff1681565b6000600660009054906101000a900473ffffffffffffffffffffffffffffffffffffffff16905090565b600660009054906101000a900473ffffffffffffffffffffffffffffffffffffffff1673ffffffffffffffffffffffffffffffffffffffff163373ffffffffffffffffffffffffffffffffffffffff16146200176a576040517f08c379a0000000000000000000000000000000000000000000000000000000008152600401620017619062003758565b60405180910390fd5b601260009054906101000a900473ffffffffffffffffffffffffffffffffffffffff1673ffffffffffffffffffffffffffffffffffffffff16637b9417c8826040518263ffffffff1660e01b8152600401620017c7919062003422565b602060405180830381600087803b158015620017e257600080fd5b505af1158015620017f7573d6000803e3d6000fd5b505050506040513d601f19601f820116820180604052508101906200181d919062002b97565b5050565b60035481565b60028054620018369062003c66565b80601f0160208091040260200160405190810160405280929190818152602001828054620018649062003c66565b8015620018b55780601f106200188957610100808354040283529160200191620018b5565b820191906000526020600020905b8154815290600101906020018083116200189757829003601f168201915b505050505081565b601260009054906101000a900473ffffffffffffffffffffffffffffffffffffffff1681565b600660009054906101000a900473ffffffffffffffffffffffffffffffffffffffff1673ffffffffffffffffffffffffffffffffffffffff163373ffffffffffffffffffffffffffffffffffffffff161462001976576040517f08c379a00000000000000000000000000000000000000000000000000000000081526004016200196d9062003758565b60405180910390fd5b600760149054906101000a900460ff1615620019c9576040517f08c379a0000000000000000000000000000000000000000000000000000000008152600401620019c090620037be565b60405180910390fd5b601260009054906101000a900473ffffffffffffffffffffffffffffffffffffffff1673ffffffffffffffffffffffffffffffffffffffff1663286dd3f5826040518263ffffffff1660e01b815260040162001a26919062003422565b602060405180830381600087803b15801562001a4157600080fd5b505af115801562001a56573d6000803e3d6000fd5b505050506040513d601f19601f8201168201806040525081019062001a7c919062002b97565b5050565b600d6020528060005260406000206000915054906101000a900460ff1681565b600760009054906101000a900473ffffffffffffffffffffffffffffffffffffffff1673ffffffffffffffffffffffffffffffffffffffff163373ffffffffffffffffffffffffffffffffffffffff161462001b33576040517f08c379a000000000000000000000000000000000000000000000000000000000815260040162001b2a906200377a565b60405180910390fd5b6000600760156101000a81548160ff021916908315150217905550565b601560009054906101000a900473ffffffffffffffffffffffffffffffffffffffff1681565b6000600c60008373ffffffffffffffffffffffffffffffffffffffff1673ffffffffffffffffffffffffffffffffffffffff168152602001908152602001600020549050919050565b600760159054906101000a900460ff161562001c12576040517f08c379a000000000000000000000000000000000000000000000000000000000815260040162001c099062003714565b60405180910390fd5b600d60003373ffffffffffffffffffffffffffffffffffffffff1673ffffffffffffffffffffffffffffffffffffffff16815260200190815260200160002060009054906101000a900460ff1662001ca1576040517f08c379a000000000000000000000000000000000000000000000000000000000815260040162001c98906200379c565b60405180910390fd5b6000601660009054906101000a900473ffffffffffffffffffffffffffffffffffffffff1673ffffffffffffffffffffffffffffffffffffffff1662fdd58e33856040518363ffffffff1660e01b815260040162001d019291906200347c565b60206040518083038186803b15801562001d1a57600080fd5b505afa15801562001d2f573d6000803e3d6000fd5b505050506040513d601f19601f8201168201806040525081019062001d55919062002d15565b1162001d98576040517f08c379a000000000000000000000000000000000000000000000000000000000815260040162001d8f90620037e0565b60405180910390fd5b600a8162001da7919062003ac6565b821015801562001de157506001600a60018362001dc5919062003a31565b62001dd1919062003ac6565b62001ddd919062003b27565b8211155b62001e23576040517f08c379a000000000000000000000000000000000000000000000000000000000815260040162001e1a90620036d0565b60405180910390fd5b81600a60003373ffffffffffffffffffffffffffffffffffffffff1673ffffffffffffffffffffffffffffffffffffffff168152602001908152602001600020826005811062001e785762001e7762003d95565b5b01819055505050565b62001e8b62002a0b565b600a60008373ffffffffffffffffffffffffffffffffffffffff1673ffffffffffffffffffffffffffffffffffffffff16815260200190815260200160002060058060200260405190810160405280929190826005801562001f03576020028201915b81548152602001906001019080831162001eee575b50505050509050919050565b600760009054906101000a900473ffffffffffffffffffffffffffffffffffffffff1673ffffffffffffffffffffffffffffffffffffffff163373ffffffffffffffffffffffffffffffffffffffff161462001fa2576040517f08c379a000000000000000000000000000000000000000000000000000000000815260040162001f99906200377a565b60405180910390fd5b6001600760156101000a81548160ff021916908315150217905550565b6002600154141562002008576040517f08c379a000000000000000000000000000000000000000000000000000000000815260040162001fff9062003802565b60405180910390fd5b6002600181905550601260009054906101000a900473ffffffffffffffffffffffffffffffffffffffff1673ffffffffffffffffffffffffffffffffffffffff16639b19251a336040518263ffffffff1660e01b81526004016200206d919062003422565b60206040518083038186803b1580156200208657600080fd5b505afa1580156200209b573d6000803e3d6000fd5b505050506040513d601f19601f82011682018060405250810190620020c1919062002b97565b806200216d5750601260009054906101000a900473ffffffffffffffffffffffffffffffffffffffff1673ffffffffffffffffffffffffffffffffffffffff1663dc9a15356040518163ffffffff1660e01b815260040160206040518083038186803b1580156200213157600080fd5b505afa15801562002146573d6000803e3d6000fd5b505050506040513d601f19601f820116820180604052508101906200216c919062002b97565b5b80620021c65750600660009054906101000a900473ffffffffffffffffffffffffffffffffffffffff1673ffffffffffffffffffffffffffffffffffffffff163373ffffffffffffffffffffffffffffffffffffffff16145b62002208576040517f08c379a0000000000000000000000000000000000000000000000000000000008152600401620021ff90620036f2565b60405180910390fd5b600760149054906101000a900460ff16156200225b576040517f08c379a0000000000000000000000000000000000000000000000000000000008152600401620022529062003824565b60405180910390fd5b600d60003373ffffffffffffffffffffffffffffffffffffffff1673ffffffffffffffffffffffffffffffffffffffff16815260200190815260200160002060009054906101000a900460ff1615620022eb576040517f08c379a0000000000000000000000000000000000000000000000000000000008152600401620022e290620036ae565b60405180910390fd5b601260009054906101000a900473ffffffffffffffffffffffffffffffffffffffff1673ffffffffffffffffffffffffffffffffffffffff1663dc9a15356040518163ffffffff1660e01b815260040160206040518083038186803b1580156200235457600080fd5b505afa15801562002369573d6000803e3d6000fd5b505050506040513d601f19601f820116820180604052508101906200238f919062002b97565b6200248c57600454601460009054906101000a900473ffffffffffffffffffffffffffffffffffffffff1673ffffffffffffffffffffffffffffffffffffffff166370a08231336040518263ffffffff1660e01b8152600401620023f4919062003422565b60206040518083038186803b1580156200240d57600080fd5b505afa15801562002422573d6000803e3d6000fd5b505050506040513d601f19601f8201168201806040525081019062002448919062002d15565b116200248b576040517f08c379a000000000000000000000000000000000000000000000000000000000815260040162002482906200368c565b60405180910390fd5b5b601360009054906101000a900473ffffffffffffffffffffffffffffffffffffffff1673ffffffffffffffffffffffffffffffffffffffff1663771bd4ce336040518263ffffffff1660e01b8152600401620024e9919062003422565b600060405180830381600087803b1580156200250457600080fd5b505af115801562002519573d6000803e3d6000fd5b505050506001600d60003373ffffffffffffffffffffffffffffffffffffffff1673ffffffffffffffffffffffffffffffffffffffff16815260200190815260200160002060006101000a81548160ff021916908315150217905550600e339080600181540180825580915050600190039060005260206000200160009091909190916101000a81548173ffffffffffffffffffffffffffffffffffffffff021916908373ffffffffffffffffffffffffffffffffffffffff160217905550601460009054906101000a900473ffffffffffffffffffffffffffffffffffffffff1673ffffffffffffffffffffffffffffffffffffffff166323b872dd33306004546040518463ffffffff1660e01b81526004016200263b939291906200343f565b602060405180830381600087803b1580156200265657600080fd5b505af11580156200266b573d6000803e3d6000fd5b505050506040513d601f19601f8201168201806040525081019062002691919062002b97565b507f9f9e4044c5742cca66ca090b21552bac14645e68bad7a92364a9d9ff18111a1c3360045430604051620026c993929190620034a9565b60405180910390a160018081905550565b600a6020528160005260406000208160058110620026f757600080fd5b01600091509150505481565b600b60205281600052604060002081600881106200272057600080fd5b01600091509150505481565b600760009054906101000a900473ffffffffffffffffffffffffffffffffffffffff1673ffffffffffffffffffffffffffffffffffffffff163373ffffffffffffffffffffffffffffffffffffffff1614620027bf576040517f08c379a0000000000000000000000000000000000000000000000000000000008152600401620027b6906200377a565b60405180910390fd5b6001600760146101000a81548160ff021916908315150217905550565b6000600e8281548110620027f557620027f462003d95565b5b9060005260206000200160009054906101000a900473ffffffffffffffffffffffffffffffffffffffff169050919050565b600660009054906101000a900473ffffffffffffffffffffffffffffffffffffffff1681565b620028e78160405160240162002864919062003668565b6040516020818303038152906040527f41304fac000000000000000000000000000000000000000000000000000000007bffffffffffffffffffffffffffffffffffffffffffffffffffffffff19166020820180517bffffffffffffffffffffffffffffffffffffffffffffffffffffffff8381831617835250505050620028fd565b50565b6000620028f73062002926565b15905090565b60008151905060006a636f6e736f6c652e6c6f679050602083016000808483855afa5050505050565b6000808273ffffffffffffffffffffffffffffffffffffffff163b119050919050565b828054620029579062003c66565b90600052602060002090601f0160209004810192826200297b5760008555620029c7565b82601f106200299657803560ff1916838001178555620029c7565b82800160010185558215620029c7579182015b82811115620029c6578235825591602001919060010190620029a9565b5b509050620029d6919062002a2d565b5090565b611114806200415883390190565b604051806101000160405280600890602082028036833780820191505090505090565b6040518060a00160405280600590602082028036833780820191505090505090565b5b8082111562002a4857600081600090555060010162002a2e565b5090565b60008135905062002a5d8162004109565b92915050565b60008135905062002a748162004123565b92915050565b60008151905062002a8b8162004123565b92915050565b60008083601f84011262002aaa5762002aa962003dde565b5b8235905067ffffffffffffffff81111562002aca5762002ac962003dd9565b5b60208301915083600182028301111562002ae95762002ae862003de3565b5b9250929050565b60008135905062002b01816200413d565b92915050565b60008151905062002b18816200413d565b92915050565b60006020828403121562002b375762002b3662003ded565b5b600062002b478482850162002a4c565b91505092915050565b6000806040838503121562002b6a5762002b6962003ded565b5b600062002b7a8582860162002a4c565b925050602062002b8d8582860162002af0565b9150509250929050565b60006020828403121562002bb05762002baf62003ded565b5b600062002bc08482850162002a7a565b91505092915050565b60008060008060008060008060008060006101408c8e03121562002bf25762002bf162003ded565b5b60008c013567ffffffffffffffff81111562002c135762002c1262003de8565b5b62002c218e828f0162002a91565b9b509b5050602062002c368e828f0162002af0565b995050604062002c498e828f0162002a63565b985050606062002c5c8e828f0162002a4c565b975050608062002c6f8e828f0162002a4c565b96505060a062002c828e828f0162002a4c565b95505060c062002c958e828f0162002a4c565b94505060e062002ca88e828f0162002a4c565b93505061010062002cbc8e828f0162002a4c565b92505061012062002cd08e828f0162002a4c565b9150509295989b509295989b9093969950565b60006020828403121562002cfc5762002cfb62003ded565b5b600062002d0c8482850162002af0565b91505092915050565b60006020828403121562002d2e5762002d2d62003ded565b5b600062002d3e8482850162002b07565b91505092915050565b6000806040838503121562002d615762002d6062003ded565b5b600062002d718582860162002af0565b925050602062002d848582860162002af0565b9150509250929050565b600062002d9c838362002df6565b60208301905092915050565b600062002db6838362002e18565b60208301905092915050565b600062002dd08383620033d1565b60408301905092915050565b600062002dea8383620033ef565b60208301905092915050565b62002e018162003b82565b82525050565b62002e128162003b82565b82525050565b62002e238162003b82565b82525050565b62002e348162003938565b62002e408184620039bb565b925062002e4d82620038e0565b8060005b8381101562002e8457815162002e68878262002d8e565b965062002e75836200397a565b92505060018101905062002e51565b505050505050565b600062002e998262003943565b62002ea58185620039c6565b935062002eb283620038ea565b8060005b8381101562002ef25762002eca8262003dc4565b62002ed6888262002d8e565b975062002ee38362003987565b92505060018101905062002eb6565b5085935050505092915050565b600062002f0c8262003943565b62002f188185620039d7565b935062002f2583620038ea565b8060005b8381101562002f655762002f3d8262003dc4565b62002f49888262002da8565b975062002f568362003987565b92505060018101905062002f29565b5085935050505092915050565b8082525050565b600062002f86826200394e565b62002f928185620039e8565b935062002f9f83620038ff565b8060005b8381101562002fd657815162002fba888262002dc2565b975062002fc78362003994565b92505060018101905062002fa3565b5085935050505092915050565b62002fee8162003959565b62002ffa8184620039f9565b925062003007826200390f565b8060005b838110156200303e57815162003022878262002ddc565b96506200302f83620039a1565b9250506001810190506200300b565b505050505050565b620030518162003964565b6200305d818462003a04565b92506200306a8262003919565b8060005b83811015620030a157815162003085878262002ddc565b96506200309283620039ae565b9250506001810190506200306e565b505050505050565b620030b48162003b96565b82525050565b620030c58162003bcc565b82525050565b620030d68162003be0565b82525050565b620030e78162003bf4565b82525050565b8082525050565b8082525050565b8082525050565b8082525050565b600062003116826200396f565b62003122818562003a0f565b93506200313481856020860162003c30565b6200313f8162003df2565b840191505092915050565b60008154620031598162003c66565b62003165818662003a20565b945060018216600081146200318357600181146200319657620031cd565b60ff1983168652602086019350620031cd565b620031a18562003923565b60005b83811015620031c557815481890152600182019150602081019050620031a4565b808801955050505b50505092915050565b6000620031e5601d8362003a0f565b9150620031f28262003e10565b602082019050919050565b60006200320c60238362003a0f565b9150620032198262003e39565b604082019050919050565b60006200323360318362003a0f565b9150620032408262003e88565b604082019050919050565b60006200325a601d8362003a0f565b9150620032678262003ed7565b602082019050919050565b600062003281601e8362003a0f565b91506200328e8262003f00565b602082019050919050565b6000620032a8602e8362003a0f565b9150620032b58262003f29565b604082019050919050565b6000620032cf60178362003a0f565b9150620032dc8262003f78565b602082019050919050565b6000620032f660168362003a0f565b9150620033038262003fa1565b602082019050919050565b60006200331d60168362003a0f565b91506200332a8262003fca565b602082019050919050565b60006200334460418362003a0f565b9150620033518262003ff3565b606082019050919050565b60006200336b60248362003a0f565b9150620033788262004068565b604082019050919050565b600062003392601f8362003a0f565b91506200339f82620040b7565b602082019050919050565b6000620033b960178362003a0f565b9150620033c682620040e0565b602082019050919050565b604082016000820151620033e9600085018262002e29565b50505050565b620033fa8162003bc2565b82525050565b6200340b8162003bc2565b82525050565b6200341c8162003bc2565b82525050565b600060208201905062003439600083018462002e07565b92915050565b600060608201905062003456600083018662002e07565b62003465602083018562002e07565b62003474604083018462003400565b949350505050565b600060408201905062003493600083018562002e07565b620034a2602083018462003400565b9392505050565b6000606082019050620034c0600083018662002e07565b620034cf602083018562003400565b620034de604083018462002e07565b949350505050565b6000606082019050818103600083015262003502818662002eff565b9050620035136020830185620030fb565b62003522604083018462002f72565b949350505050565b6000604082019050818103600083015262003546818562002e8c565b905062003557602083018462003400565b9392505050565b600060208201905081810360008301526200357a818462002f79565b905092915050565b600060a08201905062003599600083018462002fe3565b92915050565b600061010082019050620035b7600083018462003046565b92915050565b6000602082019050620035d46000830184620030a9565b92915050565b6000602082019050620035f16000830184620030cb565b92915050565b60006020820190506200360e6000830184620030dc565b92915050565b60006080820190506200362b600083018762003102565b6200363a602083018662002f72565b62003649604083018562003411565b81810360608301526200365d81846200314a565b905095945050505050565b6000602082019050818103600083015262003684818462003109565b905092915050565b60006020820190508181036000830152620036a781620031d6565b9050919050565b60006020820190508181036000830152620036c981620031fd565b9050919050565b60006020820190508181036000830152620036eb8162003224565b9050919050565b600060208201905081810360008301526200370d816200324b565b9050919050565b600060208201905081810360008301526200372f8162003272565b9050919050565b60006020820190508181036000830152620037518162003299565b9050919050565b600060208201905081810360008301526200377381620032c0565b9050919050565b600060208201905081810360008301526200379581620032e7565b9050919050565b60006020820190508181036000830152620037b7816200330e565b9050919050565b60006020820190508181036000830152620037d98162003335565b9050919050565b60006020820190508181036000830152620037fb816200335c565b9050919050565b600060208201905081810360008301526200381d8162003383565b9050919050565b600060208201905081810360008301526200383f81620033aa565b9050919050565b60006020820190506200385d600083018462003400565b92915050565b600060e0820190506200387a600083018a62003411565b620038896020830189620030ba565b620038986040830188620030f4565b620038a76060830187620030ed565b620038b66080830186620030fb565b620038c560a0830185620030f4565b620038d460c083018462003102565b98975050505050505050565b6000819050919050565b60008190508160005260206000209050919050565b6000819050602082019050919050565b6000819050919050565b6000819050919050565b60008190508160005260206000209050919050565b600060029050919050565b600081549050919050565b600081519050919050565b600060059050919050565b600060089050919050565b600081519050919050565b6000602082019050919050565b6000600182019050919050565b6000602082019050919050565b6000602082019050919050565b6000602082019050919050565b600081905092915050565b600082825260208201905092915050565b600082825260208201905092915050565b600082825260208201905092915050565b600081905092915050565b600081905092915050565b600082825260208201905092915050565b600082825260208201905092915050565b600062003a3e8262003bc2565b915062003a4b8362003bc2565b9250827fffffffffffffffffffffffffffffffffffffffffffffffffffffffffffffffff0382111562003a835762003a8262003d08565b5b828201905092915050565b600062003a9b8262003bc2565b915062003aa88362003bc2565b92508262003abb5762003aba62003d37565b5b828204905092915050565b600062003ad38262003bc2565b915062003ae08362003bc2565b9250817fffffffffffffffffffffffffffffffffffffffffffffffffffffffffffffffff048311821515161562003b1c5762003b1b62003d08565b5b828202905092915050565b600062003b348262003bc2565b915062003b418362003bc2565b92508282101562003b575762003b5662003d08565b5b828203905092915050565b600073ffffffffffffffffffffffffffffffffffffffff82169050919050565b600062003b8f8262003ba2565b9050919050565b60008115159050919050565b600073ffffffffffffffffffffffffffffffffffffffff82169050919050565b6000819050919050565b600062003bd98262003c08565b9050919050565b600062003bed8262003c08565b9050919050565b600062003c018262003c08565b9050919050565b600062003c158262003c1c565b9050919050565b600062003c298262003ba2565b9050919050565b60005b8381101562003c5057808201518184015260208101905062003c33565b8381111562003c60576000848401525b50505050565b6000600282049050600182168062003c7f57607f821691505b6020821081141562003c965762003c9562003d66565b5b50919050565b600062003cb362003cad8362003e03565b62003b62565b9050919050565b600062003cc78262003bc2565b91507fffffffffffffffffffffffffffffffffffffffffffffffffffffffffffffffff82141562003cfd5762003cfc62003d08565b5b600182019050919050565b7f4e487b7100000000000000000000000000000000000000000000000000000000600052601160045260246000fd5b7f4e487b7100000000000000000000000000000000000000000000000000000000600052601260045260246000fd5b7f4e487b7100000000000000000000000000000000000000000000000000000000600052602260045260246000fd5b7f4e487b7100000000000000000000000000000000000000000000000000000000600052603260045260246000fd5b600062003dd2825462003c9c565b9050919050565b600080fd5b600080fd5b600080fd5b600080fd5b600080fd5b6000601f19601f8301169050919050565b60008160001c9050919050565b7f496e737566666963656e742066756e647320666f72207374616b696e67000000600082015250565b7f596f75206861766520616c7265616479206a6f696e65642074686973206c656160008201527f6775650000000000000000000000000000000000000000000000000000000000602082015250565b7f596f75206172652073657474696e6720616e206174686c65746520696e20746860008201527f652077726f6e6720706f736974696f6e21000000000000000000000000000000602082015250565b7f55736572206973206e6f74206f6e2077686974656c6973742062726f2e000000600082015250565b7f6c696e657570206973206c6f636b656420666f7220746865207765656b210000600082015250565b7f496e697469616c697a61626c653a20636f6e747261637420697320616c72656160008201527f647920696e697469616c697a6564000000000000000000000000000000000000602082015250565b7f43616c6c6572206973206e6f74207468652061646d696e000000000000000000600082015250565b7f43616c6c6572206973206e6f74205465616d4469666600000000000000000000600082015250565b7f55736572206973206e6f7420696e204c65616775652e00000000000000000000600082015250565b7f4e6f626f64792063616e20656e7465722f6578697420746865206c656167756560008201527f20616e796d6f72652e2054686520736561736f6e20686173207374617274656460208201527f2100000000000000000000000000000000000000000000000000000000000000604082015250565b7f43616c6c657220646f6573206e6f74206f776e20676976656e206174686c657460008201527f6549647300000000000000000000000000000000000000000000000000000000602082015250565b7f5265656e7472616e637947756172643a207265656e7472616e742063616c6c00600082015250565b7f4c656167756520456e74727920697320436c6f73656421000000000000000000600082015250565b620041148162003b82565b81146200412057600080fd5b50565b6200412e8162003b96565b81146200413a57600080fd5b50565b620041488162003bc2565b81146200415457600080fd5b5056fe60806040523480156200001157600080fd5b50604051620011143803806200111483398181016040528101906200003791906200015b565b620000576200004b6200007860201b60201c565b6200008060201b60201c565b80600360006101000a81548160ff02191690831515021790555050620001b8565b600033905090565b60008060009054906101000a900473ffffffffffffffffffffffffffffffffffffffff169050816000806101000a81548173ffffffffffffffffffffffffffffffffffffffff021916908373ffffffffffffffffffffffffffffffffffffffff1602179055508173ffffffffffffffffffffffffffffffffffffffff168173ffffffffffffffffffffffffffffffffffffffff167f8be0079c531659141344cd1fd0a4f28419497f9722a3daafe3b4186f6b6457e060405160405180910390a35050565b60008151905062000155816200019e565b92915050565b60006020828403121562000174576200017362000199565b5b6000620001848482850162000144565b91505092915050565b60008115159050919050565b600080fd5b620001a9816200018d565b8114620001b557600080fd5b50565b610f4c80620001c86000396000f3fe608060405234801561001057600080fd5b50600436106100a95760003560e01c80638da5cb5b116100715780638da5cb5b146101665780639b19251a14610184578063dc9a1535146101b4578063e2ec6ec3146101d2578063e35a899914610202578063f2fde38b14610232576100a9565b806324953eaa146100ae578063286dd3f5146100de57806344eaa84e1461010e578063715018a61461012c5780637b9417c814610136575b600080fd5b6100c860048036038101906100c39190610ada565b61024e565b6040516100d59190610bb1565b60405180910390f35b6100f860048036038101906100f39190610aad565b61031e565b6040516101059190610bb1565b60405180910390f35b6101166104a1565b6040516101239190610c0c565b60405180910390f35b6101346104ab565b005b610150600480360381019061014b9190610aad565b610533565b60405161015d9190610bb1565b60405180910390f35b61016e6106b4565b60405161017b9190610b96565b60405180910390f35b61019e60048036038101906101999190610aad565b6106dd565b6040516101ab9190610bb1565b60405180910390f35b6101bc6106fd565b6040516101c99190610bb1565b60405180910390f35b6101ec60048036038101906101e79190610ada565b610710565b6040516101f99190610bb1565b60405180910390f35b61021c60048036038101906102179190610aad565b6107e0565b6040516102299190610bb1565b60405180910390f35b61024c60048036038101906102479190610aad565b610836565b005b600061025861092e565b73ffffffffffffffffffffffffffffffffffffffff166102766106b4565b73ffffffffffffffffffffffffffffffffffffffff16146102cc576040517f08c379a00000000000000000000000000000000000000000000000000000000081526004016102c390610bec565b60405180910390fd5b60005b8251811015610318576102fb8382815181106102ee576102ed610e04565b5b602002602001015161031e565b1561030557600191505b808061031090610d8c565b9150506102cf565b50919050565b600061032861092e565b73ffffffffffffffffffffffffffffffffffffffff166103466106b4565b73ffffffffffffffffffffffffffffffffffffffff161461039c576040517f08c379a000000000000000000000000000000000000000000000000000000000815260040161039390610bec565b60405180910390fd5b600160008373ffffffffffffffffffffffffffffffffffffffff1673ffffffffffffffffffffffffffffffffffffffff16815260200190815260200160002060009054906101000a900460ff161561049c576000600160008473ffffffffffffffffffffffffffffffffffffffff1673ffffffffffffffffffffffffffffffffffffffff16815260200190815260200160002060006101000a81548160ff0219169083151502179055507ff1abf01a1043b7c244d128e8595cf0c1d10743b022b03a02dffd8ca3bf729f5a826040516104759190610b96565b60405180910390a16001600260008282546104909190610cdf565b92505081905550600190505b919050565b6000600254905090565b6104b361092e565b73ffffffffffffffffffffffffffffffffffffffff166104d16106b4565b73ffffffffffffffffffffffffffffffffffffffff1614610527576040517f08c379a000000000000000000000000000000000000000000000000000000000815260040161051e90610bec565b60405180910390fd5b6105316000610936565b565b600061053d61092e565b73ffffffffffffffffffffffffffffffffffffffff1661055b6106b4565b73ffffffffffffffffffffffffffffffffffffffff16146105b1576040517f08c379a00000000000000000000000000000000000000000000000000000000081526004016105a890610bec565b60405180910390fd5b600160008373ffffffffffffffffffffffffffffffffffffffff1673ffffffffffffffffffffffffffffffffffffffff16815260200190815260200160002060009054906101000a900460ff166106af5760018060008473ffffffffffffffffffffffffffffffffffffffff1673ffffffffffffffffffffffffffffffffffffffff16815260200190815260200160002060006101000a81548160ff0219169083151502179055507fd1bba68c128cc3f427e5831b3c6f99f480b6efa6b9e80c757768f6124158cc3f826040516106889190610b96565b60405180910390a16001600260008282546106a39190610c89565b92505081905550600190505b919050565b60008060009054906101000a900473ffffffffffffffffffffffffffffffffffffffff16905090565b60016020528060005260406000206000915054906101000a900460ff1681565b600360009054906101000a900460ff1681565b600061071a61092e565b73ffffffffffffffffffffffffffffffffffffffff166107386106b4565b73ffffffffffffffffffffffffffffffffffffffff161461078e576040517f08c379a000000000000000000000000000000000000000000000000000000000815260040161078590610bec565b60405180910390fd5b60005b82518110156107da576107bd8382815181106107b0576107af610e04565b5b6020026020010151610533565b156107c757600191505b80806107d290610d8c565b915050610791565b50919050565b6000600160008373ffffffffffffffffffffffffffffffffffffffff1673ffffffffffffffffffffffffffffffffffffffff16815260200190815260200160002060009054906101000a900460ff169050919050565b61083e61092e565b73ffffffffffffffffffffffffffffffffffffffff1661085c6106b4565b73ffffffffffffffffffffffffffffffffffffffff16146108b2576040517f08c379a00000000000000000000000000000000000000000000000000000000081526004016108a990610bec565b60405180910390fd5b600073ffffffffffffffffffffffffffffffffffffffff168173ffffffffffffffffffffffffffffffffffffffff161415610922576040517f08c379a000000000000000000000000000000000000000000000000000000000815260040161091990610bcc565b60405180910390fd5b61092b81610936565b50565b600033905090565b60008060009054906101000a900473ffffffffffffffffffffffffffffffffffffffff169050816000806101000a81548173ffffffffffffffffffffffffffffffffffffffff021916908373ffffffffffffffffffffffffffffffffffffffff1602179055508173ffffffffffffffffffffffffffffffffffffffff168173ffffffffffffffffffffffffffffffffffffffff167f8be0079c531659141344cd1fd0a4f28419497f9722a3daafe3b4186f6b6457e060405160405180910390a35050565b6000610a0d610a0884610c4c565b610c27565b90508083825260208201905082856020860282011115610a3057610a2f610e67565b5b60005b85811015610a605781610a468882610a6a565b845260208401935060208301925050600181019050610a33565b5050509392505050565b600081359050610a7981610eff565b92915050565b600082601f830112610a9457610a93610e62565b5b8135610aa48482602086016109fa565b91505092915050565b600060208284031215610ac357610ac2610e71565b5b6000610ad184828501610a6a565b91505092915050565b600060208284031215610af057610aef610e71565b5b600082013567ffffffffffffffff811115610b0e57610b0d610e6c565b5b610b1a84828501610a7f565b91505092915050565b610b2c81610d13565b82525050565b610b3b81610d25565b82525050565b6000610b4e602683610c78565b9150610b5982610e87565b604082019050919050565b6000610b71602083610c78565b9150610b7c82610ed6565b602082019050919050565b610b9081610d51565b82525050565b6000602082019050610bab6000830184610b23565b92915050565b6000602082019050610bc66000830184610b32565b92915050565b60006020820190508181036000830152610be581610b41565b9050919050565b60006020820190508181036000830152610c0581610b64565b9050919050565b6000602082019050610c216000830184610b87565b92915050565b6000610c31610c42565b9050610c3d8282610d5b565b919050565b6000604051905090565b600067ffffffffffffffff821115610c6757610c66610e33565b5b602082029050602081019050919050565b600082825260208201905092915050565b6000610c9482610d51565b9150610c9f83610d51565b9250827fffffffffffffffffffffffffffffffffffffffffffffffffffffffffffffffff03821115610cd457610cd3610dd5565b5b828201905092915050565b6000610cea82610d51565b9150610cf583610d51565b925082821015610d0857610d07610dd5565b5b828203905092915050565b6000610d1e82610d31565b9050919050565b60008115159050919050565b600073ffffffffffffffffffffffffffffffffffffffff82169050919050565b6000819050919050565b610d6482610e76565b810181811067ffffffffffffffff82111715610d8357610d82610e33565b5b80604052505050565b6000610d9782610d51565b91507fffffffffffffffffffffffffffffffffffffffffffffffffffffffffffffffff821415610dca57610dc9610dd5565b5b600182019050919050565b7f4e487b7100000000000000000000000000000000000000000000000000000000600052601160045260246000fd5b7f4e487b7100000000000000000000000000000000000000000000000000000000600052603260045260246000fd5b7f4e487b7100000000000000000000000000000000000000000000000000000000600052604160045260246000fd5b600080fd5b600080fd5b600080fd5b600080fd5b6000601f19601f8301169050919050565b7f4f776e61626c653a206e6577206f776e657220697320746865207a65726f206160008201527f6464726573730000000000000000000000000000000000000000000000000000602082015250565b7f4f776e61626c653a2063616c6c6572206973206e6f7420746865206f776e6572600082015250565b610f0881610d13565b8114610f1357600080fd5b5056fea2646970667358221220feccf7967160b27bc4e7387864d237b4000f88abed00a8f38cd892f59bf1675364736f6c63430008070033a26469706673582212206664c324ed27db84684729d07e8cf918ff6816214501060f98fe5fb29d5a1e2a64736f6c63430008070033",
  "linkReferences": {
    "contracts/MOBALogicLibrary.sol": {
      "MOBALogicLibrary": [
        {
          "length": 20,
          "start": 2419
        },
        {
          "length": 20,
          "start": 3036
        },
        {
          "length": 20,
          "start": 4309
        }
      ]
    }
  },
  "deployedLinkReferences": {
    "contracts/MOBALogicLibrary.sol": {
      "MOBALogicLibrary": [
        {
          "length": 20,
          "start": 2380
        },
        {
          "length": 20,
          "start": 2997
        },
        {
          "length": 20,
          "start": 4270
        }
      ]
    }
  }
}