{
  "_format": "hh-sol-artifact-1",
  "contractName": "LeagueOfLegendsLogic",
  "sourceName": "contracts/LeagueOfLegendsLogic.sol",
  "abi": [
    {
      "anonymous": false,
      "inputs": [
        {
          "indexed": true,
          "internalType": "address",
          "name": "previousOwner",
          "type": "address"
        },
        {
          "indexed": true,
          "internalType": "address",
          "name": "newOwner",
          "type": "address"
        }
      ],
      "name": "OwnershipTransferred",
      "type": "event"
    },
    {
      "anonymous": false,
      "inputs": [
        {
          "indexed": true,
          "internalType": "bytes32",
          "name": "role",
          "type": "bytes32"
        },
        {
          "indexed": true,
          "internalType": "bytes32",
          "name": "previousAdminRole",
          "type": "bytes32"
        },
        {
          "indexed": true,
          "internalType": "bytes32",
          "name": "newAdminRole",
          "type": "bytes32"
        }
      ],
      "name": "RoleAdminChanged",
      "type": "event"
    },
    {
      "anonymous": false,
      "inputs": [
        {
          "indexed": true,
          "internalType": "bytes32",
          "name": "role",
          "type": "bytes32"
        },
        {
          "indexed": true,
          "internalType": "address",
          "name": "account",
          "type": "address"
        },
        {
          "indexed": true,
          "internalType": "address",
          "name": "sender",
          "type": "address"
        }
      ],
      "name": "RoleGranted",
      "type": "event"
    },
    {
      "anonymous": false,
      "inputs": [
        {
          "indexed": true,
          "internalType": "bytes32",
          "name": "role",
          "type": "bytes32"
        },
        {
          "indexed": true,
          "internalType": "address",
          "name": "account",
          "type": "address"
        },
        {
          "indexed": true,
          "internalType": "address",
          "name": "sender",
          "type": "address"
        }
      ],
      "name": "RoleRevoked",
      "type": "event"
    },
    {
      "anonymous": false,
      "inputs": [
        {
          "indexed": false,
          "internalType": "address",
          "name": "sender",
          "type": "address"
        },
        {
          "indexed": false,
          "internalType": "uint256",
          "name": "amount",
          "type": "uint256"
        }
      ],
      "name": "Staked",
      "type": "event"
    },
    {
      "anonymous": false,
      "inputs": [
        {
          "indexed": false,
          "internalType": "address",
          "name": "addr",
          "type": "address"
        }
      ],
      "name": "WhitelistedAddressAdded",
      "type": "event"
    },
    {
      "anonymous": false,
      "inputs": [
        {
          "indexed": false,
          "internalType": "address",
          "name": "addr",
          "type": "address"
        }
      ],
      "name": "WhitelistedAddressRemoved",
      "type": "event"
    },
    {
      "anonymous": false,
      "inputs": [
        {
          "indexed": false,
          "internalType": "address",
          "name": "sender",
          "type": "address"
        },
        {
          "indexed": false,
          "internalType": "address",
          "name": "contractAddress",
          "type": "address"
        }
      ],
      "name": "testUSDCDeployed",
      "type": "event"
    },
    {
      "inputs": [],
      "name": "DEFAULT_ADMIN_ROLE",
      "outputs": [
        {
          "internalType": "bytes32",
          "name": "",
          "type": "bytes32"
        }
      ],
      "stateMutability": "view",
      "type": "function"
    },
    {
      "inputs": [
        {
          "internalType": "address",
          "name": "addr",
          "type": "address"
        }
      ],
      "name": "addAddressToWhitelist",
      "outputs": [
        {
          "internalType": "bool",
          "name": "success",
          "type": "bool"
        }
      ],
      "stateMutability": "nonpayable",
      "type": "function"
    },
    {
      "inputs": [
        {
          "internalType": "address[]",
          "name": "addrs",
          "type": "address[]"
        }
      ],
      "name": "addAddressesToWhitelist",
      "outputs": [
        {
          "internalType": "bool",
          "name": "success",
          "type": "bool"
        }
      ],
      "stateMutability": "nonpayable",
      "type": "function"
    },
    {
      "inputs": [
        {
          "internalType": "address",
          "name": "user",
          "type": "address"
        }
      ],
      "name": "addUserToLeague",
      "outputs": [],
      "stateMutability": "nonpayable",
      "type": "function"
    },
    {
      "inputs": [
        {
          "internalType": "address",
          "name": "_userToAdd",
          "type": "address"
        }
      ],
      "name": "addUserToWhitelist",
      "outputs": [],
      "stateMutability": "nonpayable",
      "type": "function"
    },
    {
      "inputs": [],
      "name": "currentWeekNum",
      "outputs": [
        {
          "internalType": "uint256",
          "name": "",
          "type": "uint256"
        }
      ],
      "stateMutability": "view",
      "type": "function"
    },
    {
      "inputs": [
        {
          "internalType": "uint256",
          "name": "currentWeekNum",
          "type": "uint256"
        }
      ],
      "name": "evaluateWeek",
      "outputs": [],
      "stateMutability": "nonpayable",
      "type": "function"
    },
    {
      "inputs": [],
      "name": "getAdmin",
      "outputs": [
        {
          "internalType": "address",
          "name": "",
          "type": "address"
        }
      ],
      "stateMutability": "view",
      "type": "function"
    },
    {
      "inputs": [],
      "name": "getLeagueName",
      "outputs": [
        {
          "internalType": "string",
          "name": "",
          "type": "string"
        }
      ],
      "stateMutability": "view",
      "type": "function"
    },
    {
      "inputs": [],
      "name": "getLineup",
      "outputs": [
        {
          "internalType": "uint256[]",
          "name": "",
          "type": "uint256[]"
        }
      ],
      "stateMutability": "view",
      "type": "function"
    },
    {
      "inputs": [
        {
          "internalType": "bytes32",
          "name": "role",
          "type": "bytes32"
        }
      ],
      "name": "getRoleAdmin",
      "outputs": [
        {
          "internalType": "bytes32",
          "name": "",
          "type": "bytes32"
        }
      ],
      "stateMutability": "view",
      "type": "function"
    },
    {
      "inputs": [],
      "name": "getStakeAmount",
      "outputs": [
        {
          "internalType": "uint256",
          "name": "",
          "type": "uint256"
        }
      ],
      "stateMutability": "view",
      "type": "function"
    },
    {
      "inputs": [],
      "name": "getTestUSDCAddress",
      "outputs": [
        {
          "internalType": "address",
          "name": "",
          "type": "address"
        }
      ],
      "stateMutability": "view",
      "type": "function"
    },
    {
      "inputs": [],
      "name": "getTotalPrizePot",
      "outputs": [
        {
          "internalType": "uint256",
          "name": "",
          "type": "uint256"
        }
      ],
      "stateMutability": "view",
      "type": "function"
    },
    {
      "inputs": [],
      "name": "getUSDCBalance",
      "outputs": [
        {
          "internalType": "uint256",
          "name": "",
          "type": "uint256"
        }
      ],
      "stateMutability": "view",
      "type": "function"
    },
    {
      "inputs": [],
      "name": "getUserRecord",
      "outputs": [
        {
          "internalType": "uint256[8]",
          "name": "",
          "type": "uint256[8]"
        }
      ],
      "stateMutability": "view",
      "type": "function"
    },
    {
      "inputs": [],
      "name": "getUserUSDCBalance",
      "outputs": [
        {
          "internalType": "uint256",
          "name": "",
          "type": "uint256"
        }
      ],
      "stateMutability": "view",
      "type": "function"
    },
    {
      "inputs": [],
      "name": "getUserWeeklypts",
      "outputs": [
        {
          "internalType": "uint256[8]",
          "name": "",
          "type": "uint256[8]"
        }
      ],
      "stateMutability": "view",
      "type": "function"
    },
    {
      "inputs": [],
      "name": "getUsersLength",
      "outputs": [
        {
          "internalType": "uint256",
          "name": "",
          "type": "uint256"
        }
      ],
      "stateMutability": "view",
      "type": "function"
    },
    {
      "inputs": [],
      "name": "getVersion",
      "outputs": [
        {
          "internalType": "uint256",
          "name": "version",
          "type": "uint256"
        }
      ],
      "stateMutability": "view",
      "type": "function"
    },
    {
      "inputs": [
        {
          "internalType": "bytes32",
          "name": "role",
          "type": "bytes32"
        },
        {
          "internalType": "address",
          "name": "account",
          "type": "address"
        }
      ],
      "name": "grantRole",
      "outputs": [],
      "stateMutability": "nonpayable",
      "type": "function"
    },
    {
      "inputs": [
        {
          "internalType": "bytes32",
          "name": "role",
          "type": "bytes32"
        },
        {
          "internalType": "address",
          "name": "account",
          "type": "address"
        }
      ],
      "name": "hasRole",
      "outputs": [
        {
          "internalType": "bool",
          "name": "",
          "type": "bool"
        }
      ],
      "stateMutability": "view",
      "type": "function"
    },
    {
      "inputs": [],
      "name": "incrementVersion",
      "outputs": [],
      "stateMutability": "nonpayable",
      "type": "function"
    },
    {
      "inputs": [
        {
          "internalType": "string",
          "name": "_name",
          "type": "string"
        },
        {
          "internalType": "uint256",
          "name": "_version",
          "type": "uint256"
        },
        {
          "internalType": "uint256",
          "name": "_stakeAmount",
          "type": "uint256"
        },
        {
          "internalType": "bool",
          "name": "_isPublic",
          "type": "bool"
        },
        {
          "internalType": "address",
          "name": "athletesDataStorageAddress",
          "type": "address"
        },
        {
          "internalType": "address",
          "name": "_admin",
          "type": "address"
        },
        {
          "internalType": "address",
          "name": "_polygonUSDCAddress",
          "type": "address"
        },
        {
          "internalType": "address",
          "name": "_rinkebyUSDCAddress",
          "type": "address"
        },
        {
          "internalType": "address",
          "name": "_testUSDCAddress",
          "type": "address"
        },
        {
          "internalType": "address",
          "name": "leagueMakerContractAddress",
          "type": "address"
        }
      ],
      "name": "initialize",
      "outputs": [],
      "stateMutability": "nonpayable",
      "type": "function"
    },
    {
      "inputs": [],
      "name": "isPublic",
      "outputs": [
        {
          "internalType": "bool",
          "name": "",
          "type": "bool"
        }
      ],
      "stateMutability": "view",
      "type": "function"
    },
    {
      "inputs": [],
      "name": "joinLeague",
      "outputs": [],
      "stateMutability": "nonpayable",
      "type": "function"
    },
    {
      "inputs": [
        {
          "internalType": "uint256",
          "name": "",
          "type": "uint256"
        }
      ],
      "name": "leagueMembers",
      "outputs": [
        {
          "internalType": "address",
          "name": "",
          "type": "address"
        }
      ],
      "stateMutability": "view",
      "type": "function"
    },
    {
      "inputs": [],
      "name": "leagueName",
      "outputs": [
        {
          "internalType": "string",
          "name": "",
          "type": "string"
        }
      ],
      "stateMutability": "view",
      "type": "function"
    },
    {
      "inputs": [],
      "name": "lockLineup",
      "outputs": [],
      "stateMutability": "nonpayable",
      "type": "function"
    },
    {
      "inputs": [],
      "name": "numWeeks",
      "outputs": [
        {
          "internalType": "uint256",
          "name": "",
          "type": "uint256"
        }
      ],
      "stateMutability": "view",
      "type": "function"
    },
    {
      "inputs": [],
      "name": "onLeagueEnd",
      "outputs": [],
      "stateMutability": "nonpayable",
      "type": "function"
    },
    {
      "inputs": [],
      "name": "owner",
      "outputs": [
        {
          "internalType": "address",
          "name": "",
          "type": "address"
        }
      ],
      "stateMutability": "view",
      "type": "function"
    },
    {
      "inputs": [],
      "name": "polygonUSDCAddress",
      "outputs": [
        {
          "internalType": "address",
          "name": "",
          "type": "address"
        }
      ],
      "stateMutability": "view",
      "type": "function"
    },
    {
      "inputs": [
        {
          "internalType": "address",
          "name": "addr",
          "type": "address"
        }
      ],
      "name": "removeAddressFromWhitelist",
      "outputs": [
        {
          "internalType": "bool",
          "name": "success",
          "type": "bool"
        }
      ],
      "stateMutability": "nonpayable",
      "type": "function"
    },
    {
      "inputs": [
        {
          "internalType": "address[]",
          "name": "addrs",
          "type": "address[]"
        }
      ],
      "name": "removeAddressesFromWhitelist",
      "outputs": [
        {
          "internalType": "bool",
          "name": "success",
          "type": "bool"
        }
      ],
      "stateMutability": "nonpayable",
      "type": "function"
    },
    {
      "inputs": [],
      "name": "renounceOwnership",
      "outputs": [],
      "stateMutability": "nonpayable",
      "type": "function"
    },
    {
      "inputs": [
        {
          "internalType": "bytes32",
          "name": "role",
          "type": "bytes32"
        },
        {
          "internalType": "address",
          "name": "account",
          "type": "address"
        }
      ],
      "name": "renounceRole",
      "outputs": [],
      "stateMutability": "nonpayable",
      "type": "function"
    },
    {
      "inputs": [
        {
          "internalType": "bytes32",
          "name": "role",
          "type": "bytes32"
        },
        {
          "internalType": "address",
          "name": "account",
          "type": "address"
        }
      ],
      "name": "revokeRole",
      "outputs": [],
      "stateMutability": "nonpayable",
      "type": "function"
    },
    {
      "inputs": [],
      "name": "rinkebyUSDCAddress",
      "outputs": [
        {
          "internalType": "address",
          "name": "",
          "type": "address"
        }
      ],
      "stateMutability": "view",
      "type": "function"
    },
    {
      "inputs": [],
      "name": "setLeagueEntryIsClosed",
      "outputs": [],
      "stateMutability": "nonpayable",
      "type": "function"
    },
    {
      "inputs": [],
      "name": "setLeagueSchedule",
      "outputs": [],
      "stateMutability": "nonpayable",
      "type": "function"
    },
    {
      "inputs": [
        {
          "internalType": "uint256[]",
          "name": "athleteIds",
          "type": "uint256[]"
        }
      ],
      "name": "setLineup",
      "outputs": [],
      "stateMutability": "nonpayable",
      "type": "function"
    },
    {
      "inputs": [],
      "name": "stakeAmount",
      "outputs": [
        {
          "internalType": "uint256",
          "name": "",
          "type": "uint256"
        }
      ],
      "stateMutability": "view",
      "type": "function"
    },
    {
      "inputs": [
        {
          "internalType": "bytes4",
          "name": "interfaceId",
          "type": "bytes4"
        }
      ],
      "name": "supportsInterface",
      "outputs": [
        {
          "internalType": "bool",
          "name": "",
          "type": "bool"
        }
      ],
      "stateMutability": "view",
      "type": "function"
    },
    {
      "inputs": [
        {
          "internalType": "address",
          "name": "newOwner",
          "type": "address"
        }
      ],
      "name": "transferOwnership",
      "outputs": [],
      "stateMutability": "nonpayable",
      "type": "function"
    },
    {
      "inputs": [],
      "name": "unlockLineup",
      "outputs": [],
      "stateMutability": "nonpayable",
      "type": "function"
    },
    {
      "inputs": [
        {
          "internalType": "address",
          "name": "",
          "type": "address"
        },
        {
          "internalType": "uint256",
          "name": "",
          "type": "uint256"
        }
      ],
      "name": "userToRecord",
      "outputs": [
        {
          "internalType": "uint256",
          "name": "",
          "type": "uint256"
        }
      ],
      "stateMutability": "view",
      "type": "function"
    },
    {
      "inputs": [],
      "name": "version",
      "outputs": [
        {
          "internalType": "uint256",
          "name": "",
          "type": "uint256"
        }
      ],
      "stateMutability": "view",
      "type": "function"
    },
    {
      "inputs": [
        {
          "internalType": "address",
          "name": "",
          "type": "address"
        }
      ],
      "name": "whitelist",
      "outputs": [
        {
          "internalType": "bool",
          "name": "",
          "type": "bool"
        }
      ],
      "stateMutability": "view",
      "type": "function"
    }
  ],
  "bytecode": "0x60806040523480156200001157600080fd5b5062000032620000266200003860201b60201c565b6200004060201b60201c565b62000105565b600033905090565b60008060029054906101000a900473ffffffffffffffffffffffffffffffffffffffff16905081600060026101000a81548173ffffffffffffffffffffffffffffffffffffffff021916908373ffffffffffffffffffffffffffffffffffffffff1602179055508173ffffffffffffffffffffffffffffffffffffffff168173ffffffffffffffffffffffffffffffffffffffff167f8be0079c531659141344cd1fd0a4f28419497f9722a3daafe3b4186f6b6457e060405160405180910390a35050565b61542c80620001156000396000f3fe60806040523480156200001157600080fd5b5060043610620002fd5760003560e01c8063715018a611620001a7578063a217fddf11620000ff578063d547741f11620000b1578063e4c9066b1162000087578063e4c9066b146200091c578063f2fde38b1462000928578063f612121a1462000948578063f8816045146200096857620002fd565b8063d547741f14620008a4578063dc9a153514620008c4578063e2ec6ec314620008e657620002fd565b8063a217fddf146200081a578063a2bc091a146200083c578063ada3a28d1462000848578063c8be3b5b146200086a578063c99fea941462000876578063cdbba4c6146200088257620002fd565b80638da5cb5b11620001595780638da5cb5b146200072857806391d14854146200074a57806393f3706c146200078057806399a6003414620007a25780639b19251a14620007c45780639f2d548114620007fa57620002fd565b8063715018a61462000660578063722580b6146200066c578063747b8050146200068e5780637b9417c814620006ae5780637eed33f114620006e4578063841abf6e146200070657620002fd565b80632f2ff15d116200025b578063595b1a3e116200020d578063595b1a3e14620005965780635d514d6914620005b85780635fcc698714620005d857806360c7dc4714620005fa5780636e9960c3146200061c5780636fd71a18146200063e57620002fd565b80632f2ff15d14620004ce57806336568abe14620004ee5780633cfd1ccc146200050e578063403570c5146200053057806352e6e5f3146200055257806354fd4d50146200057457620002fd565b80631d803e0011620002b55780631d803e0014620003de578063248a9ca314620003ea57806324953eaa1462000420578063267175db1462000456578063286dd3f5146200048c5780632cf0a1fc14620004c257620002fd565b8062b2476f146200030257806301ffc9a714620003245780630655465a146200035a578063087e18a714620003665780630c6f795914620003865780630d8e6e2c14620003bc575b600080fd5b6200030c6200098a565b6040516200031b919062003a41565b60405180910390f35b6200034260048036038101906200033c91906200346a565b620009b0565b60405162000351919062003b0a565b60405180910390f35b6200036462000a2d565b005b6200038460048036038101906200037e9190620032a4565b62000ae5565b005b620003a460048036038101906200039e9190620032d6565b62000c69565b604051620003b3919062003ccc565b60405180910390f35b620003c662000c92565b604051620003d5919062003ccc565b60405180910390f35b620003e862000c97565b005b620004086004803603810190620004029190620033f1565b62000f42565b60405162000417919062003b27565b60405180910390f35b6200043e60048036038101906200043891906200331d565b62000f62565b6040516200044d919062003b0a565b60405180910390f35b6200047460048036038101906200046e9190620035b6565b6200105f565b60405162000483919062003a41565b60405180910390f35b620004aa6004803603810190620004a49190620032a4565b6200109f565b604051620004b9919062003b0a565b60405180910390f35b620004cc6200122e565b005b620004ec6004803603810190620004e6919062003423565b6200124c565b005b6200050c600480360381019062000506919062003423565b6200127d565b005b6200051862001307565b60405162000527919062003ccc565b60405180910390f35b6200053a620013bf565b60405162000549919062003b98565b60405180910390f35b6200055c62001459565b6040516200056b919062003ccc565b60405180910390f35b6200057e6200145f565b6040516200058d919062003ccc565b60405180910390f35b620005a062001465565b604051620005af919062003ccc565b60405180910390f35b620005d66004803603810190620005d091906200349c565b62001472565b005b620005e262001888565b604051620005f1919062003ccc565b60405180910390f35b6200060462001940565b60405162000613919062003ccc565b60405180910390f35b6200062662001946565b60405162000635919062003a41565b60405180910390f35b6200064862001970565b60405162000657919062003ac8565b60405180910390f35b6200066a620019fc565b005b6200067662001a8d565b60405162000685919062003ccc565b60405180910390f35b620006ac6004803603810190620006a69190620032a4565b62001a97565b005b620006cc6004803603810190620006c69190620032a4565b62001be1565b604051620006db919062003b0a565b60405180910390f35b620006ee62001d6f565b604051620006fd919062003ccc565b60405180910390f35b6200071062001d75565b6040516200071f919062003b98565b60405180910390f35b6200073262001e0b565b60405162000741919062003a41565b60405180910390f35b62000768600480360381019062000762919062003423565b62001e34565b60405162000777919062003b0a565b60405180910390f35b6200078a62001e9f565b60405162000799919062003a41565b60405180910390f35b620007ac62001ec5565b604051620007bb919062003ccc565b60405180910390f35b620007e26004803603810190620007dc9190620032a4565b62001ee1565b604051620007f1919062003b0a565b60405180910390f35b620008186004803603810190620008129190620035b6565b62001f01565b005b6200082462001fc0565b60405162000833919062003b27565b60405180910390f35b6200084662001fc7565b005b6200085262002067565b60405162000861919062003ae6565b60405180910390f35b62000874620020fe565b005b620008806200219e565b005b6200088c620023bc565b6040516200089b919062003a41565b60405180910390f35b620008c26004803603810190620008bc919062003423565b620023e6565b005b620008ce62002417565b604051620008dd919062003b0a565b60405180910390f35b620009046004803603810190620008fe91906200331d565b6200242a565b60405162000913919062003b0a565b60405180910390f35b6200092662002527565b005b620009466004803603810190620009409190620032a4565b620025c7565b005b6200096660048036038101906200096091906200336e565b620026cb565b005b6200097262002777565b60405162000981919062003ac8565b60405180910390f35b601260009054906101000a900473ffffffffffffffffffffffffffffffffffffffff1681565b60007f7965db0b000000000000000000000000000000000000000000000000000000007bffffffffffffffffffffffffffffffffffffffffffffffffffffffff1916827bffffffffffffffffffffffffffffffffffffffffffffffffffffffff1916148062000a26575062000a258262002803565b5b9050919050565b62000a6d6040518060400160405280601081526020017f73657474696e67207363686564756c65000000000000000000000000000000008152506200286d565b73__$36fdb4e0c2cb91f3ceca5ea81b025328f3$__63d2c232b56010600960075460066040518563ffffffff1660e01b815260040162000ab1949392919062003b44565b60006040518083038186803b15801562000aca57600080fd5b505af415801562000adf573d6000803e3d6000fd5b50505050565b600d60009054906101000a900460ff161562000b38576040517f08c379a000000000000000000000000000000000000000000000000000000000815260040162000b2f9062003c88565b60405180910390fd5b6008600980549050101562000c41576009819080600181540180825580915050600190039060005260206000200160009091909190916101000a81548173ffffffffffffffffffffffffffffffffffffffff021916908373ffffffffffffffffffffffffffffffffffffffff160217905550601560009054906101000a900473ffffffffffffffffffffffffffffffffffffffff1673ffffffffffffffffffffffffffffffffffffffff1663771bd4ce826040518263ffffffff1660e01b815260040162000c07919062003a41565b600060405180830381600087803b15801562000c2257600080fd5b505af115801562000c37573d6000803e3d6000fd5b5050505062000c66565b62000c65604051806060016040528060288152602001620053cf602891396200286d565b5b50565b600c602052816000526040600020816008811062000c8657600080fd5b01600091509150505481565b600090565b6000601660009054906101000a900473ffffffffffffffffffffffffffffffffffffffff1673ffffffffffffffffffffffffffffffffffffffff166370a08231306040518263ffffffff1660e01b815260040162000cf6919062003a41565b60206040518083038186803b15801562000d0f57600080fd5b505afa15801562000d24573d6000803e3d6000fd5b505050506040513d601f19601f8201168201806040525081019062000d4a9190620035e8565b9050600080600090505b60098054905081101562000e8557600b60008373ffffffffffffffffffffffffffffffffffffffff1673ffffffffffffffffffffffffffffffffffffffff16815260200190815260200160002054600b60006009848154811062000dbd5762000dbc62004119565b5b9060005260206000200160009054906101000a900473ffffffffffffffffffffffffffffffffffffffff1673ffffffffffffffffffffffffffffffffffffffff1673ffffffffffffffffffffffffffffffffffffffff16815260200190815260200160002054111562000e6f576009818154811062000e415762000e4062004119565b5b9060005260206000200160009054906101000a900473ffffffffffffffffffffffffffffffffffffffff1691505b808062000e7c906200406d565b91505062000d54565b50601660009054906101000a900473ffffffffffffffffffffffffffffffffffffffff1673ffffffffffffffffffffffffffffffffffffffff166323b872dd3330856040518463ffffffff1660e01b815260040162000ee79392919062003a5e565b602060405180830381600087803b15801562000f0257600080fd5b505af115801562000f17573d6000803e3d6000fd5b505050506040513d601f19601f8201168201806040525081019062000f3d9190620033bf565b505050565b600060016000838152602001908152602001600020600101549050919050565b600062000f6e6200290a565b73ffffffffffffffffffffffffffffffffffffffff1662000f8e62001e0b565b73ffffffffffffffffffffffffffffffffffffffff161462000fe7576040517f08c379a000000000000000000000000000000000000000000000000000000000815260040162000fde9062003c44565b60405180910390fd5b60005b825181101562001059576200101c8382815181106200100e576200100d62004119565b5b60200260200101516200109f565b15620010435760016003600082825462001037919062003ee1565b92505081905550600191505b808062001050906200406d565b91505062000fea565b50919050565b600981815481106200107057600080fd5b906000526020600020016000915054906101000a900473ffffffffffffffffffffffffffffffffffffffff1681565b6000620010ab6200290a565b73ffffffffffffffffffffffffffffffffffffffff16620010cb62001e0b565b73ffffffffffffffffffffffffffffffffffffffff161462001124576040517f08c379a00000000000000000000000000000000000000000000000000000000081526004016200111b9062003c44565b60405180910390fd5b600260008373ffffffffffffffffffffffffffffffffffffffff1673ffffffffffffffffffffffffffffffffffffffff16815260200190815260200160002060009054906101000a900460ff161562001229576000600260008473ffffffffffffffffffffffffffffffffffffffff1673ffffffffffffffffffffffffffffffffffffffff16815260200190815260200160002060006101000a81548160ff0219169083151502179055507ff1abf01a1043b7c244d128e8595cf0c1d10743b022b03a02dffd8ca3bf729f5a8260405162001200919062003a41565b60405180910390a16001600360008282546200121d919062003ee1565b92505081905550600190505b919050565b60016005600082825462001243919062003e23565b92505081905550565b620012578262000f42565b6200126c81620012666200290a565b62002912565b620012788383620029ba565b505050565b620012876200290a565b73ffffffffffffffffffffffffffffffffffffffff168173ffffffffffffffffffffffffffffffffffffffff1614620012f7576040517f08c379a0000000000000000000000000000000000000000000000000000000008152600401620012ee9062003caa565b60405180910390fd5b62001303828262002a9f565b5050565b6000601660009054906101000a900473ffffffffffffffffffffffffffffffffffffffff1673ffffffffffffffffffffffffffffffffffffffff166370a08231306040518263ffffffff1660e01b815260040162001366919062003a41565b60206040518083038186803b1580156200137f57600080fd5b505afa15801562001394573d6000803e3d6000fd5b505050506040513d601f19601f82011682018060405250810190620013ba9190620035e8565b905090565b606060068054620013d09062004001565b80601f0160208091040260200160405190810160405280929190818152602001828054620013fe9062004001565b80156200144f5780601f1062001423576101008083540402835291602001916200144f565b820191906000526020600020905b8154815290600101906020018083116200143157829003601f168201915b5050505050905090565b60085481565b60055481565b6000600980549050905090565b600060019054906101000a900460ff166200149c5760008054906101000a900460ff1615620014a7565b620014a662002b86565b5b620014e9576040517f08c379a0000000000000000000000000000000000000000000000000000000008152600401620014e09062003c22565b60405180910390fd5b60008060019054906101000a900460ff1615905080156200153a576001600060016101000a81548160ff02191690831515021790555060016000806101000a81548160ff0219169083151502179055505b896005819055508b8b600691906200155492919062002f15565b5060086007819055506200156c6000801b8762002b99565b6009869080600181540180825580915050600190039060005260206000200160009091909190916101000a81548173ffffffffffffffffffffffffffffffffffffffff021916908373ffffffffffffffffffffffffffffffffffffffff16021790555085600a60006101000a81548173ffffffffffffffffffffffffffffffffffffffff021916908373ffffffffffffffffffffffffffffffffffffffff16021790555088600f8190555087600460006101000a81548160ff0219169083151502179055506000600d60016101000a81548160ff0219169083151502179055506000600d60006101000a81548160ff02191690831515021790555086601360006101000a81548173ffffffffffffffffffffffffffffffffffffffff021916908373ffffffffffffffffffffffffffffffffffffffff16021790555081601560006101000a81548173ffffffffffffffffffffffffffffffffffffffff021916908373ffffffffffffffffffffffffffffffffffffffff160217905550604051620016f79062002fa6565b604051809103906000f08015801562001714573d6000803e3d6000fd5b50601460006101000a81548173ffffffffffffffffffffffffffffffffffffffff021916908373ffffffffffffffffffffffffffffffffffffffff16021790555084601160006101000a81548173ffffffffffffffffffffffffffffffffffffffff021916908373ffffffffffffffffffffffffffffffffffffffff16021790555083601260006101000a81548173ffffffffffffffffffffffffffffffffffffffff021916908373ffffffffffffffffffffffffffffffffffffffff16021790555082601660006101000a81548173ffffffffffffffffffffffffffffffffffffffff021916908373ffffffffffffffffffffffffffffffffffffffff160217905550620018586040518060400160405280601281526020017f50726f787920696e697469616c697a65642100000000000000000000000000008152506200286d565b80156200187a5760008060016101000a81548160ff0219169083151502179055505b505050505050505050505050565b6000601660009054906101000a900473ffffffffffffffffffffffffffffffffffffffff1673ffffffffffffffffffffffffffffffffffffffff166370a08231336040518263ffffffff1660e01b8152600401620018e7919062003a41565b60206040518083038186803b1580156200190057600080fd5b505afa15801562001915573d6000803e3d6000fd5b505050506040513d601f19601f820116820180604052508101906200193b9190620035e8565b905090565b600f5481565b6000600a60009054906101000a900473ffffffffffffffffffffffffffffffffffffffff16905090565b6200197a62002fb4565b600c60003373ffffffffffffffffffffffffffffffffffffffff1673ffffffffffffffffffffffffffffffffffffffff168152602001908152602001600020600880602002604051908101604052809291908260088015620019f2576020028201915b815481526020019060010190808311620019dd575b5050505050905090565b62001a066200290a565b73ffffffffffffffffffffffffffffffffffffffff1662001a2662001e0b565b73ffffffffffffffffffffffffffffffffffffffff161462001a7f576040517f08c379a000000000000000000000000000000000000000000000000000000000815260040162001a769062003c44565b60405180910390fd5b62001a8b600062002ba9565b565b6000600f54905090565b600a60009054906101000a900473ffffffffffffffffffffffffffffffffffffffff1673ffffffffffffffffffffffffffffffffffffffff163373ffffffffffffffffffffffffffffffffffffffff161462001b2a576040517f08c379a000000000000000000000000000000000000000000000000000000000815260040162001b219062003c66565b60405180910390fd5b601460009054906101000a900473ffffffffffffffffffffffffffffffffffffffff1673ffffffffffffffffffffffffffffffffffffffff16637b9417c8826040518263ffffffff1660e01b815260040162001b87919062003a41565b602060405180830381600087803b15801562001ba257600080fd5b505af115801562001bb7573d6000803e3d6000fd5b505050506040513d601f19601f8201168201806040525081019062001bdd9190620033bf565b5050565b600062001bed6200290a565b73ffffffffffffffffffffffffffffffffffffffff1662001c0d62001e0b565b73ffffffffffffffffffffffffffffffffffffffff161462001c66576040517f08c379a000000000000000000000000000000000000000000000000000000000815260040162001c5d9062003c44565b60405180910390fd5b600260008373ffffffffffffffffffffffffffffffffffffffff1673ffffffffffffffffffffffffffffffffffffffff16815260200190815260200160002060009054906101000a900460ff1662001d6a576001600260008473ffffffffffffffffffffffffffffffffffffffff1673ffffffffffffffffffffffffffffffffffffffff16815260200190815260200160002060006101000a81548160ff0219169083151502179055507fd1bba68c128cc3f427e5831b3c6f99f480b6efa6b9e80c757768f6124158cc3f8260405162001d41919062003a41565b60405180910390a160016003600082825462001d5e919062003e23565b92505081905550600190505b919050565b60075481565b6006805462001d849062004001565b80601f016020809104026020016040519081016040528092919081815260200182805462001db29062004001565b801562001e035780601f1062001dd75761010080835404028352916020019162001e03565b820191906000526020600020905b81548152906001019060200180831162001de557829003601f168201915b505050505081565b60008060029054906101000a900473ffffffffffffffffffffffffffffffffffffffff16905090565b60006001600084815260200190815260200160002060000160008373ffffffffffffffffffffffffffffffffffffffff1673ffffffffffffffffffffffffffffffffffffffff16815260200190815260200160002060009054906101000a900460ff16905092915050565b601160009054906101000a900473ffffffffffffffffffffffffffffffffffffffff1681565b6000600980549050600f5462001edc919062003e80565b905090565b60026020528060005260406000206000915054906101000a900460ff1681565b62001f0b6200290a565b73ffffffffffffffffffffffffffffffffffffffff1662001f2b62001e0b565b73ffffffffffffffffffffffffffffffffffffffff161462001f84576040517f08c379a000000000000000000000000000000000000000000000000000000000815260040162001f7b9062003c44565b60405180910390fd5b60005b601060008381526020019081526020016000208054905081101562001fbc57808062001fb3906200406d565b91505062001f87565b5050565b6000801b81565b62001fd16200290a565b73ffffffffffffffffffffffffffffffffffffffff1662001ff162001e0b565b73ffffffffffffffffffffffffffffffffffffffff16146200204a576040517f08c379a0000000000000000000000000000000000000000000000000000000008152600401620020419062003c44565b60405180910390fd5b6000600d60016101000a81548160ff021916908315150217905550565b6060600e60003373ffffffffffffffffffffffffffffffffffffffff1673ffffffffffffffffffffffffffffffffffffffff168152602001908152602001600020805480602002602001604051908101604052809291908181526020018280548015620020f457602002820191906000526020600020905b815481526020019060010190808311620020df575b5050505050905090565b620021086200290a565b73ffffffffffffffffffffffffffffffffffffffff166200212862001e0b565b73ffffffffffffffffffffffffffffffffffffffff161462002181576040517f08c379a0000000000000000000000000000000000000000000000000000000008152600401620021789062003c44565b60405180910390fd5b6001600d60016101000a81548160ff021916908315150217905550565b600260003373ffffffffffffffffffffffffffffffffffffffff1673ffffffffffffffffffffffffffffffffffffffff16815260200190815260200160002060009054906101000a900460ff1680620022035750600460009054906101000a900460ff165b6200220d57600080fd5b600d60009054906101000a900460ff161562002260576040517f08c379a0000000000000000000000000000000000000000000000000000000008152600401620022579062003c88565b60405180910390fd5b6009339080600181540180825580915050600190039060005260206000200160009091909190916101000a81548173ffffffffffffffffffffffffffffffffffffffff021916908373ffffffffffffffffffffffffffffffffffffffff160217905550601660009054906101000a900473ffffffffffffffffffffffffffffffffffffffff1673ffffffffffffffffffffffffffffffffffffffff166323b872dd3330600f546040518463ffffffff1660e01b8152600401620023269392919062003a5e565b602060405180830381600087803b1580156200234157600080fd5b505af115801562002356573d6000803e3d6000fd5b505050506040513d601f19601f820116820180604052508101906200237c9190620033bf565b507f9e71bc8eea02a63969f509818f2dafb9254532904319f9dbda79b67bd34a5f3d33600f54604051620023b292919062003a9b565b60405180910390a1565b6000601660009054906101000a900473ffffffffffffffffffffffffffffffffffffffff16905090565b620023f18262000f42565b6200240681620024006200290a565b62002912565b62002412838362002a9f565b505050565b600460009054906101000a900460ff1681565b6000620024366200290a565b73ffffffffffffffffffffffffffffffffffffffff166200245662001e0b565b73ffffffffffffffffffffffffffffffffffffffff1614620024af576040517f08c379a0000000000000000000000000000000000000000000000000000000008152600401620024a69062003c44565b60405180910390fd5b60005b82518110156200252157620024e4838281518110620024d657620024d562004119565b5b602002602001015162001be1565b156200250b57600160036000828254620024ff919062003e23565b92505081905550600191505b808062002518906200406d565b915050620024b2565b50919050565b620025316200290a565b73ffffffffffffffffffffffffffffffffffffffff166200255162001e0b565b73ffffffffffffffffffffffffffffffffffffffff1614620025aa576040517f08c379a0000000000000000000000000000000000000000000000000000000008152600401620025a19062003c44565b60405180910390fd5b6001600d60006101000a81548160ff021916908315150217905550565b620025d16200290a565b73ffffffffffffffffffffffffffffffffffffffff16620025f162001e0b565b73ffffffffffffffffffffffffffffffffffffffff16146200264a576040517f08c379a0000000000000000000000000000000000000000000000000000000008152600401620026419062003c44565b60405180910390fd5b600073ffffffffffffffffffffffffffffffffffffffff168173ffffffffffffffffffffffffffffffffffffffff161415620026bd576040517f08c379a0000000000000000000000000000000000000000000000000000000008152600401620026b49062003bde565b60405180910390fd5b620026c88162002ba9565b50565b600d60019054906101000a900460ff16156200271e576040517f08c379a0000000000000000000000000000000000000000000000000000000008152600401620027159062003c00565b60405180910390fd5b80600e60003373ffffffffffffffffffffffffffffffffffffffff1673ffffffffffffffffffffffffffffffffffffffff16815260200190815260200160002090805190602001906200277392919062002fd7565b5050565b6200278162002fb4565b600c60003373ffffffffffffffffffffffffffffffffffffffff1673ffffffffffffffffffffffffffffffffffffffff168152602001908152602001600020600880602002604051908101604052809291908260088015620027f9576020028201915b815481526020019060010190808311620027e4575b5050505050905090565b60007f01ffc9a7000000000000000000000000000000000000000000000000000000007bffffffffffffffffffffffffffffffffffffffffffffffffffffffff1916827bffffffffffffffffffffffffffffffffffffffffffffffffffffffff1916149050919050565b620029078160405160240162002884919062003b98565b6040516020818303038152906040527f41304fac000000000000000000000000000000000000000000000000000000007bffffffffffffffffffffffffffffffffffffffffffffffffffffffff19166020820180517bffffffffffffffffffffffffffffffffffffffffffffffffffffffff838183161783525050505062002c6e565b50565b600033905090565b6200291e828262001e34565b620029b657620029468173ffffffffffffffffffffffffffffffffffffffff16601462002c97565b620029568360001c602062002c97565b60405160200162002969929190620039ff565b6040516020818303038152906040526040517f08c379a0000000000000000000000000000000000000000000000000000000008152600401620029ad919062003b98565b60405180910390fd5b5050565b620029c6828262001e34565b62002a9b57600180600084815260200190815260200160002060000160008373ffffffffffffffffffffffffffffffffffffffff1673ffffffffffffffffffffffffffffffffffffffff16815260200190815260200160002060006101000a81548160ff02191690831515021790555062002a406200290a565b73ffffffffffffffffffffffffffffffffffffffff168173ffffffffffffffffffffffffffffffffffffffff16837f2f8788117e7eff1d82e926ec794901d17c78024a50270940304540a733656f0d60405160405180910390a45b5050565b62002aab828262001e34565b1562002b825760006001600084815260200190815260200160002060000160008373ffffffffffffffffffffffffffffffffffffffff1673ffffffffffffffffffffffffffffffffffffffff16815260200190815260200160002060006101000a81548160ff02191690831515021790555062002b276200290a565b73ffffffffffffffffffffffffffffffffffffffff168173ffffffffffffffffffffffffffffffffffffffff16837ff6391f5c32d9c69d2a47ea670b442974b53935d1edc7fd64eb21e047a839171b60405160405180910390a45b5050565b600062002b933062002ef2565b15905090565b62002ba58282620029ba565b5050565b60008060029054906101000a900473ffffffffffffffffffffffffffffffffffffffff16905081600060026101000a81548173ffffffffffffffffffffffffffffffffffffffff021916908373ffffffffffffffffffffffffffffffffffffffff1602179055508173ffffffffffffffffffffffffffffffffffffffff168173ffffffffffffffffffffffffffffffffffffffff167f8be0079c531659141344cd1fd0a4f28419497f9722a3daafe3b4186f6b6457e060405160405180910390a35050565b60008151905060006a636f6e736f6c652e6c6f679050602083016000808483855afa5050505050565b60606000600283600262002cac919062003e80565b62002cb8919062003e23565b67ffffffffffffffff81111562002cd45762002cd362004148565b5b6040519080825280601f01601f19166020018201604052801562002d075781602001600182028036833780820191505090505b5090507f30000000000000000000000000000000000000000000000000000000000000008160008151811062002d425762002d4162004119565b5b60200101907effffffffffffffffffffffffffffffffffffffffffffffffffffffffffffff1916908160001a9053507f78000000000000000000000000000000000000000000000000000000000000008160018151811062002da95762002da862004119565b5b60200101907effffffffffffffffffffffffffffffffffffffffffffffffffffffffffffff1916908160001a9053506000600184600262002deb919062003e80565b62002df7919062003e23565b90505b600181111562002ea1577f3031323334353637383961626364656600000000000000000000000000000000600f86166010811062002e3d5762002e3c62004119565b5b1a60f81b82828151811062002e575762002e5662004119565b5b60200101907effffffffffffffffffffffffffffffffffffffffffffffffffffffffffffff1916908160001a905350600485901c94508062002e999062003fd2565b905062002dfa565b506000841462002ee8576040517f08c379a000000000000000000000000000000000000000000000000000000000815260040162002edf9062003bbc565b60405180910390fd5b8091505092915050565b6000808273ffffffffffffffffffffffffffffffffffffffff163b119050919050565b82805462002f239062004001565b90600052602060002090601f01602090048101928262002f47576000855562002f93565b82601f1062002f6257803560ff191683800117855562002f93565b8280016001018555821562002f93579182015b8281111562002f9257823582559160200191906001019062002f75565b5b50905062002fa2919062003029565b5090565b610f9f806200443083390190565b604051806101000160405280600890602082028036833780820191505090505090565b82805482825590600052602060002090810192821562003016579160200282015b828111156200301557825182559160200191906001019062002ff8565b5b50905062003025919062003029565b5090565b5b80821115620030445760008160009055506001016200302a565b5090565b60006200305f620030598462003d12565b62003ce9565b9050808382526020820190508285602086028201111562003085576200308462004181565b5b60005b85811015620030b957816200309e88826200313e565b84526020840193506020830192505060018101905062003088565b5050509392505050565b6000620030da620030d48462003d41565b62003ce9565b905080838252602082019050828560208602820111156200310057620030ff62004181565b5b60005b8581101562003134578162003119888262003276565b84526020840193506020830192505060018101905062003103565b5050509392505050565b6000813590506200314f81620043ad565b92915050565b600082601f8301126200316d576200316c6200417c565b5b81356200317f84826020860162003048565b91505092915050565b600082601f830112620031a0576200319f6200417c565b5b8135620031b2848260208601620030c3565b91505092915050565b600081359050620031cc81620043c7565b92915050565b600081519050620031e381620043c7565b92915050565b600081359050620031fa81620043e1565b92915050565b6000813590506200321181620043fb565b92915050565b60008083601f84011262003230576200322f6200417c565b5b8235905067ffffffffffffffff81111562003250576200324f62004177565b5b6020830191508360018202830111156200326f576200326e62004181565b5b9250929050565b600081359050620032878162004415565b92915050565b6000815190506200329e8162004415565b92915050565b600060208284031215620032bd57620032bc6200418b565b5b6000620032cd848285016200313e565b91505092915050565b60008060408385031215620032f057620032ef6200418b565b5b600062003300858286016200313e565b9250506020620033138582860162003276565b9150509250929050565b6000602082840312156200333657620033356200418b565b5b600082013567ffffffffffffffff81111562003357576200335662004186565b5b620033658482850162003155565b91505092915050565b6000602082840312156200338757620033866200418b565b5b600082013567ffffffffffffffff811115620033a857620033a762004186565b5b620033b68482850162003188565b91505092915050565b600060208284031215620033d857620033d76200418b565b5b6000620033e884828501620031d2565b91505092915050565b6000602082840312156200340a57620034096200418b565b5b60006200341a84828501620031e9565b91505092915050565b600080604083850312156200343d576200343c6200418b565b5b60006200344d85828601620031e9565b925050602062003460858286016200313e565b9150509250929050565b6000602082840312156200348357620034826200418b565b5b6000620034938482850162003200565b91505092915050565b60008060008060008060008060008060006101408c8e031215620034c557620034c46200418b565b5b60008c013567ffffffffffffffff811115620034e657620034e562004186565b5b620034f48e828f0162003217565b9b509b50506020620035098e828f0162003276565b99505060406200351c8e828f0162003276565b98505060606200352f8e828f01620031bb565b9750506080620035428e828f016200313e565b96505060a0620035558e828f016200313e565b95505060c0620035688e828f016200313e565b94505060e06200357b8e828f016200313e565b9350506101006200358f8e828f016200313e565b925050610120620035a38e828f016200313e565b9150509295989b509295989b9093969950565b600060208284031215620035cf57620035ce6200418b565b5b6000620035df8482850162003276565b91505092915050565b6000602082840312156200360157620036006200418b565b5b600062003611848285016200328d565b91505092915050565b6000620036288383620039cc565b60208301905092915050565b6200363f8162003f1c565b82525050565b8082525050565b620036578162003d9f565b62003663818462003dda565b9250620036708262003d70565b8060005b83811015620036a75781516200368b87826200361a565b9650620036988362003dc0565b92505060018101905062003674565b505050505050565b6000620036bc8262003daa565b620036c8818562003de5565b9350620036d58362003d7a565b8060005b838110156200370c578151620036f088826200361a565b9750620036fd8362003dcd565b925050600181019050620036d9565b5085935050505092915050565b620037248162003f30565b82525050565b620037358162003f3c565b82525050565b8082525050565b60006200374f8262003db5565b6200375b818562003df6565b93506200376d81856020860162003f9c565b620037788162004190565b840191505092915050565b6000620037908262003db5565b6200379c818562003e18565b9350620037ae81856020860162003f9c565b80840191505092915050565b60008154620037c98162004001565b620037d5818662003e07565b94506001821660008114620037f3576001811462003806576200383d565b60ff19831686526020860193506200383d565b620038118562003d8a565b60005b83811015620038355781548189015260018201915060208101905062003814565b808801955050505b50505092915050565b60006200385560208362003df6565b91506200386282620041a1565b602082019050919050565b60006200387c60268362003df6565b91506200388982620041ca565b604082019050919050565b6000620038a3601e8362003df6565b9150620038b08262004219565b602082019050919050565b6000620038ca602e8362003df6565b9150620038d78262004242565b604082019050919050565b6000620038f160208362003df6565b9150620038fe8262004291565b602082019050919050565b60006200391860178362003df6565b91506200392582620042ba565b602082019050919050565b60006200393f60178362003e18565b91506200394c82620042e3565b601782019050919050565b60006200396660178362003df6565b915062003973826200430c565b602082019050919050565b60006200398d60118362003e18565b91506200399a8262004335565b601182019050919050565b6000620039b4602f8362003df6565b9150620039c1826200435e565b604082019050919050565b620039d78162003f92565b82525050565b620039e88162003f92565b82525050565b620039f98162003f92565b82525050565b600062003a0c8262003930565b915062003a1a828562003783565b915062003a27826200397e565b915062003a35828462003783565b91508190509392505050565b600060208201905062003a58600083018462003634565b92915050565b600060608201905062003a75600083018662003634565b62003a84602083018562003634565b62003a936040830184620039dd565b949350505050565b600060408201905062003ab2600083018562003634565b62003ac16020830184620039dd565b9392505050565b60006101008201905062003ae060008301846200364c565b92915050565b6000602082019050818103600083015262003b028184620036af565b905092915050565b600060208201905062003b21600083018462003719565b92915050565b600060208201905062003b3e60008301846200372a565b92915050565b600060808201905062003b5b60008301876200373b565b62003b6a602083018662003645565b62003b796040830185620039ee565b818103606083015262003b8d8184620037ba565b905095945050505050565b6000602082019050818103600083015262003bb4818462003742565b905092915050565b6000602082019050818103600083015262003bd78162003846565b9050919050565b6000602082019050818103600083015262003bf9816200386d565b9050919050565b6000602082019050818103600083015262003c1b8162003894565b9050919050565b6000602082019050818103600083015262003c3d81620038bb565b9050919050565b6000602082019050818103600083015262003c5f81620038e2565b9050919050565b6000602082019050818103600083015262003c818162003909565b9050919050565b6000602082019050818103600083015262003ca38162003957565b9050919050565b6000602082019050818103600083015262003cc581620039a5565b9050919050565b600060208201905062003ce36000830184620039dd565b92915050565b600062003cf562003d08565b905062003d03828262004037565b919050565b6000604051905090565b600067ffffffffffffffff82111562003d305762003d2f62004148565b5b602082029050602081019050919050565b600067ffffffffffffffff82111562003d5f5762003d5e62004148565b5b602082029050602081019050919050565b6000819050919050565b6000819050602082019050919050565b60008190508160005260206000209050919050565b600060089050919050565b600081519050919050565b600081519050919050565b6000602082019050919050565b6000602082019050919050565b600081905092915050565b600082825260208201905092915050565b600082825260208201905092915050565b600082825260208201905092915050565b600081905092915050565b600062003e308262003f92565b915062003e3d8362003f92565b9250827fffffffffffffffffffffffffffffffffffffffffffffffffffffffffffffffff0382111562003e755762003e74620040bb565b5b828201905092915050565b600062003e8d8262003f92565b915062003e9a8362003f92565b9250817fffffffffffffffffffffffffffffffffffffffffffffffffffffffffffffffff048311821515161562003ed65762003ed5620040bb565b5b828202905092915050565b600062003eee8262003f92565b915062003efb8362003f92565b92508282101562003f115762003f10620040bb565b5b828203905092915050565b600062003f298262003f72565b9050919050565b60008115159050919050565b6000819050919050565b60007fffffffff0000000000000000000000000000000000000000000000000000000082169050919050565b600073ffffffffffffffffffffffffffffffffffffffff82169050919050565b6000819050919050565b60005b8381101562003fbc57808201518184015260208101905062003f9f565b8381111562003fcc576000848401525b50505050565b600062003fdf8262003f92565b9150600082141562003ff65762003ff5620040bb565b5b600182039050919050565b600060028204905060018216806200401a57607f821691505b60208210811415620040315762004030620040ea565b5b50919050565b620040428262004190565b810181811067ffffffffffffffff8211171562004064576200406362004148565b5b80604052505050565b60006200407a8262003f92565b91507fffffffffffffffffffffffffffffffffffffffffffffffffffffffffffffffff821415620040b057620040af620040bb565b5b600182019050919050565b7f4e487b7100000000000000000000000000000000000000000000000000000000600052601160045260246000fd5b7f4e487b7100000000000000000000000000000000000000000000000000000000600052602260045260246000fd5b7f4e487b7100000000000000000000000000000000000000000000000000000000600052603260045260246000fd5b7f4e487b7100000000000000000000000000000000000000000000000000000000600052604160045260246000fd5b600080fd5b600080fd5b600080fd5b600080fd5b600080fd5b6000601f19601f8301169050919050565b7f537472696e67733a20686578206c656e67746820696e73756666696369656e74600082015250565b7f4f776e61626c653a206e6577206f776e657220697320746865207a65726f206160008201527f6464726573730000000000000000000000000000000000000000000000000000602082015250565b7f6c696e657570206973206c6f636b656420666f7220746865207765656b210000600082015250565b7f496e697469616c697a61626c653a20636f6e747261637420697320616c72656160008201527f647920696e697469616c697a6564000000000000000000000000000000000000602082015250565b7f4f776e61626c653a2063616c6c6572206973206e6f7420746865206f776e6572600082015250565b7f43616c6c6572206973206e6f74207468652061646d696e000000000000000000600082015250565b7f416363657373436f6e74726f6c3a206163636f756e7420000000000000000000600082015250565b7f4c656167756520456e74727920697320436c6f73656421000000000000000000600082015250565b7f206973206d697373696e6720726f6c6520000000000000000000000000000000600082015250565b7f416363657373436f6e74726f6c3a2063616e206f6e6c792072656e6f756e636560008201527f20726f6c657320666f722073656c660000000000000000000000000000000000602082015250565b620043b88162003f1c565b8114620043c457600080fd5b50565b620043d28162003f30565b8114620043de57600080fd5b50565b620043ec8162003f3c565b8114620043f857600080fd5b50565b620044068162003f46565b81146200441257600080fd5b50565b620044208162003f92565b81146200442c57600080fd5b5056fe608060405234801561001057600080fd5b5061002d61002261003260201b60201c565b61003a60201b60201c565b6100fe565b600033905090565b60008060009054906101000a900473ffffffffffffffffffffffffffffffffffffffff169050816000806101000a81548173ffffffffffffffffffffffffffffffffffffffff021916908373ffffffffffffffffffffffffffffffffffffffff1602179055508173ffffffffffffffffffffffffffffffffffffffff168173ffffffffffffffffffffffffffffffffffffffff167f8be0079c531659141344cd1fd0a4f28419497f9722a3daafe3b4186f6b6457e060405160405180910390a35050565b610e928061010d6000396000f3fe608060405234801561001057600080fd5b50600436106100935760003560e01c80638da5cb5b116100665780638da5cb5b146101325780639b19251a14610150578063dc9a153514610180578063e2ec6ec31461019e578063f2fde38b146101ce57610093565b806324953eaa14610098578063286dd3f5146100c8578063715018a6146100f85780637b9417c814610102575b600080fd5b6100b260048036038101906100ad9190610a4a565b6101ea565b6040516100bf9190610b12565b60405180910390f35b6100e260048036038101906100dd9190610a1d565b6102d4565b6040516100ef9190610b12565b60405180910390f35b610100610457565b005b61011c60048036038101906101179190610a1d565b6104df565b6040516101299190610b12565b60405180910390f35b61013a610660565b6040516101479190610af7565b60405180910390f35b61016a60048036038101906101659190610a1d565b610689565b6040516101779190610b12565b60405180910390f35b6101886106a9565b6040516101959190610b12565b60405180910390f35b6101b860048036038101906101b39190610a4a565b6106bc565b6040516101c59190610b12565b60405180910390f35b6101e860048036038101906101e39190610a1d565b6107a6565b005b60006101f461089e565b73ffffffffffffffffffffffffffffffffffffffff16610212610660565b73ffffffffffffffffffffffffffffffffffffffff1614610268576040517f08c379a000000000000000000000000000000000000000000000000000000000815260040161025f90610b4d565b60405180910390fd5b60005b82518110156102ce5761029783828151811061028a57610289610d4a565b5b60200260200101516102d4565b156102bb576001600260008282546102af9190610c25565b92505081905550600191505b80806102c690610cd2565b91505061026b565b50919050565b60006102de61089e565b73ffffffffffffffffffffffffffffffffffffffff166102fc610660565b73ffffffffffffffffffffffffffffffffffffffff1614610352576040517f08c379a000000000000000000000000000000000000000000000000000000000815260040161034990610b4d565b60405180910390fd5b600160008373ffffffffffffffffffffffffffffffffffffffff1673ffffffffffffffffffffffffffffffffffffffff16815260200190815260200160002060009054906101000a900460ff1615610452576000600160008473ffffffffffffffffffffffffffffffffffffffff1673ffffffffffffffffffffffffffffffffffffffff16815260200190815260200160002060006101000a81548160ff0219169083151502179055507ff1abf01a1043b7c244d128e8595cf0c1d10743b022b03a02dffd8ca3bf729f5a8260405161042b9190610af7565b60405180910390a16001600260008282546104469190610c25565b92505081905550600190505b919050565b61045f61089e565b73ffffffffffffffffffffffffffffffffffffffff1661047d610660565b73ffffffffffffffffffffffffffffffffffffffff16146104d3576040517f08c379a00000000000000000000000000000000000000000000000000000000081526004016104ca90610b4d565b60405180910390fd5b6104dd60006108a6565b565b60006104e961089e565b73ffffffffffffffffffffffffffffffffffffffff16610507610660565b73ffffffffffffffffffffffffffffffffffffffff161461055d576040517f08c379a000000000000000000000000000000000000000000000000000000000815260040161055490610b4d565b60405180910390fd5b600160008373ffffffffffffffffffffffffffffffffffffffff1673ffffffffffffffffffffffffffffffffffffffff16815260200190815260200160002060009054906101000a900460ff1661065b5760018060008473ffffffffffffffffffffffffffffffffffffffff1673ffffffffffffffffffffffffffffffffffffffff16815260200190815260200160002060006101000a81548160ff0219169083151502179055507fd1bba68c128cc3f427e5831b3c6f99f480b6efa6b9e80c757768f6124158cc3f826040516106349190610af7565b60405180910390a160016002600082825461064f9190610bcf565b92505081905550600190505b919050565b60008060009054906101000a900473ffffffffffffffffffffffffffffffffffffffff16905090565b60016020528060005260406000206000915054906101000a900460ff1681565b600360009054906101000a900460ff1681565b60006106c661089e565b73ffffffffffffffffffffffffffffffffffffffff166106e4610660565b73ffffffffffffffffffffffffffffffffffffffff161461073a576040517f08c379a000000000000000000000000000000000000000000000000000000000815260040161073190610b4d565b60405180910390fd5b60005b82518110156107a05761076983828151811061075c5761075b610d4a565b5b60200260200101516104df565b1561078d576001600260008282546107819190610bcf565b92505081905550600191505b808061079890610cd2565b91505061073d565b50919050565b6107ae61089e565b73ffffffffffffffffffffffffffffffffffffffff166107cc610660565b73ffffffffffffffffffffffffffffffffffffffff1614610822576040517f08c379a000000000000000000000000000000000000000000000000000000000815260040161081990610b4d565b60405180910390fd5b600073ffffffffffffffffffffffffffffffffffffffff168173ffffffffffffffffffffffffffffffffffffffff161415610892576040517f08c379a000000000000000000000000000000000000000000000000000000000815260040161088990610b2d565b60405180910390fd5b61089b816108a6565b50565b600033905090565b60008060009054906101000a900473ffffffffffffffffffffffffffffffffffffffff169050816000806101000a81548173ffffffffffffffffffffffffffffffffffffffff021916908373ffffffffffffffffffffffffffffffffffffffff1602179055508173ffffffffffffffffffffffffffffffffffffffff168173ffffffffffffffffffffffffffffffffffffffff167f8be0079c531659141344cd1fd0a4f28419497f9722a3daafe3b4186f6b6457e060405160405180910390a35050565b600061097d61097884610b92565b610b6d565b905080838252602082019050828560208602820111156109a05761099f610dad565b5b60005b858110156109d057816109b688826109da565b8452602084019350602083019250506001810190506109a3565b5050509392505050565b6000813590506109e981610e45565b92915050565b600082601f830112610a0457610a03610da8565b5b8135610a1484826020860161096a565b91505092915050565b600060208284031215610a3357610a32610db7565b5b6000610a41848285016109da565b91505092915050565b600060208284031215610a6057610a5f610db7565b5b600082013567ffffffffffffffff811115610a7e57610a7d610db2565b5b610a8a848285016109ef565b91505092915050565b610a9c81610c59565b82525050565b610aab81610c6b565b82525050565b6000610abe602683610bbe565b9150610ac982610dcd565b604082019050919050565b6000610ae1602083610bbe565b9150610aec82610e1c565b602082019050919050565b6000602082019050610b0c6000830184610a93565b92915050565b6000602082019050610b276000830184610aa2565b92915050565b60006020820190508181036000830152610b4681610ab1565b9050919050565b60006020820190508181036000830152610b6681610ad4565b9050919050565b6000610b77610b88565b9050610b838282610ca1565b919050565b6000604051905090565b600067ffffffffffffffff821115610bad57610bac610d79565b5b602082029050602081019050919050565b600082825260208201905092915050565b6000610bda82610c97565b9150610be583610c97565b9250827fffffffffffffffffffffffffffffffffffffffffffffffffffffffffffffffff03821115610c1a57610c19610d1b565b5b828201905092915050565b6000610c3082610c97565b9150610c3b83610c97565b925082821015610c4e57610c4d610d1b565b5b828203905092915050565b6000610c6482610c77565b9050919050565b60008115159050919050565b600073ffffffffffffffffffffffffffffffffffffffff82169050919050565b6000819050919050565b610caa82610dbc565b810181811067ffffffffffffffff82111715610cc957610cc8610d79565b5b80604052505050565b6000610cdd82610c97565b91507fffffffffffffffffffffffffffffffffffffffffffffffffffffffffffffffff821415610d1057610d0f610d1b565b5b600182019050919050565b7f4e487b7100000000000000000000000000000000000000000000000000000000600052601160045260246000fd5b7f4e487b7100000000000000000000000000000000000000000000000000000000600052603260045260246000fd5b7f4e487b7100000000000000000000000000000000000000000000000000000000600052604160045260246000fd5b600080fd5b600080fd5b600080fd5b600080fd5b6000601f19601f8301169050919050565b7f4f776e61626c653a206e6577206f776e657220697320746865207a65726f206160008201527f6464726573730000000000000000000000000000000000000000000000000000602082015250565b7f4f776e61626c653a2063616c6c6572206973206e6f7420746865206f776e6572600082015250565b610e4e81610c59565b8114610e5957600080fd5b5056fea2646970667358221220a21085165a95bba102b3fe59880e17f3027964706b8a63561e6b8ccd43ba90fb64736f6c63430008070033746f6f206d616e7920757365727320696e206c656167756520746f20616464206e65772075736572a26469706673582212200d362c364c673412ef78e4254c95b236b7254373f25328d16a6e977d76b3a87a64736f6c63430008070033",
  "linkReferences": {
    "contracts/MOBALogicLibrary.sol": {
      "MOBALogicLibrary": [
        {
          "length": 20,
          "start": 2948
        }
      ]
    }
  },
  "deployedLinkReferences": {
    "contracts/MOBALogicLibrary.sol": {
      "MOBALogicLibrary": [
        {
          "length": 20,
          "start": 2671
        }
      ]
    }
  }
}