{
  "_format": "hh-sol-artifact-1",
  "contractName": "LeagueOfLegendsLogic",
  "sourceName": "contracts/LeagueOfLegendsLogic.sol",
  "abi": [
    {
      "anonymous": false,
      "inputs": [
        {
          "indexed": true,
          "internalType": "address",
          "name": "previousOwner",
          "type": "address"
        },
        {
          "indexed": true,
          "internalType": "address",
          "name": "newOwner",
          "type": "address"
        }
      ],
      "name": "OwnershipTransferred",
      "type": "event"
    },
    {
      "anonymous": false,
      "inputs": [
        {
          "indexed": false,
          "internalType": "address",
          "name": "sender",
          "type": "address"
        },
        {
          "indexed": false,
          "internalType": "uint256",
          "name": "amount",
          "type": "uint256"
        }
      ],
      "name": "Staked",
      "type": "event"
    },
    {
      "anonymous": false,
      "inputs": [
        {
          "indexed": false,
          "internalType": "address",
          "name": "addr",
          "type": "address"
        }
      ],
      "name": "WhitelistedAddressAdded",
      "type": "event"
    },
    {
      "anonymous": false,
      "inputs": [
        {
          "indexed": false,
          "internalType": "address",
          "name": "addr",
          "type": "address"
        }
      ],
      "name": "WhitelistedAddressRemoved",
      "type": "event"
    },
    {
      "anonymous": false,
      "inputs": [
        {
          "indexed": false,
          "internalType": "address",
          "name": "sender",
          "type": "address"
        },
        {
          "indexed": false,
          "internalType": "address",
          "name": "contractAddress",
          "type": "address"
        }
      ],
      "name": "testUSDCDeployed",
      "type": "event"
    },
    {
      "inputs": [
        {
          "internalType": "address",
          "name": "addr",
          "type": "address"
        }
      ],
      "name": "addAddressToWhitelist",
      "outputs": [
        {
          "internalType": "bool",
          "name": "success",
          "type": "bool"
        }
      ],
      "stateMutability": "nonpayable",
      "type": "function"
    },
    {
      "inputs": [
        {
          "internalType": "address[]",
          "name": "addrs",
          "type": "address[]"
        }
      ],
      "name": "addAddressesToWhitelist",
      "outputs": [
        {
          "internalType": "bool",
          "name": "success",
          "type": "bool"
        }
      ],
      "stateMutability": "nonpayable",
      "type": "function"
    },
    {
      "inputs": [
        {
          "internalType": "address",
          "name": "_userToAdd",
          "type": "address"
        }
      ],
      "name": "addUserToWhitelist",
      "outputs": [],
      "stateMutability": "nonpayable",
      "type": "function"
    },
    {
      "inputs": [],
      "name": "currentWeekNum",
      "outputs": [
        {
          "internalType": "uint256",
          "name": "",
          "type": "uint256"
        }
      ],
      "stateMutability": "view",
      "type": "function"
    },
    {
      "inputs": [
        {
          "internalType": "address",
          "name": "addr1",
          "type": "address"
        },
        {
          "internalType": "address",
          "name": "addr2",
          "type": "address"
        }
      ],
      "name": "evaluateMatch",
      "outputs": [
        {
          "internalType": "address",
          "name": "",
          "type": "address"
        }
      ],
      "stateMutability": "nonpayable",
      "type": "function"
    },
    {
      "inputs": [],
      "name": "evaluateWeek",
      "outputs": [],
      "stateMutability": "nonpayable",
      "type": "function"
    },
    {
      "inputs": [],
      "name": "getAdmin",
      "outputs": [
        {
          "internalType": "address",
          "name": "",
          "type": "address"
        }
      ],
      "stateMutability": "view",
      "type": "function"
    },
    {
      "inputs": [],
      "name": "getAthleteContractAddress",
      "outputs": [
        {
          "internalType": "address",
          "name": "",
          "type": "address"
        }
      ],
      "stateMutability": "view",
      "type": "function"
    },
    {
      "inputs": [],
      "name": "getCurrentWeekNum",
      "outputs": [
        {
          "internalType": "uint256",
          "name": "",
          "type": "uint256"
        }
      ],
      "stateMutability": "view",
      "type": "function"
    },
    {
      "inputs": [],
      "name": "getLeagueName",
      "outputs": [
        {
          "internalType": "string",
          "name": "",
          "type": "string"
        }
      ],
      "stateMutability": "view",
      "type": "function"
    },
    {
      "inputs": [],
      "name": "getLineup",
      "outputs": [
        {
          "internalType": "uint256[]",
          "name": "",
          "type": "uint256[]"
        }
      ],
      "stateMutability": "view",
      "type": "function"
    },
    {
      "inputs": [],
      "name": "getStakeAmount",
      "outputs": [
        {
          "internalType": "uint256",
          "name": "",
          "type": "uint256"
        }
      ],
      "stateMutability": "view",
      "type": "function"
    },
    {
      "inputs": [],
      "name": "getTestUSDCAddress",
      "outputs": [
        {
          "internalType": "address",
          "name": "",
          "type": "address"
        }
      ],
      "stateMutability": "view",
      "type": "function"
    },
    {
      "inputs": [],
      "name": "getTotalPrizePot",
      "outputs": [
        {
          "internalType": "uint256",
          "name": "",
          "type": "uint256"
        }
      ],
      "stateMutability": "view",
      "type": "function"
    },
    {
      "inputs": [],
      "name": "getUSDCBalance",
      "outputs": [
        {
          "internalType": "uint256",
          "name": "",
          "type": "uint256"
        }
      ],
      "stateMutability": "view",
      "type": "function"
    },
    {
      "inputs": [],
      "name": "getUserRecord",
      "outputs": [
        {
          "internalType": "uint256[8]",
          "name": "",
          "type": "uint256[8]"
        }
      ],
      "stateMutability": "view",
      "type": "function"
    },
    {
      "inputs": [],
      "name": "getUserTotalPts",
      "outputs": [
        {
          "internalType": "uint256",
          "name": "",
          "type": "uint256"
        }
      ],
      "stateMutability": "view",
      "type": "function"
    },
    {
      "inputs": [],
      "name": "getUserUSDCBalance",
      "outputs": [
        {
          "internalType": "uint256",
          "name": "",
          "type": "uint256"
        }
      ],
      "stateMutability": "view",
      "type": "function"
    },
    {
      "inputs": [],
      "name": "getUsersLength",
      "outputs": [
        {
          "internalType": "uint256",
          "name": "",
          "type": "uint256"
        }
      ],
      "stateMutability": "view",
      "type": "function"
    },
    {
      "inputs": [],
      "name": "getVersion",
      "outputs": [
        {
          "internalType": "uint256",
          "name": "version",
          "type": "uint256"
        }
      ],
      "stateMutability": "pure",
      "type": "function"
    },
    {
      "inputs": [
        {
          "internalType": "string",
          "name": "_name",
          "type": "string"
        },
        {
          "internalType": "uint256",
          "name": "_numWeeks",
          "type": "uint256"
        },
        {
          "internalType": "uint256",
          "name": "_stakeAmount",
          "type": "uint256"
        },
        {
          "internalType": "bool",
          "name": "_isPublic",
          "type": "bool"
        },
        {
          "internalType": "address",
          "name": "athletesDataStorageAddress",
          "type": "address"
        },
        {
          "internalType": "address",
          "name": "_admin",
          "type": "address"
        },
        {
          "internalType": "address",
          "name": "_polygonUSDCAddress",
          "type": "address"
        },
        {
          "internalType": "address",
          "name": "_rinkebyUSDCAddress",
          "type": "address"
        },
        {
          "internalType": "address",
          "name": "_testUSDCAddress",
          "type": "address"
        },
        {
          "internalType": "address",
          "name": "leagueMakerContractAddress",
          "type": "address"
        }
      ],
      "name": "initialize",
      "outputs": [],
      "stateMutability": "nonpayable",
      "type": "function"
    },
    {
      "inputs": [],
      "name": "isPublic",
      "outputs": [
        {
          "internalType": "bool",
          "name": "",
          "type": "bool"
        }
      ],
      "stateMutability": "view",
      "type": "function"
    },
    {
      "inputs": [],
      "name": "joinLeague",
      "outputs": [],
      "stateMutability": "nonpayable",
      "type": "function"
    },
    {
      "inputs": [
        {
          "internalType": "uint256",
          "name": "",
          "type": "uint256"
        }
      ],
      "name": "leagueMembers",
      "outputs": [
        {
          "internalType": "address",
          "name": "",
          "type": "address"
        }
      ],
      "stateMutability": "view",
      "type": "function"
    },
    {
      "inputs": [],
      "name": "leagueName",
      "outputs": [
        {
          "internalType": "string",
          "name": "",
          "type": "string"
        }
      ],
      "stateMutability": "view",
      "type": "function"
    },
    {
      "inputs": [],
      "name": "lockLineup",
      "outputs": [],
      "stateMutability": "nonpayable",
      "type": "function"
    },
    {
      "inputs": [],
      "name": "numWeeks",
      "outputs": [
        {
          "internalType": "uint256",
          "name": "",
          "type": "uint256"
        }
      ],
      "stateMutability": "view",
      "type": "function"
    },
    {
      "inputs": [],
      "name": "onLeagueEnd",
      "outputs": [],
      "stateMutability": "nonpayable",
      "type": "function"
    },
    {
      "inputs": [],
      "name": "owner",
      "outputs": [
        {
          "internalType": "address",
          "name": "",
          "type": "address"
        }
      ],
      "stateMutability": "view",
      "type": "function"
    },
    {
      "inputs": [],
      "name": "polygonUSDCAddress",
      "outputs": [
        {
          "internalType": "address",
          "name": "",
          "type": "address"
        }
      ],
      "stateMutability": "view",
      "type": "function"
    },
    {
      "inputs": [
        {
          "internalType": "address",
          "name": "addr",
          "type": "address"
        }
      ],
      "name": "removeAddressFromWhitelist",
      "outputs": [
        {
          "internalType": "bool",
          "name": "success",
          "type": "bool"
        }
      ],
      "stateMutability": "nonpayable",
      "type": "function"
    },
    {
      "inputs": [
        {
          "internalType": "address[]",
          "name": "addrs",
          "type": "address[]"
        }
      ],
      "name": "removeAddressesFromWhitelist",
      "outputs": [
        {
          "internalType": "bool",
          "name": "success",
          "type": "bool"
        }
      ],
      "stateMutability": "nonpayable",
      "type": "function"
    },
    {
      "inputs": [
        {
          "internalType": "address",
          "name": "_userToRemove",
          "type": "address"
        }
      ],
      "name": "removeFromLeague",
      "outputs": [],
      "stateMutability": "nonpayable",
      "type": "function"
    },
    {
      "inputs": [],
      "name": "renounceOwnership",
      "outputs": [],
      "stateMutability": "nonpayable",
      "type": "function"
    },
    {
      "inputs": [],
      "name": "rinkebyUSDCAddress",
      "outputs": [
        {
          "internalType": "address",
          "name": "",
          "type": "address"
        }
      ],
      "stateMutability": "view",
      "type": "function"
    },
    {
      "inputs": [],
      "name": "setLeagueEntryIsClosed",
      "outputs": [],
      "stateMutability": "nonpayable",
      "type": "function"
    },
    {
      "inputs": [],
      "name": "setLeagueSchedule",
      "outputs": [],
      "stateMutability": "nonpayable",
      "type": "function"
    },
    {
      "inputs": [
        {
          "internalType": "uint256[]",
          "name": "athleteIds",
          "type": "uint256[]"
        }
      ],
      "name": "setLineup",
      "outputs": [],
      "stateMutability": "nonpayable",
      "type": "function"
    },
    {
      "inputs": [],
      "name": "stakeAmount",
      "outputs": [
        {
          "internalType": "uint256",
          "name": "",
          "type": "uint256"
        }
      ],
      "stateMutability": "view",
      "type": "function"
    },
    {
      "inputs": [
        {
          "internalType": "address",
          "name": "newOwner",
          "type": "address"
        }
      ],
      "name": "transferOwnership",
      "outputs": [],
      "stateMutability": "nonpayable",
      "type": "function"
    },
    {
      "inputs": [],
      "name": "unlockLineup",
      "outputs": [],
      "stateMutability": "nonpayable",
      "type": "function"
    },
    {
      "inputs": [
        {
          "internalType": "address",
          "name": "",
          "type": "address"
        },
        {
          "internalType": "uint256",
          "name": "",
          "type": "uint256"
        }
      ],
      "name": "userToRecord",
      "outputs": [
        {
          "internalType": "uint256",
          "name": "",
          "type": "uint256"
        }
      ],
      "stateMutability": "view",
      "type": "function"
    },
    {
      "inputs": [
        {
          "internalType": "address",
          "name": "",
          "type": "address"
        }
      ],
      "name": "whitelist",
      "outputs": [
        {
          "internalType": "bool",
          "name": "",
          "type": "bool"
        }
      ],
      "stateMutability": "view",
      "type": "function"
    }
  ],
  "bytecode": "0x60806040523480156200001157600080fd5b5062000032620000266200004060201b60201c565b6200004860201b60201c565b60016004819055506200010d565b600033905090565b60008060029054906101000a900473ffffffffffffffffffffffffffffffffffffffff16905081600060026101000a81548173ffffffffffffffffffffffffffffffffffffffff021916908373ffffffffffffffffffffffffffffffffffffffff1602179055508173ffffffffffffffffffffffffffffffffffffffff168173ffffffffffffffffffffffffffffffffffffffff167f8be0079c531659141344cd1fd0a4f28419497f9722a3daafe3b4186f6b6457e060405160405180910390a35050565b6150d4806200011d6000396000f3fe60806040523480156200001157600080fd5b5060043610620002a35760003560e01c8063747b80501162000171578063a2bc091a11620000d5578063dc9a15351162000093578063dc9a1535146200077e578063e2ec6ec314620007a0578063e4c9066b14620007d6578063f2fde38b14620007e2578063f612121a1462000802578063f8816045146200082257620002a3565b8063a2bc091a1462000716578063ada3a28d1462000722578063c8be3b5b1462000744578063c99fea941462000750578063cdbba4c6146200075c57620002a3565b8063853976dd116200012f578063853976dd14620006225780638caec7a814620006585780638da5cb5b146200067a57806393f3706c146200069c57806399a6003414620006be5780639b19251a14620006e057620002a3565b8063747b8050146200057c5780637b9417c8146200059c5780637eed33f114620005d2578063841abf6e14620005f457806385334ffa146200061657620002a3565b8063403570c511620002195780635fcc698711620001d75780635fcc698714620004c657806360c7dc4714620004e85780636bdc44df146200050a5780636e9960c3146200052c578063715018a6146200054e578063722580b6146200055a57620002a3565b8063403570c5146200041e57806352e6e5f31462000440578063595b1a3e14620004625780635d514d6914620004845780635ec0b4f714620004a457620002a3565b80631d803e0011620002675780631d803e00146200034e57806324953eaa146200035a578063267175db1462000390578063286dd3f514620003c65780633cfd1ccc14620003fc57620002a3565b8062b2476f14620002a85780630655465a14620002ca57806306d60c2414620002d65780630c6f795914620002f65780630d8e6e2c146200032c575b600080fd5b620002b262000844565b604051620002c1919062003631565b60405180910390f35b620002d46200086a565b005b620002f46004803603810190620002ee919062002ec9565b620009a5565b005b6200031460048036038101906200030e919062002f74565b62000b42565b604051620003239190620039a8565b60405180910390f35b6200033662000b6b565b604051620003459190620039a8565b60405180910390f35b6200035862000b70565b005b62000378600480360381019062000372919062002fbb565b62000e57565b60405162000387919062003796565b60405180910390f35b620003ae6004803603810190620003a89190620031a9565b62000f54565b604051620003bd919062003631565b60405180910390f35b620003e46004803603810190620003de919062002ec9565b62000f94565b604051620003f3919062003796565b60405180910390f35b6200040662001123565b604051620004159190620039a8565b60405180910390f35b6200042862001232565b60405162000437919062003874565b60405180910390f35b6200044a620012cc565b604051620004599190620039a8565b60405180910390f35b6200046c620012d2565b6040516200047b9190620039a8565b60405180910390f35b620004a260048036038101906200049c91906200308f565b620012df565b005b620004ae62001736565b604051620004bd9190620039a8565b60405180910390f35b620004d062001740565b604051620004df9190620039a8565b60405180910390f35b620004f26200184f565b604051620005019190620039a8565b60405180910390f35b6200051462001855565b604051620005239190620039a8565b60405180910390f35b620005366200189c565b60405162000545919062003631565b60405180910390f35b62000558620018c6565b005b6200056462001957565b604051620005739190620039a8565b60405180910390f35b6200059a600480360381019062000594919062002ec9565b62001961565b005b620005ba6004803603810190620005b4919062002ec9565b62001aab565b604051620005c9919062003796565b60405180910390f35b620005dc62001c38565b604051620005eb9190620039a8565b60405180910390f35b620005fe62001c3e565b6040516200060d919062003874565b60405180910390f35b6200062062001cd4565b005b6200064060048036038101906200063a919062002f2d565b62001df6565b6040516200064f919062003631565b60405180910390f35b6200066262001fc0565b60405162000671919062003631565b60405180910390f35b6200068462001fea565b60405162000693919062003631565b60405180910390f35b620006a662002013565b604051620006b5919062003631565b60405180910390f35b620006c862002039565b604051620006d79190620039a8565b60405180910390f35b620006fe6004803603810190620006f8919062002ec9565b62002055565b6040516200070d919062003796565b60405180910390f35b6200072062002075565b005b6200072c62002115565b6040516200073b919062003772565b60405180910390f35b6200074e620021ac565b005b6200075a6200224c565b005b620007666200251b565b60405162000775919062003631565b60405180910390f35b6200078862002545565b60405162000797919062003796565b60405180910390f35b620007be6004803603810190620007b8919062002fbb565b62002558565b604051620007cd919062003796565b60405180910390f35b620007e062002655565b005b620008006004803603810190620007fa919062002ec9565b620026f5565b005b6200082060048036038101906200081a91906200300c565b620027f9565b005b6200082c620028fc565b6040516200083b919062003754565b60405180910390f35b601260009054906101000a900473ffffffffffffffffffffffffffffffffffffffff1681565b6200087462002988565b73ffffffffffffffffffffffffffffffffffffffff166200089462001fea565b73ffffffffffffffffffffffffffffffffffffffff1614620008ed576040517f08c379a0000000000000000000000000000000000000000000000000000000008152600401620008e490620038fe565b60405180910390fd5b6200092d6040518060400160405280601081526020017f73657474696e67207363686564756c650000000000000000000000000000000081525062002990565b73__$36fdb4e0c2cb91f3ceca5ea81b025328f3$__63d2c232b56010600f60065460056040518563ffffffff1660e01b8152600401620009719493929190620037b3565b60006040518083038186803b1580156200098a57600080fd5b505af41580156200099f573d6000803e3d6000fd5b50505050565b600960009054906101000a900473ffffffffffffffffffffffffffffffffffffffff1673ffffffffffffffffffffffffffffffffffffffff163373ffffffffffffffffffffffffffffffffffffffff161462000a38576040517f08c379a000000000000000000000000000000000000000000000000000000000815260040162000a2f9062003920565b60405180910390fd5b600a60149054906101000a900460ff161562000a8b576040517f08c379a000000000000000000000000000000000000000000000000000000000815260040162000a829062003942565b60405180910390fd5b601460009054906101000a900473ffffffffffffffffffffffffffffffffffffffff1673ffffffffffffffffffffffffffffffffffffffff1663286dd3f5826040518263ffffffff1660e01b815260040162000ae8919062003631565b602060405180830381600087803b15801562000b0357600080fd5b505af115801562000b18573d6000803e3d6000fd5b505050506040513d601f19601f8201168201806040525081019062000b3e91906200305d565b5050565b600c602052816000526040600020816008811062000b5f57600080fd5b01600091509150505481565b600090565b62000b7a62002988565b73ffffffffffffffffffffffffffffffffffffffff1662000b9a62001fea565b73ffffffffffffffffffffffffffffffffffffffff161462000bf3576040517f08c379a000000000000000000000000000000000000000000000000000000000815260040162000bea90620038fe565b60405180910390fd5b6002600454141562000c3c576040517f08c379a000000000000000000000000000000000000000000000000000000000815260040162000c339062003964565b60405180910390fd5b60026004819055506000600f8054905060085462000c5b919062003b8f565b90506000805b600f8054905081101562000d9257600b60008373ffffffffffffffffffffffffffffffffffffffff1673ffffffffffffffffffffffffffffffffffffffff16815260200190815260200160002054600b6000600f848154811062000cca5762000cc962003e27565b5b9060005260206000200160009054906101000a900473ffffffffffffffffffffffffffffffffffffffff1673ffffffffffffffffffffffffffffffffffffffff1673ffffffffffffffffffffffffffffffffffffffff16815260200190815260200160002054111562000d7c57600f818154811062000d4e5762000d4d62003e27565b5b9060005260206000200160009054906101000a900473ffffffffffffffffffffffffffffffffffffffff1691505b808062000d899062003d7b565b91505062000c61565b50601660009054906101000a900473ffffffffffffffffffffffffffffffffffffffff1673ffffffffffffffffffffffffffffffffffffffff166323b872dd3330856040518463ffffffff1660e01b815260040162000df4939291906200364e565b602060405180830381600087803b15801562000e0f57600080fd5b505af115801562000e24573d6000803e3d6000fd5b505050506040513d601f19601f8201168201806040525081019062000e4a91906200305d565b5050506001600481905550565b600062000e6362002988565b73ffffffffffffffffffffffffffffffffffffffff1662000e8362001fea565b73ffffffffffffffffffffffffffffffffffffffff161462000edc576040517f08c379a000000000000000000000000000000000000000000000000000000000815260040162000ed390620038fe565b60405180910390fd5b60005b825181101562000f4e5762000f1183828151811062000f035762000f0262003e27565b5b602002602001015162000f94565b1562000f385760016002600082825462000f2c919062003bf0565b92505081905550600191505b808062000f459062003d7b565b91505062000edf565b50919050565b600f818154811062000f6557600080fd5b906000526020600020016000915054906101000a900473ffffffffffffffffffffffffffffffffffffffff1681565b600062000fa062002988565b73ffffffffffffffffffffffffffffffffffffffff1662000fc062001fea565b73ffffffffffffffffffffffffffffffffffffffff161462001019576040517f08c379a00000000000000000000000000000000000000000000000000000000081526004016200101090620038fe565b60405180910390fd5b600160008373ffffffffffffffffffffffffffffffffffffffff1673ffffffffffffffffffffffffffffffffffffffff16815260200190815260200160002060009054906101000a900460ff16156200111e576000600160008473ffffffffffffffffffffffffffffffffffffffff1673ffffffffffffffffffffffffffffffffffffffff16815260200190815260200160002060006101000a81548160ff0219169083151502179055507ff1abf01a1043b7c244d128e8595cf0c1d10743b022b03a02dffd8ca3bf729f5a82604051620010f5919062003631565b60405180910390a160016002600082825462001112919062003bf0565b92505081905550600190505b919050565b6000600e60003373ffffffffffffffffffffffffffffffffffffffff1673ffffffffffffffffffffffffffffffffffffffff16815260200190815260200160002060009054906101000a900460ff166200117c57600080fd5b601660009054906101000a900473ffffffffffffffffffffffffffffffffffffffff1673ffffffffffffffffffffffffffffffffffffffff166370a08231306040518263ffffffff1660e01b8152600401620011d9919062003631565b60206040518083038186803b158015620011f257600080fd5b505afa15801562001207573d6000803e3d6000fd5b505050506040513d601f19601f820116820180604052508101906200122d9190620031db565b905090565b606060058054620012439062003cf1565b80601f0160208091040260200160405190810160405280929190818152602001828054620012719062003cf1565b8015620012c25780601f106200129657610100808354040283529160200191620012c2565b820191906000526020600020905b815481529060010190602001808311620012a457829003601f168201915b5050505050905090565b60075481565b6000600f80549050905090565b600060019054906101000a900460ff16620013095760008054906101000a900460ff161562001314565b6200131362002a2d565b5b62001356576040517f08c379a00000000000000000000000000000000000000000000000000000000081526004016200134d90620038dc565b60405180910390fd5b60008060019054906101000a900460ff161590508015620013a7576001600060016101000a81548160ff02191690831515021790555060016000806101000a81548160ff0219169083151502179055505b8b8b60059190620013ba92919062002b51565b50896006819055506001600e60008873ffffffffffffffffffffffffffffffffffffffff1673ffffffffffffffffffffffffffffffffffffffff16815260200190815260200160002060006101000a81548160ff021916908315150217905550600f869080600181540180825580915050600190039060005260206000200160009091909190916101000a81548173ffffffffffffffffffffffffffffffffffffffff021916908373ffffffffffffffffffffffffffffffffffffffff16021790555085600960006101000a81548173ffffffffffffffffffffffffffffffffffffffff021916908373ffffffffffffffffffffffffffffffffffffffff1602179055508860088190555087600360006101000a81548160ff0219169083151502179055506000600a60156101000a81548160ff0219169083151502179055506000600a60146101000a81548160ff02191690831515021790555086601360006101000a81548173ffffffffffffffffffffffffffffffffffffffff021916908373ffffffffffffffffffffffffffffffffffffffff16021790555081601560006101000a81548173ffffffffffffffffffffffffffffffffffffffff021916908373ffffffffffffffffffffffffffffffffffffffff160217905550604051620015a59062002be2565b604051809103906000f080158015620015c2573d6000803e3d6000fd5b50601460006101000a81548173ffffffffffffffffffffffffffffffffffffffff021916908373ffffffffffffffffffffffffffffffffffffffff16021790555084601160006101000a81548173ffffffffffffffffffffffffffffffffffffffff021916908373ffffffffffffffffffffffffffffffffffffffff16021790555083601260006101000a81548173ffffffffffffffffffffffffffffffffffffffff021916908373ffffffffffffffffffffffffffffffffffffffff16021790555082601660006101000a81548173ffffffffffffffffffffffffffffffffffffffff021916908373ffffffffffffffffffffffffffffffffffffffff160217905550620017066040518060400160405280601281526020017f50726f787920696e697469616c697a656421000000000000000000000000000081525062002990565b8015620017285760008060016101000a81548160ff0219169083151502179055505b505050505050505050505050565b6000600754905090565b6000600e60003373ffffffffffffffffffffffffffffffffffffffff1673ffffffffffffffffffffffffffffffffffffffff16815260200190815260200160002060009054906101000a900460ff166200179957600080fd5b601660009054906101000a900473ffffffffffffffffffffffffffffffffffffffff1673ffffffffffffffffffffffffffffffffffffffff166370a08231336040518263ffffffff1660e01b8152600401620017f6919062003631565b60206040518083038186803b1580156200180f57600080fd5b505afa15801562001824573d6000803e3d6000fd5b505050506040513d601f19601f820116820180604052508101906200184a9190620031db565b905090565b60085481565b6000600b60003373ffffffffffffffffffffffffffffffffffffffff1673ffffffffffffffffffffffffffffffffffffffff16815260200190815260200160002054905090565b6000600960009054906101000a900473ffffffffffffffffffffffffffffffffffffffff16905090565b620018d062002988565b73ffffffffffffffffffffffffffffffffffffffff16620018f062001fea565b73ffffffffffffffffffffffffffffffffffffffff161462001949576040517f08c379a00000000000000000000000000000000000000000000000000000000081526004016200194090620038fe565b60405180910390fd5b62001955600062002a40565b565b6000600854905090565b600960009054906101000a900473ffffffffffffffffffffffffffffffffffffffff1673ffffffffffffffffffffffffffffffffffffffff163373ffffffffffffffffffffffffffffffffffffffff1614620019f4576040517f08c379a0000000000000000000000000000000000000000000000000000000008152600401620019eb9062003920565b60405180910390fd5b601460009054906101000a900473ffffffffffffffffffffffffffffffffffffffff1673ffffffffffffffffffffffffffffffffffffffff16637b9417c8826040518263ffffffff1660e01b815260040162001a51919062003631565b602060405180830381600087803b15801562001a6c57600080fd5b505af115801562001a81573d6000803e3d6000fd5b505050506040513d601f19601f8201168201806040525081019062001aa791906200305d565b5050565b600062001ab762002988565b73ffffffffffffffffffffffffffffffffffffffff1662001ad762001fea565b73ffffffffffffffffffffffffffffffffffffffff161462001b30576040517f08c379a000000000000000000000000000000000000000000000000000000000815260040162001b2790620038fe565b60405180910390fd5b600160008373ffffffffffffffffffffffffffffffffffffffff1673ffffffffffffffffffffffffffffffffffffffff16815260200190815260200160002060009054906101000a900460ff1662001c335760018060008473ffffffffffffffffffffffffffffffffffffffff1673ffffffffffffffffffffffffffffffffffffffff16815260200190815260200160002060006101000a81548160ff0219169083151502179055507fd1bba68c128cc3f427e5831b3c6f99f480b6efa6b9e80c757768f6124158cc3f8260405162001c0a919062003631565b60405180910390a160016002600082825462001c27919062003b32565b92505081905550600190505b919050565b60065481565b6005805462001c4d9062003cf1565b80601f016020809104026020016040519081016040528092919081815260200182805462001c7b9062003cf1565b801562001ccc5780601f1062001ca05761010080835404028352916020019162001ccc565b820191906000526020600020905b81548152906001019060200180831162001cae57829003601f168201915b505050505081565b62001cde62002988565b73ffffffffffffffffffffffffffffffffffffffff1662001cfe62001fea565b73ffffffffffffffffffffffffffffffffffffffff161462001d57576040517f08c379a000000000000000000000000000000000000000000000000000000000815260040162001d4e90620038fe565b60405180910390fd5b73__$36fdb4e0c2cb91f3ceca5ea81b025328f3$__63c406e2686010600754601360009054906101000a900473ffffffffffffffffffffffffffffffffffffffff16600c600b600d6040518763ffffffff1660e01b815260040162001dc29695949392919062003807565b60006040518083038186803b15801562001ddb57600080fd5b505af415801562001df0573d6000803e3d6000fd5b50505050565b600062001e0262002988565b73ffffffffffffffffffffffffffffffffffffffff1662001e2262001fea565b73ffffffffffffffffffffffffffffffffffffffff161462001e7b576040517f08c379a000000000000000000000000000000000000000000000000000000000815260040162001e7290620038fe565b60405180910390fd5b73__$36fdb4e0c2cb91f3ceca5ea81b025328f3$__63fb0841fb8484600754601360009054906101000a900473ffffffffffffffffffffffffffffffffffffffff16600d60008a73ffffffffffffffffffffffffffffffffffffffff1673ffffffffffffffffffffffffffffffffffffffff168152602001908152602001600020600d60008a73ffffffffffffffffffffffffffffffffffffffff1673ffffffffffffffffffffffffffffffffffffffff168152602001908152602001600020600c600b6040518963ffffffff1660e01b815260040162001f649897969594939291906200368b565b60206040518083038186803b15801562001f7d57600080fd5b505af415801562001f92573d6000803e3d6000fd5b505050506040513d601f19601f8201168201806040525081019062001fb8919062002efb565b905092915050565b6000601360009054906101000a900473ffffffffffffffffffffffffffffffffffffffff16905090565b60008060029054906101000a900473ffffffffffffffffffffffffffffffffffffffff16905090565b601160009054906101000a900473ffffffffffffffffffffffffffffffffffffffff1681565b6000600f8054905060085462002050919062003b8f565b905090565b60016020528060005260406000206000915054906101000a900460ff1681565b6200207f62002988565b73ffffffffffffffffffffffffffffffffffffffff166200209f62001fea565b73ffffffffffffffffffffffffffffffffffffffff1614620020f8576040517f08c379a0000000000000000000000000000000000000000000000000000000008152600401620020ef90620038fe565b60405180910390fd5b6000600a60156101000a81548160ff021916908315150217905550565b6060600d60003373ffffffffffffffffffffffffffffffffffffffff1673ffffffffffffffffffffffffffffffffffffffff168152602001908152602001600020805480602002602001604051908101604052809291908181526020018280548015620021a257602002820191906000526020600020905b8154815260200190600101908083116200218d575b5050505050905090565b620021b662002988565b73ffffffffffffffffffffffffffffffffffffffff16620021d662001fea565b73ffffffffffffffffffffffffffffffffffffffff16146200222f576040517f08c379a00000000000000000000000000000000000000000000000000000000081526004016200222690620038fe565b60405180910390fd5b6001600a60156101000a81548160ff021916908315150217905550565b600160003373ffffffffffffffffffffffffffffffffffffffff1673ffffffffffffffffffffffffffffffffffffffff16815260200190815260200160002060009054906101000a900460ff1680620022b15750600360009054906101000a900460ff165b620022bb57600080fd5b6002600454141562002304576040517f08c379a0000000000000000000000000000000000000000000000000000000008152600401620022fb9062003964565b60405180910390fd5b6002600481905550600a60149054906101000a900460ff16156200235f576040517f08c379a0000000000000000000000000000000000000000000000000000000008152600401620023569062003986565b60405180910390fd5b6001600e60003373ffffffffffffffffffffffffffffffffffffffff1673ffffffffffffffffffffffffffffffffffffffff16815260200190815260200160002060006101000a81548160ff021916908315150217905550600f339080600181540180825580915050600190039060005260206000200160009091909190916101000a81548173ffffffffffffffffffffffffffffffffffffffff021916908373ffffffffffffffffffffffffffffffffffffffff160217905550601660009054906101000a900473ffffffffffffffffffffffffffffffffffffffff1673ffffffffffffffffffffffffffffffffffffffff166323b872dd33306008546040518463ffffffff1660e01b81526004016200247d939291906200364e565b602060405180830381600087803b1580156200249857600080fd5b505af1158015620024ad573d6000803e3d6000fd5b505050506040513d601f19601f82011682018060405250810190620024d391906200305d565b507f9e71bc8eea02a63969f509818f2dafb9254532904319f9dbda79b67bd34a5f3d336008546040516200250992919062003727565b60405180910390a16001600481905550565b6000601660009054906101000a900473ffffffffffffffffffffffffffffffffffffffff16905090565b600360009054906101000a900460ff1681565b60006200256462002988565b73ffffffffffffffffffffffffffffffffffffffff166200258462001fea565b73ffffffffffffffffffffffffffffffffffffffff1614620025dd576040517f08c379a0000000000000000000000000000000000000000000000000000000008152600401620025d490620038fe565b60405180910390fd5b60005b82518110156200264f576200261283828151811062002604576200260362003e27565b5b602002602001015162001aab565b1562002639576001600260008282546200262d919062003b32565b92505081905550600191505b8080620026469062003d7b565b915050620025e0565b50919050565b6200265f62002988565b73ffffffffffffffffffffffffffffffffffffffff166200267f62001fea565b73ffffffffffffffffffffffffffffffffffffffff1614620026d8576040517f08c379a0000000000000000000000000000000000000000000000000000000008152600401620026cf90620038fe565b60405180910390fd5b6001600a60146101000a81548160ff021916908315150217905550565b620026ff62002988565b73ffffffffffffffffffffffffffffffffffffffff166200271f62001fea565b73ffffffffffffffffffffffffffffffffffffffff161462002778576040517f08c379a00000000000000000000000000000000000000000000000000000000081526004016200276f90620038fe565b60405180910390fd5b600073ffffffffffffffffffffffffffffffffffffffff168173ffffffffffffffffffffffffffffffffffffffff161415620027eb576040517f08c379a0000000000000000000000000000000000000000000000000000000008152600401620027e29062003898565b60405180910390fd5b620027f68162002a40565b50565b600a60159054906101000a900460ff16156200284c576040517f08c379a00000000000000000000000000000000000000000000000000000000081526004016200284390620038ba565b60405180910390fd5b600e60003373ffffffffffffffffffffffffffffffffffffffff1673ffffffffffffffffffffffffffffffffffffffff16815260200190815260200160002060009054906101000a900460ff16620028a357600080fd5b80600d60003373ffffffffffffffffffffffffffffffffffffffff1673ffffffffffffffffffffffffffffffffffffffff1681526020019081526020016000209080519060200190620028f892919062002bf0565b5050565b6200290662002c42565b600c60003373ffffffffffffffffffffffffffffffffffffffff1673ffffffffffffffffffffffffffffffffffffffff1681526020019081526020016000206008806020026040519081016040528092919082600880156200297e576020028201915b81548152602001906001019080831162002969575b5050505050905090565b600033905090565b62002a2a81604051602401620029a7919062003874565b6040516020818303038152906040527f41304fac000000000000000000000000000000000000000000000000000000007bffffffffffffffffffffffffffffffffffffffffffffffffffffffff19166020820180517bffffffffffffffffffffffffffffffffffffffffffffffffffffffff838183161783525050505062002b05565b50565b600062002a3a3062002b2e565b15905090565b60008060029054906101000a900473ffffffffffffffffffffffffffffffffffffffff16905081600060026101000a81548173ffffffffffffffffffffffffffffffffffffffff021916908373ffffffffffffffffffffffffffffffffffffffff1602179055508173ffffffffffffffffffffffffffffffffffffffff168173ffffffffffffffffffffffffffffffffffffffff167f8be0079c531659141344cd1fd0a4f28419497f9722a3daafe3b4186f6b6457e060405160405180910390a35050565b60008151905060006a636f6e736f6c652e6c6f679050602083016000808483855afa5050505050565b6000808273ffffffffffffffffffffffffffffffffffffffff163b119050919050565b82805462002b5f9062003cf1565b90600052602060002090601f01602090048101928262002b83576000855562002bcf565b82601f1062002b9e57803560ff191683800117855562002bcf565b8280016001018555821562002bcf579182015b8281111562002bce57823582559160200191906001019062002bb1565b5b50905062002bde919062002c65565b5090565b610f9f806200410083390190565b82805482825590600052602060002090810192821562002c2f579160200282015b8281111562002c2e57825182559160200191906001019062002c11565b5b50905062002c3e919062002c65565b5090565b604051806101000160405280600890602082028036833780820191505090505090565b5b8082111562002c8057600081600090555060010162002c66565b5090565b600062002c9b62002c9584620039ee565b620039c5565b9050808382526020820190508285602086028201111562002cc15762002cc062003ea4565b5b60005b8581101562002cf5578162002cda888262002d7a565b84526020840193506020830192505060018101905062002cc4565b5050509392505050565b600062002d1662002d108462003a1d565b620039c5565b9050808382526020820190508285602086028201111562002d3c5762002d3b62003ea4565b5b60005b8581101562002d70578162002d55888262002e9b565b84526020840193506020830192505060018101905062002d3f565b5050509392505050565b60008135905062002d8b81620040b1565b92915050565b60008151905062002da281620040b1565b92915050565b600082601f83011262002dc05762002dbf62003e9f565b5b813562002dd284826020860162002c84565b91505092915050565b600082601f83011262002df35762002df262003e9f565b5b813562002e0584826020860162002cff565b91505092915050565b60008135905062002e1f81620040cb565b92915050565b60008151905062002e3681620040cb565b92915050565b60008083601f84011262002e555762002e5462003e9f565b5b8235905067ffffffffffffffff81111562002e755762002e7462003e9a565b5b60208301915083600182028301111562002e945762002e9362003ea4565b5b9250929050565b60008135905062002eac81620040e5565b92915050565b60008151905062002ec381620040e5565b92915050565b60006020828403121562002ee25762002ee162003eae565b5b600062002ef28482850162002d7a565b91505092915050565b60006020828403121562002f145762002f1362003eae565b5b600062002f248482850162002d91565b91505092915050565b6000806040838503121562002f475762002f4662003eae565b5b600062002f578582860162002d7a565b925050602062002f6a8582860162002d7a565b9150509250929050565b6000806040838503121562002f8e5762002f8d62003eae565b5b600062002f9e8582860162002d7a565b925050602062002fb18582860162002e9b565b9150509250929050565b60006020828403121562002fd45762002fd362003eae565b5b600082013567ffffffffffffffff81111562002ff55762002ff462003ea9565b5b620030038482850162002da8565b91505092915050565b60006020828403121562003025576200302462003eae565b5b600082013567ffffffffffffffff81111562003046576200304562003ea9565b5b620030548482850162002ddb565b91505092915050565b60006020828403121562003076576200307562003eae565b5b6000620030868482850162002e25565b91505092915050565b60008060008060008060008060008060006101408c8e031215620030b857620030b762003eae565b5b60008c013567ffffffffffffffff811115620030d957620030d862003ea9565b5b620030e78e828f0162002e3c565b9b509b50506020620030fc8e828f0162002e9b565b99505060406200310f8e828f0162002e9b565b9850506060620031228e828f0162002e0e565b9750506080620031358e828f0162002d7a565b96505060a0620031488e828f0162002d7a565b95505060c06200315b8e828f0162002d7a565b94505060e06200316e8e828f0162002d7a565b935050610100620031828e828f0162002d7a565b925050610120620031968e828f0162002d7a565b9150509295989b509295989b9093969950565b600060208284031215620031c257620031c162003eae565b5b6000620031d28482850162002e9b565b91505092915050565b600060208284031215620031f457620031f362003eae565b5b6000620032048482850162002eb2565b91505092915050565b60006200321b8383620035ed565b60208301905092915050565b600062003235838362003620565b60208301905092915050565b6200324c8162003c35565b82525050565b6200325d8162003c35565b82525050565b8082525050565b620032758162003a90565b62003281818462003ae3565b92506200328e8262003a4c565b8060005b83811015620032c5578151620032a987826200320d565b9650620032b68362003abc565b92505060018101905062003292565b505050505050565b6000620032da8262003a9b565b620032e6818562003aee565b9350620032f38362003a56565b8060005b838110156200332a5781516200330e88826200320d565b97506200331b8362003ac9565b925050600181019050620032f7565b5085935050505092915050565b6000620033448262003aa6565b62003350818562003aff565b93506200335d8362003a66565b8060005b838110156200339d57620033758262003e85565b62003381888262003227565b97506200338e8362003ad6565b92505060018101905062003361565b5085935050505092915050565b620033b58162003c49565b82525050565b620033c68162003c7f565b82525050565b8082525050565b8082525050565b8082525050565b8082525050565b6000620033f58262003ab1565b62003401818562003b10565b93506200341381856020860162003cbb565b6200341e8162003eb3565b840191505092915050565b60008154620034388162003cf1565b62003444818662003b21565b945060018216600081146200346257600181146200347557620034ac565b60ff1983168652602086019350620034ac565b620034808562003a7b565b60005b83811015620034a45781548189015260018201915060208101905062003483565b808801955050505b50505092915050565b6000620034c460268362003b10565b9150620034d18262003ed1565b604082019050919050565b6000620034eb601e8362003b10565b9150620034f88262003f20565b602082019050919050565b600062003512602e8362003b10565b91506200351f8262003f49565b604082019050919050565b60006200353960208362003b10565b9150620035468262003f98565b602082019050919050565b60006200356060178362003b10565b91506200356d8262003fc1565b602082019050919050565b60006200358760418362003b10565b9150620035948262003fea565b606082019050919050565b6000620035ae601f8362003b10565b9150620035bb826200405f565b602082019050919050565b6000620035d560178362003b10565b9150620035e28262004088565b602082019050919050565b620035f88162003c75565b82525050565b620036098162003c75565b82525050565b6200361a8162003c75565b82525050565b6200362b8162003c75565b82525050565b600060208201905062003648600083018462003241565b92915050565b600060608201905062003665600083018662003241565b62003674602083018562003241565b620036836040830184620035fe565b949350505050565b600061010082019050620036a3600083018b62003252565b620036b2602083018a62003252565b620036c160408301896200360f565b620036d06060830188620033bb565b8181036080830152620036e4818762003337565b905081810360a0830152620036fa818662003337565b90506200370b60c0830185620033cc565b6200371a60e0830184620033da565b9998505050505050505050565b60006040820190506200373e600083018562003241565b6200374d6020830184620035fe565b9392505050565b6000610100820190506200376c60008301846200326a565b92915050565b600060208201905081810360008301526200378e8184620032cd565b905092915050565b6000602082019050620037ad6000830184620033aa565b92915050565b6000608082019050620037ca6000830187620033e1565b620037d9602083018662003263565b620037e860408301856200360f565b8181036060830152620037fc818462003429565b905095945050505050565b600060c0820190506200381e6000830189620033e1565b6200382d60208301886200360f565b6200383c6040830187620033bb565b6200384b6060830186620033cc565b6200385a6080830185620033da565b6200386960a0830184620033d3565b979650505050505050565b60006020820190508181036000830152620038908184620033e8565b905092915050565b60006020820190508181036000830152620038b381620034b5565b9050919050565b60006020820190508181036000830152620038d581620034dc565b9050919050565b60006020820190508181036000830152620038f78162003503565b9050919050565b6000602082019050818103600083015262003919816200352a565b9050919050565b600060208201905081810360008301526200393b8162003551565b9050919050565b600060208201905081810360008301526200395d8162003578565b9050919050565b600060208201905081810360008301526200397f816200359f565b9050919050565b60006020820190508181036000830152620039a181620035c6565b9050919050565b6000602082019050620039bf6000830184620035fe565b92915050565b6000620039d1620039e4565b9050620039df828262003d45565b919050565b6000604051905090565b600067ffffffffffffffff82111562003a0c5762003a0b62003e56565b5b602082029050602081019050919050565b600067ffffffffffffffff82111562003a3b5762003a3a62003e56565b5b602082029050602081019050919050565b6000819050919050565b6000819050602082019050919050565b60008190508160005260206000209050919050565b60008190508160005260206000209050919050565b600060089050919050565b600081519050919050565b600081549050919050565b600081519050919050565b6000602082019050919050565b6000602082019050919050565b6000600182019050919050565b600081905092915050565b600082825260208201905092915050565b600082825260208201905092915050565b600082825260208201905092915050565b600082825260208201905092915050565b600062003b3f8262003c75565b915062003b4c8362003c75565b9250827fffffffffffffffffffffffffffffffffffffffffffffffffffffffffffffffff0382111562003b845762003b8362003dc9565b5b828201905092915050565b600062003b9c8262003c75565b915062003ba98362003c75565b9250817fffffffffffffffffffffffffffffffffffffffffffffffffffffffffffffffff048311821515161562003be55762003be462003dc9565b5b828202905092915050565b600062003bfd8262003c75565b915062003c0a8362003c75565b92508282101562003c205762003c1f62003dc9565b5b828203905092915050565b6000819050919050565b600062003c428262003c55565b9050919050565b60008115159050919050565b600073ffffffffffffffffffffffffffffffffffffffff82169050919050565b6000819050919050565b600062003c8c8262003c93565b9050919050565b600062003ca08262003ca7565b9050919050565b600062003cb48262003c55565b9050919050565b60005b8381101562003cdb57808201518184015260208101905062003cbe565b8381111562003ceb576000848401525b50505050565b6000600282049050600182168062003d0a57607f821691505b6020821081141562003d215762003d2062003df8565b5b50919050565b600062003d3e62003d388362003ec4565b62003c2b565b9050919050565b62003d508262003eb3565b810181811067ffffffffffffffff8211171562003d725762003d7162003e56565b5b80604052505050565b600062003d888262003c75565b91507fffffffffffffffffffffffffffffffffffffffffffffffffffffffffffffffff82141562003dbe5762003dbd62003dc9565b5b600182019050919050565b7f4e487b7100000000000000000000000000000000000000000000000000000000600052601160045260246000fd5b7f4e487b7100000000000000000000000000000000000000000000000000000000600052602260045260246000fd5b7f4e487b7100000000000000000000000000000000000000000000000000000000600052603260045260246000fd5b7f4e487b7100000000000000000000000000000000000000000000000000000000600052604160045260246000fd5b600062003e93825462003d27565b9050919050565b600080fd5b600080fd5b600080fd5b600080fd5b600080fd5b6000601f19601f8301169050919050565b60008160001c9050919050565b7f4f776e61626c653a206e6577206f776e657220697320746865207a65726f206160008201527f6464726573730000000000000000000000000000000000000000000000000000602082015250565b7f6c696e657570206973206c6f636b656420666f7220746865207765656b210000600082015250565b7f496e697469616c697a61626c653a20636f6e747261637420697320616c72656160008201527f647920696e697469616c697a6564000000000000000000000000000000000000602082015250565b7f4f776e61626c653a2063616c6c6572206973206e6f7420746865206f776e6572600082015250565b7f43616c6c6572206973206e6f74207468652061646d696e000000000000000000600082015250565b7f4e6f626f64792063616e20656e7465722f6578697420746865206c656167756560008201527f20616e796d6f72652e2054686520736561736f6e20686173207374617274656460208201527f2100000000000000000000000000000000000000000000000000000000000000604082015250565b7f5265656e7472616e637947756172643a207265656e7472616e742063616c6c00600082015250565b7f4c656167756520456e74727920697320436c6f73656421000000000000000000600082015250565b620040bc8162003c35565b8114620040c857600080fd5b50565b620040d68162003c49565b8114620040e257600080fd5b50565b620040f08162003c75565b8114620040fc57600080fd5b5056fe608060405234801561001057600080fd5b5061002d61002261003260201b60201c565b61003a60201b60201c565b6100fe565b600033905090565b60008060009054906101000a900473ffffffffffffffffffffffffffffffffffffffff169050816000806101000a81548173ffffffffffffffffffffffffffffffffffffffff021916908373ffffffffffffffffffffffffffffffffffffffff1602179055508173ffffffffffffffffffffffffffffffffffffffff168173ffffffffffffffffffffffffffffffffffffffff167f8be0079c531659141344cd1fd0a4f28419497f9722a3daafe3b4186f6b6457e060405160405180910390a35050565b610e928061010d6000396000f3fe608060405234801561001057600080fd5b50600436106100935760003560e01c80638da5cb5b116100665780638da5cb5b146101325780639b19251a14610150578063dc9a153514610180578063e2ec6ec31461019e578063f2fde38b146101ce57610093565b806324953eaa14610098578063286dd3f5146100c8578063715018a6146100f85780637b9417c814610102575b600080fd5b6100b260048036038101906100ad9190610a4a565b6101ea565b6040516100bf9190610b12565b60405180910390f35b6100e260048036038101906100dd9190610a1d565b6102d4565b6040516100ef9190610b12565b60405180910390f35b610100610457565b005b61011c60048036038101906101179190610a1d565b6104df565b6040516101299190610b12565b60405180910390f35b61013a610660565b6040516101479190610af7565b60405180910390f35b61016a60048036038101906101659190610a1d565b610689565b6040516101779190610b12565b60405180910390f35b6101886106a9565b6040516101959190610b12565b60405180910390f35b6101b860048036038101906101b39190610a4a565b6106bc565b6040516101c59190610b12565b60405180910390f35b6101e860048036038101906101e39190610a1d565b6107a6565b005b60006101f461089e565b73ffffffffffffffffffffffffffffffffffffffff16610212610660565b73ffffffffffffffffffffffffffffffffffffffff1614610268576040517f08c379a000000000000000000000000000000000000000000000000000000000815260040161025f90610b4d565b60405180910390fd5b60005b82518110156102ce5761029783828151811061028a57610289610d4a565b5b60200260200101516102d4565b156102bb576001600260008282546102af9190610c25565b92505081905550600191505b80806102c690610cd2565b91505061026b565b50919050565b60006102de61089e565b73ffffffffffffffffffffffffffffffffffffffff166102fc610660565b73ffffffffffffffffffffffffffffffffffffffff1614610352576040517f08c379a000000000000000000000000000000000000000000000000000000000815260040161034990610b4d565b60405180910390fd5b600160008373ffffffffffffffffffffffffffffffffffffffff1673ffffffffffffffffffffffffffffffffffffffff16815260200190815260200160002060009054906101000a900460ff1615610452576000600160008473ffffffffffffffffffffffffffffffffffffffff1673ffffffffffffffffffffffffffffffffffffffff16815260200190815260200160002060006101000a81548160ff0219169083151502179055507ff1abf01a1043b7c244d128e8595cf0c1d10743b022b03a02dffd8ca3bf729f5a8260405161042b9190610af7565b60405180910390a16001600260008282546104469190610c25565b92505081905550600190505b919050565b61045f61089e565b73ffffffffffffffffffffffffffffffffffffffff1661047d610660565b73ffffffffffffffffffffffffffffffffffffffff16146104d3576040517f08c379a00000000000000000000000000000000000000000000000000000000081526004016104ca90610b4d565b60405180910390fd5b6104dd60006108a6565b565b60006104e961089e565b73ffffffffffffffffffffffffffffffffffffffff16610507610660565b73ffffffffffffffffffffffffffffffffffffffff161461055d576040517f08c379a000000000000000000000000000000000000000000000000000000000815260040161055490610b4d565b60405180910390fd5b600160008373ffffffffffffffffffffffffffffffffffffffff1673ffffffffffffffffffffffffffffffffffffffff16815260200190815260200160002060009054906101000a900460ff1661065b5760018060008473ffffffffffffffffffffffffffffffffffffffff1673ffffffffffffffffffffffffffffffffffffffff16815260200190815260200160002060006101000a81548160ff0219169083151502179055507fd1bba68c128cc3f427e5831b3c6f99f480b6efa6b9e80c757768f6124158cc3f826040516106349190610af7565b60405180910390a160016002600082825461064f9190610bcf565b92505081905550600190505b919050565b60008060009054906101000a900473ffffffffffffffffffffffffffffffffffffffff16905090565b60016020528060005260406000206000915054906101000a900460ff1681565b600360009054906101000a900460ff1681565b60006106c661089e565b73ffffffffffffffffffffffffffffffffffffffff166106e4610660565b73ffffffffffffffffffffffffffffffffffffffff161461073a576040517f08c379a000000000000000000000000000000000000000000000000000000000815260040161073190610b4d565b60405180910390fd5b60005b82518110156107a05761076983828151811061075c5761075b610d4a565b5b60200260200101516104df565b1561078d576001600260008282546107819190610bcf565b92505081905550600191505b808061079890610cd2565b91505061073d565b50919050565b6107ae61089e565b73ffffffffffffffffffffffffffffffffffffffff166107cc610660565b73ffffffffffffffffffffffffffffffffffffffff1614610822576040517f08c379a000000000000000000000000000000000000000000000000000000000815260040161081990610b4d565b60405180910390fd5b600073ffffffffffffffffffffffffffffffffffffffff168173ffffffffffffffffffffffffffffffffffffffff161415610892576040517f08c379a000000000000000000000000000000000000000000000000000000000815260040161088990610b2d565b60405180910390fd5b61089b816108a6565b50565b600033905090565b60008060009054906101000a900473ffffffffffffffffffffffffffffffffffffffff169050816000806101000a81548173ffffffffffffffffffffffffffffffffffffffff021916908373ffffffffffffffffffffffffffffffffffffffff1602179055508173ffffffffffffffffffffffffffffffffffffffff168173ffffffffffffffffffffffffffffffffffffffff167f8be0079c531659141344cd1fd0a4f28419497f9722a3daafe3b4186f6b6457e060405160405180910390a35050565b600061097d61097884610b92565b610b6d565b905080838252602082019050828560208602820111156109a05761099f610dad565b5b60005b858110156109d057816109b688826109da565b8452602084019350602083019250506001810190506109a3565b5050509392505050565b6000813590506109e981610e45565b92915050565b600082601f830112610a0457610a03610da8565b5b8135610a1484826020860161096a565b91505092915050565b600060208284031215610a3357610a32610db7565b5b6000610a41848285016109da565b91505092915050565b600060208284031215610a6057610a5f610db7565b5b600082013567ffffffffffffffff811115610a7e57610a7d610db2565b5b610a8a848285016109ef565b91505092915050565b610a9c81610c59565b82525050565b610aab81610c6b565b82525050565b6000610abe602683610bbe565b9150610ac982610dcd565b604082019050919050565b6000610ae1602083610bbe565b9150610aec82610e1c565b602082019050919050565b6000602082019050610b0c6000830184610a93565b92915050565b6000602082019050610b276000830184610aa2565b92915050565b60006020820190508181036000830152610b4681610ab1565b9050919050565b60006020820190508181036000830152610b6681610ad4565b9050919050565b6000610b77610b88565b9050610b838282610ca1565b919050565b6000604051905090565b600067ffffffffffffffff821115610bad57610bac610d79565b5b602082029050602081019050919050565b600082825260208201905092915050565b6000610bda82610c97565b9150610be583610c97565b9250827fffffffffffffffffffffffffffffffffffffffffffffffffffffffffffffffff03821115610c1a57610c19610d1b565b5b828201905092915050565b6000610c3082610c97565b9150610c3b83610c97565b925082821015610c4e57610c4d610d1b565b5b828203905092915050565b6000610c6482610c77565b9050919050565b60008115159050919050565b600073ffffffffffffffffffffffffffffffffffffffff82169050919050565b6000819050919050565b610caa82610dbc565b810181811067ffffffffffffffff82111715610cc957610cc8610d79565b5b80604052505050565b6000610cdd82610c97565b91507fffffffffffffffffffffffffffffffffffffffffffffffffffffffffffffffff821415610d1057610d0f610d1b565b5b600182019050919050565b7f4e487b7100000000000000000000000000000000000000000000000000000000600052601160045260246000fd5b7f4e487b7100000000000000000000000000000000000000000000000000000000600052603260045260246000fd5b7f4e487b7100000000000000000000000000000000000000000000000000000000600052604160045260246000fd5b600080fd5b600080fd5b600080fd5b600080fd5b6000601f19601f8301169050919050565b7f4f776e61626c653a206e6577206f776e657220697320746865207a65726f206160008201527f6464726573730000000000000000000000000000000000000000000000000000602082015250565b7f4f776e61626c653a2063616c6c6572206973206e6f7420746865206f776e6572600082015250565b610e4e81610c59565b8114610e5957600080fd5b5056fea2646970667358221220a21085165a95bba102b3fe59880e17f3027964706b8a63561e6b8ccd43ba90fb64736f6c63430008070033a26469706673582212209b2b01f4ceb58ce7df2a97f007e4be9b5fd3373b5739564540fe45491835e52c64736f6c63430008070033",
  "linkReferences": {
    "contracts/MOBALogicLibrary.sol": {
      "MOBALogicLibrary": [
        {
          "length": 20,
          "start": 2636
        },
        {
          "length": 20,
          "start": 7798
        },
        {
          "length": 20,
          "start": 8090
        }
      ]
    }
  },
  "deployedLinkReferences": {
    "contracts/MOBALogicLibrary.sol": {
      "MOBALogicLibrary": [
        {
          "length": 20,
          "start": 2351
        },
        {
          "length": 20,
          "start": 7513
        },
        {
          "length": 20,
          "start": 7805
        }
      ]
    }
  }
}