{
  "_format": "hh-sol-artifact-1",
  "contractName": "LeagueOfLegendsLogic",
  "sourceName": "contracts/LeagueOfLegendsLogic.sol",
  "abi": [
    {
      "anonymous": false,
      "inputs": [
        {
          "indexed": true,
          "internalType": "address",
          "name": "previousOwner",
          "type": "address"
        },
        {
          "indexed": true,
          "internalType": "address",
          "name": "newOwner",
          "type": "address"
        }
      ],
      "name": "OwnershipTransferred",
      "type": "event"
    },
    {
      "anonymous": false,
      "inputs": [
        {
          "indexed": true,
          "internalType": "bytes32",
          "name": "role",
          "type": "bytes32"
        },
        {
          "indexed": true,
          "internalType": "bytes32",
          "name": "previousAdminRole",
          "type": "bytes32"
        },
        {
          "indexed": true,
          "internalType": "bytes32",
          "name": "newAdminRole",
          "type": "bytes32"
        }
      ],
      "name": "RoleAdminChanged",
      "type": "event"
    },
    {
      "anonymous": false,
      "inputs": [
        {
          "indexed": true,
          "internalType": "bytes32",
          "name": "role",
          "type": "bytes32"
        },
        {
          "indexed": true,
          "internalType": "address",
          "name": "account",
          "type": "address"
        },
        {
          "indexed": true,
          "internalType": "address",
          "name": "sender",
          "type": "address"
        }
      ],
      "name": "RoleGranted",
      "type": "event"
    },
    {
      "anonymous": false,
      "inputs": [
        {
          "indexed": true,
          "internalType": "bytes32",
          "name": "role",
          "type": "bytes32"
        },
        {
          "indexed": true,
          "internalType": "address",
          "name": "account",
          "type": "address"
        },
        {
          "indexed": true,
          "internalType": "address",
          "name": "sender",
          "type": "address"
        }
      ],
      "name": "RoleRevoked",
      "type": "event"
    },
    {
      "anonymous": false,
      "inputs": [
        {
          "indexed": false,
          "internalType": "address",
          "name": "sender",
          "type": "address"
        },
        {
          "indexed": false,
          "internalType": "uint256",
          "name": "amount",
          "type": "uint256"
        }
      ],
      "name": "Staked",
      "type": "event"
    },
    {
      "anonymous": false,
      "inputs": [
        {
          "indexed": false,
          "internalType": "address",
          "name": "addr",
          "type": "address"
        }
      ],
      "name": "WhitelistedAddressAdded",
      "type": "event"
    },
    {
      "anonymous": false,
      "inputs": [
        {
          "indexed": false,
          "internalType": "address",
          "name": "addr",
          "type": "address"
        }
      ],
      "name": "WhitelistedAddressRemoved",
      "type": "event"
    },
    {
      "anonymous": false,
      "inputs": [
        {
          "indexed": false,
          "internalType": "address",
          "name": "sender",
          "type": "address"
        },
        {
          "indexed": false,
          "internalType": "address",
          "name": "contractAddress",
          "type": "address"
        }
      ],
      "name": "testUSDCDeployed",
      "type": "event"
    },
    {
      "inputs": [],
      "name": "DEFAULT_ADMIN_ROLE",
      "outputs": [
        {
          "internalType": "bytes32",
          "name": "",
          "type": "bytes32"
        }
      ],
      "stateMutability": "view",
      "type": "function"
    },
    {
      "inputs": [
        {
          "internalType": "address",
          "name": "addr",
          "type": "address"
        }
      ],
      "name": "addAddressToWhitelist",
      "outputs": [
        {
          "internalType": "bool",
          "name": "success",
          "type": "bool"
        }
      ],
      "stateMutability": "nonpayable",
      "type": "function"
    },
    {
      "inputs": [
        {
          "internalType": "address[]",
          "name": "addrs",
          "type": "address[]"
        }
      ],
      "name": "addAddressesToWhitelist",
      "outputs": [
        {
          "internalType": "bool",
          "name": "success",
          "type": "bool"
        }
      ],
      "stateMutability": "nonpayable",
      "type": "function"
    },
    {
      "inputs": [
        {
          "internalType": "address",
          "name": "user",
          "type": "address"
        }
      ],
      "name": "addUserToLeague",
      "outputs": [],
      "stateMutability": "nonpayable",
      "type": "function"
    },
    {
      "inputs": [
        {
          "internalType": "address",
          "name": "_userToAdd",
          "type": "address"
        }
      ],
      "name": "addUserToWhitelist",
      "outputs": [],
      "stateMutability": "nonpayable",
      "type": "function"
    },
    {
      "inputs": [],
      "name": "currentWeekNum",
      "outputs": [
        {
          "internalType": "uint256",
          "name": "",
          "type": "uint256"
        }
      ],
      "stateMutability": "view",
      "type": "function"
    },
    {
      "inputs": [
        {
          "internalType": "uint256",
          "name": "currentWeekNum",
          "type": "uint256"
        }
      ],
      "name": "evaluateWeek",
      "outputs": [],
      "stateMutability": "nonpayable",
      "type": "function"
    },
    {
      "inputs": [],
      "name": "getAdmin",
      "outputs": [
        {
          "internalType": "address",
          "name": "",
          "type": "address"
        }
      ],
      "stateMutability": "view",
      "type": "function"
    },
    {
      "inputs": [],
      "name": "getLeagueName",
      "outputs": [
        {
          "internalType": "string",
          "name": "",
          "type": "string"
        }
      ],
      "stateMutability": "view",
      "type": "function"
    },
    {
      "inputs": [],
      "name": "getLineup",
      "outputs": [
        {
          "internalType": "uint256[]",
          "name": "",
          "type": "uint256[]"
        }
      ],
      "stateMutability": "view",
      "type": "function"
    },
    {
      "inputs": [
        {
          "internalType": "bytes32",
          "name": "role",
          "type": "bytes32"
        }
      ],
      "name": "getRoleAdmin",
      "outputs": [
        {
          "internalType": "bytes32",
          "name": "",
          "type": "bytes32"
        }
      ],
      "stateMutability": "view",
      "type": "function"
    },
    {
      "inputs": [],
      "name": "getStakeAmount",
      "outputs": [
        {
          "internalType": "uint256",
          "name": "",
          "type": "uint256"
        }
      ],
      "stateMutability": "view",
      "type": "function"
    },
    {
      "inputs": [],
      "name": "getTestUSDCAddress",
      "outputs": [
        {
          "internalType": "address",
          "name": "",
          "type": "address"
        }
      ],
      "stateMutability": "view",
      "type": "function"
    },
    {
      "inputs": [],
      "name": "getTotalPrizePot",
      "outputs": [
        {
          "internalType": "uint256",
          "name": "",
          "type": "uint256"
        }
      ],
      "stateMutability": "view",
      "type": "function"
    },
    {
      "inputs": [],
      "name": "getUSDCBalance",
      "outputs": [
        {
          "internalType": "uint256",
          "name": "",
          "type": "uint256"
        }
      ],
      "stateMutability": "view",
      "type": "function"
    },
    {
      "inputs": [],
      "name": "getUserRecord",
      "outputs": [
        {
          "internalType": "uint256[8]",
          "name": "",
          "type": "uint256[8]"
        }
      ],
      "stateMutability": "view",
      "type": "function"
    },
    {
      "inputs": [],
      "name": "getUserUSDCBalance",
      "outputs": [
        {
          "internalType": "uint256",
          "name": "",
          "type": "uint256"
        }
      ],
      "stateMutability": "view",
      "type": "function"
    },
    {
      "inputs": [],
      "name": "getUserWeeklypts",
      "outputs": [
        {
          "internalType": "uint256[8]",
          "name": "",
          "type": "uint256[8]"
        }
      ],
      "stateMutability": "view",
      "type": "function"
    },
    {
      "inputs": [],
      "name": "getUsersLength",
      "outputs": [
        {
          "internalType": "uint256",
          "name": "",
          "type": "uint256"
        }
      ],
      "stateMutability": "view",
      "type": "function"
    },
    {
      "inputs": [],
      "name": "getVersion",
      "outputs": [
        {
          "internalType": "uint256",
          "name": "version",
          "type": "uint256"
        }
      ],
      "stateMutability": "view",
      "type": "function"
    },
    {
      "inputs": [
        {
          "internalType": "bytes32",
          "name": "role",
          "type": "bytes32"
        },
        {
          "internalType": "address",
          "name": "account",
          "type": "address"
        }
      ],
      "name": "grantRole",
      "outputs": [],
      "stateMutability": "nonpayable",
      "type": "function"
    },
    {
      "inputs": [
        {
          "internalType": "bytes32",
          "name": "role",
          "type": "bytes32"
        },
        {
          "internalType": "address",
          "name": "account",
          "type": "address"
        }
      ],
      "name": "hasRole",
      "outputs": [
        {
          "internalType": "bool",
          "name": "",
          "type": "bool"
        }
      ],
      "stateMutability": "view",
      "type": "function"
    },
    {
      "inputs": [],
      "name": "incrementVersion",
      "outputs": [],
      "stateMutability": "nonpayable",
      "type": "function"
    },
    {
      "inputs": [
        {
          "internalType": "string",
          "name": "_name",
          "type": "string"
        },
        {
          "internalType": "uint256",
          "name": "_version",
          "type": "uint256"
        },
        {
          "internalType": "uint256",
          "name": "_stakeAmount",
          "type": "uint256"
        },
        {
          "internalType": "bool",
          "name": "_isPublic",
          "type": "bool"
        },
        {
          "internalType": "address",
          "name": "athletesDataStorageAddress",
          "type": "address"
        },
        {
          "internalType": "address",
          "name": "_admin",
          "type": "address"
        },
        {
          "internalType": "address",
          "name": "_polygonUSDCAddress",
          "type": "address"
        },
        {
          "internalType": "address",
          "name": "_rinkebyUSDCAddress",
          "type": "address"
        },
        {
          "internalType": "address",
          "name": "leagueMakerContractAddress",
          "type": "address"
        },
        {
          "internalType": "address",
          "name": "_testUSDCAddress",
          "type": "address"
        }
      ],
      "name": "initialize",
      "outputs": [],
      "stateMutability": "nonpayable",
      "type": "function"
    },
    {
      "inputs": [],
      "name": "isPublic",
      "outputs": [
        {
          "internalType": "bool",
          "name": "",
          "type": "bool"
        }
      ],
      "stateMutability": "view",
      "type": "function"
    },
    {
      "inputs": [],
      "name": "joinLeague",
      "outputs": [],
      "stateMutability": "nonpayable",
      "type": "function"
    },
    {
      "inputs": [
        {
          "internalType": "uint256",
          "name": "",
          "type": "uint256"
        }
      ],
      "name": "leagueMembers",
      "outputs": [
        {
          "internalType": "address",
          "name": "",
          "type": "address"
        }
      ],
      "stateMutability": "view",
      "type": "function"
    },
    {
      "inputs": [],
      "name": "leagueName",
      "outputs": [
        {
          "internalType": "string",
          "name": "",
          "type": "string"
        }
      ],
      "stateMutability": "view",
      "type": "function"
    },
    {
      "inputs": [],
      "name": "lockLineup",
      "outputs": [],
      "stateMutability": "nonpayable",
      "type": "function"
    },
    {
      "inputs": [],
      "name": "numWeeks",
      "outputs": [
        {
          "internalType": "uint256",
          "name": "",
          "type": "uint256"
        }
      ],
      "stateMutability": "view",
      "type": "function"
    },
    {
      "inputs": [],
      "name": "owner",
      "outputs": [
        {
          "internalType": "address",
          "name": "",
          "type": "address"
        }
      ],
      "stateMutability": "view",
      "type": "function"
    },
    {
      "inputs": [],
      "name": "polygonUSDCAddress",
      "outputs": [
        {
          "internalType": "address",
          "name": "",
          "type": "address"
        }
      ],
      "stateMutability": "view",
      "type": "function"
    },
    {
      "inputs": [
        {
          "internalType": "address",
          "name": "addr",
          "type": "address"
        }
      ],
      "name": "removeAddressFromWhitelist",
      "outputs": [
        {
          "internalType": "bool",
          "name": "success",
          "type": "bool"
        }
      ],
      "stateMutability": "nonpayable",
      "type": "function"
    },
    {
      "inputs": [
        {
          "internalType": "address[]",
          "name": "addrs",
          "type": "address[]"
        }
      ],
      "name": "removeAddressesFromWhitelist",
      "outputs": [
        {
          "internalType": "bool",
          "name": "success",
          "type": "bool"
        }
      ],
      "stateMutability": "nonpayable",
      "type": "function"
    },
    {
      "inputs": [],
      "name": "renounceOwnership",
      "outputs": [],
      "stateMutability": "nonpayable",
      "type": "function"
    },
    {
      "inputs": [
        {
          "internalType": "bytes32",
          "name": "role",
          "type": "bytes32"
        },
        {
          "internalType": "address",
          "name": "account",
          "type": "address"
        }
      ],
      "name": "renounceRole",
      "outputs": [],
      "stateMutability": "nonpayable",
      "type": "function"
    },
    {
      "inputs": [
        {
          "internalType": "bytes32",
          "name": "role",
          "type": "bytes32"
        },
        {
          "internalType": "address",
          "name": "account",
          "type": "address"
        }
      ],
      "name": "revokeRole",
      "outputs": [],
      "stateMutability": "nonpayable",
      "type": "function"
    },
    {
      "inputs": [],
      "name": "rinkebyUSDCAddress",
      "outputs": [
        {
          "internalType": "address",
          "name": "",
          "type": "address"
        }
      ],
      "stateMutability": "view",
      "type": "function"
    },
    {
      "inputs": [],
      "name": "setLeagueEntryIsClosed",
      "outputs": [],
      "stateMutability": "nonpayable",
      "type": "function"
    },
    {
      "inputs": [],
      "name": "setLeagueSchedule",
      "outputs": [],
      "stateMutability": "nonpayable",
      "type": "function"
    },
    {
      "inputs": [
        {
          "internalType": "uint256[]",
          "name": "athleteIds",
          "type": "uint256[]"
        }
      ],
      "name": "setLineup",
      "outputs": [],
      "stateMutability": "nonpayable",
      "type": "function"
    },
    {
      "inputs": [],
      "name": "stakeAmount",
      "outputs": [
        {
          "internalType": "uint256",
          "name": "",
          "type": "uint256"
        }
      ],
      "stateMutability": "view",
      "type": "function"
    },
    {
      "inputs": [
        {
          "internalType": "bytes4",
          "name": "interfaceId",
          "type": "bytes4"
        }
      ],
      "name": "supportsInterface",
      "outputs": [
        {
          "internalType": "bool",
          "name": "",
          "type": "bool"
        }
      ],
      "stateMutability": "view",
      "type": "function"
    },
    {
      "inputs": [
        {
          "internalType": "address",
          "name": "newOwner",
          "type": "address"
        }
      ],
      "name": "transferOwnership",
      "outputs": [],
      "stateMutability": "nonpayable",
      "type": "function"
    },
    {
      "inputs": [],
      "name": "unlockLineup",
      "outputs": [],
      "stateMutability": "nonpayable",
      "type": "function"
    },
    {
      "inputs": [
        {
          "internalType": "address",
          "name": "",
          "type": "address"
        },
        {
          "internalType": "uint256",
          "name": "",
          "type": "uint256"
        }
      ],
      "name": "userToRecord",
      "outputs": [
        {
          "internalType": "uint256",
          "name": "",
          "type": "uint256"
        }
      ],
      "stateMutability": "view",
      "type": "function"
    },
    {
      "inputs": [],
      "name": "version",
      "outputs": [
        {
          "internalType": "uint256",
          "name": "",
          "type": "uint256"
        }
      ],
      "stateMutability": "view",
      "type": "function"
    },
    {
      "inputs": [
        {
          "internalType": "address",
          "name": "",
          "type": "address"
        }
      ],
      "name": "whitelist",
      "outputs": [
        {
          "internalType": "bool",
          "name": "",
          "type": "bool"
        }
      ],
      "stateMutability": "view",
      "type": "function"
    }
  ],
  "bytecode": "0x60806040523480156200001157600080fd5b5062000032620000266200003860201b60201c565b6200004060201b60201c565b62000105565b600033905090565b60008060029054906101000a900473ffffffffffffffffffffffffffffffffffffffff16905081600060026101000a81548173ffffffffffffffffffffffffffffffffffffffff021916908373ffffffffffffffffffffffffffffffffffffffff1602179055508173ffffffffffffffffffffffffffffffffffffffff168173ffffffffffffffffffffffffffffffffffffffff167f8be0079c531659141344cd1fd0a4f28419497f9722a3daafe3b4186f6b6457e060405160405180910390a35050565b61502a80620001156000396000f3fe60806040523480156200001157600080fd5b5060043610620002df5760003560e01c8063722580b61162000189578063a2bc091a11620000e1578063dc9a15351162000093578063dc9a1535146200089a578063e2ec6ec314620008bc578063e4c9066b14620008f2578063f2fde38b14620008fe578063f612121a146200091e578063f8816045146200093e57620002df565b8063a2bc091a1462000812578063ada3a28d146200081e578063c8be3b5b1462000840578063c99fea94146200084c578063cdbba4c61462000858578063d547741f146200087a57620002df565b806391d14854116200013b57806391d14854146200072057806393f3706c146200075657806399a6003414620007785780639b19251a146200079a5780639f2d548114620007d0578063a217fddf14620007f057620002df565b8063722580b61462000642578063747b805014620006645780637b9417c814620006845780637eed33f114620006ba578063841abf6e14620006dc5780638da5cb5b14620006fe57620002df565b806336568abe116200023d5780635d514d6911620001ef5780635d514d69146200058e5780635fcc698714620005ae57806360c7dc4714620005d05780636e9960c314620005f25780636fd71a181462000614578063715018a6146200063657620002df565b806336568abe14620004c45780633cfd1ccc14620004e4578063403570c5146200050657806352e6e5f3146200052857806354fd4d50146200054a578063595b1a3e146200056c57620002df565b8063248a9ca31162000297578063248a9ca314620003c057806324953eaa14620003f6578063267175db146200042c578063286dd3f514620004625780632cf0a1fc14620004985780632f2ff15d14620004a457620002df565b8062b2476f14620002e457806301ffc9a714620003065780630655465a146200033c578063087e18a714620003485780630c6f795914620003685780630d8e6e2c146200039e575b600080fd5b620002ee62000960565b604051620002fd91906200368a565b60405180910390f35b6200032460048036038101906200031e9190620030da565b62000986565b60405162000333919062003753565b60405180910390f35b6200034662000a03565b005b62000366600480360381019062000360919062002f14565b62000abb565b005b62000386600480360381019062000380919062002f46565b62000c3f565b604051620003959190620038f3565b60405180910390f35b620003a862000c68565b604051620003b79190620038f3565b60405180910390f35b620003de6004803603810190620003d8919062003061565b62000c6d565b604051620003ed919062003770565b60405180910390f35b6200041460048036038101906200040e919062002f8d565b62000c8d565b60405162000423919062003753565b60405180910390f35b6200044a600480360381019062000444919062003226565b62000d8a565b6040516200045991906200368a565b60405180910390f35b6200048060048036038101906200047a919062002f14565b62000dca565b6040516200048f919062003753565b60405180910390f35b620004a262000f59565b005b620004c26004803603810190620004bc919062003093565b62000f77565b005b620004e26004803603810190620004dc919062003093565b62000fa8565b005b620004ee62001032565b604051620004fd9190620038f3565b60405180910390f35b62000510620010ea565b6040516200051f9190620037e1565b60405180910390f35b6200053262001184565b604051620005419190620038f3565b60405180910390f35b620005546200118a565b604051620005639190620038f3565b60405180910390f35b6200057662001190565b604051620005859190620038f3565b60405180910390f35b620005ac6004803603810190620005a691906200310c565b6200119d565b005b620005b862001572565b604051620005c79190620038f3565b60405180910390f35b620005da6200162a565b604051620005e99190620038f3565b60405180910390f35b620005fc62001630565b6040516200060b91906200368a565b60405180910390f35b6200061e6200165a565b6040516200062d919062003711565b60405180910390f35b62000640620016e6565b005b6200064c62001777565b6040516200065b9190620038f3565b60405180910390f35b6200068260048036038101906200067c919062002f14565b62001781565b005b620006a260048036038101906200069c919062002f14565b62001851565b604051620006b1919062003753565b60405180910390f35b620006c4620019df565b604051620006d39190620038f3565b60405180910390f35b620006e6620019e5565b604051620006f59190620037e1565b60405180910390f35b6200070862001a7b565b6040516200071791906200368a565b60405180910390f35b6200073e600480360381019062000738919062003093565b62001aa4565b6040516200074d919062003753565b60405180910390f35b6200076062001b0f565b6040516200076f91906200368a565b60405180910390f35b6200078262001b35565b604051620007919190620038f3565b60405180910390f35b620007b86004803603810190620007b2919062002f14565b62001b51565b604051620007c7919062003753565b60405180910390f35b620007ee6004803603810190620007e8919062003226565b62001b71565b005b620007fa62001c30565b60405162000809919062003770565b60405180910390f35b6200081c62001c37565b005b6200082862001cd7565b6040516200083791906200372f565b60405180910390f35b6200084a62001d6e565b005b6200085662001e0e565b005b620008626200202c565b6040516200087191906200368a565b60405180910390f35b62000898600480360381019062000892919062003093565b62002056565b005b620008a462002087565b604051620008b3919062003753565b60405180910390f35b620008da6004803603810190620008d4919062002f8d565b6200209a565b604051620008e9919062003753565b60405180910390f35b620008fc62002197565b005b6200091c600480360381019062000916919062002f14565b62002237565b005b6200093c600480360381019062000936919062002fde565b6200233b565b005b62000948620023e7565b60405162000957919062003711565b60405180910390f35b601260009054906101000a900473ffffffffffffffffffffffffffffffffffffffff1681565b60007f7965db0b000000000000000000000000000000000000000000000000000000007bffffffffffffffffffffffffffffffffffffffffffffffffffffffff1916827bffffffffffffffffffffffffffffffffffffffffffffffffffffffff19161480620009fc5750620009fb8262002473565b5b9050919050565b62000a436040518060400160405280601081526020017f73657474696e67207363686564756c6500000000000000000000000000000000815250620024dd565b73__$36fdb4e0c2cb91f3ceca5ea81b025328f3$__63d2c232b56010600960075460066040518563ffffffff1660e01b815260040162000a8794939291906200378d565b60006040518083038186803b15801562000aa057600080fd5b505af415801562000ab5573d6000803e3d6000fd5b50505050565b600d60009054906101000a900460ff161562000b0e576040517f08c379a000000000000000000000000000000000000000000000000000000000815260040162000b0590620038af565b60405180910390fd5b6008600980549050101562000c17576009819080600181540180825580915050600190039060005260206000200160009091909190916101000a81548173ffffffffffffffffffffffffffffffffffffffff021916908373ffffffffffffffffffffffffffffffffffffffff160217905550601560009054906101000a900473ffffffffffffffffffffffffffffffffffffffff1673ffffffffffffffffffffffffffffffffffffffff1663771bd4ce826040518263ffffffff1660e01b815260040162000bdd91906200368a565b600060405180830381600087803b15801562000bf857600080fd5b505af115801562000c0d573d6000803e3d6000fd5b5050505062000c3c565b62000c3b60405180606001604052806028815260200162004fcd60289139620024dd565b5b50565b600c602052816000526040600020816008811062000c5c57600080fd5b01600091509150505481565b600090565b600060016000838152602001908152602001600020600101549050919050565b600062000c996200257a565b73ffffffffffffffffffffffffffffffffffffffff1662000cb962001a7b565b73ffffffffffffffffffffffffffffffffffffffff161462000d12576040517f08c379a000000000000000000000000000000000000000000000000000000000815260040162000d09906200388d565b60405180910390fd5b60005b825181101562000d845762000d4783828151811062000d395762000d3862003d40565b5b602002602001015162000dca565b1562000d6e5760016003600082825462000d62919062003b08565b92505081905550600191505b808062000d7b9062003c94565b91505062000d15565b50919050565b6009818154811062000d9b57600080fd5b906000526020600020016000915054906101000a900473ffffffffffffffffffffffffffffffffffffffff1681565b600062000dd66200257a565b73ffffffffffffffffffffffffffffffffffffffff1662000df662001a7b565b73ffffffffffffffffffffffffffffffffffffffff161462000e4f576040517f08c379a000000000000000000000000000000000000000000000000000000000815260040162000e46906200388d565b60405180910390fd5b600260008373ffffffffffffffffffffffffffffffffffffffff1673ffffffffffffffffffffffffffffffffffffffff16815260200190815260200160002060009054906101000a900460ff161562000f54576000600260008473ffffffffffffffffffffffffffffffffffffffff1673ffffffffffffffffffffffffffffffffffffffff16815260200190815260200160002060006101000a81548160ff0219169083151502179055507ff1abf01a1043b7c244d128e8595cf0c1d10743b022b03a02dffd8ca3bf729f5a8260405162000f2b91906200368a565b60405180910390a160016003600082825462000f48919062003b08565b92505081905550600190505b919050565b60016005600082825462000f6e919062003a4a565b92505081905550565b62000f828262000c6d565b62000f978162000f916200257a565b62002582565b62000fa383836200262a565b505050565b62000fb26200257a565b73ffffffffffffffffffffffffffffffffffffffff168173ffffffffffffffffffffffffffffffffffffffff161462001022576040517f08c379a00000000000000000000000000000000000000000000000000000000081526004016200101990620038d1565b60405180910390fd5b6200102e82826200270f565b5050565b6000601660009054906101000a900473ffffffffffffffffffffffffffffffffffffffff1673ffffffffffffffffffffffffffffffffffffffff166370a08231306040518263ffffffff1660e01b81526004016200109191906200368a565b60206040518083038186803b158015620010aa57600080fd5b505afa158015620010bf573d6000803e3d6000fd5b505050506040513d601f19601f82011682018060405250810190620010e5919062003258565b905090565b606060068054620010fb9062003c28565b80601f0160208091040260200160405190810160405280929190818152602001828054620011299062003c28565b80156200117a5780601f106200114e576101008083540402835291602001916200117a565b820191906000526020600020905b8154815290600101906020018083116200115c57829003601f168201915b5050505050905090565b60085481565b60055481565b6000600980549050905090565b600060019054906101000a900460ff16620011c75760008054906101000a900460ff1615620011d2565b620011d1620027f6565b5b62001214576040517f08c379a00000000000000000000000000000000000000000000000000000000081526004016200120b906200386b565b60405180910390fd5b60008060019054906101000a900460ff16159050801562001265576001600060016101000a81548160ff02191690831515021790555060016000806101000a81548160ff0219169083151502179055505b896005819055508b8b600691906200127f92919062002b85565b506008600781905550620012976000801b8762002809565b6009869080600181540180825580915050600190039060005260206000200160009091909190916101000a81548173ffffffffffffffffffffffffffffffffffffffff021916908373ffffffffffffffffffffffffffffffffffffffff16021790555088600f8190555087600460006101000a81548160ff0219169083151502179055506000600d60016101000a81548160ff0219169083151502179055506000600d60006101000a81548160ff02191690831515021790555086601360006101000a81548173ffffffffffffffffffffffffffffffffffffffff021916908373ffffffffffffffffffffffffffffffffffffffff16021790555082601560006101000a81548173ffffffffffffffffffffffffffffffffffffffff021916908373ffffffffffffffffffffffffffffffffffffffff160217905550604051620013e19062002c16565b604051809103906000f080158015620013fe573d6000803e3d6000fd5b50601460006101000a81548173ffffffffffffffffffffffffffffffffffffffff021916908373ffffffffffffffffffffffffffffffffffffffff16021790555084601160006101000a81548173ffffffffffffffffffffffffffffffffffffffff021916908373ffffffffffffffffffffffffffffffffffffffff16021790555083601260006101000a81548173ffffffffffffffffffffffffffffffffffffffff021916908373ffffffffffffffffffffffffffffffffffffffff16021790555081601660006101000a81548173ffffffffffffffffffffffffffffffffffffffff021916908373ffffffffffffffffffffffffffffffffffffffff160217905550620015426040518060400160405280601281526020017f50726f787920696e697469616c697a6564210000000000000000000000000000815250620024dd565b8015620015645760008060016101000a81548160ff0219169083151502179055505b505050505050505050505050565b6000601660009054906101000a900473ffffffffffffffffffffffffffffffffffffffff1673ffffffffffffffffffffffffffffffffffffffff166370a08231336040518263ffffffff1660e01b8152600401620015d191906200368a565b60206040518083038186803b158015620015ea57600080fd5b505afa158015620015ff573d6000803e3d6000fd5b505050506040513d601f19601f8201168201806040525081019062001625919062003258565b905090565b600f5481565b6000600a60009054906101000a900473ffffffffffffffffffffffffffffffffffffffff16905090565b6200166462002c24565b600c60003373ffffffffffffffffffffffffffffffffffffffff1673ffffffffffffffffffffffffffffffffffffffff168152602001908152602001600020600880602002604051908101604052809291908260088015620016dc576020028201915b815481526020019060010190808311620016c7575b5050505050905090565b620016f06200257a565b73ffffffffffffffffffffffffffffffffffffffff166200171062001a7b565b73ffffffffffffffffffffffffffffffffffffffff161462001769576040517f08c379a000000000000000000000000000000000000000000000000000000000815260040162001760906200388d565b60405180910390fd5b62001775600062002819565b565b6000600f54905090565b620017906000801b3362001aa4565b6200179a57600080fd5b601460009054906101000a900473ffffffffffffffffffffffffffffffffffffffff1673ffffffffffffffffffffffffffffffffffffffff16637b9417c8826040518263ffffffff1660e01b8152600401620017f791906200368a565b602060405180830381600087803b1580156200181257600080fd5b505af115801562001827573d6000803e3d6000fd5b505050506040513d601f19601f820116820180604052508101906200184d91906200302f565b5050565b60006200185d6200257a565b73ffffffffffffffffffffffffffffffffffffffff166200187d62001a7b565b73ffffffffffffffffffffffffffffffffffffffff1614620018d6576040517f08c379a0000000000000000000000000000000000000000000000000000000008152600401620018cd906200388d565b60405180910390fd5b600260008373ffffffffffffffffffffffffffffffffffffffff1673ffffffffffffffffffffffffffffffffffffffff16815260200190815260200160002060009054906101000a900460ff16620019da576001600260008473ffffffffffffffffffffffffffffffffffffffff1673ffffffffffffffffffffffffffffffffffffffff16815260200190815260200160002060006101000a81548160ff0219169083151502179055507fd1bba68c128cc3f427e5831b3c6f99f480b6efa6b9e80c757768f6124158cc3f82604051620019b191906200368a565b60405180910390a1600160036000828254620019ce919062003a4a565b92505081905550600190505b919050565b60075481565b60068054620019f49062003c28565b80601f016020809104026020016040519081016040528092919081815260200182805462001a229062003c28565b801562001a735780601f1062001a475761010080835404028352916020019162001a73565b820191906000526020600020905b81548152906001019060200180831162001a5557829003601f168201915b505050505081565b60008060029054906101000a900473ffffffffffffffffffffffffffffffffffffffff16905090565b60006001600084815260200190815260200160002060000160008373ffffffffffffffffffffffffffffffffffffffff1673ffffffffffffffffffffffffffffffffffffffff16815260200190815260200160002060009054906101000a900460ff16905092915050565b601160009054906101000a900473ffffffffffffffffffffffffffffffffffffffff1681565b6000600980549050600f5462001b4c919062003aa7565b905090565b60026020528060005260406000206000915054906101000a900460ff1681565b62001b7b6200257a565b73ffffffffffffffffffffffffffffffffffffffff1662001b9b62001a7b565b73ffffffffffffffffffffffffffffffffffffffff161462001bf4576040517f08c379a000000000000000000000000000000000000000000000000000000000815260040162001beb906200388d565b60405180910390fd5b60005b601060008381526020019081526020016000208054905081101562001c2c57808062001c239062003c94565b91505062001bf7565b5050565b6000801b81565b62001c416200257a565b73ffffffffffffffffffffffffffffffffffffffff1662001c6162001a7b565b73ffffffffffffffffffffffffffffffffffffffff161462001cba576040517f08c379a000000000000000000000000000000000000000000000000000000000815260040162001cb1906200388d565b60405180910390fd5b6000600d60016101000a81548160ff021916908315150217905550565b6060600e60003373ffffffffffffffffffffffffffffffffffffffff1673ffffffffffffffffffffffffffffffffffffffff16815260200190815260200160002080548060200260200160405190810160405280929190818152602001828054801562001d6457602002820191906000526020600020905b81548152602001906001019080831162001d4f575b5050505050905090565b62001d786200257a565b73ffffffffffffffffffffffffffffffffffffffff1662001d9862001a7b565b73ffffffffffffffffffffffffffffffffffffffff161462001df1576040517f08c379a000000000000000000000000000000000000000000000000000000000815260040162001de8906200388d565b60405180910390fd5b6001600d60016101000a81548160ff021916908315150217905550565b600260003373ffffffffffffffffffffffffffffffffffffffff1673ffffffffffffffffffffffffffffffffffffffff16815260200190815260200160002060009054906101000a900460ff168062001e735750600460009054906101000a900460ff165b62001e7d57600080fd5b600d60009054906101000a900460ff161562001ed0576040517f08c379a000000000000000000000000000000000000000000000000000000000815260040162001ec790620038af565b60405180910390fd5b6009339080600181540180825580915050600190039060005260206000200160009091909190916101000a81548173ffffffffffffffffffffffffffffffffffffffff021916908373ffffffffffffffffffffffffffffffffffffffff160217905550601660009054906101000a900473ffffffffffffffffffffffffffffffffffffffff1673ffffffffffffffffffffffffffffffffffffffff166323b872dd3330600f546040518463ffffffff1660e01b815260040162001f9693929190620036a7565b602060405180830381600087803b15801562001fb157600080fd5b505af115801562001fc6573d6000803e3d6000fd5b505050506040513d601f19601f8201168201806040525081019062001fec91906200302f565b507f9e71bc8eea02a63969f509818f2dafb9254532904319f9dbda79b67bd34a5f3d33600f5460405162002022929190620036e4565b60405180910390a1565b6000601660009054906101000a900473ffffffffffffffffffffffffffffffffffffffff16905090565b620020618262000c6d565b6200207681620020706200257a565b62002582565b6200208283836200270f565b505050565b600460009054906101000a900460ff1681565b6000620020a66200257a565b73ffffffffffffffffffffffffffffffffffffffff16620020c662001a7b565b73ffffffffffffffffffffffffffffffffffffffff16146200211f576040517f08c379a000000000000000000000000000000000000000000000000000000000815260040162002116906200388d565b60405180910390fd5b60005b825181101562002191576200215483828151811062002146576200214562003d40565b5b602002602001015162001851565b156200217b576001600360008282546200216f919062003a4a565b92505081905550600191505b8080620021889062003c94565b91505062002122565b50919050565b620021a16200257a565b73ffffffffffffffffffffffffffffffffffffffff16620021c162001a7b565b73ffffffffffffffffffffffffffffffffffffffff16146200221a576040517f08c379a000000000000000000000000000000000000000000000000000000000815260040162002211906200388d565b60405180910390fd5b6001600d60006101000a81548160ff021916908315150217905550565b620022416200257a565b73ffffffffffffffffffffffffffffffffffffffff166200226162001a7b565b73ffffffffffffffffffffffffffffffffffffffff1614620022ba576040517f08c379a0000000000000000000000000000000000000000000000000000000008152600401620022b1906200388d565b60405180910390fd5b600073ffffffffffffffffffffffffffffffffffffffff168173ffffffffffffffffffffffffffffffffffffffff1614156200232d576040517f08c379a0000000000000000000000000000000000000000000000000000000008152600401620023249062003827565b60405180910390fd5b620023388162002819565b50565b600d60019054906101000a900460ff16156200238e576040517f08c379a0000000000000000000000000000000000000000000000000000000008152600401620023859062003849565b60405180910390fd5b80600e60003373ffffffffffffffffffffffffffffffffffffffff1673ffffffffffffffffffffffffffffffffffffffff1681526020019081526020016000209080519060200190620023e392919062002c47565b5050565b620023f162002c24565b600c60003373ffffffffffffffffffffffffffffffffffffffff1673ffffffffffffffffffffffffffffffffffffffff16815260200190815260200160002060088060200260405190810160405280929190826008801562002469576020028201915b81548152602001906001019080831162002454575b5050505050905090565b60007f01ffc9a7000000000000000000000000000000000000000000000000000000007bffffffffffffffffffffffffffffffffffffffffffffffffffffffff1916827bffffffffffffffffffffffffffffffffffffffffffffffffffffffff1916149050919050565b6200257781604051602401620024f49190620037e1565b6040516020818303038152906040527f41304fac000000000000000000000000000000000000000000000000000000007bffffffffffffffffffffffffffffffffffffffffffffffffffffffff19166020820180517bffffffffffffffffffffffffffffffffffffffffffffffffffffffff8381831617835250505050620028de565b50565b600033905090565b6200258e828262001aa4565b6200262657620025b68173ffffffffffffffffffffffffffffffffffffffff16601462002907565b620025c68360001c602062002907565b604051602001620025d992919062003648565b6040516020818303038152906040526040517f08c379a00000000000000000000000000000000000000000000000000000000081526004016200261d9190620037e1565b60405180910390fd5b5050565b62002636828262001aa4565b6200270b57600180600084815260200190815260200160002060000160008373ffffffffffffffffffffffffffffffffffffffff1673ffffffffffffffffffffffffffffffffffffffff16815260200190815260200160002060006101000a81548160ff021916908315150217905550620026b06200257a565b73ffffffffffffffffffffffffffffffffffffffff168173ffffffffffffffffffffffffffffffffffffffff16837f2f8788117e7eff1d82e926ec794901d17c78024a50270940304540a733656f0d60405160405180910390a45b5050565b6200271b828262001aa4565b15620027f25760006001600084815260200190815260200160002060000160008373ffffffffffffffffffffffffffffffffffffffff1673ffffffffffffffffffffffffffffffffffffffff16815260200190815260200160002060006101000a81548160ff021916908315150217905550620027976200257a565b73ffffffffffffffffffffffffffffffffffffffff168173ffffffffffffffffffffffffffffffffffffffff16837ff6391f5c32d9c69d2a47ea670b442974b53935d1edc7fd64eb21e047a839171b60405160405180910390a45b5050565b6000620028033062002b62565b15905090565b6200281582826200262a565b5050565b60008060029054906101000a900473ffffffffffffffffffffffffffffffffffffffff16905081600060026101000a81548173ffffffffffffffffffffffffffffffffffffffff021916908373ffffffffffffffffffffffffffffffffffffffff1602179055508173ffffffffffffffffffffffffffffffffffffffff168173ffffffffffffffffffffffffffffffffffffffff167f8be0079c531659141344cd1fd0a4f28419497f9722a3daafe3b4186f6b6457e060405160405180910390a35050565b60008151905060006a636f6e736f6c652e6c6f679050602083016000808483855afa5050505050565b6060600060028360026200291c919062003aa7565b62002928919062003a4a565b67ffffffffffffffff81111562002944576200294362003d6f565b5b6040519080825280601f01601f191660200182016040528015620029775781602001600182028036833780820191505090505b5090507f300000000000000000000000000000000000000000000000000000000000000081600081518110620029b257620029b162003d40565b5b60200101907effffffffffffffffffffffffffffffffffffffffffffffffffffffffffffff1916908160001a9053507f78000000000000000000000000000000000000000000000000000000000000008160018151811062002a195762002a1862003d40565b5b60200101907effffffffffffffffffffffffffffffffffffffffffffffffffffffffffffff1916908160001a9053506000600184600262002a5b919062003aa7565b62002a67919062003a4a565b90505b600181111562002b11577f3031323334353637383961626364656600000000000000000000000000000000600f86166010811062002aad5762002aac62003d40565b5b1a60f81b82828151811062002ac75762002ac662003d40565b5b60200101907effffffffffffffffffffffffffffffffffffffffffffffffffffffffffffff1916908160001a905350600485901c94508062002b099062003bf9565b905062002a6a565b506000841462002b58576040517f08c379a000000000000000000000000000000000000000000000000000000000815260040162002b4f9062003805565b60405180910390fd5b8091505092915050565b6000808273ffffffffffffffffffffffffffffffffffffffff163b119050919050565b82805462002b939062003c28565b90600052602060002090601f01602090048101928262002bb7576000855562002c03565b82601f1062002bd257803560ff191683800117855562002c03565b8280016001018555821562002c03579182015b8281111562002c0257823582559160200191906001019062002be5565b5b50905062002c12919062002c99565b5090565b610f9f806200402e83390190565b604051806101000160405280600890602082028036833780820191505090505090565b82805482825590600052602060002090810192821562002c86579160200282015b8281111562002c8557825182559160200191906001019062002c68565b5b50905062002c95919062002c99565b5090565b5b8082111562002cb457600081600090555060010162002c9a565b5090565b600062002ccf62002cc98462003939565b62003910565b9050808382526020820190508285602086028201111562002cf55762002cf462003da8565b5b60005b8581101562002d29578162002d0e888262002dae565b84526020840193506020830192505060018101905062002cf8565b5050509392505050565b600062002d4a62002d448462003968565b62003910565b9050808382526020820190508285602086028201111562002d705762002d6f62003da8565b5b60005b8581101562002da4578162002d89888262002ee6565b84526020840193506020830192505060018101905062002d73565b5050509392505050565b60008135905062002dbf8162003fab565b92915050565b600082601f83011262002ddd5762002ddc62003da3565b5b813562002def84826020860162002cb8565b91505092915050565b600082601f83011262002e105762002e0f62003da3565b5b813562002e2284826020860162002d33565b91505092915050565b60008135905062002e3c8162003fc5565b92915050565b60008151905062002e538162003fc5565b92915050565b60008135905062002e6a8162003fdf565b92915050565b60008135905062002e818162003ff9565b92915050565b60008083601f84011262002ea05762002e9f62003da3565b5b8235905067ffffffffffffffff81111562002ec05762002ebf62003d9e565b5b60208301915083600182028301111562002edf5762002ede62003da8565b5b9250929050565b60008135905062002ef78162004013565b92915050565b60008151905062002f0e8162004013565b92915050565b60006020828403121562002f2d5762002f2c62003db2565b5b600062002f3d8482850162002dae565b91505092915050565b6000806040838503121562002f605762002f5f62003db2565b5b600062002f708582860162002dae565b925050602062002f838582860162002ee6565b9150509250929050565b60006020828403121562002fa65762002fa562003db2565b5b600082013567ffffffffffffffff81111562002fc75762002fc662003dad565b5b62002fd58482850162002dc5565b91505092915050565b60006020828403121562002ff75762002ff662003db2565b5b600082013567ffffffffffffffff81111562003018576200301762003dad565b5b620030268482850162002df8565b91505092915050565b60006020828403121562003048576200304762003db2565b5b6000620030588482850162002e42565b91505092915050565b6000602082840312156200307a576200307962003db2565b5b60006200308a8482850162002e59565b91505092915050565b60008060408385031215620030ad57620030ac62003db2565b5b6000620030bd8582860162002e59565b9250506020620030d08582860162002dae565b9150509250929050565b600060208284031215620030f357620030f262003db2565b5b6000620031038482850162002e70565b91505092915050565b60008060008060008060008060008060006101408c8e03121562003135576200313462003db2565b5b60008c013567ffffffffffffffff81111562003156576200315562003dad565b5b620031648e828f0162002e87565b9b509b50506020620031798e828f0162002ee6565b99505060406200318c8e828f0162002ee6565b98505060606200319f8e828f0162002e2b565b9750506080620031b28e828f0162002dae565b96505060a0620031c58e828f0162002dae565b95505060c0620031d88e828f0162002dae565b94505060e0620031eb8e828f0162002dae565b935050610100620031ff8e828f0162002dae565b925050610120620032138e828f0162002dae565b9150509295989b509295989b9093969950565b6000602082840312156200323f576200323e62003db2565b5b60006200324f8482850162002ee6565b91505092915050565b60006020828403121562003271576200327062003db2565b5b6000620032818482850162002efd565b91505092915050565b600062003298838362003615565b60208301905092915050565b620032af8162003b43565b82525050565b8082525050565b620032c781620039c6565b620032d3818462003a01565b9250620032e08262003997565b8060005b8381101562003317578151620032fb87826200328a565b96506200330883620039e7565b925050600181019050620032e4565b505050505050565b60006200332c82620039d1565b62003338818562003a0c565b93506200334583620039a1565b8060005b838110156200337c5781516200336088826200328a565b97506200336d83620039f4565b92505060018101905062003349565b5085935050505092915050565b620033948162003b57565b82525050565b620033a58162003b63565b82525050565b8082525050565b6000620033bf82620039dc565b620033cb818562003a1d565b9350620033dd81856020860162003bc3565b620033e88162003db7565b840191505092915050565b60006200340082620039dc565b6200340c818562003a3f565b93506200341e81856020860162003bc3565b80840191505092915050565b60008154620034398162003c28565b62003445818662003a2e565b945060018216600081146200346357600181146200347657620034ad565b60ff1983168652602086019350620034ad565b6200348185620039b1565b60005b83811015620034a55781548189015260018201915060208101905062003484565b808801955050505b50505092915050565b6000620034c560208362003a1d565b9150620034d28262003dc8565b602082019050919050565b6000620034ec60268362003a1d565b9150620034f98262003df1565b604082019050919050565b600062003513601e8362003a1d565b9150620035208262003e40565b602082019050919050565b60006200353a602e8362003a1d565b9150620035478262003e69565b604082019050919050565b60006200356160208362003a1d565b91506200356e8262003eb8565b602082019050919050565b60006200358860178362003a3f565b9150620035958262003ee1565b601782019050919050565b6000620035af60178362003a1d565b9150620035bc8262003f0a565b602082019050919050565b6000620035d660118362003a3f565b9150620035e38262003f33565b601182019050919050565b6000620035fd602f8362003a1d565b91506200360a8262003f5c565b604082019050919050565b620036208162003bb9565b82525050565b620036318162003bb9565b82525050565b620036428162003bb9565b82525050565b6000620036558262003579565b9150620036638285620033f3565b91506200367082620035c7565b91506200367e8284620033f3565b91508190509392505050565b6000602082019050620036a16000830184620032a4565b92915050565b6000606082019050620036be6000830186620032a4565b620036cd6020830185620032a4565b620036dc604083018462003626565b949350505050565b6000604082019050620036fb6000830185620032a4565b6200370a602083018462003626565b9392505050565b600061010082019050620037296000830184620032bc565b92915050565b600060208201905081810360008301526200374b81846200331f565b905092915050565b60006020820190506200376a600083018462003389565b92915050565b60006020820190506200378760008301846200339a565b92915050565b6000608082019050620037a46000830187620033ab565b620037b36020830186620032b5565b620037c2604083018562003637565b8181036060830152620037d681846200342a565b905095945050505050565b60006020820190508181036000830152620037fd8184620033b2565b905092915050565b600060208201905081810360008301526200382081620034b6565b9050919050565b600060208201905081810360008301526200384281620034dd565b9050919050565b60006020820190508181036000830152620038648162003504565b9050919050565b6000602082019050818103600083015262003886816200352b565b9050919050565b60006020820190508181036000830152620038a88162003552565b9050919050565b60006020820190508181036000830152620038ca81620035a0565b9050919050565b60006020820190508181036000830152620038ec81620035ee565b9050919050565b60006020820190506200390a600083018462003626565b92915050565b60006200391c6200392f565b90506200392a828262003c5e565b919050565b6000604051905090565b600067ffffffffffffffff82111562003957576200395662003d6f565b5b602082029050602081019050919050565b600067ffffffffffffffff82111562003986576200398562003d6f565b5b602082029050602081019050919050565b6000819050919050565b6000819050602082019050919050565b60008190508160005260206000209050919050565b600060089050919050565b600081519050919050565b600081519050919050565b6000602082019050919050565b6000602082019050919050565b600081905092915050565b600082825260208201905092915050565b600082825260208201905092915050565b600082825260208201905092915050565b600081905092915050565b600062003a578262003bb9565b915062003a648362003bb9565b9250827fffffffffffffffffffffffffffffffffffffffffffffffffffffffffffffffff0382111562003a9c5762003a9b62003ce2565b5b828201905092915050565b600062003ab48262003bb9565b915062003ac18362003bb9565b9250817fffffffffffffffffffffffffffffffffffffffffffffffffffffffffffffffff048311821515161562003afd5762003afc62003ce2565b5b828202905092915050565b600062003b158262003bb9565b915062003b228362003bb9565b92508282101562003b385762003b3762003ce2565b5b828203905092915050565b600062003b508262003b99565b9050919050565b60008115159050919050565b6000819050919050565b60007fffffffff0000000000000000000000000000000000000000000000000000000082169050919050565b600073ffffffffffffffffffffffffffffffffffffffff82169050919050565b6000819050919050565b60005b8381101562003be357808201518184015260208101905062003bc6565b8381111562003bf3576000848401525b50505050565b600062003c068262003bb9565b9150600082141562003c1d5762003c1c62003ce2565b5b600182039050919050565b6000600282049050600182168062003c4157607f821691505b6020821081141562003c585762003c5762003d11565b5b50919050565b62003c698262003db7565b810181811067ffffffffffffffff8211171562003c8b5762003c8a62003d6f565b5b80604052505050565b600062003ca18262003bb9565b91507fffffffffffffffffffffffffffffffffffffffffffffffffffffffffffffffff82141562003cd75762003cd662003ce2565b5b600182019050919050565b7f4e487b7100000000000000000000000000000000000000000000000000000000600052601160045260246000fd5b7f4e487b7100000000000000000000000000000000000000000000000000000000600052602260045260246000fd5b7f4e487b7100000000000000000000000000000000000000000000000000000000600052603260045260246000fd5b7f4e487b7100000000000000000000000000000000000000000000000000000000600052604160045260246000fd5b600080fd5b600080fd5b600080fd5b600080fd5b600080fd5b6000601f19601f8301169050919050565b7f537472696e67733a20686578206c656e67746820696e73756666696369656e74600082015250565b7f4f776e61626c653a206e6577206f776e657220697320746865207a65726f206160008201527f6464726573730000000000000000000000000000000000000000000000000000602082015250565b7f6c696e657570206973206c6f636b656420666f7220746865207765656b210000600082015250565b7f496e697469616c697a61626c653a20636f6e747261637420697320616c72656160008201527f647920696e697469616c697a6564000000000000000000000000000000000000602082015250565b7f4f776e61626c653a2063616c6c6572206973206e6f7420746865206f776e6572600082015250565b7f416363657373436f6e74726f6c3a206163636f756e7420000000000000000000600082015250565b7f4c656167756520456e74727920697320436c6f73656421000000000000000000600082015250565b7f206973206d697373696e6720726f6c6520000000000000000000000000000000600082015250565b7f416363657373436f6e74726f6c3a2063616e206f6e6c792072656e6f756e636560008201527f20726f6c657320666f722073656c660000000000000000000000000000000000602082015250565b62003fb68162003b43565b811462003fc257600080fd5b50565b62003fd08162003b57565b811462003fdc57600080fd5b50565b62003fea8162003b63565b811462003ff657600080fd5b50565b620040048162003b6d565b81146200401057600080fd5b50565b6200401e8162003bb9565b81146200402a57600080fd5b5056fe608060405234801561001057600080fd5b5061002d61002261003260201b60201c565b61003a60201b60201c565b6100fe565b600033905090565b60008060009054906101000a900473ffffffffffffffffffffffffffffffffffffffff169050816000806101000a81548173ffffffffffffffffffffffffffffffffffffffff021916908373ffffffffffffffffffffffffffffffffffffffff1602179055508173ffffffffffffffffffffffffffffffffffffffff168173ffffffffffffffffffffffffffffffffffffffff167f8be0079c531659141344cd1fd0a4f28419497f9722a3daafe3b4186f6b6457e060405160405180910390a35050565b610e928061010d6000396000f3fe608060405234801561001057600080fd5b50600436106100935760003560e01c80638da5cb5b116100665780638da5cb5b146101325780639b19251a14610150578063dc9a153514610180578063e2ec6ec31461019e578063f2fde38b146101ce57610093565b806324953eaa14610098578063286dd3f5146100c8578063715018a6146100f85780637b9417c814610102575b600080fd5b6100b260048036038101906100ad9190610a4a565b6101ea565b6040516100bf9190610b12565b60405180910390f35b6100e260048036038101906100dd9190610a1d565b6102d4565b6040516100ef9190610b12565b60405180910390f35b610100610457565b005b61011c60048036038101906101179190610a1d565b6104df565b6040516101299190610b12565b60405180910390f35b61013a610660565b6040516101479190610af7565b60405180910390f35b61016a60048036038101906101659190610a1d565b610689565b6040516101779190610b12565b60405180910390f35b6101886106a9565b6040516101959190610b12565b60405180910390f35b6101b860048036038101906101b39190610a4a565b6106bc565b6040516101c59190610b12565b60405180910390f35b6101e860048036038101906101e39190610a1d565b6107a6565b005b60006101f461089e565b73ffffffffffffffffffffffffffffffffffffffff16610212610660565b73ffffffffffffffffffffffffffffffffffffffff1614610268576040517f08c379a000000000000000000000000000000000000000000000000000000000815260040161025f90610b4d565b60405180910390fd5b60005b82518110156102ce5761029783828151811061028a57610289610d4a565b5b60200260200101516102d4565b156102bb576001600260008282546102af9190610c25565b92505081905550600191505b80806102c690610cd2565b91505061026b565b50919050565b60006102de61089e565b73ffffffffffffffffffffffffffffffffffffffff166102fc610660565b73ffffffffffffffffffffffffffffffffffffffff1614610352576040517f08c379a000000000000000000000000000000000000000000000000000000000815260040161034990610b4d565b60405180910390fd5b600160008373ffffffffffffffffffffffffffffffffffffffff1673ffffffffffffffffffffffffffffffffffffffff16815260200190815260200160002060009054906101000a900460ff1615610452576000600160008473ffffffffffffffffffffffffffffffffffffffff1673ffffffffffffffffffffffffffffffffffffffff16815260200190815260200160002060006101000a81548160ff0219169083151502179055507ff1abf01a1043b7c244d128e8595cf0c1d10743b022b03a02dffd8ca3bf729f5a8260405161042b9190610af7565b60405180910390a16001600260008282546104469190610c25565b92505081905550600190505b919050565b61045f61089e565b73ffffffffffffffffffffffffffffffffffffffff1661047d610660565b73ffffffffffffffffffffffffffffffffffffffff16146104d3576040517f08c379a00000000000000000000000000000000000000000000000000000000081526004016104ca90610b4d565b60405180910390fd5b6104dd60006108a6565b565b60006104e961089e565b73ffffffffffffffffffffffffffffffffffffffff16610507610660565b73ffffffffffffffffffffffffffffffffffffffff161461055d576040517f08c379a000000000000000000000000000000000000000000000000000000000815260040161055490610b4d565b60405180910390fd5b600160008373ffffffffffffffffffffffffffffffffffffffff1673ffffffffffffffffffffffffffffffffffffffff16815260200190815260200160002060009054906101000a900460ff1661065b5760018060008473ffffffffffffffffffffffffffffffffffffffff1673ffffffffffffffffffffffffffffffffffffffff16815260200190815260200160002060006101000a81548160ff0219169083151502179055507fd1bba68c128cc3f427e5831b3c6f99f480b6efa6b9e80c757768f6124158cc3f826040516106349190610af7565b60405180910390a160016002600082825461064f9190610bcf565b92505081905550600190505b919050565b60008060009054906101000a900473ffffffffffffffffffffffffffffffffffffffff16905090565b60016020528060005260406000206000915054906101000a900460ff1681565b600360009054906101000a900460ff1681565b60006106c661089e565b73ffffffffffffffffffffffffffffffffffffffff166106e4610660565b73ffffffffffffffffffffffffffffffffffffffff161461073a576040517f08c379a000000000000000000000000000000000000000000000000000000000815260040161073190610b4d565b60405180910390fd5b60005b82518110156107a05761076983828151811061075c5761075b610d4a565b5b60200260200101516104df565b1561078d576001600260008282546107819190610bcf565b92505081905550600191505b808061079890610cd2565b91505061073d565b50919050565b6107ae61089e565b73ffffffffffffffffffffffffffffffffffffffff166107cc610660565b73ffffffffffffffffffffffffffffffffffffffff1614610822576040517f08c379a000000000000000000000000000000000000000000000000000000000815260040161081990610b4d565b60405180910390fd5b600073ffffffffffffffffffffffffffffffffffffffff168173ffffffffffffffffffffffffffffffffffffffff161415610892576040517f08c379a000000000000000000000000000000000000000000000000000000000815260040161088990610b2d565b60405180910390fd5b61089b816108a6565b50565b600033905090565b60008060009054906101000a900473ffffffffffffffffffffffffffffffffffffffff169050816000806101000a81548173ffffffffffffffffffffffffffffffffffffffff021916908373ffffffffffffffffffffffffffffffffffffffff1602179055508173ffffffffffffffffffffffffffffffffffffffff168173ffffffffffffffffffffffffffffffffffffffff167f8be0079c531659141344cd1fd0a4f28419497f9722a3daafe3b4186f6b6457e060405160405180910390a35050565b600061097d61097884610b92565b610b6d565b905080838252602082019050828560208602820111156109a05761099f610dad565b5b60005b858110156109d057816109b688826109da565b8452602084019350602083019250506001810190506109a3565b5050509392505050565b6000813590506109e981610e45565b92915050565b600082601f830112610a0457610a03610da8565b5b8135610a1484826020860161096a565b91505092915050565b600060208284031215610a3357610a32610db7565b5b6000610a41848285016109da565b91505092915050565b600060208284031215610a6057610a5f610db7565b5b600082013567ffffffffffffffff811115610a7e57610a7d610db2565b5b610a8a848285016109ef565b91505092915050565b610a9c81610c59565b82525050565b610aab81610c6b565b82525050565b6000610abe602683610bbe565b9150610ac982610dcd565b604082019050919050565b6000610ae1602083610bbe565b9150610aec82610e1c565b602082019050919050565b6000602082019050610b0c6000830184610a93565b92915050565b6000602082019050610b276000830184610aa2565b92915050565b60006020820190508181036000830152610b4681610ab1565b9050919050565b60006020820190508181036000830152610b6681610ad4565b9050919050565b6000610b77610b88565b9050610b838282610ca1565b919050565b6000604051905090565b600067ffffffffffffffff821115610bad57610bac610d79565b5b602082029050602081019050919050565b600082825260208201905092915050565b6000610bda82610c97565b9150610be583610c97565b9250827fffffffffffffffffffffffffffffffffffffffffffffffffffffffffffffffff03821115610c1a57610c19610d1b565b5b828201905092915050565b6000610c3082610c97565b9150610c3b83610c97565b925082821015610c4e57610c4d610d1b565b5b828203905092915050565b6000610c6482610c77565b9050919050565b60008115159050919050565b600073ffffffffffffffffffffffffffffffffffffffff82169050919050565b6000819050919050565b610caa82610dbc565b810181811067ffffffffffffffff82111715610cc957610cc8610d79565b5b80604052505050565b6000610cdd82610c97565b91507fffffffffffffffffffffffffffffffffffffffffffffffffffffffffffffffff821415610d1057610d0f610d1b565b5b600182019050919050565b7f4e487b7100000000000000000000000000000000000000000000000000000000600052601160045260246000fd5b7f4e487b7100000000000000000000000000000000000000000000000000000000600052603260045260246000fd5b7f4e487b7100000000000000000000000000000000000000000000000000000000600052604160045260246000fd5b600080fd5b600080fd5b600080fd5b600080fd5b6000601f19601f8301169050919050565b7f4f776e61626c653a206e6577206f776e657220697320746865207a65726f206160008201527f6464726573730000000000000000000000000000000000000000000000000000602082015250565b7f4f776e61626c653a2063616c6c6572206973206e6f7420746865206f776e6572600082015250565b610e4e81610c59565b8114610e5957600080fd5b5056fea2646970667358221220a21085165a95bba102b3fe59880e17f3027964706b8a63561e6b8ccd43ba90fb64736f6c63430008070033746f6f206d616e7920757365727320696e206c656167756520746f20616464206e65772075736572a26469706673582212204d36dfb003497974bc98f834482db2c53d86ac30d1d6eec125f2b625e07c0b4b64736f6c63430008070033",
  "linkReferences": {
    "contracts/MOBALogicLibrary.sol": {
      "MOBALogicLibrary": [
        {
          "length": 20,
          "start": 2906
        }
      ]
    }
  },
  "deployedLinkReferences": {
    "contracts/MOBALogicLibrary.sol": {
      "MOBALogicLibrary": [
        {
          "length": 20,
          "start": 2629
        }
      ]
    }
  }
}