{
  "_format": "hh-sol-artifact-1",
  "contractName": "LeagueOfLegendsLogic",
  "sourceName": "contracts/LeagueOfLegendsLogic.sol",
  "abi": [
    {
      "anonymous": false,
      "inputs": [
        {
          "indexed": true,
          "internalType": "address",
          "name": "previousOwner",
          "type": "address"
        },
        {
          "indexed": true,
          "internalType": "address",
          "name": "newOwner",
          "type": "address"
        }
      ],
      "name": "OwnershipTransferred",
      "type": "event"
    },
    {
      "anonymous": false,
      "inputs": [
        {
          "indexed": false,
          "internalType": "address",
          "name": "sender",
          "type": "address"
        },
        {
          "indexed": false,
          "internalType": "uint256",
          "name": "amount",
          "type": "uint256"
        }
      ],
      "name": "Staked",
      "type": "event"
    },
    {
      "anonymous": false,
      "inputs": [
        {
          "indexed": false,
          "internalType": "address",
          "name": "addr",
          "type": "address"
        }
      ],
      "name": "WhitelistedAddressAdded",
      "type": "event"
    },
    {
      "anonymous": false,
      "inputs": [
        {
          "indexed": false,
          "internalType": "address",
          "name": "addr",
          "type": "address"
        }
      ],
      "name": "WhitelistedAddressRemoved",
      "type": "event"
    },
    {
      "anonymous": false,
      "inputs": [
        {
          "indexed": false,
          "internalType": "address",
          "name": "sender",
          "type": "address"
        },
        {
          "indexed": false,
          "internalType": "address",
          "name": "contractAddress",
          "type": "address"
        }
      ],
      "name": "testUSDCDeployed",
      "type": "event"
    },
    {
      "inputs": [
        {
          "internalType": "address",
          "name": "addr",
          "type": "address"
        }
      ],
      "name": "addAddressToWhitelist",
      "outputs": [
        {
          "internalType": "bool",
          "name": "success",
          "type": "bool"
        }
      ],
      "stateMutability": "nonpayable",
      "type": "function"
    },
    {
      "inputs": [
        {
          "internalType": "address[]",
          "name": "addrs",
          "type": "address[]"
        }
      ],
      "name": "addAddressesToWhitelist",
      "outputs": [
        {
          "internalType": "bool",
          "name": "success",
          "type": "bool"
        }
      ],
      "stateMutability": "nonpayable",
      "type": "function"
    },
    {
      "inputs": [
        {
          "internalType": "address",
          "name": "_userToAdd",
          "type": "address"
        }
      ],
      "name": "addUserToWhitelist",
      "outputs": [],
      "stateMutability": "nonpayable",
      "type": "function"
    },
    {
      "inputs": [],
      "name": "admin",
      "outputs": [
        {
          "internalType": "address",
          "name": "",
          "type": "address"
        }
      ],
      "stateMutability": "view",
      "type": "function"
    },
    {
      "inputs": [],
      "name": "evaluateWeek",
      "outputs": [],
      "stateMutability": "nonpayable",
      "type": "function"
    },
    {
      "inputs": [
        {
          "internalType": "address",
          "name": "_user",
          "type": "address"
        }
      ],
      "name": "getLineup",
      "outputs": [
        {
          "internalType": "uint256[]",
          "name": "",
          "type": "uint256[]"
        }
      ],
      "stateMutability": "view",
      "type": "function"
    },
    {
      "inputs": [],
      "name": "getLineupIsLocked",
      "outputs": [
        {
          "internalType": "bool",
          "name": "",
          "type": "bool"
        }
      ],
      "stateMutability": "view",
      "type": "function"
    },
    {
      "inputs": [],
      "name": "getNumWhitelisted",
      "outputs": [
        {
          "internalType": "uint256",
          "name": "",
          "type": "uint256"
        }
      ],
      "stateMutability": "view",
      "type": "function"
    },
    {
      "inputs": [
        {
          "internalType": "address",
          "name": "_user",
          "type": "address"
        }
      ],
      "name": "getUserIsWhitelisted",
      "outputs": [
        {
          "internalType": "bool",
          "name": "",
          "type": "bool"
        }
      ],
      "stateMutability": "view",
      "type": "function"
    },
    {
      "inputs": [],
      "name": "getUserRecord",
      "outputs": [
        {
          "internalType": "uint256[8]",
          "name": "",
          "type": "uint256[8]"
        }
      ],
      "stateMutability": "view",
      "type": "function"
    },
    {
      "inputs": [],
      "name": "getUserTotalPts",
      "outputs": [
        {
          "internalType": "uint256",
          "name": "",
          "type": "uint256"
        }
      ],
      "stateMutability": "view",
      "type": "function"
    },
    {
      "inputs": [],
      "name": "getUserUSDCBalance",
      "outputs": [
        {
          "internalType": "uint256",
          "name": "",
          "type": "uint256"
        }
      ],
      "stateMutability": "view",
      "type": "function"
    },
    {
      "inputs": [],
      "name": "getUsersLength",
      "outputs": [
        {
          "internalType": "uint256",
          "name": "",
          "type": "uint256"
        }
      ],
      "stateMutability": "view",
      "type": "function"
    },
    {
      "inputs": [
        {
          "internalType": "address",
          "name": "",
          "type": "address"
        }
      ],
      "name": "inLeague",
      "outputs": [
        {
          "internalType": "bool",
          "name": "",
          "type": "bool"
        }
      ],
      "stateMutability": "view",
      "type": "function"
    },
    {
      "inputs": [
        {
          "internalType": "string",
          "name": "_name",
          "type": "string"
        },
        {
          "internalType": "uint256",
          "name": "_stakeAmount",
          "type": "uint256"
        },
        {
          "internalType": "bool",
          "name": "_isPublic",
          "type": "bool"
        },
        {
          "internalType": "address",
          "name": "athletesDataStorageAddress",
          "type": "address"
        },
        {
          "internalType": "address",
          "name": "_admin",
          "type": "address"
        },
        {
          "internalType": "address",
          "name": "_polygonUSDCAddress",
          "type": "address"
        },
        {
          "internalType": "address",
          "name": "_rinkebyUSDCAddress",
          "type": "address"
        },
        {
          "internalType": "address",
          "name": "_testUSDCAddress",
          "type": "address"
        },
        {
          "internalType": "address",
          "name": "_teamDiffAddress",
          "type": "address"
        },
        {
          "internalType": "address",
          "name": "_leagueMakerContractAddress",
          "type": "address"
        }
      ],
      "name": "initialize",
      "outputs": [],
      "stateMutability": "nonpayable",
      "type": "function"
    },
    {
      "inputs": [],
      "name": "isPublic",
      "outputs": [
        {
          "internalType": "bool",
          "name": "",
          "type": "bool"
        }
      ],
      "stateMutability": "view",
      "type": "function"
    },
    {
      "inputs": [],
      "name": "joinLeague",
      "outputs": [],
      "stateMutability": "nonpayable",
      "type": "function"
    },
    {
      "inputs": [],
      "name": "leagueEntryIsClosed",
      "outputs": [
        {
          "internalType": "bool",
          "name": "",
          "type": "bool"
        }
      ],
      "stateMutability": "view",
      "type": "function"
    },
    {
      "inputs": [
        {
          "internalType": "uint256",
          "name": "",
          "type": "uint256"
        }
      ],
      "name": "leagueMembers",
      "outputs": [
        {
          "internalType": "address",
          "name": "",
          "type": "address"
        }
      ],
      "stateMutability": "view",
      "type": "function"
    },
    {
      "inputs": [],
      "name": "leagueName",
      "outputs": [
        {
          "internalType": "string",
          "name": "",
          "type": "string"
        }
      ],
      "stateMutability": "view",
      "type": "function"
    },
    {
      "inputs": [],
      "name": "lineupIsLocked",
      "outputs": [
        {
          "internalType": "bool",
          "name": "",
          "type": "bool"
        }
      ],
      "stateMutability": "view",
      "type": "function"
    },
    {
      "inputs": [],
      "name": "lockLineup",
      "outputs": [],
      "stateMutability": "nonpayable",
      "type": "function"
    },
    {
      "inputs": [],
      "name": "numWeeks",
      "outputs": [
        {
          "internalType": "uint256",
          "name": "",
          "type": "uint256"
        }
      ],
      "stateMutability": "view",
      "type": "function"
    },
    {
      "inputs": [],
      "name": "owner",
      "outputs": [
        {
          "internalType": "address",
          "name": "",
          "type": "address"
        }
      ],
      "stateMutability": "view",
      "type": "function"
    },
    {
      "inputs": [],
      "name": "polygonUSDCAddress",
      "outputs": [
        {
          "internalType": "address",
          "name": "",
          "type": "address"
        }
      ],
      "stateMutability": "view",
      "type": "function"
    },
    {
      "inputs": [
        {
          "internalType": "address",
          "name": "addr",
          "type": "address"
        }
      ],
      "name": "removeAddressFromWhitelist",
      "outputs": [
        {
          "internalType": "bool",
          "name": "success",
          "type": "bool"
        }
      ],
      "stateMutability": "nonpayable",
      "type": "function"
    },
    {
      "inputs": [
        {
          "internalType": "address[]",
          "name": "addrs",
          "type": "address[]"
        }
      ],
      "name": "removeAddressesFromWhitelist",
      "outputs": [
        {
          "internalType": "bool",
          "name": "success",
          "type": "bool"
        }
      ],
      "stateMutability": "nonpayable",
      "type": "function"
    },
    {
      "inputs": [
        {
          "internalType": "address",
          "name": "_userToRemove",
          "type": "address"
        }
      ],
      "name": "removeFromWhitelist",
      "outputs": [],
      "stateMutability": "nonpayable",
      "type": "function"
    },
    {
      "inputs": [],
      "name": "renounceOwnership",
      "outputs": [],
      "stateMutability": "nonpayable",
      "type": "function"
    },
    {
      "inputs": [],
      "name": "rinkebyUSDCAddress",
      "outputs": [
        {
          "internalType": "address",
          "name": "",
          "type": "address"
        }
      ],
      "stateMutability": "view",
      "type": "function"
    },
    {
      "inputs": [],
      "name": "setLeagueEntryIsClosed",
      "outputs": [],
      "stateMutability": "nonpayable",
      "type": "function"
    },
    {
      "inputs": [],
      "name": "setLeagueSchedule",
      "outputs": [],
      "stateMutability": "nonpayable",
      "type": "function"
    },
    {
      "inputs": [
        {
          "internalType": "uint256[]",
          "name": "athleteIds",
          "type": "uint256[]"
        }
      ],
      "name": "setLineup",
      "outputs": [],
      "stateMutability": "nonpayable",
      "type": "function"
    },
    {
      "inputs": [],
      "name": "stakeAmount",
      "outputs": [
        {
          "internalType": "uint256",
          "name": "",
          "type": "uint256"
        }
      ],
      "stateMutability": "view",
      "type": "function"
    },
    {
      "inputs": [],
      "name": "teamDiffAddress",
      "outputs": [
        {
          "internalType": "address",
          "name": "",
          "type": "address"
        }
      ],
      "stateMutability": "view",
      "type": "function"
    },
    {
      "inputs": [],
      "name": "testUSDC",
      "outputs": [
        {
          "internalType": "contract IERC20",
          "name": "",
          "type": "address"
        }
      ],
      "stateMutability": "view",
      "type": "function"
    },
    {
      "inputs": [
        {
          "internalType": "address",
          "name": "newOwner",
          "type": "address"
        }
      ],
      "name": "transferOwnership",
      "outputs": [],
      "stateMutability": "nonpayable",
      "type": "function"
    },
    {
      "inputs": [],
      "name": "unlockLineup",
      "outputs": [],
      "stateMutability": "nonpayable",
      "type": "function"
    },
    {
      "inputs": [
        {
          "internalType": "address",
          "name": "",
          "type": "address"
        },
        {
          "internalType": "uint256",
          "name": "",
          "type": "uint256"
        }
      ],
      "name": "userToLineup",
      "outputs": [
        {
          "internalType": "uint256",
          "name": "",
          "type": "uint256"
        }
      ],
      "stateMutability": "view",
      "type": "function"
    },
    {
      "inputs": [
        {
          "internalType": "address",
          "name": "",
          "type": "address"
        },
        {
          "internalType": "uint256",
          "name": "",
          "type": "uint256"
        }
      ],
      "name": "userToRecord",
      "outputs": [
        {
          "internalType": "uint256",
          "name": "",
          "type": "uint256"
        }
      ],
      "stateMutability": "view",
      "type": "function"
    },
    {
      "inputs": [
        {
          "internalType": "address",
          "name": "",
          "type": "address"
        }
      ],
      "name": "userToTotalWins",
      "outputs": [
        {
          "internalType": "uint256",
          "name": "",
          "type": "uint256"
        }
      ],
      "stateMutability": "view",
      "type": "function"
    },
    {
      "inputs": [
        {
          "internalType": "address",
          "name": "",
          "type": "address"
        }
      ],
      "name": "whitelist",
      "outputs": [
        {
          "internalType": "bool",
          "name": "",
          "type": "bool"
        }
      ],
      "stateMutability": "view",
      "type": "function"
    }
  ],
  "bytecode": "0x60806040523480156200001157600080fd5b5062000032620000266200004060201b60201c565b6200004860201b60201c565b60016004819055506200010d565b600033905090565b60008060029054906101000a900473ffffffffffffffffffffffffffffffffffffffff16905081600060026101000a81548173ffffffffffffffffffffffffffffffffffffffff021916908373ffffffffffffffffffffffffffffffffffffffff1602179055508173ffffffffffffffffffffffffffffffffffffffff168173ffffffffffffffffffffffffffffffffffffffff167f8be0079c531659141344cd1fd0a4f28419497f9722a3daafe3b4186f6b6457e060405160405180910390a35050565b61577b806200011d6000396000f3fe60806040523480156200001157600080fd5b5060043610620002975760003560e01c8063841abf6e1162000165578063cff5600311620000d5578063e5f7322f1162000093578063e5f7322f146200078c578063edcbe96c14620007c2578063f2fde38b14620007f8578063f612121a1462000818578063f851a4401462000838578063f8816045146200085a5762000297565b8063cff5600314620006bc578063dc9a153514620006f2578063e2ec6ec31462000714578063e35a8999146200074a578063e4c9066b14620007805762000297565b806393f3706c116200012357806393f3706c14620006405780639b19251a1462000662578063a2bc091a1462000698578063c8be3b5b14620006a4578063c99fea9414620006b05762000297565b8063841abf6e146200059a57806385334ffa14620005bc5780638ab1d68114620005c85780638da5cb5b14620005e85780639122ce6d146200060a5762000297565b80633c3ae13f116200020d5780636bdc44df11620001cb5780636bdc44df14620004d25780636cc15ad514620004f4578063715018a61462000516578063747b805014620005225780637b9417c814620005425780637eed33f114620005785762000297565b80633c3ae13f146200042a57806344eaa84e146200044a578063595b1a3e146200046c5780635fcc6987146200048e57806360c7dc4714620004b05762000297565b80631dd7f8ca116200025b5780631dd7f8ca146200034457806324953eaa1462000366578063267175db146200039c57806327311b3214620003d2578063286dd3f514620003f45762000297565b8062b2476f146200029c578063022e35e614620002be5780630635dbcb14620002e05780630655465a14620003025780630c6f7959146200030e575b600080fd5b620002a66200087c565b604051620002b5919062003a2f565b60405180910390f35b620002c8620008a2565b604051620002d7919062003b15565b60405180910390f35b620002ea620008c8565b604051620002f9919062003af8565b60405180910390f35b6200030c620008db565b005b6200032c6004803603810190620003269190620032ff565b620009e6565b6040516200033b919062003e15565b60405180910390f35b6200034e62000a0f565b6040516200035d919062003a2f565b60405180910390f35b6200038460048036038101906200037e919062003346565b62000a35565b60405162000393919062003af8565b60405180910390f35b620003ba6004803603810190620003b4919062003534565b62000b32565b604051620003c9919062003a2f565b60405180910390f35b620003dc62000b72565b604051620003eb919062003af8565b60405180910390f35b6200041260048036038101906200040c9190620032cd565b62000b89565b60405162000421919062003af8565b60405180910390f35b6200044860048036038101906200044291906200341a565b62000d18565b005b62000454620011b1565b60405162000463919062003e15565b60405180910390f35b62000476620011bb565b60405162000485919062003e15565b60405180910390f35b62000498620011c8565b604051620004a7919062003e15565b60405180910390f35b620004ba620012d7565b604051620004c9919062003e15565b60405180910390f35b620004dc620012dd565b604051620004eb919062003e15565b60405180910390f35b620004fe62001324565b6040516200050d919062003af8565b60405180910390f35b6200052062001337565b005b6200054060048036038101906200053a9190620032cd565b620013c8565b005b6200056060048036038101906200055a9190620032cd565b62001512565b6040516200056f919062003af8565b60405180910390f35b620005826200169f565b60405162000591919062003e15565b60405180910390f35b620005a4620016a5565b604051620005b3919062003bf3565b60405180910390f35b620005c66200173b565b005b620005e66004803603810190620005e09190620032cd565b62001982565b005b620005f262001b1f565b60405162000601919062003a2f565b60405180910390f35b620006286004803603810190620006229190620032cd565b62001b48565b60405162000637919062003af8565b60405180910390f35b6200064a62001b68565b60405162000659919062003a2f565b60405180910390f35b6200068060048036038101906200067a9190620032cd565b62001b8e565b6040516200068f919062003af8565b60405180910390f35b620006a262001bae565b005b620006ae62001c5e565b005b620006ba62001d0e565b005b620006da6004803603810190620006d49190620032ff565b6200219c565b604051620006e9919062003e15565b60405180910390f35b620006fc620021ce565b6040516200070b919062003af8565b60405180910390f35b6200073260048036038101906200072c919062003346565b620021e1565b60405162000741919062003af8565b60405180910390f35b620007686004803603810190620007629190620032cd565b620022de565b60405162000777919062003af8565b60405180910390f35b6200078a62002334565b005b620007aa6004803603810190620007a49190620032cd565b620023e4565b604051620007b9919062003ad4565b60405180910390f35b620007e06004803603810190620007da9190620032cd565b6200247d565b604051620007ef919062003e15565b60405180910390f35b620008166004803603810190620008109190620032cd565b62002495565b005b62000836600480360381019062000830919062003397565b62002599565b005b6200084262002a9c565b60405162000851919062003a2f565b60405180910390f35b6200086462002ac2565b60405162000873919062003ab6565b60405180910390f35b601260009054906101000a900473ffffffffffffffffffffffffffffffffffffffff1681565b601660009054906101000a900473ffffffffffffffffffffffffffffffffffffffff1681565b600960159054906101000a900460ff1681565b600960009054906101000a900473ffffffffffffffffffffffffffffffffffffffff1673ffffffffffffffffffffffffffffffffffffffff163373ffffffffffffffffffffffffffffffffffffffff16146200096e576040517f08c379a0000000000000000000000000000000000000000000000000000000008152600401620009659062003d6b565b60405180910390fd5b73__$36fdb4e0c2cb91f3ceca5ea81b025328f3$__63d2c232b56010600f60065460056040518563ffffffff1660e01b8152600401620009b2949392919062003b32565b60006040518083038186803b158015620009cb57600080fd5b505af4158015620009e0573d6000803e3d6000fd5b50505050565b600c602052816000526040600020816008811062000a0357600080fd5b01600091509150505481565b600960009054906101000a900473ffffffffffffffffffffffffffffffffffffffff1681565b600062000a4162002b4e565b73ffffffffffffffffffffffffffffffffffffffff1662000a6162001b1f565b73ffffffffffffffffffffffffffffffffffffffff161462000aba576040517f08c379a000000000000000000000000000000000000000000000000000000000815260040162000ab19062003d27565b60405180910390fd5b60005b825181101562000b2c5762000aef83828151811062000ae15762000ae062004271565b5b602002602001015162000b89565b1562000b165760016002600082825462000b0a91906200401f565b92505081905550600191505b808062000b2390620041c5565b91505062000abd565b50919050565b600f818154811062000b4357600080fd5b906000526020600020016000915054906101000a900473ffffffffffffffffffffffffffffffffffffffff1681565b6000600960159054906101000a900460ff16905090565b600062000b9562002b4e565b73ffffffffffffffffffffffffffffffffffffffff1662000bb562001b1f565b73ffffffffffffffffffffffffffffffffffffffff161462000c0e576040517f08c379a000000000000000000000000000000000000000000000000000000000815260040162000c059062003d27565b60405180910390fd5b600160008373ffffffffffffffffffffffffffffffffffffffff1673ffffffffffffffffffffffffffffffffffffffff16815260200190815260200160002060009054906101000a900460ff161562000d13576000600160008473ffffffffffffffffffffffffffffffffffffffff1673ffffffffffffffffffffffffffffffffffffffff16815260200190815260200160002060006101000a81548160ff0219169083151502179055507ff1abf01a1043b7c244d128e8595cf0c1d10743b022b03a02dffd8ca3bf729f5a8260405162000cea919062003a2f565b60405180910390a160016002600082825462000d0791906200401f565b92505081905550600190505b919050565b600060019054906101000a900460ff1662000d425760008054906101000a900460ff161562000d4d565b62000d4c62002b56565b5b62000d8f576040517f08c379a000000000000000000000000000000000000000000000000000000000815260040162000d869062003d05565b60405180910390fd5b60008060019054906101000a900460ff16159050801562000de0576001600060016101000a81548160ff02191690831515021790555060016000806101000a81548160ff0219169083151502179055505b8b8b6005919062000df392919062002f6c565b5060086006819055506001600e60008973ffffffffffffffffffffffffffffffffffffffff1673ffffffffffffffffffffffffffffffffffffffff16815260200190815260200160002060006101000a81548160ff021916908315150217905550600f879080600181540180825580915050600190039060005260206000200160009091909190916101000a81548173ffffffffffffffffffffffffffffffffffffffff021916908373ffffffffffffffffffffffffffffffffffffffff16021790555086600860006101000a81548173ffffffffffffffffffffffffffffffffffffffff021916908373ffffffffffffffffffffffffffffffffffffffff1602179055508960078190555088600360006101000a81548160ff0219169083151502179055506000600960146101000a81548160ff0219169083151502179055506000600960156101000a81548160ff02191690831515021790555087601360006101000a81548173ffffffffffffffffffffffffffffffffffffffff021916908373ffffffffffffffffffffffffffffffffffffffff16021790555081601560006101000a81548173ffffffffffffffffffffffffffffffffffffffff021916908373ffffffffffffffffffffffffffffffffffffffff16021790555060405162000fdf9062002ffd565b604051809103906000f08015801562000ffc573d6000803e3d6000fd5b50601460006101000a81548173ffffffffffffffffffffffffffffffffffffffff021916908373ffffffffffffffffffffffffffffffffffffffff16021790555085601160006101000a81548173ffffffffffffffffffffffffffffffffffffffff021916908373ffffffffffffffffffffffffffffffffffffffff16021790555084601260006101000a81548173ffffffffffffffffffffffffffffffffffffffff021916908373ffffffffffffffffffffffffffffffffffffffff16021790555083601660006101000a81548173ffffffffffffffffffffffffffffffffffffffff021916908373ffffffffffffffffffffffffffffffffffffffff16021790555082600960006101000a81548173ffffffffffffffffffffffffffffffffffffffff021916908373ffffffffffffffffffffffffffffffffffffffff160217905550620011816040518060400160405280601281526020017f50726f787920696e697469616c697a656421000000000000000000000000000081525062002b69565b8015620011a35760008060016101000a81548160ff0219169083151502179055505b505050505050505050505050565b6000600254905090565b6000600f80549050905090565b6000600e60003373ffffffffffffffffffffffffffffffffffffffff1673ffffffffffffffffffffffffffffffffffffffff16815260200190815260200160002060009054906101000a900460ff166200122157600080fd5b601660009054906101000a900473ffffffffffffffffffffffffffffffffffffffff1673ffffffffffffffffffffffffffffffffffffffff166370a08231336040518263ffffffff1660e01b81526004016200127e919062003a2f565b60206040518083038186803b1580156200129757600080fd5b505afa158015620012ac573d6000803e3d6000fd5b505050506040513d601f19601f82011682018060405250810190620012d2919062003566565b905090565b60075481565b6000600b60003373ffffffffffffffffffffffffffffffffffffffff1673ffffffffffffffffffffffffffffffffffffffff16815260200190815260200160002054905090565b600960149054906101000a900460ff1681565b6200134162002b4e565b73ffffffffffffffffffffffffffffffffffffffff166200136162001b1f565b73ffffffffffffffffffffffffffffffffffffffff1614620013ba576040517f08c379a0000000000000000000000000000000000000000000000000000000008152600401620013b19062003d27565b60405180910390fd5b620013c6600062002c06565b565b600860009054906101000a900473ffffffffffffffffffffffffffffffffffffffff1673ffffffffffffffffffffffffffffffffffffffff163373ffffffffffffffffffffffffffffffffffffffff16146200145b576040517f08c379a0000000000000000000000000000000000000000000000000000000008152600401620014529062003d49565b60405180910390fd5b601460009054906101000a900473ffffffffffffffffffffffffffffffffffffffff1673ffffffffffffffffffffffffffffffffffffffff16637b9417c8826040518263ffffffff1660e01b8152600401620014b8919062003a2f565b602060405180830381600087803b158015620014d357600080fd5b505af1158015620014e8573d6000803e3d6000fd5b505050506040513d601f19601f820116820180604052508101906200150e9190620033e8565b5050565b60006200151e62002b4e565b73ffffffffffffffffffffffffffffffffffffffff166200153e62001b1f565b73ffffffffffffffffffffffffffffffffffffffff161462001597576040517f08c379a00000000000000000000000000000000000000000000000000000000081526004016200158e9062003d27565b60405180910390fd5b600160008373ffffffffffffffffffffffffffffffffffffffff1673ffffffffffffffffffffffffffffffffffffffff16815260200190815260200160002060009054906101000a900460ff166200169a5760018060008473ffffffffffffffffffffffffffffffffffffffff1673ffffffffffffffffffffffffffffffffffffffff16815260200190815260200160002060006101000a81548160ff0219169083151502179055507fd1bba68c128cc3f427e5831b3c6f99f480b6efa6b9e80c757768f6124158cc3f8260405162001671919062003a2f565b60405180910390a16001600260008282546200168e919062003f61565b92505081905550600190505b919050565b60065481565b60058054620016b49062004159565b80601f0160208091040260200160405190810160405280929190818152602001828054620016e29062004159565b8015620017335780601f10620017075761010080835404028352916020019162001733565b820191906000526020600020905b8154815290600101906020018083116200171557829003601f168201915b505050505081565b600960009054906101000a900473ffffffffffffffffffffffffffffffffffffffff1673ffffffffffffffffffffffffffffffffffffffff163373ffffffffffffffffffffffffffffffffffffffff1614620017ce576040517f08c379a0000000000000000000000000000000000000000000000000000000008152600401620017c59062003d6b565b60405180910390fd5b6002600454141562001817576040517f08c379a00000000000000000000000000000000000000000000000000000000081526004016200180e9062003dd1565b60405180910390fd5b60026004819055506000601560009054906101000a900473ffffffffffffffffffffffffffffffffffffffff1673ffffffffffffffffffffffffffffffffffffffff166306575c896040518163ffffffff1660e01b815260040160206040518083038186803b1580156200188a57600080fd5b505afa1580156200189f573d6000803e3d6000fd5b505050506040513d601f19601f82011682018060405250810190620018c5919062003566565b905073__$36fdb4e0c2cb91f3ceca5ea81b025328f3$__63c406e268601083601360009054906101000a900473ffffffffffffffffffffffffffffffffffffffff16600c600b600d6040518763ffffffff1660e01b8152600401620019309695949392919062003b86565b60006040518083038186803b1580156200194957600080fd5b505af41580156200195e573d6000803e3d6000fd5b50505050600881141562001977576200197662002ccb565b5b506001600481905550565b600860009054906101000a900473ffffffffffffffffffffffffffffffffffffffff1673ffffffffffffffffffffffffffffffffffffffff163373ffffffffffffffffffffffffffffffffffffffff161462001a15576040517f08c379a000000000000000000000000000000000000000000000000000000000815260040162001a0c9062003d49565b60405180910390fd5b600960149054906101000a900460ff161562001a68576040517f08c379a000000000000000000000000000000000000000000000000000000000815260040162001a5f9062003daf565b60405180910390fd5b601460009054906101000a900473ffffffffffffffffffffffffffffffffffffffff1673ffffffffffffffffffffffffffffffffffffffff1663286dd3f5826040518263ffffffff1660e01b815260040162001ac5919062003a2f565b602060405180830381600087803b15801562001ae057600080fd5b505af115801562001af5573d6000803e3d6000fd5b505050506040513d601f19601f8201168201806040525081019062001b1b9190620033e8565b5050565b60008060029054906101000a900473ffffffffffffffffffffffffffffffffffffffff16905090565b600e6020528060005260406000206000915054906101000a900460ff1681565b601160009054906101000a900473ffffffffffffffffffffffffffffffffffffffff1681565b60016020528060005260406000206000915054906101000a900460ff1681565b600960009054906101000a900473ffffffffffffffffffffffffffffffffffffffff1673ffffffffffffffffffffffffffffffffffffffff163373ffffffffffffffffffffffffffffffffffffffff161462001c41576040517f08c379a000000000000000000000000000000000000000000000000000000000815260040162001c389062003d6b565b60405180910390fd5b6000600960156101000a81548160ff021916908315150217905550565b600960009054906101000a900473ffffffffffffffffffffffffffffffffffffffff1673ffffffffffffffffffffffffffffffffffffffff163373ffffffffffffffffffffffffffffffffffffffff161462001cf1576040517f08c379a000000000000000000000000000000000000000000000000000000000815260040162001ce89062003d6b565b60405180910390fd5b6001600960156101000a81548160ff021916908315150217905550565b600160003373ffffffffffffffffffffffffffffffffffffffff1673ffffffffffffffffffffffffffffffffffffffff16815260200190815260200160002060009054906101000a900460ff168062001d735750600360009054906101000a900460ff165b62001db5576040517f08c379a000000000000000000000000000000000000000000000000000000000815260040162001dac9062003c7d565b60405180910390fd5b6002600454141562001dfe576040517f08c379a000000000000000000000000000000000000000000000000000000000815260040162001df59062003dd1565b60405180910390fd5b6002600481905550600960149054906101000a900460ff161562001e59576040517f08c379a000000000000000000000000000000000000000000000000000000000815260040162001e509062003df3565b60405180910390fd5b600e60003373ffffffffffffffffffffffffffffffffffffffff1673ffffffffffffffffffffffffffffffffffffffff16815260200190815260200160002060009054906101000a900460ff161562001ee9576040517f08c379a000000000000000000000000000000000000000000000000000000000815260040162001ee09062003c5b565b60405180910390fd5b600754601660009054906101000a900473ffffffffffffffffffffffffffffffffffffffff1673ffffffffffffffffffffffffffffffffffffffff166370a08231336040518263ffffffff1660e01b815260040162001f49919062003a2f565b60206040518083038186803b15801562001f6257600080fd5b505afa15801562001f77573d6000803e3d6000fd5b505050506040513d601f19601f8201168201806040525081019062001f9d919062003566565b1162001fe0576040517f08c379a000000000000000000000000000000000000000000000000000000000815260040162001fd79062003c39565b60405180910390fd5b6001600e60003373ffffffffffffffffffffffffffffffffffffffff1673ffffffffffffffffffffffffffffffffffffffff16815260200190815260200160002060006101000a81548160ff021916908315150217905550600f339080600181540180825580915050600190039060005260206000200160009091909190916101000a81548173ffffffffffffffffffffffffffffffffffffffff021916908373ffffffffffffffffffffffffffffffffffffffff160217905550601660009054906101000a900473ffffffffffffffffffffffffffffffffffffffff1673ffffffffffffffffffffffffffffffffffffffff166323b872dd33306007546040518463ffffffff1660e01b8152600401620020fe9392919062003a4c565b602060405180830381600087803b1580156200211957600080fd5b505af11580156200212e573d6000803e3d6000fd5b505050506040513d601f19601f82011682018060405250810190620021549190620033e8565b507f9e71bc8eea02a63969f509818f2dafb9254532904319f9dbda79b67bd34a5f3d336007546040516200218a92919062003a89565b60405180910390a16001600481905550565b600d6020528160005260406000208181548110620021b957600080fd5b90600052602060002001600091509150505481565b600360009054906101000a900460ff1681565b6000620021ed62002b4e565b73ffffffffffffffffffffffffffffffffffffffff166200220d62001b1f565b73ffffffffffffffffffffffffffffffffffffffff161462002266576040517f08c379a00000000000000000000000000000000000000000000000000000000081526004016200225d9062003d27565b60405180910390fd5b60005b8251811015620022d8576200229b8382815181106200228d576200228c62004271565b5b602002602001015162001512565b15620022c257600160026000828254620022b6919062003f61565b92505081905550600191505b8080620022cf90620041c5565b91505062002269565b50919050565b6000600160008373ffffffffffffffffffffffffffffffffffffffff1673ffffffffffffffffffffffffffffffffffffffff16815260200190815260200160002060009054906101000a900460ff169050919050565b600960009054906101000a900473ffffffffffffffffffffffffffffffffffffffff1673ffffffffffffffffffffffffffffffffffffffff163373ffffffffffffffffffffffffffffffffffffffff1614620023c7576040517f08c379a0000000000000000000000000000000000000000000000000000000008152600401620023be9062003d6b565b60405180910390fd5b6001600960146101000a81548160ff021916908315150217905550565b6060600d60008373ffffffffffffffffffffffffffffffffffffffff1673ffffffffffffffffffffffffffffffffffffffff1681526020019081526020016000208054806020026020016040519081016040528092919081815260200182805480156200247157602002820191906000526020600020905b8154815260200190600101908083116200245c575b50505050509050919050565b600b6020528060005260406000206000915090505481565b6200249f62002b4e565b73ffffffffffffffffffffffffffffffffffffffff16620024bf62001b1f565b73ffffffffffffffffffffffffffffffffffffffff161462002518576040517f08c379a00000000000000000000000000000000000000000000000000000000081526004016200250f9062003d27565b60405180910390fd5b600073ffffffffffffffffffffffffffffffffffffffff168173ffffffffffffffffffffffffffffffffffffffff1614156200258b576040517f08c379a0000000000000000000000000000000000000000000000000000000008152600401620025829062003c17565b60405180910390fd5b620025968162002c06565b50565b600960159054906101000a900460ff1615620025ec576040517f08c379a0000000000000000000000000000000000000000000000000000000008152600401620025e39062003ce3565b60405180910390fd5b600e60003373ffffffffffffffffffffffffffffffffffffffff1673ffffffffffffffffffffffffffffffffffffffff16815260200190815260200160002060009054906101000a900460ff166200267b576040517f08c379a0000000000000000000000000000000000000000000000000000000008152600401620026729062003d8d565b60405180910390fd5b6000601560009054906101000a900473ffffffffffffffffffffffffffffffffffffffff1673ffffffffffffffffffffffffffffffffffffffff166306575c896040518163ffffffff1660e01b815260040160206040518083038186803b158015620026e657600080fd5b505afa158015620026fb573d6000803e3d6000fd5b505050506040513d601f19601f8201168201806040525081019062002721919062003566565b905060005b600d60003373ffffffffffffffffffffffffffffffffffffffff1673ffffffffffffffffffffffffffffffffffffffff168152602001908152602001600020805490508110156200282657600a6000600d60003373ffffffffffffffffffffffffffffffffffffffff1673ffffffffffffffffffffffffffffffffffffffff1681526020019081526020016000208381548110620027c957620027c862004271565b5b906000526020600020015481526020019081526020016000208260088110620027f757620027f662004271565b5b0160008154809291906200280b906200412a565b919050555080806200281d90620041c5565b91505062002726565b5060005b8251811015620028a857600a60008483815181106200284e576200284d62004271565b5b60200260200101518152602001908152602001600020826008811062002879576200287862004271565b5b0160008154809291906200288d90620041c5565b919050555080806200289f90620041c5565b9150506200282a565b5060005b825181101562002958576001600a6000858481518110620028d257620028d162004271565b5b602002602001015181526020019081526020016000208360088110620028fd57620028fc62004271565b5b01541462002942576040517f08c379a0000000000000000000000000000000000000000000000000000000008152600401620029399062003c9f565b60405180910390fd5b80806200294f90620041c5565b915050620028ac565b5060005b825181101562002a4157600a8162002975919062003fbe565b8382815181106200298b576200298a62004271565b5b602002602001015110158015620029e957506001600a600183620029b0919062003f61565b620029bc919062003fbe565b620029c891906200401f565b838281518110620029de57620029dd62004271565b5b602002602001015111155b62002a2b576040517f08c379a000000000000000000000000000000000000000000000000000000000815260040162002a229062003cc1565b60405180910390fd5b808062002a3890620041c5565b9150506200295c565b5081600d60003373ffffffffffffffffffffffffffffffffffffffff1673ffffffffffffffffffffffffffffffffffffffff168152602001908152602001600020908051906020019062002a979291906200300b565b505050565b600860009054906101000a900473ffffffffffffffffffffffffffffffffffffffff1681565b62002acc6200305d565b600c60003373ffffffffffffffffffffffffffffffffffffffff1673ffffffffffffffffffffffffffffffffffffffff16815260200190815260200160002060088060200260405190810160405280929190826008801562002b44576020028201915b81548152602001906001019080831162002b2f575b5050505050905090565b600033905090565b600062002b633062002f20565b15905090565b62002c038160405160240162002b80919062003bf3565b6040516020818303038152906040527f41304fac000000000000000000000000000000000000000000000000000000007bffffffffffffffffffffffffffffffffffffffffffffffffffffffff19166020820180517bffffffffffffffffffffffffffffffffffffffffffffffffffffffff838183161783525050505062002f43565b50565b60008060029054906101000a900473ffffffffffffffffffffffffffffffffffffffff16905081600060026101000a81548173ffffffffffffffffffffffffffffffffffffffff021916908373ffffffffffffffffffffffffffffffffffffffff1602179055508173ffffffffffffffffffffffffffffffffffffffff168173ffffffffffffffffffffffffffffffffffffffff167f8be0079c531659141344cd1fd0a4f28419497f9722a3daafe3b4186f6b6457e060405160405180910390a35050565b6000600f8054905060075462002ce2919062003fbe565b90506000600f60008154811062002cfe5762002cfd62004271565b5b9060005260206000200160009054906101000a900473ffffffffffffffffffffffffffffffffffffffff1690506000600190505b600f8054905081101562002e6357600b60008373ffffffffffffffffffffffffffffffffffffffff1673ffffffffffffffffffffffffffffffffffffffff16815260200190815260200160002054600b6000600f848154811062002d9b5762002d9a62004271565b5b9060005260206000200160009054906101000a900473ffffffffffffffffffffffffffffffffffffffff1673ffffffffffffffffffffffffffffffffffffffff1673ffffffffffffffffffffffffffffffffffffffff16815260200190815260200160002054111562002e4d57600f818154811062002e1f5762002e1e62004271565b5b9060005260206000200160009054906101000a900473ffffffffffffffffffffffffffffffffffffffff1691505b808062002e5a90620041c5565b91505062002d32565b50601660009054906101000a900473ffffffffffffffffffffffffffffffffffffffff1673ffffffffffffffffffffffffffffffffffffffff166323b872dd3083856040518463ffffffff1660e01b815260040162002ec59392919062003a4c565b602060405180830381600087803b15801562002ee057600080fd5b505af115801562002ef5573d6000803e3d6000fd5b505050506040513d601f19601f8201168201806040525081019062002f1b9190620033e8565b505050565b6000808273ffffffffffffffffffffffffffffffffffffffff163b119050919050565b60008151905060006a636f6e736f6c652e6c6f679050602083016000808483855afa5050505050565b82805462002f7a9062004159565b90600052602060002090601f01602090048101928262002f9e576000855562002fea565b82601f1062002fb957803560ff191683800117855562002fea565b8280016001018555821562002fea579182015b8281111562002fe957823582559160200191906001019062002fcc565b5b50905062002ff9919062003080565b5090565b61108d80620046b983390190565b8280548282559060005260206000209081019282156200304a579160200282015b82811115620030495782518255916020019190600101906200302c565b5b50905062003059919062003080565b5090565b604051806101000160405280600890602082028036833780820191505090505090565b5b808211156200309b57600081600090555060010162003081565b5090565b6000620030b6620030b08462003e5b565b62003e32565b90508083825260208201905082856020860282011115620030dc57620030db620042d9565b5b60005b85811015620031105781620030f5888262003195565b845260208401935060208301925050600181019050620030df565b5050509392505050565b6000620031316200312b8462003e8a565b62003e32565b90508083825260208201905082856020860282011115620031575762003156620042d9565b5b60005b858110156200318b57816200317088826200329f565b8452602084019350602083019250506001810190506200315a565b5050509392505050565b600081359050620031a6816200466a565b92915050565b600082601f830112620031c457620031c3620042d4565b5b8135620031d68482602086016200309f565b91505092915050565b600082601f830112620031f757620031f6620042d4565b5b8135620032098482602086016200311a565b91505092915050565b600081359050620032238162004684565b92915050565b6000815190506200323a8162004684565b92915050565b60008083601f840112620032595762003258620042d4565b5b8235905067ffffffffffffffff811115620032795762003278620042cf565b5b602083019150836001820283011115620032985762003297620042d9565b5b9250929050565b600081359050620032b0816200469e565b92915050565b600081519050620032c7816200469e565b92915050565b600060208284031215620032e657620032e5620042e3565b5b6000620032f68482850162003195565b91505092915050565b60008060408385031215620033195762003318620042e3565b5b6000620033298582860162003195565b92505060206200333c858286016200329f565b9150509250929050565b6000602082840312156200335f576200335e620042e3565b5b600082013567ffffffffffffffff81111562003380576200337f620042de565b5b6200338e84828501620031ac565b91505092915050565b600060208284031215620033b057620033af620042e3565b5b600082013567ffffffffffffffff811115620033d157620033d0620042de565b5b620033df84828501620031df565b91505092915050565b600060208284031215620034015762003400620042e3565b5b6000620034118482850162003229565b91505092915050565b60008060008060008060008060008060006101408c8e031215620034435762003442620042e3565b5b60008c013567ffffffffffffffff811115620034645762003463620042de565b5b620034728e828f0162003240565b9b509b50506020620034878e828f016200329f565b99505060406200349a8e828f0162003212565b9850506060620034ad8e828f0162003195565b9750506080620034c08e828f0162003195565b96505060a0620034d38e828f0162003195565b95505060c0620034e68e828f0162003195565b94505060e0620034f98e828f0162003195565b9350506101006200350d8e828f0162003195565b925050610120620035218e828f0162003195565b9150509295989b509295989b9093969950565b6000602082840312156200354d576200354c620042e3565b5b60006200355d848285016200329f565b91505092915050565b6000602082840312156200357f576200357e620042e3565b5b60006200358f84828501620032b6565b91505092915050565b6000620035a68383620039fc565b60208301905092915050565b620035bd816200405a565b82525050565b8082525050565b620035d58162003ee8565b620035e1818462003f23565b9250620035ee8262003eb9565b8060005b838110156200362557815162003609878262003598565b9650620036168362003f09565b925050600181019050620035f2565b505050505050565b60006200363a8262003ef3565b62003646818562003f2e565b9350620036538362003ec3565b8060005b838110156200368a5781516200366e888262003598565b97506200367b8362003f16565b92505060018101905062003657565b5085935050505092915050565b620036a2816200406e565b82525050565b620036b381620040a4565b82525050565b620036c481620040b8565b82525050565b8082525050565b8082525050565b8082525050565b8082525050565b6000620036f38262003efe565b620036ff818562003f3f565b935062003711818560208601620040f4565b6200371c81620042e8565b840191505092915050565b60008154620037368162004159565b62003742818662003f50565b945060018216600081146200376057600181146200377357620037aa565b60ff1983168652602086019350620037aa565b6200377e8562003ed3565b60005b83811015620037a25781548189015260018201915060208101905062003781565b808801955050505b50505092915050565b6000620037c260268362003f3f565b9150620037cf82620042f9565b604082019050919050565b6000620037e9601d8362003f3f565b9150620037f68262004348565b602082019050919050565b60006200381060238362003f3f565b91506200381d8262004371565b604082019050919050565b600062003837601a8362003f3f565b91506200384482620043c0565b602082019050919050565b60006200385e60258362003f3f565b91506200386b82620043e9565b604082019050919050565b60006200388560318362003f3f565b9150620038928262004438565b604082019050919050565b6000620038ac601e8362003f3f565b9150620038b98262004487565b602082019050919050565b6000620038d3602e8362003f3f565b9150620038e082620044b0565b604082019050919050565b6000620038fa60208362003f3f565b91506200390782620044ff565b602082019050919050565b60006200392160178362003f3f565b91506200392e8262004528565b602082019050919050565b60006200394860168362003f3f565b9150620039558262004551565b602082019050919050565b60006200396f60168362003f3f565b91506200397c826200457a565b602082019050919050565b60006200399660418362003f3f565b9150620039a382620045a3565b606082019050919050565b6000620039bd601f8362003f3f565b9150620039ca8262004618565b602082019050919050565b6000620039e460178362003f3f565b9150620039f18262004641565b602082019050919050565b62003a07816200409a565b82525050565b62003a18816200409a565b82525050565b62003a29816200409a565b82525050565b600060208201905062003a466000830184620035b2565b92915050565b600060608201905062003a636000830186620035b2565b62003a726020830185620035b2565b62003a81604083018462003a0d565b949350505050565b600060408201905062003aa06000830185620035b2565b62003aaf602083018462003a0d565b9392505050565b60006101008201905062003ace6000830184620035ca565b92915050565b6000602082019050818103600083015262003af081846200362d565b905092915050565b600060208201905062003b0f600083018462003697565b92915050565b600060208201905062003b2c6000830184620036b9565b92915050565b600060808201905062003b496000830187620036df565b62003b586020830186620035c3565b62003b67604083018562003a1e565b818103606083015262003b7b818462003727565b905095945050505050565b600060c08201905062003b9d6000830189620036df565b62003bac602083018862003a1e565b62003bbb6040830187620036a8565b62003bca6060830186620036ca565b62003bd96080830185620036d8565b62003be860a0830184620036d1565b979650505050505050565b6000602082019050818103600083015262003c0f8184620036e6565b905092915050565b6000602082019050818103600083015262003c3281620037b3565b9050919050565b6000602082019050818103600083015262003c5481620037da565b9050919050565b6000602082019050818103600083015262003c768162003801565b9050919050565b6000602082019050818103600083015262003c988162003828565b9050919050565b6000602082019050818103600083015262003cba816200384f565b9050919050565b6000602082019050818103600083015262003cdc8162003876565b9050919050565b6000602082019050818103600083015262003cfe816200389d565b9050919050565b6000602082019050818103600083015262003d2081620038c4565b9050919050565b6000602082019050818103600083015262003d4281620038eb565b9050919050565b6000602082019050818103600083015262003d648162003912565b9050919050565b6000602082019050818103600083015262003d868162003939565b9050919050565b6000602082019050818103600083015262003da88162003960565b9050919050565b6000602082019050818103600083015262003dca8162003987565b9050919050565b6000602082019050818103600083015262003dec81620039ae565b9050919050565b6000602082019050818103600083015262003e0e81620039d5565b9050919050565b600060208201905062003e2c600083018462003a0d565b92915050565b600062003e3e62003e51565b905062003e4c82826200418f565b919050565b6000604051905090565b600067ffffffffffffffff82111562003e795762003e78620042a0565b5b602082029050602081019050919050565b600067ffffffffffffffff82111562003ea85762003ea7620042a0565b5b602082029050602081019050919050565b6000819050919050565b6000819050602082019050919050565b60008190508160005260206000209050919050565b600060089050919050565b600081519050919050565b600081519050919050565b6000602082019050919050565b6000602082019050919050565b600081905092915050565b600082825260208201905092915050565b600082825260208201905092915050565b600082825260208201905092915050565b600062003f6e826200409a565b915062003f7b836200409a565b9250827fffffffffffffffffffffffffffffffffffffffffffffffffffffffffffffffff0382111562003fb35762003fb262004213565b5b828201905092915050565b600062003fcb826200409a565b915062003fd8836200409a565b9250817fffffffffffffffffffffffffffffffffffffffffffffffffffffffffffffffff048311821515161562004014576200401362004213565b5b828202905092915050565b60006200402c826200409a565b915062004039836200409a565b9250828210156200404f576200404e62004213565b5b828203905092915050565b600062004067826200407a565b9050919050565b60008115159050919050565b600073ffffffffffffffffffffffffffffffffffffffff82169050919050565b6000819050919050565b6000620040b182620040cc565b9050919050565b6000620040c582620040cc565b9050919050565b6000620040d982620040e0565b9050919050565b6000620040ed826200407a565b9050919050565b60005b8381101562004114578082015181840152602081019050620040f7565b8381111562004124576000848401525b50505050565b600062004137826200409a565b915060008214156200414e576200414d62004213565b5b600182039050919050565b600060028204905060018216806200417257607f821691505b6020821081141562004189576200418862004242565b5b50919050565b6200419a82620042e8565b810181811067ffffffffffffffff82111715620041bc57620041bb620042a0565b5b80604052505050565b6000620041d2826200409a565b91507fffffffffffffffffffffffffffffffffffffffffffffffffffffffffffffffff82141562004208576200420762004213565b5b600182019050919050565b7f4e487b7100000000000000000000000000000000000000000000000000000000600052601160045260246000fd5b7f4e487b7100000000000000000000000000000000000000000000000000000000600052602260045260246000fd5b7f4e487b7100000000000000000000000000000000000000000000000000000000600052603260045260246000fd5b7f4e487b7100000000000000000000000000000000000000000000000000000000600052604160045260246000fd5b600080fd5b600080fd5b600080fd5b600080fd5b600080fd5b6000601f19601f8301169050919050565b7f4f776e61626c653a206e6577206f776e657220697320746865207a65726f206160008201527f6464726573730000000000000000000000000000000000000000000000000000602082015250565b7f496e737566666963656e742066756e647320666f72207374616b696e67000000600082015250565b7f596f75206861766520616c7265616479206a6f696e65642074686973206c656160008201527f6775650000000000000000000000000000000000000000000000000000000000602082015250565b7f55736572206973206e6f742077686974656c6973746564203a28000000000000600082015250565b7f4475706c6963617465206174686c65746549447320617265206e6f7420616c6c60008201527f6f7765642e000000000000000000000000000000000000000000000000000000602082015250565b7f596f75206172652073657474696e6720616e206174686c65746520696e20746860008201527f652077726f6e6720706f736974696f6e21000000000000000000000000000000602082015250565b7f6c696e657570206973206c6f636b656420666f7220746865207765656b210000600082015250565b7f496e697469616c697a61626c653a20636f6e747261637420697320616c72656160008201527f647920696e697469616c697a6564000000000000000000000000000000000000602082015250565b7f4f776e61626c653a2063616c6c6572206973206e6f7420746865206f776e6572600082015250565b7f43616c6c6572206973206e6f74207468652061646d696e000000000000000000600082015250565b7f43616c6c6572206973206e6f74205465616d4469666600000000000000000000600082015250565b7f55736572206973206e6f7420696e204c65616775652e00000000000000000000600082015250565b7f4e6f626f64792063616e20656e7465722f6578697420746865206c656167756560008201527f20616e796d6f72652e2054686520736561736f6e20686173207374617274656460208201527f2100000000000000000000000000000000000000000000000000000000000000604082015250565b7f5265656e7472616e637947756172643a207265656e7472616e742063616c6c00600082015250565b7f4c656167756520456e74727920697320436c6f73656421000000000000000000600082015250565b62004675816200405a565b81146200468157600080fd5b50565b6200468f816200406e565b81146200469b57600080fd5b50565b620046a9816200409a565b8114620046b557600080fd5b5056fe608060405234801561001057600080fd5b5061002d61002261003260201b60201c565b61003a60201b60201c565b6100fe565b600033905090565b60008060009054906101000a900473ffffffffffffffffffffffffffffffffffffffff169050816000806101000a81548173ffffffffffffffffffffffffffffffffffffffff021916908373ffffffffffffffffffffffffffffffffffffffff1602179055508173ffffffffffffffffffffffffffffffffffffffff168173ffffffffffffffffffffffffffffffffffffffff167f8be0079c531659141344cd1fd0a4f28419497f9722a3daafe3b4186f6b6457e060405160405180910390a35050565b610f808061010d6000396000f3fe608060405234801561001057600080fd5b50600436106100a95760003560e01c80638da5cb5b116100715780638da5cb5b146101665780639b19251a14610184578063dc9a1535146101b4578063e2ec6ec3146101d2578063e35a899914610202578063f2fde38b14610232576100a9565b806324953eaa146100ae578063286dd3f5146100de57806344eaa84e1461010e578063715018a61461012c5780637b9417c814610136575b600080fd5b6100c860048036038101906100c39190610b0e565b61024e565b6040516100d59190610be5565b60405180910390f35b6100f860048036038101906100f39190610ae1565b610338565b6040516101059190610be5565b60405180910390f35b6101166104bb565b6040516101239190610c40565b60405180910390f35b6101346104c5565b005b610150600480360381019061014b9190610ae1565b61054d565b60405161015d9190610be5565b60405180910390f35b61016e6106ce565b60405161017b9190610bca565b60405180910390f35b61019e60048036038101906101999190610ae1565b6106f7565b6040516101ab9190610be5565b60405180910390f35b6101bc610717565b6040516101c99190610be5565b60405180910390f35b6101ec60048036038101906101e79190610b0e565b61072a565b6040516101f99190610be5565b60405180910390f35b61021c60048036038101906102179190610ae1565b610814565b6040516102299190610be5565b60405180910390f35b61024c60048036038101906102479190610ae1565b61086a565b005b6000610258610962565b73ffffffffffffffffffffffffffffffffffffffff166102766106ce565b73ffffffffffffffffffffffffffffffffffffffff16146102cc576040517f08c379a00000000000000000000000000000000000000000000000000000000081526004016102c390610c20565b60405180910390fd5b60005b8251811015610332576102fb8382815181106102ee576102ed610e38565b5b6020026020010151610338565b1561031f576001600260008282546103139190610d13565b92505081905550600191505b808061032a90610dc0565b9150506102cf565b50919050565b6000610342610962565b73ffffffffffffffffffffffffffffffffffffffff166103606106ce565b73ffffffffffffffffffffffffffffffffffffffff16146103b6576040517f08c379a00000000000000000000000000000000000000000000000000000000081526004016103ad90610c20565b60405180910390fd5b600160008373ffffffffffffffffffffffffffffffffffffffff1673ffffffffffffffffffffffffffffffffffffffff16815260200190815260200160002060009054906101000a900460ff16156104b6576000600160008473ffffffffffffffffffffffffffffffffffffffff1673ffffffffffffffffffffffffffffffffffffffff16815260200190815260200160002060006101000a81548160ff0219169083151502179055507ff1abf01a1043b7c244d128e8595cf0c1d10743b022b03a02dffd8ca3bf729f5a8260405161048f9190610bca565b60405180910390a16001600260008282546104aa9190610d13565b92505081905550600190505b919050565b6000600254905090565b6104cd610962565b73ffffffffffffffffffffffffffffffffffffffff166104eb6106ce565b73ffffffffffffffffffffffffffffffffffffffff1614610541576040517f08c379a000000000000000000000000000000000000000000000000000000000815260040161053890610c20565b60405180910390fd5b61054b600061096a565b565b6000610557610962565b73ffffffffffffffffffffffffffffffffffffffff166105756106ce565b73ffffffffffffffffffffffffffffffffffffffff16146105cb576040517f08c379a00000000000000000000000000000000000000000000000000000000081526004016105c290610c20565b60405180910390fd5b600160008373ffffffffffffffffffffffffffffffffffffffff1673ffffffffffffffffffffffffffffffffffffffff16815260200190815260200160002060009054906101000a900460ff166106c95760018060008473ffffffffffffffffffffffffffffffffffffffff1673ffffffffffffffffffffffffffffffffffffffff16815260200190815260200160002060006101000a81548160ff0219169083151502179055507fd1bba68c128cc3f427e5831b3c6f99f480b6efa6b9e80c757768f6124158cc3f826040516106a29190610bca565b60405180910390a16001600260008282546106bd9190610cbd565b92505081905550600190505b919050565b60008060009054906101000a900473ffffffffffffffffffffffffffffffffffffffff16905090565b60016020528060005260406000206000915054906101000a900460ff1681565b600360009054906101000a900460ff1681565b6000610734610962565b73ffffffffffffffffffffffffffffffffffffffff166107526106ce565b73ffffffffffffffffffffffffffffffffffffffff16146107a8576040517f08c379a000000000000000000000000000000000000000000000000000000000815260040161079f90610c20565b60405180910390fd5b60005b825181101561080e576107d78382815181106107ca576107c9610e38565b5b602002602001015161054d565b156107fb576001600260008282546107ef9190610cbd565b92505081905550600191505b808061080690610dc0565b9150506107ab565b50919050565b6000600160008373ffffffffffffffffffffffffffffffffffffffff1673ffffffffffffffffffffffffffffffffffffffff16815260200190815260200160002060009054906101000a900460ff169050919050565b610872610962565b73ffffffffffffffffffffffffffffffffffffffff166108906106ce565b73ffffffffffffffffffffffffffffffffffffffff16146108e6576040517f08c379a00000000000000000000000000000000000000000000000000000000081526004016108dd90610c20565b60405180910390fd5b600073ffffffffffffffffffffffffffffffffffffffff168173ffffffffffffffffffffffffffffffffffffffff161415610956576040517f08c379a000000000000000000000000000000000000000000000000000000000815260040161094d90610c00565b60405180910390fd5b61095f8161096a565b50565b600033905090565b60008060009054906101000a900473ffffffffffffffffffffffffffffffffffffffff169050816000806101000a81548173ffffffffffffffffffffffffffffffffffffffff021916908373ffffffffffffffffffffffffffffffffffffffff1602179055508173ffffffffffffffffffffffffffffffffffffffff168173ffffffffffffffffffffffffffffffffffffffff167f8be0079c531659141344cd1fd0a4f28419497f9722a3daafe3b4186f6b6457e060405160405180910390a35050565b6000610a41610a3c84610c80565b610c5b565b90508083825260208201905082856020860282011115610a6457610a63610e9b565b5b60005b85811015610a945781610a7a8882610a9e565b845260208401935060208301925050600181019050610a67565b5050509392505050565b600081359050610aad81610f33565b92915050565b600082601f830112610ac857610ac7610e96565b5b8135610ad8848260208601610a2e565b91505092915050565b600060208284031215610af757610af6610ea5565b5b6000610b0584828501610a9e565b91505092915050565b600060208284031215610b2457610b23610ea5565b5b600082013567ffffffffffffffff811115610b4257610b41610ea0565b5b610b4e84828501610ab3565b91505092915050565b610b6081610d47565b82525050565b610b6f81610d59565b82525050565b6000610b82602683610cac565b9150610b8d82610ebb565b604082019050919050565b6000610ba5602083610cac565b9150610bb082610f0a565b602082019050919050565b610bc481610d85565b82525050565b6000602082019050610bdf6000830184610b57565b92915050565b6000602082019050610bfa6000830184610b66565b92915050565b60006020820190508181036000830152610c1981610b75565b9050919050565b60006020820190508181036000830152610c3981610b98565b9050919050565b6000602082019050610c556000830184610bbb565b92915050565b6000610c65610c76565b9050610c718282610d8f565b919050565b6000604051905090565b600067ffffffffffffffff821115610c9b57610c9a610e67565b5b602082029050602081019050919050565b600082825260208201905092915050565b6000610cc882610d85565b9150610cd383610d85565b9250827fffffffffffffffffffffffffffffffffffffffffffffffffffffffffffffffff03821115610d0857610d07610e09565b5b828201905092915050565b6000610d1e82610d85565b9150610d2983610d85565b925082821015610d3c57610d3b610e09565b5b828203905092915050565b6000610d5282610d65565b9050919050565b60008115159050919050565b600073ffffffffffffffffffffffffffffffffffffffff82169050919050565b6000819050919050565b610d9882610eaa565b810181811067ffffffffffffffff82111715610db757610db6610e67565b5b80604052505050565b6000610dcb82610d85565b91507fffffffffffffffffffffffffffffffffffffffffffffffffffffffffffffffff821415610dfe57610dfd610e09565b5b600182019050919050565b7f4e487b7100000000000000000000000000000000000000000000000000000000600052601160045260246000fd5b7f4e487b7100000000000000000000000000000000000000000000000000000000600052603260045260246000fd5b7f4e487b7100000000000000000000000000000000000000000000000000000000600052604160045260246000fd5b600080fd5b600080fd5b600080fd5b600080fd5b6000601f19601f8301169050919050565b7f4f776e61626c653a206e6577206f776e657220697320746865207a65726f206160008201527f6464726573730000000000000000000000000000000000000000000000000000602082015250565b7f4f776e61626c653a2063616c6c6572206973206e6f7420746865206f776e6572600082015250565b610f3c81610d47565b8114610f4757600080fd5b5056fea2646970667358221220bed30b98fd52fd06427fedf4fcef33f2521d9e36ee375e945eb6c8c8ba1d457d64736f6c63430008070033a264697066735822122092fa60cbc29805e22f2b383090bdbeafe3e4cb445946c895c315dc376f688ca464736f6c63430008070033",
  "linkReferences": {
    "contracts/MOBALogicLibrary.sol": {
      "MOBALogicLibrary": [
        {
          "length": 20,
          "start": 2701
        },
        {
          "length": 20,
          "start": 6630
        }
      ]
    }
  },
  "deployedLinkReferences": {
    "contracts/MOBALogicLibrary.sol": {
      "MOBALogicLibrary": [
        {
          "length": 20,
          "start": 2416
        },
        {
          "length": 20,
          "start": 6345
        }
      ]
    }
  }
}