{
  "_format": "hh-sol-artifact-1",
  "contractName": "LeagueOfLegendsLogic",
  "sourceName": "contracts/LeagueOfLegendsLogic.sol",
  "abi": [
    {
      "anonymous": false,
      "inputs": [
        {
          "indexed": true,
          "internalType": "address",
          "name": "previousOwner",
          "type": "address"
        },
        {
          "indexed": true,
          "internalType": "address",
          "name": "newOwner",
          "type": "address"
        }
      ],
      "name": "OwnershipTransferred",
      "type": "event"
    },
    {
      "anonymous": false,
      "inputs": [
        {
          "indexed": false,
          "internalType": "address",
          "name": "sender",
          "type": "address"
        },
        {
          "indexed": false,
          "internalType": "uint256",
          "name": "amount",
          "type": "uint256"
        }
      ],
      "name": "Staked",
      "type": "event"
    },
    {
      "anonymous": false,
      "inputs": [
        {
          "indexed": false,
          "internalType": "address",
          "name": "addr",
          "type": "address"
        }
      ],
      "name": "WhitelistedAddressAdded",
      "type": "event"
    },
    {
      "anonymous": false,
      "inputs": [
        {
          "indexed": false,
          "internalType": "address",
          "name": "addr",
          "type": "address"
        }
      ],
      "name": "WhitelistedAddressRemoved",
      "type": "event"
    },
    {
      "anonymous": false,
      "inputs": [
        {
          "indexed": false,
          "internalType": "address",
          "name": "sender",
          "type": "address"
        },
        {
          "indexed": false,
          "internalType": "address",
          "name": "contractAddress",
          "type": "address"
        }
      ],
      "name": "testUSDCDeployed",
      "type": "event"
    },
    {
      "inputs": [
        {
          "internalType": "address",
          "name": "addr",
          "type": "address"
        }
      ],
      "name": "addAddressToWhitelist",
      "outputs": [
        {
          "internalType": "bool",
          "name": "success",
          "type": "bool"
        }
      ],
      "stateMutability": "nonpayable",
      "type": "function"
    },
    {
      "inputs": [
        {
          "internalType": "address[]",
          "name": "addrs",
          "type": "address[]"
        }
      ],
      "name": "addAddressesToWhitelist",
      "outputs": [
        {
          "internalType": "bool",
          "name": "success",
          "type": "bool"
        }
      ],
      "stateMutability": "nonpayable",
      "type": "function"
    },
    {
      "inputs": [
        {
          "internalType": "address",
          "name": "_userToAdd",
          "type": "address"
        }
      ],
      "name": "addUserToWhitelist",
      "outputs": [],
      "stateMutability": "nonpayable",
      "type": "function"
    },
    {
      "inputs": [],
      "name": "admin",
      "outputs": [
        {
          "internalType": "address",
          "name": "",
          "type": "address"
        }
      ],
      "stateMutability": "view",
      "type": "function"
    },
    {
      "inputs": [],
      "name": "evaluateWeek",
      "outputs": [],
      "stateMutability": "nonpayable",
      "type": "function"
    },
    {
      "inputs": [],
      "name": "getLineupIsLocked",
      "outputs": [
        {
          "internalType": "bool",
          "name": "",
          "type": "bool"
        }
      ],
      "stateMutability": "view",
      "type": "function"
    },
    {
      "inputs": [],
      "name": "getNumWhitelisted",
      "outputs": [
        {
          "internalType": "uint256",
          "name": "",
          "type": "uint256"
        }
      ],
      "stateMutability": "view",
      "type": "function"
    },
    {
      "inputs": [
        {
          "internalType": "address",
          "name": "_user",
          "type": "address"
        }
      ],
      "name": "getUserIsWhitelisted",
      "outputs": [
        {
          "internalType": "bool",
          "name": "",
          "type": "bool"
        }
      ],
      "stateMutability": "view",
      "type": "function"
    },
    {
      "inputs": [],
      "name": "getUserRecord",
      "outputs": [
        {
          "internalType": "uint256[8]",
          "name": "",
          "type": "uint256[8]"
        }
      ],
      "stateMutability": "view",
      "type": "function"
    },
    {
      "inputs": [],
      "name": "getUserTotalPts",
      "outputs": [
        {
          "internalType": "uint256",
          "name": "",
          "type": "uint256"
        }
      ],
      "stateMutability": "view",
      "type": "function"
    },
    {
      "inputs": [],
      "name": "getUserUSDCBalance",
      "outputs": [
        {
          "internalType": "uint256",
          "name": "",
          "type": "uint256"
        }
      ],
      "stateMutability": "view",
      "type": "function"
    },
    {
      "inputs": [],
      "name": "getUsersLength",
      "outputs": [
        {
          "internalType": "uint256",
          "name": "",
          "type": "uint256"
        }
      ],
      "stateMutability": "view",
      "type": "function"
    },
    {
      "inputs": [
        {
          "internalType": "address",
          "name": "",
          "type": "address"
        }
      ],
      "name": "inLeague",
      "outputs": [
        {
          "internalType": "bool",
          "name": "",
          "type": "bool"
        }
      ],
      "stateMutability": "view",
      "type": "function"
    },
    {
      "inputs": [
        {
          "internalType": "string",
          "name": "_name",
          "type": "string"
        },
        {
          "internalType": "uint256",
          "name": "_stakeAmount",
          "type": "uint256"
        },
        {
          "internalType": "bool",
          "name": "_isPublic",
          "type": "bool"
        },
        {
          "internalType": "address",
          "name": "athletesDataStorageAddress",
          "type": "address"
        },
        {
          "internalType": "address",
          "name": "_admin",
          "type": "address"
        },
        {
          "internalType": "address",
          "name": "_polygonUSDCAddress",
          "type": "address"
        },
        {
          "internalType": "address",
          "name": "_rinkebyUSDCAddress",
          "type": "address"
        },
        {
          "internalType": "address",
          "name": "_testUSDCAddress",
          "type": "address"
        },
        {
          "internalType": "address",
          "name": "_teamDiffAddress",
          "type": "address"
        },
        {
          "internalType": "address",
          "name": "_leagueMakerContractAddress",
          "type": "address"
        }
      ],
      "name": "initialize",
      "outputs": [],
      "stateMutability": "nonpayable",
      "type": "function"
    },
    {
      "inputs": [],
      "name": "isPublic",
      "outputs": [
        {
          "internalType": "bool",
          "name": "",
          "type": "bool"
        }
      ],
      "stateMutability": "view",
      "type": "function"
    },
    {
      "inputs": [],
      "name": "joinLeague",
      "outputs": [],
      "stateMutability": "nonpayable",
      "type": "function"
    },
    {
      "inputs": [],
      "name": "leagueEntryIsClosed",
      "outputs": [
        {
          "internalType": "bool",
          "name": "",
          "type": "bool"
        }
      ],
      "stateMutability": "view",
      "type": "function"
    },
    {
      "inputs": [
        {
          "internalType": "uint256",
          "name": "",
          "type": "uint256"
        }
      ],
      "name": "leagueMembers",
      "outputs": [
        {
          "internalType": "address",
          "name": "",
          "type": "address"
        }
      ],
      "stateMutability": "view",
      "type": "function"
    },
    {
      "inputs": [],
      "name": "leagueName",
      "outputs": [
        {
          "internalType": "string",
          "name": "",
          "type": "string"
        }
      ],
      "stateMutability": "view",
      "type": "function"
    },
    {
      "inputs": [],
      "name": "lineupIsLocked",
      "outputs": [
        {
          "internalType": "bool",
          "name": "",
          "type": "bool"
        }
      ],
      "stateMutability": "view",
      "type": "function"
    },
    {
      "inputs": [],
      "name": "lockLineup",
      "outputs": [],
      "stateMutability": "nonpayable",
      "type": "function"
    },
    {
      "inputs": [],
      "name": "numWeeks",
      "outputs": [
        {
          "internalType": "uint256",
          "name": "",
          "type": "uint256"
        }
      ],
      "stateMutability": "view",
      "type": "function"
    },
    {
      "inputs": [],
      "name": "owner",
      "outputs": [
        {
          "internalType": "address",
          "name": "",
          "type": "address"
        }
      ],
      "stateMutability": "view",
      "type": "function"
    },
    {
      "inputs": [],
      "name": "polygonUSDCAddress",
      "outputs": [
        {
          "internalType": "address",
          "name": "",
          "type": "address"
        }
      ],
      "stateMutability": "view",
      "type": "function"
    },
    {
      "inputs": [
        {
          "internalType": "address",
          "name": "addr",
          "type": "address"
        }
      ],
      "name": "removeAddressFromWhitelist",
      "outputs": [
        {
          "internalType": "bool",
          "name": "success",
          "type": "bool"
        }
      ],
      "stateMutability": "nonpayable",
      "type": "function"
    },
    {
      "inputs": [
        {
          "internalType": "address[]",
          "name": "addrs",
          "type": "address[]"
        }
      ],
      "name": "removeAddressesFromWhitelist",
      "outputs": [
        {
          "internalType": "bool",
          "name": "success",
          "type": "bool"
        }
      ],
      "stateMutability": "nonpayable",
      "type": "function"
    },
    {
      "inputs": [
        {
          "internalType": "address",
          "name": "_userToRemove",
          "type": "address"
        }
      ],
      "name": "removeFromWhitelist",
      "outputs": [],
      "stateMutability": "nonpayable",
      "type": "function"
    },
    {
      "inputs": [],
      "name": "renounceOwnership",
      "outputs": [],
      "stateMutability": "nonpayable",
      "type": "function"
    },
    {
      "inputs": [],
      "name": "rinkebyUSDCAddress",
      "outputs": [
        {
          "internalType": "address",
          "name": "",
          "type": "address"
        }
      ],
      "stateMutability": "view",
      "type": "function"
    },
    {
      "inputs": [],
      "name": "setLeagueEntryIsClosed",
      "outputs": [],
      "stateMutability": "nonpayable",
      "type": "function"
    },
    {
      "inputs": [],
      "name": "setLeagueSchedule",
      "outputs": [],
      "stateMutability": "nonpayable",
      "type": "function"
    },
    {
      "inputs": [
        {
          "internalType": "uint256[]",
          "name": "athleteIds",
          "type": "uint256[]"
        }
      ],
      "name": "setLineup",
      "outputs": [],
      "stateMutability": "nonpayable",
      "type": "function"
    },
    {
      "inputs": [],
      "name": "stakeAmount",
      "outputs": [
        {
          "internalType": "uint256",
          "name": "",
          "type": "uint256"
        }
      ],
      "stateMutability": "view",
      "type": "function"
    },
    {
      "inputs": [],
      "name": "teamDiffAddress",
      "outputs": [
        {
          "internalType": "address",
          "name": "",
          "type": "address"
        }
      ],
      "stateMutability": "view",
      "type": "function"
    },
    {
      "inputs": [],
      "name": "testUSDC",
      "outputs": [
        {
          "internalType": "contract IERC20",
          "name": "",
          "type": "address"
        }
      ],
      "stateMutability": "view",
      "type": "function"
    },
    {
      "inputs": [
        {
          "internalType": "address",
          "name": "newOwner",
          "type": "address"
        }
      ],
      "name": "transferOwnership",
      "outputs": [],
      "stateMutability": "nonpayable",
      "type": "function"
    },
    {
      "inputs": [],
      "name": "unlockLineup",
      "outputs": [],
      "stateMutability": "nonpayable",
      "type": "function"
    },
    {
      "inputs": [
        {
          "internalType": "address",
          "name": "",
          "type": "address"
        },
        {
          "internalType": "uint256",
          "name": "",
          "type": "uint256"
        }
      ],
      "name": "userToLineup",
      "outputs": [
        {
          "internalType": "uint256",
          "name": "",
          "type": "uint256"
        }
      ],
      "stateMutability": "view",
      "type": "function"
    },
    {
      "inputs": [
        {
          "internalType": "address",
          "name": "",
          "type": "address"
        },
        {
          "internalType": "uint256",
          "name": "",
          "type": "uint256"
        }
      ],
      "name": "userToRecord",
      "outputs": [
        {
          "internalType": "uint256",
          "name": "",
          "type": "uint256"
        }
      ],
      "stateMutability": "view",
      "type": "function"
    },
    {
      "inputs": [
        {
          "internalType": "address",
          "name": "",
          "type": "address"
        }
      ],
      "name": "userToTotalWins",
      "outputs": [
        {
          "internalType": "uint256",
          "name": "",
          "type": "uint256"
        }
      ],
      "stateMutability": "view",
      "type": "function"
    },
    {
      "inputs": [
        {
          "internalType": "address",
          "name": "",
          "type": "address"
        }
      ],
      "name": "whitelist",
      "outputs": [
        {
          "internalType": "bool",
          "name": "",
          "type": "bool"
        }
      ],
      "stateMutability": "view",
      "type": "function"
    }
  ],
  "bytecode": "0x60806040523480156200001157600080fd5b5062000032620000266200004060201b60201c565b6200004860201b60201c565b60016004819055506200010d565b600033905090565b60008060029054906101000a900473ffffffffffffffffffffffffffffffffffffffff16905081600060026101000a81548173ffffffffffffffffffffffffffffffffffffffff021916908373ffffffffffffffffffffffffffffffffffffffff1602179055508173ffffffffffffffffffffffffffffffffffffffff168173ffffffffffffffffffffffffffffffffffffffff167f8be0079c531659141344cd1fd0a4f28419497f9722a3daafe3b4186f6b6457e060405160405180910390a35050565b6156d9806200011d6000396000f3fe60806040523480156200001157600080fd5b50600436106200028b5760003560e01c80637eed33f11162000165578063c99fea9411620000d5578063e4c9066b1162000093578063e4c9066b1462000774578063edcbe96c1462000780578063f2fde38b14620007b6578063f612121a14620007d6578063f851a44014620007f6578063f88160451462000818576200028b565b8063c99fea9414620006a4578063cff5600314620006b0578063dc9a153514620006e6578063e2ec6ec31462000708578063e35a8999146200073e576200028b565b80639122ce6d11620001235780639122ce6d14620005fe57806393f3706c14620006345780639b19251a1462000656578063a2bc091a146200068c578063c8be3b5b1462000698576200028b565b80637eed33f1146200056c578063841abf6e146200058e57806385334ffa14620005b05780638ab1d68114620005bc5780638da5cb5b14620005dc576200028b565b80633c3ae13f11620002015780636bdc44df11620001bf5780636bdc44df14620004c65780636cc15ad514620004e8578063715018a6146200050a578063747b805014620005165780637b9417c81462000536576200028b565b80633c3ae13f146200041e57806344eaa84e146200043e578063595b1a3e14620004605780635fcc6987146200048257806360c7dc4714620004a4576200028b565b80631dd7f8ca116200024f5780631dd7f8ca146200033857806324953eaa146200035a578063267175db146200039057806327311b3214620003c6578063286dd3f514620003e8576200028b565b8062b2476f1462000290578063022e35e614620002b25780630635dbcb14620002d45780630655465a14620002f65780630c6f79591462000302575b600080fd5b6200029a6200083a565b604051620002a99190620039ea565b60405180910390f35b620002bc62000860565b604051620002cb919062003aac565b60405180910390f35b620002de62000886565b604051620002ed919062003a8f565b60405180910390f35b6200030062000899565b005b6200032060048036038101906200031a919062003324565b620009a4565b6040516200032f919062003dac565b60405180910390f35b62000342620009cd565b604051620003519190620039ea565b60405180910390f35b6200037860048036038101906200037291906200336b565b620009f3565b60405162000387919062003a8f565b60405180910390f35b620003ae6004803603810190620003a8919062003559565b62000af0565b604051620003bd9190620039ea565b60405180910390f35b620003d062000b30565b604051620003df919062003a8f565b60405180910390f35b620004066004803603810190620004009190620032f2565b62000b47565b60405162000415919062003a8f565b60405180910390f35b6200043c60048036038101906200043691906200343f565b62000cd6565b005b620004486200116f565b60405162000457919062003dac565b60405180910390f35b6200046a62001179565b60405162000479919062003dac565b60405180910390f35b6200048c62001186565b6040516200049b919062003dac565b60405180910390f35b620004ae62001295565b604051620004bd919062003dac565b60405180910390f35b620004d06200129b565b604051620004df919062003dac565b60405180910390f35b620004f2620012e2565b60405162000501919062003a8f565b60405180910390f35b62000514620012f5565b005b6200053460048036038101906200052e9190620032f2565b62001386565b005b6200055460048036038101906200054e9190620032f2565b620014d0565b60405162000563919062003a8f565b60405180910390f35b620005766200165d565b60405162000585919062003dac565b60405180910390f35b6200059862001663565b604051620005a7919062003b8a565b60405180910390f35b620005ba620016f9565b005b620005da6004803603810190620005d49190620032f2565b62001940565b005b620005e662001add565b604051620005f59190620039ea565b60405180910390f35b6200061c6004803603810190620006169190620032f2565b62001b06565b6040516200062b919062003a8f565b60405180910390f35b6200063e62001b26565b6040516200064d9190620039ea565b60405180910390f35b6200067460048036038101906200066e9190620032f2565b62001b4c565b60405162000683919062003a8f565b60405180910390f35b6200069662001b6c565b005b620006a262001c1c565b005b620006ae62001ccc565b005b620006ce6004803603810190620006c8919062003324565b6200215a565b604051620006dd919062003dac565b60405180910390f35b620006f06200218c565b604051620006ff919062003a8f565b60405180910390f35b6200072660048036038101906200072091906200336b565b6200219f565b60405162000735919062003a8f565b60405180910390f35b6200075c6004803603810190620007569190620032f2565b6200229c565b6040516200076b919062003a8f565b60405180910390f35b6200077e620022f2565b005b6200079e6004803603810190620007989190620032f2565b620023a2565b604051620007ad919062003dac565b60405180910390f35b620007d46004803603810190620007ce9190620032f2565b620023ba565b005b620007f46004803603810190620007ee9190620033bc565b620024be565b005b6200080062002ac1565b6040516200080f9190620039ea565b60405180910390f35b6200082262002ae7565b60405162000831919062003a71565b60405180910390f35b601260009054906101000a900473ffffffffffffffffffffffffffffffffffffffff1681565b601660009054906101000a900473ffffffffffffffffffffffffffffffffffffffff1681565b600960159054906101000a900460ff1681565b600960009054906101000a900473ffffffffffffffffffffffffffffffffffffffff1673ffffffffffffffffffffffffffffffffffffffff163373ffffffffffffffffffffffffffffffffffffffff16146200092c576040517f08c379a0000000000000000000000000000000000000000000000000000000008152600401620009239062003d02565b60405180910390fd5b73__$36fdb4e0c2cb91f3ceca5ea81b025328f3$__63d2c232b56010600f60065460056040518563ffffffff1660e01b815260040162000970949392919062003ac9565b60006040518083038186803b1580156200098957600080fd5b505af41580156200099e573d6000803e3d6000fd5b50505050565b600c6020528160005260406000208160088110620009c157600080fd5b01600091509150505481565b600960009054906101000a900473ffffffffffffffffffffffffffffffffffffffff1681565b6000620009ff62002b73565b73ffffffffffffffffffffffffffffffffffffffff1662000a1f62001add565b73ffffffffffffffffffffffffffffffffffffffff161462000a78576040517f08c379a000000000000000000000000000000000000000000000000000000000815260040162000a6f9062003cbe565b60405180910390fd5b60005b825181101562000aea5762000aad83828151811062000a9f5762000a9e620041cf565b5b602002602001015162000b47565b1562000ad45760016002600082825462000ac8919062003f7d565b92505081905550600191505b808062000ae19062004123565b91505062000a7b565b50919050565b600f818154811062000b0157600080fd5b906000526020600020016000915054906101000a900473ffffffffffffffffffffffffffffffffffffffff1681565b6000600960159054906101000a900460ff16905090565b600062000b5362002b73565b73ffffffffffffffffffffffffffffffffffffffff1662000b7362001add565b73ffffffffffffffffffffffffffffffffffffffff161462000bcc576040517f08c379a000000000000000000000000000000000000000000000000000000000815260040162000bc39062003cbe565b60405180910390fd5b600160008373ffffffffffffffffffffffffffffffffffffffff1673ffffffffffffffffffffffffffffffffffffffff16815260200190815260200160002060009054906101000a900460ff161562000cd1576000600160008473ffffffffffffffffffffffffffffffffffffffff1673ffffffffffffffffffffffffffffffffffffffff16815260200190815260200160002060006101000a81548160ff0219169083151502179055507ff1abf01a1043b7c244d128e8595cf0c1d10743b022b03a02dffd8ca3bf729f5a8260405162000ca89190620039ea565b60405180910390a160016002600082825462000cc5919062003f7d565b92505081905550600190505b919050565b600060019054906101000a900460ff1662000d005760008054906101000a900460ff161562000d0b565b62000d0a62002b7b565b5b62000d4d576040517f08c379a000000000000000000000000000000000000000000000000000000000815260040162000d449062003c9c565b60405180910390fd5b60008060019054906101000a900460ff16159050801562000d9e576001600060016101000a81548160ff02191690831515021790555060016000806101000a81548160ff0219169083151502179055505b8b8b6005919062000db192919062002f91565b5060086006819055506001600e60008973ffffffffffffffffffffffffffffffffffffffff1673ffffffffffffffffffffffffffffffffffffffff16815260200190815260200160002060006101000a81548160ff021916908315150217905550600f879080600181540180825580915050600190039060005260206000200160009091909190916101000a81548173ffffffffffffffffffffffffffffffffffffffff021916908373ffffffffffffffffffffffffffffffffffffffff16021790555086600860006101000a81548173ffffffffffffffffffffffffffffffffffffffff021916908373ffffffffffffffffffffffffffffffffffffffff1602179055508960078190555088600360006101000a81548160ff0219169083151502179055506000600960146101000a81548160ff0219169083151502179055506000600960156101000a81548160ff02191690831515021790555087601360006101000a81548173ffffffffffffffffffffffffffffffffffffffff021916908373ffffffffffffffffffffffffffffffffffffffff16021790555081601560006101000a81548173ffffffffffffffffffffffffffffffffffffffff021916908373ffffffffffffffffffffffffffffffffffffffff16021790555060405162000f9d9062003022565b604051809103906000f08015801562000fba573d6000803e3d6000fd5b50601460006101000a81548173ffffffffffffffffffffffffffffffffffffffff021916908373ffffffffffffffffffffffffffffffffffffffff16021790555085601160006101000a81548173ffffffffffffffffffffffffffffffffffffffff021916908373ffffffffffffffffffffffffffffffffffffffff16021790555084601260006101000a81548173ffffffffffffffffffffffffffffffffffffffff021916908373ffffffffffffffffffffffffffffffffffffffff16021790555083601660006101000a81548173ffffffffffffffffffffffffffffffffffffffff021916908373ffffffffffffffffffffffffffffffffffffffff16021790555082600960006101000a81548173ffffffffffffffffffffffffffffffffffffffff021916908373ffffffffffffffffffffffffffffffffffffffff1602179055506200113f6040518060400160405280601281526020017f50726f787920696e697469616c697a656421000000000000000000000000000081525062002b8e565b8015620011615760008060016101000a81548160ff0219169083151502179055505b505050505050505050505050565b6000600254905090565b6000600f80549050905090565b6000600e60003373ffffffffffffffffffffffffffffffffffffffff1673ffffffffffffffffffffffffffffffffffffffff16815260200190815260200160002060009054906101000a900460ff16620011df57600080fd5b601660009054906101000a900473ffffffffffffffffffffffffffffffffffffffff1673ffffffffffffffffffffffffffffffffffffffff166370a08231336040518263ffffffff1660e01b81526004016200123c9190620039ea565b60206040518083038186803b1580156200125557600080fd5b505afa1580156200126a573d6000803e3d6000fd5b505050506040513d601f19601f820116820180604052508101906200129091906200358b565b905090565b60075481565b6000600b60003373ffffffffffffffffffffffffffffffffffffffff1673ffffffffffffffffffffffffffffffffffffffff16815260200190815260200160002054905090565b600960149054906101000a900460ff1681565b620012ff62002b73565b73ffffffffffffffffffffffffffffffffffffffff166200131f62001add565b73ffffffffffffffffffffffffffffffffffffffff161462001378576040517f08c379a00000000000000000000000000000000000000000000000000000000081526004016200136f9062003cbe565b60405180910390fd5b62001384600062002c2b565b565b600860009054906101000a900473ffffffffffffffffffffffffffffffffffffffff1673ffffffffffffffffffffffffffffffffffffffff163373ffffffffffffffffffffffffffffffffffffffff161462001419576040517f08c379a0000000000000000000000000000000000000000000000000000000008152600401620014109062003ce0565b60405180910390fd5b601460009054906101000a900473ffffffffffffffffffffffffffffffffffffffff1673ffffffffffffffffffffffffffffffffffffffff16637b9417c8826040518263ffffffff1660e01b8152600401620014769190620039ea565b602060405180830381600087803b1580156200149157600080fd5b505af1158015620014a6573d6000803e3d6000fd5b505050506040513d601f19601f82011682018060405250810190620014cc91906200340d565b5050565b6000620014dc62002b73565b73ffffffffffffffffffffffffffffffffffffffff16620014fc62001add565b73ffffffffffffffffffffffffffffffffffffffff161462001555576040517f08c379a00000000000000000000000000000000000000000000000000000000081526004016200154c9062003cbe565b60405180910390fd5b600160008373ffffffffffffffffffffffffffffffffffffffff1673ffffffffffffffffffffffffffffffffffffffff16815260200190815260200160002060009054906101000a900460ff16620016585760018060008473ffffffffffffffffffffffffffffffffffffffff1673ffffffffffffffffffffffffffffffffffffffff16815260200190815260200160002060006101000a81548160ff0219169083151502179055507fd1bba68c128cc3f427e5831b3c6f99f480b6efa6b9e80c757768f6124158cc3f826040516200162f9190620039ea565b60405180910390a16001600260008282546200164c919062003ebf565b92505081905550600190505b919050565b60065481565b600580546200167290620040b7565b80601f0160208091040260200160405190810160405280929190818152602001828054620016a090620040b7565b8015620016f15780601f10620016c557610100808354040283529160200191620016f1565b820191906000526020600020905b815481529060010190602001808311620016d357829003601f168201915b505050505081565b600960009054906101000a900473ffffffffffffffffffffffffffffffffffffffff1673ffffffffffffffffffffffffffffffffffffffff163373ffffffffffffffffffffffffffffffffffffffff16146200178c576040517f08c379a0000000000000000000000000000000000000000000000000000000008152600401620017839062003d02565b60405180910390fd5b60026004541415620017d5576040517f08c379a0000000000000000000000000000000000000000000000000000000008152600401620017cc9062003d68565b60405180910390fd5b60026004819055506000601560009054906101000a900473ffffffffffffffffffffffffffffffffffffffff1673ffffffffffffffffffffffffffffffffffffffff166306575c896040518163ffffffff1660e01b815260040160206040518083038186803b1580156200184857600080fd5b505afa1580156200185d573d6000803e3d6000fd5b505050506040513d601f19601f820116820180604052508101906200188391906200358b565b905073__$36fdb4e0c2cb91f3ceca5ea81b025328f3$__63c406e268601083601360009054906101000a900473ffffffffffffffffffffffffffffffffffffffff16600c600b600d6040518763ffffffff1660e01b8152600401620018ee9695949392919062003b1d565b60006040518083038186803b1580156200190757600080fd5b505af41580156200191c573d6000803e3d6000fd5b50505050600881141562001935576200193462002cf0565b5b506001600481905550565b600860009054906101000a900473ffffffffffffffffffffffffffffffffffffffff1673ffffffffffffffffffffffffffffffffffffffff163373ffffffffffffffffffffffffffffffffffffffff1614620019d3576040517f08c379a0000000000000000000000000000000000000000000000000000000008152600401620019ca9062003ce0565b60405180910390fd5b600960149054906101000a900460ff161562001a26576040517f08c379a000000000000000000000000000000000000000000000000000000000815260040162001a1d9062003d46565b60405180910390fd5b601460009054906101000a900473ffffffffffffffffffffffffffffffffffffffff1673ffffffffffffffffffffffffffffffffffffffff1663286dd3f5826040518263ffffffff1660e01b815260040162001a839190620039ea565b602060405180830381600087803b15801562001a9e57600080fd5b505af115801562001ab3573d6000803e3d6000fd5b505050506040513d601f19601f8201168201806040525081019062001ad991906200340d565b5050565b60008060029054906101000a900473ffffffffffffffffffffffffffffffffffffffff16905090565b600e6020528060005260406000206000915054906101000a900460ff1681565b601160009054906101000a900473ffffffffffffffffffffffffffffffffffffffff1681565b60016020528060005260406000206000915054906101000a900460ff1681565b600960009054906101000a900473ffffffffffffffffffffffffffffffffffffffff1673ffffffffffffffffffffffffffffffffffffffff163373ffffffffffffffffffffffffffffffffffffffff161462001bff576040517f08c379a000000000000000000000000000000000000000000000000000000000815260040162001bf69062003d02565b60405180910390fd5b6000600960156101000a81548160ff021916908315150217905550565b600960009054906101000a900473ffffffffffffffffffffffffffffffffffffffff1673ffffffffffffffffffffffffffffffffffffffff163373ffffffffffffffffffffffffffffffffffffffff161462001caf576040517f08c379a000000000000000000000000000000000000000000000000000000000815260040162001ca69062003d02565b60405180910390fd5b6001600960156101000a81548160ff021916908315150217905550565b600160003373ffffffffffffffffffffffffffffffffffffffff1673ffffffffffffffffffffffffffffffffffffffff16815260200190815260200160002060009054906101000a900460ff168062001d315750600360009054906101000a900460ff165b62001d73576040517f08c379a000000000000000000000000000000000000000000000000000000000815260040162001d6a9062003c14565b60405180910390fd5b6002600454141562001dbc576040517f08c379a000000000000000000000000000000000000000000000000000000000815260040162001db39062003d68565b60405180910390fd5b6002600481905550600960149054906101000a900460ff161562001e17576040517f08c379a000000000000000000000000000000000000000000000000000000000815260040162001e0e9062003d8a565b60405180910390fd5b600e60003373ffffffffffffffffffffffffffffffffffffffff1673ffffffffffffffffffffffffffffffffffffffff16815260200190815260200160002060009054906101000a900460ff161562001ea7576040517f08c379a000000000000000000000000000000000000000000000000000000000815260040162001e9e9062003bf2565b60405180910390fd5b600754601660009054906101000a900473ffffffffffffffffffffffffffffffffffffffff1673ffffffffffffffffffffffffffffffffffffffff166370a08231336040518263ffffffff1660e01b815260040162001f079190620039ea565b60206040518083038186803b15801562001f2057600080fd5b505afa15801562001f35573d6000803e3d6000fd5b505050506040513d601f19601f8201168201806040525081019062001f5b91906200358b565b1162001f9e576040517f08c379a000000000000000000000000000000000000000000000000000000000815260040162001f959062003bd0565b60405180910390fd5b6001600e60003373ffffffffffffffffffffffffffffffffffffffff1673ffffffffffffffffffffffffffffffffffffffff16815260200190815260200160002060006101000a81548160ff021916908315150217905550600f339080600181540180825580915050600190039060005260206000200160009091909190916101000a81548173ffffffffffffffffffffffffffffffffffffffff021916908373ffffffffffffffffffffffffffffffffffffffff160217905550601660009054906101000a900473ffffffffffffffffffffffffffffffffffffffff1673ffffffffffffffffffffffffffffffffffffffff166323b872dd33306007546040518463ffffffff1660e01b8152600401620020bc9392919062003a07565b602060405180830381600087803b158015620020d757600080fd5b505af1158015620020ec573d6000803e3d6000fd5b505050506040513d601f19601f820116820180604052508101906200211291906200340d565b507f9e71bc8eea02a63969f509818f2dafb9254532904319f9dbda79b67bd34a5f3d336007546040516200214892919062003a44565b60405180910390a16001600481905550565b600d60205281600052604060002081815481106200217757600080fd5b90600052602060002001600091509150505481565b600360009054906101000a900460ff1681565b6000620021ab62002b73565b73ffffffffffffffffffffffffffffffffffffffff16620021cb62001add565b73ffffffffffffffffffffffffffffffffffffffff161462002224576040517f08c379a00000000000000000000000000000000000000000000000000000000081526004016200221b9062003cbe565b60405180910390fd5b60005b82518110156200229657620022598382815181106200224b576200224a620041cf565b5b6020026020010151620014d0565b15620022805760016002600082825462002274919062003ebf565b92505081905550600191505b80806200228d9062004123565b91505062002227565b50919050565b6000600160008373ffffffffffffffffffffffffffffffffffffffff1673ffffffffffffffffffffffffffffffffffffffff16815260200190815260200160002060009054906101000a900460ff169050919050565b600960009054906101000a900473ffffffffffffffffffffffffffffffffffffffff1673ffffffffffffffffffffffffffffffffffffffff163373ffffffffffffffffffffffffffffffffffffffff161462002385576040517f08c379a00000000000000000000000000000000000000000000000000000000081526004016200237c9062003d02565b60405180910390fd5b6001600960146101000a81548160ff021916908315150217905550565b600b6020528060005260406000206000915090505481565b620023c462002b73565b73ffffffffffffffffffffffffffffffffffffffff16620023e462001add565b73ffffffffffffffffffffffffffffffffffffffff16146200243d576040517f08c379a0000000000000000000000000000000000000000000000000000000008152600401620024349062003cbe565b60405180910390fd5b600073ffffffffffffffffffffffffffffffffffffffff168173ffffffffffffffffffffffffffffffffffffffff161415620024b0576040517f08c379a0000000000000000000000000000000000000000000000000000000008152600401620024a79062003bae565b60405180910390fd5b620024bb8162002c2b565b50565b600960159054906101000a900460ff161562002511576040517f08c379a0000000000000000000000000000000000000000000000000000000008152600401620025089062003c7a565b60405180910390fd5b600e60003373ffffffffffffffffffffffffffffffffffffffff1673ffffffffffffffffffffffffffffffffffffffff16815260200190815260200160002060009054906101000a900460ff16620025a0576040517f08c379a0000000000000000000000000000000000000000000000000000000008152600401620025979062003d24565b60405180910390fd5b6000601560009054906101000a900473ffffffffffffffffffffffffffffffffffffffff1673ffffffffffffffffffffffffffffffffffffffff166306575c896040518163ffffffff1660e01b815260040160206040518083038186803b1580156200260b57600080fd5b505afa15801562002620573d6000803e3d6000fd5b505050506040513d601f19601f820116820180604052508101906200264691906200358b565b905060005b600d60003373ffffffffffffffffffffffffffffffffffffffff1673ffffffffffffffffffffffffffffffffffffffff168152602001908152602001600020805490508110156200278b57620026d66040518060400160405280601181526020017f496e20666972737420666f72206c6f6f7000000000000000000000000000000081525062002b8e565b600a6000600d60003373ffffffffffffffffffffffffffffffffffffffff1673ffffffffffffffffffffffffffffffffffffffff16815260200190815260200160002083815481106200272e576200272d620041cf565b5b9060005260206000200154815260200190815260200160002082600881106200275c576200275b620041cf565b5b016000815480929190620027709062004088565b91905055508080620027829062004123565b9150506200264b565b5060005b82518110156200284d57620027d96040518060400160405280601281526020017f496e207365636f6e6420666f72206c6f6f70000000000000000000000000000081525062002b8e565b600a6000848381518110620027f357620027f2620041cf565b5b6020026020010151815260200190815260200160002082600881106200281e576200281d620041cf565b5b016000815480929190620028329062004123565b91905055508080620028449062004123565b9150506200278f565b5060005b82518110156200293d576200289b6040518060400160405280601181526020017f496e20746869726420666f72206c6f6f7000000000000000000000000000000081525062002b8e565b6001600a6000858481518110620028b757620028b6620041cf565b5b602002602001015181526020019081526020016000208360088110620028e257620028e1620041cf565b5b01541462002927576040517f08c379a00000000000000000000000000000000000000000000000000000000081526004016200291e9062003c36565b60405180910390fd5b8080620029349062004123565b91505062002851565b5060005b825181101562002a2657600a816200295a919062003f1c565b83828151811062002970576200296f620041cf565b5b602002602001015110158015620029ce57506001600a60018362002995919062003ebf565b620029a1919062003f1c565b620029ad919062003f7d565b838281518110620029c357620029c2620041cf565b5b602002602001015111155b62002a10576040517f08c379a000000000000000000000000000000000000000000000000000000000815260040162002a079062003c58565b60405180910390fd5b808062002a1d9062004123565b91505062002941565b5062002a676040518060400160405280601781526020017f53657474696e67206c696e657570206e6f77206261627900000000000000000081525062002b8e565b81600d60003373ffffffffffffffffffffffffffffffffffffffff1673ffffffffffffffffffffffffffffffffffffffff168152602001908152602001600020908051906020019062002abc92919062003030565b505050565b600860009054906101000a900473ffffffffffffffffffffffffffffffffffffffff1681565b62002af162003082565b600c60003373ffffffffffffffffffffffffffffffffffffffff1673ffffffffffffffffffffffffffffffffffffffff16815260200190815260200160002060088060200260405190810160405280929190826008801562002b69576020028201915b81548152602001906001019080831162002b54575b5050505050905090565b600033905090565b600062002b883062002f45565b15905090565b62002c288160405160240162002ba5919062003b8a565b6040516020818303038152906040527f41304fac000000000000000000000000000000000000000000000000000000007bffffffffffffffffffffffffffffffffffffffffffffffffffffffff19166020820180517bffffffffffffffffffffffffffffffffffffffffffffffffffffffff838183161783525050505062002f68565b50565b60008060029054906101000a900473ffffffffffffffffffffffffffffffffffffffff16905081600060026101000a81548173ffffffffffffffffffffffffffffffffffffffff021916908373ffffffffffffffffffffffffffffffffffffffff1602179055508173ffffffffffffffffffffffffffffffffffffffff168173ffffffffffffffffffffffffffffffffffffffff167f8be0079c531659141344cd1fd0a4f28419497f9722a3daafe3b4186f6b6457e060405160405180910390a35050565b6000600f8054905060075462002d07919062003f1c565b90506000600f60008154811062002d235762002d22620041cf565b5b9060005260206000200160009054906101000a900473ffffffffffffffffffffffffffffffffffffffff1690506000600190505b600f8054905081101562002e8857600b60008373ffffffffffffffffffffffffffffffffffffffff1673ffffffffffffffffffffffffffffffffffffffff16815260200190815260200160002054600b6000600f848154811062002dc05762002dbf620041cf565b5b9060005260206000200160009054906101000a900473ffffffffffffffffffffffffffffffffffffffff1673ffffffffffffffffffffffffffffffffffffffff1673ffffffffffffffffffffffffffffffffffffffff16815260200190815260200160002054111562002e7257600f818154811062002e445762002e43620041cf565b5b9060005260206000200160009054906101000a900473ffffffffffffffffffffffffffffffffffffffff1691505b808062002e7f9062004123565b91505062002d57565b50601660009054906101000a900473ffffffffffffffffffffffffffffffffffffffff1673ffffffffffffffffffffffffffffffffffffffff166323b872dd3083856040518463ffffffff1660e01b815260040162002eea9392919062003a07565b602060405180830381600087803b15801562002f0557600080fd5b505af115801562002f1a573d6000803e3d6000fd5b505050506040513d601f19601f8201168201806040525081019062002f4091906200340d565b505050565b6000808273ffffffffffffffffffffffffffffffffffffffff163b119050919050565b60008151905060006a636f6e736f6c652e6c6f679050602083016000808483855afa5050505050565b82805462002f9f90620040b7565b90600052602060002090601f01602090048101928262002fc357600085556200300f565b82601f1062002fde57803560ff19168380011785556200300f565b828001600101855582156200300f579182015b828111156200300e57823582559160200191906001019062002ff1565b5b5090506200301e9190620030a5565b5090565b61108d806200461783390190565b8280548282559060005260206000209081019282156200306f579160200282015b828111156200306e57825182559160200191906001019062003051565b5b5090506200307e9190620030a5565b5090565b604051806101000160405280600890602082028036833780820191505090505090565b5b80821115620030c0576000816000905550600101620030a6565b5090565b6000620030db620030d58462003df2565b62003dc9565b9050808382526020820190508285602086028201111562003101576200310062004237565b5b60005b858110156200313557816200311a8882620031ba565b84526020840193506020830192505060018101905062003104565b5050509392505050565b600062003156620031508462003e21565b62003dc9565b905080838252602082019050828560208602820111156200317c576200317b62004237565b5b60005b85811015620031b05781620031958882620032c4565b8452602084019350602083019250506001810190506200317f565b5050509392505050565b600081359050620031cb81620045c8565b92915050565b600082601f830112620031e957620031e862004232565b5b8135620031fb848260208601620030c4565b91505092915050565b600082601f8301126200321c576200321b62004232565b5b81356200322e8482602086016200313f565b91505092915050565b6000813590506200324881620045e2565b92915050565b6000815190506200325f81620045e2565b92915050565b60008083601f8401126200327e576200327d62004232565b5b8235905067ffffffffffffffff8111156200329e576200329d6200422d565b5b602083019150836001820283011115620032bd57620032bc62004237565b5b9250929050565b600081359050620032d581620045fc565b92915050565b600081519050620032ec81620045fc565b92915050565b6000602082840312156200330b576200330a62004241565b5b60006200331b84828501620031ba565b91505092915050565b600080604083850312156200333e576200333d62004241565b5b60006200334e85828601620031ba565b92505060206200336185828601620032c4565b9150509250929050565b60006020828403121562003384576200338362004241565b5b600082013567ffffffffffffffff811115620033a557620033a46200423c565b5b620033b384828501620031d1565b91505092915050565b600060208284031215620033d557620033d462004241565b5b600082013567ffffffffffffffff811115620033f657620033f56200423c565b5b620034048482850162003204565b91505092915050565b60006020828403121562003426576200342562004241565b5b600062003436848285016200324e565b91505092915050565b60008060008060008060008060008060006101408c8e03121562003468576200346762004241565b5b60008c013567ffffffffffffffff8111156200348957620034886200423c565b5b620034978e828f0162003265565b9b509b50506020620034ac8e828f01620032c4565b9950506040620034bf8e828f0162003237565b9850506060620034d28e828f01620031ba565b9750506080620034e58e828f01620031ba565b96505060a0620034f88e828f01620031ba565b95505060c06200350b8e828f01620031ba565b94505060e06200351e8e828f01620031ba565b935050610100620035328e828f01620031ba565b925050610120620035468e828f01620031ba565b9150509295989b509295989b9093969950565b60006020828403121562003572576200357162004241565b5b60006200358284828501620032c4565b91505092915050565b600060208284031215620035a457620035a362004241565b5b6000620035b484828501620032db565b91505092915050565b6000620035cb8383620039b7565b60208301905092915050565b620035e28162003fb8565b82525050565b8082525050565b620035fa8162003e6f565b62003606818462003e92565b9250620036138262003e50565b8060005b838110156200364a5781516200362e8782620035bd565b96506200363b8362003e85565b92505060018101905062003617565b505050505050565b6200365d8162003fcc565b82525050565b6200366e8162004002565b82525050565b6200367f8162004016565b82525050565b8082525050565b8082525050565b8082525050565b8082525050565b6000620036ae8262003e7a565b620036ba818562003e9d565b9350620036cc81856020860162004052565b620036d78162004246565b840191505092915050565b60008154620036f181620040b7565b620036fd818662003eae565b945060018216600081146200371b57600181146200372e5762003765565b60ff198316865260208601935062003765565b620037398562003e5a565b60005b838110156200375d578154818901526001820191506020810190506200373c565b808801955050505b50505092915050565b60006200377d60268362003e9d565b91506200378a8262004257565b604082019050919050565b6000620037a4601d8362003e9d565b9150620037b182620042a6565b602082019050919050565b6000620037cb60238362003e9d565b9150620037d882620042cf565b604082019050919050565b6000620037f2601a8362003e9d565b9150620037ff826200431e565b602082019050919050565b60006200381960258362003e9d565b9150620038268262004347565b604082019050919050565b60006200384060318362003e9d565b91506200384d8262004396565b604082019050919050565b600062003867601e8362003e9d565b91506200387482620043e5565b602082019050919050565b60006200388e602e8362003e9d565b91506200389b826200440e565b604082019050919050565b6000620038b560208362003e9d565b9150620038c2826200445d565b602082019050919050565b6000620038dc60178362003e9d565b9150620038e98262004486565b602082019050919050565b60006200390360168362003e9d565b91506200391082620044af565b602082019050919050565b60006200392a60168362003e9d565b91506200393782620044d8565b602082019050919050565b60006200395160418362003e9d565b91506200395e8262004501565b606082019050919050565b600062003978601f8362003e9d565b9150620039858262004576565b602082019050919050565b60006200399f60178362003e9d565b9150620039ac826200459f565b602082019050919050565b620039c28162003ff8565b82525050565b620039d38162003ff8565b82525050565b620039e48162003ff8565b82525050565b600060208201905062003a016000830184620035d7565b92915050565b600060608201905062003a1e6000830186620035d7565b62003a2d6020830185620035d7565b62003a3c6040830184620039c8565b949350505050565b600060408201905062003a5b6000830185620035d7565b62003a6a6020830184620039c8565b9392505050565b60006101008201905062003a896000830184620035ef565b92915050565b600060208201905062003aa6600083018462003652565b92915050565b600060208201905062003ac3600083018462003674565b92915050565b600060808201905062003ae060008301876200369a565b62003aef6020830186620035e8565b62003afe6040830185620039d9565b818103606083015262003b128184620036e2565b905095945050505050565b600060c08201905062003b3460008301896200369a565b62003b436020830188620039d9565b62003b52604083018762003663565b62003b61606083018662003685565b62003b70608083018562003693565b62003b7f60a08301846200368c565b979650505050505050565b6000602082019050818103600083015262003ba68184620036a1565b905092915050565b6000602082019050818103600083015262003bc9816200376e565b9050919050565b6000602082019050818103600083015262003beb8162003795565b9050919050565b6000602082019050818103600083015262003c0d81620037bc565b9050919050565b6000602082019050818103600083015262003c2f81620037e3565b9050919050565b6000602082019050818103600083015262003c51816200380a565b9050919050565b6000602082019050818103600083015262003c738162003831565b9050919050565b6000602082019050818103600083015262003c958162003858565b9050919050565b6000602082019050818103600083015262003cb7816200387f565b9050919050565b6000602082019050818103600083015262003cd981620038a6565b9050919050565b6000602082019050818103600083015262003cfb81620038cd565b9050919050565b6000602082019050818103600083015262003d1d81620038f4565b9050919050565b6000602082019050818103600083015262003d3f816200391b565b9050919050565b6000602082019050818103600083015262003d618162003942565b9050919050565b6000602082019050818103600083015262003d838162003969565b9050919050565b6000602082019050818103600083015262003da58162003990565b9050919050565b600060208201905062003dc36000830184620039c8565b92915050565b600062003dd562003de8565b905062003de38282620040ed565b919050565b6000604051905090565b600067ffffffffffffffff82111562003e105762003e0f620041fe565b5b602082029050602081019050919050565b600067ffffffffffffffff82111562003e3f5762003e3e620041fe565b5b602082029050602081019050919050565b6000819050919050565b60008190508160005260206000209050919050565b600060089050919050565b600081519050919050565b6000602082019050919050565b600081905092915050565b600082825260208201905092915050565b600082825260208201905092915050565b600062003ecc8262003ff8565b915062003ed98362003ff8565b9250827fffffffffffffffffffffffffffffffffffffffffffffffffffffffffffffffff0382111562003f115762003f1062004171565b5b828201905092915050565b600062003f298262003ff8565b915062003f368362003ff8565b9250817fffffffffffffffffffffffffffffffffffffffffffffffffffffffffffffffff048311821515161562003f725762003f7162004171565b5b828202905092915050565b600062003f8a8262003ff8565b915062003f978362003ff8565b92508282101562003fad5762003fac62004171565b5b828203905092915050565b600062003fc58262003fd8565b9050919050565b60008115159050919050565b600073ffffffffffffffffffffffffffffffffffffffff82169050919050565b6000819050919050565b60006200400f826200402a565b9050919050565b600062004023826200402a565b9050919050565b600062004037826200403e565b9050919050565b60006200404b8262003fd8565b9050919050565b60005b838110156200407257808201518184015260208101905062004055565b8381111562004082576000848401525b50505050565b6000620040958262003ff8565b91506000821415620040ac57620040ab62004171565b5b600182039050919050565b60006002820490506001821680620040d057607f821691505b60208210811415620040e757620040e6620041a0565b5b50919050565b620040f88262004246565b810181811067ffffffffffffffff821117156200411a5762004119620041fe565b5b80604052505050565b6000620041308262003ff8565b91507fffffffffffffffffffffffffffffffffffffffffffffffffffffffffffffffff82141562004166576200416562004171565b5b600182019050919050565b7f4e487b7100000000000000000000000000000000000000000000000000000000600052601160045260246000fd5b7f4e487b7100000000000000000000000000000000000000000000000000000000600052602260045260246000fd5b7f4e487b7100000000000000000000000000000000000000000000000000000000600052603260045260246000fd5b7f4e487b7100000000000000000000000000000000000000000000000000000000600052604160045260246000fd5b600080fd5b600080fd5b600080fd5b600080fd5b600080fd5b6000601f19601f8301169050919050565b7f4f776e61626c653a206e6577206f776e657220697320746865207a65726f206160008201527f6464726573730000000000000000000000000000000000000000000000000000602082015250565b7f496e737566666963656e742066756e647320666f72207374616b696e67000000600082015250565b7f596f75206861766520616c7265616479206a6f696e65642074686973206c656160008201527f6775650000000000000000000000000000000000000000000000000000000000602082015250565b7f55736572206973206e6f742077686974656c6973746564203a28000000000000600082015250565b7f4475706c6963617465206174686c65746549447320617265206e6f7420616c6c60008201527f6f7765642e000000000000000000000000000000000000000000000000000000602082015250565b7f596f75206172652073657474696e6720616e206174686c65746520696e20746860008201527f652077726f6e6720706f736974696f6e21000000000000000000000000000000602082015250565b7f6c696e657570206973206c6f636b656420666f7220746865207765656b210000600082015250565b7f496e697469616c697a61626c653a20636f6e747261637420697320616c72656160008201527f647920696e697469616c697a6564000000000000000000000000000000000000602082015250565b7f4f776e61626c653a2063616c6c6572206973206e6f7420746865206f776e6572600082015250565b7f43616c6c6572206973206e6f74207468652061646d696e000000000000000000600082015250565b7f43616c6c6572206973206e6f74205465616d4469666600000000000000000000600082015250565b7f55736572206973206e6f7420696e204c65616775652e00000000000000000000600082015250565b7f4e6f626f64792063616e20656e7465722f6578697420746865206c656167756560008201527f20616e796d6f72652e2054686520736561736f6e20686173207374617274656460208201527f2100000000000000000000000000000000000000000000000000000000000000604082015250565b7f5265656e7472616e637947756172643a207265656e7472616e742063616c6c00600082015250565b7f4c656167756520456e74727920697320436c6f73656421000000000000000000600082015250565b620045d38162003fb8565b8114620045df57600080fd5b50565b620045ed8162003fcc565b8114620045f957600080fd5b50565b620046078162003ff8565b81146200461357600080fd5b5056fe608060405234801561001057600080fd5b5061002d61002261003260201b60201c565b61003a60201b60201c565b6100fe565b600033905090565b60008060009054906101000a900473ffffffffffffffffffffffffffffffffffffffff169050816000806101000a81548173ffffffffffffffffffffffffffffffffffffffff021916908373ffffffffffffffffffffffffffffffffffffffff1602179055508173ffffffffffffffffffffffffffffffffffffffff168173ffffffffffffffffffffffffffffffffffffffff167f8be0079c531659141344cd1fd0a4f28419497f9722a3daafe3b4186f6b6457e060405160405180910390a35050565b610f808061010d6000396000f3fe608060405234801561001057600080fd5b50600436106100a95760003560e01c80638da5cb5b116100715780638da5cb5b146101665780639b19251a14610184578063dc9a1535146101b4578063e2ec6ec3146101d2578063e35a899914610202578063f2fde38b14610232576100a9565b806324953eaa146100ae578063286dd3f5146100de57806344eaa84e1461010e578063715018a61461012c5780637b9417c814610136575b600080fd5b6100c860048036038101906100c39190610b0e565b61024e565b6040516100d59190610be5565b60405180910390f35b6100f860048036038101906100f39190610ae1565b610338565b6040516101059190610be5565b60405180910390f35b6101166104bb565b6040516101239190610c40565b60405180910390f35b6101346104c5565b005b610150600480360381019061014b9190610ae1565b61054d565b60405161015d9190610be5565b60405180910390f35b61016e6106ce565b60405161017b9190610bca565b60405180910390f35b61019e60048036038101906101999190610ae1565b6106f7565b6040516101ab9190610be5565b60405180910390f35b6101bc610717565b6040516101c99190610be5565b60405180910390f35b6101ec60048036038101906101e79190610b0e565b61072a565b6040516101f99190610be5565b60405180910390f35b61021c60048036038101906102179190610ae1565b610814565b6040516102299190610be5565b60405180910390f35b61024c60048036038101906102479190610ae1565b61086a565b005b6000610258610962565b73ffffffffffffffffffffffffffffffffffffffff166102766106ce565b73ffffffffffffffffffffffffffffffffffffffff16146102cc576040517f08c379a00000000000000000000000000000000000000000000000000000000081526004016102c390610c20565b60405180910390fd5b60005b8251811015610332576102fb8382815181106102ee576102ed610e38565b5b6020026020010151610338565b1561031f576001600260008282546103139190610d13565b92505081905550600191505b808061032a90610dc0565b9150506102cf565b50919050565b6000610342610962565b73ffffffffffffffffffffffffffffffffffffffff166103606106ce565b73ffffffffffffffffffffffffffffffffffffffff16146103b6576040517f08c379a00000000000000000000000000000000000000000000000000000000081526004016103ad90610c20565b60405180910390fd5b600160008373ffffffffffffffffffffffffffffffffffffffff1673ffffffffffffffffffffffffffffffffffffffff16815260200190815260200160002060009054906101000a900460ff16156104b6576000600160008473ffffffffffffffffffffffffffffffffffffffff1673ffffffffffffffffffffffffffffffffffffffff16815260200190815260200160002060006101000a81548160ff0219169083151502179055507ff1abf01a1043b7c244d128e8595cf0c1d10743b022b03a02dffd8ca3bf729f5a8260405161048f9190610bca565b60405180910390a16001600260008282546104aa9190610d13565b92505081905550600190505b919050565b6000600254905090565b6104cd610962565b73ffffffffffffffffffffffffffffffffffffffff166104eb6106ce565b73ffffffffffffffffffffffffffffffffffffffff1614610541576040517f08c379a000000000000000000000000000000000000000000000000000000000815260040161053890610c20565b60405180910390fd5b61054b600061096a565b565b6000610557610962565b73ffffffffffffffffffffffffffffffffffffffff166105756106ce565b73ffffffffffffffffffffffffffffffffffffffff16146105cb576040517f08c379a00000000000000000000000000000000000000000000000000000000081526004016105c290610c20565b60405180910390fd5b600160008373ffffffffffffffffffffffffffffffffffffffff1673ffffffffffffffffffffffffffffffffffffffff16815260200190815260200160002060009054906101000a900460ff166106c95760018060008473ffffffffffffffffffffffffffffffffffffffff1673ffffffffffffffffffffffffffffffffffffffff16815260200190815260200160002060006101000a81548160ff0219169083151502179055507fd1bba68c128cc3f427e5831b3c6f99f480b6efa6b9e80c757768f6124158cc3f826040516106a29190610bca565b60405180910390a16001600260008282546106bd9190610cbd565b92505081905550600190505b919050565b60008060009054906101000a900473ffffffffffffffffffffffffffffffffffffffff16905090565b60016020528060005260406000206000915054906101000a900460ff1681565b600360009054906101000a900460ff1681565b6000610734610962565b73ffffffffffffffffffffffffffffffffffffffff166107526106ce565b73ffffffffffffffffffffffffffffffffffffffff16146107a8576040517f08c379a000000000000000000000000000000000000000000000000000000000815260040161079f90610c20565b60405180910390fd5b60005b825181101561080e576107d78382815181106107ca576107c9610e38565b5b602002602001015161054d565b156107fb576001600260008282546107ef9190610cbd565b92505081905550600191505b808061080690610dc0565b9150506107ab565b50919050565b6000600160008373ffffffffffffffffffffffffffffffffffffffff1673ffffffffffffffffffffffffffffffffffffffff16815260200190815260200160002060009054906101000a900460ff169050919050565b610872610962565b73ffffffffffffffffffffffffffffffffffffffff166108906106ce565b73ffffffffffffffffffffffffffffffffffffffff16146108e6576040517f08c379a00000000000000000000000000000000000000000000000000000000081526004016108dd90610c20565b60405180910390fd5b600073ffffffffffffffffffffffffffffffffffffffff168173ffffffffffffffffffffffffffffffffffffffff161415610956576040517f08c379a000000000000000000000000000000000000000000000000000000000815260040161094d90610c00565b60405180910390fd5b61095f8161096a565b50565b600033905090565b60008060009054906101000a900473ffffffffffffffffffffffffffffffffffffffff169050816000806101000a81548173ffffffffffffffffffffffffffffffffffffffff021916908373ffffffffffffffffffffffffffffffffffffffff1602179055508173ffffffffffffffffffffffffffffffffffffffff168173ffffffffffffffffffffffffffffffffffffffff167f8be0079c531659141344cd1fd0a4f28419497f9722a3daafe3b4186f6b6457e060405160405180910390a35050565b6000610a41610a3c84610c80565b610c5b565b90508083825260208201905082856020860282011115610a6457610a63610e9b565b5b60005b85811015610a945781610a7a8882610a9e565b845260208401935060208301925050600181019050610a67565b5050509392505050565b600081359050610aad81610f33565b92915050565b600082601f830112610ac857610ac7610e96565b5b8135610ad8848260208601610a2e565b91505092915050565b600060208284031215610af757610af6610ea5565b5b6000610b0584828501610a9e565b91505092915050565b600060208284031215610b2457610b23610ea5565b5b600082013567ffffffffffffffff811115610b4257610b41610ea0565b5b610b4e84828501610ab3565b91505092915050565b610b6081610d47565b82525050565b610b6f81610d59565b82525050565b6000610b82602683610cac565b9150610b8d82610ebb565b604082019050919050565b6000610ba5602083610cac565b9150610bb082610f0a565b602082019050919050565b610bc481610d85565b82525050565b6000602082019050610bdf6000830184610b57565b92915050565b6000602082019050610bfa6000830184610b66565b92915050565b60006020820190508181036000830152610c1981610b75565b9050919050565b60006020820190508181036000830152610c3981610b98565b9050919050565b6000602082019050610c556000830184610bbb565b92915050565b6000610c65610c76565b9050610c718282610d8f565b919050565b6000604051905090565b600067ffffffffffffffff821115610c9b57610c9a610e67565b5b602082029050602081019050919050565b600082825260208201905092915050565b6000610cc882610d85565b9150610cd383610d85565b9250827fffffffffffffffffffffffffffffffffffffffffffffffffffffffffffffffff03821115610d0857610d07610e09565b5b828201905092915050565b6000610d1e82610d85565b9150610d2983610d85565b925082821015610d3c57610d3b610e09565b5b828203905092915050565b6000610d5282610d65565b9050919050565b60008115159050919050565b600073ffffffffffffffffffffffffffffffffffffffff82169050919050565b6000819050919050565b610d9882610eaa565b810181811067ffffffffffffffff82111715610db757610db6610e67565b5b80604052505050565b6000610dcb82610d85565b91507fffffffffffffffffffffffffffffffffffffffffffffffffffffffffffffffff821415610dfe57610dfd610e09565b5b600182019050919050565b7f4e487b7100000000000000000000000000000000000000000000000000000000600052601160045260246000fd5b7f4e487b7100000000000000000000000000000000000000000000000000000000600052603260045260246000fd5b7f4e487b7100000000000000000000000000000000000000000000000000000000600052604160045260246000fd5b600080fd5b600080fd5b600080fd5b600080fd5b6000601f19601f8301169050919050565b7f4f776e61626c653a206e6577206f776e657220697320746865207a65726f206160008201527f6464726573730000000000000000000000000000000000000000000000000000602082015250565b7f4f776e61626c653a2063616c6c6572206973206e6f7420746865206f776e6572600082015250565b610f3c81610d47565b8114610f4757600080fd5b5056fea2646970667358221220bed30b98fd52fd06427fedf4fcef33f2521d9e36ee375e945eb6c8c8ba1d457d64736f6c63430008070033a2646970667358221220b509cefbb2a5e7aa39b34fbbf075677443ca17e57622cd9fec76976e53b23cb364736f6c63430008070033",
  "linkReferences": {
    "contracts/MOBALogicLibrary.sol": {
      "MOBALogicLibrary": [
        {
          "length": 20,
          "start": 2635
        },
        {
          "length": 20,
          "start": 6564
        }
      ]
    }
  },
  "deployedLinkReferences": {
    "contracts/MOBALogicLibrary.sol": {
      "MOBALogicLibrary": [
        {
          "length": 20,
          "start": 2350
        },
        {
          "length": 20,
          "start": 6279
        }
      ]
    }
  }
}