{
  "_format": "hh-sol-artifact-1",
  "contractName": "Athletes",
  "sourceName": "contracts/Athletes.sol",
  "abi": [
    {
      "anonymous": false,
      "inputs": [
        {
          "indexed": true,
          "internalType": "address",
          "name": "previousOwner",
          "type": "address"
        },
        {
          "indexed": true,
          "internalType": "address",
          "name": "newOwner",
          "type": "address"
        }
      ],
      "name": "OwnershipTransferred",
      "type": "event"
    },
    {
      "inputs": [
        {
          "internalType": "uint256",
          "name": "athleteId",
          "type": "uint256"
        },
        {
          "internalType": "uint256",
          "name": "weeklyScore",
          "type": "uint256"
        }
      ],
      "name": "appendStats",
      "outputs": [],
      "stateMutability": "nonpayable",
      "type": "function"
    },
    {
      "inputs": [
        {
          "internalType": "uint256",
          "name": "",
          "type": "uint256"
        },
        {
          "internalType": "uint256",
          "name": "",
          "type": "uint256"
        }
      ],
      "name": "athleteToScores",
      "outputs": [
        {
          "internalType": "uint256",
          "name": "",
          "type": "uint256"
        }
      ],
      "stateMutability": "view",
      "type": "function"
    },
    {
      "inputs": [
        {
          "internalType": "uint256",
          "name": "",
          "type": "uint256"
        }
      ],
      "name": "athletes",
      "outputs": [
        {
          "internalType": "uint256",
          "name": "athleteID",
          "type": "uint256"
        }
      ],
      "stateMutability": "view",
      "type": "function"
    },
    {
      "inputs": [
        {
          "internalType": "uint256",
          "name": "athleteID",
          "type": "uint256"
        }
      ],
      "name": "calculateScoreOnChain",
      "outputs": [
        {
          "internalType": "uint256",
          "name": "",
          "type": "uint256"
        }
      ],
      "stateMutability": "nonpayable",
      "type": "function"
    },
    {
      "inputs": [
        {
          "internalType": "uint256",
          "name": "index",
          "type": "uint256"
        }
      ],
      "name": "getAthleteScores",
      "outputs": [
        {
          "internalType": "uint256[]",
          "name": "",
          "type": "uint256[]"
        }
      ],
      "stateMutability": "view",
      "type": "function"
    },
    {
      "inputs": [],
      "name": "getAthletes",
      "outputs": [
        {
          "components": [
            {
              "internalType": "uint256",
              "name": "athleteID",
              "type": "uint256"
            },
            {
              "internalType": "uint256[]",
              "name": "weeklyScores",
              "type": "uint256[]"
            }
          ],
          "internalType": "struct Athletes.Athlete[]",
          "name": "",
          "type": "tuple[]"
        }
      ],
      "stateMutability": "view",
      "type": "function"
    },
    {
      "inputs": [],
      "name": "getStats",
      "outputs": [
        {
          "components": [
            {
              "internalType": "uint256",
              "name": "athleteID",
              "type": "uint256"
            },
            {
              "internalType": "uint256[]",
              "name": "weeklyScores",
              "type": "uint256[]"
            }
          ],
          "internalType": "struct Athletes.Athlete[]",
          "name": "",
          "type": "tuple[]"
        }
      ],
      "stateMutability": "nonpayable",
      "type": "function"
    },
    {
      "inputs": [],
      "name": "owner",
      "outputs": [
        {
          "internalType": "address",
          "name": "",
          "type": "address"
        }
      ],
      "stateMutability": "view",
      "type": "function"
    },
    {
      "inputs": [],
      "name": "renounceOwnership",
      "outputs": [],
      "stateMutability": "nonpayable",
      "type": "function"
    },
    {
      "inputs": [
        {
          "internalType": "address",
          "name": "newOwner",
          "type": "address"
        }
      ],
      "name": "transferOwnership",
      "outputs": [],
      "stateMutability": "nonpayable",
      "type": "function"
    }
  ],
  "bytecode": "0x608060405234801561001057600080fd5b5061002d61002261003260201b60201c565b61003a60201b60201c565b6100fe565b600033905090565b60008060009054906101000a900473ffffffffffffffffffffffffffffffffffffffff169050816000806101000a81548173ffffffffffffffffffffffffffffffffffffffff021916908373ffffffffffffffffffffffffffffffffffffffff1602179055508173ffffffffffffffffffffffffffffffffffffffff168173ffffffffffffffffffffffffffffffffffffffff167f8be0079c531659141344cd1fd0a4f28419497f9722a3daafe3b4186f6b6457e060405160405180910390a35050565b610f4a8061010d6000396000f3fe608060405234801561001057600080fd5b506004361061009e5760003560e01c8063c59d484711610066578063c59d484714610147578063d4313da814610165578063edef8b8314610195578063ef5c1020146101c5578063f2fde38b146101e35761009e565b80632186e726146100a3578063715018a6146100d357806389b5056b146100dd5780638da5cb5b1461010d5780639e9d70661461012b575b600080fd5b6100bd60048036038101906100b89190610a1a565b6101ff565b6040516100ca9190610d06565b60405180910390f35b6100db610230565b005b6100f760048036038101906100f291906109ed565b6102b8565b6040516101049190610d06565b60405180910390f35b6101156102bf565b6040516101229190610c67565b60405180910390f35b61014560048036038101906101409190610a1a565b6102e8565b005b61014f6103da565b60405161015c9190610c82565b60405180910390f35b61017f600480360381019061017a91906109ed565b61059a565b60405161018c9190610ca4565b60405180910390f35b6101af60048036038101906101aa91906109ed565b610605565b6040516101bc9190610d06565b60405180910390f35b6101cd610633565b6040516101da9190610c82565b60405180910390f35b6101fd60048036038101906101f891906109c0565b6106f4565b005b6001602052816000526040600020818154811061021b57600080fd5b90600052602060002001600091509150505481565b6102386107ec565b73ffffffffffffffffffffffffffffffffffffffff166102566102bf565b73ffffffffffffffffffffffffffffffffffffffff16146102ac576040517f08c379a00000000000000000000000000000000000000000000000000000000081526004016102a390610ce6565b60405180910390fd5b6102b660006107f4565b565b6000919050565b60008060009054906101000a900473ffffffffffffffffffffffffffffffffffffffff16905090565b6102f06107ec565b73ffffffffffffffffffffffffffffffffffffffff1661030e6102bf565b73ffffffffffffffffffffffffffffffffffffffff1614610364576040517f08c379a000000000000000000000000000000000000000000000000000000000815260040161035b90610ce6565b60405180910390fd5b60006001600084815260200190815260200160002080549050141561039c576003600081548092919061039690610df1565b91905055505b600160008381526020019081526020016000208190806001815401808255809150506001900390600052602060002001600090919091909150555050565b6060600260006103ea91906108b8565b60005b6003548110156104da57600060405180604001604052808381526020016001600085815260200190815260200160002080548060200260200160405190810160405280929190818152602001828054801561046757602002820191906000526020600020905b815481526020019060010190808311610453575b5050505050815250905060028190806001815401808255809150506001900390600052602060002090600202016000909190919091506000820151816000015560208201518160010190805190602001906104c39291906108dc565b5050505080806104d290610df1565b9150506103ed565b506002805480602002602001604051908101604052809291908181526020016000905b828210156105915783829060005260206000209060020201604051806040016040529081600082015481526020016001820180548060200260200160405190810160405280929190818152602001828054801561057957602002820191906000526020600020905b815481526020019060010190808311610565575b505050505081525050815260200190600101906104fd565b50505050905090565b6060600160008381526020019081526020016000208054806020026020016040519081016040528092919081815260200182805480156105f957602002820191906000526020600020905b8154815260200190600101908083116105e5575b50505050509050919050565b6002818154811061061557600080fd5b90600052602060002090600202016000915090508060000154905081565b60606002805480602002602001604051908101604052809291908181526020016000905b828210156106eb578382906000526020600020906002020160405180604001604052908160008201548152602001600182018054806020026020016040519081016040528092919081815260200182805480156106d357602002820191906000526020600020905b8154815260200190600101908083116106bf575b50505050508152505081526020019060010190610657565b50505050905090565b6106fc6107ec565b73ffffffffffffffffffffffffffffffffffffffff1661071a6102bf565b73ffffffffffffffffffffffffffffffffffffffff1614610770576040517f08c379a000000000000000000000000000000000000000000000000000000000815260040161076790610ce6565b60405180910390fd5b600073ffffffffffffffffffffffffffffffffffffffff168173ffffffffffffffffffffffffffffffffffffffff1614156107e0576040517f08c379a00000000000000000000000000000000000000000000000000000000081526004016107d790610cc6565b60405180910390fd5b6107e9816107f4565b50565b600033905090565b60008060009054906101000a900473ffffffffffffffffffffffffffffffffffffffff169050816000806101000a81548173ffffffffffffffffffffffffffffffffffffffff021916908373ffffffffffffffffffffffffffffffffffffffff1602179055508173ffffffffffffffffffffffffffffffffffffffff168173ffffffffffffffffffffffffffffffffffffffff167f8be0079c531659141344cd1fd0a4f28419497f9722a3daafe3b4186f6b6457e060405160405180910390a35050565b50805460008255600202906000526020600020908101906108d99190610929565b50565b828054828255906000526020600020908101928215610918579160200282015b828111156109175782518255916020019190600101906108fc565b5b5090506109259190610958565b5090565b5b808211156109545760008082016000905560018201600061094b9190610975565b5060020161092a565b5090565b5b80821115610971576000816000905550600101610959565b5090565b50805460008255906000526020600020908101906109939190610958565b50565b6000813590506109a581610ee6565b92915050565b6000813590506109ba81610efd565b92915050565b6000602082840312156109d6576109d5610e69565b5b60006109e484828501610996565b91505092915050565b600060208284031215610a0357610a02610e69565b5b6000610a11848285016109ab565b91505092915050565b60008060408385031215610a3157610a30610e69565b5b6000610a3f858286016109ab565b9250506020610a50858286016109ab565b9150509250929050565b6000610a668383610c0c565b905092915050565b6000610a7a8383610c49565b60208301905092915050565b610a8f81610db5565b82525050565b6000610aa082610d41565b610aaa8185610d71565b935083602082028501610abc85610d21565b8060005b85811015610af85784840389528151610ad98582610a5a565b9450610ae483610d57565b925060208a01995050600181019050610ac0565b50829750879550505050505092915050565b6000610b1582610d4c565b610b1f8185610d82565b9350610b2a83610d31565b8060005b83811015610b5b578151610b428882610a6e565b9750610b4d83610d64565b925050600181019050610b2e565b5085935050505092915050565b6000610b7382610d4c565b610b7d8185610d93565b9350610b8883610d31565b8060005b83811015610bb9578151610ba08882610a6e565b9750610bab83610d64565b925050600181019050610b8c565b5085935050505092915050565b6000610bd3602683610da4565b9150610bde82610e6e565b604082019050919050565b6000610bf6602083610da4565b9150610c0182610ebd565b602082019050919050565b6000604083016000830151610c246000860182610c49565b5060208301518482036020860152610c3c8282610b0a565b9150508091505092915050565b610c5281610de7565b82525050565b610c6181610de7565b82525050565b6000602082019050610c7c6000830184610a86565b92915050565b60006020820190508181036000830152610c9c8184610a95565b905092915050565b60006020820190508181036000830152610cbe8184610b68565b905092915050565b60006020820190508181036000830152610cdf81610bc6565b9050919050565b60006020820190508181036000830152610cff81610be9565b9050919050565b6000602082019050610d1b6000830184610c58565b92915050565b6000819050602082019050919050565b6000819050602082019050919050565b600081519050919050565b600081519050919050565b6000602082019050919050565b6000602082019050919050565b600082825260208201905092915050565b600082825260208201905092915050565b600082825260208201905092915050565b600082825260208201905092915050565b6000610dc082610dc7565b9050919050565b600073ffffffffffffffffffffffffffffffffffffffff82169050919050565b6000819050919050565b6000610dfc82610de7565b91507fffffffffffffffffffffffffffffffffffffffffffffffffffffffffffffffff821415610e2f57610e2e610e3a565b5b600182019050919050565b7f4e487b7100000000000000000000000000000000000000000000000000000000600052601160045260246000fd5b600080fd5b7f4f776e61626c653a206e6577206f776e657220697320746865207a65726f206160008201527f6464726573730000000000000000000000000000000000000000000000000000602082015250565b7f4f776e61626c653a2063616c6c6572206973206e6f7420746865206f776e6572600082015250565b610eef81610db5565b8114610efa57600080fd5b50565b610f0681610de7565b8114610f1157600080fd5b5056fea2646970667358221220b91507b45cc8f084153aa219e74de25fc62e243bcf94b06adbbc01780f94c87564736f6c63430008070033",
  "linkReferences": {},
  "deployedLinkReferences": {}
}