{
  "_format": "hh-sol-artifact-1",
  "contractName": "Athletes",
  "sourceName": "contracts/Athletes.sol",
  "abi": [
    {
      "anonymous": false,
      "inputs": [
        {
          "indexed": true,
          "internalType": "address",
          "name": "previousOwner",
          "type": "address"
        },
        {
          "indexed": true,
          "internalType": "address",
          "name": "newOwner",
          "type": "address"
        }
      ],
      "name": "OwnershipTransferred",
      "type": "event"
    },
    {
      "inputs": [
        {
          "internalType": "uint256",
          "name": "athleteId",
          "type": "uint256"
        },
        {
          "internalType": "uint256",
          "name": "weeklyScore",
          "type": "uint256"
        },
        {
          "internalType": "uint256",
          "name": "weekNum",
          "type": "uint256"
        }
      ],
      "name": "appendStats",
      "outputs": [],
      "stateMutability": "nonpayable",
      "type": "function"
    },
    {
      "inputs": [
        {
          "internalType": "uint256",
          "name": "",
          "type": "uint256"
        },
        {
          "internalType": "uint256",
          "name": "",
          "type": "uint256"
        }
      ],
      "name": "athleteToScores",
      "outputs": [
        {
          "internalType": "uint256",
          "name": "",
          "type": "uint256"
        }
      ],
      "stateMutability": "view",
      "type": "function"
    },
    {
      "inputs": [
        {
          "internalType": "uint256",
          "name": "",
          "type": "uint256"
        }
      ],
      "name": "athletes",
      "outputs": [
        {
          "internalType": "uint256",
          "name": "athleteID",
          "type": "uint256"
        }
      ],
      "stateMutability": "view",
      "type": "function"
    },
    {
      "inputs": [
        {
          "components": [
            {
              "internalType": "uint256",
              "name": "kills",
              "type": "uint256"
            }
          ],
          "internalType": "struct Athletes.Stats",
          "name": "athleteStats",
          "type": "tuple"
        }
      ],
      "name": "calculateScoreOnChain",
      "outputs": [
        {
          "internalType": "uint256",
          "name": "score",
          "type": "uint256"
        }
      ],
      "stateMutability": "pure",
      "type": "function"
    },
    {
      "inputs": [
        {
          "internalType": "uint256",
          "name": "index",
          "type": "uint256"
        }
      ],
      "name": "getAthleteScores",
      "outputs": [
        {
          "internalType": "uint256[8]",
          "name": "",
          "type": "uint256[8]"
        }
      ],
      "stateMutability": "view",
      "type": "function"
    },
    {
      "inputs": [],
      "name": "getAthletes",
      "outputs": [
        {
          "components": [
            {
              "internalType": "uint256",
              "name": "athleteID",
              "type": "uint256"
            },
            {
              "internalType": "uint256[8]",
              "name": "weeklyScores",
              "type": "uint256[8]"
            }
          ],
          "internalType": "struct Athletes.Athlete[]",
          "name": "",
          "type": "tuple[]"
        }
      ],
      "stateMutability": "view",
      "type": "function"
    },
    {
      "inputs": [],
      "name": "getNumAthletes",
      "outputs": [
        {
          "internalType": "uint256",
          "name": "",
          "type": "uint256"
        }
      ],
      "stateMutability": "view",
      "type": "function"
    },
    {
      "inputs": [],
      "name": "getStats",
      "outputs": [
        {
          "components": [
            {
              "internalType": "uint256",
              "name": "athleteID",
              "type": "uint256"
            },
            {
              "internalType": "uint256[8]",
              "name": "weeklyScores",
              "type": "uint256[8]"
            }
          ],
          "internalType": "struct Athletes.Athlete[]",
          "name": "",
          "type": "tuple[]"
        }
      ],
      "stateMutability": "nonpayable",
      "type": "function"
    },
    {
      "inputs": [],
      "name": "owner",
      "outputs": [
        {
          "internalType": "address",
          "name": "",
          "type": "address"
        }
      ],
      "stateMutability": "view",
      "type": "function"
    },
    {
      "inputs": [],
      "name": "renounceOwnership",
      "outputs": [],
      "stateMutability": "nonpayable",
      "type": "function"
    },
    {
      "inputs": [
        {
          "internalType": "address",
          "name": "newOwner",
          "type": "address"
        }
      ],
      "name": "transferOwnership",
      "outputs": [],
      "stateMutability": "nonpayable",
      "type": "function"
    }
  ],
  "bytecode": "0x608060405234801561001057600080fd5b5061002d61002261003260201b60201c565b61003a60201b60201c565b6100fe565b600033905090565b60008060009054906101000a900473ffffffffffffffffffffffffffffffffffffffff169050816000806101000a81548173ffffffffffffffffffffffffffffffffffffffff021916908373ffffffffffffffffffffffffffffffffffffffff1602179055508173ffffffffffffffffffffffffffffffffffffffff168173ffffffffffffffffffffffffffffffffffffffff167f8be0079c531659141344cd1fd0a4f28419497f9722a3daafe3b4186f6b6457e060405160405180910390a35050565b6110208061010d6000396000f3fe608060405234801561001057600080fd5b50600436106100a95760003560e01c8063a133901811610071578063a133901814610152578063c59d484714610170578063d4313da81461018e578063edef8b83146101be578063ef5c1020146101ee578063f2fde38b1461020c576100a9565b80632186e726146100ae57806353f2d492146100de57806356185d74146100fa578063715018a61461012a5780638da5cb5b14610134575b600080fd5b6100c860048036038101906100c39190610a54565b610228565b6040516100d59190610d60565b60405180910390f35b6100f860048036038101906100f39190610a94565b610250565b005b610114600480360381019061010f91906109fa565b610333565b6040516101219190610d60565b60405180910390f35b61013261034d565b005b61013c6103d5565b6040516101499190610cc7565b60405180910390f35b61015a6103fe565b6040516101679190610d60565b60405180910390f35b61017861040b565b6040516101859190610ce2565b60405180910390f35b6101a860048036038101906101a39190610a27565b6105a0565b6040516101b59190610d04565b60405180910390f35b6101d860048036038101906101d39190610a27565b6105fe565b6040516101e59190610d60565b60405180910390f35b6101f661062c565b6040516102039190610ce2565b60405180910390f35b610226600480360381019061022191906109cd565b6106da565b005b6001602052816000526040600020816008811061024457600080fd5b01600091509150505481565b6102586107d2565b73ffffffffffffffffffffffffffffffffffffffff166102766103d5565b73ffffffffffffffffffffffffffffffffffffffff16146102cc576040517f08c379a00000000000000000000000000000000000000000000000000000000081526004016102c390610d40565b60405180910390fd5b600060016000858152602001908152602001600020506008141561030357600360008154809291906102fd90610e93565b91905055505b8160016000858152602001908152602001600020826008811061032957610328610f0b565b5b0181905550505050565b6000600282600001356103469190610dfd565b9050919050565b6103556107d2565b73ffffffffffffffffffffffffffffffffffffffff166103736103d5565b73ffffffffffffffffffffffffffffffffffffffff16146103c9576040517f08c379a00000000000000000000000000000000000000000000000000000000081526004016103c090610d40565b60405180910390fd5b6103d360006107da565b565b60008060009054906101000a900473ffffffffffffffffffffffffffffffffffffffff16905090565b6000600280549050905090565b60606002600061041b919061089e565b60005b6003548110156104f3576000604051806040016040528083815260200160016000858152602001908152602001600020600880602002604051908101604052809291908260088015610485576020028201915b815481526020019060010190808311610471575b505050505081525090506002819080600181540180825580915050600190039060005260206000209060090201600090919091909150600082015181600001556020820151816001019060086104dc9291906108c2565b5050505080806104eb90610e93565b91505061041e565b506002805480602002602001604051908101604052809291908181526020016000905b828210156105975783829060005260206000209060090201604051806040016040529081600082015481526020016001820160088060200260405190810160405280929190826008801561057f576020028201915b81548152602001906001019080831161056b575b50505050508152505081526020019060010190610516565b50505050905090565b6105a8610902565b600160008381526020019081526020016000206008806020026040519081016040528092919082600880156105f2576020028201915b8154815260200190600101908083116105de575b50505050509050919050565b6002818154811061060e57600080fd5b90600052602060002090600902016000915090508060000154905081565b60606002805480602002602001604051908101604052809291908181526020016000905b828210156106d1578382906000526020600020906009020160405180604001604052908160008201548152602001600182016008806020026040519081016040528092919082600880156106b9576020028201915b8154815260200190600101908083116106a5575b50505050508152505081526020019060010190610650565b50505050905090565b6106e26107d2565b73ffffffffffffffffffffffffffffffffffffffff166107006103d5565b73ffffffffffffffffffffffffffffffffffffffff1614610756576040517f08c379a000000000000000000000000000000000000000000000000000000000815260040161074d90610d40565b60405180910390fd5b600073ffffffffffffffffffffffffffffffffffffffff168173ffffffffffffffffffffffffffffffffffffffff1614156107c6576040517f08c379a00000000000000000000000000000000000000000000000000000000081526004016107bd90610d20565b60405180910390fd5b6107cf816107da565b50565b600033905090565b60008060009054906101000a900473ffffffffffffffffffffffffffffffffffffffff169050816000806101000a81548173ffffffffffffffffffffffffffffffffffffffff021916908373ffffffffffffffffffffffffffffffffffffffff1602179055508173ffffffffffffffffffffffffffffffffffffffff168173ffffffffffffffffffffffffffffffffffffffff167f8be0079c531659141344cd1fd0a4f28419497f9722a3daafe3b4186f6b6457e060405160405180910390a35050565b50805460008255600902906000526020600020908101906108bf9190610925565b50565b82600881019282156108f1579160200282015b828111156108f05782518255916020019190600101906108d5565b5b5090506108fe9190610954565b5090565b604051806101000160405280600890602082028036833780820191505090505090565b5b80821115610950576000808201600090556001820160006109479190610971565b50600901610926565b5090565b5b8082111561096d576000816000905550600101610955565b5090565b5080600801906109819190610954565b50565b60008135905061099381610fbc565b92915050565b6000602082840312156109af576109ae610f3a565b5b81905092915050565b6000813590506109c781610fd3565b92915050565b6000602082840312156109e3576109e2610f3f565b5b60006109f184828501610984565b91505092915050565b600060208284031215610a1057610a0f610f3f565b5b6000610a1e84828501610999565b91505092915050565b600060208284031215610a3d57610a3c610f3f565b5b6000610a4b848285016109b8565b91505092915050565b60008060408385031215610a6b57610a6a610f3f565b5b6000610a79858286016109b8565b9250506020610a8a858286016109b8565b9150509250929050565b600080600060608486031215610aad57610aac610f3f565b5b6000610abb868287016109b8565b9350506020610acc868287016109b8565b9250506040610add868287016109b8565b9150509250925092565b6000610af38383610c79565b6101208301905092915050565b6000610b0c8383610ca9565b60208301905092915050565b610b2181610e57565b82525050565b6000610b3282610d95565b610b3c8185610dc5565b9350610b4783610d7b565b8060005b83811015610b78578151610b5f8882610ae7565b9750610b6a83610dab565b925050600181019050610b4b565b5085935050505092915050565b610b8e81610da0565b610b988184610dd6565b9250610ba382610d8b565b8060005b83811015610bd4578151610bbb8782610b00565b9650610bc683610db8565b925050600181019050610ba7565b505050505050565b610be581610da0565b610bef8184610de1565b9250610bfa82610d8b565b8060005b83811015610c2b578151610c128782610b00565b9650610c1d83610db8565b925050600181019050610bfe565b505050505050565b6000610c40602683610dec565b9150610c4b82610f44565b604082019050919050565b6000610c63602083610dec565b9150610c6e82610f93565b602082019050919050565b61012082016000820151610c906000850182610ca9565b506020820151610ca36020850182610b85565b50505050565b610cb281610e89565b82525050565b610cc181610e89565b82525050565b6000602082019050610cdc6000830184610b18565b92915050565b60006020820190508181036000830152610cfc8184610b27565b905092915050565b600061010082019050610d1a6000830184610bdc565b92915050565b60006020820190508181036000830152610d3981610c33565b9050919050565b60006020820190508181036000830152610d5981610c56565b9050919050565b6000602082019050610d756000830184610cb8565b92915050565b6000819050602082019050919050565b6000819050919050565b600081519050919050565b600060089050919050565b6000602082019050919050565b6000602082019050919050565b600082825260208201905092915050565b600081905092915050565b600081905092915050565b600082825260208201905092915050565b6000610e0882610e89565b9150610e1383610e89565b9250817fffffffffffffffffffffffffffffffffffffffffffffffffffffffffffffffff0483118215151615610e4c57610e4b610edc565b5b828202905092915050565b6000610e6282610e69565b9050919050565b600073ffffffffffffffffffffffffffffffffffffffff82169050919050565b6000819050919050565b6000610e9e82610e89565b91507fffffffffffffffffffffffffffffffffffffffffffffffffffffffffffffffff821415610ed157610ed0610edc565b5b600182019050919050565b7f4e487b7100000000000000000000000000000000000000000000000000000000600052601160045260246000fd5b7f4e487b7100000000000000000000000000000000000000000000000000000000600052603260045260246000fd5b600080fd5b600080fd5b7f4f776e61626c653a206e6577206f776e657220697320746865207a65726f206160008201527f6464726573730000000000000000000000000000000000000000000000000000602082015250565b7f4f776e61626c653a2063616c6c6572206973206e6f7420746865206f776e6572600082015250565b610fc581610e57565b8114610fd057600080fd5b50565b610fdc81610e89565b8114610fe757600080fd5b5056fea2646970667358221220ff97d441aeeb34ded791f698a636a4b48b6188866e134b1f1c07f74b26649b9964736f6c63430008070033",
  "linkReferences": {},
  "deployedLinkReferences": {}
}