{
  "_format": "hh-sol-artifact-1",
  "contractName": "Athletes",
  "sourceName": "contracts/Athletes.sol",
  "abi": [
    {
      "anonymous": false,
      "inputs": [
        {
          "indexed": true,
          "internalType": "address",
          "name": "previousOwner",
          "type": "address"
        },
        {
          "indexed": true,
          "internalType": "address",
          "name": "newOwner",
          "type": "address"
        }
      ],
      "name": "OwnershipTransferred",
      "type": "event"
    },
    {
      "inputs": [
        {
          "internalType": "uint256",
          "name": "athleteId",
          "type": "uint256"
        },
        {
          "internalType": "uint256",
          "name": "weeklyScore",
          "type": "uint256"
        }
      ],
      "name": "appendStats",
      "outputs": [],
      "stateMutability": "nonpayable",
      "type": "function"
    },
    {
      "inputs": [
        {
          "internalType": "uint256",
          "name": "",
          "type": "uint256"
        },
        {
          "internalType": "uint256",
          "name": "",
          "type": "uint256"
        }
      ],
      "name": "athleteToScores",
      "outputs": [
        {
          "internalType": "uint256",
          "name": "",
          "type": "uint256"
        }
      ],
      "stateMutability": "view",
      "type": "function"
    },
    {
      "inputs": [
        {
          "internalType": "uint256",
          "name": "",
          "type": "uint256"
        }
      ],
      "name": "athletes",
      "outputs": [
        {
          "internalType": "uint256",
          "name": "athleteID",
          "type": "uint256"
        }
      ],
      "stateMutability": "view",
      "type": "function"
    },
    {
      "inputs": [
        {
          "components": [
            {
              "internalType": "uint256",
              "name": "kills",
              "type": "uint256"
            }
          ],
          "internalType": "struct Athletes.Stats",
          "name": "athleteStats",
          "type": "tuple"
        }
      ],
      "name": "calculateScoreOnChain",
      "outputs": [
        {
          "internalType": "uint256",
          "name": "score",
          "type": "uint256"
        }
      ],
      "stateMutability": "pure",
      "type": "function"
    },
    {
      "inputs": [
        {
          "internalType": "uint256",
          "name": "index",
          "type": "uint256"
        }
      ],
      "name": "getAthleteScores",
      "outputs": [
        {
          "internalType": "uint256[]",
          "name": "",
          "type": "uint256[]"
        }
      ],
      "stateMutability": "view",
      "type": "function"
    },
    {
      "inputs": [],
      "name": "getAthletes",
      "outputs": [
        {
          "components": [
            {
              "internalType": "uint256",
              "name": "athleteID",
              "type": "uint256"
            },
            {
              "internalType": "uint256[]",
              "name": "weeklyScores",
              "type": "uint256[]"
            }
          ],
          "internalType": "struct Athletes.Athlete[]",
          "name": "",
          "type": "tuple[]"
        }
      ],
      "stateMutability": "view",
      "type": "function"
    },
    {
      "inputs": [],
      "name": "getNumAthletes",
      "outputs": [
        {
          "internalType": "uint256",
          "name": "",
          "type": "uint256"
        }
      ],
      "stateMutability": "view",
      "type": "function"
    },
    {
      "inputs": [],
      "name": "getStats",
      "outputs": [
        {
          "components": [
            {
              "internalType": "uint256",
              "name": "athleteID",
              "type": "uint256"
            },
            {
              "internalType": "uint256[]",
              "name": "weeklyScores",
              "type": "uint256[]"
            }
          ],
          "internalType": "struct Athletes.Athlete[]",
          "name": "",
          "type": "tuple[]"
        }
      ],
      "stateMutability": "nonpayable",
      "type": "function"
    },
    {
      "inputs": [],
      "name": "owner",
      "outputs": [
        {
          "internalType": "address",
          "name": "",
          "type": "address"
        }
      ],
      "stateMutability": "view",
      "type": "function"
    },
    {
      "inputs": [],
      "name": "renounceOwnership",
      "outputs": [],
      "stateMutability": "nonpayable",
      "type": "function"
    },
    {
      "inputs": [
        {
          "internalType": "address",
          "name": "newOwner",
          "type": "address"
        }
      ],
      "name": "transferOwnership",
      "outputs": [],
      "stateMutability": "nonpayable",
      "type": "function"
    }
  ],
  "bytecode": "0x608060405234801561001057600080fd5b5061002d61002261003260201b60201c565b61003a60201b60201c565b6100fe565b600033905090565b60008060009054906101000a900473ffffffffffffffffffffffffffffffffffffffff169050816000806101000a81548173ffffffffffffffffffffffffffffffffffffffff021916908373ffffffffffffffffffffffffffffffffffffffff1602179055508173ffffffffffffffffffffffffffffffffffffffff168173ffffffffffffffffffffffffffffffffffffffff167f8be0079c531659141344cd1fd0a4f28419497f9722a3daafe3b4186f6b6457e060405160405180910390a35050565b61103e8061010d6000396000f3fe608060405234801561001057600080fd5b50600436106100a95760003560e01c8063a133901811610071578063a133901814610152578063c59d484714610170578063d4313da81461018e578063edef8b83146101be578063ef5c1020146101ee578063f2fde38b1461020c576100a9565b80632186e726146100ae57806356185d74146100de578063715018a61461010e5780638da5cb5b146101185780639e9d706614610136575b600080fd5b6100c860048036038101906100c39190610aaf565b610228565b6040516100d59190610d9b565b60405180910390f35b6100f860048036038101906100f39190610a55565b610259565b6040516101059190610d9b565b60405180910390f35b610116610273565b005b6101206102fb565b60405161012d9190610cfc565b60405180910390f35b610150600480360381019061014b9190610aaf565b610324565b005b61015a610416565b6040516101679190610d9b565b60405180910390f35b610178610423565b6040516101859190610d17565b60405180910390f35b6101a860048036038101906101a39190610a82565b6105e3565b6040516101b59190610d39565b60405180910390f35b6101d860048036038101906101d39190610a82565b61064e565b6040516101e59190610d9b565b60405180910390f35b6101f661067c565b6040516102039190610d17565b60405180910390f35b61022660048036038101906102219190610a28565b61073d565b005b6001602052816000526040600020818154811061024457600080fd5b90600052602060002001600091509150505481565b60006002826000013561026c9190610e4a565b9050919050565b61027b610835565b73ffffffffffffffffffffffffffffffffffffffff166102996102fb565b73ffffffffffffffffffffffffffffffffffffffff16146102ef576040517f08c379a00000000000000000000000000000000000000000000000000000000081526004016102e690610d7b565b60405180910390fd5b6102f9600061083d565b565b60008060009054906101000a900473ffffffffffffffffffffffffffffffffffffffff16905090565b61032c610835565b73ffffffffffffffffffffffffffffffffffffffff1661034a6102fb565b73ffffffffffffffffffffffffffffffffffffffff16146103a0576040517f08c379a000000000000000000000000000000000000000000000000000000000815260040161039790610d7b565b60405180910390fd5b6000600160008481526020019081526020016000208054905014156103d857600360008154809291906103d290610ee0565b91905055505b600160008381526020019081526020016000208190806001815401808255809150506001900390600052602060002001600090919091909150555050565b6000600280549050905090565b6060600260006104339190610901565b60005b6003548110156105235760006040518060400160405280838152602001600160008581526020019081526020016000208054806020026020016040519081016040528092919081815260200182805480156104b057602002820191906000526020600020905b81548152602001906001019080831161049c575b50505050508152509050600281908060018154018082558091505060019003906000526020600020906002020160009091909190915060008201518160000155602082015181600101908051906020019061050c929190610925565b50505050808061051b90610ee0565b915050610436565b506002805480602002602001604051908101604052809291908181526020016000905b828210156105da578382906000526020600020906002020160405180604001604052908160008201548152602001600182018054806020026020016040519081016040528092919081815260200182805480156105c257602002820191906000526020600020905b8154815260200190600101908083116105ae575b50505050508152505081526020019060010190610546565b50505050905090565b60606001600083815260200190815260200160002080548060200260200160405190810160405280929190818152602001828054801561064257602002820191906000526020600020905b81548152602001906001019080831161062e575b50505050509050919050565b6002818154811061065e57600080fd5b90600052602060002090600202016000915090508060000154905081565b60606002805480602002602001604051908101604052809291908181526020016000905b828210156107345783829060005260206000209060020201604051806040016040529081600082015481526020016001820180548060200260200160405190810160405280929190818152602001828054801561071c57602002820191906000526020600020905b815481526020019060010190808311610708575b505050505081525050815260200190600101906106a0565b50505050905090565b610745610835565b73ffffffffffffffffffffffffffffffffffffffff166107636102fb565b73ffffffffffffffffffffffffffffffffffffffff16146107b9576040517f08c379a00000000000000000000000000000000000000000000000000000000081526004016107b090610d7b565b60405180910390fd5b600073ffffffffffffffffffffffffffffffffffffffff168173ffffffffffffffffffffffffffffffffffffffff161415610829576040517f08c379a000000000000000000000000000000000000000000000000000000000815260040161082090610d5b565b60405180910390fd5b6108328161083d565b50565b600033905090565b60008060009054906101000a900473ffffffffffffffffffffffffffffffffffffffff169050816000806101000a81548173ffffffffffffffffffffffffffffffffffffffff021916908373ffffffffffffffffffffffffffffffffffffffff1602179055508173ffffffffffffffffffffffffffffffffffffffff168173ffffffffffffffffffffffffffffffffffffffff167f8be0079c531659141344cd1fd0a4f28419497f9722a3daafe3b4186f6b6457e060405160405180910390a35050565b50805460008255600202906000526020600020908101906109229190610972565b50565b828054828255906000526020600020908101928215610961579160200282015b82811115610960578251825591602001919060010190610945565b5b50905061096e91906109a1565b5090565b5b8082111561099d5760008082016000905560018201600061099491906109be565b50600201610973565b5090565b5b808211156109ba5760008160009055506001016109a2565b5090565b50805460008255906000526020600020908101906109dc91906109a1565b50565b6000813590506109ee81610fda565b92915050565b600060208284031215610a0a57610a09610f58565b5b81905092915050565b600081359050610a2281610ff1565b92915050565b600060208284031215610a3e57610a3d610f5d565b5b6000610a4c848285016109df565b91505092915050565b600060208284031215610a6b57610a6a610f5d565b5b6000610a79848285016109f4565b91505092915050565b600060208284031215610a9857610a97610f5d565b5b6000610aa684828501610a13565b91505092915050565b60008060408385031215610ac657610ac5610f5d565b5b6000610ad485828601610a13565b9250506020610ae585828601610a13565b9150509250929050565b6000610afb8383610ca1565b905092915050565b6000610b0f8383610cde565b60208301905092915050565b610b2481610ea4565b82525050565b6000610b3582610dd6565b610b3f8185610e06565b935083602082028501610b5185610db6565b8060005b85811015610b8d5784840389528151610b6e8582610aef565b9450610b7983610dec565b925060208a01995050600181019050610b55565b50829750879550505050505092915050565b6000610baa82610de1565b610bb48185610e17565b9350610bbf83610dc6565b8060005b83811015610bf0578151610bd78882610b03565b9750610be283610df9565b925050600181019050610bc3565b5085935050505092915050565b6000610c0882610de1565b610c128185610e28565b9350610c1d83610dc6565b8060005b83811015610c4e578151610c358882610b03565b9750610c4083610df9565b925050600181019050610c21565b5085935050505092915050565b6000610c68602683610e39565b9150610c7382610f62565b604082019050919050565b6000610c8b602083610e39565b9150610c9682610fb1565b602082019050919050565b6000604083016000830151610cb96000860182610cde565b5060208301518482036020860152610cd18282610b9f565b9150508091505092915050565b610ce781610ed6565b82525050565b610cf681610ed6565b82525050565b6000602082019050610d116000830184610b1b565b92915050565b60006020820190508181036000830152610d318184610b2a565b905092915050565b60006020820190508181036000830152610d538184610bfd565b905092915050565b60006020820190508181036000830152610d7481610c5b565b9050919050565b60006020820190508181036000830152610d9481610c7e565b9050919050565b6000602082019050610db06000830184610ced565b92915050565b6000819050602082019050919050565b6000819050602082019050919050565b600081519050919050565b600081519050919050565b6000602082019050919050565b6000602082019050919050565b600082825260208201905092915050565b600082825260208201905092915050565b600082825260208201905092915050565b600082825260208201905092915050565b6000610e5582610ed6565b9150610e6083610ed6565b9250817fffffffffffffffffffffffffffffffffffffffffffffffffffffffffffffffff0483118215151615610e9957610e98610f29565b5b828202905092915050565b6000610eaf82610eb6565b9050919050565b600073ffffffffffffffffffffffffffffffffffffffff82169050919050565b6000819050919050565b6000610eeb82610ed6565b91507fffffffffffffffffffffffffffffffffffffffffffffffffffffffffffffffff821415610f1e57610f1d610f29565b5b600182019050919050565b7f4e487b7100000000000000000000000000000000000000000000000000000000600052601160045260246000fd5b600080fd5b600080fd5b7f4f776e61626c653a206e6577206f776e657220697320746865207a65726f206160008201527f6464726573730000000000000000000000000000000000000000000000000000602082015250565b7f4f776e61626c653a2063616c6c6572206973206e6f7420746865206f776e6572600082015250565b610fe381610ea4565b8114610fee57600080fd5b50565b610ffa81610ed6565b811461100557600080fd5b5056fea2646970667358221220866e1aee35febcfd851c82d36d2a123c2b31d92f8ba906cef23a865504f817f064736f6c63430008070033",
  "linkReferences": {},
  "deployedLinkReferences": {}
}