{
  "_format": "hh-sol-artifact-1",
  "contractName": "Athletes",
  "sourceName": "contracts/Athletes.sol",
  "abi": [
    {
      "anonymous": false,
      "inputs": [
        {
          "indexed": true,
          "internalType": "address",
          "name": "previousOwner",
          "type": "address"
        },
        {
          "indexed": true,
          "internalType": "address",
          "name": "newOwner",
          "type": "address"
        }
      ],
      "name": "OwnershipTransferred",
      "type": "event"
    },
    {
      "inputs": [
        {
          "internalType": "uint256",
          "name": "athleteId",
          "type": "uint256"
        },
        {
          "internalType": "uint256",
          "name": "weeklyScore",
          "type": "uint256"
        }
      ],
      "name": "appendStats",
      "outputs": [],
      "stateMutability": "nonpayable",
      "type": "function"
    },
    {
      "inputs": [
        {
          "internalType": "uint256",
          "name": "",
          "type": "uint256"
        },
        {
          "internalType": "uint256",
          "name": "",
          "type": "uint256"
        }
      ],
      "name": "athleteToScores",
      "outputs": [
        {
          "internalType": "uint256",
          "name": "",
          "type": "uint256"
        }
      ],
      "stateMutability": "view",
      "type": "function"
    },
    {
      "inputs": [
        {
          "internalType": "uint256",
          "name": "",
          "type": "uint256"
        }
      ],
      "name": "athletes",
      "outputs": [
        {
          "internalType": "uint256",
          "name": "athleteID",
          "type": "uint256"
        }
      ],
      "stateMutability": "view",
      "type": "function"
    },
    {
      "inputs": [
        {
          "internalType": "uint256",
          "name": "index",
          "type": "uint256"
        }
      ],
      "name": "getAthleteScores",
      "outputs": [
        {
          "internalType": "uint256[]",
          "name": "",
          "type": "uint256[]"
        }
      ],
      "stateMutability": "view",
      "type": "function"
    },
    {
      "inputs": [],
      "name": "getAthletes",
      "outputs": [
        {
          "components": [
            {
              "internalType": "uint256",
              "name": "athleteID",
              "type": "uint256"
            },
            {
              "internalType": "uint256[]",
              "name": "weeklyScores",
              "type": "uint256[]"
            }
          ],
          "internalType": "struct Athletes.Athlete[]",
          "name": "",
          "type": "tuple[]"
        }
      ],
      "stateMutability": "view",
      "type": "function"
    },
    {
      "inputs": [],
      "name": "getStats",
      "outputs": [
        {
          "components": [
            {
              "internalType": "uint256",
              "name": "athleteID",
              "type": "uint256"
            },
            {
              "internalType": "uint256[]",
              "name": "weeklyScores",
              "type": "uint256[]"
            }
          ],
          "internalType": "struct Athletes.Athlete[]",
          "name": "",
          "type": "tuple[]"
        }
      ],
      "stateMutability": "nonpayable",
      "type": "function"
    },
    {
      "inputs": [],
      "name": "owner",
      "outputs": [
        {
          "internalType": "address",
          "name": "",
          "type": "address"
        }
      ],
      "stateMutability": "view",
      "type": "function"
    },
    {
      "inputs": [],
      "name": "renounceOwnership",
      "outputs": [],
      "stateMutability": "nonpayable",
      "type": "function"
    },
    {
      "inputs": [
        {
          "internalType": "address",
          "name": "newOwner",
          "type": "address"
        }
      ],
      "name": "transferOwnership",
      "outputs": [],
      "stateMutability": "nonpayable",
      "type": "function"
    }
  ],
  "bytecode": "0x608060405234801561001057600080fd5b5061002d61002261003260201b60201c565b61003a60201b60201c565b6100fe565b600033905090565b60008060009054906101000a900473ffffffffffffffffffffffffffffffffffffffff169050816000806101000a81548173ffffffffffffffffffffffffffffffffffffffff021916908373ffffffffffffffffffffffffffffffffffffffff1602179055508173ffffffffffffffffffffffffffffffffffffffff168173ffffffffffffffffffffffffffffffffffffffff167f8be0079c531659141344cd1fd0a4f28419497f9722a3daafe3b4186f6b6457e060405160405180910390a35050565b610f088061010d6000396000f3fe608060405234801561001057600080fd5b50600436106100935760003560e01c8063c59d484711610066578063c59d48471461010c578063d4313da81461012a578063edef8b831461015a578063ef5c10201461018a578063f2fde38b146101a857610093565b80632186e72614610098578063715018a6146100c85780638da5cb5b146100d25780639e9d7066146100f0575b600080fd5b6100b260048036038101906100ad91906109d8565b6101c4565b6040516100bf9190610cc4565b60405180910390f35b6100d06101f5565b005b6100da61027d565b6040516100e79190610c25565b60405180910390f35b61010a600480360381019061010591906109d8565b6102a6565b005b610114610398565b6040516101219190610c40565b60405180910390f35b610144600480360381019061013f91906109ab565b610558565b6040516101519190610c62565b60405180910390f35b610174600480360381019061016f91906109ab565b6105c3565b6040516101819190610cc4565b60405180910390f35b6101926105f1565b60405161019f9190610c40565b60405180910390f35b6101c260048036038101906101bd919061097e565b6106b2565b005b600160205281600052604060002081815481106101e057600080fd5b90600052602060002001600091509150505481565b6101fd6107aa565b73ffffffffffffffffffffffffffffffffffffffff1661021b61027d565b73ffffffffffffffffffffffffffffffffffffffff1614610271576040517f08c379a000000000000000000000000000000000000000000000000000000000815260040161026890610ca4565b60405180910390fd5b61027b60006107b2565b565b60008060009054906101000a900473ffffffffffffffffffffffffffffffffffffffff16905090565b6102ae6107aa565b73ffffffffffffffffffffffffffffffffffffffff166102cc61027d565b73ffffffffffffffffffffffffffffffffffffffff1614610322576040517f08c379a000000000000000000000000000000000000000000000000000000000815260040161031990610ca4565b60405180910390fd5b60006001600084815260200190815260200160002080549050141561035a576003600081548092919061035490610daf565b91905055505b600160008381526020019081526020016000208190806001815401808255809150506001900390600052602060002001600090919091909150555050565b6060600260006103a89190610876565b60005b60035481101561049857600060405180604001604052808381526020016001600085815260200190815260200160002080548060200260200160405190810160405280929190818152602001828054801561042557602002820191906000526020600020905b815481526020019060010190808311610411575b50505050508152509050600281908060018154018082558091505060019003906000526020600020906002020160009091909190915060008201518160000155602082015181600101908051906020019061048192919061089a565b50505050808061049090610daf565b9150506103ab565b506002805480602002602001604051908101604052809291908181526020016000905b8282101561054f5783829060005260206000209060020201604051806040016040529081600082015481526020016001820180548060200260200160405190810160405280929190818152602001828054801561053757602002820191906000526020600020905b815481526020019060010190808311610523575b505050505081525050815260200190600101906104bb565b50505050905090565b6060600160008381526020019081526020016000208054806020026020016040519081016040528092919081815260200182805480156105b757602002820191906000526020600020905b8154815260200190600101908083116105a3575b50505050509050919050565b600281815481106105d357600080fd5b90600052602060002090600202016000915090508060000154905081565b60606002805480602002602001604051908101604052809291908181526020016000905b828210156106a95783829060005260206000209060020201604051806040016040529081600082015481526020016001820180548060200260200160405190810160405280929190818152602001828054801561069157602002820191906000526020600020905b81548152602001906001019080831161067d575b50505050508152505081526020019060010190610615565b50505050905090565b6106ba6107aa565b73ffffffffffffffffffffffffffffffffffffffff166106d861027d565b73ffffffffffffffffffffffffffffffffffffffff161461072e576040517f08c379a000000000000000000000000000000000000000000000000000000000815260040161072590610ca4565b60405180910390fd5b600073ffffffffffffffffffffffffffffffffffffffff168173ffffffffffffffffffffffffffffffffffffffff16141561079e576040517f08c379a000000000000000000000000000000000000000000000000000000000815260040161079590610c84565b60405180910390fd5b6107a7816107b2565b50565b600033905090565b60008060009054906101000a900473ffffffffffffffffffffffffffffffffffffffff169050816000806101000a81548173ffffffffffffffffffffffffffffffffffffffff021916908373ffffffffffffffffffffffffffffffffffffffff1602179055508173ffffffffffffffffffffffffffffffffffffffff168173ffffffffffffffffffffffffffffffffffffffff167f8be0079c531659141344cd1fd0a4f28419497f9722a3daafe3b4186f6b6457e060405160405180910390a35050565b508054600082556002029060005260206000209081019061089791906108e7565b50565b8280548282559060005260206000209081019282156108d6579160200282015b828111156108d55782518255916020019190600101906108ba565b5b5090506108e39190610916565b5090565b5b80821115610912576000808201600090556001820160006109099190610933565b506002016108e8565b5090565b5b8082111561092f576000816000905550600101610917565b5090565b50805460008255906000526020600020908101906109519190610916565b50565b60008135905061096381610ea4565b92915050565b60008135905061097881610ebb565b92915050565b60006020828403121561099457610993610e27565b5b60006109a284828501610954565b91505092915050565b6000602082840312156109c1576109c0610e27565b5b60006109cf84828501610969565b91505092915050565b600080604083850312156109ef576109ee610e27565b5b60006109fd85828601610969565b9250506020610a0e85828601610969565b9150509250929050565b6000610a248383610bca565b905092915050565b6000610a388383610c07565b60208301905092915050565b610a4d81610d73565b82525050565b6000610a5e82610cff565b610a688185610d2f565b935083602082028501610a7a85610cdf565b8060005b85811015610ab65784840389528151610a978582610a18565b9450610aa283610d15565b925060208a01995050600181019050610a7e565b50829750879550505050505092915050565b6000610ad382610d0a565b610add8185610d40565b9350610ae883610cef565b8060005b83811015610b19578151610b008882610a2c565b9750610b0b83610d22565b925050600181019050610aec565b5085935050505092915050565b6000610b3182610d0a565b610b3b8185610d51565b9350610b4683610cef565b8060005b83811015610b77578151610b5e8882610a2c565b9750610b6983610d22565b925050600181019050610b4a565b5085935050505092915050565b6000610b91602683610d62565b9150610b9c82610e2c565b604082019050919050565b6000610bb4602083610d62565b9150610bbf82610e7b565b602082019050919050565b6000604083016000830151610be26000860182610c07565b5060208301518482036020860152610bfa8282610ac8565b9150508091505092915050565b610c1081610da5565b82525050565b610c1f81610da5565b82525050565b6000602082019050610c3a6000830184610a44565b92915050565b60006020820190508181036000830152610c5a8184610a53565b905092915050565b60006020820190508181036000830152610c7c8184610b26565b905092915050565b60006020820190508181036000830152610c9d81610b84565b9050919050565b60006020820190508181036000830152610cbd81610ba7565b9050919050565b6000602082019050610cd96000830184610c16565b92915050565b6000819050602082019050919050565b6000819050602082019050919050565b600081519050919050565b600081519050919050565b6000602082019050919050565b6000602082019050919050565b600082825260208201905092915050565b600082825260208201905092915050565b600082825260208201905092915050565b600082825260208201905092915050565b6000610d7e82610d85565b9050919050565b600073ffffffffffffffffffffffffffffffffffffffff82169050919050565b6000819050919050565b6000610dba82610da5565b91507fffffffffffffffffffffffffffffffffffffffffffffffffffffffffffffffff821415610ded57610dec610df8565b5b600182019050919050565b7f4e487b7100000000000000000000000000000000000000000000000000000000600052601160045260246000fd5b600080fd5b7f4f776e61626c653a206e6577206f776e657220697320746865207a65726f206160008201527f6464726573730000000000000000000000000000000000000000000000000000602082015250565b7f4f776e61626c653a2063616c6c6572206973206e6f7420746865206f776e6572600082015250565b610ead81610d73565b8114610eb857600080fd5b50565b610ec481610da5565b8114610ecf57600080fd5b5056fea264697066735822122073a4ce2c15d7b88e7287f3e0f86dad1d39f14a6ba7e597808fea3e3c71162f6664736f6c63430008070033",
  "linkReferences": {},
  "deployedLinkReferences": {}
}