{
  "_format": "hh-sol-artifact-1",
  "contractName": "Athletes",
  "sourceName": "contracts/Athletes.sol",
  "abi": [
    {
      "anonymous": false,
      "inputs": [
        {
          "indexed": true,
          "internalType": "address",
          "name": "previousOwner",
          "type": "address"
        },
        {
          "indexed": true,
          "internalType": "address",
          "name": "newOwner",
          "type": "address"
        }
      ],
      "name": "OwnershipTransferred",
      "type": "event"
    },
    {
      "inputs": [
        {
          "internalType": "uint256",
          "name": "athleteId",
          "type": "uint256"
        },
        {
          "internalType": "uint256",
          "name": "weeklyScore",
          "type": "uint256"
        },
        {
          "internalType": "uint256",
          "name": "weekNum",
          "type": "uint256"
        }
      ],
      "name": "appendStats",
      "outputs": [],
      "stateMutability": "nonpayable",
      "type": "function"
    },
    {
      "inputs": [
        {
          "internalType": "uint256",
          "name": "",
          "type": "uint256"
        },
        {
          "internalType": "uint256",
          "name": "",
          "type": "uint256"
        }
      ],
      "name": "athleteToScores",
      "outputs": [
        {
          "internalType": "uint256",
          "name": "",
          "type": "uint256"
        }
      ],
      "stateMutability": "view",
      "type": "function"
    },
    {
      "inputs": [
        {
          "internalType": "uint256",
          "name": "",
          "type": "uint256"
        }
      ],
      "name": "athletes",
      "outputs": [
        {
          "internalType": "uint256",
          "name": "athleteID",
          "type": "uint256"
        }
      ],
      "stateMutability": "view",
      "type": "function"
    },
    {
      "inputs": [
        {
          "components": [
            {
              "internalType": "uint256",
              "name": "kills",
              "type": "uint256"
            }
          ],
          "internalType": "struct Athletes.Stats",
          "name": "athleteStats",
          "type": "tuple"
        }
      ],
      "name": "calculateScoreOnChain",
      "outputs": [
        {
          "internalType": "uint256",
          "name": "score",
          "type": "uint256"
        }
      ],
      "stateMutability": "pure",
      "type": "function"
    },
    {
      "inputs": [
        {
          "internalType": "uint256",
          "name": "index",
          "type": "uint256"
        }
      ],
      "name": "getAthleteScores",
      "outputs": [
        {
          "internalType": "uint256[8]",
          "name": "",
          "type": "uint256[8]"
        }
      ],
      "stateMutability": "view",
      "type": "function"
    },
    {
      "inputs": [],
      "name": "getAthletes",
      "outputs": [
        {
          "components": [
            {
              "internalType": "uint256",
              "name": "athleteID",
              "type": "uint256"
            },
            {
              "internalType": "uint256[8]",
              "name": "weeklyScores",
              "type": "uint256[8]"
            }
          ],
          "internalType": "struct Athletes.Athlete[]",
          "name": "",
          "type": "tuple[]"
        }
      ],
      "stateMutability": "view",
      "type": "function"
    },
    {
      "inputs": [],
      "name": "getNumAthletes",
      "outputs": [
        {
          "internalType": "uint256",
          "name": "",
          "type": "uint256"
        }
      ],
      "stateMutability": "view",
      "type": "function"
    },
    {
      "inputs": [
        {
          "internalType": "uint256",
          "name": "index",
          "type": "uint256"
        },
        {
          "internalType": "uint256",
          "name": "week",
          "type": "uint256"
        }
      ],
      "name": "getSpecificAthleteScore",
      "outputs": [
        {
          "internalType": "uint256",
          "name": "",
          "type": "uint256"
        }
      ],
      "stateMutability": "view",
      "type": "function"
    },
    {
      "inputs": [],
      "name": "getStats",
      "outputs": [
        {
          "components": [
            {
              "internalType": "uint256",
              "name": "athleteID",
              "type": "uint256"
            },
            {
              "internalType": "uint256[8]",
              "name": "weeklyScores",
              "type": "uint256[8]"
            }
          ],
          "internalType": "struct Athletes.Athlete[]",
          "name": "",
          "type": "tuple[]"
        }
      ],
      "stateMutability": "nonpayable",
      "type": "function"
    },
    {
      "inputs": [],
      "name": "owner",
      "outputs": [
        {
          "internalType": "address",
          "name": "",
          "type": "address"
        }
      ],
      "stateMutability": "view",
      "type": "function"
    },
    {
      "inputs": [],
      "name": "renounceOwnership",
      "outputs": [],
      "stateMutability": "nonpayable",
      "type": "function"
    },
    {
      "inputs": [
        {
          "internalType": "address",
          "name": "newOwner",
          "type": "address"
        }
      ],
      "name": "transferOwnership",
      "outputs": [],
      "stateMutability": "nonpayable",
      "type": "function"
    }
  ],
  "bytecode": "0x608060405234801561001057600080fd5b5061002d61002261003260201b60201c565b61003a60201b60201c565b6100fe565b600033905090565b60008060009054906101000a900473ffffffffffffffffffffffffffffffffffffffff169050816000806101000a81548173ffffffffffffffffffffffffffffffffffffffff021916908373ffffffffffffffffffffffffffffffffffffffff1602179055508173ffffffffffffffffffffffffffffffffffffffff168173ffffffffffffffffffffffffffffffffffffffff167f8be0079c531659141344cd1fd0a4f28419497f9722a3daafe3b4186f6b6457e060405160405180910390a35050565b61108c8061010d6000396000f3fe608060405234801561001057600080fd5b50600436106100b45760003560e01c8063a133901811610071578063a13390181461018d578063c59d4847146101ab578063d4313da8146101c9578063edef8b83146101f9578063ef5c102014610229578063f2fde38b14610247576100b4565b80632186e726146100b957806353f2d492146100e957806356185d7414610105578063715018a6146101355780637ff3a9bf1461013f5780638da5cb5b1461016f575b600080fd5b6100d360048036038101906100ce9190610ac0565b610263565b6040516100e09190610dcc565b60405180910390f35b61010360048036038101906100fe9190610b00565b61028b565b005b61011f600480360381019061011a9190610a66565b61036e565b60405161012c9190610dcc565b60405180910390f35b61013d610388565b005b61015960048036038101906101549190610ac0565b610410565b6040516101669190610dcc565b60405180910390f35b610177610441565b6040516101849190610d33565b60405180910390f35b61019561046a565b6040516101a29190610dcc565b60405180910390f35b6101b3610477565b6040516101c09190610d4e565b60405180910390f35b6101e360048036038101906101de9190610a93565b61060c565b6040516101f09190610d70565b60405180910390f35b610213600480360381019061020e9190610a93565b61066a565b6040516102209190610dcc565b60405180910390f35b610231610698565b60405161023e9190610d4e565b60405180910390f35b610261600480360381019061025c9190610a39565b610746565b005b6001602052816000526040600020816008811061027f57600080fd5b01600091509150505481565b61029361083e565b73ffffffffffffffffffffffffffffffffffffffff166102b1610441565b73ffffffffffffffffffffffffffffffffffffffff1614610307576040517f08c379a00000000000000000000000000000000000000000000000000000000081526004016102fe90610dac565b60405180910390fd5b600060016000858152602001908152602001600020506008141561033e576003600081548092919061033890610eff565b91905055505b8160016000858152602001908152602001600020826008811061036457610363610f77565b5b0181905550505050565b6000600282600001356103819190610e69565b9050919050565b61039061083e565b73ffffffffffffffffffffffffffffffffffffffff166103ae610441565b73ffffffffffffffffffffffffffffffffffffffff1614610404576040517f08c379a00000000000000000000000000000000000000000000000000000000081526004016103fb90610dac565b60405180910390fd5b61040e6000610846565b565b600060016000848152602001908152602001600020826008811061043757610436610f77565b5b0154905092915050565b60008060009054906101000a900473ffffffffffffffffffffffffffffffffffffffff16905090565b6000600280549050905090565b606060026000610487919061090a565b60005b60035481101561055f5760006040518060400160405280838152602001600160008581526020019081526020016000206008806020026040519081016040528092919082600880156104f1576020028201915b8154815260200190600101908083116104dd575b5050505050815250905060028190806001815401808255809150506001900390600052602060002090600902016000909190919091506000820151816000015560208201518160010190600861054892919061092e565b50505050808061055790610eff565b91505061048a565b506002805480602002602001604051908101604052809291908181526020016000905b82821015610603578382906000526020600020906009020160405180604001604052908160008201548152602001600182016008806020026040519081016040528092919082600880156105eb576020028201915b8154815260200190600101908083116105d7575b50505050508152505081526020019060010190610582565b50505050905090565b61061461096e565b6001600083815260200190815260200160002060088060200260405190810160405280929190826008801561065e576020028201915b81548152602001906001019080831161064a575b50505050509050919050565b6002818154811061067a57600080fd5b90600052602060002090600902016000915090508060000154905081565b60606002805480602002602001604051908101604052809291908181526020016000905b8282101561073d57838290600052602060002090600902016040518060400160405290816000820154815260200160018201600880602002604051908101604052809291908260088015610725576020028201915b815481526020019060010190808311610711575b505050505081525050815260200190600101906106bc565b50505050905090565b61074e61083e565b73ffffffffffffffffffffffffffffffffffffffff1661076c610441565b73ffffffffffffffffffffffffffffffffffffffff16146107c2576040517f08c379a00000000000000000000000000000000000000000000000000000000081526004016107b990610dac565b60405180910390fd5b600073ffffffffffffffffffffffffffffffffffffffff168173ffffffffffffffffffffffffffffffffffffffff161415610832576040517f08c379a000000000000000000000000000000000000000000000000000000000815260040161082990610d8c565b60405180910390fd5b61083b81610846565b50565b600033905090565b60008060009054906101000a900473ffffffffffffffffffffffffffffffffffffffff169050816000806101000a81548173ffffffffffffffffffffffffffffffffffffffff021916908373ffffffffffffffffffffffffffffffffffffffff1602179055508173ffffffffffffffffffffffffffffffffffffffff168173ffffffffffffffffffffffffffffffffffffffff167f8be0079c531659141344cd1fd0a4f28419497f9722a3daafe3b4186f6b6457e060405160405180910390a35050565b508054600082556009029060005260206000209081019061092b9190610991565b50565b826008810192821561095d579160200282015b8281111561095c578251825591602001919060010190610941565b5b50905061096a91906109c0565b5090565b604051806101000160405280600890602082028036833780820191505090505090565b5b808211156109bc576000808201600090556001820160006109b391906109dd565b50600901610992565b5090565b5b808211156109d95760008160009055506001016109c1565b5090565b5080600801906109ed91906109c0565b50565b6000813590506109ff81611028565b92915050565b600060208284031215610a1b57610a1a610fa6565b5b81905092915050565b600081359050610a338161103f565b92915050565b600060208284031215610a4f57610a4e610fab565b5b6000610a5d848285016109f0565b91505092915050565b600060208284031215610a7c57610a7b610fab565b5b6000610a8a84828501610a05565b91505092915050565b600060208284031215610aa957610aa8610fab565b5b6000610ab784828501610a24565b91505092915050565b60008060408385031215610ad757610ad6610fab565b5b6000610ae585828601610a24565b9250506020610af685828601610a24565b9150509250929050565b600080600060608486031215610b1957610b18610fab565b5b6000610b2786828701610a24565b9350506020610b3886828701610a24565b9250506040610b4986828701610a24565b9150509250925092565b6000610b5f8383610ce5565b6101208301905092915050565b6000610b788383610d15565b60208301905092915050565b610b8d81610ec3565b82525050565b6000610b9e82610e01565b610ba88185610e31565b9350610bb383610de7565b8060005b83811015610be4578151610bcb8882610b53565b9750610bd683610e17565b925050600181019050610bb7565b5085935050505092915050565b610bfa81610e0c565b610c048184610e42565b9250610c0f82610df7565b8060005b83811015610c40578151610c278782610b6c565b9650610c3283610e24565b925050600181019050610c13565b505050505050565b610c5181610e0c565b610c5b8184610e4d565b9250610c6682610df7565b8060005b83811015610c97578151610c7e8782610b6c565b9650610c8983610e24565b925050600181019050610c6a565b505050505050565b6000610cac602683610e58565b9150610cb782610fb0565b604082019050919050565b6000610ccf602083610e58565b9150610cda82610fff565b602082019050919050565b61012082016000820151610cfc6000850182610d15565b506020820151610d0f6020850182610bf1565b50505050565b610d1e81610ef5565b82525050565b610d2d81610ef5565b82525050565b6000602082019050610d486000830184610b84565b92915050565b60006020820190508181036000830152610d688184610b93565b905092915050565b600061010082019050610d866000830184610c48565b92915050565b60006020820190508181036000830152610da581610c9f565b9050919050565b60006020820190508181036000830152610dc581610cc2565b9050919050565b6000602082019050610de16000830184610d24565b92915050565b6000819050602082019050919050565b6000819050919050565b600081519050919050565b600060089050919050565b6000602082019050919050565b6000602082019050919050565b600082825260208201905092915050565b600081905092915050565b600081905092915050565b600082825260208201905092915050565b6000610e7482610ef5565b9150610e7f83610ef5565b9250817fffffffffffffffffffffffffffffffffffffffffffffffffffffffffffffffff0483118215151615610eb857610eb7610f48565b5b828202905092915050565b6000610ece82610ed5565b9050919050565b600073ffffffffffffffffffffffffffffffffffffffff82169050919050565b6000819050919050565b6000610f0a82610ef5565b91507fffffffffffffffffffffffffffffffffffffffffffffffffffffffffffffffff821415610f3d57610f3c610f48565b5b600182019050919050565b7f4e487b7100000000000000000000000000000000000000000000000000000000600052601160045260246000fd5b7f4e487b7100000000000000000000000000000000000000000000000000000000600052603260045260246000fd5b600080fd5b600080fd5b7f4f776e61626c653a206e6577206f776e657220697320746865207a65726f206160008201527f6464726573730000000000000000000000000000000000000000000000000000602082015250565b7f4f776e61626c653a2063616c6c6572206973206e6f7420746865206f776e6572600082015250565b61103181610ec3565b811461103c57600080fd5b50565b61104881610ef5565b811461105357600080fd5b5056fea26469706673582212207dbfd795b1edc4cf3de12d2b9da8c827a76cf921f62a315ec27cbe776e8ff4ab64736f6c63430008070033",
  "linkReferences": {},
  "deployedLinkReferences": {}
}