{
  "_format": "hh-sol-artifact-1",
  "contractName": "VRFv2Consumer",
  "sourceName": "contracts/VRFv2Consumer.sol",
  "abi": [
    {
      "inputs": [
        {
          "internalType": "uint64",
          "name": "subscriptionId",
          "type": "uint64"
        }
      ],
      "stateMutability": "nonpayable",
      "type": "constructor"
    },
    {
      "inputs": [
        {
          "internalType": "address",
          "name": "have",
          "type": "address"
        },
        {
          "internalType": "address",
          "name": "want",
          "type": "address"
        }
      ],
      "name": "OnlyCoordinatorCanFulfill",
      "type": "error"
    },
    {
      "anonymous": false,
      "inputs": [
        {
          "indexed": true,
          "internalType": "address",
          "name": "previousOwner",
          "type": "address"
        },
        {
          "indexed": true,
          "internalType": "address",
          "name": "newOwner",
          "type": "address"
        }
      ],
      "name": "OwnershipTransferred",
      "type": "event"
    },
    {
      "anonymous": false,
      "inputs": [
        {
          "indexed": false,
          "internalType": "address",
          "name": "addr",
          "type": "address"
        }
      ],
      "name": "WhitelistedAddressAdded",
      "type": "event"
    },
    {
      "anonymous": false,
      "inputs": [
        {
          "indexed": false,
          "internalType": "address",
          "name": "addr",
          "type": "address"
        }
      ],
      "name": "WhitelistedAddressRemoved",
      "type": "event"
    },
    {
      "inputs": [
        {
          "internalType": "address",
          "name": "addr",
          "type": "address"
        }
      ],
      "name": "addAddressToWhitelist",
      "outputs": [
        {
          "internalType": "bool",
          "name": "success",
          "type": "bool"
        }
      ],
      "stateMutability": "nonpayable",
      "type": "function"
    },
    {
      "inputs": [
        {
          "internalType": "address[]",
          "name": "addrs",
          "type": "address[]"
        }
      ],
      "name": "addAddressesToWhitelist",
      "outputs": [
        {
          "internalType": "bool",
          "name": "success",
          "type": "bool"
        }
      ],
      "stateMutability": "nonpayable",
      "type": "function"
    },
    {
      "inputs": [],
      "name": "owner",
      "outputs": [
        {
          "internalType": "address",
          "name": "",
          "type": "address"
        }
      ],
      "stateMutability": "view",
      "type": "function"
    },
    {
      "inputs": [
        {
          "internalType": "uint256",
          "name": "requestId",
          "type": "uint256"
        },
        {
          "internalType": "uint256[]",
          "name": "randomWords",
          "type": "uint256[]"
        }
      ],
      "name": "rawFulfillRandomWords",
      "outputs": [],
      "stateMutability": "nonpayable",
      "type": "function"
    },
    {
      "inputs": [
        {
          "internalType": "address",
          "name": "addr",
          "type": "address"
        }
      ],
      "name": "removeAddressFromWhitelist",
      "outputs": [
        {
          "internalType": "bool",
          "name": "success",
          "type": "bool"
        }
      ],
      "stateMutability": "nonpayable",
      "type": "function"
    },
    {
      "inputs": [
        {
          "internalType": "address[]",
          "name": "addrs",
          "type": "address[]"
        }
      ],
      "name": "removeAddressesFromWhitelist",
      "outputs": [
        {
          "internalType": "bool",
          "name": "success",
          "type": "bool"
        }
      ],
      "stateMutability": "nonpayable",
      "type": "function"
    },
    {
      "inputs": [],
      "name": "renounceOwnership",
      "outputs": [],
      "stateMutability": "nonpayable",
      "type": "function"
    },
    {
      "inputs": [],
      "name": "requestRandomWords",
      "outputs": [],
      "stateMutability": "nonpayable",
      "type": "function"
    },
    {
      "inputs": [
        {
          "internalType": "uint256",
          "name": "",
          "type": "uint256"
        }
      ],
      "name": "s_randomWords",
      "outputs": [
        {
          "internalType": "uint256",
          "name": "",
          "type": "uint256"
        }
      ],
      "stateMutability": "view",
      "type": "function"
    },
    {
      "inputs": [],
      "name": "s_requestId",
      "outputs": [
        {
          "internalType": "uint256",
          "name": "",
          "type": "uint256"
        }
      ],
      "stateMutability": "view",
      "type": "function"
    },
    {
      "inputs": [
        {
          "internalType": "address",
          "name": "newOwner",
          "type": "address"
        }
      ],
      "name": "transferOwnership",
      "outputs": [],
      "stateMutability": "nonpayable",
      "type": "function"
    },
    {
      "inputs": [
        {
          "internalType": "address",
          "name": "",
          "type": "address"
        }
      ],
      "name": "whitelist",
      "outputs": [
        {
          "internalType": "bool",
          "name": "",
          "type": "bool"
        }
      ],
      "stateMutability": "view",
      "type": "function"
    }
  ],
  "bytecode": "0x60a0604052736168499c0cffcacd319c818142124b7a15e857ab600460006101000a81548173ffffffffffffffffffffffffffffffffffffffff021916908373ffffffffffffffffffffffffffffffffffffffff1602179055507301be23585060835e02b77ef475b0cc51aa1e0709600560006101000a81548173ffffffffffffffffffffffffffffffffffffffff021916908373ffffffffffffffffffffffffffffffffffffffff1602179055507fd89b2bf150e3b9e13446986e571fb9cab24b13cea0a43ea20a6049a85cc807cc60001b600655620186a0600760006101000a81548163ffffffff021916908363ffffffff1602179055506003600760046101000a81548161ffff021916908361ffff1602179055506001600760066101000a81548163ffffffff021916908363ffffffff1602179055503480156200014657600080fd5b506040516200183d3803806200183d83398181016040528101906200016c919062000401565b600460009054906101000a900473ffffffffffffffffffffffffffffffffffffffff168073ffffffffffffffffffffffffffffffffffffffff1660808173ffffffffffffffffffffffffffffffffffffffff1660601b8152505050620001e7620001db6200031e60201b60201c565b6200032660201b60201c565b600460009054906101000a900473ffffffffffffffffffffffffffffffffffffffff16600260006101000a81548173ffffffffffffffffffffffffffffffffffffffff021916908373ffffffffffffffffffffffffffffffffffffffff160217905550600560009054906101000a900473ffffffffffffffffffffffffffffffffffffffff16600360006101000a81548173ffffffffffffffffffffffffffffffffffffffff021916908373ffffffffffffffffffffffffffffffffffffffff16021790555033600a60006101000a81548173ffffffffffffffffffffffffffffffffffffffff021916908373ffffffffffffffffffffffffffffffffffffffff16021790555080600360146101000a81548167ffffffffffffffff021916908367ffffffffffffffff1602179055505062000466565b600033905090565b60008060009054906101000a900473ffffffffffffffffffffffffffffffffffffffff169050816000806101000a81548173ffffffffffffffffffffffffffffffffffffffff021916908373ffffffffffffffffffffffffffffffffffffffff1602179055508173ffffffffffffffffffffffffffffffffffffffff168173ffffffffffffffffffffffffffffffffffffffff167f8be0079c531659141344cd1fd0a4f28419497f9722a3daafe3b4186f6b6457e060405160405180910390a35050565b600081519050620003fb816200044c565b92915050565b6000602082840312156200041a576200041962000447565b5b60006200042a84828501620003ea565b91505092915050565b600067ffffffffffffffff82169050919050565b600080fd5b620004578162000433565b81146200046357600080fd5b50565b60805160601c6113b16200048c6000396000818161026301526102b701526113b16000f3fe608060405234801561001057600080fd5b50600436106100b45760003560e01c80639b19251a116100715780639b19251a1461018d578063e0c86289146101bd578063e2ec6ec3146101c7578063e89e106a146101f7578063f2fde38b14610215578063f6eaffc814610231576100b4565b80631fe543e3146100b957806324953eaa146100d5578063286dd3f514610105578063715018a6146101355780637b9417c81461013f5780638da5cb5b1461016f575b600080fd5b6100d360048036038101906100ce9190610e7f565b610261565b005b6100ef60048036038101906100ea9190610ddc565b610321565b6040516100fc9190610fce565b60405180910390f35b61011f600480360381019061011a9190610daf565b6103f1565b60405161012c9190610fce565b60405180910390f35b61013d61055a565b005b61015960048036038101906101549190610daf565b6105e2565b6040516101669190610fce565b60405180910390f35b610177610749565b6040516101849190610f8a565b60405180910390f35b6101a760048036038101906101a29190610daf565b610772565b6040516101b49190610fce565b60405180910390f35b6101c5610792565b005b6101e160048036038101906101dc9190610ddc565b6108f1565b6040516101ee9190610fce565b60405180910390f35b6101ff6109c1565b60405161020c919061107c565b60405180910390f35b61022f600480360381019061022a9190610daf565b6109c7565b005b61024b60048036038101906102469190610e25565b610abf565b604051610258919061107c565b60405180910390f35b7f000000000000000000000000000000000000000000000000000000000000000073ffffffffffffffffffffffffffffffffffffffff163373ffffffffffffffffffffffffffffffffffffffff161461031357337f00000000000000000000000000000000000000000000000000000000000000006040517f1cf993f400000000000000000000000000000000000000000000000000000000815260040161030a929190610fa5565b60405180910390fd5b61031d8282610ae3565b5050565b600061032b610afe565b73ffffffffffffffffffffffffffffffffffffffff16610349610749565b73ffffffffffffffffffffffffffffffffffffffff161461039f576040517f08c379a00000000000000000000000000000000000000000000000000000000081526004016103969061105c565b60405180910390fd5b60005b82518110156103eb576103ce8382815181106103c1576103c0611252565b5b60200260200101516103f1565b156103d857600191505b80806103e3906111da565b9150506103a2565b50919050565b60006103fb610afe565b73ffffffffffffffffffffffffffffffffffffffff16610419610749565b73ffffffffffffffffffffffffffffffffffffffff161461046f576040517f08c379a00000000000000000000000000000000000000000000000000000000081526004016104669061105c565b60405180910390fd5b600160008373ffffffffffffffffffffffffffffffffffffffff1673ffffffffffffffffffffffffffffffffffffffff16815260200190815260200160002060009054906101000a900460ff1615610555576000600160008473ffffffffffffffffffffffffffffffffffffffff1673ffffffffffffffffffffffffffffffffffffffff16815260200190815260200160002060006101000a81548160ff0219169083151502179055507ff1abf01a1043b7c244d128e8595cf0c1d10743b022b03a02dffd8ca3bf729f5a826040516105489190610f8a565b60405180910390a1600190505b919050565b610562610afe565b73ffffffffffffffffffffffffffffffffffffffff16610580610749565b73ffffffffffffffffffffffffffffffffffffffff16146105d6576040517f08c379a00000000000000000000000000000000000000000000000000000000081526004016105cd9061105c565b60405180910390fd5b6105e06000610b06565b565b60006105ec610afe565b73ffffffffffffffffffffffffffffffffffffffff1661060a610749565b73ffffffffffffffffffffffffffffffffffffffff1614610660576040517f08c379a00000000000000000000000000000000000000000000000000000000081526004016106579061105c565b60405180910390fd5b600160008373ffffffffffffffffffffffffffffffffffffffff1673ffffffffffffffffffffffffffffffffffffffff16815260200190815260200160002060009054906101000a900460ff166107445760018060008473ffffffffffffffffffffffffffffffffffffffff1673ffffffffffffffffffffffffffffffffffffffff16815260200190815260200160002060006101000a81548160ff0219169083151502179055507fd1bba68c128cc3f427e5831b3c6f99f480b6efa6b9e80c757768f6124158cc3f826040516107379190610f8a565b60405180910390a1600190505b919050565b60008060009054906101000a900473ffffffffffffffffffffffffffffffffffffffff16905090565b60016020528060005260406000206000915054906101000a900460ff1681565b600160003373ffffffffffffffffffffffffffffffffffffffff1673ffffffffffffffffffffffffffffffffffffffff16815260200190815260200160002060009054906101000a900460ff166107e857600080fd5b600260009054906101000a900473ffffffffffffffffffffffffffffffffffffffff1673ffffffffffffffffffffffffffffffffffffffff16635d3b1d30600654600360149054906101000a900467ffffffffffffffff16600760049054906101000a900461ffff16600760009054906101000a900463ffffffff16600760069054906101000a900463ffffffff166040518663ffffffff1660e01b8152600401610897959493929190610fe9565b602060405180830381600087803b1580156108b157600080fd5b505af11580156108c5573d6000803e3d6000fd5b505050506040513d601f19601f820116820180604052508101906108e99190610e52565b600981905550565b60006108fb610afe565b73ffffffffffffffffffffffffffffffffffffffff16610919610749565b73ffffffffffffffffffffffffffffffffffffffff161461096f576040517f08c379a00000000000000000000000000000000000000000000000000000000081526004016109669061105c565b60405180910390fd5b60005b82518110156109bb5761099e83828151811061099157610990611252565b5b60200260200101516105e2565b156109a857600191505b80806109b3906111da565b915050610972565b50919050565b60095481565b6109cf610afe565b73ffffffffffffffffffffffffffffffffffffffff166109ed610749565b73ffffffffffffffffffffffffffffffffffffffff1614610a43576040517f08c379a0000000000000000000000000000000000000000000000000000000008152600401610a3a9061105c565b60405180910390fd5b600073ffffffffffffffffffffffffffffffffffffffff168173ffffffffffffffffffffffffffffffffffffffff161415610ab3576040517f08c379a0000000000000000000000000000000000000000000000000000000008152600401610aaa9061103c565b60405180910390fd5b610abc81610b06565b50565b60088181548110610acf57600080fd5b906000526020600020016000915090505481565b8060089080519060200190610af9929190610bca565b505050565b600033905090565b60008060009054906101000a900473ffffffffffffffffffffffffffffffffffffffff169050816000806101000a81548173ffffffffffffffffffffffffffffffffffffffff021916908373ffffffffffffffffffffffffffffffffffffffff1602179055508173ffffffffffffffffffffffffffffffffffffffff168173ffffffffffffffffffffffffffffffffffffffff167f8be0079c531659141344cd1fd0a4f28419497f9722a3daafe3b4186f6b6457e060405160405180910390a35050565b828054828255906000526020600020908101928215610c06579160200282015b82811115610c05578251825591602001919060010190610bea565b5b509050610c139190610c17565b5090565b5b80821115610c30576000816000905550600101610c18565b5090565b6000610c47610c42846110bc565b611097565b90508083825260208201905082856020860282011115610c6a57610c696112b5565b5b60005b85811015610c9a5781610c808882610d14565b845260208401935060208301925050600181019050610c6d565b5050509392505050565b6000610cb7610cb2846110e8565b611097565b90508083825260208201905082856020860282011115610cda57610cd96112b5565b5b60005b85811015610d0a5781610cf08882610d85565b845260208401935060208301925050600181019050610cdd565b5050509392505050565b600081359050610d238161134d565b92915050565b600082601f830112610d3e57610d3d6112b0565b5b8135610d4e848260208601610c34565b91505092915050565b600082601f830112610d6c57610d6b6112b0565b5b8135610d7c848260208601610ca4565b91505092915050565b600081359050610d9481611364565b92915050565b600081519050610da981611364565b92915050565b600060208284031215610dc557610dc46112bf565b5b6000610dd384828501610d14565b91505092915050565b600060208284031215610df257610df16112bf565b5b600082013567ffffffffffffffff811115610e1057610e0f6112ba565b5b610e1c84828501610d29565b91505092915050565b600060208284031215610e3b57610e3a6112bf565b5b6000610e4984828501610d85565b91505092915050565b600060208284031215610e6857610e676112bf565b5b6000610e7684828501610d9a565b91505092915050565b60008060408385031215610e9657610e956112bf565b5b6000610ea485828601610d85565b925050602083013567ffffffffffffffff811115610ec557610ec46112ba565b5b610ed185828601610d57565b9150509250929050565b610ee481611125565b82525050565b610ef381611137565b82525050565b610f0281611143565b82525050565b6000610f15602683611114565b9150610f20826112d5565b604082019050919050565b6000610f38602083611114565b9150610f4382611324565b602082019050919050565b610f578161114d565b82525050565b610f668161117b565b82525050565b610f7581611185565b82525050565b610f8481611195565b82525050565b6000602082019050610f9f6000830184610edb565b92915050565b6000604082019050610fba6000830185610edb565b610fc76020830184610edb565b9392505050565b6000602082019050610fe36000830184610eea565b92915050565b600060a082019050610ffe6000830188610ef9565b61100b6020830187610f7b565b6110186040830186610f4e565b6110256060830185610f6c565b6110326080830184610f6c565b9695505050505050565b6000602082019050818103600083015261105581610f08565b9050919050565b6000602082019050818103600083015261107581610f2b565b9050919050565b60006020820190506110916000830184610f5d565b92915050565b60006110a16110b2565b90506110ad82826111a9565b919050565b6000604051905090565b600067ffffffffffffffff8211156110d7576110d6611281565b5b602082029050602081019050919050565b600067ffffffffffffffff82111561110357611102611281565b5b602082029050602081019050919050565b600082825260208201905092915050565b60006111308261115b565b9050919050565b60008115159050919050565b6000819050919050565b600061ffff82169050919050565b600073ffffffffffffffffffffffffffffffffffffffff82169050919050565b6000819050919050565b600063ffffffff82169050919050565b600067ffffffffffffffff82169050919050565b6111b2826112c4565b810181811067ffffffffffffffff821117156111d1576111d0611281565b5b80604052505050565b60006111e58261117b565b91507fffffffffffffffffffffffffffffffffffffffffffffffffffffffffffffffff82141561121857611217611223565b5b600182019050919050565b7f4e487b7100000000000000000000000000000000000000000000000000000000600052601160045260246000fd5b7f4e487b7100000000000000000000000000000000000000000000000000000000600052603260045260246000fd5b7f4e487b7100000000000000000000000000000000000000000000000000000000600052604160045260246000fd5b600080fd5b600080fd5b600080fd5b600080fd5b6000601f19601f8301169050919050565b7f4f776e61626c653a206e6577206f776e657220697320746865207a65726f206160008201527f6464726573730000000000000000000000000000000000000000000000000000602082015250565b7f4f776e61626c653a2063616c6c6572206973206e6f7420746865206f776e6572600082015250565b61135681611125565b811461136157600080fd5b50565b61136d8161117b565b811461137857600080fd5b5056fea264697066735822122049022ddd3d53a46970ef54b3db0ba3429fceaa8fdb5833eb6424eb5ac98534a264736f6c63430008070033",
  "linkReferences": {},
  "deployedLinkReferences": {}
}