{
  "_format": "hh-sol-artifact-1",
  "contractName": "VRFv2Consumer",
  "sourceName": "contracts/VRFv2Consumer.sol",
  "abi": [
    {
      "inputs": [
        {
          "internalType": "uint64",
          "name": "subscriptionId",
          "type": "uint64"
        }
      ],
      "stateMutability": "nonpayable",
      "type": "constructor"
    },
    {
      "inputs": [
        {
          "internalType": "address",
          "name": "have",
          "type": "address"
        },
        {
          "internalType": "address",
          "name": "want",
          "type": "address"
        }
      ],
      "name": "OnlyCoordinatorCanFulfill",
      "type": "error"
    },
    {
      "inputs": [
        {
          "internalType": "uint256",
          "name": "requestId",
          "type": "uint256"
        },
        {
          "internalType": "uint256[]",
          "name": "randomWords",
          "type": "uint256[]"
        }
      ],
      "name": "rawFulfillRandomWords",
      "outputs": [],
      "stateMutability": "nonpayable",
      "type": "function"
    },
    {
      "inputs": [],
      "name": "requestRandomWords",
      "outputs": [],
      "stateMutability": "nonpayable",
      "type": "function"
    },
    {
      "inputs": [
        {
          "internalType": "uint256",
          "name": "",
          "type": "uint256"
        }
      ],
      "name": "s_randomWords",
      "outputs": [
        {
          "internalType": "uint256",
          "name": "",
          "type": "uint256"
        }
      ],
      "stateMutability": "view",
      "type": "function"
    },
    {
      "inputs": [],
      "name": "s_requestId",
      "outputs": [
        {
          "internalType": "uint256",
          "name": "",
          "type": "uint256"
        }
      ],
      "stateMutability": "view",
      "type": "function"
    }
  ],
  "bytecode": "0x60a0604052736168499c0cffcacd319c818142124b7a15e857ab600260006101000a81548173ffffffffffffffffffffffffffffffffffffffff021916908373ffffffffffffffffffffffffffffffffffffffff1602179055507301be23585060835e02b77ef475b0cc51aa1e0709600360006101000a81548173ffffffffffffffffffffffffffffffffffffffff021916908373ffffffffffffffffffffffffffffffffffffffff1602179055507fd89b2bf150e3b9e13446986e571fb9cab24b13cea0a43ea20a6049a85cc807cc60001b600455620186a0600560006101000a81548163ffffffff021916908363ffffffff1602179055506003600560046101000a81548161ffff021916908361ffff1602179055506001600560066101000a81548163ffffffff021916908363ffffffff16021790555034801561014557600080fd5b50604051610b2c380380610b2c8339818101604052810190610167919061030c565b600260009054906101000a900473ffffffffffffffffffffffffffffffffffffffff168073ffffffffffffffffffffffffffffffffffffffff1660808173ffffffffffffffffffffffffffffffffffffffff1660601b8152505050600260009054906101000a900473ffffffffffffffffffffffffffffffffffffffff166000806101000a81548173ffffffffffffffffffffffffffffffffffffffff021916908373ffffffffffffffffffffffffffffffffffffffff160217905550600360009054906101000a900473ffffffffffffffffffffffffffffffffffffffff16600160006101000a81548173ffffffffffffffffffffffffffffffffffffffff021916908373ffffffffffffffffffffffffffffffffffffffff16021790555033600860006101000a81548173ffffffffffffffffffffffffffffffffffffffff021916908373ffffffffffffffffffffffffffffffffffffffff16021790555080600160146101000a81548167ffffffffffffffff021916908367ffffffffffffffff16021790555050610369565b60008151905061030681610352565b92915050565b6000602082840312156103225761032161034d565b5b6000610330848285016102f7565b91505092915050565b600067ffffffffffffffff82169050919050565b600080fd5b61035b81610339565b811461036657600080fd5b50565b60805160601c61079f61038d6000396000818160c7015261011b015261079f6000f3fe608060405234801561001057600080fd5b506004361061004c5760003560e01c80631fe543e314610051578063e0c862891461006d578063e89e106a14610077578063f6eaffc814610095575b600080fd5b61006b600480360381019061006691906104b7565b6100c5565b005b610075610185565b005b61007f6102e6565b60405161008c91906105e9565b60405180910390f35b6100af60048036038101906100aa919061045d565b6102ec565b6040516100bc91906105e9565b60405180910390f35b7f000000000000000000000000000000000000000000000000000000000000000073ffffffffffffffffffffffffffffffffffffffff163373ffffffffffffffffffffffffffffffffffffffff161461017757337f00000000000000000000000000000000000000000000000000000000000000006040517f1cf993f400000000000000000000000000000000000000000000000000000000815260040161016e92919061056d565b60405180910390fd5b6101818282610310565b5050565b600860009054906101000a900473ffffffffffffffffffffffffffffffffffffffff1673ffffffffffffffffffffffffffffffffffffffff163373ffffffffffffffffffffffffffffffffffffffff16146101df57600080fd5b60008054906101000a900473ffffffffffffffffffffffffffffffffffffffff1673ffffffffffffffffffffffffffffffffffffffff16635d3b1d30600454600160149054906101000a900467ffffffffffffffff16600560049054906101000a900461ffff16600560009054906101000a900463ffffffff16600560069054906101000a900463ffffffff166040518663ffffffff1660e01b815260040161028c959493929190610596565b602060405180830381600087803b1580156102a657600080fd5b505af11580156102ba573d6000803e3d6000fd5b505050506040513d601f19601f820116820180604052508101906102de919061048a565b600781905550565b60075481565b600681815481106102fc57600080fd5b906000526020600020016000915090505481565b806006908051906020019061032692919061032b565b505050565b828054828255906000526020600020908101928215610367579160200282015b8281111561036657825182559160200191906001019061034b565b5b5090506103749190610378565b5090565b5b80821115610391576000816000905550600101610379565b5090565b60006103a86103a384610629565b610604565b905080838252602082019050828560208602820111156103cb576103ca610732565b5b60005b858110156103fb57816103e18882610433565b8452602084019350602083019250506001810190506103ce565b5050509392505050565b600082601f83011261041a5761041961072d565b5b813561042a848260208601610395565b91505092915050565b60008135905061044281610752565b92915050565b60008151905061045781610752565b92915050565b6000602082840312156104735761047261073c565b5b600061048184828501610433565b91505092915050565b6000602082840312156104a05761049f61073c565b5b60006104ae84828501610448565b91505092915050565b600080604083850312156104ce576104cd61073c565b5b60006104dc85828601610433565b925050602083013567ffffffffffffffff8111156104fd576104fc610737565b5b61050985828601610405565b9150509250929050565b61051c81610655565b82525050565b61052b81610667565b82525050565b61053a81610671565b82525050565b6105498161069f565b82525050565b610558816106a9565b82525050565b610567816106b9565b82525050565b60006040820190506105826000830185610513565b61058f6020830184610513565b9392505050565b600060a0820190506105ab6000830188610522565b6105b8602083018761055e565b6105c56040830186610531565b6105d2606083018561054f565b6105df608083018461054f565b9695505050505050565b60006020820190506105fe6000830184610540565b92915050565b600061060e61061f565b905061061a82826106cd565b919050565b6000604051905090565b600067ffffffffffffffff821115610644576106436106fe565b5b602082029050602081019050919050565b60006106608261067f565b9050919050565b6000819050919050565b600061ffff82169050919050565b600073ffffffffffffffffffffffffffffffffffffffff82169050919050565b6000819050919050565b600063ffffffff82169050919050565b600067ffffffffffffffff82169050919050565b6106d682610741565b810181811067ffffffffffffffff821117156106f5576106f46106fe565b5b80604052505050565b7f4e487b7100000000000000000000000000000000000000000000000000000000600052604160045260246000fd5b600080fd5b600080fd5b600080fd5b600080fd5b6000601f19601f8301169050919050565b61075b8161069f565b811461076657600080fd5b5056fea264697066735822122051452e709290d0dab227de1983e4f5e3a6e010925bea06bf55b81b5d71d03d0164736f6c63430008070033",
  "linkReferences": {},
  "deployedLinkReferences": {}
}