{
  "_format": "hh-sol-artifact-1",
  "contractName": "LeagueBeaconProxy",
  "sourceName": "contracts/LeagueBeaconProxy.sol",
  "abi": [
    {
      "inputs": [
        {
          "internalType": "address",
          "name": "beacon",
          "type": "address"
        },
        {
          "internalType": "bytes",
          "name": "data",
          "type": "bytes"
        }
      ],
      "stateMutability": "payable",
      "type": "constructor"
    },
    {
      "anonymous": false,
      "inputs": [
        {
          "indexed": false,
          "internalType": "address",
          "name": "previousAdmin",
          "type": "address"
        },
        {
          "indexed": false,
          "internalType": "address",
          "name": "newAdmin",
          "type": "address"
        }
      ],
      "name": "AdminChanged",
      "type": "event"
    },
    {
      "anonymous": false,
      "inputs": [
        {
          "indexed": true,
          "internalType": "address",
          "name": "beacon",
          "type": "address"
        }
      ],
      "name": "BeaconUpgraded",
      "type": "event"
    },
    {
      "anonymous": false,
      "inputs": [
        {
          "indexed": true,
          "internalType": "address",
          "name": "previousOwner",
          "type": "address"
        },
        {
          "indexed": true,
          "internalType": "address",
          "name": "newOwner",
          "type": "address"
        }
      ],
      "name": "OwnershipTransferred",
      "type": "event"
    },
    {
      "anonymous": false,
      "inputs": [
        {
          "indexed": true,
          "internalType": "bytes32",
          "name": "role",
          "type": "bytes32"
        },
        {
          "indexed": true,
          "internalType": "bytes32",
          "name": "previousAdminRole",
          "type": "bytes32"
        },
        {
          "indexed": true,
          "internalType": "bytes32",
          "name": "newAdminRole",
          "type": "bytes32"
        }
      ],
      "name": "RoleAdminChanged",
      "type": "event"
    },
    {
      "anonymous": false,
      "inputs": [
        {
          "indexed": true,
          "internalType": "bytes32",
          "name": "role",
          "type": "bytes32"
        },
        {
          "indexed": true,
          "internalType": "address",
          "name": "account",
          "type": "address"
        },
        {
          "indexed": true,
          "internalType": "address",
          "name": "sender",
          "type": "address"
        }
      ],
      "name": "RoleGranted",
      "type": "event"
    },
    {
      "anonymous": false,
      "inputs": [
        {
          "indexed": true,
          "internalType": "bytes32",
          "name": "role",
          "type": "bytes32"
        },
        {
          "indexed": true,
          "internalType": "address",
          "name": "account",
          "type": "address"
        },
        {
          "indexed": true,
          "internalType": "address",
          "name": "sender",
          "type": "address"
        }
      ],
      "name": "RoleRevoked",
      "type": "event"
    },
    {
      "anonymous": false,
      "inputs": [
        {
          "indexed": false,
          "internalType": "address",
          "name": "sender",
          "type": "address"
        },
        {
          "indexed": false,
          "internalType": "uint256",
          "name": "amount",
          "type": "uint256"
        }
      ],
      "name": "Staked",
      "type": "event"
    },
    {
      "anonymous": false,
      "inputs": [
        {
          "indexed": true,
          "internalType": "address",
          "name": "implementation",
          "type": "address"
        }
      ],
      "name": "Upgraded",
      "type": "event"
    },
    {
      "anonymous": false,
      "inputs": [
        {
          "indexed": false,
          "internalType": "address",
          "name": "addr",
          "type": "address"
        }
      ],
      "name": "WhitelistedAddressAdded",
      "type": "event"
    },
    {
      "anonymous": false,
      "inputs": [
        {
          "indexed": false,
          "internalType": "address",
          "name": "addr",
          "type": "address"
        }
      ],
      "name": "WhitelistedAddressRemoved",
      "type": "event"
    },
    {
      "anonymous": false,
      "inputs": [
        {
          "indexed": false,
          "internalType": "address",
          "name": "sender",
          "type": "address"
        },
        {
          "indexed": false,
          "internalType": "address",
          "name": "contractAddress",
          "type": "address"
        }
      ],
      "name": "testUSDCDeployed",
      "type": "event"
    },
    {
      "stateMutability": "payable",
      "type": "fallback"
    },
    {
      "inputs": [],
      "name": "DEFAULT_ADMIN_ROLE",
      "outputs": [
        {
          "internalType": "bytes32",
          "name": "",
          "type": "bytes32"
        }
      ],
      "stateMutability": "view",
      "type": "function"
    },
    {
      "inputs": [
        {
          "internalType": "address",
          "name": "addr",
          "type": "address"
        }
      ],
      "name": "addAddressToWhitelist",
      "outputs": [
        {
          "internalType": "bool",
          "name": "success",
          "type": "bool"
        }
      ],
      "stateMutability": "nonpayable",
      "type": "function"
    },
    {
      "inputs": [
        {
          "internalType": "address[]",
          "name": "addrs",
          "type": "address[]"
        }
      ],
      "name": "addAddressesToWhitelist",
      "outputs": [
        {
          "internalType": "bool",
          "name": "success",
          "type": "bool"
        }
      ],
      "stateMutability": "nonpayable",
      "type": "function"
    },
    {
      "inputs": [],
      "name": "admin",
      "outputs": [
        {
          "internalType": "address",
          "name": "",
          "type": "address"
        }
      ],
      "stateMutability": "view",
      "type": "function"
    },
    {
      "inputs": [],
      "name": "getNumWhitelisted",
      "outputs": [
        {
          "internalType": "uint256",
          "name": "",
          "type": "uint256"
        }
      ],
      "stateMutability": "view",
      "type": "function"
    },
    {
      "inputs": [
        {
          "internalType": "bytes32",
          "name": "role",
          "type": "bytes32"
        }
      ],
      "name": "getRoleAdmin",
      "outputs": [
        {
          "internalType": "bytes32",
          "name": "",
          "type": "bytes32"
        }
      ],
      "stateMutability": "view",
      "type": "function"
    },
    {
      "inputs": [
        {
          "internalType": "address",
          "name": "_user",
          "type": "address"
        }
      ],
      "name": "getUserIsWhitelisted",
      "outputs": [
        {
          "internalType": "bool",
          "name": "",
          "type": "bool"
        }
      ],
      "stateMutability": "view",
      "type": "function"
    },
    {
      "inputs": [
        {
          "internalType": "bytes32",
          "name": "role",
          "type": "bytes32"
        },
        {
          "internalType": "address",
          "name": "account",
          "type": "address"
        }
      ],
      "name": "grantRole",
      "outputs": [],
      "stateMutability": "nonpayable",
      "type": "function"
    },
    {
      "inputs": [
        {
          "internalType": "bytes32",
          "name": "role",
          "type": "bytes32"
        },
        {
          "internalType": "address",
          "name": "account",
          "type": "address"
        }
      ],
      "name": "hasRole",
      "outputs": [
        {
          "internalType": "bool",
          "name": "",
          "type": "bool"
        }
      ],
      "stateMutability": "view",
      "type": "function"
    },
    {
      "inputs": [
        {
          "internalType": "address",
          "name": "",
          "type": "address"
        }
      ],
      "name": "inLeague",
      "outputs": [
        {
          "internalType": "bool",
          "name": "",
          "type": "bool"
        }
      ],
      "stateMutability": "view",
      "type": "function"
    },
    {
      "inputs": [],
      "name": "isPublic",
      "outputs": [
        {
          "internalType": "bool",
          "name": "",
          "type": "bool"
        }
      ],
      "stateMutability": "view",
      "type": "function"
    },
    {
      "inputs": [
        {
          "internalType": "uint256",
          "name": "",
          "type": "uint256"
        }
      ],
      "name": "leagueMembers",
      "outputs": [
        {
          "internalType": "address",
          "name": "",
          "type": "address"
        }
      ],
      "stateMutability": "view",
      "type": "function"
    },
    {
      "inputs": [],
      "name": "leagueName",
      "outputs": [
        {
          "internalType": "string",
          "name": "",
          "type": "string"
        }
      ],
      "stateMutability": "view",
      "type": "function"
    },
    {
      "inputs": [],
      "name": "numWeeks",
      "outputs": [
        {
          "internalType": "uint256",
          "name": "",
          "type": "uint256"
        }
      ],
      "stateMutability": "view",
      "type": "function"
    },
    {
      "inputs": [],
      "name": "owner",
      "outputs": [
        {
          "internalType": "address",
          "name": "",
          "type": "address"
        }
      ],
      "stateMutability": "view",
      "type": "function"
    },
    {
      "inputs": [],
      "name": "polygonUSDCAddress",
      "outputs": [
        {
          "internalType": "address",
          "name": "",
          "type": "address"
        }
      ],
      "stateMutability": "view",
      "type": "function"
    },
    {
      "inputs": [
        {
          "internalType": "address",
          "name": "addr",
          "type": "address"
        }
      ],
      "name": "removeAddressFromWhitelist",
      "outputs": [
        {
          "internalType": "bool",
          "name": "success",
          "type": "bool"
        }
      ],
      "stateMutability": "nonpayable",
      "type": "function"
    },
    {
      "inputs": [
        {
          "internalType": "address[]",
          "name": "addrs",
          "type": "address[]"
        }
      ],
      "name": "removeAddressesFromWhitelist",
      "outputs": [
        {
          "internalType": "bool",
          "name": "success",
          "type": "bool"
        }
      ],
      "stateMutability": "nonpayable",
      "type": "function"
    },
    {
      "inputs": [],
      "name": "renounceOwnership",
      "outputs": [],
      "stateMutability": "nonpayable",
      "type": "function"
    },
    {
      "inputs": [
        {
          "internalType": "bytes32",
          "name": "role",
          "type": "bytes32"
        },
        {
          "internalType": "address",
          "name": "account",
          "type": "address"
        }
      ],
      "name": "renounceRole",
      "outputs": [],
      "stateMutability": "nonpayable",
      "type": "function"
    },
    {
      "inputs": [
        {
          "internalType": "bytes32",
          "name": "role",
          "type": "bytes32"
        },
        {
          "internalType": "address",
          "name": "account",
          "type": "address"
        }
      ],
      "name": "revokeRole",
      "outputs": [],
      "stateMutability": "nonpayable",
      "type": "function"
    },
    {
      "inputs": [],
      "name": "rinkebyUSDCAddress",
      "outputs": [
        {
          "internalType": "address",
          "name": "",
          "type": "address"
        }
      ],
      "stateMutability": "view",
      "type": "function"
    },
    {
      "inputs": [],
      "name": "stakeAmount",
      "outputs": [
        {
          "internalType": "uint256",
          "name": "",
          "type": "uint256"
        }
      ],
      "stateMutability": "view",
      "type": "function"
    },
    {
      "inputs": [
        {
          "internalType": "bytes4",
          "name": "interfaceId",
          "type": "bytes4"
        }
      ],
      "name": "supportsInterface",
      "outputs": [
        {
          "internalType": "bool",
          "name": "",
          "type": "bool"
        }
      ],
      "stateMutability": "view",
      "type": "function"
    },
    {
      "inputs": [
        {
          "internalType": "address",
          "name": "newOwner",
          "type": "address"
        }
      ],
      "name": "transferOwnership",
      "outputs": [],
      "stateMutability": "nonpayable",
      "type": "function"
    },
    {
      "inputs": [
        {
          "internalType": "address",
          "name": "",
          "type": "address"
        },
        {
          "internalType": "uint256",
          "name": "",
          "type": "uint256"
        }
      ],
      "name": "userToLineup",
      "outputs": [
        {
          "internalType": "uint256",
          "name": "",
          "type": "uint256"
        }
      ],
      "stateMutability": "view",
      "type": "function"
    },
    {
      "inputs": [
        {
          "internalType": "address",
          "name": "",
          "type": "address"
        },
        {
          "internalType": "uint256",
          "name": "",
          "type": "uint256"
        }
      ],
      "name": "userToRecord",
      "outputs": [
        {
          "internalType": "uint256",
          "name": "",
          "type": "uint256"
        }
      ],
      "stateMutability": "view",
      "type": "function"
    },
    {
      "inputs": [
        {
          "internalType": "address",
          "name": "",
          "type": "address"
        }
      ],
      "name": "userToTotalWins",
      "outputs": [
        {
          "internalType": "uint256",
          "name": "",
          "type": "uint256"
        }
      ],
      "stateMutability": "view",
      "type": "function"
    },
    {
      "inputs": [
        {
          "internalType": "address",
          "name": "",
          "type": "address"
        }
      ],
      "name": "whitelist",
      "outputs": [
        {
          "internalType": "bool",
          "name": "",
          "type": "bool"
        }
      ],
      "stateMutability": "view",
      "type": "function"
    },
    {
      "inputs": [],
      "name": "whitelistContract",
      "outputs": [
        {
          "internalType": "contract Whitelist",
          "name": "",
          "type": "address"
        }
      ],
      "stateMutability": "view",
      "type": "function"
    },
    {
      "stateMutability": "payable",
      "type": "receive"
    }
  ],
  "bytecode": "0x6080604052604051620033d6380380620033d68339818101604052810190620000299190620006bb565b620000496200003d620000cf60201b60201c565b620000d760201b60201c565b60017fa3f0ad74e5423aebfd80d3ef4346578335a9a72aeaee59ff6cb3582b35133d5160001c6200007b919062000942565b60001b7fa3f0ad74e5423aebfd80d3ef4346578335a9a72aeaee59ff6cb3582b35133d5060001b14620000b357620000b262000a27565b5b620000c7828260006200019b60201b60201c565b505062000be0565b600033905090565b60008060009054906101000a900473ffffffffffffffffffffffffffffffffffffffff169050816000806101000a81548173ffffffffffffffffffffffffffffffffffffffff021916908373ffffffffffffffffffffffffffffffffffffffff1602179055508173ffffffffffffffffffffffffffffffffffffffff168173ffffffffffffffffffffffffffffffffffffffff167f8be0079c531659141344cd1fd0a4f28419497f9722a3daafe3b4186f6b6457e060405160405180910390a35050565b620001ac83620002a260201b60201c565b8273ffffffffffffffffffffffffffffffffffffffff167f1cf3b03a6cf19fa2baba4df148e9dcabedea7f8a5c07840e207e5c089be95d3e60405160405180910390a2600082511180620001fd5750805b156200029d576200029b8373ffffffffffffffffffffffffffffffffffffffff16635c60da1b6040518163ffffffff1660e01b815260040160206040518083038186803b1580156200024e57600080fd5b505afa15801562000263573d6000803e3d6000fd5b505050506040513d601f19601f8201168201806040525081019062000289919062000689565b836200045160201b620012e51760201c565b505b505050565b620002b8816200048760201b620013121760201c565b620002fa576040517f08c379a0000000000000000000000000000000000000000000000000000000008152600401620002f1906200084b565b60405180910390fd5b620003918173ffffffffffffffffffffffffffffffffffffffff16635c60da1b6040518163ffffffff1660e01b815260040160206040518083038186803b1580156200034557600080fd5b505afa1580156200035a573d6000803e3d6000fd5b505050506040513d601f19601f8201168201806040525081019062000380919062000689565b6200048760201b620013121760201c565b620003d3576040517f08c379a0000000000000000000000000000000000000000000000000000000008152600401620003ca906200088f565b60405180910390fd5b806200040d7fa3f0ad74e5423aebfd80d3ef4346578335a9a72aeaee59ff6cb3582b35133d5060001b6200049a60201b620013251760201c565b60000160006101000a81548173ffffffffffffffffffffffffffffffffffffffff021916908373ffffffffffffffffffffffffffffffffffffffff16021790555050565b60606200047f8383604051806060016040528060278152602001620033af60279139620004a460201b60201c565b905092915050565b600080823b905060008111915050919050565b6000819050919050565b6060620004b7846200048760201b60201c565b620004f9576040517f08c379a0000000000000000000000000000000000000000000000000000000008152600401620004f0906200086d565b60405180910390fd5b6000808573ffffffffffffffffffffffffffffffffffffffff16856040516200052391906200080e565b600060405180830381855af49150503d806000811462000560576040519150601f19603f3d011682016040523d82523d6000602084013e62000565565b606091505b50915091506200057d8282866200058860201b60201c565b925050509392505050565b606083156200059a57829050620005ed565b600083511115620005ae5782518084602001fd5b816040517f08c379a0000000000000000000000000000000000000000000000000000000008152600401620005e4919062000827565b60405180910390fd5b9392505050565b60006200060b6200060584620008da565b620008b1565b9050828152602081018484840111156200062a576200062962000ab9565b5b62000637848285620009bb565b509392505050565b600081519050620006508162000bc6565b92915050565b600082601f8301126200066e576200066d62000ab4565b5b815162000680848260208601620005f4565b91505092915050565b600060208284031215620006a257620006a162000ac3565b5b6000620006b2848285016200063f565b91505092915050565b60008060408385031215620006d557620006d462000ac3565b5b6000620006e5858286016200063f565b925050602083015167ffffffffffffffff81111562000709576200070862000abe565b5b620007178582860162000656565b9150509250929050565b60006200072e8262000910565b6200073a818562000926565b93506200074c818560208601620009bb565b80840191505092915050565b600062000765826200091b565b62000771818562000931565b935062000783818560208601620009bb565b6200078e8162000ac8565b840191505092915050565b6000620007a860258362000931565b9150620007b58262000ad9565b604082019050919050565b6000620007cf60268362000931565b9150620007dc8262000b28565b604082019050919050565b6000620007f660308362000931565b9150620008038262000b77565b604082019050919050565b60006200081c828462000721565b915081905092915050565b6000602082019050818103600083015262000843818462000758565b905092915050565b60006020820190508181036000830152620008668162000799565b9050919050565b600060208201905081810360008301526200088881620007c0565b9050919050565b60006020820190508181036000830152620008aa81620007e7565b9050919050565b6000620008bd620008d0565b9050620008cb8282620009f1565b919050565b6000604051905090565b600067ffffffffffffffff821115620008f857620008f762000a85565b5b620009038262000ac8565b9050602081019050919050565b600081519050919050565b600081519050919050565b600081905092915050565b600082825260208201905092915050565b60006200094f82620009b1565b91506200095c83620009b1565b92508282101562000972576200097162000a56565b5b828203905092915050565b60006200098a8262000991565b9050919050565b600073ffffffffffffffffffffffffffffffffffffffff82169050919050565b6000819050919050565b60005b83811015620009db578082015181840152602081019050620009be565b83811115620009eb576000848401525b50505050565b620009fc8262000ac8565b810181811067ffffffffffffffff8211171562000a1e5762000a1d62000a85565b5b80604052505050565b7f4e487b7100000000000000000000000000000000000000000000000000000000600052600160045260246000fd5b7f4e487b7100000000000000000000000000000000000000000000000000000000600052601160045260246000fd5b7f4e487b7100000000000000000000000000000000000000000000000000000000600052604160045260246000fd5b600080fd5b600080fd5b600080fd5b600080fd5b6000601f19601f8301169050919050565b7f455243313936373a206e657720626561636f6e206973206e6f74206120636f6e60008201527f7472616374000000000000000000000000000000000000000000000000000000602082015250565b7f416464726573733a2064656c65676174652063616c6c20746f206e6f6e2d636f60008201527f6e74726163740000000000000000000000000000000000000000000000000000602082015250565b7f455243313936373a20626561636f6e20696d706c656d656e746174696f6e206960008201527f73206e6f74206120636f6e747261637400000000000000000000000000000000602082015250565b62000bd1816200097d565b811462000bdd57600080fd5b50565b6127bf8062000bf06000396000f3fe6080604052600436106101d05760003560e01c806384900b04116100f7578063cff5600311610095578063e35a899911610064578063e35a899914610705578063edcbe96c14610742578063f2fde38b1461077f578063f851a440146107a8576101df565b8063cff5600314610637578063d547741f14610674578063dc9a15351461069d578063e2ec6ec3146106c8576101df565b806391d14854116100d157806391d148541461056757806393f3706c146105a45780639b19251a146105cf578063a217fddf1461060c576101df565b806384900b04146104d45780638da5cb5b146104ff5780639122ce6d1461052a576101df565b80632f2ff15d1161016f578063715018a61161013e578063715018a61461042a5780637b9417c8146104415780637eed33f11461047e578063841abf6e146104a9576101df565b80632f2ff15d1461038257806336568abe146103ab57806344eaa84e146103d457806360c7dc47146103ff576101df565b8063248a9ca3116101ab578063248a9ca31461028e57806324953eaa146102cb578063267175db14610308578063286dd3f514610345576101df565b8062b2476f146101e957806301ffc9a7146102145780630c6f795914610251576101df565b366101df576101dd6107d3565b005b6101e76107d3565b005b3480156101f557600080fd5b506101fe6107ed565b60405161020b919061201c565b60405180910390f35b34801561022057600080fd5b5061023b60048036038101906102369190611d96565b610813565b6040516102489190612037565b60405180910390f35b34801561025d57600080fd5b5061027860048036038101906102739190611ca0565b61088d565b604051610285919061214a565b60405180910390f35b34801561029a57600080fd5b506102b560048036038101906102b09190611d29565b6108b5565b6040516102c29190612052565b60405180910390f35b3480156102d757600080fd5b506102f260048036038101906102ed9190611ce0565b6108d5565b6040516102ff9190612037565b60405180910390f35b34801561031457600080fd5b5061032f600480360381019061032a9190611dc3565b6109bf565b60405161033c919061201c565b60405180910390f35b34801561035157600080fd5b5061036c60048036038101906103679190611c46565b6109fe565b6040516103799190612037565b60405180910390f35b34801561038e57600080fd5b506103a960048036038101906103a49190611d56565b610b81565b005b3480156103b757600080fd5b506103d260048036038101906103cd9190611d56565b610baa565b005b3480156103e057600080fd5b506103e9610c2d565b6040516103f6919061214a565b60405180910390f35b34801561040b57600080fd5b50610414610c37565b604051610421919061214a565b60405180910390f35b34801561043657600080fd5b5061043f610c3d565b005b34801561044d57600080fd5b5061046860048036038101906104639190611c46565b610cc5565b6040516104759190612037565b60405180910390f35b34801561048a57600080fd5b50610493610e47565b6040516104a0919061214a565b60405180910390f35b3480156104b557600080fd5b506104be610e4d565b6040516104cb9190612088565b60405180910390f35b3480156104e057600080fd5b506104e9610edb565b6040516104f6919061206d565b60405180910390f35b34801561050b57600080fd5b50610514610f01565b604051610521919061201c565b60405180910390f35b34801561053657600080fd5b50610551600480360381019061054c9190611c46565b610f2a565b60405161055e9190612037565b60405180910390f35b34801561057357600080fd5b5061058e60048036038101906105899190611d56565b610f4a565b60405161059b9190612037565b60405180910390f35b3480156105b057600080fd5b506105b9610fb5565b6040516105c6919061201c565b60405180910390f35b3480156105db57600080fd5b506105f660048036038101906105f19190611c46565b610fdb565b6040516106039190612037565b60405180910390f35b34801561061857600080fd5b50610621610ffb565b60405161062e9190612052565b60405180910390f35b34801561064357600080fd5b5061065e60048036038101906106599190611ca0565b611002565b60405161066b919061214a565b60405180910390f35b34801561068057600080fd5b5061069b60048036038101906106969190611d56565b611033565b005b3480156106a957600080fd5b506106b261105c565b6040516106bf9190612037565b60405180910390f35b3480156106d457600080fd5b506106ef60048036038101906106ea9190611ce0565b61106f565b6040516106fc9190612037565b60405180910390f35b34801561071157600080fd5b5061072c60048036038101906107279190611c46565b611159565b6040516107399190612037565b60405180910390f35b34801561074e57600080fd5b5061076960048036038101906107649190611c46565b6111af565b604051610776919061214a565b60405180910390f35b34801561078b57600080fd5b506107a660048036038101906107a19190611c46565b6111c7565b005b3480156107b457600080fd5b506107bd6112bf565b6040516107ca919061201c565b60405180910390f35b6107db61132f565b6107eb6107e6611331565b6113bd565b565b601260009054906101000a900473ffffffffffffffffffffffffffffffffffffffff1681565b60007f7965db0b000000000000000000000000000000000000000000000000000000007bffffffffffffffffffffffffffffffffffffffffffffffffffffffff1916827bffffffffffffffffffffffffffffffffffffffffffffffffffffffff191614806108865750610885826113e3565b5b9050919050565b600b60205281600052604060002081600881106108a957600080fd5b01600091509150505481565b600060016000838152602001908152602001600020600101549050919050565b60006108df61144d565b73ffffffffffffffffffffffffffffffffffffffff166108fd610f01565b73ffffffffffffffffffffffffffffffffffffffff1614610953576040517f08c379a000000000000000000000000000000000000000000000000000000000815260040161094a906120ea565b60405180910390fd5b60005b82518110156109b957610982838281518110610975576109746124f2565b5b60200260200101516109fe565b156109a65760016003600082825461099a91906122a3565b92505081905550600191505b80806109b19061244b565b915050610956565b50919050565b600f81815481106109cf57600080fd5b906000526020600020016000915054906101000a900473ffffffffffffffffffffffffffffffffffffffff1681565b6000610a0861144d565b73ffffffffffffffffffffffffffffffffffffffff16610a26610f01565b73ffffffffffffffffffffffffffffffffffffffff1614610a7c576040517f08c379a0000000000000000000000000000000000000000000000000000000008152600401610a73906120ea565b60405180910390fd5b600260008373ffffffffffffffffffffffffffffffffffffffff1673ffffffffffffffffffffffffffffffffffffffff16815260200190815260200160002060009054906101000a900460ff1615610b7c576000600260008473ffffffffffffffffffffffffffffffffffffffff1673ffffffffffffffffffffffffffffffffffffffff16815260200190815260200160002060006101000a81548160ff0219169083151502179055507ff1abf01a1043b7c244d128e8595cf0c1d10743b022b03a02dffd8ca3bf729f5a82604051610b55919061201c565b60405180910390a1600160036000828254610b7091906122a3565b92505081905550600190505b919050565b610b8a826108b5565b610b9b81610b9661144d565b611455565b610ba583836114f2565b505050565b610bb261144d565b73ffffffffffffffffffffffffffffffffffffffff168173ffffffffffffffffffffffffffffffffffffffff1614610c1f576040517f08c379a0000000000000000000000000000000000000000000000000000000008152600401610c169061212a565b60405180910390fd5b610c2982826115d2565b5050565b6000600354905090565b60075481565b610c4561144d565b73ffffffffffffffffffffffffffffffffffffffff16610c63610f01565b73ffffffffffffffffffffffffffffffffffffffff1614610cb9576040517f08c379a0000000000000000000000000000000000000000000000000000000008152600401610cb0906120ea565b60405180910390fd5b610cc360006116b4565b565b6000610ccf61144d565b73ffffffffffffffffffffffffffffffffffffffff16610ced610f01565b73ffffffffffffffffffffffffffffffffffffffff1614610d43576040517f08c379a0000000000000000000000000000000000000000000000000000000008152600401610d3a906120ea565b60405180910390fd5b600260008373ffffffffffffffffffffffffffffffffffffffff1673ffffffffffffffffffffffffffffffffffffffff16815260200190815260200160002060009054906101000a900460ff16610e42576001600260008473ffffffffffffffffffffffffffffffffffffffff1673ffffffffffffffffffffffffffffffffffffffff16815260200190815260200160002060006101000a81548160ff0219169083151502179055507fd1bba68c128cc3f427e5831b3c6f99f480b6efa6b9e80c757768f6124158cc3f82604051610e1b919061201c565b60405180910390a1600160036000828254610e3691906121f3565b92505081905550600190505b919050565b60065481565b60058054610e5a906123e8565b80601f0160208091040260200160405190810160405280929190818152602001828054610e86906123e8565b8015610ed35780601f10610ea857610100808354040283529160200191610ed3565b820191906000526020600020905b815481529060010190602001808311610eb657829003601f168201915b505050505081565b601460009054906101000a900473ffffffffffffffffffffffffffffffffffffffff1681565b60008060009054906101000a900473ffffffffffffffffffffffffffffffffffffffff16905090565b600e6020528060005260406000206000915054906101000a900460ff1681565b60006001600084815260200190815260200160002060000160008373ffffffffffffffffffffffffffffffffffffffff1673ffffffffffffffffffffffffffffffffffffffff16815260200190815260200160002060009054906101000a900460ff16905092915050565b601160009054906101000a900473ffffffffffffffffffffffffffffffffffffffff1681565b60026020528060005260406000206000915054906101000a900460ff1681565b6000801b81565b600d602052816000526040600020818154811061101e57600080fd5b90600052602060002001600091509150505481565b61103c826108b5565b61104d8161104861144d565b611455565b61105783836115d2565b505050565b600460009054906101000a900460ff1681565b600061107961144d565b73ffffffffffffffffffffffffffffffffffffffff16611097610f01565b73ffffffffffffffffffffffffffffffffffffffff16146110ed576040517f08c379a00000000000000000000000000000000000000000000000000000000081526004016110e4906120ea565b60405180910390fd5b60005b82518110156111535761111c83828151811061110f5761110e6124f2565b5b6020026020010151610cc5565b156111405760016003600082825461113491906121f3565b92505081905550600191505b808061114b9061244b565b9150506110f0565b50919050565b6000600260008373ffffffffffffffffffffffffffffffffffffffff1673ffffffffffffffffffffffffffffffffffffffff16815260200190815260200160002060009054906101000a900460ff169050919050565b600a6020528060005260406000206000915090505481565b6111cf61144d565b73ffffffffffffffffffffffffffffffffffffffff166111ed610f01565b73ffffffffffffffffffffffffffffffffffffffff1614611243576040517f08c379a000000000000000000000000000000000000000000000000000000000815260040161123a906120ea565b60405180910390fd5b600073ffffffffffffffffffffffffffffffffffffffff168173ffffffffffffffffffffffffffffffffffffffff1614156112b3576040517f08c379a00000000000000000000000000000000000000000000000000000000081526004016112aa906120ca565b60405180910390fd5b6112bc816116b4565b50565b600860009054906101000a900473ffffffffffffffffffffffffffffffffffffffff1681565b606061130a838360405180606001604052806027815260200161276360279139611778565b905092915050565b600080823b905060008111915050919050565b6000819050919050565b565b600061133b611845565b73ffffffffffffffffffffffffffffffffffffffff16635c60da1b6040518163ffffffff1660e01b815260040160206040518083038186803b15801561138057600080fd5b505afa158015611394573d6000803e3d6000fd5b505050506040513d601f19601f820116820180604052508101906113b89190611c73565b905090565b3660008037600080366000845af43d6000803e80600081146113de573d6000f35b3d6000fd5b60007f01ffc9a7000000000000000000000000000000000000000000000000000000007bffffffffffffffffffffffffffffffffffffffffffffffffffffffff1916827bffffffffffffffffffffffffffffffffffffffffffffffffffffffff1916149050919050565b600033905090565b61145f8282610f4a565b6114ee576114848173ffffffffffffffffffffffffffffffffffffffff16601461189c565b6114928360001c602061189c565b6040516020016114a3929190611fe2565b6040516020818303038152906040526040517f08c379a00000000000000000000000000000000000000000000000000000000081526004016114e59190612088565b60405180910390fd5b5050565b6114fc8282610f4a565b6115ce57600180600084815260200190815260200160002060000160008373ffffffffffffffffffffffffffffffffffffffff1673ffffffffffffffffffffffffffffffffffffffff16815260200190815260200160002060006101000a81548160ff02191690831515021790555061157361144d565b73ffffffffffffffffffffffffffffffffffffffff168173ffffffffffffffffffffffffffffffffffffffff16837f2f8788117e7eff1d82e926ec794901d17c78024a50270940304540a733656f0d60405160405180910390a45b5050565b6115dc8282610f4a565b156116b05760006001600084815260200190815260200160002060000160008373ffffffffffffffffffffffffffffffffffffffff1673ffffffffffffffffffffffffffffffffffffffff16815260200190815260200160002060006101000a81548160ff02191690831515021790555061165561144d565b73ffffffffffffffffffffffffffffffffffffffff168173ffffffffffffffffffffffffffffffffffffffff16837ff6391f5c32d9c69d2a47ea670b442974b53935d1edc7fd64eb21e047a839171b60405160405180910390a45b5050565b60008060009054906101000a900473ffffffffffffffffffffffffffffffffffffffff169050816000806101000a81548173ffffffffffffffffffffffffffffffffffffffff021916908373ffffffffffffffffffffffffffffffffffffffff1602179055508173ffffffffffffffffffffffffffffffffffffffff168173ffffffffffffffffffffffffffffffffffffffff167f8be0079c531659141344cd1fd0a4f28419497f9722a3daafe3b4186f6b6457e060405160405180910390a35050565b606061178384611312565b6117c2576040517f08c379a00000000000000000000000000000000000000000000000000000000081526004016117b99061210a565b60405180910390fd5b6000808573ffffffffffffffffffffffffffffffffffffffff16856040516117ea9190611fcb565b600060405180830381855af49150503d8060008114611825576040519150601f19603f3d011682016040523d82523d6000602084013e61182a565b606091505b509150915061183a828286611ad8565b925050509392505050565b60006118737fa3f0ad74e5423aebfd80d3ef4346578335a9a72aeaee59ff6cb3582b35133d5060001b611325565b60000160009054906101000a900473ffffffffffffffffffffffffffffffffffffffff16905090565b6060600060028360026118af9190612249565b6118b991906121f3565b67ffffffffffffffff8111156118d2576118d1612521565b5b6040519080825280601f01601f1916602001820160405280156119045781602001600182028036833780820191505090505b5090507f30000000000000000000000000000000000000000000000000000000000000008160008151811061193c5761193b6124f2565b5b60200101907effffffffffffffffffffffffffffffffffffffffffffffffffffffffffffff1916908160001a9053507f7800000000000000000000000000000000000000000000000000000000000000816001815181106119a05761199f6124f2565b5b60200101907effffffffffffffffffffffffffffffffffffffffffffffffffffffffffffff1916908160001a905350600060018460026119e09190612249565b6119ea91906121f3565b90505b6001811115611a8a577f3031323334353637383961626364656600000000000000000000000000000000600f861660108110611a2c57611a2b6124f2565b5b1a60f81b828281518110611a4357611a426124f2565b5b60200101907effffffffffffffffffffffffffffffffffffffffffffffffffffffffffffff1916908160001a905350600485901c945080611a83906123be565b90506119ed565b5060008414611ace576040517f08c379a0000000000000000000000000000000000000000000000000000000008152600401611ac5906120aa565b60405180910390fd5b8091505092915050565b60608315611ae857829050611b38565b600083511115611afb5782518084602001fd5b816040517f08c379a0000000000000000000000000000000000000000000000000000000008152600401611b2f9190612088565b60405180910390fd5b9392505050565b6000611b52611b4d8461218a565b612165565b90508083825260208201905082856020860282011115611b7557611b74612555565b5b60005b85811015611ba55781611b8b8882611baf565b845260208401935060208301925050600181019050611b78565b5050509392505050565b600081359050611bbe81612706565b92915050565b600081519050611bd381612706565b92915050565b600082601f830112611bee57611bed612550565b5b8135611bfe848260208601611b3f565b91505092915050565b600081359050611c168161271d565b92915050565b600081359050611c2b81612734565b92915050565b600081359050611c408161274b565b92915050565b600060208284031215611c5c57611c5b61255f565b5b6000611c6a84828501611baf565b91505092915050565b600060208284031215611c8957611c8861255f565b5b6000611c9784828501611bc4565b91505092915050565b60008060408385031215611cb757611cb661255f565b5b6000611cc585828601611baf565b9250506020611cd685828601611c31565b9150509250929050565b600060208284031215611cf657611cf561255f565b5b600082013567ffffffffffffffff811115611d1457611d1361255a565b5b611d2084828501611bd9565b91505092915050565b600060208284031215611d3f57611d3e61255f565b5b6000611d4d84828501611c07565b91505092915050565b60008060408385031215611d6d57611d6c61255f565b5b6000611d7b85828601611c07565b9250506020611d8c85828601611baf565b9150509250929050565b600060208284031215611dac57611dab61255f565b5b6000611dba84828501611c1c565b91505092915050565b600060208284031215611dd957611dd861255f565b5b6000611de784828501611c31565b91505092915050565b611df9816122d7565b82525050565b611e08816122e9565b82525050565b611e17816122f5565b82525050565b6000611e28826121b6565b611e3281856121cc565b9350611e4281856020860161238b565b80840191505092915050565b611e5781612355565b82525050565b6000611e68826121c1565b611e7281856121d7565b9350611e8281856020860161238b565b611e8b81612564565b840191505092915050565b6000611ea1826121c1565b611eab81856121e8565b9350611ebb81856020860161238b565b80840191505092915050565b6000611ed46020836121d7565b9150611edf82612575565b602082019050919050565b6000611ef76026836121d7565b9150611f028261259e565b604082019050919050565b6000611f1a6020836121d7565b9150611f25826125ed565b602082019050919050565b6000611f3d6026836121d7565b9150611f4882612616565b604082019050919050565b6000611f606017836121e8565b9150611f6b82612665565b601782019050919050565b6000611f836011836121e8565b9150611f8e8261268e565b601182019050919050565b6000611fa6602f836121d7565b9150611fb1826126b7565b604082019050919050565b611fc58161234b565b82525050565b6000611fd78284611e1d565b915081905092915050565b6000611fed82611f53565b9150611ff98285611e96565b915061200482611f76565b91506120108284611e96565b91508190509392505050565b60006020820190506120316000830184611df0565b92915050565b600060208201905061204c6000830184611dff565b92915050565b60006020820190506120676000830184611e0e565b92915050565b60006020820190506120826000830184611e4e565b92915050565b600060208201905081810360008301526120a28184611e5d565b905092915050565b600060208201905081810360008301526120c381611ec7565b9050919050565b600060208201905081810360008301526120e381611eea565b9050919050565b6000602082019050818103600083015261210381611f0d565b9050919050565b6000602082019050818103600083015261212381611f30565b9050919050565b6000602082019050818103600083015261214381611f99565b9050919050565b600060208201905061215f6000830184611fbc565b92915050565b600061216f612180565b905061217b828261241a565b919050565b6000604051905090565b600067ffffffffffffffff8211156121a5576121a4612521565b5b602082029050602081019050919050565b600081519050919050565b600081519050919050565b600081905092915050565b600082825260208201905092915050565b600081905092915050565b60006121fe8261234b565b91506122098361234b565b9250827fffffffffffffffffffffffffffffffffffffffffffffffffffffffffffffffff0382111561223e5761223d612494565b5b828201905092915050565b60006122548261234b565b915061225f8361234b565b9250817fffffffffffffffffffffffffffffffffffffffffffffffffffffffffffffffff048311821515161561229857612297612494565b5b828202905092915050565b60006122ae8261234b565b91506122b98361234b565b9250828210156122cc576122cb612494565b5b828203905092915050565b60006122e28261232b565b9050919050565b60008115159050919050565b6000819050919050565b60007fffffffff0000000000000000000000000000000000000000000000000000000082169050919050565b600073ffffffffffffffffffffffffffffffffffffffff82169050919050565b6000819050919050565b600061236082612367565b9050919050565b600061237282612379565b9050919050565b60006123848261232b565b9050919050565b60005b838110156123a957808201518184015260208101905061238e565b838111156123b8576000848401525b50505050565b60006123c98261234b565b915060008214156123dd576123dc612494565b5b600182039050919050565b6000600282049050600182168061240057607f821691505b60208210811415612414576124136124c3565b5b50919050565b61242382612564565b810181811067ffffffffffffffff8211171561244257612441612521565b5b80604052505050565b60006124568261234b565b91507fffffffffffffffffffffffffffffffffffffffffffffffffffffffffffffffff82141561248957612488612494565b5b600182019050919050565b7f4e487b7100000000000000000000000000000000000000000000000000000000600052601160045260246000fd5b7f4e487b7100000000000000000000000000000000000000000000000000000000600052602260045260246000fd5b7f4e487b7100000000000000000000000000000000000000000000000000000000600052603260045260246000fd5b7f4e487b7100000000000000000000000000000000000000000000000000000000600052604160045260246000fd5b600080fd5b600080fd5b600080fd5b600080fd5b6000601f19601f8301169050919050565b7f537472696e67733a20686578206c656e67746820696e73756666696369656e74600082015250565b7f4f776e61626c653a206e6577206f776e657220697320746865207a65726f206160008201527f6464726573730000000000000000000000000000000000000000000000000000602082015250565b7f4f776e61626c653a2063616c6c6572206973206e6f7420746865206f776e6572600082015250565b7f416464726573733a2064656c65676174652063616c6c20746f206e6f6e2d636f60008201527f6e74726163740000000000000000000000000000000000000000000000000000602082015250565b7f416363657373436f6e74726f6c3a206163636f756e7420000000000000000000600082015250565b7f206973206d697373696e6720726f6c6520000000000000000000000000000000600082015250565b7f416363657373436f6e74726f6c3a2063616e206f6e6c792072656e6f756e636560008201527f20726f6c657320666f722073656c660000000000000000000000000000000000602082015250565b61270f816122d7565b811461271a57600080fd5b50565b612726816122f5565b811461273157600080fd5b50565b61273d816122ff565b811461274857600080fd5b50565b6127548161234b565b811461275f57600080fd5b5056fe416464726573733a206c6f772d6c6576656c2064656c65676174652063616c6c206661696c6564a26469706673582212207698f2a9b0f3a93e655243b517322008bafe8b48cae92d1318b7b3367c43d87d64736f6c63430008070033416464726573733a206c6f772d6c6576656c2064656c65676174652063616c6c206661696c6564",
  "linkReferences": {},
  "deployedLinkReferences": {}
}