{
  "_format": "hh-sol-artifact-1",
  "contractName": "LeagueBeaconProxy",
  "sourceName": "contracts/LeagueBeaconProxy.sol",
  "abi": [
    {
      "inputs": [
        {
          "internalType": "address",
          "name": "beacon",
          "type": "address"
        },
        {
          "internalType": "bytes",
          "name": "data",
          "type": "bytes"
        }
      ],
      "stateMutability": "payable",
      "type": "constructor"
    },
    {
      "anonymous": false,
      "inputs": [
        {
          "indexed": false,
          "internalType": "address",
          "name": "previousAdmin",
          "type": "address"
        },
        {
          "indexed": false,
          "internalType": "address",
          "name": "newAdmin",
          "type": "address"
        }
      ],
      "name": "AdminChanged",
      "type": "event"
    },
    {
      "anonymous": false,
      "inputs": [
        {
          "indexed": true,
          "internalType": "address",
          "name": "beacon",
          "type": "address"
        }
      ],
      "name": "BeaconUpgraded",
      "type": "event"
    },
    {
      "anonymous": false,
      "inputs": [
        {
          "indexed": true,
          "internalType": "address",
          "name": "previousOwner",
          "type": "address"
        },
        {
          "indexed": true,
          "internalType": "address",
          "name": "newOwner",
          "type": "address"
        }
      ],
      "name": "OwnershipTransferred",
      "type": "event"
    },
    {
      "anonymous": false,
      "inputs": [
        {
          "indexed": true,
          "internalType": "bytes32",
          "name": "role",
          "type": "bytes32"
        },
        {
          "indexed": true,
          "internalType": "bytes32",
          "name": "previousAdminRole",
          "type": "bytes32"
        },
        {
          "indexed": true,
          "internalType": "bytes32",
          "name": "newAdminRole",
          "type": "bytes32"
        }
      ],
      "name": "RoleAdminChanged",
      "type": "event"
    },
    {
      "anonymous": false,
      "inputs": [
        {
          "indexed": true,
          "internalType": "bytes32",
          "name": "role",
          "type": "bytes32"
        },
        {
          "indexed": true,
          "internalType": "address",
          "name": "account",
          "type": "address"
        },
        {
          "indexed": true,
          "internalType": "address",
          "name": "sender",
          "type": "address"
        }
      ],
      "name": "RoleGranted",
      "type": "event"
    },
    {
      "anonymous": false,
      "inputs": [
        {
          "indexed": true,
          "internalType": "bytes32",
          "name": "role",
          "type": "bytes32"
        },
        {
          "indexed": true,
          "internalType": "address",
          "name": "account",
          "type": "address"
        },
        {
          "indexed": true,
          "internalType": "address",
          "name": "sender",
          "type": "address"
        }
      ],
      "name": "RoleRevoked",
      "type": "event"
    },
    {
      "anonymous": false,
      "inputs": [
        {
          "indexed": true,
          "internalType": "address",
          "name": "implementation",
          "type": "address"
        }
      ],
      "name": "Upgraded",
      "type": "event"
    },
    {
      "anonymous": false,
      "inputs": [
        {
          "indexed": false,
          "internalType": "address",
          "name": "addr",
          "type": "address"
        }
      ],
      "name": "WhitelistedAddressAdded",
      "type": "event"
    },
    {
      "anonymous": false,
      "inputs": [
        {
          "indexed": false,
          "internalType": "address",
          "name": "addr",
          "type": "address"
        }
      ],
      "name": "WhitelistedAddressRemoved",
      "type": "event"
    },
    {
      "stateMutability": "payable",
      "type": "fallback"
    },
    {
      "inputs": [],
      "name": "DEFAULT_ADMIN_ROLE",
      "outputs": [
        {
          "internalType": "bytes32",
          "name": "",
          "type": "bytes32"
        }
      ],
      "stateMutability": "view",
      "type": "function"
    },
    {
      "inputs": [
        {
          "internalType": "address",
          "name": "addr",
          "type": "address"
        }
      ],
      "name": "addAddressToWhitelist",
      "outputs": [
        {
          "internalType": "bool",
          "name": "success",
          "type": "bool"
        }
      ],
      "stateMutability": "nonpayable",
      "type": "function"
    },
    {
      "inputs": [
        {
          "internalType": "address[]",
          "name": "addrs",
          "type": "address[]"
        }
      ],
      "name": "addAddressesToWhitelist",
      "outputs": [
        {
          "internalType": "bool",
          "name": "success",
          "type": "bool"
        }
      ],
      "stateMutability": "nonpayable",
      "type": "function"
    },
    {
      "inputs": [
        {
          "internalType": "bytes32",
          "name": "role",
          "type": "bytes32"
        }
      ],
      "name": "getRoleAdmin",
      "outputs": [
        {
          "internalType": "bytes32",
          "name": "",
          "type": "bytes32"
        }
      ],
      "stateMutability": "view",
      "type": "function"
    },
    {
      "inputs": [
        {
          "internalType": "bytes32",
          "name": "role",
          "type": "bytes32"
        },
        {
          "internalType": "address",
          "name": "account",
          "type": "address"
        }
      ],
      "name": "grantRole",
      "outputs": [],
      "stateMutability": "nonpayable",
      "type": "function"
    },
    {
      "inputs": [
        {
          "internalType": "bytes32",
          "name": "role",
          "type": "bytes32"
        },
        {
          "internalType": "address",
          "name": "account",
          "type": "address"
        }
      ],
      "name": "hasRole",
      "outputs": [
        {
          "internalType": "bool",
          "name": "",
          "type": "bool"
        }
      ],
      "stateMutability": "view",
      "type": "function"
    },
    {
      "inputs": [],
      "name": "isPublic",
      "outputs": [
        {
          "internalType": "bool",
          "name": "",
          "type": "bool"
        }
      ],
      "stateMutability": "view",
      "type": "function"
    },
    {
      "inputs": [
        {
          "internalType": "uint256",
          "name": "",
          "type": "uint256"
        }
      ],
      "name": "leagueMembers",
      "outputs": [
        {
          "internalType": "address",
          "name": "",
          "type": "address"
        }
      ],
      "stateMutability": "view",
      "type": "function"
    },
    {
      "inputs": [],
      "name": "leagueName",
      "outputs": [
        {
          "internalType": "string",
          "name": "",
          "type": "string"
        }
      ],
      "stateMutability": "view",
      "type": "function"
    },
    {
      "inputs": [],
      "name": "owner",
      "outputs": [
        {
          "internalType": "address",
          "name": "",
          "type": "address"
        }
      ],
      "stateMutability": "view",
      "type": "function"
    },
    {
      "inputs": [
        {
          "internalType": "address",
          "name": "addr",
          "type": "address"
        }
      ],
      "name": "removeAddressFromWhitelist",
      "outputs": [
        {
          "internalType": "bool",
          "name": "success",
          "type": "bool"
        }
      ],
      "stateMutability": "nonpayable",
      "type": "function"
    },
    {
      "inputs": [
        {
          "internalType": "address[]",
          "name": "addrs",
          "type": "address[]"
        }
      ],
      "name": "removeAddressesFromWhitelist",
      "outputs": [
        {
          "internalType": "bool",
          "name": "success",
          "type": "bool"
        }
      ],
      "stateMutability": "nonpayable",
      "type": "function"
    },
    {
      "inputs": [],
      "name": "renounceOwnership",
      "outputs": [],
      "stateMutability": "nonpayable",
      "type": "function"
    },
    {
      "inputs": [
        {
          "internalType": "bytes32",
          "name": "role",
          "type": "bytes32"
        },
        {
          "internalType": "address",
          "name": "account",
          "type": "address"
        }
      ],
      "name": "renounceRole",
      "outputs": [],
      "stateMutability": "nonpayable",
      "type": "function"
    },
    {
      "inputs": [
        {
          "internalType": "bytes32",
          "name": "role",
          "type": "bytes32"
        },
        {
          "internalType": "address",
          "name": "account",
          "type": "address"
        }
      ],
      "name": "revokeRole",
      "outputs": [],
      "stateMutability": "nonpayable",
      "type": "function"
    },
    {
      "inputs": [],
      "name": "stakeAmount",
      "outputs": [
        {
          "internalType": "uint256",
          "name": "",
          "type": "uint256"
        }
      ],
      "stateMutability": "view",
      "type": "function"
    },
    {
      "inputs": [
        {
          "internalType": "bytes4",
          "name": "interfaceId",
          "type": "bytes4"
        }
      ],
      "name": "supportsInterface",
      "outputs": [
        {
          "internalType": "bool",
          "name": "",
          "type": "bool"
        }
      ],
      "stateMutability": "view",
      "type": "function"
    },
    {
      "inputs": [
        {
          "internalType": "address",
          "name": "newOwner",
          "type": "address"
        }
      ],
      "name": "transferOwnership",
      "outputs": [],
      "stateMutability": "nonpayable",
      "type": "function"
    },
    {
      "inputs": [],
      "name": "version",
      "outputs": [
        {
          "internalType": "uint256",
          "name": "",
          "type": "uint256"
        }
      ],
      "stateMutability": "view",
      "type": "function"
    },
    {
      "inputs": [
        {
          "internalType": "address",
          "name": "",
          "type": "address"
        }
      ],
      "name": "whitelist",
      "outputs": [
        {
          "internalType": "bool",
          "name": "",
          "type": "bool"
        }
      ],
      "stateMutability": "view",
      "type": "function"
    },
    {
      "stateMutability": "payable",
      "type": "receive"
    }
  ],
  "bytecode": "0x608060405260405162002ef838038062002ef88339818101604052810190620000299190620006bb565b620000496200003d620000cf60201b60201c565b620000d760201b60201c565b60017fa3f0ad74e5423aebfd80d3ef4346578335a9a72aeaee59ff6cb3582b35133d5160001c6200007b919062000942565b60001b7fa3f0ad74e5423aebfd80d3ef4346578335a9a72aeaee59ff6cb3582b35133d5060001b14620000b357620000b262000a27565b5b620000c7828260006200019b60201b60201c565b505062000be0565b600033905090565b60008060009054906101000a900473ffffffffffffffffffffffffffffffffffffffff169050816000806101000a81548173ffffffffffffffffffffffffffffffffffffffff021916908373ffffffffffffffffffffffffffffffffffffffff1602179055508173ffffffffffffffffffffffffffffffffffffffff168173ffffffffffffffffffffffffffffffffffffffff167f8be0079c531659141344cd1fd0a4f28419497f9722a3daafe3b4186f6b6457e060405160405180910390a35050565b620001ac83620002a260201b60201c565b8273ffffffffffffffffffffffffffffffffffffffff167f1cf3b03a6cf19fa2baba4df148e9dcabedea7f8a5c07840e207e5c089be95d3e60405160405180910390a2600082511180620001fd5750805b156200029d576200029b8373ffffffffffffffffffffffffffffffffffffffff16635c60da1b6040518163ffffffff1660e01b815260040160206040518083038186803b1580156200024e57600080fd5b505afa15801562000263573d6000803e3d6000fd5b505050506040513d601f19601f8201168201806040525081019062000289919062000689565b836200045160201b62000ea71760201c565b505b505050565b620002b8816200048760201b62000ed41760201c565b620002fa576040517f08c379a0000000000000000000000000000000000000000000000000000000008152600401620002f1906200084b565b60405180910390fd5b620003918173ffffffffffffffffffffffffffffffffffffffff16635c60da1b6040518163ffffffff1660e01b815260040160206040518083038186803b1580156200034557600080fd5b505afa1580156200035a573d6000803e3d6000fd5b505050506040513d601f19601f8201168201806040525081019062000380919062000689565b6200048760201b62000ed41760201c565b620003d3576040517f08c379a0000000000000000000000000000000000000000000000000000000008152600401620003ca906200088f565b60405180910390fd5b806200040d7fa3f0ad74e5423aebfd80d3ef4346578335a9a72aeaee59ff6cb3582b35133d5060001b6200049a60201b62000ee71760201c565b60000160006101000a81548173ffffffffffffffffffffffffffffffffffffffff021916908373ffffffffffffffffffffffffffffffffffffffff16021790555050565b60606200047f838360405180606001604052806027815260200162002ed160279139620004a460201b60201c565b905092915050565b600080823b905060008111915050919050565b6000819050919050565b6060620004b7846200048760201b60201c565b620004f9576040517f08c379a0000000000000000000000000000000000000000000000000000000008152600401620004f0906200086d565b60405180910390fd5b6000808573ffffffffffffffffffffffffffffffffffffffff16856040516200052391906200080e565b600060405180830381855af49150503d806000811462000560576040519150601f19603f3d011682016040523d82523d6000602084013e62000565565b606091505b50915091506200057d8282866200058860201b60201c565b925050509392505050565b606083156200059a57829050620005ed565b600083511115620005ae5782518084602001fd5b816040517f08c379a0000000000000000000000000000000000000000000000000000000008152600401620005e4919062000827565b60405180910390fd5b9392505050565b60006200060b6200060584620008da565b620008b1565b9050828152602081018484840111156200062a576200062962000ab9565b5b62000637848285620009bb565b509392505050565b600081519050620006508162000bc6565b92915050565b600082601f8301126200066e576200066d62000ab4565b5b815162000680848260208601620005f4565b91505092915050565b600060208284031215620006a257620006a162000ac3565b5b6000620006b2848285016200063f565b91505092915050565b60008060408385031215620006d557620006d462000ac3565b5b6000620006e5858286016200063f565b925050602083015167ffffffffffffffff81111562000709576200070862000abe565b5b620007178582860162000656565b9150509250929050565b60006200072e8262000910565b6200073a818562000926565b93506200074c818560208601620009bb565b80840191505092915050565b600062000765826200091b565b62000771818562000931565b935062000783818560208601620009bb565b6200078e8162000ac8565b840191505092915050565b6000620007a860258362000931565b9150620007b58262000ad9565b604082019050919050565b6000620007cf60268362000931565b9150620007dc8262000b28565b604082019050919050565b6000620007f660308362000931565b9150620008038262000b77565b604082019050919050565b60006200081c828462000721565b915081905092915050565b6000602082019050818103600083015262000843818462000758565b905092915050565b60006020820190508181036000830152620008668162000799565b9050919050565b600060208201905081810360008301526200088881620007c0565b9050919050565b60006020820190508181036000830152620008aa81620007e7565b9050919050565b6000620008bd620008d0565b9050620008cb8282620009f1565b919050565b6000604051905090565b600067ffffffffffffffff821115620008f857620008f762000a85565b5b620009038262000ac8565b9050602081019050919050565b600081519050919050565b600081519050919050565b600081905092915050565b600082825260208201905092915050565b60006200094f82620009b1565b91506200095c83620009b1565b92508282101562000972576200097162000a56565b5b828203905092915050565b60006200098a8262000991565b9050919050565b600073ffffffffffffffffffffffffffffffffffffffff82169050919050565b6000819050919050565b60005b83811015620009db578082015181840152602081019050620009be565b83811115620009eb576000848401525b50505050565b620009fc8262000ac8565b810181811067ffffffffffffffff8211171562000a1e5762000a1d62000a85565b5b80604052505050565b7f4e487b7100000000000000000000000000000000000000000000000000000000600052600160045260246000fd5b7f4e487b7100000000000000000000000000000000000000000000000000000000600052601160045260246000fd5b7f4e487b7100000000000000000000000000000000000000000000000000000000600052604160045260246000fd5b600080fd5b600080fd5b600080fd5b600080fd5b6000601f19601f8301169050919050565b7f455243313936373a206e657720626561636f6e206973206e6f74206120636f6e60008201527f7472616374000000000000000000000000000000000000000000000000000000602082015250565b7f416464726573733a2064656c65676174652063616c6c20746f206e6f6e2d636f60008201527f6e74726163740000000000000000000000000000000000000000000000000000602082015250565b7f455243313936373a20626561636f6e20696d706c656d656e746174696f6e206960008201527f73206e6f74206120636f6e747261637400000000000000000000000000000000602082015250565b62000bd1816200097d565b811462000bdd57600080fd5b50565b6122e18062000bf06000396000f3fe6080604052600436106101235760003560e01c80637b9417c8116100a0578063a217fddf11610064578063a217fddf14610439578063d547741f14610464578063dc9a15351461048d578063e2ec6ec3146104b8578063f2fde38b146104f557610132565b80637b9417c81461032c578063841abf6e146103695780638da5cb5b1461039457806391d14854146103bf5780639b19251a146103fc57610132565b80632f2ff15d116100e75780632f2ff15d1461026d57806336568abe1461029657806354fd4d50146102bf57806360c7dc47146102ea578063715018a61461031557610132565b806301ffc9a71461013c578063248a9ca31461017957806324953eaa146101b6578063267175db146101f3578063286dd3f51461023057610132565b366101325761013061051e565b005b61013a61051e565b005b34801561014857600080fd5b50610163600480360381019061015e9190611918565b610538565b6040516101709190611baa565b60405180910390f35b34801561018557600080fd5b506101a0600480360381019061019b91906118ab565b6105b2565b6040516101ad9190611bc5565b60405180910390f35b3480156101c257600080fd5b506101dd60048036038101906101d89190611862565b6105d2565b6040516101ea9190611baa565b60405180910390f35b3480156101ff57600080fd5b5061021a60048036038101906102159190611945565b6106bc565b6040516102279190611b8f565b60405180910390f35b34801561023c57600080fd5b5061025760048036038101906102529190611808565b6106fb565b6040516102649190611baa565b60405180910390f35b34801561027957600080fd5b50610294600480360381019061028f91906118d8565b61087e565b005b3480156102a257600080fd5b506102bd60048036038101906102b891906118d8565b6108a7565b005b3480156102cb57600080fd5b506102d461092a565b6040516102e19190611ca2565b60405180910390f35b3480156102f657600080fd5b506102ff610930565b60405161030c9190611ca2565b60405180910390f35b34801561032157600080fd5b5061032a610936565b005b34801561033857600080fd5b50610353600480360381019061034e9190611808565b6109be565b6040516103609190611baa565b60405180910390f35b34801561037557600080fd5b5061037e610b40565b60405161038b9190611be0565b60405180910390f35b3480156103a057600080fd5b506103a9610bce565b6040516103b69190611b8f565b60405180910390f35b3480156103cb57600080fd5b506103e660048036038101906103e191906118d8565b610bf7565b6040516103f39190611baa565b60405180910390f35b34801561040857600080fd5b50610423600480360381019061041e9190611808565b610c62565b6040516104309190611baa565b60405180910390f35b34801561044557600080fd5b5061044e610c82565b60405161045b9190611bc5565b60405180910390f35b34801561047057600080fd5b5061048b600480360381019061048691906118d8565b610c89565b005b34801561049957600080fd5b506104a2610cb2565b6040516104af9190611baa565b60405180910390f35b3480156104c457600080fd5b506104df60048036038101906104da9190611862565b610cc5565b6040516104ec9190611baa565b60405180910390f35b34801561050157600080fd5b5061051c60048036038101906105179190611808565b610daf565b005b610526610ef1565b610536610531610ef3565b610f7f565b565b60007f7965db0b000000000000000000000000000000000000000000000000000000007bffffffffffffffffffffffffffffffffffffffffffffffffffffffff1916827bffffffffffffffffffffffffffffffffffffffffffffffffffffffff191614806105ab57506105aa82610fa5565b5b9050919050565b600060016000838152602001908152602001600020600101549050919050565b60006105dc61100f565b73ffffffffffffffffffffffffffffffffffffffff166105fa610bce565b73ffffffffffffffffffffffffffffffffffffffff1614610650576040517f08c379a000000000000000000000000000000000000000000000000000000000815260040161064790611c42565b60405180910390fd5b60005b82518110156106b65761067f83828151811061067257610671612014565b5b60200260200101516106fb565b156106a3576001600360008282546106979190611dfb565b92505081905550600191505b80806106ae90611f6d565b915050610653565b50919050565b600781815481106106cc57600080fd5b906000526020600020016000915054906101000a900473ffffffffffffffffffffffffffffffffffffffff1681565b600061070561100f565b73ffffffffffffffffffffffffffffffffffffffff16610723610bce565b73ffffffffffffffffffffffffffffffffffffffff1614610779576040517f08c379a000000000000000000000000000000000000000000000000000000000815260040161077090611c42565b60405180910390fd5b600260008373ffffffffffffffffffffffffffffffffffffffff1673ffffffffffffffffffffffffffffffffffffffff16815260200190815260200160002060009054906101000a900460ff1615610879576000600260008473ffffffffffffffffffffffffffffffffffffffff1673ffffffffffffffffffffffffffffffffffffffff16815260200190815260200160002060006101000a81548160ff0219169083151502179055507ff1abf01a1043b7c244d128e8595cf0c1d10743b022b03a02dffd8ca3bf729f5a826040516108529190611b8f565b60405180910390a160016003600082825461086d9190611dfb565b92505081905550600190505b919050565b610887826105b2565b6108988161089361100f565b611017565b6108a283836110b4565b505050565b6108af61100f565b73ffffffffffffffffffffffffffffffffffffffff168173ffffffffffffffffffffffffffffffffffffffff161461091c576040517f08c379a000000000000000000000000000000000000000000000000000000000815260040161091390611c82565b60405180910390fd5b6109268282611194565b5050565b60055481565b600b5481565b61093e61100f565b73ffffffffffffffffffffffffffffffffffffffff1661095c610bce565b73ffffffffffffffffffffffffffffffffffffffff16146109b2576040517f08c379a00000000000000000000000000000000000000000000000000000000081526004016109a990611c42565b60405180910390fd5b6109bc6000611276565b565b60006109c861100f565b73ffffffffffffffffffffffffffffffffffffffff166109e6610bce565b73ffffffffffffffffffffffffffffffffffffffff1614610a3c576040517f08c379a0000000000000000000000000000000000000000000000000000000008152600401610a3390611c42565b60405180910390fd5b600260008373ffffffffffffffffffffffffffffffffffffffff1673ffffffffffffffffffffffffffffffffffffffff16815260200190815260200160002060009054906101000a900460ff16610b3b576001600260008473ffffffffffffffffffffffffffffffffffffffff1673ffffffffffffffffffffffffffffffffffffffff16815260200190815260200160002060006101000a81548160ff0219169083151502179055507fd1bba68c128cc3f427e5831b3c6f99f480b6efa6b9e80c757768f6124158cc3f82604051610b149190611b8f565b60405180910390a1600160036000828254610b2f9190611d4b565b92505081905550600190505b919050565b60068054610b4d90611f0a565b80601f0160208091040260200160405190810160405280929190818152602001828054610b7990611f0a565b8015610bc65780601f10610b9b57610100808354040283529160200191610bc6565b820191906000526020600020905b815481529060010190602001808311610ba957829003601f168201915b505050505081565b60008060009054906101000a900473ffffffffffffffffffffffffffffffffffffffff16905090565b60006001600084815260200190815260200160002060000160008373ffffffffffffffffffffffffffffffffffffffff1673ffffffffffffffffffffffffffffffffffffffff16815260200190815260200160002060009054906101000a900460ff16905092915050565b60026020528060005260406000206000915054906101000a900460ff1681565b6000801b81565b610c92826105b2565b610ca381610c9e61100f565b611017565b610cad8383611194565b505050565b600460009054906101000a900460ff1681565b6000610ccf61100f565b73ffffffffffffffffffffffffffffffffffffffff16610ced610bce565b73ffffffffffffffffffffffffffffffffffffffff1614610d43576040517f08c379a0000000000000000000000000000000000000000000000000000000008152600401610d3a90611c42565b60405180910390fd5b60005b8251811015610da957610d72838281518110610d6557610d64612014565b5b60200260200101516109be565b15610d9657600160036000828254610d8a9190611d4b565b92505081905550600191505b8080610da190611f6d565b915050610d46565b50919050565b610db761100f565b73ffffffffffffffffffffffffffffffffffffffff16610dd5610bce565b73ffffffffffffffffffffffffffffffffffffffff1614610e2b576040517f08c379a0000000000000000000000000000000000000000000000000000000008152600401610e2290611c42565b60405180910390fd5b600073ffffffffffffffffffffffffffffffffffffffff168173ffffffffffffffffffffffffffffffffffffffff161415610e9b576040517f08c379a0000000000000000000000000000000000000000000000000000000008152600401610e9290611c22565b60405180910390fd5b610ea481611276565b50565b6060610ecc83836040518060600160405280602781526020016122856027913961133a565b905092915050565b600080823b905060008111915050919050565b6000819050919050565b565b6000610efd611407565b73ffffffffffffffffffffffffffffffffffffffff16635c60da1b6040518163ffffffff1660e01b815260040160206040518083038186803b158015610f4257600080fd5b505afa158015610f56573d6000803e3d6000fd5b505050506040513d601f19601f82011682018060405250810190610f7a9190611835565b905090565b3660008037600080366000845af43d6000803e8060008114610fa0573d6000f35b3d6000fd5b60007f01ffc9a7000000000000000000000000000000000000000000000000000000007bffffffffffffffffffffffffffffffffffffffffffffffffffffffff1916827bffffffffffffffffffffffffffffffffffffffffffffffffffffffff1916149050919050565b600033905090565b6110218282610bf7565b6110b0576110468173ffffffffffffffffffffffffffffffffffffffff16601461145e565b6110548360001c602061145e565b604051602001611065929190611b55565b6040516020818303038152906040526040517f08c379a00000000000000000000000000000000000000000000000000000000081526004016110a79190611be0565b60405180910390fd5b5050565b6110be8282610bf7565b61119057600180600084815260200190815260200160002060000160008373ffffffffffffffffffffffffffffffffffffffff1673ffffffffffffffffffffffffffffffffffffffff16815260200190815260200160002060006101000a81548160ff02191690831515021790555061113561100f565b73ffffffffffffffffffffffffffffffffffffffff168173ffffffffffffffffffffffffffffffffffffffff16837f2f8788117e7eff1d82e926ec794901d17c78024a50270940304540a733656f0d60405160405180910390a45b5050565b61119e8282610bf7565b156112725760006001600084815260200190815260200160002060000160008373ffffffffffffffffffffffffffffffffffffffff1673ffffffffffffffffffffffffffffffffffffffff16815260200190815260200160002060006101000a81548160ff02191690831515021790555061121761100f565b73ffffffffffffffffffffffffffffffffffffffff168173ffffffffffffffffffffffffffffffffffffffff16837ff6391f5c32d9c69d2a47ea670b442974b53935d1edc7fd64eb21e047a839171b60405160405180910390a45b5050565b60008060009054906101000a900473ffffffffffffffffffffffffffffffffffffffff169050816000806101000a81548173ffffffffffffffffffffffffffffffffffffffff021916908373ffffffffffffffffffffffffffffffffffffffff1602179055508173ffffffffffffffffffffffffffffffffffffffff168173ffffffffffffffffffffffffffffffffffffffff167f8be0079c531659141344cd1fd0a4f28419497f9722a3daafe3b4186f6b6457e060405160405180910390a35050565b606061134584610ed4565b611384576040517f08c379a000000000000000000000000000000000000000000000000000000000815260040161137b90611c62565b60405180910390fd5b6000808573ffffffffffffffffffffffffffffffffffffffff16856040516113ac9190611b3e565b600060405180830381855af49150503d80600081146113e7576040519150601f19603f3d011682016040523d82523d6000602084013e6113ec565b606091505b50915091506113fc82828661169a565b925050509392505050565b60006114357fa3f0ad74e5423aebfd80d3ef4346578335a9a72aeaee59ff6cb3582b35133d5060001b610ee7565b60000160009054906101000a900473ffffffffffffffffffffffffffffffffffffffff16905090565b6060600060028360026114719190611da1565b61147b9190611d4b565b67ffffffffffffffff81111561149457611493612043565b5b6040519080825280601f01601f1916602001820160405280156114c65781602001600182028036833780820191505090505b5090507f3000000000000000000000000000000000000000000000000000000000000000816000815181106114fe576114fd612014565b5b60200101907effffffffffffffffffffffffffffffffffffffffffffffffffffffffffffff1916908160001a9053507f78000000000000000000000000000000000000000000000000000000000000008160018151811061156257611561612014565b5b60200101907effffffffffffffffffffffffffffffffffffffffffffffffffffffffffffff1916908160001a905350600060018460026115a29190611da1565b6115ac9190611d4b565b90505b600181111561164c577f3031323334353637383961626364656600000000000000000000000000000000600f8616601081106115ee576115ed612014565b5b1a60f81b82828151811061160557611604612014565b5b60200101907effffffffffffffffffffffffffffffffffffffffffffffffffffffffffffff1916908160001a905350600485901c94508061164590611ee0565b90506115af565b5060008414611690576040517f08c379a000000000000000000000000000000000000000000000000000000000815260040161168790611c02565b60405180910390fd5b8091505092915050565b606083156116aa578290506116fa565b6000835111156116bd5782518084602001fd5b816040517f08c379a00000000000000000000000000000000000000000000000000000000081526004016116f19190611be0565b60405180910390fd5b9392505050565b600061171461170f84611ce2565b611cbd565b9050808382526020820190508285602086028201111561173757611736612077565b5b60005b85811015611767578161174d8882611771565b84526020840193506020830192505060018101905061173a565b5050509392505050565b60008135905061178081612228565b92915050565b60008151905061179581612228565b92915050565b600082601f8301126117b0576117af612072565b5b81356117c0848260208601611701565b91505092915050565b6000813590506117d88161223f565b92915050565b6000813590506117ed81612256565b92915050565b6000813590506118028161226d565b92915050565b60006020828403121561181e5761181d612081565b5b600061182c84828501611771565b91505092915050565b60006020828403121561184b5761184a612081565b5b600061185984828501611786565b91505092915050565b60006020828403121561187857611877612081565b5b600082013567ffffffffffffffff8111156118965761189561207c565b5b6118a28482850161179b565b91505092915050565b6000602082840312156118c1576118c0612081565b5b60006118cf848285016117c9565b91505092915050565b600080604083850312156118ef576118ee612081565b5b60006118fd858286016117c9565b925050602061190e85828601611771565b9150509250929050565b60006020828403121561192e5761192d612081565b5b600061193c848285016117de565b91505092915050565b60006020828403121561195b5761195a612081565b5b6000611969848285016117f3565b91505092915050565b61197b81611e2f565b82525050565b61198a81611e41565b82525050565b61199981611e4d565b82525050565b60006119aa82611d0e565b6119b48185611d24565b93506119c4818560208601611ead565b80840191505092915050565b60006119db82611d19565b6119e58185611d2f565b93506119f5818560208601611ead565b6119fe81612086565b840191505092915050565b6000611a1482611d19565b611a1e8185611d40565b9350611a2e818560208601611ead565b80840191505092915050565b6000611a47602083611d2f565b9150611a5282612097565b602082019050919050565b6000611a6a602683611d2f565b9150611a75826120c0565b604082019050919050565b6000611a8d602083611d2f565b9150611a988261210f565b602082019050919050565b6000611ab0602683611d2f565b9150611abb82612138565b604082019050919050565b6000611ad3601783611d40565b9150611ade82612187565b601782019050919050565b6000611af6601183611d40565b9150611b01826121b0565b601182019050919050565b6000611b19602f83611d2f565b9150611b24826121d9565b604082019050919050565b611b3881611ea3565b82525050565b6000611b4a828461199f565b915081905092915050565b6000611b6082611ac6565b9150611b6c8285611a09565b9150611b7782611ae9565b9150611b838284611a09565b91508190509392505050565b6000602082019050611ba46000830184611972565b92915050565b6000602082019050611bbf6000830184611981565b92915050565b6000602082019050611bda6000830184611990565b92915050565b60006020820190508181036000830152611bfa81846119d0565b905092915050565b60006020820190508181036000830152611c1b81611a3a565b9050919050565b60006020820190508181036000830152611c3b81611a5d565b9050919050565b60006020820190508181036000830152611c5b81611a80565b9050919050565b60006020820190508181036000830152611c7b81611aa3565b9050919050565b60006020820190508181036000830152611c9b81611b0c565b9050919050565b6000602082019050611cb76000830184611b2f565b92915050565b6000611cc7611cd8565b9050611cd38282611f3c565b919050565b6000604051905090565b600067ffffffffffffffff821115611cfd57611cfc612043565b5b602082029050602081019050919050565b600081519050919050565b600081519050919050565b600081905092915050565b600082825260208201905092915050565b600081905092915050565b6000611d5682611ea3565b9150611d6183611ea3565b9250827fffffffffffffffffffffffffffffffffffffffffffffffffffffffffffffffff03821115611d9657611d95611fb6565b5b828201905092915050565b6000611dac82611ea3565b9150611db783611ea3565b9250817fffffffffffffffffffffffffffffffffffffffffffffffffffffffffffffffff0483118215151615611df057611def611fb6565b5b828202905092915050565b6000611e0682611ea3565b9150611e1183611ea3565b925082821015611e2457611e23611fb6565b5b828203905092915050565b6000611e3a82611e83565b9050919050565b60008115159050919050565b6000819050919050565b60007fffffffff0000000000000000000000000000000000000000000000000000000082169050919050565b600073ffffffffffffffffffffffffffffffffffffffff82169050919050565b6000819050919050565b60005b83811015611ecb578082015181840152602081019050611eb0565b83811115611eda576000848401525b50505050565b6000611eeb82611ea3565b91506000821415611eff57611efe611fb6565b5b600182039050919050565b60006002820490506001821680611f2257607f821691505b60208210811415611f3657611f35611fe5565b5b50919050565b611f4582612086565b810181811067ffffffffffffffff82111715611f6457611f63612043565b5b80604052505050565b6000611f7882611ea3565b91507fffffffffffffffffffffffffffffffffffffffffffffffffffffffffffffffff821415611fab57611faa611fb6565b5b600182019050919050565b7f4e487b7100000000000000000000000000000000000000000000000000000000600052601160045260246000fd5b7f4e487b7100000000000000000000000000000000000000000000000000000000600052602260045260246000fd5b7f4e487b7100000000000000000000000000000000000000000000000000000000600052603260045260246000fd5b7f4e487b7100000000000000000000000000000000000000000000000000000000600052604160045260246000fd5b600080fd5b600080fd5b600080fd5b600080fd5b6000601f19601f8301169050919050565b7f537472696e67733a20686578206c656e67746820696e73756666696369656e74600082015250565b7f4f776e61626c653a206e6577206f776e657220697320746865207a65726f206160008201527f6464726573730000000000000000000000000000000000000000000000000000602082015250565b7f4f776e61626c653a2063616c6c6572206973206e6f7420746865206f776e6572600082015250565b7f416464726573733a2064656c65676174652063616c6c20746f206e6f6e2d636f60008201527f6e74726163740000000000000000000000000000000000000000000000000000602082015250565b7f416363657373436f6e74726f6c3a206163636f756e7420000000000000000000600082015250565b7f206973206d697373696e6720726f6c6520000000000000000000000000000000600082015250565b7f416363657373436f6e74726f6c3a2063616e206f6e6c792072656e6f756e636560008201527f20726f6c657320666f722073656c660000000000000000000000000000000000602082015250565b61223181611e2f565b811461223c57600080fd5b50565b61224881611e4d565b811461225357600080fd5b50565b61225f81611e57565b811461226a57600080fd5b50565b61227681611ea3565b811461228157600080fd5b5056fe416464726573733a206c6f772d6c6576656c2064656c65676174652063616c6c206661696c6564a264697066735822122036ebe09892242d5a56da9b7e7424328fce216f68c70adbd20c797f728669cbfc64736f6c63430008070033416464726573733a206c6f772d6c6576656c2064656c65676174652063616c6c206661696c6564",
  "linkReferences": {},
  "deployedLinkReferences": {}
}