{
  "_format": "hh-sol-artifact-1",
  "contractName": "LeagueBeaconProxy",
  "sourceName": "contracts/LeagueBeaconProxy.sol",
  "abi": [
    {
      "inputs": [
        {
          "internalType": "address",
          "name": "beacon",
          "type": "address"
        },
        {
          "internalType": "bytes",
          "name": "data",
          "type": "bytes"
        }
      ],
      "stateMutability": "payable",
      "type": "constructor"
    },
    {
      "anonymous": false,
      "inputs": [
        {
          "indexed": false,
          "internalType": "address",
          "name": "previousAdmin",
          "type": "address"
        },
        {
          "indexed": false,
          "internalType": "address",
          "name": "newAdmin",
          "type": "address"
        }
      ],
      "name": "AdminChanged",
      "type": "event"
    },
    {
      "anonymous": false,
      "inputs": [
        {
          "indexed": true,
          "internalType": "address",
          "name": "beacon",
          "type": "address"
        }
      ],
      "name": "BeaconUpgraded",
      "type": "event"
    },
    {
      "anonymous": false,
      "inputs": [
        {
          "indexed": true,
          "internalType": "address",
          "name": "previousOwner",
          "type": "address"
        },
        {
          "indexed": true,
          "internalType": "address",
          "name": "newOwner",
          "type": "address"
        }
      ],
      "name": "OwnershipTransferred",
      "type": "event"
    },
    {
      "anonymous": false,
      "inputs": [
        {
          "indexed": true,
          "internalType": "bytes32",
          "name": "role",
          "type": "bytes32"
        },
        {
          "indexed": true,
          "internalType": "bytes32",
          "name": "previousAdminRole",
          "type": "bytes32"
        },
        {
          "indexed": true,
          "internalType": "bytes32",
          "name": "newAdminRole",
          "type": "bytes32"
        }
      ],
      "name": "RoleAdminChanged",
      "type": "event"
    },
    {
      "anonymous": false,
      "inputs": [
        {
          "indexed": true,
          "internalType": "bytes32",
          "name": "role",
          "type": "bytes32"
        },
        {
          "indexed": true,
          "internalType": "address",
          "name": "account",
          "type": "address"
        },
        {
          "indexed": true,
          "internalType": "address",
          "name": "sender",
          "type": "address"
        }
      ],
      "name": "RoleGranted",
      "type": "event"
    },
    {
      "anonymous": false,
      "inputs": [
        {
          "indexed": true,
          "internalType": "bytes32",
          "name": "role",
          "type": "bytes32"
        },
        {
          "indexed": true,
          "internalType": "address",
          "name": "account",
          "type": "address"
        },
        {
          "indexed": true,
          "internalType": "address",
          "name": "sender",
          "type": "address"
        }
      ],
      "name": "RoleRevoked",
      "type": "event"
    },
    {
      "anonymous": false,
      "inputs": [
        {
          "indexed": false,
          "internalType": "address",
          "name": "sender",
          "type": "address"
        },
        {
          "indexed": false,
          "internalType": "uint256",
          "name": "amount",
          "type": "uint256"
        }
      ],
      "name": "Staked",
      "type": "event"
    },
    {
      "anonymous": false,
      "inputs": [
        {
          "indexed": true,
          "internalType": "address",
          "name": "implementation",
          "type": "address"
        }
      ],
      "name": "Upgraded",
      "type": "event"
    },
    {
      "anonymous": false,
      "inputs": [
        {
          "indexed": false,
          "internalType": "address",
          "name": "addr",
          "type": "address"
        }
      ],
      "name": "WhitelistedAddressAdded",
      "type": "event"
    },
    {
      "anonymous": false,
      "inputs": [
        {
          "indexed": false,
          "internalType": "address",
          "name": "addr",
          "type": "address"
        }
      ],
      "name": "WhitelistedAddressRemoved",
      "type": "event"
    },
    {
      "anonymous": false,
      "inputs": [
        {
          "indexed": false,
          "internalType": "address",
          "name": "sender",
          "type": "address"
        },
        {
          "indexed": false,
          "internalType": "address",
          "name": "contractAddress",
          "type": "address"
        }
      ],
      "name": "testUSDCDeployed",
      "type": "event"
    },
    {
      "stateMutability": "payable",
      "type": "fallback"
    },
    {
      "inputs": [],
      "name": "DEFAULT_ADMIN_ROLE",
      "outputs": [
        {
          "internalType": "bytes32",
          "name": "",
          "type": "bytes32"
        }
      ],
      "stateMutability": "view",
      "type": "function"
    },
    {
      "inputs": [
        {
          "internalType": "address",
          "name": "addr",
          "type": "address"
        }
      ],
      "name": "addAddressToWhitelist",
      "outputs": [
        {
          "internalType": "bool",
          "name": "success",
          "type": "bool"
        }
      ],
      "stateMutability": "nonpayable",
      "type": "function"
    },
    {
      "inputs": [
        {
          "internalType": "address[]",
          "name": "addrs",
          "type": "address[]"
        }
      ],
      "name": "addAddressesToWhitelist",
      "outputs": [
        {
          "internalType": "bool",
          "name": "success",
          "type": "bool"
        }
      ],
      "stateMutability": "nonpayable",
      "type": "function"
    },
    {
      "inputs": [],
      "name": "admin",
      "outputs": [
        {
          "internalType": "address",
          "name": "",
          "type": "address"
        }
      ],
      "stateMutability": "view",
      "type": "function"
    },
    {
      "inputs": [],
      "name": "getNumWhitelisted",
      "outputs": [
        {
          "internalType": "uint256",
          "name": "",
          "type": "uint256"
        }
      ],
      "stateMutability": "view",
      "type": "function"
    },
    {
      "inputs": [
        {
          "internalType": "bytes32",
          "name": "role",
          "type": "bytes32"
        }
      ],
      "name": "getRoleAdmin",
      "outputs": [
        {
          "internalType": "bytes32",
          "name": "",
          "type": "bytes32"
        }
      ],
      "stateMutability": "view",
      "type": "function"
    },
    {
      "inputs": [
        {
          "internalType": "address",
          "name": "_user",
          "type": "address"
        }
      ],
      "name": "getUserIsWhitelisted",
      "outputs": [
        {
          "internalType": "bool",
          "name": "",
          "type": "bool"
        }
      ],
      "stateMutability": "view",
      "type": "function"
    },
    {
      "inputs": [
        {
          "internalType": "bytes32",
          "name": "role",
          "type": "bytes32"
        },
        {
          "internalType": "address",
          "name": "account",
          "type": "address"
        }
      ],
      "name": "grantRole",
      "outputs": [],
      "stateMutability": "nonpayable",
      "type": "function"
    },
    {
      "inputs": [
        {
          "internalType": "bytes32",
          "name": "role",
          "type": "bytes32"
        },
        {
          "internalType": "address",
          "name": "account",
          "type": "address"
        }
      ],
      "name": "hasRole",
      "outputs": [
        {
          "internalType": "bool",
          "name": "",
          "type": "bool"
        }
      ],
      "stateMutability": "view",
      "type": "function"
    },
    {
      "inputs": [
        {
          "internalType": "address",
          "name": "",
          "type": "address"
        }
      ],
      "name": "inLeague",
      "outputs": [
        {
          "internalType": "bool",
          "name": "",
          "type": "bool"
        }
      ],
      "stateMutability": "view",
      "type": "function"
    },
    {
      "inputs": [],
      "name": "isPublic",
      "outputs": [
        {
          "internalType": "bool",
          "name": "",
          "type": "bool"
        }
      ],
      "stateMutability": "view",
      "type": "function"
    },
    {
      "inputs": [
        {
          "internalType": "uint256",
          "name": "",
          "type": "uint256"
        }
      ],
      "name": "leagueMembers",
      "outputs": [
        {
          "internalType": "address",
          "name": "",
          "type": "address"
        }
      ],
      "stateMutability": "view",
      "type": "function"
    },
    {
      "inputs": [],
      "name": "leagueName",
      "outputs": [
        {
          "internalType": "string",
          "name": "",
          "type": "string"
        }
      ],
      "stateMutability": "view",
      "type": "function"
    },
    {
      "inputs": [],
      "name": "numWeeks",
      "outputs": [
        {
          "internalType": "uint256",
          "name": "",
          "type": "uint256"
        }
      ],
      "stateMutability": "view",
      "type": "function"
    },
    {
      "inputs": [],
      "name": "owner",
      "outputs": [
        {
          "internalType": "address",
          "name": "",
          "type": "address"
        }
      ],
      "stateMutability": "view",
      "type": "function"
    },
    {
      "inputs": [],
      "name": "polygonUSDCAddress",
      "outputs": [
        {
          "internalType": "address",
          "name": "",
          "type": "address"
        }
      ],
      "stateMutability": "view",
      "type": "function"
    },
    {
      "inputs": [
        {
          "internalType": "address",
          "name": "addr",
          "type": "address"
        }
      ],
      "name": "removeAddressFromWhitelist",
      "outputs": [
        {
          "internalType": "bool",
          "name": "success",
          "type": "bool"
        }
      ],
      "stateMutability": "nonpayable",
      "type": "function"
    },
    {
      "inputs": [
        {
          "internalType": "address[]",
          "name": "addrs",
          "type": "address[]"
        }
      ],
      "name": "removeAddressesFromWhitelist",
      "outputs": [
        {
          "internalType": "bool",
          "name": "success",
          "type": "bool"
        }
      ],
      "stateMutability": "nonpayable",
      "type": "function"
    },
    {
      "inputs": [],
      "name": "renounceOwnership",
      "outputs": [],
      "stateMutability": "nonpayable",
      "type": "function"
    },
    {
      "inputs": [
        {
          "internalType": "bytes32",
          "name": "role",
          "type": "bytes32"
        },
        {
          "internalType": "address",
          "name": "account",
          "type": "address"
        }
      ],
      "name": "renounceRole",
      "outputs": [],
      "stateMutability": "nonpayable",
      "type": "function"
    },
    {
      "inputs": [
        {
          "internalType": "bytes32",
          "name": "role",
          "type": "bytes32"
        },
        {
          "internalType": "address",
          "name": "account",
          "type": "address"
        }
      ],
      "name": "revokeRole",
      "outputs": [],
      "stateMutability": "nonpayable",
      "type": "function"
    },
    {
      "inputs": [],
      "name": "rinkebyUSDCAddress",
      "outputs": [
        {
          "internalType": "address",
          "name": "",
          "type": "address"
        }
      ],
      "stateMutability": "view",
      "type": "function"
    },
    {
      "inputs": [],
      "name": "stakeAmount",
      "outputs": [
        {
          "internalType": "uint256",
          "name": "",
          "type": "uint256"
        }
      ],
      "stateMutability": "view",
      "type": "function"
    },
    {
      "inputs": [
        {
          "internalType": "bytes4",
          "name": "interfaceId",
          "type": "bytes4"
        }
      ],
      "name": "supportsInterface",
      "outputs": [
        {
          "internalType": "bool",
          "name": "",
          "type": "bool"
        }
      ],
      "stateMutability": "view",
      "type": "function"
    },
    {
      "inputs": [
        {
          "internalType": "address",
          "name": "newOwner",
          "type": "address"
        }
      ],
      "name": "transferOwnership",
      "outputs": [],
      "stateMutability": "nonpayable",
      "type": "function"
    },
    {
      "inputs": [
        {
          "internalType": "address",
          "name": "",
          "type": "address"
        },
        {
          "internalType": "uint256",
          "name": "",
          "type": "uint256"
        }
      ],
      "name": "userToLineup",
      "outputs": [
        {
          "internalType": "uint256",
          "name": "",
          "type": "uint256"
        }
      ],
      "stateMutability": "view",
      "type": "function"
    },
    {
      "inputs": [
        {
          "internalType": "address",
          "name": "",
          "type": "address"
        },
        {
          "internalType": "uint256",
          "name": "",
          "type": "uint256"
        }
      ],
      "name": "userToRecord",
      "outputs": [
        {
          "internalType": "uint256",
          "name": "",
          "type": "uint256"
        }
      ],
      "stateMutability": "view",
      "type": "function"
    },
    {
      "inputs": [
        {
          "internalType": "address",
          "name": "",
          "type": "address"
        }
      ],
      "name": "userToTotalWins",
      "outputs": [
        {
          "internalType": "uint256",
          "name": "",
          "type": "uint256"
        }
      ],
      "stateMutability": "view",
      "type": "function"
    },
    {
      "inputs": [
        {
          "internalType": "address",
          "name": "",
          "type": "address"
        }
      ],
      "name": "whitelist",
      "outputs": [
        {
          "internalType": "bool",
          "name": "",
          "type": "bool"
        }
      ],
      "stateMutability": "view",
      "type": "function"
    },
    {
      "inputs": [],
      "name": "whitelistContract",
      "outputs": [
        {
          "internalType": "contract Whitelist",
          "name": "",
          "type": "address"
        }
      ],
      "stateMutability": "view",
      "type": "function"
    },
    {
      "stateMutability": "payable",
      "type": "receive"
    }
  ],
  "bytecode": "0x6080604052604051620033a2380380620033a28339818101604052810190620000299190620006bb565b620000496200003d620000cf60201b60201c565b620000d760201b60201c565b60017fa3f0ad74e5423aebfd80d3ef4346578335a9a72aeaee59ff6cb3582b35133d5160001c6200007b919062000942565b60001b7fa3f0ad74e5423aebfd80d3ef4346578335a9a72aeaee59ff6cb3582b35133d5060001b14620000b357620000b262000a27565b5b620000c7828260006200019b60201b60201c565b505062000be0565b600033905090565b60008060009054906101000a900473ffffffffffffffffffffffffffffffffffffffff169050816000806101000a81548173ffffffffffffffffffffffffffffffffffffffff021916908373ffffffffffffffffffffffffffffffffffffffff1602179055508173ffffffffffffffffffffffffffffffffffffffff168173ffffffffffffffffffffffffffffffffffffffff167f8be0079c531659141344cd1fd0a4f28419497f9722a3daafe3b4186f6b6457e060405160405180910390a35050565b620001ac83620002a260201b60201c565b8273ffffffffffffffffffffffffffffffffffffffff167f1cf3b03a6cf19fa2baba4df148e9dcabedea7f8a5c07840e207e5c089be95d3e60405160405180910390a2600082511180620001fd5750805b156200029d576200029b8373ffffffffffffffffffffffffffffffffffffffff16635c60da1b6040518163ffffffff1660e01b815260040160206040518083038186803b1580156200024e57600080fd5b505afa15801562000263573d6000803e3d6000fd5b505050506040513d601f19601f8201168201806040525081019062000289919062000689565b836200045160201b620012b11760201c565b505b505050565b620002b8816200048760201b620012de1760201c565b620002fa576040517f08c379a0000000000000000000000000000000000000000000000000000000008152600401620002f1906200084b565b60405180910390fd5b620003918173ffffffffffffffffffffffffffffffffffffffff16635c60da1b6040518163ffffffff1660e01b815260040160206040518083038186803b1580156200034557600080fd5b505afa1580156200035a573d6000803e3d6000fd5b505050506040513d601f19601f8201168201806040525081019062000380919062000689565b6200048760201b620012de1760201c565b620003d3576040517f08c379a0000000000000000000000000000000000000000000000000000000008152600401620003ca906200088f565b60405180910390fd5b806200040d7fa3f0ad74e5423aebfd80d3ef4346578335a9a72aeaee59ff6cb3582b35133d5060001b6200049a60201b620012f11760201c565b60000160006101000a81548173ffffffffffffffffffffffffffffffffffffffff021916908373ffffffffffffffffffffffffffffffffffffffff16021790555050565b60606200047f83836040518060600160405280602781526020016200337b60279139620004a460201b60201c565b905092915050565b600080823b905060008111915050919050565b6000819050919050565b6060620004b7846200048760201b60201c565b620004f9576040517f08c379a0000000000000000000000000000000000000000000000000000000008152600401620004f0906200086d565b60405180910390fd5b6000808573ffffffffffffffffffffffffffffffffffffffff16856040516200052391906200080e565b600060405180830381855af49150503d806000811462000560576040519150601f19603f3d011682016040523d82523d6000602084013e62000565565b606091505b50915091506200057d8282866200058860201b60201c565b925050509392505050565b606083156200059a57829050620005ed565b600083511115620005ae5782518084602001fd5b816040517f08c379a0000000000000000000000000000000000000000000000000000000008152600401620005e4919062000827565b60405180910390fd5b9392505050565b60006200060b6200060584620008da565b620008b1565b9050828152602081018484840111156200062a576200062962000ab9565b5b62000637848285620009bb565b509392505050565b600081519050620006508162000bc6565b92915050565b600082601f8301126200066e576200066d62000ab4565b5b815162000680848260208601620005f4565b91505092915050565b600060208284031215620006a257620006a162000ac3565b5b6000620006b2848285016200063f565b91505092915050565b60008060408385031215620006d557620006d462000ac3565b5b6000620006e5858286016200063f565b925050602083015167ffffffffffffffff81111562000709576200070862000abe565b5b620007178582860162000656565b9150509250929050565b60006200072e8262000910565b6200073a818562000926565b93506200074c818560208601620009bb565b80840191505092915050565b600062000765826200091b565b62000771818562000931565b935062000783818560208601620009bb565b6200078e8162000ac8565b840191505092915050565b6000620007a860258362000931565b9150620007b58262000ad9565b604082019050919050565b6000620007cf60268362000931565b9150620007dc8262000b28565b604082019050919050565b6000620007f660308362000931565b9150620008038262000b77565b604082019050919050565b60006200081c828462000721565b915081905092915050565b6000602082019050818103600083015262000843818462000758565b905092915050565b60006020820190508181036000830152620008668162000799565b9050919050565b600060208201905081810360008301526200088881620007c0565b9050919050565b60006020820190508181036000830152620008aa81620007e7565b9050919050565b6000620008bd620008d0565b9050620008cb8282620009f1565b919050565b6000604051905090565b600067ffffffffffffffff821115620008f857620008f762000a85565b5b620009038262000ac8565b9050602081019050919050565b600081519050919050565b600081519050919050565b600081905092915050565b600082825260208201905092915050565b60006200094f82620009b1565b91506200095c83620009b1565b92508282101562000972576200097162000a56565b5b828203905092915050565b60006200098a8262000991565b9050919050565b600073ffffffffffffffffffffffffffffffffffffffff82169050919050565b6000819050919050565b60005b83811015620009db578082015181840152602081019050620009be565b83811115620009eb576000848401525b50505050565b620009fc8262000ac8565b810181811067ffffffffffffffff8211171562000a1e5762000a1d62000a85565b5b80604052505050565b7f4e487b7100000000000000000000000000000000000000000000000000000000600052600160045260246000fd5b7f4e487b7100000000000000000000000000000000000000000000000000000000600052601160045260246000fd5b7f4e487b7100000000000000000000000000000000000000000000000000000000600052604160045260246000fd5b600080fd5b600080fd5b600080fd5b600080fd5b6000601f19601f8301169050919050565b7f455243313936373a206e657720626561636f6e206973206e6f74206120636f6e60008201527f7472616374000000000000000000000000000000000000000000000000000000602082015250565b7f416464726573733a2064656c65676174652063616c6c20746f206e6f6e2d636f60008201527f6e74726163740000000000000000000000000000000000000000000000000000602082015250565b7f455243313936373a20626561636f6e20696d706c656d656e746174696f6e206960008201527f73206e6f74206120636f6e747261637400000000000000000000000000000000602082015250565b62000bd1816200097d565b811462000bdd57600080fd5b50565b61278b8062000bf06000396000f3fe6080604052600436106101d05760003560e01c806384900b04116100f7578063cff5600311610095578063e35a899911610064578063e35a899914610705578063edcbe96c14610742578063f2fde38b1461077f578063f851a440146107a8576101df565b8063cff5600314610637578063d547741f14610674578063dc9a15351461069d578063e2ec6ec3146106c8576101df565b806391d14854116100d157806391d148541461056757806393f3706c146105a45780639b19251a146105cf578063a217fddf1461060c576101df565b806384900b04146104d45780638da5cb5b146104ff5780639122ce6d1461052a576101df565b80632f2ff15d1161016f578063715018a61161013e578063715018a61461042a5780637b9417c8146104415780637eed33f11461047e578063841abf6e146104a9576101df565b80632f2ff15d1461038257806336568abe146103ab57806344eaa84e146103d457806360c7dc47146103ff576101df565b8063248a9ca3116101ab578063248a9ca31461028e57806324953eaa146102cb578063267175db14610308578063286dd3f514610345576101df565b8062b2476f146101e957806301ffc9a7146102145780630c6f795914610251576101df565b366101df576101dd6107d3565b005b6101e76107d3565b005b3480156101f557600080fd5b506101fe6107ed565b60405161020b9190611fe8565b60405180910390f35b34801561022057600080fd5b5061023b60048036038101906102369190611d62565b610813565b6040516102489190612003565b60405180910390f35b34801561025d57600080fd5b5061027860048036038101906102739190611c6c565b61088d565b6040516102859190612116565b60405180910390f35b34801561029a57600080fd5b506102b560048036038101906102b09190611cf5565b6108b5565b6040516102c2919061201e565b60405180910390f35b3480156102d757600080fd5b506102f260048036038101906102ed9190611cac565b6108d5565b6040516102ff9190612003565b60405180910390f35b34801561031457600080fd5b5061032f600480360381019061032a9190611d8f565b6109a5565b60405161033c9190611fe8565b60405180910390f35b34801561035157600080fd5b5061036c60048036038101906103679190611c12565b6109e4565b6040516103799190612003565b60405180910390f35b34801561038e57600080fd5b506103a960048036038101906103a49190611d22565b610b67565b005b3480156103b757600080fd5b506103d260048036038101906103cd9190611d22565b610b90565b005b3480156103e057600080fd5b506103e9610c13565b6040516103f69190612116565b60405180910390f35b34801561040b57600080fd5b50610414610c1d565b6040516104219190612116565b60405180910390f35b34801561043657600080fd5b5061043f610c23565b005b34801561044d57600080fd5b5061046860048036038101906104639190611c12565b610cab565b6040516104759190612003565b60405180910390f35b34801561048a57600080fd5b50610493610e2d565b6040516104a09190612116565b60405180910390f35b3480156104b557600080fd5b506104be610e33565b6040516104cb9190612054565b60405180910390f35b3480156104e057600080fd5b506104e9610ec1565b6040516104f69190612039565b60405180910390f35b34801561050b57600080fd5b50610514610ee7565b6040516105219190611fe8565b60405180910390f35b34801561053657600080fd5b50610551600480360381019061054c9190611c12565b610f10565b60405161055e9190612003565b60405180910390f35b34801561057357600080fd5b5061058e60048036038101906105899190611d22565b610f30565b60405161059b9190612003565b60405180910390f35b3480156105b057600080fd5b506105b9610f9b565b6040516105c69190611fe8565b60405180910390f35b3480156105db57600080fd5b506105f660048036038101906105f19190611c12565b610fc1565b6040516106039190612003565b60405180910390f35b34801561061857600080fd5b50610621610fe1565b60405161062e919061201e565b60405180910390f35b34801561064357600080fd5b5061065e60048036038101906106599190611c6c565b610fe8565b60405161066b9190612116565b60405180910390f35b34801561068057600080fd5b5061069b60048036038101906106969190611d22565b611019565b005b3480156106a957600080fd5b506106b2611042565b6040516106bf9190612003565b60405180910390f35b3480156106d457600080fd5b506106ef60048036038101906106ea9190611cac565b611055565b6040516106fc9190612003565b60405180910390f35b34801561071157600080fd5b5061072c60048036038101906107279190611c12565b611125565b6040516107399190612003565b60405180910390f35b34801561074e57600080fd5b5061076960048036038101906107649190611c12565b61117b565b6040516107769190612116565b60405180910390f35b34801561078b57600080fd5b506107a660048036038101906107a19190611c12565b611193565b005b3480156107b457600080fd5b506107bd61128b565b6040516107ca9190611fe8565b60405180910390f35b6107db6112fb565b6107eb6107e66112fd565b611389565b565b601260009054906101000a900473ffffffffffffffffffffffffffffffffffffffff1681565b60007f7965db0b000000000000000000000000000000000000000000000000000000007bffffffffffffffffffffffffffffffffffffffffffffffffffffffff1916827bffffffffffffffffffffffffffffffffffffffffffffffffffffffff191614806108865750610885826113af565b5b9050919050565b600b60205281600052604060002081600881106108a957600080fd5b01600091509150505481565b600060016000838152602001908152602001600020600101549050919050565b60006108df611419565b73ffffffffffffffffffffffffffffffffffffffff166108fd610ee7565b73ffffffffffffffffffffffffffffffffffffffff1614610953576040517f08c379a000000000000000000000000000000000000000000000000000000000815260040161094a906120b6565b60405180910390fd5b60005b825181101561099f57610982838281518110610975576109746124be565b5b60200260200101516109e4565b1561098c57600191505b808061099790612417565b915050610956565b50919050565b600f81815481106109b557600080fd5b906000526020600020016000915054906101000a900473ffffffffffffffffffffffffffffffffffffffff1681565b60006109ee611419565b73ffffffffffffffffffffffffffffffffffffffff16610a0c610ee7565b73ffffffffffffffffffffffffffffffffffffffff1614610a62576040517f08c379a0000000000000000000000000000000000000000000000000000000008152600401610a59906120b6565b60405180910390fd5b600260008373ffffffffffffffffffffffffffffffffffffffff1673ffffffffffffffffffffffffffffffffffffffff16815260200190815260200160002060009054906101000a900460ff1615610b62576000600260008473ffffffffffffffffffffffffffffffffffffffff1673ffffffffffffffffffffffffffffffffffffffff16815260200190815260200160002060006101000a81548160ff0219169083151502179055507ff1abf01a1043b7c244d128e8595cf0c1d10743b022b03a02dffd8ca3bf729f5a82604051610b3b9190611fe8565b60405180910390a1600160036000828254610b56919061226f565b92505081905550600190505b919050565b610b70826108b5565b610b8181610b7c611419565b611421565b610b8b83836114be565b505050565b610b98611419565b73ffffffffffffffffffffffffffffffffffffffff168173ffffffffffffffffffffffffffffffffffffffff1614610c05576040517f08c379a0000000000000000000000000000000000000000000000000000000008152600401610bfc906120f6565b60405180910390fd5b610c0f828261159e565b5050565b6000600354905090565b60075481565b610c2b611419565b73ffffffffffffffffffffffffffffffffffffffff16610c49610ee7565b73ffffffffffffffffffffffffffffffffffffffff1614610c9f576040517f08c379a0000000000000000000000000000000000000000000000000000000008152600401610c96906120b6565b60405180910390fd5b610ca96000611680565b565b6000610cb5611419565b73ffffffffffffffffffffffffffffffffffffffff16610cd3610ee7565b73ffffffffffffffffffffffffffffffffffffffff1614610d29576040517f08c379a0000000000000000000000000000000000000000000000000000000008152600401610d20906120b6565b60405180910390fd5b600260008373ffffffffffffffffffffffffffffffffffffffff1673ffffffffffffffffffffffffffffffffffffffff16815260200190815260200160002060009054906101000a900460ff16610e28576001600260008473ffffffffffffffffffffffffffffffffffffffff1673ffffffffffffffffffffffffffffffffffffffff16815260200190815260200160002060006101000a81548160ff0219169083151502179055507fd1bba68c128cc3f427e5831b3c6f99f480b6efa6b9e80c757768f6124158cc3f82604051610e019190611fe8565b60405180910390a1600160036000828254610e1c91906121bf565b92505081905550600190505b919050565b60065481565b60058054610e40906123b4565b80601f0160208091040260200160405190810160405280929190818152602001828054610e6c906123b4565b8015610eb95780601f10610e8e57610100808354040283529160200191610eb9565b820191906000526020600020905b815481529060010190602001808311610e9c57829003601f168201915b505050505081565b601460009054906101000a900473ffffffffffffffffffffffffffffffffffffffff1681565b60008060009054906101000a900473ffffffffffffffffffffffffffffffffffffffff16905090565b600e6020528060005260406000206000915054906101000a900460ff1681565b60006001600084815260200190815260200160002060000160008373ffffffffffffffffffffffffffffffffffffffff1673ffffffffffffffffffffffffffffffffffffffff16815260200190815260200160002060009054906101000a900460ff16905092915050565b601160009054906101000a900473ffffffffffffffffffffffffffffffffffffffff1681565b60026020528060005260406000206000915054906101000a900460ff1681565b6000801b81565b600d602052816000526040600020818154811061100457600080fd5b90600052602060002001600091509150505481565b611022826108b5565b6110338161102e611419565b611421565b61103d838361159e565b505050565b600460009054906101000a900460ff1681565b600061105f611419565b73ffffffffffffffffffffffffffffffffffffffff1661107d610ee7565b73ffffffffffffffffffffffffffffffffffffffff16146110d3576040517f08c379a00000000000000000000000000000000000000000000000000000000081526004016110ca906120b6565b60405180910390fd5b60005b825181101561111f576111028382815181106110f5576110f46124be565b5b6020026020010151610cab565b1561110c57600191505b808061111790612417565b9150506110d6565b50919050565b6000600260008373ffffffffffffffffffffffffffffffffffffffff1673ffffffffffffffffffffffffffffffffffffffff16815260200190815260200160002060009054906101000a900460ff169050919050565b600a6020528060005260406000206000915090505481565b61119b611419565b73ffffffffffffffffffffffffffffffffffffffff166111b9610ee7565b73ffffffffffffffffffffffffffffffffffffffff161461120f576040517f08c379a0000000000000000000000000000000000000000000000000000000008152600401611206906120b6565b60405180910390fd5b600073ffffffffffffffffffffffffffffffffffffffff168173ffffffffffffffffffffffffffffffffffffffff16141561127f576040517f08c379a000000000000000000000000000000000000000000000000000000000815260040161127690612096565b60405180910390fd5b61128881611680565b50565b600860009054906101000a900473ffffffffffffffffffffffffffffffffffffffff1681565b60606112d6838360405180606001604052806027815260200161272f60279139611744565b905092915050565b600080823b905060008111915050919050565b6000819050919050565b565b6000611307611811565b73ffffffffffffffffffffffffffffffffffffffff16635c60da1b6040518163ffffffff1660e01b815260040160206040518083038186803b15801561134c57600080fd5b505afa158015611360573d6000803e3d6000fd5b505050506040513d601f19601f820116820180604052508101906113849190611c3f565b905090565b3660008037600080366000845af43d6000803e80600081146113aa573d6000f35b3d6000fd5b60007f01ffc9a7000000000000000000000000000000000000000000000000000000007bffffffffffffffffffffffffffffffffffffffffffffffffffffffff1916827bffffffffffffffffffffffffffffffffffffffffffffffffffffffff1916149050919050565b600033905090565b61142b8282610f30565b6114ba576114508173ffffffffffffffffffffffffffffffffffffffff166014611868565b61145e8360001c6020611868565b60405160200161146f929190611fae565b6040516020818303038152906040526040517f08c379a00000000000000000000000000000000000000000000000000000000081526004016114b19190612054565b60405180910390fd5b5050565b6114c88282610f30565b61159a57600180600084815260200190815260200160002060000160008373ffffffffffffffffffffffffffffffffffffffff1673ffffffffffffffffffffffffffffffffffffffff16815260200190815260200160002060006101000a81548160ff02191690831515021790555061153f611419565b73ffffffffffffffffffffffffffffffffffffffff168173ffffffffffffffffffffffffffffffffffffffff16837f2f8788117e7eff1d82e926ec794901d17c78024a50270940304540a733656f0d60405160405180910390a45b5050565b6115a88282610f30565b1561167c5760006001600084815260200190815260200160002060000160008373ffffffffffffffffffffffffffffffffffffffff1673ffffffffffffffffffffffffffffffffffffffff16815260200190815260200160002060006101000a81548160ff021916908315150217905550611621611419565b73ffffffffffffffffffffffffffffffffffffffff168173ffffffffffffffffffffffffffffffffffffffff16837ff6391f5c32d9c69d2a47ea670b442974b53935d1edc7fd64eb21e047a839171b60405160405180910390a45b5050565b60008060009054906101000a900473ffffffffffffffffffffffffffffffffffffffff169050816000806101000a81548173ffffffffffffffffffffffffffffffffffffffff021916908373ffffffffffffffffffffffffffffffffffffffff1602179055508173ffffffffffffffffffffffffffffffffffffffff168173ffffffffffffffffffffffffffffffffffffffff167f8be0079c531659141344cd1fd0a4f28419497f9722a3daafe3b4186f6b6457e060405160405180910390a35050565b606061174f846112de565b61178e576040517f08c379a0000000000000000000000000000000000000000000000000000000008152600401611785906120d6565b60405180910390fd5b6000808573ffffffffffffffffffffffffffffffffffffffff16856040516117b69190611f97565b600060405180830381855af49150503d80600081146117f1576040519150601f19603f3d011682016040523d82523d6000602084013e6117f6565b606091505b5091509150611806828286611aa4565b925050509392505050565b600061183f7fa3f0ad74e5423aebfd80d3ef4346578335a9a72aeaee59ff6cb3582b35133d5060001b6112f1565b60000160009054906101000a900473ffffffffffffffffffffffffffffffffffffffff16905090565b60606000600283600261187b9190612215565b61188591906121bf565b67ffffffffffffffff81111561189e5761189d6124ed565b5b6040519080825280601f01601f1916602001820160405280156118d05781602001600182028036833780820191505090505b5090507f300000000000000000000000000000000000000000000000000000000000000081600081518110611908576119076124be565b5b60200101907effffffffffffffffffffffffffffffffffffffffffffffffffffffffffffff1916908160001a9053507f78000000000000000000000000000000000000000000000000000000000000008160018151811061196c5761196b6124be565b5b60200101907effffffffffffffffffffffffffffffffffffffffffffffffffffffffffffff1916908160001a905350600060018460026119ac9190612215565b6119b691906121bf565b90505b6001811115611a56577f3031323334353637383961626364656600000000000000000000000000000000600f8616601081106119f8576119f76124be565b5b1a60f81b828281518110611a0f57611a0e6124be565b5b60200101907effffffffffffffffffffffffffffffffffffffffffffffffffffffffffffff1916908160001a905350600485901c945080611a4f9061238a565b90506119b9565b5060008414611a9a576040517f08c379a0000000000000000000000000000000000000000000000000000000008152600401611a9190612076565b60405180910390fd5b8091505092915050565b60608315611ab457829050611b04565b600083511115611ac75782518084602001fd5b816040517f08c379a0000000000000000000000000000000000000000000000000000000008152600401611afb9190612054565b60405180910390fd5b9392505050565b6000611b1e611b1984612156565b612131565b90508083825260208201905082856020860282011115611b4157611b40612521565b5b60005b85811015611b715781611b578882611b7b565b845260208401935060208301925050600181019050611b44565b5050509392505050565b600081359050611b8a816126d2565b92915050565b600081519050611b9f816126d2565b92915050565b600082601f830112611bba57611bb961251c565b5b8135611bca848260208601611b0b565b91505092915050565b600081359050611be2816126e9565b92915050565b600081359050611bf781612700565b92915050565b600081359050611c0c81612717565b92915050565b600060208284031215611c2857611c2761252b565b5b6000611c3684828501611b7b565b91505092915050565b600060208284031215611c5557611c5461252b565b5b6000611c6384828501611b90565b91505092915050565b60008060408385031215611c8357611c8261252b565b5b6000611c9185828601611b7b565b9250506020611ca285828601611bfd565b9150509250929050565b600060208284031215611cc257611cc161252b565b5b600082013567ffffffffffffffff811115611ce057611cdf612526565b5b611cec84828501611ba5565b91505092915050565b600060208284031215611d0b57611d0a61252b565b5b6000611d1984828501611bd3565b91505092915050565b60008060408385031215611d3957611d3861252b565b5b6000611d4785828601611bd3565b9250506020611d5885828601611b7b565b9150509250929050565b600060208284031215611d7857611d7761252b565b5b6000611d8684828501611be8565b91505092915050565b600060208284031215611da557611da461252b565b5b6000611db384828501611bfd565b91505092915050565b611dc5816122a3565b82525050565b611dd4816122b5565b82525050565b611de3816122c1565b82525050565b6000611df482612182565b611dfe8185612198565b9350611e0e818560208601612357565b80840191505092915050565b611e2381612321565b82525050565b6000611e348261218d565b611e3e81856121a3565b9350611e4e818560208601612357565b611e5781612530565b840191505092915050565b6000611e6d8261218d565b611e7781856121b4565b9350611e87818560208601612357565b80840191505092915050565b6000611ea06020836121a3565b9150611eab82612541565b602082019050919050565b6000611ec36026836121a3565b9150611ece8261256a565b604082019050919050565b6000611ee66020836121a3565b9150611ef1826125b9565b602082019050919050565b6000611f096026836121a3565b9150611f14826125e2565b604082019050919050565b6000611f2c6017836121b4565b9150611f3782612631565b601782019050919050565b6000611f4f6011836121b4565b9150611f5a8261265a565b601182019050919050565b6000611f72602f836121a3565b9150611f7d82612683565b604082019050919050565b611f9181612317565b82525050565b6000611fa38284611de9565b915081905092915050565b6000611fb982611f1f565b9150611fc58285611e62565b9150611fd082611f42565b9150611fdc8284611e62565b91508190509392505050565b6000602082019050611ffd6000830184611dbc565b92915050565b60006020820190506120186000830184611dcb565b92915050565b60006020820190506120336000830184611dda565b92915050565b600060208201905061204e6000830184611e1a565b92915050565b6000602082019050818103600083015261206e8184611e29565b905092915050565b6000602082019050818103600083015261208f81611e93565b9050919050565b600060208201905081810360008301526120af81611eb6565b9050919050565b600060208201905081810360008301526120cf81611ed9565b9050919050565b600060208201905081810360008301526120ef81611efc565b9050919050565b6000602082019050818103600083015261210f81611f65565b9050919050565b600060208201905061212b6000830184611f88565b92915050565b600061213b61214c565b905061214782826123e6565b919050565b6000604051905090565b600067ffffffffffffffff821115612171576121706124ed565b5b602082029050602081019050919050565b600081519050919050565b600081519050919050565b600081905092915050565b600082825260208201905092915050565b600081905092915050565b60006121ca82612317565b91506121d583612317565b9250827fffffffffffffffffffffffffffffffffffffffffffffffffffffffffffffffff0382111561220a57612209612460565b5b828201905092915050565b600061222082612317565b915061222b83612317565b9250817fffffffffffffffffffffffffffffffffffffffffffffffffffffffffffffffff048311821515161561226457612263612460565b5b828202905092915050565b600061227a82612317565b915061228583612317565b92508282101561229857612297612460565b5b828203905092915050565b60006122ae826122f7565b9050919050565b60008115159050919050565b6000819050919050565b60007fffffffff0000000000000000000000000000000000000000000000000000000082169050919050565b600073ffffffffffffffffffffffffffffffffffffffff82169050919050565b6000819050919050565b600061232c82612333565b9050919050565b600061233e82612345565b9050919050565b6000612350826122f7565b9050919050565b60005b8381101561237557808201518184015260208101905061235a565b83811115612384576000848401525b50505050565b600061239582612317565b915060008214156123a9576123a8612460565b5b600182039050919050565b600060028204905060018216806123cc57607f821691505b602082108114156123e0576123df61248f565b5b50919050565b6123ef82612530565b810181811067ffffffffffffffff8211171561240e5761240d6124ed565b5b80604052505050565b600061242282612317565b91507fffffffffffffffffffffffffffffffffffffffffffffffffffffffffffffffff82141561245557612454612460565b5b600182019050919050565b7f4e487b7100000000000000000000000000000000000000000000000000000000600052601160045260246000fd5b7f4e487b7100000000000000000000000000000000000000000000000000000000600052602260045260246000fd5b7f4e487b7100000000000000000000000000000000000000000000000000000000600052603260045260246000fd5b7f4e487b7100000000000000000000000000000000000000000000000000000000600052604160045260246000fd5b600080fd5b600080fd5b600080fd5b600080fd5b6000601f19601f8301169050919050565b7f537472696e67733a20686578206c656e67746820696e73756666696369656e74600082015250565b7f4f776e61626c653a206e6577206f776e657220697320746865207a65726f206160008201527f6464726573730000000000000000000000000000000000000000000000000000602082015250565b7f4f776e61626c653a2063616c6c6572206973206e6f7420746865206f776e6572600082015250565b7f416464726573733a2064656c65676174652063616c6c20746f206e6f6e2d636f60008201527f6e74726163740000000000000000000000000000000000000000000000000000602082015250565b7f416363657373436f6e74726f6c3a206163636f756e7420000000000000000000600082015250565b7f206973206d697373696e6720726f6c6520000000000000000000000000000000600082015250565b7f416363657373436f6e74726f6c3a2063616e206f6e6c792072656e6f756e636560008201527f20726f6c657320666f722073656c660000000000000000000000000000000000602082015250565b6126db816122a3565b81146126e657600080fd5b50565b6126f2816122c1565b81146126fd57600080fd5b50565b612709816122cb565b811461271457600080fd5b50565b61272081612317565b811461272b57600080fd5b5056fe416464726573733a206c6f772d6c6576656c2064656c65676174652063616c6c206661696c6564a2646970667358221220daf3a74185ecc9532bcf9469e05df81fd3d95db3bf3d00b9bc5e267d19911ef664736f6c63430008070033416464726573733a206c6f772d6c6576656c2064656c65676174652063616c6c206661696c6564",
  "linkReferences": {},
  "deployedLinkReferences": {}
}