{
  "_format": "hh-sol-artifact-1",
  "contractName": "LeagueBeaconProxy",
  "sourceName": "contracts/LeagueBeaconProxy.sol",
  "abi": [
    {
      "inputs": [
        {
          "internalType": "address",
          "name": "beacon",
          "type": "address"
        },
        {
          "internalType": "bytes",
          "name": "data",
          "type": "bytes"
        }
      ],
      "stateMutability": "payable",
      "type": "constructor"
    },
    {
      "anonymous": false,
      "inputs": [
        {
          "indexed": false,
          "internalType": "address",
          "name": "previousAdmin",
          "type": "address"
        },
        {
          "indexed": false,
          "internalType": "address",
          "name": "newAdmin",
          "type": "address"
        }
      ],
      "name": "AdminChanged",
      "type": "event"
    },
    {
      "anonymous": false,
      "inputs": [
        {
          "indexed": false,
          "internalType": "address",
          "name": "sender",
          "type": "address"
        },
        {
          "indexed": false,
          "internalType": "uint256",
          "name": "id",
          "type": "uint256"
        },
        {
          "indexed": false,
          "internalType": "uint256",
          "name": "position",
          "type": "uint256"
        }
      ],
      "name": "AthleteSetInLineup",
      "type": "event"
    },
    {
      "anonymous": false,
      "inputs": [
        {
          "indexed": true,
          "internalType": "address",
          "name": "beacon",
          "type": "address"
        }
      ],
      "name": "BeaconUpgraded",
      "type": "event"
    },
    {
      "anonymous": false,
      "inputs": [
        {
          "indexed": true,
          "internalType": "address",
          "name": "previousOwner",
          "type": "address"
        },
        {
          "indexed": true,
          "internalType": "address",
          "name": "newOwner",
          "type": "address"
        }
      ],
      "name": "OwnershipTransferred",
      "type": "event"
    },
    {
      "anonymous": false,
      "inputs": [
        {
          "indexed": true,
          "internalType": "bytes32",
          "name": "role",
          "type": "bytes32"
        },
        {
          "indexed": true,
          "internalType": "bytes32",
          "name": "previousAdminRole",
          "type": "bytes32"
        },
        {
          "indexed": true,
          "internalType": "bytes32",
          "name": "newAdminRole",
          "type": "bytes32"
        }
      ],
      "name": "RoleAdminChanged",
      "type": "event"
    },
    {
      "anonymous": false,
      "inputs": [
        {
          "indexed": true,
          "internalType": "bytes32",
          "name": "role",
          "type": "bytes32"
        },
        {
          "indexed": true,
          "internalType": "address",
          "name": "account",
          "type": "address"
        },
        {
          "indexed": true,
          "internalType": "address",
          "name": "sender",
          "type": "address"
        }
      ],
      "name": "RoleGranted",
      "type": "event"
    },
    {
      "anonymous": false,
      "inputs": [
        {
          "indexed": true,
          "internalType": "bytes32",
          "name": "role",
          "type": "bytes32"
        },
        {
          "indexed": true,
          "internalType": "address",
          "name": "account",
          "type": "address"
        },
        {
          "indexed": true,
          "internalType": "address",
          "name": "sender",
          "type": "address"
        }
      ],
      "name": "RoleRevoked",
      "type": "event"
    },
    {
      "anonymous": false,
      "inputs": [
        {
          "indexed": false,
          "internalType": "address",
          "name": "sender",
          "type": "address"
        },
        {
          "indexed": false,
          "internalType": "uint256",
          "name": "amount",
          "type": "uint256"
        },
        {
          "indexed": false,
          "internalType": "address",
          "name": "leagueAddress",
          "type": "address"
        }
      ],
      "name": "Staked",
      "type": "event"
    },
    {
      "anonymous": false,
      "inputs": [
        {
          "indexed": true,
          "internalType": "address",
          "name": "implementation",
          "type": "address"
        }
      ],
      "name": "Upgraded",
      "type": "event"
    },
    {
      "anonymous": false,
      "inputs": [
        {
          "indexed": false,
          "internalType": "address[]",
          "name": "winner",
          "type": "address[]"
        },
        {
          "indexed": false,
          "internalType": "uint256",
          "name": "prizePotPerWinner",
          "type": "uint256"
        }
      ],
      "name": "leagueEnded",
      "type": "event"
    },
    {
      "anonymous": false,
      "inputs": [
        {
          "indexed": false,
          "internalType": "address",
          "name": "sender",
          "type": "address"
        },
        {
          "indexed": false,
          "internalType": "address",
          "name": "leagueAddress",
          "type": "address"
        }
      ],
      "name": "scheduleSet",
      "type": "event"
    },
    {
      "stateMutability": "payable",
      "type": "fallback"
    },
    {
      "inputs": [],
      "name": "DEFAULT_ADMIN_ROLE",
      "outputs": [
        {
          "internalType": "bytes32",
          "name": "",
          "type": "bytes32"
        }
      ],
      "stateMutability": "view",
      "type": "function"
    },
    {
      "inputs": [],
      "name": "admin",
      "outputs": [
        {
          "internalType": "address",
          "name": "",
          "type": "address"
        }
      ],
      "stateMutability": "view",
      "type": "function"
    },
    {
      "inputs": [],
      "name": "erc20",
      "outputs": [
        {
          "internalType": "contract IERC20",
          "name": "",
          "type": "address"
        }
      ],
      "stateMutability": "view",
      "type": "function"
    },
    {
      "inputs": [
        {
          "internalType": "bytes32",
          "name": "role",
          "type": "bytes32"
        }
      ],
      "name": "getRoleAdmin",
      "outputs": [
        {
          "internalType": "bytes32",
          "name": "",
          "type": "bytes32"
        }
      ],
      "stateMutability": "view",
      "type": "function"
    },
    {
      "inputs": [
        {
          "internalType": "bytes32",
          "name": "role",
          "type": "bytes32"
        },
        {
          "internalType": "address",
          "name": "account",
          "type": "address"
        }
      ],
      "name": "grantRole",
      "outputs": [],
      "stateMutability": "nonpayable",
      "type": "function"
    },
    {
      "inputs": [
        {
          "internalType": "bytes32",
          "name": "role",
          "type": "bytes32"
        },
        {
          "internalType": "address",
          "name": "account",
          "type": "address"
        }
      ],
      "name": "hasRole",
      "outputs": [
        {
          "internalType": "bool",
          "name": "",
          "type": "bool"
        }
      ],
      "stateMutability": "view",
      "type": "function"
    },
    {
      "inputs": [
        {
          "internalType": "address",
          "name": "",
          "type": "address"
        }
      ],
      "name": "inLeague",
      "outputs": [
        {
          "internalType": "bool",
          "name": "",
          "type": "bool"
        }
      ],
      "stateMutability": "view",
      "type": "function"
    },
    {
      "inputs": [],
      "name": "isPublic",
      "outputs": [
        {
          "internalType": "bool",
          "name": "",
          "type": "bool"
        }
      ],
      "stateMutability": "view",
      "type": "function"
    },
    {
      "inputs": [],
      "name": "leagueEntryIsClosed",
      "outputs": [
        {
          "internalType": "bool",
          "name": "",
          "type": "bool"
        }
      ],
      "stateMutability": "view",
      "type": "function"
    },
    {
      "inputs": [
        {
          "internalType": "uint256",
          "name": "",
          "type": "uint256"
        }
      ],
      "name": "leagueMembers",
      "outputs": [
        {
          "internalType": "address",
          "name": "",
          "type": "address"
        }
      ],
      "stateMutability": "view",
      "type": "function"
    },
    {
      "inputs": [],
      "name": "leagueName",
      "outputs": [
        {
          "internalType": "string",
          "name": "",
          "type": "string"
        }
      ],
      "stateMutability": "view",
      "type": "function"
    },
    {
      "inputs": [],
      "name": "lineupIsLocked",
      "outputs": [
        {
          "internalType": "bool",
          "name": "",
          "type": "bool"
        }
      ],
      "stateMutability": "view",
      "type": "function"
    },
    {
      "inputs": [],
      "name": "numWeeks",
      "outputs": [
        {
          "internalType": "uint256",
          "name": "",
          "type": "uint256"
        }
      ],
      "stateMutability": "view",
      "type": "function"
    },
    {
      "inputs": [],
      "name": "owner",
      "outputs": [
        {
          "internalType": "address",
          "name": "",
          "type": "address"
        }
      ],
      "stateMutability": "view",
      "type": "function"
    },
    {
      "inputs": [],
      "name": "renounceOwnership",
      "outputs": [],
      "stateMutability": "nonpayable",
      "type": "function"
    },
    {
      "inputs": [
        {
          "internalType": "bytes32",
          "name": "role",
          "type": "bytes32"
        },
        {
          "internalType": "address",
          "name": "account",
          "type": "address"
        }
      ],
      "name": "renounceRole",
      "outputs": [],
      "stateMutability": "nonpayable",
      "type": "function"
    },
    {
      "inputs": [
        {
          "internalType": "bytes32",
          "name": "role",
          "type": "bytes32"
        },
        {
          "internalType": "address",
          "name": "account",
          "type": "address"
        }
      ],
      "name": "revokeRole",
      "outputs": [],
      "stateMutability": "nonpayable",
      "type": "function"
    },
    {
      "inputs": [],
      "name": "stakeAmount",
      "outputs": [
        {
          "internalType": "uint256",
          "name": "",
          "type": "uint256"
        }
      ],
      "stateMutability": "view",
      "type": "function"
    },
    {
      "inputs": [
        {
          "internalType": "bytes4",
          "name": "interfaceId",
          "type": "bytes4"
        }
      ],
      "name": "supportsInterface",
      "outputs": [
        {
          "internalType": "bool",
          "name": "",
          "type": "bool"
        }
      ],
      "stateMutability": "view",
      "type": "function"
    },
    {
      "inputs": [],
      "name": "teamDiffAddress",
      "outputs": [
        {
          "internalType": "address",
          "name": "",
          "type": "address"
        }
      ],
      "stateMutability": "view",
      "type": "function"
    },
    {
      "inputs": [
        {
          "internalType": "address",
          "name": "newOwner",
          "type": "address"
        }
      ],
      "name": "transferOwnership",
      "outputs": [],
      "stateMutability": "nonpayable",
      "type": "function"
    },
    {
      "inputs": [
        {
          "internalType": "address",
          "name": "",
          "type": "address"
        },
        {
          "internalType": "uint256",
          "name": "",
          "type": "uint256"
        }
      ],
      "name": "userToLineup",
      "outputs": [
        {
          "internalType": "uint256",
          "name": "",
          "type": "uint256"
        }
      ],
      "stateMutability": "view",
      "type": "function"
    },
    {
      "inputs": [
        {
          "internalType": "address",
          "name": "",
          "type": "address"
        }
      ],
      "name": "userToPoints",
      "outputs": [
        {
          "internalType": "uint256",
          "name": "",
          "type": "uint256"
        }
      ],
      "stateMutability": "view",
      "type": "function"
    },
    {
      "inputs": [
        {
          "internalType": "address",
          "name": "",
          "type": "address"
        },
        {
          "internalType": "uint256",
          "name": "",
          "type": "uint256"
        }
      ],
      "name": "userToRecord",
      "outputs": [
        {
          "internalType": "uint256",
          "name": "",
          "type": "uint256"
        }
      ],
      "stateMutability": "view",
      "type": "function"
    },
    {
      "inputs": [
        {
          "internalType": "address",
          "name": "",
          "type": "address"
        },
        {
          "internalType": "uint256",
          "name": "",
          "type": "uint256"
        }
      ],
      "name": "userToWeekScore",
      "outputs": [
        {
          "internalType": "uint256",
          "name": "",
          "type": "uint256"
        }
      ],
      "stateMutability": "view",
      "type": "function"
    },
    {
      "inputs": [],
      "name": "whitelistContract",
      "outputs": [
        {
          "internalType": "contract Whitelist",
          "name": "",
          "type": "address"
        }
      ],
      "stateMutability": "view",
      "type": "function"
    },
    {
      "stateMutability": "payable",
      "type": "receive"
    }
  ],
  "bytecode": "0x608060405260405162002bb838038062002bb88339818101604052810190620000299190620006bb565b620000496200003d620000cf60201b60201c565b620000d760201b60201c565b60017fa3f0ad74e5423aebfd80d3ef4346578335a9a72aeaee59ff6cb3582b35133d5160001c6200007b919062000942565b60001b7fa3f0ad74e5423aebfd80d3ef4346578335a9a72aeaee59ff6cb3582b35133d5060001b14620000b357620000b262000a27565b5b620000c7828260006200019b60201b60201c565b505062000be0565b600033905090565b60008060009054906101000a900473ffffffffffffffffffffffffffffffffffffffff169050816000806101000a81548173ffffffffffffffffffffffffffffffffffffffff021916908373ffffffffffffffffffffffffffffffffffffffff1602179055508173ffffffffffffffffffffffffffffffffffffffff168173ffffffffffffffffffffffffffffffffffffffff167f8be0079c531659141344cd1fd0a4f28419497f9722a3daafe3b4186f6b6457e060405160405180910390a35050565b620001ac83620002a260201b60201c565b8273ffffffffffffffffffffffffffffffffffffffff167f1cf3b03a6cf19fa2baba4df148e9dcabedea7f8a5c07840e207e5c089be95d3e60405160405180910390a2600082511180620001fd5750805b156200029d576200029b8373ffffffffffffffffffffffffffffffffffffffff16635c60da1b6040518163ffffffff1660e01b815260040160206040518083038186803b1580156200024e57600080fd5b505afa15801562000263573d6000803e3d6000fd5b505050506040513d601f19601f8201168201806040525081019062000289919062000689565b836200045160201b62000c801760201c565b505b505050565b620002b8816200048760201b62000cad1760201c565b620002fa576040517f08c379a0000000000000000000000000000000000000000000000000000000008152600401620002f1906200084b565b60405180910390fd5b620003918173ffffffffffffffffffffffffffffffffffffffff16635c60da1b6040518163ffffffff1660e01b815260040160206040518083038186803b1580156200034557600080fd5b505afa1580156200035a573d6000803e3d6000fd5b505050506040513d601f19601f8201168201806040525081019062000380919062000689565b6200048760201b62000cad1760201c565b620003d3576040517f08c379a0000000000000000000000000000000000000000000000000000000008152600401620003ca906200088f565b60405180910390fd5b806200040d7fa3f0ad74e5423aebfd80d3ef4346578335a9a72aeaee59ff6cb3582b35133d5060001b6200049a60201b62000cc01760201c565b60000160006101000a81548173ffffffffffffffffffffffffffffffffffffffff021916908373ffffffffffffffffffffffffffffffffffffffff16021790555050565b60606200047f838360405180606001604052806027815260200162002b9160279139620004a460201b60201c565b905092915050565b600080823b905060008111915050919050565b6000819050919050565b6060620004b7846200048760201b60201c565b620004f9576040517f08c379a0000000000000000000000000000000000000000000000000000000008152600401620004f0906200086d565b60405180910390fd5b6000808573ffffffffffffffffffffffffffffffffffffffff16856040516200052391906200080e565b600060405180830381855af49150503d806000811462000560576040519150601f19603f3d011682016040523d82523d6000602084013e62000565565b606091505b50915091506200057d8282866200058860201b60201c565b925050509392505050565b606083156200059a57829050620005ed565b600083511115620005ae5782518084602001fd5b816040517f08c379a0000000000000000000000000000000000000000000000000000000008152600401620005e4919062000827565b60405180910390fd5b9392505050565b60006200060b6200060584620008da565b620008b1565b9050828152602081018484840111156200062a576200062962000ab9565b5b62000637848285620009bb565b509392505050565b600081519050620006508162000bc6565b92915050565b600082601f8301126200066e576200066d62000ab4565b5b815162000680848260208601620005f4565b91505092915050565b600060208284031215620006a257620006a162000ac3565b5b6000620006b2848285016200063f565b91505092915050565b60008060408385031215620006d557620006d462000ac3565b5b6000620006e5858286016200063f565b925050602083015167ffffffffffffffff81111562000709576200070862000abe565b5b620007178582860162000656565b9150509250929050565b60006200072e8262000910565b6200073a818562000926565b93506200074c818560208601620009bb565b80840191505092915050565b600062000765826200091b565b62000771818562000931565b935062000783818560208601620009bb565b6200078e8162000ac8565b840191505092915050565b6000620007a860258362000931565b9150620007b58262000ad9565b604082019050919050565b6000620007cf60268362000931565b9150620007dc8262000b28565b604082019050919050565b6000620007f660308362000931565b9150620008038262000b77565b604082019050919050565b60006200081c828462000721565b915081905092915050565b6000602082019050818103600083015262000843818462000758565b905092915050565b60006020820190508181036000830152620008668162000799565b9050919050565b600060208201905081810360008301526200088881620007c0565b9050919050565b60006020820190508181036000830152620008aa81620007e7565b9050919050565b6000620008bd620008d0565b9050620008cb8282620009f1565b919050565b6000604051905090565b600067ffffffffffffffff821115620008f857620008f762000a85565b5b620009038262000ac8565b9050602081019050919050565b600081519050919050565b600081519050919050565b600081905092915050565b600082825260208201905092915050565b60006200094f82620009b1565b91506200095c83620009b1565b92508282101562000972576200097162000a56565b5b828203905092915050565b60006200098a8262000991565b9050919050565b600073ffffffffffffffffffffffffffffffffffffffff82169050919050565b6000819050919050565b60005b83811015620009db578082015181840152602081019050620009be565b83811115620009eb576000848401525b50505050565b620009fc8262000ac8565b810181811067ffffffffffffffff8211171562000a1e5762000a1d62000a85565b5b80604052505050565b7f4e487b7100000000000000000000000000000000000000000000000000000000600052600160045260246000fd5b7f4e487b7100000000000000000000000000000000000000000000000000000000600052601160045260246000fd5b7f4e487b7100000000000000000000000000000000000000000000000000000000600052604160045260246000fd5b600080fd5b600080fd5b600080fd5b600080fd5b6000601f19601f8301169050919050565b7f455243313936373a206e657720626561636f6e206973206e6f74206120636f6e60008201527f7472616374000000000000000000000000000000000000000000000000000000602082015250565b7f416464726573733a2064656c65676174652063616c6c20746f206e6f6e2d636f60008201527f6e74726163740000000000000000000000000000000000000000000000000000602082015250565b7f455243313936373a20626561636f6e20696d706c656d656e746174696f6e206960008201527f73206e6f74206120636f6e747261637400000000000000000000000000000000602082015250565b62000bd1816200097d565b811462000bdd57600080fd5b50565b611fa18062000bf06000396000f3fe6080604052600436106101855760003560e01c80637eed33f1116100d1578063a217fddf1161008a578063db2a672411610064578063db2a6724146105c6578063dc9a153514610603578063f2fde38b1461062e578063f851a4401461065757610194565b8063a217fddf14610535578063cff5600314610560578063d547741f1461059d57610194565b80637eed33f11461040f578063841abf6e1461043a57806384900b04146104655780638da5cb5b146104905780639122ce6d146104bb57806391d14854146104f857610194565b80632ae6b1351161013e57806360c7dc471161011857806360c7dc47146103775780636cc15ad5146103a2578063715018a6146103cd578063785e9e86146103e457610194565b80632ae6b135146102e85780632f2ff15d1461032557806336568abe1461034e57610194565b806301ffc9a71461019e5780630635dbcb146101db5780630c6f7959146102065780631dd7f8ca14610243578063248a9ca31461026e578063267175db146102ab57610194565b3661019457610192610682565b005b61019c610682565b005b3480156101aa57600080fd5b506101c560048036038101906101c0919061164a565b61069c565b6040516101d291906118fa565b60405180910390f35b3480156101e757600080fd5b506101f0610716565b6040516101fd91906118fa565b60405180910390f35b34801561021257600080fd5b5061022d6004803603810190610228919061159d565b610729565b60405161023a9190611a28565b60405180910390f35b34801561024f57600080fd5b50610258610751565b60405161026591906118df565b60405180910390f35b34801561027a57600080fd5b50610295600480360381019061029091906115dd565b610777565b6040516102a29190611915565b60405180910390f35b3480156102b757600080fd5b506102d260048036038101906102cd9190611677565b610797565b6040516102df91906118df565b60405180910390f35b3480156102f457600080fd5b5061030f600480360381019061030a9190611543565b6107d6565b60405161031c9190611a28565b60405180910390f35b34801561033157600080fd5b5061034c6004803603810190610347919061160a565b6107ee565b005b34801561035a57600080fd5b506103756004803603810190610370919061160a565b610817565b005b34801561038357600080fd5b5061038c61089a565b6040516103999190611a28565b60405180910390f35b3480156103ae57600080fd5b506103b76108a0565b6040516103c491906118fa565b60405180910390f35b3480156103d957600080fd5b506103e26108b3565b005b3480156103f057600080fd5b506103f961093b565b6040516104069190611930565b60405180910390f35b34801561041b57600080fd5b50610424610961565b6040516104319190611a28565b60405180910390f35b34801561044657600080fd5b5061044f610967565b60405161045c9190611966565b60405180910390f35b34801561047157600080fd5b5061047a6109f5565b604051610487919061194b565b60405180910390f35b34801561049c57600080fd5b506104a5610a1b565b6040516104b291906118df565b60405180910390f35b3480156104c757600080fd5b506104e260048036038101906104dd9190611543565b610a44565b6040516104ef91906118fa565b60405180910390f35b34801561050457600080fd5b5061051f600480360381019061051a919061160a565b610a64565b60405161052c91906118fa565b60405180910390f35b34801561054157600080fd5b5061054a610acf565b6040516105579190611915565b60405180910390f35b34801561056c57600080fd5b506105876004803603810190610582919061159d565b610ad6565b6040516105949190611a28565b60405180910390f35b3480156105a957600080fd5b506105c460048036038101906105bf919061160a565b610afe565b005b3480156105d257600080fd5b506105ed60048036038101906105e8919061159d565b610b27565b6040516105fa9190611a28565b60405180910390f35b34801561060f57600080fd5b50610618610b4f565b60405161062591906118fa565b60405180910390f35b34801561063a57600080fd5b5061065560048036038101906106509190611543565b610b62565b005b34801561066357600080fd5b5061066c610c5a565b60405161067991906118df565b60405180910390f35b61068a610cca565b61069a610695610ccc565b610d58565b565b60007f7965db0b000000000000000000000000000000000000000000000000000000007bffffffffffffffffffffffffffffffffffffffffffffffffffffffff1916827bffffffffffffffffffffffffffffffffffffffffffffffffffffffff1916148061070f575061070e82610d7e565b5b9050919050565b600660159054906101000a900460ff1681565b6007602052816000526040600020816008811061074557600080fd5b01600091509150505481565b600660009054906101000a900473ffffffffffffffffffffffffffffffffffffffff1681565b600060016000838152602001908152602001600020600101549050919050565b600c81815481106107a757600080fd5b906000526020600020016000915054906101000a900473ffffffffffffffffffffffffffffffffffffffff1681565b600a6020528060005260406000206000915090505481565b6107f782610777565b61080881610803610de8565b610df0565b6108128383610e8d565b505050565b61081f610de8565b73ffffffffffffffffffffffffffffffffffffffff168173ffffffffffffffffffffffffffffffffffffffff161461088c576040517f08c379a000000000000000000000000000000000000000000000000000000000815260040161088390611a08565b60405180910390fd5b6108968282610f6d565b5050565b60045481565b600660149054906101000a900460ff1681565b6108bb610de8565b73ffffffffffffffffffffffffffffffffffffffff166108d9610a1b565b73ffffffffffffffffffffffffffffffffffffffff161461092f576040517f08c379a0000000000000000000000000000000000000000000000000000000008152600401610926906119c8565b60405180910390fd5b610939600061104f565b565b601260009054906101000a900473ffffffffffffffffffffffffffffffffffffffff1681565b60035481565b6002805461097490611c53565b80601f01602080910402602001604051908101604052809291908181526020018280546109a090611c53565b80156109ed5780601f106109c2576101008083540402835291602001916109ed565b820191906000526020600020905b8154815290600101906020018083116109d057829003601f168201915b505050505081565b601060009054906101000a900473ffffffffffffffffffffffffffffffffffffffff1681565b60008060009054906101000a900473ffffffffffffffffffffffffffffffffffffffff16905090565b600b6020528060005260406000206000915054906101000a900460ff1681565b60006001600084815260200190815260200160002060000160008373ffffffffffffffffffffffffffffffffffffffff1673ffffffffffffffffffffffffffffffffffffffff16815260200190815260200160002060009054906101000a900460ff16905092915050565b6000801b81565b60086020528160005260406000208160058110610af257600080fd5b01600091509150505481565b610b0782610777565b610b1881610b13610de8565b610df0565b610b228383610f6d565b505050565b60096020528160005260406000208160088110610b4357600080fd5b01600091509150505481565b600660169054906101000a900460ff1681565b610b6a610de8565b73ffffffffffffffffffffffffffffffffffffffff16610b88610a1b565b73ffffffffffffffffffffffffffffffffffffffff1614610bde576040517f08c379a0000000000000000000000000000000000000000000000000000000008152600401610bd5906119c8565b60405180910390fd5b600073ffffffffffffffffffffffffffffffffffffffff168173ffffffffffffffffffffffffffffffffffffffff161415610c4e576040517f08c379a0000000000000000000000000000000000000000000000000000000008152600401610c45906119a8565b60405180910390fd5b610c578161104f565b50565b600560009054906101000a900473ffffffffffffffffffffffffffffffffffffffff1681565b6060610ca58383604051806060016040528060278152602001611f4560279139611113565b905092915050565b600080823b905060008111915050919050565b6000819050919050565b565b6000610cd66111e0565b73ffffffffffffffffffffffffffffffffffffffff16635c60da1b6040518163ffffffff1660e01b815260040160206040518083038186803b158015610d1b57600080fd5b505afa158015610d2f573d6000803e3d6000fd5b505050506040513d601f19601f82011682018060405250810190610d539190611570565b905090565b3660008037600080366000845af43d6000803e8060008114610d79573d6000f35b3d6000fd5b60007f01ffc9a7000000000000000000000000000000000000000000000000000000007bffffffffffffffffffffffffffffffffffffffffffffffffffffffff1916827bffffffffffffffffffffffffffffffffffffffffffffffffffffffff1916149050919050565b600033905090565b610dfa8282610a64565b610e8957610e1f8173ffffffffffffffffffffffffffffffffffffffff166014611237565b610e2d8360001c6020611237565b604051602001610e3e9291906118a5565b6040516020818303038152906040526040517f08c379a0000000000000000000000000000000000000000000000000000000008152600401610e809190611966565b60405180910390fd5b5050565b610e978282610a64565b610f6957600180600084815260200190815260200160002060000160008373ffffffffffffffffffffffffffffffffffffffff1673ffffffffffffffffffffffffffffffffffffffff16815260200190815260200160002060006101000a81548160ff021916908315150217905550610f0e610de8565b73ffffffffffffffffffffffffffffffffffffffff168173ffffffffffffffffffffffffffffffffffffffff16837f2f8788117e7eff1d82e926ec794901d17c78024a50270940304540a733656f0d60405160405180910390a45b5050565b610f778282610a64565b1561104b5760006001600084815260200190815260200160002060000160008373ffffffffffffffffffffffffffffffffffffffff1673ffffffffffffffffffffffffffffffffffffffff16815260200190815260200160002060006101000a81548160ff021916908315150217905550610ff0610de8565b73ffffffffffffffffffffffffffffffffffffffff168173ffffffffffffffffffffffffffffffffffffffff16837ff6391f5c32d9c69d2a47ea670b442974b53935d1edc7fd64eb21e047a839171b60405160405180910390a45b5050565b60008060009054906101000a900473ffffffffffffffffffffffffffffffffffffffff169050816000806101000a81548173ffffffffffffffffffffffffffffffffffffffff021916908373ffffffffffffffffffffffffffffffffffffffff1602179055508173ffffffffffffffffffffffffffffffffffffffff168173ffffffffffffffffffffffffffffffffffffffff167f8be0079c531659141344cd1fd0a4f28419497f9722a3daafe3b4186f6b6457e060405160405180910390a35050565b606061111e84610cad565b61115d576040517f08c379a0000000000000000000000000000000000000000000000000000000008152600401611154906119e8565b60405180910390fd5b6000808573ffffffffffffffffffffffffffffffffffffffff1685604051611185919061188e565b600060405180830381855af49150503d80600081146111c0576040519150601f19603f3d011682016040523d82523d6000602084013e6111c5565b606091505b50915091506111d5828286611473565b925050509392505050565b600061120e7fa3f0ad74e5423aebfd80d3ef4346578335a9a72aeaee59ff6cb3582b35133d5060001b610cc0565b60000160009054906101000a900473ffffffffffffffffffffffffffffffffffffffff16905090565b60606000600283600261124a9190611ad6565b6112549190611a80565b67ffffffffffffffff81111561126d5761126c611d12565b5b6040519080825280601f01601f19166020018201604052801561129f5781602001600182028036833780820191505090505b5090507f3000000000000000000000000000000000000000000000000000000000000000816000815181106112d7576112d6611ce3565b5b60200101907effffffffffffffffffffffffffffffffffffffffffffffffffffffffffffff1916908160001a9053507f78000000000000000000000000000000000000000000000000000000000000008160018151811061133b5761133a611ce3565b5b60200101907effffffffffffffffffffffffffffffffffffffffffffffffffffffffffffff1916908160001a9053506000600184600261137b9190611ad6565b6113859190611a80565b90505b6001811115611425577f3031323334353637383961626364656600000000000000000000000000000000600f8616601081106113c7576113c6611ce3565b5b1a60f81b8282815181106113de576113dd611ce3565b5b60200101907effffffffffffffffffffffffffffffffffffffffffffffffffffffffffffff1916908160001a905350600485901c94508061141e90611c29565b9050611388565b5060008414611469576040517f08c379a000000000000000000000000000000000000000000000000000000000815260040161146090611988565b60405180910390fd5b8091505092915050565b60608315611483578290506114d3565b6000835111156114965782518084602001fd5b816040517f08c379a00000000000000000000000000000000000000000000000000000000081526004016114ca9190611966565b60405180910390fd5b9392505050565b6000813590506114e981611ee8565b92915050565b6000815190506114fe81611ee8565b92915050565b60008135905061151381611eff565b92915050565b60008135905061152881611f16565b92915050565b60008135905061153d81611f2d565b92915050565b60006020828403121561155957611558611d41565b5b6000611567848285016114da565b91505092915050565b60006020828403121561158657611585611d41565b5b6000611594848285016114ef565b91505092915050565b600080604083850312156115b4576115b3611d41565b5b60006115c2858286016114da565b92505060206115d38582860161152e565b9150509250929050565b6000602082840312156115f3576115f2611d41565b5b600061160184828501611504565b91505092915050565b6000806040838503121561162157611620611d41565b5b600061162f85828601611504565b9250506020611640858286016114da565b9150509250929050565b6000602082840312156116605761165f611d41565b5b600061166e84828501611519565b91505092915050565b60006020828403121561168d5761168c611d41565b5b600061169b8482850161152e565b91505092915050565b6116ad81611b30565b82525050565b6116bc81611b42565b82525050565b6116cb81611b4e565b82525050565b60006116dc82611a43565b6116e68185611a59565b93506116f6818560208601611bf6565b80840191505092915050565b61170b81611bae565b82525050565b61171a81611bc0565b82525050565b600061172b82611a4e565b6117358185611a64565b9350611745818560208601611bf6565b61174e81611d46565b840191505092915050565b600061176482611a4e565b61176e8185611a75565b935061177e818560208601611bf6565b80840191505092915050565b6000611797602083611a64565b91506117a282611d57565b602082019050919050565b60006117ba602683611a64565b91506117c582611d80565b604082019050919050565b60006117dd602083611a64565b91506117e882611dcf565b602082019050919050565b6000611800602683611a64565b915061180b82611df8565b604082019050919050565b6000611823601783611a75565b915061182e82611e47565b601782019050919050565b6000611846601183611a75565b915061185182611e70565b601182019050919050565b6000611869602f83611a64565b915061187482611e99565b604082019050919050565b61188881611ba4565b82525050565b600061189a82846116d1565b915081905092915050565b60006118b082611816565b91506118bc8285611759565b91506118c782611839565b91506118d38284611759565b91508190509392505050565b60006020820190506118f460008301846116a4565b92915050565b600060208201905061190f60008301846116b3565b92915050565b600060208201905061192a60008301846116c2565b92915050565b60006020820190506119456000830184611702565b92915050565b60006020820190506119606000830184611711565b92915050565b600060208201905081810360008301526119808184611720565b905092915050565b600060208201905081810360008301526119a18161178a565b9050919050565b600060208201905081810360008301526119c1816117ad565b9050919050565b600060208201905081810360008301526119e1816117d0565b9050919050565b60006020820190508181036000830152611a01816117f3565b9050919050565b60006020820190508181036000830152611a218161185c565b9050919050565b6000602082019050611a3d600083018461187f565b92915050565b600081519050919050565b600081519050919050565b600081905092915050565b600082825260208201905092915050565b600081905092915050565b6000611a8b82611ba4565b9150611a9683611ba4565b9250827fffffffffffffffffffffffffffffffffffffffffffffffffffffffffffffffff03821115611acb57611aca611c85565b5b828201905092915050565b6000611ae182611ba4565b9150611aec83611ba4565b9250817fffffffffffffffffffffffffffffffffffffffffffffffffffffffffffffffff0483118215151615611b2557611b24611c85565b5b828202905092915050565b6000611b3b82611b84565b9050919050565b60008115159050919050565b6000819050919050565b60007fffffffff0000000000000000000000000000000000000000000000000000000082169050919050565b600073ffffffffffffffffffffffffffffffffffffffff82169050919050565b6000819050919050565b6000611bb982611bd2565b9050919050565b6000611bcb82611bd2565b9050919050565b6000611bdd82611be4565b9050919050565b6000611bef82611b84565b9050919050565b60005b83811015611c14578082015181840152602081019050611bf9565b83811115611c23576000848401525b50505050565b6000611c3482611ba4565b91506000821415611c4857611c47611c85565b5b600182039050919050565b60006002820490506001821680611c6b57607f821691505b60208210811415611c7f57611c7e611cb4565b5b50919050565b7f4e487b7100000000000000000000000000000000000000000000000000000000600052601160045260246000fd5b7f4e487b7100000000000000000000000000000000000000000000000000000000600052602260045260246000fd5b7f4e487b7100000000000000000000000000000000000000000000000000000000600052603260045260246000fd5b7f4e487b7100000000000000000000000000000000000000000000000000000000600052604160045260246000fd5b600080fd5b6000601f19601f8301169050919050565b7f537472696e67733a20686578206c656e67746820696e73756666696369656e74600082015250565b7f4f776e61626c653a206e6577206f776e657220697320746865207a65726f206160008201527f6464726573730000000000000000000000000000000000000000000000000000602082015250565b7f4f776e61626c653a2063616c6c6572206973206e6f7420746865206f776e6572600082015250565b7f416464726573733a2064656c65676174652063616c6c20746f206e6f6e2d636f60008201527f6e74726163740000000000000000000000000000000000000000000000000000602082015250565b7f416363657373436f6e74726f6c3a206163636f756e7420000000000000000000600082015250565b7f206973206d697373696e6720726f6c6520000000000000000000000000000000600082015250565b7f416363657373436f6e74726f6c3a2063616e206f6e6c792072656e6f756e636560008201527f20726f6c657320666f722073656c660000000000000000000000000000000000602082015250565b611ef181611b30565b8114611efc57600080fd5b50565b611f0881611b4e565b8114611f1357600080fd5b50565b611f1f81611b58565b8114611f2a57600080fd5b50565b611f3681611ba4565b8114611f4157600080fd5b5056fe416464726573733a206c6f772d6c6576656c2064656c65676174652063616c6c206661696c6564a2646970667358221220a81d805b7bab54be5732d50601dc857a02380376831a967bcf3039a87fb15ba964736f6c63430008070033416464726573733a206c6f772d6c6576656c2064656c65676174652063616c6c206661696c6564",
  "linkReferences": {},
  "deployedLinkReferences": {}
}