{
  "_format": "hh-sol-artifact-1",
  "contractName": "LeagueBeaconProxy",
  "sourceName": "contracts/LeagueBeaconProxy.sol",
  "abi": [
    {
      "inputs": [
        {
          "internalType": "address",
          "name": "beacon",
          "type": "address"
        },
        {
          "internalType": "bytes",
          "name": "data",
          "type": "bytes"
        }
      ],
      "stateMutability": "payable",
      "type": "constructor"
    },
    {
      "anonymous": false,
      "inputs": [
        {
          "indexed": false,
          "internalType": "address",
          "name": "previousAdmin",
          "type": "address"
        },
        {
          "indexed": false,
          "internalType": "address",
          "name": "newAdmin",
          "type": "address"
        }
      ],
      "name": "AdminChanged",
      "type": "event"
    },
    {
      "anonymous": false,
      "inputs": [
        {
          "indexed": true,
          "internalType": "address",
          "name": "beacon",
          "type": "address"
        }
      ],
      "name": "BeaconUpgraded",
      "type": "event"
    },
    {
      "anonymous": false,
      "inputs": [
        {
          "indexed": true,
          "internalType": "address",
          "name": "previousOwner",
          "type": "address"
        },
        {
          "indexed": true,
          "internalType": "address",
          "name": "newOwner",
          "type": "address"
        }
      ],
      "name": "OwnershipTransferred",
      "type": "event"
    },
    {
      "anonymous": false,
      "inputs": [
        {
          "indexed": true,
          "internalType": "bytes32",
          "name": "role",
          "type": "bytes32"
        },
        {
          "indexed": true,
          "internalType": "bytes32",
          "name": "previousAdminRole",
          "type": "bytes32"
        },
        {
          "indexed": true,
          "internalType": "bytes32",
          "name": "newAdminRole",
          "type": "bytes32"
        }
      ],
      "name": "RoleAdminChanged",
      "type": "event"
    },
    {
      "anonymous": false,
      "inputs": [
        {
          "indexed": true,
          "internalType": "bytes32",
          "name": "role",
          "type": "bytes32"
        },
        {
          "indexed": true,
          "internalType": "address",
          "name": "account",
          "type": "address"
        },
        {
          "indexed": true,
          "internalType": "address",
          "name": "sender",
          "type": "address"
        }
      ],
      "name": "RoleGranted",
      "type": "event"
    },
    {
      "anonymous": false,
      "inputs": [
        {
          "indexed": true,
          "internalType": "bytes32",
          "name": "role",
          "type": "bytes32"
        },
        {
          "indexed": true,
          "internalType": "address",
          "name": "account",
          "type": "address"
        },
        {
          "indexed": true,
          "internalType": "address",
          "name": "sender",
          "type": "address"
        }
      ],
      "name": "RoleRevoked",
      "type": "event"
    },
    {
      "anonymous": false,
      "inputs": [
        {
          "indexed": false,
          "internalType": "address",
          "name": "sender",
          "type": "address"
        },
        {
          "indexed": false,
          "internalType": "uint256",
          "name": "amount",
          "type": "uint256"
        }
      ],
      "name": "Staked",
      "type": "event"
    },
    {
      "anonymous": false,
      "inputs": [
        {
          "indexed": true,
          "internalType": "address",
          "name": "implementation",
          "type": "address"
        }
      ],
      "name": "Upgraded",
      "type": "event"
    },
    {
      "anonymous": false,
      "inputs": [
        {
          "indexed": false,
          "internalType": "address",
          "name": "addr",
          "type": "address"
        }
      ],
      "name": "WhitelistedAddressAdded",
      "type": "event"
    },
    {
      "anonymous": false,
      "inputs": [
        {
          "indexed": false,
          "internalType": "address",
          "name": "addr",
          "type": "address"
        }
      ],
      "name": "WhitelistedAddressRemoved",
      "type": "event"
    },
    {
      "stateMutability": "payable",
      "type": "fallback"
    },
    {
      "inputs": [],
      "name": "DEFAULT_ADMIN_ROLE",
      "outputs": [
        {
          "internalType": "bytes32",
          "name": "",
          "type": "bytes32"
        }
      ],
      "stateMutability": "view",
      "type": "function"
    },
    {
      "inputs": [
        {
          "internalType": "address",
          "name": "addr",
          "type": "address"
        }
      ],
      "name": "addAddressToWhitelist",
      "outputs": [
        {
          "internalType": "bool",
          "name": "success",
          "type": "bool"
        }
      ],
      "stateMutability": "nonpayable",
      "type": "function"
    },
    {
      "inputs": [
        {
          "internalType": "address[]",
          "name": "addrs",
          "type": "address[]"
        }
      ],
      "name": "addAddressesToWhitelist",
      "outputs": [
        {
          "internalType": "bool",
          "name": "success",
          "type": "bool"
        }
      ],
      "stateMutability": "nonpayable",
      "type": "function"
    },
    {
      "inputs": [],
      "name": "currentWeekNum",
      "outputs": [
        {
          "internalType": "uint256",
          "name": "",
          "type": "uint256"
        }
      ],
      "stateMutability": "view",
      "type": "function"
    },
    {
      "inputs": [],
      "name": "getNumWhitelisted",
      "outputs": [
        {
          "internalType": "uint256",
          "name": "",
          "type": "uint256"
        }
      ],
      "stateMutability": "view",
      "type": "function"
    },
    {
      "inputs": [
        {
          "internalType": "bytes32",
          "name": "role",
          "type": "bytes32"
        }
      ],
      "name": "getRoleAdmin",
      "outputs": [
        {
          "internalType": "bytes32",
          "name": "",
          "type": "bytes32"
        }
      ],
      "stateMutability": "view",
      "type": "function"
    },
    {
      "inputs": [
        {
          "internalType": "bytes32",
          "name": "role",
          "type": "bytes32"
        },
        {
          "internalType": "address",
          "name": "account",
          "type": "address"
        }
      ],
      "name": "grantRole",
      "outputs": [],
      "stateMutability": "nonpayable",
      "type": "function"
    },
    {
      "inputs": [
        {
          "internalType": "bytes32",
          "name": "role",
          "type": "bytes32"
        },
        {
          "internalType": "address",
          "name": "account",
          "type": "address"
        }
      ],
      "name": "hasRole",
      "outputs": [
        {
          "internalType": "bool",
          "name": "",
          "type": "bool"
        }
      ],
      "stateMutability": "view",
      "type": "function"
    },
    {
      "inputs": [],
      "name": "isPublic",
      "outputs": [
        {
          "internalType": "bool",
          "name": "",
          "type": "bool"
        }
      ],
      "stateMutability": "view",
      "type": "function"
    },
    {
      "inputs": [
        {
          "internalType": "uint256",
          "name": "",
          "type": "uint256"
        }
      ],
      "name": "leagueMembers",
      "outputs": [
        {
          "internalType": "address",
          "name": "",
          "type": "address"
        }
      ],
      "stateMutability": "view",
      "type": "function"
    },
    {
      "inputs": [],
      "name": "leagueName",
      "outputs": [
        {
          "internalType": "string",
          "name": "",
          "type": "string"
        }
      ],
      "stateMutability": "view",
      "type": "function"
    },
    {
      "inputs": [],
      "name": "numWeeks",
      "outputs": [
        {
          "internalType": "uint256",
          "name": "",
          "type": "uint256"
        }
      ],
      "stateMutability": "view",
      "type": "function"
    },
    {
      "inputs": [],
      "name": "owner",
      "outputs": [
        {
          "internalType": "address",
          "name": "",
          "type": "address"
        }
      ],
      "stateMutability": "view",
      "type": "function"
    },
    {
      "inputs": [],
      "name": "polygonUSDCAddress",
      "outputs": [
        {
          "internalType": "address",
          "name": "",
          "type": "address"
        }
      ],
      "stateMutability": "view",
      "type": "function"
    },
    {
      "inputs": [
        {
          "internalType": "address",
          "name": "addr",
          "type": "address"
        }
      ],
      "name": "removeAddressFromWhitelist",
      "outputs": [
        {
          "internalType": "bool",
          "name": "success",
          "type": "bool"
        }
      ],
      "stateMutability": "nonpayable",
      "type": "function"
    },
    {
      "inputs": [
        {
          "internalType": "address[]",
          "name": "addrs",
          "type": "address[]"
        }
      ],
      "name": "removeAddressesFromWhitelist",
      "outputs": [
        {
          "internalType": "bool",
          "name": "success",
          "type": "bool"
        }
      ],
      "stateMutability": "nonpayable",
      "type": "function"
    },
    {
      "inputs": [],
      "name": "renounceOwnership",
      "outputs": [],
      "stateMutability": "nonpayable",
      "type": "function"
    },
    {
      "inputs": [
        {
          "internalType": "bytes32",
          "name": "role",
          "type": "bytes32"
        },
        {
          "internalType": "address",
          "name": "account",
          "type": "address"
        }
      ],
      "name": "renounceRole",
      "outputs": [],
      "stateMutability": "nonpayable",
      "type": "function"
    },
    {
      "inputs": [
        {
          "internalType": "bytes32",
          "name": "role",
          "type": "bytes32"
        },
        {
          "internalType": "address",
          "name": "account",
          "type": "address"
        }
      ],
      "name": "revokeRole",
      "outputs": [],
      "stateMutability": "nonpayable",
      "type": "function"
    },
    {
      "inputs": [],
      "name": "rinkebyUSDCAddress",
      "outputs": [
        {
          "internalType": "address",
          "name": "",
          "type": "address"
        }
      ],
      "stateMutability": "view",
      "type": "function"
    },
    {
      "inputs": [],
      "name": "stakeAmount",
      "outputs": [
        {
          "internalType": "uint256",
          "name": "",
          "type": "uint256"
        }
      ],
      "stateMutability": "view",
      "type": "function"
    },
    {
      "inputs": [
        {
          "internalType": "bytes4",
          "name": "interfaceId",
          "type": "bytes4"
        }
      ],
      "name": "supportsInterface",
      "outputs": [
        {
          "internalType": "bool",
          "name": "",
          "type": "bool"
        }
      ],
      "stateMutability": "view",
      "type": "function"
    },
    {
      "inputs": [
        {
          "internalType": "address",
          "name": "newOwner",
          "type": "address"
        }
      ],
      "name": "transferOwnership",
      "outputs": [],
      "stateMutability": "nonpayable",
      "type": "function"
    },
    {
      "inputs": [
        {
          "internalType": "address",
          "name": "",
          "type": "address"
        },
        {
          "internalType": "uint256",
          "name": "",
          "type": "uint256"
        }
      ],
      "name": "userToRecord",
      "outputs": [
        {
          "internalType": "uint256",
          "name": "",
          "type": "uint256"
        }
      ],
      "stateMutability": "view",
      "type": "function"
    },
    {
      "inputs": [],
      "name": "version",
      "outputs": [
        {
          "internalType": "uint256",
          "name": "",
          "type": "uint256"
        }
      ],
      "stateMutability": "view",
      "type": "function"
    },
    {
      "inputs": [
        {
          "internalType": "address",
          "name": "",
          "type": "address"
        }
      ],
      "name": "whitelist",
      "outputs": [
        {
          "internalType": "bool",
          "name": "",
          "type": "bool"
        }
      ],
      "stateMutability": "view",
      "type": "function"
    },
    {
      "stateMutability": "payable",
      "type": "receive"
    }
  ],
  "bytecode": "0x608060405260405162003137380380620031378339818101604052810190620000299190620006bb565b620000496200003d620000cf60201b60201c565b620000d760201b60201c565b60017fa3f0ad74e5423aebfd80d3ef4346578335a9a72aeaee59ff6cb3582b35133d5160001c6200007b919062000942565b60001b7fa3f0ad74e5423aebfd80d3ef4346578335a9a72aeaee59ff6cb3582b35133d5060001b14620000b357620000b262000a27565b5b620000c7828260006200019b60201b60201c565b505062000be0565b600033905090565b60008060009054906101000a900473ffffffffffffffffffffffffffffffffffffffff169050816000806101000a81548173ffffffffffffffffffffffffffffffffffffffff021916908373ffffffffffffffffffffffffffffffffffffffff1602179055508173ffffffffffffffffffffffffffffffffffffffff168173ffffffffffffffffffffffffffffffffffffffff167f8be0079c531659141344cd1fd0a4f28419497f9722a3daafe3b4186f6b6457e060405160405180910390a35050565b620001ac83620002a260201b60201c565b8273ffffffffffffffffffffffffffffffffffffffff167f1cf3b03a6cf19fa2baba4df148e9dcabedea7f8a5c07840e207e5c089be95d3e60405160405180910390a2600082511180620001fd5750805b156200029d576200029b8373ffffffffffffffffffffffffffffffffffffffff16635c60da1b6040518163ffffffff1660e01b815260040160206040518083038186803b1580156200024e57600080fd5b505afa15801562000263573d6000803e3d6000fd5b505050506040513d601f19601f8201168201806040525081019062000289919062000689565b836200045160201b620010a61760201c565b505b505050565b620002b8816200048760201b620010d31760201c565b620002fa576040517f08c379a0000000000000000000000000000000000000000000000000000000008152600401620002f1906200084b565b60405180910390fd5b620003918173ffffffffffffffffffffffffffffffffffffffff16635c60da1b6040518163ffffffff1660e01b815260040160206040518083038186803b1580156200034557600080fd5b505afa1580156200035a573d6000803e3d6000fd5b505050506040513d601f19601f8201168201806040525081019062000380919062000689565b6200048760201b620010d31760201c565b620003d3576040517f08c379a0000000000000000000000000000000000000000000000000000000008152600401620003ca906200088f565b60405180910390fd5b806200040d7fa3f0ad74e5423aebfd80d3ef4346578335a9a72aeaee59ff6cb3582b35133d5060001b6200049a60201b620010e61760201c565b60000160006101000a81548173ffffffffffffffffffffffffffffffffffffffff021916908373ffffffffffffffffffffffffffffffffffffffff16021790555050565b60606200047f83836040518060600160405280602781526020016200311060279139620004a460201b60201c565b905092915050565b600080823b905060008111915050919050565b6000819050919050565b6060620004b7846200048760201b60201c565b620004f9576040517f08c379a0000000000000000000000000000000000000000000000000000000008152600401620004f0906200086d565b60405180910390fd5b6000808573ffffffffffffffffffffffffffffffffffffffff16856040516200052391906200080e565b600060405180830381855af49150503d806000811462000560576040519150601f19603f3d011682016040523d82523d6000602084013e62000565565b606091505b50915091506200057d8282866200058860201b60201c565b925050509392505050565b606083156200059a57829050620005ed565b600083511115620005ae5782518084602001fd5b816040517f08c379a0000000000000000000000000000000000000000000000000000000008152600401620005e4919062000827565b60405180910390fd5b9392505050565b60006200060b6200060584620008da565b620008b1565b9050828152602081018484840111156200062a576200062962000ab9565b5b62000637848285620009bb565b509392505050565b600081519050620006508162000bc6565b92915050565b600082601f8301126200066e576200066d62000ab4565b5b815162000680848260208601620005f4565b91505092915050565b600060208284031215620006a257620006a162000ac3565b5b6000620006b2848285016200063f565b91505092915050565b60008060408385031215620006d557620006d462000ac3565b5b6000620006e5858286016200063f565b925050602083015167ffffffffffffffff81111562000709576200070862000abe565b5b620007178582860162000656565b9150509250929050565b60006200072e8262000910565b6200073a818562000926565b93506200074c818560208601620009bb565b80840191505092915050565b600062000765826200091b565b62000771818562000931565b935062000783818560208601620009bb565b6200078e8162000ac8565b840191505092915050565b6000620007a860258362000931565b9150620007b58262000ad9565b604082019050919050565b6000620007cf60268362000931565b9150620007dc8262000b28565b604082019050919050565b6000620007f660308362000931565b9150620008038262000b77565b604082019050919050565b60006200081c828462000721565b915081905092915050565b6000602082019050818103600083015262000843818462000758565b905092915050565b60006020820190508181036000830152620008668162000799565b9050919050565b600060208201905081810360008301526200088881620007c0565b9050919050565b60006020820190508181036000830152620008aa81620007e7565b9050919050565b6000620008bd620008d0565b9050620008cb8282620009f1565b919050565b6000604051905090565b600067ffffffffffffffff821115620008f857620008f762000a85565b5b620009038262000ac8565b9050602081019050919050565b600081519050919050565b600081519050919050565b600081905092915050565b600082825260208201905092915050565b60006200094f82620009b1565b91506200095c83620009b1565b92508282101562000972576200097162000a56565b5b828203905092915050565b60006200098a8262000991565b9050919050565b600073ffffffffffffffffffffffffffffffffffffffff82169050919050565b6000819050919050565b60005b83811015620009db578082015181840152602081019050620009be565b83811115620009eb576000848401525b50505050565b620009fc8262000ac8565b810181811067ffffffffffffffff8211171562000a1e5762000a1d62000a85565b5b80604052505050565b7f4e487b7100000000000000000000000000000000000000000000000000000000600052600160045260246000fd5b7f4e487b7100000000000000000000000000000000000000000000000000000000600052601160045260246000fd5b7f4e487b7100000000000000000000000000000000000000000000000000000000600052604160045260246000fd5b600080fd5b600080fd5b600080fd5b600080fd5b6000601f19601f8301169050919050565b7f455243313936373a206e657720626561636f6e206973206e6f74206120636f6e60008201527f7472616374000000000000000000000000000000000000000000000000000000602082015250565b7f416464726573733a2064656c65676174652063616c6c20746f206e6f6e2d636f60008201527f6e74726163740000000000000000000000000000000000000000000000000000602082015250565b7f455243313936373a20626561636f6e20696d706c656d656e746174696f6e206960008201527f73206e6f74206120636f6e747261637400000000000000000000000000000000602082015250565b62000bd1816200097d565b811462000bdd57600080fd5b50565b6125208062000bf06000396000f3fe6080604052600436106101845760003560e01c8063715018a6116100d157806393f3706c1161008a578063d547741f11610064578063d547741f146105d9578063dc9a153514610602578063e2ec6ec31461062d578063f2fde38b1461066a57610193565b806393f3706c146105465780639b19251a14610571578063a217fddf146105ae57610193565b8063715018a6146104345780637b9417c81461044b5780637eed33f114610488578063841abf6e146104b35780638da5cb5b146104de57806391d148541461050957610193565b8063286dd3f51161013e57806344eaa84e1161011857806344eaa84e1461038857806352e6e5f3146103b357806354fd4d50146103de57806360c7dc471461040957610193565b8063286dd3f5146102f95780632f2ff15d1461033657806336568abe1461035f57610193565b8062b2476f1461019d57806301ffc9a7146101c85780630c6f795914610205578063248a9ca31461024257806324953eaa1461027f578063267175db146102bc57610193565b3661019357610191610693565b005b61019b610693565b005b3480156101a957600080fd5b506101b26106ad565b6040516101bf9190611dce565b60405180910390f35b3480156101d457600080fd5b506101ef60048036038101906101ea9190611b57565b6106d3565b6040516101fc9190611de9565b60405180910390f35b34801561021157600080fd5b5061022c60048036038101906102279190611a61565b61074d565b6040516102399190611ee1565b60405180910390f35b34801561024e57600080fd5b5061026960048036038101906102649190611aea565b610775565b6040516102769190611e04565b60405180910390f35b34801561028b57600080fd5b506102a660048036038101906102a19190611aa1565b610795565b6040516102b39190611de9565b60405180910390f35b3480156102c857600080fd5b506102e360048036038101906102de9190611b84565b61087f565b6040516102f09190611dce565b60405180910390f35b34801561030557600080fd5b50610320600480360381019061031b9190611a07565b6108be565b60405161032d9190611de9565b60405180910390f35b34801561034257600080fd5b5061035d60048036038101906103589190611b17565b610a41565b005b34801561036b57600080fd5b5061038660048036038101906103819190611b17565b610a6a565b005b34801561039457600080fd5b5061039d610aed565b6040516103aa9190611ee1565b60405180910390f35b3480156103bf57600080fd5b506103c8610af7565b6040516103d59190611ee1565b60405180910390f35b3480156103ea57600080fd5b506103f3610afd565b6040516104009190611ee1565b60405180910390f35b34801561041557600080fd5b5061041e610b03565b60405161042b9190611ee1565b60405180910390f35b34801561044057600080fd5b50610449610b09565b005b34801561045757600080fd5b50610472600480360381019061046d9190611a07565b610b91565b60405161047f9190611de9565b60405180910390f35b34801561049457600080fd5b5061049d610d13565b6040516104aa9190611ee1565b60405180910390f35b3480156104bf57600080fd5b506104c8610d19565b6040516104d59190611e1f565b60405180910390f35b3480156104ea57600080fd5b506104f3610da7565b6040516105009190611dce565b60405180910390f35b34801561051557600080fd5b50610530600480360381019061052b9190611b17565b610dd0565b60405161053d9190611de9565b60405180910390f35b34801561055257600080fd5b5061055b610e3b565b6040516105689190611dce565b60405180910390f35b34801561057d57600080fd5b5061059860048036038101906105939190611a07565b610e61565b6040516105a59190611de9565b60405180910390f35b3480156105ba57600080fd5b506105c3610e81565b6040516105d09190611e04565b60405180910390f35b3480156105e557600080fd5b5061060060048036038101906105fb9190611b17565b610e88565b005b34801561060e57600080fd5b50610617610eb1565b6040516106249190611de9565b60405180910390f35b34801561063957600080fd5b50610654600480360381019061064f9190611aa1565b610ec4565b6040516106619190611de9565b60405180910390f35b34801561067657600080fd5b50610691600480360381019061068c9190611a07565b610fae565b005b61069b6110f0565b6106ab6106a66110f2565b61117e565b565b601260009054906101000a900473ffffffffffffffffffffffffffffffffffffffff1681565b60007f7965db0b000000000000000000000000000000000000000000000000000000007bffffffffffffffffffffffffffffffffffffffffffffffffffffffff1916827bffffffffffffffffffffffffffffffffffffffffffffffffffffffff191614806107465750610745826111a4565b5b9050919050565b600c602052816000526040600020816008811061076957600080fd5b01600091509150505481565b600060016000838152602001908152602001600020600101549050919050565b600061079f61120e565b73ffffffffffffffffffffffffffffffffffffffff166107bd610da7565b73ffffffffffffffffffffffffffffffffffffffff1614610813576040517f08c379a000000000000000000000000000000000000000000000000000000000815260040161080a90611e81565b60405180910390fd5b60005b82518110156108795761084283828151811061083557610834612253565b5b60200260200101516108be565b156108665760016003600082825461085a919061203a565b92505081905550600191505b8080610871906121ac565b915050610816565b50919050565b6009818154811061088f57600080fd5b906000526020600020016000915054906101000a900473ffffffffffffffffffffffffffffffffffffffff1681565b60006108c861120e565b73ffffffffffffffffffffffffffffffffffffffff166108e6610da7565b73ffffffffffffffffffffffffffffffffffffffff161461093c576040517f08c379a000000000000000000000000000000000000000000000000000000000815260040161093390611e81565b60405180910390fd5b600260008373ffffffffffffffffffffffffffffffffffffffff1673ffffffffffffffffffffffffffffffffffffffff16815260200190815260200160002060009054906101000a900460ff1615610a3c576000600260008473ffffffffffffffffffffffffffffffffffffffff1673ffffffffffffffffffffffffffffffffffffffff16815260200190815260200160002060006101000a81548160ff0219169083151502179055507ff1abf01a1043b7c244d128e8595cf0c1d10743b022b03a02dffd8ca3bf729f5a82604051610a159190611dce565b60405180910390a1600160036000828254610a30919061203a565b92505081905550600190505b919050565b610a4a82610775565b610a5b81610a5661120e565b611216565b610a6583836112b3565b505050565b610a7261120e565b73ffffffffffffffffffffffffffffffffffffffff168173ffffffffffffffffffffffffffffffffffffffff1614610adf576040517f08c379a0000000000000000000000000000000000000000000000000000000008152600401610ad690611ec1565b60405180910390fd5b610ae98282611393565b5050565b6000600354905090565b60085481565b60055481565b600f5481565b610b1161120e565b73ffffffffffffffffffffffffffffffffffffffff16610b2f610da7565b73ffffffffffffffffffffffffffffffffffffffff1614610b85576040517f08c379a0000000000000000000000000000000000000000000000000000000008152600401610b7c90611e81565b60405180910390fd5b610b8f6000611475565b565b6000610b9b61120e565b73ffffffffffffffffffffffffffffffffffffffff16610bb9610da7565b73ffffffffffffffffffffffffffffffffffffffff1614610c0f576040517f08c379a0000000000000000000000000000000000000000000000000000000008152600401610c0690611e81565b60405180910390fd5b600260008373ffffffffffffffffffffffffffffffffffffffff1673ffffffffffffffffffffffffffffffffffffffff16815260200190815260200160002060009054906101000a900460ff16610d0e576001600260008473ffffffffffffffffffffffffffffffffffffffff1673ffffffffffffffffffffffffffffffffffffffff16815260200190815260200160002060006101000a81548160ff0219169083151502179055507fd1bba68c128cc3f427e5831b3c6f99f480b6efa6b9e80c757768f6124158cc3f82604051610ce79190611dce565b60405180910390a1600160036000828254610d029190611f8a565b92505081905550600190505b919050565b60075481565b60068054610d2690612149565b80601f0160208091040260200160405190810160405280929190818152602001828054610d5290612149565b8015610d9f5780601f10610d7457610100808354040283529160200191610d9f565b820191906000526020600020905b815481529060010190602001808311610d8257829003601f168201915b505050505081565b60008060009054906101000a900473ffffffffffffffffffffffffffffffffffffffff16905090565b60006001600084815260200190815260200160002060000160008373ffffffffffffffffffffffffffffffffffffffff1673ffffffffffffffffffffffffffffffffffffffff16815260200190815260200160002060009054906101000a900460ff16905092915050565b601160009054906101000a900473ffffffffffffffffffffffffffffffffffffffff1681565b60026020528060005260406000206000915054906101000a900460ff1681565b6000801b81565b610e9182610775565b610ea281610e9d61120e565b611216565b610eac8383611393565b505050565b600460009054906101000a900460ff1681565b6000610ece61120e565b73ffffffffffffffffffffffffffffffffffffffff16610eec610da7565b73ffffffffffffffffffffffffffffffffffffffff1614610f42576040517f08c379a0000000000000000000000000000000000000000000000000000000008152600401610f3990611e81565b60405180910390fd5b60005b8251811015610fa857610f71838281518110610f6457610f63612253565b5b6020026020010151610b91565b15610f9557600160036000828254610f899190611f8a565b92505081905550600191505b8080610fa0906121ac565b915050610f45565b50919050565b610fb661120e565b73ffffffffffffffffffffffffffffffffffffffff16610fd4610da7565b73ffffffffffffffffffffffffffffffffffffffff161461102a576040517f08c379a000000000000000000000000000000000000000000000000000000000815260040161102190611e81565b60405180910390fd5b600073ffffffffffffffffffffffffffffffffffffffff168173ffffffffffffffffffffffffffffffffffffffff16141561109a576040517f08c379a000000000000000000000000000000000000000000000000000000000815260040161109190611e61565b60405180910390fd5b6110a381611475565b50565b60606110cb83836040518060600160405280602781526020016124c460279139611539565b905092915050565b600080823b905060008111915050919050565b6000819050919050565b565b60006110fc611606565b73ffffffffffffffffffffffffffffffffffffffff16635c60da1b6040518163ffffffff1660e01b815260040160206040518083038186803b15801561114157600080fd5b505afa158015611155573d6000803e3d6000fd5b505050506040513d601f19601f820116820180604052508101906111799190611a34565b905090565b3660008037600080366000845af43d6000803e806000811461119f573d6000f35b3d6000fd5b60007f01ffc9a7000000000000000000000000000000000000000000000000000000007bffffffffffffffffffffffffffffffffffffffffffffffffffffffff1916827bffffffffffffffffffffffffffffffffffffffffffffffffffffffff1916149050919050565b600033905090565b6112208282610dd0565b6112af576112458173ffffffffffffffffffffffffffffffffffffffff16601461165d565b6112538360001c602061165d565b604051602001611264929190611d94565b6040516020818303038152906040526040517f08c379a00000000000000000000000000000000000000000000000000000000081526004016112a69190611e1f565b60405180910390fd5b5050565b6112bd8282610dd0565b61138f57600180600084815260200190815260200160002060000160008373ffffffffffffffffffffffffffffffffffffffff1673ffffffffffffffffffffffffffffffffffffffff16815260200190815260200160002060006101000a81548160ff02191690831515021790555061133461120e565b73ffffffffffffffffffffffffffffffffffffffff168173ffffffffffffffffffffffffffffffffffffffff16837f2f8788117e7eff1d82e926ec794901d17c78024a50270940304540a733656f0d60405160405180910390a45b5050565b61139d8282610dd0565b156114715760006001600084815260200190815260200160002060000160008373ffffffffffffffffffffffffffffffffffffffff1673ffffffffffffffffffffffffffffffffffffffff16815260200190815260200160002060006101000a81548160ff02191690831515021790555061141661120e565b73ffffffffffffffffffffffffffffffffffffffff168173ffffffffffffffffffffffffffffffffffffffff16837ff6391f5c32d9c69d2a47ea670b442974b53935d1edc7fd64eb21e047a839171b60405160405180910390a45b5050565b60008060009054906101000a900473ffffffffffffffffffffffffffffffffffffffff169050816000806101000a81548173ffffffffffffffffffffffffffffffffffffffff021916908373ffffffffffffffffffffffffffffffffffffffff1602179055508173ffffffffffffffffffffffffffffffffffffffff168173ffffffffffffffffffffffffffffffffffffffff167f8be0079c531659141344cd1fd0a4f28419497f9722a3daafe3b4186f6b6457e060405160405180910390a35050565b6060611544846110d3565b611583576040517f08c379a000000000000000000000000000000000000000000000000000000000815260040161157a90611ea1565b60405180910390fd5b6000808573ffffffffffffffffffffffffffffffffffffffff16856040516115ab9190611d7d565b600060405180830381855af49150503d80600081146115e6576040519150601f19603f3d011682016040523d82523d6000602084013e6115eb565b606091505b50915091506115fb828286611899565b925050509392505050565b60006116347fa3f0ad74e5423aebfd80d3ef4346578335a9a72aeaee59ff6cb3582b35133d5060001b6110e6565b60000160009054906101000a900473ffffffffffffffffffffffffffffffffffffffff16905090565b6060600060028360026116709190611fe0565b61167a9190611f8a565b67ffffffffffffffff81111561169357611692612282565b5b6040519080825280601f01601f1916602001820160405280156116c55781602001600182028036833780820191505090505b5090507f3000000000000000000000000000000000000000000000000000000000000000816000815181106116fd576116fc612253565b5b60200101907effffffffffffffffffffffffffffffffffffffffffffffffffffffffffffff1916908160001a9053507f78000000000000000000000000000000000000000000000000000000000000008160018151811061176157611760612253565b5b60200101907effffffffffffffffffffffffffffffffffffffffffffffffffffffffffffff1916908160001a905350600060018460026117a19190611fe0565b6117ab9190611f8a565b90505b600181111561184b577f3031323334353637383961626364656600000000000000000000000000000000600f8616601081106117ed576117ec612253565b5b1a60f81b82828151811061180457611803612253565b5b60200101907effffffffffffffffffffffffffffffffffffffffffffffffffffffffffffff1916908160001a905350600485901c9450806118449061211f565b90506117ae565b506000841461188f576040517f08c379a000000000000000000000000000000000000000000000000000000000815260040161188690611e41565b60405180910390fd5b8091505092915050565b606083156118a9578290506118f9565b6000835111156118bc5782518084602001fd5b816040517f08c379a00000000000000000000000000000000000000000000000000000000081526004016118f09190611e1f565b60405180910390fd5b9392505050565b600061191361190e84611f21565b611efc565b90508083825260208201905082856020860282011115611936576119356122b6565b5b60005b85811015611966578161194c8882611970565b845260208401935060208301925050600181019050611939565b5050509392505050565b60008135905061197f81612467565b92915050565b60008151905061199481612467565b92915050565b600082601f8301126119af576119ae6122b1565b5b81356119bf848260208601611900565b91505092915050565b6000813590506119d78161247e565b92915050565b6000813590506119ec81612495565b92915050565b600081359050611a01816124ac565b92915050565b600060208284031215611a1d57611a1c6122c0565b5b6000611a2b84828501611970565b91505092915050565b600060208284031215611a4a57611a496122c0565b5b6000611a5884828501611985565b91505092915050565b60008060408385031215611a7857611a776122c0565b5b6000611a8685828601611970565b9250506020611a97858286016119f2565b9150509250929050565b600060208284031215611ab757611ab66122c0565b5b600082013567ffffffffffffffff811115611ad557611ad46122bb565b5b611ae18482850161199a565b91505092915050565b600060208284031215611b0057611aff6122c0565b5b6000611b0e848285016119c8565b91505092915050565b60008060408385031215611b2e57611b2d6122c0565b5b6000611b3c858286016119c8565b9250506020611b4d85828601611970565b9150509250929050565b600060208284031215611b6d57611b6c6122c0565b5b6000611b7b848285016119dd565b91505092915050565b600060208284031215611b9a57611b996122c0565b5b6000611ba8848285016119f2565b91505092915050565b611bba8161206e565b82525050565b611bc981612080565b82525050565b611bd88161208c565b82525050565b6000611be982611f4d565b611bf38185611f63565b9350611c038185602086016120ec565b80840191505092915050565b6000611c1a82611f58565b611c248185611f6e565b9350611c348185602086016120ec565b611c3d816122c5565b840191505092915050565b6000611c5382611f58565b611c5d8185611f7f565b9350611c6d8185602086016120ec565b80840191505092915050565b6000611c86602083611f6e565b9150611c91826122d6565b602082019050919050565b6000611ca9602683611f6e565b9150611cb4826122ff565b604082019050919050565b6000611ccc602083611f6e565b9150611cd78261234e565b602082019050919050565b6000611cef602683611f6e565b9150611cfa82612377565b604082019050919050565b6000611d12601783611f7f565b9150611d1d826123c6565b601782019050919050565b6000611d35601183611f7f565b9150611d40826123ef565b601182019050919050565b6000611d58602f83611f6e565b9150611d6382612418565b604082019050919050565b611d77816120e2565b82525050565b6000611d898284611bde565b915081905092915050565b6000611d9f82611d05565b9150611dab8285611c48565b9150611db682611d28565b9150611dc28284611c48565b91508190509392505050565b6000602082019050611de36000830184611bb1565b92915050565b6000602082019050611dfe6000830184611bc0565b92915050565b6000602082019050611e196000830184611bcf565b92915050565b60006020820190508181036000830152611e398184611c0f565b905092915050565b60006020820190508181036000830152611e5a81611c79565b9050919050565b60006020820190508181036000830152611e7a81611c9c565b9050919050565b60006020820190508181036000830152611e9a81611cbf565b9050919050565b60006020820190508181036000830152611eba81611ce2565b9050919050565b60006020820190508181036000830152611eda81611d4b565b9050919050565b6000602082019050611ef66000830184611d6e565b92915050565b6000611f06611f17565b9050611f12828261217b565b919050565b6000604051905090565b600067ffffffffffffffff821115611f3c57611f3b612282565b5b602082029050602081019050919050565b600081519050919050565b600081519050919050565b600081905092915050565b600082825260208201905092915050565b600081905092915050565b6000611f95826120e2565b9150611fa0836120e2565b9250827fffffffffffffffffffffffffffffffffffffffffffffffffffffffffffffffff03821115611fd557611fd46121f5565b5b828201905092915050565b6000611feb826120e2565b9150611ff6836120e2565b9250817fffffffffffffffffffffffffffffffffffffffffffffffffffffffffffffffff048311821515161561202f5761202e6121f5565b5b828202905092915050565b6000612045826120e2565b9150612050836120e2565b925082821015612063576120626121f5565b5b828203905092915050565b6000612079826120c2565b9050919050565b60008115159050919050565b6000819050919050565b60007fffffffff0000000000000000000000000000000000000000000000000000000082169050919050565b600073ffffffffffffffffffffffffffffffffffffffff82169050919050565b6000819050919050565b60005b8381101561210a5780820151818401526020810190506120ef565b83811115612119576000848401525b50505050565b600061212a826120e2565b9150600082141561213e5761213d6121f5565b5b600182039050919050565b6000600282049050600182168061216157607f821691505b6020821081141561217557612174612224565b5b50919050565b612184826122c5565b810181811067ffffffffffffffff821117156121a3576121a2612282565b5b80604052505050565b60006121b7826120e2565b91507fffffffffffffffffffffffffffffffffffffffffffffffffffffffffffffffff8214156121ea576121e96121f5565b5b600182019050919050565b7f4e487b7100000000000000000000000000000000000000000000000000000000600052601160045260246000fd5b7f4e487b7100000000000000000000000000000000000000000000000000000000600052602260045260246000fd5b7f4e487b7100000000000000000000000000000000000000000000000000000000600052603260045260246000fd5b7f4e487b7100000000000000000000000000000000000000000000000000000000600052604160045260246000fd5b600080fd5b600080fd5b600080fd5b600080fd5b6000601f19601f8301169050919050565b7f537472696e67733a20686578206c656e67746820696e73756666696369656e74600082015250565b7f4f776e61626c653a206e6577206f776e657220697320746865207a65726f206160008201527f6464726573730000000000000000000000000000000000000000000000000000602082015250565b7f4f776e61626c653a2063616c6c6572206973206e6f7420746865206f776e6572600082015250565b7f416464726573733a2064656c65676174652063616c6c20746f206e6f6e2d636f60008201527f6e74726163740000000000000000000000000000000000000000000000000000602082015250565b7f416363657373436f6e74726f6c3a206163636f756e7420000000000000000000600082015250565b7f206973206d697373696e6720726f6c6520000000000000000000000000000000600082015250565b7f416363657373436f6e74726f6c3a2063616e206f6e6c792072656e6f756e636560008201527f20726f6c657320666f722073656c660000000000000000000000000000000000602082015250565b6124708161206e565b811461247b57600080fd5b50565b6124878161208c565b811461249257600080fd5b50565b61249e81612096565b81146124a957600080fd5b50565b6124b5816120e2565b81146124c057600080fd5b5056fe416464726573733a206c6f772d6c6576656c2064656c65676174652063616c6c206661696c6564a264697066735822122076bd629a38468fa8f0dabc01dc6ca5c4ade2cec24dd6f746d30e86fa8490c27864736f6c63430008070033416464726573733a206c6f772d6c6576656c2064656c65676174652063616c6c206661696c6564",
  "linkReferences": {},
  "deployedLinkReferences": {}
}