{
  "_format": "hh-sol-artifact-1",
  "contractName": "LeagueBeaconProxy",
  "sourceName": "contracts/LeagueBeaconProxy.sol",
  "abi": [
    {
      "inputs": [
        {
          "internalType": "address",
          "name": "beacon",
          "type": "address"
        },
        {
          "internalType": "bytes",
          "name": "data",
          "type": "bytes"
        }
      ],
      "stateMutability": "payable",
      "type": "constructor"
    },
    {
      "anonymous": false,
      "inputs": [
        {
          "indexed": false,
          "internalType": "address",
          "name": "previousAdmin",
          "type": "address"
        },
        {
          "indexed": false,
          "internalType": "address",
          "name": "newAdmin",
          "type": "address"
        }
      ],
      "name": "AdminChanged",
      "type": "event"
    },
    {
      "anonymous": false,
      "inputs": [
        {
          "indexed": true,
          "internalType": "address",
          "name": "beacon",
          "type": "address"
        }
      ],
      "name": "BeaconUpgraded",
      "type": "event"
    },
    {
      "anonymous": false,
      "inputs": [
        {
          "indexed": true,
          "internalType": "address",
          "name": "implementation",
          "type": "address"
        }
      ],
      "name": "Upgraded",
      "type": "event"
    },
    {
      "stateMutability": "payable",
      "type": "fallback"
    },
    {
      "inputs": [],
      "name": "name",
      "outputs": [
        {
          "internalType": "string",
          "name": "",
          "type": "string"
        }
      ],
      "stateMutability": "view",
      "type": "function"
    },
    {
      "inputs": [],
      "name": "version",
      "outputs": [
        {
          "internalType": "uint256",
          "name": "",
          "type": "uint256"
        }
      ],
      "stateMutability": "view",
      "type": "function"
    },
    {
      "stateMutability": "payable",
      "type": "receive"
    }
  ],
  "bytecode": "0x60806040526040516200122b3803806200122b8339818101604052810190620000299190620005cf565b60017fa3f0ad74e5423aebfd80d3ef4346578335a9a72aeaee59ff6cb3582b35133d5160001c6200005b919062000856565b60001b7fa3f0ad74e5423aebfd80d3ef4346578335a9a72aeaee59ff6cb3582b35133d5060001b146200009357620000926200093b565b5b620000a782826000620000af60201b60201c565b505062000af4565b620000c083620001b660201b60201c565b8273ffffffffffffffffffffffffffffffffffffffff167f1cf3b03a6cf19fa2baba4df148e9dcabedea7f8a5c07840e207e5c089be95d3e60405160405180910390a2600082511180620001115750805b15620001b157620001af8373ffffffffffffffffffffffffffffffffffffffff16635c60da1b6040518163ffffffff1660e01b815260040160206040518083038186803b1580156200016257600080fd5b505afa15801562000177573d6000803e3d6000fd5b505050506040513d601f19601f820116820180604052508101906200019d91906200059d565b836200036560201b6200014a1760201c565b505b505050565b620001cc816200039b60201b620001771760201c565b6200020e576040517f08c379a000000000000000000000000000000000000000000000000000000000815260040162000205906200075f565b60405180910390fd5b620002a58173ffffffffffffffffffffffffffffffffffffffff16635c60da1b6040518163ffffffff1660e01b815260040160206040518083038186803b1580156200025957600080fd5b505afa1580156200026e573d6000803e3d6000fd5b505050506040513d601f19601f820116820180604052508101906200029491906200059d565b6200039b60201b620001771760201c565b620002e7576040517f08c379a0000000000000000000000000000000000000000000000000000000008152600401620002de90620007a3565b60405180910390fd5b80620003217fa3f0ad74e5423aebfd80d3ef4346578335a9a72aeaee59ff6cb3582b35133d5060001b620003ae60201b6200018a1760201c565b60000160006101000a81548173ffffffffffffffffffffffffffffffffffffffff021916908373ffffffffffffffffffffffffffffffffffffffff16021790555050565b60606200039383836040518060600160405280602781526020016200120460279139620003b860201b60201c565b905092915050565b600080823b905060008111915050919050565b6000819050919050565b6060620003cb846200039b60201b60201c565b6200040d576040517f08c379a0000000000000000000000000000000000000000000000000000000008152600401620004049062000781565b60405180910390fd5b6000808573ffffffffffffffffffffffffffffffffffffffff168560405162000437919062000722565b600060405180830381855af49150503d806000811462000474576040519150601f19603f3d011682016040523d82523d6000602084013e62000479565b606091505b5091509150620004918282866200049c60201b60201c565b925050509392505050565b60608315620004ae5782905062000501565b600083511115620004c25782518084602001fd5b816040517f08c379a0000000000000000000000000000000000000000000000000000000008152600401620004f891906200073b565b60405180910390fd5b9392505050565b60006200051f6200051984620007ee565b620007c5565b9050828152602081018484840111156200053e576200053d620009cd565b5b6200054b848285620008cf565b509392505050565b600081519050620005648162000ada565b92915050565b600082601f830112620005825762000581620009c8565b5b81516200059484826020860162000508565b91505092915050565b600060208284031215620005b657620005b5620009d7565b5b6000620005c68482850162000553565b91505092915050565b60008060408385031215620005e957620005e8620009d7565b5b6000620005f98582860162000553565b925050602083015167ffffffffffffffff8111156200061d576200061c620009d2565b5b6200062b858286016200056a565b9150509250929050565b6000620006428262000824565b6200064e81856200083a565b935062000660818560208601620008cf565b80840191505092915050565b600062000679826200082f565b62000685818562000845565b935062000697818560208601620008cf565b620006a281620009dc565b840191505092915050565b6000620006bc60258362000845565b9150620006c982620009ed565b604082019050919050565b6000620006e360268362000845565b9150620006f08262000a3c565b604082019050919050565b60006200070a60308362000845565b9150620007178262000a8b565b604082019050919050565b600062000730828462000635565b915081905092915050565b600060208201905081810360008301526200075781846200066c565b905092915050565b600060208201905081810360008301526200077a81620006ad565b9050919050565b600060208201905081810360008301526200079c81620006d4565b9050919050565b60006020820190508181036000830152620007be81620006fb565b9050919050565b6000620007d1620007e4565b9050620007df828262000905565b919050565b6000604051905090565b600067ffffffffffffffff8211156200080c576200080b62000999565b5b6200081782620009dc565b9050602081019050919050565b600081519050919050565b600081519050919050565b600081905092915050565b600082825260208201905092915050565b60006200086382620008c5565b91506200087083620008c5565b9250828210156200088657620008856200096a565b5b828203905092915050565b60006200089e82620008a5565b9050919050565b600073ffffffffffffffffffffffffffffffffffffffff82169050919050565b6000819050919050565b60005b83811015620008ef578082015181840152602081019050620008d2565b83811115620008ff576000848401525b50505050565b6200091082620009dc565b810181811067ffffffffffffffff8211171562000932576200093162000999565b5b80604052505050565b7f4e487b7100000000000000000000000000000000000000000000000000000000600052600160045260246000fd5b7f4e487b7100000000000000000000000000000000000000000000000000000000600052601160045260246000fd5b7f4e487b7100000000000000000000000000000000000000000000000000000000600052604160045260246000fd5b600080fd5b600080fd5b600080fd5b600080fd5b6000601f19601f8301169050919050565b7f455243313936373a206e657720626561636f6e206973206e6f74206120636f6e60008201527f7472616374000000000000000000000000000000000000000000000000000000602082015250565b7f416464726573733a2064656c65676174652063616c6c20746f206e6f6e2d636f60008201527f6e74726163740000000000000000000000000000000000000000000000000000602082015250565b7f455243313936373a20626561636f6e20696d706c656d656e746174696f6e206960008201527f73206e6f74206120636f6e747261637400000000000000000000000000000000602082015250565b62000ae58162000891565b811462000af157600080fd5b50565b6107008062000b046000396000f3fe60806040526004361061002d5760003560e01c806306fdde031461004657806354fd4d50146100715761003c565b3661003c5761003a61009c565b005b61004461009c565b005b34801561005257600080fd5b5061005b6100b6565b60405161006891906104c8565b60405180910390f35b34801561007d57600080fd5b50610086610144565b604051610093919061050a565b60405180910390f35b6100a4610194565b6100b46100af610196565b610222565b565b600180546100c3906105c6565b80601f01602080910402602001604051908101604052809291908181526020018280546100ef906105c6565b801561013c5780601f106101115761010080835404028352916020019161013c565b820191906000526020600020905b81548152906001019060200180831161011f57829003601f168201915b505050505081565b60005481565b606061016f83836040518060600160405280602781526020016106a460279139610248565b905092915050565b600080823b905060008111915050919050565b6000819050919050565b565b60006101a0610315565b73ffffffffffffffffffffffffffffffffffffffff16635c60da1b6040518163ffffffff1660e01b815260040160206040518083038186803b1580156101e557600080fd5b505afa1580156101f9573d6000803e3d6000fd5b505050506040513d601f19601f8201168201806040525081019061021d91906103e8565b905090565b3660008037600080366000845af43d6000803e8060008114610243573d6000f35b3d6000fd5b606061025384610177565b610292576040517f08c379a0000000000000000000000000000000000000000000000000000000008152600401610289906104ea565b60405180910390fd5b6000808573ffffffffffffffffffffffffffffffffffffffff16856040516102ba91906104b1565b600060405180830381855af49150503d80600081146102f5576040519150601f19603f3d011682016040523d82523d6000602084013e6102fa565b606091505b509150915061030a82828661036c565b925050509392505050565b60006103437fa3f0ad74e5423aebfd80d3ef4346578335a9a72aeaee59ff6cb3582b35133d5060001b61018a565b60000160009054906101000a900473ffffffffffffffffffffffffffffffffffffffff16905090565b6060831561037c578290506103cc565b60008351111561038f5782518084602001fd5b816040517f08c379a00000000000000000000000000000000000000000000000000000000081526004016103c391906104c8565b60405180910390fd5b9392505050565b6000815190506103e28161068c565b92915050565b6000602082840312156103fe576103fd610627565b5b600061040c848285016103d3565b91505092915050565b600061042082610525565b61042a818561053b565b935061043a818560208601610593565b80840191505092915050565b600061045182610530565b61045b8185610546565b935061046b818560208601610593565b6104748161062c565b840191505092915050565b600061048c602683610546565b91506104978261063d565b604082019050919050565b6104ab81610589565b82525050565b60006104bd8284610415565b915081905092915050565b600060208201905081810360008301526104e28184610446565b905092915050565b600060208201905081810360008301526105038161047f565b9050919050565b600060208201905061051f60008301846104a2565b92915050565b600081519050919050565b600081519050919050565b600081905092915050565b600082825260208201905092915050565b600061056282610569565b9050919050565b600073ffffffffffffffffffffffffffffffffffffffff82169050919050565b6000819050919050565b60005b838110156105b1578082015181840152602081019050610596565b838111156105c0576000848401525b50505050565b600060028204905060018216806105de57607f821691505b602082108114156105f2576105f16105f8565b5b50919050565b7f4e487b7100000000000000000000000000000000000000000000000000000000600052602260045260246000fd5b600080fd5b6000601f19601f8301169050919050565b7f416464726573733a2064656c65676174652063616c6c20746f206e6f6e2d636f60008201527f6e74726163740000000000000000000000000000000000000000000000000000602082015250565b61069581610557565b81146106a057600080fd5b5056fe416464726573733a206c6f772d6c6576656c2064656c65676174652063616c6c206661696c6564a26469706673582212202baf2a9f0a9d83ebe45e15d49c9c02c449a70b620f6782e89a207505b20ec13864736f6c63430008070033416464726573733a206c6f772d6c6576656c2064656c65676174652063616c6c206661696c6564",
  "linkReferences": {},
  "deployedLinkReferences": {}
}