{
  "_format": "hh-sol-artifact-1",
  "contractName": "LeagueBeaconProxy",
  "sourceName": "contracts/LeagueBeaconProxy.sol",
  "abi": [
    {
      "inputs": [
        {
          "internalType": "address",
          "name": "beacon",
          "type": "address"
        },
        {
          "internalType": "bytes",
          "name": "data",
          "type": "bytes"
        }
      ],
      "stateMutability": "payable",
      "type": "constructor"
    },
    {
      "anonymous": false,
      "inputs": [
        {
          "indexed": false,
          "internalType": "address",
          "name": "previousAdmin",
          "type": "address"
        },
        {
          "indexed": false,
          "internalType": "address",
          "name": "newAdmin",
          "type": "address"
        }
      ],
      "name": "AdminChanged",
      "type": "event"
    },
    {
      "anonymous": false,
      "inputs": [
        {
          "indexed": true,
          "internalType": "address",
          "name": "beacon",
          "type": "address"
        }
      ],
      "name": "BeaconUpgraded",
      "type": "event"
    },
    {
      "anonymous": false,
      "inputs": [
        {
          "indexed": true,
          "internalType": "address",
          "name": "implementation",
          "type": "address"
        }
      ],
      "name": "Upgraded",
      "type": "event"
    },
    {
      "stateMutability": "payable",
      "type": "fallback"
    },
    {
      "inputs": [
        {
          "internalType": "uint256",
          "name": "",
          "type": "uint256"
        }
      ],
      "name": "leagueMembers",
      "outputs": [
        {
          "internalType": "uint256",
          "name": "",
          "type": "uint256"
        }
      ],
      "stateMutability": "view",
      "type": "function"
    },
    {
      "inputs": [],
      "name": "name",
      "outputs": [
        {
          "internalType": "string",
          "name": "",
          "type": "string"
        }
      ],
      "stateMutability": "view",
      "type": "function"
    },
    {
      "inputs": [],
      "name": "version",
      "outputs": [
        {
          "internalType": "uint256",
          "name": "",
          "type": "uint256"
        }
      ],
      "stateMutability": "view",
      "type": "function"
    },
    {
      "stateMutability": "payable",
      "type": "receive"
    }
  ],
  "bytecode": "0x6080604052604051620012e7380380620012e78339818101604052810190620000299190620005cf565b60017fa3f0ad74e5423aebfd80d3ef4346578335a9a72aeaee59ff6cb3582b35133d5160001c6200005b919062000856565b60001b7fa3f0ad74e5423aebfd80d3ef4346578335a9a72aeaee59ff6cb3582b35133d5060001b146200009357620000926200093b565b5b620000a782826000620000af60201b60201c565b505062000af4565b620000c083620001b660201b60201c565b8273ffffffffffffffffffffffffffffffffffffffff167f1cf3b03a6cf19fa2baba4df148e9dcabedea7f8a5c07840e207e5c089be95d3e60405160405180910390a2600082511180620001115750805b15620001b157620001af8373ffffffffffffffffffffffffffffffffffffffff16635c60da1b6040518163ffffffff1660e01b815260040160206040518083038186803b1580156200016257600080fd5b505afa15801562000177573d6000803e3d6000fd5b505050506040513d601f19601f820116820180604052508101906200019d91906200059d565b836200036560201b620001ad1760201c565b505b505050565b620001cc816200039b60201b620001da1760201c565b6200020e576040517f08c379a000000000000000000000000000000000000000000000000000000000815260040162000205906200075f565b60405180910390fd5b620002a58173ffffffffffffffffffffffffffffffffffffffff16635c60da1b6040518163ffffffff1660e01b815260040160206040518083038186803b1580156200025957600080fd5b505afa1580156200026e573d6000803e3d6000fd5b505050506040513d601f19601f820116820180604052508101906200029491906200059d565b6200039b60201b620001da1760201c565b620002e7576040517f08c379a0000000000000000000000000000000000000000000000000000000008152600401620002de90620007a3565b60405180910390fd5b80620003217fa3f0ad74e5423aebfd80d3ef4346578335a9a72aeaee59ff6cb3582b35133d5060001b620003ae60201b620001ed1760201c565b60000160006101000a81548173ffffffffffffffffffffffffffffffffffffffff021916908373ffffffffffffffffffffffffffffffffffffffff16021790555050565b6060620003938383604051806060016040528060278152602001620012c060279139620003b860201b60201c565b905092915050565b600080823b905060008111915050919050565b6000819050919050565b6060620003cb846200039b60201b60201c565b6200040d576040517f08c379a0000000000000000000000000000000000000000000000000000000008152600401620004049062000781565b60405180910390fd5b6000808573ffffffffffffffffffffffffffffffffffffffff168560405162000437919062000722565b600060405180830381855af49150503d806000811462000474576040519150601f19603f3d011682016040523d82523d6000602084013e62000479565b606091505b5091509150620004918282866200049c60201b60201c565b925050509392505050565b60608315620004ae5782905062000501565b600083511115620004c25782518084602001fd5b816040517f08c379a0000000000000000000000000000000000000000000000000000000008152600401620004f891906200073b565b60405180910390fd5b9392505050565b60006200051f6200051984620007ee565b620007c5565b9050828152602081018484840111156200053e576200053d620009cd565b5b6200054b848285620008cf565b509392505050565b600081519050620005648162000ada565b92915050565b600082601f830112620005825762000581620009c8565b5b81516200059484826020860162000508565b91505092915050565b600060208284031215620005b657620005b5620009d7565b5b6000620005c68482850162000553565b91505092915050565b60008060408385031215620005e957620005e8620009d7565b5b6000620005f98582860162000553565b925050602083015167ffffffffffffffff8111156200061d576200061c620009d2565b5b6200062b858286016200056a565b9150509250929050565b6000620006428262000824565b6200064e81856200083a565b935062000660818560208601620008cf565b80840191505092915050565b600062000679826200082f565b62000685818562000845565b935062000697818560208601620008cf565b620006a281620009dc565b840191505092915050565b6000620006bc60258362000845565b9150620006c982620009ed565b604082019050919050565b6000620006e360268362000845565b9150620006f08262000a3c565b604082019050919050565b60006200070a60308362000845565b9150620007178262000a8b565b604082019050919050565b600062000730828462000635565b915081905092915050565b600060208201905081810360008301526200075781846200066c565b905092915050565b600060208201905081810360008301526200077a81620006ad565b9050919050565b600060208201905081810360008301526200079c81620006d4565b9050919050565b60006020820190508181036000830152620007be81620006fb565b9050919050565b6000620007d1620007e4565b9050620007df828262000905565b919050565b6000604051905090565b600067ffffffffffffffff8211156200080c576200080b62000999565b5b6200081782620009dc565b9050602081019050919050565b600081519050919050565b600081519050919050565b600081905092915050565b600082825260208201905092915050565b60006200086382620008c5565b91506200087083620008c5565b9250828210156200088657620008856200096a565b5b828203905092915050565b60006200089e82620008a5565b9050919050565b600073ffffffffffffffffffffffffffffffffffffffff82169050919050565b6000819050919050565b60005b83811015620008ef578082015181840152602081019050620008d2565b83811115620008ff576000848401525b50505050565b6200091082620009dc565b810181811067ffffffffffffffff8211171562000932576200093162000999565b5b80604052505050565b7f4e487b7100000000000000000000000000000000000000000000000000000000600052600160045260246000fd5b7f4e487b7100000000000000000000000000000000000000000000000000000000600052601160045260246000fd5b7f4e487b7100000000000000000000000000000000000000000000000000000000600052604160045260246000fd5b600080fd5b600080fd5b600080fd5b600080fd5b6000601f19601f8301169050919050565b7f455243313936373a206e657720626561636f6e206973206e6f74206120636f6e60008201527f7472616374000000000000000000000000000000000000000000000000000000602082015250565b7f416464726573733a2064656c65676174652063616c6c20746f206e6f6e2d636f60008201527f6e74726163740000000000000000000000000000000000000000000000000000602082015250565b7f455243313936373a20626561636f6e20696d706c656d656e746174696f6e206960008201527f73206e6f74206120636f6e747261637400000000000000000000000000000000602082015250565b62000ae58162000891565b811462000af157600080fd5b50565b6107bc8062000b046000396000f3fe6080604052600436106100385760003560e01c806306fdde0314610051578063267175db1461007c57806354fd4d50146100b957610047565b36610047576100456100e4565b005b61004f6100e4565b005b34801561005d57600080fd5b506100666100fe565b604051610073919061056d565b60405180910390f35b34801561008857600080fd5b506100a3600480360381019061009e919061048d565b61018c565b6040516100b091906105af565b60405180910390f35b3480156100c557600080fd5b506100ce6101a7565b6040516100db91906105af565b60405180910390f35b6100ec6101f7565b6100fc6100f76101f9565b610285565b565b6001805461010b9061066b565b80601f01602080910402602001604051908101604052809291908181526020018280546101379061066b565b80156101845780601f1061015957610100808354040283529160200191610184565b820191906000526020600020905b81548152906001019060200180831161016757829003601f168201915b505050505081565b6002816005811061019c57600080fd5b016000915090505481565b60005481565b60606101d28383604051806060016040528060278152602001610760602791396102ab565b905092915050565b600080823b905060008111915050919050565b6000819050919050565b565b6000610203610378565b73ffffffffffffffffffffffffffffffffffffffff16635c60da1b6040518163ffffffff1660e01b815260040160206040518083038186803b15801561024857600080fd5b505afa15801561025c573d6000803e3d6000fd5b505050506040513d601f19601f820116820180604052508101906102809190610460565b905090565b3660008037600080366000845af43d6000803e80600081146102a6573d6000f35b3d6000fd5b60606102b6846101da565b6102f5576040517f08c379a00000000000000000000000000000000000000000000000000000000081526004016102ec9061058f565b60405180910390fd5b6000808573ffffffffffffffffffffffffffffffffffffffff168560405161031d9190610556565b600060405180830381855af49150503d8060008114610358576040519150601f19603f3d011682016040523d82523d6000602084013e61035d565b606091505b509150915061036d8282866103cf565b925050509392505050565b60006103a67fa3f0ad74e5423aebfd80d3ef4346578335a9a72aeaee59ff6cb3582b35133d5060001b6101ed565b60000160009054906101000a900473ffffffffffffffffffffffffffffffffffffffff16905090565b606083156103df5782905061042f565b6000835111156103f25782518084602001fd5b816040517f08c379a0000000000000000000000000000000000000000000000000000000008152600401610426919061056d565b60405180910390fd5b9392505050565b60008151905061044581610731565b92915050565b60008135905061045a81610748565b92915050565b600060208284031215610476576104756106cc565b5b600061048484828501610436565b91505092915050565b6000602082840312156104a3576104a26106cc565b5b60006104b18482850161044b565b91505092915050565b60006104c5826105ca565b6104cf81856105e0565b93506104df818560208601610638565b80840191505092915050565b60006104f6826105d5565b61050081856105eb565b9350610510818560208601610638565b610519816106d1565b840191505092915050565b60006105316026836105eb565b915061053c826106e2565b604082019050919050565b6105508161062e565b82525050565b600061056282846104ba565b915081905092915050565b6000602082019050818103600083015261058781846104eb565b905092915050565b600060208201905081810360008301526105a881610524565b9050919050565b60006020820190506105c46000830184610547565b92915050565b600081519050919050565b600081519050919050565b600081905092915050565b600082825260208201905092915050565b60006106078261060e565b9050919050565b600073ffffffffffffffffffffffffffffffffffffffff82169050919050565b6000819050919050565b60005b8381101561065657808201518184015260208101905061063b565b83811115610665576000848401525b50505050565b6000600282049050600182168061068357607f821691505b602082108114156106975761069661069d565b5b50919050565b7f4e487b7100000000000000000000000000000000000000000000000000000000600052602260045260246000fd5b600080fd5b6000601f19601f8301169050919050565b7f416464726573733a2064656c65676174652063616c6c20746f206e6f6e2d636f60008201527f6e74726163740000000000000000000000000000000000000000000000000000602082015250565b61073a816105fc565b811461074557600080fd5b50565b6107518161062e565b811461075c57600080fd5b5056fe416464726573733a206c6f772d6c6576656c2064656c65676174652063616c6c206661696c6564a2646970667358221220190250881fa8caf41dede24557bdd3a76b953acd0f514a48a4afbf37cbb8bb9a64736f6c63430008070033416464726573733a206c6f772d6c6576656c2064656c65676174652063616c6c206661696c6564",
  "linkReferences": {},
  "deployedLinkReferences": {}
}