{
  "_format": "hh-sol-artifact-1",
  "contractName": "LeagueBeaconProxy",
  "sourceName": "contracts/LeagueBeaconProxy.sol",
  "abi": [
    {
      "inputs": [
        {
          "internalType": "address",
          "name": "beacon",
          "type": "address"
        },
        {
          "internalType": "bytes",
          "name": "data",
          "type": "bytes"
        }
      ],
      "stateMutability": "payable",
      "type": "constructor"
    },
    {
      "anonymous": false,
      "inputs": [
        {
          "indexed": false,
          "internalType": "address",
          "name": "previousAdmin",
          "type": "address"
        },
        {
          "indexed": false,
          "internalType": "address",
          "name": "newAdmin",
          "type": "address"
        }
      ],
      "name": "AdminChanged",
      "type": "event"
    },
    {
      "anonymous": false,
      "inputs": [
        {
          "indexed": true,
          "internalType": "address",
          "name": "beacon",
          "type": "address"
        }
      ],
      "name": "BeaconUpgraded",
      "type": "event"
    },
    {
      "anonymous": false,
      "inputs": [
        {
          "indexed": true,
          "internalType": "address",
          "name": "previousOwner",
          "type": "address"
        },
        {
          "indexed": true,
          "internalType": "address",
          "name": "newOwner",
          "type": "address"
        }
      ],
      "name": "OwnershipTransferred",
      "type": "event"
    },
    {
      "anonymous": false,
      "inputs": [
        {
          "indexed": true,
          "internalType": "bytes32",
          "name": "role",
          "type": "bytes32"
        },
        {
          "indexed": true,
          "internalType": "bytes32",
          "name": "previousAdminRole",
          "type": "bytes32"
        },
        {
          "indexed": true,
          "internalType": "bytes32",
          "name": "newAdminRole",
          "type": "bytes32"
        }
      ],
      "name": "RoleAdminChanged",
      "type": "event"
    },
    {
      "anonymous": false,
      "inputs": [
        {
          "indexed": true,
          "internalType": "bytes32",
          "name": "role",
          "type": "bytes32"
        },
        {
          "indexed": true,
          "internalType": "address",
          "name": "account",
          "type": "address"
        },
        {
          "indexed": true,
          "internalType": "address",
          "name": "sender",
          "type": "address"
        }
      ],
      "name": "RoleGranted",
      "type": "event"
    },
    {
      "anonymous": false,
      "inputs": [
        {
          "indexed": true,
          "internalType": "bytes32",
          "name": "role",
          "type": "bytes32"
        },
        {
          "indexed": true,
          "internalType": "address",
          "name": "account",
          "type": "address"
        },
        {
          "indexed": true,
          "internalType": "address",
          "name": "sender",
          "type": "address"
        }
      ],
      "name": "RoleRevoked",
      "type": "event"
    },
    {
      "anonymous": false,
      "inputs": [
        {
          "indexed": false,
          "internalType": "address",
          "name": "sender",
          "type": "address"
        },
        {
          "indexed": false,
          "internalType": "uint256",
          "name": "amount",
          "type": "uint256"
        }
      ],
      "name": "Staked",
      "type": "event"
    },
    {
      "anonymous": false,
      "inputs": [
        {
          "indexed": true,
          "internalType": "address",
          "name": "implementation",
          "type": "address"
        }
      ],
      "name": "Upgraded",
      "type": "event"
    },
    {
      "anonymous": false,
      "inputs": [
        {
          "indexed": false,
          "internalType": "address[]",
          "name": "winner",
          "type": "address[]"
        },
        {
          "indexed": false,
          "internalType": "uint256",
          "name": "prizePotPerWinner",
          "type": "uint256"
        }
      ],
      "name": "leagueEnded",
      "type": "event"
    },
    {
      "anonymous": false,
      "inputs": [
        {
          "indexed": false,
          "internalType": "address",
          "name": "sender",
          "type": "address"
        },
        {
          "indexed": false,
          "internalType": "address",
          "name": "contractAddress",
          "type": "address"
        }
      ],
      "name": "testUSDCDeployed",
      "type": "event"
    },
    {
      "stateMutability": "payable",
      "type": "fallback"
    },
    {
      "inputs": [],
      "name": "DEFAULT_ADMIN_ROLE",
      "outputs": [
        {
          "internalType": "bytes32",
          "name": "",
          "type": "bytes32"
        }
      ],
      "stateMutability": "view",
      "type": "function"
    },
    {
      "inputs": [],
      "name": "admin",
      "outputs": [
        {
          "internalType": "address",
          "name": "",
          "type": "address"
        }
      ],
      "stateMutability": "view",
      "type": "function"
    },
    {
      "inputs": [],
      "name": "currentWeekNum",
      "outputs": [
        {
          "internalType": "uint256",
          "name": "",
          "type": "uint256"
        }
      ],
      "stateMutability": "view",
      "type": "function"
    },
    {
      "inputs": [
        {
          "internalType": "bytes32",
          "name": "role",
          "type": "bytes32"
        }
      ],
      "name": "getRoleAdmin",
      "outputs": [
        {
          "internalType": "bytes32",
          "name": "",
          "type": "bytes32"
        }
      ],
      "stateMutability": "view",
      "type": "function"
    },
    {
      "inputs": [
        {
          "internalType": "bytes32",
          "name": "role",
          "type": "bytes32"
        },
        {
          "internalType": "address",
          "name": "account",
          "type": "address"
        }
      ],
      "name": "grantRole",
      "outputs": [],
      "stateMutability": "nonpayable",
      "type": "function"
    },
    {
      "inputs": [
        {
          "internalType": "bytes32",
          "name": "role",
          "type": "bytes32"
        },
        {
          "internalType": "address",
          "name": "account",
          "type": "address"
        }
      ],
      "name": "hasRole",
      "outputs": [
        {
          "internalType": "bool",
          "name": "",
          "type": "bool"
        }
      ],
      "stateMutability": "view",
      "type": "function"
    },
    {
      "inputs": [
        {
          "internalType": "address",
          "name": "",
          "type": "address"
        }
      ],
      "name": "inLeague",
      "outputs": [
        {
          "internalType": "bool",
          "name": "",
          "type": "bool"
        }
      ],
      "stateMutability": "view",
      "type": "function"
    },
    {
      "inputs": [],
      "name": "leagueEntryIsClosed",
      "outputs": [
        {
          "internalType": "bool",
          "name": "",
          "type": "bool"
        }
      ],
      "stateMutability": "view",
      "type": "function"
    },
    {
      "inputs": [
        {
          "internalType": "uint256",
          "name": "",
          "type": "uint256"
        }
      ],
      "name": "leagueMembers",
      "outputs": [
        {
          "internalType": "address",
          "name": "",
          "type": "address"
        }
      ],
      "stateMutability": "view",
      "type": "function"
    },
    {
      "inputs": [],
      "name": "leagueName",
      "outputs": [
        {
          "internalType": "string",
          "name": "",
          "type": "string"
        }
      ],
      "stateMutability": "view",
      "type": "function"
    },
    {
      "inputs": [],
      "name": "lineupIsLocked",
      "outputs": [
        {
          "internalType": "bool",
          "name": "",
          "type": "bool"
        }
      ],
      "stateMutability": "view",
      "type": "function"
    },
    {
      "inputs": [],
      "name": "numWeeks",
      "outputs": [
        {
          "internalType": "uint256",
          "name": "",
          "type": "uint256"
        }
      ],
      "stateMutability": "view",
      "type": "function"
    },
    {
      "inputs": [],
      "name": "owner",
      "outputs": [
        {
          "internalType": "address",
          "name": "",
          "type": "address"
        }
      ],
      "stateMutability": "view",
      "type": "function"
    },
    {
      "inputs": [],
      "name": "renounceOwnership",
      "outputs": [],
      "stateMutability": "nonpayable",
      "type": "function"
    },
    {
      "inputs": [
        {
          "internalType": "bytes32",
          "name": "role",
          "type": "bytes32"
        },
        {
          "internalType": "address",
          "name": "account",
          "type": "address"
        }
      ],
      "name": "renounceRole",
      "outputs": [],
      "stateMutability": "nonpayable",
      "type": "function"
    },
    {
      "inputs": [
        {
          "internalType": "bytes32",
          "name": "role",
          "type": "bytes32"
        },
        {
          "internalType": "address",
          "name": "account",
          "type": "address"
        }
      ],
      "name": "revokeRole",
      "outputs": [],
      "stateMutability": "nonpayable",
      "type": "function"
    },
    {
      "inputs": [],
      "name": "rinkebyUSDC",
      "outputs": [
        {
          "internalType": "contract IERC20",
          "name": "",
          "type": "address"
        }
      ],
      "stateMutability": "view",
      "type": "function"
    },
    {
      "inputs": [],
      "name": "rinkebyUSDCAddress",
      "outputs": [
        {
          "internalType": "address",
          "name": "",
          "type": "address"
        }
      ],
      "stateMutability": "view",
      "type": "function"
    },
    {
      "inputs": [],
      "name": "stakeAmount",
      "outputs": [
        {
          "internalType": "uint256",
          "name": "",
          "type": "uint256"
        }
      ],
      "stateMutability": "view",
      "type": "function"
    },
    {
      "inputs": [
        {
          "internalType": "bytes4",
          "name": "interfaceId",
          "type": "bytes4"
        }
      ],
      "name": "supportsInterface",
      "outputs": [
        {
          "internalType": "bool",
          "name": "",
          "type": "bool"
        }
      ],
      "stateMutability": "view",
      "type": "function"
    },
    {
      "inputs": [],
      "name": "teamDiffAddress",
      "outputs": [
        {
          "internalType": "address",
          "name": "",
          "type": "address"
        }
      ],
      "stateMutability": "view",
      "type": "function"
    },
    {
      "inputs": [
        {
          "internalType": "address",
          "name": "newOwner",
          "type": "address"
        }
      ],
      "name": "transferOwnership",
      "outputs": [],
      "stateMutability": "nonpayable",
      "type": "function"
    },
    {
      "inputs": [
        {
          "internalType": "address",
          "name": "",
          "type": "address"
        },
        {
          "internalType": "uint256",
          "name": "",
          "type": "uint256"
        }
      ],
      "name": "userToLineup",
      "outputs": [
        {
          "internalType": "uint256",
          "name": "",
          "type": "uint256"
        }
      ],
      "stateMutability": "view",
      "type": "function"
    },
    {
      "inputs": [
        {
          "internalType": "address",
          "name": "",
          "type": "address"
        }
      ],
      "name": "userToPoints",
      "outputs": [
        {
          "internalType": "uint256",
          "name": "",
          "type": "uint256"
        }
      ],
      "stateMutability": "view",
      "type": "function"
    },
    {
      "inputs": [
        {
          "internalType": "address",
          "name": "",
          "type": "address"
        },
        {
          "internalType": "uint256",
          "name": "",
          "type": "uint256"
        }
      ],
      "name": "userToRecord",
      "outputs": [
        {
          "internalType": "uint256",
          "name": "",
          "type": "uint256"
        }
      ],
      "stateMutability": "view",
      "type": "function"
    },
    {
      "inputs": [],
      "name": "whitelistContract",
      "outputs": [
        {
          "internalType": "contract Whitelist",
          "name": "",
          "type": "address"
        }
      ],
      "stateMutability": "view",
      "type": "function"
    },
    {
      "stateMutability": "payable",
      "type": "receive"
    }
  ],
  "bytecode": "0x608060405260405162002ba838038062002ba88339818101604052810190620000299190620006bb565b620000496200003d620000cf60201b60201c565b620000d760201b60201c565b60017fa3f0ad74e5423aebfd80d3ef4346578335a9a72aeaee59ff6cb3582b35133d5160001c6200007b919062000942565b60001b7fa3f0ad74e5423aebfd80d3ef4346578335a9a72aeaee59ff6cb3582b35133d5060001b14620000b357620000b262000a27565b5b620000c7828260006200019b60201b60201c565b505062000be0565b600033905090565b60008060009054906101000a900473ffffffffffffffffffffffffffffffffffffffff169050816000806101000a81548173ffffffffffffffffffffffffffffffffffffffff021916908373ffffffffffffffffffffffffffffffffffffffff1602179055508173ffffffffffffffffffffffffffffffffffffffff168173ffffffffffffffffffffffffffffffffffffffff167f8be0079c531659141344cd1fd0a4f28419497f9722a3daafe3b4186f6b6457e060405160405180910390a35050565b620001ac83620002a260201b60201c565b8273ffffffffffffffffffffffffffffffffffffffff167f1cf3b03a6cf19fa2baba4df148e9dcabedea7f8a5c07840e207e5c089be95d3e60405160405180910390a2600082511180620001fd5750805b156200029d576200029b8373ffffffffffffffffffffffffffffffffffffffff16635c60da1b6040518163ffffffff1660e01b815260040160206040518083038186803b1580156200024e57600080fd5b505afa15801562000263573d6000803e3d6000fd5b505050506040513d601f19601f8201168201806040525081019062000289919062000689565b836200045160201b62000c701760201c565b505b505050565b620002b8816200048760201b62000c9d1760201c565b620002fa576040517f08c379a0000000000000000000000000000000000000000000000000000000008152600401620002f1906200084b565b60405180910390fd5b620003918173ffffffffffffffffffffffffffffffffffffffff16635c60da1b6040518163ffffffff1660e01b815260040160206040518083038186803b1580156200034557600080fd5b505afa1580156200035a573d6000803e3d6000fd5b505050506040513d601f19601f8201168201806040525081019062000380919062000689565b6200048760201b62000c9d1760201c565b620003d3576040517f08c379a0000000000000000000000000000000000000000000000000000000008152600401620003ca906200088f565b60405180910390fd5b806200040d7fa3f0ad74e5423aebfd80d3ef4346578335a9a72aeaee59ff6cb3582b35133d5060001b6200049a60201b62000cb01760201c565b60000160006101000a81548173ffffffffffffffffffffffffffffffffffffffff021916908373ffffffffffffffffffffffffffffffffffffffff16021790555050565b60606200047f838360405180606001604052806027815260200162002b8160279139620004a460201b60201c565b905092915050565b600080823b905060008111915050919050565b6000819050919050565b6060620004b7846200048760201b60201c565b620004f9576040517f08c379a0000000000000000000000000000000000000000000000000000000008152600401620004f0906200086d565b60405180910390fd5b6000808573ffffffffffffffffffffffffffffffffffffffff16856040516200052391906200080e565b600060405180830381855af49150503d806000811462000560576040519150601f19603f3d011682016040523d82523d6000602084013e62000565565b606091505b50915091506200057d8282866200058860201b60201c565b925050509392505050565b606083156200059a57829050620005ed565b600083511115620005ae5782518084602001fd5b816040517f08c379a0000000000000000000000000000000000000000000000000000000008152600401620005e4919062000827565b60405180910390fd5b9392505050565b60006200060b6200060584620008da565b620008b1565b9050828152602081018484840111156200062a576200062962000ab9565b5b62000637848285620009bb565b509392505050565b600081519050620006508162000bc6565b92915050565b600082601f8301126200066e576200066d62000ab4565b5b815162000680848260208601620005f4565b91505092915050565b600060208284031215620006a257620006a162000ac3565b5b6000620006b2848285016200063f565b91505092915050565b60008060408385031215620006d557620006d462000ac3565b5b6000620006e5858286016200063f565b925050602083015167ffffffffffffffff81111562000709576200070862000abe565b5b620007178582860162000656565b9150509250929050565b60006200072e8262000910565b6200073a818562000926565b93506200074c818560208601620009bb565b80840191505092915050565b600062000765826200091b565b62000771818562000931565b935062000783818560208601620009bb565b6200078e8162000ac8565b840191505092915050565b6000620007a860258362000931565b9150620007b58262000ad9565b604082019050919050565b6000620007cf60268362000931565b9150620007dc8262000b28565b604082019050919050565b6000620007f660308362000931565b9150620008038262000b77565b604082019050919050565b60006200081c828462000721565b915081905092915050565b6000602082019050818103600083015262000843818462000758565b905092915050565b60006020820190508181036000830152620008668162000799565b9050919050565b600060208201905081810360008301526200088881620007c0565b9050919050565b60006020820190508181036000830152620008aa81620007e7565b9050919050565b6000620008bd620008d0565b9050620008cb8282620009f1565b919050565b6000604051905090565b600067ffffffffffffffff821115620008f857620008f762000a85565b5b620009038262000ac8565b9050602081019050919050565b600081519050919050565b600081519050919050565b600081905092915050565b600082825260208201905092915050565b60006200094f82620009b1565b91506200095c83620009b1565b92508282101562000972576200097162000a56565b5b828203905092915050565b60006200098a8262000991565b9050919050565b600073ffffffffffffffffffffffffffffffffffffffff82169050919050565b6000819050919050565b60005b83811015620009db578082015181840152602081019050620009be565b83811115620009eb576000848401525b50505050565b620009fc8262000ac8565b810181811067ffffffffffffffff8211171562000a1e5762000a1d62000a85565b5b80604052505050565b7f4e487b7100000000000000000000000000000000000000000000000000000000600052600160045260246000fd5b7f4e487b7100000000000000000000000000000000000000000000000000000000600052601160045260246000fd5b7f4e487b7100000000000000000000000000000000000000000000000000000000600052604160045260246000fd5b600080fd5b600080fd5b600080fd5b600080fd5b6000601f19601f8301169050919050565b7f455243313936373a206e657720626561636f6e206973206e6f74206120636f6e60008201527f7472616374000000000000000000000000000000000000000000000000000000602082015250565b7f416464726573733a2064656c65676174652063616c6c20746f206e6f6e2d636f60008201527f6e74726163740000000000000000000000000000000000000000000000000000602082015250565b7f455243313936373a20626561636f6e20696d706c656d656e746174696f6e206960008201527f73206e6f74206120636f6e747261637400000000000000000000000000000000602082015250565b62000bd1816200097d565b811462000bdd57600080fd5b50565b611f918062000bf06000396000f3fe6080604052600436106101845760003560e01c8063715018a6116100d157806391d148541161008a578063cff5600311610064578063cff56003146105b5578063d547741f146105f2578063f2fde38b1461061b578063f851a4401461064457610193565b806391d1485414610522578063a217fddf1461055f578063a949a9d71461058a57610193565b8063715018a6146104225780637eed33f114610439578063841abf6e1461046457806384900b041461048f5780638da5cb5b146104ba5780639122ce6d146104e557610193565b8063267175db1161013e57806336568abe1161011857806336568abe1461037857806352e6e5f3146103a157806360c7dc47146103cc5780636cc15ad5146103f757610193565b8063267175db146102d55780632ae6b135146103125780632f2ff15d1461034f57610193565b8062b2476f1461019d57806301ffc9a7146101c85780630635dbcb146102055780630c6f7959146102305780631dd7f8ca1461026d578063248a9ca31461029857610193565b366101935761019161066f565b005b61019b61066f565b005b3480156101a957600080fd5b506101b2610689565b6040516101bf91906118cf565b60405180910390f35b3480156101d457600080fd5b506101ef60048036038101906101ea919061163a565b6106af565b6040516101fc91906118ea565b60405180910390f35b34801561021157600080fd5b5061021a610729565b60405161022791906118ea565b60405180910390f35b34801561023c57600080fd5b506102576004803603810190610252919061158d565b61073c565b6040516102649190611a18565b60405180910390f35b34801561027957600080fd5b5061028261076d565b60405161028f91906118cf565b60405180910390f35b3480156102a457600080fd5b506102bf60048036038101906102ba91906115cd565b610793565b6040516102cc9190611905565b60405180910390f35b3480156102e157600080fd5b506102fc60048036038101906102f79190611667565b6107b3565b60405161030991906118cf565b60405180910390f35b34801561031e57600080fd5b5061033960048036038101906103349190611533565b6107f2565b6040516103469190611a18565b60405180910390f35b34801561035b57600080fd5b50610376600480360381019061037191906115fa565b61080a565b005b34801561038457600080fd5b5061039f600480360381019061039a91906115fa565b610833565b005b3480156103ad57600080fd5b506103b66108b6565b6040516103c39190611a18565b60405180910390f35b3480156103d857600080fd5b506103e16108bc565b6040516103ee9190611a18565b60405180910390f35b34801561040357600080fd5b5061040c6108c2565b60405161041991906118ea565b60405180910390f35b34801561042e57600080fd5b506104376108d5565b005b34801561044557600080fd5b5061044e61095d565b60405161045b9190611a18565b60405180910390f35b34801561047057600080fd5b50610479610963565b6040516104869190611956565b60405180910390f35b34801561049b57600080fd5b506104a46109f1565b6040516104b1919061193b565b60405180910390f35b3480156104c657600080fd5b506104cf610a17565b6040516104dc91906118cf565b60405180910390f35b3480156104f157600080fd5b5061050c60048036038101906105079190611533565b610a40565b60405161051991906118ea565b60405180910390f35b34801561052e57600080fd5b50610549600480360381019061054491906115fa565b610a60565b60405161055691906118ea565b60405180910390f35b34801561056b57600080fd5b50610574610acb565b6040516105819190611905565b60405180910390f35b34801561059657600080fd5b5061059f610ad2565b6040516105ac9190611920565b60405180910390f35b3480156105c157600080fd5b506105dc60048036038101906105d7919061158d565b610af8565b6040516105e99190611a18565b60405180910390f35b3480156105fe57600080fd5b50610619600480360381019061061491906115fa565b610b29565b005b34801561062757600080fd5b50610642600480360381019061063d9190611533565b610b52565b005b34801561065057600080fd5b50610659610c4a565b60405161066691906118cf565b60405180910390f35b610677610cba565b610687610682610cbc565b610d48565b565b601060009054906101000a900473ffffffffffffffffffffffffffffffffffffffff1681565b60007f7965db0b000000000000000000000000000000000000000000000000000000007bffffffffffffffffffffffffffffffffffffffffffffffffffffffff1916827bffffffffffffffffffffffffffffffffffffffffffffffffffffffff19161480610722575061072182610d6e565b5b9050919050565b600760159054906101000a900460ff1681565b6009602052816000526040600020818154811061075857600080fd5b90600052602060002001600091509150505481565b600760009054906101000a900473ffffffffffffffffffffffffffffffffffffffff1681565b600060016000838152602001908152602001600020600101549050919050565b600d81815481106107c357600080fd5b906000526020600020016000915054906101000a900473ffffffffffffffffffffffffffffffffffffffff1681565b600b6020528060005260406000206000915090505481565b61081382610793565b6108248161081f610dd8565b610de0565b61082e8383610e7d565b505050565b61083b610dd8565b73ffffffffffffffffffffffffffffffffffffffff168173ffffffffffffffffffffffffffffffffffffffff16146108a8576040517f08c379a000000000000000000000000000000000000000000000000000000000815260040161089f906119f8565b60405180910390fd5b6108b28282610f5d565b5050565b60055481565b60045481565b600760149054906101000a900460ff1681565b6108dd610dd8565b73ffffffffffffffffffffffffffffffffffffffff166108fb610a17565b73ffffffffffffffffffffffffffffffffffffffff1614610951576040517f08c379a0000000000000000000000000000000000000000000000000000000008152600401610948906119b8565b60405180910390fd5b61095b600061103f565b565b60035481565b6002805461097090611c43565b80601f016020809104026020016040519081016040528092919081815260200182805461099c90611c43565b80156109e95780601f106109be576101008083540402835291602001916109e9565b820191906000526020600020905b8154815290600101906020018083116109cc57829003601f168201915b505050505081565b601260009054906101000a900473ffffffffffffffffffffffffffffffffffffffff1681565b60008060009054906101000a900473ffffffffffffffffffffffffffffffffffffffff16905090565b600c6020528060005260406000206000915054906101000a900460ff1681565b60006001600084815260200190815260200160002060000160008373ffffffffffffffffffffffffffffffffffffffff1673ffffffffffffffffffffffffffffffffffffffff16815260200190815260200160002060009054906101000a900460ff16905092915050565b6000801b81565b601460009054906101000a900473ffffffffffffffffffffffffffffffffffffffff1681565b600a6020528160005260406000208181548110610b1457600080fd5b90600052602060002001600091509150505481565b610b3282610793565b610b4381610b3e610dd8565b610de0565b610b4d8383610f5d565b505050565b610b5a610dd8565b73ffffffffffffffffffffffffffffffffffffffff16610b78610a17565b73ffffffffffffffffffffffffffffffffffffffff1614610bce576040517f08c379a0000000000000000000000000000000000000000000000000000000008152600401610bc5906119b8565b60405180910390fd5b600073ffffffffffffffffffffffffffffffffffffffff168173ffffffffffffffffffffffffffffffffffffffff161415610c3e576040517f08c379a0000000000000000000000000000000000000000000000000000000008152600401610c3590611998565b60405180910390fd5b610c478161103f565b50565b600660009054906101000a900473ffffffffffffffffffffffffffffffffffffffff1681565b6060610c958383604051806060016040528060278152602001611f3560279139611103565b905092915050565b600080823b905060008111915050919050565b6000819050919050565b565b6000610cc66111d0565b73ffffffffffffffffffffffffffffffffffffffff16635c60da1b6040518163ffffffff1660e01b815260040160206040518083038186803b158015610d0b57600080fd5b505afa158015610d1f573d6000803e3d6000fd5b505050506040513d601f19601f82011682018060405250810190610d439190611560565b905090565b3660008037600080366000845af43d6000803e8060008114610d69573d6000f35b3d6000fd5b60007f01ffc9a7000000000000000000000000000000000000000000000000000000007bffffffffffffffffffffffffffffffffffffffffffffffffffffffff1916827bffffffffffffffffffffffffffffffffffffffffffffffffffffffff1916149050919050565b600033905090565b610dea8282610a60565b610e7957610e0f8173ffffffffffffffffffffffffffffffffffffffff166014611227565b610e1d8360001c6020611227565b604051602001610e2e929190611895565b6040516020818303038152906040526040517f08c379a0000000000000000000000000000000000000000000000000000000008152600401610e709190611956565b60405180910390fd5b5050565b610e878282610a60565b610f5957600180600084815260200190815260200160002060000160008373ffffffffffffffffffffffffffffffffffffffff1673ffffffffffffffffffffffffffffffffffffffff16815260200190815260200160002060006101000a81548160ff021916908315150217905550610efe610dd8565b73ffffffffffffffffffffffffffffffffffffffff168173ffffffffffffffffffffffffffffffffffffffff16837f2f8788117e7eff1d82e926ec794901d17c78024a50270940304540a733656f0d60405160405180910390a45b5050565b610f678282610a60565b1561103b5760006001600084815260200190815260200160002060000160008373ffffffffffffffffffffffffffffffffffffffff1673ffffffffffffffffffffffffffffffffffffffff16815260200190815260200160002060006101000a81548160ff021916908315150217905550610fe0610dd8565b73ffffffffffffffffffffffffffffffffffffffff168173ffffffffffffffffffffffffffffffffffffffff16837ff6391f5c32d9c69d2a47ea670b442974b53935d1edc7fd64eb21e047a839171b60405160405180910390a45b5050565b60008060009054906101000a900473ffffffffffffffffffffffffffffffffffffffff169050816000806101000a81548173ffffffffffffffffffffffffffffffffffffffff021916908373ffffffffffffffffffffffffffffffffffffffff1602179055508173ffffffffffffffffffffffffffffffffffffffff168173ffffffffffffffffffffffffffffffffffffffff167f8be0079c531659141344cd1fd0a4f28419497f9722a3daafe3b4186f6b6457e060405160405180910390a35050565b606061110e84610c9d565b61114d576040517f08c379a0000000000000000000000000000000000000000000000000000000008152600401611144906119d8565b60405180910390fd5b6000808573ffffffffffffffffffffffffffffffffffffffff1685604051611175919061187e565b600060405180830381855af49150503d80600081146111b0576040519150601f19603f3d011682016040523d82523d6000602084013e6111b5565b606091505b50915091506111c5828286611463565b925050509392505050565b60006111fe7fa3f0ad74e5423aebfd80d3ef4346578335a9a72aeaee59ff6cb3582b35133d5060001b610cb0565b60000160009054906101000a900473ffffffffffffffffffffffffffffffffffffffff16905090565b60606000600283600261123a9190611ac6565b6112449190611a70565b67ffffffffffffffff81111561125d5761125c611d02565b5b6040519080825280601f01601f19166020018201604052801561128f5781602001600182028036833780820191505090505b5090507f3000000000000000000000000000000000000000000000000000000000000000816000815181106112c7576112c6611cd3565b5b60200101907effffffffffffffffffffffffffffffffffffffffffffffffffffffffffffff1916908160001a9053507f78000000000000000000000000000000000000000000000000000000000000008160018151811061132b5761132a611cd3565b5b60200101907effffffffffffffffffffffffffffffffffffffffffffffffffffffffffffff1916908160001a9053506000600184600261136b9190611ac6565b6113759190611a70565b90505b6001811115611415577f3031323334353637383961626364656600000000000000000000000000000000600f8616601081106113b7576113b6611cd3565b5b1a60f81b8282815181106113ce576113cd611cd3565b5b60200101907effffffffffffffffffffffffffffffffffffffffffffffffffffffffffffff1916908160001a905350600485901c94508061140e90611c19565b9050611378565b5060008414611459576040517f08c379a000000000000000000000000000000000000000000000000000000000815260040161145090611978565b60405180910390fd5b8091505092915050565b60608315611473578290506114c3565b6000835111156114865782518084602001fd5b816040517f08c379a00000000000000000000000000000000000000000000000000000000081526004016114ba9190611956565b60405180910390fd5b9392505050565b6000813590506114d981611ed8565b92915050565b6000815190506114ee81611ed8565b92915050565b60008135905061150381611eef565b92915050565b60008135905061151881611f06565b92915050565b60008135905061152d81611f1d565b92915050565b60006020828403121561154957611548611d31565b5b6000611557848285016114ca565b91505092915050565b60006020828403121561157657611575611d31565b5b6000611584848285016114df565b91505092915050565b600080604083850312156115a4576115a3611d31565b5b60006115b2858286016114ca565b92505060206115c38582860161151e565b9150509250929050565b6000602082840312156115e3576115e2611d31565b5b60006115f1848285016114f4565b91505092915050565b6000806040838503121561161157611610611d31565b5b600061161f858286016114f4565b9250506020611630858286016114ca565b9150509250929050565b6000602082840312156116505761164f611d31565b5b600061165e84828501611509565b91505092915050565b60006020828403121561167d5761167c611d31565b5b600061168b8482850161151e565b91505092915050565b61169d81611b20565b82525050565b6116ac81611b32565b82525050565b6116bb81611b3e565b82525050565b60006116cc82611a33565b6116d68185611a49565b93506116e6818560208601611be6565b80840191505092915050565b6116fb81611b9e565b82525050565b61170a81611bb0565b82525050565b600061171b82611a3e565b6117258185611a54565b9350611735818560208601611be6565b61173e81611d36565b840191505092915050565b600061175482611a3e565b61175e8185611a65565b935061176e818560208601611be6565b80840191505092915050565b6000611787602083611a54565b915061179282611d47565b602082019050919050565b60006117aa602683611a54565b91506117b582611d70565b604082019050919050565b60006117cd602083611a54565b91506117d882611dbf565b602082019050919050565b60006117f0602683611a54565b91506117fb82611de8565b604082019050919050565b6000611813601783611a65565b915061181e82611e37565b601782019050919050565b6000611836601183611a65565b915061184182611e60565b601182019050919050565b6000611859602f83611a54565b915061186482611e89565b604082019050919050565b61187881611b94565b82525050565b600061188a82846116c1565b915081905092915050565b60006118a082611806565b91506118ac8285611749565b91506118b782611829565b91506118c38284611749565b91508190509392505050565b60006020820190506118e46000830184611694565b92915050565b60006020820190506118ff60008301846116a3565b92915050565b600060208201905061191a60008301846116b2565b92915050565b600060208201905061193560008301846116f2565b92915050565b60006020820190506119506000830184611701565b92915050565b600060208201905081810360008301526119708184611710565b905092915050565b600060208201905081810360008301526119918161177a565b9050919050565b600060208201905081810360008301526119b18161179d565b9050919050565b600060208201905081810360008301526119d1816117c0565b9050919050565b600060208201905081810360008301526119f1816117e3565b9050919050565b60006020820190508181036000830152611a118161184c565b9050919050565b6000602082019050611a2d600083018461186f565b92915050565b600081519050919050565b600081519050919050565b600081905092915050565b600082825260208201905092915050565b600081905092915050565b6000611a7b82611b94565b9150611a8683611b94565b9250827fffffffffffffffffffffffffffffffffffffffffffffffffffffffffffffffff03821115611abb57611aba611c75565b5b828201905092915050565b6000611ad182611b94565b9150611adc83611b94565b9250817fffffffffffffffffffffffffffffffffffffffffffffffffffffffffffffffff0483118215151615611b1557611b14611c75565b5b828202905092915050565b6000611b2b82611b74565b9050919050565b60008115159050919050565b6000819050919050565b60007fffffffff0000000000000000000000000000000000000000000000000000000082169050919050565b600073ffffffffffffffffffffffffffffffffffffffff82169050919050565b6000819050919050565b6000611ba982611bc2565b9050919050565b6000611bbb82611bc2565b9050919050565b6000611bcd82611bd4565b9050919050565b6000611bdf82611b74565b9050919050565b60005b83811015611c04578082015181840152602081019050611be9565b83811115611c13576000848401525b50505050565b6000611c2482611b94565b91506000821415611c3857611c37611c75565b5b600182039050919050565b60006002820490506001821680611c5b57607f821691505b60208210811415611c6f57611c6e611ca4565b5b50919050565b7f4e487b7100000000000000000000000000000000000000000000000000000000600052601160045260246000fd5b7f4e487b7100000000000000000000000000000000000000000000000000000000600052602260045260246000fd5b7f4e487b7100000000000000000000000000000000000000000000000000000000600052603260045260246000fd5b7f4e487b7100000000000000000000000000000000000000000000000000000000600052604160045260246000fd5b600080fd5b6000601f19601f8301169050919050565b7f537472696e67733a20686578206c656e67746820696e73756666696369656e74600082015250565b7f4f776e61626c653a206e6577206f776e657220697320746865207a65726f206160008201527f6464726573730000000000000000000000000000000000000000000000000000602082015250565b7f4f776e61626c653a2063616c6c6572206973206e6f7420746865206f776e6572600082015250565b7f416464726573733a2064656c65676174652063616c6c20746f206e6f6e2d636f60008201527f6e74726163740000000000000000000000000000000000000000000000000000602082015250565b7f416363657373436f6e74726f6c3a206163636f756e7420000000000000000000600082015250565b7f206973206d697373696e6720726f6c6520000000000000000000000000000000600082015250565b7f416363657373436f6e74726f6c3a2063616e206f6e6c792072656e6f756e636560008201527f20726f6c657320666f722073656c660000000000000000000000000000000000602082015250565b611ee181611b20565b8114611eec57600080fd5b50565b611ef881611b3e565b8114611f0357600080fd5b50565b611f0f81611b48565b8114611f1a57600080fd5b50565b611f2681611b94565b8114611f3157600080fd5b5056fe416464726573733a206c6f772d6c6576656c2064656c65676174652063616c6c206661696c6564a2646970667358221220e31759626fe2d4d42e64a8812157e26119fb90dd3b0e0583844d7c3fae0cf7c864736f6c63430008070033416464726573733a206c6f772d6c6576656c2064656c65676174652063616c6c206661696c6564",
  "linkReferences": {},
  "deployedLinkReferences": {}
}